{
    "balance_change": {
        "balanceChanges": [
            {
                "account": "0x194b1f8302268135bd73042199a6fdce71ba0a2c",
                "assets": [
                    {
                        "address": "0x25b4f5d4c314bcd5d7962734936c957b947cb7cf",
                        "amount": "464.138201450470169272",
                        "iconUrl": "",
                        "isERC1155": false,
                        "isERC721": false,
                        "sign": true,
                        "value": "375.8885037"
                    },
                    {
                        "address": "0xeeeeeeeeeeeeeeeeeeeeeeeeeeeeeeeeeeeeeeee",
                        "amount": "0.015135867459062575",
                        "iconUrl": "https://assets.blocksec.com/image/1663669189317-3.png",
                        "isERC1155": false,
                        "isERC721": false,
                        "sign": true,
                        "value": "38.29854985"
                    }
                ]
            },
            {
                "account": "0x0916568854fc53b720186052d8013d62a0409b47",
                "assets": [
                    {
                        "address": "0x25b4f5d4c314bcd5d7962734936c957b947cb7cf",
                        "amount": "464.138201450470169272",
                        "iconUrl": "",
                        "isERC1155": false,
                        "isERC721": false,
                        "sign": false,
                        "value": "375.8885037"
                    },
                    {
                        "address": "0xeeeeeeeeeeeeeeeeeeeeeeeeeeeeeeeeeeeeeeee",
                        "amount": "0.015135867459062575",
                        "iconUrl": "https://assets.blocksec.com/image/1663669189317-3.png",
                        "isERC1155": false,
                        "isERC721": false,
                        "sign": false,
                        "value": "38.29854985"
                    }
                ]
            }
        ]
    },
    "profile": {
        "basic_info": {
            "baseFee": "24.163923533",
            "blockNumber": 19203200,
            "callData": "0x2a45611500000000000000000000000000000000000000000000000000000000000000200000000000000000000000000000000000000000000000000000000000000003000000000000000000000000000000000000000000000000000000000000000000000000000000000000000000000000000000000000000000000000000000010000000000000000000000000000000000000000000000000000000000000002",
            "debugEnable": true,
            "errorInfo": "",
            "eventCount": 7,
            "feeRecipient": "0x4838b106fce9647bdf1e7877bf73ce8b0bad5f97",
            "formatValue": "0",
            "gasLimit": 368754,
            "gasPrice": "24.164923533",
            "gasUsed": 237506,
            "intTxnCount": 5,
            "internalRevert": false,
            "internalRevertMessage": "",
            "isContractCreation": false,
            "isFlashloan": false,
            "maxFee": "25.447313311",
            "nonce": 218,
            "overwritedBlockNumber": -1,
            "priorityFee": "0.001",
            "receiver": "0x0916568854fc53b720186052d8013d62a0409b47",
            "revertMessage": "",
            "sender": "0x194b1f8302268135bd73042199a6fdce71ba0a2c",
            "simulationEnable": true,
            "sourceTxnHash": "0xaa7aeeda03f88a6b933ac5149614f5831e94dee1a1dea6637ae4abc205484a25",
            "status": true,
            "timestamp": "2024-02-11T06:59:23Z",
            "transactionFee": "0.005739314328628698",
            "txnHash": "0xaa7aeeda03f88a6b933ac5149614f5831e94dee1a1dea6637ae4abc205484a25",
            "txnIndex": 117,
            "type": 2,
            "value": "0"
        },
        "fund_flow": [
            {
                "amount": "464.138201450470169272",
                "from": "0x0916568854fc53b720186052d8013d62a0409b47",
                "id": 1,
                "isERC1155": false,
                "isERC721": false,
                "isReverted": false,
                "order": 1,
                "to": "0x194b1f8302268135bd73042199a6fdce71ba0a2c",
                "token": "0x25b4f5d4c314bcd5d7962734936c957b947cb7cf"
            },
            {
                "amount": "0.015135867459062575",
                "from": "0x0916568854fc53b720186052d8013d62a0409b47",
                "id": 2,
                "isERC1155": false,
                "isERC721": false,
                "isReverted": false,
                "order": 2,
                "to": "0x194b1f8302268135bd73042199a6fdce71ba0a2c",
                "token": "0xeeeeeeeeeeeeeeeeeeeeeeeeeeeeeeeeeeeeeeee"
            }
        ],
        "token_infos": [
            {
                "address": "0xeeeeeeeeeeeeeeeeeeeeeeeeeeeeeeeeeeeeeeee",
                "decimals": 18
            },
            {
                "address": "0x25b4f5d4c314bcd5d7962734936c957b947cb7cf",
                "decimals": 18
            },
            {
                "address": "0xc02aaa39b223fe8d0a0e5c4f27ead9083c756cc2",
                "decimals": 18
            }
        ]
    },
    "address_label": {
        "labels": [
            {
                "address": "0x25b4f5d4c314bcd5d7962734936c957b947cb7cf",
                "label": "TG Casino: TGC Token"
            },
            {
                "address": "0x0916568854fc53b720186052d8013d62a0409b47",
                "label": "TransparentUpgradeableProxy"
            },
            {
                "address": "0x176bd8035ab5dba3d5893271f2b7e51085b06732",
                "label": "MultiStakingManagerV2"
            },
            {
                "address": "0x0000000000000000000000000000000000000001",
                "label": "Precompiled"
            },
            {
                "address": "0x0000000000000000000000000000000000000002",
                "label": "Precompiled"
            },
            {
                "address": "0x0000000000000000000000000000000000000003",
                "label": "Precompiled"
            },
            {
                "address": "0x0000000000000000000000000000000000000004",
                "label": "Precompiled"
            },
            {
                "address": "0xeeeeeeeeeeeeeeeeeeeeeeeeeeeeeeeeeeeeeeee",
                "label": "Ether"
            }
        ]
    },
    "trace": {
        "accountLabels": null,
        "dataMap": {
            "-1": {
                "invocation": {
                    "address": "0x194b1f8302268135bd73042199a6fdce71ba0a2c",
                    "callData": "",
                    "decodedMethod": null,
                    "errorInfo": "",
                    "fromAddress": "",
                    "gasUsed": 0,
                    "id": -1,
                    "methodDecoded": false,
                    "operation": "",
                    "output": "",
                    "revert": false,
                    "revertMessage": "",
                    "selector": "",
                    "status": false,
                    "value": ""
                },
                "nodeType": 0
            },
            "0": {
                "invocation": {
                    "address": "0x0916568854fc53b720186052d8013d62a0409b47",
                    "callData": "0x00000000000000000000000000000000000000000000000000000000000000200000000000000000000000000000000000000000000000000000000000000003000000000000000000000000000000000000000000000000000000000000000000000000000000000000000000000000000000000000000000000000000000010000000000000000000000000000000000000000000000000000000000000002",
                    "decodedMethod": {
                        "callParams": [
                            {
                                "name": "_poolIds",
                                "type": "uint256[]",
                                "value": [
                                    "0",
                                    "1",
                                    "2"
                                ]
                            }
                        ],
                        "constructorArguments": "",
                        "name": "harvestRewards",
                        "returnParams": [],
                        "signature": "harvestRewards(uint256[])"
                    },
                    "errorInfo": "",
                    "fromAddress": "0x194b1f8302268135bd73042199a6fdce71ba0a2c",
                    "gasUsed": 237506,
                    "id": 0,
                    "methodDecoded": true,
                    "operation": "CALL",
                    "output": "",
                    "revert": false,
                    "revertMessage": "",
                    "selector": "0x2a456115",
                    "status": true,
                    "value": "0"
                },
                "nodeType": 0
            },
            "1": {
                "invocation": {
                    "address": "0x176bd8035ab5dba3d5893271f2b7e51085b06732",
                    "callData": "0x00000000000000000000000000000000000000000000000000000000000000200000000000000000000000000000000000000000000000000000000000000003000000000000000000000000000000000000000000000000000000000000000000000000000000000000000000000000000000000000000000000000000000010000000000000000000000000000000000000000000000000000000000000002",
                    "decodedMethod": {
                        "callParams": [
                            {
                                "name": "_poolIds",
                                "type": "uint256[]",
                                "value": [
                                    "0",
                                    "1",
                                    "2"
                                ]
                            }
                        ],
                        "constructorArguments": "",
                        "name": "harvestRewards",
                        "returnParams": [],
                        "signature": "harvestRewards(uint256[])"
                    },
                    "errorInfo": "",
                    "fromAddress": "0x0916568854fc53b720186052d8013d62a0409b47",
                    "gasUsed": 211376,
                    "id": 1,
                    "methodDecoded": true,
                    "operation": "DELEGATECALL",
                    "output": "",
                    "revert": false,
                    "revertMessage": "",
                    "selector": "0x2a456115",
                    "status": true,
                    "value": "0"
                },
                "nodeType": 0
            },
            "10": {
                "invocation": {
                    "address": "0x25b4f5d4c314bcd5d7962734936c957b947cb7cf",
                    "callData": "0x000000000000000000000000194b1f8302268135bd73042199a6fdce71ba0a2c000000000000000000000000000000000000000000000011e4b45ed768930fc4",
                    "decodedMethod": {
                        "callParams": [
                            {
                                "name": "to",
                                "type": "address",
                                "value": "0x194b1f8302268135bd73042199a6fdce71ba0a2c"
                            },
                            {
                                "decimalAvailable": true,
                                "name": "amount",
                                "type": "uint256",
                                "value": "330,074,550,468,783,312,836"
                            }
                        ],
                        "constructorArguments": "",
                        "name": "transfer",
                        "returnParams": [
                            {
                                "name": "",
                                "type": "bool",
                                "value": true
                            }
                        ],
                        "signature": "transfer(address,uint256)"
                    },
                    "errorInfo": "",
                    "fromAddress": "0x0916568854fc53b720186052d8013d62a0409b47",
                    "gasUsed": 3343,
                    "id": 10,
                    "methodDecoded": true,
                    "operation": "CALL",
                    "output": "0x0000000000000000000000000000000000000000000000000000000000000001",
                    "revert": false,
                    "revertMessage": "",
                    "selector": "0xa9059cbb",
                    "status": true,
                    "value": "0"
                },
                "nodeType": 0
            },
            "11": {
                "event": {
                    "contract": "0x25b4f5d4c314bcd5d7962734936c957b947cb7cf",
                    "decodedLog": {
                        "name": "Transfer",
                        "params": [
                            {
                                "name": "from",
                                "type": "address",
                                "value": "0x0916568854fc53b720186052d8013d62a0409b47"
                            },
                            {
                                "name": "to",
                                "type": "address",
                                "value": "0x194b1f8302268135bd73042199a6fdce71ba0a2c"
                            },
                            {
                                "decimalAvailable": true,
                                "name": "value",
                                "type": "uint256",
                                "value": "330,074,550,468,783,312,836"
                            }
                        ],
                        "signature": "Transfer(address,address,uint256)"
                    },
                    "id": 11,
                    "logData": "0x000000000000000000000000000000000000000000000011e4b45ed768930fc4",
                    "logDecoded": true,
                    "operation": "EVENT",
                    "revert": false,
                    "status": true,
                    "topics": [
                        "0xddf252ad1be2c89b69c2b068fc378daa952ba7f163c4a11628f55a4df523b3ef",
                        "0x0000000000000000000000000916568854fc53b720186052d8013d62a0409b47",
                        "0x000000000000000000000000194b1f8302268135bd73042199a6fdce71ba0a2c"
                    ]
                },
                "nodeType": 1
            },
            "12": {
                "invocation": {
                    "address": "0x194b1f8302268135bd73042199a6fdce71ba0a2c",
                    "callData": "0x",
                    "decodedMethod": null,
                    "errorInfo": "",
                    "fromAddress": "0x0916568854fc53b720186052d8013d62a0409b47",
                    "gasUsed": 0,
                    "id": 12,
                    "methodDecoded": false,
                    "operation": "CALL",
                    "output": "",
                    "revert": false,
                    "revertMessage": "",
                    "selector": "fallback",
                    "status": true,
                    "value": "0.015135867459062575"
                },
                "nodeType": 0
            },
            "2": {
                "event": {
                    "contract": "0x0916568854fc53b720186052d8013d62a0409b47",
                    "decodedLog": {
                        "name": "HarvestRewards",
                        "params": [
                            {
                                "name": "pool",
                                "type": "uint256",
                                "value": "0"
                            },
                            {
                                "name": "user",
                                "type": "address",
                                "value": "0x194b1f8302268135bd73042199a6fdce71ba0a2c"
                            },
                            {
                                "name": "token",
                                "type": "address",
                                "value": "0x25b4f5d4c314bcd5d7962734936c957b947cb7cf"
                            },
                            {
                                "name": "amount",
                                "type": "uint256",
                                "value": "24,376,586,329,591,673,701"
                            },
                            {
                                "name": "timestamp",
                                "type": "uint256",
                                "value": "1,707,634,763"
                            }
                        ],
                        "signature": "HarvestRewards(uint256,address,address,uint256,uint256)"
                    },
                    "id": 2,
                    "logData": "0x000000000000000000000000000000000000000000000001524b081d33f473650000000000000000000000000000000000000000000000000000000065c8704b",
                    "logDecoded": true,
                    "operation": "EVENT",
                    "revert": false,
                    "status": true,
                    "topics": [
                        "0xb212aab63d2cea75226d870069b6f234e2ef0a3b67015822945f80d6e29d4b90",
                        "0x0000000000000000000000000000000000000000000000000000000000000000",
                        "0x000000000000000000000000194b1f8302268135bd73042199a6fdce71ba0a2c",
                        "0x00000000000000000000000025b4f5d4c314bcd5d7962734936c957b947cb7cf"
                    ]
                },
                "nodeType": 1
            },
            "3": {
                "invocation": {
                    "address": "0x25b4f5d4c314bcd5d7962734936c957b947cb7cf",
                    "callData": "0x000000000000000000000000194b1f8302268135bd73042199a6fdce71ba0a2c000000000000000000000000000000000000000000000001524b081d33f47365",
                    "decodedMethod": {
                        "callParams": [
                            {
                                "name": "to",
                                "type": "address",
                                "value": "0x194b1f8302268135bd73042199a6fdce71ba0a2c"
                            },
                            {
                                "decimalAvailable": true,
                                "name": "amount",
                                "type": "uint256",
                                "value": "24,376,586,329,591,673,701"
                            }
                        ],
                        "constructorArguments": "",
                        "name": "transfer",
                        "returnParams": [
                            {
                                "name": "",
                                "type": "bool",
                                "value": true
                            }
                        ],
                        "signature": "transfer(address,uint256)"
                    },
                    "errorInfo": "",
                    "fromAddress": "0x0916568854fc53b720186052d8013d62a0409b47",
                    "gasUsed": 14943,
                    "id": 3,
                    "methodDecoded": true,
                    "operation": "CALL",
                    "output": "0x0000000000000000000000000000000000000000000000000000000000000001",
                    "revert": false,
                    "revertMessage": "",
                    "selector": "0xa9059cbb",
                    "status": true,
                    "value": "0"
                },
                "nodeType": 0
            },
            "4": {
                "event": {
                    "contract": "0x25b4f5d4c314bcd5d7962734936c957b947cb7cf",
                    "decodedLog": {
                        "name": "Transfer",
                        "params": [
                            {
                                "name": "from",
                                "type": "address",
                                "value": "0x0916568854fc53b720186052d8013d62a0409b47"
                            },
                            {
                                "name": "to",
                                "type": "address",
                                "value": "0x194b1f8302268135bd73042199a6fdce71ba0a2c"
                            },
                            {
                                "decimalAvailable": true,
                                "name": "value",
                                "type": "uint256",
                                "value": "24,376,586,329,591,673,701"
                            }
                        ],
                        "signature": "Transfer(address,address,uint256)"
                    },
                    "id": 4,
                    "logData": "0x000000000000000000000000000000000000000000000001524b081d33f47365",
                    "logDecoded": true,
                    "operation": "EVENT",
                    "revert": false,
                    "status": true,
                    "topics": [
                        "0xddf252ad1be2c89b69c2b068fc378daa952ba7f163c4a11628f55a4df523b3ef",
                        "0x0000000000000000000000000916568854fc53b720186052d8013d62a0409b47",
                        "0x000000000000000000000000194b1f8302268135bd73042199a6fdce71ba0a2c"
                    ]
                },
                "nodeType": 1
            },
            "5": {
                "event": {
                    "contract": "0x0916568854fc53b720186052d8013d62a0409b47",
                    "decodedLog": {
                        "name": "HarvestRewards",
                        "params": [
                            {
                                "name": "pool",
                                "type": "uint256",
                                "value": "1"
                            },
                            {
                                "name": "user",
                                "type": "address",
                                "value": "0x194b1f8302268135bd73042199a6fdce71ba0a2c"
                            },
                            {
                                "name": "token",
                                "type": "address",
                                "value": "0x25b4f5d4c314bcd5d7962734936c957b947cb7cf"
                            },
                            {
                                "name": "amount",
                                "type": "uint256",
                                "value": "109,687,064,652,095,182,735"
                            },
                            {
                                "name": "timestamp",
                                "type": "uint256",
                                "value": "1,707,634,763"
                            }
                        ],
                        "signature": "HarvestRewards(uint256,address,address,uint256,uint256)"
                    },
                    "id": 5,
                    "logData": "0x000000000000000000000000000000000000000000000005f236bc277370578f0000000000000000000000000000000000000000000000000000000065c8704b",
                    "logDecoded": true,
                    "operation": "EVENT",
                    "revert": false,
                    "status": true,
                    "topics": [
                        "0xb212aab63d2cea75226d870069b6f234e2ef0a3b67015822945f80d6e29d4b90",
                        "0x0000000000000000000000000000000000000000000000000000000000000001",
                        "0x000000000000000000000000194b1f8302268135bd73042199a6fdce71ba0a2c",
                        "0x00000000000000000000000025b4f5d4c314bcd5d7962734936c957b947cb7cf"
                    ]
                },
                "nodeType": 1
            },
            "6": {
                "invocation": {
                    "address": "0x25b4f5d4c314bcd5d7962734936c957b947cb7cf",
                    "callData": "0x000000000000000000000000194b1f8302268135bd73042199a6fdce71ba0a2c000000000000000000000000000000000000000000000005f236bc277370578f",
                    "decodedMethod": {
                        "callParams": [
                            {
                                "name": "to",
                                "type": "address",
                                "value": "0x194b1f8302268135bd73042199a6fdce71ba0a2c"
                            },
                            {
                                "decimalAvailable": true,
                                "name": "amount",
                                "type": "uint256",
                                "value": "109,687,064,652,095,182,735"
                            }
                        ],
                        "constructorArguments": "",
                        "name": "transfer",
                        "returnParams": [
                            {
                                "name": "",
                                "type": "bool",
                                "value": true
                            }
                        ],
                        "signature": "transfer(address,uint256)"
                    },
                    "errorInfo": "",
                    "fromAddress": "0x0916568854fc53b720186052d8013d62a0409b47",
                    "gasUsed": 3343,
                    "id": 6,
                    "methodDecoded": true,
                    "operation": "CALL",
                    "output": "0x0000000000000000000000000000000000000000000000000000000000000001",
                    "revert": false,
                    "revertMessage": "",
                    "selector": "0xa9059cbb",
                    "status": true,
                    "value": "0"
                },
                "nodeType": 0
            },
            "7": {
                "event": {
                    "contract": "0x25b4f5d4c314bcd5d7962734936c957b947cb7cf",
                    "decodedLog": {
                        "name": "Transfer",
                        "params": [
                            {
                                "name": "from",
                                "type": "address",
                                "value": "0x0916568854fc53b720186052d8013d62a0409b47"
                            },
                            {
                                "name": "to",
                                "type": "address",
                                "value": "0x194b1f8302268135bd73042199a6fdce71ba0a2c"
                            },
                            {
                                "decimalAvailable": true,
                                "name": "value",
                                "type": "uint256",
                                "value": "109,687,064,652,095,182,735"
                            }
                        ],
                        "signature": "Transfer(address,address,uint256)"
                    },
                    "id": 7,
                    "logData": "0x000000000000000000000000000000000000000000000005f236bc277370578f",
                    "logDecoded": true,
                    "operation": "EVENT",
                    "revert": false,
                    "status": true,
                    "topics": [
                        "0xddf252ad1be2c89b69c2b068fc378daa952ba7f163c4a11628f55a4df523b3ef",
                        "0x0000000000000000000000000916568854fc53b720186052d8013d62a0409b47",
                        "0x000000000000000000000000194b1f8302268135bd73042199a6fdce71ba0a2c"
                    ]
                },
                "nodeType": 1
            },
            "8": {
                "event": {
                    "contract": "0x0916568854fc53b720186052d8013d62a0409b47",
                    "decodedLog": {
                        "name": "HarvestRewards",
                        "params": [
                            {
                                "name": "pool",
                                "type": "uint256",
                                "value": "2"
                            },
                            {
                                "name": "user",
                                "type": "address",
                                "value": "0x194b1f8302268135bd73042199a6fdce71ba0a2c"
                            },
                            {
                                "name": "token",
                                "type": "address",
                                "value": "0x25b4f5d4c314bcd5d7962734936c957b947cb7cf"
                            },
                            {
                                "name": "amount",
                                "type": "uint256",
                                "value": "330,074,550,468,783,312,836"
                            },
                            {
                                "name": "timestamp",
                                "type": "uint256",
                                "value": "1,707,634,763"
                            }
                        ],
                        "signature": "HarvestRewards(uint256,address,address,uint256,uint256)"
                    },
                    "id": 8,
                    "logData": "0x000000000000000000000000000000000000000000000011e4b45ed768930fc40000000000000000000000000000000000000000000000000000000065c8704b",
                    "logDecoded": true,
                    "operation": "EVENT",
                    "revert": false,
                    "status": true,
                    "topics": [
                        "0xb212aab63d2cea75226d870069b6f234e2ef0a3b67015822945f80d6e29d4b90",
                        "0x0000000000000000000000000000000000000000000000000000000000000002",
                        "0x000000000000000000000000194b1f8302268135bd73042199a6fdce71ba0a2c",
                        "0x00000000000000000000000025b4f5d4c314bcd5d7962734936c957b947cb7cf"
                    ]
                },
                "nodeType": 1
            },
            "9": {
                "event": {
                    "contract": "0x0916568854fc53b720186052d8013d62a0409b47",
                    "decodedLog": {
                        "name": "HarvestRewards",
                        "params": [
                            {
                                "name": "pool",
                                "type": "uint256",
                                "value": "2"
                            },
                            {
                                "name": "user",
                                "type": "address",
                                "value": "0x194b1f8302268135bd73042199a6fdce71ba0a2c"
                            },
                            {
                                "name": "token",
                                "type": "address",
                                "value": "0x0000000000000000000000000000000000000000"
                            },
                            {
                                "name": "amount",
                                "type": "uint256",
                                "value": "15,135,867,459,062,575"
                            },
                            {
                                "name": "timestamp",
                                "type": "uint256",
                                "value": "1,707,634,763"
                            }
                        ],
                        "signature": "HarvestRewards(uint256,address,address,uint256,uint256)"
                    },
                    "id": 9,
                    "logData": "0x0000000000000000000000000000000000000000000000000035c5fdc343cb2f0000000000000000000000000000000000000000000000000000000065c8704b",
                    "logDecoded": true,
                    "operation": "EVENT",
                    "revert": false,
                    "status": true,
                    "topics": [
                        "0xb212aab63d2cea75226d870069b6f234e2ef0a3b67015822945f80d6e29d4b90",
                        "0x0000000000000000000000000000000000000000000000000000000000000002",
                        "0x000000000000000000000000194b1f8302268135bd73042199a6fdce71ba0a2c",
                        "0x0000000000000000000000000000000000000000000000000000000000000000"
                    ]
                },
                "nodeType": 1
            }
        },
        "gasFlame": [
            {
                "children": [
                    {
                        "children": [
                            {
                                "children": [],
                                "depth": 0,
                                "name": "Initial Gas",
                                "value": 21752
                            },
                            {
                                "children": [
                                    {
                                        "children": [
                                            {
                                                "children": [],
                                                "depth": 2,
                                                "name": "transfer",
                                                "value": 14943
                                            },
                                            {
                                                "children": [],
                                                "depth": 2,
                                                "name": "transfer",
                                                "value": 3343
                                            },
                                            {
                                                "children": [],
                                                "depth": 2,
                                                "name": "transfer",
                                                "value": 3343
                                            },
                                            {
                                                "children": [],
                                                "depth": 2,
                                                "name": "fallback",
                                                "value": 0
                                            }
                                        ],
                                        "depth": 1,
                                        "name": "harvestRewards",
                                        "value": 211376
                                    }
                                ],
                                "depth": 0,
                                "name": "Executed Gas",
                                "value": 218554
                            }
                        ],
                        "depth": -1,
                        "name": "Actual Gas Used",
                        "value": 237506
                    },
                    {
                        "children": [],
                        "depth": -1,
                        "name": "Refunded Gas",
                        "value": 2800
                    }
                ],
                "depth": -2,
                "name": "Total Gas",
                "value": 240306
            }
        ],
        "isConfirmed": true,
        "mainTrace": [
            {
                "children": [
                    {
                        "children": [
                            {
                                "children": [
                                    {
                                        "children": [],
                                        "depth": 2,
                                        "id": 2,
                                        "order": 2
                                    },
                                    {
                                        "children": [
                                            {
                                                "children": [],
                                                "depth": 3,
                                                "id": 4,
                                                "order": 4
                                            }
                                        ],
                                        "depth": 2,
                                        "id": 3,
                                        "order": 3
                                    },
                                    {
                                        "children": [],
                                        "depth": 2,
                                        "id": 5,
                                        "order": 5
                                    },
                                    {
                                        "children": [
                                            {
                                                "children": [],
                                                "depth": 3,
                                                "id": 7,
                                                "order": 7
                                            }
                                        ],
                                        "depth": 2,
                                        "id": 6,
                                        "order": 6
                                    },
                                    {
                                        "children": [],
                                        "depth": 2,
                                        "id": 8,
                                        "order": 8
                                    },
                                    {
                                        "children": [],
                                        "depth": 2,
                                        "id": 9,
                                        "order": 9
                                    },
                                    {
                                        "children": [
                                            {
                                                "children": [],
                                                "depth": 3,
                                                "id": 11,
                                                "order": 11
                                            }
                                        ],
                                        "depth": 2,
                                        "id": 10,
                                        "order": 10
                                    },
                                    {
                                        "children": [],
                                        "depth": 2,
                                        "id": 12,
                                        "order": 12
                                    }
                                ],
                                "depth": 1,
                                "id": 1,
                                "order": 1
                            }
                        ],
                        "depth": 0,
                        "id": 0,
                        "order": 0
                    }
                ],
                "depth": -1,
                "id": -1,
                "order": -1
            }
        ],
        "mainTraceNodeCount": 13,
        "parentIdMap": {
            "0": -1,
            "1": 0,
            "10": 1,
            "11": 10,
            "12": 1,
            "2": 1,
            "3": 1,
            "4": 3,
            "5": 1,
            "6": 1,
            "7": 6,
            "8": 1,
            "9": 1
        },
        "tidyTrace": [
            {
                "children": [
                    {
                        "children": [
                            {
                                "children": [
                                    {
                                        "children": [],
                                        "depth": 2,
                                        "id": 2,
                                        "order": 2
                                    },
                                    {
                                        "children": [
                                            {
                                                "children": [],
                                                "depth": 3,
                                                "id": 4,
                                                "order": 4
                                            }
                                        ],
                                        "depth": 2,
                                        "id": 3,
                                        "order": 3
                                    },
                                    {
                                        "children": [],
                                        "depth": 2,
                                        "id": 5,
                                        "order": 5
                                    },
                                    {
                                        "children": [
                                            {
                                                "children": [],
                                                "depth": 3,
                                                "id": 7,
                                                "order": 7
                                            }
                                        ],
                                        "depth": 2,
                                        "id": 6,
                                        "order": 6
                                    },
                                    {
                                        "children": [],
                                        "depth": 2,
                                        "id": 8,
                                        "order": 8
                                    },
                                    {
                                        "children": [],
                                        "depth": 2,
                                        "id": 9,
                                        "order": 9
                                    },
                                    {
                                        "children": [
                                            {
                                                "children": [],
                                                "depth": 3,
                                                "id": 11,
                                                "order": 11
                                            }
                                        ],
                                        "depth": 2,
                                        "id": 10,
                                        "order": 10
                                    },
                                    {
                                        "children": [],
                                        "depth": 2,
                                        "id": 12,
                                        "order": 12
                                    }
                                ],
                                "depth": 1,
                                "id": 1,
                                "order": 1
                            }
                        ],
                        "depth": 0,
                        "id": 0,
                        "order": 0
                    }
                ],
                "depth": -1,
                "id": -1,
                "order": -1
            }
        ],
        "tidyTraceNodeCount": 13
    },
    "state_change": {
        "stateChanges": [
            {
                "address": "0x0916568854fc53b720186052d8013d62a0409b47",
                "erc": "",
                "slots": [
                    {
                        "current": "0x000000000000000000000000000000000000000000000002b41c4510f3168a95",
                        "key": "0x5e0f3d6a1cda8a4c8032e1e2248f4663924c5e53c9f24c31fc0dfb8431800a24",
                        "prev": "0x00000000000000000000000000000000000000000000000161d13cf3bf221730"
                    },
                    {
                        "current": "0x00000000000000000000000000000000000000000000000c8f74e7a1da92524e",
                        "key": "0x5e0f3d6a1cda8a4c8032e1e2248f4663924c5e53c9f24c31fc0dfb8431800a26",
                        "prev": "0x00000000000000000000000000000000000000000000000b3d29df84a69ddee9"
                    },
                    {
                        "current": "0x000000000000000000000000000000000000000000000046e63771d258b8ebf9",
                        "key": "0xe92f2d9cf177b03cfa570363eb50caffec6300a0f0de49b8b9624bfab430fb9f",
                        "prev": "0x000000000000000000000000000000000000000000000040f400b5aae548946a"
                    },
                    {
                        "current": "0x00000000000000000000000000000000000000000000414436d9259ca8fce7cd",
                        "key": "0x22774faf9377d17ee337aca46ae9f31cdc694bfbe3d854c18c7806167b97e1b6",
                        "prev": "0x0000000000000000000000000000000000000000000041325224c6c54069d809"
                    },
                    {
                        "current": "0x000000000000000000000000000000000000000000000000000000075c3515ac",
                        "key": "0x22774faf9377d17ee337aca46ae9f31cdc694bfbe3d854c18c7806167b97e1b9",
                        "prev": "0x000000000000000000000000000000000000000000000000000000075ba3452d"
                    },
                    {
                        "current": "0x0000000000000000000000000000000000000000000000000000000b9977f85f",
                        "key": "0x435daec636ce435a90bde0aeec309a303a359a854c5a51b7d6a5a941d6db6099",
                        "prev": "0x0000000000000000000000000000000000000000000000000000000b98e76ef6"
                    },
                    {
                        "current": "0x000000000000000000000000000000000000000000002d4066e33b11cecb9da2",
                        "key": "0xe7bf1de387f1223f0fc355696e043550abf1cecefa85fce0e824dbbcb1125e74",
                        "prev": "0x000000000000000000000000000000000000000000002d3a74ac7eea5b5b4613"
                    },
                    {
                        "current": "0x000000000000000000000000000000000000000000000035993bc8e4a6b0b584",
                        "key": "0xe92f2d9cf177b03cfa570363eb50caffec6300a0f0de49b8b9624bfab430fb9d",
                        "prev": "0x00000000000000000000000000000000000000000000002fa7050cbd33405df5"
                    },
                    {
                        "current": "0x000000000000000000000000000000000000000000000000018642c91f0f20d2",
                        "key": "0xde4bb0822bdfcc210d557df15c3d08752ad053559a8bffa953ed8378ff7144f4",
                        "prev": "0x00000000000000000000000000000000000000000000000001507ccb5bcb55a3"
                    },
                    {
                        "current": "0x000000000000000000000000000000000000000000000000000000000018487b",
                        "key": "0x22774faf9377d17ee337aca46ae9f31cdc694bfbe3d854c18c7806167b97e1ba",
                        "prev": "0x00000000000000000000000000000000000000000000000000000000001846c5"
                    },
                    {
                        "current": "0x000000000000000000000000000000000000000000000076499eca3d1311beec",
                        "key": "0xde4bb0822bdfcc210d557df15c3d08752ad053559a8bffa953ed8378ff7144f3",
                        "prev": "0x00000000000000000000000000000000000000000000006464ea6b65aa7eaf28"
                    },
                    {
                        "current": "0x0000000000000000000000000000000000000000000000000000000001250480",
                        "key": "0x435daec636ce435a90bde0aeec309a303a359a854c5a51b7d6a5a941d6db6098",
                        "prev": "0x000000000000000000000000000000000000000000000000000000000125044a"
                    },
                    {
                        "current": "0x0000000000000000000000000000000000000000000000000000000001250480",
                        "key": "0xe7bf1de387f1223f0fc355696e043550abf1cecefa85fce0e824dbbcb1125e76",
                        "prev": "0x000000000000000000000000000000000000000000000000000000000125046e"
                    },
                    {
                        "current": "0x00000000000000000000000000000000000000000000000001804f0dc6e0fb42",
                        "key": "0xde4bb0822bdfcc210d557df15c3d08752ad053559a8bffa953ed8378ff7144f2",
                        "prev": "0x000000000000000000000000000000000000000000000000014a8910039d3013"
                    },
                    {
                        "current": "0x000000000000000000000000000000000000000000000000d847b6cacbb6bd92",
                        "key": "0x22774faf9377d17ee337aca46ae9f31cdc694bfbe3d854c18c7806167b97e1b7",
                        "prev": "0x000000000000000000000000000000000000000000000000d811f0cd0872f263"
                    },
                    {
                        "current": "0x000000000000000000000000000000000000000000000074b80fa9bba29484c8",
                        "key": "0xde4bb0822bdfcc210d557df15c3d08752ad053559a8bffa953ed8378ff7144f1",
                        "prev": "0x000000000000000000000000000000000000000000000062d35b4ae43a017504"
                    },
                    {
                        "current": "0x000000000000000000000000000000000000000000002111a87950c7725e296f",
                        "key": "0x435daec636ce435a90bde0aeec309a303a359a854c5a51b7d6a5a941d6db6096",
                        "prev": "0x000000000000000000000000000000000000000000002110562e48aa3e69b60a"
                    },
                    {
                        "current": "0x0000000000000000000000000000000000000000000000000000000e9081e76c",
                        "key": "0xe7bf1de387f1223f0fc355696e043550abf1cecefa85fce0e824dbbcb1125e77",
                        "prev": "0x0000000000000000000000000000000000000000000000000000000e90518703"
                    },
                    {
                        "current": "0x0000000000000000000000000000000000000000000000000000000001250480",
                        "key": "0x22774faf9377d17ee337aca46ae9f31cdc694bfbe3d854c18c7806167b97e1b8",
                        "prev": "0x0000000000000000000000000000000000000000000000000000000001250446"
                    }
                ],
                "storageVariables": [
                    {
                        "name": "pools",
                        "type": "mapping(uint256 => struct MultiStakingManagerV2.Pool)",
                        "value": {
                            "pairs": [
                                {
                                    "key": "0",
                                    "value": {
                                        "fields": [
                                            {
                                                "name": "harvestedTokens",
                                                "type": "uint256",
                                                "value": {
                                                    "current": "156163828407039455799663",
                                                    "prev": "156139451820709864125962",
                                                    "typeTag": 1
                                                }
                                            },
                                            {
                                                "name": "lastRewardedBlock",
                                                "type": "uint256",
                                                "value": {
                                                    "current": "19203200",
                                                    "prev": "19203146",
                                                    "typeTag": 1
                                                }
                                            },
                                            {
                                                "name": "accTokenRewardsPerShare",
                                                "type": "uint256",
                                                "value": {
                                                    "current": "49819416671",
                                                    "prev": "49809944310",
                                                    "typeTag": 1
                                                }
                                            }
                                        ],
                                        "typeTag": 3
                                    }
                                },
                                {
                                    "key": "1",
                                    "value": {
                                        "fields": [
                                            {
                                                "name": "harvestedTokens",
                                                "type": "uint256",
                                                "value": {
                                                    "current": "213694497184210697821602",
                                                    "prev": "213584810119558602638867",
                                                    "typeTag": 1
                                                }
                                            },
                                            {
                                                "name": "lastRewardedBlock",
                                                "type": "uint256",
                                                "value": {
                                                    "current": "19203200",
                                                    "prev": "19203182",
                                                    "typeTag": 1
                                                }
                                            },
                                            {
                                                "name": "accTokenRewardsPerShare",
                                                "type": "uint256",
                                                "value": {
                                                    "current": "62553974636",
                                                    "prev": "62550804227",
                                                    "typeTag": 1
                                                }
                                            }
                                        ],
                                        "typeTag": 3
                                    }
                                },
                                {
                                    "key": "2",
                                    "value": {
                                        "fields": [
                                            {
                                                "name": "harvestedTokens",
                                                "type": "uint256",
                                                "value": {
                                                    "current": "308212152215041962993613",
                                                    "prev": "307882077664573179680777",
                                                    "typeTag": 1
                                                }
                                            },
                                            {
                                                "name": "harvestedEth",
                                                "type": "uint256",
                                                "value": {
                                                    "current": "15584626017656290706",
                                                    "prev": "15569490150197228131",
                                                    "typeTag": 1
                                                }
                                            },
                                            {
                                                "name": "lastRewardedBlock",
                                                "type": "uint256",
                                                "value": {
                                                    "current": "19203200",
                                                    "prev": "19203142",
                                                    "typeTag": 1
                                                }
                                            },
                                            {
                                                "name": "accTokenRewardsPerShare",
                                                "type": "uint256",
                                                "value": {
                                                    "current": "31611753900",
                                                    "prev": "31602197805",
                                                    "typeTag": 1
                                                }
                                            },
                                            {
                                                "name": "accEthRewardsPerShare",
                                                "type": "uint256",
                                                "value": {
                                                    "current": "1591419",
                                                    "prev": "1590981",
                                                    "typeTag": 1
                                                }
                                            }
                                        ],
                                        "typeTag": 3
                                    }
                                }
                            ],
                            "typeTag": 4
                        }
                    },
                    {
                        "name": "poolStakers",
                        "type": "mapping(uint256 => mapping(address => struct MultiStakingManagerV2.PoolStaker))",
                        "value": {
                            "pairs": [
                                {
                                    "key": "0",
                                    "value": {
                                        "pairs": [
                                            {
                                                "key": "0x194b1f8302268135bd73042199a6fdce71ba0a2c",
                                                "value": {
                                                    "fields": [
                                                        {
                                                            "name": "harvestedTokens",
                                                            "type": "uint256",
                                                            "value": {
                                                                "current": "49871812312694164117",
                                                                "prev": "25495225983102490416",
                                                                "typeTag": 1
                                                            }
                                                        },
                                                        {
                                                            "name": "rewardTokenDebt",
                                                            "type": "uint256",
                                                            "value": {
                                                                "current": "231698070611579523662",
                                                                "prev": "207321484281987849961",
                                                                "typeTag": 1
                                                            }
                                                        }
                                                    ],
                                                    "typeTag": 3
                                                }
                                            }
                                        ],
                                        "typeTag": 4
                                    }
                                },
                                {
                                    "key": "1",
                                    "value": {
                                        "pairs": [
                                            {
                                                "key": "0x194b1f8302268135bd73042199a6fdce71ba0a2c",
                                                "value": {
                                                    "fields": [
                                                        {
                                                            "name": "harvestedTokens",
                                                            "type": "uint256",
                                                            "value": {
                                                                "current": "988719075702409835908",
                                                                "prev": "879032011050314653173",
                                                                "typeTag": 1
                                                            }
                                                        },
                                                        {
                                                            "name": "rewardTokenDebt",
                                                            "type": "uint256",
                                                            "value": {
                                                                "current": "1307860938060356709369",
                                                                "prev": "1198173873408261526634",
                                                                "typeTag": 1
                                                            }
                                                        }
                                                    ],
                                                    "typeTag": 3
                                                }
                                            }
                                        ],
                                        "typeTag": 4
                                    }
                                },
                                {
                                    "key": "2",
                                    "value": {
                                        "pairs": [
                                            {
                                                "key": "0x194b1f8302268135bd73042199a6fdce71ba0a2c",
                                                "value": {
                                                    "fields": [
                                                        {
                                                            "name": "harvestedTokens",
                                                            "type": "uint256",
                                                            "value": {
                                                                "current": "2153085318601289008328",
                                                                "prev": "1823010768132505695492",
                                                                "typeTag": 1
                                                            }
                                                        },
                                                        {
                                                            "name": "harvestedEth",
                                                            "type": "uint256",
                                                            "value": {
                                                                "current": "108173311646694210",
                                                                "prev": "93037444187631635",
                                                                "typeTag": 1
                                                            }
                                                        },
                                                        {
                                                            "name": "rewardTokenDebt",
                                                            "type": "uint256",
                                                            "value": {
                                                                "current": "2182020700472477859564",
                                                                "prev": "1851946150003694546728",
                                                                "typeTag": 1
                                                            }
                                                        },
                                                        {
                                                            "name": "rewardEthDebt",
                                                            "type": "uint256",
                                                            "value": {
                                                                "current": "109848672494100690",
                                                                "prev": "94712805035038115",
                                                                "typeTag": 1
                                                            }
                                                        }
                                                    ],
                                                    "typeTag": 3
                                                }
                                            }
                                        ],
                                        "typeTag": 4
                                    }
                                }
                            ],
                            "typeTag": 4
                        }
                    }
                ]
            },
            {
                "address": "0x25b4f5d4c314bcd5d7962734936c957b947cb7cf",
                "erc": "ERC-20",
                "slots": [
                    {
                        "current": "0x0000000000000000000000000000000000000000001ee9fbc69ef8c57f435b8a",
                        "key": "0xc8812dcce911b1212ee4c7034d7519331b3e308dce21f325c3869160b43770fe",
                        "prev": "0x0000000000000000000000000000000000000000001eea14efd51be18f3b3642"
                    },
                    {
                        "current": "0x000000000000000000000000000000000000000000000145555181a1024f1ab8",
                        "key": "0x027a9a9985620ab916870fdb1f42f3e10b304161ca39be6977a7705c2fa9fc9b",
                        "prev": "0x00000000000000000000000000000000000000000000012c2c1b5e84f2574000"
                    }
                ],
                "storageVariables": [
                    {
                        "name": "_balances",
                        "type": "mapping(address => uint256)",
                        "value": {
                            "pairs": [
                                {
                                    "key": "0x0916568854fc53b720186052d8013d62a0409b47",
                                    "value": {
                                        "current": "37372730423860196630813578",
                                        "prev": "37373194562061647100982850",
                                        "typeTag": 1
                                    }
                                },
                                {
                                    "key": "0x194b1f8302268135bd73042199a6fdce71ba0a2c",
                                    "value": {
                                        "current": "6001339661450470169272",
                                        "prev": "5537201460000000000000",
                                        "typeTag": 1
                                    }
                                }
                            ],
                            "typeTag": 4
                        }
                    }
                ]
            }
        ]
    }
}