{
    "balance_change": {
        "balanceChanges": [
            {
                "account": "0x51c72848c68a965f66fa7a88855f9f7784502a7f",
                "assets": [
                    {
                        "address": "0xa0b86991c6218b36c1d19d4a2e9eb0ce3606eb48",
                        "amount": "10,145.198696",
                        "iconUrl": "https://assets.blocksec.com/icon/0347a86cc07dbd03fdc5db01a4e5ac7e1217f90e0b6e4bb0f75cbcca09160989.png",
                        "isERC1155": false,
                        "isERC721": false,
                        "sign": true,
                        "value": "10139.111580779999544"
                    },
                    {
                        "address": "0x2260fac5e5542a773aa44fbcfedf7c193bc2c599",
                        "amount": "0.17389055",
                        "iconUrl": "https://assets.blocksec.com/icon/878f2983cb21c5816eb5879d9b6f7a3fe2eb6fce7560c367a0315527852a8a84.png",
                        "isERC1155": false,
                        "isERC721": false,
                        "sign": false,
                        "value": "9996.2721573"
                    },
                    {
                        "address": "0xeeeeeeeeeeeeeeeeeeeeeeeeeeeeeeeeeeeeeeee",
                        "amount": "0.000935243388197507",
                        "iconUrl": "https://assets.blocksec.com/image/1663669189317-3.png",
                        "isERC1155": false,
                        "isERC721": false,
                        "sign": false,
                        "value": "2.901309794289908288"
                    }
                ]
            },
            {
                "account": "0x1f9090aae28b8a3dceadf281b0f12828e676c326",
                "assets": [
                    {
                        "address": "0xeeeeeeeeeeeeeeeeeeeeeeeeeeeeeeeeeeeeeeee",
                        "amount": "0.000935243388197507",
                        "iconUrl": "https://assets.blocksec.com/image/1663669189317-3.png",
                        "isERC1155": false,
                        "isERC721": false,
                        "sign": true,
                        "value": "2.901309794289908288"
                    }
                ]
            },
            {
                "account": "0x99ac8ca7087fa4a2a1fb6357269965a2014abc35",
                "assets": [
                    {
                        "address": "0xa0b86991c6218b36c1d19d4a2e9eb0ce3606eb48",
                        "amount": "10,145.198696",
                        "iconUrl": "https://assets.blocksec.com/icon/0347a86cc07dbd03fdc5db01a4e5ac7e1217f90e0b6e4bb0f75cbcca09160989.png",
                        "isERC1155": false,
                        "isERC721": false,
                        "sign": false,
                        "value": "10139.111580779999544"
                    },
                    {
                        "address": "0x2260fac5e5542a773aa44fbcfedf7c193bc2c599",
                        "amount": "0.17389055",
                        "iconUrl": "https://assets.blocksec.com/icon/878f2983cb21c5816eb5879d9b6f7a3fe2eb6fce7560c367a0315527852a8a84.png",
                        "isERC1155": false,
                        "isERC721": false,
                        "sign": true,
                        "value": "9996.2721573"
                    }
                ]
            }
        ]
    },
    "profile": {
        "basic_info": {
            "baseFee": "3.101741445",
            "blockNumber": 20292408,
            "callData": "0x771d503f0000000000000000000000000000000000000000000000000003529951ee9a8300000000000000000000000099ac8ca7087fa4a2a1fb6357269965a2014abc3500000000000000000000000000000000000000000000000000000000010955ff000000000000000000000000000000000000000000000000000000025cb2aea5000000000000000000000000000000000000000000000000000000000000000100000000000000000000000000000000000000000000000000000000000000c000000000000000000000000000000000000000000000000000000000000000142260fac5e5542a773aa44fbcfedf7c193bc2c599000000000000000000000000",
            "debugEnable": true,
            "errorInfo": "",
            "eventCount": 3,
            "feeRecipient": "0x1f9090aae28b8a3dceadf281b0f12828e676c326",
            "formatValue": "0",
            "gasLimit": 203166,
            "gasPrice": "3.101741445",
            "gasUsed": 162605,
            "intTxnCount": 8,
            "internalRevert": false,
            "internalRevertMessage": "",
            "isContractCreation": false,
            "isFlashloan": false,
            "maxFee": "3.102051619",
            "nonce": 7140,
            "overwritedBlockNumber": -1,
            "priorityFee": "0",
            "receiver": "0x51c72848c68a965f66fa7a88855f9f7784502a7f",
            "revertMessage": "",
            "sender": "0xf8108bc1a9de692161b232e16d2b4e1924757ffd",
            "simulationEnable": true,
            "sourceTxnHash": "0xaaa652a0e5a6568823fe12721687db3d079d93fc227a1f30ad163e1183afd282",
            "status": true,
            "timestamp": "2024-07-12T19:06:35Z",
            "transactionFee": "0.000504358667664225",
            "txnHash": "0xaaa652a0e5a6568823fe12721687db3d079d93fc227a1f30ad163e1183afd282",
            "txnIndex": 7,
            "type": 2,
            "value": "0"
        },
        "fund_flow": [
            {
                "amount": "10,145.198696",
                "from": "0x99ac8ca7087fa4a2a1fb6357269965a2014abc35",
                "id": 1,
                "isERC1155": false,
                "isERC721": false,
                "isReverted": false,
                "order": 1,
                "to": "0x51c72848c68a965f66fa7a88855f9f7784502a7f",
                "token": "0xa0b86991c6218b36c1d19d4a2e9eb0ce3606eb48"
            },
            {
                "amount": "0.17389055",
                "from": "0x51c72848c68a965f66fa7a88855f9f7784502a7f",
                "id": 2,
                "isERC1155": false,
                "isERC721": false,
                "isReverted": false,
                "order": 2,
                "to": "0x99ac8ca7087fa4a2a1fb6357269965a2014abc35",
                "token": "0x2260fac5e5542a773aa44fbcfedf7c193bc2c599"
            },
            {
                "amount": "0.000935243388197507",
                "from": "0x51c72848c68a965f66fa7a88855f9f7784502a7f",
                "id": 3,
                "isERC1155": false,
                "isERC721": false,
                "isReverted": false,
                "order": 3,
                "to": "0x1f9090aae28b8a3dceadf281b0f12828e676c326",
                "token": "0xeeeeeeeeeeeeeeeeeeeeeeeeeeeeeeeeeeeeeeee"
            }
        ],
        "token_infos": [
            {
                "address": "0xeeeeeeeeeeeeeeeeeeeeeeeeeeeeeeeeeeeeeeee",
                "decimals": 18
            },
            {
                "address": "0x2260fac5e5542a773aa44fbcfedf7c193bc2c599",
                "decimals": 8
            },
            {
                "address": "0xa0b86991c6218b36c1d19d4a2e9eb0ce3606eb48",
                "decimals": 6
            },
            {
                "address": "0xc02aaa39b223fe8d0a0e5c4f27ead9083c756cc2",
                "decimals": 18
            }
        ]
    },
    "address_label": {
        "labels": [
            {
                "address": "0x0000000000000000000000000000000000000004",
                "label": "Precompiled"
            },
            {
                "address": "0x0000000000000000000000000000000000000001",
                "label": "Precompiled"
            },
            {
                "address": "0x0000000000000000000000000000000000000003",
                "label": "Precompiled"
            },
            {
                "address": "0x51c72848c68a965f66fa7a88855f9f7784502a7f",
                "label": "MEV Bot: 0x51C\u2026a7F"
            },
            {
                "address": "0x99ac8ca7087fa4a2a1fb6357269965a2014abc35",
                "label": "Uniswap V3: WBTC-USDC"
            },
            {
                "address": "0x2260fac5e5542a773aa44fbcfedf7c193bc2c599",
                "label": "Wrapped BTC: WBTC Token"
            },
            {
                "address": "0xa0b86991c6218b36c1d19d4a2e9eb0ce3606eb48",
                "label": "Circle: USDC Token"
            },
            {
                "address": "0x43506849d7c04f9138d1a2050bbf3a0c054402dd",
                "label": "FiatTokenV2_2"
            },
            {
                "address": "0x0000000000000000000000000000000000000002",
                "label": "Precompiled"
            },
            {
                "address": "0xeeeeeeeeeeeeeeeeeeeeeeeeeeeeeeeeeeeeeeee",
                "label": "Ether"
            },
            {
                "address": "0x1f9090aae28b8a3dceadf281b0f12828e676c326",
                "label": "rsync-builder"
            }
        ]
    },
    "trace": {
        "accountLabels": null,
        "dataMap": {
            "-1": {
                "invocation": {
                    "address": "0xf8108bc1a9de692161b232e16d2b4e1924757ffd",
                    "callData": "",
                    "decodedMethod": null,
                    "errorInfo": "",
                    "fromAddress": "",
                    "gasUsed": 0,
                    "id": -1,
                    "methodDecoded": false,
                    "operation": "",
                    "output": "",
                    "revert": false,
                    "revertMessage": "",
                    "selector": "",
                    "status": false,
                    "value": ""
                },
                "nodeType": 0
            },
            "0": {
                "invocation": {
                    "address": "0x51c72848c68a965f66fa7a88855f9f7784502a7f",
                    "callData": "0x0000000000000000000000000000000000000000000000000003529951ee9a8300000000000000000000000099ac8ca7087fa4a2a1fb6357269965a2014abc3500000000000000000000000000000000000000000000000000000000010955ff000000000000000000000000000000000000000000000000000000025cb2aea5000000000000000000000000000000000000000000000000000000000000000100000000000000000000000000000000000000000000000000000000000000c000000000000000000000000000000000000000000000000000000000000000142260fac5e5542a773aa44fbcfedf7c193bc2c599000000000000000000000000",
                    "decodedMethod": null,
                    "errorInfo": "",
                    "fromAddress": "0xf8108bc1a9de692161b232e16d2b4e1924757ffd",
                    "gasUsed": 162605,
                    "id": 0,
                    "methodDecoded": false,
                    "operation": "CALL",
                    "output": "",
                    "revert": false,
                    "revertMessage": "",
                    "selector": "0x771d503f",
                    "status": true,
                    "value": "0"
                },
                "nodeType": 0
            },
            "1": {
                "invocation": {
                    "address": "0x99ac8ca7087fa4a2a1fb6357269965a2014abc35",
                    "callData": "0x00000000000000000000000051c72848c68a965f66fa7a88855f9f7784502a7f000000000000000000000000000000000000000000000000000000000000000100000000000000000000000000000000000000000000000000000000010955ff00000000000000000000000000000000000000000000000000000001000276a400000000000000000000000000000000000000000000000000000000000000a000000000000000000000000000000000000000000000000000000000000000142260fac5e5542a773aa44fbcfedf7c193bc2c599000000000000000000000000",
                    "decodedMethod": {
                        "callParams": [
                            {
                                "name": "recipient",
                                "type": "address",
                                "value": "0x51c72848c68a965f66fa7a88855f9f7784502a7f"
                            },
                            {
                                "name": "zeroForOne",
                                "type": "bool",
                                "value": true
                            },
                            {
                                "name": "amountSpecified",
                                "type": "int256",
                                "value": "17,389,055"
                            },
                            {
                                "name": "sqrtPriceLimitX96",
                                "type": "uint160",
                                "value": "4,295,128,740"
                            },
                            {
                                "name": "data",
                                "type": "bytes",
                                "value": "0x2260fac5e5542a773aa44fbcfedf7c193bc2c599"
                            }
                        ],
                        "constructorArguments": "",
                        "name": "swap",
                        "returnParams": [
                            {
                                "name": "amount0",
                                "type": "int256",
                                "value": "17,389,055"
                            },
                            {
                                "name": "amount1",
                                "type": "int256",
                                "value": "-10,145,198,696"
                            }
                        ],
                        "signature": "swap(address,bool,int256,uint160,bytes)"
                    },
                    "errorInfo": "",
                    "fromAddress": "0x51c72848c68a965f66fa7a88855f9f7784502a7f",
                    "gasUsed": 119494,
                    "id": 1,
                    "methodDecoded": true,
                    "operation": "CALL",
                    "output": "0x00000000000000000000000000000000000000000000000000000000010955fffffffffffffffffffffffffffffffffffffffffffffffffffffffffda34c8d98",
                    "revert": false,
                    "revertMessage": "",
                    "selector": "0x128acb08",
                    "status": true,
                    "value": "0"
                },
                "nodeType": 0
            },
            "10": {
                "event": {
                    "contract": "0x99ac8ca7087fa4a2a1fb6357269965a2014abc35",
                    "decodedLog": {
                        "name": "Swap",
                        "params": [
                            {
                                "name": "sender",
                                "type": "address",
                                "value": "0x51c72848c68a965f66fa7a88855f9f7784502a7f"
                            },
                            {
                                "name": "recipient",
                                "type": "address",
                                "value": "0x51c72848c68a965f66fa7a88855f9f7784502a7f"
                            },
                            {
                                "name": "amount0",
                                "type": "int256",
                                "value": "17,389,055"
                            },
                            {
                                "name": "amount1",
                                "type": "int256",
                                "value": "-10,145,198,696"
                            },
                            {
                                "name": "sqrtPriceX96",
                                "type": "uint160",
                                "value": "1,916,095,792,514,360,635,222,730,395,865"
                            },
                            {
                                "name": "liquidity",
                                "type": "uint128",
                                "value": "850,365,515,415"
                            },
                            {
                                "name": "tick",
                                "type": "int24",
                                "value": "63,717"
                            }
                        ],
                        "signature": "Swap(address,address,int256,int256,uint160,uint128,int24)"
                    },
                    "id": 10,
                    "logData": "0x00000000000000000000000000000000000000000000000000000000010955fffffffffffffffffffffffffffffffffffffffffffffffffffffffffda34c8d9800000000000000000000000000000000000000182f3d4a96b85f80b8fd1ed0d9000000000000000000000000000000000000000000000000000000c5fdbc0697000000000000000000000000000000000000000000000000000000000000f8e5",
                    "logDecoded": true,
                    "operation": "EVENT",
                    "revert": false,
                    "status": true,
                    "topics": [
                        "0xc42079f94a6350d7e6235f29174924f928cc2ac818eb64fed8004e115fbcca67",
                        "0x00000000000000000000000051c72848c68a965f66fa7a88855f9f7784502a7f",
                        "0x00000000000000000000000051c72848c68a965f66fa7a88855f9f7784502a7f"
                    ]
                },
                "nodeType": 1
            },
            "11": {
                "invocation": {
                    "address": "0x1f9090aae28b8a3dceadf281b0f12828e676c326",
                    "callData": "0x",
                    "decodedMethod": null,
                    "errorInfo": "",
                    "fromAddress": "0x51c72848c68a965f66fa7a88855f9f7784502a7f",
                    "gasUsed": 0,
                    "id": 11,
                    "methodDecoded": false,
                    "operation": "CALL",
                    "output": "",
                    "revert": false,
                    "revertMessage": "",
                    "selector": "fallback",
                    "status": true,
                    "value": "0.000935243388197507"
                },
                "nodeType": 0
            },
            "2": {
                "invocation": {
                    "address": "0xa0b86991c6218b36c1d19d4a2e9eb0ce3606eb48",
                    "callData": "0x00000000000000000000000051c72848c68a965f66fa7a88855f9f7784502a7f000000000000000000000000000000000000000000000000000000025cb37268",
                    "decodedMethod": {
                        "callParams": [
                            {
                                "name": "to",
                                "type": "address",
                                "value": "0x51c72848c68a965f66fa7a88855f9f7784502a7f"
                            },
                            {
                                "decimalAvailable": true,
                                "name": "value",
                                "type": "uint256",
                                "value": "10,145,198,696"
                            }
                        ],
                        "constructorArguments": "",
                        "name": "transfer",
                        "returnParams": [
                            {
                                "name": "",
                                "type": "bool",
                                "value": true
                            }
                        ],
                        "signature": "transfer(address,uint256)"
                    },
                    "errorInfo": "",
                    "fromAddress": "0x99ac8ca7087fa4a2a1fb6357269965a2014abc35",
                    "gasUsed": 23552,
                    "id": 2,
                    "methodDecoded": true,
                    "operation": "CALL",
                    "output": "0x0000000000000000000000000000000000000000000000000000000000000001",
                    "revert": false,
                    "revertMessage": "",
                    "selector": "0xa9059cbb",
                    "status": true,
                    "value": "0"
                },
                "nodeType": 0
            },
            "3": {
                "invocation": {
                    "address": "0x43506849d7c04f9138d1a2050bbf3a0c054402dd",
                    "callData": "0x00000000000000000000000051c72848c68a965f66fa7a88855f9f7784502a7f000000000000000000000000000000000000000000000000000000025cb37268",
                    "decodedMethod": {
                        "callParams": [
                            {
                                "name": "to",
                                "type": "address",
                                "value": "0x51c72848c68a965f66fa7a88855f9f7784502a7f"
                            },
                            {
                                "decimalAvailable": true,
                                "name": "value",
                                "type": "uint256",
                                "value": "10,145,198,696"
                            }
                        ],
                        "constructorArguments": "",
                        "name": "transfer",
                        "returnParams": [
                            {
                                "name": "",
                                "type": "bool",
                                "value": true
                            }
                        ],
                        "signature": "transfer(address,uint256)"
                    },
                    "errorInfo": "",
                    "fromAddress": "0xa0b86991c6218b36c1d19d4a2e9eb0ce3606eb48",
                    "gasUsed": 16263,
                    "id": 3,
                    "methodDecoded": true,
                    "operation": "DELEGATECALL",
                    "output": "0x0000000000000000000000000000000000000000000000000000000000000001",
                    "revert": false,
                    "revertMessage": "",
                    "selector": "0xa9059cbb",
                    "status": true,
                    "value": "0"
                },
                "nodeType": 0
            },
            "4": {
                "event": {
                    "contract": "0xa0b86991c6218b36c1d19d4a2e9eb0ce3606eb48",
                    "decodedLog": {
                        "name": "Transfer",
                        "params": [
                            {
                                "name": "from",
                                "type": "address",
                                "value": "0x99ac8ca7087fa4a2a1fb6357269965a2014abc35"
                            },
                            {
                                "name": "to",
                                "type": "address",
                                "value": "0x51c72848c68a965f66fa7a88855f9f7784502a7f"
                            },
                            {
                                "decimalAvailable": true,
                                "name": "value",
                                "type": "uint256",
                                "value": "10,145,198,696"
                            }
                        ],
                        "signature": "Transfer(address,address,uint256)"
                    },
                    "id": 4,
                    "logData": "0x000000000000000000000000000000000000000000000000000000025cb37268",
                    "logDecoded": true,
                    "operation": "EVENT",
                    "revert": false,
                    "status": true,
                    "topics": [
                        "0xddf252ad1be2c89b69c2b068fc378daa952ba7f163c4a11628f55a4df523b3ef",
                        "0x00000000000000000000000099ac8ca7087fa4a2a1fb6357269965a2014abc35",
                        "0x00000000000000000000000051c72848c68a965f66fa7a88855f9f7784502a7f"
                    ]
                },
                "nodeType": 1
            },
            "5": {
                "invocation": {
                    "address": "0x2260fac5e5542a773aa44fbcfedf7c193bc2c599",
                    "callData": "0x00000000000000000000000099ac8ca7087fa4a2a1fb6357269965a2014abc35",
                    "decodedMethod": {
                        "callParams": [
                            {
                                "name": "_owner",
                                "type": "address",
                                "value": "0x99ac8ca7087fa4a2a1fb6357269965a2014abc35"
                            }
                        ],
                        "constructorArguments": "",
                        "name": "balanceOf",
                        "returnParams": [
                            {
                                "decimalAvailable": true,
                                "name": "",
                                "type": "uint256",
                                "value": "7,224,008,420"
                            }
                        ],
                        "signature": "balanceOf(address)"
                    },
                    "errorInfo": "",
                    "fromAddress": "0x99ac8ca7087fa4a2a1fb6357269965a2014abc35",
                    "gasUsed": 2795,
                    "id": 5,
                    "methodDecoded": true,
                    "operation": "STATICCALL",
                    "output": "0x00000000000000000000000000000000000000000000000000000001ae959ee4",
                    "revert": false,
                    "revertMessage": "",
                    "selector": "0x70a08231",
                    "status": true,
                    "value": "0"
                },
                "nodeType": 0
            },
            "6": {
                "invocation": {
                    "address": "0x51c72848c68a965f66fa7a88855f9f7784502a7f",
                    "callData": "0x00000000000000000000000000000000000000000000000000000000010955fffffffffffffffffffffffffffffffffffffffffffffffffffffffffda34c8d98000000000000000000000000000000000000000000000000000000000000006000000000000000000000000000000000000000000000000000000000000000142260fac5e5542a773aa44fbcfedf7c193bc2c599000000000000000000000000",
                    "decodedMethod": {
                        "callParams": [
                            {
                                "name": "amount0Delta",
                                "type": "int256",
                                "value": "17,389,055"
                            },
                            {
                                "name": "amount1Delta",
                                "type": "int256",
                                "value": "-10,145,198,696"
                            },
                            {
                                "name": "data",
                                "type": "bytes",
                                "value": "0x2260fac5e5542a773aa44fbcfedf7c193bc2c599"
                            }
                        ],
                        "constructorArguments": "",
                        "name": "uniswapV3SwapCallback",
                        "returnParams": [],
                        "signature": "uniswapV3SwapCallback(int256,int256,bytes)"
                    },
                    "errorInfo": "",
                    "fromAddress": "0x99ac8ca7087fa4a2a1fb6357269965a2014abc35",
                    "gasUsed": 16464,
                    "id": 6,
                    "methodDecoded": true,
                    "operation": "CALL",
                    "output": "",
                    "revert": false,
                    "revertMessage": "",
                    "selector": "0xfa461e33",
                    "status": true,
                    "value": "0"
                },
                "nodeType": 0
            },
            "7": {
                "invocation": {
                    "address": "0x2260fac5e5542a773aa44fbcfedf7c193bc2c599",
                    "callData": "0x00000000000000000000000099ac8ca7087fa4a2a1fb6357269965a2014abc3500000000000000000000000000000000000000000000000000000000010955ff",
                    "decodedMethod": {
                        "callParams": [
                            {
                                "name": "_to",
                                "type": "address",
                                "value": "0x99ac8ca7087fa4a2a1fb6357269965a2014abc35"
                            },
                            {
                                "decimalAvailable": true,
                                "name": "_value",
                                "type": "uint256",
                                "value": "17,389,055"
                            }
                        ],
                        "constructorArguments": "",
                        "name": "transfer",
                        "returnParams": [
                            {
                                "name": "",
                                "type": "bool",
                                "value": true
                            }
                        ],
                        "signature": "transfer(address,uint256)"
                    },
                    "errorInfo": "",
                    "fromAddress": "0x51c72848c68a965f66fa7a88855f9f7784502a7f",
                    "gasUsed": 13703,
                    "id": 7,
                    "methodDecoded": true,
                    "operation": "CALL",
                    "output": "0x0000000000000000000000000000000000000000000000000000000000000001",
                    "revert": false,
                    "revertMessage": "",
                    "selector": "0xa9059cbb",
                    "status": true,
                    "value": "0"
                },
                "nodeType": 0
            },
            "8": {
                "event": {
                    "contract": "0x2260fac5e5542a773aa44fbcfedf7c193bc2c599",
                    "decodedLog": {
                        "name": "Transfer",
                        "params": [
                            {
                                "name": "from",
                                "type": "address",
                                "value": "0x51c72848c68a965f66fa7a88855f9f7784502a7f"
                            },
                            {
                                "name": "to",
                                "type": "address",
                                "value": "0x99ac8ca7087fa4a2a1fb6357269965a2014abc35"
                            },
                            {
                                "decimalAvailable": true,
                                "name": "value",
                                "type": "uint256",
                                "value": "17,389,055"
                            }
                        ],
                        "signature": "Transfer(address,address,uint256)"
                    },
                    "id": 8,
                    "logData": "0x00000000000000000000000000000000000000000000000000000000010955ff",
                    "logDecoded": true,
                    "operation": "EVENT",
                    "revert": false,
                    "status": true,
                    "topics": [
                        "0xddf252ad1be2c89b69c2b068fc378daa952ba7f163c4a11628f55a4df523b3ef",
                        "0x00000000000000000000000051c72848c68a965f66fa7a88855f9f7784502a7f",
                        "0x00000000000000000000000099ac8ca7087fa4a2a1fb6357269965a2014abc35"
                    ]
                },
                "nodeType": 1
            },
            "9": {
                "invocation": {
                    "address": "0x2260fac5e5542a773aa44fbcfedf7c193bc2c599",
                    "callData": "0x00000000000000000000000099ac8ca7087fa4a2a1fb6357269965a2014abc35",
                    "decodedMethod": {
                        "callParams": [
                            {
                                "name": "_owner",
                                "type": "address",
                                "value": "0x99ac8ca7087fa4a2a1fb6357269965a2014abc35"
                            }
                        ],
                        "constructorArguments": "",
                        "name": "balanceOf",
                        "returnParams": [
                            {
                                "decimalAvailable": true,
                                "name": "",
                                "type": "uint256",
                                "value": "7,241,397,475"
                            }
                        ],
                        "signature": "balanceOf(address)"
                    },
                    "errorInfo": "",
                    "fromAddress": "0x99ac8ca7087fa4a2a1fb6357269965a2014abc35",
                    "gasUsed": 795,
                    "id": 9,
                    "methodDecoded": true,
                    "operation": "STATICCALL",
                    "output": "0x00000000000000000000000000000000000000000000000000000001af9ef4e3",
                    "revert": false,
                    "revertMessage": "",
                    "selector": "0x70a08231",
                    "status": true,
                    "value": "0"
                },
                "nodeType": 0
            }
        },
        "gasFlame": [
            {
                "children": [
                    {
                        "children": [
                            {
                                "children": [],
                                "depth": 0,
                                "name": "Initial Gas",
                                "value": 22796
                            },
                            {
                                "children": [
                                    {
                                        "children": [
                                            {
                                                "children": [
                                                    {
                                                        "children": [],
                                                        "depth": 3,
                                                        "name": "transfer",
                                                        "value": 16263
                                                    }
                                                ],
                                                "depth": 2,
                                                "name": "transfer",
                                                "value": 23552
                                            },
                                            {
                                                "children": [],
                                                "depth": 2,
                                                "name": "balanceOf",
                                                "value": 2795
                                            },
                                            {
                                                "children": [
                                                    {
                                                        "children": [],
                                                        "depth": 3,
                                                        "name": "transfer",
                                                        "value": 13703
                                                    }
                                                ],
                                                "depth": 2,
                                                "name": "uniswapV3SwapCallback",
                                                "value": 16464
                                            },
                                            {
                                                "children": [],
                                                "depth": 2,
                                                "name": "balanceOf",
                                                "value": 795
                                            }
                                        ],
                                        "depth": 1,
                                        "name": "swap",
                                        "value": 119494
                                    },
                                    {
                                        "children": [],
                                        "depth": 1,
                                        "name": "fallback",
                                        "value": 0
                                    }
                                ],
                                "depth": 0,
                                "name": "Executed Gas",
                                "value": 139809
                            }
                        ],
                        "depth": -1,
                        "name": "Actual Gas Used",
                        "value": 162605
                    },
                    {
                        "children": [],
                        "depth": -1,
                        "name": "Refunded Gas",
                        "value": 0
                    }
                ],
                "depth": -2,
                "name": "Total Gas",
                "value": 162605
            }
        ],
        "isConfirmed": true,
        "mainTrace": [
            {
                "children": [
                    {
                        "children": [
                            {
                                "children": [
                                    {
                                        "children": [
                                            {
                                                "children": [
                                                    {
                                                        "children": [],
                                                        "depth": 4,
                                                        "id": 4,
                                                        "order": 4
                                                    }
                                                ],
                                                "depth": 3,
                                                "id": 3,
                                                "order": 3
                                            }
                                        ],
                                        "depth": 2,
                                        "id": 2,
                                        "order": 2
                                    },
                                    {
                                        "children": [],
                                        "depth": 2,
                                        "id": 5,
                                        "order": 5
                                    },
                                    {
                                        "children": [
                                            {
                                                "children": [
                                                    {
                                                        "children": [],
                                                        "depth": 4,
                                                        "id": 8,
                                                        "order": 8
                                                    }
                                                ],
                                                "depth": 3,
                                                "id": 7,
                                                "order": 7
                                            }
                                        ],
                                        "depth": 2,
                                        "id": 6,
                                        "order": 6
                                    },
                                    {
                                        "children": [],
                                        "depth": 2,
                                        "id": 9,
                                        "order": 9
                                    },
                                    {
                                        "children": [],
                                        "depth": 2,
                                        "id": 10,
                                        "order": 10
                                    }
                                ],
                                "depth": 1,
                                "id": 1,
                                "order": 1
                            },
                            {
                                "children": [],
                                "depth": 1,
                                "id": 11,
                                "order": 11
                            }
                        ],
                        "depth": 0,
                        "id": 0,
                        "order": 0
                    }
                ],
                "depth": -1,
                "id": -1,
                "order": -1
            }
        ],
        "mainTraceNodeCount": 12,
        "parentIdMap": {
            "0": -1,
            "1": 0,
            "10": 1,
            "11": 0,
            "2": 1,
            "3": 2,
            "4": 3,
            "5": 1,
            "6": 1,
            "7": 6,
            "8": 7,
            "9": 1
        },
        "tidyTrace": [
            {
                "children": [
                    {
                        "children": [
                            {
                                "children": [
                                    {
                                        "children": [
                                            {
                                                "children": [
                                                    {
                                                        "children": [],
                                                        "depth": 4,
                                                        "id": 4,
                                                        "order": 4
                                                    }
                                                ],
                                                "depth": 3,
                                                "id": 3,
                                                "order": 3
                                            }
                                        ],
                                        "depth": 2,
                                        "id": 2,
                                        "order": 2
                                    },
                                    {
                                        "children": [
                                            {
                                                "children": [
                                                    {
                                                        "children": [],
                                                        "depth": 4,
                                                        "id": 8,
                                                        "order": 8
                                                    }
                                                ],
                                                "depth": 3,
                                                "id": 7,
                                                "order": 7
                                            }
                                        ],
                                        "depth": 2,
                                        "id": 6,
                                        "order": 6
                                    },
                                    {
                                        "children": [],
                                        "depth": 2,
                                        "id": 10,
                                        "order": 10
                                    }
                                ],
                                "depth": 1,
                                "id": 1,
                                "order": 1
                            },
                            {
                                "children": [],
                                "depth": 1,
                                "id": 11,
                                "order": 11
                            }
                        ],
                        "depth": 0,
                        "id": 0,
                        "order": 0
                    }
                ],
                "depth": -1,
                "id": -1,
                "order": -1
            }
        ],
        "tidyTraceNodeCount": 10
    },
    "state_change": {
        "stateChanges": [
            {
                "address": "0x2260fac5e5542a773aa44fbcfedf7c193bc2c599",
                "erc": "ERC-20",
                "slots": [
                    {
                        "current": "0x00000000000000000000000000000000000000000000000000000001adddd911",
                        "key": "0x356ea57d585b4c2292ee2a39c9da213499f25d18b4fba5671c7bc01208e40e2e",
                        "prev": "0x00000000000000000000000000000000000000000000000000000001aee72f10"
                    },
                    {
                        "current": "0x00000000000000000000000000000000000000000000000000000001af9ef4e3",
                        "key": "0x28a7973864c343a5aa09aea3ed16f3c54d9aadae64c4013161dc1f558eeeb425",
                        "prev": "0x00000000000000000000000000000000000000000000000000000001ae959ee4"
                    }
                ],
                "storageVariables": [
                    {
                        "name": "balances",
                        "type": "mapping(address => uint256)",
                        "value": {
                            "pairs": [
                                {
                                    "key": "0x51c72848c68a965f66fa7a88855f9f7784502a7f",
                                    "value": {
                                        "current": "7211964689",
                                        "prev": "7229353744",
                                        "typeTag": 1
                                    }
                                },
                                {
                                    "key": "0x99ac8ca7087fa4a2a1fb6357269965a2014abc35",
                                    "value": {
                                        "current": "7241397475",
                                        "prev": "7224008420",
                                        "typeTag": 1
                                    }
                                }
                            ],
                            "typeTag": 4
                        }
                    }
                ]
            },
            {
                "address": "0x99ac8ca7087fa4a2a1fb6357269965a2014abc35",
                "erc": "",
                "slots": [
                    {
                        "current": "0x00000000000000000000000000000000051071aa050787abfc9fbb0e6c9aae2d",
                        "key": "0x586736c6e0bab32650227a65850fe5ef65384aad87c9ad8613a2fa286ec801a9",
                        "prev": "0x00000000000000000000000000000002e40b4f54b44c85460206d47cc134315d"
                    },
                    {
                        "current": "0x010015f51c00000000000011d380faf961fd55d3045c00b80700001592523474",
                        "key": "0x586736c6e0bab32650227a65850fe5ef65384aad87c9ad8613a2fa286ec801aa",
                        "prev": "0x01667b899f000000000002cf576ae15b58e88640b0d6440a02000542f41d5fdf"
                    },
                    {
                        "current": "0x01000000000002e12aebdc54bae5dc13b53244c209000558866f945366917ebb",
                        "key": "0x000000000000000000000000000000000000000000000000000000000000011c",
                        "prev": "0x01000000000002dc73b835967e280dd161db96ee61000553bbaeb3a3668c8e8f"
                    },
                    {
                        "current": "0x000000000000000000000000000000000000000000000000000000c5fdbc0697",
                        "key": "0x0000000000000000000000000000000000000000000000000000000000000004",
                        "prev": "0x000000000000000000000000000000000000000000000000000000c60072d045"
                    },
                    {
                        "current": "0x00000000000000000000000000000000022dd8059622d5054c114802a2863471",
                        "key": "0x0000000000000000000000000000000000000000000000000000000000000001",
                        "prev": "0x00000000000000000000000000000000022dd6fe1c4355d52bc46f5bfaae5d36"
                    },
                    {
                        "current": "0x00010002580258011400f8e500000000000000182f3d4a96b85f80b8fd1ed0d9",
                        "key": "0x0000000000000000000000000000000000000000000000000000000000000000",
                        "prev": "0x00010002580258011300f8ef0000000000000018324b218038adab7eb29fd415"
                    },
                    {
                        "current": "0x0000000000000000000000000000000000028b07e4358ce7aa390df85e7dbfd1",
                        "key": "0x586736c6e0bab32650227a65850fe5ef65384aad87c9ad8613a2fa286ec801a8",
                        "prev": "0x00000000000000000000000000000000022b4cb9852fee1df85f6b52c2079b05"
                    }
                ],
                "storageVariables": [
                    {
                        "name": "feeGrowthGlobal0X128",
                        "type": "uint256",
                        "value": {
                            "current": "2896490793283961234069217730649011313",
                            "prev": "2896469918559342708077101706195655990",
                            "typeTag": 1
                        }
                    },
                    {
                        "name": "slot0",
                        "type": "struct UniswapV3Pool_VerifiedByNG.Slot0",
                        "value": {
                            "fields": [
                                {
                                    "name": "sqrtPriceX96",
                                    "type": "uint160",
                                    "value": {
                                        "current": "1916095792514360635222730395865",
                                        "prev": "1917040978473243738000257438741",
                                        "typeTag": 1
                                    }
                                },
                                {
                                    "name": "tick",
                                    "type": "int24",
                                    "value": {
                                        "current": "63717",
                                        "prev": "63727",
                                        "typeTag": 1
                                    }
                                },
                                {
                                    "name": "observationIndex",
                                    "type": "uint16",
                                    "value": {
                                        "current": "276",
                                        "prev": "275",
                                        "typeTag": 1
                                    }
                                },
                                {
                                    "name": "observationCardinality",
                                    "type": "uint16",
                                    "value": {
                                        "current": "600",
                                        "prev": "600",
                                        "typeTag": 1
                                    }
                                },
                                {
                                    "name": "observationCardinalityNext",
                                    "type": "uint16",
                                    "value": {
                                        "current": "600",
                                        "prev": "600",
                                        "typeTag": 1
                                    }
                                },
                                {
                                    "name": "feeProtocol",
                                    "type": "uint8",
                                    "value": {
                                        "current": "0",
                                        "prev": "0",
                                        "typeTag": 1
                                    }
                                },
                                {
                                    "name": "unlocked",
                                    "type": "bool",
                                    "value": {
                                        "current": "true",
                                        "prev": "true",
                                        "typeTag": 1
                                    }
                                }
                            ],
                            "typeTag": 3
                        }
                    },
                    {
                        "name": "ticks",
                        "type": "mapping(int24 => struct Tick.Info)",
                        "value": {
                            "pairs": [
                                {
                                    "key": "63720",
                                    "value": {
                                        "fields": [
                                            {
                                                "name": "feeGrowthOutside0X128",
                                                "type": "uint256",
                                                "value": {
                                                    "current": "13204473876435549773937028649304017",
                                                    "prev": "2883280918046222295525524531571038981",
                                                    "typeTag": 1
                                                }
                                            },
                                            {
                                                "name": "feeGrowthOutside1X128",
                                                "type": "uint256",
                                                "value": {
                                                    "current": "6731522111290504892186745828300992045",
                                                    "prev": "983687441167605778229192078438058701149",
                                                    "typeTag": 1
                                                }
                                            },
                                            {
                                                "name": "tickCumulativeOutside",
                                                "type": "int56",
                                                "value": {
                                                    "current": "92649174132",
                                                    "prev": "5785121546207",
                                                    "typeTag": 1
                                                }
                                            },
                                            {
                                                "name": "secondsPerLiquidityOutsideX128",
                                                "type": "uint160",
                                                "value": {
                                                    "current": "361558023042977051403803271673863",
                                                    "prev": "14589978433015017926627777220708866",
                                                    "typeTag": 1
                                                }
                                            },
                                            {
                                                "name": "secondsOutside",
                                                "type": "uint32",
                                                "value": {
                                                    "current": "1439004",
                                                    "prev": "1719372191",
                                                    "typeTag": 1
                                                }
                                            },
                                            {
                                                "name": "initialized",
                                                "type": "bool",
                                                "value": {
                                                    "current": "true",
                                                    "prev": "true",
                                                    "typeTag": 1
                                                }
                                            }
                                        ],
                                        "typeTag": 3
                                    }
                                }
                            ],
                            "typeTag": 4
                        }
                    },
                    {
                        "name": "liquidity",
                        "type": "uint128",
                        "value": {
                            "current": "850365515415",
                            "prev": "850411049029",
                            "typeTag": 1
                        }
                    }
                ]
            },
            {
                "address": "0xa0b86991c6218b36c1d19d4a2e9eb0ce3606eb48",
                "erc": "ERC-20",
                "slots": [
                    {
                        "current": "0x0000000000000000000000000000000000000000000000000000128d149de39e",
                        "key": "0xb9007c1e9e1ad9733d8edcfdc68640f17341807c1ef085a5e1dec15244f094de",
                        "prev": "0x0000000000000000000000000000000000000000000000000000128f71515606"
                    },
                    {
                        "current": "0x00000000000000000000000000000000000000000000000000000abfb073dfd2",
                        "key": "0xef9aa6e78baadd9fa11efc775ebe24781e6dd67d28095a72c3297161bfcd60c2",
                        "prev": "0x00000000000000000000000000000000000000000000000000000abd53c06d6a"
                    }
                ],
                "storageVariables": [
                    {
                        "name": "balanceAndBlacklistStates",
                        "type": "mapping(address => uint256)",
                        "value": {
                            "pairs": [
                                {
                                    "key": "0x51c72848c68a965f66fa7a88855f9f7784502a7f",
                                    "value": {
                                        "current": "11818415415250",
                                        "prev": "11808270216554",
                                        "typeTag": 1
                                    }
                                },
                                {
                                    "key": "0x99ac8ca7087fa4a2a1fb6357269965a2014abc35",
                                    "value": {
                                        "current": "20397145580446",
                                        "prev": "20407290779142",
                                        "typeTag": 1
                                    }
                                }
                            ],
                            "typeTag": 4
                        }
                    }
                ]
            }
        ]
    }
}