{
    "balance_change": {
        "balanceChanges": [
            {
                "account": "0x950b753003faf592873923fec44fb404cf8a715e",
                "assets": [
                    {
                        "address": "0x182a603541a4483c308475147d621bbb4e2587c6",
                        "amount": "100",
                        "iconUrl": "",
                        "isERC1155": false,
                        "isERC721": false,
                        "sign": false,
                        "value": ""
                    }
                ]
            },
            {
                "account": "0xc92e12d83d8fff7f3fd369a887758e514daef01b",
                "assets": [
                    {
                        "address": "0x182a603541a4483c308475147d621bbb4e2587c6",
                        "amount": "100",
                        "iconUrl": "",
                        "isERC1155": false,
                        "isERC721": false,
                        "sign": true,
                        "value": ""
                    }
                ]
            }
        ]
    },
    "profile": {
        "basic_info": {
            "baseFee": "",
            "blockNumber": 8643167,
            "callData": "0xbe45fd62000000000000000000000000c92e12d83d8fff7f3fd369a887758e514daef01b0000000000000000000000000000000000000000000000056bc75e2d63100000000000000000000000000000000000000000000000000000000000000000006000000000000000000000000000000000000000000000000000000000000000046e756c6c00000000000000000000000000000000000000000000000000000000",
            "debugEnable": true,
            "errorInfo": "",
            "eventCount": 1,
            "feeRecipient": "0xea674fdde714fd979de3edf0f56aa9716b898ec8",
            "formatValue": "0",
            "gasLimit": 288847,
            "gasPrice": "20.8",
            "gasUsed": 38847,
            "intTxnCount": 0,
            "internalRevert": false,
            "internalRevertMessage": "",
            "isContractCreation": false,
            "isFlashloan": false,
            "maxFee": "",
            "nonce": 11,
            "overwritedBlockNumber": -1,
            "priorityFee": "",
            "receiver": "0x182a603541a4483c308475147d621bbb4e2587c6",
            "revertMessage": "",
            "sender": "0x950b753003faf592873923fec44fb404cf8a715e",
            "simulationEnable": true,
            "sourceTxnHash": "0xaa1e003f2a76e5a582576ee305e91919766e5e991e680b07a284b0221c87e665",
            "status": true,
            "timestamp": "2019-09-29T10:34:52Z",
            "transactionFee": "0.0008080176",
            "txnHash": "0xaa1e003f2a76e5a582576ee305e91919766e5e991e680b07a284b0221c87e665",
            "txnIndex": 88,
            "type": 0,
            "value": "0"
        },
        "fund_flow": [
            {
                "amount": "100",
                "from": "0x950b753003faf592873923fec44fb404cf8a715e",
                "id": 1,
                "isERC1155": false,
                "isERC721": false,
                "isReverted": false,
                "order": 1,
                "to": "0xc92e12d83d8fff7f3fd369a887758e514daef01b",
                "token": "0x182a603541a4483c308475147d621bbb4e2587c6"
            }
        ],
        "token_infos": [
            {
                "address": "0x182a603541a4483c308475147d621bbb4e2587c6",
                "decimals": 18
            },
            {
                "address": "0xc02aaa39b223fe8d0a0e5c4f27ead9083c756cc2",
                "decimals": 18
            },
            {
                "address": "0xeeeeeeeeeeeeeeeeeeeeeeeeeeeeeeeeeeeeeeee",
                "decimals": 18
            }
        ]
    },
    "address_label": {
        "labels": [
            {
                "address": "0x182a603541a4483c308475147d621bbb4e2587c6",
                "label": "Zerobank Token"
            },
            {
                "address": "0x0000000000000000000000000000000000000001",
                "label": "Precompiled"
            },
            {
                "address": "0x0000000000000000000000000000000000000002",
                "label": "Precompiled"
            },
            {
                "address": "0x0000000000000000000000000000000000000003",
                "label": "Precompiled"
            },
            {
                "address": "0x0000000000000000000000000000000000000004",
                "label": "Precompiled"
            },
            {
                "address": "0xeeeeeeeeeeeeeeeeeeeeeeeeeeeeeeeeeeeeeeee",
                "label": "Ether"
            }
        ]
    },
    "trace": {
        "accountLabels": null,
        "dataMap": {
            "-1": {
                "invocation": {
                    "address": "0x950b753003faf592873923fec44fb404cf8a715e",
                    "callData": "",
                    "decodedMethod": null,
                    "errorInfo": "",
                    "fromAddress": "",
                    "gasUsed": 0,
                    "id": -1,
                    "methodDecoded": false,
                    "operation": "",
                    "output": "",
                    "revert": false,
                    "revertMessage": "",
                    "selector": "",
                    "status": false,
                    "value": ""
                },
                "nodeType": 0
            },
            "0": {
                "invocation": {
                    "address": "0x182a603541a4483c308475147d621bbb4e2587c6",
                    "callData": "0x000000000000000000000000c92e12d83d8fff7f3fd369a887758e514daef01b0000000000000000000000000000000000000000000000056bc75e2d63100000000000000000000000000000000000000000000000000000000000000000006000000000000000000000000000000000000000000000000000000000000000046e756c6c00000000000000000000000000000000000000000000000000000000",
                    "decodedMethod": {
                        "callParams": [
                            {
                                "name": "to",
                                "type": "address",
                                "value": "0xc92e12d83d8fff7f3fd369a887758e514daef01b"
                            },
                            {
                                "name": "value",
                                "type": "uint256",
                                "value": "100,000,000,000,000,000,000"
                            },
                            {
                                "name": "data",
                                "type": "bytes",
                                "value": "0x6e756c6c"
                            }
                        ],
                        "constructorArguments": "",
                        "name": "transfer",
                        "returnParams": [],
                        "signature": "transfer(address,uint256,bytes)"
                    },
                    "errorInfo": "",
                    "fromAddress": "0x950b753003faf592873923fec44fb404cf8a715e",
                    "gasUsed": 38847,
                    "id": 0,
                    "methodDecoded": true,
                    "operation": "CALL",
                    "output": "",
                    "revert": false,
                    "revertMessage": "",
                    "selector": "0xbe45fd62",
                    "status": true,
                    "value": "0"
                },
                "nodeType": 0
            },
            "1": {
                "event": {
                    "contract": "0x182a603541a4483c308475147d621bbb4e2587c6",
                    "decodedLog": {
                        "name": "Transfer",
                        "params": [
                            {
                                "name": "from",
                                "type": "address",
                                "value": "0x950b753003faf592873923fec44fb404cf8a715e"
                            },
                            {
                                "name": "to",
                                "type": "address",
                                "value": "0xc92e12d83d8fff7f3fd369a887758e514daef01b"
                            },
                            {
                                "decimalAvailable": true,
                                "name": "value",
                                "type": "uint256",
                                "value": "100,000,000,000,000,000,000"
                            }
                        ],
                        "signature": "Transfer(address,address,uint256)"
                    },
                    "id": 1,
                    "logData": "0x0000000000000000000000000000000000000000000000056bc75e2d63100000",
                    "logDecoded": true,
                    "operation": "EVENT",
                    "revert": false,
                    "status": true,
                    "topics": [
                        "0xddf252ad1be2c89b69c2b068fc378daa952ba7f163c4a11628f55a4df523b3ef",
                        "0x000000000000000000000000950b753003faf592873923fec44fb404cf8a715e",
                        "0x000000000000000000000000c92e12d83d8fff7f3fd369a887758e514daef01b"
                    ]
                },
                "nodeType": 1
            }
        },
        "gasFlame": [
            {
                "children": [
                    {
                        "children": [
                            {
                                "children": [],
                                "depth": 0,
                                "name": "Initial Gas",
                                "value": 24024
                            },
                            {
                                "children": [],
                                "depth": 0,
                                "name": "Executed Gas",
                                "value": 14823
                            }
                        ],
                        "depth": -1,
                        "name": "Actual Gas Used",
                        "value": 38847
                    },
                    {
                        "children": [],
                        "depth": -1,
                        "name": "Refunded Gas",
                        "value": 0
                    }
                ],
                "depth": -2,
                "name": "Total Gas",
                "value": 38847
            }
        ],
        "isConfirmed": true,
        "mainTrace": [
            {
                "children": [
                    {
                        "children": [
                            {
                                "children": [],
                                "depth": 1,
                                "id": 1,
                                "order": 1
                            }
                        ],
                        "depth": 0,
                        "id": 0,
                        "order": 0
                    }
                ],
                "depth": -1,
                "id": -1,
                "order": -1
            }
        ],
        "mainTraceNodeCount": 2,
        "parentIdMap": {
            "0": -1,
            "1": 0
        },
        "tidyTrace": [
            {
                "children": [
                    {
                        "children": [
                            {
                                "children": [],
                                "depth": 1,
                                "id": 1,
                                "order": 1
                            }
                        ],
                        "depth": 0,
                        "id": 0,
                        "order": 0
                    }
                ],
                "depth": -1,
                "id": -1,
                "order": -1
            }
        ],
        "tidyTraceNodeCount": 2
    },
    "state_change": {
        "stateChanges": [
            {
                "address": "0x182a603541a4483c308475147d621bbb4e2587c6",
                "erc": "ERC-20",
                "slots": [
                    {
                        "current": "0x000000000000000000000000000000000000000000000030c9fcfb5a84664000",
                        "key": "0x40b71939fd07eac5c84299dfe7dd0613ad51e32bcf8a70e6d683e03f90d4b94f",
                        "prev": "0x00000000000000000000000000000000000000000000003635c45987e7764000"
                    },
                    {
                        "current": "0x00000000000000000000000000000000000000000000003f96aa6bc77eb1d000",
                        "key": "0x5cb046a02d5f887048af414e255ff94d42008fbe630e9ef85b4eadf828d5bc01",
                        "prev": "0x00000000000000000000000000000000000000000000003a2ae30d9a1ba1d000"
                    }
                ],
                "storageVariables": [
                    {
                        "name": "balances_",
                        "type": "mapping(address => uint256)",
                        "value": {
                            "pairs": [
                                {
                                    "key": "0x950b753003faf592873923fec44fb404cf8a715e",
                                    "value": {
                                        "current": "899998500000000000000",
                                        "prev": "999998500000000000000",
                                        "typeTag": 1
                                    }
                                },
                                {
                                    "key": "0xc92e12d83d8fff7f3fd369a887758e514daef01b",
                                    "value": {
                                        "current": "1173001485000000000000",
                                        "prev": "1073001485000000000000",
                                        "typeTag": 1
                                    }
                                }
                            ],
                            "typeTag": 4
                        }
                    }
                ]
            }
        ]
    }
}