{
    "balance_change": {
        "balanceChanges": [
            {
                "account": "0x9b072979932831d9a8fbe426b491f840a2b2620b",
                "assets": [
                    {
                        "address": "0x9d5155fbffd5bbb7555f13819a5b435b7befdcbe",
                        "amount": "17.1498301507",
                        "iconUrl": "",
                        "isERC1155": false,
                        "isERC721": false,
                        "sign": false,
                        "value": ""
                    }
                ]
            },
            {
                "account": "0x306641bb8887d3b2e10ddf5c5fd659b50ecb64c7",
                "assets": [
                    {
                        "address": "0x9d5155fbffd5bbb7555f13819a5b435b7befdcbe",
                        "amount": "17.1498301507",
                        "iconUrl": "",
                        "isERC1155": false,
                        "isERC721": false,
                        "sign": true,
                        "value": ""
                    }
                ]
            }
        ]
    },
    "profile": {
        "basic_info": {
            "baseFee": "",
            "blockNumber": 10313232,
            "callData": "0xf297be66000000000000000000000000306641bb8887d3b2e10ddf5c5fd659b50ecb64c7000000000000000000000000000000000000000000000000ee006fa88ac1e300000000000000000000000000000000000000000000000000000000000000122f",
            "debugEnable": true,
            "errorInfo": "",
            "eventCount": 2,
            "feeRecipient": "0xc4aeb20798368c48b27280847e187bb332b9bc77",
            "formatValue": "0",
            "gasLimit": 71154,
            "gasPrice": "40.5",
            "gasUsed": 71154,
            "intTxnCount": 1,
            "internalRevert": false,
            "internalRevertMessage": "",
            "isContractCreation": false,
            "isFlashloan": false,
            "maxFee": "",
            "nonce": 2805,
            "overwritedBlockNumber": -1,
            "priorityFee": "",
            "receiver": "0x9b072979932831d9a8fbe426b491f840a2b2620b",
            "revertMessage": "",
            "sender": "0x0a79744ed347d496216c77ae7fb1d0b75fd26383",
            "simulationEnable": true,
            "sourceTxnHash": "0xab0332a945e80c4590bdca03dee06f0df4693134b09313dfee4b885b28cdb2bb",
            "status": true,
            "timestamp": "2020-06-22T03:42:11Z",
            "transactionFee": "0.002881737",
            "txnHash": "0xab0332a945e80c4590bdca03dee06f0df4693134b09313dfee4b885b28cdb2bb",
            "txnIndex": 29,
            "type": 0,
            "value": "0"
        },
        "fund_flow": [
            {
                "amount": "17.1498301507",
                "from": "0x9b072979932831d9a8fbe426b491f840a2b2620b",
                "id": 1,
                "isERC1155": false,
                "isERC721": false,
                "isReverted": false,
                "order": 1,
                "to": "0x306641bb8887d3b2e10ddf5c5fd659b50ecb64c7",
                "token": "0x9d5155fbffd5bbb7555f13819a5b435b7befdcbe"
            }
        ],
        "token_infos": [
            {
                "address": "0x9d5155fbffd5bbb7555f13819a5b435b7befdcbe",
                "decimals": 18
            },
            {
                "address": "0xc02aaa39b223fe8d0a0e5c4f27ead9083c756cc2",
                "decimals": 18
            },
            {
                "address": "0xeeeeeeeeeeeeeeeeeeeeeeeeeeeeeeeeeeeeeeee",
                "decimals": 18
            }
        ]
    },
    "address_label": {
        "labels": [
            {
                "address": "0x0000000000000000000000000000000000000001",
                "label": "Precompiled"
            },
            {
                "address": "0x0000000000000000000000000000000000000002",
                "label": "Precompiled"
            },
            {
                "address": "0x0000000000000000000000000000000000000003",
                "label": "Precompiled"
            },
            {
                "address": "0x0000000000000000000000000000000000000004",
                "label": "Precompiled"
            },
            {
                "address": "0xeeeeeeeeeeeeeeeeeeeeeeeeeeeeeeeeeeeeeeee",
                "label": "Ether"
            },
            {
                "address": "0x9d5155fbffd5bbb7555f13819a5b435b7befdcbe",
                "label": "Trister\u2019s Light Coin (Trister)"
            }
        ]
    },
    "trace": {
        "accountLabels": null,
        "dataMap": {
            "-1": {
                "invocation": {
                    "address": "0x0a79744ed347d496216c77ae7fb1d0b75fd26383",
                    "callData": "",
                    "decodedMethod": null,
                    "errorInfo": "",
                    "fromAddress": "",
                    "gasUsed": 0,
                    "id": -1,
                    "methodDecoded": false,
                    "operation": "",
                    "output": "",
                    "revert": false,
                    "revertMessage": "",
                    "selector": "",
                    "status": false,
                    "value": ""
                },
                "nodeType": 0
            },
            "0": {
                "invocation": {
                    "address": "0x9b072979932831d9a8fbe426b491f840a2b2620b",
                    "callData": "0x000000000000000000000000306641bb8887d3b2e10ddf5c5fd659b50ecb64c7000000000000000000000000000000000000000000000000ee006fa88ac1e300000000000000000000000000000000000000000000000000000000000000122f",
                    "decodedMethod": {
                        "callParams": [
                            {
                                "name": "recevier",
                                "type": "address",
                                "value": "0x306641bb8887d3b2e10ddf5c5fd659b50ecb64c7"
                            },
                            {
                                "name": "amount",
                                "type": "uint256",
                                "value": "17,149,830,150,700,000,000"
                            },
                            {
                                "name": "_id",
                                "type": "uint256",
                                "value": "4,655"
                            }
                        ],
                        "constructorArguments": "",
                        "name": "release",
                        "returnParams": [],
                        "signature": "release(address,uint256,uint256)"
                    },
                    "errorInfo": "",
                    "fromAddress": "0x0a79744ed347d496216c77ae7fb1d0b75fd26383",
                    "gasUsed": 71154,
                    "id": 0,
                    "methodDecoded": true,
                    "operation": "CALL",
                    "output": "",
                    "revert": false,
                    "revertMessage": "",
                    "selector": "0xf297be66",
                    "status": true,
                    "value": "0"
                },
                "nodeType": 0
            },
            "1": {
                "invocation": {
                    "address": "0x9d5155fbffd5bbb7555f13819a5b435b7befdcbe",
                    "callData": "0x000000000000000000000000306641bb8887d3b2e10ddf5c5fd659b50ecb64c7000000000000000000000000000000000000000000000000ee006fa88ac1e300",
                    "decodedMethod": {
                        "callParams": [
                            {
                                "name": "to",
                                "type": "address",
                                "value": "0x306641bb8887d3b2e10ddf5c5fd659b50ecb64c7"
                            },
                            {
                                "decimalAvailable": true,
                                "name": "amount",
                                "type": "uint256",
                                "value": "17,149,830,150,700,000,000"
                            }
                        ],
                        "constructorArguments": "",
                        "name": "transfer",
                        "returnParams": [
                            {
                                "name": "",
                                "type": "bool",
                                "value": true
                            }
                        ],
                        "signature": "transfer(address,uint256)"
                    },
                    "errorInfo": "",
                    "fromAddress": "0x9b072979932831d9a8fbe426b491f840a2b2620b",
                    "gasUsed": 14807,
                    "id": 1,
                    "methodDecoded": true,
                    "operation": "CALL",
                    "output": "0x0000000000000000000000000000000000000000000000000000000000000001",
                    "revert": false,
                    "revertMessage": "",
                    "selector": "0xa9059cbb",
                    "status": true,
                    "value": "0"
                },
                "nodeType": 0
            },
            "2": {
                "event": {
                    "contract": "0x9d5155fbffd5bbb7555f13819a5b435b7befdcbe",
                    "decodedLog": {
                        "name": "Transfer",
                        "params": [
                            {
                                "name": "from",
                                "type": "address",
                                "value": "0x9b072979932831d9a8fbe426b491f840a2b2620b"
                            },
                            {
                                "name": "to",
                                "type": "address",
                                "value": "0x306641bb8887d3b2e10ddf5c5fd659b50ecb64c7"
                            },
                            {
                                "decimalAvailable": true,
                                "name": "value",
                                "type": "uint256",
                                "value": "17,149,830,150,700,000,000"
                            }
                        ],
                        "signature": "Transfer(address,address,uint256)"
                    },
                    "id": 2,
                    "logData": "0x000000000000000000000000000000000000000000000000ee006fa88ac1e300",
                    "logDecoded": true,
                    "operation": "EVENT",
                    "revert": false,
                    "status": true,
                    "topics": [
                        "0xddf252ad1be2c89b69c2b068fc378daa952ba7f163c4a11628f55a4df523b3ef",
                        "0x0000000000000000000000009b072979932831d9a8fbe426b491f840a2b2620b",
                        "0x000000000000000000000000306641bb8887d3b2e10ddf5c5fd659b50ecb64c7"
                    ]
                },
                "nodeType": 1
            },
            "3": {
                "event": {
                    "contract": "0x9b072979932831d9a8fbe426b491f840a2b2620b",
                    "decodedLog": null,
                    "id": 3,
                    "logData": "0x0000000000000000000000000000000000000000000000000006907715b5ae00",
                    "logDecoded": false,
                    "operation": "EVENT",
                    "revert": false,
                    "status": true,
                    "topics": [
                        "0x6d0f8bf20fdbf0501c403fa7863679b821f006a63b09c689ee2687d00220edf9",
                        "0x000000000000000000000000306641bb8887d3b2e10ddf5c5fd659b50ecb64c7",
                        "0x000000000000000000000000000000000000000000000000ee006fa88ac1e300",
                        "0x000000000000000000000000000000000000000000000000000000000000122f"
                    ]
                },
                "nodeType": 1
            }
        },
        "gasFlame": [
            {
                "children": [
                    {
                        "children": [
                            {
                                "children": [],
                                "depth": 0,
                                "name": "Initial Gas",
                                "value": 21784
                            },
                            {
                                "children": [
                                    {
                                        "children": [],
                                        "depth": 1,
                                        "name": "transfer",
                                        "value": 14807
                                    }
                                ],
                                "depth": 0,
                                "name": "Executed Gas",
                                "value": 49370
                            }
                        ],
                        "depth": -1,
                        "name": "Actual Gas Used",
                        "value": 71154
                    },
                    {
                        "children": [],
                        "depth": -1,
                        "name": "Refunded Gas",
                        "value": 0
                    }
                ],
                "depth": -2,
                "name": "Total Gas",
                "value": 71154
            }
        ],
        "isConfirmed": true,
        "mainTrace": [
            {
                "children": [
                    {
                        "children": [
                            {
                                "children": [
                                    {
                                        "children": [],
                                        "depth": 2,
                                        "id": 2,
                                        "order": 2
                                    }
                                ],
                                "depth": 1,
                                "id": 1,
                                "order": 1
                            },
                            {
                                "children": [],
                                "depth": 1,
                                "id": 3,
                                "order": 3
                            }
                        ],
                        "depth": 0,
                        "id": 0,
                        "order": 0
                    }
                ],
                "depth": -1,
                "id": -1,
                "order": -1
            }
        ],
        "mainTraceNodeCount": 4,
        "parentIdMap": {
            "0": -1,
            "1": 0,
            "2": 1,
            "3": 0
        },
        "tidyTrace": [
            {
                "children": [
                    {
                        "children": [
                            {
                                "children": [
                                    {
                                        "children": [],
                                        "depth": 2,
                                        "id": 2,
                                        "order": 2
                                    }
                                ],
                                "depth": 1,
                                "id": 1,
                                "order": 1
                            },
                            {
                                "children": [],
                                "depth": 1,
                                "id": 3,
                                "order": 3
                            }
                        ],
                        "depth": 0,
                        "id": 0,
                        "order": 0
                    }
                ],
                "depth": -1,
                "id": -1,
                "order": -1
            }
        ],
        "tidyTraceNodeCount": 4
    },
    "state_change": {
        "stateChanges": [
            {
                "address": "0x9b072979932831d9a8fbe426b491f840a2b2620b",
                "erc": "",
                "slots": [
                    {
                        "current": "0x00000000000000000000000000000000000000000000000000000000013aa500",
                        "key": "0xc123dfd852d7d87c9eebbf893646e681b5592c924e849a4bb725a8aa9c9d7100",
                        "prev": "0x000000000000000000000000000000000000000000000000ee006fa88bfc8800"
                    },
                    {
                        "current": "0x0000000000000000000000000000000000000000000000000000000000000001",
                        "key": "0x036ccf57bbdcc8c3f2aff9fa06c0be49a8b1b3b66a7e903bcbab4cb3947ee08b",
                        "prev": "0x0000000000000000000000000000000000000000000000000000000000000000"
                    }
                ],
                "storageVariables": []
            },
            {
                "address": "0x9d5155fbffd5bbb7555f13819a5b435b7befdcbe",
                "erc": "ERC-20",
                "slots": [
                    {
                        "current": "0x0000000000000000000000000000000000000000003e081f4bd65765d461ac3f",
                        "key": "0x9c0fa9d181ae2c4f954797eae5bddf1cc649c5d20d99911c196305835b3dcac6",
                        "prev": "0x0000000000000000000000000000000000000000003e082039d6c70e5f238f3f"
                    },
                    {
                        "current": "0x000000000000000000000000000000000000000000000002b5e3af16b04d5b00",
                        "key": "0xd79f6f45d28f75d5d7c70b346c5a8d9830207bbb0aee8bcb25dca79e402dfc5b",
                        "prev": "0x000000000000000000000000000000000000000000000001c7e33f6e258b7800"
                    }
                ],
                "storageVariables": [
                    {
                        "name": "_balances",
                        "type": "mapping(address => uint256)",
                        "value": {
                            "pairs": [
                                {
                                    "key": "0x306641bb8887d3b2e10ddf5c5fd659b50ecb64c7",
                                    "value": {
                                        "current": "49999999999979379456",
                                        "prev": "32850169849279379456",
                                        "typeTag": 1
                                    }
                                },
                                {
                                    "key": "0x9b072979932831d9a8fbe426b491f840a2b2620b",
                                    "value": {
                                        "current": "74991757061687543716752447",
                                        "prev": "74991774211517694416752447",
                                        "typeTag": 1
                                    }
                                }
                            ],
                            "typeTag": 4
                        }
                    }
                ]
            }
        ]
    }
}