{
    "balance_change": {
        "balanceChanges": []
    },
    "profile": {
        "basic_info": {
            "baseFee": "16.749499568",
            "blockNumber": 14989986,
            "callData": "0x1cff79cd000000000000000000000000a034c1f0246d728cb0f2376d5968ca53d6c8d30f000000000000000000000000000000000000000000000000000000000000004000000000000000000000000000000000000000000000000000000000000001644644650300000000000000000000000031503dcb60119a812fee820bb7042752019f2355000000000000000000000000c00e94cb662c3520282e6f5717214004a7f26888000000000000000000000000c02aaa39b223fe8d0a0e5c4f27ead9083c756cc200000000000000000000000056178a0d5f301baf6cf3e1cd53d9863437345bf900000000000000000000000000000000000000000000000002b33bf86272db5600000000000000000000000000000000000000000000006979569685a69648c000000000000000000000000000000000000000000003cf2a8cdcb9ec9ee4ec000000000000000000000000000000000000000000000000000066d38daf43f0b10000000000000000000000000000000000000000000000000066d38daf43f0b10000000000000000000000000000000000000000000000000000000062aee9fa000000000000000000000000000000000000000000000000000000000000000000000000000000000000000000000000000000000000000000000000",
            "debugEnable": true,
            "errorInfo": "execution reverted",
            "eventCount": 0,
            "feeRecipient": "0xea674fdde714fd979de3edf0f56aa9716b898ec8",
            "formatValue": "0.000000000000029189",
            "gasLimit": 300000,
            "gasPrice": "25.310820329",
            "gasUsed": 44969,
            "intTxnCount": 4,
            "internalRevert": true,
            "internalRevertMessage": "",
            "isContractCreation": false,
            "isFlashloan": false,
            "maxFee": "28.660720242",
            "nonce": 3628,
            "overwritedBlockNumber": -1,
            "priorityFee": "8.561320761",
            "receiver": "0xa57bd00134b2850b2a1c55860c9e9ea100fdd6cf",
            "revertMessage": "",
            "sender": "0x9da9e152ee8d6c6d504cb392f22039bb5205655f",
            "simulationEnable": true,
            "sourceTxnHash": "0xab684ffa20100be3468a0e98c86bcdeeec07799e27eec0c5674f5ba715d8fc69",
            "status": false,
            "timestamp": "2022-06-19T09:16:42Z",
            "transactionFee": "0.001138202279374801",
            "txnHash": "0xab684ffa20100be3468a0e98c86bcdeeec07799e27eec0c5674f5ba715d8fc69",
            "txnIndex": 76,
            "type": 2,
            "value": "29189"
        },
        "fund_flow": [],
        "token_infos": [
            {
                "address": "0xc02aaa39b223fe8d0a0e5c4f27ead9083c756cc2",
                "decimals": 18
            },
            {
                "address": "0xeeeeeeeeeeeeeeeeeeeeeeeeeeeeeeeeeeeeeeee",
                "decimals": 18
            }
        ]
    },
    "address_label": {
        "labels": [
            {
                "address": "0xc00e94cb662c3520282e6f5717214004a7f26888",
                "label": "Compound: COMP Token"
            },
            {
                "address": "0x0000000000000000000000000000000000000001",
                "label": "Precompiled"
            },
            {
                "address": "0x0000000000000000000000000000000000000002",
                "label": "Precompiled"
            },
            {
                "address": "0x0000000000000000000000000000000000000003",
                "label": "Precompiled"
            },
            {
                "address": "0x0000000000000000000000000000000000000004",
                "label": "Precompiled"
            },
            {
                "address": "0xeeeeeeeeeeeeeeeeeeeeeeeeeeeeeeeeeeeeeeee",
                "label": "Ether"
            },
            {
                "address": "0x31503dcb60119a812fee820bb7042752019f2355",
                "label": "SushiSwap: COMP"
            },
            {
                "address": "0xa57bd00134b2850b2a1c55860c9e9ea100fdd6cf",
                "label": "MEV Bot: 0xa57...6CF"
            }
        ]
    },
    "trace": {
        "accountLabels": null,
        "dataMap": {
            "-1": {
                "invocation": {
                    "address": "0x9da9e152ee8d6c6d504cb392f22039bb5205655f",
                    "callData": "",
                    "decodedMethod": null,
                    "errorInfo": "",
                    "fromAddress": "",
                    "gasUsed": 0,
                    "id": -1,
                    "methodDecoded": false,
                    "operation": "",
                    "output": "",
                    "revert": false,
                    "revertMessage": "",
                    "selector": "",
                    "status": false,
                    "value": ""
                },
                "nodeType": 0
            },
            "0": {
                "invocation": {
                    "address": "0xa57bd00134b2850b2a1c55860c9e9ea100fdd6cf",
                    "callData": "0x000000000000000000000000a034c1f0246d728cb0f2376d5968ca53d6c8d30f000000000000000000000000000000000000000000000000000000000000004000000000000000000000000000000000000000000000000000000000000001644644650300000000000000000000000031503dcb60119a812fee820bb7042752019f2355000000000000000000000000c00e94cb662c3520282e6f5717214004a7f26888000000000000000000000000c02aaa39b223fe8d0a0e5c4f27ead9083c756cc200000000000000000000000056178a0d5f301baf6cf3e1cd53d9863437345bf900000000000000000000000000000000000000000000000002b33bf86272db5600000000000000000000000000000000000000000000006979569685a69648c000000000000000000000000000000000000000000003cf2a8cdcb9ec9ee4ec000000000000000000000000000000000000000000000000000066d38daf43f0b10000000000000000000000000000000000000000000000000066d38daf43f0b10000000000000000000000000000000000000000000000000000000062aee9fa000000000000000000000000000000000000000000000000000000000000000000000000000000000000000000000000000000000000000000000000",
                    "decodedMethod": {
                        "callParams": [
                            {
                                "name": "_target",
                                "type": "address",
                                "value": "0xa034c1f0246d728cb0f2376d5968ca53d6c8d30f"
                            },
                            {
                                "name": "_data",
                                "type": "bytes",
                                "value": "0x4644650300000000000000000000000031503dcb60119a812fee820bb7042752019f2355000000000000000000000000c00e94cb662c3520282e6f5717214004a7f26888000000000000000000000000c02aaa39b223fe8d0a0e5c4f27ead9083c756cc200000000000000000000000056178a0d5f301baf6cf3e1cd53d9863437345bf900000000000000000000000000000000000000000000000002b33bf86272db5600000000000000000000000000000000000000000000006979569685a69648c000000000000000000000000000000000000000000003cf2a8cdcb9ec9ee4ec000000000000000000000000000000000000000000000000000066d38daf43f0b10000000000000000000000000000000000000000000000000066d38daf43f0b10000000000000000000000000000000000000000000000000000000062aee9fa0000000000000000000000000000000000000000000000000000000000000000"
                            }
                        ],
                        "constructorArguments": "",
                        "name": "execute",
                        "returnParams": [],
                        "signature": "execute(address,bytes)"
                    },
                    "errorInfo": "execution reverted",
                    "fromAddress": "0x9da9e152ee8d6c6d504cb392f22039bb5205655f",
                    "gasUsed": 44969,
                    "id": 0,
                    "methodDecoded": true,
                    "operation": "CALL",
                    "output": "",
                    "revert": true,
                    "revertMessage": "",
                    "selector": "0x1cff79cd",
                    "status": false,
                    "value": "0.000000000000029189"
                },
                "nodeType": 0
            },
            "1": {
                "invocation": {
                    "address": "0xa034c1f0246d728cb0f2376d5968ca53d6c8d30f",
                    "callData": "0x00000000000000000000000031503dcb60119a812fee820bb7042752019f2355000000000000000000000000c00e94cb662c3520282e6f5717214004a7f26888000000000000000000000000c02aaa39b223fe8d0a0e5c4f27ead9083c756cc200000000000000000000000056178a0d5f301baf6cf3e1cd53d9863437345bf900000000000000000000000000000000000000000000000002b33bf86272db5600000000000000000000000000000000000000000000006979569685a69648c000000000000000000000000000000000000000000003cf2a8cdcb9ec9ee4ec000000000000000000000000000000000000000000000000000066d38daf43f0b10000000000000000000000000000000000000000000000000066d38daf43f0b10000000000000000000000000000000000000000000000000000000062aee9fa0000000000000000000000000000000000000000000000000000000000000000",
                    "decodedMethod": null,
                    "errorInfo": "execution reverted",
                    "fromAddress": "0xa57bd00134b2850b2a1c55860c9e9ea100fdd6cf",
                    "gasUsed": 14664,
                    "id": 1,
                    "methodDecoded": false,
                    "operation": "DELEGATECALL",
                    "output": "0x08c379a0000000000000000000000000000000000000000000000000000000000000002000000000000000000000000000000000000000000000000000000000000000023231000000000000000000000000000000000000000000000000000000000000",
                    "revert": true,
                    "revertMessage": "21",
                    "selector": "0x46446503",
                    "status": false,
                    "value": "0.000000000000029189"
                },
                "nodeType": 0
            },
            "2": {
                "invocation": {
                    "address": "0x31503dcb60119a812fee820bb7042752019f2355",
                    "callData": "0x",
                    "decodedMethod": {
                        "callParams": [],
                        "constructorArguments": "",
                        "name": "token0",
                        "returnParams": [
                            {
                                "name": "",
                                "type": "address",
                                "value": "0xc00e94cb662c3520282e6f5717214004a7f26888"
                            }
                        ],
                        "signature": "token0()"
                    },
                    "errorInfo": "",
                    "fromAddress": "0xa57bd00134b2850b2a1c55860c9e9ea100fdd6cf",
                    "gasUsed": 2449,
                    "id": 2,
                    "methodDecoded": true,
                    "operation": "CALL",
                    "output": "0x000000000000000000000000c00e94cb662c3520282e6f5717214004a7f26888",
                    "revert": true,
                    "revertMessage": "",
                    "selector": "0x0dfe1681",
                    "status": true,
                    "value": "0"
                },
                "nodeType": 0
            },
            "3": {
                "invocation": {
                    "address": "0x31503dcb60119a812fee820bb7042752019f2355",
                    "callData": "0x",
                    "decodedMethod": {
                        "callParams": [],
                        "constructorArguments": "",
                        "name": "getReserves",
                        "returnParams": [
                            {
                                "name": "_reserve0",
                                "type": "uint112",
                                "value": "46,083,542,501,553,632,013,745"
                            },
                            {
                                "name": "_reserve1",
                                "type": "uint112",
                                "value": "1,337,618,289,811,637,147,877"
                            },
                            {
                                "name": "_blockTimestampLast",
                                "type": "uint32",
                                "value": "1,655,630,202"
                            }
                        ],
                        "signature": "getReserves()"
                    },
                    "errorInfo": "",
                    "fromAddress": "0xa57bd00134b2850b2a1c55860c9e9ea100fdd6cf",
                    "gasUsed": 2517,
                    "id": 3,
                    "methodDecoded": true,
                    "operation": "CALL",
                    "output": "0x0000000000000000000000000000000000000000000009c2319fd01730816db1000000000000000000000000000000000000000000000048832ecb94082418e50000000000000000000000000000000000000000000000000000000062aee97a",
                    "revert": true,
                    "revertMessage": "",
                    "selector": "0x0902f1ac",
                    "status": true,
                    "value": "0"
                },
                "nodeType": 0
            },
            "4": {
                "invocation": {
                    "address": "0xc00e94cb662c3520282e6f5717214004a7f26888",
                    "callData": "0x00000000000000000000000056178a0d5f301baf6cf3e1cd53d9863437345bf9",
                    "decodedMethod": {
                        "callParams": [
                            {
                                "name": "account",
                                "type": "address",
                                "value": "0x56178a0d5f301baf6cf3e1cd53d9863437345bf9"
                            }
                        ],
                        "constructorArguments": "",
                        "name": "balanceOf",
                        "returnParams": [
                            {
                                "decimalAvailable": true,
                                "name": "",
                                "type": "uint256",
                                "value": "705,616,687,092,549,697,964"
                            }
                        ],
                        "signature": "balanceOf(address)"
                    },
                    "errorInfo": "",
                    "fromAddress": "0xa57bd00134b2850b2a1c55860c9e9ea100fdd6cf",
                    "gasUsed": 2788,
                    "id": 4,
                    "methodDecoded": true,
                    "operation": "CALL",
                    "output": "0x00000000000000000000000000000000000000000000002640660e64ab6241ac",
                    "revert": true,
                    "revertMessage": "",
                    "selector": "0x70a08231",
                    "status": true,
                    "value": "0"
                },
                "nodeType": 0
            }
        },
        "gasFlame": [
            {
                "children": [
                    {
                        "children": [
                            {
                                "children": [],
                                "depth": 0,
                                "name": "Initial Gas",
                                "value": 24808
                            },
                            {
                                "children": [
                                    {
                                        "children": [
                                            {
                                                "children": [],
                                                "depth": 2,
                                                "name": "token0",
                                                "value": 2449
                                            },
                                            {
                                                "children": [],
                                                "depth": 2,
                                                "name": "getReserves",
                                                "value": 2517
                                            },
                                            {
                                                "children": [],
                                                "depth": 2,
                                                "name": "balanceOf",
                                                "value": 2788
                                            }
                                        ],
                                        "depth": 1,
                                        "name": "0x46446503",
                                        "value": 14664
                                    }
                                ],
                                "depth": 0,
                                "name": "Executed Gas",
                                "value": 20161
                            }
                        ],
                        "depth": -1,
                        "name": "Actual Gas Used",
                        "value": 44969
                    },
                    {
                        "children": [],
                        "depth": -1,
                        "name": "Refunded Gas",
                        "value": 0
                    }
                ],
                "depth": -2,
                "name": "Total Gas",
                "value": 44969
            }
        ],
        "isConfirmed": true,
        "mainTrace": [
            {
                "children": [
                    {
                        "children": [
                            {
                                "children": [
                                    {
                                        "children": [],
                                        "depth": 2,
                                        "id": 2,
                                        "order": 2
                                    },
                                    {
                                        "children": [],
                                        "depth": 2,
                                        "id": 3,
                                        "order": 3
                                    },
                                    {
                                        "children": [],
                                        "depth": 2,
                                        "id": 4,
                                        "order": 4
                                    }
                                ],
                                "depth": 1,
                                "id": 1,
                                "order": 1
                            }
                        ],
                        "depth": 0,
                        "id": 0,
                        "order": 0
                    }
                ],
                "depth": -1,
                "id": -1,
                "order": -1
            }
        ],
        "mainTraceNodeCount": 5,
        "parentIdMap": {
            "0": -1,
            "1": 0,
            "2": 1,
            "3": 1,
            "4": 1
        },
        "tidyTrace": [
            {
                "children": [
                    {
                        "children": [
                            {
                                "children": [
                                    {
                                        "children": [],
                                        "depth": 2,
                                        "id": 2,
                                        "order": 2
                                    },
                                    {
                                        "children": [],
                                        "depth": 2,
                                        "id": 3,
                                        "order": 3
                                    },
                                    {
                                        "children": [],
                                        "depth": 2,
                                        "id": 4,
                                        "order": 4
                                    }
                                ],
                                "depth": 1,
                                "id": 1,
                                "order": 1
                            }
                        ],
                        "depth": 0,
                        "id": 0,
                        "order": 0
                    }
                ],
                "depth": -1,
                "id": -1,
                "order": -1
            }
        ],
        "tidyTraceNodeCount": 5
    },
    "state_change": {
        "stateChanges": []
    }
}