{
    "balance_change": {
        "balanceChanges": [
            {
                "account": "0x6ae3ee8a37b6319a18f67e6492bd85ec1db2e93b",
                "assets": [
                    {
                        "address": "0x4e3fbd56cd56c3e72c1403e103b45db9da5b9d2b",
                        "amount": "2,534.73263134117223946",
                        "iconUrl": "https://assets.blocksec.com/icon/c870022230e65319e25914ab58f92928989e1731491307605ba26c0ea334b989.png",
                        "isERC1155": false,
                        "isERC721": false,
                        "sign": false,
                        "value": "40723.14119"
                    }
                ]
            },
            {
                "account": "0xa41d3149fa255122acf9b004ee318cbfe369eb59",
                "assets": [
                    {
                        "address": "0x4e3fbd56cd56c3e72c1403e103b45db9da5b9d2b",
                        "amount": "2,534.73263134117223946",
                        "iconUrl": "https://assets.blocksec.com/icon/c870022230e65319e25914ab58f92928989e1731491307605ba26c0ea334b989.png",
                        "isERC1155": false,
                        "isERC721": false,
                        "sign": true,
                        "value": "40723.14119"
                    }
                ]
            }
        ]
    },
    "profile": {
        "basic_info": {
            "baseFee": "24.064292331",
            "blockNumber": 14358183,
            "callData": "0xa9059cbb000000000000000000000000a41d3149fa255122acf9b004ee318cbfe369eb59000000000000000000000000000000000000000000000089687b4a9da1bbac64",
            "debugEnable": true,
            "errorInfo": "",
            "eventCount": 1,
            "feeRecipient": "0xeea5b82b61424df8020f5fedd81767f2d0d25bfb",
            "formatValue": "0",
            "gasLimit": 51955,
            "gasPrice": "26.064292331",
            "gasUsed": 29837,
            "intTxnCount": 0,
            "internalRevert": false,
            "internalRevertMessage": "",
            "isContractCreation": false,
            "isFlashloan": false,
            "maxFee": "36.836900422",
            "nonce": 298,
            "overwritedBlockNumber": -1,
            "priorityFee": "2",
            "receiver": "0x4e3fbd56cd56c3e72c1403e103b45db9da5b9d2b",
            "revertMessage": "",
            "sender": "0x6ae3ee8a37b6319a18f67e6492bd85ec1db2e93b",
            "simulationEnable": true,
            "sourceTxnHash": "0xab3171c210924bb74f45c684f8d48d81f05fcf2a06fc1a7854076d2eebfa6cd2",
            "status": true,
            "timestamp": "2022-03-10T09:00:46Z",
            "transactionFee": "0.000777680290280047",
            "txnHash": "0xab3171c210924bb74f45c684f8d48d81f05fcf2a06fc1a7854076d2eebfa6cd2",
            "txnIndex": 65,
            "type": 2,
            "value": "0"
        },
        "fund_flow": [
            {
                "amount": "2,534.73263134117223946",
                "from": "0x6ae3ee8a37b6319a18f67e6492bd85ec1db2e93b",
                "id": 1,
                "isERC1155": false,
                "isERC721": false,
                "isReverted": false,
                "order": 1,
                "to": "0xa41d3149fa255122acf9b004ee318cbfe369eb59",
                "token": "0x4e3fbd56cd56c3e72c1403e103b45db9da5b9d2b"
            }
        ],
        "token_infos": [
            {
                "address": "0x4e3fbd56cd56c3e72c1403e103b45db9da5b9d2b",
                "decimals": 18
            },
            {
                "address": "0xc02aaa39b223fe8d0a0e5c4f27ead9083c756cc2",
                "decimals": 18
            },
            {
                "address": "0xeeeeeeeeeeeeeeeeeeeeeeeeeeeeeeeeeeeeeeee",
                "decimals": 18
            }
        ]
    },
    "address_label": {
        "labels": [
            {
                "address": "0x0000000000000000000000000000000000000001",
                "label": "Precompiled"
            },
            {
                "address": "0x0000000000000000000000000000000000000002",
                "label": "Precompiled"
            },
            {
                "address": "0x0000000000000000000000000000000000000003",
                "label": "Precompiled"
            },
            {
                "address": "0x0000000000000000000000000000000000000004",
                "label": "Precompiled"
            },
            {
                "address": "0xeeeeeeeeeeeeeeeeeeeeeeeeeeeeeeeeeeeeeeee",
                "label": "Ether"
            },
            {
                "address": "0xa41d3149fa255122acf9b004ee318cbfe369eb59",
                "label": "BINANCE"
            },
            {
                "address": "0x4e3fbd56cd56c3e72c1403e103b45db9da5b9d2b",
                "label": "Convex Finance: CVX Token"
            }
        ]
    },
    "trace": {
        "accountLabels": null,
        "dataMap": {
            "-1": {
                "invocation": {
                    "address": "0x6ae3ee8a37b6319a18f67e6492bd85ec1db2e93b",
                    "callData": "",
                    "decodedMethod": null,
                    "errorInfo": "",
                    "fromAddress": "",
                    "gasUsed": 0,
                    "id": -1,
                    "methodDecoded": false,
                    "operation": "",
                    "output": "",
                    "revert": false,
                    "revertMessage": "",
                    "selector": "",
                    "status": false,
                    "value": ""
                },
                "nodeType": 0
            },
            "0": {
                "invocation": {
                    "address": "0x4e3fbd56cd56c3e72c1403e103b45db9da5b9d2b",
                    "callData": "0x000000000000000000000000a41d3149fa255122acf9b004ee318cbfe369eb59000000000000000000000000000000000000000000000089687b4a9da1bbac64",
                    "decodedMethod": {
                        "callParams": [
                            {
                                "name": "recipient",
                                "type": "address",
                                "value": "0xa41d3149fa255122acf9b004ee318cbfe369eb59"
                            },
                            {
                                "decimalAvailable": true,
                                "name": "amount",
                                "type": "uint256",
                                "value": "2,534,732,631,341,172,239,460"
                            }
                        ],
                        "constructorArguments": "",
                        "name": "transfer",
                        "returnParams": [
                            {
                                "name": "",
                                "type": "bool",
                                "value": true
                            }
                        ],
                        "signature": "transfer(address,uint256)"
                    },
                    "errorInfo": "",
                    "fromAddress": "0x6ae3ee8a37b6319a18f67e6492bd85ec1db2e93b",
                    "gasUsed": 29837,
                    "id": 0,
                    "methodDecoded": true,
                    "operation": "CALL",
                    "output": "0x0000000000000000000000000000000000000000000000000000000000000001",
                    "revert": false,
                    "revertMessage": "",
                    "selector": "0xa9059cbb",
                    "status": true,
                    "value": "0"
                },
                "nodeType": 0
            },
            "1": {
                "event": {
                    "contract": "0x4e3fbd56cd56c3e72c1403e103b45db9da5b9d2b",
                    "decodedLog": {
                        "name": "Transfer",
                        "params": [
                            {
                                "name": "from",
                                "type": "address",
                                "value": "0x6ae3ee8a37b6319a18f67e6492bd85ec1db2e93b"
                            },
                            {
                                "name": "to",
                                "type": "address",
                                "value": "0xa41d3149fa255122acf9b004ee318cbfe369eb59"
                            },
                            {
                                "decimalAvailable": true,
                                "name": "value",
                                "type": "uint256",
                                "value": "2,534,732,631,341,172,239,460"
                            }
                        ],
                        "signature": "Transfer(address,address,uint256)"
                    },
                    "id": 1,
                    "logData": "0x000000000000000000000000000000000000000000000089687b4a9da1bbac64",
                    "logDecoded": true,
                    "operation": "EVENT",
                    "revert": false,
                    "status": true,
                    "topics": [
                        "0xddf252ad1be2c89b69c2b068fc378daa952ba7f163c4a11628f55a4df523b3ef",
                        "0x0000000000000000000000006ae3ee8a37b6319a18f67e6492bd85ec1db2e93b",
                        "0x000000000000000000000000a41d3149fa255122acf9b004ee318cbfe369eb59"
                    ]
                },
                "nodeType": 1
            }
        },
        "gasFlame": [
            {
                "children": [
                    {
                        "children": [
                            {
                                "children": [],
                                "depth": 0,
                                "name": "Initial Gas",
                                "value": 21668
                            },
                            {
                                "children": [],
                                "depth": 0,
                                "name": "Executed Gas",
                                "value": 12969
                            }
                        ],
                        "depth": -1,
                        "name": "Actual Gas Used",
                        "value": 29837
                    },
                    {
                        "children": [],
                        "depth": -1,
                        "name": "Refunded Gas",
                        "value": 4800
                    }
                ],
                "depth": -2,
                "name": "Total Gas",
                "value": 34637
            }
        ],
        "isConfirmed": true,
        "mainTrace": [
            {
                "children": [
                    {
                        "children": [
                            {
                                "children": [],
                                "depth": 1,
                                "id": 1,
                                "order": 1
                            }
                        ],
                        "depth": 0,
                        "id": 0,
                        "order": 0
                    }
                ],
                "depth": -1,
                "id": -1,
                "order": -1
            }
        ],
        "mainTraceNodeCount": 2,
        "parentIdMap": {
            "0": -1,
            "1": 0
        },
        "tidyTrace": [
            {
                "children": [
                    {
                        "children": [
                            {
                                "children": [],
                                "depth": 1,
                                "id": 1,
                                "order": 1
                            }
                        ],
                        "depth": 0,
                        "id": 0,
                        "order": 0
                    }
                ],
                "depth": -1,
                "id": -1,
                "order": -1
            }
        ],
        "tidyTraceNodeCount": 2
    },
    "state_change": {
        "stateChanges": [
            {
                "address": "0x4e3fbd56cd56c3e72c1403e103b45db9da5b9d2b",
                "erc": "ERC-20",
                "slots": [
                    {
                        "current": "0x0000000000000000000000000000000000000000000000000000000000000000",
                        "key": "0x5eafcabb441c626c08cda9a1a3a1be3ab4a08f4ad0baab196a38c1ada1799746",
                        "prev": "0x000000000000000000000000000000000000000000000089687b4a9da1bbac64"
                    },
                    {
                        "current": "0x00000000000000000000000000000000000000000000019ba90560a2a0f1dad8",
                        "key": "0x0dac9ac6e36af014c80fee275106589c4759cf766e7a5e9f8d4a13d6156c70c5",
                        "prev": "0x000000000000000000000000000000000000000000000112408a1604ff362e74"
                    }
                ],
                "storageVariables": [
                    {
                        "name": "_balances",
                        "type": "mapping(address => uint256)",
                        "value": {
                            "pairs": [
                                {
                                    "key": "0x6ae3ee8a37b6319a18f67e6492bd85ec1db2e93b",
                                    "value": {
                                        "current": "0",
                                        "prev": "2534732631341172239460",
                                        "typeTag": 1
                                    }
                                },
                                {
                                    "key": "0xa41d3149fa255122acf9b004ee318cbfe369eb59",
                                    "value": {
                                        "current": "7593791061313520261848",
                                        "prev": "5059058429972348022388",
                                        "typeTag": 1
                                    }
                                }
                            ],
                            "typeTag": 4
                        }
                    }
                ]
            }
        ]
    }
}