{
    "balance_change": {
        "balanceChanges": [
            {
                "account": "0x151080c4e94180cc60c6860ad1c94547623e6d84",
                "assets": [
                    {
                        "address": "0x8e870d67f660d95d5be530380d0ec0bd388289e1",
                        "amount": "10",
                        "iconUrl": "https://assets.blocksec.com/icon/df4a16322c8ca2faeeb21a6d029f24de2efeb58e57edadd9ecbfa6a35afa986d.png",
                        "isERC1155": false,
                        "isERC721": false,
                        "sign": false,
                        "value": ""
                    }
                ]
            },
            {
                "account": "0xf9ca865feb7bf35871d0901a3a304ed1a40985c4",
                "assets": [
                    {
                        "address": "0x8e870d67f660d95d5be530380d0ec0bd388289e1",
                        "amount": "10",
                        "iconUrl": "https://assets.blocksec.com/icon/df4a16322c8ca2faeeb21a6d029f24de2efeb58e57edadd9ecbfa6a35afa986d.png",
                        "isERC1155": false,
                        "isERC721": false,
                        "sign": true,
                        "value": ""
                    }
                ]
            }
        ]
    },
    "profile": {
        "basic_info": {
            "baseFee": "",
            "blockNumber": 9618514,
            "callData": "0xa9059cbb000000000000000000000000f9ca865feb7bf35871d0901a3a304ed1a40985c40000000000000000000000000000000000000000000000008ac7230489e80000",
            "debugEnable": true,
            "errorInfo": "",
            "eventCount": 1,
            "feeRecipient": "0x52bc44d5378309ee2abf1539bf71de1b7d7be3b5",
            "formatValue": "0",
            "gasLimit": 74627,
            "gasPrice": "8.8",
            "gasUsed": 43133,
            "intTxnCount": 1,
            "internalRevert": false,
            "internalRevertMessage": "",
            "isContractCreation": false,
            "isFlashloan": false,
            "maxFee": "",
            "nonce": 9,
            "overwritedBlockNumber": -1,
            "priorityFee": "",
            "receiver": "0x8e870d67f660d95d5be530380d0ec0bd388289e1",
            "revertMessage": "",
            "sender": "0x151080c4e94180cc60c6860ad1c94547623e6d84",
            "simulationEnable": true,
            "sourceTxnHash": "0xabffd6e5fd704b6ae111a605a8e1d6919b172ee4c1d51b9eccce6edb7ffdc0cf",
            "status": true,
            "timestamp": "2020-03-06T15:34:00Z",
            "transactionFee": "0.0003795704",
            "txnHash": "0xabffd6e5fd704b6ae111a605a8e1d6919b172ee4c1d51b9eccce6edb7ffdc0cf",
            "txnIndex": 13,
            "type": 0,
            "value": "0"
        },
        "fund_flow": [
            {
                "amount": "10",
                "from": "0x151080c4e94180cc60c6860ad1c94547623e6d84",
                "id": 1,
                "isERC1155": false,
                "isERC721": false,
                "isReverted": false,
                "order": 1,
                "to": "0xf9ca865feb7bf35871d0901a3a304ed1a40985c4",
                "token": "0x8e870d67f660d95d5be530380d0ec0bd388289e1"
            }
        ],
        "token_infos": [
            {
                "address": "0xeeeeeeeeeeeeeeeeeeeeeeeeeeeeeeeeeeeeeeee",
                "decimals": 18
            },
            {
                "address": "0x8e870d67f660d95d5be530380d0ec0bd388289e1",
                "decimals": 18
            },
            {
                "address": "0xc02aaa39b223fe8d0a0e5c4f27ead9083c756cc2",
                "decimals": 18
            }
        ]
    },
    "address_label": {
        "labels": [
            {
                "address": "0x0000000000000000000000000000000000000004",
                "label": "Precompiled"
            },
            {
                "address": "0xeeeeeeeeeeeeeeeeeeeeeeeeeeeeeeeeeeeeeeee",
                "label": "Ether"
            },
            {
                "address": "0x8e870d67f660d95d5be530380d0ec0bd388289e1",
                "label": "Paxos: USDP Token"
            },
            {
                "address": "0x86eee0422322710866af89e9cae3f7383d55310a",
                "label": "Paxos Standard (PAX)"
            },
            {
                "address": "0x0000000000000000000000000000000000000001",
                "label": "Precompiled"
            },
            {
                "address": "0x0000000000000000000000000000000000000002",
                "label": "Precompiled"
            },
            {
                "address": "0x0000000000000000000000000000000000000003",
                "label": "Precompiled"
            }
        ]
    },
    "trace": {
        "accountLabels": null,
        "dataMap": {
            "-1": {
                "invocation": {
                    "address": "0x151080c4e94180cc60c6860ad1c94547623e6d84",
                    "callData": "",
                    "decodedMethod": null,
                    "errorInfo": "",
                    "fromAddress": "",
                    "gasUsed": 0,
                    "id": -1,
                    "methodDecoded": false,
                    "operation": "",
                    "output": "",
                    "revert": false,
                    "revertMessage": "",
                    "selector": "",
                    "status": false,
                    "value": ""
                },
                "nodeType": 0
            },
            "0": {
                "invocation": {
                    "address": "0x8e870d67f660d95d5be530380d0ec0bd388289e1",
                    "callData": "0x000000000000000000000000f9ca865feb7bf35871d0901a3a304ed1a40985c40000000000000000000000000000000000000000000000008ac7230489e80000",
                    "decodedMethod": {
                        "callParams": [
                            {
                                "name": "_to",
                                "type": "address",
                                "value": "0xf9ca865feb7bf35871d0901a3a304ed1a40985c4"
                            },
                            {
                                "decimalAvailable": true,
                                "name": "_value",
                                "type": "uint256",
                                "value": "10,000,000,000,000,000,000"
                            }
                        ],
                        "constructorArguments": "",
                        "name": "transfer",
                        "returnParams": [
                            {
                                "name": "",
                                "type": "bool",
                                "value": true
                            }
                        ],
                        "signature": "transfer(address,uint256)"
                    },
                    "errorInfo": "",
                    "fromAddress": "0x151080c4e94180cc60c6860ad1c94547623e6d84",
                    "gasUsed": 43133,
                    "id": 0,
                    "methodDecoded": true,
                    "operation": "CALL",
                    "output": "0x0000000000000000000000000000000000000000000000000000000000000001",
                    "revert": false,
                    "revertMessage": "",
                    "selector": "0xa9059cbb",
                    "status": true,
                    "value": "0"
                },
                "nodeType": 0
            },
            "1": {
                "invocation": {
                    "address": "0x86eee0422322710866af89e9cae3f7383d55310a",
                    "callData": "0x000000000000000000000000f9ca865feb7bf35871d0901a3a304ed1a40985c40000000000000000000000000000000000000000000000008ac7230489e80000",
                    "decodedMethod": {
                        "callParams": [
                            {
                                "name": "_to",
                                "type": "address",
                                "value": "0xf9ca865feb7bf35871d0901a3a304ed1a40985c4"
                            },
                            {
                                "decimalAvailable": true,
                                "name": "_value",
                                "type": "uint256",
                                "value": "10,000,000,000,000,000,000"
                            }
                        ],
                        "constructorArguments": "",
                        "name": "transfer",
                        "returnParams": [
                            {
                                "name": "",
                                "type": "bool",
                                "value": true
                            }
                        ],
                        "signature": "transfer(address,uint256)"
                    },
                    "errorInfo": "",
                    "fromAddress": "0x8e870d67f660d95d5be530380d0ec0bd388289e1",
                    "gasUsed": 33719,
                    "id": 1,
                    "methodDecoded": true,
                    "operation": "DELEGATECALL",
                    "output": "0x0000000000000000000000000000000000000000000000000000000000000001",
                    "revert": false,
                    "revertMessage": "",
                    "selector": "0xa9059cbb",
                    "status": true,
                    "value": "0"
                },
                "nodeType": 0
            },
            "2": {
                "event": {
                    "contract": "0x8e870d67f660d95d5be530380d0ec0bd388289e1",
                    "decodedLog": {
                        "name": "Transfer",
                        "params": [
                            {
                                "name": "from",
                                "type": "address",
                                "value": "0x151080c4e94180cc60c6860ad1c94547623e6d84"
                            },
                            {
                                "name": "to",
                                "type": "address",
                                "value": "0xf9ca865feb7bf35871d0901a3a304ed1a40985c4"
                            },
                            {
                                "decimalAvailable": true,
                                "name": "value",
                                "type": "uint256",
                                "value": "10,000,000,000,000,000,000"
                            }
                        ],
                        "signature": "Transfer(address,address,uint256)"
                    },
                    "id": 2,
                    "logData": "0x0000000000000000000000000000000000000000000000008ac7230489e80000",
                    "logDecoded": true,
                    "operation": "EVENT",
                    "revert": false,
                    "status": true,
                    "topics": [
                        "0xddf252ad1be2c89b69c2b068fc378daa952ba7f163c4a11628f55a4df523b3ef",
                        "0x000000000000000000000000151080c4e94180cc60c6860ad1c94547623e6d84",
                        "0x000000000000000000000000f9ca865feb7bf35871d0901a3a304ed1a40985c4"
                    ]
                },
                "nodeType": 1
            }
        },
        "gasFlame": [
            {
                "children": [
                    {
                        "children": [
                            {
                                "children": [],
                                "depth": 0,
                                "name": "Initial Gas",
                                "value": 21632
                            },
                            {
                                "children": [
                                    {
                                        "children": [],
                                        "depth": 1,
                                        "name": "transfer",
                                        "value": 33719
                                    }
                                ],
                                "depth": 0,
                                "name": "Executed Gas",
                                "value": 36501
                            }
                        ],
                        "depth": -1,
                        "name": "Actual Gas Used",
                        "value": 43133
                    },
                    {
                        "children": [],
                        "depth": -1,
                        "name": "Refunded Gas",
                        "value": 15000
                    }
                ],
                "depth": -2,
                "name": "Total Gas",
                "value": 58133
            }
        ],
        "isConfirmed": true,
        "mainTrace": [
            {
                "children": [
                    {
                        "children": [
                            {
                                "children": [
                                    {
                                        "children": [],
                                        "depth": 2,
                                        "id": 2,
                                        "order": 2
                                    }
                                ],
                                "depth": 1,
                                "id": 1,
                                "order": 1
                            }
                        ],
                        "depth": 0,
                        "id": 0,
                        "order": 0
                    }
                ],
                "depth": -1,
                "id": -1,
                "order": -1
            }
        ],
        "mainTraceNodeCount": 3,
        "parentIdMap": {
            "0": -1,
            "1": 0,
            "2": 1
        },
        "tidyTrace": [
            {
                "children": [
                    {
                        "children": [
                            {
                                "children": [
                                    {
                                        "children": [],
                                        "depth": 2,
                                        "id": 2,
                                        "order": 2
                                    }
                                ],
                                "depth": 1,
                                "id": 1,
                                "order": 1
                            }
                        ],
                        "depth": 0,
                        "id": 0,
                        "order": 0
                    }
                ],
                "depth": -1,
                "id": -1,
                "order": -1
            }
        ],
        "tidyTraceNodeCount": 3
    },
    "state_change": {
        "stateChanges": [
            {
                "address": "0x8e870d67f660d95d5be530380d0ec0bd388289e1",
                "erc": "ERC-20",
                "slots": [
                    {
                        "current": "0x0000000000000000000000000000000000000000000000000000000000000000",
                        "key": "0x8e201e65846762070136954abc38bd1d029b0b88340eb272434672ba7f3fb982",
                        "prev": "0x0000000000000000000000000000000000000000000000008ac7230489e80000"
                    },
                    {
                        "current": "0x0000000000000000000000000000000000000000000000008ac7230489e80000",
                        "key": "0xd2b959da4fb998c92883b1ab330107c11a00e7996cf4355c4176f63942e43943",
                        "prev": "0x0000000000000000000000000000000000000000000000000000000000000000"
                    }
                ],
                "storageVariables": [
                    {
                        "name": "balances",
                        "type": "mapping(address => uint256)",
                        "value": {
                            "pairs": [
                                {
                                    "key": "0x151080c4e94180cc60c6860ad1c94547623e6d84",
                                    "value": {
                                        "current": "0",
                                        "prev": "10000000000000000000",
                                        "typeTag": 1
                                    }
                                },
                                {
                                    "key": "0xf9ca865feb7bf35871d0901a3a304ed1a40985c4",
                                    "value": {
                                        "current": "10000000000000000000",
                                        "prev": "0",
                                        "typeTag": 1
                                    }
                                }
                            ],
                            "typeTag": 4
                        }
                    }
                ]
            }
        ]
    }
}