{
    "balance_change": {
        "balanceChanges": []
    },
    "profile": {
        "basic_info": {
            "baseFee": "",
            "blockNumber": 4667163,
            "callData": "0x278b8c0e000000000000000000000000ab16e0d25c06cb376259cc18c1de4aca576055890000000000000000000000000000000000000000000000000000002098a6780000000000000000000000000000000000000000000000000000000000000000000000000000000000000000000000000000000000000000000d67ebe1c5070000000000000000000000000000000000000000000000000000000000000053cbc700000000000000000000000000000000000000000000000000000000e0495181000000000000000000000000000000000000000000000000000000000000001b4c24febc128fcc93f30b1aa8c82e362b41e255993b35fa3e369a8d2eed49672a0d6e594935bf3e6fe77bb3fef1fc5c13b27ce689dc23abcb9d9ddbbcd427627b",
            "debugEnable": true,
            "errorInfo": "",
            "eventCount": 1,
            "feeRecipient": "0x5a0b54d5dc17e0aadc383d2db43b0a0d3e029c4c",
            "formatValue": "0",
            "gasLimit": 250000,
            "gasPrice": "15",
            "gasUsed": 59098,
            "intTxnCount": 2,
            "internalRevert": false,
            "internalRevertMessage": "",
            "isContractCreation": false,
            "isFlashloan": false,
            "maxFee": "",
            "nonce": 1697,
            "overwritedBlockNumber": -1,
            "priorityFee": "",
            "receiver": "0x8d12a197cb00d4747a1fe03395095ce2a5cc6819",
            "revertMessage": "",
            "sender": "0x88650fdbfbb5c7933eb52008c4387050b963747d",
            "simulationEnable": true,
            "sourceTxnHash": "0xab3bb2da8230acf02ee3afca7aa22208d87ffe43ae7f0e616c7243dd23a9fc2a",
            "status": true,
            "timestamp": "2017-12-03T08:15:18Z",
            "transactionFee": "0.00088647",
            "txnHash": "0xab3bb2da8230acf02ee3afca7aa22208d87ffe43ae7f0e616c7243dd23a9fc2a",
            "txnIndex": 105,
            "type": 0,
            "value": "0"
        },
        "fund_flow": [],
        "token_infos": [
            {
                "address": "0xc02aaa39b223fe8d0a0e5c4f27ead9083c756cc2",
                "decimals": 18
            },
            {
                "address": "0xeeeeeeeeeeeeeeeeeeeeeeeeeeeeeeeeeeeeeeee",
                "decimals": 18
            }
        ]
    },
    "address_label": {
        "labels": [
            {
                "address": "0x8d12a197cb00d4747a1fe03395095ce2a5cc6819",
                "label": "EtherDelta"
            },
            {
                "address": "0x0000000000000000000000000000000000000002",
                "label": "Precompiled"
            },
            {
                "address": "0xab16e0d25c06cb376259cc18c1de4aca57605589",
                "label": "FUCK: Old Token"
            },
            {
                "address": "0x0000000000000000000000000000000000000000",
                "label": "Null Address"
            },
            {
                "address": "0x0000000000000000000000000000000000000001",
                "label": "Precompiled"
            },
            {
                "address": "0x0000000000000000000000000000000000000003",
                "label": "Precompiled"
            },
            {
                "address": "0x0000000000000000000000000000000000000004",
                "label": "Precompiled"
            },
            {
                "address": "0xeeeeeeeeeeeeeeeeeeeeeeeeeeeeeeeeeeeeeeee",
                "label": "Ether"
            }
        ]
    },
    "trace": {
        "accountLabels": null,
        "dataMap": {
            "-1": {
                "invocation": {
                    "address": "0x88650fdbfbb5c7933eb52008c4387050b963747d",
                    "callData": "",
                    "decodedMethod": null,
                    "errorInfo": "",
                    "fromAddress": "",
                    "gasUsed": 0,
                    "id": -1,
                    "methodDecoded": false,
                    "operation": "",
                    "output": "",
                    "revert": false,
                    "revertMessage": "",
                    "selector": "",
                    "status": false,
                    "value": ""
                },
                "nodeType": 0
            },
            "0": {
                "invocation": {
                    "address": "0x8d12a197cb00d4747a1fe03395095ce2a5cc6819",
                    "callData": "0x000000000000000000000000ab16e0d25c06cb376259cc18c1de4aca576055890000000000000000000000000000000000000000000000000000002098a6780000000000000000000000000000000000000000000000000000000000000000000000000000000000000000000000000000000000000000000d67ebe1c5070000000000000000000000000000000000000000000000000000000000000053cbc700000000000000000000000000000000000000000000000000000000e0495181000000000000000000000000000000000000000000000000000000000000001b4c24febc128fcc93f30b1aa8c82e362b41e255993b35fa3e369a8d2eed49672a0d6e594935bf3e6fe77bb3fef1fc5c13b27ce689dc23abcb9d9ddbbcd427627b",
                    "decodedMethod": {
                        "callParams": [
                            {
                                "name": "tokenGet",
                                "type": "address",
                                "value": "0xab16e0d25c06cb376259cc18c1de4aca57605589"
                            },
                            {
                                "name": "amountGet",
                                "type": "uint256",
                                "value": "140,000,000,000"
                            },
                            {
                                "name": "tokenGive",
                                "type": "address",
                                "value": "0x0000000000000000000000000000000000000000"
                            },
                            {
                                "name": "amountGive",
                                "type": "uint256",
                                "value": "966,000,000,000,000,000"
                            },
                            {
                                "name": "expires",
                                "type": "uint256",
                                "value": "5,491,655"
                            },
                            {
                                "name": "nonce",
                                "type": "uint256",
                                "value": "3,762,901,377"
                            },
                            {
                                "name": "v",
                                "type": "uint8",
                                "value": "27"
                            },
                            {
                                "name": "r",
                                "type": "bytes32",
                                "value": "0x4c24febc128fcc93f30b1aa8c82e362b41e255993b35fa3e369a8d2eed49672a"
                            },
                            {
                                "name": "s",
                                "type": "bytes32",
                                "value": "0x0d6e594935bf3e6fe77bb3fef1fc5c13b27ce689dc23abcb9d9ddbbcd427627b"
                            }
                        ],
                        "constructorArguments": "",
                        "name": "cancelOrder",
                        "returnParams": [],
                        "signature": "cancelOrder(address,uint256,address,uint256,uint256,uint256,uint8,bytes32,bytes32)"
                    },
                    "errorInfo": "",
                    "fromAddress": "0x88650fdbfbb5c7933eb52008c4387050b963747d",
                    "gasUsed": 59098,
                    "id": 0,
                    "methodDecoded": true,
                    "operation": "CALL",
                    "output": "",
                    "revert": false,
                    "revertMessage": "",
                    "selector": "0x278b8c0e",
                    "status": true,
                    "value": "0"
                },
                "nodeType": 0
            },
            "1": {
                "invocation": {
                    "address": "0x0000000000000000000000000000000000000002",
                    "callData": "0xcb00d4747a1fe03395095ce2a5cc6819ab16e0d25c06cb376259cc18c1de4aca576055890000000000000000000000000000000000000000000000000000002098a6780000000000000000000000000000000000000000000000000000000000000000000000000000000000000000000d67ebe1c5070000000000000000000000000000000000000000000000000000000000000053cbc700000000000000000000000000000000000000000000000000000000e0495181",
                    "decodedMethod": {
                        "callParams": [
                            {
                                "name": "data",
                                "type": "bytes",
                                "value": "0x8d12a197cb00d4747a1fe03395095ce2a5cc6819ab16e0d25c06cb376259cc18c1de4aca576055890000000000000000000000000000000000000000000000000000002098a6780000000000000000000000000000000000000000000000000000000000000000000000000000000000000000000d67ebe1c5070000000000000000000000000000000000000000000000000000000000000053cbc700000000000000000000000000000000000000000000000000000000e0495181"
                            }
                        ],
                        "constructorArguments": "",
                        "name": "sha256hash",
                        "returnParams": [
                            {
                                "name": "hash",
                                "type": "bytes32",
                                "value": "0x5110e0f18345556b9531660460374a03e955ae0fdde7599777b5cd2b486b932b"
                            }
                        ],
                        "signature": "sha256hash(bytes)"
                    },
                    "errorInfo": "",
                    "fromAddress": "0x8d12a197cb00d4747a1fe03395095ce2a5cc6819",
                    "gasUsed": 132,
                    "id": 1,
                    "methodDecoded": true,
                    "operation": "CALL",
                    "output": "0x5110e0f18345556b9531660460374a03e955ae0fdde7599777b5cd2b486b932b",
                    "revert": false,
                    "revertMessage": "",
                    "selector": "0x8d12a197",
                    "status": true,
                    "value": "0"
                },
                "nodeType": 0
            },
            "2": {
                "invocation": {
                    "address": "0x0000000000000000000000000000000000000001",
                    "callData": "0xfcb061f1e90c68cf64e7346b2d2e9cdf8660018fef5a96e4e96c0196000000000000000000000000000000000000000000000000000000000000001b4c24febc128fcc93f30b1aa8c82e362b41e255993b35fa3e369a8d2eed49672a0d6e594935bf3e6fe77bb3fef1fc5c13b27ce689dc23abcb9d9ddbbcd427627b",
                    "decodedMethod": {
                        "callParams": [
                            {
                                "name": "hash",
                                "type": "bytes32",
                                "value": "0xa6d32059fcb061f1e90c68cf64e7346b2d2e9cdf8660018fef5a96e4e96c0196"
                            },
                            {
                                "name": "v",
                                "type": "uint256",
                                "value": "27"
                            },
                            {
                                "name": "r",
                                "type": "bytes32",
                                "value": "0x4c24febc128fcc93f30b1aa8c82e362b41e255993b35fa3e369a8d2eed49672a"
                            },
                            {
                                "name": "s",
                                "type": "bytes32",
                                "value": "0x0d6e594935bf3e6fe77bb3fef1fc5c13b27ce689dc23abcb9d9ddbbcd427627b"
                            }
                        ],
                        "constructorArguments": "",
                        "name": "ecrecover",
                        "returnParams": [
                            {
                                "name": "",
                                "type": "address",
                                "value": "0x88650fdbfbb5c7933eb52008c4387050b963747d"
                            }
                        ],
                        "signature": "ecrecover(bytes32,uint256,bytes32,bytes32)"
                    },
                    "errorInfo": "",
                    "fromAddress": "0x8d12a197cb00d4747a1fe03395095ce2a5cc6819",
                    "gasUsed": 3000,
                    "id": 2,
                    "methodDecoded": true,
                    "operation": "CALL",
                    "output": "0x00000000000000000000000088650fdbfbb5c7933eb52008c4387050b963747d",
                    "revert": false,
                    "revertMessage": "",
                    "selector": "0xa6d32059",
                    "status": true,
                    "value": "0"
                },
                "nodeType": 0
            },
            "3": {
                "event": {
                    "contract": "0x8d12a197cb00d4747a1fe03395095ce2a5cc6819",
                    "decodedLog": {
                        "name": "Cancel",
                        "params": [
                            {
                                "name": "tokenGet",
                                "type": "address",
                                "value": "0xab16e0d25c06cb376259cc18c1de4aca57605589"
                            },
                            {
                                "name": "amountGet",
                                "type": "uint256",
                                "value": "140,000,000,000"
                            },
                            {
                                "name": "tokenGive",
                                "type": "address",
                                "value": "0x0000000000000000000000000000000000000000"
                            },
                            {
                                "name": "amountGive",
                                "type": "uint256",
                                "value": "966,000,000,000,000,000"
                            },
                            {
                                "name": "expires",
                                "type": "uint256",
                                "value": "5,491,655"
                            },
                            {
                                "name": "nonce",
                                "type": "uint256",
                                "value": "3,762,901,377"
                            },
                            {
                                "name": "user",
                                "type": "address",
                                "value": "0x88650fdbfbb5c7933eb52008c4387050b963747d"
                            },
                            {
                                "name": "v",
                                "type": "uint8",
                                "value": "27"
                            },
                            {
                                "name": "r",
                                "type": "bytes32",
                                "value": "0x4c24febc128fcc93f30b1aa8c82e362b41e255993b35fa3e369a8d2eed49672a"
                            },
                            {
                                "name": "s",
                                "type": "bytes32",
                                "value": "0x0d6e594935bf3e6fe77bb3fef1fc5c13b27ce689dc23abcb9d9ddbbcd427627b"
                            }
                        ],
                        "signature": "Cancel(address,uint256,address,uint256,uint256,uint256,address,uint8,bytes32,bytes32)"
                    },
                    "id": 3,
                    "logData": "0x000000000000000000000000ab16e0d25c06cb376259cc18c1de4aca576055890000000000000000000000000000000000000000000000000000002098a6780000000000000000000000000000000000000000000000000000000000000000000000000000000000000000000000000000000000000000000d67ebe1c5070000000000000000000000000000000000000000000000000000000000000053cbc700000000000000000000000000000000000000000000000000000000e049518100000000000000000000000088650fdbfbb5c7933eb52008c4387050b963747d000000000000000000000000000000000000000000000000000000000000001b4c24febc128fcc93f30b1aa8c82e362b41e255993b35fa3e369a8d2eed49672a0d6e594935bf3e6fe77bb3fef1fc5c13b27ce689dc23abcb9d9ddbbcd427627b",
                    "logDecoded": true,
                    "operation": "EVENT",
                    "revert": false,
                    "status": true,
                    "topics": [
                        "0x1e0b760c386003e9cb9bcf4fcf3997886042859d9b6ed6320e804597fcdb28b0"
                    ]
                },
                "nodeType": 1
            }
        },
        "gasFlame": [
            {
                "children": [
                    {
                        "children": [
                            {
                                "children": [],
                                "depth": 0,
                                "name": "Initial Gas",
                                "value": 28952
                            },
                            {
                                "children": [
                                    {
                                        "children": [],
                                        "depth": 1,
                                        "name": "sha256hash",
                                        "value": 132
                                    },
                                    {
                                        "children": [],
                                        "depth": 1,
                                        "name": "ecrecover",
                                        "value": 3000
                                    }
                                ],
                                "depth": 0,
                                "name": "Executed Gas",
                                "value": 30146
                            }
                        ],
                        "depth": -1,
                        "name": "Actual Gas Used",
                        "value": 59098
                    },
                    {
                        "children": [],
                        "depth": -1,
                        "name": "Refunded Gas",
                        "value": 0
                    }
                ],
                "depth": -2,
                "name": "Total Gas",
                "value": 59098
            }
        ],
        "isConfirmed": true,
        "mainTrace": [
            {
                "children": [
                    {
                        "children": [
                            {
                                "children": [],
                                "depth": 1,
                                "id": 1,
                                "order": 1
                            },
                            {
                                "children": [],
                                "depth": 1,
                                "id": 2,
                                "order": 2
                            },
                            {
                                "children": [],
                                "depth": 1,
                                "id": 3,
                                "order": 3
                            }
                        ],
                        "depth": 0,
                        "id": 0,
                        "order": 0
                    }
                ],
                "depth": -1,
                "id": -1,
                "order": -1
            }
        ],
        "mainTraceNodeCount": 4,
        "parentIdMap": {
            "0": -1,
            "1": 0,
            "2": 0,
            "3": 0
        },
        "tidyTrace": [
            {
                "children": [
                    {
                        "children": [
                            {
                                "children": [],
                                "depth": 1,
                                "id": 1,
                                "order": 1
                            },
                            {
                                "children": [],
                                "depth": 1,
                                "id": 2,
                                "order": 2
                            },
                            {
                                "children": [],
                                "depth": 1,
                                "id": 3,
                                "order": 3
                            }
                        ],
                        "depth": 0,
                        "id": 0,
                        "order": 0
                    }
                ],
                "depth": -1,
                "id": -1,
                "order": -1
            }
        ],
        "tidyTraceNodeCount": 4
    },
    "state_change": {
        "stateChanges": [
            {
                "address": "0x8d12a197cb00d4747a1fe03395095ce2a5cc6819",
                "erc": "",
                "slots": [
                    {
                        "current": "0x0000000000000000000000000000000000000000000000000000002098a67800",
                        "key": "0x7496c79e3c34c357931b0bdc07e73c87f8d81275267df419c147828bede0d9a7",
                        "prev": "0x0000000000000000000000000000000000000000000000000000000000000000"
                    }
                ],
                "storageVariables": []
            }
        ]
    }
}