{
    "balance_change": {
        "balanceChanges": [
            {
                "account": "0x0000000000000000000000000000000000000000",
                "assets": [
                    {
                        "address": "0x0e3a2a1f2146d86a604adc220b4967a898d7fe07",
                        "amount": "1",
                        "iconUrl": "",
                        "isERC1155": false,
                        "isERC721": true,
                        "sign": false,
                        "tokenID": "182907459",
                        "value": ""
                    }
                ]
            },
            {
                "account": "0x533e700f254543f64f0420302b3c939db39b6ad7",
                "assets": [
                    {
                        "address": "0x0e3a2a1f2146d86a604adc220b4967a898d7fe07",
                        "amount": "1",
                        "iconUrl": "",
                        "isERC1155": false,
                        "isERC721": true,
                        "sign": true,
                        "tokenID": "182907459",
                        "value": ""
                    }
                ]
            }
        ]
    },
    "profile": {
        "basic_info": {
            "baseFee": "",
            "blockNumber": 9745167,
            "callData": "0xe3f354b200000000000000000000000000000000000000000000000000000000000004430000000000000000000000000000000000000000000000000000000000000004000000000000000000000000533e700f254543f64f0420302b3c939db39b6ad700000000000000000000000000000000000000000000000000000000000000800000000000000000000000000000000000000000000000000000000000000002000000000000000000000000000000000000000000000000000000000114f44600000000000000000000000000000000000000000000000000000000010755de",
            "debugEnable": true,
            "errorInfo": "",
            "eventCount": 3,
            "feeRecipient": "0x5a0b54d5dc17e0aadc383d2db43b0a0d3e029c4c",
            "formatValue": "0",
            "gasLimit": 137332,
            "gasPrice": "7",
            "gasUsed": 127432,
            "intTxnCount": 1,
            "internalRevert": false,
            "internalRevertMessage": "",
            "isContractCreation": false,
            "isFlashloan": false,
            "maxFee": "",
            "nonce": 36927,
            "overwritedBlockNumber": -1,
            "priorityFee": "",
            "receiver": "0x7c633611d9199faff68bce5c5ad97d3514319b77",
            "revertMessage": "",
            "sender": "0xa80e99f59cd0474f76754ed5498f2ef6d6f09951",
            "simulationEnable": true,
            "sourceTxnHash": "0xabf9e32600c98a8477ccbf84447ddfbb10f75a8eb7464a01b82ef933f5cb74ed",
            "status": true,
            "timestamp": "2020-03-26T05:53:46Z",
            "transactionFee": "0.000892024",
            "txnHash": "0xabf9e32600c98a8477ccbf84447ddfbb10f75a8eb7464a01b82ef933f5cb74ed",
            "txnIndex": 44,
            "type": 0,
            "value": "0"
        },
        "fund_flow": [
            {
                "amount": "1",
                "from": "0x0000000000000000000000000000000000000000",
                "id": 1,
                "isERC1155": false,
                "isERC721": true,
                "isReverted": false,
                "order": 1,
                "to": "0x533e700f254543f64f0420302b3c939db39b6ad7",
                "token": "0x0e3a2a1f2146d86a604adc220b4967a898d7fe07",
                "tokenID": "182907459"
            }
        ],
        "token_infos": [
            {
                "address": "0xc02aaa39b223fe8d0a0e5c4f27ead9083c756cc2",
                "decimals": 18
            },
            {
                "address": "0xeeeeeeeeeeeeeeeeeeeeeeeeeeeeeeeeeeeeeeee",
                "decimals": 18
            }
        ]
    },
    "address_label": {
        "labels": [
            {
                "address": "0x0000000000000000000000000000000000000004",
                "label": "Precompiled"
            },
            {
                "address": "0xeeeeeeeeeeeeeeeeeeeeeeeeeeeeeeeeeeeeeeee",
                "label": "Ether"
            },
            {
                "address": "0x0e3a2a1f2146d86a604adc220b4967a898d7fe07",
                "label": "Gods Unchained: CARD"
            },
            {
                "address": "0x7c633611d9199faff68bce5c5ad97d3514319b77",
                "label": "Fusing"
            },
            {
                "address": "0x0000000000000000000000000000000000000001",
                "label": "Precompiled"
            },
            {
                "address": "0x0000000000000000000000000000000000000002",
                "label": "Precompiled"
            },
            {
                "address": "0x0000000000000000000000000000000000000003",
                "label": "Precompiled"
            }
        ]
    },
    "trace": {
        "accountLabels": null,
        "dataMap": {
            "-1": {
                "invocation": {
                    "address": "0xa80e99f59cd0474f76754ed5498f2ef6d6f09951",
                    "callData": "",
                    "decodedMethod": null,
                    "errorInfo": "",
                    "fromAddress": "",
                    "gasUsed": 0,
                    "id": -1,
                    "methodDecoded": false,
                    "operation": "",
                    "output": "",
                    "revert": false,
                    "revertMessage": "",
                    "selector": "",
                    "status": false,
                    "value": ""
                },
                "nodeType": 0
            },
            "0": {
                "invocation": {
                    "address": "0x7c633611d9199faff68bce5c5ad97d3514319b77",
                    "callData": "0x00000000000000000000000000000000000000000000000000000000000004430000000000000000000000000000000000000000000000000000000000000004000000000000000000000000533e700f254543f64f0420302b3c939db39b6ad700000000000000000000000000000000000000000000000000000000000000800000000000000000000000000000000000000000000000000000000000000002000000000000000000000000000000000000000000000000000000000114f44600000000000000000000000000000000000000000000000000000000010755de",
                    "decodedMethod": {
                        "callParams": [
                            {
                                "name": "_proto",
                                "type": "uint16",
                                "value": "1,091"
                            },
                            {
                                "name": "_quality",
                                "type": "uint8",
                                "value": "4"
                            },
                            {
                                "name": "_to",
                                "type": "address",
                                "value": "0x533e700f254543f64f0420302b3c939db39b6ad7"
                            },
                            {
                                "name": "_references",
                                "type": "uint256[]",
                                "value": [
                                    "18,150,470",
                                    "17,257,950"
                                ]
                            }
                        ],
                        "constructorArguments": "",
                        "name": "fuse",
                        "returnParams": [
                            {
                                "name": "tokenId",
                                "type": "uint256",
                                "value": "0"
                            }
                        ],
                        "signature": "fuse(uint16,uint8,address,uint256[])"
                    },
                    "errorInfo": "",
                    "fromAddress": "0xa80e99f59cd0474f76754ed5498f2ef6d6f09951",
                    "gasUsed": 127432,
                    "id": 0,
                    "methodDecoded": true,
                    "operation": "CALL",
                    "output": "0x0000000000000000000000000000000000000000000000000000000000000000",
                    "revert": false,
                    "revertMessage": "",
                    "selector": "0xe3f354b2",
                    "status": true,
                    "value": "0"
                },
                "nodeType": 0
            },
            "1": {
                "invocation": {
                    "address": "0x0e3a2a1f2146d86a604adc220b4967a898d7fe07",
                    "callData": "0x000000000000000000000000533e700f254543f64f0420302b3c939db39b6ad700000000000000000000000000000000000000000000000000000000000004430000000000000000000000000000000000000000000000000000000000000004",
                    "decodedMethod": {
                        "callParams": [
                            {
                                "name": "_to",
                                "type": "address",
                                "value": "0x533e700f254543f64f0420302b3c939db39b6ad7"
                            },
                            {
                                "name": "_proto",
                                "type": "uint16",
                                "value": "1,091"
                            },
                            {
                                "name": "_quality",
                                "type": "uint8",
                                "value": "4"
                            }
                        ],
                        "constructorArguments": "",
                        "name": "mintCard",
                        "returnParams": [
                            {
                                "name": "id",
                                "type": "uint256",
                                "value": "0"
                            }
                        ],
                        "signature": "mintCard(address,uint16,uint8)"
                    },
                    "errorInfo": "",
                    "fromAddress": "0x7c633611d9199faff68bce5c5ad97d3514319b77",
                    "gasUsed": 96231,
                    "id": 1,
                    "methodDecoded": true,
                    "operation": "CALL",
                    "output": "0x0000000000000000000000000000000000000000000000000000000000000000",
                    "revert": false,
                    "revertMessage": "",
                    "selector": "0x5b65afe9",
                    "status": true,
                    "value": "0"
                },
                "nodeType": 0
            },
            "2": {
                "event": {
                    "contract": "0x0e3a2a1f2146d86a604adc220b4967a898d7fe07",
                    "decodedLog": {
                        "name": "Transfer",
                        "params": [
                            {
                                "name": "from",
                                "type": "address",
                                "value": "0x0000000000000000000000000000000000000000"
                            },
                            {
                                "name": "to",
                                "type": "address",
                                "value": "0x533e700f254543f64f0420302b3c939db39b6ad7"
                            },
                            {
                                "decimalAvailable": true,
                                "name": "tokenId",
                                "type": "uint256",
                                "value": "182,907,459"
                            }
                        ],
                        "signature": "Transfer(address,address,uint256)"
                    },
                    "id": 2,
                    "logData": "0x",
                    "logDecoded": true,
                    "operation": "EVENT",
                    "revert": false,
                    "status": true,
                    "topics": [
                        "0xddf252ad1be2c89b69c2b068fc378daa952ba7f163c4a11628f55a4df523b3ef",
                        "0x0000000000000000000000000000000000000000000000000000000000000000",
                        "0x000000000000000000000000533e700f254543f64f0420302b3c939db39b6ad7",
                        "0x000000000000000000000000000000000000000000000000000000000ae6f243"
                    ]
                },
                "nodeType": 1
            },
            "3": {
                "event": {
                    "contract": "0x0e3a2a1f2146d86a604adc220b4967a898d7fe07",
                    "decodedLog": {
                        "name": "CardsMinted",
                        "params": [
                            {
                                "name": "start",
                                "type": "uint256",
                                "value": "182,907,459"
                            },
                            {
                                "name": "to",
                                "type": "address",
                                "value": "0x533e700f254543f64f0420302b3c939db39b6ad7"
                            },
                            {
                                "name": "protos",
                                "type": "uint16[]",
                                "value": [
                                    "1,091"
                                ]
                            },
                            {
                                "name": "qualities",
                                "type": "uint8[]",
                                "value": [
                                    "4"
                                ]
                            }
                        ],
                        "signature": "CardsMinted(uint256,address,uint16[],uint8[])"
                    },
                    "id": 3,
                    "logData": "0x000000000000000000000000533e700f254543f64f0420302b3c939db39b6ad7000000000000000000000000000000000000000000000000000000000000006000000000000000000000000000000000000000000000000000000000000000a00000000000000000000000000000000000000000000000000000000000000001000000000000000000000000000000000000000000000000000000000000044300000000000000000000000000000000000000000000000000000000000000010000000000000000000000000000000000000000000000000000000000000004",
                    "logDecoded": true,
                    "operation": "EVENT",
                    "revert": false,
                    "status": true,
                    "topics": [
                        "0x9c681932e4a9582af05182ce765050b6b731e429b839bcdf8463177531afdae5",
                        "0x000000000000000000000000000000000000000000000000000000000ae6f243"
                    ]
                },
                "nodeType": 1
            },
            "4": {
                "event": {
                    "contract": "0x7c633611d9199faff68bce5c5ad97d3514319b77",
                    "decodedLog": {
                        "name": "CardFused",
                        "params": [
                            {
                                "name": "tokenId",
                                "type": "uint256",
                                "value": "0"
                            },
                            {
                                "name": "lowestReference",
                                "type": "uint256",
                                "value": "17,257,950"
                            },
                            {
                                "name": "owner",
                                "type": "address",
                                "value": "0x533e700f254543f64f0420302b3c939db39b6ad7"
                            },
                            {
                                "name": "tokenAddress",
                                "type": "address",
                                "value": "0x0e3a2a1f2146d86a604adc220b4967a898d7fe07"
                            },
                            {
                                "name": "references",
                                "type": "uint256[]",
                                "value": [
                                    "18,150,470",
                                    "17,257,950"
                                ]
                            }
                        ],
                        "signature": "CardFused(address,address,uint256[],uint256,uint256)"
                    },
                    "id": 4,
                    "logData": "0x000000000000000000000000533e700f254543f64f0420302b3c939db39b6ad70000000000000000000000000e3a2a1f2146d86a604adc220b4967a898d7fe0700000000000000000000000000000000000000000000000000000000000000600000000000000000000000000000000000000000000000000000000000000002000000000000000000000000000000000000000000000000000000000114f44600000000000000000000000000000000000000000000000000000000010755de",
                    "logDecoded": true,
                    "operation": "EVENT",
                    "revert": false,
                    "status": true,
                    "topics": [
                        "0xfd4b8ad1122022a88210ab0dff5eb810a88a584f505235d3feaf9a7d1126847c",
                        "0x0000000000000000000000000000000000000000000000000000000000000000",
                        "0x00000000000000000000000000000000000000000000000000000000010755de"
                    ]
                },
                "nodeType": 1
            }
        },
        "gasFlame": [
            {
                "children": [
                    {
                        "children": [
                            {
                                "children": [],
                                "depth": 0,
                                "name": "Initial Gas",
                                "value": 22356
                            },
                            {
                                "children": [
                                    {
                                        "children": [],
                                        "depth": 1,
                                        "name": "mintCard",
                                        "value": 96231
                                    }
                                ],
                                "depth": 0,
                                "name": "Executed Gas",
                                "value": 105076
                            }
                        ],
                        "depth": -1,
                        "name": "Actual Gas Used",
                        "value": 127432
                    },
                    {
                        "children": [],
                        "depth": -1,
                        "name": "Refunded Gas",
                        "value": 0
                    }
                ],
                "depth": -2,
                "name": "Total Gas",
                "value": 127432
            }
        ],
        "isConfirmed": true,
        "mainTrace": [
            {
                "children": [
                    {
                        "children": [
                            {
                                "children": [
                                    {
                                        "children": [],
                                        "depth": 2,
                                        "id": 2,
                                        "order": 2
                                    },
                                    {
                                        "children": [],
                                        "depth": 2,
                                        "id": 3,
                                        "order": 3
                                    }
                                ],
                                "depth": 1,
                                "id": 1,
                                "order": 1
                            },
                            {
                                "children": [],
                                "depth": 1,
                                "id": 4,
                                "order": 4
                            }
                        ],
                        "depth": 0,
                        "id": 0,
                        "order": 0
                    }
                ],
                "depth": -1,
                "id": -1,
                "order": -1
            }
        ],
        "mainTraceNodeCount": 5,
        "parentIdMap": {
            "0": -1,
            "1": 0,
            "2": 1,
            "3": 1,
            "4": 0
        },
        "tidyTrace": [
            {
                "children": [
                    {
                        "children": [
                            {
                                "children": [
                                    {
                                        "children": [],
                                        "depth": 2,
                                        "id": 2,
                                        "order": 2
                                    },
                                    {
                                        "children": [],
                                        "depth": 2,
                                        "id": 3,
                                        "order": 3
                                    }
                                ],
                                "depth": 1,
                                "id": 1,
                                "order": 1
                            },
                            {
                                "children": [],
                                "depth": 1,
                                "id": 4,
                                "order": 4
                            }
                        ],
                        "depth": 0,
                        "id": 0,
                        "order": 0
                    }
                ],
                "depth": -1,
                "id": -1,
                "order": -1
            }
        ],
        "tidyTraceNodeCount": 5
    },
    "state_change": {}
}