{
    "balance_change": {
        "balanceChanges": [
            {
                "account": "0x55d4ad7963a2e350f9f90c3673ee1a0dd7ddb597",
                "assets": [
                    {
                        "address": "0x7728dfef5abd468669eb7f9b48a7f70a501ed29d",
                        "amount": "99.966754",
                        "iconUrl": "https://assets.blocksec.com/icon/8fd7980c296600bc955b9f091de967fe0465a7c68cc3764a029a5ad26962c2a7.png",
                        "isERC1155": false,
                        "isERC721": false,
                        "sign": true,
                        "value": ""
                    }
                ]
            },
            {
                "account": "0x8d12a197cb00d4747a1fe03395095ce2a5cc6819",
                "assets": [
                    {
                        "address": "0x7728dfef5abd468669eb7f9b48a7f70a501ed29d",
                        "amount": "99.983377",
                        "iconUrl": "https://assets.blocksec.com/icon/8fd7980c296600bc955b9f091de967fe0465a7c68cc3764a029a5ad26962c2a7.png",
                        "isERC1155": false,
                        "isERC721": false,
                        "sign": false,
                        "value": ""
                    }
                ]
            },
            {
                "account": "0x38ffc8c237a8eeb877dd016987f75d41c07b6c6b",
                "assets": [
                    {
                        "address": "0x7728dfef5abd468669eb7f9b48a7f70a501ed29d",
                        "amount": "0.016623",
                        "iconUrl": "https://assets.blocksec.com/icon/8fd7980c296600bc955b9f091de967fe0465a7c68cc3764a029a5ad26962c2a7.png",
                        "isERC1155": false,
                        "isERC721": false,
                        "sign": true,
                        "value": ""
                    }
                ]
            }
        ]
    },
    "profile": {
        "basic_info": {
            "baseFee": "",
            "blockNumber": 4758997,
            "callData": "0x9e281a980000000000000000000000007728dfef5abd468669eb7f9b48a7f70a501ed29d0000000000000000000000000000000000000000000000000000000005f5e100",
            "debugEnable": true,
            "errorInfo": "",
            "eventCount": 3,
            "feeRecipient": "0xea674fdde714fd979de3edf0f56aa9716b898ec8",
            "formatValue": "0",
            "gasLimit": 250000,
            "gasPrice": "4",
            "gasUsed": 62337,
            "intTxnCount": 1,
            "internalRevert": false,
            "internalRevertMessage": "",
            "isContractCreation": false,
            "isFlashloan": false,
            "maxFee": "",
            "nonce": 11,
            "overwritedBlockNumber": -1,
            "priorityFee": "",
            "receiver": "0x8d12a197cb00d4747a1fe03395095ce2a5cc6819",
            "revertMessage": "",
            "sender": "0x55d4ad7963a2e350f9f90c3673ee1a0dd7ddb597",
            "simulationEnable": true,
            "sourceTxnHash": "0xabc2da88fb3251ed3680c763e6119d5b8bef9972cb7bf1a6eb8de02ef77153fb",
            "status": true,
            "timestamp": "2017-12-19T08:28:31Z",
            "transactionFee": "0.000249348",
            "txnHash": "0xabc2da88fb3251ed3680c763e6119d5b8bef9972cb7bf1a6eb8de02ef77153fb",
            "txnIndex": 169,
            "type": 0,
            "value": "0"
        },
        "fund_flow": [
            {
                "amount": "0.016623",
                "from": "0x8d12a197cb00d4747a1fe03395095ce2a5cc6819",
                "id": 1,
                "isERC1155": false,
                "isERC721": false,
                "isReverted": false,
                "order": 1,
                "to": "0x38ffc8c237a8eeb877dd016987f75d41c07b6c6b",
                "token": "0x7728dfef5abd468669eb7f9b48a7f70a501ed29d"
            },
            {
                "amount": "99.966754",
                "from": "0x8d12a197cb00d4747a1fe03395095ce2a5cc6819",
                "id": 2,
                "isERC1155": false,
                "isERC721": false,
                "isReverted": false,
                "order": 2,
                "to": "0x55d4ad7963a2e350f9f90c3673ee1a0dd7ddb597",
                "token": "0x7728dfef5abd468669eb7f9b48a7f70a501ed29d"
            }
        ],
        "token_infos": [
            {
                "address": "0x7728dfef5abd468669eb7f9b48a7f70a501ed29d",
                "decimals": 6
            },
            {
                "address": "0xc02aaa39b223fe8d0a0e5c4f27ead9083c756cc2",
                "decimals": 18
            },
            {
                "address": "0xeeeeeeeeeeeeeeeeeeeeeeeeeeeeeeeeeeeeeeee",
                "decimals": 18
            }
        ]
    },
    "address_label": {
        "labels": [
            {
                "address": "0xeeeeeeeeeeeeeeeeeeeeeeeeeeeeeeeeeeeeeeee",
                "label": "Ether"
            },
            {
                "address": "0x8d12a197cb00d4747a1fe03395095ce2a5cc6819",
                "label": "EtherDelta"
            },
            {
                "address": "0x7728dfef5abd468669eb7f9b48a7f70a501ed29d",
                "label": "ParagonCoin Token"
            },
            {
                "address": "0x0000000000000000000000000000000000000001",
                "label": "Precompiled"
            },
            {
                "address": "0x0000000000000000000000000000000000000002",
                "label": "Precompiled"
            },
            {
                "address": "0x0000000000000000000000000000000000000003",
                "label": "Precompiled"
            },
            {
                "address": "0x0000000000000000000000000000000000000004",
                "label": "Precompiled"
            }
        ]
    },
    "trace": {
        "accountLabels": null,
        "dataMap": {
            "-1": {
                "invocation": {
                    "address": "0x55d4ad7963a2e350f9f90c3673ee1a0dd7ddb597",
                    "callData": "",
                    "decodedMethod": null,
                    "errorInfo": "",
                    "fromAddress": "",
                    "gasUsed": 0,
                    "id": -1,
                    "methodDecoded": false,
                    "operation": "",
                    "output": "",
                    "revert": false,
                    "revertMessage": "",
                    "selector": "",
                    "status": false,
                    "value": ""
                },
                "nodeType": 0
            },
            "0": {
                "invocation": {
                    "address": "0x8d12a197cb00d4747a1fe03395095ce2a5cc6819",
                    "callData": "0x0000000000000000000000007728dfef5abd468669eb7f9b48a7f70a501ed29d0000000000000000000000000000000000000000000000000000000005f5e100",
                    "decodedMethod": {
                        "callParams": [
                            {
                                "name": "token",
                                "type": "address",
                                "value": "0x7728dfef5abd468669eb7f9b48a7f70a501ed29d"
                            },
                            {
                                "name": "amount",
                                "type": "uint256",
                                "value": "100,000,000"
                            }
                        ],
                        "constructorArguments": "",
                        "name": "withdrawToken",
                        "returnParams": [],
                        "signature": "withdrawToken(address,uint256)"
                    },
                    "errorInfo": "",
                    "fromAddress": "0x55d4ad7963a2e350f9f90c3673ee1a0dd7ddb597",
                    "gasUsed": 62337,
                    "id": 0,
                    "methodDecoded": true,
                    "operation": "CALL",
                    "output": "",
                    "revert": false,
                    "revertMessage": "",
                    "selector": "0x9e281a98",
                    "status": true,
                    "value": "0"
                },
                "nodeType": 0
            },
            "1": {
                "invocation": {
                    "address": "0x7728dfef5abd468669eb7f9b48a7f70a501ed29d",
                    "callData": "0x00000000000000000000000055d4ad7963a2e350f9f90c3673ee1a0dd7ddb5970000000000000000000000000000000000000000000000000000000005f5e100",
                    "decodedMethod": {
                        "callParams": [
                            {
                                "name": "_to",
                                "type": "address",
                                "value": "0x55d4ad7963a2e350f9f90c3673ee1a0dd7ddb597"
                            },
                            {
                                "decimalAvailable": true,
                                "name": "_value",
                                "type": "uint256",
                                "value": "100,000,000"
                            }
                        ],
                        "constructorArguments": "",
                        "name": "transfer",
                        "returnParams": [
                            {
                                "name": "success",
                                "type": "bool",
                                "value": true
                            }
                        ],
                        "signature": "transfer(address,uint256)"
                    },
                    "errorInfo": "",
                    "fromAddress": "0x8d12a197cb00d4747a1fe03395095ce2a5cc6819",
                    "gasUsed": 43384,
                    "id": 1,
                    "methodDecoded": true,
                    "operation": "CALL",
                    "output": "0x0000000000000000000000000000000000000000000000000000000000000001",
                    "revert": false,
                    "revertMessage": "",
                    "selector": "0xa9059cbb",
                    "status": true,
                    "value": "0"
                },
                "nodeType": 0
            },
            "2": {
                "event": {
                    "contract": "0x7728dfef5abd468669eb7f9b48a7f70a501ed29d",
                    "decodedLog": {
                        "name": "Transfer",
                        "params": [
                            {
                                "name": "_from",
                                "type": "address",
                                "value": "0x8d12a197cb00d4747a1fe03395095ce2a5cc6819"
                            },
                            {
                                "name": "_to",
                                "type": "address",
                                "value": "0x38ffc8c237a8eeb877dd016987f75d41c07b6c6b"
                            },
                            {
                                "decimalAvailable": true,
                                "name": "_value",
                                "type": "uint256",
                                "value": "16,623"
                            }
                        ],
                        "signature": "Transfer(address,address,uint256)"
                    },
                    "id": 2,
                    "logData": "0x00000000000000000000000000000000000000000000000000000000000040ef",
                    "logDecoded": true,
                    "operation": "EVENT",
                    "revert": false,
                    "status": true,
                    "topics": [
                        "0xddf252ad1be2c89b69c2b068fc378daa952ba7f163c4a11628f55a4df523b3ef",
                        "0x0000000000000000000000008d12a197cb00d4747a1fe03395095ce2a5cc6819",
                        "0x00000000000000000000000038ffc8c237a8eeb877dd016987f75d41c07b6c6b"
                    ]
                },
                "nodeType": 1
            },
            "3": {
                "event": {
                    "contract": "0x7728dfef5abd468669eb7f9b48a7f70a501ed29d",
                    "decodedLog": {
                        "name": "Transfer",
                        "params": [
                            {
                                "name": "_from",
                                "type": "address",
                                "value": "0x8d12a197cb00d4747a1fe03395095ce2a5cc6819"
                            },
                            {
                                "name": "_to",
                                "type": "address",
                                "value": "0x55d4ad7963a2e350f9f90c3673ee1a0dd7ddb597"
                            },
                            {
                                "decimalAvailable": true,
                                "name": "_value",
                                "type": "uint256",
                                "value": "99,966,754"
                            }
                        ],
                        "signature": "Transfer(address,address,uint256)"
                    },
                    "id": 3,
                    "logData": "0x0000000000000000000000000000000000000000000000000000000005f55f22",
                    "logDecoded": true,
                    "operation": "EVENT",
                    "revert": false,
                    "status": true,
                    "topics": [
                        "0xddf252ad1be2c89b69c2b068fc378daa952ba7f163c4a11628f55a4df523b3ef",
                        "0x0000000000000000000000008d12a197cb00d4747a1fe03395095ce2a5cc6819",
                        "0x00000000000000000000000055d4ad7963a2e350f9f90c3673ee1a0dd7ddb597"
                    ]
                },
                "nodeType": 1
            },
            "4": {
                "event": {
                    "contract": "0x8d12a197cb00d4747a1fe03395095ce2a5cc6819",
                    "decodedLog": {
                        "name": "Withdraw",
                        "params": [
                            {
                                "name": "token",
                                "type": "address",
                                "value": "0x7728dfef5abd468669eb7f9b48a7f70a501ed29d"
                            },
                            {
                                "name": "user",
                                "type": "address",
                                "value": "0x55d4ad7963a2e350f9f90c3673ee1a0dd7ddb597"
                            },
                            {
                                "name": "amount",
                                "type": "uint256",
                                "value": "100,000,000"
                            },
                            {
                                "name": "balance",
                                "type": "uint256",
                                "value": "0"
                            }
                        ],
                        "signature": "Withdraw(address,address,uint256,uint256)"
                    },
                    "id": 4,
                    "logData": "0x0000000000000000000000007728dfef5abd468669eb7f9b48a7f70a501ed29d00000000000000000000000055d4ad7963a2e350f9f90c3673ee1a0dd7ddb5970000000000000000000000000000000000000000000000000000000005f5e1000000000000000000000000000000000000000000000000000000000000000000",
                    "logDecoded": true,
                    "operation": "EVENT",
                    "revert": false,
                    "status": true,
                    "topics": [
                        "0xf341246adaac6f497bc2a656f546ab9e182111d630394f0c57c710a59a2cb567"
                    ]
                },
                "nodeType": 1
            }
        },
        "gasFlame": [
            {
                "children": [
                    {
                        "children": [
                            {
                                "children": [],
                                "depth": 0,
                                "name": "Initial Gas",
                                "value": 23000
                            },
                            {
                                "children": [
                                    {
                                        "children": [],
                                        "depth": 1,
                                        "name": "transfer",
                                        "value": 43384
                                    }
                                ],
                                "depth": 0,
                                "name": "Executed Gas",
                                "value": 54337
                            }
                        ],
                        "depth": -1,
                        "name": "Actual Gas Used",
                        "value": 62337
                    },
                    {
                        "children": [],
                        "depth": -1,
                        "name": "Refunded Gas",
                        "value": 15000
                    }
                ],
                "depth": -2,
                "name": "Total Gas",
                "value": 77337
            }
        ],
        "isConfirmed": true,
        "mainTrace": [
            {
                "children": [
                    {
                        "children": [
                            {
                                "children": [
                                    {
                                        "children": [],
                                        "depth": 2,
                                        "id": 2,
                                        "order": 2
                                    },
                                    {
                                        "children": [],
                                        "depth": 2,
                                        "id": 3,
                                        "order": 3
                                    }
                                ],
                                "depth": 1,
                                "id": 1,
                                "order": 1
                            },
                            {
                                "children": [],
                                "depth": 1,
                                "id": 4,
                                "order": 4
                            }
                        ],
                        "depth": 0,
                        "id": 0,
                        "order": 0
                    }
                ],
                "depth": -1,
                "id": -1,
                "order": -1
            }
        ],
        "mainTraceNodeCount": 5,
        "parentIdMap": {
            "0": -1,
            "1": 0,
            "2": 1,
            "3": 1,
            "4": 0
        },
        "tidyTrace": [
            {
                "children": [
                    {
                        "children": [
                            {
                                "children": [
                                    {
                                        "children": [],
                                        "depth": 2,
                                        "id": 2,
                                        "order": 2
                                    },
                                    {
                                        "children": [],
                                        "depth": 2,
                                        "id": 3,
                                        "order": 3
                                    }
                                ],
                                "depth": 1,
                                "id": 1,
                                "order": 1
                            },
                            {
                                "children": [],
                                "depth": 1,
                                "id": 4,
                                "order": 4
                            }
                        ],
                        "depth": 0,
                        "id": 0,
                        "order": 0
                    }
                ],
                "depth": -1,
                "id": -1,
                "order": -1
            }
        ],
        "tidyTraceNodeCount": 5
    },
    "state_change": {
        "stateChanges": [
            {
                "address": "0x7728dfef5abd468669eb7f9b48a7f70a501ed29d",
                "erc": "ERC-20",
                "slots": [
                    {
                        "current": "0x000000000000000000000000000000000000000000000000000000321de49d7b",
                        "key": "0xb92522e638b186e13420d1d4f314a4ef16c92d13980d8e1d96891ef9aaa8c3e7",
                        "prev": "0x0000000000000000000000000000000000000000000000000000003223da7e7b"
                    },
                    {
                        "current": "0x0000000000000000000000000000000000000000000000000000000005f55f22",
                        "key": "0x8904e75ee8757e6e3bf89f8c347f6c769db8df42af684232b29e7e0d13e34b5d",
                        "prev": "0x0000000000000000000000000000000000000000000000000000000000000000"
                    },
                    {
                        "current": "0x000000000000000000000000000000000000000000000000000000000cf1006c",
                        "key": "0xa5452085b73f1134128e4185dcadcabb9e394ffc67bab6a13ffd5bec4dcd7091",
                        "prev": "0x000000000000000000000000000000000000000000000000000000000cf0bf7d"
                    },
                    {
                        "current": "0x000000000000000000000000000000000000000000000000000096024f70b50a",
                        "key": "0x0000000000000000000000000000000000000000000000000000000000000004",
                        "prev": "0x000000000000000000000000000000000000000000000000000096024f70f5f9"
                    }
                ],
                "storageVariables": [
                    {
                        "name": "accounts",
                        "type": "mapping(address => uint256)",
                        "value": {
                            "pairs": [
                                {
                                    "key": "0x38ffc8c237a8eeb877dd016987f75d41c07b6c6b",
                                    "value": {
                                        "current": "217120876",
                                        "prev": "217104253",
                                        "typeTag": 1
                                    }
                                },
                                {
                                    "key": "0x55d4ad7963a2e350f9f90c3673ee1a0dd7ddb597",
                                    "value": {
                                        "current": "99966754",
                                        "prev": "0",
                                        "typeTag": 1
                                    }
                                },
                                {
                                    "key": "0x8d12a197cb00d4747a1fe03395095ce2a5cc6819",
                                    "value": {
                                        "current": "215249886587",
                                        "prev": "215349886587",
                                        "typeTag": 1
                                    }
                                }
                            ],
                            "typeTag": 4
                        }
                    },
                    {
                        "name": "tokensCount",
                        "type": "uint256",
                        "value": {
                            "current": "164936666887434",
                            "prev": "164936666904057",
                            "typeTag": 1
                        }
                    }
                ]
            },
            {
                "address": "0x8d12a197cb00d4747a1fe03395095ce2a5cc6819",
                "erc": "",
                "slots": [
                    {
                        "current": "0x0000000000000000000000000000000000000000000000000000000000000000",
                        "key": "0x349c05bb289cebaf92789a3b34752c4be75d1f634e597e9ca90e1fae94af745f",
                        "prev": "0x0000000000000000000000000000000000000000000000000000000005f5e100"
                    }
                ],
                "storageVariables": []
            }
        ]
    }
}