{
    "balance_change": {
        "balanceChanges": [
            {
                "account": "0x0956ead78bd38d39d486a058a22cf353341fc3a9",
                "assets": [
                    {
                        "address": "0x0bd57fc1289c2b8e090e5f2f7d972514e6a494fb",
                        "amount": "379,456",
                        "iconUrl": "",
                        "isERC1155": false,
                        "isERC721": false,
                        "sign": false,
                        "value": ""
                    }
                ]
            },
            {
                "account": "0x46231d6cde3f04f4c79701b87c639827266b9b81",
                "assets": [
                    {
                        "address": "0x0bd57fc1289c2b8e090e5f2f7d972514e6a494fb",
                        "amount": "379,456",
                        "iconUrl": "",
                        "isERC1155": false,
                        "isERC721": false,
                        "sign": true,
                        "value": ""
                    }
                ]
            }
        ]
    },
    "profile": {
        "basic_info": {
            "baseFee": "",
            "blockNumber": 7112897,
            "callData": "0xa9059cbb00000000000000000000000046231d6cde3f04f4c79701b87c639827266b9b8100000000000000000000000000000000000000000000505a59d9b3f2c1000000",
            "debugEnable": true,
            "errorInfo": "",
            "eventCount": 1,
            "feeRecipient": "0xea674fdde714fd979de3edf0f56aa9716b898ec8",
            "formatValue": "0",
            "gasLimit": 71952,
            "gasPrice": "8",
            "gasUsed": 51952,
            "intTxnCount": 0,
            "internalRevert": false,
            "internalRevertMessage": "",
            "isContractCreation": false,
            "isFlashloan": false,
            "maxFee": "",
            "nonce": 920,
            "overwritedBlockNumber": -1,
            "priorityFee": "",
            "receiver": "0x0bd57fc1289c2b8e090e5f2f7d972514e6a494fb",
            "revertMessage": "",
            "sender": "0x0956ead78bd38d39d486a058a22cf353341fc3a9",
            "simulationEnable": true,
            "sourceTxnHash": "0xabd1d42c2be0e0e3704fbd1da201bf3f5f531f8dc277e8d6ef69f794425b8513",
            "status": true,
            "timestamp": "2019-01-23T08:13:55Z",
            "transactionFee": "0.000415616",
            "txnHash": "0xabd1d42c2be0e0e3704fbd1da201bf3f5f531f8dc277e8d6ef69f794425b8513",
            "txnIndex": 106,
            "type": 0,
            "value": "0"
        },
        "fund_flow": [
            {
                "amount": "379,456",
                "from": "0x0956ead78bd38d39d486a058a22cf353341fc3a9",
                "id": 1,
                "isERC1155": false,
                "isERC721": false,
                "isReverted": false,
                "order": 1,
                "to": "0x46231d6cde3f04f4c79701b87c639827266b9b81",
                "token": "0x0bd57fc1289c2b8e090e5f2f7d972514e6a494fb"
            }
        ],
        "token_infos": [
            {
                "address": "0x0bd57fc1289c2b8e090e5f2f7d972514e6a494fb",
                "decimals": 18
            },
            {
                "address": "0xc02aaa39b223fe8d0a0e5c4f27ead9083c756cc2",
                "decimals": 18
            },
            {
                "address": "0xeeeeeeeeeeeeeeeeeeeeeeeeeeeeeeeeeeeeeeee",
                "decimals": 18
            }
        ]
    },
    "address_label": {
        "labels": [
            {
                "address": "0xeeeeeeeeeeeeeeeeeeeeeeeeeeeeeeeeeeeeeeee",
                "label": "Ether"
            },
            {
                "address": "0x0bd57fc1289c2b8e090e5f2f7d972514e6a494fb",
                "label": "Azilowon (AWN)"
            },
            {
                "address": "0x0000000000000000000000000000000000000001",
                "label": "Precompiled"
            },
            {
                "address": "0x0000000000000000000000000000000000000002",
                "label": "Precompiled"
            },
            {
                "address": "0x0000000000000000000000000000000000000003",
                "label": "Precompiled"
            },
            {
                "address": "0x0000000000000000000000000000000000000004",
                "label": "Precompiled"
            }
        ]
    },
    "trace": {
        "accountLabels": null,
        "dataMap": {
            "-1": {
                "invocation": {
                    "address": "0x0956ead78bd38d39d486a058a22cf353341fc3a9",
                    "callData": "",
                    "decodedMethod": null,
                    "errorInfo": "",
                    "fromAddress": "",
                    "gasUsed": 0,
                    "id": -1,
                    "methodDecoded": false,
                    "operation": "",
                    "output": "",
                    "revert": false,
                    "revertMessage": "",
                    "selector": "",
                    "status": false,
                    "value": ""
                },
                "nodeType": 0
            },
            "0": {
                "invocation": {
                    "address": "0x0bd57fc1289c2b8e090e5f2f7d972514e6a494fb",
                    "callData": "0x00000000000000000000000046231d6cde3f04f4c79701b87c639827266b9b8100000000000000000000000000000000000000000000505a59d9b3f2c1000000",
                    "decodedMethod": {
                        "callParams": [
                            {
                                "name": "_to",
                                "type": "address",
                                "value": "0x46231d6cde3f04f4c79701b87c639827266b9b81"
                            },
                            {
                                "decimalAvailable": true,
                                "name": "_value",
                                "type": "uint256",
                                "value": "379,456,000,000,000,000,000,000"
                            }
                        ],
                        "constructorArguments": "",
                        "name": "transfer",
                        "returnParams": [
                            {
                                "name": "",
                                "type": "bool",
                                "value": true
                            }
                        ],
                        "signature": "transfer(address,uint256)"
                    },
                    "errorInfo": "",
                    "fromAddress": "0x0956ead78bd38d39d486a058a22cf353341fc3a9",
                    "gasUsed": 51952,
                    "id": 0,
                    "methodDecoded": true,
                    "operation": "CALL",
                    "output": "0x0000000000000000000000000000000000000000000000000000000000000001",
                    "revert": false,
                    "revertMessage": "",
                    "selector": "0xa9059cbb",
                    "status": true,
                    "value": "0"
                },
                "nodeType": 0
            },
            "1": {
                "event": {
                    "contract": "0x0bd57fc1289c2b8e090e5f2f7d972514e6a494fb",
                    "decodedLog": {
                        "name": "Transfer",
                        "params": [
                            {
                                "name": "from",
                                "type": "address",
                                "value": "0x0956ead78bd38d39d486a058a22cf353341fc3a9"
                            },
                            {
                                "name": "to",
                                "type": "address",
                                "value": "0x46231d6cde3f04f4c79701b87c639827266b9b81"
                            },
                            {
                                "decimalAvailable": true,
                                "name": "value",
                                "type": "uint256",
                                "value": "379,456,000,000,000,000,000,000"
                            }
                        ],
                        "signature": "Transfer(address,address,uint256)"
                    },
                    "id": 1,
                    "logData": "0x00000000000000000000000000000000000000000000505a59d9b3f2c1000000",
                    "logDecoded": true,
                    "operation": "EVENT",
                    "revert": false,
                    "status": true,
                    "topics": [
                        "0xddf252ad1be2c89b69c2b068fc378daa952ba7f163c4a11628f55a4df523b3ef",
                        "0x0000000000000000000000000956ead78bd38d39d486a058a22cf353341fc3a9",
                        "0x00000000000000000000000046231d6cde3f04f4c79701b87c639827266b9b81"
                    ]
                },
                "nodeType": 1
            }
        },
        "gasFlame": [
            {
                "children": [
                    {
                        "children": [
                            {
                                "children": [],
                                "depth": 0,
                                "name": "Initial Gas",
                                "value": 23256
                            },
                            {
                                "children": [],
                                "depth": 0,
                                "name": "Executed Gas",
                                "value": 28696
                            }
                        ],
                        "depth": -1,
                        "name": "Actual Gas Used",
                        "value": 51952
                    },
                    {
                        "children": [],
                        "depth": -1,
                        "name": "Refunded Gas",
                        "value": 0
                    }
                ],
                "depth": -2,
                "name": "Total Gas",
                "value": 51952
            }
        ],
        "isConfirmed": true,
        "mainTrace": [
            {
                "children": [
                    {
                        "children": [
                            {
                                "children": [],
                                "depth": 1,
                                "id": 1,
                                "order": 1
                            }
                        ],
                        "depth": 0,
                        "id": 0,
                        "order": 0
                    }
                ],
                "depth": -1,
                "id": -1,
                "order": -1
            }
        ],
        "mainTraceNodeCount": 2,
        "parentIdMap": {
            "0": -1,
            "1": 0
        },
        "tidyTrace": [
            {
                "children": [
                    {
                        "children": [
                            {
                                "children": [],
                                "depth": 1,
                                "id": 1,
                                "order": 1
                            }
                        ],
                        "depth": 0,
                        "id": 0,
                        "order": 0
                    }
                ],
                "depth": -1,
                "id": -1,
                "order": -1
            }
        ],
        "tidyTraceNodeCount": 2
    },
    "state_change": {
        "stateChanges": [
            {
                "address": "0x0bd57fc1289c2b8e090e5f2f7d972514e6a494fb",
                "erc": "ERC-20",
                "slots": [
                    {
                        "current": "0x0000000000000000000000000000000000000000001b4b1179fab88c61040000",
                        "key": "0xc8ece00539af16f5aa4e70866b26bb6cecdf61cde9fc019468876c232e6c46c8",
                        "prev": "0x0000000000000000000000000000000000000000001b9b6bd3d46c7f22040000"
                    },
                    {
                        "current": "0x00000000000000000000000000000000000000000000505a59d9b3f2c1000000",
                        "key": "0x9ef6e068fe567a2879fa910cab5df2a3698d450e49b19aaf974b48c8ab77ca22",
                        "prev": "0x0000000000000000000000000000000000000000000000000000000000000000"
                    }
                ],
                "storageVariables": [
                    {
                        "name": "balances",
                        "type": "mapping(address => uint256)",
                        "value": {
                            "pairs": [
                                {
                                    "key": "0x0956ead78bd38d39d486a058a22cf353341fc3a9",
                                    "value": {
                                        "current": "32995497000000000000000000",
                                        "prev": "33374953000000000000000000",
                                        "typeTag": 1
                                    }
                                },
                                {
                                    "key": "0x46231d6cde3f04f4c79701b87c639827266b9b81",
                                    "value": {
                                        "current": "379456000000000000000000",
                                        "prev": "0",
                                        "typeTag": 1
                                    }
                                }
                            ],
                            "typeTag": 4
                        }
                    }
                ]
            }
        ]
    }
}