{
    "balance_change": {
        "balanceChanges": [
            {
                "account": "0x38f0a56b94b581c2c855640c28c1595fdb9bbe8a",
                "assets": [
                    {
                        "address": "0x0000000000085d4780b73119b644ae5ecd22b376",
                        "amount": "800",
                        "iconUrl": "https://assets.blocksec.com/icon/67253da83e8ec0bc4adc998fae95ccd612ecf76a66cb8dd38ca9b97c929a1250.png",
                        "isERC1155": false,
                        "isERC721": false,
                        "sign": false,
                        "value": ""
                    },
                    {
                        "address": "0x04abeda201850ac0124161f037efd70c74ddc74c",
                        "amount": "650.160461826631874514",
                        "iconUrl": "",
                        "isERC1155": false,
                        "isERC721": false,
                        "sign": true,
                        "value": ""
                    }
                ]
            },
            {
                "account": "0x5c778c9075fb83cadfe9456ef3c3bacd3bdefe71",
                "assets": [
                    {
                        "address": "0x04abeda201850ac0124161f037efd70c74ddc74c",
                        "amount": "812.700577283289843142",
                        "iconUrl": "",
                        "isERC1155": false,
                        "isERC721": false,
                        "sign": true,
                        "value": ""
                    }
                ]
            },
            {
                "account": "0x87e2a18dd64b8afd5326dfc40013fab0563caff6",
                "assets": [
                    {
                        "address": "0x0000000000085d4780b73119b644ae5ecd22b376",
                        "amount": "800",
                        "iconUrl": "https://assets.blocksec.com/icon/67253da83e8ec0bc4adc998fae95ccd612ecf76a66cb8dd38ca9b97c929a1250.png",
                        "isERC1155": false,
                        "isERC721": false,
                        "sign": true,
                        "value": ""
                    },
                    {
                        "address": "0x04abeda201850ac0124161f037efd70c74ddc74c",
                        "amount": "2,600.641847306527498056",
                        "iconUrl": "",
                        "isERC1155": false,
                        "isERC721": false,
                        "sign": true,
                        "value": ""
                    }
                ]
            },
            {
                "account": "0xb9b37a1e9fa43c70de7e65fcc8b4556e558c11bb",
                "assets": [
                    {
                        "address": "0xeeeeeeeeeeeeeeeeeeeeeeeeeeeeeeeeeeeeeeee",
                        "amount": "0.046002351552865108",
                        "iconUrl": "https://assets.blocksec.com/image/1663669189317-3.png",
                        "isERC1155": false,
                        "isERC721": false,
                        "sign": true,
                        "value": ""
                    }
                ]
            },
            {
                "account": "0xcd24263cc3fbed87f8cddafa039142194209e739",
                "assets": [
                    {
                        "address": "0xeeeeeeeeeeeeeeeeeeeeeeeeeeeeeeeeeeeeeeee",
                        "amount": "0.046002351552865108",
                        "iconUrl": "https://assets.blocksec.com/image/1663669189317-3.png",
                        "isERC1155": false,
                        "isERC721": false,
                        "sign": false,
                        "value": ""
                    }
                ]
            },
            {
                "account": "0xcf953f45029fa5f04c0ed9077100bc72115772d0",
                "assets": [
                    {
                        "address": "0x04abeda201850ac0124161f037efd70c74ddc74c",
                        "amount": "4,063.502886416449215712",
                        "iconUrl": "",
                        "isERC1155": false,
                        "isERC721": false,
                        "sign": false,
                        "value": ""
                    }
                ]
            }
        ]
    },
    "profile": {
        "basic_info": {
            "baseFee": "",
            "blockNumber": 7627097,
            "callData": "0xc851318c000000000000000000000000cd24263cc3fbed87f8cddafa039142194209e739",
            "debugEnable": true,
            "errorInfo": "",
            "eventCount": 4,
            "feeRecipient": "0x5a0b54d5dc17e0aadc383d2db43b0a0d3e029c4c",
            "formatValue": "0",
            "gasLimit": 430596,
            "gasPrice": "3",
            "gasUsed": 392070,
            "intTxnCount": 51,
            "internalRevert": false,
            "internalRevertMessage": "",
            "isContractCreation": false,
            "isFlashloan": false,
            "maxFee": "",
            "nonce": 835,
            "overwritedBlockNumber": -1,
            "priorityFee": "",
            "receiver": "0x27156f672cf277d83a58170d21c1c2211b00d0db",
            "revertMessage": "",
            "sender": "0x38f0a56b94b581c2c855640c28c1595fdb9bbe8a",
            "simulationEnable": true,
            "sourceTxnHash": "0xab52ae9c5d57be8142ace81e4575c27290c5779f27bce86a83e9e0f27d8a1ac1",
            "status": true,
            "timestamp": "2019-04-24T00:59:49Z",
            "transactionFee": "0.00117621",
            "txnHash": "0xab52ae9c5d57be8142ace81e4575c27290c5779f27bce86a83e9e0f27d8a1ac1",
            "txnIndex": 42,
            "type": 0,
            "value": "0"
        },
        "fund_flow": [
            {
                "amount": "800",
                "from": "0x38f0a56b94b581c2c855640c28c1595fdb9bbe8a",
                "id": 1,
                "isERC1155": false,
                "isERC721": false,
                "isReverted": false,
                "order": 1,
                "to": "0x87e2a18dd64b8afd5326dfc40013fab0563caff6",
                "token": "0x0000000000085d4780b73119b644ae5ecd22b376"
            },
            {
                "amount": "0.046002351552865108",
                "from": "0xcd24263cc3fbed87f8cddafa039142194209e739",
                "id": 2,
                "isERC1155": false,
                "isERC721": false,
                "isReverted": false,
                "order": 2,
                "to": "0xb9b37a1e9fa43c70de7e65fcc8b4556e558c11bb",
                "token": "0xeeeeeeeeeeeeeeeeeeeeeeeeeeeeeeeeeeeeeeee"
            },
            {
                "amount": "2,600.641847306527498056",
                "from": "0xcf953f45029fa5f04c0ed9077100bc72115772d0",
                "id": 3,
                "isERC1155": false,
                "isERC721": false,
                "isReverted": false,
                "order": 3,
                "to": "0x87e2a18dd64b8afd5326dfc40013fab0563caff6",
                "token": "0x04abeda201850ac0124161f037efd70c74ddc74c"
            },
            {
                "amount": "650.160461826631874514",
                "from": "0xcf953f45029fa5f04c0ed9077100bc72115772d0",
                "id": 4,
                "isERC1155": false,
                "isERC721": false,
                "isReverted": false,
                "order": 4,
                "to": "0x38f0a56b94b581c2c855640c28c1595fdb9bbe8a",
                "token": "0x04abeda201850ac0124161f037efd70c74ddc74c"
            },
            {
                "amount": "812.700577283289843142",
                "from": "0xcf953f45029fa5f04c0ed9077100bc72115772d0",
                "id": 5,
                "isERC1155": false,
                "isERC721": false,
                "isReverted": false,
                "order": 5,
                "to": "0x5c778c9075fb83cadfe9456ef3c3bacd3bdefe71",
                "token": "0x04abeda201850ac0124161f037efd70c74ddc74c"
            }
        ],
        "token_infos": [
            {
                "address": "0x0000000000085d4780b73119b644ae5ecd22b376",
                "decimals": 18
            },
            {
                "address": "0x04abeda201850ac0124161f037efd70c74ddc74c",
                "decimals": 18
            },
            {
                "address": "0xc02aaa39b223fe8d0a0e5c4f27ead9083c756cc2",
                "decimals": 18
            },
            {
                "address": "0xeeeeeeeeeeeeeeeeeeeeeeeeeeeeeeeeeeeeeeee",
                "decimals": 18
            }
        ]
    },
    "address_label": {
        "labels": [
            {
                "address": "0x0000000000000000000000000000000000000004",
                "label": "Precompiled"
            },
            {
                "address": "0xeeeeeeeeeeeeeeeeeeeeeeeeeeeeeeeeeeeeeeee",
                "label": "Ether"
            },
            {
                "address": "0x0000000000085d4780b73119b644ae5ecd22b376",
                "label": "TrueUSD: TUSD Token"
            },
            {
                "address": "0x0000000000000000000000000000000000000001",
                "label": "Precompiled"
            },
            {
                "address": "0x0000000000000000000000000000000000000002",
                "label": "Precompiled"
            },
            {
                "address": "0x0000000000000000000000000000000000000003",
                "label": "Precompiled"
            },
            {
                "address": "0xcb9a11afdc6bdb92e4a6235959455f28758b34ba",
                "label": "TrueUSD (TUSD)"
            },
            {
                "address": "0x04abeda201850ac0124161f037efd70c74ddc74c",
                "label": "NEST Protocol: Old NEST Token"
            },
            {
                "address": "0x5e7db2ffc5b2c7c47103e4f21c702bc402603fbf",
                "label": "IBMapping"
            },
            {
                "address": "0x03c513ffbdbda34b4a66b3052fa5e0e6606e531b",
                "label": "IterableMapping"
            }
        ]
    },
    "trace": {
        "accountLabels": null,
        "dataMap": {
            "-1": {
                "invocation": {
                    "address": "0x38f0a56b94b581c2c855640c28c1595fdb9bbe8a",
                    "callData": "",
                    "decodedMethod": null,
                    "errorInfo": "",
                    "fromAddress": "",
                    "gasUsed": 0,
                    "id": -1,
                    "methodDecoded": false,
                    "operation": "",
                    "output": "",
                    "revert": false,
                    "revertMessage": "",
                    "selector": "",
                    "status": false,
                    "value": ""
                },
                "nodeType": 0
            },
            "0": {
                "invocation": {
                    "address": "0x27156f672cf277d83a58170d21c1c2211b00d0db",
                    "callData": "0x000000000000000000000000cd24263cc3fbed87f8cddafa039142194209e739",
                    "decodedMethod": {
                        "callParams": [
                            {
                                "name": "contractAddress",
                                "type": "address",
                                "value": "0xcd24263cc3fbed87f8cddafa039142194209e739"
                            }
                        ],
                        "constructorArguments": "",
                        "name": "investmentContracts",
                        "returnParams": [],
                        "signature": "investmentContracts(address)"
                    },
                    "errorInfo": "",
                    "fromAddress": "0x38f0a56b94b581c2c855640c28c1595fdb9bbe8a",
                    "gasUsed": 392070,
                    "id": 0,
                    "methodDecoded": true,
                    "operation": "CALL",
                    "output": "",
                    "revert": false,
                    "revertMessage": "",
                    "selector": "0xc851318c",
                    "status": true,
                    "value": "0"
                },
                "nodeType": 0
            },
            "1": {
                "invocation": {
                    "address": "0xd8adb58f839a284a3a1cfc101fdb9d25a8140d11",
                    "callData": "0x000000000000000000000000cd24263cc3fbed87f8cddafa039142194209e739",
                    "decodedMethod": {
                        "callParams": [
                            {
                                "name": "addr",
                                "type": "address",
                                "value": "0xcd24263cc3fbed87f8cddafa039142194209e739"
                            }
                        ],
                        "constructorArguments": "",
                        "name": "checkContract",
                        "returnParams": [
                            {
                                "name": "",
                                "type": "bool",
                                "value": true
                            }
                        ],
                        "signature": "checkContract(address)"
                    },
                    "errorInfo": "",
                    "fromAddress": "0x27156f672cf277d83a58170d21c1c2211b00d0db",
                    "gasUsed": 798,
                    "id": 1,
                    "methodDecoded": true,
                    "operation": "STATICCALL",
                    "output": "0x0000000000000000000000000000000000000000000000000000000000000001",
                    "revert": false,
                    "revertMessage": "",
                    "selector": "0xd7b12454",
                    "status": true,
                    "value": "0"
                },
                "nodeType": 0
            },
            "10": {
                "invocation": {
                    "address": "0xcb9a11afdc6bdb92e4a6235959455f28758b34ba",
                    "callData": "0x00000000000000000000000038f0a56b94b581c2c855640c28c1595fdb9bbe8a00000000000000000000000027156f672cf277d83a58170d21c1c2211b00d0db",
                    "decodedMethod": {
                        "callParams": [
                            {
                                "name": "_who",
                                "type": "address",
                                "value": "0x38f0a56b94b581c2c855640c28c1595fdb9bbe8a"
                            },
                            {
                                "name": "_spender",
                                "type": "address",
                                "value": "0x27156f672cf277d83a58170d21c1c2211b00d0db"
                            }
                        ],
                        "constructorArguments": "",
                        "name": "allowance",
                        "returnParams": [
                            {
                                "decimalAvailable": true,
                                "name": "",
                                "type": "uint256",
                                "value": "800,000,000,000,000,000,000"
                            }
                        ],
                        "signature": "allowance(address,address)"
                    },
                    "errorInfo": "",
                    "fromAddress": "0x0000000000085d4780b73119b644ae5ecd22b376",
                    "gasUsed": 1473,
                    "id": 10,
                    "methodDecoded": true,
                    "operation": "DELEGATECALL",
                    "output": "0x00000000000000000000000000000000000000000000002b5e3af16b18800000",
                    "revert": false,
                    "revertMessage": "",
                    "selector": "0xdd62ed3e",
                    "status": true,
                    "value": "0"
                },
                "nodeType": 0
            },
            "11": {
                "invocation": {
                    "address": "0xcd24263cc3fbed87f8cddafa039142194209e739",
                    "callData": "0x",
                    "decodedMethod": null,
                    "errorInfo": "",
                    "fromAddress": "0x27156f672cf277d83a58170d21c1c2211b00d0db",
                    "gasUsed": 580,
                    "id": 11,
                    "methodDecoded": false,
                    "operation": "STATICCALL",
                    "output": "0x0000000000000000000000000000000000085d4780b73119b644ae5ecd22b376",
                    "revert": false,
                    "revertMessage": "",
                    "selector": "0x29e73df2",
                    "status": true,
                    "value": "0"
                },
                "nodeType": 0
            },
            "12": {
                "invocation": {
                    "address": "0xcd24263cc3fbed87f8cddafa039142194209e739",
                    "callData": "0x",
                    "decodedMethod": null,
                    "errorInfo": "",
                    "fromAddress": "0x27156f672cf277d83a58170d21c1c2211b00d0db",
                    "gasUsed": 645,
                    "id": 12,
                    "methodDecoded": false,
                    "operation": "STATICCALL",
                    "output": "0x00000000000000000000000087e2a18dd64b8afd5326dfc40013fab0563caff6",
                    "revert": false,
                    "revertMessage": "",
                    "selector": "0x594837cf",
                    "status": true,
                    "value": "0"
                },
                "nodeType": 0
            },
            "13": {
                "invocation": {
                    "address": "0xcd24263cc3fbed87f8cddafa039142194209e739",
                    "callData": "0x",
                    "decodedMethod": null,
                    "errorInfo": "",
                    "fromAddress": "0x27156f672cf277d83a58170d21c1c2211b00d0db",
                    "gasUsed": 448,
                    "id": 13,
                    "methodDecoded": false,
                    "operation": "STATICCALL",
                    "output": "0x00000000000000000000000000000000000000000000002b5e3af16b18800000",
                    "revert": false,
                    "revertMessage": "",
                    "selector": "0x6de4928d",
                    "status": true,
                    "value": "0"
                },
                "nodeType": 0
            },
            "14": {
                "invocation": {
                    "address": "0x0000000000085d4780b73119b644ae5ecd22b376",
                    "callData": "0x00000000000000000000000038f0a56b94b581c2c855640c28c1595fdb9bbe8a00000000000000000000000087e2a18dd64b8afd5326dfc40013fab0563caff600000000000000000000000000000000000000000000002b5e3af16b18800000",
                    "decodedMethod": {
                        "callParams": [
                            {
                                "name": "_from",
                                "type": "address",
                                "value": "0x38f0a56b94b581c2c855640c28c1595fdb9bbe8a"
                            },
                            {
                                "name": "_to",
                                "type": "address",
                                "value": "0x87e2a18dd64b8afd5326dfc40013fab0563caff6"
                            },
                            {
                                "decimalAvailable": true,
                                "name": "_value",
                                "type": "uint256",
                                "value": "800,000,000,000,000,000,000"
                            }
                        ],
                        "constructorArguments": "",
                        "name": "transferFrom",
                        "returnParams": [
                            {
                                "name": "",
                                "type": "bool",
                                "value": true
                            }
                        ],
                        "signature": "transferFrom(address,address,uint256)"
                    },
                    "errorInfo": "",
                    "fromAddress": "0x27156f672cf277d83a58170d21c1c2211b00d0db",
                    "gasUsed": 32532,
                    "id": 14,
                    "methodDecoded": true,
                    "operation": "CALL",
                    "output": "0x0000000000000000000000000000000000000000000000000000000000000001",
                    "revert": false,
                    "revertMessage": "",
                    "selector": "0x23b872dd",
                    "status": true,
                    "value": "0"
                },
                "nodeType": 0
            },
            "15": {
                "invocation": {
                    "address": "0xcb9a11afdc6bdb92e4a6235959455f28758b34ba",
                    "callData": "0x00000000000000000000000038f0a56b94b581c2c855640c28c1595fdb9bbe8a00000000000000000000000087e2a18dd64b8afd5326dfc40013fab0563caff600000000000000000000000000000000000000000000002b5e3af16b18800000",
                    "decodedMethod": {
                        "callParams": [
                            {
                                "name": "_from",
                                "type": "address",
                                "value": "0x38f0a56b94b581c2c855640c28c1595fdb9bbe8a"
                            },
                            {
                                "name": "_to",
                                "type": "address",
                                "value": "0x87e2a18dd64b8afd5326dfc40013fab0563caff6"
                            },
                            {
                                "decimalAvailable": true,
                                "name": "_value",
                                "type": "uint256",
                                "value": "800,000,000,000,000,000,000"
                            }
                        ],
                        "constructorArguments": "",
                        "name": "transferFrom",
                        "returnParams": [
                            {
                                "name": "",
                                "type": "bool",
                                "value": true
                            }
                        ],
                        "signature": "transferFrom(address,address,uint256)"
                    },
                    "errorInfo": "",
                    "fromAddress": "0x0000000000085d4780b73119b644ae5ecd22b376",
                    "gasUsed": 31121,
                    "id": 15,
                    "methodDecoded": true,
                    "operation": "DELEGATECALL",
                    "output": "0x0000000000000000000000000000000000000000000000000000000000000001",
                    "revert": false,
                    "revertMessage": "",
                    "selector": "0x23b872dd",
                    "status": true,
                    "value": "0"
                },
                "nodeType": 0
            },
            "16": {
                "event": {
                    "contract": "0x0000000000085d4780b73119b644ae5ecd22b376",
                    "decodedLog": {
                        "name": "Transfer",
                        "params": [
                            {
                                "name": "from",
                                "type": "address",
                                "value": "0x38f0a56b94b581c2c855640c28c1595fdb9bbe8a"
                            },
                            {
                                "name": "to",
                                "type": "address",
                                "value": "0x87e2a18dd64b8afd5326dfc40013fab0563caff6"
                            },
                            {
                                "decimalAvailable": true,
                                "name": "value",
                                "type": "uint256",
                                "value": "800,000,000,000,000,000,000"
                            }
                        ],
                        "signature": "Transfer(address,address,uint256)"
                    },
                    "id": 16,
                    "logData": "0x00000000000000000000000000000000000000000000002b5e3af16b18800000",
                    "logDecoded": true,
                    "operation": "EVENT",
                    "revert": false,
                    "status": true,
                    "topics": [
                        "0xddf252ad1be2c89b69c2b068fc378daa952ba7f163c4a11628f55a4df523b3ef",
                        "0x00000000000000000000000038f0a56b94b581c2c855640c28c1595fdb9bbe8a",
                        "0x00000000000000000000000087e2a18dd64b8afd5326dfc40013fab0563caff6"
                    ]
                },
                "nodeType": 1
            },
            "17": {
                "invocation": {
                    "address": "0xcd24263cc3fbed87f8cddafa039142194209e739",
                    "callData": "0x",
                    "decodedMethod": null,
                    "errorInfo": "",
                    "fromAddress": "0x27156f672cf277d83a58170d21c1c2211b00d0db",
                    "gasUsed": 330979,
                    "id": 17,
                    "methodDecoded": false,
                    "operation": "CALL",
                    "output": "0x00000000000000000000000000000000000000000000002b5e3af16b18800000",
                    "revert": false,
                    "revertMessage": "",
                    "selector": "0xa4fe8a44",
                    "status": true,
                    "value": "0"
                },
                "nodeType": 0
            },
            "18": {
                "invocation": {
                    "address": "0x5e7db2ffc5b2c7c47103e4f21c702bc402603fbf",
                    "callData": "0x0000000000000000000000000000000000000000000000000000000000000020000000000000000000000000000000000000000000000000000000000000000f6c6f616e53656c66466163746f72790000000000000000000000000000000000",
                    "decodedMethod": {
                        "callParams": [
                            {
                                "name": "name",
                                "type": "string",
                                "value": "loanSelfFactory"
                            }
                        ],
                        "constructorArguments": "",
                        "name": "checkAddress",
                        "returnParams": [
                            {
                                "name": "contractAddress",
                                "type": "address",
                                "value": "0x27156f672cf277d83a58170d21c1c2211b00d0db"
                            }
                        ],
                        "signature": "checkAddress(string)"
                    },
                    "errorInfo": "",
                    "fromAddress": "0xcd24263cc3fbed87f8cddafa039142194209e739",
                    "gasUsed": 1205,
                    "id": 18,
                    "methodDecoded": true,
                    "operation": "STATICCALL",
                    "output": "0x00000000000000000000000027156f672cf277d83a58170d21c1c2211b00d0db",
                    "revert": false,
                    "revertMessage": "",
                    "selector": "0x8fe77e86",
                    "status": true,
                    "value": "0"
                },
                "nodeType": 0
            },
            "19": {
                "invocation": {
                    "address": "0x5e7db2ffc5b2c7c47103e4f21c702bc402603fbf",
                    "callData": "0x0000000000000000000000000000000000000000000000000000000000000020000000000000000000000000000000000000000000000000000000000000000661626f6e75730000000000000000000000000000000000000000000000000000",
                    "decodedMethod": {
                        "callParams": [
                            {
                                "name": "name",
                                "type": "string",
                                "value": "abonus"
                            }
                        ],
                        "constructorArguments": "",
                        "name": "checkAddress",
                        "returnParams": [
                            {
                                "name": "contractAddress",
                                "type": "address",
                                "value": "0xb9b37a1e9fa43c70de7e65fcc8b4556e558c11bb"
                            }
                        ],
                        "signature": "checkAddress(string)"
                    },
                    "errorInfo": "",
                    "fromAddress": "0xcd24263cc3fbed87f8cddafa039142194209e739",
                    "gasUsed": 1205,
                    "id": 19,
                    "methodDecoded": true,
                    "operation": "STATICCALL",
                    "output": "0x000000000000000000000000b9b37a1e9fa43c70de7e65fcc8b4556e558c11bb",
                    "revert": false,
                    "revertMessage": "",
                    "selector": "0x8fe77e86",
                    "status": true,
                    "value": "0"
                },
                "nodeType": 0
            },
            "2": {
                "invocation": {
                    "address": "0xcd24263cc3fbed87f8cddafa039142194209e739",
                    "callData": "0x",
                    "decodedMethod": null,
                    "errorInfo": "",
                    "fromAddress": "0x27156f672cf277d83a58170d21c1c2211b00d0db",
                    "gasUsed": 2419,
                    "id": 2,
                    "methodDecoded": false,
                    "operation": "STATICCALL",
                    "output": "0x0000000000000000000000000000000000000000000000000000000000000001",
                    "revert": false,
                    "revertMessage": "",
                    "selector": "0x5cf2c0dd",
                    "status": true,
                    "value": "0"
                },
                "nodeType": 0
            },
            "20": {
                "invocation": {
                    "address": "0xb9b37a1e9fa43c70de7e65fcc8b4556e558c11bb",
                    "callData": "0x",
                    "decodedMethod": null,
                    "errorInfo": "",
                    "fromAddress": "0xcd24263cc3fbed87f8cddafa039142194209e739",
                    "gasUsed": 40,
                    "id": 20,
                    "methodDecoded": false,
                    "operation": "CALL",
                    "output": "",
                    "revert": false,
                    "revertMessage": "",
                    "selector": "fallback",
                    "status": true,
                    "value": "0.046002351552865108"
                },
                "nodeType": 0
            },
            "21": {
                "invocation": {
                    "address": "0x5e7db2ffc5b2c7c47103e4f21c702bc402603fbf",
                    "callData": "0x000000000000000000000000000000000000000000000000000000000000002000000000000000000000000000000000000000000000000000000000000000146c6f616e53656c66426f72726f774d696e696e67000000000000000000000000",
                    "decodedMethod": {
                        "callParams": [
                            {
                                "name": "name",
                                "type": "string",
                                "value": "loanSelfBorrowMining"
                            }
                        ],
                        "constructorArguments": "",
                        "name": "checkAddress",
                        "returnParams": [
                            {
                                "name": "contractAddress",
                                "type": "address",
                                "value": "0xe95fe8a40a42acc18ebb7afa2caf01091e936332"
                            }
                        ],
                        "signature": "checkAddress(string)"
                    },
                    "errorInfo": "",
                    "fromAddress": "0xcd24263cc3fbed87f8cddafa039142194209e739",
                    "gasUsed": 1205,
                    "id": 21,
                    "methodDecoded": true,
                    "operation": "STATICCALL",
                    "output": "0x000000000000000000000000e95fe8a40a42acc18ebb7afa2caf01091e936332",
                    "revert": false,
                    "revertMessage": "",
                    "selector": "0x8fe77e86",
                    "status": true,
                    "value": "0"
                },
                "nodeType": 0
            },
            "22": {
                "invocation": {
                    "address": "0xe95fe8a40a42acc18ebb7afa2caf01091e936332",
                    "callData": "0x0000000000000000000000000000000000000000000000007faea300543b9a0400000000000000000000000087e2a18dd64b8afd5326dfc40013fab0563caff600000000000000000000000038f0a56b94b581c2c855640c28c1595fdb9bbe8a0000000000000000000000000000000000085d4780b73119b644ae5ecd22b376",
                    "decodedMethod": null,
                    "errorInfo": "",
                    "fromAddress": "0xcd24263cc3fbed87f8cddafa039142194209e739",
                    "gasUsed": 187751,
                    "id": 22,
                    "methodDecoded": false,
                    "operation": "CALL",
                    "output": "",
                    "revert": false,
                    "revertMessage": "",
                    "selector": "0x41872fb9",
                    "status": true,
                    "value": "0"
                },
                "nodeType": 0
            },
            "23": {
                "invocation": {
                    "address": "0xd8adb58f839a284a3a1cfc101fdb9d25a8140d11",
                    "callData": "0x000000000000000000000000cd24263cc3fbed87f8cddafa039142194209e739",
                    "decodedMethod": {
                        "callParams": [
                            {
                                "name": "addr",
                                "type": "address",
                                "value": "0xcd24263cc3fbed87f8cddafa039142194209e739"
                            }
                        ],
                        "constructorArguments": "",
                        "name": "checkContract",
                        "returnParams": [
                            {
                                "name": "",
                                "type": "bool",
                                "value": true
                            }
                        ],
                        "signature": "checkContract(address)"
                    },
                    "errorInfo": "",
                    "fromAddress": "0xe95fe8a40a42acc18ebb7afa2caf01091e936332",
                    "gasUsed": 798,
                    "id": 23,
                    "methodDecoded": true,
                    "operation": "STATICCALL",
                    "output": "0x0000000000000000000000000000000000000000000000000000000000000001",
                    "revert": false,
                    "revertMessage": "",
                    "selector": "0xd7b12454",
                    "status": true,
                    "value": "0"
                },
                "nodeType": 0
            },
            "24": {
                "invocation": {
                    "address": "0xcf953f45029fa5f04c0ed9077100bc72115772d0",
                    "callData": "0x",
                    "decodedMethod": {
                        "callParams": [],
                        "constructorArguments": "",
                        "name": "getParameter",
                        "returnParams": [
                            {
                                "name": "",
                                "type": "uint256",
                                "value": "10"
                            },
                            {
                                "name": "",
                                "type": "uint256",
                                "value": "1,000,000,000,000,000,000"
                            }
                        ],
                        "signature": "getParameter()"
                    },
                    "errorInfo": "",
                    "fromAddress": "0xe95fe8a40a42acc18ebb7afa2caf01091e936332",
                    "gasUsed": 1010,
                    "id": 24,
                    "methodDecoded": true,
                    "operation": "STATICCALL",
                    "output": "0x000000000000000000000000000000000000000000000000000000000000000a0000000000000000000000000000000000000000000000000de0b6b3a7640000",
                    "revert": false,
                    "revertMessage": "",
                    "selector": "0x40f4f7b9",
                    "status": true,
                    "value": "0"
                },
                "nodeType": 0
            },
            "25": {
                "invocation": {
                    "address": "0xcf953f45029fa5f04c0ed9077100bc72115772d0",
                    "callData": "0x00000000000000000000000000000000000000000000008cfb27dd55913cdf4800000000000000000000000087e2a18dd64b8afd5326dfc40013fab0563caff6",
                    "decodedMethod": null,
                    "errorInfo": "",
                    "fromAddress": "0xe95fe8a40a42acc18ebb7afa2caf01091e936332",
                    "gasUsed": 43505,
                    "id": 25,
                    "methodDecoded": false,
                    "operation": "CALL",
                    "output": "",
                    "revert": false,
                    "revertMessage": "",
                    "selector": "0x1b49583b",
                    "status": true,
                    "value": "0"
                },
                "nodeType": 0
            },
            "26": {
                "invocation": {
                    "address": "0x04abeda201850ac0124161f037efd70c74ddc74c",
                    "callData": "0x000000000000000000000000cf953f45029fa5f04c0ed9077100bc72115772d0",
                    "decodedMethod": {
                        "callParams": [
                            {
                                "name": "_owner",
                                "type": "address",
                                "value": "0xcf953f45029fa5f04c0ed9077100bc72115772d0"
                            }
                        ],
                        "constructorArguments": "",
                        "name": "balanceOf",
                        "returnParams": [
                            {
                                "decimalAvailable": true,
                                "name": "",
                                "type": "uint256",
                                "value": "9,968,548,965,454,359,737,812,485,871"
                            }
                        ],
                        "signature": "balanceOf(address)"
                    },
                    "errorInfo": "",
                    "fromAddress": "0xcf953f45029fa5f04c0ed9077100bc72115772d0",
                    "gasUsed": 2954,
                    "id": 26,
                    "methodDecoded": true,
                    "operation": "STATICCALL",
                    "output": "0x00000000000000000000000000000000000000002035ca5a3e624939af0186ef",
                    "revert": false,
                    "revertMessage": "",
                    "selector": "0x70a08231",
                    "status": true,
                    "value": "0"
                },
                "nodeType": 0
            },
            "27": {
                "invocation": {
                    "address": "0x03c513ffbdbda34b4a66b3052fa5e0e6606e531b",
                    "callData": "0x0000000000000000000000000000000000000000000000000000000000000000000000000000000000000000cf953f45029fa5f04c0ed9077100bc72115772d0",
                    "decodedMethod": null,
                    "errorInfo": "",
                    "fromAddress": "0x04abeda201850ac0124161f037efd70c74ddc74c",
                    "gasUsed": 669,
                    "id": 27,
                    "methodDecoded": false,
                    "operation": "DELEGATECALL",
                    "output": "0x00000000000000000000000000000000000000002035ca5a3e624939af0186ef",
                    "revert": false,
                    "revertMessage": "",
                    "selector": "0x4c5e1cae",
                    "status": true,
                    "value": "0"
                },
                "nodeType": 0
            },
            "28": {
                "invocation": {
                    "address": "0x04abeda201850ac0124161f037efd70c74ddc74c",
                    "callData": "0x00000000000000000000000087e2a18dd64b8afd5326dfc40013fab0563caff600000000000000000000000000000000000000000000008cfb27dd55913cdf48",
                    "decodedMethod": {
                        "callParams": [
                            {
                                "name": "_to",
                                "type": "address",
                                "value": "0x87e2a18dd64b8afd5326dfc40013fab0563caff6"
                            },
                            {
                                "decimalAvailable": true,
                                "name": "_value",
                                "type": "uint256",
                                "value": "2,600,641,847,306,527,498,056"
                            }
                        ],
                        "constructorArguments": "",
                        "name": "transfer",
                        "returnParams": [
                            {
                                "name": "",
                                "type": "bool",
                                "value": true
                            }
                        ],
                        "signature": "transfer(address,uint256)"
                    },
                    "errorInfo": "",
                    "fromAddress": "0xcf953f45029fa5f04c0ed9077100bc72115772d0",
                    "gasUsed": 25563,
                    "id": 28,
                    "methodDecoded": true,
                    "operation": "CALL",
                    "output": "0x0000000000000000000000000000000000000000000000000000000000000001",
                    "revert": false,
                    "revertMessage": "",
                    "selector": "0xa9059cbb",
                    "status": true,
                    "value": "0"
                },
                "nodeType": 0
            },
            "29": {
                "invocation": {
                    "address": "0x03c513ffbdbda34b4a66b3052fa5e0e6606e531b",
                    "callData": "0x0000000000000000000000000000000000000000000000000000000000000000000000000000000000000000cf953f45029fa5f04c0ed9077100bc72115772d0",
                    "decodedMethod": null,
                    "errorInfo": "",
                    "fromAddress": "0x04abeda201850ac0124161f037efd70c74ddc74c",
                    "gasUsed": 669,
                    "id": 29,
                    "methodDecoded": false,
                    "operation": "DELEGATECALL",
                    "output": "0x00000000000000000000000000000000000000002035ca5a3e624939af0186ef",
                    "revert": false,
                    "revertMessage": "",
                    "selector": "0x4c5e1cae",
                    "status": true,
                    "value": "0"
                },
                "nodeType": 0
            },
            "3": {
                "invocation": {
                    "address": "0xcd24263cc3fbed87f8cddafa039142194209e739",
                    "callData": "0x",
                    "decodedMethod": null,
                    "errorInfo": "",
                    "fromAddress": "0x27156f672cf277d83a58170d21c1c2211b00d0db",
                    "gasUsed": 448,
                    "id": 3,
                    "methodDecoded": false,
                    "operation": "STATICCALL",
                    "output": "0x00000000000000000000000000000000000000000000002b5e3af16b18800000",
                    "revert": false,
                    "revertMessage": "",
                    "selector": "0x6de4928d",
                    "status": true,
                    "value": "0"
                },
                "nodeType": 0
            },
            "30": {
                "invocation": {
                    "address": "0x03c513ffbdbda34b4a66b3052fa5e0e6606e531b",
                    "callData": "0x0000000000000000000000000000000000000000000000000000000000000000000000000000000000000000cf953f45029fa5f04c0ed9077100bc72115772d0",
                    "decodedMethod": null,
                    "errorInfo": "",
                    "fromAddress": "0x04abeda201850ac0124161f037efd70c74ddc74c",
                    "gasUsed": 669,
                    "id": 30,
                    "methodDecoded": false,
                    "operation": "DELEGATECALL",
                    "output": "0x00000000000000000000000000000000000000002035ca5a3e624939af0186ef",
                    "revert": false,
                    "revertMessage": "",
                    "selector": "0x4c5e1cae",
                    "status": true,
                    "value": "0"
                },
                "nodeType": 0
            },
            "31": {
                "invocation": {
                    "address": "0x03c513ffbdbda34b4a66b3052fa5e0e6606e531b",
                    "callData": "0x0000000000000000000000000000000000000000000000000000000000000000000000000000000000000000cf953f45029fa5f04c0ed9077100bc72115772d000000000000000000000000000000000000000002035c9cd433a6be41dc4a7a7",
                    "decodedMethod": null,
                    "errorInfo": "",
                    "fromAddress": "0x04abeda201850ac0124161f037efd70c74ddc74c",
                    "gasUsed": 5896,
                    "id": 31,
                    "methodDecoded": false,
                    "operation": "DELEGATECALL",
                    "output": "0x0000000000000000000000000000000000000000000000000000000000000001",
                    "revert": false,
                    "revertMessage": "",
                    "selector": "0xab517b4f",
                    "status": true,
                    "value": "0"
                },
                "nodeType": 0
            },
            "32": {
                "invocation": {
                    "address": "0x03c513ffbdbda34b4a66b3052fa5e0e6606e531b",
                    "callData": "0x000000000000000000000000000000000000000000000000000000000000000000000000000000000000000087e2a18dd64b8afd5326dfc40013fab0563caff6",
                    "decodedMethod": null,
                    "errorInfo": "",
                    "fromAddress": "0x04abeda201850ac0124161f037efd70c74ddc74c",
                    "gasUsed": 669,
                    "id": 32,
                    "methodDecoded": false,
                    "operation": "DELEGATECALL",
                    "output": "0x0000000000000000000000000000000000000000000028dffa4dff2ee29c6eea",
                    "revert": false,
                    "revertMessage": "",
                    "selector": "0x4c5e1cae",
                    "status": true,
                    "value": "0"
                },
                "nodeType": 0
            },
            "33": {
                "invocation": {
                    "address": "0x03c513ffbdbda34b4a66b3052fa5e0e6606e531b",
                    "callData": "0x000000000000000000000000000000000000000000000000000000000000000000000000000000000000000087e2a18dd64b8afd5326dfc40013fab0563caff600000000000000000000000000000000000000000000296cf575dc8473d94e32",
                    "decodedMethod": null,
                    "errorInfo": "",
                    "fromAddress": "0x04abeda201850ac0124161f037efd70c74ddc74c",
                    "gasUsed": 5896,
                    "id": 33,
                    "methodDecoded": false,
                    "operation": "DELEGATECALL",
                    "output": "0x0000000000000000000000000000000000000000000000000000000000000001",
                    "revert": false,
                    "revertMessage": "",
                    "selector": "0xab517b4f",
                    "status": true,
                    "value": "0"
                },
                "nodeType": 0
            },
            "34": {
                "event": {
                    "contract": "0x04abeda201850ac0124161f037efd70c74ddc74c",
                    "decodedLog": {
                        "name": "Transfer",
                        "params": [
                            {
                                "name": "from",
                                "type": "address",
                                "value": "0xcf953f45029fa5f04c0ed9077100bc72115772d0"
                            },
                            {
                                "name": "to",
                                "type": "address",
                                "value": "0x87e2a18dd64b8afd5326dfc40013fab0563caff6"
                            },
                            {
                                "decimalAvailable": true,
                                "name": "value",
                                "type": "uint256",
                                "value": "2,600,641,847,306,527,498,056"
                            }
                        ],
                        "signature": "Transfer(address,address,uint256)"
                    },
                    "id": 34,
                    "logData": "0x00000000000000000000000000000000000000000000008cfb27dd55913cdf48",
                    "logDecoded": true,
                    "operation": "EVENT",
                    "revert": false,
                    "status": true,
                    "topics": [
                        "0xddf252ad1be2c89b69c2b068fc378daa952ba7f163c4a11628f55a4df523b3ef",
                        "0x000000000000000000000000cf953f45029fa5f04c0ed9077100bc72115772d0",
                        "0x00000000000000000000000087e2a18dd64b8afd5326dfc40013fab0563caff6"
                    ]
                },
                "nodeType": 1
            },
            "35": {
                "invocation": {
                    "address": "0xcf953f45029fa5f04c0ed9077100bc72115772d0",
                    "callData": "0x0000000000000000000000000000000000000000000000233ec9f755644f37d200000000000000000000000038f0a56b94b581c2c855640c28c1595fdb9bbe8a",
                    "decodedMethod": null,
                    "errorInfo": "",
                    "fromAddress": "0xe95fe8a40a42acc18ebb7afa2caf01091e936332",
                    "gasUsed": 43505,
                    "id": 35,
                    "methodDecoded": false,
                    "operation": "CALL",
                    "output": "",
                    "revert": false,
                    "revertMessage": "",
                    "selector": "0x1b49583b",
                    "status": true,
                    "value": "0"
                },
                "nodeType": 0
            },
            "36": {
                "invocation": {
                    "address": "0x04abeda201850ac0124161f037efd70c74ddc74c",
                    "callData": "0x000000000000000000000000cf953f45029fa5f04c0ed9077100bc72115772d0",
                    "decodedMethod": {
                        "callParams": [
                            {
                                "name": "_owner",
                                "type": "address",
                                "value": "0xcf953f45029fa5f04c0ed9077100bc72115772d0"
                            }
                        ],
                        "constructorArguments": "",
                        "name": "balanceOf",
                        "returnParams": [
                            {
                                "decimalAvailable": true,
                                "name": "",
                                "type": "uint256",
                                "value": "9,968,546,364,812,512,431,284,987,815"
                            }
                        ],
                        "signature": "balanceOf(address)"
                    },
                    "errorInfo": "",
                    "fromAddress": "0xcf953f45029fa5f04c0ed9077100bc72115772d0",
                    "gasUsed": 2954,
                    "id": 36,
                    "methodDecoded": true,
                    "operation": "STATICCALL",
                    "output": "0x00000000000000000000000000000000000000002035c9cd433a6be41dc4a7a7",
                    "revert": false,
                    "revertMessage": "",
                    "selector": "0x70a08231",
                    "status": true,
                    "value": "0"
                },
                "nodeType": 0
            },
            "37": {
                "invocation": {
                    "address": "0x03c513ffbdbda34b4a66b3052fa5e0e6606e531b",
                    "callData": "0x0000000000000000000000000000000000000000000000000000000000000000000000000000000000000000cf953f45029fa5f04c0ed9077100bc72115772d0",
                    "decodedMethod": null,
                    "errorInfo": "",
                    "fromAddress": "0x04abeda201850ac0124161f037efd70c74ddc74c",
                    "gasUsed": 669,
                    "id": 37,
                    "methodDecoded": false,
                    "operation": "DELEGATECALL",
                    "output": "0x00000000000000000000000000000000000000002035c9cd433a6be41dc4a7a7",
                    "revert": false,
                    "revertMessage": "",
                    "selector": "0x4c5e1cae",
                    "status": true,
                    "value": "0"
                },
                "nodeType": 0
            },
            "38": {
                "invocation": {
                    "address": "0x04abeda201850ac0124161f037efd70c74ddc74c",
                    "callData": "0x00000000000000000000000038f0a56b94b581c2c855640c28c1595fdb9bbe8a0000000000000000000000000000000000000000000000233ec9f755644f37d2",
                    "decodedMethod": {
                        "callParams": [
                            {
                                "name": "_to",
                                "type": "address",
                                "value": "0x38f0a56b94b581c2c855640c28c1595fdb9bbe8a"
                            },
                            {
                                "decimalAvailable": true,
                                "name": "_value",
                                "type": "uint256",
                                "value": "650,160,461,826,631,874,514"
                            }
                        ],
                        "constructorArguments": "",
                        "name": "transfer",
                        "returnParams": [
                            {
                                "name": "",
                                "type": "bool",
                                "value": true
                            }
                        ],
                        "signature": "transfer(address,uint256)"
                    },
                    "errorInfo": "",
                    "fromAddress": "0xcf953f45029fa5f04c0ed9077100bc72115772d0",
                    "gasUsed": 25563,
                    "id": 38,
                    "methodDecoded": true,
                    "operation": "CALL",
                    "output": "0x0000000000000000000000000000000000000000000000000000000000000001",
                    "revert": false,
                    "revertMessage": "",
                    "selector": "0xa9059cbb",
                    "status": true,
                    "value": "0"
                },
                "nodeType": 0
            },
            "39": {
                "invocation": {
                    "address": "0x03c513ffbdbda34b4a66b3052fa5e0e6606e531b",
                    "callData": "0x0000000000000000000000000000000000000000000000000000000000000000000000000000000000000000cf953f45029fa5f04c0ed9077100bc72115772d0",
                    "decodedMethod": null,
                    "errorInfo": "",
                    "fromAddress": "0x04abeda201850ac0124161f037efd70c74ddc74c",
                    "gasUsed": 669,
                    "id": 39,
                    "methodDecoded": false,
                    "operation": "DELEGATECALL",
                    "output": "0x00000000000000000000000000000000000000002035c9cd433a6be41dc4a7a7",
                    "revert": false,
                    "revertMessage": "",
                    "selector": "0x4c5e1cae",
                    "status": true,
                    "value": "0"
                },
                "nodeType": 0
            },
            "4": {
                "invocation": {
                    "address": "0xcd24263cc3fbed87f8cddafa039142194209e739",
                    "callData": "0x",
                    "decodedMethod": null,
                    "errorInfo": "",
                    "fromAddress": "0x27156f672cf277d83a58170d21c1c2211b00d0db",
                    "gasUsed": 580,
                    "id": 4,
                    "methodDecoded": false,
                    "operation": "STATICCALL",
                    "output": "0x0000000000000000000000000000000000085d4780b73119b644ae5ecd22b376",
                    "revert": false,
                    "revertMessage": "",
                    "selector": "0x29e73df2",
                    "status": true,
                    "value": "0"
                },
                "nodeType": 0
            },
            "40": {
                "invocation": {
                    "address": "0x03c513ffbdbda34b4a66b3052fa5e0e6606e531b",
                    "callData": "0x0000000000000000000000000000000000000000000000000000000000000000000000000000000000000000cf953f45029fa5f04c0ed9077100bc72115772d0",
                    "decodedMethod": null,
                    "errorInfo": "",
                    "fromAddress": "0x04abeda201850ac0124161f037efd70c74ddc74c",
                    "gasUsed": 669,
                    "id": 40,
                    "methodDecoded": false,
                    "operation": "DELEGATECALL",
                    "output": "0x00000000000000000000000000000000000000002035c9cd433a6be41dc4a7a7",
                    "revert": false,
                    "revertMessage": "",
                    "selector": "0x4c5e1cae",
                    "status": true,
                    "value": "0"
                },
                "nodeType": 0
            },
            "41": {
                "invocation": {
                    "address": "0x03c513ffbdbda34b4a66b3052fa5e0e6606e531b",
                    "callData": "0x0000000000000000000000000000000000000000000000000000000000000000000000000000000000000000cf953f45029fa5f04c0ed9077100bc72115772d000000000000000000000000000000000000000002035c9aa0470748eb9756fd5",
                    "decodedMethod": null,
                    "errorInfo": "",
                    "fromAddress": "0x04abeda201850ac0124161f037efd70c74ddc74c",
                    "gasUsed": 5896,
                    "id": 41,
                    "methodDecoded": false,
                    "operation": "DELEGATECALL",
                    "output": "0x0000000000000000000000000000000000000000000000000000000000000001",
                    "revert": false,
                    "revertMessage": "",
                    "selector": "0xab517b4f",
                    "status": true,
                    "value": "0"
                },
                "nodeType": 0
            },
            "42": {
                "invocation": {
                    "address": "0x03c513ffbdbda34b4a66b3052fa5e0e6606e531b",
                    "callData": "0x000000000000000000000000000000000000000000000000000000000000000000000000000000000000000038f0a56b94b581c2c855640c28c1595fdb9bbe8a",
                    "decodedMethod": null,
                    "errorInfo": "",
                    "fromAddress": "0x04abeda201850ac0124161f037efd70c74ddc74c",
                    "gasUsed": 669,
                    "id": 42,
                    "methodDecoded": false,
                    "operation": "DELEGATECALL",
                    "output": "0x0000000000000000000000000000000000000000000010ca111fe5f75dc9c07a",
                    "revert": false,
                    "revertMessage": "",
                    "selector": "0x4c5e1cae",
                    "status": true,
                    "value": "0"
                },
                "nodeType": 0
            },
            "43": {
                "invocation": {
                    "address": "0x03c513ffbdbda34b4a66b3052fa5e0e6606e531b",
                    "callData": "0x000000000000000000000000000000000000000000000000000000000000000000000000000000000000000038f0a56b94b581c2c855640c28c1595fdb9bbe8a0000000000000000000000000000000000000000000010ed4fe9dd4cc218f84c",
                    "decodedMethod": null,
                    "errorInfo": "",
                    "fromAddress": "0x04abeda201850ac0124161f037efd70c74ddc74c",
                    "gasUsed": 5896,
                    "id": 43,
                    "methodDecoded": false,
                    "operation": "DELEGATECALL",
                    "output": "0x0000000000000000000000000000000000000000000000000000000000000001",
                    "revert": false,
                    "revertMessage": "",
                    "selector": "0xab517b4f",
                    "status": true,
                    "value": "0"
                },
                "nodeType": 0
            },
            "44": {
                "event": {
                    "contract": "0x04abeda201850ac0124161f037efd70c74ddc74c",
                    "decodedLog": {
                        "name": "Transfer",
                        "params": [
                            {
                                "name": "from",
                                "type": "address",
                                "value": "0xcf953f45029fa5f04c0ed9077100bc72115772d0"
                            },
                            {
                                "name": "to",
                                "type": "address",
                                "value": "0x38f0a56b94b581c2c855640c28c1595fdb9bbe8a"
                            },
                            {
                                "decimalAvailable": true,
                                "name": "value",
                                "type": "uint256",
                                "value": "650,160,461,826,631,874,514"
                            }
                        ],
                        "signature": "Transfer(address,address,uint256)"
                    },
                    "id": 44,
                    "logData": "0x0000000000000000000000000000000000000000000000233ec9f755644f37d2",
                    "logDecoded": true,
                    "operation": "EVENT",
                    "revert": false,
                    "status": true,
                    "topics": [
                        "0xddf252ad1be2c89b69c2b068fc378daa952ba7f163c4a11628f55a4df523b3ef",
                        "0x000000000000000000000000cf953f45029fa5f04c0ed9077100bc72115772d0",
                        "0x00000000000000000000000038f0a56b94b581c2c855640c28c1595fdb9bbe8a"
                    ]
                },
                "nodeType": 1
            },
            "45": {
                "invocation": {
                    "address": "0x5e7db2ffc5b2c7c47103e4f21c702bc402603fbf",
                    "callData": "0x000000000000000000000000000000000000000000000000000000000000002000000000000000000000000000000000000000000000000000000000000000076765746e65737400000000000000000000000000000000000000000000000000",
                    "decodedMethod": {
                        "callParams": [
                            {
                                "name": "name",
                                "type": "string",
                                "value": "getnest"
                            }
                        ],
                        "constructorArguments": "",
                        "name": "checkAddress",
                        "returnParams": [
                            {
                                "name": "contractAddress",
                                "type": "address",
                                "value": "0x5c778c9075fb83cadfe9456ef3c3bacd3bdefe71"
                            }
                        ],
                        "signature": "checkAddress(string)"
                    },
                    "errorInfo": "",
                    "fromAddress": "0xe95fe8a40a42acc18ebb7afa2caf01091e936332",
                    "gasUsed": 1205,
                    "id": 45,
                    "methodDecoded": true,
                    "operation": "STATICCALL",
                    "output": "0x0000000000000000000000005c778c9075fb83cadfe9456ef3c3bacd3bdefe71",
                    "revert": false,
                    "revertMessage": "",
                    "selector": "0x8fe77e86",
                    "status": true,
                    "value": "0"
                },
                "nodeType": 0
            },
            "46": {
                "invocation": {
                    "address": "0xcf953f45029fa5f04c0ed9077100bc72115772d0",
                    "callData": "0x00000000000000000000000000000000000000000000002c0e7c752abd6305c60000000000000000000000005c778c9075fb83cadfe9456ef3c3bacd3bdefe71",
                    "decodedMethod": null,
                    "errorInfo": "",
                    "fromAddress": "0xe95fe8a40a42acc18ebb7afa2caf01091e936332",
                    "gasUsed": 43505,
                    "id": 46,
                    "methodDecoded": false,
                    "operation": "CALL",
                    "output": "",
                    "revert": false,
                    "revertMessage": "",
                    "selector": "0x1b49583b",
                    "status": true,
                    "value": "0"
                },
                "nodeType": 0
            },
            "47": {
                "invocation": {
                    "address": "0x04abeda201850ac0124161f037efd70c74ddc74c",
                    "callData": "0x000000000000000000000000cf953f45029fa5f04c0ed9077100bc72115772d0",
                    "decodedMethod": {
                        "callParams": [
                            {
                                "name": "_owner",
                                "type": "address",
                                "value": "0xcf953f45029fa5f04c0ed9077100bc72115772d0"
                            }
                        ],
                        "constructorArguments": "",
                        "name": "balanceOf",
                        "returnParams": [
                            {
                                "decimalAvailable": true,
                                "name": "",
                                "type": "uint256",
                                "value": "9,968,545,714,652,050,604,653,113,301"
                            }
                        ],
                        "signature": "balanceOf(address)"
                    },
                    "errorInfo": "",
                    "fromAddress": "0xcf953f45029fa5f04c0ed9077100bc72115772d0",
                    "gasUsed": 2954,
                    "id": 47,
                    "methodDecoded": true,
                    "operation": "STATICCALL",
                    "output": "0x00000000000000000000000000000000000000002035c9aa0470748eb9756fd5",
                    "revert": false,
                    "revertMessage": "",
                    "selector": "0x70a08231",
                    "status": true,
                    "value": "0"
                },
                "nodeType": 0
            },
            "48": {
                "invocation": {
                    "address": "0x03c513ffbdbda34b4a66b3052fa5e0e6606e531b",
                    "callData": "0x0000000000000000000000000000000000000000000000000000000000000000000000000000000000000000cf953f45029fa5f04c0ed9077100bc72115772d0",
                    "decodedMethod": null,
                    "errorInfo": "",
                    "fromAddress": "0x04abeda201850ac0124161f037efd70c74ddc74c",
                    "gasUsed": 669,
                    "id": 48,
                    "methodDecoded": false,
                    "operation": "DELEGATECALL",
                    "output": "0x00000000000000000000000000000000000000002035c9aa0470748eb9756fd5",
                    "revert": false,
                    "revertMessage": "",
                    "selector": "0x4c5e1cae",
                    "status": true,
                    "value": "0"
                },
                "nodeType": 0
            },
            "49": {
                "invocation": {
                    "address": "0x04abeda201850ac0124161f037efd70c74ddc74c",
                    "callData": "0x0000000000000000000000005c778c9075fb83cadfe9456ef3c3bacd3bdefe7100000000000000000000000000000000000000000000002c0e7c752abd6305c6",
                    "decodedMethod": {
                        "callParams": [
                            {
                                "name": "_to",
                                "type": "address",
                                "value": "0x5c778c9075fb83cadfe9456ef3c3bacd3bdefe71"
                            },
                            {
                                "decimalAvailable": true,
                                "name": "_value",
                                "type": "uint256",
                                "value": "812,700,577,283,289,843,142"
                            }
                        ],
                        "constructorArguments": "",
                        "name": "transfer",
                        "returnParams": [
                            {
                                "name": "",
                                "type": "bool",
                                "value": true
                            }
                        ],
                        "signature": "transfer(address,uint256)"
                    },
                    "errorInfo": "",
                    "fromAddress": "0xcf953f45029fa5f04c0ed9077100bc72115772d0",
                    "gasUsed": 25563,
                    "id": 49,
                    "methodDecoded": true,
                    "operation": "CALL",
                    "output": "0x0000000000000000000000000000000000000000000000000000000000000001",
                    "revert": false,
                    "revertMessage": "",
                    "selector": "0xa9059cbb",
                    "status": true,
                    "value": "0"
                },
                "nodeType": 0
            },
            "5": {
                "invocation": {
                    "address": "0x0000000000085d4780b73119b644ae5ecd22b376",
                    "callData": "0x00000000000000000000000038f0a56b94b581c2c855640c28c1595fdb9bbe8a",
                    "decodedMethod": {
                        "callParams": [
                            {
                                "name": "_who",
                                "type": "address",
                                "value": "0x38f0a56b94b581c2c855640c28c1595fdb9bbe8a"
                            }
                        ],
                        "constructorArguments": "",
                        "name": "balanceOf",
                        "returnParams": [
                            {
                                "decimalAvailable": true,
                                "name": "",
                                "type": "uint256",
                                "value": "804,270,000,000,000,000,000"
                            }
                        ],
                        "signature": "balanceOf(address)"
                    },
                    "errorInfo": "",
                    "fromAddress": "0x27156f672cf277d83a58170d21c1c2211b00d0db",
                    "gasUsed": 2435,
                    "id": 5,
                    "methodDecoded": true,
                    "operation": "STATICCALL",
                    "output": "0x00000000000000000000000000000000000000000000002b997d07cb7f6b0000",
                    "revert": false,
                    "revertMessage": "",
                    "selector": "0x70a08231",
                    "status": true,
                    "value": "0"
                },
                "nodeType": 0
            },
            "50": {
                "invocation": {
                    "address": "0x03c513ffbdbda34b4a66b3052fa5e0e6606e531b",
                    "callData": "0x0000000000000000000000000000000000000000000000000000000000000000000000000000000000000000cf953f45029fa5f04c0ed9077100bc72115772d0",
                    "decodedMethod": null,
                    "errorInfo": "",
                    "fromAddress": "0x04abeda201850ac0124161f037efd70c74ddc74c",
                    "gasUsed": 669,
                    "id": 50,
                    "methodDecoded": false,
                    "operation": "DELEGATECALL",
                    "output": "0x00000000000000000000000000000000000000002035c9aa0470748eb9756fd5",
                    "revert": false,
                    "revertMessage": "",
                    "selector": "0x4c5e1cae",
                    "status": true,
                    "value": "0"
                },
                "nodeType": 0
            },
            "51": {
                "invocation": {
                    "address": "0x03c513ffbdbda34b4a66b3052fa5e0e6606e531b",
                    "callData": "0x0000000000000000000000000000000000000000000000000000000000000000000000000000000000000000cf953f45029fa5f04c0ed9077100bc72115772d0",
                    "decodedMethod": null,
                    "errorInfo": "",
                    "fromAddress": "0x04abeda201850ac0124161f037efd70c74ddc74c",
                    "gasUsed": 669,
                    "id": 51,
                    "methodDecoded": false,
                    "operation": "DELEGATECALL",
                    "output": "0x00000000000000000000000000000000000000002035c9aa0470748eb9756fd5",
                    "revert": false,
                    "revertMessage": "",
                    "selector": "0x4c5e1cae",
                    "status": true,
                    "value": "0"
                },
                "nodeType": 0
            },
            "52": {
                "invocation": {
                    "address": "0x03c513ffbdbda34b4a66b3052fa5e0e6606e531b",
                    "callData": "0x0000000000000000000000000000000000000000000000000000000000000000000000000000000000000000cf953f45029fa5f04c0ed9077100bc72115772d000000000000000000000000000000000000000002035c97df5f3ff63fc126a0f",
                    "decodedMethod": null,
                    "errorInfo": "",
                    "fromAddress": "0x04abeda201850ac0124161f037efd70c74ddc74c",
                    "gasUsed": 5896,
                    "id": 52,
                    "methodDecoded": false,
                    "operation": "DELEGATECALL",
                    "output": "0x0000000000000000000000000000000000000000000000000000000000000001",
                    "revert": false,
                    "revertMessage": "",
                    "selector": "0xab517b4f",
                    "status": true,
                    "value": "0"
                },
                "nodeType": 0
            },
            "53": {
                "invocation": {
                    "address": "0x03c513ffbdbda34b4a66b3052fa5e0e6606e531b",
                    "callData": "0x00000000000000000000000000000000000000000000000000000000000000000000000000000000000000005c778c9075fb83cadfe9456ef3c3bacd3bdefe71",
                    "decodedMethod": null,
                    "errorInfo": "",
                    "fromAddress": "0x04abeda201850ac0124161f037efd70c74ddc74c",
                    "gasUsed": 669,
                    "id": 53,
                    "methodDecoded": false,
                    "operation": "DELEGATECALL",
                    "output": "0x00000000000000000000000000000000000000000003cc3e375e1211bd5d4886",
                    "revert": false,
                    "revertMessage": "",
                    "selector": "0x4c5e1cae",
                    "status": true,
                    "value": "0"
                },
                "nodeType": 0
            },
            "54": {
                "invocation": {
                    "address": "0x03c513ffbdbda34b4a66b3052fa5e0e6606e531b",
                    "callData": "0x00000000000000000000000000000000000000000000000000000000000000000000000000000000000000005c778c9075fb83cadfe9456ef3c3bacd3bdefe7100000000000000000000000000000000000000000003cc6a45da873c7ac04e4c",
                    "decodedMethod": null,
                    "errorInfo": "",
                    "fromAddress": "0x04abeda201850ac0124161f037efd70c74ddc74c",
                    "gasUsed": 5896,
                    "id": 54,
                    "methodDecoded": false,
                    "operation": "DELEGATECALL",
                    "output": "0x0000000000000000000000000000000000000000000000000000000000000001",
                    "revert": false,
                    "revertMessage": "",
                    "selector": "0xab517b4f",
                    "status": true,
                    "value": "0"
                },
                "nodeType": 0
            },
            "55": {
                "event": {
                    "contract": "0x04abeda201850ac0124161f037efd70c74ddc74c",
                    "decodedLog": {
                        "name": "Transfer",
                        "params": [
                            {
                                "name": "from",
                                "type": "address",
                                "value": "0xcf953f45029fa5f04c0ed9077100bc72115772d0"
                            },
                            {
                                "name": "to",
                                "type": "address",
                                "value": "0x5c778c9075fb83cadfe9456ef3c3bacd3bdefe71"
                            },
                            {
                                "decimalAvailable": true,
                                "name": "value",
                                "type": "uint256",
                                "value": "812,700,577,283,289,843,142"
                            }
                        ],
                        "signature": "Transfer(address,address,uint256)"
                    },
                    "id": 55,
                    "logData": "0x00000000000000000000000000000000000000000000002c0e7c752abd6305c6",
                    "logDecoded": true,
                    "operation": "EVENT",
                    "revert": false,
                    "status": true,
                    "topics": [
                        "0xddf252ad1be2c89b69c2b068fc378daa952ba7f163c4a11628f55a4df523b3ef",
                        "0x000000000000000000000000cf953f45029fa5f04c0ed9077100bc72115772d0",
                        "0x0000000000000000000000005c778c9075fb83cadfe9456ef3c3bacd3bdefe71"
                    ]
                },
                "nodeType": 1
            },
            "6": {
                "invocation": {
                    "address": "0xcb9a11afdc6bdb92e4a6235959455f28758b34ba",
                    "callData": "0x00000000000000000000000038f0a56b94b581c2c855640c28c1595fdb9bbe8a",
                    "decodedMethod": {
                        "callParams": [
                            {
                                "name": "_who",
                                "type": "address",
                                "value": "0x38f0a56b94b581c2c855640c28c1595fdb9bbe8a"
                            }
                        ],
                        "constructorArguments": "",
                        "name": "balanceOf",
                        "returnParams": [
                            {
                                "decimalAvailable": true,
                                "name": "",
                                "type": "uint256",
                                "value": "804,270,000,000,000,000,000"
                            }
                        ],
                        "signature": "balanceOf(address)"
                    },
                    "errorInfo": "",
                    "fromAddress": "0x0000000000085d4780b73119b644ae5ecd22b376",
                    "gasUsed": 1036,
                    "id": 6,
                    "methodDecoded": true,
                    "operation": "DELEGATECALL",
                    "output": "0x00000000000000000000000000000000000000000000002b997d07cb7f6b0000",
                    "revert": false,
                    "revertMessage": "",
                    "selector": "0x70a08231",
                    "status": true,
                    "value": "0"
                },
                "nodeType": 0
            },
            "7": {
                "invocation": {
                    "address": "0xcd24263cc3fbed87f8cddafa039142194209e739",
                    "callData": "0x",
                    "decodedMethod": null,
                    "errorInfo": "",
                    "fromAddress": "0x27156f672cf277d83a58170d21c1c2211b00d0db",
                    "gasUsed": 448,
                    "id": 7,
                    "methodDecoded": false,
                    "operation": "STATICCALL",
                    "output": "0x00000000000000000000000000000000000000000000002b5e3af16b18800000",
                    "revert": false,
                    "revertMessage": "",
                    "selector": "0x6de4928d",
                    "status": true,
                    "value": "0"
                },
                "nodeType": 0
            },
            "8": {
                "invocation": {
                    "address": "0xcd24263cc3fbed87f8cddafa039142194209e739",
                    "callData": "0x",
                    "decodedMethod": null,
                    "errorInfo": "",
                    "fromAddress": "0x27156f672cf277d83a58170d21c1c2211b00d0db",
                    "gasUsed": 580,
                    "id": 8,
                    "methodDecoded": false,
                    "operation": "STATICCALL",
                    "output": "0x0000000000000000000000000000000000085d4780b73119b644ae5ecd22b376",
                    "revert": false,
                    "revertMessage": "",
                    "selector": "0x29e73df2",
                    "status": true,
                    "value": "0"
                },
                "nodeType": 0
            },
            "9": {
                "invocation": {
                    "address": "0x0000000000085d4780b73119b644ae5ecd22b376",
                    "callData": "0x00000000000000000000000038f0a56b94b581c2c855640c28c1595fdb9bbe8a00000000000000000000000027156f672cf277d83a58170d21c1c2211b00d0db",
                    "decodedMethod": {
                        "callParams": [
                            {
                                "name": "_who",
                                "type": "address",
                                "value": "0x38f0a56b94b581c2c855640c28c1595fdb9bbe8a"
                            },
                            {
                                "name": "_spender",
                                "type": "address",
                                "value": "0x27156f672cf277d83a58170d21c1c2211b00d0db"
                            }
                        ],
                        "constructorArguments": "",
                        "name": "allowance",
                        "returnParams": [
                            {
                                "decimalAvailable": true,
                                "name": "",
                                "type": "uint256",
                                "value": "800,000,000,000,000,000,000"
                            }
                        ],
                        "signature": "allowance(address,address)"
                    },
                    "errorInfo": "",
                    "fromAddress": "0x27156f672cf277d83a58170d21c1c2211b00d0db",
                    "gasUsed": 2878,
                    "id": 9,
                    "methodDecoded": true,
                    "operation": "STATICCALL",
                    "output": "0x00000000000000000000000000000000000000000000002b5e3af16b18800000",
                    "revert": false,
                    "revertMessage": "",
                    "selector": "0xdd62ed3e",
                    "status": true,
                    "value": "0"
                },
                "nodeType": 0
            }
        },
        "gasFlame": [
            {
                "children": [
                    {
                        "children": [
                            {
                                "children": [],
                                "depth": 0,
                                "name": "Initial Gas",
                                "value": 22680
                            },
                            {
                                "children": [
                                    {
                                        "children": [],
                                        "depth": 1,
                                        "name": "checkContract",
                                        "value": 798
                                    },
                                    {
                                        "children": [],
                                        "depth": 1,
                                        "name": "0x5cf2c0dd",
                                        "value": 2419
                                    },
                                    {
                                        "children": [],
                                        "depth": 1,
                                        "name": "0x6de4928d",
                                        "value": 448
                                    },
                                    {
                                        "children": [],
                                        "depth": 1,
                                        "name": "0x29e73df2",
                                        "value": 580
                                    },
                                    {
                                        "children": [
                                            {
                                                "children": [],
                                                "depth": 2,
                                                "name": "balanceOf",
                                                "value": 1036
                                            }
                                        ],
                                        "depth": 1,
                                        "name": "balanceOf",
                                        "value": 2435
                                    },
                                    {
                                        "children": [],
                                        "depth": 1,
                                        "name": "0x6de4928d",
                                        "value": 448
                                    },
                                    {
                                        "children": [],
                                        "depth": 1,
                                        "name": "0x29e73df2",
                                        "value": 580
                                    },
                                    {
                                        "children": [
                                            {
                                                "children": [],
                                                "depth": 2,
                                                "name": "allowance",
                                                "value": 1473
                                            }
                                        ],
                                        "depth": 1,
                                        "name": "allowance",
                                        "value": 2878
                                    },
                                    {
                                        "children": [],
                                        "depth": 1,
                                        "name": "0x29e73df2",
                                        "value": 580
                                    },
                                    {
                                        "children": [],
                                        "depth": 1,
                                        "name": "0x594837cf",
                                        "value": 645
                                    },
                                    {
                                        "children": [],
                                        "depth": 1,
                                        "name": "0x6de4928d",
                                        "value": 448
                                    },
                                    {
                                        "children": [
                                            {
                                                "children": [],
                                                "depth": 2,
                                                "name": "transferFrom",
                                                "value": 31121
                                            }
                                        ],
                                        "depth": 1,
                                        "name": "transferFrom",
                                        "value": 32532
                                    },
                                    {
                                        "children": [
                                            {
                                                "children": [],
                                                "depth": 2,
                                                "name": "checkAddress",
                                                "value": 1205
                                            },
                                            {
                                                "children": [],
                                                "depth": 2,
                                                "name": "checkAddress",
                                                "value": 1205
                                            },
                                            {
                                                "children": [],
                                                "depth": 2,
                                                "name": "fallback",
                                                "value": 40
                                            },
                                            {
                                                "children": [],
                                                "depth": 2,
                                                "name": "checkAddress",
                                                "value": 1205
                                            },
                                            {
                                                "children": [
                                                    {
                                                        "children": [],
                                                        "depth": 3,
                                                        "name": "checkContract",
                                                        "value": 798
                                                    },
                                                    {
                                                        "children": [],
                                                        "depth": 3,
                                                        "name": "getParameter",
                                                        "value": 1010
                                                    },
                                                    {
                                                        "children": [
                                                            {
                                                                "children": [
                                                                    {
                                                                        "children": [],
                                                                        "depth": 5,
                                                                        "name": "0x4c5e1cae",
                                                                        "value": 669
                                                                    }
                                                                ],
                                                                "depth": 4,
                                                                "name": "balanceOf",
                                                                "value": 2954
                                                            },
                                                            {
                                                                "children": [
                                                                    {
                                                                        "children": [],
                                                                        "depth": 5,
                                                                        "name": "0x4c5e1cae",
                                                                        "value": 669
                                                                    },
                                                                    {
                                                                        "children": [],
                                                                        "depth": 5,
                                                                        "name": "0x4c5e1cae",
                                                                        "value": 669
                                                                    },
                                                                    {
                                                                        "children": [],
                                                                        "depth": 5,
                                                                        "name": "0xab517b4f",
                                                                        "value": 5896
                                                                    },
                                                                    {
                                                                        "children": [],
                                                                        "depth": 5,
                                                                        "name": "0x4c5e1cae",
                                                                        "value": 669
                                                                    },
                                                                    {
                                                                        "children": [],
                                                                        "depth": 5,
                                                                        "name": "0xab517b4f",
                                                                        "value": 5896
                                                                    }
                                                                ],
                                                                "depth": 4,
                                                                "name": "transfer",
                                                                "value": 25563
                                                            }
                                                        ],
                                                        "depth": 3,
                                                        "name": "0x1b49583b",
                                                        "value": 43505
                                                    },
                                                    {
                                                        "children": [
                                                            {
                                                                "children": [
                                                                    {
                                                                        "children": [],
                                                                        "depth": 5,
                                                                        "name": "0x4c5e1cae",
                                                                        "value": 669
                                                                    }
                                                                ],
                                                                "depth": 4,
                                                                "name": "balanceOf",
                                                                "value": 2954
                                                            },
                                                            {
                                                                "children": [
                                                                    {
                                                                        "children": [],
                                                                        "depth": 5,
                                                                        "name": "0x4c5e1cae",
                                                                        "value": 669
                                                                    },
                                                                    {
                                                                        "children": [],
                                                                        "depth": 5,
                                                                        "name": "0x4c5e1cae",
                                                                        "value": 669
                                                                    },
                                                                    {
                                                                        "children": [],
                                                                        "depth": 5,
                                                                        "name": "0xab517b4f",
                                                                        "value": 5896
                                                                    },
                                                                    {
                                                                        "children": [],
                                                                        "depth": 5,
                                                                        "name": "0x4c5e1cae",
                                                                        "value": 669
                                                                    },
                                                                    {
                                                                        "children": [],
                                                                        "depth": 5,
                                                                        "name": "0xab517b4f",
                                                                        "value": 5896
                                                                    }
                                                                ],
                                                                "depth": 4,
                                                                "name": "transfer",
                                                                "value": 25563
                                                            }
                                                        ],
                                                        "depth": 3,
                                                        "name": "0x1b49583b",
                                                        "value": 43505
                                                    },
                                                    {
                                                        "children": [],
                                                        "depth": 3,
                                                        "name": "checkAddress",
                                                        "value": 1205
                                                    },
                                                    {
                                                        "children": [
                                                            {
                                                                "children": [
                                                                    {
                                                                        "children": [],
                                                                        "depth": 5,
                                                                        "name": "0x4c5e1cae",
                                                                        "value": 669
                                                                    }
                                                                ],
                                                                "depth": 4,
                                                                "name": "balanceOf",
                                                                "value": 2954
                                                            },
                                                            {
                                                                "children": [
                                                                    {
                                                                        "children": [],
                                                                        "depth": 5,
                                                                        "name": "0x4c5e1cae",
                                                                        "value": 669
                                                                    },
                                                                    {
                                                                        "children": [],
                                                                        "depth": 5,
                                                                        "name": "0x4c5e1cae",
                                                                        "value": 669
                                                                    },
                                                                    {
                                                                        "children": [],
                                                                        "depth": 5,
                                                                        "name": "0xab517b4f",
                                                                        "value": 5896
                                                                    },
                                                                    {
                                                                        "children": [],
                                                                        "depth": 5,
                                                                        "name": "0x4c5e1cae",
                                                                        "value": 669
                                                                    },
                                                                    {
                                                                        "children": [],
                                                                        "depth": 5,
                                                                        "name": "0xab517b4f",
                                                                        "value": 5896
                                                                    }
                                                                ],
                                                                "depth": 4,
                                                                "name": "transfer",
                                                                "value": 25563
                                                            }
                                                        ],
                                                        "depth": 3,
                                                        "name": "0x1b49583b",
                                                        "value": 43505
                                                    }
                                                ],
                                                "depth": 2,
                                                "name": "0x41872fb9",
                                                "value": 187751
                                            }
                                        ],
                                        "depth": 1,
                                        "name": "0xa4fe8a44",
                                        "value": 330979
                                    }
                                ],
                                "depth": 0,
                                "name": "Executed Gas",
                                "value": 399390
                            }
                        ],
                        "depth": -1,
                        "name": "Actual Gas Used",
                        "value": 392070
                    },
                    {
                        "children": [],
                        "depth": -1,
                        "name": "Refunded Gas",
                        "value": 30000
                    }
                ],
                "depth": -2,
                "name": "Total Gas",
                "value": 422070
            }
        ],
        "isConfirmed": true,
        "mainTrace": [
            {
                "children": [
                    {
                        "children": [
                            {
                                "children": [],
                                "depth": 1,
                                "id": 1,
                                "order": 1
                            },
                            {
                                "children": [],
                                "depth": 1,
                                "id": 2,
                                "order": 2
                            },
                            {
                                "children": [],
                                "depth": 1,
                                "id": 3,
                                "order": 3
                            },
                            {
                                "children": [],
                                "depth": 1,
                                "id": 4,
                                "order": 4
                            },
                            {
                                "children": [
                                    {
                                        "children": [],
                                        "depth": 2,
                                        "id": 6,
                                        "order": 6
                                    }
                                ],
                                "depth": 1,
                                "id": 5,
                                "order": 5
                            },
                            {
                                "children": [],
                                "depth": 1,
                                "id": 7,
                                "order": 7
                            },
                            {
                                "children": [],
                                "depth": 1,
                                "id": 8,
                                "order": 8
                            },
                            {
                                "children": [
                                    {
                                        "children": [],
                                        "depth": 2,
                                        "id": 10,
                                        "order": 10
                                    }
                                ],
                                "depth": 1,
                                "id": 9,
                                "order": 9
                            },
                            {
                                "children": [],
                                "depth": 1,
                                "id": 11,
                                "order": 11
                            },
                            {
                                "children": [],
                                "depth": 1,
                                "id": 12,
                                "order": 12
                            },
                            {
                                "children": [],
                                "depth": 1,
                                "id": 13,
                                "order": 13
                            },
                            {
                                "children": [
                                    {
                                        "children": [
                                            {
                                                "children": [],
                                                "depth": 3,
                                                "id": 16,
                                                "order": 16
                                            }
                                        ],
                                        "depth": 2,
                                        "id": 15,
                                        "order": 15
                                    }
                                ],
                                "depth": 1,
                                "id": 14,
                                "order": 14
                            },
                            {
                                "children": [
                                    {
                                        "children": [],
                                        "depth": 2,
                                        "id": 18,
                                        "order": 18
                                    },
                                    {
                                        "children": [],
                                        "depth": 2,
                                        "id": 19,
                                        "order": 19
                                    },
                                    {
                                        "children": [],
                                        "depth": 2,
                                        "id": 20,
                                        "order": 20
                                    },
                                    {
                                        "children": [],
                                        "depth": 2,
                                        "id": 21,
                                        "order": 21
                                    },
                                    {
                                        "children": [
                                            {
                                                "children": [],
                                                "depth": 3,
                                                "id": 23,
                                                "order": 23
                                            },
                                            {
                                                "children": [],
                                                "depth": 3,
                                                "id": 24,
                                                "order": 24
                                            },
                                            {
                                                "children": [
                                                    {
                                                        "children": [
                                                            {
                                                                "children": [],
                                                                "depth": 5,
                                                                "id": 27,
                                                                "order": 27
                                                            }
                                                        ],
                                                        "depth": 4,
                                                        "id": 26,
                                                        "order": 26
                                                    },
                                                    {
                                                        "children": [
                                                            {
                                                                "children": [],
                                                                "depth": 5,
                                                                "id": 29,
                                                                "order": 29
                                                            },
                                                            {
                                                                "children": [],
                                                                "depth": 5,
                                                                "id": 30,
                                                                "order": 30
                                                            },
                                                            {
                                                                "children": [],
                                                                "depth": 5,
                                                                "id": 31,
                                                                "order": 31
                                                            },
                                                            {
                                                                "children": [],
                                                                "depth": 5,
                                                                "id": 32,
                                                                "order": 32
                                                            },
                                                            {
                                                                "children": [],
                                                                "depth": 5,
                                                                "id": 33,
                                                                "order": 33
                                                            },
                                                            {
                                                                "children": [],
                                                                "depth": 5,
                                                                "id": 34,
                                                                "order": 34
                                                            }
                                                        ],
                                                        "depth": 4,
                                                        "id": 28,
                                                        "order": 28
                                                    }
                                                ],
                                                "depth": 3,
                                                "id": 25,
                                                "order": 25
                                            },
                                            {
                                                "children": [
                                                    {
                                                        "children": [
                                                            {
                                                                "children": [],
                                                                "depth": 5,
                                                                "id": 37,
                                                                "order": 37
                                                            }
                                                        ],
                                                        "depth": 4,
                                                        "id": 36,
                                                        "order": 36
                                                    },
                                                    {
                                                        "children": [
                                                            {
                                                                "children": [],
                                                                "depth": 5,
                                                                "id": 39,
                                                                "order": 39
                                                            },
                                                            {
                                                                "children": [],
                                                                "depth": 5,
                                                                "id": 40,
                                                                "order": 40
                                                            },
                                                            {
                                                                "children": [],
                                                                "depth": 5,
                                                                "id": 41,
                                                                "order": 41
                                                            },
                                                            {
                                                                "children": [],
                                                                "depth": 5,
                                                                "id": 42,
                                                                "order": 42
                                                            },
                                                            {
                                                                "children": [],
                                                                "depth": 5,
                                                                "id": 43,
                                                                "order": 43
                                                            },
                                                            {
                                                                "children": [],
                                                                "depth": 5,
                                                                "id": 44,
                                                                "order": 44
                                                            }
                                                        ],
                                                        "depth": 4,
                                                        "id": 38,
                                                        "order": 38
                                                    }
                                                ],
                                                "depth": 3,
                                                "id": 35,
                                                "order": 35
                                            },
                                            {
                                                "children": [],
                                                "depth": 3,
                                                "id": 45,
                                                "order": 45
                                            },
                                            {
                                                "children": [
                                                    {
                                                        "children": [
                                                            {
                                                                "children": [],
                                                                "depth": 5,
                                                                "id": 48,
                                                                "order": 48
                                                            }
                                                        ],
                                                        "depth": 4,
                                                        "id": 47,
                                                        "order": 47
                                                    },
                                                    {
                                                        "children": [
                                                            {
                                                                "children": [],
                                                                "depth": 5,
                                                                "id": 50,
                                                                "order": 50
                                                            },
                                                            {
                                                                "children": [],
                                                                "depth": 5,
                                                                "id": 51,
                                                                "order": 51
                                                            },
                                                            {
                                                                "children": [],
                                                                "depth": 5,
                                                                "id": 52,
                                                                "order": 52
                                                            },
                                                            {
                                                                "children": [],
                                                                "depth": 5,
                                                                "id": 53,
                                                                "order": 53
                                                            },
                                                            {
                                                                "children": [],
                                                                "depth": 5,
                                                                "id": 54,
                                                                "order": 54
                                                            },
                                                            {
                                                                "children": [],
                                                                "depth": 5,
                                                                "id": 55,
                                                                "order": 55
                                                            }
                                                        ],
                                                        "depth": 4,
                                                        "id": 49,
                                                        "order": 49
                                                    }
                                                ],
                                                "depth": 3,
                                                "id": 46,
                                                "order": 46
                                            }
                                        ],
                                        "depth": 2,
                                        "id": 22,
                                        "order": 22
                                    }
                                ],
                                "depth": 1,
                                "id": 17,
                                "order": 17
                            }
                        ],
                        "depth": 0,
                        "id": 0,
                        "order": 0
                    }
                ],
                "depth": -1,
                "id": -1,
                "order": -1
            }
        ],
        "mainTraceNodeCount": 56,
        "parentIdMap": {
            "0": -1,
            "1": 0,
            "10": 9,
            "11": 0,
            "12": 0,
            "13": 0,
            "14": 0,
            "15": 14,
            "16": 15,
            "17": 0,
            "18": 17,
            "19": 17,
            "2": 0,
            "20": 17,
            "21": 17,
            "22": 17,
            "23": 22,
            "24": 22,
            "25": 22,
            "26": 25,
            "27": 26,
            "28": 25,
            "29": 28,
            "3": 0,
            "30": 28,
            "31": 28,
            "32": 28,
            "33": 28,
            "34": 28,
            "35": 22,
            "36": 35,
            "37": 36,
            "38": 35,
            "39": 38,
            "4": 0,
            "40": 38,
            "41": 38,
            "42": 38,
            "43": 38,
            "44": 38,
            "45": 22,
            "46": 22,
            "47": 46,
            "48": 47,
            "49": 46,
            "5": 0,
            "50": 49,
            "51": 49,
            "52": 49,
            "53": 49,
            "54": 49,
            "55": 49,
            "6": 5,
            "7": 0,
            "8": 0,
            "9": 0
        },
        "tidyTrace": [
            {
                "children": [
                    {
                        "children": [
                            {
                                "children": [
                                    {
                                        "children": [
                                            {
                                                "children": [],
                                                "depth": 3,
                                                "id": 16,
                                                "order": 16
                                            }
                                        ],
                                        "depth": 2,
                                        "id": 15,
                                        "order": 15
                                    }
                                ],
                                "depth": 1,
                                "id": 14,
                                "order": 14
                            },
                            {
                                "children": [
                                    {
                                        "children": [],
                                        "depth": 2,
                                        "id": 20,
                                        "order": 20
                                    },
                                    {
                                        "children": [
                                            {
                                                "children": [
                                                    {
                                                        "children": [
                                                            {
                                                                "children": [],
                                                                "depth": 5,
                                                                "id": 29,
                                                                "order": 29
                                                            },
                                                            {
                                                                "children": [],
                                                                "depth": 5,
                                                                "id": 30,
                                                                "order": 30
                                                            },
                                                            {
                                                                "children": [],
                                                                "depth": 5,
                                                                "id": 31,
                                                                "order": 31
                                                            },
                                                            {
                                                                "children": [],
                                                                "depth": 5,
                                                                "id": 32,
                                                                "order": 32
                                                            },
                                                            {
                                                                "children": [],
                                                                "depth": 5,
                                                                "id": 33,
                                                                "order": 33
                                                            },
                                                            {
                                                                "children": [],
                                                                "depth": 5,
                                                                "id": 34,
                                                                "order": 34
                                                            }
                                                        ],
                                                        "depth": 4,
                                                        "id": 28,
                                                        "order": 28
                                                    }
                                                ],
                                                "depth": 3,
                                                "id": 25,
                                                "order": 25
                                            },
                                            {
                                                "children": [
                                                    {
                                                        "children": [
                                                            {
                                                                "children": [],
                                                                "depth": 5,
                                                                "id": 39,
                                                                "order": 39
                                                            },
                                                            {
                                                                "children": [],
                                                                "depth": 5,
                                                                "id": 40,
                                                                "order": 40
                                                            },
                                                            {
                                                                "children": [],
                                                                "depth": 5,
                                                                "id": 41,
                                                                "order": 41
                                                            },
                                                            {
                                                                "children": [],
                                                                "depth": 5,
                                                                "id": 42,
                                                                "order": 42
                                                            },
                                                            {
                                                                "children": [],
                                                                "depth": 5,
                                                                "id": 43,
                                                                "order": 43
                                                            },
                                                            {
                                                                "children": [],
                                                                "depth": 5,
                                                                "id": 44,
                                                                "order": 44
                                                            }
                                                        ],
                                                        "depth": 4,
                                                        "id": 38,
                                                        "order": 38
                                                    }
                                                ],
                                                "depth": 3,
                                                "id": 35,
                                                "order": 35
                                            },
                                            {
                                                "children": [
                                                    {
                                                        "children": [
                                                            {
                                                                "children": [],
                                                                "depth": 5,
                                                                "id": 50,
                                                                "order": 50
                                                            },
                                                            {
                                                                "children": [],
                                                                "depth": 5,
                                                                "id": 51,
                                                                "order": 51
                                                            },
                                                            {
                                                                "children": [],
                                                                "depth": 5,
                                                                "id": 52,
                                                                "order": 52
                                                            },
                                                            {
                                                                "children": [],
                                                                "depth": 5,
                                                                "id": 53,
                                                                "order": 53
                                                            },
                                                            {
                                                                "children": [],
                                                                "depth": 5,
                                                                "id": 54,
                                                                "order": 54
                                                            },
                                                            {
                                                                "children": [],
                                                                "depth": 5,
                                                                "id": 55,
                                                                "order": 55
                                                            }
                                                        ],
                                                        "depth": 4,
                                                        "id": 49,
                                                        "order": 49
                                                    }
                                                ],
                                                "depth": 3,
                                                "id": 46,
                                                "order": 46
                                            }
                                        ],
                                        "depth": 2,
                                        "id": 22,
                                        "order": 22
                                    }
                                ],
                                "depth": 1,
                                "id": 17,
                                "order": 17
                            }
                        ],
                        "depth": 0,
                        "id": 0,
                        "order": 0
                    }
                ],
                "depth": -1,
                "id": -1,
                "order": -1
            }
        ],
        "tidyTraceNodeCount": 31
    },
    "state_change": {
        "stateChanges": [
            {
                "address": "0x0000000000085d4780b73119b644ae5ecd22b376",
                "erc": "ERC-20",
                "slots": [
                    {
                        "current": "0x00000000000000000000000000000000000000000000002b88d5c6271cf30000",
                        "key": "0xb338ebf215e63c65df75d0a50f99060e20fbee847df033ed0eaed5d9fe837016",
                        "prev": "0x0000000000000000000000000000000000000000000000002a9ad4bc04730000"
                    },
                    {
                        "current": "0x0000000000000000000000000000000000000000000000000000000000000000",
                        "key": "0x1247dfbc557804fd553fa4c0ba8cf84fdc2058a09a421a3cd945b68e34c7819f",
                        "prev": "0x00000000000000000000000000000000000000000000002b5e3af16b18800000"
                    },
                    {
                        "current": "0x0000000000000000000000000000000000000000000000003b42166066eb0000",
                        "key": "0xdc87597c0500712e6539cf03680053958ac38ea1cd32ffe34af43082184dd72f",
                        "prev": "0x00000000000000000000000000000000000000000000002b997d07cb7f6b0000"
                    },
                    {
                        "current": "0x0000000000000000000000000000000000000000000000000000000000000000",
                        "key": "0x000000000000000000000000000000000000000000000000000000000010a968",
                        "prev": "0x0000000000000000000000000000000000000000000000000000000000000001"
                    },
                    {
                        "current": "0x000000000000000000000000000000000000000000000000000000000000a968",
                        "key": "0x00000000000000000000000000000000000000000000000000000000000fffff",
                        "prev": "0x000000000000000000000000000000000000000000000000000000000000a969"
                    }
                ],
                "storageVariables": [
                    {
                        "name": "_allowance",
                        "type": "mapping(address => mapping(address => uint256))",
                        "value": {
                            "pairs": [
                                {
                                    "key": "0x38f0a56b94b581c2c855640c28c1595fdb9bbe8a",
                                    "value": {
                                        "pairs": [
                                            {
                                                "key": "0x27156f672cf277d83a58170d21c1c2211b00d0db",
                                                "value": {
                                                    "current": "0",
                                                    "prev": "800000000000000000000",
                                                    "typeTag": 1
                                                }
                                            }
                                        ],
                                        "typeTag": 4
                                    }
                                }
                            ],
                            "typeTag": 4
                        }
                    },
                    {
                        "name": "_balanceOf",
                        "type": "mapping(address => uint256)",
                        "value": {
                            "pairs": [
                                {
                                    "key": "0x38f0a56b94b581c2c855640c28c1595fdb9bbe8a",
                                    "value": {
                                        "current": "4270000000000000000",
                                        "prev": "804270000000000000000",
                                        "typeTag": 1
                                    }
                                },
                                {
                                    "key": "0x87e2a18dd64b8afd5326dfc40013fab0563caff6",
                                    "value": {
                                        "current": "803070000000000000000",
                                        "prev": "3070000000000000000",
                                        "typeTag": 1
                                    }
                                }
                            ],
                            "typeTag": 4
                        }
                    }
                ]
            },
            {
                "address": "0x04abeda201850ac0124161f037efd70c74ddc74c",
                "erc": "ERC-20",
                "slots": [
                    {
                        "current": "0x00000000000000000000000000000000000000002035c97df5f3ff63fc126a0f",
                        "key": "0xe5ad9f48f6b277fac6ab64f64a823765dcee16279c0d2e89759c888337657191",
                        "prev": "0x00000000000000000000000000000000000000002035ca5a3e624939af0186ef"
                    },
                    {
                        "current": "0x00000000000000000000000000000000000000000000296cf575dc8473d94e32",
                        "key": "0xe43bcf809c26353bc634f7de3eb9ff11cf709566db1541a303662cc6cf645ae5",
                        "prev": "0x0000000000000000000000000000000000000000000028dffa4dff2ee29c6eea"
                    },
                    {
                        "current": "0x0000000000000000000000000000000000000000000010ed4fe9dd4cc218f84c",
                        "key": "0x88fc8fe8cc91abc7ec110421fc74785e10c13d096868f30d5d3e0f4b8109671e",
                        "prev": "0x0000000000000000000000000000000000000000000010ca111fe5f75dc9c07a"
                    },
                    {
                        "current": "0x00000000000000000000000000000000000000000003cc6a45da873c7ac04e4c",
                        "key": "0xc953ef38f7ddcf064f17ee7d31097960b33d19736b4f08a1736584bbc8ce8b5e",
                        "prev": "0x00000000000000000000000000000000000000000003cc3e375e1211bd5d4886"
                    }
                ],
                "storageVariables": [
                    {
                        "name": "balances",
                        "type": "struct IterableMapping.itmap",
                        "value": {
                            "fields": [
                                {
                                    "name": "data",
                                    "type": "mapping(address => struct IterableMapping.IndexValue)",
                                    "value": {
                                        "pairs": [
                                            {
                                                "key": "0x38f0a56b94b581c2c855640c28c1595fdb9bbe8a",
                                                "value": {
                                                    "fields": [
                                                        {
                                                            "name": "value",
                                                            "type": "uint256",
                                                            "value": {
                                                                "current": "79935500448303800711244",
                                                                "prev": "79285339986477168836730",
                                                                "typeTag": 1
                                                            }
                                                        }
                                                    ],
                                                    "typeTag": 3
                                                }
                                            },
                                            {
                                                "key": "0x5c778c9075fb83cadfe9456ef3c3bacd3bdefe71",
                                                "value": {
                                                    "fields": [
                                                        {
                                                            "name": "value",
                                                            "type": "uint256",
                                                            "value": {
                                                                "current": "4592100609705335727345228",
                                                                "prev": "4591287909128052437502086",
                                                                "typeTag": 1
                                                            }
                                                        }
                                                    ],
                                                    "typeTag": 3
                                                }
                                            },
                                            {
                                                "key": "0x87e2a18dd64b8afd5326dfc40013fab0563caff6",
                                                "value": {
                                                    "fields": [
                                                        {
                                                            "name": "value",
                                                            "type": "uint256",
                                                            "value": {
                                                                "current": "195626961443189090242098",
                                                                "prev": "193026319595882562744042",
                                                                "typeTag": 1
                                                            }
                                                        }
                                                    ],
                                                    "typeTag": 3
                                                }
                                            },
                                            {
                                                "key": "0xcf953f45029fa5f04c0ed9077100bc72115772d0",
                                                "value": {
                                                    "fields": [
                                                        {
                                                            "name": "value",
                                                            "type": "uint256",
                                                            "value": {
                                                                "current": "9968544901951473321363270159",
                                                                "prev": "9968548965454359737812485871",
                                                                "typeTag": 1
                                                            }
                                                        }
                                                    ],
                                                    "typeTag": 3
                                                }
                                            }
                                        ],
                                        "typeTag": 4
                                    }
                                }
                            ],
                            "typeTag": 3
                        }
                    }
                ]
            },
            {
                "address": "0xcd24263cc3fbed87f8cddafa039142194209e739",
                "erc": "",
                "slots": [
                    {
                        "current": "0x000000000000000000000000e95fe8a40a42acc18ebb7afa2caf01091e936332",
                        "key": "0x0000000000000000000000000000000000000000000000000000000000000012",
                        "prev": "0x0000000000000000000000000000000000000000000000000000000000000000"
                    },
                    {
                        "current": "0x00000000000000000000000038f0a56b94b581c2c855640c28c1595fdb9bbe8a",
                        "key": "0x0000000000000000000000000000000000000000000000000000000000000004",
                        "prev": "0x0000000000000000000000000000000000000000000000000000000000000000"
                    },
                    {
                        "current": "0x0000000000000000000000000000000000000000000000000000000000000002",
                        "key": "0x0000000000000000000000000000000000000000000000000000000000000002",
                        "prev": "0x0000000000000000000000000000000000000000000000000000000000000000"
                    },
                    {
                        "current": "0x000000000000000000000000000000000000000000000000000000005cc10685",
                        "key": "0x000000000000000000000000000000000000000000000000000000000000000e",
                        "prev": "0x0000000000000000000000000000000000000000000000000000000000000000"
                    },
                    {
                        "current": "0x000000000000000000000000000000000000000000000000000000005cbfb505",
                        "key": "0x000000000000000000000000000000000000000000000000000000000000000b",
                        "prev": "0x0000000000000000000000000000000000000000000000000000000000000000"
                    },
                    {
                        "current": "0x000000000000000000000000b9b37a1e9fa43c70de7e65fcc8b4556e558c11bb",
                        "key": "0x000000000000000000000000000000000000000000000000000000000000000f",
                        "prev": "0x0000000000000000000000000000000000000000000000000000000000000000"
                    }
                ],
                "storageVariables": []
            },
            {
                "address": "0xcf953f45029fa5f04c0ed9077100bc72115772d0",
                "erc": "",
                "slots": [
                    {
                        "current": "0x0000000000000000000000000000000000000000000008cfea5d0c8071d292b4",
                        "key": "0x0000000000000000000000000000000000000000000000000000000000000006",
                        "prev": "0x0000000000000000000000000000000000000000000007f3a1eec2aabee375d4"
                    },
                    {
                        "current": "0x0000000000000000000000000000000000000000001a04e0483102fd13ed95f1",
                        "key": "0x0000000000000000000000000000000000000000000000000000000000000007",
                        "prev": "0x0000000000000000000000000000000000000000001a0403ffc2b92760fe7911"
                    }
                ],
                "storageVariables": []
            }
        ]
    }
}