{
    "balance_change": {
        "balanceChanges": [
            {
                "account": "0xaaaaa798ebb90066788951e0fc03bc71e6bc2b51",
                "assets": [
                    {
                        "address": "0x77fe30b2cf39245267c0a5084b66a560f1cf9e1f",
                        "amount": "177,760",
                        "iconUrl": "",
                        "isERC1155": false,
                        "isERC721": false,
                        "sign": false,
                        "value": ""
                    }
                ]
            },
            {
                "account": "0x0aae6c1228f13274f10aa3cb4b2670e0ccad49db",
                "assets": [
                    {
                        "address": "0x77fe30b2cf39245267c0a5084b66a560f1cf9e1f",
                        "amount": "8,888",
                        "iconUrl": "",
                        "isERC1155": false,
                        "isERC721": false,
                        "sign": true,
                        "value": ""
                    }
                ]
            },
            {
                "account": "0x1329db768a65a99b738893c20847055b3e079907",
                "assets": [
                    {
                        "address": "0x77fe30b2cf39245267c0a5084b66a560f1cf9e1f",
                        "amount": "8,888",
                        "iconUrl": "",
                        "isERC1155": false,
                        "isERC721": false,
                        "sign": true,
                        "value": ""
                    }
                ]
            },
            {
                "account": "0x2ba124570d51173e81c10de18c9b471fab6cd27d",
                "assets": [
                    {
                        "address": "0x77fe30b2cf39245267c0a5084b66a560f1cf9e1f",
                        "amount": "8,888",
                        "iconUrl": "",
                        "isERC1155": false,
                        "isERC721": false,
                        "sign": true,
                        "value": ""
                    }
                ]
            },
            {
                "account": "0x3138b6f5a470a2d678559ab5eef42ed340e37427",
                "assets": [
                    {
                        "address": "0x77fe30b2cf39245267c0a5084b66a560f1cf9e1f",
                        "amount": "8,888",
                        "iconUrl": "",
                        "isERC1155": false,
                        "isERC721": false,
                        "sign": true,
                        "value": ""
                    }
                ]
            },
            {
                "account": "0x3425e4128cbe94e019c2fbe24adb1972fee07c0a",
                "assets": [
                    {
                        "address": "0x77fe30b2cf39245267c0a5084b66a560f1cf9e1f",
                        "amount": "8,888",
                        "iconUrl": "",
                        "isERC1155": false,
                        "isERC721": false,
                        "sign": true,
                        "value": ""
                    }
                ]
            },
            {
                "account": "0x3ed248bac140ee4dc559887fc2e151347819867b",
                "assets": [
                    {
                        "address": "0x77fe30b2cf39245267c0a5084b66a560f1cf9e1f",
                        "amount": "8,888",
                        "iconUrl": "",
                        "isERC1155": false,
                        "isERC721": false,
                        "sign": true,
                        "value": ""
                    }
                ]
            },
            {
                "account": "0x3ff189b4ae53ce5e03704c605d80c8ae1094b92c",
                "assets": [
                    {
                        "address": "0x77fe30b2cf39245267c0a5084b66a560f1cf9e1f",
                        "amount": "8,888",
                        "iconUrl": "",
                        "isERC1155": false,
                        "isERC721": false,
                        "sign": true,
                        "value": ""
                    }
                ]
            },
            {
                "account": "0x4dc44d9648f93147fceca12b07bbe2134fb34071",
                "assets": [
                    {
                        "address": "0x77fe30b2cf39245267c0a5084b66a560f1cf9e1f",
                        "amount": "8,888",
                        "iconUrl": "",
                        "isERC1155": false,
                        "isERC721": false,
                        "sign": true,
                        "value": ""
                    }
                ]
            },
            {
                "account": "0x58d8c3d70ce4fa4b9fb10a665c8712238746f2ff",
                "assets": [
                    {
                        "address": "0x77fe30b2cf39245267c0a5084b66a560f1cf9e1f",
                        "amount": "8,888",
                        "iconUrl": "",
                        "isERC1155": false,
                        "isERC721": false,
                        "sign": true,
                        "value": ""
                    }
                ]
            },
            {
                "account": "0x75034b5c8629084a37c1aebb957a215bca52ca41",
                "assets": [
                    {
                        "address": "0x77fe30b2cf39245267c0a5084b66a560f1cf9e1f",
                        "amount": "8,888",
                        "iconUrl": "",
                        "isERC1155": false,
                        "isERC721": false,
                        "sign": true,
                        "value": ""
                    }
                ]
            },
            {
                "account": "0x794bb5befe28e71efcd3653d5ea31b8bd3145717",
                "assets": [
                    {
                        "address": "0x77fe30b2cf39245267c0a5084b66a560f1cf9e1f",
                        "amount": "8,888",
                        "iconUrl": "",
                        "isERC1155": false,
                        "isERC721": false,
                        "sign": true,
                        "value": ""
                    }
                ]
            },
            {
                "account": "0x85994b78cc85693c4ef2cfbe9258c22ce4e09e46",
                "assets": [
                    {
                        "address": "0x77fe30b2cf39245267c0a5084b66a560f1cf9e1f",
                        "amount": "8,888",
                        "iconUrl": "",
                        "isERC1155": false,
                        "isERC721": false,
                        "sign": true,
                        "value": ""
                    }
                ]
            },
            {
                "account": "0x98173557c308cc87bf017b5323598d9147e07c6c",
                "assets": [
                    {
                        "address": "0x77fe30b2cf39245267c0a5084b66a560f1cf9e1f",
                        "amount": "8,888",
                        "iconUrl": "",
                        "isERC1155": false,
                        "isERC721": false,
                        "sign": true,
                        "value": ""
                    }
                ]
            },
            {
                "account": "0xb39cca2bfb5f19b23fc4359d5bbbc4d10d13333e",
                "assets": [
                    {
                        "address": "0x77fe30b2cf39245267c0a5084b66a560f1cf9e1f",
                        "amount": "8,888",
                        "iconUrl": "",
                        "isERC1155": false,
                        "isERC721": false,
                        "sign": true,
                        "value": ""
                    }
                ]
            },
            {
                "account": "0xc70db7ea7b7f63abdfdf8792d72f8fd6845d3e45",
                "assets": [
                    {
                        "address": "0x77fe30b2cf39245267c0a5084b66a560f1cf9e1f",
                        "amount": "8,888",
                        "iconUrl": "",
                        "isERC1155": false,
                        "isERC721": false,
                        "sign": true,
                        "value": ""
                    }
                ]
            },
            {
                "account": "0xc86376213d97a376bd317a19861cb16d16cadcb6",
                "assets": [
                    {
                        "address": "0x77fe30b2cf39245267c0a5084b66a560f1cf9e1f",
                        "amount": "8,888",
                        "iconUrl": "",
                        "isERC1155": false,
                        "isERC721": false,
                        "sign": true,
                        "value": ""
                    }
                ]
            },
            {
                "account": "0xc8e77983dd6fb0d3e11ba46c378392faede29509",
                "assets": [
                    {
                        "address": "0x77fe30b2cf39245267c0a5084b66a560f1cf9e1f",
                        "amount": "8,888",
                        "iconUrl": "",
                        "isERC1155": false,
                        "isERC721": false,
                        "sign": true,
                        "value": ""
                    }
                ]
            },
            {
                "account": "0xc95be28595eb64485dac63ad14f15e41c94ee468",
                "assets": [
                    {
                        "address": "0x77fe30b2cf39245267c0a5084b66a560f1cf9e1f",
                        "amount": "8,888",
                        "iconUrl": "",
                        "isERC1155": false,
                        "isERC721": false,
                        "sign": true,
                        "value": ""
                    }
                ]
            },
            {
                "account": "0xd8d4951540200dc8e38c447f67c40771a5297b43",
                "assets": [
                    {
                        "address": "0x77fe30b2cf39245267c0a5084b66a560f1cf9e1f",
                        "amount": "8,888",
                        "iconUrl": "",
                        "isERC1155": false,
                        "isERC721": false,
                        "sign": true,
                        "value": ""
                    }
                ]
            },
            {
                "account": "0xf1f717ef007fef9e2ab1e93cf1a45638bfb8e389",
                "assets": [
                    {
                        "address": "0x77fe30b2cf39245267c0a5084b66a560f1cf9e1f",
                        "amount": "8,888",
                        "iconUrl": "",
                        "isERC1155": false,
                        "isERC721": false,
                        "sign": true,
                        "value": ""
                    }
                ]
            }
        ]
    },
    "profile": {
        "basic_info": {
            "baseFee": "",
            "blockNumber": 7422530,
            "callData": "0x36ea5d4000000000000000000000000000000000000000000000000000000000000000400000000000000000000000000000000000000000000001e1d1c72d5b97e000000000000000000000000000000000000000000000000000000000000000000014000000000000000000000000c86376213d97a376bd317a19861cb16d16cadcb60000000000000000000000000aae6c1228f13274f10aa3cb4b2670e0ccad49db000000000000000000000000b39cca2bfb5f19b23fc4359d5bbbc4d10d13333e00000000000000000000000058d8c3d70ce4fa4b9fb10a665c8712238746f2ff000000000000000000000000c95be28595eb64485dac63ad14f15e41c94ee4680000000000000000000000003425e4128cbe94e019c2fbe24adb1972fee07c0a000000000000000000000000794bb5befe28e71efcd3653d5ea31b8bd31457170000000000000000000000003138b6f5a470a2d678559ab5eef42ed340e37427000000000000000000000000f1f717ef007fef9e2ab1e93cf1a45638bfb8e3890000000000000000000000003ed248bac140ee4dc559887fc2e151347819867b0000000000000000000000001329db768a65a99b738893c20847055b3e0799070000000000000000000000003ff189b4ae53ce5e03704c605d80c8ae1094b92c000000000000000000000000d8d4951540200dc8e38c447f67c40771a5297b43000000000000000000000000c8e77983dd6fb0d3e11ba46c378392faede2950900000000000000000000000075034b5c8629084a37c1aebb957a215bca52ca4100000000000000000000000085994b78cc85693c4ef2cfbe9258c22ce4e09e460000000000000000000000004dc44d9648f93147fceca12b07bbe2134fb340710000000000000000000000002ba124570d51173e81c10de18c9b471fab6cd27d00000000000000000000000098173557c308cc87bf017b5323598d9147e07c6c000000000000000000000000c70db7ea7b7f63abdfdf8792d72f8fd6845d3e45",
            "debugEnable": true,
            "errorInfo": "",
            "eventCount": 20,
            "feeRecipient": "0x52bc44d5378309ee2abf1539bf71de1b7d7be3b5",
            "formatValue": "0",
            "gasLimit": 710000,
            "gasPrice": "0.909090909",
            "gasUsed": 701291,
            "intTxnCount": 20,
            "internalRevert": false,
            "internalRevertMessage": "",
            "isContractCreation": false,
            "isFlashloan": false,
            "maxFee": "",
            "nonce": 15578,
            "overwritedBlockNumber": -1,
            "priorityFee": "",
            "receiver": "0xaaaaa798ebb90066788951e0fc03bc71e6bc2b51",
            "revertMessage": "",
            "sender": "0x980bbc544aa023fec9beac4144d1f0a9a991809d",
            "simulationEnable": true,
            "sourceTxnHash": "0xab0355c0772836aabf2cb544822184bae757e33df2b1c7e467b13c4906b57783",
            "status": true,
            "timestamp": "2019-03-23T03:12:57Z",
            "transactionFee": "0.000637537272663519",
            "txnHash": "0xab0355c0772836aabf2cb544822184bae757e33df2b1c7e467b13c4906b57783",
            "txnIndex": 11,
            "type": 0,
            "value": "0"
        },
        "fund_flow": [
            {
                "amount": "8,888",
                "from": "0xaaaaa798ebb90066788951e0fc03bc71e6bc2b51",
                "id": 1,
                "isERC1155": false,
                "isERC721": false,
                "isReverted": false,
                "order": 1,
                "to": "0xc86376213d97a376bd317a19861cb16d16cadcb6",
                "token": "0x77fe30b2cf39245267c0a5084b66a560f1cf9e1f"
            },
            {
                "amount": "8,888",
                "from": "0xaaaaa798ebb90066788951e0fc03bc71e6bc2b51",
                "id": 2,
                "isERC1155": false,
                "isERC721": false,
                "isReverted": false,
                "order": 2,
                "to": "0x0aae6c1228f13274f10aa3cb4b2670e0ccad49db",
                "token": "0x77fe30b2cf39245267c0a5084b66a560f1cf9e1f"
            },
            {
                "amount": "8,888",
                "from": "0xaaaaa798ebb90066788951e0fc03bc71e6bc2b51",
                "id": 3,
                "isERC1155": false,
                "isERC721": false,
                "isReverted": false,
                "order": 3,
                "to": "0xb39cca2bfb5f19b23fc4359d5bbbc4d10d13333e",
                "token": "0x77fe30b2cf39245267c0a5084b66a560f1cf9e1f"
            },
            {
                "amount": "8,888",
                "from": "0xaaaaa798ebb90066788951e0fc03bc71e6bc2b51",
                "id": 4,
                "isERC1155": false,
                "isERC721": false,
                "isReverted": false,
                "order": 4,
                "to": "0x58d8c3d70ce4fa4b9fb10a665c8712238746f2ff",
                "token": "0x77fe30b2cf39245267c0a5084b66a560f1cf9e1f"
            },
            {
                "amount": "8,888",
                "from": "0xaaaaa798ebb90066788951e0fc03bc71e6bc2b51",
                "id": 5,
                "isERC1155": false,
                "isERC721": false,
                "isReverted": false,
                "order": 5,
                "to": "0xc95be28595eb64485dac63ad14f15e41c94ee468",
                "token": "0x77fe30b2cf39245267c0a5084b66a560f1cf9e1f"
            },
            {
                "amount": "8,888",
                "from": "0xaaaaa798ebb90066788951e0fc03bc71e6bc2b51",
                "id": 6,
                "isERC1155": false,
                "isERC721": false,
                "isReverted": false,
                "order": 6,
                "to": "0x3425e4128cbe94e019c2fbe24adb1972fee07c0a",
                "token": "0x77fe30b2cf39245267c0a5084b66a560f1cf9e1f"
            },
            {
                "amount": "8,888",
                "from": "0xaaaaa798ebb90066788951e0fc03bc71e6bc2b51",
                "id": 7,
                "isERC1155": false,
                "isERC721": false,
                "isReverted": false,
                "order": 7,
                "to": "0x794bb5befe28e71efcd3653d5ea31b8bd3145717",
                "token": "0x77fe30b2cf39245267c0a5084b66a560f1cf9e1f"
            },
            {
                "amount": "8,888",
                "from": "0xaaaaa798ebb90066788951e0fc03bc71e6bc2b51",
                "id": 8,
                "isERC1155": false,
                "isERC721": false,
                "isReverted": false,
                "order": 8,
                "to": "0x3138b6f5a470a2d678559ab5eef42ed340e37427",
                "token": "0x77fe30b2cf39245267c0a5084b66a560f1cf9e1f"
            },
            {
                "amount": "8,888",
                "from": "0xaaaaa798ebb90066788951e0fc03bc71e6bc2b51",
                "id": 9,
                "isERC1155": false,
                "isERC721": false,
                "isReverted": false,
                "order": 9,
                "to": "0xf1f717ef007fef9e2ab1e93cf1a45638bfb8e389",
                "token": "0x77fe30b2cf39245267c0a5084b66a560f1cf9e1f"
            },
            {
                "amount": "8,888",
                "from": "0xaaaaa798ebb90066788951e0fc03bc71e6bc2b51",
                "id": 10,
                "isERC1155": false,
                "isERC721": false,
                "isReverted": false,
                "order": 10,
                "to": "0x3ed248bac140ee4dc559887fc2e151347819867b",
                "token": "0x77fe30b2cf39245267c0a5084b66a560f1cf9e1f"
            },
            {
                "amount": "8,888",
                "from": "0xaaaaa798ebb90066788951e0fc03bc71e6bc2b51",
                "id": 11,
                "isERC1155": false,
                "isERC721": false,
                "isReverted": false,
                "order": 11,
                "to": "0x1329db768a65a99b738893c20847055b3e079907",
                "token": "0x77fe30b2cf39245267c0a5084b66a560f1cf9e1f"
            },
            {
                "amount": "8,888",
                "from": "0xaaaaa798ebb90066788951e0fc03bc71e6bc2b51",
                "id": 12,
                "isERC1155": false,
                "isERC721": false,
                "isReverted": false,
                "order": 12,
                "to": "0x3ff189b4ae53ce5e03704c605d80c8ae1094b92c",
                "token": "0x77fe30b2cf39245267c0a5084b66a560f1cf9e1f"
            },
            {
                "amount": "8,888",
                "from": "0xaaaaa798ebb90066788951e0fc03bc71e6bc2b51",
                "id": 13,
                "isERC1155": false,
                "isERC721": false,
                "isReverted": false,
                "order": 13,
                "to": "0xd8d4951540200dc8e38c447f67c40771a5297b43",
                "token": "0x77fe30b2cf39245267c0a5084b66a560f1cf9e1f"
            },
            {
                "amount": "8,888",
                "from": "0xaaaaa798ebb90066788951e0fc03bc71e6bc2b51",
                "id": 14,
                "isERC1155": false,
                "isERC721": false,
                "isReverted": false,
                "order": 14,
                "to": "0xc8e77983dd6fb0d3e11ba46c378392faede29509",
                "token": "0x77fe30b2cf39245267c0a5084b66a560f1cf9e1f"
            },
            {
                "amount": "8,888",
                "from": "0xaaaaa798ebb90066788951e0fc03bc71e6bc2b51",
                "id": 15,
                "isERC1155": false,
                "isERC721": false,
                "isReverted": false,
                "order": 15,
                "to": "0x75034b5c8629084a37c1aebb957a215bca52ca41",
                "token": "0x77fe30b2cf39245267c0a5084b66a560f1cf9e1f"
            },
            {
                "amount": "8,888",
                "from": "0xaaaaa798ebb90066788951e0fc03bc71e6bc2b51",
                "id": 16,
                "isERC1155": false,
                "isERC721": false,
                "isReverted": false,
                "order": 16,
                "to": "0x85994b78cc85693c4ef2cfbe9258c22ce4e09e46",
                "token": "0x77fe30b2cf39245267c0a5084b66a560f1cf9e1f"
            },
            {
                "amount": "8,888",
                "from": "0xaaaaa798ebb90066788951e0fc03bc71e6bc2b51",
                "id": 17,
                "isERC1155": false,
                "isERC721": false,
                "isReverted": false,
                "order": 17,
                "to": "0x4dc44d9648f93147fceca12b07bbe2134fb34071",
                "token": "0x77fe30b2cf39245267c0a5084b66a560f1cf9e1f"
            },
            {
                "amount": "8,888",
                "from": "0xaaaaa798ebb90066788951e0fc03bc71e6bc2b51",
                "id": 18,
                "isERC1155": false,
                "isERC721": false,
                "isReverted": false,
                "order": 18,
                "to": "0x2ba124570d51173e81c10de18c9b471fab6cd27d",
                "token": "0x77fe30b2cf39245267c0a5084b66a560f1cf9e1f"
            },
            {
                "amount": "8,888",
                "from": "0xaaaaa798ebb90066788951e0fc03bc71e6bc2b51",
                "id": 19,
                "isERC1155": false,
                "isERC721": false,
                "isReverted": false,
                "order": 19,
                "to": "0x98173557c308cc87bf017b5323598d9147e07c6c",
                "token": "0x77fe30b2cf39245267c0a5084b66a560f1cf9e1f"
            },
            {
                "amount": "8,888",
                "from": "0xaaaaa798ebb90066788951e0fc03bc71e6bc2b51",
                "id": 20,
                "isERC1155": false,
                "isERC721": false,
                "isReverted": false,
                "order": 20,
                "to": "0xc70db7ea7b7f63abdfdf8792d72f8fd6845d3e45",
                "token": "0x77fe30b2cf39245267c0a5084b66a560f1cf9e1f"
            }
        ],
        "token_infos": [
            {
                "address": "0xeeeeeeeeeeeeeeeeeeeeeeeeeeeeeeeeeeeeeeee",
                "decimals": 18
            },
            {
                "address": "0x77fe30b2cf39245267c0a5084b66a560f1cf9e1f",
                "decimals": 18
            },
            {
                "address": "0xc02aaa39b223fe8d0a0e5c4f27ead9083c756cc2",
                "decimals": 18
            }
        ]
    },
    "address_label": {
        "labels": [
            {
                "address": "0xeeeeeeeeeeeeeeeeeeeeeeeeeeeeeeeeeeeeeeee",
                "label": "Ether"
            },
            {
                "address": "0x794bb5befe28e71efcd3653d5ea31b8bd3145717",
                "label": "0x794b_BINANCE"
            },
            {
                "address": "0xaaaaa798ebb90066788951e0fc03bc71e6bc2b51",
                "label": "AzbitAirdrop"
            },
            {
                "address": "0x3ff189b4ae53ce5e03704c605d80c8ae1094b92c",
                "label": "0x3ff1_BINANCE"
            },
            {
                "address": "0xc8e77983dd6fb0d3e11ba46c378392faede29509",
                "label": "0xc8e7_BINANCE"
            },
            {
                "address": "0x0000000000000000000000000000000000000001",
                "label": "Precompiled"
            },
            {
                "address": "0x0000000000000000000000000000000000000002",
                "label": "Precompiled"
            },
            {
                "address": "0x0000000000000000000000000000000000000003",
                "label": "Precompiled"
            },
            {
                "address": "0x0000000000000000000000000000000000000004",
                "label": "Precompiled"
            },
            {
                "address": "0x85994b78cc85693c4ef2cfbe9258c22ce4e09e46",
                "label": "0x8599_BINANCE"
            },
            {
                "address": "0x3138b6f5a470a2d678559ab5eef42ed340e37427",
                "label": "COINEX"
            },
            {
                "address": "0x77fe30b2cf39245267c0a5084b66a560f1cf9e1f",
                "label": "Azbit (AZ)"
            },
            {
                "address": "0xd8d4951540200dc8e38c447f67c40771a5297b43",
                "label": "0xd8d4_BINANCE"
            },
            {
                "address": "0x0aae6c1228f13274f10aa3cb4b2670e0ccad49db",
                "label": "0x0aae_BINANCE"
            },
            {
                "address": "0xc70db7ea7b7f63abdfdf8792d72f8fd6845d3e45",
                "label": "KUCOIN"
            }
        ]
    },
    "trace": {
        "accountLabels": null,
        "dataMap": {
            "-1": {
                "invocation": {
                    "address": "0x980bbc544aa023fec9beac4144d1f0a9a991809d",
                    "callData": "",
                    "decodedMethod": null,
                    "errorInfo": "",
                    "fromAddress": "",
                    "gasUsed": 0,
                    "id": -1,
                    "methodDecoded": false,
                    "operation": "",
                    "output": "",
                    "revert": false,
                    "revertMessage": "",
                    "selector": "",
                    "status": false,
                    "value": ""
                },
                "nodeType": 0
            },
            "0": {
                "invocation": {
                    "address": "0xaaaaa798ebb90066788951e0fc03bc71e6bc2b51",
                    "callData": "0x00000000000000000000000000000000000000000000000000000000000000400000000000000000000000000000000000000000000001e1d1c72d5b97e000000000000000000000000000000000000000000000000000000000000000000014000000000000000000000000c86376213d97a376bd317a19861cb16d16cadcb60000000000000000000000000aae6c1228f13274f10aa3cb4b2670e0ccad49db000000000000000000000000b39cca2bfb5f19b23fc4359d5bbbc4d10d13333e00000000000000000000000058d8c3d70ce4fa4b9fb10a665c8712238746f2ff000000000000000000000000c95be28595eb64485dac63ad14f15e41c94ee4680000000000000000000000003425e4128cbe94e019c2fbe24adb1972fee07c0a000000000000000000000000794bb5befe28e71efcd3653d5ea31b8bd31457170000000000000000000000003138b6f5a470a2d678559ab5eef42ed340e37427000000000000000000000000f1f717ef007fef9e2ab1e93cf1a45638bfb8e3890000000000000000000000003ed248bac140ee4dc559887fc2e151347819867b0000000000000000000000001329db768a65a99b738893c20847055b3e0799070000000000000000000000003ff189b4ae53ce5e03704c605d80c8ae1094b92c000000000000000000000000d8d4951540200dc8e38c447f67c40771a5297b43000000000000000000000000c8e77983dd6fb0d3e11ba46c378392faede2950900000000000000000000000075034b5c8629084a37c1aebb957a215bca52ca4100000000000000000000000085994b78cc85693c4ef2cfbe9258c22ce4e09e460000000000000000000000004dc44d9648f93147fceca12b07bbe2134fb340710000000000000000000000002ba124570d51173e81c10de18c9b471fab6cd27d00000000000000000000000098173557c308cc87bf017b5323598d9147e07c6c000000000000000000000000c70db7ea7b7f63abdfdf8792d72f8fd6845d3e45",
                    "decodedMethod": {
                        "callParams": [
                            {
                                "name": "beneficiaries",
                                "type": "address[]",
                                "value": [
                                    "0xc86376213d97a376bd317a19861cb16d16cadcb6",
                                    "0x0aae6c1228f13274f10aa3cb4b2670e0ccad49db",
                                    "0xb39cca2bfb5f19b23fc4359d5bbbc4d10d13333e",
                                    "0x58d8c3d70ce4fa4b9fb10a665c8712238746f2ff",
                                    "0xc95be28595eb64485dac63ad14f15e41c94ee468",
                                    "0x3425e4128cbe94e019c2fbe24adb1972fee07c0a",
                                    "0x794bb5befe28e71efcd3653d5ea31b8bd3145717",
                                    "0x3138b6f5a470a2d678559ab5eef42ed340e37427",
                                    "0xf1f717ef007fef9e2ab1e93cf1a45638bfb8e389",
                                    "0x3ed248bac140ee4dc559887fc2e151347819867b",
                                    "0x1329db768a65a99b738893c20847055b3e079907",
                                    "0x3ff189b4ae53ce5e03704c605d80c8ae1094b92c",
                                    "0xd8d4951540200dc8e38c447f67c40771a5297b43",
                                    "0xc8e77983dd6fb0d3e11ba46c378392faede29509",
                                    "0x75034b5c8629084a37c1aebb957a215bca52ca41",
                                    "0x85994b78cc85693c4ef2cfbe9258c22ce4e09e46",
                                    "0x4dc44d9648f93147fceca12b07bbe2134fb34071",
                                    "0x2ba124570d51173e81c10de18c9b471fab6cd27d",
                                    "0x98173557c308cc87bf017b5323598d9147e07c6c",
                                    "0xc70db7ea7b7f63abdfdf8792d72f8fd6845d3e45"
                                ]
                            },
                            {
                                "name": "amount",
                                "type": "uint256",
                                "value": "8,888,000,000,000,000,000,000"
                            }
                        ],
                        "constructorArguments": "",
                        "name": "sendTokensArray",
                        "returnParams": [],
                        "signature": "sendTokensArray(address[],uint256)"
                    },
                    "errorInfo": "",
                    "fromAddress": "0x980bbc544aa023fec9beac4144d1f0a9a991809d",
                    "gasUsed": 701291,
                    "id": 0,
                    "methodDecoded": true,
                    "operation": "CALL",
                    "output": "",
                    "revert": false,
                    "revertMessage": "",
                    "selector": "0x36ea5d40",
                    "status": true,
                    "value": "0"
                },
                "nodeType": 0
            },
            "1": {
                "invocation": {
                    "address": "0x77fe30b2cf39245267c0a5084b66a560f1cf9e1f",
                    "callData": "0x000000000000000000000000c86376213d97a376bd317a19861cb16d16cadcb60000000000000000000000000000000000000000000001e1d1c72d5b97e00000",
                    "decodedMethod": {
                        "callParams": [
                            {
                                "name": "_to",
                                "type": "address",
                                "value": "0xc86376213d97a376bd317a19861cb16d16cadcb6"
                            },
                            {
                                "decimalAvailable": true,
                                "name": "_value",
                                "type": "uint256",
                                "value": "8,888,000,000,000,000,000,000"
                            }
                        ],
                        "constructorArguments": "",
                        "name": "transfer",
                        "returnParams": [
                            {
                                "name": "success",
                                "type": "bool",
                                "value": true
                            }
                        ],
                        "signature": "transfer(address,uint256)"
                    },
                    "errorInfo": "",
                    "fromAddress": "0xaaaaa798ebb90066788951e0fc03bc71e6bc2b51",
                    "gasUsed": 30388,
                    "id": 1,
                    "methodDecoded": true,
                    "operation": "CALL",
                    "output": "0x0000000000000000000000000000000000000000000000000000000000000001",
                    "revert": false,
                    "revertMessage": "",
                    "selector": "0xa9059cbb",
                    "status": true,
                    "value": "0"
                },
                "nodeType": 0
            },
            "10": {
                "event": {
                    "contract": "0x77fe30b2cf39245267c0a5084b66a560f1cf9e1f",
                    "decodedLog": {
                        "name": "Transfer",
                        "params": [
                            {
                                "name": "from",
                                "type": "address",
                                "value": "0xaaaaa798ebb90066788951e0fc03bc71e6bc2b51"
                            },
                            {
                                "name": "to",
                                "type": "address",
                                "value": "0xc95be28595eb64485dac63ad14f15e41c94ee468"
                            },
                            {
                                "decimalAvailable": true,
                                "name": "value",
                                "type": "uint256",
                                "value": "8,888,000,000,000,000,000,000"
                            }
                        ],
                        "signature": "Transfer(address,address,uint256)"
                    },
                    "id": 10,
                    "logData": "0x0000000000000000000000000000000000000000000001e1d1c72d5b97e00000",
                    "logDecoded": true,
                    "operation": "EVENT",
                    "revert": false,
                    "status": true,
                    "topics": [
                        "0xddf252ad1be2c89b69c2b068fc378daa952ba7f163c4a11628f55a4df523b3ef",
                        "0x000000000000000000000000aaaaa798ebb90066788951e0fc03bc71e6bc2b51",
                        "0x000000000000000000000000c95be28595eb64485dac63ad14f15e41c94ee468"
                    ]
                },
                "nodeType": 1
            },
            "11": {
                "invocation": {
                    "address": "0x77fe30b2cf39245267c0a5084b66a560f1cf9e1f",
                    "callData": "0x0000000000000000000000003425e4128cbe94e019c2fbe24adb1972fee07c0a0000000000000000000000000000000000000000000001e1d1c72d5b97e00000",
                    "decodedMethod": {
                        "callParams": [
                            {
                                "name": "_to",
                                "type": "address",
                                "value": "0x3425e4128cbe94e019c2fbe24adb1972fee07c0a"
                            },
                            {
                                "decimalAvailable": true,
                                "name": "_value",
                                "type": "uint256",
                                "value": "8,888,000,000,000,000,000,000"
                            }
                        ],
                        "constructorArguments": "",
                        "name": "transfer",
                        "returnParams": [
                            {
                                "name": "success",
                                "type": "bool",
                                "value": true
                            }
                        ],
                        "signature": "transfer(address,uint256)"
                    },
                    "errorInfo": "",
                    "fromAddress": "0xaaaaa798ebb90066788951e0fc03bc71e6bc2b51",
                    "gasUsed": 30388,
                    "id": 11,
                    "methodDecoded": true,
                    "operation": "CALL",
                    "output": "0x0000000000000000000000000000000000000000000000000000000000000001",
                    "revert": false,
                    "revertMessage": "",
                    "selector": "0xa9059cbb",
                    "status": true,
                    "value": "0"
                },
                "nodeType": 0
            },
            "12": {
                "event": {
                    "contract": "0x77fe30b2cf39245267c0a5084b66a560f1cf9e1f",
                    "decodedLog": {
                        "name": "Transfer",
                        "params": [
                            {
                                "name": "from",
                                "type": "address",
                                "value": "0xaaaaa798ebb90066788951e0fc03bc71e6bc2b51"
                            },
                            {
                                "name": "to",
                                "type": "address",
                                "value": "0x3425e4128cbe94e019c2fbe24adb1972fee07c0a"
                            },
                            {
                                "decimalAvailable": true,
                                "name": "value",
                                "type": "uint256",
                                "value": "8,888,000,000,000,000,000,000"
                            }
                        ],
                        "signature": "Transfer(address,address,uint256)"
                    },
                    "id": 12,
                    "logData": "0x0000000000000000000000000000000000000000000001e1d1c72d5b97e00000",
                    "logDecoded": true,
                    "operation": "EVENT",
                    "revert": false,
                    "status": true,
                    "topics": [
                        "0xddf252ad1be2c89b69c2b068fc378daa952ba7f163c4a11628f55a4df523b3ef",
                        "0x000000000000000000000000aaaaa798ebb90066788951e0fc03bc71e6bc2b51",
                        "0x0000000000000000000000003425e4128cbe94e019c2fbe24adb1972fee07c0a"
                    ]
                },
                "nodeType": 1
            },
            "13": {
                "invocation": {
                    "address": "0x77fe30b2cf39245267c0a5084b66a560f1cf9e1f",
                    "callData": "0x000000000000000000000000794bb5befe28e71efcd3653d5ea31b8bd31457170000000000000000000000000000000000000000000001e1d1c72d5b97e00000",
                    "decodedMethod": {
                        "callParams": [
                            {
                                "name": "_to",
                                "type": "address",
                                "value": "0x794bb5befe28e71efcd3653d5ea31b8bd3145717"
                            },
                            {
                                "decimalAvailable": true,
                                "name": "_value",
                                "type": "uint256",
                                "value": "8,888,000,000,000,000,000,000"
                            }
                        ],
                        "constructorArguments": "",
                        "name": "transfer",
                        "returnParams": [
                            {
                                "name": "success",
                                "type": "bool",
                                "value": true
                            }
                        ],
                        "signature": "transfer(address,uint256)"
                    },
                    "errorInfo": "",
                    "fromAddress": "0xaaaaa798ebb90066788951e0fc03bc71e6bc2b51",
                    "gasUsed": 30388,
                    "id": 13,
                    "methodDecoded": true,
                    "operation": "CALL",
                    "output": "0x0000000000000000000000000000000000000000000000000000000000000001",
                    "revert": false,
                    "revertMessage": "",
                    "selector": "0xa9059cbb",
                    "status": true,
                    "value": "0"
                },
                "nodeType": 0
            },
            "14": {
                "event": {
                    "contract": "0x77fe30b2cf39245267c0a5084b66a560f1cf9e1f",
                    "decodedLog": {
                        "name": "Transfer",
                        "params": [
                            {
                                "name": "from",
                                "type": "address",
                                "value": "0xaaaaa798ebb90066788951e0fc03bc71e6bc2b51"
                            },
                            {
                                "name": "to",
                                "type": "address",
                                "value": "0x794bb5befe28e71efcd3653d5ea31b8bd3145717"
                            },
                            {
                                "decimalAvailable": true,
                                "name": "value",
                                "type": "uint256",
                                "value": "8,888,000,000,000,000,000,000"
                            }
                        ],
                        "signature": "Transfer(address,address,uint256)"
                    },
                    "id": 14,
                    "logData": "0x0000000000000000000000000000000000000000000001e1d1c72d5b97e00000",
                    "logDecoded": true,
                    "operation": "EVENT",
                    "revert": false,
                    "status": true,
                    "topics": [
                        "0xddf252ad1be2c89b69c2b068fc378daa952ba7f163c4a11628f55a4df523b3ef",
                        "0x000000000000000000000000aaaaa798ebb90066788951e0fc03bc71e6bc2b51",
                        "0x000000000000000000000000794bb5befe28e71efcd3653d5ea31b8bd3145717"
                    ]
                },
                "nodeType": 1
            },
            "15": {
                "invocation": {
                    "address": "0x77fe30b2cf39245267c0a5084b66a560f1cf9e1f",
                    "callData": "0x0000000000000000000000003138b6f5a470a2d678559ab5eef42ed340e374270000000000000000000000000000000000000000000001e1d1c72d5b97e00000",
                    "decodedMethod": {
                        "callParams": [
                            {
                                "name": "_to",
                                "type": "address",
                                "value": "0x3138b6f5a470a2d678559ab5eef42ed340e37427"
                            },
                            {
                                "decimalAvailable": true,
                                "name": "_value",
                                "type": "uint256",
                                "value": "8,888,000,000,000,000,000,000"
                            }
                        ],
                        "constructorArguments": "",
                        "name": "transfer",
                        "returnParams": [
                            {
                                "name": "success",
                                "type": "bool",
                                "value": true
                            }
                        ],
                        "signature": "transfer(address,uint256)"
                    },
                    "errorInfo": "",
                    "fromAddress": "0xaaaaa798ebb90066788951e0fc03bc71e6bc2b51",
                    "gasUsed": 30388,
                    "id": 15,
                    "methodDecoded": true,
                    "operation": "CALL",
                    "output": "0x0000000000000000000000000000000000000000000000000000000000000001",
                    "revert": false,
                    "revertMessage": "",
                    "selector": "0xa9059cbb",
                    "status": true,
                    "value": "0"
                },
                "nodeType": 0
            },
            "16": {
                "event": {
                    "contract": "0x77fe30b2cf39245267c0a5084b66a560f1cf9e1f",
                    "decodedLog": {
                        "name": "Transfer",
                        "params": [
                            {
                                "name": "from",
                                "type": "address",
                                "value": "0xaaaaa798ebb90066788951e0fc03bc71e6bc2b51"
                            },
                            {
                                "name": "to",
                                "type": "address",
                                "value": "0x3138b6f5a470a2d678559ab5eef42ed340e37427"
                            },
                            {
                                "decimalAvailable": true,
                                "name": "value",
                                "type": "uint256",
                                "value": "8,888,000,000,000,000,000,000"
                            }
                        ],
                        "signature": "Transfer(address,address,uint256)"
                    },
                    "id": 16,
                    "logData": "0x0000000000000000000000000000000000000000000001e1d1c72d5b97e00000",
                    "logDecoded": true,
                    "operation": "EVENT",
                    "revert": false,
                    "status": true,
                    "topics": [
                        "0xddf252ad1be2c89b69c2b068fc378daa952ba7f163c4a11628f55a4df523b3ef",
                        "0x000000000000000000000000aaaaa798ebb90066788951e0fc03bc71e6bc2b51",
                        "0x0000000000000000000000003138b6f5a470a2d678559ab5eef42ed340e37427"
                    ]
                },
                "nodeType": 1
            },
            "17": {
                "invocation": {
                    "address": "0x77fe30b2cf39245267c0a5084b66a560f1cf9e1f",
                    "callData": "0x000000000000000000000000f1f717ef007fef9e2ab1e93cf1a45638bfb8e3890000000000000000000000000000000000000000000001e1d1c72d5b97e00000",
                    "decodedMethod": {
                        "callParams": [
                            {
                                "name": "_to",
                                "type": "address",
                                "value": "0xf1f717ef007fef9e2ab1e93cf1a45638bfb8e389"
                            },
                            {
                                "decimalAvailable": true,
                                "name": "_value",
                                "type": "uint256",
                                "value": "8,888,000,000,000,000,000,000"
                            }
                        ],
                        "constructorArguments": "",
                        "name": "transfer",
                        "returnParams": [
                            {
                                "name": "success",
                                "type": "bool",
                                "value": true
                            }
                        ],
                        "signature": "transfer(address,uint256)"
                    },
                    "errorInfo": "",
                    "fromAddress": "0xaaaaa798ebb90066788951e0fc03bc71e6bc2b51",
                    "gasUsed": 30388,
                    "id": 17,
                    "methodDecoded": true,
                    "operation": "CALL",
                    "output": "0x0000000000000000000000000000000000000000000000000000000000000001",
                    "revert": false,
                    "revertMessage": "",
                    "selector": "0xa9059cbb",
                    "status": true,
                    "value": "0"
                },
                "nodeType": 0
            },
            "18": {
                "event": {
                    "contract": "0x77fe30b2cf39245267c0a5084b66a560f1cf9e1f",
                    "decodedLog": {
                        "name": "Transfer",
                        "params": [
                            {
                                "name": "from",
                                "type": "address",
                                "value": "0xaaaaa798ebb90066788951e0fc03bc71e6bc2b51"
                            },
                            {
                                "name": "to",
                                "type": "address",
                                "value": "0xf1f717ef007fef9e2ab1e93cf1a45638bfb8e389"
                            },
                            {
                                "decimalAvailable": true,
                                "name": "value",
                                "type": "uint256",
                                "value": "8,888,000,000,000,000,000,000"
                            }
                        ],
                        "signature": "Transfer(address,address,uint256)"
                    },
                    "id": 18,
                    "logData": "0x0000000000000000000000000000000000000000000001e1d1c72d5b97e00000",
                    "logDecoded": true,
                    "operation": "EVENT",
                    "revert": false,
                    "status": true,
                    "topics": [
                        "0xddf252ad1be2c89b69c2b068fc378daa952ba7f163c4a11628f55a4df523b3ef",
                        "0x000000000000000000000000aaaaa798ebb90066788951e0fc03bc71e6bc2b51",
                        "0x000000000000000000000000f1f717ef007fef9e2ab1e93cf1a45638bfb8e389"
                    ]
                },
                "nodeType": 1
            },
            "19": {
                "invocation": {
                    "address": "0x77fe30b2cf39245267c0a5084b66a560f1cf9e1f",
                    "callData": "0x0000000000000000000000003ed248bac140ee4dc559887fc2e151347819867b0000000000000000000000000000000000000000000001e1d1c72d5b97e00000",
                    "decodedMethod": {
                        "callParams": [
                            {
                                "name": "_to",
                                "type": "address",
                                "value": "0x3ed248bac140ee4dc559887fc2e151347819867b"
                            },
                            {
                                "decimalAvailable": true,
                                "name": "_value",
                                "type": "uint256",
                                "value": "8,888,000,000,000,000,000,000"
                            }
                        ],
                        "constructorArguments": "",
                        "name": "transfer",
                        "returnParams": [
                            {
                                "name": "success",
                                "type": "bool",
                                "value": true
                            }
                        ],
                        "signature": "transfer(address,uint256)"
                    },
                    "errorInfo": "",
                    "fromAddress": "0xaaaaa798ebb90066788951e0fc03bc71e6bc2b51",
                    "gasUsed": 30388,
                    "id": 19,
                    "methodDecoded": true,
                    "operation": "CALL",
                    "output": "0x0000000000000000000000000000000000000000000000000000000000000001",
                    "revert": false,
                    "revertMessage": "",
                    "selector": "0xa9059cbb",
                    "status": true,
                    "value": "0"
                },
                "nodeType": 0
            },
            "2": {
                "event": {
                    "contract": "0x77fe30b2cf39245267c0a5084b66a560f1cf9e1f",
                    "decodedLog": {
                        "name": "Transfer",
                        "params": [
                            {
                                "name": "from",
                                "type": "address",
                                "value": "0xaaaaa798ebb90066788951e0fc03bc71e6bc2b51"
                            },
                            {
                                "name": "to",
                                "type": "address",
                                "value": "0xc86376213d97a376bd317a19861cb16d16cadcb6"
                            },
                            {
                                "decimalAvailable": true,
                                "name": "value",
                                "type": "uint256",
                                "value": "8,888,000,000,000,000,000,000"
                            }
                        ],
                        "signature": "Transfer(address,address,uint256)"
                    },
                    "id": 2,
                    "logData": "0x0000000000000000000000000000000000000000000001e1d1c72d5b97e00000",
                    "logDecoded": true,
                    "operation": "EVENT",
                    "revert": false,
                    "status": true,
                    "topics": [
                        "0xddf252ad1be2c89b69c2b068fc378daa952ba7f163c4a11628f55a4df523b3ef",
                        "0x000000000000000000000000aaaaa798ebb90066788951e0fc03bc71e6bc2b51",
                        "0x000000000000000000000000c86376213d97a376bd317a19861cb16d16cadcb6"
                    ]
                },
                "nodeType": 1
            },
            "20": {
                "event": {
                    "contract": "0x77fe30b2cf39245267c0a5084b66a560f1cf9e1f",
                    "decodedLog": {
                        "name": "Transfer",
                        "params": [
                            {
                                "name": "from",
                                "type": "address",
                                "value": "0xaaaaa798ebb90066788951e0fc03bc71e6bc2b51"
                            },
                            {
                                "name": "to",
                                "type": "address",
                                "value": "0x3ed248bac140ee4dc559887fc2e151347819867b"
                            },
                            {
                                "decimalAvailable": true,
                                "name": "value",
                                "type": "uint256",
                                "value": "8,888,000,000,000,000,000,000"
                            }
                        ],
                        "signature": "Transfer(address,address,uint256)"
                    },
                    "id": 20,
                    "logData": "0x0000000000000000000000000000000000000000000001e1d1c72d5b97e00000",
                    "logDecoded": true,
                    "operation": "EVENT",
                    "revert": false,
                    "status": true,
                    "topics": [
                        "0xddf252ad1be2c89b69c2b068fc378daa952ba7f163c4a11628f55a4df523b3ef",
                        "0x000000000000000000000000aaaaa798ebb90066788951e0fc03bc71e6bc2b51",
                        "0x0000000000000000000000003ed248bac140ee4dc559887fc2e151347819867b"
                    ]
                },
                "nodeType": 1
            },
            "21": {
                "invocation": {
                    "address": "0x77fe30b2cf39245267c0a5084b66a560f1cf9e1f",
                    "callData": "0x0000000000000000000000001329db768a65a99b738893c20847055b3e0799070000000000000000000000000000000000000000000001e1d1c72d5b97e00000",
                    "decodedMethod": {
                        "callParams": [
                            {
                                "name": "_to",
                                "type": "address",
                                "value": "0x1329db768a65a99b738893c20847055b3e079907"
                            },
                            {
                                "decimalAvailable": true,
                                "name": "_value",
                                "type": "uint256",
                                "value": "8,888,000,000,000,000,000,000"
                            }
                        ],
                        "constructorArguments": "",
                        "name": "transfer",
                        "returnParams": [
                            {
                                "name": "success",
                                "type": "bool",
                                "value": true
                            }
                        ],
                        "signature": "transfer(address,uint256)"
                    },
                    "errorInfo": "",
                    "fromAddress": "0xaaaaa798ebb90066788951e0fc03bc71e6bc2b51",
                    "gasUsed": 30388,
                    "id": 21,
                    "methodDecoded": true,
                    "operation": "CALL",
                    "output": "0x0000000000000000000000000000000000000000000000000000000000000001",
                    "revert": false,
                    "revertMessage": "",
                    "selector": "0xa9059cbb",
                    "status": true,
                    "value": "0"
                },
                "nodeType": 0
            },
            "22": {
                "event": {
                    "contract": "0x77fe30b2cf39245267c0a5084b66a560f1cf9e1f",
                    "decodedLog": {
                        "name": "Transfer",
                        "params": [
                            {
                                "name": "from",
                                "type": "address",
                                "value": "0xaaaaa798ebb90066788951e0fc03bc71e6bc2b51"
                            },
                            {
                                "name": "to",
                                "type": "address",
                                "value": "0x1329db768a65a99b738893c20847055b3e079907"
                            },
                            {
                                "decimalAvailable": true,
                                "name": "value",
                                "type": "uint256",
                                "value": "8,888,000,000,000,000,000,000"
                            }
                        ],
                        "signature": "Transfer(address,address,uint256)"
                    },
                    "id": 22,
                    "logData": "0x0000000000000000000000000000000000000000000001e1d1c72d5b97e00000",
                    "logDecoded": true,
                    "operation": "EVENT",
                    "revert": false,
                    "status": true,
                    "topics": [
                        "0xddf252ad1be2c89b69c2b068fc378daa952ba7f163c4a11628f55a4df523b3ef",
                        "0x000000000000000000000000aaaaa798ebb90066788951e0fc03bc71e6bc2b51",
                        "0x0000000000000000000000001329db768a65a99b738893c20847055b3e079907"
                    ]
                },
                "nodeType": 1
            },
            "23": {
                "invocation": {
                    "address": "0x77fe30b2cf39245267c0a5084b66a560f1cf9e1f",
                    "callData": "0x0000000000000000000000003ff189b4ae53ce5e03704c605d80c8ae1094b92c0000000000000000000000000000000000000000000001e1d1c72d5b97e00000",
                    "decodedMethod": {
                        "callParams": [
                            {
                                "name": "_to",
                                "type": "address",
                                "value": "0x3ff189b4ae53ce5e03704c605d80c8ae1094b92c"
                            },
                            {
                                "decimalAvailable": true,
                                "name": "_value",
                                "type": "uint256",
                                "value": "8,888,000,000,000,000,000,000"
                            }
                        ],
                        "constructorArguments": "",
                        "name": "transfer",
                        "returnParams": [
                            {
                                "name": "success",
                                "type": "bool",
                                "value": true
                            }
                        ],
                        "signature": "transfer(address,uint256)"
                    },
                    "errorInfo": "",
                    "fromAddress": "0xaaaaa798ebb90066788951e0fc03bc71e6bc2b51",
                    "gasUsed": 30388,
                    "id": 23,
                    "methodDecoded": true,
                    "operation": "CALL",
                    "output": "0x0000000000000000000000000000000000000000000000000000000000000001",
                    "revert": false,
                    "revertMessage": "",
                    "selector": "0xa9059cbb",
                    "status": true,
                    "value": "0"
                },
                "nodeType": 0
            },
            "24": {
                "event": {
                    "contract": "0x77fe30b2cf39245267c0a5084b66a560f1cf9e1f",
                    "decodedLog": {
                        "name": "Transfer",
                        "params": [
                            {
                                "name": "from",
                                "type": "address",
                                "value": "0xaaaaa798ebb90066788951e0fc03bc71e6bc2b51"
                            },
                            {
                                "name": "to",
                                "type": "address",
                                "value": "0x3ff189b4ae53ce5e03704c605d80c8ae1094b92c"
                            },
                            {
                                "decimalAvailable": true,
                                "name": "value",
                                "type": "uint256",
                                "value": "8,888,000,000,000,000,000,000"
                            }
                        ],
                        "signature": "Transfer(address,address,uint256)"
                    },
                    "id": 24,
                    "logData": "0x0000000000000000000000000000000000000000000001e1d1c72d5b97e00000",
                    "logDecoded": true,
                    "operation": "EVENT",
                    "revert": false,
                    "status": true,
                    "topics": [
                        "0xddf252ad1be2c89b69c2b068fc378daa952ba7f163c4a11628f55a4df523b3ef",
                        "0x000000000000000000000000aaaaa798ebb90066788951e0fc03bc71e6bc2b51",
                        "0x0000000000000000000000003ff189b4ae53ce5e03704c605d80c8ae1094b92c"
                    ]
                },
                "nodeType": 1
            },
            "25": {
                "invocation": {
                    "address": "0x77fe30b2cf39245267c0a5084b66a560f1cf9e1f",
                    "callData": "0x000000000000000000000000d8d4951540200dc8e38c447f67c40771a5297b430000000000000000000000000000000000000000000001e1d1c72d5b97e00000",
                    "decodedMethod": {
                        "callParams": [
                            {
                                "name": "_to",
                                "type": "address",
                                "value": "0xd8d4951540200dc8e38c447f67c40771a5297b43"
                            },
                            {
                                "decimalAvailable": true,
                                "name": "_value",
                                "type": "uint256",
                                "value": "8,888,000,000,000,000,000,000"
                            }
                        ],
                        "constructorArguments": "",
                        "name": "transfer",
                        "returnParams": [
                            {
                                "name": "success",
                                "type": "bool",
                                "value": true
                            }
                        ],
                        "signature": "transfer(address,uint256)"
                    },
                    "errorInfo": "",
                    "fromAddress": "0xaaaaa798ebb90066788951e0fc03bc71e6bc2b51",
                    "gasUsed": 30388,
                    "id": 25,
                    "methodDecoded": true,
                    "operation": "CALL",
                    "output": "0x0000000000000000000000000000000000000000000000000000000000000001",
                    "revert": false,
                    "revertMessage": "",
                    "selector": "0xa9059cbb",
                    "status": true,
                    "value": "0"
                },
                "nodeType": 0
            },
            "26": {
                "event": {
                    "contract": "0x77fe30b2cf39245267c0a5084b66a560f1cf9e1f",
                    "decodedLog": {
                        "name": "Transfer",
                        "params": [
                            {
                                "name": "from",
                                "type": "address",
                                "value": "0xaaaaa798ebb90066788951e0fc03bc71e6bc2b51"
                            },
                            {
                                "name": "to",
                                "type": "address",
                                "value": "0xd8d4951540200dc8e38c447f67c40771a5297b43"
                            },
                            {
                                "decimalAvailable": true,
                                "name": "value",
                                "type": "uint256",
                                "value": "8,888,000,000,000,000,000,000"
                            }
                        ],
                        "signature": "Transfer(address,address,uint256)"
                    },
                    "id": 26,
                    "logData": "0x0000000000000000000000000000000000000000000001e1d1c72d5b97e00000",
                    "logDecoded": true,
                    "operation": "EVENT",
                    "revert": false,
                    "status": true,
                    "topics": [
                        "0xddf252ad1be2c89b69c2b068fc378daa952ba7f163c4a11628f55a4df523b3ef",
                        "0x000000000000000000000000aaaaa798ebb90066788951e0fc03bc71e6bc2b51",
                        "0x000000000000000000000000d8d4951540200dc8e38c447f67c40771a5297b43"
                    ]
                },
                "nodeType": 1
            },
            "27": {
                "invocation": {
                    "address": "0x77fe30b2cf39245267c0a5084b66a560f1cf9e1f",
                    "callData": "0x000000000000000000000000c8e77983dd6fb0d3e11ba46c378392faede295090000000000000000000000000000000000000000000001e1d1c72d5b97e00000",
                    "decodedMethod": {
                        "callParams": [
                            {
                                "name": "_to",
                                "type": "address",
                                "value": "0xc8e77983dd6fb0d3e11ba46c378392faede29509"
                            },
                            {
                                "decimalAvailable": true,
                                "name": "_value",
                                "type": "uint256",
                                "value": "8,888,000,000,000,000,000,000"
                            }
                        ],
                        "constructorArguments": "",
                        "name": "transfer",
                        "returnParams": [
                            {
                                "name": "success",
                                "type": "bool",
                                "value": true
                            }
                        ],
                        "signature": "transfer(address,uint256)"
                    },
                    "errorInfo": "",
                    "fromAddress": "0xaaaaa798ebb90066788951e0fc03bc71e6bc2b51",
                    "gasUsed": 30388,
                    "id": 27,
                    "methodDecoded": true,
                    "operation": "CALL",
                    "output": "0x0000000000000000000000000000000000000000000000000000000000000001",
                    "revert": false,
                    "revertMessage": "",
                    "selector": "0xa9059cbb",
                    "status": true,
                    "value": "0"
                },
                "nodeType": 0
            },
            "28": {
                "event": {
                    "contract": "0x77fe30b2cf39245267c0a5084b66a560f1cf9e1f",
                    "decodedLog": {
                        "name": "Transfer",
                        "params": [
                            {
                                "name": "from",
                                "type": "address",
                                "value": "0xaaaaa798ebb90066788951e0fc03bc71e6bc2b51"
                            },
                            {
                                "name": "to",
                                "type": "address",
                                "value": "0xc8e77983dd6fb0d3e11ba46c378392faede29509"
                            },
                            {
                                "decimalAvailable": true,
                                "name": "value",
                                "type": "uint256",
                                "value": "8,888,000,000,000,000,000,000"
                            }
                        ],
                        "signature": "Transfer(address,address,uint256)"
                    },
                    "id": 28,
                    "logData": "0x0000000000000000000000000000000000000000000001e1d1c72d5b97e00000",
                    "logDecoded": true,
                    "operation": "EVENT",
                    "revert": false,
                    "status": true,
                    "topics": [
                        "0xddf252ad1be2c89b69c2b068fc378daa952ba7f163c4a11628f55a4df523b3ef",
                        "0x000000000000000000000000aaaaa798ebb90066788951e0fc03bc71e6bc2b51",
                        "0x000000000000000000000000c8e77983dd6fb0d3e11ba46c378392faede29509"
                    ]
                },
                "nodeType": 1
            },
            "29": {
                "invocation": {
                    "address": "0x77fe30b2cf39245267c0a5084b66a560f1cf9e1f",
                    "callData": "0x00000000000000000000000075034b5c8629084a37c1aebb957a215bca52ca410000000000000000000000000000000000000000000001e1d1c72d5b97e00000",
                    "decodedMethod": {
                        "callParams": [
                            {
                                "name": "_to",
                                "type": "address",
                                "value": "0x75034b5c8629084a37c1aebb957a215bca52ca41"
                            },
                            {
                                "decimalAvailable": true,
                                "name": "_value",
                                "type": "uint256",
                                "value": "8,888,000,000,000,000,000,000"
                            }
                        ],
                        "constructorArguments": "",
                        "name": "transfer",
                        "returnParams": [
                            {
                                "name": "success",
                                "type": "bool",
                                "value": true
                            }
                        ],
                        "signature": "transfer(address,uint256)"
                    },
                    "errorInfo": "",
                    "fromAddress": "0xaaaaa798ebb90066788951e0fc03bc71e6bc2b51",
                    "gasUsed": 30388,
                    "id": 29,
                    "methodDecoded": true,
                    "operation": "CALL",
                    "output": "0x0000000000000000000000000000000000000000000000000000000000000001",
                    "revert": false,
                    "revertMessage": "",
                    "selector": "0xa9059cbb",
                    "status": true,
                    "value": "0"
                },
                "nodeType": 0
            },
            "3": {
                "invocation": {
                    "address": "0x77fe30b2cf39245267c0a5084b66a560f1cf9e1f",
                    "callData": "0x0000000000000000000000000aae6c1228f13274f10aa3cb4b2670e0ccad49db0000000000000000000000000000000000000000000001e1d1c72d5b97e00000",
                    "decodedMethod": {
                        "callParams": [
                            {
                                "name": "_to",
                                "type": "address",
                                "value": "0x0aae6c1228f13274f10aa3cb4b2670e0ccad49db"
                            },
                            {
                                "decimalAvailable": true,
                                "name": "_value",
                                "type": "uint256",
                                "value": "8,888,000,000,000,000,000,000"
                            }
                        ],
                        "constructorArguments": "",
                        "name": "transfer",
                        "returnParams": [
                            {
                                "name": "success",
                                "type": "bool",
                                "value": true
                            }
                        ],
                        "signature": "transfer(address,uint256)"
                    },
                    "errorInfo": "",
                    "fromAddress": "0xaaaaa798ebb90066788951e0fc03bc71e6bc2b51",
                    "gasUsed": 30388,
                    "id": 3,
                    "methodDecoded": true,
                    "operation": "CALL",
                    "output": "0x0000000000000000000000000000000000000000000000000000000000000001",
                    "revert": false,
                    "revertMessage": "",
                    "selector": "0xa9059cbb",
                    "status": true,
                    "value": "0"
                },
                "nodeType": 0
            },
            "30": {
                "event": {
                    "contract": "0x77fe30b2cf39245267c0a5084b66a560f1cf9e1f",
                    "decodedLog": {
                        "name": "Transfer",
                        "params": [
                            {
                                "name": "from",
                                "type": "address",
                                "value": "0xaaaaa798ebb90066788951e0fc03bc71e6bc2b51"
                            },
                            {
                                "name": "to",
                                "type": "address",
                                "value": "0x75034b5c8629084a37c1aebb957a215bca52ca41"
                            },
                            {
                                "decimalAvailable": true,
                                "name": "value",
                                "type": "uint256",
                                "value": "8,888,000,000,000,000,000,000"
                            }
                        ],
                        "signature": "Transfer(address,address,uint256)"
                    },
                    "id": 30,
                    "logData": "0x0000000000000000000000000000000000000000000001e1d1c72d5b97e00000",
                    "logDecoded": true,
                    "operation": "EVENT",
                    "revert": false,
                    "status": true,
                    "topics": [
                        "0xddf252ad1be2c89b69c2b068fc378daa952ba7f163c4a11628f55a4df523b3ef",
                        "0x000000000000000000000000aaaaa798ebb90066788951e0fc03bc71e6bc2b51",
                        "0x00000000000000000000000075034b5c8629084a37c1aebb957a215bca52ca41"
                    ]
                },
                "nodeType": 1
            },
            "31": {
                "invocation": {
                    "address": "0x77fe30b2cf39245267c0a5084b66a560f1cf9e1f",
                    "callData": "0x00000000000000000000000085994b78cc85693c4ef2cfbe9258c22ce4e09e460000000000000000000000000000000000000000000001e1d1c72d5b97e00000",
                    "decodedMethod": {
                        "callParams": [
                            {
                                "name": "_to",
                                "type": "address",
                                "value": "0x85994b78cc85693c4ef2cfbe9258c22ce4e09e46"
                            },
                            {
                                "decimalAvailable": true,
                                "name": "_value",
                                "type": "uint256",
                                "value": "8,888,000,000,000,000,000,000"
                            }
                        ],
                        "constructorArguments": "",
                        "name": "transfer",
                        "returnParams": [
                            {
                                "name": "success",
                                "type": "bool",
                                "value": true
                            }
                        ],
                        "signature": "transfer(address,uint256)"
                    },
                    "errorInfo": "",
                    "fromAddress": "0xaaaaa798ebb90066788951e0fc03bc71e6bc2b51",
                    "gasUsed": 30388,
                    "id": 31,
                    "methodDecoded": true,
                    "operation": "CALL",
                    "output": "0x0000000000000000000000000000000000000000000000000000000000000001",
                    "revert": false,
                    "revertMessage": "",
                    "selector": "0xa9059cbb",
                    "status": true,
                    "value": "0"
                },
                "nodeType": 0
            },
            "32": {
                "event": {
                    "contract": "0x77fe30b2cf39245267c0a5084b66a560f1cf9e1f",
                    "decodedLog": {
                        "name": "Transfer",
                        "params": [
                            {
                                "name": "from",
                                "type": "address",
                                "value": "0xaaaaa798ebb90066788951e0fc03bc71e6bc2b51"
                            },
                            {
                                "name": "to",
                                "type": "address",
                                "value": "0x85994b78cc85693c4ef2cfbe9258c22ce4e09e46"
                            },
                            {
                                "decimalAvailable": true,
                                "name": "value",
                                "type": "uint256",
                                "value": "8,888,000,000,000,000,000,000"
                            }
                        ],
                        "signature": "Transfer(address,address,uint256)"
                    },
                    "id": 32,
                    "logData": "0x0000000000000000000000000000000000000000000001e1d1c72d5b97e00000",
                    "logDecoded": true,
                    "operation": "EVENT",
                    "revert": false,
                    "status": true,
                    "topics": [
                        "0xddf252ad1be2c89b69c2b068fc378daa952ba7f163c4a11628f55a4df523b3ef",
                        "0x000000000000000000000000aaaaa798ebb90066788951e0fc03bc71e6bc2b51",
                        "0x00000000000000000000000085994b78cc85693c4ef2cfbe9258c22ce4e09e46"
                    ]
                },
                "nodeType": 1
            },
            "33": {
                "invocation": {
                    "address": "0x77fe30b2cf39245267c0a5084b66a560f1cf9e1f",
                    "callData": "0x0000000000000000000000004dc44d9648f93147fceca12b07bbe2134fb340710000000000000000000000000000000000000000000001e1d1c72d5b97e00000",
                    "decodedMethod": {
                        "callParams": [
                            {
                                "name": "_to",
                                "type": "address",
                                "value": "0x4dc44d9648f93147fceca12b07bbe2134fb34071"
                            },
                            {
                                "decimalAvailable": true,
                                "name": "_value",
                                "type": "uint256",
                                "value": "8,888,000,000,000,000,000,000"
                            }
                        ],
                        "constructorArguments": "",
                        "name": "transfer",
                        "returnParams": [
                            {
                                "name": "success",
                                "type": "bool",
                                "value": true
                            }
                        ],
                        "signature": "transfer(address,uint256)"
                    },
                    "errorInfo": "",
                    "fromAddress": "0xaaaaa798ebb90066788951e0fc03bc71e6bc2b51",
                    "gasUsed": 30388,
                    "id": 33,
                    "methodDecoded": true,
                    "operation": "CALL",
                    "output": "0x0000000000000000000000000000000000000000000000000000000000000001",
                    "revert": false,
                    "revertMessage": "",
                    "selector": "0xa9059cbb",
                    "status": true,
                    "value": "0"
                },
                "nodeType": 0
            },
            "34": {
                "event": {
                    "contract": "0x77fe30b2cf39245267c0a5084b66a560f1cf9e1f",
                    "decodedLog": {
                        "name": "Transfer",
                        "params": [
                            {
                                "name": "from",
                                "type": "address",
                                "value": "0xaaaaa798ebb90066788951e0fc03bc71e6bc2b51"
                            },
                            {
                                "name": "to",
                                "type": "address",
                                "value": "0x4dc44d9648f93147fceca12b07bbe2134fb34071"
                            },
                            {
                                "decimalAvailable": true,
                                "name": "value",
                                "type": "uint256",
                                "value": "8,888,000,000,000,000,000,000"
                            }
                        ],
                        "signature": "Transfer(address,address,uint256)"
                    },
                    "id": 34,
                    "logData": "0x0000000000000000000000000000000000000000000001e1d1c72d5b97e00000",
                    "logDecoded": true,
                    "operation": "EVENT",
                    "revert": false,
                    "status": true,
                    "topics": [
                        "0xddf252ad1be2c89b69c2b068fc378daa952ba7f163c4a11628f55a4df523b3ef",
                        "0x000000000000000000000000aaaaa798ebb90066788951e0fc03bc71e6bc2b51",
                        "0x0000000000000000000000004dc44d9648f93147fceca12b07bbe2134fb34071"
                    ]
                },
                "nodeType": 1
            },
            "35": {
                "invocation": {
                    "address": "0x77fe30b2cf39245267c0a5084b66a560f1cf9e1f",
                    "callData": "0x0000000000000000000000002ba124570d51173e81c10de18c9b471fab6cd27d0000000000000000000000000000000000000000000001e1d1c72d5b97e00000",
                    "decodedMethod": {
                        "callParams": [
                            {
                                "name": "_to",
                                "type": "address",
                                "value": "0x2ba124570d51173e81c10de18c9b471fab6cd27d"
                            },
                            {
                                "decimalAvailable": true,
                                "name": "_value",
                                "type": "uint256",
                                "value": "8,888,000,000,000,000,000,000"
                            }
                        ],
                        "constructorArguments": "",
                        "name": "transfer",
                        "returnParams": [
                            {
                                "name": "success",
                                "type": "bool",
                                "value": true
                            }
                        ],
                        "signature": "transfer(address,uint256)"
                    },
                    "errorInfo": "",
                    "fromAddress": "0xaaaaa798ebb90066788951e0fc03bc71e6bc2b51",
                    "gasUsed": 30388,
                    "id": 35,
                    "methodDecoded": true,
                    "operation": "CALL",
                    "output": "0x0000000000000000000000000000000000000000000000000000000000000001",
                    "revert": false,
                    "revertMessage": "",
                    "selector": "0xa9059cbb",
                    "status": true,
                    "value": "0"
                },
                "nodeType": 0
            },
            "36": {
                "event": {
                    "contract": "0x77fe30b2cf39245267c0a5084b66a560f1cf9e1f",
                    "decodedLog": {
                        "name": "Transfer",
                        "params": [
                            {
                                "name": "from",
                                "type": "address",
                                "value": "0xaaaaa798ebb90066788951e0fc03bc71e6bc2b51"
                            },
                            {
                                "name": "to",
                                "type": "address",
                                "value": "0x2ba124570d51173e81c10de18c9b471fab6cd27d"
                            },
                            {
                                "decimalAvailable": true,
                                "name": "value",
                                "type": "uint256",
                                "value": "8,888,000,000,000,000,000,000"
                            }
                        ],
                        "signature": "Transfer(address,address,uint256)"
                    },
                    "id": 36,
                    "logData": "0x0000000000000000000000000000000000000000000001e1d1c72d5b97e00000",
                    "logDecoded": true,
                    "operation": "EVENT",
                    "revert": false,
                    "status": true,
                    "topics": [
                        "0xddf252ad1be2c89b69c2b068fc378daa952ba7f163c4a11628f55a4df523b3ef",
                        "0x000000000000000000000000aaaaa798ebb90066788951e0fc03bc71e6bc2b51",
                        "0x0000000000000000000000002ba124570d51173e81c10de18c9b471fab6cd27d"
                    ]
                },
                "nodeType": 1
            },
            "37": {
                "invocation": {
                    "address": "0x77fe30b2cf39245267c0a5084b66a560f1cf9e1f",
                    "callData": "0x00000000000000000000000098173557c308cc87bf017b5323598d9147e07c6c0000000000000000000000000000000000000000000001e1d1c72d5b97e00000",
                    "decodedMethod": {
                        "callParams": [
                            {
                                "name": "_to",
                                "type": "address",
                                "value": "0x98173557c308cc87bf017b5323598d9147e07c6c"
                            },
                            {
                                "decimalAvailable": true,
                                "name": "_value",
                                "type": "uint256",
                                "value": "8,888,000,000,000,000,000,000"
                            }
                        ],
                        "constructorArguments": "",
                        "name": "transfer",
                        "returnParams": [
                            {
                                "name": "success",
                                "type": "bool",
                                "value": true
                            }
                        ],
                        "signature": "transfer(address,uint256)"
                    },
                    "errorInfo": "",
                    "fromAddress": "0xaaaaa798ebb90066788951e0fc03bc71e6bc2b51",
                    "gasUsed": 30388,
                    "id": 37,
                    "methodDecoded": true,
                    "operation": "CALL",
                    "output": "0x0000000000000000000000000000000000000000000000000000000000000001",
                    "revert": false,
                    "revertMessage": "",
                    "selector": "0xa9059cbb",
                    "status": true,
                    "value": "0"
                },
                "nodeType": 0
            },
            "38": {
                "event": {
                    "contract": "0x77fe30b2cf39245267c0a5084b66a560f1cf9e1f",
                    "decodedLog": {
                        "name": "Transfer",
                        "params": [
                            {
                                "name": "from",
                                "type": "address",
                                "value": "0xaaaaa798ebb90066788951e0fc03bc71e6bc2b51"
                            },
                            {
                                "name": "to",
                                "type": "address",
                                "value": "0x98173557c308cc87bf017b5323598d9147e07c6c"
                            },
                            {
                                "decimalAvailable": true,
                                "name": "value",
                                "type": "uint256",
                                "value": "8,888,000,000,000,000,000,000"
                            }
                        ],
                        "signature": "Transfer(address,address,uint256)"
                    },
                    "id": 38,
                    "logData": "0x0000000000000000000000000000000000000000000001e1d1c72d5b97e00000",
                    "logDecoded": true,
                    "operation": "EVENT",
                    "revert": false,
                    "status": true,
                    "topics": [
                        "0xddf252ad1be2c89b69c2b068fc378daa952ba7f163c4a11628f55a4df523b3ef",
                        "0x000000000000000000000000aaaaa798ebb90066788951e0fc03bc71e6bc2b51",
                        "0x00000000000000000000000098173557c308cc87bf017b5323598d9147e07c6c"
                    ]
                },
                "nodeType": 1
            },
            "39": {
                "invocation": {
                    "address": "0x77fe30b2cf39245267c0a5084b66a560f1cf9e1f",
                    "callData": "0x000000000000000000000000c70db7ea7b7f63abdfdf8792d72f8fd6845d3e450000000000000000000000000000000000000000000001e1d1c72d5b97e00000",
                    "decodedMethod": {
                        "callParams": [
                            {
                                "name": "_to",
                                "type": "address",
                                "value": "0xc70db7ea7b7f63abdfdf8792d72f8fd6845d3e45"
                            },
                            {
                                "decimalAvailable": true,
                                "name": "_value",
                                "type": "uint256",
                                "value": "8,888,000,000,000,000,000,000"
                            }
                        ],
                        "constructorArguments": "",
                        "name": "transfer",
                        "returnParams": [
                            {
                                "name": "success",
                                "type": "bool",
                                "value": true
                            }
                        ],
                        "signature": "transfer(address,uint256)"
                    },
                    "errorInfo": "",
                    "fromAddress": "0xaaaaa798ebb90066788951e0fc03bc71e6bc2b51",
                    "gasUsed": 30388,
                    "id": 39,
                    "methodDecoded": true,
                    "operation": "CALL",
                    "output": "0x0000000000000000000000000000000000000000000000000000000000000001",
                    "revert": false,
                    "revertMessage": "",
                    "selector": "0xa9059cbb",
                    "status": true,
                    "value": "0"
                },
                "nodeType": 0
            },
            "4": {
                "event": {
                    "contract": "0x77fe30b2cf39245267c0a5084b66a560f1cf9e1f",
                    "decodedLog": {
                        "name": "Transfer",
                        "params": [
                            {
                                "name": "from",
                                "type": "address",
                                "value": "0xaaaaa798ebb90066788951e0fc03bc71e6bc2b51"
                            },
                            {
                                "name": "to",
                                "type": "address",
                                "value": "0x0aae6c1228f13274f10aa3cb4b2670e0ccad49db"
                            },
                            {
                                "decimalAvailable": true,
                                "name": "value",
                                "type": "uint256",
                                "value": "8,888,000,000,000,000,000,000"
                            }
                        ],
                        "signature": "Transfer(address,address,uint256)"
                    },
                    "id": 4,
                    "logData": "0x0000000000000000000000000000000000000000000001e1d1c72d5b97e00000",
                    "logDecoded": true,
                    "operation": "EVENT",
                    "revert": false,
                    "status": true,
                    "topics": [
                        "0xddf252ad1be2c89b69c2b068fc378daa952ba7f163c4a11628f55a4df523b3ef",
                        "0x000000000000000000000000aaaaa798ebb90066788951e0fc03bc71e6bc2b51",
                        "0x0000000000000000000000000aae6c1228f13274f10aa3cb4b2670e0ccad49db"
                    ]
                },
                "nodeType": 1
            },
            "40": {
                "event": {
                    "contract": "0x77fe30b2cf39245267c0a5084b66a560f1cf9e1f",
                    "decodedLog": {
                        "name": "Transfer",
                        "params": [
                            {
                                "name": "from",
                                "type": "address",
                                "value": "0xaaaaa798ebb90066788951e0fc03bc71e6bc2b51"
                            },
                            {
                                "name": "to",
                                "type": "address",
                                "value": "0xc70db7ea7b7f63abdfdf8792d72f8fd6845d3e45"
                            },
                            {
                                "decimalAvailable": true,
                                "name": "value",
                                "type": "uint256",
                                "value": "8,888,000,000,000,000,000,000"
                            }
                        ],
                        "signature": "Transfer(address,address,uint256)"
                    },
                    "id": 40,
                    "logData": "0x0000000000000000000000000000000000000000000001e1d1c72d5b97e00000",
                    "logDecoded": true,
                    "operation": "EVENT",
                    "revert": false,
                    "status": true,
                    "topics": [
                        "0xddf252ad1be2c89b69c2b068fc378daa952ba7f163c4a11628f55a4df523b3ef",
                        "0x000000000000000000000000aaaaa798ebb90066788951e0fc03bc71e6bc2b51",
                        "0x000000000000000000000000c70db7ea7b7f63abdfdf8792d72f8fd6845d3e45"
                    ]
                },
                "nodeType": 1
            },
            "5": {
                "invocation": {
                    "address": "0x77fe30b2cf39245267c0a5084b66a560f1cf9e1f",
                    "callData": "0x000000000000000000000000b39cca2bfb5f19b23fc4359d5bbbc4d10d13333e0000000000000000000000000000000000000000000001e1d1c72d5b97e00000",
                    "decodedMethod": {
                        "callParams": [
                            {
                                "name": "_to",
                                "type": "address",
                                "value": "0xb39cca2bfb5f19b23fc4359d5bbbc4d10d13333e"
                            },
                            {
                                "decimalAvailable": true,
                                "name": "_value",
                                "type": "uint256",
                                "value": "8,888,000,000,000,000,000,000"
                            }
                        ],
                        "constructorArguments": "",
                        "name": "transfer",
                        "returnParams": [
                            {
                                "name": "success",
                                "type": "bool",
                                "value": true
                            }
                        ],
                        "signature": "transfer(address,uint256)"
                    },
                    "errorInfo": "",
                    "fromAddress": "0xaaaaa798ebb90066788951e0fc03bc71e6bc2b51",
                    "gasUsed": 30388,
                    "id": 5,
                    "methodDecoded": true,
                    "operation": "CALL",
                    "output": "0x0000000000000000000000000000000000000000000000000000000000000001",
                    "revert": false,
                    "revertMessage": "",
                    "selector": "0xa9059cbb",
                    "status": true,
                    "value": "0"
                },
                "nodeType": 0
            },
            "6": {
                "event": {
                    "contract": "0x77fe30b2cf39245267c0a5084b66a560f1cf9e1f",
                    "decodedLog": {
                        "name": "Transfer",
                        "params": [
                            {
                                "name": "from",
                                "type": "address",
                                "value": "0xaaaaa798ebb90066788951e0fc03bc71e6bc2b51"
                            },
                            {
                                "name": "to",
                                "type": "address",
                                "value": "0xb39cca2bfb5f19b23fc4359d5bbbc4d10d13333e"
                            },
                            {
                                "decimalAvailable": true,
                                "name": "value",
                                "type": "uint256",
                                "value": "8,888,000,000,000,000,000,000"
                            }
                        ],
                        "signature": "Transfer(address,address,uint256)"
                    },
                    "id": 6,
                    "logData": "0x0000000000000000000000000000000000000000000001e1d1c72d5b97e00000",
                    "logDecoded": true,
                    "operation": "EVENT",
                    "revert": false,
                    "status": true,
                    "topics": [
                        "0xddf252ad1be2c89b69c2b068fc378daa952ba7f163c4a11628f55a4df523b3ef",
                        "0x000000000000000000000000aaaaa798ebb90066788951e0fc03bc71e6bc2b51",
                        "0x000000000000000000000000b39cca2bfb5f19b23fc4359d5bbbc4d10d13333e"
                    ]
                },
                "nodeType": 1
            },
            "7": {
                "invocation": {
                    "address": "0x77fe30b2cf39245267c0a5084b66a560f1cf9e1f",
                    "callData": "0x00000000000000000000000058d8c3d70ce4fa4b9fb10a665c8712238746f2ff0000000000000000000000000000000000000000000001e1d1c72d5b97e00000",
                    "decodedMethod": {
                        "callParams": [
                            {
                                "name": "_to",
                                "type": "address",
                                "value": "0x58d8c3d70ce4fa4b9fb10a665c8712238746f2ff"
                            },
                            {
                                "decimalAvailable": true,
                                "name": "_value",
                                "type": "uint256",
                                "value": "8,888,000,000,000,000,000,000"
                            }
                        ],
                        "constructorArguments": "",
                        "name": "transfer",
                        "returnParams": [
                            {
                                "name": "success",
                                "type": "bool",
                                "value": true
                            }
                        ],
                        "signature": "transfer(address,uint256)"
                    },
                    "errorInfo": "",
                    "fromAddress": "0xaaaaa798ebb90066788951e0fc03bc71e6bc2b51",
                    "gasUsed": 30388,
                    "id": 7,
                    "methodDecoded": true,
                    "operation": "CALL",
                    "output": "0x0000000000000000000000000000000000000000000000000000000000000001",
                    "revert": false,
                    "revertMessage": "",
                    "selector": "0xa9059cbb",
                    "status": true,
                    "value": "0"
                },
                "nodeType": 0
            },
            "8": {
                "event": {
                    "contract": "0x77fe30b2cf39245267c0a5084b66a560f1cf9e1f",
                    "decodedLog": {
                        "name": "Transfer",
                        "params": [
                            {
                                "name": "from",
                                "type": "address",
                                "value": "0xaaaaa798ebb90066788951e0fc03bc71e6bc2b51"
                            },
                            {
                                "name": "to",
                                "type": "address",
                                "value": "0x58d8c3d70ce4fa4b9fb10a665c8712238746f2ff"
                            },
                            {
                                "decimalAvailable": true,
                                "name": "value",
                                "type": "uint256",
                                "value": "8,888,000,000,000,000,000,000"
                            }
                        ],
                        "signature": "Transfer(address,address,uint256)"
                    },
                    "id": 8,
                    "logData": "0x0000000000000000000000000000000000000000000001e1d1c72d5b97e00000",
                    "logDecoded": true,
                    "operation": "EVENT",
                    "revert": false,
                    "status": true,
                    "topics": [
                        "0xddf252ad1be2c89b69c2b068fc378daa952ba7f163c4a11628f55a4df523b3ef",
                        "0x000000000000000000000000aaaaa798ebb90066788951e0fc03bc71e6bc2b51",
                        "0x00000000000000000000000058d8c3d70ce4fa4b9fb10a665c8712238746f2ff"
                    ]
                },
                "nodeType": 1
            },
            "9": {
                "invocation": {
                    "address": "0x77fe30b2cf39245267c0a5084b66a560f1cf9e1f",
                    "callData": "0x000000000000000000000000c95be28595eb64485dac63ad14f15e41c94ee4680000000000000000000000000000000000000000000001e1d1c72d5b97e00000",
                    "decodedMethod": {
                        "callParams": [
                            {
                                "name": "_to",
                                "type": "address",
                                "value": "0xc95be28595eb64485dac63ad14f15e41c94ee468"
                            },
                            {
                                "decimalAvailable": true,
                                "name": "_value",
                                "type": "uint256",
                                "value": "8,888,000,000,000,000,000,000"
                            }
                        ],
                        "constructorArguments": "",
                        "name": "transfer",
                        "returnParams": [
                            {
                                "name": "success",
                                "type": "bool",
                                "value": true
                            }
                        ],
                        "signature": "transfer(address,uint256)"
                    },
                    "errorInfo": "",
                    "fromAddress": "0xaaaaa798ebb90066788951e0fc03bc71e6bc2b51",
                    "gasUsed": 30388,
                    "id": 9,
                    "methodDecoded": true,
                    "operation": "CALL",
                    "output": "0x0000000000000000000000000000000000000000000000000000000000000001",
                    "revert": false,
                    "revertMessage": "",
                    "selector": "0xa9059cbb",
                    "status": true,
                    "value": "0"
                },
                "nodeType": 0
            }
        },
        "gasFlame": [
            {
                "children": [
                    {
                        "children": [
                            {
                                "children": [],
                                "depth": 0,
                                "name": "Initial Gas",
                                "value": 50392
                            },
                            {
                                "children": [
                                    {
                                        "children": [],
                                        "depth": 1,
                                        "name": "transfer",
                                        "value": 30388
                                    },
                                    {
                                        "children": [],
                                        "depth": 1,
                                        "name": "transfer",
                                        "value": 30388
                                    },
                                    {
                                        "children": [],
                                        "depth": 1,
                                        "name": "transfer",
                                        "value": 30388
                                    },
                                    {
                                        "children": [],
                                        "depth": 1,
                                        "name": "transfer",
                                        "value": 30388
                                    },
                                    {
                                        "children": [],
                                        "depth": 1,
                                        "name": "transfer",
                                        "value": 30388
                                    },
                                    {
                                        "children": [],
                                        "depth": 1,
                                        "name": "transfer",
                                        "value": 30388
                                    },
                                    {
                                        "children": [],
                                        "depth": 1,
                                        "name": "transfer",
                                        "value": 30388
                                    },
                                    {
                                        "children": [],
                                        "depth": 1,
                                        "name": "transfer",
                                        "value": 30388
                                    },
                                    {
                                        "children": [],
                                        "depth": 1,
                                        "name": "transfer",
                                        "value": 30388
                                    },
                                    {
                                        "children": [],
                                        "depth": 1,
                                        "name": "transfer",
                                        "value": 30388
                                    },
                                    {
                                        "children": [],
                                        "depth": 1,
                                        "name": "transfer",
                                        "value": 30388
                                    },
                                    {
                                        "children": [],
                                        "depth": 1,
                                        "name": "transfer",
                                        "value": 30388
                                    },
                                    {
                                        "children": [],
                                        "depth": 1,
                                        "name": "transfer",
                                        "value": 30388
                                    },
                                    {
                                        "children": [],
                                        "depth": 1,
                                        "name": "transfer",
                                        "value": 30388
                                    },
                                    {
                                        "children": [],
                                        "depth": 1,
                                        "name": "transfer",
                                        "value": 30388
                                    },
                                    {
                                        "children": [],
                                        "depth": 1,
                                        "name": "transfer",
                                        "value": 30388
                                    },
                                    {
                                        "children": [],
                                        "depth": 1,
                                        "name": "transfer",
                                        "value": 30388
                                    },
                                    {
                                        "children": [],
                                        "depth": 1,
                                        "name": "transfer",
                                        "value": 30388
                                    },
                                    {
                                        "children": [],
                                        "depth": 1,
                                        "name": "transfer",
                                        "value": 30388
                                    },
                                    {
                                        "children": [],
                                        "depth": 1,
                                        "name": "transfer",
                                        "value": 30388
                                    }
                                ],
                                "depth": 0,
                                "name": "Executed Gas",
                                "value": 650899
                            }
                        ],
                        "depth": -1,
                        "name": "Actual Gas Used",
                        "value": 701291
                    },
                    {
                        "children": [],
                        "depth": -1,
                        "name": "Refunded Gas",
                        "value": 0
                    }
                ],
                "depth": -2,
                "name": "Total Gas",
                "value": 701291
            }
        ],
        "isConfirmed": true,
        "mainTrace": [
            {
                "children": [
                    {
                        "children": [
                            {
                                "children": [
                                    {
                                        "children": [],
                                        "depth": 2,
                                        "id": 2,
                                        "order": 2
                                    }
                                ],
                                "depth": 1,
                                "id": 1,
                                "order": 1
                            },
                            {
                                "children": [
                                    {
                                        "children": [],
                                        "depth": 2,
                                        "id": 4,
                                        "order": 4
                                    }
                                ],
                                "depth": 1,
                                "id": 3,
                                "order": 3
                            },
                            {
                                "children": [
                                    {
                                        "children": [],
                                        "depth": 2,
                                        "id": 6,
                                        "order": 6
                                    }
                                ],
                                "depth": 1,
                                "id": 5,
                                "order": 5
                            },
                            {
                                "children": [
                                    {
                                        "children": [],
                                        "depth": 2,
                                        "id": 8,
                                        "order": 8
                                    }
                                ],
                                "depth": 1,
                                "id": 7,
                                "order": 7
                            },
                            {
                                "children": [
                                    {
                                        "children": [],
                                        "depth": 2,
                                        "id": 10,
                                        "order": 10
                                    }
                                ],
                                "depth": 1,
                                "id": 9,
                                "order": 9
                            },
                            {
                                "children": [
                                    {
                                        "children": [],
                                        "depth": 2,
                                        "id": 12,
                                        "order": 12
                                    }
                                ],
                                "depth": 1,
                                "id": 11,
                                "order": 11
                            },
                            {
                                "children": [
                                    {
                                        "children": [],
                                        "depth": 2,
                                        "id": 14,
                                        "order": 14
                                    }
                                ],
                                "depth": 1,
                                "id": 13,
                                "order": 13
                            },
                            {
                                "children": [
                                    {
                                        "children": [],
                                        "depth": 2,
                                        "id": 16,
                                        "order": 16
                                    }
                                ],
                                "depth": 1,
                                "id": 15,
                                "order": 15
                            },
                            {
                                "children": [
                                    {
                                        "children": [],
                                        "depth": 2,
                                        "id": 18,
                                        "order": 18
                                    }
                                ],
                                "depth": 1,
                                "id": 17,
                                "order": 17
                            },
                            {
                                "children": [
                                    {
                                        "children": [],
                                        "depth": 2,
                                        "id": 20,
                                        "order": 20
                                    }
                                ],
                                "depth": 1,
                                "id": 19,
                                "order": 19
                            },
                            {
                                "children": [
                                    {
                                        "children": [],
                                        "depth": 2,
                                        "id": 22,
                                        "order": 22
                                    }
                                ],
                                "depth": 1,
                                "id": 21,
                                "order": 21
                            },
                            {
                                "children": [
                                    {
                                        "children": [],
                                        "depth": 2,
                                        "id": 24,
                                        "order": 24
                                    }
                                ],
                                "depth": 1,
                                "id": 23,
                                "order": 23
                            },
                            {
                                "children": [
                                    {
                                        "children": [],
                                        "depth": 2,
                                        "id": 26,
                                        "order": 26
                                    }
                                ],
                                "depth": 1,
                                "id": 25,
                                "order": 25
                            },
                            {
                                "children": [
                                    {
                                        "children": [],
                                        "depth": 2,
                                        "id": 28,
                                        "order": 28
                                    }
                                ],
                                "depth": 1,
                                "id": 27,
                                "order": 27
                            },
                            {
                                "children": [
                                    {
                                        "children": [],
                                        "depth": 2,
                                        "id": 30,
                                        "order": 30
                                    }
                                ],
                                "depth": 1,
                                "id": 29,
                                "order": 29
                            },
                            {
                                "children": [
                                    {
                                        "children": [],
                                        "depth": 2,
                                        "id": 32,
                                        "order": 32
                                    }
                                ],
                                "depth": 1,
                                "id": 31,
                                "order": 31
                            },
                            {
                                "children": [
                                    {
                                        "children": [],
                                        "depth": 2,
                                        "id": 34,
                                        "order": 34
                                    }
                                ],
                                "depth": 1,
                                "id": 33,
                                "order": 33
                            },
                            {
                                "children": [
                                    {
                                        "children": [],
                                        "depth": 2,
                                        "id": 36,
                                        "order": 36
                                    }
                                ],
                                "depth": 1,
                                "id": 35,
                                "order": 35
                            },
                            {
                                "children": [
                                    {
                                        "children": [],
                                        "depth": 2,
                                        "id": 38,
                                        "order": 38
                                    }
                                ],
                                "depth": 1,
                                "id": 37,
                                "order": 37
                            },
                            {
                                "children": [
                                    {
                                        "children": [],
                                        "depth": 2,
                                        "id": 40,
                                        "order": 40
                                    }
                                ],
                                "depth": 1,
                                "id": 39,
                                "order": 39
                            }
                        ],
                        "depth": 0,
                        "id": 0,
                        "order": 0
                    }
                ],
                "depth": -1,
                "id": -1,
                "order": -1
            }
        ],
        "mainTraceNodeCount": 41,
        "parentIdMap": {
            "0": -1,
            "1": 0,
            "10": 9,
            "11": 0,
            "12": 11,
            "13": 0,
            "14": 13,
            "15": 0,
            "16": 15,
            "17": 0,
            "18": 17,
            "19": 0,
            "2": 1,
            "20": 19,
            "21": 0,
            "22": 21,
            "23": 0,
            "24": 23,
            "25": 0,
            "26": 25,
            "27": 0,
            "28": 27,
            "29": 0,
            "3": 0,
            "30": 29,
            "31": 0,
            "32": 31,
            "33": 0,
            "34": 33,
            "35": 0,
            "36": 35,
            "37": 0,
            "38": 37,
            "39": 0,
            "4": 3,
            "40": 39,
            "5": 0,
            "6": 5,
            "7": 0,
            "8": 7,
            "9": 0
        },
        "tidyTrace": [
            {
                "children": [
                    {
                        "children": [
                            {
                                "children": [
                                    {
                                        "children": [],
                                        "depth": 2,
                                        "id": 2,
                                        "order": 2
                                    }
                                ],
                                "depth": 1,
                                "id": 1,
                                "order": 1
                            },
                            {
                                "children": [
                                    {
                                        "children": [],
                                        "depth": 2,
                                        "id": 4,
                                        "order": 4
                                    }
                                ],
                                "depth": 1,
                                "id": 3,
                                "order": 3
                            },
                            {
                                "children": [
                                    {
                                        "children": [],
                                        "depth": 2,
                                        "id": 6,
                                        "order": 6
                                    }
                                ],
                                "depth": 1,
                                "id": 5,
                                "order": 5
                            },
                            {
                                "children": [
                                    {
                                        "children": [],
                                        "depth": 2,
                                        "id": 8,
                                        "order": 8
                                    }
                                ],
                                "depth": 1,
                                "id": 7,
                                "order": 7
                            },
                            {
                                "children": [
                                    {
                                        "children": [],
                                        "depth": 2,
                                        "id": 10,
                                        "order": 10
                                    }
                                ],
                                "depth": 1,
                                "id": 9,
                                "order": 9
                            },
                            {
                                "children": [
                                    {
                                        "children": [],
                                        "depth": 2,
                                        "id": 12,
                                        "order": 12
                                    }
                                ],
                                "depth": 1,
                                "id": 11,
                                "order": 11
                            },
                            {
                                "children": [
                                    {
                                        "children": [],
                                        "depth": 2,
                                        "id": 14,
                                        "order": 14
                                    }
                                ],
                                "depth": 1,
                                "id": 13,
                                "order": 13
                            },
                            {
                                "children": [
                                    {
                                        "children": [],
                                        "depth": 2,
                                        "id": 16,
                                        "order": 16
                                    }
                                ],
                                "depth": 1,
                                "id": 15,
                                "order": 15
                            },
                            {
                                "children": [
                                    {
                                        "children": [],
                                        "depth": 2,
                                        "id": 18,
                                        "order": 18
                                    }
                                ],
                                "depth": 1,
                                "id": 17,
                                "order": 17
                            },
                            {
                                "children": [
                                    {
                                        "children": [],
                                        "depth": 2,
                                        "id": 20,
                                        "order": 20
                                    }
                                ],
                                "depth": 1,
                                "id": 19,
                                "order": 19
                            },
                            {
                                "children": [
                                    {
                                        "children": [],
                                        "depth": 2,
                                        "id": 22,
                                        "order": 22
                                    }
                                ],
                                "depth": 1,
                                "id": 21,
                                "order": 21
                            },
                            {
                                "children": [
                                    {
                                        "children": [],
                                        "depth": 2,
                                        "id": 24,
                                        "order": 24
                                    }
                                ],
                                "depth": 1,
                                "id": 23,
                                "order": 23
                            },
                            {
                                "children": [
                                    {
                                        "children": [],
                                        "depth": 2,
                                        "id": 26,
                                        "order": 26
                                    }
                                ],
                                "depth": 1,
                                "id": 25,
                                "order": 25
                            },
                            {
                                "children": [
                                    {
                                        "children": [],
                                        "depth": 2,
                                        "id": 28,
                                        "order": 28
                                    }
                                ],
                                "depth": 1,
                                "id": 27,
                                "order": 27
                            },
                            {
                                "children": [
                                    {
                                        "children": [],
                                        "depth": 2,
                                        "id": 30,
                                        "order": 30
                                    }
                                ],
                                "depth": 1,
                                "id": 29,
                                "order": 29
                            },
                            {
                                "children": [
                                    {
                                        "children": [],
                                        "depth": 2,
                                        "id": 32,
                                        "order": 32
                                    }
                                ],
                                "depth": 1,
                                "id": 31,
                                "order": 31
                            },
                            {
                                "children": [
                                    {
                                        "children": [],
                                        "depth": 2,
                                        "id": 34,
                                        "order": 34
                                    }
                                ],
                                "depth": 1,
                                "id": 33,
                                "order": 33
                            },
                            {
                                "children": [
                                    {
                                        "children": [],
                                        "depth": 2,
                                        "id": 36,
                                        "order": 36
                                    }
                                ],
                                "depth": 1,
                                "id": 35,
                                "order": 35
                            },
                            {
                                "children": [
                                    {
                                        "children": [],
                                        "depth": 2,
                                        "id": 38,
                                        "order": 38
                                    }
                                ],
                                "depth": 1,
                                "id": 37,
                                "order": 37
                            },
                            {
                                "children": [
                                    {
                                        "children": [],
                                        "depth": 2,
                                        "id": 40,
                                        "order": 40
                                    }
                                ],
                                "depth": 1,
                                "id": 39,
                                "order": 39
                            }
                        ],
                        "depth": 0,
                        "id": 0,
                        "order": 0
                    }
                ],
                "depth": -1,
                "id": -1,
                "order": -1
            }
        ],
        "tidyTraceNodeCount": 41
    },
    "state_change": {
        "stateChanges": [
            {
                "address": "0x77fe30b2cf39245267c0a5084b66a560f1cf9e1f",
                "erc": "ERC-20",
                "slots": [
                    {
                        "current": "0x0000000000000000000000000000000000000000000001e1d1c72d5b97e00000",
                        "key": "0x68ebd56eb7c2176690e6db5ca7223d569c006b532002c49414939982d7a3e81c",
                        "prev": "0x0000000000000000000000000000000000000000000000000000000000000000"
                    },
                    {
                        "current": "0x0000000000000000000000000000000000000000000001e1d1c72d5b97e00000",
                        "key": "0x7d91b347fbed9faf9d8b85bb6d7ac5160c7d6ef5efe73d5f26ea285adc76bac2",
                        "prev": "0x0000000000000000000000000000000000000000000000000000000000000000"
                    },
                    {
                        "current": "0x0000000000000000000000000000000000000000000001e1d1c72d5b97e00000",
                        "key": "0x4238444de5e6c12b36ac354780c13f9c0dfd1ac8169092e9aea74a7cf82e9608",
                        "prev": "0x0000000000000000000000000000000000000000000000000000000000000000"
                    },
                    {
                        "current": "0x0000000000000000000000000000000000000000000001e1d1c72d5b97e00000",
                        "key": "0x00f255d32521c95be4f27166fa61180556be9a87007ce1631569fe1485ea42a5",
                        "prev": "0x0000000000000000000000000000000000000000000000000000000000000000"
                    },
                    {
                        "current": "0x0000000000000000000000000000000000000000000001e1d1c72d5b97e00000",
                        "key": "0x2c949dd2b01b4b6dc6f61e5113cf22beb54145bc76f921efec00de6d6b4a0d45",
                        "prev": "0x0000000000000000000000000000000000000000000000000000000000000000"
                    },
                    {
                        "current": "0x0000000000000000000000000000000000000000000001e1d1c72d5b97e00000",
                        "key": "0x7e5714907ab284fdecc2e0c4b4fe7e7402c13ebea8eb6c055df11c58428efa28",
                        "prev": "0x0000000000000000000000000000000000000000000000000000000000000000"
                    },
                    {
                        "current": "0x0000000000000000000000000000000000000000000001e1d1c72d5b97e00000",
                        "key": "0x2476a55cbe7a53a9e92d5fb9c9ef52d4a4d7003ec206346ee4bd118838c07905",
                        "prev": "0x0000000000000000000000000000000000000000000000000000000000000000"
                    },
                    {
                        "current": "0x0000000000000000000000000000000000000000022095a4e19ed525dd400000",
                        "key": "0x8e43afbaf513dc10f6681bef9ed29f785b1a626c930cb99816bac9e243b03cea",
                        "prev": "0x00000000000000000000000000000000000000000220bb49452e604dbac00000"
                    },
                    {
                        "current": "0x0000000000000000000000000000000000000000000001e1d1c72d5b97e00000",
                        "key": "0x26a4e2f4091da421374eb482aaf8438bacd022b3105d464ad3560bf809121f55",
                        "prev": "0x0000000000000000000000000000000000000000000000000000000000000000"
                    },
                    {
                        "current": "0x0000000000000000000000000000000000000000000001e1d1c72d5b97e00000",
                        "key": "0x9cdb9a32992907b712031fae97e7f4b72dcdc749c7b1b8556444c8b8dc8f0581",
                        "prev": "0x0000000000000000000000000000000000000000000000000000000000000000"
                    },
                    {
                        "current": "0x0000000000000000000000000000000000000000000001e1d1c72d5b97e00000",
                        "key": "0x90c60d9ce981c2d7ae3a149b8b7be0cff4ea554a301ae91b2ccddc98fb49ca7e",
                        "prev": "0x0000000000000000000000000000000000000000000000000000000000000000"
                    },
                    {
                        "current": "0x0000000000000000000000000000000000000000000001e1d1c72d5b97e00000",
                        "key": "0x4e31e389645dd718b8f9636cb6aced9bb59000b4e9f92ac50b630fa05321f585",
                        "prev": "0x0000000000000000000000000000000000000000000000000000000000000000"
                    },
                    {
                        "current": "0x0000000000000000000000000000000000000000000001e1d1c72d5b97e00000",
                        "key": "0xa417b58e6e3e94311d1b33ce1319e701587137733475065437d9f9b77c9c943e",
                        "prev": "0x0000000000000000000000000000000000000000000000000000000000000000"
                    },
                    {
                        "current": "0x0000000000000000000000000000000000000000000001e1d1c72d5b97e00000",
                        "key": "0x3b1d9b4a355546be424494dd2056406716c9866f74de9725a8bb47b96438b829",
                        "prev": "0x0000000000000000000000000000000000000000000000000000000000000000"
                    },
                    {
                        "current": "0x0000000000000000000000000000000000000000000001e1d1c72d5b97e00000",
                        "key": "0xa51306c0a1c39e8e052d0fa41cfc9a11964fee764475b91bd968eab79b777637",
                        "prev": "0x0000000000000000000000000000000000000000000000000000000000000000"
                    },
                    {
                        "current": "0x0000000000000000000000000000000000000000000001e1d1c72d5b97e00000",
                        "key": "0xa421936005d76a588a6a2e40059623aa954e12497ec02f3ca9f87b609ecdfc4c",
                        "prev": "0x0000000000000000000000000000000000000000000000000000000000000000"
                    },
                    {
                        "current": "0x0000000000000000000000000000000000000000000001e1d1c72d5b97e00000",
                        "key": "0xfcefd171b79c1489b9e50bbea6a0be48bc90e994960edef19dd8e9f2aaa780b5",
                        "prev": "0x0000000000000000000000000000000000000000000000000000000000000000"
                    },
                    {
                        "current": "0x0000000000000000000000000000000000000000000001e1d1c72d5b97e00000",
                        "key": "0xc2f4d7c508f36a1ce273577dbd14dd3d11e991bf02120fd1a94b4882bbda6f78",
                        "prev": "0x0000000000000000000000000000000000000000000000000000000000000000"
                    },
                    {
                        "current": "0x0000000000000000000000000000000000000000000001e1d1c72d5b97e00000",
                        "key": "0x7d61f251ed6f445b59e15211f72bc06ee9e3eca67212286e257c8a03d5364d9f",
                        "prev": "0x0000000000000000000000000000000000000000000000000000000000000000"
                    },
                    {
                        "current": "0x0000000000000000000000000000000000000000000001e1d1c72d5b97e00000",
                        "key": "0x8e6f6f7ba79b74ca6408ce339356a1885870f87d1dc7d0423598e1c5009df760",
                        "prev": "0x0000000000000000000000000000000000000000000000000000000000000000"
                    },
                    {
                        "current": "0x0000000000000000000000000000000000000000000001e1d1c72d5b97e00000",
                        "key": "0x0340dbd33f39b3dcb9ef3d6c4585e3ea775806a86938d70647a3bb5143501ea9",
                        "prev": "0x0000000000000000000000000000000000000000000000000000000000000000"
                    }
                ],
                "storageVariables": [
                    {
                        "name": "balanceOf",
                        "type": "mapping(address => uint256)",
                        "value": {
                            "pairs": [
                                {
                                    "key": "0x0aae6c1228f13274f10aa3cb4b2670e0ccad49db",
                                    "value": {
                                        "current": "8888000000000000000000",
                                        "prev": "0",
                                        "typeTag": 1
                                    }
                                },
                                {
                                    "key": "0x1329db768a65a99b738893c20847055b3e079907",
                                    "value": {
                                        "current": "8888000000000000000000",
                                        "prev": "0",
                                        "typeTag": 1
                                    }
                                },
                                {
                                    "key": "0x2ba124570d51173e81c10de18c9b471fab6cd27d",
                                    "value": {
                                        "current": "8888000000000000000000",
                                        "prev": "0",
                                        "typeTag": 1
                                    }
                                },
                                {
                                    "key": "0x3138b6f5a470a2d678559ab5eef42ed340e37427",
                                    "value": {
                                        "current": "8888000000000000000000",
                                        "prev": "0",
                                        "typeTag": 1
                                    }
                                },
                                {
                                    "key": "0x3425e4128cbe94e019c2fbe24adb1972fee07c0a",
                                    "value": {
                                        "current": "8888000000000000000000",
                                        "prev": "0",
                                        "typeTag": 1
                                    }
                                },
                                {
                                    "key": "0x3ed248bac140ee4dc559887fc2e151347819867b",
                                    "value": {
                                        "current": "8888000000000000000000",
                                        "prev": "0",
                                        "typeTag": 1
                                    }
                                },
                                {
                                    "key": "0x3ff189b4ae53ce5e03704c605d80c8ae1094b92c",
                                    "value": {
                                        "current": "8888000000000000000000",
                                        "prev": "0",
                                        "typeTag": 1
                                    }
                                },
                                {
                                    "key": "0x4dc44d9648f93147fceca12b07bbe2134fb34071",
                                    "value": {
                                        "current": "8888000000000000000000",
                                        "prev": "0",
                                        "typeTag": 1
                                    }
                                },
                                {
                                    "key": "0x58d8c3d70ce4fa4b9fb10a665c8712238746f2ff",
                                    "value": {
                                        "current": "8888000000000000000000",
                                        "prev": "0",
                                        "typeTag": 1
                                    }
                                },
                                {
                                    "key": "0x75034b5c8629084a37c1aebb957a215bca52ca41",
                                    "value": {
                                        "current": "8888000000000000000000",
                                        "prev": "0",
                                        "typeTag": 1
                                    }
                                },
                                {
                                    "key": "0x794bb5befe28e71efcd3653d5ea31b8bd3145717",
                                    "value": {
                                        "current": "8888000000000000000000",
                                        "prev": "0",
                                        "typeTag": 1
                                    }
                                },
                                {
                                    "key": "0x85994b78cc85693c4ef2cfbe9258c22ce4e09e46",
                                    "value": {
                                        "current": "8888000000000000000000",
                                        "prev": "0",
                                        "typeTag": 1
                                    }
                                },
                                {
                                    "key": "0x98173557c308cc87bf017b5323598d9147e07c6c",
                                    "value": {
                                        "current": "8888000000000000000000",
                                        "prev": "0",
                                        "typeTag": 1
                                    }
                                },
                                {
                                    "key": "0xaaaaa798ebb90066788951e0fc03bc71e6bc2b51",
                                    "value": {
                                        "current": "658362320000000000000000000",
                                        "prev": "658540080000000000000000000",
                                        "typeTag": 1
                                    }
                                },
                                {
                                    "key": "0xb39cca2bfb5f19b23fc4359d5bbbc4d10d13333e",
                                    "value": {
                                        "current": "8888000000000000000000",
                                        "prev": "0",
                                        "typeTag": 1
                                    }
                                },
                                {
                                    "key": "0xc70db7ea7b7f63abdfdf8792d72f8fd6845d3e45",
                                    "value": {
                                        "current": "8888000000000000000000",
                                        "prev": "0",
                                        "typeTag": 1
                                    }
                                },
                                {
                                    "key": "0xc86376213d97a376bd317a19861cb16d16cadcb6",
                                    "value": {
                                        "current": "8888000000000000000000",
                                        "prev": "0",
                                        "typeTag": 1
                                    }
                                },
                                {
                                    "key": "0xc8e77983dd6fb0d3e11ba46c378392faede29509",
                                    "value": {
                                        "current": "8888000000000000000000",
                                        "prev": "0",
                                        "typeTag": 1
                                    }
                                },
                                {
                                    "key": "0xc95be28595eb64485dac63ad14f15e41c94ee468",
                                    "value": {
                                        "current": "8888000000000000000000",
                                        "prev": "0",
                                        "typeTag": 1
                                    }
                                },
                                {
                                    "key": "0xd8d4951540200dc8e38c447f67c40771a5297b43",
                                    "value": {
                                        "current": "8888000000000000000000",
                                        "prev": "0",
                                        "typeTag": 1
                                    }
                                },
                                {
                                    "key": "0xf1f717ef007fef9e2ab1e93cf1a45638bfb8e389",
                                    "value": {
                                        "current": "8888000000000000000000",
                                        "prev": "0",
                                        "typeTag": 1
                                    }
                                }
                            ],
                            "typeTag": 4
                        }
                    }
                ]
            }
        ]
    }
}