{
    "balance_change": {
        "balanceChanges": []
    },
    "profile": {
        "basic_info": {
            "baseFee": "",
            "blockNumber": 10885660,
            "callData": "0xa694fc3a000000000000000000000000000000000000000000000016bc2c456ffa70b47e",
            "debugEnable": true,
            "errorInfo": "execution reverted",
            "eventCount": 0,
            "feeRecipient": "0xd224ca0c819e8e97ba0136b3b95ceff503b79f53",
            "formatValue": "0.01",
            "gasLimit": 300000,
            "gasPrice": "180",
            "gasUsed": 295844,
            "intTxnCount": 2,
            "internalRevert": true,
            "internalRevertMessage": "",
            "isContractCreation": false,
            "isFlashloan": false,
            "maxFee": "",
            "nonce": 26,
            "overwritedBlockNumber": -1,
            "priorityFee": "",
            "receiver": "0x9240c2d6e42db74a5a0553b83d21298304eecb9a",
            "revertMessage": "",
            "sender": "0x100447360303a97c980e758b45ec96377ceb1f24",
            "simulationEnable": true,
            "sourceTxnHash": "0xac44618149cb76afa408a9cf3ee87ef708bdbb790f937733ae56ceaed67bd887",
            "status": false,
            "timestamp": "2020-09-18T10:40:17Z",
            "transactionFee": "0.05325192",
            "txnHash": "0xac44618149cb76afa408a9cf3ee87ef708bdbb790f937733ae56ceaed67bd887",
            "txnIndex": 101,
            "type": 0,
            "value": "10000000000000000"
        },
        "fund_flow": [],
        "token_infos": [
            {
                "address": "0xc02aaa39b223fe8d0a0e5c4f27ead9083c756cc2",
                "decimals": 18
            },
            {
                "address": "0xeeeeeeeeeeeeeeeeeeeeeeeeeeeeeeeeeeeeeeee",
                "decimals": 18
            }
        ]
    },
    "address_label": {
        "labels": [
            {
                "address": "0x9240c2d6e42db74a5a0553b83d21298304eecb9a",
                "label": "xSTAKEfinance"
            },
            {
                "address": "0x0000000000000000000000000000000000000001",
                "label": "Precompiled"
            },
            {
                "address": "0x0000000000000000000000000000000000000002",
                "label": "Precompiled"
            },
            {
                "address": "0x0000000000000000000000000000000000000003",
                "label": "Precompiled"
            },
            {
                "address": "0x0000000000000000000000000000000000000004",
                "label": "Precompiled"
            },
            {
                "address": "0xeeeeeeeeeeeeeeeeeeeeeeeeeeeeeeeeeeeeeeee",
                "label": "Ether"
            },
            {
                "address": "0xb6aa337c9005fbf3a10edde47ddde3541adb79cb",
                "label": "xSTAKE.Finance ($STKF)"
            }
        ]
    },
    "trace": {
        "accountLabels": null,
        "dataMap": {
            "-1": {
                "invocation": {
                    "address": "0x100447360303a97c980e758b45ec96377ceb1f24",
                    "callData": "",
                    "decodedMethod": null,
                    "errorInfo": "",
                    "fromAddress": "",
                    "gasUsed": 0,
                    "id": -1,
                    "methodDecoded": false,
                    "operation": "",
                    "output": "",
                    "revert": false,
                    "revertMessage": "",
                    "selector": "",
                    "status": false,
                    "value": ""
                },
                "nodeType": 0
            },
            "0": {
                "invocation": {
                    "address": "0x9240c2d6e42db74a5a0553b83d21298304eecb9a",
                    "callData": "0x000000000000000000000000000000000000000000000016bc2c456ffa70b47e",
                    "decodedMethod": {
                        "callParams": [
                            {
                                "name": "amountToStake",
                                "type": "uint256",
                                "value": "419,387,658,546,961,233,022"
                            }
                        ],
                        "constructorArguments": "",
                        "name": "stake",
                        "returnParams": [],
                        "signature": "stake(uint256)"
                    },
                    "errorInfo": "execution reverted",
                    "fromAddress": "0x100447360303a97c980e758b45ec96377ceb1f24",
                    "gasUsed": 295844,
                    "id": 0,
                    "methodDecoded": true,
                    "operation": "CALL",
                    "output": "",
                    "revert": true,
                    "revertMessage": "",
                    "selector": "0xa694fc3a",
                    "status": false,
                    "value": "0.01"
                },
                "nodeType": 0
            },
            "1": {
                "invocation": {
                    "address": "0x4c6b360525411e31bfd91eceb4bb59a8ff6e0352",
                    "callData": "0x",
                    "decodedMethod": null,
                    "errorInfo": "",
                    "fromAddress": "0x9240c2d6e42db74a5a0553b83d21298304eecb9a",
                    "gasUsed": 0,
                    "id": 1,
                    "methodDecoded": false,
                    "operation": "CALL",
                    "output": "",
                    "revert": true,
                    "revertMessage": "",
                    "selector": "fallback",
                    "status": true,
                    "value": "0.01"
                },
                "nodeType": 0
            },
            "2": {
                "invocation": {
                    "address": "0xb6aa337c9005fbf3a10edde47ddde3541adb79cb",
                    "callData": "0x000000000000000000000000100447360303a97c980e758b45ec96377ceb1f240000000000000000000000009240c2d6e42db74a5a0553b83d21298304eecb9a000000000000000000000000000000000000000000000016bc2c456ffa70b47e",
                    "decodedMethod": {
                        "callParams": [
                            {
                                "name": "_from",
                                "type": "address",
                                "value": "0x100447360303a97c980e758b45ec96377ceb1f24"
                            },
                            {
                                "name": "_to",
                                "type": "address",
                                "value": "0x9240c2d6e42db74a5a0553b83d21298304eecb9a"
                            },
                            {
                                "decimalAvailable": true,
                                "name": "_value",
                                "type": "uint256",
                                "value": "419,387,658,546,961,233,022"
                            }
                        ],
                        "constructorArguments": "",
                        "name": "transferFrom",
                        "returnParams": [],
                        "signature": "transferFrom(address,address,uint256)"
                    },
                    "errorInfo": "invalid opcode: INVALID",
                    "fromAddress": "0x9240c2d6e42db74a5a0553b83d21298304eecb9a",
                    "gasUsed": 264267,
                    "id": 2,
                    "methodDecoded": true,
                    "operation": "CALL",
                    "output": "",
                    "revert": true,
                    "revertMessage": "",
                    "selector": "0x23b872dd",
                    "status": false,
                    "value": "0"
                },
                "nodeType": 0
            }
        },
        "gasFlame": [
            {
                "children": [
                    {
                        "children": [
                            {
                                "children": [],
                                "depth": 0,
                                "name": "Initial Gas",
                                "value": 21300
                            },
                            {
                                "children": [
                                    {
                                        "children": [],
                                        "depth": 1,
                                        "name": "fallback",
                                        "value": 0
                                    },
                                    {
                                        "children": [],
                                        "depth": 1,
                                        "name": "transferFrom",
                                        "value": 264267
                                    }
                                ],
                                "depth": 0,
                                "name": "Executed Gas",
                                "value": 274544
                            }
                        ],
                        "depth": -1,
                        "name": "Actual Gas Used",
                        "value": 295844
                    },
                    {
                        "children": [],
                        "depth": -1,
                        "name": "Refunded Gas",
                        "value": 0
                    }
                ],
                "depth": -2,
                "name": "Total Gas",
                "value": 295844
            }
        ],
        "isConfirmed": true,
        "mainTrace": [
            {
                "children": [
                    {
                        "children": [
                            {
                                "children": [],
                                "depth": 1,
                                "id": 1,
                                "order": 1
                            },
                            {
                                "children": [],
                                "depth": 1,
                                "id": 2,
                                "order": 2
                            }
                        ],
                        "depth": 0,
                        "id": 0,
                        "order": 0
                    }
                ],
                "depth": -1,
                "id": -1,
                "order": -1
            }
        ],
        "mainTraceNodeCount": 3,
        "parentIdMap": {
            "0": -1,
            "1": 0,
            "2": 0
        },
        "tidyTrace": [
            {
                "children": [
                    {
                        "children": [
                            {
                                "children": [],
                                "depth": 1,
                                "id": 1,
                                "order": 1
                            },
                            {
                                "children": [],
                                "depth": 1,
                                "id": 2,
                                "order": 2
                            }
                        ],
                        "depth": 0,
                        "id": 0,
                        "order": 0
                    }
                ],
                "depth": -1,
                "id": -1,
                "order": -1
            }
        ],
        "tidyTraceNodeCount": 3
    },
    "state_change": {
        "stateChanges": []
    }
}