{
    "balance_change": {
        "balanceChanges": []
    },
    "profile": {
        "basic_info": {
            "baseFee": "",
            "blockNumber": 5690822,
            "callData": "0xef3435880000000000000000000000000000000000000000000001a405f9592e90e43b1f000000000000000000000000000000000000000000000000044d575b885effff000000000000000000000000000000000000000000000000000000000002e63000000000000000000000000000000000000000000000000000000000000000020000000000000000000000000000000000000000000001a405f9592e90e43b1f000000000000000000000000000000000000000000000000000000000000016500000000000000000000000000000000000000000000000000038d7ea4c68000000000000000000000000000000000000000000000000000002839d3bd4ba94a000000000000000000000000491c9a23db85623eed455a8efdd6aba9b911c5df000000000000000000000000000000000000000000000000000000000000000000000000000000000000000014852bf59b22e885d538fa5775acaa212120414f00000000000000000000000053c7c383ea4fc80bca1563e5eb2c70caece02d38000000000000000000000000000000000000000000000000000000000000001c000000000000000000000000000000000000000000000000000000000000001c3568cb4658d1f8100e0aa577f45c3da5fa31feae9142127c413f6ff3855c958620d1df5da9833c4a01fdfcce12f1f8bfb16019c990b6046be54dfec4a49650855ec53647aada40d67afdd0ff5336a766030e598f416c3d44ec7a0b1d1bf4525113dd33ba6478c08d5c9587e9a0e0a44984ce54af9912538d89fd81e4ab589f38",
            "debugEnable": true,
            "errorInfo": "",
            "eventCount": 0,
            "feeRecipient": "0x52e44f279f4203dcf680395379e5f9990a69f13c",
            "formatValue": "0",
            "gasLimit": 210000,
            "gasPrice": "73",
            "gasUsed": 158028,
            "intTxnCount": 2,
            "internalRevert": false,
            "internalRevertMessage": "",
            "isContractCreation": false,
            "isFlashloan": false,
            "maxFee": "",
            "nonce": 1835196,
            "overwritedBlockNumber": -1,
            "priorityFee": "",
            "receiver": "0x2a0c0dbecc7e4d658f48e01e3fa353f44050c208",
            "revertMessage": "",
            "sender": "0xceceaa8edc0830c7cec497e33bb3a3c28dd55a32",
            "simulationEnable": true,
            "sourceTxnHash": "0xac3d90d74a0559c49764b3b65f00cca08fc6ba775b07752baa8ddc2d69c16c1b",
            "status": true,
            "timestamp": "2018-05-28T10:17:02Z",
            "transactionFee": "0.011536044",
            "txnHash": "0xac3d90d74a0559c49764b3b65f00cca08fc6ba775b07752baa8ddc2d69c16c1b",
            "txnIndex": 20,
            "type": 0,
            "value": "0"
        },
        "fund_flow": [],
        "token_infos": [
            {
                "address": "0xc02aaa39b223fe8d0a0e5c4f27ead9083c756cc2",
                "decimals": 18
            },
            {
                "address": "0xeeeeeeeeeeeeeeeeeeeeeeeeeeeeeeeeeeeeeeee",
                "decimals": 18
            }
        ]
    },
    "address_label": {
        "labels": [
            {
                "address": "0x0000000000000000000000000000000000000000",
                "label": "Null Address"
            },
            {
                "address": "0x2a0c0dbecc7e4d658f48e01e3fa353f44050c208",
                "label": "IDEX"
            },
            {
                "address": "0x0000000000000000000000000000000000000001",
                "label": "Precompiled"
            },
            {
                "address": "0x0000000000000000000000000000000000000002",
                "label": "Precompiled"
            },
            {
                "address": "0x0000000000000000000000000000000000000003",
                "label": "Precompiled"
            },
            {
                "address": "0x0000000000000000000000000000000000000004",
                "label": "Precompiled"
            },
            {
                "address": "0xeeeeeeeeeeeeeeeeeeeeeeeeeeeeeeeeeeeeeeee",
                "label": "Ether"
            },
            {
                "address": "0x491c9a23db85623eed455a8efdd6aba9b911c5df",
                "label": "HeroNode: HER Token"
            }
        ]
    },
    "trace": {
        "accountLabels": null,
        "dataMap": {
            "-1": {
                "invocation": {
                    "address": "0xceceaa8edc0830c7cec497e33bb3a3c28dd55a32",
                    "callData": "",
                    "decodedMethod": null,
                    "errorInfo": "",
                    "fromAddress": "",
                    "gasUsed": 0,
                    "id": -1,
                    "methodDecoded": false,
                    "operation": "",
                    "output": "",
                    "revert": false,
                    "revertMessage": "",
                    "selector": "",
                    "status": false,
                    "value": ""
                },
                "nodeType": 0
            },
            "0": {
                "invocation": {
                    "address": "0x2a0c0dbecc7e4d658f48e01e3fa353f44050c208",
                    "callData": "0x0000000000000000000000000000000000000000000001a405f9592e90e43b1f000000000000000000000000000000000000000000000000044d575b885effff000000000000000000000000000000000000000000000000000000000002e63000000000000000000000000000000000000000000000000000000000000000020000000000000000000000000000000000000000000001a405f9592e90e43b1f000000000000000000000000000000000000000000000000000000000000016500000000000000000000000000000000000000000000000000038d7ea4c68000000000000000000000000000000000000000000000000000002839d3bd4ba94a000000000000000000000000491c9a23db85623eed455a8efdd6aba9b911c5df000000000000000000000000000000000000000000000000000000000000000000000000000000000000000014852bf59b22e885d538fa5775acaa212120414f00000000000000000000000053c7c383ea4fc80bca1563e5eb2c70caece02d38000000000000000000000000000000000000000000000000000000000000001c000000000000000000000000000000000000000000000000000000000000001c3568cb4658d1f8100e0aa577f45c3da5fa31feae9142127c413f6ff3855c958620d1df5da9833c4a01fdfcce12f1f8bfb16019c990b6046be54dfec4a49650855ec53647aada40d67afdd0ff5336a766030e598f416c3d44ec7a0b1d1bf4525113dd33ba6478c08d5c9587e9a0e0a44984ce54af9912538d89fd81e4ab589f38",
                    "decodedMethod": {
                        "callParams": [
                            {
                                "name": "tradeValues",
                                "type": "uint256[8]",
                                "value": [
                                    "7,748,062,984,253,936,515,871",
                                    "309,999,999,999,999,999",
                                    "190,000",
                                    "2",
                                    "7,748,062,984,253,936,515,871",
                                    "357",
                                    "1,000,000,000,000,000",
                                    "11,322,580,645,161,290"
                                ]
                            },
                            {
                                "name": "tradeAddresses",
                                "type": "address[4]",
                                "value": [
                                    "0x491c9a23db85623eed455a8efdd6aba9b911c5df",
                                    "0x0000000000000000000000000000000000000000",
                                    "0x14852bf59b22e885d538fa5775acaa212120414f",
                                    "0x53c7c383ea4fc80bca1563e5eb2c70caece02d38"
                                ]
                            },
                            {
                                "name": "v",
                                "type": "uint8[2]",
                                "value": [
                                    "28",
                                    "28"
                                ]
                            },
                            {
                                "name": "rs",
                                "type": "bytes32[4]",
                                "value": [
                                    "0x3568cb4658d1f8100e0aa577f45c3da5fa31feae9142127c413f6ff3855c9586",
                                    "0x20d1df5da9833c4a01fdfcce12f1f8bfb16019c990b6046be54dfec4a4965085",
                                    "0x5ec53647aada40d67afdd0ff5336a766030e598f416c3d44ec7a0b1d1bf45251",
                                    "0x13dd33ba6478c08d5c9587e9a0e0a44984ce54af9912538d89fd81e4ab589f38"
                                ]
                            }
                        ],
                        "constructorArguments": "",
                        "name": "trade",
                        "returnParams": [
                            {
                                "name": "success",
                                "type": "bool",
                                "value": false
                            }
                        ],
                        "signature": "trade(uint256[8],address[4],uint8[2],bytes32[4])"
                    },
                    "errorInfo": "",
                    "fromAddress": "0xceceaa8edc0830c7cec497e33bb3a3c28dd55a32",
                    "gasUsed": 158028,
                    "id": 0,
                    "methodDecoded": true,
                    "operation": "CALL",
                    "output": "0x0000000000000000000000000000000000000000000000000000000000000000",
                    "revert": false,
                    "revertMessage": "",
                    "selector": "0xef343588",
                    "status": true,
                    "value": "0"
                },
                "nodeType": 0
            },
            "1": {
                "invocation": {
                    "address": "0x0000000000000000000000000000000000000001",
                    "callData": "0x75f90c28b863bb43aed1f76875b6631696c56ed977c1810b74f23f9f000000000000000000000000000000000000000000000000000000000000001c3568cb4658d1f8100e0aa577f45c3da5fa31feae9142127c413f6ff3855c958620d1df5da9833c4a01fdfcce12f1f8bfb16019c990b6046be54dfec4a4965085",
                    "decodedMethod": {
                        "callParams": [
                            {
                                "name": "hash",
                                "type": "bytes32",
                                "value": "0x93a734fa75f90c28b863bb43aed1f76875b6631696c56ed977c1810b74f23f9f"
                            },
                            {
                                "name": "v",
                                "type": "uint256",
                                "value": "28"
                            },
                            {
                                "name": "r",
                                "type": "bytes32",
                                "value": "0x3568cb4658d1f8100e0aa577f45c3da5fa31feae9142127c413f6ff3855c9586"
                            },
                            {
                                "name": "s",
                                "type": "bytes32",
                                "value": "0x20d1df5da9833c4a01fdfcce12f1f8bfb16019c990b6046be54dfec4a4965085"
                            }
                        ],
                        "constructorArguments": "",
                        "name": "ecrecover",
                        "returnParams": [
                            {
                                "name": "",
                                "type": "address",
                                "value": "0x14852bf59b22e885d538fa5775acaa212120414f"
                            }
                        ],
                        "signature": "ecrecover(bytes32,uint256,bytes32,bytes32)"
                    },
                    "errorInfo": "",
                    "fromAddress": "0x2a0c0dbecc7e4d658f48e01e3fa353f44050c208",
                    "gasUsed": 3000,
                    "id": 1,
                    "methodDecoded": true,
                    "operation": "CALL",
                    "output": "0x00000000000000000000000014852bf59b22e885d538fa5775acaa212120414f",
                    "revert": false,
                    "revertMessage": "",
                    "selector": "0x93a734fa",
                    "status": true,
                    "value": "0"
                },
                "nodeType": 0
            },
            "2": {
                "invocation": {
                    "address": "0x0000000000000000000000000000000000000001",
                    "callData": "0xfd40452d486ccc9d53581cfcd99fdd0533a0f258c860603aa0796594000000000000000000000000000000000000000000000000000000000000001c5ec53647aada40d67afdd0ff5336a766030e598f416c3d44ec7a0b1d1bf4525113dd33ba6478c08d5c9587e9a0e0a44984ce54af9912538d89fd81e4ab589f38",
                    "decodedMethod": {
                        "callParams": [
                            {
                                "name": "hash",
                                "type": "bytes32",
                                "value": "0x2ad76e41fd40452d486ccc9d53581cfcd99fdd0533a0f258c860603aa0796594"
                            },
                            {
                                "name": "v",
                                "type": "uint256",
                                "value": "28"
                            },
                            {
                                "name": "r",
                                "type": "bytes32",
                                "value": "0x5ec53647aada40d67afdd0ff5336a766030e598f416c3d44ec7a0b1d1bf45251"
                            },
                            {
                                "name": "s",
                                "type": "bytes32",
                                "value": "0x13dd33ba6478c08d5c9587e9a0e0a44984ce54af9912538d89fd81e4ab589f38"
                            }
                        ],
                        "constructorArguments": "",
                        "name": "ecrecover",
                        "returnParams": [
                            {
                                "name": "",
                                "type": "address",
                                "value": "0x53c7c383ea4fc80bca1563e5eb2c70caece02d38"
                            }
                        ],
                        "signature": "ecrecover(bytes32,uint256,bytes32,bytes32)"
                    },
                    "errorInfo": "",
                    "fromAddress": "0x2a0c0dbecc7e4d658f48e01e3fa353f44050c208",
                    "gasUsed": 3000,
                    "id": 2,
                    "methodDecoded": true,
                    "operation": "CALL",
                    "output": "0x00000000000000000000000053c7c383ea4fc80bca1563e5eb2c70caece02d38",
                    "revert": false,
                    "revertMessage": "",
                    "selector": "0x2ad76e41",
                    "status": true,
                    "value": "0"
                },
                "nodeType": 0
            }
        },
        "gasFlame": [
            {
                "children": [
                    {
                        "children": [
                            {
                                "children": [],
                                "depth": 0,
                                "name": "Initial Gas",
                                "value": 38744
                            },
                            {
                                "children": [
                                    {
                                        "children": [],
                                        "depth": 1,
                                        "name": "ecrecover",
                                        "value": 3000
                                    },
                                    {
                                        "children": [],
                                        "depth": 1,
                                        "name": "ecrecover",
                                        "value": 3000
                                    }
                                ],
                                "depth": 0,
                                "name": "Executed Gas",
                                "value": 119284
                            }
                        ],
                        "depth": -1,
                        "name": "Actual Gas Used",
                        "value": 158028
                    },
                    {
                        "children": [],
                        "depth": -1,
                        "name": "Refunded Gas",
                        "value": 0
                    }
                ],
                "depth": -2,
                "name": "Total Gas",
                "value": 158028
            }
        ],
        "isConfirmed": true,
        "mainTrace": [
            {
                "children": [
                    {
                        "children": [
                            {
                                "children": [],
                                "depth": 1,
                                "id": 1,
                                "order": 1
                            },
                            {
                                "children": [],
                                "depth": 1,
                                "id": 2,
                                "order": 2
                            }
                        ],
                        "depth": 0,
                        "id": 0,
                        "order": 0
                    }
                ],
                "depth": -1,
                "id": -1,
                "order": -1
            }
        ],
        "mainTraceNodeCount": 3,
        "parentIdMap": {
            "0": -1,
            "1": 0,
            "2": 0
        },
        "tidyTrace": [
            {
                "children": [
                    {
                        "children": [
                            {
                                "children": [],
                                "depth": 1,
                                "id": 1,
                                "order": 1
                            },
                            {
                                "children": [],
                                "depth": 1,
                                "id": 2,
                                "order": 2
                            }
                        ],
                        "depth": 0,
                        "id": 0,
                        "order": 0
                    }
                ],
                "depth": -1,
                "id": -1,
                "order": -1
            }
        ],
        "tidyTraceNodeCount": 3
    },
    "state_change": {
        "stateChanges": [
            {
                "address": "0x2a0c0dbecc7e4d658f48e01e3fa353f44050c208",
                "erc": "",
                "slots": [
                    {
                        "current": "0x000000000000000000000000000000000000000000000049f0ae29d270709eb5",
                        "key": "0x3ccb72d91c5c66cba135a4135963ed23443b8a63817f501517468fcd5097e277",
                        "prev": "0x000000000000000000000000000000000000000000000049f0a1b17ee1473eb6"
                    },
                    {
                        "current": "0x0000000000000000000000000000000000000000000001a405f9592e90e43b1f",
                        "key": "0xbef6148c81f2523458b30033f5c748ba19f27997d025ad52ac643196ee8b7bfa",
                        "prev": "0x0000000000000000000000000000000000000000000000000000000000000000"
                    },
                    {
                        "current": "0x000000000000000000000000000000000000000000007767f847ced79af0773d",
                        "key": "0xbcf39e5688e2d44ea719c1c5f0e7f5b7315a2e3d5d735a5e5a0539b75fea50d5",
                        "prev": "0x00000000000000000000000000000000000000000000790bfe4128062bd4b25c"
                    },
                    {
                        "current": "0x0000000000000000000000000000000000000000000000006df6b60e26099ed9",
                        "key": "0x300b31cdc0db1666ad0b99f2ad02a73bcfa969f7f152eea6c54c3f0d98107a37",
                        "prev": "0x00000000000000000000000000000000000000000000000069b5d7062cd3feda"
                    },
                    {
                        "current": "0x0000000000000000000000000000000000000000000019f23665203ed588b1d5",
                        "key": "0x285f356f04325266ed56906eccfe43ee18b8781a20d240ebc5883bbf6b799017",
                        "prev": "0x0000000000000000000000000000000000000000000019f1cade7a0323b99e52"
                    },
                    {
                        "current": "0x000000000000000000000000000000000000000000000000002386f26fc10001",
                        "key": "0xfe42d4061d48c39ef4140cee8c86fcf3eb782f6073caef72b183dafe38125ca0",
                        "prev": "0x0000000000000000000000000000000000000000000000000470de4df8200000"
                    },
                    {
                        "current": "0x0000000000000000000000000000000000000000000000000000000000000001",
                        "key": "0xdc05abc25f038b4e50865de9c157cae58fb304d0fd04033aa7928431e88f8f7c",
                        "prev": "0x0000000000000000000000000000000000000000000000000000000000000000"
                    },
                    {
                        "current": "0x0000000000000000000000000000000000000000000001a39a72b2f2df15279b",
                        "key": "0x71188305e6c627fd1326db00ace275c6edfa58d739cc83c00bb577d360f0b720",
                        "prev": "0x0000000000000000000000000000000000000000000000000000000000000000"
                    },
                    {
                        "current": "0x000000000000000000000000000000000000000000000000000000000056d5c6",
                        "key": "0xe25792e6e74d0637d58d0df25c0602c87ccd71c1f3f35357d901edfb42587bcd",
                        "prev": "0x000000000000000000000000000000000000000000000000000000000056c9d3"
                    }
                ],
                "storageVariables": [
                    {
                        "name": "tokens",
                        "type": "mapping(address => mapping(address => uint256))",
                        "value": {
                            "pairs": [
                                {
                                    "key": "0x0000000000000000000000000000000000000000",
                                    "value": {
                                        "pairs": [
                                            {
                                                "key": "0x034767f3c519f361c5ecf46ebfc08981c629d381",
                                                "value": {
                                                    "current": "1363955162579653926581",
                                                    "prev": "1363951652579653926582",
                                                    "typeTag": 1
                                                }
                                            },
                                            {
                                                "key": "0x14852bf59b22e885d538fa5775acaa212120414f",
                                                "value": {
                                                    "current": "10000000000000001",
                                                    "prev": "320000000000000000",
                                                    "typeTag": 1
                                                }
                                            },
                                            {
                                                "key": "0x53c7c383ea4fc80bca1563e5eb2c70caece02d38",
                                                "value": {
                                                    "current": "7923720766288928473",
                                                    "prev": "7617230766288928474",
                                                    "typeTag": 1
                                                }
                                            }
                                        ],
                                        "typeTag": 4
                                    }
                                },
                                {
                                    "key": "0x491c9a23db85623eed455a8efdd6aba9b911c5df",
                                    "value": {
                                        "pairs": [
                                            {
                                                "key": "0x034767f3c519f361c5ecf46ebfc08981c629d381",
                                                "value": {
                                                    "current": "122527193712083780284885",
                                                    "prev": "122519445649099526348370",
                                                    "typeTag": 1
                                                }
                                            },
                                            {
                                                "key": "0x14852bf59b22e885d538fa5775acaa212120414f",
                                                "value": {
                                                    "current": "7740314921269682579355",
                                                    "prev": "0",
                                                    "typeTag": 1
                                                }
                                            },
                                            {
                                                "key": "0x53c7c383ea4fc80bca1563e5eb2c70caece02d38",
                                                "value": {
                                                    "current": "563879516596550029571901",
                                                    "prev": "571627579580803966087772",
                                                    "typeTag": 1
                                                }
                                            }
                                        ],
                                        "typeTag": 4
                                    }
                                }
                            ],
                            "typeTag": 4
                        }
                    },
                    {
                        "name": "lastActiveTransaction",
                        "type": "mapping(address => uint256)",
                        "value": {
                            "pairs": [
                                {
                                    "key": "0x14852bf59b22e885d538fa5775acaa212120414f",
                                    "value": {
                                        "current": "5690822",
                                        "prev": "5687763",
                                        "typeTag": 1
                                    }
                                }
                            ],
                            "typeTag": 4
                        }
                    },
                    {
                        "name": "orderFills",
                        "type": "mapping(bytes32 => uint256)",
                        "value": {
                            "pairs": [
                                {
                                    "key": "0xd3d23c14fc9d9f219ec4bd83e0a0515950053b303d87b19ec7961d3f8b37bda8",
                                    "value": {
                                        "current": "7748062984253936515871",
                                        "prev": "0",
                                        "typeTag": 1
                                    }
                                }
                            ],
                            "typeTag": 4
                        }
                    },
                    {
                        "name": "traded",
                        "type": "mapping(bytes32 => bool)",
                        "value": {
                            "pairs": [
                                {
                                    "key": "0xfc4ff43157f2c614acfca480c815c996d2851f79219feb930319d3bd88fb1209",
                                    "value": {
                                        "current": "true",
                                        "prev": "false",
                                        "typeTag": 1
                                    }
                                }
                            ],
                            "typeTag": 4
                        }
                    }
                ]
            }
        ]
    }
}