{
    "balance_change": {
        "balanceChanges": [
            {
                "account": "0xe8febf2fd369afbb48ffa8e34c0062f07460c67c",
                "assets": [
                    {
                        "address": "0x7c5cb1220bd293ff9cf903915732e51a71292038",
                        "amount": "15,910",
                        "iconUrl": "",
                        "isERC1155": false,
                        "isERC721": false,
                        "sign": false,
                        "value": ""
                    },
                    {
                        "address": "0x5edc1a266e8b2c5e8086d373725df0690af7e3ea",
                        "amount": "106.066666666666666666",
                        "iconUrl": "",
                        "isERC1155": false,
                        "isERC721": false,
                        "sign": true,
                        "value": ""
                    }
                ]
            },
            {
                "account": "0x7c5cb1220bd293ff9cf903915732e51a71292038",
                "assets": [
                    {
                        "address": "0x5edc1a266e8b2c5e8086d373725df0690af7e3ea",
                        "amount": "106.066666666666666666",
                        "iconUrl": "",
                        "isERC1155": false,
                        "isERC721": false,
                        "sign": false,
                        "value": ""
                    }
                ]
            },
            {
                "account": "0x589176dfd8e9ba0bd46987afa995df15a15f1cc6",
                "assets": [
                    {
                        "address": "0x7c5cb1220bd293ff9cf903915732e51a71292038",
                        "amount": "15,910",
                        "iconUrl": "",
                        "isERC1155": false,
                        "isERC721": false,
                        "sign": true,
                        "value": ""
                    }
                ]
            }
        ]
    },
    "profile": {
        "basic_info": {
            "baseFee": "",
            "blockNumber": 7784019,
            "callData": "0xa9059cbb0000000000000000000000008c1444f0da15c379d4dc7d12ee8ea617ebcafad400000000000000000000000000000000000000000000035e7b9aa13510d80000",
            "debugEnable": true,
            "errorInfo": "",
            "eventCount": 2,
            "feeRecipient": "0x52bc44d5378309ee2abf1539bf71de1b7d7be3b5",
            "formatValue": "0",
            "gasLimit": 300000,
            "gasPrice": "10",
            "gasUsed": 218939,
            "intTxnCount": 1,
            "internalRevert": false,
            "internalRevertMessage": "",
            "isContractCreation": false,
            "isFlashloan": false,
            "maxFee": "",
            "nonce": 0,
            "overwritedBlockNumber": -1,
            "priorityFee": "",
            "receiver": "0x7c5cb1220bd293ff9cf903915732e51a71292038",
            "revertMessage": "",
            "sender": "0xe8febf2fd369afbb48ffa8e34c0062f07460c67c",
            "simulationEnable": true,
            "sourceTxnHash": "0xac13ea7d8947821abf4de6cf1c678f0411acae366edc47e25b599af6f8d8c0c5",
            "status": true,
            "timestamp": "2019-05-18T11:59:05Z",
            "transactionFee": "0.00218939",
            "txnHash": "0xac13ea7d8947821abf4de6cf1c678f0411acae366edc47e25b599af6f8d8c0c5",
            "txnIndex": 57,
            "type": 0,
            "value": "0"
        },
        "fund_flow": [
            {
                "amount": "106.066666666666666666",
                "from": "0x7c5cb1220bd293ff9cf903915732e51a71292038",
                "id": 1,
                "isERC1155": false,
                "isERC721": false,
                "isReverted": false,
                "order": 1,
                "to": "0xe8febf2fd369afbb48ffa8e34c0062f07460c67c",
                "token": "0x5edc1a266e8b2c5e8086d373725df0690af7e3ea"
            },
            {
                "amount": "15,910",
                "from": "0xe8febf2fd369afbb48ffa8e34c0062f07460c67c",
                "id": 2,
                "isERC1155": false,
                "isERC721": false,
                "isReverted": false,
                "order": 2,
                "to": "0x589176dfd8e9ba0bd46987afa995df15a15f1cc6",
                "token": "0x7c5cb1220bd293ff9cf903915732e51a71292038"
            }
        ],
        "token_infos": [
            {
                "address": "0x7c5cb1220bd293ff9cf903915732e51a71292038",
                "decimals": 18
            },
            {
                "address": "0xc02aaa39b223fe8d0a0e5c4f27ead9083c756cc2",
                "decimals": 18
            },
            {
                "address": "0xeeeeeeeeeeeeeeeeeeeeeeeeeeeeeeeeeeeeeeee",
                "decimals": 18
            },
            {
                "address": "0x5edc1a266e8b2c5e8086d373725df0690af7e3ea",
                "decimals": 18
            }
        ]
    },
    "address_label": {
        "labels": [
            {
                "address": "0x7c5cb1220bd293ff9cf903915732e51a71292038",
                "label": "YottaLing (YTL)"
            },
            {
                "address": "0x0000000000000000000000000000000000000001",
                "label": "Precompiled"
            },
            {
                "address": "0x0000000000000000000000000000000000000002",
                "label": "Precompiled"
            },
            {
                "address": "0x0000000000000000000000000000000000000003",
                "label": "Precompiled"
            },
            {
                "address": "0x0000000000000000000000000000000000000004",
                "label": "Precompiled"
            },
            {
                "address": "0xeeeeeeeeeeeeeeeeeeeeeeeeeeeeeeeeeeeeeeee",
                "label": "Ether"
            },
            {
                "address": "0x5edc1a266e8b2c5e8086d373725df0690af7e3ea",
                "label": "Yotta Coin"
            }
        ]
    },
    "trace": {
        "accountLabels": null,
        "dataMap": {
            "-1": {
                "invocation": {
                    "address": "0xe8febf2fd369afbb48ffa8e34c0062f07460c67c",
                    "callData": "",
                    "decodedMethod": null,
                    "errorInfo": "",
                    "fromAddress": "",
                    "gasUsed": 0,
                    "id": -1,
                    "methodDecoded": false,
                    "operation": "",
                    "output": "",
                    "revert": false,
                    "revertMessage": "",
                    "selector": "",
                    "status": false,
                    "value": ""
                },
                "nodeType": 0
            },
            "0": {
                "invocation": {
                    "address": "0x7c5cb1220bd293ff9cf903915732e51a71292038",
                    "callData": "0x0000000000000000000000008c1444f0da15c379d4dc7d12ee8ea617ebcafad400000000000000000000000000000000000000000000035e7b9aa13510d80000",
                    "decodedMethod": {
                        "callParams": [
                            {
                                "name": "recipient",
                                "type": "address",
                                "value": "0x8c1444f0da15c379d4dc7d12ee8ea617ebcafad4"
                            },
                            {
                                "decimalAvailable": true,
                                "name": "amount",
                                "type": "uint256",
                                "value": "15,910,000,000,000,000,000,000"
                            }
                        ],
                        "constructorArguments": "",
                        "name": "transfer",
                        "returnParams": [
                            {
                                "name": "",
                                "type": "bool",
                                "value": true
                            }
                        ],
                        "signature": "transfer(address,uint256)"
                    },
                    "errorInfo": "",
                    "fromAddress": "0xe8febf2fd369afbb48ffa8e34c0062f07460c67c",
                    "gasUsed": 218939,
                    "id": 0,
                    "methodDecoded": true,
                    "operation": "CALL",
                    "output": "0x0000000000000000000000000000000000000000000000000000000000000001",
                    "revert": false,
                    "revertMessage": "",
                    "selector": "0xa9059cbb",
                    "status": true,
                    "value": "0"
                },
                "nodeType": 0
            },
            "1": {
                "invocation": {
                    "address": "0x5edc1a266e8b2c5e8086d373725df0690af7e3ea",
                    "callData": "0x000000000000000000000000e8febf2fd369afbb48ffa8e34c0062f07460c67c000000000000000000000000000000000000000000000005bff87f5e386eaaaa",
                    "decodedMethod": {
                        "callParams": [
                            {
                                "name": "_to",
                                "type": "address",
                                "value": "0xe8febf2fd369afbb48ffa8e34c0062f07460c67c"
                            },
                            {
                                "name": "_value",
                                "type": "uint256",
                                "value": "106,066,666,666,666,666,666"
                            }
                        ],
                        "constructorArguments": "",
                        "name": "transferfix",
                        "returnParams": [],
                        "signature": "transferfix(address,uint256)"
                    },
                    "errorInfo": "",
                    "fromAddress": "0x7c5cb1220bd293ff9cf903915732e51a71292038",
                    "gasUsed": 193320,
                    "id": 1,
                    "methodDecoded": true,
                    "operation": "CALL",
                    "output": "",
                    "revert": false,
                    "revertMessage": "",
                    "selector": "0xd54c8a56",
                    "status": true,
                    "value": "0"
                },
                "nodeType": 0
            },
            "2": {
                "event": {
                    "contract": "0x5edc1a266e8b2c5e8086d373725df0690af7e3ea",
                    "decodedLog": {
                        "name": "Transfer",
                        "params": [
                            {
                                "name": "from",
                                "type": "address",
                                "value": "0x7c5cb1220bd293ff9cf903915732e51a71292038"
                            },
                            {
                                "name": "to",
                                "type": "address",
                                "value": "0xe8febf2fd369afbb48ffa8e34c0062f07460c67c"
                            },
                            {
                                "decimalAvailable": true,
                                "name": "value",
                                "type": "uint256",
                                "value": "106,066,666,666,666,666,666"
                            }
                        ],
                        "signature": "Transfer(address,address,uint256)"
                    },
                    "id": 2,
                    "logData": "0x000000000000000000000000000000000000000000000005bff87f5e386eaaaa",
                    "logDecoded": true,
                    "operation": "EVENT",
                    "revert": false,
                    "status": true,
                    "topics": [
                        "0xddf252ad1be2c89b69c2b068fc378daa952ba7f163c4a11628f55a4df523b3ef",
                        "0x0000000000000000000000007c5cb1220bd293ff9cf903915732e51a71292038",
                        "0x000000000000000000000000e8febf2fd369afbb48ffa8e34c0062f07460c67c"
                    ]
                },
                "nodeType": 1
            },
            "3": {
                "event": {
                    "contract": "0x7c5cb1220bd293ff9cf903915732e51a71292038",
                    "decodedLog": {
                        "name": "Transfer",
                        "params": [
                            {
                                "name": "from",
                                "type": "address",
                                "value": "0xe8febf2fd369afbb48ffa8e34c0062f07460c67c"
                            },
                            {
                                "name": "to",
                                "type": "address",
                                "value": "0x589176dfd8e9ba0bd46987afa995df15a15f1cc6"
                            },
                            {
                                "decimalAvailable": true,
                                "name": "value",
                                "type": "uint256",
                                "value": "15,910,000,000,000,000,000,000"
                            }
                        ],
                        "signature": "Transfer(address,address,uint256)"
                    },
                    "id": 3,
                    "logData": "0x00000000000000000000000000000000000000000000035e7b9aa13510d80000",
                    "logDecoded": true,
                    "operation": "EVENT",
                    "revert": false,
                    "status": true,
                    "topics": [
                        "0xddf252ad1be2c89b69c2b068fc378daa952ba7f163c4a11628f55a4df523b3ef",
                        "0x000000000000000000000000e8febf2fd369afbb48ffa8e34c0062f07460c67c",
                        "0x000000000000000000000000589176dfd8e9ba0bd46987afa995df15a15f1cc6"
                    ]
                },
                "nodeType": 1
            }
        },
        "gasFlame": [
            {
                "children": [
                    {
                        "children": [
                            {
                                "children": [],
                                "depth": 0,
                                "name": "Initial Gas",
                                "value": 23320
                            },
                            {
                                "children": [
                                    {
                                        "children": [],
                                        "depth": 1,
                                        "name": "transferfix",
                                        "value": 193320
                                    }
                                ],
                                "depth": 0,
                                "name": "Executed Gas",
                                "value": 210619
                            }
                        ],
                        "depth": -1,
                        "name": "Actual Gas Used",
                        "value": 218939
                    },
                    {
                        "children": [],
                        "depth": -1,
                        "name": "Refunded Gas",
                        "value": 15000
                    }
                ],
                "depth": -2,
                "name": "Total Gas",
                "value": 233939
            }
        ],
        "isConfirmed": true,
        "mainTrace": [
            {
                "children": [
                    {
                        "children": [
                            {
                                "children": [
                                    {
                                        "children": [],
                                        "depth": 2,
                                        "id": 2,
                                        "order": 2
                                    }
                                ],
                                "depth": 1,
                                "id": 1,
                                "order": 1
                            },
                            {
                                "children": [],
                                "depth": 1,
                                "id": 3,
                                "order": 3
                            }
                        ],
                        "depth": 0,
                        "id": 0,
                        "order": 0
                    }
                ],
                "depth": -1,
                "id": -1,
                "order": -1
            }
        ],
        "mainTraceNodeCount": 4,
        "parentIdMap": {
            "0": -1,
            "1": 0,
            "2": 1,
            "3": 0
        },
        "tidyTrace": [
            {
                "children": [
                    {
                        "children": [
                            {
                                "children": [
                                    {
                                        "children": [],
                                        "depth": 2,
                                        "id": 2,
                                        "order": 2
                                    }
                                ],
                                "depth": 1,
                                "id": 1,
                                "order": 1
                            },
                            {
                                "children": [],
                                "depth": 1,
                                "id": 3,
                                "order": 3
                            }
                        ],
                        "depth": 0,
                        "id": 0,
                        "order": 0
                    }
                ],
                "depth": -1,
                "id": -1,
                "order": -1
            }
        ],
        "tidyTraceNodeCount": 4
    },
    "state_change": {
        "stateChanges": [
            {
                "address": "0x5edc1a266e8b2c5e8086d373725df0690af7e3ea",
                "erc": "ERC-20",
                "slots": [
                    {
                        "current": "0x000000000000000000000000000000000000000000024b74d12634ce5997716c",
                        "key": "0xb21bec81e463adedbc5bfe1d6694dc11c51859c58a7455790b3bbf730039d414",
                        "prev": "0x000000000000000000000000000000000000000000024b7a911eb42c92061c16"
                    },
                    {
                        "current": "0x000000000000000000000000000000000000000000000005bff87f5e386eaaaa",
                        "key": "0x25dda47d6c3e33eb79bf1fab9646d6568521e41d6f73a3ebc7d9abdb9053331f",
                        "prev": "0x0000000000000000000000000000000000000000000000000000000000000000"
                    },
                    {
                        "current": "0x000000000000000000000000000000000000000000000005bff87f5e386eaaaa",
                        "key": "0xe7de4ac5dff2daa7580345270381deae948e12beaad8a938a0f20c080228c5de",
                        "prev": "0x0000000000000000000000000000000000000000000000000000000000000000"
                    }
                ],
                "storageVariables": [
                    {
                        "name": "balances",
                        "type": "mapping(address => uint256)",
                        "value": {
                            "pairs": [
                                {
                                    "key": "0x7c5cb1220bd293ff9cf903915732e51a71292038",
                                    "value": {
                                        "current": "2774184018548295961375084",
                                        "prev": "2774290085214962628041750",
                                        "typeTag": 1
                                    }
                                },
                                {
                                    "key": "0xe8febf2fd369afbb48ffa8e34c0062f07460c67c",
                                    "value": {
                                        "current": "106066666666666666666",
                                        "prev": "0",
                                        "typeTag": 1
                                    }
                                }
                            ],
                            "typeTag": 4
                        }
                    },
                    {
                        "name": "validator",
                        "type": "struct FrozenValidator.Validator",
                        "value": {
                            "fields": [
                                {
                                    "name": "data",
                                    "type": "mapping(address => struct FrozenValidator.IndexValue)",
                                    "value": {
                                        "pairs": [
                                            {
                                                "key": "0x7c5cb1220bd293ff9cf903915732e51a71292038",
                                                "value": {
                                                    "fields": [
                                                        {
                                                            "name": "frozenBalances",
                                                            "type": "mapping(address => uint256)",
                                                            "value": {
                                                                "pairs": [
                                                                    {
                                                                        "key": "0xe8febf2fd369afbb48ffa8e34c0062f07460c67c",
                                                                        "value": {
                                                                            "current": "106066666666666666666",
                                                                            "prev": "0",
                                                                            "typeTag": 1
                                                                        }
                                                                    }
                                                                ],
                                                                "typeTag": 4
                                                            }
                                                        }
                                                    ],
                                                    "typeTag": 3
                                                }
                                            }
                                        ],
                                        "typeTag": 4
                                    }
                                }
                            ],
                            "typeTag": 3
                        }
                    }
                ]
            },
            {
                "address": "0x7c5cb1220bd293ff9cf903915732e51a71292038",
                "erc": "",
                "slots": [
                    {
                        "current": "0x0000000000000000000000000000000000000000000000000000000000000000",
                        "key": "0x25dda47d6c3e33eb79bf1fab9646d6568521e41d6f73a3ebc7d9abdb9053331f",
                        "prev": "0x00000000000000000000000000000000000000000000035e7b9aa13510d80000"
                    },
                    {
                        "current": "0x000000000000000000000000000000000000000097d025fa3e04cd91a9a32fb8",
                        "key": "0x29dbce16fc0f3021b79c802427c61510ef8d251fa3dca28f07edb368e16dcda2",
                        "prev": "0x000000000000000000000000000000000000000097d0229bc26a2c5c98cb2fb8"
                    }
                ],
                "storageVariables": []
            }
        ]
    }
}