{
    "balance_change": {
        "balanceChanges": []
    },
    "profile": {
        "basic_info": {
            "baseFee": "25.053191853",
            "blockNumber": 14641392,
            "callData": "0x49c36c07000000000000000000000000febf38b1d34818d4827034f97b7d6d77c79d49970000000000000000000000000000000000000000000000001c594f783f9abc000000000000000000000000000000000000000000004cf1631ccce828000000000000000000000000000000000000000000000000004d48a94b3be650000000000000000000000000000000000000000000000000000000000000000000000000",
            "debugEnable": true,
            "errorInfo": "execution reverted",
            "eventCount": 0,
            "feeRecipient": "0xb7e390864a90b7b923c9f9310c6f98aafe43f707",
            "formatValue": "0",
            "gasLimit": 300014,
            "gasPrice": "31.653191856",
            "gasUsed": 33762,
            "intTxnCount": 1,
            "internalRevert": true,
            "internalRevertMessage": "",
            "isContractCreation": false,
            "isFlashloan": false,
            "maxFee": "44.037385984",
            "nonce": 5907,
            "overwritedBlockNumber": -1,
            "priorityFee": "6.600000003",
            "receiver": "0x98c3d3183c4b8a650614ad179a1a98be0a8d6b8e",
            "revertMessage": "hdb",
            "sender": "0x5e2b6c6b2240d582995537d3fafdb556e4a3822f",
            "simulationEnable": true,
            "sourceTxnHash": "0xace327ba91e7b832fecf9a93888f8399b3aa1e22d48f718597c29f915fe5e98d",
            "status": false,
            "timestamp": "2022-04-23T13:41:06Z",
            "transactionFee": "0.001068675063442272",
            "txnHash": "0xace327ba91e7b832fecf9a93888f8399b3aa1e22d48f718597c29f915fe5e98d",
            "txnIndex": 17,
            "type": 2,
            "value": "0"
        },
        "fund_flow": [],
        "token_infos": [
            {
                "address": "0xc02aaa39b223fe8d0a0e5c4f27ead9083c756cc2",
                "decimals": 18
            },
            {
                "address": "0xeeeeeeeeeeeeeeeeeeeeeeeeeeeeeeeeeeeeeeee",
                "decimals": 18
            }
        ]
    },
    "address_label": {
        "labels": [
            {
                "address": "0xfebf38b1d34818d4827034f97b7d6d77c79d4997",
                "label": "Uniswap V3: SPELL"
            },
            {
                "address": "0x0000000000000000000000000000000000000001",
                "label": "Precompiled"
            },
            {
                "address": "0x0000000000000000000000000000000000000002",
                "label": "Precompiled"
            },
            {
                "address": "0x0000000000000000000000000000000000000003",
                "label": "Precompiled"
            },
            {
                "address": "0x0000000000000000000000000000000000000004",
                "label": "Precompiled"
            },
            {
                "address": "0xeeeeeeeeeeeeeeeeeeeeeeeeeeeeeeeeeeeeeeee",
                "label": "Ether"
            },
            {
                "address": "0x98c3d3183c4b8a650614ad179a1a98be0a8d6b8e",
                "label": "MEV Bot: 0x98c...b8e"
            }
        ]
    },
    "trace": {
        "accountLabels": null,
        "dataMap": {
            "-1": {
                "invocation": {
                    "address": "0x5e2b6c6b2240d582995537d3fafdb556e4a3822f",
                    "callData": "",
                    "decodedMethod": null,
                    "errorInfo": "",
                    "fromAddress": "",
                    "gasUsed": 0,
                    "id": -1,
                    "methodDecoded": false,
                    "operation": "",
                    "output": "",
                    "revert": false,
                    "revertMessage": "",
                    "selector": "",
                    "status": false,
                    "value": ""
                },
                "nodeType": 0
            },
            "0": {
                "invocation": {
                    "address": "0x98c3d3183c4b8a650614ad179a1a98be0a8d6b8e",
                    "callData": "0x000000000000000000000000febf38b1d34818d4827034f97b7d6d77c79d49970000000000000000000000000000000000000000000000001c594f783f9abc000000000000000000000000000000000000000000004cf1631ccce828000000000000000000000000000000000000000000000000004d48a94b3be650000000000000000000000000000000000000000000000000000000000000000000000000",
                    "decodedMethod": null,
                    "errorInfo": "execution reverted",
                    "fromAddress": "0x5e2b6c6b2240d582995537d3fafdb556e4a3822f",
                    "gasUsed": 33762,
                    "id": 0,
                    "methodDecoded": false,
                    "operation": "CALL",
                    "output": "0x08c379a0000000000000000000000000000000000000000000000000000000000000002000000000000000000000000000000000000000000000000000000000000000036864620000000000000000000000000000000000000000000000000000000000",
                    "revert": true,
                    "revertMessage": "hdb",
                    "selector": "0x49c36c07",
                    "status": false,
                    "value": "0"
                },
                "nodeType": 0
            },
            "1": {
                "invocation": {
                    "address": "0xfebf38b1d34818d4827034f97b7d6d77c79d4997",
                    "callData": "0x",
                    "decodedMethod": {
                        "callParams": [],
                        "constructorArguments": "",
                        "name": "slot0",
                        "returnParams": [
                            {
                                "name": "sqrtPriceX96",
                                "type": "uint160",
                                "value": "93,505,373,121,402,273,419,890,044"
                            },
                            {
                                "name": "tick",
                                "type": "int24",
                                "value": "-134,849"
                            },
                            {
                                "name": "observationIndex",
                                "type": "uint16",
                                "value": "8"
                            },
                            {
                                "name": "observationCardinality",
                                "type": "uint16",
                                "value": "10"
                            },
                            {
                                "name": "observationCardinalityNext",
                                "type": "uint16",
                                "value": "10"
                            },
                            {
                                "name": "feeProtocol",
                                "type": "uint8",
                                "value": "0"
                            },
                            {
                                "name": "unlocked",
                                "type": "bool",
                                "value": true
                            }
                        ],
                        "signature": "slot0()"
                    },
                    "errorInfo": "",
                    "fromAddress": "0x98c3d3183c4b8a650614ad179a1a98be0a8d6b8e",
                    "gasUsed": 2696,
                    "id": 1,
                    "methodDecoded": true,
                    "operation": "STATICCALL",
                    "output": "0x0000000000000000000000000000000000000000004d58886f11c02401720d7cfffffffffffffffffffffffffffffffffffffffffffffffffffffffffffdf13f0000000000000000000000000000000000000000000000000000000000000008000000000000000000000000000000000000000000000000000000000000000a000000000000000000000000000000000000000000000000000000000000000a00000000000000000000000000000000000000000000000000000000000000000000000000000000000000000000000000000000000000000000000000000001",
                    "revert": true,
                    "revertMessage": "",
                    "selector": "0x3850c7bd",
                    "status": true,
                    "value": "0"
                },
                "nodeType": 0
            }
        },
        "gasFlame": [
            {
                "children": [
                    {
                        "children": [
                            {
                                "children": [],
                                "depth": 0,
                                "name": "Initial Gas",
                                "value": 22196
                            },
                            {
                                "children": [
                                    {
                                        "children": [],
                                        "depth": 1,
                                        "name": "slot0",
                                        "value": 2696
                                    }
                                ],
                                "depth": 0,
                                "name": "Executed Gas",
                                "value": 11566
                            }
                        ],
                        "depth": -1,
                        "name": "Actual Gas Used",
                        "value": 33762
                    },
                    {
                        "children": [],
                        "depth": -1,
                        "name": "Refunded Gas",
                        "value": 0
                    }
                ],
                "depth": -2,
                "name": "Total Gas",
                "value": 33762
            }
        ],
        "isConfirmed": true,
        "mainTrace": [
            {
                "children": [
                    {
                        "children": [
                            {
                                "children": [],
                                "depth": 1,
                                "id": 1,
                                "order": 1
                            }
                        ],
                        "depth": 0,
                        "id": 0,
                        "order": 0
                    }
                ],
                "depth": -1,
                "id": -1,
                "order": -1
            }
        ],
        "mainTraceNodeCount": 2,
        "parentIdMap": {
            "0": -1,
            "1": 0
        },
        "tidyTrace": [
            {
                "children": [
                    {
                        "children": [],
                        "depth": 0,
                        "id": 0,
                        "order": 0
                    }
                ],
                "depth": -1,
                "id": -1,
                "order": -1
            }
        ],
        "tidyTraceNodeCount": 1
    },
    "state_change": {
        "stateChanges": []
    }
}