{
    "balance_change": {
        "balanceChanges": [
            {
                "account": "0xcd813cea279bd18873b8f4d629ce9220d07c1064",
                "assets": [
                    {
                        "address": "0xeeeeeeeeeeeeeeeeeeeeeeeeeeeeeeeeeeeeeeee",
                        "amount": "0.1",
                        "iconUrl": "https://assets.blocksec.com/image/1663669189317-3.png",
                        "isERC1155": false,
                        "isERC721": false,
                        "sign": false,
                        "value": "184.82200000000000273"
                    },
                    {
                        "address": "0xbcd657377d4086cc582b215294c3611b997ef1be",
                        "amount": "4,725,003.278258396",
                        "iconUrl": "",
                        "isERC1155": false,
                        "isERC721": false,
                        "sign": true,
                        "value": "166.2446924"
                    }
                ]
            },
            {
                "account": "0x3999d2c5207c06bbc5cf8a6bea52966cabb76d41",
                "assets": [
                    {
                        "address": "0xeeeeeeeeeeeeeeeeeeeeeeeeeeeeeeeeeeeeeeee",
                        "amount": "0.0009",
                        "iconUrl": "https://assets.blocksec.com/image/1663669189317-3.png",
                        "isERC1155": false,
                        "isERC721": false,
                        "sign": true,
                        "value": "1.6633980000000000246"
                    }
                ]
            },
            {
                "account": "0x414ee84282dc172991071268fbd05bd855d70005",
                "assets": [
                    {
                        "address": "0xc02aaa39b223fe8d0a0e5c4f27ead9083c756cc2",
                        "amount": "0.0991",
                        "iconUrl": "https://assets.blocksec.com/icon/f1cb2d02c471d545bbc7722daf3277fd852d98e63d118771af7047bd8256c516.png",
                        "isERC1155": false,
                        "isERC721": false,
                        "sign": true,
                        "value": "183.1586020000000027"
                    },
                    {
                        "address": "0xbcd657377d4086cc582b215294c3611b997ef1be",
                        "amount": "4,973,687.661324627",
                        "iconUrl": "",
                        "isERC1155": false,
                        "isERC721": false,
                        "sign": false,
                        "value": "172.7134387"
                    }
                ]
            },
            {
                "account": "0xbcd657377d4086cc582b215294c3611b997ef1be",
                "assets": [
                    {
                        "address": "0xbcd657377d4086cc582b215294c3611b997ef1be",
                        "amount": "248,684.383066231",
                        "iconUrl": "",
                        "isERC1155": false,
                        "isERC721": false,
                        "sign": true,
                        "value": "8.5749983"
                    }
                ]
            },
            {
                "account": "0xc02aaa39b223fe8d0a0e5c4f27ead9083c756cc2",
                "assets": [
                    {
                        "address": "0xeeeeeeeeeeeeeeeeeeeeeeeeeeeeeeeeeeeeeeee",
                        "amount": "0.0991",
                        "iconUrl": "https://assets.blocksec.com/image/1663669189317-3.png",
                        "isERC1155": false,
                        "isERC721": false,
                        "sign": true,
                        "value": "183.1586020000000027"
                    },
                    {
                        "address": "0xc02aaa39b223fe8d0a0e5c4f27ead9083c756cc2",
                        "amount": "0.0991",
                        "iconUrl": "https://assets.blocksec.com/icon/f1cb2d02c471d545bbc7722daf3277fd852d98e63d118771af7047bd8256c516.png",
                        "isERC1155": false,
                        "isERC721": false,
                        "sign": false,
                        "value": "183.1586020000000027"
                    }
                ]
            }
        ]
    },
    "profile": {
        "basic_info": {
            "baseFee": "13.181744332",
            "blockNumber": 17882656,
            "callData": "0x19948479000000000000000000000000000000000000000000000000000d7b4dfe6d8feb00000000000000000000000000000000000000000000000000000000000000c0000000000000000000000000cd813cea279bd18873b8f4d629ce9220d07c106400000000000000000000000000000000000000000000000000000000000003840000000000000000000000000000000000000000000000000000000064d4815d00000000000000000000000000000000000000000000000000000000000001200000000000000000000000000000000000000000000000000000000000000002000000000000000000000000c02aaa39b223fe8d0a0e5c4f27ead9083c756cc2000000000000000000000000bcd657377d4086cc582b215294c3611b997ef1be00000000000000000000000000000000000000000000000000000000000000026e61000000000000000000000000000000000000000000000000000000000000",
            "debugEnable": true,
            "errorInfo": "",
            "eventCount": 6,
            "feeRecipient": "0x1f9090aae28b8a3dceadf281b0f12828e676c326",
            "formatValue": "0.1",
            "gasLimit": 600000,
            "gasPrice": "19.181744332",
            "gasUsed": 135051,
            "intTxnCount": 10,
            "internalRevert": false,
            "internalRevertMessage": "",
            "isContractCreation": false,
            "isFlashloan": false,
            "maxFee": "28.6",
            "nonce": 32,
            "overwritedBlockNumber": -1,
            "priorityFee": "6",
            "receiver": "0x3999d2c5207c06bbc5cf8a6bea52966cabb76d41",
            "revertMessage": "",
            "sender": "0xcd813cea279bd18873b8f4d629ce9220d07c1064",
            "simulationEnable": true,
            "sourceTxnHash": "0xac4107e8d5112033ea21b16edd016d45915bbc22ec29379924fd788313be9b6e",
            "status": true,
            "timestamp": "2023-08-10T06:18:23Z",
            "transactionFee": "0.002590513753780932",
            "txnHash": "0xac4107e8d5112033ea21b16edd016d45915bbc22ec29379924fd788313be9b6e",
            "txnIndex": 23,
            "type": 2,
            "value": "100000000000000000"
        },
        "fund_flow": [
            {
                "amount": "0.1",
                "from": "0xcd813cea279bd18873b8f4d629ce9220d07c1064",
                "id": 1,
                "isERC1155": false,
                "isERC721": false,
                "isReverted": false,
                "order": 1,
                "to": "0x3999d2c5207c06bbc5cf8a6bea52966cabb76d41",
                "token": "0xeeeeeeeeeeeeeeeeeeeeeeeeeeeeeeeeeeeeeeee"
            },
            {
                "amount": "0.0991",
                "from": "0x3999d2c5207c06bbc5cf8a6bea52966cabb76d41",
                "id": 2,
                "isERC1155": false,
                "isERC721": false,
                "isReverted": false,
                "order": 2,
                "to": "0xc02aaa39b223fe8d0a0e5c4f27ead9083c756cc2",
                "token": "0xeeeeeeeeeeeeeeeeeeeeeeeeeeeeeeeeeeeeeeee"
            },
            {
                "amount": "0.0991",
                "from": "0xc02aaa39b223fe8d0a0e5c4f27ead9083c756cc2",
                "id": 3,
                "isERC1155": false,
                "isERC721": false,
                "isReverted": false,
                "order": 3,
                "to": "0x3999d2c5207c06bbc5cf8a6bea52966cabb76d41",
                "token": "0xc02aaa39b223fe8d0a0e5c4f27ead9083c756cc2"
            },
            {
                "amount": "0.0991",
                "from": "0x3999d2c5207c06bbc5cf8a6bea52966cabb76d41",
                "id": 4,
                "isERC1155": false,
                "isERC721": false,
                "isReverted": false,
                "order": 4,
                "to": "0x414ee84282dc172991071268fbd05bd855d70005",
                "token": "0xc02aaa39b223fe8d0a0e5c4f27ead9083c756cc2"
            },
            {
                "amount": "248,684.383066231",
                "from": "0x414ee84282dc172991071268fbd05bd855d70005",
                "id": 5,
                "isERC1155": false,
                "isERC721": false,
                "isReverted": false,
                "order": 5,
                "to": "0xbcd657377d4086cc582b215294c3611b997ef1be",
                "token": "0xbcd657377d4086cc582b215294c3611b997ef1be"
            },
            {
                "amount": "4,725,003.278258396",
                "from": "0x414ee84282dc172991071268fbd05bd855d70005",
                "id": 6,
                "isERC1155": false,
                "isERC721": false,
                "isReverted": false,
                "order": 6,
                "to": "0xcd813cea279bd18873b8f4d629ce9220d07c1064",
                "token": "0xbcd657377d4086cc582b215294c3611b997ef1be"
            }
        ],
        "token_infos": [
            {
                "address": "0xbcd657377d4086cc582b215294c3611b997ef1be",
                "decimals": 9
            },
            {
                "address": "0xc02aaa39b223fe8d0a0e5c4f27ead9083c756cc2",
                "decimals": 18
            },
            {
                "address": "0xeeeeeeeeeeeeeeeeeeeeeeeeeeeeeeeeeeeeeeee",
                "decimals": 18
            }
        ]
    },
    "address_label": {
        "labels": [
            {
                "address": "0xbcd657377d4086cc582b215294c3611b997ef1be",
                "label": "SnakeBot (SNAKEBOT)"
            },
            {
                "address": "0x0000000000000000000000000000000000000002",
                "label": "Precompiled"
            },
            {
                "address": "0x0000000000000000000000000000000000000004",
                "label": "Precompiled"
            },
            {
                "address": "0xeeeeeeeeeeeeeeeeeeeeeeeeeeeeeeeeeeeeeeee",
                "label": "Ether"
            },
            {
                "address": "0xc02aaa39b223fe8d0a0e5c4f27ead9083c756cc2",
                "label": "Wrapped Ether (WETH)"
            },
            {
                "address": "0x0000000000000000000000000000000000000001",
                "label": "Precompiled"
            },
            {
                "address": "0x0000000000000000000000000000000000000003",
                "label": "Precompiled"
            },
            {
                "address": "0x414ee84282dc172991071268fbd05bd855d70005",
                "label": "Uniswap V2: SNAKEBOT"
            },
            {
                "address": "0x3999d2c5207c06bbc5cf8a6bea52966cabb76d41",
                "label": "Unibot: Router"
            }
        ]
    },
    "trace": {
        "accountLabels": null,
        "dataMap": {
            "-1": {
                "invocation": {
                    "address": "0xcd813cea279bd18873b8f4d629ce9220d07c1064",
                    "callData": "",
                    "decodedMethod": null,
                    "errorInfo": "",
                    "fromAddress": "",
                    "gasUsed": 0,
                    "id": -1,
                    "methodDecoded": false,
                    "operation": "",
                    "output": "",
                    "revert": false,
                    "revertMessage": "",
                    "selector": "",
                    "status": false,
                    "value": ""
                },
                "nodeType": 0
            },
            "0": {
                "invocation": {
                    "address": "0x3999d2c5207c06bbc5cf8a6bea52966cabb76d41",
                    "callData": "0x000000000000000000000000000000000000000000000000000d7b4dfe6d8feb00000000000000000000000000000000000000000000000000000000000000c0000000000000000000000000cd813cea279bd18873b8f4d629ce9220d07c106400000000000000000000000000000000000000000000000000000000000003840000000000000000000000000000000000000000000000000000000064d4815d00000000000000000000000000000000000000000000000000000000000001200000000000000000000000000000000000000000000000000000000000000002000000000000000000000000c02aaa39b223fe8d0a0e5c4f27ead9083c756cc2000000000000000000000000bcd657377d4086cc582b215294c3611b997ef1be00000000000000000000000000000000000000000000000000000000000000026e61000000000000000000000000000000000000000000000000000000000000",
                    "decodedMethod": {
                        "callParams": [
                            {
                                "name": "amt_out_min",
                                "type": "uint256",
                                "value": "3,794,749,608,529,899"
                            },
                            {
                                "name": "path",
                                "type": "address[]",
                                "value": [
                                    "0xc02aaa39b223fe8d0a0e5c4f27ead9083c756cc2",
                                    "0xbcd657377d4086cc582b215294c3611b997ef1be"
                                ]
                            },
                            {
                                "name": "to",
                                "type": "address",
                                "value": "0xcd813cea279bd18873b8f4d629ce9220d07c1064"
                            },
                            {
                                "name": "pct_fee",
                                "type": "uint256",
                                "value": "900"
                            },
                            {
                                "name": "deadline",
                                "type": "uint256",
                                "value": "1,691,648,349"
                            },
                            {
                                "name": "referral",
                                "type": "string",
                                "value": "na"
                            }
                        ],
                        "constructorArguments": "",
                        "name": "uniV2_swapExactETHForTokens_pctFee",
                        "returnParams": [],
                        "signature": "uniV2_swapExactETHForTokens_pctFee(uint256,address[],address,uint256,uint256,string)"
                    },
                    "errorInfo": "",
                    "fromAddress": "0xcd813cea279bd18873b8f4d629ce9220d07c1064",
                    "gasUsed": 135051,
                    "id": 0,
                    "methodDecoded": true,
                    "operation": "CALL",
                    "output": "",
                    "revert": false,
                    "revertMessage": "",
                    "selector": "0x19948479",
                    "status": true,
                    "value": "0.1"
                },
                "nodeType": 0
            },
            "1": {
                "invocation": {
                    "address": "0xc02aaa39b223fe8d0a0e5c4f27ead9083c756cc2",
                    "callData": "0x",
                    "decodedMethod": {
                        "callParams": [],
                        "constructorArguments": "",
                        "name": "deposit",
                        "returnParams": [],
                        "signature": "deposit()"
                    },
                    "errorInfo": "",
                    "fromAddress": "0x3999d2c5207c06bbc5cf8a6bea52966cabb76d41",
                    "gasUsed": 23974,
                    "id": 1,
                    "methodDecoded": true,
                    "operation": "CALL",
                    "output": "",
                    "revert": false,
                    "revertMessage": "",
                    "selector": "0xd0e30db0",
                    "status": true,
                    "value": "0.0991"
                },
                "nodeType": 0
            },
            "10": {
                "event": {
                    "contract": "0xbcd657377d4086cc582b215294c3611b997ef1be",
                    "decodedLog": {
                        "name": "Transfer",
                        "params": [
                            {
                                "name": "from",
                                "type": "address",
                                "value": "0x414ee84282dc172991071268fbd05bd855d70005"
                            },
                            {
                                "name": "to",
                                "type": "address",
                                "value": "0xbcd657377d4086cc582b215294c3611b997ef1be"
                            },
                            {
                                "decimalAvailable": true,
                                "name": "value",
                                "type": "uint256",
                                "value": "248,684,383,066,231"
                            }
                        ],
                        "signature": "Transfer(address,address,uint256)"
                    },
                    "id": 10,
                    "logData": "0x0000000000000000000000000000000000000000000000000000e22d58505877",
                    "logDecoded": true,
                    "operation": "EVENT",
                    "revert": false,
                    "status": true,
                    "topics": [
                        "0xddf252ad1be2c89b69c2b068fc378daa952ba7f163c4a11628f55a4df523b3ef",
                        "0x000000000000000000000000414ee84282dc172991071268fbd05bd855d70005",
                        "0x000000000000000000000000bcd657377d4086cc582b215294c3611b997ef1be"
                    ]
                },
                "nodeType": 1
            },
            "11": {
                "event": {
                    "contract": "0xbcd657377d4086cc582b215294c3611b997ef1be",
                    "decodedLog": {
                        "name": "Transfer",
                        "params": [
                            {
                                "name": "from",
                                "type": "address",
                                "value": "0x414ee84282dc172991071268fbd05bd855d70005"
                            },
                            {
                                "name": "to",
                                "type": "address",
                                "value": "0xcd813cea279bd18873b8f4d629ce9220d07c1064"
                            },
                            {
                                "decimalAvailable": true,
                                "name": "value",
                                "type": "uint256",
                                "value": "4,725,003,278,258,396"
                            }
                        ],
                        "signature": "Transfer(address,address,uint256)"
                    },
                    "id": 11,
                    "logData": "0x0000000000000000000000000000000000000000000000000010c95d8df690dc",
                    "logDecoded": true,
                    "operation": "EVENT",
                    "revert": false,
                    "status": true,
                    "topics": [
                        "0xddf252ad1be2c89b69c2b068fc378daa952ba7f163c4a11628f55a4df523b3ef",
                        "0x000000000000000000000000414ee84282dc172991071268fbd05bd855d70005",
                        "0x000000000000000000000000cd813cea279bd18873b8f4d629ce9220d07c1064"
                    ]
                },
                "nodeType": 1
            },
            "12": {
                "invocation": {
                    "address": "0xbcd657377d4086cc582b215294c3611b997ef1be",
                    "callData": "0x000000000000000000000000414ee84282dc172991071268fbd05bd855d70005",
                    "decodedMethod": {
                        "callParams": [
                            {
                                "name": "account",
                                "type": "address",
                                "value": "0x414ee84282dc172991071268fbd05bd855d70005"
                            }
                        ],
                        "constructorArguments": "",
                        "name": "balanceOf",
                        "returnParams": [
                            {
                                "decimalAvailable": true,
                                "name": "",
                                "type": "uint256",
                                "value": "718,115,752,502,014,942"
                            }
                        ],
                        "signature": "balanceOf(address)"
                    },
                    "errorInfo": "",
                    "fromAddress": "0x414ee84282dc172991071268fbd05bd855d70005",
                    "gasUsed": 940,
                    "id": 12,
                    "methodDecoded": true,
                    "operation": "STATICCALL",
                    "output": "0x00000000000000000000000000000000000000000000000009f74278df7eb3de",
                    "revert": false,
                    "revertMessage": "",
                    "selector": "0x70a08231",
                    "status": true,
                    "value": "0"
                },
                "nodeType": 0
            },
            "13": {
                "invocation": {
                    "address": "0xc02aaa39b223fe8d0a0e5c4f27ead9083c756cc2",
                    "callData": "0x000000000000000000000000414ee84282dc172991071268fbd05bd855d70005",
                    "decodedMethod": {
                        "callParams": [
                            {
                                "name": "",
                                "type": "address",
                                "value": "0x414ee84282dc172991071268fbd05bd855d70005"
                            }
                        ],
                        "constructorArguments": "",
                        "name": "balanceOf",
                        "returnParams": [
                            {
                                "decimalAvailable": true,
                                "name": "",
                                "type": "uint256",
                                "value": "14,364,526,398,093,211,305"
                            }
                        ],
                        "signature": "balanceOf(address)"
                    },
                    "errorInfo": "",
                    "fromAddress": "0x414ee84282dc172991071268fbd05bd855d70005",
                    "gasUsed": 534,
                    "id": 13,
                    "methodDecoded": true,
                    "operation": "STATICCALL",
                    "output": "0x000000000000000000000000000000000000000000000000c7590ca70d1136a9",
                    "revert": false,
                    "revertMessage": "",
                    "selector": "0x70a08231",
                    "status": true,
                    "value": "0"
                },
                "nodeType": 0
            },
            "14": {
                "event": {
                    "contract": "0x414ee84282dc172991071268fbd05bd855d70005",
                    "decodedLog": {
                        "name": "Sync",
                        "params": [
                            {
                                "name": "reserve0",
                                "type": "uint112",
                                "value": "718,115,752,502,014,942"
                            },
                            {
                                "name": "reserve1",
                                "type": "uint112",
                                "value": "14,364,526,398,093,211,305"
                            }
                        ],
                        "signature": "Sync(uint112,uint112)"
                    },
                    "id": 14,
                    "logData": "0x00000000000000000000000000000000000000000000000009f74278df7eb3de000000000000000000000000000000000000000000000000c7590ca70d1136a9",
                    "logDecoded": true,
                    "operation": "EVENT",
                    "revert": false,
                    "status": true,
                    "topics": [
                        "0x1c411e9a96e071241c2f21f7726b17ae89e3cab4c78be50e062b03a9fffbbad1"
                    ]
                },
                "nodeType": 1
            },
            "15": {
                "event": {
                    "contract": "0x414ee84282dc172991071268fbd05bd855d70005",
                    "decodedLog": {
                        "name": "Swap",
                        "params": [
                            {
                                "name": "sender",
                                "type": "address",
                                "value": "0x3999d2c5207c06bbc5cf8a6bea52966cabb76d41"
                            },
                            {
                                "name": "to",
                                "type": "address",
                                "value": "0xcd813cea279bd18873b8f4d629ce9220d07c1064"
                            },
                            {
                                "name": "amount0In",
                                "type": "uint256",
                                "value": "0"
                            },
                            {
                                "name": "amount1In",
                                "type": "uint256",
                                "value": "99,100,000,000,000,000"
                            },
                            {
                                "name": "amount0Out",
                                "type": "uint256",
                                "value": "4,973,687,661,324,627"
                            },
                            {
                                "name": "amount1Out",
                                "type": "uint256",
                                "value": "0"
                            }
                        ],
                        "signature": "Swap(address,uint256,uint256,uint256,uint256,address)"
                    },
                    "id": 15,
                    "logData": "0x0000000000000000000000000000000000000000000000000000000000000000000000000000000000000000000000000000000000000000016012ecc93dc0000000000000000000000000000000000000000000000000000011ab8ae646e9530000000000000000000000000000000000000000000000000000000000000000",
                    "logDecoded": true,
                    "operation": "EVENT",
                    "revert": false,
                    "status": true,
                    "topics": [
                        "0xd78ad95fa46c994b6551d0da85fc275fe613ce37657fb8d5e3d130840159d822",
                        "0x0000000000000000000000003999d2c5207c06bbc5cf8a6bea52966cabb76d41",
                        "0x000000000000000000000000cd813cea279bd18873b8f4d629ce9220d07c1064"
                    ]
                },
                "nodeType": 1
            },
            "16": {
                "invocation": {
                    "address": "0xbcd657377d4086cc582b215294c3611b997ef1be",
                    "callData": "0x000000000000000000000000cd813cea279bd18873b8f4d629ce9220d07c1064",
                    "decodedMethod": {
                        "callParams": [
                            {
                                "name": "account",
                                "type": "address",
                                "value": "0xcd813cea279bd18873b8f4d629ce9220d07c1064"
                            }
                        ],
                        "constructorArguments": "",
                        "name": "balanceOf",
                        "returnParams": [
                            {
                                "decimalAvailable": true,
                                "name": "",
                                "type": "uint256",
                                "value": "51,751,784,337,149,207"
                            }
                        ],
                        "signature": "balanceOf(address)"
                    },
                    "errorInfo": "",
                    "fromAddress": "0x3999d2c5207c06bbc5cf8a6bea52966cabb76d41",
                    "gasUsed": 940,
                    "id": 16,
                    "methodDecoded": true,
                    "operation": "STATICCALL",
                    "output": "0x00000000000000000000000000000000000000000000000000b7dbf941e88d17",
                    "revert": false,
                    "revertMessage": "",
                    "selector": "0x70a08231",
                    "status": true,
                    "value": "0"
                },
                "nodeType": 0
            },
            "2": {
                "event": {
                    "contract": "0xc02aaa39b223fe8d0a0e5c4f27ead9083c756cc2",
                    "decodedLog": {
                        "name": "Deposit",
                        "params": [
                            {
                                "name": "dst",
                                "type": "address",
                                "value": "0x3999d2c5207c06bbc5cf8a6bea52966cabb76d41"
                            },
                            {
                                "name": "wad",
                                "type": "uint256",
                                "value": "99,100,000,000,000,000"
                            }
                        ],
                        "signature": "Deposit(address,uint256)"
                    },
                    "id": 2,
                    "logData": "0x000000000000000000000000000000000000000000000000016012ecc93dc000",
                    "logDecoded": true,
                    "operation": "EVENT",
                    "revert": false,
                    "status": true,
                    "topics": [
                        "0xe1fffcc4923d04b559f4d29a8bfc6cda04eb5b0d3c460751c2402c5c5cc9109c",
                        "0x0000000000000000000000003999d2c5207c06bbc5cf8a6bea52966cabb76d41"
                    ]
                },
                "nodeType": 1
            },
            "3": {
                "invocation": {
                    "address": "0xc02aaa39b223fe8d0a0e5c4f27ead9083c756cc2",
                    "callData": "0x000000000000000000000000414ee84282dc172991071268fbd05bd855d70005000000000000000000000000000000000000000000000000016012ecc93dc000",
                    "decodedMethod": {
                        "callParams": [
                            {
                                "name": "dst",
                                "type": "address",
                                "value": "0x414ee84282dc172991071268fbd05bd855d70005"
                            },
                            {
                                "decimalAvailable": true,
                                "name": "wad",
                                "type": "uint256",
                                "value": "99,100,000,000,000,000"
                            }
                        ],
                        "constructorArguments": "",
                        "name": "transfer",
                        "returnParams": [
                            {
                                "name": "",
                                "type": "bool",
                                "value": true
                            }
                        ],
                        "signature": "transfer(address,uint256)"
                    },
                    "errorInfo": "",
                    "fromAddress": "0x3999d2c5207c06bbc5cf8a6bea52966cabb76d41",
                    "gasUsed": 8062,
                    "id": 3,
                    "methodDecoded": true,
                    "operation": "CALL",
                    "output": "0x0000000000000000000000000000000000000000000000000000000000000001",
                    "revert": false,
                    "revertMessage": "",
                    "selector": "0xa9059cbb",
                    "status": true,
                    "value": "0"
                },
                "nodeType": 0
            },
            "4": {
                "event": {
                    "contract": "0xc02aaa39b223fe8d0a0e5c4f27ead9083c756cc2",
                    "decodedLog": {
                        "name": "Transfer",
                        "params": [
                            {
                                "name": "src",
                                "type": "address",
                                "value": "0x3999d2c5207c06bbc5cf8a6bea52966cabb76d41"
                            },
                            {
                                "name": "dst",
                                "type": "address",
                                "value": "0x414ee84282dc172991071268fbd05bd855d70005"
                            },
                            {
                                "decimalAvailable": true,
                                "name": "wad",
                                "type": "uint256",
                                "value": "99,100,000,000,000,000"
                            }
                        ],
                        "signature": "Transfer(address,address,uint256)"
                    },
                    "id": 4,
                    "logData": "0x000000000000000000000000000000000000000000000000016012ecc93dc000",
                    "logDecoded": true,
                    "operation": "EVENT",
                    "revert": false,
                    "status": true,
                    "topics": [
                        "0xddf252ad1be2c89b69c2b068fc378daa952ba7f163c4a11628f55a4df523b3ef",
                        "0x0000000000000000000000003999d2c5207c06bbc5cf8a6bea52966cabb76d41",
                        "0x000000000000000000000000414ee84282dc172991071268fbd05bd855d70005"
                    ]
                },
                "nodeType": 1
            },
            "5": {
                "invocation": {
                    "address": "0xbcd657377d4086cc582b215294c3611b997ef1be",
                    "callData": "0x000000000000000000000000cd813cea279bd18873b8f4d629ce9220d07c1064",
                    "decodedMethod": {
                        "callParams": [
                            {
                                "name": "account",
                                "type": "address",
                                "value": "0xcd813cea279bd18873b8f4d629ce9220d07c1064"
                            }
                        ],
                        "constructorArguments": "",
                        "name": "balanceOf",
                        "returnParams": [
                            {
                                "decimalAvailable": true,
                                "name": "",
                                "type": "uint256",
                                "value": "47,026,781,058,890,811"
                            }
                        ],
                        "signature": "balanceOf(address)"
                    },
                    "errorInfo": "",
                    "fromAddress": "0x3999d2c5207c06bbc5cf8a6bea52966cabb76d41",
                    "gasUsed": 2940,
                    "id": 5,
                    "methodDecoded": true,
                    "operation": "STATICCALL",
                    "output": "0x00000000000000000000000000000000000000000000000000a7129bb3f1fc3b",
                    "revert": false,
                    "revertMessage": "",
                    "selector": "0x70a08231",
                    "status": true,
                    "value": "0"
                },
                "nodeType": 0
            },
            "6": {
                "invocation": {
                    "address": "0x414ee84282dc172991071268fbd05bd855d70005",
                    "callData": "0x",
                    "decodedMethod": {
                        "callParams": [],
                        "constructorArguments": "",
                        "name": "getReserves",
                        "returnParams": [
                            {
                                "name": "_reserve0",
                                "type": "uint112",
                                "value": "723,089,440,163,339,569"
                            },
                            {
                                "name": "_reserve1",
                                "type": "uint112",
                                "value": "14,265,426,398,093,211,305"
                            },
                            {
                                "name": "_blockTimestampLast",
                                "type": "uint32",
                                "value": "1,691,648,303"
                            }
                        ],
                        "signature": "getReserves()"
                    },
                    "errorInfo": "",
                    "fromAddress": "0x3999d2c5207c06bbc5cf8a6bea52966cabb76d41",
                    "gasUsed": 2504,
                    "id": 6,
                    "methodDecoded": true,
                    "operation": "STATICCALL",
                    "output": "0x0000000000000000000000000000000000000000000000000a08ee03c5c59d31000000000000000000000000000000000000000000000000c5f8f9ba43d376a90000000000000000000000000000000000000000000000000000000064d4812f",
                    "revert": false,
                    "revertMessage": "",
                    "selector": "0x0902f1ac",
                    "status": true,
                    "value": "0"
                },
                "nodeType": 0
            },
            "7": {
                "invocation": {
                    "address": "0xc02aaa39b223fe8d0a0e5c4f27ead9083c756cc2",
                    "callData": "0x000000000000000000000000414ee84282dc172991071268fbd05bd855d70005",
                    "decodedMethod": {
                        "callParams": [
                            {
                                "name": "",
                                "type": "address",
                                "value": "0x414ee84282dc172991071268fbd05bd855d70005"
                            }
                        ],
                        "constructorArguments": "",
                        "name": "balanceOf",
                        "returnParams": [
                            {
                                "decimalAvailable": true,
                                "name": "",
                                "type": "uint256",
                                "value": "14,364,526,398,093,211,305"
                            }
                        ],
                        "signature": "balanceOf(address)"
                    },
                    "errorInfo": "",
                    "fromAddress": "0x3999d2c5207c06bbc5cf8a6bea52966cabb76d41",
                    "gasUsed": 534,
                    "id": 7,
                    "methodDecoded": true,
                    "operation": "STATICCALL",
                    "output": "0x000000000000000000000000000000000000000000000000c7590ca70d1136a9",
                    "revert": false,
                    "revertMessage": "",
                    "selector": "0x70a08231",
                    "status": true,
                    "value": "0"
                },
                "nodeType": 0
            },
            "8": {
                "invocation": {
                    "address": "0x414ee84282dc172991071268fbd05bd855d70005",
                    "callData": "0x0000000000000000000000000000000000000000000000000011ab8ae646e9530000000000000000000000000000000000000000000000000000000000000000000000000000000000000000cd813cea279bd18873b8f4d629ce9220d07c106400000000000000000000000000000000000000000000000000000000000000800000000000000000000000000000000000000000000000000000000000000000",
                    "decodedMethod": {
                        "callParams": [
                            {
                                "name": "amount0Out",
                                "type": "uint256",
                                "value": "4,973,687,661,324,627"
                            },
                            {
                                "name": "amount1Out",
                                "type": "uint256",
                                "value": "0"
                            },
                            {
                                "name": "to",
                                "type": "address",
                                "value": "0xcd813cea279bd18873b8f4d629ce9220d07c1064"
                            },
                            {
                                "name": "data",
                                "type": "bytes",
                                "value": "0x"
                            }
                        ],
                        "constructorArguments": "",
                        "name": "swap",
                        "returnParams": [],
                        "signature": "swap(uint256,uint256,address,bytes)"
                    },
                    "errorInfo": "",
                    "fromAddress": "0x3999d2c5207c06bbc5cf8a6bea52966cabb76d41",
                    "gasUsed": 69821,
                    "id": 8,
                    "methodDecoded": true,
                    "operation": "CALL",
                    "output": "",
                    "revert": false,
                    "revertMessage": "",
                    "selector": "0x022c0d9f",
                    "status": true,
                    "value": "0"
                },
                "nodeType": 0
            },
            "9": {
                "invocation": {
                    "address": "0xbcd657377d4086cc582b215294c3611b997ef1be",
                    "callData": "0x000000000000000000000000cd813cea279bd18873b8f4d629ce9220d07c10640000000000000000000000000000000000000000000000000011ab8ae646e953",
                    "decodedMethod": {
                        "callParams": [
                            {
                                "name": "recipient",
                                "type": "address",
                                "value": "0xcd813cea279bd18873b8f4d629ce9220d07c1064"
                            },
                            {
                                "decimalAvailable": true,
                                "name": "amount",
                                "type": "uint256",
                                "value": "4,973,687,661,324,627"
                            }
                        ],
                        "constructorArguments": "",
                        "name": "transfer",
                        "returnParams": [
                            {
                                "name": "",
                                "type": "bool",
                                "value": true
                            }
                        ],
                        "signature": "transfer(address,uint256)"
                    },
                    "errorInfo": "",
                    "fromAddress": "0x414ee84282dc172991071268fbd05bd855d70005",
                    "gasUsed": 47440,
                    "id": 9,
                    "methodDecoded": true,
                    "operation": "CALL",
                    "output": "0x0000000000000000000000000000000000000000000000000000000000000001",
                    "revert": false,
                    "revertMessage": "",
                    "selector": "0xa9059cbb",
                    "status": true,
                    "value": "0"
                },
                "nodeType": 0
            }
        },
        "gasFlame": [
            {
                "children": [
                    {
                        "children": [
                            {
                                "children": [],
                                "depth": 0,
                                "name": "Initial Gas",
                                "value": 23432
                            },
                            {
                                "children": [
                                    {
                                        "children": [],
                                        "depth": 1,
                                        "name": "deposit",
                                        "value": 23974
                                    },
                                    {
                                        "children": [],
                                        "depth": 1,
                                        "name": "transfer",
                                        "value": 8062
                                    },
                                    {
                                        "children": [],
                                        "depth": 1,
                                        "name": "balanceOf",
                                        "value": 2940
                                    },
                                    {
                                        "children": [],
                                        "depth": 1,
                                        "name": "getReserves",
                                        "value": 2504
                                    },
                                    {
                                        "children": [],
                                        "depth": 1,
                                        "name": "balanceOf",
                                        "value": 534
                                    },
                                    {
                                        "children": [
                                            {
                                                "children": [],
                                                "depth": 2,
                                                "name": "transfer",
                                                "value": 47440
                                            },
                                            {
                                                "children": [],
                                                "depth": 2,
                                                "name": "balanceOf",
                                                "value": 940
                                            },
                                            {
                                                "children": [],
                                                "depth": 2,
                                                "name": "balanceOf",
                                                "value": 534
                                            }
                                        ],
                                        "depth": 1,
                                        "name": "swap",
                                        "value": 69821
                                    },
                                    {
                                        "children": [],
                                        "depth": 1,
                                        "name": "balanceOf",
                                        "value": 940
                                    }
                                ],
                                "depth": 0,
                                "name": "Executed Gas",
                                "value": 134319
                            }
                        ],
                        "depth": -1,
                        "name": "Actual Gas Used",
                        "value": 135051
                    },
                    {
                        "children": [],
                        "depth": -1,
                        "name": "Refunded Gas",
                        "value": 22700
                    }
                ],
                "depth": -2,
                "name": "Total Gas",
                "value": 157751
            }
        ],
        "isConfirmed": true,
        "mainTrace": [
            {
                "children": [
                    {
                        "children": [
                            {
                                "children": [
                                    {
                                        "children": [],
                                        "depth": 2,
                                        "id": 2,
                                        "order": 2
                                    }
                                ],
                                "depth": 1,
                                "id": 1,
                                "order": 1
                            },
                            {
                                "children": [
                                    {
                                        "children": [],
                                        "depth": 2,
                                        "id": 4,
                                        "order": 4
                                    }
                                ],
                                "depth": 1,
                                "id": 3,
                                "order": 3
                            },
                            {
                                "children": [],
                                "depth": 1,
                                "id": 5,
                                "order": 5
                            },
                            {
                                "children": [],
                                "depth": 1,
                                "id": 6,
                                "order": 6
                            },
                            {
                                "children": [],
                                "depth": 1,
                                "id": 7,
                                "order": 7
                            },
                            {
                                "children": [
                                    {
                                        "children": [
                                            {
                                                "children": [],
                                                "depth": 3,
                                                "id": 10,
                                                "order": 10
                                            },
                                            {
                                                "children": [],
                                                "depth": 3,
                                                "id": 11,
                                                "order": 11
                                            }
                                        ],
                                        "depth": 2,
                                        "id": 9,
                                        "order": 9
                                    },
                                    {
                                        "children": [],
                                        "depth": 2,
                                        "id": 12,
                                        "order": 12
                                    },
                                    {
                                        "children": [],
                                        "depth": 2,
                                        "id": 13,
                                        "order": 13
                                    },
                                    {
                                        "children": [],
                                        "depth": 2,
                                        "id": 14,
                                        "order": 14
                                    },
                                    {
                                        "children": [],
                                        "depth": 2,
                                        "id": 15,
                                        "order": 15
                                    }
                                ],
                                "depth": 1,
                                "id": 8,
                                "order": 8
                            },
                            {
                                "children": [],
                                "depth": 1,
                                "id": 16,
                                "order": 16
                            }
                        ],
                        "depth": 0,
                        "id": 0,
                        "order": 0
                    }
                ],
                "depth": -1,
                "id": -1,
                "order": -1
            }
        ],
        "mainTraceNodeCount": 17,
        "parentIdMap": {
            "0": -1,
            "1": 0,
            "10": 9,
            "11": 9,
            "12": 8,
            "13": 8,
            "14": 8,
            "15": 8,
            "16": 0,
            "2": 1,
            "3": 0,
            "4": 3,
            "5": 0,
            "6": 0,
            "7": 0,
            "8": 0,
            "9": 8
        },
        "tidyTrace": [
            {
                "children": [
                    {
                        "children": [
                            {
                                "children": [
                                    {
                                        "children": [],
                                        "depth": 2,
                                        "id": 2,
                                        "order": 2
                                    }
                                ],
                                "depth": 1,
                                "id": 1,
                                "order": 1
                            },
                            {
                                "children": [
                                    {
                                        "children": [],
                                        "depth": 2,
                                        "id": 4,
                                        "order": 4
                                    }
                                ],
                                "depth": 1,
                                "id": 3,
                                "order": 3
                            },
                            {
                                "children": [
                                    {
                                        "children": [
                                            {
                                                "children": [],
                                                "depth": 3,
                                                "id": 10,
                                                "order": 10
                                            },
                                            {
                                                "children": [],
                                                "depth": 3,
                                                "id": 11,
                                                "order": 11
                                            }
                                        ],
                                        "depth": 2,
                                        "id": 9,
                                        "order": 9
                                    },
                                    {
                                        "children": [],
                                        "depth": 2,
                                        "id": 14,
                                        "order": 14
                                    },
                                    {
                                        "children": [],
                                        "depth": 2,
                                        "id": 15,
                                        "order": 15
                                    }
                                ],
                                "depth": 1,
                                "id": 8,
                                "order": 8
                            }
                        ],
                        "depth": 0,
                        "id": 0,
                        "order": 0
                    }
                ],
                "depth": -1,
                "id": -1,
                "order": -1
            }
        ],
        "tidyTraceNodeCount": 11
    },
    "state_change": {
        "stateChanges": [
            {
                "address": "0x414ee84282dc172991071268fbd05bd855d70005",
                "erc": "ERC-20",
                "slots": [
                    {
                        "current": "0x64d4812f000000000000c7590ca70d1136a900000000000009f74278df7eb3de",
                        "key": "0x0000000000000000000000000000000000000000000000000000000000000008",
                        "prev": "0x64d4812f000000000000c5f8f9ba43d376a90000000000000a08ee03c5c59d31"
                    }
                ],
                "storageVariables": [
                    {
                        "name": "reserve0",
                        "type": "uint112",
                        "value": {
                            "current": "718115752502014942",
                            "prev": "723089440163339569",
                            "typeTag": 1
                        }
                    },
                    {
                        "name": "reserve1",
                        "type": "uint112",
                        "value": {
                            "current": "14364526398093211305",
                            "prev": "14265426398093211305",
                            "typeTag": 1
                        }
                    },
                    {
                        "name": "blockTimestampLast",
                        "type": "uint32",
                        "value": {
                            "current": "1691648303",
                            "prev": "1691648303",
                            "typeTag": 1
                        }
                    }
                ]
            },
            {
                "address": "0xbcd657377d4086cc582b215294c3611b997ef1be",
                "erc": "ERC-20",
                "slots": [
                    {
                        "current": "0x00000000000000000000000000000000000000000000000000b7dbf941e88d17",
                        "key": "0xd06e6ae2899474788cb7ffacdf49a216a54d9e64c1297864c0bfbe0367847fb7",
                        "prev": "0x00000000000000000000000000000000000000000000000000a7129bb3f1fc3b"
                    },
                    {
                        "current": "0x000000000000000000000000000000000000000000000000000000000000082c",
                        "key": "0x000000000000000000000000000000000000000000000000000000000000000d",
                        "prev": "0x000000000000000000000000000000000000000000000000000000000000082b"
                    },
                    {
                        "current": "0x00000000000000000000000000000000000000000000000001e69e6e7b80ffc6",
                        "key": "0x1b21e1598a2d7409376f1cae844808be00aa43ff7a153efde6ea8d409c06845a",
                        "prev": "0x00000000000000000000000000000000000000000000000001e5bc412330a74f"
                    },
                    {
                        "current": "0x00000000000000000000000000000000000000000000000009f74278df7eb3de",
                        "key": "0x7498ca433facc52be894f7cd9c90507682d0b3c2788182d7ba3ef612c8227c62",
                        "prev": "0x0000000000000000000000000000000000000000000000000a08ee03c5c59d31"
                    }
                ],
                "storageVariables": [
                    {
                        "name": "_balances",
                        "type": "mapping(address => uint256)",
                        "value": {
                            "pairs": [
                                {
                                    "key": "0x414ee84282dc172991071268fbd05bd855d70005",
                                    "value": {
                                        "current": "718115752502014942",
                                        "prev": "723089440163339569",
                                        "typeTag": 1
                                    }
                                },
                                {
                                    "key": "0xbcd657377d4086cc582b215294c3611b997ef1be",
                                    "value": {
                                        "current": "136971036037021638",
                                        "prev": "136722351653955407",
                                        "typeTag": 1
                                    }
                                },
                                {
                                    "key": "0xcd813cea279bd18873b8f4d629ce9220d07c1064",
                                    "value": {
                                        "current": "51751784337149207",
                                        "prev": "47026781058890811",
                                        "typeTag": 1
                                    }
                                }
                            ],
                            "typeTag": 4
                        }
                    },
                    {
                        "name": "_buyCount",
                        "type": "uint256",
                        "value": {
                            "current": "2092",
                            "prev": "2091",
                            "typeTag": 1
                        }
                    }
                ]
            },
            {
                "address": "0xc02aaa39b223fe8d0a0e5c4f27ead9083c756cc2",
                "erc": "ERC-20",
                "slots": [
                    {
                        "current": "0x000000000000000000000000000000000000000000000000c7590ca70d1136a9",
                        "key": "0x8f7e930fff9af13f05c31fd421be55a238806988e87609d0a55cb9cf9158acf8",
                        "prev": "0x000000000000000000000000000000000000000000000000c5f8f9ba43d376a9"
                    }
                ],
                "storageVariables": [
                    {
                        "name": "balanceOf",
                        "type": "mapping(address => uint256)",
                        "value": {
                            "pairs": [
                                {
                                    "key": "0x414ee84282dc172991071268fbd05bd855d70005",
                                    "value": {
                                        "current": "14364526398093211305",
                                        "prev": "14265426398093211305",
                                        "typeTag": 1
                                    }
                                }
                            ],
                            "typeTag": 4
                        }
                    }
                ]
            }
        ]
    }
}