{
    "balance_change": {
        "balanceChanges": [
            {
                "account": "0x270d92abf5642cde26ee23f0d6d1caa565f74e23",
                "assets": [
                    {
                        "address": "0xc81774fd1b51bc7e26b2bad562dcdb0a2cbebaf2",
                        "amount": "508.1",
                        "iconUrl": "",
                        "isERC1155": false,
                        "isERC721": false,
                        "sign": false,
                        "value": ""
                    }
                ]
            },
            {
                "account": "0xb02be5e64ce5520bbf8664f6b78dfd2f2d79aa88",
                "assets": [
                    {
                        "address": "0xc81774fd1b51bc7e26b2bad562dcdb0a2cbebaf2",
                        "amount": "508.1",
                        "iconUrl": "",
                        "isERC1155": false,
                        "isERC721": false,
                        "sign": true,
                        "value": ""
                    }
                ]
            }
        ]
    },
    "profile": {
        "basic_info": {
            "baseFee": "",
            "blockNumber": 5638668,
            "callData": "0xa9059cbb000000000000000000000000b02be5e64ce5520bbf8664f6b78dfd2f2d79aa8800000000000000000000000000000000000000000000001b8b4dd1f887fa0000",
            "debugEnable": true,
            "errorInfo": "",
            "eventCount": 1,
            "feeRecipient": "0x5a0b54d5dc17e0aadc383d2db43b0a0d3e029c4c",
            "formatValue": "0",
            "gasLimit": 60000,
            "gasPrice": "9",
            "gasUsed": 22041,
            "intTxnCount": 0,
            "internalRevert": false,
            "internalRevertMessage": "",
            "isContractCreation": false,
            "isFlashloan": false,
            "maxFee": "",
            "nonce": 13,
            "overwritedBlockNumber": -1,
            "priorityFee": "",
            "receiver": "0xc81774fd1b51bc7e26b2bad562dcdb0a2cbebaf2",
            "revertMessage": "",
            "sender": "0x270d92abf5642cde26ee23f0d6d1caa565f74e23",
            "simulationEnable": true,
            "sourceTxnHash": "0xace7cf03efb6699f86aad95365453e4e1dcb31ac2a5de338bc963d814fca55d3",
            "status": true,
            "timestamp": "2018-05-19T04:26:45Z",
            "transactionFee": "0.000198369",
            "txnHash": "0xace7cf03efb6699f86aad95365453e4e1dcb31ac2a5de338bc963d814fca55d3",
            "txnIndex": 53,
            "type": 0,
            "value": "0"
        },
        "fund_flow": [
            {
                "amount": "508.1",
                "from": "0x270d92abf5642cde26ee23f0d6d1caa565f74e23",
                "id": 1,
                "isERC1155": false,
                "isERC721": false,
                "isReverted": false,
                "order": 1,
                "to": "0xb02be5e64ce5520bbf8664f6b78dfd2f2d79aa88",
                "token": "0xc81774fd1b51bc7e26b2bad562dcdb0a2cbebaf2"
            }
        ],
        "token_infos": [
            {
                "address": "0xc02aaa39b223fe8d0a0e5c4f27ead9083c756cc2",
                "decimals": 18
            },
            {
                "address": "0xc81774fd1b51bc7e26b2bad562dcdb0a2cbebaf2",
                "decimals": 18
            },
            {
                "address": "0xeeeeeeeeeeeeeeeeeeeeeeeeeeeeeeeeeeeeeeee",
                "decimals": 18
            }
        ]
    },
    "address_label": {
        "labels": [
            {
                "address": "0xc81774fd1b51bc7e26b2bad562dcdb0a2cbebaf2",
                "label": "Drem"
            },
            {
                "address": "0x0000000000000000000000000000000000000001",
                "label": "Precompiled"
            },
            {
                "address": "0x0000000000000000000000000000000000000002",
                "label": "Precompiled"
            },
            {
                "address": "0x0000000000000000000000000000000000000003",
                "label": "Precompiled"
            },
            {
                "address": "0x0000000000000000000000000000000000000004",
                "label": "Precompiled"
            },
            {
                "address": "0xeeeeeeeeeeeeeeeeeeeeeeeeeeeeeeeeeeeeeeee",
                "label": "Ether"
            }
        ]
    },
    "trace": {
        "accountLabels": null,
        "dataMap": {
            "-1": {
                "invocation": {
                    "address": "0x270d92abf5642cde26ee23f0d6d1caa565f74e23",
                    "callData": "",
                    "decodedMethod": null,
                    "errorInfo": "",
                    "fromAddress": "",
                    "gasUsed": 0,
                    "id": -1,
                    "methodDecoded": false,
                    "operation": "",
                    "output": "",
                    "revert": false,
                    "revertMessage": "",
                    "selector": "",
                    "status": false,
                    "value": ""
                },
                "nodeType": 0
            },
            "0": {
                "invocation": {
                    "address": "0xc81774fd1b51bc7e26b2bad562dcdb0a2cbebaf2",
                    "callData": "0x000000000000000000000000b02be5e64ce5520bbf8664f6b78dfd2f2d79aa8800000000000000000000000000000000000000000000001b8b4dd1f887fa0000",
                    "decodedMethod": {
                        "callParams": [
                            {
                                "name": "_to",
                                "type": "address",
                                "value": "0xb02be5e64ce5520bbf8664f6b78dfd2f2d79aa88"
                            },
                            {
                                "decimalAvailable": true,
                                "name": "_value",
                                "type": "uint256",
                                "value": "508,100,000,000,000,000,000"
                            }
                        ],
                        "constructorArguments": "",
                        "name": "transfer",
                        "returnParams": [
                            {
                                "name": "",
                                "type": "bool",
                                "value": true
                            }
                        ],
                        "signature": "transfer(address,uint256)"
                    },
                    "errorInfo": "",
                    "fromAddress": "0x270d92abf5642cde26ee23f0d6d1caa565f74e23",
                    "gasUsed": 22041,
                    "id": 0,
                    "methodDecoded": true,
                    "operation": "CALL",
                    "output": "0x0000000000000000000000000000000000000000000000000000000000000001",
                    "revert": false,
                    "revertMessage": "",
                    "selector": "0xa9059cbb",
                    "status": true,
                    "value": "0"
                },
                "nodeType": 0
            },
            "1": {
                "event": {
                    "contract": "0xc81774fd1b51bc7e26b2bad562dcdb0a2cbebaf2",
                    "decodedLog": {
                        "name": "Transfer",
                        "params": [
                            {
                                "name": "from",
                                "type": "address",
                                "value": "0x270d92abf5642cde26ee23f0d6d1caa565f74e23"
                            },
                            {
                                "name": "to",
                                "type": "address",
                                "value": "0xb02be5e64ce5520bbf8664f6b78dfd2f2d79aa88"
                            },
                            {
                                "decimalAvailable": true,
                                "name": "value",
                                "type": "uint256",
                                "value": "508,100,000,000,000,000,000"
                            }
                        ],
                        "signature": "Transfer(address,address,uint256)"
                    },
                    "id": 1,
                    "logData": "0x00000000000000000000000000000000000000000000001b8b4dd1f887fa0000",
                    "logDecoded": true,
                    "operation": "EVENT",
                    "revert": false,
                    "status": true,
                    "topics": [
                        "0xddf252ad1be2c89b69c2b068fc378daa952ba7f163c4a11628f55a4df523b3ef",
                        "0x000000000000000000000000270d92abf5642cde26ee23f0d6d1caa565f74e23",
                        "0x000000000000000000000000b02be5e64ce5520bbf8664f6b78dfd2f2d79aa88"
                    ]
                },
                "nodeType": 1
            }
        },
        "gasFlame": [
            {
                "children": [
                    {
                        "children": [
                            {
                                "children": [],
                                "depth": 0,
                                "name": "Initial Gas",
                                "value": 23256
                            },
                            {
                                "children": [],
                                "depth": 0,
                                "name": "Executed Gas",
                                "value": 13785
                            }
                        ],
                        "depth": -1,
                        "name": "Actual Gas Used",
                        "value": 22041
                    },
                    {
                        "children": [],
                        "depth": -1,
                        "name": "Refunded Gas",
                        "value": 15000
                    }
                ],
                "depth": -2,
                "name": "Total Gas",
                "value": 37041
            }
        ],
        "isConfirmed": true,
        "mainTrace": [
            {
                "children": [
                    {
                        "children": [
                            {
                                "children": [],
                                "depth": 1,
                                "id": 1,
                                "order": 1
                            }
                        ],
                        "depth": 0,
                        "id": 0,
                        "order": 0
                    }
                ],
                "depth": -1,
                "id": -1,
                "order": -1
            }
        ],
        "mainTraceNodeCount": 2,
        "parentIdMap": {
            "0": -1,
            "1": 0
        },
        "tidyTrace": [
            {
                "children": [
                    {
                        "children": [
                            {
                                "children": [],
                                "depth": 1,
                                "id": 1,
                                "order": 1
                            }
                        ],
                        "depth": 0,
                        "id": 0,
                        "order": 0
                    }
                ],
                "depth": -1,
                "id": -1,
                "order": -1
            }
        ],
        "tidyTraceNodeCount": 2
    },
    "state_change": {
        "stateChanges": [
            {
                "address": "0xc81774fd1b51bc7e26b2bad562dcdb0a2cbebaf2",
                "erc": "ERC-20",
                "slots": [
                    {
                        "current": "0x000000000000000000000000000000000000000000001f6fe021e292e38e0000",
                        "key": "0xc2f681ccb41ad2285e757e97095edbe8c02909b134040823572bb60cabc2f8b7",
                        "prev": "0x000000000000000000000000000000000000000000001f5454d4109a5b940000"
                    },
                    {
                        "current": "0x0000000000000000000000000000000000000000000000000000000000000000",
                        "key": "0xeba76aed2cbf5020f89f524d75a5e3f0a2de081e45c788b73e65b3e84a687a49",
                        "prev": "0x00000000000000000000000000000000000000000000001b8b4dd1f887fa0000"
                    }
                ],
                "storageVariables": [
                    {
                        "name": "balances",
                        "type": "mapping(address => uint256)",
                        "value": {
                            "pairs": [
                                {
                                    "key": "0x270d92abf5642cde26ee23f0d6d1caa565f74e23",
                                    "value": {
                                        "current": "0",
                                        "prev": "508100000000000000000",
                                        "typeTag": 1
                                    }
                                },
                                {
                                    "key": "0xb02be5e64ce5520bbf8664f6b78dfd2f2d79aa88",
                                    "value": {
                                        "current": "148457100000000000000000",
                                        "prev": "147949000000000000000000",
                                        "typeTag": 1
                                    }
                                }
                            ],
                            "typeTag": 4
                        }
                    }
                ]
            }
        ]
    }
}