{
    "balance_change": {
        "balanceChanges": [
            {
                "account": "0x07f7e9bb67ab63cb2ba93972e214194f70426650",
                "assets": [
                    {
                        "address": "0xa15c7ebe1f07caf6bff097d8a589fb8ac49ae5b3",
                        "amount": "34,129,417.992090360745676499",
                        "iconUrl": "",
                        "isERC1155": false,
                        "isERC721": false,
                        "sign": false,
                        "value": ""
                    }
                ]
            },
            {
                "account": "0x8726c55b11cf69cb4515c69cf40403e2f47f091f",
                "assets": [
                    {
                        "address": "0xa15c7ebe1f07caf6bff097d8a589fb8ac49ae5b3",
                        "amount": "34,129,417.992090360745676499",
                        "iconUrl": "",
                        "isERC1155": false,
                        "isERC721": false,
                        "sign": true,
                        "value": ""
                    }
                ]
            }
        ]
    },
    "profile": {
        "basic_info": {
            "baseFee": "",
            "blockNumber": 8215802,
            "callData": "0xa9059cbb0000000000000000000000008726c55b11cf69cb4515c69cf40403e2f47f091f0000000000000000000000000000000000000000001c3b2f74e5ffd57bd9ced3",
            "debugEnable": true,
            "errorInfo": "",
            "eventCount": 1,
            "feeRecipient": "0xea674fdde714fd979de3edf0f56aa9716b898ec8",
            "formatValue": "0",
            "gasLimit": 53165,
            "gasPrice": "6.3",
            "gasUsed": 38165,
            "intTxnCount": 0,
            "internalRevert": false,
            "internalRevertMessage": "",
            "isContractCreation": false,
            "isFlashloan": false,
            "maxFee": "",
            "nonce": 9,
            "overwritedBlockNumber": -1,
            "priorityFee": "",
            "receiver": "0xa15c7ebe1f07caf6bff097d8a589fb8ac49ae5b3",
            "revertMessage": "",
            "sender": "0x07f7e9bb67ab63cb2ba93972e214194f70426650",
            "simulationEnable": true,
            "sourceTxnHash": "0xac3e76dac198e04ae2cdcc5aa1f430a2bd93f4faaaf5f7755c844f2620ba99f8",
            "status": true,
            "timestamp": "2019-07-24T21:26:10Z",
            "transactionFee": "0.0002404395",
            "txnHash": "0xac3e76dac198e04ae2cdcc5aa1f430a2bd93f4faaaf5f7755c844f2620ba99f8",
            "txnIndex": 24,
            "type": 0,
            "value": "0"
        },
        "fund_flow": [
            {
                "amount": "34,129,417.992090360745676499",
                "from": "0x07f7e9bb67ab63cb2ba93972e214194f70426650",
                "id": 1,
                "isERC1155": false,
                "isERC721": false,
                "isReverted": false,
                "order": 1,
                "to": "0x8726c55b11cf69cb4515c69cf40403e2f47f091f",
                "token": "0xa15c7ebe1f07caf6bff097d8a589fb8ac49ae5b3"
            }
        ],
        "token_infos": [
            {
                "address": "0xeeeeeeeeeeeeeeeeeeeeeeeeeeeeeeeeeeeeeeee",
                "decimals": 18
            },
            {
                "address": "0xa15c7ebe1f07caf6bff097d8a589fb8ac49ae5b3",
                "decimals": 18
            },
            {
                "address": "0xc02aaa39b223fe8d0a0e5c4f27ead9083c756cc2",
                "decimals": 18
            }
        ]
    },
    "address_label": {
        "labels": [
            {
                "address": "0xa15c7ebe1f07caf6bff097d8a589fb8ac49ae5b3",
                "label": "Pundi X: Old NPXS Token"
            },
            {
                "address": "0x0000000000000000000000000000000000000001",
                "label": "Precompiled"
            },
            {
                "address": "0x0000000000000000000000000000000000000002",
                "label": "Precompiled"
            },
            {
                "address": "0x0000000000000000000000000000000000000003",
                "label": "Precompiled"
            },
            {
                "address": "0x0000000000000000000000000000000000000004",
                "label": "Precompiled"
            },
            {
                "address": "0xeeeeeeeeeeeeeeeeeeeeeeeeeeeeeeeeeeeeeeee",
                "label": "Ether"
            }
        ]
    },
    "trace": {
        "accountLabels": null,
        "dataMap": {
            "-1": {
                "invocation": {
                    "address": "0x07f7e9bb67ab63cb2ba93972e214194f70426650",
                    "callData": "",
                    "decodedMethod": null,
                    "errorInfo": "",
                    "fromAddress": "",
                    "gasUsed": 0,
                    "id": -1,
                    "methodDecoded": false,
                    "operation": "",
                    "output": "",
                    "revert": false,
                    "revertMessage": "",
                    "selector": "",
                    "status": false,
                    "value": ""
                },
                "nodeType": 0
            },
            "0": {
                "invocation": {
                    "address": "0xa15c7ebe1f07caf6bff097d8a589fb8ac49ae5b3",
                    "callData": "0x0000000000000000000000008726c55b11cf69cb4515c69cf40403e2f47f091f0000000000000000000000000000000000000000001c3b2f74e5ffd57bd9ced3",
                    "decodedMethod": {
                        "callParams": [
                            {
                                "name": "_to",
                                "type": "address",
                                "value": "0x8726c55b11cf69cb4515c69cf40403e2f47f091f"
                            },
                            {
                                "decimalAvailable": true,
                                "name": "_value",
                                "type": "uint256",
                                "value": "34,129,417,992,090,360,745,676,499"
                            }
                        ],
                        "constructorArguments": "",
                        "name": "transfer",
                        "returnParams": [
                            {
                                "name": "",
                                "type": "bool",
                                "value": true
                            }
                        ],
                        "signature": "transfer(address,uint256)"
                    },
                    "errorInfo": "",
                    "fromAddress": "0x07f7e9bb67ab63cb2ba93972e214194f70426650",
                    "gasUsed": 38165,
                    "id": 0,
                    "methodDecoded": true,
                    "operation": "CALL",
                    "output": "0x0000000000000000000000000000000000000000000000000000000000000001",
                    "revert": false,
                    "revertMessage": "",
                    "selector": "0xa9059cbb",
                    "status": true,
                    "value": "0"
                },
                "nodeType": 0
            },
            "1": {
                "event": {
                    "contract": "0xa15c7ebe1f07caf6bff097d8a589fb8ac49ae5b3",
                    "decodedLog": {
                        "name": "Transfer",
                        "params": [
                            {
                                "name": "from",
                                "type": "address",
                                "value": "0x07f7e9bb67ab63cb2ba93972e214194f70426650"
                            },
                            {
                                "name": "to",
                                "type": "address",
                                "value": "0x8726c55b11cf69cb4515c69cf40403e2f47f091f"
                            },
                            {
                                "decimalAvailable": true,
                                "name": "value",
                                "type": "uint256",
                                "value": "34,129,417,992,090,360,745,676,499"
                            }
                        ],
                        "signature": "Transfer(address,address,uint256)"
                    },
                    "id": 1,
                    "logData": "0x0000000000000000000000000000000000000000001c3b2f74e5ffd57bd9ced3",
                    "logDecoded": true,
                    "operation": "EVENT",
                    "revert": false,
                    "status": true,
                    "topics": [
                        "0xddf252ad1be2c89b69c2b068fc378daa952ba7f163c4a11628f55a4df523b3ef",
                        "0x00000000000000000000000007f7e9bb67ab63cb2ba93972e214194f70426650",
                        "0x0000000000000000000000008726c55b11cf69cb4515c69cf40403e2f47f091f"
                    ]
                },
                "nodeType": 1
            }
        },
        "gasFlame": [
            {
                "children": [
                    {
                        "children": [
                            {
                                "children": [],
                                "depth": 0,
                                "name": "Initial Gas",
                                "value": 23512
                            },
                            {
                                "children": [],
                                "depth": 0,
                                "name": "Executed Gas",
                                "value": 29653
                            }
                        ],
                        "depth": -1,
                        "name": "Actual Gas Used",
                        "value": 38165
                    },
                    {
                        "children": [],
                        "depth": -1,
                        "name": "Refunded Gas",
                        "value": 15000
                    }
                ],
                "depth": -2,
                "name": "Total Gas",
                "value": 53165
            }
        ],
        "isConfirmed": true,
        "mainTrace": [
            {
                "children": [
                    {
                        "children": [
                            {
                                "children": [],
                                "depth": 1,
                                "id": 1,
                                "order": 1
                            }
                        ],
                        "depth": 0,
                        "id": 0,
                        "order": 0
                    }
                ],
                "depth": -1,
                "id": -1,
                "order": -1
            }
        ],
        "mainTraceNodeCount": 2,
        "parentIdMap": {
            "0": -1,
            "1": 0
        },
        "tidyTrace": [
            {
                "children": [
                    {
                        "children": [
                            {
                                "children": [],
                                "depth": 1,
                                "id": 1,
                                "order": 1
                            }
                        ],
                        "depth": 0,
                        "id": 0,
                        "order": 0
                    }
                ],
                "depth": -1,
                "id": -1,
                "order": -1
            }
        ],
        "tidyTraceNodeCount": 2
    },
    "state_change": {
        "stateChanges": [
            {
                "address": "0xa15c7ebe1f07caf6bff097d8a589fb8ac49ae5b3",
                "erc": "ERC-20",
                "slots": [
                    {
                        "current": "0x0000000000000000000000000000000000000000000000000000000000000000",
                        "key": "0xcc1c70e9f685d58b9e702c200c442e1a816fbc1228a68b59e34fcc2ef5ff653d",
                        "prev": "0x0000000000000000000000000000000000000000001c3b2f74e5ffd57bd9ced3"
                    },
                    {
                        "current": "0x0000000000000000000000000000000000000000001c3b2f74e5ffd57bd9ced3",
                        "key": "0x4e0077345bf7bc0fa085ffec098261c81ff55e9ec1bb23819d2888f7e5e47d80",
                        "prev": "0x0000000000000000000000000000000000000000000000000000000000000000"
                    }
                ],
                "storageVariables": [
                    {
                        "name": "balances",
                        "type": "mapping(address => uint256)",
                        "value": {
                            "pairs": [
                                {
                                    "key": "0x07f7e9bb67ab63cb2ba93972e214194f70426650",
                                    "value": {
                                        "current": "0",
                                        "prev": "34129417992090360745676499",
                                        "typeTag": 1
                                    }
                                },
                                {
                                    "key": "0x8726c55b11cf69cb4515c69cf40403e2f47f091f",
                                    "value": {
                                        "current": "34129417992090360745676499",
                                        "prev": "0",
                                        "typeTag": 1
                                    }
                                }
                            ],
                            "typeTag": 4
                        }
                    }
                ]
            }
        ]
    }
}