{
    "balance_change": {
        "balanceChanges": [
            {
                "account": "0x1579b5f6582c7a04f5ffeec683c13008c4b0a520",
                "assets": [
                    {
                        "address": "0x4d224452801aced8b2f0aebe155379bb5d594381",
                        "amount": "6,308.770648",
                        "iconUrl": "https://assets.blocksec.com/icon/2edd169b33ddc44d0c2362c907ae50b3b0aed7e6e08bf6f72599647136aeddd0.png",
                        "isERC1155": false,
                        "isERC721": false,
                        "sign": false,
                        "value": "43054.5001"
                    }
                ]
            },
            {
                "account": "0xa06d904edc8d04a980074cf9cae79a13f9efd20e",
                "assets": [
                    {
                        "address": "0x4d224452801aced8b2f0aebe155379bb5d594381",
                        "amount": "6,308.770648",
                        "iconUrl": "https://assets.blocksec.com/icon/2edd169b33ddc44d0c2362c907ae50b3b0aed7e6e08bf6f72599647136aeddd0.png",
                        "isERC1155": false,
                        "isERC721": false,
                        "sign": true,
                        "value": "43054.5001"
                    }
                ]
            }
        ]
    },
    "profile": {
        "basic_info": {
            "baseFee": "28.465060653",
            "blockNumber": 15264089,
            "callData": "0xa9059cbb000000000000000000000000a06d904edc8d04a980074cf9cae79a13f9efd20e000000000000000000000000000000000000000000000155ffc7c70e7aed8000",
            "debugEnable": true,
            "errorInfo": "",
            "eventCount": 1,
            "feeRecipient": "0xea674fdde714fd979de3edf0f56aa9716b898ec8",
            "formatValue": "0",
            "gasLimit": 41425,
            "gasPrice": "31.649060653",
            "gasUsed": 34521,
            "intTxnCount": 0,
            "internalRevert": false,
            "internalRevertMessage": "",
            "isContractCreation": false,
            "isFlashloan": false,
            "maxFee": "52.854781988",
            "nonce": 17225,
            "overwritedBlockNumber": -1,
            "priorityFee": "3.184",
            "receiver": "0x4d224452801aced8b2f0aebe155379bb5d594381",
            "revertMessage": "",
            "sender": "0x1579b5f6582c7a04f5ffeec683c13008c4b0a520",
            "simulationEnable": true,
            "sourceTxnHash": "0xac20a725eb5baf88ba178f466ebda6f3ed76cba9bca9b1ef2a2f0f5033b38847",
            "status": true,
            "timestamp": "2022-08-02T16:11:16Z",
            "transactionFee": "0.001092557222802213",
            "txnHash": "0xac20a725eb5baf88ba178f466ebda6f3ed76cba9bca9b1ef2a2f0f5033b38847",
            "txnIndex": 30,
            "type": 2,
            "value": "0"
        },
        "fund_flow": [
            {
                "amount": "6,308.770648",
                "from": "0x1579b5f6582c7a04f5ffeec683c13008c4b0a520",
                "id": 1,
                "isERC1155": false,
                "isERC721": false,
                "isReverted": false,
                "order": 1,
                "to": "0xa06d904edc8d04a980074cf9cae79a13f9efd20e",
                "token": "0x4d224452801aced8b2f0aebe155379bb5d594381"
            }
        ],
        "token_infos": [
            {
                "address": "0x4d224452801aced8b2f0aebe155379bb5d594381",
                "decimals": 18
            },
            {
                "address": "0xc02aaa39b223fe8d0a0e5c4f27ead9083c756cc2",
                "decimals": 18
            },
            {
                "address": "0xeeeeeeeeeeeeeeeeeeeeeeeeeeeeeeeeeeeeeeee",
                "decimals": 18
            }
        ]
    },
    "address_label": {
        "labels": [
            {
                "address": "0x0000000000000000000000000000000000000003",
                "label": "Precompiled"
            },
            {
                "address": "0x0000000000000000000000000000000000000004",
                "label": "Precompiled"
            },
            {
                "address": "0xeeeeeeeeeeeeeeeeeeeeeeeeeeeeeeeeeeeeeeee",
                "label": "Ether"
            },
            {
                "address": "0x4d224452801aced8b2f0aebe155379bb5d594381",
                "label": "Apecoin: APE Token"
            },
            {
                "address": "0x1579b5f6582c7a04f5ffeec683c13008c4b0a520",
                "label": "Bitkub: Hot Wallet 4"
            },
            {
                "address": "0x0000000000000000000000000000000000000001",
                "label": "Precompiled"
            },
            {
                "address": "0x0000000000000000000000000000000000000002",
                "label": "Precompiled"
            }
        ]
    },
    "trace": {
        "accountLabels": null,
        "dataMap": {
            "-1": {
                "invocation": {
                    "address": "0x1579b5f6582c7a04f5ffeec683c13008c4b0a520",
                    "callData": "",
                    "decodedMethod": null,
                    "errorInfo": "",
                    "fromAddress": "",
                    "gasUsed": 0,
                    "id": -1,
                    "methodDecoded": false,
                    "operation": "",
                    "output": "",
                    "revert": false,
                    "revertMessage": "",
                    "selector": "",
                    "status": false,
                    "value": ""
                },
                "nodeType": 0
            },
            "0": {
                "invocation": {
                    "address": "0x4d224452801aced8b2f0aebe155379bb5d594381",
                    "callData": "0x000000000000000000000000a06d904edc8d04a980074cf9cae79a13f9efd20e000000000000000000000000000000000000000000000155ffc7c70e7aed8000",
                    "decodedMethod": {
                        "callParams": [
                            {
                                "name": "recipient",
                                "type": "address",
                                "value": "0xa06d904edc8d04a980074cf9cae79a13f9efd20e"
                            },
                            {
                                "decimalAvailable": true,
                                "name": "amount",
                                "type": "uint256",
                                "value": "6,308,770,648,000,000,000,000"
                            }
                        ],
                        "constructorArguments": "",
                        "name": "transfer",
                        "returnParams": [
                            {
                                "name": "",
                                "type": "bool",
                                "value": true
                            }
                        ],
                        "signature": "transfer(address,uint256)"
                    },
                    "errorInfo": "",
                    "fromAddress": "0x1579b5f6582c7a04f5ffeec683c13008c4b0a520",
                    "gasUsed": 34521,
                    "id": 0,
                    "methodDecoded": true,
                    "operation": "CALL",
                    "output": "0x0000000000000000000000000000000000000000000000000000000000000001",
                    "revert": false,
                    "revertMessage": "",
                    "selector": "0xa9059cbb",
                    "status": true,
                    "value": "0"
                },
                "nodeType": 0
            },
            "1": {
                "event": {
                    "contract": "0x4d224452801aced8b2f0aebe155379bb5d594381",
                    "decodedLog": {
                        "name": "Transfer",
                        "params": [
                            {
                                "name": "from",
                                "type": "address",
                                "value": "0x1579b5f6582c7a04f5ffeec683c13008c4b0a520"
                            },
                            {
                                "name": "to",
                                "type": "address",
                                "value": "0xa06d904edc8d04a980074cf9cae79a13f9efd20e"
                            },
                            {
                                "decimalAvailable": true,
                                "name": "value",
                                "type": "uint256",
                                "value": "6,308,770,648,000,000,000,000"
                            }
                        ],
                        "signature": "Transfer(address,address,uint256)"
                    },
                    "id": 1,
                    "logData": "0x000000000000000000000000000000000000000000000155ffc7c70e7aed8000",
                    "logDecoded": true,
                    "operation": "EVENT",
                    "revert": false,
                    "status": true,
                    "topics": [
                        "0xddf252ad1be2c89b69c2b068fc378daa952ba7f163c4a11628f55a4df523b3ef",
                        "0x0000000000000000000000001579b5f6582c7a04f5ffeec683c13008c4b0a520",
                        "0x000000000000000000000000a06d904edc8d04a980074cf9cae79a13f9efd20e"
                    ]
                },
                "nodeType": 1
            }
        },
        "gasFlame": [
            {
                "children": [
                    {
                        "children": [
                            {
                                "children": [],
                                "depth": 0,
                                "name": "Initial Gas",
                                "value": 21668
                            },
                            {
                                "children": [],
                                "depth": 0,
                                "name": "Executed Gas",
                                "value": 12853
                            }
                        ],
                        "depth": -1,
                        "name": "Actual Gas Used",
                        "value": 34521
                    },
                    {
                        "children": [],
                        "depth": -1,
                        "name": "Refunded Gas",
                        "value": 0
                    }
                ],
                "depth": -2,
                "name": "Total Gas",
                "value": 34521
            }
        ],
        "isConfirmed": true,
        "mainTrace": [
            {
                "children": [
                    {
                        "children": [
                            {
                                "children": [],
                                "depth": 1,
                                "id": 1,
                                "order": 1
                            }
                        ],
                        "depth": 0,
                        "id": 0,
                        "order": 0
                    }
                ],
                "depth": -1,
                "id": -1,
                "order": -1
            }
        ],
        "mainTraceNodeCount": 2,
        "parentIdMap": {
            "0": -1,
            "1": 0
        },
        "tidyTrace": [
            {
                "children": [
                    {
                        "children": [
                            {
                                "children": [],
                                "depth": 1,
                                "id": 1,
                                "order": 1
                            }
                        ],
                        "depth": 0,
                        "id": 0,
                        "order": 0
                    }
                ],
                "depth": -1,
                "id": -1,
                "order": -1
            }
        ],
        "tidyTraceNodeCount": 2
    },
    "state_change": {
        "stateChanges": [
            {
                "address": "0x4d224452801aced8b2f0aebe155379bb5d594381",
                "erc": "ERC-20",
                "slots": [
                    {
                        "current": "0x000000000000000000000000000000000000000000003988c33aafd152ee406f",
                        "key": "0xcc8bf8811c50053fb120d906cb114e3dfd4d18b24d7fb352ef9f656bd7324898",
                        "prev": "0x000000000000000000000000000000000000000000003adec30276dfcddbc06f"
                    },
                    {
                        "current": "0x000000000000000000000000000000000000000000000155ffc7c70e7aed8001",
                        "key": "0x09fe21021a322fdfc893b761883199ed3ef6a29da144f647904cf5ff0d3a93aa",
                        "prev": "0x0000000000000000000000000000000000000000000000000000000000000001"
                    }
                ],
                "storageVariables": [
                    {
                        "name": "_balances",
                        "type": "mapping(address => uint256)",
                        "value": {
                            "pairs": [
                                {
                                    "key": "0x1579b5f6582c7a04f5ffeec683c13008c4b0a520",
                                    "value": {
                                        "current": "271697714467293895737455",
                                        "prev": "278006485115293895737455",
                                        "typeTag": 1
                                    }
                                },
                                {
                                    "key": "0xa06d904edc8d04a980074cf9cae79a13f9efd20e",
                                    "value": {
                                        "current": "6308770648000000000001",
                                        "prev": "1",
                                        "typeTag": 1
                                    }
                                }
                            ],
                            "typeTag": 4
                        }
                    }
                ]
            }
        ]
    }
}