{
    "balance_change": {
        "balanceChanges": [
            {
                "account": "0x828a2d99bb1a31ca0eba80f3e01db8dae652a1e3",
                "assets": [
                    {
                        "address": "0xc02aaa39b223fe8d0a0e5c4f27ead9083c756cc2",
                        "amount": "0.602705683238613765",
                        "iconUrl": "https://assets.blocksec.com/icon/f1cb2d02c471d545bbc7722daf3277fd852d98e63d118771af7047bd8256c516.png",
                        "isERC1155": false,
                        "isERC721": false,
                        "sign": true,
                        "value": "2001.308329"
                    },
                    {
                        "address": "0xeeeeeeeeeeeeeeeeeeeeeeeeeeeeeeeeeeeeeeee",
                        "amount": "0.020233390447486339",
                        "iconUrl": "https://assets.blocksec.com/image/1663669189317-3.png",
                        "isERC1155": false,
                        "isERC721": false,
                        "sign": false,
                        "value": "67.18578232"
                    }
                ]
            },
            {
                "account": "0x22def8cf4e481417cb014d9dc64975ba12e3a184",
                "assets": [
                    {
                        "address": "0x73968b9a57c6e53d41345fd57a6e6ae27d6cdb2f",
                        "amount": "22,438.893150680701139543",
                        "iconUrl": "https://assets.blocksec.com/icon/f9aa347a4dae91d279ff892c2f4f40d676aded2ae7ab2dd9f5dd32999a329183.png",
                        "isERC1155": false,
                        "isERC721": false,
                        "sign": true,
                        "value": "27255.53444"
                    },
                    {
                        "address": "0xc02aaa39b223fe8d0a0e5c4f27ead9083c756cc2",
                        "amount": "8.724651055465689713",
                        "iconUrl": "https://assets.blocksec.com/icon/f1cb2d02c471d545bbc7722daf3277fd852d98e63d118771af7047bd8256c516.png",
                        "isERC1155": false,
                        "isERC721": false,
                        "sign": false,
                        "value": "28970.55281"
                    }
                ]
            },
            {
                "account": "0x5a0b54d5dc17e0aadc383d2db43b0a0d3e029c4c",
                "assets": [
                    {
                        "address": "0xeeeeeeeeeeeeeeeeeeeeeeeeeeeeeeeeeeeeeeee",
                        "amount": "0.020233390447486339",
                        "iconUrl": "https://assets.blocksec.com/image/1663669189317-3.png",
                        "isERC1155": false,
                        "isERC721": false,
                        "sign": true,
                        "value": "67.18578232"
                    }
                ]
            },
            {
                "account": "0xc465c0a16228ef6fe1bf29c04fdb04bb797fd537",
                "assets": [
                    {
                        "address": "0xc02aaa39b223fe8d0a0e5c4f27ead9083c756cc2",
                        "amount": "8.121945372227075948",
                        "iconUrl": "https://assets.blocksec.com/icon/f1cb2d02c471d545bbc7722daf3277fd852d98e63d118771af7047bd8256c516.png",
                        "isERC1155": false,
                        "isERC721": false,
                        "sign": true,
                        "value": "26969.24449"
                    },
                    {
                        "address": "0x73968b9a57c6e53d41345fd57a6e6ae27d6cdb2f",
                        "amount": "22,438.893150680701139543",
                        "iconUrl": "https://assets.blocksec.com/icon/f9aa347a4dae91d279ff892c2f4f40d676aded2ae7ab2dd9f5dd32999a329183.png",
                        "isERC1155": false,
                        "isERC721": false,
                        "sign": false,
                        "value": "27255.53444"
                    }
                ]
            }
        ]
    },
    "profile": {
        "basic_info": {
            "baseFee": "66.05558272",
            "blockNumber": 13206155,
            "callData": "0x1ed2249f000000000000000000000000c02aaa39b223fe8d0a0e5c4f27ead9083c756cc200000000000000000000000000000000000000000000000070b6f248bcb8ff6c0000000000000000000000000000000000000000000000000000000000000080e64fb684613cf8fb000000000000000000000000000000000047e229523965830000000000000000000000000000000000000000000000000000000000000004800000000000000000000000c465c0a16228ef6fe1bf29c04fdb04bb797fd5370000000000000000000000000000000000000000000004c06a32a23164eefa5700000000000000000000000022def8cf4e481417cb014d9dc64975ba12e3a18400000000000000000000000000000000000000000000000079142fe8e644f271",
            "debugEnable": true,
            "errorInfo": "",
            "eventCount": 7,
            "feeRecipient": "0x5a0b54d5dc17e0aadc383d2db43b0a0d3e029c4c",
            "formatValue": "0",
            "gasLimit": 400000,
            "gasPrice": "66.05558272",
            "gasUsed": 123480,
            "intTxnCount": 10,
            "internalRevert": false,
            "internalRevertMessage": "",
            "isContractCreation": false,
            "isFlashloan": false,
            "maxFee": "89.444123565",
            "nonce": 3044,
            "overwritedBlockNumber": -1,
            "priorityFee": "0",
            "receiver": "0x828a2d99bb1a31ca0eba80f3e01db8dae652a1e3",
            "revertMessage": "",
            "sender": "0x8fdc14a3ec1e39d5af696be85252087140aefdad",
            "simulationEnable": true,
            "sourceTxnHash": "0xac18c07077921b68f3210b9a06fc1f2b4b1998212c2c4badfcea1be814ea332d",
            "status": true,
            "timestamp": "2021-09-11T18:44:25Z",
            "transactionFee": "0.0081565433542656",
            "txnHash": "0xac18c07077921b68f3210b9a06fc1f2b4b1998212c2c4badfcea1be814ea332d",
            "txnIndex": 5,
            "type": 2,
            "value": "0"
        },
        "fund_flow": [
            {
                "amount": "8.121945372227075948",
                "from": "0x828a2d99bb1a31ca0eba80f3e01db8dae652a1e3",
                "id": 1,
                "isERC1155": false,
                "isERC721": false,
                "isReverted": false,
                "order": 1,
                "to": "0xc465c0a16228ef6fe1bf29c04fdb04bb797fd537",
                "token": "0xc02aaa39b223fe8d0a0e5c4f27ead9083c756cc2"
            },
            {
                "amount": "22,438.893150680701139543",
                "from": "0xc465c0a16228ef6fe1bf29c04fdb04bb797fd537",
                "id": 2,
                "isERC1155": false,
                "isERC721": false,
                "isReverted": false,
                "order": 2,
                "to": "0x22def8cf4e481417cb014d9dc64975ba12e3a184",
                "token": "0x73968b9a57c6e53d41345fd57a6e6ae27d6cdb2f"
            },
            {
                "amount": "8.724651055465689713",
                "from": "0x22def8cf4e481417cb014d9dc64975ba12e3a184",
                "id": 3,
                "isERC1155": false,
                "isERC721": false,
                "isReverted": false,
                "order": 3,
                "to": "0x828a2d99bb1a31ca0eba80f3e01db8dae652a1e3",
                "token": "0xc02aaa39b223fe8d0a0e5c4f27ead9083c756cc2"
            },
            {
                "amount": "0.020233390447486339",
                "from": "0x828a2d99bb1a31ca0eba80f3e01db8dae652a1e3",
                "id": 4,
                "isERC1155": false,
                "isERC721": false,
                "isReverted": false,
                "order": 4,
                "to": "0x5a0b54d5dc17e0aadc383d2db43b0a0d3e029c4c",
                "token": "0xeeeeeeeeeeeeeeeeeeeeeeeeeeeeeeeeeeeeeeee"
            }
        ],
        "token_infos": [
            {
                "address": "0x73968b9a57c6e53d41345fd57a6e6ae27d6cdb2f",
                "decimals": 18
            },
            {
                "address": "0xc02aaa39b223fe8d0a0e5c4f27ead9083c756cc2",
                "decimals": 18
            },
            {
                "address": "0xeeeeeeeeeeeeeeeeeeeeeeeeeeeeeeeeeeeeeeee",
                "decimals": 18
            }
        ]
    },
    "address_label": {
        "labels": [
            {
                "address": "0x22def8cf4e481417cb014d9dc64975ba12e3a184",
                "label": "SushiSwap: SDT"
            },
            {
                "address": "0x73968b9a57c6e53d41345fd57a6e6ae27d6cdb2f",
                "label": "Stake DAO: SDT Token"
            },
            {
                "address": "0x0000000000000000000000000000000000000003",
                "label": "Precompiled"
            },
            {
                "address": "0xc02aaa39b223fe8d0a0e5c4f27ead9083c756cc2",
                "label": "Wrapped Ether (WETH)"
            },
            {
                "address": "0x828a2d99bb1a31ca0eba80f3e01db8dae652a1e3",
                "label": "MEV Bot: 0x828...1E3"
            },
            {
                "address": "0xc465c0a16228ef6fe1bf29c04fdb04bb797fd537",
                "label": "Uniswap V2: SDT 2"
            },
            {
                "address": "0x5a0b54d5dc17e0aadc383d2db43b0a0d3e029c4c",
                "label": "Spark Pool"
            },
            {
                "address": "0x0000000000000000000000000000000000000001",
                "label": "Precompiled"
            },
            {
                "address": "0x0000000000000000000000000000000000000002",
                "label": "Precompiled"
            },
            {
                "address": "0x0000000000000000000000000000000000000004",
                "label": "Precompiled"
            },
            {
                "address": "0xeeeeeeeeeeeeeeeeeeeeeeeeeeeeeeeeeeeeeeee",
                "label": "Ether"
            }
        ]
    },
    "trace": {
        "accountLabels": null,
        "dataMap": {
            "-1": {
                "invocation": {
                    "address": "0x8fdc14a3ec1e39d5af696be85252087140aefdad",
                    "callData": "",
                    "decodedMethod": null,
                    "errorInfo": "",
                    "fromAddress": "",
                    "gasUsed": 0,
                    "id": -1,
                    "methodDecoded": false,
                    "operation": "",
                    "output": "",
                    "revert": false,
                    "revertMessage": "",
                    "selector": "",
                    "status": false,
                    "value": ""
                },
                "nodeType": 0
            },
            "0": {
                "invocation": {
                    "address": "0x828a2d99bb1a31ca0eba80f3e01db8dae652a1e3",
                    "callData": "0x000000000000000000000000c02aaa39b223fe8d0a0e5c4f27ead9083c756cc200000000000000000000000000000000000000000000000070b6f248bcb8ff6c0000000000000000000000000000000000000000000000000000000000000080e64fb684613cf8fb000000000000000000000000000000000047e229523965830000000000000000000000000000000000000000000000000000000000000004800000000000000000000000c465c0a16228ef6fe1bf29c04fdb04bb797fd5370000000000000000000000000000000000000000000004c06a32a23164eefa5700000000000000000000000022def8cf4e481417cb014d9dc64975ba12e3a18400000000000000000000000000000000000000000000000079142fe8e644f271",
                    "decodedMethod": null,
                    "errorInfo": "",
                    "fromAddress": "0x8fdc14a3ec1e39d5af696be85252087140aefdad",
                    "gasUsed": 123480,
                    "id": 0,
                    "methodDecoded": false,
                    "operation": "CALL",
                    "output": "",
                    "revert": false,
                    "revertMessage": "",
                    "selector": "0x1ed2249f",
                    "status": true,
                    "value": "0"
                },
                "nodeType": 0
            },
            "1": {
                "invocation": {
                    "address": "0xc02aaa39b223fe8d0a0e5c4f27ead9083c756cc2",
                    "callData": "0x000000000000000000000000c465c0a16228ef6fe1bf29c04fdb04bb797fd53700000000000000000000000000000000000000000000000070b6f248bcb8ff6c",
                    "decodedMethod": {
                        "callParams": [
                            {
                                "name": "dst",
                                "type": "address",
                                "value": "0xc465c0a16228ef6fe1bf29c04fdb04bb797fd537"
                            },
                            {
                                "decimalAvailable": true,
                                "name": "wad",
                                "type": "uint256",
                                "value": "8,121,945,372,227,075,948"
                            }
                        ],
                        "constructorArguments": "",
                        "name": "transfer",
                        "returnParams": [
                            {
                                "name": "",
                                "type": "bool",
                                "value": true
                            }
                        ],
                        "signature": "transfer(address,uint256)"
                    },
                    "errorInfo": "",
                    "fromAddress": "0x828a2d99bb1a31ca0eba80f3e01db8dae652a1e3",
                    "gasUsed": 12862,
                    "id": 1,
                    "methodDecoded": true,
                    "operation": "CALL",
                    "output": "0x0000000000000000000000000000000000000000000000000000000000000001",
                    "revert": false,
                    "revertMessage": "",
                    "selector": "0xa9059cbb",
                    "status": true,
                    "value": "0"
                },
                "nodeType": 0
            },
            "10": {
                "invocation": {
                    "address": "0x22def8cf4e481417cb014d9dc64975ba12e3a184",
                    "callData": "0x000000000000000000000000000000000000000000000000000000000000000000000000000000000000000000000000000000000000000079142fe8e644f271000000000000000000000000828a2d99bb1a31ca0eba80f3e01db8dae652a1e30000000000000000000000000000000000000000000000000000000000000000",
                    "decodedMethod": {
                        "callParams": [
                            {
                                "name": "amount0Out",
                                "type": "uint256",
                                "value": "0"
                            },
                            {
                                "name": "amount1Out",
                                "type": "uint256",
                                "value": "8,724,651,055,465,689,713"
                            },
                            {
                                "name": "to",
                                "type": "address",
                                "value": "0x828a2d99bb1a31ca0eba80f3e01db8dae652a1e3"
                            },
                            {
                                "name": "data",
                                "type": "bytes",
                                "value": "0x"
                            }
                        ],
                        "constructorArguments": "",
                        "name": "swap",
                        "returnParams": [],
                        "signature": "swap(uint256,uint256,address,bytes)"
                    },
                    "errorInfo": "",
                    "fromAddress": "0x828a2d99bb1a31ca0eba80f3e01db8dae652a1e3",
                    "gasUsed": 32200,
                    "id": 10,
                    "methodDecoded": true,
                    "operation": "CALL",
                    "output": "",
                    "revert": false,
                    "revertMessage": "",
                    "selector": "0x022c0d9f",
                    "status": true,
                    "value": "0"
                },
                "nodeType": 0
            },
            "11": {
                "invocation": {
                    "address": "0xc02aaa39b223fe8d0a0e5c4f27ead9083c756cc2",
                    "callData": "0x000000000000000000000000828a2d99bb1a31ca0eba80f3e01db8dae652a1e300000000000000000000000000000000000000000000000079142fe8e644f271",
                    "decodedMethod": {
                        "callParams": [
                            {
                                "name": "dst",
                                "type": "address",
                                "value": "0x828a2d99bb1a31ca0eba80f3e01db8dae652a1e3"
                            },
                            {
                                "decimalAvailable": true,
                                "name": "wad",
                                "type": "uint256",
                                "value": "8,724,651,055,465,689,713"
                            }
                        ],
                        "constructorArguments": "",
                        "name": "transfer",
                        "returnParams": [
                            {
                                "name": "",
                                "type": "bool",
                                "value": true
                            }
                        ],
                        "signature": "transfer(address,uint256)"
                    },
                    "errorInfo": "",
                    "fromAddress": "0x22def8cf4e481417cb014d9dc64975ba12e3a184",
                    "gasUsed": 8062,
                    "id": 11,
                    "methodDecoded": true,
                    "operation": "CALL",
                    "output": "0x0000000000000000000000000000000000000000000000000000000000000001",
                    "revert": false,
                    "revertMessage": "",
                    "selector": "0xa9059cbb",
                    "status": true,
                    "value": "0"
                },
                "nodeType": 0
            },
            "12": {
                "event": {
                    "contract": "0xc02aaa39b223fe8d0a0e5c4f27ead9083c756cc2",
                    "decodedLog": {
                        "name": "Transfer",
                        "params": [
                            {
                                "name": "src",
                                "type": "address",
                                "value": "0x22def8cf4e481417cb014d9dc64975ba12e3a184"
                            },
                            {
                                "name": "dst",
                                "type": "address",
                                "value": "0x828a2d99bb1a31ca0eba80f3e01db8dae652a1e3"
                            },
                            {
                                "decimalAvailable": true,
                                "name": "wad",
                                "type": "uint256",
                                "value": "8,724,651,055,465,689,713"
                            }
                        ],
                        "signature": "Transfer(address,address,uint256)"
                    },
                    "id": 12,
                    "logData": "0x00000000000000000000000000000000000000000000000079142fe8e644f271",
                    "logDecoded": true,
                    "operation": "EVENT",
                    "revert": false,
                    "status": true,
                    "topics": [
                        "0xddf252ad1be2c89b69c2b068fc378daa952ba7f163c4a11628f55a4df523b3ef",
                        "0x00000000000000000000000022def8cf4e481417cb014d9dc64975ba12e3a184",
                        "0x000000000000000000000000828a2d99bb1a31ca0eba80f3e01db8dae652a1e3"
                    ]
                },
                "nodeType": 1
            },
            "13": {
                "invocation": {
                    "address": "0x73968b9a57c6e53d41345fd57a6e6ae27d6cdb2f",
                    "callData": "0x00000000000000000000000022def8cf4e481417cb014d9dc64975ba12e3a184",
                    "decodedMethod": {
                        "callParams": [
                            {
                                "name": "account",
                                "type": "address",
                                "value": "0x22def8cf4e481417cb014d9dc64975ba12e3a184"
                            }
                        ],
                        "constructorArguments": "",
                        "name": "balanceOf",
                        "returnParams": [
                            {
                                "decimalAvailable": true,
                                "name": "",
                                "type": "uint256",
                                "value": "538,691,427,667,916,157,872,988"
                            }
                        ],
                        "signature": "balanceOf(address)"
                    },
                    "errorInfo": "",
                    "fromAddress": "0x22def8cf4e481417cb014d9dc64975ba12e3a184",
                    "gasUsed": 468,
                    "id": 13,
                    "methodDecoded": true,
                    "operation": "STATICCALL",
                    "output": "0x0000000000000000000000000000000000000000000072128553ba76df97eb5c",
                    "revert": false,
                    "revertMessage": "",
                    "selector": "0x70a08231",
                    "status": true,
                    "value": "0"
                },
                "nodeType": 0
            },
            "14": {
                "invocation": {
                    "address": "0xc02aaa39b223fe8d0a0e5c4f27ead9083c756cc2",
                    "callData": "0x00000000000000000000000022def8cf4e481417cb014d9dc64975ba12e3a184",
                    "decodedMethod": {
                        "callParams": [
                            {
                                "name": "",
                                "type": "address",
                                "value": "0x22def8cf4e481417cb014d9dc64975ba12e3a184"
                            }
                        ],
                        "constructorArguments": "",
                        "name": "balanceOf",
                        "returnParams": [
                            {
                                "decimalAvailable": true,
                                "name": "",
                                "type": "uint256",
                                "value": "201,332,401,672,954,917,324"
                            }
                        ],
                        "signature": "balanceOf(address)"
                    },
                    "errorInfo": "",
                    "fromAddress": "0x22def8cf4e481417cb014d9dc64975ba12e3a184",
                    "gasUsed": 534,
                    "id": 14,
                    "methodDecoded": true,
                    "operation": "STATICCALL",
                    "output": "0x00000000000000000000000000000000000000000000000aea0c609de4bd31cc",
                    "revert": false,
                    "revertMessage": "",
                    "selector": "0x70a08231",
                    "status": true,
                    "value": "0"
                },
                "nodeType": 0
            },
            "15": {
                "event": {
                    "contract": "0x22def8cf4e481417cb014d9dc64975ba12e3a184",
                    "decodedLog": {
                        "name": "Sync",
                        "params": [
                            {
                                "name": "reserve0",
                                "type": "uint112",
                                "value": "538,691,427,667,916,157,872,988"
                            },
                            {
                                "name": "reserve1",
                                "type": "uint112",
                                "value": "201,332,401,672,954,917,324"
                            }
                        ],
                        "signature": "Sync(uint112,uint112)"
                    },
                    "id": 15,
                    "logData": "0x0000000000000000000000000000000000000000000072128553ba76df97eb5c00000000000000000000000000000000000000000000000aea0c609de4bd31cc",
                    "logDecoded": true,
                    "operation": "EVENT",
                    "revert": false,
                    "status": true,
                    "topics": [
                        "0x1c411e9a96e071241c2f21f7726b17ae89e3cab4c78be50e062b03a9fffbbad1"
                    ]
                },
                "nodeType": 1
            },
            "16": {
                "event": {
                    "contract": "0x22def8cf4e481417cb014d9dc64975ba12e3a184",
                    "decodedLog": {
                        "name": "Swap",
                        "params": [
                            {
                                "name": "sender",
                                "type": "address",
                                "value": "0x828a2d99bb1a31ca0eba80f3e01db8dae652a1e3"
                            },
                            {
                                "name": "to",
                                "type": "address",
                                "value": "0x828a2d99bb1a31ca0eba80f3e01db8dae652a1e3"
                            },
                            {
                                "name": "amount0In",
                                "type": "uint256",
                                "value": "22,438,893,150,680,701,139,543"
                            },
                            {
                                "name": "amount1In",
                                "type": "uint256",
                                "value": "0"
                            },
                            {
                                "name": "amount0Out",
                                "type": "uint256",
                                "value": "0"
                            },
                            {
                                "name": "amount1Out",
                                "type": "uint256",
                                "value": "8,724,651,055,465,689,713"
                            }
                        ],
                        "signature": "Swap(address,uint256,uint256,uint256,uint256,address)"
                    },
                    "id": 16,
                    "logData": "0x0000000000000000000000000000000000000000000004c06a32a23164eefa570000000000000000000000000000000000000000000000000000000000000000000000000000000000000000000000000000000000000000000000000000000000000000000000000000000000000000000000000000000079142fe8e644f271",
                    "logDecoded": true,
                    "operation": "EVENT",
                    "revert": false,
                    "status": true,
                    "topics": [
                        "0xd78ad95fa46c994b6551d0da85fc275fe613ce37657fb8d5e3d130840159d822",
                        "0x000000000000000000000000828a2d99bb1a31ca0eba80f3e01db8dae652a1e3",
                        "0x000000000000000000000000828a2d99bb1a31ca0eba80f3e01db8dae652a1e3"
                    ]
                },
                "nodeType": 1
            },
            "17": {
                "invocation": {
                    "address": "0x5a0b54d5dc17e0aadc383d2db43b0a0d3e029c4c",
                    "callData": "0x",
                    "decodedMethod": null,
                    "errorInfo": "",
                    "fromAddress": "0x828a2d99bb1a31ca0eba80f3e01db8dae652a1e3",
                    "gasUsed": 0,
                    "id": 17,
                    "methodDecoded": false,
                    "operation": "CALL",
                    "output": "",
                    "revert": false,
                    "revertMessage": "",
                    "selector": "fallback",
                    "status": true,
                    "value": "0.020233390447486339"
                },
                "nodeType": 0
            },
            "2": {
                "event": {
                    "contract": "0xc02aaa39b223fe8d0a0e5c4f27ead9083c756cc2",
                    "decodedLog": {
                        "name": "Transfer",
                        "params": [
                            {
                                "name": "src",
                                "type": "address",
                                "value": "0x828a2d99bb1a31ca0eba80f3e01db8dae652a1e3"
                            },
                            {
                                "name": "dst",
                                "type": "address",
                                "value": "0xc465c0a16228ef6fe1bf29c04fdb04bb797fd537"
                            },
                            {
                                "decimalAvailable": true,
                                "name": "wad",
                                "type": "uint256",
                                "value": "8,121,945,372,227,075,948"
                            }
                        ],
                        "signature": "Transfer(address,address,uint256)"
                    },
                    "id": 2,
                    "logData": "0x00000000000000000000000000000000000000000000000070b6f248bcb8ff6c",
                    "logDecoded": true,
                    "operation": "EVENT",
                    "revert": false,
                    "status": true,
                    "topics": [
                        "0xddf252ad1be2c89b69c2b068fc378daa952ba7f163c4a11628f55a4df523b3ef",
                        "0x000000000000000000000000828a2d99bb1a31ca0eba80f3e01db8dae652a1e3",
                        "0x000000000000000000000000c465c0a16228ef6fe1bf29c04fdb04bb797fd537"
                    ]
                },
                "nodeType": 1
            },
            "3": {
                "invocation": {
                    "address": "0xc465c0a16228ef6fe1bf29c04fdb04bb797fd537",
                    "callData": "0x0000000000000000000000000000000000000000000004c06a32a23164eefa57000000000000000000000000000000000000000000000000000000000000000000000000000000000000000022def8cf4e481417cb014d9dc64975ba12e3a1840000000000000000000000000000000000000000000000000000000000000020",
                    "decodedMethod": {
                        "callParams": [
                            {
                                "name": "amount0Out",
                                "type": "uint256",
                                "value": "22,438,893,150,680,701,139,543"
                            },
                            {
                                "name": "amount1Out",
                                "type": "uint256",
                                "value": "0"
                            },
                            {
                                "name": "to",
                                "type": "address",
                                "value": "0x22def8cf4e481417cb014d9dc64975ba12e3a184"
                            },
                            {
                                "name": "data",
                                "type": "bytes",
                                "value": "0x"
                            }
                        ],
                        "constructorArguments": "",
                        "name": "swap",
                        "returnParams": [],
                        "signature": "swap(uint256,uint256,address,bytes)"
                    },
                    "errorInfo": "",
                    "fromAddress": "0x828a2d99bb1a31ca0eba80f3e01db8dae652a1e3",
                    "gasUsed": 39344,
                    "id": 3,
                    "methodDecoded": true,
                    "operation": "CALL",
                    "output": "",
                    "revert": false,
                    "revertMessage": "",
                    "selector": "0x022c0d9f",
                    "status": true,
                    "value": "0"
                },
                "nodeType": 0
            },
            "4": {
                "invocation": {
                    "address": "0x73968b9a57c6e53d41345fd57a6e6ae27d6cdb2f",
                    "callData": "0x00000000000000000000000022def8cf4e481417cb014d9dc64975ba12e3a1840000000000000000000000000000000000000000000004c06a32a23164eefa57",
                    "decodedMethod": {
                        "callParams": [
                            {
                                "name": "recipient",
                                "type": "address",
                                "value": "0x22def8cf4e481417cb014d9dc64975ba12e3a184"
                            },
                            {
                                "decimalAvailable": true,
                                "name": "amount",
                                "type": "uint256",
                                "value": "22,438,893,150,680,701,139,543"
                            }
                        ],
                        "constructorArguments": "",
                        "name": "transfer",
                        "returnParams": [
                            {
                                "name": "",
                                "type": "bool",
                                "value": true
                            }
                        ],
                        "signature": "transfer(address,uint256)"
                    },
                    "errorInfo": "",
                    "fromAddress": "0xc465c0a16228ef6fe1bf29c04fdb04bb797fd537",
                    "gasUsed": 12935,
                    "id": 4,
                    "methodDecoded": true,
                    "operation": "CALL",
                    "output": "0x0000000000000000000000000000000000000000000000000000000000000001",
                    "revert": false,
                    "revertMessage": "",
                    "selector": "0xa9059cbb",
                    "status": true,
                    "value": "0"
                },
                "nodeType": 0
            },
            "5": {
                "event": {
                    "contract": "0x73968b9a57c6e53d41345fd57a6e6ae27d6cdb2f",
                    "decodedLog": {
                        "name": "Transfer",
                        "params": [
                            {
                                "name": "from",
                                "type": "address",
                                "value": "0xc465c0a16228ef6fe1bf29c04fdb04bb797fd537"
                            },
                            {
                                "name": "to",
                                "type": "address",
                                "value": "0x22def8cf4e481417cb014d9dc64975ba12e3a184"
                            },
                            {
                                "decimalAvailable": true,
                                "name": "value",
                                "type": "uint256",
                                "value": "22,438,893,150,680,701,139,543"
                            }
                        ],
                        "signature": "Transfer(address,address,uint256)"
                    },
                    "id": 5,
                    "logData": "0x0000000000000000000000000000000000000000000004c06a32a23164eefa57",
                    "logDecoded": true,
                    "operation": "EVENT",
                    "revert": false,
                    "status": true,
                    "topics": [
                        "0xddf252ad1be2c89b69c2b068fc378daa952ba7f163c4a11628f55a4df523b3ef",
                        "0x000000000000000000000000c465c0a16228ef6fe1bf29c04fdb04bb797fd537",
                        "0x00000000000000000000000022def8cf4e481417cb014d9dc64975ba12e3a184"
                    ]
                },
                "nodeType": 1
            },
            "6": {
                "invocation": {
                    "address": "0x73968b9a57c6e53d41345fd57a6e6ae27d6cdb2f",
                    "callData": "0x000000000000000000000000c465c0a16228ef6fe1bf29c04fdb04bb797fd537",
                    "decodedMethod": {
                        "callParams": [
                            {
                                "name": "account",
                                "type": "address",
                                "value": "0xc465c0a16228ef6fe1bf29c04fdb04bb797fd537"
                            }
                        ],
                        "constructorArguments": "",
                        "name": "balanceOf",
                        "returnParams": [
                            {
                                "decimalAvailable": true,
                                "name": "",
                                "type": "uint256",
                                "value": "1,446,646,929,831,502,409,476,123"
                            }
                        ],
                        "signature": "balanceOf(address)"
                    },
                    "errorInfo": "",
                    "fromAddress": "0xc465c0a16228ef6fe1bf29c04fdb04bb797fd537",
                    "gasUsed": 468,
                    "id": 6,
                    "methodDecoded": true,
                    "operation": "STATICCALL",
                    "output": "0x000000000000000000000000000000000000000000013256e32001d3142da81b",
                    "revert": false,
                    "revertMessage": "",
                    "selector": "0x70a08231",
                    "status": true,
                    "value": "0"
                },
                "nodeType": 0
            },
            "7": {
                "invocation": {
                    "address": "0xc02aaa39b223fe8d0a0e5c4f27ead9083c756cc2",
                    "callData": "0x000000000000000000000000c465c0a16228ef6fe1bf29c04fdb04bb797fd537",
                    "decodedMethod": {
                        "callParams": [
                            {
                                "name": "",
                                "type": "address",
                                "value": "0xc465c0a16228ef6fe1bf29c04fdb04bb797fd537"
                            }
                        ],
                        "constructorArguments": "",
                        "name": "balanceOf",
                        "returnParams": [
                            {
                                "decimalAvailable": true,
                                "name": "",
                                "type": "uint256",
                                "value": "530,177,043,915,496,378,053"
                            }
                        ],
                        "signature": "balanceOf(address)"
                    },
                    "errorInfo": "",
                    "fromAddress": "0xc465c0a16228ef6fe1bf29c04fdb04bb797fd537",
                    "gasUsed": 534,
                    "id": 7,
                    "methodDecoded": true,
                    "operation": "STATICCALL",
                    "output": "0x00000000000000000000000000000000000000000000001cbdaf3c7159d64ec5",
                    "revert": false,
                    "revertMessage": "",
                    "selector": "0x70a08231",
                    "status": true,
                    "value": "0"
                },
                "nodeType": 0
            },
            "8": {
                "event": {
                    "contract": "0xc465c0a16228ef6fe1bf29c04fdb04bb797fd537",
                    "decodedLog": {
                        "name": "Sync",
                        "params": [
                            {
                                "name": "reserve0",
                                "type": "uint112",
                                "value": "1,446,646,929,831,502,409,476,123"
                            },
                            {
                                "name": "reserve1",
                                "type": "uint112",
                                "value": "530,177,043,915,496,378,053"
                            }
                        ],
                        "signature": "Sync(uint112,uint112)"
                    },
                    "id": 8,
                    "logData": "0x000000000000000000000000000000000000000000013256e32001d3142da81b00000000000000000000000000000000000000000000001cbdaf3c7159d64ec5",
                    "logDecoded": true,
                    "operation": "EVENT",
                    "revert": false,
                    "status": true,
                    "topics": [
                        "0x1c411e9a96e071241c2f21f7726b17ae89e3cab4c78be50e062b03a9fffbbad1"
                    ]
                },
                "nodeType": 1
            },
            "9": {
                "event": {
                    "contract": "0xc465c0a16228ef6fe1bf29c04fdb04bb797fd537",
                    "decodedLog": {
                        "name": "Swap",
                        "params": [
                            {
                                "name": "sender",
                                "type": "address",
                                "value": "0x828a2d99bb1a31ca0eba80f3e01db8dae652a1e3"
                            },
                            {
                                "name": "to",
                                "type": "address",
                                "value": "0x22def8cf4e481417cb014d9dc64975ba12e3a184"
                            },
                            {
                                "name": "amount0In",
                                "type": "uint256",
                                "value": "0"
                            },
                            {
                                "name": "amount1In",
                                "type": "uint256",
                                "value": "8,121,945,372,227,075,948"
                            },
                            {
                                "name": "amount0Out",
                                "type": "uint256",
                                "value": "22,438,893,150,680,701,139,543"
                            },
                            {
                                "name": "amount1Out",
                                "type": "uint256",
                                "value": "0"
                            }
                        ],
                        "signature": "Swap(address,uint256,uint256,uint256,uint256,address)"
                    },
                    "id": 9,
                    "logData": "0x000000000000000000000000000000000000000000000000000000000000000000000000000000000000000000000000000000000000000070b6f248bcb8ff6c0000000000000000000000000000000000000000000004c06a32a23164eefa570000000000000000000000000000000000000000000000000000000000000000",
                    "logDecoded": true,
                    "operation": "EVENT",
                    "revert": false,
                    "status": true,
                    "topics": [
                        "0xd78ad95fa46c994b6551d0da85fc275fe613ce37657fb8d5e3d130840159d822",
                        "0x000000000000000000000000828a2d99bb1a31ca0eba80f3e01db8dae652a1e3",
                        "0x00000000000000000000000022def8cf4e481417cb014d9dc64975ba12e3a184"
                    ]
                },
                "nodeType": 1
            }
        },
        "gasFlame": [
            {
                "children": [
                    {
                        "children": [
                            {
                                "children": [],
                                "depth": 0,
                                "name": "Initial Gas",
                                "value": 23464
                            },
                            {
                                "children": [
                                    {
                                        "children": [],
                                        "depth": 1,
                                        "name": "transfer",
                                        "value": 12862
                                    },
                                    {
                                        "children": [
                                            {
                                                "children": [],
                                                "depth": 2,
                                                "name": "transfer",
                                                "value": 12935
                                            },
                                            {
                                                "children": [],
                                                "depth": 2,
                                                "name": "balanceOf",
                                                "value": 468
                                            },
                                            {
                                                "children": [],
                                                "depth": 2,
                                                "name": "balanceOf",
                                                "value": 534
                                            }
                                        ],
                                        "depth": 1,
                                        "name": "swap",
                                        "value": 39344
                                    },
                                    {
                                        "children": [
                                            {
                                                "children": [],
                                                "depth": 2,
                                                "name": "transfer",
                                                "value": 8062
                                            },
                                            {
                                                "children": [],
                                                "depth": 2,
                                                "name": "balanceOf",
                                                "value": 468
                                            },
                                            {
                                                "children": [],
                                                "depth": 2,
                                                "name": "balanceOf",
                                                "value": 534
                                            }
                                        ],
                                        "depth": 1,
                                        "name": "swap",
                                        "value": 32200
                                    },
                                    {
                                        "children": [],
                                        "depth": 1,
                                        "name": "fallback",
                                        "value": 0
                                    }
                                ],
                                "depth": 0,
                                "name": "Executed Gas",
                                "value": 105616
                            }
                        ],
                        "depth": -1,
                        "name": "Actual Gas Used",
                        "value": 123480
                    },
                    {
                        "children": [],
                        "depth": -1,
                        "name": "Refunded Gas",
                        "value": 5600
                    }
                ],
                "depth": -2,
                "name": "Total Gas",
                "value": 129080
            }
        ],
        "isConfirmed": true,
        "mainTrace": [
            {
                "children": [
                    {
                        "children": [
                            {
                                "children": [
                                    {
                                        "children": [],
                                        "depth": 2,
                                        "id": 2,
                                        "order": 2
                                    }
                                ],
                                "depth": 1,
                                "id": 1,
                                "order": 1
                            },
                            {
                                "children": [
                                    {
                                        "children": [
                                            {
                                                "children": [],
                                                "depth": 3,
                                                "id": 5,
                                                "order": 5
                                            }
                                        ],
                                        "depth": 2,
                                        "id": 4,
                                        "order": 4
                                    },
                                    {
                                        "children": [],
                                        "depth": 2,
                                        "id": 6,
                                        "order": 6
                                    },
                                    {
                                        "children": [],
                                        "depth": 2,
                                        "id": 7,
                                        "order": 7
                                    },
                                    {
                                        "children": [],
                                        "depth": 2,
                                        "id": 8,
                                        "order": 8
                                    },
                                    {
                                        "children": [],
                                        "depth": 2,
                                        "id": 9,
                                        "order": 9
                                    }
                                ],
                                "depth": 1,
                                "id": 3,
                                "order": 3
                            },
                            {
                                "children": [
                                    {
                                        "children": [
                                            {
                                                "children": [],
                                                "depth": 3,
                                                "id": 12,
                                                "order": 12
                                            }
                                        ],
                                        "depth": 2,
                                        "id": 11,
                                        "order": 11
                                    },
                                    {
                                        "children": [],
                                        "depth": 2,
                                        "id": 13,
                                        "order": 13
                                    },
                                    {
                                        "children": [],
                                        "depth": 2,
                                        "id": 14,
                                        "order": 14
                                    },
                                    {
                                        "children": [],
                                        "depth": 2,
                                        "id": 15,
                                        "order": 15
                                    },
                                    {
                                        "children": [],
                                        "depth": 2,
                                        "id": 16,
                                        "order": 16
                                    }
                                ],
                                "depth": 1,
                                "id": 10,
                                "order": 10
                            },
                            {
                                "children": [],
                                "depth": 1,
                                "id": 17,
                                "order": 17
                            }
                        ],
                        "depth": 0,
                        "id": 0,
                        "order": 0
                    }
                ],
                "depth": -1,
                "id": -1,
                "order": -1
            }
        ],
        "mainTraceNodeCount": 18,
        "parentIdMap": {
            "0": -1,
            "1": 0,
            "10": 0,
            "11": 10,
            "12": 11,
            "13": 10,
            "14": 10,
            "15": 10,
            "16": 10,
            "17": 0,
            "2": 1,
            "3": 0,
            "4": 3,
            "5": 4,
            "6": 3,
            "7": 3,
            "8": 3,
            "9": 3
        },
        "tidyTrace": [
            {
                "children": [
                    {
                        "children": [
                            {
                                "children": [
                                    {
                                        "children": [],
                                        "depth": 2,
                                        "id": 2,
                                        "order": 2
                                    }
                                ],
                                "depth": 1,
                                "id": 1,
                                "order": 1
                            },
                            {
                                "children": [
                                    {
                                        "children": [
                                            {
                                                "children": [],
                                                "depth": 3,
                                                "id": 5,
                                                "order": 5
                                            }
                                        ],
                                        "depth": 2,
                                        "id": 4,
                                        "order": 4
                                    },
                                    {
                                        "children": [],
                                        "depth": 2,
                                        "id": 8,
                                        "order": 8
                                    },
                                    {
                                        "children": [],
                                        "depth": 2,
                                        "id": 9,
                                        "order": 9
                                    }
                                ],
                                "depth": 1,
                                "id": 3,
                                "order": 3
                            },
                            {
                                "children": [
                                    {
                                        "children": [
                                            {
                                                "children": [],
                                                "depth": 3,
                                                "id": 12,
                                                "order": 12
                                            }
                                        ],
                                        "depth": 2,
                                        "id": 11,
                                        "order": 11
                                    },
                                    {
                                        "children": [],
                                        "depth": 2,
                                        "id": 15,
                                        "order": 15
                                    },
                                    {
                                        "children": [],
                                        "depth": 2,
                                        "id": 16,
                                        "order": 16
                                    }
                                ],
                                "depth": 1,
                                "id": 10,
                                "order": 10
                            },
                            {
                                "children": [],
                                "depth": 1,
                                "id": 17,
                                "order": 17
                            }
                        ],
                        "depth": 0,
                        "id": 0,
                        "order": 0
                    }
                ],
                "depth": -1,
                "id": -1,
                "order": -1
            }
        ],
        "tidyTraceNodeCount": 14
    },
    "state_change": {
        "stateChanges": [
            {
                "address": "0x22def8cf4e481417cb014d9dc64975ba12e3a184",
                "erc": "ERC-20",
                "slots": [
                    {
                        "current": "0x613cf90900000000000aea0c609de4bd31cc0000000072128553ba76df97eb5c",
                        "key": "0x0000000000000000000000000000000000000000000000000000000000000008",
                        "prev": "0x613cf90900000000000b63209086cb02243d000000006d521b2118457aa8f105"
                    }
                ],
                "storageVariables": [
                    {
                        "name": "reserve0",
                        "type": "uint112",
                        "value": {
                            "current": "538691427667916157872988",
                            "prev": "516252534517235456733445",
                            "typeTag": 1
                        }
                    },
                    {
                        "name": "reserve1",
                        "type": "uint112",
                        "value": {
                            "current": "201332401672954917324",
                            "prev": "210057052728420607037",
                            "typeTag": 1
                        }
                    },
                    {
                        "name": "blockTimestampLast",
                        "type": "uint32",
                        "value": {
                            "current": "1631385865",
                            "prev": "1631385865",
                            "typeTag": 1
                        }
                    }
                ]
            },
            {
                "address": "0x73968b9a57c6e53d41345fd57a6e6ae27d6cdb2f",
                "erc": "ERC-20",
                "slots": [
                    {
                        "current": "0x000000000000000000000000000000000000000000013256e32001d3142da81b",
                        "key": "0xe373d6107873ff492b683f78d9fc02a353688d56892a5d932a182a52dc0ea4b7",
                        "prev": "0x0000000000000000000000000000000000000000000137174d52a404791ca272"
                    },
                    {
                        "current": "0x0000000000000000000000000000000000000000000072128553ba76df97eb5c",
                        "key": "0xa934dab092f0c5bbca09f4de3f91b927a629e3d433e50240363f7d871eb43fee",
                        "prev": "0x000000000000000000000000000000000000000000006d521b2118457aa8f105"
                    }
                ],
                "storageVariables": [
                    {
                        "name": "_balances",
                        "type": "mapping(address => uint256)",
                        "value": {
                            "pairs": [
                                {
                                    "key": "0x22def8cf4e481417cb014d9dc64975ba12e3a184",
                                    "value": {
                                        "current": "538691427667916157872988",
                                        "prev": "516252534517235456733445",
                                        "typeTag": 1
                                    }
                                },
                                {
                                    "key": "0xc465c0a16228ef6fe1bf29c04fdb04bb797fd537",
                                    "value": {
                                        "current": "1446646929831502409476123",
                                        "prev": "1469085822982183110615666",
                                        "typeTag": 1
                                    }
                                }
                            ],
                            "typeTag": 4
                        }
                    }
                ]
            },
            {
                "address": "0xc02aaa39b223fe8d0a0e5c4f27ead9083c756cc2",
                "erc": "ERC-20",
                "slots": [
                    {
                        "current": "0x000000000000000000000000000000000000000000000005e4aff2a1267611e7",
                        "key": "0x1c05778ed04afe5d364bfd1f1d454265ffc1cc490d50f41f03012dce80bc7a46",
                        "prev": "0x000000000000000000000000000000000000000000000005dc52b500fcea1ee2"
                    },
                    {
                        "current": "0x00000000000000000000000000000000000000000000001cbdaf3c7159d64ec5",
                        "key": "0xb2ed3a1952b4ed68d7b98749d941b8df33847b3c1acfbf19c8c1d0f6f5a7f0c6",
                        "prev": "0x00000000000000000000000000000000000000000000001c4cf84a289d1d4f59"
                    },
                    {
                        "current": "0x00000000000000000000000000000000000000000000000aea0c609de4bd31cc",
                        "key": "0x388e23d52ae25f4073790393db1ff2ae259b8ef709c03a01af9ebc6b5141afd0",
                        "prev": "0x00000000000000000000000000000000000000000000000b63209086cb02243d"
                    }
                ],
                "storageVariables": [
                    {
                        "name": "balanceOf",
                        "type": "mapping(address => uint256)",
                        "value": {
                            "pairs": [
                                {
                                    "key": "0x22def8cf4e481417cb014d9dc64975ba12e3a184",
                                    "value": {
                                        "current": "201332401672954917324",
                                        "prev": "210057052728420607037",
                                        "typeTag": 1
                                    }
                                },
                                {
                                    "key": "0x828a2d99bb1a31ca0eba80f3e01db8dae652a1e3",
                                    "value": {
                                        "current": "108712376704068620775",
                                        "prev": "108109671020830007010",
                                        "typeTag": 1
                                    }
                                },
                                {
                                    "key": "0xc465c0a16228ef6fe1bf29c04fdb04bb797fd537",
                                    "value": {
                                        "current": "530177043915496378053",
                                        "prev": "522055098543269302105",
                                        "typeTag": 1
                                    }
                                }
                            ],
                            "typeTag": 4
                        }
                    }
                ]
            },
            {
                "address": "0xc465c0a16228ef6fe1bf29c04fdb04bb797fd537",
                "erc": "ERC-20",
                "slots": [
                    {
                        "current": "0x613cf90900000000001cbdaf3c7159d64ec5000000013256e32001d3142da81b",
                        "key": "0x0000000000000000000000000000000000000000000000000000000000000008",
                        "prev": "0x613cf90900000000001c4cf84a289d1d4f590000000137174d52a404791ca272"
                    }
                ],
                "storageVariables": [
                    {
                        "name": "reserve0",
                        "type": "uint112",
                        "value": {
                            "current": "1446646929831502409476123",
                            "prev": "1469085822982183110615666",
                            "typeTag": 1
                        }
                    },
                    {
                        "name": "reserve1",
                        "type": "uint112",
                        "value": {
                            "current": "530177043915496378053",
                            "prev": "522055098543269302105",
                            "typeTag": 1
                        }
                    },
                    {
                        "name": "blockTimestampLast",
                        "type": "uint32",
                        "value": {
                            "current": "1631385865",
                            "prev": "1631385865",
                            "typeTag": 1
                        }
                    }
                ]
            }
        ]
    }
}