{
    "balance_change": {
        "balanceChanges": [
            {
                "account": "0x776d4d1feed14ee47a46837b2b16624feda1fffc",
                "assets": [
                    {
                        "address": "0xd01db73e047855efb414e6202098c4be4cd2423b",
                        "amount": "133.7369",
                        "iconUrl": "",
                        "isERC1155": false,
                        "isERC721": false,
                        "sign": false,
                        "value": ""
                    }
                ]
            },
            {
                "account": "0xc1e77cc6c60681284932f10dfe5caefaa9c8b612",
                "assets": [
                    {
                        "address": "0xd01db73e047855efb414e6202098c4be4cd2423b",
                        "amount": "133.7369",
                        "iconUrl": "",
                        "isERC1155": false,
                        "isERC721": false,
                        "sign": true,
                        "value": ""
                    }
                ]
            }
        ]
    },
    "profile": {
        "basic_info": {
            "baseFee": "",
            "blockNumber": 4404237,
            "callData": "0xa9059cbb000000000000000000000000c1e77cc6c60681284932f10dfe5caefaa9c8b6120000000000000000000000000000000000000000000000073ff8e9fb45f04000",
            "debugEnable": true,
            "errorInfo": "",
            "eventCount": 1,
            "feeRecipient": "0x52bc44d5378309ee2abf1539bf71de1b7d7be3b5",
            "formatValue": "0",
            "gasLimit": 202129,
            "gasPrice": "21",
            "gasUsed": 52193,
            "intTxnCount": 0,
            "internalRevert": false,
            "internalRevertMessage": "",
            "isContractCreation": false,
            "isFlashloan": false,
            "maxFee": "",
            "nonce": 587,
            "overwritedBlockNumber": -1,
            "priorityFee": "",
            "receiver": "0xd01db73e047855efb414e6202098c4be4cd2423b",
            "revertMessage": "",
            "sender": "0x776d4d1feed14ee47a46837b2b16624feda1fffc",
            "simulationEnable": true,
            "sourceTxnHash": "0xac882a6d6332ced6aac646a54de7b46dee5e35052ce4fb03ccf2a0e8fa763dab",
            "status": true,
            "timestamp": "2017-10-21T21:28:00Z",
            "transactionFee": "0.001096053",
            "txnHash": "0xac882a6d6332ced6aac646a54de7b46dee5e35052ce4fb03ccf2a0e8fa763dab",
            "txnIndex": 9,
            "type": 0,
            "value": "0"
        },
        "fund_flow": [
            {
                "amount": "133.7369",
                "from": "0x776d4d1feed14ee47a46837b2b16624feda1fffc",
                "id": 1,
                "isERC1155": false,
                "isERC721": false,
                "isReverted": false,
                "order": 1,
                "to": "0xc1e77cc6c60681284932f10dfe5caefaa9c8b612",
                "token": "0xd01db73e047855efb414e6202098c4be4cd2423b"
            }
        ],
        "token_infos": [
            {
                "address": "0xc02aaa39b223fe8d0a0e5c4f27ead9083c756cc2",
                "decimals": 18
            },
            {
                "address": "0xd01db73e047855efb414e6202098c4be4cd2423b",
                "decimals": 18
            },
            {
                "address": "0xeeeeeeeeeeeeeeeeeeeeeeeeeeeeeeeeeeeeeeee",
                "decimals": 18
            }
        ]
    },
    "address_label": {
        "labels": [
            {
                "address": "0xeeeeeeeeeeeeeeeeeeeeeeeeeeeeeeeeeeeeeeee",
                "label": "Ether"
            },
            {
                "address": "0xd01db73e047855efb414e6202098c4be4cd2423b",
                "label": "UquidCoin: Old UQC Token"
            },
            {
                "address": "0x0000000000000000000000000000000000000001",
                "label": "Precompiled"
            },
            {
                "address": "0x0000000000000000000000000000000000000002",
                "label": "Precompiled"
            },
            {
                "address": "0x0000000000000000000000000000000000000003",
                "label": "Precompiled"
            },
            {
                "address": "0x0000000000000000000000000000000000000004",
                "label": "Precompiled"
            }
        ]
    },
    "trace": {
        "accountLabels": null,
        "dataMap": {
            "-1": {
                "invocation": {
                    "address": "0x776d4d1feed14ee47a46837b2b16624feda1fffc",
                    "callData": "",
                    "decodedMethod": null,
                    "errorInfo": "",
                    "fromAddress": "",
                    "gasUsed": 0,
                    "id": -1,
                    "methodDecoded": false,
                    "operation": "",
                    "output": "",
                    "revert": false,
                    "revertMessage": "",
                    "selector": "",
                    "status": false,
                    "value": ""
                },
                "nodeType": 0
            },
            "0": {
                "invocation": {
                    "address": "0xd01db73e047855efb414e6202098c4be4cd2423b",
                    "callData": "0x000000000000000000000000c1e77cc6c60681284932f10dfe5caefaa9c8b6120000000000000000000000000000000000000000000000073ff8e9fb45f04000",
                    "decodedMethod": {
                        "callParams": [
                            {
                                "name": "_to",
                                "type": "address",
                                "value": "0xc1e77cc6c60681284932f10dfe5caefaa9c8b612"
                            },
                            {
                                "decimalAvailable": true,
                                "name": "_value",
                                "type": "uint256",
                                "value": "133,736,900,000,000,000,000"
                            }
                        ],
                        "constructorArguments": "",
                        "name": "transfer",
                        "returnParams": [
                            {
                                "name": "",
                                "type": "bool",
                                "value": true
                            }
                        ],
                        "signature": "transfer(address,uint256)"
                    },
                    "errorInfo": "",
                    "fromAddress": "0x776d4d1feed14ee47a46837b2b16624feda1fffc",
                    "gasUsed": 52193,
                    "id": 0,
                    "methodDecoded": true,
                    "operation": "CALL",
                    "output": "0x0000000000000000000000000000000000000000000000000000000000000001",
                    "revert": false,
                    "revertMessage": "",
                    "selector": "0xa9059cbb",
                    "status": true,
                    "value": "0"
                },
                "nodeType": 0
            },
            "1": {
                "event": {
                    "contract": "0xd01db73e047855efb414e6202098c4be4cd2423b",
                    "decodedLog": {
                        "name": "Transfer",
                        "params": [
                            {
                                "name": "from",
                                "type": "address",
                                "value": "0x776d4d1feed14ee47a46837b2b16624feda1fffc"
                            },
                            {
                                "name": "to",
                                "type": "address",
                                "value": "0xc1e77cc6c60681284932f10dfe5caefaa9c8b612"
                            },
                            {
                                "decimalAvailable": true,
                                "name": "value",
                                "type": "uint256",
                                "value": "133,736,900,000,000,000,000"
                            }
                        ],
                        "signature": "Transfer(address,address,uint256)"
                    },
                    "id": 1,
                    "logData": "0x0000000000000000000000000000000000000000000000073ff8e9fb45f04000",
                    "logDecoded": true,
                    "operation": "EVENT",
                    "revert": false,
                    "status": true,
                    "topics": [
                        "0xddf252ad1be2c89b69c2b068fc378daa952ba7f163c4a11628f55a4df523b3ef",
                        "0x000000000000000000000000776d4d1feed14ee47a46837b2b16624feda1fffc",
                        "0x000000000000000000000000c1e77cc6c60681284932f10dfe5caefaa9c8b612"
                    ]
                },
                "nodeType": 1
            }
        },
        "gasFlame": [
            {
                "children": [
                    {
                        "children": [
                            {
                                "children": [],
                                "depth": 0,
                                "name": "Initial Gas",
                                "value": 23320
                            },
                            {
                                "children": [],
                                "depth": 0,
                                "name": "Executed Gas",
                                "value": 28873
                            }
                        ],
                        "depth": -1,
                        "name": "Actual Gas Used",
                        "value": 52193
                    },
                    {
                        "children": [],
                        "depth": -1,
                        "name": "Refunded Gas",
                        "value": 0
                    }
                ],
                "depth": -2,
                "name": "Total Gas",
                "value": 52193
            }
        ],
        "isConfirmed": true,
        "mainTrace": [
            {
                "children": [
                    {
                        "children": [
                            {
                                "children": [],
                                "depth": 1,
                                "id": 1,
                                "order": 1
                            }
                        ],
                        "depth": 0,
                        "id": 0,
                        "order": 0
                    }
                ],
                "depth": -1,
                "id": -1,
                "order": -1
            }
        ],
        "mainTraceNodeCount": 2,
        "parentIdMap": {
            "0": -1,
            "1": 0
        },
        "tidyTrace": [
            {
                "children": [
                    {
                        "children": [
                            {
                                "children": [],
                                "depth": 1,
                                "id": 1,
                                "order": 1
                            }
                        ],
                        "depth": 0,
                        "id": 0,
                        "order": 0
                    }
                ],
                "depth": -1,
                "id": -1,
                "order": -1
            }
        ],
        "tidyTraceNodeCount": 2
    },
    "state_change": {
        "stateChanges": [
            {
                "address": "0xd01db73e047855efb414e6202098c4be4cd2423b",
                "erc": "ERC-20",
                "slots": [
                    {
                        "current": "0x00000000000000000000000000000000000000000020f1958c93cb19f283a000",
                        "key": "0x6878c541c4a6d65c7483b9df82f878ecb3ced6323e6675feb2e8b1bd7c541280",
                        "prev": "0x00000000000000000000000000000000000000000020f19ccc8cb5153873e000"
                    },
                    {
                        "current": "0x0000000000000000000000000000000000000000000000073ff8e9fb45f04000",
                        "key": "0xad1289ac4541fb6ff5907804f65f32eb3ef1fecde5226c8e9c3cb75c22058266",
                        "prev": "0x0000000000000000000000000000000000000000000000000000000000000000"
                    }
                ],
                "storageVariables": [
                    {
                        "name": "balances",
                        "type": "mapping(address => uint256)",
                        "value": {
                            "pairs": [
                                {
                                    "key": "0x776d4d1feed14ee47a46837b2b16624feda1fffc",
                                    "value": {
                                        "current": "39826475244570000000000000",
                                        "prev": "39826608981470000000000000",
                                        "typeTag": 1
                                    }
                                },
                                {
                                    "key": "0xc1e77cc6c60681284932f10dfe5caefaa9c8b612",
                                    "value": {
                                        "current": "133736900000000000000",
                                        "prev": "0",
                                        "typeTag": 1
                                    }
                                }
                            ],
                            "typeTag": 4
                        }
                    }
                ]
            }
        ]
    }
}