{
    "balance_change": {
        "balanceChanges": [
            {
                "account": "0x0e0e9eb13c90d55346b469fadb04f5b85f493466",
                "assets": [
                    {
                        "address": "0xd780ae2bf04cd96e577d3d014762f831d97129d0",
                        "amount": "3,151.7525",
                        "iconUrl": "",
                        "isERC1155": false,
                        "isERC721": false,
                        "sign": false,
                        "value": ""
                    }
                ]
            },
            {
                "account": "0x43c7534cafccb213f8319391230480b91a9f5683",
                "assets": [
                    {
                        "address": "0xd780ae2bf04cd96e577d3d014762f831d97129d0",
                        "amount": "3,151.7525",
                        "iconUrl": "",
                        "isERC1155": false,
                        "isERC721": false,
                        "sign": true,
                        "value": ""
                    }
                ]
            }
        ]
    },
    "profile": {
        "basic_info": {
            "baseFee": "",
            "blockNumber": 5155251,
            "callData": "0xa9059cbb00000000000000000000000043c7534cafccb213f8319391230480b91a9f56830000000000000000000000000000000000000000000000aadb5a380cb1574000",
            "debugEnable": true,
            "errorInfo": "",
            "eventCount": 1,
            "feeRecipient": "0xea674fdde714fd979de3edf0f56aa9716b898ec8",
            "formatValue": "0",
            "gasLimit": 2000000,
            "gasPrice": "15",
            "gasUsed": 101158,
            "intTxnCount": 0,
            "internalRevert": false,
            "internalRevertMessage": "",
            "isContractCreation": false,
            "isFlashloan": false,
            "maxFee": "",
            "nonce": 1320,
            "overwritedBlockNumber": -1,
            "priorityFee": "",
            "receiver": "0xd780ae2bf04cd96e577d3d014762f831d97129d0",
            "revertMessage": "",
            "sender": "0x0e0e9eb13c90d55346b469fadb04f5b85f493466",
            "simulationEnable": true,
            "sourceTxnHash": "0xac6a43fbd35c018d31b884a8f88aa2c6eba9e289b01af7fa8ad44450f6334d80",
            "status": true,
            "timestamp": "2018-02-25T18:39:42Z",
            "transactionFee": "0.00151737",
            "txnHash": "0xac6a43fbd35c018d31b884a8f88aa2c6eba9e289b01af7fa8ad44450f6334d80",
            "txnIndex": 6,
            "type": 0,
            "value": "0"
        },
        "fund_flow": [
            {
                "amount": "3,151.7525",
                "from": "0x0e0e9eb13c90d55346b469fadb04f5b85f493466",
                "id": 1,
                "isERC1155": false,
                "isERC721": false,
                "isReverted": false,
                "order": 1,
                "to": "0x43c7534cafccb213f8319391230480b91a9f5683",
                "token": "0xd780ae2bf04cd96e577d3d014762f831d97129d0"
            }
        ],
        "token_infos": [
            {
                "address": "0xc02aaa39b223fe8d0a0e5c4f27ead9083c756cc2",
                "decimals": 18
            },
            {
                "address": "0xd780ae2bf04cd96e577d3d014762f831d97129d0",
                "decimals": 18
            },
            {
                "address": "0xeeeeeeeeeeeeeeeeeeeeeeeeeeeeeeeeeeeeeeee",
                "decimals": 18
            }
        ]
    },
    "address_label": {
        "labels": [
            {
                "address": "0xd780ae2bf04cd96e577d3d014762f831d97129d0",
                "label": "Envion Token"
            },
            {
                "address": "0x0000000000000000000000000000000000000001",
                "label": "Precompiled"
            },
            {
                "address": "0x0000000000000000000000000000000000000002",
                "label": "Precompiled"
            },
            {
                "address": "0x0000000000000000000000000000000000000003",
                "label": "Precompiled"
            },
            {
                "address": "0x0000000000000000000000000000000000000004",
                "label": "Precompiled"
            },
            {
                "address": "0xeeeeeeeeeeeeeeeeeeeeeeeeeeeeeeeeeeeeeeee",
                "label": "Ether"
            }
        ]
    },
    "trace": {
        "accountLabels": null,
        "dataMap": {
            "-1": {
                "invocation": {
                    "address": "0x0e0e9eb13c90d55346b469fadb04f5b85f493466",
                    "callData": "",
                    "decodedMethod": null,
                    "errorInfo": "",
                    "fromAddress": "",
                    "gasUsed": 0,
                    "id": -1,
                    "methodDecoded": false,
                    "operation": "",
                    "output": "",
                    "revert": false,
                    "revertMessage": "",
                    "selector": "",
                    "status": false,
                    "value": ""
                },
                "nodeType": 0
            },
            "0": {
                "invocation": {
                    "address": "0xd780ae2bf04cd96e577d3d014762f831d97129d0",
                    "callData": "0x00000000000000000000000043c7534cafccb213f8319391230480b91a9f56830000000000000000000000000000000000000000000000aadb5a380cb1574000",
                    "decodedMethod": {
                        "callParams": [
                            {
                                "name": "_to",
                                "type": "address",
                                "value": "0x43c7534cafccb213f8319391230480b91a9f5683"
                            },
                            {
                                "decimalAvailable": true,
                                "name": "_value",
                                "type": "uint256",
                                "value": "3,151,752,500,000,000,000,000"
                            }
                        ],
                        "constructorArguments": "",
                        "name": "transfer",
                        "returnParams": [
                            {
                                "name": "success",
                                "type": "bool",
                                "value": true
                            }
                        ],
                        "signature": "transfer(address,uint256)"
                    },
                    "errorInfo": "",
                    "fromAddress": "0x0e0e9eb13c90d55346b469fadb04f5b85f493466",
                    "gasUsed": 101158,
                    "id": 0,
                    "methodDecoded": true,
                    "operation": "CALL",
                    "output": "0x0000000000000000000000000000000000000000000000000000000000000001",
                    "revert": false,
                    "revertMessage": "",
                    "selector": "0xa9059cbb",
                    "status": true,
                    "value": "0"
                },
                "nodeType": 0
            },
            "1": {
                "event": {
                    "contract": "0xd780ae2bf04cd96e577d3d014762f831d97129d0",
                    "decodedLog": {
                        "name": "Transfer",
                        "params": [
                            {
                                "name": "_from",
                                "type": "address",
                                "value": "0x0e0e9eb13c90d55346b469fadb04f5b85f493466"
                            },
                            {
                                "name": "_to",
                                "type": "address",
                                "value": "0x43c7534cafccb213f8319391230480b91a9f5683"
                            },
                            {
                                "decimalAvailable": true,
                                "name": "_value",
                                "type": "uint256",
                                "value": "3,151,752,500,000,000,000,000"
                            }
                        ],
                        "signature": "Transfer(address,address,uint256)"
                    },
                    "id": 1,
                    "logData": "0x0000000000000000000000000000000000000000000000aadb5a380cb1574000",
                    "logDecoded": true,
                    "operation": "EVENT",
                    "revert": false,
                    "status": true,
                    "topics": [
                        "0xddf252ad1be2c89b69c2b068fc378daa952ba7f163c4a11628f55a4df523b3ef",
                        "0x0000000000000000000000000e0e9eb13c90d55346b469fadb04f5b85f493466",
                        "0x00000000000000000000000043c7534cafccb213f8319391230480b91a9f5683"
                    ]
                },
                "nodeType": 1
            }
        },
        "gasFlame": [
            {
                "children": [
                    {
                        "children": [
                            {
                                "children": [],
                                "depth": 0,
                                "name": "Initial Gas",
                                "value": 23320
                            },
                            {
                                "children": [],
                                "depth": 0,
                                "name": "Executed Gas",
                                "value": 77838
                            }
                        ],
                        "depth": -1,
                        "name": "Actual Gas Used",
                        "value": 101158
                    },
                    {
                        "children": [],
                        "depth": -1,
                        "name": "Refunded Gas",
                        "value": 0
                    }
                ],
                "depth": -2,
                "name": "Total Gas",
                "value": 101158
            }
        ],
        "isConfirmed": true,
        "mainTrace": [
            {
                "children": [
                    {
                        "children": [
                            {
                                "children": [],
                                "depth": 1,
                                "id": 1,
                                "order": 1
                            }
                        ],
                        "depth": 0,
                        "id": 0,
                        "order": 0
                    }
                ],
                "depth": -1,
                "id": -1,
                "order": -1
            }
        ],
        "mainTraceNodeCount": 2,
        "parentIdMap": {
            "0": -1,
            "1": 0
        },
        "tidyTrace": [
            {
                "children": [
                    {
                        "children": [
                            {
                                "children": [],
                                "depth": 1,
                                "id": 1,
                                "order": 1
                            }
                        ],
                        "depth": 0,
                        "id": 0,
                        "order": 0
                    }
                ],
                "depth": -1,
                "id": -1,
                "order": -1
            }
        ],
        "tidyTraceNodeCount": 2
    },
    "state_change": {
        "stateChanges": [
            {
                "address": "0xd780ae2bf04cd96e577d3d014762f831d97129d0",
                "erc": "ERC-20",
                "slots": [
                    {
                        "current": "0x0000000000000000000000000000000000000000000000aadb5a380cb1574000",
                        "key": "0x0773922feb7ccfead065802a1c88b6f32e5cc354dba93c5418098035590a11ed",
                        "prev": "0x0000000000000000000000000000000000000000000000000000000000000000"
                    },
                    {
                        "current": "0x00000000000000000000000000000000000000000000000000000000000088f5",
                        "key": "0x0000000000000000000000000000000000000000000000000000000000000015",
                        "prev": "0x00000000000000000000000000000000000000000000000000000000000088f4"
                    },
                    {
                        "current": "0x00000000000000000000000043c7534cafccb213f8319391230480b91a9f5683",
                        "key": "0x55f448fdea98c4d29eb340757ef0a66cd03dbb9538908a6a81d96026b71f4d69",
                        "prev": "0x0000000000000000000000000000000000000000000000000000000000000000"
                    },
                    {
                        "current": "0x0000000000000000000000000000000000000000000000000000000000000001",
                        "key": "0xf67c3930b5db35f37f08dab16f41d2e48eea57ddfc832edea2e5c517ee17d537",
                        "prev": "0x0000000000000000000000000000000000000000000000000000000000000000"
                    },
                    {
                        "current": "0x000000000000000000000000000000000000000000013f917e2f517db515e538",
                        "key": "0x54b59a11f2bf903d062db9cddb07282937b02038d336620329e954b4160623a0",
                        "prev": "0x00000000000000000000000000000000000000000001403c5989898a666d2538"
                    }
                ],
                "storageVariables": [
                    {
                        "name": "isHolder",
                        "type": "mapping(address => bool)",
                        "value": {
                            "pairs": [
                                {
                                    "key": "0x43c7534cafccb213f8319391230480b91a9f5683",
                                    "value": {
                                        "current": "true",
                                        "prev": "false",
                                        "typeTag": 1
                                    }
                                }
                            ],
                            "typeTag": 4
                        }
                    },
                    {
                        "name": "balances",
                        "type": "mapping(address => uint256)",
                        "value": {
                            "pairs": [
                                {
                                    "key": "0x0e0e9eb13c90d55346b469fadb04f5b85f493466",
                                    "value": {
                                        "current": "1509118778501877743347000",
                                        "prev": "1512270531001877743347000",
                                        "typeTag": 1
                                    }
                                },
                                {
                                    "key": "0x43c7534cafccb213f8319391230480b91a9f5683",
                                    "value": {
                                        "current": "3151752500000000000000",
                                        "prev": "0",
                                        "typeTag": 1
                                    }
                                }
                            ],
                            "typeTag": 4
                        }
                    },
                    {
                        "name": "holders",
                        "type": "address[]",
                        "value": {
                            "elemType": "address",
                            "elems": [
                                {
                                    "index": 35060,
                                    "value": {
                                        "current": "0x43c7534cafccb213f8319391230480b91a9f5683",
                                        "prev": "0x0000000000000000000000000000000000000000",
                                        "typeTag": 1
                                    }
                                }
                            ],
                            "typeTag": 2
                        }
                    }
                ]
            }
        ]
    }
}