{
    "balance_change": {
        "balanceChanges": [
            {
                "account": "0xf7a1f2a1b7664815a8127be755ebf8a0a01b0f01",
                "assets": [
                    {
                        "address": "0xeeeeeeeeeeeeeeeeeeeeeeeeeeeeeeeeeeeeeeee",
                        "amount": "0.84",
                        "iconUrl": "https://assets.blocksec.com/image/1663669189317-3.png",
                        "isERC1155": false,
                        "isERC721": false,
                        "sign": false,
                        "value": "1336.8767999999999847"
                    }
                ]
            },
            {
                "account": "0xb8901acb165ed027e32754e0ffe830802919727f",
                "assets": [
                    {
                        "address": "0xeeeeeeeeeeeeeeeeeeeeeeeeeeeeeeeeeeeeeeee",
                        "amount": "0.83265",
                        "iconUrl": "https://assets.blocksec.com/image/1663669189317-3.png",
                        "isERC1155": false,
                        "isERC721": false,
                        "sign": true,
                        "value": "1325.1791279999999849"
                    }
                ]
            },
            {
                "account": "0xe6b738da243e8fa2a0ed5915645789add5de5152",
                "assets": [
                    {
                        "address": "0xeeeeeeeeeeeeeeeeeeeeeeeeeeeeeeeeeeeeeeee",
                        "amount": "0.00735",
                        "iconUrl": "https://assets.blocksec.com/image/1663669189317-3.png",
                        "isERC1155": false,
                        "isERC721": false,
                        "sign": true,
                        "value": "11.697671999999999866"
                    }
                ]
            }
        ]
    },
    "profile": {
        "basic_info": {
            "baseFee": "7.156555037",
            "blockNumber": 18312756,
            "callData": "0x3ce33bff000000000000000000000000000000000000000000000000000000000000008000000000000000000000000000000000000000000000000000000000000000000000000000000000000000000000000000000000000000000ba8478cab54000000000000000000000000000000000000000000000000000000000000000000c0000000000000000000000000000000000000000000000000000000000000000f736f636b6574416461707465725632000000000000000000000000000000000000000000000000000000000000000000000000000000000000000000000001a00000000000000000000000003a23f943181408eac424116af7b7790c94cb97a50000000000000000000000003a23f943181408eac424116af7b7790c94cb97a5000000000000000000000000000000000000000000000000000000000000008900000000000000000000000000000000000000000000000000000000000000000000000000000000000000007ceb23fd6bc0add59e62ac25578270cff1b9f6190000000000000000000000000000000000000000000000000b8e2ac3703aa0000000000000000000000000000000000000000000000000000000000000000140000000000000000000000000000000000000000000000000001a1cc93b196000000000000000000000000000e6b738da243e8fa2a0ed5915645789add5de5152000000000000000000000000000000000000000000000000000000000000004400000014ad1977e5b8901acb165ed027e32754e0ffe830802919727f00000089f7a1f2a1b7664815a8127be755ebf8a0a01b0f0100000000000000000b7f604f42de2c0000000000000000000000000000000000000000000000000000000000",
            "debugEnable": true,
            "errorInfo": "",
            "eventCount": 6,
            "feeRecipient": "0x1f9090aae28b8a3dceadf281b0f12828e676c326",
            "formatValue": "0.84",
            "gasLimit": 153993,
            "gasPrice": "7.256555037",
            "gasUsed": 148552,
            "intTxnCount": 10,
            "internalRevert": false,
            "internalRevertMessage": "",
            "isContractCreation": false,
            "isFlashloan": false,
            "maxFee": "9.555164911",
            "nonce": 370,
            "overwritedBlockNumber": -1,
            "priorityFee": "0.1",
            "receiver": "0x0439e60f02a8900a951603950d8d4527f400c3f1",
            "revertMessage": "",
            "sender": "0xf7a1f2a1b7664815a8127be755ebf8a0a01b0f01",
            "simulationEnable": true,
            "sourceTxnHash": "0xac462f0caaad6ca4c6c4d00bda976f362382ee83e1165e6d1b67925fe7b895d6",
            "status": true,
            "timestamp": "2023-10-09T11:56:11Z",
            "transactionFee": "0.001077975763856424",
            "txnHash": "0xac462f0caaad6ca4c6c4d00bda976f362382ee83e1165e6d1b67925fe7b895d6",
            "txnIndex": 100,
            "type": 2,
            "value": "840000000000000000"
        },
        "fund_flow": [
            {
                "amount": "0.84",
                "from": "0xf7a1f2a1b7664815a8127be755ebf8a0a01b0f01",
                "id": 1,
                "isERC1155": false,
                "isERC721": false,
                "isReverted": false,
                "order": 1,
                "to": "0x0439e60f02a8900a951603950d8d4527f400c3f1",
                "token": "0xeeeeeeeeeeeeeeeeeeeeeeeeeeeeeeeeeeeeeeee"
            },
            {
                "amount": "0.84",
                "from": "0x0439e60f02a8900a951603950d8d4527f400c3f1",
                "id": 2,
                "isERC1155": false,
                "isERC721": false,
                "isReverted": false,
                "order": 2,
                "to": "0x9a47f3289794e9bbc6a3c571f6d96ad4e7baed16",
                "token": "0xeeeeeeeeeeeeeeeeeeeeeeeeeeeeeeeeeeeeeeee"
            },
            {
                "amount": "0.00735",
                "from": "0x9a47f3289794e9bbc6a3c571f6d96ad4e7baed16",
                "id": 3,
                "isERC1155": false,
                "isERC721": false,
                "isReverted": false,
                "order": 3,
                "to": "0xe6b738da243e8fa2a0ed5915645789add5de5152",
                "token": "0xeeeeeeeeeeeeeeeeeeeeeeeeeeeeeeeeeeeeeeee"
            },
            {
                "amount": "0.83265",
                "from": "0x9a47f3289794e9bbc6a3c571f6d96ad4e7baed16",
                "id": 4,
                "isERC1155": false,
                "isERC721": false,
                "isReverted": false,
                "order": 4,
                "to": "0x3a23f943181408eac424116af7b7790c94cb97a5",
                "token": "0xeeeeeeeeeeeeeeeeeeeeeeeeeeeeeeeeeeeeeeee"
            },
            {
                "amount": "0.83265",
                "from": "0x3a23f943181408eac424116af7b7790c94cb97a5",
                "id": 5,
                "isERC1155": false,
                "isERC721": false,
                "isReverted": false,
                "order": 5,
                "to": "0xb8901acb165ed027e32754e0ffe830802919727f",
                "token": "0xeeeeeeeeeeeeeeeeeeeeeeeeeeeeeeeeeeeeeeee"
            }
        ],
        "token_infos": [
            {
                "address": "0xc02aaa39b223fe8d0a0e5c4f27ead9083c756cc2",
                "decimals": 18
            },
            {
                "address": "0xeeeeeeeeeeeeeeeeeeeeeeeeeeeeeeeeeeeeeeee",
                "decimals": 18
            }
        ]
    },
    "address_label": {
        "labels": [
            {
                "address": "0x0000000000000000000000000000000000000000",
                "label": "Null Address"
            },
            {
                "address": "0x2197a1d9af24b4d6a64bff95b4c29fcd3ff28c30",
                "label": "HopImplL1V2"
            },
            {
                "address": "0x26a1fddacfb9f6f5072ee5636ed3429101e6c069",
                "label": "PolygonMessengerWrapper"
            },
            {
                "address": "0xfe5e5d361b2ad62c541bab87c45a0b9b018389a2",
                "label": "Polygon (Matic): Fx Root"
            },
            {
                "address": "0xeeeeeeeeeeeeeeeeeeeeeeeeeeeeeeeeeeeeeeee",
                "label": "Ether"
            },
            {
                "address": "0xb8901acb165ed027e32754e0ffe830802919727f",
                "label": "Hop Protocol: Ethereum Bridge"
            },
            {
                "address": "0x28e4f3a7f651294b9564800b2d01f35189a5bfbe",
                "label": "Polygon (Matic): State Syncer"
            },
            {
                "address": "0xe6b738da243e8fa2a0ed5915645789add5de5152",
                "label": "GnosisSafeProxy_e6b7_5152"
            },
            {
                "address": "0x0439e60f02a8900a951603950d8d4527f400c3f1",
                "label": "MetaMask: Meta Bridge"
            },
            {
                "address": "0x0000000000000000000000000000000000000004",
                "label": "Precompiled"
            },
            {
                "address": "0xd9db270c1b5e3bd161e8c8503c55ceabee709552",
                "label": "Safe: Singleton 1.3.0"
            },
            {
                "address": "0x3a23f943181408eac424116af7b7790c94cb97a5",
                "label": "Socket: Gateway"
            },
            {
                "address": "0x0000000000000000000000000000000000000001",
                "label": "Precompiled"
            },
            {
                "address": "0x0000000000000000000000000000000000000002",
                "label": "Precompiled"
            },
            {
                "address": "0x0000000000000000000000000000000000000003",
                "label": "Precompiled"
            }
        ]
    },
    "trace": {
        "accountLabels": null,
        "dataMap": {
            "-1": {
                "invocation": {
                    "address": "0xf7a1f2a1b7664815a8127be755ebf8a0a01b0f01",
                    "callData": "",
                    "decodedMethod": null,
                    "errorInfo": "",
                    "fromAddress": "",
                    "gasUsed": 0,
                    "id": -1,
                    "methodDecoded": false,
                    "operation": "",
                    "output": "",
                    "revert": false,
                    "revertMessage": "",
                    "selector": "",
                    "status": false,
                    "value": ""
                },
                "nodeType": 0
            },
            "0": {
                "invocation": {
                    "address": "0x0439e60f02a8900a951603950d8d4527f400c3f1",
                    "callData": "0x000000000000000000000000000000000000000000000000000000000000008000000000000000000000000000000000000000000000000000000000000000000000000000000000000000000000000000000000000000000ba8478cab54000000000000000000000000000000000000000000000000000000000000000000c0000000000000000000000000000000000000000000000000000000000000000f736f636b6574416461707465725632000000000000000000000000000000000000000000000000000000000000000000000000000000000000000000000001a00000000000000000000000003a23f943181408eac424116af7b7790c94cb97a50000000000000000000000003a23f943181408eac424116af7b7790c94cb97a5000000000000000000000000000000000000000000000000000000000000008900000000000000000000000000000000000000000000000000000000000000000000000000000000000000007ceb23fd6bc0add59e62ac25578270cff1b9f6190000000000000000000000000000000000000000000000000b8e2ac3703aa0000000000000000000000000000000000000000000000000000000000000000140000000000000000000000000000000000000000000000000001a1cc93b196000000000000000000000000000e6b738da243e8fa2a0ed5915645789add5de5152000000000000000000000000000000000000000000000000000000000000004400000014ad1977e5b8901acb165ed027e32754e0ffe830802919727f00000089f7a1f2a1b7664815a8127be755ebf8a0a01b0f0100000000000000000b7f604f42de2c0000000000000000000000000000000000000000000000000000000000",
                    "decodedMethod": {
                        "callParams": [
                            {
                                "name": "adapterId",
                                "type": "string",
                                "value": "socketAdapterV2"
                            },
                            {
                                "name": "srcToken",
                                "type": "address",
                                "value": "0x0000000000000000000000000000000000000000"
                            },
                            {
                                "name": "amount",
                                "type": "uint256",
                                "value": "840,000,000,000,000,000"
                            },
                            {
                                "name": "data",
                                "type": "bytes",
                                "value": "0x0000000000000000000000003a23f943181408eac424116af7b7790c94cb97a50000000000000000000000003a23f943181408eac424116af7b7790c94cb97a5000000000000000000000000000000000000000000000000000000000000008900000000000000000000000000000000000000000000000000000000000000000000000000000000000000007ceb23fd6bc0add59e62ac25578270cff1b9f6190000000000000000000000000000000000000000000000000b8e2ac3703aa0000000000000000000000000000000000000000000000000000000000000000140000000000000000000000000000000000000000000000000001a1cc93b196000000000000000000000000000e6b738da243e8fa2a0ed5915645789add5de5152000000000000000000000000000000000000000000000000000000000000004400000014ad1977e5b8901acb165ed027e32754e0ffe830802919727f00000089f7a1f2a1b7664815a8127be755ebf8a0a01b0f0100000000000000000b7f604f42de2c0000000000000000000000000000000000000000000000000000000000"
                            }
                        ],
                        "constructorArguments": "",
                        "name": "bridge",
                        "returnParams": [],
                        "signature": "bridge(string,address,uint256,bytes)"
                    },
                    "errorInfo": "",
                    "fromAddress": "0xf7a1f2a1b7664815a8127be755ebf8a0a01b0f01",
                    "gasUsed": 148552,
                    "id": 0,
                    "methodDecoded": true,
                    "operation": "CALL",
                    "output": "",
                    "revert": false,
                    "revertMessage": "",
                    "selector": "0x3ce33bff",
                    "status": true,
                    "value": "0.84"
                },
                "nodeType": 0
            },
            "1": {
                "invocation": {
                    "address": "0x9a47f3289794e9bbc6a3c571f6d96ad4e7baed16",
                    "callData": "0x0000000000000000000000007ac070f096c6e20931c3dc54f927446be232618b000000000000000000000000000000000000000000000000000000000000004000000000000000000000000000000000000000000000000000000000000001c4ab138240000000000000000000000000f7a1f2a1b7664815a8127be755ebf8a0a01b0f010000000000000000000000003a23f943181408eac424116af7b7790c94cb97a50000000000000000000000003a23f943181408eac424116af7b7790c94cb97a5000000000000000000000000000000000000000000000000000000000000008900000000000000000000000000000000000000000000000000000000000000000000000000000000000000007ceb23fd6bc0add59e62ac25578270cff1b9f6190000000000000000000000000000000000000000000000000b8e2ac3703aa0000000000000000000000000000000000000000000000000000000000000000140000000000000000000000000000000000000000000000000001a1cc93b196000000000000000000000000000e6b738da243e8fa2a0ed5915645789add5de5152000000000000000000000000000000000000000000000000000000000000004400000014ad1977e5b8901acb165ed027e32754e0ffe830802919727f00000089f7a1f2a1b7664815a8127be755ebf8a0a01b0f0100000000000000000b7f604f42de2c000000000000000000000000000000000000000000000000000000000000000000000000000000000000000000000000000000000000000000",
                    "decodedMethod": {
                        "callParams": [
                            {
                                "name": "_externalContractAddress",
                                "type": "address",
                                "value": "0x7ac070f096c6e20931c3dc54f927446be232618b"
                            },
                            {
                                "name": "payload",
                                "type": "bytes",
                                "value": "0xab138240000000000000000000000000f7a1f2a1b7664815a8127be755ebf8a0a01b0f010000000000000000000000003a23f943181408eac424116af7b7790c94cb97a50000000000000000000000003a23f943181408eac424116af7b7790c94cb97a5000000000000000000000000000000000000000000000000000000000000008900000000000000000000000000000000000000000000000000000000000000000000000000000000000000007ceb23fd6bc0add59e62ac25578270cff1b9f6190000000000000000000000000000000000000000000000000b8e2ac3703aa0000000000000000000000000000000000000000000000000000000000000000140000000000000000000000000000000000000000000000000001a1cc93b196000000000000000000000000000e6b738da243e8fa2a0ed5915645789add5de5152000000000000000000000000000000000000000000000000000000000000004400000014ad1977e5b8901acb165ed027e32754e0ffe830802919727f00000089f7a1f2a1b7664815a8127be755ebf8a0a01b0f0100000000000000000b7f604f42de2c0000000000000000000000000000000000000000000000000000000000"
                            }
                        ],
                        "constructorArguments": "",
                        "name": "bridge",
                        "returnParams": [],
                        "signature": "bridge(address,bytes)"
                    },
                    "errorInfo": "",
                    "fromAddress": "0x0439e60f02a8900a951603950d8d4527f400c3f1",
                    "gasUsed": 103596,
                    "id": 1,
                    "methodDecoded": true,
                    "operation": "CALL",
                    "output": "",
                    "revert": false,
                    "revertMessage": "",
                    "selector": "0x4cfee326",
                    "status": true,
                    "value": "0.84"
                },
                "nodeType": 0
            },
            "10": {
                "invocation": {
                    "address": "0x26a1fddacfb9f6f5072ee5636ed3429101e6c069",
                    "callData": "0x000000000000000000000000000000000000000000000000000000000000002000000000000000000000000000000000000000000000000000000000000000c4cc29a306000000000000000000000000f7a1f2a1b7664815a8127be755ebf8a0a01b0f010000000000000000000000000000000000000000000000000b8e2ac3703aa0000000000000000000000000000000000000000000000000000b7f604f42de2c0000000000000000000000000000000000000000000000000000000000652d24db0000000000000000000000000000000000000000000000000000000000000000000000000000000000000000000000000000000000000000000000000000000000000000000000000000000000000000000000000000000000000000",
                    "decodedMethod": {
                        "callParams": [
                            {
                                "name": "_calldata",
                                "type": "bytes",
                                "value": "0xcc29a306000000000000000000000000f7a1f2a1b7664815a8127be755ebf8a0a01b0f010000000000000000000000000000000000000000000000000b8e2ac3703aa0000000000000000000000000000000000000000000000000000b7f604f42de2c0000000000000000000000000000000000000000000000000000000000652d24db00000000000000000000000000000000000000000000000000000000000000000000000000000000000000000000000000000000000000000000000000000000"
                            }
                        ],
                        "constructorArguments": "",
                        "name": "sendCrossDomainMessage",
                        "returnParams": [],
                        "signature": "sendCrossDomainMessage(bytes)"
                    },
                    "errorInfo": "",
                    "fromAddress": "0xb8901acb165ed027e32754e0ffe830802919727f",
                    "gasUsed": 32424,
                    "id": 10,
                    "methodDecoded": true,
                    "operation": "CALL",
                    "output": "",
                    "revert": false,
                    "revertMessage": "",
                    "selector": "0x419cb550",
                    "status": true,
                    "value": "0"
                },
                "nodeType": 0
            },
            "11": {
                "invocation": {
                    "address": "0xfe5e5d361b2ad62c541bab87c45a0b9b018389a2",
                    "callData": "0x000000000000000000000000f2119c5aeb734590477eae272990773df722b49d00000000000000000000000000000000000000000000000000000000000000400000000000000000000000000000000000000000000000000000000000000140000000000000000000000000b8901acb165ed027e32754e0ffe830802919727f000000000000000000000000000000000000000000000000000000000000004000000000000000000000000000000000000000000000000000000000000000c4cc29a306000000000000000000000000f7a1f2a1b7664815a8127be755ebf8a0a01b0f010000000000000000000000000000000000000000000000000b8e2ac3703aa0000000000000000000000000000000000000000000000000000b7f604f42de2c0000000000000000000000000000000000000000000000000000000000652d24db0000000000000000000000000000000000000000000000000000000000000000000000000000000000000000000000000000000000000000000000000000000000000000000000000000000000000000000000000000000000000000",
                    "decodedMethod": {
                        "callParams": [
                            {
                                "name": "_receiver",
                                "type": "address",
                                "value": "0xf2119c5aeb734590477eae272990773df722b49d"
                            },
                            {
                                "name": "_data",
                                "type": "bytes",
                                "value": "0x000000000000000000000000b8901acb165ed027e32754e0ffe830802919727f000000000000000000000000000000000000000000000000000000000000004000000000000000000000000000000000000000000000000000000000000000c4cc29a306000000000000000000000000f7a1f2a1b7664815a8127be755ebf8a0a01b0f010000000000000000000000000000000000000000000000000b8e2ac3703aa0000000000000000000000000000000000000000000000000000b7f604f42de2c0000000000000000000000000000000000000000000000000000000000652d24db0000000000000000000000000000000000000000000000000000000000000000000000000000000000000000000000000000000000000000000000000000000000000000000000000000000000000000000000000000000000000000"
                            }
                        ],
                        "constructorArguments": "",
                        "name": "sendMessageToChild",
                        "returnParams": [],
                        "signature": "sendMessageToChild(address,bytes)"
                    },
                    "errorInfo": "",
                    "fromAddress": "0x26a1fddacfb9f6f5072ee5636ed3429101e6c069",
                    "gasUsed": 22852,
                    "id": 11,
                    "methodDecoded": true,
                    "operation": "CALL",
                    "output": "",
                    "revert": false,
                    "revertMessage": "",
                    "selector": "0xb4720477",
                    "status": true,
                    "value": "0"
                },
                "nodeType": 0
            },
            "12": {
                "invocation": {
                    "address": "0x28e4f3a7f651294b9564800b2d01f35189a5bfbe",
                    "callData": "0x0000000000000000000000008397259c983751daf40400790063935a11afa28a000000000000000000000000000000000000000000000000000000000000004000000000000000000000000000000000000000000000000000000000000001c000000000000000000000000026a1fddacfb9f6f5072ee5636ed3429101e6c069000000000000000000000000f2119c5aeb734590477eae272990773df722b49d00000000000000000000000000000000000000000000000000000000000000600000000000000000000000000000000000000000000000000000000000000140000000000000000000000000b8901acb165ed027e32754e0ffe830802919727f000000000000000000000000000000000000000000000000000000000000004000000000000000000000000000000000000000000000000000000000000000c4cc29a306000000000000000000000000f7a1f2a1b7664815a8127be755ebf8a0a01b0f010000000000000000000000000000000000000000000000000b8e2ac3703aa0000000000000000000000000000000000000000000000000000b7f604f42de2c0000000000000000000000000000000000000000000000000000000000652d24db0000000000000000000000000000000000000000000000000000000000000000000000000000000000000000000000000000000000000000000000000000000000000000000000000000000000000000000000000000000000000000",
                    "decodedMethod": {
                        "callParams": [
                            {
                                "name": "receiver",
                                "type": "address",
                                "value": "0x8397259c983751daf40400790063935a11afa28a"
                            },
                            {
                                "name": "data",
                                "type": "bytes",
                                "value": "0x00000000000000000000000026a1fddacfb9f6f5072ee5636ed3429101e6c069000000000000000000000000f2119c5aeb734590477eae272990773df722b49d00000000000000000000000000000000000000000000000000000000000000600000000000000000000000000000000000000000000000000000000000000140000000000000000000000000b8901acb165ed027e32754e0ffe830802919727f000000000000000000000000000000000000000000000000000000000000004000000000000000000000000000000000000000000000000000000000000000c4cc29a306000000000000000000000000f7a1f2a1b7664815a8127be755ebf8a0a01b0f010000000000000000000000000000000000000000000000000b8e2ac3703aa0000000000000000000000000000000000000000000000000000b7f604f42de2c0000000000000000000000000000000000000000000000000000000000652d24db0000000000000000000000000000000000000000000000000000000000000000000000000000000000000000000000000000000000000000000000000000000000000000000000000000000000000000000000000000000000000000"
                            }
                        ],
                        "constructorArguments": "",
                        "name": "syncState",
                        "returnParams": [],
                        "signature": "syncState(address,bytes)"
                    },
                    "errorInfo": "",
                    "fromAddress": "0xfe5e5d361b2ad62c541bab87c45a0b9b018389a2",
                    "gasUsed": 13698,
                    "id": 12,
                    "methodDecoded": true,
                    "operation": "CALL",
                    "output": "",
                    "revert": false,
                    "revertMessage": "",
                    "selector": "0x16f19831",
                    "status": true,
                    "value": "0"
                },
                "nodeType": 0
            },
            "13": {
                "event": {
                    "contract": "0x28e4f3a7f651294b9564800b2d01f35189a5bfbe",
                    "decodedLog": {
                        "name": "StateSynced",
                        "params": [
                            {
                                "name": "id",
                                "type": "uint256",
                                "value": "2,786,385"
                            },
                            {
                                "name": "contractAddress",
                                "type": "address",
                                "value": "0x8397259c983751daf40400790063935a11afa28a"
                            },
                            {
                                "name": "data",
                                "type": "bytes",
                                "value": "0x00000000000000000000000026a1fddacfb9f6f5072ee5636ed3429101e6c069000000000000000000000000f2119c5aeb734590477eae272990773df722b49d00000000000000000000000000000000000000000000000000000000000000600000000000000000000000000000000000000000000000000000000000000140000000000000000000000000b8901acb165ed027e32754e0ffe830802919727f000000000000000000000000000000000000000000000000000000000000004000000000000000000000000000000000000000000000000000000000000000c4cc29a306000000000000000000000000f7a1f2a1b7664815a8127be755ebf8a0a01b0f010000000000000000000000000000000000000000000000000b8e2ac3703aa0000000000000000000000000000000000000000000000000000b7f604f42de2c0000000000000000000000000000000000000000000000000000000000652d24db0000000000000000000000000000000000000000000000000000000000000000000000000000000000000000000000000000000000000000000000000000000000000000000000000000000000000000000000000000000000000000"
                            }
                        ],
                        "signature": "StateSynced(uint256,address,bytes)"
                    },
                    "id": 13,
                    "logData": "0x000000000000000000000000000000000000000000000000000000000000002000000000000000000000000000000000000000000000000000000000000001c000000000000000000000000026a1fddacfb9f6f5072ee5636ed3429101e6c069000000000000000000000000f2119c5aeb734590477eae272990773df722b49d00000000000000000000000000000000000000000000000000000000000000600000000000000000000000000000000000000000000000000000000000000140000000000000000000000000b8901acb165ed027e32754e0ffe830802919727f000000000000000000000000000000000000000000000000000000000000004000000000000000000000000000000000000000000000000000000000000000c4cc29a306000000000000000000000000f7a1f2a1b7664815a8127be755ebf8a0a01b0f010000000000000000000000000000000000000000000000000b8e2ac3703aa0000000000000000000000000000000000000000000000000000b7f604f42de2c0000000000000000000000000000000000000000000000000000000000652d24db0000000000000000000000000000000000000000000000000000000000000000000000000000000000000000000000000000000000000000000000000000000000000000000000000000000000000000000000000000000000000000",
                    "logDecoded": true,
                    "operation": "EVENT",
                    "revert": false,
                    "status": true,
                    "topics": [
                        "0x103fed9db65eac19c4d870f49ab7520fe03b99f1838e5996caf47e9e43308392",
                        "0x00000000000000000000000000000000000000000000000000000000002a8451",
                        "0x0000000000000000000000008397259c983751daf40400790063935a11afa28a"
                    ]
                },
                "nodeType": 1
            },
            "14": {
                "event": {
                    "contract": "0xb8901acb165ed027e32754e0ffe830802919727f",
                    "decodedLog": {
                        "name": "TransferSentToL2",
                        "params": [
                            {
                                "name": "chainId",
                                "type": "uint256",
                                "value": "137"
                            },
                            {
                                "name": "recipient",
                                "type": "address",
                                "value": "0xf7a1f2a1b7664815a8127be755ebf8a0a01b0f01"
                            },
                            {
                                "name": "relayer",
                                "type": "address",
                                "value": "0x0000000000000000000000000000000000000000"
                            },
                            {
                                "name": "amount",
                                "type": "uint256",
                                "value": "832,650,000,000,000,000"
                            },
                            {
                                "name": "amountOutMin",
                                "type": "uint256",
                                "value": "828,486,750,000,000,000"
                            },
                            {
                                "name": "deadline",
                                "type": "uint256",
                                "value": "1,697,457,371"
                            },
                            {
                                "name": "relayerFee",
                                "type": "uint256",
                                "value": "0"
                            }
                        ],
                        "signature": "TransferSentToL2(uint256,address,uint256,uint256,uint256,address,uint256)"
                    },
                    "id": 14,
                    "logData": "0x0000000000000000000000000000000000000000000000000b8e2ac3703aa0000000000000000000000000000000000000000000000000000b7f604f42de2c0000000000000000000000000000000000000000000000000000000000652d24db0000000000000000000000000000000000000000000000000000000000000000",
                    "logDecoded": true,
                    "operation": "EVENT",
                    "revert": false,
                    "status": true,
                    "topics": [
                        "0x0a0607688c86ec1775abcdbab7b33a3a35a6c9cde677c9be880150c231cc6b0b",
                        "0x0000000000000000000000000000000000000000000000000000000000000089",
                        "0x000000000000000000000000f7a1f2a1b7664815a8127be755ebf8a0a01b0f01",
                        "0x0000000000000000000000000000000000000000000000000000000000000000"
                    ]
                },
                "nodeType": 1
            },
            "15": {
                "event": {
                    "contract": "0x3a23f943181408eac424116af7b7790c94cb97a5",
                    "decodedLog": {
                        "name": "SocketBridge",
                        "params": [
                            {
                                "name": "amount",
                                "type": "uint256",
                                "value": "832,650,000,000,000,000"
                            },
                            {
                                "name": "token",
                                "type": "address",
                                "value": "0xeeeeeeeeeeeeeeeeeeeeeeeeeeeeeeeeeeeeeeee"
                            },
                            {
                                "name": "toChainId",
                                "type": "uint256",
                                "value": "137"
                            },
                            {
                                "name": "bridgeName",
                                "type": "bytes32",
                                "value": "0x837ed841e30438f54fb6b0097c30a5c4f64b47545c3df655bcd6e44bb8991e37"
                            },
                            {
                                "name": "sender",
                                "type": "address",
                                "value": "0x9a47f3289794e9bbc6a3c571f6d96ad4e7baed16"
                            },
                            {
                                "name": "receiver",
                                "type": "address",
                                "value": "0xf7a1f2a1b7664815a8127be755ebf8a0a01b0f01"
                            },
                            {
                                "name": "metadata",
                                "type": "bytes32",
                                "value": "0x0100000000000000000000000000000000000000000000000000000000000000"
                            }
                        ],
                        "signature": "SocketBridge(uint256,address,uint256,bytes32,address,address,bytes32)"
                    },
                    "id": 15,
                    "logData": "0x0000000000000000000000000000000000000000000000000b8e2ac3703aa000000000000000000000000000eeeeeeeeeeeeeeeeeeeeeeeeeeeeeeeeeeeeeeee0000000000000000000000000000000000000000000000000000000000000089837ed841e30438f54fb6b0097c30a5c4f64b47545c3df655bcd6e44bb8991e370000000000000000000000009a47f3289794e9bbc6a3c571f6d96ad4e7baed16000000000000000000000000f7a1f2a1b7664815a8127be755ebf8a0a01b0f010100000000000000000000000000000000000000000000000000000000000000",
                    "logDecoded": true,
                    "operation": "EVENT",
                    "revert": false,
                    "status": true,
                    "topics": [
                        "0x74594da9e31ee4068e17809037db37db496702bf7d8d63afe6f97949277d1609"
                    ]
                },
                "nodeType": 1
            },
            "16": {
                "event": {
                    "contract": "0x9a47f3289794e9bbc6a3c571f6d96ad4e7baed16",
                    "decodedLog": null,
                    "id": 16,
                    "logData": "0x000000000000000000000000f7a1f2a1b7664815a8127be755ebf8a0a01b0f010000000000000000000000003a23f943181408eac424116af7b7790c94cb97a5000000000000000000000000000000000000000000000000000000000000008900000000000000000000000000000000000000000000000000000000000000000000000000000000000000007ceb23fd6bc0add59e62ac25578270cff1b9f6190000000000000000000000000000000000000000000000000b8e2ac3703aa000",
                    "logDecoded": false,
                    "operation": "EVENT",
                    "revert": false,
                    "status": true,
                    "topics": [
                        "0x831bac9533a2034226daa21109dbd4f887674f0fe4877e1a8b35b3ffe1bdce76"
                    ]
                },
                "nodeType": 1
            },
            "2": {
                "invocation": {
                    "address": "0x7ac070f096c6e20931c3dc54f927446be232618b",
                    "callData": "0x000000000000000000000000f7a1f2a1b7664815a8127be755ebf8a0a01b0f010000000000000000000000003a23f943181408eac424116af7b7790c94cb97a50000000000000000000000003a23f943181408eac424116af7b7790c94cb97a5000000000000000000000000000000000000000000000000000000000000008900000000000000000000000000000000000000000000000000000000000000000000000000000000000000007ceb23fd6bc0add59e62ac25578270cff1b9f6190000000000000000000000000000000000000000000000000b8e2ac3703aa0000000000000000000000000000000000000000000000000000000000000000140000000000000000000000000000000000000000000000000001a1cc93b196000000000000000000000000000e6b738da243e8fa2a0ed5915645789add5de5152000000000000000000000000000000000000000000000000000000000000004400000014ad1977e5b8901acb165ed027e32754e0ffe830802919727f00000089f7a1f2a1b7664815a8127be755ebf8a0a01b0f0100000000000000000b7f604f42de2c0000000000000000000000000000000000000000000000000000000000",
                    "decodedMethod": null,
                    "errorInfo": "",
                    "fromAddress": "0x9a47f3289794e9bbc6a3c571f6d96ad4e7baed16",
                    "gasUsed": 98604,
                    "id": 2,
                    "methodDecoded": false,
                    "operation": "DELEGATECALL",
                    "output": "",
                    "revert": false,
                    "revertMessage": "",
                    "selector": "0xab138240",
                    "status": true,
                    "value": "0.84"
                },
                "nodeType": 0
            },
            "3": {
                "invocation": {
                    "address": "0xe6b738da243e8fa2a0ed5915645789add5de5152",
                    "callData": "0x",
                    "decodedMethod": null,
                    "errorInfo": "",
                    "fromAddress": "0x9a47f3289794e9bbc6a3c571f6d96ad4e7baed16",
                    "gasUsed": 6329,
                    "id": 3,
                    "methodDecoded": false,
                    "operation": "CALL",
                    "output": "",
                    "revert": false,
                    "revertMessage": "",
                    "selector": "fallback",
                    "status": true,
                    "value": "0.00735"
                },
                "nodeType": 0
            },
            "4": {
                "invocation": {
                    "address": "0xd9db270c1b5e3bd161e8c8503c55ceabee709552",
                    "callData": "0x",
                    "decodedMethod": null,
                    "errorInfo": "",
                    "fromAddress": "0xe6b738da243e8fa2a0ed5915645789add5de5152",
                    "gasUsed": 1504,
                    "id": 4,
                    "methodDecoded": false,
                    "operation": "DELEGATECALL",
                    "output": "",
                    "revert": false,
                    "revertMessage": "",
                    "selector": "fallback",
                    "status": true,
                    "value": "0.00735"
                },
                "nodeType": 0
            },
            "5": {
                "event": {
                    "contract": "0xe6b738da243e8fa2a0ed5915645789add5de5152",
                    "decodedLog": {
                        "name": "SafeReceived",
                        "params": [
                            {
                                "name": "sender",
                                "type": "address",
                                "value": "0x9a47f3289794e9bbc6a3c571f6d96ad4e7baed16"
                            },
                            {
                                "name": "value",
                                "type": "uint256",
                                "value": "7,350,000,000,000,000"
                            }
                        ],
                        "signature": "SafeReceived(address,uint256)"
                    },
                    "id": 5,
                    "logData": "0x000000000000000000000000000000000000000000000000001a1cc93b196000",
                    "logDecoded": true,
                    "operation": "EVENT",
                    "revert": false,
                    "status": true,
                    "topics": [
                        "0x3d0ce9bfc3ed7d6862dbb28b2dea94561fe714a1b4d019aa8af39730d1ad7c3d",
                        "0x0000000000000000000000009a47f3289794e9bbc6a3c571f6d96ad4e7baed16"
                    ]
                },
                "nodeType": 1
            },
            "6": {
                "event": {
                    "contract": "0x9a47f3289794e9bbc6a3c571f6d96ad4e7baed16",
                    "decodedLog": {
                        "name": "Fee",
                        "params": [
                            {
                                "name": "_sender",
                                "type": "address",
                                "value": "0x0000000000000000000000000000000000000000"
                            },
                            {
                                "name": "_reciever",
                                "type": "address",
                                "value": "0xe6b738da243e8fa2a0ed5915645789add5de5152"
                            },
                            {
                                "name": "_amount",
                                "type": "uint256",
                                "value": "7,350,000,000,000,000"
                            }
                        ],
                        "signature": "Fee(address,address,uint256)"
                    },
                    "id": 6,
                    "logData": "0x0000000000000000000000000000000000000000000000000000000000000000000000000000000000000000e6b738da243e8fa2a0ed5915645789add5de5152000000000000000000000000000000000000000000000000001a1cc93b196000",
                    "logDecoded": true,
                    "operation": "EVENT",
                    "revert": false,
                    "status": true,
                    "topics": [
                        "0x6ded982279c8387ad8a63e73385031a3807c1862e633f06e09d11bcb6e282f60"
                    ]
                },
                "nodeType": 1
            },
            "7": {
                "invocation": {
                    "address": "0x3a23f943181408eac424116af7b7790c94cb97a5",
                    "callData": "0xad1977e5b8901acb165ed027e32754e0ffe830802919727f00000089f7a1f2a1b7664815a8127be755ebf8a0a01b0f0100000000000000000b7f604f42de2c00",
                    "decodedMethod": null,
                    "errorInfo": "",
                    "fromAddress": "0x9a47f3289794e9bbc6a3c571f6d96ad4e7baed16",
                    "gasUsed": 66893,
                    "id": 7,
                    "methodDecoded": false,
                    "operation": "CALL",
                    "output": "",
                    "revert": false,
                    "revertMessage": "",
                    "selector": "0x00000014",
                    "status": true,
                    "value": "0.83265"
                },
                "nodeType": 0
            },
            "8": {
                "invocation": {
                    "address": "0x2197a1d9af24b4d6a64bff95b4c29fcd3ff28c30",
                    "callData": "0xb8901acb165ed027e32754e0ffe830802919727f00000089f7a1f2a1b7664815a8127be755ebf8a0a01b0f0100000000000000000b7f604f42de2c00",
                    "decodedMethod": {
                        "callParams": [],
                        "constructorArguments": "",
                        "name": "bridgeNativeToOptimised",
                        "returnParams": [],
                        "signature": "bridgeNativeToOptimised()"
                    },
                    "errorInfo": "",
                    "fromAddress": "0x3a23f943181408eac424116af7b7790c94cb97a5",
                    "gasUsed": 63631,
                    "id": 8,
                    "methodDecoded": true,
                    "operation": "DELEGATECALL",
                    "output": "",
                    "revert": false,
                    "revertMessage": "",
                    "selector": "0xad1977e5",
                    "status": true,
                    "value": "0.83265"
                },
                "nodeType": 0
            },
            "9": {
                "invocation": {
                    "address": "0xb8901acb165ed027e32754e0ffe830802919727f",
                    "callData": "0x0000000000000000000000000000000000000000000000000000000000000089000000000000000000000000f7a1f2a1b7664815a8127be755ebf8a0a01b0f010000000000000000000000000000000000000000000000000b8e2ac3703aa0000000000000000000000000000000000000000000000000000b7f604f42de2c0000000000000000000000000000000000000000000000000000000000652d24db00000000000000000000000000000000000000000000000000000000000000000000000000000000000000000000000000000000000000000000000000000000",
                    "decodedMethod": {
                        "callParams": [
                            {
                                "name": "chainId",
                                "type": "uint256",
                                "value": "137"
                            },
                            {
                                "name": "recipient",
                                "type": "address",
                                "value": "0xf7a1f2a1b7664815a8127be755ebf8a0a01b0f01"
                            },
                            {
                                "name": "amount",
                                "type": "uint256",
                                "value": "832,650,000,000,000,000"
                            },
                            {
                                "name": "amountOutMin",
                                "type": "uint256",
                                "value": "828,486,750,000,000,000"
                            },
                            {
                                "name": "deadline",
                                "type": "uint256",
                                "value": "1,697,457,371"
                            },
                            {
                                "name": "relayer",
                                "type": "address",
                                "value": "0x0000000000000000000000000000000000000000"
                            },
                            {
                                "name": "relayerFee",
                                "type": "uint256",
                                "value": "0"
                            }
                        ],
                        "constructorArguments": "",
                        "name": "sendToL2",
                        "returnParams": [],
                        "signature": "sendToL2(uint256,address,uint256,uint256,uint256,address,uint256)"
                    },
                    "errorInfo": "",
                    "fromAddress": "0x3a23f943181408eac424116af7b7790c94cb97a5",
                    "gasUsed": 49681,
                    "id": 9,
                    "methodDecoded": true,
                    "operation": "CALL",
                    "output": "",
                    "revert": false,
                    "revertMessage": "",
                    "selector": "0xdeace8f5",
                    "status": true,
                    "value": "0.83265"
                },
                "nodeType": 0
            }
        },
        "gasFlame": [
            {
                "children": [
                    {
                        "children": [
                            {
                                "children": [],
                                "depth": 0,
                                "name": "Initial Gas",
                                "value": 25736
                            },
                            {
                                "children": [
                                    {
                                        "children": [
                                            {
                                                "children": [
                                                    {
                                                        "children": [
                                                            {
                                                                "children": [],
                                                                "depth": 4,
                                                                "name": "fallback",
                                                                "value": 1504
                                                            }
                                                        ],
                                                        "depth": 3,
                                                        "name": "fallback",
                                                        "value": 6329
                                                    },
                                                    {
                                                        "children": [
                                                            {
                                                                "children": [
                                                                    {
                                                                        "children": [
                                                                            {
                                                                                "children": [
                                                                                    {
                                                                                        "children": [
                                                                                            {
                                                                                                "children": [],
                                                                                                "depth": 8,
                                                                                                "name": "syncState",
                                                                                                "value": 13698
                                                                                            }
                                                                                        ],
                                                                                        "depth": 7,
                                                                                        "name": "sendMessageToChild",
                                                                                        "value": 22852
                                                                                    }
                                                                                ],
                                                                                "depth": 6,
                                                                                "name": "sendCrossDomainMessage",
                                                                                "value": 32424
                                                                            }
                                                                        ],
                                                                        "depth": 5,
                                                                        "name": "sendToL2",
                                                                        "value": 49681
                                                                    }
                                                                ],
                                                                "depth": 4,
                                                                "name": "bridgeNativeToOptimised",
                                                                "value": 63631
                                                            }
                                                        ],
                                                        "depth": 3,
                                                        "name": "0x00000014",
                                                        "value": 66893
                                                    }
                                                ],
                                                "depth": 2,
                                                "name": "0xab138240",
                                                "value": 98604
                                            }
                                        ],
                                        "depth": 1,
                                        "name": "bridge",
                                        "value": 103596
                                    }
                                ],
                                "depth": 0,
                                "name": "Executed Gas",
                                "value": 125616
                            }
                        ],
                        "depth": -1,
                        "name": "Actual Gas Used",
                        "value": 148552
                    },
                    {
                        "children": [],
                        "depth": -1,
                        "name": "Refunded Gas",
                        "value": 2800
                    }
                ],
                "depth": -2,
                "name": "Total Gas",
                "value": 151352
            }
        ],
        "isConfirmed": true,
        "mainTrace": [
            {
                "children": [
                    {
                        "children": [
                            {
                                "children": [
                                    {
                                        "children": [
                                            {
                                                "children": [
                                                    {
                                                        "children": [
                                                            {
                                                                "children": [],
                                                                "depth": 5,
                                                                "id": 5,
                                                                "order": 5
                                                            }
                                                        ],
                                                        "depth": 4,
                                                        "id": 4,
                                                        "order": 4
                                                    }
                                                ],
                                                "depth": 3,
                                                "id": 3,
                                                "order": 3
                                            },
                                            {
                                                "children": [],
                                                "depth": 3,
                                                "id": 6,
                                                "order": 6
                                            },
                                            {
                                                "children": [
                                                    {
                                                        "children": [
                                                            {
                                                                "children": [
                                                                    {
                                                                        "children": [
                                                                            {
                                                                                "children": [
                                                                                    {
                                                                                        "children": [
                                                                                            {
                                                                                                "children": [],
                                                                                                "depth": 9,
                                                                                                "id": 13,
                                                                                                "order": 13
                                                                                            }
                                                                                        ],
                                                                                        "depth": 8,
                                                                                        "id": 12,
                                                                                        "order": 12
                                                                                    }
                                                                                ],
                                                                                "depth": 7,
                                                                                "id": 11,
                                                                                "order": 11
                                                                            }
                                                                        ],
                                                                        "depth": 6,
                                                                        "id": 10,
                                                                        "order": 10
                                                                    },
                                                                    {
                                                                        "children": [],
                                                                        "depth": 6,
                                                                        "id": 14,
                                                                        "order": 14
                                                                    }
                                                                ],
                                                                "depth": 5,
                                                                "id": 9,
                                                                "order": 9
                                                            },
                                                            {
                                                                "children": [],
                                                                "depth": 5,
                                                                "id": 15,
                                                                "order": 15
                                                            }
                                                        ],
                                                        "depth": 4,
                                                        "id": 8,
                                                        "order": 8
                                                    }
                                                ],
                                                "depth": 3,
                                                "id": 7,
                                                "order": 7
                                            },
                                            {
                                                "children": [],
                                                "depth": 3,
                                                "id": 16,
                                                "order": 16
                                            }
                                        ],
                                        "depth": 2,
                                        "id": 2,
                                        "order": 2
                                    }
                                ],
                                "depth": 1,
                                "id": 1,
                                "order": 1
                            }
                        ],
                        "depth": 0,
                        "id": 0,
                        "order": 0
                    }
                ],
                "depth": -1,
                "id": -1,
                "order": -1
            }
        ],
        "mainTraceNodeCount": 17,
        "parentIdMap": {
            "0": -1,
            "1": 0,
            "10": 9,
            "11": 10,
            "12": 11,
            "13": 12,
            "14": 9,
            "15": 8,
            "16": 2,
            "2": 1,
            "3": 2,
            "4": 3,
            "5": 4,
            "6": 2,
            "7": 2,
            "8": 7,
            "9": 8
        },
        "tidyTrace": [
            {
                "children": [
                    {
                        "children": [
                            {
                                "children": [
                                    {
                                        "children": [
                                            {
                                                "children": [
                                                    {
                                                        "children": [
                                                            {
                                                                "children": [],
                                                                "depth": 5,
                                                                "id": 5,
                                                                "order": 5
                                                            }
                                                        ],
                                                        "depth": 4,
                                                        "id": 4,
                                                        "order": 4
                                                    }
                                                ],
                                                "depth": 3,
                                                "id": 3,
                                                "order": 3
                                            },
                                            {
                                                "children": [],
                                                "depth": 3,
                                                "id": 6,
                                                "order": 6
                                            },
                                            {
                                                "children": [
                                                    {
                                                        "children": [
                                                            {
                                                                "children": [
                                                                    {
                                                                        "children": [
                                                                            {
                                                                                "children": [
                                                                                    {
                                                                                        "children": [
                                                                                            {
                                                                                                "children": [],
                                                                                                "depth": 9,
                                                                                                "id": 13,
                                                                                                "order": 13
                                                                                            }
                                                                                        ],
                                                                                        "depth": 8,
                                                                                        "id": 12,
                                                                                        "order": 12
                                                                                    }
                                                                                ],
                                                                                "depth": 7,
                                                                                "id": 11,
                                                                                "order": 11
                                                                            }
                                                                        ],
                                                                        "depth": 6,
                                                                        "id": 10,
                                                                        "order": 10
                                                                    },
                                                                    {
                                                                        "children": [],
                                                                        "depth": 6,
                                                                        "id": 14,
                                                                        "order": 14
                                                                    }
                                                                ],
                                                                "depth": 5,
                                                                "id": 9,
                                                                "order": 9
                                                            },
                                                            {
                                                                "children": [],
                                                                "depth": 5,
                                                                "id": 15,
                                                                "order": 15
                                                            }
                                                        ],
                                                        "depth": 4,
                                                        "id": 8,
                                                        "order": 8
                                                    }
                                                ],
                                                "depth": 3,
                                                "id": 7,
                                                "order": 7
                                            },
                                            {
                                                "children": [],
                                                "depth": 3,
                                                "id": 16,
                                                "order": 16
                                            }
                                        ],
                                        "depth": 2,
                                        "id": 2,
                                        "order": 2
                                    }
                                ],
                                "depth": 1,
                                "id": 1,
                                "order": 1
                            }
                        ],
                        "depth": 0,
                        "id": 0,
                        "order": 0
                    }
                ],
                "depth": -1,
                "id": -1,
                "order": -1
            }
        ],
        "tidyTraceNodeCount": 17
    },
    "state_change": {
        "stateChanges": [
            {
                "address": "0x28e4f3a7f651294b9564800b2d01f35189a5bfbe",
                "erc": "",
                "slots": [
                    {
                        "current": "0x00000000000000000000000000000000000000000000000000000000002a8451",
                        "key": "0x0000000000000000000000000000000000000000000000000000000000000001",
                        "prev": "0x00000000000000000000000000000000000000000000000000000000002a8450"
                    }
                ],
                "storageVariables": [
                    {
                        "name": "counter",
                        "type": "uint256",
                        "value": {
                            "current": "2786385",
                            "prev": "2786384",
                            "typeTag": 1
                        }
                    }
                ]
            },
            {
                "address": "0xb8901acb165ed027e32754e0ffe830802919727f",
                "erc": "",
                "slots": [
                    {
                        "current": "0x00000000000000000000000000000000000000000000005add0658f8f85f799d",
                        "key": "0x96e5f151d91e68f2b0cb31facab59746b0abcb367b84e7107ff091d086607046",
                        "prev": "0x00000000000000000000000000000000000000000000005ad1782e358824d99d"
                    }
                ],
                "storageVariables": [
                    {
                        "name": "chainBalance",
                        "type": "mapping(uint256 => uint256)",
                        "value": {
                            "pairs": [
                                {
                                    "key": "137",
                                    "value": {
                                        "current": "1676133481592444123549",
                                        "prev": "1675300831592444123549",
                                        "typeTag": 1
                                    }
                                }
                            ],
                            "typeTag": 4
                        }
                    }
                ]
            }
        ]
    }
}