{
    "balance_change": {
        "balanceChanges": [
            {
                "account": "0x7c48039659170a366bd5b6d65578d907c125b9a4",
                "assets": [
                    {
                        "address": "0x5adc961d6ac3f7062d2ea45fefb8d8167d44b190",
                        "amount": "70,180.889835135153751887",
                        "iconUrl": "https://assets.blocksec.com/icon/5c28c51bc516b428de63c95ccc92d6919b57767e68ab3c11b975c4c05fbce1fa.png",
                        "isERC1155": false,
                        "isERC721": false,
                        "sign": false,
                        "value": "584.6823788"
                    },
                    {
                        "address": "0xfe2786d7d1ccab8b015f6ef7392f67d778f8d8d7",
                        "amount": "122,388.564194554261530562",
                        "iconUrl": "",
                        "isERC1155": false,
                        "isERC721": false,
                        "sign": true,
                        "value": "522.0458084"
                    }
                ]
            },
            {
                "account": "0x3671a927539bd1f077336011567e7c57eb523407",
                "assets": [
                    {
                        "address": "0xc02aaa39b223fe8d0a0e5c4f27ead9083c756cc2",
                        "amount": "1.698107195941451921",
                        "iconUrl": "https://assets.blocksec.com/icon/f1cb2d02c471d545bbc7722daf3277fd852d98e63d118771af7047bd8256c516.png",
                        "isERC1155": false,
                        "isERC721": false,
                        "sign": true,
                        "value": "584.6823788"
                    },
                    {
                        "address": "0xfe2786d7d1ccab8b015f6ef7392f67d778f8d8d7",
                        "amount": "122,388.564194554261530562",
                        "iconUrl": "",
                        "isERC1155": false,
                        "isERC721": false,
                        "sign": false,
                        "value": "522.0458084"
                    }
                ]
            },
            {
                "account": "0xc0cb62f0b5c9574cc88907dc0712f27b4a6a60c1",
                "assets": [
                    {
                        "address": "0x5adc961d6ac3f7062d2ea45fefb8d8167d44b190",
                        "amount": "70,180.889835135153751887",
                        "iconUrl": "https://assets.blocksec.com/icon/5c28c51bc516b428de63c95ccc92d6919b57767e68ab3c11b975c4c05fbce1fa.png",
                        "isERC1155": false,
                        "isERC721": false,
                        "sign": true,
                        "value": "584.6823788"
                    },
                    {
                        "address": "0xc02aaa39b223fe8d0a0e5c4f27ead9083c756cc2",
                        "amount": "1.698107195941451921",
                        "iconUrl": "https://assets.blocksec.com/icon/f1cb2d02c471d545bbc7722daf3277fd852d98e63d118771af7047bd8256c516.png",
                        "isERC1155": false,
                        "isERC721": false,
                        "sign": false,
                        "value": "584.6823788"
                    }
                ]
            }
        ]
    },
    "profile": {
        "basic_info": {
            "baseFee": "",
            "blockNumber": 11015263,
            "callData": "0x38ed1739000000000000000000000000000000000000000000000edc837f4ec3d590474f0000000000000000000000000000000000000000000018b32a0a8e49915e319400000000000000000000000000000000000000000000000000000000000000a00000000000000000000000007c48039659170a366bd5b6d65578d907c125b9a4000000000000000000000000000000000000000000000000000000005f7f1d6100000000000000000000000000000000000000000000000000000000000000030000000000000000000000005adc961d6ac3f7062d2ea45fefb8d8167d44b190000000000000000000000000c02aaa39b223fe8d0a0e5c4f27ead9083c756cc2000000000000000000000000fe2786d7d1ccab8b015f6ef7392f67d778f8d8d7",
            "debugEnable": true,
            "errorInfo": "",
            "eventCount": 7,
            "feeRecipient": "0x52bc44d5378309ee2abf1539bf71de1b7d7be3b5",
            "formatValue": "0",
            "gasLimit": 203527,
            "gasPrice": "68.200001604",
            "gasUsed": 159709,
            "intTxnCount": 11,
            "internalRevert": false,
            "internalRevertMessage": "",
            "isContractCreation": false,
            "isFlashloan": false,
            "maxFee": "",
            "nonce": 38,
            "overwritedBlockNumber": -1,
            "priorityFee": "",
            "receiver": "0x7a250d5630b4cf539739df2c5dacb4c659f2488d",
            "revertMessage": "",
            "sender": "0x7c48039659170a366bd5b6d65578d907c125b9a4",
            "simulationEnable": true,
            "sourceTxnHash": "0xad51f0cf2cc537d6ae14270dc47b19cf92a8c0cd7c282afe7dbbfbab8ac94a05",
            "status": true,
            "timestamp": "2020-10-08T13:50:14Z",
            "transactionFee": "0.010892154056173236",
            "txnHash": "0xad51f0cf2cc537d6ae14270dc47b19cf92a8c0cd7c282afe7dbbfbab8ac94a05",
            "txnIndex": 133,
            "type": 0,
            "value": "0"
        },
        "fund_flow": [
            {
                "amount": "70,180.889835135153751887",
                "from": "0x7c48039659170a366bd5b6d65578d907c125b9a4",
                "id": 1,
                "isERC1155": false,
                "isERC721": false,
                "isReverted": false,
                "order": 1,
                "to": "0xc0cb62f0b5c9574cc88907dc0712f27b4a6a60c1",
                "token": "0x5adc961d6ac3f7062d2ea45fefb8d8167d44b190"
            },
            {
                "amount": "1.698107195941451921",
                "from": "0xc0cb62f0b5c9574cc88907dc0712f27b4a6a60c1",
                "id": 2,
                "isERC1155": false,
                "isERC721": false,
                "isReverted": false,
                "order": 2,
                "to": "0x3671a927539bd1f077336011567e7c57eb523407",
                "token": "0xc02aaa39b223fe8d0a0e5c4f27ead9083c756cc2"
            },
            {
                "amount": "122,388.564194554261530562",
                "from": "0x3671a927539bd1f077336011567e7c57eb523407",
                "id": 3,
                "isERC1155": false,
                "isERC721": false,
                "isReverted": false,
                "order": 3,
                "to": "0x7c48039659170a366bd5b6d65578d907c125b9a4",
                "token": "0xfe2786d7d1ccab8b015f6ef7392f67d778f8d8d7"
            }
        ],
        "token_infos": [
            {
                "address": "0x5adc961d6ac3f7062d2ea45fefb8d8167d44b190",
                "decimals": 18
            },
            {
                "address": "0xc02aaa39b223fe8d0a0e5c4f27ead9083c756cc2",
                "decimals": 18
            },
            {
                "address": "0xfe2786d7d1ccab8b015f6ef7392f67d778f8d8d7",
                "decimals": 18
            },
            {
                "address": "0xeeeeeeeeeeeeeeeeeeeeeeeeeeeeeeeeeeeeeeee",
                "decimals": 18
            }
        ]
    },
    "address_label": {
        "labels": [
            {
                "address": "0x0000000000000000000000000000000000000004",
                "label": "Precompiled"
            },
            {
                "address": "0xeeeeeeeeeeeeeeeeeeeeeeeeeeeeeeeeeeeeeeee",
                "label": "Ether"
            },
            {
                "address": "0x3671a927539bd1f077336011567e7c57eb523407",
                "label": "Uniswap V2: PRQ"
            },
            {
                "address": "0xfe2786d7d1ccab8b015f6ef7392f67d778f8d8d7",
                "label": "PARSIQ: Old PRQ Token"
            },
            {
                "address": "0x5adc961d6ac3f7062d2ea45fefb8d8167d44b190",
                "label": "Dether Token"
            },
            {
                "address": "0x0000000000000000000000000000000000000001",
                "label": "Precompiled"
            },
            {
                "address": "0x0000000000000000000000000000000000000002",
                "label": "Precompiled"
            },
            {
                "address": "0x7a250d5630b4cf539739df2c5dacb4c659f2488d",
                "label": "Uniswap V2: Router 2"
            },
            {
                "address": "0xc02aaa39b223fe8d0a0e5c4f27ead9083c756cc2",
                "label": "Wrapped Ether (WETH)"
            },
            {
                "address": "0xc0cb62f0b5c9574cc88907dc0712f27b4a6a60c1",
                "label": "Uniswap V2: DTH"
            },
            {
                "address": "0x0000000000000000000000000000000000000003",
                "label": "Precompiled"
            }
        ]
    },
    "trace": {
        "accountLabels": null,
        "dataMap": {
            "-1": {
                "invocation": {
                    "address": "0x7c48039659170a366bd5b6d65578d907c125b9a4",
                    "callData": "",
                    "decodedMethod": null,
                    "errorInfo": "",
                    "fromAddress": "",
                    "gasUsed": 0,
                    "id": -1,
                    "methodDecoded": false,
                    "operation": "",
                    "output": "",
                    "revert": false,
                    "revertMessage": "",
                    "selector": "",
                    "status": false,
                    "value": ""
                },
                "nodeType": 0
            },
            "0": {
                "invocation": {
                    "address": "0x7a250d5630b4cf539739df2c5dacb4c659f2488d",
                    "callData": "0x000000000000000000000000000000000000000000000edc837f4ec3d590474f0000000000000000000000000000000000000000000018b32a0a8e49915e319400000000000000000000000000000000000000000000000000000000000000a00000000000000000000000007c48039659170a366bd5b6d65578d907c125b9a4000000000000000000000000000000000000000000000000000000005f7f1d6100000000000000000000000000000000000000000000000000000000000000030000000000000000000000005adc961d6ac3f7062d2ea45fefb8d8167d44b190000000000000000000000000c02aaa39b223fe8d0a0e5c4f27ead9083c756cc2000000000000000000000000fe2786d7d1ccab8b015f6ef7392f67d778f8d8d7",
                    "decodedMethod": {
                        "callParams": [
                            {
                                "name": "amountIn",
                                "type": "uint256",
                                "value": "70,180,889,835,135,153,751,887"
                            },
                            {
                                "name": "amountOutMin",
                                "type": "uint256",
                                "value": "116,641,792,168,211,477,574,036"
                            },
                            {
                                "name": "path",
                                "type": "address[]",
                                "value": [
                                    "0x5adc961d6ac3f7062d2ea45fefb8d8167d44b190",
                                    "0xc02aaa39b223fe8d0a0e5c4f27ead9083c756cc2",
                                    "0xfe2786d7d1ccab8b015f6ef7392f67d778f8d8d7"
                                ]
                            },
                            {
                                "name": "to",
                                "type": "address",
                                "value": "0x7c48039659170a366bd5b6d65578d907c125b9a4"
                            },
                            {
                                "name": "deadline",
                                "type": "uint256",
                                "value": "1,602,166,113"
                            }
                        ],
                        "constructorArguments": "",
                        "name": "swapExactTokensForTokens",
                        "returnParams": [
                            {
                                "name": "amounts",
                                "type": "uint256[]",
                                "value": [
                                    "70,180,889,835,135,153,751,887",
                                    "1,698,107,195,941,451,921",
                                    "122,388,564,194,554,261,530,562"
                                ]
                            }
                        ],
                        "signature": "swapExactTokensForTokens(uint256,uint256,address[],address,uint256)"
                    },
                    "errorInfo": "",
                    "fromAddress": "0x7c48039659170a366bd5b6d65578d907c125b9a4",
                    "gasUsed": 159709,
                    "id": 0,
                    "methodDecoded": true,
                    "operation": "CALL",
                    "output": "0x00000000000000000000000000000000000000000000000000000000000000200000000000000000000000000000000000000000000000000000000000000003000000000000000000000000000000000000000000000edc837f4ec3d590474f0000000000000000000000000000000000000000000000001790e37f6c9ff8910000000000000000000000000000000000000000000019eab286248b02c7e7c2",
                    "revert": false,
                    "revertMessage": "",
                    "selector": "0x38ed1739",
                    "status": true,
                    "value": "0"
                },
                "nodeType": 0
            },
            "1": {
                "invocation": {
                    "address": "0xc0cb62f0b5c9574cc88907dc0712f27b4a6a60c1",
                    "callData": "0x",
                    "decodedMethod": {
                        "callParams": [],
                        "constructorArguments": "",
                        "name": "getReserves",
                        "returnParams": [
                            {
                                "name": "_reserve0",
                                "type": "uint112",
                                "value": "2,460,667,296,778,459,630,577,211"
                            },
                            {
                                "name": "_reserve1",
                                "type": "uint112",
                                "value": "61,415,930,713,184,470,559"
                            },
                            {
                                "name": "_blockTimestampLast",
                                "type": "uint32",
                                "value": "1,602,156,205"
                            }
                        ],
                        "signature": "getReserves()"
                    },
                    "errorInfo": "",
                    "fromAddress": "0x7a250d5630b4cf539739df2c5dacb4c659f2488d",
                    "gasUsed": 1204,
                    "id": 1,
                    "methodDecoded": true,
                    "operation": "STATICCALL",
                    "output": "0x0000000000000000000000000000000000000000000209110a9c3dec3250a63b000000000000000000000000000000000000000000000003545137968d5d061f000000000000000000000000000000000000000000000000000000005f7ef6ad",
                    "revert": false,
                    "revertMessage": "",
                    "selector": "0x0902f1ac",
                    "status": true,
                    "value": "0"
                },
                "nodeType": 0
            },
            "10": {
                "event": {
                    "contract": "0xc0cb62f0b5c9574cc88907dc0712f27b4a6a60c1",
                    "decodedLog": {
                        "name": "Sync",
                        "params": [
                            {
                                "name": "reserve0",
                                "type": "uint112",
                                "value": "2,530,848,186,613,594,784,329,098"
                            },
                            {
                                "name": "reserve1",
                                "type": "uint112",
                                "value": "59,717,823,517,243,018,638"
                            }
                        ],
                        "signature": "Sync(uint112,uint112)"
                    },
                    "id": 10,
                    "logData": "0x0000000000000000000000000000000000000000000217ed8e1b8cb007e0ed8a0000000000000000000000000000000000000000000000033cc0541720bd0d8e",
                    "logDecoded": true,
                    "operation": "EVENT",
                    "revert": false,
                    "status": true,
                    "topics": [
                        "0x1c411e9a96e071241c2f21f7726b17ae89e3cab4c78be50e062b03a9fffbbad1"
                    ]
                },
                "nodeType": 1
            },
            "11": {
                "event": {
                    "contract": "0xc0cb62f0b5c9574cc88907dc0712f27b4a6a60c1",
                    "decodedLog": {
                        "name": "Swap",
                        "params": [
                            {
                                "name": "sender",
                                "type": "address",
                                "value": "0x7a250d5630b4cf539739df2c5dacb4c659f2488d"
                            },
                            {
                                "name": "to",
                                "type": "address",
                                "value": "0x3671a927539bd1f077336011567e7c57eb523407"
                            },
                            {
                                "name": "amount0In",
                                "type": "uint256",
                                "value": "70,180,889,835,135,153,751,887"
                            },
                            {
                                "name": "amount1In",
                                "type": "uint256",
                                "value": "0"
                            },
                            {
                                "name": "amount0Out",
                                "type": "uint256",
                                "value": "0"
                            },
                            {
                                "name": "amount1Out",
                                "type": "uint256",
                                "value": "1,698,107,195,941,451,921"
                            }
                        ],
                        "signature": "Swap(address,uint256,uint256,uint256,uint256,address)"
                    },
                    "id": 11,
                    "logData": "0x000000000000000000000000000000000000000000000edc837f4ec3d590474f000000000000000000000000000000000000000000000000000000000000000000000000000000000000000000000000000000000000000000000000000000000000000000000000000000000000000000000000000000001790e37f6c9ff891",
                    "logDecoded": true,
                    "operation": "EVENT",
                    "revert": false,
                    "status": true,
                    "topics": [
                        "0xd78ad95fa46c994b6551d0da85fc275fe613ce37657fb8d5e3d130840159d822",
                        "0x0000000000000000000000007a250d5630b4cf539739df2c5dacb4c659f2488d",
                        "0x0000000000000000000000003671a927539bd1f077336011567e7c57eb523407"
                    ]
                },
                "nodeType": 1
            },
            "12": {
                "invocation": {
                    "address": "0x3671a927539bd1f077336011567e7c57eb523407",
                    "callData": "0x00000000000000000000000000000000000000000000000000000000000000000000000000000000000000000000000000000000000019eab286248b02c7e7c20000000000000000000000007c48039659170a366bd5b6d65578d907c125b9a400000000000000000000000000000000000000000000000000000000000000800000000000000000000000000000000000000000000000000000000000000000",
                    "decodedMethod": {
                        "callParams": [
                            {
                                "name": "amount0Out",
                                "type": "uint256",
                                "value": "0"
                            },
                            {
                                "name": "amount1Out",
                                "type": "uint256",
                                "value": "122,388,564,194,554,261,530,562"
                            },
                            {
                                "name": "to",
                                "type": "address",
                                "value": "0x7c48039659170a366bd5b6d65578d907c125b9a4"
                            },
                            {
                                "name": "data",
                                "type": "bytes",
                                "value": "0x"
                            }
                        ],
                        "constructorArguments": "",
                        "name": "swap",
                        "returnParams": [],
                        "signature": "swap(uint256,uint256,address,bytes)"
                    },
                    "errorInfo": "",
                    "fromAddress": "0x7a250d5630b4cf539739df2c5dacb4c659f2488d",
                    "gasUsed": 59471,
                    "id": 12,
                    "methodDecoded": true,
                    "operation": "CALL",
                    "output": "",
                    "revert": false,
                    "revertMessage": "",
                    "selector": "0x022c0d9f",
                    "status": true,
                    "value": "0"
                },
                "nodeType": 0
            },
            "13": {
                "invocation": {
                    "address": "0xfe2786d7d1ccab8b015f6ef7392f67d778f8d8d7",
                    "callData": "0x0000000000000000000000007c48039659170a366bd5b6d65578d907c125b9a40000000000000000000000000000000000000000000019eab286248b02c7e7c2",
                    "decodedMethod": {
                        "callParams": [
                            {
                                "name": "to",
                                "type": "address",
                                "value": "0x7c48039659170a366bd5b6d65578d907c125b9a4"
                            },
                            {
                                "decimalAvailable": true,
                                "name": "value",
                                "type": "uint256",
                                "value": "122,388,564,194,554,261,530,562"
                            }
                        ],
                        "constructorArguments": "",
                        "name": "transfer",
                        "returnParams": [
                            {
                                "name": "",
                                "type": "bool",
                                "value": true
                            }
                        ],
                        "signature": "transfer(address,uint256)"
                    },
                    "errorInfo": "",
                    "fromAddress": "0x3671a927539bd1f077336011567e7c57eb523407",
                    "gasUsed": 17960,
                    "id": 13,
                    "methodDecoded": true,
                    "operation": "CALL",
                    "output": "0x0000000000000000000000000000000000000000000000000000000000000001",
                    "revert": false,
                    "revertMessage": "",
                    "selector": "0xa9059cbb",
                    "status": true,
                    "value": "0"
                },
                "nodeType": 0
            },
            "14": {
                "event": {
                    "contract": "0xfe2786d7d1ccab8b015f6ef7392f67d778f8d8d7",
                    "decodedLog": {
                        "name": "Transfer",
                        "params": [
                            {
                                "name": "from",
                                "type": "address",
                                "value": "0x3671a927539bd1f077336011567e7c57eb523407"
                            },
                            {
                                "name": "to",
                                "type": "address",
                                "value": "0x7c48039659170a366bd5b6d65578d907c125b9a4"
                            },
                            {
                                "decimalAvailable": true,
                                "name": "value",
                                "type": "uint256",
                                "value": "122,388,564,194,554,261,530,562"
                            }
                        ],
                        "signature": "Transfer(address,address,uint256)"
                    },
                    "id": 14,
                    "logData": "0x0000000000000000000000000000000000000000000019eab286248b02c7e7c2",
                    "logDecoded": true,
                    "operation": "EVENT",
                    "revert": false,
                    "status": true,
                    "topics": [
                        "0xddf252ad1be2c89b69c2b068fc378daa952ba7f163c4a11628f55a4df523b3ef",
                        "0x0000000000000000000000003671a927539bd1f077336011567e7c57eb523407",
                        "0x0000000000000000000000007c48039659170a366bd5b6d65578d907c125b9a4"
                    ]
                },
                "nodeType": 1
            },
            "15": {
                "invocation": {
                    "address": "0xc02aaa39b223fe8d0a0e5c4f27ead9083c756cc2",
                    "callData": "0x0000000000000000000000003671a927539bd1f077336011567e7c57eb523407",
                    "decodedMethod": {
                        "callParams": [
                            {
                                "name": "",
                                "type": "address",
                                "value": "0x3671a927539bd1f077336011567e7c57eb523407"
                            }
                        ],
                        "constructorArguments": "",
                        "name": "balanceOf",
                        "returnParams": [
                            {
                                "decimalAvailable": true,
                                "name": "",
                                "type": "uint256",
                                "value": "31,545,857,578,615,327,111"
                            }
                        ],
                        "signature": "balanceOf(address)"
                    },
                    "errorInfo": "",
                    "fromAddress": "0x3671a927539bd1f077336011567e7c57eb523407",
                    "gasUsed": 1234,
                    "id": 15,
                    "methodDecoded": true,
                    "operation": "STATICCALL",
                    "output": "0x000000000000000000000000000000000000000000000001b5c96654a46e4987",
                    "revert": false,
                    "revertMessage": "",
                    "selector": "0x70a08231",
                    "status": true,
                    "value": "0"
                },
                "nodeType": 0
            },
            "16": {
                "invocation": {
                    "address": "0xfe2786d7d1ccab8b015f6ef7392f67d778f8d8d7",
                    "callData": "0x0000000000000000000000003671a927539bd1f077336011567e7c57eb523407",
                    "decodedMethod": {
                        "callParams": [
                            {
                                "name": "account",
                                "type": "address",
                                "value": "0x3671a927539bd1f077336011567e7c57eb523407"
                            }
                        ],
                        "constructorArguments": "",
                        "name": "balanceOf",
                        "returnParams": [
                            {
                                "decimalAvailable": true,
                                "name": "",
                                "type": "uint256",
                                "value": "2,157,705,572,775,159,493,955,633"
                            }
                        ],
                        "signature": "balanceOf(address)"
                    },
                    "errorInfo": "",
                    "fromAddress": "0x3671a927539bd1f077336011567e7c57eb523407",
                    "gasUsed": 1254,
                    "id": 16,
                    "methodDecoded": true,
                    "operation": "STATICCALL",
                    "output": "0x00000000000000000000000000000000000000000001c8e9741738edd2521031",
                    "revert": false,
                    "revertMessage": "",
                    "selector": "0x70a08231",
                    "status": true,
                    "value": "0"
                },
                "nodeType": 0
            },
            "17": {
                "event": {
                    "contract": "0x3671a927539bd1f077336011567e7c57eb523407",
                    "decodedLog": {
                        "name": "Sync",
                        "params": [
                            {
                                "name": "reserve0",
                                "type": "uint112",
                                "value": "31,545,857,578,615,327,111"
                            },
                            {
                                "name": "reserve1",
                                "type": "uint112",
                                "value": "2,157,705,572,775,159,493,955,633"
                            }
                        ],
                        "signature": "Sync(uint112,uint112)"
                    },
                    "id": 17,
                    "logData": "0x000000000000000000000000000000000000000000000001b5c96654a46e498700000000000000000000000000000000000000000001c8e9741738edd2521031",
                    "logDecoded": true,
                    "operation": "EVENT",
                    "revert": false,
                    "status": true,
                    "topics": [
                        "0x1c411e9a96e071241c2f21f7726b17ae89e3cab4c78be50e062b03a9fffbbad1"
                    ]
                },
                "nodeType": 1
            },
            "18": {
                "event": {
                    "contract": "0x3671a927539bd1f077336011567e7c57eb523407",
                    "decodedLog": {
                        "name": "Swap",
                        "params": [
                            {
                                "name": "sender",
                                "type": "address",
                                "value": "0x7a250d5630b4cf539739df2c5dacb4c659f2488d"
                            },
                            {
                                "name": "to",
                                "type": "address",
                                "value": "0x7c48039659170a366bd5b6d65578d907c125b9a4"
                            },
                            {
                                "name": "amount0In",
                                "type": "uint256",
                                "value": "1,698,107,195,941,451,921"
                            },
                            {
                                "name": "amount1In",
                                "type": "uint256",
                                "value": "0"
                            },
                            {
                                "name": "amount0Out",
                                "type": "uint256",
                                "value": "0"
                            },
                            {
                                "name": "amount1Out",
                                "type": "uint256",
                                "value": "122,388,564,194,554,261,530,562"
                            }
                        ],
                        "signature": "Swap(address,uint256,uint256,uint256,uint256,address)"
                    },
                    "id": 18,
                    "logData": "0x0000000000000000000000000000000000000000000000001790e37f6c9ff891000000000000000000000000000000000000000000000000000000000000000000000000000000000000000000000000000000000000000000000000000000000000000000000000000000000000000000000000000019eab286248b02c7e7c2",
                    "logDecoded": true,
                    "operation": "EVENT",
                    "revert": false,
                    "status": true,
                    "topics": [
                        "0xd78ad95fa46c994b6551d0da85fc275fe613ce37657fb8d5e3d130840159d822",
                        "0x0000000000000000000000007a250d5630b4cf539739df2c5dacb4c659f2488d",
                        "0x0000000000000000000000007c48039659170a366bd5b6d65578d907c125b9a4"
                    ]
                },
                "nodeType": 1
            },
            "2": {
                "invocation": {
                    "address": "0x3671a927539bd1f077336011567e7c57eb523407",
                    "callData": "0x",
                    "decodedMethod": {
                        "callParams": [],
                        "constructorArguments": "",
                        "name": "getReserves",
                        "returnParams": [
                            {
                                "name": "_reserve0",
                                "type": "uint112",
                                "value": "29,847,750,382,673,875,190"
                            },
                            {
                                "name": "_reserve1",
                                "type": "uint112",
                                "value": "2,280,094,136,969,713,755,486,195"
                            },
                            {
                                "name": "_blockTimestampLast",
                                "type": "uint32",
                                "value": "1,602,164,987"
                            }
                        ],
                        "signature": "getReserves()"
                    },
                    "errorInfo": "",
                    "fromAddress": "0x7a250d5630b4cf539739df2c5dacb4c659f2488d",
                    "gasUsed": 1204,
                    "id": 2,
                    "methodDecoded": true,
                    "operation": "STATICCALL",
                    "output": "0x0000000000000000000000000000000000000000000000019e3882d537ce50f600000000000000000000000000000000000000000001e2d4269d5d78d519f7f3000000000000000000000000000000000000000000000000000000005f7f18fb",
                    "revert": false,
                    "revertMessage": "",
                    "selector": "0x0902f1ac",
                    "status": true,
                    "value": "0"
                },
                "nodeType": 0
            },
            "3": {
                "invocation": {
                    "address": "0x5adc961d6ac3f7062d2ea45fefb8d8167d44b190",
                    "callData": "0x0000000000000000000000007c48039659170a366bd5b6d65578d907c125b9a4000000000000000000000000c0cb62f0b5c9574cc88907dc0712f27b4a6a60c1000000000000000000000000000000000000000000000edc837f4ec3d590474f",
                    "decodedMethod": {
                        "callParams": [
                            {
                                "name": "_from",
                                "type": "address",
                                "value": "0x7c48039659170a366bd5b6d65578d907c125b9a4"
                            },
                            {
                                "name": "_to",
                                "type": "address",
                                "value": "0xc0cb62f0b5c9574cc88907dc0712f27b4a6a60c1"
                            },
                            {
                                "decimalAvailable": true,
                                "name": "_value",
                                "type": "uint256",
                                "value": "70,180,889,835,135,153,751,887"
                            }
                        ],
                        "constructorArguments": "",
                        "name": "transferFrom",
                        "returnParams": [
                            {
                                "name": "",
                                "type": "bool",
                                "value": true
                            }
                        ],
                        "signature": "transferFrom(address,address,uint256)"
                    },
                    "errorInfo": "",
                    "fromAddress": "0x7a250d5630b4cf539739df2c5dacb4c659f2488d",
                    "gasUsed": 22874,
                    "id": 3,
                    "methodDecoded": true,
                    "operation": "CALL",
                    "output": "0x0000000000000000000000000000000000000000000000000000000000000001",
                    "revert": false,
                    "revertMessage": "",
                    "selector": "0x23b872dd",
                    "status": true,
                    "value": "0"
                },
                "nodeType": 0
            },
            "4": {
                "event": {
                    "contract": "0x5adc961d6ac3f7062d2ea45fefb8d8167d44b190",
                    "decodedLog": {
                        "name": "Transfer",
                        "params": [
                            {
                                "name": "from",
                                "type": "address",
                                "value": "0x7c48039659170a366bd5b6d65578d907c125b9a4"
                            },
                            {
                                "name": "to",
                                "type": "address",
                                "value": "0xc0cb62f0b5c9574cc88907dc0712f27b4a6a60c1"
                            },
                            {
                                "decimalAvailable": true,
                                "name": "value",
                                "type": "uint256",
                                "value": "70,180,889,835,135,153,751,887"
                            }
                        ],
                        "signature": "Transfer(address,address,uint256)"
                    },
                    "id": 4,
                    "logData": "0x000000000000000000000000000000000000000000000edc837f4ec3d590474f",
                    "logDecoded": true,
                    "operation": "EVENT",
                    "revert": false,
                    "status": true,
                    "topics": [
                        "0xddf252ad1be2c89b69c2b068fc378daa952ba7f163c4a11628f55a4df523b3ef",
                        "0x0000000000000000000000007c48039659170a366bd5b6d65578d907c125b9a4",
                        "0x000000000000000000000000c0cb62f0b5c9574cc88907dc0712f27b4a6a60c1"
                    ]
                },
                "nodeType": 1
            },
            "5": {
                "invocation": {
                    "address": "0xc0cb62f0b5c9574cc88907dc0712f27b4a6a60c1",
                    "callData": "0x00000000000000000000000000000000000000000000000000000000000000000000000000000000000000000000000000000000000000001790e37f6c9ff8910000000000000000000000003671a927539bd1f077336011567e7c57eb52340700000000000000000000000000000000000000000000000000000000000000800000000000000000000000000000000000000000000000000000000000000000",
                    "decodedMethod": {
                        "callParams": [
                            {
                                "name": "amount0Out",
                                "type": "uint256",
                                "value": "0"
                            },
                            {
                                "name": "amount1Out",
                                "type": "uint256",
                                "value": "1,698,107,195,941,451,921"
                            },
                            {
                                "name": "to",
                                "type": "address",
                                "value": "0x3671a927539bd1f077336011567e7c57eb523407"
                            },
                            {
                                "name": "data",
                                "type": "bytes",
                                "value": "0x"
                            }
                        ],
                        "constructorArguments": "",
                        "name": "swap",
                        "returnParams": [],
                        "signature": "swap(uint256,uint256,address,bytes)"
                    },
                    "errorInfo": "",
                    "fromAddress": "0x7a250d5630b4cf539739df2c5dacb4c659f2488d",
                    "gasUsed": 56790,
                    "id": 5,
                    "methodDecoded": true,
                    "operation": "CALL",
                    "output": "",
                    "revert": false,
                    "revertMessage": "",
                    "selector": "0x022c0d9f",
                    "status": true,
                    "value": "0"
                },
                "nodeType": 0
            },
            "6": {
                "invocation": {
                    "address": "0xc02aaa39b223fe8d0a0e5c4f27ead9083c756cc2",
                    "callData": "0x0000000000000000000000003671a927539bd1f077336011567e7c57eb5234070000000000000000000000000000000000000000000000001790e37f6c9ff891",
                    "decodedMethod": {
                        "callParams": [
                            {
                                "name": "dst",
                                "type": "address",
                                "value": "0x3671a927539bd1f077336011567e7c57eb523407"
                            },
                            {
                                "decimalAvailable": true,
                                "name": "wad",
                                "type": "uint256",
                                "value": "1,698,107,195,941,451,921"
                            }
                        ],
                        "constructorArguments": "",
                        "name": "transfer",
                        "returnParams": [
                            {
                                "name": "",
                                "type": "bool",
                                "value": true
                            }
                        ],
                        "signature": "transfer(address,uint256)"
                    },
                    "errorInfo": "",
                    "fromAddress": "0xc0cb62f0b5c9574cc88907dc0712f27b4a6a60c1",
                    "gasUsed": 15162,
                    "id": 6,
                    "methodDecoded": true,
                    "operation": "CALL",
                    "output": "0x0000000000000000000000000000000000000000000000000000000000000001",
                    "revert": false,
                    "revertMessage": "",
                    "selector": "0xa9059cbb",
                    "status": true,
                    "value": "0"
                },
                "nodeType": 0
            },
            "7": {
                "event": {
                    "contract": "0xc02aaa39b223fe8d0a0e5c4f27ead9083c756cc2",
                    "decodedLog": {
                        "name": "Transfer",
                        "params": [
                            {
                                "name": "src",
                                "type": "address",
                                "value": "0xc0cb62f0b5c9574cc88907dc0712f27b4a6a60c1"
                            },
                            {
                                "name": "dst",
                                "type": "address",
                                "value": "0x3671a927539bd1f077336011567e7c57eb523407"
                            },
                            {
                                "decimalAvailable": true,
                                "name": "wad",
                                "type": "uint256",
                                "value": "1,698,107,195,941,451,921"
                            }
                        ],
                        "signature": "Transfer(address,address,uint256)"
                    },
                    "id": 7,
                    "logData": "0x0000000000000000000000000000000000000000000000001790e37f6c9ff891",
                    "logDecoded": true,
                    "operation": "EVENT",
                    "revert": false,
                    "status": true,
                    "topics": [
                        "0xddf252ad1be2c89b69c2b068fc378daa952ba7f163c4a11628f55a4df523b3ef",
                        "0x000000000000000000000000c0cb62f0b5c9574cc88907dc0712f27b4a6a60c1",
                        "0x0000000000000000000000003671a927539bd1f077336011567e7c57eb523407"
                    ]
                },
                "nodeType": 1
            },
            "8": {
                "invocation": {
                    "address": "0x5adc961d6ac3f7062d2ea45fefb8d8167d44b190",
                    "callData": "0x000000000000000000000000c0cb62f0b5c9574cc88907dc0712f27b4a6a60c1",
                    "decodedMethod": {
                        "callParams": [
                            {
                                "name": "_owner",
                                "type": "address",
                                "value": "0xc0cb62f0b5c9574cc88907dc0712f27b4a6a60c1"
                            }
                        ],
                        "constructorArguments": "",
                        "name": "balanceOf",
                        "returnParams": [
                            {
                                "decimalAvailable": true,
                                "name": "balance",
                                "type": "uint256",
                                "value": "2,530,848,186,613,594,784,329,098"
                            }
                        ],
                        "signature": "balanceOf(address)"
                    },
                    "errorInfo": "",
                    "fromAddress": "0xc0cb62f0b5c9574cc88907dc0712f27b4a6a60c1",
                    "gasUsed": 1371,
                    "id": 8,
                    "methodDecoded": true,
                    "operation": "STATICCALL",
                    "output": "0x0000000000000000000000000000000000000000000217ed8e1b8cb007e0ed8a",
                    "revert": false,
                    "revertMessage": "",
                    "selector": "0x70a08231",
                    "status": true,
                    "value": "0"
                },
                "nodeType": 0
            },
            "9": {
                "invocation": {
                    "address": "0xc02aaa39b223fe8d0a0e5c4f27ead9083c756cc2",
                    "callData": "0x000000000000000000000000c0cb62f0b5c9574cc88907dc0712f27b4a6a60c1",
                    "decodedMethod": {
                        "callParams": [
                            {
                                "name": "",
                                "type": "address",
                                "value": "0xc0cb62f0b5c9574cc88907dc0712f27b4a6a60c1"
                            }
                        ],
                        "constructorArguments": "",
                        "name": "balanceOf",
                        "returnParams": [
                            {
                                "decimalAvailable": true,
                                "name": "",
                                "type": "uint256",
                                "value": "59,717,823,517,243,018,638"
                            }
                        ],
                        "signature": "balanceOf(address)"
                    },
                    "errorInfo": "",
                    "fromAddress": "0xc0cb62f0b5c9574cc88907dc0712f27b4a6a60c1",
                    "gasUsed": 1234,
                    "id": 9,
                    "methodDecoded": true,
                    "operation": "STATICCALL",
                    "output": "0x0000000000000000000000000000000000000000000000033cc0541720bd0d8e",
                    "revert": false,
                    "revertMessage": "",
                    "selector": "0x70a08231",
                    "status": true,
                    "value": "0"
                },
                "nodeType": 0
            }
        },
        "gasFlame": [
            {
                "children": [
                    {
                        "children": [
                            {
                                "children": [],
                                "depth": 0,
                                "name": "Initial Gas",
                                "value": 23488
                            },
                            {
                                "children": [
                                    {
                                        "children": [],
                                        "depth": 1,
                                        "name": "getReserves",
                                        "value": 1204
                                    },
                                    {
                                        "children": [],
                                        "depth": 1,
                                        "name": "getReserves",
                                        "value": 1204
                                    },
                                    {
                                        "children": [],
                                        "depth": 1,
                                        "name": "transferFrom",
                                        "value": 22874
                                    },
                                    {
                                        "children": [
                                            {
                                                "children": [],
                                                "depth": 2,
                                                "name": "transfer",
                                                "value": 15162
                                            },
                                            {
                                                "children": [],
                                                "depth": 2,
                                                "name": "balanceOf",
                                                "value": 1371
                                            },
                                            {
                                                "children": [],
                                                "depth": 2,
                                                "name": "balanceOf",
                                                "value": 1234
                                            }
                                        ],
                                        "depth": 1,
                                        "name": "swap",
                                        "value": 56790
                                    },
                                    {
                                        "children": [
                                            {
                                                "children": [],
                                                "depth": 2,
                                                "name": "transfer",
                                                "value": 17960
                                            },
                                            {
                                                "children": [],
                                                "depth": 2,
                                                "name": "balanceOf",
                                                "value": 1234
                                            },
                                            {
                                                "children": [],
                                                "depth": 2,
                                                "name": "balanceOf",
                                                "value": 1254
                                            }
                                        ],
                                        "depth": 1,
                                        "name": "swap",
                                        "value": 59471
                                    }
                                ],
                                "depth": 0,
                                "name": "Executed Gas",
                                "value": 159621
                            }
                        ],
                        "depth": -1,
                        "name": "Actual Gas Used",
                        "value": 159709
                    },
                    {
                        "children": [],
                        "depth": -1,
                        "name": "Refunded Gas",
                        "value": 23400
                    }
                ],
                "depth": -2,
                "name": "Total Gas",
                "value": 183109
            }
        ],
        "isConfirmed": true,
        "mainTrace": [
            {
                "children": [
                    {
                        "children": [
                            {
                                "children": [],
                                "depth": 1,
                                "id": 1,
                                "order": 1
                            },
                            {
                                "children": [],
                                "depth": 1,
                                "id": 2,
                                "order": 2
                            },
                            {
                                "children": [
                                    {
                                        "children": [],
                                        "depth": 2,
                                        "id": 4,
                                        "order": 4
                                    }
                                ],
                                "depth": 1,
                                "id": 3,
                                "order": 3
                            },
                            {
                                "children": [
                                    {
                                        "children": [
                                            {
                                                "children": [],
                                                "depth": 3,
                                                "id": 7,
                                                "order": 7
                                            }
                                        ],
                                        "depth": 2,
                                        "id": 6,
                                        "order": 6
                                    },
                                    {
                                        "children": [],
                                        "depth": 2,
                                        "id": 8,
                                        "order": 8
                                    },
                                    {
                                        "children": [],
                                        "depth": 2,
                                        "id": 9,
                                        "order": 9
                                    },
                                    {
                                        "children": [],
                                        "depth": 2,
                                        "id": 10,
                                        "order": 10
                                    },
                                    {
                                        "children": [],
                                        "depth": 2,
                                        "id": 11,
                                        "order": 11
                                    }
                                ],
                                "depth": 1,
                                "id": 5,
                                "order": 5
                            },
                            {
                                "children": [
                                    {
                                        "children": [
                                            {
                                                "children": [],
                                                "depth": 3,
                                                "id": 14,
                                                "order": 14
                                            }
                                        ],
                                        "depth": 2,
                                        "id": 13,
                                        "order": 13
                                    },
                                    {
                                        "children": [],
                                        "depth": 2,
                                        "id": 15,
                                        "order": 15
                                    },
                                    {
                                        "children": [],
                                        "depth": 2,
                                        "id": 16,
                                        "order": 16
                                    },
                                    {
                                        "children": [],
                                        "depth": 2,
                                        "id": 17,
                                        "order": 17
                                    },
                                    {
                                        "children": [],
                                        "depth": 2,
                                        "id": 18,
                                        "order": 18
                                    }
                                ],
                                "depth": 1,
                                "id": 12,
                                "order": 12
                            }
                        ],
                        "depth": 0,
                        "id": 0,
                        "order": 0
                    }
                ],
                "depth": -1,
                "id": -1,
                "order": -1
            }
        ],
        "mainTraceNodeCount": 19,
        "parentIdMap": {
            "0": -1,
            "1": 0,
            "10": 5,
            "11": 5,
            "12": 0,
            "13": 12,
            "14": 13,
            "15": 12,
            "16": 12,
            "17": 12,
            "18": 12,
            "2": 0,
            "3": 0,
            "4": 3,
            "5": 0,
            "6": 5,
            "7": 6,
            "8": 5,
            "9": 5
        },
        "tidyTrace": [
            {
                "children": [
                    {
                        "children": [
                            {
                                "children": [
                                    {
                                        "children": [],
                                        "depth": 2,
                                        "id": 4,
                                        "order": 4
                                    }
                                ],
                                "depth": 1,
                                "id": 3,
                                "order": 3
                            },
                            {
                                "children": [
                                    {
                                        "children": [
                                            {
                                                "children": [],
                                                "depth": 3,
                                                "id": 7,
                                                "order": 7
                                            }
                                        ],
                                        "depth": 2,
                                        "id": 6,
                                        "order": 6
                                    },
                                    {
                                        "children": [],
                                        "depth": 2,
                                        "id": 10,
                                        "order": 10
                                    },
                                    {
                                        "children": [],
                                        "depth": 2,
                                        "id": 11,
                                        "order": 11
                                    }
                                ],
                                "depth": 1,
                                "id": 5,
                                "order": 5
                            },
                            {
                                "children": [
                                    {
                                        "children": [
                                            {
                                                "children": [],
                                                "depth": 3,
                                                "id": 14,
                                                "order": 14
                                            }
                                        ],
                                        "depth": 2,
                                        "id": 13,
                                        "order": 13
                                    },
                                    {
                                        "children": [],
                                        "depth": 2,
                                        "id": 17,
                                        "order": 17
                                    },
                                    {
                                        "children": [],
                                        "depth": 2,
                                        "id": 18,
                                        "order": 18
                                    }
                                ],
                                "depth": 1,
                                "id": 12,
                                "order": 12
                            }
                        ],
                        "depth": 0,
                        "id": 0,
                        "order": 0
                    }
                ],
                "depth": -1,
                "id": -1,
                "order": -1
            }
        ],
        "tidyTraceNodeCount": 13
    },
    "state_change": {
        "stateChanges": [
            {
                "address": "0x3671a927539bd1f077336011567e7c57eb523407",
                "erc": "ERC-20",
                "slots": [
                    {
                        "current": "0x0000000000000000000000000004a2ae4ec31f31b741a62fd3399c44b6c79a75",
                        "key": "0x0000000000000000000000000000000000000000000000000000000000000009",
                        "prev": "0x0000000000000000000000000004a28ed5eaf904fc4338436a5a896c5a186404"
                    },
                    {
                        "current": "0x0000000000000000000000000000000006e78562e88913770f27f2fe0526ad8b",
                        "key": "0x000000000000000000000000000000000000000000000000000000000000000a",
                        "prev": "0x0000000000000000000000000000000006e7854bbeb3bed1587330d0a718b61e"
                    },
                    {
                        "current": "0x5f7f191600000001c8e9741738edd2521031000000000001b5c96654a46e4987",
                        "key": "0x0000000000000000000000000000000000000000000000000000000000000008",
                        "prev": "0x5f7f18fb00000001e2d4269d5d78d519f7f30000000000019e3882d537ce50f6"
                    }
                ],
                "storageVariables": [
                    {
                        "name": "price0CumulativeLast",
                        "type": "uint256",
                        "value": {
                            "current": "103374484939826148046066217422373332525226613",
                            "prev": "103363775556781707844383861595832195279774724",
                            "typeTag": 1
                        }
                    },
                    {
                        "name": "price1CumulativeLast",
                        "type": "uint256",
                        "value": {
                            "current": "9177493945834489526741944208722406795",
                            "prev": "9177492110639965360746421402191050270",
                            "typeTag": 1
                        }
                    },
                    {
                        "name": "reserve0",
                        "type": "uint112",
                        "value": {
                            "current": "31545857578615327111",
                            "prev": "29847750382673875190",
                            "typeTag": 1
                        }
                    },
                    {
                        "name": "reserve1",
                        "type": "uint112",
                        "value": {
                            "current": "2157705572775159493955633",
                            "prev": "2280094136969713755486195",
                            "typeTag": 1
                        }
                    },
                    {
                        "name": "blockTimestampLast",
                        "type": "uint32",
                        "value": {
                            "current": "1602165014",
                            "prev": "1602164987",
                            "typeTag": 1
                        }
                    }
                ]
            },
            {
                "address": "0x5adc961d6ac3f7062d2ea45fefb8d8167d44b190",
                "erc": "ERC-20",
                "slots": [
                    {
                        "current": "0x0000000000000000000000000000000000000000000000000000000000000000",
                        "key": "0xdb393a18aa6235f0e1f762d6014cdd4216a1b8b549d55dbdc65a417f2e66c8c8",
                        "prev": "0x000000000000000000000000000000000000000000000edc837f4ec3d590474f"
                    },
                    {
                        "current": "0x0000000000000000000000000000000000000000000217ed8e1b8cb007e0ed8a",
                        "key": "0x5a76d3b747133940d41b00644775a0b71137e41c35c1ab2d709144b06b5b0bbf",
                        "prev": "0x0000000000000000000000000000000000000000000209110a9c3dec3250a63b"
                    },
                    {
                        "current": "0xfffffffffffffffffffffffffffffffffffffffffffff1237c80b13c2a6fb8b0",
                        "key": "0x1c214213f124a345efa2795284dbc1c03bb6853ca595934fe3dab80720b2daab",
                        "prev": "0xffffffffffffffffffffffffffffffffffffffffffffffffffffffffffffffff"
                    }
                ],
                "storageVariables": [
                    {
                        "name": "allowed",
                        "type": "mapping(address => mapping(address => uint256))",
                        "value": {
                            "pairs": [
                                {
                                    "key": "0x7c48039659170a366bd5b6d65578d907c125b9a4",
                                    "value": {
                                        "pairs": [
                                            {
                                                "key": "0x7a250d5630b4cf539739df2c5dacb4c659f2488d",
                                                "value": {
                                                    "current": "115792089237316195423570985008687907853269984665640563969276694172777975888048",
                                                    "prev": "115792089237316195423570985008687907853269984665640564039457584007913129639935",
                                                    "typeTag": 1
                                                }
                                            }
                                        ],
                                        "typeTag": 4
                                    }
                                }
                            ],
                            "typeTag": 4
                        }
                    },
                    {
                        "name": "balances",
                        "type": "mapping(address => uint256)",
                        "value": {
                            "pairs": [
                                {
                                    "key": "0x7c48039659170a366bd5b6d65578d907c125b9a4",
                                    "value": {
                                        "current": "0",
                                        "prev": "70180889835135153751887",
                                        "typeTag": 1
                                    }
                                },
                                {
                                    "key": "0xc0cb62f0b5c9574cc88907dc0712f27b4a6a60c1",
                                    "value": {
                                        "current": "2530848186613594784329098",
                                        "prev": "2460667296778459630577211",
                                        "typeTag": 1
                                    }
                                }
                            ],
                            "typeTag": 4
                        }
                    }
                ]
            },
            {
                "address": "0xc02aaa39b223fe8d0a0e5c4f27ead9083c756cc2",
                "erc": "ERC-20",
                "slots": [
                    {
                        "current": "0x0000000000000000000000000000000000000000000000033cc0541720bd0d8e",
                        "key": "0x5a76d3b747133940d41b00644775a0b71137e41c35c1ab2d709144b06b5b0bbf",
                        "prev": "0x000000000000000000000000000000000000000000000003545137968d5d061f"
                    },
                    {
                        "current": "0x000000000000000000000000000000000000000000000001b5c96654a46e4987",
                        "key": "0x0466a26b649c9f5db37c69dcdc7680bb4fb1da24bda0ebb4c587cc257886da79",
                        "prev": "0x0000000000000000000000000000000000000000000000019e3882d537ce50f6"
                    }
                ],
                "storageVariables": [
                    {
                        "name": "balanceOf",
                        "type": "mapping(address => uint256)",
                        "value": {
                            "pairs": [
                                {
                                    "key": "0x3671a927539bd1f077336011567e7c57eb523407",
                                    "value": {
                                        "current": "31545857578615327111",
                                        "prev": "29847750382673875190",
                                        "typeTag": 1
                                    }
                                },
                                {
                                    "key": "0xc0cb62f0b5c9574cc88907dc0712f27b4a6a60c1",
                                    "value": {
                                        "current": "59717823517243018638",
                                        "prev": "61415930713184470559",
                                        "typeTag": 1
                                    }
                                }
                            ],
                            "typeTag": 4
                        }
                    }
                ]
            },
            {
                "address": "0xc0cb62f0b5c9574cc88907dc0712f27b4a6a60c1",
                "erc": "ERC-20",
                "slots": [
                    {
                        "current": "0x0000000000000000000000000000000001c9cf1924255929c6362e458eb93bde",
                        "key": "0x0000000000000000000000000000000000000000000000000000000000000009",
                        "prev": "0x0000000000000000000000000000000001c996d01d03e0d31e265afc3751a0d5"
                    },
                    {
                        "current": "0x0000000000000000000000000081df76d03354525706091bda4d73a0c16aa448",
                        "key": "0x000000000000000000000000000000000000000000000000000000000000000a",
                        "prev": "0x0000000000000000000000000081ca6d67fb38aaf4eeb6f37b1a93ed5fe849a4"
                    },
                    {
                        "current": "0x5f7f19160000000000033cc0541720bd0d8e0000000217ed8e1b8cb007e0ed8a",
                        "key": "0x0000000000000000000000000000000000000000000000000000000000000008",
                        "prev": "0x5f7ef6ad000000000003545137968d5d061f0000000209110a9c3dec3250a63b"
                    }
                ],
                "storageVariables": [
                    {
                        "name": "price0CumulativeLast",
                        "type": "uint256",
                        "value": {
                            "current": "2377080115029046648734934060674661342",
                            "prev": "2375938514228520710589785510633382101",
                            "typeTag": 1
                        }
                    },
                    {
                        "name": "price1CumulativeLast",
                        "type": "uint256",
                        "value": {
                            "current": "2896262600438470100095296572468099236210844744",
                            "prev": "2894430041361559774240182458643509793872431524",
                            "typeTag": 1
                        }
                    },
                    {
                        "name": "reserve0",
                        "type": "uint112",
                        "value": {
                            "current": "2530848186613594784329098",
                            "prev": "2460667296778459630577211",
                            "typeTag": 1
                        }
                    },
                    {
                        "name": "reserve1",
                        "type": "uint112",
                        "value": {
                            "current": "59717823517243018638",
                            "prev": "61415930713184470559",
                            "typeTag": 1
                        }
                    },
                    {
                        "name": "blockTimestampLast",
                        "type": "uint32",
                        "value": {
                            "current": "1602165014",
                            "prev": "1602156205",
                            "typeTag": 1
                        }
                    }
                ]
            },
            {
                "address": "0xfe2786d7d1ccab8b015f6ef7392f67d778f8d8d7",
                "erc": "ERC-20",
                "slots": [
                    {
                        "current": "0x00000000000000000000000000000000000000000000308cb478e0a08b8ab59d",
                        "key": "0x5cc73fb768fd335c3afef3b915e0e8550a94c7ccdf23894e5c4658571f1602a5",
                        "prev": "0x0000000000000000000000000000000000000000000016a201f2bc1588c2cddb"
                    },
                    {
                        "current": "0x00000000000000000000000000000000000000000001c8e9741738edd2521031",
                        "key": "0xa006a6b502c2bdec5aa12319dda0a6eefa85bacb94e08a2fa8fd3749ba725d5a",
                        "prev": "0x00000000000000000000000000000000000000000001e2d4269d5d78d519f7f3"
                    }
                ],
                "storageVariables": [
                    {
                        "name": "_balances",
                        "type": "mapping(address => uint256)",
                        "value": {
                            "pairs": [
                                {
                                    "key": "0x3671a927539bd1f077336011567e7c57eb523407",
                                    "value": {
                                        "current": "2157705572775159493955633",
                                        "prev": "2280094136969713755486195",
                                        "typeTag": 1
                                    }
                                },
                                {
                                    "key": "0x7c48039659170a366bd5b6d65578d907c125b9a4",
                                    "value": {
                                        "current": "229269139738966480303517",
                                        "prev": "106880575544412218772955",
                                        "typeTag": 1
                                    }
                                }
                            ],
                            "typeTag": 4
                        }
                    }
                ]
            }
        ]
    }
}