{
    "balance_change": {
        "balanceChanges": [
            {
                "account": "0xab11204cfeaccffa63c2d23aef2ea9accdb0a0d5",
                "assets": [
                    {
                        "address": "0x48c80f1f4d53d5951e5d5438b54cba84f29f32a5",
                        "amount": "136.99",
                        "iconUrl": "",
                        "isERC1155": false,
                        "isERC721": false,
                        "sign": false,
                        "value": ""
                    }
                ]
            },
            {
                "account": "0xb2d955733e6a470533f68f72d0af442070f24f55",
                "assets": [
                    {
                        "address": "0x48c80f1f4d53d5951e5d5438b54cba84f29f32a5",
                        "amount": "136.99",
                        "iconUrl": "",
                        "isERC1155": false,
                        "isERC721": false,
                        "sign": true,
                        "value": ""
                    }
                ]
            }
        ]
    },
    "profile": {
        "basic_info": {
            "baseFee": "",
            "blockNumber": 3755648,
            "callData": "0xa9059cbb000000000000000000000000b2d955733e6a470533f68f72d0af442070f24f550000000000000000000000000000000000000000000000076d1e3f3224c30000",
            "debugEnable": true,
            "errorInfo": "",
            "eventCount": 1,
            "feeRecipient": "0x73b8865eda227d6fffabc83c78124dea8c347fea",
            "formatValue": "0",
            "gasLimit": 90000,
            "gasPrice": "37.873055296",
            "gasUsed": 37210,
            "intTxnCount": 0,
            "internalRevert": false,
            "internalRevertMessage": "",
            "isContractCreation": false,
            "isFlashloan": false,
            "maxFee": "",
            "nonce": 30674,
            "overwritedBlockNumber": -1,
            "priorityFee": "",
            "receiver": "0x48c80f1f4d53d5951e5d5438b54cba84f29f32a5",
            "revertMessage": "",
            "sender": "0xab11204cfeaccffa63c2d23aef2ea9accdb0a0d5",
            "simulationEnable": true,
            "sourceTxnHash": "0xadfffe0afd26d89b80f4fdd9308567f0c88fb4440aee0a1a9a76243a72637c7c",
            "status": true,
            "timestamp": "2017-05-23T18:31:02Z",
            "transactionFee": "0.00140925638756416",
            "txnHash": "0xadfffe0afd26d89b80f4fdd9308567f0c88fb4440aee0a1a9a76243a72637c7c",
            "txnIndex": 1,
            "type": 0,
            "value": "0"
        },
        "fund_flow": [
            {
                "amount": "136.99",
                "from": "0xab11204cfeaccffa63c2d23aef2ea9accdb0a0d5",
                "id": 1,
                "isERC1155": false,
                "isERC721": false,
                "isReverted": false,
                "order": 1,
                "to": "0xb2d955733e6a470533f68f72d0af442070f24f55",
                "token": "0x48c80f1f4d53d5951e5d5438b54cba84f29f32a5"
            }
        ],
        "token_infos": [
            {
                "address": "0x48c80f1f4d53d5951e5d5438b54cba84f29f32a5",
                "decimals": 18
            },
            {
                "address": "0xc02aaa39b223fe8d0a0e5c4f27ead9083c756cc2",
                "decimals": 18
            },
            {
                "address": "0xeeeeeeeeeeeeeeeeeeeeeeeeeeeeeeeeeeeeeeee",
                "decimals": 18
            }
        ]
    },
    "address_label": {
        "labels": [
            {
                "address": "0x0000000000000000000000000000000000000004",
                "label": "Precompiled"
            },
            {
                "address": "0xeeeeeeeeeeeeeeeeeeeeeeeeeeeeeeeeeeeeeeee",
                "label": "Ether"
            },
            {
                "address": "0x48c80f1f4d53d5951e5d5438b54cba84f29f32a5",
                "label": "Augur: Old Token"
            },
            {
                "address": "0xab11204cfeaccffa63c2d23aef2ea9accdb0a0d5",
                "label": "Poloniex: REP"
            },
            {
                "address": "0x0000000000000000000000000000000000000001",
                "label": "Precompiled"
            },
            {
                "address": "0x0000000000000000000000000000000000000002",
                "label": "Precompiled"
            },
            {
                "address": "0x0000000000000000000000000000000000000003",
                "label": "Precompiled"
            }
        ]
    },
    "trace": {
        "accountLabels": null,
        "dataMap": {
            "-1": {
                "invocation": {
                    "address": "0xab11204cfeaccffa63c2d23aef2ea9accdb0a0d5",
                    "callData": "",
                    "decodedMethod": null,
                    "errorInfo": "",
                    "fromAddress": "",
                    "gasUsed": 0,
                    "id": -1,
                    "methodDecoded": false,
                    "operation": "",
                    "output": "",
                    "revert": false,
                    "revertMessage": "",
                    "selector": "",
                    "status": false,
                    "value": ""
                },
                "nodeType": 0
            },
            "0": {
                "invocation": {
                    "address": "0x48c80f1f4d53d5951e5d5438b54cba84f29f32a5",
                    "callData": "0x000000000000000000000000b2d955733e6a470533f68f72d0af442070f24f550000000000000000000000000000000000000000000000076d1e3f3224c30000",
                    "decodedMethod": {
                        "callParams": [
                            {
                                "name": "recipient",
                                "type": "address",
                                "value": "0xb2d955733e6a470533f68f72d0af442070f24f55"
                            },
                            {
                                "decimalAvailable": true,
                                "name": "amount",
                                "type": "uint256",
                                "value": "136,990,000,000,000,000,000"
                            }
                        ],
                        "constructorArguments": "",
                        "name": "transfer",
                        "returnParams": [
                            {
                                "name": "",
                                "type": "bool",
                                "value": true
                            }
                        ],
                        "signature": "transfer(address,uint256)"
                    },
                    "errorInfo": "",
                    "fromAddress": "0xab11204cfeaccffa63c2d23aef2ea9accdb0a0d5",
                    "gasUsed": 37210,
                    "id": 0,
                    "methodDecoded": true,
                    "operation": "CALL",
                    "output": "0x0000000000000000000000000000000000000000000000000000000000000001",
                    "revert": false,
                    "revertMessage": "",
                    "selector": "0xa9059cbb",
                    "status": true,
                    "value": "0"
                },
                "nodeType": 0
            },
            "1": {
                "event": {
                    "contract": "0x48c80f1f4d53d5951e5d5438b54cba84f29f32a5",
                    "decodedLog": {
                        "name": "Transfer",
                        "params": [
                            {
                                "name": "from",
                                "type": "address",
                                "value": "0xab11204cfeaccffa63c2d23aef2ea9accdb0a0d5"
                            },
                            {
                                "name": "to",
                                "type": "address",
                                "value": "0xb2d955733e6a470533f68f72d0af442070f24f55"
                            },
                            {
                                "decimalAvailable": true,
                                "name": "value",
                                "type": "uint256",
                                "value": "136,990,000,000,000,000,000"
                            }
                        ],
                        "signature": "Transfer(address,address,uint256)"
                    },
                    "id": 1,
                    "logData": "0x0000000000000000000000000000000000000000000000076d1e3f3224c30000",
                    "logDecoded": true,
                    "operation": "EVENT",
                    "revert": false,
                    "status": true,
                    "topics": [
                        "0xddf252ad1be2c89b69c2b068fc378daa952ba7f163c4a11628f55a4df523b3ef",
                        "0x000000000000000000000000ab11204cfeaccffa63c2d23aef2ea9accdb0a0d5",
                        "0x000000000000000000000000b2d955733e6a470533f68f72d0af442070f24f55"
                    ]
                },
                "nodeType": 1
            }
        },
        "gasFlame": [
            {
                "children": [
                    {
                        "children": [
                            {
                                "children": [],
                                "depth": 0,
                                "name": "Initial Gas",
                                "value": 23256
                            },
                            {
                                "children": [],
                                "depth": 0,
                                "name": "Executed Gas",
                                "value": 13954
                            }
                        ],
                        "depth": -1,
                        "name": "Actual Gas Used",
                        "value": 37210
                    },
                    {
                        "children": [],
                        "depth": -1,
                        "name": "Refunded Gas",
                        "value": 0
                    }
                ],
                "depth": -2,
                "name": "Total Gas",
                "value": 37210
            }
        ],
        "isConfirmed": true,
        "mainTrace": [
            {
                "children": [
                    {
                        "children": [
                            {
                                "children": [],
                                "depth": 1,
                                "id": 1,
                                "order": 1
                            }
                        ],
                        "depth": 0,
                        "id": 0,
                        "order": 0
                    }
                ],
                "depth": -1,
                "id": -1,
                "order": -1
            }
        ],
        "mainTraceNodeCount": 2,
        "parentIdMap": {
            "0": -1,
            "1": 0
        },
        "tidyTrace": [
            {
                "children": [
                    {
                        "children": [
                            {
                                "children": [],
                                "depth": 1,
                                "id": 1,
                                "order": 1
                            }
                        ],
                        "depth": 0,
                        "id": 0,
                        "order": 0
                    }
                ],
                "depth": -1,
                "id": -1,
                "order": -1
            }
        ],
        "tidyTraceNodeCount": 2
    },
    "state_change": {
        "stateChanges": [
            {
                "address": "0x48c80f1f4d53d5951e5d5438b54cba84f29f32a5",
                "erc": "",
                "slots": [
                    {
                        "current": "0x000000000000000000000000000000000000000000006ff074337094fddb225e",
                        "key": "0x000000000000000000000000ab11204cfeaccffa63c2d23aef2ea9accdb0a0d5",
                        "prev": "0x000000000000000000000000000000000000000000006ff7e151afc7229e225e"
                    },
                    {
                        "current": "0x0000000000000000000000000000000000000000000000bfaa3d19206472a1a8",
                        "key": "0x000000000000000000000000b2d955733e6a470533f68f72d0af442070f24f55",
                        "prev": "0x0000000000000000000000000000000000000000000000b83d1ed9ee3fafa1a8"
                    }
                ],
                "storageVariables": []
            }
        ]
    }
}