{
    "balance_change": {
        "balanceChanges": [
            {
                "account": "0x038201e05d140124952e34e31665420489288338",
                "assets": [
                    {
                        "address": "0x0cfc5e357c03816a1b06eea6fdd263a60ac50d90",
                        "amount": "10,000",
                        "iconUrl": "",
                        "isERC1155": false,
                        "isERC721": false,
                        "sign": false,
                        "value": ""
                    }
                ]
            },
            {
                "account": "0x063ed6f03b3d0b701a083ab1a72bebae9dcbcfff",
                "assets": [
                    {
                        "address": "0x35da18d10cf76e40634ff42d9783784958b531c0",
                        "amount": "0.13460927",
                        "iconUrl": "",
                        "isERC1155": false,
                        "isERC721": false,
                        "sign": false,
                        "value": ""
                    }
                ]
            },
            {
                "account": "0x063ed6f59bd44d8bc99c3b170a3d52b49dcbcfff",
                "assets": [
                    {
                        "address": "0x35da18d10cf76e40634ff42d9783784958b531c0",
                        "amount": "0.13460927",
                        "iconUrl": "",
                        "isERC1155": false,
                        "isERC721": false,
                        "sign": false,
                        "value": ""
                    }
                ]
            },
            {
                "account": "0x284fa4a7d1e40a996811b3de5e852a2cd01531ff",
                "assets": [
                    {
                        "address": "0x35da18d10cf76e40634ff42d9783784958b531c0",
                        "amount": "0.141441745171842",
                        "iconUrl": "",
                        "isERC1155": false,
                        "isERC721": false,
                        "sign": true,
                        "value": ""
                    }
                ]
            },
            {
                "account": "0x284fae52ede6320b102cbe50acac35d4d02631ff",
                "assets": [
                    {
                        "address": "0x35da18d10cf76e40634ff42d9783784958b531c0",
                        "amount": "0.141441745171842",
                        "iconUrl": "",
                        "isERC1155": false,
                        "isERC721": false,
                        "sign": true,
                        "value": ""
                    }
                ]
            },
            {
                "account": "0x3eaa01ba1ee4f5b65c81cb740759bb1edba76238",
                "assets": [
                    {
                        "address": "0x0cfc5e357c03816a1b06eea6fdd263a60ac50d90",
                        "amount": "5,590",
                        "iconUrl": "",
                        "isERC1155": false,
                        "isERC721": false,
                        "sign": false,
                        "value": ""
                    }
                ]
            },
            {
                "account": "0x3eaa01baaf5fbbb23e29baa44a44d916dba76238",
                "assets": [
                    {
                        "address": "0x0cfc5e357c03816a1b06eea6fdd263a60ac50d90",
                        "amount": "5,590",
                        "iconUrl": "",
                        "isERC1155": false,
                        "isERC721": false,
                        "sign": false,
                        "value": ""
                    }
                ]
            },
            {
                "account": "0x44d092d2c4133fd7bdebacc6342146c9a6dff186",
                "assets": [
                    {
                        "address": "0x0cfc5e357c03816a1b06eea6fdd263a60ac50d90",
                        "amount": "50.019257",
                        "iconUrl": "",
                        "isERC1155": false,
                        "isERC721": false,
                        "sign": false,
                        "value": ""
                    }
                ]
            },
            {
                "account": "0x498b23186f679d05856d31ee122ef8b6df00fff8",
                "assets": [
                    {
                        "address": "0x35da18d10cf76e40634ff42d9783784958b531c0",
                        "amount": "0.141441745171842",
                        "iconUrl": "",
                        "isERC1155": false,
                        "isERC721": false,
                        "sign": false,
                        "value": ""
                    }
                ]
            },
            {
                "account": "0x498b894f1f490229b0de5bab7f5b4d8e3cebfff8",
                "assets": [
                    {
                        "address": "0x35da18d10cf76e40634ff42d9783784958b531c0",
                        "amount": "0.141441745171842",
                        "iconUrl": "",
                        "isERC1155": false,
                        "isERC721": false,
                        "sign": false,
                        "value": ""
                    }
                ]
            },
            {
                "account": "0x50d8f7e1f77f67ef11b8049d2b1ce583147e28e1",
                "assets": [
                    {
                        "address": "0x0cfc5e357c03816a1b06eea6fdd263a60ac50d90",
                        "amount": "50.019257",
                        "iconUrl": "",
                        "isERC1155": false,
                        "isERC721": false,
                        "sign": true,
                        "value": ""
                    }
                ]
            },
            {
                "account": "0x5bcbdfb6cc624b959c39a2d16110d1f2d9204f72",
                "assets": [
                    {
                        "address": "0x0cfc5e357c03816a1b06eea6fdd263a60ac50d90",
                        "amount": "1,277",
                        "iconUrl": "",
                        "isERC1155": false,
                        "isERC721": false,
                        "sign": false,
                        "value": ""
                    }
                ]
            },
            {
                "account": "0x5bcbdfbd6b7fef82862edb137e3bfc2fd9204f72",
                "assets": [
                    {
                        "address": "0x0cfc5e357c03816a1b06eea6fdd263a60ac50d90",
                        "amount": "1,277",
                        "iconUrl": "",
                        "isERC1155": false,
                        "isERC721": false,
                        "sign": false,
                        "value": ""
                    }
                ]
            },
            {
                "account": "0x65cbc8a50eeaced1e0145ca430005ef6e87ba084",
                "assets": [
                    {
                        "address": "0x35da18d10cf76e40634ff42d9783784958b531c0",
                        "amount": "10.65766031",
                        "iconUrl": "",
                        "isERC1155": false,
                        "isERC721": false,
                        "sign": false,
                        "value": ""
                    }
                ]
            },
            {
                "account": "0x9f6a0a5f81c1f58b45d3e262ba4cf6ee47b16d62",
                "assets": [
                    {
                        "address": "0x35da18d10cf76e40634ff42d9783784958b531c0",
                        "amount": "0.13460927",
                        "iconUrl": "",
                        "isERC1155": false,
                        "isERC721": false,
                        "sign": true,
                        "value": ""
                    }
                ]
            },
            {
                "account": "0x9f6a2714b6066c45be145f17bca5658ce40d6d62",
                "assets": [
                    {
                        "address": "0x35da18d10cf76e40634ff42d9783784958b531c0",
                        "amount": "0.13460927",
                        "iconUrl": "",
                        "isERC1155": false,
                        "isERC721": false,
                        "sign": true,
                        "value": ""
                    }
                ]
            },
            {
                "account": "0xaad6825c2e63363adebbb79203d45b4ed0ac1862",
                "assets": [
                    {
                        "address": "0x35da18d10cf76e40634ff42d9783784958b531c0",
                        "amount": "10.65766031",
                        "iconUrl": "",
                        "isERC1155": false,
                        "isERC721": false,
                        "sign": true,
                        "value": ""
                    }
                ]
            },
            {
                "account": "0xafc53db8506736e8264b4629e971a152ec3ff7d4",
                "assets": [
                    {
                        "address": "0x0cfc5e357c03816a1b06eea6fdd263a60ac50d90",
                        "amount": "5,590",
                        "iconUrl": "",
                        "isERC1155": false,
                        "isERC721": false,
                        "sign": true,
                        "value": ""
                    }
                ]
            },
            {
                "account": "0xafc53dbf12b9909ac88cc36f529574feec3ff7d4",
                "assets": [
                    {
                        "address": "0x0cfc5e357c03816a1b06eea6fdd263a60ac50d90",
                        "amount": "5,590",
                        "iconUrl": "",
                        "isERC1155": false,
                        "isERC721": false,
                        "sign": true,
                        "value": ""
                    }
                ]
            },
            {
                "account": "0xbd76d2a4f0abd71c6f4bcbfef8d73e72ac3bfcd4",
                "assets": [
                    {
                        "address": "0x0cfc5e357c03816a1b06eea6fdd263a60ac50d90",
                        "amount": "2,500.412853",
                        "iconUrl": "",
                        "isERC1155": false,
                        "isERC721": false,
                        "sign": true,
                        "value": ""
                    }
                ]
            },
            {
                "account": "0xbd76d2a517c1f79da6bd97c4d421ccddac3bfcd4",
                "assets": [
                    {
                        "address": "0x0cfc5e357c03816a1b06eea6fdd263a60ac50d90",
                        "amount": "2,500.412853",
                        "iconUrl": "",
                        "isERC1155": false,
                        "isERC721": false,
                        "sign": true,
                        "value": ""
                    }
                ]
            },
            {
                "account": "0xcb69535abbc95a042914507f963bdd74ad0025ff",
                "assets": [
                    {
                        "address": "0x0cfc5e357c03816a1b06eea6fdd263a60ac50d90",
                        "amount": "2,500.412853",
                        "iconUrl": "",
                        "isERC1155": false,
                        "isERC721": false,
                        "sign": false,
                        "value": ""
                    }
                ]
            },
            {
                "account": "0xcb69535f08554a07d23c1449599f5843ad0025ff",
                "assets": [
                    {
                        "address": "0x0cfc5e357c03816a1b06eea6fdd263a60ac50d90",
                        "amount": "2,500.412853",
                        "iconUrl": "",
                        "isERC1155": false,
                        "isERC721": false,
                        "sign": false,
                        "value": ""
                    }
                ]
            },
            {
                "account": "0xe53cea150243978ca97deb1a66a0799447f34753",
                "assets": [
                    {
                        "address": "0x0cfc5e357c03816a1b06eea6fdd263a60ac50d90",
                        "amount": "10,000",
                        "iconUrl": "",
                        "isERC1155": false,
                        "isERC721": false,
                        "sign": true,
                        "value": ""
                    }
                ]
            },
            {
                "account": "0xf17435f38e8d16e545af9068e9e7128e32049962",
                "assets": [
                    {
                        "address": "0x0cfc5e357c03816a1b06eea6fdd263a60ac50d90",
                        "amount": "1,277",
                        "iconUrl": "",
                        "isERC1155": false,
                        "isERC721": false,
                        "sign": true,
                        "value": ""
                    }
                ]
            },
            {
                "account": "0xf17435f47ffbcfb3f910b6d96dc9238432049962",
                "assets": [
                    {
                        "address": "0x0cfc5e357c03816a1b06eea6fdd263a60ac50d90",
                        "amount": "1,277",
                        "iconUrl": "",
                        "isERC1155": false,
                        "isERC721": false,
                        "sign": true,
                        "value": ""
                    }
                ]
            }
        ]
    },
    "profile": {
        "basic_info": {
            "baseFee": "32.730869034",
            "blockNumber": 17872160,
            "callData": "0x12514bba0000000000000000000000000000000000000000000000000000000000000020000000000000000000000000000000000000000000000000000000000000005800000000000000000000000035da18d10cf76e40634ff42d9783784958b531c00000000000000000000000000cfc5e357c03816a1b06eea6fdd263a60ac50d90000000000000000000000000dac17f958d2ee523a2206206994597c13d831ec70000000000000000000000000cfc5e357c03816a1b06eea6fdd263a60ac50d90000000000000000000000000dac17f958d2ee523a2206206994597c13d831ec700000000000000000000000035da18d10cf76e40634ff42d9783784958b531c00000000000000000000000000cfc5e357c03816a1b06eea6fdd263a60ac50d90000000000000000000000000dac17f958d2ee523a2206206994597c13d831ec700000000000000000000000035da18d10cf76e40634ff42d9783784958b531c00000000000000000000000000cfc5e357c03816a1b06eea6fdd263a60ac50d90000000000000000000000000dac17f958d2ee523a2206206994597c13d831ec70000000000000000000000000cfc5e357c03816a1b06eea6fdd263a60ac50d90000000000000000000000000dac17f958d2ee523a2206206994597c13d831ec70000000000000000000000000cfc5e357c03816a1b06eea6fdd263a60ac50d90000000000000000000000000dac17f958d2ee523a2206206994597c13d831ec70000000000000000000000000cfc5e357c03816a1b06eea6fdd263a60ac50d90000000000000000000000000dac17f958d2ee523a2206206994597c13d831ec700000000000000000000000035da18d10cf76e40634ff42d9783784958b531c00000000000000000000000000cfc5e357c03816a1b06eea6fdd263a60ac50d90000000000000000000000000dac17f958d2ee523a2206206994597c13d831ec700000000000000000000000035da18d10cf76e40634ff42d9783784958b531c000000000000000000000000035da18d10cf76e40634ff42d9783784958b531c0000000000000000000000000498b23186f679d05856d31ee122ef8b6df00fff80000000000000000000000005bcbdfbd6b7fef82862edb137e3bfc2fd9204f720000000000000000000000005bcbdfbd6b7fef82862edb137e3bfc2fd9204f720000000000000000000000003eaa01baaf5fbbb23e29baa44a44d916dba762380000000000000000000000003eaa01baaf5fbbb23e29baa44a44d916dba76238000000000000000000000000063ed6f03b3d0b701a083ab1a72bebae9dcbcfff00000000000000000000000044d092d2c4133fd7bdebacc6342146c9a6dff18600000000000000000000000044d092d2c4133fd7bdebacc6342146c9a6dff186000000000000000000000000498b894f1f490229b0de5bab7f5b4d8e3cebfff80000000000000000000000003eaa01ba1ee4f5b65c81cb740759bb1edba762380000000000000000000000003eaa01ba1ee4f5b65c81cb740759bb1edba762380000000000000000000000005bcbdfb6cc624b959c39a2d16110d1f2d9204f720000000000000000000000005bcbdfb6cc624b959c39a2d16110d1f2d9204f72000000000000000000000000cb69535abbc95a042914507f963bdd74ad0025ff000000000000000000000000cb69535abbc95a042914507f963bdd74ad0025ff000000000000000000000000038201e05d140124952e34e31665420489288338000000000000000000000000038201e05d140124952e34e3166542048928833800000000000000000000000065cbc8a50eeaced1e0145ca430005ef6e87ba084000000000000000000000000cb69535f08554a07d23c1449599f5843ad0025ff000000000000000000000000cb69535f08554a07d23c1449599f5843ad0025ff000000000000000000000000063ed6f59bd44d8bc99c3b170a3d52b49dcbcfff000000000000000000000000c27fd9d257d156e7fcc986651f5e54f335f052c8000000000000000000000000284fa4a7d1e40a996811b3de5e852a2cd01531ff000000000000000000000000f17435f47ffbcfb3f910b6d96dc9238432049962000000000000000000000000f17435f47ffbcfb3f910b6d96dc9238432049962000000000000000000000000afc53dbf12b9909ac88cc36f529574feec3ff7d4000000000000000000000000afc53dbf12b9909ac88cc36f529574feec3ff7d40000000000000000000000009f6a0a5f81c1f58b45d3e262ba4cf6ee47b16d6200000000000000000000000050d8f7e1f77f67ef11b8049d2b1ce583147e28e100000000000000000000000050d8f7e1f77f67ef11b8049d2b1ce583147e28e1000000000000000000000000284fae52ede6320b102cbe50acac35d4d02631ff000000000000000000000000afc53db8506736e8264b4629e971a152ec3ff7d4000000000000000000000000afc53db8506736e8264b4629e971a152ec3ff7d4000000000000000000000000f17435f38e8d16e545af9068e9e7128e32049962000000000000000000000000f17435f38e8d16e545af9068e9e7128e32049962000000000000000000000000bd76d2a517c1f79da6bd97c4d421ccddac3bfcd4000000000000000000000000bd76d2a517c1f79da6bd97c4d421ccddac3bfcd4000000000000000000000000e53cea150243978ca97deb1a66a0799447f34753000000000000000000000000e53cea150243978ca97deb1a66a0799447f34753000000000000000000000000aad6825c2e63363adebbb79203d45b4ed0ac1862000000000000000000000000bd76d2a4f0abd71c6f4bcbfef8d73e72ac3bfcd4000000000000000000000000bd76d2a4f0abd71c6f4bcbfef8d73e72ac3bfcd40000000000000000000000009f6a2714b6066c45be145f17bca5658ce40d6d62000000000000000000000000e4edb277e41dc89ab076a1f049f4a3efa700bce8000000000000000000000000000000000000000000000000000080a3f8fa358200000000000000000000000000000000000000000000000011b8d0bbf22c800000000000000000000000000000000000000000000000000000000000000000000000000000000000000000000000000000000000000000004d93ab62066f0000000000000000000000000000000000000000000000000000000000000000000000000000000000000000000000000000000000000000000000007a6d29b8c98000000000000000000000000000000000000000000000000000b1b43fcd69fa000000000000000000000000000000000000000000000000000000000000000000000000000000000000000000000000000000000000000000000080a3f8fa35820000000000000000000000000000000000000000000000004d93ab62066f0000000000000000000000000000000000000000000000000000000000000000000000000000000000000000000000000000000000000000000011b8d0bbf22c8000000000000000000000000000000000000000000000000000000000000000000000000000000000000000000000000000000000000000000022b3403df6e2d20000000000000000000000000000000000000000000000000000000000000000000000000000000000000000000000000000000000000000008ac7230489e8000000000000000000000000000000000000000000000000000000000000000000000000000000000000000000000000000000000000000000000025dd15e8ea118000000000000000000000000000000000000000000000000022b3403df6e2d200000000000000000000000000000000000000000000000000000000000000000000000000000000000000000000000000000000000000000000007a6d29b8c980000000000000000000000000000000000000000000000000000c7052a649a009",
            "debugEnable": true,
            "errorInfo": "",
            "eventCount": 21,
            "feeRecipient": "0x690b9a9e9aa1c9db991c7721a92d351db4fac990",
            "formatValue": "0",
            "gasLimit": 18500000,
            "gasPrice": "35.730869034",
            "gasUsed": 214360,
            "intTxnCount": 22,
            "internalRevert": false,
            "internalRevertMessage": "",
            "isContractCreation": false,
            "isFlashloan": false,
            "maxFee": "200",
            "nonce": 783,
            "overwritedBlockNumber": -1,
            "priorityFee": "3",
            "receiver": "0xb2ccaea94f97fb8ea230f61a4c9db0917ee7dff2",
            "revertMessage": "",
            "sender": "0x21432daa755aabf2438789415268bed44fa69d99",
            "simulationEnable": true,
            "sourceTxnHash": "0xad5d427d8a47ca2fb991db36390b278d7c73132c2320780ca69f668b53ff2aaa",
            "status": true,
            "timestamp": "2023-08-08T19:03:23Z",
            "transactionFee": "0.00765926908612824",
            "txnHash": "0xad5d427d8a47ca2fb991db36390b278d7c73132c2320780ca69f668b53ff2aaa",
            "txnIndex": 11,
            "type": 2,
            "value": "0"
        },
        "fund_flow": [
            {
                "amount": "0.141441745171842",
                "from": "0x498b23186f679d05856d31ee122ef8b6df00fff8",
                "id": 1,
                "isERC1155": false,
                "isERC721": false,
                "isReverted": false,
                "order": 1,
                "to": "0x284fa4a7d1e40a996811b3de5e852a2cd01531ff",
                "token": "0x35da18d10cf76e40634ff42d9783784958b531c0"
            },
            {
                "amount": "1,277",
                "from": "0x5bcbdfbd6b7fef82862edb137e3bfc2fd9204f72",
                "id": 2,
                "isERC1155": false,
                "isERC721": false,
                "isReverted": false,
                "order": 2,
                "to": "0xf17435f47ffbcfb3f910b6d96dc9238432049962",
                "token": "0x0cfc5e357c03816a1b06eea6fdd263a60ac50d90"
            },
            {
                "amount": "0",
                "from": "0x5bcbdfbd6b7fef82862edb137e3bfc2fd9204f72",
                "id": 3,
                "isERC1155": false,
                "isERC721": false,
                "isReverted": false,
                "order": 3,
                "to": "0xf17435f47ffbcfb3f910b6d96dc9238432049962",
                "token": "0xdac17f958d2ee523a2206206994597c13d831ec7"
            },
            {
                "amount": "5,590",
                "from": "0x3eaa01baaf5fbbb23e29baa44a44d916dba76238",
                "id": 4,
                "isERC1155": false,
                "isERC721": false,
                "isReverted": false,
                "order": 4,
                "to": "0xafc53dbf12b9909ac88cc36f529574feec3ff7d4",
                "token": "0x0cfc5e357c03816a1b06eea6fdd263a60ac50d90"
            },
            {
                "amount": "0",
                "from": "0x3eaa01baaf5fbbb23e29baa44a44d916dba76238",
                "id": 5,
                "isERC1155": false,
                "isERC721": false,
                "isReverted": false,
                "order": 5,
                "to": "0xafc53dbf12b9909ac88cc36f529574feec3ff7d4",
                "token": "0xdac17f958d2ee523a2206206994597c13d831ec7"
            },
            {
                "amount": "0.13460927",
                "from": "0x063ed6f03b3d0b701a083ab1a72bebae9dcbcfff",
                "id": 6,
                "isERC1155": false,
                "isERC721": false,
                "isReverted": false,
                "order": 6,
                "to": "0x9f6a0a5f81c1f58b45d3e262ba4cf6ee47b16d62",
                "token": "0x35da18d10cf76e40634ff42d9783784958b531c0"
            },
            {
                "amount": "50.019257",
                "from": "0x44d092d2c4133fd7bdebacc6342146c9a6dff186",
                "id": 7,
                "isERC1155": false,
                "isERC721": false,
                "isReverted": false,
                "order": 7,
                "to": "0x50d8f7e1f77f67ef11b8049d2b1ce583147e28e1",
                "token": "0x0cfc5e357c03816a1b06eea6fdd263a60ac50d90"
            },
            {
                "amount": "0",
                "from": "0x44d092d2c4133fd7bdebacc6342146c9a6dff186",
                "id": 8,
                "isERC1155": false,
                "isERC721": false,
                "isReverted": false,
                "order": 8,
                "to": "0x50d8f7e1f77f67ef11b8049d2b1ce583147e28e1",
                "token": "0xdac17f958d2ee523a2206206994597c13d831ec7"
            },
            {
                "amount": "0.141441745171842",
                "from": "0x498b894f1f490229b0de5bab7f5b4d8e3cebfff8",
                "id": 9,
                "isERC1155": false,
                "isERC721": false,
                "isReverted": false,
                "order": 9,
                "to": "0x284fae52ede6320b102cbe50acac35d4d02631ff",
                "token": "0x35da18d10cf76e40634ff42d9783784958b531c0"
            },
            {
                "amount": "5,590",
                "from": "0x3eaa01ba1ee4f5b65c81cb740759bb1edba76238",
                "id": 10,
                "isERC1155": false,
                "isERC721": false,
                "isReverted": false,
                "order": 10,
                "to": "0xafc53db8506736e8264b4629e971a152ec3ff7d4",
                "token": "0x0cfc5e357c03816a1b06eea6fdd263a60ac50d90"
            },
            {
                "amount": "0",
                "from": "0x3eaa01ba1ee4f5b65c81cb740759bb1edba76238",
                "id": 11,
                "isERC1155": false,
                "isERC721": false,
                "isReverted": false,
                "order": 11,
                "to": "0xafc53db8506736e8264b4629e971a152ec3ff7d4",
                "token": "0xdac17f958d2ee523a2206206994597c13d831ec7"
            },
            {
                "amount": "1,277",
                "from": "0x5bcbdfb6cc624b959c39a2d16110d1f2d9204f72",
                "id": 12,
                "isERC1155": false,
                "isERC721": false,
                "isReverted": false,
                "order": 12,
                "to": "0xf17435f38e8d16e545af9068e9e7128e32049962",
                "token": "0x0cfc5e357c03816a1b06eea6fdd263a60ac50d90"
            },
            {
                "amount": "0",
                "from": "0x5bcbdfb6cc624b959c39a2d16110d1f2d9204f72",
                "id": 13,
                "isERC1155": false,
                "isERC721": false,
                "isReverted": false,
                "order": 13,
                "to": "0xf17435f38e8d16e545af9068e9e7128e32049962",
                "token": "0xdac17f958d2ee523a2206206994597c13d831ec7"
            },
            {
                "amount": "2,500.412853",
                "from": "0xcb69535abbc95a042914507f963bdd74ad0025ff",
                "id": 14,
                "isERC1155": false,
                "isERC721": false,
                "isReverted": false,
                "order": 14,
                "to": "0xbd76d2a517c1f79da6bd97c4d421ccddac3bfcd4",
                "token": "0x0cfc5e357c03816a1b06eea6fdd263a60ac50d90"
            },
            {
                "amount": "0",
                "from": "0xcb69535abbc95a042914507f963bdd74ad0025ff",
                "id": 15,
                "isERC1155": false,
                "isERC721": false,
                "isReverted": false,
                "order": 15,
                "to": "0xbd76d2a517c1f79da6bd97c4d421ccddac3bfcd4",
                "token": "0xdac17f958d2ee523a2206206994597c13d831ec7"
            },
            {
                "amount": "10,000",
                "from": "0x038201e05d140124952e34e31665420489288338",
                "id": 16,
                "isERC1155": false,
                "isERC721": false,
                "isReverted": false,
                "order": 16,
                "to": "0xe53cea150243978ca97deb1a66a0799447f34753",
                "token": "0x0cfc5e357c03816a1b06eea6fdd263a60ac50d90"
            },
            {
                "amount": "0",
                "from": "0x038201e05d140124952e34e31665420489288338",
                "id": 17,
                "isERC1155": false,
                "isERC721": false,
                "isReverted": false,
                "order": 17,
                "to": "0xe53cea150243978ca97deb1a66a0799447f34753",
                "token": "0xdac17f958d2ee523a2206206994597c13d831ec7"
            },
            {
                "amount": "10.65766031",
                "from": "0x65cbc8a50eeaced1e0145ca430005ef6e87ba084",
                "id": 18,
                "isERC1155": false,
                "isERC721": false,
                "isReverted": false,
                "order": 18,
                "to": "0xaad6825c2e63363adebbb79203d45b4ed0ac1862",
                "token": "0x35da18d10cf76e40634ff42d9783784958b531c0"
            },
            {
                "amount": "2,500.412853",
                "from": "0xcb69535f08554a07d23c1449599f5843ad0025ff",
                "id": 19,
                "isERC1155": false,
                "isERC721": false,
                "isReverted": false,
                "order": 19,
                "to": "0xbd76d2a4f0abd71c6f4bcbfef8d73e72ac3bfcd4",
                "token": "0x0cfc5e357c03816a1b06eea6fdd263a60ac50d90"
            },
            {
                "amount": "0",
                "from": "0xcb69535f08554a07d23c1449599f5843ad0025ff",
                "id": 20,
                "isERC1155": false,
                "isERC721": false,
                "isReverted": false,
                "order": 20,
                "to": "0xbd76d2a4f0abd71c6f4bcbfef8d73e72ac3bfcd4",
                "token": "0xdac17f958d2ee523a2206206994597c13d831ec7"
            },
            {
                "amount": "0.13460927",
                "from": "0x063ed6f59bd44d8bc99c3b170a3d52b49dcbcfff",
                "id": 21,
                "isERC1155": false,
                "isERC721": false,
                "isReverted": false,
                "order": 21,
                "to": "0x9f6a2714b6066c45be145f17bca5658ce40d6d62",
                "token": "0x35da18d10cf76e40634ff42d9783784958b531c0"
            }
        ],
        "token_infos": [
            {
                "address": "0xdac17f958d2ee523a2206206994597c13d831ec7",
                "decimals": 6
            },
            {
                "address": "0xeeeeeeeeeeeeeeeeeeeeeeeeeeeeeeeeeeeeeeee",
                "decimals": 18
            },
            {
                "address": "0x0cfc5e357c03816a1b06eea6fdd263a60ac50d90",
                "decimals": 15
            },
            {
                "address": "0x35da18d10cf76e40634ff42d9783784958b531c0",
                "decimals": 15
            },
            {
                "address": "0xc02aaa39b223fe8d0a0e5c4f27ead9083c756cc2",
                "decimals": 18
            }
        ]
    },
    "address_label": {
        "labels": [
            {
                "address": "0xafc53db8506736e8264b4629e971a152ec3ff7d4",
                "label": "500 Casino: Hot Wallet"
            },
            {
                "address": "0x0000000000000000000000000000000000000003",
                "label": "Precompiled"
            },
            {
                "address": "0x5bcbdfb6cc624b959c39a2d16110d1f2d9204f72",
                "label": "Bitcasino.io: Hot Wallet"
            },
            {
                "address": "0xdac17f958d2ee523a2206206994597c13d831ec7",
                "label": "Tether: USDT Stablecoin"
            },
            {
                "address": "0x0cfc5e357c03816a1b06eea6fdd263a60ac50d90",
                "label": "Fake_Phishing185806"
            },
            {
                "address": "0xbd76d2a4f0abd71c6f4bcbfef8d73e72ac3bfcd4",
                "label": "BINANCE"
            },
            {
                "address": "0xb2ccaea94f97fb8ea230f61a4c9db0917ee7dff2",
                "label": "Fake_Phishing_b2cc_dff2"
            },
            {
                "address": "0x0000000000000000000000000000000000000002",
                "label": "Precompiled"
            },
            {
                "address": "0x0000000000000000000000000000000000000004",
                "label": "Precompiled"
            },
            {
                "address": "0xeeeeeeeeeeeeeeeeeeeeeeeeeeeeeeeeeeeeeeee",
                "label": "Ether"
            },
            {
                "address": "0x21432daa755aabf2438789415268bed44fa69d99",
                "label": "Fake_Phishing_2143_9d99"
            },
            {
                "address": "0x0000000000000000000000000000000000000001",
                "label": "Precompiled"
            },
            {
                "address": "0x35da18d10cf76e40634ff42d9783784958b531c0",
                "label": "Fake_Phishing185808"
            }
        ]
    },
    "trace": {
        "accountLabels": null,
        "dataMap": {
            "-1": {
                "invocation": {
                    "address": "0x21432daa755aabf2438789415268bed44fa69d99",
                    "callData": "",
                    "decodedMethod": null,
                    "errorInfo": "",
                    "fromAddress": "",
                    "gasUsed": 0,
                    "id": -1,
                    "methodDecoded": false,
                    "operation": "",
                    "output": "",
                    "revert": false,
                    "revertMessage": "",
                    "selector": "",
                    "status": false,
                    "value": ""
                },
                "nodeType": 0
            },
            "0": {
                "invocation": {
                    "address": "0xb2ccaea94f97fb8ea230f61a4c9db0917ee7dff2",
                    "callData": "0x0000000000000000000000000000000000000000000000000000000000000020000000000000000000000000000000000000000000000000000000000000005800000000000000000000000035da18d10cf76e40634ff42d9783784958b531c00000000000000000000000000cfc5e357c03816a1b06eea6fdd263a60ac50d90000000000000000000000000dac17f958d2ee523a2206206994597c13d831ec70000000000000000000000000cfc5e357c03816a1b06eea6fdd263a60ac50d90000000000000000000000000dac17f958d2ee523a2206206994597c13d831ec700000000000000000000000035da18d10cf76e40634ff42d9783784958b531c00000000000000000000000000cfc5e357c03816a1b06eea6fdd263a60ac50d90000000000000000000000000dac17f958d2ee523a2206206994597c13d831ec700000000000000000000000035da18d10cf76e40634ff42d9783784958b531c00000000000000000000000000cfc5e357c03816a1b06eea6fdd263a60ac50d90000000000000000000000000dac17f958d2ee523a2206206994597c13d831ec70000000000000000000000000cfc5e357c03816a1b06eea6fdd263a60ac50d90000000000000000000000000dac17f958d2ee523a2206206994597c13d831ec70000000000000000000000000cfc5e357c03816a1b06eea6fdd263a60ac50d90000000000000000000000000dac17f958d2ee523a2206206994597c13d831ec70000000000000000000000000cfc5e357c03816a1b06eea6fdd263a60ac50d90000000000000000000000000dac17f958d2ee523a2206206994597c13d831ec700000000000000000000000035da18d10cf76e40634ff42d9783784958b531c00000000000000000000000000cfc5e357c03816a1b06eea6fdd263a60ac50d90000000000000000000000000dac17f958d2ee523a2206206994597c13d831ec700000000000000000000000035da18d10cf76e40634ff42d9783784958b531c000000000000000000000000035da18d10cf76e40634ff42d9783784958b531c0000000000000000000000000498b23186f679d05856d31ee122ef8b6df00fff80000000000000000000000005bcbdfbd6b7fef82862edb137e3bfc2fd9204f720000000000000000000000005bcbdfbd6b7fef82862edb137e3bfc2fd9204f720000000000000000000000003eaa01baaf5fbbb23e29baa44a44d916dba762380000000000000000000000003eaa01baaf5fbbb23e29baa44a44d916dba76238000000000000000000000000063ed6f03b3d0b701a083ab1a72bebae9dcbcfff00000000000000000000000044d092d2c4133fd7bdebacc6342146c9a6dff18600000000000000000000000044d092d2c4133fd7bdebacc6342146c9a6dff186000000000000000000000000498b894f1f490229b0de5bab7f5b4d8e3cebfff80000000000000000000000003eaa01ba1ee4f5b65c81cb740759bb1edba762380000000000000000000000003eaa01ba1ee4f5b65c81cb740759bb1edba762380000000000000000000000005bcbdfb6cc624b959c39a2d16110d1f2d9204f720000000000000000000000005bcbdfb6cc624b959c39a2d16110d1f2d9204f72000000000000000000000000cb69535abbc95a042914507f963bdd74ad0025ff000000000000000000000000cb69535abbc95a042914507f963bdd74ad0025ff000000000000000000000000038201e05d140124952e34e31665420489288338000000000000000000000000038201e05d140124952e34e3166542048928833800000000000000000000000065cbc8a50eeaced1e0145ca430005ef6e87ba084000000000000000000000000cb69535f08554a07d23c1449599f5843ad0025ff000000000000000000000000cb69535f08554a07d23c1449599f5843ad0025ff000000000000000000000000063ed6f59bd44d8bc99c3b170a3d52b49dcbcfff000000000000000000000000c27fd9d257d156e7fcc986651f5e54f335f052c8000000000000000000000000284fa4a7d1e40a996811b3de5e852a2cd01531ff000000000000000000000000f17435f47ffbcfb3f910b6d96dc9238432049962000000000000000000000000f17435f47ffbcfb3f910b6d96dc9238432049962000000000000000000000000afc53dbf12b9909ac88cc36f529574feec3ff7d4000000000000000000000000afc53dbf12b9909ac88cc36f529574feec3ff7d40000000000000000000000009f6a0a5f81c1f58b45d3e262ba4cf6ee47b16d6200000000000000000000000050d8f7e1f77f67ef11b8049d2b1ce583147e28e100000000000000000000000050d8f7e1f77f67ef11b8049d2b1ce583147e28e1000000000000000000000000284fae52ede6320b102cbe50acac35d4d02631ff000000000000000000000000afc53db8506736e8264b4629e971a152ec3ff7d4000000000000000000000000afc53db8506736e8264b4629e971a152ec3ff7d4000000000000000000000000f17435f38e8d16e545af9068e9e7128e32049962000000000000000000000000f17435f38e8d16e545af9068e9e7128e32049962000000000000000000000000bd76d2a517c1f79da6bd97c4d421ccddac3bfcd4000000000000000000000000bd76d2a517c1f79da6bd97c4d421ccddac3bfcd4000000000000000000000000e53cea150243978ca97deb1a66a0799447f34753000000000000000000000000e53cea150243978ca97deb1a66a0799447f34753000000000000000000000000aad6825c2e63363adebbb79203d45b4ed0ac1862000000000000000000000000bd76d2a4f0abd71c6f4bcbfef8d73e72ac3bfcd4000000000000000000000000bd76d2a4f0abd71c6f4bcbfef8d73e72ac3bfcd40000000000000000000000009f6a2714b6066c45be145f17bca5658ce40d6d62000000000000000000000000e4edb277e41dc89ab076a1f049f4a3efa700bce8000000000000000000000000000000000000000000000000000080a3f8fa358200000000000000000000000000000000000000000000000011b8d0bbf22c800000000000000000000000000000000000000000000000000000000000000000000000000000000000000000000000000000000000000000004d93ab62066f0000000000000000000000000000000000000000000000000000000000000000000000000000000000000000000000000000000000000000000000007a6d29b8c98000000000000000000000000000000000000000000000000000b1b43fcd69fa000000000000000000000000000000000000000000000000000000000000000000000000000000000000000000000000000000000000000000000080a3f8fa35820000000000000000000000000000000000000000000000004d93ab62066f0000000000000000000000000000000000000000000000000000000000000000000000000000000000000000000000000000000000000000000011b8d0bbf22c8000000000000000000000000000000000000000000000000000000000000000000000000000000000000000000000000000000000000000000022b3403df6e2d20000000000000000000000000000000000000000000000000000000000000000000000000000000000000000000000000000000000000000008ac7230489e8000000000000000000000000000000000000000000000000000000000000000000000000000000000000000000000000000000000000000000000025dd15e8ea118000000000000000000000000000000000000000000000000022b3403df6e2d200000000000000000000000000000000000000000000000000000000000000000000000000000000000000000000000000000000000000000000007a6d29b8c980000000000000000000000000000000000000000000000000000c7052a649a009",
                    "decodedMethod": {
                        "callParams": [
                            {
                                "name": "amount",
                                "type": "uint256",
                                "value": "32"
                            }
                        ],
                        "constructorArguments": "",
                        "name": "transfer",
                        "returnParams": [],
                        "signature": "transfer(uint256)"
                    },
                    "errorInfo": "",
                    "fromAddress": "0x21432daa755aabf2438789415268bed44fa69d99",
                    "gasUsed": 214360,
                    "id": 0,
                    "methodDecoded": true,
                    "operation": "CALL",
                    "output": "",
                    "revert": false,
                    "revertMessage": "",
                    "selector": "0x12514bba",
                    "status": true,
                    "value": "0"
                },
                "nodeType": 0
            },
            "1": {
                "invocation": {
                    "address": "0x0000000000000000000000000000000000000058",
                    "callData": "0x00000000000000000000000035da18d10cf76e40634ff42d9783784958b531c0000000000000000000000000c27fd9d257d156e7fcc986651f5e54f335f052c8000000000000000000000000e4edb277e41dc89ab076a1f049f4a3efa700bce8",
                    "decodedMethod": {
                        "callParams": [
                            {
                                "name": "from",
                                "type": "address",
                                "value": "0x35da18d10cf76e40634ff42d9783784958b531c0"
                            },
                            {
                                "name": "to",
                                "type": "address",
                                "value": "0xc27fd9d257d156e7fcc986651f5e54f335f052c8"
                            },
                            {
                                "decimalAvailable": true,
                                "name": "tokenId",
                                "type": "uint256",
                                "value": "1,306,950,719,143,603,314,510,809,886,827,157,776,795,879,652,584"
                            }
                        ],
                        "constructorArguments": "",
                        "name": "transferFrom",
                        "returnParams": [],
                        "signature": "transferFrom(address,address,uint256)"
                    },
                    "errorInfo": "",
                    "fromAddress": "0xb2ccaea94f97fb8ea230f61a4c9db0917ee7dff2",
                    "gasUsed": 0,
                    "id": 1,
                    "methodDecoded": true,
                    "operation": "CALL",
                    "output": "",
                    "revert": false,
                    "revertMessage": "",
                    "selector": "0x23b872dd",
                    "status": true,
                    "value": "0"
                },
                "nodeType": 0
            },
            "10": {
                "invocation": {
                    "address": "0xdac17f958d2ee523a2206206994597c13d831ec7",
                    "callData": "0x0000000000000000000000003eaa01baaf5fbbb23e29baa44a44d916dba76238000000000000000000000000afc53dbf12b9909ac88cc36f529574feec3ff7d40000000000000000000000000000000000000000000000000000000000000000",
                    "decodedMethod": {
                        "callParams": [
                            {
                                "name": "_from",
                                "type": "address",
                                "value": "0x3eaa01baaf5fbbb23e29baa44a44d916dba76238"
                            },
                            {
                                "name": "_to",
                                "type": "address",
                                "value": "0xafc53dbf12b9909ac88cc36f529574feec3ff7d4"
                            },
                            {
                                "decimalAvailable": true,
                                "name": "_value",
                                "type": "uint256",
                                "value": "0"
                            }
                        ],
                        "constructorArguments": "",
                        "name": "transferFrom",
                        "returnParams": [],
                        "signature": "transferFrom(address,address,uint256)"
                    },
                    "errorInfo": "",
                    "fromAddress": "0xb2ccaea94f97fb8ea230f61a4c9db0917ee7dff2",
                    "gasUsed": 13258,
                    "id": 10,
                    "methodDecoded": true,
                    "operation": "CALL",
                    "output": "",
                    "revert": false,
                    "revertMessage": "",
                    "selector": "0x23b872dd",
                    "status": true,
                    "value": "0"
                },
                "nodeType": 0
            },
            "11": {
                "event": {
                    "contract": "0xdac17f958d2ee523a2206206994597c13d831ec7",
                    "decodedLog": {
                        "name": "Transfer",
                        "params": [
                            {
                                "name": "from",
                                "type": "address",
                                "value": "0x3eaa01baaf5fbbb23e29baa44a44d916dba76238"
                            },
                            {
                                "name": "to",
                                "type": "address",
                                "value": "0xafc53dbf12b9909ac88cc36f529574feec3ff7d4"
                            },
                            {
                                "decimalAvailable": true,
                                "name": "value",
                                "type": "uint256",
                                "value": "0"
                            }
                        ],
                        "signature": "Transfer(address,address,uint256)"
                    },
                    "id": 11,
                    "logData": "0x0000000000000000000000000000000000000000000000000000000000000000",
                    "logDecoded": true,
                    "operation": "EVENT",
                    "revert": false,
                    "status": true,
                    "topics": [
                        "0xddf252ad1be2c89b69c2b068fc378daa952ba7f163c4a11628f55a4df523b3ef",
                        "0x0000000000000000000000003eaa01baaf5fbbb23e29baa44a44d916dba76238",
                        "0x000000000000000000000000afc53dbf12b9909ac88cc36f529574feec3ff7d4"
                    ]
                },
                "nodeType": 1
            },
            "12": {
                "invocation": {
                    "address": "0x35da18d10cf76e40634ff42d9783784958b531c0",
                    "callData": "0x000000000000000000000000063ed6f03b3d0b701a083ab1a72bebae9dcbcfff0000000000000000000000009f6a0a5f81c1f58b45d3e262ba4cf6ee47b16d6200000000000000000000000000000000000000000000000000007a6d29b8c980",
                    "decodedMethod": {
                        "callParams": [
                            {
                                "name": "sender",
                                "type": "address",
                                "value": "0x063ed6f03b3d0b701a083ab1a72bebae9dcbcfff"
                            },
                            {
                                "name": "recipient",
                                "type": "address",
                                "value": "0x9f6a0a5f81c1f58b45d3e262ba4cf6ee47b16d62"
                            },
                            {
                                "decimalAvailable": true,
                                "name": "amount",
                                "type": "uint256",
                                "value": "134,609,270,000,000"
                            }
                        ],
                        "constructorArguments": "",
                        "name": "transferFrom",
                        "returnParams": [
                            {
                                "name": "",
                                "type": "bool",
                                "value": true
                            }
                        ],
                        "signature": "transferFrom(address,address,uint256)"
                    },
                    "errorInfo": "",
                    "fromAddress": "0xb2ccaea94f97fb8ea230f61a4c9db0917ee7dff2",
                    "gasUsed": 2428,
                    "id": 12,
                    "methodDecoded": true,
                    "operation": "CALL",
                    "output": "0x0000000000000000000000000000000000000000000000000000000000000001",
                    "revert": false,
                    "revertMessage": "",
                    "selector": "0x23b872dd",
                    "status": true,
                    "value": "0"
                },
                "nodeType": 0
            },
            "13": {
                "event": {
                    "contract": "0x35da18d10cf76e40634ff42d9783784958b531c0",
                    "decodedLog": {
                        "name": "Transfer",
                        "params": [
                            {
                                "name": "from",
                                "type": "address",
                                "value": "0x063ed6f03b3d0b701a083ab1a72bebae9dcbcfff"
                            },
                            {
                                "name": "to",
                                "type": "address",
                                "value": "0x9f6a0a5f81c1f58b45d3e262ba4cf6ee47b16d62"
                            },
                            {
                                "decimalAvailable": true,
                                "name": "value",
                                "type": "uint256",
                                "value": "134,609,270,000,000"
                            }
                        ],
                        "signature": "Transfer(address,address,uint256)"
                    },
                    "id": 13,
                    "logData": "0x00000000000000000000000000000000000000000000000000007a6d29b8c980",
                    "logDecoded": true,
                    "operation": "EVENT",
                    "revert": false,
                    "status": true,
                    "topics": [
                        "0xddf252ad1be2c89b69c2b068fc378daa952ba7f163c4a11628f55a4df523b3ef",
                        "0x000000000000000000000000063ed6f03b3d0b701a083ab1a72bebae9dcbcfff",
                        "0x0000000000000000000000009f6a0a5f81c1f58b45d3e262ba4cf6ee47b16d62"
                    ]
                },
                "nodeType": 1
            },
            "14": {
                "invocation": {
                    "address": "0x0cfc5e357c03816a1b06eea6fdd263a60ac50d90",
                    "callData": "0x00000000000000000000000044d092d2c4133fd7bdebacc6342146c9a6dff18600000000000000000000000050d8f7e1f77f67ef11b8049d2b1ce583147e28e100000000000000000000000000000000000000000000000000b1b43fcd69fa00",
                    "decodedMethod": {
                        "callParams": [
                            {
                                "name": "sender",
                                "type": "address",
                                "value": "0x44d092d2c4133fd7bdebacc6342146c9a6dff186"
                            },
                            {
                                "name": "recipient",
                                "type": "address",
                                "value": "0x50d8f7e1f77f67ef11b8049d2b1ce583147e28e1"
                            },
                            {
                                "decimalAvailable": true,
                                "name": "amount",
                                "type": "uint256",
                                "value": "50,019,257,000,000,000"
                            }
                        ],
                        "constructorArguments": "",
                        "name": "transferFrom",
                        "returnParams": [
                            {
                                "name": "",
                                "type": "bool",
                                "value": true
                            }
                        ],
                        "signature": "transferFrom(address,address,uint256)"
                    },
                    "errorInfo": "",
                    "fromAddress": "0xb2ccaea94f97fb8ea230f61a4c9db0917ee7dff2",
                    "gasUsed": 2428,
                    "id": 14,
                    "methodDecoded": true,
                    "operation": "CALL",
                    "output": "0x0000000000000000000000000000000000000000000000000000000000000001",
                    "revert": false,
                    "revertMessage": "",
                    "selector": "0x23b872dd",
                    "status": true,
                    "value": "0"
                },
                "nodeType": 0
            },
            "15": {
                "event": {
                    "contract": "0x0cfc5e357c03816a1b06eea6fdd263a60ac50d90",
                    "decodedLog": {
                        "name": "Transfer",
                        "params": [
                            {
                                "name": "from",
                                "type": "address",
                                "value": "0x44d092d2c4133fd7bdebacc6342146c9a6dff186"
                            },
                            {
                                "name": "to",
                                "type": "address",
                                "value": "0x50d8f7e1f77f67ef11b8049d2b1ce583147e28e1"
                            },
                            {
                                "decimalAvailable": true,
                                "name": "value",
                                "type": "uint256",
                                "value": "50,019,257,000,000,000"
                            }
                        ],
                        "signature": "Transfer(address,address,uint256)"
                    },
                    "id": 15,
                    "logData": "0x00000000000000000000000000000000000000000000000000b1b43fcd69fa00",
                    "logDecoded": true,
                    "operation": "EVENT",
                    "revert": false,
                    "status": true,
                    "topics": [
                        "0xddf252ad1be2c89b69c2b068fc378daa952ba7f163c4a11628f55a4df523b3ef",
                        "0x00000000000000000000000044d092d2c4133fd7bdebacc6342146c9a6dff186",
                        "0x00000000000000000000000050d8f7e1f77f67ef11b8049d2b1ce583147e28e1"
                    ]
                },
                "nodeType": 1
            },
            "16": {
                "invocation": {
                    "address": "0xdac17f958d2ee523a2206206994597c13d831ec7",
                    "callData": "0x00000000000000000000000044d092d2c4133fd7bdebacc6342146c9a6dff18600000000000000000000000050d8f7e1f77f67ef11b8049d2b1ce583147e28e10000000000000000000000000000000000000000000000000000000000000000",
                    "decodedMethod": {
                        "callParams": [
                            {
                                "name": "_from",
                                "type": "address",
                                "value": "0x44d092d2c4133fd7bdebacc6342146c9a6dff186"
                            },
                            {
                                "name": "_to",
                                "type": "address",
                                "value": "0x50d8f7e1f77f67ef11b8049d2b1ce583147e28e1"
                            },
                            {
                                "decimalAvailable": true,
                                "name": "_value",
                                "type": "uint256",
                                "value": "0"
                            }
                        ],
                        "constructorArguments": "",
                        "name": "transferFrom",
                        "returnParams": [],
                        "signature": "transferFrom(address,address,uint256)"
                    },
                    "errorInfo": "",
                    "fromAddress": "0xb2ccaea94f97fb8ea230f61a4c9db0917ee7dff2",
                    "gasUsed": 13258,
                    "id": 16,
                    "methodDecoded": true,
                    "operation": "CALL",
                    "output": "",
                    "revert": false,
                    "revertMessage": "",
                    "selector": "0x23b872dd",
                    "status": true,
                    "value": "0"
                },
                "nodeType": 0
            },
            "17": {
                "event": {
                    "contract": "0xdac17f958d2ee523a2206206994597c13d831ec7",
                    "decodedLog": {
                        "name": "Transfer",
                        "params": [
                            {
                                "name": "from",
                                "type": "address",
                                "value": "0x44d092d2c4133fd7bdebacc6342146c9a6dff186"
                            },
                            {
                                "name": "to",
                                "type": "address",
                                "value": "0x50d8f7e1f77f67ef11b8049d2b1ce583147e28e1"
                            },
                            {
                                "decimalAvailable": true,
                                "name": "value",
                                "type": "uint256",
                                "value": "0"
                            }
                        ],
                        "signature": "Transfer(address,address,uint256)"
                    },
                    "id": 17,
                    "logData": "0x0000000000000000000000000000000000000000000000000000000000000000",
                    "logDecoded": true,
                    "operation": "EVENT",
                    "revert": false,
                    "status": true,
                    "topics": [
                        "0xddf252ad1be2c89b69c2b068fc378daa952ba7f163c4a11628f55a4df523b3ef",
                        "0x00000000000000000000000044d092d2c4133fd7bdebacc6342146c9a6dff186",
                        "0x00000000000000000000000050d8f7e1f77f67ef11b8049d2b1ce583147e28e1"
                    ]
                },
                "nodeType": 1
            },
            "18": {
                "invocation": {
                    "address": "0x35da18d10cf76e40634ff42d9783784958b531c0",
                    "callData": "0x000000000000000000000000498b894f1f490229b0de5bab7f5b4d8e3cebfff8000000000000000000000000284fae52ede6320b102cbe50acac35d4d02631ff000000000000000000000000000000000000000000000000000080a3f8fa3582",
                    "decodedMethod": {
                        "callParams": [
                            {
                                "name": "sender",
                                "type": "address",
                                "value": "0x498b894f1f490229b0de5bab7f5b4d8e3cebfff8"
                            },
                            {
                                "name": "recipient",
                                "type": "address",
                                "value": "0x284fae52ede6320b102cbe50acac35d4d02631ff"
                            },
                            {
                                "decimalAvailable": true,
                                "name": "amount",
                                "type": "uint256",
                                "value": "141,441,745,171,842"
                            }
                        ],
                        "constructorArguments": "",
                        "name": "transferFrom",
                        "returnParams": [
                            {
                                "name": "",
                                "type": "bool",
                                "value": true
                            }
                        ],
                        "signature": "transferFrom(address,address,uint256)"
                    },
                    "errorInfo": "",
                    "fromAddress": "0xb2ccaea94f97fb8ea230f61a4c9db0917ee7dff2",
                    "gasUsed": 2428,
                    "id": 18,
                    "methodDecoded": true,
                    "operation": "CALL",
                    "output": "0x0000000000000000000000000000000000000000000000000000000000000001",
                    "revert": false,
                    "revertMessage": "",
                    "selector": "0x23b872dd",
                    "status": true,
                    "value": "0"
                },
                "nodeType": 0
            },
            "19": {
                "event": {
                    "contract": "0x35da18d10cf76e40634ff42d9783784958b531c0",
                    "decodedLog": {
                        "name": "Transfer",
                        "params": [
                            {
                                "name": "from",
                                "type": "address",
                                "value": "0x498b894f1f490229b0de5bab7f5b4d8e3cebfff8"
                            },
                            {
                                "name": "to",
                                "type": "address",
                                "value": "0x284fae52ede6320b102cbe50acac35d4d02631ff"
                            },
                            {
                                "decimalAvailable": true,
                                "name": "value",
                                "type": "uint256",
                                "value": "141,441,745,171,842"
                            }
                        ],
                        "signature": "Transfer(address,address,uint256)"
                    },
                    "id": 19,
                    "logData": "0x000000000000000000000000000000000000000000000000000080a3f8fa3582",
                    "logDecoded": true,
                    "operation": "EVENT",
                    "revert": false,
                    "status": true,
                    "topics": [
                        "0xddf252ad1be2c89b69c2b068fc378daa952ba7f163c4a11628f55a4df523b3ef",
                        "0x000000000000000000000000498b894f1f490229b0de5bab7f5b4d8e3cebfff8",
                        "0x000000000000000000000000284fae52ede6320b102cbe50acac35d4d02631ff"
                    ]
                },
                "nodeType": 1
            },
            "2": {
                "invocation": {
                    "address": "0x35da18d10cf76e40634ff42d9783784958b531c0",
                    "callData": "0x000000000000000000000000498b23186f679d05856d31ee122ef8b6df00fff8000000000000000000000000284fa4a7d1e40a996811b3de5e852a2cd01531ff000000000000000000000000000000000000000000000000000080a3f8fa3582",
                    "decodedMethod": {
                        "callParams": [
                            {
                                "name": "sender",
                                "type": "address",
                                "value": "0x498b23186f679d05856d31ee122ef8b6df00fff8"
                            },
                            {
                                "name": "recipient",
                                "type": "address",
                                "value": "0x284fa4a7d1e40a996811b3de5e852a2cd01531ff"
                            },
                            {
                                "decimalAvailable": true,
                                "name": "amount",
                                "type": "uint256",
                                "value": "141,441,745,171,842"
                            }
                        ],
                        "constructorArguments": "",
                        "name": "transferFrom",
                        "returnParams": [
                            {
                                "name": "",
                                "type": "bool",
                                "value": true
                            }
                        ],
                        "signature": "transferFrom(address,address,uint256)"
                    },
                    "errorInfo": "",
                    "fromAddress": "0xb2ccaea94f97fb8ea230f61a4c9db0917ee7dff2",
                    "gasUsed": 2428,
                    "id": 2,
                    "methodDecoded": true,
                    "operation": "CALL",
                    "output": "0x0000000000000000000000000000000000000000000000000000000000000001",
                    "revert": false,
                    "revertMessage": "",
                    "selector": "0x23b872dd",
                    "status": true,
                    "value": "0"
                },
                "nodeType": 0
            },
            "20": {
                "invocation": {
                    "address": "0x0cfc5e357c03816a1b06eea6fdd263a60ac50d90",
                    "callData": "0x0000000000000000000000003eaa01ba1ee4f5b65c81cb740759bb1edba76238000000000000000000000000afc53db8506736e8264b4629e971a152ec3ff7d40000000000000000000000000000000000000000000000004d93ab62066f0000",
                    "decodedMethod": {
                        "callParams": [
                            {
                                "name": "sender",
                                "type": "address",
                                "value": "0x3eaa01ba1ee4f5b65c81cb740759bb1edba76238"
                            },
                            {
                                "name": "recipient",
                                "type": "address",
                                "value": "0xafc53db8506736e8264b4629e971a152ec3ff7d4"
                            },
                            {
                                "decimalAvailable": true,
                                "name": "amount",
                                "type": "uint256",
                                "value": "5,590,000,000,000,000,000"
                            }
                        ],
                        "constructorArguments": "",
                        "name": "transferFrom",
                        "returnParams": [
                            {
                                "name": "",
                                "type": "bool",
                                "value": true
                            }
                        ],
                        "signature": "transferFrom(address,address,uint256)"
                    },
                    "errorInfo": "",
                    "fromAddress": "0xb2ccaea94f97fb8ea230f61a4c9db0917ee7dff2",
                    "gasUsed": 2428,
                    "id": 20,
                    "methodDecoded": true,
                    "operation": "CALL",
                    "output": "0x0000000000000000000000000000000000000000000000000000000000000001",
                    "revert": false,
                    "revertMessage": "",
                    "selector": "0x23b872dd",
                    "status": true,
                    "value": "0"
                },
                "nodeType": 0
            },
            "21": {
                "event": {
                    "contract": "0x0cfc5e357c03816a1b06eea6fdd263a60ac50d90",
                    "decodedLog": {
                        "name": "Transfer",
                        "params": [
                            {
                                "name": "from",
                                "type": "address",
                                "value": "0x3eaa01ba1ee4f5b65c81cb740759bb1edba76238"
                            },
                            {
                                "name": "to",
                                "type": "address",
                                "value": "0xafc53db8506736e8264b4629e971a152ec3ff7d4"
                            },
                            {
                                "decimalAvailable": true,
                                "name": "value",
                                "type": "uint256",
                                "value": "5,590,000,000,000,000,000"
                            }
                        ],
                        "signature": "Transfer(address,address,uint256)"
                    },
                    "id": 21,
                    "logData": "0x0000000000000000000000000000000000000000000000004d93ab62066f0000",
                    "logDecoded": true,
                    "operation": "EVENT",
                    "revert": false,
                    "status": true,
                    "topics": [
                        "0xddf252ad1be2c89b69c2b068fc378daa952ba7f163c4a11628f55a4df523b3ef",
                        "0x0000000000000000000000003eaa01ba1ee4f5b65c81cb740759bb1edba76238",
                        "0x000000000000000000000000afc53db8506736e8264b4629e971a152ec3ff7d4"
                    ]
                },
                "nodeType": 1
            },
            "22": {
                "invocation": {
                    "address": "0xdac17f958d2ee523a2206206994597c13d831ec7",
                    "callData": "0x0000000000000000000000003eaa01ba1ee4f5b65c81cb740759bb1edba76238000000000000000000000000afc53db8506736e8264b4629e971a152ec3ff7d40000000000000000000000000000000000000000000000000000000000000000",
                    "decodedMethod": {
                        "callParams": [
                            {
                                "name": "_from",
                                "type": "address",
                                "value": "0x3eaa01ba1ee4f5b65c81cb740759bb1edba76238"
                            },
                            {
                                "name": "_to",
                                "type": "address",
                                "value": "0xafc53db8506736e8264b4629e971a152ec3ff7d4"
                            },
                            {
                                "decimalAvailable": true,
                                "name": "_value",
                                "type": "uint256",
                                "value": "0"
                            }
                        ],
                        "constructorArguments": "",
                        "name": "transferFrom",
                        "returnParams": [],
                        "signature": "transferFrom(address,address,uint256)"
                    },
                    "errorInfo": "",
                    "fromAddress": "0xb2ccaea94f97fb8ea230f61a4c9db0917ee7dff2",
                    "gasUsed": 13258,
                    "id": 22,
                    "methodDecoded": true,
                    "operation": "CALL",
                    "output": "",
                    "revert": false,
                    "revertMessage": "",
                    "selector": "0x23b872dd",
                    "status": true,
                    "value": "0"
                },
                "nodeType": 0
            },
            "23": {
                "event": {
                    "contract": "0xdac17f958d2ee523a2206206994597c13d831ec7",
                    "decodedLog": {
                        "name": "Transfer",
                        "params": [
                            {
                                "name": "from",
                                "type": "address",
                                "value": "0x3eaa01ba1ee4f5b65c81cb740759bb1edba76238"
                            },
                            {
                                "name": "to",
                                "type": "address",
                                "value": "0xafc53db8506736e8264b4629e971a152ec3ff7d4"
                            },
                            {
                                "decimalAvailable": true,
                                "name": "value",
                                "type": "uint256",
                                "value": "0"
                            }
                        ],
                        "signature": "Transfer(address,address,uint256)"
                    },
                    "id": 23,
                    "logData": "0x0000000000000000000000000000000000000000000000000000000000000000",
                    "logDecoded": true,
                    "operation": "EVENT",
                    "revert": false,
                    "status": true,
                    "topics": [
                        "0xddf252ad1be2c89b69c2b068fc378daa952ba7f163c4a11628f55a4df523b3ef",
                        "0x0000000000000000000000003eaa01ba1ee4f5b65c81cb740759bb1edba76238",
                        "0x000000000000000000000000afc53db8506736e8264b4629e971a152ec3ff7d4"
                    ]
                },
                "nodeType": 1
            },
            "24": {
                "invocation": {
                    "address": "0x0cfc5e357c03816a1b06eea6fdd263a60ac50d90",
                    "callData": "0x0000000000000000000000005bcbdfb6cc624b959c39a2d16110d1f2d9204f72000000000000000000000000f17435f38e8d16e545af9068e9e7128e3204996200000000000000000000000000000000000000000000000011b8d0bbf22c8000",
                    "decodedMethod": {
                        "callParams": [
                            {
                                "name": "sender",
                                "type": "address",
                                "value": "0x5bcbdfb6cc624b959c39a2d16110d1f2d9204f72"
                            },
                            {
                                "name": "recipient",
                                "type": "address",
                                "value": "0xf17435f38e8d16e545af9068e9e7128e32049962"
                            },
                            {
                                "decimalAvailable": true,
                                "name": "amount",
                                "type": "uint256",
                                "value": "1,277,000,000,000,000,000"
                            }
                        ],
                        "constructorArguments": "",
                        "name": "transferFrom",
                        "returnParams": [
                            {
                                "name": "",
                                "type": "bool",
                                "value": true
                            }
                        ],
                        "signature": "transferFrom(address,address,uint256)"
                    },
                    "errorInfo": "",
                    "fromAddress": "0xb2ccaea94f97fb8ea230f61a4c9db0917ee7dff2",
                    "gasUsed": 2428,
                    "id": 24,
                    "methodDecoded": true,
                    "operation": "CALL",
                    "output": "0x0000000000000000000000000000000000000000000000000000000000000001",
                    "revert": false,
                    "revertMessage": "",
                    "selector": "0x23b872dd",
                    "status": true,
                    "value": "0"
                },
                "nodeType": 0
            },
            "25": {
                "event": {
                    "contract": "0x0cfc5e357c03816a1b06eea6fdd263a60ac50d90",
                    "decodedLog": {
                        "name": "Transfer",
                        "params": [
                            {
                                "name": "from",
                                "type": "address",
                                "value": "0x5bcbdfb6cc624b959c39a2d16110d1f2d9204f72"
                            },
                            {
                                "name": "to",
                                "type": "address",
                                "value": "0xf17435f38e8d16e545af9068e9e7128e32049962"
                            },
                            {
                                "decimalAvailable": true,
                                "name": "value",
                                "type": "uint256",
                                "value": "1,277,000,000,000,000,000"
                            }
                        ],
                        "signature": "Transfer(address,address,uint256)"
                    },
                    "id": 25,
                    "logData": "0x00000000000000000000000000000000000000000000000011b8d0bbf22c8000",
                    "logDecoded": true,
                    "operation": "EVENT",
                    "revert": false,
                    "status": true,
                    "topics": [
                        "0xddf252ad1be2c89b69c2b068fc378daa952ba7f163c4a11628f55a4df523b3ef",
                        "0x0000000000000000000000005bcbdfb6cc624b959c39a2d16110d1f2d9204f72",
                        "0x000000000000000000000000f17435f38e8d16e545af9068e9e7128e32049962"
                    ]
                },
                "nodeType": 1
            },
            "26": {
                "invocation": {
                    "address": "0xdac17f958d2ee523a2206206994597c13d831ec7",
                    "callData": "0x0000000000000000000000005bcbdfb6cc624b959c39a2d16110d1f2d9204f72000000000000000000000000f17435f38e8d16e545af9068e9e7128e320499620000000000000000000000000000000000000000000000000000000000000000",
                    "decodedMethod": {
                        "callParams": [
                            {
                                "name": "_from",
                                "type": "address",
                                "value": "0x5bcbdfb6cc624b959c39a2d16110d1f2d9204f72"
                            },
                            {
                                "name": "_to",
                                "type": "address",
                                "value": "0xf17435f38e8d16e545af9068e9e7128e32049962"
                            },
                            {
                                "decimalAvailable": true,
                                "name": "_value",
                                "type": "uint256",
                                "value": "0"
                            }
                        ],
                        "constructorArguments": "",
                        "name": "transferFrom",
                        "returnParams": [],
                        "signature": "transferFrom(address,address,uint256)"
                    },
                    "errorInfo": "",
                    "fromAddress": "0xb2ccaea94f97fb8ea230f61a4c9db0917ee7dff2",
                    "gasUsed": 13258,
                    "id": 26,
                    "methodDecoded": true,
                    "operation": "CALL",
                    "output": "",
                    "revert": false,
                    "revertMessage": "",
                    "selector": "0x23b872dd",
                    "status": true,
                    "value": "0"
                },
                "nodeType": 0
            },
            "27": {
                "event": {
                    "contract": "0xdac17f958d2ee523a2206206994597c13d831ec7",
                    "decodedLog": {
                        "name": "Transfer",
                        "params": [
                            {
                                "name": "from",
                                "type": "address",
                                "value": "0x5bcbdfb6cc624b959c39a2d16110d1f2d9204f72"
                            },
                            {
                                "name": "to",
                                "type": "address",
                                "value": "0xf17435f38e8d16e545af9068e9e7128e32049962"
                            },
                            {
                                "decimalAvailable": true,
                                "name": "value",
                                "type": "uint256",
                                "value": "0"
                            }
                        ],
                        "signature": "Transfer(address,address,uint256)"
                    },
                    "id": 27,
                    "logData": "0x0000000000000000000000000000000000000000000000000000000000000000",
                    "logDecoded": true,
                    "operation": "EVENT",
                    "revert": false,
                    "status": true,
                    "topics": [
                        "0xddf252ad1be2c89b69c2b068fc378daa952ba7f163c4a11628f55a4df523b3ef",
                        "0x0000000000000000000000005bcbdfb6cc624b959c39a2d16110d1f2d9204f72",
                        "0x000000000000000000000000f17435f38e8d16e545af9068e9e7128e32049962"
                    ]
                },
                "nodeType": 1
            },
            "28": {
                "invocation": {
                    "address": "0x0cfc5e357c03816a1b06eea6fdd263a60ac50d90",
                    "callData": "0x000000000000000000000000cb69535abbc95a042914507f963bdd74ad0025ff000000000000000000000000bd76d2a517c1f79da6bd97c4d421ccddac3bfcd400000000000000000000000000000000000000000000000022b3403df6e2d200",
                    "decodedMethod": {
                        "callParams": [
                            {
                                "name": "sender",
                                "type": "address",
                                "value": "0xcb69535abbc95a042914507f963bdd74ad0025ff"
                            },
                            {
                                "name": "recipient",
                                "type": "address",
                                "value": "0xbd76d2a517c1f79da6bd97c4d421ccddac3bfcd4"
                            },
                            {
                                "decimalAvailable": true,
                                "name": "amount",
                                "type": "uint256",
                                "value": "2,500,412,853,000,000,000"
                            }
                        ],
                        "constructorArguments": "",
                        "name": "transferFrom",
                        "returnParams": [
                            {
                                "name": "",
                                "type": "bool",
                                "value": true
                            }
                        ],
                        "signature": "transferFrom(address,address,uint256)"
                    },
                    "errorInfo": "",
                    "fromAddress": "0xb2ccaea94f97fb8ea230f61a4c9db0917ee7dff2",
                    "gasUsed": 2428,
                    "id": 28,
                    "methodDecoded": true,
                    "operation": "CALL",
                    "output": "0x0000000000000000000000000000000000000000000000000000000000000001",
                    "revert": false,
                    "revertMessage": "",
                    "selector": "0x23b872dd",
                    "status": true,
                    "value": "0"
                },
                "nodeType": 0
            },
            "29": {
                "event": {
                    "contract": "0x0cfc5e357c03816a1b06eea6fdd263a60ac50d90",
                    "decodedLog": {
                        "name": "Transfer",
                        "params": [
                            {
                                "name": "from",
                                "type": "address",
                                "value": "0xcb69535abbc95a042914507f963bdd74ad0025ff"
                            },
                            {
                                "name": "to",
                                "type": "address",
                                "value": "0xbd76d2a517c1f79da6bd97c4d421ccddac3bfcd4"
                            },
                            {
                                "decimalAvailable": true,
                                "name": "value",
                                "type": "uint256",
                                "value": "2,500,412,853,000,000,000"
                            }
                        ],
                        "signature": "Transfer(address,address,uint256)"
                    },
                    "id": 29,
                    "logData": "0x00000000000000000000000000000000000000000000000022b3403df6e2d200",
                    "logDecoded": true,
                    "operation": "EVENT",
                    "revert": false,
                    "status": true,
                    "topics": [
                        "0xddf252ad1be2c89b69c2b068fc378daa952ba7f163c4a11628f55a4df523b3ef",
                        "0x000000000000000000000000cb69535abbc95a042914507f963bdd74ad0025ff",
                        "0x000000000000000000000000bd76d2a517c1f79da6bd97c4d421ccddac3bfcd4"
                    ]
                },
                "nodeType": 1
            },
            "3": {
                "event": {
                    "contract": "0x35da18d10cf76e40634ff42d9783784958b531c0",
                    "decodedLog": {
                        "name": "Transfer",
                        "params": [
                            {
                                "name": "from",
                                "type": "address",
                                "value": "0x498b23186f679d05856d31ee122ef8b6df00fff8"
                            },
                            {
                                "name": "to",
                                "type": "address",
                                "value": "0x284fa4a7d1e40a996811b3de5e852a2cd01531ff"
                            },
                            {
                                "decimalAvailable": true,
                                "name": "value",
                                "type": "uint256",
                                "value": "141,441,745,171,842"
                            }
                        ],
                        "signature": "Transfer(address,address,uint256)"
                    },
                    "id": 3,
                    "logData": "0x000000000000000000000000000000000000000000000000000080a3f8fa3582",
                    "logDecoded": true,
                    "operation": "EVENT",
                    "revert": false,
                    "status": true,
                    "topics": [
                        "0xddf252ad1be2c89b69c2b068fc378daa952ba7f163c4a11628f55a4df523b3ef",
                        "0x000000000000000000000000498b23186f679d05856d31ee122ef8b6df00fff8",
                        "0x000000000000000000000000284fa4a7d1e40a996811b3de5e852a2cd01531ff"
                    ]
                },
                "nodeType": 1
            },
            "30": {
                "invocation": {
                    "address": "0xdac17f958d2ee523a2206206994597c13d831ec7",
                    "callData": "0x000000000000000000000000cb69535abbc95a042914507f963bdd74ad0025ff000000000000000000000000bd76d2a517c1f79da6bd97c4d421ccddac3bfcd40000000000000000000000000000000000000000000000000000000000000000",
                    "decodedMethod": {
                        "callParams": [
                            {
                                "name": "_from",
                                "type": "address",
                                "value": "0xcb69535abbc95a042914507f963bdd74ad0025ff"
                            },
                            {
                                "name": "_to",
                                "type": "address",
                                "value": "0xbd76d2a517c1f79da6bd97c4d421ccddac3bfcd4"
                            },
                            {
                                "decimalAvailable": true,
                                "name": "_value",
                                "type": "uint256",
                                "value": "0"
                            }
                        ],
                        "constructorArguments": "",
                        "name": "transferFrom",
                        "returnParams": [],
                        "signature": "transferFrom(address,address,uint256)"
                    },
                    "errorInfo": "",
                    "fromAddress": "0xb2ccaea94f97fb8ea230f61a4c9db0917ee7dff2",
                    "gasUsed": 13258,
                    "id": 30,
                    "methodDecoded": true,
                    "operation": "CALL",
                    "output": "",
                    "revert": false,
                    "revertMessage": "",
                    "selector": "0x23b872dd",
                    "status": true,
                    "value": "0"
                },
                "nodeType": 0
            },
            "31": {
                "event": {
                    "contract": "0xdac17f958d2ee523a2206206994597c13d831ec7",
                    "decodedLog": {
                        "name": "Transfer",
                        "params": [
                            {
                                "name": "from",
                                "type": "address",
                                "value": "0xcb69535abbc95a042914507f963bdd74ad0025ff"
                            },
                            {
                                "name": "to",
                                "type": "address",
                                "value": "0xbd76d2a517c1f79da6bd97c4d421ccddac3bfcd4"
                            },
                            {
                                "decimalAvailable": true,
                                "name": "value",
                                "type": "uint256",
                                "value": "0"
                            }
                        ],
                        "signature": "Transfer(address,address,uint256)"
                    },
                    "id": 31,
                    "logData": "0x0000000000000000000000000000000000000000000000000000000000000000",
                    "logDecoded": true,
                    "operation": "EVENT",
                    "revert": false,
                    "status": true,
                    "topics": [
                        "0xddf252ad1be2c89b69c2b068fc378daa952ba7f163c4a11628f55a4df523b3ef",
                        "0x000000000000000000000000cb69535abbc95a042914507f963bdd74ad0025ff",
                        "0x000000000000000000000000bd76d2a517c1f79da6bd97c4d421ccddac3bfcd4"
                    ]
                },
                "nodeType": 1
            },
            "32": {
                "invocation": {
                    "address": "0x0cfc5e357c03816a1b06eea6fdd263a60ac50d90",
                    "callData": "0x000000000000000000000000038201e05d140124952e34e31665420489288338000000000000000000000000e53cea150243978ca97deb1a66a0799447f347530000000000000000000000000000000000000000000000008ac7230489e80000",
                    "decodedMethod": {
                        "callParams": [
                            {
                                "name": "sender",
                                "type": "address",
                                "value": "0x038201e05d140124952e34e31665420489288338"
                            },
                            {
                                "name": "recipient",
                                "type": "address",
                                "value": "0xe53cea150243978ca97deb1a66a0799447f34753"
                            },
                            {
                                "decimalAvailable": true,
                                "name": "amount",
                                "type": "uint256",
                                "value": "10,000,000,000,000,000,000"
                            }
                        ],
                        "constructorArguments": "",
                        "name": "transferFrom",
                        "returnParams": [
                            {
                                "name": "",
                                "type": "bool",
                                "value": true
                            }
                        ],
                        "signature": "transferFrom(address,address,uint256)"
                    },
                    "errorInfo": "",
                    "fromAddress": "0xb2ccaea94f97fb8ea230f61a4c9db0917ee7dff2",
                    "gasUsed": 2428,
                    "id": 32,
                    "methodDecoded": true,
                    "operation": "CALL",
                    "output": "0x0000000000000000000000000000000000000000000000000000000000000001",
                    "revert": false,
                    "revertMessage": "",
                    "selector": "0x23b872dd",
                    "status": true,
                    "value": "0"
                },
                "nodeType": 0
            },
            "33": {
                "event": {
                    "contract": "0x0cfc5e357c03816a1b06eea6fdd263a60ac50d90",
                    "decodedLog": {
                        "name": "Transfer",
                        "params": [
                            {
                                "name": "from",
                                "type": "address",
                                "value": "0x038201e05d140124952e34e31665420489288338"
                            },
                            {
                                "name": "to",
                                "type": "address",
                                "value": "0xe53cea150243978ca97deb1a66a0799447f34753"
                            },
                            {
                                "decimalAvailable": true,
                                "name": "value",
                                "type": "uint256",
                                "value": "10,000,000,000,000,000,000"
                            }
                        ],
                        "signature": "Transfer(address,address,uint256)"
                    },
                    "id": 33,
                    "logData": "0x0000000000000000000000000000000000000000000000008ac7230489e80000",
                    "logDecoded": true,
                    "operation": "EVENT",
                    "revert": false,
                    "status": true,
                    "topics": [
                        "0xddf252ad1be2c89b69c2b068fc378daa952ba7f163c4a11628f55a4df523b3ef",
                        "0x000000000000000000000000038201e05d140124952e34e31665420489288338",
                        "0x000000000000000000000000e53cea150243978ca97deb1a66a0799447f34753"
                    ]
                },
                "nodeType": 1
            },
            "34": {
                "invocation": {
                    "address": "0xdac17f958d2ee523a2206206994597c13d831ec7",
                    "callData": "0x000000000000000000000000038201e05d140124952e34e31665420489288338000000000000000000000000e53cea150243978ca97deb1a66a0799447f347530000000000000000000000000000000000000000000000000000000000000000",
                    "decodedMethod": {
                        "callParams": [
                            {
                                "name": "_from",
                                "type": "address",
                                "value": "0x038201e05d140124952e34e31665420489288338"
                            },
                            {
                                "name": "_to",
                                "type": "address",
                                "value": "0xe53cea150243978ca97deb1a66a0799447f34753"
                            },
                            {
                                "decimalAvailable": true,
                                "name": "_value",
                                "type": "uint256",
                                "value": "0"
                            }
                        ],
                        "constructorArguments": "",
                        "name": "transferFrom",
                        "returnParams": [],
                        "signature": "transferFrom(address,address,uint256)"
                    },
                    "errorInfo": "",
                    "fromAddress": "0xb2ccaea94f97fb8ea230f61a4c9db0917ee7dff2",
                    "gasUsed": 13258,
                    "id": 34,
                    "methodDecoded": true,
                    "operation": "CALL",
                    "output": "",
                    "revert": false,
                    "revertMessage": "",
                    "selector": "0x23b872dd",
                    "status": true,
                    "value": "0"
                },
                "nodeType": 0
            },
            "35": {
                "event": {
                    "contract": "0xdac17f958d2ee523a2206206994597c13d831ec7",
                    "decodedLog": {
                        "name": "Transfer",
                        "params": [
                            {
                                "name": "from",
                                "type": "address",
                                "value": "0x038201e05d140124952e34e31665420489288338"
                            },
                            {
                                "name": "to",
                                "type": "address",
                                "value": "0xe53cea150243978ca97deb1a66a0799447f34753"
                            },
                            {
                                "decimalAvailable": true,
                                "name": "value",
                                "type": "uint256",
                                "value": "0"
                            }
                        ],
                        "signature": "Transfer(address,address,uint256)"
                    },
                    "id": 35,
                    "logData": "0x0000000000000000000000000000000000000000000000000000000000000000",
                    "logDecoded": true,
                    "operation": "EVENT",
                    "revert": false,
                    "status": true,
                    "topics": [
                        "0xddf252ad1be2c89b69c2b068fc378daa952ba7f163c4a11628f55a4df523b3ef",
                        "0x000000000000000000000000038201e05d140124952e34e31665420489288338",
                        "0x000000000000000000000000e53cea150243978ca97deb1a66a0799447f34753"
                    ]
                },
                "nodeType": 1
            },
            "36": {
                "invocation": {
                    "address": "0x35da18d10cf76e40634ff42d9783784958b531c0",
                    "callData": "0x00000000000000000000000065cbc8a50eeaced1e0145ca430005ef6e87ba084000000000000000000000000aad6825c2e63363adebbb79203d45b4ed0ac18620000000000000000000000000000000000000000000000000025dd15e8ea1180",
                    "decodedMethod": {
                        "callParams": [
                            {
                                "name": "sender",
                                "type": "address",
                                "value": "0x65cbc8a50eeaced1e0145ca430005ef6e87ba084"
                            },
                            {
                                "name": "recipient",
                                "type": "address",
                                "value": "0xaad6825c2e63363adebbb79203d45b4ed0ac1862"
                            },
                            {
                                "decimalAvailable": true,
                                "name": "amount",
                                "type": "uint256",
                                "value": "10,657,660,310,000,000"
                            }
                        ],
                        "constructorArguments": "",
                        "name": "transferFrom",
                        "returnParams": [
                            {
                                "name": "",
                                "type": "bool",
                                "value": true
                            }
                        ],
                        "signature": "transferFrom(address,address,uint256)"
                    },
                    "errorInfo": "",
                    "fromAddress": "0xb2ccaea94f97fb8ea230f61a4c9db0917ee7dff2",
                    "gasUsed": 2428,
                    "id": 36,
                    "methodDecoded": true,
                    "operation": "CALL",
                    "output": "0x0000000000000000000000000000000000000000000000000000000000000001",
                    "revert": false,
                    "revertMessage": "",
                    "selector": "0x23b872dd",
                    "status": true,
                    "value": "0"
                },
                "nodeType": 0
            },
            "37": {
                "event": {
                    "contract": "0x35da18d10cf76e40634ff42d9783784958b531c0",
                    "decodedLog": {
                        "name": "Transfer",
                        "params": [
                            {
                                "name": "from",
                                "type": "address",
                                "value": "0x65cbc8a50eeaced1e0145ca430005ef6e87ba084"
                            },
                            {
                                "name": "to",
                                "type": "address",
                                "value": "0xaad6825c2e63363adebbb79203d45b4ed0ac1862"
                            },
                            {
                                "decimalAvailable": true,
                                "name": "value",
                                "type": "uint256",
                                "value": "10,657,660,310,000,000"
                            }
                        ],
                        "signature": "Transfer(address,address,uint256)"
                    },
                    "id": 37,
                    "logData": "0x0000000000000000000000000000000000000000000000000025dd15e8ea1180",
                    "logDecoded": true,
                    "operation": "EVENT",
                    "revert": false,
                    "status": true,
                    "topics": [
                        "0xddf252ad1be2c89b69c2b068fc378daa952ba7f163c4a11628f55a4df523b3ef",
                        "0x00000000000000000000000065cbc8a50eeaced1e0145ca430005ef6e87ba084",
                        "0x000000000000000000000000aad6825c2e63363adebbb79203d45b4ed0ac1862"
                    ]
                },
                "nodeType": 1
            },
            "38": {
                "invocation": {
                    "address": "0x0cfc5e357c03816a1b06eea6fdd263a60ac50d90",
                    "callData": "0x000000000000000000000000cb69535f08554a07d23c1449599f5843ad0025ff000000000000000000000000bd76d2a4f0abd71c6f4bcbfef8d73e72ac3bfcd400000000000000000000000000000000000000000000000022b3403df6e2d200",
                    "decodedMethod": {
                        "callParams": [
                            {
                                "name": "sender",
                                "type": "address",
                                "value": "0xcb69535f08554a07d23c1449599f5843ad0025ff"
                            },
                            {
                                "name": "recipient",
                                "type": "address",
                                "value": "0xbd76d2a4f0abd71c6f4bcbfef8d73e72ac3bfcd4"
                            },
                            {
                                "decimalAvailable": true,
                                "name": "amount",
                                "type": "uint256",
                                "value": "2,500,412,853,000,000,000"
                            }
                        ],
                        "constructorArguments": "",
                        "name": "transferFrom",
                        "returnParams": [
                            {
                                "name": "",
                                "type": "bool",
                                "value": true
                            }
                        ],
                        "signature": "transferFrom(address,address,uint256)"
                    },
                    "errorInfo": "",
                    "fromAddress": "0xb2ccaea94f97fb8ea230f61a4c9db0917ee7dff2",
                    "gasUsed": 2428,
                    "id": 38,
                    "methodDecoded": true,
                    "operation": "CALL",
                    "output": "0x0000000000000000000000000000000000000000000000000000000000000001",
                    "revert": false,
                    "revertMessage": "",
                    "selector": "0x23b872dd",
                    "status": true,
                    "value": "0"
                },
                "nodeType": 0
            },
            "39": {
                "event": {
                    "contract": "0x0cfc5e357c03816a1b06eea6fdd263a60ac50d90",
                    "decodedLog": {
                        "name": "Transfer",
                        "params": [
                            {
                                "name": "from",
                                "type": "address",
                                "value": "0xcb69535f08554a07d23c1449599f5843ad0025ff"
                            },
                            {
                                "name": "to",
                                "type": "address",
                                "value": "0xbd76d2a4f0abd71c6f4bcbfef8d73e72ac3bfcd4"
                            },
                            {
                                "decimalAvailable": true,
                                "name": "value",
                                "type": "uint256",
                                "value": "2,500,412,853,000,000,000"
                            }
                        ],
                        "signature": "Transfer(address,address,uint256)"
                    },
                    "id": 39,
                    "logData": "0x00000000000000000000000000000000000000000000000022b3403df6e2d200",
                    "logDecoded": true,
                    "operation": "EVENT",
                    "revert": false,
                    "status": true,
                    "topics": [
                        "0xddf252ad1be2c89b69c2b068fc378daa952ba7f163c4a11628f55a4df523b3ef",
                        "0x000000000000000000000000cb69535f08554a07d23c1449599f5843ad0025ff",
                        "0x000000000000000000000000bd76d2a4f0abd71c6f4bcbfef8d73e72ac3bfcd4"
                    ]
                },
                "nodeType": 1
            },
            "4": {
                "invocation": {
                    "address": "0x0cfc5e357c03816a1b06eea6fdd263a60ac50d90",
                    "callData": "0x0000000000000000000000005bcbdfbd6b7fef82862edb137e3bfc2fd9204f72000000000000000000000000f17435f47ffbcfb3f910b6d96dc923843204996200000000000000000000000000000000000000000000000011b8d0bbf22c8000",
                    "decodedMethod": {
                        "callParams": [
                            {
                                "name": "sender",
                                "type": "address",
                                "value": "0x5bcbdfbd6b7fef82862edb137e3bfc2fd9204f72"
                            },
                            {
                                "name": "recipient",
                                "type": "address",
                                "value": "0xf17435f47ffbcfb3f910b6d96dc9238432049962"
                            },
                            {
                                "decimalAvailable": true,
                                "name": "amount",
                                "type": "uint256",
                                "value": "1,277,000,000,000,000,000"
                            }
                        ],
                        "constructorArguments": "",
                        "name": "transferFrom",
                        "returnParams": [
                            {
                                "name": "",
                                "type": "bool",
                                "value": true
                            }
                        ],
                        "signature": "transferFrom(address,address,uint256)"
                    },
                    "errorInfo": "",
                    "fromAddress": "0xb2ccaea94f97fb8ea230f61a4c9db0917ee7dff2",
                    "gasUsed": 2428,
                    "id": 4,
                    "methodDecoded": true,
                    "operation": "CALL",
                    "output": "0x0000000000000000000000000000000000000000000000000000000000000001",
                    "revert": false,
                    "revertMessage": "",
                    "selector": "0x23b872dd",
                    "status": true,
                    "value": "0"
                },
                "nodeType": 0
            },
            "40": {
                "invocation": {
                    "address": "0xdac17f958d2ee523a2206206994597c13d831ec7",
                    "callData": "0x000000000000000000000000cb69535f08554a07d23c1449599f5843ad0025ff000000000000000000000000bd76d2a4f0abd71c6f4bcbfef8d73e72ac3bfcd40000000000000000000000000000000000000000000000000000000000000000",
                    "decodedMethod": {
                        "callParams": [
                            {
                                "name": "_from",
                                "type": "address",
                                "value": "0xcb69535f08554a07d23c1449599f5843ad0025ff"
                            },
                            {
                                "name": "_to",
                                "type": "address",
                                "value": "0xbd76d2a4f0abd71c6f4bcbfef8d73e72ac3bfcd4"
                            },
                            {
                                "decimalAvailable": true,
                                "name": "_value",
                                "type": "uint256",
                                "value": "0"
                            }
                        ],
                        "constructorArguments": "",
                        "name": "transferFrom",
                        "returnParams": [],
                        "signature": "transferFrom(address,address,uint256)"
                    },
                    "errorInfo": "",
                    "fromAddress": "0xb2ccaea94f97fb8ea230f61a4c9db0917ee7dff2",
                    "gasUsed": 13258,
                    "id": 40,
                    "methodDecoded": true,
                    "operation": "CALL",
                    "output": "",
                    "revert": false,
                    "revertMessage": "",
                    "selector": "0x23b872dd",
                    "status": true,
                    "value": "0"
                },
                "nodeType": 0
            },
            "41": {
                "event": {
                    "contract": "0xdac17f958d2ee523a2206206994597c13d831ec7",
                    "decodedLog": {
                        "name": "Transfer",
                        "params": [
                            {
                                "name": "from",
                                "type": "address",
                                "value": "0xcb69535f08554a07d23c1449599f5843ad0025ff"
                            },
                            {
                                "name": "to",
                                "type": "address",
                                "value": "0xbd76d2a4f0abd71c6f4bcbfef8d73e72ac3bfcd4"
                            },
                            {
                                "decimalAvailable": true,
                                "name": "value",
                                "type": "uint256",
                                "value": "0"
                            }
                        ],
                        "signature": "Transfer(address,address,uint256)"
                    },
                    "id": 41,
                    "logData": "0x0000000000000000000000000000000000000000000000000000000000000000",
                    "logDecoded": true,
                    "operation": "EVENT",
                    "revert": false,
                    "status": true,
                    "topics": [
                        "0xddf252ad1be2c89b69c2b068fc378daa952ba7f163c4a11628f55a4df523b3ef",
                        "0x000000000000000000000000cb69535f08554a07d23c1449599f5843ad0025ff",
                        "0x000000000000000000000000bd76d2a4f0abd71c6f4bcbfef8d73e72ac3bfcd4"
                    ]
                },
                "nodeType": 1
            },
            "42": {
                "invocation": {
                    "address": "0x35da18d10cf76e40634ff42d9783784958b531c0",
                    "callData": "0x000000000000000000000000063ed6f59bd44d8bc99c3b170a3d52b49dcbcfff0000000000000000000000009f6a2714b6066c45be145f17bca5658ce40d6d6200000000000000000000000000000000000000000000000000007a6d29b8c980",
                    "decodedMethod": {
                        "callParams": [
                            {
                                "name": "sender",
                                "type": "address",
                                "value": "0x063ed6f59bd44d8bc99c3b170a3d52b49dcbcfff"
                            },
                            {
                                "name": "recipient",
                                "type": "address",
                                "value": "0x9f6a2714b6066c45be145f17bca5658ce40d6d62"
                            },
                            {
                                "decimalAvailable": true,
                                "name": "amount",
                                "type": "uint256",
                                "value": "134,609,270,000,000"
                            }
                        ],
                        "constructorArguments": "",
                        "name": "transferFrom",
                        "returnParams": [
                            {
                                "name": "",
                                "type": "bool",
                                "value": true
                            }
                        ],
                        "signature": "transferFrom(address,address,uint256)"
                    },
                    "errorInfo": "",
                    "fromAddress": "0xb2ccaea94f97fb8ea230f61a4c9db0917ee7dff2",
                    "gasUsed": 2428,
                    "id": 42,
                    "methodDecoded": true,
                    "operation": "CALL",
                    "output": "0x0000000000000000000000000000000000000000000000000000000000000001",
                    "revert": false,
                    "revertMessage": "",
                    "selector": "0x23b872dd",
                    "status": true,
                    "value": "0"
                },
                "nodeType": 0
            },
            "43": {
                "event": {
                    "contract": "0x35da18d10cf76e40634ff42d9783784958b531c0",
                    "decodedLog": {
                        "name": "Transfer",
                        "params": [
                            {
                                "name": "from",
                                "type": "address",
                                "value": "0x063ed6f59bd44d8bc99c3b170a3d52b49dcbcfff"
                            },
                            {
                                "name": "to",
                                "type": "address",
                                "value": "0x9f6a2714b6066c45be145f17bca5658ce40d6d62"
                            },
                            {
                                "decimalAvailable": true,
                                "name": "value",
                                "type": "uint256",
                                "value": "134,609,270,000,000"
                            }
                        ],
                        "signature": "Transfer(address,address,uint256)"
                    },
                    "id": 43,
                    "logData": "0x00000000000000000000000000000000000000000000000000007a6d29b8c980",
                    "logDecoded": true,
                    "operation": "EVENT",
                    "revert": false,
                    "status": true,
                    "topics": [
                        "0xddf252ad1be2c89b69c2b068fc378daa952ba7f163c4a11628f55a4df523b3ef",
                        "0x000000000000000000000000063ed6f59bd44d8bc99c3b170a3d52b49dcbcfff",
                        "0x0000000000000000000000009f6a2714b6066c45be145f17bca5658ce40d6d62"
                    ]
                },
                "nodeType": 1
            },
            "5": {
                "event": {
                    "contract": "0x0cfc5e357c03816a1b06eea6fdd263a60ac50d90",
                    "decodedLog": {
                        "name": "Transfer",
                        "params": [
                            {
                                "name": "from",
                                "type": "address",
                                "value": "0x5bcbdfbd6b7fef82862edb137e3bfc2fd9204f72"
                            },
                            {
                                "name": "to",
                                "type": "address",
                                "value": "0xf17435f47ffbcfb3f910b6d96dc9238432049962"
                            },
                            {
                                "decimalAvailable": true,
                                "name": "value",
                                "type": "uint256",
                                "value": "1,277,000,000,000,000,000"
                            }
                        ],
                        "signature": "Transfer(address,address,uint256)"
                    },
                    "id": 5,
                    "logData": "0x00000000000000000000000000000000000000000000000011b8d0bbf22c8000",
                    "logDecoded": true,
                    "operation": "EVENT",
                    "revert": false,
                    "status": true,
                    "topics": [
                        "0xddf252ad1be2c89b69c2b068fc378daa952ba7f163c4a11628f55a4df523b3ef",
                        "0x0000000000000000000000005bcbdfbd6b7fef82862edb137e3bfc2fd9204f72",
                        "0x000000000000000000000000f17435f47ffbcfb3f910b6d96dc9238432049962"
                    ]
                },
                "nodeType": 1
            },
            "6": {
                "invocation": {
                    "address": "0xdac17f958d2ee523a2206206994597c13d831ec7",
                    "callData": "0x0000000000000000000000005bcbdfbd6b7fef82862edb137e3bfc2fd9204f72000000000000000000000000f17435f47ffbcfb3f910b6d96dc92384320499620000000000000000000000000000000000000000000000000000000000000000",
                    "decodedMethod": {
                        "callParams": [
                            {
                                "name": "_from",
                                "type": "address",
                                "value": "0x5bcbdfbd6b7fef82862edb137e3bfc2fd9204f72"
                            },
                            {
                                "name": "_to",
                                "type": "address",
                                "value": "0xf17435f47ffbcfb3f910b6d96dc9238432049962"
                            },
                            {
                                "decimalAvailable": true,
                                "name": "_value",
                                "type": "uint256",
                                "value": "0"
                            }
                        ],
                        "constructorArguments": "",
                        "name": "transferFrom",
                        "returnParams": [],
                        "signature": "transferFrom(address,address,uint256)"
                    },
                    "errorInfo": "",
                    "fromAddress": "0xb2ccaea94f97fb8ea230f61a4c9db0917ee7dff2",
                    "gasUsed": 21258,
                    "id": 6,
                    "methodDecoded": true,
                    "operation": "CALL",
                    "output": "",
                    "revert": false,
                    "revertMessage": "",
                    "selector": "0x23b872dd",
                    "status": true,
                    "value": "0"
                },
                "nodeType": 0
            },
            "7": {
                "event": {
                    "contract": "0xdac17f958d2ee523a2206206994597c13d831ec7",
                    "decodedLog": {
                        "name": "Transfer",
                        "params": [
                            {
                                "name": "from",
                                "type": "address",
                                "value": "0x5bcbdfbd6b7fef82862edb137e3bfc2fd9204f72"
                            },
                            {
                                "name": "to",
                                "type": "address",
                                "value": "0xf17435f47ffbcfb3f910b6d96dc9238432049962"
                            },
                            {
                                "decimalAvailable": true,
                                "name": "value",
                                "type": "uint256",
                                "value": "0"
                            }
                        ],
                        "signature": "Transfer(address,address,uint256)"
                    },
                    "id": 7,
                    "logData": "0x0000000000000000000000000000000000000000000000000000000000000000",
                    "logDecoded": true,
                    "operation": "EVENT",
                    "revert": false,
                    "status": true,
                    "topics": [
                        "0xddf252ad1be2c89b69c2b068fc378daa952ba7f163c4a11628f55a4df523b3ef",
                        "0x0000000000000000000000005bcbdfbd6b7fef82862edb137e3bfc2fd9204f72",
                        "0x000000000000000000000000f17435f47ffbcfb3f910b6d96dc9238432049962"
                    ]
                },
                "nodeType": 1
            },
            "8": {
                "invocation": {
                    "address": "0x0cfc5e357c03816a1b06eea6fdd263a60ac50d90",
                    "callData": "0x0000000000000000000000003eaa01baaf5fbbb23e29baa44a44d916dba76238000000000000000000000000afc53dbf12b9909ac88cc36f529574feec3ff7d40000000000000000000000000000000000000000000000004d93ab62066f0000",
                    "decodedMethod": {
                        "callParams": [
                            {
                                "name": "sender",
                                "type": "address",
                                "value": "0x3eaa01baaf5fbbb23e29baa44a44d916dba76238"
                            },
                            {
                                "name": "recipient",
                                "type": "address",
                                "value": "0xafc53dbf12b9909ac88cc36f529574feec3ff7d4"
                            },
                            {
                                "decimalAvailable": true,
                                "name": "amount",
                                "type": "uint256",
                                "value": "5,590,000,000,000,000,000"
                            }
                        ],
                        "constructorArguments": "",
                        "name": "transferFrom",
                        "returnParams": [
                            {
                                "name": "",
                                "type": "bool",
                                "value": true
                            }
                        ],
                        "signature": "transferFrom(address,address,uint256)"
                    },
                    "errorInfo": "",
                    "fromAddress": "0xb2ccaea94f97fb8ea230f61a4c9db0917ee7dff2",
                    "gasUsed": 2428,
                    "id": 8,
                    "methodDecoded": true,
                    "operation": "CALL",
                    "output": "0x0000000000000000000000000000000000000000000000000000000000000001",
                    "revert": false,
                    "revertMessage": "",
                    "selector": "0x23b872dd",
                    "status": true,
                    "value": "0"
                },
                "nodeType": 0
            },
            "9": {
                "event": {
                    "contract": "0x0cfc5e357c03816a1b06eea6fdd263a60ac50d90",
                    "decodedLog": {
                        "name": "Transfer",
                        "params": [
                            {
                                "name": "from",
                                "type": "address",
                                "value": "0x3eaa01baaf5fbbb23e29baa44a44d916dba76238"
                            },
                            {
                                "name": "to",
                                "type": "address",
                                "value": "0xafc53dbf12b9909ac88cc36f529574feec3ff7d4"
                            },
                            {
                                "decimalAvailable": true,
                                "name": "value",
                                "type": "uint256",
                                "value": "5,590,000,000,000,000,000"
                            }
                        ],
                        "signature": "Transfer(address,address,uint256)"
                    },
                    "id": 9,
                    "logData": "0x0000000000000000000000000000000000000000000000004d93ab62066f0000",
                    "logDecoded": true,
                    "operation": "EVENT",
                    "revert": false,
                    "status": true,
                    "topics": [
                        "0xddf252ad1be2c89b69c2b068fc378daa952ba7f163c4a11628f55a4df523b3ef",
                        "0x0000000000000000000000003eaa01baaf5fbbb23e29baa44a44d916dba76238",
                        "0x000000000000000000000000afc53dbf12b9909ac88cc36f529574feec3ff7d4"
                    ]
                },
                "nodeType": 1
            }
        },
        "gasFlame": [
            {
                "children": [
                    {
                        "children": [
                            {
                                "children": [],
                                "depth": 0,
                                "name": "Initial Gas",
                                "value": 49444
                            },
                            {
                                "children": [
                                    {
                                        "children": [],
                                        "depth": 1,
                                        "name": "transferFrom",
                                        "value": 0
                                    },
                                    {
                                        "children": [],
                                        "depth": 1,
                                        "name": "transferFrom",
                                        "value": 2428
                                    },
                                    {
                                        "children": [],
                                        "depth": 1,
                                        "name": "transferFrom",
                                        "value": 2428
                                    },
                                    {
                                        "children": [],
                                        "depth": 1,
                                        "name": "transferFrom",
                                        "value": 21258
                                    },
                                    {
                                        "children": [],
                                        "depth": 1,
                                        "name": "transferFrom",
                                        "value": 2428
                                    },
                                    {
                                        "children": [],
                                        "depth": 1,
                                        "name": "transferFrom",
                                        "value": 13258
                                    },
                                    {
                                        "children": [],
                                        "depth": 1,
                                        "name": "transferFrom",
                                        "value": 2428
                                    },
                                    {
                                        "children": [],
                                        "depth": 1,
                                        "name": "transferFrom",
                                        "value": 2428
                                    },
                                    {
                                        "children": [],
                                        "depth": 1,
                                        "name": "transferFrom",
                                        "value": 13258
                                    },
                                    {
                                        "children": [],
                                        "depth": 1,
                                        "name": "transferFrom",
                                        "value": 2428
                                    },
                                    {
                                        "children": [],
                                        "depth": 1,
                                        "name": "transferFrom",
                                        "value": 2428
                                    },
                                    {
                                        "children": [],
                                        "depth": 1,
                                        "name": "transferFrom",
                                        "value": 13258
                                    },
                                    {
                                        "children": [],
                                        "depth": 1,
                                        "name": "transferFrom",
                                        "value": 2428
                                    },
                                    {
                                        "children": [],
                                        "depth": 1,
                                        "name": "transferFrom",
                                        "value": 13258
                                    },
                                    {
                                        "children": [],
                                        "depth": 1,
                                        "name": "transferFrom",
                                        "value": 2428
                                    },
                                    {
                                        "children": [],
                                        "depth": 1,
                                        "name": "transferFrom",
                                        "value": 13258
                                    },
                                    {
                                        "children": [],
                                        "depth": 1,
                                        "name": "transferFrom",
                                        "value": 2428
                                    },
                                    {
                                        "children": [],
                                        "depth": 1,
                                        "name": "transferFrom",
                                        "value": 13258
                                    },
                                    {
                                        "children": [],
                                        "depth": 1,
                                        "name": "transferFrom",
                                        "value": 2428
                                    },
                                    {
                                        "children": [],
                                        "depth": 1,
                                        "name": "transferFrom",
                                        "value": 2428
                                    },
                                    {
                                        "children": [],
                                        "depth": 1,
                                        "name": "transferFrom",
                                        "value": 13258
                                    },
                                    {
                                        "children": [],
                                        "depth": 1,
                                        "name": "transferFrom",
                                        "value": 2428
                                    }
                                ],
                                "depth": 0,
                                "name": "Executed Gas",
                                "value": 164916
                            }
                        ],
                        "depth": -1,
                        "name": "Actual Gas Used",
                        "value": 214360
                    },
                    {
                        "children": [],
                        "depth": -1,
                        "name": "Refunded Gas",
                        "value": 0
                    }
                ],
                "depth": -2,
                "name": "Total Gas",
                "value": 214360
            }
        ],
        "isConfirmed": true,
        "mainTrace": [
            {
                "children": [
                    {
                        "children": [
                            {
                                "children": [],
                                "depth": 1,
                                "id": 1,
                                "order": 1
                            },
                            {
                                "children": [
                                    {
                                        "children": [],
                                        "depth": 2,
                                        "id": 3,
                                        "order": 3
                                    }
                                ],
                                "depth": 1,
                                "id": 2,
                                "order": 2
                            },
                            {
                                "children": [
                                    {
                                        "children": [],
                                        "depth": 2,
                                        "id": 5,
                                        "order": 5
                                    }
                                ],
                                "depth": 1,
                                "id": 4,
                                "order": 4
                            },
                            {
                                "children": [
                                    {
                                        "children": [],
                                        "depth": 2,
                                        "id": 7,
                                        "order": 7
                                    }
                                ],
                                "depth": 1,
                                "id": 6,
                                "order": 6
                            },
                            {
                                "children": [
                                    {
                                        "children": [],
                                        "depth": 2,
                                        "id": 9,
                                        "order": 9
                                    }
                                ],
                                "depth": 1,
                                "id": 8,
                                "order": 8
                            },
                            {
                                "children": [
                                    {
                                        "children": [],
                                        "depth": 2,
                                        "id": 11,
                                        "order": 11
                                    }
                                ],
                                "depth": 1,
                                "id": 10,
                                "order": 10
                            },
                            {
                                "children": [
                                    {
                                        "children": [],
                                        "depth": 2,
                                        "id": 13,
                                        "order": 13
                                    }
                                ],
                                "depth": 1,
                                "id": 12,
                                "order": 12
                            },
                            {
                                "children": [
                                    {
                                        "children": [],
                                        "depth": 2,
                                        "id": 15,
                                        "order": 15
                                    }
                                ],
                                "depth": 1,
                                "id": 14,
                                "order": 14
                            },
                            {
                                "children": [
                                    {
                                        "children": [],
                                        "depth": 2,
                                        "id": 17,
                                        "order": 17
                                    }
                                ],
                                "depth": 1,
                                "id": 16,
                                "order": 16
                            },
                            {
                                "children": [
                                    {
                                        "children": [],
                                        "depth": 2,
                                        "id": 19,
                                        "order": 19
                                    }
                                ],
                                "depth": 1,
                                "id": 18,
                                "order": 18
                            },
                            {
                                "children": [
                                    {
                                        "children": [],
                                        "depth": 2,
                                        "id": 21,
                                        "order": 21
                                    }
                                ],
                                "depth": 1,
                                "id": 20,
                                "order": 20
                            },
                            {
                                "children": [
                                    {
                                        "children": [],
                                        "depth": 2,
                                        "id": 23,
                                        "order": 23
                                    }
                                ],
                                "depth": 1,
                                "id": 22,
                                "order": 22
                            },
                            {
                                "children": [
                                    {
                                        "children": [],
                                        "depth": 2,
                                        "id": 25,
                                        "order": 25
                                    }
                                ],
                                "depth": 1,
                                "id": 24,
                                "order": 24
                            },
                            {
                                "children": [
                                    {
                                        "children": [],
                                        "depth": 2,
                                        "id": 27,
                                        "order": 27
                                    }
                                ],
                                "depth": 1,
                                "id": 26,
                                "order": 26
                            },
                            {
                                "children": [
                                    {
                                        "children": [],
                                        "depth": 2,
                                        "id": 29,
                                        "order": 29
                                    }
                                ],
                                "depth": 1,
                                "id": 28,
                                "order": 28
                            },
                            {
                                "children": [
                                    {
                                        "children": [],
                                        "depth": 2,
                                        "id": 31,
                                        "order": 31
                                    }
                                ],
                                "depth": 1,
                                "id": 30,
                                "order": 30
                            },
                            {
                                "children": [
                                    {
                                        "children": [],
                                        "depth": 2,
                                        "id": 33,
                                        "order": 33
                                    }
                                ],
                                "depth": 1,
                                "id": 32,
                                "order": 32
                            },
                            {
                                "children": [
                                    {
                                        "children": [],
                                        "depth": 2,
                                        "id": 35,
                                        "order": 35
                                    }
                                ],
                                "depth": 1,
                                "id": 34,
                                "order": 34
                            },
                            {
                                "children": [
                                    {
                                        "children": [],
                                        "depth": 2,
                                        "id": 37,
                                        "order": 37
                                    }
                                ],
                                "depth": 1,
                                "id": 36,
                                "order": 36
                            },
                            {
                                "children": [
                                    {
                                        "children": [],
                                        "depth": 2,
                                        "id": 39,
                                        "order": 39
                                    }
                                ],
                                "depth": 1,
                                "id": 38,
                                "order": 38
                            },
                            {
                                "children": [
                                    {
                                        "children": [],
                                        "depth": 2,
                                        "id": 41,
                                        "order": 41
                                    }
                                ],
                                "depth": 1,
                                "id": 40,
                                "order": 40
                            },
                            {
                                "children": [
                                    {
                                        "children": [],
                                        "depth": 2,
                                        "id": 43,
                                        "order": 43
                                    }
                                ],
                                "depth": 1,
                                "id": 42,
                                "order": 42
                            }
                        ],
                        "depth": 0,
                        "id": 0,
                        "order": 0
                    }
                ],
                "depth": -1,
                "id": -1,
                "order": -1
            }
        ],
        "mainTraceNodeCount": 44,
        "parentIdMap": {
            "0": -1,
            "1": 0,
            "10": 0,
            "11": 10,
            "12": 0,
            "13": 12,
            "14": 0,
            "15": 14,
            "16": 0,
            "17": 16,
            "18": 0,
            "19": 18,
            "2": 0,
            "20": 0,
            "21": 20,
            "22": 0,
            "23": 22,
            "24": 0,
            "25": 24,
            "26": 0,
            "27": 26,
            "28": 0,
            "29": 28,
            "3": 2,
            "30": 0,
            "31": 30,
            "32": 0,
            "33": 32,
            "34": 0,
            "35": 34,
            "36": 0,
            "37": 36,
            "38": 0,
            "39": 38,
            "4": 0,
            "40": 0,
            "41": 40,
            "42": 0,
            "43": 42,
            "5": 4,
            "6": 0,
            "7": 6,
            "8": 0,
            "9": 8
        },
        "tidyTrace": [
            {
                "children": [
                    {
                        "children": [
                            {
                                "children": [],
                                "depth": 1,
                                "id": 1,
                                "order": 1
                            },
                            {
                                "children": [
                                    {
                                        "children": [],
                                        "depth": 2,
                                        "id": 3,
                                        "order": 3
                                    }
                                ],
                                "depth": 1,
                                "id": 2,
                                "order": 2
                            },
                            {
                                "children": [
                                    {
                                        "children": [],
                                        "depth": 2,
                                        "id": 5,
                                        "order": 5
                                    }
                                ],
                                "depth": 1,
                                "id": 4,
                                "order": 4
                            },
                            {
                                "children": [
                                    {
                                        "children": [],
                                        "depth": 2,
                                        "id": 7,
                                        "order": 7
                                    }
                                ],
                                "depth": 1,
                                "id": 6,
                                "order": 6
                            },
                            {
                                "children": [
                                    {
                                        "children": [],
                                        "depth": 2,
                                        "id": 9,
                                        "order": 9
                                    }
                                ],
                                "depth": 1,
                                "id": 8,
                                "order": 8
                            },
                            {
                                "children": [
                                    {
                                        "children": [],
                                        "depth": 2,
                                        "id": 11,
                                        "order": 11
                                    }
                                ],
                                "depth": 1,
                                "id": 10,
                                "order": 10
                            },
                            {
                                "children": [
                                    {
                                        "children": [],
                                        "depth": 2,
                                        "id": 13,
                                        "order": 13
                                    }
                                ],
                                "depth": 1,
                                "id": 12,
                                "order": 12
                            },
                            {
                                "children": [
                                    {
                                        "children": [],
                                        "depth": 2,
                                        "id": 15,
                                        "order": 15
                                    }
                                ],
                                "depth": 1,
                                "id": 14,
                                "order": 14
                            },
                            {
                                "children": [
                                    {
                                        "children": [],
                                        "depth": 2,
                                        "id": 17,
                                        "order": 17
                                    }
                                ],
                                "depth": 1,
                                "id": 16,
                                "order": 16
                            },
                            {
                                "children": [
                                    {
                                        "children": [],
                                        "depth": 2,
                                        "id": 19,
                                        "order": 19
                                    }
                                ],
                                "depth": 1,
                                "id": 18,
                                "order": 18
                            },
                            {
                                "children": [
                                    {
                                        "children": [],
                                        "depth": 2,
                                        "id": 21,
                                        "order": 21
                                    }
                                ],
                                "depth": 1,
                                "id": 20,
                                "order": 20
                            },
                            {
                                "children": [
                                    {
                                        "children": [],
                                        "depth": 2,
                                        "id": 23,
                                        "order": 23
                                    }
                                ],
                                "depth": 1,
                                "id": 22,
                                "order": 22
                            },
                            {
                                "children": [
                                    {
                                        "children": [],
                                        "depth": 2,
                                        "id": 25,
                                        "order": 25
                                    }
                                ],
                                "depth": 1,
                                "id": 24,
                                "order": 24
                            },
                            {
                                "children": [
                                    {
                                        "children": [],
                                        "depth": 2,
                                        "id": 27,
                                        "order": 27
                                    }
                                ],
                                "depth": 1,
                                "id": 26,
                                "order": 26
                            },
                            {
                                "children": [
                                    {
                                        "children": [],
                                        "depth": 2,
                                        "id": 29,
                                        "order": 29
                                    }
                                ],
                                "depth": 1,
                                "id": 28,
                                "order": 28
                            },
                            {
                                "children": [
                                    {
                                        "children": [],
                                        "depth": 2,
                                        "id": 31,
                                        "order": 31
                                    }
                                ],
                                "depth": 1,
                                "id": 30,
                                "order": 30
                            },
                            {
                                "children": [
                                    {
                                        "children": [],
                                        "depth": 2,
                                        "id": 33,
                                        "order": 33
                                    }
                                ],
                                "depth": 1,
                                "id": 32,
                                "order": 32
                            },
                            {
                                "children": [
                                    {
                                        "children": [],
                                        "depth": 2,
                                        "id": 35,
                                        "order": 35
                                    }
                                ],
                                "depth": 1,
                                "id": 34,
                                "order": 34
                            },
                            {
                                "children": [
                                    {
                                        "children": [],
                                        "depth": 2,
                                        "id": 37,
                                        "order": 37
                                    }
                                ],
                                "depth": 1,
                                "id": 36,
                                "order": 36
                            },
                            {
                                "children": [
                                    {
                                        "children": [],
                                        "depth": 2,
                                        "id": 39,
                                        "order": 39
                                    }
                                ],
                                "depth": 1,
                                "id": 38,
                                "order": 38
                            },
                            {
                                "children": [
                                    {
                                        "children": [],
                                        "depth": 2,
                                        "id": 41,
                                        "order": 41
                                    }
                                ],
                                "depth": 1,
                                "id": 40,
                                "order": 40
                            },
                            {
                                "children": [
                                    {
                                        "children": [],
                                        "depth": 2,
                                        "id": 43,
                                        "order": 43
                                    }
                                ],
                                "depth": 1,
                                "id": 42,
                                "order": 42
                            }
                        ],
                        "depth": 0,
                        "id": 0,
                        "order": 0
                    }
                ],
                "depth": -1,
                "id": -1,
                "order": -1
            }
        ],
        "tidyTraceNodeCount": 44
    },
    "state_change": {
        "stateChanges": []
    }
}