{
    "balance_change": {
        "balanceChanges": [
            {
                "account": "0xe5ccfca59acd6a3dea18a97a8d12a1fc5be09b13",
                "assets": [
                    {
                        "address": "0xbddab785b306bcd9fb056da189615cc8ece1d823",
                        "amount": "63.84049488170390741",
                        "iconUrl": "",
                        "isERC1155": false,
                        "isERC721": false,
                        "sign": false,
                        "value": ""
                    }
                ]
            },
            {
                "account": "0x079f5569628968194af03213fd0d821857c9a050",
                "assets": [
                    {
                        "address": "0xbddab785b306bcd9fb056da189615cc8ece1d823",
                        "amount": "3.192241027777777777",
                        "iconUrl": "",
                        "isERC1155": false,
                        "isERC721": false,
                        "sign": true,
                        "value": ""
                    }
                ]
            },
            {
                "account": "0x0dff620961b63565e3d63241cee3f4e83c341372",
                "assets": [
                    {
                        "address": "0xbddab785b306bcd9fb056da189615cc8ece1d823",
                        "amount": "3.19225428",
                        "iconUrl": "",
                        "isERC1155": false,
                        "isERC721": false,
                        "sign": true,
                        "value": ""
                    }
                ]
            },
            {
                "account": "0x117647f3f41d30da66f74a543a835df3daa9c33a",
                "assets": [
                    {
                        "address": "0xbddab785b306bcd9fb056da189615cc8ece1d823",
                        "amount": "3.19204822",
                        "iconUrl": "",
                        "isERC1155": false,
                        "isERC721": false,
                        "sign": true,
                        "value": ""
                    }
                ]
            },
            {
                "account": "0x16df1f005aee6b00c74f12dbe932afa7922fd08b",
                "assets": [
                    {
                        "address": "0xbddab785b306bcd9fb056da189615cc8ece1d823",
                        "amount": "3.19194206",
                        "iconUrl": "",
                        "isERC1155": false,
                        "isERC721": false,
                        "sign": true,
                        "value": ""
                    }
                ]
            },
            {
                "account": "0x1904bd287318efac4b561392a316acf3112a6915",
                "assets": [
                    {
                        "address": "0xbddab785b306bcd9fb056da189615cc8ece1d823",
                        "amount": "3.1922",
                        "iconUrl": "",
                        "isERC1155": false,
                        "isERC721": false,
                        "sign": true,
                        "value": ""
                    }
                ]
            },
            {
                "account": "0x3546259cbfcd2a1aef7751894facdeb1716d7e5b",
                "assets": [
                    {
                        "address": "0xbddab785b306bcd9fb056da189615cc8ece1d823",
                        "amount": "3.192103816999999744",
                        "iconUrl": "",
                        "isERC1155": false,
                        "isERC721": false,
                        "sign": true,
                        "value": ""
                    }
                ]
            },
            {
                "account": "0x717c0570d8d0805fe894445b861206f4d0270c6b",
                "assets": [
                    {
                        "address": "0xbddab785b306bcd9fb056da189615cc8ece1d823",
                        "amount": "3.192207114472109558",
                        "iconUrl": "",
                        "isERC1155": false,
                        "isERC721": false,
                        "sign": true,
                        "value": ""
                    }
                ]
            },
            {
                "account": "0x873599ae32d551e6a8a4332d99a72490b9f2387c",
                "assets": [
                    {
                        "address": "0xbddab785b306bcd9fb056da189615cc8ece1d823",
                        "amount": "3.191812008470588235",
                        "iconUrl": "",
                        "isERC1155": false,
                        "isERC721": false,
                        "sign": true,
                        "value": ""
                    }
                ]
            },
            {
                "account": "0x90751c506d269d84ce17ea34eb7a79b57c8c0836",
                "assets": [
                    {
                        "address": "0xbddab785b306bcd9fb056da189615cc8ece1d823",
                        "amount": "3.19182147",
                        "iconUrl": "",
                        "isERC1155": false,
                        "isERC721": false,
                        "sign": true,
                        "value": ""
                    }
                ]
            },
            {
                "account": "0x9ab2b1bae4e26502795912cf89855b3da7fd4957",
                "assets": [
                    {
                        "address": "0xbddab785b306bcd9fb056da189615cc8ece1d823",
                        "amount": "3.19196001",
                        "iconUrl": "",
                        "isERC1155": false,
                        "isERC721": false,
                        "sign": true,
                        "value": ""
                    }
                ]
            },
            {
                "account": "0xb193aa14542c0d4164dd4210a335e18dfd4a2ad7",
                "assets": [
                    {
                        "address": "0xbddab785b306bcd9fb056da189615cc8ece1d823",
                        "amount": "3.191917661",
                        "iconUrl": "",
                        "isERC1155": false,
                        "isERC721": false,
                        "sign": true,
                        "value": ""
                    }
                ]
            },
            {
                "account": "0xb4c4f54d1732f2bafa0f7166a7e8a994c31ce533",
                "assets": [
                    {
                        "address": "0xbddab785b306bcd9fb056da189615cc8ece1d823",
                        "amount": "3.19225685",
                        "iconUrl": "",
                        "isERC1155": false,
                        "isERC721": false,
                        "sign": true,
                        "value": ""
                    }
                ]
            },
            {
                "account": "0xc15b616415c85cf2382f03cb159b1b4ea7ec49f6",
                "assets": [
                    {
                        "address": "0xbddab785b306bcd9fb056da189615cc8ece1d823",
                        "amount": "3.191790409800329444",
                        "iconUrl": "",
                        "isERC1155": false,
                        "isERC721": false,
                        "sign": true,
                        "value": ""
                    }
                ]
            },
            {
                "account": "0xc8965631d1223cefc60a6aadbb3488e15ad74254",
                "assets": [
                    {
                        "address": "0xbddab785b306bcd9fb056da189615cc8ece1d823",
                        "amount": "3.191980721",
                        "iconUrl": "",
                        "isERC1155": false,
                        "isERC721": false,
                        "sign": true,
                        "value": ""
                    }
                ]
            },
            {
                "account": "0xdc1ce3c608273a19b39495afa9edc70b1b0ce523",
                "assets": [
                    {
                        "address": "0xbddab785b306bcd9fb056da189615cc8ece1d823",
                        "amount": "3.192006391875",
                        "iconUrl": "",
                        "isERC1155": false,
                        "isERC721": false,
                        "sign": true,
                        "value": ""
                    }
                ]
            },
            {
                "account": "0xdfa35bdc34998211b4f4d452811e09fbab4fbb59",
                "assets": [
                    {
                        "address": "0xbddab785b306bcd9fb056da189615cc8ece1d823",
                        "amount": "3.19173369",
                        "iconUrl": "",
                        "isERC1155": false,
                        "isERC721": false,
                        "sign": true,
                        "value": ""
                    }
                ]
            },
            {
                "account": "0xe3951827b9c13a8166f1798639e255848e0caa60",
                "assets": [
                    {
                        "address": "0xbddab785b306bcd9fb056da189615cc8ece1d823",
                        "amount": "3.192190923157107388",
                        "iconUrl": "",
                        "isERC1155": false,
                        "isERC721": false,
                        "sign": true,
                        "value": ""
                    }
                ]
            },
            {
                "account": "0xed5d43e6c8a45e7693714d280b5d112e92a6f7d1",
                "assets": [
                    {
                        "address": "0xbddab785b306bcd9fb056da189615cc8ece1d823",
                        "amount": "3.191916551000438325",
                        "iconUrl": "",
                        "isERC1155": false,
                        "isERC721": false,
                        "sign": true,
                        "value": ""
                    }
                ]
            },
            {
                "account": "0xef91d4ba5241e8c069432474c4dd8fd1ebd35e38",
                "assets": [
                    {
                        "address": "0xbddab785b306bcd9fb056da189615cc8ece1d823",
                        "amount": "3.192",
                        "iconUrl": "",
                        "isERC1155": false,
                        "isERC721": false,
                        "sign": true,
                        "value": ""
                    }
                ]
            },
            {
                "account": "0xfab6697ccdd3e3f8df3c613ad195bea25b4e3e97",
                "assets": [
                    {
                        "address": "0xbddab785b306bcd9fb056da189615cc8ece1d823",
                        "amount": "3.192111676150556939",
                        "iconUrl": "",
                        "isERC1155": false,
                        "isERC721": false,
                        "sign": true,
                        "value": ""
                    }
                ]
            }
        ]
    },
    "profile": {
        "basic_info": {
            "baseFee": "",
            "blockNumber": 8675367,
            "callData": "0x706f6937000000000000000000000000000000000000000000000000000000000000004000000000000000000000000000000000000000000000000000000000000002e00000000000000000000000000000000000000000000000000000000000000014000000000000000000000000b4c4f54d1732f2bafa0f7166a7e8a994c31ce5330000000000000000000000000dff620961b63565e3d63241cee3f4e83c341372000000000000000000000000079f5569628968194af03213fd0d821857c9a050000000000000000000000000717c0570d8d0805fe894445b861206f4d0270c6b0000000000000000000000001904bd287318efac4b561392a316acf3112a6915000000000000000000000000e3951827b9c13a8166f1798639e255848e0caa60000000000000000000000000fab6697ccdd3e3f8df3c613ad195bea25b4e3e970000000000000000000000003546259cbfcd2a1aef7751894facdeb1716d7e5b000000000000000000000000117647f3f41d30da66f74a543a835df3daa9c33a000000000000000000000000dc1ce3c608273a19b39495afa9edc70b1b0ce523000000000000000000000000ef91d4ba5241e8c069432474c4dd8fd1ebd35e38000000000000000000000000c8965631d1223cefc60a6aadbb3488e15ad742540000000000000000000000009ab2b1bae4e26502795912cf89855b3da7fd495700000000000000000000000016df1f005aee6b00c74f12dbe932afa7922fd08b000000000000000000000000b193aa14542c0d4164dd4210a335e18dfd4a2ad7000000000000000000000000ed5d43e6c8a45e7693714d280b5d112e92a6f7d100000000000000000000000090751c506d269d84ce17ea34eb7a79b57c8c0836000000000000000000000000873599ae32d551e6a8a4332d99a72490b9f2387c000000000000000000000000c15b616415c85cf2382f03cb159b1b4ea7ec49f6000000000000000000000000dfa35bdc34998211b4f4d452811e09fbab4fbb5900000000000000000000000000000000000000000000000000000000000000140000000000000000000000000000000000000000000000002c4d2cb1180eb4000000000000000000000000000000000000000000000000002c4d2a5ab81ed0000000000000000000000000000000000000000000000000002c4d1e4d321f50710000000000000000000000000000000000000000000000002c4cff752395b5f60000000000000000000000000000000000000000000000002c4cf8fcac0080000000000000000000000000000000000000000000000000002c4cf0bb4e0172bc0000000000000000000000000000000000000000000000002c4ca8a82c54a90b0000000000000000000000000000000000000000000000002c4ca182527419000000000000000000000000000000000000000000000000002c4c6ef1a30498000000000000000000000000000000000000000000000000002c4c48e6c47c56c00000000000000000000000000000000000000000000000002c4c43168b0c00000000000000000000000000000000000000000000000000002c4c318dcd19aa000000000000000000000000000000000000000000000000002c4c1eb7a54d64000000000000000000000000000000000000000000000000002c4c0e6455edb8000000000000000000000000000000000000000000000000002c4bf833803362000000000000000000000000000000000000000000000000002c4bf7310f1236350000000000000000000000000000000000000000000000002c4ba0b749d0ac000000000000000000000000000000000000000000000000002c4b981c5ab72b4b0000000000000000000000000000000000000000000000002c4b847785a5a8e40000000000000000000000000000000000000000000000002c4b50e16a18c400",
            "debugEnable": true,
            "errorInfo": "",
            "eventCount": 20,
            "feeRecipient": "0xea674fdde714fd979de3edf0f56aa9716b898ec8",
            "formatValue": "0",
            "gasLimit": 697793,
            "gasPrice": "1.01",
            "gasUsed": 693483,
            "intTxnCount": 20,
            "internalRevert": false,
            "internalRevertMessage": "",
            "isContractCreation": false,
            "isFlashloan": false,
            "maxFee": "",
            "nonce": 3176,
            "overwritedBlockNumber": -1,
            "priorityFee": "",
            "receiver": "0xe5ccfca59acd6a3dea18a97a8d12a1fc5be09b13",
            "revertMessage": "",
            "sender": "0xe1fec2e242d34ec3dcb2045d219ca4af3b271d1e",
            "simulationEnable": true,
            "sourceTxnHash": "0xad8d52267bd2e3abe8a6892478f499abd00df17edaba10e941bf46514fef18e7",
            "status": true,
            "timestamp": "2019-10-04T11:25:22Z",
            "transactionFee": "0.00070041783",
            "txnHash": "0xad8d52267bd2e3abe8a6892478f499abd00df17edaba10e941bf46514fef18e7",
            "txnIndex": 68,
            "type": 0,
            "value": "0"
        },
        "fund_flow": [
            {
                "amount": "3.19225685",
                "from": "0xe5ccfca59acd6a3dea18a97a8d12a1fc5be09b13",
                "id": 1,
                "isERC1155": false,
                "isERC721": false,
                "isReverted": false,
                "order": 1,
                "to": "0xb4c4f54d1732f2bafa0f7166a7e8a994c31ce533",
                "token": "0xbddab785b306bcd9fb056da189615cc8ece1d823"
            },
            {
                "amount": "3.19225428",
                "from": "0xe5ccfca59acd6a3dea18a97a8d12a1fc5be09b13",
                "id": 2,
                "isERC1155": false,
                "isERC721": false,
                "isReverted": false,
                "order": 2,
                "to": "0x0dff620961b63565e3d63241cee3f4e83c341372",
                "token": "0xbddab785b306bcd9fb056da189615cc8ece1d823"
            },
            {
                "amount": "3.192241027777777777",
                "from": "0xe5ccfca59acd6a3dea18a97a8d12a1fc5be09b13",
                "id": 3,
                "isERC1155": false,
                "isERC721": false,
                "isReverted": false,
                "order": 3,
                "to": "0x079f5569628968194af03213fd0d821857c9a050",
                "token": "0xbddab785b306bcd9fb056da189615cc8ece1d823"
            },
            {
                "amount": "3.192207114472109558",
                "from": "0xe5ccfca59acd6a3dea18a97a8d12a1fc5be09b13",
                "id": 4,
                "isERC1155": false,
                "isERC721": false,
                "isReverted": false,
                "order": 4,
                "to": "0x717c0570d8d0805fe894445b861206f4d0270c6b",
                "token": "0xbddab785b306bcd9fb056da189615cc8ece1d823"
            },
            {
                "amount": "3.1922",
                "from": "0xe5ccfca59acd6a3dea18a97a8d12a1fc5be09b13",
                "id": 5,
                "isERC1155": false,
                "isERC721": false,
                "isReverted": false,
                "order": 5,
                "to": "0x1904bd287318efac4b561392a316acf3112a6915",
                "token": "0xbddab785b306bcd9fb056da189615cc8ece1d823"
            },
            {
                "amount": "3.192190923157107388",
                "from": "0xe5ccfca59acd6a3dea18a97a8d12a1fc5be09b13",
                "id": 6,
                "isERC1155": false,
                "isERC721": false,
                "isReverted": false,
                "order": 6,
                "to": "0xe3951827b9c13a8166f1798639e255848e0caa60",
                "token": "0xbddab785b306bcd9fb056da189615cc8ece1d823"
            },
            {
                "amount": "3.192111676150556939",
                "from": "0xe5ccfca59acd6a3dea18a97a8d12a1fc5be09b13",
                "id": 7,
                "isERC1155": false,
                "isERC721": false,
                "isReverted": false,
                "order": 7,
                "to": "0xfab6697ccdd3e3f8df3c613ad195bea25b4e3e97",
                "token": "0xbddab785b306bcd9fb056da189615cc8ece1d823"
            },
            {
                "amount": "3.192103816999999744",
                "from": "0xe5ccfca59acd6a3dea18a97a8d12a1fc5be09b13",
                "id": 8,
                "isERC1155": false,
                "isERC721": false,
                "isReverted": false,
                "order": 8,
                "to": "0x3546259cbfcd2a1aef7751894facdeb1716d7e5b",
                "token": "0xbddab785b306bcd9fb056da189615cc8ece1d823"
            },
            {
                "amount": "3.19204822",
                "from": "0xe5ccfca59acd6a3dea18a97a8d12a1fc5be09b13",
                "id": 9,
                "isERC1155": false,
                "isERC721": false,
                "isReverted": false,
                "order": 9,
                "to": "0x117647f3f41d30da66f74a543a835df3daa9c33a",
                "token": "0xbddab785b306bcd9fb056da189615cc8ece1d823"
            },
            {
                "amount": "3.192006391875",
                "from": "0xe5ccfca59acd6a3dea18a97a8d12a1fc5be09b13",
                "id": 10,
                "isERC1155": false,
                "isERC721": false,
                "isReverted": false,
                "order": 10,
                "to": "0xdc1ce3c608273a19b39495afa9edc70b1b0ce523",
                "token": "0xbddab785b306bcd9fb056da189615cc8ece1d823"
            },
            {
                "amount": "3.192",
                "from": "0xe5ccfca59acd6a3dea18a97a8d12a1fc5be09b13",
                "id": 11,
                "isERC1155": false,
                "isERC721": false,
                "isReverted": false,
                "order": 11,
                "to": "0xef91d4ba5241e8c069432474c4dd8fd1ebd35e38",
                "token": "0xbddab785b306bcd9fb056da189615cc8ece1d823"
            },
            {
                "amount": "3.191980721",
                "from": "0xe5ccfca59acd6a3dea18a97a8d12a1fc5be09b13",
                "id": 12,
                "isERC1155": false,
                "isERC721": false,
                "isReverted": false,
                "order": 12,
                "to": "0xc8965631d1223cefc60a6aadbb3488e15ad74254",
                "token": "0xbddab785b306bcd9fb056da189615cc8ece1d823"
            },
            {
                "amount": "3.19196001",
                "from": "0xe5ccfca59acd6a3dea18a97a8d12a1fc5be09b13",
                "id": 13,
                "isERC1155": false,
                "isERC721": false,
                "isReverted": false,
                "order": 13,
                "to": "0x9ab2b1bae4e26502795912cf89855b3da7fd4957",
                "token": "0xbddab785b306bcd9fb056da189615cc8ece1d823"
            },
            {
                "amount": "3.19194206",
                "from": "0xe5ccfca59acd6a3dea18a97a8d12a1fc5be09b13",
                "id": 14,
                "isERC1155": false,
                "isERC721": false,
                "isReverted": false,
                "order": 14,
                "to": "0x16df1f005aee6b00c74f12dbe932afa7922fd08b",
                "token": "0xbddab785b306bcd9fb056da189615cc8ece1d823"
            },
            {
                "amount": "3.191917661",
                "from": "0xe5ccfca59acd6a3dea18a97a8d12a1fc5be09b13",
                "id": 15,
                "isERC1155": false,
                "isERC721": false,
                "isReverted": false,
                "order": 15,
                "to": "0xb193aa14542c0d4164dd4210a335e18dfd4a2ad7",
                "token": "0xbddab785b306bcd9fb056da189615cc8ece1d823"
            },
            {
                "amount": "3.191916551000438325",
                "from": "0xe5ccfca59acd6a3dea18a97a8d12a1fc5be09b13",
                "id": 16,
                "isERC1155": false,
                "isERC721": false,
                "isReverted": false,
                "order": 16,
                "to": "0xed5d43e6c8a45e7693714d280b5d112e92a6f7d1",
                "token": "0xbddab785b306bcd9fb056da189615cc8ece1d823"
            },
            {
                "amount": "3.19182147",
                "from": "0xe5ccfca59acd6a3dea18a97a8d12a1fc5be09b13",
                "id": 17,
                "isERC1155": false,
                "isERC721": false,
                "isReverted": false,
                "order": 17,
                "to": "0x90751c506d269d84ce17ea34eb7a79b57c8c0836",
                "token": "0xbddab785b306bcd9fb056da189615cc8ece1d823"
            },
            {
                "amount": "3.191812008470588235",
                "from": "0xe5ccfca59acd6a3dea18a97a8d12a1fc5be09b13",
                "id": 18,
                "isERC1155": false,
                "isERC721": false,
                "isReverted": false,
                "order": 18,
                "to": "0x873599ae32d551e6a8a4332d99a72490b9f2387c",
                "token": "0xbddab785b306bcd9fb056da189615cc8ece1d823"
            },
            {
                "amount": "3.191790409800329444",
                "from": "0xe5ccfca59acd6a3dea18a97a8d12a1fc5be09b13",
                "id": 19,
                "isERC1155": false,
                "isERC721": false,
                "isReverted": false,
                "order": 19,
                "to": "0xc15b616415c85cf2382f03cb159b1b4ea7ec49f6",
                "token": "0xbddab785b306bcd9fb056da189615cc8ece1d823"
            },
            {
                "amount": "3.19173369",
                "from": "0xe5ccfca59acd6a3dea18a97a8d12a1fc5be09b13",
                "id": 20,
                "isERC1155": false,
                "isERC721": false,
                "isReverted": false,
                "order": 20,
                "to": "0xdfa35bdc34998211b4f4d452811e09fbab4fbb59",
                "token": "0xbddab785b306bcd9fb056da189615cc8ece1d823"
            }
        ],
        "token_infos": [
            {
                "address": "0xbddab785b306bcd9fb056da189615cc8ece1d823",
                "decimals": 18
            },
            {
                "address": "0xc02aaa39b223fe8d0a0e5c4f27ead9083c756cc2",
                "decimals": 18
            },
            {
                "address": "0xeeeeeeeeeeeeeeeeeeeeeeeeeeeeeeeeeeeeeeee",
                "decimals": 18
            }
        ]
    },
    "address_label": {
        "labels": [
            {
                "address": "0x0000000000000000000000000000000000000004",
                "label": "Precompiled"
            },
            {
                "address": "0xeeeeeeeeeeeeeeeeeeeeeeeeeeeeeeeeeeeeeeee",
                "label": "Ether"
            },
            {
                "address": "0xbddab785b306bcd9fb056da189615cc8ece1d823",
                "label": "Ebakus Token"
            },
            {
                "address": "0xe5ccfca59acd6a3dea18a97a8d12a1fc5be09b13",
                "label": "EbakusDistribution"
            },
            {
                "address": "0x0000000000000000000000000000000000000001",
                "label": "Precompiled"
            },
            {
                "address": "0x0000000000000000000000000000000000000002",
                "label": "Precompiled"
            },
            {
                "address": "0x0000000000000000000000000000000000000003",
                "label": "Precompiled"
            }
        ]
    },
    "trace": {
        "accountLabels": null,
        "dataMap": {
            "-1": {
                "invocation": {
                    "address": "0xe1fec2e242d34ec3dcb2045d219ca4af3b271d1e",
                    "callData": "",
                    "decodedMethod": null,
                    "errorInfo": "",
                    "fromAddress": "",
                    "gasUsed": 0,
                    "id": -1,
                    "methodDecoded": false,
                    "operation": "",
                    "output": "",
                    "revert": false,
                    "revertMessage": "",
                    "selector": "",
                    "status": false,
                    "value": ""
                },
                "nodeType": 0
            },
            "0": {
                "invocation": {
                    "address": "0xe5ccfca59acd6a3dea18a97a8d12a1fc5be09b13",
                    "callData": "0x000000000000000000000000000000000000000000000000000000000000004000000000000000000000000000000000000000000000000000000000000002e00000000000000000000000000000000000000000000000000000000000000014000000000000000000000000b4c4f54d1732f2bafa0f7166a7e8a994c31ce5330000000000000000000000000dff620961b63565e3d63241cee3f4e83c341372000000000000000000000000079f5569628968194af03213fd0d821857c9a050000000000000000000000000717c0570d8d0805fe894445b861206f4d0270c6b0000000000000000000000001904bd287318efac4b561392a316acf3112a6915000000000000000000000000e3951827b9c13a8166f1798639e255848e0caa60000000000000000000000000fab6697ccdd3e3f8df3c613ad195bea25b4e3e970000000000000000000000003546259cbfcd2a1aef7751894facdeb1716d7e5b000000000000000000000000117647f3f41d30da66f74a543a835df3daa9c33a000000000000000000000000dc1ce3c608273a19b39495afa9edc70b1b0ce523000000000000000000000000ef91d4ba5241e8c069432474c4dd8fd1ebd35e38000000000000000000000000c8965631d1223cefc60a6aadbb3488e15ad742540000000000000000000000009ab2b1bae4e26502795912cf89855b3da7fd495700000000000000000000000016df1f005aee6b00c74f12dbe932afa7922fd08b000000000000000000000000b193aa14542c0d4164dd4210a335e18dfd4a2ad7000000000000000000000000ed5d43e6c8a45e7693714d280b5d112e92a6f7d100000000000000000000000090751c506d269d84ce17ea34eb7a79b57c8c0836000000000000000000000000873599ae32d551e6a8a4332d99a72490b9f2387c000000000000000000000000c15b616415c85cf2382f03cb159b1b4ea7ec49f6000000000000000000000000dfa35bdc34998211b4f4d452811e09fbab4fbb5900000000000000000000000000000000000000000000000000000000000000140000000000000000000000000000000000000000000000002c4d2cb1180eb4000000000000000000000000000000000000000000000000002c4d2a5ab81ed0000000000000000000000000000000000000000000000000002c4d1e4d321f50710000000000000000000000000000000000000000000000002c4cff752395b5f60000000000000000000000000000000000000000000000002c4cf8fcac0080000000000000000000000000000000000000000000000000002c4cf0bb4e0172bc0000000000000000000000000000000000000000000000002c4ca8a82c54a90b0000000000000000000000000000000000000000000000002c4ca182527419000000000000000000000000000000000000000000000000002c4c6ef1a30498000000000000000000000000000000000000000000000000002c4c48e6c47c56c00000000000000000000000000000000000000000000000002c4c43168b0c00000000000000000000000000000000000000000000000000002c4c318dcd19aa000000000000000000000000000000000000000000000000002c4c1eb7a54d64000000000000000000000000000000000000000000000000002c4c0e6455edb8000000000000000000000000000000000000000000000000002c4bf833803362000000000000000000000000000000000000000000000000002c4bf7310f1236350000000000000000000000000000000000000000000000002c4ba0b749d0ac000000000000000000000000000000000000000000000000002c4b981c5ab72b4b0000000000000000000000000000000000000000000000002c4b847785a5a8e40000000000000000000000000000000000000000000000002c4b50e16a18c400",
                    "decodedMethod": {
                        "callParams": [
                            {
                                "name": "_recipients",
                                "type": "address[]",
                                "value": [
                                    "0xb4c4f54d1732f2bafa0f7166a7e8a994c31ce533",
                                    "0x0dff620961b63565e3d63241cee3f4e83c341372",
                                    "0x079f5569628968194af03213fd0d821857c9a050",
                                    "0x717c0570d8d0805fe894445b861206f4d0270c6b",
                                    "0x1904bd287318efac4b561392a316acf3112a6915",
                                    "0xe3951827b9c13a8166f1798639e255848e0caa60",
                                    "0xfab6697ccdd3e3f8df3c613ad195bea25b4e3e97",
                                    "0x3546259cbfcd2a1aef7751894facdeb1716d7e5b",
                                    "0x117647f3f41d30da66f74a543a835df3daa9c33a",
                                    "0xdc1ce3c608273a19b39495afa9edc70b1b0ce523",
                                    "0xef91d4ba5241e8c069432474c4dd8fd1ebd35e38",
                                    "0xc8965631d1223cefc60a6aadbb3488e15ad74254",
                                    "0x9ab2b1bae4e26502795912cf89855b3da7fd4957",
                                    "0x16df1f005aee6b00c74f12dbe932afa7922fd08b",
                                    "0xb193aa14542c0d4164dd4210a335e18dfd4a2ad7",
                                    "0xed5d43e6c8a45e7693714d280b5d112e92a6f7d1",
                                    "0x90751c506d269d84ce17ea34eb7a79b57c8c0836",
                                    "0x873599ae32d551e6a8a4332d99a72490b9f2387c",
                                    "0xc15b616415c85cf2382f03cb159b1b4ea7ec49f6",
                                    "0xdfa35bdc34998211b4f4d452811e09fbab4fbb59"
                                ]
                            },
                            {
                                "name": "_amounts",
                                "type": "uint256[]",
                                "value": [
                                    "3,192,256,850,000,000,000",
                                    "3,192,254,280,000,000,000",
                                    "3,192,241,027,777,777,777",
                                    "3,192,207,114,472,109,558",
                                    "3,192,200,000,000,000,000",
                                    "3,192,190,923,157,107,388",
                                    "3,192,111,676,150,556,939",
                                    "3,192,103,816,999,999,744",
                                    "3,192,048,220,000,000,000",
                                    "3,192,006,391,875,000,000",
                                    "3,192,000,000,000,000,000",
                                    "3,191,980,721,000,000,000",
                                    "3,191,960,010,000,000,000",
                                    "3,191,942,060,000,000,000",
                                    "3,191,917,661,000,000,000",
                                    "3,191,916,551,000,438,325",
                                    "3,191,821,470,000,000,000",
                                    "3,191,812,008,470,588,235",
                                    "3,191,790,409,800,329,444",
                                    "3,191,733,690,000,000,000"
                                ]
                            }
                        ],
                        "constructorArguments": "",
                        "name": "airdropTokens",
                        "returnParams": [],
                        "signature": "airdropTokens(address[],uint256[])"
                    },
                    "errorInfo": "",
                    "fromAddress": "0xe1fec2e242d34ec3dcb2045d219ca4af3b271d1e",
                    "gasUsed": 693483,
                    "id": 0,
                    "methodDecoded": true,
                    "operation": "CALL",
                    "output": "",
                    "revert": false,
                    "revertMessage": "",
                    "selector": "0x706f6937",
                    "status": true,
                    "value": "0"
                },
                "nodeType": 0
            },
            "1": {
                "invocation": {
                    "address": "0xbddab785b306bcd9fb056da189615cc8ece1d823",
                    "callData": "0x000000000000000000000000b4c4f54d1732f2bafa0f7166a7e8a994c31ce5330000000000000000000000000000000000000000000000002c4d2cb1180eb400",
                    "decodedMethod": {
                        "callParams": [
                            {
                                "name": "to",
                                "type": "address",
                                "value": "0xb4c4f54d1732f2bafa0f7166a7e8a994c31ce533"
                            },
                            {
                                "decimalAvailable": true,
                                "name": "value",
                                "type": "uint256",
                                "value": "3,192,256,850,000,000,000"
                            }
                        ],
                        "constructorArguments": "",
                        "name": "transfer",
                        "returnParams": [
                            {
                                "name": "",
                                "type": "bool",
                                "value": true
                            }
                        ],
                        "signature": "transfer(address,uint256)"
                    },
                    "errorInfo": "",
                    "fromAddress": "0xe5ccfca59acd6a3dea18a97a8d12a1fc5be09b13",
                    "gasUsed": 29168,
                    "id": 1,
                    "methodDecoded": true,
                    "operation": "CALL",
                    "output": "0x0000000000000000000000000000000000000000000000000000000000000001",
                    "revert": false,
                    "revertMessage": "",
                    "selector": "0xa9059cbb",
                    "status": true,
                    "value": "0"
                },
                "nodeType": 0
            },
            "10": {
                "event": {
                    "contract": "0xbddab785b306bcd9fb056da189615cc8ece1d823",
                    "decodedLog": {
                        "name": "Transfer",
                        "params": [
                            {
                                "name": "from",
                                "type": "address",
                                "value": "0xe5ccfca59acd6a3dea18a97a8d12a1fc5be09b13"
                            },
                            {
                                "name": "to",
                                "type": "address",
                                "value": "0x1904bd287318efac4b561392a316acf3112a6915"
                            },
                            {
                                "decimalAvailable": true,
                                "name": "value",
                                "type": "uint256",
                                "value": "3,192,200,000,000,000,000"
                            }
                        ],
                        "signature": "Transfer(address,address,uint256)"
                    },
                    "id": 10,
                    "logData": "0x0000000000000000000000000000000000000000000000002c4cf8fcac008000",
                    "logDecoded": true,
                    "operation": "EVENT",
                    "revert": false,
                    "status": true,
                    "topics": [
                        "0xddf252ad1be2c89b69c2b068fc378daa952ba7f163c4a11628f55a4df523b3ef",
                        "0x000000000000000000000000e5ccfca59acd6a3dea18a97a8d12a1fc5be09b13",
                        "0x0000000000000000000000001904bd287318efac4b561392a316acf3112a6915"
                    ]
                },
                "nodeType": 1
            },
            "11": {
                "invocation": {
                    "address": "0xbddab785b306bcd9fb056da189615cc8ece1d823",
                    "callData": "0x000000000000000000000000e3951827b9c13a8166f1798639e255848e0caa600000000000000000000000000000000000000000000000002c4cf0bb4e0172bc",
                    "decodedMethod": {
                        "callParams": [
                            {
                                "name": "to",
                                "type": "address",
                                "value": "0xe3951827b9c13a8166f1798639e255848e0caa60"
                            },
                            {
                                "decimalAvailable": true,
                                "name": "value",
                                "type": "uint256",
                                "value": "3,192,190,923,157,107,388"
                            }
                        ],
                        "constructorArguments": "",
                        "name": "transfer",
                        "returnParams": [
                            {
                                "name": "",
                                "type": "bool",
                                "value": true
                            }
                        ],
                        "signature": "transfer(address,uint256)"
                    },
                    "errorInfo": "",
                    "fromAddress": "0xe5ccfca59acd6a3dea18a97a8d12a1fc5be09b13",
                    "gasUsed": 29168,
                    "id": 11,
                    "methodDecoded": true,
                    "operation": "CALL",
                    "output": "0x0000000000000000000000000000000000000000000000000000000000000001",
                    "revert": false,
                    "revertMessage": "",
                    "selector": "0xa9059cbb",
                    "status": true,
                    "value": "0"
                },
                "nodeType": 0
            },
            "12": {
                "event": {
                    "contract": "0xbddab785b306bcd9fb056da189615cc8ece1d823",
                    "decodedLog": {
                        "name": "Transfer",
                        "params": [
                            {
                                "name": "from",
                                "type": "address",
                                "value": "0xe5ccfca59acd6a3dea18a97a8d12a1fc5be09b13"
                            },
                            {
                                "name": "to",
                                "type": "address",
                                "value": "0xe3951827b9c13a8166f1798639e255848e0caa60"
                            },
                            {
                                "decimalAvailable": true,
                                "name": "value",
                                "type": "uint256",
                                "value": "3,192,190,923,157,107,388"
                            }
                        ],
                        "signature": "Transfer(address,address,uint256)"
                    },
                    "id": 12,
                    "logData": "0x0000000000000000000000000000000000000000000000002c4cf0bb4e0172bc",
                    "logDecoded": true,
                    "operation": "EVENT",
                    "revert": false,
                    "status": true,
                    "topics": [
                        "0xddf252ad1be2c89b69c2b068fc378daa952ba7f163c4a11628f55a4df523b3ef",
                        "0x000000000000000000000000e5ccfca59acd6a3dea18a97a8d12a1fc5be09b13",
                        "0x000000000000000000000000e3951827b9c13a8166f1798639e255848e0caa60"
                    ]
                },
                "nodeType": 1
            },
            "13": {
                "invocation": {
                    "address": "0xbddab785b306bcd9fb056da189615cc8ece1d823",
                    "callData": "0x000000000000000000000000fab6697ccdd3e3f8df3c613ad195bea25b4e3e970000000000000000000000000000000000000000000000002c4ca8a82c54a90b",
                    "decodedMethod": {
                        "callParams": [
                            {
                                "name": "to",
                                "type": "address",
                                "value": "0xfab6697ccdd3e3f8df3c613ad195bea25b4e3e97"
                            },
                            {
                                "decimalAvailable": true,
                                "name": "value",
                                "type": "uint256",
                                "value": "3,192,111,676,150,556,939"
                            }
                        ],
                        "constructorArguments": "",
                        "name": "transfer",
                        "returnParams": [
                            {
                                "name": "",
                                "type": "bool",
                                "value": true
                            }
                        ],
                        "signature": "transfer(address,uint256)"
                    },
                    "errorInfo": "",
                    "fromAddress": "0xe5ccfca59acd6a3dea18a97a8d12a1fc5be09b13",
                    "gasUsed": 29168,
                    "id": 13,
                    "methodDecoded": true,
                    "operation": "CALL",
                    "output": "0x0000000000000000000000000000000000000000000000000000000000000001",
                    "revert": false,
                    "revertMessage": "",
                    "selector": "0xa9059cbb",
                    "status": true,
                    "value": "0"
                },
                "nodeType": 0
            },
            "14": {
                "event": {
                    "contract": "0xbddab785b306bcd9fb056da189615cc8ece1d823",
                    "decodedLog": {
                        "name": "Transfer",
                        "params": [
                            {
                                "name": "from",
                                "type": "address",
                                "value": "0xe5ccfca59acd6a3dea18a97a8d12a1fc5be09b13"
                            },
                            {
                                "name": "to",
                                "type": "address",
                                "value": "0xfab6697ccdd3e3f8df3c613ad195bea25b4e3e97"
                            },
                            {
                                "decimalAvailable": true,
                                "name": "value",
                                "type": "uint256",
                                "value": "3,192,111,676,150,556,939"
                            }
                        ],
                        "signature": "Transfer(address,address,uint256)"
                    },
                    "id": 14,
                    "logData": "0x0000000000000000000000000000000000000000000000002c4ca8a82c54a90b",
                    "logDecoded": true,
                    "operation": "EVENT",
                    "revert": false,
                    "status": true,
                    "topics": [
                        "0xddf252ad1be2c89b69c2b068fc378daa952ba7f163c4a11628f55a4df523b3ef",
                        "0x000000000000000000000000e5ccfca59acd6a3dea18a97a8d12a1fc5be09b13",
                        "0x000000000000000000000000fab6697ccdd3e3f8df3c613ad195bea25b4e3e97"
                    ]
                },
                "nodeType": 1
            },
            "15": {
                "invocation": {
                    "address": "0xbddab785b306bcd9fb056da189615cc8ece1d823",
                    "callData": "0x0000000000000000000000003546259cbfcd2a1aef7751894facdeb1716d7e5b0000000000000000000000000000000000000000000000002c4ca18252741900",
                    "decodedMethod": {
                        "callParams": [
                            {
                                "name": "to",
                                "type": "address",
                                "value": "0x3546259cbfcd2a1aef7751894facdeb1716d7e5b"
                            },
                            {
                                "decimalAvailable": true,
                                "name": "value",
                                "type": "uint256",
                                "value": "3,192,103,816,999,999,744"
                            }
                        ],
                        "constructorArguments": "",
                        "name": "transfer",
                        "returnParams": [
                            {
                                "name": "",
                                "type": "bool",
                                "value": true
                            }
                        ],
                        "signature": "transfer(address,uint256)"
                    },
                    "errorInfo": "",
                    "fromAddress": "0xe5ccfca59acd6a3dea18a97a8d12a1fc5be09b13",
                    "gasUsed": 29168,
                    "id": 15,
                    "methodDecoded": true,
                    "operation": "CALL",
                    "output": "0x0000000000000000000000000000000000000000000000000000000000000001",
                    "revert": false,
                    "revertMessage": "",
                    "selector": "0xa9059cbb",
                    "status": true,
                    "value": "0"
                },
                "nodeType": 0
            },
            "16": {
                "event": {
                    "contract": "0xbddab785b306bcd9fb056da189615cc8ece1d823",
                    "decodedLog": {
                        "name": "Transfer",
                        "params": [
                            {
                                "name": "from",
                                "type": "address",
                                "value": "0xe5ccfca59acd6a3dea18a97a8d12a1fc5be09b13"
                            },
                            {
                                "name": "to",
                                "type": "address",
                                "value": "0x3546259cbfcd2a1aef7751894facdeb1716d7e5b"
                            },
                            {
                                "decimalAvailable": true,
                                "name": "value",
                                "type": "uint256",
                                "value": "3,192,103,816,999,999,744"
                            }
                        ],
                        "signature": "Transfer(address,address,uint256)"
                    },
                    "id": 16,
                    "logData": "0x0000000000000000000000000000000000000000000000002c4ca18252741900",
                    "logDecoded": true,
                    "operation": "EVENT",
                    "revert": false,
                    "status": true,
                    "topics": [
                        "0xddf252ad1be2c89b69c2b068fc378daa952ba7f163c4a11628f55a4df523b3ef",
                        "0x000000000000000000000000e5ccfca59acd6a3dea18a97a8d12a1fc5be09b13",
                        "0x0000000000000000000000003546259cbfcd2a1aef7751894facdeb1716d7e5b"
                    ]
                },
                "nodeType": 1
            },
            "17": {
                "invocation": {
                    "address": "0xbddab785b306bcd9fb056da189615cc8ece1d823",
                    "callData": "0x000000000000000000000000117647f3f41d30da66f74a543a835df3daa9c33a0000000000000000000000000000000000000000000000002c4c6ef1a3049800",
                    "decodedMethod": {
                        "callParams": [
                            {
                                "name": "to",
                                "type": "address",
                                "value": "0x117647f3f41d30da66f74a543a835df3daa9c33a"
                            },
                            {
                                "decimalAvailable": true,
                                "name": "value",
                                "type": "uint256",
                                "value": "3,192,048,220,000,000,000"
                            }
                        ],
                        "constructorArguments": "",
                        "name": "transfer",
                        "returnParams": [
                            {
                                "name": "",
                                "type": "bool",
                                "value": true
                            }
                        ],
                        "signature": "transfer(address,uint256)"
                    },
                    "errorInfo": "",
                    "fromAddress": "0xe5ccfca59acd6a3dea18a97a8d12a1fc5be09b13",
                    "gasUsed": 29168,
                    "id": 17,
                    "methodDecoded": true,
                    "operation": "CALL",
                    "output": "0x0000000000000000000000000000000000000000000000000000000000000001",
                    "revert": false,
                    "revertMessage": "",
                    "selector": "0xa9059cbb",
                    "status": true,
                    "value": "0"
                },
                "nodeType": 0
            },
            "18": {
                "event": {
                    "contract": "0xbddab785b306bcd9fb056da189615cc8ece1d823",
                    "decodedLog": {
                        "name": "Transfer",
                        "params": [
                            {
                                "name": "from",
                                "type": "address",
                                "value": "0xe5ccfca59acd6a3dea18a97a8d12a1fc5be09b13"
                            },
                            {
                                "name": "to",
                                "type": "address",
                                "value": "0x117647f3f41d30da66f74a543a835df3daa9c33a"
                            },
                            {
                                "decimalAvailable": true,
                                "name": "value",
                                "type": "uint256",
                                "value": "3,192,048,220,000,000,000"
                            }
                        ],
                        "signature": "Transfer(address,address,uint256)"
                    },
                    "id": 18,
                    "logData": "0x0000000000000000000000000000000000000000000000002c4c6ef1a3049800",
                    "logDecoded": true,
                    "operation": "EVENT",
                    "revert": false,
                    "status": true,
                    "topics": [
                        "0xddf252ad1be2c89b69c2b068fc378daa952ba7f163c4a11628f55a4df523b3ef",
                        "0x000000000000000000000000e5ccfca59acd6a3dea18a97a8d12a1fc5be09b13",
                        "0x000000000000000000000000117647f3f41d30da66f74a543a835df3daa9c33a"
                    ]
                },
                "nodeType": 1
            },
            "19": {
                "invocation": {
                    "address": "0xbddab785b306bcd9fb056da189615cc8ece1d823",
                    "callData": "0x000000000000000000000000dc1ce3c608273a19b39495afa9edc70b1b0ce5230000000000000000000000000000000000000000000000002c4c48e6c47c56c0",
                    "decodedMethod": {
                        "callParams": [
                            {
                                "name": "to",
                                "type": "address",
                                "value": "0xdc1ce3c608273a19b39495afa9edc70b1b0ce523"
                            },
                            {
                                "decimalAvailable": true,
                                "name": "value",
                                "type": "uint256",
                                "value": "3,192,006,391,875,000,000"
                            }
                        ],
                        "constructorArguments": "",
                        "name": "transfer",
                        "returnParams": [
                            {
                                "name": "",
                                "type": "bool",
                                "value": true
                            }
                        ],
                        "signature": "transfer(address,uint256)"
                    },
                    "errorInfo": "",
                    "fromAddress": "0xe5ccfca59acd6a3dea18a97a8d12a1fc5be09b13",
                    "gasUsed": 29168,
                    "id": 19,
                    "methodDecoded": true,
                    "operation": "CALL",
                    "output": "0x0000000000000000000000000000000000000000000000000000000000000001",
                    "revert": false,
                    "revertMessage": "",
                    "selector": "0xa9059cbb",
                    "status": true,
                    "value": "0"
                },
                "nodeType": 0
            },
            "2": {
                "event": {
                    "contract": "0xbddab785b306bcd9fb056da189615cc8ece1d823",
                    "decodedLog": {
                        "name": "Transfer",
                        "params": [
                            {
                                "name": "from",
                                "type": "address",
                                "value": "0xe5ccfca59acd6a3dea18a97a8d12a1fc5be09b13"
                            },
                            {
                                "name": "to",
                                "type": "address",
                                "value": "0xb4c4f54d1732f2bafa0f7166a7e8a994c31ce533"
                            },
                            {
                                "decimalAvailable": true,
                                "name": "value",
                                "type": "uint256",
                                "value": "3,192,256,850,000,000,000"
                            }
                        ],
                        "signature": "Transfer(address,address,uint256)"
                    },
                    "id": 2,
                    "logData": "0x0000000000000000000000000000000000000000000000002c4d2cb1180eb400",
                    "logDecoded": true,
                    "operation": "EVENT",
                    "revert": false,
                    "status": true,
                    "topics": [
                        "0xddf252ad1be2c89b69c2b068fc378daa952ba7f163c4a11628f55a4df523b3ef",
                        "0x000000000000000000000000e5ccfca59acd6a3dea18a97a8d12a1fc5be09b13",
                        "0x000000000000000000000000b4c4f54d1732f2bafa0f7166a7e8a994c31ce533"
                    ]
                },
                "nodeType": 1
            },
            "20": {
                "event": {
                    "contract": "0xbddab785b306bcd9fb056da189615cc8ece1d823",
                    "decodedLog": {
                        "name": "Transfer",
                        "params": [
                            {
                                "name": "from",
                                "type": "address",
                                "value": "0xe5ccfca59acd6a3dea18a97a8d12a1fc5be09b13"
                            },
                            {
                                "name": "to",
                                "type": "address",
                                "value": "0xdc1ce3c608273a19b39495afa9edc70b1b0ce523"
                            },
                            {
                                "decimalAvailable": true,
                                "name": "value",
                                "type": "uint256",
                                "value": "3,192,006,391,875,000,000"
                            }
                        ],
                        "signature": "Transfer(address,address,uint256)"
                    },
                    "id": 20,
                    "logData": "0x0000000000000000000000000000000000000000000000002c4c48e6c47c56c0",
                    "logDecoded": true,
                    "operation": "EVENT",
                    "revert": false,
                    "status": true,
                    "topics": [
                        "0xddf252ad1be2c89b69c2b068fc378daa952ba7f163c4a11628f55a4df523b3ef",
                        "0x000000000000000000000000e5ccfca59acd6a3dea18a97a8d12a1fc5be09b13",
                        "0x000000000000000000000000dc1ce3c608273a19b39495afa9edc70b1b0ce523"
                    ]
                },
                "nodeType": 1
            },
            "21": {
                "invocation": {
                    "address": "0xbddab785b306bcd9fb056da189615cc8ece1d823",
                    "callData": "0x000000000000000000000000ef91d4ba5241e8c069432474c4dd8fd1ebd35e380000000000000000000000000000000000000000000000002c4c43168b0c0000",
                    "decodedMethod": {
                        "callParams": [
                            {
                                "name": "to",
                                "type": "address",
                                "value": "0xef91d4ba5241e8c069432474c4dd8fd1ebd35e38"
                            },
                            {
                                "decimalAvailable": true,
                                "name": "value",
                                "type": "uint256",
                                "value": "3,192,000,000,000,000,000"
                            }
                        ],
                        "constructorArguments": "",
                        "name": "transfer",
                        "returnParams": [
                            {
                                "name": "",
                                "type": "bool",
                                "value": true
                            }
                        ],
                        "signature": "transfer(address,uint256)"
                    },
                    "errorInfo": "",
                    "fromAddress": "0xe5ccfca59acd6a3dea18a97a8d12a1fc5be09b13",
                    "gasUsed": 29168,
                    "id": 21,
                    "methodDecoded": true,
                    "operation": "CALL",
                    "output": "0x0000000000000000000000000000000000000000000000000000000000000001",
                    "revert": false,
                    "revertMessage": "",
                    "selector": "0xa9059cbb",
                    "status": true,
                    "value": "0"
                },
                "nodeType": 0
            },
            "22": {
                "event": {
                    "contract": "0xbddab785b306bcd9fb056da189615cc8ece1d823",
                    "decodedLog": {
                        "name": "Transfer",
                        "params": [
                            {
                                "name": "from",
                                "type": "address",
                                "value": "0xe5ccfca59acd6a3dea18a97a8d12a1fc5be09b13"
                            },
                            {
                                "name": "to",
                                "type": "address",
                                "value": "0xef91d4ba5241e8c069432474c4dd8fd1ebd35e38"
                            },
                            {
                                "decimalAvailable": true,
                                "name": "value",
                                "type": "uint256",
                                "value": "3,192,000,000,000,000,000"
                            }
                        ],
                        "signature": "Transfer(address,address,uint256)"
                    },
                    "id": 22,
                    "logData": "0x0000000000000000000000000000000000000000000000002c4c43168b0c0000",
                    "logDecoded": true,
                    "operation": "EVENT",
                    "revert": false,
                    "status": true,
                    "topics": [
                        "0xddf252ad1be2c89b69c2b068fc378daa952ba7f163c4a11628f55a4df523b3ef",
                        "0x000000000000000000000000e5ccfca59acd6a3dea18a97a8d12a1fc5be09b13",
                        "0x000000000000000000000000ef91d4ba5241e8c069432474c4dd8fd1ebd35e38"
                    ]
                },
                "nodeType": 1
            },
            "23": {
                "invocation": {
                    "address": "0xbddab785b306bcd9fb056da189615cc8ece1d823",
                    "callData": "0x000000000000000000000000c8965631d1223cefc60a6aadbb3488e15ad742540000000000000000000000000000000000000000000000002c4c318dcd19aa00",
                    "decodedMethod": {
                        "callParams": [
                            {
                                "name": "to",
                                "type": "address",
                                "value": "0xc8965631d1223cefc60a6aadbb3488e15ad74254"
                            },
                            {
                                "decimalAvailable": true,
                                "name": "value",
                                "type": "uint256",
                                "value": "3,191,980,721,000,000,000"
                            }
                        ],
                        "constructorArguments": "",
                        "name": "transfer",
                        "returnParams": [
                            {
                                "name": "",
                                "type": "bool",
                                "value": true
                            }
                        ],
                        "signature": "transfer(address,uint256)"
                    },
                    "errorInfo": "",
                    "fromAddress": "0xe5ccfca59acd6a3dea18a97a8d12a1fc5be09b13",
                    "gasUsed": 29168,
                    "id": 23,
                    "methodDecoded": true,
                    "operation": "CALL",
                    "output": "0x0000000000000000000000000000000000000000000000000000000000000001",
                    "revert": false,
                    "revertMessage": "",
                    "selector": "0xa9059cbb",
                    "status": true,
                    "value": "0"
                },
                "nodeType": 0
            },
            "24": {
                "event": {
                    "contract": "0xbddab785b306bcd9fb056da189615cc8ece1d823",
                    "decodedLog": {
                        "name": "Transfer",
                        "params": [
                            {
                                "name": "from",
                                "type": "address",
                                "value": "0xe5ccfca59acd6a3dea18a97a8d12a1fc5be09b13"
                            },
                            {
                                "name": "to",
                                "type": "address",
                                "value": "0xc8965631d1223cefc60a6aadbb3488e15ad74254"
                            },
                            {
                                "decimalAvailable": true,
                                "name": "value",
                                "type": "uint256",
                                "value": "3,191,980,721,000,000,000"
                            }
                        ],
                        "signature": "Transfer(address,address,uint256)"
                    },
                    "id": 24,
                    "logData": "0x0000000000000000000000000000000000000000000000002c4c318dcd19aa00",
                    "logDecoded": true,
                    "operation": "EVENT",
                    "revert": false,
                    "status": true,
                    "topics": [
                        "0xddf252ad1be2c89b69c2b068fc378daa952ba7f163c4a11628f55a4df523b3ef",
                        "0x000000000000000000000000e5ccfca59acd6a3dea18a97a8d12a1fc5be09b13",
                        "0x000000000000000000000000c8965631d1223cefc60a6aadbb3488e15ad74254"
                    ]
                },
                "nodeType": 1
            },
            "25": {
                "invocation": {
                    "address": "0xbddab785b306bcd9fb056da189615cc8ece1d823",
                    "callData": "0x0000000000000000000000009ab2b1bae4e26502795912cf89855b3da7fd49570000000000000000000000000000000000000000000000002c4c1eb7a54d6400",
                    "decodedMethod": {
                        "callParams": [
                            {
                                "name": "to",
                                "type": "address",
                                "value": "0x9ab2b1bae4e26502795912cf89855b3da7fd4957"
                            },
                            {
                                "decimalAvailable": true,
                                "name": "value",
                                "type": "uint256",
                                "value": "3,191,960,010,000,000,000"
                            }
                        ],
                        "constructorArguments": "",
                        "name": "transfer",
                        "returnParams": [
                            {
                                "name": "",
                                "type": "bool",
                                "value": true
                            }
                        ],
                        "signature": "transfer(address,uint256)"
                    },
                    "errorInfo": "",
                    "fromAddress": "0xe5ccfca59acd6a3dea18a97a8d12a1fc5be09b13",
                    "gasUsed": 29168,
                    "id": 25,
                    "methodDecoded": true,
                    "operation": "CALL",
                    "output": "0x0000000000000000000000000000000000000000000000000000000000000001",
                    "revert": false,
                    "revertMessage": "",
                    "selector": "0xa9059cbb",
                    "status": true,
                    "value": "0"
                },
                "nodeType": 0
            },
            "26": {
                "event": {
                    "contract": "0xbddab785b306bcd9fb056da189615cc8ece1d823",
                    "decodedLog": {
                        "name": "Transfer",
                        "params": [
                            {
                                "name": "from",
                                "type": "address",
                                "value": "0xe5ccfca59acd6a3dea18a97a8d12a1fc5be09b13"
                            },
                            {
                                "name": "to",
                                "type": "address",
                                "value": "0x9ab2b1bae4e26502795912cf89855b3da7fd4957"
                            },
                            {
                                "decimalAvailable": true,
                                "name": "value",
                                "type": "uint256",
                                "value": "3,191,960,010,000,000,000"
                            }
                        ],
                        "signature": "Transfer(address,address,uint256)"
                    },
                    "id": 26,
                    "logData": "0x0000000000000000000000000000000000000000000000002c4c1eb7a54d6400",
                    "logDecoded": true,
                    "operation": "EVENT",
                    "revert": false,
                    "status": true,
                    "topics": [
                        "0xddf252ad1be2c89b69c2b068fc378daa952ba7f163c4a11628f55a4df523b3ef",
                        "0x000000000000000000000000e5ccfca59acd6a3dea18a97a8d12a1fc5be09b13",
                        "0x0000000000000000000000009ab2b1bae4e26502795912cf89855b3da7fd4957"
                    ]
                },
                "nodeType": 1
            },
            "27": {
                "invocation": {
                    "address": "0xbddab785b306bcd9fb056da189615cc8ece1d823",
                    "callData": "0x00000000000000000000000016df1f005aee6b00c74f12dbe932afa7922fd08b0000000000000000000000000000000000000000000000002c4c0e6455edb800",
                    "decodedMethod": {
                        "callParams": [
                            {
                                "name": "to",
                                "type": "address",
                                "value": "0x16df1f005aee6b00c74f12dbe932afa7922fd08b"
                            },
                            {
                                "decimalAvailable": true,
                                "name": "value",
                                "type": "uint256",
                                "value": "3,191,942,060,000,000,000"
                            }
                        ],
                        "constructorArguments": "",
                        "name": "transfer",
                        "returnParams": [
                            {
                                "name": "",
                                "type": "bool",
                                "value": true
                            }
                        ],
                        "signature": "transfer(address,uint256)"
                    },
                    "errorInfo": "",
                    "fromAddress": "0xe5ccfca59acd6a3dea18a97a8d12a1fc5be09b13",
                    "gasUsed": 29168,
                    "id": 27,
                    "methodDecoded": true,
                    "operation": "CALL",
                    "output": "0x0000000000000000000000000000000000000000000000000000000000000001",
                    "revert": false,
                    "revertMessage": "",
                    "selector": "0xa9059cbb",
                    "status": true,
                    "value": "0"
                },
                "nodeType": 0
            },
            "28": {
                "event": {
                    "contract": "0xbddab785b306bcd9fb056da189615cc8ece1d823",
                    "decodedLog": {
                        "name": "Transfer",
                        "params": [
                            {
                                "name": "from",
                                "type": "address",
                                "value": "0xe5ccfca59acd6a3dea18a97a8d12a1fc5be09b13"
                            },
                            {
                                "name": "to",
                                "type": "address",
                                "value": "0x16df1f005aee6b00c74f12dbe932afa7922fd08b"
                            },
                            {
                                "decimalAvailable": true,
                                "name": "value",
                                "type": "uint256",
                                "value": "3,191,942,060,000,000,000"
                            }
                        ],
                        "signature": "Transfer(address,address,uint256)"
                    },
                    "id": 28,
                    "logData": "0x0000000000000000000000000000000000000000000000002c4c0e6455edb800",
                    "logDecoded": true,
                    "operation": "EVENT",
                    "revert": false,
                    "status": true,
                    "topics": [
                        "0xddf252ad1be2c89b69c2b068fc378daa952ba7f163c4a11628f55a4df523b3ef",
                        "0x000000000000000000000000e5ccfca59acd6a3dea18a97a8d12a1fc5be09b13",
                        "0x00000000000000000000000016df1f005aee6b00c74f12dbe932afa7922fd08b"
                    ]
                },
                "nodeType": 1
            },
            "29": {
                "invocation": {
                    "address": "0xbddab785b306bcd9fb056da189615cc8ece1d823",
                    "callData": "0x000000000000000000000000b193aa14542c0d4164dd4210a335e18dfd4a2ad70000000000000000000000000000000000000000000000002c4bf83380336200",
                    "decodedMethod": {
                        "callParams": [
                            {
                                "name": "to",
                                "type": "address",
                                "value": "0xb193aa14542c0d4164dd4210a335e18dfd4a2ad7"
                            },
                            {
                                "decimalAvailable": true,
                                "name": "value",
                                "type": "uint256",
                                "value": "3,191,917,661,000,000,000"
                            }
                        ],
                        "constructorArguments": "",
                        "name": "transfer",
                        "returnParams": [
                            {
                                "name": "",
                                "type": "bool",
                                "value": true
                            }
                        ],
                        "signature": "transfer(address,uint256)"
                    },
                    "errorInfo": "",
                    "fromAddress": "0xe5ccfca59acd6a3dea18a97a8d12a1fc5be09b13",
                    "gasUsed": 29168,
                    "id": 29,
                    "methodDecoded": true,
                    "operation": "CALL",
                    "output": "0x0000000000000000000000000000000000000000000000000000000000000001",
                    "revert": false,
                    "revertMessage": "",
                    "selector": "0xa9059cbb",
                    "status": true,
                    "value": "0"
                },
                "nodeType": 0
            },
            "3": {
                "invocation": {
                    "address": "0xbddab785b306bcd9fb056da189615cc8ece1d823",
                    "callData": "0x0000000000000000000000000dff620961b63565e3d63241cee3f4e83c3413720000000000000000000000000000000000000000000000002c4d2a5ab81ed000",
                    "decodedMethod": {
                        "callParams": [
                            {
                                "name": "to",
                                "type": "address",
                                "value": "0x0dff620961b63565e3d63241cee3f4e83c341372"
                            },
                            {
                                "decimalAvailable": true,
                                "name": "value",
                                "type": "uint256",
                                "value": "3,192,254,280,000,000,000"
                            }
                        ],
                        "constructorArguments": "",
                        "name": "transfer",
                        "returnParams": [
                            {
                                "name": "",
                                "type": "bool",
                                "value": true
                            }
                        ],
                        "signature": "transfer(address,uint256)"
                    },
                    "errorInfo": "",
                    "fromAddress": "0xe5ccfca59acd6a3dea18a97a8d12a1fc5be09b13",
                    "gasUsed": 29168,
                    "id": 3,
                    "methodDecoded": true,
                    "operation": "CALL",
                    "output": "0x0000000000000000000000000000000000000000000000000000000000000001",
                    "revert": false,
                    "revertMessage": "",
                    "selector": "0xa9059cbb",
                    "status": true,
                    "value": "0"
                },
                "nodeType": 0
            },
            "30": {
                "event": {
                    "contract": "0xbddab785b306bcd9fb056da189615cc8ece1d823",
                    "decodedLog": {
                        "name": "Transfer",
                        "params": [
                            {
                                "name": "from",
                                "type": "address",
                                "value": "0xe5ccfca59acd6a3dea18a97a8d12a1fc5be09b13"
                            },
                            {
                                "name": "to",
                                "type": "address",
                                "value": "0xb193aa14542c0d4164dd4210a335e18dfd4a2ad7"
                            },
                            {
                                "decimalAvailable": true,
                                "name": "value",
                                "type": "uint256",
                                "value": "3,191,917,661,000,000,000"
                            }
                        ],
                        "signature": "Transfer(address,address,uint256)"
                    },
                    "id": 30,
                    "logData": "0x0000000000000000000000000000000000000000000000002c4bf83380336200",
                    "logDecoded": true,
                    "operation": "EVENT",
                    "revert": false,
                    "status": true,
                    "topics": [
                        "0xddf252ad1be2c89b69c2b068fc378daa952ba7f163c4a11628f55a4df523b3ef",
                        "0x000000000000000000000000e5ccfca59acd6a3dea18a97a8d12a1fc5be09b13",
                        "0x000000000000000000000000b193aa14542c0d4164dd4210a335e18dfd4a2ad7"
                    ]
                },
                "nodeType": 1
            },
            "31": {
                "invocation": {
                    "address": "0xbddab785b306bcd9fb056da189615cc8ece1d823",
                    "callData": "0x000000000000000000000000ed5d43e6c8a45e7693714d280b5d112e92a6f7d10000000000000000000000000000000000000000000000002c4bf7310f123635",
                    "decodedMethod": {
                        "callParams": [
                            {
                                "name": "to",
                                "type": "address",
                                "value": "0xed5d43e6c8a45e7693714d280b5d112e92a6f7d1"
                            },
                            {
                                "decimalAvailable": true,
                                "name": "value",
                                "type": "uint256",
                                "value": "3,191,916,551,000,438,325"
                            }
                        ],
                        "constructorArguments": "",
                        "name": "transfer",
                        "returnParams": [
                            {
                                "name": "",
                                "type": "bool",
                                "value": true
                            }
                        ],
                        "signature": "transfer(address,uint256)"
                    },
                    "errorInfo": "",
                    "fromAddress": "0xe5ccfca59acd6a3dea18a97a8d12a1fc5be09b13",
                    "gasUsed": 29168,
                    "id": 31,
                    "methodDecoded": true,
                    "operation": "CALL",
                    "output": "0x0000000000000000000000000000000000000000000000000000000000000001",
                    "revert": false,
                    "revertMessage": "",
                    "selector": "0xa9059cbb",
                    "status": true,
                    "value": "0"
                },
                "nodeType": 0
            },
            "32": {
                "event": {
                    "contract": "0xbddab785b306bcd9fb056da189615cc8ece1d823",
                    "decodedLog": {
                        "name": "Transfer",
                        "params": [
                            {
                                "name": "from",
                                "type": "address",
                                "value": "0xe5ccfca59acd6a3dea18a97a8d12a1fc5be09b13"
                            },
                            {
                                "name": "to",
                                "type": "address",
                                "value": "0xed5d43e6c8a45e7693714d280b5d112e92a6f7d1"
                            },
                            {
                                "decimalAvailable": true,
                                "name": "value",
                                "type": "uint256",
                                "value": "3,191,916,551,000,438,325"
                            }
                        ],
                        "signature": "Transfer(address,address,uint256)"
                    },
                    "id": 32,
                    "logData": "0x0000000000000000000000000000000000000000000000002c4bf7310f123635",
                    "logDecoded": true,
                    "operation": "EVENT",
                    "revert": false,
                    "status": true,
                    "topics": [
                        "0xddf252ad1be2c89b69c2b068fc378daa952ba7f163c4a11628f55a4df523b3ef",
                        "0x000000000000000000000000e5ccfca59acd6a3dea18a97a8d12a1fc5be09b13",
                        "0x000000000000000000000000ed5d43e6c8a45e7693714d280b5d112e92a6f7d1"
                    ]
                },
                "nodeType": 1
            },
            "33": {
                "invocation": {
                    "address": "0xbddab785b306bcd9fb056da189615cc8ece1d823",
                    "callData": "0x00000000000000000000000090751c506d269d84ce17ea34eb7a79b57c8c08360000000000000000000000000000000000000000000000002c4ba0b749d0ac00",
                    "decodedMethod": {
                        "callParams": [
                            {
                                "name": "to",
                                "type": "address",
                                "value": "0x90751c506d269d84ce17ea34eb7a79b57c8c0836"
                            },
                            {
                                "decimalAvailable": true,
                                "name": "value",
                                "type": "uint256",
                                "value": "3,191,821,470,000,000,000"
                            }
                        ],
                        "constructorArguments": "",
                        "name": "transfer",
                        "returnParams": [
                            {
                                "name": "",
                                "type": "bool",
                                "value": true
                            }
                        ],
                        "signature": "transfer(address,uint256)"
                    },
                    "errorInfo": "",
                    "fromAddress": "0xe5ccfca59acd6a3dea18a97a8d12a1fc5be09b13",
                    "gasUsed": 29168,
                    "id": 33,
                    "methodDecoded": true,
                    "operation": "CALL",
                    "output": "0x0000000000000000000000000000000000000000000000000000000000000001",
                    "revert": false,
                    "revertMessage": "",
                    "selector": "0xa9059cbb",
                    "status": true,
                    "value": "0"
                },
                "nodeType": 0
            },
            "34": {
                "event": {
                    "contract": "0xbddab785b306bcd9fb056da189615cc8ece1d823",
                    "decodedLog": {
                        "name": "Transfer",
                        "params": [
                            {
                                "name": "from",
                                "type": "address",
                                "value": "0xe5ccfca59acd6a3dea18a97a8d12a1fc5be09b13"
                            },
                            {
                                "name": "to",
                                "type": "address",
                                "value": "0x90751c506d269d84ce17ea34eb7a79b57c8c0836"
                            },
                            {
                                "decimalAvailable": true,
                                "name": "value",
                                "type": "uint256",
                                "value": "3,191,821,470,000,000,000"
                            }
                        ],
                        "signature": "Transfer(address,address,uint256)"
                    },
                    "id": 34,
                    "logData": "0x0000000000000000000000000000000000000000000000002c4ba0b749d0ac00",
                    "logDecoded": true,
                    "operation": "EVENT",
                    "revert": false,
                    "status": true,
                    "topics": [
                        "0xddf252ad1be2c89b69c2b068fc378daa952ba7f163c4a11628f55a4df523b3ef",
                        "0x000000000000000000000000e5ccfca59acd6a3dea18a97a8d12a1fc5be09b13",
                        "0x00000000000000000000000090751c506d269d84ce17ea34eb7a79b57c8c0836"
                    ]
                },
                "nodeType": 1
            },
            "35": {
                "invocation": {
                    "address": "0xbddab785b306bcd9fb056da189615cc8ece1d823",
                    "callData": "0x000000000000000000000000873599ae32d551e6a8a4332d99a72490b9f2387c0000000000000000000000000000000000000000000000002c4b981c5ab72b4b",
                    "decodedMethod": {
                        "callParams": [
                            {
                                "name": "to",
                                "type": "address",
                                "value": "0x873599ae32d551e6a8a4332d99a72490b9f2387c"
                            },
                            {
                                "decimalAvailable": true,
                                "name": "value",
                                "type": "uint256",
                                "value": "3,191,812,008,470,588,235"
                            }
                        ],
                        "constructorArguments": "",
                        "name": "transfer",
                        "returnParams": [
                            {
                                "name": "",
                                "type": "bool",
                                "value": true
                            }
                        ],
                        "signature": "transfer(address,uint256)"
                    },
                    "errorInfo": "",
                    "fromAddress": "0xe5ccfca59acd6a3dea18a97a8d12a1fc5be09b13",
                    "gasUsed": 29168,
                    "id": 35,
                    "methodDecoded": true,
                    "operation": "CALL",
                    "output": "0x0000000000000000000000000000000000000000000000000000000000000001",
                    "revert": false,
                    "revertMessage": "",
                    "selector": "0xa9059cbb",
                    "status": true,
                    "value": "0"
                },
                "nodeType": 0
            },
            "36": {
                "event": {
                    "contract": "0xbddab785b306bcd9fb056da189615cc8ece1d823",
                    "decodedLog": {
                        "name": "Transfer",
                        "params": [
                            {
                                "name": "from",
                                "type": "address",
                                "value": "0xe5ccfca59acd6a3dea18a97a8d12a1fc5be09b13"
                            },
                            {
                                "name": "to",
                                "type": "address",
                                "value": "0x873599ae32d551e6a8a4332d99a72490b9f2387c"
                            },
                            {
                                "decimalAvailable": true,
                                "name": "value",
                                "type": "uint256",
                                "value": "3,191,812,008,470,588,235"
                            }
                        ],
                        "signature": "Transfer(address,address,uint256)"
                    },
                    "id": 36,
                    "logData": "0x0000000000000000000000000000000000000000000000002c4b981c5ab72b4b",
                    "logDecoded": true,
                    "operation": "EVENT",
                    "revert": false,
                    "status": true,
                    "topics": [
                        "0xddf252ad1be2c89b69c2b068fc378daa952ba7f163c4a11628f55a4df523b3ef",
                        "0x000000000000000000000000e5ccfca59acd6a3dea18a97a8d12a1fc5be09b13",
                        "0x000000000000000000000000873599ae32d551e6a8a4332d99a72490b9f2387c"
                    ]
                },
                "nodeType": 1
            },
            "37": {
                "invocation": {
                    "address": "0xbddab785b306bcd9fb056da189615cc8ece1d823",
                    "callData": "0x000000000000000000000000c15b616415c85cf2382f03cb159b1b4ea7ec49f60000000000000000000000000000000000000000000000002c4b847785a5a8e4",
                    "decodedMethod": {
                        "callParams": [
                            {
                                "name": "to",
                                "type": "address",
                                "value": "0xc15b616415c85cf2382f03cb159b1b4ea7ec49f6"
                            },
                            {
                                "decimalAvailable": true,
                                "name": "value",
                                "type": "uint256",
                                "value": "3,191,790,409,800,329,444"
                            }
                        ],
                        "constructorArguments": "",
                        "name": "transfer",
                        "returnParams": [
                            {
                                "name": "",
                                "type": "bool",
                                "value": true
                            }
                        ],
                        "signature": "transfer(address,uint256)"
                    },
                    "errorInfo": "",
                    "fromAddress": "0xe5ccfca59acd6a3dea18a97a8d12a1fc5be09b13",
                    "gasUsed": 29168,
                    "id": 37,
                    "methodDecoded": true,
                    "operation": "CALL",
                    "output": "0x0000000000000000000000000000000000000000000000000000000000000001",
                    "revert": false,
                    "revertMessage": "",
                    "selector": "0xa9059cbb",
                    "status": true,
                    "value": "0"
                },
                "nodeType": 0
            },
            "38": {
                "event": {
                    "contract": "0xbddab785b306bcd9fb056da189615cc8ece1d823",
                    "decodedLog": {
                        "name": "Transfer",
                        "params": [
                            {
                                "name": "from",
                                "type": "address",
                                "value": "0xe5ccfca59acd6a3dea18a97a8d12a1fc5be09b13"
                            },
                            {
                                "name": "to",
                                "type": "address",
                                "value": "0xc15b616415c85cf2382f03cb159b1b4ea7ec49f6"
                            },
                            {
                                "decimalAvailable": true,
                                "name": "value",
                                "type": "uint256",
                                "value": "3,191,790,409,800,329,444"
                            }
                        ],
                        "signature": "Transfer(address,address,uint256)"
                    },
                    "id": 38,
                    "logData": "0x0000000000000000000000000000000000000000000000002c4b847785a5a8e4",
                    "logDecoded": true,
                    "operation": "EVENT",
                    "revert": false,
                    "status": true,
                    "topics": [
                        "0xddf252ad1be2c89b69c2b068fc378daa952ba7f163c4a11628f55a4df523b3ef",
                        "0x000000000000000000000000e5ccfca59acd6a3dea18a97a8d12a1fc5be09b13",
                        "0x000000000000000000000000c15b616415c85cf2382f03cb159b1b4ea7ec49f6"
                    ]
                },
                "nodeType": 1
            },
            "39": {
                "invocation": {
                    "address": "0xbddab785b306bcd9fb056da189615cc8ece1d823",
                    "callData": "0x000000000000000000000000dfa35bdc34998211b4f4d452811e09fbab4fbb590000000000000000000000000000000000000000000000002c4b50e16a18c400",
                    "decodedMethod": {
                        "callParams": [
                            {
                                "name": "to",
                                "type": "address",
                                "value": "0xdfa35bdc34998211b4f4d452811e09fbab4fbb59"
                            },
                            {
                                "decimalAvailable": true,
                                "name": "value",
                                "type": "uint256",
                                "value": "3,191,733,690,000,000,000"
                            }
                        ],
                        "constructorArguments": "",
                        "name": "transfer",
                        "returnParams": [
                            {
                                "name": "",
                                "type": "bool",
                                "value": true
                            }
                        ],
                        "signature": "transfer(address,uint256)"
                    },
                    "errorInfo": "",
                    "fromAddress": "0xe5ccfca59acd6a3dea18a97a8d12a1fc5be09b13",
                    "gasUsed": 29168,
                    "id": 39,
                    "methodDecoded": true,
                    "operation": "CALL",
                    "output": "0x0000000000000000000000000000000000000000000000000000000000000001",
                    "revert": false,
                    "revertMessage": "",
                    "selector": "0xa9059cbb",
                    "status": true,
                    "value": "0"
                },
                "nodeType": 0
            },
            "4": {
                "event": {
                    "contract": "0xbddab785b306bcd9fb056da189615cc8ece1d823",
                    "decodedLog": {
                        "name": "Transfer",
                        "params": [
                            {
                                "name": "from",
                                "type": "address",
                                "value": "0xe5ccfca59acd6a3dea18a97a8d12a1fc5be09b13"
                            },
                            {
                                "name": "to",
                                "type": "address",
                                "value": "0x0dff620961b63565e3d63241cee3f4e83c341372"
                            },
                            {
                                "decimalAvailable": true,
                                "name": "value",
                                "type": "uint256",
                                "value": "3,192,254,280,000,000,000"
                            }
                        ],
                        "signature": "Transfer(address,address,uint256)"
                    },
                    "id": 4,
                    "logData": "0x0000000000000000000000000000000000000000000000002c4d2a5ab81ed000",
                    "logDecoded": true,
                    "operation": "EVENT",
                    "revert": false,
                    "status": true,
                    "topics": [
                        "0xddf252ad1be2c89b69c2b068fc378daa952ba7f163c4a11628f55a4df523b3ef",
                        "0x000000000000000000000000e5ccfca59acd6a3dea18a97a8d12a1fc5be09b13",
                        "0x0000000000000000000000000dff620961b63565e3d63241cee3f4e83c341372"
                    ]
                },
                "nodeType": 1
            },
            "40": {
                "event": {
                    "contract": "0xbddab785b306bcd9fb056da189615cc8ece1d823",
                    "decodedLog": {
                        "name": "Transfer",
                        "params": [
                            {
                                "name": "from",
                                "type": "address",
                                "value": "0xe5ccfca59acd6a3dea18a97a8d12a1fc5be09b13"
                            },
                            {
                                "name": "to",
                                "type": "address",
                                "value": "0xdfa35bdc34998211b4f4d452811e09fbab4fbb59"
                            },
                            {
                                "decimalAvailable": true,
                                "name": "value",
                                "type": "uint256",
                                "value": "3,191,733,690,000,000,000"
                            }
                        ],
                        "signature": "Transfer(address,address,uint256)"
                    },
                    "id": 40,
                    "logData": "0x0000000000000000000000000000000000000000000000002c4b50e16a18c400",
                    "logDecoded": true,
                    "operation": "EVENT",
                    "revert": false,
                    "status": true,
                    "topics": [
                        "0xddf252ad1be2c89b69c2b068fc378daa952ba7f163c4a11628f55a4df523b3ef",
                        "0x000000000000000000000000e5ccfca59acd6a3dea18a97a8d12a1fc5be09b13",
                        "0x000000000000000000000000dfa35bdc34998211b4f4d452811e09fbab4fbb59"
                    ]
                },
                "nodeType": 1
            },
            "5": {
                "invocation": {
                    "address": "0xbddab785b306bcd9fb056da189615cc8ece1d823",
                    "callData": "0x000000000000000000000000079f5569628968194af03213fd0d821857c9a0500000000000000000000000000000000000000000000000002c4d1e4d321f5071",
                    "decodedMethod": {
                        "callParams": [
                            {
                                "name": "to",
                                "type": "address",
                                "value": "0x079f5569628968194af03213fd0d821857c9a050"
                            },
                            {
                                "decimalAvailable": true,
                                "name": "value",
                                "type": "uint256",
                                "value": "3,192,241,027,777,777,777"
                            }
                        ],
                        "constructorArguments": "",
                        "name": "transfer",
                        "returnParams": [
                            {
                                "name": "",
                                "type": "bool",
                                "value": true
                            }
                        ],
                        "signature": "transfer(address,uint256)"
                    },
                    "errorInfo": "",
                    "fromAddress": "0xe5ccfca59acd6a3dea18a97a8d12a1fc5be09b13",
                    "gasUsed": 29168,
                    "id": 5,
                    "methodDecoded": true,
                    "operation": "CALL",
                    "output": "0x0000000000000000000000000000000000000000000000000000000000000001",
                    "revert": false,
                    "revertMessage": "",
                    "selector": "0xa9059cbb",
                    "status": true,
                    "value": "0"
                },
                "nodeType": 0
            },
            "6": {
                "event": {
                    "contract": "0xbddab785b306bcd9fb056da189615cc8ece1d823",
                    "decodedLog": {
                        "name": "Transfer",
                        "params": [
                            {
                                "name": "from",
                                "type": "address",
                                "value": "0xe5ccfca59acd6a3dea18a97a8d12a1fc5be09b13"
                            },
                            {
                                "name": "to",
                                "type": "address",
                                "value": "0x079f5569628968194af03213fd0d821857c9a050"
                            },
                            {
                                "decimalAvailable": true,
                                "name": "value",
                                "type": "uint256",
                                "value": "3,192,241,027,777,777,777"
                            }
                        ],
                        "signature": "Transfer(address,address,uint256)"
                    },
                    "id": 6,
                    "logData": "0x0000000000000000000000000000000000000000000000002c4d1e4d321f5071",
                    "logDecoded": true,
                    "operation": "EVENT",
                    "revert": false,
                    "status": true,
                    "topics": [
                        "0xddf252ad1be2c89b69c2b068fc378daa952ba7f163c4a11628f55a4df523b3ef",
                        "0x000000000000000000000000e5ccfca59acd6a3dea18a97a8d12a1fc5be09b13",
                        "0x000000000000000000000000079f5569628968194af03213fd0d821857c9a050"
                    ]
                },
                "nodeType": 1
            },
            "7": {
                "invocation": {
                    "address": "0xbddab785b306bcd9fb056da189615cc8ece1d823",
                    "callData": "0x000000000000000000000000717c0570d8d0805fe894445b861206f4d0270c6b0000000000000000000000000000000000000000000000002c4cff752395b5f6",
                    "decodedMethod": {
                        "callParams": [
                            {
                                "name": "to",
                                "type": "address",
                                "value": "0x717c0570d8d0805fe894445b861206f4d0270c6b"
                            },
                            {
                                "decimalAvailable": true,
                                "name": "value",
                                "type": "uint256",
                                "value": "3,192,207,114,472,109,558"
                            }
                        ],
                        "constructorArguments": "",
                        "name": "transfer",
                        "returnParams": [
                            {
                                "name": "",
                                "type": "bool",
                                "value": true
                            }
                        ],
                        "signature": "transfer(address,uint256)"
                    },
                    "errorInfo": "",
                    "fromAddress": "0xe5ccfca59acd6a3dea18a97a8d12a1fc5be09b13",
                    "gasUsed": 29168,
                    "id": 7,
                    "methodDecoded": true,
                    "operation": "CALL",
                    "output": "0x0000000000000000000000000000000000000000000000000000000000000001",
                    "revert": false,
                    "revertMessage": "",
                    "selector": "0xa9059cbb",
                    "status": true,
                    "value": "0"
                },
                "nodeType": 0
            },
            "8": {
                "event": {
                    "contract": "0xbddab785b306bcd9fb056da189615cc8ece1d823",
                    "decodedLog": {
                        "name": "Transfer",
                        "params": [
                            {
                                "name": "from",
                                "type": "address",
                                "value": "0xe5ccfca59acd6a3dea18a97a8d12a1fc5be09b13"
                            },
                            {
                                "name": "to",
                                "type": "address",
                                "value": "0x717c0570d8d0805fe894445b861206f4d0270c6b"
                            },
                            {
                                "decimalAvailable": true,
                                "name": "value",
                                "type": "uint256",
                                "value": "3,192,207,114,472,109,558"
                            }
                        ],
                        "signature": "Transfer(address,address,uint256)"
                    },
                    "id": 8,
                    "logData": "0x0000000000000000000000000000000000000000000000002c4cff752395b5f6",
                    "logDecoded": true,
                    "operation": "EVENT",
                    "revert": false,
                    "status": true,
                    "topics": [
                        "0xddf252ad1be2c89b69c2b068fc378daa952ba7f163c4a11628f55a4df523b3ef",
                        "0x000000000000000000000000e5ccfca59acd6a3dea18a97a8d12a1fc5be09b13",
                        "0x000000000000000000000000717c0570d8d0805fe894445b861206f4d0270c6b"
                    ]
                },
                "nodeType": 1
            },
            "9": {
                "invocation": {
                    "address": "0xbddab785b306bcd9fb056da189615cc8ece1d823",
                    "callData": "0x0000000000000000000000001904bd287318efac4b561392a316acf3112a69150000000000000000000000000000000000000000000000002c4cf8fcac008000",
                    "decodedMethod": {
                        "callParams": [
                            {
                                "name": "to",
                                "type": "address",
                                "value": "0x1904bd287318efac4b561392a316acf3112a6915"
                            },
                            {
                                "decimalAvailable": true,
                                "name": "value",
                                "type": "uint256",
                                "value": "3,192,200,000,000,000,000"
                            }
                        ],
                        "constructorArguments": "",
                        "name": "transfer",
                        "returnParams": [
                            {
                                "name": "",
                                "type": "bool",
                                "value": true
                            }
                        ],
                        "signature": "transfer(address,uint256)"
                    },
                    "errorInfo": "",
                    "fromAddress": "0xe5ccfca59acd6a3dea18a97a8d12a1fc5be09b13",
                    "gasUsed": 29168,
                    "id": 9,
                    "methodDecoded": true,
                    "operation": "CALL",
                    "output": "0x0000000000000000000000000000000000000000000000000000000000000001",
                    "revert": false,
                    "revertMessage": "",
                    "selector": "0xa9059cbb",
                    "status": true,
                    "value": "0"
                },
                "nodeType": 0
            }
        },
        "gasFlame": [
            {
                "children": [
                    {
                        "children": [
                            {
                                "children": [],
                                "depth": 0,
                                "name": "Initial Gas",
                                "value": 62040
                            },
                            {
                                "children": [
                                    {
                                        "children": [],
                                        "depth": 1,
                                        "name": "transfer",
                                        "value": 29168
                                    },
                                    {
                                        "children": [],
                                        "depth": 1,
                                        "name": "transfer",
                                        "value": 29168
                                    },
                                    {
                                        "children": [],
                                        "depth": 1,
                                        "name": "transfer",
                                        "value": 29168
                                    },
                                    {
                                        "children": [],
                                        "depth": 1,
                                        "name": "transfer",
                                        "value": 29168
                                    },
                                    {
                                        "children": [],
                                        "depth": 1,
                                        "name": "transfer",
                                        "value": 29168
                                    },
                                    {
                                        "children": [],
                                        "depth": 1,
                                        "name": "transfer",
                                        "value": 29168
                                    },
                                    {
                                        "children": [],
                                        "depth": 1,
                                        "name": "transfer",
                                        "value": 29168
                                    },
                                    {
                                        "children": [],
                                        "depth": 1,
                                        "name": "transfer",
                                        "value": 29168
                                    },
                                    {
                                        "children": [],
                                        "depth": 1,
                                        "name": "transfer",
                                        "value": 29168
                                    },
                                    {
                                        "children": [],
                                        "depth": 1,
                                        "name": "transfer",
                                        "value": 29168
                                    },
                                    {
                                        "children": [],
                                        "depth": 1,
                                        "name": "transfer",
                                        "value": 29168
                                    },
                                    {
                                        "children": [],
                                        "depth": 1,
                                        "name": "transfer",
                                        "value": 29168
                                    },
                                    {
                                        "children": [],
                                        "depth": 1,
                                        "name": "transfer",
                                        "value": 29168
                                    },
                                    {
                                        "children": [],
                                        "depth": 1,
                                        "name": "transfer",
                                        "value": 29168
                                    },
                                    {
                                        "children": [],
                                        "depth": 1,
                                        "name": "transfer",
                                        "value": 29168
                                    },
                                    {
                                        "children": [],
                                        "depth": 1,
                                        "name": "transfer",
                                        "value": 29168
                                    },
                                    {
                                        "children": [],
                                        "depth": 1,
                                        "name": "transfer",
                                        "value": 29168
                                    },
                                    {
                                        "children": [],
                                        "depth": 1,
                                        "name": "transfer",
                                        "value": 29168
                                    },
                                    {
                                        "children": [],
                                        "depth": 1,
                                        "name": "transfer",
                                        "value": 29168
                                    },
                                    {
                                        "children": [],
                                        "depth": 1,
                                        "name": "transfer",
                                        "value": 29168
                                    }
                                ],
                                "depth": 0,
                                "name": "Executed Gas",
                                "value": 631443
                            }
                        ],
                        "depth": -1,
                        "name": "Actual Gas Used",
                        "value": 693483
                    },
                    {
                        "children": [],
                        "depth": -1,
                        "name": "Refunded Gas",
                        "value": 0
                    }
                ],
                "depth": -2,
                "name": "Total Gas",
                "value": 693483
            }
        ],
        "isConfirmed": true,
        "mainTrace": [
            {
                "children": [
                    {
                        "children": [
                            {
                                "children": [
                                    {
                                        "children": [],
                                        "depth": 2,
                                        "id": 2,
                                        "order": 2
                                    }
                                ],
                                "depth": 1,
                                "id": 1,
                                "order": 1
                            },
                            {
                                "children": [
                                    {
                                        "children": [],
                                        "depth": 2,
                                        "id": 4,
                                        "order": 4
                                    }
                                ],
                                "depth": 1,
                                "id": 3,
                                "order": 3
                            },
                            {
                                "children": [
                                    {
                                        "children": [],
                                        "depth": 2,
                                        "id": 6,
                                        "order": 6
                                    }
                                ],
                                "depth": 1,
                                "id": 5,
                                "order": 5
                            },
                            {
                                "children": [
                                    {
                                        "children": [],
                                        "depth": 2,
                                        "id": 8,
                                        "order": 8
                                    }
                                ],
                                "depth": 1,
                                "id": 7,
                                "order": 7
                            },
                            {
                                "children": [
                                    {
                                        "children": [],
                                        "depth": 2,
                                        "id": 10,
                                        "order": 10
                                    }
                                ],
                                "depth": 1,
                                "id": 9,
                                "order": 9
                            },
                            {
                                "children": [
                                    {
                                        "children": [],
                                        "depth": 2,
                                        "id": 12,
                                        "order": 12
                                    }
                                ],
                                "depth": 1,
                                "id": 11,
                                "order": 11
                            },
                            {
                                "children": [
                                    {
                                        "children": [],
                                        "depth": 2,
                                        "id": 14,
                                        "order": 14
                                    }
                                ],
                                "depth": 1,
                                "id": 13,
                                "order": 13
                            },
                            {
                                "children": [
                                    {
                                        "children": [],
                                        "depth": 2,
                                        "id": 16,
                                        "order": 16
                                    }
                                ],
                                "depth": 1,
                                "id": 15,
                                "order": 15
                            },
                            {
                                "children": [
                                    {
                                        "children": [],
                                        "depth": 2,
                                        "id": 18,
                                        "order": 18
                                    }
                                ],
                                "depth": 1,
                                "id": 17,
                                "order": 17
                            },
                            {
                                "children": [
                                    {
                                        "children": [],
                                        "depth": 2,
                                        "id": 20,
                                        "order": 20
                                    }
                                ],
                                "depth": 1,
                                "id": 19,
                                "order": 19
                            },
                            {
                                "children": [
                                    {
                                        "children": [],
                                        "depth": 2,
                                        "id": 22,
                                        "order": 22
                                    }
                                ],
                                "depth": 1,
                                "id": 21,
                                "order": 21
                            },
                            {
                                "children": [
                                    {
                                        "children": [],
                                        "depth": 2,
                                        "id": 24,
                                        "order": 24
                                    }
                                ],
                                "depth": 1,
                                "id": 23,
                                "order": 23
                            },
                            {
                                "children": [
                                    {
                                        "children": [],
                                        "depth": 2,
                                        "id": 26,
                                        "order": 26
                                    }
                                ],
                                "depth": 1,
                                "id": 25,
                                "order": 25
                            },
                            {
                                "children": [
                                    {
                                        "children": [],
                                        "depth": 2,
                                        "id": 28,
                                        "order": 28
                                    }
                                ],
                                "depth": 1,
                                "id": 27,
                                "order": 27
                            },
                            {
                                "children": [
                                    {
                                        "children": [],
                                        "depth": 2,
                                        "id": 30,
                                        "order": 30
                                    }
                                ],
                                "depth": 1,
                                "id": 29,
                                "order": 29
                            },
                            {
                                "children": [
                                    {
                                        "children": [],
                                        "depth": 2,
                                        "id": 32,
                                        "order": 32
                                    }
                                ],
                                "depth": 1,
                                "id": 31,
                                "order": 31
                            },
                            {
                                "children": [
                                    {
                                        "children": [],
                                        "depth": 2,
                                        "id": 34,
                                        "order": 34
                                    }
                                ],
                                "depth": 1,
                                "id": 33,
                                "order": 33
                            },
                            {
                                "children": [
                                    {
                                        "children": [],
                                        "depth": 2,
                                        "id": 36,
                                        "order": 36
                                    }
                                ],
                                "depth": 1,
                                "id": 35,
                                "order": 35
                            },
                            {
                                "children": [
                                    {
                                        "children": [],
                                        "depth": 2,
                                        "id": 38,
                                        "order": 38
                                    }
                                ],
                                "depth": 1,
                                "id": 37,
                                "order": 37
                            },
                            {
                                "children": [
                                    {
                                        "children": [],
                                        "depth": 2,
                                        "id": 40,
                                        "order": 40
                                    }
                                ],
                                "depth": 1,
                                "id": 39,
                                "order": 39
                            }
                        ],
                        "depth": 0,
                        "id": 0,
                        "order": 0
                    }
                ],
                "depth": -1,
                "id": -1,
                "order": -1
            }
        ],
        "mainTraceNodeCount": 41,
        "parentIdMap": {
            "0": -1,
            "1": 0,
            "10": 9,
            "11": 0,
            "12": 11,
            "13": 0,
            "14": 13,
            "15": 0,
            "16": 15,
            "17": 0,
            "18": 17,
            "19": 0,
            "2": 1,
            "20": 19,
            "21": 0,
            "22": 21,
            "23": 0,
            "24": 23,
            "25": 0,
            "26": 25,
            "27": 0,
            "28": 27,
            "29": 0,
            "3": 0,
            "30": 29,
            "31": 0,
            "32": 31,
            "33": 0,
            "34": 33,
            "35": 0,
            "36": 35,
            "37": 0,
            "38": 37,
            "39": 0,
            "4": 3,
            "40": 39,
            "5": 0,
            "6": 5,
            "7": 0,
            "8": 7,
            "9": 0
        },
        "tidyTrace": [
            {
                "children": [
                    {
                        "children": [
                            {
                                "children": [
                                    {
                                        "children": [],
                                        "depth": 2,
                                        "id": 2,
                                        "order": 2
                                    }
                                ],
                                "depth": 1,
                                "id": 1,
                                "order": 1
                            },
                            {
                                "children": [
                                    {
                                        "children": [],
                                        "depth": 2,
                                        "id": 4,
                                        "order": 4
                                    }
                                ],
                                "depth": 1,
                                "id": 3,
                                "order": 3
                            },
                            {
                                "children": [
                                    {
                                        "children": [],
                                        "depth": 2,
                                        "id": 6,
                                        "order": 6
                                    }
                                ],
                                "depth": 1,
                                "id": 5,
                                "order": 5
                            },
                            {
                                "children": [
                                    {
                                        "children": [],
                                        "depth": 2,
                                        "id": 8,
                                        "order": 8
                                    }
                                ],
                                "depth": 1,
                                "id": 7,
                                "order": 7
                            },
                            {
                                "children": [
                                    {
                                        "children": [],
                                        "depth": 2,
                                        "id": 10,
                                        "order": 10
                                    }
                                ],
                                "depth": 1,
                                "id": 9,
                                "order": 9
                            },
                            {
                                "children": [
                                    {
                                        "children": [],
                                        "depth": 2,
                                        "id": 12,
                                        "order": 12
                                    }
                                ],
                                "depth": 1,
                                "id": 11,
                                "order": 11
                            },
                            {
                                "children": [
                                    {
                                        "children": [],
                                        "depth": 2,
                                        "id": 14,
                                        "order": 14
                                    }
                                ],
                                "depth": 1,
                                "id": 13,
                                "order": 13
                            },
                            {
                                "children": [
                                    {
                                        "children": [],
                                        "depth": 2,
                                        "id": 16,
                                        "order": 16
                                    }
                                ],
                                "depth": 1,
                                "id": 15,
                                "order": 15
                            },
                            {
                                "children": [
                                    {
                                        "children": [],
                                        "depth": 2,
                                        "id": 18,
                                        "order": 18
                                    }
                                ],
                                "depth": 1,
                                "id": 17,
                                "order": 17
                            },
                            {
                                "children": [
                                    {
                                        "children": [],
                                        "depth": 2,
                                        "id": 20,
                                        "order": 20
                                    }
                                ],
                                "depth": 1,
                                "id": 19,
                                "order": 19
                            },
                            {
                                "children": [
                                    {
                                        "children": [],
                                        "depth": 2,
                                        "id": 22,
                                        "order": 22
                                    }
                                ],
                                "depth": 1,
                                "id": 21,
                                "order": 21
                            },
                            {
                                "children": [
                                    {
                                        "children": [],
                                        "depth": 2,
                                        "id": 24,
                                        "order": 24
                                    }
                                ],
                                "depth": 1,
                                "id": 23,
                                "order": 23
                            },
                            {
                                "children": [
                                    {
                                        "children": [],
                                        "depth": 2,
                                        "id": 26,
                                        "order": 26
                                    }
                                ],
                                "depth": 1,
                                "id": 25,
                                "order": 25
                            },
                            {
                                "children": [
                                    {
                                        "children": [],
                                        "depth": 2,
                                        "id": 28,
                                        "order": 28
                                    }
                                ],
                                "depth": 1,
                                "id": 27,
                                "order": 27
                            },
                            {
                                "children": [
                                    {
                                        "children": [],
                                        "depth": 2,
                                        "id": 30,
                                        "order": 30
                                    }
                                ],
                                "depth": 1,
                                "id": 29,
                                "order": 29
                            },
                            {
                                "children": [
                                    {
                                        "children": [],
                                        "depth": 2,
                                        "id": 32,
                                        "order": 32
                                    }
                                ],
                                "depth": 1,
                                "id": 31,
                                "order": 31
                            },
                            {
                                "children": [
                                    {
                                        "children": [],
                                        "depth": 2,
                                        "id": 34,
                                        "order": 34
                                    }
                                ],
                                "depth": 1,
                                "id": 33,
                                "order": 33
                            },
                            {
                                "children": [
                                    {
                                        "children": [],
                                        "depth": 2,
                                        "id": 36,
                                        "order": 36
                                    }
                                ],
                                "depth": 1,
                                "id": 35,
                                "order": 35
                            },
                            {
                                "children": [
                                    {
                                        "children": [],
                                        "depth": 2,
                                        "id": 38,
                                        "order": 38
                                    }
                                ],
                                "depth": 1,
                                "id": 37,
                                "order": 37
                            },
                            {
                                "children": [
                                    {
                                        "children": [],
                                        "depth": 2,
                                        "id": 40,
                                        "order": 40
                                    }
                                ],
                                "depth": 1,
                                "id": 39,
                                "order": 39
                            }
                        ],
                        "depth": 0,
                        "id": 0,
                        "order": 0
                    }
                ],
                "depth": -1,
                "id": -1,
                "order": -1
            }
        ],
        "tidyTraceNodeCount": 41
    },
    "state_change": {
        "stateChanges": [
            {
                "address": "0xbddab785b306bcd9fb056da189615cc8ece1d823",
                "erc": "ERC-20",
                "slots": [
                    {
                        "current": "0x0000000000000000000000000000000000000000000000002c4c318dcd19aa00",
                        "key": "0xcac3473b880e91bfc1b2b97fe075836de2efd0918920fc0e8499c8b82cb34050",
                        "prev": "0x0000000000000000000000000000000000000000000000000000000000000000"
                    },
                    {
                        "current": "0x0000000000000000000000000000000000000000000000002c4c0e6455edb800",
                        "key": "0x49f1a8e9e3d81693e2a3c0b46c78a3bcaaf90ea10c104c16078a723b5cf7e783",
                        "prev": "0x0000000000000000000000000000000000000000000000000000000000000000"
                    },
                    {
                        "current": "0x0000000000000000000000000000000000000000000000002c4bf7310f123635",
                        "key": "0xc88192e718d941a58dacf160275354e25b67dced5e158cda8058cc51d834b537",
                        "prev": "0x0000000000000000000000000000000000000000000000000000000000000000"
                    },
                    {
                        "current": "0x0000000000000000000000000000000000000000000000002c4b847785a5a8e4",
                        "key": "0xab2c5f2db481192bf017321e7b0ef358309f41c6a94d4b05860d1f7869bf74dc",
                        "prev": "0x0000000000000000000000000000000000000000000000000000000000000000"
                    },
                    {
                        "current": "0x0000000000000000000000000000000000000000000000002c4cff752395b5f6",
                        "key": "0x01edc890975c211f3b40b8ce5c26d0e4350bf931df894cd2d21093623b3515bd",
                        "prev": "0x0000000000000000000000000000000000000000000000000000000000000000"
                    },
                    {
                        "current": "0x0000000000000000000000000000000000000000000000002c4c43168b0c0000",
                        "key": "0x7fd74b97a30060c8d9d21412202cba30be1bef127fba0a0ee71b8767196d93f9",
                        "prev": "0x0000000000000000000000000000000000000000000000000000000000000000"
                    },
                    {
                        "current": "0x0000000000000000000000000000000000000000000000002c4cf8fcac008000",
                        "key": "0xd215f5c5a09991878efe2bc86d18755c7fe5c450f313fe4eb34958179d03644f",
                        "prev": "0x0000000000000000000000000000000000000000000000000000000000000000"
                    },
                    {
                        "current": "0x0000000000000000000000000000000000000000000000002c4ca18252741900",
                        "key": "0x88aac4ef249c653c14b81d64ad8d93bd3ed42d8badd74e733768e8ed7fc7779c",
                        "prev": "0x0000000000000000000000000000000000000000000000000000000000000000"
                    },
                    {
                        "current": "0x0000000000000000000000000000000000000000000000002c4bf83380336200",
                        "key": "0x0fbccd1c6ebee1928f9e4401e276f2843a07cbbf5319abb81d00a642435855d1",
                        "prev": "0x0000000000000000000000000000000000000000000000000000000000000000"
                    },
                    {
                        "current": "0x0000000000000000000000000000000000000000000000002c4ba0b749d0ac00",
                        "key": "0xea95db8db10faffa9b16686a697e1100addff7ffcaee1a9f9ad764d04f2abacd",
                        "prev": "0x0000000000000000000000000000000000000000000000000000000000000000"
                    },
                    {
                        "current": "0x0000000000000000000000000000000000000000000000002c4b50e16a18c400",
                        "key": "0x3f63972b6f4add83ec066ad02994bfdb382178eb8649bb2c0d1a5cbeb2a61beb",
                        "prev": "0x0000000000000000000000000000000000000000000000000000000000000000"
                    },
                    {
                        "current": "0x000000000000000000000000000000000000000000002eb09e0b5f72c528d8ef",
                        "key": "0xa51b3b96a81f8d4fd6267d1686eb8cb56f32cdc43ada7659a1c959202f217c7e",
                        "prev": "0x000000000000000000000000000000000000000000002eb414025f4d4243a941"
                    },
                    {
                        "current": "0x0000000000000000000000000000000000000000000000002c4d2a5ab81ed000",
                        "key": "0x01869acb01f3e5406a2797d4a04dab81a21e085e896824d15d358678fecd31e3",
                        "prev": "0x0000000000000000000000000000000000000000000000000000000000000000"
                    },
                    {
                        "current": "0x0000000000000000000000000000000000000000000000002c4c1eb7a54d6400",
                        "key": "0x34fbb9c98ee6edac22584ddaa31050e40eca512e6ab23ffe1644ae7055ced899",
                        "prev": "0x0000000000000000000000000000000000000000000000000000000000000000"
                    },
                    {
                        "current": "0x0000000000000000000000000000000000000000000000002c4b981c5ab72b4b",
                        "key": "0x2c3deceea20b138e4267ec97e4a7db7869005a9b70f06813e2a3fa44a9b6fdef",
                        "prev": "0x0000000000000000000000000000000000000000000000000000000000000000"
                    },
                    {
                        "current": "0x0000000000000000000000000000000000000000000000002c4d2cb1180eb400",
                        "key": "0xaeb0ff976f7c7b7ce758ce213a671284dc7c89f36ba326f267bc279d35caf315",
                        "prev": "0x0000000000000000000000000000000000000000000000000000000000000000"
                    },
                    {
                        "current": "0x0000000000000000000000000000000000000000000000002c4c6ef1a3049800",
                        "key": "0xd28cb3e5b927199b41af978a058b575b32c181b9dde5d430596d329f8387185c",
                        "prev": "0x0000000000000000000000000000000000000000000000000000000000000000"
                    },
                    {
                        "current": "0x0000000000000000000000000000000000000000000000002c4ca8a82c54a90b",
                        "key": "0xd5e517a295aae5b1442ef999b9b4bfd8d2c6bed0fe665e19ac44390d27630463",
                        "prev": "0x0000000000000000000000000000000000000000000000000000000000000000"
                    },
                    {
                        "current": "0x0000000000000000000000000000000000000000000000002c4c48e6c47c56c0",
                        "key": "0xaf3574133f2aeb906e27f621fb697ea1b1c9be81306a81ac65374f10d59e838b",
                        "prev": "0x0000000000000000000000000000000000000000000000000000000000000000"
                    },
                    {
                        "current": "0x0000000000000000000000000000000000000000000000002c4d1e4d321f5071",
                        "key": "0x9fbeee65cd5ead621b52b935383ede16c4b442f45aa43d74003e905d488aabb9",
                        "prev": "0x0000000000000000000000000000000000000000000000000000000000000000"
                    },
                    {
                        "current": "0x0000000000000000000000000000000000000000000000002c4cf0bb4e0172bc",
                        "key": "0xbd7f27ca2c45454c5d5d02e495c24ebf78e7c3d62236dd691a7ed7e7c74f88f4",
                        "prev": "0x0000000000000000000000000000000000000000000000000000000000000000"
                    }
                ],
                "storageVariables": [
                    {
                        "name": "_balances",
                        "type": "mapping(address => uint256)",
                        "value": {
                            "pairs": [
                                {
                                    "key": "0x079f5569628968194af03213fd0d821857c9a050",
                                    "value": {
                                        "current": "3192241027777777777",
                                        "prev": "0",
                                        "typeTag": 1
                                    }
                                },
                                {
                                    "key": "0x0dff620961b63565e3d63241cee3f4e83c341372",
                                    "value": {
                                        "current": "3192254280000000000",
                                        "prev": "0",
                                        "typeTag": 1
                                    }
                                },
                                {
                                    "key": "0x117647f3f41d30da66f74a543a835df3daa9c33a",
                                    "value": {
                                        "current": "3192048220000000000",
                                        "prev": "0",
                                        "typeTag": 1
                                    }
                                },
                                {
                                    "key": "0x16df1f005aee6b00c74f12dbe932afa7922fd08b",
                                    "value": {
                                        "current": "3191942060000000000",
                                        "prev": "0",
                                        "typeTag": 1
                                    }
                                },
                                {
                                    "key": "0x1904bd287318efac4b561392a316acf3112a6915",
                                    "value": {
                                        "current": "3192200000000000000",
                                        "prev": "0",
                                        "typeTag": 1
                                    }
                                },
                                {
                                    "key": "0x3546259cbfcd2a1aef7751894facdeb1716d7e5b",
                                    "value": {
                                        "current": "3192103816999999744",
                                        "prev": "0",
                                        "typeTag": 1
                                    }
                                },
                                {
                                    "key": "0x717c0570d8d0805fe894445b861206f4d0270c6b",
                                    "value": {
                                        "current": "3192207114472109558",
                                        "prev": "0",
                                        "typeTag": 1
                                    }
                                },
                                {
                                    "key": "0x873599ae32d551e6a8a4332d99a72490b9f2387c",
                                    "value": {
                                        "current": "3191812008470588235",
                                        "prev": "0",
                                        "typeTag": 1
                                    }
                                },
                                {
                                    "key": "0x90751c506d269d84ce17ea34eb7a79b57c8c0836",
                                    "value": {
                                        "current": "3191821470000000000",
                                        "prev": "0",
                                        "typeTag": 1
                                    }
                                },
                                {
                                    "key": "0x9ab2b1bae4e26502795912cf89855b3da7fd4957",
                                    "value": {
                                        "current": "3191960010000000000",
                                        "prev": "0",
                                        "typeTag": 1
                                    }
                                },
                                {
                                    "key": "0xb193aa14542c0d4164dd4210a335e18dfd4a2ad7",
                                    "value": {
                                        "current": "3191917661000000000",
                                        "prev": "0",
                                        "typeTag": 1
                                    }
                                },
                                {
                                    "key": "0xb4c4f54d1732f2bafa0f7166a7e8a994c31ce533",
                                    "value": {
                                        "current": "3192256850000000000",
                                        "prev": "0",
                                        "typeTag": 1
                                    }
                                },
                                {
                                    "key": "0xc15b616415c85cf2382f03cb159b1b4ea7ec49f6",
                                    "value": {
                                        "current": "3191790409800329444",
                                        "prev": "0",
                                        "typeTag": 1
                                    }
                                },
                                {
                                    "key": "0xc8965631d1223cefc60a6aadbb3488e15ad74254",
                                    "value": {
                                        "current": "3191980721000000000",
                                        "prev": "0",
                                        "typeTag": 1
                                    }
                                },
                                {
                                    "key": "0xdc1ce3c608273a19b39495afa9edc70b1b0ce523",
                                    "value": {
                                        "current": "3192006391875000000",
                                        "prev": "0",
                                        "typeTag": 1
                                    }
                                },
                                {
                                    "key": "0xdfa35bdc34998211b4f4d452811e09fbab4fbb59",
                                    "value": {
                                        "current": "3191733690000000000",
                                        "prev": "0",
                                        "typeTag": 1
                                    }
                                },
                                {
                                    "key": "0xe3951827b9c13a8166f1798639e255848e0caa60",
                                    "value": {
                                        "current": "3192190923157107388",
                                        "prev": "0",
                                        "typeTag": 1
                                    }
                                },
                                {
                                    "key": "0xe5ccfca59acd6a3dea18a97a8d12a1fc5be09b13",
                                    "value": {
                                        "current": "220486873470005836044527",
                                        "prev": "220550713964887539951937",
                                        "typeTag": 1
                                    }
                                },
                                {
                                    "key": "0xed5d43e6c8a45e7693714d280b5d112e92a6f7d1",
                                    "value": {
                                        "current": "3191916551000438325",
                                        "prev": "0",
                                        "typeTag": 1
                                    }
                                },
                                {
                                    "key": "0xef91d4ba5241e8c069432474c4dd8fd1ebd35e38",
                                    "value": {
                                        "current": "3192000000000000000",
                                        "prev": "0",
                                        "typeTag": 1
                                    }
                                },
                                {
                                    "key": "0xfab6697ccdd3e3f8df3c613ad195bea25b4e3e97",
                                    "value": {
                                        "current": "3192111676150556939",
                                        "prev": "0",
                                        "typeTag": 1
                                    }
                                }
                            ],
                            "typeTag": 4
                        }
                    }
                ]
            }
        ]
    }
}