{
    "balance_change": {
        "balanceChanges": []
    },
    "profile": {
        "basic_info": {
            "baseFee": "",
            "blockNumber": 5501139,
            "callData": "0xef343588000000000000000000000000000000000000000000000000246cff22cc86a8740000000000000000000000000000000000000000000084e0b9988812a1ee7765000000000000000000000000000000000000000000000000000000000000271000000000000000000000000000000000000000000000000000000001210a47ef000000000000000000000000000000000000000000000000027457bd80a34cca000000000000000000000000000000000000000000000000000000000000010e00000000000000000000000000000000000000000000000000038d7ea4c680000000000000000000000000000000000000000000000000000018dcd96cde4a8000000000000000000000000000000000000000000000000000000000000000000000000000000000000000009a0242b7a33dacbe40edb927834f96eb39f8fbcb000000000000000000000000f3cb44e421e1774affb4abbbe691962cea19fa11000000000000000000000000baa3ec8dae3e4605e0e13e26a3f4bbbbdc642abe000000000000000000000000000000000000000000000000000000000000001c000000000000000000000000000000000000000000000000000000000000001c34040d9db6c1ed1541f724f6fec37050402cc23cab2784240b9933519ae16bae12556a846bdee38273f6a1692c80fc91b1e87244b409b71228ab26910123be0769d7fc000c8548adea08796fc119699c25f62b0125a654e98a6fbcba76c7fb2a60745cfa7e65dca922aaaebff70e0393987767ac9f12e5b802965fb7437f462e",
            "debugEnable": true,
            "errorInfo": "",
            "eventCount": 0,
            "feeRecipient": "0x829bd824b016326a401d083b33d092293333a830",
            "formatValue": "0",
            "gasLimit": 410000,
            "gasPrice": "5.2",
            "gasUsed": 143028,
            "intTxnCount": 2,
            "internalRevert": false,
            "internalRevertMessage": "",
            "isContractCreation": false,
            "isFlashloan": false,
            "maxFee": "",
            "nonce": 1110066,
            "overwritedBlockNumber": -1,
            "priorityFee": "",
            "receiver": "0x2a0c0dbecc7e4d658f48e01e3fa353f44050c208",
            "revertMessage": "",
            "sender": "0xceceaa8edc0830c7cec497e33bb3a3c28dd55a32",
            "simulationEnable": true,
            "sourceTxnHash": "0xad6ceb97057415e905c00825760896be17294a09abbba31a777e2828a2a55178",
            "status": true,
            "timestamp": "2018-04-25T03:52:20Z",
            "transactionFee": "0.0007437456",
            "txnHash": "0xad6ceb97057415e905c00825760896be17294a09abbba31a777e2828a2a55178",
            "txnIndex": 103,
            "type": 0,
            "value": "0"
        },
        "fund_flow": [],
        "token_infos": [
            {
                "address": "0xeeeeeeeeeeeeeeeeeeeeeeeeeeeeeeeeeeeeeeee",
                "decimals": 18
            },
            {
                "address": "0xc02aaa39b223fe8d0a0e5c4f27ead9083c756cc2",
                "decimals": 18
            }
        ]
    },
    "address_label": {
        "labels": [
            {
                "address": "0x0000000000000000000000000000000000000001",
                "label": "Precompiled"
            },
            {
                "address": "0x0000000000000000000000000000000000000002",
                "label": "Precompiled"
            },
            {
                "address": "0x0000000000000000000000000000000000000003",
                "label": "Precompiled"
            },
            {
                "address": "0x0000000000000000000000000000000000000004",
                "label": "Precompiled"
            },
            {
                "address": "0xeeeeeeeeeeeeeeeeeeeeeeeeeeeeeeeeeeeeeeee",
                "label": "Ether"
            },
            {
                "address": "0x9a0242b7a33dacbe40edb927834f96eb39f8fbcb",
                "label": "BABB Platform: Old BAX Token"
            },
            {
                "address": "0x0000000000000000000000000000000000000000",
                "label": "Null Address"
            },
            {
                "address": "0x2a0c0dbecc7e4d658f48e01e3fa353f44050c208",
                "label": "IDEX"
            }
        ]
    },
    "trace": {
        "accountLabels": null,
        "dataMap": {
            "-1": {
                "invocation": {
                    "address": "0xceceaa8edc0830c7cec497e33bb3a3c28dd55a32",
                    "callData": "",
                    "decodedMethod": null,
                    "errorInfo": "",
                    "fromAddress": "",
                    "gasUsed": 0,
                    "id": -1,
                    "methodDecoded": false,
                    "operation": "",
                    "output": "",
                    "revert": false,
                    "revertMessage": "",
                    "selector": "",
                    "status": false,
                    "value": ""
                },
                "nodeType": 0
            },
            "0": {
                "invocation": {
                    "address": "0x2a0c0dbecc7e4d658f48e01e3fa353f44050c208",
                    "callData": "0x000000000000000000000000000000000000000000000000246cff22cc86a8740000000000000000000000000000000000000000000084e0b9988812a1ee7765000000000000000000000000000000000000000000000000000000000000271000000000000000000000000000000000000000000000000000000001210a47ef000000000000000000000000000000000000000000000000027457bd80a34cca000000000000000000000000000000000000000000000000000000000000010e00000000000000000000000000000000000000000000000000038d7ea4c680000000000000000000000000000000000000000000000000000018dcd96cde4a8000000000000000000000000000000000000000000000000000000000000000000000000000000000000000009a0242b7a33dacbe40edb927834f96eb39f8fbcb000000000000000000000000f3cb44e421e1774affb4abbbe691962cea19fa11000000000000000000000000baa3ec8dae3e4605e0e13e26a3f4bbbbdc642abe000000000000000000000000000000000000000000000000000000000000001c000000000000000000000000000000000000000000000000000000000000001c34040d9db6c1ed1541f724f6fec37050402cc23cab2784240b9933519ae16bae12556a846bdee38273f6a1692c80fc91b1e87244b409b71228ab26910123be0769d7fc000c8548adea08796fc119699c25f62b0125a654e98a6fbcba76c7fb2a60745cfa7e65dca922aaaebff70e0393987767ac9f12e5b802965fb7437f462e",
                    "decodedMethod": {
                        "callParams": [
                            {
                                "name": "tradeValues",
                                "type": "uint256[8]",
                                "value": [
                                    "2,624,753,207,775,504,500",
                                    "627,497,820,000,011,192,006,501",
                                    "10,000",
                                    "4,849,289,199",
                                    "176,862,756,792,913,098",
                                    "270",
                                    "1,000,000,000,000,000",
                                    "6,998,225,833,577,088"
                                ]
                            },
                            {
                                "name": "tradeAddresses",
                                "type": "address[4]",
                                "value": [
                                    "0x0000000000000000000000000000000000000000",
                                    "0x9a0242b7a33dacbe40edb927834f96eb39f8fbcb",
                                    "0xf3cb44e421e1774affb4abbbe691962cea19fa11",
                                    "0xbaa3ec8dae3e4605e0e13e26a3f4bbbbdc642abe"
                                ]
                            },
                            {
                                "name": "v",
                                "type": "uint8[2]",
                                "value": [
                                    "28",
                                    "28"
                                ]
                            },
                            {
                                "name": "rs",
                                "type": "bytes32[4]",
                                "value": [
                                    "0x34040d9db6c1ed1541f724f6fec37050402cc23cab2784240b9933519ae16bae",
                                    "0x12556a846bdee38273f6a1692c80fc91b1e87244b409b71228ab26910123be07",
                                    "0x69d7fc000c8548adea08796fc119699c25f62b0125a654e98a6fbcba76c7fb2a",
                                    "0x60745cfa7e65dca922aaaebff70e0393987767ac9f12e5b802965fb7437f462e"
                                ]
                            }
                        ],
                        "constructorArguments": "",
                        "name": "trade",
                        "returnParams": [
                            {
                                "name": "success",
                                "type": "bool",
                                "value": false
                            }
                        ],
                        "signature": "trade(uint256[8],address[4],uint8[2],bytes32[4])"
                    },
                    "errorInfo": "",
                    "fromAddress": "0xceceaa8edc0830c7cec497e33bb3a3c28dd55a32",
                    "gasUsed": 143028,
                    "id": 0,
                    "methodDecoded": true,
                    "operation": "CALL",
                    "output": "0x0000000000000000000000000000000000000000000000000000000000000000",
                    "revert": false,
                    "revertMessage": "",
                    "selector": "0xef343588",
                    "status": true,
                    "value": "0"
                },
                "nodeType": 0
            },
            "1": {
                "invocation": {
                    "address": "0x0000000000000000000000000000000000000001",
                    "callData": "0x9249aaafc655ddaf94feed3b3bcfdd7de9957cbc8dafd42eb22a147e000000000000000000000000000000000000000000000000000000000000001c34040d9db6c1ed1541f724f6fec37050402cc23cab2784240b9933519ae16bae12556a846bdee38273f6a1692c80fc91b1e87244b409b71228ab26910123be07",
                    "decodedMethod": {
                        "callParams": [
                            {
                                "name": "hash",
                                "type": "bytes32",
                                "value": "0xe13a68b49249aaafc655ddaf94feed3b3bcfdd7de9957cbc8dafd42eb22a147e"
                            },
                            {
                                "name": "v",
                                "type": "uint256",
                                "value": "28"
                            },
                            {
                                "name": "r",
                                "type": "bytes32",
                                "value": "0x34040d9db6c1ed1541f724f6fec37050402cc23cab2784240b9933519ae16bae"
                            },
                            {
                                "name": "s",
                                "type": "bytes32",
                                "value": "0x12556a846bdee38273f6a1692c80fc91b1e87244b409b71228ab26910123be07"
                            }
                        ],
                        "constructorArguments": "",
                        "name": "ecrecover",
                        "returnParams": [
                            {
                                "name": "",
                                "type": "address",
                                "value": "0xf3cb44e421e1774affb4abbbe691962cea19fa11"
                            }
                        ],
                        "signature": "ecrecover(bytes32,uint256,bytes32,bytes32)"
                    },
                    "errorInfo": "",
                    "fromAddress": "0x2a0c0dbecc7e4d658f48e01e3fa353f44050c208",
                    "gasUsed": 3000,
                    "id": 1,
                    "methodDecoded": true,
                    "operation": "CALL",
                    "output": "0x000000000000000000000000f3cb44e421e1774affb4abbbe691962cea19fa11",
                    "revert": false,
                    "revertMessage": "",
                    "selector": "0xe13a68b4",
                    "status": true,
                    "value": "0"
                },
                "nodeType": 0
            },
            "2": {
                "invocation": {
                    "address": "0x0000000000000000000000000000000000000001",
                    "callData": "0x50059f0e1d1cee67561cd69ff26a1ae2cca7e4ec71ddb57577250fbb000000000000000000000000000000000000000000000000000000000000001c69d7fc000c8548adea08796fc119699c25f62b0125a654e98a6fbcba76c7fb2a60745cfa7e65dca922aaaebff70e0393987767ac9f12e5b802965fb7437f462e",
                    "decodedMethod": {
                        "callParams": [
                            {
                                "name": "hash",
                                "type": "bytes32",
                                "value": "0xa622e67550059f0e1d1cee67561cd69ff26a1ae2cca7e4ec71ddb57577250fbb"
                            },
                            {
                                "name": "v",
                                "type": "uint256",
                                "value": "28"
                            },
                            {
                                "name": "r",
                                "type": "bytes32",
                                "value": "0x69d7fc000c8548adea08796fc119699c25f62b0125a654e98a6fbcba76c7fb2a"
                            },
                            {
                                "name": "s",
                                "type": "bytes32",
                                "value": "0x60745cfa7e65dca922aaaebff70e0393987767ac9f12e5b802965fb7437f462e"
                            }
                        ],
                        "constructorArguments": "",
                        "name": "ecrecover",
                        "returnParams": [
                            {
                                "name": "",
                                "type": "address",
                                "value": "0xbaa3ec8dae3e4605e0e13e26a3f4bbbbdc642abe"
                            }
                        ],
                        "signature": "ecrecover(bytes32,uint256,bytes32,bytes32)"
                    },
                    "errorInfo": "",
                    "fromAddress": "0x2a0c0dbecc7e4d658f48e01e3fa353f44050c208",
                    "gasUsed": 3000,
                    "id": 2,
                    "methodDecoded": true,
                    "operation": "CALL",
                    "output": "0x000000000000000000000000baa3ec8dae3e4605e0e13e26a3f4bbbbdc642abe",
                    "revert": false,
                    "revertMessage": "",
                    "selector": "0xa622e675",
                    "status": true,
                    "value": "0"
                },
                "nodeType": 0
            }
        },
        "gasFlame": [
            {
                "children": [
                    {
                        "children": [
                            {
                                "children": [],
                                "depth": 0,
                                "name": "Initial Gas",
                                "value": 38744
                            },
                            {
                                "children": [
                                    {
                                        "children": [],
                                        "depth": 1,
                                        "name": "ecrecover",
                                        "value": 3000
                                    },
                                    {
                                        "children": [],
                                        "depth": 1,
                                        "name": "ecrecover",
                                        "value": 3000
                                    }
                                ],
                                "depth": 0,
                                "name": "Executed Gas",
                                "value": 104284
                            }
                        ],
                        "depth": -1,
                        "name": "Actual Gas Used",
                        "value": 143028
                    },
                    {
                        "children": [],
                        "depth": -1,
                        "name": "Refunded Gas",
                        "value": 0
                    }
                ],
                "depth": -2,
                "name": "Total Gas",
                "value": 143028
            }
        ],
        "isConfirmed": true,
        "mainTrace": [
            {
                "children": [
                    {
                        "children": [
                            {
                                "children": [],
                                "depth": 1,
                                "id": 1,
                                "order": 1
                            },
                            {
                                "children": [],
                                "depth": 1,
                                "id": 2,
                                "order": 2
                            }
                        ],
                        "depth": 0,
                        "id": 0,
                        "order": 0
                    }
                ],
                "depth": -1,
                "id": -1,
                "order": -1
            }
        ],
        "mainTraceNodeCount": 3,
        "parentIdMap": {
            "0": -1,
            "1": 0,
            "2": 0
        },
        "tidyTrace": [
            {
                "children": [
                    {
                        "children": [
                            {
                                "children": [],
                                "depth": 1,
                                "id": 1,
                                "order": 1
                            },
                            {
                                "children": [],
                                "depth": 1,
                                "id": 2,
                                "order": 2
                            }
                        ],
                        "depth": 0,
                        "id": 0,
                        "order": 0
                    }
                ],
                "depth": -1,
                "id": -1,
                "order": -1
            }
        ],
        "tidyTraceNodeCount": 3
    },
    "state_change": {
        "stateChanges": [
            {
                "address": "0x2a0c0dbecc7e4d658f48e01e3fa353f44050c208",
                "erc": "",
                "slots": [
                    {
                        "current": "0x0000000000000000000000000000000000000000000000000000000000000001",
                        "key": "0x2b8e4d0873230b10cca580b0d13db847458681204fb0a6588e2e030408d54f97",
                        "prev": "0x000000000000000000000000000000000000000000000000027457bd80a34ccb"
                    },
                    {
                        "current": "0x0000000000000000000000000000000000000000000008e418645147d3d99692",
                        "key": "0x043896e2b56e8846df5d6dc666293e071604d3724e3ef09c7126904836184e85",
                        "prev": "0x0000000000000000000000000000000000000000000000000000000000000000"
                    },
                    {
                        "current": "0x000000000000000000000000000000000000000000000000000000000053f0d3",
                        "key": "0x2369b34cb8d709716908987b22c25bc7dcdd31c98d69787792a113f1981f417c",
                        "prev": "0x000000000000000000000000000000000000000000000000000000000053f0bd"
                    },
                    {
                        "current": "0x0000000000000000000000000000000000000000000000178d5e965dd0ffca2f",
                        "key": "0x3ccb72d91c5c66cba135a4135963ed23443b8a63817f501517468fcd5097e277",
                        "prev": "0x0000000000000000000000000000000000000000000000178d5df582bf34dfde"
                    },
                    {
                        "current": "0x00000000000000000000000000000000000000000000e0de590edd361bf88081",
                        "key": "0x5639b3add017293fc339ef655ae45070a2dd153df964e26ce75a462d58c4186a",
                        "prev": "0x00000000000000000000000000000000000000000000e9d27beab8cd4ea45b05"
                    },
                    {
                        "current": "0x000000000000000000000000000000000000000000000000000000000053f0d3",
                        "key": "0x1c791dc006ddc3200e0ca5b8642e93dce537f8f80eb9f1be5eb0cf2b13e0db36",
                        "prev": "0x000000000000000000000000000000000000000000000000000000000053f0cf"
                    },
                    {
                        "current": "0x0000000000000000000000000000000000000000000000000000000000000001",
                        "key": "0x8b888c574913107faecdd5505361b385b63a87575b0e2ce081d711d4c023a5b9",
                        "prev": "0x0000000000000000000000000000000000000000000000000000000000000000"
                    },
                    {
                        "current": "0x000000000000000000000000000000000000000000001d58c10320ece364e4e0",
                        "key": "0xef436e102b1c0a8f11410e5bd76a726256d07100117487f7300aef8300f32a87",
                        "prev": "0x000000000000000000000000000000000000000000001d48b68b969d8492a0ef"
                    },
                    {
                        "current": "0x00000000000000000000000000000000000000000000000243033325e0dd36f2",
                        "key": "0xdc9ce83b7473bdfeb3a360f5f5b9f3a5c7c482835942b198951bbaecacfd9237",
                        "prev": "0x000000000000000000000000000000000000000000000002408f7c437204d47a"
                    },
                    {
                        "current": "0x0000000000000000000000000000000000000000000000000a57ffbeea4d58c9",
                        "key": "0x1aa1f992a00d524b4bfc41d789ef73a39dde3c92762cf42b87818d229e4a3dcd",
                        "prev": "0x00000000000000000000000000000000000000000000000007e3a80169aa0bff"
                    }
                ],
                "storageVariables": [
                    {
                        "name": "lastActiveTransaction",
                        "type": "mapping(address => uint256)",
                        "value": {
                            "pairs": [
                                {
                                    "key": "0xbaa3ec8dae3e4605e0e13e26a3f4bbbbdc642abe",
                                    "value": {
                                        "current": "5501139",
                                        "prev": "5501117",
                                        "typeTag": 1
                                    }
                                },
                                {
                                    "key": "0xf3cb44e421e1774affb4abbbe691962cea19fa11",
                                    "value": {
                                        "current": "5501139",
                                        "prev": "5501135",
                                        "typeTag": 1
                                    }
                                }
                            ],
                            "typeTag": 4
                        }
                    },
                    {
                        "name": "traded",
                        "type": "mapping(bytes32 => bool)",
                        "value": {
                            "pairs": [
                                {
                                    "key": "0xff3de3c50e1ae99491cd81b6565973d488ee57630aeb53ba27f12fd4d0fa06a5",
                                    "value": {
                                        "current": "true",
                                        "prev": "false",
                                        "typeTag": 1
                                    }
                                }
                            ],
                            "typeTag": 4
                        }
                    },
                    {
                        "name": "tokens",
                        "type": "mapping(address => mapping(address => uint256))",
                        "value": {
                            "pairs": [
                                {
                                    "key": "0x0000000000000000000000000000000000000000",
                                    "value": {
                                        "pairs": [
                                            {
                                                "key": "0x034767f3c519f361c5ecf46ebfc08981c629d381",
                                                "value": {
                                                    "current": "434461858432160877103",
                                                    "prev": "434461681569404084190",
                                                    "typeTag": 1
                                                }
                                            },
                                            {
                                                "key": "0xbaa3ec8dae3e4605e0e13e26a3f4bbbbdc642abe",
                                                "value": {
                                                    "current": "1",
                                                    "prev": "176862756792913099",
                                                    "typeTag": 1
                                                }
                                            },
                                            {
                                                "key": "0xf3cb44e421e1774affb4abbbe691962cea19fa11",
                                                "value": {
                                                    "current": "41722247610669807346",
                                                    "prev": "41545561716633687162",
                                                    "typeTag": 1
                                                }
                                            }
                                        ],
                                        "typeTag": 4
                                    }
                                },
                                {
                                    "key": "0x9a0242b7a33dacbe40edb927834f96eb39f8fbcb",
                                    "value": {
                                        "pairs": [
                                            {
                                                "key": "0x034767f3c519f361c5ecf46ebfc08981c629d381",
                                                "value": {
                                                    "current": "138585849477982201373920",
                                                    "prev": "138289947349266742812911",
                                                    "typeTag": 1
                                                }
                                            },
                                            {
                                                "key": "0xbaa3ec8dae3e4605e0e13e26a3f4bbbbdc642abe",
                                                "value": {
                                                    "current": "41986547130886459594386",
                                                    "prev": "0",
                                                    "typeTag": 1
                                                }
                                            },
                                            {
                                                "key": "0xf3cb44e421e1774affb4abbbe691962cea19fa11",
                                                "value": {
                                                    "current": "1061911686656907565105281",
                                                    "prev": "1104194135916509483260677",
                                                    "typeTag": 1
                                                }
                                            }
                                        ],
                                        "typeTag": 4
                                    }
                                }
                            ],
                            "typeTag": 4
                        }
                    },
                    {
                        "name": "orderFills",
                        "type": "mapping(bytes32 => uint256)",
                        "value": {
                            "pairs": [
                                {
                                    "key": "0x9f902712bb0c3246919f5f1cf5bc22252c50857d6de092a1196cab1109b98ca8",
                                    "value": {
                                        "current": "745345458792913097",
                                        "prev": "568482701999999999",
                                        "typeTag": 1
                                    }
                                }
                            ],
                            "typeTag": 4
                        }
                    }
                ]
            }
        ]
    }
}