{
    "balance_change": {
        "balanceChanges": [
            {
                "account": "0xd8b93107d820d294cd8082a15c65261ee9d30790",
                "assets": [
                    {
                        "address": "0xf226e38c3007b3d974fc79bcf5a77750035436ee",
                        "amount": "20",
                        "iconUrl": "",
                        "isERC1155": false,
                        "isERC721": false,
                        "sign": false,
                        "value": ""
                    }
                ]
            },
            {
                "account": "0x0000000000000000000000000000000000000000",
                "assets": [
                    {
                        "address": "0x8853b05833029e3cf8d3cbb592f9784fa43d2a79",
                        "amount": "1",
                        "iconUrl": "",
                        "isERC1155": false,
                        "isERC721": true,
                        "sign": false,
                        "tokenID": "423571",
                        "value": ""
                    }
                ]
            },
            {
                "account": "0x98fbc4eecff3b8b92be7115ae2c0336eaa1907fb",
                "assets": [
                    {
                        "address": "0x8853b05833029e3cf8d3cbb592f9784fa43d2a79",
                        "amount": "1",
                        "iconUrl": "",
                        "isERC1155": false,
                        "isERC721": true,
                        "sign": true,
                        "tokenID": "423571",
                        "value": ""
                    }
                ]
            },
            {
                "account": "0xbe25ee3619472545418acb609b0ce6ca6f69bdfb",
                "assets": [
                    {
                        "address": "0xf226e38c3007b3d974fc79bcf5a77750035436ee",
                        "amount": "20",
                        "iconUrl": "",
                        "isERC1155": false,
                        "isERC721": false,
                        "sign": true,
                        "value": ""
                    }
                ]
            }
        ]
    },
    "profile": {
        "basic_info": {
            "baseFee": "",
            "blockNumber": 9388110,
            "callData": "0xee5301d500000000000000000000000098fbc4eecff3b8b92be7115ae2c0336eaa1907fb586c40ef38d3e5463c30e0b7febf02a2881b660992fe8f95217f5635dd4aa2aff2937d3178fffa2b43891ac8e317c5f170b56479ef9568ea0ec8aa1a53dcbbf700000000000000000000000000000000000000000000000000000000000000a00000000000000000000000000000000000000000000000000000000000000100000000000000000000000000000000000000000000000000000000000000000230ea81cd0ace28e6c23e7690b4ffe5043c820fe418d62159b3d42df0f2d74a1cf3f4c2644f2094d7a75d1f57b1705e39b0e57643855665d0fbf29a2bb891aa7b000000000000000000000000000000000000000000000000000000000000001f636f6465783a3a35653333623738376233623633653766666438393865306600",
            "debugEnable": true,
            "errorInfo": "",
            "eventCount": 4,
            "feeRecipient": "0xea674fdde714fd979de3edf0f56aa9716b898ec8",
            "formatValue": "0",
            "gasLimit": 360280,
            "gasPrice": "2",
            "gasUsed": 274028,
            "intTxnCount": 8,
            "internalRevert": false,
            "internalRevertMessage": "",
            "isContractCreation": false,
            "isFlashloan": false,
            "maxFee": "",
            "nonce": 411065,
            "overwritedBlockNumber": -1,
            "priorityFee": "",
            "receiver": "0xd8b93107d820d294cd8082a15c65261ee9d30790",
            "revertMessage": "",
            "sender": "0x4e57529d3630b4ad415bdedda508e40e4c632baf",
            "simulationEnable": true,
            "sourceTxnHash": "0xad188f04887a7c3cd4152bff0b33d31df34469d8e5a54009756f260911e95955",
            "status": true,
            "timestamp": "2020-01-31T05:14:20Z",
            "transactionFee": "0.000548056",
            "txnHash": "0xad188f04887a7c3cd4152bff0b33d31df34469d8e5a54009756f260911e95955",
            "txnIndex": 44,
            "type": 0,
            "value": "0"
        },
        "fund_flow": [
            {
                "amount": "20",
                "from": "0xd8b93107d820d294cd8082a15c65261ee9d30790",
                "id": 1,
                "isERC1155": false,
                "isERC721": false,
                "isReverted": false,
                "order": 1,
                "to": "0xbe25ee3619472545418acb609b0ce6ca6f69bdfb",
                "token": "0xf226e38c3007b3d974fc79bcf5a77750035436ee"
            },
            {
                "amount": "1",
                "from": "0x0000000000000000000000000000000000000000",
                "id": 2,
                "isERC1155": false,
                "isERC721": true,
                "isReverted": false,
                "order": 2,
                "to": "0x98fbc4eecff3b8b92be7115ae2c0336eaa1907fb",
                "token": "0x8853b05833029e3cf8d3cbb592f9784fa43d2a79",
                "tokenID": "423571"
            }
        ],
        "token_infos": [
            {
                "address": "0xc02aaa39b223fe8d0a0e5c4f27ead9083c756cc2",
                "decimals": 18
            },
            {
                "address": "0xf226e38c3007b3d974fc79bcf5a77750035436ee",
                "decimals": 18
            },
            {
                "address": "0xeeeeeeeeeeeeeeeeeeeeeeeeeeeeeeeeeeeeeeee",
                "decimals": 18
            }
        ]
    },
    "address_label": {
        "labels": [
            {
                "address": "0x0000000000000000000000000000000000000002",
                "label": "Precompiled"
            },
            {
                "address": "0x0000000000000000000000000000000000000004",
                "label": "Precompiled"
            },
            {
                "address": "0xeeeeeeeeeeeeeeeeeeeeeeeeeeeeeeeeeeeeeeee",
                "label": "Ether"
            },
            {
                "address": "0xf226e38c3007b3d974fc79bcf5a77750035436ee",
                "label": "CodexCoin (CODX)"
            },
            {
                "address": "0x8853b05833029e3cf8d3cbb592f9784fa43d2a79",
                "label": "Codex Record: CR Token"
            },
            {
                "address": "0x0000000000000000000000000000000000000001",
                "label": "Precompiled"
            },
            {
                "address": "0x0000000000000000000000000000000000000000",
                "label": "Null Address"
            },
            {
                "address": "0x2c00a92a9c5c919a1a4b5a8ee6bc520f61dbe421",
                "label": "CodexRecord"
            },
            {
                "address": "0x0000000000000000000000000000000000000003",
                "label": "Precompiled"
            }
        ]
    },
    "trace": {
        "accountLabels": null,
        "dataMap": {
            "-1": {
                "invocation": {
                    "address": "0x4e57529d3630b4ad415bdedda508e40e4c632baf",
                    "callData": "",
                    "decodedMethod": null,
                    "errorInfo": "",
                    "fromAddress": "",
                    "gasUsed": 0,
                    "id": -1,
                    "methodDecoded": false,
                    "operation": "",
                    "output": "",
                    "revert": false,
                    "revertMessage": "",
                    "selector": "",
                    "status": false,
                    "value": ""
                },
                "nodeType": 0
            },
            "0": {
                "invocation": {
                    "address": "0xd8b93107d820d294cd8082a15c65261ee9d30790",
                    "callData": "0x00000000000000000000000098fbc4eecff3b8b92be7115ae2c0336eaa1907fb586c40ef38d3e5463c30e0b7febf02a2881b660992fe8f95217f5635dd4aa2aff2937d3178fffa2b43891ac8e317c5f170b56479ef9568ea0ec8aa1a53dcbbf700000000000000000000000000000000000000000000000000000000000000a00000000000000000000000000000000000000000000000000000000000000100000000000000000000000000000000000000000000000000000000000000000230ea81cd0ace28e6c23e7690b4ffe5043c820fe418d62159b3d42df0f2d74a1cf3f4c2644f2094d7a75d1f57b1705e39b0e57643855665d0fbf29a2bb891aa7b000000000000000000000000000000000000000000000000000000000000001f636f6465783a3a35653333623738376233623633653766666438393865306600",
                    "decodedMethod": {
                        "callParams": [
                            {
                                "name": "_to",
                                "type": "address",
                                "value": "0x98fbc4eecff3b8b92be7115ae2c0336eaa1907fb"
                            },
                            {
                                "name": "_nameHash",
                                "type": "bytes32",
                                "value": "0x586c40ef38d3e5463c30e0b7febf02a2881b660992fe8f95217f5635dd4aa2af"
                            },
                            {
                                "name": "_descriptionHash",
                                "type": "bytes32",
                                "value": "0xf2937d3178fffa2b43891ac8e317c5f170b56479ef9568ea0ec8aa1a53dcbbf7"
                            },
                            {
                                "name": "_fileHashes",
                                "type": "bytes32[]",
                                "value": [
                                    "0x30ea81cd0ace28e6c23e7690b4ffe5043c820fe418d62159b3d42df0f2d74a1c",
                                    "0xf3f4c2644f2094d7a75d1f57b1705e39b0e57643855665d0fbf29a2bb891aa7b"
                                ]
                            },
                            {
                                "name": "_data",
                                "type": "bytes",
                                "value": "0x636f6465783a3a356533336237383762336236336537666664383938653066"
                            }
                        ],
                        "constructorArguments": "",
                        "name": "mint",
                        "returnParams": [],
                        "signature": "mint(address,bytes32,bytes32,bytes32[],bytes)"
                    },
                    "errorInfo": "",
                    "fromAddress": "0x4e57529d3630b4ad415bdedda508e40e4c632baf",
                    "gasUsed": 274028,
                    "id": 0,
                    "methodDecoded": true,
                    "operation": "CALL",
                    "output": "",
                    "revert": false,
                    "revertMessage": "",
                    "selector": "0xee5301d5",
                    "status": true,
                    "value": "0"
                },
                "nodeType": 0
            },
            "1": {
                "invocation": {
                    "address": "0x029c8f8668c2f89379e23ba27c6af9847a1ceec7",
                    "callData": "0xee5301d500000000000000000000000000000000000000000000000000000000",
                    "decodedMethod": null,
                    "errorInfo": "",
                    "fromAddress": "0xd8b93107d820d294cd8082a15c65261ee9d30790",
                    "gasUsed": 6961,
                    "id": 1,
                    "methodDecoded": false,
                    "operation": "STATICCALL",
                    "output": "0x000000000000000000000000000000000000000000000001158e460913d00000",
                    "revert": false,
                    "revertMessage": "",
                    "selector": "0xc5ae44de",
                    "status": true,
                    "value": "0"
                },
                "nodeType": 0
            },
            "10": {
                "event": {
                    "contract": "0x8853b05833029e3cf8d3cbb592f9784fa43d2a79",
                    "decodedLog": {
                        "name": "Transfer",
                        "params": [
                            {
                                "name": "from",
                                "type": "address",
                                "value": "0x0000000000000000000000000000000000000000"
                            },
                            {
                                "name": "to",
                                "type": "address",
                                "value": "0x98fbc4eecff3b8b92be7115ae2c0336eaa1907fb"
                            },
                            {
                                "decimalAvailable": true,
                                "name": "tokenId",
                                "type": "uint256",
                                "value": "423,571"
                            }
                        ],
                        "signature": "Transfer(address,address,uint256)"
                    },
                    "id": 10,
                    "logData": "0x",
                    "logDecoded": true,
                    "operation": "EVENT",
                    "revert": false,
                    "status": true,
                    "topics": [
                        "0xddf252ad1be2c89b69c2b068fc378daa952ba7f163c4a11628f55a4df523b3ef",
                        "0x0000000000000000000000000000000000000000000000000000000000000000",
                        "0x00000000000000000000000098fbc4eecff3b8b92be7115ae2c0336eaa1907fb",
                        "0x0000000000000000000000000000000000000000000000000000000000067693"
                    ]
                },
                "nodeType": 1
            },
            "11": {
                "event": {
                    "contract": "0x8853b05833029e3cf8d3cbb592f9784fa43d2a79",
                    "decodedLog": {
                        "name": "Minted",
                        "params": [
                            {
                                "name": "_tokenId",
                                "type": "uint256",
                                "value": "423,571"
                            },
                            {
                                "name": "_data",
                                "type": "bytes",
                                "value": "0x636f6465783a3a356533336237383762336236336537666664383938653066"
                            }
                        ],
                        "signature": "Minted(uint256,bytes)"
                    },
                    "id": 11,
                    "logData": "0x00000000000000000000000000000000000000000000000000000000000676930000000000000000000000000000000000000000000000000000000000000040000000000000000000000000000000000000000000000000000000000000001f636f6465783a3a35653333623738376233623633653766666438393865306600",
                    "logDecoded": true,
                    "operation": "EVENT",
                    "revert": false,
                    "status": true,
                    "topics": [
                        "0x9573133e4bf0477d257d5e746e10de577953ee706da897be78cf668a64c16a16"
                    ]
                },
                "nodeType": 1
            },
            "12": {
                "event": {
                    "contract": "0xd8b93107d820d294cd8082a15c65261ee9d30790",
                    "decodedLog": null,
                    "id": 12,
                    "logData": "0x",
                    "logDecoded": false,
                    "operation": "EVENT",
                    "revert": false,
                    "status": true,
                    "topics": []
                },
                "nodeType": 1
            },
            "2": {
                "invocation": {
                    "address": "0x8853b05833029e3cf8d3cbb592f9784fa43d2a79",
                    "callData": "0x",
                    "decodedMethod": {
                        "callParams": [],
                        "constructorArguments": "",
                        "name": "feeRecipient",
                        "returnParams": [
                            {
                                "name": "",
                                "type": "address",
                                "value": "0x0000000000000000000000000000000000000000"
                            }
                        ],
                        "signature": "feeRecipient()"
                    },
                    "errorInfo": "",
                    "fromAddress": "0x029c8f8668c2f89379e23ba27c6af9847a1ceec7",
                    "gasUsed": 3311,
                    "id": 2,
                    "methodDecoded": true,
                    "operation": "STATICCALL",
                    "output": "0x0000000000000000000000000000000000000000000000000000000000000000",
                    "revert": false,
                    "revertMessage": "",
                    "selector": "0x46904840",
                    "status": true,
                    "value": "0"
                },
                "nodeType": 0
            },
            "3": {
                "invocation": {
                    "address": "0x2c00a92a9c5c919a1a4b5a8ee6bc520f61dbe421",
                    "callData": "0x",
                    "decodedMethod": {
                        "callParams": [],
                        "constructorArguments": "",
                        "name": "feeRecipient",
                        "returnParams": [
                            {
                                "name": "",
                                "type": "address",
                                "value": "0x0000000000000000000000000000000000000000"
                            }
                        ],
                        "signature": "feeRecipient()"
                    },
                    "errorInfo": "",
                    "fromAddress": "0x8853b05833029e3cf8d3cbb592f9784fa43d2a79",
                    "gasUsed": 1423,
                    "id": 3,
                    "methodDecoded": true,
                    "operation": "DELEGATECALL",
                    "output": "0x0000000000000000000000000000000000000000000000000000000000000000",
                    "revert": false,
                    "revertMessage": "",
                    "selector": "0x46904840",
                    "status": true,
                    "value": "0"
                },
                "nodeType": 0
            },
            "4": {
                "invocation": {
                    "address": "0x029c8f8668c2f89379e23ba27c6af9847a1ceec7",
                    "callData": "0x",
                    "decodedMethod": {
                        "callParams": [],
                        "constructorArguments": "",
                        "name": "feeRecipient",
                        "returnParams": [
                            {
                                "name": "",
                                "type": "address",
                                "value": "0xbe25ee3619472545418acb609b0ce6ca6f69bdfb"
                            }
                        ],
                        "signature": "feeRecipient()"
                    },
                    "errorInfo": "",
                    "fromAddress": "0xd8b93107d820d294cd8082a15c65261ee9d30790",
                    "gasUsed": 1083,
                    "id": 4,
                    "methodDecoded": true,
                    "operation": "STATICCALL",
                    "output": "0x000000000000000000000000be25ee3619472545418acb609b0ce6ca6f69bdfb",
                    "revert": false,
                    "revertMessage": "",
                    "selector": "0x46904840",
                    "status": true,
                    "value": "0"
                },
                "nodeType": 0
            },
            "5": {
                "invocation": {
                    "address": "0xf226e38c3007b3d974fc79bcf5a77750035436ee",
                    "callData": "0x000000000000000000000000be25ee3619472545418acb609b0ce6ca6f69bdfb000000000000000000000000000000000000000000000001158e460913d00000",
                    "decodedMethod": {
                        "callParams": [
                            {
                                "name": "_to",
                                "type": "address",
                                "value": "0xbe25ee3619472545418acb609b0ce6ca6f69bdfb"
                            },
                            {
                                "decimalAvailable": true,
                                "name": "_value",
                                "type": "uint256",
                                "value": "20,000,000,000,000,000,000"
                            }
                        ],
                        "constructorArguments": "",
                        "name": "transfer",
                        "returnParams": [
                            {
                                "name": "",
                                "type": "bool",
                                "value": true
                            }
                        ],
                        "signature": "transfer(address,uint256)"
                    },
                    "errorInfo": "",
                    "fromAddress": "0xd8b93107d820d294cd8082a15c65261ee9d30790",
                    "gasUsed": 16545,
                    "id": 5,
                    "methodDecoded": true,
                    "operation": "CALL",
                    "output": "0x0000000000000000000000000000000000000000000000000000000000000001",
                    "revert": false,
                    "revertMessage": "",
                    "selector": "0xa9059cbb",
                    "status": true,
                    "value": "0"
                },
                "nodeType": 0
            },
            "6": {
                "event": {
                    "contract": "0xf226e38c3007b3d974fc79bcf5a77750035436ee",
                    "decodedLog": {
                        "name": "Transfer",
                        "params": [
                            {
                                "name": "from",
                                "type": "address",
                                "value": "0xd8b93107d820d294cd8082a15c65261ee9d30790"
                            },
                            {
                                "name": "to",
                                "type": "address",
                                "value": "0xbe25ee3619472545418acb609b0ce6ca6f69bdfb"
                            },
                            {
                                "decimalAvailable": true,
                                "name": "value",
                                "type": "uint256",
                                "value": "20,000,000,000,000,000,000"
                            }
                        ],
                        "signature": "Transfer(address,address,uint256)"
                    },
                    "id": 6,
                    "logData": "0x000000000000000000000000000000000000000000000001158e460913d00000",
                    "logDecoded": true,
                    "operation": "EVENT",
                    "revert": false,
                    "status": true,
                    "topics": [
                        "0xddf252ad1be2c89b69c2b068fc378daa952ba7f163c4a11628f55a4df523b3ef",
                        "0x000000000000000000000000d8b93107d820d294cd8082a15c65261ee9d30790",
                        "0x000000000000000000000000be25ee3619472545418acb609b0ce6ca6f69bdfb"
                    ]
                },
                "nodeType": 1
            },
            "7": {
                "invocation": {
                    "address": "0x029c8f8668c2f89379e23ba27c6af9847a1ceec7",
                    "callData": "0x0000000000000000000000004e57529d3630b4ad415bdedda508e40e4c632baf",
                    "decodedMethod": null,
                    "errorInfo": "",
                    "fromAddress": "0xd8b93107d820d294cd8082a15c65261ee9d30790",
                    "gasUsed": 1264,
                    "id": 7,
                    "methodDecoded": false,
                    "operation": "STATICCALL",
                    "output": "0x0000000000000000000000000000000000000000000000000000000000000001",
                    "revert": false,
                    "revertMessage": "",
                    "selector": "0xb3c2f627",
                    "status": true,
                    "value": "0"
                },
                "nodeType": 0
            },
            "8": {
                "invocation": {
                    "address": "0x8853b05833029e3cf8d3cbb592f9784fa43d2a79",
                    "callData": "0x00000000000000000000000098fbc4eecff3b8b92be7115ae2c0336eaa1907fb586c40ef38d3e5463c30e0b7febf02a2881b660992fe8f95217f5635dd4aa2aff2937d3178fffa2b43891ac8e317c5f170b56479ef9568ea0ec8aa1a53dcbbf700000000000000000000000000000000000000000000000000000000000000a00000000000000000000000000000000000000000000000000000000000000100000000000000000000000000000000000000000000000000000000000000000230ea81cd0ace28e6c23e7690b4ffe5043c820fe418d62159b3d42df0f2d74a1cf3f4c2644f2094d7a75d1f57b1705e39b0e57643855665d0fbf29a2bb891aa7b000000000000000000000000000000000000000000000000000000000000001f636f6465783a3a35653333623738376233623633653766666438393865306600",
                    "decodedMethod": {
                        "callParams": [
                            {
                                "name": "_to",
                                "type": "address",
                                "value": "0x98fbc4eecff3b8b92be7115ae2c0336eaa1907fb"
                            },
                            {
                                "name": "_nameHash",
                                "type": "bytes32",
                                "value": "0x586c40ef38d3e5463c30e0b7febf02a2881b660992fe8f95217f5635dd4aa2af"
                            },
                            {
                                "name": "_descriptionHash",
                                "type": "bytes32",
                                "value": "0xf2937d3178fffa2b43891ac8e317c5f170b56479ef9568ea0ec8aa1a53dcbbf7"
                            },
                            {
                                "name": "_fileHashes",
                                "type": "bytes32[]",
                                "value": [
                                    "0x30ea81cd0ace28e6c23e7690b4ffe5043c820fe418d62159b3d42df0f2d74a1c",
                                    "0xf3f4c2644f2094d7a75d1f57b1705e39b0e57643855665d0fbf29a2bb891aa7b"
                                ]
                            },
                            {
                                "name": "_data",
                                "type": "bytes",
                                "value": "0x636f6465783a3a356533336237383762336236336537666664383938653066"
                            }
                        ],
                        "constructorArguments": "",
                        "name": "mint",
                        "returnParams": [],
                        "signature": "mint(address,bytes32,bytes32,bytes32[],bytes)"
                    },
                    "errorInfo": "",
                    "fromAddress": "0xd8b93107d820d294cd8082a15c65261ee9d30790",
                    "gasUsed": 211527,
                    "id": 8,
                    "methodDecoded": true,
                    "operation": "CALL",
                    "output": "",
                    "revert": false,
                    "revertMessage": "",
                    "selector": "0xee5301d5",
                    "status": true,
                    "value": "0"
                },
                "nodeType": 0
            },
            "9": {
                "invocation": {
                    "address": "0x2c00a92a9c5c919a1a4b5a8ee6bc520f61dbe421",
                    "callData": "0x00000000000000000000000098fbc4eecff3b8b92be7115ae2c0336eaa1907fb586c40ef38d3e5463c30e0b7febf02a2881b660992fe8f95217f5635dd4aa2aff2937d3178fffa2b43891ac8e317c5f170b56479ef9568ea0ec8aa1a53dcbbf700000000000000000000000000000000000000000000000000000000000000a00000000000000000000000000000000000000000000000000000000000000100000000000000000000000000000000000000000000000000000000000000000230ea81cd0ace28e6c23e7690b4ffe5043c820fe418d62159b3d42df0f2d74a1cf3f4c2644f2094d7a75d1f57b1705e39b0e57643855665d0fbf29a2bb891aa7b000000000000000000000000000000000000000000000000000000000000001f636f6465783a3a35653333623738376233623633653766666438393865306600",
                    "decodedMethod": {
                        "callParams": [
                            {
                                "name": "_to",
                                "type": "address",
                                "value": "0x98fbc4eecff3b8b92be7115ae2c0336eaa1907fb"
                            },
                            {
                                "name": "_nameHash",
                                "type": "bytes32",
                                "value": "0x586c40ef38d3e5463c30e0b7febf02a2881b660992fe8f95217f5635dd4aa2af"
                            },
                            {
                                "name": "_descriptionHash",
                                "type": "bytes32",
                                "value": "0xf2937d3178fffa2b43891ac8e317c5f170b56479ef9568ea0ec8aa1a53dcbbf7"
                            },
                            {
                                "name": "_fileHashes",
                                "type": "bytes32[]",
                                "value": [
                                    "0x30ea81cd0ace28e6c23e7690b4ffe5043c820fe418d62159b3d42df0f2d74a1c",
                                    "0xf3f4c2644f2094d7a75d1f57b1705e39b0e57643855665d0fbf29a2bb891aa7b"
                                ]
                            },
                            {
                                "name": "_data",
                                "type": "bytes",
                                "value": "0x636f6465783a3a356533336237383762336236336537666664383938653066"
                            }
                        ],
                        "constructorArguments": "",
                        "name": "mint",
                        "returnParams": [],
                        "signature": "mint(address,bytes32,bytes32,bytes32[],bytes)"
                    },
                    "errorInfo": "",
                    "fromAddress": "0x8853b05833029e3cf8d3cbb592f9784fa43d2a79",
                    "gasUsed": 209582,
                    "id": 9,
                    "methodDecoded": true,
                    "operation": "DELEGATECALL",
                    "output": "",
                    "revert": false,
                    "revertMessage": "",
                    "selector": "0xee5301d5",
                    "status": true,
                    "value": "0"
                },
                "nodeType": 0
            }
        },
        "gasFlame": [
            {
                "children": [
                    {
                        "children": [
                            {
                                "children": [],
                                "depth": 0,
                                "name": "Initial Gas",
                                "value": 24540
                            },
                            {
                                "children": [
                                    {
                                        "children": [
                                            {
                                                "children": [
                                                    {
                                                        "children": [],
                                                        "depth": 3,
                                                        "name": "feeRecipient",
                                                        "value": 1423
                                                    }
                                                ],
                                                "depth": 2,
                                                "name": "feeRecipient",
                                                "value": 3311
                                            }
                                        ],
                                        "depth": 1,
                                        "name": "0xc5ae44de",
                                        "value": 6961
                                    },
                                    {
                                        "children": [],
                                        "depth": 1,
                                        "name": "feeRecipient",
                                        "value": 1083
                                    },
                                    {
                                        "children": [],
                                        "depth": 1,
                                        "name": "transfer",
                                        "value": 16545
                                    },
                                    {
                                        "children": [],
                                        "depth": 1,
                                        "name": "0xb3c2f627",
                                        "value": 1264
                                    },
                                    {
                                        "children": [
                                            {
                                                "children": [],
                                                "depth": 2,
                                                "name": "mint",
                                                "value": 209582
                                            }
                                        ],
                                        "depth": 1,
                                        "name": "mint",
                                        "value": 211527
                                    }
                                ],
                                "depth": 0,
                                "name": "Executed Gas",
                                "value": 249488
                            }
                        ],
                        "depth": -1,
                        "name": "Actual Gas Used",
                        "value": 274028
                    },
                    {
                        "children": [],
                        "depth": -1,
                        "name": "Refunded Gas",
                        "value": 0
                    }
                ],
                "depth": -2,
                "name": "Total Gas",
                "value": 274028
            }
        ],
        "isConfirmed": true,
        "mainTrace": [
            {
                "children": [
                    {
                        "children": [
                            {
                                "children": [
                                    {
                                        "children": [
                                            {
                                                "children": [],
                                                "depth": 3,
                                                "id": 3,
                                                "order": 3
                                            }
                                        ],
                                        "depth": 2,
                                        "id": 2,
                                        "order": 2
                                    }
                                ],
                                "depth": 1,
                                "id": 1,
                                "order": 1
                            },
                            {
                                "children": [],
                                "depth": 1,
                                "id": 4,
                                "order": 4
                            },
                            {
                                "children": [
                                    {
                                        "children": [],
                                        "depth": 2,
                                        "id": 6,
                                        "order": 6
                                    }
                                ],
                                "depth": 1,
                                "id": 5,
                                "order": 5
                            },
                            {
                                "children": [],
                                "depth": 1,
                                "id": 7,
                                "order": 7
                            },
                            {
                                "children": [
                                    {
                                        "children": [
                                            {
                                                "children": [],
                                                "depth": 3,
                                                "id": 10,
                                                "order": 10
                                            },
                                            {
                                                "children": [],
                                                "depth": 3,
                                                "id": 11,
                                                "order": 11
                                            }
                                        ],
                                        "depth": 2,
                                        "id": 9,
                                        "order": 9
                                    }
                                ],
                                "depth": 1,
                                "id": 8,
                                "order": 8
                            },
                            {
                                "children": [],
                                "depth": 1,
                                "id": 12,
                                "order": 12
                            }
                        ],
                        "depth": 0,
                        "id": 0,
                        "order": 0
                    }
                ],
                "depth": -1,
                "id": -1,
                "order": -1
            }
        ],
        "mainTraceNodeCount": 13,
        "parentIdMap": {
            "0": -1,
            "1": 0,
            "10": 9,
            "11": 9,
            "12": 0,
            "2": 1,
            "3": 2,
            "4": 0,
            "5": 0,
            "6": 5,
            "7": 0,
            "8": 0,
            "9": 8
        },
        "tidyTrace": [
            {
                "children": [
                    {
                        "children": [
                            {
                                "children": [
                                    {
                                        "children": [],
                                        "depth": 2,
                                        "id": 6,
                                        "order": 6
                                    }
                                ],
                                "depth": 1,
                                "id": 5,
                                "order": 5
                            },
                            {
                                "children": [
                                    {
                                        "children": [
                                            {
                                                "children": [],
                                                "depth": 3,
                                                "id": 10,
                                                "order": 10
                                            },
                                            {
                                                "children": [],
                                                "depth": 3,
                                                "id": 11,
                                                "order": 11
                                            }
                                        ],
                                        "depth": 2,
                                        "id": 9,
                                        "order": 9
                                    }
                                ],
                                "depth": 1,
                                "id": 8,
                                "order": 8
                            },
                            {
                                "children": [],
                                "depth": 1,
                                "id": 12,
                                "order": 12
                            }
                        ],
                        "depth": 0,
                        "id": 0,
                        "order": 0
                    }
                ],
                "depth": -1,
                "id": -1,
                "order": -1
            }
        ],
        "tidyTraceNodeCount": 8
    },
    "state_change": {
        "stateChanges": [
            {
                "address": "0x8853b05833029e3cf8d3cbb592f9784fa43d2a79",
                "erc": "ERC-721",
                "slots": [
                    {
                        "current": "0x0000000000000000000000000000000000000000000000000000000000067693",
                        "key": "0xf3f7a9fe364faab93b216da50a3214154f22a0a2b415b23a84c8169e8b69e576",
                        "prev": "0x0000000000000000000000000000000000000000000000000000000000000000"
                    },
                    {
                        "current": "0x586c40ef38d3e5463c30e0b7febf02a2881b660992fe8f95217f5635dd4aa2af",
                        "key": "0x00a4ecc18cde345c0652ec52895a61c5b54fd985e8b58e2440c1bb1571fc6055",
                        "prev": "0x0000000000000000000000000000000000000000000000000000000000000000"
                    },
                    {
                        "current": "0x00000000000000000000000098fbc4eecff3b8b92be7115ae2c0336eaa1907fb",
                        "key": "0xf31badb3c604fb2878acc20898881179959dd1cf00e65f57956096424c40d9f4",
                        "prev": "0x0000000000000000000000000000000000000000000000000000000000000000"
                    },
                    {
                        "current": "0x0000000000000000000000000000000000000000000000000000000000000bf5",
                        "key": "0xb6232cf5c7c682374b21ff6b8afb6c0e797ef1bfee7d8f06da1ea30f692c36d3",
                        "prev": "0x0000000000000000000000000000000000000000000000000000000000000bf4"
                    },
                    {
                        "current": "0xf2937d3178fffa2b43891ac8e317c5f170b56479ef9568ea0ec8aa1a53dcbbf7",
                        "key": "0x00a4ecc18cde345c0652ec52895a61c5b54fd985e8b58e2440c1bb1571fc6056",
                        "prev": "0x0000000000000000000000000000000000000000000000000000000000000000"
                    },
                    {
                        "current": "0x30ea81cd0ace28e6c23e7690b4ffe5043c820fe418d62159b3d42df0f2d74a1c",
                        "key": "0x03515888fe40b4fa0004347d9616c8536f8dda236b0bdb2ed66591398756f0ed",
                        "prev": "0x0000000000000000000000000000000000000000000000000000000000000000"
                    },
                    {
                        "current": "0x0000000000000000000000000000000000000000000000000000000000067693",
                        "key": "0xd603bd886949833077c70be009bb495fdd422c422b2de4ede2b9b4639334cac4",
                        "prev": "0x0000000000000000000000000000000000000000000000000000000000000000"
                    },
                    {
                        "current": "0x0000000000000000000000000000000000000000000000000000000000000bf5",
                        "key": "0x21287801582515b44349f8a17be7fc30588e2c29cda70f5fa3e40d9801e2882d",
                        "prev": "0x0000000000000000000000000000000000000000000000000000000000000bf4"
                    },
                    {
                        "current": "0x0000000000000000000000000000000000000000000000000000000000000002",
                        "key": "0x00a4ecc18cde345c0652ec52895a61c5b54fd985e8b58e2440c1bb1571fc6057",
                        "prev": "0x0000000000000000000000000000000000000000000000000000000000000000"
                    },
                    {
                        "current": "0x0000000000000000000000000000000000000000000000000000000000067694",
                        "key": "0x0000000000000000000000000000000000000000000000000000000000000008",
                        "prev": "0x0000000000000000000000000000000000000000000000000000000000067693"
                    },
                    {
                        "current": "0xf3f4c2644f2094d7a75d1f57b1705e39b0e57643855665d0fbf29a2bb891aa7b",
                        "key": "0x03515888fe40b4fa0004347d9616c8536f8dda236b0bdb2ed66591398756f0ee",
                        "prev": "0x0000000000000000000000000000000000000000000000000000000000000000"
                    },
                    {
                        "current": "0x0000000000000000000000000000000000000000000000000000000000000bf4",
                        "key": "0xeb166592e4f0e857e9562e32c70c5c676b741b6d06bfc8a64c32fb54f524e635",
                        "prev": "0x0000000000000000000000000000000000000000000000000000000000000000"
                    }
                ],
                "storageVariables": [
                    {
                        "name": "tokenData",
                        "type": "mapping(uint256 => struct CodexRecordMetadata.CodexRecordData)",
                        "value": {
                            "pairs": [
                                {
                                    "key": "423571",
                                    "value": {
                                        "fields": [
                                            {
                                                "name": "nameHash",
                                                "type": "bytes32",
                                                "value": {
                                                    "current": "0x586c40ef38d3e5463c30e0b7febf02a2881b660992fe8f95217f5635dd4aa2af",
                                                    "prev": "0x0000000000000000000000000000000000000000000000000000000000000000",
                                                    "typeTag": 1
                                                }
                                            },
                                            {
                                                "name": "descriptionHash",
                                                "type": "bytes32",
                                                "value": {
                                                    "current": "0xf2937d3178fffa2b43891ac8e317c5f170b56479ef9568ea0ec8aa1a53dcbbf7",
                                                    "prev": "0x0000000000000000000000000000000000000000000000000000000000000000",
                                                    "typeTag": 1
                                                }
                                            },
                                            {
                                                "name": "fileHashes",
                                                "type": "bytes32[]",
                                                "value": {
                                                    "elemType": "bytes32",
                                                    "elems": [
                                                        {
                                                            "index": 0,
                                                            "value": {
                                                                "current": "0x30ea81cd0ace28e6c23e7690b4ffe5043c820fe418d62159b3d42df0f2d74a1c",
                                                                "prev": "0x0000000000000000000000000000000000000000000000000000000000000000",
                                                                "typeTag": 1
                                                            }
                                                        },
                                                        {
                                                            "index": 1,
                                                            "value": {
                                                                "current": "0xf3f4c2644f2094d7a75d1f57b1705e39b0e57643855665d0fbf29a2bb891aa7b",
                                                                "prev": "0x0000000000000000000000000000000000000000000000000000000000000000",
                                                                "typeTag": 1
                                                            }
                                                        }
                                                    ],
                                                    "typeTag": 2
                                                }
                                            }
                                        ],
                                        "typeTag": 3
                                    }
                                }
                            ],
                            "typeTag": 4
                        }
                    },
                    {
                        "name": "allTokens",
                        "type": "uint256[]",
                        "value": {
                            "elemType": "uint256",
                            "elems": [
                                {
                                    "index": 423571,
                                    "value": {
                                        "current": "423571",
                                        "prev": "0",
                                        "typeTag": 1
                                    }
                                }
                            ],
                            "typeTag": 2
                        }
                    },
                    {
                        "name": "ownedTokens",
                        "type": "mapping(address => uint256[])",
                        "value": {
                            "pairs": [
                                {
                                    "key": "0x98fbc4eecff3b8b92be7115ae2c0336eaa1907fb",
                                    "value": {
                                        "elemType": "uint256",
                                        "elems": [
                                            {
                                                "index": 3060,
                                                "value": {
                                                    "current": "423571",
                                                    "prev": "0",
                                                    "typeTag": 1
                                                }
                                            }
                                        ],
                                        "typeTag": 2
                                    }
                                }
                            ],
                            "typeTag": 4
                        }
                    },
                    {
                        "name": "tokenOwner",
                        "type": "mapping(uint256 => address)",
                        "value": {
                            "pairs": [
                                {
                                    "key": "423571",
                                    "value": {
                                        "current": "0x98fbc4eecff3b8b92be7115ae2c0336eaa1907fb",
                                        "prev": "0x0000000000000000000000000000000000000000",
                                        "typeTag": 1
                                    }
                                }
                            ],
                            "typeTag": 4
                        }
                    },
                    {
                        "name": "ownedTokensCount",
                        "type": "mapping(address => uint256)",
                        "value": {
                            "pairs": [
                                {
                                    "key": "0x98fbc4eecff3b8b92be7115ae2c0336eaa1907fb",
                                    "value": {
                                        "current": "3061",
                                        "prev": "3060",
                                        "typeTag": 1
                                    }
                                }
                            ],
                            "typeTag": 4
                        }
                    },
                    {
                        "name": "ownedTokensIndex",
                        "type": "mapping(uint256 => uint256)",
                        "value": {
                            "pairs": [
                                {
                                    "key": "423571",
                                    "value": {
                                        "current": "3060",
                                        "prev": "0",
                                        "typeTag": 1
                                    }
                                }
                            ],
                            "typeTag": 4
                        }
                    }
                ]
            },
            {
                "address": "0xf226e38c3007b3d974fc79bcf5a77750035436ee",
                "erc": "ERC-20",
                "slots": [
                    {
                        "current": "0x00000000000000000000000000000000000000000001da9c084205a0ec000000",
                        "key": "0xdee88efcd342fe5b98250b31dc441bfa9bf019ea9b55d0e763c4847a9ccc264f",
                        "prev": "0x00000000000000000000000000000000000000000001da9d1dd04ba9ffd00000"
                    },
                    {
                        "current": "0x00000000000000000000000000000000000000000006f701a81ea312d0680000",
                        "key": "0x4f637aa1ab61f546c750f24a046aa7ff3d4eaa1d8e66e8e119d2fa014d667b83",
                        "prev": "0x00000000000000000000000000000000000000000006f70092905d09bc980000"
                    }
                ],
                "storageVariables": [
                    {
                        "name": "balances",
                        "type": "mapping(address => uint256)",
                        "value": {
                            "pairs": [
                                {
                                    "key": "0xbe25ee3619472545418acb609b0ce6ca6f69bdfb",
                                    "value": {
                                        "current": "8420010000000000000000000",
                                        "prev": "8419990000000000000000000",
                                        "typeTag": 1
                                    }
                                },
                                {
                                    "key": "0xd8b93107d820d294cd8082a15c65261ee9d30790",
                                    "value": {
                                        "current": "2241280000000000000000000",
                                        "prev": "2241300000000000000000000",
                                        "typeTag": 1
                                    }
                                }
                            ],
                            "typeTag": 4
                        }
                    }
                ]
            }
        ]
    }
}