{
    "balance_change": {
        "balanceChanges": []
    },
    "profile": {
        "basic_info": {
            "baseFee": "6.266299973",
            "blockNumber": 20023016,
            "callData": "0x10d008bd000000000000000000000000000000000000000000000000000000000000820500000000000000000000000000000000000000000000000000000000000000400000000000000000000000000000000000000000000000000000000000000320cae93b6f6fa806e3ef19f236844536c8ceacd4c254161c69a9723964824cfca7e726b28ff7f31ba05578c53df2c8551509b263dc9cca4fda5d0dd61361685102016170f1c5a1cad6edd7626b2913cffd4f4e40c6e18071c0e511b7085a377988302e31382e302d64657600000000000000000000000000000000000000000000569e75fc77c1a856f6daaf9e69d8a9566ca34aa47f9133711ce065a571af0cfd000000000000000000000000000000633b68f5d8d3a86593ebb815b4663bcbe00000000000000000000000000000000000000000000000000000000000008205000000000000000000000000000000000000000000000000000000000e4e1c0000000000000000000000000000000000000000000000000000000000665fdeb700000000000000000000000000000000000000000000000000000000013186e000000000000000000000000000000000000000000000000000000000000000c80000000000000000000000000000000000000000000000000000000000000001092d0490d5ab96fb27f18f65f6df511633d8ee731c817a069e11a8562d817c40000000000000000000000000000000633b68f5d8d3a86593ebb815b4663bcbe07f7681a78cd34f6173be0cd5c108b12d24ef223142c9645d7c338f20b0dae8f11f1e42b7c4b82043c391e3e8af8933f1d18ce7367c33420025bd868864ada32a09e59594bec502d07a0a8c5b370dd4e000b9eb098a23e104cc59119654de94a80000000000000000000000000000000000000000000000000000000000000000000000000000000000000000000000000000000000000000000000000000026000000000000000000000000000000000000000000000000000000000000000c80000000000000000000000000000000000000000000000000000000000000040000000000000000000000000000000000000000000000000000000000000005900000005c57230b9a1bd4f882c40c9f549a27034474e596205080c28b248a4bd262a269e4716d8038744bd9c599664d17a9396e729a455c8581b13d3afe6366953e41715e40e00649e538a03b59753e268763f4003029ea41c00000000000000",
            "debugEnable": true,
            "errorInfo": "",
            "eventCount": 4,
            "feeRecipient": "0x95222290dd7278aa3ddd389cc1e1d165cc4bafe5",
            "formatValue": "0",
            "gasLimit": 3000000,
            "gasPrice": "7.266299973",
            "gasUsed": 309390,
            "intTxnCount": 39,
            "internalRevert": false,
            "internalRevertMessage": "",
            "isContractCreation": false,
            "isFlashloan": false,
            "maxFee": "14.066211388",
            "nonce": 33339,
            "overwritedBlockNumber": -1,
            "priorityFee": "1",
            "receiver": "0x68d30f47f19c07bccef4ac7fae2dc12fca3e0dc9",
            "revertMessage": "",
            "sender": "0x000000629fbcf27a347d1aeba658435230d74a5f",
            "simulationEnable": true,
            "sourceTxnHash": "0xad9d649e08bbed27d4efe1f934fbbf6f2abdd9fde940402710edfd364722633b",
            "status": true,
            "timestamp": "2024-06-05T03:44:11Z",
            "transactionFee": "0.00224812054864647",
            "txnHash": "0xad9d649e08bbed27d4efe1f934fbbf6f2abdd9fde940402710edfd364722633b",
            "txnIndex": 70,
            "type": 2,
            "value": "0"
        },
        "fund_flow": [],
        "token_infos": [
            {
                "address": "0xeeeeeeeeeeeeeeeeeeeeeeeeeeeeeeeeeeeeeeee",
                "decimals": 18
            },
            {
                "address": "0xc02aaa39b223fe8d0a0e5c4f27ead9083c756cc2",
                "decimals": 18
            }
        ]
    },
    "address_label": {
        "labels": [
            {
                "address": "0xe84dc8e2a21e59426542ab040d77f81d6db881ee",
                "label": "TaikoL1"
            },
            {
                "address": "0x0000000000000000000000000000000000000001",
                "label": "Precompiled"
            },
            {
                "address": "0x0000000000000000000000000000000000000003",
                "label": "Precompiled"
            },
            {
                "address": "0x500735343372dd6c9b84dbc7a75babf4479742b9",
                "label": "ProverSet"
            },
            {
                "address": "0x579f40d0be111b823962043702cabe6aaa290780",
                "label": "Taiko: Rollup Address Manager"
            },
            {
                "address": "0x68d30f47f19c07bccef4ac7fae2dc12fca3e0dc9",
                "label": "Taiko: LabProver"
            },
            {
                "address": "0x4cffe56c947e26d07c14020499776db3e9ae3a23",
                "label": "TierProviderV2"
            },
            {
                "address": "0xa8e5d3a2e2052bea7f10be6a0386454b721d1f9f",
                "label": "TierRouter"
            },
            {
                "address": "0x06a9ab27c7e2255df1815e6cc0168d7755feb19a",
                "label": "Taiko: L1"
            },
            {
                "address": "0x10dea67478c5f8c5e2d90e5e9b26dbe60c54d800",
                "label": "Taiko: TAIKO Token"
            },
            {
                "address": "0x0000000000000000000000000000000000000002",
                "label": "Precompiled"
            },
            {
                "address": "0xeeeeeeeeeeeeeeeeeeeeeeeeeeeeeeeeeeeeeeee",
                "label": "Ether"
            },
            {
                "address": "0xb0f3186fc1963f774f52ff455dc86aedd0b31f81",
                "label": "ERC1967Proxy"
            },
            {
                "address": "0x8af4669e3068bae96b92cd73603f5d86bed07a9a",
                "label": "L1RollupAddressManager"
            },
            {
                "address": "0xf381868dd6b2ac8cca468d63b42f9040de2257e9",
                "label": "SgxVerifier"
            },
            {
                "address": "0x0000000000000000000000000000000000000004",
                "label": "Precompiled"
            },
            {
                "address": "0x000000629fbcf27a347d1aeba658435230d74a5f",
                "label": "Taiko: Proposer 1"
            }
        ]
    },
    "trace": {
        "accountLabels": null,
        "dataMap": {
            "-1": {
                "invocation": {
                    "address": "0x000000629fbcf27a347d1aeba658435230d74a5f",
                    "callData": "",
                    "decodedMethod": null,
                    "errorInfo": "",
                    "fromAddress": "",
                    "gasUsed": 0,
                    "id": -1,
                    "methodDecoded": false,
                    "operation": "",
                    "output": "",
                    "revert": false,
                    "revertMessage": "",
                    "selector": "",
                    "status": false,
                    "value": ""
                },
                "nodeType": 0
            },
            "0": {
                "invocation": {
                    "address": "0x68d30f47f19c07bccef4ac7fae2dc12fca3e0dc9",
                    "callData": "0x000000000000000000000000000000000000000000000000000000000000820500000000000000000000000000000000000000000000000000000000000000400000000000000000000000000000000000000000000000000000000000000320cae93b6f6fa806e3ef19f236844536c8ceacd4c254161c69a9723964824cfca7e726b28ff7f31ba05578c53df2c8551509b263dc9cca4fda5d0dd61361685102016170f1c5a1cad6edd7626b2913cffd4f4e40c6e18071c0e511b7085a377988302e31382e302d64657600000000000000000000000000000000000000000000569e75fc77c1a856f6daaf9e69d8a9566ca34aa47f9133711ce065a571af0cfd000000000000000000000000000000633b68f5d8d3a86593ebb815b4663bcbe00000000000000000000000000000000000000000000000000000000000008205000000000000000000000000000000000000000000000000000000000e4e1c0000000000000000000000000000000000000000000000000000000000665fdeb700000000000000000000000000000000000000000000000000000000013186e000000000000000000000000000000000000000000000000000000000000000c80000000000000000000000000000000000000000000000000000000000000001092d0490d5ab96fb27f18f65f6df511633d8ee731c817a069e11a8562d817c40000000000000000000000000000000633b68f5d8d3a86593ebb815b4663bcbe07f7681a78cd34f6173be0cd5c108b12d24ef223142c9645d7c338f20b0dae8f11f1e42b7c4b82043c391e3e8af8933f1d18ce7367c33420025bd868864ada32a09e59594bec502d07a0a8c5b370dd4e000b9eb098a23e104cc59119654de94a80000000000000000000000000000000000000000000000000000000000000000000000000000000000000000000000000000000000000000000000000000026000000000000000000000000000000000000000000000000000000000000000c80000000000000000000000000000000000000000000000000000000000000040000000000000000000000000000000000000000000000000000000000000005900000005c57230b9a1bd4f882c40c9f549a27034474e596205080c28b248a4bd262a269e4716d8038744bd9c599664d17a9396e729a455c8581b13d3afe6366953e41715e40e00649e538a03b59753e268763f4003029ea41c00000000000000",
                    "decodedMethod": {
                        "callParams": [
                            {
                                "name": "_blockId",
                                "type": "uint64",
                                "value": "33,285"
                            },
                            {
                                "name": "_input",
                                "type": "bytes",
                                "value": "0xcae93b6f6fa806e3ef19f236844536c8ceacd4c254161c69a9723964824cfca7e726b28ff7f31ba05578c53df2c8551509b263dc9cca4fda5d0dd61361685102016170f1c5a1cad6edd7626b2913cffd4f4e40c6e18071c0e511b7085a377988302e31382e302d64657600000000000000000000000000000000000000000000569e75fc77c1a856f6daaf9e69d8a9566ca34aa47f9133711ce065a571af0cfd000000000000000000000000000000633b68f5d8d3a86593ebb815b4663bcbe00000000000000000000000000000000000000000000000000000000000008205000000000000000000000000000000000000000000000000000000000e4e1c0000000000000000000000000000000000000000000000000000000000665fdeb700000000000000000000000000000000000000000000000000000000013186e000000000000000000000000000000000000000000000000000000000000000c80000000000000000000000000000000000000000000000000000000000000001092d0490d5ab96fb27f18f65f6df511633d8ee731c817a069e11a8562d817c40000000000000000000000000000000633b68f5d8d3a86593ebb815b4663bcbe07f7681a78cd34f6173be0cd5c108b12d24ef223142c9645d7c338f20b0dae8f11f1e42b7c4b82043c391e3e8af8933f1d18ce7367c33420025bd868864ada32a09e59594bec502d07a0a8c5b370dd4e000b9eb098a23e104cc59119654de94a80000000000000000000000000000000000000000000000000000000000000000000000000000000000000000000000000000000000000000000000000000026000000000000000000000000000000000000000000000000000000000000000c80000000000000000000000000000000000000000000000000000000000000040000000000000000000000000000000000000000000000000000000000000005900000005c57230b9a1bd4f882c40c9f549a27034474e596205080c28b248a4bd262a269e4716d8038744bd9c599664d17a9396e729a455c8581b13d3afe6366953e41715e40e00649e538a03b59753e268763f4003029ea41c00000000000000"
                            }
                        ],
                        "constructorArguments": "",
                        "name": "proveBlock",
                        "returnParams": [],
                        "signature": "proveBlock(uint64,bytes)"
                    },
                    "errorInfo": "",
                    "fromAddress": "0x000000629fbcf27a347d1aeba658435230d74a5f",
                    "gasUsed": 309390,
                    "id": 0,
                    "methodDecoded": true,
                    "operation": "CALL",
                    "output": "",
                    "revert": false,
                    "revertMessage": "",
                    "selector": "0x10d008bd",
                    "status": true,
                    "value": "0"
                },
                "nodeType": 0
            },
            "1": {
                "invocation": {
                    "address": "0x500735343372dd6c9b84dbc7a75babf4479742b9",
                    "callData": "0x000000000000000000000000000000000000000000000000000000000000820500000000000000000000000000000000000000000000000000000000000000400000000000000000000000000000000000000000000000000000000000000320cae93b6f6fa806e3ef19f236844536c8ceacd4c254161c69a9723964824cfca7e726b28ff7f31ba05578c53df2c8551509b263dc9cca4fda5d0dd61361685102016170f1c5a1cad6edd7626b2913cffd4f4e40c6e18071c0e511b7085a377988302e31382e302d64657600000000000000000000000000000000000000000000569e75fc77c1a856f6daaf9e69d8a9566ca34aa47f9133711ce065a571af0cfd000000000000000000000000000000633b68f5d8d3a86593ebb815b4663bcbe00000000000000000000000000000000000000000000000000000000000008205000000000000000000000000000000000000000000000000000000000e4e1c0000000000000000000000000000000000000000000000000000000000665fdeb700000000000000000000000000000000000000000000000000000000013186e000000000000000000000000000000000000000000000000000000000000000c80000000000000000000000000000000000000000000000000000000000000001092d0490d5ab96fb27f18f65f6df511633d8ee731c817a069e11a8562d817c40000000000000000000000000000000633b68f5d8d3a86593ebb815b4663bcbe07f7681a78cd34f6173be0cd5c108b12d24ef223142c9645d7c338f20b0dae8f11f1e42b7c4b82043c391e3e8af8933f1d18ce7367c33420025bd868864ada32a09e59594bec502d07a0a8c5b370dd4e000b9eb098a23e104cc59119654de94a80000000000000000000000000000000000000000000000000000000000000000000000000000000000000000000000000000000000000000000000000000026000000000000000000000000000000000000000000000000000000000000000c80000000000000000000000000000000000000000000000000000000000000040000000000000000000000000000000000000000000000000000000000000005900000005c57230b9a1bd4f882c40c9f549a27034474e596205080c28b248a4bd262a269e4716d8038744bd9c599664d17a9396e729a455c8581b13d3afe6366953e41715e40e00649e538a03b59753e268763f4003029ea41c00000000000000",
                    "decodedMethod": {
                        "callParams": [
                            {
                                "name": "_blockId",
                                "type": "uint64",
                                "value": "33,285"
                            },
                            {
                                "name": "_input",
                                "type": "bytes",
                                "value": "0xcae93b6f6fa806e3ef19f236844536c8ceacd4c254161c69a9723964824cfca7e726b28ff7f31ba05578c53df2c8551509b263dc9cca4fda5d0dd61361685102016170f1c5a1cad6edd7626b2913cffd4f4e40c6e18071c0e511b7085a377988302e31382e302d64657600000000000000000000000000000000000000000000569e75fc77c1a856f6daaf9e69d8a9566ca34aa47f9133711ce065a571af0cfd000000000000000000000000000000633b68f5d8d3a86593ebb815b4663bcbe00000000000000000000000000000000000000000000000000000000000008205000000000000000000000000000000000000000000000000000000000e4e1c0000000000000000000000000000000000000000000000000000000000665fdeb700000000000000000000000000000000000000000000000000000000013186e000000000000000000000000000000000000000000000000000000000000000c80000000000000000000000000000000000000000000000000000000000000001092d0490d5ab96fb27f18f65f6df511633d8ee731c817a069e11a8562d817c40000000000000000000000000000000633b68f5d8d3a86593ebb815b4663bcbe07f7681a78cd34f6173be0cd5c108b12d24ef223142c9645d7c338f20b0dae8f11f1e42b7c4b82043c391e3e8af8933f1d18ce7367c33420025bd868864ada32a09e59594bec502d07a0a8c5b370dd4e000b9eb098a23e104cc59119654de94a80000000000000000000000000000000000000000000000000000000000000000000000000000000000000000000000000000000000000000000000000000026000000000000000000000000000000000000000000000000000000000000000c80000000000000000000000000000000000000000000000000000000000000040000000000000000000000000000000000000000000000000000000000000005900000005c57230b9a1bd4f882c40c9f549a27034474e596205080c28b248a4bd262a269e4716d8038744bd9c599664d17a9396e729a455c8581b13d3afe6366953e41715e40e00649e538a03b59753e268763f4003029ea41c00000000000000"
                            }
                        ],
                        "constructorArguments": "",
                        "name": "proveBlock",
                        "returnParams": [],
                        "signature": "proveBlock(uint64,bytes)"
                    },
                    "errorInfo": "",
                    "fromAddress": "0x68d30f47f19c07bccef4ac7fae2dc12fca3e0dc9",
                    "gasUsed": 274797,
                    "id": 1,
                    "methodDecoded": true,
                    "operation": "DELEGATECALL",
                    "output": "",
                    "revert": false,
                    "revertMessage": "",
                    "selector": "0x10d008bd",
                    "status": true,
                    "value": "0"
                },
                "nodeType": 0
            },
            "10": {
                "invocation": {
                    "address": "0x8af4669e3068bae96b92cd73603f5d86bed07a9a",
                    "callData": "0x0000000000000000000000000000000000000000000000000000000000000001746965725f726f75746572000000000000000000000000000000000000000000",
                    "decodedMethod": {
                        "callParams": [
                            {
                                "name": "_chainId",
                                "type": "uint64",
                                "value": "1"
                            },
                            {
                                "name": "_name",
                                "type": "bytes32",
                                "value": "0x746965725f726f75746572000000000000000000000000000000000000000000"
                            }
                        ],
                        "constructorArguments": "",
                        "name": "getAddress",
                        "returnParams": [
                            {
                                "name": "",
                                "type": "address",
                                "value": "0xa8e5d3a2e2052bea7f10be6a0386454b721d1f9f"
                            }
                        ],
                        "signature": "getAddress(uint64,bytes32)"
                    },
                    "errorInfo": "",
                    "fromAddress": "0x579f40d0be111b823962043702cabe6aaa290780",
                    "gasUsed": 3074,
                    "id": 10,
                    "methodDecoded": true,
                    "operation": "DELEGATECALL",
                    "output": "0x000000000000000000000000a8e5d3a2e2052bea7f10be6a0386454b721d1f9f",
                    "revert": false,
                    "revertMessage": "",
                    "selector": "0x28f713cc",
                    "status": true,
                    "value": "0"
                },
                "nodeType": 0
            },
            "11": {
                "invocation": {
                    "address": "0xa8e5d3a2e2052bea7f10be6a0386454b721d1f9f",
                    "callData": "0x0000000000000000000000000000000000000000000000000000000000008205",
                    "decodedMethod": {
                        "callParams": [
                            {
                                "name": "",
                                "type": "uint256",
                                "value": "33,285"
                            }
                        ],
                        "constructorArguments": "",
                        "name": "getProvider",
                        "returnParams": [
                            {
                                "name": "",
                                "type": "address",
                                "value": "0x4cffe56c947e26d07c14020499776db3e9ae3a23"
                            }
                        ],
                        "signature": "getProvider(uint256)"
                    },
                    "errorInfo": "",
                    "fromAddress": "0x06a9ab27c7e2255df1815e6cc0168d7755feb19a",
                    "gasUsed": 259,
                    "id": 11,
                    "methodDecoded": true,
                    "operation": "STATICCALL",
                    "output": "0x0000000000000000000000004cffe56c947e26d07c14020499776db3e9ae3a23",
                    "revert": false,
                    "revertMessage": "",
                    "selector": "0x5c42d079",
                    "status": true,
                    "value": "0"
                },
                "nodeType": 0
            },
            "12": {
                "invocation": {
                    "address": "0x4cffe56c947e26d07c14020499776db3e9ae3a23",
                    "callData": "0x00000000000000000000000000000000000000000000000000000000000000c8",
                    "decodedMethod": {
                        "callParams": [
                            {
                                "name": "_tierId",
                                "type": "uint16",
                                "value": "200"
                            }
                        ],
                        "constructorArguments": "",
                        "name": "getTier",
                        "returnParams": [
                            {
                                "name": "",
                                "type": "(bytes32,uint96,uint96,uint24,uint16,uint8)",
                                "value": [
                                    {
                                        "name": "verifierName",
                                        "type": "bytes32",
                                        "value": "0x746965725f736778000000000000000000000000000000000000000000000000"
                                    },
                                    {
                                        "name": "validityBond",
                                        "type": "uint96",
                                        "value": "250,000,000,000,000,000,000"
                                    },
                                    {
                                        "name": "contestBond",
                                        "type": "uint96",
                                        "value": "1,640,000,000,000,000,000,000"
                                    },
                                    {
                                        "name": "cooldownWindow",
                                        "type": "uint24",
                                        "value": "1,440"
                                    },
                                    {
                                        "name": "provingWindow",
                                        "type": "uint16",
                                        "value": "60"
                                    },
                                    {
                                        "name": "maxBlocksToVerifyPerProof",
                                        "type": "uint8",
                                        "value": "8"
                                    }
                                ]
                            }
                        ],
                        "signature": "getTier(uint16)"
                    },
                    "errorInfo": "",
                    "fromAddress": "0x06a9ab27c7e2255df1815e6cc0168d7755feb19a",
                    "gasUsed": 849,
                    "id": 12,
                    "methodDecoded": true,
                    "operation": "STATICCALL",
                    "output": "0x746965725f73677800000000000000000000000000000000000000000000000000000000000000000000000000000000000000000000000d8d726b7177a80000000000000000000000000000000000000000000000000058e7926ee858a0000000000000000000000000000000000000000000000000000000000000000005a0000000000000000000000000000000000000000000000000000000000000003c0000000000000000000000000000000000000000000000000000000000000008",
                    "revert": false,
                    "revertMessage": "",
                    "selector": "0x576c3de7",
                    "status": true,
                    "value": "0"
                },
                "nodeType": 0
            },
            "13": {
                "invocation": {
                    "address": "0x4cffe56c947e26d07c14020499776db3e9ae3a23",
                    "callData": "0x00000000000000000000000000000000000000000000000000000000000000c8",
                    "decodedMethod": {
                        "callParams": [
                            {
                                "name": "_tierId",
                                "type": "uint16",
                                "value": "200"
                            }
                        ],
                        "constructorArguments": "",
                        "name": "getTier",
                        "returnParams": [
                            {
                                "name": "",
                                "type": "(bytes32,uint96,uint96,uint24,uint16,uint8)",
                                "value": [
                                    {
                                        "name": "verifierName",
                                        "type": "bytes32",
                                        "value": "0x746965725f736778000000000000000000000000000000000000000000000000"
                                    },
                                    {
                                        "name": "validityBond",
                                        "type": "uint96",
                                        "value": "250,000,000,000,000,000,000"
                                    },
                                    {
                                        "name": "contestBond",
                                        "type": "uint96",
                                        "value": "1,640,000,000,000,000,000,000"
                                    },
                                    {
                                        "name": "cooldownWindow",
                                        "type": "uint24",
                                        "value": "1,440"
                                    },
                                    {
                                        "name": "provingWindow",
                                        "type": "uint16",
                                        "value": "60"
                                    },
                                    {
                                        "name": "maxBlocksToVerifyPerProof",
                                        "type": "uint8",
                                        "value": "8"
                                    }
                                ]
                            }
                        ],
                        "signature": "getTier(uint16)"
                    },
                    "errorInfo": "",
                    "fromAddress": "0x06a9ab27c7e2255df1815e6cc0168d7755feb19a",
                    "gasUsed": 849,
                    "id": 13,
                    "methodDecoded": true,
                    "operation": "STATICCALL",
                    "output": "0x746965725f73677800000000000000000000000000000000000000000000000000000000000000000000000000000000000000000000000d8d726b7177a80000000000000000000000000000000000000000000000000058e7926ee858a0000000000000000000000000000000000000000000000000000000000000000005a0000000000000000000000000000000000000000000000000000000000000003c0000000000000000000000000000000000000000000000000000000000000008",
                    "revert": false,
                    "revertMessage": "",
                    "selector": "0x576c3de7",
                    "status": true,
                    "value": "0"
                },
                "nodeType": 0
            },
            "14": {
                "invocation": {
                    "address": "0x06a9ab27c7e2255df1815e6cc0168d7755feb19a",
                    "callData": "0x746965725f7367780000000000000000000000000000000000000000000000000000000000000000000000000000000000000000000000000000000000000000",
                    "decodedMethod": {
                        "callParams": [
                            {
                                "name": "_name",
                                "type": "bytes32",
                                "value": "0x746965725f736778000000000000000000000000000000000000000000000000"
                            },
                            {
                                "name": "_allowZeroAddress",
                                "type": "bool",
                                "value": false
                            }
                        ],
                        "constructorArguments": "",
                        "name": "resolve",
                        "returnParams": [
                            {
                                "name": "",
                                "type": "address",
                                "value": "0xb0f3186fc1963f774f52ff455dc86aedd0b31f81"
                            }
                        ],
                        "signature": "resolve(bytes32,bool)"
                    },
                    "errorInfo": "",
                    "fromAddress": "0x06a9ab27c7e2255df1815e6cc0168d7755feb19a",
                    "gasUsed": 2727,
                    "id": 14,
                    "methodDecoded": true,
                    "operation": "STATICCALL",
                    "output": "0x000000000000000000000000b0f3186fc1963f774f52ff455dc86aedd0b31f81",
                    "revert": false,
                    "revertMessage": "",
                    "selector": "0xa86f9d9e",
                    "status": true,
                    "value": "0"
                },
                "nodeType": 0
            },
            "15": {
                "invocation": {
                    "address": "0xe84dc8e2a21e59426542ab040d77f81d6db881ee",
                    "callData": "0x746965725f7367780000000000000000000000000000000000000000000000000000000000000000000000000000000000000000000000000000000000000000",
                    "decodedMethod": {
                        "callParams": [
                            {
                                "name": "_name",
                                "type": "bytes32",
                                "value": "0x746965725f736778000000000000000000000000000000000000000000000000"
                            },
                            {
                                "name": "_allowZeroAddress",
                                "type": "bool",
                                "value": false
                            }
                        ],
                        "constructorArguments": "",
                        "name": "resolve",
                        "returnParams": [
                            {
                                "name": "",
                                "type": "address",
                                "value": "0xb0f3186fc1963f774f52ff455dc86aedd0b31f81"
                            }
                        ],
                        "signature": "resolve(bytes32,bool)"
                    },
                    "errorInfo": "",
                    "fromAddress": "0x06a9ab27c7e2255df1815e6cc0168d7755feb19a",
                    "gasUsed": 2332,
                    "id": 15,
                    "methodDecoded": true,
                    "operation": "DELEGATECALL",
                    "output": "0x000000000000000000000000b0f3186fc1963f774f52ff455dc86aedd0b31f81",
                    "revert": false,
                    "revertMessage": "",
                    "selector": "0xa86f9d9e",
                    "status": true,
                    "value": "0"
                },
                "nodeType": 0
            },
            "16": {
                "invocation": {
                    "address": "0x579f40d0be111b823962043702cabe6aaa290780",
                    "callData": "0x0000000000000000000000000000000000000000000000000000000000000001746965725f736778000000000000000000000000000000000000000000000000",
                    "decodedMethod": {
                        "callParams": [
                            {
                                "name": "_chainId",
                                "type": "uint64",
                                "value": "1"
                            },
                            {
                                "name": "_name",
                                "type": "bytes32",
                                "value": "0x746965725f736778000000000000000000000000000000000000000000000000"
                            }
                        ],
                        "constructorArguments": "",
                        "name": "getAddress",
                        "returnParams": [
                            {
                                "name": "",
                                "type": "address",
                                "value": "0xb0f3186fc1963f774f52ff455dc86aedd0b31f81"
                            }
                        ],
                        "signature": "getAddress(uint64,bytes32)"
                    },
                    "errorInfo": "",
                    "fromAddress": "0x06a9ab27c7e2255df1815e6cc0168d7755feb19a",
                    "gasUsed": 1144,
                    "id": 16,
                    "methodDecoded": true,
                    "operation": "STATICCALL",
                    "output": "0x000000000000000000000000b0f3186fc1963f774f52ff455dc86aedd0b31f81",
                    "revert": false,
                    "revertMessage": "",
                    "selector": "0x28f713cc",
                    "status": true,
                    "value": "0"
                },
                "nodeType": 0
            },
            "17": {
                "invocation": {
                    "address": "0x8af4669e3068bae96b92cd73603f5d86bed07a9a",
                    "callData": "0x0000000000000000000000000000000000000000000000000000000000000001746965725f736778000000000000000000000000000000000000000000000000",
                    "decodedMethod": {
                        "callParams": [
                            {
                                "name": "_chainId",
                                "type": "uint64",
                                "value": "1"
                            },
                            {
                                "name": "_name",
                                "type": "bytes32",
                                "value": "0x746965725f736778000000000000000000000000000000000000000000000000"
                            }
                        ],
                        "constructorArguments": "",
                        "name": "getAddress",
                        "returnParams": [
                            {
                                "name": "",
                                "type": "address",
                                "value": "0xb0f3186fc1963f774f52ff455dc86aedd0b31f81"
                            }
                        ],
                        "signature": "getAddress(uint64,bytes32)"
                    },
                    "errorInfo": "",
                    "fromAddress": "0x579f40d0be111b823962043702cabe6aaa290780",
                    "gasUsed": 749,
                    "id": 17,
                    "methodDecoded": true,
                    "operation": "DELEGATECALL",
                    "output": "0x000000000000000000000000b0f3186fc1963f774f52ff455dc86aedd0b31f81",
                    "revert": false,
                    "revertMessage": "",
                    "selector": "0x28f713cc",
                    "status": true,
                    "value": "0"
                },
                "nodeType": 0
            },
            "18": {
                "invocation": {
                    "address": "0xb0f3186fc1963f774f52ff455dc86aedd0b31f81",
                    "callData": "0x03bf11e64c43787e4d09f5dda64a076e3ec65f6245ce7d70a2348e2a928649ea016170f1c5a1cad6edd7626b2913cffd4f4e40c6e18071c0e511b7085a37798800000000000000000000000068d30f47f19c07bccef4ac7fae2dc12fca3e0dc900000000000000000000000000000000000000000000000000000000000082050000000000000000000000000000000000000000000000000000000000000000000000000000000000000000000000000000000000000000000000000000000100000000000000000000000068d30f47f19c07bccef4ac7fae2dc12fca3e0dc97f7681a78cd34f6173be0cd5c108b12d24ef223142c9645d7c338f20b0dae8f11f1e42b7c4b82043c391e3e8af8933f1d18ce7367c33420025bd868864ada32a09e59594bec502d07a0a8c5b370dd4e000b9eb098a23e104cc59119654de94a80000000000000000000000000000000000000000000000000000000000000000000000000000000000000000000000000000000000000000000000000000018000000000000000000000000000000000000000000000000000000000000000c80000000000000000000000000000000000000000000000000000000000000040000000000000000000000000000000000000000000000000000000000000005900000005c57230b9a1bd4f882c40c9f549a27034474e596205080c28b248a4bd262a269e4716d8038744bd9c599664d17a9396e729a455c8581b13d3afe6366953e41715e40e00649e538a03b59753e268763f4003029ea41c00000000000000",
                    "decodedMethod": {
                        "callParams": [
                            {
                                "name": "_ctx",
                                "type": "(bytes32,bytes32,address,uint64,bool,bool,address)",
                                "value": [
                                    {
                                        "name": "metaHash",
                                        "type": "bytes32",
                                        "value": "0x03bf11e64c43787e4d09f5dda64a076e3ec65f6245ce7d70a2348e2a928649ea"
                                    },
                                    {
                                        "name": "blobHash",
                                        "type": "bytes32",
                                        "value": "0x016170f1c5a1cad6edd7626b2913cffd4f4e40c6e18071c0e511b7085a377988"
                                    },
                                    {
                                        "name": "prover",
                                        "type": "address",
                                        "value": "0x68d30f47f19c07bccef4ac7fae2dc12fca3e0dc9"
                                    },
                                    {
                                        "name": "blockId",
                                        "type": "uint64",
                                        "value": "33,285"
                                    },
                                    {
                                        "name": "isContesting",
                                        "type": "bool",
                                        "value": false
                                    },
                                    {
                                        "name": "blobUsed",
                                        "type": "bool",
                                        "value": true
                                    },
                                    {
                                        "name": "msgSender",
                                        "type": "address",
                                        "value": "0x68d30f47f19c07bccef4ac7fae2dc12fca3e0dc9"
                                    }
                                ]
                            },
                            {
                                "name": "_tran",
                                "type": "(bytes32,bytes32,bytes32,bytes32)",
                                "value": [
                                    {
                                        "name": "parentHash",
                                        "type": "bytes32",
                                        "value": "0x7f7681a78cd34f6173be0cd5c108b12d24ef223142c9645d7c338f20b0dae8f1"
                                    },
                                    {
                                        "name": "blockHash",
                                        "type": "bytes32",
                                        "value": "0x1f1e42b7c4b82043c391e3e8af8933f1d18ce7367c33420025bd868864ada32a"
                                    },
                                    {
                                        "name": "stateRoot",
                                        "type": "bytes32",
                                        "value": "0x09e59594bec502d07a0a8c5b370dd4e000b9eb098a23e104cc59119654de94a8"
                                    },
                                    {
                                        "name": "graffiti",
                                        "type": "bytes32",
                                        "value": "0x0000000000000000000000000000000000000000000000000000000000000000"
                                    }
                                ]
                            },
                            {
                                "name": "_proof",
                                "type": "(uint16,bytes)",
                                "value": [
                                    {
                                        "name": "tier",
                                        "type": "uint16",
                                        "value": "200"
                                    },
                                    {
                                        "name": "data",
                                        "type": "bytes",
                                        "value": "0x00000005c57230b9a1bd4f882c40c9f549a27034474e596205080c28b248a4bd262a269e4716d8038744bd9c599664d17a9396e729a455c8581b13d3afe6366953e41715e40e00649e538a03b59753e268763f4003029ea41c"
                                    }
                                ]
                            }
                        ],
                        "constructorArguments": "",
                        "name": "verifyProof",
                        "returnParams": [],
                        "signature": "verifyProof((bytes32,bytes32,address,uint64,bool,bool,address),(bytes32,bytes32,bytes32,bytes32),(uint16,bytes))"
                    },
                    "errorInfo": "",
                    "fromAddress": "0x06a9ab27c7e2255df1815e6cc0168d7755feb19a",
                    "gasUsed": 28754,
                    "id": 18,
                    "methodDecoded": true,
                    "operation": "CALL",
                    "output": "",
                    "revert": false,
                    "revertMessage": "",
                    "selector": "0x21e89968",
                    "status": true,
                    "value": "0"
                },
                "nodeType": 0
            },
            "19": {
                "invocation": {
                    "address": "0xf381868dd6b2ac8cca468d63b42f9040de2257e9",
                    "callData": "0x03bf11e64c43787e4d09f5dda64a076e3ec65f6245ce7d70a2348e2a928649ea016170f1c5a1cad6edd7626b2913cffd4f4e40c6e18071c0e511b7085a37798800000000000000000000000068d30f47f19c07bccef4ac7fae2dc12fca3e0dc900000000000000000000000000000000000000000000000000000000000082050000000000000000000000000000000000000000000000000000000000000000000000000000000000000000000000000000000000000000000000000000000100000000000000000000000068d30f47f19c07bccef4ac7fae2dc12fca3e0dc97f7681a78cd34f6173be0cd5c108b12d24ef223142c9645d7c338f20b0dae8f11f1e42b7c4b82043c391e3e8af8933f1d18ce7367c33420025bd868864ada32a09e59594bec502d07a0a8c5b370dd4e000b9eb098a23e104cc59119654de94a80000000000000000000000000000000000000000000000000000000000000000000000000000000000000000000000000000000000000000000000000000018000000000000000000000000000000000000000000000000000000000000000c80000000000000000000000000000000000000000000000000000000000000040000000000000000000000000000000000000000000000000000000000000005900000005c57230b9a1bd4f882c40c9f549a27034474e596205080c28b248a4bd262a269e4716d8038744bd9c599664d17a9396e729a455c8581b13d3afe6366953e41715e40e00649e538a03b59753e268763f4003029ea41c00000000000000",
                    "decodedMethod": {
                        "callParams": [
                            {
                                "name": "_ctx",
                                "type": "(bytes32,bytes32,address,uint64,bool,bool,address)",
                                "value": [
                                    {
                                        "name": "metaHash",
                                        "type": "bytes32",
                                        "value": "0x03bf11e64c43787e4d09f5dda64a076e3ec65f6245ce7d70a2348e2a928649ea"
                                    },
                                    {
                                        "name": "blobHash",
                                        "type": "bytes32",
                                        "value": "0x016170f1c5a1cad6edd7626b2913cffd4f4e40c6e18071c0e511b7085a377988"
                                    },
                                    {
                                        "name": "prover",
                                        "type": "address",
                                        "value": "0x68d30f47f19c07bccef4ac7fae2dc12fca3e0dc9"
                                    },
                                    {
                                        "name": "blockId",
                                        "type": "uint64",
                                        "value": "33,285"
                                    },
                                    {
                                        "name": "isContesting",
                                        "type": "bool",
                                        "value": false
                                    },
                                    {
                                        "name": "blobUsed",
                                        "type": "bool",
                                        "value": true
                                    },
                                    {
                                        "name": "msgSender",
                                        "type": "address",
                                        "value": "0x68d30f47f19c07bccef4ac7fae2dc12fca3e0dc9"
                                    }
                                ]
                            },
                            {
                                "name": "_tran",
                                "type": "(bytes32,bytes32,bytes32,bytes32)",
                                "value": [
                                    {
                                        "name": "parentHash",
                                        "type": "bytes32",
                                        "value": "0x7f7681a78cd34f6173be0cd5c108b12d24ef223142c9645d7c338f20b0dae8f1"
                                    },
                                    {
                                        "name": "blockHash",
                                        "type": "bytes32",
                                        "value": "0x1f1e42b7c4b82043c391e3e8af8933f1d18ce7367c33420025bd868864ada32a"
                                    },
                                    {
                                        "name": "stateRoot",
                                        "type": "bytes32",
                                        "value": "0x09e59594bec502d07a0a8c5b370dd4e000b9eb098a23e104cc59119654de94a8"
                                    },
                                    {
                                        "name": "graffiti",
                                        "type": "bytes32",
                                        "value": "0x0000000000000000000000000000000000000000000000000000000000000000"
                                    }
                                ]
                            },
                            {
                                "name": "_proof",
                                "type": "(uint16,bytes)",
                                "value": [
                                    {
                                        "name": "tier",
                                        "type": "uint16",
                                        "value": "200"
                                    },
                                    {
                                        "name": "data",
                                        "type": "bytes",
                                        "value": "0x00000005c57230b9a1bd4f882c40c9f549a27034474e596205080c28b248a4bd262a269e4716d8038744bd9c599664d17a9396e729a455c8581b13d3afe6366953e41715e40e00649e538a03b59753e268763f4003029ea41c"
                                    }
                                ]
                            }
                        ],
                        "constructorArguments": "",
                        "name": "verifyProof",
                        "returnParams": [],
                        "signature": "verifyProof((bytes32,bytes32,address,uint64,bool,bool,address),(bytes32,bytes32,bytes32,bytes32),(uint16,bytes))"
                    },
                    "errorInfo": "",
                    "fromAddress": "0xb0f3186fc1963f774f52ff455dc86aedd0b31f81",
                    "gasUsed": 23766,
                    "id": 19,
                    "methodDecoded": true,
                    "operation": "DELEGATECALL",
                    "output": "",
                    "revert": false,
                    "revertMessage": "",
                    "selector": "0x21e89968",
                    "status": true,
                    "value": "0"
                },
                "nodeType": 0
            },
            "2": {
                "event": {
                    "contract": "0x68d30f47f19c07bccef4ac7fae2dc12fca3e0dc9",
                    "decodedLog": {
                        "name": "BlockProvenBy",
                        "params": [
                            {
                                "name": "prover",
                                "type": "address",
                                "value": "0x000000629fbcf27a347d1aeba658435230d74a5f"
                            },
                            {
                                "name": "blockId",
                                "type": "uint64",
                                "value": "33,285"
                            }
                        ],
                        "signature": "BlockProvenBy(address,uint64)"
                    },
                    "id": 2,
                    "logData": "0x",
                    "logDecoded": true,
                    "operation": "EVENT",
                    "revert": false,
                    "status": true,
                    "topics": [
                        "0x97c6d17699a8ef67a471a4e5025eb88ae673f626a5eb443e0539af38b4e56746",
                        "0x000000000000000000000000000000629fbcf27a347d1aeba658435230d74a5f",
                        "0x0000000000000000000000000000000000000000000000000000000000008205"
                    ]
                },
                "nodeType": 1
            },
            "20": {
                "invocation": {
                    "address": "0x579f40d0be111b823962043702cabe6aaa290780",
                    "callData": "0x00000000000000000000000000000000000000000000000000000000000000017461696b6f000000000000000000000000000000000000000000000000000000",
                    "decodedMethod": {
                        "callParams": [
                            {
                                "name": "_chainId",
                                "type": "uint64",
                                "value": "1"
                            },
                            {
                                "name": "_name",
                                "type": "bytes32",
                                "value": "0x7461696b6f000000000000000000000000000000000000000000000000000000"
                            }
                        ],
                        "constructorArguments": "",
                        "name": "getAddress",
                        "returnParams": [
                            {
                                "name": "",
                                "type": "address",
                                "value": "0x06a9ab27c7e2255df1815e6cc0168d7755feb19a"
                            }
                        ],
                        "signature": "getAddress(uint64,bytes32)"
                    },
                    "errorInfo": "",
                    "fromAddress": "0xb0f3186fc1963f774f52ff455dc86aedd0b31f81",
                    "gasUsed": 1115,
                    "id": 20,
                    "methodDecoded": true,
                    "operation": "STATICCALL",
                    "output": "0x00000000000000000000000006a9ab27c7e2255df1815e6cc0168d7755feb19a",
                    "revert": false,
                    "revertMessage": "",
                    "selector": "0x28f713cc",
                    "status": true,
                    "value": "0"
                },
                "nodeType": 0
            },
            "21": {
                "invocation": {
                    "address": "0x8af4669e3068bae96b92cd73603f5d86bed07a9a",
                    "callData": "0x00000000000000000000000000000000000000000000000000000000000000017461696b6f000000000000000000000000000000000000000000000000000000",
                    "decodedMethod": {
                        "callParams": [
                            {
                                "name": "_chainId",
                                "type": "uint64",
                                "value": "1"
                            },
                            {
                                "name": "_name",
                                "type": "bytes32",
                                "value": "0x7461696b6f000000000000000000000000000000000000000000000000000000"
                            }
                        ],
                        "constructorArguments": "",
                        "name": "getAddress",
                        "returnParams": [
                            {
                                "name": "",
                                "type": "address",
                                "value": "0x06a9ab27c7e2255df1815e6cc0168d7755feb19a"
                            }
                        ],
                        "signature": "getAddress(uint64,bytes32)"
                    },
                    "errorInfo": "",
                    "fromAddress": "0x579f40d0be111b823962043702cabe6aaa290780",
                    "gasUsed": 720,
                    "id": 21,
                    "methodDecoded": true,
                    "operation": "DELEGATECALL",
                    "output": "0x00000000000000000000000006a9ab27c7e2255df1815e6cc0168d7755feb19a",
                    "revert": false,
                    "revertMessage": "",
                    "selector": "0x28f713cc",
                    "status": true,
                    "value": "0"
                },
                "nodeType": 0
            },
            "22": {
                "invocation": {
                    "address": "0x579f40d0be111b823962043702cabe6aaa290780",
                    "callData": "0x00000000000000000000000000000000000000000000000000000000000000017461696b6f000000000000000000000000000000000000000000000000000000",
                    "decodedMethod": {
                        "callParams": [
                            {
                                "name": "_chainId",
                                "type": "uint64",
                                "value": "1"
                            },
                            {
                                "name": "_name",
                                "type": "bytes32",
                                "value": "0x7461696b6f000000000000000000000000000000000000000000000000000000"
                            }
                        ],
                        "constructorArguments": "",
                        "name": "getAddress",
                        "returnParams": [
                            {
                                "name": "",
                                "type": "address",
                                "value": "0x06a9ab27c7e2255df1815e6cc0168d7755feb19a"
                            }
                        ],
                        "signature": "getAddress(uint64,bytes32)"
                    },
                    "errorInfo": "",
                    "fromAddress": "0xb0f3186fc1963f774f52ff455dc86aedd0b31f81",
                    "gasUsed": 1115,
                    "id": 22,
                    "methodDecoded": true,
                    "operation": "STATICCALL",
                    "output": "0x00000000000000000000000006a9ab27c7e2255df1815e6cc0168d7755feb19a",
                    "revert": false,
                    "revertMessage": "",
                    "selector": "0x28f713cc",
                    "status": true,
                    "value": "0"
                },
                "nodeType": 0
            },
            "23": {
                "invocation": {
                    "address": "0x8af4669e3068bae96b92cd73603f5d86bed07a9a",
                    "callData": "0x00000000000000000000000000000000000000000000000000000000000000017461696b6f000000000000000000000000000000000000000000000000000000",
                    "decodedMethod": {
                        "callParams": [
                            {
                                "name": "_chainId",
                                "type": "uint64",
                                "value": "1"
                            },
                            {
                                "name": "_name",
                                "type": "bytes32",
                                "value": "0x7461696b6f000000000000000000000000000000000000000000000000000000"
                            }
                        ],
                        "constructorArguments": "",
                        "name": "getAddress",
                        "returnParams": [
                            {
                                "name": "",
                                "type": "address",
                                "value": "0x06a9ab27c7e2255df1815e6cc0168d7755feb19a"
                            }
                        ],
                        "signature": "getAddress(uint64,bytes32)"
                    },
                    "errorInfo": "",
                    "fromAddress": "0x579f40d0be111b823962043702cabe6aaa290780",
                    "gasUsed": 720,
                    "id": 23,
                    "methodDecoded": true,
                    "operation": "DELEGATECALL",
                    "output": "0x00000000000000000000000006a9ab27c7e2255df1815e6cc0168d7755feb19a",
                    "revert": false,
                    "revertMessage": "",
                    "selector": "0x28f713cc",
                    "status": true,
                    "value": "0"
                },
                "nodeType": 0
            },
            "24": {
                "invocation": {
                    "address": "0x06a9ab27c7e2255df1815e6cc0168d7755feb19a",
                    "callData": "0x",
                    "decodedMethod": {
                        "callParams": [],
                        "constructorArguments": "",
                        "name": "getConfig",
                        "returnParams": [
                            {
                                "name": "",
                                "type": "(uint64,uint64,uint64,uint64,uint32,uint96,uint8)",
                                "value": [
                                    {
                                        "name": "chainId",
                                        "type": "uint64",
                                        "value": "167,000"
                                    },
                                    {
                                        "name": "blockMaxProposals",
                                        "type": "uint64",
                                        "value": "432,000"
                                    },
                                    {
                                        "name": "blockRingBufferSize",
                                        "type": "uint64",
                                        "value": "432,512"
                                    },
                                    {
                                        "name": "maxBlocksToVerifyPerProposal",
                                        "type": "uint64",
                                        "value": "10"
                                    },
                                    {
                                        "name": "blockMaxGasLimit",
                                        "type": "uint32",
                                        "value": "240,000,000"
                                    },
                                    {
                                        "name": "livenessBond",
                                        "type": "uint96",
                                        "value": "250,000,000,000,000,000,000"
                                    },
                                    {
                                        "name": "blockSyncThreshold",
                                        "type": "uint8",
                                        "value": "16"
                                    }
                                ]
                            }
                        ],
                        "signature": "getConfig()"
                    },
                    "errorInfo": "",
                    "fromAddress": "0xb0f3186fc1963f774f52ff455dc86aedd0b31f81",
                    "gasUsed": 1318,
                    "id": 24,
                    "methodDecoded": true,
                    "operation": "STATICCALL",
                    "output": "0x0000000000000000000000000000000000000000000000000000000000028c5800000000000000000000000000000000000000000000000000000000000697800000000000000000000000000000000000000000000000000000000000069980000000000000000000000000000000000000000000000000000000000000000a000000000000000000000000000000000000000000000000000000000e4e1c0000000000000000000000000000000000000000000000000d8d726b7177a800000000000000000000000000000000000000000000000000000000000000000010",
                    "revert": false,
                    "revertMessage": "",
                    "selector": "0xc3f909d4",
                    "status": true,
                    "value": "0"
                },
                "nodeType": 0
            },
            "25": {
                "invocation": {
                    "address": "0xe84dc8e2a21e59426542ab040d77f81d6db881ee",
                    "callData": "0x",
                    "decodedMethod": {
                        "callParams": [],
                        "constructorArguments": "",
                        "name": "getConfig",
                        "returnParams": [
                            {
                                "name": "",
                                "type": "(uint64,uint64,uint64,uint64,uint32,uint96,uint8)",
                                "value": [
                                    {
                                        "name": "chainId",
                                        "type": "uint64",
                                        "value": "167,000"
                                    },
                                    {
                                        "name": "blockMaxProposals",
                                        "type": "uint64",
                                        "value": "432,000"
                                    },
                                    {
                                        "name": "blockRingBufferSize",
                                        "type": "uint64",
                                        "value": "432,512"
                                    },
                                    {
                                        "name": "maxBlocksToVerifyPerProposal",
                                        "type": "uint64",
                                        "value": "10"
                                    },
                                    {
                                        "name": "blockMaxGasLimit",
                                        "type": "uint32",
                                        "value": "240,000,000"
                                    },
                                    {
                                        "name": "livenessBond",
                                        "type": "uint96",
                                        "value": "250,000,000,000,000,000,000"
                                    },
                                    {
                                        "name": "blockSyncThreshold",
                                        "type": "uint8",
                                        "value": "16"
                                    }
                                ]
                            }
                        ],
                        "signature": "getConfig()"
                    },
                    "errorInfo": "",
                    "fromAddress": "0x06a9ab27c7e2255df1815e6cc0168d7755feb19a",
                    "gasUsed": 899,
                    "id": 25,
                    "methodDecoded": true,
                    "operation": "DELEGATECALL",
                    "output": "0x0000000000000000000000000000000000000000000000000000000000028c5800000000000000000000000000000000000000000000000000000000000697800000000000000000000000000000000000000000000000000000000000069980000000000000000000000000000000000000000000000000000000000000000a000000000000000000000000000000000000000000000000000000000e4e1c0000000000000000000000000000000000000000000000000d8d726b7177a800000000000000000000000000000000000000000000000000000000000000000010",
                    "revert": false,
                    "revertMessage": "",
                    "selector": "0xc3f909d4",
                    "status": true,
                    "value": "0"
                },
                "nodeType": 0
            },
            "26": {
                "invocation": {
                    "address": "0x0000000000000000000000000000000000000001",
                    "callData": "0xc826235a21540a1bf85a299875b4ed749fd27ebb1485dde9444647a6000000000000000000000000000000000000000000000000000000000000001c05080c28b248a4bd262a269e4716d8038744bd9c599664d17a9396e729a455c8581b13d3afe6366953e41715e40e00649e538a03b59753e268763f4003029ea4",
                    "decodedMethod": {
                        "callParams": [
                            {
                                "name": "hash",
                                "type": "bytes32",
                                "value": "0xd010c985c826235a21540a1bf85a299875b4ed749fd27ebb1485dde9444647a6"
                            },
                            {
                                "name": "v",
                                "type": "uint256",
                                "value": "28"
                            },
                            {
                                "name": "r",
                                "type": "bytes32",
                                "value": "0x05080c28b248a4bd262a269e4716d8038744bd9c599664d17a9396e729a455c8"
                            },
                            {
                                "name": "s",
                                "type": "bytes32",
                                "value": "0x581b13d3afe6366953e41715e40e00649e538a03b59753e268763f4003029ea4"
                            }
                        ],
                        "constructorArguments": "",
                        "name": "ecrecover",
                        "returnParams": [
                            {
                                "name": "",
                                "type": "address",
                                "value": "0xc57230b9a1bd4f882c40c9f549a27034474e5962"
                            }
                        ],
                        "signature": "ecrecover(bytes32,uint256,bytes32,bytes32)"
                    },
                    "errorInfo": "",
                    "fromAddress": "0xb0f3186fc1963f774f52ff455dc86aedd0b31f81",
                    "gasUsed": 3000,
                    "id": 26,
                    "methodDecoded": true,
                    "operation": "STATICCALL",
                    "output": "0x000000000000000000000000c57230b9a1bd4f882c40c9f549a27034474e5962",
                    "revert": false,
                    "revertMessage": "",
                    "selector": "0xd010c985",
                    "status": true,
                    "value": "0"
                },
                "nodeType": 0
            },
            "27": {
                "event": {
                    "contract": "0xb0f3186fc1963f774f52ff455dc86aedd0b31f81",
                    "decodedLog": {
                        "name": "InstanceAdded",
                        "params": [
                            {
                                "name": "id",
                                "type": "uint256",
                                "value": "5"
                            },
                            {
                                "name": "instance",
                                "type": "address",
                                "value": "0xc57230b9a1bd4f882c40c9f549a27034474e5962"
                            },
                            {
                                "name": "replaced",
                                "type": "address",
                                "value": "0xc57230b9a1bd4f882c40c9f549a27034474e5962"
                            },
                            {
                                "name": "validSince",
                                "type": "uint256",
                                "value": "1,717,559,051"
                            }
                        ],
                        "signature": "InstanceAdded(uint256,address,address,uint256)"
                    },
                    "id": 27,
                    "logData": "0x00000000000000000000000000000000000000000000000000000000665fdf0b",
                    "logDecoded": true,
                    "operation": "EVENT",
                    "revert": false,
                    "status": true,
                    "topics": [
                        "0xbbe529d240965181270c1e2e32a80761e8807dda1ee9765e326178bd6804a9cb",
                        "0x0000000000000000000000000000000000000000000000000000000000000005",
                        "0x000000000000000000000000c57230b9a1bd4f882c40c9f549a27034474e5962",
                        "0x000000000000000000000000c57230b9a1bd4f882c40c9f549a27034474e5962"
                    ]
                },
                "nodeType": 1
            },
            "28": {
                "invocation": {
                    "address": "0x06a9ab27c7e2255df1815e6cc0168d7755feb19a",
                    "callData": "0x7461696b6f5f746f6b656e0000000000000000000000000000000000000000000000000000000000000000000000000000000000000000000000000000000000",
                    "decodedMethod": {
                        "callParams": [
                            {
                                "name": "_name",
                                "type": "bytes32",
                                "value": "0x7461696b6f5f746f6b656e000000000000000000000000000000000000000000"
                            },
                            {
                                "name": "_allowZeroAddress",
                                "type": "bool",
                                "value": false
                            }
                        ],
                        "constructorArguments": "",
                        "name": "resolve",
                        "returnParams": [
                            {
                                "name": "",
                                "type": "address",
                                "value": "0x10dea67478c5f8c5e2d90e5e9b26dbe60c54d800"
                            }
                        ],
                        "signature": "resolve(bytes32,bool)"
                    },
                    "errorInfo": "",
                    "fromAddress": "0x06a9ab27c7e2255df1815e6cc0168d7755feb19a",
                    "gasUsed": 2611,
                    "id": 28,
                    "methodDecoded": true,
                    "operation": "STATICCALL",
                    "output": "0x00000000000000000000000010dea67478c5f8c5e2d90e5e9b26dbe60c54d800",
                    "revert": false,
                    "revertMessage": "",
                    "selector": "0xa86f9d9e",
                    "status": true,
                    "value": "0"
                },
                "nodeType": 0
            },
            "29": {
                "invocation": {
                    "address": "0xe84dc8e2a21e59426542ab040d77f81d6db881ee",
                    "callData": "0x7461696b6f5f746f6b656e0000000000000000000000000000000000000000000000000000000000000000000000000000000000000000000000000000000000",
                    "decodedMethod": {
                        "callParams": [
                            {
                                "name": "_name",
                                "type": "bytes32",
                                "value": "0x7461696b6f5f746f6b656e000000000000000000000000000000000000000000"
                            },
                            {
                                "name": "_allowZeroAddress",
                                "type": "bool",
                                "value": false
                            }
                        ],
                        "constructorArguments": "",
                        "name": "resolve",
                        "returnParams": [
                            {
                                "name": "",
                                "type": "address",
                                "value": "0x10dea67478c5f8c5e2d90e5e9b26dbe60c54d800"
                            }
                        ],
                        "signature": "resolve(bytes32,bool)"
                    },
                    "errorInfo": "",
                    "fromAddress": "0x06a9ab27c7e2255df1815e6cc0168d7755feb19a",
                    "gasUsed": 2216,
                    "id": 29,
                    "methodDecoded": true,
                    "operation": "DELEGATECALL",
                    "output": "0x00000000000000000000000010dea67478c5f8c5e2d90e5e9b26dbe60c54d800",
                    "revert": false,
                    "revertMessage": "",
                    "selector": "0xa86f9d9e",
                    "status": true,
                    "value": "0"
                },
                "nodeType": 0
            },
            "3": {
                "invocation": {
                    "address": "0x579f40d0be111b823962043702cabe6aaa290780",
                    "callData": "0x00000000000000000000000000000000000000000000000000000000000000017461696b6f000000000000000000000000000000000000000000000000000000",
                    "decodedMethod": {
                        "callParams": [
                            {
                                "name": "_chainId",
                                "type": "uint64",
                                "value": "1"
                            },
                            {
                                "name": "_name",
                                "type": "bytes32",
                                "value": "0x7461696b6f000000000000000000000000000000000000000000000000000000"
                            }
                        ],
                        "constructorArguments": "",
                        "name": "getAddress",
                        "returnParams": [
                            {
                                "name": "",
                                "type": "address",
                                "value": "0x06a9ab27c7e2255df1815e6cc0168d7755feb19a"
                            }
                        ],
                        "signature": "getAddress(uint64,bytes32)"
                    },
                    "errorInfo": "",
                    "fromAddress": "0x68d30f47f19c07bccef4ac7fae2dc12fca3e0dc9",
                    "gasUsed": 5615,
                    "id": 3,
                    "methodDecoded": true,
                    "operation": "STATICCALL",
                    "output": "0x00000000000000000000000006a9ab27c7e2255df1815e6cc0168d7755feb19a",
                    "revert": false,
                    "revertMessage": "",
                    "selector": "0x28f713cc",
                    "status": true,
                    "value": "0"
                },
                "nodeType": 0
            },
            "30": {
                "invocation": {
                    "address": "0x579f40d0be111b823962043702cabe6aaa290780",
                    "callData": "0x00000000000000000000000000000000000000000000000000000000000000017461696b6f5f746f6b656e000000000000000000000000000000000000000000",
                    "decodedMethod": {
                        "callParams": [
                            {
                                "name": "_chainId",
                                "type": "uint64",
                                "value": "1"
                            },
                            {
                                "name": "_name",
                                "type": "bytes32",
                                "value": "0x7461696b6f5f746f6b656e000000000000000000000000000000000000000000"
                            }
                        ],
                        "constructorArguments": "",
                        "name": "getAddress",
                        "returnParams": [
                            {
                                "name": "",
                                "type": "address",
                                "value": "0x10dea67478c5f8c5e2d90e5e9b26dbe60c54d800"
                            }
                        ],
                        "signature": "getAddress(uint64,bytes32)"
                    },
                    "errorInfo": "",
                    "fromAddress": "0x06a9ab27c7e2255df1815e6cc0168d7755feb19a",
                    "gasUsed": 1028,
                    "id": 30,
                    "methodDecoded": true,
                    "operation": "STATICCALL",
                    "output": "0x00000000000000000000000010dea67478c5f8c5e2d90e5e9b26dbe60c54d800",
                    "revert": false,
                    "revertMessage": "",
                    "selector": "0x28f713cc",
                    "status": true,
                    "value": "0"
                },
                "nodeType": 0
            },
            "31": {
                "invocation": {
                    "address": "0x8af4669e3068bae96b92cd73603f5d86bed07a9a",
                    "callData": "0x00000000000000000000000000000000000000000000000000000000000000017461696b6f5f746f6b656e000000000000000000000000000000000000000000",
                    "decodedMethod": {
                        "callParams": [
                            {
                                "name": "_chainId",
                                "type": "uint64",
                                "value": "1"
                            },
                            {
                                "name": "_name",
                                "type": "bytes32",
                                "value": "0x7461696b6f5f746f6b656e000000000000000000000000000000000000000000"
                            }
                        ],
                        "constructorArguments": "",
                        "name": "getAddress",
                        "returnParams": [
                            {
                                "name": "",
                                "type": "address",
                                "value": "0x10dea67478c5f8c5e2d90e5e9b26dbe60c54d800"
                            }
                        ],
                        "signature": "getAddress(uint64,bytes32)"
                    },
                    "errorInfo": "",
                    "fromAddress": "0x579f40d0be111b823962043702cabe6aaa290780",
                    "gasUsed": 633,
                    "id": 31,
                    "methodDecoded": true,
                    "operation": "DELEGATECALL",
                    "output": "0x00000000000000000000000010dea67478c5f8c5e2d90e5e9b26dbe60c54d800",
                    "revert": false,
                    "revertMessage": "",
                    "selector": "0x28f713cc",
                    "status": true,
                    "value": "0"
                },
                "nodeType": 0
            },
            "32": {
                "event": {
                    "contract": "0x06a9ab27c7e2255df1815e6cc0168d7755feb19a",
                    "decodedLog": {
                        "name": "TransitionProved",
                        "params": [
                            {
                                "name": "blockId",
                                "type": "uint256",
                                "value": "33,285"
                            },
                            {
                                "name": "tran",
                                "type": "(bytes32,bytes32,bytes32,bytes32)",
                                "value": [
                                    {
                                        "name": "parentHash",
                                        "type": "bytes32",
                                        "value": "0x7f7681a78cd34f6173be0cd5c108b12d24ef223142c9645d7c338f20b0dae8f1"
                                    },
                                    {
                                        "name": "blockHash",
                                        "type": "bytes32",
                                        "value": "0x1f1e42b7c4b82043c391e3e8af8933f1d18ce7367c33420025bd868864ada32a"
                                    },
                                    {
                                        "name": "stateRoot",
                                        "type": "bytes32",
                                        "value": "0x09e59594bec502d07a0a8c5b370dd4e000b9eb098a23e104cc59119654de94a8"
                                    },
                                    {
                                        "name": "graffiti",
                                        "type": "bytes32",
                                        "value": "0x0000000000000000000000000000000000000000000000000000000000000000"
                                    }
                                ]
                            },
                            {
                                "name": "prover",
                                "type": "address",
                                "value": "0x68d30f47f19c07bccef4ac7fae2dc12fca3e0dc9"
                            },
                            {
                                "name": "validityBond",
                                "type": "uint96",
                                "value": "250,000,000,000,000,000,000"
                            },
                            {
                                "name": "tier",
                                "type": "uint16",
                                "value": "200"
                            }
                        ],
                        "signature": "TransitionProved(uint256,(bytes32,bytes32,bytes32,bytes32),address,uint96,uint16)"
                    },
                    "id": 32,
                    "logData": "0x7f7681a78cd34f6173be0cd5c108b12d24ef223142c9645d7c338f20b0dae8f11f1e42b7c4b82043c391e3e8af8933f1d18ce7367c33420025bd868864ada32a09e59594bec502d07a0a8c5b370dd4e000b9eb098a23e104cc59119654de94a8000000000000000000000000000000000000000000000000000000000000000000000000000000000000000068d30f47f19c07bccef4ac7fae2dc12fca3e0dc900000000000000000000000000000000000000000000000d8d726b7177a8000000000000000000000000000000000000000000000000000000000000000000c8",
                    "logDecoded": true,
                    "operation": "EVENT",
                    "revert": false,
                    "status": true,
                    "topics": [
                        "0xc195e4be3b936845492b8be4b1cf604db687a4d79ad84d979499c136f8e6701f",
                        "0x0000000000000000000000000000000000000000000000000000000000008205"
                    ]
                },
                "nodeType": 1
            },
            "33": {
                "invocation": {
                    "address": "0x06a9ab27c7e2255df1815e6cc0168d7755feb19a",
                    "callData": "0x7461696b6f5f746f6b656e0000000000000000000000000000000000000000000000000000000000000000000000000000000000000000000000000000000000",
                    "decodedMethod": {
                        "callParams": [
                            {
                                "name": "_name",
                                "type": "bytes32",
                                "value": "0x7461696b6f5f746f6b656e000000000000000000000000000000000000000000"
                            },
                            {
                                "name": "_allowZeroAddress",
                                "type": "bool",
                                "value": false
                            }
                        ],
                        "constructorArguments": "",
                        "name": "resolve",
                        "returnParams": [
                            {
                                "name": "",
                                "type": "address",
                                "value": "0x10dea67478c5f8c5e2d90e5e9b26dbe60c54d800"
                            }
                        ],
                        "signature": "resolve(bytes32,bool)"
                    },
                    "errorInfo": "",
                    "fromAddress": "0x06a9ab27c7e2255df1815e6cc0168d7755feb19a",
                    "gasUsed": 2611,
                    "id": 33,
                    "methodDecoded": true,
                    "operation": "STATICCALL",
                    "output": "0x00000000000000000000000010dea67478c5f8c5e2d90e5e9b26dbe60c54d800",
                    "revert": false,
                    "revertMessage": "",
                    "selector": "0xa86f9d9e",
                    "status": true,
                    "value": "0"
                },
                "nodeType": 0
            },
            "34": {
                "invocation": {
                    "address": "0xe84dc8e2a21e59426542ab040d77f81d6db881ee",
                    "callData": "0x7461696b6f5f746f6b656e0000000000000000000000000000000000000000000000000000000000000000000000000000000000000000000000000000000000",
                    "decodedMethod": {
                        "callParams": [
                            {
                                "name": "_name",
                                "type": "bytes32",
                                "value": "0x7461696b6f5f746f6b656e000000000000000000000000000000000000000000"
                            },
                            {
                                "name": "_allowZeroAddress",
                                "type": "bool",
                                "value": false
                            }
                        ],
                        "constructorArguments": "",
                        "name": "resolve",
                        "returnParams": [
                            {
                                "name": "",
                                "type": "address",
                                "value": "0x10dea67478c5f8c5e2d90e5e9b26dbe60c54d800"
                            }
                        ],
                        "signature": "resolve(bytes32,bool)"
                    },
                    "errorInfo": "",
                    "fromAddress": "0x06a9ab27c7e2255df1815e6cc0168d7755feb19a",
                    "gasUsed": 2216,
                    "id": 34,
                    "methodDecoded": true,
                    "operation": "DELEGATECALL",
                    "output": "0x00000000000000000000000010dea67478c5f8c5e2d90e5e9b26dbe60c54d800",
                    "revert": false,
                    "revertMessage": "",
                    "selector": "0xa86f9d9e",
                    "status": true,
                    "value": "0"
                },
                "nodeType": 0
            },
            "35": {
                "invocation": {
                    "address": "0x579f40d0be111b823962043702cabe6aaa290780",
                    "callData": "0x00000000000000000000000000000000000000000000000000000000000000017461696b6f5f746f6b656e000000000000000000000000000000000000000000",
                    "decodedMethod": {
                        "callParams": [
                            {
                                "name": "_chainId",
                                "type": "uint64",
                                "value": "1"
                            },
                            {
                                "name": "_name",
                                "type": "bytes32",
                                "value": "0x7461696b6f5f746f6b656e000000000000000000000000000000000000000000"
                            }
                        ],
                        "constructorArguments": "",
                        "name": "getAddress",
                        "returnParams": [
                            {
                                "name": "",
                                "type": "address",
                                "value": "0x10dea67478c5f8c5e2d90e5e9b26dbe60c54d800"
                            }
                        ],
                        "signature": "getAddress(uint64,bytes32)"
                    },
                    "errorInfo": "",
                    "fromAddress": "0x06a9ab27c7e2255df1815e6cc0168d7755feb19a",
                    "gasUsed": 1028,
                    "id": 35,
                    "methodDecoded": true,
                    "operation": "STATICCALL",
                    "output": "0x00000000000000000000000010dea67478c5f8c5e2d90e5e9b26dbe60c54d800",
                    "revert": false,
                    "revertMessage": "",
                    "selector": "0x28f713cc",
                    "status": true,
                    "value": "0"
                },
                "nodeType": 0
            },
            "36": {
                "invocation": {
                    "address": "0x8af4669e3068bae96b92cd73603f5d86bed07a9a",
                    "callData": "0x00000000000000000000000000000000000000000000000000000000000000017461696b6f5f746f6b656e000000000000000000000000000000000000000000",
                    "decodedMethod": {
                        "callParams": [
                            {
                                "name": "_chainId",
                                "type": "uint64",
                                "value": "1"
                            },
                            {
                                "name": "_name",
                                "type": "bytes32",
                                "value": "0x7461696b6f5f746f6b656e000000000000000000000000000000000000000000"
                            }
                        ],
                        "constructorArguments": "",
                        "name": "getAddress",
                        "returnParams": [
                            {
                                "name": "",
                                "type": "address",
                                "value": "0x10dea67478c5f8c5e2d90e5e9b26dbe60c54d800"
                            }
                        ],
                        "signature": "getAddress(uint64,bytes32)"
                    },
                    "errorInfo": "",
                    "fromAddress": "0x579f40d0be111b823962043702cabe6aaa290780",
                    "gasUsed": 633,
                    "id": 36,
                    "methodDecoded": true,
                    "operation": "DELEGATECALL",
                    "output": "0x00000000000000000000000010dea67478c5f8c5e2d90e5e9b26dbe60c54d800",
                    "revert": false,
                    "revertMessage": "",
                    "selector": "0x28f713cc",
                    "status": true,
                    "value": "0"
                },
                "nodeType": 0
            },
            "37": {
                "invocation": {
                    "address": "0x06a9ab27c7e2255df1815e6cc0168d7755feb19a",
                    "callData": "0x746965725f726f757465720000000000000000000000000000000000000000000000000000000000000000000000000000000000000000000000000000000000",
                    "decodedMethod": {
                        "callParams": [
                            {
                                "name": "_name",
                                "type": "bytes32",
                                "value": "0x746965725f726f75746572000000000000000000000000000000000000000000"
                            },
                            {
                                "name": "_allowZeroAddress",
                                "type": "bool",
                                "value": false
                            }
                        ],
                        "constructorArguments": "",
                        "name": "resolve",
                        "returnParams": [
                            {
                                "name": "",
                                "type": "address",
                                "value": "0xa8e5d3a2e2052bea7f10be6a0386454b721d1f9f"
                            }
                        ],
                        "signature": "resolve(bytes32,bool)"
                    },
                    "errorInfo": "",
                    "fromAddress": "0x06a9ab27c7e2255df1815e6cc0168d7755feb19a",
                    "gasUsed": 3052,
                    "id": 37,
                    "methodDecoded": true,
                    "operation": "STATICCALL",
                    "output": "0x000000000000000000000000a8e5d3a2e2052bea7f10be6a0386454b721d1f9f",
                    "revert": false,
                    "revertMessage": "",
                    "selector": "0xa86f9d9e",
                    "status": true,
                    "value": "0"
                },
                "nodeType": 0
            },
            "38": {
                "invocation": {
                    "address": "0xe84dc8e2a21e59426542ab040d77f81d6db881ee",
                    "callData": "0x746965725f726f757465720000000000000000000000000000000000000000000000000000000000000000000000000000000000000000000000000000000000",
                    "decodedMethod": {
                        "callParams": [
                            {
                                "name": "_name",
                                "type": "bytes32",
                                "value": "0x746965725f726f75746572000000000000000000000000000000000000000000"
                            },
                            {
                                "name": "_allowZeroAddress",
                                "type": "bool",
                                "value": false
                            }
                        ],
                        "constructorArguments": "",
                        "name": "resolve",
                        "returnParams": [
                            {
                                "name": "",
                                "type": "address",
                                "value": "0xa8e5d3a2e2052bea7f10be6a0386454b721d1f9f"
                            }
                        ],
                        "signature": "resolve(bytes32,bool)"
                    },
                    "errorInfo": "",
                    "fromAddress": "0x06a9ab27c7e2255df1815e6cc0168d7755feb19a",
                    "gasUsed": 2657,
                    "id": 38,
                    "methodDecoded": true,
                    "operation": "DELEGATECALL",
                    "output": "0x000000000000000000000000a8e5d3a2e2052bea7f10be6a0386454b721d1f9f",
                    "revert": false,
                    "revertMessage": "",
                    "selector": "0xa86f9d9e",
                    "status": true,
                    "value": "0"
                },
                "nodeType": 0
            },
            "39": {
                "invocation": {
                    "address": "0x579f40d0be111b823962043702cabe6aaa290780",
                    "callData": "0x0000000000000000000000000000000000000000000000000000000000000001746965725f726f75746572000000000000000000000000000000000000000000",
                    "decodedMethod": {
                        "callParams": [
                            {
                                "name": "_chainId",
                                "type": "uint64",
                                "value": "1"
                            },
                            {
                                "name": "_name",
                                "type": "bytes32",
                                "value": "0x746965725f726f75746572000000000000000000000000000000000000000000"
                            }
                        ],
                        "constructorArguments": "",
                        "name": "getAddress",
                        "returnParams": [
                            {
                                "name": "",
                                "type": "address",
                                "value": "0xa8e5d3a2e2052bea7f10be6a0386454b721d1f9f"
                            }
                        ],
                        "signature": "getAddress(uint64,bytes32)"
                    },
                    "errorInfo": "",
                    "fromAddress": "0x06a9ab27c7e2255df1815e6cc0168d7755feb19a",
                    "gasUsed": 1469,
                    "id": 39,
                    "methodDecoded": true,
                    "operation": "STATICCALL",
                    "output": "0x000000000000000000000000a8e5d3a2e2052bea7f10be6a0386454b721d1f9f",
                    "revert": false,
                    "revertMessage": "",
                    "selector": "0x28f713cc",
                    "status": true,
                    "value": "0"
                },
                "nodeType": 0
            },
            "4": {
                "invocation": {
                    "address": "0x8af4669e3068bae96b92cd73603f5d86bed07a9a",
                    "callData": "0x00000000000000000000000000000000000000000000000000000000000000017461696b6f000000000000000000000000000000000000000000000000000000",
                    "decodedMethod": {
                        "callParams": [
                            {
                                "name": "_chainId",
                                "type": "uint64",
                                "value": "1"
                            },
                            {
                                "name": "_name",
                                "type": "bytes32",
                                "value": "0x7461696b6f000000000000000000000000000000000000000000000000000000"
                            }
                        ],
                        "constructorArguments": "",
                        "name": "getAddress",
                        "returnParams": [
                            {
                                "name": "",
                                "type": "address",
                                "value": "0x06a9ab27c7e2255df1815e6cc0168d7755feb19a"
                            }
                        ],
                        "signature": "getAddress(uint64,bytes32)"
                    },
                    "errorInfo": "",
                    "fromAddress": "0x579f40d0be111b823962043702cabe6aaa290780",
                    "gasUsed": 720,
                    "id": 4,
                    "methodDecoded": true,
                    "operation": "DELEGATECALL",
                    "output": "0x00000000000000000000000006a9ab27c7e2255df1815e6cc0168d7755feb19a",
                    "revert": false,
                    "revertMessage": "",
                    "selector": "0x28f713cc",
                    "status": true,
                    "value": "0"
                },
                "nodeType": 0
            },
            "40": {
                "invocation": {
                    "address": "0x8af4669e3068bae96b92cd73603f5d86bed07a9a",
                    "callData": "0x0000000000000000000000000000000000000000000000000000000000000001746965725f726f75746572000000000000000000000000000000000000000000",
                    "decodedMethod": {
                        "callParams": [
                            {
                                "name": "_chainId",
                                "type": "uint64",
                                "value": "1"
                            },
                            {
                                "name": "_name",
                                "type": "bytes32",
                                "value": "0x746965725f726f75746572000000000000000000000000000000000000000000"
                            }
                        ],
                        "constructorArguments": "",
                        "name": "getAddress",
                        "returnParams": [
                            {
                                "name": "",
                                "type": "address",
                                "value": "0xa8e5d3a2e2052bea7f10be6a0386454b721d1f9f"
                            }
                        ],
                        "signature": "getAddress(uint64,bytes32)"
                    },
                    "errorInfo": "",
                    "fromAddress": "0x579f40d0be111b823962043702cabe6aaa290780",
                    "gasUsed": 1074,
                    "id": 40,
                    "methodDecoded": true,
                    "operation": "DELEGATECALL",
                    "output": "0x000000000000000000000000a8e5d3a2e2052bea7f10be6a0386454b721d1f9f",
                    "revert": false,
                    "revertMessage": "",
                    "selector": "0x28f713cc",
                    "status": true,
                    "value": "0"
                },
                "nodeType": 0
            },
            "41": {
                "invocation": {
                    "address": "0xa8e5d3a2e2052bea7f10be6a0386454b721d1f9f",
                    "callData": "0x00000000000000000000000000000000000000000000000000000000000072a6",
                    "decodedMethod": {
                        "callParams": [
                            {
                                "name": "",
                                "type": "uint256",
                                "value": "29,350"
                            }
                        ],
                        "constructorArguments": "",
                        "name": "getProvider",
                        "returnParams": [
                            {
                                "name": "",
                                "type": "address",
                                "value": "0x4cffe56c947e26d07c14020499776db3e9ae3a23"
                            }
                        ],
                        "signature": "getProvider(uint256)"
                    },
                    "errorInfo": "",
                    "fromAddress": "0x06a9ab27c7e2255df1815e6cc0168d7755feb19a",
                    "gasUsed": 259,
                    "id": 41,
                    "methodDecoded": true,
                    "operation": "STATICCALL",
                    "output": "0x0000000000000000000000004cffe56c947e26d07c14020499776db3e9ae3a23",
                    "revert": false,
                    "revertMessage": "",
                    "selector": "0x5c42d079",
                    "status": true,
                    "value": "0"
                },
                "nodeType": 0
            },
            "42": {
                "invocation": {
                    "address": "0x4cffe56c947e26d07c14020499776db3e9ae3a23",
                    "callData": "0x00000000000000000000000000000000000000000000000000000000000000c8",
                    "decodedMethod": {
                        "callParams": [
                            {
                                "name": "_tierId",
                                "type": "uint16",
                                "value": "200"
                            }
                        ],
                        "constructorArguments": "",
                        "name": "getTier",
                        "returnParams": [
                            {
                                "name": "",
                                "type": "(bytes32,uint96,uint96,uint24,uint16,uint8)",
                                "value": [
                                    {
                                        "name": "verifierName",
                                        "type": "bytes32",
                                        "value": "0x746965725f736778000000000000000000000000000000000000000000000000"
                                    },
                                    {
                                        "name": "validityBond",
                                        "type": "uint96",
                                        "value": "250,000,000,000,000,000,000"
                                    },
                                    {
                                        "name": "contestBond",
                                        "type": "uint96",
                                        "value": "1,640,000,000,000,000,000,000"
                                    },
                                    {
                                        "name": "cooldownWindow",
                                        "type": "uint24",
                                        "value": "1,440"
                                    },
                                    {
                                        "name": "provingWindow",
                                        "type": "uint16",
                                        "value": "60"
                                    },
                                    {
                                        "name": "maxBlocksToVerifyPerProof",
                                        "type": "uint8",
                                        "value": "8"
                                    }
                                ]
                            }
                        ],
                        "signature": "getTier(uint16)"
                    },
                    "errorInfo": "",
                    "fromAddress": "0x06a9ab27c7e2255df1815e6cc0168d7755feb19a",
                    "gasUsed": 849,
                    "id": 42,
                    "methodDecoded": true,
                    "operation": "STATICCALL",
                    "output": "0x746965725f73677800000000000000000000000000000000000000000000000000000000000000000000000000000000000000000000000d8d726b7177a80000000000000000000000000000000000000000000000000058e7926ee858a0000000000000000000000000000000000000000000000000000000000000000005a0000000000000000000000000000000000000000000000000000000000000003c0000000000000000000000000000000000000000000000000000000000000008",
                    "revert": false,
                    "revertMessage": "",
                    "selector": "0x576c3de7",
                    "status": true,
                    "value": "0"
                },
                "nodeType": 0
            },
            "43": {
                "event": {
                    "contract": "0x06a9ab27c7e2255df1815e6cc0168d7755feb19a",
                    "decodedLog": {
                        "name": "StateVariablesUpdated",
                        "params": [
                            {
                                "name": "slotB",
                                "type": "(uint64,uint64,bool,uint8,uint16,uint32,uint64)",
                                "value": [
                                    {
                                        "name": "numBlocks",
                                        "type": "uint64",
                                        "value": "33,290"
                                    },
                                    {
                                        "name": "lastVerifiedBlockId",
                                        "type": "uint64",
                                        "value": "29,349"
                                    },
                                    {
                                        "name": "provingPaused",
                                        "type": "bool",
                                        "value": false
                                    },
                                    {
                                        "name": "__reservedB1",
                                        "type": "uint8",
                                        "value": "0"
                                    },
                                    {
                                        "name": "__reservedB2",
                                        "type": "uint16",
                                        "value": "0"
                                    },
                                    {
                                        "name": "__reservedB3",
                                        "type": "uint32",
                                        "value": "0"
                                    },
                                    {
                                        "name": "lastUnpausedAt",
                                        "type": "uint64",
                                        "value": "1,716,571,955"
                                    }
                                ]
                            }
                        ],
                        "signature": "StateVariablesUpdated((uint64,uint64,bool,uint8,uint16,uint32,uint64))"
                    },
                    "id": 43,
                    "logData": "0x000000000000000000000000000000000000000000000000000000000000820a00000000000000000000000000000000000000000000000000000000000072a50000000000000000000000000000000000000000000000000000000000000000000000000000000000000000000000000000000000000000000000000000000000000000000000000000000000000000000000000000000000000000000000000000000000000000000000000000000000000000000000000000000000000000000000000000000000000000000000000000000000000000000000006650cf33",
                    "logDecoded": true,
                    "operation": "EVENT",
                    "revert": false,
                    "status": true,
                    "topics": [
                        "0xdf66aee38ea9fe523cfd238705d455a354305a646748dbb931898b51cee4727b"
                    ]
                },
                "nodeType": 1
            },
            "5": {
                "invocation": {
                    "address": "0x06a9ab27c7e2255df1815e6cc0168d7755feb19a",
                    "callData": "0x000000000000000000000000000000000000000000000000000000000000820500000000000000000000000000000000000000000000000000000000000000400000000000000000000000000000000000000000000000000000000000000320cae93b6f6fa806e3ef19f236844536c8ceacd4c254161c69a9723964824cfca7e726b28ff7f31ba05578c53df2c8551509b263dc9cca4fda5d0dd61361685102016170f1c5a1cad6edd7626b2913cffd4f4e40c6e18071c0e511b7085a377988302e31382e302d64657600000000000000000000000000000000000000000000569e75fc77c1a856f6daaf9e69d8a9566ca34aa47f9133711ce065a571af0cfd000000000000000000000000000000633b68f5d8d3a86593ebb815b4663bcbe00000000000000000000000000000000000000000000000000000000000008205000000000000000000000000000000000000000000000000000000000e4e1c0000000000000000000000000000000000000000000000000000000000665fdeb700000000000000000000000000000000000000000000000000000000013186e000000000000000000000000000000000000000000000000000000000000000c80000000000000000000000000000000000000000000000000000000000000001092d0490d5ab96fb27f18f65f6df511633d8ee731c817a069e11a8562d817c40000000000000000000000000000000633b68f5d8d3a86593ebb815b4663bcbe07f7681a78cd34f6173be0cd5c108b12d24ef223142c9645d7c338f20b0dae8f11f1e42b7c4b82043c391e3e8af8933f1d18ce7367c33420025bd868864ada32a09e59594bec502d07a0a8c5b370dd4e000b9eb098a23e104cc59119654de94a80000000000000000000000000000000000000000000000000000000000000000000000000000000000000000000000000000000000000000000000000000026000000000000000000000000000000000000000000000000000000000000000c80000000000000000000000000000000000000000000000000000000000000040000000000000000000000000000000000000000000000000000000000000005900000005c57230b9a1bd4f882c40c9f549a27034474e596205080c28b248a4bd262a269e4716d8038744bd9c599664d17a9396e729a455c8581b13d3afe6366953e41715e40e00649e538a03b59753e268763f4003029ea41c00000000000000",
                    "decodedMethod": {
                        "callParams": [
                            {
                                "name": "_blockId",
                                "type": "uint64",
                                "value": "33,285"
                            },
                            {
                                "name": "_input",
                                "type": "bytes",
                                "value": "0xcae93b6f6fa806e3ef19f236844536c8ceacd4c254161c69a9723964824cfca7e726b28ff7f31ba05578c53df2c8551509b263dc9cca4fda5d0dd61361685102016170f1c5a1cad6edd7626b2913cffd4f4e40c6e18071c0e511b7085a377988302e31382e302d64657600000000000000000000000000000000000000000000569e75fc77c1a856f6daaf9e69d8a9566ca34aa47f9133711ce065a571af0cfd000000000000000000000000000000633b68f5d8d3a86593ebb815b4663bcbe00000000000000000000000000000000000000000000000000000000000008205000000000000000000000000000000000000000000000000000000000e4e1c0000000000000000000000000000000000000000000000000000000000665fdeb700000000000000000000000000000000000000000000000000000000013186e000000000000000000000000000000000000000000000000000000000000000c80000000000000000000000000000000000000000000000000000000000000001092d0490d5ab96fb27f18f65f6df511633d8ee731c817a069e11a8562d817c40000000000000000000000000000000633b68f5d8d3a86593ebb815b4663bcbe07f7681a78cd34f6173be0cd5c108b12d24ef223142c9645d7c338f20b0dae8f11f1e42b7c4b82043c391e3e8af8933f1d18ce7367c33420025bd868864ada32a09e59594bec502d07a0a8c5b370dd4e000b9eb098a23e104cc59119654de94a80000000000000000000000000000000000000000000000000000000000000000000000000000000000000000000000000000000000000000000000000000026000000000000000000000000000000000000000000000000000000000000000c80000000000000000000000000000000000000000000000000000000000000040000000000000000000000000000000000000000000000000000000000000005900000005c57230b9a1bd4f882c40c9f549a27034474e596205080c28b248a4bd262a269e4716d8038744bd9c599664d17a9396e729a455c8581b13d3afe6366953e41715e40e00649e538a03b59753e268763f4003029ea41c00000000000000"
                            }
                        ],
                        "constructorArguments": "",
                        "name": "proveBlock",
                        "returnParams": [],
                        "signature": "proveBlock(uint64,bytes)"
                    },
                    "errorInfo": "",
                    "fromAddress": "0x68d30f47f19c07bccef4ac7fae2dc12fca3e0dc9",
                    "gasUsed": 255579,
                    "id": 5,
                    "methodDecoded": true,
                    "operation": "CALL",
                    "output": "",
                    "revert": false,
                    "revertMessage": "",
                    "selector": "0x10d008bd",
                    "status": true,
                    "value": "0"
                },
                "nodeType": 0
            },
            "6": {
                "invocation": {
                    "address": "0xe84dc8e2a21e59426542ab040d77f81d6db881ee",
                    "callData": "0x000000000000000000000000000000000000000000000000000000000000820500000000000000000000000000000000000000000000000000000000000000400000000000000000000000000000000000000000000000000000000000000320cae93b6f6fa806e3ef19f236844536c8ceacd4c254161c69a9723964824cfca7e726b28ff7f31ba05578c53df2c8551509b263dc9cca4fda5d0dd61361685102016170f1c5a1cad6edd7626b2913cffd4f4e40c6e18071c0e511b7085a377988302e31382e302d64657600000000000000000000000000000000000000000000569e75fc77c1a856f6daaf9e69d8a9566ca34aa47f9133711ce065a571af0cfd000000000000000000000000000000633b68f5d8d3a86593ebb815b4663bcbe00000000000000000000000000000000000000000000000000000000000008205000000000000000000000000000000000000000000000000000000000e4e1c0000000000000000000000000000000000000000000000000000000000665fdeb700000000000000000000000000000000000000000000000000000000013186e000000000000000000000000000000000000000000000000000000000000000c80000000000000000000000000000000000000000000000000000000000000001092d0490d5ab96fb27f18f65f6df511633d8ee731c817a069e11a8562d817c40000000000000000000000000000000633b68f5d8d3a86593ebb815b4663bcbe07f7681a78cd34f6173be0cd5c108b12d24ef223142c9645d7c338f20b0dae8f11f1e42b7c4b82043c391e3e8af8933f1d18ce7367c33420025bd868864ada32a09e59594bec502d07a0a8c5b370dd4e000b9eb098a23e104cc59119654de94a80000000000000000000000000000000000000000000000000000000000000000000000000000000000000000000000000000000000000000000000000000026000000000000000000000000000000000000000000000000000000000000000c80000000000000000000000000000000000000000000000000000000000000040000000000000000000000000000000000000000000000000000000000000005900000005c57230b9a1bd4f882c40c9f549a27034474e596205080c28b248a4bd262a269e4716d8038744bd9c599664d17a9396e729a455c8581b13d3afe6366953e41715e40e00649e538a03b59753e268763f4003029ea41c00000000000000",
                    "decodedMethod": {
                        "callParams": [
                            {
                                "name": "_blockId",
                                "type": "uint64",
                                "value": "33,285"
                            },
                            {
                                "name": "_input",
                                "type": "bytes",
                                "value": "0xcae93b6f6fa806e3ef19f236844536c8ceacd4c254161c69a9723964824cfca7e726b28ff7f31ba05578c53df2c8551509b263dc9cca4fda5d0dd61361685102016170f1c5a1cad6edd7626b2913cffd4f4e40c6e18071c0e511b7085a377988302e31382e302d64657600000000000000000000000000000000000000000000569e75fc77c1a856f6daaf9e69d8a9566ca34aa47f9133711ce065a571af0cfd000000000000000000000000000000633b68f5d8d3a86593ebb815b4663bcbe00000000000000000000000000000000000000000000000000000000000008205000000000000000000000000000000000000000000000000000000000e4e1c0000000000000000000000000000000000000000000000000000000000665fdeb700000000000000000000000000000000000000000000000000000000013186e000000000000000000000000000000000000000000000000000000000000000c80000000000000000000000000000000000000000000000000000000000000001092d0490d5ab96fb27f18f65f6df511633d8ee731c817a069e11a8562d817c40000000000000000000000000000000633b68f5d8d3a86593ebb815b4663bcbe07f7681a78cd34f6173be0cd5c108b12d24ef223142c9645d7c338f20b0dae8f11f1e42b7c4b82043c391e3e8af8933f1d18ce7367c33420025bd868864ada32a09e59594bec502d07a0a8c5b370dd4e000b9eb098a23e104cc59119654de94a80000000000000000000000000000000000000000000000000000000000000000000000000000000000000000000000000000000000000000000000000000026000000000000000000000000000000000000000000000000000000000000000c80000000000000000000000000000000000000000000000000000000000000040000000000000000000000000000000000000000000000000000000000000005900000005c57230b9a1bd4f882c40c9f549a27034474e596205080c28b248a4bd262a269e4716d8038744bd9c599664d17a9396e729a455c8581b13d3afe6366953e41715e40e00649e538a03b59753e268763f4003029ea41c00000000000000"
                            }
                        ],
                        "constructorArguments": "",
                        "name": "proveBlock",
                        "returnParams": [],
                        "signature": "proveBlock(uint64,bytes)"
                    },
                    "errorInfo": "",
                    "fromAddress": "0x06a9ab27c7e2255df1815e6cc0168d7755feb19a",
                    "gasUsed": 250530,
                    "id": 6,
                    "methodDecoded": true,
                    "operation": "DELEGATECALL",
                    "output": "",
                    "revert": false,
                    "revertMessage": "",
                    "selector": "0x10d008bd",
                    "status": true,
                    "value": "0"
                },
                "nodeType": 0
            },
            "7": {
                "invocation": {
                    "address": "0x06a9ab27c7e2255df1815e6cc0168d7755feb19a",
                    "callData": "0x746965725f726f757465720000000000000000000000000000000000000000000000000000000000000000000000000000000000000000000000000000000000",
                    "decodedMethod": {
                        "callParams": [
                            {
                                "name": "_name",
                                "type": "bytes32",
                                "value": "0x746965725f726f75746572000000000000000000000000000000000000000000"
                            },
                            {
                                "name": "_allowZeroAddress",
                                "type": "bool",
                                "value": false
                            }
                        ],
                        "constructorArguments": "",
                        "name": "resolve",
                        "returnParams": [
                            {
                                "name": "",
                                "type": "address",
                                "value": "0xa8e5d3a2e2052bea7f10be6a0386454b721d1f9f"
                            }
                        ],
                        "signature": "resolve(bytes32,bool)"
                    },
                    "errorInfo": "",
                    "fromAddress": "0x06a9ab27c7e2255df1815e6cc0168d7755feb19a",
                    "gasUsed": 7052,
                    "id": 7,
                    "methodDecoded": true,
                    "operation": "STATICCALL",
                    "output": "0x000000000000000000000000a8e5d3a2e2052bea7f10be6a0386454b721d1f9f",
                    "revert": false,
                    "revertMessage": "",
                    "selector": "0xa86f9d9e",
                    "status": true,
                    "value": "0"
                },
                "nodeType": 0
            },
            "8": {
                "invocation": {
                    "address": "0xe84dc8e2a21e59426542ab040d77f81d6db881ee",
                    "callData": "0x746965725f726f757465720000000000000000000000000000000000000000000000000000000000000000000000000000000000000000000000000000000000",
                    "decodedMethod": {
                        "callParams": [
                            {
                                "name": "_name",
                                "type": "bytes32",
                                "value": "0x746965725f726f75746572000000000000000000000000000000000000000000"
                            },
                            {
                                "name": "_allowZeroAddress",
                                "type": "bool",
                                "value": false
                            }
                        ],
                        "constructorArguments": "",
                        "name": "resolve",
                        "returnParams": [
                            {
                                "name": "",
                                "type": "address",
                                "value": "0xa8e5d3a2e2052bea7f10be6a0386454b721d1f9f"
                            }
                        ],
                        "signature": "resolve(bytes32,bool)"
                    },
                    "errorInfo": "",
                    "fromAddress": "0x06a9ab27c7e2255df1815e6cc0168d7755feb19a",
                    "gasUsed": 6657,
                    "id": 8,
                    "methodDecoded": true,
                    "operation": "DELEGATECALL",
                    "output": "0x000000000000000000000000a8e5d3a2e2052bea7f10be6a0386454b721d1f9f",
                    "revert": false,
                    "revertMessage": "",
                    "selector": "0xa86f9d9e",
                    "status": true,
                    "value": "0"
                },
                "nodeType": 0
            },
            "9": {
                "invocation": {
                    "address": "0x579f40d0be111b823962043702cabe6aaa290780",
                    "callData": "0x0000000000000000000000000000000000000000000000000000000000000001746965725f726f75746572000000000000000000000000000000000000000000",
                    "decodedMethod": {
                        "callParams": [
                            {
                                "name": "_chainId",
                                "type": "uint64",
                                "value": "1"
                            },
                            {
                                "name": "_name",
                                "type": "bytes32",
                                "value": "0x746965725f726f75746572000000000000000000000000000000000000000000"
                            }
                        ],
                        "constructorArguments": "",
                        "name": "getAddress",
                        "returnParams": [
                            {
                                "name": "",
                                "type": "address",
                                "value": "0xa8e5d3a2e2052bea7f10be6a0386454b721d1f9f"
                            }
                        ],
                        "signature": "getAddress(uint64,bytes32)"
                    },
                    "errorInfo": "",
                    "fromAddress": "0x06a9ab27c7e2255df1815e6cc0168d7755feb19a",
                    "gasUsed": 3469,
                    "id": 9,
                    "methodDecoded": true,
                    "operation": "STATICCALL",
                    "output": "0x000000000000000000000000a8e5d3a2e2052bea7f10be6a0386454b721d1f9f",
                    "revert": false,
                    "revertMessage": "",
                    "selector": "0x28f713cc",
                    "status": true,
                    "value": "0"
                },
                "nodeType": 0
            }
        },
        "gasFlame": [
            {
                "children": [
                    {
                        "children": [
                            {
                                "children": [],
                                "depth": 0,
                                "name": "Initial Gas",
                                "value": 29544
                            },
                            {
                                "children": [
                                    {
                                        "children": [
                                            {
                                                "children": [
                                                    {
                                                        "children": [],
                                                        "depth": 3,
                                                        "name": "getAddress",
                                                        "value": 720
                                                    }
                                                ],
                                                "depth": 2,
                                                "name": "getAddress",
                                                "value": 5615
                                            },
                                            {
                                                "children": [
                                                    {
                                                        "children": [
                                                            {
                                                                "children": [
                                                                    {
                                                                        "children": [
                                                                            {
                                                                                "children": [
                                                                                    {
                                                                                        "children": [],
                                                                                        "depth": 7,
                                                                                        "name": "getAddress",
                                                                                        "value": 3074
                                                                                    }
                                                                                ],
                                                                                "depth": 6,
                                                                                "name": "getAddress",
                                                                                "value": 3469
                                                                            }
                                                                        ],
                                                                        "depth": 5,
                                                                        "name": "resolve",
                                                                        "value": 6657
                                                                    }
                                                                ],
                                                                "depth": 4,
                                                                "name": "resolve",
                                                                "value": 7052
                                                            },
                                                            {
                                                                "children": [],
                                                                "depth": 4,
                                                                "name": "getProvider",
                                                                "value": 259
                                                            },
                                                            {
                                                                "children": [],
                                                                "depth": 4,
                                                                "name": "getTier",
                                                                "value": 849
                                                            },
                                                            {
                                                                "children": [],
                                                                "depth": 4,
                                                                "name": "getTier",
                                                                "value": 849
                                                            },
                                                            {
                                                                "children": [
                                                                    {
                                                                        "children": [
                                                                            {
                                                                                "children": [
                                                                                    {
                                                                                        "children": [],
                                                                                        "depth": 7,
                                                                                        "name": "getAddress",
                                                                                        "value": 749
                                                                                    }
                                                                                ],
                                                                                "depth": 6,
                                                                                "name": "getAddress",
                                                                                "value": 1144
                                                                            }
                                                                        ],
                                                                        "depth": 5,
                                                                        "name": "resolve",
                                                                        "value": 2332
                                                                    }
                                                                ],
                                                                "depth": 4,
                                                                "name": "resolve",
                                                                "value": 2727
                                                            },
                                                            {
                                                                "children": [
                                                                    {
                                                                        "children": [
                                                                            {
                                                                                "children": [
                                                                                    {
                                                                                        "children": [],
                                                                                        "depth": 7,
                                                                                        "name": "getAddress",
                                                                                        "value": 720
                                                                                    }
                                                                                ],
                                                                                "depth": 6,
                                                                                "name": "getAddress",
                                                                                "value": 1115
                                                                            },
                                                                            {
                                                                                "children": [
                                                                                    {
                                                                                        "children": [],
                                                                                        "depth": 7,
                                                                                        "name": "getAddress",
                                                                                        "value": 720
                                                                                    }
                                                                                ],
                                                                                "depth": 6,
                                                                                "name": "getAddress",
                                                                                "value": 1115
                                                                            },
                                                                            {
                                                                                "children": [
                                                                                    {
                                                                                        "children": [],
                                                                                        "depth": 7,
                                                                                        "name": "getConfig",
                                                                                        "value": 899
                                                                                    }
                                                                                ],
                                                                                "depth": 6,
                                                                                "name": "getConfig",
                                                                                "value": 1318
                                                                            },
                                                                            {
                                                                                "children": [],
                                                                                "depth": 6,
                                                                                "name": "ecrecover",
                                                                                "value": 3000
                                                                            }
                                                                        ],
                                                                        "depth": 5,
                                                                        "name": "verifyProof",
                                                                        "value": 23766
                                                                    }
                                                                ],
                                                                "depth": 4,
                                                                "name": "verifyProof",
                                                                "value": 28754
                                                            },
                                                            {
                                                                "children": [
                                                                    {
                                                                        "children": [
                                                                            {
                                                                                "children": [
                                                                                    {
                                                                                        "children": [],
                                                                                        "depth": 7,
                                                                                        "name": "getAddress",
                                                                                        "value": 633
                                                                                    }
                                                                                ],
                                                                                "depth": 6,
                                                                                "name": "getAddress",
                                                                                "value": 1028
                                                                            }
                                                                        ],
                                                                        "depth": 5,
                                                                        "name": "resolve",
                                                                        "value": 2216
                                                                    }
                                                                ],
                                                                "depth": 4,
                                                                "name": "resolve",
                                                                "value": 2611
                                                            },
                                                            {
                                                                "children": [
                                                                    {
                                                                        "children": [
                                                                            {
                                                                                "children": [
                                                                                    {
                                                                                        "children": [],
                                                                                        "depth": 7,
                                                                                        "name": "getAddress",
                                                                                        "value": 633
                                                                                    }
                                                                                ],
                                                                                "depth": 6,
                                                                                "name": "getAddress",
                                                                                "value": 1028
                                                                            }
                                                                        ],
                                                                        "depth": 5,
                                                                        "name": "resolve",
                                                                        "value": 2216
                                                                    }
                                                                ],
                                                                "depth": 4,
                                                                "name": "resolve",
                                                                "value": 2611
                                                            },
                                                            {
                                                                "children": [
                                                                    {
                                                                        "children": [
                                                                            {
                                                                                "children": [
                                                                                    {
                                                                                        "children": [],
                                                                                        "depth": 7,
                                                                                        "name": "getAddress",
                                                                                        "value": 1074
                                                                                    }
                                                                                ],
                                                                                "depth": 6,
                                                                                "name": "getAddress",
                                                                                "value": 1469
                                                                            }
                                                                        ],
                                                                        "depth": 5,
                                                                        "name": "resolve",
                                                                        "value": 2657
                                                                    }
                                                                ],
                                                                "depth": 4,
                                                                "name": "resolve",
                                                                "value": 3052
                                                            },
                                                            {
                                                                "children": [],
                                                                "depth": 4,
                                                                "name": "getProvider",
                                                                "value": 259
                                                            },
                                                            {
                                                                "children": [],
                                                                "depth": 4,
                                                                "name": "getTier",
                                                                "value": 849
                                                            }
                                                        ],
                                                        "depth": 3,
                                                        "name": "proveBlock",
                                                        "value": 250530
                                                    }
                                                ],
                                                "depth": 2,
                                                "name": "proveBlock",
                                                "value": 255579
                                            }
                                        ],
                                        "depth": 1,
                                        "name": "proveBlock",
                                        "value": 274797
                                    }
                                ],
                                "depth": 0,
                                "name": "Executed Gas",
                                "value": 279846
                            }
                        ],
                        "depth": -1,
                        "name": "Actual Gas Used",
                        "value": 309390
                    },
                    {
                        "children": [],
                        "depth": -1,
                        "name": "Refunded Gas",
                        "value": 0
                    }
                ],
                "depth": -2,
                "name": "Total Gas",
                "value": 309390
            }
        ],
        "isConfirmed": true,
        "mainTrace": [
            {
                "children": [
                    {
                        "children": [
                            {
                                "children": [
                                    {
                                        "children": [],
                                        "depth": 2,
                                        "id": 2,
                                        "order": 2
                                    },
                                    {
                                        "children": [
                                            {
                                                "children": [],
                                                "depth": 3,
                                                "id": 4,
                                                "order": 4
                                            }
                                        ],
                                        "depth": 2,
                                        "id": 3,
                                        "order": 3
                                    },
                                    {
                                        "children": [
                                            {
                                                "children": [
                                                    {
                                                        "children": [
                                                            {
                                                                "children": [
                                                                    {
                                                                        "children": [
                                                                            {
                                                                                "children": [],
                                                                                "depth": 7,
                                                                                "id": 10,
                                                                                "order": 10
                                                                            }
                                                                        ],
                                                                        "depth": 6,
                                                                        "id": 9,
                                                                        "order": 9
                                                                    }
                                                                ],
                                                                "depth": 5,
                                                                "id": 8,
                                                                "order": 8
                                                            }
                                                        ],
                                                        "depth": 4,
                                                        "id": 7,
                                                        "order": 7
                                                    },
                                                    {
                                                        "children": [],
                                                        "depth": 4,
                                                        "id": 11,
                                                        "order": 11
                                                    },
                                                    {
                                                        "children": [],
                                                        "depth": 4,
                                                        "id": 12,
                                                        "order": 12
                                                    },
                                                    {
                                                        "children": [],
                                                        "depth": 4,
                                                        "id": 13,
                                                        "order": 13
                                                    },
                                                    {
                                                        "children": [
                                                            {
                                                                "children": [
                                                                    {
                                                                        "children": [
                                                                            {
                                                                                "children": [],
                                                                                "depth": 7,
                                                                                "id": 17,
                                                                                "order": 17
                                                                            }
                                                                        ],
                                                                        "depth": 6,
                                                                        "id": 16,
                                                                        "order": 16
                                                                    }
                                                                ],
                                                                "depth": 5,
                                                                "id": 15,
                                                                "order": 15
                                                            }
                                                        ],
                                                        "depth": 4,
                                                        "id": 14,
                                                        "order": 14
                                                    },
                                                    {
                                                        "children": [
                                                            {
                                                                "children": [
                                                                    {
                                                                        "children": [
                                                                            {
                                                                                "children": [],
                                                                                "depth": 7,
                                                                                "id": 21,
                                                                                "order": 21
                                                                            }
                                                                        ],
                                                                        "depth": 6,
                                                                        "id": 20,
                                                                        "order": 20
                                                                    },
                                                                    {
                                                                        "children": [
                                                                            {
                                                                                "children": [],
                                                                                "depth": 7,
                                                                                "id": 23,
                                                                                "order": 23
                                                                            }
                                                                        ],
                                                                        "depth": 6,
                                                                        "id": 22,
                                                                        "order": 22
                                                                    },
                                                                    {
                                                                        "children": [
                                                                            {
                                                                                "children": [],
                                                                                "depth": 7,
                                                                                "id": 25,
                                                                                "order": 25
                                                                            }
                                                                        ],
                                                                        "depth": 6,
                                                                        "id": 24,
                                                                        "order": 24
                                                                    },
                                                                    {
                                                                        "children": [],
                                                                        "depth": 6,
                                                                        "id": 26,
                                                                        "order": 26
                                                                    },
                                                                    {
                                                                        "children": [],
                                                                        "depth": 6,
                                                                        "id": 27,
                                                                        "order": 27
                                                                    }
                                                                ],
                                                                "depth": 5,
                                                                "id": 19,
                                                                "order": 19
                                                            }
                                                        ],
                                                        "depth": 4,
                                                        "id": 18,
                                                        "order": 18
                                                    },
                                                    {
                                                        "children": [
                                                            {
                                                                "children": [
                                                                    {
                                                                        "children": [
                                                                            {
                                                                                "children": [],
                                                                                "depth": 7,
                                                                                "id": 31,
                                                                                "order": 31
                                                                            }
                                                                        ],
                                                                        "depth": 6,
                                                                        "id": 30,
                                                                        "order": 30
                                                                    }
                                                                ],
                                                                "depth": 5,
                                                                "id": 29,
                                                                "order": 29
                                                            }
                                                        ],
                                                        "depth": 4,
                                                        "id": 28,
                                                        "order": 28
                                                    },
                                                    {
                                                        "children": [],
                                                        "depth": 4,
                                                        "id": 32,
                                                        "order": 32
                                                    },
                                                    {
                                                        "children": [
                                                            {
                                                                "children": [
                                                                    {
                                                                        "children": [
                                                                            {
                                                                                "children": [],
                                                                                "depth": 7,
                                                                                "id": 36,
                                                                                "order": 36
                                                                            }
                                                                        ],
                                                                        "depth": 6,
                                                                        "id": 35,
                                                                        "order": 35
                                                                    }
                                                                ],
                                                                "depth": 5,
                                                                "id": 34,
                                                                "order": 34
                                                            }
                                                        ],
                                                        "depth": 4,
                                                        "id": 33,
                                                        "order": 33
                                                    },
                                                    {
                                                        "children": [
                                                            {
                                                                "children": [
                                                                    {
                                                                        "children": [
                                                                            {
                                                                                "children": [],
                                                                                "depth": 7,
                                                                                "id": 40,
                                                                                "order": 40
                                                                            }
                                                                        ],
                                                                        "depth": 6,
                                                                        "id": 39,
                                                                        "order": 39
                                                                    }
                                                                ],
                                                                "depth": 5,
                                                                "id": 38,
                                                                "order": 38
                                                            }
                                                        ],
                                                        "depth": 4,
                                                        "id": 37,
                                                        "order": 37
                                                    },
                                                    {
                                                        "children": [],
                                                        "depth": 4,
                                                        "id": 41,
                                                        "order": 41
                                                    },
                                                    {
                                                        "children": [],
                                                        "depth": 4,
                                                        "id": 42,
                                                        "order": 42
                                                    },
                                                    {
                                                        "children": [],
                                                        "depth": 4,
                                                        "id": 43,
                                                        "order": 43
                                                    }
                                                ],
                                                "depth": 3,
                                                "id": 6,
                                                "order": 6
                                            }
                                        ],
                                        "depth": 2,
                                        "id": 5,
                                        "order": 5
                                    }
                                ],
                                "depth": 1,
                                "id": 1,
                                "order": 1
                            }
                        ],
                        "depth": 0,
                        "id": 0,
                        "order": 0
                    }
                ],
                "depth": -1,
                "id": -1,
                "order": -1
            }
        ],
        "mainTraceNodeCount": 44,
        "parentIdMap": {
            "0": -1,
            "1": 0,
            "10": 9,
            "11": 6,
            "12": 6,
            "13": 6,
            "14": 6,
            "15": 14,
            "16": 15,
            "17": 16,
            "18": 6,
            "19": 18,
            "2": 1,
            "20": 19,
            "21": 20,
            "22": 19,
            "23": 22,
            "24": 19,
            "25": 24,
            "26": 19,
            "27": 19,
            "28": 6,
            "29": 28,
            "3": 1,
            "30": 29,
            "31": 30,
            "32": 6,
            "33": 6,
            "34": 33,
            "35": 34,
            "36": 35,
            "37": 6,
            "38": 37,
            "39": 38,
            "4": 3,
            "40": 39,
            "41": 6,
            "42": 6,
            "43": 6,
            "5": 1,
            "6": 5,
            "7": 6,
            "8": 7,
            "9": 8
        },
        "tidyTrace": [
            {
                "children": [
                    {
                        "children": [
                            {
                                "children": [
                                    {
                                        "children": [],
                                        "depth": 2,
                                        "id": 2,
                                        "order": 2
                                    },
                                    {
                                        "children": [
                                            {
                                                "children": [
                                                    {
                                                        "children": [
                                                            {
                                                                "children": [
                                                                    {
                                                                        "children": [],
                                                                        "depth": 6,
                                                                        "id": 27,
                                                                        "order": 27
                                                                    }
                                                                ],
                                                                "depth": 5,
                                                                "id": 19,
                                                                "order": 19
                                                            }
                                                        ],
                                                        "depth": 4,
                                                        "id": 18,
                                                        "order": 18
                                                    },
                                                    {
                                                        "children": [],
                                                        "depth": 4,
                                                        "id": 32,
                                                        "order": 32
                                                    },
                                                    {
                                                        "children": [],
                                                        "depth": 4,
                                                        "id": 43,
                                                        "order": 43
                                                    }
                                                ],
                                                "depth": 3,
                                                "id": 6,
                                                "order": 6
                                            }
                                        ],
                                        "depth": 2,
                                        "id": 5,
                                        "order": 5
                                    }
                                ],
                                "depth": 1,
                                "id": 1,
                                "order": 1
                            }
                        ],
                        "depth": 0,
                        "id": 0,
                        "order": 0
                    }
                ],
                "depth": -1,
                "id": -1,
                "order": -1
            }
        ],
        "tidyTraceNodeCount": 10
    },
    "state_change": {
        "stateChanges": [
            {
                "address": "0x06a9ab27c7e2255df1815e6cc0168d7755feb19a",
                "erc": "",
                "slots": [
                    {
                        "current": "0x1f1e42b7c4b82043c391e3e8af8933f1d18ce7367c33420025bd868864ada32a",
                        "key": "0xb9ecdd2e7ce55664af0cc607f82c6148394098615f5fe3c0d35fbba05757fc06",
                        "prev": "0x0000000000000000000000000000000000000000000000000000000000000000"
                    },
                    {
                        "current": "0x09e59594bec502d07a0a8c5b370dd4e000b9eb098a23e104cc59119654de94a8",
                        "key": "0xb9ecdd2e7ce55664af0cc607f82c6148394098615f5fe3c0d35fbba05757fc07",
                        "prev": "0x0000000000000000000000000000000000000000000000000000000000000000"
                    },
                    {
                        "current": "0x000000000000000200000000013186e100000000665fdeb70000000000008205",
                        "key": "0x0ea776a6cae69ae5a2ddd9e9d2b1acb0786117ec51c7732c38250fdc7a41a8d2",
                        "prev": "0x000000000000000100000000013186e100000000665fdeb70000000000008205"
                    },
                    {
                        "current": "0x0000000000000000000000010000000000000000000000000000000000000000",
                        "key": "0xb9ecdd2e7ce55664af0cc607f82c6148394098615f5fe3c0d35fbba05757fc09",
                        "prev": "0x0000000000000000000000000000000000000000000000000000000000000000"
                    },
                    {
                        "current": "0x0000000000000000000000000000000000000000000000c800000000665fdf0b",
                        "key": "0xb9ecdd2e7ce55664af0cc607f82c6148394098615f5fe3c0d35fbba05757fc0a",
                        "prev": "0x0000000000000000000000000000000000000000000000000000000000000000"
                    },
                    {
                        "current": "0x7f7681a78cd34f6173be0cd5c108b12d24ef223142c9645d7c338f20b0dae8f1",
                        "key": "0xb9ecdd2e7ce55664af0cc607f82c6148394098615f5fe3c0d35fbba05757fc05",
                        "prev": "0x0000000000000000000000000000000000000000000000000000000000000000"
                    },
                    {
                        "current": "0x0000000d8d726b7177a8000068d30f47f19c07bccef4ac7fae2dc12fca3e0dc9",
                        "key": "0xb9ecdd2e7ce55664af0cc607f82c6148394098615f5fe3c0d35fbba05757fc08",
                        "prev": "0x0000000000000000000000000000000000000000000000000000000000000000"
                    },
                    {
                        "current": "0x00000000000000000000000068d30f47f19c07bccef4ac7fae2dc12fca3e0dc9",
                        "key": "0x0ea776a6cae69ae5a2ddd9e9d2b1acb0786117ec51c7732c38250fdc7a41a8d1",
                        "prev": "0x0000000d8d726b7177a8000068d30f47f19c07bccef4ac7fae2dc12fca3e0dc9"
                    }
                ],
                "storageVariables": [
                    {
                        "name": "state",
                        "type": "struct TaikoData.State",
                        "value": {
                            "fields": [
                                {
                                    "name": "blocks",
                                    "type": "mapping(uint64 => struct TaikoData.Block)",
                                    "value": {
                                        "pairs": [
                                            {
                                                "key": "33285",
                                                "value": {
                                                    "fields": [
                                                        {
                                                            "name": "assignedProver",
                                                            "type": "address",
                                                            "value": {
                                                                "current": "0x68d30f47f19c07bccef4ac7fae2dc12fca3e0dc9",
                                                                "prev": "0x68d30f47f19c07bccef4ac7fae2dc12fca3e0dc9",
                                                                "typeTag": 1
                                                            }
                                                        },
                                                        {
                                                            "name": "livenessBond",
                                                            "type": "uint96",
                                                            "value": {
                                                                "current": "0",
                                                                "prev": "250000000000000000000",
                                                                "typeTag": 1
                                                            }
                                                        },
                                                        {
                                                            "name": "blockId",
                                                            "type": "uint64",
                                                            "value": {
                                                                "current": "33285",
                                                                "prev": "33285",
                                                                "typeTag": 1
                                                            }
                                                        },
                                                        {
                                                            "name": "proposedAt",
                                                            "type": "uint64",
                                                            "value": {
                                                                "current": "1717558967",
                                                                "prev": "1717558967",
                                                                "typeTag": 1
                                                            }
                                                        },
                                                        {
                                                            "name": "proposedIn",
                                                            "type": "uint64",
                                                            "value": {
                                                                "current": "20023009",
                                                                "prev": "20023009",
                                                                "typeTag": 1
                                                            }
                                                        },
                                                        {
                                                            "name": "nextTransitionId",
                                                            "type": "uint32",
                                                            "value": {
                                                                "current": "2",
                                                                "prev": "1",
                                                                "typeTag": 1
                                                            }
                                                        },
                                                        {
                                                            "name": "verifiedTransitionId",
                                                            "type": "uint32",
                                                            "value": {
                                                                "current": "0",
                                                                "prev": "0",
                                                                "typeTag": 1
                                                            }
                                                        }
                                                    ],
                                                    "typeTag": 3
                                                }
                                            }
                                        ],
                                        "typeTag": 4
                                    }
                                },
                                {
                                    "name": "transitions",
                                    "type": "mapping(uint64 => mapping(uint32 => struct TaikoData.TransitionState))",
                                    "value": {
                                        "pairs": [
                                            {
                                                "key": "33285",
                                                "value": {
                                                    "pairs": [
                                                        {
                                                            "key": "1",
                                                            "value": {
                                                                "fields": [
                                                                    {
                                                                        "name": "key",
                                                                        "type": "bytes32",
                                                                        "value": {
                                                                            "current": "0x7f7681a78cd34f6173be0cd5c108b12d24ef223142c9645d7c338f20b0dae8f1",
                                                                            "prev": "0x0000000000000000000000000000000000000000000000000000000000000000",
                                                                            "typeTag": 1
                                                                        }
                                                                    },
                                                                    {
                                                                        "name": "blockHash",
                                                                        "type": "bytes32",
                                                                        "value": {
                                                                            "current": "0x1f1e42b7c4b82043c391e3e8af8933f1d18ce7367c33420025bd868864ada32a",
                                                                            "prev": "0x0000000000000000000000000000000000000000000000000000000000000000",
                                                                            "typeTag": 1
                                                                        }
                                                                    },
                                                                    {
                                                                        "name": "stateRoot",
                                                                        "type": "bytes32",
                                                                        "value": {
                                                                            "current": "0x09e59594bec502d07a0a8c5b370dd4e000b9eb098a23e104cc59119654de94a8",
                                                                            "prev": "0x0000000000000000000000000000000000000000000000000000000000000000",
                                                                            "typeTag": 1
                                                                        }
                                                                    },
                                                                    {
                                                                        "name": "prover",
                                                                        "type": "address",
                                                                        "value": {
                                                                            "current": "0x68d30f47f19c07bccef4ac7fae2dc12fca3e0dc9",
                                                                            "prev": "0x0000000000000000000000000000000000000000",
                                                                            "typeTag": 1
                                                                        }
                                                                    },
                                                                    {
                                                                        "name": "validityBond",
                                                                        "type": "uint96",
                                                                        "value": {
                                                                            "current": "250000000000000000000",
                                                                            "prev": "0",
                                                                            "typeTag": 1
                                                                        }
                                                                    },
                                                                    {
                                                                        "name": "contester",
                                                                        "type": "address",
                                                                        "value": {
                                                                            "current": "0x0000000000000000000000000000000000000000",
                                                                            "prev": "0x0000000000000000000000000000000000000000",
                                                                            "typeTag": 1
                                                                        }
                                                                    },
                                                                    {
                                                                        "name": "contestBond",
                                                                        "type": "uint96",
                                                                        "value": {
                                                                            "current": "1",
                                                                            "prev": "0",
                                                                            "typeTag": 1
                                                                        }
                                                                    },
                                                                    {
                                                                        "name": "timestamp",
                                                                        "type": "uint64",
                                                                        "value": {
                                                                            "current": "1717559051",
                                                                            "prev": "0",
                                                                            "typeTag": 1
                                                                        }
                                                                    },
                                                                    {
                                                                        "name": "tier",
                                                                        "type": "uint16",
                                                                        "value": {
                                                                            "current": "200",
                                                                            "prev": "0",
                                                                            "typeTag": 1
                                                                        }
                                                                    },
                                                                    {
                                                                        "name": "__reserved1",
                                                                        "type": "uint8",
                                                                        "value": {
                                                                            "current": "0",
                                                                            "prev": "0",
                                                                            "typeTag": 1
                                                                        }
                                                                    }
                                                                ],
                                                                "typeTag": 3
                                                            }
                                                        }
                                                    ],
                                                    "typeTag": 4
                                                }
                                            }
                                        ],
                                        "typeTag": 4
                                    }
                                }
                            ],
                            "typeTag": 3
                        }
                    }
                ]
            },
            {
                "address": "0xb0f3186fc1963f774f52ff455dc86aedd0b31f81",
                "erc": "",
                "slots": [
                    {
                        "current": "0x0000000000000000665fdf0bc57230b9a1bd4f882c40c9f549a27034474e5962",
                        "key": "0xc170d1b73b414b096737030a3c2a20e9f5f9466792ff27be0318bcce6977c3a2",
                        "prev": "0x0000000000000000665fdee7c57230b9a1bd4f882c40c9f549a27034474e5962"
                    }
                ],
                "storageVariables": [
                    {
                        "name": "instances",
                        "type": "mapping(uint256 => struct SgxVerifier.Instance)",
                        "value": {
                            "pairs": [
                                {
                                    "key": "5",
                                    "value": {
                                        "fields": [
                                            {
                                                "name": "addr",
                                                "type": "address",
                                                "value": {
                                                    "current": "0xc57230b9a1bd4f882c40c9f549a27034474e5962",
                                                    "prev": "0xc57230b9a1bd4f882c40c9f549a27034474e5962",
                                                    "typeTag": 1
                                                }
                                            },
                                            {
                                                "name": "validSince",
                                                "type": "uint64",
                                                "value": {
                                                    "current": "1717559051",
                                                    "prev": "1717559015",
                                                    "typeTag": 1
                                                }
                                            }
                                        ],
                                        "typeTag": 3
                                    }
                                }
                            ],
                            "typeTag": 4
                        }
                    }
                ]
            }
        ]
    }
}