{
    "balance_change": {
        "balanceChanges": [
            {
                "account": "0xbf16822f6114894a7a7fad509cf1ffbf2948054e",
                "assets": [
                    {
                        "address": "0x1acb5586b4d030ddf37228ebbf25278142086659",
                        "amount": "6.55",
                        "iconUrl": "",
                        "isERC1155": false,
                        "isERC721": false,
                        "sign": false,
                        "value": ""
                    }
                ]
            },
            {
                "account": "0x5fa09798d98b969a5d2f94a42212b203fe84758e",
                "assets": [
                    {
                        "address": "0x1acb5586b4d030ddf37228ebbf25278142086659",
                        "amount": "6.55",
                        "iconUrl": "",
                        "isERC1155": false,
                        "isERC721": false,
                        "sign": true,
                        "value": ""
                    }
                ]
            }
        ]
    },
    "profile": {
        "basic_info": {
            "baseFee": "",
            "blockNumber": 8410731,
            "callData": "0xa9059cbb0000000000000000000000005fa09798d98b969a5d2f94a42212b203fe84758e0000000000000000000000000000000000000000000000005ae6464beecf0000",
            "debugEnable": true,
            "errorInfo": "",
            "eventCount": 1,
            "feeRecipient": "0x829bd824b016326a401d083b33d092293333a830",
            "formatValue": "0",
            "gasLimit": 100000,
            "gasPrice": "5",
            "gasUsed": 38431,
            "intTxnCount": 0,
            "internalRevert": false,
            "internalRevertMessage": "",
            "isContractCreation": false,
            "isFlashloan": false,
            "maxFee": "",
            "nonce": 1,
            "overwritedBlockNumber": -1,
            "priorityFee": "",
            "receiver": "0x1acb5586b4d030ddf37228ebbf25278142086659",
            "revertMessage": "",
            "sender": "0xbf16822f6114894a7a7fad509cf1ffbf2948054e",
            "simulationEnable": true,
            "sourceTxnHash": "0xaec32e1ac93c372289be5a566249acd749d0b387c40021760a72d0eb6feb6bd1",
            "status": true,
            "timestamp": "2019-08-24T04:10:44Z",
            "transactionFee": "0.000192155",
            "txnHash": "0xaec32e1ac93c372289be5a566249acd749d0b387c40021760a72d0eb6feb6bd1",
            "txnIndex": 165,
            "type": 0,
            "value": "0"
        },
        "fund_flow": [
            {
                "amount": "6.55",
                "from": "0xbf16822f6114894a7a7fad509cf1ffbf2948054e",
                "id": 1,
                "isERC1155": false,
                "isERC721": false,
                "isReverted": false,
                "order": 1,
                "to": "0x5fa09798d98b969a5d2f94a42212b203fe84758e",
                "token": "0x1acb5586b4d030ddf37228ebbf25278142086659"
            }
        ],
        "token_infos": [
            {
                "address": "0x1acb5586b4d030ddf37228ebbf25278142086659",
                "decimals": 18
            },
            {
                "address": "0xc02aaa39b223fe8d0a0e5c4f27ead9083c756cc2",
                "decimals": 18
            },
            {
                "address": "0xeeeeeeeeeeeeeeeeeeeeeeeeeeeeeeeeeeeeeeee",
                "decimals": 18
            }
        ]
    },
    "address_label": {
        "labels": [
            {
                "address": "0xeeeeeeeeeeeeeeeeeeeeeeeeeeeeeeeeeeeeeeee",
                "label": "Ether"
            },
            {
                "address": "0x1acb5586b4d030ddf37228ebbf25278142086659",
                "label": "DHAC"
            },
            {
                "address": "0x0000000000000000000000000000000000000001",
                "label": "Precompiled"
            },
            {
                "address": "0x0000000000000000000000000000000000000002",
                "label": "Precompiled"
            },
            {
                "address": "0x0000000000000000000000000000000000000003",
                "label": "Precompiled"
            },
            {
                "address": "0x0000000000000000000000000000000000000004",
                "label": "Precompiled"
            }
        ]
    },
    "trace": {
        "accountLabels": null,
        "dataMap": {
            "-1": {
                "invocation": {
                    "address": "0xbf16822f6114894a7a7fad509cf1ffbf2948054e",
                    "callData": "",
                    "decodedMethod": null,
                    "errorInfo": "",
                    "fromAddress": "",
                    "gasUsed": 0,
                    "id": -1,
                    "methodDecoded": false,
                    "operation": "",
                    "output": "",
                    "revert": false,
                    "revertMessage": "",
                    "selector": "",
                    "status": false,
                    "value": ""
                },
                "nodeType": 0
            },
            "0": {
                "invocation": {
                    "address": "0x1acb5586b4d030ddf37228ebbf25278142086659",
                    "callData": "0x0000000000000000000000005fa09798d98b969a5d2f94a42212b203fe84758e0000000000000000000000000000000000000000000000005ae6464beecf0000",
                    "decodedMethod": {
                        "callParams": [
                            {
                                "name": "_to",
                                "type": "address",
                                "value": "0x5fa09798d98b969a5d2f94a42212b203fe84758e"
                            },
                            {
                                "decimalAvailable": true,
                                "name": "_value",
                                "type": "uint256",
                                "value": "6,550,000,000,000,000,000"
                            }
                        ],
                        "constructorArguments": "",
                        "name": "transfer",
                        "returnParams": [
                            {
                                "name": "success",
                                "type": "bool",
                                "value": true
                            }
                        ],
                        "signature": "transfer(address,uint256)"
                    },
                    "errorInfo": "",
                    "fromAddress": "0xbf16822f6114894a7a7fad509cf1ffbf2948054e",
                    "gasUsed": 38431,
                    "id": 0,
                    "methodDecoded": true,
                    "operation": "CALL",
                    "output": "0x0000000000000000000000000000000000000000000000000000000000000001",
                    "revert": false,
                    "revertMessage": "",
                    "selector": "0xa9059cbb",
                    "status": true,
                    "value": "0"
                },
                "nodeType": 0
            },
            "1": {
                "event": {
                    "contract": "0x1acb5586b4d030ddf37228ebbf25278142086659",
                    "decodedLog": {
                        "name": "Transfer",
                        "params": [
                            {
                                "name": "from",
                                "type": "address",
                                "value": "0xbf16822f6114894a7a7fad509cf1ffbf2948054e"
                            },
                            {
                                "name": "to",
                                "type": "address",
                                "value": "0x5fa09798d98b969a5d2f94a42212b203fe84758e"
                            },
                            {
                                "decimalAvailable": true,
                                "name": "value",
                                "type": "uint256",
                                "value": "6,550,000,000,000,000,000"
                            }
                        ],
                        "signature": "Transfer(address,address,uint256)"
                    },
                    "id": 1,
                    "logData": "0x0000000000000000000000000000000000000000000000005ae6464beecf0000",
                    "logDecoded": true,
                    "operation": "EVENT",
                    "revert": false,
                    "status": true,
                    "topics": [
                        "0xddf252ad1be2c89b69c2b068fc378daa952ba7f163c4a11628f55a4df523b3ef",
                        "0x000000000000000000000000bf16822f6114894a7a7fad509cf1ffbf2948054e",
                        "0x0000000000000000000000005fa09798d98b969a5d2f94a42212b203fe84758e"
                    ]
                },
                "nodeType": 1
            }
        },
        "gasFlame": [
            {
                "children": [
                    {
                        "children": [
                            {
                                "children": [],
                                "depth": 0,
                                "name": "Initial Gas",
                                "value": 23192
                            },
                            {
                                "children": [],
                                "depth": 0,
                                "name": "Executed Gas",
                                "value": 15239
                            }
                        ],
                        "depth": -1,
                        "name": "Actual Gas Used",
                        "value": 38431
                    },
                    {
                        "children": [],
                        "depth": -1,
                        "name": "Refunded Gas",
                        "value": 0
                    }
                ],
                "depth": -2,
                "name": "Total Gas",
                "value": 38431
            }
        ],
        "isConfirmed": true,
        "mainTrace": [
            {
                "children": [
                    {
                        "children": [
                            {
                                "children": [],
                                "depth": 1,
                                "id": 1,
                                "order": 1
                            }
                        ],
                        "depth": 0,
                        "id": 0,
                        "order": 0
                    }
                ],
                "depth": -1,
                "id": -1,
                "order": -1
            }
        ],
        "mainTraceNodeCount": 2,
        "parentIdMap": {
            "0": -1,
            "1": 0
        },
        "tidyTrace": [
            {
                "children": [
                    {
                        "children": [
                            {
                                "children": [],
                                "depth": 1,
                                "id": 1,
                                "order": 1
                            }
                        ],
                        "depth": 0,
                        "id": 0,
                        "order": 0
                    }
                ],
                "depth": -1,
                "id": -1,
                "order": -1
            }
        ],
        "tidyTraceNodeCount": 2
    },
    "state_change": {
        "stateChanges": [
            {
                "address": "0x1acb5586b4d030ddf37228ebbf25278142086659",
                "erc": "ERC-20",
                "slots": [
                    {
                        "current": "0x000000000000000000000000000000000000000000000000063eb89da4ed0000",
                        "key": "0xc05a127c3c0f2f4de3d7ff68a26d1891a0f76dd070867e8f2866ce88eb89f458",
                        "prev": "0x0000000000000000000000000000000000000000000000006124fee993bc0000"
                    },
                    {
                        "current": "0x00000000000000000000000000000000000000000010c7738a0e7c0bd76d1645",
                        "key": "0x70237c5ab86546b820a7f7242310b0602382e3995af7f4b4c3c320cb3dc769ec",
                        "prev": "0x00000000000000000000000000000000000000000010c7732f2835bfe89e1645"
                    }
                ],
                "storageVariables": [
                    {
                        "name": "balanceOf",
                        "type": "mapping(address => uint256)",
                        "value": {
                            "pairs": [
                                {
                                    "key": "0x5fa09798d98b969a5d2f94a42212b203fe84758e",
                                    "value": {
                                        "current": "20284695367518619999999557",
                                        "prev": "20284688817518619999999557",
                                        "typeTag": 1
                                    }
                                },
                                {
                                    "key": "0xbf16822f6114894a7a7fad509cf1ffbf2948054e",
                                    "value": {
                                        "current": "450000000000000000",
                                        "prev": "7000000000000000000",
                                        "typeTag": 1
                                    }
                                }
                            ],
                            "typeTag": 4
                        }
                    }
                ]
            }
        ]
    }
}