{
    "balance_change": {
        "balanceChanges": [
            {
                "account": "0xf91967b8f084de85c6785e4ea6b3540a7b3ad64d",
                "assets": [
                    {
                        "address": "0x7a271d1df2c3f2fef734611c6c7ee6b9b8439204",
                        "amount": "688",
                        "iconUrl": "",
                        "isERC1155": false,
                        "isERC721": false,
                        "sign": false,
                        "value": ""
                    }
                ]
            },
            {
                "account": "0xaec760f250661451ebdc877bc084c33986c1d1bf",
                "assets": [
                    {
                        "address": "0x7a271d1df2c3f2fef734611c6c7ee6b9b8439204",
                        "amount": "688",
                        "iconUrl": "",
                        "isERC1155": false,
                        "isERC721": false,
                        "sign": true,
                        "value": ""
                    }
                ]
            }
        ]
    },
    "profile": {
        "basic_info": {
            "baseFee": "",
            "blockNumber": 8906250,
            "callData": "0xa9059cbb000000000000000000000000aec760f250661451ebdc877bc084c33986c1d1bf0000000000000000000000000000000000000000000000000000001004ccb000",
            "debugEnable": true,
            "errorInfo": "",
            "eventCount": 1,
            "feeRecipient": "0x5a0b54d5dc17e0aadc383d2db43b0a0d3e029c4c",
            "formatValue": "0",
            "gasLimit": 200000,
            "gasPrice": "10",
            "gasUsed": 51452,
            "intTxnCount": 0,
            "internalRevert": false,
            "internalRevertMessage": "",
            "isContractCreation": false,
            "isFlashloan": false,
            "maxFee": "",
            "nonce": 194358,
            "overwritedBlockNumber": -1,
            "priorityFee": "",
            "receiver": "0x7a271d1df2c3f2fef734611c6c7ee6b9b8439204",
            "revertMessage": "",
            "sender": "0xf91967b8f084de85c6785e4ea6b3540a7b3ad64d",
            "simulationEnable": true,
            "sourceTxnHash": "0xae20359d9e1fc0a7801ffa29482681f701ccea4fe63d3a733195e5dba04ca416",
            "status": true,
            "timestamp": "2019-11-10T03:44:58Z",
            "transactionFee": "0.00051452",
            "txnHash": "0xae20359d9e1fc0a7801ffa29482681f701ccea4fe63d3a733195e5dba04ca416",
            "txnIndex": 38,
            "type": 0,
            "value": "0"
        },
        "fund_flow": [
            {
                "amount": "688",
                "from": "0xf91967b8f084de85c6785e4ea6b3540a7b3ad64d",
                "id": 1,
                "isERC1155": false,
                "isERC721": false,
                "isReverted": false,
                "order": 1,
                "to": "0xaec760f250661451ebdc877bc084c33986c1d1bf",
                "token": "0x7a271d1df2c3f2fef734611c6c7ee6b9b8439204"
            }
        ],
        "token_infos": [
            {
                "address": "0x7a271d1df2c3f2fef734611c6c7ee6b9b8439204",
                "decimals": 8
            },
            {
                "address": "0xc02aaa39b223fe8d0a0e5c4f27ead9083c756cc2",
                "decimals": 18
            },
            {
                "address": "0xeeeeeeeeeeeeeeeeeeeeeeeeeeeeeeeeeeeeeeee",
                "decimals": 18
            }
        ]
    },
    "address_label": {
        "labels": [
            {
                "address": "0x0000000000000000000000000000000000000003",
                "label": "Precompiled"
            },
            {
                "address": "0x0000000000000000000000000000000000000004",
                "label": "Precompiled"
            },
            {
                "address": "0xeeeeeeeeeeeeeeeeeeeeeeeeeeeeeeeeeeeeeeee",
                "label": "Ether"
            },
            {
                "address": "0x7a271d1df2c3f2fef734611c6c7ee6b9b8439204",
                "label": "EXX Token (ET)"
            },
            {
                "address": "0xaec760f250661451ebdc877bc084c33986c1d1bf",
                "label": "ZB.COM"
            },
            {
                "address": "0x0000000000000000000000000000000000000001",
                "label": "Precompiled"
            },
            {
                "address": "0x0000000000000000000000000000000000000002",
                "label": "Precompiled"
            }
        ]
    },
    "trace": {
        "accountLabels": null,
        "dataMap": {
            "-1": {
                "invocation": {
                    "address": "0xf91967b8f084de85c6785e4ea6b3540a7b3ad64d",
                    "callData": "",
                    "decodedMethod": null,
                    "errorInfo": "",
                    "fromAddress": "",
                    "gasUsed": 0,
                    "id": -1,
                    "methodDecoded": false,
                    "operation": "",
                    "output": "",
                    "revert": false,
                    "revertMessage": "",
                    "selector": "",
                    "status": false,
                    "value": ""
                },
                "nodeType": 0
            },
            "0": {
                "invocation": {
                    "address": "0x7a271d1df2c3f2fef734611c6c7ee6b9b8439204",
                    "callData": "0x000000000000000000000000aec760f250661451ebdc877bc084c33986c1d1bf0000000000000000000000000000000000000000000000000000001004ccb000",
                    "decodedMethod": {
                        "callParams": [
                            {
                                "name": "_to",
                                "type": "address",
                                "value": "0xaec760f250661451ebdc877bc084c33986c1d1bf"
                            },
                            {
                                "decimalAvailable": true,
                                "name": "_value",
                                "type": "uint256",
                                "value": "68,800,000,000"
                            }
                        ],
                        "constructorArguments": "",
                        "name": "transfer",
                        "returnParams": [
                            {
                                "name": "",
                                "type": "bool",
                                "value": true
                            }
                        ],
                        "signature": "transfer(address,uint256)"
                    },
                    "errorInfo": "",
                    "fromAddress": "0xf91967b8f084de85c6785e4ea6b3540a7b3ad64d",
                    "gasUsed": 51452,
                    "id": 0,
                    "methodDecoded": true,
                    "operation": "CALL",
                    "output": "0x0000000000000000000000000000000000000000000000000000000000000001",
                    "revert": false,
                    "revertMessage": "",
                    "selector": "0xa9059cbb",
                    "status": true,
                    "value": "0"
                },
                "nodeType": 0
            },
            "1": {
                "event": {
                    "contract": "0x7a271d1df2c3f2fef734611c6c7ee6b9b8439204",
                    "decodedLog": {
                        "name": "Transfer",
                        "params": [
                            {
                                "name": "from",
                                "type": "address",
                                "value": "0xf91967b8f084de85c6785e4ea6b3540a7b3ad64d"
                            },
                            {
                                "name": "to",
                                "type": "address",
                                "value": "0xaec760f250661451ebdc877bc084c33986c1d1bf"
                            },
                            {
                                "decimalAvailable": true,
                                "name": "value",
                                "type": "uint256",
                                "value": "68,800,000,000"
                            }
                        ],
                        "signature": "Transfer(address,address,uint256)"
                    },
                    "id": 1,
                    "logData": "0x0000000000000000000000000000000000000000000000000000001004ccb000",
                    "logDecoded": true,
                    "operation": "EVENT",
                    "revert": false,
                    "status": true,
                    "topics": [
                        "0xddf252ad1be2c89b69c2b068fc378daa952ba7f163c4a11628f55a4df523b3ef",
                        "0x000000000000000000000000f91967b8f084de85c6785e4ea6b3540a7b3ad64d",
                        "0x000000000000000000000000aec760f250661451ebdc877bc084c33986c1d1bf"
                    ]
                },
                "nodeType": 1
            }
        },
        "gasFlame": [
            {
                "children": [
                    {
                        "children": [
                            {
                                "children": [],
                                "depth": 0,
                                "name": "Initial Gas",
                                "value": 23064
                            },
                            {
                                "children": [],
                                "depth": 0,
                                "name": "Executed Gas",
                                "value": 28388
                            }
                        ],
                        "depth": -1,
                        "name": "Actual Gas Used",
                        "value": 51452
                    },
                    {
                        "children": [],
                        "depth": -1,
                        "name": "Refunded Gas",
                        "value": 0
                    }
                ],
                "depth": -2,
                "name": "Total Gas",
                "value": 51452
            }
        ],
        "isConfirmed": true,
        "mainTrace": [
            {
                "children": [
                    {
                        "children": [
                            {
                                "children": [],
                                "depth": 1,
                                "id": 1,
                                "order": 1
                            }
                        ],
                        "depth": 0,
                        "id": 0,
                        "order": 0
                    }
                ],
                "depth": -1,
                "id": -1,
                "order": -1
            }
        ],
        "mainTraceNodeCount": 2,
        "parentIdMap": {
            "0": -1,
            "1": 0
        },
        "tidyTrace": [
            {
                "children": [
                    {
                        "children": [
                            {
                                "children": [],
                                "depth": 1,
                                "id": 1,
                                "order": 1
                            }
                        ],
                        "depth": 0,
                        "id": 0,
                        "order": 0
                    }
                ],
                "depth": -1,
                "id": -1,
                "order": -1
            }
        ],
        "tidyTraceNodeCount": 2
    },
    "state_change": {
        "stateChanges": [
            {
                "address": "0x7a271d1df2c3f2fef734611c6c7ee6b9b8439204",
                "erc": "ERC-20",
                "slots": [
                    {
                        "current": "0x000000000000000000000000000000000000000000000000000314d01592f458",
                        "key": "0x490ff0539b417fa717e5b1bc78e7cd8d6f9e1361c8afaf27dc1cf87e2ad3f0ac",
                        "prev": "0x000000000000000000000000000000000000000000000000000314e01a5fa458"
                    },
                    {
                        "current": "0x0000000000000000000000000000000000000000000000000000001004ccb000",
                        "key": "0xfd2ea6bde189ca1c2067ccf30199e0403bd527e7914a66b1147a2169d7c5c7c8",
                        "prev": "0x0000000000000000000000000000000000000000000000000000000000000000"
                    }
                ],
                "storageVariables": [
                    {
                        "name": "balances",
                        "type": "mapping(address => uint256)",
                        "value": {
                            "pairs": [
                                {
                                    "key": "0xaec760f250661451ebdc877bc084c33986c1d1bf",
                                    "value": {
                                        "current": "68800000000",
                                        "prev": "0",
                                        "typeTag": 1
                                    }
                                },
                                {
                                    "key": "0xf91967b8f084de85c6785e4ea6b3540a7b3ad64d",
                                    "value": {
                                        "current": "867308877837400",
                                        "prev": "867377677837400",
                                        "typeTag": 1
                                    }
                                }
                            ],
                            "typeTag": 4
                        }
                    }
                ]
            }
        ]
    }
}