{
    "balance_change": {
        "balanceChanges": [
            {
                "account": "0x000000f54395c554346bfd24e6a1ccd90b881a4e",
                "assets": [
                    {
                        "address": "0x6b175474e89094c44da98b954eedeac495271d0f",
                        "amount": "54.115438478076788736",
                        "iconUrl": "https://assets.blocksec.com/icon/39aead569b9c011cb6f69734d9abbc9ab6a80049fe93bbd12bb473a3e0e859a3.png",
                        "isERC1155": false,
                        "isERC721": false,
                        "sign": false,
                        "value": ""
                    },
                    {
                        "address": "0x0000000000085d4780b73119b644ae5ecd22b376",
                        "amount": "54.232394281268172735",
                        "iconUrl": "https://assets.blocksec.com/icon/67253da83e8ec0bc4adc998fae95ccd612ecf76a66cb8dd38ca9b97c929a1250.png",
                        "isERC1155": false,
                        "isERC721": false,
                        "sign": true,
                        "value": ""
                    }
                ]
            },
            {
                "account": "0x2a1530c4c41db0b0b2bb646cb5eb1a67b7158667",
                "assets": [
                    {
                        "address": "0x6b175474e89094c44da98b954eedeac495271d0f",
                        "amount": "54.115438478076788736",
                        "iconUrl": "https://assets.blocksec.com/icon/39aead569b9c011cb6f69734d9abbc9ab6a80049fe93bbd12bb473a3e0e859a3.png",
                        "isERC1155": false,
                        "isERC721": false,
                        "sign": true,
                        "value": ""
                    },
                    {
                        "address": "0xeeeeeeeeeeeeeeeeeeeeeeeeeeeeeeeeeeeeeeee",
                        "amount": "0.346459750781850137",
                        "iconUrl": "https://assets.blocksec.com/image/1663669189317-3.png",
                        "isERC1155": false,
                        "isERC721": false,
                        "sign": false,
                        "value": ""
                    }
                ]
            },
            {
                "account": "0x5048b9d01097498fd72f3f14bc9bc74a5aac8fa7",
                "assets": [
                    {
                        "address": "0x0000000000085d4780b73119b644ae5ecd22b376",
                        "amount": "54.232394281268172735",
                        "iconUrl": "https://assets.blocksec.com/icon/67253da83e8ec0bc4adc998fae95ccd612ecf76a66cb8dd38ca9b97c929a1250.png",
                        "isERC1155": false,
                        "isERC721": false,
                        "sign": false,
                        "value": ""
                    },
                    {
                        "address": "0xeeeeeeeeeeeeeeeeeeeeeeeeeeeeeeeeeeeeeeee",
                        "amount": "0.346459750781850137",
                        "iconUrl": "https://assets.blocksec.com/image/1663669189317-3.png",
                        "isERC1155": false,
                        "isERC721": false,
                        "sign": true,
                        "value": ""
                    }
                ]
            }
        ]
    },
    "profile": {
        "basic_info": {
            "baseFee": "",
            "blockNumber": 9344152,
            "callData": "0xddf7e1a7000000000000000000000000000000000000000000000002ef00a8947645c000000000000000000000000000000000000000000000000002ef00a8947645c0000000000000000000000000000000000000000000000000000000000000000001000000000000000000000000000000000000000000000000000000005e2b46c30000000000000000000000000000000000085d4780b73119b644ae5ecd22b376",
            "debugEnable": true,
            "errorInfo": "",
            "eventCount": 4,
            "feeRecipient": "0xea674fdde714fd979de3edf0f56aa9716b898ec8",
            "formatValue": "0",
            "gasLimit": 175000,
            "gasPrice": "2.4",
            "gasUsed": 99430,
            "intTxnCount": 10,
            "internalRevert": false,
            "internalRevertMessage": "",
            "isContractCreation": false,
            "isFlashloan": false,
            "maxFee": "",
            "nonce": 3072,
            "overwritedBlockNumber": -1,
            "priorityFee": "",
            "receiver": "0x2a1530c4c41db0b0b2bb646cb5eb1a67b7158667",
            "revertMessage": "",
            "sender": "0x000000f54395c554346bfd24e6a1ccd90b881a4e",
            "simulationEnable": true,
            "sourceTxnHash": "0xaec618ef2a5df161d8da5bacad7fb1cf9c644add6ca01941e2dd66550e570222",
            "status": true,
            "timestamp": "2020-01-24T11:14:36Z",
            "transactionFee": "0.000238632",
            "txnHash": "0xaec618ef2a5df161d8da5bacad7fb1cf9c644add6ca01941e2dd66550e570222",
            "txnIndex": 35,
            "type": 0,
            "value": "0"
        },
        "fund_flow": [
            {
                "amount": "54.115438478076788736",
                "from": "0x000000f54395c554346bfd24e6a1ccd90b881a4e",
                "id": 1,
                "isERC1155": false,
                "isERC721": false,
                "isReverted": false,
                "order": 1,
                "to": "0x2a1530c4c41db0b0b2bb646cb5eb1a67b7158667",
                "token": "0x6b175474e89094c44da98b954eedeac495271d0f"
            },
            {
                "amount": "0.346459750781850137",
                "from": "0x2a1530c4c41db0b0b2bb646cb5eb1a67b7158667",
                "id": 2,
                "isERC1155": false,
                "isERC721": false,
                "isReverted": false,
                "order": 2,
                "to": "0x5048b9d01097498fd72f3f14bc9bc74a5aac8fa7",
                "token": "0xeeeeeeeeeeeeeeeeeeeeeeeeeeeeeeeeeeeeeeee"
            },
            {
                "amount": "54.232394281268172735",
                "from": "0x5048b9d01097498fd72f3f14bc9bc74a5aac8fa7",
                "id": 3,
                "isERC1155": false,
                "isERC721": false,
                "isReverted": false,
                "order": 3,
                "to": "0x000000f54395c554346bfd24e6a1ccd90b881a4e",
                "token": "0x0000000000085d4780b73119b644ae5ecd22b376"
            }
        ],
        "token_infos": [
            {
                "address": "0x0000000000085d4780b73119b644ae5ecd22b376",
                "decimals": 18
            },
            {
                "address": "0x6b175474e89094c44da98b954eedeac495271d0f",
                "decimals": 18
            },
            {
                "address": "0xc02aaa39b223fe8d0a0e5c4f27ead9083c756cc2",
                "decimals": 18
            },
            {
                "address": "0xeeeeeeeeeeeeeeeeeeeeeeeeeeeeeeeeeeeeeeee",
                "decimals": 18
            }
        ]
    },
    "address_label": {
        "labels": [
            {
                "address": "0xeeeeeeeeeeeeeeeeeeeeeeeeeeeeeeeeeeeeeeee",
                "label": "Ether"
            },
            {
                "address": "0x0000000000085d4780b73119b644ae5ecd22b376",
                "label": "TrueUSD: TUSD Token"
            },
            {
                "address": "0x5048b9d01097498fd72f3f14bc9bc74a5aac8fa7",
                "label": "Uniswap: TUSD"
            },
            {
                "address": "0x6b175474e89094c44da98b954eedeac495271d0f",
                "label": "Sky: Dai Stablecoin"
            },
            {
                "address": "0x0000000000000000000000000000000000000003",
                "label": "Precompiled"
            },
            {
                "address": "0x0000000000000000000000000000000000000004",
                "label": "Precompiled"
            },
            {
                "address": "0x2157a7894439191e520825fe9399ab8655e0f708",
                "label": "Uniswap Exchange Template"
            },
            {
                "address": "0xcb9a11afdc6bdb92e4a6235959455f28758b34ba",
                "label": "TrueUSD (TUSD)"
            },
            {
                "address": "0x2a1530c4c41db0b0b2bb646cb5eb1a67b7158667",
                "label": "Uniswap: DAI"
            },
            {
                "address": "0xc0a47dfe034b400b47bdad5fecda2621de6c4d95",
                "label": "Uniswap: Factory Contract"
            },
            {
                "address": "0x0000000000000000000000000000000000000001",
                "label": "Precompiled"
            },
            {
                "address": "0x0000000000000000000000000000000000000002",
                "label": "Precompiled"
            }
        ]
    },
    "trace": {
        "accountLabels": null,
        "dataMap": {
            "-1": {
                "invocation": {
                    "address": "0x000000f54395c554346bfd24e6a1ccd90b881a4e",
                    "callData": "",
                    "decodedMethod": null,
                    "errorInfo": "",
                    "fromAddress": "",
                    "gasUsed": 0,
                    "id": -1,
                    "methodDecoded": false,
                    "operation": "",
                    "output": "",
                    "revert": false,
                    "revertMessage": "",
                    "selector": "",
                    "status": false,
                    "value": ""
                },
                "nodeType": 0
            },
            "0": {
                "invocation": {
                    "address": "0x2a1530c4c41db0b0b2bb646cb5eb1a67b7158667",
                    "callData": "0x000000000000000000000000000000000000000000000002ef00a8947645c000000000000000000000000000000000000000000000000002ef00a8947645c0000000000000000000000000000000000000000000000000000000000000000001000000000000000000000000000000000000000000000000000000005e2b46c30000000000000000000000000000000000085d4780b73119b644ae5ecd22b376",
                    "decodedMethod": {
                        "callParams": [
                            {
                                "name": "tokens_sold",
                                "type": "uint256",
                                "value": "54,115,438,478,076,788,736"
                            },
                            {
                                "name": "min_tokens_bought",
                                "type": "uint256",
                                "value": "54,115,438,478,076,788,736"
                            },
                            {
                                "name": "min_eth_bought",
                                "type": "uint256",
                                "value": "1"
                            },
                            {
                                "name": "deadline",
                                "type": "uint256",
                                "value": "1,579,894,467"
                            },
                            {
                                "name": "token_addr",
                                "type": "address",
                                "value": "0x0000000000085d4780b73119b644ae5ecd22b376"
                            }
                        ],
                        "constructorArguments": "",
                        "name": "tokenToTokenSwapInput",
                        "returnParams": [
                            {
                                "name": "out",
                                "type": "uint256",
                                "value": "54,232,394,281,268,172,735"
                            }
                        ],
                        "signature": "tokenToTokenSwapInput(uint256,uint256,uint256,uint256,address)"
                    },
                    "errorInfo": "",
                    "fromAddress": "0x000000f54395c554346bfd24e6a1ccd90b881a4e",
                    "gasUsed": 99430,
                    "id": 0,
                    "methodDecoded": true,
                    "operation": "CALL",
                    "output": "0x000000000000000000000000000000000000000000000002f0a02b4365ea57bf7645c000000000000000000000000000000000000000000000000002ef00a8947645c0000000000000000000000000000000000000000000000000000000000000000001000000000000000000000000000000000000000000000000000000005e2b46c30000000000000000000000000000000000085d4780b73119b644ae5ecd22b3760000000000000000000000000000000000000000000000000000000000000000000000000000000000000000000000000000000000000000000000000000000000000000000000000000000000000000000000000000000000000000000000000000000000000000000000000000000000000000000000000000000000000000000000000000000000000000000000000000000000000000000000000000000000000000000000000000000000000000000000000000000000000000000000000000000000000000000000000000000000000000000000000000000000000000000000000000000000000000000000000000000000000000000000000000000000000000000000000000000000000000000000000000000000000000000000000000000000000000000000000000000000000000000000000000000000000000000000000000000000000000000000000000000000000000000000000000000000000000000000000000000000000000000000000000000000000000000000000000000000000000000000000000000000000000000000000000000000000000000000000000000000000000000000000000000000000000000000000000000000000000000000000000000000000000000000000000000000000000000000000000000000000000000000000000000000000000000000000000000000000000000000000000000000000000000000000000000000000000000000000000000000000000000000000000000000000000000000000000000000000000000000000000000000000000000000000000000000000000000000000000000000000000000000000000000000000000000000000000000000000000000000000000000000000000000000000000000000000000000000000000000000000000000000000000000000000000000000000000000000000000000000000000000000000000000000000000000000000000000000000000000000000000000000000000000000000000000000000000000000000000000000000000000000000000000000000000000000000000000000000000000000000000000000000000000000000000000000000000000000000000000000000000000000000000000000000000000000000000000000000000000000000000000000000000000000000000000000000000000000000000000000000000000000000000000000000000000000000000000000000000000000000000000000000000000000000000000000000000000000000000000000000000000000000000000000000000000000000000000000000000000000000000000000000000000000000000000000000000000000000000000000000000000000000000000000000000000000000000000000000000000000000000000000000000000000000000000000000000000000000000000000000000000000000000000000000000000000000000000000000000000000000000000000000000000000000000000000000000000000000000000000000000000000000000000000000000000000000000000000000000000000000000000000000000000000000000000000000000000000000000000000000000000000000000000000000000000000000000000000000000000000000000000000000000000000000000000000000000000000000000000000000000000000000000000000000000000000000000000000000000000000000000000000000000000000000000000000000000000000000000000000000000000000000000000000000000000000000000000000000000000000000000000000000000000000000000000000000000000000000000000000000000000000000000000000000000000000000000000000000000000000000000000000000000000000000000000000000000000000000000000000000000000000000000000000000000000000000000000000000000000000000000000000000000000000000000000000000000000000000000000000000000000000000000000000000000000000000000000000000000000000000000000000000000000000000000000000000000000000000000000000000000000000000000000000000000000000000000000000000000000000000000000000000000000000000000000000000000000000000000000000000000000000000000000000000000000000000000000000000000000000000000000000000000000000000000000000000000000000000000000000000000000000000000000000000000000000000000000000000000000000000000000000000000000000000000000000000000000000000000000000000000000000000000000000000000000000000000000000000000000000000000000000000000000000000000000000000000000000000000000000000000000000000000000000000000000000000000000000000000000000000000000000000000000000000000000000000000000000000000000000000000000000000000000000000000000000000000000000000000000000000000000000000000000000000000000000000000000000000000000000000000000000000000000000000000000000000000000000000000000000000000000000000000000000000000000000000000000000000000000000000000000000000000000000000000000000000000000000000000000000000000000000000000000000000000000000000000000000000000000000000000000000000000000000000000000000000000000000000000000000000000000000000000000000000000000000000000000000000000000000000000000000000000000000000000000000000000000000000000000000000000000000000000000000000000000000000000000000000000000000000000000000000000000000000000000000000000000000000000000000000000000000000000000000000000000000000000000000000000000000000000000000000000000000000000000000000000000000000000000000000000000000000000000000000000000000000000000000000000000000000000000000000000000000000000000000000000000000000000000000000000000000000000000000000000000000000000000000000000000000000000000000000000000000000000000000000000000000000000000000000000000000000000000000000000000000000000000000000000000000000000000000000000000000000000000000000000000000000000000000000000000000000000000000000000000000000000000000000000000000000000000000000000000000000000000000000000000000000000000000000000000000000000000000000000000000000000000000000000000000000000000000000000000000000000000000000000000000000000000000000000000000000000000000000000000000000000000000000000000000000000000000000000000000000000000000000000000000000000000000000000000000000000000000000000000000000000000000000000000000000000000000000000000000000000000000000000000000000000000000000000000000000000000000000000000000000000000000000000000000000000000000000000000000000000000000000000000000000000000000000000000000000000000000000000000000000000000000000000000000000000000000000000000000000000000000000000000000000000000000000000000000000000000000000000000000000000000000000000000000000000000000000000000000000000000000000000000000000000000000000000000000000000000000000000000000000000000000000000000000000000000000000000000000000000000000000000000000000000000000000000000000000000000000000000000000000000000000000000000000000000000000000000000000000000000000000000000000000000000000000000000000000000000000000000000000000000000000000000000000000000000000000000000000000000000000000000000000000000000000000000000000000000000000000000000000000000000000000000000000000000000000000000000000000000000000000000000000000000000000000000000000000000000000000000000000000000000000000000000000000000000000000000000000000000000000000000000000000000000000000000000000000000000000000000000000000000000000000000000000000000000000000000000000000000000000000000000000000000000000000000000000000000000000000000000000000000000000000000000000000000000000000000000000000000000000000000000000000000000000000000000000000000000000000000000000000000000000000000000000000000000000000000000000000000000000000000000000000000000000000000000000000000000000000000000000000000000000000000000000000000000000000000000000000000000000000000000000000000000000000000000000000000000000000000000000000000000000000000000000000000000000000000000000000000000000000000000000000000000000000000000000000000000000000000000000000000000000000000000000000000000000000000000000000000000000000000000000000000000000000000000000000000000000000000000000000000000000000000000000000000000000000000000000000000000000000000000000000000000000000000000000000000000000000000000000000000000000000000000000000000000000000000000000000000000000000000000000000000000000000000000000000000000000000000000000000000000000000000000000000000000000000000000000000000000000000000000000000000000000000000000000000000000000000000000000000000000000000000000000000000000000000000000000000000000000000000000000000000000000000000000000000000000000000000000000000000000000000000000000000000000000000000000000000000000000000000000000000000000000000000000000000000000000000000000000000000000000000000000000000000000000000000000000000000000000000000000000000000000000000000000000000000000000000000000000000000000000000000000000000000000000000000000000000000000000000000000000000000000000000000000000000000000000000000000000000000000000000000",
                    "revert": false,
                    "revertMessage": "",
                    "selector": "0xddf7e1a7",
                    "status": true,
                    "value": "0"
                },
                "nodeType": 0
            },
            "1": {
                "invocation": {
                    "address": "0x2157a7894439191e520825fe9399ab8655e0f708",
                    "callData": "0x000000000000000000000000000000000000000000000002ef00a8947645c000000000000000000000000000000000000000000000000002ef00a8947645c0000000000000000000000000000000000000000000000000000000000000000001000000000000000000000000000000000000000000000000000000005e2b46c30000000000000000000000000000000000085d4780b73119b644ae5ecd22b376",
                    "decodedMethod": {
                        "callParams": [
                            {
                                "name": "tokens_sold",
                                "type": "uint256",
                                "value": "54,115,438,478,076,788,736"
                            },
                            {
                                "name": "min_tokens_bought",
                                "type": "uint256",
                                "value": "54,115,438,478,076,788,736"
                            },
                            {
                                "name": "min_eth_bought",
                                "type": "uint256",
                                "value": "1"
                            },
                            {
                                "name": "deadline",
                                "type": "uint256",
                                "value": "1,579,894,467"
                            },
                            {
                                "name": "token_addr",
                                "type": "address",
                                "value": "0x0000000000085d4780b73119b644ae5ecd22b376"
                            }
                        ],
                        "constructorArguments": "",
                        "name": "tokenToTokenSwapInput",
                        "returnParams": [
                            {
                                "name": "out",
                                "type": "uint256",
                                "value": "54,232,394,281,268,172,735"
                            }
                        ],
                        "signature": "tokenToTokenSwapInput(uint256,uint256,uint256,uint256,address)"
                    },
                    "errorInfo": "",
                    "fromAddress": "0x2a1530c4c41db0b0b2bb646cb5eb1a67b7158667",
                    "gasUsed": 106136,
                    "id": 1,
                    "methodDecoded": true,
                    "operation": "DELEGATECALL",
                    "output": "0x000000000000000000000000000000000000000000000002f0a02b4365ea57bf",
                    "revert": false,
                    "revertMessage": "",
                    "selector": "0xddf7e1a7",
                    "status": true,
                    "value": "0"
                },
                "nodeType": 0
            },
            "10": {
                "invocation": {
                    "address": "0x0000000000085d4780b73119b644ae5ecd22b376",
                    "callData": "0x000000000000000000000000000000f54395c554346bfd24e6a1ccd90b881a4e000000000000000000000000000000000000000000000002f0a02b4365ea57bf",
                    "decodedMethod": {
                        "callParams": [
                            {
                                "name": "_to",
                                "type": "address",
                                "value": "0x000000f54395c554346bfd24e6a1ccd90b881a4e"
                            },
                            {
                                "decimalAvailable": true,
                                "name": "_value",
                                "type": "uint256",
                                "value": "54,232,394,281,268,172,735"
                            }
                        ],
                        "constructorArguments": "",
                        "name": "transfer",
                        "returnParams": [
                            {
                                "name": "",
                                "type": "bool",
                                "value": true
                            }
                        ],
                        "signature": "transfer(address,uint256)"
                    },
                    "errorInfo": "",
                    "fromAddress": "0x5048b9d01097498fd72f3f14bc9bc74a5aac8fa7",
                    "gasUsed": 37524,
                    "id": 10,
                    "methodDecoded": true,
                    "operation": "CALL",
                    "output": "0x0000000000000000000000000000000000000000000000000000000000000001",
                    "revert": false,
                    "revertMessage": "",
                    "selector": "0xa9059cbb",
                    "status": true,
                    "value": "0"
                },
                "nodeType": 0
            },
            "11": {
                "invocation": {
                    "address": "0xcb9a11afdc6bdb92e4a6235959455f28758b34ba",
                    "callData": "0x000000000000000000000000000000f54395c554346bfd24e6a1ccd90b881a4e000000000000000000000000000000000000000000000002f0a02b4365ea57bf",
                    "decodedMethod": {
                        "callParams": [
                            {
                                "name": "_to",
                                "type": "address",
                                "value": "0x000000f54395c554346bfd24e6a1ccd90b881a4e"
                            },
                            {
                                "decimalAvailable": true,
                                "name": "_value",
                                "type": "uint256",
                                "value": "54,232,394,281,268,172,735"
                            }
                        ],
                        "constructorArguments": "",
                        "name": "transfer",
                        "returnParams": [
                            {
                                "name": "",
                                "type": "bool",
                                "value": true
                            }
                        ],
                        "signature": "transfer(address,uint256)"
                    },
                    "errorInfo": "",
                    "fromAddress": "0x0000000000085d4780b73119b644ae5ecd22b376",
                    "gasUsed": 35519,
                    "id": 11,
                    "methodDecoded": true,
                    "operation": "DELEGATECALL",
                    "output": "0x0000000000000000000000000000000000000000000000000000000000000001",
                    "revert": false,
                    "revertMessage": "",
                    "selector": "0xa9059cbb",
                    "status": true,
                    "value": "0"
                },
                "nodeType": 0
            },
            "12": {
                "event": {
                    "contract": "0x0000000000085d4780b73119b644ae5ecd22b376",
                    "decodedLog": {
                        "name": "Transfer",
                        "params": [
                            {
                                "name": "from",
                                "type": "address",
                                "value": "0x5048b9d01097498fd72f3f14bc9bc74a5aac8fa7"
                            },
                            {
                                "name": "to",
                                "type": "address",
                                "value": "0x000000f54395c554346bfd24e6a1ccd90b881a4e"
                            },
                            {
                                "decimalAvailable": true,
                                "name": "value",
                                "type": "uint256",
                                "value": "54,232,394,281,268,172,735"
                            }
                        ],
                        "signature": "Transfer(address,address,uint256)"
                    },
                    "id": 12,
                    "logData": "0x000000000000000000000000000000000000000000000002f0a02b4365ea57bf",
                    "logDecoded": true,
                    "operation": "EVENT",
                    "revert": false,
                    "status": true,
                    "topics": [
                        "0xddf252ad1be2c89b69c2b068fc378daa952ba7f163c4a11628f55a4df523b3ef",
                        "0x0000000000000000000000005048b9d01097498fd72f3f14bc9bc74a5aac8fa7",
                        "0x000000000000000000000000000000f54395c554346bfd24e6a1ccd90b881a4e"
                    ]
                },
                "nodeType": 1
            },
            "13": {
                "event": {
                    "contract": "0x5048b9d01097498fd72f3f14bc9bc74a5aac8fa7",
                    "decodedLog": {
                        "name": "TokenPurchase",
                        "params": [
                            {
                                "name": "buyer",
                                "type": "address",
                                "value": "0x2a1530c4c41db0b0b2bb646cb5eb1a67b7158667"
                            },
                            {
                                "name": "eth_sold",
                                "type": "uint256",
                                "value": "346,459,750,781,850,137"
                            },
                            {
                                "name": "tokens_bought",
                                "type": "uint256",
                                "value": "54,232,394,281,268,172,735"
                            }
                        ],
                        "signature": "TokenPurchase(address,uint256,uint256)"
                    },
                    "id": 13,
                    "logData": "0x",
                    "logDecoded": true,
                    "operation": "EVENT",
                    "revert": false,
                    "status": true,
                    "topics": [
                        "0xcd60aa75dea3072fbc07ae6d7d856b5dc5f4eee88854f5b4abf7b680ef8bc50f",
                        "0x0000000000000000000000002a1530c4c41db0b0b2bb646cb5eb1a67b7158667",
                        "0x00000000000000000000000000000000000000000000000004cedf4ec6529219",
                        "0x000000000000000000000000000000000000000000000002f0a02b4365ea57bf"
                    ]
                },
                "nodeType": 1
            },
            "14": {
                "event": {
                    "contract": "0x2a1530c4c41db0b0b2bb646cb5eb1a67b7158667",
                    "decodedLog": {
                        "name": "EthPurchase",
                        "params": [
                            {
                                "name": "buyer",
                                "type": "address",
                                "value": "0x000000f54395c554346bfd24e6a1ccd90b881a4e"
                            },
                            {
                                "name": "tokens_sold",
                                "type": "uint256",
                                "value": "54,115,438,478,076,788,736"
                            },
                            {
                                "name": "eth_bought",
                                "type": "uint256",
                                "value": "346,459,750,781,850,137"
                            }
                        ],
                        "signature": "EthPurchase(address,uint256,uint256)"
                    },
                    "id": 14,
                    "logData": "0x",
                    "logDecoded": true,
                    "operation": "EVENT",
                    "revert": false,
                    "status": true,
                    "topics": [
                        "0x7f4091b46c33e918a0f3aa42307641d17bb67029427a5369e54b353984238705",
                        "0x000000000000000000000000000000f54395c554346bfd24e6a1ccd90b881a4e",
                        "0x000000000000000000000000000000000000000000000002ef00a8947645c000",
                        "0x00000000000000000000000000000000000000000000000004cedf4ec6529219"
                    ]
                },
                "nodeType": 1
            },
            "2": {
                "invocation": {
                    "address": "0xc0a47dfe034b400b47bdad5fecda2621de6c4d95",
                    "callData": "0x0000000000000000000000000000000000085d4780b73119b644ae5ecd22b376",
                    "decodedMethod": {
                        "callParams": [
                            {
                                "name": "_tokenAddress",
                                "type": "address",
                                "value": "0x0000000000085d4780b73119b644ae5ecd22b376"
                            }
                        ],
                        "constructorArguments": "",
                        "name": "getExchange",
                        "returnParams": [
                            {
                                "name": "",
                                "type": "address",
                                "value": "0x5048b9d01097498fd72f3f14bc9bc74a5aac8fa7"
                            }
                        ],
                        "signature": "getExchange(address)"
                    },
                    "errorInfo": "",
                    "fromAddress": "0x2a1530c4c41db0b0b2bb646cb5eb1a67b7158667",
                    "gasUsed": 1125,
                    "id": 2,
                    "methodDecoded": true,
                    "operation": "STATICCALL",
                    "output": "0x0000000000000000000000005048b9d01097498fd72f3f14bc9bc74a5aac8fa7",
                    "revert": false,
                    "revertMessage": "",
                    "selector": "0x06f2bf62",
                    "status": true,
                    "value": "0"
                },
                "nodeType": 0
            },
            "3": {
                "invocation": {
                    "address": "0x6b175474e89094c44da98b954eedeac495271d0f",
                    "callData": "0x0000000000000000000000002a1530c4c41db0b0b2bb646cb5eb1a67b7158667",
                    "decodedMethod": {
                        "callParams": [
                            {
                                "name": "",
                                "type": "address",
                                "value": "0x2a1530c4c41db0b0b2bb646cb5eb1a67b7158667"
                            }
                        ],
                        "constructorArguments": "",
                        "name": "balanceOf",
                        "returnParams": [
                            {
                                "decimalAvailable": true,
                                "name": "",
                                "type": "uint256",
                                "value": "1,491,009,494,713,811,094,954,497"
                            }
                        ],
                        "signature": "balanceOf(address)"
                    },
                    "errorInfo": "",
                    "fromAddress": "0x2a1530c4c41db0b0b2bb646cb5eb1a67b7158667",
                    "gasUsed": 1302,
                    "id": 3,
                    "methodDecoded": true,
                    "operation": "STATICCALL",
                    "output": "0x000000000000000000000000000000000000000000013bbbc9631757902f6201",
                    "revert": false,
                    "revertMessage": "",
                    "selector": "0x70a08231",
                    "status": true,
                    "value": "0"
                },
                "nodeType": 0
            },
            "4": {
                "invocation": {
                    "address": "0x6b175474e89094c44da98b954eedeac495271d0f",
                    "callData": "0x000000000000000000000000000000f54395c554346bfd24e6a1ccd90b881a4e0000000000000000000000002a1530c4c41db0b0b2bb646cb5eb1a67b7158667000000000000000000000000000000000000000000000002ef00a8947645c000",
                    "decodedMethod": {
                        "callParams": [
                            {
                                "name": "src",
                                "type": "address",
                                "value": "0x000000f54395c554346bfd24e6a1ccd90b881a4e"
                            },
                            {
                                "name": "dst",
                                "type": "address",
                                "value": "0x2a1530c4c41db0b0b2bb646cb5eb1a67b7158667"
                            },
                            {
                                "decimalAvailable": true,
                                "name": "wad",
                                "type": "uint256",
                                "value": "54,115,438,478,076,788,736"
                            }
                        ],
                        "constructorArguments": "",
                        "name": "transferFrom",
                        "returnParams": [
                            {
                                "name": "",
                                "type": "bool",
                                "value": true
                            }
                        ],
                        "signature": "transferFrom(address,address,uint256)"
                    },
                    "errorInfo": "",
                    "fromAddress": "0x2a1530c4c41db0b0b2bb646cb5eb1a67b7158667",
                    "gasUsed": 23675,
                    "id": 4,
                    "methodDecoded": true,
                    "operation": "CALL",
                    "output": "0x0000000000000000000000000000000000000000000000000000000000000001",
                    "revert": false,
                    "revertMessage": "",
                    "selector": "0x23b872dd",
                    "status": true,
                    "value": "0"
                },
                "nodeType": 0
            },
            "5": {
                "event": {
                    "contract": "0x6b175474e89094c44da98b954eedeac495271d0f",
                    "decodedLog": {
                        "name": "Transfer",
                        "params": [
                            {
                                "name": "src",
                                "type": "address",
                                "value": "0x000000f54395c554346bfd24e6a1ccd90b881a4e"
                            },
                            {
                                "name": "dst",
                                "type": "address",
                                "value": "0x2a1530c4c41db0b0b2bb646cb5eb1a67b7158667"
                            },
                            {
                                "decimalAvailable": true,
                                "name": "wad",
                                "type": "uint256",
                                "value": "54,115,438,478,076,788,736"
                            }
                        ],
                        "signature": "Transfer(address,address,uint256)"
                    },
                    "id": 5,
                    "logData": "0x000000000000000000000000000000000000000000000002ef00a8947645c000",
                    "logDecoded": true,
                    "operation": "EVENT",
                    "revert": false,
                    "status": true,
                    "topics": [
                        "0xddf252ad1be2c89b69c2b068fc378daa952ba7f163c4a11628f55a4df523b3ef",
                        "0x000000000000000000000000000000f54395c554346bfd24e6a1ccd90b881a4e",
                        "0x0000000000000000000000002a1530c4c41db0b0b2bb646cb5eb1a67b7158667"
                    ]
                },
                "nodeType": 1
            },
            "6": {
                "invocation": {
                    "address": "0x5048b9d01097498fd72f3f14bc9bc74a5aac8fa7",
                    "callData": "0x000000000000000000000000000000000000000000000002ef00a8947645c000000000000000000000000000000000000000000000000000000000005e2b46c3000000000000000000000000000000f54395c554346bfd24e6a1ccd90b881a4e",
                    "decodedMethod": {
                        "callParams": [
                            {
                                "name": "min_tokens",
                                "type": "uint256",
                                "value": "54,115,438,478,076,788,736"
                            },
                            {
                                "name": "deadline",
                                "type": "uint256",
                                "value": "1,579,894,467"
                            },
                            {
                                "name": "recipient",
                                "type": "address",
                                "value": "0x000000f54395c554346bfd24e6a1ccd90b881a4e"
                            }
                        ],
                        "constructorArguments": "",
                        "name": "ethToTokenTransferInput",
                        "returnParams": [
                            {
                                "name": "out",
                                "type": "uint256",
                                "value": "54,232,394,281,268,172,735"
                            }
                        ],
                        "signature": "ethToTokenTransferInput(uint256,uint256,address)"
                    },
                    "errorInfo": "",
                    "fromAddress": "0x2a1530c4c41db0b0b2bb646cb5eb1a67b7158667",
                    "gasUsed": 55194,
                    "id": 6,
                    "methodDecoded": true,
                    "operation": "CALL",
                    "output": "0x000000000000000000000000000000000000000000000002f0a02b4365ea57bf7645c000000000000000000000000000000000000000000000000000000000005e2b46c3000000000000000000000000000000f54395c554346bfd24e6a1ccd90b881a4e000000000000000000000000000000000000000000000000000000000000000000000000000000000000000000000000000000000000000000000000000000000000000000000000000000000000000000000000000000000000000000000000000000000000000000000000000000000000000000000000000000000000000000000000000000000000000000000000000000000000000000000000000000000000000000000000000000000000000000000000000000000000000000000000000000000000000000000000000000000000000000000000000000000000000000000000000000000000000000000000000000000000000000000000000000000000000000000000000000000000000000000000000000000000000000000000000000000000000000000000000000000000000000000000000000000000000000000000000000000000000000000000000000000000000000000000000000000000000000000000000000000000000000000000000000000000000000000000000000000000000000000000000000000000000000000000000000000000000000000000000000000000000000000000000000000000000000000000000000000000000000000000000000000000000000000000000000000000000000000000000000000000000000000000000000000000000000000000000000000000000000000000000000000000000000000000000000000000000000000000000000000000000000000000000000000000000000000000000000000000000000000000000000000000000000000000000000000000000000000000000000000000000000000000000000000000000000000000000000000000000000000000000000000000000000000000000000000000000000000000000000000000000000000000000000000000000000000000000000000000000000000000000000000000000000000000000000000000000000000000000000000000000000000000000000000000000000000000000000000000000000000000000000000000000000000000000000000000000000000000000000000000000000000000000000000000000000000000000000000000000000000000000000000000000000000000000000000000000000000000000000000000000000000000000000000000000000000000000000000000000000000000000000000000000000000000000000000000000000000000000000000000000000000000000000000000000000000000000000000000000000000000000000000000000000000000000000000000000000000000000000000000000000000000000000000000000000000000000000000000000000000000000000000000000000000000000000000000000000000000000000000000000000000000000000000000000000000000000000000000000000000000000000000000000000000000000000000000000000000000000000000000000000000000000000000000000000000000000000000000000000000000000000000000000000000000000000000000000000000000000000000000000000000000000000000000000000000000000000000000000000000000000000000000000000000000000000000000000000000000000000000000000000000000000000000000000000000000000000000000000000000000000000000000000000000000000000000000000000000000000000000000000000000000000000000000000000000000000000000000000000000000000000000000000000000000000000000000000000000000000000000000000000000000000000000000000000000000000000000000000000000000000000000000000000000000000000000000000000000000000000000000000000000000000000000000000000000000000000000000000000000000000000000000000000000000000000000000000000000000000000000000000000000000000000000000000000000000000000000000000000000000000000000000000000000000000000000000000000000000000000000000000000000000000000000000000000000000000000000000000000000000000000000000000000000000000000000000000000000000000000000000000000000000000000000000000000000000000000000000000000000000000000000000000000000000000000000000000000000000000000000000000000000000000000000000000000000000000000000000000000000000000000000000000000000000000000000000000000000000000000000000000000000000000000000000000000000000000000000000000000000000000000000000000000000000000000000000000000000000000000000000000000000000000000000000000000000000000000000000000000000000000000000000000000000000000000000000000000000000000000000000000000000000000000000000000000000000000000000000000000000000000000000000000000000000000000000000000000000000000000000000000000000000000000000000000000000000000000000000000000000000000000000000000000000000000000000000000000000000000000000000000000000000000000000000000000000000000000000000000000000000000000000000000000000000000000000000000000000000000000000000000000000000000000000000000000000000000000000000000000000000000000000000000000000000000000000000000000000000000000000000000000000000000000000000000000000000000000000000000000000000000000000000000000000000000000000000000000000000000000000000000000000000000000000000000000000000000000000000000000000000000000000000000000000000000000000000000000000000000000000000000000000000000000000000000000000000000000000000000000000000000000000000000000000000000000000000000000000000000000000000000000000000000000000000000000000000000000000000000000000000000000000000000000000000000000000000000000000000000000000000000000000000000000000000000000000000000000000000000000000000000000000000000000000000000000000000000000000000000000000000000000000000000000000000000000000000000000000000000000000000000000000000000000000000000000000000000000000000000000000000000000000000000000000000000000000000000000000000000000000000000000000000000000000000000000000000000000000000000000000000000000000000000000000000000000000000000000000000000000000000000000000000000000000000000000000000000000000000000000000000000000000000000000000000000000000000000000000000000000000000000000000000000000000000000000000000000000000000000000000000000000000000000000000000000000000000000000000000000000000000000000000000000000000000000000000000000000000000000000000000000000000000000000000000000000000000000000000000000000000000000000000000000000000000000000000000000000000000000000000000000000000000000000000000000000000000000000000000000000000000000000000000000000000000000000000000000000000000000000000000000000000000000000000000000000000000000000000000000000000000000000000000000000000000000000000000000000000000000000000000000000000000000000000000000000000000000000000000000000000000000000000000000000000000000000000000000000000000000000000000000000000000000000000000000000000000000000000000000000000000000000000000000000000000000000000000000000000000000000000000000000000000000000000000000000000000000000000000000000000000000000000000000000000000000000000000000000000000000000000000000000000000000000000000000000000000000000000000000000000000000000000000000000000000000000000000000000000000000000000000000000000000000000000000000000000000000000000000000000000000000000000000000000000000000000000000000000000000000000000000000000000000000000000000000000000000000000000000000000000000000000000000000000000000000000000000000000000000000000000000000000000000000000000000000000000000000000000000000000000000000000000000000000000000000000000000000000000000000000000000000000000000000000000000000000000000000000000000000000000000000000000000000000000000000000000000000000000000000000000000000000000000000000000000000000000000000000000000000000000000000000000000000000000000000000000000000000000000000000000000000000000000000000000000000000000000000000000000000000000000000000000000000000000000000000000000000000000000000000000000000000000000000000000000000000000000000000000000000000000000000000000000000000000000000000000000000000000000000000000000000000000000000000000000000000000000000000000000000000000000000000000000000000000000000000000000000000000000000000000000000000000000000000000000000000000000000000000000000000000000000000000000000000000000000000000000000000000000000000000000000000000000000000000000000000000000000000000000000000000000000000000000000000000000000000000000000000000000000000000000000000000000000000000000000000000000000000000000000000000000000000000000000000000000000000000000000000000000000000000000000000000000000000000000000000000000000000000000000000000000000000000000000000000000000000000000000000000000000000000000000000000000000000000000000000000000000000000000000000000000000000000000000000000000000000000000000000000000000000000000000000000000000000000000000000000000000000000000000000000000000000000000000000000000000000000000000000000000000000000000000000000000000000000000000000000000000000000000000000000000000000000000000000000000000000000000000000000000000000000000000000000000000000000000000000000000000000000000000000000000",
                    "revert": false,
                    "revertMessage": "",
                    "selector": "0xad65d76d",
                    "status": true,
                    "value": "0.346459750781850137"
                },
                "nodeType": 0
            },
            "7": {
                "invocation": {
                    "address": "0x2157a7894439191e520825fe9399ab8655e0f708",
                    "callData": "0x000000000000000000000000000000000000000000000002ef00a8947645c000000000000000000000000000000000000000000000000000000000005e2b46c3000000000000000000000000000000f54395c554346bfd24e6a1ccd90b881a4e",
                    "decodedMethod": {
                        "callParams": [
                            {
                                "name": "min_tokens",
                                "type": "uint256",
                                "value": "54,115,438,478,076,788,736"
                            },
                            {
                                "name": "deadline",
                                "type": "uint256",
                                "value": "1,579,894,467"
                            },
                            {
                                "name": "recipient",
                                "type": "address",
                                "value": "0x000000f54395c554346bfd24e6a1ccd90b881a4e"
                            }
                        ],
                        "constructorArguments": "",
                        "name": "ethToTokenTransferInput",
                        "returnParams": [
                            {
                                "name": "out",
                                "type": "uint256",
                                "value": "54,232,394,281,268,172,735"
                            }
                        ],
                        "signature": "ethToTokenTransferInput(uint256,uint256,address)"
                    },
                    "errorInfo": "",
                    "fromAddress": "0x5048b9d01097498fd72f3f14bc9bc74a5aac8fa7",
                    "gasUsed": 54018,
                    "id": 7,
                    "methodDecoded": true,
                    "operation": "DELEGATECALL",
                    "output": "0x000000000000000000000000000000000000000000000002f0a02b4365ea57bf",
                    "revert": false,
                    "revertMessage": "",
                    "selector": "0xad65d76d",
                    "status": true,
                    "value": "0.346459750781850137"
                },
                "nodeType": 0
            },
            "8": {
                "invocation": {
                    "address": "0x0000000000085d4780b73119b644ae5ecd22b376",
                    "callData": "0x0000000000000000000000005048b9d01097498fd72f3f14bc9bc74a5aac8fa7",
                    "decodedMethod": {
                        "callParams": [
                            {
                                "name": "_who",
                                "type": "address",
                                "value": "0x5048b9d01097498fd72f3f14bc9bc74a5aac8fa7"
                            }
                        ],
                        "constructorArguments": "",
                        "name": "balanceOf",
                        "returnParams": [
                            {
                                "decimalAvailable": true,
                                "name": "",
                                "type": "uint256",
                                "value": "25,575,773,020,707,529,263,203"
                            }
                        ],
                        "signature": "balanceOf(address)"
                    },
                    "errorInfo": "",
                    "fromAddress": "0x5048b9d01097498fd72f3f14bc9bc74a5aac8fa7",
                    "gasUsed": 3635,
                    "id": 8,
                    "methodDecoded": true,
                    "operation": "STATICCALL",
                    "output": "0x00000000000000000000000000000000000000000000056a7726a8149b898863",
                    "revert": false,
                    "revertMessage": "",
                    "selector": "0x70a08231",
                    "status": true,
                    "value": "0"
                },
                "nodeType": 0
            },
            "9": {
                "invocation": {
                    "address": "0xcb9a11afdc6bdb92e4a6235959455f28758b34ba",
                    "callData": "0x0000000000000000000000005048b9d01097498fd72f3f14bc9bc74a5aac8fa7",
                    "decodedMethod": {
                        "callParams": [
                            {
                                "name": "_who",
                                "type": "address",
                                "value": "0x5048b9d01097498fd72f3f14bc9bc74a5aac8fa7"
                            }
                        ],
                        "constructorArguments": "",
                        "name": "balanceOf",
                        "returnParams": [
                            {
                                "decimalAvailable": true,
                                "name": "",
                                "type": "uint256",
                                "value": "25,575,773,020,707,529,263,203"
                            }
                        ],
                        "signature": "balanceOf(address)"
                    },
                    "errorInfo": "",
                    "fromAddress": "0x0000000000085d4780b73119b644ae5ecd22b376",
                    "gasUsed": 1636,
                    "id": 9,
                    "methodDecoded": true,
                    "operation": "DELEGATECALL",
                    "output": "0x00000000000000000000000000000000000000000000056a7726a8149b898863",
                    "revert": false,
                    "revertMessage": "",
                    "selector": "0x70a08231",
                    "status": true,
                    "value": "0"
                },
                "nodeType": 0
            }
        },
        "gasFlame": [
            {
                "children": [
                    {
                        "children": [
                            {
                                "children": [],
                                "depth": 0,
                                "name": "Initial Gas",
                                "value": 22112
                            },
                            {
                                "children": [
                                    {
                                        "children": [
                                            {
                                                "children": [],
                                                "depth": 2,
                                                "name": "getExchange",
                                                "value": 1125
                                            },
                                            {
                                                "children": [],
                                                "depth": 2,
                                                "name": "balanceOf",
                                                "value": 1302
                                            },
                                            {
                                                "children": [],
                                                "depth": 2,
                                                "name": "transferFrom",
                                                "value": 23675
                                            },
                                            {
                                                "children": [
                                                    {
                                                        "children": [
                                                            {
                                                                "children": [
                                                                    {
                                                                        "children": [],
                                                                        "depth": 5,
                                                                        "name": "balanceOf",
                                                                        "value": 1636
                                                                    }
                                                                ],
                                                                "depth": 4,
                                                                "name": "balanceOf",
                                                                "value": 3635
                                                            },
                                                            {
                                                                "children": [
                                                                    {
                                                                        "children": [],
                                                                        "depth": 5,
                                                                        "name": "transfer",
                                                                        "value": 35519
                                                                    }
                                                                ],
                                                                "depth": 4,
                                                                "name": "transfer",
                                                                "value": 37524
                                                            }
                                                        ],
                                                        "depth": 3,
                                                        "name": "ethToTokenTransferInput",
                                                        "value": 54018
                                                    }
                                                ],
                                                "depth": 2,
                                                "name": "ethToTokenTransferInput",
                                                "value": 55194
                                            }
                                        ],
                                        "depth": 1,
                                        "name": "tokenToTokenSwapInput",
                                        "value": 106136
                                    }
                                ],
                                "depth": 0,
                                "name": "Executed Gas",
                                "value": 107318
                            }
                        ],
                        "depth": -1,
                        "name": "Actual Gas Used",
                        "value": 99430
                    },
                    {
                        "children": [],
                        "depth": -1,
                        "name": "Refunded Gas",
                        "value": 30000
                    }
                ],
                "depth": -2,
                "name": "Total Gas",
                "value": 129430
            }
        ],
        "isConfirmed": true,
        "mainTrace": [
            {
                "children": [
                    {
                        "children": [
                            {
                                "children": [
                                    {
                                        "children": [],
                                        "depth": 2,
                                        "id": 2,
                                        "order": 2
                                    },
                                    {
                                        "children": [],
                                        "depth": 2,
                                        "id": 3,
                                        "order": 3
                                    },
                                    {
                                        "children": [
                                            {
                                                "children": [],
                                                "depth": 3,
                                                "id": 5,
                                                "order": 5
                                            }
                                        ],
                                        "depth": 2,
                                        "id": 4,
                                        "order": 4
                                    },
                                    {
                                        "children": [
                                            {
                                                "children": [
                                                    {
                                                        "children": [
                                                            {
                                                                "children": [],
                                                                "depth": 5,
                                                                "id": 9,
                                                                "order": 9
                                                            }
                                                        ],
                                                        "depth": 4,
                                                        "id": 8,
                                                        "order": 8
                                                    },
                                                    {
                                                        "children": [
                                                            {
                                                                "children": [
                                                                    {
                                                                        "children": [],
                                                                        "depth": 6,
                                                                        "id": 12,
                                                                        "order": 12
                                                                    }
                                                                ],
                                                                "depth": 5,
                                                                "id": 11,
                                                                "order": 11
                                                            }
                                                        ],
                                                        "depth": 4,
                                                        "id": 10,
                                                        "order": 10
                                                    },
                                                    {
                                                        "children": [],
                                                        "depth": 4,
                                                        "id": 13,
                                                        "order": 13
                                                    }
                                                ],
                                                "depth": 3,
                                                "id": 7,
                                                "order": 7
                                            }
                                        ],
                                        "depth": 2,
                                        "id": 6,
                                        "order": 6
                                    },
                                    {
                                        "children": [],
                                        "depth": 2,
                                        "id": 14,
                                        "order": 14
                                    }
                                ],
                                "depth": 1,
                                "id": 1,
                                "order": 1
                            }
                        ],
                        "depth": 0,
                        "id": 0,
                        "order": 0
                    }
                ],
                "depth": -1,
                "id": -1,
                "order": -1
            }
        ],
        "mainTraceNodeCount": 15,
        "parentIdMap": {
            "0": -1,
            "1": 0,
            "10": 7,
            "11": 10,
            "12": 11,
            "13": 7,
            "14": 1,
            "2": 1,
            "3": 1,
            "4": 1,
            "5": 4,
            "6": 1,
            "7": 6,
            "8": 7,
            "9": 8
        },
        "tidyTrace": [
            {
                "children": [
                    {
                        "children": [
                            {
                                "children": [
                                    {
                                        "children": [
                                            {
                                                "children": [],
                                                "depth": 3,
                                                "id": 5,
                                                "order": 5
                                            }
                                        ],
                                        "depth": 2,
                                        "id": 4,
                                        "order": 4
                                    },
                                    {
                                        "children": [
                                            {
                                                "children": [
                                                    {
                                                        "children": [
                                                            {
                                                                "children": [
                                                                    {
                                                                        "children": [],
                                                                        "depth": 6,
                                                                        "id": 12,
                                                                        "order": 12
                                                                    }
                                                                ],
                                                                "depth": 5,
                                                                "id": 11,
                                                                "order": 11
                                                            }
                                                        ],
                                                        "depth": 4,
                                                        "id": 10,
                                                        "order": 10
                                                    },
                                                    {
                                                        "children": [],
                                                        "depth": 4,
                                                        "id": 13,
                                                        "order": 13
                                                    }
                                                ],
                                                "depth": 3,
                                                "id": 7,
                                                "order": 7
                                            }
                                        ],
                                        "depth": 2,
                                        "id": 6,
                                        "order": 6
                                    },
                                    {
                                        "children": [],
                                        "depth": 2,
                                        "id": 14,
                                        "order": 14
                                    }
                                ],
                                "depth": 1,
                                "id": 1,
                                "order": 1
                            }
                        ],
                        "depth": 0,
                        "id": 0,
                        "order": 0
                    }
                ],
                "depth": -1,
                "id": -1,
                "order": -1
            }
        ],
        "tidyTraceNodeCount": 11
    },
    "state_change": {
        "stateChanges": [
            {
                "address": "0x0000000000085d4780b73119b644ae5ecd22b376",
                "erc": "ERC-20",
                "slots": [
                    {
                        "current": "0x0000000000000000000000000000000000000000000000000000000000029d43",
                        "key": "0x00000000000000000000000000000000000000000000000000000000000fffff",
                        "prev": "0x0000000000000000000000000000000000000000000000000000000000029d45"
                    },
                    {
                        "current": "0x00000000000000000000000000000000000000000000056786867cd1359f30a4",
                        "key": "0xd5574b1b39522fd3e55e210fd96faf078d6303aa9f4535286baf87771b1b0de8",
                        "prev": "0x00000000000000000000000000000000000000000000056a7726a8149b898863"
                    },
                    {
                        "current": "0x00000000000000000000000000000000000000000000000595270fa000996d59",
                        "key": "0xf5c047218958cb81619e098ee6aa02a556a39880ec3a5cacf10aacccecd76ba3",
                        "prev": "0x000000000000000000000000000000000000000000000002a486e45c9aaf159a"
                    },
                    {
                        "current": "0x0000000000000000000000000000000000000000000000000000000000000000",
                        "key": "0x0000000000000000000000000000000000000000000000000000000000129d44",
                        "prev": "0x0000000000000000000000000000000000000000000000000000000000000001"
                    },
                    {
                        "current": "0x0000000000000000000000000000000000000000000000000000000000000000",
                        "key": "0x0000000000000000000000000000000000000000000000000000000000129d43",
                        "prev": "0x0000000000000000000000000000000000000000000000000000000000000001"
                    }
                ],
                "storageVariables": [
                    {
                        "name": "_balanceOf",
                        "type": "mapping(address => uint256)",
                        "value": {
                            "pairs": [
                                {
                                    "key": "0x000000f54395c554346bfd24e6a1ccd90b881a4e",
                                    "value": {
                                        "current": "102981296584169975129",
                                        "prev": "48748902302901802394",
                                        "typeTag": 1
                                    }
                                },
                                {
                                    "key": "0x5048b9d01097498fd72f3f14bc9bc74a5aac8fa7",
                                    "value": {
                                        "current": "25521540626426261090468",
                                        "prev": "25575773020707529263203",
                                        "typeTag": 1
                                    }
                                }
                            ],
                            "typeTag": 4
                        }
                    }
                ]
            },
            {
                "address": "0x6b175474e89094c44da98b954eedeac495271d0f",
                "erc": "ERC-20",
                "slots": [
                    {
                        "current": "0xfefffffffffffffffffffffffffffffffffffffffffffbeaefd1d431fc70c830",
                        "key": "0x5aaeb684016bd76af7ddd7c12b7e718bf8a3a6661b76c0df56f75838ea4c09fe",
                        "prev": "0xfefffffffffffffffffffffffffffffffffffffffffffbedded27cc672b68830"
                    },
                    {
                        "current": "0x00000000000000000000000000000000000000000000005a6bb8c44872a9460c",
                        "key": "0xa2e44453a62978dc54375822a8d66341352bf6764d57cfe547853286a9486ed3",
                        "prev": "0x00000000000000000000000000000000000000000000005d5ab96cdce8ef060c"
                    },
                    {
                        "current": "0x000000000000000000000000000000000000000000013bbeb863bfec06752201",
                        "key": "0x837c5bfb39eca8230be92373f5cc7e6e47190fceaf54c7a19a912534f1a16c1f",
                        "prev": "0x000000000000000000000000000000000000000000013bbbc9631757902f6201"
                    }
                ],
                "storageVariables": [
                    {
                        "name": "allowance",
                        "type": "mapping(address => mapping(address => uint256))",
                        "value": {
                            "pairs": [
                                {
                                    "key": "0x000000f54395c554346bfd24e6a1ccd90b881a4e",
                                    "value": {
                                        "pairs": [
                                            {
                                                "key": "0x2a1530c4c41db0b0b2bb646cb5eb1a67b7158667",
                                                "value": {
                                                    "current": "115339776388732929035197660848497720713218148788040405566900439345838379026480",
                                                    "prev": "115339776388732929035197660848497720713218148788040405566954554784316455815216",
                                                    "typeTag": 1
                                                }
                                            }
                                        ],
                                        "typeTag": 4
                                    }
                                }
                            ],
                            "typeTag": 4
                        }
                    },
                    {
                        "name": "balanceOf",
                        "type": "mapping(address => uint256)",
                        "value": {
                            "pairs": [
                                {
                                    "key": "0x000000f54395c554346bfd24e6a1ccd90b881a4e",
                                    "value": {
                                        "current": "1667969136407073080844",
                                        "prev": "1722084574885149869580",
                                        "typeTag": 1
                                    }
                                },
                                {
                                    "key": "0x2a1530c4c41db0b0b2bb646cb5eb1a67b7158667",
                                    "value": {
                                        "current": "1491063610152289171743233",
                                        "prev": "1491009494713811094954497",
                                        "typeTag": 1
                                    }
                                }
                            ],
                            "typeTag": 4
                        }
                    }
                ]
            }
        ]
    }
}