{
    "balance_change": {
        "balanceChanges": [
            {
                "account": "0x00a2b2a9d01a80d1c0219a4b4bc6a02541e3eaa3",
                "assets": [
                    {
                        "address": "0x912656188616e0184e3181f019022990a63280b1",
                        "amount": "27.7552",
                        "iconUrl": "",
                        "isERC1155": false,
                        "isERC721": false,
                        "sign": false,
                        "value": ""
                    }
                ]
            },
            {
                "account": "0xb79bbefa6173fd5172ac01ada926b02ae88cad18",
                "assets": [
                    {
                        "address": "0x912656188616e0184e3181f019022990a63280b1",
                        "amount": "27.7552",
                        "iconUrl": "",
                        "isERC1155": false,
                        "isERC721": false,
                        "sign": true,
                        "value": ""
                    }
                ]
            }
        ]
    },
    "profile": {
        "basic_info": {
            "baseFee": "",
            "blockNumber": 10266783,
            "callData": "0xa9059cbb000000000000000000000000b79bbefa6173fd5172ac01ada926b02ae88cad1800000000000000000000000000000000000000000000000000000000a56f1300",
            "debugEnable": true,
            "errorInfo": "",
            "eventCount": 1,
            "feeRecipient": "0x5a0b54d5dc17e0aadc383d2db43b0a0d3e029c4c",
            "formatValue": "0",
            "gasLimit": 120000,
            "gasPrice": "25",
            "gasUsed": 36963,
            "intTxnCount": 0,
            "internalRevert": false,
            "internalRevertMessage": "",
            "isContractCreation": false,
            "isFlashloan": false,
            "maxFee": "",
            "nonce": 360179,
            "overwritedBlockNumber": -1,
            "priorityFee": "",
            "receiver": "0x912656188616e0184e3181f019022990a63280b1",
            "revertMessage": "",
            "sender": "0x00a2b2a9d01a80d1c0219a4b4bc6a02541e3eaa3",
            "simulationEnable": true,
            "sourceTxnHash": "0xae3b473e3f47850d0f1fc1db6c92801008b7ef1f7ba0491183d05dcca2232978",
            "status": true,
            "timestamp": "2020-06-14T23:10:42Z",
            "transactionFee": "0.000924075",
            "txnHash": "0xae3b473e3f47850d0f1fc1db6c92801008b7ef1f7ba0491183d05dcca2232978",
            "txnIndex": 27,
            "type": 0,
            "value": "0"
        },
        "fund_flow": [
            {
                "amount": "27.7552",
                "from": "0x00a2b2a9d01a80d1c0219a4b4bc6a02541e3eaa3",
                "id": 1,
                "isERC1155": false,
                "isERC721": false,
                "isReverted": false,
                "order": 1,
                "to": "0xb79bbefa6173fd5172ac01ada926b02ae88cad18",
                "token": "0x912656188616e0184e3181f019022990a63280b1"
            }
        ],
        "token_infos": [
            {
                "address": "0x912656188616e0184e3181f019022990a63280b1",
                "decimals": 8
            },
            {
                "address": "0xc02aaa39b223fe8d0a0e5c4f27ead9083c756cc2",
                "decimals": 18
            },
            {
                "address": "0xeeeeeeeeeeeeeeeeeeeeeeeeeeeeeeeeeeeeeeee",
                "decimals": 18
            }
        ]
    },
    "address_label": {
        "labels": [
            {
                "address": "0xeeeeeeeeeeeeeeeeeeeeeeeeeeeeeeeeeeeeeeee",
                "label": "Ether"
            },
            {
                "address": "0x912656188616e0184e3181f019022990a63280b1",
                "label": "POCC (POCC)"
            },
            {
                "address": "0x0000000000000000000000000000000000000001",
                "label": "Precompiled"
            },
            {
                "address": "0x0000000000000000000000000000000000000002",
                "label": "Precompiled"
            },
            {
                "address": "0x0000000000000000000000000000000000000003",
                "label": "Precompiled"
            },
            {
                "address": "0x0000000000000000000000000000000000000004",
                "label": "Precompiled"
            }
        ]
    },
    "trace": {
        "accountLabels": null,
        "dataMap": {
            "-1": {
                "invocation": {
                    "address": "0x00a2b2a9d01a80d1c0219a4b4bc6a02541e3eaa3",
                    "callData": "",
                    "decodedMethod": null,
                    "errorInfo": "",
                    "fromAddress": "",
                    "gasUsed": 0,
                    "id": -1,
                    "methodDecoded": false,
                    "operation": "",
                    "output": "",
                    "revert": false,
                    "revertMessage": "",
                    "selector": "",
                    "status": false,
                    "value": ""
                },
                "nodeType": 0
            },
            "0": {
                "invocation": {
                    "address": "0x912656188616e0184e3181f019022990a63280b1",
                    "callData": "0x000000000000000000000000b79bbefa6173fd5172ac01ada926b02ae88cad1800000000000000000000000000000000000000000000000000000000a56f1300",
                    "decodedMethod": {
                        "callParams": [
                            {
                                "name": "receiver",
                                "type": "address",
                                "value": "0xb79bbefa6173fd5172ac01ada926b02ae88cad18"
                            },
                            {
                                "decimalAvailable": true,
                                "name": "numTokens",
                                "type": "uint256",
                                "value": "2,775,520,000"
                            }
                        ],
                        "constructorArguments": "",
                        "name": "transfer",
                        "returnParams": [
                            {
                                "name": "",
                                "type": "bool",
                                "value": true
                            }
                        ],
                        "signature": "transfer(address,uint256)"
                    },
                    "errorInfo": "",
                    "fromAddress": "0x00a2b2a9d01a80d1c0219a4b4bc6a02541e3eaa3",
                    "gasUsed": 36963,
                    "id": 0,
                    "methodDecoded": true,
                    "operation": "CALL",
                    "output": "0x0000000000000000000000000000000000000000000000000000000000000001",
                    "revert": false,
                    "revertMessage": "",
                    "selector": "0xa9059cbb",
                    "status": true,
                    "value": "0"
                },
                "nodeType": 0
            },
            "1": {
                "event": {
                    "contract": "0x912656188616e0184e3181f019022990a63280b1",
                    "decodedLog": {
                        "name": "Transfer",
                        "params": [
                            {
                                "name": "from",
                                "type": "address",
                                "value": "0x00a2b2a9d01a80d1c0219a4b4bc6a02541e3eaa3"
                            },
                            {
                                "name": "to",
                                "type": "address",
                                "value": "0xb79bbefa6173fd5172ac01ada926b02ae88cad18"
                            },
                            {
                                "decimalAvailable": true,
                                "name": "tokens",
                                "type": "uint256",
                                "value": "2,775,520,000"
                            }
                        ],
                        "signature": "Transfer(address,address,uint256)"
                    },
                    "id": 1,
                    "logData": "0x00000000000000000000000000000000000000000000000000000000a56f1300",
                    "logDecoded": true,
                    "operation": "EVENT",
                    "revert": false,
                    "status": true,
                    "topics": [
                        "0xddf252ad1be2c89b69c2b068fc378daa952ba7f163c4a11628f55a4df523b3ef",
                        "0x00000000000000000000000000a2b2a9d01a80d1c0219a4b4bc6a02541e3eaa3",
                        "0x000000000000000000000000b79bbefa6173fd5172ac01ada926b02ae88cad18"
                    ]
                },
                "nodeType": 1
            }
        },
        "gasFlame": [
            {
                "children": [
                    {
                        "children": [
                            {
                                "children": [],
                                "depth": 0,
                                "name": "Initial Gas",
                                "value": 21596
                            },
                            {
                                "children": [],
                                "depth": 0,
                                "name": "Executed Gas",
                                "value": 15367
                            }
                        ],
                        "depth": -1,
                        "name": "Actual Gas Used",
                        "value": 36963
                    },
                    {
                        "children": [],
                        "depth": -1,
                        "name": "Refunded Gas",
                        "value": 0
                    }
                ],
                "depth": -2,
                "name": "Total Gas",
                "value": 36963
            }
        ],
        "isConfirmed": true,
        "mainTrace": [
            {
                "children": [
                    {
                        "children": [
                            {
                                "children": [],
                                "depth": 1,
                                "id": 1,
                                "order": 1
                            }
                        ],
                        "depth": 0,
                        "id": 0,
                        "order": 0
                    }
                ],
                "depth": -1,
                "id": -1,
                "order": -1
            }
        ],
        "mainTraceNodeCount": 2,
        "parentIdMap": {
            "0": -1,
            "1": 0
        },
        "tidyTrace": [
            {
                "children": [
                    {
                        "children": [
                            {
                                "children": [],
                                "depth": 1,
                                "id": 1,
                                "order": 1
                            }
                        ],
                        "depth": 0,
                        "id": 0,
                        "order": 0
                    }
                ],
                "depth": -1,
                "id": -1,
                "order": -1
            }
        ],
        "tidyTraceNodeCount": 2
    },
    "state_change": {
        "stateChanges": [
            {
                "address": "0x912656188616e0184e3181f019022990a63280b1",
                "erc": "ERC-20",
                "slots": [
                    {
                        "current": "0x000000000000000000000000000000000000000000000000000801bba9b8c15a",
                        "key": "0x73f3ab4f0bb38a49e16eb4b8d3c4569238f2356ff852b581f316ae3a90142085",
                        "prev": "0x000000000000000000000000000000000000000000000000000801bc4f27d45a"
                    },
                    {
                        "current": "0x00000000000000000000000000000000000000000000000000000006e7eb3dfc",
                        "key": "0x07733ea64a8aaf48a6f8af21d2bfa24010fc7e6b33bf99395d45d307b307d384",
                        "prev": "0x00000000000000000000000000000000000000000000000000000006427c2afc"
                    }
                ],
                "storageVariables": [
                    {
                        "name": "balances",
                        "type": "mapping(address => uint256)",
                        "value": {
                            "pairs": [
                                {
                                    "key": "0x00a2b2a9d01a80d1c0219a4b4bc6a02541e3eaa3",
                                    "value": {
                                        "current": "2253705331655002",
                                        "prev": "2253708107175002",
                                        "typeTag": 1
                                    }
                                },
                                {
                                    "key": "0xb79bbefa6173fd5172ac01ada926b02ae88cad18",
                                    "value": {
                                        "current": "29660757500",
                                        "prev": "26885237500",
                                        "typeTag": 1
                                    }
                                }
                            ],
                            "typeTag": 4
                        }
                    }
                ]
            }
        ]
    }
}