{
    "balance_change": {
        "balanceChanges": [
            {
                "account": "0x73a8a6f5d9762ea5f1de193ec19cdf476c7e86b1",
                "assets": [
                    {
                        "address": "0x944824290cc12f31ae18ef51216a223ba4063092",
                        "amount": "36,360",
                        "iconUrl": "",
                        "isERC1155": false,
                        "isERC721": false,
                        "sign": false,
                        "value": "2978.013352"
                    }
                ]
            },
            {
                "account": "0x6cdf94520d00ef13b9b56f3815107b9529b8957b",
                "assets": [
                    {
                        "address": "0x944824290cc12f31ae18ef51216a223ba4063092",
                        "amount": "36,360",
                        "iconUrl": "",
                        "isERC1155": false,
                        "isERC721": false,
                        "sign": true,
                        "value": "2978.013352"
                    }
                ]
            }
        ]
    },
    "profile": {
        "basic_info": {
            "baseFee": "2.561007184",
            "blockNumber": 19907320,
            "callData": "0xef61a6db000000000000000000000000944824290cc12f31ae18ef51216a223ba40630920000000000000000000000000000000000000000000007b3145d5c76b3200000",
            "debugEnable": true,
            "errorInfo": "",
            "eventCount": 1,
            "feeRecipient": "0x5f00fcc7c2698457d6907da4b4fe1a0f121d81ee",
            "formatValue": "0",
            "gasLimit": 400014,
            "gasPrice": "3.561007184",
            "gasUsed": 50601,
            "intTxnCount": 2,
            "internalRevert": false,
            "internalRevertMessage": "",
            "isContractCreation": false,
            "isFlashloan": false,
            "maxFee": "6.396265296",
            "nonce": 41484,
            "overwritedBlockNumber": -1,
            "priorityFee": "1",
            "receiver": "0x73a8a6f5d9762ea5f1de193ec19cdf476c7e86b1",
            "revertMessage": "",
            "sender": "0xa9edbf8aeeed12129816f5f513237b570413856f",
            "simulationEnable": true,
            "sourceTxnHash": "0xaea536f5a593cc14582adf0a1f50434b6a8c49b7fe5b395555763001731773ae",
            "status": true,
            "timestamp": "2024-05-19T23:39:59Z",
            "transactionFee": "0.000180190524517584",
            "txnHash": "0xaea536f5a593cc14582adf0a1f50434b6a8c49b7fe5b395555763001731773ae",
            "txnIndex": 27,
            "type": 2,
            "value": "0"
        },
        "fund_flow": [
            {
                "amount": "36,360",
                "from": "0x73a8a6f5d9762ea5f1de193ec19cdf476c7e86b1",
                "id": 1,
                "isERC1155": false,
                "isERC721": false,
                "isReverted": false,
                "order": 1,
                "to": "0x6cdf94520d00ef13b9b56f3815107b9529b8957b",
                "token": "0x944824290cc12f31ae18ef51216a223ba4063092"
            }
        ],
        "token_infos": [
            {
                "address": "0x944824290cc12f31ae18ef51216a223ba4063092",
                "decimals": 18
            },
            {
                "address": "0xc02aaa39b223fe8d0a0e5c4f27ead9083c756cc2",
                "decimals": 18
            },
            {
                "address": "0xeeeeeeeeeeeeeeeeeeeeeeeeeeeeeeeeeeeeeeee",
                "decimals": 18
            }
        ]
    },
    "address_label": {
        "labels": [
            {
                "address": "0x73a8a6f5d9762ea5f1de193ec19cdf476c7e86b1",
                "label": "MEV Bot: 0x73a...6b1"
            },
            {
                "address": "0x6cdf94520d00ef13b9b56f3815107b9529b8957b",
                "label": "GATE.IO"
            },
            {
                "address": "0x944824290cc12f31ae18ef51216a223ba4063092",
                "label": "Masa: MASA Token"
            },
            {
                "address": "0x0000000000000000000000000000000000000001",
                "label": "Precompiled"
            },
            {
                "address": "0x0000000000000000000000000000000000000002",
                "label": "Precompiled"
            },
            {
                "address": "0x0000000000000000000000000000000000000003",
                "label": "Precompiled"
            },
            {
                "address": "0x0000000000000000000000000000000000000004",
                "label": "Precompiled"
            },
            {
                "address": "0xeeeeeeeeeeeeeeeeeeeeeeeeeeeeeeeeeeeeeeee",
                "label": "Ether"
            }
        ]
    },
    "trace": {
        "accountLabels": null,
        "dataMap": {
            "-1": {
                "invocation": {
                    "address": "0xa9edbf8aeeed12129816f5f513237b570413856f",
                    "callData": "",
                    "decodedMethod": null,
                    "errorInfo": "",
                    "fromAddress": "",
                    "gasUsed": 0,
                    "id": -1,
                    "methodDecoded": false,
                    "operation": "",
                    "output": "",
                    "revert": false,
                    "revertMessage": "",
                    "selector": "",
                    "status": false,
                    "value": ""
                },
                "nodeType": 0
            },
            "0": {
                "invocation": {
                    "address": "0x73a8a6f5d9762ea5f1de193ec19cdf476c7e86b1",
                    "callData": "0x000000000000000000000000944824290cc12f31ae18ef51216a223ba40630920000000000000000000000000000000000000000000007b3145d5c76b3200000",
                    "decodedMethod": null,
                    "errorInfo": "",
                    "fromAddress": "0xa9edbf8aeeed12129816f5f513237b570413856f",
                    "gasUsed": 50601,
                    "id": 0,
                    "methodDecoded": false,
                    "operation": "CALL",
                    "output": "",
                    "revert": false,
                    "revertMessage": "",
                    "selector": "0xef61a6db",
                    "status": true,
                    "value": "0"
                },
                "nodeType": 0
            },
            "1": {
                "invocation": {
                    "address": "0x944824290cc12f31ae18ef51216a223ba4063092",
                    "callData": "0x00000000000000000000000073a8a6f5d9762ea5f1de193ec19cdf476c7e86b1",
                    "decodedMethod": {
                        "callParams": [
                            {
                                "name": "account",
                                "type": "address",
                                "value": "0x73a8a6f5d9762ea5f1de193ec19cdf476c7e86b1"
                            }
                        ],
                        "constructorArguments": "",
                        "name": "balanceOf",
                        "returnParams": [
                            {
                                "decimalAvailable": true,
                                "name": "",
                                "type": "uint256",
                                "value": "79,788,600,547,463,021,737,281"
                            }
                        ],
                        "signature": "balanceOf(address)"
                    },
                    "errorInfo": "",
                    "fromAddress": "0x73a8a6f5d9762ea5f1de193ec19cdf476c7e86b1",
                    "gasUsed": 3314,
                    "id": 1,
                    "methodDecoded": true,
                    "operation": "STATICCALL",
                    "output": "0x0000000000000000000000000000000000000000000010e5594493cb4f5c3541",
                    "revert": false,
                    "revertMessage": "",
                    "selector": "0x70a08231",
                    "status": true,
                    "value": "0"
                },
                "nodeType": 0
            },
            "2": {
                "invocation": {
                    "address": "0x944824290cc12f31ae18ef51216a223ba4063092",
                    "callData": "0x0000000000000000000000006cdf94520d00ef13b9b56f3815107b9529b8957b0000000000000000000000000000000000000000000007b3145d5c76b3200000",
                    "decodedMethod": {
                        "callParams": [
                            {
                                "name": "to",
                                "type": "address",
                                "value": "0x6cdf94520d00ef13b9b56f3815107b9529b8957b"
                            },
                            {
                                "decimalAvailable": true,
                                "name": "amount",
                                "type": "uint256",
                                "value": "36,360,000,000,000,000,000,000"
                            }
                        ],
                        "constructorArguments": "",
                        "name": "transfer",
                        "returnParams": [
                            {
                                "name": "",
                                "type": "bool",
                                "value": true
                            }
                        ],
                        "signature": "transfer(address,uint256)"
                    },
                    "errorInfo": "",
                    "fromAddress": "0x73a8a6f5d9762ea5f1de193ec19cdf476c7e86b1",
                    "gasUsed": 14154,
                    "id": 2,
                    "methodDecoded": true,
                    "operation": "CALL",
                    "output": "0x0000000000000000000000000000000000000000000000000000000000000001",
                    "revert": false,
                    "revertMessage": "",
                    "selector": "0xa9059cbb",
                    "status": true,
                    "value": "0"
                },
                "nodeType": 0
            },
            "3": {
                "event": {
                    "contract": "0x944824290cc12f31ae18ef51216a223ba4063092",
                    "decodedLog": {
                        "name": "Transfer",
                        "params": [
                            {
                                "name": "from",
                                "type": "address",
                                "value": "0x73a8a6f5d9762ea5f1de193ec19cdf476c7e86b1"
                            },
                            {
                                "name": "to",
                                "type": "address",
                                "value": "0x6cdf94520d00ef13b9b56f3815107b9529b8957b"
                            },
                            {
                                "decimalAvailable": true,
                                "name": "value",
                                "type": "uint256",
                                "value": "36,360,000,000,000,000,000,000"
                            }
                        ],
                        "signature": "Transfer(address,address,uint256)"
                    },
                    "id": 3,
                    "logData": "0x0000000000000000000000000000000000000000000007b3145d5c76b3200000",
                    "logDecoded": true,
                    "operation": "EVENT",
                    "revert": false,
                    "status": true,
                    "topics": [
                        "0xddf252ad1be2c89b69c2b068fc378daa952ba7f163c4a11628f55a4df523b3ef",
                        "0x00000000000000000000000073a8a6f5d9762ea5f1de193ec19cdf476c7e86b1",
                        "0x0000000000000000000000006cdf94520d00ef13b9b56f3815107b9529b8957b"
                    ]
                },
                "nodeType": 1
            }
        },
        "gasFlame": [
            {
                "children": [
                    {
                        "children": [
                            {
                                "children": [],
                                "depth": 0,
                                "name": "Initial Gas",
                                "value": 21656
                            },
                            {
                                "children": [
                                    {
                                        "children": [],
                                        "depth": 1,
                                        "name": "balanceOf",
                                        "value": 3314
                                    },
                                    {
                                        "children": [],
                                        "depth": 1,
                                        "name": "transfer",
                                        "value": 14154
                                    }
                                ],
                                "depth": 0,
                                "name": "Executed Gas",
                                "value": 28945
                            }
                        ],
                        "depth": -1,
                        "name": "Actual Gas Used",
                        "value": 50601
                    },
                    {
                        "children": [],
                        "depth": -1,
                        "name": "Refunded Gas",
                        "value": 0
                    }
                ],
                "depth": -2,
                "name": "Total Gas",
                "value": 50601
            }
        ],
        "isConfirmed": true,
        "mainTrace": [
            {
                "children": [
                    {
                        "children": [
                            {
                                "children": [],
                                "depth": 1,
                                "id": 1,
                                "order": 1
                            },
                            {
                                "children": [
                                    {
                                        "children": [],
                                        "depth": 2,
                                        "id": 3,
                                        "order": 3
                                    }
                                ],
                                "depth": 1,
                                "id": 2,
                                "order": 2
                            }
                        ],
                        "depth": 0,
                        "id": 0,
                        "order": 0
                    }
                ],
                "depth": -1,
                "id": -1,
                "order": -1
            }
        ],
        "mainTraceNodeCount": 4,
        "parentIdMap": {
            "0": -1,
            "1": 0,
            "2": 0,
            "3": 2
        },
        "tidyTrace": [
            {
                "children": [
                    {
                        "children": [
                            {
                                "children": [
                                    {
                                        "children": [],
                                        "depth": 2,
                                        "id": 3,
                                        "order": 3
                                    }
                                ],
                                "depth": 1,
                                "id": 2,
                                "order": 2
                            }
                        ],
                        "depth": 0,
                        "id": 0,
                        "order": 0
                    }
                ],
                "depth": -1,
                "id": -1,
                "order": -1
            }
        ],
        "tidyTraceNodeCount": 3
    },
    "state_change": {
        "stateChanges": [
            {
                "address": "0x944824290cc12f31ae18ef51216a223ba4063092",
                "erc": "ERC-20",
                "slots": [
                    {
                        "current": "0x00000000000000000000000000000000000000000000093244e737549c3c3541",
                        "key": "0x0ab6cffb888ac07e4798e04757bad7af9d19c80f0413d2530839c88b30268379",
                        "prev": "0x0000000000000000000000000000000000000000000010e5594493cb4f5c3541"
                    },
                    {
                        "current": "0x0000000000000000000000000000000000000000000024b194f2f9ea2ee40000",
                        "key": "0x1092d88766575bbae0fe8eaf1f7c1d6820d147b14162d9de82a7ec202c2aacfe",
                        "prev": "0x000000000000000000000000000000000000000000001cfe80959d737bc40000"
                    }
                ],
                "storageVariables": [
                    {
                        "name": "_balances",
                        "type": "mapping(address => uint256)",
                        "value": {
                            "pairs": [
                                {
                                    "key": "0x6cdf94520d00ef13b9b56f3815107b9529b8957b",
                                    "value": {
                                        "current": "173281000000000000000000",
                                        "prev": "136921000000000000000000",
                                        "typeTag": 1
                                    }
                                },
                                {
                                    "key": "0x73a8a6f5d9762ea5f1de193ec19cdf476c7e86b1",
                                    "value": {
                                        "current": "43428600547463021737281",
                                        "prev": "79788600547463021737281",
                                        "typeTag": 1
                                    }
                                }
                            ],
                            "typeTag": 4
                        }
                    }
                ]
            }
        ]
    }
}