{
    "balance_change": {
        "balanceChanges": [
            {
                "account": "0x8d6e15cb3442ff24f2b8538c203b829f3d879705",
                "assets": [
                    {
                        "address": "0xeeeeeeeeeeeeeeeeeeeeeeeeeeeeeeeeeeeeeeee",
                        "amount": "0.000000000001018368",
                        "iconUrl": "https://assets.blocksec.com/image/1663669189317-3.png",
                        "isERC1155": false,
                        "isERC721": false,
                        "sign": false,
                        "value": "0.0000000023636763251712000199"
                    }
                ]
            },
            {
                "account": "0xa69babef1ca67a37ffaf7a485dfff3382056e78c",
                "assets": [
                    {
                        "address": "0x6b175474e89094c44da98b954eedeac495271d0f",
                        "amount": "44,528.151574401435059302",
                        "iconUrl": "https://assets.blocksec.com/icon/39aead569b9c011cb6f69734d9abbc9ab6a80049fe93bbd12bb473a3e0e859a3.png",
                        "isERC1155": false,
                        "isERC721": false,
                        "sign": false,
                        "value": "44501.434679057997997"
                    },
                    {
                        "address": "0xeeeeeeeeeeeeeeeeeeeeeeeeeeeeeeeeeeeeeeee",
                        "amount": "0.179664341347824331",
                        "iconUrl": "https://assets.blocksec.com/image/1663669189317-3.png",
                        "isERC1155": false,
                        "isERC721": false,
                        "sign": false,
                        "value": "417.00873358971242352"
                    },
                    {
                        "address": "0xc02aaa39b223fe8d0a0e5c4f27ead9083c756cc2",
                        "amount": "19.580594354972799706",
                        "iconUrl": "https://assets.blocksec.com/icon/f1cb2d02c471d545bbc7722daf3277fd852d98e63d118771af7047bd8256c516.png",
                        "isERC1155": false,
                        "isERC721": false,
                        "sign": true,
                        "value": "45447.409284144790387"
                    }
                ]
            },
            {
                "account": "0x95222290dd7278aa3ddd389cc1e1d165cc4bafe5",
                "assets": [
                    {
                        "address": "0xeeeeeeeeeeeeeeeeeeeeeeeeeeeeeeeeeeeeeeee",
                        "amount": "0.179664341348842699",
                        "iconUrl": "https://assets.blocksec.com/image/1663669189317-3.png",
                        "isERC1155": false,
                        "isERC721": false,
                        "sign": true,
                        "value": "417.00873358971242352"
                    }
                ]
            },
            {
                "account": "0xc2e9f25be6257c210d7adf0d4cd6e3e881ba25f8",
                "assets": [
                    {
                        "address": "0xc02aaa39b223fe8d0a0e5c4f27ead9083c756cc2",
                        "amount": "19.580594354972799706",
                        "iconUrl": "https://assets.blocksec.com/icon/f1cb2d02c471d545bbc7722daf3277fd852d98e63d118771af7047bd8256c516.png",
                        "isERC1155": false,
                        "isERC721": false,
                        "sign": false,
                        "value": "45447.409284144790387"
                    },
                    {
                        "address": "0x6b175474e89094c44da98b954eedeac495271d0f",
                        "amount": "44,528.151574401435059302",
                        "iconUrl": "https://assets.blocksec.com/icon/39aead569b9c011cb6f69734d9abbc9ab6a80049fe93bbd12bb473a3e0e859a3.png",
                        "isERC1155": false,
                        "isERC721": false,
                        "sign": true,
                        "value": "44501.434679057997997"
                    }
                ]
            }
        ]
    },
    "profile": {
        "basic_info": {
            "baseFee": "198.131269617",
            "blockNumber": 20459279,
            "callData": "0x78e111f6000000000000000000000000ebed27ed224f3406917663a6e1eafe8feda51448000000000000000000000000000000000000000000000000000000000000004000000000000000000000000000000000000000000000000000000000000000c4f4ff529500000000000000000000000000000000000000000000096de03d30a8f4544466000000000000000000000000000000000000001d084e0acfaf540000000000000000000000000000000000000000000000000000055884d391408e18f2b2d6d10000000000000000000000000000000000000000000000000de0b6b3a76400000000000000000000000000000000000000000000000000000000000066b0342fff80000000000000000000000000000000000000000000000000000000017baf00000000000000000000000000000000000000000000000000000000",
            "debugEnable": true,
            "errorInfo": "",
            "eventCount": 3,
            "feeRecipient": "0x95222290dd7278aa3ddd389cc1e1d165cc4bafe5",
            "formatValue": "0.000000000001018368",
            "gasLimit": 420200,
            "gasPrice": "198.131269617",
            "gasUsed": 210107,
            "intTxnCount": 8,
            "internalRevert": false,
            "internalRevertMessage": "",
            "isContractCreation": false,
            "isFlashloan": false,
            "maxFee": "297.196904425",
            "nonce": 23060,
            "overwritedBlockNumber": -1,
            "priorityFee": "0",
            "receiver": "0xa69babef1ca67a37ffaf7a485dfff3382056e78c",
            "revertMessage": "",
            "sender": "0x8d6e15cb3442ff24f2b8538c203b829f3d879705",
            "simulationEnable": true,
            "sourceTxnHash": "0xaea71ba8512cb97462cad447e0cf3fa99812bba1453c5eb155af8362866c3045",
            "status": true,
            "timestamp": "2024-08-05T02:08:47Z",
            "transactionFee": "0.041628766665419019",
            "txnHash": "0xaea71ba8512cb97462cad447e0cf3fa99812bba1453c5eb155af8362866c3045",
            "txnIndex": 10,
            "type": 2,
            "value": "1018368"
        },
        "fund_flow": [
            {
                "amount": "0.000000000001018368",
                "from": "0x8d6e15cb3442ff24f2b8538c203b829f3d879705",
                "id": 1,
                "isERC1155": false,
                "isERC721": false,
                "isReverted": false,
                "order": 1,
                "to": "0xa69babef1ca67a37ffaf7a485dfff3382056e78c",
                "token": "0xeeeeeeeeeeeeeeeeeeeeeeeeeeeeeeeeeeeeeeee"
            },
            {
                "amount": "19.580594354972799706",
                "from": "0xc2e9f25be6257c210d7adf0d4cd6e3e881ba25f8",
                "id": 2,
                "isERC1155": false,
                "isERC721": false,
                "isReverted": false,
                "order": 2,
                "to": "0xa69babef1ca67a37ffaf7a485dfff3382056e78c",
                "token": "0xc02aaa39b223fe8d0a0e5c4f27ead9083c756cc2"
            },
            {
                "amount": "44,528.151574401435059302",
                "from": "0xa69babef1ca67a37ffaf7a485dfff3382056e78c",
                "id": 3,
                "isERC1155": false,
                "isERC721": false,
                "isReverted": false,
                "order": 3,
                "to": "0xc2e9f25be6257c210d7adf0d4cd6e3e881ba25f8",
                "token": "0x6b175474e89094c44da98b954eedeac495271d0f"
            },
            {
                "amount": "0.179664341348842699",
                "from": "0xa69babef1ca67a37ffaf7a485dfff3382056e78c",
                "id": 4,
                "isERC1155": false,
                "isERC721": false,
                "isReverted": false,
                "order": 4,
                "to": "0x95222290dd7278aa3ddd389cc1e1d165cc4bafe5",
                "token": "0xeeeeeeeeeeeeeeeeeeeeeeeeeeeeeeeeeeeeeeee"
            }
        ],
        "token_infos": [
            {
                "address": "0x6b175474e89094c44da98b954eedeac495271d0f",
                "decimals": 18
            },
            {
                "address": "0xc02aaa39b223fe8d0a0e5c4f27ead9083c756cc2",
                "decimals": 18
            },
            {
                "address": "0xeeeeeeeeeeeeeeeeeeeeeeeeeeeeeeeeeeeeeeee",
                "decimals": 18
            }
        ]
    },
    "address_label": {
        "labels": [
            {
                "address": "0xeeeeeeeeeeeeeeeeeeeeeeeeeeeeeeeeeeeeeeee",
                "label": "Ether"
            },
            {
                "address": "0xa69babef1ca67a37ffaf7a485dfff3382056e78c",
                "label": "MEV Bot: 0xA69...78C"
            },
            {
                "address": "0x6b175474e89094c44da98b954eedeac495271d0f",
                "label": "Sky: Dai Stablecoin"
            },
            {
                "address": "0xc02aaa39b223fe8d0a0e5c4f27ead9083c756cc2",
                "label": "Wrapped Ether (WETH)"
            },
            {
                "address": "0x95222290dd7278aa3ddd389cc1e1d165cc4bafe5",
                "label": "beaverbuild"
            },
            {
                "address": "0x0000000000000000000000000000000000000001",
                "label": "Precompiled"
            },
            {
                "address": "0xc2e9f25be6257c210d7adf0d4cd6e3e881ba25f8",
                "label": "Uniswap V3: DAI"
            },
            {
                "address": "0x0000000000000000000000000000000000000002",
                "label": "Precompiled"
            },
            {
                "address": "0x0000000000000000000000000000000000000003",
                "label": "Precompiled"
            },
            {
                "address": "0x0000000000000000000000000000000000000004",
                "label": "Precompiled"
            }
        ]
    },
    "trace": {
        "accountLabels": null,
        "dataMap": {
            "-1": {
                "invocation": {
                    "address": "0x8d6e15cb3442ff24f2b8538c203b829f3d879705",
                    "callData": "",
                    "decodedMethod": null,
                    "errorInfo": "",
                    "fromAddress": "",
                    "gasUsed": 0,
                    "id": -1,
                    "methodDecoded": false,
                    "operation": "",
                    "output": "",
                    "revert": false,
                    "revertMessage": "",
                    "selector": "",
                    "status": false,
                    "value": ""
                },
                "nodeType": 0
            },
            "0": {
                "invocation": {
                    "address": "0xa69babef1ca67a37ffaf7a485dfff3382056e78c",
                    "callData": "0x000000000000000000000000ebed27ed224f3406917663a6e1eafe8feda51448000000000000000000000000000000000000000000000000000000000000004000000000000000000000000000000000000000000000000000000000000000c4f4ff529500000000000000000000000000000000000000000000096de03d30a8f4544466000000000000000000000000000000000000001d084e0acfaf540000000000000000000000000000000000000000000000000000055884d391408e18f2b2d6d10000000000000000000000000000000000000000000000000de0b6b3a76400000000000000000000000000000000000000000000000000000000000066b0342fff80000000000000000000000000000000000000000000000000000000017baf00000000000000000000000000000000000000000000000000000000",
                    "decodedMethod": {
                        "callParams": [
                            {
                                "name": "_address",
                                "type": "address",
                                "value": "0xebed27ed224f3406917663a6e1eafe8feda51448"
                            },
                            {
                                "name": "_bytes",
                                "type": "bytes",
                                "value": "0xf4ff529500000000000000000000000000000000000000000000096de03d30a8f4544466000000000000000000000000000000000000001d084e0acfaf540000000000000000000000000000000000000000000000000000055884d391408e18f2b2d6d10000000000000000000000000000000000000000000000000de0b6b3a76400000000000000000000000000000000000000000000000000000000000066b0342fff80000000000000000000000000000000000000000000000000000000017baf"
                            }
                        ],
                        "constructorArguments": "",
                        "name": "executeFFsYo",
                        "returnParams": [],
                        "signature": "executeFFsYo(address,bytes)"
                    },
                    "errorInfo": "",
                    "fromAddress": "0x8d6e15cb3442ff24f2b8538c203b829f3d879705",
                    "gasUsed": 210107,
                    "id": 0,
                    "methodDecoded": true,
                    "operation": "CALL",
                    "output": "0x0000000000000000000000000000000000000000000000000000000000000020000000000000000000000000000000000000000000000000000000000000004000000000000000000000000000000000000000000000096de03d30a8f45444660000000000000000000000000000000000000000000000000315107ba4d036a8",
                    "revert": false,
                    "revertMessage": "",
                    "selector": "0x78e111f6",
                    "status": true,
                    "value": "0.000000000001018368"
                },
                "nodeType": 0
            },
            "1": {
                "invocation": {
                    "address": "0xebed27ed224f3406917663a6e1eafe8feda51448",
                    "callData": "0x00000000000000000000000000000000000000000000096de03d30a8f4544466000000000000000000000000000000000000001d084e0acfaf540000000000000000000000000000000000000000000000000000055884d391408e18f2b2d6d10000000000000000000000000000000000000000000000000de0b6b3a76400000000000000000000000000000000000000000000000000000000000066b0342fff80000000000000000000000000000000000000000000000000000000017baf",
                    "decodedMethod": null,
                    "errorInfo": "",
                    "fromAddress": "0xa69babef1ca67a37ffaf7a485dfff3382056e78c",
                    "gasUsed": 124181,
                    "id": 1,
                    "methodDecoded": false,
                    "operation": "DELEGATECALL",
                    "output": "0x00000000000000000000000000000000000000000000096de03d30a8f45444660000000000000000000000000000000000000000000000000315107ba4d036a8",
                    "revert": false,
                    "revertMessage": "",
                    "selector": "0xf4ff5295",
                    "status": true,
                    "value": "0.000000000001018368"
                },
                "nodeType": 0
            },
            "10": {
                "event": {
                    "contract": "0xc2e9f25be6257c210d7adf0d4cd6e3e881ba25f8",
                    "decodedLog": {
                        "name": "Swap",
                        "params": [
                            {
                                "name": "sender",
                                "type": "address",
                                "value": "0xa69babef1ca67a37ffaf7a485dfff3382056e78c"
                            },
                            {
                                "name": "recipient",
                                "type": "address",
                                "value": "0xa69babef1ca67a37ffaf7a485dfff3382056e78c"
                            },
                            {
                                "name": "amount0",
                                "type": "int256",
                                "value": "44,528,151,574,401,435,059,302"
                            },
                            {
                                "name": "amount1",
                                "type": "int256",
                                "value": "-19,580,594,354,972,799,706"
                            },
                            {
                                "name": "sqrtPriceX96",
                                "type": "uint160",
                                "value": "1,654,508,423,672,704,535,944,772,558"
                            },
                            {
                                "name": "liquidity",
                                "type": "uint128",
                                "value": "82,270,652,189,464,933,274,453"
                            },
                            {
                                "name": "tick",
                                "type": "int24",
                                "value": "-77,381"
                            }
                        ],
                        "signature": "Swap(address,address,int256,int256,uint160,uint128,int24)"
                    },
                    "id": 10,
                    "logData": "0x00000000000000000000000000000000000000000000096de03d30a8f4544466fffffffffffffffffffffffffffffffffffffffffffffffef043c12d34d3cd260000000000000000000000000000000000000000055893c95df8ac03a9843bce00000000000000000000000000000000000000000000116be6a765b8c2519355fffffffffffffffffffffffffffffffffffffffffffffffffffffffffffed1bb",
                    "logDecoded": true,
                    "operation": "EVENT",
                    "revert": false,
                    "status": true,
                    "topics": [
                        "0xc42079f94a6350d7e6235f29174924f928cc2ac818eb64fed8004e115fbcca67",
                        "0x000000000000000000000000a69babef1ca67a37ffaf7a485dfff3382056e78c",
                        "0x000000000000000000000000a69babef1ca67a37ffaf7a485dfff3382056e78c"
                    ]
                },
                "nodeType": 1
            },
            "11": {
                "invocation": {
                    "address": "0x95222290dd7278aa3ddd389cc1e1d165cc4bafe5",
                    "callData": "0x",
                    "decodedMethod": null,
                    "errorInfo": "",
                    "fromAddress": "0xa69babef1ca67a37ffaf7a485dfff3382056e78c",
                    "gasUsed": 0,
                    "id": 11,
                    "methodDecoded": false,
                    "operation": "CALL",
                    "output": "",
                    "revert": false,
                    "revertMessage": "",
                    "selector": "fallback",
                    "status": true,
                    "value": "0.179664341348842699"
                },
                "nodeType": 0
            },
            "2": {
                "invocation": {
                    "address": "0xc2e9f25be6257c210d7adf0d4cd6e3e881ba25f8",
                    "callData": "0x000000000000000000000000a69babef1ca67a37ffaf7a485dfff3382056e78c000000000000000000000000000000000000000000000000000000000000000100000000000000000000000000000000000000000000096de03d30a8f45444660000000000000000000000000000000000000000055884d391408e18f2b2d6d100000000000000000000000000000000000000000000000000000000000000a00000000000000000000000000000000000000000000000000000000000000060f5b1c651e810f039b65f27d103bbe8bbb5672b8fe942a836d76f861826096e5d000000000000000000000000a69babef1ca67a37ffaf7a485dfff3382056e78c0000000000000000000000006b175474e89094c44da98b954eedeac495271d0f",
                    "decodedMethod": {
                        "callParams": [
                            {
                                "name": "recipient",
                                "type": "address",
                                "value": "0xa69babef1ca67a37ffaf7a485dfff3382056e78c"
                            },
                            {
                                "name": "zeroForOne",
                                "type": "bool",
                                "value": true
                            },
                            {
                                "name": "amountSpecified",
                                "type": "int256",
                                "value": "44,528,151,574,401,435,059,302"
                            },
                            {
                                "name": "sqrtPriceLimitX96",
                                "type": "uint160",
                                "value": "1,654,437,776,338,072,828,692,846,289"
                            },
                            {
                                "name": "data",
                                "type": "bytes",
                                "value": "0xf5b1c651e810f039b65f27d103bbe8bbb5672b8fe942a836d76f861826096e5d000000000000000000000000a69babef1ca67a37ffaf7a485dfff3382056e78c0000000000000000000000006b175474e89094c44da98b954eedeac495271d0f"
                            }
                        ],
                        "constructorArguments": "",
                        "name": "swap",
                        "returnParams": [
                            {
                                "name": "amount0",
                                "type": "int256",
                                "value": "44,528,151,574,401,435,059,302"
                            },
                            {
                                "name": "amount1",
                                "type": "int256",
                                "value": "-19,580,594,354,972,799,706"
                            }
                        ],
                        "signature": "swap(address,bool,int256,uint160,bytes)"
                    },
                    "errorInfo": "",
                    "fromAddress": "0xa69babef1ca67a37ffaf7a485dfff3382056e78c",
                    "gasUsed": 115951,
                    "id": 2,
                    "methodDecoded": true,
                    "operation": "CALL",
                    "output": "0x00000000000000000000000000000000000000000000096de03d30a8f4544466fffffffffffffffffffffffffffffffffffffffffffffffef043c12d34d3cd26",
                    "revert": false,
                    "revertMessage": "",
                    "selector": "0x128acb08",
                    "status": true,
                    "value": "0"
                },
                "nodeType": 0
            },
            "3": {
                "invocation": {
                    "address": "0xc02aaa39b223fe8d0a0e5c4f27ead9083c756cc2",
                    "callData": "0x000000000000000000000000a69babef1ca67a37ffaf7a485dfff3382056e78c0000000000000000000000000000000000000000000000010fbc3ed2cb2c32da",
                    "decodedMethod": {
                        "callParams": [
                            {
                                "name": "dst",
                                "type": "address",
                                "value": "0xa69babef1ca67a37ffaf7a485dfff3382056e78c"
                            },
                            {
                                "decimalAvailable": true,
                                "name": "wad",
                                "type": "uint256",
                                "value": "19,580,594,354,972,799,706"
                            }
                        ],
                        "constructorArguments": "",
                        "name": "transfer",
                        "returnParams": [
                            {
                                "name": "",
                                "type": "bool",
                                "value": true
                            }
                        ],
                        "signature": "transfer(address,uint256)"
                    },
                    "errorInfo": "",
                    "fromAddress": "0xc2e9f25be6257c210d7adf0d4cd6e3e881ba25f8",
                    "gasUsed": 8862,
                    "id": 3,
                    "methodDecoded": true,
                    "operation": "CALL",
                    "output": "0x0000000000000000000000000000000000000000000000000000000000000001",
                    "revert": false,
                    "revertMessage": "",
                    "selector": "0xa9059cbb",
                    "status": true,
                    "value": "0"
                },
                "nodeType": 0
            },
            "4": {
                "event": {
                    "contract": "0xc02aaa39b223fe8d0a0e5c4f27ead9083c756cc2",
                    "decodedLog": {
                        "name": "Transfer",
                        "params": [
                            {
                                "name": "src",
                                "type": "address",
                                "value": "0xc2e9f25be6257c210d7adf0d4cd6e3e881ba25f8"
                            },
                            {
                                "name": "dst",
                                "type": "address",
                                "value": "0xa69babef1ca67a37ffaf7a485dfff3382056e78c"
                            },
                            {
                                "decimalAvailable": true,
                                "name": "wad",
                                "type": "uint256",
                                "value": "19,580,594,354,972,799,706"
                            }
                        ],
                        "signature": "Transfer(address,address,uint256)"
                    },
                    "id": 4,
                    "logData": "0x0000000000000000000000000000000000000000000000010fbc3ed2cb2c32da",
                    "logDecoded": true,
                    "operation": "EVENT",
                    "revert": false,
                    "status": true,
                    "topics": [
                        "0xddf252ad1be2c89b69c2b068fc378daa952ba7f163c4a11628f55a4df523b3ef",
                        "0x000000000000000000000000c2e9f25be6257c210d7adf0d4cd6e3e881ba25f8",
                        "0x000000000000000000000000a69babef1ca67a37ffaf7a485dfff3382056e78c"
                    ]
                },
                "nodeType": 1
            },
            "5": {
                "invocation": {
                    "address": "0x6b175474e89094c44da98b954eedeac495271d0f",
                    "callData": "0x000000000000000000000000c2e9f25be6257c210d7adf0d4cd6e3e881ba25f8",
                    "decodedMethod": {
                        "callParams": [
                            {
                                "name": "",
                                "type": "address",
                                "value": "0xc2e9f25be6257c210d7adf0d4cd6e3e881ba25f8"
                            }
                        ],
                        "constructorArguments": "",
                        "name": "balanceOf",
                        "returnParams": [
                            {
                                "decimalAvailable": true,
                                "name": "",
                                "type": "uint256",
                                "value": "1,085,081,894,822,391,326,024,875"
                            }
                        ],
                        "signature": "balanceOf(address)"
                    },
                    "errorInfo": "",
                    "fromAddress": "0xc2e9f25be6257c210d7adf0d4cd6e3e881ba25f8",
                    "gasUsed": 602,
                    "id": 5,
                    "methodDecoded": true,
                    "operation": "STATICCALL",
                    "output": "0x00000000000000000000000000000000000000000000e5c6684a5ab1d6d1a4ab",
                    "revert": false,
                    "revertMessage": "",
                    "selector": "0x70a08231",
                    "status": true,
                    "value": "0"
                },
                "nodeType": 0
            },
            "6": {
                "invocation": {
                    "address": "0xa69babef1ca67a37ffaf7a485dfff3382056e78c",
                    "callData": "0x00000000000000000000000000000000000000000000096de03d30a8f4544466fffffffffffffffffffffffffffffffffffffffffffffffef043c12d34d3cd2600000000000000000000000000000000000000000000000000000000000000600000000000000000000000000000000000000000000000000000000000000060f5b1c651e810f039b65f27d103bbe8bbb5672b8fe942a836d76f861826096e5d000000000000000000000000a69babef1ca67a37ffaf7a485dfff3382056e78c0000000000000000000000006b175474e89094c44da98b954eedeac495271d0f",
                    "decodedMethod": {
                        "callParams": [
                            {
                                "name": "amount0Delta",
                                "type": "int256",
                                "value": "44,528,151,574,401,435,059,302"
                            },
                            {
                                "name": "amount1Delta",
                                "type": "int256",
                                "value": "-19,580,594,354,972,799,706"
                            },
                            {
                                "name": "data",
                                "type": "bytes",
                                "value": "0xf5b1c651e810f039b65f27d103bbe8bbb5672b8fe942a836d76f861826096e5d000000000000000000000000a69babef1ca67a37ffaf7a485dfff3382056e78c0000000000000000000000006b175474e89094c44da98b954eedeac495271d0f"
                            }
                        ],
                        "constructorArguments": "",
                        "name": "uniswapV3SwapCallback",
                        "returnParams": [],
                        "signature": "uniswapV3SwapCallback(int256,int256,bytes)"
                    },
                    "errorInfo": "",
                    "fromAddress": "0xc2e9f25be6257c210d7adf0d4cd6e3e881ba25f8",
                    "gasUsed": 9664,
                    "id": 6,
                    "methodDecoded": true,
                    "operation": "CALL",
                    "output": "",
                    "revert": false,
                    "revertMessage": "",
                    "selector": "0xfa461e33",
                    "status": true,
                    "value": "0"
                },
                "nodeType": 0
            },
            "7": {
                "invocation": {
                    "address": "0x6b175474e89094c44da98b954eedeac495271d0f",
                    "callData": "0x000000000000000000000000c2e9f25be6257c210d7adf0d4cd6e3e881ba25f800000000000000000000000000000000000000000000096de03d30a8f4544466",
                    "decodedMethod": {
                        "callParams": [
                            {
                                "name": "dst",
                                "type": "address",
                                "value": "0xc2e9f25be6257c210d7adf0d4cd6e3e881ba25f8"
                            },
                            {
                                "decimalAvailable": true,
                                "name": "wad",
                                "type": "uint256",
                                "value": "44,528,151,574,401,435,059,302"
                            }
                        ],
                        "constructorArguments": "",
                        "name": "transfer",
                        "returnParams": [
                            {
                                "name": "",
                                "type": "bool",
                                "value": true
                            }
                        ],
                        "signature": "transfer(address,uint256)"
                    },
                    "errorInfo": "",
                    "fromAddress": "0xa69babef1ca67a37ffaf7a485dfff3382056e78c",
                    "gasUsed": 9074,
                    "id": 7,
                    "methodDecoded": true,
                    "operation": "CALL",
                    "output": "0x0000000000000000000000000000000000000000000000000000000000000001",
                    "revert": false,
                    "revertMessage": "",
                    "selector": "0xa9059cbb",
                    "status": true,
                    "value": "0"
                },
                "nodeType": 0
            },
            "8": {
                "event": {
                    "contract": "0x6b175474e89094c44da98b954eedeac495271d0f",
                    "decodedLog": {
                        "name": "Transfer",
                        "params": [
                            {
                                "name": "src",
                                "type": "address",
                                "value": "0xa69babef1ca67a37ffaf7a485dfff3382056e78c"
                            },
                            {
                                "name": "dst",
                                "type": "address",
                                "value": "0xc2e9f25be6257c210d7adf0d4cd6e3e881ba25f8"
                            },
                            {
                                "decimalAvailable": true,
                                "name": "wad",
                                "type": "uint256",
                                "value": "44,528,151,574,401,435,059,302"
                            }
                        ],
                        "signature": "Transfer(address,address,uint256)"
                    },
                    "id": 8,
                    "logData": "0x00000000000000000000000000000000000000000000096de03d30a8f4544466",
                    "logDecoded": true,
                    "operation": "EVENT",
                    "revert": false,
                    "status": true,
                    "topics": [
                        "0xddf252ad1be2c89b69c2b068fc378daa952ba7f163c4a11628f55a4df523b3ef",
                        "0x000000000000000000000000a69babef1ca67a37ffaf7a485dfff3382056e78c",
                        "0x000000000000000000000000c2e9f25be6257c210d7adf0d4cd6e3e881ba25f8"
                    ]
                },
                "nodeType": 1
            },
            "9": {
                "invocation": {
                    "address": "0x6b175474e89094c44da98b954eedeac495271d0f",
                    "callData": "0x000000000000000000000000c2e9f25be6257c210d7adf0d4cd6e3e881ba25f8",
                    "decodedMethod": {
                        "callParams": [
                            {
                                "name": "",
                                "type": "address",
                                "value": "0xc2e9f25be6257c210d7adf0d4cd6e3e881ba25f8"
                            }
                        ],
                        "constructorArguments": "",
                        "name": "balanceOf",
                        "returnParams": [
                            {
                                "decimalAvailable": true,
                                "name": "",
                                "type": "uint256",
                                "value": "1,129,610,046,396,792,761,084,177"
                            }
                        ],
                        "signature": "balanceOf(address)"
                    },
                    "errorInfo": "",
                    "fromAddress": "0xc2e9f25be6257c210d7adf0d4cd6e3e881ba25f8",
                    "gasUsed": 602,
                    "id": 9,
                    "methodDecoded": true,
                    "operation": "STATICCALL",
                    "output": "0x00000000000000000000000000000000000000000000ef3448878b5acb25e911",
                    "revert": false,
                    "revertMessage": "",
                    "selector": "0x70a08231",
                    "status": true,
                    "value": "0"
                },
                "nodeType": 0
            }
        },
        "gasFlame": [
            {
                "children": [
                    {
                        "children": [
                            {
                                "children": [],
                                "depth": 0,
                                "name": "Initial Gas",
                                "value": 84084
                            },
                            {
                                "children": [
                                    {
                                        "children": [
                                            {
                                                "children": [
                                                    {
                                                        "children": [],
                                                        "depth": 3,
                                                        "name": "transfer",
                                                        "value": 8862
                                                    },
                                                    {
                                                        "children": [],
                                                        "depth": 3,
                                                        "name": "balanceOf",
                                                        "value": 602
                                                    },
                                                    {
                                                        "children": [
                                                            {
                                                                "children": [],
                                                                "depth": 4,
                                                                "name": "transfer",
                                                                "value": 9074
                                                            }
                                                        ],
                                                        "depth": 3,
                                                        "name": "uniswapV3SwapCallback",
                                                        "value": 9664
                                                    },
                                                    {
                                                        "children": [],
                                                        "depth": 3,
                                                        "name": "balanceOf",
                                                        "value": 602
                                                    }
                                                ],
                                                "depth": 2,
                                                "name": "swap",
                                                "value": 115951
                                            },
                                            {
                                                "children": [],
                                                "depth": 2,
                                                "name": "fallback",
                                                "value": 0
                                            }
                                        ],
                                        "depth": 1,
                                        "name": "0xf4ff5295",
                                        "value": 124181
                                    }
                                ],
                                "depth": 0,
                                "name": "Executed Gas",
                                "value": 126023
                            }
                        ],
                        "depth": -1,
                        "name": "Actual Gas Used",
                        "value": 210107
                    },
                    {
                        "children": [],
                        "depth": -1,
                        "name": "Refunded Gas",
                        "value": 0
                    }
                ],
                "depth": -2,
                "name": "Total Gas",
                "value": 210107
            }
        ],
        "isConfirmed": true,
        "mainTrace": [
            {
                "children": [
                    {
                        "children": [
                            {
                                "children": [
                                    {
                                        "children": [
                                            {
                                                "children": [
                                                    {
                                                        "children": [],
                                                        "depth": 4,
                                                        "id": 4,
                                                        "order": 4
                                                    }
                                                ],
                                                "depth": 3,
                                                "id": 3,
                                                "order": 3
                                            },
                                            {
                                                "children": [],
                                                "depth": 3,
                                                "id": 5,
                                                "order": 5
                                            },
                                            {
                                                "children": [
                                                    {
                                                        "children": [
                                                            {
                                                                "children": [],
                                                                "depth": 5,
                                                                "id": 8,
                                                                "order": 8
                                                            }
                                                        ],
                                                        "depth": 4,
                                                        "id": 7,
                                                        "order": 7
                                                    }
                                                ],
                                                "depth": 3,
                                                "id": 6,
                                                "order": 6
                                            },
                                            {
                                                "children": [],
                                                "depth": 3,
                                                "id": 9,
                                                "order": 9
                                            },
                                            {
                                                "children": [],
                                                "depth": 3,
                                                "id": 10,
                                                "order": 10
                                            }
                                        ],
                                        "depth": 2,
                                        "id": 2,
                                        "order": 2
                                    },
                                    {
                                        "children": [],
                                        "depth": 2,
                                        "id": 11,
                                        "order": 11
                                    }
                                ],
                                "depth": 1,
                                "id": 1,
                                "order": 1
                            }
                        ],
                        "depth": 0,
                        "id": 0,
                        "order": 0
                    }
                ],
                "depth": -1,
                "id": -1,
                "order": -1
            }
        ],
        "mainTraceNodeCount": 12,
        "parentIdMap": {
            "0": -1,
            "1": 0,
            "10": 2,
            "11": 1,
            "2": 1,
            "3": 2,
            "4": 3,
            "5": 2,
            "6": 2,
            "7": 6,
            "8": 7,
            "9": 2
        },
        "tidyTrace": [
            {
                "children": [
                    {
                        "children": [
                            {
                                "children": [
                                    {
                                        "children": [
                                            {
                                                "children": [
                                                    {
                                                        "children": [],
                                                        "depth": 4,
                                                        "id": 4,
                                                        "order": 4
                                                    }
                                                ],
                                                "depth": 3,
                                                "id": 3,
                                                "order": 3
                                            },
                                            {
                                                "children": [
                                                    {
                                                        "children": [
                                                            {
                                                                "children": [],
                                                                "depth": 5,
                                                                "id": 8,
                                                                "order": 8
                                                            }
                                                        ],
                                                        "depth": 4,
                                                        "id": 7,
                                                        "order": 7
                                                    }
                                                ],
                                                "depth": 3,
                                                "id": 6,
                                                "order": 6
                                            },
                                            {
                                                "children": [],
                                                "depth": 3,
                                                "id": 10,
                                                "order": 10
                                            }
                                        ],
                                        "depth": 2,
                                        "id": 2,
                                        "order": 2
                                    },
                                    {
                                        "children": [],
                                        "depth": 2,
                                        "id": 11,
                                        "order": 11
                                    }
                                ],
                                "depth": 1,
                                "id": 1,
                                "order": 1
                            }
                        ],
                        "depth": 0,
                        "id": 0,
                        "order": 0
                    }
                ],
                "depth": -1,
                "id": -1,
                "order": -1
            }
        ],
        "tidyTraceNodeCount": 10
    },
    "state_change": {
        "stateChanges": [
            {
                "address": "0x6b175474e89094c44da98b954eedeac495271d0f",
                "erc": "ERC-20",
                "slots": [
                    {
                        "current": "0x000000000000000000000000000000000000000000006a0385933eba6dc215ec",
                        "key": "0x35d7fb7665514f774d2c2df607e197eb8674b6e63d2638472758647a2e67406a",
                        "prev": "0x00000000000000000000000000000000000000000000737165d06f6362165a52"
                    },
                    {
                        "current": "0x00000000000000000000000000000000000000000000ef3448878b5acb25e911",
                        "key": "0xa86dca0c2118896f32884b63fb81cb854ac629c03a3d6524f5fdaf952fa71572",
                        "prev": "0x00000000000000000000000000000000000000000000e5c6684a5ab1d6d1a4ab"
                    }
                ],
                "storageVariables": [
                    {
                        "name": "balanceOf",
                        "type": "mapping(address => uint256)",
                        "value": {
                            "pairs": [
                                {
                                    "key": "0xa69babef1ca67a37ffaf7a485dfff3382056e78c",
                                    "value": {
                                        "current": "500635812522202568463852",
                                        "prev": "545163964096604003523154",
                                        "typeTag": 1
                                    }
                                },
                                {
                                    "key": "0xc2e9f25be6257c210d7adf0d4cd6e3e881ba25f8",
                                    "value": {
                                        "current": "1129610046396792761084177",
                                        "prev": "1085081894822391326024875",
                                        "typeTag": 1
                                    }
                                }
                            ],
                            "typeTag": 4
                        }
                    }
                ]
            },
            {
                "address": "0xc02aaa39b223fe8d0a0e5c4f27ead9083c756cc2",
                "erc": "ERC-20",
                "slots": [
                    {
                        "current": "0x0000000000000000000000000000000000000000000000bbb327e79863d557da",
                        "key": "0x75245230289a9f0bf73a6c59aef6651b98b3833a62a3c0bd9ab6b0dec8ed4d8f",
                        "prev": "0x0000000000000000000000000000000000000000000000baa36ba8c598a92500"
                    },
                    {
                        "current": "0x000000000000000000000000000000000000000000000156df25589d53b80178",
                        "key": "0x6c52eb800e1abc5168a85f62ebf13fdcd434d9fcf72b6427862991d5a1d93259",
                        "prev": "0x000000000000000000000000000000000000000000000157eee197701ee43452"
                    }
                ],
                "storageVariables": [
                    {
                        "name": "balanceOf",
                        "type": "mapping(address => uint256)",
                        "value": {
                            "pairs": [
                                {
                                    "key": "0xa69babef1ca67a37ffaf7a485dfff3382056e78c",
                                    "value": {
                                        "current": "3462450683282262939610",
                                        "prev": "3442870088927290139904",
                                        "typeTag": 1
                                    }
                                },
                                {
                                    "key": "0xc2e9f25be6257c210d7adf0d4cd6e3e881ba25f8",
                                    "value": {
                                        "current": "6324865828686000554360",
                                        "prev": "6344446423040973354066",
                                        "typeTag": 1
                                    }
                                }
                            ],
                            "typeTag": 4
                        }
                    }
                ]
            },
            {
                "address": "0xc2e9f25be6257c210d7adf0d4cd6e3e881ba25f8",
                "erc": "",
                "slots": [
                    {
                        "current": "0x00000000000000000000000000000000000000000000116be6a765b8c2519355",
                        "key": "0x0000000000000000000000000000000000000000000000000000000000000004",
                        "prev": "0x0000000000000000000000000000000000000000000011af6f8eca5408b00ec4"
                    },
                    {
                        "current": "0x0102c7ec6700000000000000000000030281a8431311b633cafffcdb1af8271d",
                        "key": "0x720611f70d2839d49dd4b1f9008bc0c8599da78335c4e84bcb332a03b906c245",
                        "prev": "0x0163e847c8000000000000000000000e41f9a4259b0439f975fffbf05fd291d6"
                    },
                    {
                        "current": "0x0000000000000000000000000000000a7434333dd801b151edcfb00bb34f3a6b",
                        "key": "0x0000000000000000000000000000000000000000000000000000000000000001",
                        "prev": "0x0000000000000000000000000000000a73ca347e6b9d0f5ff2116b1d81e71db3"
                    },
                    {
                        "current": "0x00010005dc05dc0379fed1bb0000000000000000055893c95df8ac03a9843bce",
                        "key": "0x0000000000000000000000000000000000000000000000000000000000000000",
                        "prev": "0x00010005dc05dc0378fed29d000000000000000005681d04821aa817526119b1"
                    },
                    {
                        "current": "0x00000000000000000000000000000003e567d19d8a02af280039d0f4b0e9abcc",
                        "key": "0xc40e3358105815415c51aae45eb6b9f568baffcc8747bc23eef98a025d756014",
                        "prev": "0x000000000000000000000000000000068e64e1ca823a4d5c8e2510d635a13fe8"
                    },
                    {
                        "current": "0x000000000000000000000000000000000062f564236850ffb4777d943d127788",
                        "key": "0x720611f70d2839d49dd4b1f9008bc0c8599da78335c4e84bcb332a03b906c244",
                        "prev": "0x0000000000000000000000000000000000d47942bc4ee99820eb98e5017fadb7"
                    },
                    {
                        "current": "0x0000000000000000000000000000000000b06b53bd0beb37db7c9725eb8bfe3c",
                        "key": "0xfee3245e2c1c9b7760f82f3ca09b133e8493299737d551b7edab3caca06d23b2",
                        "prev": "0x000000000000000000000000000000000087035322ab4f5ff9e67f5353062703"
                    },
                    {
                        "current": "0x000000000000000000000000000000043013ee66fea332dc7d750d9e3d75ed71",
                        "key": "0xfee3245e2c1c9b7760f82f3ca09b133e8493299737d551b7edab3caca06d23b1",
                        "prev": "0x0000000000000000000000000000000643d4d44305b9f4c7fa8e0caf4f689d31"
                    },
                    {
                        "current": "0x000000000000000000000000000000026ab0ca67bd60c417734366af31cf5148",
                        "key": "0x720611f70d2839d49dd4b1f9008bc0c8599da78335c4e84bcb332a03b906c243",
                        "prev": "0x00000000000000000000000000000008097057950f5e73df0a8022485b105392"
                    },
                    {
                        "current": "0x00000000000000000000000000000003f813db59455ebdedc10afed7599affff",
                        "key": "0x846c225e5e000a667498eabfce3dac6e6dfb5bcbbbe2064ba6e123d3dd048d59",
                        "prev": "0x000000000000000000000000000000067bf10c2776c667750b7a66fd98572258"
                    },
                    {
                        "current": "0x01033d82a00000000000000000000003a36f8812db6d98dff1fffc56725e4d01",
                        "key": "0xfee3245e2c1c9b7760f82f3ca09b133e8493299737d551b7edab3caca06d23b3",
                        "prev": "0x016372b18f000000000000000000000da10bc455d2a8574d4efffc75086c6bf2"
                    },
                    {
                        "current": "0x010000000000000000000011447b4c68ae15f02d3ffff8cb7acab8f366b0342f",
                        "key": "0x0000000000000000000000000000000000000000000000000000000000000381",
                        "prev": "0x010000000000000000000011342574706afe52560cfff8d557070f9b66a82a47"
                    },
                    {
                        "current": "0x01034207e70000000000000000000003a256fa162a35c96f34fffc51186f0394",
                        "key": "0x846c225e5e000a667498eabfce3dac6e6dfb5bcbbbe2064ba6e123d3dd048d5b",
                        "prev": "0x01636e2c48000000000000000000000da224525283e026be0bfffc7a625bb55f"
                    },
                    {
                        "current": "0x0000000000000000000000000000000000a933422550093412874610e7f06f23",
                        "key": "0x846c225e5e000a667498eabfce3dac6e6dfb5bcbbbe2064ba6e123d3dd048d5a",
                        "prev": "0x00000000000000000000000000000000008e3b64ba673163c2dbd06856a1b61c"
                    },
                    {
                        "current": "0x0000000000000000000000000000000000a71512c462808363e213a2340e8f24",
                        "key": "0xc40e3358105815415c51aae45eb6b9f568baffcc8747bc23eef98a025d756015",
                        "prev": "0x00000000000000000000000000000000009059941b54ba14718102d70a83961b"
                    },
                    {
                        "current": "0x010334f49100000000000000000000039a13cb2c76ea82f9b1fffc6080813785",
                        "key": "0xc40e3358105815415c51aae45eb6b9f568baffcc8747bc23eef98a025d756016",
                        "prev": "0x01637b3f9e000000000000000000000daa67813c372b6d338efffc6afa49816e"
                    }
                ],
                "storageVariables": [
                    {
                        "name": "ticks",
                        "type": "mapping(int24 => struct Tick.Info)",
                        "value": {
                            "pairs": [
                                {
                                    "key": "-77160",
                                    "value": {
                                        "fields": [
                                            {
                                                "name": "feeGrowthOutside0X128",
                                                "type": "uint256",
                                                "value": {
                                                    "current": "1325779369879131066828459275085027060684",
                                                    "prev": "2230968386199495501306557633420805095400",
                                                    "typeTag": 1
                                                }
                                            },
                                            {
                                                "name": "feeGrowthOutside1X128",
                                                "type": "uint256",
                                                "value": {
                                                    "current": "867540992862061697738057304635248420",
                                                    "prev": "749507616310316059601549076621137435",
                                                    "typeTag": 1
                                                }
                                            },
                                            {
                                                "name": "tickCumulativeOutside",
                                                "type": "int56",
                                                "value": {
                                                    "current": "-3983573698683",
                                                    "prev": "-3938580856466",
                                                    "typeTag": 1
                                                }
                                            },
                                            {
                                                "name": "secondsPerLiquidityOutsideX128",
                                                "type": "uint160",
                                                "value": {
                                                    "current": "17009324318556451699121",
                                                    "prev": "64534169078501563249550",
                                                    "typeTag": 1
                                                }
                                            },
                                            {
                                                "name": "secondsOutside",
                                                "type": "uint32",
                                                "value": {
                                                    "current": "53802129",
                                                    "prev": "1669021598",
                                                    "typeTag": 1
                                                }
                                            },
                                            {
                                                "name": "initialized",
                                                "type": "bool",
                                                "value": {
                                                    "current": "true",
                                                    "prev": "true",
                                                    "typeTag": 1
                                                }
                                            }
                                        ],
                                        "typeTag": 3
                                    }
                                },
                                {
                                    "key": "-77220",
                                    "value": {
                                        "fields": [
                                            {
                                                "name": "feeGrowthOutside0X128",
                                                "type": "uint256",
                                                "value": {
                                                    "current": "1425035900495306710619213400548310379889",
                                                    "prev": "2131857549358124622604005382941747748145",
                                                    "typeTag": 1
                                                }
                                            },
                                            {
                                                "name": "feeGrowthOutside1X128",
                                                "type": "uint256",
                                                "value": {
                                                    "current": "916021099374284902056809485073907260",
                                                    "prev": "701027509798092855282796896182478595",
                                                    "typeTag": 1
                                                }
                                            },
                                            {
                                                "name": "tickCumulativeOutside",
                                                "type": "int56",
                                                "value": {
                                                    "current": "-4026760540927",
                                                    "prev": "-3895394014222",
                                                    "typeTag": 1
                                                }
                                            },
                                            {
                                                "name": "secondsPerLiquidityOutsideX128",
                                                "type": "uint160",
                                                "value": {
                                                    "current": "17181955426892281077745",
                                                    "prev": "64361537970165733870926",
                                                    "typeTag": 1
                                                }
                                            },
                                            {
                                                "name": "secondsOutside",
                                                "type": "uint32",
                                                "value": {
                                                    "current": "54362784",
                                                    "prev": "1668460943",
                                                    "typeTag": 1
                                                }
                                            },
                                            {
                                                "name": "initialized",
                                                "type": "bool",
                                                "value": {
                                                    "current": "true",
                                                    "prev": "true",
                                                    "typeTag": 1
                                                }
                                            }
                                        ],
                                        "typeTag": 3
                                    }
                                },
                                {
                                    "key": "-77280",
                                    "value": {
                                        "fields": [
                                            {
                                                "name": "feeGrowthOutside0X128",
                                                "type": "uint256",
                                                "value": {
                                                    "current": "1350598746278265353698329346265031835647",
                                                    "prev": "2206440835065654995516292309740198240856",
                                                    "typeTag": 1
                                                }
                                            },
                                            {
                                                "name": "feeGrowthOutside1X128",
                                                "type": "uint256",
                                                "value": {
                                                    "current": "878537812588600936682644752814862115",
                                                    "prev": "738510796583776820656961628441523740",
                                                    "typeTag": 1
                                                }
                                            },
                                            {
                                                "name": "tickCumulativeOutside",
                                                "type": "int56",
                                                "value": {
                                                    "current": "-4049744231532",
                                                    "prev": "-3872410323617",
                                                    "typeTag": 1
                                                }
                                            },
                                            {
                                                "name": "secondsPerLiquidityOutsideX128",
                                                "type": "uint160",
                                                "value": {
                                                    "current": "17161739334751869300532",
                                                    "prev": "64381754062306145648139",
                                                    "typeTag": 1
                                                }
                                            },
                                            {
                                                "name": "secondsOutside",
                                                "type": "uint32",
                                                "value": {
                                                    "current": "54659047",
                                                    "prev": "1668164680",
                                                    "typeTag": 1
                                                }
                                            },
                                            {
                                                "name": "initialized",
                                                "type": "bool",
                                                "value": {
                                                    "current": "true",
                                                    "prev": "true",
                                                    "typeTag": 1
                                                }
                                            }
                                        ],
                                        "typeTag": 3
                                    }
                                },
                                {
                                    "key": "-77340",
                                    "value": {
                                        "fields": [
                                            {
                                                "name": "feeGrowthOutside0X128",
                                                "type": "uint256",
                                                "value": {
                                                    "current": "822380850908030465475155113662961635656",
                                                    "prev": "2734805300957116044939129775485734638482",
                                                    "typeTag": 1
                                                }
                                            },
                                            {
                                                "name": "feeGrowthOutside1X128",
                                                "type": "uint256",
                                                "value": {
                                                    "current": "513822216263645328512982803002062728",
                                                    "prev": "1103226392908732428826623578254323127",
                                                    "typeTag": 1
                                                }
                                            },
                                            {
                                                "name": "tickCumulativeOutside",
                                                "type": "int56",
                                                "value": {
                                                    "current": "-3456996202723",
                                                    "prev": "-4465158352426",
                                                    "typeTag": 1
                                                }
                                            },
                                            {
                                                "name": "secondsPerLiquidityOutsideX128",
                                                "type": "uint160",
                                                "value": {
                                                    "current": "14213335727932515431370",
                                                    "prev": "67330157669125499517301",
                                                    "typeTag": 1
                                                }
                                            },
                                            {
                                                "name": "secondsOutside",
                                                "type": "uint32",
                                                "value": {
                                                    "current": "46656615",
                                                    "prev": "1676167112",
                                                    "typeTag": 1
                                                }
                                            },
                                            {
                                                "name": "initialized",
                                                "type": "bool",
                                                "value": {
                                                    "current": "true",
                                                    "prev": "true",
                                                    "typeTag": 1
                                                }
                                            }
                                        ],
                                        "typeTag": 3
                                    }
                                }
                            ],
                            "typeTag": 4
                        }
                    },
                    {
                        "name": "slot0",
                        "type": "struct UniswapV3Pool.Slot0",
                        "value": {
                            "fields": [
                                {
                                    "name": "sqrtPriceX96",
                                    "type": "uint160",
                                    "value": {
                                        "current": "1654508423672704535944772558",
                                        "prev": "1673290366136616684787669425",
                                        "typeTag": 1
                                    }
                                },
                                {
                                    "name": "tick",
                                    "type": "int24",
                                    "value": {
                                        "current": "-77381",
                                        "prev": "-77155",
                                        "typeTag": 1
                                    }
                                },
                                {
                                    "name": "observationIndex",
                                    "type": "uint16",
                                    "value": {
                                        "current": "889",
                                        "prev": "888",
                                        "typeTag": 1
                                    }
                                },
                                {
                                    "name": "observationCardinality",
                                    "type": "uint16",
                                    "value": {
                                        "current": "1500",
                                        "prev": "1500",
                                        "typeTag": 1
                                    }
                                },
                                {
                                    "name": "observationCardinalityNext",
                                    "type": "uint16",
                                    "value": {
                                        "current": "1500",
                                        "prev": "1500",
                                        "typeTag": 1
                                    }
                                },
                                {
                                    "name": "feeProtocol",
                                    "type": "uint8",
                                    "value": {
                                        "current": "0",
                                        "prev": "0",
                                        "typeTag": 1
                                    }
                                },
                                {
                                    "name": "unlocked",
                                    "type": "bool",
                                    "value": {
                                        "current": "true",
                                        "prev": "true",
                                        "typeTag": 1
                                    }
                                }
                            ],
                            "typeTag": 3
                        }
                    },
                    {
                        "name": "feeGrowthGlobal0X128",
                        "type": "uint256",
                        "value": {
                            "current": "3557285155459737194950007489678189476459",
                            "prev": "3556734797391426631892759818339355139507",
                            "typeTag": 1
                        }
                    },
                    {
                        "name": "liquidity",
                        "type": "uint128",
                        "value": {
                            "current": "82270652189464933274453",
                            "prev": "83516449006530314899140",
                            "typeTag": 1
                        }
                    }
                ]
            }
        ]
    }
}