{
    "balance_change": {
        "balanceChanges": []
    },
    "profile": {
        "basic_info": {
            "baseFee": "13.09529318",
            "blockNumber": 19973862,
            "callData": "0xd8de85030301147e266828821d1506858fc6617d1a85a3bdcb8d89ba19e75069f42534cf0000000000000000000000000000000000000000000000000000000000001c1cf13855da8b9e1881c3affc65f68e2726b8db9445a7087f2f72ecf5bda1f086a96bc854b5d62fc257df1c01df51e5447453dbe7257faac04b925a61b345d3d35c2c6794308e5189c94362e84d4d2afd419c51c85c38e0852bedeb0c9d1cc6d6e00bbb16b88ea6978bee9f2ffc048f09942ac0fa73b6af758e6ccebbefacc951ba",
            "debugEnable": true,
            "errorInfo": "",
            "eventCount": 1,
            "feeRecipient": "0xdf99a0839818b3f120ebac9b73f82b617dc6a555",
            "formatValue": "0",
            "gasLimit": 59410,
            "gasPrice": "14.09529318",
            "gasUsed": 58595,
            "intTxnCount": 2,
            "internalRevert": false,
            "internalRevertMessage": "",
            "isContractCreation": false,
            "isFlashloan": false,
            "maxFee": "26.752635936",
            "nonce": 49074,
            "overwritedBlockNumber": -1,
            "priorityFee": "1",
            "receiver": "0x203e8785b4d4312c4152d0c42ba3fa8bd79086da",
            "revertMessage": "",
            "sender": "0x7234db900e907398edfada744d5bf8a842b335ba",
            "simulationEnable": true,
            "sourceTxnHash": "0xae738d0ea56f7eb2a79d7bcb9c6fe738b9b3d6a0d1d65651108a33a8ad91f021",
            "status": true,
            "timestamp": "2024-05-29T06:55:11Z",
            "transactionFee": "0.0008259137038821",
            "txnHash": "0xae738d0ea56f7eb2a79d7bcb9c6fe738b9b3d6a0d1d65651108a33a8ad91f021",
            "txnIndex": 57,
            "type": 2,
            "value": "0"
        },
        "fund_flow": [],
        "token_infos": [
            {
                "address": "0xeeeeeeeeeeeeeeeeeeeeeeeeeeeeeeeeeeeeeeee",
                "decimals": 18
            },
            {
                "address": "0xc02aaa39b223fe8d0a0e5c4f27ead9083c756cc2",
                "decimals": 18
            }
        ]
    },
    "address_label": {
        "labels": [
            {
                "address": "0xeeeeeeeeeeeeeeeeeeeeeeeeeeeeeeeeeeeeeeee",
                "label": "Ether"
            },
            {
                "address": "0x203e8785b4d4312c4152d0c42ba3fa8bd79086da",
                "label": "Messenger"
            },
            {
                "address": "0x0000000000000000000000000000000000000001",
                "label": "Precompiled"
            },
            {
                "address": "0x0000000000000000000000000000000000000002",
                "label": "Precompiled"
            },
            {
                "address": "0x0000000000000000000000000000000000000003",
                "label": "Precompiled"
            },
            {
                "address": "0x0000000000000000000000000000000000000004",
                "label": "Precompiled"
            }
        ]
    },
    "trace": {
        "accountLabels": null,
        "dataMap": {
            "-1": {
                "invocation": {
                    "address": "0x7234db900e907398edfada744d5bf8a842b335ba",
                    "callData": "",
                    "decodedMethod": null,
                    "errorInfo": "",
                    "fromAddress": "",
                    "gasUsed": 0,
                    "id": -1,
                    "methodDecoded": false,
                    "operation": "",
                    "output": "",
                    "revert": false,
                    "revertMessage": "",
                    "selector": "",
                    "status": false,
                    "value": ""
                },
                "nodeType": 0
            },
            "0": {
                "invocation": {
                    "address": "0x203e8785b4d4312c4152d0c42ba3fa8bd79086da",
                    "callData": "0x0301147e266828821d1506858fc6617d1a85a3bdcb8d89ba19e75069f42534cf0000000000000000000000000000000000000000000000000000000000001c1cf13855da8b9e1881c3affc65f68e2726b8db9445a7087f2f72ecf5bda1f086a96bc854b5d62fc257df1c01df51e5447453dbe7257faac04b925a61b345d3d35c2c6794308e5189c94362e84d4d2afd419c51c85c38e0852bedeb0c9d1cc6d6e00bbb16b88ea6978bee9f2ffc048f09942ac0fa73b6af758e6ccebbefacc951ba",
                    "decodedMethod": {
                        "callParams": [
                            {
                                "name": "message",
                                "type": "bytes32",
                                "value": "0x0301147e266828821d1506858fc6617d1a85a3bdcb8d89ba19e75069f42534cf"
                            },
                            {
                                "name": "v1v2",
                                "type": "uint256",
                                "value": "7,196"
                            },
                            {
                                "name": "r1",
                                "type": "bytes32",
                                "value": "0xf13855da8b9e1881c3affc65f68e2726b8db9445a7087f2f72ecf5bda1f086a9"
                            },
                            {
                                "name": "s1",
                                "type": "bytes32",
                                "value": "0x6bc854b5d62fc257df1c01df51e5447453dbe7257faac04b925a61b345d3d35c"
                            },
                            {
                                "name": "r2",
                                "type": "bytes32",
                                "value": "0x2c6794308e5189c94362e84d4d2afd419c51c85c38e0852bedeb0c9d1cc6d6e0"
                            },
                            {
                                "name": "s2",
                                "type": "bytes32",
                                "value": "0x0bbb16b88ea6978bee9f2ffc048f09942ac0fa73b6af758e6ccebbefacc951ba"
                            }
                        ],
                        "constructorArguments": "",
                        "name": "receiveMessage",
                        "returnParams": [],
                        "signature": "receiveMessage(bytes32,uint256,bytes32,bytes32,bytes32,bytes32)"
                    },
                    "errorInfo": "",
                    "fromAddress": "0x7234db900e907398edfada744d5bf8a842b335ba",
                    "gasUsed": 58595,
                    "id": 0,
                    "methodDecoded": true,
                    "operation": "CALL",
                    "output": "",
                    "revert": false,
                    "revertMessage": "",
                    "selector": "0xd8de8503",
                    "status": true,
                    "value": "0"
                },
                "nodeType": 0
            },
            "1": {
                "invocation": {
                    "address": "0x0000000000000000000000000000000000000001",
                    "callData": "0x878e6fb3041cb174ce7aab19f84fcc73fae06ca85cb9c561afcdb119000000000000000000000000000000000000000000000000000000000000001cf13855da8b9e1881c3affc65f68e2726b8db9445a7087f2f72ecf5bda1f086a96bc854b5d62fc257df1c01df51e5447453dbe7257faac04b925a61b345d3d35c",
                    "decodedMethod": {
                        "callParams": [
                            {
                                "name": "hash",
                                "type": "bytes32",
                                "value": "0x9df9d4c3878e6fb3041cb174ce7aab19f84fcc73fae06ca85cb9c561afcdb119"
                            },
                            {
                                "name": "v",
                                "type": "uint256",
                                "value": "28"
                            },
                            {
                                "name": "r",
                                "type": "bytes32",
                                "value": "0xf13855da8b9e1881c3affc65f68e2726b8db9445a7087f2f72ecf5bda1f086a9"
                            },
                            {
                                "name": "s",
                                "type": "bytes32",
                                "value": "0x6bc854b5d62fc257df1c01df51e5447453dbe7257faac04b925a61b345d3d35c"
                            }
                        ],
                        "constructorArguments": "",
                        "name": "ecrecover",
                        "returnParams": [
                            {
                                "name": "",
                                "type": "address",
                                "value": "0x8bcf20def78f3b564894db99d95db43aab76631a"
                            }
                        ],
                        "signature": "ecrecover(bytes32,uint256,bytes32,bytes32)"
                    },
                    "errorInfo": "",
                    "fromAddress": "0x203e8785b4d4312c4152d0c42ba3fa8bd79086da",
                    "gasUsed": 3000,
                    "id": 1,
                    "methodDecoded": true,
                    "operation": "STATICCALL",
                    "output": "0x0000000000000000000000008bcf20def78f3b564894db99d95db43aab76631a",
                    "revert": false,
                    "revertMessage": "",
                    "selector": "0x9df9d4c3",
                    "status": true,
                    "value": "0"
                },
                "nodeType": 0
            },
            "2": {
                "invocation": {
                    "address": "0x0000000000000000000000000000000000000001",
                    "callData": "0x878e6fb3041cb174ce7aab19f84fcc73fae06ca85cb9c561afcdb119000000000000000000000000000000000000000000000000000000000000001c2c6794308e5189c94362e84d4d2afd419c51c85c38e0852bedeb0c9d1cc6d6e00bbb16b88ea6978bee9f2ffc048f09942ac0fa73b6af758e6ccebbefacc951ba",
                    "decodedMethod": {
                        "callParams": [
                            {
                                "name": "hash",
                                "type": "bytes32",
                                "value": "0x9df9d4c3878e6fb3041cb174ce7aab19f84fcc73fae06ca85cb9c561afcdb119"
                            },
                            {
                                "name": "v",
                                "type": "uint256",
                                "value": "28"
                            },
                            {
                                "name": "r",
                                "type": "bytes32",
                                "value": "0x2c6794308e5189c94362e84d4d2afd419c51c85c38e0852bedeb0c9d1cc6d6e0"
                            },
                            {
                                "name": "s",
                                "type": "bytes32",
                                "value": "0x0bbb16b88ea6978bee9f2ffc048f09942ac0fa73b6af758e6ccebbefacc951ba"
                            }
                        ],
                        "constructorArguments": "",
                        "name": "ecrecover",
                        "returnParams": [
                            {
                                "name": "",
                                "type": "address",
                                "value": "0x02484e9da954879daf4669f6b977c9f145319f4b"
                            }
                        ],
                        "signature": "ecrecover(bytes32,uint256,bytes32,bytes32)"
                    },
                    "errorInfo": "",
                    "fromAddress": "0x203e8785b4d4312c4152d0c42ba3fa8bd79086da",
                    "gasUsed": 3000,
                    "id": 2,
                    "methodDecoded": true,
                    "operation": "STATICCALL",
                    "output": "0x00000000000000000000000002484e9da954879daf4669f6b977c9f145319f4b",
                    "revert": false,
                    "revertMessage": "",
                    "selector": "0x9df9d4c3",
                    "status": true,
                    "value": "0"
                },
                "nodeType": 0
            },
            "3": {
                "event": {
                    "contract": "0x203e8785b4d4312c4152d0c42ba3fa8bd79086da",
                    "decodedLog": {
                        "name": "MessageReceived",
                        "params": [
                            {
                                "name": "message",
                                "type": "bytes32",
                                "value": "0x0301147e266828821d1506858fc6617d1a85a3bdcb8d89ba19e75069f42534cf"
                            }
                        ],
                        "signature": "MessageReceived(bytes32)"
                    },
                    "id": 3,
                    "logData": "0x",
                    "logDecoded": true,
                    "operation": "EVENT",
                    "revert": false,
                    "status": true,
                    "topics": [
                        "0xe29dc34207c78fc0f6048a32f159139c33339c6d6df8b07dcd33f6d699ff2327",
                        "0x0301147e266828821d1506858fc6617d1a85a3bdcb8d89ba19e75069f42534cf"
                    ]
                },
                "nodeType": 1
            }
        },
        "gasFlame": [
            {
                "children": [
                    {
                        "children": [
                            {
                                "children": [],
                                "depth": 0,
                                "name": "Initial Gas",
                                "value": 23776
                            },
                            {
                                "children": [
                                    {
                                        "children": [],
                                        "depth": 1,
                                        "name": "ecrecover",
                                        "value": 3000
                                    },
                                    {
                                        "children": [],
                                        "depth": 1,
                                        "name": "ecrecover",
                                        "value": 3000
                                    }
                                ],
                                "depth": 0,
                                "name": "Executed Gas",
                                "value": 34819
                            }
                        ],
                        "depth": -1,
                        "name": "Actual Gas Used",
                        "value": 58595
                    },
                    {
                        "children": [],
                        "depth": -1,
                        "name": "Refunded Gas",
                        "value": 0
                    }
                ],
                "depth": -2,
                "name": "Total Gas",
                "value": 58595
            }
        ],
        "isConfirmed": true,
        "mainTrace": [
            {
                "children": [
                    {
                        "children": [
                            {
                                "children": [],
                                "depth": 1,
                                "id": 1,
                                "order": 1
                            },
                            {
                                "children": [],
                                "depth": 1,
                                "id": 2,
                                "order": 2
                            },
                            {
                                "children": [],
                                "depth": 1,
                                "id": 3,
                                "order": 3
                            }
                        ],
                        "depth": 0,
                        "id": 0,
                        "order": 0
                    }
                ],
                "depth": -1,
                "id": -1,
                "order": -1
            }
        ],
        "mainTraceNodeCount": 4,
        "parentIdMap": {
            "0": -1,
            "1": 0,
            "2": 0,
            "3": 0
        },
        "tidyTrace": [
            {
                "children": [
                    {
                        "children": [
                            {
                                "children": [],
                                "depth": 1,
                                "id": 3,
                                "order": 3
                            }
                        ],
                        "depth": 0,
                        "id": 0,
                        "order": 0
                    }
                ],
                "depth": -1,
                "id": -1,
                "order": -1
            }
        ],
        "tidyTraceNodeCount": 2
    },
    "state_change": {
        "stateChanges": [
            {
                "address": "0x203e8785b4d4312c4152d0c42ba3fa8bd79086da",
                "erc": "",
                "slots": [
                    {
                        "current": "0x0000000000000000000000000000000000000000000000000000000000000001",
                        "key": "0x15e2f9ca2f41d3ceba0b35fedec8cb2329e993029b0e7efda5288e3ea07f793a",
                        "prev": "0x0000000000000000000000000000000000000000000000000000000000000000"
                    }
                ],
                "storageVariables": [
                    {
                        "name": "receivedMessages",
                        "type": "mapping(bytes32 => uint256)",
                        "value": {
                            "pairs": [
                                {
                                    "key": "0x0301147e266828821d1506858fc6617d1a85a3bdcb8d89ba19e75069f42534cf",
                                    "value": {
                                        "current": "1",
                                        "prev": "0",
                                        "typeTag": 1
                                    }
                                }
                            ],
                            "typeTag": 4
                        }
                    }
                ]
            }
        ]
    }
}