{
    "balance_change": {
        "balanceChanges": [
            {
                "account": "0xc9a642aa09c9fdc3e2b488dfbc5b3c5126ec6f52",
                "assets": [
                    {
                        "address": "0xd4fa1460f537bb9085d22c7bccb5dd450ef28e3a",
                        "amount": "20,000",
                        "iconUrl": "https://assets.blocksec.com/icon/9aa9f1e3aaeb410f2f7a8ac53e2d02cadaf549ec5b7ae897eae11dc97f2b9a35.png",
                        "isERC1155": false,
                        "isERC721": false,
                        "sign": false,
                        "value": ""
                    }
                ]
            },
            {
                "account": "0x8d12a197cb00d4747a1fe03395095ce2a5cc6819",
                "assets": [
                    {
                        "address": "0xd4fa1460f537bb9085d22c7bccb5dd450ef28e3a",
                        "amount": "20,000",
                        "iconUrl": "https://assets.blocksec.com/icon/9aa9f1e3aaeb410f2f7a8ac53e2d02cadaf549ec5b7ae897eae11dc97f2b9a35.png",
                        "isERC1155": false,
                        "isERC721": false,
                        "sign": true,
                        "value": ""
                    }
                ]
            }
        ]
    },
    "profile": {
        "basic_info": {
            "baseFee": "",
            "blockNumber": 4020411,
            "callData": "0x338b5dea000000000000000000000000d4fa1460f537bb9085d22c7bccb5dd450ef28e3a000000000000000000000000000000000000000000000000000001d1a94a2000",
            "debugEnable": true,
            "errorInfo": "",
            "eventCount": 2,
            "feeRecipient": "0x1e9939daaad6924ad004c2560e90804164900341",
            "formatValue": "0",
            "gasLimit": 250000,
            "gasPrice": "4",
            "gasUsed": 52629,
            "intTxnCount": 1,
            "internalRevert": false,
            "internalRevertMessage": "",
            "isContractCreation": false,
            "isFlashloan": false,
            "maxFee": "",
            "nonce": 163,
            "overwritedBlockNumber": -1,
            "priorityFee": "",
            "receiver": "0x8d12a197cb00d4747a1fe03395095ce2a5cc6819",
            "revertMessage": "",
            "sender": "0xc9a642aa09c9fdc3e2b488dfbc5b3c5126ec6f52",
            "simulationEnable": true,
            "sourceTxnHash": "0xaefd9ff008784ca7f2966b64ab12821bea715328a0eea1bb3a6e2ff8abe43069",
            "status": true,
            "timestamp": "2017-07-14T08:43:22Z",
            "transactionFee": "0.000210516",
            "txnHash": "0xaefd9ff008784ca7f2966b64ab12821bea715328a0eea1bb3a6e2ff8abe43069",
            "txnIndex": 1,
            "type": 0,
            "value": "0"
        },
        "fund_flow": [
            {
                "amount": "20,000",
                "from": "0xc9a642aa09c9fdc3e2b488dfbc5b3c5126ec6f52",
                "id": 1,
                "isERC1155": false,
                "isERC721": false,
                "isReverted": false,
                "order": 1,
                "to": "0x8d12a197cb00d4747a1fe03395095ce2a5cc6819",
                "token": "0xd4fa1460f537bb9085d22c7bccb5dd450ef28e3a"
            }
        ],
        "token_infos": [
            {
                "address": "0xc02aaa39b223fe8d0a0e5c4f27ead9083c756cc2",
                "decimals": 18
            },
            {
                "address": "0xd4fa1460f537bb9085d22c7bccb5dd450ef28e3a",
                "decimals": 8
            },
            {
                "address": "0xeeeeeeeeeeeeeeeeeeeeeeeeeeeeeeeeeeeeeeee",
                "decimals": 18
            }
        ]
    },
    "address_label": {
        "labels": [
            {
                "address": "0x0000000000000000000000000000000000000003",
                "label": "Precompiled"
            },
            {
                "address": "0x0000000000000000000000000000000000000004",
                "label": "Precompiled"
            },
            {
                "address": "0xeeeeeeeeeeeeeeeeeeeeeeeeeeeeeeeeeeeeeeee",
                "label": "Ether"
            },
            {
                "address": "0x8d12a197cb00d4747a1fe03395095ce2a5cc6819",
                "label": "EtherDelta"
            },
            {
                "address": "0xd4fa1460f537bb9085d22c7bccb5dd450ef28e3a",
                "label": "Populous Token"
            },
            {
                "address": "0x0000000000000000000000000000000000000001",
                "label": "Precompiled"
            },
            {
                "address": "0x0000000000000000000000000000000000000002",
                "label": "Precompiled"
            }
        ]
    },
    "trace": {
        "accountLabels": null,
        "dataMap": {
            "-1": {
                "invocation": {
                    "address": "0xc9a642aa09c9fdc3e2b488dfbc5b3c5126ec6f52",
                    "callData": "",
                    "decodedMethod": null,
                    "errorInfo": "",
                    "fromAddress": "",
                    "gasUsed": 0,
                    "id": -1,
                    "methodDecoded": false,
                    "operation": "",
                    "output": "",
                    "revert": false,
                    "revertMessage": "",
                    "selector": "",
                    "status": false,
                    "value": ""
                },
                "nodeType": 0
            },
            "0": {
                "invocation": {
                    "address": "0x8d12a197cb00d4747a1fe03395095ce2a5cc6819",
                    "callData": "0x000000000000000000000000d4fa1460f537bb9085d22c7bccb5dd450ef28e3a000000000000000000000000000000000000000000000000000001d1a94a2000",
                    "decodedMethod": {
                        "callParams": [
                            {
                                "name": "token",
                                "type": "address",
                                "value": "0xd4fa1460f537bb9085d22c7bccb5dd450ef28e3a"
                            },
                            {
                                "name": "amount",
                                "type": "uint256",
                                "value": "2,000,000,000,000"
                            }
                        ],
                        "constructorArguments": "",
                        "name": "depositToken",
                        "returnParams": [],
                        "signature": "depositToken(address,uint256)"
                    },
                    "errorInfo": "",
                    "fromAddress": "0xc9a642aa09c9fdc3e2b488dfbc5b3c5126ec6f52",
                    "gasUsed": 52629,
                    "id": 0,
                    "methodDecoded": true,
                    "operation": "CALL",
                    "output": "",
                    "revert": false,
                    "revertMessage": "",
                    "selector": "0x338b5dea",
                    "status": true,
                    "value": "0"
                },
                "nodeType": 0
            },
            "1": {
                "invocation": {
                    "address": "0xd4fa1460f537bb9085d22c7bccb5dd450ef28e3a",
                    "callData": "0x000000000000000000000000c9a642aa09c9fdc3e2b488dfbc5b3c5126ec6f520000000000000000000000008d12a197cb00d4747a1fe03395095ce2a5cc6819000000000000000000000000000000000000000000000000000001d1a94a2000",
                    "decodedMethod": {
                        "callParams": [
                            {
                                "name": "_from",
                                "type": "address",
                                "value": "0xc9a642aa09c9fdc3e2b488dfbc5b3c5126ec6f52"
                            },
                            {
                                "name": "_to",
                                "type": "address",
                                "value": "0x8d12a197cb00d4747a1fe03395095ce2a5cc6819"
                            },
                            {
                                "decimalAvailable": true,
                                "name": "_value",
                                "type": "uint256",
                                "value": "2,000,000,000,000"
                            }
                        ],
                        "constructorArguments": "",
                        "name": "transferFrom",
                        "returnParams": [
                            {
                                "name": "success",
                                "type": "bool",
                                "value": true
                            }
                        ],
                        "signature": "transferFrom(address,address,uint256)"
                    },
                    "errorInfo": "",
                    "fromAddress": "0x8d12a197cb00d4747a1fe03395095ce2a5cc6819",
                    "gasUsed": 19565,
                    "id": 1,
                    "methodDecoded": true,
                    "operation": "CALL",
                    "output": "0x0000000000000000000000000000000000000000000000000000000000000001",
                    "revert": false,
                    "revertMessage": "",
                    "selector": "0x23b872dd",
                    "status": true,
                    "value": "0"
                },
                "nodeType": 0
            },
            "2": {
                "event": {
                    "contract": "0xd4fa1460f537bb9085d22c7bccb5dd450ef28e3a",
                    "decodedLog": {
                        "name": "Transfer",
                        "params": [
                            {
                                "name": "from",
                                "type": "address",
                                "value": "0xc9a642aa09c9fdc3e2b488dfbc5b3c5126ec6f52"
                            },
                            {
                                "name": "to",
                                "type": "address",
                                "value": "0x8d12a197cb00d4747a1fe03395095ce2a5cc6819"
                            },
                            {
                                "decimalAvailable": true,
                                "name": "value",
                                "type": "uint256",
                                "value": "2,000,000,000,000"
                            }
                        ],
                        "signature": "Transfer(address,address,uint256)"
                    },
                    "id": 2,
                    "logData": "0x000000000000000000000000000000000000000000000000000001d1a94a2000",
                    "logDecoded": true,
                    "operation": "EVENT",
                    "revert": false,
                    "status": true,
                    "topics": [
                        "0xddf252ad1be2c89b69c2b068fc378daa952ba7f163c4a11628f55a4df523b3ef",
                        "0x000000000000000000000000c9a642aa09c9fdc3e2b488dfbc5b3c5126ec6f52",
                        "0x0000000000000000000000008d12a197cb00d4747a1fe03395095ce2a5cc6819"
                    ]
                },
                "nodeType": 1
            },
            "3": {
                "event": {
                    "contract": "0x8d12a197cb00d4747a1fe03395095ce2a5cc6819",
                    "decodedLog": {
                        "name": "Deposit",
                        "params": [
                            {
                                "name": "token",
                                "type": "address",
                                "value": "0xd4fa1460f537bb9085d22c7bccb5dd450ef28e3a"
                            },
                            {
                                "name": "user",
                                "type": "address",
                                "value": "0xc9a642aa09c9fdc3e2b488dfbc5b3c5126ec6f52"
                            },
                            {
                                "name": "amount",
                                "type": "uint256",
                                "value": "2,000,000,000,000"
                            },
                            {
                                "name": "balance",
                                "type": "uint256",
                                "value": "8,768,054,944,483"
                            }
                        ],
                        "signature": "Deposit(address,address,uint256,uint256)"
                    },
                    "id": 3,
                    "logData": "0x000000000000000000000000d4fa1460f537bb9085d22c7bccb5dd450ef28e3a000000000000000000000000c9a642aa09c9fdc3e2b488dfbc5b3c5126ec6f52000000000000000000000000000000000000000000000000000001d1a94a2000000000000000000000000000000000000000000000000000000007f978cce2e3",
                    "logDecoded": true,
                    "operation": "EVENT",
                    "revert": false,
                    "status": true,
                    "topics": [
                        "0xdcbc1c05240f31ff3ad067ef1ee35ce4997762752e3a095284754544f4c709d7"
                    ]
                },
                "nodeType": 1
            }
        },
        "gasFlame": [
            {
                "children": [
                    {
                        "children": [
                            {
                                "children": [],
                                "depth": 0,
                                "name": "Initial Gas",
                                "value": 23128
                            },
                            {
                                "children": [
                                    {
                                        "children": [],
                                        "depth": 1,
                                        "name": "transferFrom",
                                        "value": 19565
                                    }
                                ],
                                "depth": 0,
                                "name": "Executed Gas",
                                "value": 29501
                            }
                        ],
                        "depth": -1,
                        "name": "Actual Gas Used",
                        "value": 52629
                    },
                    {
                        "children": [],
                        "depth": -1,
                        "name": "Refunded Gas",
                        "value": 0
                    }
                ],
                "depth": -2,
                "name": "Total Gas",
                "value": 52629
            }
        ],
        "isConfirmed": true,
        "mainTrace": [
            {
                "children": [
                    {
                        "children": [
                            {
                                "children": [
                                    {
                                        "children": [],
                                        "depth": 2,
                                        "id": 2,
                                        "order": 2
                                    }
                                ],
                                "depth": 1,
                                "id": 1,
                                "order": 1
                            },
                            {
                                "children": [],
                                "depth": 1,
                                "id": 3,
                                "order": 3
                            }
                        ],
                        "depth": 0,
                        "id": 0,
                        "order": 0
                    }
                ],
                "depth": -1,
                "id": -1,
                "order": -1
            }
        ],
        "mainTraceNodeCount": 4,
        "parentIdMap": {
            "0": -1,
            "1": 0,
            "2": 1,
            "3": 0
        },
        "tidyTrace": [
            {
                "children": [
                    {
                        "children": [
                            {
                                "children": [
                                    {
                                        "children": [],
                                        "depth": 2,
                                        "id": 2,
                                        "order": 2
                                    }
                                ],
                                "depth": 1,
                                "id": 1,
                                "order": 1
                            },
                            {
                                "children": [],
                                "depth": 1,
                                "id": 3,
                                "order": 3
                            }
                        ],
                        "depth": 0,
                        "id": 0,
                        "order": 0
                    }
                ],
                "depth": -1,
                "id": -1,
                "order": -1
            }
        ],
        "tidyTraceNodeCount": 4
    },
    "state_change": {
        "stateChanges": [
            {
                "address": "0x8d12a197cb00d4747a1fe03395095ce2a5cc6819",
                "erc": "",
                "slots": [
                    {
                        "current": "0x000000000000000000000000000000000000000000000000000007f978cce2e3",
                        "key": "0xda0b94c91f0d42f1a0f5a66d004669a4119321bd6b361fcd83250a1cf50414cf",
                        "prev": "0x00000000000000000000000000000000000000000000000000000627cf82c2e3"
                    }
                ],
                "storageVariables": []
            },
            {
                "address": "0xd4fa1460f537bb9085d22c7bccb5dd450ef28e3a",
                "erc": "ERC-20",
                "slots": [
                    {
                        "current": "0x00000000000000000000000000000000000000000000000000008aff4174608e",
                        "key": "0xb92522e638b186e13420d1d4f314a4ef16c92d13980d8e1d96891ef9aaa8c3e7",
                        "prev": "0x0000000000000000000000000000000000000000000000000000892d982a408e"
                    },
                    {
                        "current": "0x00000000000000000000000000000000000000000000000000002a78985f631a",
                        "key": "0x9b19c34853cfca888fe0684a0ef29261b32fb417a7c9537a234be48ad13df7e5",
                        "prev": "0x00000000000000000000000000000000000000000000000000002c4a41a9831a"
                    },
                    {
                        "current": "0x000000000000000000000000000000000000000000000000000002ba7def3000",
                        "key": "0x3ee734096d1086027297d20f79fc2e76b452ace8994187bac4db5ebba4403775",
                        "prev": "0x0000000000000000000000000000000000000000000000000000048c27395000"
                    }
                ],
                "storageVariables": []
            }
        ]
    }
}