{
    "balance_change": {
        "balanceChanges": [
            {
                "account": "0x7f2cbe5d4e9e57a1a019014b2b5458a137a3e096",
                "assets": [
                    {
                        "address": "0x3819f64f282bf135d62168c1e513280daf905e06",
                        "amount": "5,108,222,555.23",
                        "iconUrl": "",
                        "isERC1155": false,
                        "isERC721": false,
                        "sign": false,
                        "value": "7619.467498"
                    }
                ]
            },
            {
                "account": "0x0000000000000000000000000000000000000000",
                "assets": [
                    {
                        "address": "0x3819f64f282bf135d62168c1e513280daf905e06",
                        "amount": "4,722,555.23",
                        "iconUrl": "",
                        "isERC1155": false,
                        "isERC721": false,
                        "sign": true,
                        "value": "7.2718924"
                    }
                ]
            },
            {
                "account": "0x1d0c801679f8a4e13be2253920be4081d4933fff",
                "assets": [
                    {
                        "address": "0x3819f64f282bf135d62168c1e513280daf905e06",
                        "amount": "5,103,500,000",
                        "iconUrl": "",
                        "isERC1155": false,
                        "isERC721": false,
                        "sign": true,
                        "value": "7612.602301"
                    }
                ]
            }
        ]
    },
    "profile": {
        "basic_info": {
            "baseFee": "15.921053288",
            "blockNumber": 16426243,
            "callData": "0x61c2acc3000000000000000000000000000000000000000000000000000000000000147600000000000000000000000000000000000000000000000046e40d59761f5380",
            "debugEnable": true,
            "errorInfo": "",
            "eventCount": 3,
            "feeRecipient": "0x199d5ed7f45f4ee35960cf22eade2076e95b253f",
            "formatValue": "0",
            "gasLimit": 70351,
            "gasPrice": "17.421053288",
            "gasUsed": 70250,
            "intTxnCount": 2,
            "internalRevert": false,
            "internalRevertMessage": "",
            "isContractCreation": false,
            "isFlashloan": false,
            "maxFee": "21.792413447",
            "nonce": 132,
            "overwritedBlockNumber": -1,
            "priorityFee": "1.5",
            "receiver": "0x3819f64f282bf135d62168c1e513280daf905e06",
            "revertMessage": "",
            "sender": "0x7f2cbe5d4e9e57a1a019014b2b5458a137a3e096",
            "simulationEnable": true,
            "sourceTxnHash": "0xae2739c98b4f764010d8536a5d5cef2fe7ae2e386ad578650467cfac65e8b7b5",
            "status": true,
            "timestamp": "2023-01-17T11:32:59Z",
            "transactionFee": "0.001223828993482",
            "txnHash": "0xae2739c98b4f764010d8536a5d5cef2fe7ae2e386ad578650467cfac65e8b7b5",
            "txnIndex": 54,
            "type": 2,
            "value": "0"
        },
        "fund_flow": [
            {
                "amount": "5,103,500,000",
                "from": "0x0000000000000000000000000000000000000000",
                "id": 1,
                "isERC1155": false,
                "isERC721": false,
                "isReverted": false,
                "order": 1,
                "to": "0x1d0c801679f8a4e13be2253920be4081d4933fff",
                "token": "0x3819f64f282bf135d62168c1e513280daf905e06"
            },
            {
                "amount": "5,108,222,555.23",
                "from": "0x7f2cbe5d4e9e57a1a019014b2b5458a137a3e096",
                "id": 2,
                "isERC1155": false,
                "isERC721": false,
                "isReverted": false,
                "order": 2,
                "to": "0x0000000000000000000000000000000000000000",
                "token": "0x3819f64f282bf135d62168c1e513280daf905e06"
            }
        ],
        "token_infos": [
            {
                "address": "0x3819f64f282bf135d62168c1e513280daf905e06",
                "decimals": 9
            },
            {
                "address": "0xc02aaa39b223fe8d0a0e5c4f27ead9083c756cc2",
                "decimals": 18
            },
            {
                "address": "0xeeeeeeeeeeeeeeeeeeeeeeeeeeeeeeeeeeeeeeee",
                "decimals": 18
            }
        ]
    },
    "address_label": {
        "labels": [
            {
                "address": "0xeeeeeeeeeeeeeeeeeeeeeeeeeeeeeeeeeeeeeeee",
                "label": "Ether"
            },
            {
                "address": "0x3819f64f282bf135d62168c1e513280daf905e06",
                "label": "Hedron: HDRN Token"
            },
            {
                "address": "0x64de999ce2fcbcf4f37ab16341de78ddf8722ad2",
                "label": "HEXStakeInstance"
            },
            {
                "address": "0x0000000000000000000000000000000000000001",
                "label": "Precompiled"
            },
            {
                "address": "0x0000000000000000000000000000000000000002",
                "label": "Precompiled"
            },
            {
                "address": "0x0000000000000000000000000000000000000003",
                "label": "Precompiled"
            },
            {
                "address": "0x0000000000000000000000000000000000000004",
                "label": "Precompiled"
            }
        ]
    },
    "trace": {
        "accountLabels": null,
        "dataMap": {
            "-1": {
                "invocation": {
                    "address": "0x7f2cbe5d4e9e57a1a019014b2b5458a137a3e096",
                    "callData": "",
                    "decodedMethod": null,
                    "errorInfo": "",
                    "fromAddress": "",
                    "gasUsed": 0,
                    "id": -1,
                    "methodDecoded": false,
                    "operation": "",
                    "output": "",
                    "revert": false,
                    "revertMessage": "",
                    "selector": "",
                    "status": false,
                    "value": ""
                },
                "nodeType": 0
            },
            "0": {
                "invocation": {
                    "address": "0x3819f64f282bf135d62168c1e513280daf905e06",
                    "callData": "0x000000000000000000000000000000000000000000000000000000000000147600000000000000000000000000000000000000000000000046e40d59761f5380",
                    "decodedMethod": {
                        "callParams": [
                            {
                                "name": "liquidationId",
                                "type": "uint256",
                                "value": "5,238"
                            },
                            {
                                "name": "liquidationBid",
                                "type": "uint256",
                                "value": "5,108,222,555,230,000,000"
                            }
                        ],
                        "constructorArguments": "",
                        "name": "loanLiquidateBid",
                        "returnParams": [
                            {
                                "name": "",
                                "type": "uint256",
                                "value": "1,673,955,479"
                            }
                        ],
                        "signature": "loanLiquidateBid(uint256,uint256)"
                    },
                    "errorInfo": "",
                    "fromAddress": "0x7f2cbe5d4e9e57a1a019014b2b5458a137a3e096",
                    "gasUsed": 70250,
                    "id": 0,
                    "methodDecoded": true,
                    "operation": "CALL",
                    "output": "0x0000000000000000000000000000000000000000000000000000000063c68897",
                    "revert": false,
                    "revertMessage": "",
                    "selector": "0x61c2acc3",
                    "status": true,
                    "value": "0"
                },
                "nodeType": 0
            },
            "1": {
                "event": {
                    "contract": "0x3819f64f282bf135d62168c1e513280daf905e06",
                    "decodedLog": {
                        "name": "Transfer",
                        "params": [
                            {
                                "name": "from",
                                "type": "address",
                                "value": "0x0000000000000000000000000000000000000000"
                            },
                            {
                                "name": "to",
                                "type": "address",
                                "value": "0x1d0c801679f8a4e13be2253920be4081d4933fff"
                            },
                            {
                                "decimalAvailable": true,
                                "name": "value",
                                "type": "uint256",
                                "value": "5,103,500,000,000,000,000"
                            }
                        ],
                        "signature": "Transfer(address,address,uint256)"
                    },
                    "id": 1,
                    "logData": "0x00000000000000000000000000000000000000000000000046d34635e334c000",
                    "logDecoded": true,
                    "operation": "EVENT",
                    "revert": false,
                    "status": true,
                    "topics": [
                        "0xddf252ad1be2c89b69c2b068fc378daa952ba7f163c4a11628f55a4df523b3ef",
                        "0x0000000000000000000000000000000000000000000000000000000000000000",
                        "0x0000000000000000000000001d0c801679f8a4e13be2253920be4081d4933fff"
                    ]
                },
                "nodeType": 1
            },
            "2": {
                "invocation": {
                    "address": "0xb794a240f1bb7b6c160d7027c1c4aba66ad7b57a",
                    "callData": "0x",
                    "decodedMethod": {
                        "callParams": [],
                        "constructorArguments": "",
                        "name": "share",
                        "returnParams": [
                            {
                                "name": "stake",
                                "type": "(uint40,uint72,uint16,uint16)",
                                "value": [
                                    {
                                        "name": "stakeId",
                                        "type": "uint40",
                                        "value": "711,080"
                                    },
                                    {
                                        "name": "stakeShares",
                                        "type": "uint72",
                                        "value": "60,555,710,140,650"
                                    },
                                    {
                                        "name": "lockedDay",
                                        "type": "uint16",
                                        "value": "1,051"
                                    },
                                    {
                                        "name": "stakedDays",
                                        "type": "uint16",
                                        "value": "5,555"
                                    }
                                ]
                            },
                            {
                                "name": "mintedDays",
                                "type": "uint16",
                                "value": "0"
                            },
                            {
                                "name": "launchBonus",
                                "type": "uint8",
                                "value": "0"
                            },
                            {
                                "name": "loanStart",
                                "type": "uint16",
                                "value": "0"
                            },
                            {
                                "name": "loanedDays",
                                "type": "uint16",
                                "value": "0"
                            },
                            {
                                "name": "interestRate",
                                "type": "uint32",
                                "value": "0"
                            },
                            {
                                "name": "paymentsMade",
                                "type": "uint8",
                                "value": "0"
                            },
                            {
                                "name": "isLoaned",
                                "type": "bool",
                                "value": false
                            }
                        ],
                        "signature": "share()"
                    },
                    "errorInfo": "",
                    "fromAddress": "0x3819f64f282bf135d62168c1e513280daf905e06",
                    "gasUsed": 7762,
                    "id": 2,
                    "methodDecoded": true,
                    "operation": "STATICCALL",
                    "output": "0x00000000000000000000000000000000000000000000000000000000000ad9a800000000000000000000000000000000000000000000000000003713399790ea000000000000000000000000000000000000000000000000000000000000041b00000000000000000000000000000000000000000000000000000000000015b30000000000000000000000000000000000000000000000000000000000000000000000000000000000000000000000000000000000000000000000000000000000000000000000000000000000000000000000000000000000000000000000000000000000000000000000000000000000000000000000000000000000000000000000000000000000000000000000000000000000000000000000000000000000000000000000000000000000000000000000000000000000000000000000000000000000000000000000000000000000000000000000000000000000000000",
                    "revert": false,
                    "revertMessage": "",
                    "selector": "0xa8d5fd65",
                    "status": true,
                    "value": "0"
                },
                "nodeType": 0
            },
            "3": {
                "invocation": {
                    "address": "0x64de999ce2fcbcf4f37ab16341de78ddf8722ad2",
                    "callData": "0x",
                    "decodedMethod": {
                        "callParams": [],
                        "constructorArguments": "",
                        "name": "share",
                        "returnParams": [
                            {
                                "name": "stake",
                                "type": "(uint40,uint72,uint16,uint16)",
                                "value": [
                                    {
                                        "name": "stakeId",
                                        "type": "uint40",
                                        "value": "711,080"
                                    },
                                    {
                                        "name": "stakeShares",
                                        "type": "uint72",
                                        "value": "60,555,710,140,650"
                                    },
                                    {
                                        "name": "lockedDay",
                                        "type": "uint16",
                                        "value": "1,051"
                                    },
                                    {
                                        "name": "stakedDays",
                                        "type": "uint16",
                                        "value": "5,555"
                                    }
                                ]
                            },
                            {
                                "name": "mintedDays",
                                "type": "uint16",
                                "value": "0"
                            },
                            {
                                "name": "launchBonus",
                                "type": "uint8",
                                "value": "0"
                            },
                            {
                                "name": "loanStart",
                                "type": "uint16",
                                "value": "0"
                            },
                            {
                                "name": "loanedDays",
                                "type": "uint16",
                                "value": "0"
                            },
                            {
                                "name": "interestRate",
                                "type": "uint32",
                                "value": "0"
                            },
                            {
                                "name": "paymentsMade",
                                "type": "uint8",
                                "value": "0"
                            },
                            {
                                "name": "isLoaned",
                                "type": "bool",
                                "value": false
                            }
                        ],
                        "signature": "share()"
                    },
                    "errorInfo": "",
                    "fromAddress": "0xb794a240f1bb7b6c160d7027c1c4aba66ad7b57a",
                    "gasUsed": 5036,
                    "id": 3,
                    "methodDecoded": true,
                    "operation": "DELEGATECALL",
                    "output": "0x00000000000000000000000000000000000000000000000000000000000ad9a800000000000000000000000000000000000000000000000000003713399790ea000000000000000000000000000000000000000000000000000000000000041b00000000000000000000000000000000000000000000000000000000000015b30000000000000000000000000000000000000000000000000000000000000000000000000000000000000000000000000000000000000000000000000000000000000000000000000000000000000000000000000000000000000000000000000000000000000000000000000000000000000000000000000000000000000000000000000000000000000000000000000000000000000000000000000000000000000000000000000000000000000000000000000000000000000000000000000000000000000000000000000000000000000000000000000000000000000000",
                    "revert": false,
                    "revertMessage": "",
                    "selector": "0xa8d5fd65",
                    "status": true,
                    "value": "0"
                },
                "nodeType": 0
            },
            "4": {
                "event": {
                    "contract": "0x3819f64f282bf135d62168c1e513280daf905e06",
                    "decodedLog": {
                        "name": "LoanLiquidateBid",
                        "params": [
                            {
                                "name": "bidder",
                                "type": "address",
                                "value": "0x7f2cbe5d4e9e57a1a019014b2b5458a137a3e096"
                            },
                            {
                                "name": "stakeId",
                                "type": "uint40",
                                "value": "711,080"
                            },
                            {
                                "name": "liquidationId",
                                "type": "uint40",
                                "value": "5,238"
                            },
                            {
                                "name": "data",
                                "type": "uint256",
                                "value": "5,616,550,096,743,015,362,070,153,955,179"
                            }
                        ],
                        "signature": "LoanLiquidateBid(uint256,address,uint40,uint40)"
                    },
                    "id": 4,
                    "logData": "0x0000000000000000000000000000000000000046e40d59761f53800063c6876b",
                    "logDecoded": true,
                    "operation": "EVENT",
                    "revert": false,
                    "status": true,
                    "topics": [
                        "0xe8a39971ed535d13041f79f54ea41f45a2435bc8e608d91068e374606bce9eb8",
                        "0x0000000000000000000000007f2cbe5d4e9e57a1a019014b2b5458a137a3e096",
                        "0x00000000000000000000000000000000000000000000000000000000000ad9a8",
                        "0x0000000000000000000000000000000000000000000000000000000000001476"
                    ]
                },
                "nodeType": 1
            },
            "5": {
                "event": {
                    "contract": "0x3819f64f282bf135d62168c1e513280daf905e06",
                    "decodedLog": {
                        "name": "Transfer",
                        "params": [
                            {
                                "name": "from",
                                "type": "address",
                                "value": "0x7f2cbe5d4e9e57a1a019014b2b5458a137a3e096"
                            },
                            {
                                "name": "to",
                                "type": "address",
                                "value": "0x0000000000000000000000000000000000000000"
                            },
                            {
                                "decimalAvailable": true,
                                "name": "value",
                                "type": "uint256",
                                "value": "5,108,222,555,230,000,000"
                            }
                        ],
                        "signature": "Transfer(address,address,uint256)"
                    },
                    "id": 5,
                    "logData": "0x00000000000000000000000000000000000000000000000046e40d59761f5380",
                    "logDecoded": true,
                    "operation": "EVENT",
                    "revert": false,
                    "status": true,
                    "topics": [
                        "0xddf252ad1be2c89b69c2b068fc378daa952ba7f163c4a11628f55a4df523b3ef",
                        "0x0000000000000000000000007f2cbe5d4e9e57a1a019014b2b5458a137a3e096",
                        "0x0000000000000000000000000000000000000000000000000000000000000000"
                    ]
                },
                "nodeType": 1
            }
        },
        "gasFlame": [
            {
                "children": [
                    {
                        "children": [
                            {
                                "children": [],
                                "depth": 0,
                                "name": "Initial Gas",
                                "value": 21440
                            },
                            {
                                "children": [
                                    {
                                        "children": [
                                            {
                                                "children": [],
                                                "depth": 2,
                                                "name": "share",
                                                "value": 5036
                                            }
                                        ],
                                        "depth": 1,
                                        "name": "share",
                                        "value": 7762
                                    }
                                ],
                                "depth": 0,
                                "name": "Executed Gas",
                                "value": 48810
                            }
                        ],
                        "depth": -1,
                        "name": "Actual Gas Used",
                        "value": 70250
                    },
                    {
                        "children": [],
                        "depth": -1,
                        "name": "Refunded Gas",
                        "value": 0
                    }
                ],
                "depth": -2,
                "name": "Total Gas",
                "value": 70250
            }
        ],
        "isConfirmed": true,
        "mainTrace": [
            {
                "children": [
                    {
                        "children": [
                            {
                                "children": [],
                                "depth": 1,
                                "id": 1,
                                "order": 1
                            },
                            {
                                "children": [
                                    {
                                        "children": [],
                                        "depth": 2,
                                        "id": 3,
                                        "order": 3
                                    }
                                ],
                                "depth": 1,
                                "id": 2,
                                "order": 2
                            },
                            {
                                "children": [],
                                "depth": 1,
                                "id": 4,
                                "order": 4
                            },
                            {
                                "children": [],
                                "depth": 1,
                                "id": 5,
                                "order": 5
                            }
                        ],
                        "depth": 0,
                        "id": 0,
                        "order": 0
                    }
                ],
                "depth": -1,
                "id": -1,
                "order": -1
            }
        ],
        "mainTraceNodeCount": 6,
        "parentIdMap": {
            "0": -1,
            "1": 0,
            "2": 0,
            "3": 2,
            "4": 0,
            "5": 0
        },
        "tidyTrace": [
            {
                "children": [
                    {
                        "children": [
                            {
                                "children": [],
                                "depth": 1,
                                "id": 1,
                                "order": 1
                            },
                            {
                                "children": [],
                                "depth": 1,
                                "id": 4,
                                "order": 4
                            },
                            {
                                "children": [],
                                "depth": 1,
                                "id": 5,
                                "order": 5
                            }
                        ],
                        "depth": 0,
                        "id": 0,
                        "order": 0
                    }
                ],
                "depth": -1,
                "id": -1,
                "order": -1
            }
        ],
        "tidyTraceNodeCount": 4
    },
    "state_change": {
        "stateChanges": [
            {
                "address": "0x3819f64f282bf135d62168c1e513280daf905e06",
                "erc": "ERC-20",
                "slots": [
                    {
                        "current": "0x000000000000000000000000000000000000000000000000b7927cec8884dd77",
                        "key": "0x62822140bb2a921006ce8d34006eda83a1148be39ed32068967ed3832628a23e",
                        "prev": "0x00000000000000000000000000000000000000000000000070bf36b6a5501d77"
                    },
                    {
                        "current": "0x0000000046e40d59761f5380b794a240f1bb7b6c160d7027c1c4aba66ad7b57a",
                        "key": "0xa9547dd9122ee855b00fcaeed5a7634c825cb959d5e8540474c3b86a7a641125",
                        "prev": "0x0000000046d34635e334c000b794a240f1bb7b6c160d7027c1c4aba66ad7b57a"
                    },
                    {
                        "current": "0x0100000000000000000001087f2cbe5d4e9e57a1a019014b2b5458a137a3e096",
                        "key": "0xa9547dd9122ee855b00fcaeed5a7634c825cb959d5e8540474c3b86a7a641126",
                        "prev": "0x0100000000000000000000001d0c801679f8a4e13be2253920be4081d4933fff"
                    },
                    {
                        "current": "0x0000000000000000000000000000000000000000000000000708aec9b4f9d211",
                        "key": "0x4aa5afb4552a161193591ae67e7ed64d645157a9e62f82afba08d728e458b591",
                        "prev": "0x0000000000000000000000000000000000000000000000004decbc232b192591"
                    },
                    {
                        "current": "0x00000000000000000000000000000000000000000000182967c66df9c49f970d",
                        "key": "0x0000000000000000000000000000000000000000000000000000000000000002",
                        "prev": "0x00000000000000000000000000000000000000000000182967d7351d578a2a8d"
                    }
                ],
                "storageVariables": [
                    {
                        "name": "liquidationList",
                        "type": "mapping(uint256 => struct Hedron.LiquidationStore)",
                        "value": {
                            "pairs": [
                                {
                                    "key": "5238",
                                    "value": {
                                        "fields": [
                                            {
                                                "name": "hsiAddress",
                                                "type": "address",
                                                "value": {
                                                    "current": "0xb794a240f1bb7b6c160d7027c1c4aba66ad7b57a",
                                                    "prev": "0xb794a240f1bb7b6c160d7027c1c4aba66ad7b57a",
                                                    "typeTag": 1
                                                }
                                            },
                                            {
                                                "name": "bidAmount",
                                                "type": "uint96",
                                                "value": {
                                                    "current": "5108222555230000000",
                                                    "prev": "5103500000000000000",
                                                    "typeTag": 1
                                                }
                                            },
                                            {
                                                "name": "liquidator",
                                                "type": "address",
                                                "value": {
                                                    "current": "0x7f2cbe5d4e9e57a1a019014b2b5458a137a3e096",
                                                    "prev": "0x1d0c801679f8a4e13be2253920be4081d4933fff",
                                                    "typeTag": 1
                                                }
                                            },
                                            {
                                                "name": "endOffset",
                                                "type": "uint88",
                                                "value": {
                                                    "current": "264",
                                                    "prev": "0",
                                                    "typeTag": 1
                                                }
                                            },
                                            {
                                                "name": "isActive",
                                                "type": "bool",
                                                "value": {
                                                    "current": "true",
                                                    "prev": "true",
                                                    "typeTag": 1
                                                }
                                            }
                                        ],
                                        "typeTag": 3
                                    }
                                }
                            ],
                            "typeTag": 4
                        }
                    },
                    {
                        "name": "_totalSupply",
                        "type": "uint256",
                        "value": {
                            "current": "114100589881044385109773",
                            "prev": "114100594603599615109773",
                            "typeTag": 1
                        }
                    },
                    {
                        "name": "_balances",
                        "type": "mapping(address => uint256)",
                        "value": {
                            "pairs": [
                                {
                                    "key": "0x1d0c801679f8a4e13be2253920be4081d4933fff",
                                    "value": {
                                        "current": "13227772410885102967",
                                        "prev": "8124272410885102967",
                                        "typeTag": 1
                                    }
                                },
                                {
                                    "key": "0x7f2cbe5d4e9e57a1a019014b2b5458a137a3e096",
                                    "value": {
                                        "current": "506847139427111441",
                                        "prev": "5615069694657111441",
                                        "typeTag": 1
                                    }
                                }
                            ],
                            "typeTag": 4
                        }
                    }
                ]
            }
        ]
    }
}