{
    "balance_change": {
        "balanceChanges": [
            {
                "account": "0x767af52d988d1241a346851a1b39ccd11357376e",
                "assets": [
                    {
                        "address": "0xdac17f958d2ee523a2206206994597c13d831ec7",
                        "amount": "318.72832",
                        "iconUrl": "https://assets.blocksec.com/icon/fcea71f3193ce895be44bfdf941f7e4c9381dd587f273c2d1a27f1263d84e4ea.png",
                        "isERC1155": false,
                        "isERC721": false,
                        "sign": false,
                        "value": "319.0470483199999649"
                    }
                ]
            },
            {
                "account": "0x4f7be8cdd826f20d03a70f8a47b63b2dbd4092fd",
                "assets": [
                    {
                        "address": "0xe1d7c7a4596b038ced2a84bf65b8647271c53208",
                        "amount": "85,121.842926052163563731",
                        "iconUrl": "",
                        "isERC1155": false,
                        "isERC721": false,
                        "sign": false,
                        "value": "313.352597"
                    },
                    {
                        "address": "0xdac17f958d2ee523a2206206994597c13d831ec7",
                        "amount": "318.72832",
                        "iconUrl": "https://assets.blocksec.com/icon/fcea71f3193ce895be44bfdf941f7e4c9381dd587f273c2d1a27f1263d84e4ea.png",
                        "isERC1155": false,
                        "isERC721": false,
                        "sign": true,
                        "value": "319.0470483199999649"
                    }
                ]
            },
            {
                "account": "0xe39a00f9fc4332441b3519daae2c35231d93725e",
                "assets": [
                    {
                        "address": "0xe1d7c7a4596b038ced2a84bf65b8647271c53208",
                        "amount": "85,121.842926052163563731",
                        "iconUrl": "",
                        "isERC1155": false,
                        "isERC721": false,
                        "sign": true,
                        "value": "313.352597"
                    }
                ]
            }
        ]
    },
    "profile": {
        "basic_info": {
            "baseFee": "9.59163237",
            "blockNumber": 16045884,
            "callData": "0x6ac56d4e8637526fd3912d27d8e3658311dd1364c31b342822d8aea50f8f07c9c5ed39db000000000000000000000000000000000000000000000000000000000000004000000000000000000000000000000000000000000000000000000000000000e08281bfec2cd9babb07f3df816a144e930b0aa6dde57cf88c4c59720d9df6abc07d40dc762c2057435c6f7db8f086e0bf5da93bb19722f88c4c59720d9df6abd282285c762c2046f835b7c4b473cee0bf3e29bb4e9722f88c4c59720d9df6abd282285c762c2046f835b7c4b572b4c5b268190f81c4b5c1536004deb95baf599a0f2a74aced5fd3751b52e71653ace6267bbe7a73143c3f6d9b9ed654f6f5273fa8ace31394443489f085ccb473cee0bf3e29bb4e9722f88c4c59720d9df6abd25847f42579e20a04b04b899abb8a8db84504e89ea2d7fe3efb9a08edad5a7eb7",
            "debugEnable": true,
            "errorInfo": "",
            "eventCount": 4,
            "feeRecipient": "0x388c818ca8b9251b393131c08a736a67ccb19297",
            "formatValue": "0",
            "gasLimit": 500736,
            "gasPrice": "14.60163237",
            "gasUsed": 127964,
            "intTxnCount": 7,
            "internalRevert": false,
            "internalRevertMessage": "",
            "isContractCreation": false,
            "isFlashloan": false,
            "maxFee": "23",
            "nonce": 48719,
            "overwritedBlockNumber": -1,
            "priorityFee": "5.01",
            "receiver": "0x767af52d988d1241a346851a1b39ccd11357376e",
            "revertMessage": "",
            "sender": "0xd1b72a8ae97f51d7bd4af257a124175688924001",
            "simulationEnable": true,
            "sourceTxnHash": "0xaedc0c62a0bfc70eb2aa3e6cf9a88429495aa1bee9c780de4986936f4b5ddb99",
            "status": true,
            "timestamp": "2022-11-25T08:44:11Z",
            "transactionFee": "0.00186848328459468",
            "txnHash": "0xaedc0c62a0bfc70eb2aa3e6cf9a88429495aa1bee9c780de4986936f4b5ddb99",
            "txnIndex": 29,
            "type": 2,
            "value": "0"
        },
        "fund_flow": [
            {
                "amount": "318.72832",
                "from": "0x767af52d988d1241a346851a1b39ccd11357376e",
                "id": 1,
                "isERC1155": false,
                "isERC721": false,
                "isReverted": false,
                "order": 1,
                "to": "0x4f7be8cdd826f20d03a70f8a47b63b2dbd4092fd",
                "token": "0xdac17f958d2ee523a2206206994597c13d831ec7"
            },
            {
                "amount": "85,121.842926052163563731",
                "from": "0x4f7be8cdd826f20d03a70f8a47b63b2dbd4092fd",
                "id": 2,
                "isERC1155": false,
                "isERC721": false,
                "isReverted": false,
                "order": 2,
                "to": "0xe39a00f9fc4332441b3519daae2c35231d93725e",
                "token": "0xe1d7c7a4596b038ced2a84bf65b8647271c53208"
            }
        ],
        "token_infos": [
            {
                "address": "0xe1d7c7a4596b038ced2a84bf65b8647271c53208",
                "decimals": 18
            },
            {
                "address": "0xeeeeeeeeeeeeeeeeeeeeeeeeeeeeeeeeeeeeeeee",
                "decimals": 18
            },
            {
                "address": "0xc02aaa39b223fe8d0a0e5c4f27ead9083c756cc2",
                "decimals": 18
            },
            {
                "address": "0xdac17f958d2ee523a2206206994597c13d831ec7",
                "decimals": 6
            }
        ]
    },
    "address_label": {
        "labels": [
            {
                "address": "0x0000000000000000000000000000000000000001",
                "label": "Precompiled"
            },
            {
                "address": "0x0000000000000000000000000000000000000003",
                "label": "Precompiled"
            },
            {
                "address": "0xeeeeeeeeeeeeeeeeeeeeeeeeeeeeeeeeeeeeeeee",
                "label": "Ether"
            },
            {
                "address": "0x4f7be8cdd826f20d03a70f8a47b63b2dbd4092fd",
                "label": "Uniswap V2: USDT-NFTY"
            },
            {
                "address": "0x7a250d5630b4cf539739df2c5dacb4c659f2488d",
                "label": "Uniswap V2: Router 2"
            },
            {
                "address": "0xe1d7c7a4596b038ced2a84bf65b8647271c53208",
                "label": "NFTY: NFTY Token"
            },
            {
                "address": "0xdac17f958d2ee523a2206206994597c13d831ec7",
                "label": "Tether: USDT Stablecoin"
            },
            {
                "address": "0x388c818ca8b9251b393131c08a736a67ccb19297",
                "label": "LidoExecutionLayerRewardsVault"
            },
            {
                "address": "0x0000000000000000000000000000000000000002",
                "label": "Precompiled"
            },
            {
                "address": "0x0000000000000000000000000000000000000004",
                "label": "Precompiled"
            }
        ]
    },
    "trace": {
        "accountLabels": null,
        "dataMap": {
            "-1": {
                "invocation": {
                    "address": "0xd1b72a8ae97f51d7bd4af257a124175688924001",
                    "callData": "",
                    "decodedMethod": null,
                    "errorInfo": "",
                    "fromAddress": "",
                    "gasUsed": 0,
                    "id": -1,
                    "methodDecoded": false,
                    "operation": "",
                    "output": "",
                    "revert": false,
                    "revertMessage": "",
                    "selector": "",
                    "status": false,
                    "value": ""
                },
                "nodeType": 0
            },
            "0": {
                "invocation": {
                    "address": "0x767af52d988d1241a346851a1b39ccd11357376e",
                    "callData": "0x8637526fd3912d27d8e3658311dd1364c31b342822d8aea50f8f07c9c5ed39db000000000000000000000000000000000000000000000000000000000000004000000000000000000000000000000000000000000000000000000000000000e08281bfec2cd9babb07f3df816a144e930b0aa6dde57cf88c4c59720d9df6abc07d40dc762c2057435c6f7db8f086e0bf5da93bb19722f88c4c59720d9df6abd282285c762c2046f835b7c4b473cee0bf3e29bb4e9722f88c4c59720d9df6abd282285c762c2046f835b7c4b572b4c5b268190f81c4b5c1536004deb95baf599a0f2a74aced5fd3751b52e71653ace6267bbe7a73143c3f6d9b9ed654f6f5273fa8ace31394443489f085ccb473cee0bf3e29bb4e9722f88c4c59720d9df6abd25847f42579e20a04b04b899abb8a8db84504e89ea2d7fe3efb9a08edad5a7eb7",
                    "decodedMethod": null,
                    "errorInfo": "",
                    "fromAddress": "0xd1b72a8ae97f51d7bd4af257a124175688924001",
                    "gasUsed": 127964,
                    "id": 0,
                    "methodDecoded": false,
                    "operation": "CALL",
                    "output": "",
                    "revert": false,
                    "revertMessage": "",
                    "selector": "0x6ac56d4e",
                    "status": true,
                    "value": "0"
                },
                "nodeType": 0
            },
            "1": {
                "invocation": {
                    "address": "0x7a250d5630b4cf539739df2c5dacb4c659f2488d",
                    "callData": "0x0000000000000000000000000000000000000000000000000000000012ff68800000000000000000000000000000000000000000000011bb69d8b90c8348000000000000000000000000000000000000000000000000000000000000000000a0000000000000000000000000e39a00f9fc4332441b3519daae2c35231d93725e00000000000000000000000000000000000000000000000000000000638080ff0000000000000000000000000000000000000000000000000000000000000002000000000000000000000000dac17f958d2ee523a2206206994597c13d831ec7000000000000000000000000e1d7c7a4596b038ced2a84bf65b8647271c53208",
                    "decodedMethod": {
                        "callParams": [
                            {
                                "name": "amountIn",
                                "type": "uint256",
                                "value": "318,728,320"
                            },
                            {
                                "name": "amountOutMin",
                                "type": "uint256",
                                "value": "83,737,398,400,000,000,000,000"
                            },
                            {
                                "name": "path",
                                "type": "address[]",
                                "value": [
                                    "0xdac17f958d2ee523a2206206994597c13d831ec7",
                                    "0xe1d7c7a4596b038ced2a84bf65b8647271c53208"
                                ]
                            },
                            {
                                "name": "to",
                                "type": "address",
                                "value": "0xe39a00f9fc4332441b3519daae2c35231d93725e"
                            },
                            {
                                "name": "deadline",
                                "type": "uint256",
                                "value": "1,669,366,015"
                            }
                        ],
                        "constructorArguments": "",
                        "name": "swapExactTokensForTokens",
                        "returnParams": [
                            {
                                "name": "amounts",
                                "type": "uint256[]",
                                "value": [
                                    "318,728,320",
                                    "85,121,842,926,052,163,563,731"
                                ]
                            }
                        ],
                        "signature": "swapExactTokensForTokens(uint256,uint256,address[],address,uint256)"
                    },
                    "errorInfo": "",
                    "fromAddress": "0x767af52d988d1241a346851a1b39ccd11357376e",
                    "gasUsed": 91133,
                    "id": 1,
                    "methodDecoded": true,
                    "operation": "CALL",
                    "output": "0x000000000000000000000000000000000000000000000000000000000000002000000000000000000000000000000000000000000000000000000000000000020000000000000000000000000000000000000000000000000000000012ff688000000000000000000000000000000000000000000000120676dfba645085b0d3",
                    "revert": false,
                    "revertMessage": "",
                    "selector": "0x38ed1739",
                    "status": true,
                    "value": "0"
                },
                "nodeType": 0
            },
            "10": {
                "event": {
                    "contract": "0x4f7be8cdd826f20d03a70f8a47b63b2dbd4092fd",
                    "decodedLog": {
                        "name": "Sync",
                        "params": [
                            {
                                "name": "reserve0",
                                "type": "uint112",
                                "value": "62,058,873,076"
                            },
                            {
                                "name": "reserve1",
                                "type": "uint112",
                                "value": "16,538,375,535,949,431,691,340,083"
                            }
                        ],
                        "signature": "Sync(uint112,uint112)"
                    },
                    "id": 10,
                    "logData": "0x0000000000000000000000000000000000000000000000000000000e72ff40f40000000000000000000000000000000000000000000dae23225fb5054544e933",
                    "logDecoded": true,
                    "operation": "EVENT",
                    "revert": false,
                    "status": true,
                    "topics": [
                        "0x1c411e9a96e071241c2f21f7726b17ae89e3cab4c78be50e062b03a9fffbbad1"
                    ]
                },
                "nodeType": 1
            },
            "11": {
                "event": {
                    "contract": "0x4f7be8cdd826f20d03a70f8a47b63b2dbd4092fd",
                    "decodedLog": {
                        "name": "Swap",
                        "params": [
                            {
                                "name": "sender",
                                "type": "address",
                                "value": "0x7a250d5630b4cf539739df2c5dacb4c659f2488d"
                            },
                            {
                                "name": "to",
                                "type": "address",
                                "value": "0xe39a00f9fc4332441b3519daae2c35231d93725e"
                            },
                            {
                                "name": "amount0In",
                                "type": "uint256",
                                "value": "318,728,320"
                            },
                            {
                                "name": "amount1In",
                                "type": "uint256",
                                "value": "0"
                            },
                            {
                                "name": "amount0Out",
                                "type": "uint256",
                                "value": "0"
                            },
                            {
                                "name": "amount1Out",
                                "type": "uint256",
                                "value": "85,121,842,926,052,163,563,731"
                            }
                        ],
                        "signature": "Swap(address,uint256,uint256,uint256,uint256,address)"
                    },
                    "id": 11,
                    "logData": "0x0000000000000000000000000000000000000000000000000000000012ff68800000000000000000000000000000000000000000000000000000000000000000000000000000000000000000000000000000000000000000000000000000000000000000000000000000000000000000000000000000120676dfba645085b0d3",
                    "logDecoded": true,
                    "operation": "EVENT",
                    "revert": false,
                    "status": true,
                    "topics": [
                        "0xd78ad95fa46c994b6551d0da85fc275fe613ce37657fb8d5e3d130840159d822",
                        "0x0000000000000000000000007a250d5630b4cf539739df2c5dacb4c659f2488d",
                        "0x000000000000000000000000e39a00f9fc4332441b3519daae2c35231d93725e"
                    ]
                },
                "nodeType": 1
            },
            "2": {
                "invocation": {
                    "address": "0x4f7be8cdd826f20d03a70f8a47b63b2dbd4092fd",
                    "callData": "0x",
                    "decodedMethod": {
                        "callParams": [],
                        "constructorArguments": "",
                        "name": "getReserves",
                        "returnParams": [
                            {
                                "name": "_reserve0",
                                "type": "uint112",
                                "value": "61,740,144,756"
                            },
                            {
                                "name": "_reserve1",
                                "type": "uint112",
                                "value": "16,623,497,378,875,483,854,903,814"
                            },
                            {
                                "name": "_blockTimestampLast",
                                "type": "uint32",
                                "value": "1,669,298,639"
                            }
                        ],
                        "signature": "getReserves()"
                    },
                    "errorInfo": "",
                    "fromAddress": "0x7a250d5630b4cf539739df2c5dacb4c659f2488d",
                    "gasUsed": 2504,
                    "id": 2,
                    "methodDecoded": true,
                    "operation": "STATICCALL",
                    "output": "0x0000000000000000000000000000000000000000000000000000000e5fffd8740000000000000000000000000000000000000000000dc029993f6f6995ca9a0600000000000000000000000000000000000000000000000000000000637f79cf",
                    "revert": false,
                    "revertMessage": "",
                    "selector": "0x0902f1ac",
                    "status": true,
                    "value": "0"
                },
                "nodeType": 0
            },
            "3": {
                "invocation": {
                    "address": "0xdac17f958d2ee523a2206206994597c13d831ec7",
                    "callData": "0x000000000000000000000000767af52d988d1241a346851a1b39ccd11357376e0000000000000000000000004f7be8cdd826f20d03a70f8a47b63b2dbd4092fd0000000000000000000000000000000000000000000000000000000012ff6880",
                    "decodedMethod": {
                        "callParams": [
                            {
                                "name": "_from",
                                "type": "address",
                                "value": "0x767af52d988d1241a346851a1b39ccd11357376e"
                            },
                            {
                                "name": "_to",
                                "type": "address",
                                "value": "0x4f7be8cdd826f20d03a70f8a47b63b2dbd4092fd"
                            },
                            {
                                "decimalAvailable": true,
                                "name": "_value",
                                "type": "uint256",
                                "value": "318,728,320"
                            }
                        ],
                        "constructorArguments": "",
                        "name": "transferFrom",
                        "returnParams": [],
                        "signature": "transferFrom(address,address,uint256)"
                    },
                    "errorInfo": "",
                    "fromAddress": "0x7a250d5630b4cf539739df2c5dacb4c659f2488d",
                    "gasUsed": 26530,
                    "id": 3,
                    "methodDecoded": true,
                    "operation": "CALL",
                    "output": "",
                    "revert": false,
                    "revertMessage": "",
                    "selector": "0x23b872dd",
                    "status": true,
                    "value": "0"
                },
                "nodeType": 0
            },
            "4": {
                "event": {
                    "contract": "0xdac17f958d2ee523a2206206994597c13d831ec7",
                    "decodedLog": {
                        "name": "Transfer",
                        "params": [
                            {
                                "name": "from",
                                "type": "address",
                                "value": "0x767af52d988d1241a346851a1b39ccd11357376e"
                            },
                            {
                                "name": "to",
                                "type": "address",
                                "value": "0x4f7be8cdd826f20d03a70f8a47b63b2dbd4092fd"
                            },
                            {
                                "decimalAvailable": true,
                                "name": "value",
                                "type": "uint256",
                                "value": "318,728,320"
                            }
                        ],
                        "signature": "Transfer(address,address,uint256)"
                    },
                    "id": 4,
                    "logData": "0x0000000000000000000000000000000000000000000000000000000012ff6880",
                    "logDecoded": true,
                    "operation": "EVENT",
                    "revert": false,
                    "status": true,
                    "topics": [
                        "0xddf252ad1be2c89b69c2b068fc378daa952ba7f163c4a11628f55a4df523b3ef",
                        "0x000000000000000000000000767af52d988d1241a346851a1b39ccd11357376e",
                        "0x0000000000000000000000004f7be8cdd826f20d03a70f8a47b63b2dbd4092fd"
                    ]
                },
                "nodeType": 1
            },
            "5": {
                "invocation": {
                    "address": "0x4f7be8cdd826f20d03a70f8a47b63b2dbd4092fd",
                    "callData": "0x000000000000000000000000000000000000000000000000000000000000000000000000000000000000000000000000000000000000120676dfba645085b0d3000000000000000000000000e39a00f9fc4332441b3519daae2c35231d93725e00000000000000000000000000000000000000000000000000000000000000800000000000000000000000000000000000000000000000000000000000000000",
                    "decodedMethod": {
                        "callParams": [
                            {
                                "name": "amount0Out",
                                "type": "uint256",
                                "value": "0"
                            },
                            {
                                "name": "amount1Out",
                                "type": "uint256",
                                "value": "85,121,842,926,052,163,563,731"
                            },
                            {
                                "name": "to",
                                "type": "address",
                                "value": "0xe39a00f9fc4332441b3519daae2c35231d93725e"
                            },
                            {
                                "name": "data",
                                "type": "bytes",
                                "value": "0x"
                            }
                        ],
                        "constructorArguments": "",
                        "name": "swap",
                        "returnParams": [],
                        "signature": "swap(uint256,uint256,address,bytes)"
                    },
                    "errorInfo": "",
                    "fromAddress": "0x7a250d5630b4cf539739df2c5dacb4c659f2488d",
                    "gasUsed": 49477,
                    "id": 5,
                    "methodDecoded": true,
                    "operation": "CALL",
                    "output": "",
                    "revert": false,
                    "revertMessage": "",
                    "selector": "0x022c0d9f",
                    "status": true,
                    "value": "0"
                },
                "nodeType": 0
            },
            "6": {
                "invocation": {
                    "address": "0xe1d7c7a4596b038ced2a84bf65b8647271c53208",
                    "callData": "0x000000000000000000000000e39a00f9fc4332441b3519daae2c35231d93725e00000000000000000000000000000000000000000000120676dfba645085b0d3",
                    "decodedMethod": {
                        "callParams": [
                            {
                                "name": "recipient",
                                "type": "address",
                                "value": "0xe39a00f9fc4332441b3519daae2c35231d93725e"
                            },
                            {
                                "decimalAvailable": true,
                                "name": "amount",
                                "type": "uint256",
                                "value": "85,121,842,926,052,163,563,731"
                            }
                        ],
                        "constructorArguments": "",
                        "name": "transfer",
                        "returnParams": [
                            {
                                "name": "",
                                "type": "bool",
                                "value": true
                            }
                        ],
                        "signature": "transfer(address,uint256)"
                    },
                    "errorInfo": "",
                    "fromAddress": "0x4f7be8cdd826f20d03a70f8a47b63b2dbd4092fd",
                    "gasUsed": 13649,
                    "id": 6,
                    "methodDecoded": true,
                    "operation": "CALL",
                    "output": "0x0000000000000000000000000000000000000000000000000000000000000001",
                    "revert": false,
                    "revertMessage": "",
                    "selector": "0xa9059cbb",
                    "status": true,
                    "value": "0"
                },
                "nodeType": 0
            },
            "7": {
                "event": {
                    "contract": "0xe1d7c7a4596b038ced2a84bf65b8647271c53208",
                    "decodedLog": {
                        "name": "Transfer",
                        "params": [
                            {
                                "name": "from",
                                "type": "address",
                                "value": "0x4f7be8cdd826f20d03a70f8a47b63b2dbd4092fd"
                            },
                            {
                                "name": "to",
                                "type": "address",
                                "value": "0xe39a00f9fc4332441b3519daae2c35231d93725e"
                            },
                            {
                                "decimalAvailable": true,
                                "name": "value",
                                "type": "uint256",
                                "value": "85,121,842,926,052,163,563,731"
                            }
                        ],
                        "signature": "Transfer(address,address,uint256)"
                    },
                    "id": 7,
                    "logData": "0x00000000000000000000000000000000000000000000120676dfba645085b0d3",
                    "logDecoded": true,
                    "operation": "EVENT",
                    "revert": false,
                    "status": true,
                    "topics": [
                        "0xddf252ad1be2c89b69c2b068fc378daa952ba7f163c4a11628f55a4df523b3ef",
                        "0x0000000000000000000000004f7be8cdd826f20d03a70f8a47b63b2dbd4092fd",
                        "0x000000000000000000000000e39a00f9fc4332441b3519daae2c35231d93725e"
                    ]
                },
                "nodeType": 1
            },
            "8": {
                "invocation": {
                    "address": "0xdac17f958d2ee523a2206206994597c13d831ec7",
                    "callData": "0x0000000000000000000000004f7be8cdd826f20d03a70f8a47b63b2dbd4092fd",
                    "decodedMethod": {
                        "callParams": [
                            {
                                "name": "who",
                                "type": "address",
                                "value": "0x4f7be8cdd826f20d03a70f8a47b63b2dbd4092fd"
                            }
                        ],
                        "constructorArguments": "",
                        "name": "balanceOf",
                        "returnParams": [
                            {
                                "decimalAvailable": true,
                                "name": "",
                                "type": "uint256",
                                "value": "62,058,873,076"
                            }
                        ],
                        "signature": "balanceOf(address)"
                    },
                    "errorInfo": "",
                    "fromAddress": "0x4f7be8cdd826f20d03a70f8a47b63b2dbd4092fd",
                    "gasUsed": 1031,
                    "id": 8,
                    "methodDecoded": true,
                    "operation": "STATICCALL",
                    "output": "0x0000000000000000000000000000000000000000000000000000000e72ff40f4",
                    "revert": false,
                    "revertMessage": "",
                    "selector": "0x70a08231",
                    "status": true,
                    "value": "0"
                },
                "nodeType": 0
            },
            "9": {
                "invocation": {
                    "address": "0xe1d7c7a4596b038ced2a84bf65b8647271c53208",
                    "callData": "0x0000000000000000000000004f7be8cdd826f20d03a70f8a47b63b2dbd4092fd",
                    "decodedMethod": {
                        "callParams": [
                            {
                                "name": "account",
                                "type": "address",
                                "value": "0x4f7be8cdd826f20d03a70f8a47b63b2dbd4092fd"
                            }
                        ],
                        "constructorArguments": "",
                        "name": "balanceOf",
                        "returnParams": [
                            {
                                "decimalAvailable": true,
                                "name": "",
                                "type": "uint256",
                                "value": "16,538,375,535,949,431,691,340,083"
                            }
                        ],
                        "signature": "balanceOf(address)"
                    },
                    "errorInfo": "",
                    "fromAddress": "0x4f7be8cdd826f20d03a70f8a47b63b2dbd4092fd",
                    "gasUsed": 974,
                    "id": 9,
                    "methodDecoded": true,
                    "operation": "STATICCALL",
                    "output": "0x0000000000000000000000000000000000000000000dae23225fb5054544e933",
                    "revert": false,
                    "revertMessage": "",
                    "selector": "0x70a08231",
                    "status": true,
                    "value": "0"
                },
                "nodeType": 0
            }
        },
        "gasFlame": [
            {
                "children": [
                    {
                        "children": [
                            {
                                "children": [],
                                "depth": 0,
                                "name": "Initial Gas",
                                "value": 25440
                            },
                            {
                                "children": [
                                    {
                                        "children": [
                                            {
                                                "children": [],
                                                "depth": 2,
                                                "name": "getReserves",
                                                "value": 2504
                                            },
                                            {
                                                "children": [],
                                                "depth": 2,
                                                "name": "transferFrom",
                                                "value": 26530
                                            },
                                            {
                                                "children": [
                                                    {
                                                        "children": [],
                                                        "depth": 3,
                                                        "name": "transfer",
                                                        "value": 13649
                                                    },
                                                    {
                                                        "children": [],
                                                        "depth": 3,
                                                        "name": "balanceOf",
                                                        "value": 1031
                                                    },
                                                    {
                                                        "children": [],
                                                        "depth": 3,
                                                        "name": "balanceOf",
                                                        "value": 974
                                                    }
                                                ],
                                                "depth": 2,
                                                "name": "swap",
                                                "value": 49477
                                            }
                                        ],
                                        "depth": 1,
                                        "name": "swapExactTokensForTokens",
                                        "value": 91133
                                    }
                                ],
                                "depth": 0,
                                "name": "Executed Gas",
                                "value": 105324
                            }
                        ],
                        "depth": -1,
                        "name": "Actual Gas Used",
                        "value": 127964
                    },
                    {
                        "children": [],
                        "depth": -1,
                        "name": "Refunded Gas",
                        "value": 2800
                    }
                ],
                "depth": -2,
                "name": "Total Gas",
                "value": 130764
            }
        ],
        "isConfirmed": true,
        "mainTrace": [
            {
                "children": [
                    {
                        "children": [
                            {
                                "children": [
                                    {
                                        "children": [],
                                        "depth": 2,
                                        "id": 2,
                                        "order": 2
                                    },
                                    {
                                        "children": [
                                            {
                                                "children": [],
                                                "depth": 3,
                                                "id": 4,
                                                "order": 4
                                            }
                                        ],
                                        "depth": 2,
                                        "id": 3,
                                        "order": 3
                                    },
                                    {
                                        "children": [
                                            {
                                                "children": [
                                                    {
                                                        "children": [],
                                                        "depth": 4,
                                                        "id": 7,
                                                        "order": 7
                                                    }
                                                ],
                                                "depth": 3,
                                                "id": 6,
                                                "order": 6
                                            },
                                            {
                                                "children": [],
                                                "depth": 3,
                                                "id": 8,
                                                "order": 8
                                            },
                                            {
                                                "children": [],
                                                "depth": 3,
                                                "id": 9,
                                                "order": 9
                                            },
                                            {
                                                "children": [],
                                                "depth": 3,
                                                "id": 10,
                                                "order": 10
                                            },
                                            {
                                                "children": [],
                                                "depth": 3,
                                                "id": 11,
                                                "order": 11
                                            }
                                        ],
                                        "depth": 2,
                                        "id": 5,
                                        "order": 5
                                    }
                                ],
                                "depth": 1,
                                "id": 1,
                                "order": 1
                            }
                        ],
                        "depth": 0,
                        "id": 0,
                        "order": 0
                    }
                ],
                "depth": -1,
                "id": -1,
                "order": -1
            }
        ],
        "mainTraceNodeCount": 12,
        "parentIdMap": {
            "0": -1,
            "1": 0,
            "10": 5,
            "11": 5,
            "2": 1,
            "3": 1,
            "4": 3,
            "5": 1,
            "6": 5,
            "7": 6,
            "8": 5,
            "9": 5
        },
        "tidyTrace": [
            {
                "children": [
                    {
                        "children": [
                            {
                                "children": [
                                    {
                                        "children": [
                                            {
                                                "children": [],
                                                "depth": 3,
                                                "id": 4,
                                                "order": 4
                                            }
                                        ],
                                        "depth": 2,
                                        "id": 3,
                                        "order": 3
                                    },
                                    {
                                        "children": [
                                            {
                                                "children": [
                                                    {
                                                        "children": [],
                                                        "depth": 4,
                                                        "id": 7,
                                                        "order": 7
                                                    }
                                                ],
                                                "depth": 3,
                                                "id": 6,
                                                "order": 6
                                            },
                                            {
                                                "children": [],
                                                "depth": 3,
                                                "id": 10,
                                                "order": 10
                                            },
                                            {
                                                "children": [],
                                                "depth": 3,
                                                "id": 11,
                                                "order": 11
                                            }
                                        ],
                                        "depth": 2,
                                        "id": 5,
                                        "order": 5
                                    }
                                ],
                                "depth": 1,
                                "id": 1,
                                "order": 1
                            }
                        ],
                        "depth": 0,
                        "id": 0,
                        "order": 0
                    }
                ],
                "depth": -1,
                "id": -1,
                "order": -1
            }
        ],
        "tidyTraceNodeCount": 9
    },
    "state_change": {
        "stateChanges": [
            {
                "address": "0x4f7be8cdd826f20d03a70f8a47b63b2dbd4092fd",
                "erc": "ERC-20",
                "slots": [
                    {
                        "current": "0x0000000000000000006d4ee3431229236d191a4374a339921d6c21c00e9333e2",
                        "key": "0x0000000000000000000000000000000000000000000000000000000000000009",
                        "prev": "0x0000000000000000006c53be8b645722f1e4385a5b223f3ffc8a80ebb81d9852"
                    },
                    {
                        "current": "0x00000000000000000000000000000000000000001b894fb2082f9aa86451334b",
                        "key": "0x000000000000000000000000000000000000000000000000000000000000000a",
                        "prev": "0x00000000000000000000000000000000000000001b883d3a3239eadb243e150f"
                    },
                    {
                        "current": "0x6380805b0000000dae23225fb5054544e9330000000000000000000e72ff40f4",
                        "key": "0x0000000000000000000000000000000000000000000000000000000000000008",
                        "prev": "0x637f79cf0000000dc029993f6f6995ca9a060000000000000000000e5fffd874"
                    }
                ],
                "storageVariables": [
                    {
                        "name": "price1CumulativeLast",
                        "type": "uint256",
                        "value": {
                            "current": "8522094453525972999012954955",
                            "prev": "8520798314529699749336847631",
                            "typeTag": 1
                        }
                    },
                    {
                        "name": "reserve0",
                        "type": "uint112",
                        "value": {
                            "current": "62058873076",
                            "prev": "61740144756",
                            "typeTag": 1
                        }
                    },
                    {
                        "name": "reserve1",
                        "type": "uint112",
                        "value": {
                            "current": "16538375535949431691340083",
                            "prev": "16623497378875483854903814",
                            "typeTag": 1
                        }
                    },
                    {
                        "name": "blockTimestampLast",
                        "type": "uint32",
                        "value": {
                            "current": "1669365851",
                            "prev": "1669298639",
                            "typeTag": 1
                        }
                    },
                    {
                        "name": "price0CumulativeLast",
                        "type": "uint256",
                        "value": {
                            "current": "10469641280622144149392397929838574342825193703335998434",
                            "prev": "10375677368733232015051521306222578447476052184862136402",
                            "typeTag": 1
                        }
                    }
                ]
            },
            {
                "address": "0xdac17f958d2ee523a2206206994597c13d831ec7",
                "erc": "ERC-20",
                "slots": [
                    {
                        "current": "0x000000000000000000000000000000000000000000000000000000092ba9eb28",
                        "key": "0x5cc3626d5488baaff19aa7ce4638e22c73c031b0c10878ab9a10be70d8f78ff9",
                        "prev": "0x000000000000000000000000000000000000000000000000000000093ea953a8"
                    },
                    {
                        "current": "0x0000000000000000000000000000000000000000000000000000000e72ff40f4",
                        "key": "0xcac68d0fbaf8af813fd43f5aca25ccaba3f38a19a14b13a2912a81e757477bad",
                        "prev": "0x0000000000000000000000000000000000000000000000000000000e5fffd874"
                    }
                ],
                "storageVariables": [
                    {
                        "name": "balances",
                        "type": "mapping(address => uint256)",
                        "value": {
                            "pairs": [
                                {
                                    "key": "0x4f7be8cdd826f20d03a70f8a47b63b2dbd4092fd",
                                    "value": {
                                        "current": "62058873076",
                                        "prev": "61740144756",
                                        "typeTag": 1
                                    }
                                },
                                {
                                    "key": "0x767af52d988d1241a346851a1b39ccd11357376e",
                                    "value": {
                                        "current": "39387261736",
                                        "prev": "39705990056",
                                        "typeTag": 1
                                    }
                                }
                            ],
                            "typeTag": 4
                        }
                    }
                ]
            },
            {
                "address": "0xe1d7c7a4596b038ced2a84bf65b8647271c53208",
                "erc": "ERC-20",
                "slots": [
                    {
                        "current": "0x0000000000000000000000000000000000000000000dae23225fb5054544e933",
                        "key": "0xcae6fea77ddff9fe2357516d5d41b56560d3773b0694e7c40fc792d4d3f2d43a",
                        "prev": "0x0000000000000000000000000000000000000000000dc029993f6f6995ca9a06"
                    },
                    {
                        "current": "0x000000000000000000000000000000000000000000002297ba43985a3faa9e68",
                        "key": "0x763e694c0949d22c2a51b1feaab7fe1f2f367391987f350a216daa9a84a23f59",
                        "prev": "0x0000000000000000000000000000000000000000000010914363ddf5ef24ed95"
                    }
                ],
                "storageVariables": [
                    {
                        "name": "_balances",
                        "type": "mapping(address => uint256)",
                        "value": {
                            "pairs": [
                                {
                                    "key": "0x4f7be8cdd826f20d03a70f8a47b63b2dbd4092fd",
                                    "value": {
                                        "current": "16538375535949431691340083",
                                        "prev": "16623497378875483854903814",
                                        "typeTag": 1
                                    }
                                },
                                {
                                    "key": "0xe39a00f9fc4332441b3519daae2c35231d93725e",
                                    "value": {
                                        "current": "163359340511525956394600",
                                        "prev": "78237497585473792830869",
                                        "typeTag": 1
                                    }
                                }
                            ],
                            "typeTag": 4
                        }
                    }
                ]
            }
        ]
    }
}