{
    "balance_change": {
        "balanceChanges": []
    },
    "profile": {
        "basic_info": {
            "baseFee": "",
            "blockNumber": 4808780,
            "callData": "0x0a19b14a000000000000000000000000818fc6c2ec5986bc6e2cbf00939d90556ab12ce5000000000000000000000000000000000000000000058ac7ba4ff69e8380000000000000000000000000000000000000000000000000000000000000000000000000000000000000000000000000000000000000000000000ffe25b1bf29000000000000000000000000000000000000000000000000000000000000004965600000000000000000000000000000000000000000000000000000000086a3aad10000000000000000000000003efd9b0bd8e4595bc494539aca584821950106ee000000000000000000000000000000000000000000000000000000000000001cedb967e7dc9fefb7089d75cebba198b4a592f52f92b44486277b24cf4c4e6b1e5bfeadf7bd1f7d1e37980d97269ccebdae07aec0da449e8574985205ca4a759300000000000000000000000000000000000000000002965e5f69ca99752d1af4",
            "debugEnable": true,
            "errorInfo": "invalid jump destination",
            "eventCount": 0,
            "feeRecipient": "0xea674fdde714fd979de3edf0f56aa9716b898ec8",
            "formatValue": "0",
            "gasLimit": 250000,
            "gasPrice": "4",
            "gasUsed": 250000,
            "intTxnCount": 2,
            "internalRevert": true,
            "internalRevertMessage": "",
            "isContractCreation": false,
            "isFlashloan": false,
            "maxFee": "",
            "nonce": 17,
            "overwritedBlockNumber": -1,
            "priorityFee": "",
            "receiver": "0x8d12a197cb00d4747a1fe03395095ce2a5cc6819",
            "revertMessage": "",
            "sender": "0xe59d8d0861d381ef7baa8a55f9633069f37990aa",
            "simulationEnable": true,
            "sourceTxnHash": "0xaf446656d93694e4387122085857ea3a698c2397958ad0a0ad8ebed86a4e8afa",
            "status": false,
            "timestamp": "2017-12-27T21:50:29Z",
            "transactionFee": "0.001",
            "txnHash": "0xaf446656d93694e4387122085857ea3a698c2397958ad0a0ad8ebed86a4e8afa",
            "txnIndex": 85,
            "type": 0,
            "value": "0"
        },
        "fund_flow": [],
        "token_infos": [
            {
                "address": "0xc02aaa39b223fe8d0a0e5c4f27ead9083c756cc2",
                "decimals": 18
            },
            {
                "address": "0xeeeeeeeeeeeeeeeeeeeeeeeeeeeeeeeeeeeeeeee",
                "decimals": 18
            }
        ]
    },
    "address_label": {
        "labels": [
            {
                "address": "0x0000000000000000000000000000000000000002",
                "label": "Precompiled"
            },
            {
                "address": "0x0000000000000000000000000000000000000000",
                "label": "Null Address"
            },
            {
                "address": "0x0000000000000000000000000000000000000001",
                "label": "Precompiled"
            },
            {
                "address": "0x0000000000000000000000000000000000000003",
                "label": "Precompiled"
            },
            {
                "address": "0x0000000000000000000000000000000000000004",
                "label": "Precompiled"
            },
            {
                "address": "0xeeeeeeeeeeeeeeeeeeeeeeeeeeeeeeeeeeeeeeee",
                "label": "Ether"
            },
            {
                "address": "0x8d12a197cb00d4747a1fe03395095ce2a5cc6819",
                "label": "EtherDelta"
            },
            {
                "address": "0x818fc6c2ec5986bc6e2cbf00939d90556ab12ce5",
                "label": "Kin: Old Token"
            }
        ]
    },
    "trace": {
        "accountLabels": null,
        "dataMap": {
            "-1": {
                "invocation": {
                    "address": "0xe59d8d0861d381ef7baa8a55f9633069f37990aa",
                    "callData": "",
                    "decodedMethod": null,
                    "errorInfo": "",
                    "fromAddress": "",
                    "gasUsed": 0,
                    "id": -1,
                    "methodDecoded": false,
                    "operation": "",
                    "output": "",
                    "revert": false,
                    "revertMessage": "",
                    "selector": "",
                    "status": false,
                    "value": ""
                },
                "nodeType": 0
            },
            "0": {
                "invocation": {
                    "address": "0x8d12a197cb00d4747a1fe03395095ce2a5cc6819",
                    "callData": "0x000000000000000000000000818fc6c2ec5986bc6e2cbf00939d90556ab12ce5000000000000000000000000000000000000000000058ac7ba4ff69e8380000000000000000000000000000000000000000000000000000000000000000000000000000000000000000000000000000000000000000000000ffe25b1bf29000000000000000000000000000000000000000000000000000000000000004965600000000000000000000000000000000000000000000000000000000086a3aad10000000000000000000000003efd9b0bd8e4595bc494539aca584821950106ee000000000000000000000000000000000000000000000000000000000000001cedb967e7dc9fefb7089d75cebba198b4a592f52f92b44486277b24cf4c4e6b1e5bfeadf7bd1f7d1e37980d97269ccebdae07aec0da449e8574985205ca4a759300000000000000000000000000000000000000000002965e5f69ca99752d1af4",
                    "decodedMethod": {
                        "callParams": [
                            {
                                "name": "tokenGet",
                                "type": "address",
                                "value": "0x818fc6c2ec5986bc6e2cbf00939d90556ab12ce5"
                            },
                            {
                                "name": "amountGet",
                                "type": "uint256",
                                "value": "6,700,000,000,000,000,000,000,000"
                            },
                            {
                                "name": "tokenGive",
                                "type": "address",
                                "value": "0x0000000000000000000000000000000000000000"
                            },
                            {
                                "name": "amountGive",
                                "type": "uint256",
                                "value": "1,152,400,000,000,000,000"
                            },
                            {
                                "name": "expires",
                                "type": "uint256",
                                "value": "4,810,080"
                            },
                            {
                                "name": "nonce",
                                "type": "uint256",
                                "value": "2,258,873,041"
                            },
                            {
                                "name": "user",
                                "type": "address",
                                "value": "0x3efd9b0bd8e4595bc494539aca584821950106ee"
                            },
                            {
                                "name": "v",
                                "type": "uint8",
                                "value": "28"
                            },
                            {
                                "name": "r",
                                "type": "bytes32",
                                "value": "0xedb967e7dc9fefb7089d75cebba198b4a592f52f92b44486277b24cf4c4e6b1e"
                            },
                            {
                                "name": "s",
                                "type": "bytes32",
                                "value": "0x5bfeadf7bd1f7d1e37980d97269ccebdae07aec0da449e8574985205ca4a7593"
                            },
                            {
                                "name": "amount",
                                "type": "uint256",
                                "value": "3,127,947,480,851,700,431,788,788"
                            }
                        ],
                        "constructorArguments": "",
                        "name": "trade",
                        "returnParams": [],
                        "signature": "trade(address,uint256,address,uint256,uint256,uint256,address,uint8,bytes32,bytes32,uint256)"
                    },
                    "errorInfo": "invalid jump destination",
                    "fromAddress": "0xe59d8d0861d381ef7baa8a55f9633069f37990aa",
                    "gasUsed": 250000,
                    "id": 0,
                    "methodDecoded": true,
                    "operation": "CALL",
                    "output": "",
                    "revert": true,
                    "revertMessage": "",
                    "selector": "0x0a19b14a",
                    "status": false,
                    "value": "0"
                },
                "nodeType": 0
            },
            "1": {
                "invocation": {
                    "address": "0x0000000000000000000000000000000000000002",
                    "callData": "0xcb00d4747a1fe03395095ce2a5cc6819818fc6c2ec5986bc6e2cbf00939d90556ab12ce5000000000000000000000000000000000000000000058ac7ba4ff69e8380000000000000000000000000000000000000000000000000000000000000000000000000000000000000000000000ffe25b1bf29000000000000000000000000000000000000000000000000000000000000004965600000000000000000000000000000000000000000000000000000000086a3aad1",
                    "decodedMethod": {
                        "callParams": [
                            {
                                "name": "data",
                                "type": "bytes",
                                "value": "0x8d12a197cb00d4747a1fe03395095ce2a5cc6819818fc6c2ec5986bc6e2cbf00939d90556ab12ce5000000000000000000000000000000000000000000058ac7ba4ff69e8380000000000000000000000000000000000000000000000000000000000000000000000000000000000000000000000ffe25b1bf29000000000000000000000000000000000000000000000000000000000000004965600000000000000000000000000000000000000000000000000000000086a3aad1"
                            }
                        ],
                        "constructorArguments": "",
                        "name": "sha256hash",
                        "returnParams": [
                            {
                                "name": "hash",
                                "type": "bytes32",
                                "value": "0xf2881009acd00ae73ac9fb04de9a4896355352b0ddb865bed459a826af076a16"
                            }
                        ],
                        "signature": "sha256hash(bytes)"
                    },
                    "errorInfo": "",
                    "fromAddress": "0x8d12a197cb00d4747a1fe03395095ce2a5cc6819",
                    "gasUsed": 132,
                    "id": 1,
                    "methodDecoded": true,
                    "operation": "CALL",
                    "output": "0xf2881009acd00ae73ac9fb04de9a4896355352b0ddb865bed459a826af076a16",
                    "revert": true,
                    "revertMessage": "",
                    "selector": "0x8d12a197",
                    "status": true,
                    "value": "0"
                },
                "nodeType": 0
            },
            "2": {
                "invocation": {
                    "address": "0x0000000000000000000000000000000000000001",
                    "callData": "0xa2c69654152e498ce2ba698b3c45115d416f09c3954ff445f6b18ae5000000000000000000000000000000000000000000000000000000000000001cedb967e7dc9fefb7089d75cebba198b4a592f52f92b44486277b24cf4c4e6b1e5bfeadf7bd1f7d1e37980d97269ccebdae07aec0da449e8574985205ca4a7593",
                    "decodedMethod": {
                        "callParams": [
                            {
                                "name": "hash",
                                "type": "bytes32",
                                "value": "0x1248cb3fa2c69654152e498ce2ba698b3c45115d416f09c3954ff445f6b18ae5"
                            },
                            {
                                "name": "v",
                                "type": "uint256",
                                "value": "28"
                            },
                            {
                                "name": "r",
                                "type": "bytes32",
                                "value": "0xedb967e7dc9fefb7089d75cebba198b4a592f52f92b44486277b24cf4c4e6b1e"
                            },
                            {
                                "name": "s",
                                "type": "bytes32",
                                "value": "0x5bfeadf7bd1f7d1e37980d97269ccebdae07aec0da449e8574985205ca4a7593"
                            }
                        ],
                        "constructorArguments": "",
                        "name": "ecrecover",
                        "returnParams": [
                            {
                                "name": "",
                                "type": "address",
                                "value": "0x3efd9b0bd8e4595bc494539aca584821950106ee"
                            }
                        ],
                        "signature": "ecrecover(bytes32,uint256,bytes32,bytes32)"
                    },
                    "errorInfo": "",
                    "fromAddress": "0x8d12a197cb00d4747a1fe03395095ce2a5cc6819",
                    "gasUsed": 3000,
                    "id": 2,
                    "methodDecoded": true,
                    "operation": "CALL",
                    "output": "0x0000000000000000000000003efd9b0bd8e4595bc494539aca584821950106ee",
                    "revert": true,
                    "revertMessage": "",
                    "selector": "0x1248cb3f",
                    "status": true,
                    "value": "0"
                },
                "nodeType": 0
            }
        },
        "gasFlame": [
            {
                "children": [
                    {
                        "children": [
                            {
                                "children": [],
                                "depth": 0,
                                "name": "Initial Gas",
                                "value": 31448
                            },
                            {
                                "children": [
                                    {
                                        "children": [],
                                        "depth": 1,
                                        "name": "sha256hash",
                                        "value": 132
                                    },
                                    {
                                        "children": [],
                                        "depth": 1,
                                        "name": "ecrecover",
                                        "value": 3000
                                    }
                                ],
                                "depth": 0,
                                "name": "Executed Gas",
                                "value": 218552
                            }
                        ],
                        "depth": -1,
                        "name": "Actual Gas Used",
                        "value": 250000
                    },
                    {
                        "children": [],
                        "depth": -1,
                        "name": "Refunded Gas",
                        "value": 0
                    }
                ],
                "depth": -2,
                "name": "Total Gas",
                "value": 250000
            }
        ],
        "isConfirmed": true,
        "mainTrace": [
            {
                "children": [
                    {
                        "children": [
                            {
                                "children": [],
                                "depth": 1,
                                "id": 1,
                                "order": 1
                            },
                            {
                                "children": [],
                                "depth": 1,
                                "id": 2,
                                "order": 2
                            }
                        ],
                        "depth": 0,
                        "id": 0,
                        "order": 0
                    }
                ],
                "depth": -1,
                "id": -1,
                "order": -1
            }
        ],
        "mainTraceNodeCount": 3,
        "parentIdMap": {
            "0": -1,
            "1": 0,
            "2": 0
        },
        "tidyTrace": [
            {
                "children": [
                    {
                        "children": [
                            {
                                "children": [],
                                "depth": 1,
                                "id": 1,
                                "order": 1
                            },
                            {
                                "children": [],
                                "depth": 1,
                                "id": 2,
                                "order": 2
                            }
                        ],
                        "depth": 0,
                        "id": 0,
                        "order": 0
                    }
                ],
                "depth": -1,
                "id": -1,
                "order": -1
            }
        ],
        "tidyTraceNodeCount": 3
    },
    "state_change": {
        "stateChanges": []
    }
}