{
    "balance_change": {
        "balanceChanges": []
    },
    "profile": {
        "basic_info": {
            "baseFee": "106.236351371",
            "blockNumber": 14061373,
            "callData": "0x095ea7b300000000000000000000000011111112542d85b3ef69ae05771c2dccff4faa26ffffffffffffffffffffffffffffffffffffffffffffffffffffffffffffffff",
            "debugEnable": true,
            "errorInfo": "",
            "eventCount": 1,
            "feeRecipient": "0x7f101fe45e6649a6fb8f3f8b43ed03d353f2b90c",
            "formatValue": "0",
            "gasLimit": 69826,
            "gasPrice": "108.261180504",
            "gasUsed": 46551,
            "intTxnCount": 0,
            "internalRevert": false,
            "internalRevertMessage": "",
            "isContractCreation": false,
            "isFlashloan": false,
            "maxFee": "",
            "nonce": 2,
            "overwritedBlockNumber": -1,
            "priorityFee": "",
            "receiver": "0x95ad61b0a150d79219dcf64e1e6cc01f0b64c4ce",
            "revertMessage": "",
            "sender": "0x31d3c543869f860d514686a42ad947ca4b7cfe5b",
            "simulationEnable": true,
            "sourceTxnHash": "0xaf6d5982cb3ec5ff1541c9308def0d3dab1e9d3571b200b643f30774570ba58b",
            "status": true,
            "timestamp": "2022-01-23T10:42:45Z",
            "transactionFee": "0.005039666213641704",
            "txnHash": "0xaf6d5982cb3ec5ff1541c9308def0d3dab1e9d3571b200b643f30774570ba58b",
            "txnIndex": 23,
            "type": 0,
            "value": "0"
        },
        "fund_flow": [],
        "token_infos": [
            {
                "address": "0xc02aaa39b223fe8d0a0e5c4f27ead9083c756cc2",
                "decimals": 18
            },
            {
                "address": "0xeeeeeeeeeeeeeeeeeeeeeeeeeeeeeeeeeeeeeeee",
                "decimals": 18
            }
        ]
    },
    "address_label": {
        "labels": [
            {
                "address": "0x0000000000000000000000000000000000000002",
                "label": "Precompiled"
            },
            {
                "address": "0x0000000000000000000000000000000000000003",
                "label": "Precompiled"
            },
            {
                "address": "0x0000000000000000000000000000000000000004",
                "label": "Precompiled"
            },
            {
                "address": "0xeeeeeeeeeeeeeeeeeeeeeeeeeeeeeeeeeeeeeeee",
                "label": "Ether"
            },
            {
                "address": "0x95ad61b0a150d79219dcf64e1e6cc01f0b64c4ce",
                "label": "Shiba Inu: SHIB Token"
            },
            {
                "address": "0x11111112542d85b3ef69ae05771c2dccff4faa26",
                "label": "1inch v3: Aggregation Router"
            },
            {
                "address": "0x0000000000000000000000000000000000000001",
                "label": "Precompiled"
            }
        ]
    },
    "trace": {
        "accountLabels": null,
        "dataMap": {
            "-1": {
                "invocation": {
                    "address": "0x31d3c543869f860d514686a42ad947ca4b7cfe5b",
                    "callData": "",
                    "decodedMethod": null,
                    "errorInfo": "",
                    "fromAddress": "",
                    "gasUsed": 0,
                    "id": -1,
                    "methodDecoded": false,
                    "operation": "",
                    "output": "",
                    "revert": false,
                    "revertMessage": "",
                    "selector": "",
                    "status": false,
                    "value": ""
                },
                "nodeType": 0
            },
            "0": {
                "invocation": {
                    "address": "0x95ad61b0a150d79219dcf64e1e6cc01f0b64c4ce",
                    "callData": "0x00000000000000000000000011111112542d85b3ef69ae05771c2dccff4faa26ffffffffffffffffffffffffffffffffffffffffffffffffffffffffffffffff",
                    "decodedMethod": {
                        "callParams": [
                            {
                                "name": "spender",
                                "type": "address",
                                "value": "0x11111112542d85b3ef69ae05771c2dccff4faa26"
                            },
                            {
                                "decimalAvailable": true,
                                "name": "value",
                                "type": "uint256",
                                "value": "115,792,089,237,316,195,423,570,985,008,687,907,853,269,984,665,640,564,039,457,584,007,913,129,639,935"
                            }
                        ],
                        "constructorArguments": "",
                        "name": "approve",
                        "returnParams": [
                            {
                                "name": "",
                                "type": "bool",
                                "value": true
                            }
                        ],
                        "signature": "approve(address,uint256)"
                    },
                    "errorInfo": "",
                    "fromAddress": "0x31d3c543869f860d514686a42ad947ca4b7cfe5b",
                    "gasUsed": 46551,
                    "id": 0,
                    "methodDecoded": true,
                    "operation": "CALL",
                    "output": "0x0000000000000000000000000000000000000000000000000000000000000001",
                    "revert": false,
                    "revertMessage": "",
                    "selector": "0x095ea7b3",
                    "status": true,
                    "value": "0"
                },
                "nodeType": 0
            },
            "1": {
                "event": {
                    "contract": "0x95ad61b0a150d79219dcf64e1e6cc01f0b64c4ce",
                    "decodedLog": {
                        "name": "Approval",
                        "params": [
                            {
                                "name": "owner",
                                "type": "address",
                                "value": "0x31d3c543869f860d514686a42ad947ca4b7cfe5b"
                            },
                            {
                                "name": "spender",
                                "type": "address",
                                "value": "0x11111112542d85b3ef69ae05771c2dccff4faa26"
                            },
                            {
                                "decimalAvailable": true,
                                "name": "value",
                                "type": "uint256",
                                "value": "115,792,089,237,316,195,423,570,985,008,687,907,853,269,984,665,640,564,039,457,584,007,913,129,639,935"
                            }
                        ],
                        "signature": "Approval(address,address,uint256)"
                    },
                    "id": 1,
                    "logData": "0xffffffffffffffffffffffffffffffffffffffffffffffffffffffffffffffff",
                    "logDecoded": true,
                    "operation": "EVENT",
                    "revert": false,
                    "status": true,
                    "topics": [
                        "0x8c5be1e5ebec7d5bd14f71427d1e84f3dd0314c0f7b2291e5b200ac8c7c3b925",
                        "0x00000000000000000000000031d3c543869f860d514686a42ad947ca4b7cfe5b",
                        "0x00000000000000000000000011111112542d85b3ef69ae05771c2dccff4faa26"
                    ]
                },
                "nodeType": 1
            }
        },
        "gasFlame": [
            {
                "children": [
                    {
                        "children": [
                            {
                                "children": [],
                                "depth": 0,
                                "name": "Initial Gas",
                                "value": 21944
                            },
                            {
                                "children": [],
                                "depth": 0,
                                "name": "Executed Gas",
                                "value": 24607
                            }
                        ],
                        "depth": -1,
                        "name": "Actual Gas Used",
                        "value": 46551
                    },
                    {
                        "children": [],
                        "depth": -1,
                        "name": "Refunded Gas",
                        "value": 0
                    }
                ],
                "depth": -2,
                "name": "Total Gas",
                "value": 46551
            }
        ],
        "isConfirmed": true,
        "mainTrace": [
            {
                "children": [
                    {
                        "children": [
                            {
                                "children": [],
                                "depth": 1,
                                "id": 1,
                                "order": 1
                            }
                        ],
                        "depth": 0,
                        "id": 0,
                        "order": 0
                    }
                ],
                "depth": -1,
                "id": -1,
                "order": -1
            }
        ],
        "mainTraceNodeCount": 2,
        "parentIdMap": {
            "0": -1,
            "1": 0
        },
        "tidyTrace": [
            {
                "children": [
                    {
                        "children": [
                            {
                                "children": [],
                                "depth": 1,
                                "id": 1,
                                "order": 1
                            }
                        ],
                        "depth": 0,
                        "id": 0,
                        "order": 0
                    }
                ],
                "depth": -1,
                "id": -1,
                "order": -1
            }
        ],
        "tidyTraceNodeCount": 2
    },
    "state_change": {
        "stateChanges": [
            {
                "address": "0x95ad61b0a150d79219dcf64e1e6cc01f0b64c4ce",
                "erc": "ERC-20",
                "slots": [
                    {
                        "current": "0xffffffffffffffffffffffffffffffffffffffffffffffffffffffffffffffff",
                        "key": "0xa9735d789e289974e5671f72550272b33f86441373d0c4ff73c38c031b3a637a",
                        "prev": "0x0000000000000000000000000000000000000000000000000000000000000000"
                    }
                ],
                "storageVariables": [
                    {
                        "name": "_allowances",
                        "type": "mapping(address => mapping(address => uint256))",
                        "value": {
                            "pairs": [
                                {
                                    "key": "0x31d3c543869f860d514686a42ad947ca4b7cfe5b",
                                    "value": {
                                        "pairs": [
                                            {
                                                "key": "0x11111112542d85b3ef69ae05771c2dccff4faa26",
                                                "value": {
                                                    "current": "115792089237316195423570985008687907853269984665640564039457584007913129639935",
                                                    "prev": "0",
                                                    "typeTag": 1
                                                }
                                            }
                                        ],
                                        "typeTag": 4
                                    }
                                }
                            ],
                            "typeTag": 4
                        }
                    }
                ]
            }
        ]
    }
}