{
    "balance_change": {
        "balanceChanges": [
            {
                "account": "0xec82f0622ad766459f3451ef64dabe9549f48795",
                "assets": [
                    {
                        "address": "0x457476bc97adef10aba63fcadaefe503553fa0d2",
                        "amount": "0.0000014",
                        "iconUrl": "",
                        "isERC1155": false,
                        "isERC721": false,
                        "sign": false,
                        "value": ""
                    }
                ]
            },
            {
                "account": "0xd4b4af092c2a021fcd45fbda68061af5758ef58d",
                "assets": [
                    {
                        "address": "0x457476bc97adef10aba63fcadaefe503553fa0d2",
                        "amount": "0.0000014",
                        "iconUrl": "",
                        "isERC1155": false,
                        "isERC721": false,
                        "sign": true,
                        "value": ""
                    }
                ]
            }
        ]
    },
    "profile": {
        "basic_info": {
            "baseFee": "",
            "blockNumber": 8757264,
            "callData": "0xa9059cbb000000000000000000000000d4b4af092c2a021fcd45fbda68061af5758ef58d00000000000000000000000000000000000000000000000000000145f680b000",
            "debugEnable": true,
            "errorInfo": "",
            "eventCount": 1,
            "feeRecipient": "0x5a0b54d5dc17e0aadc383d2db43b0a0d3e029c4c",
            "formatValue": "0",
            "gasLimit": 470000,
            "gasPrice": "2",
            "gasUsed": 52354,
            "intTxnCount": 0,
            "internalRevert": false,
            "internalRevertMessage": "",
            "isContractCreation": false,
            "isFlashloan": false,
            "maxFee": "",
            "nonce": 2188,
            "overwritedBlockNumber": -1,
            "priorityFee": "",
            "receiver": "0x457476bc97adef10aba63fcadaefe503553fa0d2",
            "revertMessage": "",
            "sender": "0xec82f0622ad766459f3451ef64dabe9549f48795",
            "simulationEnable": true,
            "sourceTxnHash": "0xafa32171a6327eb4e3108af15781824845632f6764a41b6d9066d494566eae27",
            "status": true,
            "timestamp": "2019-10-17T07:30:28Z",
            "transactionFee": "0.000104708",
            "txnHash": "0xafa32171a6327eb4e3108af15781824845632f6764a41b6d9066d494566eae27",
            "txnIndex": 85,
            "type": 0,
            "value": "0"
        },
        "fund_flow": [
            {
                "amount": "0.0000014",
                "from": "0xec82f0622ad766459f3451ef64dabe9549f48795",
                "id": 1,
                "isERC1155": false,
                "isERC721": false,
                "isReverted": false,
                "order": 1,
                "to": "0xd4b4af092c2a021fcd45fbda68061af5758ef58d",
                "token": "0x457476bc97adef10aba63fcadaefe503553fa0d2"
            }
        ],
        "token_infos": [
            {
                "address": "0x457476bc97adef10aba63fcadaefe503553fa0d2",
                "decimals": 18
            },
            {
                "address": "0xc02aaa39b223fe8d0a0e5c4f27ead9083c756cc2",
                "decimals": 18
            },
            {
                "address": "0xeeeeeeeeeeeeeeeeeeeeeeeeeeeeeeeeeeeeeeee",
                "decimals": 18
            }
        ]
    },
    "address_label": {
        "labels": [
            {
                "address": "0x0000000000000000000000000000000000000003",
                "label": "Precompiled"
            },
            {
                "address": "0x0000000000000000000000000000000000000004",
                "label": "Precompiled"
            },
            {
                "address": "0xeeeeeeeeeeeeeeeeeeeeeeeeeeeeeeeeeeeeeeee",
                "label": "Ether"
            },
            {
                "address": "0x457476bc97adef10aba63fcadaefe503553fa0d2",
                "label": "UBNK (UBNK)"
            },
            {
                "address": "0x0000000000000000000000000000000000000001",
                "label": "Precompiled"
            },
            {
                "address": "0x0000000000000000000000000000000000000002",
                "label": "Precompiled"
            }
        ]
    },
    "trace": {
        "accountLabels": null,
        "dataMap": {
            "-1": {
                "invocation": {
                    "address": "0xec82f0622ad766459f3451ef64dabe9549f48795",
                    "callData": "",
                    "decodedMethod": null,
                    "errorInfo": "",
                    "fromAddress": "",
                    "gasUsed": 0,
                    "id": -1,
                    "methodDecoded": false,
                    "operation": "",
                    "output": "",
                    "revert": false,
                    "revertMessage": "",
                    "selector": "",
                    "status": false,
                    "value": ""
                },
                "nodeType": 0
            },
            "0": {
                "invocation": {
                    "address": "0x457476bc97adef10aba63fcadaefe503553fa0d2",
                    "callData": "0x000000000000000000000000d4b4af092c2a021fcd45fbda68061af5758ef58d00000000000000000000000000000000000000000000000000000145f680b000",
                    "decodedMethod": {
                        "callParams": [
                            {
                                "name": "_to",
                                "type": "address",
                                "value": "0xd4b4af092c2a021fcd45fbda68061af5758ef58d"
                            },
                            {
                                "decimalAvailable": true,
                                "name": "_value",
                                "type": "uint256",
                                "value": "1,400,000,000,000"
                            }
                        ],
                        "constructorArguments": "",
                        "name": "transfer",
                        "returnParams": [
                            {
                                "name": "_success",
                                "type": "bool",
                                "value": true
                            }
                        ],
                        "signature": "transfer(address,uint256)"
                    },
                    "errorInfo": "",
                    "fromAddress": "0xec82f0622ad766459f3451ef64dabe9549f48795",
                    "gasUsed": 52354,
                    "id": 0,
                    "methodDecoded": true,
                    "operation": "CALL",
                    "output": "0x0000000000000000000000000000000000000000000000000000000000000001",
                    "revert": false,
                    "revertMessage": "",
                    "selector": "0xa9059cbb",
                    "status": true,
                    "value": "0"
                },
                "nodeType": 0
            },
            "1": {
                "event": {
                    "contract": "0x457476bc97adef10aba63fcadaefe503553fa0d2",
                    "decodedLog": {
                        "name": "Transfer",
                        "params": [
                            {
                                "name": "_from",
                                "type": "address",
                                "value": "0xec82f0622ad766459f3451ef64dabe9549f48795"
                            },
                            {
                                "name": "_to",
                                "type": "address",
                                "value": "0xd4b4af092c2a021fcd45fbda68061af5758ef58d"
                            },
                            {
                                "decimalAvailable": true,
                                "name": "_value",
                                "type": "uint256",
                                "value": "1,400,000,000,000"
                            }
                        ],
                        "signature": "Transfer(address,address,uint256)"
                    },
                    "id": 1,
                    "logData": "0x00000000000000000000000000000000000000000000000000000145f680b000",
                    "logDecoded": true,
                    "operation": "EVENT",
                    "revert": false,
                    "status": true,
                    "topics": [
                        "0xddf252ad1be2c89b69c2b068fc378daa952ba7f163c4a11628f55a4df523b3ef",
                        "0x000000000000000000000000ec82f0622ad766459f3451ef64dabe9549f48795",
                        "0x000000000000000000000000d4b4af092c2a021fcd45fbda68061af5758ef58d"
                    ]
                },
                "nodeType": 1
            }
        },
        "gasFlame": [
            {
                "children": [
                    {
                        "children": [
                            {
                                "children": [],
                                "depth": 0,
                                "name": "Initial Gas",
                                "value": 23128
                            },
                            {
                                "children": [],
                                "depth": 0,
                                "name": "Executed Gas",
                                "value": 29226
                            }
                        ],
                        "depth": -1,
                        "name": "Actual Gas Used",
                        "value": 52354
                    },
                    {
                        "children": [],
                        "depth": -1,
                        "name": "Refunded Gas",
                        "value": 0
                    }
                ],
                "depth": -2,
                "name": "Total Gas",
                "value": 52354
            }
        ],
        "isConfirmed": true,
        "mainTrace": [
            {
                "children": [
                    {
                        "children": [
                            {
                                "children": [],
                                "depth": 1,
                                "id": 1,
                                "order": 1
                            }
                        ],
                        "depth": 0,
                        "id": 0,
                        "order": 0
                    }
                ],
                "depth": -1,
                "id": -1,
                "order": -1
            }
        ],
        "mainTraceNodeCount": 2,
        "parentIdMap": {
            "0": -1,
            "1": 0
        },
        "tidyTrace": [
            {
                "children": [
                    {
                        "children": [
                            {
                                "children": [],
                                "depth": 1,
                                "id": 1,
                                "order": 1
                            }
                        ],
                        "depth": 0,
                        "id": 0,
                        "order": 0
                    }
                ],
                "depth": -1,
                "id": -1,
                "order": -1
            }
        ],
        "tidyTraceNodeCount": 2
    },
    "state_change": {
        "stateChanges": [
            {
                "address": "0x457476bc97adef10aba63fcadaefe503553fa0d2",
                "erc": "ERC-20",
                "slots": [
                    {
                        "current": "0x0000000000000000000000000000000000000000000000000d96b1be535a7064",
                        "key": "0x229ec6bceffe6d5f305c7d236a7461e25d9263f9cebd6772254f763699a5b2ff",
                        "prev": "0x0000000000000000000000000000000000000000000000000d96b30449db2064"
                    },
                    {
                        "current": "0x00000000000000000000000000000000000000000000000000000145f680b000",
                        "key": "0x53b76784d8427a39d1fc28f8bcbd088d1392f96d7af62194b272d36c37221df5",
                        "prev": "0x0000000000000000000000000000000000000000000000000000000000000000"
                    }
                ],
                "storageVariables": [
                    {
                        "name": "balanceP",
                        "type": "mapping(address => uint256)",
                        "value": {
                            "pairs": [
                                {
                                    "key": "0xd4b4af092c2a021fcd45fbda68061af5758ef58d",
                                    "value": {
                                        "current": "1400000000000",
                                        "prev": "0",
                                        "typeTag": 1
                                    }
                                },
                                {
                                    "key": "0xec82f0622ad766459f3451ef64dabe9549f48795",
                                    "value": {
                                        "current": "979165400000000100",
                                        "prev": "979166800000000100",
                                        "typeTag": 1
                                    }
                                }
                            ],
                            "typeTag": 4
                        }
                    }
                ]
            }
        ]
    }
}