{
    "balance_change": {
        "balanceChanges": []
    },
    "profile": {
        "basic_info": {
            "baseFee": "2.460302029",
            "blockNumber": 20375868,
            "callData": "0xccf4132d0000000000000000000000000000000000000000000000000000000000000003000000000000000000000000000000000000000000000000000000000000006000000000000000000000000000000000000000000000000000000000000069a10000000000000000000000000000000000000000000000000000000000000013eaf492fbfe15a1d9b0737205b060d5e5fac9abf4a467deeebde30879e02882736a937d80e2ef27b2e228b870480ff8a0c531f0ae6d67459acfd201607e22256b9d42e492379efe257d5ca0b48c50af3afe57ce13c7eb153463993b488171b3c4c89efbf294a0eb8c4c942dd845c87f160a3f6db764f7aeae6d05cdbe192eed5cafd6cdf0da4c5b6046756006b30dd97bce043ff71187ad6d59210dc64c732681a1029cac2db6078dc2760bdcdda8331168665bbc6507d7185728e9965615f38b370d49b30c77e523c753a8acb84681d8e0d8a84b066dcaeba42bfe23f77381585d6d6bd8f7b8b7be5cc7bb8caa095e428353d36e714bb09d330421e84281298085630240af6269f977464467867dd36f3b8feee97efee21c1bfaa87ad472a47ea1de81ca8e92d684b12fb1dc0ea34d25c611da824b57739f1761d8f60937c14416be5d5f11b2a328ee3ae132addd973d6e5c7ff473da89089db726ba0fefe2e8887464b6579fa8dd0c9dac59369034ddd0a3db4afdd869470271a28b83bc3eebaf437dfd5d59375c08b9f633d9e62884e9b901413172ba89e50d092994719d301e808ddcd066b9e5ecea2709b8b9b8bc564947a434da6bc29cd16ea009abcc7c678fa32d6150504f8ec1cfdeaae1fcd6f20b971a6318a71b296e9864d135454798581ea98bd05c1be310c9f39a8bfacc332f42ef49fdce2b8476d4a4b695675d063773f2f9c94d7b1c0a741404654c5d350dfeccb7ffcbfb0bed5f361f0ab35fdcd808cafac39783c378d9b277756f500139168f874a69b36438026aec0881f2e117b3164879901574eecff99d80cfeaa1e4cde9a9ead2f8bb79bcab3a99e83e",
            "debugEnable": true,
            "errorInfo": "",
            "eventCount": 0,
            "feeRecipient": "0x95222290dd7278aa3ddd389cc1e1d165cc4bafe5",
            "formatValue": "0",
            "gasLimit": 47575,
            "gasPrice": "3.319036054",
            "gasUsed": 31364,
            "intTxnCount": 0,
            "internalRevert": false,
            "internalRevertMessage": "",
            "isContractCreation": false,
            "isFlashloan": false,
            "maxFee": "4.14694223",
            "nonce": 418,
            "overwritedBlockNumber": -1,
            "priorityFee": "0.858734025",
            "receiver": "0x8e84a3b8e0b074c149b8277c753dc6396bb95f48",
            "revertMessage": "",
            "sender": "0x416f990e0374c32f4f5056d0532834230a2ec074",
            "simulationEnable": true,
            "sourceTxnHash": "0xaf433c2840ebbd104e4fbc119f79968bfdeaa6a0f16e8100eea9bb9c0dd4babb",
            "status": true,
            "timestamp": "2024-07-24T10:40:59Z",
            "transactionFee": "0.000104098246797656",
            "txnHash": "0xaf433c2840ebbd104e4fbc119f79968bfdeaa6a0f16e8100eea9bb9c0dd4babb",
            "txnIndex": 100,
            "type": 2,
            "value": "0"
        },
        "fund_flow": [],
        "token_infos": [
            {
                "address": "0xc02aaa39b223fe8d0a0e5c4f27ead9083c756cc2",
                "decimals": 18
            },
            {
                "address": "0xeeeeeeeeeeeeeeeeeeeeeeeeeeeeeeeeeeeeeeee",
                "decimals": 18
            }
        ]
    },
    "address_label": {
        "labels": [
            {
                "address": "0x0000000000000000000000000000000000000003",
                "label": "Precompiled"
            },
            {
                "address": "0x0000000000000000000000000000000000000004",
                "label": "Precompiled"
            },
            {
                "address": "0xeeeeeeeeeeeeeeeeeeeeeeeeeeeeeeeeeeeeeeee",
                "label": "Ether"
            },
            {
                "address": "0x0000000000000000000000000000000000000001",
                "label": "Precompiled"
            },
            {
                "address": "0x0000000000000000000000000000000000000002",
                "label": "Precompiled"
            }
        ]
    },
    "trace": {
        "accountLabels": null,
        "dataMap": {
            "-1": {
                "invocation": {
                    "address": "0x416f990e0374c32f4f5056d0532834230a2ec074",
                    "callData": "",
                    "decodedMethod": null,
                    "errorInfo": "",
                    "fromAddress": "",
                    "gasUsed": 0,
                    "id": -1,
                    "methodDecoded": false,
                    "operation": "",
                    "output": "",
                    "revert": false,
                    "revertMessage": "",
                    "selector": "",
                    "status": false,
                    "value": ""
                },
                "nodeType": 0
            },
            "0": {
                "invocation": {
                    "address": "0x8e84a3b8e0b074c149b8277c753dc6396bb95f48",
                    "callData": "0x0000000000000000000000000000000000000000000000000000000000000003000000000000000000000000000000000000000000000000000000000000006000000000000000000000000000000000000000000000000000000000000069a10000000000000000000000000000000000000000000000000000000000000013eaf492fbfe15a1d9b0737205b060d5e5fac9abf4a467deeebde30879e02882736a937d80e2ef27b2e228b870480ff8a0c531f0ae6d67459acfd201607e22256b9d42e492379efe257d5ca0b48c50af3afe57ce13c7eb153463993b488171b3c4c89efbf294a0eb8c4c942dd845c87f160a3f6db764f7aeae6d05cdbe192eed5cafd6cdf0da4c5b6046756006b30dd97bce043ff71187ad6d59210dc64c732681a1029cac2db6078dc2760bdcdda8331168665bbc6507d7185728e9965615f38b370d49b30c77e523c753a8acb84681d8e0d8a84b066dcaeba42bfe23f77381585d6d6bd8f7b8b7be5cc7bb8caa095e428353d36e714bb09d330421e84281298085630240af6269f977464467867dd36f3b8feee97efee21c1bfaa87ad472a47ea1de81ca8e92d684b12fb1dc0ea34d25c611da824b57739f1761d8f60937c14416be5d5f11b2a328ee3ae132addd973d6e5c7ff473da89089db726ba0fefe2e8887464b6579fa8dd0c9dac59369034ddd0a3db4afdd869470271a28b83bc3eebaf437dfd5d59375c08b9f633d9e62884e9b901413172ba89e50d092994719d301e808ddcd066b9e5ecea2709b8b9b8bc564947a434da6bc29cd16ea009abcc7c678fa32d6150504f8ec1cfdeaae1fcd6f20b971a6318a71b296e9864d135454798581ea98bd05c1be310c9f39a8bfacc332f42ef49fdce2b8476d4a4b695675d063773f2f9c94d7b1c0a741404654c5d350dfeccb7ffcbfb0bed5f361f0ab35fdcd808cafac39783c378d9b277756f500139168f874a69b36438026aec0881f2e117b3164879901574eecff99d80cfeaa1e4cde9a9ead2f8bb79bcab3a99e83e",
                    "decodedMethod": {
                        "callParams": [
                            {
                                "name": "airdropId",
                                "type": "uint256",
                                "value": "3"
                            },
                            {
                                "name": "proof",
                                "type": "bytes32[]",
                                "value": [
                                    "0xeaf492fbfe15a1d9b0737205b060d5e5fac9abf4a467deeebde30879e0288273",
                                    "0x6a937d80e2ef27b2e228b870480ff8a0c531f0ae6d67459acfd201607e22256b",
                                    "0x9d42e492379efe257d5ca0b48c50af3afe57ce13c7eb153463993b488171b3c4",
                                    "0xc89efbf294a0eb8c4c942dd845c87f160a3f6db764f7aeae6d05cdbe192eed5c",
                                    "0xafd6cdf0da4c5b6046756006b30dd97bce043ff71187ad6d59210dc64c732681",
                                    "0xa1029cac2db6078dc2760bdcdda8331168665bbc6507d7185728e9965615f38b",
                                    "0x370d49b30c77e523c753a8acb84681d8e0d8a84b066dcaeba42bfe23f7738158",
                                    "0x5d6d6bd8f7b8b7be5cc7bb8caa095e428353d36e714bb09d330421e842812980",
                                    "0x85630240af6269f977464467867dd36f3b8feee97efee21c1bfaa87ad472a47e",
                                    "0xa1de81ca8e92d684b12fb1dc0ea34d25c611da824b57739f1761d8f60937c144",
                                    "0x16be5d5f11b2a328ee3ae132addd973d6e5c7ff473da89089db726ba0fefe2e8",
                                    "0x887464b6579fa8dd0c9dac59369034ddd0a3db4afdd869470271a28b83bc3eeb",
                                    "0xaf437dfd5d59375c08b9f633d9e62884e9b901413172ba89e50d092994719d30",
                                    "0x1e808ddcd066b9e5ecea2709b8b9b8bc564947a434da6bc29cd16ea009abcc7c",
                                    "0x678fa32d6150504f8ec1cfdeaae1fcd6f20b971a6318a71b296e9864d1354547",
                                    "0x98581ea98bd05c1be310c9f39a8bfacc332f42ef49fdce2b8476d4a4b695675d",
                                    "0x063773f2f9c94d7b1c0a741404654c5d350dfeccb7ffcbfb0bed5f361f0ab35f",
                                    "0xdcd808cafac39783c378d9b277756f500139168f874a69b36438026aec0881f2",
                                    "0xe117b3164879901574eecff99d80cfeaa1e4cde9a9ead2f8bb79bcab3a99e83e"
                                ]
                            },
                            {
                                "name": "amount",
                                "type": "uint256",
                                "value": "27,041"
                            }
                        ],
                        "constructorArguments": "",
                        "name": "burnKreditsAndMint",
                        "returnParams": [],
                        "signature": "burnKreditsAndMint(uint256,bytes32[],uint256)"
                    },
                    "errorInfo": "",
                    "fromAddress": "0x416f990e0374c32f4f5056d0532834230a2ec074",
                    "gasUsed": 31364,
                    "id": 0,
                    "methodDecoded": true,
                    "operation": "CALL",
                    "output": "",
                    "revert": false,
                    "revertMessage": "",
                    "selector": "0xccf4132d",
                    "status": true,
                    "value": "0"
                },
                "nodeType": 0
            }
        },
        "gasFlame": [
            {
                "children": [
                    {
                        "children": [
                            {
                                "children": [],
                                "depth": 0,
                                "name": "Initial Gas",
                                "value": 31364
                            },
                            {
                                "children": [],
                                "depth": 0,
                                "name": "Executed Gas",
                                "value": 0
                            }
                        ],
                        "depth": -1,
                        "name": "Actual Gas Used",
                        "value": 31364
                    },
                    {
                        "children": [],
                        "depth": -1,
                        "name": "Refunded Gas",
                        "value": 0
                    }
                ],
                "depth": -2,
                "name": "Total Gas",
                "value": 31364
            }
        ],
        "isConfirmed": true,
        "mainTrace": [
            {
                "children": [
                    {
                        "children": [],
                        "depth": 0,
                        "id": 0,
                        "order": 0
                    }
                ],
                "depth": -1,
                "id": -1,
                "order": -1
            }
        ],
        "mainTraceNodeCount": 1,
        "parentIdMap": {
            "0": -1
        },
        "tidyTrace": [
            {
                "children": [
                    {
                        "children": [],
                        "depth": 0,
                        "id": 0,
                        "order": 0
                    }
                ],
                "depth": -1,
                "id": -1,
                "order": -1
            }
        ],
        "tidyTraceNodeCount": 1
    },
    "state_change": {
        "stateChanges": []
    }
}