{
    "balance_change": {
        "balanceChanges": [
            {
                "account": "0x48c04ed5691981c42154c6167398f95e8f38a7ff",
                "assets": [
                    {
                        "address": "0x6de037ef9ad2725eb40118bb1702ebb27e4aeb24",
                        "amount": "47.7650517",
                        "iconUrl": "https://assets.blocksec.com/icon/6c26f87685a6412859bba1e0c89004d66add895d445c9f5310994f4fa8be5731.png",
                        "isERC1155": false,
                        "isERC721": false,
                        "sign": false,
                        "value": "436.09492202100003735"
                    }
                ]
            },
            {
                "account": "0x49c8342982e61f096cb4091bf053e112a9832015",
                "assets": [
                    {
                        "address": "0x6de037ef9ad2725eb40118bb1702ebb27e4aeb24",
                        "amount": "47.7650517",
                        "iconUrl": "https://assets.blocksec.com/icon/6c26f87685a6412859bba1e0c89004d66add895d445c9f5310994f4fa8be5731.png",
                        "isERC1155": false,
                        "isERC721": false,
                        "sign": true,
                        "value": "436.09492202100003735"
                    }
                ]
            }
        ]
    },
    "profile": {
        "basic_info": {
            "baseFee": "11.845120377",
            "blockNumber": 19630127,
            "callData": "0xa9059cbb00000000000000000000000049c8342982e61f096cb4091bf053e112a983201500000000000000000000000000000000000000000000000296df8d7378ab0800",
            "debugEnable": true,
            "errorInfo": "",
            "eventCount": 1,
            "feeRecipient": "0x95222290dd7278aa3ddd389cc1e1d165cc4bafe5",
            "formatValue": "0",
            "gasLimit": 65336,
            "gasPrice": "12",
            "gasUsed": 59396,
            "intTxnCount": 1,
            "internalRevert": false,
            "internalRevertMessage": "",
            "isContractCreation": false,
            "isFlashloan": false,
            "maxFee": "",
            "nonce": 989438,
            "overwritedBlockNumber": -1,
            "priorityFee": "",
            "receiver": "0x6de037ef9ad2725eb40118bb1702ebb27e4aeb24",
            "revertMessage": "",
            "sender": "0x48c04ed5691981c42154c6167398f95e8f38a7ff",
            "simulationEnable": true,
            "sourceTxnHash": "0xafd33c895f40536383a0f67b75b15653fc87df75b539876c7d0e3748d2412a4e",
            "status": true,
            "timestamp": "2024-04-11T04:53:35Z",
            "transactionFee": "0.000712752",
            "txnHash": "0xafd33c895f40536383a0f67b75b15653fc87df75b539876c7d0e3748d2412a4e",
            "txnIndex": 72,
            "type": 0,
            "value": "0"
        },
        "fund_flow": [
            {
                "amount": "47.7650517",
                "from": "0x48c04ed5691981c42154c6167398f95e8f38a7ff",
                "id": 1,
                "isERC1155": false,
                "isERC721": false,
                "isReverted": false,
                "order": 1,
                "to": "0x49c8342982e61f096cb4091bf053e112a9832015",
                "token": "0x6de037ef9ad2725eb40118bb1702ebb27e4aeb24"
            }
        ],
        "token_infos": [
            {
                "address": "0x6de037ef9ad2725eb40118bb1702ebb27e4aeb24",
                "decimals": 18
            },
            {
                "address": "0xc02aaa39b223fe8d0a0e5c4f27ead9083c756cc2",
                "decimals": 18
            },
            {
                "address": "0xeeeeeeeeeeeeeeeeeeeeeeeeeeeeeeeeeeeeeeee",
                "decimals": 18
            }
        ]
    },
    "address_label": {
        "labels": [
            {
                "address": "0x0000000000000000000000000000000000000001",
                "label": "Precompiled"
            },
            {
                "address": "0x0000000000000000000000000000000000000002",
                "label": "Precompiled"
            },
            {
                "address": "0x0000000000000000000000000000000000000003",
                "label": "Precompiled"
            },
            {
                "address": "0x0000000000000000000000000000000000000004",
                "label": "Precompiled"
            },
            {
                "address": "0xeeeeeeeeeeeeeeeeeeeeeeeeeeeeeeeeeeeeeeee",
                "label": "Ether"
            },
            {
                "address": "0x1a1fdf27c5e6784d1cebf256a8a5cc0877e73af0",
                "label": "Render Token (RNDR)"
            },
            {
                "address": "0x6de037ef9ad2725eb40118bb1702ebb27e4aeb24",
                "label": "Render : RNDR Token"
            },
            {
                "address": "0x48c04ed5691981c42154c6167398f95e8f38a7ff",
                "label": "ChangeNOW 3"
            }
        ]
    },
    "trace": {
        "accountLabels": null,
        "dataMap": {
            "-1": {
                "invocation": {
                    "address": "0x48c04ed5691981c42154c6167398f95e8f38a7ff",
                    "callData": "",
                    "decodedMethod": null,
                    "errorInfo": "",
                    "fromAddress": "",
                    "gasUsed": 0,
                    "id": -1,
                    "methodDecoded": false,
                    "operation": "",
                    "output": "",
                    "revert": false,
                    "revertMessage": "",
                    "selector": "",
                    "status": false,
                    "value": ""
                },
                "nodeType": 0
            },
            "0": {
                "invocation": {
                    "address": "0x6de037ef9ad2725eb40118bb1702ebb27e4aeb24",
                    "callData": "0x00000000000000000000000049c8342982e61f096cb4091bf053e112a983201500000000000000000000000000000000000000000000000296df8d7378ab0800",
                    "decodedMethod": {
                        "callParams": [
                            {
                                "name": "_to",
                                "type": "address",
                                "value": "0x49c8342982e61f096cb4091bf053e112a9832015"
                            },
                            {
                                "decimalAvailable": true,
                                "name": "_value",
                                "type": "uint256",
                                "value": "47,765,051,700,000,000,000"
                            }
                        ],
                        "constructorArguments": "",
                        "name": "transfer",
                        "returnParams": [
                            {
                                "name": "",
                                "type": "bool",
                                "value": true
                            }
                        ],
                        "signature": "transfer(address,uint256)"
                    },
                    "errorInfo": "",
                    "fromAddress": "0x48c04ed5691981c42154c6167398f95e8f38a7ff",
                    "gasUsed": 59396,
                    "id": 0,
                    "methodDecoded": true,
                    "operation": "CALL",
                    "output": "0x0000000000000000000000000000000000000000000000000000000000000001",
                    "revert": false,
                    "revertMessage": "",
                    "selector": "0xa9059cbb",
                    "status": true,
                    "value": "0"
                },
                "nodeType": 0
            },
            "1": {
                "invocation": {
                    "address": "0x1a1fdf27c5e6784d1cebf256a8a5cc0877e73af0",
                    "callData": "0x00000000000000000000000049c8342982e61f096cb4091bf053e112a983201500000000000000000000000000000000000000000000000296df8d7378ab0800",
                    "decodedMethod": {
                        "callParams": [
                            {
                                "name": "_to",
                                "type": "address",
                                "value": "0x49c8342982e61f096cb4091bf053e112a9832015"
                            },
                            {
                                "decimalAvailable": true,
                                "name": "_value",
                                "type": "uint256",
                                "value": "47,765,051,700,000,000,000"
                            }
                        ],
                        "constructorArguments": "",
                        "name": "transfer",
                        "returnParams": [
                            {
                                "name": "",
                                "type": "bool",
                                "value": true
                            }
                        ],
                        "signature": "transfer(address,uint256)"
                    },
                    "errorInfo": "",
                    "fromAddress": "0x6de037ef9ad2725eb40118bb1702ebb27e4aeb24",
                    "gasUsed": 30451,
                    "id": 1,
                    "methodDecoded": true,
                    "operation": "DELEGATECALL",
                    "output": "0x0000000000000000000000000000000000000000000000000000000000000001",
                    "revert": false,
                    "revertMessage": "",
                    "selector": "0xa9059cbb",
                    "status": true,
                    "value": "0"
                },
                "nodeType": 0
            },
            "2": {
                "event": {
                    "contract": "0x6de037ef9ad2725eb40118bb1702ebb27e4aeb24",
                    "decodedLog": {
                        "name": "Transfer",
                        "params": [
                            {
                                "name": "from",
                                "type": "address",
                                "value": "0x48c04ed5691981c42154c6167398f95e8f38a7ff"
                            },
                            {
                                "name": "to",
                                "type": "address",
                                "value": "0x49c8342982e61f096cb4091bf053e112a9832015"
                            },
                            {
                                "decimalAvailable": true,
                                "name": "value",
                                "type": "uint256",
                                "value": "47,765,051,700,000,000,000"
                            }
                        ],
                        "signature": "Transfer(address,address,uint256)"
                    },
                    "id": 2,
                    "logData": "0x00000000000000000000000000000000000000000000000296df8d7378ab0800",
                    "logDecoded": true,
                    "operation": "EVENT",
                    "revert": false,
                    "status": true,
                    "topics": [
                        "0xddf252ad1be2c89b69c2b068fc378daa952ba7f163c4a11628f55a4df523b3ef",
                        "0x00000000000000000000000048c04ed5691981c42154c6167398f95e8f38a7ff",
                        "0x00000000000000000000000049c8342982e61f096cb4091bf053e112a9832015"
                    ]
                },
                "nodeType": 1
            }
        },
        "gasFlame": [
            {
                "children": [
                    {
                        "children": [
                            {
                                "children": [],
                                "depth": 0,
                                "name": "Initial Gas",
                                "value": 21656
                            },
                            {
                                "children": [
                                    {
                                        "children": [],
                                        "depth": 1,
                                        "name": "transfer",
                                        "value": 30451
                                    }
                                ],
                                "depth": 0,
                                "name": "Executed Gas",
                                "value": 37740
                            }
                        ],
                        "depth": -1,
                        "name": "Actual Gas Used",
                        "value": 59396
                    },
                    {
                        "children": [],
                        "depth": -1,
                        "name": "Refunded Gas",
                        "value": 0
                    }
                ],
                "depth": -2,
                "name": "Total Gas",
                "value": 59396
            }
        ],
        "isConfirmed": true,
        "mainTrace": [
            {
                "children": [
                    {
                        "children": [
                            {
                                "children": [
                                    {
                                        "children": [],
                                        "depth": 2,
                                        "id": 2,
                                        "order": 2
                                    }
                                ],
                                "depth": 1,
                                "id": 1,
                                "order": 1
                            }
                        ],
                        "depth": 0,
                        "id": 0,
                        "order": 0
                    }
                ],
                "depth": -1,
                "id": -1,
                "order": -1
            }
        ],
        "mainTraceNodeCount": 3,
        "parentIdMap": {
            "0": -1,
            "1": 0,
            "2": 1
        },
        "tidyTrace": [
            {
                "children": [
                    {
                        "children": [
                            {
                                "children": [
                                    {
                                        "children": [],
                                        "depth": 2,
                                        "id": 2,
                                        "order": 2
                                    }
                                ],
                                "depth": 1,
                                "id": 1,
                                "order": 1
                            }
                        ],
                        "depth": 0,
                        "id": 0,
                        "order": 0
                    }
                ],
                "depth": -1,
                "id": -1,
                "order": -1
            }
        ],
        "tidyTraceNodeCount": 3
    },
    "state_change": {
        "stateChanges": [
            {
                "address": "0x6de037ef9ad2725eb40118bb1702ebb27e4aeb24",
                "erc": "ERC-20",
                "slots": [
                    {
                        "current": "0x000000000000000000000000000000000000000000000038773521bd3a7537a3",
                        "key": "0x02a4d77d1c81d82aca866cb72805fda8daf180ac1a7f4f7c23a240a000030d4b",
                        "prev": "0x00000000000000000000000000000000000000000000003b0e14af30b3203fa3"
                    },
                    {
                        "current": "0x00000000000000000000000000000000000000000000000296df8d7378ab0800",
                        "key": "0x62156640c49a663dc1951fc768505e3b1ea67066776090309cde2d080731afe6",
                        "prev": "0x0000000000000000000000000000000000000000000000000000000000000000"
                    }
                ],
                "storageVariables": [
                    {
                        "name": "balances",
                        "type": "mapping(address => uint256)",
                        "value": {
                            "pairs": [
                                {
                                    "key": "0x48c04ed5691981c42154c6167398f95e8f38a7ff",
                                    "value": {
                                        "current": "1041607477088627275683",
                                        "prev": "1089372528788627275683",
                                        "typeTag": 1
                                    }
                                },
                                {
                                    "key": "0x49c8342982e61f096cb4091bf053e112a9832015",
                                    "value": {
                                        "current": "47765051700000000000",
                                        "prev": "0",
                                        "typeTag": 1
                                    }
                                }
                            ],
                            "typeTag": 4
                        }
                    }
                ]
            }
        ]
    }
}