{
    "balance_change": {
        "balanceChanges": [
            {
                "account": "0xc385ea9f958230655c97cca6f6314557f1f83290",
                "assets": [
                    {
                        "address": "0xf3586684107ce0859c44aa2b2e0fb8cd8731a15a",
                        "amount": "6,401.341386",
                        "iconUrl": "",
                        "isERC1155": false,
                        "isERC721": false,
                        "sign": false,
                        "value": ""
                    }
                ]
            },
            {
                "account": "0x5159748551e2db3328324e381be80d49f680c63b",
                "assets": [
                    {
                        "address": "0xf3586684107ce0859c44aa2b2e0fb8cd8731a15a",
                        "amount": "6,401.341386",
                        "iconUrl": "",
                        "isERC1155": false,
                        "isERC721": false,
                        "sign": true,
                        "value": ""
                    }
                ]
            }
        ]
    },
    "profile": {
        "basic_info": {
            "baseFee": "",
            "blockNumber": 9216779,
            "callData": "0xa9059cbb0000000000000000000000005159748551e2db3328324e381be80d49f680c63b0000000000000000000000000000000000000000000000000000000ee77f2de4",
            "debugEnable": true,
            "errorInfo": "",
            "eventCount": 1,
            "feeRecipient": "0x6a7a43be33ba930fe58f34e07d0ad6ba7adb9b1f",
            "formatValue": "0",
            "gasLimit": 200000,
            "gasPrice": "19",
            "gasUsed": 22341,
            "intTxnCount": 0,
            "internalRevert": false,
            "internalRevertMessage": "",
            "isContractCreation": false,
            "isFlashloan": false,
            "maxFee": "",
            "nonce": 33,
            "overwritedBlockNumber": -1,
            "priorityFee": "",
            "receiver": "0xf3586684107ce0859c44aa2b2e0fb8cd8731a15a",
            "revertMessage": "",
            "sender": "0xc385ea9f958230655c97cca6f6314557f1f83290",
            "simulationEnable": true,
            "sourceTxnHash": "0xaf1efea216d7f1a753875e0253ef36277d9bcf9a1faa24b010baa5abcc784d65",
            "status": true,
            "timestamp": "2020-01-04T23:03:28Z",
            "transactionFee": "0.000424479",
            "txnHash": "0xaf1efea216d7f1a753875e0253ef36277d9bcf9a1faa24b010baa5abcc784d65",
            "txnIndex": 0,
            "type": 0,
            "value": "0"
        },
        "fund_flow": [
            {
                "amount": "6,401.341386",
                "from": "0xc385ea9f958230655c97cca6f6314557f1f83290",
                "id": 1,
                "isERC1155": false,
                "isERC721": false,
                "isReverted": false,
                "order": 1,
                "to": "0x5159748551e2db3328324e381be80d49f680c63b",
                "token": "0xf3586684107ce0859c44aa2b2e0fb8cd8731a15a"
            }
        ],
        "token_infos": [
            {
                "address": "0xc02aaa39b223fe8d0a0e5c4f27ead9083c756cc2",
                "decimals": 18
            },
            {
                "address": "0xf3586684107ce0859c44aa2b2e0fb8cd8731a15a",
                "decimals": 7
            },
            {
                "address": "0xeeeeeeeeeeeeeeeeeeeeeeeeeeeeeeeeeeeeeeee",
                "decimals": 18
            }
        ]
    },
    "address_label": {
        "labels": [
            {
                "address": "0x0000000000000000000000000000000000000001",
                "label": "Precompiled"
            },
            {
                "address": "0x0000000000000000000000000000000000000002",
                "label": "Precompiled"
            },
            {
                "address": "0x0000000000000000000000000000000000000003",
                "label": "Precompiled"
            },
            {
                "address": "0x0000000000000000000000000000000000000004",
                "label": "Precompiled"
            },
            {
                "address": "0xeeeeeeeeeeeeeeeeeeeeeeeeeeeeeeeeeeeeeeee",
                "label": "Ether"
            },
            {
                "address": "0xf3586684107ce0859c44aa2b2e0fb8cd8731a15a",
                "label": "KaratBank: Old KBC Token"
            }
        ]
    },
    "trace": {
        "accountLabels": null,
        "dataMap": {
            "-1": {
                "invocation": {
                    "address": "0xc385ea9f958230655c97cca6f6314557f1f83290",
                    "callData": "",
                    "decodedMethod": null,
                    "errorInfo": "",
                    "fromAddress": "",
                    "gasUsed": 0,
                    "id": -1,
                    "methodDecoded": false,
                    "operation": "",
                    "output": "",
                    "revert": false,
                    "revertMessage": "",
                    "selector": "",
                    "status": false,
                    "value": ""
                },
                "nodeType": 0
            },
            "0": {
                "invocation": {
                    "address": "0xf3586684107ce0859c44aa2b2e0fb8cd8731a15a",
                    "callData": "0x0000000000000000000000005159748551e2db3328324e381be80d49f680c63b0000000000000000000000000000000000000000000000000000000ee77f2de4",
                    "decodedMethod": {
                        "callParams": [
                            {
                                "name": "_to",
                                "type": "address",
                                "value": "0x5159748551e2db3328324e381be80d49f680c63b"
                            },
                            {
                                "decimalAvailable": true,
                                "name": "_value",
                                "type": "uint256",
                                "value": "64,013,413,860"
                            }
                        ],
                        "constructorArguments": "",
                        "name": "transfer",
                        "returnParams": [
                            {
                                "name": "",
                                "type": "bool",
                                "value": true
                            }
                        ],
                        "signature": "transfer(address,uint256)"
                    },
                    "errorInfo": "",
                    "fromAddress": "0xc385ea9f958230655c97cca6f6314557f1f83290",
                    "gasUsed": 22341,
                    "id": 0,
                    "methodDecoded": true,
                    "operation": "CALL",
                    "output": "0x0000000000000000000000000000000000000000000000000000000000000001",
                    "revert": false,
                    "revertMessage": "",
                    "selector": "0xa9059cbb",
                    "status": true,
                    "value": "0"
                },
                "nodeType": 0
            },
            "1": {
                "event": {
                    "contract": "0xf3586684107ce0859c44aa2b2e0fb8cd8731a15a",
                    "decodedLog": {
                        "name": "Transfer",
                        "params": [
                            {
                                "name": "from",
                                "type": "address",
                                "value": "0xc385ea9f958230655c97cca6f6314557f1f83290"
                            },
                            {
                                "name": "to",
                                "type": "address",
                                "value": "0x5159748551e2db3328324e381be80d49f680c63b"
                            },
                            {
                                "decimalAvailable": true,
                                "name": "value",
                                "type": "uint256",
                                "value": "64,013,413,860"
                            }
                        ],
                        "signature": "Transfer(address,address,uint256)"
                    },
                    "id": 1,
                    "logData": "0x0000000000000000000000000000000000000000000000000000000ee77f2de4",
                    "logDecoded": true,
                    "operation": "EVENT",
                    "revert": false,
                    "status": true,
                    "topics": [
                        "0xddf252ad1be2c89b69c2b068fc378daa952ba7f163c4a11628f55a4df523b3ef",
                        "0x000000000000000000000000c385ea9f958230655c97cca6f6314557f1f83290",
                        "0x0000000000000000000000005159748551e2db3328324e381be80d49f680c63b"
                    ]
                },
                "nodeType": 1
            }
        },
        "gasFlame": [
            {
                "children": [
                    {
                        "children": [
                            {
                                "children": [],
                                "depth": 0,
                                "name": "Initial Gas",
                                "value": 21620
                            },
                            {
                                "children": [],
                                "depth": 0,
                                "name": "Executed Gas",
                                "value": 15721
                            }
                        ],
                        "depth": -1,
                        "name": "Actual Gas Used",
                        "value": 22341
                    },
                    {
                        "children": [],
                        "depth": -1,
                        "name": "Refunded Gas",
                        "value": 15000
                    }
                ],
                "depth": -2,
                "name": "Total Gas",
                "value": 37341
            }
        ],
        "isConfirmed": true,
        "mainTrace": [
            {
                "children": [
                    {
                        "children": [
                            {
                                "children": [],
                                "depth": 1,
                                "id": 1,
                                "order": 1
                            }
                        ],
                        "depth": 0,
                        "id": 0,
                        "order": 0
                    }
                ],
                "depth": -1,
                "id": -1,
                "order": -1
            }
        ],
        "mainTraceNodeCount": 2,
        "parentIdMap": {
            "0": -1,
            "1": 0
        },
        "tidyTrace": [
            {
                "children": [
                    {
                        "children": [
                            {
                                "children": [],
                                "depth": 1,
                                "id": 1,
                                "order": 1
                            }
                        ],
                        "depth": 0,
                        "id": 0,
                        "order": 0
                    }
                ],
                "depth": -1,
                "id": -1,
                "order": -1
            }
        ],
        "tidyTraceNodeCount": 2
    },
    "state_change": {
        "stateChanges": [
            {
                "address": "0xf3586684107ce0859c44aa2b2e0fb8cd8731a15a",
                "erc": "ERC-20",
                "slots": [
                    {
                        "current": "0x000000000000000000000000000000000000000000000000000de95293f58ed4",
                        "key": "0x03f35e3b13f344557799aca56a491c53cb3775104ab4c9cf983364e3e6774de9",
                        "prev": "0x000000000000000000000000000000000000000000000000000de943ac7660f0"
                    },
                    {
                        "current": "0x0000000000000000000000000000000000000000000000000000000000000000",
                        "key": "0x6657cf5630eb389aea90efcfeaab8a4e3e12ac5da72ba4dc19052e469dca72f9",
                        "prev": "0x0000000000000000000000000000000000000000000000000000000ee77f2de4"
                    }
                ],
                "storageVariables": [
                    {
                        "name": "balances",
                        "type": "mapping(address => uint256)",
                        "value": {
                            "pairs": [
                                {
                                    "key": "0x5159748551e2db3328324e381be80d49f680c63b",
                                    "value": {
                                        "current": "3915715576172244",
                                        "prev": "3915651562758384",
                                        "typeTag": 1
                                    }
                                },
                                {
                                    "key": "0xc385ea9f958230655c97cca6f6314557f1f83290",
                                    "value": {
                                        "current": "0",
                                        "prev": "64013413860",
                                        "typeTag": 1
                                    }
                                }
                            ],
                            "typeTag": 4
                        }
                    }
                ]
            }
        ]
    }
}