{
    "balance_change": {
        "balanceChanges": [
            {
                "account": "0xd43d1d810f384239456d3de4622bcbe5562c080b",
                "assets": [
                    {
                        "address": "0x900b4449236a7bb26b286601dd14d2bde7a6ac6c",
                        "amount": "100",
                        "iconUrl": "",
                        "isERC1155": false,
                        "isERC721": false,
                        "sign": false,
                        "value": ""
                    }
                ]
            },
            {
                "account": "0xad75bbe7cdb326f95edf58accb9234a42e97cac5",
                "assets": [
                    {
                        "address": "0x900b4449236a7bb26b286601dd14d2bde7a6ac6c",
                        "amount": "100",
                        "iconUrl": "",
                        "isERC1155": false,
                        "isERC721": false,
                        "sign": true,
                        "value": ""
                    }
                ]
            }
        ]
    },
    "profile": {
        "basic_info": {
            "baseFee": "",
            "blockNumber": 5442078,
            "callData": "0xa9059cbb000000000000000000000000ad75bbe7cdb326f95edf58accb9234a42e97cac500000000000000000000000000000000000000000000000000000002540be400",
            "debugEnable": true,
            "errorInfo": "",
            "eventCount": 1,
            "feeRecipient": "0x5a0b54d5dc17e0aadc383d2db43b0a0d3e029c4c",
            "formatValue": "0",
            "gasLimit": 70000,
            "gasPrice": "1",
            "gasUsed": 51755,
            "intTxnCount": 0,
            "internalRevert": false,
            "internalRevertMessage": "",
            "isContractCreation": false,
            "isFlashloan": false,
            "maxFee": "",
            "nonce": 9445,
            "overwritedBlockNumber": -1,
            "priorityFee": "",
            "receiver": "0x900b4449236a7bb26b286601dd14d2bde7a6ac6c",
            "revertMessage": "",
            "sender": "0xd43d1d810f384239456d3de4622bcbe5562c080b",
            "simulationEnable": true,
            "sourceTxnHash": "0xb0b394333aeea6774a01524e2ed8d27ca30c8b932ec8302f4d70605f0e6b3bed",
            "status": true,
            "timestamp": "2018-04-15T00:45:47Z",
            "transactionFee": "0.000051755",
            "txnHash": "0xb0b394333aeea6774a01524e2ed8d27ca30c8b932ec8302f4d70605f0e6b3bed",
            "txnIndex": 133,
            "type": 0,
            "value": "0"
        },
        "fund_flow": [
            {
                "amount": "100",
                "from": "0xd43d1d810f384239456d3de4622bcbe5562c080b",
                "id": 1,
                "isERC1155": false,
                "isERC721": false,
                "isReverted": false,
                "order": 1,
                "to": "0xad75bbe7cdb326f95edf58accb9234a42e97cac5",
                "token": "0x900b4449236a7bb26b286601dd14d2bde7a6ac6c"
            }
        ],
        "token_infos": [
            {
                "address": "0x900b4449236a7bb26b286601dd14d2bde7a6ac6c",
                "decimals": 8
            },
            {
                "address": "0xc02aaa39b223fe8d0a0e5c4f27ead9083c756cc2",
                "decimals": 18
            },
            {
                "address": "0xeeeeeeeeeeeeeeeeeeeeeeeeeeeeeeeeeeeeeeee",
                "decimals": 18
            }
        ]
    },
    "address_label": {
        "labels": [
            {
                "address": "0x0000000000000000000000000000000000000004",
                "label": "Precompiled"
            },
            {
                "address": "0xeeeeeeeeeeeeeeeeeeeeeeeeeeeeeeeeeeeeeeee",
                "label": "Ether"
            },
            {
                "address": "0x900b4449236a7bb26b286601dd14d2bde7a6ac6c",
                "label": "EARTH Token (EARTH)"
            },
            {
                "address": "0x0000000000000000000000000000000000000001",
                "label": "Precompiled"
            },
            {
                "address": "0x0000000000000000000000000000000000000002",
                "label": "Precompiled"
            },
            {
                "address": "0x0000000000000000000000000000000000000003",
                "label": "Precompiled"
            }
        ]
    },
    "trace": {
        "accountLabels": null,
        "dataMap": {
            "-1": {
                "invocation": {
                    "address": "0xd43d1d810f384239456d3de4622bcbe5562c080b",
                    "callData": "",
                    "decodedMethod": null,
                    "errorInfo": "",
                    "fromAddress": "",
                    "gasUsed": 0,
                    "id": -1,
                    "methodDecoded": false,
                    "operation": "",
                    "output": "",
                    "revert": false,
                    "revertMessage": "",
                    "selector": "",
                    "status": false,
                    "value": ""
                },
                "nodeType": 0
            },
            "0": {
                "invocation": {
                    "address": "0x900b4449236a7bb26b286601dd14d2bde7a6ac6c",
                    "callData": "0x000000000000000000000000ad75bbe7cdb326f95edf58accb9234a42e97cac500000000000000000000000000000000000000000000000000000002540be400",
                    "decodedMethod": {
                        "callParams": [
                            {
                                "name": "_to",
                                "type": "address",
                                "value": "0xad75bbe7cdb326f95edf58accb9234a42e97cac5"
                            },
                            {
                                "decimalAvailable": true,
                                "name": "_value",
                                "type": "uint256",
                                "value": "10,000,000,000"
                            }
                        ],
                        "constructorArguments": "",
                        "name": "transfer",
                        "returnParams": [
                            {
                                "name": "",
                                "type": "bool",
                                "value": true
                            }
                        ],
                        "signature": "transfer(address,uint256)"
                    },
                    "errorInfo": "",
                    "fromAddress": "0xd43d1d810f384239456d3de4622bcbe5562c080b",
                    "gasUsed": 51755,
                    "id": 0,
                    "methodDecoded": true,
                    "operation": "CALL",
                    "output": "0x0000000000000000000000000000000000000000000000000000000000000001",
                    "revert": false,
                    "revertMessage": "",
                    "selector": "0xa9059cbb",
                    "status": true,
                    "value": "0"
                },
                "nodeType": 0
            },
            "1": {
                "event": {
                    "contract": "0x900b4449236a7bb26b286601dd14d2bde7a6ac6c",
                    "decodedLog": {
                        "name": "Transfer",
                        "params": [
                            {
                                "name": "from",
                                "type": "address",
                                "value": "0xd43d1d810f384239456d3de4622bcbe5562c080b"
                            },
                            {
                                "name": "to",
                                "type": "address",
                                "value": "0xad75bbe7cdb326f95edf58accb9234a42e97cac5"
                            },
                            {
                                "decimalAvailable": true,
                                "name": "value",
                                "type": "uint256",
                                "value": "10,000,000,000"
                            }
                        ],
                        "signature": "Transfer(address,address,uint256)"
                    },
                    "id": 1,
                    "logData": "0x00000000000000000000000000000000000000000000000000000002540be400",
                    "logDecoded": true,
                    "operation": "EVENT",
                    "revert": false,
                    "status": true,
                    "topics": [
                        "0xddf252ad1be2c89b69c2b068fc378daa952ba7f163c4a11628f55a4df523b3ef",
                        "0x000000000000000000000000d43d1d810f384239456d3de4622bcbe5562c080b",
                        "0x000000000000000000000000ad75bbe7cdb326f95edf58accb9234a42e97cac5"
                    ]
                },
                "nodeType": 1
            }
        },
        "gasFlame": [
            {
                "children": [
                    {
                        "children": [
                            {
                                "children": [],
                                "depth": 0,
                                "name": "Initial Gas",
                                "value": 23064
                            },
                            {
                                "children": [],
                                "depth": 0,
                                "name": "Executed Gas",
                                "value": 28691
                            }
                        ],
                        "depth": -1,
                        "name": "Actual Gas Used",
                        "value": 51755
                    },
                    {
                        "children": [],
                        "depth": -1,
                        "name": "Refunded Gas",
                        "value": 0
                    }
                ],
                "depth": -2,
                "name": "Total Gas",
                "value": 51755
            }
        ],
        "isConfirmed": true,
        "mainTrace": [
            {
                "children": [
                    {
                        "children": [
                            {
                                "children": [],
                                "depth": 1,
                                "id": 1,
                                "order": 1
                            }
                        ],
                        "depth": 0,
                        "id": 0,
                        "order": 0
                    }
                ],
                "depth": -1,
                "id": -1,
                "order": -1
            }
        ],
        "mainTraceNodeCount": 2,
        "parentIdMap": {
            "0": -1,
            "1": 0
        },
        "tidyTrace": [
            {
                "children": [
                    {
                        "children": [
                            {
                                "children": [],
                                "depth": 1,
                                "id": 1,
                                "order": 1
                            }
                        ],
                        "depth": 0,
                        "id": 0,
                        "order": 0
                    }
                ],
                "depth": -1,
                "id": -1,
                "order": -1
            }
        ],
        "tidyTraceNodeCount": 2
    },
    "state_change": {
        "stateChanges": [
            {
                "address": "0x900b4449236a7bb26b286601dd14d2bde7a6ac6c",
                "erc": "ERC-20",
                "slots": [
                    {
                        "current": "0x0000000000000000000000000000000000000000000000000000651240bdd95b",
                        "key": "0xb698f876a60f5f46b589a0c71336f997024198c785c851991514fbc62aa2bdbe",
                        "prev": "0x0000000000000000000000000000000000000000000000000000651494c9bd5b"
                    },
                    {
                        "current": "0x00000000000000000000000000000000000000000000000000000002540be400",
                        "key": "0x8618d3f06b959cfa1b3889efd5a69dda17bcc3f4aa7dda93c0e396fea7892af7",
                        "prev": "0x0000000000000000000000000000000000000000000000000000000000000000"
                    }
                ],
                "storageVariables": [
                    {
                        "name": "balances",
                        "type": "mapping(address => uint256)",
                        "value": {
                            "pairs": [
                                {
                                    "key": "0xad75bbe7cdb326f95edf58accb9234a42e97cac5",
                                    "value": {
                                        "current": "10000000000",
                                        "prev": "0",
                                        "typeTag": 1
                                    }
                                },
                                {
                                    "key": "0xd43d1d810f384239456d3de4622bcbe5562c080b",
                                    "value": {
                                        "current": "111129070000475",
                                        "prev": "111139070000475",
                                        "typeTag": 1
                                    }
                                }
                            ],
                            "typeTag": 4
                        }
                    }
                ]
            }
        ]
    }
}