{
    "balance_change": {
        "balanceChanges": [
            {
                "account": "0x276888eff9ee80db0e7801e4b22e25ea6de51f43",
                "assets": [
                    {
                        "address": "0x3f17dd476faf0a4855572f0b6ed5115d9bba22ad",
                        "amount": "415.11",
                        "iconUrl": "",
                        "isERC1155": false,
                        "isERC721": false,
                        "sign": false,
                        "value": ""
                    }
                ]
            },
            {
                "account": "0xd077c09a7e65c4cca490a776d5e395fb4fe7179a",
                "assets": [
                    {
                        "address": "0x3f17dd476faf0a4855572f0b6ed5115d9bba22ad",
                        "amount": "415.11",
                        "iconUrl": "",
                        "isERC1155": false,
                        "isERC721": false,
                        "sign": true,
                        "value": ""
                    }
                ]
            }
        ]
    },
    "profile": {
        "basic_info": {
            "baseFee": "",
            "blockNumber": 7651857,
            "callData": "0x52748cfe000000000000000000000000cba7983a6093502d18130e64f7d4f640636c170b00000000000000000000000007562a72b24c4048ac91d3ddb8c4b2f340ae9e0300000000000000000000000060f36e8863d93440ec6c584567cbea3ce76d023200000000000000000000000000000000000000000000000000000000000000a000000000000000000000000000000000000000000000000000000000000001000000000000000000000000000000000000000000000000000000000000000040393831646239623338626539343462616366383639613939633961363438313033386134346666663132386266646337656533646439666634663735376162610000000000000000000000000000000000000000000000000000000000000041104235a0dabf6bb1a3be7e59ebf2cde36bc390db5cd15f79d57e1d56dcf4ae4c43994fb0e03c7f9ad654b23f7c4f7ce62afad8e9db84d39653711941912f3f261c00000000000000000000000000000000000000000000000000000000000000",
            "debugEnable": true,
            "errorInfo": "",
            "eventCount": 2,
            "feeRecipient": "0x5a0b54d5dc17e0aadc383d2db43b0a0d3e029c4c",
            "formatValue": "0",
            "gasLimit": 1700000,
            "gasPrice": "9",
            "gasUsed": 301355,
            "intTxnCount": 10,
            "internalRevert": false,
            "internalRevertMessage": "",
            "isContractCreation": false,
            "isFlashloan": false,
            "maxFee": "",
            "nonce": 26488,
            "overwritedBlockNumber": -1,
            "priorityFee": "",
            "receiver": "0xd077c09a7e65c4cca490a776d5e395fb4fe7179a",
            "revertMessage": "",
            "sender": "0x276888eff9ee80db0e7801e4b22e25ea6de51f43",
            "simulationEnable": true,
            "sourceTxnHash": "0xb08c24b3bdfeb24784824de06122dbb4b8f331dbd5883d57ac5485e360e6b6ac",
            "status": true,
            "timestamp": "2019-04-27T21:09:42Z",
            "transactionFee": "0.002712195",
            "txnHash": "0xb08c24b3bdfeb24784824de06122dbb4b8f331dbd5883d57ac5485e360e6b6ac",
            "txnIndex": 17,
            "type": 0,
            "value": "0"
        },
        "fund_flow": [
            {
                "amount": "415.11",
                "from": "0x276888eff9ee80db0e7801e4b22e25ea6de51f43",
                "id": 1,
                "isERC1155": false,
                "isERC721": false,
                "isReverted": false,
                "order": 1,
                "to": "0xd077c09a7e65c4cca490a776d5e395fb4fe7179a",
                "token": "0x3f17dd476faf0a4855572f0b6ed5115d9bba22ad"
            }
        ],
        "token_infos": [
            {
                "address": "0xc02aaa39b223fe8d0a0e5c4f27ead9083c756cc2",
                "decimals": 18
            },
            {
                "address": "0xeeeeeeeeeeeeeeeeeeeeeeeeeeeeeeeeeeeeeeee",
                "decimals": 18
            },
            {
                "address": "0x3f17dd476faf0a4855572f0b6ed5115d9bba22ad",
                "decimals": 9
            }
        ]
    },
    "address_label": {
        "labels": [
            {
                "address": "0xeeeeeeeeeeeeeeeeeeeeeeeeeeeeeeeeeeeeeeee",
                "label": "Ether"
            },
            {
                "address": "0x3f17dd476faf0a4855572f0b6ed5115d9bba22ad",
                "label": "Wibson Token"
            },
            {
                "address": "0xd077c09a7e65c4cca490a776d5e395fb4fe7179a",
                "label": "DataExchange"
            },
            {
                "address": "0x0000000000000000000000000000000000000001",
                "label": "Precompiled"
            },
            {
                "address": "0x0000000000000000000000000000000000000002",
                "label": "Precompiled"
            },
            {
                "address": "0x0000000000000000000000000000000000000003",
                "label": "Precompiled"
            },
            {
                "address": "0x0000000000000000000000000000000000000004",
                "label": "Precompiled"
            }
        ]
    },
    "trace": {
        "accountLabels": null,
        "dataMap": {
            "-1": {
                "invocation": {
                    "address": "0x276888eff9ee80db0e7801e4b22e25ea6de51f43",
                    "callData": "",
                    "decodedMethod": null,
                    "errorInfo": "",
                    "fromAddress": "",
                    "gasUsed": 0,
                    "id": -1,
                    "methodDecoded": false,
                    "operation": "",
                    "output": "",
                    "revert": false,
                    "revertMessage": "",
                    "selector": "",
                    "status": false,
                    "value": ""
                },
                "nodeType": 0
            },
            "0": {
                "invocation": {
                    "address": "0xd077c09a7e65c4cca490a776d5e395fb4fe7179a",
                    "callData": "0x000000000000000000000000cba7983a6093502d18130e64f7d4f640636c170b00000000000000000000000007562a72b24c4048ac91d3ddb8c4b2f340ae9e0300000000000000000000000060f36e8863d93440ec6c584567cbea3ce76d023200000000000000000000000000000000000000000000000000000000000000a000000000000000000000000000000000000000000000000000000000000001000000000000000000000000000000000000000000000000000000000000000040393831646239623338626539343462616366383639613939633961363438313033386134346666663132386266646337656533646439666634663735376162610000000000000000000000000000000000000000000000000000000000000041104235a0dabf6bb1a3be7e59ebf2cde36bc390db5cd15f79d57e1d56dcf4ae4c43994fb0e03c7f9ad654b23f7c4f7ce62afad8e9db84d39653711941912f3f261c00000000000000000000000000000000000000000000000000000000000000",
                    "decodedMethod": {
                        "callParams": [
                            {
                                "name": "orderAddr",
                                "type": "address",
                                "value": "0xcba7983a6093502d18130e64f7d4f640636c170b"
                            },
                            {
                                "name": "seller",
                                "type": "address",
                                "value": "0x07562a72b24c4048ac91d3ddb8c4b2f340ae9e03"
                            },
                            {
                                "name": "notary",
                                "type": "address",
                                "value": "0x60f36e8863d93440ec6c584567cbea3ce76d0232"
                            },
                            {
                                "name": "dataHash",
                                "type": "string",
                                "value": "981db9b38be944bacf869a99c9a6481038a44fff128bfdc7ee3dd9ff4f757aba"
                            },
                            {
                                "name": "signature",
                                "type": "bytes",
                                "value": "0x104235a0dabf6bb1a3be7e59ebf2cde36bc390db5cd15f79d57e1d56dcf4ae4c43994fb0e03c7f9ad654b23f7c4f7ce62afad8e9db84d39653711941912f3f261c"
                            }
                        ],
                        "constructorArguments": "",
                        "name": "addDataResponseToOrder",
                        "returnParams": [
                            {
                                "name": "",
                                "type": "bool",
                                "value": true
                            }
                        ],
                        "signature": "addDataResponseToOrder(address,address,address,string,bytes)"
                    },
                    "errorInfo": "",
                    "fromAddress": "0x276888eff9ee80db0e7801e4b22e25ea6de51f43",
                    "gasUsed": 301355,
                    "id": 0,
                    "methodDecoded": true,
                    "operation": "CALL",
                    "output": "0x0000000000000000000000000000000000000000000000000000000000000001",
                    "revert": false,
                    "revertMessage": "",
                    "selector": "0x52748cfe",
                    "status": true,
                    "value": "0"
                },
                "nodeType": 0
            },
            "1": {
                "invocation": {
                    "address": "0xcba7983a6093502d18130e64f7d4f640636c170b",
                    "callData": "0x",
                    "decodedMethod": {
                        "callParams": [],
                        "constructorArguments": "",
                        "name": "buyer",
                        "returnParams": [
                            {
                                "name": "",
                                "type": "address",
                                "value": "0x276888eff9ee80db0e7801e4b22e25ea6de51f43"
                            }
                        ],
                        "signature": "buyer()"
                    },
                    "errorInfo": "",
                    "fromAddress": "0xd077c09a7e65c4cca490a776d5e395fb4fe7179a",
                    "gasUsed": 735,
                    "id": 1,
                    "methodDecoded": true,
                    "operation": "CALL",
                    "output": "0x000000000000000000000000276888eff9ee80db0e7801e4b22e25ea6de51f43",
                    "revert": false,
                    "revertMessage": "",
                    "selector": "0x7150d8ae",
                    "status": true,
                    "value": "0"
                },
                "nodeType": 0
            },
            "10": {
                "invocation": {
                    "address": "0x3f17dd476faf0a4855572f0b6ed5115d9bba22ad",
                    "callData": "0x000000000000000000000000276888eff9ee80db0e7801e4b22e25ea6de51f43000000000000000000000000d077c09a7e65c4cca490a776d5e395fb4fe7179a00000000000000000000000000000000000000000000000000000060a67bed80",
                    "decodedMethod": {
                        "callParams": [
                            {
                                "name": "_from",
                                "type": "address",
                                "value": "0x276888eff9ee80db0e7801e4b22e25ea6de51f43"
                            },
                            {
                                "name": "_to",
                                "type": "address",
                                "value": "0xd077c09a7e65c4cca490a776d5e395fb4fe7179a"
                            },
                            {
                                "decimalAvailable": true,
                                "name": "_value",
                                "type": "uint256",
                                "value": "415,110,000,000"
                            }
                        ],
                        "constructorArguments": "",
                        "name": "transferFrom",
                        "returnParams": [
                            {
                                "name": "",
                                "type": "bool",
                                "value": true
                            }
                        ],
                        "signature": "transferFrom(address,address,uint256)"
                    },
                    "errorInfo": "",
                    "fromAddress": "0xd077c09a7e65c4cca490a776d5e395fb4fe7179a",
                    "gasUsed": 19843,
                    "id": 10,
                    "methodDecoded": true,
                    "operation": "CALL",
                    "output": "0x0000000000000000000000000000000000000000000000000000000000000001",
                    "revert": false,
                    "revertMessage": "",
                    "selector": "0x23b872dd",
                    "status": true,
                    "value": "0"
                },
                "nodeType": 0
            },
            "11": {
                "event": {
                    "contract": "0x3f17dd476faf0a4855572f0b6ed5115d9bba22ad",
                    "decodedLog": {
                        "name": "Transfer",
                        "params": [
                            {
                                "name": "from",
                                "type": "address",
                                "value": "0x276888eff9ee80db0e7801e4b22e25ea6de51f43"
                            },
                            {
                                "name": "to",
                                "type": "address",
                                "value": "0xd077c09a7e65c4cca490a776d5e395fb4fe7179a"
                            },
                            {
                                "decimalAvailable": true,
                                "name": "value",
                                "type": "uint256",
                                "value": "415,110,000,000"
                            }
                        ],
                        "signature": "Transfer(address,address,uint256)"
                    },
                    "id": 11,
                    "logData": "0x00000000000000000000000000000000000000000000000000000060a67bed80",
                    "logDecoded": true,
                    "operation": "EVENT",
                    "revert": false,
                    "status": true,
                    "topics": [
                        "0xddf252ad1be2c89b69c2b068fc378daa952ba7f163c4a11628f55a4df523b3ef",
                        "0x000000000000000000000000276888eff9ee80db0e7801e4b22e25ea6de51f43",
                        "0x000000000000000000000000d077c09a7e65c4cca490a776d5e395fb4fe7179a"
                    ]
                },
                "nodeType": 1
            },
            "12": {
                "event": {
                    "contract": "0xd077c09a7e65c4cca490a776d5e395fb4fe7179a",
                    "decodedLog": {
                        "name": "DataAdded",
                        "params": [
                            {
                                "name": "orderAddr",
                                "type": "address",
                                "value": "0xcba7983a6093502d18130e64f7d4f640636c170b"
                            },
                            {
                                "name": "seller",
                                "type": "address",
                                "value": "0x07562a72b24c4048ac91d3ddb8c4b2f340ae9e03"
                            }
                        ],
                        "signature": "DataAdded(address,address)"
                    },
                    "id": 12,
                    "logData": "0x",
                    "logDecoded": true,
                    "operation": "EVENT",
                    "revert": false,
                    "status": true,
                    "topics": [
                        "0x96a360ee9d47dddc23543ca7e1b847174c225dc8f968677e1d5b6f35f978108f",
                        "0x000000000000000000000000cba7983a6093502d18130e64f7d4f640636c170b",
                        "0x00000000000000000000000007562a72b24c4048ac91d3ddb8c4b2f340ae9e03"
                    ]
                },
                "nodeType": 1
            },
            "2": {
                "invocation": {
                    "address": "0xcba7983a6093502d18130e64f7d4f640636c170b",
                    "callData": "0x00000000000000000000000060f36e8863d93440ec6c584567cbea3ce76d0232",
                    "decodedMethod": null,
                    "errorInfo": "",
                    "fromAddress": "0xd077c09a7e65c4cca490a776d5e395fb4fe7179a",
                    "gasUsed": 926,
                    "id": 2,
                    "methodDecoded": false,
                    "operation": "CALL",
                    "output": "0x0000000000000000000000000000000000000000000000000000000000000001",
                    "revert": false,
                    "revertMessage": "",
                    "selector": "0x43dcbc86",
                    "status": true,
                    "value": "0"
                },
                "nodeType": 0
            },
            "3": {
                "invocation": {
                    "address": "0x48819464877341cb7e0bbd91e0c268016ae5e6ad",
                    "callData": "0x000000000000000000000000cba7983a6093502d18130e64f7d4f640636c170b00000000000000000000000007562a72b24c4048ac91d3ddb8c4b2f340ae9e0300000000000000000000000060f36e8863d93440ec6c584567cbea3ce76d023200000000000000000000000000000000000000000000000000000000000000a000000000000000000000000000000000000000000000000000000000000001000000000000000000000000000000000000000000000000000000000000000040393831646239623338626539343462616366383639613939633961363438313033386134346666663132386266646337656533646439666634663735376162610000000000000000000000000000000000000000000000000000000000000041104235a0dabf6bb1a3be7e59ebf2cde36bc390db5cd15f79d57e1d56dcf4ae4c43994fb0e03c7f9ad654b23f7c4f7ce62afad8e9db84d39653711941912f3f261c00000000000000000000000000000000000000000000000000000000000000",
                    "decodedMethod": null,
                    "errorInfo": "",
                    "fromAddress": "0xd077c09a7e65c4cca490a776d5e395fb4fe7179a",
                    "gasUsed": 6954,
                    "id": 3,
                    "methodDecoded": false,
                    "operation": "DELEGATECALL",
                    "output": "0x0000000000000000000000000000000000000000000000000000000000000001",
                    "revert": false,
                    "revertMessage": "",
                    "selector": "0x24c91c1b",
                    "status": true,
                    "value": "0"
                },
                "nodeType": 0
            },
            "4": {
                "invocation": {
                    "address": "0x0000000000000000000000000000000000000001",
                    "callData": "0x932ac08d74141c1b68caf76716355e9f0be76415063a8c6360543862000000000000000000000000000000000000000000000000000000000000001c104235a0dabf6bb1a3be7e59ebf2cde36bc390db5cd15f79d57e1d56dcf4ae4c43994fb0e03c7f9ad654b23f7c4f7ce62afad8e9db84d39653711941912f3f26",
                    "decodedMethod": {
                        "callParams": [
                            {
                                "name": "hash",
                                "type": "bytes32",
                                "value": "0x038fe906932ac08d74141c1b68caf76716355e9f0be76415063a8c6360543862"
                            },
                            {
                                "name": "v",
                                "type": "uint256",
                                "value": "28"
                            },
                            {
                                "name": "r",
                                "type": "bytes32",
                                "value": "0x104235a0dabf6bb1a3be7e59ebf2cde36bc390db5cd15f79d57e1d56dcf4ae4c"
                            },
                            {
                                "name": "s",
                                "type": "bytes32",
                                "value": "0x43994fb0e03c7f9ad654b23f7c4f7ce62afad8e9db84d39653711941912f3f26"
                            }
                        ],
                        "constructorArguments": "",
                        "name": "ecrecover",
                        "returnParams": [
                            {
                                "name": "",
                                "type": "address",
                                "value": "0x07562a72b24c4048ac91d3ddb8c4b2f340ae9e03"
                            }
                        ],
                        "signature": "ecrecover(bytes32,uint256,bytes32,bytes32)"
                    },
                    "errorInfo": "",
                    "fromAddress": "0xd077c09a7e65c4cca490a776d5e395fb4fe7179a",
                    "gasUsed": 3000,
                    "id": 4,
                    "methodDecoded": true,
                    "operation": "CALL",
                    "output": "0x00000000000000000000000007562a72b24c4048ac91d3ddb8c4b2f340ae9e03",
                    "revert": false,
                    "revertMessage": "",
                    "selector": "0x038fe906",
                    "status": true,
                    "value": "0"
                },
                "nodeType": 0
            },
            "5": {
                "invocation": {
                    "address": "0xcba7983a6093502d18130e64f7d4f640636c170b",
                    "callData": "0x00000000000000000000000007562a72b24c4048ac91d3ddb8c4b2f340ae9e0300000000000000000000000060f36e8863d93440ec6c584567cbea3ce76d02320000000000000000000000000000000000000000000000000000000000000060000000000000000000000000000000000000000000000000000000000000004039383164623962333862653934346261636638363961393963396136343831303338613434666666313238626664633765653364643966663466373537616261",
                    "decodedMethod": null,
                    "errorInfo": "",
                    "fromAddress": "0xd077c09a7e65c4cca490a776d5e395fb4fe7179a",
                    "gasUsed": 135778,
                    "id": 5,
                    "methodDecoded": false,
                    "operation": "CALL",
                    "output": "0x0000000000000000000000000000000000000000000000000000000000000001",
                    "revert": false,
                    "revertMessage": "",
                    "selector": "0xffaef25e",
                    "status": true,
                    "value": "0"
                },
                "nodeType": 0
            },
            "6": {
                "invocation": {
                    "address": "0xcba7983a6093502d18130e64f7d4f640636c170b",
                    "callData": "0x",
                    "decodedMethod": {
                        "callParams": [],
                        "constructorArguments": "",
                        "name": "buyer",
                        "returnParams": [
                            {
                                "name": "",
                                "type": "address",
                                "value": "0x276888eff9ee80db0e7801e4b22e25ea6de51f43"
                            }
                        ],
                        "signature": "buyer()"
                    },
                    "errorInfo": "",
                    "fromAddress": "0xd077c09a7e65c4cca490a776d5e395fb4fe7179a",
                    "gasUsed": 735,
                    "id": 6,
                    "methodDecoded": true,
                    "operation": "CALL",
                    "output": "0x000000000000000000000000276888eff9ee80db0e7801e4b22e25ea6de51f43",
                    "revert": false,
                    "revertMessage": "",
                    "selector": "0x7150d8ae",
                    "status": true,
                    "value": "0"
                },
                "nodeType": 0
            },
            "7": {
                "invocation": {
                    "address": "0xcba7983a6093502d18130e64f7d4f640636c170b",
                    "callData": "0x00000000000000000000000007562a72b24c4048ac91d3ddb8c4b2f340ae9e03",
                    "decodedMethod": null,
                    "errorInfo": "",
                    "fromAddress": "0xd077c09a7e65c4cca490a776d5e395fb4fe7179a",
                    "gasUsed": 3160,
                    "id": 7,
                    "methodDecoded": false,
                    "operation": "CALL",
                    "output": "0x00000000000000000000000060f36e8863d93440ec6c584567cbea3ce76d0232",
                    "revert": false,
                    "revertMessage": "",
                    "selector": "0x4372df99",
                    "status": true,
                    "value": "0"
                },
                "nodeType": 0
            },
            "8": {
                "invocation": {
                    "address": "0xcba7983a6093502d18130e64f7d4f640636c170b",
                    "callData": "0x",
                    "decodedMethod": {
                        "callParams": [],
                        "constructorArguments": "",
                        "name": "price",
                        "returnParams": [
                            {
                                "name": "",
                                "type": "uint256",
                                "value": "411,000,000,000"
                            }
                        ],
                        "signature": "price()"
                    },
                    "errorInfo": "",
                    "fromAddress": "0xd077c09a7e65c4cca490a776d5e395fb4fe7179a",
                    "gasUsed": 692,
                    "id": 8,
                    "methodDecoded": true,
                    "operation": "CALL",
                    "output": "0x0000000000000000000000000000000000000000000000000000005fb1824e00",
                    "revert": false,
                    "revertMessage": "",
                    "selector": "0xa035b1fe",
                    "status": true,
                    "value": "0"
                },
                "nodeType": 0
            },
            "9": {
                "invocation": {
                    "address": "0xcba7983a6093502d18130e64f7d4f640636c170b",
                    "callData": "0x00000000000000000000000060f36e8863d93440ec6c584567cbea3ce76d0232",
                    "decodedMethod": null,
                    "errorInfo": "",
                    "fromAddress": "0xd077c09a7e65c4cca490a776d5e395fb4fe7179a",
                    "gasUsed": 3493,
                    "id": 9,
                    "methodDecoded": false,
                    "operation": "CALL",
                    "output": "0x00000000000000000000000060f36e8863d93440ec6c584567cbea3ce76d0232000000000000000000000000000000000000000000000000000000000000006400000000000000000000000000000000000000000000000000000000f4f99f8000000000000000000000000000000000000000000000000000000000000000a0000000000000000000000000000000000000000000000000000000005cc3470900000000000000000000000000000000000000000000000000000000000000012e00000000000000000000000000000000000000000000000000000000000000",
                    "revert": false,
                    "revertMessage": "",
                    "selector": "0x43ca78a2",
                    "status": true,
                    "value": "0"
                },
                "nodeType": 0
            }
        },
        "gasFlame": [
            {
                "children": [
                    {
                        "children": [
                            {
                                "children": [],
                                "depth": 0,
                                "name": "Initial Gas",
                                "value": 35160
                            },
                            {
                                "children": [
                                    {
                                        "children": [],
                                        "depth": 1,
                                        "name": "buyer",
                                        "value": 735
                                    },
                                    {
                                        "children": [],
                                        "depth": 1,
                                        "name": "0x43dcbc86",
                                        "value": 926
                                    },
                                    {
                                        "children": [
                                            {
                                                "children": [],
                                                "depth": 2,
                                                "name": "ecrecover",
                                                "value": 3000
                                            }
                                        ],
                                        "depth": 1,
                                        "name": "0x24c91c1b",
                                        "value": 6954
                                    },
                                    {
                                        "children": [],
                                        "depth": 1,
                                        "name": "0xffaef25e",
                                        "value": 135778
                                    },
                                    {
                                        "children": [],
                                        "depth": 1,
                                        "name": "buyer",
                                        "value": 735
                                    },
                                    {
                                        "children": [],
                                        "depth": 1,
                                        "name": "0x4372df99",
                                        "value": 3160
                                    },
                                    {
                                        "children": [],
                                        "depth": 1,
                                        "name": "price",
                                        "value": 692
                                    },
                                    {
                                        "children": [],
                                        "depth": 1,
                                        "name": "0x43ca78a2",
                                        "value": 3493
                                    },
                                    {
                                        "children": [],
                                        "depth": 1,
                                        "name": "transferFrom",
                                        "value": 19843
                                    }
                                ],
                                "depth": 0,
                                "name": "Executed Gas",
                                "value": 266195
                            }
                        ],
                        "depth": -1,
                        "name": "Actual Gas Used",
                        "value": 301355
                    },
                    {
                        "children": [],
                        "depth": -1,
                        "name": "Refunded Gas",
                        "value": 0
                    }
                ],
                "depth": -2,
                "name": "Total Gas",
                "value": 301355
            }
        ],
        "isConfirmed": true,
        "mainTrace": [
            {
                "children": [
                    {
                        "children": [
                            {
                                "children": [],
                                "depth": 1,
                                "id": 1,
                                "order": 1
                            },
                            {
                                "children": [],
                                "depth": 1,
                                "id": 2,
                                "order": 2
                            },
                            {
                                "children": [
                                    {
                                        "children": [],
                                        "depth": 2,
                                        "id": 4,
                                        "order": 4
                                    }
                                ],
                                "depth": 1,
                                "id": 3,
                                "order": 3
                            },
                            {
                                "children": [],
                                "depth": 1,
                                "id": 5,
                                "order": 5
                            },
                            {
                                "children": [],
                                "depth": 1,
                                "id": 6,
                                "order": 6
                            },
                            {
                                "children": [],
                                "depth": 1,
                                "id": 7,
                                "order": 7
                            },
                            {
                                "children": [],
                                "depth": 1,
                                "id": 8,
                                "order": 8
                            },
                            {
                                "children": [],
                                "depth": 1,
                                "id": 9,
                                "order": 9
                            },
                            {
                                "children": [
                                    {
                                        "children": [],
                                        "depth": 2,
                                        "id": 11,
                                        "order": 11
                                    }
                                ],
                                "depth": 1,
                                "id": 10,
                                "order": 10
                            },
                            {
                                "children": [],
                                "depth": 1,
                                "id": 12,
                                "order": 12
                            }
                        ],
                        "depth": 0,
                        "id": 0,
                        "order": 0
                    }
                ],
                "depth": -1,
                "id": -1,
                "order": -1
            }
        ],
        "mainTraceNodeCount": 13,
        "parentIdMap": {
            "0": -1,
            "1": 0,
            "10": 0,
            "11": 10,
            "12": 0,
            "2": 0,
            "3": 0,
            "4": 3,
            "5": 0,
            "6": 0,
            "7": 0,
            "8": 0,
            "9": 0
        },
        "tidyTrace": [
            {
                "children": [
                    {
                        "children": [
                            {
                                "children": [],
                                "depth": 1,
                                "id": 1,
                                "order": 1
                            },
                            {
                                "children": [],
                                "depth": 1,
                                "id": 2,
                                "order": 2
                            },
                            {
                                "children": [
                                    {
                                        "children": [],
                                        "depth": 2,
                                        "id": 4,
                                        "order": 4
                                    }
                                ],
                                "depth": 1,
                                "id": 3,
                                "order": 3
                            },
                            {
                                "children": [],
                                "depth": 1,
                                "id": 5,
                                "order": 5
                            },
                            {
                                "children": [],
                                "depth": 1,
                                "id": 6,
                                "order": 6
                            },
                            {
                                "children": [],
                                "depth": 1,
                                "id": 7,
                                "order": 7
                            },
                            {
                                "children": [],
                                "depth": 1,
                                "id": 8,
                                "order": 8
                            },
                            {
                                "children": [],
                                "depth": 1,
                                "id": 9,
                                "order": 9
                            },
                            {
                                "children": [
                                    {
                                        "children": [],
                                        "depth": 2,
                                        "id": 11,
                                        "order": 11
                                    }
                                ],
                                "depth": 1,
                                "id": 10,
                                "order": 10
                            },
                            {
                                "children": [],
                                "depth": 1,
                                "id": 12,
                                "order": 12
                            }
                        ],
                        "depth": 0,
                        "id": 0,
                        "order": 0
                    }
                ],
                "depth": -1,
                "id": -1,
                "order": -1
            }
        ],
        "tidyTraceNodeCount": 13
    },
    "state_change": {
        "stateChanges": [
            {
                "address": "0x3f17dd476faf0a4855572f0b6ed5115d9bba22ad",
                "erc": "ERC-20",
                "slots": [
                    {
                        "current": "0x00000000000000000000000000000000000000000000000000000d8b46d55000",
                        "key": "0xe1c669ed67079349b4828cd4eb8a6b0ac7c3cc8873b52270b434b571394d49d1",
                        "prev": "0x00000000000000000000000000000000000000000000000000000debed513d80"
                    },
                    {
                        "current": "0x00000000000000000000000000000000000000000000000000034a793e7cda80",
                        "key": "0x4bf6cea7931b73dcc19a284b39831d4cb052ce3d3b06a548358f340f09fb1296",
                        "prev": "0x00000000000000000000000000000000000000000000000000034ad9e4f8c800"
                    },
                    {
                        "current": "0x000000000000000000000000000000000000000000000000000076b4daf9e100",
                        "key": "0xcd033b39fa1c35330feaed8bfe082617543fe525467ada266856aa0a4f16723f",
                        "prev": "0x00000000000000000000000000000000000000000000000000007654347df380"
                    }
                ],
                "storageVariables": [
                    {
                        "name": "allowed",
                        "type": "mapping(address => mapping(address => uint256))",
                        "value": {
                            "pairs": [
                                {
                                    "key": "0x276888eff9ee80db0e7801e4b22e25ea6de51f43",
                                    "value": {
                                        "pairs": [
                                            {
                                                "key": "0xd077c09a7e65c4cca490a776d5e395fb4fe7179a",
                                                "value": {
                                                    "current": "14891840000000",
                                                    "prev": "15306950000000",
                                                    "typeTag": 1
                                                }
                                            }
                                        ],
                                        "typeTag": 4
                                    }
                                }
                            ],
                            "typeTag": 4
                        }
                    },
                    {
                        "name": "balances",
                        "type": "mapping(address => uint256)",
                        "value": {
                            "pairs": [
                                {
                                    "key": "0x276888eff9ee80db0e7801e4b22e25ea6de51f43",
                                    "value": {
                                        "current": "926309530000000",
                                        "prev": "926724640000000",
                                        "typeTag": 1
                                    }
                                },
                                {
                                    "key": "0xd077c09a7e65c4cca490a776d5e395fb4fe7179a",
                                    "value": {
                                        "current": "130519140000000",
                                        "prev": "130104030000000",
                                        "typeTag": 1
                                    }
                                }
                            ],
                            "typeTag": 4
                        }
                    }
                ]
            },
            {
                "address": "0xcba7983a6093502d18130e64f7d4f640636c170b",
                "erc": "",
                "slots": [
                    {
                        "current": "0x3938316462396233386265393434626163663836396139396339613634383130",
                        "key": "0x61c30422fe19e0aa90a23ad2c5de3bbdb4a028c0b292acd5566059dfaf2f9258",
                        "prev": "0x0000000000000000000000000000000000000000000000000000000000000000"
                    },
                    {
                        "current": "0x3338613434666666313238626664633765653364643966663466373537616261",
                        "key": "0x61c30422fe19e0aa90a23ad2c5de3bbdb4a028c0b292acd5566059dfaf2f9259",
                        "prev": "0x0000000000000000000000000000000000000000000000000000000000000000"
                    },
                    {
                        "current": "0x000000000000000000000000000000000000000000000000000000005cc4c516",
                        "key": "0xa8642e44f010f8485e509b15b6f331ae89e2587657e04b2b470243df7dba3e9e",
                        "prev": "0x0000000000000000000000000000000000000000000000000000000000000000"
                    },
                    {
                        "current": "0x00000000000000000000000000000000000000000000000000000000000002b7",
                        "key": "0x000000000000000000000000000000000000000000000000000000000000000b",
                        "prev": "0x00000000000000000000000000000000000000000000000000000000000002b6"
                    },
                    {
                        "current": "0x00000000000000000000000007562a72b24c4048ac91d3ddb8c4b2f340ae9e03",
                        "key": "0x0175b7a638427703f0dbe7bb9bbf987a2551717b34e79f33b5b1008d1fa0206f",
                        "prev": "0x0000000000000000000000000000000000000000000000000000000000000000"
                    },
                    {
                        "current": "0x00000000000000000000000060f36e8863d93440ec6c584567cbea3ce76d0232",
                        "key": "0xa8642e44f010f8485e509b15b6f331ae89e2587657e04b2b470243df7dba3e9c",
                        "prev": "0x0000000000000000000000000000000000000000000000000000000000000000"
                    },
                    {
                        "current": "0x0000000000000000000000000000000000000000000000000000000000000081",
                        "key": "0xa8642e44f010f8485e509b15b6f331ae89e2587657e04b2b470243df7dba3e9d",
                        "prev": "0x0000000000000000000000000000000000000000000000000000000000000000"
                    }
                ],
                "storageVariables": []
            },
            {
                "address": "0xd077c09a7e65c4cca490a776d5e395fb4fe7179a",
                "erc": "",
                "slots": [
                    {
                        "current": "0x00000000000000000000000000000000000000000000000000000060a67bed80",
                        "key": "0xc644ae63076218f94eaca904cd95288efbe73302919518c3be3121440974cb97",
                        "prev": "0x0000000000000000000000000000000000000000000000000000000000000000"
                    },
                    {
                        "current": "0x0000000000000000000000000000000000000000000000000000000000000001",
                        "key": "0x56ab8a069d02a4d38f0e39aec0888a0c0ab0a8f71123c1f24132be4937259102",
                        "prev": "0x0000000000000000000000000000000000000000000000000000000000000000"
                    },
                    {
                        "current": "0x000000000000000000000000cba7983a6093502d18130e64f7d4f640636c170b",
                        "key": "0x1f345eff42b10137ace2f072bccff22a19c72e31d4194ab47619f140bdcc282a",
                        "prev": "0x0000000000000000000000000000000000000000000000000000000000000000"
                    }
                ],
                "storageVariables": [
                    {
                        "name": "buyerBalance",
                        "type": "mapping(address => mapping(address => mapping(address => uint256)))",
                        "value": {
                            "pairs": [
                                {
                                    "key": "0x276888eff9ee80db0e7801e4b22e25ea6de51f43",
                                    "value": {
                                        "pairs": [
                                            {
                                                "key": "0xcba7983a6093502d18130e64f7d4f640636c170b",
                                                "value": {
                                                    "pairs": [
                                                        {
                                                            "key": "0x07562a72b24c4048ac91d3ddb8c4b2f340ae9e03",
                                                            "value": {
                                                                "current": "415110000000",
                                                                "prev": "0",
                                                                "typeTag": 1
                                                            }
                                                        }
                                                    ],
                                                    "typeTag": 4
                                                }
                                            }
                                        ],
                                        "typeTag": 4
                                    }
                                }
                            ],
                            "typeTag": 4
                        }
                    },
                    {
                        "name": "ordersBySeller",
                        "type": "mapping(address => address[])",
                        "value": {
                            "pairs": [
                                {
                                    "key": "0x07562a72b24c4048ac91d3ddb8c4b2f340ae9e03",
                                    "value": {
                                        "elemType": "address",
                                        "elems": [
                                            {
                                                "index": 0,
                                                "value": {
                                                    "current": "0xcba7983a6093502d18130e64f7d4f640636c170b",
                                                    "prev": "0x0000000000000000000000000000000000000000",
                                                    "typeTag": 1
                                                }
                                            }
                                        ],
                                        "typeTag": 2
                                    }
                                }
                            ],
                            "typeTag": 4
                        }
                    }
                ]
            }
        ]
    }
}