{
    "balance_change": {
        "balanceChanges": []
    },
    "profile": {
        "basic_info": {
            "baseFee": "92.153484954",
            "blockNumber": 14253209,
            "callData": "0xa22cb465000000000000000000000000d1dcad37d0c4a69ea23c92ff990a38744d9268150000000000000000000000000000000000000000000000000000000000000001",
            "debugEnable": true,
            "errorInfo": "",
            "eventCount": 1,
            "feeRecipient": "0x8f03f1a3f10c05e7cccf75c1fd10168e06659be7",
            "formatValue": "0",
            "gasLimit": 46145,
            "gasPrice": "94.153484954",
            "gasUsed": 46145,
            "intTxnCount": 0,
            "internalRevert": false,
            "internalRevertMessage": "",
            "isContractCreation": false,
            "isFlashloan": false,
            "maxFee": "108.500779838",
            "nonce": 130,
            "overwritedBlockNumber": -1,
            "priorityFee": "2",
            "receiver": "0x19350eb381ab2f88d274e740bd062ab5ff15542e",
            "revertMessage": "",
            "sender": "0xb7957368638c2cc1bf7ecf50795d44e61f228b49",
            "simulationEnable": true,
            "sourceTxnHash": "0xb023be407fcc686aa6c44fee8b74600c2d8f7b0c0b83825203b7c3df1f5a3807",
            "status": true,
            "timestamp": "2022-02-22T02:33:00Z",
            "transactionFee": "0.00434471256320233",
            "txnHash": "0xb023be407fcc686aa6c44fee8b74600c2d8f7b0c0b83825203b7c3df1f5a3807",
            "txnIndex": 184,
            "type": 2,
            "value": "0"
        },
        "fund_flow": [],
        "token_infos": [
            {
                "address": "0xc02aaa39b223fe8d0a0e5c4f27ead9083c756cc2",
                "decimals": 18
            },
            {
                "address": "0xeeeeeeeeeeeeeeeeeeeeeeeeeeeeeeeeeeeeeeee",
                "decimals": 18
            }
        ]
    },
    "address_label": {
        "labels": [
            {
                "address": "0x0000000000000000000000000000000000000003",
                "label": "Precompiled"
            },
            {
                "address": "0x0000000000000000000000000000000000000004",
                "label": "Precompiled"
            },
            {
                "address": "0xeeeeeeeeeeeeeeeeeeeeeeeeeeeeeeeeeeeeeeee",
                "label": "Ether"
            },
            {
                "address": "0x19350eb381ab2f88d274e740bd062ab5ff15542e",
                "label": "SkuxxVerse: SKUXX Token"
            },
            {
                "address": "0x0000000000000000000000000000000000000001",
                "label": "Precompiled"
            },
            {
                "address": "0x0000000000000000000000000000000000000002",
                "label": "Precompiled"
            }
        ]
    },
    "trace": {
        "accountLabels": null,
        "dataMap": {
            "-1": {
                "invocation": {
                    "address": "0xb7957368638c2cc1bf7ecf50795d44e61f228b49",
                    "callData": "",
                    "decodedMethod": null,
                    "errorInfo": "",
                    "fromAddress": "",
                    "gasUsed": 0,
                    "id": -1,
                    "methodDecoded": false,
                    "operation": "",
                    "output": "",
                    "revert": false,
                    "revertMessage": "",
                    "selector": "",
                    "status": false,
                    "value": ""
                },
                "nodeType": 0
            },
            "0": {
                "invocation": {
                    "address": "0x19350eb381ab2f88d274e740bd062ab5ff15542e",
                    "callData": "0x000000000000000000000000d1dcad37d0c4a69ea23c92ff990a38744d9268150000000000000000000000000000000000000000000000000000000000000001",
                    "decodedMethod": {
                        "callParams": [
                            {
                                "name": "operator",
                                "type": "address",
                                "value": "0xd1dcad37d0c4a69ea23c92ff990a38744d926815"
                            },
                            {
                                "name": "approved",
                                "type": "bool",
                                "value": true
                            }
                        ],
                        "constructorArguments": "",
                        "name": "setApprovalForAll",
                        "returnParams": [],
                        "signature": "setApprovalForAll(address,bool)"
                    },
                    "errorInfo": "",
                    "fromAddress": "0xb7957368638c2cc1bf7ecf50795d44e61f228b49",
                    "gasUsed": 46145,
                    "id": 0,
                    "methodDecoded": true,
                    "operation": "CALL",
                    "output": "",
                    "revert": false,
                    "revertMessage": "",
                    "selector": "0xa22cb465",
                    "status": true,
                    "value": "0"
                },
                "nodeType": 0
            },
            "1": {
                "event": {
                    "contract": "0x19350eb381ab2f88d274e740bd062ab5ff15542e",
                    "decodedLog": {
                        "name": "ApprovalForAll",
                        "params": [
                            {
                                "name": "owner",
                                "type": "address",
                                "value": "0xb7957368638c2cc1bf7ecf50795d44e61f228b49"
                            },
                            {
                                "name": "operator",
                                "type": "address",
                                "value": "0xd1dcad37d0c4a69ea23c92ff990a38744d926815"
                            },
                            {
                                "name": "approved",
                                "type": "bool",
                                "value": true
                            }
                        ],
                        "signature": "ApprovalForAll(address,address,bool)"
                    },
                    "id": 1,
                    "logData": "0x0000000000000000000000000000000000000000000000000000000000000001",
                    "logDecoded": true,
                    "operation": "EVENT",
                    "revert": false,
                    "status": true,
                    "topics": [
                        "0x17307eab39ab6107e8899845ad3d59bd9653f200f220920489ca2b5937696c31",
                        "0x000000000000000000000000b7957368638c2cc1bf7ecf50795d44e61f228b49",
                        "0x000000000000000000000000d1dcad37d0c4a69ea23c92ff990a38744d926815"
                    ]
                },
                "nodeType": 1
            }
        },
        "gasFlame": [
            {
                "children": [
                    {
                        "children": [
                            {
                                "children": [],
                                "depth": 0,
                                "name": "Initial Gas",
                                "value": 21572
                            },
                            {
                                "children": [],
                                "depth": 0,
                                "name": "Executed Gas",
                                "value": 24573
                            }
                        ],
                        "depth": -1,
                        "name": "Actual Gas Used",
                        "value": 46145
                    },
                    {
                        "children": [],
                        "depth": -1,
                        "name": "Refunded Gas",
                        "value": 0
                    }
                ],
                "depth": -2,
                "name": "Total Gas",
                "value": 46145
            }
        ],
        "isConfirmed": true,
        "mainTrace": [
            {
                "children": [
                    {
                        "children": [
                            {
                                "children": [],
                                "depth": 1,
                                "id": 1,
                                "order": 1
                            }
                        ],
                        "depth": 0,
                        "id": 0,
                        "order": 0
                    }
                ],
                "depth": -1,
                "id": -1,
                "order": -1
            }
        ],
        "mainTraceNodeCount": 2,
        "parentIdMap": {
            "0": -1,
            "1": 0
        },
        "tidyTrace": [
            {
                "children": [
                    {
                        "children": [
                            {
                                "children": [],
                                "depth": 1,
                                "id": 1,
                                "order": 1
                            }
                        ],
                        "depth": 0,
                        "id": 0,
                        "order": 0
                    }
                ],
                "depth": -1,
                "id": -1,
                "order": -1
            }
        ],
        "tidyTraceNodeCount": 2
    },
    "state_change": {
        "stateChanges": [
            {
                "address": "0x19350eb381ab2f88d274e740bd062ab5ff15542e",
                "erc": "ERC-721",
                "slots": [
                    {
                        "current": "0x0000000000000000000000000000000000000000000000000000000000000001",
                        "key": "0xe493bcee8bb8b9735d1e03a1296df8f4f2d3e3ca8c69d5753979e3ed4bc5f56b",
                        "prev": "0x0000000000000000000000000000000000000000000000000000000000000000"
                    }
                ],
                "storageVariables": [
                    {
                        "name": "_operatorApprovals",
                        "type": "mapping(address => mapping(address => bool))",
                        "value": {
                            "pairs": [
                                {
                                    "key": "0xb7957368638c2cc1bf7ecf50795d44e61f228b49",
                                    "value": {
                                        "pairs": [
                                            {
                                                "key": "0xd1dcad37d0c4a69ea23c92ff990a38744d926815",
                                                "value": {
                                                    "current": "true",
                                                    "prev": "false",
                                                    "typeTag": 1
                                                }
                                            }
                                        ],
                                        "typeTag": 4
                                    }
                                }
                            ],
                            "typeTag": 4
                        }
                    }
                ]
            }
        ]
    }
}