{
    "balance_change": {
        "balanceChanges": [
            {
                "account": "0xd307f47aab5fd21cba684a878670f7ecbd9b0719",
                "assets": [
                    {
                        "address": "0xb1ed41dc1fe9b723a31137afdd1201d17917fe91",
                        "amount": "513",
                        "iconUrl": "",
                        "isERC1155": false,
                        "isERC721": false,
                        "sign": false,
                        "value": ""
                    }
                ]
            },
            {
                "account": "0x1415436d71ee4d86938a0e71e857bb8a06b2b25d",
                "assets": [
                    {
                        "address": "0xb1ed41dc1fe9b723a31137afdd1201d17917fe91",
                        "amount": "513",
                        "iconUrl": "",
                        "isERC1155": false,
                        "isERC721": false,
                        "sign": true,
                        "value": ""
                    }
                ]
            }
        ]
    },
    "profile": {
        "basic_info": {
            "baseFee": "",
            "blockNumber": 5810877,
            "callData": "0xa9059cbb0000000000000000000000001415436d71ee4d86938a0e71e857bb8a06b2b25d0000000000000000000000000000000000000000000000000000000bf1b7e100",
            "debugEnable": true,
            "errorInfo": "",
            "eventCount": 1,
            "feeRecipient": "0x52bc44d5378309ee2abf1539bf71de1b7d7be3b5",
            "formatValue": "0",
            "gasLimit": 37576,
            "gasPrice": "41",
            "gasUsed": 22576,
            "intTxnCount": 0,
            "internalRevert": false,
            "internalRevertMessage": "",
            "isContractCreation": false,
            "isFlashloan": false,
            "maxFee": "",
            "nonce": 113,
            "overwritedBlockNumber": -1,
            "priorityFee": "",
            "receiver": "0xb1ed41dc1fe9b723a31137afdd1201d17917fe91",
            "revertMessage": "",
            "sender": "0xd307f47aab5fd21cba684a878670f7ecbd9b0719",
            "simulationEnable": true,
            "sourceTxnHash": "0xb0d08176f74073e95b4d7ffd388b8bd01ac99ff322329306fe995dd936dedd37",
            "status": true,
            "timestamp": "2018-06-18T12:41:49Z",
            "transactionFee": "0.000925616",
            "txnHash": "0xb0d08176f74073e95b4d7ffd388b8bd01ac99ff322329306fe995dd936dedd37",
            "txnIndex": 23,
            "type": 0,
            "value": "0"
        },
        "fund_flow": [
            {
                "amount": "513",
                "from": "0xd307f47aab5fd21cba684a878670f7ecbd9b0719",
                "id": 1,
                "isERC1155": false,
                "isERC721": false,
                "isReverted": false,
                "order": 1,
                "to": "0x1415436d71ee4d86938a0e71e857bb8a06b2b25d",
                "token": "0xb1ed41dc1fe9b723a31137afdd1201d17917fe91"
            }
        ],
        "token_infos": [
            {
                "address": "0xb1ed41dc1fe9b723a31137afdd1201d17917fe91",
                "decimals": 8
            },
            {
                "address": "0xc02aaa39b223fe8d0a0e5c4f27ead9083c756cc2",
                "decimals": 18
            },
            {
                "address": "0xeeeeeeeeeeeeeeeeeeeeeeeeeeeeeeeeeeeeeeee",
                "decimals": 18
            }
        ]
    },
    "address_label": {
        "labels": [
            {
                "address": "0x0000000000000000000000000000000000000002",
                "label": "Precompiled"
            },
            {
                "address": "0x0000000000000000000000000000000000000003",
                "label": "Precompiled"
            },
            {
                "address": "0x0000000000000000000000000000000000000004",
                "label": "Precompiled"
            },
            {
                "address": "0xeeeeeeeeeeeeeeeeeeeeeeeeeeeeeeeeeeeeeeee",
                "label": "Ether"
            },
            {
                "address": "0xb1ed41dc1fe9b723a31137afdd1201d17917fe91",
                "label": "Alttex.io: ALTX Token"
            },
            {
                "address": "0x0000000000000000000000000000000000000001",
                "label": "Precompiled"
            }
        ]
    },
    "trace": {
        "accountLabels": null,
        "dataMap": {
            "-1": {
                "invocation": {
                    "address": "0xd307f47aab5fd21cba684a878670f7ecbd9b0719",
                    "callData": "",
                    "decodedMethod": null,
                    "errorInfo": "",
                    "fromAddress": "",
                    "gasUsed": 0,
                    "id": -1,
                    "methodDecoded": false,
                    "operation": "",
                    "output": "",
                    "revert": false,
                    "revertMessage": "",
                    "selector": "",
                    "status": false,
                    "value": ""
                },
                "nodeType": 0
            },
            "0": {
                "invocation": {
                    "address": "0xb1ed41dc1fe9b723a31137afdd1201d17917fe91",
                    "callData": "0x0000000000000000000000001415436d71ee4d86938a0e71e857bb8a06b2b25d0000000000000000000000000000000000000000000000000000000bf1b7e100",
                    "decodedMethod": {
                        "callParams": [
                            {
                                "name": "_to",
                                "type": "address",
                                "value": "0x1415436d71ee4d86938a0e71e857bb8a06b2b25d"
                            },
                            {
                                "decimalAvailable": true,
                                "name": "_value",
                                "type": "uint256",
                                "value": "51,300,000,000"
                            }
                        ],
                        "constructorArguments": "",
                        "name": "transfer",
                        "returnParams": [
                            {
                                "name": "",
                                "type": "bool",
                                "value": true
                            }
                        ],
                        "signature": "transfer(address,uint256)"
                    },
                    "errorInfo": "",
                    "fromAddress": "0xd307f47aab5fd21cba684a878670f7ecbd9b0719",
                    "gasUsed": 22576,
                    "id": 0,
                    "methodDecoded": true,
                    "operation": "CALL",
                    "output": "0x0000000000000000000000000000000000000000000000000000000000000001",
                    "revert": false,
                    "revertMessage": "",
                    "selector": "0xa9059cbb",
                    "status": true,
                    "value": "0"
                },
                "nodeType": 0
            },
            "1": {
                "event": {
                    "contract": "0xb1ed41dc1fe9b723a31137afdd1201d17917fe91",
                    "decodedLog": {
                        "name": "Transfer",
                        "params": [
                            {
                                "name": "from",
                                "type": "address",
                                "value": "0xd307f47aab5fd21cba684a878670f7ecbd9b0719"
                            },
                            {
                                "name": "to",
                                "type": "address",
                                "value": "0x1415436d71ee4d86938a0e71e857bb8a06b2b25d"
                            },
                            {
                                "decimalAvailable": true,
                                "name": "value",
                                "type": "uint256",
                                "value": "51,300,000,000"
                            }
                        ],
                        "signature": "Transfer(address,address,uint256)"
                    },
                    "id": 1,
                    "logData": "0x0000000000000000000000000000000000000000000000000000000bf1b7e100",
                    "logDecoded": true,
                    "operation": "EVENT",
                    "revert": false,
                    "status": true,
                    "topics": [
                        "0xddf252ad1be2c89b69c2b068fc378daa952ba7f163c4a11628f55a4df523b3ef",
                        "0x000000000000000000000000d307f47aab5fd21cba684a878670f7ecbd9b0719",
                        "0x0000000000000000000000001415436d71ee4d86938a0e71e857bb8a06b2b25d"
                    ]
                },
                "nodeType": 1
            }
        },
        "gasFlame": [
            {
                "children": [
                    {
                        "children": [
                            {
                                "children": [],
                                "depth": 0,
                                "name": "Initial Gas",
                                "value": 23064
                            },
                            {
                                "children": [],
                                "depth": 0,
                                "name": "Executed Gas",
                                "value": 14512
                            }
                        ],
                        "depth": -1,
                        "name": "Actual Gas Used",
                        "value": 22576
                    },
                    {
                        "children": [],
                        "depth": -1,
                        "name": "Refunded Gas",
                        "value": 15000
                    }
                ],
                "depth": -2,
                "name": "Total Gas",
                "value": 37576
            }
        ],
        "isConfirmed": true,
        "mainTrace": [
            {
                "children": [
                    {
                        "children": [
                            {
                                "children": [],
                                "depth": 1,
                                "id": 1,
                                "order": 1
                            }
                        ],
                        "depth": 0,
                        "id": 0,
                        "order": 0
                    }
                ],
                "depth": -1,
                "id": -1,
                "order": -1
            }
        ],
        "mainTraceNodeCount": 2,
        "parentIdMap": {
            "0": -1,
            "1": 0
        },
        "tidyTrace": [
            {
                "children": [
                    {
                        "children": [
                            {
                                "children": [],
                                "depth": 1,
                                "id": 1,
                                "order": 1
                            }
                        ],
                        "depth": 0,
                        "id": 0,
                        "order": 0
                    }
                ],
                "depth": -1,
                "id": -1,
                "order": -1
            }
        ],
        "tidyTraceNodeCount": 2
    },
    "state_change": {
        "stateChanges": [
            {
                "address": "0xb1ed41dc1fe9b723a31137afdd1201d17917fe91",
                "erc": "ERC-20",
                "slots": [
                    {
                        "current": "0x0000000000000000000000000000000000000000000000000000003108bcfa00",
                        "key": "0x63373d266fdbf55e52e02adde59ba0476684d849152a2e414e328b91a20a4563",
                        "prev": "0x0000000000000000000000000000000000000000000000000000002517051900"
                    },
                    {
                        "current": "0x0000000000000000000000000000000000000000000000000000000000000000",
                        "key": "0x8454bf9d2c7cf16493c96dcaec316df676592bb474e543638b4df7e8edaba366",
                        "prev": "0x0000000000000000000000000000000000000000000000000000000bf1b7e100"
                    }
                ],
                "storageVariables": [
                    {
                        "name": "balances",
                        "type": "mapping(address => uint256)",
                        "value": {
                            "pairs": [
                                {
                                    "key": "0x1415436d71ee4d86938a0e71e857bb8a06b2b25d",
                                    "value": {
                                        "current": "210600000000",
                                        "prev": "159300000000",
                                        "typeTag": 1
                                    }
                                },
                                {
                                    "key": "0xd307f47aab5fd21cba684a878670f7ecbd9b0719",
                                    "value": {
                                        "current": "0",
                                        "prev": "51300000000",
                                        "typeTag": 1
                                    }
                                }
                            ],
                            "typeTag": 4
                        }
                    }
                ]
            }
        ]
    }
}