{
    "balance_change": {
        "balanceChanges": [
            {
                "account": "0x48ec5560bfd59b95859965cce48cc244cfdf6b0c",
                "assets": [
                    {
                        "address": "0xeeeeeeeeeeeeeeeeeeeeeeeeeeeeeeeeeeeeeeee",
                        "amount": "0.0106",
                        "iconUrl": "https://assets.blocksec.com/image/1663669189317-3.png",
                        "isERC1155": false,
                        "isERC721": false,
                        "sign": false,
                        "value": "26.450921999999998843"
                    }
                ]
            },
            {
                "account": "0xcfc0f98f30742b6d880f90155d4ebb885e55ab33",
                "assets": [
                    {
                        "address": "0xeeeeeeeeeeeeeeeeeeeeeeeeeeeeeeeeeeeeeeee",
                        "amount": "0.0106",
                        "iconUrl": "https://assets.blocksec.com/image/1663669189317-3.png",
                        "isERC1155": false,
                        "isERC721": false,
                        "sign": true,
                        "value": "26.450921999999998843"
                    }
                ]
            }
        ]
    },
    "profile": {
        "basic_info": {
            "baseFee": "19.550737165",
            "blockNumber": 19043672,
            "callData": "0x39125215000000000000000000000000a2afbedf7e5c8bf94ee7a4f7912359104c1868810000000000000000000000000000000000000000000000000025a8a4d29e800000000000000000000000000000000000000000000000000000000000000000c00000000000000000000000000000000000000000000000000000000065b42772000000000000000000000000000000000000000000000000000000000002cdb700000000000000000000000000000000000000000000000000000000000000e00000000000000000000000000000000000000000000000000000000000000000000000000000000000000000000000000000000000000000000000000000004163586ab9d444a7564a406512ef61dc54b4e912e04ab89781f379055ce71b241b0aee1bfcef4b40c9ac03a0e01e8608c0b808f253fceeae7f044a75581c7f3d171b00000000000000000000000000000000000000000000000000000000000000",
            "debugEnable": true,
            "errorInfo": "",
            "eventCount": 2,
            "feeRecipient": "0x95222290dd7278aa3ddd389cc1e1d165cc4bafe5",
            "formatValue": "0",
            "gasLimit": 174486,
            "gasPrice": "19.827047534",
            "gasUsed": 102505,
            "intTxnCount": 5,
            "internalRevert": false,
            "internalRevertMessage": "",
            "isContractCreation": false,
            "isFlashloan": false,
            "maxFee": "40.922449385",
            "nonce": 186956,
            "overwritedBlockNumber": -1,
            "priorityFee": "0.276310369",
            "receiver": "0x48ec5560bfd59b95859965cce48cc244cfdf6b0c",
            "revertMessage": "",
            "sender": "0x538d72ded42a76a30f730292da939e0577f22f57",
            "simulationEnable": true,
            "sourceTxnHash": "0xb0d25aea77345117a3c2c8c90132b9651065e18b7139716c5f7000e61993ae67",
            "status": true,
            "timestamp": "2024-01-19T21:43:47Z",
            "transactionFee": "0.00203237150747267",
            "txnHash": "0xb0d25aea77345117a3c2c8c90132b9651065e18b7139716c5f7000e61993ae67",
            "txnIndex": 134,
            "type": 2,
            "value": "0"
        },
        "fund_flow": [
            {
                "amount": "0.0106",
                "from": "0x48ec5560bfd59b95859965cce48cc244cfdf6b0c",
                "id": 1,
                "isERC1155": false,
                "isERC721": false,
                "isReverted": false,
                "order": 1,
                "to": "0xa2afbedf7e5c8bf94ee7a4f7912359104c186881",
                "token": "0xeeeeeeeeeeeeeeeeeeeeeeeeeeeeeeeeeeeeeeee"
            },
            {
                "amount": "0.0106",
                "from": "0xa2afbedf7e5c8bf94ee7a4f7912359104c186881",
                "id": 2,
                "isERC1155": false,
                "isERC721": false,
                "isReverted": false,
                "order": 2,
                "to": "0xcfc0f98f30742b6d880f90155d4ebb885e55ab33",
                "token": "0xeeeeeeeeeeeeeeeeeeeeeeeeeeeeeeeeeeeeeeee"
            }
        ],
        "token_infos": [
            {
                "address": "0xc02aaa39b223fe8d0a0e5c4f27ead9083c756cc2",
                "decimals": 18
            },
            {
                "address": "0xeeeeeeeeeeeeeeeeeeeeeeeeeeeeeeeeeeeeeeee",
                "decimals": 18
            }
        ]
    },
    "address_label": {
        "labels": [
            {
                "address": "0x0000000000000000000000000000000000000002",
                "label": "Precompiled"
            },
            {
                "address": "0x0000000000000000000000000000000000000003",
                "label": "Precompiled"
            },
            {
                "address": "0x0000000000000000000000000000000000000004",
                "label": "Precompiled"
            },
            {
                "address": "0xeeeeeeeeeeeeeeeeeeeeeeeeeeeeeeeeeeeeeeee",
                "label": "Ether"
            },
            {
                "address": "0x48ec5560bfd59b95859965cce48cc244cfdf6b0c",
                "label": "Bitstamp: Wallet"
            },
            {
                "address": "0xe8e847cf573fc8ed75621660a36affd18c543d7e",
                "label": "WalletSimple"
            },
            {
                "address": "0x538d72ded42a76a30f730292da939e0577f22f57",
                "label": "Bitstamp: Deployer"
            },
            {
                "address": "0x0000000000000000000000000000000000000001",
                "label": "Precompiled"
            }
        ]
    },
    "trace": {
        "accountLabels": null,
        "dataMap": {
            "-1": {
                "invocation": {
                    "address": "0x538d72ded42a76a30f730292da939e0577f22f57",
                    "callData": "",
                    "decodedMethod": null,
                    "errorInfo": "",
                    "fromAddress": "",
                    "gasUsed": 0,
                    "id": -1,
                    "methodDecoded": false,
                    "operation": "",
                    "output": "",
                    "revert": false,
                    "revertMessage": "",
                    "selector": "",
                    "status": false,
                    "value": ""
                },
                "nodeType": 0
            },
            "0": {
                "invocation": {
                    "address": "0x48ec5560bfd59b95859965cce48cc244cfdf6b0c",
                    "callData": "0x000000000000000000000000a2afbedf7e5c8bf94ee7a4f7912359104c1868810000000000000000000000000000000000000000000000000025a8a4d29e800000000000000000000000000000000000000000000000000000000000000000c00000000000000000000000000000000000000000000000000000000065b42772000000000000000000000000000000000000000000000000000000000002cdb700000000000000000000000000000000000000000000000000000000000000e00000000000000000000000000000000000000000000000000000000000000000000000000000000000000000000000000000000000000000000000000000004163586ab9d444a7564a406512ef61dc54b4e912e04ab89781f379055ce71b241b0aee1bfcef4b40c9ac03a0e01e8608c0b808f253fceeae7f044a75581c7f3d171b00000000000000000000000000000000000000000000000000000000000000",
                    "decodedMethod": {
                        "callParams": [
                            {
                                "name": "toAddress",
                                "type": "address",
                                "value": "0xa2afbedf7e5c8bf94ee7a4f7912359104c186881"
                            },
                            {
                                "name": "value",
                                "type": "uint256",
                                "value": "10,600,000,000,000,000"
                            },
                            {
                                "name": "data",
                                "type": "bytes",
                                "value": "0x"
                            },
                            {
                                "name": "expireTime",
                                "type": "uint256",
                                "value": "1,706,305,394"
                            },
                            {
                                "name": "sequenceId",
                                "type": "uint256",
                                "value": "183,735"
                            },
                            {
                                "name": "signature",
                                "type": "bytes",
                                "value": "0x63586ab9d444a7564a406512ef61dc54b4e912e04ab89781f379055ce71b241b0aee1bfcef4b40c9ac03a0e01e8608c0b808f253fceeae7f044a75581c7f3d171b"
                            }
                        ],
                        "constructorArguments": "",
                        "name": "sendMultiSig",
                        "returnParams": [],
                        "signature": "sendMultiSig(address,uint256,bytes,uint256,uint256,bytes)"
                    },
                    "errorInfo": "",
                    "fromAddress": "0x538d72ded42a76a30f730292da939e0577f22f57",
                    "gasUsed": 102505,
                    "id": 0,
                    "methodDecoded": true,
                    "operation": "CALL",
                    "output": "",
                    "revert": false,
                    "revertMessage": "",
                    "selector": "0x39125215",
                    "status": true,
                    "value": "0"
                },
                "nodeType": 0
            },
            "1": {
                "invocation": {
                    "address": "0xe8e847cf573fc8ed75621660a36affd18c543d7e",
                    "callData": "0x000000000000000000000000a2afbedf7e5c8bf94ee7a4f7912359104c1868810000000000000000000000000000000000000000000000000025a8a4d29e800000000000000000000000000000000000000000000000000000000000000000c00000000000000000000000000000000000000000000000000000000065b42772000000000000000000000000000000000000000000000000000000000002cdb700000000000000000000000000000000000000000000000000000000000000e00000000000000000000000000000000000000000000000000000000000000000000000000000000000000000000000000000000000000000000000000000004163586ab9d444a7564a406512ef61dc54b4e912e04ab89781f379055ce71b241b0aee1bfcef4b40c9ac03a0e01e8608c0b808f253fceeae7f044a75581c7f3d171b00000000000000000000000000000000000000000000000000000000000000",
                    "decodedMethod": {
                        "callParams": [
                            {
                                "name": "toAddress",
                                "type": "address",
                                "value": "0xa2afbedf7e5c8bf94ee7a4f7912359104c186881"
                            },
                            {
                                "name": "value",
                                "type": "uint256",
                                "value": "10,600,000,000,000,000"
                            },
                            {
                                "name": "data",
                                "type": "bytes",
                                "value": "0x"
                            },
                            {
                                "name": "expireTime",
                                "type": "uint256",
                                "value": "1,706,305,394"
                            },
                            {
                                "name": "sequenceId",
                                "type": "uint256",
                                "value": "183,735"
                            },
                            {
                                "name": "signature",
                                "type": "bytes",
                                "value": "0x63586ab9d444a7564a406512ef61dc54b4e912e04ab89781f379055ce71b241b0aee1bfcef4b40c9ac03a0e01e8608c0b808f253fceeae7f044a75581c7f3d171b"
                            }
                        ],
                        "constructorArguments": "",
                        "name": "sendMultiSig",
                        "returnParams": [],
                        "signature": "sendMultiSig(address,uint256,bytes,uint256,uint256,bytes)"
                    },
                    "errorInfo": "",
                    "fromAddress": "0x48ec5560bfd59b95859965cce48cc244cfdf6b0c",
                    "gasUsed": 76092,
                    "id": 1,
                    "methodDecoded": true,
                    "operation": "DELEGATECALL",
                    "output": "",
                    "revert": false,
                    "revertMessage": "",
                    "selector": "0x39125215",
                    "status": true,
                    "value": "0"
                },
                "nodeType": 0
            },
            "2": {
                "invocation": {
                    "address": "0x0000000000000000000000000000000000000001",
                    "callData": "0x4c5933f71341cbecfc39bf0ea960d982e84a698c3d0a401efc25b140000000000000000000000000000000000000000000000000000000000000001b63586ab9d444a7564a406512ef61dc54b4e912e04ab89781f379055ce71b241b0aee1bfcef4b40c9ac03a0e01e8608c0b808f253fceeae7f044a75581c7f3d17",
                    "decodedMethod": {
                        "callParams": [
                            {
                                "name": "hash",
                                "type": "bytes32",
                                "value": "0x1cef37da4c5933f71341cbecfc39bf0ea960d982e84a698c3d0a401efc25b140"
                            },
                            {
                                "name": "v",
                                "type": "uint256",
                                "value": "27"
                            },
                            {
                                "name": "r",
                                "type": "bytes32",
                                "value": "0x63586ab9d444a7564a406512ef61dc54b4e912e04ab89781f379055ce71b241b"
                            },
                            {
                                "name": "s",
                                "type": "bytes32",
                                "value": "0x0aee1bfcef4b40c9ac03a0e01e8608c0b808f253fceeae7f044a75581c7f3d17"
                            }
                        ],
                        "constructorArguments": "",
                        "name": "ecrecover",
                        "returnParams": [
                            {
                                "name": "",
                                "type": "address",
                                "value": "0x7e06ec2471f9fa456d30f854b45567efbb70c85e"
                            }
                        ],
                        "signature": "ecrecover(bytes32,uint256,bytes32,bytes32)"
                    },
                    "errorInfo": "",
                    "fromAddress": "0x48ec5560bfd59b95859965cce48cc244cfdf6b0c",
                    "gasUsed": 3000,
                    "id": 2,
                    "methodDecoded": true,
                    "operation": "STATICCALL",
                    "output": "0x0000000000000000000000007e06ec2471f9fa456d30f854b45567efbb70c85e",
                    "revert": false,
                    "revertMessage": "",
                    "selector": "0x1cef37da",
                    "status": true,
                    "value": "0"
                },
                "nodeType": 0
            },
            "3": {
                "invocation": {
                    "address": "0xa2afbedf7e5c8bf94ee7a4f7912359104c186881",
                    "callData": "0x",
                    "decodedMethod": null,
                    "errorInfo": "",
                    "fromAddress": "0x48ec5560bfd59b95859965cce48cc244cfdf6b0c",
                    "gasUsed": 24275,
                    "id": 3,
                    "methodDecoded": false,
                    "operation": "CALL",
                    "output": "",
                    "revert": false,
                    "revertMessage": "",
                    "selector": "fallback",
                    "status": true,
                    "value": "0.0106"
                },
                "nodeType": 0
            },
            "4": {
                "invocation": {
                    "address": "0x8b747774fc95b5e9cc910255fca928e00583e418",
                    "callData": "0x",
                    "decodedMethod": null,
                    "errorInfo": "",
                    "fromAddress": "0xa2afbedf7e5c8bf94ee7a4f7912359104c186881",
                    "gasUsed": 19256,
                    "id": 4,
                    "methodDecoded": false,
                    "operation": "DELEGATECALL",
                    "output": "",
                    "revert": false,
                    "revertMessage": "",
                    "selector": "fallback",
                    "status": true,
                    "value": "0.0106"
                },
                "nodeType": 0
            },
            "5": {
                "invocation": {
                    "address": "0xcfc0f98f30742b6d880f90155d4ebb885e55ab33",
                    "callData": "0x",
                    "decodedMethod": null,
                    "errorInfo": "",
                    "fromAddress": "0xa2afbedf7e5c8bf94ee7a4f7912359104c186881",
                    "gasUsed": 0,
                    "id": 5,
                    "methodDecoded": false,
                    "operation": "CALL",
                    "output": "",
                    "revert": false,
                    "revertMessage": "",
                    "selector": "fallback",
                    "status": true,
                    "value": "0.0106"
                },
                "nodeType": 0
            },
            "6": {
                "event": {
                    "contract": "0xa2afbedf7e5c8bf94ee7a4f7912359104c186881",
                    "decodedLog": {
                        "name": "ForwarderDeposited",
                        "params": [
                            {
                                "name": "from",
                                "type": "address",
                                "value": "0x48ec5560bfd59b95859965cce48cc244cfdf6b0c"
                            },
                            {
                                "name": "value",
                                "type": "uint256",
                                "value": "10,600,000,000,000,000"
                            },
                            {
                                "name": "data",
                                "type": "bytes",
                                "value": "0x"
                            }
                        ],
                        "signature": "ForwarderDeposited(address,uint256,bytes)"
                    },
                    "id": 6,
                    "logData": "0x00000000000000000000000048ec5560bfd59b95859965cce48cc244cfdf6b0c0000000000000000000000000000000000000000000000000025a8a4d29e800000000000000000000000000000000000000000000000000000000000000000600000000000000000000000000000000000000000000000000000000000000000",
                    "logDecoded": true,
                    "operation": "EVENT",
                    "revert": false,
                    "status": true,
                    "topics": [
                        "0x69b31548dea9b3b707b4dff357d326e3e9348b24e7a6080a218a6edeeec48f9b"
                    ]
                },
                "nodeType": 1
            },
            "7": {
                "event": {
                    "contract": "0x48ec5560bfd59b95859965cce48cc244cfdf6b0c",
                    "decodedLog": {
                        "name": "Transacted",
                        "params": [
                            {
                                "name": "msgSender",
                                "type": "address",
                                "value": "0x538d72ded42a76a30f730292da939e0577f22f57"
                            },
                            {
                                "name": "otherSigner",
                                "type": "address",
                                "value": "0x7e06ec2471f9fa456d30f854b45567efbb70c85e"
                            },
                            {
                                "name": "operation",
                                "type": "bytes32",
                                "value": "0x1cef37da4c5933f71341cbecfc39bf0ea960d982e84a698c3d0a401efc25b140"
                            },
                            {
                                "name": "toAddress",
                                "type": "address",
                                "value": "0xa2afbedf7e5c8bf94ee7a4f7912359104c186881"
                            },
                            {
                                "name": "value",
                                "type": "uint256",
                                "value": "10,600,000,000,000,000"
                            },
                            {
                                "name": "data",
                                "type": "bytes",
                                "value": "0x"
                            }
                        ],
                        "signature": "Transacted(address,address,bytes32,address,uint256,bytes)"
                    },
                    "id": 7,
                    "logData": "0x000000000000000000000000538d72ded42a76a30f730292da939e0577f22f570000000000000000000000007e06ec2471f9fa456d30f854b45567efbb70c85e1cef37da4c5933f71341cbecfc39bf0ea960d982e84a698c3d0a401efc25b140000000000000000000000000a2afbedf7e5c8bf94ee7a4f7912359104c1868810000000000000000000000000000000000000000000000000025a8a4d29e800000000000000000000000000000000000000000000000000000000000000000c00000000000000000000000000000000000000000000000000000000000000000",
                    "logDecoded": true,
                    "operation": "EVENT",
                    "revert": false,
                    "status": true,
                    "topics": [
                        "0x59bed9ab5d78073465dd642a9e3e76dfdb7d53bcae9d09df7d0b8f5234d5a806"
                    ]
                },
                "nodeType": 1
            }
        },
        "gasFlame": [
            {
                "children": [
                    {
                        "children": [
                            {
                                "children": [],
                                "depth": 0,
                                "name": "Initial Gas",
                                "value": 23684
                            },
                            {
                                "children": [
                                    {
                                        "children": [
                                            {
                                                "children": [],
                                                "depth": 2,
                                                "name": "ecrecover",
                                                "value": 3000
                                            },
                                            {
                                                "children": [
                                                    {
                                                        "children": [
                                                            {
                                                                "children": [],
                                                                "depth": 4,
                                                                "name": "fallback",
                                                                "value": 0
                                                            }
                                                        ],
                                                        "depth": 3,
                                                        "name": "fallback",
                                                        "value": 19256
                                                    }
                                                ],
                                                "depth": 2,
                                                "name": "fallback",
                                                "value": 24275
                                            }
                                        ],
                                        "depth": 1,
                                        "name": "sendMultiSig",
                                        "value": 76092
                                    }
                                ],
                                "depth": 0,
                                "name": "Executed Gas",
                                "value": 78821
                            }
                        ],
                        "depth": -1,
                        "name": "Actual Gas Used",
                        "value": 102505
                    },
                    {
                        "children": [],
                        "depth": -1,
                        "name": "Refunded Gas",
                        "value": 0
                    }
                ],
                "depth": -2,
                "name": "Total Gas",
                "value": 102505
            }
        ],
        "isConfirmed": true,
        "mainTrace": [
            {
                "children": [
                    {
                        "children": [
                            {
                                "children": [
                                    {
                                        "children": [],
                                        "depth": 2,
                                        "id": 2,
                                        "order": 2
                                    },
                                    {
                                        "children": [
                                            {
                                                "children": [
                                                    {
                                                        "children": [],
                                                        "depth": 4,
                                                        "id": 5,
                                                        "order": 5
                                                    },
                                                    {
                                                        "children": [],
                                                        "depth": 4,
                                                        "id": 6,
                                                        "order": 6
                                                    }
                                                ],
                                                "depth": 3,
                                                "id": 4,
                                                "order": 4
                                            }
                                        ],
                                        "depth": 2,
                                        "id": 3,
                                        "order": 3
                                    },
                                    {
                                        "children": [],
                                        "depth": 2,
                                        "id": 7,
                                        "order": 7
                                    }
                                ],
                                "depth": 1,
                                "id": 1,
                                "order": 1
                            }
                        ],
                        "depth": 0,
                        "id": 0,
                        "order": 0
                    }
                ],
                "depth": -1,
                "id": -1,
                "order": -1
            }
        ],
        "mainTraceNodeCount": 8,
        "parentIdMap": {
            "0": -1,
            "1": 0,
            "2": 1,
            "3": 1,
            "4": 3,
            "5": 4,
            "6": 4,
            "7": 1
        },
        "tidyTrace": [
            {
                "children": [
                    {
                        "children": [
                            {
                                "children": [
                                    {
                                        "children": [
                                            {
                                                "children": [
                                                    {
                                                        "children": [],
                                                        "depth": 4,
                                                        "id": 5,
                                                        "order": 5
                                                    },
                                                    {
                                                        "children": [],
                                                        "depth": 4,
                                                        "id": 6,
                                                        "order": 6
                                                    }
                                                ],
                                                "depth": 3,
                                                "id": 4,
                                                "order": 4
                                            }
                                        ],
                                        "depth": 2,
                                        "id": 3,
                                        "order": 3
                                    },
                                    {
                                        "children": [],
                                        "depth": 2,
                                        "id": 7,
                                        "order": 7
                                    }
                                ],
                                "depth": 1,
                                "id": 1,
                                "order": 1
                            }
                        ],
                        "depth": 0,
                        "id": 0,
                        "order": 0
                    }
                ],
                "depth": -1,
                "id": -1,
                "order": -1
            }
        ],
        "tidyTraceNodeCount": 7
    },
    "state_change": {
        "stateChanges": [
            {
                "address": "0x48ec5560bfd59b95859965cce48cc244cfdf6b0c",
                "erc": "",
                "slots": [
                    {
                        "current": "0x000000000000000000000000000000000000000000000000000000000002cdb7",
                        "key": "0x0000000000000000000000000000000000000000000000000000000000000006",
                        "prev": "0x000000000000000000000000000000000000000000000000000000000002cdad"
                    }
                ],
                "storageVariables": []
            }
        ]
    }
}