{
    "balance_change": {
        "balanceChanges": []
    },
    "profile": {
        "basic_info": {
            "baseFee": "40.271233275",
            "blockNumber": 13883872,
            "callData": "0x9feb8f500000000000000000000000008880dd4a35b0703fa0572251c51df65ddc438e480000000000000000000000000000000000000000000000000003600666666666",
            "debugEnable": true,
            "errorInfo": "",
            "eventCount": 1,
            "feeRecipient": "0xea674fdde714fd979de3edf0f56aa9716b898ec8",
            "formatValue": "0",
            "gasLimit": 41229,
            "gasPrice": "41.271233275",
            "gasUsed": 41229,
            "intTxnCount": 1,
            "internalRevert": false,
            "internalRevertMessage": "",
            "isContractCreation": false,
            "isFlashloan": false,
            "maxFee": "82.830833858",
            "nonce": 25450,
            "overwritedBlockNumber": -1,
            "priorityFee": "1",
            "receiver": "0xf479e3b0dbcac892e1fc4978a1634645710fe827",
            "revertMessage": "",
            "sender": "0x17483903bdb209a1a8c80de715cedb69d37cd90c",
            "simulationEnable": true,
            "sourceTxnHash": "0xb1972f4111f5e6a3e669691913327e438ca5b3965d25f2ad977f7f16b56e5002",
            "status": true,
            "timestamp": "2021-12-26T23:49:52Z",
            "transactionFee": "0.001701571676694975",
            "txnHash": "0xb1972f4111f5e6a3e669691913327e438ca5b3965d25f2ad977f7f16b56e5002",
            "txnIndex": 197,
            "type": 2,
            "value": "0"
        },
        "fund_flow": [],
        "token_infos": [
            {
                "address": "0xc02aaa39b223fe8d0a0e5c4f27ead9083c756cc2",
                "decimals": 18
            },
            {
                "address": "0xeeeeeeeeeeeeeeeeeeeeeeeeeeeeeeeeeeeeeeee",
                "decimals": 18
            }
        ]
    },
    "address_label": {
        "labels": [
            {
                "address": "0x0000000000000000000000000000000000000003",
                "label": "Precompiled"
            },
            {
                "address": "0x0000000000000000000000000000000000000004",
                "label": "Precompiled"
            },
            {
                "address": "0xeeeeeeeeeeeeeeeeeeeeeeeeeeeeeeeeeeeeeeee",
                "label": "Ether"
            },
            {
                "address": "0xc713a40aa9bff56aee0e8ff9542b758d83af9fea",
                "label": "AccessControlManager"
            },
            {
                "address": "0xf479e3b0dbcac892e1fc4978a1634645710fe827",
                "label": "DragonCrossbreed"
            },
            {
                "address": "0x0000000000000000000000000000000000000001",
                "label": "Precompiled"
            },
            {
                "address": "0x0000000000000000000000000000000000000002",
                "label": "Precompiled"
            }
        ]
    },
    "trace": {
        "accountLabels": null,
        "dataMap": {
            "-1": {
                "invocation": {
                    "address": "0x17483903bdb209a1a8c80de715cedb69d37cd90c",
                    "callData": "",
                    "decodedMethod": null,
                    "errorInfo": "",
                    "fromAddress": "",
                    "gasUsed": 0,
                    "id": -1,
                    "methodDecoded": false,
                    "operation": "",
                    "output": "",
                    "revert": false,
                    "revertMessage": "",
                    "selector": "",
                    "status": false,
                    "value": ""
                },
                "nodeType": 0
            },
            "0": {
                "invocation": {
                    "address": "0xf479e3b0dbcac892e1fc4978a1634645710fe827",
                    "callData": "0x0000000000000000000000008880dd4a35b0703fa0572251c51df65ddc438e480000000000000000000000000000000000000000000000000003600666666666",
                    "decodedMethod": {
                        "callParams": [
                            {
                                "name": "to",
                                "type": "address",
                                "value": "0x8880dd4a35b0703fa0572251c51df65ddc438e48"
                            },
                            {
                                "name": "amount",
                                "type": "uint256",
                                "value": "950,005,534,189,158"
                            }
                        ],
                        "constructorArguments": "",
                        "name": "addReward",
                        "returnParams": [],
                        "signature": "addReward(address,uint256)"
                    },
                    "errorInfo": "",
                    "fromAddress": "0x17483903bdb209a1a8c80de715cedb69d37cd90c",
                    "gasUsed": 41229,
                    "id": 0,
                    "methodDecoded": true,
                    "operation": "CALL",
                    "output": "",
                    "revert": false,
                    "revertMessage": "",
                    "selector": "0x9feb8f50",
                    "status": true,
                    "value": "0"
                },
                "nodeType": 0
            },
            "1": {
                "invocation": {
                    "address": "0xc713a40aa9bff56aee0e8ff9542b758d83af9fea",
                    "callData": "0xefa080c67ecf4a6bf40c9dc64173420c08f359250ca6562d7c80f7c7b9b1396900000000000000000000000017483903bdb209a1a8c80de715cedb69d37cd90c",
                    "decodedMethod": {
                        "callParams": [
                            {
                                "name": "role",
                                "type": "bytes32",
                                "value": "0xefa080c67ecf4a6bf40c9dc64173420c08f359250ca6562d7c80f7c7b9b13969"
                            },
                            {
                                "name": "account",
                                "type": "address",
                                "value": "0x17483903bdb209a1a8c80de715cedb69d37cd90c"
                            }
                        ],
                        "constructorArguments": "",
                        "name": "hasRole",
                        "returnParams": [
                            {
                                "name": "",
                                "type": "bool",
                                "value": true
                            }
                        ],
                        "signature": "hasRole(bytes32,address)"
                    },
                    "errorInfo": "",
                    "fromAddress": "0xf479e3b0dbcac892e1fc4978a1634645710fe827",
                    "gasUsed": 3140,
                    "id": 1,
                    "methodDecoded": true,
                    "operation": "STATICCALL",
                    "output": "0x0000000000000000000000000000000000000000000000000000000000000001",
                    "revert": false,
                    "revertMessage": "",
                    "selector": "0x91d14854",
                    "status": true,
                    "value": "0"
                },
                "nodeType": 0
            },
            "2": {
                "event": {
                    "contract": "0xf479e3b0dbcac892e1fc4978a1634645710fe827",
                    "decodedLog": {
                        "name": "RewardAdded",
                        "params": [
                            {
                                "name": "operator",
                                "type": "address",
                                "value": "0x17483903bdb209a1a8c80de715cedb69d37cd90c"
                            },
                            {
                                "name": "to",
                                "type": "address",
                                "value": "0x8880dd4a35b0703fa0572251c51df65ddc438e48"
                            },
                            {
                                "name": "amount",
                                "type": "uint256",
                                "value": "950,005,534,189,158"
                            }
                        ],
                        "signature": "RewardAdded(address,address,uint256)"
                    },
                    "id": 2,
                    "logData": "0x0000000000000000000000000000000000000000000000000003600666666666",
                    "logDecoded": true,
                    "operation": "EVENT",
                    "revert": false,
                    "status": true,
                    "topics": [
                        "0x0f7cde3c0518e1cc590491be5861d70a2e333f7e65af2e1ebd91a3c9a3cc638d",
                        "0x00000000000000000000000017483903bdb209a1a8c80de715cedb69d37cd90c",
                        "0x0000000000000000000000008880dd4a35b0703fa0572251c51df65ddc438e48"
                    ]
                },
                "nodeType": 1
            }
        },
        "gasFlame": [
            {
                "children": [
                    {
                        "children": [
                            {
                                "children": [],
                                "depth": 0,
                                "name": "Initial Gas",
                                "value": 21644
                            },
                            {
                                "children": [
                                    {
                                        "children": [],
                                        "depth": 1,
                                        "name": "hasRole",
                                        "value": 3140
                                    }
                                ],
                                "depth": 0,
                                "name": "Executed Gas",
                                "value": 19585
                            }
                        ],
                        "depth": -1,
                        "name": "Actual Gas Used",
                        "value": 41229
                    },
                    {
                        "children": [],
                        "depth": -1,
                        "name": "Refunded Gas",
                        "value": 0
                    }
                ],
                "depth": -2,
                "name": "Total Gas",
                "value": 41229
            }
        ],
        "isConfirmed": true,
        "mainTrace": [
            {
                "children": [
                    {
                        "children": [
                            {
                                "children": [],
                                "depth": 1,
                                "id": 1,
                                "order": 1
                            },
                            {
                                "children": [],
                                "depth": 1,
                                "id": 2,
                                "order": 2
                            }
                        ],
                        "depth": 0,
                        "id": 0,
                        "order": 0
                    }
                ],
                "depth": -1,
                "id": -1,
                "order": -1
            }
        ],
        "mainTraceNodeCount": 3,
        "parentIdMap": {
            "0": -1,
            "1": 0,
            "2": 0
        },
        "tidyTrace": [
            {
                "children": [
                    {
                        "children": [
                            {
                                "children": [],
                                "depth": 1,
                                "id": 2,
                                "order": 2
                            }
                        ],
                        "depth": 0,
                        "id": 0,
                        "order": 0
                    }
                ],
                "depth": -1,
                "id": -1,
                "order": -1
            }
        ],
        "tidyTraceNodeCount": 2
    },
    "state_change": {
        "stateChanges": [
            {
                "address": "0xf479e3b0dbcac892e1fc4978a1634645710fe827",
                "erc": "",
                "slots": [
                    {
                        "current": "0x0000000000000000000000000000000000000000000000000cafac8b87c42a9e",
                        "key": "0x96393011b647985288cef65c0984178cbd1716ff4c131563b32f6dfe62a4e812",
                        "prev": "0x0000000000000000000000000000000000000000000000000cac4c85215dc438"
                    }
                ],
                "storageVariables": [
                    {
                        "name": "_rewards",
                        "type": "mapping(address => uint256)",
                        "value": {
                            "pairs": [
                                {
                                    "key": "0x8880dd4a35b0703fa0572251c51df65ddc438e48",
                                    "value": {
                                        "current": "914138964657711774",
                                        "prev": "913188959123522616",
                                        "typeTag": 1
                                    }
                                }
                            ],
                            "typeTag": 4
                        }
                    }
                ]
            }
        ]
    }
}