{
    "balance_change": {
        "balanceChanges": [
            {
                "account": "0x0865ef935247eb8cd43d655e7989615d8c61f7c8",
                "assets": [
                    {
                        "address": "0xeeeeeeeeeeeeeeeeeeeeeeeeeeeeeeeeeeeeeeee",
                        "amount": "0.002281349763308792",
                        "iconUrl": "https://assets.blocksec.com/image/1663669189317-3.png",
                        "isERC1155": false,
                        "isERC721": false,
                        "sign": false,
                        "value": "8.386834879726380498"
                    },
                    {
                        "address": "0x8355dbe8b0e275abad27eb843f3eaf3fc855e525",
                        "amount": "328,245",
                        "iconUrl": "",
                        "isERC1155": false,
                        "isERC721": false,
                        "sign": false,
                        "value": "9966.728169"
                    }
                ]
            },
            {
                "account": "0x5a13efe4b784e72b685cc4f41826b35ac359d464",
                "assets": [
                    {
                        "address": "0x8355dbe8b0e275abad27eb843f3eaf3fc855e525",
                        "amount": "328,245",
                        "iconUrl": "",
                        "isERC1155": false,
                        "isERC721": false,
                        "sign": true,
                        "value": "9966.728169"
                    }
                ]
            },
            {
                "account": "0xbb2ea70c9e858123480642cf96acbcce1372dce1",
                "assets": [
                    {
                        "address": "0xeeeeeeeeeeeeeeeeeeeeeeeeeeeeeeeeeeeeeeee",
                        "amount": "0.002281349763308792",
                        "iconUrl": "https://assets.blocksec.com/image/1663669189317-3.png",
                        "isERC1155": false,
                        "isERC721": false,
                        "sign": true,
                        "value": "8.386834879726380498"
                    }
                ]
            }
        ]
    },
    "profile": {
        "basic_info": {
            "baseFee": "34.986001932",
            "blockNumber": 19914007,
            "callData": "0xc7c7f5b3000000000000000000000000000000000000000000000000000000000000008000000000000000000000000000000000000000000000000000081ae022401cf800000000000000000000000000000000000000000000000000000000000000000000000000000000000000000865ef935247eb8cd43d655e7989615d8c61f7c800000000000000000000000000000000000000000000000000000000000076230000000000000000000000000865ef935247eb8cd43d655e7989615d8c61f7c800000000000000000000000000000000000000000000458232757f746fb4000000000000000000000000000000000000000000000000458232757f746fb4000000000000000000000000000000000000000000000000000000000000000000e00000000000000000000000000000000000000000000000000000000000000120000000000000000000000000000000000000000000000000000000000000014000000000000000000000000000000000000000000000000000000000000000160003010011010000000000000000000000000000ea600000000000000000000000000000000000000000000000000000000000000000000000000000000000000000000000000000000000000000000000000000000000000000000000000000",
            "debugEnable": true,
            "errorInfo": "",
            "eventCount": 7,
            "feeRecipient": "0x4838b106fce9647bdf1e7877bf73ce8b0bad5f97",
            "formatValue": "0.002281349763308792",
            "gasLimit": 480793,
            "gasPrice": "35.005007708",
            "gasUsed": 315436,
            "intTxnCount": 20,
            "internalRevert": false,
            "internalRevertMessage": "",
            "isContractCreation": false,
            "isFlashloan": false,
            "maxFee": "44.935645099",
            "nonce": 69,
            "overwritedBlockNumber": -1,
            "priorityFee": "0.019005776",
            "receiver": "0x5a13efe4b784e72b685cc4f41826b35ac359d464",
            "revertMessage": "",
            "sender": "0x0865ef935247eb8cd43d655e7989615d8c61f7c8",
            "simulationEnable": true,
            "sourceTxnHash": "0xb11dadb68be40c5a7d07afb2003e2e67149aa20f181d6502df771ffb2510dca9",
            "status": true,
            "timestamp": "2024-05-20T22:07:35Z",
            "transactionFee": "0.011041839611380688",
            "txnHash": "0xb11dadb68be40c5a7d07afb2003e2e67149aa20f181d6502df771ffb2510dca9",
            "txnIndex": 94,
            "type": 2,
            "value": "2281349763308792"
        },
        "fund_flow": [
            {
                "amount": "0.002281349763308792",
                "from": "0x0865ef935247eb8cd43d655e7989615d8c61f7c8",
                "id": 1,
                "isERC1155": false,
                "isERC721": false,
                "isReverted": false,
                "order": 1,
                "to": "0x5a13efe4b784e72b685cc4f41826b35ac359d464",
                "token": "0xeeeeeeeeeeeeeeeeeeeeeeeeeeeeeeeeeeeeeeee"
            },
            {
                "amount": "328,245",
                "from": "0x0865ef935247eb8cd43d655e7989615d8c61f7c8",
                "id": 2,
                "isERC1155": false,
                "isERC721": false,
                "isReverted": false,
                "order": 2,
                "to": "0x5a13efe4b784e72b685cc4f41826b35ac359d464",
                "token": "0x8355dbe8b0e275abad27eb843f3eaf3fc855e525"
            },
            {
                "amount": "0.002281349763308792",
                "from": "0x5a13efe4b784e72b685cc4f41826b35ac359d464",
                "id": 3,
                "isERC1155": false,
                "isERC721": false,
                "isReverted": false,
                "order": 3,
                "to": "0x1a44076050125825900e736c501f859c50fe728c",
                "token": "0xeeeeeeeeeeeeeeeeeeeeeeeeeeeeeeeeeeeeeeee"
            },
            {
                "amount": "0.002281349763308792",
                "from": "0x1a44076050125825900e736c501f859c50fe728c",
                "id": 4,
                "isERC1155": false,
                "isERC721": false,
                "isReverted": false,
                "order": 4,
                "to": "0xbb2ea70c9e858123480642cf96acbcce1372dce1",
                "token": "0xeeeeeeeeeeeeeeeeeeeeeeeeeeeeeeeeeeeeeeee"
            }
        ],
        "token_infos": [
            {
                "address": "0x8355dbe8b0e275abad27eb843f3eaf3fc855e525",
                "decimals": 18
            },
            {
                "address": "0xc02aaa39b223fe8d0a0e5c4f27ead9083c756cc2",
                "decimals": 18
            },
            {
                "address": "0xeeeeeeeeeeeeeeeeeeeeeeeeeeeeeeeeeeeeeeee",
                "decimals": 18
            }
        ]
    },
    "address_label": {
        "labels": [
            {
                "address": "0x0000000000000000000000000000000000000001",
                "label": "Precompiled"
            },
            {
                "address": "0xeeeeeeeeeeeeeeeeeeeeeeeeeeeeeeeeeeeeeeee",
                "label": "Ether"
            },
            {
                "address": "0x8355dbe8b0e275abad27eb843f3eaf3fc855e525",
                "label": "WOOL (WOOL)"
            },
            {
                "address": "0xa59ba433ac34d2927232918ef5b2eaafcf130ba5",
                "label": "Nethermind : DVN"
            },
            {
                "address": "0xcb75f0dfff5c5046caa9db1de56645a962feffc2",
                "label": "ZkBridgeOracleV2"
            },
            {
                "address": "0x1a44076050125825900e736c501f859c50fe728c",
                "label": "LayerZero: EndpointV2"
            },
            {
                "address": "0x173272739bd7aa6e4e214714048a9fe699453059",
                "label": "0x1732_OptimizedTransparentUpgradeableProxy"
            },
            {
                "address": "0x0000000000000000000000000000000000000003",
                "label": "Precompiled"
            },
            {
                "address": "0x589dedbd617e0cbcb916a9223f4d1300c294236b",
                "label": "LayerZero : DVN"
            },
            {
                "address": "0x5ebb3f2feaa15271101a927869b3a56837e73056",
                "label": "Treasury"
            },
            {
                "address": "0x0000000000000000000000000000000000000002",
                "label": "Precompiled"
            },
            {
                "address": "0x0000000000000000000000000000000000000004",
                "label": "Precompiled"
            },
            {
                "address": "0xc03f31fd86a9077785b7bcf6598ce3598fa91113",
                "label": "0xc03f_OptimizedTransparentUpgradeableProxy"
            },
            {
                "address": "0x5a13efe4b784e72b685cc4f41826b35ac359d464",
                "label": "WoolWrapper"
            },
            {
                "address": "0x8ddf05f9a5c488b4973897e278b58895bf87cb24",
                "label": "TransparentUpgradeableProxy"
            },
            {
                "address": "0xbb2ea70c9e858123480642cf96acbcce1372dce1",
                "label": "SendUln302"
            }
        ]
    },
    "trace": {
        "accountLabels": null,
        "dataMap": {
            "-1": {
                "invocation": {
                    "address": "0x0865ef935247eb8cd43d655e7989615d8c61f7c8",
                    "callData": "",
                    "decodedMethod": null,
                    "errorInfo": "",
                    "fromAddress": "",
                    "gasUsed": 0,
                    "id": -1,
                    "methodDecoded": false,
                    "operation": "",
                    "output": "",
                    "revert": false,
                    "revertMessage": "",
                    "selector": "",
                    "status": false,
                    "value": ""
                },
                "nodeType": 0
            },
            "0": {
                "invocation": {
                    "address": "0x5a13efe4b784e72b685cc4f41826b35ac359d464",
                    "callData": "0x000000000000000000000000000000000000000000000000000000000000008000000000000000000000000000000000000000000000000000081ae022401cf800000000000000000000000000000000000000000000000000000000000000000000000000000000000000000865ef935247eb8cd43d655e7989615d8c61f7c800000000000000000000000000000000000000000000000000000000000076230000000000000000000000000865ef935247eb8cd43d655e7989615d8c61f7c800000000000000000000000000000000000000000000458232757f746fb4000000000000000000000000000000000000000000000000458232757f746fb4000000000000000000000000000000000000000000000000000000000000000000e00000000000000000000000000000000000000000000000000000000000000120000000000000000000000000000000000000000000000000000000000000014000000000000000000000000000000000000000000000000000000000000000160003010011010000000000000000000000000000ea600000000000000000000000000000000000000000000000000000000000000000000000000000000000000000000000000000000000000000000000000000000000000000000000000000",
                    "decodedMethod": {
                        "callParams": [
                            {
                                "name": "_sendParam",
                                "type": "(uint32,bytes32,uint256,uint256,bytes,bytes,bytes)",
                                "value": [
                                    {
                                        "name": "dstEid",
                                        "type": "uint32",
                                        "value": "30,243"
                                    },
                                    {
                                        "name": "to",
                                        "type": "bytes32",
                                        "value": "0x0000000000000000000000000865ef935247eb8cd43d655e7989615d8c61f7c8"
                                    },
                                    {
                                        "name": "amountLD",
                                        "type": "uint256",
                                        "value": "328,245,000,000,000,000,000,000"
                                    },
                                    {
                                        "name": "minAmountLD",
                                        "type": "uint256",
                                        "value": "328,245,000,000,000,000,000,000"
                                    },
                                    {
                                        "name": "extraOptions",
                                        "type": "bytes",
                                        "value": "0x0003010011010000000000000000000000000000ea60"
                                    },
                                    {
                                        "name": "composeMsg",
                                        "type": "bytes",
                                        "value": "0x"
                                    },
                                    {
                                        "name": "oftCmd",
                                        "type": "bytes",
                                        "value": "0x"
                                    }
                                ]
                            },
                            {
                                "name": "_fee",
                                "type": "(uint256,uint256)",
                                "value": [
                                    {
                                        "name": "nativeFee",
                                        "type": "uint256",
                                        "value": "2,281,349,763,308,792"
                                    },
                                    {
                                        "name": "lzTokenFee",
                                        "type": "uint256",
                                        "value": "0"
                                    }
                                ]
                            },
                            {
                                "name": "_refundAddress",
                                "type": "address",
                                "value": "0x0865ef935247eb8cd43d655e7989615d8c61f7c8"
                            }
                        ],
                        "constructorArguments": "",
                        "name": "send",
                        "returnParams": [
                            {
                                "name": "msgReceipt",
                                "type": "(bytes32,uint64,(uint256,uint256))",
                                "value": [
                                    {
                                        "name": "guid",
                                        "type": "bytes32",
                                        "value": "0x24dfa7a28aa578395b45c6a40310ccff27d8ba24f9922f2832292f02888abd51"
                                    },
                                    {
                                        "name": "nonce",
                                        "type": "uint64",
                                        "value": "1,710"
                                    },
                                    {
                                        "name": "fee",
                                        "type": "(uint256,uint256)",
                                        "value": [
                                            {
                                                "name": "nativeFee",
                                                "type": "uint256",
                                                "value": "2,281,349,763,308,792"
                                            },
                                            {
                                                "name": "lzTokenFee",
                                                "type": "uint256",
                                                "value": "0"
                                            }
                                        ]
                                    }
                                ]
                            },
                            {
                                "name": "oftReceipt",
                                "type": "(uint256,uint256)",
                                "value": [
                                    {
                                        "name": "amountSentLD",
                                        "type": "uint256",
                                        "value": "328,245,000,000,000,000,000,000"
                                    },
                                    {
                                        "name": "amountReceivedLD",
                                        "type": "uint256",
                                        "value": "328,245,000,000,000,000,000,000"
                                    }
                                ]
                            }
                        ],
                        "signature": "send((uint32,bytes32,uint256,uint256,bytes,bytes,bytes),(uint256,uint256),address)"
                    },
                    "errorInfo": "",
                    "fromAddress": "0x0865ef935247eb8cd43d655e7989615d8c61f7c8",
                    "gasUsed": 315436,
                    "id": 0,
                    "methodDecoded": true,
                    "operation": "CALL",
                    "output": "0x24dfa7a28aa578395b45c6a40310ccff27d8ba24f9922f2832292f02888abd5100000000000000000000000000000000000000000000000000000000000006ae00000000000000000000000000000000000000000000000000081ae022401cf8000000000000000000000000000000000000000000000000000000000000000000000000000000000000000000000000000000000000458232757f746fb4000000000000000000000000000000000000000000000000458232757f746fb40000",
                    "revert": false,
                    "revertMessage": "",
                    "selector": "0xc7c7f5b3",
                    "status": true,
                    "value": "0.002281349763308792"
                },
                "nodeType": 0
            },
            "1": {
                "invocation": {
                    "address": "0x8355dbe8b0e275abad27eb843f3eaf3fc855e525",
                    "callData": "0x0000000000000000000000000865ef935247eb8cd43d655e7989615d8c61f7c80000000000000000000000005a13efe4b784e72b685cc4f41826b35ac359d46400000000000000000000000000000000000000000000458232757f746fb40000",
                    "decodedMethod": {
                        "callParams": [
                            {
                                "name": "sender",
                                "type": "address",
                                "value": "0x0865ef935247eb8cd43d655e7989615d8c61f7c8"
                            },
                            {
                                "name": "recipient",
                                "type": "address",
                                "value": "0x5a13efe4b784e72b685cc4f41826b35ac359d464"
                            },
                            {
                                "decimalAvailable": true,
                                "name": "amount",
                                "type": "uint256",
                                "value": "328,245,000,000,000,000,000,000"
                            }
                        ],
                        "constructorArguments": "",
                        "name": "transferFrom",
                        "returnParams": [
                            {
                                "name": "",
                                "type": "bool",
                                "value": true
                            }
                        ],
                        "signature": "transferFrom(address,address,uint256)"
                    },
                    "errorInfo": "",
                    "fromAddress": "0x5a13efe4b784e72b685cc4f41826b35ac359d464",
                    "gasUsed": 20247,
                    "id": 1,
                    "methodDecoded": true,
                    "operation": "CALL",
                    "output": "0x0000000000000000000000000000000000000000000000000000000000000001",
                    "revert": false,
                    "revertMessage": "",
                    "selector": "0x23b872dd",
                    "status": true,
                    "value": "0"
                },
                "nodeType": 0
            },
            "10": {
                "invocation": {
                    "address": "0x13dff8847ea170ebb8439ce732c0a14bb49fdd92",
                    "callData": "0x000000000000000000000000000000000000000000000000000000000000762300000000000000000000000000000000000000000000000000000000000000280000000000000000000000000000000000000000000000000000000000023668",
                    "decodedMethod": {
                        "callParams": [
                            {
                                "name": "_dstEid",
                                "type": "uint32",
                                "value": "30,243"
                            },
                            {
                                "name": "_callDataSize",
                                "type": "uint256",
                                "value": "40"
                            },
                            {
                                "name": "_gas",
                                "type": "uint256",
                                "value": "145,000"
                            }
                        ],
                        "constructorArguments": "",
                        "name": "estimateFeeOnSend",
                        "returnParams": [
                            {
                                "name": "",
                                "type": "uint256",
                                "value": "250,736,840,733,892"
                            },
                            {
                                "name": "",
                                "type": "uint128",
                                "value": "100,000,000,000,000,000,001"
                            },
                            {
                                "name": "",
                                "type": "uint128",
                                "value": "100,000,000,000,000,000,000"
                            },
                            {
                                "name": "",
                                "type": "uint128",
                                "value": "343,184,032,000,000,000,000,000"
                            }
                        ],
                        "signature": "estimateFeeOnSend(uint32,uint256,uint256)"
                    },
                    "errorInfo": "",
                    "fromAddress": "0xc03f31fd86a9077785b7bcf6598ce3598fa91113",
                    "gasUsed": 14190,
                    "id": 10,
                    "methodDecoded": true,
                    "operation": "DELEGATECALL",
                    "output": "0x0000000000000000000000000000000000000000000000000000e40b3852f4c40000000000000000000000000000000000000000000000056bc75e2d631000010000000000000000000000000000000000000000000000056bc75e2d631000000000000000000000000000000000000000000000000048ac0b2cd51231100000",
                    "revert": false,
                    "revertMessage": "",
                    "selector": "0xc1723a1d",
                    "status": true,
                    "value": "0"
                },
                "nodeType": 0
            },
            "11": {
                "event": {
                    "contract": "0xbb2ea70c9e858123480642cf96acbcce1372dce1",
                    "decodedLog": {
                        "name": "ExecutorFeePaid",
                        "params": [
                            {
                                "name": "executor",
                                "type": "address",
                                "value": "0x173272739bd7aa6e4e214714048a9fe699453059"
                            },
                            {
                                "name": "fee",
                                "type": "uint256",
                                "value": "396,431,265,117,833"
                            }
                        ],
                        "signature": "ExecutorFeePaid(address,uint256)"
                    },
                    "id": 11,
                    "logData": "0x000000000000000000000000173272739bd7aa6e4e214714048a9fe6994530590000000000000000000000000000000000000000000000000001688d58bc3689",
                    "logDecoded": true,
                    "operation": "EVENT",
                    "revert": false,
                    "status": true,
                    "topics": [
                        "0x61ed099e74a97a1d7f8bb0952a88ca8b7b8ebd00c126ea04671f92a81213318a"
                    ]
                },
                "nodeType": 1
            },
            "12": {
                "invocation": {
                    "address": "0x589dedbd617e0cbcb916a9223f4d1300c294236b",
                    "callData": "0x00000000000000000000000000000000000000000000000000000000000000400000000000000000000000000000000000000000000000000000000000000160000000000000000000000000000000000000000000000000000000000000762300000000000000000000000000000000000000000000000000000000000000a0baf08f65995c81c9e02152b392ba125d24991dc03ebbbae2ae3a1872a7f9312000000000000000000000000000000000000000000000000000000000000000050000000000000000000000005a13efe4b784e72b685cc4f41826b35ac359d46400000000000000000000000000000000000000000000000000000000000000510100000000000006ae000075950000000000000000000000005a13efe4b784e72b685cc4f41826b35ac359d46400007623000000000000000000000000b5a86030b64afaa75c42c0d28f8d5ce5f9f614010000000000000000000000000000000000000000000000000000000000000000000000000000000000000000000000",
                    "decodedMethod": {
                        "callParams": [
                            {
                                "name": "_param",
                                "type": "(uint32,bytes,bytes32,uint64,address)",
                                "value": [
                                    {
                                        "name": "dstEid",
                                        "type": "uint32",
                                        "value": "30,243"
                                    },
                                    {
                                        "name": "packetHeader",
                                        "type": "bytes",
                                        "value": "0x0100000000000006ae000075950000000000000000000000005a13efe4b784e72b685cc4f41826b35ac359d46400007623000000000000000000000000b5a86030b64afaa75c42c0d28f8d5ce5f9f61401"
                                    },
                                    {
                                        "name": "payloadHash",
                                        "type": "bytes32",
                                        "value": "0xbaf08f65995c81c9e02152b392ba125d24991dc03ebbbae2ae3a1872a7f93120"
                                    },
                                    {
                                        "name": "confirmations",
                                        "type": "uint64",
                                        "value": "5"
                                    },
                                    {
                                        "name": "sender",
                                        "type": "address",
                                        "value": "0x5a13efe4b784e72b685cc4f41826b35ac359d464"
                                    }
                                ]
                            },
                            {
                                "name": "_options",
                                "type": "bytes",
                                "value": "0x"
                            }
                        ],
                        "constructorArguments": "",
                        "name": "assignJob",
                        "returnParams": [
                            {
                                "name": "totalFee",
                                "type": "uint256",
                                "value": "613,781,393,769,988"
                            }
                        ],
                        "signature": "assignJob((uint32,bytes,bytes32,uint64,address),bytes)"
                    },
                    "errorInfo": "",
                    "fromAddress": "0xbb2ea70c9e858123480642cf96acbcce1372dce1",
                    "gasUsed": 26579,
                    "id": 12,
                    "methodDecoded": true,
                    "operation": "CALL",
                    "output": "0x00000000000000000000000000000000000000000000000000022e3b1df20604",
                    "revert": false,
                    "revertMessage": "",
                    "selector": "0x95d376d7",
                    "status": true,
                    "value": "0"
                },
                "nodeType": 0
            },
            "13": {
                "invocation": {
                    "address": "0xb3e790273f0a89e53d2c20dd4dfe82aa00bbf91b",
                    "callData": "0x000000000000000000000000c03f31fd86a9077785b7bcf6598ce3598fa91113000000000000000000000000000000000000000000000000000000000000762300000000000000000000000000000000000000000000000000000000000000050000000000000000000000005a13efe4b784e72b685cc4f41826b35ac359d46400000000000000000000000000000000000000000000000000000000000000020000000000000000000000000000000000000000000000000000000000002fa80000000000000000000000000000000000000000000000000000000000012cc80000000000000000000000000000000000000000000000000000000000002ee0000000000000000000000000000000000000000000000000000000000000000000000000000000000000000000000000000000000000000000000000000001400000000000000000000000000000000000000000000000000000000000000000",
                    "decodedMethod": {
                        "callParams": [
                            {
                                "name": "_params",
                                "type": "(address,uint32,uint64,address,uint64,uint16)",
                                "value": [
                                    {
                                        "name": "priceFeed",
                                        "type": "address",
                                        "value": "0xc03f31fd86a9077785b7bcf6598ce3598fa91113"
                                    },
                                    {
                                        "name": "dstEid",
                                        "type": "uint32",
                                        "value": "30,243"
                                    },
                                    {
                                        "name": "confirmations",
                                        "type": "uint64",
                                        "value": "5"
                                    },
                                    {
                                        "name": "sender",
                                        "type": "address",
                                        "value": "0x5a13efe4b784e72b685cc4f41826b35ac359d464"
                                    },
                                    {
                                        "name": "quorum",
                                        "type": "uint64",
                                        "value": "2"
                                    },
                                    {
                                        "name": "defaultMultiplierBps",
                                        "type": "uint16",
                                        "value": "12,200"
                                    }
                                ]
                            },
                            {
                                "name": "_dstConfig",
                                "type": "(uint64,uint16,uint128)",
                                "value": [
                                    {
                                        "name": "gas",
                                        "type": "uint64",
                                        "value": "77,000"
                                    },
                                    {
                                        "name": "multiplierBps",
                                        "type": "uint16",
                                        "value": "12,000"
                                    },
                                    {
                                        "name": "floorMarginUSD",
                                        "type": "uint128",
                                        "value": "0"
                                    }
                                ]
                            },
                            {
                                "name": "_options",
                                "type": "bytes",
                                "value": "0x"
                            }
                        ],
                        "constructorArguments": "",
                        "name": "getFeeOnSend",
                        "returnParams": [
                            {
                                "name": "",
                                "type": "uint256",
                                "value": "613,781,393,769,988"
                            }
                        ],
                        "signature": "getFeeOnSend((address,uint32,uint64,address,uint64,uint16),(uint64,uint16,uint128),bytes)"
                    },
                    "errorInfo": "",
                    "fromAddress": "0x589dedbd617e0cbcb916a9223f4d1300c294236b",
                    "gasUsed": 8223,
                    "id": 13,
                    "methodDecoded": true,
                    "operation": "CALL",
                    "output": "0x00000000000000000000000000000000000000000000000000022e3b1df20604",
                    "revert": false,
                    "revertMessage": "",
                    "selector": "0xdf2b057e",
                    "status": true,
                    "value": "0"
                },
                "nodeType": 0
            },
            "14": {
                "invocation": {
                    "address": "0xc03f31fd86a9077785b7bcf6598ce3598fa91113",
                    "callData": "0x000000000000000000000000000000000000000000000000000000000000762300000000000000000000000000000000000000000000000000000000000002040000000000000000000000000000000000000000000000000000000000012cc8",
                    "decodedMethod": {
                        "callParams": [
                            {
                                "name": "_dstEid",
                                "type": "uint32",
                                "value": "30,243"
                            },
                            {
                                "name": "_callDataSize",
                                "type": "uint256",
                                "value": "516"
                            },
                            {
                                "name": "_gas",
                                "type": "uint256",
                                "value": "77,000"
                            }
                        ],
                        "constructorArguments": "",
                        "name": "estimateFeeOnSend",
                        "returnParams": [
                            {
                                "name": "",
                                "type": "uint256",
                                "value": "511,484,494,808,324"
                            },
                            {
                                "name": "",
                                "type": "uint128",
                                "value": "100,000,000,000,000,000,001"
                            },
                            {
                                "name": "",
                                "type": "uint128",
                                "value": "100,000,000,000,000,000,000"
                            },
                            {
                                "name": "",
                                "type": "uint128",
                                "value": "343,184,032,000,000,000,000,000"
                            }
                        ],
                        "signature": "estimateFeeOnSend(uint32,uint256,uint256)"
                    },
                    "errorInfo": "",
                    "fromAddress": "0xb3e790273f0a89e53d2c20dd4dfe82aa00bbf91b",
                    "gasUsed": 4777,
                    "id": 14,
                    "methodDecoded": true,
                    "operation": "CALL",
                    "output": "0x0000000000000000000000000000000000000000000000000001d131439f05040000000000000000000000000000000000000000000000056bc75e2d631000010000000000000000000000000000000000000000000000056bc75e2d631000000000000000000000000000000000000000000000000048ac0b2cd51231100000",
                    "revert": false,
                    "revertMessage": "",
                    "selector": "0xc1723a1d",
                    "status": true,
                    "value": "0"
                },
                "nodeType": 0
            },
            "15": {
                "invocation": {
                    "address": "0x13dff8847ea170ebb8439ce732c0a14bb49fdd92",
                    "callData": "0x000000000000000000000000000000000000000000000000000000000000762300000000000000000000000000000000000000000000000000000000000002040000000000000000000000000000000000000000000000000000000000012cc8",
                    "decodedMethod": {
                        "callParams": [
                            {
                                "name": "_dstEid",
                                "type": "uint32",
                                "value": "30,243"
                            },
                            {
                                "name": "_callDataSize",
                                "type": "uint256",
                                "value": "516"
                            },
                            {
                                "name": "_gas",
                                "type": "uint256",
                                "value": "77,000"
                            }
                        ],
                        "constructorArguments": "",
                        "name": "estimateFeeOnSend",
                        "returnParams": [
                            {
                                "name": "",
                                "type": "uint256",
                                "value": "511,484,494,808,324"
                            },
                            {
                                "name": "",
                                "type": "uint128",
                                "value": "100,000,000,000,000,000,001"
                            },
                            {
                                "name": "",
                                "type": "uint128",
                                "value": "100,000,000,000,000,000,000"
                            },
                            {
                                "name": "",
                                "type": "uint128",
                                "value": "343,184,032,000,000,000,000,000"
                            }
                        ],
                        "signature": "estimateFeeOnSend(uint32,uint256,uint256)"
                    },
                    "errorInfo": "",
                    "fromAddress": "0xc03f31fd86a9077785b7bcf6598ce3598fa91113",
                    "gasUsed": 4190,
                    "id": 15,
                    "methodDecoded": true,
                    "operation": "DELEGATECALL",
                    "output": "0x0000000000000000000000000000000000000000000000000001d131439f05040000000000000000000000000000000000000000000000056bc75e2d631000010000000000000000000000000000000000000000000000056bc75e2d631000000000000000000000000000000000000000000000000048ac0b2cd51231100000",
                    "revert": false,
                    "revertMessage": "",
                    "selector": "0xc1723a1d",
                    "status": true,
                    "value": "0"
                },
                "nodeType": 0
            },
            "16": {
                "invocation": {
                    "address": "0x8ddf05f9a5c488b4973897e278b58895bf87cb24",
                    "callData": "0x00000000000000000000000000000000000000000000000000000000000000400000000000000000000000000000000000000000000000000000000000000160000000000000000000000000000000000000000000000000000000000000762300000000000000000000000000000000000000000000000000000000000000a0baf08f65995c81c9e02152b392ba125d24991dc03ebbbae2ae3a1872a7f9312000000000000000000000000000000000000000000000000000000000000000050000000000000000000000005a13efe4b784e72b685cc4f41826b35ac359d46400000000000000000000000000000000000000000000000000000000000000510100000000000006ae000075950000000000000000000000005a13efe4b784e72b685cc4f41826b35ac359d46400007623000000000000000000000000b5a86030b64afaa75c42c0d28f8d5ce5f9f614010000000000000000000000000000000000000000000000000000000000000000000000000000000000000000000000",
                    "decodedMethod": {
                        "callParams": [
                            {
                                "name": "_param",
                                "type": "(uint32,bytes,bytes32,uint64,address)",
                                "value": [
                                    {
                                        "name": "dstEid",
                                        "type": "uint32",
                                        "value": "30,243"
                                    },
                                    {
                                        "name": "packetHeader",
                                        "type": "bytes",
                                        "value": "0x0100000000000006ae000075950000000000000000000000005a13efe4b784e72b685cc4f41826b35ac359d46400007623000000000000000000000000b5a86030b64afaa75c42c0d28f8d5ce5f9f61401"
                                    },
                                    {
                                        "name": "payloadHash",
                                        "type": "bytes32",
                                        "value": "0xbaf08f65995c81c9e02152b392ba125d24991dc03ebbbae2ae3a1872a7f93120"
                                    },
                                    {
                                        "name": "confirmations",
                                        "type": "uint64",
                                        "value": "5"
                                    },
                                    {
                                        "name": "sender",
                                        "type": "address",
                                        "value": "0x5a13efe4b784e72b685cc4f41826b35ac359d464"
                                    }
                                ]
                            },
                            {
                                "name": "",
                                "type": "bytes",
                                "value": "0x"
                            }
                        ],
                        "constructorArguments": "",
                        "name": "assignJob",
                        "returnParams": [
                            {
                                "name": "fee",
                                "type": "uint256",
                                "value": "700,000,000,000,000"
                            }
                        ],
                        "signature": "assignJob((uint32,bytes,bytes32,uint64,address),bytes)"
                    },
                    "errorInfo": "",
                    "fromAddress": "0xbb2ea70c9e858123480642cf96acbcce1372dce1",
                    "gasUsed": 17627,
                    "id": 16,
                    "methodDecoded": true,
                    "operation": "CALL",
                    "output": "0x00000000000000000000000000000000000000000000000000027ca57357c000",
                    "revert": false,
                    "revertMessage": "",
                    "selector": "0x95d376d7",
                    "status": true,
                    "value": "0"
                },
                "nodeType": 0
            },
            "17": {
                "invocation": {
                    "address": "0xcb75f0dfff5c5046caa9db1de56645a962feffc2",
                    "callData": "0x00000000000000000000000000000000000000000000000000000000000000400000000000000000000000000000000000000000000000000000000000000160000000000000000000000000000000000000000000000000000000000000762300000000000000000000000000000000000000000000000000000000000000a0baf08f65995c81c9e02152b392ba125d24991dc03ebbbae2ae3a1872a7f9312000000000000000000000000000000000000000000000000000000000000000050000000000000000000000005a13efe4b784e72b685cc4f41826b35ac359d46400000000000000000000000000000000000000000000000000000000000000510100000000000006ae000075950000000000000000000000005a13efe4b784e72b685cc4f41826b35ac359d46400007623000000000000000000000000b5a86030b64afaa75c42c0d28f8d5ce5f9f614010000000000000000000000000000000000000000000000000000000000000000000000000000000000000000000000",
                    "decodedMethod": {
                        "callParams": [
                            {
                                "name": "_param",
                                "type": "(uint32,bytes,bytes32,uint64,address)",
                                "value": [
                                    {
                                        "name": "dstEid",
                                        "type": "uint32",
                                        "value": "30,243"
                                    },
                                    {
                                        "name": "packetHeader",
                                        "type": "bytes",
                                        "value": "0x0100000000000006ae000075950000000000000000000000005a13efe4b784e72b685cc4f41826b35ac359d46400007623000000000000000000000000b5a86030b64afaa75c42c0d28f8d5ce5f9f61401"
                                    },
                                    {
                                        "name": "payloadHash",
                                        "type": "bytes32",
                                        "value": "0xbaf08f65995c81c9e02152b392ba125d24991dc03ebbbae2ae3a1872a7f93120"
                                    },
                                    {
                                        "name": "confirmations",
                                        "type": "uint64",
                                        "value": "5"
                                    },
                                    {
                                        "name": "sender",
                                        "type": "address",
                                        "value": "0x5a13efe4b784e72b685cc4f41826b35ac359d464"
                                    }
                                ]
                            },
                            {
                                "name": "",
                                "type": "bytes",
                                "value": "0x"
                            }
                        ],
                        "constructorArguments": "",
                        "name": "assignJob",
                        "returnParams": [
                            {
                                "name": "fee",
                                "type": "uint256",
                                "value": "700,000,000,000,000"
                            }
                        ],
                        "signature": "assignJob((uint32,bytes,bytes32,uint64,address),bytes)"
                    },
                    "errorInfo": "",
                    "fromAddress": "0x8ddf05f9a5c488b4973897e278b58895bf87cb24",
                    "gasUsed": 10425,
                    "id": 17,
                    "methodDecoded": true,
                    "operation": "DELEGATECALL",
                    "output": "0x00000000000000000000000000000000000000000000000000027ca57357c000",
                    "revert": false,
                    "revertMessage": "",
                    "selector": "0x95d376d7",
                    "status": true,
                    "value": "0"
                },
                "nodeType": 0
            },
            "18": {
                "event": {
                    "contract": "0x8ddf05f9a5c488b4973897e278b58895bf87cb24",
                    "decodedLog": {
                        "name": "OracleNotified",
                        "params": [
                            {
                                "name": "dstEid",
                                "type": "uint32",
                                "value": "30,243"
                            },
                            {
                                "name": "blockConfirmations",
                                "type": "uint64",
                                "value": "5"
                            },
                            {
                                "name": "userApplication",
                                "type": "address",
                                "value": "0x5a13efe4b784e72b685cc4f41826b35ac359d464"
                            },
                            {
                                "name": "fee",
                                "type": "uint256",
                                "value": "700,000,000,000,000"
                            }
                        ],
                        "signature": "OracleNotified(uint32,uint64,address,uint256)"
                    },
                    "id": 18,
                    "logData": "0x000000000000000000000000000000000000000000000000000000000000762300000000000000000000000000000000000000000000000000000000000000050000000000000000000000005a13efe4b784e72b685cc4f41826b35ac359d46400000000000000000000000000000000000000000000000000027ca57357c000",
                    "logDecoded": true,
                    "operation": "EVENT",
                    "revert": false,
                    "status": true,
                    "topics": [
                        "0x915615b444fd15cbe20634e8d0a109373bea8c1ed15d3c503ca9e70547a4c220"
                    ]
                },
                "nodeType": 1
            },
            "19": {
                "invocation": {
                    "address": "0xa59ba433ac34d2927232918ef5b2eaafcf130ba5",
                    "callData": "0x00000000000000000000000000000000000000000000000000000000000000400000000000000000000000000000000000000000000000000000000000000160000000000000000000000000000000000000000000000000000000000000762300000000000000000000000000000000000000000000000000000000000000a0baf08f65995c81c9e02152b392ba125d24991dc03ebbbae2ae3a1872a7f9312000000000000000000000000000000000000000000000000000000000000000050000000000000000000000005a13efe4b784e72b685cc4f41826b35ac359d46400000000000000000000000000000000000000000000000000000000000000510100000000000006ae000075950000000000000000000000005a13efe4b784e72b685cc4f41826b35ac359d46400007623000000000000000000000000b5a86030b64afaa75c42c0d28f8d5ce5f9f614010000000000000000000000000000000000000000000000000000000000000000000000000000000000000000000000",
                    "decodedMethod": {
                        "callParams": [
                            {
                                "name": "_param",
                                "type": "(uint32,bytes,bytes32,uint64,address)",
                                "value": [
                                    {
                                        "name": "dstEid",
                                        "type": "uint32",
                                        "value": "30,243"
                                    },
                                    {
                                        "name": "packetHeader",
                                        "type": "bytes",
                                        "value": "0x0100000000000006ae000075950000000000000000000000005a13efe4b784e72b685cc4f41826b35ac359d46400007623000000000000000000000000b5a86030b64afaa75c42c0d28f8d5ce5f9f61401"
                                    },
                                    {
                                        "name": "payloadHash",
                                        "type": "bytes32",
                                        "value": "0xbaf08f65995c81c9e02152b392ba125d24991dc03ebbbae2ae3a1872a7f93120"
                                    },
                                    {
                                        "name": "confirmations",
                                        "type": "uint64",
                                        "value": "5"
                                    },
                                    {
                                        "name": "sender",
                                        "type": "address",
                                        "value": "0x5a13efe4b784e72b685cc4f41826b35ac359d464"
                                    }
                                ]
                            },
                            {
                                "name": "_options",
                                "type": "bytes",
                                "value": "0x"
                            }
                        ],
                        "constructorArguments": "",
                        "name": "assignJob",
                        "returnParams": [
                            {
                                "name": "totalFee",
                                "type": "uint256",
                                "value": "571,137,104,420,971"
                            }
                        ],
                        "signature": "assignJob((uint32,bytes,bytes32,uint64,address),bytes)"
                    },
                    "errorInfo": "",
                    "fromAddress": "0xbb2ea70c9e858123480642cf96acbcce1372dce1",
                    "gasUsed": 26579,
                    "id": 19,
                    "methodDecoded": true,
                    "operation": "CALL",
                    "output": "0x00000000000000000000000000000000000000000000000000020772383a206b",
                    "revert": false,
                    "revertMessage": "",
                    "selector": "0x95d376d7",
                    "status": true,
                    "value": "0"
                },
                "nodeType": 0
            },
            "2": {
                "event": {
                    "contract": "0x8355dbe8b0e275abad27eb843f3eaf3fc855e525",
                    "decodedLog": {
                        "name": "Transfer",
                        "params": [
                            {
                                "name": "from",
                                "type": "address",
                                "value": "0x0865ef935247eb8cd43d655e7989615d8c61f7c8"
                            },
                            {
                                "name": "to",
                                "type": "address",
                                "value": "0x5a13efe4b784e72b685cc4f41826b35ac359d464"
                            },
                            {
                                "decimalAvailable": true,
                                "name": "value",
                                "type": "uint256",
                                "value": "328,245,000,000,000,000,000,000"
                            }
                        ],
                        "signature": "Transfer(address,address,uint256)"
                    },
                    "id": 2,
                    "logData": "0x00000000000000000000000000000000000000000000458232757f746fb40000",
                    "logDecoded": true,
                    "operation": "EVENT",
                    "revert": false,
                    "status": true,
                    "topics": [
                        "0xddf252ad1be2c89b69c2b068fc378daa952ba7f163c4a11628f55a4df523b3ef",
                        "0x0000000000000000000000000865ef935247eb8cd43d655e7989615d8c61f7c8",
                        "0x0000000000000000000000005a13efe4b784e72b685cc4f41826b35ac359d464"
                    ]
                },
                "nodeType": 1
            },
            "20": {
                "invocation": {
                    "address": "0xa7b5189bca84cd304d8553977c7c614329750d99",
                    "callData": "0x000000000000000000000000c03f31fd86a9077785b7bcf6598ce3598fa91113000000000000000000000000000000000000000000000000000000000000762300000000000000000000000000000000000000000000000000000000000000050000000000000000000000005a13efe4b784e72b685cc4f41826b35ac359d46400000000000000000000000000000000000000000000000000000000000000010000000000000000000000000000000000000000000000000000000000002ee00000000000000000000000000000000000000000000000000000000000012cc80000000000000000000000000000000000000000000000000000000000002ee0000000000000000000000000000000000000000000000000000000000000000000000000000000000000000000000000000000000000000000000000000001400000000000000000000000000000000000000000000000000000000000000000",
                    "decodedMethod": {
                        "callParams": [
                            {
                                "name": "_params",
                                "type": "(address,uint32,uint64,address,uint64,uint16)",
                                "value": [
                                    {
                                        "name": "priceFeed",
                                        "type": "address",
                                        "value": "0xc03f31fd86a9077785b7bcf6598ce3598fa91113"
                                    },
                                    {
                                        "name": "dstEid",
                                        "type": "uint32",
                                        "value": "30,243"
                                    },
                                    {
                                        "name": "confirmations",
                                        "type": "uint64",
                                        "value": "5"
                                    },
                                    {
                                        "name": "sender",
                                        "type": "address",
                                        "value": "0x5a13efe4b784e72b685cc4f41826b35ac359d464"
                                    },
                                    {
                                        "name": "quorum",
                                        "type": "uint64",
                                        "value": "1"
                                    },
                                    {
                                        "name": "defaultMultiplierBps",
                                        "type": "uint16",
                                        "value": "12,000"
                                    }
                                ]
                            },
                            {
                                "name": "_dstConfig",
                                "type": "(uint64,uint16,uint128)",
                                "value": [
                                    {
                                        "name": "gas",
                                        "type": "uint64",
                                        "value": "77,000"
                                    },
                                    {
                                        "name": "multiplierBps",
                                        "type": "uint16",
                                        "value": "12,000"
                                    },
                                    {
                                        "name": "floorMarginUSD",
                                        "type": "uint128",
                                        "value": "0"
                                    }
                                ]
                            },
                            {
                                "name": "_options",
                                "type": "bytes",
                                "value": "0x"
                            }
                        ],
                        "constructorArguments": "",
                        "name": "getFeeOnSend",
                        "returnParams": [
                            {
                                "name": "",
                                "type": "uint256",
                                "value": "571,137,104,420,971"
                            }
                        ],
                        "signature": "getFeeOnSend((address,uint32,uint64,address,uint64,uint16),(uint64,uint16,uint128),bytes)"
                    },
                    "errorInfo": "",
                    "fromAddress": "0xa59ba433ac34d2927232918ef5b2eaafcf130ba5",
                    "gasUsed": 8223,
                    "id": 20,
                    "methodDecoded": true,
                    "operation": "CALL",
                    "output": "0x00000000000000000000000000000000000000000000000000020772383a206b",
                    "revert": false,
                    "revertMessage": "",
                    "selector": "0xdf2b057e",
                    "status": true,
                    "value": "0"
                },
                "nodeType": 0
            },
            "21": {
                "invocation": {
                    "address": "0xc03f31fd86a9077785b7bcf6598ce3598fa91113",
                    "callData": "0x000000000000000000000000000000000000000000000000000000000000762300000000000000000000000000000000000000000000000000000000000001c40000000000000000000000000000000000000000000000000000000000012cc8",
                    "decodedMethod": {
                        "callParams": [
                            {
                                "name": "_dstEid",
                                "type": "uint32",
                                "value": "30,243"
                            },
                            {
                                "name": "_callDataSize",
                                "type": "uint256",
                                "value": "452"
                            },
                            {
                                "name": "_gas",
                                "type": "uint256",
                                "value": "77,000"
                            }
                        ],
                        "constructorArguments": "",
                        "name": "estimateFeeOnSend",
                        "returnParams": [
                            {
                                "name": "",
                                "type": "uint256",
                                "value": "475,947,587,017,476"
                            },
                            {
                                "name": "",
                                "type": "uint128",
                                "value": "100,000,000,000,000,000,001"
                            },
                            {
                                "name": "",
                                "type": "uint128",
                                "value": "100,000,000,000,000,000,000"
                            },
                            {
                                "name": "",
                                "type": "uint128",
                                "value": "343,184,032,000,000,000,000,000"
                            }
                        ],
                        "signature": "estimateFeeOnSend(uint32,uint256,uint256)"
                    },
                    "errorInfo": "",
                    "fromAddress": "0xa7b5189bca84cd304d8553977c7c614329750d99",
                    "gasUsed": 4777,
                    "id": 21,
                    "methodDecoded": true,
                    "operation": "CALL",
                    "output": "0x0000000000000000000000000000000000000000000000000001b0df2edb1b040000000000000000000000000000000000000000000000056bc75e2d631000010000000000000000000000000000000000000000000000056bc75e2d631000000000000000000000000000000000000000000000000048ac0b2cd51231100000",
                    "revert": false,
                    "revertMessage": "",
                    "selector": "0xc1723a1d",
                    "status": true,
                    "value": "0"
                },
                "nodeType": 0
            },
            "22": {
                "invocation": {
                    "address": "0x13dff8847ea170ebb8439ce732c0a14bb49fdd92",
                    "callData": "0x000000000000000000000000000000000000000000000000000000000000762300000000000000000000000000000000000000000000000000000000000001c40000000000000000000000000000000000000000000000000000000000012cc8",
                    "decodedMethod": {
                        "callParams": [
                            {
                                "name": "_dstEid",
                                "type": "uint32",
                                "value": "30,243"
                            },
                            {
                                "name": "_callDataSize",
                                "type": "uint256",
                                "value": "452"
                            },
                            {
                                "name": "_gas",
                                "type": "uint256",
                                "value": "77,000"
                            }
                        ],
                        "constructorArguments": "",
                        "name": "estimateFeeOnSend",
                        "returnParams": [
                            {
                                "name": "",
                                "type": "uint256",
                                "value": "475,947,587,017,476"
                            },
                            {
                                "name": "",
                                "type": "uint128",
                                "value": "100,000,000,000,000,000,001"
                            },
                            {
                                "name": "",
                                "type": "uint128",
                                "value": "100,000,000,000,000,000,000"
                            },
                            {
                                "name": "",
                                "type": "uint128",
                                "value": "343,184,032,000,000,000,000,000"
                            }
                        ],
                        "signature": "estimateFeeOnSend(uint32,uint256,uint256)"
                    },
                    "errorInfo": "",
                    "fromAddress": "0xc03f31fd86a9077785b7bcf6598ce3598fa91113",
                    "gasUsed": 4190,
                    "id": 22,
                    "methodDecoded": true,
                    "operation": "DELEGATECALL",
                    "output": "0x0000000000000000000000000000000000000000000000000001b0df2edb1b040000000000000000000000000000000000000000000000056bc75e2d631000010000000000000000000000000000000000000000000000056bc75e2d631000000000000000000000000000000000000000000000000048ac0b2cd51231100000",
                    "revert": false,
                    "revertMessage": "",
                    "selector": "0xc1723a1d",
                    "status": true,
                    "value": "0"
                },
                "nodeType": 0
            },
            "23": {
                "event": {
                    "contract": "0xbb2ea70c9e858123480642cf96acbcce1372dce1",
                    "decodedLog": {
                        "name": "DVNFeePaid",
                        "params": [
                            {
                                "name": "requiredDVNs",
                                "type": "address[]",
                                "value": [
                                    "0x589dedbd617e0cbcb916a9223f4d1300c294236b"
                                ]
                            },
                            {
                                "name": "optionalDVNs",
                                "type": "address[]",
                                "value": [
                                    "0x8ddf05f9a5c488b4973897e278b58895bf87cb24",
                                    "0xa59ba433ac34d2927232918ef5b2eaafcf130ba5"
                                ]
                            },
                            {
                                "name": "fees",
                                "type": "uint256[]",
                                "value": [
                                    "613,781,393,769,988",
                                    "700,000,000,000,000",
                                    "571,137,104,420,971"
                                ]
                            }
                        ],
                        "signature": "DVNFeePaid(address[],address[],uint256[])"
                    },
                    "id": 23,
                    "logData": "0x000000000000000000000000000000000000000000000000000000000000006000000000000000000000000000000000000000000000000000000000000000a000000000000000000000000000000000000000000000000000000000000001000000000000000000000000000000000000000000000000000000000000000001000000000000000000000000589dedbd617e0cbcb916a9223f4d1300c294236b00000000000000000000000000000000000000000000000000000000000000020000000000000000000000008ddf05f9a5c488b4973897e278b58895bf87cb24000000000000000000000000a59ba433ac34d2927232918ef5b2eaafcf130ba5000000000000000000000000000000000000000000000000000000000000000300000000000000000000000000000000000000000000000000022e3b1df2060400000000000000000000000000000000000000000000000000027ca57357c00000000000000000000000000000000000000000000000000000020772383a206b",
                    "logDecoded": true,
                    "operation": "EVENT",
                    "revert": false,
                    "status": true,
                    "topics": [
                        "0x07ea52d82345d6e838192107d8fd7123d9c2ec8e916cd0aad13fd2b60db24644"
                    ]
                },
                "nodeType": 1
            },
            "24": {
                "invocation": {
                    "address": "0x5ebb3f2feaa15271101a927869b3a56837e73056",
                    "callData": "0x0000000000000000000000005a13efe4b784e72b685cc4f41826b35ac359d464000000000000000000000000000000000000000000000000000000000000762300000000000000000000000000000000000000000000000000081ae022401cf80000000000000000000000000000000000000000000000000000000000000000",
                    "decodedMethod": {
                        "callParams": [
                            {
                                "name": "",
                                "type": "address",
                                "value": "0x5a13efe4b784e72b685cc4f41826b35ac359d464"
                            },
                            {
                                "name": "",
                                "type": "uint32",
                                "value": "30,243"
                            },
                            {
                                "name": "_totalFee",
                                "type": "uint256",
                                "value": "2,281,349,763,308,792"
                            },
                            {
                                "name": "_payInLzToken",
                                "type": "bool",
                                "value": false
                            }
                        ],
                        "constructorArguments": "",
                        "name": "payFee",
                        "returnParams": [
                            {
                                "name": "",
                                "type": "uint256",
                                "value": "0"
                            }
                        ],
                        "signature": "payFee(address,uint32,uint256,bool)"
                    },
                    "errorInfo": "",
                    "fromAddress": "0xbb2ea70c9e858123480642cf96acbcce1372dce1",
                    "gasUsed": 2894,
                    "id": 24,
                    "methodDecoded": true,
                    "operation": "CALL",
                    "output": "0x0000000000000000000000000000000000000000000000000000000000000000",
                    "revert": false,
                    "revertMessage": "",
                    "selector": "0xd51c5486",
                    "status": true,
                    "value": "0"
                },
                "nodeType": 0
            },
            "25": {
                "event": {
                    "contract": "0x1a44076050125825900e736c501f859c50fe728c",
                    "decodedLog": {
                        "name": "PacketSent",
                        "params": [
                            {
                                "name": "encodedPayload",
                                "type": "bytes",
                                "value": "0x0100000000000006ae000075950000000000000000000000005a13efe4b784e72b685cc4f41826b35ac359d46400007623000000000000000000000000b5a86030b64afaa75c42c0d28f8d5ce5f9f6140124dfa7a28aa578395b45c6a40310ccff27d8ba24f9922f2832292f02888abd510000000000000000000000000865ef935247eb8cd43d655e7989615d8c61f7c80000004c6ced3740"
                            },
                            {
                                "name": "options",
                                "type": "bytes",
                                "value": "0x0003010011010000000000000000000000000000ea60"
                            },
                            {
                                "name": "sendLibrary",
                                "type": "address",
                                "value": "0xbb2ea70c9e858123480642cf96acbcce1372dce1"
                            }
                        ],
                        "signature": "PacketSent(bytes,bytes,address)"
                    },
                    "id": 25,
                    "logData": "0x00000000000000000000000000000000000000000000000000000000000000600000000000000000000000000000000000000000000000000000000000000120000000000000000000000000bb2ea70c9e858123480642cf96acbcce1372dce100000000000000000000000000000000000000000000000000000000000000990100000000000006ae000075950000000000000000000000005a13efe4b784e72b685cc4f41826b35ac359d46400007623000000000000000000000000b5a86030b64afaa75c42c0d28f8d5ce5f9f6140124dfa7a28aa578395b45c6a40310ccff27d8ba24f9922f2832292f02888abd510000000000000000000000000865ef935247eb8cd43d655e7989615d8c61f7c80000004c6ced37400000000000000000000000000000000000000000000000000000000000000000000000000000160003010011010000000000000000000000000000ea6000000000000000000000",
                    "logDecoded": true,
                    "operation": "EVENT",
                    "revert": false,
                    "status": true,
                    "topics": [
                        "0x1ab700d4ced0c005b164c0f789fd09fcbb0156d4c2041b8a3bfbcd961cd1567f"
                    ]
                },
                "nodeType": 1
            },
            "26": {
                "invocation": {
                    "address": "0xbb2ea70c9e858123480642cf96acbcce1372dce1",
                    "callData": "0x",
                    "decodedMethod": null,
                    "errorInfo": "",
                    "fromAddress": "0x1a44076050125825900e736c501f859c50fe728c",
                    "gasUsed": 55,
                    "id": 26,
                    "methodDecoded": false,
                    "operation": "CALL",
                    "output": "",
                    "revert": false,
                    "revertMessage": "",
                    "selector": "fallback",
                    "status": true,
                    "value": "0.002281349763308792"
                },
                "nodeType": 0
            },
            "27": {
                "event": {
                    "contract": "0x5a13efe4b784e72b685cc4f41826b35ac359d464",
                    "decodedLog": {
                        "name": "OFTSent",
                        "params": [
                            {
                                "name": "guid",
                                "type": "bytes32",
                                "value": "0x24dfa7a28aa578395b45c6a40310ccff27d8ba24f9922f2832292f02888abd51"
                            },
                            {
                                "name": "fromAddress",
                                "type": "address",
                                "value": "0x0865ef935247eb8cd43d655e7989615d8c61f7c8"
                            },
                            {
                                "name": "dstEid",
                                "type": "uint32",
                                "value": "30,243"
                            },
                            {
                                "name": "amountSentLD",
                                "type": "uint256",
                                "value": "328,245,000,000,000,000,000,000"
                            },
                            {
                                "name": "amountReceivedLD",
                                "type": "uint256",
                                "value": "328,245,000,000,000,000,000,000"
                            }
                        ],
                        "signature": "OFTSent(bytes32,uint32,address,uint256,uint256)"
                    },
                    "id": 27,
                    "logData": "0x000000000000000000000000000000000000000000000000000000000000762300000000000000000000000000000000000000000000458232757f746fb4000000000000000000000000000000000000000000000000458232757f746fb40000",
                    "logDecoded": true,
                    "operation": "EVENT",
                    "revert": false,
                    "status": true,
                    "topics": [
                        "0x85496b760a4b7f8d66384b9df21b381f5d1b1e79f229a47aaf4c232edc2fe59a",
                        "0x24dfa7a28aa578395b45c6a40310ccff27d8ba24f9922f2832292f02888abd51",
                        "0x0000000000000000000000000865ef935247eb8cd43d655e7989615d8c61f7c8"
                    ]
                },
                "nodeType": 1
            },
            "3": {
                "event": {
                    "contract": "0x8355dbe8b0e275abad27eb843f3eaf3fc855e525",
                    "decodedLog": {
                        "name": "Approval",
                        "params": [
                            {
                                "name": "owner",
                                "type": "address",
                                "value": "0x0865ef935247eb8cd43d655e7989615d8c61f7c8"
                            },
                            {
                                "name": "spender",
                                "type": "address",
                                "value": "0x5a13efe4b784e72b685cc4f41826b35ac359d464"
                            },
                            {
                                "decimalAvailable": true,
                                "name": "value",
                                "type": "uint256",
                                "value": "9,997,293,222,000,000,000,000,000,000"
                            }
                        ],
                        "signature": "Approval(address,address,uint256)"
                    },
                    "id": 3,
                    "logData": "0x0000000000000000000000000000000000000000204d912f836aeedb22d80000",
                    "logDecoded": true,
                    "operation": "EVENT",
                    "revert": false,
                    "status": true,
                    "topics": [
                        "0x8c5be1e5ebec7d5bd14f71427d1e84f3dd0314c0f7b2291e5b200ac8c7c3b925",
                        "0x0000000000000000000000000865ef935247eb8cd43d655e7989615d8c61f7c8",
                        "0x0000000000000000000000005a13efe4b784e72b685cc4f41826b35ac359d464"
                    ]
                },
                "nodeType": 1
            },
            "4": {
                "invocation": {
                    "address": "0x1a44076050125825900e736c501f859c50fe728c",
                    "callData": "0x00000000000000000000000000000000000000000000000000000000000000400000000000000000000000000865ef935247eb8cd43d655e7989615d8c61f7c80000000000000000000000000000000000000000000000000000000000007623000000000000000000000000b5a86030b64afaa75c42c0d28f8d5ce5f9f6140100000000000000000000000000000000000000000000000000000000000000a00000000000000000000000000000000000000000000000000000000000000100000000000000000000000000000000000000000000000000000000000000000000000000000000000000000000000000000000000000000000000000000000280000000000000000000000000865ef935247eb8cd43d655e7989615d8c61f7c80000004c6ced374000000000000000000000000000000000000000000000000000000000000000000000000000000000000000000000000000000000000000160003010011010000000000000000000000000000ea6000000000000000000000",
                    "decodedMethod": {
                        "callParams": [
                            {
                                "name": "_params",
                                "type": "(uint32,bytes32,bytes,bytes,bool)",
                                "value": [
                                    {
                                        "name": "dstEid",
                                        "type": "uint32",
                                        "value": "30,243"
                                    },
                                    {
                                        "name": "receiver",
                                        "type": "bytes32",
                                        "value": "0x000000000000000000000000b5a86030b64afaa75c42c0d28f8d5ce5f9f61401"
                                    },
                                    {
                                        "name": "message",
                                        "type": "bytes",
                                        "value": "0x0000000000000000000000000865ef935247eb8cd43d655e7989615d8c61f7c80000004c6ced3740"
                                    },
                                    {
                                        "name": "options",
                                        "type": "bytes",
                                        "value": "0x0003010011010000000000000000000000000000ea60"
                                    },
                                    {
                                        "name": "payInLzToken",
                                        "type": "bool",
                                        "value": false
                                    }
                                ]
                            },
                            {
                                "name": "_refundAddress",
                                "type": "address",
                                "value": "0x0865ef935247eb8cd43d655e7989615d8c61f7c8"
                            }
                        ],
                        "constructorArguments": "",
                        "name": "send",
                        "returnParams": [
                            {
                                "name": "",
                                "type": "(bytes32,uint64,(uint256,uint256))",
                                "value": [
                                    {
                                        "name": "guid",
                                        "type": "bytes32",
                                        "value": "0x24dfa7a28aa578395b45c6a40310ccff27d8ba24f9922f2832292f02888abd51"
                                    },
                                    {
                                        "name": "nonce",
                                        "type": "uint64",
                                        "value": "1,710"
                                    },
                                    {
                                        "name": "fee",
                                        "type": "(uint256,uint256)",
                                        "value": [
                                            {
                                                "name": "nativeFee",
                                                "type": "uint256",
                                                "value": "2,281,349,763,308,792"
                                            },
                                            {
                                                "name": "lzTokenFee",
                                                "type": "uint256",
                                                "value": "0"
                                            }
                                        ]
                                    }
                                ]
                            }
                        ],
                        "signature": "send((uint32,bytes32,bytes,bytes,bool),address)"
                    },
                    "errorInfo": "",
                    "fromAddress": "0x5a13efe4b784e72b685cc4f41826b35ac359d464",
                    "gasUsed": 240075,
                    "id": 4,
                    "methodDecoded": true,
                    "operation": "CALL",
                    "output": "0x24dfa7a28aa578395b45c6a40310ccff27d8ba24f9922f2832292f02888abd5100000000000000000000000000000000000000000000000000000000000006ae00000000000000000000000000000000000000000000000000081ae022401cf80000000000000000000000000000000000000000000000000000000000000000",
                    "revert": false,
                    "revertMessage": "",
                    "selector": "0x2637a450",
                    "status": true,
                    "value": "0.002281349763308792"
                },
                "nodeType": 0
            },
            "5": {
                "invocation": {
                    "address": "0xbb2ea70c9e858123480642cf96acbcce1372dce1",
                    "callData": "0x000000000000000000000000000000000000000000000000000000000000006000000000000000000000000000000000000000000000000000000000000001a0000000000000000000000000000000000000000000000000000000000000000000000000000000000000000000000000000000000000000000000000000006ae00000000000000000000000000000000000000000000000000000000000075950000000000000000000000005a13efe4b784e72b685cc4f41826b35ac359d4640000000000000000000000000000000000000000000000000000000000007623000000000000000000000000b5a86030b64afaa75c42c0d28f8d5ce5f9f6140124dfa7a28aa578395b45c6a40310ccff27d8ba24f9922f2832292f02888abd5100000000000000000000000000000000000000000000000000000000000000e000000000000000000000000000000000000000000000000000000000000000280000000000000000000000000865ef935247eb8cd43d655e7989615d8c61f7c80000004c6ced374000000000000000000000000000000000000000000000000000000000000000000000000000000000000000000000000000000000000000160003010011010000000000000000000000000000ea6000000000000000000000",
                    "decodedMethod": {
                        "callParams": [
                            {
                                "name": "_packet",
                                "type": "(uint64,uint32,address,uint32,bytes32,bytes32,bytes)",
                                "value": [
                                    {
                                        "name": "nonce",
                                        "type": "uint64",
                                        "value": "1,710"
                                    },
                                    {
                                        "name": "srcEid",
                                        "type": "uint32",
                                        "value": "30,101"
                                    },
                                    {
                                        "name": "sender",
                                        "type": "address",
                                        "value": "0x5a13efe4b784e72b685cc4f41826b35ac359d464"
                                    },
                                    {
                                        "name": "dstEid",
                                        "type": "uint32",
                                        "value": "30,243"
                                    },
                                    {
                                        "name": "receiver",
                                        "type": "bytes32",
                                        "value": "0x000000000000000000000000b5a86030b64afaa75c42c0d28f8d5ce5f9f61401"
                                    },
                                    {
                                        "name": "guid",
                                        "type": "bytes32",
                                        "value": "0x24dfa7a28aa578395b45c6a40310ccff27d8ba24f9922f2832292f02888abd51"
                                    },
                                    {
                                        "name": "message",
                                        "type": "bytes",
                                        "value": "0x0000000000000000000000000865ef935247eb8cd43d655e7989615d8c61f7c80000004c6ced3740"
                                    }
                                ]
                            },
                            {
                                "name": "_options",
                                "type": "bytes",
                                "value": "0x0003010011010000000000000000000000000000ea60"
                            },
                            {
                                "name": "_payInLzToken",
                                "type": "bool",
                                "value": false
                            }
                        ],
                        "constructorArguments": "",
                        "name": "send",
                        "returnParams": [
                            {
                                "name": "",
                                "type": "(uint256,uint256)",
                                "value": [
                                    {
                                        "name": "nativeFee",
                                        "type": "uint256",
                                        "value": "2,281,349,763,308,792"
                                    },
                                    {
                                        "name": "lzTokenFee",
                                        "type": "uint256",
                                        "value": "0"
                                    }
                                ]
                            },
                            {
                                "name": "",
                                "type": "bytes",
                                "value": "0x0100000000000006ae000075950000000000000000000000005a13efe4b784e72b685cc4f41826b35ac359d46400007623000000000000000000000000b5a86030b64afaa75c42c0d28f8d5ce5f9f6140124dfa7a28aa578395b45c6a40310ccff27d8ba24f9922f2832292f02888abd510000000000000000000000000865ef935247eb8cd43d655e7989615d8c61f7c80000004c6ced3740"
                            }
                        ],
                        "signature": "send((uint64,uint32,address,uint32,bytes32,bytes32,bytes),bytes,bool)"
                    },
                    "errorInfo": "",
                    "fromAddress": "0x1a44076050125825900e736c501f859c50fe728c",
                    "gasUsed": 202598,
                    "id": 5,
                    "methodDecoded": true,
                    "operation": "CALL",
                    "output": "0x00000000000000000000000000000000000000000000000000081ae022401cf80000000000000000000000000000000000000000000000000000000000000000000000000000000000000000000000000000000000000000000000000000006000000000000000000000000000000000000000000000000000000000000000990100000000000006ae000075950000000000000000000000005a13efe4b784e72b685cc4f41826b35ac359d46400007623000000000000000000000000b5a86030b64afaa75c42c0d28f8d5ce5f9f6140124dfa7a28aa578395b45c6a40310ccff27d8ba24f9922f2832292f02888abd510000000000000000000000000865ef935247eb8cd43d655e7989615d8c61f7c80000004c6ced374000000000000000",
                    "revert": false,
                    "revertMessage": "",
                    "selector": "0x4389e58f",
                    "status": true,
                    "value": "0"
                },
                "nodeType": 0
            },
            "6": {
                "invocation": {
                    "address": "0x173272739bd7aa6e4e214714048a9fe699453059",
                    "callData": "0x00000000000000000000000000000000000000000000000000000000000076230000000000000000000000005a13efe4b784e72b685cc4f41826b35ac359d464000000000000000000000000000000000000000000000000000000000000002800000000000000000000000000000000000000000000000000000000000000800000000000000000000000000000000000000000000000000000000000000014010011010000000000000000000000000000ea60000000000000000000000000",
                    "decodedMethod": {
                        "callParams": [
                            {
                                "name": "_dstEid",
                                "type": "uint32",
                                "value": "30,243"
                            },
                            {
                                "name": "_sender",
                                "type": "address",
                                "value": "0x5a13efe4b784e72b685cc4f41826b35ac359d464"
                            },
                            {
                                "name": "_calldataSize",
                                "type": "uint256",
                                "value": "40"
                            },
                            {
                                "name": "_options",
                                "type": "bytes",
                                "value": "0x010011010000000000000000000000000000ea60"
                            }
                        ],
                        "constructorArguments": "",
                        "name": "assignJob",
                        "returnParams": [
                            {
                                "name": "fee",
                                "type": "uint256",
                                "value": "396,431,265,117,833"
                            }
                        ],
                        "signature": "assignJob(uint32,address,uint256,bytes)"
                    },
                    "errorInfo": "",
                    "fromAddress": "0xbb2ea70c9e858123480642cf96acbcce1372dce1",
                    "gasUsed": 49636,
                    "id": 6,
                    "methodDecoded": true,
                    "operation": "CALL",
                    "output": "0x0000000000000000000000000000000000000000000000000001688d58bc3689",
                    "revert": false,
                    "revertMessage": "",
                    "selector": "0x717e8a42",
                    "status": true,
                    "value": "0"
                },
                "nodeType": 0
            },
            "7": {
                "invocation": {
                    "address": "0x1e45f27f0e96e9757cff938f2c9d697aa8279c85",
                    "callData": "0x00000000000000000000000000000000000000000000000000000000000076230000000000000000000000005a13efe4b784e72b685cc4f41826b35ac359d464000000000000000000000000000000000000000000000000000000000000002800000000000000000000000000000000000000000000000000000000000000800000000000000000000000000000000000000000000000000000000000000014010011010000000000000000000000000000ea60000000000000000000000000",
                    "decodedMethod": {
                        "callParams": [
                            {
                                "name": "_dstEid",
                                "type": "uint32",
                                "value": "30,243"
                            },
                            {
                                "name": "_sender",
                                "type": "address",
                                "value": "0x5a13efe4b784e72b685cc4f41826b35ac359d464"
                            },
                            {
                                "name": "_calldataSize",
                                "type": "uint256",
                                "value": "40"
                            },
                            {
                                "name": "_options",
                                "type": "bytes",
                                "value": "0x010011010000000000000000000000000000ea60"
                            }
                        ],
                        "constructorArguments": "",
                        "name": "assignJob",
                        "returnParams": [
                            {
                                "name": "fee",
                                "type": "uint256",
                                "value": "396,431,265,117,833"
                            }
                        ],
                        "signature": "assignJob(uint32,address,uint256,bytes)"
                    },
                    "errorInfo": "",
                    "fromAddress": "0x173272739bd7aa6e4e214714048a9fe699453059",
                    "gasUsed": 44540,
                    "id": 7,
                    "methodDecoded": true,
                    "operation": "DELEGATECALL",
                    "output": "0x0000000000000000000000000000000000000000000000000001688d58bc3689",
                    "revert": false,
                    "revertMessage": "",
                    "selector": "0x717e8a42",
                    "status": true,
                    "value": "0"
                },
                "nodeType": 0
            },
            "8": {
                "invocation": {
                    "address": "0x19044ca8bbbabdc30e52d4d60854d968d90274da",
                    "callData": "0x000000000000000000000000c03f31fd86a9077785b7bcf6598ce3598fa9111300000000000000000000000000000000000000000000000000000000000076230000000000000000000000005a13efe4b784e72b685cc4f41826b35ac359d46400000000000000000000000000000000000000000000000000000000000000280000000000000000000000000000000000000000000000000000000000002ee00000000000000000000000000000000000000000000000000000000000014c080000000000000000000000000000000000000000000000000000000000002ee0000000000000000000000000000000000000000000000002b5e3af16b188000000000000000000000000000000000000000000000000000000b1a2bc2ec5000000000000000000000000000000000000000000000000000000000000000001400000000000000000000000000000000000000000000000000000000000000014010011010000000000000000000000000000ea60000000000000000000000000",
                    "decodedMethod": {
                        "callParams": [
                            {
                                "name": "_params",
                                "type": "(address,uint32,address,uint256,uint16)",
                                "value": [
                                    {
                                        "name": "priceFeed",
                                        "type": "address",
                                        "value": "0xc03f31fd86a9077785b7bcf6598ce3598fa91113"
                                    },
                                    {
                                        "name": "dstEid",
                                        "type": "uint32",
                                        "value": "30,243"
                                    },
                                    {
                                        "name": "sender",
                                        "type": "address",
                                        "value": "0x5a13efe4b784e72b685cc4f41826b35ac359d464"
                                    },
                                    {
                                        "name": "calldataSize",
                                        "type": "uint256",
                                        "value": "40"
                                    },
                                    {
                                        "name": "defaultMultiplierBps",
                                        "type": "uint16",
                                        "value": "12,000"
                                    }
                                ]
                            },
                            {
                                "name": "_dstConfig",
                                "type": "(uint64,uint16,uint128,uint128)",
                                "value": [
                                    {
                                        "name": "baseGas",
                                        "type": "uint64",
                                        "value": "85,000"
                                    },
                                    {
                                        "name": "multiplierBps",
                                        "type": "uint16",
                                        "value": "12,000"
                                    },
                                    {
                                        "name": "floorMarginUSD",
                                        "type": "uint128",
                                        "value": "50,000,000,000,000,000,000"
                                    },
                                    {
                                        "name": "nativeCap",
                                        "type": "uint128",
                                        "value": "50,000,000,000,000,000"
                                    }
                                ]
                            },
                            {
                                "name": "_options",
                                "type": "bytes",
                                "value": "0x010011010000000000000000000000000000ea60"
                            }
                        ],
                        "constructorArguments": "",
                        "name": "getFeeOnSend",
                        "returnParams": [
                            {
                                "name": "fee",
                                "type": "uint256",
                                "value": "396,431,265,117,833"
                            }
                        ],
                        "signature": "getFeeOnSend((address,uint32,address,uint256,uint16),(uint64,uint16,uint128,uint128),bytes)"
                    },
                    "errorInfo": "",
                    "fromAddress": "0x173272739bd7aa6e4e214714048a9fe699453059",
                    "gasUsed": 27037,
                    "id": 8,
                    "methodDecoded": true,
                    "operation": "CALL",
                    "output": "0x0000000000000000000000000000000000000000000000000001688d58bc3689",
                    "revert": false,
                    "revertMessage": "",
                    "selector": "0xf43bcfc5",
                    "status": true,
                    "value": "0"
                },
                "nodeType": 0
            },
            "9": {
                "invocation": {
                    "address": "0xc03f31fd86a9077785b7bcf6598ce3598fa91113",
                    "callData": "0x000000000000000000000000000000000000000000000000000000000000762300000000000000000000000000000000000000000000000000000000000000280000000000000000000000000000000000000000000000000000000000023668",
                    "decodedMethod": {
                        "callParams": [
                            {
                                "name": "_dstEid",
                                "type": "uint32",
                                "value": "30,243"
                            },
                            {
                                "name": "_callDataSize",
                                "type": "uint256",
                                "value": "40"
                            },
                            {
                                "name": "_gas",
                                "type": "uint256",
                                "value": "145,000"
                            }
                        ],
                        "constructorArguments": "",
                        "name": "estimateFeeOnSend",
                        "returnParams": [
                            {
                                "name": "",
                                "type": "uint256",
                                "value": "250,736,840,733,892"
                            },
                            {
                                "name": "",
                                "type": "uint128",
                                "value": "100,000,000,000,000,000,001"
                            },
                            {
                                "name": "",
                                "type": "uint128",
                                "value": "100,000,000,000,000,000,000"
                            },
                            {
                                "name": "",
                                "type": "uint128",
                                "value": "343,184,032,000,000,000,000,000"
                            }
                        ],
                        "signature": "estimateFeeOnSend(uint32,uint256,uint256)"
                    },
                    "errorInfo": "",
                    "fromAddress": "0x19044ca8bbbabdc30e52d4d60854d968d90274da",
                    "gasUsed": 19277,
                    "id": 9,
                    "methodDecoded": true,
                    "operation": "CALL",
                    "output": "0x0000000000000000000000000000000000000000000000000000e40b3852f4c40000000000000000000000000000000000000000000000056bc75e2d631000010000000000000000000000000000000000000000000000056bc75e2d631000000000000000000000000000000000000000000000000048ac0b2cd51231100000",
                    "revert": false,
                    "revertMessage": "",
                    "selector": "0xc1723a1d",
                    "status": true,
                    "value": "0"
                },
                "nodeType": 0
            }
        },
        "gasFlame": [
            {
                "children": [
                    {
                        "children": [
                            {
                                "children": [],
                                "depth": 0,
                                "name": "Initial Gas",
                                "value": 23920
                            },
                            {
                                "children": [
                                    {
                                        "children": [],
                                        "depth": 1,
                                        "name": "transferFrom",
                                        "value": 20247
                                    },
                                    {
                                        "children": [
                                            {
                                                "children": [
                                                    {
                                                        "children": [
                                                            {
                                                                "children": [
                                                                    {
                                                                        "children": [
                                                                            {
                                                                                "children": [
                                                                                    {
                                                                                        "children": [],
                                                                                        "depth": 7,
                                                                                        "name": "estimateFeeOnSend",
                                                                                        "value": 14190
                                                                                    }
                                                                                ],
                                                                                "depth": 6,
                                                                                "name": "estimateFeeOnSend",
                                                                                "value": 19277
                                                                            }
                                                                        ],
                                                                        "depth": 5,
                                                                        "name": "getFeeOnSend",
                                                                        "value": 27037
                                                                    }
                                                                ],
                                                                "depth": 4,
                                                                "name": "assignJob",
                                                                "value": 44540
                                                            }
                                                        ],
                                                        "depth": 3,
                                                        "name": "assignJob",
                                                        "value": 49636
                                                    },
                                                    {
                                                        "children": [
                                                            {
                                                                "children": [
                                                                    {
                                                                        "children": [
                                                                            {
                                                                                "children": [],
                                                                                "depth": 6,
                                                                                "name": "estimateFeeOnSend",
                                                                                "value": 4190
                                                                            }
                                                                        ],
                                                                        "depth": 5,
                                                                        "name": "estimateFeeOnSend",
                                                                        "value": 4777
                                                                    }
                                                                ],
                                                                "depth": 4,
                                                                "name": "getFeeOnSend",
                                                                "value": 8223
                                                            }
                                                        ],
                                                        "depth": 3,
                                                        "name": "assignJob",
                                                        "value": 26579
                                                    },
                                                    {
                                                        "children": [
                                                            {
                                                                "children": [],
                                                                "depth": 4,
                                                                "name": "assignJob",
                                                                "value": 10425
                                                            }
                                                        ],
                                                        "depth": 3,
                                                        "name": "assignJob",
                                                        "value": 17627
                                                    },
                                                    {
                                                        "children": [
                                                            {
                                                                "children": [
                                                                    {
                                                                        "children": [
                                                                            {
                                                                                "children": [],
                                                                                "depth": 6,
                                                                                "name": "estimateFeeOnSend",
                                                                                "value": 4190
                                                                            }
                                                                        ],
                                                                        "depth": 5,
                                                                        "name": "estimateFeeOnSend",
                                                                        "value": 4777
                                                                    }
                                                                ],
                                                                "depth": 4,
                                                                "name": "getFeeOnSend",
                                                                "value": 8223
                                                            }
                                                        ],
                                                        "depth": 3,
                                                        "name": "assignJob",
                                                        "value": 26579
                                                    },
                                                    {
                                                        "children": [],
                                                        "depth": 3,
                                                        "name": "payFee",
                                                        "value": 2894
                                                    }
                                                ],
                                                "depth": 2,
                                                "name": "send",
                                                "value": 202598
                                            },
                                            {
                                                "children": [],
                                                "depth": 2,
                                                "name": "fallback",
                                                "value": 55
                                            }
                                        ],
                                        "depth": 1,
                                        "name": "send",
                                        "value": 240075
                                    }
                                ],
                                "depth": 0,
                                "name": "Executed Gas",
                                "value": 294316
                            }
                        ],
                        "depth": -1,
                        "name": "Actual Gas Used",
                        "value": 315436
                    },
                    {
                        "children": [],
                        "depth": -1,
                        "name": "Refunded Gas",
                        "value": 2800
                    }
                ],
                "depth": -2,
                "name": "Total Gas",
                "value": 318236
            }
        ],
        "isConfirmed": true,
        "mainTrace": [
            {
                "children": [
                    {
                        "children": [
                            {
                                "children": [
                                    {
                                        "children": [],
                                        "depth": 2,
                                        "id": 2,
                                        "order": 2
                                    },
                                    {
                                        "children": [],
                                        "depth": 2,
                                        "id": 3,
                                        "order": 3
                                    }
                                ],
                                "depth": 1,
                                "id": 1,
                                "order": 1
                            },
                            {
                                "children": [
                                    {
                                        "children": [
                                            {
                                                "children": [
                                                    {
                                                        "children": [
                                                            {
                                                                "children": [
                                                                    {
                                                                        "children": [
                                                                            {
                                                                                "children": [],
                                                                                "depth": 7,
                                                                                "id": 10,
                                                                                "order": 10
                                                                            }
                                                                        ],
                                                                        "depth": 6,
                                                                        "id": 9,
                                                                        "order": 9
                                                                    }
                                                                ],
                                                                "depth": 5,
                                                                "id": 8,
                                                                "order": 8
                                                            }
                                                        ],
                                                        "depth": 4,
                                                        "id": 7,
                                                        "order": 7
                                                    }
                                                ],
                                                "depth": 3,
                                                "id": 6,
                                                "order": 6
                                            },
                                            {
                                                "children": [],
                                                "depth": 3,
                                                "id": 11,
                                                "order": 11
                                            },
                                            {
                                                "children": [
                                                    {
                                                        "children": [
                                                            {
                                                                "children": [
                                                                    {
                                                                        "children": [],
                                                                        "depth": 6,
                                                                        "id": 15,
                                                                        "order": 15
                                                                    }
                                                                ],
                                                                "depth": 5,
                                                                "id": 14,
                                                                "order": 14
                                                            }
                                                        ],
                                                        "depth": 4,
                                                        "id": 13,
                                                        "order": 13
                                                    }
                                                ],
                                                "depth": 3,
                                                "id": 12,
                                                "order": 12
                                            },
                                            {
                                                "children": [
                                                    {
                                                        "children": [
                                                            {
                                                                "children": [],
                                                                "depth": 5,
                                                                "id": 18,
                                                                "order": 18
                                                            }
                                                        ],
                                                        "depth": 4,
                                                        "id": 17,
                                                        "order": 17
                                                    }
                                                ],
                                                "depth": 3,
                                                "id": 16,
                                                "order": 16
                                            },
                                            {
                                                "children": [
                                                    {
                                                        "children": [
                                                            {
                                                                "children": [
                                                                    {
                                                                        "children": [],
                                                                        "depth": 6,
                                                                        "id": 22,
                                                                        "order": 22
                                                                    }
                                                                ],
                                                                "depth": 5,
                                                                "id": 21,
                                                                "order": 21
                                                            }
                                                        ],
                                                        "depth": 4,
                                                        "id": 20,
                                                        "order": 20
                                                    }
                                                ],
                                                "depth": 3,
                                                "id": 19,
                                                "order": 19
                                            },
                                            {
                                                "children": [],
                                                "depth": 3,
                                                "id": 23,
                                                "order": 23
                                            },
                                            {
                                                "children": [],
                                                "depth": 3,
                                                "id": 24,
                                                "order": 24
                                            }
                                        ],
                                        "depth": 2,
                                        "id": 5,
                                        "order": 5
                                    },
                                    {
                                        "children": [],
                                        "depth": 2,
                                        "id": 25,
                                        "order": 25
                                    },
                                    {
                                        "children": [],
                                        "depth": 2,
                                        "id": 26,
                                        "order": 26
                                    }
                                ],
                                "depth": 1,
                                "id": 4,
                                "order": 4
                            },
                            {
                                "children": [],
                                "depth": 1,
                                "id": 27,
                                "order": 27
                            }
                        ],
                        "depth": 0,
                        "id": 0,
                        "order": 0
                    }
                ],
                "depth": -1,
                "id": -1,
                "order": -1
            }
        ],
        "mainTraceNodeCount": 28,
        "parentIdMap": {
            "0": -1,
            "1": 0,
            "10": 9,
            "11": 5,
            "12": 5,
            "13": 12,
            "14": 13,
            "15": 14,
            "16": 5,
            "17": 16,
            "18": 17,
            "19": 5,
            "2": 1,
            "20": 19,
            "21": 20,
            "22": 21,
            "23": 5,
            "24": 5,
            "25": 4,
            "26": 4,
            "27": 0,
            "3": 1,
            "4": 0,
            "5": 4,
            "6": 5,
            "7": 6,
            "8": 7,
            "9": 8
        },
        "tidyTrace": [
            {
                "children": [
                    {
                        "children": [
                            {
                                "children": [
                                    {
                                        "children": [],
                                        "depth": 2,
                                        "id": 2,
                                        "order": 2
                                    },
                                    {
                                        "children": [],
                                        "depth": 2,
                                        "id": 3,
                                        "order": 3
                                    }
                                ],
                                "depth": 1,
                                "id": 1,
                                "order": 1
                            },
                            {
                                "children": [
                                    {
                                        "children": [
                                            {
                                                "children": [
                                                    {
                                                        "children": [
                                                            {
                                                                "children": [
                                                                    {
                                                                        "children": [
                                                                            {
                                                                                "children": [],
                                                                                "depth": 7,
                                                                                "id": 10,
                                                                                "order": 10
                                                                            }
                                                                        ],
                                                                        "depth": 6,
                                                                        "id": 9,
                                                                        "order": 9
                                                                    }
                                                                ],
                                                                "depth": 5,
                                                                "id": 8,
                                                                "order": 8
                                                            }
                                                        ],
                                                        "depth": 4,
                                                        "id": 7,
                                                        "order": 7
                                                    }
                                                ],
                                                "depth": 3,
                                                "id": 6,
                                                "order": 6
                                            },
                                            {
                                                "children": [],
                                                "depth": 3,
                                                "id": 11,
                                                "order": 11
                                            },
                                            {
                                                "children": [
                                                    {
                                                        "children": [
                                                            {
                                                                "children": [
                                                                    {
                                                                        "children": [],
                                                                        "depth": 6,
                                                                        "id": 15,
                                                                        "order": 15
                                                                    }
                                                                ],
                                                                "depth": 5,
                                                                "id": 14,
                                                                "order": 14
                                                            }
                                                        ],
                                                        "depth": 4,
                                                        "id": 13,
                                                        "order": 13
                                                    }
                                                ],
                                                "depth": 3,
                                                "id": 12,
                                                "order": 12
                                            },
                                            {
                                                "children": [
                                                    {
                                                        "children": [
                                                            {
                                                                "children": [],
                                                                "depth": 5,
                                                                "id": 18,
                                                                "order": 18
                                                            }
                                                        ],
                                                        "depth": 4,
                                                        "id": 17,
                                                        "order": 17
                                                    }
                                                ],
                                                "depth": 3,
                                                "id": 16,
                                                "order": 16
                                            },
                                            {
                                                "children": [
                                                    {
                                                        "children": [
                                                            {
                                                                "children": [
                                                                    {
                                                                        "children": [],
                                                                        "depth": 6,
                                                                        "id": 22,
                                                                        "order": 22
                                                                    }
                                                                ],
                                                                "depth": 5,
                                                                "id": 21,
                                                                "order": 21
                                                            }
                                                        ],
                                                        "depth": 4,
                                                        "id": 20,
                                                        "order": 20
                                                    }
                                                ],
                                                "depth": 3,
                                                "id": 19,
                                                "order": 19
                                            },
                                            {
                                                "children": [],
                                                "depth": 3,
                                                "id": 23,
                                                "order": 23
                                            },
                                            {
                                                "children": [],
                                                "depth": 3,
                                                "id": 24,
                                                "order": 24
                                            }
                                        ],
                                        "depth": 2,
                                        "id": 5,
                                        "order": 5
                                    },
                                    {
                                        "children": [],
                                        "depth": 2,
                                        "id": 25,
                                        "order": 25
                                    },
                                    {
                                        "children": [],
                                        "depth": 2,
                                        "id": 26,
                                        "order": 26
                                    }
                                ],
                                "depth": 1,
                                "id": 4,
                                "order": 4
                            },
                            {
                                "children": [],
                                "depth": 1,
                                "id": 27,
                                "order": 27
                            }
                        ],
                        "depth": 0,
                        "id": 0,
                        "order": 0
                    }
                ],
                "depth": -1,
                "id": -1,
                "order": -1
            }
        ],
        "tidyTraceNodeCount": 28
    },
    "state_change": {
        "stateChanges": [
            {
                "address": "0x1a44076050125825900e736c501f859c50fe728c",
                "erc": "",
                "slots": [
                    {
                        "current": "0x00000000000000000000000000000000000000000000000000000000000006ae",
                        "key": "0x580e592798f234a351c2cd7e29dbf4a2dc5e8f4ce164d06be4f46f3d84826c5d",
                        "prev": "0x00000000000000000000000000000000000000000000000000000000000006ad"
                    }
                ],
                "storageVariables": [
                    {
                        "name": "outboundNonce",
                        "type": "mapping(address => mapping(uint32 => mapping(bytes32 => uint64)))",
                        "value": {
                            "pairs": [
                                {
                                    "key": "0x5a13efe4b784e72b685cc4f41826b35ac359d464",
                                    "value": {
                                        "pairs": [
                                            {
                                                "key": "30243",
                                                "value": {
                                                    "pairs": [
                                                        {
                                                            "key": "0x000000000000000000000000b5a86030b64afaa75c42c0d28f8d5ce5f9f61401",
                                                            "value": {
                                                                "current": "1710",
                                                                "prev": "1709",
                                                                "typeTag": 1
                                                            }
                                                        }
                                                    ],
                                                    "typeTag": 4
                                                }
                                            }
                                        ],
                                        "typeTag": 4
                                    }
                                }
                            ],
                            "typeTag": 4
                        }
                    }
                ]
            },
            {
                "address": "0x8355dbe8b0e275abad27eb843f3eaf3fc855e525",
                "erc": "ERC-20",
                "slots": [
                    {
                        "current": "0x0000000000000000000000000000000000000000000000000a7d56e3b8f31c24",
                        "key": "0x2cdc2a931a204a6df8782908c9173bf0823a74b650196c1c58189b85f500b3dd",
                        "prev": "0x0000000000000000000000000000000000000000000045823cf2d65828a71c24"
                    },
                    {
                        "current": "0x00000000000000000000000000000000000000000268d67737c10fa714790000",
                        "key": "0x44b0ead3cd9f8bf0190311f734dc1795e3552a8e148ec68b85ef0af375f226cd",
                        "prev": "0x0000000000000000000000000000000000000000026890f5054b9032a4c50000"
                    },
                    {
                        "current": "0x0000000000000000000000000000000000000000204d912f836aeedb22d80000",
                        "key": "0xaf8d7d7aecbc14efa1225158cabb8d56626b3f494d6727266559d6962639c250",
                        "prev": "0x0000000000000000000000000000000000000000204dd6b1b5e06e4f928c0000"
                    }
                ],
                "storageVariables": [
                    {
                        "name": "_balances",
                        "type": "mapping(address => uint256)",
                        "value": {
                            "pairs": [
                                {
                                    "key": "0x0865ef935247eb8cd43d655e7989615d8c61f7c8",
                                    "value": {
                                        "current": "755855848528616484",
                                        "prev": "328245755855848528616484",
                                        "typeTag": 1
                                    }
                                },
                                {
                                    "key": "0x5a13efe4b784e72b685cc4f41826b35ac359d464",
                                    "value": {
                                        "current": "745711090490000000000000000",
                                        "prev": "745382845490000000000000000",
                                        "typeTag": 1
                                    }
                                }
                            ],
                            "typeTag": 4
                        }
                    },
                    {
                        "name": "_allowances",
                        "type": "mapping(address => mapping(address => uint256))",
                        "value": {
                            "pairs": [
                                {
                                    "key": "0x0865ef935247eb8cd43d655e7989615d8c61f7c8",
                                    "value": {
                                        "pairs": [
                                            {
                                                "key": "0x5a13efe4b784e72b685cc4f41826b35ac359d464",
                                                "value": {
                                                    "current": "9997293222000000000000000000",
                                                    "prev": "9997621467000000000000000000",
                                                    "typeTag": 1
                                                }
                                            }
                                        ],
                                        "typeTag": 4
                                    }
                                }
                            ],
                            "typeTag": 4
                        }
                    }
                ]
            },
            {
                "address": "0xbb2ea70c9e858123480642cf96acbcce1372dce1",
                "erc": "",
                "slots": [
                    {
                        "current": "0x000000000000000000000000000000000000000000000000036ee00ae2ff0746",
                        "key": "0x380f83a3fb0bc2de9d28adefe45a532758efb0df2564bf5ee951732b9e699855",
                        "prev": "0x000000000000000000000000000000000000000000000000036cb1cfc50d0142"
                    },
                    {
                        "current": "0x00000000000000000000000000000000000000000000000011213898619ba000",
                        "key": "0x1410827946a8c06fa085b254488e22aaf384aeb28c4827559792737a55424c60",
                        "prev": "0x000000000000000000000000000000000000000000000000111ebbf2ee43e000"
                    },
                    {
                        "current": "0x00000000000000000000000000000000000000000000000001d39e892b30d249",
                        "key": "0x278bc11c91e7d1b73f4b7ee50a37309e715d286578f2b001b0f1fedf7583f84e",
                        "prev": "0x00000000000000000000000000000000000000000000000001d19716f2f6b1de"
                    },
                    {
                        "current": "0x0000000000000000000000000000000000000000000000002b1ab7e0a3c4b956",
                        "key": "0xcb1bb8f061556bad91cf49e649358ff9d9995d5e7fffa24c4853a0ea8641077b",
                        "prev": "0x0000000000000000000000000000000000000000000000002b194f534b0882cd"
                    }
                ],
                "storageVariables": [
                    {
                        "name": "fees",
                        "type": "mapping(address => uint256)",
                        "value": {
                            "pairs": [
                                {
                                    "key": "0x173272739bd7aa6e4e214714048a9fe699453059",
                                    "value": {
                                        "current": "3105997068473514326",
                                        "prev": "3105600637208396493",
                                        "typeTag": 1
                                    }
                                },
                                {
                                    "key": "0x589dedbd617e0cbcb916a9223f4d1300c294236b",
                                    "value": {
                                        "current": "247381366914615110",
                                        "prev": "246767585520845122",
                                        "typeTag": 1
                                    }
                                },
                                {
                                    "key": "0x8ddf05f9a5c488b4973897e278b58895bf87cb24",
                                    "value": {
                                        "current": "1234330000000000000",
                                        "prev": "1233630000000000000",
                                        "typeTag": 1
                                    }
                                },
                                {
                                    "key": "0xa59ba433ac34d2927232918ef5b2eaafcf130ba5",
                                    "value": {
                                        "current": "131623126096204361",
                                        "prev": "131051988991783390",
                                        "typeTag": 1
                                    }
                                }
                            ],
                            "typeTag": 4
                        }
                    }
                ]
            }
        ]
    }
}