{
    "balance_change": {
        "balanceChanges": [
            {
                "account": "0x9f050bc566289fe08f9534eb8b5b7437071a85ca",
                "assets": [
                    {
                        "address": "0x4470bb87d77b963a013db939be332f927f2b992e",
                        "amount": "32,825.5685",
                        "iconUrl": "",
                        "isERC1155": false,
                        "isERC721": false,
                        "sign": false,
                        "value": ""
                    }
                ]
            },
            {
                "account": "0xadb2b42f6bd96f5c65920b9ac88619dce4166f94",
                "assets": [
                    {
                        "address": "0x4470bb87d77b963a013db939be332f927f2b992e",
                        "amount": "32,825.5685",
                        "iconUrl": "",
                        "isERC1155": false,
                        "isERC721": false,
                        "sign": true,
                        "value": ""
                    }
                ]
            }
        ]
    },
    "profile": {
        "basic_info": {
            "baseFee": "",
            "blockNumber": 6951986,
            "callData": "0xa9059cbb000000000000000000000000adb2b42f6bd96f5c65920b9ac88619dce4166f94000000000000000000000000000000000000000000000000000000001390c8c5",
            "debugEnable": true,
            "errorInfo": "",
            "eventCount": 1,
            "feeRecipient": "0xea674fdde714fd979de3edf0f56aa9716b898ec8",
            "formatValue": "0",
            "gasLimit": 90000,
            "gasPrice": "31",
            "gasUsed": 23590,
            "intTxnCount": 0,
            "internalRevert": false,
            "internalRevertMessage": "",
            "isContractCreation": false,
            "isFlashloan": false,
            "maxFee": "",
            "nonce": 12832,
            "overwritedBlockNumber": -1,
            "priorityFee": "",
            "receiver": "0x4470bb87d77b963a013db939be332f927f2b992e",
            "revertMessage": "",
            "sender": "0x9f050bc566289fe08f9534eb8b5b7437071a85ca",
            "simulationEnable": true,
            "sourceTxnHash": "0xb1120e40a18e7d5c64336781a7df5715ec96240b8985a2ec93a0d05122eeba92",
            "status": true,
            "timestamp": "2018-12-25T19:29:12Z",
            "transactionFee": "0.00073129",
            "txnHash": "0xb1120e40a18e7d5c64336781a7df5715ec96240b8985a2ec93a0d05122eeba92",
            "txnIndex": 5,
            "type": 0,
            "value": "0"
        },
        "fund_flow": [
            {
                "amount": "32,825.5685",
                "from": "0x9f050bc566289fe08f9534eb8b5b7437071a85ca",
                "id": 1,
                "isERC1155": false,
                "isERC721": false,
                "isReverted": false,
                "order": 1,
                "to": "0xadb2b42f6bd96f5c65920b9ac88619dce4166f94",
                "token": "0x4470bb87d77b963a013db939be332f927f2b992e"
            }
        ],
        "token_infos": [
            {
                "address": "0xc02aaa39b223fe8d0a0e5c4f27ead9083c756cc2",
                "decimals": 18
            },
            {
                "address": "0xeeeeeeeeeeeeeeeeeeeeeeeeeeeeeeeeeeeeeeee",
                "decimals": 18
            },
            {
                "address": "0x4470bb87d77b963a013db939be332f927f2b992e",
                "decimals": 4
            }
        ]
    },
    "address_label": {
        "labels": [
            {
                "address": "0x0000000000000000000000000000000000000002",
                "label": "Precompiled"
            },
            {
                "address": "0x0000000000000000000000000000000000000003",
                "label": "Precompiled"
            },
            {
                "address": "0x0000000000000000000000000000000000000004",
                "label": "Precompiled"
            },
            {
                "address": "0xeeeeeeeeeeeeeeeeeeeeeeeeeeeeeeeeeeeeeeee",
                "label": "Ether"
            },
            {
                "address": "0xadb2b42f6bd96f5c65920b9ac88619dce4166f94",
                "label": "HTX 7"
            },
            {
                "address": "0x4470bb87d77b963a013db939be332f927f2b992e",
                "label": "AdEx: Old Token"
            },
            {
                "address": "0x0000000000000000000000000000000000000001",
                "label": "Precompiled"
            }
        ]
    },
    "trace": {
        "accountLabels": null,
        "dataMap": {
            "-1": {
                "invocation": {
                    "address": "0x9f050bc566289fe08f9534eb8b5b7437071a85ca",
                    "callData": "",
                    "decodedMethod": null,
                    "errorInfo": "",
                    "fromAddress": "",
                    "gasUsed": 0,
                    "id": -1,
                    "methodDecoded": false,
                    "operation": "",
                    "output": "",
                    "revert": false,
                    "revertMessage": "",
                    "selector": "",
                    "status": false,
                    "value": ""
                },
                "nodeType": 0
            },
            "0": {
                "invocation": {
                    "address": "0x4470bb87d77b963a013db939be332f927f2b992e",
                    "callData": "0x000000000000000000000000adb2b42f6bd96f5c65920b9ac88619dce4166f94000000000000000000000000000000000000000000000000000000001390c8c5",
                    "decodedMethod": {
                        "callParams": [
                            {
                                "name": "_to",
                                "type": "address",
                                "value": "0xadb2b42f6bd96f5c65920b9ac88619dce4166f94"
                            },
                            {
                                "decimalAvailable": true,
                                "name": "_value",
                                "type": "uint256",
                                "value": "328,255,685"
                            }
                        ],
                        "constructorArguments": "",
                        "name": "transfer",
                        "returnParams": [],
                        "signature": "transfer(address,uint256)"
                    },
                    "errorInfo": "",
                    "fromAddress": "0x9f050bc566289fe08f9534eb8b5b7437071a85ca",
                    "gasUsed": 23590,
                    "id": 0,
                    "methodDecoded": true,
                    "operation": "CALL",
                    "output": "",
                    "revert": false,
                    "revertMessage": "",
                    "selector": "0xa9059cbb",
                    "status": true,
                    "value": "0"
                },
                "nodeType": 0
            },
            "1": {
                "event": {
                    "contract": "0x4470bb87d77b963a013db939be332f927f2b992e",
                    "decodedLog": {
                        "name": "Transfer",
                        "params": [
                            {
                                "name": "from",
                                "type": "address",
                                "value": "0x9f050bc566289fe08f9534eb8b5b7437071a85ca"
                            },
                            {
                                "name": "to",
                                "type": "address",
                                "value": "0xadb2b42f6bd96f5c65920b9ac88619dce4166f94"
                            },
                            {
                                "decimalAvailable": true,
                                "name": "value",
                                "type": "uint256",
                                "value": "328,255,685"
                            }
                        ],
                        "signature": "Transfer(address,address,uint256)"
                    },
                    "id": 1,
                    "logData": "0x000000000000000000000000000000000000000000000000000000001390c8c5",
                    "logDecoded": true,
                    "operation": "EVENT",
                    "revert": false,
                    "status": true,
                    "topics": [
                        "0xddf252ad1be2c89b69c2b068fc378daa952ba7f163c4a11628f55a4df523b3ef",
                        "0x0000000000000000000000009f050bc566289fe08f9534eb8b5b7437071a85ca",
                        "0x000000000000000000000000adb2b42f6bd96f5c65920b9ac88619dce4166f94"
                    ]
                },
                "nodeType": 1
            }
        },
        "gasFlame": [
            {
                "children": [
                    {
                        "children": [
                            {
                                "children": [],
                                "depth": 0,
                                "name": "Initial Gas",
                                "value": 23064
                            },
                            {
                                "children": [],
                                "depth": 0,
                                "name": "Executed Gas",
                                "value": 15526
                            }
                        ],
                        "depth": -1,
                        "name": "Actual Gas Used",
                        "value": 23590
                    },
                    {
                        "children": [],
                        "depth": -1,
                        "name": "Refunded Gas",
                        "value": 15000
                    }
                ],
                "depth": -2,
                "name": "Total Gas",
                "value": 38590
            }
        ],
        "isConfirmed": true,
        "mainTrace": [
            {
                "children": [
                    {
                        "children": [
                            {
                                "children": [],
                                "depth": 1,
                                "id": 1,
                                "order": 1
                            }
                        ],
                        "depth": 0,
                        "id": 0,
                        "order": 0
                    }
                ],
                "depth": -1,
                "id": -1,
                "order": -1
            }
        ],
        "mainTraceNodeCount": 2,
        "parentIdMap": {
            "0": -1,
            "1": 0
        },
        "tidyTrace": [
            {
                "children": [
                    {
                        "children": [
                            {
                                "children": [],
                                "depth": 1,
                                "id": 1,
                                "order": 1
                            }
                        ],
                        "depth": 0,
                        "id": 0,
                        "order": 0
                    }
                ],
                "depth": -1,
                "id": -1,
                "order": -1
            }
        ],
        "tidyTraceNodeCount": 2
    },
    "state_change": {
        "stateChanges": [
            {
                "address": "0x4470bb87d77b963a013db939be332f927f2b992e",
                "erc": "ERC-20",
                "slots": [
                    {
                        "current": "0x00000000000000000000000000000000000000000000000000000002f6f3aa38",
                        "key": "0x9850bc9c2d0efb16894323dd542911062bd100f1bcb831a2723358afbb4e74a6",
                        "prev": "0x00000000000000000000000000000000000000000000000000000002e362e173"
                    },
                    {
                        "current": "0x0000000000000000000000000000000000000000000000000000000000000000",
                        "key": "0x5836ad57973448f00640495223e33ec90156f6779eb60f8558ae7a4208da60a9",
                        "prev": "0x000000000000000000000000000000000000000000000000000000001390c8c5"
                    }
                ],
                "storageVariables": []
            }
        ]
    }
}