{
    "balance_change": {
        "balanceChanges": [
            {
                "account": "0x5c599d8f3303637d4ad48533fd5cc552106a54b6",
                "assets": [
                    {
                        "address": "0xc36cf0cfcb5d905b8b513860db0cfe63f6cf9f5c",
                        "amount": "4",
                        "iconUrl": "",
                        "isERC1155": true,
                        "isERC721": false,
                        "sign": false,
                        "tokenID": "260656293061438863012944949292734449975296",
                        "value": ""
                    }
                ]
            },
            {
                "account": "0x338be3d8d0209815601e72f7a04ac7f37d61564b",
                "assets": [
                    {
                        "address": "0xc36cf0cfcb5d905b8b513860db0cfe63f6cf9f5c",
                        "amount": "4",
                        "iconUrl": "",
                        "isERC1155": true,
                        "isERC721": false,
                        "sign": true,
                        "tokenID": "260656293061438863012944949292734449975296",
                        "value": ""
                    }
                ]
            }
        ]
    },
    "profile": {
        "basic_info": {
            "baseFee": "33.076205292",
            "blockNumber": 14544269,
            "callData": "0xf242432a0000000000000000000000005c599d8f3303637d4ad48533fd5cc552106a54b6000000000000000000000000338be3d8d0209815601e72f7a04ac7f37d61564b000000000000000000000000000002fe00000000000000000000000000000000000000000000000000000000000000000000000000000000000000000000000400000000000000000000000000000000000000000000000000000000000000a000000000000000000000000000000000000000000000000000000000000000010000000000000000000000000000000000000000000000000000000000000000",
            "debugEnable": true,
            "errorInfo": "",
            "eventCount": 3,
            "feeRecipient": "0x829bd824b016326a401d083b33d092293333a830",
            "formatValue": "0",
            "gasLimit": 176611,
            "gasPrice": "34.576205292",
            "gasUsed": 169830,
            "intTxnCount": 2,
            "internalRevert": false,
            "internalRevertMessage": "",
            "isContractCreation": false,
            "isFlashloan": false,
            "maxFee": "40.870710492",
            "nonce": 15,
            "overwritedBlockNumber": -1,
            "priorityFee": "1.5",
            "receiver": "0xc36cf0cfcb5d905b8b513860db0cfe63f6cf9f5c",
            "revertMessage": "",
            "sender": "0x5c599d8f3303637d4ad48533fd5cc552106a54b6",
            "simulationEnable": true,
            "sourceTxnHash": "0xb2cbf9732682117ca2b33cad92e666e856ee22e9cf03c52f556cc4a44dbce968",
            "status": true,
            "timestamp": "2022-04-08T09:16:18Z",
            "transactionFee": "0.00587207694474036",
            "txnHash": "0xb2cbf9732682117ca2b33cad92e666e856ee22e9cf03c52f556cc4a44dbce968",
            "txnIndex": 30,
            "type": 2,
            "value": "0"
        },
        "fund_flow": [
            {
                "amount": "4",
                "from": "0x5c599d8f3303637d4ad48533fd5cc552106a54b6",
                "id": 1,
                "isERC1155": true,
                "isERC721": false,
                "isReverted": false,
                "order": 1,
                "to": "0x338be3d8d0209815601e72f7a04ac7f37d61564b",
                "token": "0xc36cf0cfcb5d905b8b513860db0cfe63f6cf9f5c",
                "tokenID": "260656293061438863012944949292734449975296"
            }
        ],
        "token_infos": [
            {
                "address": "0xc02aaa39b223fe8d0a0e5c4f27ead9083c756cc2",
                "decimals": 18
            },
            {
                "address": "0xeeeeeeeeeeeeeeeeeeeeeeeeeeeeeeeeeeeeeeee",
                "decimals": 18
            }
        ]
    },
    "address_label": {
        "labels": [
            {
                "address": "0x0000000000000000000000000000000000000003",
                "label": "Precompiled"
            },
            {
                "address": "0x0000000000000000000000000000000000000004",
                "label": "Precompiled"
            },
            {
                "address": "0xeeeeeeeeeeeeeeeeeeeeeeeeeeeeeeeeeeeeeeee",
                "label": "Ether"
            },
            {
                "address": "0x271682deb8c4e0901d1a1550ad2e64d568e69909",
                "label": "Chainlink: VRF Coordinator V2"
            },
            {
                "address": "0x338be3d8d0209815601e72f7a04ac7f37d61564b",
                "label": "VOX Series 3: VOX Token"
            },
            {
                "address": "0xc36cf0cfcb5d905b8b513860db0cfe63f6cf9f5c",
                "label": "Town Star: Token"
            },
            {
                "address": "0x0000000000000000000000000000000000000001",
                "label": "Precompiled"
            },
            {
                "address": "0x0000000000000000000000000000000000000002",
                "label": "Precompiled"
            }
        ]
    },
    "trace": {
        "accountLabels": null,
        "dataMap": {
            "-1": {
                "invocation": {
                    "address": "0x5c599d8f3303637d4ad48533fd5cc552106a54b6",
                    "callData": "",
                    "decodedMethod": null,
                    "errorInfo": "",
                    "fromAddress": "",
                    "gasUsed": 0,
                    "id": -1,
                    "methodDecoded": false,
                    "operation": "",
                    "output": "",
                    "revert": false,
                    "revertMessage": "",
                    "selector": "",
                    "status": false,
                    "value": ""
                },
                "nodeType": 0
            },
            "0": {
                "invocation": {
                    "address": "0xc36cf0cfcb5d905b8b513860db0cfe63f6cf9f5c",
                    "callData": "0x0000000000000000000000005c599d8f3303637d4ad48533fd5cc552106a54b6000000000000000000000000338be3d8d0209815601e72f7a04ac7f37d61564b000000000000000000000000000002fe00000000000000000000000000000000000000000000000000000000000000000000000000000000000000000000000400000000000000000000000000000000000000000000000000000000000000a000000000000000000000000000000000000000000000000000000000000000010000000000000000000000000000000000000000000000000000000000000000",
                    "decodedMethod": {
                        "callParams": [
                            {
                                "name": "_from",
                                "type": "address",
                                "value": "0x5c599d8f3303637d4ad48533fd5cc552106a54b6"
                            },
                            {
                                "name": "_to",
                                "type": "address",
                                "value": "0x338be3d8d0209815601e72f7a04ac7f37d61564b"
                            },
                            {
                                "name": "_id",
                                "type": "uint256",
                                "value": "260,656,293,061,438,863,012,944,949,292,734,449,975,296"
                            },
                            {
                                "name": "_value",
                                "type": "uint256",
                                "value": "4"
                            },
                            {
                                "name": "_data",
                                "type": "bytes",
                                "value": "0x00"
                            }
                        ],
                        "constructorArguments": "",
                        "name": "safeTransferFrom",
                        "returnParams": [],
                        "signature": "safeTransferFrom(address,address,uint256,uint256,bytes)"
                    },
                    "errorInfo": "",
                    "fromAddress": "0x5c599d8f3303637d4ad48533fd5cc552106a54b6",
                    "gasUsed": 169830,
                    "id": 0,
                    "methodDecoded": true,
                    "operation": "CALL",
                    "output": "",
                    "revert": false,
                    "revertMessage": "",
                    "selector": "0xf242432a",
                    "status": true,
                    "value": "0"
                },
                "nodeType": 0
            },
            "1": {
                "event": {
                    "contract": "0xc36cf0cfcb5d905b8b513860db0cfe63f6cf9f5c",
                    "decodedLog": {
                        "name": "TransferSingle",
                        "params": [
                            {
                                "name": "_operator",
                                "type": "address",
                                "value": "0x5c599d8f3303637d4ad48533fd5cc552106a54b6"
                            },
                            {
                                "name": "_from",
                                "type": "address",
                                "value": "0x5c599d8f3303637d4ad48533fd5cc552106a54b6"
                            },
                            {
                                "name": "_to",
                                "type": "address",
                                "value": "0x338be3d8d0209815601e72f7a04ac7f37d61564b"
                            },
                            {
                                "name": "_id",
                                "type": "uint256",
                                "value": "260,656,293,061,438,863,012,944,949,292,734,449,975,296"
                            },
                            {
                                "name": "_value",
                                "type": "uint256",
                                "value": "4"
                            }
                        ],
                        "signature": "TransferSingle(address,address,address,uint256,uint256)"
                    },
                    "id": 1,
                    "logData": "0x000000000000000000000000000002fe000000000000000000000000000000000000000000000000000000000000000000000000000000000000000000000004",
                    "logDecoded": true,
                    "operation": "EVENT",
                    "revert": false,
                    "status": true,
                    "topics": [
                        "0xc3d58168c5ae7397731d063d5bbf3d657854427343f4c083240f7aacaa2d0f62",
                        "0x0000000000000000000000005c599d8f3303637d4ad48533fd5cc552106a54b6",
                        "0x0000000000000000000000005c599d8f3303637d4ad48533fd5cc552106a54b6",
                        "0x000000000000000000000000338be3d8d0209815601e72f7a04ac7f37d61564b"
                    ]
                },
                "nodeType": 1
            },
            "2": {
                "invocation": {
                    "address": "0x338be3d8d0209815601e72f7a04ac7f37d61564b",
                    "callData": "0x0000000000000000000000005c599d8f3303637d4ad48533fd5cc552106a54b60000000000000000000000005c599d8f3303637d4ad48533fd5cc552106a54b6000000000000000000000000000002fe00000000000000000000000000000000000000000000000000000000000000000000000000000000000000000000000400000000000000000000000000000000000000000000000000000000000000a000000000000000000000000000000000000000000000000000000000000000010000000000000000000000000000000000000000000000000000000000000000",
                    "decodedMethod": {
                        "callParams": [
                            {
                                "name": "",
                                "type": "address",
                                "value": "0x5c599d8f3303637d4ad48533fd5cc552106a54b6"
                            },
                            {
                                "name": "from",
                                "type": "address",
                                "value": "0x5c599d8f3303637d4ad48533fd5cc552106a54b6"
                            },
                            {
                                "name": "id",
                                "type": "uint256",
                                "value": "260,656,293,061,438,863,012,944,949,292,734,449,975,296"
                            },
                            {
                                "name": "value",
                                "type": "uint256",
                                "value": "4"
                            },
                            {
                                "name": "",
                                "type": "bytes",
                                "value": "0x00"
                            }
                        ],
                        "constructorArguments": "",
                        "name": "onERC1155Received",
                        "returnParams": [
                            {
                                "name": "",
                                "type": "bytes4",
                                "value": "0xf23a6e61"
                            }
                        ],
                        "signature": "onERC1155Received(address,address,uint256,uint256,bytes)"
                    },
                    "errorInfo": "",
                    "fromAddress": "0xc36cf0cfcb5d905b8b513860db0cfe63f6cf9f5c",
                    "gasUsed": 134275,
                    "id": 2,
                    "methodDecoded": true,
                    "operation": "CALL",
                    "output": "0xf23a6e6100000000000000000000000000000000000000000000000000000000",
                    "revert": false,
                    "revertMessage": "",
                    "selector": "0xf23a6e61",
                    "status": true,
                    "value": "0"
                },
                "nodeType": 0
            },
            "3": {
                "invocation": {
                    "address": "0x271682deb8c4e0901d1a1550ad2e64d568e69909",
                    "callData": "0x9fe0eebf5e446e3c998ec9bb19951541aee00bb90ea201ae456421a2ded86805000000000000000000000000000000000000000000000000000000000000001d000000000000000000000000000000000000000000000000000000000000000300000000000000000000000000000000000000000000000000000000002625a00000000000000000000000000000000000000000000000000000000000000004",
                    "decodedMethod": {
                        "callParams": [
                            {
                                "name": "keyHash",
                                "type": "bytes32",
                                "value": "0x9fe0eebf5e446e3c998ec9bb19951541aee00bb90ea201ae456421a2ded86805"
                            },
                            {
                                "name": "subId",
                                "type": "uint64",
                                "value": "29"
                            },
                            {
                                "name": "requestConfirmations",
                                "type": "uint16",
                                "value": "3"
                            },
                            {
                                "name": "callbackGasLimit",
                                "type": "uint32",
                                "value": "2,500,000"
                            },
                            {
                                "name": "numWords",
                                "type": "uint32",
                                "value": "4"
                            }
                        ],
                        "constructorArguments": "",
                        "name": "requestRandomWords",
                        "returnParams": [
                            {
                                "name": "",
                                "type": "uint256",
                                "value": "73,706,385,727,580,949,554,808,992,019,908,915,755,919,022,625,589,993,664,409,087,385,343,858,781,641"
                            }
                        ],
                        "signature": "requestRandomWords(bytes32,uint64,uint16,uint32,uint32)"
                    },
                    "errorInfo": "",
                    "fromAddress": "0x338be3d8d0209815601e72f7a04ac7f37d61564b",
                    "gasUsed": 37210,
                    "id": 3,
                    "methodDecoded": true,
                    "operation": "CALL",
                    "output": "0xa2f45600db591937771979613034f2779351c18adf783f18a60e3a53420b2dc9",
                    "revert": false,
                    "revertMessage": "",
                    "selector": "0x5d3b1d30",
                    "status": true,
                    "value": "0"
                },
                "nodeType": 0
            },
            "4": {
                "event": {
                    "contract": "0x271682deb8c4e0901d1a1550ad2e64d568e69909",
                    "decodedLog": {
                        "name": "RandomWordsRequested",
                        "params": [
                            {
                                "name": "keyHash",
                                "type": "bytes32",
                                "value": "0x9fe0eebf5e446e3c998ec9bb19951541aee00bb90ea201ae456421a2ded86805"
                            },
                            {
                                "name": "subId",
                                "type": "uint64",
                                "value": "29"
                            },
                            {
                                "name": "sender",
                                "type": "address",
                                "value": "0x338be3d8d0209815601e72f7a04ac7f37d61564b"
                            },
                            {
                                "name": "requestId",
                                "type": "uint256",
                                "value": "73,706,385,727,580,949,554,808,992,019,908,915,755,919,022,625,589,993,664,409,087,385,343,858,781,641"
                            },
                            {
                                "name": "preSeed",
                                "type": "uint256",
                                "value": "53,481,186,033,789,410,160,152,292,164,162,136,819,697,880,363,879,942,432,581,302,934,872,443,224,643"
                            },
                            {
                                "name": "minimumRequestConfirmations",
                                "type": "uint16",
                                "value": "3"
                            },
                            {
                                "name": "callbackGasLimit",
                                "type": "uint32",
                                "value": "2,500,000"
                            },
                            {
                                "name": "numWords",
                                "type": "uint32",
                                "value": "4"
                            }
                        ],
                        "signature": "RandomWordsRequested(bytes32,uint256,uint256,uint64,uint16,uint32,uint32,address)"
                    },
                    "id": 4,
                    "logData": "0xa2f45600db591937771979613034f2779351c18adf783f18a60e3a53420b2dc9763d4751d36e1dbf32b2b829f669f1ded3908125af25ab8481e3006bb0028243000000000000000000000000000000000000000000000000000000000000000300000000000000000000000000000000000000000000000000000000002625a00000000000000000000000000000000000000000000000000000000000000004",
                    "logDecoded": true,
                    "operation": "EVENT",
                    "revert": false,
                    "status": true,
                    "topics": [
                        "0x63373d1c4696214b898952999c9aaec57dac1ee2723cec59bea6888f489a9772",
                        "0x9fe0eebf5e446e3c998ec9bb19951541aee00bb90ea201ae456421a2ded86805",
                        "0x000000000000000000000000000000000000000000000000000000000000001d",
                        "0x000000000000000000000000338be3d8d0209815601e72f7a04ac7f37d61564b"
                    ]
                },
                "nodeType": 1
            },
            "5": {
                "event": {
                    "contract": "0x338be3d8d0209815601e72f7a04ac7f37d61564b",
                    "decodedLog": {
                        "name": "onERC1155ReceivedExecuted",
                        "params": [
                            {
                                "name": "requestId",
                                "type": "uint256",
                                "value": "73,706,385,727,580,949,554,808,992,019,908,915,755,919,022,625,589,993,664,409,087,385,343,858,781,641"
                            },
                            {
                                "name": "from",
                                "type": "address",
                                "value": "0x5c599d8f3303637d4ad48533fd5cc552106a54b6"
                            },
                            {
                                "name": "value",
                                "type": "uint256",
                                "value": "4"
                            }
                        ],
                        "signature": "onERC1155ReceivedExecuted(uint256,address,uint256)"
                    },
                    "id": 5,
                    "logData": "0xa2f45600db591937771979613034f2779351c18adf783f18a60e3a53420b2dc90000000000000000000000005c599d8f3303637d4ad48533fd5cc552106a54b60000000000000000000000000000000000000000000000000000000000000004",
                    "logDecoded": true,
                    "operation": "EVENT",
                    "revert": false,
                    "status": true,
                    "topics": [
                        "0x6e67d52a6deec37ea0760af8c17d9a6c94f902dc418444a34b4ceaef124449e3"
                    ]
                },
                "nodeType": 1
            }
        },
        "gasFlame": [
            {
                "children": [
                    {
                        "children": [
                            {
                                "children": [],
                                "depth": 0,
                                "name": "Initial Gas",
                                "value": 22500
                            },
                            {
                                "children": [
                                    {
                                        "children": [
                                            {
                                                "children": [],
                                                "depth": 2,
                                                "name": "requestRandomWords",
                                                "value": 37210
                                            }
                                        ],
                                        "depth": 1,
                                        "name": "onERC1155Received",
                                        "value": 134275
                                    }
                                ],
                                "depth": 0,
                                "name": "Executed Gas",
                                "value": 152130
                            }
                        ],
                        "depth": -1,
                        "name": "Actual Gas Used",
                        "value": 169830
                    },
                    {
                        "children": [],
                        "depth": -1,
                        "name": "Refunded Gas",
                        "value": 4800
                    }
                ],
                "depth": -2,
                "name": "Total Gas",
                "value": 174630
            }
        ],
        "isConfirmed": true,
        "mainTrace": [
            {
                "children": [
                    {
                        "children": [
                            {
                                "children": [],
                                "depth": 1,
                                "id": 1,
                                "order": 1
                            },
                            {
                                "children": [
                                    {
                                        "children": [
                                            {
                                                "children": [],
                                                "depth": 3,
                                                "id": 4,
                                                "order": 4
                                            }
                                        ],
                                        "depth": 2,
                                        "id": 3,
                                        "order": 3
                                    },
                                    {
                                        "children": [],
                                        "depth": 2,
                                        "id": 5,
                                        "order": 5
                                    }
                                ],
                                "depth": 1,
                                "id": 2,
                                "order": 2
                            }
                        ],
                        "depth": 0,
                        "id": 0,
                        "order": 0
                    }
                ],
                "depth": -1,
                "id": -1,
                "order": -1
            }
        ],
        "mainTraceNodeCount": 6,
        "parentIdMap": {
            "0": -1,
            "1": 0,
            "2": 0,
            "3": 2,
            "4": 3,
            "5": 2
        },
        "tidyTrace": [
            {
                "children": [
                    {
                        "children": [
                            {
                                "children": [],
                                "depth": 1,
                                "id": 1,
                                "order": 1
                            },
                            {
                                "children": [
                                    {
                                        "children": [
                                            {
                                                "children": [],
                                                "depth": 3,
                                                "id": 4,
                                                "order": 4
                                            }
                                        ],
                                        "depth": 2,
                                        "id": 3,
                                        "order": 3
                                    },
                                    {
                                        "children": [],
                                        "depth": 2,
                                        "id": 5,
                                        "order": 5
                                    }
                                ],
                                "depth": 1,
                                "id": 2,
                                "order": 2
                            }
                        ],
                        "depth": 0,
                        "id": 0,
                        "order": 0
                    }
                ],
                "depth": -1,
                "id": -1,
                "order": -1
            }
        ],
        "tidyTraceNodeCount": 6
    },
    "state_change": {
        "stateChanges": [
            {
                "address": "0x271682deb8c4e0901d1a1550ad2e64d568e69909",
                "erc": "",
                "slots": [
                    {
                        "current": "0x52a0347db0daebbf80acee61b367043c0b2fa3f91b331b1c8f1bef2777ebbbdd",
                        "key": "0x7c9e72221ebd69d5c6da3ea939ee8fe3f5d2b214abe366bf6d7e33aa6ac1db05",
                        "prev": "0x0000000000000000000000000000000000000000000000000000000000000000"
                    },
                    {
                        "current": "0x0000000000000000000000000000000000000000000000000000000000000cdc",
                        "key": "0x04c61ea68797545fe41309c98beff22b97b8f0bdae942cf6c79b033c3df0967e",
                        "prev": "0x0000000000000000000000000000000000000000000000000000000000000cdb"
                    }
                ],
                "storageVariables": [
                    {
                        "name": "s_consumers",
                        "type": "mapping(address => mapping(uint64 => uint64))",
                        "value": {
                            "pairs": [
                                {
                                    "key": "0x338be3d8d0209815601e72f7a04ac7f37d61564b",
                                    "value": {
                                        "pairs": [
                                            {
                                                "key": "29",
                                                "value": {
                                                    "current": "3292",
                                                    "prev": "3291",
                                                    "typeTag": 1
                                                }
                                            }
                                        ],
                                        "typeTag": 4
                                    }
                                }
                            ],
                            "typeTag": 4
                        }
                    },
                    {
                        "name": "s_requestCommitments",
                        "type": "mapping(uint256 => bytes32)",
                        "value": {
                            "pairs": [
                                {
                                    "key": "73706385727580949554808992019908915755919022625589993664409087385343858781641",
                                    "value": {
                                        "current": "0x52a0347db0daebbf80acee61b367043c0b2fa3f91b331b1c8f1bef2777ebbbdd",
                                        "prev": "0x0000000000000000000000000000000000000000000000000000000000000000",
                                        "typeTag": 1
                                    }
                                }
                            ],
                            "typeTag": 4
                        }
                    }
                ]
            },
            {
                "address": "0x338be3d8d0209815601e72f7a04ac7f37d61564b",
                "erc": "ERC-721",
                "slots": [
                    {
                        "current": "0x0000000000000000000000005c599d8f3303637d4ad48533fd5cc552106a54b6",
                        "key": "0x0f99c4e83532d7abbc0904992204aa2e55baa3219232b7ba069f5c5bb00a0c15",
                        "prev": "0x0000000000000000000000000000000000000000000000000000000000000000"
                    },
                    {
                        "current": "0x0000000000000000000000000000000000000000000000000000000000000004",
                        "key": "0x0f99c4e83532d7abbc0904992204aa2e55baa3219232b7ba069f5c5bb00a0c16",
                        "prev": "0x0000000000000000000000000000000000000000000000000000000000000000"
                    },
                    {
                        "current": "0x0000000000000000000000000000000000000000000000000000000000000004",
                        "key": "0x4ce7c954fc455c3a94c72b9285f7cdfd4fca7923e269af6867d14a6f329cc3dd",
                        "prev": "0x0000000000000000000000000000000000000000000000000000000000000000"
                    },
                    {
                        "current": "0x0000000000000000000000000000000000000000000000000000000000000005",
                        "key": "0x0000000000000000000000000000000000000000000000000000000000000016",
                        "prev": "0x0000000000000000000000000000000000000000000000000000000000000001"
                    }
                ],
                "storageVariables": [
                    {
                        "name": "pendingRequests",
                        "type": "mapping(address => uint32)",
                        "value": {
                            "pairs": [
                                {
                                    "key": "0x5c599d8f3303637d4ad48533fd5cc552106a54b6",
                                    "value": {
                                        "current": "4",
                                        "prev": "0",
                                        "typeTag": 1
                                    }
                                }
                            ],
                            "typeTag": 4
                        }
                    },
                    {
                        "name": "pending",
                        "type": "uint256",
                        "value": {
                            "current": "5",
                            "prev": "1",
                            "typeTag": 1
                        }
                    },
                    {
                        "name": "mintRequests",
                        "type": "mapping(uint256 => struct WalkingDeadVOX.MintRequest)",
                        "value": {
                            "pairs": [
                                {
                                    "key": "73706385727580949554808992019908915755919022625589993664409087385343858781641",
                                    "value": {
                                        "fields": [
                                            {
                                                "name": "beneficiary",
                                                "type": "address",
                                                "value": {
                                                    "current": "0x5c599d8f3303637d4ad48533fd5cc552106a54b6",
                                                    "prev": "0x0000000000000000000000000000000000000000",
                                                    "typeTag": 1
                                                }
                                            },
                                            {
                                                "name": "amount",
                                                "type": "uint256",
                                                "value": {
                                                    "current": "4",
                                                    "prev": "0",
                                                    "typeTag": 1
                                                }
                                            }
                                        ],
                                        "typeTag": 3
                                    }
                                }
                            ],
                            "typeTag": 4
                        }
                    }
                ]
            },
            {
                "address": "0xc36cf0cfcb5d905b8b513860db0cfe63f6cf9f5c",
                "erc": "ERC-1155",
                "slots": [
                    {
                        "current": "0x0000000000000000000000000000000000000000000000000000000000000000",
                        "key": "0x67ccf4fde00b79f0e064e607a96f5170577c0f55a977a4b5e37a5ab3272138d2",
                        "prev": "0x0000000000000000000000000000000000000000000000000000000000000004"
                    },
                    {
                        "current": "0x00000000000000000000000000000000000000000000000000000000000014a9",
                        "key": "0xb721638b2dbfadf852f9800a75e73a9f92b9fb661e9c4d81b006315870c7df8a",
                        "prev": "0x00000000000000000000000000000000000000000000000000000000000014a5"
                    }
                ],
                "storageVariables": [
                    {
                        "name": "balances",
                        "type": "mapping(uint256 => mapping(address => uint256))",
                        "value": {
                            "pairs": [
                                {
                                    "key": "260656293061438863012944949292734449975296",
                                    "value": {
                                        "pairs": [
                                            {
                                                "key": "0x338be3d8d0209815601e72f7a04ac7f37d61564b",
                                                "value": {
                                                    "current": "5289",
                                                    "prev": "5285",
                                                    "typeTag": 1
                                                }
                                            },
                                            {
                                                "key": "0x5c599d8f3303637d4ad48533fd5cc552106a54b6",
                                                "value": {
                                                    "current": "0",
                                                    "prev": "4",
                                                    "typeTag": 1
                                                }
                                            }
                                        ],
                                        "typeTag": 4
                                    }
                                }
                            ],
                            "typeTag": 4
                        }
                    }
                ]
            }
        ]
    }
}