{
    "balance_change": {
        "balanceChanges": [
            {
                "account": "0xdfd66f63fe9f6ced497068768b87834a7eee27c5",
                "assets": [
                    {
                        "address": "0x4a8f44be523580a11cdb20e2c7c470adf44ec9bb",
                        "amount": "50",
                        "iconUrl": "",
                        "isERC1155": false,
                        "isERC721": false,
                        "sign": false,
                        "value": ""
                    }
                ]
            },
            {
                "account": "0x8372623973aa9e64af1e91f838b4efec3bb2aa0e",
                "assets": [
                    {
                        "address": "0x4a8f44be523580a11cdb20e2c7c470adf44ec9bb",
                        "amount": "50",
                        "iconUrl": "",
                        "isERC1155": false,
                        "isERC721": false,
                        "sign": true,
                        "value": ""
                    }
                ]
            }
        ]
    },
    "profile": {
        "basic_info": {
            "baseFee": "",
            "blockNumber": 5827658,
            "callData": "0xa9059cbb0000000000000000000000008372623973aa9e64af1e91f838b4efec3bb2aa0e000000000000000000000000000000000000000000000002b5e3af16b1880000",
            "debugEnable": true,
            "errorInfo": "",
            "eventCount": 1,
            "feeRecipient": "0x5cecd1f7261e1f4c684e297be3edf03b825e01c4",
            "formatValue": "0",
            "gasLimit": 60000,
            "gasPrice": "100",
            "gasUsed": 52389,
            "intTxnCount": 0,
            "internalRevert": false,
            "internalRevertMessage": "",
            "isContractCreation": false,
            "isFlashloan": false,
            "maxFee": "",
            "nonce": 220,
            "overwritedBlockNumber": -1,
            "priorityFee": "",
            "receiver": "0x4a8f44be523580a11cdb20e2c7c470adf44ec9bb",
            "revertMessage": "",
            "sender": "0xdfd66f63fe9f6ced497068768b87834a7eee27c5",
            "simulationEnable": true,
            "sourceTxnHash": "0xb2c9dcbda27b6d2f49fb418ad6642723bd53cfb977a006bfd351864f9f7638c6",
            "status": true,
            "timestamp": "2018-06-21T09:30:26Z",
            "transactionFee": "0.0052389",
            "txnHash": "0xb2c9dcbda27b6d2f49fb418ad6642723bd53cfb977a006bfd351864f9f7638c6",
            "txnIndex": 2,
            "type": 0,
            "value": "0"
        },
        "fund_flow": [
            {
                "amount": "50",
                "from": "0xdfd66f63fe9f6ced497068768b87834a7eee27c5",
                "id": 1,
                "isERC1155": false,
                "isERC721": false,
                "isReverted": false,
                "order": 1,
                "to": "0x8372623973aa9e64af1e91f838b4efec3bb2aa0e",
                "token": "0x4a8f44be523580a11cdb20e2c7c470adf44ec9bb"
            }
        ],
        "token_infos": [
            {
                "address": "0xeeeeeeeeeeeeeeeeeeeeeeeeeeeeeeeeeeeeeeee",
                "decimals": 18
            },
            {
                "address": "0x4a8f44be523580a11cdb20e2c7c470adf44ec9bb",
                "decimals": 18
            },
            {
                "address": "0xc02aaa39b223fe8d0a0e5c4f27ead9083c756cc2",
                "decimals": 18
            }
        ]
    },
    "address_label": {
        "labels": [
            {
                "address": "0xeeeeeeeeeeeeeeeeeeeeeeeeeeeeeeeeeeeeeeee",
                "label": "Ether"
            },
            {
                "address": "0x4a8f44be523580a11cdb20e2c7c470adf44ec9bb",
                "label": "Bit Miner Chain: BTMC Token"
            },
            {
                "address": "0x0000000000000000000000000000000000000001",
                "label": "Precompiled"
            },
            {
                "address": "0x0000000000000000000000000000000000000002",
                "label": "Precompiled"
            },
            {
                "address": "0x0000000000000000000000000000000000000003",
                "label": "Precompiled"
            },
            {
                "address": "0x0000000000000000000000000000000000000004",
                "label": "Precompiled"
            }
        ]
    },
    "trace": {
        "accountLabels": null,
        "dataMap": {
            "-1": {
                "invocation": {
                    "address": "0xdfd66f63fe9f6ced497068768b87834a7eee27c5",
                    "callData": "",
                    "decodedMethod": null,
                    "errorInfo": "",
                    "fromAddress": "",
                    "gasUsed": 0,
                    "id": -1,
                    "methodDecoded": false,
                    "operation": "",
                    "output": "",
                    "revert": false,
                    "revertMessage": "",
                    "selector": "",
                    "status": false,
                    "value": ""
                },
                "nodeType": 0
            },
            "0": {
                "invocation": {
                    "address": "0x4a8f44be523580a11cdb20e2c7c470adf44ec9bb",
                    "callData": "0x0000000000000000000000008372623973aa9e64af1e91f838b4efec3bb2aa0e000000000000000000000000000000000000000000000002b5e3af16b1880000",
                    "decodedMethod": {
                        "callParams": [
                            {
                                "name": "_to",
                                "type": "address",
                                "value": "0x8372623973aa9e64af1e91f838b4efec3bb2aa0e"
                            },
                            {
                                "decimalAvailable": true,
                                "name": "_value",
                                "type": "uint256",
                                "value": "50,000,000,000,000,000,000"
                            }
                        ],
                        "constructorArguments": "",
                        "name": "transfer",
                        "returnParams": [
                            {
                                "name": "",
                                "type": "bool",
                                "value": true
                            }
                        ],
                        "signature": "transfer(address,uint256)"
                    },
                    "errorInfo": "",
                    "fromAddress": "0xdfd66f63fe9f6ced497068768b87834a7eee27c5",
                    "gasUsed": 52389,
                    "id": 0,
                    "methodDecoded": true,
                    "operation": "CALL",
                    "output": "0x0000000000000000000000000000000000000000000000000000000000000001",
                    "revert": false,
                    "revertMessage": "",
                    "selector": "0xa9059cbb",
                    "status": true,
                    "value": "0"
                },
                "nodeType": 0
            },
            "1": {
                "event": {
                    "contract": "0x4a8f44be523580a11cdb20e2c7c470adf44ec9bb",
                    "decodedLog": {
                        "name": "Transfer",
                        "params": [
                            {
                                "name": "from",
                                "type": "address",
                                "value": "0xdfd66f63fe9f6ced497068768b87834a7eee27c5"
                            },
                            {
                                "name": "to",
                                "type": "address",
                                "value": "0x8372623973aa9e64af1e91f838b4efec3bb2aa0e"
                            },
                            {
                                "decimalAvailable": true,
                                "name": "value",
                                "type": "uint256",
                                "value": "50,000,000,000,000,000,000"
                            }
                        ],
                        "signature": "Transfer(address,address,uint256)"
                    },
                    "id": 1,
                    "logData": "0x000000000000000000000000000000000000000000000002b5e3af16b1880000",
                    "logDecoded": true,
                    "operation": "EVENT",
                    "revert": false,
                    "status": true,
                    "topics": [
                        "0xddf252ad1be2c89b69c2b068fc378daa952ba7f163c4a11628f55a4df523b3ef",
                        "0x000000000000000000000000dfd66f63fe9f6ced497068768b87834a7eee27c5",
                        "0x0000000000000000000000008372623973aa9e64af1e91f838b4efec3bb2aa0e"
                    ]
                },
                "nodeType": 1
            }
        },
        "gasFlame": [
            {
                "children": [
                    {
                        "children": [
                            {
                                "children": [],
                                "depth": 0,
                                "name": "Initial Gas",
                                "value": 23256
                            },
                            {
                                "children": [],
                                "depth": 0,
                                "name": "Executed Gas",
                                "value": 29133
                            }
                        ],
                        "depth": -1,
                        "name": "Actual Gas Used",
                        "value": 52389
                    },
                    {
                        "children": [],
                        "depth": -1,
                        "name": "Refunded Gas",
                        "value": 0
                    }
                ],
                "depth": -2,
                "name": "Total Gas",
                "value": 52389
            }
        ],
        "isConfirmed": true,
        "mainTrace": [
            {
                "children": [
                    {
                        "children": [
                            {
                                "children": [],
                                "depth": 1,
                                "id": 1,
                                "order": 1
                            }
                        ],
                        "depth": 0,
                        "id": 0,
                        "order": 0
                    }
                ],
                "depth": -1,
                "id": -1,
                "order": -1
            }
        ],
        "mainTraceNodeCount": 2,
        "parentIdMap": {
            "0": -1,
            "1": 0
        },
        "tidyTrace": [
            {
                "children": [
                    {
                        "children": [
                            {
                                "children": [],
                                "depth": 1,
                                "id": 1,
                                "order": 1
                            }
                        ],
                        "depth": 0,
                        "id": 0,
                        "order": 0
                    }
                ],
                "depth": -1,
                "id": -1,
                "order": -1
            }
        ],
        "tidyTraceNodeCount": 2
    },
    "state_change": {
        "stateChanges": [
            {
                "address": "0x4a8f44be523580a11cdb20e2c7c470adf44ec9bb",
                "erc": "ERC-20",
                "slots": [
                    {
                        "current": "0x0000000000000000000000000000000000000000000000b6255df5f500800000",
                        "key": "0x9ef3c4e784667775004aa224c9cfd0be907d9c3ec0505bf6d1460811bef53d6d",
                        "prev": "0x0000000000000000000000000000000000000000000000b8db41a50bb2080000"
                    },
                    {
                        "current": "0x000000000000000000000000000000000000000000000002b5e3af16b1880000",
                        "key": "0xfad0c12ff4fae9e64a4f90cdcc2dfc00f3a039bbbd86f3a7089f3b299926ba5c",
                        "prev": "0x0000000000000000000000000000000000000000000000000000000000000000"
                    }
                ],
                "storageVariables": [
                    {
                        "name": "balances",
                        "type": "mapping(address => uint256)",
                        "value": {
                            "pairs": [
                                {
                                    "key": "0x8372623973aa9e64af1e91f838b4efec3bb2aa0e",
                                    "value": {
                                        "current": "50000000000000000000",
                                        "prev": "0",
                                        "typeTag": 1
                                    }
                                },
                                {
                                    "key": "0xdfd66f63fe9f6ced497068768b87834a7eee27c5",
                                    "value": {
                                        "current": "3360000000000000000000",
                                        "prev": "3410000000000000000000",
                                        "typeTag": 1
                                    }
                                }
                            ],
                            "typeTag": 4
                        }
                    }
                ]
            }
        ]
    }
}