{
    "balance_change": {
        "balanceChanges": [
            {
                "account": "0xd1669ac6044269b59fa12c5822439f609ca54f41",
                "assets": [
                    {
                        "address": "0x656c00e1bcd96f256f224ad9112ff426ef053733",
                        "amount": "277",
                        "iconUrl": "",
                        "isERC1155": false,
                        "isERC721": false,
                        "sign": false,
                        "value": "339.950766"
                    }
                ]
            },
            {
                "account": "0x25ea43266033552ed3cecf1bbb916fad22da2367",
                "assets": [
                    {
                        "address": "0x656c00e1bcd96f256f224ad9112ff426ef053733",
                        "amount": "277",
                        "iconUrl": "",
                        "isERC1155": false,
                        "isERC721": false,
                        "sign": true,
                        "value": "339.950766"
                    }
                ]
            }
        ]
    },
    "profile": {
        "basic_info": {
            "baseFee": "",
            "blockNumber": 12960774,
            "callData": "0x0dcd7a6c00000000000000000000000025ea43266033552ed3cecf1bbb916fad22da236700000000000000000000000000000000000000000000000f0425b0641f340000000000000000000000000000656c00e1bcd96f256f224ad9112ff426ef053733000000000000000000000000000000000000000000000000000000006114316600000000000000000000000000000000000000000000000000000000000f7c5400000000000000000000000000000000000000000000000000000000000000c0000000000000000000000000000000000000000000000000000000000000004111d3b4f4cd3986d10da282019e7837dda48fbf738dc7c3723f034807cd45229d0b60d28509cff648904637211118c17d8f4abb38cb9fd2ed17116ceb1a2eec421c00000000000000000000000000000000000000000000000000000000000000",
            "debugEnable": true,
            "errorInfo": "",
            "eventCount": 1,
            "feeRecipient": "0x3ecef08d0e2dad803847e052249bb4f8bff2d5bb",
            "formatValue": "0",
            "gasLimit": 195215,
            "gasPrice": "51",
            "gasUsed": 94548,
            "intTxnCount": 3,
            "internalRevert": false,
            "internalRevertMessage": "",
            "isContractCreation": false,
            "isFlashloan": false,
            "maxFee": "",
            "nonce": 967807,
            "overwritedBlockNumber": -1,
            "priorityFee": "",
            "receiver": "0xd1669ac6044269b59fa12c5822439f609ca54f41",
            "revertMessage": "",
            "sender": "0xd2c82f2e5fa236e114a81173e375a73664610998",
            "simulationEnable": true,
            "sourceTxnHash": "0xb27fed999a8e0a773b3f458580c565195866c5d9188c87ce9ace64c26b8de24f",
            "status": true,
            "timestamp": "2021-08-04T20:22:10Z",
            "transactionFee": "0.004821948",
            "txnHash": "0xb27fed999a8e0a773b3f458580c565195866c5d9188c87ce9ace64c26b8de24f",
            "txnIndex": 13,
            "type": 0,
            "value": "0"
        },
        "fund_flow": [
            {
                "amount": "277",
                "from": "0xd1669ac6044269b59fa12c5822439f609ca54f41",
                "id": 1,
                "isERC1155": false,
                "isERC721": false,
                "isReverted": false,
                "order": 1,
                "to": "0x25ea43266033552ed3cecf1bbb916fad22da2367",
                "token": "0x656c00e1bcd96f256f224ad9112ff426ef053733"
            }
        ],
        "token_infos": [
            {
                "address": "0x656c00e1bcd96f256f224ad9112ff426ef053733",
                "decimals": 18
            },
            {
                "address": "0xc02aaa39b223fe8d0a0e5c4f27ead9083c756cc2",
                "decimals": 18
            },
            {
                "address": "0xeeeeeeeeeeeeeeeeeeeeeeeeeeeeeeeeeeeeeeee",
                "decimals": 18
            }
        ]
    },
    "address_label": {
        "labels": [
            {
                "address": "0x4ad0cc4bfa295ecd75ce133cdda89cb09380f185",
                "label": "Efinity Token (EFI)"
            },
            {
                "address": "0xd2c82f2e5fa236e114a81173e375a73664610998",
                "label": "CoinList 3"
            },
            {
                "address": "0x0000000000000000000000000000000000000001",
                "label": "Precompiled"
            },
            {
                "address": "0x0000000000000000000000000000000000000004",
                "label": "Precompiled"
            },
            {
                "address": "0xeeeeeeeeeeeeeeeeeeeeeeeeeeeeeeeeeeeeeeee",
                "label": "Ether"
            },
            {
                "address": "0x656c00e1bcd96f256f224ad9112ff426ef053733",
                "label": "Efinity: EFI Token"
            },
            {
                "address": "0xd1669ac6044269b59fa12c5822439f609ca54f41",
                "label": "CoinList 1"
            },
            {
                "address": "0x0000000000000000000000000000000000000002",
                "label": "Precompiled"
            },
            {
                "address": "0x0000000000000000000000000000000000000003",
                "label": "Precompiled"
            }
        ]
    },
    "trace": {
        "accountLabels": null,
        "dataMap": {
            "-1": {
                "invocation": {
                    "address": "0xd2c82f2e5fa236e114a81173e375a73664610998",
                    "callData": "",
                    "decodedMethod": null,
                    "errorInfo": "",
                    "fromAddress": "",
                    "gasUsed": 0,
                    "id": -1,
                    "methodDecoded": false,
                    "operation": "",
                    "output": "",
                    "revert": false,
                    "revertMessage": "",
                    "selector": "",
                    "status": false,
                    "value": ""
                },
                "nodeType": 0
            },
            "0": {
                "invocation": {
                    "address": "0xd1669ac6044269b59fa12c5822439f609ca54f41",
                    "callData": "0x00000000000000000000000025ea43266033552ed3cecf1bbb916fad22da236700000000000000000000000000000000000000000000000f0425b0641f340000000000000000000000000000656c00e1bcd96f256f224ad9112ff426ef053733000000000000000000000000000000000000000000000000000000006114316600000000000000000000000000000000000000000000000000000000000f7c5400000000000000000000000000000000000000000000000000000000000000c0000000000000000000000000000000000000000000000000000000000000004111d3b4f4cd3986d10da282019e7837dda48fbf738dc7c3723f034807cd45229d0b60d28509cff648904637211118c17d8f4abb38cb9fd2ed17116ceb1a2eec421c00000000000000000000000000000000000000000000000000000000000000",
                    "decodedMethod": {
                        "callParams": [
                            {
                                "name": "toAddress",
                                "type": "address",
                                "value": "0x25ea43266033552ed3cecf1bbb916fad22da2367"
                            },
                            {
                                "name": "value",
                                "type": "uint256",
                                "value": "277,000,000,000,000,000,000"
                            },
                            {
                                "name": "tokenContractAddress",
                                "type": "address",
                                "value": "0x656c00e1bcd96f256f224ad9112ff426ef053733"
                            },
                            {
                                "name": "expireTime",
                                "type": "uint256",
                                "value": "1,628,713,318"
                            },
                            {
                                "name": "sequenceId",
                                "type": "uint256",
                                "value": "1,014,868"
                            },
                            {
                                "name": "signature",
                                "type": "bytes",
                                "value": "0x11d3b4f4cd3986d10da282019e7837dda48fbf738dc7c3723f034807cd45229d0b60d28509cff648904637211118c17d8f4abb38cb9fd2ed17116ceb1a2eec421c"
                            }
                        ],
                        "constructorArguments": "",
                        "name": "sendMultiSigToken",
                        "returnParams": [],
                        "signature": "sendMultiSigToken(address,uint256,address,uint256,uint256,bytes)"
                    },
                    "errorInfo": "",
                    "fromAddress": "0xd2c82f2e5fa236e114a81173e375a73664610998",
                    "gasUsed": 94548,
                    "id": 0,
                    "methodDecoded": true,
                    "operation": "CALL",
                    "output": "",
                    "revert": false,
                    "revertMessage": "",
                    "selector": "0x0dcd7a6c",
                    "status": true,
                    "value": "0"
                },
                "nodeType": 0
            },
            "1": {
                "invocation": {
                    "address": "0x0000000000000000000000000000000000000001",
                    "callData": "0x78a80a7de2eb56161a0959765cc9a3beccf0149cadbb31478d7b2c76000000000000000000000000000000000000000000000000000000000000001c11d3b4f4cd3986d10da282019e7837dda48fbf738dc7c3723f034807cd45229d0b60d28509cff648904637211118c17d8f4abb38cb9fd2ed17116ceb1a2eec42",
                    "decodedMethod": {
                        "callParams": [
                            {
                                "name": "hash",
                                "type": "bytes32",
                                "value": "0x05ef6b9778a80a7de2eb56161a0959765cc9a3beccf0149cadbb31478d7b2c76"
                            },
                            {
                                "name": "v",
                                "type": "uint256",
                                "value": "28"
                            },
                            {
                                "name": "r",
                                "type": "bytes32",
                                "value": "0x11d3b4f4cd3986d10da282019e7837dda48fbf738dc7c3723f034807cd45229d"
                            },
                            {
                                "name": "s",
                                "type": "bytes32",
                                "value": "0x0b60d28509cff648904637211118c17d8f4abb38cb9fd2ed17116ceb1a2eec42"
                            }
                        ],
                        "constructorArguments": "",
                        "name": "ecrecover",
                        "returnParams": [
                            {
                                "name": "",
                                "type": "address",
                                "value": "0xb067fee58723af1d5fc03e63ae8c278717f2c83d"
                            }
                        ],
                        "signature": "ecrecover(bytes32,uint256,bytes32,bytes32)"
                    },
                    "errorInfo": "",
                    "fromAddress": "0xd1669ac6044269b59fa12c5822439f609ca54f41",
                    "gasUsed": 3000,
                    "id": 1,
                    "methodDecoded": true,
                    "operation": "CALL",
                    "output": "0x000000000000000000000000b067fee58723af1d5fc03e63ae8c278717f2c83d",
                    "revert": false,
                    "revertMessage": "",
                    "selector": "0x05ef6b97",
                    "status": true,
                    "value": "0"
                },
                "nodeType": 0
            },
            "2": {
                "invocation": {
                    "address": "0x656c00e1bcd96f256f224ad9112ff426ef053733",
                    "callData": "0x00000000000000000000000025ea43266033552ed3cecf1bbb916fad22da236700000000000000000000000000000000000000000000000f0425b0641f340000",
                    "decodedMethod": {
                        "callParams": [
                            {
                                "name": "recipient",
                                "type": "address",
                                "value": "0x25ea43266033552ed3cecf1bbb916fad22da2367"
                            },
                            {
                                "decimalAvailable": true,
                                "name": "amount",
                                "type": "uint256",
                                "value": "277,000,000,000,000,000,000"
                            }
                        ],
                        "constructorArguments": "",
                        "name": "transfer",
                        "returnParams": [
                            {
                                "name": "",
                                "type": "bool",
                                "value": true
                            }
                        ],
                        "signature": "transfer(address,uint256)"
                    },
                    "errorInfo": "",
                    "fromAddress": "0xd1669ac6044269b59fa12c5822439f609ca54f41",
                    "gasUsed": 20180,
                    "id": 2,
                    "methodDecoded": true,
                    "operation": "CALL",
                    "output": "0x0000000000000000000000000000000000000000000000000000000000000001",
                    "revert": false,
                    "revertMessage": "",
                    "selector": "0xa9059cbb",
                    "status": true,
                    "value": "0"
                },
                "nodeType": 0
            },
            "3": {
                "invocation": {
                    "address": "0x4ad0cc4bfa295ecd75ce133cdda89cb09380f185",
                    "callData": "0x00000000000000000000000025ea43266033552ed3cecf1bbb916fad22da236700000000000000000000000000000000000000000000000f0425b0641f340000",
                    "decodedMethod": {
                        "callParams": [
                            {
                                "name": "recipient",
                                "type": "address",
                                "value": "0x25ea43266033552ed3cecf1bbb916fad22da2367"
                            },
                            {
                                "decimalAvailable": true,
                                "name": "amount",
                                "type": "uint256",
                                "value": "277,000,000,000,000,000,000"
                            }
                        ],
                        "constructorArguments": "",
                        "name": "transfer",
                        "returnParams": [
                            {
                                "name": "",
                                "type": "bool",
                                "value": true
                            }
                        ],
                        "signature": "transfer(address,uint256)"
                    },
                    "errorInfo": "",
                    "fromAddress": "0x656c00e1bcd96f256f224ad9112ff426ef053733",
                    "gasUsed": 12934,
                    "id": 3,
                    "methodDecoded": true,
                    "operation": "DELEGATECALL",
                    "output": "0x0000000000000000000000000000000000000000000000000000000000000001",
                    "revert": false,
                    "revertMessage": "",
                    "selector": "0xa9059cbb",
                    "status": true,
                    "value": "0"
                },
                "nodeType": 0
            },
            "4": {
                "event": {
                    "contract": "0x656c00e1bcd96f256f224ad9112ff426ef053733",
                    "decodedLog": {
                        "name": "Transfer",
                        "params": [
                            {
                                "name": "from",
                                "type": "address",
                                "value": "0xd1669ac6044269b59fa12c5822439f609ca54f41"
                            },
                            {
                                "name": "to",
                                "type": "address",
                                "value": "0x25ea43266033552ed3cecf1bbb916fad22da2367"
                            },
                            {
                                "decimalAvailable": true,
                                "name": "value",
                                "type": "uint256",
                                "value": "277,000,000,000,000,000,000"
                            }
                        ],
                        "signature": "Transfer(address,address,uint256)"
                    },
                    "id": 4,
                    "logData": "0x00000000000000000000000000000000000000000000000f0425b0641f340000",
                    "logDecoded": true,
                    "operation": "EVENT",
                    "revert": false,
                    "status": true,
                    "topics": [
                        "0xddf252ad1be2c89b69c2b068fc378daa952ba7f163c4a11628f55a4df523b3ef",
                        "0x000000000000000000000000d1669ac6044269b59fa12c5822439f609ca54f41",
                        "0x00000000000000000000000025ea43266033552ed3cecf1bbb916fad22da2367"
                    ]
                },
                "nodeType": 1
            }
        },
        "gasFlame": [
            {
                "children": [
                    {
                        "children": [
                            {
                                "children": [],
                                "depth": 0,
                                "name": "Initial Gas",
                                "value": 23784
                            },
                            {
                                "children": [
                                    {
                                        "children": [],
                                        "depth": 1,
                                        "name": "ecrecover",
                                        "value": 3000
                                    },
                                    {
                                        "children": [
                                            {
                                                "children": [],
                                                "depth": 2,
                                                "name": "transfer",
                                                "value": 12934
                                            }
                                        ],
                                        "depth": 1,
                                        "name": "transfer",
                                        "value": 20180
                                    }
                                ],
                                "depth": 0,
                                "name": "Executed Gas",
                                "value": 70764
                            }
                        ],
                        "depth": -1,
                        "name": "Actual Gas Used",
                        "value": 94548
                    },
                    {
                        "children": [],
                        "depth": -1,
                        "name": "Refunded Gas",
                        "value": 0
                    }
                ],
                "depth": -2,
                "name": "Total Gas",
                "value": 94548
            }
        ],
        "isConfirmed": true,
        "mainTrace": [
            {
                "children": [
                    {
                        "children": [
                            {
                                "children": [],
                                "depth": 1,
                                "id": 1,
                                "order": 1
                            },
                            {
                                "children": [
                                    {
                                        "children": [
                                            {
                                                "children": [],
                                                "depth": 3,
                                                "id": 4,
                                                "order": 4
                                            }
                                        ],
                                        "depth": 2,
                                        "id": 3,
                                        "order": 3
                                    }
                                ],
                                "depth": 1,
                                "id": 2,
                                "order": 2
                            }
                        ],
                        "depth": 0,
                        "id": 0,
                        "order": 0
                    }
                ],
                "depth": -1,
                "id": -1,
                "order": -1
            }
        ],
        "mainTraceNodeCount": 5,
        "parentIdMap": {
            "0": -1,
            "1": 0,
            "2": 0,
            "3": 2,
            "4": 3
        },
        "tidyTrace": [
            {
                "children": [
                    {
                        "children": [
                            {
                                "children": [],
                                "depth": 1,
                                "id": 1,
                                "order": 1
                            },
                            {
                                "children": [
                                    {
                                        "children": [
                                            {
                                                "children": [],
                                                "depth": 3,
                                                "id": 4,
                                                "order": 4
                                            }
                                        ],
                                        "depth": 2,
                                        "id": 3,
                                        "order": 3
                                    }
                                ],
                                "depth": 1,
                                "id": 2,
                                "order": 2
                            }
                        ],
                        "depth": 0,
                        "id": 0,
                        "order": 0
                    }
                ],
                "depth": -1,
                "id": -1,
                "order": -1
            }
        ],
        "tidyTraceNodeCount": 5
    },
    "state_change": {
        "stateChanges": [
            {
                "address": "0x656c00e1bcd96f256f224ad9112ff426ef053733",
                "erc": "ERC-20",
                "slots": [
                    {
                        "current": "0x00000000000000000000000000000000000000000000001e084b60c83e680000",
                        "key": "0xabcfe231e906ad1c076a0f982cc1689a5eb2e1d4d1cfcf5ea2d1906d3ee3ceca",
                        "prev": "0x00000000000000000000000000000000000000000000000f0425b0641f340000"
                    },
                    {
                        "current": "0x000000000000000000000000000000000000000000091c6cb855688be3e3bb27",
                        "key": "0x38f7d431ac9f49b00d48dad023101f00dd9a9cd161806fbfb0be37c411ad70f6",
                        "prev": "0x000000000000000000000000000000000000000000091c7bbc7b18f00317bb27"
                    }
                ],
                "storageVariables": [
                    {
                        "name": "_balances",
                        "type": "mapping(address => uint256)",
                        "value": {
                            "pairs": [
                                {
                                    "key": "0x25ea43266033552ed3cecf1bbb916fad22da2367",
                                    "value": {
                                        "current": "554000000000000000000",
                                        "prev": "277000000000000000000",
                                        "typeTag": 1
                                    }
                                },
                                {
                                    "key": "0xd1669ac6044269b59fa12c5822439f609ca54f41",
                                    "value": {
                                        "current": "11014564169049599302155047",
                                        "prev": "11014841169049599302155047",
                                        "typeTag": 1
                                    }
                                }
                            ],
                            "typeTag": 4
                        }
                    }
                ]
            },
            {
                "address": "0xd1669ac6044269b59fa12c5822439f609ca54f41",
                "erc": "",
                "slots": [
                    {
                        "current": "0x00000000000000000000000000000000000000000000000000000000000f7c54",
                        "key": "0x0000000000000000000000000000000000000000000000000000000000000005",
                        "prev": "0x00000000000000000000000000000000000000000000000000000000000f7c48"
                    }
                ],
                "storageVariables": []
            }
        ]
    }
}