{
    "balance_change": {
        "balanceChanges": [
            {
                "account": "0xd00e06362b00856a10855730ed1ec4fe7ff8f9cf",
                "assets": [
                    {
                        "address": "0xdac17f958d2ee523a2206206994597c13d831ec7",
                        "amount": "19,908.71",
                        "iconUrl": "https://assets.blocksec.com/icon/fcea71f3193ce895be44bfdf941f7e4c9381dd587f273c2d1a27f1263d84e4ea.png",
                        "isERC1155": false,
                        "isERC721": false,
                        "sign": false,
                        "value": ""
                    }
                ]
            },
            {
                "account": "0xb6d42c3a1772cff8a834102d2d660a474deb483f",
                "assets": [
                    {
                        "address": "0xdac17f958d2ee523a2206206994597c13d831ec7",
                        "amount": "19,908.71",
                        "iconUrl": "https://assets.blocksec.com/icon/fcea71f3193ce895be44bfdf941f7e4c9381dd587f273c2d1a27f1263d84e4ea.png",
                        "isERC1155": false,
                        "isERC721": false,
                        "sign": true,
                        "value": ""
                    }
                ]
            }
        ]
    },
    "profile": {
        "basic_info": {
            "baseFee": "",
            "blockNumber": 10290746,
            "callData": "0xa9059cbb000000000000000000000000b6d42c3a1772cff8a834102d2d660a474deb483f00000000000000000000000000000000000000000000000000000004a2a6ce70",
            "debugEnable": true,
            "errorInfo": "",
            "eventCount": 1,
            "feeRecipient": "0x04668ec2f57cc15c381b461b9fedab5d451c8f7f",
            "formatValue": "0",
            "gasLimit": 60000,
            "gasPrice": "41.000001459",
            "gasUsed": 41221,
            "intTxnCount": 0,
            "internalRevert": false,
            "internalRevertMessage": "",
            "isContractCreation": false,
            "isFlashloan": false,
            "maxFee": "",
            "nonce": 1717,
            "overwritedBlockNumber": -1,
            "priorityFee": "",
            "receiver": "0xdac17f958d2ee523a2206206994597c13d831ec7",
            "revertMessage": "",
            "sender": "0xd00e06362b00856a10855730ed1ec4fe7ff8f9cf",
            "simulationEnable": true,
            "sourceTxnHash": "0xb21c83cdb0ee1bc8d667911ae53a922cef44e9b9f78b68106bb60aa325771f2a",
            "status": true,
            "timestamp": "2020-06-18T16:25:12Z",
            "transactionFee": "0.001690061060141439",
            "txnHash": "0xb21c83cdb0ee1bc8d667911ae53a922cef44e9b9f78b68106bb60aa325771f2a",
            "txnIndex": 107,
            "type": 0,
            "value": "0"
        },
        "fund_flow": [
            {
                "amount": "19,908.71",
                "from": "0xd00e06362b00856a10855730ed1ec4fe7ff8f9cf",
                "id": 1,
                "isERC1155": false,
                "isERC721": false,
                "isReverted": false,
                "order": 1,
                "to": "0xb6d42c3a1772cff8a834102d2d660a474deb483f",
                "token": "0xdac17f958d2ee523a2206206994597c13d831ec7"
            }
        ],
        "token_infos": [
            {
                "address": "0xc02aaa39b223fe8d0a0e5c4f27ead9083c756cc2",
                "decimals": 18
            },
            {
                "address": "0xdac17f958d2ee523a2206206994597c13d831ec7",
                "decimals": 6
            },
            {
                "address": "0xeeeeeeeeeeeeeeeeeeeeeeeeeeeeeeeeeeeeeeee",
                "decimals": 18
            }
        ]
    },
    "address_label": {
        "labels": [
            {
                "address": "0xdac17f958d2ee523a2206206994597c13d831ec7",
                "label": "Tether: USDT Stablecoin"
            },
            {
                "address": "0x0000000000000000000000000000000000000001",
                "label": "Precompiled"
            },
            {
                "address": "0x0000000000000000000000000000000000000002",
                "label": "Precompiled"
            },
            {
                "address": "0x0000000000000000000000000000000000000003",
                "label": "Precompiled"
            },
            {
                "address": "0x0000000000000000000000000000000000000004",
                "label": "Precompiled"
            },
            {
                "address": "0xeeeeeeeeeeeeeeeeeeeeeeeeeeeeeeeeeeeeeeee",
                "label": "Ether"
            }
        ]
    },
    "trace": {
        "accountLabels": null,
        "dataMap": {
            "-1": {
                "invocation": {
                    "address": "0xd00e06362b00856a10855730ed1ec4fe7ff8f9cf",
                    "callData": "",
                    "decodedMethod": null,
                    "errorInfo": "",
                    "fromAddress": "",
                    "gasUsed": 0,
                    "id": -1,
                    "methodDecoded": false,
                    "operation": "",
                    "output": "",
                    "revert": false,
                    "revertMessage": "",
                    "selector": "",
                    "status": false,
                    "value": ""
                },
                "nodeType": 0
            },
            "0": {
                "invocation": {
                    "address": "0xdac17f958d2ee523a2206206994597c13d831ec7",
                    "callData": "0x000000000000000000000000b6d42c3a1772cff8a834102d2d660a474deb483f00000000000000000000000000000000000000000000000000000004a2a6ce70",
                    "decodedMethod": {
                        "callParams": [
                            {
                                "name": "_to",
                                "type": "address",
                                "value": "0xb6d42c3a1772cff8a834102d2d660a474deb483f"
                            },
                            {
                                "decimalAvailable": true,
                                "name": "_value",
                                "type": "uint256",
                                "value": "19,908,710,000"
                            }
                        ],
                        "constructorArguments": "",
                        "name": "transfer",
                        "returnParams": [],
                        "signature": "transfer(address,uint256)"
                    },
                    "errorInfo": "",
                    "fromAddress": "0xd00e06362b00856a10855730ed1ec4fe7ff8f9cf",
                    "gasUsed": 41221,
                    "id": 0,
                    "methodDecoded": true,
                    "operation": "CALL",
                    "output": "",
                    "revert": false,
                    "revertMessage": "",
                    "selector": "0xa9059cbb",
                    "status": true,
                    "value": "0"
                },
                "nodeType": 0
            },
            "1": {
                "event": {
                    "contract": "0xdac17f958d2ee523a2206206994597c13d831ec7",
                    "decodedLog": {
                        "name": "Transfer",
                        "params": [
                            {
                                "name": "from",
                                "type": "address",
                                "value": "0xd00e06362b00856a10855730ed1ec4fe7ff8f9cf"
                            },
                            {
                                "name": "to",
                                "type": "address",
                                "value": "0xb6d42c3a1772cff8a834102d2d660a474deb483f"
                            },
                            {
                                "decimalAvailable": true,
                                "name": "value",
                                "type": "uint256",
                                "value": "19,908,710,000"
                            }
                        ],
                        "signature": "Transfer(address,address,uint256)"
                    },
                    "id": 1,
                    "logData": "0x00000000000000000000000000000000000000000000000000000004a2a6ce70",
                    "logDecoded": true,
                    "operation": "EVENT",
                    "revert": false,
                    "status": true,
                    "topics": [
                        "0xddf252ad1be2c89b69c2b068fc378daa952ba7f163c4a11628f55a4df523b3ef",
                        "0x000000000000000000000000d00e06362b00856a10855730ed1ec4fe7ff8f9cf",
                        "0x000000000000000000000000b6d42c3a1772cff8a834102d2d660a474deb483f"
                    ]
                },
                "nodeType": 1
            }
        },
        "gasFlame": [
            {
                "children": [
                    {
                        "children": [
                            {
                                "children": [],
                                "depth": 0,
                                "name": "Initial Gas",
                                "value": 21620
                            },
                            {
                                "children": [],
                                "depth": 0,
                                "name": "Executed Gas",
                                "value": 19601
                            }
                        ],
                        "depth": -1,
                        "name": "Actual Gas Used",
                        "value": 41221
                    },
                    {
                        "children": [],
                        "depth": -1,
                        "name": "Refunded Gas",
                        "value": 0
                    }
                ],
                "depth": -2,
                "name": "Total Gas",
                "value": 41221
            }
        ],
        "isConfirmed": true,
        "mainTrace": [
            {
                "children": [
                    {
                        "children": [
                            {
                                "children": [],
                                "depth": 1,
                                "id": 1,
                                "order": 1
                            }
                        ],
                        "depth": 0,
                        "id": 0,
                        "order": 0
                    }
                ],
                "depth": -1,
                "id": -1,
                "order": -1
            }
        ],
        "mainTraceNodeCount": 2,
        "parentIdMap": {
            "0": -1,
            "1": 0
        },
        "tidyTrace": [
            {
                "children": [
                    {
                        "children": [
                            {
                                "children": [],
                                "depth": 1,
                                "id": 1,
                                "order": 1
                            }
                        ],
                        "depth": 0,
                        "id": 0,
                        "order": 0
                    }
                ],
                "depth": -1,
                "id": -1,
                "order": -1
            }
        ],
        "tidyTraceNodeCount": 2
    },
    "state_change": {
        "stateChanges": [
            {
                "address": "0xdac17f958d2ee523a2206206994597c13d831ec7",
                "erc": "ERC-20",
                "slots": [
                    {
                        "current": "0x00000000000000000000000000000000000000000000000000000004a2e06251",
                        "key": "0xec7fa6f4f8850dc8067c4f87e755c2338e920a3566496f80b3bf32959fd0bd5f",
                        "prev": "0x00000000000000000000000000000000000000000000000000000000003993e1"
                    },
                    {
                        "current": "0x000000000000000000000000000000000000000000000000000000d44c52595f",
                        "key": "0xd0e83ffcb3126595e2a3fb3b4f70abba9a29e49782a35292949f3fefb8bea276",
                        "prev": "0x000000000000000000000000000000000000000000000000000000d8eef927cf"
                    }
                ],
                "storageVariables": [
                    {
                        "name": "balances",
                        "type": "mapping(address => uint256)",
                        "value": {
                            "pairs": [
                                {
                                    "key": "0xb6d42c3a1772cff8a834102d2d660a474deb483f",
                                    "value": {
                                        "current": "19912483409",
                                        "prev": "3773409",
                                        "typeTag": 1
                                    }
                                },
                                {
                                    "key": "0xd00e06362b00856a10855730ed1ec4fe7ff8f9cf",
                                    "value": {
                                        "current": "911813531999",
                                        "prev": "931722241999",
                                        "typeTag": 1
                                    }
                                }
                            ],
                            "typeTag": 4
                        }
                    }
                ]
            }
        ]
    }
}