{
    "balance_change": {
        "balanceChanges": []
    },
    "profile": {
        "basic_info": {
            "baseFee": "",
            "blockNumber": 4791387,
            "callData": "0x0a19b14a000000000000000000000000bdc5bac39dbe132b1e030e898ae3830017d7d9690000000000000000000000000000000000000000000009bdaa3d398e00c0000000000000000000000000000000000000000000000000000000000000000000000000000000000000000000000000000000000000000000000ff3a8ddafc880000000000000000000000000000000000000000000000000000000000000494347000000000000000000000000000000000000000000000000000000008ac7d119000000000000000000000000711aa89f82141218ddcadd8508ec50eaba321fbf000000000000000000000000000000000000000000000000000000000000001b2d4b44bbfcf79a0560dcd433e98d2d0a4960fedd524afa7bc0d7993ef6a6c8b4017c5d5852c40ff5a1b5600e2e4383655ff6d91b1d7f76b42a4502e35786c33e0000000000000000000000000000000000000000000009bdaa3d398e00c00000",
            "debugEnable": true,
            "errorInfo": "",
            "eventCount": 1,
            "feeRecipient": "0x5a0b54d5dc17e0aadc383d2db43b0a0d3e029c4c",
            "formatValue": "0",
            "gasLimit": 250000,
            "gasPrice": "6",
            "gasUsed": 108114,
            "intTxnCount": 2,
            "internalRevert": false,
            "internalRevertMessage": "",
            "isContractCreation": false,
            "isFlashloan": false,
            "maxFee": "",
            "nonce": 207,
            "overwritedBlockNumber": -1,
            "priorityFee": "",
            "receiver": "0x8d12a197cb00d4747a1fe03395095ce2a5cc6819",
            "revertMessage": "",
            "sender": "0xc3974752f69e2d7efcdd1292132890ac645b03c3",
            "simulationEnable": true,
            "sourceTxnHash": "0xb261730287c8d0e5def399627becacd12df825be3e963b6663000328ee7188b0",
            "status": true,
            "timestamp": "2017-12-25T00:13:00Z",
            "transactionFee": "0.000648684",
            "txnHash": "0xb261730287c8d0e5def399627becacd12df825be3e963b6663000328ee7188b0",
            "txnIndex": 42,
            "type": 0,
            "value": "0"
        },
        "fund_flow": [],
        "token_infos": [
            {
                "address": "0xc02aaa39b223fe8d0a0e5c4f27ead9083c756cc2",
                "decimals": 18
            },
            {
                "address": "0xeeeeeeeeeeeeeeeeeeeeeeeeeeeeeeeeeeeeeeee",
                "decimals": 18
            }
        ]
    },
    "address_label": {
        "labels": [
            {
                "address": "0x0000000000000000000000000000000000000002",
                "label": "Precompiled"
            },
            {
                "address": "0xbdc5bac39dbe132b1e030e898ae3830017d7d969",
                "label": "Snovian.space: SNOV Token"
            },
            {
                "address": "0x0000000000000000000000000000000000000000",
                "label": "Null Address"
            },
            {
                "address": "0x0000000000000000000000000000000000000001",
                "label": "Precompiled"
            },
            {
                "address": "0x0000000000000000000000000000000000000003",
                "label": "Precompiled"
            },
            {
                "address": "0x0000000000000000000000000000000000000004",
                "label": "Precompiled"
            },
            {
                "address": "0xeeeeeeeeeeeeeeeeeeeeeeeeeeeeeeeeeeeeeeee",
                "label": "Ether"
            },
            {
                "address": "0x8d12a197cb00d4747a1fe03395095ce2a5cc6819",
                "label": "EtherDelta"
            }
        ]
    },
    "trace": {
        "accountLabels": null,
        "dataMap": {
            "-1": {
                "invocation": {
                    "address": "0xc3974752f69e2d7efcdd1292132890ac645b03c3",
                    "callData": "",
                    "decodedMethod": null,
                    "errorInfo": "",
                    "fromAddress": "",
                    "gasUsed": 0,
                    "id": -1,
                    "methodDecoded": false,
                    "operation": "",
                    "output": "",
                    "revert": false,
                    "revertMessage": "",
                    "selector": "",
                    "status": false,
                    "value": ""
                },
                "nodeType": 0
            },
            "0": {
                "invocation": {
                    "address": "0x8d12a197cb00d4747a1fe03395095ce2a5cc6819",
                    "callData": "0x000000000000000000000000bdc5bac39dbe132b1e030e898ae3830017d7d9690000000000000000000000000000000000000000000009bdaa3d398e00c0000000000000000000000000000000000000000000000000000000000000000000000000000000000000000000000000000000000000000000000ff3a8ddafc880000000000000000000000000000000000000000000000000000000000000494347000000000000000000000000000000000000000000000000000000008ac7d119000000000000000000000000711aa89f82141218ddcadd8508ec50eaba321fbf000000000000000000000000000000000000000000000000000000000000001b2d4b44bbfcf79a0560dcd433e98d2d0a4960fedd524afa7bc0d7993ef6a6c8b4017c5d5852c40ff5a1b5600e2e4383655ff6d91b1d7f76b42a4502e35786c33e0000000000000000000000000000000000000000000009bdaa3d398e00c00000",
                    "decodedMethod": {
                        "callParams": [
                            {
                                "name": "tokenGet",
                                "type": "address",
                                "value": "0xbdc5bac39dbe132b1e030e898ae3830017d7d969"
                            },
                            {
                                "name": "amountGet",
                                "type": "uint256",
                                "value": "46,000,000,000,000,000,000,000"
                            },
                            {
                                "name": "tokenGive",
                                "type": "address",
                                "value": "0x0000000000000000000000000000000000000000"
                            },
                            {
                                "name": "amountGive",
                                "type": "uint256",
                                "value": "1,149,448,000,000,000,000"
                            },
                            {
                                "name": "expires",
                                "type": "uint256",
                                "value": "4,801,351"
                            },
                            {
                                "name": "nonce",
                                "type": "uint256",
                                "value": "2,328,351,001"
                            },
                            {
                                "name": "user",
                                "type": "address",
                                "value": "0x711aa89f82141218ddcadd8508ec50eaba321fbf"
                            },
                            {
                                "name": "v",
                                "type": "uint8",
                                "value": "27"
                            },
                            {
                                "name": "r",
                                "type": "bytes32",
                                "value": "0x2d4b44bbfcf79a0560dcd433e98d2d0a4960fedd524afa7bc0d7993ef6a6c8b4"
                            },
                            {
                                "name": "s",
                                "type": "bytes32",
                                "value": "0x017c5d5852c40ff5a1b5600e2e4383655ff6d91b1d7f76b42a4502e35786c33e"
                            },
                            {
                                "name": "amount",
                                "type": "uint256",
                                "value": "46,000,000,000,000,000,000,000"
                            }
                        ],
                        "constructorArguments": "",
                        "name": "trade",
                        "returnParams": [],
                        "signature": "trade(address,uint256,address,uint256,uint256,uint256,address,uint8,bytes32,bytes32,uint256)"
                    },
                    "errorInfo": "",
                    "fromAddress": "0xc3974752f69e2d7efcdd1292132890ac645b03c3",
                    "gasUsed": 108114,
                    "id": 0,
                    "methodDecoded": true,
                    "operation": "CALL",
                    "output": "",
                    "revert": false,
                    "revertMessage": "",
                    "selector": "0x0a19b14a",
                    "status": true,
                    "value": "0"
                },
                "nodeType": 0
            },
            "1": {
                "invocation": {
                    "address": "0x0000000000000000000000000000000000000002",
                    "callData": "0xcb00d4747a1fe03395095ce2a5cc6819bdc5bac39dbe132b1e030e898ae3830017d7d9690000000000000000000000000000000000000000000009bdaa3d398e00c0000000000000000000000000000000000000000000000000000000000000000000000000000000000000000000000ff3a8ddafc880000000000000000000000000000000000000000000000000000000000000494347000000000000000000000000000000000000000000000000000000008ac7d119",
                    "decodedMethod": {
                        "callParams": [
                            {
                                "name": "data",
                                "type": "bytes",
                                "value": "0x8d12a197cb00d4747a1fe03395095ce2a5cc6819bdc5bac39dbe132b1e030e898ae3830017d7d9690000000000000000000000000000000000000000000009bdaa3d398e00c0000000000000000000000000000000000000000000000000000000000000000000000000000000000000000000000ff3a8ddafc880000000000000000000000000000000000000000000000000000000000000494347000000000000000000000000000000000000000000000000000000008ac7d119"
                            }
                        ],
                        "constructorArguments": "",
                        "name": "sha256hash",
                        "returnParams": [
                            {
                                "name": "hash",
                                "type": "bytes32",
                                "value": "0x3379f36f8a8e760c3eaa23d1a55a45dfaa37afec813d8942ffafea0c06438298"
                            }
                        ],
                        "signature": "sha256hash(bytes)"
                    },
                    "errorInfo": "",
                    "fromAddress": "0x8d12a197cb00d4747a1fe03395095ce2a5cc6819",
                    "gasUsed": 132,
                    "id": 1,
                    "methodDecoded": true,
                    "operation": "CALL",
                    "output": "0x3379f36f8a8e760c3eaa23d1a55a45dfaa37afec813d8942ffafea0c06438298",
                    "revert": false,
                    "revertMessage": "",
                    "selector": "0x8d12a197",
                    "status": true,
                    "value": "0"
                },
                "nodeType": 0
            },
            "2": {
                "invocation": {
                    "address": "0x0000000000000000000000000000000000000001",
                    "callData": "0x703c9f00a960a0ee5cf49bbc40acb8c4322a0609a80c69bec5e798aa000000000000000000000000000000000000000000000000000000000000001b2d4b44bbfcf79a0560dcd433e98d2d0a4960fedd524afa7bc0d7993ef6a6c8b4017c5d5852c40ff5a1b5600e2e4383655ff6d91b1d7f76b42a4502e35786c33e",
                    "decodedMethod": {
                        "callParams": [
                            {
                                "name": "hash",
                                "type": "bytes32",
                                "value": "0xeedc686f703c9f00a960a0ee5cf49bbc40acb8c4322a0609a80c69bec5e798aa"
                            },
                            {
                                "name": "v",
                                "type": "uint256",
                                "value": "27"
                            },
                            {
                                "name": "r",
                                "type": "bytes32",
                                "value": "0x2d4b44bbfcf79a0560dcd433e98d2d0a4960fedd524afa7bc0d7993ef6a6c8b4"
                            },
                            {
                                "name": "s",
                                "type": "bytes32",
                                "value": "0x017c5d5852c40ff5a1b5600e2e4383655ff6d91b1d7f76b42a4502e35786c33e"
                            }
                        ],
                        "constructorArguments": "",
                        "name": "ecrecover",
                        "returnParams": [
                            {
                                "name": "",
                                "type": "address",
                                "value": "0x711aa89f82141218ddcadd8508ec50eaba321fbf"
                            }
                        ],
                        "signature": "ecrecover(bytes32,uint256,bytes32,bytes32)"
                    },
                    "errorInfo": "",
                    "fromAddress": "0x8d12a197cb00d4747a1fe03395095ce2a5cc6819",
                    "gasUsed": 3000,
                    "id": 2,
                    "methodDecoded": true,
                    "operation": "CALL",
                    "output": "0x000000000000000000000000711aa89f82141218ddcadd8508ec50eaba321fbf",
                    "revert": false,
                    "revertMessage": "",
                    "selector": "0xeedc686f",
                    "status": true,
                    "value": "0"
                },
                "nodeType": 0
            },
            "3": {
                "event": {
                    "contract": "0x8d12a197cb00d4747a1fe03395095ce2a5cc6819",
                    "decodedLog": {
                        "name": "Trade",
                        "params": [
                            {
                                "name": "tokenGet",
                                "type": "address",
                                "value": "0xbdc5bac39dbe132b1e030e898ae3830017d7d969"
                            },
                            {
                                "name": "amountGet",
                                "type": "uint256",
                                "value": "46,000,000,000,000,000,000,000"
                            },
                            {
                                "name": "tokenGive",
                                "type": "address",
                                "value": "0x0000000000000000000000000000000000000000"
                            },
                            {
                                "name": "amountGive",
                                "type": "uint256",
                                "value": "1,149,448,000,000,000,000"
                            },
                            {
                                "name": "get",
                                "type": "address",
                                "value": "0x711aa89f82141218ddcadd8508ec50eaba321fbf"
                            },
                            {
                                "name": "give",
                                "type": "address",
                                "value": "0xc3974752f69e2d7efcdd1292132890ac645b03c3"
                            }
                        ],
                        "signature": "Trade(address,uint256,address,uint256,address,address)"
                    },
                    "id": 3,
                    "logData": "0x000000000000000000000000bdc5bac39dbe132b1e030e898ae3830017d7d9690000000000000000000000000000000000000000000009bdaa3d398e00c0000000000000000000000000000000000000000000000000000000000000000000000000000000000000000000000000000000000000000000000ff3a8ddafc88000000000000000000000000000711aa89f82141218ddcadd8508ec50eaba321fbf000000000000000000000000c3974752f69e2d7efcdd1292132890ac645b03c3",
                    "logDecoded": true,
                    "operation": "EVENT",
                    "revert": false,
                    "status": true,
                    "topics": [
                        "0x6effdda786735d5033bfad5f53e5131abcced9e52be6c507b62d639685fbed6d"
                    ]
                },
                "nodeType": 1
            }
        },
        "gasFlame": [
            {
                "children": [
                    {
                        "children": [
                            {
                                "children": [],
                                "depth": 0,
                                "name": "Initial Gas",
                                "value": 31128
                            },
                            {
                                "children": [
                                    {
                                        "children": [],
                                        "depth": 1,
                                        "name": "sha256hash",
                                        "value": 132
                                    },
                                    {
                                        "children": [],
                                        "depth": 1,
                                        "name": "ecrecover",
                                        "value": 3000
                                    }
                                ],
                                "depth": 0,
                                "name": "Executed Gas",
                                "value": 76986
                            }
                        ],
                        "depth": -1,
                        "name": "Actual Gas Used",
                        "value": 108114
                    },
                    {
                        "children": [],
                        "depth": -1,
                        "name": "Refunded Gas",
                        "value": 0
                    }
                ],
                "depth": -2,
                "name": "Total Gas",
                "value": 108114
            }
        ],
        "isConfirmed": true,
        "mainTrace": [
            {
                "children": [
                    {
                        "children": [
                            {
                                "children": [],
                                "depth": 1,
                                "id": 1,
                                "order": 1
                            },
                            {
                                "children": [],
                                "depth": 1,
                                "id": 2,
                                "order": 2
                            },
                            {
                                "children": [],
                                "depth": 1,
                                "id": 3,
                                "order": 3
                            }
                        ],
                        "depth": 0,
                        "id": 0,
                        "order": 0
                    }
                ],
                "depth": -1,
                "id": -1,
                "order": -1
            }
        ],
        "mainTraceNodeCount": 4,
        "parentIdMap": {
            "0": -1,
            "1": 0,
            "2": 0,
            "3": 0
        },
        "tidyTrace": [
            {
                "children": [
                    {
                        "children": [
                            {
                                "children": [],
                                "depth": 1,
                                "id": 1,
                                "order": 1
                            },
                            {
                                "children": [],
                                "depth": 1,
                                "id": 2,
                                "order": 2
                            },
                            {
                                "children": [],
                                "depth": 1,
                                "id": 3,
                                "order": 3
                            }
                        ],
                        "depth": 0,
                        "id": 0,
                        "order": 0
                    }
                ],
                "depth": -1,
                "id": -1,
                "order": -1
            }
        ],
        "tidyTraceNodeCount": 4
    },
    "state_change": {
        "stateChanges": [
            {
                "address": "0x8d12a197cb00d4747a1fe03395095ce2a5cc6819",
                "erc": "",
                "slots": [
                    {
                        "current": "0x000000000000000000000000000000000000000000004b703f9dffa02c7bc400",
                        "key": "0x0c6bce6eeb1884e29a7e81d2d12b05f106a464da91cee01833780f17296d1a67",
                        "prev": "0x00000000000000000000000000000000000000000000553564fdb6066923c400"
                    },
                    {
                        "current": "0x0000000000000000000000000000000000000000000009bdaa3d398e00c00000",
                        "key": "0x1d0ea04938c5dec6d9608573fb9f89189ee14d327b8a032d922e7bfcf576a18e",
                        "prev": "0x0000000000000000000000000000000000000000000000000000000000000000"
                    },
                    {
                        "current": "0x000000000000000000000000000000000000000000000b4b834dd690e21b0152",
                        "key": "0x4e9390fe1ee3ba91015da78dbf7c71ee4b38fafc4f51451db5437c99bb81dbd2",
                        "prev": "0x000000000000000000000000000000000000000000000b44082b59b8a6330152"
                    },
                    {
                        "current": "0x00000000000000000000000000000000000000000000000000041d0923d6dec0",
                        "key": "0xe6fa6281225eb10d2bf4605fa7fcbf4100435c04c41207dc9b10a318683b62a0",
                        "prev": "0x0000000000000000000000000000000000000000000000000ff7c5e6d39f5ec0"
                    },
                    {
                        "current": "0x00000000000000000000000000000000000000000000000032e88ce3bff10636",
                        "key": "0x8dfea0cb55c9da9cbc8fd09bd008033fef80b6454c8ff4cc4ecb19c416d597d4",
                        "prev": "0x00000000000000000000000000000000000000000000000022f4e40610288636"
                    },
                    {
                        "current": "0x0000000000000000000000000000000000000000000009bdaa3d398e00c00000",
                        "key": "0xc3c1004db79b3d67ff167df38bb3c474e9818a07216e6516205e9ccd5818dd67",
                        "prev": "0x0000000000000000000000000000000000000000000000000000000000000000"
                    }
                ],
                "storageVariables": []
            }
        ]
    }
}