{
    "balance_change": {
        "balanceChanges": [
            {
                "account": "0xe2e54270813c5c44a6f97d123120952a12b00000",
                "assets": [
                    {
                        "address": "0x728f30fa2f100742c7949d1961804fa8e0b1387d",
                        "amount": "162,903.8",
                        "iconUrl": "",
                        "isERC1155": false,
                        "isERC721": false,
                        "sign": false,
                        "value": "3877.1104400000002785"
                    }
                ]
            },
            {
                "account": "0x127d723b10bd514534ade36bef34830f585b9cc4",
                "assets": [
                    {
                        "address": "0x728f30fa2f100742c7949d1961804fa8e0b1387d",
                        "amount": "162,903.8",
                        "iconUrl": "",
                        "isERC1155": false,
                        "isERC721": false,
                        "sign": true,
                        "value": "3877.1104400000002785"
                    }
                ]
            }
        ]
    },
    "profile": {
        "basic_info": {
            "baseFee": "34.503222136",
            "blockNumber": 18978113,
            "callData": "0xa9059cbb000000000000000000000000127d723b10bd514534ade36bef34830f585b9cc400000000000000000000000000000000000000000000227f085e96ad3f4c0000",
            "debugEnable": true,
            "errorInfo": "",
            "eventCount": 1,
            "feeRecipient": "0x95222290dd7278aa3ddd389cc1e1d165cc4bafe5",
            "formatValue": "0",
            "gasLimit": 500000,
            "gasPrice": "39.503222136",
            "gasUsed": 29801,
            "intTxnCount": 0,
            "internalRevert": false,
            "internalRevertMessage": "",
            "isContractCreation": false,
            "isFlashloan": false,
            "maxFee": "72.174331554",
            "nonce": 59326,
            "overwritedBlockNumber": -1,
            "priorityFee": "5",
            "receiver": "0x728f30fa2f100742c7949d1961804fa8e0b1387d",
            "revertMessage": "",
            "sender": "0xe2e54270813c5c44a6f97d123120952a12b00000",
            "simulationEnable": true,
            "sourceTxnHash": "0xb23a6d9c386e4592379bb4c421d2d9345196b850f4048213cf4058cde42f0065",
            "status": true,
            "timestamp": "2024-01-10T17:43:23Z",
            "transactionFee": "0.001177235522874936",
            "txnHash": "0xb23a6d9c386e4592379bb4c421d2d9345196b850f4048213cf4058cde42f0065",
            "txnIndex": 38,
            "type": 2,
            "value": "0"
        },
        "fund_flow": [
            {
                "amount": "162,903.8",
                "from": "0xe2e54270813c5c44a6f97d123120952a12b00000",
                "id": 1,
                "isERC1155": false,
                "isERC721": false,
                "isReverted": false,
                "order": 1,
                "to": "0x127d723b10bd514534ade36bef34830f585b9cc4",
                "token": "0x728f30fa2f100742c7949d1961804fa8e0b1387d"
            }
        ],
        "token_infos": [
            {
                "address": "0x728f30fa2f100742c7949d1961804fa8e0b1387d",
                "decimals": 18
            },
            {
                "address": "0xc02aaa39b223fe8d0a0e5c4f27ead9083c756cc2",
                "decimals": 18
            },
            {
                "address": "0xeeeeeeeeeeeeeeeeeeeeeeeeeeeeeeeeeeeeeeee",
                "decimals": 18
            }
        ]
    },
    "address_label": {
        "labels": [
            {
                "address": "0x0000000000000000000000000000000000000001",
                "label": "Precompiled"
            },
            {
                "address": "0x0000000000000000000000000000000000000002",
                "label": "Precompiled"
            },
            {
                "address": "0x0000000000000000000000000000000000000003",
                "label": "Precompiled"
            },
            {
                "address": "0x0000000000000000000000000000000000000004",
                "label": "Precompiled"
            },
            {
                "address": "0xeeeeeeeeeeeeeeeeeeeeeeeeeeeeeeeeeeeeeeee",
                "label": "Ether"
            },
            {
                "address": "0x127d723b10bd514534ade36bef34830f585b9cc4",
                "label": "KUCOIN"
            },
            {
                "address": "0x728f30fa2f100742c7949d1961804fa8e0b1387d",
                "label": "GamerCoin: GHX Token"
            }
        ]
    },
    "trace": {
        "accountLabels": null,
        "dataMap": {
            "-1": {
                "invocation": {
                    "address": "0xe2e54270813c5c44a6f97d123120952a12b00000",
                    "callData": "",
                    "decodedMethod": null,
                    "errorInfo": "",
                    "fromAddress": "",
                    "gasUsed": 0,
                    "id": -1,
                    "methodDecoded": false,
                    "operation": "",
                    "output": "",
                    "revert": false,
                    "revertMessage": "",
                    "selector": "",
                    "status": false,
                    "value": ""
                },
                "nodeType": 0
            },
            "0": {
                "invocation": {
                    "address": "0x728f30fa2f100742c7949d1961804fa8e0b1387d",
                    "callData": "0x000000000000000000000000127d723b10bd514534ade36bef34830f585b9cc400000000000000000000000000000000000000000000227f085e96ad3f4c0000",
                    "decodedMethod": {
                        "callParams": [
                            {
                                "name": "recipient",
                                "type": "address",
                                "value": "0x127d723b10bd514534ade36bef34830f585b9cc4"
                            },
                            {
                                "decimalAvailable": true,
                                "name": "amount",
                                "type": "uint256",
                                "value": "162,903,800,000,000,000,000,000"
                            }
                        ],
                        "constructorArguments": "",
                        "name": "transfer",
                        "returnParams": [
                            {
                                "name": "",
                                "type": "bool",
                                "value": true
                            }
                        ],
                        "signature": "transfer(address,uint256)"
                    },
                    "errorInfo": "",
                    "fromAddress": "0xe2e54270813c5c44a6f97d123120952a12b00000",
                    "gasUsed": 29801,
                    "id": 0,
                    "methodDecoded": true,
                    "operation": "CALL",
                    "output": "0x0000000000000000000000000000000000000000000000000000000000000001",
                    "revert": false,
                    "revertMessage": "",
                    "selector": "0xa9059cbb",
                    "status": true,
                    "value": "0"
                },
                "nodeType": 0
            },
            "1": {
                "event": {
                    "contract": "0x728f30fa2f100742c7949d1961804fa8e0b1387d",
                    "decodedLog": {
                        "name": "Transfer",
                        "params": [
                            {
                                "name": "from",
                                "type": "address",
                                "value": "0xe2e54270813c5c44a6f97d123120952a12b00000"
                            },
                            {
                                "name": "to",
                                "type": "address",
                                "value": "0x127d723b10bd514534ade36bef34830f585b9cc4"
                            },
                            {
                                "decimalAvailable": true,
                                "name": "value",
                                "type": "uint256",
                                "value": "162,903,800,000,000,000,000,000"
                            }
                        ],
                        "signature": "Transfer(address,address,uint256)"
                    },
                    "id": 1,
                    "logData": "0x00000000000000000000000000000000000000000000227f085e96ad3f4c0000",
                    "logDecoded": true,
                    "operation": "EVENT",
                    "revert": false,
                    "status": true,
                    "topics": [
                        "0xddf252ad1be2c89b69c2b068fc378daa952ba7f163c4a11628f55a4df523b3ef",
                        "0x000000000000000000000000e2e54270813c5c44a6f97d123120952a12b00000",
                        "0x000000000000000000000000127d723b10bd514534ade36bef34830f585b9cc4"
                    ]
                },
                "nodeType": 1
            }
        },
        "gasFlame": [
            {
                "children": [
                    {
                        "children": [
                            {
                                "children": [],
                                "depth": 0,
                                "name": "Initial Gas",
                                "value": 21656
                            },
                            {
                                "children": [],
                                "depth": 0,
                                "name": "Executed Gas",
                                "value": 12945
                            }
                        ],
                        "depth": -1,
                        "name": "Actual Gas Used",
                        "value": 29801
                    },
                    {
                        "children": [],
                        "depth": -1,
                        "name": "Refunded Gas",
                        "value": 4800
                    }
                ],
                "depth": -2,
                "name": "Total Gas",
                "value": 34601
            }
        ],
        "isConfirmed": true,
        "mainTrace": [
            {
                "children": [
                    {
                        "children": [
                            {
                                "children": [],
                                "depth": 1,
                                "id": 1,
                                "order": 1
                            }
                        ],
                        "depth": 0,
                        "id": 0,
                        "order": 0
                    }
                ],
                "depth": -1,
                "id": -1,
                "order": -1
            }
        ],
        "mainTraceNodeCount": 2,
        "parentIdMap": {
            "0": -1,
            "1": 0
        },
        "tidyTrace": [
            {
                "children": [
                    {
                        "children": [
                            {
                                "children": [],
                                "depth": 1,
                                "id": 1,
                                "order": 1
                            }
                        ],
                        "depth": 0,
                        "id": 0,
                        "order": 0
                    }
                ],
                "depth": -1,
                "id": -1,
                "order": -1
            }
        ],
        "tidyTraceNodeCount": 2
    },
    "state_change": {
        "stateChanges": [
            {
                "address": "0x728f30fa2f100742c7949d1961804fa8e0b1387d",
                "erc": "ERC-20",
                "slots": [
                    {
                        "current": "0x00000000000000000000000000000000000000000000ff2c58108ee6e1ff0000",
                        "key": "0x9daf5cd848f8a7977f7de7848658a27872579d50f162672464e95140d181e17e",
                        "prev": "0x00000000000000000000000000000000000000000000dcad4fb1f839a2b30000"
                    },
                    {
                        "current": "0x0000000000000000000000000000000000000000000000000000000000000000",
                        "key": "0x63c5c7ce37d574157166928c7903290c1063a286e4aad262fd39341c4edf54c6",
                        "prev": "0x00000000000000000000000000000000000000000000227f085e96ad3f4c0000"
                    }
                ],
                "storageVariables": [
                    {
                        "name": "_balances",
                        "type": "mapping(address => uint256)",
                        "value": {
                            "pairs": [
                                {
                                    "key": "0x127d723b10bd514534ade36bef34830f585b9cc4",
                                    "value": {
                                        "current": "1205021455600000000000000",
                                        "prev": "1042117655600000000000000",
                                        "typeTag": 1
                                    }
                                },
                                {
                                    "key": "0xe2e54270813c5c44a6f97d123120952a12b00000",
                                    "value": {
                                        "current": "0",
                                        "prev": "162903800000000000000000",
                                        "typeTag": 1
                                    }
                                }
                            ],
                            "typeTag": 4
                        }
                    }
                ]
            }
        ]
    }
}