{
    "balance_change": {
        "balanceChanges": [
            {
                "account": "0xd249942f6d417cbfdcb792b1229353b66c790726",
                "assets": [
                    {
                        "address": "0x808507121b80c02388fad14726482e061b8da827",
                        "amount": "1,910.513303463496633983",
                        "iconUrl": "https://assets.blocksec.com/icon/58b3d61bebf7cd1c556b96f909a6e07345e88e9ddfa8c427541f70e3b35f85e9.png",
                        "isERC1155": false,
                        "isERC721": false,
                        "sign": true,
                        "value": "2426.3518948100000339"
                    },
                    {
                        "address": "0xc02aaa39b223fe8d0a0e5c4f27ead9083c756cc2",
                        "amount": "1.097461375962411001",
                        "iconUrl": "https://assets.blocksec.com/icon/f1cb2d02c471d545bbc7722daf3277fd852d98e63d118771af7047bd8256c516.png",
                        "isERC1155": false,
                        "isERC721": false,
                        "sign": false,
                        "value": "2445.9560671462397603"
                    }
                ]
            },
            {
                "account": "0x50fe1432a9127b25d81ba12d739b744f84111134",
                "assets": [
                    {
                        "address": "0x808507121b80c02388fad14726482e061b8da827",
                        "amount": "1,910.513303463496633983",
                        "iconUrl": "https://assets.blocksec.com/icon/58b3d61bebf7cd1c556b96f909a6e07345e88e9ddfa8c427541f70e3b35f85e9.png",
                        "isERC1155": false,
                        "isERC721": false,
                        "sign": false,
                        "value": "2426.3518948100000339"
                    },
                    {
                        "address": "0xc02aaa39b223fe8d0a0e5c4f27ead9083c756cc2",
                        "amount": "1.097461375962411001",
                        "iconUrl": "https://assets.blocksec.com/icon/f1cb2d02c471d545bbc7722daf3277fd852d98e63d118771af7047bd8256c516.png",
                        "isERC1155": false,
                        "isERC721": false,
                        "sign": true,
                        "value": "2445.9560671462397603"
                    }
                ]
            }
        ]
    },
    "profile": {
        "basic_info": {
            "baseFee": "49.96582005",
            "blockNumber": 18716739,
            "callData": "0x5b1d3b2000000000000000000000000050fe1432a9127b25d81ba12d739b744f84111134000000000000000000000000c02aaa39b223fe8d0a0e5c4f27ead9083c756cc2000000000000000000000000808507121b80c02388fad14726482e061b8da82700000000000000000000000000000000000000000000000000000000000027100000000000000000000000000000000000000000000000000f3af74e8cf36ff90000000000000000000000000000000000000000000000678717be79d32496db00000000000000000000000000000000000000000620f9d8168850fcf3ab020e",
            "debugEnable": true,
            "errorInfo": "",
            "eventCount": 3,
            "feeRecipient": "0x95222290dd7278aa3ddd389cc1e1d165cc4bafe5",
            "formatValue": "0",
            "gasLimit": 166339,
            "gasPrice": "53.293360617",
            "gasUsed": 107845,
            "intTxnCount": 6,
            "internalRevert": false,
            "internalRevertMessage": "",
            "isContractCreation": false,
            "isFlashloan": false,
            "maxFee": "57.227540567",
            "nonce": 88179,
            "overwritedBlockNumber": -1,
            "priorityFee": "3.327540567",
            "receiver": "0xd249942f6d417cbfdcb792b1229353b66c790726",
            "revertMessage": "",
            "sender": "0xb18ccf69940177f3ec62920ddb2a08ef7cb16e8f",
            "simulationEnable": true,
            "sourceTxnHash": "0xb2a2b5f8ebeb2225eb9d5f76bc18095d2a246b28c073dfc2aa912f10f72f6c69",
            "status": true,
            "timestamp": "2023-12-05T01:00:59Z",
            "transactionFee": "0.005747422475740365",
            "txnHash": "0xb2a2b5f8ebeb2225eb9d5f76bc18095d2a246b28c073dfc2aa912f10f72f6c69",
            "txnIndex": 11,
            "type": 2,
            "value": "0"
        },
        "fund_flow": [
            {
                "amount": "1,910.513303463496633983",
                "from": "0x50fe1432a9127b25d81ba12d739b744f84111134",
                "id": 1,
                "isERC1155": false,
                "isERC721": false,
                "isReverted": false,
                "order": 1,
                "to": "0xd249942f6d417cbfdcb792b1229353b66c790726",
                "token": "0x808507121b80c02388fad14726482e061b8da827"
            },
            {
                "amount": "1.097461375962411001",
                "from": "0xd249942f6d417cbfdcb792b1229353b66c790726",
                "id": 2,
                "isERC1155": false,
                "isERC721": false,
                "isReverted": false,
                "order": 2,
                "to": "0x50fe1432a9127b25d81ba12d739b744f84111134",
                "token": "0xc02aaa39b223fe8d0a0e5c4f27ead9083c756cc2"
            }
        ],
        "token_infos": [
            {
                "address": "0x808507121b80c02388fad14726482e061b8da827",
                "decimals": 18
            },
            {
                "address": "0xc02aaa39b223fe8d0a0e5c4f27ead9083c756cc2",
                "decimals": 18
            },
            {
                "address": "0xeeeeeeeeeeeeeeeeeeeeeeeeeeeeeeeeeeeeeeee",
                "decimals": 18
            }
        ]
    },
    "address_label": {
        "labels": [
            {
                "address": "0x0000000000000000000000000000000000000003",
                "label": "Precompiled"
            },
            {
                "address": "0x0000000000000000000000000000000000000004",
                "label": "Precompiled"
            },
            {
                "address": "0xeeeeeeeeeeeeeeeeeeeeeeeeeeeeeeeeeeeeeeee",
                "label": "Ether"
            },
            {
                "address": "0x50fe1432a9127b25d81ba12d739b744f84111134",
                "label": "Uniswap V3: PENDLE 3"
            },
            {
                "address": "0xc02aaa39b223fe8d0a0e5c4f27ead9083c756cc2",
                "label": "Wrapped Ether (WETH)"
            },
            {
                "address": "0x808507121b80c02388fad14726482e061b8da827",
                "label": "Pendle: PENDLE Token"
            },
            {
                "address": "0x0000000000000000000000000000000000000001",
                "label": "Precompiled"
            },
            {
                "address": "0x0000000000000000000000000000000000000002",
                "label": "Precompiled"
            }
        ]
    },
    "trace": {
        "accountLabels": null,
        "dataMap": {
            "-1": {
                "invocation": {
                    "address": "0xb18ccf69940177f3ec62920ddb2a08ef7cb16e8f",
                    "callData": "",
                    "decodedMethod": null,
                    "errorInfo": "",
                    "fromAddress": "",
                    "gasUsed": 0,
                    "id": -1,
                    "methodDecoded": false,
                    "operation": "",
                    "output": "",
                    "revert": false,
                    "revertMessage": "",
                    "selector": "",
                    "status": false,
                    "value": ""
                },
                "nodeType": 0
            },
            "0": {
                "invocation": {
                    "address": "0xd249942f6d417cbfdcb792b1229353b66c790726",
                    "callData": "0x00000000000000000000000050fe1432a9127b25d81ba12d739b744f84111134000000000000000000000000c02aaa39b223fe8d0a0e5c4f27ead9083c756cc2000000000000000000000000808507121b80c02388fad14726482e061b8da82700000000000000000000000000000000000000000000000000000000000027100000000000000000000000000000000000000000000000000f3af74e8cf36ff90000000000000000000000000000000000000000000000678717be79d32496db00000000000000000000000000000000000000000620f9d8168850fcf3ab020e",
                    "decodedMethod": null,
                    "errorInfo": "",
                    "fromAddress": "0xb18ccf69940177f3ec62920ddb2a08ef7cb16e8f",
                    "gasUsed": 107845,
                    "id": 0,
                    "methodDecoded": false,
                    "operation": "CALL",
                    "output": "",
                    "revert": false,
                    "revertMessage": "",
                    "selector": "0x5b1d3b20",
                    "status": true,
                    "value": "0"
                },
                "nodeType": 0
            },
            "1": {
                "invocation": {
                    "address": "0x50fe1432a9127b25d81ba12d739b744f84111134",
                    "callData": "0x000000000000000000000000d249942f6d417cbfdcb792b1229353b66c79072600000000000000000000000000000000000000000000000000000000000000000000000000000000000000000000000000000000000000000f3af74e8cf36ff900000000000000000000000000000000000000000620f9d8168850fcf3ab020e00000000000000000000000000000000000000000000000000000000000000a00000000000000000000000000000000000000000000000000000000000000040000000000000000000000000c02aaa39b223fe8d0a0e5c4f27ead9083c756cc2de30f720ceb365e28cd17f99b72e4ddd220146a2e543cc6c101b8909959d1222",
                    "decodedMethod": {
                        "callParams": [
                            {
                                "name": "recipient",
                                "type": "address",
                                "value": "0xd249942f6d417cbfdcb792b1229353b66c790726"
                            },
                            {
                                "name": "zeroForOne",
                                "type": "bool",
                                "value": false
                            },
                            {
                                "name": "amountSpecified",
                                "type": "int256",
                                "value": "1,097,461,375,962,411,001"
                            },
                            {
                                "name": "sqrtPriceLimitX96",
                                "type": "uint160",
                                "value": "1,896,775,540,530,329,721,877,758,478"
                            },
                            {
                                "name": "data",
                                "type": "bytes",
                                "value": "0x000000000000000000000000c02aaa39b223fe8d0a0e5c4f27ead9083c756cc2de30f720ceb365e28cd17f99b72e4ddd220146a2e543cc6c101b8909959d1222"
                            }
                        ],
                        "constructorArguments": "",
                        "name": "swap",
                        "returnParams": [
                            {
                                "name": "amount0",
                                "type": "int256",
                                "value": "-1,910,513,303,463,496,633,983"
                            },
                            {
                                "name": "amount1",
                                "type": "int256",
                                "value": "1,097,461,375,962,411,001"
                            }
                        ],
                        "signature": "swap(address,bool,int256,uint160,bytes)"
                    },
                    "errorInfo": "",
                    "fromAddress": "0xd249942f6d417cbfdcb792b1229353b66c790726",
                    "gasUsed": 77804,
                    "id": 1,
                    "methodDecoded": true,
                    "operation": "CALL",
                    "output": "0xffffffffffffffffffffffffffffffffffffffffffffff986e4d40d5503631810000000000000000000000000000000000000000000000000f3af74e8cf36ff9",
                    "revert": false,
                    "revertMessage": "",
                    "selector": "0x128acb08",
                    "status": true,
                    "value": "0"
                },
                "nodeType": 0
            },
            "2": {
                "invocation": {
                    "address": "0x808507121b80c02388fad14726482e061b8da827",
                    "callData": "0x000000000000000000000000d249942f6d417cbfdcb792b1229353b66c79072600000000000000000000000000000000000000000000006791b2bf2aafc9ce7f",
                    "decodedMethod": {
                        "callParams": [
                            {
                                "name": "dst",
                                "type": "address",
                                "value": "0xd249942f6d417cbfdcb792b1229353b66c790726"
                            },
                            {
                                "decimalAvailable": true,
                                "name": "amount",
                                "type": "uint256",
                                "value": "1,910,513,303,463,496,633,983"
                            }
                        ],
                        "constructorArguments": "",
                        "name": "transfer",
                        "returnParams": [
                            {
                                "name": "",
                                "type": "bool",
                                "value": true
                            }
                        ],
                        "signature": "transfer(address,uint256)"
                    },
                    "errorInfo": "",
                    "fromAddress": "0x50fe1432a9127b25d81ba12d739b744f84111134",
                    "gasUsed": 17593,
                    "id": 2,
                    "methodDecoded": true,
                    "operation": "CALL",
                    "output": "0x0000000000000000000000000000000000000000000000000000000000000001",
                    "revert": false,
                    "revertMessage": "",
                    "selector": "0xa9059cbb",
                    "status": true,
                    "value": "0"
                },
                "nodeType": 0
            },
            "3": {
                "event": {
                    "contract": "0x808507121b80c02388fad14726482e061b8da827",
                    "decodedLog": {
                        "name": "Transfer",
                        "params": [
                            {
                                "name": "from",
                                "type": "address",
                                "value": "0x50fe1432a9127b25d81ba12d739b744f84111134"
                            },
                            {
                                "name": "to",
                                "type": "address",
                                "value": "0xd249942f6d417cbfdcb792b1229353b66c790726"
                            },
                            {
                                "decimalAvailable": true,
                                "name": "value",
                                "type": "uint256",
                                "value": "1,910,513,303,463,496,633,983"
                            }
                        ],
                        "signature": "Transfer(address,address,uint256)"
                    },
                    "id": 3,
                    "logData": "0x00000000000000000000000000000000000000000000006791b2bf2aafc9ce7f",
                    "logDecoded": true,
                    "operation": "EVENT",
                    "revert": false,
                    "status": true,
                    "topics": [
                        "0xddf252ad1be2c89b69c2b068fc378daa952ba7f163c4a11628f55a4df523b3ef",
                        "0x00000000000000000000000050fe1432a9127b25d81ba12d739b744f84111134",
                        "0x000000000000000000000000d249942f6d417cbfdcb792b1229353b66c790726"
                    ]
                },
                "nodeType": 1
            },
            "4": {
                "invocation": {
                    "address": "0xc02aaa39b223fe8d0a0e5c4f27ead9083c756cc2",
                    "callData": "0x00000000000000000000000050fe1432a9127b25d81ba12d739b744f84111134",
                    "decodedMethod": {
                        "callParams": [
                            {
                                "name": "",
                                "type": "address",
                                "value": "0x50fe1432a9127b25d81ba12d739b744f84111134"
                            }
                        ],
                        "constructorArguments": "",
                        "name": "balanceOf",
                        "returnParams": [
                            {
                                "decimalAvailable": true,
                                "name": "",
                                "type": "uint256",
                                "value": "33,168,963,808,703,482,921"
                            }
                        ],
                        "signature": "balanceOf(address)"
                    },
                    "errorInfo": "",
                    "fromAddress": "0x50fe1432a9127b25d81ba12d739b744f84111134",
                    "gasUsed": 2534,
                    "id": 4,
                    "methodDecoded": true,
                    "operation": "STATICCALL",
                    "output": "0x000000000000000000000000000000000000000000000001cc4fd4d8e98f0c29",
                    "revert": false,
                    "revertMessage": "",
                    "selector": "0x70a08231",
                    "status": true,
                    "value": "0"
                },
                "nodeType": 0
            },
            "5": {
                "invocation": {
                    "address": "0xd249942f6d417cbfdcb792b1229353b66c790726",
                    "callData": "0xffffffffffffffffffffffffffffffffffffffffffffff986e4d40d5503631810000000000000000000000000000000000000000000000000f3af74e8cf36ff900000000000000000000000000000000000000000000000000000000000000600000000000000000000000000000000000000000000000000000000000000040000000000000000000000000c02aaa39b223fe8d0a0e5c4f27ead9083c756cc2de30f720ceb365e28cd17f99b72e4ddd220146a2e543cc6c101b8909959d1222",
                    "decodedMethod": {
                        "callParams": [
                            {
                                "name": "amount0Delta",
                                "type": "int256",
                                "value": "-1,910,513,303,463,496,633,983"
                            },
                            {
                                "name": "amount1Delta",
                                "type": "int256",
                                "value": "1,097,461,375,962,411,001"
                            },
                            {
                                "name": "data",
                                "type": "bytes",
                                "value": "0x000000000000000000000000c02aaa39b223fe8d0a0e5c4f27ead9083c756cc2de30f720ceb365e28cd17f99b72e4ddd220146a2e543cc6c101b8909959d1222"
                            }
                        ],
                        "constructorArguments": "",
                        "name": "uniswapV3SwapCallback",
                        "returnParams": [],
                        "signature": "uniswapV3SwapCallback(int256,int256,bytes)"
                    },
                    "errorInfo": "",
                    "fromAddress": "0x50fe1432a9127b25d81ba12d739b744f84111134",
                    "gasUsed": 13504,
                    "id": 5,
                    "methodDecoded": true,
                    "operation": "CALL",
                    "output": "",
                    "revert": false,
                    "revertMessage": "",
                    "selector": "0xfa461e33",
                    "status": true,
                    "value": "0"
                },
                "nodeType": 0
            },
            "6": {
                "invocation": {
                    "address": "0xc02aaa39b223fe8d0a0e5c4f27ead9083c756cc2",
                    "callData": "0x00000000000000000000000050fe1432a9127b25d81ba12d739b744f841111340000000000000000000000000000000000000000000000000f3af74e8cf36ff9",
                    "decodedMethod": {
                        "callParams": [
                            {
                                "name": "dst",
                                "type": "address",
                                "value": "0x50fe1432a9127b25d81ba12d739b744f84111134"
                            },
                            {
                                "decimalAvailable": true,
                                "name": "wad",
                                "type": "uint256",
                                "value": "1,097,461,375,962,411,001"
                            }
                        ],
                        "constructorArguments": "",
                        "name": "transfer",
                        "returnParams": [
                            {
                                "name": "",
                                "type": "bool",
                                "value": true
                            }
                        ],
                        "signature": "transfer(address,uint256)"
                    },
                    "errorInfo": "",
                    "fromAddress": "0xd249942f6d417cbfdcb792b1229353b66c790726",
                    "gasUsed": 10862,
                    "id": 6,
                    "methodDecoded": true,
                    "operation": "CALL",
                    "output": "0x0000000000000000000000000000000000000000000000000000000000000001",
                    "revert": false,
                    "revertMessage": "",
                    "selector": "0xa9059cbb",
                    "status": true,
                    "value": "0"
                },
                "nodeType": 0
            },
            "7": {
                "event": {
                    "contract": "0xc02aaa39b223fe8d0a0e5c4f27ead9083c756cc2",
                    "decodedLog": {
                        "name": "Transfer",
                        "params": [
                            {
                                "name": "src",
                                "type": "address",
                                "value": "0xd249942f6d417cbfdcb792b1229353b66c790726"
                            },
                            {
                                "name": "dst",
                                "type": "address",
                                "value": "0x50fe1432a9127b25d81ba12d739b744f84111134"
                            },
                            {
                                "decimalAvailable": true,
                                "name": "wad",
                                "type": "uint256",
                                "value": "1,097,461,375,962,411,001"
                            }
                        ],
                        "signature": "Transfer(address,address,uint256)"
                    },
                    "id": 7,
                    "logData": "0x0000000000000000000000000000000000000000000000000f3af74e8cf36ff9",
                    "logDecoded": true,
                    "operation": "EVENT",
                    "revert": false,
                    "status": true,
                    "topics": [
                        "0xddf252ad1be2c89b69c2b068fc378daa952ba7f163c4a11628f55a4df523b3ef",
                        "0x000000000000000000000000d249942f6d417cbfdcb792b1229353b66c790726",
                        "0x00000000000000000000000050fe1432a9127b25d81ba12d739b744f84111134"
                    ]
                },
                "nodeType": 1
            },
            "8": {
                "invocation": {
                    "address": "0xc02aaa39b223fe8d0a0e5c4f27ead9083c756cc2",
                    "callData": "0x00000000000000000000000050fe1432a9127b25d81ba12d739b744f84111134",
                    "decodedMethod": {
                        "callParams": [
                            {
                                "name": "",
                                "type": "address",
                                "value": "0x50fe1432a9127b25d81ba12d739b744f84111134"
                            }
                        ],
                        "constructorArguments": "",
                        "name": "balanceOf",
                        "returnParams": [
                            {
                                "decimalAvailable": true,
                                "name": "",
                                "type": "uint256",
                                "value": "34,266,425,184,665,893,922"
                            }
                        ],
                        "signature": "balanceOf(address)"
                    },
                    "errorInfo": "",
                    "fromAddress": "0x50fe1432a9127b25d81ba12d739b744f84111134",
                    "gasUsed": 534,
                    "id": 8,
                    "methodDecoded": true,
                    "operation": "STATICCALL",
                    "output": "0x000000000000000000000000000000000000000000000001db8acc2776827c22",
                    "revert": false,
                    "revertMessage": "",
                    "selector": "0x70a08231",
                    "status": true,
                    "value": "0"
                },
                "nodeType": 0
            },
            "9": {
                "event": {
                    "contract": "0x50fe1432a9127b25d81ba12d739b744f84111134",
                    "decodedLog": {
                        "name": "Swap",
                        "params": [
                            {
                                "name": "sender",
                                "type": "address",
                                "value": "0xd249942f6d417cbfdcb792b1229353b66c790726"
                            },
                            {
                                "name": "recipient",
                                "type": "address",
                                "value": "0xd249942f6d417cbfdcb792b1229353b66c790726"
                            },
                            {
                                "name": "amount0",
                                "type": "int256",
                                "value": "-1,910,513,303,463,496,633,983"
                            },
                            {
                                "name": "amount1",
                                "type": "int256",
                                "value": "1,097,461,375,962,411,001"
                            },
                            {
                                "name": "sqrtPriceX96",
                                "type": "uint160",
                                "value": "1,896,396,147,479,123,888,947,544,967"
                            },
                            {
                                "name": "liquidity",
                                "type": "uint128",
                                "value": "6,136,154,776,275,696,409,369"
                            },
                            {
                                "name": "tick",
                                "type": "int24",
                                "value": "-74,652"
                            }
                        ],
                        "signature": "Swap(address,address,int256,int256,uint160,uint128,int24)"
                    },
                    "id": 9,
                    "logData": "0xffffffffffffffffffffffffffffffffffffffffffffff986e4d40d5503631810000000000000000000000000000000000000000000000000f3af74e8cf36ff900000000000000000000000000000000000000000620a9812645a7d15a0b438700000000000000000000000000000000000000000000014ca4410248096adb19fffffffffffffffffffffffffffffffffffffffffffffffffffffffffffedc64",
                    "logDecoded": true,
                    "operation": "EVENT",
                    "revert": false,
                    "status": true,
                    "topics": [
                        "0xc42079f94a6350d7e6235f29174924f928cc2ac818eb64fed8004e115fbcca67",
                        "0x000000000000000000000000d249942f6d417cbfdcb792b1229353b66c790726",
                        "0x000000000000000000000000d249942f6d417cbfdcb792b1229353b66c790726"
                    ]
                },
                "nodeType": 1
            }
        },
        "gasFlame": [
            {
                "children": [
                    {
                        "children": [
                            {
                                "children": [],
                                "depth": 0,
                                "name": "Initial Gas",
                                "value": 23052
                            },
                            {
                                "children": [
                                    {
                                        "children": [
                                            {
                                                "children": [],
                                                "depth": 2,
                                                "name": "transfer",
                                                "value": 17593
                                            },
                                            {
                                                "children": [],
                                                "depth": 2,
                                                "name": "balanceOf",
                                                "value": 2534
                                            },
                                            {
                                                "children": [
                                                    {
                                                        "children": [],
                                                        "depth": 3,
                                                        "name": "transfer",
                                                        "value": 10862
                                                    }
                                                ],
                                                "depth": 2,
                                                "name": "uniswapV3SwapCallback",
                                                "value": 13504
                                            },
                                            {
                                                "children": [],
                                                "depth": 2,
                                                "name": "balanceOf",
                                                "value": 534
                                            }
                                        ],
                                        "depth": 1,
                                        "name": "swap",
                                        "value": 77804
                                    }
                                ],
                                "depth": 0,
                                "name": "Executed Gas",
                                "value": 84793
                            }
                        ],
                        "depth": -1,
                        "name": "Actual Gas Used",
                        "value": 107845
                    },
                    {
                        "children": [],
                        "depth": -1,
                        "name": "Refunded Gas",
                        "value": 0
                    }
                ],
                "depth": -2,
                "name": "Total Gas",
                "value": 107845
            }
        ],
        "isConfirmed": true,
        "mainTrace": [
            {
                "children": [
                    {
                        "children": [
                            {
                                "children": [
                                    {
                                        "children": [
                                            {
                                                "children": [],
                                                "depth": 3,
                                                "id": 3,
                                                "order": 3
                                            }
                                        ],
                                        "depth": 2,
                                        "id": 2,
                                        "order": 2
                                    },
                                    {
                                        "children": [],
                                        "depth": 2,
                                        "id": 4,
                                        "order": 4
                                    },
                                    {
                                        "children": [
                                            {
                                                "children": [
                                                    {
                                                        "children": [],
                                                        "depth": 4,
                                                        "id": 7,
                                                        "order": 7
                                                    }
                                                ],
                                                "depth": 3,
                                                "id": 6,
                                                "order": 6
                                            }
                                        ],
                                        "depth": 2,
                                        "id": 5,
                                        "order": 5
                                    },
                                    {
                                        "children": [],
                                        "depth": 2,
                                        "id": 8,
                                        "order": 8
                                    },
                                    {
                                        "children": [],
                                        "depth": 2,
                                        "id": 9,
                                        "order": 9
                                    }
                                ],
                                "depth": 1,
                                "id": 1,
                                "order": 1
                            }
                        ],
                        "depth": 0,
                        "id": 0,
                        "order": 0
                    }
                ],
                "depth": -1,
                "id": -1,
                "order": -1
            }
        ],
        "mainTraceNodeCount": 10,
        "parentIdMap": {
            "0": -1,
            "1": 0,
            "2": 1,
            "3": 2,
            "4": 1,
            "5": 1,
            "6": 5,
            "7": 6,
            "8": 1,
            "9": 1
        },
        "tidyTrace": [
            {
                "children": [
                    {
                        "children": [
                            {
                                "children": [
                                    {
                                        "children": [
                                            {
                                                "children": [],
                                                "depth": 3,
                                                "id": 3,
                                                "order": 3
                                            }
                                        ],
                                        "depth": 2,
                                        "id": 2,
                                        "order": 2
                                    },
                                    {
                                        "children": [
                                            {
                                                "children": [
                                                    {
                                                        "children": [],
                                                        "depth": 4,
                                                        "id": 7,
                                                        "order": 7
                                                    }
                                                ],
                                                "depth": 3,
                                                "id": 6,
                                                "order": 6
                                            }
                                        ],
                                        "depth": 2,
                                        "id": 5,
                                        "order": 5
                                    },
                                    {
                                        "children": [],
                                        "depth": 2,
                                        "id": 9,
                                        "order": 9
                                    }
                                ],
                                "depth": 1,
                                "id": 1,
                                "order": 1
                            }
                        ],
                        "depth": 0,
                        "id": 0,
                        "order": 0
                    }
                ],
                "depth": -1,
                "id": -1,
                "order": -1
            }
        ],
        "tidyTraceNodeCount": 8
    },
    "state_change": {
        "stateChanges": [
            {
                "address": "0x50fe1432a9127b25d81ba12d739b744f84111134",
                "erc": "",
                "slots": [
                    {
                        "current": "0x01006a9ac4000000000001d25b6839d098ea31121dfffef5010d7f30656e764b",
                        "key": "0x0000000000000000000000000000000000000000000000000000000000000008",
                        "prev": "0x01006a9ac4000000000001d257e86a36bfaa2487b0fffef5063e0970656e71bf"
                    },
                    {
                        "current": "0x0000000000000000000000000000000000213449974585257be30a8866adb07f",
                        "key": "0x0000000000000000000000000000000000000000000000000000000000000002",
                        "prev": "0x0000000000000000000000000000000000211647f8a34b6d6969a7b3ab6daa5c"
                    },
                    {
                        "current": "0x000100000100010000fedc6400000000000000000620a9812645a7d15a0b4387",
                        "key": "0x0000000000000000000000000000000000000000000000000000000000000000",
                        "prev": "0x000100000100010000fedbd0000000000000000006150ee0cd8955a2814ab60a"
                    }
                ],
                "storageVariables": []
            },
            {
                "address": "0x808507121b80c02388fad14726482e061b8da827",
                "erc": "ERC-20",
                "slots": [
                    {
                        "current": "0x00000000000000000000000000000000000000000000100aaca7ca71e9e3a5c5",
                        "key": "0x18e239d96c86d149c620ff0449f0f8a838b17d6b83adb826b1c0855e6ef95784",
                        "prev": "0x0000000000000000000000000000000000000000000010723e5a899c99ad7444"
                    },
                    {
                        "current": "0x0000000000000000000000000000000000000000000006bb66a19bd35c4e0f38",
                        "key": "0xcdaa51afa450bcf49c4f8c3cd50a5b8843eaa1080ffc88a036d8fc59f9fef384",
                        "prev": "0x000000000000000000000000000000000000000000000653d4eedca8ac8440b9"
                    }
                ],
                "storageVariables": [
                    {
                        "name": "balances",
                        "type": "mapping(address => uint256)",
                        "value": {
                            "pairs": [
                                {
                                    "key": "0x50fe1432a9127b25d81ba12d739b744f84111134",
                                    "value": {
                                        "current": "75754772301737657345477",
                                        "prev": "77665285605201153979460",
                                        "typeTag": 1
                                    }
                                },
                                {
                                    "key": "0xd249942f6d417cbfdcb792b1229353b66c790726",
                                    "value": {
                                        "current": "31791135402396765523768",
                                        "prev": "29880622098933268889785",
                                        "typeTag": 1
                                    }
                                }
                            ],
                            "typeTag": 4
                        }
                    }
                ]
            },
            {
                "address": "0xc02aaa39b223fe8d0a0e5c4f27ead9083c756cc2",
                "erc": "ERC-20",
                "slots": [
                    {
                        "current": "0x0000000000000000000000000000000000000000000000008e012c24b37d5a7a",
                        "key": "0xaa068a30f5deb66d151c87d08149ef168a27253943ec06fc5953ca048106b419",
                        "prev": "0x0000000000000000000000000000000000000000000000009d3c23734070ca73"
                    },
                    {
                        "current": "0x000000000000000000000000000000000000000000000001db8acc2776827c22",
                        "key": "0x37c9309ce21d1e3fbb4ec572e0c6d21812c5cb954877df9eec667ab3c551e297",
                        "prev": "0x000000000000000000000000000000000000000000000001cc4fd4d8e98f0c29"
                    }
                ],
                "storageVariables": [
                    {
                        "name": "balanceOf",
                        "type": "mapping(address => uint256)",
                        "value": {
                            "pairs": [
                                {
                                    "key": "0x50fe1432a9127b25d81ba12d739b744f84111134",
                                    "value": {
                                        "current": "34266425184665893922",
                                        "prev": "33168963808703482921",
                                        "typeTag": 1
                                    }
                                },
                                {
                                    "key": "0xd249942f6d417cbfdcb792b1229353b66c790726",
                                    "value": {
                                        "current": "10232508364504259194",
                                        "prev": "11329969740466670195",
                                        "typeTag": 1
                                    }
                                }
                            ],
                            "typeTag": 4
                        }
                    }
                ]
            }
        ]
    }
}