{
    "balance_change": {
        "balanceChanges": [
            {
                "account": "0xa645c83533b1a1e08107bb2ca99a936269363e25",
                "assets": [
                    {
                        "address": "0xd835e478907a7dfcf398b400e99996a7e33aba2d",
                        "amount": "153,776",
                        "iconUrl": "",
                        "isERC1155": false,
                        "isERC721": false,
                        "sign": false,
                        "value": ""
                    }
                ]
            },
            {
                "account": "0x2c9b92ec81c1cee338a465910d242ead8eb95dca",
                "assets": [
                    {
                        "address": "0xd835e478907a7dfcf398b400e99996a7e33aba2d",
                        "amount": "153,776",
                        "iconUrl": "",
                        "isERC1155": false,
                        "isERC721": false,
                        "sign": true,
                        "value": ""
                    }
                ]
            }
        ]
    },
    "profile": {
        "basic_info": {
            "baseFee": "",
            "blockNumber": 6658652,
            "callData": "0xa9059cbb0000000000000000000000002c9b92ec81c1cee338a465910d242ead8eb95dca00000000000000000000000000000000000000000000000000000000000258b0",
            "debugEnable": true,
            "errorInfo": "",
            "eventCount": 1,
            "feeRecipient": "0x5a0b54d5dc17e0aadc383d2db43b0a0d3e029c4c",
            "formatValue": "0",
            "gasLimit": 60000,
            "gasPrice": "11.3125",
            "gasUsed": 51302,
            "intTxnCount": 0,
            "internalRevert": false,
            "internalRevertMessage": "",
            "isContractCreation": false,
            "isFlashloan": false,
            "maxFee": "",
            "nonce": 8,
            "overwritedBlockNumber": -1,
            "priorityFee": "",
            "receiver": "0xd835e478907a7dfcf398b400e99996a7e33aba2d",
            "revertMessage": "",
            "sender": "0xa645c83533b1a1e08107bb2ca99a936269363e25",
            "simulationEnable": true,
            "sourceTxnHash": "0xb25df4577bbbd74d6aef5fa82a2524fec66bd851be52e6e311ffa1729963eef4",
            "status": true,
            "timestamp": "2018-11-07T06:41:03Z",
            "transactionFee": "0.000580353875",
            "txnHash": "0xb25df4577bbbd74d6aef5fa82a2524fec66bd851be52e6e311ffa1729963eef4",
            "txnIndex": 58,
            "type": 0,
            "value": "0"
        },
        "fund_flow": [
            {
                "amount": "153,776",
                "from": "0xa645c83533b1a1e08107bb2ca99a936269363e25",
                "id": 1,
                "isERC1155": false,
                "isERC721": false,
                "isReverted": false,
                "order": 1,
                "to": "0x2c9b92ec81c1cee338a465910d242ead8eb95dca",
                "token": "0xd835e478907a7dfcf398b400e99996a7e33aba2d"
            }
        ],
        "token_infos": [
            {
                "address": "0xc02aaa39b223fe8d0a0e5c4f27ead9083c756cc2",
                "decimals": 18
            },
            {
                "address": "0xd835e478907a7dfcf398b400e99996a7e33aba2d",
                "decimals": 0
            },
            {
                "address": "0xeeeeeeeeeeeeeeeeeeeeeeeeeeeeeeeeeeeeeeee",
                "decimals": 18
            }
        ]
    },
    "address_label": {
        "labels": [
            {
                "address": "0x0000000000000000000000000000000000000003",
                "label": "Precompiled"
            },
            {
                "address": "0x0000000000000000000000000000000000000004",
                "label": "Precompiled"
            },
            {
                "address": "0xeeeeeeeeeeeeeeeeeeeeeeeeeeeeeeeeeeeeeeee",
                "label": "Ether"
            },
            {
                "address": "0xd835e478907a7dfcf398b400e99996a7e33aba2d",
                "label": "ATR"
            },
            {
                "address": "0x0000000000000000000000000000000000000001",
                "label": "Precompiled"
            },
            {
                "address": "0x0000000000000000000000000000000000000002",
                "label": "Precompiled"
            }
        ]
    },
    "trace": {
        "accountLabels": null,
        "dataMap": {
            "-1": {
                "invocation": {
                    "address": "0xa645c83533b1a1e08107bb2ca99a936269363e25",
                    "callData": "",
                    "decodedMethod": null,
                    "errorInfo": "",
                    "fromAddress": "",
                    "gasUsed": 0,
                    "id": -1,
                    "methodDecoded": false,
                    "operation": "",
                    "output": "",
                    "revert": false,
                    "revertMessage": "",
                    "selector": "",
                    "status": false,
                    "value": ""
                },
                "nodeType": 0
            },
            "0": {
                "invocation": {
                    "address": "0xd835e478907a7dfcf398b400e99996a7e33aba2d",
                    "callData": "0x0000000000000000000000002c9b92ec81c1cee338a465910d242ead8eb95dca00000000000000000000000000000000000000000000000000000000000258b0",
                    "decodedMethod": {
                        "callParams": [
                            {
                                "name": "recipient",
                                "type": "address",
                                "value": "0x2c9b92ec81c1cee338a465910d242ead8eb95dca"
                            },
                            {
                                "decimalAvailable": true,
                                "name": "amount",
                                "type": "uint256",
                                "value": "153,776"
                            }
                        ],
                        "constructorArguments": "",
                        "name": "transfer",
                        "returnParams": [
                            {
                                "name": "",
                                "type": "bool",
                                "value": true
                            }
                        ],
                        "signature": "transfer(address,uint256)"
                    },
                    "errorInfo": "",
                    "fromAddress": "0xa645c83533b1a1e08107bb2ca99a936269363e25",
                    "gasUsed": 51302,
                    "id": 0,
                    "methodDecoded": true,
                    "operation": "CALL",
                    "output": "0x0000000000000000000000000000000000000000000000000000000000000001",
                    "revert": false,
                    "revertMessage": "",
                    "selector": "0xa9059cbb",
                    "status": true,
                    "value": "0"
                },
                "nodeType": 0
            },
            "1": {
                "event": {
                    "contract": "0xd835e478907a7dfcf398b400e99996a7e33aba2d",
                    "decodedLog": {
                        "name": "Transfer",
                        "params": [
                            {
                                "name": "from",
                                "type": "address",
                                "value": "0xa645c83533b1a1e08107bb2ca99a936269363e25"
                            },
                            {
                                "name": "to",
                                "type": "address",
                                "value": "0x2c9b92ec81c1cee338a465910d242ead8eb95dca"
                            },
                            {
                                "decimalAvailable": true,
                                "name": "value",
                                "type": "uint256",
                                "value": "153,776"
                            }
                        ],
                        "signature": "Transfer(address,address,uint256)"
                    },
                    "id": 1,
                    "logData": "0x00000000000000000000000000000000000000000000000000000000000258b0",
                    "logDecoded": true,
                    "operation": "EVENT",
                    "revert": false,
                    "status": true,
                    "topics": [
                        "0xddf252ad1be2c89b69c2b068fc378daa952ba7f163c4a11628f55a4df523b3ef",
                        "0x000000000000000000000000a645c83533b1a1e08107bb2ca99a936269363e25",
                        "0x0000000000000000000000002c9b92ec81c1cee338a465910d242ead8eb95dca"
                    ]
                },
                "nodeType": 1
            }
        },
        "gasFlame": [
            {
                "children": [
                    {
                        "children": [
                            {
                                "children": [],
                                "depth": 0,
                                "name": "Initial Gas",
                                "value": 23000
                            },
                            {
                                "children": [],
                                "depth": 0,
                                "name": "Executed Gas",
                                "value": 28302
                            }
                        ],
                        "depth": -1,
                        "name": "Actual Gas Used",
                        "value": 51302
                    },
                    {
                        "children": [],
                        "depth": -1,
                        "name": "Refunded Gas",
                        "value": 0
                    }
                ],
                "depth": -2,
                "name": "Total Gas",
                "value": 51302
            }
        ],
        "isConfirmed": true,
        "mainTrace": [
            {
                "children": [
                    {
                        "children": [
                            {
                                "children": [],
                                "depth": 1,
                                "id": 1,
                                "order": 1
                            }
                        ],
                        "depth": 0,
                        "id": 0,
                        "order": 0
                    }
                ],
                "depth": -1,
                "id": -1,
                "order": -1
            }
        ],
        "mainTraceNodeCount": 2,
        "parentIdMap": {
            "0": -1,
            "1": 0
        },
        "tidyTrace": [
            {
                "children": [
                    {
                        "children": [
                            {
                                "children": [],
                                "depth": 1,
                                "id": 1,
                                "order": 1
                            }
                        ],
                        "depth": 0,
                        "id": 0,
                        "order": 0
                    }
                ],
                "depth": -1,
                "id": -1,
                "order": -1
            }
        ],
        "tidyTraceNodeCount": 2
    },
    "state_change": {
        "stateChanges": [
            {
                "address": "0xd835e478907a7dfcf398b400e99996a7e33aba2d",
                "erc": "",
                "slots": [
                    {
                        "current": "0x000000000000000000000000000000000000000000000000000000000003d090",
                        "key": "0x12a51d96676896be7535f53fc9e7943cb468e4c6337fcf01380b3c3e667b65ee",
                        "prev": "0x0000000000000000000000000000000000000000000000000000000000062940"
                    },
                    {
                        "current": "0x00000000000000000000000000000000000000000000000000000000000258b0",
                        "key": "0x58908585d423068d242d80391b50d85bf9c1853a7573972ade5b7eca4b3e9eb1",
                        "prev": "0x0000000000000000000000000000000000000000000000000000000000000000"
                    }
                ],
                "storageVariables": []
            }
        ]
    }
}