{
    "balance_change": {
        "balanceChanges": [
            {
                "account": "0xe5a04d98538231b0fab9aba60cd73ce4ff3039df",
                "assets": [
                    {
                        "address": "0xeeeeeeeeeeeeeeeeeeeeeeeeeeeeeeeeeeeeeeee",
                        "amount": "1.950322723396",
                        "iconUrl": "https://assets.blocksec.com/image/1663669189317-3.png",
                        "isERC1155": false,
                        "isERC721": false,
                        "sign": false,
                        "value": ""
                    }
                ]
            },
            {
                "account": "0xfa19a127a167112952cd475cba9abb2663dace46",
                "assets": [
                    {
                        "address": "0xeeeeeeeeeeeeeeeeeeeeeeeeeeeeeeeeeeeeeeee",
                        "amount": "1.950322723396",
                        "iconUrl": "https://assets.blocksec.com/image/1663669189317-3.png",
                        "isERC1155": false,
                        "isERC721": false,
                        "sign": true,
                        "value": ""
                    }
                ]
            }
        ]
    },
    "profile": {
        "basic_info": {
            "baseFee": "",
            "blockNumber": 4374394,
            "callData": "0x38bbfa5011aea91f0641fb67f69486fb6468bd05225b905f917ed3eb7db566519c80eb9e000000000000000000000000000000000000000000000000000000000000006000000000000000000000000000000000000000000000000000000000000000a00000000000000000000000000000000000000000000000000000000000000002d73500000000000000000000000000000000000000000000000000000000000000000000000000000000000000000000000000000000000000000000000001c14c50010498c36fc999f7a37ffffe7e4207142d9f708b96f190cfaed75133dba388ac694c2f6db039f926344c918a1d96142a95c332a5403b21e94953a9c75bc27d4290a33044022003bd07a86cb31b9beabbeefa55f9343fdff77afd840da1a43a714948c32e70d1022004f86513ff6689c5553599ccc60da62e063411e484e250545f844a0ba3d1e57ffd94fa71bc0ba10d39d464d0d8f465efeef0a2764e3887fcc9df41ded20f505c8f588d1d1c8238435fe607f08ccd0fe7cf7ebf3b47c4a914dc89a8ca63ea2170000000000000000002b8e5de66ed2118f10257a41711b9ea630774c3aa7f5024f9a817532467b8b4403045022100bdfdaca42e7ebcdc0c799c304ebb7f4f162d4c37ff869f9a012172d4345e07eb02206f99bfb920976f2bd83e3484ec052e0eef5aa448d38b16360ed1feecea0c6c6d0440fa549a41856c4071dc4a7d8953557f7b91bd696d3edc5343150a9d2fffdc68fe5d74407187f55f0a8df82ce750758d60bdc492438c3c7713f1808d424d89b7304402204589a23a4ae5fffecd010376a06f13d58e936c79a3aec7327e5d0da466838790022038c9a6b4b2c2450b9b9a0c714989e4a7775c6523c6872fa3c915b093f594527100000000000000000000000000000000000000000000000000000000000000",
            "debugEnable": true,
            "errorInfo": "",
            "eventCount": 1,
            "feeRecipient": "0x829bd824b016326a401d083b33d092293333a830",
            "formatValue": "0",
            "gasLimit": 250000,
            "gasPrice": "20",
            "gasUsed": 79324,
            "intTxnCount": 8,
            "internalRevert": false,
            "internalRevertMessage": "",
            "isContractCreation": false,
            "isFlashloan": false,
            "maxFee": "",
            "nonce": 290745,
            "overwritedBlockNumber": -1,
            "priorityFee": "",
            "receiver": "0xe5a04d98538231b0fab9aba60cd73ce4ff3039df",
            "revertMessage": "",
            "sender": "0x26588a9301b0428d95e6fc3a5024fce8bec12d51",
            "simulationEnable": true,
            "sourceTxnHash": "0xb30201361fd087cf1dde5656701642151186dbfb5fd25b090ffa8c92fb7341ed",
            "status": true,
            "timestamp": "2017-10-17T01:49:20Z",
            "transactionFee": "0.00158648",
            "txnHash": "0xb30201361fd087cf1dde5656701642151186dbfb5fd25b090ffa8c92fb7341ed",
            "txnIndex": 2,
            "type": 0,
            "value": "0"
        },
        "fund_flow": [
            {
                "amount": "1.950322723396",
                "from": "0xe5a04d98538231b0fab9aba60cd73ce4ff3039df",
                "id": 1,
                "isERC1155": false,
                "isERC721": false,
                "isReverted": false,
                "order": 1,
                "to": "0xfa19a127a167112952cd475cba9abb2663dace46",
                "token": "0xeeeeeeeeeeeeeeeeeeeeeeeeeeeeeeeeeeeeeeee"
            }
        ],
        "token_infos": [
            {
                "address": "0xc02aaa39b223fe8d0a0e5c4f27ead9083c756cc2",
                "decimals": 18
            },
            {
                "address": "0xeeeeeeeeeeeeeeeeeeeeeeeeeeeeeeeeeeeeeeee",
                "decimals": 18
            }
        ]
    },
    "address_label": {
        "labels": [
            {
                "address": "0x0000000000000000000000000000000000000002",
                "label": "Precompiled"
            },
            {
                "address": "0x26588a9301b0428d95e6fc3a5024fce8bec12d51",
                "label": "0x2658_Oraclize"
            },
            {
                "address": "0x3dbdc81a6edc94c720b0b88fb65dbd7e395fdcf6",
                "label": "0x3dbd_Oraclize"
            },
            {
                "address": "0x0000000000000000000000000000000000000003",
                "label": "Precompiled"
            },
            {
                "address": "0x0000000000000000000000000000000000000004",
                "label": "Precompiled"
            },
            {
                "address": "0xeeeeeeeeeeeeeeeeeeeeeeeeeeeeeeeeeeeeeeee",
                "label": "Ether"
            },
            {
                "address": "0x1d3b2638a7cc9f2cb3d298a3da7a90b67e5506ed",
                "label": "OraclizeAddrResolver"
            },
            {
                "address": "0xe5a04d98538231b0fab9aba60cd73ce4ff3039df",
                "label": "EtherFlip"
            },
            {
                "address": "0x0000000000000000000000000000000000000001",
                "label": "Precompiled"
            }
        ]
    },
    "trace": {
        "accountLabels": null,
        "dataMap": {
            "-1": {
                "invocation": {
                    "address": "0x26588a9301b0428d95e6fc3a5024fce8bec12d51",
                    "callData": "",
                    "decodedMethod": null,
                    "errorInfo": "",
                    "fromAddress": "",
                    "gasUsed": 0,
                    "id": -1,
                    "methodDecoded": false,
                    "operation": "",
                    "output": "",
                    "revert": false,
                    "revertMessage": "",
                    "selector": "",
                    "status": false,
                    "value": ""
                },
                "nodeType": 0
            },
            "0": {
                "invocation": {
                    "address": "0xe5a04d98538231b0fab9aba60cd73ce4ff3039df",
                    "callData": "0x11aea91f0641fb67f69486fb6468bd05225b905f917ed3eb7db566519c80eb9e000000000000000000000000000000000000000000000000000000000000006000000000000000000000000000000000000000000000000000000000000000a00000000000000000000000000000000000000000000000000000000000000002d73500000000000000000000000000000000000000000000000000000000000000000000000000000000000000000000000000000000000000000000000001c14c50010498c36fc999f7a37ffffe7e4207142d9f708b96f190cfaed75133dba388ac694c2f6db039f926344c918a1d96142a95c332a5403b21e94953a9c75bc27d4290a33044022003bd07a86cb31b9beabbeefa55f9343fdff77afd840da1a43a714948c32e70d1022004f86513ff6689c5553599ccc60da62e063411e484e250545f844a0ba3d1e57ffd94fa71bc0ba10d39d464d0d8f465efeef0a2764e3887fcc9df41ded20f505c8f588d1d1c8238435fe607f08ccd0fe7cf7ebf3b47c4a914dc89a8ca63ea2170000000000000000002b8e5de66ed2118f10257a41711b9ea630774c3aa7f5024f9a817532467b8b4403045022100bdfdaca42e7ebcdc0c799c304ebb7f4f162d4c37ff869f9a012172d4345e07eb02206f99bfb920976f2bd83e3484ec052e0eef5aa448d38b16360ed1feecea0c6c6d0440fa549a41856c4071dc4a7d8953557f7b91bd696d3edc5343150a9d2fffdc68fe5d74407187f55f0a8df82ce750758d60bdc492438c3c7713f1808d424d89b7304402204589a23a4ae5fffecd010376a06f13d58e936c79a3aec7327e5d0da466838790022038c9a6b4b2c2450b9b9a0c714989e4a7775c6523c6872fa3c915b093f594527100000000000000000000000000000000000000000000000000000000000000",
                    "decodedMethod": {
                        "callParams": [
                            {
                                "name": "_queryId",
                                "type": "bytes32",
                                "value": "0x11aea91f0641fb67f69486fb6468bd05225b905f917ed3eb7db566519c80eb9e"
                            },
                            {
                                "name": "_result",
                                "type": "string",
                                "value": "\ufffd5"
                            },
                            {
                                "name": "_proof",
                                "type": "bytes",
                                "value": "0x4c50010498c36fc999f7a37ffffe7e4207142d9f708b96f190cfaed75133dba388ac694c2f6db039f926344c918a1d96142a95c332a5403b21e94953a9c75bc27d4290a33044022003bd07a86cb31b9beabbeefa55f9343fdff77afd840da1a43a714948c32e70d1022004f86513ff6689c5553599ccc60da62e063411e484e250545f844a0ba3d1e57ffd94fa71bc0ba10d39d464d0d8f465efeef0a2764e3887fcc9df41ded20f505c8f588d1d1c8238435fe607f08ccd0fe7cf7ebf3b47c4a914dc89a8ca63ea2170000000000000000002b8e5de66ed2118f10257a41711b9ea630774c3aa7f5024f9a817532467b8b4403045022100bdfdaca42e7ebcdc0c799c304ebb7f4f162d4c37ff869f9a012172d4345e07eb02206f99bfb920976f2bd83e3484ec052e0eef5aa448d38b16360ed1feecea0c6c6d0440fa549a41856c4071dc4a7d8953557f7b91bd696d3edc5343150a9d2fffdc68fe5d74407187f55f0a8df82ce750758d60bdc492438c3c7713f1808d424d89b7304402204589a23a4ae5fffecd010376a06f13d58e936c79a3aec7327e5d0da466838790022038c9a6b4b2c2450b9b9a0c714989e4a7775c6523c6872fa3c915b093f5945271"
                            }
                        ],
                        "constructorArguments": "",
                        "name": "__callback",
                        "returnParams": [],
                        "signature": "__callback(bytes32,string,bytes)"
                    },
                    "errorInfo": "",
                    "fromAddress": "0x26588a9301b0428d95e6fc3a5024fce8bec12d51",
                    "gasUsed": 79324,
                    "id": 0,
                    "methodDecoded": true,
                    "operation": "CALL",
                    "output": "",
                    "revert": false,
                    "revertMessage": "",
                    "selector": "0x38bbfa50",
                    "status": true,
                    "value": "0"
                },
                "nodeType": 0
            },
            "1": {
                "invocation": {
                    "address": "0x1d3b2638a7cc9f2cb3d298a3da7a90b67e5506ed",
                    "callData": "0x",
                    "decodedMethod": {
                        "callParams": [],
                        "constructorArguments": "",
                        "name": "getAddress",
                        "returnParams": [
                            {
                                "name": "oaddr",
                                "type": "address",
                                "value": "0x3dbdc81a6edc94c720b0b88fb65dbd7e395fdcf6"
                            }
                        ],
                        "signature": "getAddress()"
                    },
                    "errorInfo": "",
                    "fromAddress": "0xe5a04d98538231b0fab9aba60cd73ce4ff3039df",
                    "gasUsed": 418,
                    "id": 1,
                    "methodDecoded": true,
                    "operation": "CALL",
                    "output": "0x0000000000000000000000003dbdc81a6edc94c720b0b88fb65dbd7e395fdcf6",
                    "revert": false,
                    "revertMessage": "",
                    "selector": "0x38cc4831",
                    "status": true,
                    "value": "0"
                },
                "nodeType": 0
            },
            "2": {
                "invocation": {
                    "address": "0x3dbdc81a6edc94c720b0b88fb65dbd7e395fdcf6",
                    "callData": "0x",
                    "decodedMethod": {
                        "callParams": [],
                        "constructorArguments": "",
                        "name": "cbAddress",
                        "returnParams": [
                            {
                                "name": "_cbAddress",
                                "type": "address",
                                "value": "0x26588a9301b0428d95e6fc3a5024fce8bec12d51"
                            }
                        ],
                        "signature": "cbAddress()"
                    },
                    "errorInfo": "",
                    "fromAddress": "0xe5a04d98538231b0fab9aba60cd73ce4ff3039df",
                    "gasUsed": 1444,
                    "id": 2,
                    "methodDecoded": true,
                    "operation": "CALL",
                    "output": "0x00000000000000000000000026588a9301b0428d95e6fc3a5024fce8bec12d51",
                    "revert": false,
                    "revertMessage": "",
                    "selector": "0xc281d19e",
                    "status": true,
                    "value": "0"
                },
                "nodeType": 0
            },
            "3": {
                "invocation": {
                    "address": "0x0000000000000000000000000000000000000002",
                    "callData": "0x6d61696e6e657411aea91f0641fb67f69486fb6468bd05225b905f917ed3eb7db566519c80eb9e",
                    "decodedMethod": {
                        "callParams": [
                            {
                                "name": "data",
                                "type": "bytes",
                                "value": "0x6574685f6d61696e6e657411aea91f0641fb67f69486fb6468bd05225b905f917ed3eb7db566519c80eb9e"
                            }
                        ],
                        "constructorArguments": "",
                        "name": "sha256hash",
                        "returnParams": [
                            {
                                "name": "hash",
                                "type": "bytes32",
                                "value": "0x8f588d1d1c8238435fe607f08ccd0fe7cf7ebf3b47c4a914dc89a8ca63ea2170"
                            }
                        ],
                        "signature": "sha256hash(bytes)"
                    },
                    "errorInfo": "",
                    "fromAddress": "0xe5a04d98538231b0fab9aba60cd73ce4ff3039df",
                    "gasUsed": 84,
                    "id": 3,
                    "methodDecoded": true,
                    "operation": "CALL",
                    "output": "0x8f588d1d1c8238435fe607f08ccd0fe7cf7ebf3b47c4a914dc89a8ca63ea2170",
                    "revert": false,
                    "revertMessage": "",
                    "selector": "0x6574685f",
                    "status": true,
                    "value": "0"
                },
                "nodeType": 0
            },
            "4": {
                "invocation": {
                    "address": "0x0000000000000000000000000000000000000002",
                    "callData": "0x00bdfdaca42e7ebcdc0c799c304ebb7f4f162d4c37ff869f9a012172d4345e07eb02206f99bfb920976f2bd83e3484ec052e0eef5aa448d38b16360ed1feecea0c6c6d",
                    "decodedMethod": {
                        "callParams": [
                            {
                                "name": "data",
                                "type": "bytes",
                                "value": "0x3045022100bdfdaca42e7ebcdc0c799c304ebb7f4f162d4c37ff869f9a012172d4345e07eb02206f99bfb920976f2bd83e3484ec052e0eef5aa448d38b16360ed1feecea0c6c6d"
                            }
                        ],
                        "constructorArguments": "",
                        "name": "sha256hash",
                        "returnParams": [
                            {
                                "name": "hash",
                                "type": "bytes32",
                                "value": "0xd7354074b35ef290ae4f1b42a2b6b16feab95c0e57ee1099dde46a8795ab44d3"
                            }
                        ],
                        "signature": "sha256hash(bytes)"
                    },
                    "errorInfo": "",
                    "fromAddress": "0xe5a04d98538231b0fab9aba60cd73ce4ff3039df",
                    "gasUsed": 96,
                    "id": 4,
                    "methodDecoded": true,
                    "operation": "CALL",
                    "output": "0xd7354074b35ef290ae4f1b42a2b6b16feab95c0e57ee1099dde46a8795ab44d3",
                    "revert": false,
                    "revertMessage": "",
                    "selector": "0x30450221",
                    "status": true,
                    "value": "0"
                },
                "nodeType": 0
            },
            "5": {
                "invocation": {
                    "address": "0x0000000000000000000000000000000000000002",
                    "callData": "0x41856c4071dc4a7d8953557f7b91bd696d3edc5343150a9d2fffdc68fe5d74407187f55f0a8df82ce750758d60bdc492438c3c7713f1808d424d89b7",
                    "decodedMethod": {
                        "callParams": [
                            {
                                "name": "data",
                                "type": "bytes",
                                "value": "0x40fa549a41856c4071dc4a7d8953557f7b91bd696d3edc5343150a9d2fffdc68fe5d74407187f55f0a8df82ce750758d60bdc492438c3c7713f1808d424d89b7"
                            }
                        ],
                        "constructorArguments": "",
                        "name": "sha256hash",
                        "returnParams": [
                            {
                                "name": "hash",
                                "type": "bytes32",
                                "value": "0x3026b44b0b8ac5e1a5443dd54e2ff1074790b4ae736a67d35cfc1464f7747f2d"
                            }
                        ],
                        "signature": "sha256hash(bytes)"
                    },
                    "errorInfo": "",
                    "fromAddress": "0xe5a04d98538231b0fab9aba60cd73ce4ff3039df",
                    "gasUsed": 84,
                    "id": 5,
                    "methodDecoded": true,
                    "operation": "CALL",
                    "output": "0x3026b44b0b8ac5e1a5443dd54e2ff1074790b4ae736a67d35cfc1464f7747f2d",
                    "revert": false,
                    "revertMessage": "",
                    "selector": "0x40fa549a",
                    "status": true,
                    "value": "0"
                },
                "nodeType": 0
            },
            "6": {
                "invocation": {
                    "address": "0x0000000000000000000000000000000000000002",
                    "callData": "0x1c8238435fe607f08ccd0fe7cf7ebf3b47c4a914dc89a8ca63ea2170000000000000000002b8e5de66ed2118f10257a41711b9ea630774c3aa7f5024f9a817532467b8b440",
                    "decodedMethod": {
                        "callParams": [
                            {
                                "name": "data",
                                "type": "bytes",
                                "value": "0x8f588d1d1c8238435fe607f08ccd0fe7cf7ebf3b47c4a914dc89a8ca63ea2170000000000000000002b8e5de66ed2118f10257a41711b9ea630774c3aa7f5024f9a817532467b8b440"
                            }
                        ],
                        "constructorArguments": "",
                        "name": "sha256hash",
                        "returnParams": [
                            {
                                "name": "hash",
                                "type": "bytes32",
                                "value": "0xc320651c20e219aafba564a0752b8777b25e9bb8a30d30ba0ccc997f07c7ffb5"
                            }
                        ],
                        "signature": "sha256hash(bytes)"
                    },
                    "errorInfo": "",
                    "fromAddress": "0xe5a04d98538231b0fab9aba60cd73ce4ff3039df",
                    "gasUsed": 96,
                    "id": 6,
                    "methodDecoded": true,
                    "operation": "CALL",
                    "output": "0xc320651c20e219aafba564a0752b8777b25e9bb8a30d30ba0ccc997f07c7ffb5",
                    "revert": false,
                    "revertMessage": "",
                    "selector": "0x8f588d1d",
                    "status": true,
                    "value": "0"
                },
                "nodeType": 0
            },
            "7": {
                "invocation": {
                    "address": "0x0000000000000000000000000000000000000001",
                    "callData": "0x20e219aafba564a0752b8777b25e9bb8a30d30ba0ccc997f07c7ffb5000000000000000000000000000000000000000000000000000000000000001bbdfdaca42e7ebcdc0c799c304ebb7f4f162d4c37ff869f9a012172d4345e07eb6f99bfb920976f2bd83e3484ec052e0eef5aa448d38b16360ed1feecea0c6c6d",
                    "decodedMethod": {
                        "callParams": [
                            {
                                "name": "hash",
                                "type": "bytes32",
                                "value": "0xc320651c20e219aafba564a0752b8777b25e9bb8a30d30ba0ccc997f07c7ffb5"
                            },
                            {
                                "name": "v",
                                "type": "uint256",
                                "value": "27"
                            },
                            {
                                "name": "r",
                                "type": "bytes32",
                                "value": "0xbdfdaca42e7ebcdc0c799c304ebb7f4f162d4c37ff869f9a012172d4345e07eb"
                            },
                            {
                                "name": "s",
                                "type": "bytes32",
                                "value": "0x6f99bfb920976f2bd83e3484ec052e0eef5aa448d38b16360ed1feecea0c6c6d"
                            }
                        ],
                        "constructorArguments": "",
                        "name": "ecrecover",
                        "returnParams": [
                            {
                                "name": "",
                                "type": "address",
                                "value": "0x2f6a251b971fa28d5e7c52088f2643e59f905eea"
                            }
                        ],
                        "signature": "ecrecover(bytes32,uint256,bytes32,bytes32)"
                    },
                    "errorInfo": "",
                    "fromAddress": "0xe5a04d98538231b0fab9aba60cd73ce4ff3039df",
                    "gasUsed": 3000,
                    "id": 7,
                    "methodDecoded": true,
                    "operation": "CALL",
                    "output": "0x0000000000000000000000002f6a251b971fa28d5e7c52088f2643e59f905eea",
                    "revert": false,
                    "revertMessage": "",
                    "selector": "0xc320651c",
                    "status": true,
                    "value": "0"
                },
                "nodeType": 0
            },
            "8": {
                "event": {
                    "contract": "0xe5a04d98538231b0fab9aba60cd73ce4ff3039df",
                    "decodedLog": {
                        "name": "newRandomValue",
                        "params": [
                            {
                                "name": "arg0",
                                "type": "bytes",
                                "value": "0xd735"
                            },
                            {
                                "name": "arg1",
                                "type": "address",
                                "value": "0xfa19a127a167112952cd475cba9abb2663dace46"
                            },
                            {
                                "name": "arg2",
                                "type": "uint256",
                                "value": "1,000,000,000,000,000,000"
                            }
                        ],
                        "signature": "newRandomValue(bytes,address,uint256)"
                    },
                    "id": 8,
                    "logData": "0x0000000000000000000000000000000000000000000000000000000000000060000000000000000000000000fa19a127a167112952cd475cba9abb2663dace460000000000000000000000000000000000000000000000000de0b6b3a76400000000000000000000000000000000000000000000000000000000000000000002d735000000000000000000000000000000000000000000000000000000000000",
                    "logDecoded": true,
                    "operation": "EVENT",
                    "revert": false,
                    "status": true,
                    "topics": [
                        "0x415dd7d82991e4e21ecad382aa50f383797032ba19813f9f525fffdc6941d477"
                    ]
                },
                "nodeType": 1
            },
            "9": {
                "invocation": {
                    "address": "0xfa19a127a167112952cd475cba9abb2663dace46",
                    "callData": "0x",
                    "decodedMethod": null,
                    "errorInfo": "",
                    "fromAddress": "0xe5a04d98538231b0fab9aba60cd73ce4ff3039df",
                    "gasUsed": 0,
                    "id": 9,
                    "methodDecoded": false,
                    "operation": "CALL",
                    "output": "",
                    "revert": false,
                    "revertMessage": "",
                    "selector": "fallback",
                    "status": true,
                    "value": "1.950322723396"
                },
                "nodeType": 0
            }
        },
        "gasFlame": [
            {
                "children": [
                    {
                        "children": [
                            {
                                "children": [],
                                "depth": 0,
                                "name": "Initial Gas",
                                "value": 54616
                            },
                            {
                                "children": [
                                    {
                                        "children": [],
                                        "depth": 1,
                                        "name": "getAddress",
                                        "value": 418
                                    },
                                    {
                                        "children": [],
                                        "depth": 1,
                                        "name": "cbAddress",
                                        "value": 1444
                                    },
                                    {
                                        "children": [],
                                        "depth": 1,
                                        "name": "sha256hash",
                                        "value": 84
                                    },
                                    {
                                        "children": [],
                                        "depth": 1,
                                        "name": "sha256hash",
                                        "value": 96
                                    },
                                    {
                                        "children": [],
                                        "depth": 1,
                                        "name": "sha256hash",
                                        "value": 84
                                    },
                                    {
                                        "children": [],
                                        "depth": 1,
                                        "name": "sha256hash",
                                        "value": 96
                                    },
                                    {
                                        "children": [],
                                        "depth": 1,
                                        "name": "ecrecover",
                                        "value": 3000
                                    },
                                    {
                                        "children": [],
                                        "depth": 1,
                                        "name": "fallback",
                                        "value": 0
                                    }
                                ],
                                "depth": 0,
                                "name": "Executed Gas",
                                "value": 69708
                            }
                        ],
                        "depth": -1,
                        "name": "Actual Gas Used",
                        "value": 79324
                    },
                    {
                        "children": [],
                        "depth": -1,
                        "name": "Refunded Gas",
                        "value": 45000
                    }
                ],
                "depth": -2,
                "name": "Total Gas",
                "value": 124324
            }
        ],
        "isConfirmed": true,
        "mainTrace": [
            {
                "children": [
                    {
                        "children": [
                            {
                                "children": [],
                                "depth": 1,
                                "id": 1,
                                "order": 1
                            },
                            {
                                "children": [],
                                "depth": 1,
                                "id": 2,
                                "order": 2
                            },
                            {
                                "children": [],
                                "depth": 1,
                                "id": 3,
                                "order": 3
                            },
                            {
                                "children": [],
                                "depth": 1,
                                "id": 4,
                                "order": 4
                            },
                            {
                                "children": [],
                                "depth": 1,
                                "id": 5,
                                "order": 5
                            },
                            {
                                "children": [],
                                "depth": 1,
                                "id": 6,
                                "order": 6
                            },
                            {
                                "children": [],
                                "depth": 1,
                                "id": 7,
                                "order": 7
                            },
                            {
                                "children": [],
                                "depth": 1,
                                "id": 8,
                                "order": 8
                            },
                            {
                                "children": [],
                                "depth": 1,
                                "id": 9,
                                "order": 9
                            }
                        ],
                        "depth": 0,
                        "id": 0,
                        "order": 0
                    }
                ],
                "depth": -1,
                "id": -1,
                "order": -1
            }
        ],
        "mainTraceNodeCount": 10,
        "parentIdMap": {
            "0": -1,
            "1": 0,
            "2": 0,
            "3": 0,
            "4": 0,
            "5": 0,
            "6": 0,
            "7": 0,
            "8": 0,
            "9": 0
        },
        "tidyTrace": [
            {
                "children": [
                    {
                        "children": [
                            {
                                "children": [],
                                "depth": 1,
                                "id": 1,
                                "order": 1
                            },
                            {
                                "children": [],
                                "depth": 1,
                                "id": 2,
                                "order": 2
                            },
                            {
                                "children": [],
                                "depth": 1,
                                "id": 3,
                                "order": 3
                            },
                            {
                                "children": [],
                                "depth": 1,
                                "id": 4,
                                "order": 4
                            },
                            {
                                "children": [],
                                "depth": 1,
                                "id": 5,
                                "order": 5
                            },
                            {
                                "children": [],
                                "depth": 1,
                                "id": 6,
                                "order": 6
                            },
                            {
                                "children": [],
                                "depth": 1,
                                "id": 7,
                                "order": 7
                            },
                            {
                                "children": [],
                                "depth": 1,
                                "id": 8,
                                "order": 8
                            },
                            {
                                "children": [],
                                "depth": 1,
                                "id": 9,
                                "order": 9
                            }
                        ],
                        "depth": 0,
                        "id": 0,
                        "order": 0
                    }
                ],
                "depth": -1,
                "id": -1,
                "order": -1
            }
        ],
        "tidyTraceNodeCount": 10
    },
    "state_change": {
        "stateChanges": [
            {
                "address": "0xe5a04d98538231b0fab9aba60cd73ce4ff3039df",
                "erc": "",
                "slots": [
                    {
                        "current": "0x0000000000000000000000000000000000000000000000000000000000000000",
                        "key": "0x40964fbce19825a08c804e0a52345b96d71c4d0cb56e3c910ce0841a816048e7",
                        "prev": "0x5cc9c04f13075fafae3198841661d19237cc3384489be0a39ed9164a2d58189d"
                    },
                    {
                        "current": "0x000000000000000000000000000000000000000000000000000000000000618e",
                        "key": "0x000000000000000000000000000000000000000000000000000000000000000c",
                        "prev": "0x0000000000000000000000000000000000000000000000000000000000008a86"
                    },
                    {
                        "current": "0x0000000000000000000000000000000000000000000000000000000000000000",
                        "key": "0x6e362f14a26e0174785b4d0bb2f483070fbb5db3bdea50db7c53628beaa95546",
                        "prev": "0x000000000000000000000000fa19a127a167112952cd475cba9abb2663dace46"
                    },
                    {
                        "current": "0x0000000000000000000000000000000000000000000000000000000000000000",
                        "key": "0xe83578e0c54ccc024ae0ac7706f4e0bdfb1db2bbb32186ea5a322b0eca72638a",
                        "prev": "0x0000000000000000000000000000000000000000000000000de0b6b3a7640000"
                    }
                ],
                "storageVariables": []
            }
        ]
    }
}