{
    "balance_change": {
        "balanceChanges": []
    },
    "profile": {
        "basic_info": {
            "baseFee": "14.641633807",
            "blockNumber": 17534746,
            "callData": "0x5578ceae000000000000000000000000000000000000000000000000000000000042772400000000000000000000000000000000000000000000000000000000000000a005393ccc718c81ef181bf15a95235030fbb0015d2846e43cd4839cdd143a637101dbca01abf545e730ce59d9badfde65b1e0f83b4eec8cd0a141a9343825016f0800000000000011000000000000000000000000000000000000000000000001000000000000000000000000000000000000000000000000000000000000000701087b163ec75695021d31f4fb3c94e511754a054dbcd3068a4beb8b0ccc89f306aa3d011a590bcc736d266fb4ad586b30105d950c64d5c642b24a169fc6295300000000000000000000000000000000000000000000000000000000000154ea067c49692e19e314cd6a8c6615801644fb5a87d9467076f87cdd82850471ae29017c0bc29d31e9a7d14671610a7626264ce9ce8e3ed066a4775adf9b123de9dd00000000000000000000000000000000000000000000000000000000000000000000000000000000000000000000000000000000000000000000000000000000",
            "debugEnable": true,
            "errorInfo": "",
            "eventCount": 1,
            "feeRecipient": "0x95222290dd7278aa3ddd389cc1e1d165cc4bafe5",
            "formatValue": "0",
            "gasLimit": 11000000,
            "gasPrice": "15.641633807",
            "gasUsed": 53493,
            "intTxnCount": 0,
            "internalRevert": false,
            "internalRevertMessage": "",
            "isContractCreation": false,
            "isFlashloan": false,
            "maxFee": "150",
            "nonce": 156909,
            "overwritedBlockNumber": -1,
            "priorityFee": "1",
            "receiver": "0xfd14567eaf9ba941cb8c8a94eec14831ca7fd1b4",
            "revertMessage": "",
            "sender": "0x16d5783a96ab20c9157d7933ac236646b29589a4",
            "simulationEnable": true,
            "sourceTxnHash": "0xb3c64bab1e95dad41eededcea8a638df9985f2349b2e38a0381fdf2d4b53bd91",
            "status": true,
            "timestamp": "2023-06-22T11:04:35Z",
            "transactionFee": "0.000836717917237851",
            "txnHash": "0xb3c64bab1e95dad41eededcea8a638df9985f2349b2e38a0381fdf2d4b53bd91",
            "txnIndex": 84,
            "type": 2,
            "value": "0"
        },
        "fund_flow": [],
        "token_infos": [
            {
                "address": "0xc02aaa39b223fe8d0a0e5c4f27ead9083c756cc2",
                "decimals": 18
            },
            {
                "address": "0xeeeeeeeeeeeeeeeeeeeeeeeeeeeeeeeeeeeeeeee",
                "decimals": 18
            }
        ]
    },
    "address_label": {
        "labels": [
            {
                "address": "0x0000000000000000000000000000000000000002",
                "label": "Precompiled"
            },
            {
                "address": "0x0000000000000000000000000000000000000003",
                "label": "Precompiled"
            },
            {
                "address": "0x0000000000000000000000000000000000000004",
                "label": "Precompiled"
            },
            {
                "address": "0xeeeeeeeeeeeeeeeeeeeeeeeeeeeeeeeeeeeeeeee",
                "label": "Ether"
            },
            {
                "address": "0x16d5783a96ab20c9157d7933ac236646b29589a4",
                "label": "SHARP Blockchain Writer"
            },
            {
                "address": "0xfd14567eaf9ba941cb8c8a94eec14831ca7fd1b4",
                "label": "StarkEx: SHARP"
            },
            {
                "address": "0x0000000000000000000000000000000000000001",
                "label": "Precompiled"
            }
        ]
    },
    "trace": {
        "accountLabels": null,
        "dataMap": {
            "-1": {
                "invocation": {
                    "address": "0x16d5783a96ab20c9157d7933ac236646b29589a4",
                    "callData": "",
                    "decodedMethod": null,
                    "errorInfo": "",
                    "fromAddress": "",
                    "gasUsed": 0,
                    "id": -1,
                    "methodDecoded": false,
                    "operation": "",
                    "output": "",
                    "revert": false,
                    "revertMessage": "",
                    "selector": "",
                    "status": false,
                    "value": ""
                },
                "nodeType": 0
            },
            "0": {
                "invocation": {
                    "address": "0xfd14567eaf9ba941cb8c8a94eec14831ca7fd1b4",
                    "callData": "0x000000000000000000000000000000000000000000000000000000000042772400000000000000000000000000000000000000000000000000000000000000a005393ccc718c81ef181bf15a95235030fbb0015d2846e43cd4839cdd143a637101dbca01abf545e730ce59d9badfde65b1e0f83b4eec8cd0a141a9343825016f0800000000000011000000000000000000000000000000000000000000000001000000000000000000000000000000000000000000000000000000000000000701087b163ec75695021d31f4fb3c94e511754a054dbcd3068a4beb8b0ccc89f306aa3d011a590bcc736d266fb4ad586b30105d950c64d5c642b24a169fc6295300000000000000000000000000000000000000000000000000000000000154ea067c49692e19e314cd6a8c6615801644fb5a87d9467076f87cdd82850471ae29017c0bc29d31e9a7d14671610a7626264ce9ce8e3ed066a4775adf9b123de9dd00000000000000000000000000000000000000000000000000000000000000000000000000000000000000000000000000000000000000000000000000000000",
                    "decodedMethod": {
                        "callParams": [
                            {
                                "name": "startAddr",
                                "type": "uint256",
                                "value": "4,355,876"
                            },
                            {
                                "name": "values",
                                "type": "uint256[]",
                                "value": [
                                    "467,297,139,632,340,446,858,997,116,081,554,083,597,983,401,455,303,534,029,793,761,412,386,687,475",
                                    "3,014,662,128,773,775,577,271,149,709,213,234,677,748,945,156,895,976,882,236,835,545,211,484,907,859",
                                    "87,274",
                                    "2,933,472,790,664,848,474,833,695,339,254,582,387,074,444,830,125,364,058,394,437,933,966,298,295,849",
                                    "671,483,050,609,816,861,429,812,414,688,707,376,174,032,882,875,357,307,847,551,691,140,236,175,837",
                                    "0",
                                    "0"
                                ]
                            },
                            {
                                "name": "z",
                                "type": "uint256",
                                "value": "2,362,694,142,176,717,795,090,016,106,527,808,721,512,468,749,658,824,396,553,679,102,517,836,407,665"
                            },
                            {
                                "name": "alpha",
                                "type": "uint256",
                                "value": "840,646,553,601,032,276,979,246,540,822,000,712,423,630,287,342,225,467,470,849,457,977,217,581,423"
                            },
                            {
                                "name": "prime",
                                "type": "uint256",
                                "value": "3,618,502,788,666,131,213,697,322,783,095,070,105,623,107,215,331,596,699,973,092,056,135,872,020,481"
                            }
                        ],
                        "constructorArguments": "",
                        "name": "registerContinuousMemoryPage",
                        "returnParams": [
                            {
                                "name": "factHash",
                                "type": "bytes32",
                                "value": "0x48571af6fb43bb34d6d31281a43ae5ecfd69b50f41c912129821e270c4b75a24"
                            },
                            {
                                "name": "memoryHash",
                                "type": "uint256",
                                "value": "93,718,578,338,268,710,117,870,323,780,748,047,377,527,489,203,220,952,722,682,369,729,980,406,668,059"
                            },
                            {
                                "name": "prod",
                                "type": "uint256",
                                "value": "790,829,592,109,977,149,551,794,095,206,737,116,670,473,415,138,598,449,353,862,612,022,155,144,323"
                            }
                        ],
                        "signature": "registerContinuousMemoryPage(uint256,uint256[],uint256,uint256,uint256)"
                    },
                    "errorInfo": "",
                    "fromAddress": "0x16d5783a96ab20c9157d7933ac236646b29589a4",
                    "gasUsed": 53493,
                    "id": 0,
                    "methodDecoded": true,
                    "operation": "CALL",
                    "output": "0x48571af6fb43bb34d6d31281a43ae5ecfd69b50f41c912129821e270c4b75a24cf32d5e80f53cb55664dedea1b67123301cb39436eaf1e968135656ff89b9b1b01bf97fbdf3b5c47f4cd5fd1755d6d4f9fdb9093c8872290703facd8850dec83",
                    "revert": false,
                    "revertMessage": "",
                    "selector": "0x5578ceae",
                    "status": true,
                    "value": "0"
                },
                "nodeType": 0
            },
            "1": {
                "event": {
                    "contract": "0xfd14567eaf9ba941cb8c8a94eec14831ca7fd1b4",
                    "decodedLog": {
                        "name": "LogMemoryPageFactContinuous",
                        "params": [
                            {
                                "name": "factHash",
                                "type": "bytes32",
                                "value": "0x48571af6fb43bb34d6d31281a43ae5ecfd69b50f41c912129821e270c4b75a24"
                            },
                            {
                                "name": "memoryHash",
                                "type": "uint256",
                                "value": "93,718,578,338,268,710,117,870,323,780,748,047,377,527,489,203,220,952,722,682,369,729,980,406,668,059"
                            },
                            {
                                "name": "prod",
                                "type": "uint256",
                                "value": "790,829,592,109,977,149,551,794,095,206,737,116,670,473,415,138,598,449,353,862,612,022,155,144,323"
                            }
                        ],
                        "signature": "LogMemoryPageFactContinuous(bytes32,uint256,uint256)"
                    },
                    "id": 1,
                    "logData": "0x48571af6fb43bb34d6d31281a43ae5ecfd69b50f41c912129821e270c4b75a24cf32d5e80f53cb55664dedea1b67123301cb39436eaf1e968135656ff89b9b1b01bf97fbdf3b5c47f4cd5fd1755d6d4f9fdb9093c8872290703facd8850dec83",
                    "logDecoded": true,
                    "operation": "EVENT",
                    "revert": false,
                    "status": true,
                    "topics": [
                        "0xb8b9c39aeba1cfd98c38dfeebe11c2f7e02b334cbe9f05f22b442a5d9c1ea0c5"
                    ]
                },
                "nodeType": 1
            }
        },
        "gasFlame": [
            {
                "children": [
                    {
                        "children": [
                            {
                                "children": [],
                                "depth": 0,
                                "name": "Initial Gas",
                                "value": 25164
                            },
                            {
                                "children": [],
                                "depth": 0,
                                "name": "Executed Gas",
                                "value": 28329
                            }
                        ],
                        "depth": -1,
                        "name": "Actual Gas Used",
                        "value": 53493
                    },
                    {
                        "children": [],
                        "depth": -1,
                        "name": "Refunded Gas",
                        "value": 0
                    }
                ],
                "depth": -2,
                "name": "Total Gas",
                "value": 53493
            }
        ],
        "isConfirmed": true,
        "mainTrace": [
            {
                "children": [
                    {
                        "children": [
                            {
                                "children": [],
                                "depth": 1,
                                "id": 1,
                                "order": 1
                            }
                        ],
                        "depth": 0,
                        "id": 0,
                        "order": 0
                    }
                ],
                "depth": -1,
                "id": -1,
                "order": -1
            }
        ],
        "mainTraceNodeCount": 2,
        "parentIdMap": {
            "0": -1,
            "1": 0
        },
        "tidyTrace": [
            {
                "children": [
                    {
                        "children": [
                            {
                                "children": [],
                                "depth": 1,
                                "id": 1,
                                "order": 1
                            }
                        ],
                        "depth": 0,
                        "id": 0,
                        "order": 0
                    }
                ],
                "depth": -1,
                "id": -1,
                "order": -1
            }
        ],
        "tidyTraceNodeCount": 2
    },
    "state_change": {
        "stateChanges": [
            {
                "address": "0xfd14567eaf9ba941cb8c8a94eec14831ca7fd1b4",
                "erc": "",
                "slots": [
                    {
                        "current": "0x0000000000000000000000000000000000000000000000000000000000000001",
                        "key": "0x39cfe23a2b24015a60bde8b172e7064563f61bde0123321dbc2546bffe7031f6",
                        "prev": "0x0000000000000000000000000000000000000000000000000000000000000000"
                    }
                ],
                "storageVariables": [
                    {
                        "name": "verifiedFact",
                        "type": "mapping(bytes32 => bool)",
                        "value": {
                            "pairs": [
                                {
                                    "key": "0x48571af6fb43bb34d6d31281a43ae5ecfd69b50f41c912129821e270c4b75a24",
                                    "value": {
                                        "current": "true",
                                        "prev": "false",
                                        "typeTag": 1
                                    }
                                }
                            ],
                            "typeTag": 4
                        }
                    }
                ]
            }
        ]
    }
}