{
    "balance_change": {
        "balanceChanges": [
            {
                "account": "0x26fd5ad892f66b92134606232b0e741927b1ec2e",
                "assets": [
                    {
                        "address": "0x71320e08c267746616456aeca4efde73ed98caf3",
                        "amount": "995",
                        "iconUrl": "",
                        "isERC1155": false,
                        "isERC721": false,
                        "sign": false,
                        "value": ""
                    }
                ]
            },
            {
                "account": "0xc982e9f130a280010590e40284fff388fe3ef315",
                "assets": [
                    {
                        "address": "0x71320e08c267746616456aeca4efde73ed98caf3",
                        "amount": "995",
                        "iconUrl": "",
                        "isERC1155": false,
                        "isERC721": false,
                        "sign": true,
                        "value": ""
                    }
                ]
            }
        ]
    },
    "profile": {
        "basic_info": {
            "baseFee": "",
            "blockNumber": 5412966,
            "callData": "0xa9059cbb000000000000000000000000c982e9f130a280010590e40284fff388fe3ef315000000000000000000000000000000000000000000000035f0661c4399ac0000",
            "debugEnable": true,
            "errorInfo": "",
            "eventCount": 1,
            "feeRecipient": "0xea674fdde714fd979de3edf0f56aa9716b898ec8",
            "formatValue": "0",
            "gasLimit": 90000,
            "gasPrice": "5",
            "gasUsed": 36545,
            "intTxnCount": 0,
            "internalRevert": false,
            "internalRevertMessage": "",
            "isContractCreation": false,
            "isFlashloan": false,
            "maxFee": "",
            "nonce": 15866,
            "overwritedBlockNumber": -1,
            "priorityFee": "",
            "receiver": "0x71320e08c267746616456aeca4efde73ed98caf3",
            "revertMessage": "",
            "sender": "0x26fd5ad892f66b92134606232b0e741927b1ec2e",
            "simulationEnable": true,
            "sourceTxnHash": "0xb3349c9469cc22758de1843f739e08d7801d57a7cf286b2c4e89509bd1e4515e",
            "status": true,
            "timestamp": "2018-04-10T03:18:42Z",
            "transactionFee": "0.000182725",
            "txnHash": "0xb3349c9469cc22758de1843f739e08d7801d57a7cf286b2c4e89509bd1e4515e",
            "txnIndex": 17,
            "type": 0,
            "value": "0"
        },
        "fund_flow": [
            {
                "amount": "995",
                "from": "0x26fd5ad892f66b92134606232b0e741927b1ec2e",
                "id": 1,
                "isERC1155": false,
                "isERC721": false,
                "isReverted": false,
                "order": 1,
                "to": "0xc982e9f130a280010590e40284fff388fe3ef315",
                "token": "0x71320e08c267746616456aeca4efde73ed98caf3"
            }
        ],
        "token_infos": [
            {
                "address": "0xc02aaa39b223fe8d0a0e5c4f27ead9083c756cc2",
                "decimals": 18
            },
            {
                "address": "0xeeeeeeeeeeeeeeeeeeeeeeeeeeeeeeeeeeeeeeee",
                "decimals": 18
            },
            {
                "address": "0x71320e08c267746616456aeca4efde73ed98caf3",
                "decimals": 18
            }
        ]
    },
    "address_label": {
        "labels": [
            {
                "address": "0x71320e08c267746616456aeca4efde73ed98caf3",
                "label": "CCCoin"
            },
            {
                "address": "0x0000000000000000000000000000000000000001",
                "label": "Precompiled"
            },
            {
                "address": "0x0000000000000000000000000000000000000002",
                "label": "Precompiled"
            },
            {
                "address": "0x0000000000000000000000000000000000000003",
                "label": "Precompiled"
            },
            {
                "address": "0x0000000000000000000000000000000000000004",
                "label": "Precompiled"
            },
            {
                "address": "0xeeeeeeeeeeeeeeeeeeeeeeeeeeeeeeeeeeeeeeee",
                "label": "Ether"
            }
        ]
    },
    "trace": {
        "accountLabels": null,
        "dataMap": {
            "-1": {
                "invocation": {
                    "address": "0x26fd5ad892f66b92134606232b0e741927b1ec2e",
                    "callData": "",
                    "decodedMethod": null,
                    "errorInfo": "",
                    "fromAddress": "",
                    "gasUsed": 0,
                    "id": -1,
                    "methodDecoded": false,
                    "operation": "",
                    "output": "",
                    "revert": false,
                    "revertMessage": "",
                    "selector": "",
                    "status": false,
                    "value": ""
                },
                "nodeType": 0
            },
            "0": {
                "invocation": {
                    "address": "0x71320e08c267746616456aeca4efde73ed98caf3",
                    "callData": "0x000000000000000000000000c982e9f130a280010590e40284fff388fe3ef315000000000000000000000000000000000000000000000035f0661c4399ac0000",
                    "decodedMethod": {
                        "callParams": [
                            {
                                "name": "_to",
                                "type": "address",
                                "value": "0xc982e9f130a280010590e40284fff388fe3ef315"
                            },
                            {
                                "decimalAvailable": true,
                                "name": "_value",
                                "type": "uint256",
                                "value": "995,000,000,000,000,000,000"
                            }
                        ],
                        "constructorArguments": "",
                        "name": "transfer",
                        "returnParams": [
                            {
                                "name": "success",
                                "type": "bool",
                                "value": true
                            }
                        ],
                        "signature": "transfer(address,uint256)"
                    },
                    "errorInfo": "",
                    "fromAddress": "0x26fd5ad892f66b92134606232b0e741927b1ec2e",
                    "gasUsed": 36545,
                    "id": 0,
                    "methodDecoded": true,
                    "operation": "CALL",
                    "output": "0x0000000000000000000000000000000000000000000000000000000000000001",
                    "revert": false,
                    "revertMessage": "",
                    "selector": "0xa9059cbb",
                    "status": true,
                    "value": "0"
                },
                "nodeType": 0
            },
            "1": {
                "event": {
                    "contract": "0x71320e08c267746616456aeca4efde73ed98caf3",
                    "decodedLog": {
                        "name": "Transfer",
                        "params": [
                            {
                                "name": "_from",
                                "type": "address",
                                "value": "0x26fd5ad892f66b92134606232b0e741927b1ec2e"
                            },
                            {
                                "name": "_to",
                                "type": "address",
                                "value": "0xc982e9f130a280010590e40284fff388fe3ef315"
                            },
                            {
                                "decimalAvailable": true,
                                "name": "_value",
                                "type": "uint256",
                                "value": "995,000,000,000,000,000,000"
                            }
                        ],
                        "signature": "Transfer(address,address,uint256)"
                    },
                    "id": 1,
                    "logData": "0x000000000000000000000000000000000000000000000035f0661c4399ac0000",
                    "logDecoded": true,
                    "operation": "EVENT",
                    "revert": false,
                    "status": true,
                    "topics": [
                        "0xddf252ad1be2c89b69c2b068fc378daa952ba7f163c4a11628f55a4df523b3ef",
                        "0x00000000000000000000000026fd5ad892f66b92134606232b0e741927b1ec2e",
                        "0x000000000000000000000000c982e9f130a280010590e40284fff388fe3ef315"
                    ]
                },
                "nodeType": 1
            }
        },
        "gasFlame": [
            {
                "children": [
                    {
                        "children": [
                            {
                                "children": [],
                                "depth": 0,
                                "name": "Initial Gas",
                                "value": 23256
                            },
                            {
                                "children": [],
                                "depth": 0,
                                "name": "Executed Gas",
                                "value": 13289
                            }
                        ],
                        "depth": -1,
                        "name": "Actual Gas Used",
                        "value": 36545
                    },
                    {
                        "children": [],
                        "depth": -1,
                        "name": "Refunded Gas",
                        "value": 0
                    }
                ],
                "depth": -2,
                "name": "Total Gas",
                "value": 36545
            }
        ],
        "isConfirmed": true,
        "mainTrace": [
            {
                "children": [
                    {
                        "children": [
                            {
                                "children": [],
                                "depth": 1,
                                "id": 1,
                                "order": 1
                            }
                        ],
                        "depth": 0,
                        "id": 0,
                        "order": 0
                    }
                ],
                "depth": -1,
                "id": -1,
                "order": -1
            }
        ],
        "mainTraceNodeCount": 2,
        "parentIdMap": {
            "0": -1,
            "1": 0
        },
        "tidyTrace": [
            {
                "children": [
                    {
                        "children": [
                            {
                                "children": [],
                                "depth": 1,
                                "id": 1,
                                "order": 1
                            }
                        ],
                        "depth": 0,
                        "id": 0,
                        "order": 0
                    }
                ],
                "depth": -1,
                "id": -1,
                "order": -1
            }
        ],
        "tidyTraceNodeCount": 2
    },
    "state_change": {
        "stateChanges": [
            {
                "address": "0x71320e08c267746616456aeca4efde73ed98caf3",
                "erc": "ERC-20",
                "slots": [
                    {
                        "current": "0x000000000000000000000000000000000000000000041f85acb09605883a0000",
                        "key": "0x00443542e0dbee658d3a5c9cc1265b637a6080ce2f8168423dcab09870424be3",
                        "prev": "0x000000000000000000000000000000000000000000041fbb9d16b24921e60000"
                    },
                    {
                        "current": "0x0000000000000000000000000000000000000000000001187bac92f91f180000",
                        "key": "0xe64b69d93442fc6208a219d9c269ef05088f879af812bcffaa9178f1c1d899f1",
                        "prev": "0x0000000000000000000000000000000000000000000000e28b4676b5856c0000"
                    }
                ],
                "storageVariables": []
            }
        ]
    }
}