{
    "balance_change": {
        "balanceChanges": [
            {
                "account": "0xaeb24440e6da4f250a8d998fd9eb676bbf46cd7e",
                "assets": [
                    {
                        "address": "0xacce88f5a63a5e65db9aa7303720be16b556e751",
                        "amount": "88",
                        "iconUrl": "",
                        "isERC1155": false,
                        "isERC721": false,
                        "sign": false,
                        "value": ""
                    }
                ]
            },
            {
                "account": "0xae89582827f658324120f4fc7f0c2baadb108981",
                "assets": [
                    {
                        "address": "0xacce88f5a63a5e65db9aa7303720be16b556e751",
                        "amount": "88",
                        "iconUrl": "",
                        "isERC1155": false,
                        "isERC721": false,
                        "sign": true,
                        "value": ""
                    }
                ]
            }
        ]
    },
    "profile": {
        "basic_info": {
            "baseFee": "",
            "blockNumber": 5563932,
            "callData": "0xa9059cbb000000000000000000000000ae89582827f658324120f4fc7f0c2baadb108981000000000000000000000000000000000000000000000004c53ecdc18a600000",
            "debugEnable": true,
            "errorInfo": "",
            "eventCount": 1,
            "feeRecipient": "0x829bd824b016326a401d083b33d092293333a830",
            "formatValue": "0",
            "gasLimit": 60000,
            "gasPrice": "6.2",
            "gasUsed": 38387,
            "intTxnCount": 0,
            "internalRevert": false,
            "internalRevertMessage": "",
            "isContractCreation": false,
            "isFlashloan": false,
            "maxFee": "",
            "nonce": 1,
            "overwritedBlockNumber": -1,
            "priorityFee": "",
            "receiver": "0xacce88f5a63a5e65db9aa7303720be16b556e751",
            "revertMessage": "",
            "sender": "0xaeb24440e6da4f250a8d998fd9eb676bbf46cd7e",
            "simulationEnable": true,
            "sourceTxnHash": "0xb3682c1399b113e9571df7aec35f5f28f2843947fc0be4aa4979010a9eadda32",
            "status": true,
            "timestamp": "2018-05-06T02:53:55Z",
            "transactionFee": "0.0002379994",
            "txnHash": "0xb3682c1399b113e9571df7aec35f5f28f2843947fc0be4aa4979010a9eadda32",
            "txnIndex": 108,
            "type": 0,
            "value": "0"
        },
        "fund_flow": [
            {
                "amount": "88",
                "from": "0xaeb24440e6da4f250a8d998fd9eb676bbf46cd7e",
                "id": 1,
                "isERC1155": false,
                "isERC721": false,
                "isReverted": false,
                "order": 1,
                "to": "0xae89582827f658324120f4fc7f0c2baadb108981",
                "token": "0xacce88f5a63a5e65db9aa7303720be16b556e751"
            }
        ],
        "token_infos": [
            {
                "address": "0xacce88f5a63a5e65db9aa7303720be16b556e751",
                "decimals": 18
            },
            {
                "address": "0xc02aaa39b223fe8d0a0e5c4f27ead9083c756cc2",
                "decimals": 18
            },
            {
                "address": "0xeeeeeeeeeeeeeeeeeeeeeeeeeeeeeeeeeeeeeeee",
                "decimals": 18
            }
        ]
    },
    "address_label": {
        "labels": [
            {
                "address": "0x0000000000000000000000000000000000000004",
                "label": "Precompiled"
            },
            {
                "address": "0xeeeeeeeeeeeeeeeeeeeeeeeeeeeeeeeeeeeeeeee",
                "label": "Ether"
            },
            {
                "address": "0xacce88f5a63a5e65db9aa7303720be16b556e751",
                "label": "Coineal: NEAL Token"
            },
            {
                "address": "0x0000000000000000000000000000000000000001",
                "label": "Precompiled"
            },
            {
                "address": "0x0000000000000000000000000000000000000002",
                "label": "Precompiled"
            },
            {
                "address": "0x0000000000000000000000000000000000000003",
                "label": "Precompiled"
            }
        ]
    },
    "trace": {
        "accountLabels": null,
        "dataMap": {
            "-1": {
                "invocation": {
                    "address": "0xaeb24440e6da4f250a8d998fd9eb676bbf46cd7e",
                    "callData": "",
                    "decodedMethod": null,
                    "errorInfo": "",
                    "fromAddress": "",
                    "gasUsed": 0,
                    "id": -1,
                    "methodDecoded": false,
                    "operation": "",
                    "output": "",
                    "revert": false,
                    "revertMessage": "",
                    "selector": "",
                    "status": false,
                    "value": ""
                },
                "nodeType": 0
            },
            "0": {
                "invocation": {
                    "address": "0xacce88f5a63a5e65db9aa7303720be16b556e751",
                    "callData": "0x000000000000000000000000ae89582827f658324120f4fc7f0c2baadb108981000000000000000000000000000000000000000000000004c53ecdc18a600000",
                    "decodedMethod": {
                        "callParams": [
                            {
                                "name": "_to",
                                "type": "address",
                                "value": "0xae89582827f658324120f4fc7f0c2baadb108981"
                            },
                            {
                                "decimalAvailable": true,
                                "name": "_value",
                                "type": "uint256",
                                "value": "88,000,000,000,000,000,000"
                            }
                        ],
                        "constructorArguments": "",
                        "name": "transfer",
                        "returnParams": [],
                        "signature": "transfer(address,uint256)"
                    },
                    "errorInfo": "",
                    "fromAddress": "0xaeb24440e6da4f250a8d998fd9eb676bbf46cd7e",
                    "gasUsed": 38387,
                    "id": 0,
                    "methodDecoded": true,
                    "operation": "CALL",
                    "output": "",
                    "revert": false,
                    "revertMessage": "",
                    "selector": "0xa9059cbb",
                    "status": true,
                    "value": "0"
                },
                "nodeType": 0
            },
            "1": {
                "event": {
                    "contract": "0xacce88f5a63a5e65db9aa7303720be16b556e751",
                    "decodedLog": {
                        "name": "Transfer",
                        "params": [
                            {
                                "name": "from",
                                "type": "address",
                                "value": "0xaeb24440e6da4f250a8d998fd9eb676bbf46cd7e"
                            },
                            {
                                "name": "to",
                                "type": "address",
                                "value": "0xae89582827f658324120f4fc7f0c2baadb108981"
                            },
                            {
                                "decimalAvailable": true,
                                "name": "value",
                                "type": "uint256",
                                "value": "88,000,000,000,000,000,000"
                            }
                        ],
                        "signature": "Transfer(address,address,uint256)"
                    },
                    "id": 1,
                    "logData": "0x000000000000000000000000000000000000000000000004c53ecdc18a600000",
                    "logDecoded": true,
                    "operation": "EVENT",
                    "revert": false,
                    "status": true,
                    "topics": [
                        "0xddf252ad1be2c89b69c2b068fc378daa952ba7f163c4a11628f55a4df523b3ef",
                        "0x000000000000000000000000aeb24440e6da4f250a8d998fd9eb676bbf46cd7e",
                        "0x000000000000000000000000ae89582827f658324120f4fc7f0c2baadb108981"
                    ]
                },
                "nodeType": 1
            }
        },
        "gasFlame": [
            {
                "children": [
                    {
                        "children": [
                            {
                                "children": [],
                                "depth": 0,
                                "name": "Initial Gas",
                                "value": 23256
                            },
                            {
                                "children": [],
                                "depth": 0,
                                "name": "Executed Gas",
                                "value": 30131
                            }
                        ],
                        "depth": -1,
                        "name": "Actual Gas Used",
                        "value": 38387
                    },
                    {
                        "children": [],
                        "depth": -1,
                        "name": "Refunded Gas",
                        "value": 15000
                    }
                ],
                "depth": -2,
                "name": "Total Gas",
                "value": 53387
            }
        ],
        "isConfirmed": true,
        "mainTrace": [
            {
                "children": [
                    {
                        "children": [
                            {
                                "children": [],
                                "depth": 1,
                                "id": 1,
                                "order": 1
                            }
                        ],
                        "depth": 0,
                        "id": 0,
                        "order": 0
                    }
                ],
                "depth": -1,
                "id": -1,
                "order": -1
            }
        ],
        "mainTraceNodeCount": 2,
        "parentIdMap": {
            "0": -1,
            "1": 0
        },
        "tidyTrace": [
            {
                "children": [
                    {
                        "children": [
                            {
                                "children": [],
                                "depth": 1,
                                "id": 1,
                                "order": 1
                            }
                        ],
                        "depth": 0,
                        "id": 0,
                        "order": 0
                    }
                ],
                "depth": -1,
                "id": -1,
                "order": -1
            }
        ],
        "tidyTraceNodeCount": 2
    },
    "state_change": {
        "stateChanges": [
            {
                "address": "0xacce88f5a63a5e65db9aa7303720be16b556e751",
                "erc": "",
                "slots": [
                    {
                        "current": "0x000000000000000000000000000000000000000000000004c53ecdc18a600000",
                        "key": "0x54fd8a9e216e5ef108f61be01fa688c98de7af58d7c2598eed65c10eba0684a2",
                        "prev": "0x0000000000000000000000000000000000000000000000000000000000000000"
                    },
                    {
                        "current": "0x0000000000000000000000000000000000000000000000000000000000000000",
                        "key": "0x5db95a797620abc55a6403c3f9076a199208de2b4fc70bf935f1599d84b86260",
                        "prev": "0x000000000000000000000000000000000000000000000004c53ecdc18a600000"
                    }
                ],
                "storageVariables": [
                    {
                        "name": "balanceOf",
                        "type": "mapping(address => uint256)",
                        "value": {
                            "pairs": [
                                {
                                    "key": "0xae89582827f658324120f4fc7f0c2baadb108981",
                                    "value": {
                                        "current": "88000000000000000000",
                                        "prev": "0",
                                        "typeTag": 1
                                    }
                                },
                                {
                                    "key": "0xaeb24440e6da4f250a8d998fd9eb676bbf46cd7e",
                                    "value": {
                                        "current": "0",
                                        "prev": "88000000000000000000",
                                        "typeTag": 1
                                    }
                                }
                            ],
                            "typeTag": 4
                        }
                    }
                ]
            }
        ]
    }
}