{
    "balance_change": {
        "balanceChanges": []
    },
    "profile": {
        "basic_info": {
            "baseFee": "",
            "blockNumber": 1055044,
            "callData": "0x7d242ae5000000000000000000000000000000000000000000000000000093e2a4289a04000000000000000000000000000000000000000000000000000000000000004000000000000000000000000000000000000000000000000000000000000000221220e72e9c6d4fccf8539eded8f0a7b17eeca15d21e651e979ea12ade3eb12966510000000000000000000000000000000000000000000000000000000000000",
            "debugEnable": true,
            "errorInfo": "",
            "eventCount": 0,
            "feeRecipient": "0x40322237dd266ae723df1e464f8c0d511fffeb14",
            "formatValue": "0",
            "gasLimit": 500000,
            "gasPrice": "45",
            "gasUsed": 76035,
            "intTxnCount": 0,
            "internalRevert": false,
            "internalRevertMessage": "",
            "isContractCreation": false,
            "isFlashloan": false,
            "maxFee": "",
            "nonce": 24458,
            "overwritedBlockNumber": -1,
            "priorityFee": "",
            "receiver": "0x3375ee30428b2a71c428afa5e89e427905f95f7e",
            "revertMessage": "",
            "sender": "0x26588a9301b0428d95e6fc3a5024fce8bec12d51",
            "simulationEnable": true,
            "sourceTxnHash": "0xb38ce72b8cb2cd88556f863df4510e5ea9e49c23a9e1cd52a346df1b0ac9485e",
            "status": true,
            "timestamp": "2016-02-24T22:40:35Z",
            "transactionFee": "0.003421575",
            "txnHash": "0xb38ce72b8cb2cd88556f863df4510e5ea9e49c23a9e1cd52a346df1b0ac9485e",
            "txnIndex": 11,
            "type": 0,
            "value": "0"
        },
        "fund_flow": [],
        "token_infos": [
            {
                "address": "0xc02aaa39b223fe8d0a0e5c4f27ead9083c756cc2",
                "decimals": 18
            },
            {
                "address": "0xeeeeeeeeeeeeeeeeeeeeeeeeeeeeeeeeeeeeeeee",
                "decimals": 18
            }
        ]
    },
    "address_label": {
        "labels": [
            {
                "address": "0x0000000000000000000000000000000000000003",
                "label": "Precompiled"
            },
            {
                "address": "0x0000000000000000000000000000000000000004",
                "label": "Precompiled"
            },
            {
                "address": "0xeeeeeeeeeeeeeeeeeeeeeeeeeeeeeeeeeeeeeeee",
                "label": "Ether"
            },
            {
                "address": "0x26588a9301b0428d95e6fc3a5024fce8bec12d51",
                "label": "Oraclize"
            },
            {
                "address": "0x0000000000000000000000000000000000000001",
                "label": "Precompiled"
            },
            {
                "address": "0x0000000000000000000000000000000000000002",
                "label": "Precompiled"
            }
        ]
    },
    "trace": {
        "accountLabels": null,
        "dataMap": {
            "-1": {
                "invocation": {
                    "address": "0x26588a9301b0428d95e6fc3a5024fce8bec12d51",
                    "callData": "",
                    "decodedMethod": null,
                    "errorInfo": "",
                    "fromAddress": "",
                    "gasUsed": 0,
                    "id": -1,
                    "methodDecoded": false,
                    "operation": "",
                    "output": "",
                    "revert": false,
                    "revertMessage": "",
                    "selector": "",
                    "status": false,
                    "value": ""
                },
                "nodeType": 0
            },
            "0": {
                "invocation": {
                    "address": "0x3375ee30428b2a71c428afa5e89e427905f95f7e",
                    "callData": "0x000000000000000000000000000000000000000000000000000093e2a4289a04000000000000000000000000000000000000000000000000000000000000004000000000000000000000000000000000000000000000000000000000000000221220e72e9c6d4fccf8539eded8f0a7b17eeca15d21e651e979ea12ade3eb12966510000000000000000000000000000000000000000000000000000000000000",
                    "decodedMethod": {
                        "callParams": [
                            {
                                "name": "new_baseprice",
                                "type": "uint256",
                                "value": "162,601,626,016,260"
                            },
                            {
                                "name": "proofID",
                                "type": "bytes",
                                "value": "0x1220e72e9c6d4fccf8539eded8f0a7b17eeca15d21e651e979ea12ade3eb12966510"
                            }
                        ],
                        "constructorArguments": "",
                        "name": "setBasePrice",
                        "returnParams": [],
                        "signature": "setBasePrice(uint256,bytes)"
                    },
                    "errorInfo": "",
                    "fromAddress": "0x26588a9301b0428d95e6fc3a5024fce8bec12d51",
                    "gasUsed": 76035,
                    "id": 0,
                    "methodDecoded": true,
                    "operation": "CALL",
                    "output": "",
                    "revert": false,
                    "revertMessage": "",
                    "selector": "0x7d242ae5",
                    "status": true,
                    "value": "0"
                },
                "nodeType": 0
            }
        },
        "gasFlame": [
            {
                "children": [
                    {
                        "children": [
                            {
                                "children": [],
                                "depth": 0,
                                "name": "Initial Gas",
                                "value": 24600
                            },
                            {
                                "children": [],
                                "depth": 0,
                                "name": "Executed Gas",
                                "value": 51435
                            }
                        ],
                        "depth": -1,
                        "name": "Actual Gas Used",
                        "value": 76035
                    },
                    {
                        "children": [],
                        "depth": -1,
                        "name": "Refunded Gas",
                        "value": 0
                    }
                ],
                "depth": -2,
                "name": "Total Gas",
                "value": 76035
            }
        ],
        "isConfirmed": true,
        "mainTrace": [
            {
                "children": [
                    {
                        "children": [],
                        "depth": 0,
                        "id": 0,
                        "order": 0
                    }
                ],
                "depth": -1,
                "id": -1,
                "order": -1
            }
        ],
        "mainTraceNodeCount": 1,
        "parentIdMap": {
            "0": -1
        },
        "tidyTrace": [
            {
                "children": [
                    {
                        "children": [],
                        "depth": 0,
                        "id": 0,
                        "order": 0
                    }
                ],
                "depth": -1,
                "id": -1,
                "order": -1
            }
        ],
        "tidyTraceNodeCount": 1
    },
    "state_change": {
        "stateChanges": []
    }
}