{
    "balance_change": {
        "balanceChanges": [
            {
                "account": "0x2878713d55fe0903da716aa107b7d5ba2ceb3738",
                "assets": [
                    {
                        "address": "0xeeeeeeeeeeeeeeeeeeeeeeeeeeeeeeeeeeeeeeee",
                        "amount": "0.35",
                        "iconUrl": "https://assets.blocksec.com/image/1663669189317-3.png",
                        "isERC1155": false,
                        "isERC721": false,
                        "sign": false,
                        "value": ""
                    },
                    {
                        "address": "0x7ea2df0f49d1cf7cb3a328f0038822b08aeb0ac1",
                        "amount": "0.35",
                        "iconUrl": "",
                        "isERC1155": false,
                        "isERC721": false,
                        "sign": true,
                        "value": ""
                    }
                ]
            },
            {
                "account": "0x7ea2df0f49d1cf7cb3a328f0038822b08aeb0ac1",
                "assets": [
                    {
                        "address": "0xeeeeeeeeeeeeeeeeeeeeeeeeeeeeeeeeeeeeeeee",
                        "amount": "0.35",
                        "iconUrl": "https://assets.blocksec.com/image/1663669189317-3.png",
                        "isERC1155": false,
                        "isERC721": false,
                        "sign": true,
                        "value": ""
                    },
                    {
                        "address": "0x7ea2df0f49d1cf7cb3a328f0038822b08aeb0ac1",
                        "amount": "0.35",
                        "iconUrl": "",
                        "isERC1155": false,
                        "isERC721": false,
                        "sign": false,
                        "value": ""
                    }
                ]
            }
        ]
    },
    "profile": {
        "basic_info": {
            "baseFee": "",
            "blockNumber": 4463756,
            "callData": "0x3a15021a0000000000000000000000007ea2df0f49d1cf7cb3a328f0038822b08aeb0ac100000000000000000000000000000000000000000000000004db7325476300000000000000000000000000000000000000000000000000000000000000000180eb0585b1904c633c9889d60b88025a7f5f6c0d2612d390ead62b475cc63ce0680000000000000000000000000000000000000000000000000000015f71f8b8030000000000000000000000000000000000000000000000000000000000000002000000000000000000000000000000000000000000000000000000000000001b000000000000000000000000000000000000000000000000000000000000001baf7a4fcd31f42df635d5f3a73117e811e992b573c238b8fa6c3ef54fd56269543af9bc8eb19b1fb42d544823b649d47b87aa44f2bc79d4f8e75f1591c77f5b725a22b8305cc2c7fca2887215719b78bf195943654ffba93b307ee73ece781fb16b6db766370cf0f72b4c0abc7aa7913f2ba985fa26579be03bb1b4ff1ff4b87500000000000000000000000000000000000000000000000000000000000000000000000000000000000000000000000000000000000000000000000000000000",
            "debugEnable": true,
            "errorInfo": "",
            "eventCount": 4,
            "feeRecipient": "0xea674fdde714fd979de3edf0f56aa9716b898ec8",
            "formatValue": "0",
            "gasLimit": 500000,
            "gasPrice": "10.000000001",
            "gasUsed": 287519,
            "intTxnCount": 17,
            "internalRevert": false,
            "internalRevertMessage": "",
            "isContractCreation": false,
            "isFlashloan": false,
            "maxFee": "",
            "nonce": 90763,
            "overwritedBlockNumber": -1,
            "priorityFee": "",
            "receiver": "0x78d8e800e84b21901540379abe925cb102e5b941",
            "revertMessage": "",
            "sender": "0xde48a49359d9f0c8609221f77f382e1472ddbab7",
            "simulationEnable": true,
            "sourceTxnHash": "0xb30b0013de533e894894701140b7e1a3062b150b38de8a15fd6b334db52ad06b",
            "status": true,
            "timestamp": "2017-10-31T11:32:18Z",
            "transactionFee": "0.002875190000287519",
            "txnHash": "0xb30b0013de533e894894701140b7e1a3062b150b38de8a15fd6b334db52ad06b",
            "txnIndex": 45,
            "type": 0,
            "value": "0"
        },
        "fund_flow": [
            {
                "amount": "0.35",
                "from": "0x2878713d55fe0903da716aa107b7d5ba2ceb3738",
                "id": 1,
                "isERC1155": false,
                "isERC721": false,
                "isReverted": false,
                "order": 1,
                "to": "0x7ea2df0f49d1cf7cb3a328f0038822b08aeb0ac1",
                "token": "0xeeeeeeeeeeeeeeeeeeeeeeeeeeeeeeeeeeeeeeee"
            },
            {
                "amount": "0.35",
                "from": "0x7ea2df0f49d1cf7cb3a328f0038822b08aeb0ac1",
                "id": 2,
                "isERC1155": false,
                "isERC721": false,
                "isReverted": false,
                "order": 2,
                "to": "0x2878713d55fe0903da716aa107b7d5ba2ceb3738",
                "token": "0x7ea2df0f49d1cf7cb3a328f0038822b08aeb0ac1"
            }
        ],
        "token_infos": [
            {
                "address": "0xc02aaa39b223fe8d0a0e5c4f27ead9083c756cc2",
                "decimals": 18
            },
            {
                "address": "0xeeeeeeeeeeeeeeeeeeeeeeeeeeeeeeeeeeeeeeee",
                "decimals": 18
            },
            {
                "address": "0x7ea2df0f49d1cf7cb3a328f0038822b08aeb0ac1",
                "decimals": 18
            }
        ]
    },
    "address_label": {
        "labels": [
            {
                "address": "0x60bf91ac87fee5a78c28f7b67701fbcfa79c18ec",
                "label": "historyEToken"
            },
            {
                "address": "0x0000000000000000000000000000000000000004",
                "label": "Precompiled"
            },
            {
                "address": "0x0000000000000000000000000000000000000002",
                "label": "Precompiled"
            },
            {
                "address": "0xeeeeeeeeeeeeeeeeeeeeeeeeeeeeeeeeeeeeeeee",
                "label": "Ether"
            },
            {
                "address": "0x7ea2df0f49d1cf7cb3a328f0038822b08aeb0ac1",
                "label": "EtherToken (ETH)"
            },
            {
                "address": "0x331d077518216c07c87f4f18ba64cd384c411f84",
                "label": "EToken2"
            },
            {
                "address": "0x4e8703a59fec01a97d4d2d76271e4f086dbb52fc",
                "label": "MultiAssetEmitter"
            },
            {
                "address": "0x0000000000000000000000000000000000000001",
                "label": "Precompiled"
            },
            {
                "address": "0x0000000000000000000000000000000000000003",
                "label": "Precompiled"
            }
        ]
    },
    "trace": {
        "accountLabels": null,
        "dataMap": {
            "-1": {
                "invocation": {
                    "address": "0xde48a49359d9f0c8609221f77f382e1472ddbab7",
                    "callData": "",
                    "decodedMethod": null,
                    "errorInfo": "",
                    "fromAddress": "",
                    "gasUsed": 0,
                    "id": -1,
                    "methodDecoded": false,
                    "operation": "",
                    "output": "",
                    "revert": false,
                    "revertMessage": "",
                    "selector": "",
                    "status": false,
                    "value": ""
                },
                "nodeType": 0
            },
            "0": {
                "invocation": {
                    "address": "0x78d8e800e84b21901540379abe925cb102e5b941",
                    "callData": "0x0000000000000000000000007ea2df0f49d1cf7cb3a328f0038822b08aeb0ac100000000000000000000000000000000000000000000000004db7325476300000000000000000000000000000000000000000000000000000000000000000180eb0585b1904c633c9889d60b88025a7f5f6c0d2612d390ead62b475cc63ce0680000000000000000000000000000000000000000000000000000015f71f8b8030000000000000000000000000000000000000000000000000000000000000002000000000000000000000000000000000000000000000000000000000000001b000000000000000000000000000000000000000000000000000000000000001baf7a4fcd31f42df635d5f3a73117e811e992b573c238b8fa6c3ef54fd56269543af9bc8eb19b1fb42d544823b649d47b87aa44f2bc79d4f8e75f1591c77f5b725a22b8305cc2c7fca2887215719b78bf195943654ffba93b307ee73ece781fb16b6db766370cf0f72b4c0abc7aa7913f2ba985fa26579be03bb1b4ff1ff4b87500000000000000000000000000000000000000000000000000000000000000000000000000000000000000000000000000000000000000000000000000000000",
                    "decodedMethod": null,
                    "errorInfo": "",
                    "fromAddress": "0xde48a49359d9f0c8609221f77f382e1472ddbab7",
                    "gasUsed": 287519,
                    "id": 0,
                    "methodDecoded": false,
                    "operation": "CALL",
                    "output": "0x0000000000000000000000000000000000000000000000000000000000000000",
                    "revert": false,
                    "revertMessage": "",
                    "selector": "0x3a15021a",
                    "status": true,
                    "value": "0"
                },
                "nodeType": 0
            },
            "1": {
                "invocation": {
                    "address": "0xc3b2ae46792547a96b9f84405e36d0e07edcd05c",
                    "callData": "0x0000000000000000000000007ea2df0f49d1cf7cb3a328f0038822b08aeb0ac100000000000000000000000000000000000000000000000004db7325476300000000000000000000000000000000000000000000000000000000000000000180eb0585b1904c633c9889d60b88025a7f5f6c0d2612d390ead62b475cc63ce0680000000000000000000000000000000000000000000000000000015f71f8b8030000000000000000000000000000000000000000000000000000000000000002000000000000000000000000000000000000000000000000000000000000001b000000000000000000000000000000000000000000000000000000000000001baf7a4fcd31f42df635d5f3a73117e811e992b573c238b8fa6c3ef54fd56269543af9bc8eb19b1fb42d544823b649d47b87aa44f2bc79d4f8e75f1591c77f5b725a22b8305cc2c7fca2887215719b78bf195943654ffba93b307ee73ece781fb16b6db766370cf0f72b4c0abc7aa7913f2ba985fa26579be03bb1b4ff1ff4b87500000000000000000000000000000000000000000000000000000000000000000000000000000000000000000000000000000000000000000000000000000000",
                    "decodedMethod": null,
                    "errorInfo": "",
                    "fromAddress": "0x78d8e800e84b21901540379abe925cb102e5b941",
                    "gasUsed": 250914,
                    "id": 1,
                    "methodDecoded": false,
                    "operation": "DELEGATECALL",
                    "output": "0x0000000000000000000000000000000000000000000000000000000000000000",
                    "revert": false,
                    "revertMessage": "",
                    "selector": "0x3a15021a",
                    "status": true,
                    "value": "0"
                },
                "nodeType": 0
            },
            "10": {
                "invocation": {
                    "address": "0x2878713d55fe0903da716aa107b7d5ba2ceb3738",
                    "callData": "0x0000000000000000000000007ea2df0f49d1cf7cb3a328f0038822b08aeb0ac100000000000000000000000000000000000000000000000004db732547630000000000000000000000000000000000000000000000000000000000000000008000000000000000000000000000000000000000000000000000000000000000000000000000000000000000000000000000000000000000000000000000000000",
                    "decodedMethod": null,
                    "errorInfo": "",
                    "fromAddress": "0x78d8e800e84b21901540379abe925cb102e5b941",
                    "gasUsed": 150519,
                    "id": 10,
                    "methodDecoded": false,
                    "operation": "CALL",
                    "output": "0x0000000000000000000000000000000000000000000000000000000000000000",
                    "revert": false,
                    "revertMessage": "",
                    "selector": "0xe04f31e9",
                    "status": true,
                    "value": "0"
                },
                "nodeType": 0
            },
            "11": {
                "invocation": {
                    "address": "0x072461a5e18f444b1cf2e8dde6dfb1af39197316",
                    "callData": "0x0000000000000000000000007ea2df0f49d1cf7cb3a328f0038822b08aeb0ac100000000000000000000000000000000000000000000000004db732547630000000000000000000000000000000000000000000000000000000000000000008000000000000000000000000000000000000000000000000000000000000000000000000000000000000000000000000000000000000000000000000000000000",
                    "decodedMethod": null,
                    "errorInfo": "",
                    "fromAddress": "0x2878713d55fe0903da716aa107b7d5ba2ceb3738",
                    "gasUsed": 149640,
                    "id": 11,
                    "methodDecoded": false,
                    "operation": "DELEGATECALL",
                    "output": "0x0000000000000000000000000000000000000000000000000000000000000000",
                    "revert": false,
                    "revertMessage": "",
                    "selector": "0xe04f31e9",
                    "status": true,
                    "value": "0"
                },
                "nodeType": 0
            },
            "12": {
                "invocation": {
                    "address": "0x7ea2df0f49d1cf7cb3a328f0038822b08aeb0ac1",
                    "callData": "0x",
                    "decodedMethod": null,
                    "errorInfo": "",
                    "fromAddress": "0x2878713d55fe0903da716aa107b7d5ba2ceb3738",
                    "gasUsed": 141370,
                    "id": 12,
                    "methodDecoded": false,
                    "operation": "CALL",
                    "output": "",
                    "revert": false,
                    "revertMessage": "",
                    "selector": "fallback",
                    "status": true,
                    "value": "0.35"
                },
                "nodeType": 0
            },
            "13": {
                "invocation": {
                    "address": "0x331d077518216c07c87f4f18ba64cd384c411f84",
                    "callData": "0x0000000000000000000000007ea2df0f49d1cf7cb3a328f0038822b08aeb0ac14554480000000000000000000000000000000000000000000000000000000000",
                    "decodedMethod": {
                        "callParams": [
                            {
                                "name": "_holder",
                                "type": "address",
                                "value": "0x7ea2df0f49d1cf7cb3a328f0038822b08aeb0ac1"
                            },
                            {
                                "name": "_symbol",
                                "type": "bytes32",
                                "value": "0x4554480000000000000000000000000000000000000000000000000000000000"
                            }
                        ],
                        "constructorArguments": "",
                        "name": "balanceOf",
                        "returnParams": [
                            {
                                "name": "",
                                "type": "uint256",
                                "value": "15,648,245,452,534,919,101,684"
                            }
                        ],
                        "signature": "balanceOf(address,bytes32)"
                    },
                    "errorInfo": "",
                    "fromAddress": "0x7ea2df0f49d1cf7cb3a328f0038822b08aeb0ac1",
                    "gasUsed": 1798,
                    "id": 13,
                    "methodDecoded": true,
                    "operation": "CALL",
                    "output": "0x0000000000000000000000000000000000000000000003504b07ab1f71927cf4",
                    "revert": false,
                    "revertMessage": "",
                    "selector": "0x4d30b6be",
                    "status": true,
                    "value": "0"
                },
                "nodeType": 0
            },
            "14": {
                "invocation": {
                    "address": "0x331d077518216c07c87f4f18ba64cd384c411f84",
                    "callData": "0x0000000000000000000000007ea2df0f49d1cf7cb3a328f0038822b08aeb0ac10000000000000000000000002878713d55fe0903da716aa107b7d5ba2ceb373800000000000000000000000000000000000000000000000004db732547630000455448000000000000000000000000000000000000000000000000000000000000000000000000000000000000000000000000000000000000000000000000c00000000000000000000000007ea2df0f49d1cf7cb3a328f0038822b08aeb0ac100000000000000000000000000000000000000000000000000000000000000074465706f73697400000000000000000000000000000000000000000000000000",
                    "decodedMethod": {
                        "callParams": [
                            {
                                "name": "_from",
                                "type": "address",
                                "value": "0x7ea2df0f49d1cf7cb3a328f0038822b08aeb0ac1"
                            },
                            {
                                "name": "_to",
                                "type": "address",
                                "value": "0x2878713d55fe0903da716aa107b7d5ba2ceb3738"
                            },
                            {
                                "name": "_value",
                                "type": "uint256",
                                "value": "350,000,000,000,000,000"
                            },
                            {
                                "name": "_symbol",
                                "type": "bytes32",
                                "value": "0x4554480000000000000000000000000000000000000000000000000000000000"
                            },
                            {
                                "name": "_reference",
                                "type": "string",
                                "value": "Deposit"
                            },
                            {
                                "name": "_sender",
                                "type": "address",
                                "value": "0x7ea2df0f49d1cf7cb3a328f0038822b08aeb0ac1"
                            }
                        ],
                        "constructorArguments": "",
                        "name": "proxyTransferFromWithReference",
                        "returnParams": [
                            {
                                "name": "",
                                "type": "bool",
                                "value": true
                            }
                        ],
                        "signature": "proxyTransferFromWithReference(address,address,uint256,bytes32,string,address)"
                    },
                    "errorInfo": "",
                    "fromAddress": "0x7ea2df0f49d1cf7cb3a328f0038822b08aeb0ac1",
                    "gasUsed": 93223,
                    "id": 14,
                    "methodDecoded": true,
                    "operation": "CALL",
                    "output": "0x0000000000000000000000000000000000000000000000000000000000000001",
                    "revert": false,
                    "revertMessage": "",
                    "selector": "0x161ff662",
                    "status": true,
                    "value": "0"
                },
                "nodeType": 0
            },
            "15": {
                "invocation": {
                    "address": "0x60bf91ac87fee5a78c28f7b67701fbcfa79c18ec",
                    "callData": "0x0000000000000000000000007ea2df0f49d1cf7cb3a328f0038822b08aeb0ac10000000000000000000000002878713d55fe0903da716aa107b7d5ba2ceb3738455448000000000000000000000000000000000000000000000000000000000000000000000000000000000000000000000000000000000004db73254763000000000000000000000000000000000000000000000000000000000000000000a000000000000000000000000000000000000000000000000000000000000000074465706f73697400000000000000000000000000000000000000000000000000",
                    "decodedMethod": {
                        "callParams": [
                            {
                                "name": "_from",
                                "type": "address",
                                "value": "0x7ea2df0f49d1cf7cb3a328f0038822b08aeb0ac1"
                            },
                            {
                                "name": "_to",
                                "type": "address",
                                "value": "0x2878713d55fe0903da716aa107b7d5ba2ceb3738"
                            },
                            {
                                "name": "_symbol",
                                "type": "bytes32",
                                "value": "0x4554480000000000000000000000000000000000000000000000000000000000"
                            },
                            {
                                "name": "_value",
                                "type": "uint256",
                                "value": "350,000,000,000,000,000"
                            },
                            {
                                "name": "_reference",
                                "type": "string",
                                "value": "Deposit"
                            }
                        ],
                        "constructorArguments": "",
                        "name": "emitTransfer",
                        "returnParams": [],
                        "signature": "emitTransfer(address,address,bytes32,uint256,string)"
                    },
                    "errorInfo": "",
                    "fromAddress": "0x331d077518216c07c87f4f18ba64cd384c411f84",
                    "gasUsed": 8504,
                    "id": 15,
                    "methodDecoded": true,
                    "operation": "CALL",
                    "output": "",
                    "revert": false,
                    "revertMessage": "",
                    "selector": "0x515c1457",
                    "status": true,
                    "value": "0"
                },
                "nodeType": 0
            },
            "16": {
                "invocation": {
                    "address": "0x4e8703a59fec01a97d4d2d76271e4f086dbb52fc",
                    "callData": "0x0000000000000000000000007ea2df0f49d1cf7cb3a328f0038822b08aeb0ac10000000000000000000000002878713d55fe0903da716aa107b7d5ba2ceb3738455448000000000000000000000000000000000000000000000000000000000000000000000000000000000000000000000000000000000004db73254763000000000000000000000000000000000000000000000000000000000000000000a000000000000000000000000000000000000000000000000000000000000000074465706f73697400000000000000000000000000000000000000000000000000",
                    "decodedMethod": {
                        "callParams": [
                            {
                                "name": "_from",
                                "type": "address",
                                "value": "0x7ea2df0f49d1cf7cb3a328f0038822b08aeb0ac1"
                            },
                            {
                                "name": "_to",
                                "type": "address",
                                "value": "0x2878713d55fe0903da716aa107b7d5ba2ceb3738"
                            },
                            {
                                "name": "_symbol",
                                "type": "bytes32",
                                "value": "0x4554480000000000000000000000000000000000000000000000000000000000"
                            },
                            {
                                "name": "_value",
                                "type": "uint256",
                                "value": "350,000,000,000,000,000"
                            },
                            {
                                "name": "_reference",
                                "type": "string",
                                "value": "Deposit"
                            }
                        ],
                        "constructorArguments": "",
                        "name": "emitTransfer",
                        "returnParams": [],
                        "signature": "emitTransfer(address,address,bytes32,uint256,string)"
                    },
                    "errorInfo": "",
                    "fromAddress": "0x60bf91ac87fee5a78c28f7b67701fbcfa79c18ec",
                    "gasUsed": 6344,
                    "id": 16,
                    "methodDecoded": true,
                    "operation": "DELEGATECALL",
                    "output": "",
                    "revert": false,
                    "revertMessage": "",
                    "selector": "0x515c1457",
                    "status": true,
                    "value": "0"
                },
                "nodeType": 0
            },
            "17": {
                "invocation": {
                    "address": "0x60bf91ac87fee5a78c28f7b67701fbcfa79c18ec",
                    "callData": "0x000000000000000000000000331d077518216c07c87f4f18ba64cd384c411f84",
                    "decodedMethod": {
                        "callParams": [
                            {
                                "name": "",
                                "type": "address",
                                "value": "0x331d077518216c07c87f4f18ba64cd384c411f84"
                            }
                        ],
                        "constructorArguments": "",
                        "name": "versions",
                        "returnParams": [
                            {
                                "name": "",
                                "type": "uint256",
                                "value": "2"
                            }
                        ],
                        "signature": "versions(address)"
                    },
                    "errorInfo": "",
                    "fromAddress": "0x60bf91ac87fee5a78c28f7b67701fbcfa79c18ec",
                    "gasUsed": 559,
                    "id": 17,
                    "methodDecoded": true,
                    "operation": "CALL",
                    "output": "0x0000000000000000000000000000000000000000000000000000000000000002",
                    "revert": false,
                    "revertMessage": "",
                    "selector": "0x488725a0",
                    "status": true,
                    "value": "0"
                },
                "nodeType": 0
            },
            "18": {
                "invocation": {
                    "address": "0x0000000000000000000000000000000000000004",
                    "callData": "0x736974",
                    "decodedMethod": {
                        "callParams": [
                            {
                                "name": "data",
                                "type": "bytes",
                                "value": "0x4465706f736974"
                            }
                        ],
                        "constructorArguments": "",
                        "name": "dataCopy()",
                        "returnParams": [
                            {
                                "name": "data",
                                "type": "bytes",
                                "value": "0x4465706f736974"
                            }
                        ],
                        "signature": "dataCopy(bytes)"
                    },
                    "errorInfo": "",
                    "fromAddress": "0x60bf91ac87fee5a78c28f7b67701fbcfa79c18ec",
                    "gasUsed": 18,
                    "id": 18,
                    "methodDecoded": true,
                    "operation": "CALL",
                    "output": "0x4465706f736974",
                    "revert": false,
                    "revertMessage": "",
                    "selector": "0x4465706f",
                    "status": true,
                    "value": "0"
                },
                "nodeType": 0
            },
            "19": {
                "event": {
                    "contract": "0x60bf91ac87fee5a78c28f7b67701fbcfa79c18ec",
                    "decodedLog": {
                        "name": "Transfer",
                        "params": [
                            {
                                "name": "from",
                                "type": "address",
                                "value": "0x7ea2df0f49d1cf7cb3a328f0038822b08aeb0ac1"
                            },
                            {
                                "name": "to",
                                "type": "address",
                                "value": "0x2878713d55fe0903da716aa107b7d5ba2ceb3738"
                            },
                            {
                                "name": "symbol",
                                "type": "bytes32",
                                "value": "0x4554480000000000000000000000000000000000000000000000000000000000"
                            },
                            {
                                "name": "value",
                                "type": "uint256",
                                "value": "350,000,000,000,000,000"
                            },
                            {
                                "name": "reference",
                                "type": "string",
                                "value": "Deposit"
                            },
                            {
                                "name": "version",
                                "type": "uint256",
                                "value": "2"
                            }
                        ],
                        "signature": "Transfer(address,address,bytes32,uint256,string,uint256)"
                    },
                    "id": 19,
                    "logData": "0x00000000000000000000000000000000000000000000000004db7325476300000000000000000000000000000000000000000000000000000000000000000060000000000000000000000000000000000000000000000000000000000000000200000000000000000000000000000000000000000000000000000000000000074465706f73697400000000000000000000000000000000000000000000000000",
                    "logDecoded": true,
                    "operation": "EVENT",
                    "revert": false,
                    "status": true,
                    "topics": [
                        "0x940c4b3549ef0aaff95807dc27f62d88ca15532d1bf535d7d63800f40395d16c",
                        "0x0000000000000000000000007ea2df0f49d1cf7cb3a328f0038822b08aeb0ac1",
                        "0x0000000000000000000000002878713d55fe0903da716aa107b7d5ba2ceb3738",
                        "0x4554480000000000000000000000000000000000000000000000000000000000"
                    ]
                },
                "nodeType": 1
            },
            "2": {
                "invocation": {
                    "address": "0xe6a4f92579facb4026096f017243ee839ff72fd1",
                    "callData": "0xeb0585b1904c633c9889d60b88025a7f5f6c0d2612d390ead62b475cc63ce06800000000000000000000000078d8e800e84b21901540379abe925cb102e5b9410000000000000000000000000000000000000000000000000000015f71f8b803000000000000000000000000000000000000000000000000000000000000001baf7a4fcd31f42df635d5f3a73117e811e992b573c238b8fa6c3ef54fd56269545a22b8305cc2c7fca2887215719b78bf195943654ffba93b307ee73ece781fb1",
                    "decodedMethod": null,
                    "errorInfo": "",
                    "fromAddress": "0x78d8e800e84b21901540379abe925cb102e5b941",
                    "gasUsed": 70951,
                    "id": 2,
                    "methodDecoded": false,
                    "operation": "CALL",
                    "output": "0x0000000000000000000000000000000000000000000000000000000000000001",
                    "revert": false,
                    "revertMessage": "",
                    "selector": "0x4a96712e",
                    "status": true,
                    "value": "0"
                },
                "nodeType": 0
            },
            "20": {
                "invocation": {
                    "address": "0x7ea2df0f49d1cf7cb3a328f0038822b08aeb0ac1",
                    "callData": "0x0000000000000000000000007ea2df0f49d1cf7cb3a328f0038822b08aeb0ac10000000000000000000000002878713d55fe0903da716aa107b7d5ba2ceb373800000000000000000000000000000000000000000000000004db732547630000",
                    "decodedMethod": {
                        "callParams": [
                            {
                                "name": "from",
                                "type": "address",
                                "value": "0x7ea2df0f49d1cf7cb3a328f0038822b08aeb0ac1"
                            },
                            {
                                "name": "to",
                                "type": "address",
                                "value": "0x2878713d55fe0903da716aa107b7d5ba2ceb3738"
                            },
                            {
                                "name": "amount",
                                "type": "uint256",
                                "value": "350,000,000,000,000,000"
                            }
                        ],
                        "constructorArguments": "",
                        "name": "emitTransfer",
                        "returnParams": [],
                        "signature": "emitTransfer(address,address,uint256)"
                    },
                    "errorInfo": "",
                    "fromAddress": "0x331d077518216c07c87f4f18ba64cd384c411f84",
                    "gasUsed": 2731,
                    "id": 20,
                    "methodDecoded": true,
                    "operation": "CALL",
                    "output": "",
                    "revert": false,
                    "revertMessage": "",
                    "selector": "0x23de6651",
                    "status": true,
                    "value": "0"
                },
                "nodeType": 0
            },
            "21": {
                "event": {
                    "contract": "0x7ea2df0f49d1cf7cb3a328f0038822b08aeb0ac1",
                    "decodedLog": {
                        "name": "Transfer",
                        "params": [
                            {
                                "name": "from",
                                "type": "address",
                                "value": "0x7ea2df0f49d1cf7cb3a328f0038822b08aeb0ac1"
                            },
                            {
                                "name": "to",
                                "type": "address",
                                "value": "0x2878713d55fe0903da716aa107b7d5ba2ceb3738"
                            },
                            {
                                "decimalAvailable": true,
                                "name": "value",
                                "type": "uint256",
                                "value": "350,000,000,000,000,000"
                            }
                        ],
                        "signature": "Transfer(address,address,uint256)"
                    },
                    "id": 21,
                    "logData": "0x00000000000000000000000000000000000000000000000004db732547630000",
                    "logDecoded": true,
                    "operation": "EVENT",
                    "revert": false,
                    "status": true,
                    "topics": [
                        "0xddf252ad1be2c89b69c2b068fc378daa952ba7f163c4a11628f55a4df523b3ef",
                        "0x0000000000000000000000007ea2df0f49d1cf7cb3a328f0038822b08aeb0ac1",
                        "0x0000000000000000000000002878713d55fe0903da716aa107b7d5ba2ceb3738"
                    ]
                },
                "nodeType": 1
            },
            "3": {
                "invocation": {
                    "address": "0x0000000000000000000000000000000000000001",
                    "callData": "0x58ec6ecf5ffb3d279431371a47b1b18b62ee5c68611c44c588b2eb15000000000000000000000000000000000000000000000000000000000000001baf7a4fcd31f42df635d5f3a73117e811e992b573c238b8fa6c3ef54fd56269545a22b8305cc2c7fca2887215719b78bf195943654ffba93b307ee73ece781fb1",
                    "decodedMethod": {
                        "callParams": [
                            {
                                "name": "hash",
                                "type": "bytes32",
                                "value": "0xa52035f858ec6ecf5ffb3d279431371a47b1b18b62ee5c68611c44c588b2eb15"
                            },
                            {
                                "name": "v",
                                "type": "uint256",
                                "value": "27"
                            },
                            {
                                "name": "r",
                                "type": "bytes32",
                                "value": "0xaf7a4fcd31f42df635d5f3a73117e811e992b573c238b8fa6c3ef54fd5626954"
                            },
                            {
                                "name": "s",
                                "type": "bytes32",
                                "value": "0x5a22b8305cc2c7fca2887215719b78bf195943654ffba93b307ee73ece781fb1"
                            }
                        ],
                        "constructorArguments": "",
                        "name": "ecrecover",
                        "returnParams": [
                            {
                                "name": "",
                                "type": "address",
                                "value": "0x809f68410036cec2315e16591e100f23482ed471"
                            }
                        ],
                        "signature": "ecrecover(bytes32,uint256,bytes32,bytes32)"
                    },
                    "errorInfo": "",
                    "fromAddress": "0xe6a4f92579facb4026096f017243ee839ff72fd1",
                    "gasUsed": 3000,
                    "id": 3,
                    "methodDecoded": true,
                    "operation": "CALL",
                    "output": "0x000000000000000000000000809f68410036cec2315e16591e100f23482ed471",
                    "revert": false,
                    "revertMessage": "",
                    "selector": "0xa52035f8",
                    "status": true,
                    "value": "0"
                },
                "nodeType": 0
            },
            "4": {
                "event": {
                    "contract": "0xe6a4f92579facb4026096f017243ee839ff72fd1",
                    "decodedLog": null,
                    "id": 4,
                    "logData": "0x0000000000000000000000000000000000000000000000000000000000000001",
                    "logDecoded": false,
                    "operation": "EVENT",
                    "revert": false,
                    "status": true,
                    "topics": [
                        "0xbece3b94153cfdfde83f63717f4c52898bbccf2b65d21fb90aced281cf9bb79b",
                        "0xeb0585b1904c633c9889d60b88025a7f5f6c0d2612d390ead62b475cc63ce068",
                        "0x00000000000000000000000078d8e800e84b21901540379abe925cb102e5b941",
                        "0x000000000000000000000000809f68410036cec2315e16591e100f23482ed471"
                    ]
                },
                "nodeType": 1
            },
            "5": {
                "invocation": {
                    "address": "0x0000000000000000000000000000000000000001",
                    "callData": "0x5a4a75d0ee6166140073d973ede55fa2ca039b93cc1f4a7ea284ad59000000000000000000000000000000000000000000000000000000000000001b3af9bc8eb19b1fb42d544823b649d47b87aa44f2bc79d4f8e75f1591c77f5b726b6db766370cf0f72b4c0abc7aa7913f2ba985fa26579be03bb1b4ff1ff4b875",
                    "decodedMethod": {
                        "callParams": [
                            {
                                "name": "hash",
                                "type": "bytes32",
                                "value": "0xf7ee3b8a5a4a75d0ee6166140073d973ede55fa2ca039b93cc1f4a7ea284ad59"
                            },
                            {
                                "name": "v",
                                "type": "uint256",
                                "value": "27"
                            },
                            {
                                "name": "r",
                                "type": "bytes32",
                                "value": "0x3af9bc8eb19b1fb42d544823b649d47b87aa44f2bc79d4f8e75f1591c77f5b72"
                            },
                            {
                                "name": "s",
                                "type": "bytes32",
                                "value": "0x6b6db766370cf0f72b4c0abc7aa7913f2ba985fa26579be03bb1b4ff1ff4b875"
                            }
                        ],
                        "constructorArguments": "",
                        "name": "ecrecover",
                        "returnParams": [
                            {
                                "name": "",
                                "type": "address",
                                "value": "0x029a917a835d935c98dea73bba85d5b8c275e7da"
                            }
                        ],
                        "signature": "ecrecover(bytes32,uint256,bytes32,bytes32)"
                    },
                    "errorInfo": "",
                    "fromAddress": "0x78d8e800e84b21901540379abe925cb102e5b941",
                    "gasUsed": 3000,
                    "id": 5,
                    "methodDecoded": true,
                    "operation": "CALL",
                    "output": "0x000000000000000000000000029a917a835d935c98dea73bba85d5b8c275e7da",
                    "revert": false,
                    "revertMessage": "",
                    "selector": "0xf7ee3b8a",
                    "status": true,
                    "value": "0"
                },
                "nodeType": 0
            },
            "6": {
                "invocation": {
                    "address": "0x78d8e800e84b21901540379abe925cb102e5b941",
                    "callData": "0x0000000000000000000000007ea2df0f49d1cf7cb3a328f0038822b08aeb0ac100000000000000000000000000000000000000000000000004db73254763000000000000000000000000000000000000000000000000000000000000000000600000000000000000000000000000000000000000000000000000000000000000",
                    "decodedMethod": null,
                    "errorInfo": "",
                    "fromAddress": "0x78d8e800e84b21901540379abe925cb102e5b941",
                    "gasUsed": 165090,
                    "id": 6,
                    "methodDecoded": false,
                    "operation": "CALL",
                    "output": "0x0000000000000000000000000000000000000000000000000000000000000000",
                    "revert": false,
                    "revertMessage": "",
                    "selector": "0xd7f31eb9",
                    "status": true,
                    "value": "0"
                },
                "nodeType": 0
            },
            "7": {
                "invocation": {
                    "address": "0xc3b2ae46792547a96b9f84405e36d0e07edcd05c",
                    "callData": "0x0000000000000000000000007ea2df0f49d1cf7cb3a328f0038822b08aeb0ac100000000000000000000000000000000000000000000000004db73254763000000000000000000000000000000000000000000000000000000000000000000600000000000000000000000000000000000000000000000000000000000000000",
                    "decodedMethod": null,
                    "errorInfo": "",
                    "fromAddress": "0x78d8e800e84b21901540379abe925cb102e5b941",
                    "gasUsed": 164217,
                    "id": 7,
                    "methodDecoded": false,
                    "operation": "DELEGATECALL",
                    "output": "0x0000000000000000000000000000000000000000000000000000000000000000",
                    "revert": false,
                    "revertMessage": "",
                    "selector": "0xd7f31eb9",
                    "status": true,
                    "value": "0"
                },
                "nodeType": 0
            },
            "8": {
                "invocation": {
                    "address": "0xe6a4f92579facb4026096f017243ee839ff72fd1",
                    "callData": "0xeb0585b1904c633c9889d60b88025a7f5f6c0d2612d390ead62b475cc63ce0680000000000000000000000000000000000000000000000000000000000000001",
                    "decodedMethod": null,
                    "errorInfo": "",
                    "fromAddress": "0x78d8e800e84b21901540379abe925cb102e5b941",
                    "gasUsed": 7917,
                    "id": 8,
                    "methodDecoded": false,
                    "operation": "CALL",
                    "output": "0x0000000000000000000000000000000000000000000000000000000000000001",
                    "revert": false,
                    "revertMessage": "",
                    "selector": "0x809b296d",
                    "status": true,
                    "value": "0"
                },
                "nodeType": 0
            },
            "9": {
                "event": {
                    "contract": "0xe6a4f92579facb4026096f017243ee839ff72fd1",
                    "decodedLog": null,
                    "id": 9,
                    "logData": "0x",
                    "logDecoded": false,
                    "operation": "EVENT",
                    "revert": false,
                    "status": true,
                    "topics": [
                        "0x09d6352b0004296b0ec18337a5141424a870015111bb3443b4c6858277ba1bb7",
                        "0xeb0585b1904c633c9889d60b88025a7f5f6c0d2612d390ead62b475cc63ce068",
                        "0x00000000000000000000000078d8e800e84b21901540379abe925cb102e5b941"
                    ]
                },
                "nodeType": 1
            }
        },
        "gasFlame": [
            {
                "children": [
                    {
                        "children": [
                            {
                                "children": [],
                                "depth": 0,
                                "name": "Initial Gas",
                                "value": 35672
                            },
                            {
                                "children": [
                                    {
                                        "children": [
                                            {
                                                "children": [
                                                    {
                                                        "children": [],
                                                        "depth": 3,
                                                        "name": "ecrecover",
                                                        "value": 3000
                                                    }
                                                ],
                                                "depth": 2,
                                                "name": "0x4a96712e",
                                                "value": 70951
                                            },
                                            {
                                                "children": [],
                                                "depth": 2,
                                                "name": "ecrecover",
                                                "value": 3000
                                            },
                                            {
                                                "children": [
                                                    {
                                                        "children": [
                                                            {
                                                                "children": [],
                                                                "depth": 4,
                                                                "name": "0x809b296d",
                                                                "value": 7917
                                                            },
                                                            {
                                                                "children": [
                                                                    {
                                                                        "children": [
                                                                            {
                                                                                "children": [
                                                                                    {
                                                                                        "children": [],
                                                                                        "depth": 7,
                                                                                        "name": "balanceOf",
                                                                                        "value": 1798
                                                                                    },
                                                                                    {
                                                                                        "children": [
                                                                                            {
                                                                                                "children": [
                                                                                                    {
                                                                                                        "children": [
                                                                                                            {
                                                                                                                "children": [],
                                                                                                                "depth": 10,
                                                                                                                "name": "versions",
                                                                                                                "value": 559
                                                                                                            },
                                                                                                            {
                                                                                                                "children": [],
                                                                                                                "depth": 10,
                                                                                                                "name": "dataCopy()",
                                                                                                                "value": 18
                                                                                                            }
                                                                                                        ],
                                                                                                        "depth": 9,
                                                                                                        "name": "emitTransfer",
                                                                                                        "value": 6344
                                                                                                    }
                                                                                                ],
                                                                                                "depth": 8,
                                                                                                "name": "emitTransfer",
                                                                                                "value": 8504
                                                                                            },
                                                                                            {
                                                                                                "children": [],
                                                                                                "depth": 8,
                                                                                                "name": "emitTransfer",
                                                                                                "value": 2731
                                                                                            }
                                                                                        ],
                                                                                        "depth": 7,
                                                                                        "name": "proxyTransferFromWithReference",
                                                                                        "value": 93223
                                                                                    }
                                                                                ],
                                                                                "depth": 6,
                                                                                "name": "fallback",
                                                                                "value": 141370
                                                                            }
                                                                        ],
                                                                        "depth": 5,
                                                                        "name": "0xe04f31e9",
                                                                        "value": 149640
                                                                    }
                                                                ],
                                                                "depth": 4,
                                                                "name": "0xe04f31e9",
                                                                "value": 150519
                                                            }
                                                        ],
                                                        "depth": 3,
                                                        "name": "0xd7f31eb9",
                                                        "value": 164217
                                                    }
                                                ],
                                                "depth": 2,
                                                "name": "0xd7f31eb9",
                                                "value": 165090
                                            }
                                        ],
                                        "depth": 1,
                                        "name": "0x3a15021a",
                                        "value": 250914
                                    }
                                ],
                                "depth": 0,
                                "name": "Executed Gas",
                                "value": 251847
                            }
                        ],
                        "depth": -1,
                        "name": "Actual Gas Used",
                        "value": 287519
                    },
                    {
                        "children": [],
                        "depth": -1,
                        "name": "Refunded Gas",
                        "value": 0
                    }
                ],
                "depth": -2,
                "name": "Total Gas",
                "value": 287519
            }
        ],
        "isConfirmed": true,
        "mainTrace": [
            {
                "children": [
                    {
                        "children": [
                            {
                                "children": [
                                    {
                                        "children": [
                                            {
                                                "children": [],
                                                "depth": 3,
                                                "id": 3,
                                                "order": 3
                                            },
                                            {
                                                "children": [],
                                                "depth": 3,
                                                "id": 4,
                                                "order": 4
                                            }
                                        ],
                                        "depth": 2,
                                        "id": 2,
                                        "order": 2
                                    },
                                    {
                                        "children": [],
                                        "depth": 2,
                                        "id": 5,
                                        "order": 5
                                    },
                                    {
                                        "children": [
                                            {
                                                "children": [
                                                    {
                                                        "children": [
                                                            {
                                                                "children": [],
                                                                "depth": 5,
                                                                "id": 9,
                                                                "order": 9
                                                            }
                                                        ],
                                                        "depth": 4,
                                                        "id": 8,
                                                        "order": 8
                                                    },
                                                    {
                                                        "children": [
                                                            {
                                                                "children": [
                                                                    {
                                                                        "children": [
                                                                            {
                                                                                "children": [],
                                                                                "depth": 7,
                                                                                "id": 13,
                                                                                "order": 13
                                                                            },
                                                                            {
                                                                                "children": [
                                                                                    {
                                                                                        "children": [
                                                                                            {
                                                                                                "children": [
                                                                                                    {
                                                                                                        "children": [],
                                                                                                        "depth": 10,
                                                                                                        "id": 17,
                                                                                                        "order": 17
                                                                                                    },
                                                                                                    {
                                                                                                        "children": [],
                                                                                                        "depth": 10,
                                                                                                        "id": 18,
                                                                                                        "order": 18
                                                                                                    },
                                                                                                    {
                                                                                                        "children": [],
                                                                                                        "depth": 10,
                                                                                                        "id": 19,
                                                                                                        "order": 19
                                                                                                    }
                                                                                                ],
                                                                                                "depth": 9,
                                                                                                "id": 16,
                                                                                                "order": 16
                                                                                            }
                                                                                        ],
                                                                                        "depth": 8,
                                                                                        "id": 15,
                                                                                        "order": 15
                                                                                    },
                                                                                    {
                                                                                        "children": [
                                                                                            {
                                                                                                "children": [],
                                                                                                "depth": 9,
                                                                                                "id": 21,
                                                                                                "order": 21
                                                                                            }
                                                                                        ],
                                                                                        "depth": 8,
                                                                                        "id": 20,
                                                                                        "order": 20
                                                                                    }
                                                                                ],
                                                                                "depth": 7,
                                                                                "id": 14,
                                                                                "order": 14
                                                                            }
                                                                        ],
                                                                        "depth": 6,
                                                                        "id": 12,
                                                                        "order": 12
                                                                    }
                                                                ],
                                                                "depth": 5,
                                                                "id": 11,
                                                                "order": 11
                                                            }
                                                        ],
                                                        "depth": 4,
                                                        "id": 10,
                                                        "order": 10
                                                    }
                                                ],
                                                "depth": 3,
                                                "id": 7,
                                                "order": 7
                                            }
                                        ],
                                        "depth": 2,
                                        "id": 6,
                                        "order": 6
                                    }
                                ],
                                "depth": 1,
                                "id": 1,
                                "order": 1
                            }
                        ],
                        "depth": 0,
                        "id": 0,
                        "order": 0
                    }
                ],
                "depth": -1,
                "id": -1,
                "order": -1
            }
        ],
        "mainTraceNodeCount": 22,
        "parentIdMap": {
            "0": -1,
            "1": 0,
            "10": 7,
            "11": 10,
            "12": 11,
            "13": 12,
            "14": 12,
            "15": 14,
            "16": 15,
            "17": 16,
            "18": 16,
            "19": 16,
            "2": 1,
            "20": 14,
            "21": 20,
            "3": 2,
            "4": 2,
            "5": 1,
            "6": 1,
            "7": 6,
            "8": 7,
            "9": 8
        },
        "tidyTrace": [
            {
                "children": [
                    {
                        "children": [
                            {
                                "children": [
                                    {
                                        "children": [
                                            {
                                                "children": [],
                                                "depth": 3,
                                                "id": 3,
                                                "order": 3
                                            },
                                            {
                                                "children": [],
                                                "depth": 3,
                                                "id": 4,
                                                "order": 4
                                            }
                                        ],
                                        "depth": 2,
                                        "id": 2,
                                        "order": 2
                                    },
                                    {
                                        "children": [],
                                        "depth": 2,
                                        "id": 5,
                                        "order": 5
                                    },
                                    {
                                        "children": [
                                            {
                                                "children": [
                                                    {
                                                        "children": [
                                                            {
                                                                "children": [],
                                                                "depth": 5,
                                                                "id": 9,
                                                                "order": 9
                                                            }
                                                        ],
                                                        "depth": 4,
                                                        "id": 8,
                                                        "order": 8
                                                    },
                                                    {
                                                        "children": [
                                                            {
                                                                "children": [
                                                                    {
                                                                        "children": [
                                                                            {
                                                                                "children": [],
                                                                                "depth": 7,
                                                                                "id": 13,
                                                                                "order": 13
                                                                            },
                                                                            {
                                                                                "children": [
                                                                                    {
                                                                                        "children": [
                                                                                            {
                                                                                                "children": [
                                                                                                    {
                                                                                                        "children": [],
                                                                                                        "depth": 10,
                                                                                                        "id": 17,
                                                                                                        "order": 17
                                                                                                    },
                                                                                                    {
                                                                                                        "children": [],
                                                                                                        "depth": 10,
                                                                                                        "id": 18,
                                                                                                        "order": 18
                                                                                                    },
                                                                                                    {
                                                                                                        "children": [],
                                                                                                        "depth": 10,
                                                                                                        "id": 19,
                                                                                                        "order": 19
                                                                                                    }
                                                                                                ],
                                                                                                "depth": 9,
                                                                                                "id": 16,
                                                                                                "order": 16
                                                                                            }
                                                                                        ],
                                                                                        "depth": 8,
                                                                                        "id": 15,
                                                                                        "order": 15
                                                                                    },
                                                                                    {
                                                                                        "children": [
                                                                                            {
                                                                                                "children": [],
                                                                                                "depth": 9,
                                                                                                "id": 21,
                                                                                                "order": 21
                                                                                            }
                                                                                        ],
                                                                                        "depth": 8,
                                                                                        "id": 20,
                                                                                        "order": 20
                                                                                    }
                                                                                ],
                                                                                "depth": 7,
                                                                                "id": 14,
                                                                                "order": 14
                                                                            }
                                                                        ],
                                                                        "depth": 6,
                                                                        "id": 12,
                                                                        "order": 12
                                                                    }
                                                                ],
                                                                "depth": 5,
                                                                "id": 11,
                                                                "order": 11
                                                            }
                                                        ],
                                                        "depth": 4,
                                                        "id": 10,
                                                        "order": 10
                                                    }
                                                ],
                                                "depth": 3,
                                                "id": 7,
                                                "order": 7
                                            }
                                        ],
                                        "depth": 2,
                                        "id": 6,
                                        "order": 6
                                    }
                                ],
                                "depth": 1,
                                "id": 1,
                                "order": 1
                            }
                        ],
                        "depth": 0,
                        "id": 0,
                        "order": 0
                    }
                ],
                "depth": -1,
                "id": -1,
                "order": -1
            }
        ],
        "tidyTraceNodeCount": 22
    },
    "state_change": {
        "stateChanges": [
            {
                "address": "0x331d077518216c07c87f4f18ba64cd384c411f84",
                "erc": "",
                "slots": [
                    {
                        "current": "0x000000000000000000000000000000000000000000000000000000000002a27c",
                        "key": "0x0000000000000000000000000000000000000000000000000000000000000002",
                        "prev": "0x000000000000000000000000000000000000000000000000000000000002a27b"
                    },
                    {
                        "current": "0x0000000000000000000000002878713d55fe0903da716aa107b7d5ba2ceb3738",
                        "key": "0x142dd6d79e4483637b7113c5d1efd792a6b98212e2e04f52e27f8805e82b0cd7",
                        "prev": "0x0000000000000000000000000000000000000000000000000000000000000000"
                    },
                    {
                        "current": "0x000000000000000000000000000000000000000000000000000000000002a27c",
                        "key": "0xdac7913661965c3a2bb5256684d0d0e794b071abfb3d8bc4e6d8a1fc8729c452",
                        "prev": "0x0000000000000000000000000000000000000000000000000000000000000000"
                    },
                    {
                        "current": "0x000000000000000000000000000000000000000000000350462c37fa2a2f7cf4",
                        "key": "0x31f5ae365629c0994618283e6d1f9222c09e229a0a032708cac43a2ab6791a4c",
                        "prev": "0x0000000000000000000000000000000000000000000003504b07ab1f71927cf4"
                    },
                    {
                        "current": "0x00000000000000000000000000000000000000000000000004db732547630000",
                        "key": "0xd68c793aa3e11d721f7e91b06a48372765a8ec230f3ff37dea24d9835d2e9f97",
                        "prev": "0x0000000000000000000000000000000000000000000000000000000000000000"
                    }
                ],
                "storageVariables": []
            },
            {
                "address": "0x78d8e800e84b21901540379abe925cb102e5b941",
                "erc": "",
                "slots": [
                    {
                        "current": "0x0000000000000000000000000000000000000000000000000000000000000002",
                        "key": "0x0000000000000000000000000000000000000000000000000000000000000003",
                        "prev": "0x0000000000000000000000000000000000000000000000000000000000000001"
                    }
                ],
                "storageVariables": []
            },
            {
                "address": "0x7ea2df0f49d1cf7cb3a328f0038822b08aeb0ac1",
                "erc": "",
                "slots": [
                    {
                        "current": "0x0000000000000000000000000000000000000000000000000000000000000001",
                        "key": "0x4f47e203dc9e6a85a1e4e791f3dc237b4be05b8ae2225dff242ce0000ea2f610",
                        "prev": "0x0000000000000000000000000000000000000000000000000000000000000000"
                    },
                    {
                        "current": "0x0000000000000000000000000000000000000000000000000000000000000001",
                        "key": "0xdac7913661965c3a2bb5256684d0d0e794b071abfb3d8bc4e6d8a1fc8729c452",
                        "prev": "0x0000000000000000000000000000000000000000000000000000000000000000"
                    }
                ],
                "storageVariables": []
            },
            {
                "address": "0xe6a4f92579facb4026096f017243ee839ff72fd1",
                "erc": "",
                "slots": [
                    {
                        "current": "0x0000000000000000000000000000000000000000000000000000015f71f8b803",
                        "key": "0xbb98294f04f41d7fd7a3bfc2219f0d1bf9a2cdc315174bd9da97c496acb04042",
                        "prev": "0x0000000000000000000000000000000000000000000000000000000000000000"
                    },
                    {
                        "current": "0x0000000000000000000000000000000000000000000000000000000000000001",
                        "key": "0x05f0370433a8ee9e5e894598b744bb640d373d495ccab09e8d740b8d09bbcfb8",
                        "prev": "0x0000000000000000000000000000000000000000000000000000000000000000"
                    },
                    {
                        "current": "0x0000000000000000000000000000000000000000000000000000000000000201",
                        "key": "0x05f0370433a8ee9e5e894598b744bb640d373d495ccab09e8d740b8d09bbcfb9",
                        "prev": "0x0000000000000000000000000000000000000000000000000000000000000000"
                    }
                ],
                "storageVariables": []
            }
        ]
    }
}