{
    "balance_change": {
        "balanceChanges": [
            {
                "account": "0x2f72156653a4f9ab1222ac62aa4156aa4a299264",
                "assets": [
                    {
                        "address": "0xeeeeeeeeeeeeeeeeeeeeeeeeeeeeeeeeeeeeeeee",
                        "amount": "0.0654047",
                        "iconUrl": "https://assets.blocksec.com/image/1663669189317-3.png",
                        "isERC1155": false,
                        "isERC721": false,
                        "sign": false,
                        "value": "104.13147691699999346"
                    }
                ]
            },
            {
                "account": "0x32400084c286cf3e17e7b677ea9583e60a000324",
                "assets": [
                    {
                        "address": "0xeeeeeeeeeeeeeeeeeeeeeeeeeeeeeeeeeeeeeeee",
                        "amount": "0.0654047",
                        "iconUrl": "https://assets.blocksec.com/image/1663669189317-3.png",
                        "isERC1155": false,
                        "isERC721": false,
                        "sign": true,
                        "value": "104.13147691699999346"
                    }
                ]
            }
        ]
    },
    "profile": {
        "basic_info": {
            "baseFee": "7.152356031",
            "blockNumber": 18203540,
            "callData": "0xeb6724190000000000000000000000002f72156653a4f9ab1222ac62aa4156aa4a29926400000000000000000000000000000000000000000000000000e60ad422f3d30000000000000000000000000000000000000000000000000000000000000000e000000000000000000000000000000000000000000000000000000000000c3500000000000000000000000000000000000000000000000000000000000000032000000000000000000000000000000000000000000000000000000000000001000000000000000000000000002f72156653a4f9ab1222ac62aa4156aa4a29926400000000000000000000000000000000000000000000000000000000000000000000000000000000000000000000000000000000000000000000000000000000",
            "debugEnable": true,
            "errorInfo": "",
            "eventCount": 1,
            "feeRecipient": "0x4838b106fce9647bdf1e7877bf73ce8b0bad5f97",
            "formatValue": "0.0654047",
            "gasLimit": 124459,
            "gasPrice": "8.652356031",
            "gasUsed": 118122,
            "intTxnCount": 3,
            "internalRevert": false,
            "internalRevertMessage": "",
            "isContractCreation": false,
            "isFlashloan": false,
            "maxFee": "15.054819014",
            "nonce": 0,
            "overwritedBlockNumber": -1,
            "priorityFee": "1.5",
            "receiver": "0x32400084c286cf3e17e7b677ea9583e60a000324",
            "revertMessage": "",
            "sender": "0x2f72156653a4f9ab1222ac62aa4156aa4a299264",
            "simulationEnable": true,
            "sourceTxnHash": "0xb3f2aef388f275585e4ae9a36724c6f6d7e96feb557e1681f92e064a59b47a22",
            "status": true,
            "timestamp": "2023-09-24T05:21:35Z",
            "transactionFee": "0.001022033599093782",
            "txnHash": "0xb3f2aef388f275585e4ae9a36724c6f6d7e96feb557e1681f92e064a59b47a22",
            "txnIndex": 10,
            "type": 2,
            "value": "65404700000000000"
        },
        "fund_flow": [
            {
                "amount": "0.0654047",
                "from": "0x2f72156653a4f9ab1222ac62aa4156aa4a299264",
                "id": 1,
                "isERC1155": false,
                "isERC721": false,
                "isReverted": false,
                "order": 1,
                "to": "0x32400084c286cf3e17e7b677ea9583e60a000324",
                "token": "0xeeeeeeeeeeeeeeeeeeeeeeeeeeeeeeeeeeeeeeee"
            }
        ],
        "token_infos": [
            {
                "address": "0xc02aaa39b223fe8d0a0e5c4f27ead9083c756cc2",
                "decimals": 18
            },
            {
                "address": "0xeeeeeeeeeeeeeeeeeeeeeeeeeeeeeeeeeeeeeeee",
                "decimals": 18
            }
        ]
    },
    "address_label": {
        "labels": [
            {
                "address": "0x0000000000000000000000000000000000000004",
                "label": "Precompiled"
            },
            {
                "address": "0x32400084c286cf3e17e7b677ea9583e60a000324",
                "label": "zkSync Era: Diamond Proxy"
            },
            {
                "address": "0x8ffd57a9b2dcc10327768b601468fa192adc5c86",
                "label": "AllowList"
            },
            {
                "address": "0x0000000000000000000000000000000000000000",
                "label": "Null Address"
            },
            {
                "address": "0x0000000000000000000000000000000000000003",
                "label": "Precompiled"
            },
            {
                "address": "0xeeeeeeeeeeeeeeeeeeeeeeeeeeeeeeeeeeeeeeee",
                "label": "Ether"
            },
            {
                "address": "0x62aa95ac4740a367746a664c4c69034d52e968ef",
                "label": "MailboxFacet"
            },
            {
                "address": "0x0000000000000000000000000000000000000001",
                "label": "Precompiled"
            },
            {
                "address": "0x0000000000000000000000000000000000000002",
                "label": "Precompiled"
            }
        ]
    },
    "trace": {
        "accountLabels": null,
        "dataMap": {
            "-1": {
                "invocation": {
                    "address": "0x2f72156653a4f9ab1222ac62aa4156aa4a299264",
                    "callData": "",
                    "decodedMethod": null,
                    "errorInfo": "",
                    "fromAddress": "",
                    "gasUsed": 0,
                    "id": -1,
                    "methodDecoded": false,
                    "operation": "",
                    "output": "",
                    "revert": false,
                    "revertMessage": "",
                    "selector": "",
                    "status": false,
                    "value": ""
                },
                "nodeType": 0
            },
            "0": {
                "invocation": {
                    "address": "0x32400084c286cf3e17e7b677ea9583e60a000324",
                    "callData": "0x0000000000000000000000002f72156653a4f9ab1222ac62aa4156aa4a29926400000000000000000000000000000000000000000000000000e60ad422f3d30000000000000000000000000000000000000000000000000000000000000000e000000000000000000000000000000000000000000000000000000000000c3500000000000000000000000000000000000000000000000000000000000000032000000000000000000000000000000000000000000000000000000000000001000000000000000000000000002f72156653a4f9ab1222ac62aa4156aa4a29926400000000000000000000000000000000000000000000000000000000000000000000000000000000000000000000000000000000000000000000000000000000",
                    "decodedMethod": {
                        "callParams": [
                            {
                                "name": "_contractL2",
                                "type": "address",
                                "value": "0x2f72156653a4f9ab1222ac62aa4156aa4a299264"
                            },
                            {
                                "name": "_l2Value",
                                "type": "uint256",
                                "value": "64,751,150,879,200,000"
                            },
                            {
                                "name": "_calldata",
                                "type": "bytes",
                                "value": "0x"
                            },
                            {
                                "name": "_l2GasLimit",
                                "type": "uint256",
                                "value": "800,000"
                            },
                            {
                                "name": "_l2GasPerPubdataByteLimit",
                                "type": "uint256",
                                "value": "800"
                            },
                            {
                                "name": "_factoryDeps",
                                "type": "bytes[]",
                                "value": []
                            },
                            {
                                "name": "_refundRecipient",
                                "type": "address",
                                "value": "0x2f72156653a4f9ab1222ac62aa4156aa4a299264"
                            }
                        ],
                        "constructorArguments": "",
                        "name": "requestL2Transaction",
                        "returnParams": [
                            {
                                "name": "canonicalTxHash",
                                "type": "bytes32",
                                "value": "0x6d5fddb3cfb40e02442cedeb8cb629f58fea7487b462dfb9027a6ea5d28d33d6"
                            }
                        ],
                        "signature": "requestL2Transaction(address,uint256,bytes,uint256,uint256,bytes[],address)"
                    },
                    "errorInfo": "",
                    "fromAddress": "0x2f72156653a4f9ab1222ac62aa4156aa4a299264",
                    "gasUsed": 118122,
                    "id": 0,
                    "methodDecoded": true,
                    "operation": "CALL",
                    "output": "0x6d5fddb3cfb40e02442cedeb8cb629f58fea7487b462dfb9027a6ea5d28d33d6",
                    "revert": false,
                    "revertMessage": "",
                    "selector": "0xeb672419",
                    "status": true,
                    "value": "0.0654047"
                },
                "nodeType": 0
            },
            "1": {
                "invocation": {
                    "address": "0x62aa95ac4740a367746a664c4c69034d52e968ef",
                    "callData": "0x0000000000000000000000002f72156653a4f9ab1222ac62aa4156aa4a29926400000000000000000000000000000000000000000000000000e60ad422f3d30000000000000000000000000000000000000000000000000000000000000000e000000000000000000000000000000000000000000000000000000000000c3500000000000000000000000000000000000000000000000000000000000000032000000000000000000000000000000000000000000000000000000000000001000000000000000000000000002f72156653a4f9ab1222ac62aa4156aa4a29926400000000000000000000000000000000000000000000000000000000000000000000000000000000000000000000000000000000000000000000000000000000",
                    "decodedMethod": {
                        "callParams": [
                            {
                                "name": "_contractL2",
                                "type": "address",
                                "value": "0x2f72156653a4f9ab1222ac62aa4156aa4a299264"
                            },
                            {
                                "name": "_l2Value",
                                "type": "uint256",
                                "value": "64,751,150,879,200,000"
                            },
                            {
                                "name": "_calldata",
                                "type": "bytes",
                                "value": "0x"
                            },
                            {
                                "name": "_l2GasLimit",
                                "type": "uint256",
                                "value": "800,000"
                            },
                            {
                                "name": "_l2GasPerPubdataByteLimit",
                                "type": "uint256",
                                "value": "800"
                            },
                            {
                                "name": "_factoryDeps",
                                "type": "bytes[]",
                                "value": []
                            },
                            {
                                "name": "_refundRecipient",
                                "type": "address",
                                "value": "0x2f72156653a4f9ab1222ac62aa4156aa4a299264"
                            }
                        ],
                        "constructorArguments": "",
                        "name": "requestL2Transaction",
                        "returnParams": [
                            {
                                "name": "canonicalTxHash",
                                "type": "bytes32",
                                "value": "0x6d5fddb3cfb40e02442cedeb8cb629f58fea7487b462dfb9027a6ea5d28d33d6"
                            }
                        ],
                        "signature": "requestL2Transaction(address,uint256,bytes,uint256,uint256,bytes[],address)"
                    },
                    "errorInfo": "",
                    "fromAddress": "0x32400084c286cf3e17e7b677ea9583e60a000324",
                    "gasUsed": 90720,
                    "id": 1,
                    "methodDecoded": true,
                    "operation": "DELEGATECALL",
                    "output": "0x6d5fddb3cfb40e02442cedeb8cb629f58fea7487b462dfb9027a6ea5d28d33d6",
                    "revert": false,
                    "revertMessage": "",
                    "selector": "0xeb672419",
                    "status": true,
                    "value": "0.0654047"
                },
                "nodeType": 0
            },
            "2": {
                "invocation": {
                    "address": "0x8ffd57a9b2dcc10327768b601468fa192adc5c86",
                    "callData": "0x0000000000000000000000002f72156653a4f9ab1222ac62aa4156aa4a29926400000000000000000000000032400084c286cf3e17e7b677ea9583e60a000324eb67241900000000000000000000000000000000000000000000000000000000",
                    "decodedMethod": {
                        "callParams": [
                            {
                                "name": "_caller",
                                "type": "address",
                                "value": "0x2f72156653a4f9ab1222ac62aa4156aa4a299264"
                            },
                            {
                                "name": "_target",
                                "type": "address",
                                "value": "0x32400084c286cf3e17e7b677ea9583e60a000324"
                            },
                            {
                                "name": "_functionSig",
                                "type": "bytes4",
                                "value": "0xeb672419"
                            }
                        ],
                        "constructorArguments": "",
                        "name": "canCall",
                        "returnParams": [
                            {
                                "name": "",
                                "type": "bool",
                                "value": true
                            }
                        ],
                        "signature": "canCall(address,address,bytes4)"
                    },
                    "errorInfo": "",
                    "fromAddress": "0x32400084c286cf3e17e7b677ea9583e60a000324",
                    "gasUsed": 2907,
                    "id": 2,
                    "methodDecoded": true,
                    "operation": "STATICCALL",
                    "output": "0x0000000000000000000000000000000000000000000000000000000000000001",
                    "revert": false,
                    "revertMessage": "",
                    "selector": "0xb7009613",
                    "status": true,
                    "value": "0"
                },
                "nodeType": 0
            },
            "3": {
                "invocation": {
                    "address": "0x8ffd57a9b2dcc10327768b601468fa192adc5c86",
                    "callData": "0x0000000000000000000000000000000000000000000000000000000000000000",
                    "decodedMethod": {
                        "callParams": [
                            {
                                "name": "_l1Token",
                                "type": "address",
                                "value": "0x0000000000000000000000000000000000000000"
                            }
                        ],
                        "constructorArguments": "",
                        "name": "getTokenDepositLimitData",
                        "returnParams": [
                            {
                                "name": "",
                                "type": "(bool,uint256)",
                                "value": [
                                    {
                                        "name": "depositLimitation",
                                        "type": "bool",
                                        "value": false
                                    },
                                    {
                                        "name": "depositCap",
                                        "type": "uint256",
                                        "value": "0"
                                    }
                                ]
                            }
                        ],
                        "signature": "getTokenDepositLimitData(address)"
                    },
                    "errorInfo": "",
                    "fromAddress": "0x32400084c286cf3e17e7b677ea9583e60a000324",
                    "gasUsed": 4848,
                    "id": 3,
                    "methodDecoded": true,
                    "operation": "STATICCALL",
                    "output": "0x00000000000000000000000000000000000000000000000000000000000000000000000000000000000000000000000000000000000000000000000000000000",
                    "revert": false,
                    "revertMessage": "",
                    "selector": "0x7cf14701",
                    "status": true,
                    "value": "0"
                },
                "nodeType": 0
            },
            "4": {
                "event": {
                    "contract": "0x32400084c286cf3e17e7b677ea9583e60a000324",
                    "decodedLog": {
                        "name": "NewPriorityRequest",
                        "params": [
                            {
                                "name": "txId",
                                "type": "uint256",
                                "value": "2,310,296"
                            },
                            {
                                "name": "txHash",
                                "type": "bytes32",
                                "value": "0x6d5fddb3cfb40e02442cedeb8cb629f58fea7487b462dfb9027a6ea5d28d33d6"
                            },
                            {
                                "name": "expirationTimestamp",
                                "type": "uint64",
                                "value": "1,695,532,895"
                            },
                            {
                                "name": "transaction",
                                "type": "(uint256,uint256,uint256,uint256,uint256,uint256,uint256,uint256,uint256,uint256,uint256[4],bytes,bytes,uint256[],bytes,bytes)",
                                "value": [
                                    {
                                        "name": "txType",
                                        "type": "uint256",
                                        "value": "255"
                                    },
                                    {
                                        "name": "from",
                                        "type": "uint256",
                                        "value": "270,866,715,359,341,465,786,563,162,614,654,052,421,568,402,020"
                                    },
                                    {
                                        "name": "to",
                                        "type": "uint256",
                                        "value": "270,866,715,359,341,465,786,563,162,614,654,052,421,568,402,020"
                                    },
                                    {
                                        "name": "gasLimit",
                                        "type": "uint256",
                                        "value": "800,000"
                                    },
                                    {
                                        "name": "gasPerPubdataByteLimit",
                                        "type": "uint256",
                                        "value": "800"
                                    },
                                    {
                                        "name": "maxFeePerGas",
                                        "type": "uint256",
                                        "value": "500,000,000"
                                    },
                                    {
                                        "name": "maxPriorityFeePerGas",
                                        "type": "uint256",
                                        "value": "0"
                                    },
                                    {
                                        "name": "paymaster",
                                        "type": "uint256",
                                        "value": "0"
                                    },
                                    {
                                        "name": "nonce",
                                        "type": "uint256",
                                        "value": "2,310,296"
                                    },
                                    {
                                        "name": "value",
                                        "type": "uint256",
                                        "value": "64,751,150,879,200,000"
                                    },
                                    {
                                        "name": "reserved",
                                        "type": "uint256[4]",
                                        "value": [
                                            "65,404,700,000,000,000",
                                            "270,866,715,359,341,465,786,563,162,614,654,052,421,568,402,020",
                                            "0",
                                            "0"
                                        ]
                                    },
                                    {
                                        "name": "data",
                                        "type": "bytes",
                                        "value": "0x"
                                    },
                                    {
                                        "name": "signature",
                                        "type": "bytes",
                                        "value": "0x"
                                    },
                                    {
                                        "name": "factoryDeps",
                                        "type": "uint256[]",
                                        "value": []
                                    },
                                    {
                                        "name": "paymasterInput",
                                        "type": "bytes",
                                        "value": "0x"
                                    },
                                    {
                                        "name": "reservedDynamic",
                                        "type": "bytes",
                                        "value": "0x"
                                    }
                                ]
                            },
                            {
                                "name": "factoryDeps",
                                "type": "bytes[]",
                                "value": []
                            }
                        ],
                        "signature": "NewPriorityRequest(uint256,bytes32,uint64,(uint256,uint256,uint256,uint256,uint256,uint256,uint256,uint256,uint256,uint256,uint256[4],bytes,bytes,uint256[],bytes,bytes),bytes[])"
                    },
                    "id": 4,
                    "logData": "0x00000000000000000000000000000000000000000000000000000000002340986d5fddb3cfb40e02442cedeb8cb629f58fea7487b462dfb9027a6ea5d28d33d600000000000000000000000000000000000000000000000000000000650fc75f00000000000000000000000000000000000000000000000000000000000000a000000000000000000000000000000000000000000000000000000000000003a000000000000000000000000000000000000000000000000000000000000000ff0000000000000000000000002f72156653a4f9ab1222ac62aa4156aa4a2992640000000000000000000000002f72156653a4f9ab1222ac62aa4156aa4a29926400000000000000000000000000000000000000000000000000000000000c35000000000000000000000000000000000000000000000000000000000000000320000000000000000000000000000000000000000000000000000000001dcd650000000000000000000000000000000000000000000000000000000000000000000000000000000000000000000000000000000000000000000000000000000000000000000000000000000000000000000000000000000000000000000023409800000000000000000000000000000000000000000000000000e60ad422f3d30000000000000000000000000000000000000000000000000000e85d3a662418000000000000000000000000002f72156653a4f9ab1222ac62aa4156aa4a299264000000000000000000000000000000000000000000000000000000000000000000000000000000000000000000000000000000000000000000000000000000000000000000000000000000000000000000000000000000000000000000000260000000000000000000000000000000000000000000000000000000000000028000000000000000000000000000000000000000000000000000000000000002a000000000000000000000000000000000000000000000000000000000000002c000000000000000000000000000000000000000000000000000000000000002e0000000000000000000000000000000000000000000000000000000000000000000000000000000000000000000000000000000000000000000000000000000000000000000000000000000000000000000000000000000000000000000000000000000000000000000000000000000000000000000000000000000000000000000000000000000000000000000000000000000000000000000000000000000000000000000000000000000000000000000000000000000000000000000000000",
                    "logDecoded": true,
                    "operation": "EVENT",
                    "revert": false,
                    "status": true,
                    "topics": [
                        "0x4531cd5795773d7101c17bdeb9f5ab7f47d7056017506f937083be5d6e77a382"
                    ]
                },
                "nodeType": 1
            }
        },
        "gasFlame": [
            {
                "children": [
                    {
                        "children": [
                            {
                                "children": [],
                                "depth": 0,
                                "name": "Initial Gas",
                                "value": 22840
                            },
                            {
                                "children": [
                                    {
                                        "children": [
                                            {
                                                "children": [],
                                                "depth": 2,
                                                "name": "canCall",
                                                "value": 2907
                                            },
                                            {
                                                "children": [],
                                                "depth": 2,
                                                "name": "getTokenDepositLimitData",
                                                "value": 4848
                                            }
                                        ],
                                        "depth": 1,
                                        "name": "requestL2Transaction",
                                        "value": 90720
                                    }
                                ],
                                "depth": 0,
                                "name": "Executed Gas",
                                "value": 98082
                            }
                        ],
                        "depth": -1,
                        "name": "Actual Gas Used",
                        "value": 118122
                    },
                    {
                        "children": [],
                        "depth": -1,
                        "name": "Refunded Gas",
                        "value": 2800
                    }
                ],
                "depth": -2,
                "name": "Total Gas",
                "value": 120922
            }
        ],
        "isConfirmed": true,
        "mainTrace": [
            {
                "children": [
                    {
                        "children": [
                            {
                                "children": [
                                    {
                                        "children": [],
                                        "depth": 2,
                                        "id": 2,
                                        "order": 2
                                    },
                                    {
                                        "children": [],
                                        "depth": 2,
                                        "id": 3,
                                        "order": 3
                                    },
                                    {
                                        "children": [],
                                        "depth": 2,
                                        "id": 4,
                                        "order": 4
                                    }
                                ],
                                "depth": 1,
                                "id": 1,
                                "order": 1
                            }
                        ],
                        "depth": 0,
                        "id": 0,
                        "order": 0
                    }
                ],
                "depth": -1,
                "id": -1,
                "order": -1
            }
        ],
        "mainTraceNodeCount": 5,
        "parentIdMap": {
            "0": -1,
            "1": 0,
            "2": 1,
            "3": 1,
            "4": 1
        },
        "tidyTrace": [
            {
                "children": [
                    {
                        "children": [
                            {
                                "children": [
                                    {
                                        "children": [],
                                        "depth": 2,
                                        "id": 4,
                                        "order": 4
                                    }
                                ],
                                "depth": 1,
                                "id": 1,
                                "order": 1
                            }
                        ],
                        "depth": 0,
                        "id": 0,
                        "order": 0
                    }
                ],
                "depth": -1,
                "id": -1,
                "order": -1
            }
        ],
        "tidyTraceNodeCount": 3
    },
    "state_change": {
        "stateChanges": [
            {
                "address": "0x32400084c286cf3e17e7b677ea9583e60a000324",
                "erc": "",
                "slots": [
                    {
                        "current": "0x6d5fddb3cfb40e02442cedeb8cb629f58fea7487b462dfb9027a6ea5d28d33d6",
                        "key": "0x3a6c63bbc6a2085a549b5b71e49fb91da43830853b872167ac5f3099a3c29c36",
                        "prev": "0x0000000000000000000000000000000000000000000000000000000000000000"
                    },
                    {
                        "current": "0x00000000000000000000000000000000000000000000000000000000650fc75f",
                        "key": "0x3a6c63bbc6a2085a549b5b71e49fb91da43830853b872167ac5f3099a3c29c37",
                        "prev": "0x0000000000000000000000000000000000000000000000000000000000000000"
                    },
                    {
                        "current": "0x0000000000000000000000000000000000000000000000000000000000234099",
                        "key": "0x0000000000000000000000000000000000000000000000000000000000000011",
                        "prev": "0x0000000000000000000000000000000000000000000000000000000000234098"
                    }
                ],
                "storageVariables": [
                    {
                        "name": "s",
                        "type": "struct AppStorage",
                        "value": {
                            "fields": [
                                {
                                    "name": "priorityQueue",
                                    "type": "struct PriorityQueue.Queue",
                                    "value": {
                                        "fields": [
                                            {
                                                "name": "data",
                                                "type": "mapping(uint256 => struct PriorityOperation)",
                                                "value": {
                                                    "pairs": [
                                                        {
                                                            "key": "2310296",
                                                            "value": {
                                                                "fields": [
                                                                    {
                                                                        "name": "canonicalTxHash",
                                                                        "type": "bytes32",
                                                                        "value": {
                                                                            "current": "0x6d5fddb3cfb40e02442cedeb8cb629f58fea7487b462dfb9027a6ea5d28d33d6",
                                                                            "prev": "0x0000000000000000000000000000000000000000000000000000000000000000",
                                                                            "typeTag": 1
                                                                        }
                                                                    },
                                                                    {
                                                                        "name": "expirationTimestamp",
                                                                        "type": "uint64",
                                                                        "value": {
                                                                            "current": "1695532895",
                                                                            "prev": "0",
                                                                            "typeTag": 1
                                                                        }
                                                                    },
                                                                    {
                                                                        "name": "layer2Tip",
                                                                        "type": "uint192",
                                                                        "value": {
                                                                            "current": "0",
                                                                            "prev": "0",
                                                                            "typeTag": 1
                                                                        }
                                                                    }
                                                                ],
                                                                "typeTag": 3
                                                            }
                                                        }
                                                    ],
                                                    "typeTag": 4
                                                }
                                            },
                                            {
                                                "name": "tail",
                                                "type": "uint256",
                                                "value": {
                                                    "current": "2310297",
                                                    "prev": "2310296",
                                                    "typeTag": 1
                                                }
                                            }
                                        ],
                                        "typeTag": 3
                                    }
                                }
                            ],
                            "typeTag": 3
                        }
                    }
                ]
            }
        ]
    }
}