{
    "balance_change": {
        "balanceChanges": [
            {
                "account": "0xbeeb66591fc66210672880da41a481bf9fcfc72a",
                "assets": [
                    {
                        "address": "0xb9d076fde463dbc9f915e5392f807315bf940334",
                        "amount": "0.415680739808964484",
                        "iconUrl": "",
                        "isERC1155": false,
                        "isERC721": false,
                        "sign": false,
                        "value": ""
                    }
                ]
            },
            {
                "account": "0x085a9340ff7692ab6703f17ab5ffc917b580a6fd",
                "assets": [
                    {
                        "address": "0xb9d076fde463dbc9f915e5392f807315bf940334",
                        "amount": "0.415680739808964484",
                        "iconUrl": "",
                        "isERC1155": false,
                        "isERC721": false,
                        "sign": true,
                        "value": ""
                    }
                ]
            }
        ]
    },
    "profile": {
        "basic_info": {
            "baseFee": "",
            "blockNumber": 11531107,
            "callData": "0x0e89439b00000000000000000000000000000000000000000000000005c4cb6e3448ef8400000000000000000000000000000000000000000000000000000000000000400000000000000000000000000000000000000000000000000000000000000000",
            "debugEnable": true,
            "errorInfo": "",
            "eventCount": 3,
            "feeRecipient": "0xea674fdde714fd979de3edf0f56aa9716b898ec8",
            "formatValue": "0",
            "gasLimit": 131952,
            "gasPrice": "70",
            "gasUsed": 72015,
            "intTxnCount": 3,
            "internalRevert": false,
            "internalRevertMessage": "",
            "isContractCreation": false,
            "isFlashloan": false,
            "maxFee": "",
            "nonce": 495,
            "overwritedBlockNumber": -1,
            "priorityFee": "",
            "receiver": "0x085a9340ff7692ab6703f17ab5ffc917b580a6fd",
            "revertMessage": "",
            "sender": "0xbeeb66591fc66210672880da41a481bf9fcfc72a",
            "simulationEnable": true,
            "sourceTxnHash": "0xb34373c11330a827d9d836ceb3b6ec2c95c4a6d720b0f2329071690d760843fa",
            "status": true,
            "timestamp": "2020-12-26T19:02:59Z",
            "transactionFee": "0.00504105",
            "txnHash": "0xb34373c11330a827d9d836ceb3b6ec2c95c4a6d720b0f2329071690d760843fa",
            "txnIndex": 49,
            "type": 0,
            "value": "0"
        },
        "fund_flow": [
            {
                "amount": "0.415680739808964484",
                "from": "0xbeeb66591fc66210672880da41a481bf9fcfc72a",
                "id": 1,
                "isERC1155": false,
                "isERC721": false,
                "isReverted": false,
                "order": 1,
                "to": "0x085a9340ff7692ab6703f17ab5ffc917b580a6fd",
                "token": "0xb9d076fde463dbc9f915e5392f807315bf940334"
            }
        ],
        "token_infos": [
            {
                "address": "0xb9d076fde463dbc9f915e5392f807315bf940334",
                "decimals": 18
            },
            {
                "address": "0xc02aaa39b223fe8d0a0e5c4f27ead9083c756cc2",
                "decimals": 18
            },
            {
                "address": "0xeeeeeeeeeeeeeeeeeeeeeeeeeeeeeeeeeeeeeeee",
                "decimals": 18
            }
        ]
    },
    "address_label": {
        "labels": [
            {
                "address": "0x0000000000000000000000000000000000000001",
                "label": "Precompiled"
            },
            {
                "address": "0x0000000000000000000000000000000000000002",
                "label": "Precompiled"
            },
            {
                "address": "0xb9d076fde463dbc9f915e5392f807315bf940334",
                "label": "Badger: Vault (tbtcCrv setts)"
            },
            {
                "address": "0xe4ae305b08434bf3d74e0086592627f913a258a9",
                "label": "Badger: Sett"
            },
            {
                "address": "0x92b30e2b504c4afbbf518db8c74de5cdfbed369d",
                "label": "BadgerGeyser"
            },
            {
                "address": "0x0000000000000000000000000000000000000003",
                "label": "Precompiled"
            },
            {
                "address": "0x0000000000000000000000000000000000000004",
                "label": "Precompiled"
            },
            {
                "address": "0xeeeeeeeeeeeeeeeeeeeeeeeeeeeeeeeeeeeeeeee",
                "label": "Ether"
            },
            {
                "address": "0x085a9340ff7692ab6703f17ab5ffc917b580a6fd",
                "label": "Badger: Staking tbtcCrv setts"
            }
        ]
    },
    "trace": {
        "accountLabels": null,
        "dataMap": {
            "-1": {
                "invocation": {
                    "address": "0xbeeb66591fc66210672880da41a481bf9fcfc72a",
                    "callData": "",
                    "decodedMethod": null,
                    "errorInfo": "",
                    "fromAddress": "",
                    "gasUsed": 0,
                    "id": -1,
                    "methodDecoded": false,
                    "operation": "",
                    "output": "",
                    "revert": false,
                    "revertMessage": "",
                    "selector": "",
                    "status": false,
                    "value": ""
                },
                "nodeType": 0
            },
            "0": {
                "invocation": {
                    "address": "0x085a9340ff7692ab6703f17ab5ffc917b580a6fd",
                    "callData": "0x00000000000000000000000000000000000000000000000005c4cb6e3448ef8400000000000000000000000000000000000000000000000000000000000000400000000000000000000000000000000000000000000000000000000000000000",
                    "decodedMethod": {
                        "callParams": [
                            {
                                "name": "amount",
                                "type": "uint256",
                                "value": "415,680,739,808,964,484"
                            },
                            {
                                "name": "data",
                                "type": "bytes",
                                "value": "0x"
                            }
                        ],
                        "constructorArguments": "",
                        "name": "stake",
                        "returnParams": [],
                        "signature": "stake(uint256,bytes)"
                    },
                    "errorInfo": "",
                    "fromAddress": "0xbeeb66591fc66210672880da41a481bf9fcfc72a",
                    "gasUsed": 72015,
                    "id": 0,
                    "methodDecoded": true,
                    "operation": "CALL",
                    "output": "",
                    "revert": false,
                    "revertMessage": "",
                    "selector": "0x0e89439b",
                    "status": true,
                    "value": "0"
                },
                "nodeType": 0
            },
            "1": {
                "invocation": {
                    "address": "0x92b30e2b504c4afbbf518db8c74de5cdfbed369d",
                    "callData": "0x00000000000000000000000000000000000000000000000005c4cb6e3448ef8400000000000000000000000000000000000000000000000000000000000000400000000000000000000000000000000000000000000000000000000000000000",
                    "decodedMethod": {
                        "callParams": [
                            {
                                "name": "amount",
                                "type": "uint256",
                                "value": "415,680,739,808,964,484"
                            },
                            {
                                "name": "data",
                                "type": "bytes",
                                "value": "0x"
                            }
                        ],
                        "constructorArguments": "",
                        "name": "stake",
                        "returnParams": [],
                        "signature": "stake(uint256,bytes)"
                    },
                    "errorInfo": "",
                    "fromAddress": "0x085a9340ff7692ab6703f17ab5ffc917b580a6fd",
                    "gasUsed": 62677,
                    "id": 1,
                    "methodDecoded": true,
                    "operation": "DELEGATECALL",
                    "output": "",
                    "revert": false,
                    "revertMessage": "",
                    "selector": "0x0e89439b",
                    "status": true,
                    "value": "0"
                },
                "nodeType": 0
            },
            "2": {
                "invocation": {
                    "address": "0xb9d076fde463dbc9f915e5392f807315bf940334",
                    "callData": "0x000000000000000000000000beeb66591fc66210672880da41a481bf9fcfc72a000000000000000000000000085a9340ff7692ab6703f17ab5ffc917b580a6fd00000000000000000000000000000000000000000000000005c4cb6e3448ef84",
                    "decodedMethod": {
                        "callParams": [
                            {
                                "name": "sender",
                                "type": "address",
                                "value": "0xbeeb66591fc66210672880da41a481bf9fcfc72a"
                            },
                            {
                                "name": "recipient",
                                "type": "address",
                                "value": "0x085a9340ff7692ab6703f17ab5ffc917b580a6fd"
                            },
                            {
                                "decimalAvailable": true,
                                "name": "amount",
                                "type": "uint256",
                                "value": "415,680,739,808,964,484"
                            }
                        ],
                        "constructorArguments": "",
                        "name": "transferFrom",
                        "returnParams": [
                            {
                                "name": "",
                                "type": "bool",
                                "value": true
                            }
                        ],
                        "signature": "transferFrom(address,address,uint256)"
                    },
                    "errorInfo": "",
                    "fromAddress": "0x085a9340ff7692ab6703f17ab5ffc917b580a6fd",
                    "gasUsed": 26582,
                    "id": 2,
                    "methodDecoded": true,
                    "operation": "CALL",
                    "output": "0x0000000000000000000000000000000000000000000000000000000000000001",
                    "revert": false,
                    "revertMessage": "",
                    "selector": "0x23b872dd",
                    "status": true,
                    "value": "0"
                },
                "nodeType": 0
            },
            "3": {
                "invocation": {
                    "address": "0xe4ae305b08434bf3d74e0086592627f913a258a9",
                    "callData": "0x000000000000000000000000beeb66591fc66210672880da41a481bf9fcfc72a000000000000000000000000085a9340ff7692ab6703f17ab5ffc917b580a6fd00000000000000000000000000000000000000000000000005c4cb6e3448ef84",
                    "decodedMethod": {
                        "callParams": [
                            {
                                "name": "sender",
                                "type": "address",
                                "value": "0xbeeb66591fc66210672880da41a481bf9fcfc72a"
                            },
                            {
                                "name": "recipient",
                                "type": "address",
                                "value": "0x085a9340ff7692ab6703f17ab5ffc917b580a6fd"
                            },
                            {
                                "decimalAvailable": true,
                                "name": "amount",
                                "type": "uint256",
                                "value": "415,680,739,808,964,484"
                            }
                        ],
                        "constructorArguments": "",
                        "name": "transferFrom",
                        "returnParams": [
                            {
                                "name": "",
                                "type": "bool",
                                "value": true
                            }
                        ],
                        "signature": "transferFrom(address,address,uint256)"
                    },
                    "errorInfo": "",
                    "fromAddress": "0xb9d076fde463dbc9f915e5392f807315bf940334",
                    "gasUsed": 23797,
                    "id": 3,
                    "methodDecoded": true,
                    "operation": "DELEGATECALL",
                    "output": "0x0000000000000000000000000000000000000000000000000000000000000001",
                    "revert": false,
                    "revertMessage": "",
                    "selector": "0x23b872dd",
                    "status": true,
                    "value": "0"
                },
                "nodeType": 0
            },
            "4": {
                "event": {
                    "contract": "0xb9d076fde463dbc9f915e5392f807315bf940334",
                    "decodedLog": {
                        "name": "Transfer",
                        "params": [
                            {
                                "name": "from",
                                "type": "address",
                                "value": "0xbeeb66591fc66210672880da41a481bf9fcfc72a"
                            },
                            {
                                "name": "to",
                                "type": "address",
                                "value": "0x085a9340ff7692ab6703f17ab5ffc917b580a6fd"
                            },
                            {
                                "decimalAvailable": true,
                                "name": "value",
                                "type": "uint256",
                                "value": "415,680,739,808,964,484"
                            }
                        ],
                        "signature": "Transfer(address,address,uint256)"
                    },
                    "id": 4,
                    "logData": "0x00000000000000000000000000000000000000000000000005c4cb6e3448ef84",
                    "logDecoded": true,
                    "operation": "EVENT",
                    "revert": false,
                    "status": true,
                    "topics": [
                        "0xddf252ad1be2c89b69c2b068fc378daa952ba7f163c4a11628f55a4df523b3ef",
                        "0x000000000000000000000000beeb66591fc66210672880da41a481bf9fcfc72a",
                        "0x000000000000000000000000085a9340ff7692ab6703f17ab5ffc917b580a6fd"
                    ]
                },
                "nodeType": 1
            },
            "5": {
                "event": {
                    "contract": "0xb9d076fde463dbc9f915e5392f807315bf940334",
                    "decodedLog": {
                        "name": "Approval",
                        "params": [
                            {
                                "name": "owner",
                                "type": "address",
                                "value": "0xbeeb66591fc66210672880da41a481bf9fcfc72a"
                            },
                            {
                                "name": "spender",
                                "type": "address",
                                "value": "0x085a9340ff7692ab6703f17ab5ffc917b580a6fd"
                            },
                            {
                                "decimalAvailable": true,
                                "name": "value",
                                "type": "uint256",
                                "value": "115,792,089,237,316,195,423,570,985,008,687,907,853,269,984,665,640,564,039,457,168,327,173,320,675,451"
                            }
                        ],
                        "signature": "Approval(address,address,uint256)"
                    },
                    "id": 5,
                    "logData": "0xfffffffffffffffffffffffffffffffffffffffffffffffffa3b3491cbb7107b",
                    "logDecoded": true,
                    "operation": "EVENT",
                    "revert": false,
                    "status": true,
                    "topics": [
                        "0x8c5be1e5ebec7d5bd14f71427d1e84f3dd0314c0f7b2291e5b200ac8c7c3b925",
                        "0x000000000000000000000000beeb66591fc66210672880da41a481bf9fcfc72a",
                        "0x000000000000000000000000085a9340ff7692ab6703f17ab5ffc917b580a6fd"
                    ]
                },
                "nodeType": 1
            },
            "6": {
                "event": {
                    "contract": "0x085a9340ff7692ab6703f17ab5ffc917b580a6fd",
                    "decodedLog": {
                        "name": "Staked",
                        "params": [
                            {
                                "name": "user",
                                "type": "address",
                                "value": "0xbeeb66591fc66210672880da41a481bf9fcfc72a"
                            },
                            {
                                "name": "timestamp",
                                "type": "uint256",
                                "value": "1,609,009,379"
                            },
                            {
                                "name": "blockNumber",
                                "type": "uint256",
                                "value": "11,531,107"
                            },
                            {
                                "name": "amount",
                                "type": "uint256",
                                "value": "415,680,739,808,964,484"
                            },
                            {
                                "name": "total",
                                "type": "uint256",
                                "value": "415,680,739,808,964,484"
                            },
                            {
                                "name": "data",
                                "type": "bytes",
                                "value": "0x"
                            }
                        ],
                        "signature": "Staked(address,uint256,uint256,uint256,uint256,bytes)"
                    },
                    "id": 6,
                    "logData": "0x00000000000000000000000000000000000000000000000005c4cb6e3448ef8400000000000000000000000000000000000000000000000005c4cb6e3448ef8400000000000000000000000000000000000000000000000000000000000000600000000000000000000000000000000000000000000000000000000000000000",
                    "logDecoded": true,
                    "operation": "EVENT",
                    "revert": false,
                    "status": true,
                    "topics": [
                        "0x070462f09e1fcdd39ee7dbe9165c6a369557b03057a6d820c84a600208b9b26d",
                        "0x000000000000000000000000beeb66591fc66210672880da41a481bf9fcfc72a",
                        "0x000000000000000000000000000000000000000000000000000000005fe788e3",
                        "0x0000000000000000000000000000000000000000000000000000000000aff363"
                    ]
                },
                "nodeType": 1
            }
        },
        "gasFlame": [
            {
                "children": [
                    {
                        "children": [
                            {
                                "children": [],
                                "depth": 0,
                                "name": "Initial Gas",
                                "value": 21556
                            },
                            {
                                "children": [
                                    {
                                        "children": [
                                            {
                                                "children": [
                                                    {
                                                        "children": [],
                                                        "depth": 3,
                                                        "name": "transferFrom",
                                                        "value": 23797
                                                    }
                                                ],
                                                "depth": 2,
                                                "name": "transferFrom",
                                                "value": 26582
                                            }
                                        ],
                                        "depth": 1,
                                        "name": "stake",
                                        "value": 62677
                                    }
                                ],
                                "depth": 0,
                                "name": "Executed Gas",
                                "value": 65459
                            }
                        ],
                        "depth": -1,
                        "name": "Actual Gas Used",
                        "value": 72015
                    },
                    {
                        "children": [],
                        "depth": -1,
                        "name": "Refunded Gas",
                        "value": 15000
                    }
                ],
                "depth": -2,
                "name": "Total Gas",
                "value": 87015
            }
        ],
        "isConfirmed": true,
        "mainTrace": [
            {
                "children": [
                    {
                        "children": [
                            {
                                "children": [
                                    {
                                        "children": [
                                            {
                                                "children": [
                                                    {
                                                        "children": [],
                                                        "depth": 4,
                                                        "id": 4,
                                                        "order": 4
                                                    },
                                                    {
                                                        "children": [],
                                                        "depth": 4,
                                                        "id": 5,
                                                        "order": 5
                                                    }
                                                ],
                                                "depth": 3,
                                                "id": 3,
                                                "order": 3
                                            }
                                        ],
                                        "depth": 2,
                                        "id": 2,
                                        "order": 2
                                    },
                                    {
                                        "children": [],
                                        "depth": 2,
                                        "id": 6,
                                        "order": 6
                                    }
                                ],
                                "depth": 1,
                                "id": 1,
                                "order": 1
                            }
                        ],
                        "depth": 0,
                        "id": 0,
                        "order": 0
                    }
                ],
                "depth": -1,
                "id": -1,
                "order": -1
            }
        ],
        "mainTraceNodeCount": 7,
        "parentIdMap": {
            "0": -1,
            "1": 0,
            "2": 1,
            "3": 2,
            "4": 3,
            "5": 3,
            "6": 1
        },
        "tidyTrace": [
            {
                "children": [
                    {
                        "children": [
                            {
                                "children": [
                                    {
                                        "children": [
                                            {
                                                "children": [
                                                    {
                                                        "children": [],
                                                        "depth": 4,
                                                        "id": 4,
                                                        "order": 4
                                                    },
                                                    {
                                                        "children": [],
                                                        "depth": 4,
                                                        "id": 5,
                                                        "order": 5
                                                    }
                                                ],
                                                "depth": 3,
                                                "id": 3,
                                                "order": 3
                                            }
                                        ],
                                        "depth": 2,
                                        "id": 2,
                                        "order": 2
                                    },
                                    {
                                        "children": [],
                                        "depth": 2,
                                        "id": 6,
                                        "order": 6
                                    }
                                ],
                                "depth": 1,
                                "id": 1,
                                "order": 1
                            }
                        ],
                        "depth": 0,
                        "id": 0,
                        "order": 0
                    }
                ],
                "depth": -1,
                "id": -1,
                "order": -1
            }
        ],
        "tidyTraceNodeCount": 7
    },
    "state_change": {
        "stateChanges": [
            {
                "address": "0x085a9340ff7692ab6703f17ab5ffc917b580a6fd",
                "erc": "",
                "slots": [
                    {
                        "current": "0x00000000000000000000000000000000000000000000000005c4cb6e3448ef84",
                        "key": "0x97327f1486d25e00f4fe4d5771095645288925da6d5be0657f5171640ce6defe",
                        "prev": "0x0000000000000000000000000000000000000000000000000000000000000000"
                    },
                    {
                        "current": "0x0000000000000000000000000000000000000000000000943ea19c9f9bf82bb1",
                        "key": "0x0000000000000000000000000000000000000000000000000000000000000066",
                        "prev": "0x00000000000000000000000000000000000000000000009438dcd13167af3c2d"
                    }
                ],
                "storageVariables": [
                    {
                        "name": "_userTotals",
                        "type": "mapping(address => uint256)",
                        "value": {
                            "pairs": [
                                {
                                    "key": "0xbeeb66591fc66210672880da41a481bf9fcfc72a",
                                    "value": {
                                        "current": "415680739808964484",
                                        "prev": "0",
                                        "typeTag": 1
                                    }
                                }
                            ],
                            "typeTag": 4
                        }
                    },
                    {
                        "name": "totalStaked",
                        "type": "uint256",
                        "value": {
                            "current": "2734631183419946052529",
                            "prev": "2734215502680137088045",
                            "typeTag": 1
                        }
                    }
                ]
            },
            {
                "address": "0xb9d076fde463dbc9f915e5392f807315bf940334",
                "erc": "ERC-20",
                "slots": [
                    {
                        "current": "0x0000000000000000000000000000000000000000000000000000000000000000",
                        "key": "0xefa1bc1e763223b2b2c1332246cde391988f5773a2689535dfa684df6aea4953",
                        "prev": "0x00000000000000000000000000000000000000000000000005c4cb6e3448ef84"
                    },
                    {
                        "current": "0x0000000000000000000000000000000000000000000000943ea19c9f9bf82bb1",
                        "key": "0x7b3229d2ec2c5e0a759da405c4a75185254d0336b5972cc29339d1bdeed41a26",
                        "prev": "0x00000000000000000000000000000000000000000000009438dcd13167af3c2d"
                    },
                    {
                        "current": "0xfffffffffffffffffffffffffffffffffffffffffffffffffa3b3491cbb7107b",
                        "key": "0x2b3d300fddd51e29e09e7e5c7748f6f765b1c23f6077ca14b67120c08ac7d21f",
                        "prev": "0xffffffffffffffffffffffffffffffffffffffffffffffffffffffffffffffff"
                    }
                ],
                "storageVariables": [
                    {
                        "name": "_balances",
                        "type": "mapping(address => uint256)",
                        "value": {
                            "pairs": [
                                {
                                    "key": "0x085a9340ff7692ab6703f17ab5ffc917b580a6fd",
                                    "value": {
                                        "current": "2734631183419946052529",
                                        "prev": "2734215502680137088045",
                                        "typeTag": 1
                                    }
                                },
                                {
                                    "key": "0xbeeb66591fc66210672880da41a481bf9fcfc72a",
                                    "value": {
                                        "current": "0",
                                        "prev": "415680739808964484",
                                        "typeTag": 1
                                    }
                                }
                            ],
                            "typeTag": 4
                        }
                    },
                    {
                        "name": "_allowances",
                        "type": "mapping(address => mapping(address => uint256))",
                        "value": {
                            "pairs": [
                                {
                                    "key": "0xbeeb66591fc66210672880da41a481bf9fcfc72a",
                                    "value": {
                                        "pairs": [
                                            {
                                                "key": "0x085a9340ff7692ab6703f17ab5ffc917b580a6fd",
                                                "value": {
                                                    "current": "115792089237316195423570985008687907853269984665640564039457168327173320675451",
                                                    "prev": "115792089237316195423570985008687907853269984665640564039457584007913129639935",
                                                    "typeTag": 1
                                                }
                                            }
                                        ],
                                        "typeTag": 4
                                    }
                                }
                            ],
                            "typeTag": 4
                        }
                    }
                ]
            }
        ]
    }
}