{
    "balance_change": {
        "balanceChanges": []
    },
    "profile": {
        "basic_info": {
            "baseFee": "",
            "blockNumber": 5102722,
            "callData": "0x278b8c0e00000000000000000000000000000000000000000000000000000000000000000000000000000000000000000000000000000000000000000033b5b204b4b000000000000000000000000000b8327f32127afe37a544c52b628653e222a93bad00000000000000000000000000000000000000000000006f21770aa26ec8000000000000000000000000000000000125dfa371a19e6f7cb54395ca0000000000000000000000000000000000000000000000000000000000000000007b1bf723000000000000000000000000000000000000000000000000000000000000001b5e10471d6977b4c161f60bf2bdc26b74be1da344ea1918964c013dbe7d05d05638ea33e4d6092c0611ff60896f3f812105b1df125968c12134e564e78ecdf636",
            "debugEnable": true,
            "errorInfo": "",
            "eventCount": 1,
            "feeRecipient": "0x829bd824b016326a401d083b33d092293333a830",
            "formatValue": "0",
            "gasLimit": 250000,
            "gasPrice": "4",
            "gasUsed": 44930,
            "intTxnCount": 2,
            "internalRevert": false,
            "internalRevertMessage": "",
            "isContractCreation": false,
            "isFlashloan": false,
            "maxFee": "",
            "nonce": 33,
            "overwritedBlockNumber": -1,
            "priorityFee": "",
            "receiver": "0x8d12a197cb00d4747a1fe03395095ce2a5cc6819",
            "revertMessage": "",
            "sender": "0xa3eb896eb3e39f49303949593ee5d6b7c1078966",
            "simulationEnable": true,
            "sourceTxnHash": "0xb47a34e5cc7c12ba7b303370e4d656f1d830dc2423f2c8d05fefe9caa3335f2f",
            "status": true,
            "timestamp": "2018-02-16T20:50:43Z",
            "transactionFee": "0.00017972",
            "txnHash": "0xb47a34e5cc7c12ba7b303370e4d656f1d830dc2423f2c8d05fefe9caa3335f2f",
            "txnIndex": 24,
            "type": 0,
            "value": "0"
        },
        "fund_flow": [],
        "token_infos": [
            {
                "address": "0xeeeeeeeeeeeeeeeeeeeeeeeeeeeeeeeeeeeeeeee",
                "decimals": 18
            },
            {
                "address": "0xc02aaa39b223fe8d0a0e5c4f27ead9083c756cc2",
                "decimals": 18
            }
        ]
    },
    "address_label": {
        "labels": [
            {
                "address": "0x0000000000000000000000000000000000000004",
                "label": "Precompiled"
            },
            {
                "address": "0xeeeeeeeeeeeeeeeeeeeeeeeeeeeeeeeeeeeeeeee",
                "label": "Ether"
            },
            {
                "address": "0x8d12a197cb00d4747a1fe03395095ce2a5cc6819",
                "label": "EtherDelta"
            },
            {
                "address": "0x0000000000000000000000000000000000000002",
                "label": "Precompiled"
            },
            {
                "address": "0xb8327f32127afe37a544c52b628653e222a93bad",
                "label": "Wizzle Infinity Token (WZI)"
            },
            {
                "address": "0x0000000000000000000000000000000000000000",
                "label": "Null Address"
            },
            {
                "address": "0x0000000000000000000000000000000000000001",
                "label": "Precompiled"
            },
            {
                "address": "0x0000000000000000000000000000000000000003",
                "label": "Precompiled"
            }
        ]
    },
    "trace": {
        "accountLabels": null,
        "dataMap": {
            "-1": {
                "invocation": {
                    "address": "0xa3eb896eb3e39f49303949593ee5d6b7c1078966",
                    "callData": "",
                    "decodedMethod": null,
                    "errorInfo": "",
                    "fromAddress": "",
                    "gasUsed": 0,
                    "id": -1,
                    "methodDecoded": false,
                    "operation": "",
                    "output": "",
                    "revert": false,
                    "revertMessage": "",
                    "selector": "",
                    "status": false,
                    "value": ""
                },
                "nodeType": 0
            },
            "0": {
                "invocation": {
                    "address": "0x8d12a197cb00d4747a1fe03395095ce2a5cc6819",
                    "callData": "0x00000000000000000000000000000000000000000000000000000000000000000000000000000000000000000000000000000000000000000033b5b204b4b000000000000000000000000000b8327f32127afe37a544c52b628653e222a93bad00000000000000000000000000000000000000000000006f21770aa26ec8000000000000000000000000000000000125dfa371a19e6f7cb54395ca0000000000000000000000000000000000000000000000000000000000000000007b1bf723000000000000000000000000000000000000000000000000000000000000001b5e10471d6977b4c161f60bf2bdc26b74be1da344ea1918964c013dbe7d05d05638ea33e4d6092c0611ff60896f3f812105b1df125968c12134e564e78ecdf636",
                    "decodedMethod": {
                        "callParams": [
                            {
                                "name": "tokenGet",
                                "type": "address",
                                "value": "0x0000000000000000000000000000000000000000"
                            },
                            {
                                "name": "amountGet",
                                "type": "uint256",
                                "value": "14,555,000,000,000,000"
                            },
                            {
                                "name": "tokenGive",
                                "type": "address",
                                "value": "0xb8327f32127afe37a544c52b628653e222a93bad"
                            },
                            {
                                "name": "amountGive",
                                "type": "uint256",
                                "value": "2,050,000,000,000,000,000,000"
                            },
                            {
                                "name": "expires",
                                "type": "uint256",
                                "value": "100,000,000,000,000,000,000,000,000,000,000,000,000,000"
                            },
                            {
                                "name": "nonce",
                                "type": "uint256",
                                "value": "2,065,430,307"
                            },
                            {
                                "name": "v",
                                "type": "uint8",
                                "value": "27"
                            },
                            {
                                "name": "r",
                                "type": "bytes32",
                                "value": "0x5e10471d6977b4c161f60bf2bdc26b74be1da344ea1918964c013dbe7d05d056"
                            },
                            {
                                "name": "s",
                                "type": "bytes32",
                                "value": "0x38ea33e4d6092c0611ff60896f3f812105b1df125968c12134e564e78ecdf636"
                            }
                        ],
                        "constructorArguments": "",
                        "name": "cancelOrder",
                        "returnParams": [],
                        "signature": "cancelOrder(address,uint256,address,uint256,uint256,uint256,uint8,bytes32,bytes32)"
                    },
                    "errorInfo": "",
                    "fromAddress": "0xa3eb896eb3e39f49303949593ee5d6b7c1078966",
                    "gasUsed": 44930,
                    "id": 0,
                    "methodDecoded": true,
                    "operation": "CALL",
                    "output": "",
                    "revert": false,
                    "revertMessage": "",
                    "selector": "0x278b8c0e",
                    "status": true,
                    "value": "0"
                },
                "nodeType": 0
            },
            "1": {
                "invocation": {
                    "address": "0x0000000000000000000000000000000000000002",
                    "callData": "0xcb00d4747a1fe03395095ce2a5cc681900000000000000000000000000000000000000000000000000000000000000000000000000000000000000000033b5b204b4b000b8327f32127afe37a544c52b628653e222a93bad00000000000000000000000000000000000000000000006f21770aa26ec8000000000000000000000000000000000125dfa371a19e6f7cb54395ca0000000000000000000000000000000000000000000000000000000000000000007b1bf723",
                    "decodedMethod": {
                        "callParams": [
                            {
                                "name": "data",
                                "type": "bytes",
                                "value": "0x8d12a197cb00d4747a1fe03395095ce2a5cc681900000000000000000000000000000000000000000000000000000000000000000000000000000000000000000033b5b204b4b000b8327f32127afe37a544c52b628653e222a93bad00000000000000000000000000000000000000000000006f21770aa26ec8000000000000000000000000000000000125dfa371a19e6f7cb54395ca0000000000000000000000000000000000000000000000000000000000000000007b1bf723"
                            }
                        ],
                        "constructorArguments": "",
                        "name": "sha256hash",
                        "returnParams": [
                            {
                                "name": "hash",
                                "type": "bytes32",
                                "value": "0xf8c5e261a6d1f1ec7ddf664c16952570853ffb46428825c3124bc37fdd8d5b19"
                            }
                        ],
                        "signature": "sha256hash(bytes)"
                    },
                    "errorInfo": "",
                    "fromAddress": "0x8d12a197cb00d4747a1fe03395095ce2a5cc6819",
                    "gasUsed": 132,
                    "id": 1,
                    "methodDecoded": true,
                    "operation": "CALL",
                    "output": "0xf8c5e261a6d1f1ec7ddf664c16952570853ffb46428825c3124bc37fdd8d5b19",
                    "revert": false,
                    "revertMessage": "",
                    "selector": "0x8d12a197",
                    "status": true,
                    "value": "0"
                },
                "nodeType": 0
            },
            "2": {
                "invocation": {
                    "address": "0x0000000000000000000000000000000000000001",
                    "callData": "0xe8b60cb342f58ab5d870a5c6bd738d29000e6d371405dff60df34207000000000000000000000000000000000000000000000000000000000000001b5e10471d6977b4c161f60bf2bdc26b74be1da344ea1918964c013dbe7d05d05638ea33e4d6092c0611ff60896f3f812105b1df125968c12134e564e78ecdf636",
                    "decodedMethod": {
                        "callParams": [
                            {
                                "name": "hash",
                                "type": "bytes32",
                                "value": "0x193ec37ee8b60cb342f58ab5d870a5c6bd738d29000e6d371405dff60df34207"
                            },
                            {
                                "name": "v",
                                "type": "uint256",
                                "value": "27"
                            },
                            {
                                "name": "r",
                                "type": "bytes32",
                                "value": "0x5e10471d6977b4c161f60bf2bdc26b74be1da344ea1918964c013dbe7d05d056"
                            },
                            {
                                "name": "s",
                                "type": "bytes32",
                                "value": "0x38ea33e4d6092c0611ff60896f3f812105b1df125968c12134e564e78ecdf636"
                            }
                        ],
                        "constructorArguments": "",
                        "name": "ecrecover",
                        "returnParams": [
                            {
                                "name": "",
                                "type": "address",
                                "value": "0xa3eb896eb3e39f49303949593ee5d6b7c1078966"
                            }
                        ],
                        "signature": "ecrecover(bytes32,uint256,bytes32,bytes32)"
                    },
                    "errorInfo": "",
                    "fromAddress": "0x8d12a197cb00d4747a1fe03395095ce2a5cc6819",
                    "gasUsed": 3000,
                    "id": 2,
                    "methodDecoded": true,
                    "operation": "CALL",
                    "output": "0x000000000000000000000000a3eb896eb3e39f49303949593ee5d6b7c1078966",
                    "revert": false,
                    "revertMessage": "",
                    "selector": "0x193ec37e",
                    "status": true,
                    "value": "0"
                },
                "nodeType": 0
            },
            "3": {
                "event": {
                    "contract": "0x8d12a197cb00d4747a1fe03395095ce2a5cc6819",
                    "decodedLog": {
                        "name": "Cancel",
                        "params": [
                            {
                                "name": "tokenGet",
                                "type": "address",
                                "value": "0x0000000000000000000000000000000000000000"
                            },
                            {
                                "name": "amountGet",
                                "type": "uint256",
                                "value": "14,555,000,000,000,000"
                            },
                            {
                                "name": "tokenGive",
                                "type": "address",
                                "value": "0xb8327f32127afe37a544c52b628653e222a93bad"
                            },
                            {
                                "name": "amountGive",
                                "type": "uint256",
                                "value": "2,050,000,000,000,000,000,000"
                            },
                            {
                                "name": "expires",
                                "type": "uint256",
                                "value": "100,000,000,000,000,000,000,000,000,000,000,000,000,000"
                            },
                            {
                                "name": "nonce",
                                "type": "uint256",
                                "value": "2,065,430,307"
                            },
                            {
                                "name": "user",
                                "type": "address",
                                "value": "0xa3eb896eb3e39f49303949593ee5d6b7c1078966"
                            },
                            {
                                "name": "v",
                                "type": "uint8",
                                "value": "27"
                            },
                            {
                                "name": "r",
                                "type": "bytes32",
                                "value": "0x5e10471d6977b4c161f60bf2bdc26b74be1da344ea1918964c013dbe7d05d056"
                            },
                            {
                                "name": "s",
                                "type": "bytes32",
                                "value": "0x38ea33e4d6092c0611ff60896f3f812105b1df125968c12134e564e78ecdf636"
                            }
                        ],
                        "signature": "Cancel(address,uint256,address,uint256,uint256,uint256,address,uint8,bytes32,bytes32)"
                    },
                    "id": 3,
                    "logData": "0x00000000000000000000000000000000000000000000000000000000000000000000000000000000000000000000000000000000000000000033b5b204b4b000000000000000000000000000b8327f32127afe37a544c52b628653e222a93bad00000000000000000000000000000000000000000000006f21770aa26ec8000000000000000000000000000000000125dfa371a19e6f7cb54395ca0000000000000000000000000000000000000000000000000000000000000000007b1bf723000000000000000000000000a3eb896eb3e39f49303949593ee5d6b7c1078966000000000000000000000000000000000000000000000000000000000000001b5e10471d6977b4c161f60bf2bdc26b74be1da344ea1918964c013dbe7d05d05638ea33e4d6092c0611ff60896f3f812105b1df125968c12134e564e78ecdf636",
                    "logDecoded": true,
                    "operation": "EVENT",
                    "revert": false,
                    "status": true,
                    "topics": [
                        "0x1e0b760c386003e9cb9bcf4fcf3997886042859d9b6ed6320e804597fcdb28b0"
                    ]
                },
                "nodeType": 1
            }
        },
        "gasFlame": [
            {
                "children": [
                    {
                        "children": [
                            {
                                "children": [],
                                "depth": 0,
                                "name": "Initial Gas",
                                "value": 29784
                            },
                            {
                                "children": [
                                    {
                                        "children": [],
                                        "depth": 1,
                                        "name": "sha256hash",
                                        "value": 132
                                    },
                                    {
                                        "children": [],
                                        "depth": 1,
                                        "name": "ecrecover",
                                        "value": 3000
                                    }
                                ],
                                "depth": 0,
                                "name": "Executed Gas",
                                "value": 15146
                            }
                        ],
                        "depth": -1,
                        "name": "Actual Gas Used",
                        "value": 44930
                    },
                    {
                        "children": [],
                        "depth": -1,
                        "name": "Refunded Gas",
                        "value": 0
                    }
                ],
                "depth": -2,
                "name": "Total Gas",
                "value": 44930
            }
        ],
        "isConfirmed": true,
        "mainTrace": [
            {
                "children": [
                    {
                        "children": [
                            {
                                "children": [],
                                "depth": 1,
                                "id": 1,
                                "order": 1
                            },
                            {
                                "children": [],
                                "depth": 1,
                                "id": 2,
                                "order": 2
                            },
                            {
                                "children": [],
                                "depth": 1,
                                "id": 3,
                                "order": 3
                            }
                        ],
                        "depth": 0,
                        "id": 0,
                        "order": 0
                    }
                ],
                "depth": -1,
                "id": -1,
                "order": -1
            }
        ],
        "mainTraceNodeCount": 4,
        "parentIdMap": {
            "0": -1,
            "1": 0,
            "2": 0,
            "3": 0
        },
        "tidyTrace": [
            {
                "children": [
                    {
                        "children": [
                            {
                                "children": [],
                                "depth": 1,
                                "id": 1,
                                "order": 1
                            },
                            {
                                "children": [],
                                "depth": 1,
                                "id": 2,
                                "order": 2
                            },
                            {
                                "children": [],
                                "depth": 1,
                                "id": 3,
                                "order": 3
                            }
                        ],
                        "depth": 0,
                        "id": 0,
                        "order": 0
                    }
                ],
                "depth": -1,
                "id": -1,
                "order": -1
            }
        ],
        "tidyTraceNodeCount": 4
    },
    "state_change": {
        "stateChanges": []
    }
}