{
    "balance_change": {
        "balanceChanges": [
            {
                "account": "0x99942b4c526ddc6be6b06c8012f3bba9ad7f9b4b",
                "assets": [
                    {
                        "address": "0xeeeeeeeeeeeeeeeeeeeeeeeeeeeeeeeeeeeeeeee",
                        "amount": "0.0246",
                        "iconUrl": "https://assets.blocksec.com/image/1663669189317-3.png",
                        "isERC1155": false,
                        "isERC721": false,
                        "sign": false,
                        "value": "38.933436000000002014"
                    },
                    {
                        "address": "0x9c4c633600480ac51433d0632ec62665b5fc6960",
                        "amount": "2",
                        "iconUrl": "",
                        "isERC1155": true,
                        "isERC721": false,
                        "sign": true,
                        "tokenID": "4",
                        "value": ""
                    }
                ]
            },
            {
                "account": "0x0000000000000000000000000000000000000000",
                "assets": [
                    {
                        "address": "0x9c4c633600480ac51433d0632ec62665b5fc6960",
                        "amount": "2",
                        "iconUrl": "",
                        "isERC1155": true,
                        "isERC721": false,
                        "sign": false,
                        "tokenID": "4",
                        "value": ""
                    }
                ]
            },
            {
                "account": "0xf65a82a76874659444b704e75875921636d493c6",
                "assets": [
                    {
                        "address": "0xeeeeeeeeeeeeeeeeeeeeeeeeeeeeeeeeeeeeeeee",
                        "amount": "0.0246",
                        "iconUrl": "https://assets.blocksec.com/image/1663669189317-3.png",
                        "isERC1155": false,
                        "isERC721": false,
                        "sign": true,
                        "value": "38.933436000000002014"
                    }
                ]
            }
        ]
    },
    "profile": {
        "basic_info": {
            "baseFee": "13.916816062",
            "blockNumber": 16496220,
            "callData": "0x26c858a40000000000000000000000009c4c633600480ac51433d0632ec62665b5fc69600000000000000000000000000000000000000000000000000000000050cb88f0000000000000000000000000000000000000000000000000000000000000000200000000000000000000000000000000000000000000000000000000000000c000000000000000000000000000000000000000000000000000000000000000e000000000000000000000000099942b4c526ddc6be6b06c8012f3bba9ad7f9b4b00000000000000000000000000000000000000000000000000000000000000000000000000000000000000000000000000000000000000000000000000000000",
            "debugEnable": true,
            "errorInfo": "",
            "eventCount": 2,
            "feeRecipient": "0xfeebabe6b0418ec13b30aadf129f5dcdd4f70cea",
            "formatValue": "0.0246",
            "gasLimit": 171553,
            "gasPrice": "15.416816062",
            "gasUsed": 129471,
            "intTxnCount": 3,
            "internalRevert": false,
            "internalRevertMessage": "",
            "isContractCreation": false,
            "isFlashloan": false,
            "maxFee": "18.896515694",
            "nonce": 1491,
            "overwritedBlockNumber": -1,
            "priorityFee": "1.5",
            "receiver": "0x44e94034afce2dd3cd5eb62528f239686fc8f162",
            "revertMessage": "",
            "sender": "0x99942b4c526ddc6be6b06c8012f3bba9ad7f9b4b",
            "simulationEnable": true,
            "sourceTxnHash": "0xb42376c094833b7bde663d673dc22b7967257d2f116485586f5d6053335a1dd7",
            "status": true,
            "timestamp": "2023-01-27T05:58:47Z",
            "transactionFee": "0.001996030592363202",
            "txnHash": "0xb42376c094833b7bde663d673dc22b7967257d2f116485586f5d6053335a1dd7",
            "txnIndex": 64,
            "type": 2,
            "value": "24600000000000000"
        },
        "fund_flow": [
            {
                "amount": "0.0246",
                "from": "0x99942b4c526ddc6be6b06c8012f3bba9ad7f9b4b",
                "id": 1,
                "isERC1155": false,
                "isERC721": false,
                "isReverted": false,
                "order": 1,
                "to": "0x44e94034afce2dd3cd5eb62528f239686fc8f162",
                "token": "0xeeeeeeeeeeeeeeeeeeeeeeeeeeeeeeeeeeeeeeee"
            },
            {
                "amount": "2",
                "from": "0x0000000000000000000000000000000000000000",
                "id": 2,
                "isERC1155": true,
                "isERC721": false,
                "isReverted": false,
                "order": 2,
                "to": "0x99942b4c526ddc6be6b06c8012f3bba9ad7f9b4b",
                "token": "0x9c4c633600480ac51433d0632ec62665b5fc6960",
                "tokenID": "4"
            },
            {
                "amount": "0.0246",
                "from": "0x44e94034afce2dd3cd5eb62528f239686fc8f162",
                "id": 3,
                "isERC1155": false,
                "isERC721": false,
                "isReverted": false,
                "order": 3,
                "to": "0xf65a82a76874659444b704e75875921636d493c6",
                "token": "0xeeeeeeeeeeeeeeeeeeeeeeeeeeeeeeeeeeeeeeee"
            }
        ],
        "token_infos": [
            {
                "address": "0xeeeeeeeeeeeeeeeeeeeeeeeeeeeeeeeeeeeeeeee",
                "decimals": 18
            },
            {
                "address": "0xc02aaa39b223fe8d0a0e5c4f27ead9083c756cc2",
                "decimals": 18
            }
        ]
    },
    "address_label": {
        "labels": [
            {
                "address": "0x0000000000000000000000000000000000000001",
                "label": "Precompiled"
            },
            {
                "address": "0x0000000000000000000000000000000000000002",
                "label": "Precompiled"
            },
            {
                "address": "0x0000000000000000000000000000000000000003",
                "label": "Precompiled"
            },
            {
                "address": "0x0000000000000000000000000000000000000004",
                "label": "Precompiled"
            },
            {
                "address": "0xeeeeeeeeeeeeeeeeeeeeeeeeeeeeeeeeeeeeeeee",
                "label": "Ether"
            },
            {
                "address": "0x142fd5b9d67721efda3a5e2e9be47a96c9b724a4",
                "label": "ERC1155CreatorImplementation"
            },
            {
                "address": "0x44e94034afce2dd3cd5eb62528f239686fc8f162",
                "label": "Manifold: Lazy Claim"
            },
            {
                "address": "0x9c4c633600480ac51433d0632ec62665b5fc6960",
                "label": "IKX"
            }
        ]
    },
    "trace": {
        "accountLabels": null,
        "dataMap": {
            "-1": {
                "invocation": {
                    "address": "0x99942b4c526ddc6be6b06c8012f3bba9ad7f9b4b",
                    "callData": "",
                    "decodedMethod": null,
                    "errorInfo": "",
                    "fromAddress": "",
                    "gasUsed": 0,
                    "id": -1,
                    "methodDecoded": false,
                    "operation": "",
                    "output": "",
                    "revert": false,
                    "revertMessage": "",
                    "selector": "",
                    "status": false,
                    "value": ""
                },
                "nodeType": 0
            },
            "0": {
                "invocation": {
                    "address": "0x44e94034afce2dd3cd5eb62528f239686fc8f162",
                    "callData": "0x0000000000000000000000009c4c633600480ac51433d0632ec62665b5fc69600000000000000000000000000000000000000000000000000000000050cb88f0000000000000000000000000000000000000000000000000000000000000000200000000000000000000000000000000000000000000000000000000000000c000000000000000000000000000000000000000000000000000000000000000e000000000000000000000000099942b4c526ddc6be6b06c8012f3bba9ad7f9b4b00000000000000000000000000000000000000000000000000000000000000000000000000000000000000000000000000000000000000000000000000000000",
                    "decodedMethod": {
                        "callParams": [
                            {
                                "name": "creatorContractAddress",
                                "type": "address",
                                "value": "0x9c4c633600480ac51433d0632ec62665b5fc6960"
                            },
                            {
                                "name": "claimIndex",
                                "type": "uint256",
                                "value": "1,355,516,144"
                            },
                            {
                                "name": "mintCount",
                                "type": "uint16",
                                "value": "2"
                            },
                            {
                                "name": "mintIndices",
                                "type": "uint32[]",
                                "value": []
                            },
                            {
                                "name": "merkleProofs",
                                "type": "bytes32[][]",
                                "value": []
                            },
                            {
                                "name": "mintFor",
                                "type": "address",
                                "value": "0x99942b4c526ddc6be6b06c8012f3bba9ad7f9b4b"
                            }
                        ],
                        "constructorArguments": "",
                        "name": "mintBatch",
                        "returnParams": [],
                        "signature": "mintBatch(address,uint256,uint16,uint32[],bytes32[][],address)"
                    },
                    "errorInfo": "",
                    "fromAddress": "0x99942b4c526ddc6be6b06c8012f3bba9ad7f9b4b",
                    "gasUsed": 129471,
                    "id": 0,
                    "methodDecoded": true,
                    "operation": "CALL",
                    "output": "",
                    "revert": false,
                    "revertMessage": "",
                    "selector": "0x26c858a4",
                    "status": true,
                    "value": "0.0246"
                },
                "nodeType": 0
            },
            "1": {
                "invocation": {
                    "address": "0x9c4c633600480ac51433d0632ec62665b5fc6960",
                    "callData": "0x000000000000000000000000000000000000000000000000000000000000006000000000000000000000000000000000000000000000000000000000000000a000000000000000000000000000000000000000000000000000000000000000e0000000000000000000000000000000000000000000000000000000000000000100000000000000000000000099942b4c526ddc6be6b06c8012f3bba9ad7f9b4b0000000000000000000000000000000000000000000000000000000000000001000000000000000000000000000000000000000000000000000000000000000400000000000000000000000000000000000000000000000000000000000000010000000000000000000000000000000000000000000000000000000000000002",
                    "decodedMethod": {
                        "callParams": [
                            {
                                "name": "to",
                                "type": "address[]",
                                "value": [
                                    "0x99942b4c526ddc6be6b06c8012f3bba9ad7f9b4b"
                                ]
                            },
                            {
                                "name": "tokenIds",
                                "type": "uint256[]",
                                "value": [
                                    "4"
                                ]
                            },
                            {
                                "name": "amounts",
                                "type": "uint256[]",
                                "value": [
                                    "2"
                                ]
                            }
                        ],
                        "constructorArguments": "",
                        "name": "mintExtensionExisting",
                        "returnParams": [],
                        "signature": "mintExtensionExisting(address[],uint256[],uint256[])"
                    },
                    "errorInfo": "",
                    "fromAddress": "0x44e94034afce2dd3cd5eb62528f239686fc8f162",
                    "gasUsed": 52910,
                    "id": 1,
                    "methodDecoded": true,
                    "operation": "CALL",
                    "output": "",
                    "revert": false,
                    "revertMessage": "",
                    "selector": "0xe6c884dc",
                    "status": true,
                    "value": "0"
                },
                "nodeType": 0
            },
            "2": {
                "invocation": {
                    "address": "0x142fd5b9d67721efda3a5e2e9be47a96c9b724a4",
                    "callData": "0x000000000000000000000000000000000000000000000000000000000000006000000000000000000000000000000000000000000000000000000000000000a000000000000000000000000000000000000000000000000000000000000000e0000000000000000000000000000000000000000000000000000000000000000100000000000000000000000099942b4c526ddc6be6b06c8012f3bba9ad7f9b4b0000000000000000000000000000000000000000000000000000000000000001000000000000000000000000000000000000000000000000000000000000000400000000000000000000000000000000000000000000000000000000000000010000000000000000000000000000000000000000000000000000000000000002",
                    "decodedMethod": {
                        "callParams": [
                            {
                                "name": "to",
                                "type": "address[]",
                                "value": [
                                    "0x99942b4c526ddc6be6b06c8012f3bba9ad7f9b4b"
                                ]
                            },
                            {
                                "name": "tokenIds",
                                "type": "uint256[]",
                                "value": [
                                    "4"
                                ]
                            },
                            {
                                "name": "amounts",
                                "type": "uint256[]",
                                "value": [
                                    "2"
                                ]
                            }
                        ],
                        "constructorArguments": "",
                        "name": "mintExtensionExisting",
                        "returnParams": [],
                        "signature": "mintExtensionExisting(address[],uint256[],uint256[])"
                    },
                    "errorInfo": "",
                    "fromAddress": "0x9c4c633600480ac51433d0632ec62665b5fc6960",
                    "gasUsed": 47943,
                    "id": 2,
                    "methodDecoded": true,
                    "operation": "DELEGATECALL",
                    "output": "",
                    "revert": false,
                    "revertMessage": "",
                    "selector": "0xe6c884dc",
                    "status": true,
                    "value": "0"
                },
                "nodeType": 0
            },
            "3": {
                "event": {
                    "contract": "0x9c4c633600480ac51433d0632ec62665b5fc6960",
                    "decodedLog": {
                        "name": "TransferSingle",
                        "params": [
                            {
                                "name": "operator",
                                "type": "address",
                                "value": "0x44e94034afce2dd3cd5eb62528f239686fc8f162"
                            },
                            {
                                "name": "from",
                                "type": "address",
                                "value": "0x0000000000000000000000000000000000000000"
                            },
                            {
                                "name": "to",
                                "type": "address",
                                "value": "0x99942b4c526ddc6be6b06c8012f3bba9ad7f9b4b"
                            },
                            {
                                "name": "id",
                                "type": "uint256",
                                "value": "4"
                            },
                            {
                                "name": "value",
                                "type": "uint256",
                                "value": "2"
                            }
                        ],
                        "signature": "TransferSingle(address,address,address,uint256,uint256)"
                    },
                    "id": 3,
                    "logData": "0x00000000000000000000000000000000000000000000000000000000000000040000000000000000000000000000000000000000000000000000000000000002",
                    "logDecoded": true,
                    "operation": "EVENT",
                    "revert": false,
                    "status": true,
                    "topics": [
                        "0xc3d58168c5ae7397731d063d5bbf3d657854427343f4c083240f7aacaa2d0f62",
                        "0x00000000000000000000000044e94034afce2dd3cd5eb62528f239686fc8f162",
                        "0x0000000000000000000000000000000000000000000000000000000000000000",
                        "0x00000000000000000000000099942b4c526ddc6be6b06c8012f3bba9ad7f9b4b"
                    ]
                },
                "nodeType": 1
            },
            "4": {
                "invocation": {
                    "address": "0xf65a82a76874659444b704e75875921636d493c6",
                    "callData": "0x",
                    "decodedMethod": null,
                    "errorInfo": "",
                    "fromAddress": "0x44e94034afce2dd3cd5eb62528f239686fc8f162",
                    "gasUsed": 0,
                    "id": 4,
                    "methodDecoded": false,
                    "operation": "CALL",
                    "output": "",
                    "revert": false,
                    "revertMessage": "",
                    "selector": "fallback",
                    "status": true,
                    "value": "0.0246"
                },
                "nodeType": 0
            },
            "5": {
                "event": {
                    "contract": "0x44e94034afce2dd3cd5eb62528f239686fc8f162",
                    "decodedLog": {
                        "name": "ClaimMintBatch",
                        "params": [
                            {
                                "name": "creatorContract",
                                "type": "address",
                                "value": "0x9c4c633600480ac51433d0632ec62665b5fc6960"
                            },
                            {
                                "name": "claimIndex",
                                "type": "uint256",
                                "value": "1,355,516,144"
                            },
                            {
                                "name": "mintCount",
                                "type": "uint16",
                                "value": "2"
                            }
                        ],
                        "signature": "ClaimMintBatch(address,uint256,uint16)"
                    },
                    "id": 5,
                    "logData": "0x0000000000000000000000000000000000000000000000000000000000000002",
                    "logDecoded": true,
                    "operation": "EVENT",
                    "revert": false,
                    "status": true,
                    "topics": [
                        "0x74f5d3254dfa39a7b1217a27d5d9b3e061eafe11720eca1cf499da2dc1eb1259",
                        "0x0000000000000000000000009c4c633600480ac51433d0632ec62665b5fc6960",
                        "0x0000000000000000000000000000000000000000000000000000000050cb88f0"
                    ]
                },
                "nodeType": 1
            }
        },
        "gasFlame": [
            {
                "children": [
                    {
                        "children": [
                            {
                                "children": [],
                                "depth": 0,
                                "name": "Initial Gas",
                                "value": 22640
                            },
                            {
                                "children": [
                                    {
                                        "children": [
                                            {
                                                "children": [],
                                                "depth": 2,
                                                "name": "mintExtensionExisting",
                                                "value": 47943
                                            }
                                        ],
                                        "depth": 1,
                                        "name": "mintExtensionExisting",
                                        "value": 52910
                                    },
                                    {
                                        "children": [],
                                        "depth": 1,
                                        "name": "fallback",
                                        "value": 0
                                    }
                                ],
                                "depth": 0,
                                "name": "Executed Gas",
                                "value": 112431
                            }
                        ],
                        "depth": -1,
                        "name": "Actual Gas Used",
                        "value": 129471
                    },
                    {
                        "children": [],
                        "depth": -1,
                        "name": "Refunded Gas",
                        "value": 5600
                    }
                ],
                "depth": -2,
                "name": "Total Gas",
                "value": 135071
            }
        ],
        "isConfirmed": true,
        "mainTrace": [
            {
                "children": [
                    {
                        "children": [
                            {
                                "children": [
                                    {
                                        "children": [
                                            {
                                                "children": [],
                                                "depth": 3,
                                                "id": 3,
                                                "order": 3
                                            }
                                        ],
                                        "depth": 2,
                                        "id": 2,
                                        "order": 2
                                    }
                                ],
                                "depth": 1,
                                "id": 1,
                                "order": 1
                            },
                            {
                                "children": [],
                                "depth": 1,
                                "id": 4,
                                "order": 4
                            },
                            {
                                "children": [],
                                "depth": 1,
                                "id": 5,
                                "order": 5
                            }
                        ],
                        "depth": 0,
                        "id": 0,
                        "order": 0
                    }
                ],
                "depth": -1,
                "id": -1,
                "order": -1
            }
        ],
        "mainTraceNodeCount": 6,
        "parentIdMap": {
            "0": -1,
            "1": 0,
            "2": 1,
            "3": 2,
            "4": 0,
            "5": 0
        },
        "tidyTrace": [
            {
                "children": [
                    {
                        "children": [
                            {
                                "children": [
                                    {
                                        "children": [
                                            {
                                                "children": [],
                                                "depth": 3,
                                                "id": 3,
                                                "order": 3
                                            }
                                        ],
                                        "depth": 2,
                                        "id": 2,
                                        "order": 2
                                    }
                                ],
                                "depth": 1,
                                "id": 1,
                                "order": 1
                            },
                            {
                                "children": [],
                                "depth": 1,
                                "id": 4,
                                "order": 4
                            },
                            {
                                "children": [],
                                "depth": 1,
                                "id": 5,
                                "order": 5
                            }
                        ],
                        "depth": 0,
                        "id": 0,
                        "order": 0
                    }
                ],
                "depth": -1,
                "id": -1,
                "order": -1
            }
        ],
        "tidyTraceNodeCount": 6
    },
    "state_change": {
        "stateChanges": [
            {
                "address": "0x44e94034afce2dd3cd5eb62528f239686fc8f162",
                "erc": "",
                "slots": [
                    {
                        "current": "0x0000000000000000000000000000000000000000000000000000000000000002",
                        "key": "0xb956e112fdd67e55c112c1c4770468a0bcf2411d982e36d0f8234648ad5f9ec7",
                        "prev": "0x0000000000000000000000000000000000000000000000000000000000000000"
                    },
                    {
                        "current": "0x0000000000000002000063d37670000063cf81f0000000640000000000002051",
                        "key": "0xd926f9261753b6e48980de4d8001a19e6885de26740263a5ebcd8eb6ade67519",
                        "prev": "0x0000000000000002000063d37670000063cf81f000000064000000000000204f"
                    }
                ],
                "storageVariables": [
                    {
                        "name": "_mintsPerWallet",
                        "type": "mapping(address => mapping(uint256 => mapping(address => uint256)))",
                        "value": {
                            "pairs": [
                                {
                                    "key": "0x9c4c633600480ac51433d0632ec62665b5fc6960",
                                    "value": {
                                        "pairs": [
                                            {
                                                "key": "1355516144",
                                                "value": {
                                                    "pairs": [
                                                        {
                                                            "key": "0x99942b4c526ddc6be6b06c8012f3bba9ad7f9b4b",
                                                            "value": {
                                                                "current": "2",
                                                                "prev": "0",
                                                                "typeTag": 1
                                                            }
                                                        }
                                                    ],
                                                    "typeTag": 4
                                                }
                                            }
                                        ],
                                        "typeTag": 4
                                    }
                                }
                            ],
                            "typeTag": 4
                        }
                    },
                    {
                        "name": "_claims",
                        "type": "mapping(address => mapping(uint256 => struct IERC1155LazyPayableClaim.Claim))",
                        "value": {
                            "pairs": [
                                {
                                    "key": "0x9c4c633600480ac51433d0632ec62665b5fc6960",
                                    "value": {
                                        "pairs": [
                                            {
                                                "key": "1355516144",
                                                "value": {
                                                    "fields": [
                                                        {
                                                            "name": "total",
                                                            "type": "uint32",
                                                            "value": {
                                                                "current": "8273",
                                                                "prev": "8271",
                                                                "typeTag": 1
                                                            }
                                                        },
                                                        {
                                                            "name": "totalMax",
                                                            "type": "uint32",
                                                            "value": {
                                                                "current": "0",
                                                                "prev": "0",
                                                                "typeTag": 1
                                                            }
                                                        },
                                                        {
                                                            "name": "walletMax",
                                                            "type": "uint32",
                                                            "value": {
                                                                "current": "100",
                                                                "prev": "100",
                                                                "typeTag": 1
                                                            }
                                                        },
                                                        {
                                                            "name": "startDate",
                                                            "type": "uint48",
                                                            "value": {
                                                                "current": "1674543600",
                                                                "prev": "1674543600",
                                                                "typeTag": 1
                                                            }
                                                        },
                                                        {
                                                            "name": "endDate",
                                                            "type": "uint48",
                                                            "value": {
                                                                "current": "1674802800",
                                                                "prev": "1674802800",
                                                                "typeTag": 1
                                                            }
                                                        },
                                                        {
                                                            "name": "storageProtocol",
                                                            "type": "enum IERC1155LazyPayableClaim.StorageProtocol",
                                                            "value": {
                                                                "current": "2",
                                                                "prev": "2",
                                                                "typeTag": 1
                                                            }
                                                        },
                                                        {
                                                            "name": "location",
                                                            "type": "string",
                                                            "value": {
                                                                "current": "SGGhsHWwJ7QBagycRbwd-YwEmCawPqrGPVHUDaN0loc",
                                                                "prev": "SGGhsHWwJ7QBagycRbwd-YwEmCawPqrGPVHUDaN0loc",
                                                                "typeTag": 1
                                                            }
                                                        }
                                                    ],
                                                    "typeTag": 3
                                                }
                                            }
                                        ],
                                        "typeTag": 4
                                    }
                                }
                            ],
                            "typeTag": 4
                        }
                    }
                ]
            },
            {
                "address": "0x9c4c633600480ac51433d0632ec62665b5fc6960",
                "erc": "ERC-1155",
                "slots": [
                    {
                        "current": "0x0000000000000000000000000000000000000000000000000000000000000002",
                        "key": "0x8eaa9d8698fd26a026c0752ee7d483588d43363b45e47e4cb5b87bd6c591d854",
                        "prev": "0x0000000000000000000000000000000000000000000000000000000000000000"
                    },
                    {
                        "current": "0x0000000000000000000000000000000000000000000000000000000000002051",
                        "key": "0x0fb4caf2b09259681c9229fb409ac599b6692aeff999fc756681a9d7d3fd0428",
                        "prev": "0x000000000000000000000000000000000000000000000000000000000000204f"
                    }
                ],
                "storageVariables": [
                    {
                        "name": "_balances",
                        "type": "mapping(uint256 => mapping(address => uint256))",
                        "value": {
                            "pairs": [
                                {
                                    "key": "4",
                                    "value": {
                                        "pairs": [
                                            {
                                                "key": "0x99942b4c526ddc6be6b06c8012f3bba9ad7f9b4b",
                                                "value": {
                                                    "current": "2",
                                                    "prev": "0",
                                                    "typeTag": 1
                                                }
                                            }
                                        ],
                                        "typeTag": 4
                                    }
                                }
                            ],
                            "typeTag": 4
                        }
                    },
                    {
                        "name": "_totalSupply",
                        "type": "mapping(uint256 => uint256)",
                        "value": {
                            "pairs": [
                                {
                                    "key": "4",
                                    "value": {
                                        "current": "8273",
                                        "prev": "8271",
                                        "typeTag": 1
                                    }
                                }
                            ],
                            "typeTag": 4
                        }
                    }
                ]
            }
        ]
    }
}