{
    "balance_change": {
        "balanceChanges": []
    },
    "profile": {
        "basic_info": {
            "baseFee": "",
            "blockNumber": 4249698,
            "callData": "0x0a19b14a0000000000000000000000008f3470a7388c05ee4e7af3d01d8c722b0ff5237400000000000000000000000000000000000000000000000038e62046fb1a0000000000000000000000000000000000000000000000000000000000000000000000000000000000000000000000000000000000000000000010c6d280a74c5000000000000000000000000000000000000000000000000000000000000040ff1e000000000000000000000000000000000000000000000000000000002df1aa5e000000000000000000000000cbdb84e0b796034be1cf1380b834b4fe26b29fed000000000000000000000000000000000000000000000000000000000000001b79fed1982e57614b425548582c53eac4fb410fdd209ae875bc84247a87126c0258093594d0f1e469634b42d131ebf9bb7ecf75ed9453923d83fddcb73cee2fdb00000000000000000000000000000000000000000000000009f6d93224bb0000",
            "debugEnable": true,
            "errorInfo": "",
            "eventCount": 1,
            "feeRecipient": "0xea674fdde714fd979de3edf0f56aa9716b898ec8",
            "formatValue": "0",
            "gasLimit": 250000,
            "gasPrice": "4",
            "gasUsed": 78050,
            "intTxnCount": 2,
            "internalRevert": false,
            "internalRevertMessage": "",
            "isContractCreation": false,
            "isFlashloan": false,
            "maxFee": "",
            "nonce": 94,
            "overwritedBlockNumber": -1,
            "priorityFee": "",
            "receiver": "0x8d12a197cb00d4747a1fe03395095ce2a5cc6819",
            "revertMessage": "",
            "sender": "0x3ca59ef3c4ad016e1e34e2d9ceea246758965af0",
            "simulationEnable": true,
            "sourceTxnHash": "0xb4048e5d87a0e7eaa9c6af4b28a642e6a9dc5eb26f4556f91ec9107b5ea230bc",
            "status": true,
            "timestamp": "2017-09-07T23:28:04Z",
            "transactionFee": "0.0003122",
            "txnHash": "0xb4048e5d87a0e7eaa9c6af4b28a642e6a9dc5eb26f4556f91ec9107b5ea230bc",
            "txnIndex": 108,
            "type": 0,
            "value": "0"
        },
        "fund_flow": [],
        "token_infos": [
            {
                "address": "0xc02aaa39b223fe8d0a0e5c4f27ead9083c756cc2",
                "decimals": 18
            },
            {
                "address": "0xeeeeeeeeeeeeeeeeeeeeeeeeeeeeeeeeeeeeeeee",
                "decimals": 18
            }
        ]
    },
    "address_label": {
        "labels": [
            {
                "address": "0x0000000000000000000000000000000000000002",
                "label": "Precompiled"
            },
            {
                "address": "0x8f3470a7388c05ee4e7af3d01d8c722b0ff52374",
                "label": "Veritaseum Token"
            },
            {
                "address": "0x0000000000000000000000000000000000000000",
                "label": "Null Address"
            },
            {
                "address": "0x0000000000000000000000000000000000000001",
                "label": "Precompiled"
            },
            {
                "address": "0x0000000000000000000000000000000000000003",
                "label": "Precompiled"
            },
            {
                "address": "0x0000000000000000000000000000000000000004",
                "label": "Precompiled"
            },
            {
                "address": "0xeeeeeeeeeeeeeeeeeeeeeeeeeeeeeeeeeeeeeeee",
                "label": "Ether"
            },
            {
                "address": "0x8d12a197cb00d4747a1fe03395095ce2a5cc6819",
                "label": "EtherDelta"
            }
        ]
    },
    "trace": {
        "accountLabels": null,
        "dataMap": {
            "-1": {
                "invocation": {
                    "address": "0x3ca59ef3c4ad016e1e34e2d9ceea246758965af0",
                    "callData": "",
                    "decodedMethod": null,
                    "errorInfo": "",
                    "fromAddress": "",
                    "gasUsed": 0,
                    "id": -1,
                    "methodDecoded": false,
                    "operation": "",
                    "output": "",
                    "revert": false,
                    "revertMessage": "",
                    "selector": "",
                    "status": false,
                    "value": ""
                },
                "nodeType": 0
            },
            "0": {
                "invocation": {
                    "address": "0x8d12a197cb00d4747a1fe03395095ce2a5cc6819",
                    "callData": "0x0000000000000000000000008f3470a7388c05ee4e7af3d01d8c722b0ff5237400000000000000000000000000000000000000000000000038e62046fb1a0000000000000000000000000000000000000000000000000000000000000000000000000000000000000000000000000000000000000000000010c6d280a74c5000000000000000000000000000000000000000000000000000000000000040ff1e000000000000000000000000000000000000000000000000000000002df1aa5e000000000000000000000000cbdb84e0b796034be1cf1380b834b4fe26b29fed000000000000000000000000000000000000000000000000000000000000001b79fed1982e57614b425548582c53eac4fb410fdd209ae875bc84247a87126c0258093594d0f1e469634b42d131ebf9bb7ecf75ed9453923d83fddcb73cee2fdb00000000000000000000000000000000000000000000000009f6d93224bb0000",
                    "decodedMethod": {
                        "callParams": [
                            {
                                "name": "tokenGet",
                                "type": "address",
                                "value": "0x8f3470a7388c05ee4e7af3d01d8c722b0ff52374"
                            },
                            {
                                "name": "amountGet",
                                "type": "uint256",
                                "value": "4,100,000,000,000,000,000"
                            },
                            {
                                "name": "tokenGive",
                                "type": "address",
                                "value": "0x0000000000000000000000000000000000000000"
                            },
                            {
                                "name": "amountGive",
                                "type": "uint256",
                                "value": "1,208,885,000,000,000,000"
                            },
                            {
                                "name": "expires",
                                "type": "uint256",
                                "value": "4,259,614"
                            },
                            {
                                "name": "nonce",
                                "type": "uint256",
                                "value": "770,812,510"
                            },
                            {
                                "name": "user",
                                "type": "address",
                                "value": "0xcbdb84e0b796034be1cf1380b834b4fe26b29fed"
                            },
                            {
                                "name": "v",
                                "type": "uint8",
                                "value": "27"
                            },
                            {
                                "name": "r",
                                "type": "bytes32",
                                "value": "0x79fed1982e57614b425548582c53eac4fb410fdd209ae875bc84247a87126c02"
                            },
                            {
                                "name": "s",
                                "type": "bytes32",
                                "value": "0x58093594d0f1e469634b42d131ebf9bb7ecf75ed9453923d83fddcb73cee2fdb"
                            },
                            {
                                "name": "amount",
                                "type": "uint256",
                                "value": "718,000,000,000,000,000"
                            }
                        ],
                        "constructorArguments": "",
                        "name": "trade",
                        "returnParams": [],
                        "signature": "trade(address,uint256,address,uint256,uint256,uint256,address,uint8,bytes32,bytes32,uint256)"
                    },
                    "errorInfo": "",
                    "fromAddress": "0x3ca59ef3c4ad016e1e34e2d9ceea246758965af0",
                    "gasUsed": 78050,
                    "id": 0,
                    "methodDecoded": true,
                    "operation": "CALL",
                    "output": "",
                    "revert": false,
                    "revertMessage": "",
                    "selector": "0x0a19b14a",
                    "status": true,
                    "value": "0"
                },
                "nodeType": 0
            },
            "1": {
                "invocation": {
                    "address": "0x0000000000000000000000000000000000000002",
                    "callData": "0xcb00d4747a1fe03395095ce2a5cc68198f3470a7388c05ee4e7af3d01d8c722b0ff5237400000000000000000000000000000000000000000000000038e62046fb1a0000000000000000000000000000000000000000000000000000000000000000000000000000000000000000000010c6d280a74c5000000000000000000000000000000000000000000000000000000000000040ff1e000000000000000000000000000000000000000000000000000000002df1aa5e",
                    "decodedMethod": {
                        "callParams": [
                            {
                                "name": "data",
                                "type": "bytes",
                                "value": "0x8d12a197cb00d4747a1fe03395095ce2a5cc68198f3470a7388c05ee4e7af3d01d8c722b0ff5237400000000000000000000000000000000000000000000000038e62046fb1a0000000000000000000000000000000000000000000000000000000000000000000000000000000000000000000010c6d280a74c5000000000000000000000000000000000000000000000000000000000000040ff1e000000000000000000000000000000000000000000000000000000002df1aa5e"
                            }
                        ],
                        "constructorArguments": "",
                        "name": "sha256hash",
                        "returnParams": [
                            {
                                "name": "hash",
                                "type": "bytes32",
                                "value": "0xad081d2371c4840160deecbbdfdd59b7b076e60fb67185fc0a068e5fa567c57a"
                            }
                        ],
                        "signature": "sha256hash(bytes)"
                    },
                    "errorInfo": "",
                    "fromAddress": "0x8d12a197cb00d4747a1fe03395095ce2a5cc6819",
                    "gasUsed": 132,
                    "id": 1,
                    "methodDecoded": true,
                    "operation": "CALL",
                    "output": "0xad081d2371c4840160deecbbdfdd59b7b076e60fb67185fc0a068e5fa567c57a",
                    "revert": false,
                    "revertMessage": "",
                    "selector": "0x8d12a197",
                    "status": true,
                    "value": "0"
                },
                "nodeType": 0
            },
            "2": {
                "invocation": {
                    "address": "0x0000000000000000000000000000000000000001",
                    "callData": "0xc4c2f17a28a9bdfcc062528eee836e6c6a0799347835306f7ef0a550000000000000000000000000000000000000000000000000000000000000001b79fed1982e57614b425548582c53eac4fb410fdd209ae875bc84247a87126c0258093594d0f1e469634b42d131ebf9bb7ecf75ed9453923d83fddcb73cee2fdb",
                    "decodedMethod": {
                        "callParams": [
                            {
                                "name": "hash",
                                "type": "bytes32",
                                "value": "0x24ab00fdc4c2f17a28a9bdfcc062528eee836e6c6a0799347835306f7ef0a550"
                            },
                            {
                                "name": "v",
                                "type": "uint256",
                                "value": "27"
                            },
                            {
                                "name": "r",
                                "type": "bytes32",
                                "value": "0x79fed1982e57614b425548582c53eac4fb410fdd209ae875bc84247a87126c02"
                            },
                            {
                                "name": "s",
                                "type": "bytes32",
                                "value": "0x58093594d0f1e469634b42d131ebf9bb7ecf75ed9453923d83fddcb73cee2fdb"
                            }
                        ],
                        "constructorArguments": "",
                        "name": "ecrecover",
                        "returnParams": [
                            {
                                "name": "",
                                "type": "address",
                                "value": "0xcbdb84e0b796034be1cf1380b834b4fe26b29fed"
                            }
                        ],
                        "signature": "ecrecover(bytes32,uint256,bytes32,bytes32)"
                    },
                    "errorInfo": "",
                    "fromAddress": "0x8d12a197cb00d4747a1fe03395095ce2a5cc6819",
                    "gasUsed": 3000,
                    "id": 2,
                    "methodDecoded": true,
                    "operation": "CALL",
                    "output": "0x000000000000000000000000cbdb84e0b796034be1cf1380b834b4fe26b29fed",
                    "revert": false,
                    "revertMessage": "",
                    "selector": "0x24ab00fd",
                    "status": true,
                    "value": "0"
                },
                "nodeType": 0
            },
            "3": {
                "event": {
                    "contract": "0x8d12a197cb00d4747a1fe03395095ce2a5cc6819",
                    "decodedLog": {
                        "name": "Trade",
                        "params": [
                            {
                                "name": "tokenGet",
                                "type": "address",
                                "value": "0x8f3470a7388c05ee4e7af3d01d8c722b0ff52374"
                            },
                            {
                                "name": "amountGet",
                                "type": "uint256",
                                "value": "718,000,000,000,000,000"
                            },
                            {
                                "name": "tokenGive",
                                "type": "address",
                                "value": "0x0000000000000000000000000000000000000000"
                            },
                            {
                                "name": "amountGive",
                                "type": "uint256",
                                "value": "211,702,300,000,000,000"
                            },
                            {
                                "name": "get",
                                "type": "address",
                                "value": "0xcbdb84e0b796034be1cf1380b834b4fe26b29fed"
                            },
                            {
                                "name": "give",
                                "type": "address",
                                "value": "0x3ca59ef3c4ad016e1e34e2d9ceea246758965af0"
                            }
                        ],
                        "signature": "Trade(address,uint256,address,uint256,address,address)"
                    },
                    "id": 3,
                    "logData": "0x0000000000000000000000008f3470a7388c05ee4e7af3d01d8c722b0ff5237400000000000000000000000000000000000000000000000009f6d93224bb0000000000000000000000000000000000000000000000000000000000000000000000000000000000000000000000000000000000000000000002f01e1ec5a21800000000000000000000000000cbdb84e0b796034be1cf1380b834b4fe26b29fed0000000000000000000000003ca59ef3c4ad016e1e34e2d9ceea246758965af0",
                    "logDecoded": true,
                    "operation": "EVENT",
                    "revert": false,
                    "status": true,
                    "topics": [
                        "0x6effdda786735d5033bfad5f53e5131abcced9e52be6c507b62d639685fbed6d"
                    ]
                },
                "nodeType": 1
            }
        },
        "gasFlame": [
            {
                "children": [
                    {
                        "children": [
                            {
                                "children": [],
                                "depth": 0,
                                "name": "Initial Gas",
                                "value": 31064
                            },
                            {
                                "children": [
                                    {
                                        "children": [],
                                        "depth": 1,
                                        "name": "sha256hash",
                                        "value": 132
                                    },
                                    {
                                        "children": [],
                                        "depth": 1,
                                        "name": "ecrecover",
                                        "value": 3000
                                    }
                                ],
                                "depth": 0,
                                "name": "Executed Gas",
                                "value": 46986
                            }
                        ],
                        "depth": -1,
                        "name": "Actual Gas Used",
                        "value": 78050
                    },
                    {
                        "children": [],
                        "depth": -1,
                        "name": "Refunded Gas",
                        "value": 0
                    }
                ],
                "depth": -2,
                "name": "Total Gas",
                "value": 78050
            }
        ],
        "isConfirmed": true,
        "mainTrace": [
            {
                "children": [
                    {
                        "children": [
                            {
                                "children": [],
                                "depth": 1,
                                "id": 1,
                                "order": 1
                            },
                            {
                                "children": [],
                                "depth": 1,
                                "id": 2,
                                "order": 2
                            },
                            {
                                "children": [],
                                "depth": 1,
                                "id": 3,
                                "order": 3
                            }
                        ],
                        "depth": 0,
                        "id": 0,
                        "order": 0
                    }
                ],
                "depth": -1,
                "id": -1,
                "order": -1
            }
        ],
        "mainTraceNodeCount": 4,
        "parentIdMap": {
            "0": -1,
            "1": 0,
            "2": 0,
            "3": 0
        },
        "tidyTrace": [
            {
                "children": [
                    {
                        "children": [
                            {
                                "children": [],
                                "depth": 1,
                                "id": 1,
                                "order": 1
                            },
                            {
                                "children": [],
                                "depth": 1,
                                "id": 2,
                                "order": 2
                            },
                            {
                                "children": [],
                                "depth": 1,
                                "id": 3,
                                "order": 3
                            }
                        ],
                        "depth": 0,
                        "id": 0,
                        "order": 0
                    }
                ],
                "depth": -1,
                "id": -1,
                "order": -1
            }
        ],
        "tidyTraceNodeCount": 4
    },
    "state_change": {
        "stateChanges": [
            {
                "address": "0x8d12a197cb00d4747a1fe03395095ce2a5cc6819",
                "erc": "",
                "slots": [
                    {
                        "current": "0x0000000000000000000000000000000000000000000000000247092d24e23036",
                        "key": "0xb1fcd0d755f284fd61d4933772423a98f4b1dc96ebcb3aea1ebc797deb5773f1",
                        "prev": "0x0000000000000000000000000000000000000000000000000537274bea844836"
                    },
                    {
                        "current": "0x0000000000000000000000000000000000000000000000003469977706ed7800",
                        "key": "0xf7029e7e96cbc5cfea58f40a2075c8553be846ece2eb066616f0cd1c80f1521a",
                        "prev": "0x00000000000000000000000000000000000000000000000031797958414b6000"
                    },
                    {
                        "current": "0x00000000000000000000000000000000000000000000000038e4cd064be2f082",
                        "key": "0x408c5d82b092532ad05581c38e7654bc39f568791370ab8ef46a3853bc573585",
                        "prev": "0x0000000000000000000000000000000000000000000000002eedf3d42727f082"
                    },
                    {
                        "current": "0x0000000000000000000000000000000000000000000000001f591f145f96aace",
                        "key": "0x87c056bba2443d3702fcba7100a4fc34fed8181c986dd76b7b7514c6106c73ff",
                        "prev": "0x00000000000000000000000000000000000000000000000029579f53b92a4ace"
                    },
                    {
                        "current": "0x00000000000000000000000000000000000000000000000088982ea771e6c958",
                        "key": "0x723248eb172a792b99882b1de41f0f683eec2913f46169f17231f5548c87c57d",
                        "prev": "0x0000000000000000000000000000000000000000000000007ea155754d2bc958"
                    },
                    {
                        "current": "0x000000000000000000000000000000000000000000000003def6bcaad53e5ae3",
                        "key": "0xdcb3a1b7bafe78c490667b049315d9fd24fa2a259f2404facdcb587cbf039ad0",
                        "prev": "0x000000000000000000000000000000000000000000000003deef159da065bae3"
                    }
                ],
                "storageVariables": []
            }
        ]
    }
}