{
    "balance_change": {
        "balanceChanges": [
            {
                "account": "0x165b3196a2df948c7d30040cd561e3c8fd4d63b8",
                "assets": [
                    {
                        "address": "0xd850942ef8811f2a866692a623011bde52a462c1",
                        "amount": "1,000",
                        "iconUrl": "https://assets.blocksec.com/icon/7f2e21b6d80840ce19582c227c84ccaf9799adac6a8fd2ac081b2a79cc5e8dfd.png",
                        "isERC1155": false,
                        "isERC721": false,
                        "sign": false,
                        "value": ""
                    }
                ]
            },
            {
                "account": "0x2b5634c42055806a59e9107ed44d43c426e58258",
                "assets": [
                    {
                        "address": "0xd850942ef8811f2a866692a623011bde52a462c1",
                        "amount": "1,000",
                        "iconUrl": "https://assets.blocksec.com/icon/7f2e21b6d80840ce19582c227c84ccaf9799adac6a8fd2ac081b2a79cc5e8dfd.png",
                        "isERC1155": false,
                        "isERC721": false,
                        "sign": true,
                        "value": ""
                    }
                ]
            }
        ]
    },
    "profile": {
        "basic_info": {
            "baseFee": "",
            "blockNumber": 6148690,
            "callData": "0xa9059cbb0000000000000000000000002b5634c42055806a59e9107ed44d43c426e5825800000000000000000000000000000000000000000000003635c9adc5dea00000",
            "debugEnable": true,
            "errorInfo": "",
            "eventCount": 1,
            "feeRecipient": "0x829bd824b016326a401d083b33d092293333a830",
            "formatValue": "0",
            "gasLimit": 90000,
            "gasPrice": "2.5325",
            "gasUsed": 24771,
            "intTxnCount": 0,
            "internalRevert": false,
            "internalRevertMessage": "",
            "isContractCreation": false,
            "isFlashloan": false,
            "maxFee": "",
            "nonce": 20,
            "overwritedBlockNumber": -1,
            "priorityFee": "",
            "receiver": "0xd850942ef8811f2a866692a623011bde52a462c1",
            "revertMessage": "",
            "sender": "0x165b3196a2df948c7d30040cd561e3c8fd4d63b8",
            "simulationEnable": true,
            "sourceTxnHash": "0xb496648c31a022a5ebd9eef62a4c51d00526440a69c35df62785d51b06cb7063",
            "status": true,
            "timestamp": "2018-08-14T23:44:34Z",
            "transactionFee": "0.0000627325575",
            "txnHash": "0xb496648c31a022a5ebd9eef62a4c51d00526440a69c35df62785d51b06cb7063",
            "txnIndex": 53,
            "type": 0,
            "value": "0"
        },
        "fund_flow": [
            {
                "amount": "1,000",
                "from": "0x165b3196a2df948c7d30040cd561e3c8fd4d63b8",
                "id": 1,
                "isERC1155": false,
                "isERC721": false,
                "isReverted": false,
                "order": 1,
                "to": "0x2b5634c42055806a59e9107ed44d43c426e58258",
                "token": "0xd850942ef8811f2a866692a623011bde52a462c1"
            }
        ],
        "token_infos": [
            {
                "address": "0xc02aaa39b223fe8d0a0e5c4f27ead9083c756cc2",
                "decimals": 18
            },
            {
                "address": "0xd850942ef8811f2a866692a623011bde52a462c1",
                "decimals": 18
            },
            {
                "address": "0xeeeeeeeeeeeeeeeeeeeeeeeeeeeeeeeeeeeeeeee",
                "decimals": 18
            }
        ]
    },
    "address_label": {
        "labels": [
            {
                "address": "0x0000000000000000000000000000000000000001",
                "label": "Precompiled"
            },
            {
                "address": "0x0000000000000000000000000000000000000002",
                "label": "Precompiled"
            },
            {
                "address": "0x0000000000000000000000000000000000000003",
                "label": "Precompiled"
            },
            {
                "address": "0x0000000000000000000000000000000000000004",
                "label": "Precompiled"
            },
            {
                "address": "0xeeeeeeeeeeeeeeeeeeeeeeeeeeeeeeeeeeeeeeee",
                "label": "Ether"
            },
            {
                "address": "0xd850942ef8811f2a866692a623011bde52a462c1",
                "label": "VeChain: Old Token"
            },
            {
                "address": "0x165b3196a2df948c7d30040cd561e3c8fd4d63b8",
                "label": "KUCOIN"
            },
            {
                "address": "0x2b5634c42055806a59e9107ed44d43c426e58258",
                "label": "KuCoin"
            }
        ]
    },
    "trace": {
        "accountLabels": null,
        "dataMap": {
            "-1": {
                "invocation": {
                    "address": "0x165b3196a2df948c7d30040cd561e3c8fd4d63b8",
                    "callData": "",
                    "decodedMethod": null,
                    "errorInfo": "",
                    "fromAddress": "",
                    "gasUsed": 0,
                    "id": -1,
                    "methodDecoded": false,
                    "operation": "",
                    "output": "",
                    "revert": false,
                    "revertMessage": "",
                    "selector": "",
                    "status": false,
                    "value": ""
                },
                "nodeType": 0
            },
            "0": {
                "invocation": {
                    "address": "0xd850942ef8811f2a866692a623011bde52a462c1",
                    "callData": "0x0000000000000000000000002b5634c42055806a59e9107ed44d43c426e5825800000000000000000000000000000000000000000000003635c9adc5dea00000",
                    "decodedMethod": {
                        "callParams": [
                            {
                                "name": "_to",
                                "type": "address",
                                "value": "0x2b5634c42055806a59e9107ed44d43c426e58258"
                            },
                            {
                                "decimalAvailable": true,
                                "name": "_amount",
                                "type": "uint256",
                                "value": "1,000,000,000,000,000,000,000"
                            }
                        ],
                        "constructorArguments": "",
                        "name": "transfer",
                        "returnParams": [
                            {
                                "name": "success",
                                "type": "bool",
                                "value": true
                            }
                        ],
                        "signature": "transfer(address,uint256)"
                    },
                    "errorInfo": "",
                    "fromAddress": "0x165b3196a2df948c7d30040cd561e3c8fd4d63b8",
                    "gasUsed": 24771,
                    "id": 0,
                    "methodDecoded": true,
                    "operation": "CALL",
                    "output": "0x0000000000000000000000000000000000000000000000000000000000000001",
                    "revert": false,
                    "revertMessage": "",
                    "selector": "0xa9059cbb",
                    "status": true,
                    "value": "0"
                },
                "nodeType": 0
            },
            "1": {
                "event": {
                    "contract": "0xd850942ef8811f2a866692a623011bde52a462c1",
                    "decodedLog": {
                        "name": "Transfer",
                        "params": [
                            {
                                "name": "_from",
                                "type": "address",
                                "value": "0x165b3196a2df948c7d30040cd561e3c8fd4d63b8"
                            },
                            {
                                "name": "_to",
                                "type": "address",
                                "value": "0x2b5634c42055806a59e9107ed44d43c426e58258"
                            },
                            {
                                "decimalAvailable": true,
                                "name": "_value",
                                "type": "uint256",
                                "value": "1,000,000,000,000,000,000,000"
                            }
                        ],
                        "signature": "Transfer(address,address,uint256)"
                    },
                    "id": 1,
                    "logData": "0x00000000000000000000000000000000000000000000003635c9adc5dea00000",
                    "logDecoded": true,
                    "operation": "EVENT",
                    "revert": false,
                    "status": true,
                    "topics": [
                        "0xddf252ad1be2c89b69c2b068fc378daa952ba7f163c4a11628f55a4df523b3ef",
                        "0x000000000000000000000000165b3196a2df948c7d30040cd561e3c8fd4d63b8",
                        "0x0000000000000000000000002b5634c42055806a59e9107ed44d43c426e58258"
                    ]
                },
                "nodeType": 1
            }
        },
        "gasFlame": [
            {
                "children": [
                    {
                        "children": [
                            {
                                "children": [],
                                "depth": 0,
                                "name": "Initial Gas",
                                "value": 23256
                            },
                            {
                                "children": [],
                                "depth": 0,
                                "name": "Executed Gas",
                                "value": 16515
                            }
                        ],
                        "depth": -1,
                        "name": "Actual Gas Used",
                        "value": 24771
                    },
                    {
                        "children": [],
                        "depth": -1,
                        "name": "Refunded Gas",
                        "value": 15000
                    }
                ],
                "depth": -2,
                "name": "Total Gas",
                "value": 39771
            }
        ],
        "isConfirmed": true,
        "mainTrace": [
            {
                "children": [
                    {
                        "children": [
                            {
                                "children": [],
                                "depth": 1,
                                "id": 1,
                                "order": 1
                            }
                        ],
                        "depth": 0,
                        "id": 0,
                        "order": 0
                    }
                ],
                "depth": -1,
                "id": -1,
                "order": -1
            }
        ],
        "mainTraceNodeCount": 2,
        "parentIdMap": {
            "0": -1,
            "1": 0
        },
        "tidyTrace": [
            {
                "children": [
                    {
                        "children": [
                            {
                                "children": [],
                                "depth": 1,
                                "id": 1,
                                "order": 1
                            }
                        ],
                        "depth": 0,
                        "id": 0,
                        "order": 0
                    }
                ],
                "depth": -1,
                "id": -1,
                "order": -1
            }
        ],
        "tidyTraceNodeCount": 2
    },
    "state_change": {
        "stateChanges": [
            {
                "address": "0xd850942ef8811f2a866692a623011bde52a462c1",
                "erc": "ERC-20",
                "slots": [
                    {
                        "current": "0x0000000000000000000000000000000000000000000000000000000000000000",
                        "key": "0xd8fb20a04ab408d1fe17561a169feed7bd4964a1f8f8add5e76512330fd5a73b",
                        "prev": "0x00000000000000000000000000000000000000000000003635c9adc5dea00000"
                    },
                    {
                        "current": "0x00000000000000000000000000000000000000000004191a36f419931867be47",
                        "key": "0xde783f695dc58383e78866a576338aa094558a1333aa581d9d94204ca4fcafbf",
                        "prev": "0x0000000000000000000000000000000000000000000418e4012a6bcd39c7be47"
                    }
                ],
                "storageVariables": []
            }
        ]
    }
}