{
    "balance_change": {
        "balanceChanges": [
            {
                "account": "0x75e89d5979e4f6fba9f97c104c2f0afb3f1dcb88",
                "assets": [
                    {
                        "address": "0x4e352cf164e64adcbad318c3a1e222e9eba4ce42",
                        "amount": "46.8464",
                        "iconUrl": "https://assets.blocksec.com/icon/b496c02c897834de8e508667c9806dd459c80cbe10de9ce2dbd9fe554ca94e79.png",
                        "isERC1155": false,
                        "isERC721": false,
                        "sign": false,
                        "value": "473.678489"
                    }
                ]
            },
            {
                "account": "0xcb83ca9633ad057bd88a48a5b6e8108d97ad4472",
                "assets": [
                    {
                        "address": "0x4e352cf164e64adcbad318c3a1e222e9eba4ce42",
                        "amount": "46.8464",
                        "iconUrl": "https://assets.blocksec.com/icon/b496c02c897834de8e508667c9806dd459c80cbe10de9ce2dbd9fe554ca94e79.png",
                        "isERC1155": false,
                        "isERC721": false,
                        "sign": true,
                        "value": "473.678489"
                    }
                ]
            }
        ]
    },
    "profile": {
        "basic_info": {
            "baseFee": "5.500440105",
            "blockNumber": 19764501,
            "callData": "0xa9059cbb000000000000000000000000cb83ca9633ad057bd88a48a5b6e8108d97ad44720000000000000000000000000000000000000000000000028a1fd898dddc0000",
            "debugEnable": true,
            "errorInfo": "",
            "eventCount": 1,
            "feeRecipient": "0x4838b106fce9647bdf1e7877bf73ce8b0bad5f97",
            "formatValue": "0",
            "gasLimit": 93282,
            "gasPrice": "12",
            "gasUsed": 61362,
            "intTxnCount": 1,
            "internalRevert": false,
            "internalRevertMessage": "",
            "isContractCreation": false,
            "isFlashloan": false,
            "maxFee": "",
            "nonce": 6680190,
            "overwritedBlockNumber": -1,
            "priorityFee": "",
            "receiver": "0x4e352cf164e64adcbad318c3a1e222e9eba4ce42",
            "revertMessage": "",
            "sender": "0x75e89d5979e4f6fba9f97c104c2f0afb3f1dcb88",
            "simulationEnable": true,
            "sourceTxnHash": "0xb4d9ea6303d3f4c716b9159c1782d978f79e00145b0dd6b8a18ec4bad2285d70",
            "status": true,
            "timestamp": "2024-04-30T00:20:11Z",
            "transactionFee": "0.000736344",
            "txnHash": "0xb4d9ea6303d3f4c716b9159c1782d978f79e00145b0dd6b8a18ec4bad2285d70",
            "txnIndex": 3,
            "type": 0,
            "value": "0"
        },
        "fund_flow": [
            {
                "amount": "46.8464",
                "from": "0x75e89d5979e4f6fba9f97c104c2f0afb3f1dcb88",
                "id": 1,
                "isERC1155": false,
                "isERC721": false,
                "isReverted": false,
                "order": 1,
                "to": "0xcb83ca9633ad057bd88a48a5b6e8108d97ad4472",
                "token": "0x4e352cf164e64adcbad318c3a1e222e9eba4ce42"
            }
        ],
        "token_infos": [
            {
                "address": "0x4e352cf164e64adcbad318c3a1e222e9eba4ce42",
                "decimals": 18
            },
            {
                "address": "0xc02aaa39b223fe8d0a0e5c4f27ead9083c756cc2",
                "decimals": 18
            },
            {
                "address": "0xeeeeeeeeeeeeeeeeeeeeeeeeeeeeeeeeeeeeeeee",
                "decimals": 18
            }
        ]
    },
    "address_label": {
        "labels": [
            {
                "address": "0x0000000000000000000000000000000000000002",
                "label": "Precompiled"
            },
            {
                "address": "0x0000000000000000000000000000000000000003",
                "label": "Precompiled"
            },
            {
                "address": "0xeeeeeeeeeeeeeeeeeeeeeeeeeeeeeeeeeeeeeeee",
                "label": "Ether"
            },
            {
                "address": "0x4e352cf164e64adcbad318c3a1e222e9eba4ce42",
                "label": "MCDEX: MCB Token"
            },
            {
                "address": "0xcbe10aa4baab18e75f6d9778aca6c1afb889a7cf",
                "label": "MCB"
            },
            {
                "address": "0x0000000000000000000000000000000000000001",
                "label": "Precompiled"
            },
            {
                "address": "0x75e89d5979e4f6fba9f97c104c2f0afb3f1dcb88",
                "label": "MEXC 1"
            },
            {
                "address": "0xcb83ca9633ad057bd88a48a5b6e8108d97ad4472",
                "label": "MEV Bot: 0xcb8...472"
            },
            {
                "address": "0x0000000000000000000000000000000000000004",
                "label": "Precompiled"
            }
        ]
    },
    "trace": {
        "accountLabels": null,
        "dataMap": {
            "-1": {
                "invocation": {
                    "address": "0x75e89d5979e4f6fba9f97c104c2f0afb3f1dcb88",
                    "callData": "",
                    "decodedMethod": null,
                    "errorInfo": "",
                    "fromAddress": "",
                    "gasUsed": 0,
                    "id": -1,
                    "methodDecoded": false,
                    "operation": "",
                    "output": "",
                    "revert": false,
                    "revertMessage": "",
                    "selector": "",
                    "status": false,
                    "value": ""
                },
                "nodeType": 0
            },
            "0": {
                "invocation": {
                    "address": "0x4e352cf164e64adcbad318c3a1e222e9eba4ce42",
                    "callData": "0x000000000000000000000000cb83ca9633ad057bd88a48a5b6e8108d97ad44720000000000000000000000000000000000000000000000028a1fd898dddc0000",
                    "decodedMethod": {
                        "callParams": [
                            {
                                "name": "recipient",
                                "type": "address",
                                "value": "0xcb83ca9633ad057bd88a48a5b6e8108d97ad4472"
                            },
                            {
                                "decimalAvailable": true,
                                "name": "amount",
                                "type": "uint256",
                                "value": "46,846,400,000,000,000,000"
                            }
                        ],
                        "constructorArguments": "",
                        "name": "transfer",
                        "returnParams": [
                            {
                                "name": "",
                                "type": "bool",
                                "value": true
                            }
                        ],
                        "signature": "transfer(address,uint256)"
                    },
                    "errorInfo": "",
                    "fromAddress": "0x75e89d5979e4f6fba9f97c104c2f0afb3f1dcb88",
                    "gasUsed": 61362,
                    "id": 0,
                    "methodDecoded": true,
                    "operation": "CALL",
                    "output": "0x0000000000000000000000000000000000000000000000000000000000000001",
                    "revert": false,
                    "revertMessage": "",
                    "selector": "0xa9059cbb",
                    "status": true,
                    "value": "0"
                },
                "nodeType": 0
            },
            "1": {
                "invocation": {
                    "address": "0xcbe10aa4baab18e75f6d9778aca6c1afb889a7cf",
                    "callData": "0x000000000000000000000000cb83ca9633ad057bd88a48a5b6e8108d97ad44720000000000000000000000000000000000000000000000028a1fd898dddc0000",
                    "decodedMethod": {
                        "callParams": [
                            {
                                "name": "recipient",
                                "type": "address",
                                "value": "0xcb83ca9633ad057bd88a48a5b6e8108d97ad4472"
                            },
                            {
                                "decimalAvailable": true,
                                "name": "amount",
                                "type": "uint256",
                                "value": "46,846,400,000,000,000,000"
                            }
                        ],
                        "constructorArguments": "",
                        "name": "transfer",
                        "returnParams": [
                            {
                                "name": "",
                                "type": "bool",
                                "value": true
                            }
                        ],
                        "signature": "transfer(address,uint256)"
                    },
                    "errorInfo": "",
                    "fromAddress": "0x4e352cf164e64adcbad318c3a1e222e9eba4ce42",
                    "gasUsed": 32444,
                    "id": 1,
                    "methodDecoded": true,
                    "operation": "DELEGATECALL",
                    "output": "0x0000000000000000000000000000000000000000000000000000000000000001",
                    "revert": false,
                    "revertMessage": "",
                    "selector": "0xa9059cbb",
                    "status": true,
                    "value": "0"
                },
                "nodeType": 0
            },
            "2": {
                "event": {
                    "contract": "0x4e352cf164e64adcbad318c3a1e222e9eba4ce42",
                    "decodedLog": {
                        "name": "Transfer",
                        "params": [
                            {
                                "name": "from",
                                "type": "address",
                                "value": "0x75e89d5979e4f6fba9f97c104c2f0afb3f1dcb88"
                            },
                            {
                                "name": "to",
                                "type": "address",
                                "value": "0xcb83ca9633ad057bd88a48a5b6e8108d97ad4472"
                            },
                            {
                                "decimalAvailable": true,
                                "name": "value",
                                "type": "uint256",
                                "value": "46,846,400,000,000,000,000"
                            }
                        ],
                        "signature": "Transfer(address,address,uint256)"
                    },
                    "id": 2,
                    "logData": "0x0000000000000000000000000000000000000000000000028a1fd898dddc0000",
                    "logDecoded": true,
                    "operation": "EVENT",
                    "revert": false,
                    "status": true,
                    "topics": [
                        "0xddf252ad1be2c89b69c2b068fc378daa952ba7f163c4a11628f55a4df523b3ef",
                        "0x00000000000000000000000075e89d5979e4f6fba9f97c104c2f0afb3f1dcb88",
                        "0x000000000000000000000000cb83ca9633ad057bd88a48a5b6e8108d97ad4472"
                    ]
                },
                "nodeType": 1
            }
        },
        "gasFlame": [
            {
                "children": [
                    {
                        "children": [
                            {
                                "children": [],
                                "depth": 0,
                                "name": "Initial Gas",
                                "value": 21644
                            },
                            {
                                "children": [
                                    {
                                        "children": [],
                                        "depth": 1,
                                        "name": "transfer",
                                        "value": 32444
                                    }
                                ],
                                "depth": 0,
                                "name": "Executed Gas",
                                "value": 39718
                            }
                        ],
                        "depth": -1,
                        "name": "Actual Gas Used",
                        "value": 61362
                    },
                    {
                        "children": [],
                        "depth": -1,
                        "name": "Refunded Gas",
                        "value": 0
                    }
                ],
                "depth": -2,
                "name": "Total Gas",
                "value": 61362
            }
        ],
        "isConfirmed": true,
        "mainTrace": [
            {
                "children": [
                    {
                        "children": [
                            {
                                "children": [
                                    {
                                        "children": [],
                                        "depth": 2,
                                        "id": 2,
                                        "order": 2
                                    }
                                ],
                                "depth": 1,
                                "id": 1,
                                "order": 1
                            }
                        ],
                        "depth": 0,
                        "id": 0,
                        "order": 0
                    }
                ],
                "depth": -1,
                "id": -1,
                "order": -1
            }
        ],
        "mainTraceNodeCount": 3,
        "parentIdMap": {
            "0": -1,
            "1": 0,
            "2": 1
        },
        "tidyTrace": [
            {
                "children": [
                    {
                        "children": [
                            {
                                "children": [
                                    {
                                        "children": [],
                                        "depth": 2,
                                        "id": 2,
                                        "order": 2
                                    }
                                ],
                                "depth": 1,
                                "id": 1,
                                "order": 1
                            }
                        ],
                        "depth": 0,
                        "id": 0,
                        "order": 0
                    }
                ],
                "depth": -1,
                "id": -1,
                "order": -1
            }
        ],
        "tidyTraceNodeCount": 3
    },
    "state_change": {
        "stateChanges": [
            {
                "address": "0x4e352cf164e64adcbad318c3a1e222e9eba4ce42",
                "erc": "ERC-20",
                "slots": [
                    {
                        "current": "0x000000000000000000000000000000000000000000000652a4779b284feb4e74",
                        "key": "0x77886b275e0bd31589c4c85a21b788afb686e127bee5f591b00124b206f64435",
                        "prev": "0x0000000000000000000000000000000000000000000006552e9773c12dc74e74"
                    },
                    {
                        "current": "0x0000000000000000000000000000000000000000000000028a1fd898dddc0000",
                        "key": "0xadfe6cac4a9ecd50652edc4c04e297223ef89a847a462400de8696d6f05ab9b3",
                        "prev": "0x0000000000000000000000000000000000000000000000000000000000000000"
                    }
                ],
                "storageVariables": [
                    {
                        "name": "_balances",
                        "type": "mapping(address => uint256)",
                        "value": {
                            "pairs": [
                                {
                                    "key": "0x75e89d5979e4f6fba9f97c104c2f0afb3f1dcb88",
                                    "value": {
                                        "current": "29858683022803945082484",
                                        "prev": "29905529422803945082484",
                                        "typeTag": 1
                                    }
                                },
                                {
                                    "key": "0xcb83ca9633ad057bd88a48a5b6e8108d97ad4472",
                                    "value": {
                                        "current": "46846400000000000000",
                                        "prev": "0",
                                        "typeTag": 1
                                    }
                                }
                            ],
                            "typeTag": 4
                        }
                    }
                ]
            }
        ]
    }
}