{
    "balance_change": {
        "balanceChanges": []
    },
    "profile": {
        "basic_info": {
            "baseFee": "",
            "blockNumber": 6337206,
            "callData": "0xef3435880000000000000000000000000000000000000000000000000cf3e57ca691d080000000000000000000000000000000000000000000001bdf7616296a44000000000000000000000000000000000000000000000000000000000000000000271000000000000000000000000000000000000000000000000000000002afa915b80000000000000000000000000000000000000000000000000cf3e57ca691d0800000000000000000000000000000000000000000000000000000000000000e9d00000000000000000000000000000000000000000000000000038d7ea4c68000000000000000000000000000000000000000000000000000000c483db16e6c3f000000000000000000000000000000000000000000000000000000000000000000000000000000000000000013119e34e140097a507b07a5564bde1bc375d9e60000000000000000000000002dcb1f212c1e33adcde46ac5734672c87c0697bf00000000000000000000000099117e991fed52bcae12b904b4a15a0c52505317000000000000000000000000000000000000000000000000000000000000001b000000000000000000000000000000000000000000000000000000000000001ba749e8049779a31803c5aac823d9c0d4f835bb02d233e134366836364ec1a81114ea0e02a289ea73ec4325ddf1c5566064bb2ada4fbdc974f1508de934b0a64c7396a911df83d0d3d88b924d680b37ef34e18948c1660927917bc5bf5ce75c6f27f8627b7aa9c3f3c081832c7886e6eb3776bd0b45b44dd452cd4f358c88f672",
            "debugEnable": true,
            "errorInfo": "",
            "eventCount": 0,
            "feeRecipient": "0xea674fdde714fd979de3edf0f56aa9716b898ec8",
            "formatValue": "0",
            "gasLimit": 210000,
            "gasPrice": "8",
            "gasUsed": 142900,
            "intTxnCount": 2,
            "internalRevert": false,
            "internalRevertMessage": "",
            "isContractCreation": false,
            "isFlashloan": false,
            "maxFee": "",
            "nonce": 1403762,
            "overwritedBlockNumber": -1,
            "priorityFee": "",
            "receiver": "0x2a0c0dbecc7e4d658f48e01e3fa353f44050c208",
            "revertMessage": "",
            "sender": "0xa7a7899d944fe658c4b0a1803bab2f490bd3849e",
            "simulationEnable": true,
            "sourceTxnHash": "0xb41fecfc7b0b56ff7f4dd4902ba6dcd60e00257d0802ed6f2162552c02e55115",
            "status": true,
            "timestamp": "2018-09-15T16:22:39Z",
            "transactionFee": "0.0011432",
            "txnHash": "0xb41fecfc7b0b56ff7f4dd4902ba6dcd60e00257d0802ed6f2162552c02e55115",
            "txnIndex": 23,
            "type": 0,
            "value": "0"
        },
        "fund_flow": [],
        "token_infos": [
            {
                "address": "0xeeeeeeeeeeeeeeeeeeeeeeeeeeeeeeeeeeeeeeee",
                "decimals": 18
            },
            {
                "address": "0xc02aaa39b223fe8d0a0e5c4f27ead9083c756cc2",
                "decimals": 18
            }
        ]
    },
    "address_label": {
        "labels": [
            {
                "address": "0x0000000000000000000000000000000000000000",
                "label": "Null Address"
            },
            {
                "address": "0x13119e34e140097a507b07a5564bde1bc375d9e6",
                "label": "Money Token"
            },
            {
                "address": "0x0000000000000000000000000000000000000003",
                "label": "Precompiled"
            },
            {
                "address": "0xeeeeeeeeeeeeeeeeeeeeeeeeeeeeeeeeeeeeeeee",
                "label": "Ether"
            },
            {
                "address": "0xa7a7899d944fe658c4b0a1803bab2f490bd3849e",
                "label": "IDEX 2"
            },
            {
                "address": "0x0000000000000000000000000000000000000002",
                "label": "Precompiled"
            },
            {
                "address": "0x0000000000000000000000000000000000000004",
                "label": "Precompiled"
            },
            {
                "address": "0x2a0c0dbecc7e4d658f48e01e3fa353f44050c208",
                "label": "IDEX"
            },
            {
                "address": "0x0000000000000000000000000000000000000001",
                "label": "Precompiled"
            }
        ]
    },
    "trace": {
        "accountLabels": null,
        "dataMap": {
            "-1": {
                "invocation": {
                    "address": "0xa7a7899d944fe658c4b0a1803bab2f490bd3849e",
                    "callData": "",
                    "decodedMethod": null,
                    "errorInfo": "",
                    "fromAddress": "",
                    "gasUsed": 0,
                    "id": -1,
                    "methodDecoded": false,
                    "operation": "",
                    "output": "",
                    "revert": false,
                    "revertMessage": "",
                    "selector": "",
                    "status": false,
                    "value": ""
                },
                "nodeType": 0
            },
            "0": {
                "invocation": {
                    "address": "0x2a0c0dbecc7e4d658f48e01e3fa353f44050c208",
                    "callData": "0x0000000000000000000000000000000000000000000000000cf3e57ca691d080000000000000000000000000000000000000000000001bdf7616296a44000000000000000000000000000000000000000000000000000000000000000000271000000000000000000000000000000000000000000000000000000002afa915b80000000000000000000000000000000000000000000000000cf3e57ca691d0800000000000000000000000000000000000000000000000000000000000000e9d00000000000000000000000000000000000000000000000000038d7ea4c68000000000000000000000000000000000000000000000000000000c483db16e6c3f000000000000000000000000000000000000000000000000000000000000000000000000000000000000000013119e34e140097a507b07a5564bde1bc375d9e60000000000000000000000002dcb1f212c1e33adcde46ac5734672c87c0697bf00000000000000000000000099117e991fed52bcae12b904b4a15a0c52505317000000000000000000000000000000000000000000000000000000000000001b000000000000000000000000000000000000000000000000000000000000001ba749e8049779a31803c5aac823d9c0d4f835bb02d233e134366836364ec1a81114ea0e02a289ea73ec4325ddf1c5566064bb2ada4fbdc974f1508de934b0a64c7396a911df83d0d3d88b924d680b37ef34e18948c1660927917bc5bf5ce75c6f27f8627b7aa9c3f3c081832c7886e6eb3776bd0b45b44dd452cd4f358c88f672",
                    "decodedMethod": {
                        "callParams": [
                            {
                                "name": "tradeValues",
                                "type": "uint256[8]",
                                "value": [
                                    "933,341,871,329,104,000",
                                    "131,626,027,999,999,998,033,920",
                                    "10,000",
                                    "11,537,028,536",
                                    "933,341,871,329,104,000",
                                    "3,741",
                                    "1,000,000,000,000,000",
                                    "3,457,129,527,536,703"
                                ]
                            },
                            {
                                "name": "tradeAddresses",
                                "type": "address[4]",
                                "value": [
                                    "0x0000000000000000000000000000000000000000",
                                    "0x13119e34e140097a507b07a5564bde1bc375d9e6",
                                    "0x2dcb1f212c1e33adcde46ac5734672c87c0697bf",
                                    "0x99117e991fed52bcae12b904b4a15a0c52505317"
                                ]
                            },
                            {
                                "name": "v",
                                "type": "uint8[2]",
                                "value": [
                                    "27",
                                    "27"
                                ]
                            },
                            {
                                "name": "rs",
                                "type": "bytes32[4]",
                                "value": [
                                    "0xa749e8049779a31803c5aac823d9c0d4f835bb02d233e134366836364ec1a811",
                                    "0x14ea0e02a289ea73ec4325ddf1c5566064bb2ada4fbdc974f1508de934b0a64c",
                                    "0x7396a911df83d0d3d88b924d680b37ef34e18948c1660927917bc5bf5ce75c6f",
                                    "0x27f8627b7aa9c3f3c081832c7886e6eb3776bd0b45b44dd452cd4f358c88f672"
                                ]
                            }
                        ],
                        "constructorArguments": "",
                        "name": "trade",
                        "returnParams": [
                            {
                                "name": "success",
                                "type": "bool",
                                "value": false
                            }
                        ],
                        "signature": "trade(uint256[8],address[4],uint8[2],bytes32[4])"
                    },
                    "errorInfo": "",
                    "fromAddress": "0xa7a7899d944fe658c4b0a1803bab2f490bd3849e",
                    "gasUsed": 142900,
                    "id": 0,
                    "methodDecoded": true,
                    "operation": "CALL",
                    "output": "0x0000000000000000000000000000000000000000000000000000000000000000",
                    "revert": false,
                    "revertMessage": "",
                    "selector": "0xef343588",
                    "status": true,
                    "value": "0"
                },
                "nodeType": 0
            },
            "1": {
                "invocation": {
                    "address": "0x0000000000000000000000000000000000000001",
                    "callData": "0xe1d7328ec7fc9fe64a48008c9a3d884680312a7d1f91bb783fa5652a000000000000000000000000000000000000000000000000000000000000001ba749e8049779a31803c5aac823d9c0d4f835bb02d233e134366836364ec1a81114ea0e02a289ea73ec4325ddf1c5566064bb2ada4fbdc974f1508de934b0a64c",
                    "decodedMethod": {
                        "callParams": [
                            {
                                "name": "hash",
                                "type": "bytes32",
                                "value": "0x7d18e10ae1d7328ec7fc9fe64a48008c9a3d884680312a7d1f91bb783fa5652a"
                            },
                            {
                                "name": "v",
                                "type": "uint256",
                                "value": "27"
                            },
                            {
                                "name": "r",
                                "type": "bytes32",
                                "value": "0xa749e8049779a31803c5aac823d9c0d4f835bb02d233e134366836364ec1a811"
                            },
                            {
                                "name": "s",
                                "type": "bytes32",
                                "value": "0x14ea0e02a289ea73ec4325ddf1c5566064bb2ada4fbdc974f1508de934b0a64c"
                            }
                        ],
                        "constructorArguments": "",
                        "name": "ecrecover",
                        "returnParams": [
                            {
                                "name": "",
                                "type": "address",
                                "value": "0x2dcb1f212c1e33adcde46ac5734672c87c0697bf"
                            }
                        ],
                        "signature": "ecrecover(bytes32,uint256,bytes32,bytes32)"
                    },
                    "errorInfo": "",
                    "fromAddress": "0x2a0c0dbecc7e4d658f48e01e3fa353f44050c208",
                    "gasUsed": 3000,
                    "id": 1,
                    "methodDecoded": true,
                    "operation": "CALL",
                    "output": "0x0000000000000000000000002dcb1f212c1e33adcde46ac5734672c87c0697bf",
                    "revert": false,
                    "revertMessage": "",
                    "selector": "0x7d18e10a",
                    "status": true,
                    "value": "0"
                },
                "nodeType": 0
            },
            "2": {
                "invocation": {
                    "address": "0x0000000000000000000000000000000000000001",
                    "callData": "0x89340a3fc188962618aa2593afad9e1471f99d6e3d401ce4fe5453a5000000000000000000000000000000000000000000000000000000000000001b7396a911df83d0d3d88b924d680b37ef34e18948c1660927917bc5bf5ce75c6f27f8627b7aa9c3f3c081832c7886e6eb3776bd0b45b44dd452cd4f358c88f672",
                    "decodedMethod": {
                        "callParams": [
                            {
                                "name": "hash",
                                "type": "bytes32",
                                "value": "0x3312940689340a3fc188962618aa2593afad9e1471f99d6e3d401ce4fe5453a5"
                            },
                            {
                                "name": "v",
                                "type": "uint256",
                                "value": "27"
                            },
                            {
                                "name": "r",
                                "type": "bytes32",
                                "value": "0x7396a911df83d0d3d88b924d680b37ef34e18948c1660927917bc5bf5ce75c6f"
                            },
                            {
                                "name": "s",
                                "type": "bytes32",
                                "value": "0x27f8627b7aa9c3f3c081832c7886e6eb3776bd0b45b44dd452cd4f358c88f672"
                            }
                        ],
                        "constructorArguments": "",
                        "name": "ecrecover",
                        "returnParams": [
                            {
                                "name": "",
                                "type": "address",
                                "value": "0x99117e991fed52bcae12b904b4a15a0c52505317"
                            }
                        ],
                        "signature": "ecrecover(bytes32,uint256,bytes32,bytes32)"
                    },
                    "errorInfo": "",
                    "fromAddress": "0x2a0c0dbecc7e4d658f48e01e3fa353f44050c208",
                    "gasUsed": 3000,
                    "id": 2,
                    "methodDecoded": true,
                    "operation": "CALL",
                    "output": "0x00000000000000000000000099117e991fed52bcae12b904b4a15a0c52505317",
                    "revert": false,
                    "revertMessage": "",
                    "selector": "0x33129406",
                    "status": true,
                    "value": "0"
                },
                "nodeType": 0
            }
        },
        "gasFlame": [
            {
                "children": [
                    {
                        "children": [
                            {
                                "children": [],
                                "depth": 0,
                                "name": "Initial Gas",
                                "value": 38616
                            },
                            {
                                "children": [
                                    {
                                        "children": [],
                                        "depth": 1,
                                        "name": "ecrecover",
                                        "value": 3000
                                    },
                                    {
                                        "children": [],
                                        "depth": 1,
                                        "name": "ecrecover",
                                        "value": 3000
                                    }
                                ],
                                "depth": 0,
                                "name": "Executed Gas",
                                "value": 104284
                            }
                        ],
                        "depth": -1,
                        "name": "Actual Gas Used",
                        "value": 142900
                    },
                    {
                        "children": [],
                        "depth": -1,
                        "name": "Refunded Gas",
                        "value": 0
                    }
                ],
                "depth": -2,
                "name": "Total Gas",
                "value": 142900
            }
        ],
        "isConfirmed": true,
        "mainTrace": [
            {
                "children": [
                    {
                        "children": [
                            {
                                "children": [],
                                "depth": 1,
                                "id": 1,
                                "order": 1
                            },
                            {
                                "children": [],
                                "depth": 1,
                                "id": 2,
                                "order": 2
                            }
                        ],
                        "depth": 0,
                        "id": 0,
                        "order": 0
                    }
                ],
                "depth": -1,
                "id": -1,
                "order": -1
            }
        ],
        "mainTraceNodeCount": 3,
        "parentIdMap": {
            "0": -1,
            "1": 0,
            "2": 0
        },
        "tidyTrace": [
            {
                "children": [
                    {
                        "children": [
                            {
                                "children": [],
                                "depth": 1,
                                "id": 1,
                                "order": 1
                            },
                            {
                                "children": [],
                                "depth": 1,
                                "id": 2,
                                "order": 2
                            }
                        ],
                        "depth": 0,
                        "id": 0,
                        "order": 0
                    }
                ],
                "depth": -1,
                "id": -1,
                "order": -1
            }
        ],
        "tidyTraceNodeCount": 3
    },
    "state_change": {
        "stateChanges": [
            {
                "address": "0x2a0c0dbecc7e4d658f48e01e3fa353f44050c208",
                "erc": "",
                "slots": [
                    {
                        "current": "0x0000000000000000000000000000000000000000000000001707ace49f6ebfa5",
                        "key": "0x6989145797861b7f68bf171b27e25fc830195029ded5b23a14188f84cfa4d762",
                        "prev": "0x0000000000000000000000000000000000000000000000000a1718468f8ebe75"
                    },
                    {
                        "current": "0x000000000000000000000000000000000000000000000235d52a04c29fee3062",
                        "key": "0xbd23fd584641686e7e3c3128a0eb13faf01949d0ff857c851fbcae0a91a14096",
                        "prev": "0x00000000000000000000000000000000000000000000021d2a19f459e31bd046"
                    },
                    {
                        "current": "0x00000000000000000000000000000000000000000000000088a1ecce2af22b83",
                        "key": "0x47da400fc142896395c2509b9d4fd088eb54c98702d3cf148c049642c7aa2d42",
                        "prev": "0x0000000000000000000000000000000000000000000000009595d24ad183fc03"
                    },
                    {
                        "current": "0x0000000000000000000000000000000000000000000000000cf3e57ca691d080",
                        "key": "0xe7772cd3c646ccf972e50002117e4a50b1f8796910818c4ab2515fa15ad557e5",
                        "prev": "0x0000000000000000000000000000000000000000000000000000000000000000"
                    },
                    {
                        "current": "0x000000000000000000000000000000000000000000000000000000000060b2b6",
                        "key": "0xd45aaf9b5e7d160af726e4e7ea77287a80248a379909a67f3f6b7f36576b2af0",
                        "prev": "0x000000000000000000000000000000000000000000000000000000000060add2"
                    },
                    {
                        "current": "0x00000000000000000000000000000000000000000003b26262fdd569c40423b7",
                        "key": "0xaa0f2bd0abc09a2a5fffb106e5e8000d8b04c31aedf23378758187d566586a4a",
                        "prev": "0x00000000000000000000000000000000000000000003969b97f7bc683cd683d4"
                    },
                    {
                        "current": "0x000000000000000000000000000000000000000000000000000000000060b2b6",
                        "key": "0x8c138f6358f102da351e24b641c6e7e55587f25ccf3c43058377c65262a83bd8",
                        "prev": "0x000000000000000000000000000000000000000000000000000000000060aeac"
                    },
                    {
                        "current": "0x00000000000000000000000000000000000000000000002133a592cb1af9d8ce",
                        "key": "0x3ccb72d91c5c66cba135a4135963ed23443b8a63817f501517468fcd5097e277",
                        "prev": "0x00000000000000000000000000000000000000000000002133a241ec8448097e"
                    },
                    {
                        "current": "0x0000000000000000000000000000000000000000000000000000000000000001",
                        "key": "0xaa3fd218329b719e335455a3b9c515348fc0f78e377ffb1cb34db33f5391bc55",
                        "prev": "0x0000000000000000000000000000000000000000000000000000000000000000"
                    },
                    {
                        "current": "0x0000000000000000000000000000000000000000000000000001cbc7737f8c9d",
                        "key": "0x525b9c9776431982f4c4111c0b8174855f99ebdac0085eb355c375b4da81e393",
                        "prev": "0x000000000000000000000000000000000000000000001bdf7617f531b77f8c9d"
                    }
                ],
                "storageVariables": [
                    {
                        "name": "tokens",
                        "type": "mapping(address => mapping(address => uint256))",
                        "value": {
                            "pairs": [
                                {
                                    "key": "0x0000000000000000000000000000000000000000",
                                    "value": {
                                        "pairs": [
                                            {
                                                "key": "0x034767f3c519f361c5ecf46ebfc08981c629d381",
                                                "value": {
                                                    "current": "612464096500535384270",
                                                    "prev": "612463163158664055166",
                                                    "typeTag": 1
                                                }
                                            },
                                            {
                                                "key": "0x2dcb1f212c1e33adcde46ac5734672c87c0697bf",
                                                "value": {
                                                    "current": "1659485085636673445",
                                                    "prev": "727076556178898549",
                                                    "typeTag": 1
                                                }
                                            },
                                            {
                                                "key": "0x99117e991fed52bcae12b904b4a15a0c52505317",
                                                "value": {
                                                    "current": "9845410630636546947",
                                                    "prev": "10778752501965650947",
                                                    "typeTag": 1
                                                }
                                            }
                                        ],
                                        "typeTag": 4
                                    }
                                },
                                {
                                    "key": "0x13119e34e140097a507b07a5564bde1bc375d9e6",
                                    "value": {
                                        "pairs": [
                                            {
                                                "key": "0x034767f3c519f361c5ecf46ebfc08981c629d381",
                                                "value": {
                                                    "current": "10437770496358950514786",
                                                    "prev": "9982722268367777681478",
                                                    "typeTag": 1
                                                }
                                            },
                                            {
                                                "key": "0x2dcb1f212c1e33adcde46ac5734672c87c0697bf",
                                                "value": {
                                                    "current": "505532473379997",
                                                    "prev": "131626028505532471413917",
                                                    "typeTag": 1
                                                }
                                            },
                                            {
                                                "key": "0x99117e991fed52bcae12b904b4a15a0c52505317",
                                                "value": {
                                                    "current": "4469173606805942969836471",
                                                    "prev": "4338002627033934144635860",
                                                    "typeTag": 1
                                                }
                                            }
                                        ],
                                        "typeTag": 4
                                    }
                                }
                            ],
                            "typeTag": 4
                        }
                    },
                    {
                        "name": "orderFills",
                        "type": "mapping(bytes32 => uint256)",
                        "value": {
                            "pairs": [
                                {
                                    "key": "0xd229822d28ecabd70379ac68e74ae879608aa15c314ab4feb6ff1aaaa4a5105f",
                                    "value": {
                                        "current": "933341871329104000",
                                        "prev": "0",
                                        "typeTag": 1
                                    }
                                }
                            ],
                            "typeTag": 4
                        }
                    },
                    {
                        "name": "lastActiveTransaction",
                        "type": "mapping(address => uint256)",
                        "value": {
                            "pairs": [
                                {
                                    "key": "0x2dcb1f212c1e33adcde46ac5734672c87c0697bf",
                                    "value": {
                                        "current": "6337206",
                                        "prev": "6336172",
                                        "typeTag": 1
                                    }
                                },
                                {
                                    "key": "0x99117e991fed52bcae12b904b4a15a0c52505317",
                                    "value": {
                                        "current": "6337206",
                                        "prev": "6335954",
                                        "typeTag": 1
                                    }
                                }
                            ],
                            "typeTag": 4
                        }
                    },
                    {
                        "name": "traded",
                        "type": "mapping(bytes32 => bool)",
                        "value": {
                            "pairs": [
                                {
                                    "key": "0x00ebd65d9ec2b1226f7e8914639501944c8ac62ba45e8843de9682824c52cb9f",
                                    "value": {
                                        "current": "true",
                                        "prev": "false",
                                        "typeTag": 1
                                    }
                                }
                            ],
                            "typeTag": 4
                        }
                    }
                ]
            }
        ]
    }
}