{
    "balance_change": {
        "balanceChanges": [
            {
                "account": "0x8fb28f45edc4eb075f2836690bd117235aea4078",
                "assets": [
                    {
                        "address": "0xe530441f4f73bdb6dc2fa5af7c3fc5fd551ec838",
                        "amount": "3.77",
                        "iconUrl": "https://assets.blocksec.com/icon/f962fdaabc2a2beafaad1960afcd305031c665fb5b04f8cadda8adc1c1fba949.png",
                        "isERC1155": false,
                        "isERC721": false,
                        "sign": false,
                        "value": ""
                    }
                ]
            },
            {
                "account": "0xd5359b8947dbaea191ed0a22f3a007f7c965614a",
                "assets": [
                    {
                        "address": "0xe530441f4f73bdb6dc2fa5af7c3fc5fd551ec838",
                        "amount": "3.77",
                        "iconUrl": "https://assets.blocksec.com/icon/f962fdaabc2a2beafaad1960afcd305031c665fb5b04f8cadda8adc1c1fba949.png",
                        "isERC1155": false,
                        "isERC721": false,
                        "sign": true,
                        "value": ""
                    }
                ]
            }
        ]
    },
    "profile": {
        "basic_info": {
            "baseFee": "",
            "blockNumber": 6090909,
            "callData": "0xa9059cbb000000000000000000000000d5359b8947dbaea191ed0a22f3a007f7c965614a0000000000000000000000000000000000000000000000000000000000009344",
            "debugEnable": true,
            "errorInfo": "",
            "eventCount": 1,
            "feeRecipient": "0x829bd824b016326a401d083b33d092293333a830",
            "formatValue": "0",
            "gasLimit": 37686,
            "gasPrice": "2.1",
            "gasUsed": 37622,
            "intTxnCount": 0,
            "internalRevert": false,
            "internalRevertMessage": "",
            "isContractCreation": false,
            "isFlashloan": false,
            "maxFee": "",
            "nonce": 19,
            "overwritedBlockNumber": -1,
            "priorityFee": "",
            "receiver": "0xe530441f4f73bdb6dc2fa5af7c3fc5fd551ec838",
            "revertMessage": "",
            "sender": "0x8fb28f45edc4eb075f2836690bd117235aea4078",
            "simulationEnable": true,
            "sourceTxnHash": "0xb41c9096cad62d5190ea4690ca9aed8dd6e7f098fdbd171cdd3d349e5caae423",
            "status": true,
            "timestamp": "2018-08-05T05:14:10Z",
            "transactionFee": "0.0000790062",
            "txnHash": "0xb41c9096cad62d5190ea4690ca9aed8dd6e7f098fdbd171cdd3d349e5caae423",
            "txnIndex": 71,
            "type": 0,
            "value": "0"
        },
        "fund_flow": [
            {
                "amount": "3.77",
                "from": "0x8fb28f45edc4eb075f2836690bd117235aea4078",
                "id": 1,
                "isERC1155": false,
                "isERC721": false,
                "isReverted": false,
                "order": 1,
                "to": "0xd5359b8947dbaea191ed0a22f3a007f7c965614a",
                "token": "0xe530441f4f73bdb6dc2fa5af7c3fc5fd551ec838"
            }
        ],
        "token_infos": [
            {
                "address": "0xe530441f4f73bdb6dc2fa5af7c3fc5fd551ec838",
                "decimals": 4
            },
            {
                "address": "0xeeeeeeeeeeeeeeeeeeeeeeeeeeeeeeeeeeeeeeee",
                "decimals": 18
            },
            {
                "address": "0xc02aaa39b223fe8d0a0e5c4f27ead9083c756cc2",
                "decimals": 18
            }
        ]
    },
    "address_label": {
        "labels": [
            {
                "address": "0x0000000000000000000000000000000000000001",
                "label": "Precompiled"
            },
            {
                "address": "0x0000000000000000000000000000000000000002",
                "label": "Precompiled"
            },
            {
                "address": "0x0000000000000000000000000000000000000003",
                "label": "Precompiled"
            },
            {
                "address": "0x0000000000000000000000000000000000000004",
                "label": "Precompiled"
            },
            {
                "address": "0xeeeeeeeeeeeeeeeeeeeeeeeeeeeeeeeeeeeeeeee",
                "label": "Ether"
            },
            {
                "address": "0xe530441f4f73bdb6dc2fa5af7c3fc5fd551ec838",
                "label": "GSENetwork Token"
            }
        ]
    },
    "trace": {
        "accountLabels": null,
        "dataMap": {
            "-1": {
                "invocation": {
                    "address": "0x8fb28f45edc4eb075f2836690bd117235aea4078",
                    "callData": "",
                    "decodedMethod": null,
                    "errorInfo": "",
                    "fromAddress": "",
                    "gasUsed": 0,
                    "id": -1,
                    "methodDecoded": false,
                    "operation": "",
                    "output": "",
                    "revert": false,
                    "revertMessage": "",
                    "selector": "",
                    "status": false,
                    "value": ""
                },
                "nodeType": 0
            },
            "0": {
                "invocation": {
                    "address": "0xe530441f4f73bdb6dc2fa5af7c3fc5fd551ec838",
                    "callData": "0x000000000000000000000000d5359b8947dbaea191ed0a22f3a007f7c965614a0000000000000000000000000000000000000000000000000000000000009344",
                    "decodedMethod": {
                        "callParams": [
                            {
                                "name": "_to",
                                "type": "address",
                                "value": "0xd5359b8947dbaea191ed0a22f3a007f7c965614a"
                            },
                            {
                                "decimalAvailable": true,
                                "name": "_value",
                                "type": "uint256",
                                "value": "37,700"
                            }
                        ],
                        "constructorArguments": "",
                        "name": "transfer",
                        "returnParams": [
                            {
                                "name": "",
                                "type": "bool",
                                "value": true
                            }
                        ],
                        "signature": "transfer(address,uint256)"
                    },
                    "errorInfo": "",
                    "fromAddress": "0x8fb28f45edc4eb075f2836690bd117235aea4078",
                    "gasUsed": 37622,
                    "id": 0,
                    "methodDecoded": true,
                    "operation": "CALL",
                    "output": "0x0000000000000000000000000000000000000000000000000000000000000001",
                    "revert": false,
                    "revertMessage": "",
                    "selector": "0xa9059cbb",
                    "status": true,
                    "value": "0"
                },
                "nodeType": 0
            },
            "1": {
                "event": {
                    "contract": "0xe530441f4f73bdb6dc2fa5af7c3fc5fd551ec838",
                    "decodedLog": {
                        "name": "Transfer",
                        "params": [
                            {
                                "name": "from",
                                "type": "address",
                                "value": "0x8fb28f45edc4eb075f2836690bd117235aea4078"
                            },
                            {
                                "name": "to",
                                "type": "address",
                                "value": "0xd5359b8947dbaea191ed0a22f3a007f7c965614a"
                            },
                            {
                                "decimalAvailable": true,
                                "name": "value",
                                "type": "uint256",
                                "value": "37,700"
                            }
                        ],
                        "signature": "Transfer(address,address,uint256)"
                    },
                    "id": 1,
                    "logData": "0x0000000000000000000000000000000000000000000000000000000000009344",
                    "logDecoded": true,
                    "operation": "EVENT",
                    "revert": false,
                    "status": true,
                    "topics": [
                        "0xddf252ad1be2c89b69c2b068fc378daa952ba7f163c4a11628f55a4df523b3ef",
                        "0x0000000000000000000000008fb28f45edc4eb075f2836690bd117235aea4078",
                        "0x000000000000000000000000d5359b8947dbaea191ed0a22f3a007f7c965614a"
                    ]
                },
                "nodeType": 1
            }
        },
        "gasFlame": [
            {
                "children": [
                    {
                        "children": [
                            {
                                "children": [],
                                "depth": 0,
                                "name": "Initial Gas",
                                "value": 22936
                            },
                            {
                                "children": [],
                                "depth": 0,
                                "name": "Executed Gas",
                                "value": 14686
                            }
                        ],
                        "depth": -1,
                        "name": "Actual Gas Used",
                        "value": 37622
                    },
                    {
                        "children": [],
                        "depth": -1,
                        "name": "Refunded Gas",
                        "value": 0
                    }
                ],
                "depth": -2,
                "name": "Total Gas",
                "value": 37622
            }
        ],
        "isConfirmed": true,
        "mainTrace": [
            {
                "children": [
                    {
                        "children": [
                            {
                                "children": [],
                                "depth": 1,
                                "id": 1,
                                "order": 1
                            }
                        ],
                        "depth": 0,
                        "id": 0,
                        "order": 0
                    }
                ],
                "depth": -1,
                "id": -1,
                "order": -1
            }
        ],
        "mainTraceNodeCount": 2,
        "parentIdMap": {
            "0": -1,
            "1": 0
        },
        "tidyTrace": [
            {
                "children": [
                    {
                        "children": [
                            {
                                "children": [],
                                "depth": 1,
                                "id": 1,
                                "order": 1
                            }
                        ],
                        "depth": 0,
                        "id": 0,
                        "order": 0
                    }
                ],
                "depth": -1,
                "id": -1,
                "order": -1
            }
        ],
        "tidyTraceNodeCount": 2
    },
    "state_change": {
        "stateChanges": [
            {
                "address": "0xe530441f4f73bdb6dc2fa5af7c3fc5fd551ec838",
                "erc": "ERC-20",
                "slots": [
                    {
                        "current": "0x00000000000000000000000000000000000000000000000000000000000547f7",
                        "key": "0x4dfcd921a0f5626d9b4f439f7320b042a35a72ac130d95a6b5b4ca21c072a913",
                        "prev": "0x000000000000000000000000000000000000000000000000000000000005db3b"
                    },
                    {
                        "current": "0x0000000000000000000000000000000000000000000000000000000000177ff7",
                        "key": "0xb01db94039d39282ca8b963be9d6da726be5c26a971d05302afa0498db90e396",
                        "prev": "0x000000000000000000000000000000000000000000000000000000000016ecb3"
                    }
                ],
                "storageVariables": [
                    {
                        "name": "balances",
                        "type": "mapping(address => uint256)",
                        "value": {
                            "pairs": [
                                {
                                    "key": "0x8fb28f45edc4eb075f2836690bd117235aea4078",
                                    "value": {
                                        "current": "346103",
                                        "prev": "383803",
                                        "typeTag": 1
                                    }
                                },
                                {
                                    "key": "0xd5359b8947dbaea191ed0a22f3a007f7c965614a",
                                    "value": {
                                        "current": "1540087",
                                        "prev": "1502387",
                                        "typeTag": 1
                                    }
                                }
                            ],
                            "typeTag": 4
                        }
                    }
                ]
            }
        ]
    }
}