{
    "balance_change": {
        "balanceChanges": [
            {
                "account": "0xd551234ae421e3bcba99a0da6d736074f22192ff",
                "assets": [
                    {
                        "address": "0x6c6ee5e31d828de241282b9606c8e98ea48526e2",
                        "amount": "2,594,802.463",
                        "iconUrl": "https://assets.blocksec.com/icon/07c56c67163174e082e47dbd309426b5570aab223f97fcb51fd47ff7b2d87ebd.png",
                        "isERC1155": false,
                        "isERC721": false,
                        "sign": false,
                        "value": "2734.571768"
                    }
                ]
            },
            {
                "account": "0xbf30396a00579855d501671b213b6cb8305c67c9",
                "assets": [
                    {
                        "address": "0x6c6ee5e31d828de241282b9606c8e98ea48526e2",
                        "amount": "2,594,802.463",
                        "iconUrl": "https://assets.blocksec.com/icon/07c56c67163174e082e47dbd309426b5570aab223f97fcb51fd47ff7b2d87ebd.png",
                        "isERC1155": false,
                        "isERC721": false,
                        "sign": true,
                        "value": "2734.571768"
                    }
                ]
            }
        ]
    },
    "profile": {
        "basic_info": {
            "baseFee": "",
            "blockNumber": 11625265,
            "callData": "0xa9059cbb000000000000000000000000bf30396a00579855d501671b213b6cb8305c67c900000000000000000000000000000000000000000002257885fc15d83b898000",
            "debugEnable": true,
            "errorInfo": "",
            "eventCount": 1,
            "feeRecipient": "0x1ca43b645886c98d7eb7d27ec16ea59f509cbe1a",
            "formatValue": "0",
            "gasLimit": 207128,
            "gasPrice": "84",
            "gasUsed": 53353,
            "intTxnCount": 0,
            "internalRevert": false,
            "internalRevertMessage": "",
            "isContractCreation": false,
            "isFlashloan": false,
            "maxFee": "",
            "nonce": 3725500,
            "overwritedBlockNumber": -1,
            "priorityFee": "",
            "receiver": "0x6c6ee5e31d828de241282b9606c8e98ea48526e2",
            "revertMessage": "",
            "sender": "0xd551234ae421e3bcba99a0da6d736074f22192ff",
            "simulationEnable": true,
            "sourceTxnHash": "0xb48527807781b83f2fffd1f37b586978734dd8b8a5de46a8d436af6d18cd7682",
            "status": true,
            "timestamp": "2021-01-10T05:47:59Z",
            "transactionFee": "0.004481652",
            "txnHash": "0xb48527807781b83f2fffd1f37b586978734dd8b8a5de46a8d436af6d18cd7682",
            "txnIndex": 173,
            "type": 0,
            "value": "0"
        },
        "fund_flow": [
            {
                "amount": "2,594,802.463",
                "from": "0xd551234ae421e3bcba99a0da6d736074f22192ff",
                "id": 1,
                "isERC1155": false,
                "isERC721": false,
                "isReverted": false,
                "order": 1,
                "to": "0xbf30396a00579855d501671b213b6cb8305c67c9",
                "token": "0x6c6ee5e31d828de241282b9606c8e98ea48526e2"
            }
        ],
        "token_infos": [
            {
                "address": "0x6c6ee5e31d828de241282b9606c8e98ea48526e2",
                "decimals": 18
            },
            {
                "address": "0xc02aaa39b223fe8d0a0e5c4f27ead9083c756cc2",
                "decimals": 18
            },
            {
                "address": "0xeeeeeeeeeeeeeeeeeeeeeeeeeeeeeeeeeeeeeeee",
                "decimals": 18
            }
        ]
    },
    "address_label": {
        "labels": [
            {
                "address": "0x6c6ee5e31d828de241282b9606c8e98ea48526e2",
                "label": "Holo: HOT Token"
            },
            {
                "address": "0xbf30396a00579855d501671b213b6cb8305c67c9",
                "label": "CEX"
            },
            {
                "address": "0xd551234ae421e3bcba99a0da6d736074f22192ff",
                "label": "Binance 2"
            },
            {
                "address": "0x0000000000000000000000000000000000000001",
                "label": "Precompiled"
            },
            {
                "address": "0x0000000000000000000000000000000000000002",
                "label": "Precompiled"
            },
            {
                "address": "0x0000000000000000000000000000000000000003",
                "label": "Precompiled"
            },
            {
                "address": "0x0000000000000000000000000000000000000004",
                "label": "Precompiled"
            },
            {
                "address": "0xeeeeeeeeeeeeeeeeeeeeeeeeeeeeeeeeeeeeeeee",
                "label": "Ether"
            }
        ]
    },
    "trace": {
        "accountLabels": null,
        "dataMap": {
            "-1": {
                "invocation": {
                    "address": "0xd551234ae421e3bcba99a0da6d736074f22192ff",
                    "callData": "",
                    "decodedMethod": null,
                    "errorInfo": "",
                    "fromAddress": "",
                    "gasUsed": 0,
                    "id": -1,
                    "methodDecoded": false,
                    "operation": "",
                    "output": "",
                    "revert": false,
                    "revertMessage": "",
                    "selector": "",
                    "status": false,
                    "value": ""
                },
                "nodeType": 0
            },
            "0": {
                "invocation": {
                    "address": "0x6c6ee5e31d828de241282b9606c8e98ea48526e2",
                    "callData": "0x000000000000000000000000bf30396a00579855d501671b213b6cb8305c67c900000000000000000000000000000000000000000002257885fc15d83b898000",
                    "decodedMethod": {
                        "callParams": [
                            {
                                "name": "_to",
                                "type": "address",
                                "value": "0xbf30396a00579855d501671b213b6cb8305c67c9"
                            },
                            {
                                "decimalAvailable": true,
                                "name": "_value",
                                "type": "uint256",
                                "value": "2,594,802,463,000,000,000,000,000"
                            }
                        ],
                        "constructorArguments": "",
                        "name": "transfer",
                        "returnParams": [
                            {
                                "name": "",
                                "type": "bool",
                                "value": true
                            }
                        ],
                        "signature": "transfer(address,uint256)"
                    },
                    "errorInfo": "",
                    "fromAddress": "0xd551234ae421e3bcba99a0da6d736074f22192ff",
                    "gasUsed": 53353,
                    "id": 0,
                    "methodDecoded": true,
                    "operation": "CALL",
                    "output": "0x0000000000000000000000000000000000000000000000000000000000000001",
                    "revert": false,
                    "revertMessage": "",
                    "selector": "0xa9059cbb",
                    "status": true,
                    "value": "0"
                },
                "nodeType": 0
            },
            "1": {
                "event": {
                    "contract": "0x6c6ee5e31d828de241282b9606c8e98ea48526e2",
                    "decodedLog": {
                        "name": "Transfer",
                        "params": [
                            {
                                "name": "from",
                                "type": "address",
                                "value": "0xd551234ae421e3bcba99a0da6d736074f22192ff"
                            },
                            {
                                "name": "to",
                                "type": "address",
                                "value": "0xbf30396a00579855d501671b213b6cb8305c67c9"
                            },
                            {
                                "decimalAvailable": true,
                                "name": "value",
                                "type": "uint256",
                                "value": "2,594,802,463,000,000,000,000,000"
                            }
                        ],
                        "signature": "Transfer(address,address,uint256)"
                    },
                    "id": 1,
                    "logData": "0x00000000000000000000000000000000000000000002257885fc15d83b898000",
                    "logDecoded": true,
                    "operation": "EVENT",
                    "revert": false,
                    "status": true,
                    "topics": [
                        "0xddf252ad1be2c89b69c2b068fc378daa952ba7f163c4a11628f55a4df523b3ef",
                        "0x000000000000000000000000d551234ae421e3bcba99a0da6d736074f22192ff",
                        "0x000000000000000000000000bf30396a00579855d501671b213b6cb8305c67c9"
                    ]
                },
                "nodeType": 1
            }
        },
        "gasFlame": [
            {
                "children": [
                    {
                        "children": [
                            {
                                "children": [],
                                "depth": 0,
                                "name": "Initial Gas",
                                "value": 21668
                            },
                            {
                                "children": [],
                                "depth": 0,
                                "name": "Executed Gas",
                                "value": 31685
                            }
                        ],
                        "depth": -1,
                        "name": "Actual Gas Used",
                        "value": 53353
                    },
                    {
                        "children": [],
                        "depth": -1,
                        "name": "Refunded Gas",
                        "value": 0
                    }
                ],
                "depth": -2,
                "name": "Total Gas",
                "value": 53353
            }
        ],
        "isConfirmed": true,
        "mainTrace": [
            {
                "children": [
                    {
                        "children": [
                            {
                                "children": [],
                                "depth": 1,
                                "id": 1,
                                "order": 1
                            }
                        ],
                        "depth": 0,
                        "id": 0,
                        "order": 0
                    }
                ],
                "depth": -1,
                "id": -1,
                "order": -1
            }
        ],
        "mainTraceNodeCount": 2,
        "parentIdMap": {
            "0": -1,
            "1": 0
        },
        "tidyTrace": [
            {
                "children": [
                    {
                        "children": [
                            {
                                "children": [],
                                "depth": 1,
                                "id": 1,
                                "order": 1
                            }
                        ],
                        "depth": 0,
                        "id": 0,
                        "order": 0
                    }
                ],
                "depth": -1,
                "id": -1,
                "order": -1
            }
        ],
        "tidyTraceNodeCount": 2
    },
    "state_change": {
        "stateChanges": [
            {
                "address": "0x6c6ee5e31d828de241282b9606c8e98ea48526e2",
                "erc": "ERC-20",
                "slots": [
                    {
                        "current": "0x00000000000000000000000000000000000000000002257885fc15d83b898000",
                        "key": "0x0a39990bcd6f3efdfba7057c410a112681836c91b46f41f6c93ab49bfdb8eab7",
                        "prev": "0x0000000000000000000000000000000000000000000000000000000000000000"
                    },
                    {
                        "current": "0x0000000000000000000000000000000000000000003c4365c39b1ad47755c800",
                        "key": "0x5a6b41af7cbffb82d81cd02713000a1c53bf722b447138c008d0feeaec3e68bd",
                        "prev": "0x0000000000000000000000000000000000000000003e68de499730acb2df4800"
                    }
                ],
                "storageVariables": [
                    {
                        "name": "balances",
                        "type": "mapping(address => uint256)",
                        "value": {
                            "pairs": [
                                {
                                    "key": "0xbf30396a00579855d501671b213b6cb8305c67c9",
                                    "value": {
                                        "current": "2594802463000000000000000",
                                        "prev": "0",
                                        "typeTag": 1
                                    }
                                },
                                {
                                    "key": "0xd551234ae421e3bcba99a0da6d736074f22192ff",
                                    "value": {
                                        "current": "72853824947270420000000000",
                                        "prev": "75448627410270420000000000",
                                        "typeTag": 1
                                    }
                                }
                            ],
                            "typeTag": 4
                        }
                    }
                ]
            }
        ]
    }
}