{
    "balance_change": {
        "balanceChanges": [
            {
                "account": "0x2a549b4af9ec39b03142da6dc32221fc390b5533",
                "assets": [
                    {
                        "address": "0x514910771af9ca656af840dff83e8264ecf986ca",
                        "amount": "170.88252384",
                        "iconUrl": "https://assets.blocksec.com/icon/f97453a18956674db69f16b525216d646fc76f3c7f90f0cd6147f8534d5af3e9.png",
                        "isERC1155": false,
                        "isERC721": false,
                        "sign": true,
                        "value": "5034.199151"
                    }
                ]
            },
            {
                "account": "0x926c5c0ecac7a1cb46970aac644c5185e6a61d6d",
                "assets": [
                    {
                        "address": "0x514910771af9ca656af840dff83e8264ecf986ca",
                        "amount": "170.88252384",
                        "iconUrl": "https://assets.blocksec.com/icon/f97453a18956674db69f16b525216d646fc76f3c7f90f0cd6147f8534d5af3e9.png",
                        "isERC1155": false,
                        "isERC721": false,
                        "sign": false,
                        "value": "5034.199151"
                    }
                ]
            }
        ]
    },
    "profile": {
        "basic_info": {
            "baseFee": "",
            "blockNumber": 12066486,
            "callData": "0x2da03409000000000000000000000000926c5c0ecac7a1cb46970aac644c5185e6a61d6d000000000000000000000000514910771af9ca656af840dff83e8264ecf986ca",
            "debugEnable": true,
            "errorInfo": "",
            "eventCount": 2,
            "feeRecipient": "0xea674fdde714fd979de3edf0f56aa9716b898ec8",
            "formatValue": "0",
            "gasLimit": 500000,
            "gasPrice": "178.1",
            "gasUsed": 40530,
            "intTxnCount": 3,
            "internalRevert": false,
            "internalRevertMessage": "",
            "isContractCreation": false,
            "isFlashloan": false,
            "maxFee": "",
            "nonce": 376014,
            "overwritedBlockNumber": -1,
            "priorityFee": "",
            "receiver": "0x2a549b4af9ec39b03142da6dc32221fc390b5533",
            "revertMessage": "",
            "sender": "0x808b4da0be6c9512e948521452227efc619bea52",
            "simulationEnable": true,
            "sourceTxnHash": "0xb4cf4cdb6b411b3e4952e8a4af21e12d471515255fc9edfe48dbe2b87e76cdd7",
            "status": true,
            "timestamp": "2021-03-19T02:32:16Z",
            "transactionFee": "0.007218393",
            "txnHash": "0xb4cf4cdb6b411b3e4952e8a4af21e12d471515255fc9edfe48dbe2b87e76cdd7",
            "txnIndex": 40,
            "type": 0,
            "value": "0"
        },
        "fund_flow": [
            {
                "amount": "170.88252384",
                "from": "0x926c5c0ecac7a1cb46970aac644c5185e6a61d6d",
                "id": 1,
                "isERC1155": false,
                "isERC721": false,
                "isReverted": false,
                "order": 1,
                "to": "0x2a549b4af9ec39b03142da6dc32221fc390b5533",
                "token": "0x514910771af9ca656af840dff83e8264ecf986ca"
            }
        ],
        "token_infos": [
            {
                "address": "0x514910771af9ca656af840dff83e8264ecf986ca",
                "decimals": 18
            },
            {
                "address": "0xc02aaa39b223fe8d0a0e5c4f27ead9083c756cc2",
                "decimals": 18
            },
            {
                "address": "0xeeeeeeeeeeeeeeeeeeeeeeeeeeeeeeeeeeeeeeee",
                "decimals": 18
            }
        ]
    },
    "address_label": {
        "labels": [
            {
                "address": "0xeeeeeeeeeeeeeeeeeeeeeeeeeeeeeeeeeeeeeeee",
                "label": "Ether"
            },
            {
                "address": "0x514910771af9ca656af840dff83e8264ecf986ca",
                "label": "Chainlink: LINK Token"
            },
            {
                "address": "0x808b4da0be6c9512e948521452227efc619bea52",
                "label": "BlockFi 5"
            },
            {
                "address": "0x2a549b4af9ec39b03142da6dc32221fc390b5533",
                "label": "BlockFi 3"
            },
            {
                "address": "0x0000000000000000000000000000000000000001",
                "label": "Precompiled"
            },
            {
                "address": "0x0000000000000000000000000000000000000002",
                "label": "Precompiled"
            },
            {
                "address": "0x0000000000000000000000000000000000000003",
                "label": "Precompiled"
            },
            {
                "address": "0x0000000000000000000000000000000000000004",
                "label": "Precompiled"
            }
        ]
    },
    "trace": {
        "accountLabels": null,
        "dataMap": {
            "-1": {
                "invocation": {
                    "address": "0x808b4da0be6c9512e948521452227efc619bea52",
                    "callData": "",
                    "decodedMethod": null,
                    "errorInfo": "",
                    "fromAddress": "",
                    "gasUsed": 0,
                    "id": -1,
                    "methodDecoded": false,
                    "operation": "",
                    "output": "",
                    "revert": false,
                    "revertMessage": "",
                    "selector": "",
                    "status": false,
                    "value": ""
                },
                "nodeType": 0
            },
            "0": {
                "invocation": {
                    "address": "0x2a549b4af9ec39b03142da6dc32221fc390b5533",
                    "callData": "0x000000000000000000000000926c5c0ecac7a1cb46970aac644c5185e6a61d6d000000000000000000000000514910771af9ca656af840dff83e8264ecf986ca",
                    "decodedMethod": {
                        "callParams": [
                            {
                                "name": "forwarderAddress",
                                "type": "address",
                                "value": "0x926c5c0ecac7a1cb46970aac644c5185e6a61d6d"
                            },
                            {
                                "name": "tokenContractAddress",
                                "type": "address",
                                "value": "0x514910771af9ca656af840dff83e8264ecf986ca"
                            }
                        ],
                        "constructorArguments": "",
                        "name": "flushForwarderTokens",
                        "returnParams": [],
                        "signature": "flushForwarderTokens(address,address)"
                    },
                    "errorInfo": "",
                    "fromAddress": "0x808b4da0be6c9512e948521452227efc619bea52",
                    "gasUsed": 40530,
                    "id": 0,
                    "methodDecoded": true,
                    "operation": "CALL",
                    "output": "",
                    "revert": false,
                    "revertMessage": "",
                    "selector": "0x2da03409",
                    "status": true,
                    "value": "0"
                },
                "nodeType": 0
            },
            "1": {
                "invocation": {
                    "address": "0x926c5c0ecac7a1cb46970aac644c5185e6a61d6d",
                    "callData": "0x000000000000000000000000514910771af9ca656af840dff83e8264ecf986ca",
                    "decodedMethod": {
                        "callParams": [
                            {
                                "name": "tokenContractAddress",
                                "type": "address",
                                "value": "0x514910771af9ca656af840dff83e8264ecf986ca"
                            }
                        ],
                        "constructorArguments": "",
                        "name": "flushTokens",
                        "returnParams": [],
                        "signature": "flushTokens(address)"
                    },
                    "errorInfo": "",
                    "fromAddress": "0x2a549b4af9ec39b03142da6dc32221fc390b5533",
                    "gasUsed": 23426,
                    "id": 1,
                    "methodDecoded": true,
                    "operation": "CALL",
                    "output": "",
                    "revert": false,
                    "revertMessage": "",
                    "selector": "0x3ef13367",
                    "status": true,
                    "value": "0"
                },
                "nodeType": 0
            },
            "2": {
                "invocation": {
                    "address": "0x514910771af9ca656af840dff83e8264ecf986ca",
                    "callData": "0x000000000000000000000000926c5c0ecac7a1cb46970aac644c5185e6a61d6d",
                    "decodedMethod": {
                        "callParams": [
                            {
                                "name": "_owner",
                                "type": "address",
                                "value": "0x926c5c0ecac7a1cb46970aac644c5185e6a61d6d"
                            }
                        ],
                        "constructorArguments": "",
                        "name": "balanceOf",
                        "returnParams": [
                            {
                                "decimalAvailable": true,
                                "name": "balance",
                                "type": "uint256",
                                "value": "170,882,523,840,000,000,000"
                            }
                        ],
                        "signature": "balanceOf(address)"
                    },
                    "errorInfo": "",
                    "fromAddress": "0x926c5c0ecac7a1cb46970aac644c5185e6a61d6d",
                    "gasUsed": 1355,
                    "id": 2,
                    "methodDecoded": true,
                    "operation": "CALL",
                    "output": "0x0000000000000000000000000000000000000000000000094378ae0edd6b8000",
                    "revert": false,
                    "revertMessage": "",
                    "selector": "0x70a08231",
                    "status": true,
                    "value": "0"
                },
                "nodeType": 0
            },
            "3": {
                "invocation": {
                    "address": "0x514910771af9ca656af840dff83e8264ecf986ca",
                    "callData": "0x0000000000000000000000002a549b4af9ec39b03142da6dc32221fc390b55330000000000000000000000000000000000000000000000094378ae0edd6b8000",
                    "decodedMethod": {
                        "callParams": [
                            {
                                "name": "_to",
                                "type": "address",
                                "value": "0x2a549b4af9ec39b03142da6dc32221fc390b5533"
                            },
                            {
                                "decimalAvailable": true,
                                "name": "_value",
                                "type": "uint256",
                                "value": "170,882,523,840,000,000,000"
                            }
                        ],
                        "constructorArguments": "",
                        "name": "transfer",
                        "returnParams": [
                            {
                                "name": "success",
                                "type": "bool",
                                "value": true
                            }
                        ],
                        "signature": "transfer(address,uint256)"
                    },
                    "errorInfo": "",
                    "fromAddress": "0x926c5c0ecac7a1cb46970aac644c5185e6a61d6d",
                    "gasUsed": 14945,
                    "id": 3,
                    "methodDecoded": true,
                    "operation": "CALL",
                    "output": "0x0000000000000000000000000000000000000000000000000000000000000001",
                    "revert": false,
                    "revertMessage": "",
                    "selector": "0xa9059cbb",
                    "status": true,
                    "value": "0"
                },
                "nodeType": 0
            },
            "4": {
                "event": {
                    "contract": "0x514910771af9ca656af840dff83e8264ecf986ca",
                    "decodedLog": {
                        "name": "Transfer",
                        "params": [
                            {
                                "name": "from",
                                "type": "address",
                                "value": "0x926c5c0ecac7a1cb46970aac644c5185e6a61d6d"
                            },
                            {
                                "name": "to",
                                "type": "address",
                                "value": "0x2a549b4af9ec39b03142da6dc32221fc390b5533"
                            },
                            {
                                "decimalAvailable": true,
                                "name": "value",
                                "type": "uint256",
                                "value": "170,882,523,840,000,000,000"
                            }
                        ],
                        "signature": "Transfer(address,address,uint256)"
                    },
                    "id": 4,
                    "logData": "0x0000000000000000000000000000000000000000000000094378ae0edd6b8000",
                    "logDecoded": true,
                    "operation": "EVENT",
                    "revert": false,
                    "status": true,
                    "topics": [
                        "0xddf252ad1be2c89b69c2b068fc378daa952ba7f163c4a11628f55a4df523b3ef",
                        "0x000000000000000000000000926c5c0ecac7a1cb46970aac644c5185e6a61d6d",
                        "0x0000000000000000000000002a549b4af9ec39b03142da6dc32221fc390b5533"
                    ]
                },
                "nodeType": 1
            },
            "5": {
                "event": {
                    "contract": "0x926c5c0ecac7a1cb46970aac644c5185e6a61d6d",
                    "decodedLog": {
                        "name": "TokensFlushed",
                        "params": [
                            {
                                "name": "tokenContractAddress",
                                "type": "address",
                                "value": "0x514910771af9ca656af840dff83e8264ecf986ca"
                            },
                            {
                                "name": "value",
                                "type": "uint256",
                                "value": "170,882,523,840,000,000,000"
                            }
                        ],
                        "signature": "TokensFlushed(address,uint256)"
                    },
                    "id": 5,
                    "logData": "0x000000000000000000000000514910771af9ca656af840dff83e8264ecf986ca0000000000000000000000000000000000000000000000094378ae0edd6b8000",
                    "logDecoded": true,
                    "operation": "EVENT",
                    "revert": false,
                    "status": true,
                    "topics": [
                        "0x9401e4e79c19cbe2bd774cb70a94ba660e6718be1bac1298ab3b07f454a60821"
                    ]
                },
                "nodeType": 1
            }
        },
        "gasFlame": [
            {
                "children": [
                    {
                        "children": [
                            {
                                "children": [],
                                "depth": 0,
                                "name": "Initial Gas",
                                "value": 21800
                            },
                            {
                                "children": [
                                    {
                                        "children": [
                                            {
                                                "children": [],
                                                "depth": 2,
                                                "name": "balanceOf",
                                                "value": 1355
                                            },
                                            {
                                                "children": [],
                                                "depth": 2,
                                                "name": "transfer",
                                                "value": 14945
                                            }
                                        ],
                                        "depth": 1,
                                        "name": "flushTokens",
                                        "value": 23426
                                    }
                                ],
                                "depth": 0,
                                "name": "Executed Gas",
                                "value": 33730
                            }
                        ],
                        "depth": -1,
                        "name": "Actual Gas Used",
                        "value": 40530
                    },
                    {
                        "children": [],
                        "depth": -1,
                        "name": "Refunded Gas",
                        "value": 15000
                    }
                ],
                "depth": -2,
                "name": "Total Gas",
                "value": 55530
            }
        ],
        "isConfirmed": true,
        "mainTrace": [
            {
                "children": [
                    {
                        "children": [
                            {
                                "children": [
                                    {
                                        "children": [],
                                        "depth": 2,
                                        "id": 2,
                                        "order": 2
                                    },
                                    {
                                        "children": [
                                            {
                                                "children": [],
                                                "depth": 3,
                                                "id": 4,
                                                "order": 4
                                            }
                                        ],
                                        "depth": 2,
                                        "id": 3,
                                        "order": 3
                                    },
                                    {
                                        "children": [],
                                        "depth": 2,
                                        "id": 5,
                                        "order": 5
                                    }
                                ],
                                "depth": 1,
                                "id": 1,
                                "order": 1
                            }
                        ],
                        "depth": 0,
                        "id": 0,
                        "order": 0
                    }
                ],
                "depth": -1,
                "id": -1,
                "order": -1
            }
        ],
        "mainTraceNodeCount": 6,
        "parentIdMap": {
            "0": -1,
            "1": 0,
            "2": 1,
            "3": 1,
            "4": 3,
            "5": 1
        },
        "tidyTrace": [
            {
                "children": [
                    {
                        "children": [
                            {
                                "children": [
                                    {
                                        "children": [],
                                        "depth": 2,
                                        "id": 2,
                                        "order": 2
                                    },
                                    {
                                        "children": [
                                            {
                                                "children": [],
                                                "depth": 3,
                                                "id": 4,
                                                "order": 4
                                            }
                                        ],
                                        "depth": 2,
                                        "id": 3,
                                        "order": 3
                                    },
                                    {
                                        "children": [],
                                        "depth": 2,
                                        "id": 5,
                                        "order": 5
                                    }
                                ],
                                "depth": 1,
                                "id": 1,
                                "order": 1
                            }
                        ],
                        "depth": 0,
                        "id": 0,
                        "order": 0
                    }
                ],
                "depth": -1,
                "id": -1,
                "order": -1
            }
        ],
        "tidyTraceNodeCount": 6
    },
    "state_change": {
        "stateChanges": [
            {
                "address": "0x514910771af9ca656af840dff83e8264ecf986ca",
                "erc": "",
                "slots": [
                    {
                        "current": "0x0000000000000000000000000000000000000000000000000000000000000000",
                        "key": "0x1d55f26ba0c89a35a0128caced3dc381bb7c2e39fa2c8fdd15f3cdc0288466b9",
                        "prev": "0x0000000000000000000000000000000000000000000000094378ae0edd6b8000"
                    },
                    {
                        "current": "0x00000000000000000000000000000000000000000000b6953c002c79f594f14f",
                        "key": "0xc2341155febc6dd1d8e6983b1ea41fa04309ddb7b566bf675330bef725760901",
                        "prev": "0x00000000000000000000000000000000000000000000b68bf8877e6b1829714f"
                    }
                ],
                "storageVariables": [
                    {
                        "name": "balances",
                        "type": "mapping(address => uint256)",
                        "value": {
                            "pairs": [
                                {
                                    "key": "0x2a549b4af9ec39b03142da6dc32221fc390b5533",
                                    "value": {
                                        "current": "862223588253802750603599",
                                        "prev": "862052705729962750603599",
                                        "typeTag": 1
                                    }
                                },
                                {
                                    "key": "0x926c5c0ecac7a1cb46970aac644c5185e6a61d6d",
                                    "value": {
                                        "current": "0",
                                        "prev": "170882523840000000000",
                                        "typeTag": 1
                                    }
                                }
                            ],
                            "typeTag": 4
                        }
                    }
                ]
            }
        ]
    }
}