{
    "balance_change": {
        "balanceChanges": []
    },
    "profile": {
        "basic_info": {
            "baseFee": "1.428758749",
            "blockNumber": 20555726,
            "callData": "0x095ea7b300000000000000000000000026f3f26f46cbee59d1f8860865e13aa39e36a8c0000000000000000000000000000000000000000000000061e1ddaeab79ceb9aa",
            "debugEnable": true,
            "errorInfo": "",
            "eventCount": 1,
            "feeRecipient": "0x4838b106fce9647bdf1e7877bf73ce8b0bad5f97",
            "formatValue": "0",
            "gasLimit": 46771,
            "gasPrice": "1.488758749",
            "gasUsed": 46388,
            "intTxnCount": 0,
            "internalRevert": false,
            "internalRevertMessage": "",
            "isContractCreation": false,
            "isFlashloan": false,
            "maxFee": "1.85",
            "nonce": 439,
            "overwritedBlockNumber": -1,
            "priorityFee": "0.06",
            "receiver": "0x808507121b80c02388fad14726482e061b8da827",
            "revertMessage": "",
            "sender": "0x22b5629ce137d9b714fd22fbaf19ccbf5f04e58e",
            "simulationEnable": true,
            "sourceTxnHash": "0xb4a0bc7da2f3b34e79ce7607d05c8fd28efa652299e10678e58dcfe06a619fc9",
            "status": true,
            "timestamp": "2024-08-18T13:11:11Z",
            "transactionFee": "0.000069060540848612",
            "txnHash": "0xb4a0bc7da2f3b34e79ce7607d05c8fd28efa652299e10678e58dcfe06a619fc9",
            "txnIndex": 148,
            "type": 2,
            "value": "0"
        },
        "fund_flow": [],
        "token_infos": [
            {
                "address": "0xc02aaa39b223fe8d0a0e5c4f27ead9083c756cc2",
                "decimals": 18
            },
            {
                "address": "0xeeeeeeeeeeeeeeeeeeeeeeeeeeeeeeeeeeeeeeee",
                "decimals": 18
            }
        ]
    },
    "address_label": {
        "labels": [
            {
                "address": "0x0000000000000000000000000000000000000002",
                "label": "Precompiled"
            },
            {
                "address": "0x0000000000000000000000000000000000000003",
                "label": "Precompiled"
            },
            {
                "address": "0x0000000000000000000000000000000000000004",
                "label": "Precompiled"
            },
            {
                "address": "0xeeeeeeeeeeeeeeeeeeeeeeeeeeeeeeeeeeeeeeee",
                "label": "Ether"
            },
            {
                "address": "0x26f3f26f46cbee59d1f8860865e13aa39e36a8c0",
                "label": "Curve.fi Factory Pool: sdPENDLE"
            },
            {
                "address": "0x808507121b80c02388fad14726482e061b8da827",
                "label": "Pendle: PENDLE Token"
            },
            {
                "address": "0x0000000000000000000000000000000000000001",
                "label": "Precompiled"
            }
        ]
    },
    "trace": {
        "accountLabels": null,
        "dataMap": {
            "-1": {
                "invocation": {
                    "address": "0x22b5629ce137d9b714fd22fbaf19ccbf5f04e58e",
                    "callData": "",
                    "decodedMethod": null,
                    "errorInfo": "",
                    "fromAddress": "",
                    "gasUsed": 0,
                    "id": -1,
                    "methodDecoded": false,
                    "operation": "",
                    "output": "",
                    "revert": false,
                    "revertMessage": "",
                    "selector": "",
                    "status": false,
                    "value": ""
                },
                "nodeType": 0
            },
            "0": {
                "invocation": {
                    "address": "0x808507121b80c02388fad14726482e061b8da827",
                    "callData": "0x00000000000000000000000026f3f26f46cbee59d1f8860865e13aa39e36a8c0000000000000000000000000000000000000000000000061e1ddaeab79ceb9aa",
                    "decodedMethod": {
                        "callParams": [
                            {
                                "name": "spender",
                                "type": "address",
                                "value": "0x26f3f26f46cbee59d1f8860865e13aa39e36a8c0"
                            },
                            {
                                "decimalAvailable": true,
                                "name": "amount",
                                "type": "uint256",
                                "value": "1,805,609,531,829,719,579,050"
                            }
                        ],
                        "constructorArguments": "",
                        "name": "approve",
                        "returnParams": [
                            {
                                "name": "",
                                "type": "bool",
                                "value": true
                            }
                        ],
                        "signature": "approve(address,uint256)"
                    },
                    "errorInfo": "",
                    "fromAddress": "0x22b5629ce137d9b714fd22fbaf19ccbf5f04e58e",
                    "gasUsed": 46388,
                    "id": 0,
                    "methodDecoded": true,
                    "operation": "CALL",
                    "output": "0x0000000000000000000000000000000000000000000000000000000000000001",
                    "revert": false,
                    "revertMessage": "",
                    "selector": "0x095ea7b3",
                    "status": true,
                    "value": "0"
                },
                "nodeType": 0
            },
            "1": {
                "event": {
                    "contract": "0x808507121b80c02388fad14726482e061b8da827",
                    "decodedLog": {
                        "name": "Approval",
                        "params": [
                            {
                                "name": "owner",
                                "type": "address",
                                "value": "0x22b5629ce137d9b714fd22fbaf19ccbf5f04e58e"
                            },
                            {
                                "name": "spender",
                                "type": "address",
                                "value": "0x26f3f26f46cbee59d1f8860865e13aa39e36a8c0"
                            },
                            {
                                "decimalAvailable": true,
                                "name": "value",
                                "type": "uint256",
                                "value": "1,805,609,531,829,719,579,050"
                            }
                        ],
                        "signature": "Approval(address,address,uint256)"
                    },
                    "id": 1,
                    "logData": "0x000000000000000000000000000000000000000000000061e1ddaeab79ceb9aa",
                    "logDecoded": true,
                    "operation": "EVENT",
                    "revert": false,
                    "status": true,
                    "topics": [
                        "0x8c5be1e5ebec7d5bd14f71427d1e84f3dd0314c0f7b2291e5b200ac8c7c3b925",
                        "0x00000000000000000000000022b5629ce137d9b714fd22fbaf19ccbf5f04e58e",
                        "0x00000000000000000000000026f3f26f46cbee59d1f8860865e13aa39e36a8c0"
                    ]
                },
                "nodeType": 1
            }
        },
        "gasFlame": [
            {
                "children": [
                    {
                        "children": [
                            {
                                "children": [],
                                "depth": 0,
                                "name": "Initial Gas",
                                "value": 21668
                            },
                            {
                                "children": [],
                                "depth": 0,
                                "name": "Executed Gas",
                                "value": 24720
                            }
                        ],
                        "depth": -1,
                        "name": "Actual Gas Used",
                        "value": 46388
                    },
                    {
                        "children": [],
                        "depth": -1,
                        "name": "Refunded Gas",
                        "value": 0
                    }
                ],
                "depth": -2,
                "name": "Total Gas",
                "value": 46388
            }
        ],
        "isConfirmed": true,
        "mainTrace": [
            {
                "children": [
                    {
                        "children": [
                            {
                                "children": [],
                                "depth": 1,
                                "id": 1,
                                "order": 1
                            }
                        ],
                        "depth": 0,
                        "id": 0,
                        "order": 0
                    }
                ],
                "depth": -1,
                "id": -1,
                "order": -1
            }
        ],
        "mainTraceNodeCount": 2,
        "parentIdMap": {
            "0": -1,
            "1": 0
        },
        "tidyTrace": [
            {
                "children": [
                    {
                        "children": [
                            {
                                "children": [],
                                "depth": 1,
                                "id": 1,
                                "order": 1
                            }
                        ],
                        "depth": 0,
                        "id": 0,
                        "order": 0
                    }
                ],
                "depth": -1,
                "id": -1,
                "order": -1
            }
        ],
        "tidyTraceNodeCount": 2
    },
    "state_change": {
        "stateChanges": [
            {
                "address": "0x808507121b80c02388fad14726482e061b8da827",
                "erc": "ERC-20",
                "slots": [
                    {
                        "current": "0x000000000000000000000000000000000000000000000061e1ddaeab79ceb9aa",
                        "key": "0x8d2d286b50a38925fd043700dd9ff998ba473a2372932d8bc7a2631478e59ec1",
                        "prev": "0x0000000000000000000000000000000000000000000000000000000000000000"
                    }
                ],
                "storageVariables": [
                    {
                        "name": "allowances",
                        "type": "mapping(address => mapping(address => uint256))",
                        "value": {
                            "pairs": [
                                {
                                    "key": "0x22b5629ce137d9b714fd22fbaf19ccbf5f04e58e",
                                    "value": {
                                        "pairs": [
                                            {
                                                "key": "0x26f3f26f46cbee59d1f8860865e13aa39e36a8c0",
                                                "value": {
                                                    "current": "1805609531829719579050",
                                                    "prev": "0",
                                                    "typeTag": 1
                                                }
                                            }
                                        ],
                                        "typeTag": 4
                                    }
                                }
                            ],
                            "typeTag": 4
                        }
                    }
                ]
            }
        ]
    }
}