{
    "balance_change": {
        "balanceChanges": [
            {
                "account": "0x75186ece18d7051afb9c1aee85170c0deda23d82",
                "assets": [
                    {
                        "address": "0xcb97e65f07da24d46bcdd078ebebd7c6e6e3d750",
                        "amount": "10,017.967",
                        "iconUrl": "https://assets.blocksec.com/icon/0ce7d458db0511a7b405913d692a6e8c0dc00bde394b216b07e59f39b7da53ae.png",
                        "isERC1155": false,
                        "isERC721": false,
                        "sign": false,
                        "value": ""
                    }
                ]
            },
            {
                "account": "0xebd4c0a5daa750c728269945742eac4dba9be803",
                "assets": [
                    {
                        "address": "0xcb97e65f07da24d46bcdd078ebebd7c6e6e3d750",
                        "amount": "10,017.967",
                        "iconUrl": "https://assets.blocksec.com/icon/0ce7d458db0511a7b405913d692a6e8c0dc00bde394b216b07e59f39b7da53ae.png",
                        "isERC1155": false,
                        "isERC721": false,
                        "sign": true,
                        "value": ""
                    }
                ]
            }
        ]
    },
    "profile": {
        "basic_info": {
            "baseFee": "",
            "blockNumber": 4218469,
            "callData": "0xa9059cbb000000000000000000000000ebd4c0a5daa750c728269945742eac4dba9be803000000000000000000000000000000000000000000000000000000e93fbc8760",
            "debugEnable": true,
            "errorInfo": "",
            "eventCount": 1,
            "feeRecipient": "0x829bd824b016326a401d083b33d092293333a830",
            "formatValue": "0",
            "gasLimit": 51411,
            "gasPrice": "50",
            "gasUsed": 36411,
            "intTxnCount": 0,
            "internalRevert": false,
            "internalRevertMessage": "",
            "isContractCreation": false,
            "isFlashloan": false,
            "maxFee": "",
            "nonce": 45,
            "overwritedBlockNumber": -1,
            "priorityFee": "",
            "receiver": "0xcb97e65f07da24d46bcdd078ebebd7c6e6e3d750",
            "revertMessage": "",
            "sender": "0x75186ece18d7051afb9c1aee85170c0deda23d82",
            "simulationEnable": true,
            "sourceTxnHash": "0xb4b9f8bc651185aa1c0325e74866331780e4c4c6bf9d2825fcdf8a8f3f80fde4",
            "status": true,
            "timestamp": "2017-08-30T02:49:56Z",
            "transactionFee": "0.00182055",
            "txnHash": "0xb4b9f8bc651185aa1c0325e74866331780e4c4c6bf9d2825fcdf8a8f3f80fde4",
            "txnIndex": 3,
            "type": 0,
            "value": "0"
        },
        "fund_flow": [
            {
                "amount": "10,017.967",
                "from": "0x75186ece18d7051afb9c1aee85170c0deda23d82",
                "id": 1,
                "isERC1155": false,
                "isERC721": false,
                "isReverted": false,
                "order": 1,
                "to": "0xebd4c0a5daa750c728269945742eac4dba9be803",
                "token": "0xcb97e65f07da24d46bcdd078ebebd7c6e6e3d750"
            }
        ],
        "token_infos": [
            {
                "address": "0xc02aaa39b223fe8d0a0e5c4f27ead9083c756cc2",
                "decimals": 18
            },
            {
                "address": "0xcb97e65f07da24d46bcdd078ebebd7c6e6e3d750",
                "decimals": 8
            },
            {
                "address": "0xeeeeeeeeeeeeeeeeeeeeeeeeeeeeeeeeeeeeeeee",
                "decimals": 18
            }
        ]
    },
    "address_label": {
        "labels": [
            {
                "address": "0x0000000000000000000000000000000000000002",
                "label": "Precompiled"
            },
            {
                "address": "0x0000000000000000000000000000000000000003",
                "label": "Precompiled"
            },
            {
                "address": "0x0000000000000000000000000000000000000004",
                "label": "Precompiled"
            },
            {
                "address": "0xeeeeeeeeeeeeeeeeeeeeeeeeeeeeeeeeeeeeeeee",
                "label": "Ether"
            },
            {
                "address": "0xebd4c0a5daa750c728269945742eac4dba9be803",
                "label": "BINANCE"
            },
            {
                "address": "0xcb97e65f07da24d46bcdd078ebebd7c6e6e3d750",
                "label": "Bytom: Old Token"
            },
            {
                "address": "0x0000000000000000000000000000000000000001",
                "label": "Precompiled"
            }
        ]
    },
    "trace": {
        "accountLabels": null,
        "dataMap": {
            "-1": {
                "invocation": {
                    "address": "0x75186ece18d7051afb9c1aee85170c0deda23d82",
                    "callData": "",
                    "decodedMethod": null,
                    "errorInfo": "",
                    "fromAddress": "",
                    "gasUsed": 0,
                    "id": -1,
                    "methodDecoded": false,
                    "operation": "",
                    "output": "",
                    "revert": false,
                    "revertMessage": "",
                    "selector": "",
                    "status": false,
                    "value": ""
                },
                "nodeType": 0
            },
            "0": {
                "invocation": {
                    "address": "0xcb97e65f07da24d46bcdd078ebebd7c6e6e3d750",
                    "callData": "0x000000000000000000000000ebd4c0a5daa750c728269945742eac4dba9be803000000000000000000000000000000000000000000000000000000e93fbc8760",
                    "decodedMethod": {
                        "callParams": [
                            {
                                "name": "_to",
                                "type": "address",
                                "value": "0xebd4c0a5daa750c728269945742eac4dba9be803"
                            },
                            {
                                "decimalAvailable": true,
                                "name": "_value",
                                "type": "uint256",
                                "value": "1,001,796,700,000"
                            }
                        ],
                        "constructorArguments": "",
                        "name": "transfer",
                        "returnParams": [
                            {
                                "name": "success",
                                "type": "bool",
                                "value": true
                            }
                        ],
                        "signature": "transfer(address,uint256)"
                    },
                    "errorInfo": "",
                    "fromAddress": "0x75186ece18d7051afb9c1aee85170c0deda23d82",
                    "gasUsed": 36411,
                    "id": 0,
                    "methodDecoded": true,
                    "operation": "CALL",
                    "output": "0x0000000000000000000000000000000000000000000000000000000000000001",
                    "revert": false,
                    "revertMessage": "",
                    "selector": "0xa9059cbb",
                    "status": true,
                    "value": "0"
                },
                "nodeType": 0
            },
            "1": {
                "event": {
                    "contract": "0xcb97e65f07da24d46bcdd078ebebd7c6e6e3d750",
                    "decodedLog": {
                        "name": "Transfer",
                        "params": [
                            {
                                "name": "_from",
                                "type": "address",
                                "value": "0x75186ece18d7051afb9c1aee85170c0deda23d82"
                            },
                            {
                                "name": "_to",
                                "type": "address",
                                "value": "0xebd4c0a5daa750c728269945742eac4dba9be803"
                            },
                            {
                                "decimalAvailable": true,
                                "name": "_value",
                                "type": "uint256",
                                "value": "1,001,796,700,000"
                            }
                        ],
                        "signature": "Transfer(address,address,uint256)"
                    },
                    "id": 1,
                    "logData": "0x000000000000000000000000000000000000000000000000000000e93fbc8760",
                    "logDecoded": true,
                    "operation": "EVENT",
                    "revert": false,
                    "status": true,
                    "topics": [
                        "0xddf252ad1be2c89b69c2b068fc378daa952ba7f163c4a11628f55a4df523b3ef",
                        "0x00000000000000000000000075186ece18d7051afb9c1aee85170c0deda23d82",
                        "0x000000000000000000000000ebd4c0a5daa750c728269945742eac4dba9be803"
                    ]
                },
                "nodeType": 1
            }
        },
        "gasFlame": [
            {
                "children": [
                    {
                        "children": [
                            {
                                "children": [],
                                "depth": 0,
                                "name": "Initial Gas",
                                "value": 23128
                            },
                            {
                                "children": [],
                                "depth": 0,
                                "name": "Executed Gas",
                                "value": 28283
                            }
                        ],
                        "depth": -1,
                        "name": "Actual Gas Used",
                        "value": 36411
                    },
                    {
                        "children": [],
                        "depth": -1,
                        "name": "Refunded Gas",
                        "value": 15000
                    }
                ],
                "depth": -2,
                "name": "Total Gas",
                "value": 51411
            }
        ],
        "isConfirmed": true,
        "mainTrace": [
            {
                "children": [
                    {
                        "children": [
                            {
                                "children": [],
                                "depth": 1,
                                "id": 1,
                                "order": 1
                            }
                        ],
                        "depth": 0,
                        "id": 0,
                        "order": 0
                    }
                ],
                "depth": -1,
                "id": -1,
                "order": -1
            }
        ],
        "mainTraceNodeCount": 2,
        "parentIdMap": {
            "0": -1,
            "1": 0
        },
        "tidyTrace": [
            {
                "children": [
                    {
                        "children": [
                            {
                                "children": [],
                                "depth": 1,
                                "id": 1,
                                "order": 1
                            }
                        ],
                        "depth": 0,
                        "id": 0,
                        "order": 0
                    }
                ],
                "depth": -1,
                "id": -1,
                "order": -1
            }
        ],
        "tidyTraceNodeCount": 2
    },
    "state_change": {
        "stateChanges": [
            {
                "address": "0xcb97e65f07da24d46bcdd078ebebd7c6e6e3d750",
                "erc": "ERC-20",
                "slots": [
                    {
                        "current": "0x0000000000000000000000000000000000000000000000000000000000000000",
                        "key": "0x1ea1cdfe18ad56e9c5c10677870f533057bc2756282535b1ef7c3f0015ae91a8",
                        "prev": "0x000000000000000000000000000000000000000000000000000000e93fbc8760"
                    },
                    {
                        "current": "0x000000000000000000000000000000000000000000000000000000e93fbc8760",
                        "key": "0x7beffc3cd1bc27847bb68622e6611a1ef0b1c99c973d7dbded3aa5f3cb60bad9",
                        "prev": "0x0000000000000000000000000000000000000000000000000000000000000000"
                    }
                ],
                "storageVariables": [
                    {
                        "name": "balances",
                        "type": "mapping(address => uint256)",
                        "value": {
                            "pairs": [
                                {
                                    "key": "0x75186ece18d7051afb9c1aee85170c0deda23d82",
                                    "value": {
                                        "current": "0",
                                        "prev": "1001796700000",
                                        "typeTag": 1
                                    }
                                },
                                {
                                    "key": "0xebd4c0a5daa750c728269945742eac4dba9be803",
                                    "value": {
                                        "current": "1001796700000",
                                        "prev": "0",
                                        "typeTag": 1
                                    }
                                }
                            ],
                            "typeTag": 4
                        }
                    }
                ]
            }
        ]
    }
}