{
    "balance_change": {
        "balanceChanges": []
    },
    "profile": {
        "basic_info": {
            "baseFee": "",
            "blockNumber": 4769785,
            "callData": "0x20987e64000000000000000000000000fcfc2bc20b5cfdb05afb434bc0088453ba7ff09100000000000000000000000000000000000000000000000000c74d5ed159ac00",
            "debugEnable": true,
            "errorInfo": "",
            "eventCount": 0,
            "feeRecipient": "0xea674fdde714fd979de3edf0f56aa9716b898ec8",
            "formatValue": "0",
            "gasLimit": 120123,
            "gasPrice": "60",
            "gasUsed": 80057,
            "intTxnCount": 4,
            "internalRevert": false,
            "internalRevertMessage": "",
            "isContractCreation": false,
            "isFlashloan": false,
            "maxFee": "",
            "nonce": 2296,
            "overwritedBlockNumber": -1,
            "priorityFee": "",
            "receiver": "0xb734c74ff4087493373a27834074f80acbd32827",
            "revertMessage": "",
            "sender": "0xed2f1401f8994d3ff2b2a923e743c24c2914ab4f",
            "simulationEnable": true,
            "sourceTxnHash": "0xb5e3884022fac9c9c82f3e05e9af6d659f5d61077222a5f0748491d8898694f4",
            "status": true,
            "timestamp": "2017-12-21T06:47:07Z",
            "transactionFee": "0.00480342",
            "txnHash": "0xb5e3884022fac9c9c82f3e05e9af6d659f5d61077222a5f0748491d8898694f4",
            "txnIndex": 23,
            "type": 0,
            "value": "0"
        },
        "fund_flow": [],
        "token_infos": [
            {
                "address": "0xeeeeeeeeeeeeeeeeeeeeeeeeeeeeeeeeeeeeeeee",
                "decimals": 18
            },
            {
                "address": "0xc02aaa39b223fe8d0a0e5c4f27ead9083c756cc2",
                "decimals": 18
            }
        ]
    },
    "address_label": {
        "labels": [
            {
                "address": "0x0000000000000000000000000000000000000003",
                "label": "Precompiled"
            },
            {
                "address": "0x0000000000000000000000000000000000000004",
                "label": "Precompiled"
            },
            {
                "address": "0xeeeeeeeeeeeeeeeeeeeeeeeeeeeeeeeeeeeeeeee",
                "label": "Ether"
            },
            {
                "address": "0x9e8fab94cada52a584ec6f10042c3bb165e79114",
                "label": "Wallet"
            },
            {
                "address": "0xb734c74ff4087493373a27834074f80acbd32827",
                "label": "Fund"
            },
            {
                "address": "0x739c71235a9669f6b900490ab1c95310c19abc71",
                "label": "TKN"
            },
            {
                "address": "0x0000000000000000000000000000000000000001",
                "label": "Precompiled"
            },
            {
                "address": "0x0000000000000000000000000000000000000002",
                "label": "Precompiled"
            }
        ]
    },
    "trace": {
        "accountLabels": null,
        "dataMap": {
            "-1": {
                "invocation": {
                    "address": "0xed2f1401f8994d3ff2b2a923e743c24c2914ab4f",
                    "callData": "",
                    "decodedMethod": null,
                    "errorInfo": "",
                    "fromAddress": "",
                    "gasUsed": 0,
                    "id": -1,
                    "methodDecoded": false,
                    "operation": "",
                    "output": "",
                    "revert": false,
                    "revertMessage": "",
                    "selector": "",
                    "status": false,
                    "value": ""
                },
                "nodeType": 0
            },
            "0": {
                "invocation": {
                    "address": "0xb734c74ff4087493373a27834074f80acbd32827",
                    "callData": "0x000000000000000000000000fcfc2bc20b5cfdb05afb434bc0088453ba7ff09100000000000000000000000000000000000000000000000000c74d5ed159ac00",
                    "decodedMethod": {
                        "callParams": [
                            {
                                "name": "beneficiary",
                                "type": "address",
                                "value": "0xfcfc2bc20b5cfdb05afb434bc0088453ba7ff091"
                            },
                            {
                                "name": "valueInWei",
                                "type": "uint256",
                                "value": "56,098,590,000,000,000"
                            }
                        ],
                        "constructorArguments": "",
                        "name": "addInvestment",
                        "returnParams": [
                            {
                                "name": "",
                                "type": "bool",
                                "value": true
                            }
                        ],
                        "signature": "addInvestment(address,uint256)"
                    },
                    "errorInfo": "",
                    "fromAddress": "0xed2f1401f8994d3ff2b2a923e743c24c2914ab4f",
                    "gasUsed": 80057,
                    "id": 0,
                    "methodDecoded": true,
                    "operation": "CALL",
                    "output": "0x0000000000000000000000000000000000000000000000000000000000000001",
                    "revert": false,
                    "revertMessage": "",
                    "selector": "0x20987e64",
                    "status": true,
                    "value": "0"
                },
                "nodeType": 0
            },
            "1": {
                "invocation": {
                    "address": "0x739c71235a9669f6b900490ab1c95310c19abc71",
                    "callData": "0x0000000000000000000000009acf50ab22004cf09b2461c71447f1d776188fa80000000000000000000000000000000000000000000000000000000000054e9d",
                    "decodedMethod": {
                        "callParams": [
                            {
                                "name": "_for",
                                "type": "address",
                                "value": "0x9acf50ab22004cf09b2461c71447f1d776188fa8"
                            },
                            {
                                "name": "tokenCount",
                                "type": "uint256",
                                "value": "347,805"
                            }
                        ],
                        "constructorArguments": "",
                        "name": "issueTokens",
                        "returnParams": [
                            {
                                "name": "",
                                "type": "bool",
                                "value": true
                            }
                        ],
                        "signature": "issueTokens(address,uint256)"
                    },
                    "errorInfo": "",
                    "fromAddress": "0xb734c74ff4087493373a27834074f80acbd32827",
                    "gasUsed": 11707,
                    "id": 1,
                    "methodDecoded": true,
                    "operation": "CALL",
                    "output": "0x0000000000000000000000000000000000000000000000000000000000000001",
                    "revert": false,
                    "revertMessage": "",
                    "selector": "0x475a9fa9",
                    "status": true,
                    "value": "0"
                },
                "nodeType": 0
            },
            "2": {
                "invocation": {
                    "address": "0x739c71235a9669f6b900490ab1c95310c19abc71",
                    "callData": "0x0000000000000000000000009e8fab94cada52a584ec6f10042c3bb165e791140000000000000000000000000000000000000000000000000000000000054e9d",
                    "decodedMethod": {
                        "callParams": [
                            {
                                "name": "_for",
                                "type": "address",
                                "value": "0x9e8fab94cada52a584ec6f10042c3bb165e79114"
                            },
                            {
                                "name": "tokenCount",
                                "type": "uint256",
                                "value": "347,805"
                            }
                        ],
                        "constructorArguments": "",
                        "name": "issueTokens",
                        "returnParams": [
                            {
                                "name": "",
                                "type": "bool",
                                "value": true
                            }
                        ],
                        "signature": "issueTokens(address,uint256)"
                    },
                    "errorInfo": "",
                    "fromAddress": "0xb734c74ff4087493373a27834074f80acbd32827",
                    "gasUsed": 11707,
                    "id": 2,
                    "methodDecoded": true,
                    "operation": "CALL",
                    "output": "0x0000000000000000000000000000000000000000000000000000000000000001",
                    "revert": false,
                    "revertMessage": "",
                    "selector": "0x475a9fa9",
                    "status": true,
                    "value": "0"
                },
                "nodeType": 0
            },
            "3": {
                "invocation": {
                    "address": "0x739c71235a9669f6b900490ab1c95310c19abc71",
                    "callData": "0x0000000000000000000000009acf50ab22004cf09b2461c71447f1d776188fa800000000000000000000000000000000000000000000000000000000000febd7",
                    "decodedMethod": {
                        "callParams": [
                            {
                                "name": "_for",
                                "type": "address",
                                "value": "0x9acf50ab22004cf09b2461c71447f1d776188fa8"
                            },
                            {
                                "name": "tokenCount",
                                "type": "uint256",
                                "value": "1,043,415"
                            }
                        ],
                        "constructorArguments": "",
                        "name": "issueTokens",
                        "returnParams": [
                            {
                                "name": "",
                                "type": "bool",
                                "value": true
                            }
                        ],
                        "signature": "issueTokens(address,uint256)"
                    },
                    "errorInfo": "",
                    "fromAddress": "0xb734c74ff4087493373a27834074f80acbd32827",
                    "gasUsed": 11707,
                    "id": 3,
                    "methodDecoded": true,
                    "operation": "CALL",
                    "output": "0x0000000000000000000000000000000000000000000000000000000000000001",
                    "revert": false,
                    "revertMessage": "",
                    "selector": "0x475a9fa9",
                    "status": true,
                    "value": "0"
                },
                "nodeType": 0
            },
            "4": {
                "invocation": {
                    "address": "0x739c71235a9669f6b900490ab1c95310c19abc71",
                    "callData": "0x000000000000000000000000fcfc2bc20b5cfdb05afb434bc0088453ba7ff0910000000000000000000000000000000000000000000000000000000001f82c73",
                    "decodedMethod": {
                        "callParams": [
                            {
                                "name": "_for",
                                "type": "address",
                                "value": "0xfcfc2bc20b5cfdb05afb434bc0088453ba7ff091"
                            },
                            {
                                "name": "tokenCount",
                                "type": "uint256",
                                "value": "33,041,523"
                            }
                        ],
                        "constructorArguments": "",
                        "name": "issueTokens",
                        "returnParams": [
                            {
                                "name": "",
                                "type": "bool",
                                "value": true
                            }
                        ],
                        "signature": "issueTokens(address,uint256)"
                    },
                    "errorInfo": "",
                    "fromAddress": "0xb734c74ff4087493373a27834074f80acbd32827",
                    "gasUsed": 11707,
                    "id": 4,
                    "methodDecoded": true,
                    "operation": "CALL",
                    "output": "0x0000000000000000000000000000000000000000000000000000000000000001",
                    "revert": false,
                    "revertMessage": "",
                    "selector": "0x475a9fa9",
                    "status": true,
                    "value": "0"
                },
                "nodeType": 0
            }
        },
        "gasFlame": [
            {
                "children": [
                    {
                        "children": [
                            {
                                "children": [],
                                "depth": 0,
                                "name": "Initial Gas",
                                "value": 23192
                            },
                            {
                                "children": [
                                    {
                                        "children": [],
                                        "depth": 1,
                                        "name": "issueTokens",
                                        "value": 11707
                                    },
                                    {
                                        "children": [],
                                        "depth": 1,
                                        "name": "issueTokens",
                                        "value": 11707
                                    },
                                    {
                                        "children": [],
                                        "depth": 1,
                                        "name": "issueTokens",
                                        "value": 11707
                                    },
                                    {
                                        "children": [],
                                        "depth": 1,
                                        "name": "issueTokens",
                                        "value": 11707
                                    }
                                ],
                                "depth": 0,
                                "name": "Executed Gas",
                                "value": 56865
                            }
                        ],
                        "depth": -1,
                        "name": "Actual Gas Used",
                        "value": 80057
                    },
                    {
                        "children": [],
                        "depth": -1,
                        "name": "Refunded Gas",
                        "value": 0
                    }
                ],
                "depth": -2,
                "name": "Total Gas",
                "value": 80057
            }
        ],
        "isConfirmed": true,
        "mainTrace": [
            {
                "children": [
                    {
                        "children": [
                            {
                                "children": [],
                                "depth": 1,
                                "id": 1,
                                "order": 1
                            },
                            {
                                "children": [],
                                "depth": 1,
                                "id": 2,
                                "order": 2
                            },
                            {
                                "children": [],
                                "depth": 1,
                                "id": 3,
                                "order": 3
                            },
                            {
                                "children": [],
                                "depth": 1,
                                "id": 4,
                                "order": 4
                            }
                        ],
                        "depth": 0,
                        "id": 0,
                        "order": 0
                    }
                ],
                "depth": -1,
                "id": -1,
                "order": -1
            }
        ],
        "mainTraceNodeCount": 5,
        "parentIdMap": {
            "0": -1,
            "1": 0,
            "2": 0,
            "3": 0,
            "4": 0
        },
        "tidyTrace": [
            {
                "children": [
                    {
                        "children": [
                            {
                                "children": [],
                                "depth": 1,
                                "id": 1,
                                "order": 1
                            },
                            {
                                "children": [],
                                "depth": 1,
                                "id": 2,
                                "order": 2
                            },
                            {
                                "children": [],
                                "depth": 1,
                                "id": 3,
                                "order": 3
                            },
                            {
                                "children": [],
                                "depth": 1,
                                "id": 4,
                                "order": 4
                            }
                        ],
                        "depth": 0,
                        "id": 0,
                        "order": 0
                    }
                ],
                "depth": -1,
                "id": -1,
                "order": -1
            }
        ],
        "tidyTraceNodeCount": 5
    },
    "state_change": {
        "stateChanges": [
            {
                "address": "0x739c71235a9669f6b900490ab1c95310c19abc71",
                "erc": "ERC-20",
                "slots": [
                    {
                        "current": "0x000000000000000000000000000000000000000000000000000002cb675f856a",
                        "key": "0x0000000000000000000000000000000000000000000000000000000000000002",
                        "prev": "0x000000000000000000000000000000000000000000000000000002cb654ccfe6"
                    },
                    {
                        "current": "0x000000000000000000000000000000000000000000000000000000158b5e2d1a",
                        "key": "0x0bcbbeaa22359557eea170709ce3aa4f8eae0b08ffe07057de5ba95d8129fcc6",
                        "prev": "0x000000000000000000000000000000000000000000000000000000158b58de7d"
                    },
                    {
                        "current": "0x000000000000000000000000000000000000000000000000000000012850f5e4",
                        "key": "0x43096e415ca28790b61bddfb46529a848a8f70177160f8d8dfd25512e393b782",
                        "prev": "0x000000000000000000000000000000000000000000000000000000012658c971"
                    },
                    {
                        "current": "0x00000000000000000000000000000000000000000000000000000040d3cf950e",
                        "key": "0xc06e6a9754fa48d3cd3eb2e1b84aafdb5ed3953e4aa96276abbb9920a2f413b5",
                        "prev": "0x00000000000000000000000000000000000000000000000000000040d3ba5a9a"
                    }
                ],
                "storageVariables": []
            }
        ]
    }
}