{
    "balance_change": {
        "balanceChanges": [
            {
                "account": "0x31dfbedfdb712da29db8d98f7f20afa7b7f801e8",
                "assets": [
                    {
                        "address": "0x26eb39228eb4bb98c84ad821bb51464121b2276d",
                        "amount": "50",
                        "iconUrl": "",
                        "isERC1155": false,
                        "isERC721": false,
                        "sign": false,
                        "value": ""
                    }
                ]
            },
            {
                "account": "0xd3f65229882579c9e2ecabbc8761e40e29d54428",
                "assets": [
                    {
                        "address": "0x26eb39228eb4bb98c84ad821bb51464121b2276d",
                        "amount": "50",
                        "iconUrl": "",
                        "isERC1155": false,
                        "isERC721": false,
                        "sign": true,
                        "value": ""
                    }
                ]
            }
        ]
    },
    "profile": {
        "basic_info": {
            "baseFee": "",
            "blockNumber": 6567575,
            "callData": "0xa9059cbb000000000000000000000000d3f65229882579c9e2ecabbc8761e40e29d54428000000000000000000000000000000000000000000000000000000000007a120",
            "debugEnable": true,
            "errorInfo": "",
            "eventCount": 1,
            "feeRecipient": "0x5a0b54d5dc17e0aadc383d2db43b0a0d3e029c4c",
            "formatValue": "0",
            "gasLimit": 4300000,
            "gasPrice": "11",
            "gasUsed": 51697,
            "intTxnCount": 0,
            "internalRevert": false,
            "internalRevertMessage": "",
            "isContractCreation": false,
            "isFlashloan": false,
            "maxFee": "",
            "nonce": 6381,
            "overwritedBlockNumber": -1,
            "priorityFee": "",
            "receiver": "0x26eb39228eb4bb98c84ad821bb51464121b2276d",
            "revertMessage": "",
            "sender": "0x31dfbedfdb712da29db8d98f7f20afa7b7f801e8",
            "simulationEnable": true,
            "sourceTxnHash": "0xb57df2fb9c786399b03fe27dd4b862fb80d2e60887aad3877b3c50171bc31e5b",
            "status": true,
            "timestamp": "2018-10-23T08:21:50Z",
            "transactionFee": "0.000568667",
            "txnHash": "0xb57df2fb9c786399b03fe27dd4b862fb80d2e60887aad3877b3c50171bc31e5b",
            "txnIndex": 66,
            "type": 0,
            "value": "0"
        },
        "fund_flow": [
            {
                "amount": "50",
                "from": "0x31dfbedfdb712da29db8d98f7f20afa7b7f801e8",
                "id": 1,
                "isERC1155": false,
                "isERC721": false,
                "isReverted": false,
                "order": 1,
                "to": "0xd3f65229882579c9e2ecabbc8761e40e29d54428",
                "token": "0x26eb39228eb4bb98c84ad821bb51464121b2276d"
            }
        ],
        "token_infos": [
            {
                "address": "0xc02aaa39b223fe8d0a0e5c4f27ead9083c756cc2",
                "decimals": 18
            },
            {
                "address": "0xeeeeeeeeeeeeeeeeeeeeeeeeeeeeeeeeeeeeeeee",
                "decimals": 18
            },
            {
                "address": "0x26eb39228eb4bb98c84ad821bb51464121b2276d",
                "decimals": 4
            }
        ]
    },
    "address_label": {
        "labels": [
            {
                "address": "0xeeeeeeeeeeeeeeeeeeeeeeeeeeeeeeeeeeeeeeee",
                "label": "Ether"
            },
            {
                "address": "0x26eb39228eb4bb98c84ad821bb51464121b2276d",
                "label": "eNAU (ENAU)"
            },
            {
                "address": "0x0000000000000000000000000000000000000001",
                "label": "Precompiled"
            },
            {
                "address": "0x0000000000000000000000000000000000000002",
                "label": "Precompiled"
            },
            {
                "address": "0x0000000000000000000000000000000000000003",
                "label": "Precompiled"
            },
            {
                "address": "0x0000000000000000000000000000000000000004",
                "label": "Precompiled"
            }
        ]
    },
    "trace": {
        "accountLabels": null,
        "dataMap": {
            "-1": {
                "invocation": {
                    "address": "0x31dfbedfdb712da29db8d98f7f20afa7b7f801e8",
                    "callData": "",
                    "decodedMethod": null,
                    "errorInfo": "",
                    "fromAddress": "",
                    "gasUsed": 0,
                    "id": -1,
                    "methodDecoded": false,
                    "operation": "",
                    "output": "",
                    "revert": false,
                    "revertMessage": "",
                    "selector": "",
                    "status": false,
                    "value": ""
                },
                "nodeType": 0
            },
            "0": {
                "invocation": {
                    "address": "0x26eb39228eb4bb98c84ad821bb51464121b2276d",
                    "callData": "0x000000000000000000000000d3f65229882579c9e2ecabbc8761e40e29d54428000000000000000000000000000000000000000000000000000000000007a120",
                    "decodedMethod": {
                        "callParams": [
                            {
                                "name": "_to",
                                "type": "address",
                                "value": "0xd3f65229882579c9e2ecabbc8761e40e29d54428"
                            },
                            {
                                "decimalAvailable": true,
                                "name": "_value",
                                "type": "uint256",
                                "value": "500,000"
                            }
                        ],
                        "constructorArguments": "",
                        "name": "transfer",
                        "returnParams": [
                            {
                                "name": "success",
                                "type": "bool",
                                "value": true
                            }
                        ],
                        "signature": "transfer(address,uint256)"
                    },
                    "errorInfo": "",
                    "fromAddress": "0x31dfbedfdb712da29db8d98f7f20afa7b7f801e8",
                    "gasUsed": 51697,
                    "id": 0,
                    "methodDecoded": true,
                    "operation": "CALL",
                    "output": "0x0000000000000000000000000000000000000000000000000000000000000001",
                    "revert": false,
                    "revertMessage": "",
                    "selector": "0xa9059cbb",
                    "status": true,
                    "value": "0"
                },
                "nodeType": 0
            },
            "1": {
                "event": {
                    "contract": "0x26eb39228eb4bb98c84ad821bb51464121b2276d",
                    "decodedLog": {
                        "name": "Transfer",
                        "params": [
                            {
                                "name": "_from",
                                "type": "address",
                                "value": "0x31dfbedfdb712da29db8d98f7f20afa7b7f801e8"
                            },
                            {
                                "name": "_to",
                                "type": "address",
                                "value": "0xd3f65229882579c9e2ecabbc8761e40e29d54428"
                            },
                            {
                                "decimalAvailable": true,
                                "name": "_value",
                                "type": "uint256",
                                "value": "500,000"
                            }
                        ],
                        "signature": "Transfer(address,address,uint256)"
                    },
                    "id": 1,
                    "logData": "0x000000000000000000000000000000000000000000000000000000000007a120",
                    "logDecoded": true,
                    "operation": "EVENT",
                    "revert": false,
                    "status": true,
                    "topics": [
                        "0xddf252ad1be2c89b69c2b068fc378daa952ba7f163c4a11628f55a4df523b3ef",
                        "0x00000000000000000000000031dfbedfdb712da29db8d98f7f20afa7b7f801e8",
                        "0x000000000000000000000000d3f65229882579c9e2ecabbc8761e40e29d54428"
                    ]
                },
                "nodeType": 1
            }
        },
        "gasFlame": [
            {
                "children": [
                    {
                        "children": [
                            {
                                "children": [],
                                "depth": 0,
                                "name": "Initial Gas",
                                "value": 23000
                            },
                            {
                                "children": [],
                                "depth": 0,
                                "name": "Executed Gas",
                                "value": 28697
                            }
                        ],
                        "depth": -1,
                        "name": "Actual Gas Used",
                        "value": 51697
                    },
                    {
                        "children": [],
                        "depth": -1,
                        "name": "Refunded Gas",
                        "value": 0
                    }
                ],
                "depth": -2,
                "name": "Total Gas",
                "value": 51697
            }
        ],
        "isConfirmed": true,
        "mainTrace": [
            {
                "children": [
                    {
                        "children": [
                            {
                                "children": [],
                                "depth": 1,
                                "id": 1,
                                "order": 1
                            }
                        ],
                        "depth": 0,
                        "id": 0,
                        "order": 0
                    }
                ],
                "depth": -1,
                "id": -1,
                "order": -1
            }
        ],
        "mainTraceNodeCount": 2,
        "parentIdMap": {
            "0": -1,
            "1": 0
        },
        "tidyTrace": [
            {
                "children": [
                    {
                        "children": [
                            {
                                "children": [],
                                "depth": 1,
                                "id": 1,
                                "order": 1
                            }
                        ],
                        "depth": 0,
                        "id": 0,
                        "order": 0
                    }
                ],
                "depth": -1,
                "id": -1,
                "order": -1
            }
        ],
        "tidyTraceNodeCount": 2
    },
    "state_change": {
        "stateChanges": [
            {
                "address": "0x26eb39228eb4bb98c84ad821bb51464121b2276d",
                "erc": "ERC-20",
                "slots": [
                    {
                        "current": "0x00000000000000000000000000000000000000000000000000000005f1f32947",
                        "key": "0xc37fa06afd3d330cdce6de1761e6581ae178a39409a77b7c8e639fc632bfb679",
                        "prev": "0x00000000000000000000000000000000000000000000000000000005f1faca67"
                    },
                    {
                        "current": "0x000000000000000000000000000000000000000000000000000000000007a120",
                        "key": "0xbb6654ebe5cd3da5bf8d9f7830ee0cab77db4fbe48f503144983d06a940444fb",
                        "prev": "0x0000000000000000000000000000000000000000000000000000000000000000"
                    }
                ],
                "storageVariables": [
                    {
                        "name": "balances",
                        "type": "mapping(address => uint256)",
                        "value": {
                            "pairs": [
                                {
                                    "key": "0x31dfbedfdb712da29db8d98f7f20afa7b7f801e8",
                                    "value": {
                                        "current": "25534081351",
                                        "prev": "25534581351",
                                        "typeTag": 1
                                    }
                                },
                                {
                                    "key": "0xd3f65229882579c9e2ecabbc8761e40e29d54428",
                                    "value": {
                                        "current": "500000",
                                        "prev": "0",
                                        "typeTag": 1
                                    }
                                }
                            ],
                            "typeTag": 4
                        }
                    }
                ]
            }
        ]
    }
}