{
    "balance_change": {
        "balanceChanges": [
            {
                "account": "0x1413fe5f83566f1e25cfb6a323616f27cfbd49ca",
                "assets": [
                    {
                        "address": "0x9372b371196751dd2f603729ae8d8014bbeb07f6",
                        "amount": "1",
                        "iconUrl": "https://assets.blocksec.com/nft/icon/nft_d7a3ba9e-9aec-47cc-90e8-b41654987cab.png",
                        "isERC1155": false,
                        "isERC721": true,
                        "sign": true,
                        "tokenID": "1868",
                        "value": ""
                    },
                    {
                        "address": "0xeeeeeeeeeeeeeeeeeeeeeeeeeeeeeeeeeeeeeeee",
                        "amount": "1.234",
                        "iconUrl": "https://assets.blocksec.com/image/1663669189317-3.png",
                        "isERC1155": false,
                        "isERC721": false,
                        "sign": false,
                        "value": ""
                    }
                ]
            },
            {
                "account": "0x37b96e60e093648f50fc8704e9ba1353c4b79eed",
                "assets": [
                    {
                        "address": "0xeeeeeeeeeeeeeeeeeeeeeeeeeeeeeeeeeeeeeeee",
                        "amount": "1.07975",
                        "iconUrl": "https://assets.blocksec.com/image/1663669189317-3.png",
                        "isERC1155": false,
                        "isERC721": false,
                        "sign": true,
                        "value": ""
                    },
                    {
                        "address": "0x9372b371196751dd2f603729ae8d8014bbeb07f6",
                        "amount": "1",
                        "iconUrl": "https://assets.blocksec.com/nft/icon/nft_d7a3ba9e-9aec-47cc-90e8-b41654987cab.png",
                        "isERC1155": false,
                        "isERC721": true,
                        "sign": false,
                        "tokenID": "1868",
                        "value": ""
                    }
                ]
            },
            {
                "account": "0x5b3256965e7c3cf26e11fcaf296dfc8807c01073",
                "assets": [
                    {
                        "address": "0xeeeeeeeeeeeeeeeeeeeeeeeeeeeeeeeeeeeeeeee",
                        "amount": "0.15425",
                        "iconUrl": "https://assets.blocksec.com/image/1663669189317-3.png",
                        "isERC1155": false,
                        "isERC721": false,
                        "sign": true,
                        "value": ""
                    }
                ]
            }
        ]
    },
    "profile": {
        "basic_info": {
            "baseFee": "119.980854852",
            "blockNumber": 13969449,
            "callData": "0xab834bab0000000000000000000000007be8076f4ea4a4ad08075c2508e481d6c946d12b0000000000000000000000001413fe5f83566f1e25cfb6a323616f27cfbd49ca00000000000000000000000037b96e60e093648f50fc8704e9ba1353c4b79eed00000000000000000000000000000000000000000000000000000000000000000000000000000000000000009372b371196751dd2f603729ae8d8014bbeb07f6000000000000000000000000000000000000000000000000000000000000000000000000000000000000000000000000000000000000000000000000000000000000000000000000000000007be8076f4ea4a4ad08075c2508e481d6c946d12b00000000000000000000000037b96e60e093648f50fc8704e9ba1353c4b79eed00000000000000000000000000000000000000000000000000000000000000000000000000000000000000005b3256965e7c3cf26e11fcaf296dfc8807c010730000000000000000000000009372b371196751dd2f603729ae8d8014bbeb07f60000000000000000000000000000000000000000000000000000000000000000000000000000000000000000000000000000000000000000000000000000000000000000000000000000000000000000000000000000000000000000000004e200000000000000000000000000000000000000000000000000000000000000000000000000000000000000000000000000000000000000000000000000000000000000000000000000000000000000000000000000000000000000000000000000000000000000000000000000000000000000000000000011200c7644d5000000000000000000000000000000000000000000000000000000000000000000000000000000000000000000000000000000000000000000000000000061da721e00000000000000000000000000000000000000000000000000000000000000006f05dc899a3d19072c671e2f79d7d0267700093260893a77a7f3884a047a986f00000000000000000000000000000000000000000000000000000000000004e200000000000000000000000000000000000000000000000000000000000000000000000000000000000000000000000000000000000000000000000000000000000000000000000000000000000000000000000000000000000000000000000000000000000000000000000000000000000000000000000011200c7644d5000000000000000000000000000000000000000000000000000000000000000000000000000000000000000000000000000000000000000000000000000061da71fc0000000000000000000000000000000000000000000000000000000061dbb931bea6cee37c9de4d496d8a68a72041dda1f6e9add910c013eda6256b8e2c23a000000000000000000000000000000000000000000000000000000000000000001000000000000000000000000000000000000000000000000000000000000000000000000000000000000000000000000000000000000000000000000000000000000000000000000000000000000000000000000000000000000000000000000000000000000000000000000000000000000000000000000000000000000000100000000000000000000000000000000000000000000000000000000000000010000000000000000000000000000000000000000000000000000000000000000000000000000000000000000000000000000000000000000000000000000000000000000000000000000000000000000000000000000000000000000000006a0000000000000000000000000000000000000000000000000000000000000074000000000000000000000000000000000000000000000000000000000000007e0000000000000000000000000000000000000000000000000000000000000088000000000000000000000000000000000000000000000000000000000000009200000000000000000000000000000000000000000000000000000000000000940000000000000000000000000000000000000000000000000000000000000001b000000000000000000000000000000000000000000000000000000000000001bbbb65bfb94bbc19e37a83c4d56b28367c89a10411f8ceeeb9fd4e73a199d797f2a43c35ab768bdf42f3511535e4cca76f615a042bc2fda1a80dbd020766a9ae2bbb65bfb94bbc19e37a83c4d56b28367c89a10411f8ceeeb9fd4e73a199d797f2a43c35ab768bdf42f3511535e4cca76f615a042bc2fda1a80dbd020766a9ae20000000000000000000000000000000000000000000000000000000000000000000000000000000000000000000000000000000000000000000000000000006423b872dd00000000000000000000000000000000000000000000000000000000000000000000000000000000000000001413fe5f83566f1e25cfb6a323616f27cfbd49ca000000000000000000000000000000000000000000000000000000000000074c00000000000000000000000000000000000000000000000000000000000000000000000000000000000000000000000000000000000000000000006423b872dd00000000000000000000000037b96e60e093648f50fc8704e9ba1353c4b79eed0000000000000000000000000000000000000000000000000000000000000000000000000000000000000000000000000000000000000000000000000000074c00000000000000000000000000000000000000000000000000000000000000000000000000000000000000000000000000000000000000000000006400000000ffffffffffffffffffffffffffffffffffffffffffffffffffffffffffffffff00000000000000000000000000000000000000000000000000000000000000000000000000000000000000000000000000000000000000000000000000000000000000000000000000000000000000000000000000000000000000000000000000000000000000000000000000000000000000000000000000000064000000000000000000000000000000000000000000000000000000000000000000000000ffffffffffffffffffffffffffffffffffffffffffffffffffffffffffffffff00000000000000000000000000000000000000000000000000000000000000000000000000000000000000000000000000000000000000000000000000000000000000000000000000000000000000000000000000000000000000000000000000000000000000000000000000000000000000000000000000000000",
            "debugEnable": true,
            "errorInfo": "",
            "eventCount": 3,
            "feeRecipient": "0x1ad91ee08f21be3de0ba2ba6918e714da6b45836",
            "formatValue": "1.234",
            "gasLimit": 301356,
            "gasPrice": "122.580854852",
            "gasUsed": 217271,
            "intTxnCount": 10,
            "internalRevert": false,
            "internalRevertMessage": "",
            "isContractCreation": false,
            "isFlashloan": false,
            "maxFee": "241.32",
            "nonce": 7,
            "overwritedBlockNumber": -1,
            "priorityFee": "2.6",
            "receiver": "0x7be8076f4ea4a4ad08075c2508e481d6c946d12b",
            "revertMessage": "",
            "sender": "0x1413fe5f83566f1e25cfb6a323616f27cfbd49ca",
            "simulationEnable": true,
            "sourceTxnHash": "0xb52692b0223e2d9f84d8e2e5dc861c99a93df31d3bc28e0140a253a42a35be0e",
            "status": true,
            "timestamp": "2022-01-09T05:28:39Z",
            "transactionFee": "0.026633264914548892",
            "txnHash": "0xb52692b0223e2d9f84d8e2e5dc861c99a93df31d3bc28e0140a253a42a35be0e",
            "txnIndex": 44,
            "type": 2,
            "value": "1234000000000000000"
        },
        "fund_flow": [
            {
                "amount": "1.234",
                "from": "0x1413fe5f83566f1e25cfb6a323616f27cfbd49ca",
                "id": 1,
                "isERC1155": false,
                "isERC721": false,
                "isReverted": false,
                "order": 1,
                "to": "0x7be8076f4ea4a4ad08075c2508e481d6c946d12b",
                "token": "0xeeeeeeeeeeeeeeeeeeeeeeeeeeeeeeeeeeeeeeee"
            },
            {
                "amount": "0.15425",
                "from": "0x7be8076f4ea4a4ad08075c2508e481d6c946d12b",
                "id": 2,
                "isERC1155": false,
                "isERC721": false,
                "isReverted": false,
                "order": 2,
                "to": "0x5b3256965e7c3cf26e11fcaf296dfc8807c01073",
                "token": "0xeeeeeeeeeeeeeeeeeeeeeeeeeeeeeeeeeeeeeeee"
            },
            {
                "amount": "1.07975",
                "from": "0x7be8076f4ea4a4ad08075c2508e481d6c946d12b",
                "id": 3,
                "isERC1155": false,
                "isERC721": false,
                "isReverted": false,
                "order": 3,
                "to": "0x37b96e60e093648f50fc8704e9ba1353c4b79eed",
                "token": "0xeeeeeeeeeeeeeeeeeeeeeeeeeeeeeeeeeeeeeeee"
            },
            {
                "amount": "1",
                "from": "0x37b96e60e093648f50fc8704e9ba1353c4b79eed",
                "id": 4,
                "isERC1155": false,
                "isERC721": true,
                "isReverted": false,
                "order": 4,
                "to": "0x1413fe5f83566f1e25cfb6a323616f27cfbd49ca",
                "token": "0x9372b371196751dd2f603729ae8d8014bbeb07f6",
                "tokenID": "1868"
            }
        ],
        "token_infos": [
            {
                "address": "0xc02aaa39b223fe8d0a0e5c4f27ead9083c756cc2",
                "decimals": 18
            },
            {
                "address": "0xeeeeeeeeeeeeeeeeeeeeeeeeeeeeeeeeeeeeeeee",
                "decimals": 18
            }
        ]
    },
    "address_label": {
        "labels": [
            {
                "address": "0x0000000000000000000000000000000000000000",
                "label": "Null Address"
            },
            {
                "address": "0x0a6bae71c1af727d0ca8956454c93e91e80c48bd",
                "label": "OwnableDelegateProxy"
            },
            {
                "address": "0x0000000000000000000000000000000000000003",
                "label": "Precompiled"
            },
            {
                "address": "0xa5409ec958c83c3f309868babaca7c86dcb077c1",
                "label": "OpenSea: Registry"
            },
            {
                "address": "0x5b3256965e7c3cf26e11fcaf296dfc8807c01073",
                "label": "OpenSea: Wallet"
            },
            {
                "address": "0x7be8076f4ea4a4ad08075c2508e481d6c946d12b",
                "label": "OpenSea: Wyvern Exchange v1"
            },
            {
                "address": "0x0000000000000000000000000000000000000001",
                "label": "Precompiled"
            },
            {
                "address": "0x0000000000000000000000000000000000000002",
                "label": "Precompiled"
            },
            {
                "address": "0x0000000000000000000000000000000000000004",
                "label": "Precompiled"
            },
            {
                "address": "0xeeeeeeeeeeeeeeeeeeeeeeeeeeeeeeeeeeeeeeee",
                "label": "Ether"
            },
            {
                "address": "0x9372b371196751dd2f603729ae8d8014bbeb07f6",
                "label": "Bored Bunny: BUNNY Token"
            },
            {
                "address": "0xf9e266af4bca5890e2781812cc6a6e89495a79f2",
                "label": "AuthenticatedProxy"
            }
        ]
    },
    "trace": {
        "accountLabels": null,
        "dataMap": {
            "-1": {
                "invocation": {
                    "address": "0x1413fe5f83566f1e25cfb6a323616f27cfbd49ca",
                    "callData": "",
                    "decodedMethod": null,
                    "errorInfo": "",
                    "fromAddress": "",
                    "gasUsed": 0,
                    "id": -1,
                    "methodDecoded": false,
                    "operation": "",
                    "output": "",
                    "revert": false,
                    "revertMessage": "",
                    "selector": "",
                    "status": false,
                    "value": ""
                },
                "nodeType": 0
            },
            "0": {
                "invocation": {
                    "address": "0x7be8076f4ea4a4ad08075c2508e481d6c946d12b",
                    "callData": "0x0000000000000000000000007be8076f4ea4a4ad08075c2508e481d6c946d12b0000000000000000000000001413fe5f83566f1e25cfb6a323616f27cfbd49ca00000000000000000000000037b96e60e093648f50fc8704e9ba1353c4b79eed00000000000000000000000000000000000000000000000000000000000000000000000000000000000000009372b371196751dd2f603729ae8d8014bbeb07f6000000000000000000000000000000000000000000000000000000000000000000000000000000000000000000000000000000000000000000000000000000000000000000000000000000007be8076f4ea4a4ad08075c2508e481d6c946d12b00000000000000000000000037b96e60e093648f50fc8704e9ba1353c4b79eed00000000000000000000000000000000000000000000000000000000000000000000000000000000000000005b3256965e7c3cf26e11fcaf296dfc8807c010730000000000000000000000009372b371196751dd2f603729ae8d8014bbeb07f60000000000000000000000000000000000000000000000000000000000000000000000000000000000000000000000000000000000000000000000000000000000000000000000000000000000000000000000000000000000000000000004e200000000000000000000000000000000000000000000000000000000000000000000000000000000000000000000000000000000000000000000000000000000000000000000000000000000000000000000000000000000000000000000000000000000000000000000000000000000000000000000000011200c7644d5000000000000000000000000000000000000000000000000000000000000000000000000000000000000000000000000000000000000000000000000000061da721e00000000000000000000000000000000000000000000000000000000000000006f05dc899a3d19072c671e2f79d7d0267700093260893a77a7f3884a047a986f00000000000000000000000000000000000000000000000000000000000004e200000000000000000000000000000000000000000000000000000000000000000000000000000000000000000000000000000000000000000000000000000000000000000000000000000000000000000000000000000000000000000000000000000000000000000000000000000000000000000000000011200c7644d5000000000000000000000000000000000000000000000000000000000000000000000000000000000000000000000000000000000000000000000000000061da71fc0000000000000000000000000000000000000000000000000000000061dbb931bea6cee37c9de4d496d8a68a72041dda1f6e9add910c013eda6256b8e2c23a000000000000000000000000000000000000000000000000000000000000000001000000000000000000000000000000000000000000000000000000000000000000000000000000000000000000000000000000000000000000000000000000000000000000000000000000000000000000000000000000000000000000000000000000000000000000000000000000000000000000000000000000000000000100000000000000000000000000000000000000000000000000000000000000010000000000000000000000000000000000000000000000000000000000000000000000000000000000000000000000000000000000000000000000000000000000000000000000000000000000000000000000000000000000000000000006a0000000000000000000000000000000000000000000000000000000000000074000000000000000000000000000000000000000000000000000000000000007e0000000000000000000000000000000000000000000000000000000000000088000000000000000000000000000000000000000000000000000000000000009200000000000000000000000000000000000000000000000000000000000000940000000000000000000000000000000000000000000000000000000000000001b000000000000000000000000000000000000000000000000000000000000001bbbb65bfb94bbc19e37a83c4d56b28367c89a10411f8ceeeb9fd4e73a199d797f2a43c35ab768bdf42f3511535e4cca76f615a042bc2fda1a80dbd020766a9ae2bbb65bfb94bbc19e37a83c4d56b28367c89a10411f8ceeeb9fd4e73a199d797f2a43c35ab768bdf42f3511535e4cca76f615a042bc2fda1a80dbd020766a9ae20000000000000000000000000000000000000000000000000000000000000000000000000000000000000000000000000000000000000000000000000000006423b872dd00000000000000000000000000000000000000000000000000000000000000000000000000000000000000001413fe5f83566f1e25cfb6a323616f27cfbd49ca000000000000000000000000000000000000000000000000000000000000074c00000000000000000000000000000000000000000000000000000000000000000000000000000000000000000000000000000000000000000000006423b872dd00000000000000000000000037b96e60e093648f50fc8704e9ba1353c4b79eed0000000000000000000000000000000000000000000000000000000000000000000000000000000000000000000000000000000000000000000000000000074c00000000000000000000000000000000000000000000000000000000000000000000000000000000000000000000000000000000000000000000006400000000ffffffffffffffffffffffffffffffffffffffffffffffffffffffffffffffff00000000000000000000000000000000000000000000000000000000000000000000000000000000000000000000000000000000000000000000000000000000000000000000000000000000000000000000000000000000000000000000000000000000000000000000000000000000000000000000000000000064000000000000000000000000000000000000000000000000000000000000000000000000ffffffffffffffffffffffffffffffffffffffffffffffffffffffffffffffff00000000000000000000000000000000000000000000000000000000000000000000000000000000000000000000000000000000000000000000000000000000000000000000000000000000000000000000000000000000000000000000000000000000000000000000000000000000000000000000000000000000",
                    "decodedMethod": {
                        "callParams": [
                            {
                                "name": "addrs",
                                "type": "address[14]",
                                "value": [
                                    "0x7be8076f4ea4a4ad08075c2508e481d6c946d12b",
                                    "0x1413fe5f83566f1e25cfb6a323616f27cfbd49ca",
                                    "0x37b96e60e093648f50fc8704e9ba1353c4b79eed",
                                    "0x0000000000000000000000000000000000000000",
                                    "0x9372b371196751dd2f603729ae8d8014bbeb07f6",
                                    "0x0000000000000000000000000000000000000000",
                                    "0x0000000000000000000000000000000000000000",
                                    "0x7be8076f4ea4a4ad08075c2508e481d6c946d12b",
                                    "0x37b96e60e093648f50fc8704e9ba1353c4b79eed",
                                    "0x0000000000000000000000000000000000000000",
                                    "0x5b3256965e7c3cf26e11fcaf296dfc8807c01073",
                                    "0x9372b371196751dd2f603729ae8d8014bbeb07f6",
                                    "0x0000000000000000000000000000000000000000",
                                    "0x0000000000000000000000000000000000000000"
                                ]
                            },
                            {
                                "name": "uints",
                                "type": "uint256[18]",
                                "value": [
                                    "1,250",
                                    "0",
                                    "0",
                                    "0",
                                    "1,234,000,000,000,000,000",
                                    "0",
                                    "1,641,706,014",
                                    "0",
                                    "50,217,082,522,018,675,434,694,313,144,903,810,692,472,499,888,733,970,048,017,541,713,907,842,455,663",
                                    "1,250",
                                    "0",
                                    "0",
                                    "0",
                                    "1,234,000,000,000,000,000",
                                    "0",
                                    "1,641,705,980",
                                    "1,641,789,745",
                                    "86,234,165,736,352,835,826,072,210,508,026,043,854,607,693,480,516,204,888,049,022,241,607,086,389,760"
                                ]
                            },
                            {
                                "name": "feeMethodsSidesKindsHowToCalls",
                                "type": "uint8[8]",
                                "value": [
                                    "1",
                                    "0",
                                    "0",
                                    "0",
                                    "1",
                                    "1",
                                    "0",
                                    "0"
                                ]
                            },
                            {
                                "name": "calldataBuy",
                                "type": "bytes",
                                "value": "0x23b872dd00000000000000000000000000000000000000000000000000000000000000000000000000000000000000001413fe5f83566f1e25cfb6a323616f27cfbd49ca000000000000000000000000000000000000000000000000000000000000074c"
                            },
                            {
                                "name": "calldataSell",
                                "type": "bytes",
                                "value": "0x23b872dd00000000000000000000000037b96e60e093648f50fc8704e9ba1353c4b79eed0000000000000000000000000000000000000000000000000000000000000000000000000000000000000000000000000000000000000000000000000000074c"
                            },
                            {
                                "name": "replacementPatternBuy",
                                "type": "bytes",
                                "value": "0x00000000ffffffffffffffffffffffffffffffffffffffffffffffffffffffffffffffff00000000000000000000000000000000000000000000000000000000000000000000000000000000000000000000000000000000000000000000000000000000"
                            },
                            {
                                "name": "replacementPatternSell",
                                "type": "bytes",
                                "value": "0x000000000000000000000000000000000000000000000000000000000000000000000000ffffffffffffffffffffffffffffffffffffffffffffffffffffffffffffffff0000000000000000000000000000000000000000000000000000000000000000"
                            },
                            {
                                "name": "staticExtradataBuy",
                                "type": "bytes",
                                "value": "0x"
                            },
                            {
                                "name": "staticExtradataSell",
                                "type": "bytes",
                                "value": "0x"
                            },
                            {
                                "name": "vs",
                                "type": "uint8[2]",
                                "value": [
                                    "27",
                                    "27"
                                ]
                            },
                            {
                                "name": "rssMetadata",
                                "type": "bytes32[5]",
                                "value": [
                                    "0xbbb65bfb94bbc19e37a83c4d56b28367c89a10411f8ceeeb9fd4e73a199d797f",
                                    "0x2a43c35ab768bdf42f3511535e4cca76f615a042bc2fda1a80dbd020766a9ae2",
                                    "0xbbb65bfb94bbc19e37a83c4d56b28367c89a10411f8ceeeb9fd4e73a199d797f",
                                    "0x2a43c35ab768bdf42f3511535e4cca76f615a042bc2fda1a80dbd020766a9ae2",
                                    "0x0000000000000000000000000000000000000000000000000000000000000000"
                                ]
                            }
                        ],
                        "constructorArguments": "",
                        "name": "atomicMatch_",
                        "returnParams": [],
                        "signature": "atomicMatch_(address[14],uint256[18],uint8[8],bytes,bytes,bytes,bytes,bytes,bytes,uint8[2],bytes32[5])"
                    },
                    "errorInfo": "",
                    "fromAddress": "0x1413fe5f83566f1e25cfb6a323616f27cfbd49ca",
                    "gasUsed": 217271,
                    "id": 0,
                    "methodDecoded": true,
                    "operation": "CALL",
                    "output": "",
                    "revert": false,
                    "revertMessage": "",
                    "selector": "0xab834bab",
                    "status": true,
                    "value": "1.234"
                },
                "nodeType": 0
            },
            "1": {
                "invocation": {
                    "address": "0x0000000000000000000000000000000000000001",
                    "callData": "0x40763ae94f66fd45ad729c3a81f7c5a203568129e11378a52d34c883000000000000000000000000000000000000000000000000000000000000001bbbb65bfb94bbc19e37a83c4d56b28367c89a10411f8ceeeb9fd4e73a199d797f2a43c35ab768bdf42f3511535e4cca76f615a042bc2fda1a80dbd020766a9ae2",
                    "decodedMethod": {
                        "callParams": [
                            {
                                "name": "hash",
                                "type": "bytes32",
                                "value": "0xa61e645d40763ae94f66fd45ad729c3a81f7c5a203568129e11378a52d34c883"
                            },
                            {
                                "name": "v",
                                "type": "uint256",
                                "value": "27"
                            },
                            {
                                "name": "r",
                                "type": "bytes32",
                                "value": "0xbbb65bfb94bbc19e37a83c4d56b28367c89a10411f8ceeeb9fd4e73a199d797f"
                            },
                            {
                                "name": "s",
                                "type": "bytes32",
                                "value": "0x2a43c35ab768bdf42f3511535e4cca76f615a042bc2fda1a80dbd020766a9ae2"
                            }
                        ],
                        "constructorArguments": "",
                        "name": "ecrecover",
                        "returnParams": [
                            {
                                "name": "",
                                "type": "address",
                                "value": "0x37b96e60e093648f50fc8704e9ba1353c4b79eed"
                            }
                        ],
                        "signature": "ecrecover(bytes32,uint256,bytes32,bytes32)"
                    },
                    "errorInfo": "",
                    "fromAddress": "0x7be8076f4ea4a4ad08075c2508e481d6c946d12b",
                    "gasUsed": 3000,
                    "id": 1,
                    "methodDecoded": true,
                    "operation": "CALL",
                    "output": "0x00000000000000000000000037b96e60e093648f50fc8704e9ba1353c4b79eed",
                    "revert": false,
                    "revertMessage": "",
                    "selector": "0xa61e645d",
                    "status": true,
                    "value": "0"
                },
                "nodeType": 0
            },
            "10": {
                "invocation": {
                    "address": "0x9372b371196751dd2f603729ae8d8014bbeb07f6",
                    "callData": "0x00000000000000000000000037b96e60e093648f50fc8704e9ba1353c4b79eed0000000000000000000000001413fe5f83566f1e25cfb6a323616f27cfbd49ca000000000000000000000000000000000000000000000000000000000000074c00000000000000000000000000000000000000000000000000000000",
                    "decodedMethod": {
                        "callParams": [
                            {
                                "name": "from",
                                "type": "address",
                                "value": "0x37b96e60e093648f50fc8704e9ba1353c4b79eed"
                            },
                            {
                                "name": "to",
                                "type": "address",
                                "value": "0x1413fe5f83566f1e25cfb6a323616f27cfbd49ca"
                            },
                            {
                                "decimalAvailable": true,
                                "name": "tokenId",
                                "type": "uint256",
                                "value": "1,868"
                            }
                        ],
                        "constructorArguments": "",
                        "name": "transferFrom",
                        "returnParams": [],
                        "signature": "transferFrom(address,address,uint256)"
                    },
                    "errorInfo": "",
                    "fromAddress": "0x0a6bae71c1af727d0ca8956454c93e91e80c48bd",
                    "gasUsed": 76948,
                    "id": 10,
                    "methodDecoded": true,
                    "operation": "CALL",
                    "output": "",
                    "revert": false,
                    "revertMessage": "",
                    "selector": "0x23b872dd",
                    "status": true,
                    "value": "0"
                },
                "nodeType": 0
            },
            "11": {
                "event": {
                    "contract": "0x9372b371196751dd2f603729ae8d8014bbeb07f6",
                    "decodedLog": {
                        "name": "Approval",
                        "params": [
                            {
                                "name": "owner",
                                "type": "address",
                                "value": "0x37b96e60e093648f50fc8704e9ba1353c4b79eed"
                            },
                            {
                                "name": "approved",
                                "type": "address",
                                "value": "0x0000000000000000000000000000000000000000"
                            },
                            {
                                "decimalAvailable": true,
                                "name": "tokenId",
                                "type": "uint256",
                                "value": "1,868"
                            }
                        ],
                        "signature": "Approval(address,address,uint256)"
                    },
                    "id": 11,
                    "logData": "0x",
                    "logDecoded": true,
                    "operation": "EVENT",
                    "revert": false,
                    "status": true,
                    "topics": [
                        "0x8c5be1e5ebec7d5bd14f71427d1e84f3dd0314c0f7b2291e5b200ac8c7c3b925",
                        "0x00000000000000000000000037b96e60e093648f50fc8704e9ba1353c4b79eed",
                        "0x0000000000000000000000000000000000000000000000000000000000000000",
                        "0x000000000000000000000000000000000000000000000000000000000000074c"
                    ]
                },
                "nodeType": 1
            },
            "12": {
                "event": {
                    "contract": "0x9372b371196751dd2f603729ae8d8014bbeb07f6",
                    "decodedLog": {
                        "name": "Transfer",
                        "params": [
                            {
                                "name": "from",
                                "type": "address",
                                "value": "0x37b96e60e093648f50fc8704e9ba1353c4b79eed"
                            },
                            {
                                "name": "to",
                                "type": "address",
                                "value": "0x1413fe5f83566f1e25cfb6a323616f27cfbd49ca"
                            },
                            {
                                "decimalAvailable": true,
                                "name": "tokenId",
                                "type": "uint256",
                                "value": "1,868"
                            }
                        ],
                        "signature": "Transfer(address,address,uint256)"
                    },
                    "id": 12,
                    "logData": "0x",
                    "logDecoded": true,
                    "operation": "EVENT",
                    "revert": false,
                    "status": true,
                    "topics": [
                        "0xddf252ad1be2c89b69c2b068fc378daa952ba7f163c4a11628f55a4df523b3ef",
                        "0x00000000000000000000000037b96e60e093648f50fc8704e9ba1353c4b79eed",
                        "0x0000000000000000000000001413fe5f83566f1e25cfb6a323616f27cfbd49ca",
                        "0x000000000000000000000000000000000000000000000000000000000000074c"
                    ]
                },
                "nodeType": 1
            },
            "13": {
                "event": {
                    "contract": "0x7be8076f4ea4a4ad08075c2508e481d6c946d12b",
                    "decodedLog": {
                        "name": "OrdersMatched",
                        "params": [
                            {
                                "name": "maker",
                                "type": "address",
                                "value": "0x37b96e60e093648f50fc8704e9ba1353c4b79eed"
                            },
                            {
                                "name": "taker",
                                "type": "address",
                                "value": "0x1413fe5f83566f1e25cfb6a323616f27cfbd49ca"
                            },
                            {
                                "name": "metadata",
                                "type": "bytes32",
                                "value": "0x0000000000000000000000000000000000000000000000000000000000000000"
                            },
                            {
                                "name": "buyHash",
                                "type": "bytes32",
                                "value": "0x0000000000000000000000000000000000000000000000000000000000000000"
                            },
                            {
                                "name": "sellHash",
                                "type": "bytes32",
                                "value": "0xa61e645d40763ae94f66fd45ad729c3a81f7c5a203568129e11378a52d34c883"
                            },
                            {
                                "name": "price",
                                "type": "uint256",
                                "value": "1,234,000,000,000,000,000"
                            }
                        ],
                        "signature": "OrdersMatched(bytes32,bytes32,address,address,uint256,bytes32)"
                    },
                    "id": 13,
                    "logData": "0x0000000000000000000000000000000000000000000000000000000000000000a61e645d40763ae94f66fd45ad729c3a81f7c5a203568129e11378a52d34c88300000000000000000000000000000000000000000000000011200c7644d50000",
                    "logDecoded": true,
                    "operation": "EVENT",
                    "revert": false,
                    "status": true,
                    "topics": [
                        "0xc4109843e0b7d514e4c093114b863f8e7d8d9a458c372cd51bfe526b588006c9",
                        "0x00000000000000000000000037b96e60e093648f50fc8704e9ba1353c4b79eed",
                        "0x0000000000000000000000001413fe5f83566f1e25cfb6a323616f27cfbd49ca",
                        "0x0000000000000000000000000000000000000000000000000000000000000000"
                    ]
                },
                "nodeType": 1
            },
            "2": {
                "invocation": {
                    "address": "0xa5409ec958c83c3f309868babaca7c86dcb077c1",
                    "callData": "0x00000000000000000000000037b96e60e093648f50fc8704e9ba1353c4b79eed",
                    "decodedMethod": {
                        "callParams": [
                            {
                                "name": "",
                                "type": "address",
                                "value": "0x37b96e60e093648f50fc8704e9ba1353c4b79eed"
                            }
                        ],
                        "constructorArguments": "",
                        "name": "proxies",
                        "returnParams": [
                            {
                                "name": "",
                                "type": "address",
                                "value": "0x0a6bae71c1af727d0ca8956454c93e91e80c48bd"
                            }
                        ],
                        "signature": "proxies(address)"
                    },
                    "errorInfo": "",
                    "fromAddress": "0x7be8076f4ea4a4ad08075c2508e481d6c946d12b",
                    "gasUsed": 2782,
                    "id": 2,
                    "methodDecoded": true,
                    "operation": "CALL",
                    "output": "0x0000000000000000000000000a6bae71c1af727d0ca8956454c93e91e80c48bd",
                    "revert": false,
                    "revertMessage": "",
                    "selector": "0xc4552791",
                    "status": true,
                    "value": "0"
                },
                "nodeType": 0
            },
            "3": {
                "invocation": {
                    "address": "0xa5409ec958c83c3f309868babaca7c86dcb077c1",
                    "callData": "0x",
                    "decodedMethod": {
                        "callParams": [],
                        "constructorArguments": "",
                        "name": "delegateProxyImplementation",
                        "returnParams": [
                            {
                                "name": "",
                                "type": "address",
                                "value": "0xf9e266af4bca5890e2781812cc6a6e89495a79f2"
                            }
                        ],
                        "signature": "delegateProxyImplementation()"
                    },
                    "errorInfo": "",
                    "fromAddress": "0x7be8076f4ea4a4ad08075c2508e481d6c946d12b",
                    "gasUsed": 2613,
                    "id": 3,
                    "methodDecoded": true,
                    "operation": "CALL",
                    "output": "0x000000000000000000000000f9e266af4bca5890e2781812cc6a6e89495a79f2",
                    "revert": false,
                    "revertMessage": "",
                    "selector": "0x97204d8e",
                    "status": true,
                    "value": "0"
                },
                "nodeType": 0
            },
            "4": {
                "invocation": {
                    "address": "0x0a6bae71c1af727d0ca8956454c93e91e80c48bd",
                    "callData": "0x",
                    "decodedMethod": {
                        "callParams": [],
                        "constructorArguments": "",
                        "name": "implementation",
                        "returnParams": [
                            {
                                "name": "",
                                "type": "address",
                                "value": "0xf9e266af4bca5890e2781812cc6a6e89495a79f2"
                            }
                        ],
                        "signature": "implementation()"
                    },
                    "errorInfo": "",
                    "fromAddress": "0x7be8076f4ea4a4ad08075c2508e481d6c946d12b",
                    "gasUsed": 2525,
                    "id": 4,
                    "methodDecoded": true,
                    "operation": "CALL",
                    "output": "0x000000000000000000000000f9e266af4bca5890e2781812cc6a6e89495a79f2",
                    "revert": false,
                    "revertMessage": "",
                    "selector": "0x5c60da1b",
                    "status": true,
                    "value": "0"
                },
                "nodeType": 0
            },
            "5": {
                "invocation": {
                    "address": "0x5b3256965e7c3cf26e11fcaf296dfc8807c01073",
                    "callData": "0x",
                    "decodedMethod": null,
                    "errorInfo": "",
                    "fromAddress": "0x7be8076f4ea4a4ad08075c2508e481d6c946d12b",
                    "gasUsed": 0,
                    "id": 5,
                    "methodDecoded": false,
                    "operation": "CALL",
                    "output": "",
                    "revert": false,
                    "revertMessage": "",
                    "selector": "fallback",
                    "status": true,
                    "value": "0.15425"
                },
                "nodeType": 0
            },
            "6": {
                "invocation": {
                    "address": "0x37b96e60e093648f50fc8704e9ba1353c4b79eed",
                    "callData": "0x",
                    "decodedMethod": null,
                    "errorInfo": "",
                    "fromAddress": "0x7be8076f4ea4a4ad08075c2508e481d6c946d12b",
                    "gasUsed": 0,
                    "id": 6,
                    "methodDecoded": false,
                    "operation": "CALL",
                    "output": "",
                    "revert": false,
                    "revertMessage": "",
                    "selector": "fallback",
                    "status": true,
                    "value": "1.07975"
                },
                "nodeType": 0
            },
            "7": {
                "invocation": {
                    "address": "0x0a6bae71c1af727d0ca8956454c93e91e80c48bd",
                    "callData": "0x0000000000000000000000009372b371196751dd2f603729ae8d8014bbeb07f600000000000000000000000000000000000000000000000000000000000000000000000000000000000000000000000000000000000000000000000000000060000000000000000000000000000000000000000000000000000000000000006423b872dd00000000000000000000000037b96e60e093648f50fc8704e9ba1353c4b79eed0000000000000000000000001413fe5f83566f1e25cfb6a323616f27cfbd49ca000000000000000000000000000000000000000000000000000000000000074c00000000000000000000000000000000000000000000000000000000",
                    "decodedMethod": {
                        "callParams": [
                            {
                                "name": "dest",
                                "type": "address",
                                "value": "0x9372b371196751dd2f603729ae8d8014bbeb07f6"
                            },
                            {
                                "name": "howToCall",
                                "type": "uint8",
                                "value": "0"
                            },
                            {
                                "name": "calldata",
                                "type": "bytes",
                                "value": "0x23b872dd00000000000000000000000037b96e60e093648f50fc8704e9ba1353c4b79eed0000000000000000000000001413fe5f83566f1e25cfb6a323616f27cfbd49ca000000000000000000000000000000000000000000000000000000000000074c"
                            }
                        ],
                        "constructorArguments": "",
                        "name": "proxy",
                        "returnParams": [
                            {
                                "name": "result",
                                "type": "bool",
                                "value": true
                            }
                        ],
                        "signature": "proxy(address,uint8,bytes)"
                    },
                    "errorInfo": "",
                    "fromAddress": "0x7be8076f4ea4a4ad08075c2508e481d6c946d12b",
                    "gasUsed": 89105,
                    "id": 7,
                    "methodDecoded": true,
                    "operation": "CALL",
                    "output": "0x0000000000000000000000000000000000000000000000000000000000000001",
                    "revert": false,
                    "revertMessage": "",
                    "selector": "0x1b0f7ba9",
                    "status": true,
                    "value": "0"
                },
                "nodeType": 0
            },
            "8": {
                "invocation": {
                    "address": "0xf9e266af4bca5890e2781812cc6a6e89495a79f2",
                    "callData": "0x0000000000000000000000009372b371196751dd2f603729ae8d8014bbeb07f600000000000000000000000000000000000000000000000000000000000000000000000000000000000000000000000000000000000000000000000000000060000000000000000000000000000000000000000000000000000000000000006423b872dd00000000000000000000000037b96e60e093648f50fc8704e9ba1353c4b79eed0000000000000000000000001413fe5f83566f1e25cfb6a323616f27cfbd49ca000000000000000000000000000000000000000000000000000000000000074c00000000000000000000000000000000000000000000000000000000",
                    "decodedMethod": {
                        "callParams": [
                            {
                                "name": "dest",
                                "type": "address",
                                "value": "0x9372b371196751dd2f603729ae8d8014bbeb07f6"
                            },
                            {
                                "name": "howToCall",
                                "type": "uint8",
                                "value": "0"
                            },
                            {
                                "name": "calldata",
                                "type": "bytes",
                                "value": "0x23b872dd00000000000000000000000037b96e60e093648f50fc8704e9ba1353c4b79eed0000000000000000000000001413fe5f83566f1e25cfb6a323616f27cfbd49ca000000000000000000000000000000000000000000000000000000000000074c"
                            }
                        ],
                        "constructorArguments": "",
                        "name": "proxy",
                        "returnParams": [
                            {
                                "name": "result",
                                "type": "bool",
                                "value": true
                            }
                        ],
                        "signature": "proxy(address,uint8,bytes)"
                    },
                    "errorInfo": "",
                    "fromAddress": "0x0a6bae71c1af727d0ca8956454c93e91e80c48bd",
                    "gasUsed": 85845,
                    "id": 8,
                    "methodDecoded": true,
                    "operation": "DELEGATECALL",
                    "output": "0x0000000000000000000000000000000000000000000000000000000000000001",
                    "revert": false,
                    "revertMessage": "",
                    "selector": "0x1b0f7ba9",
                    "status": true,
                    "value": "0"
                },
                "nodeType": 0
            },
            "9": {
                "invocation": {
                    "address": "0xa5409ec958c83c3f309868babaca7c86dcb077c1",
                    "callData": "0x0000000000000000000000007be8076f4ea4a4ad08075c2508e481d6c946d12b",
                    "decodedMethod": {
                        "callParams": [
                            {
                                "name": "",
                                "type": "address",
                                "value": "0x7be8076f4ea4a4ad08075c2508e481d6c946d12b"
                            }
                        ],
                        "constructorArguments": "",
                        "name": "contracts",
                        "returnParams": [
                            {
                                "name": "",
                                "type": "bool",
                                "value": true
                            }
                        ],
                        "signature": "contracts(address)"
                    },
                    "errorInfo": "",
                    "fromAddress": "0x0a6bae71c1af727d0ca8956454c93e91e80c48bd",
                    "gasUsed": 2553,
                    "id": 9,
                    "methodDecoded": true,
                    "operation": "CALL",
                    "output": "0x0000000000000000000000000000000000000000000000000000000000000001",
                    "revert": false,
                    "revertMessage": "",
                    "selector": "0x69dc9ff3",
                    "status": true,
                    "value": "0"
                },
                "nodeType": 0
            }
        },
        "gasFlame": [
            {
                "children": [
                    {
                        "children": [
                            {
                                "children": [],
                                "depth": 0,
                                "name": "Initial Gas",
                                "value": 36844
                            },
                            {
                                "children": [
                                    {
                                        "children": [],
                                        "depth": 1,
                                        "name": "ecrecover",
                                        "value": 3000
                                    },
                                    {
                                        "children": [],
                                        "depth": 1,
                                        "name": "proxies",
                                        "value": 2782
                                    },
                                    {
                                        "children": [],
                                        "depth": 1,
                                        "name": "delegateProxyImplementation",
                                        "value": 2613
                                    },
                                    {
                                        "children": [],
                                        "depth": 1,
                                        "name": "implementation",
                                        "value": 2525
                                    },
                                    {
                                        "children": [],
                                        "depth": 1,
                                        "name": "fallback",
                                        "value": 0
                                    },
                                    {
                                        "children": [],
                                        "depth": 1,
                                        "name": "fallback",
                                        "value": 0
                                    },
                                    {
                                        "children": [
                                            {
                                                "children": [
                                                    {
                                                        "children": [],
                                                        "depth": 3,
                                                        "name": "contracts",
                                                        "value": 2553
                                                    },
                                                    {
                                                        "children": [],
                                                        "depth": 3,
                                                        "name": "transferFrom",
                                                        "value": 76948
                                                    }
                                                ],
                                                "depth": 2,
                                                "name": "proxy",
                                                "value": 85845
                                            }
                                        ],
                                        "depth": 1,
                                        "name": "proxy",
                                        "value": 89105
                                    }
                                ],
                                "depth": 0,
                                "name": "Executed Gas",
                                "value": 192827
                            }
                        ],
                        "depth": -1,
                        "name": "Actual Gas Used",
                        "value": 217271
                    },
                    {
                        "children": [],
                        "depth": -1,
                        "name": "Refunded Gas",
                        "value": 12400
                    }
                ],
                "depth": -2,
                "name": "Total Gas",
                "value": 229671
            }
        ],
        "isConfirmed": true,
        "mainTrace": [
            {
                "children": [
                    {
                        "children": [
                            {
                                "children": [],
                                "depth": 1,
                                "id": 1,
                                "order": 1
                            },
                            {
                                "children": [],
                                "depth": 1,
                                "id": 2,
                                "order": 2
                            },
                            {
                                "children": [],
                                "depth": 1,
                                "id": 3,
                                "order": 3
                            },
                            {
                                "children": [],
                                "depth": 1,
                                "id": 4,
                                "order": 4
                            },
                            {
                                "children": [],
                                "depth": 1,
                                "id": 5,
                                "order": 5
                            },
                            {
                                "children": [],
                                "depth": 1,
                                "id": 6,
                                "order": 6
                            },
                            {
                                "children": [
                                    {
                                        "children": [
                                            {
                                                "children": [],
                                                "depth": 3,
                                                "id": 9,
                                                "order": 9
                                            },
                                            {
                                                "children": [
                                                    {
                                                        "children": [],
                                                        "depth": 4,
                                                        "id": 11,
                                                        "order": 11
                                                    },
                                                    {
                                                        "children": [],
                                                        "depth": 4,
                                                        "id": 12,
                                                        "order": 12
                                                    }
                                                ],
                                                "depth": 3,
                                                "id": 10,
                                                "order": 10
                                            }
                                        ],
                                        "depth": 2,
                                        "id": 8,
                                        "order": 8
                                    }
                                ],
                                "depth": 1,
                                "id": 7,
                                "order": 7
                            },
                            {
                                "children": [],
                                "depth": 1,
                                "id": 13,
                                "order": 13
                            }
                        ],
                        "depth": 0,
                        "id": 0,
                        "order": 0
                    }
                ],
                "depth": -1,
                "id": -1,
                "order": -1
            }
        ],
        "mainTraceNodeCount": 14,
        "parentIdMap": {
            "0": -1,
            "1": 0,
            "10": 8,
            "11": 10,
            "12": 10,
            "13": 0,
            "2": 0,
            "3": 0,
            "4": 0,
            "5": 0,
            "6": 0,
            "7": 0,
            "8": 7,
            "9": 8
        },
        "tidyTrace": [
            {
                "children": [
                    {
                        "children": [
                            {
                                "children": [],
                                "depth": 1,
                                "id": 1,
                                "order": 1
                            },
                            {
                                "children": [],
                                "depth": 1,
                                "id": 2,
                                "order": 2
                            },
                            {
                                "children": [],
                                "depth": 1,
                                "id": 3,
                                "order": 3
                            },
                            {
                                "children": [],
                                "depth": 1,
                                "id": 4,
                                "order": 4
                            },
                            {
                                "children": [],
                                "depth": 1,
                                "id": 5,
                                "order": 5
                            },
                            {
                                "children": [],
                                "depth": 1,
                                "id": 6,
                                "order": 6
                            },
                            {
                                "children": [
                                    {
                                        "children": [
                                            {
                                                "children": [],
                                                "depth": 3,
                                                "id": 9,
                                                "order": 9
                                            },
                                            {
                                                "children": [
                                                    {
                                                        "children": [],
                                                        "depth": 4,
                                                        "id": 11,
                                                        "order": 11
                                                    },
                                                    {
                                                        "children": [],
                                                        "depth": 4,
                                                        "id": 12,
                                                        "order": 12
                                                    }
                                                ],
                                                "depth": 3,
                                                "id": 10,
                                                "order": 10
                                            }
                                        ],
                                        "depth": 2,
                                        "id": 8,
                                        "order": 8
                                    }
                                ],
                                "depth": 1,
                                "id": 7,
                                "order": 7
                            },
                            {
                                "children": [],
                                "depth": 1,
                                "id": 13,
                                "order": 13
                            }
                        ],
                        "depth": 0,
                        "id": 0,
                        "order": 0
                    }
                ],
                "depth": -1,
                "id": -1,
                "order": -1
            }
        ],
        "tidyTraceNodeCount": 14
    },
    "state_change": {
        "stateChanges": [
            {
                "address": "0x7be8076f4ea4a4ad08075c2508e481d6c946d12b",
                "erc": "",
                "slots": [
                    {
                        "current": "0x0000000000000000000000000000000000000000000000000000000000000001",
                        "key": "0x7ac9cf07eed7d093aa115072ed688384550d4d7f5e86b888885a73485afd5bc4",
                        "prev": "0x0000000000000000000000000000000000000000000000000000000000000000"
                    }
                ],
                "storageVariables": [
                    {
                        "name": "cancelledOrFinalized",
                        "type": "mapping(bytes32 => bool)",
                        "value": {
                            "pairs": [
                                {
                                    "key": "0xa61e645d40763ae94f66fd45ad729c3a81f7c5a203568129e11378a52d34c883",
                                    "value": {
                                        "current": "true",
                                        "prev": "false",
                                        "typeTag": 1
                                    }
                                }
                            ],
                            "typeTag": 4
                        }
                    }
                ]
            },
            {
                "address": "0x9372b371196751dd2f603729ae8d8014bbeb07f6",
                "erc": "ERC-721",
                "slots": [
                    {
                        "current": "0x0000000000000000000000001413fe5f83566f1e25cfb6a323616f27cfbd49ca",
                        "key": "0xf23de96d001a7adafd1b6ab353ad4bf37aa60d7a030e426eb47353ba43194c5a",
                        "prev": "0x00000000000000000000000037b96e60e093648f50fc8704e9ba1353c4b79eed"
                    },
                    {
                        "current": "0x0000000000000000000000000000000000000000000000000000000000000000",
                        "key": "0xf05e555550a47cb1e88974564c90ff42f630a2a2f83955f06d85b314cadf62b4",
                        "prev": "0x000000000000000000000000000000000000000000000000000000000000074c"
                    },
                    {
                        "current": "0x000000000000000000000000000000000000000000000000000000000000074c",
                        "key": "0x3f0ad1fab9052436d499b037b4e91893550b724400a89649447490a23406cced",
                        "prev": "0x0000000000000000000000000000000000000000000000000000000000000000"
                    },
                    {
                        "current": "0x0000000000000000000000000000000000000000000000000000000000000001",
                        "key": "0x1984759981fedda93f1b6dd44fe75129126c4b3f3794eecda7f451351b64ef2e",
                        "prev": "0x0000000000000000000000000000000000000000000000000000000000000000"
                    },
                    {
                        "current": "0x0000000000000000000000000000000000000000000000000000000000000000",
                        "key": "0x64dcc0463a30685a6a6e96ee3be7c028d62d1e30774ba8d54ec84a9c101b7ab5",
                        "prev": "0x0000000000000000000000000000000000000000000000000000000000000001"
                    },
                    {
                        "current": "0x0000000000000000000000000000000000000000000000000000000000000002",
                        "key": "0x0f57f3c7942e9d066529538ed0531cbf913c3c21fc6326132620ead35c850750",
                        "prev": "0x0000000000000000000000000000000000000000000000000000000000000001"
                    }
                ],
                "storageVariables": [
                    {
                        "name": "_ownedTokens",
                        "type": "mapping(address => mapping(uint256 => uint256))",
                        "value": {
                            "pairs": [
                                {
                                    "key": "0x1413fe5f83566f1e25cfb6a323616f27cfbd49ca",
                                    "value": {
                                        "pairs": [
                                            {
                                                "key": "1",
                                                "value": {
                                                    "current": "1868",
                                                    "prev": "0",
                                                    "typeTag": 1
                                                }
                                            }
                                        ],
                                        "typeTag": 4
                                    }
                                },
                                {
                                    "key": "0x37b96e60e093648f50fc8704e9ba1353c4b79eed",
                                    "value": {
                                        "pairs": [
                                            {
                                                "key": "0",
                                                "value": {
                                                    "current": "0",
                                                    "prev": "1868",
                                                    "typeTag": 1
                                                }
                                            }
                                        ],
                                        "typeTag": 4
                                    }
                                }
                            ],
                            "typeTag": 4
                        }
                    },
                    {
                        "name": "_ownedTokensIndex",
                        "type": "mapping(uint256 => uint256)",
                        "value": {
                            "pairs": [
                                {
                                    "key": "1868",
                                    "value": {
                                        "current": "1",
                                        "prev": "0",
                                        "typeTag": 1
                                    }
                                }
                            ],
                            "typeTag": 4
                        }
                    },
                    {
                        "name": "_balances",
                        "type": "mapping(address => uint256)",
                        "value": {
                            "pairs": [
                                {
                                    "key": "0x1413fe5f83566f1e25cfb6a323616f27cfbd49ca",
                                    "value": {
                                        "current": "2",
                                        "prev": "1",
                                        "typeTag": 1
                                    }
                                },
                                {
                                    "key": "0x37b96e60e093648f50fc8704e9ba1353c4b79eed",
                                    "value": {
                                        "current": "0",
                                        "prev": "1",
                                        "typeTag": 1
                                    }
                                }
                            ],
                            "typeTag": 4
                        }
                    },
                    {
                        "name": "_owners",
                        "type": "mapping(uint256 => address)",
                        "value": {
                            "pairs": [
                                {
                                    "key": "1868",
                                    "value": {
                                        "current": "0x1413fe5f83566f1e25cfb6a323616f27cfbd49ca",
                                        "prev": "0x37b96e60e093648f50fc8704e9ba1353c4b79eed",
                                        "typeTag": 1
                                    }
                                }
                            ],
                            "typeTag": 4
                        }
                    }
                ]
            }
        ]
    }
}