{
    "balance_change": {
        "balanceChanges": []
    },
    "profile": {
        "basic_info": {
            "baseFee": "4.308378009",
            "blockNumber": 19832108,
            "callData": "0x095ea7b30000000000000000000000006131b5fae19ea4f9d964eac0408e4408b66337b50000000000000000000000000000000000000000000000120d4da7b0bd140000",
            "debugEnable": true,
            "errorInfo": "",
            "eventCount": 1,
            "feeRecipient": "0x95222290dd7278aa3ddd389cc1e1d165cc4bafe5",
            "formatValue": "0",
            "gasLimit": 46789,
            "gasPrice": "4.338954471",
            "gasUsed": 46406,
            "intTxnCount": 0,
            "internalRevert": false,
            "internalRevertMessage": "",
            "isContractCreation": false,
            "isFlashloan": false,
            "maxFee": "7.173302478",
            "nonce": 28,
            "overwritedBlockNumber": -1,
            "priorityFee": "0.030576462",
            "receiver": "0x8457ca5040ad67fdebbcc8edce889a335bc0fbfb",
            "revertMessage": "",
            "sender": "0x9b546fdf1c439124ed047da35cc483cafe650a4e",
            "simulationEnable": true,
            "sourceTxnHash": "0xb550a97ffc0ca1cf149f4e473e676aa9d87b458eb0a54f313c63864d322656d9",
            "status": true,
            "timestamp": "2024-05-09T11:12:23Z",
            "transactionFee": "0.000201353521181226",
            "txnHash": "0xb550a97ffc0ca1cf149f4e473e676aa9d87b458eb0a54f313c63864d322656d9",
            "txnIndex": 103,
            "type": 2,
            "value": "0"
        },
        "fund_flow": [],
        "token_infos": [
            {
                "address": "0xc02aaa39b223fe8d0a0e5c4f27ead9083c756cc2",
                "decimals": 18
            },
            {
                "address": "0xeeeeeeeeeeeeeeeeeeeeeeeeeeeeeeeeeeeeeeee",
                "decimals": 18
            }
        ]
    },
    "address_label": {
        "labels": [
            {
                "address": "0x8457ca5040ad67fdebbcc8edce889a335bc0fbfb",
                "label": "AltLayer: ALT Token"
            },
            {
                "address": "0x0000000000000000000000000000000000000001",
                "label": "Precompiled"
            },
            {
                "address": "0x0000000000000000000000000000000000000002",
                "label": "Precompiled"
            },
            {
                "address": "0x0000000000000000000000000000000000000003",
                "label": "Precompiled"
            },
            {
                "address": "0x0000000000000000000000000000000000000004",
                "label": "Precompiled"
            },
            {
                "address": "0xeeeeeeeeeeeeeeeeeeeeeeeeeeeeeeeeeeeeeeee",
                "label": "Ether"
            },
            {
                "address": "0x6131b5fae19ea4f9d964eac0408e4408b66337b5",
                "label": "KyberSwap: Meta Aggregation Router v2"
            }
        ]
    },
    "trace": {
        "accountLabels": null,
        "dataMap": {
            "-1": {
                "invocation": {
                    "address": "0x9b546fdf1c439124ed047da35cc483cafe650a4e",
                    "callData": "",
                    "decodedMethod": null,
                    "errorInfo": "",
                    "fromAddress": "",
                    "gasUsed": 0,
                    "id": -1,
                    "methodDecoded": false,
                    "operation": "",
                    "output": "",
                    "revert": false,
                    "revertMessage": "",
                    "selector": "",
                    "status": false,
                    "value": ""
                },
                "nodeType": 0
            },
            "0": {
                "invocation": {
                    "address": "0x8457ca5040ad67fdebbcc8edce889a335bc0fbfb",
                    "callData": "0x0000000000000000000000006131b5fae19ea4f9d964eac0408e4408b66337b50000000000000000000000000000000000000000000000120d4da7b0bd140000",
                    "decodedMethod": {
                        "callParams": [
                            {
                                "name": "spender",
                                "type": "address",
                                "value": "0x6131b5fae19ea4f9d964eac0408e4408b66337b5"
                            },
                            {
                                "decimalAvailable": true,
                                "name": "value",
                                "type": "uint256",
                                "value": "333,000,000,000,000,000,000"
                            }
                        ],
                        "constructorArguments": "",
                        "name": "approve",
                        "returnParams": [
                            {
                                "name": "",
                                "type": "bool",
                                "value": true
                            }
                        ],
                        "signature": "approve(address,uint256)"
                    },
                    "errorInfo": "",
                    "fromAddress": "0x9b546fdf1c439124ed047da35cc483cafe650a4e",
                    "gasUsed": 46406,
                    "id": 0,
                    "methodDecoded": true,
                    "operation": "CALL",
                    "output": "0x0000000000000000000000000000000000000000000000000000000000000001",
                    "revert": false,
                    "revertMessage": "",
                    "selector": "0x095ea7b3",
                    "status": true,
                    "value": "0"
                },
                "nodeType": 0
            },
            "1": {
                "event": {
                    "contract": "0x8457ca5040ad67fdebbcc8edce889a335bc0fbfb",
                    "decodedLog": {
                        "name": "Approval",
                        "params": [
                            {
                                "name": "owner",
                                "type": "address",
                                "value": "0x9b546fdf1c439124ed047da35cc483cafe650a4e"
                            },
                            {
                                "name": "spender",
                                "type": "address",
                                "value": "0x6131b5fae19ea4f9d964eac0408e4408b66337b5"
                            },
                            {
                                "decimalAvailable": true,
                                "name": "value",
                                "type": "uint256",
                                "value": "333,000,000,000,000,000,000"
                            }
                        ],
                        "signature": "Approval(address,address,uint256)"
                    },
                    "id": 1,
                    "logData": "0x0000000000000000000000000000000000000000000000120d4da7b0bd140000",
                    "logDecoded": true,
                    "operation": "EVENT",
                    "revert": false,
                    "status": true,
                    "topics": [
                        "0x8c5be1e5ebec7d5bd14f71427d1e84f3dd0314c0f7b2291e5b200ac8c7c3b925",
                        "0x0000000000000000000000009b546fdf1c439124ed047da35cc483cafe650a4e",
                        "0x0000000000000000000000006131b5fae19ea4f9d964eac0408e4408b66337b5"
                    ]
                },
                "nodeType": 1
            }
        },
        "gasFlame": [
            {
                "children": [
                    {
                        "children": [
                            {
                                "children": [],
                                "depth": 0,
                                "name": "Initial Gas",
                                "value": 21644
                            },
                            {
                                "children": [],
                                "depth": 0,
                                "name": "Executed Gas",
                                "value": 24762
                            }
                        ],
                        "depth": -1,
                        "name": "Actual Gas Used",
                        "value": 46406
                    },
                    {
                        "children": [],
                        "depth": -1,
                        "name": "Refunded Gas",
                        "value": 0
                    }
                ],
                "depth": -2,
                "name": "Total Gas",
                "value": 46406
            }
        ],
        "isConfirmed": true,
        "mainTrace": [
            {
                "children": [
                    {
                        "children": [
                            {
                                "children": [],
                                "depth": 1,
                                "id": 1,
                                "order": 1
                            }
                        ],
                        "depth": 0,
                        "id": 0,
                        "order": 0
                    }
                ],
                "depth": -1,
                "id": -1,
                "order": -1
            }
        ],
        "mainTraceNodeCount": 2,
        "parentIdMap": {
            "0": -1,
            "1": 0
        },
        "tidyTrace": [
            {
                "children": [
                    {
                        "children": [
                            {
                                "children": [],
                                "depth": 1,
                                "id": 1,
                                "order": 1
                            }
                        ],
                        "depth": 0,
                        "id": 0,
                        "order": 0
                    }
                ],
                "depth": -1,
                "id": -1,
                "order": -1
            }
        ],
        "tidyTraceNodeCount": 2
    },
    "state_change": {
        "stateChanges": [
            {
                "address": "0x8457ca5040ad67fdebbcc8edce889a335bc0fbfb",
                "erc": "ERC-20",
                "slots": [
                    {
                        "current": "0x0000000000000000000000000000000000000000000000120d4da7b0bd140000",
                        "key": "0xaec8a19f50cf1c92910476adb7e26c0fc1a79fde9597058310f24c3148c5eb6b",
                        "prev": "0x0000000000000000000000000000000000000000000000000000000000000000"
                    }
                ],
                "storageVariables": [
                    {
                        "name": "_allowances",
                        "type": "mapping(address => mapping(address => uint256))",
                        "value": {
                            "pairs": [
                                {
                                    "key": "0x9b546fdf1c439124ed047da35cc483cafe650a4e",
                                    "value": {
                                        "pairs": [
                                            {
                                                "key": "0x6131b5fae19ea4f9d964eac0408e4408b66337b5",
                                                "value": {
                                                    "current": "333000000000000000000",
                                                    "prev": "0",
                                                    "typeTag": 1
                                                }
                                            }
                                        ],
                                        "typeTag": 4
                                    }
                                }
                            ],
                            "typeTag": 4
                        }
                    }
                ]
            }
        ]
    }
}