{
    "balance_change": {
        "balanceChanges": [
            {
                "account": "0x52599890419a3f2a4ce25b166790e4877a06dbf1",
                "assets": [
                    {
                        "address": "0x4c218ac55d53e9de63214f7dde5b4db2a5d48ed3",
                        "amount": "21.26",
                        "iconUrl": "",
                        "isERC1155": false,
                        "isERC721": false,
                        "sign": false,
                        "value": ""
                    }
                ]
            },
            {
                "account": "0xe290ec3d9acc7f9da08afa8e53a114d1fb70db63",
                "assets": [
                    {
                        "address": "0x4c218ac55d53e9de63214f7dde5b4db2a5d48ed3",
                        "amount": "21.26",
                        "iconUrl": "",
                        "isERC1155": false,
                        "isERC721": false,
                        "sign": true,
                        "value": ""
                    }
                ]
            }
        ]
    },
    "profile": {
        "basic_info": {
            "baseFee": "",
            "blockNumber": 7625562,
            "callData": "0xa9059cbb000000000000000000000000e290ec3d9acc7f9da08afa8e53a114d1fb70db63000000000000000000000000000000000000000000000001270ab15c14ce0000",
            "debugEnable": true,
            "errorInfo": "",
            "eventCount": 1,
            "feeRecipient": "0x99c85bb64564d9ef9a99621301f22c9993cb89e3",
            "formatValue": "0",
            "gasLimit": 200000,
            "gasPrice": "2",
            "gasUsed": 51436,
            "intTxnCount": 0,
            "internalRevert": false,
            "internalRevertMessage": "",
            "isContractCreation": false,
            "isFlashloan": false,
            "maxFee": "",
            "nonce": 16113,
            "overwritedBlockNumber": -1,
            "priorityFee": "",
            "receiver": "0x4c218ac55d53e9de63214f7dde5b4db2a5d48ed3",
            "revertMessage": "",
            "sender": "0x52599890419a3f2a4ce25b166790e4877a06dbf1",
            "simulationEnable": true,
            "sourceTxnHash": "0xb6985f13c3f9ccc6c9c74079b8e0bb44b53d3b7cc6a90060b91e6695a9e9a749",
            "status": true,
            "timestamp": "2019-04-23T19:04:20Z",
            "transactionFee": "0.000102872",
            "txnHash": "0xb6985f13c3f9ccc6c9c74079b8e0bb44b53d3b7cc6a90060b91e6695a9e9a749",
            "txnIndex": 52,
            "type": 0,
            "value": "0"
        },
        "fund_flow": [
            {
                "amount": "21.26",
                "from": "0x52599890419a3f2a4ce25b166790e4877a06dbf1",
                "id": 1,
                "isERC1155": false,
                "isERC721": false,
                "isReverted": false,
                "order": 1,
                "to": "0xe290ec3d9acc7f9da08afa8e53a114d1fb70db63",
                "token": "0x4c218ac55d53e9de63214f7dde5b4db2a5d48ed3"
            }
        ],
        "token_infos": [
            {
                "address": "0x4c218ac55d53e9de63214f7dde5b4db2a5d48ed3",
                "decimals": 18
            },
            {
                "address": "0xc02aaa39b223fe8d0a0e5c4f27ead9083c756cc2",
                "decimals": 18
            },
            {
                "address": "0xeeeeeeeeeeeeeeeeeeeeeeeeeeeeeeeeeeeeeeee",
                "decimals": 18
            }
        ]
    },
    "address_label": {
        "labels": [
            {
                "address": "0xeeeeeeeeeeeeeeeeeeeeeeeeeeeeeeeeeeeeeeee",
                "label": "Ether"
            },
            {
                "address": "0x4c218ac55d53e9de63214f7dde5b4db2a5d48ed3",
                "label": "Oyster Akoya (AKYE)"
            },
            {
                "address": "0x0000000000000000000000000000000000000001",
                "label": "Precompiled"
            },
            {
                "address": "0x0000000000000000000000000000000000000002",
                "label": "Precompiled"
            },
            {
                "address": "0x0000000000000000000000000000000000000003",
                "label": "Precompiled"
            },
            {
                "address": "0x0000000000000000000000000000000000000004",
                "label": "Precompiled"
            }
        ]
    },
    "trace": {
        "accountLabels": null,
        "dataMap": {
            "-1": {
                "invocation": {
                    "address": "0x52599890419a3f2a4ce25b166790e4877a06dbf1",
                    "callData": "",
                    "decodedMethod": null,
                    "errorInfo": "",
                    "fromAddress": "",
                    "gasUsed": 0,
                    "id": -1,
                    "methodDecoded": false,
                    "operation": "",
                    "output": "",
                    "revert": false,
                    "revertMessage": "",
                    "selector": "",
                    "status": false,
                    "value": ""
                },
                "nodeType": 0
            },
            "0": {
                "invocation": {
                    "address": "0x4c218ac55d53e9de63214f7dde5b4db2a5d48ed3",
                    "callData": "0x000000000000000000000000e290ec3d9acc7f9da08afa8e53a114d1fb70db63000000000000000000000000000000000000000000000001270ab15c14ce0000",
                    "decodedMethod": {
                        "callParams": [
                            {
                                "name": "to",
                                "type": "address",
                                "value": "0xe290ec3d9acc7f9da08afa8e53a114d1fb70db63"
                            },
                            {
                                "decimalAvailable": true,
                                "name": "value",
                                "type": "uint256",
                                "value": "21,260,000,000,000,000,000"
                            }
                        ],
                        "constructorArguments": "",
                        "name": "transfer",
                        "returnParams": [
                            {
                                "name": "",
                                "type": "bool",
                                "value": true
                            }
                        ],
                        "signature": "transfer(address,uint256)"
                    },
                    "errorInfo": "",
                    "fromAddress": "0x52599890419a3f2a4ce25b166790e4877a06dbf1",
                    "gasUsed": 51436,
                    "id": 0,
                    "methodDecoded": true,
                    "operation": "CALL",
                    "output": "0x0000000000000000000000000000000000000000000000000000000000000001",
                    "revert": false,
                    "revertMessage": "",
                    "selector": "0xa9059cbb",
                    "status": true,
                    "value": "0"
                },
                "nodeType": 0
            },
            "1": {
                "event": {
                    "contract": "0x4c218ac55d53e9de63214f7dde5b4db2a5d48ed3",
                    "decodedLog": {
                        "name": "Transfer",
                        "params": [
                            {
                                "name": "from",
                                "type": "address",
                                "value": "0x52599890419a3f2a4ce25b166790e4877a06dbf1"
                            },
                            {
                                "name": "to",
                                "type": "address",
                                "value": "0xe290ec3d9acc7f9da08afa8e53a114d1fb70db63"
                            },
                            {
                                "decimalAvailable": true,
                                "name": "value",
                                "type": "uint256",
                                "value": "21,260,000,000,000,000,000"
                            }
                        ],
                        "signature": "Transfer(address,address,uint256)"
                    },
                    "id": 1,
                    "logData": "0x000000000000000000000000000000000000000000000001270ab15c14ce0000",
                    "logDecoded": true,
                    "operation": "EVENT",
                    "revert": false,
                    "status": true,
                    "topics": [
                        "0xddf252ad1be2c89b69c2b068fc378daa952ba7f163c4a11628f55a4df523b3ef",
                        "0x00000000000000000000000052599890419a3f2a4ce25b166790e4877a06dbf1",
                        "0x000000000000000000000000e290ec3d9acc7f9da08afa8e53a114d1fb70db63"
                    ]
                },
                "nodeType": 1
            }
        },
        "gasFlame": [
            {
                "children": [
                    {
                        "children": [
                            {
                                "children": [],
                                "depth": 0,
                                "name": "Initial Gas",
                                "value": 23256
                            },
                            {
                                "children": [],
                                "depth": 0,
                                "name": "Executed Gas",
                                "value": 28180
                            }
                        ],
                        "depth": -1,
                        "name": "Actual Gas Used",
                        "value": 51436
                    },
                    {
                        "children": [],
                        "depth": -1,
                        "name": "Refunded Gas",
                        "value": 0
                    }
                ],
                "depth": -2,
                "name": "Total Gas",
                "value": 51436
            }
        ],
        "isConfirmed": true,
        "mainTrace": [
            {
                "children": [
                    {
                        "children": [
                            {
                                "children": [],
                                "depth": 1,
                                "id": 1,
                                "order": 1
                            }
                        ],
                        "depth": 0,
                        "id": 0,
                        "order": 0
                    }
                ],
                "depth": -1,
                "id": -1,
                "order": -1
            }
        ],
        "mainTraceNodeCount": 2,
        "parentIdMap": {
            "0": -1,
            "1": 0
        },
        "tidyTrace": [
            {
                "children": [
                    {
                        "children": [
                            {
                                "children": [],
                                "depth": 1,
                                "id": 1,
                                "order": 1
                            }
                        ],
                        "depth": 0,
                        "id": 0,
                        "order": 0
                    }
                ],
                "depth": -1,
                "id": -1,
                "order": -1
            }
        ],
        "tidyTraceNodeCount": 2
    },
    "state_change": {
        "stateChanges": [
            {
                "address": "0x4c218ac55d53e9de63214f7dde5b4db2a5d48ed3",
                "erc": "ERC-20",
                "slots": [
                    {
                        "current": "0x000000000000000000000000000000000000000000000001270ab15c14ce0000",
                        "key": "0x2386d15acf46d8d8f61a9075d2d0f54229253ca142d27d860ed6f34b99bd8664",
                        "prev": "0x0000000000000000000000000000000000000000000000000000000000000000"
                    },
                    {
                        "current": "0x000000000000000000000000000000000000000000000c925fecf6b9078c8000",
                        "key": "0xa5a70bdfccaf5d444e5dfddd911be72558aef435c79cd84ea5e372528b77ad5b",
                        "prev": "0x000000000000000000000000000000000000000000000c9386f7a8151c5a8000"
                    }
                ],
                "storageVariables": [
                    {
                        "name": "_balances",
                        "type": "mapping(address => uint256)",
                        "value": {
                            "pairs": [
                                {
                                    "key": "0x52599890419a3f2a4ce25b166790e4877a06dbf1",
                                    "value": {
                                        "current": "59368534600000000000000",
                                        "prev": "59389794600000000000000",
                                        "typeTag": 1
                                    }
                                },
                                {
                                    "key": "0xe290ec3d9acc7f9da08afa8e53a114d1fb70db63",
                                    "value": {
                                        "current": "21260000000000000000",
                                        "prev": "0",
                                        "typeTag": 1
                                    }
                                }
                            ],
                            "typeTag": 4
                        }
                    }
                ]
            }
        ]
    }
}