{
    "balance_change": {
        "balanceChanges": [
            {
                "account": "0xa3069346612b584ba46a39c2c170b080a40febf6",
                "assets": [
                    {
                        "address": "0x6b175474e89094c44da98b954eedeac495271d0f",
                        "amount": "84.867238614040364035",
                        "iconUrl": "https://assets.blocksec.com/icon/39aead569b9c011cb6f69734d9abbc9ab6a80049fe93bbd12bb473a3e0e859a3.png",
                        "isERC1155": false,
                        "isERC721": false,
                        "sign": false,
                        "value": ""
                    }
                ]
            },
            {
                "account": "0x0000000000000000000000000000000000000000",
                "assets": [
                    {
                        "address": "0x6b175474e89094c44da98b954eedeac495271d0f",
                        "amount": "84.867238614040364035",
                        "iconUrl": "https://assets.blocksec.com/icon/39aead569b9c011cb6f69734d9abbc9ab6a80049fe93bbd12bb473a3e0e859a3.png",
                        "isERC1155": false,
                        "isERC721": false,
                        "sign": true,
                        "value": ""
                    }
                ]
            }
        ]
    },
    "profile": {
        "basic_info": {
            "baseFee": "",
            "blockNumber": 9255859,
            "callData": "0x1cff79cd00000000000000000000000082ecd135dce65fbc6dbdd0e4237e0af93ffd5038000000000000000000000000000000000000000000000000000000000000004000000000000000000000000000000000000000000000000000000000000000840aee8dec0000000000000000000000005ef30b9986345249bc32d8928b7ee64de9435e390000000000000000000000009759a6ac90977b93b58547b4a71c78317f391a280000000000000000000000000000000000000000000000000000000000000e29000000000000000000000000986482b0013f6a2dc122d0823d81b51a842a7cad00000000000000000000000000000000000000000000000000000000",
            "debugEnable": true,
            "errorInfo": "",
            "eventCount": 8,
            "feeRecipient": "0x04668ec2f57cc15c381b461b9fedab5d451c8f7f",
            "formatValue": "0",
            "gasLimit": 355506,
            "gasPrice": "8",
            "gasUsed": 171040,
            "intTxnCount": 19,
            "internalRevert": false,
            "internalRevertMessage": "",
            "isContractCreation": false,
            "isFlashloan": false,
            "maxFee": "",
            "nonce": 29,
            "overwritedBlockNumber": -1,
            "priorityFee": "",
            "receiver": "0x986482b0013f6a2dc122d0823d81b51a842a7cad",
            "revertMessage": "",
            "sender": "0xa3069346612b584ba46a39c2c170b080a40febf6",
            "simulationEnable": true,
            "sourceTxnHash": "0xb67dd2f69163a5fe445c2c4e69374e9c3603e439ea5c4f5ef2ed326d43352304",
            "status": true,
            "timestamp": "2020-01-10T22:43:12Z",
            "transactionFee": "0.00136832",
            "txnHash": "0xb67dd2f69163a5fe445c2c4e69374e9c3603e439ea5c4f5ef2ed326d43352304",
            "txnIndex": 27,
            "type": 0,
            "value": "0"
        },
        "fund_flow": [
            {
                "amount": "84.867238614040364035",
                "from": "0xa3069346612b584ba46a39c2c170b080a40febf6",
                "id": 1,
                "isERC1155": false,
                "isERC721": false,
                "isReverted": false,
                "order": 1,
                "to": "0x986482b0013f6a2dc122d0823d81b51a842a7cad",
                "token": "0x6b175474e89094c44da98b954eedeac495271d0f"
            },
            {
                "amount": "84.867238614040364035",
                "from": "0x986482b0013f6a2dc122d0823d81b51a842a7cad",
                "id": 2,
                "isERC1155": false,
                "isERC721": false,
                "isReverted": false,
                "order": 2,
                "to": "0x0000000000000000000000000000000000000000",
                "token": "0x6b175474e89094c44da98b954eedeac495271d0f"
            }
        ],
        "token_infos": [
            {
                "address": "0x6b175474e89094c44da98b954eedeac495271d0f",
                "decimals": 18
            },
            {
                "address": "0xc02aaa39b223fe8d0a0e5c4f27ead9083c756cc2",
                "decimals": 18
            },
            {
                "address": "0xeeeeeeeeeeeeeeeeeeeeeeeeeeeeeeeeeeeeeeee",
                "decimals": 18
            }
        ]
    },
    "address_label": {
        "labels": [
            {
                "address": "0x82ecd135dce65fbc6dbdd0e4237e0af93ffd5038",
                "label": "Maker: Proxy Actions"
            },
            {
                "address": "0x5ef30b9986345249bc32d8928b7ee64de9435e39",
                "label": "Sky: CDP Manager"
            },
            {
                "address": "0x9759a6ac90977b93b58547b4a71c78317f391a28",
                "label": "Sky: MCD Join DAI"
            },
            {
                "address": "0x0000000000000000000000000000000000000001",
                "label": "Precompiled"
            },
            {
                "address": "0x0000000000000000000000000000000000000003",
                "label": "Precompiled"
            },
            {
                "address": "0xeeeeeeeeeeeeeeeeeeeeeeeeeeeeeeeeeeeeeeee",
                "label": "Ether"
            },
            {
                "address": "0x35d1b3f3d7966a1dfe207aa4514c12a259a0492b",
                "label": "Sky: MCD Vat"
            },
            {
                "address": "0x986482b0013f6a2dc122d0823d81b51a842a7cad",
                "label": "DSProxy"
            },
            {
                "address": "0x0000000000000000000000000000000000000002",
                "label": "Precompiled"
            },
            {
                "address": "0x0000000000000000000000000000000000000004",
                "label": "Precompiled"
            },
            {
                "address": "0x6b175474e89094c44da98b954eedeac495271d0f",
                "label": "Sky: Dai Stablecoin"
            }
        ]
    },
    "trace": {
        "accountLabels": null,
        "dataMap": {
            "-1": {
                "invocation": {
                    "address": "0xa3069346612b584ba46a39c2c170b080a40febf6",
                    "callData": "",
                    "decodedMethod": null,
                    "errorInfo": "",
                    "fromAddress": "",
                    "gasUsed": 0,
                    "id": -1,
                    "methodDecoded": false,
                    "operation": "",
                    "output": "",
                    "revert": false,
                    "revertMessage": "",
                    "selector": "",
                    "status": false,
                    "value": ""
                },
                "nodeType": 0
            },
            "0": {
                "invocation": {
                    "address": "0x986482b0013f6a2dc122d0823d81b51a842a7cad",
                    "callData": "0x00000000000000000000000082ecd135dce65fbc6dbdd0e4237e0af93ffd5038000000000000000000000000000000000000000000000000000000000000004000000000000000000000000000000000000000000000000000000000000000840aee8dec0000000000000000000000005ef30b9986345249bc32d8928b7ee64de9435e390000000000000000000000009759a6ac90977b93b58547b4a71c78317f391a280000000000000000000000000000000000000000000000000000000000000e29000000000000000000000000986482b0013f6a2dc122d0823d81b51a842a7cad00000000000000000000000000000000000000000000000000000000",
                    "decodedMethod": {
                        "callParams": [
                            {
                                "name": "_target",
                                "type": "address",
                                "value": "0x82ecd135dce65fbc6dbdd0e4237e0af93ffd5038"
                            },
                            {
                                "name": "_data",
                                "type": "bytes",
                                "value": "0x0aee8dec0000000000000000000000005ef30b9986345249bc32d8928b7ee64de9435e390000000000000000000000009759a6ac90977b93b58547b4a71c78317f391a280000000000000000000000000000000000000000000000000000000000000e29000000000000000000000000986482b0013f6a2dc122d0823d81b51a842a7cad"
                            }
                        ],
                        "constructorArguments": "",
                        "name": "execute",
                        "returnParams": [
                            {
                                "name": "response",
                                "type": "bytes32",
                                "value": "0x0000000000000000000000000000000000000000000000000000000000000000"
                            }
                        ],
                        "signature": "execute(address,bytes)"
                    },
                    "errorInfo": "",
                    "fromAddress": "0xa3069346612b584ba46a39c2c170b080a40febf6",
                    "gasUsed": 171040,
                    "id": 0,
                    "methodDecoded": true,
                    "operation": "CALL",
                    "output": "0x0000000000000000000000000000000000000000000000000000000000000000",
                    "revert": false,
                    "revertMessage": "",
                    "selector": "0x1cff79cd",
                    "status": true,
                    "value": "0"
                },
                "nodeType": 0
            },
            "1": {
                "event": {
                    "contract": "0x986482b0013f6a2dc122d0823d81b51a842a7cad",
                    "decodedLog": null,
                    "id": 1,
                    "logData": "0x0000000000000000000000000000000000000000000000000000000000000000000000000000000000000000000000000000000000000000000000000000004000000000000000000000000000000000000000000000000000000000000001041cff79cd00000000000000000000000082ecd135dce65fbc6dbdd0e4237e0af93ffd5038000000000000000000000000000000000000000000000000000000000000004000000000000000000000000000000000000000000000000000000000000000840aee8dec0000000000000000000000005ef30b9986345249bc32d8928b7ee64de9435e390000000000000000000000009759a6ac90977b93b58547b4a71c78317f391a280000000000000000000000000000000000000000000000000000000000000e29000000000000000000000000986482b0013f6a2dc122d0823d81b51a842a7cad00000000000000000000000000000000000000000000000000000000",
                    "logDecoded": false,
                    "operation": "EVENT",
                    "revert": false,
                    "status": true,
                    "topics": [
                        "0x1cff79cd00000000000000000000000000000000000000000000000000000000",
                        "0x000000000000000000000000a3069346612b584ba46a39c2c170b080a40febf6",
                        "0x00000000000000000000000082ecd135dce65fbc6dbdd0e4237e0af93ffd5038",
                        "0x0000000000000000000000000000000000000000000000000000000000000040"
                    ]
                },
                "nodeType": 1
            },
            "10": {
                "invocation": {
                    "address": "0x35d1b3f3d7966a1dfe207aa4514c12a259a0492b",
                    "callData": "0x4554482d41000000000000000000000000000000000000000000000000000000000000000000000000000000af2e41b08a60f9b86a7a710795714c0f0f231336",
                    "decodedMethod": {
                        "callParams": [
                            {
                                "name": "",
                                "type": "bytes32",
                                "value": "0x4554482d41000000000000000000000000000000000000000000000000000000"
                            },
                            {
                                "name": "",
                                "type": "address",
                                "value": "0xaf2e41b08a60f9b86a7a710795714c0f0f231336"
                            }
                        ],
                        "constructorArguments": "",
                        "name": "urns",
                        "returnParams": [
                            {
                                "name": "ink",
                                "type": "uint256",
                                "value": "3,024,169,838,551,137,369"
                            },
                            {
                                "name": "art",
                                "type": "uint256",
                                "value": "84,327,977,984,378,543,878"
                            }
                        ],
                        "signature": "urns(bytes32,address)"
                    },
                    "errorInfo": "",
                    "fromAddress": "0x986482b0013f6a2dc122d0823d81b51a842a7cad",
                    "gasUsed": 2153,
                    "id": 10,
                    "methodDecoded": true,
                    "operation": "STATICCALL",
                    "output": "0x00000000000000000000000000000000000000000000000029f80272074a7c590000000000000000000000000000000000000000000000049249293021d81f06",
                    "revert": false,
                    "revertMessage": "",
                    "selector": "0x2424be5c",
                    "status": true,
                    "value": "0"
                },
                "nodeType": 0
            },
            "11": {
                "invocation": {
                    "address": "0x35d1b3f3d7966a1dfe207aa4514c12a259a0492b",
                    "callData": "0x000000000000000000000000af2e41b08a60f9b86a7a710795714c0f0f231336",
                    "decodedMethod": {
                        "callParams": [
                            {
                                "name": "",
                                "type": "address",
                                "value": "0xaf2e41b08a60f9b86a7a710795714c0f0f231336"
                            }
                        ],
                        "constructorArguments": "",
                        "name": "dai",
                        "returnParams": [
                            {
                                "name": "",
                                "type": "uint256",
                                "value": "182,316,887,032,800,957,632,361,934"
                            }
                        ],
                        "signature": "dai(address)"
                    },
                    "errorInfo": "",
                    "fromAddress": "0x986482b0013f6a2dc122d0823d81b51a842a7cad",
                    "gasUsed": 1236,
                    "id": 11,
                    "methodDecoded": true,
                    "operation": "STATICCALL",
                    "output": "0x00000000000000000000000000000000000000000096cf1a4005c1f452f435ce",
                    "revert": false,
                    "revertMessage": "",
                    "selector": "0x6c25b346",
                    "status": true,
                    "value": "0"
                },
                "nodeType": 0
            },
            "12": {
                "invocation": {
                    "address": "0x9759a6ac90977b93b58547b4a71c78317f391a28",
                    "callData": "0x",
                    "decodedMethod": {
                        "callParams": [],
                        "constructorArguments": "",
                        "name": "dai",
                        "returnParams": [
                            {
                                "name": "",
                                "type": "address",
                                "value": "0x6b175474e89094c44da98b954eedeac495271d0f"
                            }
                        ],
                        "signature": "dai()"
                    },
                    "errorInfo": "",
                    "fromAddress": "0x986482b0013f6a2dc122d0823d81b51a842a7cad",
                    "gasUsed": 1141,
                    "id": 12,
                    "methodDecoded": true,
                    "operation": "CALL",
                    "output": "0x0000000000000000000000006b175474e89094c44da98b954eedeac495271d0f",
                    "revert": false,
                    "revertMessage": "",
                    "selector": "0xf4b9fa75",
                    "status": true,
                    "value": "0"
                },
                "nodeType": 0
            },
            "13": {
                "invocation": {
                    "address": "0x6b175474e89094c44da98b954eedeac495271d0f",
                    "callData": "0x000000000000000000000000a3069346612b584ba46a39c2c170b080a40febf6000000000000000000000000986482b0013f6a2dc122d0823d81b51a842a7cad00000000000000000000000000000000000000000000000499c4ffdfa230c403",
                    "decodedMethod": {
                        "callParams": [
                            {
                                "name": "src",
                                "type": "address",
                                "value": "0xa3069346612b584ba46a39c2c170b080a40febf6"
                            },
                            {
                                "name": "dst",
                                "type": "address",
                                "value": "0x986482b0013f6a2dc122d0823d81b51a842a7cad"
                            },
                            {
                                "decimalAvailable": true,
                                "name": "wad",
                                "type": "uint256",
                                "value": "84,867,238,614,040,364,035"
                            }
                        ],
                        "constructorArguments": "",
                        "name": "transferFrom",
                        "returnParams": [
                            {
                                "name": "",
                                "type": "bool",
                                "value": true
                            }
                        ],
                        "signature": "transferFrom(address,address,uint256)"
                    },
                    "errorInfo": "",
                    "fromAddress": "0x986482b0013f6a2dc122d0823d81b51a842a7cad",
                    "gasUsed": 31418,
                    "id": 13,
                    "methodDecoded": true,
                    "operation": "CALL",
                    "output": "0x0000000000000000000000000000000000000000000000000000000000000001",
                    "revert": false,
                    "revertMessage": "",
                    "selector": "0x23b872dd",
                    "status": true,
                    "value": "0"
                },
                "nodeType": 0
            },
            "14": {
                "event": {
                    "contract": "0x6b175474e89094c44da98b954eedeac495271d0f",
                    "decodedLog": {
                        "name": "Transfer",
                        "params": [
                            {
                                "name": "src",
                                "type": "address",
                                "value": "0xa3069346612b584ba46a39c2c170b080a40febf6"
                            },
                            {
                                "name": "dst",
                                "type": "address",
                                "value": "0x986482b0013f6a2dc122d0823d81b51a842a7cad"
                            },
                            {
                                "decimalAvailable": true,
                                "name": "wad",
                                "type": "uint256",
                                "value": "84,867,238,614,040,364,035"
                            }
                        ],
                        "signature": "Transfer(address,address,uint256)"
                    },
                    "id": 14,
                    "logData": "0x00000000000000000000000000000000000000000000000499c4ffdfa230c403",
                    "logDecoded": true,
                    "operation": "EVENT",
                    "revert": false,
                    "status": true,
                    "topics": [
                        "0xddf252ad1be2c89b69c2b068fc378daa952ba7f163c4a11628f55a4df523b3ef",
                        "0x000000000000000000000000a3069346612b584ba46a39c2c170b080a40febf6",
                        "0x000000000000000000000000986482b0013f6a2dc122d0823d81b51a842a7cad"
                    ]
                },
                "nodeType": 1
            },
            "15": {
                "invocation": {
                    "address": "0x9759a6ac90977b93b58547b4a71c78317f391a28",
                    "callData": "0x",
                    "decodedMethod": {
                        "callParams": [],
                        "constructorArguments": "",
                        "name": "dai",
                        "returnParams": [
                            {
                                "name": "",
                                "type": "address",
                                "value": "0x6b175474e89094c44da98b954eedeac495271d0f"
                            }
                        ],
                        "signature": "dai()"
                    },
                    "errorInfo": "",
                    "fromAddress": "0x986482b0013f6a2dc122d0823d81b51a842a7cad",
                    "gasUsed": 1141,
                    "id": 15,
                    "methodDecoded": true,
                    "operation": "CALL",
                    "output": "0x0000000000000000000000006b175474e89094c44da98b954eedeac495271d0f",
                    "revert": false,
                    "revertMessage": "",
                    "selector": "0xf4b9fa75",
                    "status": true,
                    "value": "0"
                },
                "nodeType": 0
            },
            "16": {
                "invocation": {
                    "address": "0x6b175474e89094c44da98b954eedeac495271d0f",
                    "callData": "0x0000000000000000000000009759a6ac90977b93b58547b4a71c78317f391a2800000000000000000000000000000000000000000000000499c4ffdfa230c403",
                    "decodedMethod": {
                        "callParams": [
                            {
                                "name": "usr",
                                "type": "address",
                                "value": "0x9759a6ac90977b93b58547b4a71c78317f391a28"
                            },
                            {
                                "decimalAvailable": true,
                                "name": "wad",
                                "type": "uint256",
                                "value": "84,867,238,614,040,364,035"
                            }
                        ],
                        "constructorArguments": "",
                        "name": "approve",
                        "returnParams": [
                            {
                                "name": "",
                                "type": "bool",
                                "value": true
                            }
                        ],
                        "signature": "approve(address,uint256)"
                    },
                    "errorInfo": "",
                    "fromAddress": "0x986482b0013f6a2dc122d0823d81b51a842a7cad",
                    "gasUsed": 22414,
                    "id": 16,
                    "methodDecoded": true,
                    "operation": "CALL",
                    "output": "0x0000000000000000000000000000000000000000000000000000000000000001",
                    "revert": false,
                    "revertMessage": "",
                    "selector": "0x095ea7b3",
                    "status": true,
                    "value": "0"
                },
                "nodeType": 0
            },
            "17": {
                "event": {
                    "contract": "0x6b175474e89094c44da98b954eedeac495271d0f",
                    "decodedLog": {
                        "name": "Approval",
                        "params": [
                            {
                                "name": "src",
                                "type": "address",
                                "value": "0x986482b0013f6a2dc122d0823d81b51a842a7cad"
                            },
                            {
                                "name": "guy",
                                "type": "address",
                                "value": "0x9759a6ac90977b93b58547b4a71c78317f391a28"
                            },
                            {
                                "decimalAvailable": true,
                                "name": "wad",
                                "type": "uint256",
                                "value": "84,867,238,614,040,364,035"
                            }
                        ],
                        "signature": "Approval(address,address,uint256)"
                    },
                    "id": 17,
                    "logData": "0x00000000000000000000000000000000000000000000000499c4ffdfa230c403",
                    "logDecoded": true,
                    "operation": "EVENT",
                    "revert": false,
                    "status": true,
                    "topics": [
                        "0x8c5be1e5ebec7d5bd14f71427d1e84f3dd0314c0f7b2291e5b200ac8c7c3b925",
                        "0x000000000000000000000000986482b0013f6a2dc122d0823d81b51a842a7cad",
                        "0x0000000000000000000000009759a6ac90977b93b58547b4a71c78317f391a28"
                    ]
                },
                "nodeType": 1
            },
            "18": {
                "invocation": {
                    "address": "0x9759a6ac90977b93b58547b4a71c78317f391a28",
                    "callData": "0x000000000000000000000000af2e41b08a60f9b86a7a710795714c0f0f23133600000000000000000000000000000000000000000000000499c4ffdfa230c403",
                    "decodedMethod": {
                        "callParams": [
                            {
                                "name": "usr",
                                "type": "address",
                                "value": "0xaf2e41b08a60f9b86a7a710795714c0f0f231336"
                            },
                            {
                                "name": "wad",
                                "type": "uint256",
                                "value": "84,867,238,614,040,364,035"
                            }
                        ],
                        "constructorArguments": "",
                        "name": "join",
                        "returnParams": [],
                        "signature": "join(address,uint256)"
                    },
                    "errorInfo": "",
                    "fromAddress": "0x986482b0013f6a2dc122d0823d81b51a842a7cad",
                    "gasUsed": 42593,
                    "id": 18,
                    "methodDecoded": true,
                    "operation": "CALL",
                    "output": "",
                    "revert": false,
                    "revertMessage": "",
                    "selector": "0x3b4da69f",
                    "status": true,
                    "value": "0"
                },
                "nodeType": 0
            },
            "19": {
                "invocation": {
                    "address": "0x35d1b3f3d7966a1dfe207aa4514c12a259a0492b",
                    "callData": "0x0000000000000000000000009759a6ac90977b93b58547b4a71c78317f391a28000000000000000000000000af2e41b08a60f9b86a7a710795714c0f0f2313360000000000000000000000000edd941ee6d7b40e7d3ddd762fdba256b8000000",
                    "decodedMethod": {
                        "callParams": [
                            {
                                "name": "src",
                                "type": "address",
                                "value": "0x9759a6ac90977b93b58547b4a71c78317f391a28"
                            },
                            {
                                "name": "dst",
                                "type": "address",
                                "value": "0xaf2e41b08a60f9b86a7a710795714c0f0f231336"
                            },
                            {
                                "name": "rad",
                                "type": "uint256",
                                "value": "84,867,238,614,040,364,035,000,000,000,000,000,000,000,000,000"
                            }
                        ],
                        "constructorArguments": "",
                        "name": "move",
                        "returnParams": [],
                        "signature": "move(address,address,uint256)"
                    },
                    "errorInfo": "",
                    "fromAddress": "0x9759a6ac90977b93b58547b4a71c78317f391a28",
                    "gasUsed": 17943,
                    "id": 19,
                    "methodDecoded": true,
                    "operation": "CALL",
                    "output": "",
                    "revert": false,
                    "revertMessage": "",
                    "selector": "0xbb35783b",
                    "status": true,
                    "value": "0"
                },
                "nodeType": 0
            },
            "2": {
                "invocation": {
                    "address": "0x82ecd135dce65fbc6dbdd0e4237e0af93ffd5038",
                    "callData": "0x0000000000000000000000005ef30b9986345249bc32d8928b7ee64de9435e390000000000000000000000009759a6ac90977b93b58547b4a71c78317f391a280000000000000000000000000000000000000000000000000000000000000e29000000000000000000000000986482b0013f6a2dc122d0823d81b51a842a7cad",
                    "decodedMethod": {
                        "callParams": [
                            {
                                "name": "manager",
                                "type": "address",
                                "value": "0x5ef30b9986345249bc32d8928b7ee64de9435e39"
                            },
                            {
                                "name": "daiJoin",
                                "type": "address",
                                "value": "0x9759a6ac90977b93b58547b4a71c78317f391a28"
                            },
                            {
                                "name": "cdp",
                                "type": "uint256",
                                "value": "3,625"
                            },
                            {
                                "name": "owner",
                                "type": "address",
                                "value": "0x986482b0013f6a2dc122d0823d81b51a842a7cad"
                            }
                        ],
                        "constructorArguments": "",
                        "name": "safeWipeAll",
                        "returnParams": [],
                        "signature": "safeWipeAll(address,address,uint256,address)"
                    },
                    "errorInfo": "",
                    "fromAddress": "0x986482b0013f6a2dc122d0823d81b51a842a7cad",
                    "gasUsed": 193555,
                    "id": 2,
                    "methodDecoded": true,
                    "operation": "DELEGATECALL",
                    "output": "",
                    "revert": false,
                    "revertMessage": "",
                    "selector": "0x0aee8dec",
                    "status": true,
                    "value": "0"
                },
                "nodeType": 0
            },
            "20": {
                "event": {
                    "contract": "0x35d1b3f3d7966a1dfe207aa4514c12a259a0492b",
                    "decodedLog": null,
                    "id": 20,
                    "logData": "0x000000000000000000000000000000000000000000000000000000000000002000000000000000000000000000000000000000000000000000000000000000e0bb35783b0000000000000000000000009759a6ac90977b93b58547b4a71c78317f391a28000000000000000000000000af2e41b08a60f9b86a7a710795714c0f0f2313360000000000000000000000000edd941ee6d7b40e7d3ddd762fdba256b800000000000000000000000000000000000000000000000000000000000000000000000000000000000000000000000000000000000000000000000000000000000000000000000000000000000000000000000000000000000000000000000000000000000000000000000000000000000000000000000000000000000000",
                    "logDecoded": false,
                    "operation": "EVENT",
                    "revert": false,
                    "status": true,
                    "topics": [
                        "0xbb35783b00000000000000000000000000000000000000000000000000000000",
                        "0x0000000000000000000000009759a6ac90977b93b58547b4a71c78317f391a28",
                        "0x000000000000000000000000af2e41b08a60f9b86a7a710795714c0f0f231336",
                        "0x0000000000000000000000000edd941ee6d7b40e7d3ddd762fdba256b8000000"
                    ]
                },
                "nodeType": 1
            },
            "21": {
                "invocation": {
                    "address": "0x6b175474e89094c44da98b954eedeac495271d0f",
                    "callData": "0x000000000000000000000000986482b0013f6a2dc122d0823d81b51a842a7cad00000000000000000000000000000000000000000000000499c4ffdfa230c403",
                    "decodedMethod": {
                        "callParams": [
                            {
                                "name": "usr",
                                "type": "address",
                                "value": "0x986482b0013f6a2dc122d0823d81b51a842a7cad"
                            },
                            {
                                "name": "wad",
                                "type": "uint256",
                                "value": "84,867,238,614,040,364,035"
                            }
                        ],
                        "constructorArguments": "",
                        "name": "burn",
                        "returnParams": [],
                        "signature": "burn(address,uint256)"
                    },
                    "errorInfo": "",
                    "fromAddress": "0x9759a6ac90977b93b58547b4a71c78317f391a28",
                    "gasUsed": 15003,
                    "id": 21,
                    "methodDecoded": true,
                    "operation": "CALL",
                    "output": "",
                    "revert": false,
                    "revertMessage": "",
                    "selector": "0x9dc29fac",
                    "status": true,
                    "value": "0"
                },
                "nodeType": 0
            },
            "22": {
                "event": {
                    "contract": "0x6b175474e89094c44da98b954eedeac495271d0f",
                    "decodedLog": {
                        "name": "Transfer",
                        "params": [
                            {
                                "name": "src",
                                "type": "address",
                                "value": "0x986482b0013f6a2dc122d0823d81b51a842a7cad"
                            },
                            {
                                "name": "dst",
                                "type": "address",
                                "value": "0x0000000000000000000000000000000000000000"
                            },
                            {
                                "decimalAvailable": true,
                                "name": "wad",
                                "type": "uint256",
                                "value": "84,867,238,614,040,364,035"
                            }
                        ],
                        "signature": "Transfer(address,address,uint256)"
                    },
                    "id": 22,
                    "logData": "0x00000000000000000000000000000000000000000000000499c4ffdfa230c403",
                    "logDecoded": true,
                    "operation": "EVENT",
                    "revert": false,
                    "status": true,
                    "topics": [
                        "0xddf252ad1be2c89b69c2b068fc378daa952ba7f163c4a11628f55a4df523b3ef",
                        "0x000000000000000000000000986482b0013f6a2dc122d0823d81b51a842a7cad",
                        "0x0000000000000000000000000000000000000000000000000000000000000000"
                    ]
                },
                "nodeType": 1
            },
            "23": {
                "event": {
                    "contract": "0x9759a6ac90977b93b58547b4a71c78317f391a28",
                    "decodedLog": null,
                    "id": 23,
                    "logData": "0x000000000000000000000000000000000000000000000000000000000000002000000000000000000000000000000000000000000000000000000000000000e03b4da69f000000000000000000000000af2e41b08a60f9b86a7a710795714c0f0f23133600000000000000000000000000000000000000000000000499c4ffdfa230c403000000000000000000000000000000000000000000000000000000000000000000000000000000000000000000000000000000000000000000000000000000000000000000000000000000000000000000000000000000000000000000000000000000000000000000000000000000000000000000000000000000000000000000000000000000000000000000000000000000000000000000000000",
                    "logDecoded": false,
                    "operation": "EVENT",
                    "revert": false,
                    "status": true,
                    "topics": [
                        "0x3b4da69f00000000000000000000000000000000000000000000000000000000",
                        "0x000000000000000000000000986482b0013f6a2dc122d0823d81b51a842a7cad",
                        "0x000000000000000000000000af2e41b08a60f9b86a7a710795714c0f0f231336",
                        "0x00000000000000000000000000000000000000000000000499c4ffdfa230c403"
                    ]
                },
                "nodeType": 1
            },
            "24": {
                "invocation": {
                    "address": "0x5ef30b9986345249bc32d8928b7ee64de9435e39",
                    "callData": "0x0000000000000000000000000000000000000000000000000000000000000e290000000000000000000000000000000000000000000000000000000000000000fffffffffffffffffffffffffffffffffffffffffffffffb6db6d6cfde27e0fa",
                    "decodedMethod": {
                        "callParams": [
                            {
                                "name": "cdp",
                                "type": "uint256",
                                "value": "3,625"
                            },
                            {
                                "name": "dink",
                                "type": "int256",
                                "value": "0"
                            },
                            {
                                "name": "dart",
                                "type": "int256",
                                "value": "-84,327,977,984,378,543,878"
                            }
                        ],
                        "constructorArguments": "",
                        "name": "frob",
                        "returnParams": [],
                        "signature": "frob(uint256,int256,int256)"
                    },
                    "errorInfo": "",
                    "fromAddress": "0x986482b0013f6a2dc122d0823d81b51a842a7cad",
                    "gasUsed": 53188,
                    "id": 24,
                    "methodDecoded": true,
                    "operation": "CALL",
                    "output": "",
                    "revert": false,
                    "revertMessage": "",
                    "selector": "0x45e6bdcd",
                    "status": true,
                    "value": "0"
                },
                "nodeType": 0
            },
            "25": {
                "invocation": {
                    "address": "0x35d1b3f3d7966a1dfe207aa4514c12a259a0492b",
                    "callData": "0x4554482d41000000000000000000000000000000000000000000000000000000000000000000000000000000af2e41b08a60f9b86a7a710795714c0f0f231336000000000000000000000000af2e41b08a60f9b86a7a710795714c0f0f231336000000000000000000000000af2e41b08a60f9b86a7a710795714c0f0f2313360000000000000000000000000000000000000000000000000000000000000000fffffffffffffffffffffffffffffffffffffffffffffffb6db6d6cfde27e0fa",
                    "decodedMethod": {
                        "callParams": [
                            {
                                "name": "i",
                                "type": "bytes32",
                                "value": "0x4554482d41000000000000000000000000000000000000000000000000000000"
                            },
                            {
                                "name": "u",
                                "type": "address",
                                "value": "0xaf2e41b08a60f9b86a7a710795714c0f0f231336"
                            },
                            {
                                "name": "v",
                                "type": "address",
                                "value": "0xaf2e41b08a60f9b86a7a710795714c0f0f231336"
                            },
                            {
                                "name": "w",
                                "type": "address",
                                "value": "0xaf2e41b08a60f9b86a7a710795714c0f0f231336"
                            },
                            {
                                "name": "dink",
                                "type": "int256",
                                "value": "0"
                            },
                            {
                                "name": "dart",
                                "type": "int256",
                                "value": "-84,327,977,984,378,543,878"
                            }
                        ],
                        "constructorArguments": "",
                        "name": "frob",
                        "returnParams": [],
                        "signature": "frob(bytes32,address,address,address,int256,int256)"
                    },
                    "errorInfo": "",
                    "fromAddress": "0x5ef30b9986345249bc32d8928b7ee64de9435e39",
                    "gasUsed": 43177,
                    "id": 25,
                    "methodDecoded": true,
                    "operation": "CALL",
                    "output": "",
                    "revert": false,
                    "revertMessage": "",
                    "selector": "0x76088703",
                    "status": true,
                    "value": "0"
                },
                "nodeType": 0
            },
            "26": {
                "event": {
                    "contract": "0x35d1b3f3d7966a1dfe207aa4514c12a259a0492b",
                    "decodedLog": null,
                    "id": 26,
                    "logData": "0x000000000000000000000000000000000000000000000000000000000000002000000000000000000000000000000000000000000000000000000000000000e0760887034554482d41000000000000000000000000000000000000000000000000000000000000000000000000000000af2e41b08a60f9b86a7a710795714c0f0f231336000000000000000000000000af2e41b08a60f9b86a7a710795714c0f0f231336000000000000000000000000af2e41b08a60f9b86a7a710795714c0f0f2313360000000000000000000000000000000000000000000000000000000000000000fffffffffffffffffffffffffffffffffffffffffffffffb6db6d6cfde27e0fa00000000000000000000000000000000000000000000000000000000",
                    "logDecoded": false,
                    "operation": "EVENT",
                    "revert": false,
                    "status": true,
                    "topics": [
                        "0x7608870300000000000000000000000000000000000000000000000000000000",
                        "0x4554482d41000000000000000000000000000000000000000000000000000000",
                        "0x000000000000000000000000af2e41b08a60f9b86a7a710795714c0f0f231336",
                        "0x000000000000000000000000af2e41b08a60f9b86a7a710795714c0f0f231336"
                    ]
                },
                "nodeType": 1
            },
            "27": {
                "event": {
                    "contract": "0x5ef30b9986345249bc32d8928b7ee64de9435e39",
                    "decodedLog": null,
                    "id": 27,
                    "logData": "0x000000000000000000000000000000000000000000000000000000000000002000000000000000000000000000000000000000000000000000000000000000e045e6bdcd0000000000000000000000000000000000000000000000000000000000000e290000000000000000000000000000000000000000000000000000000000000000fffffffffffffffffffffffffffffffffffffffffffffffb6db6d6cfde27e0fa00000000000000000000000000000000000000000000000000000000000000000000000000000000000000000000000000000000000000000000000000000000000000000000000000000000000000000000000000000000000000000000000000000000000000000000000000000000000000000000000000000000",
                    "logDecoded": false,
                    "operation": "EVENT",
                    "revert": false,
                    "status": true,
                    "topics": [
                        "0x45e6bdcd00000000000000000000000000000000000000000000000000000000",
                        "0x000000000000000000000000986482b0013f6a2dc122d0823d81b51a842a7cad",
                        "0x0000000000000000000000000000000000000000000000000000000000000e29",
                        "0x0000000000000000000000000000000000000000000000000000000000000000"
                    ]
                },
                "nodeType": 1
            },
            "3": {
                "invocation": {
                    "address": "0x5ef30b9986345249bc32d8928b7ee64de9435e39",
                    "callData": "0x0000000000000000000000000000000000000000000000000000000000000e29",
                    "decodedMethod": {
                        "callParams": [
                            {
                                "name": "",
                                "type": "uint256",
                                "value": "3,625"
                            }
                        ],
                        "constructorArguments": "",
                        "name": "owns",
                        "returnParams": [
                            {
                                "name": "",
                                "type": "address",
                                "value": "0x986482b0013f6a2dc122d0823d81b51a842a7cad"
                            }
                        ],
                        "signature": "owns(uint256)"
                    },
                    "errorInfo": "",
                    "fromAddress": "0x986482b0013f6a2dc122d0823d81b51a842a7cad",
                    "gasUsed": 1245,
                    "id": 3,
                    "methodDecoded": true,
                    "operation": "STATICCALL",
                    "output": "0x000000000000000000000000986482b0013f6a2dc122d0823d81b51a842a7cad",
                    "revert": false,
                    "revertMessage": "",
                    "selector": "0x8161b120",
                    "status": true,
                    "value": "0"
                },
                "nodeType": 0
            },
            "4": {
                "invocation": {
                    "address": "0x5ef30b9986345249bc32d8928b7ee64de9435e39",
                    "callData": "0x",
                    "decodedMethod": {
                        "callParams": [],
                        "constructorArguments": "",
                        "name": "vat",
                        "returnParams": [
                            {
                                "name": "",
                                "type": "address",
                                "value": "0x35d1b3f3d7966a1dfe207aa4514c12a259a0492b"
                            }
                        ],
                        "signature": "vat()"
                    },
                    "errorInfo": "",
                    "fromAddress": "0x986482b0013f6a2dc122d0823d81b51a842a7cad",
                    "gasUsed": 1098,
                    "id": 4,
                    "methodDecoded": true,
                    "operation": "STATICCALL",
                    "output": "0x00000000000000000000000035d1b3f3d7966a1dfe207aa4514c12a259a0492b",
                    "revert": false,
                    "revertMessage": "",
                    "selector": "0x36569e77",
                    "status": true,
                    "value": "0"
                },
                "nodeType": 0
            },
            "5": {
                "invocation": {
                    "address": "0x5ef30b9986345249bc32d8928b7ee64de9435e39",
                    "callData": "0x0000000000000000000000000000000000000000000000000000000000000e29",
                    "decodedMethod": {
                        "callParams": [
                            {
                                "name": "",
                                "type": "uint256",
                                "value": "3,625"
                            }
                        ],
                        "constructorArguments": "",
                        "name": "urns",
                        "returnParams": [
                            {
                                "name": "",
                                "type": "address",
                                "value": "0xaf2e41b08a60f9b86a7a710795714c0f0f231336"
                            }
                        ],
                        "signature": "urns(uint256)"
                    },
                    "errorInfo": "",
                    "fromAddress": "0x986482b0013f6a2dc122d0823d81b51a842a7cad",
                    "gasUsed": 1312,
                    "id": 5,
                    "methodDecoded": true,
                    "operation": "STATICCALL",
                    "output": "0x000000000000000000000000af2e41b08a60f9b86a7a710795714c0f0f231336",
                    "revert": false,
                    "revertMessage": "",
                    "selector": "0x2726b073",
                    "status": true,
                    "value": "0"
                },
                "nodeType": 0
            },
            "6": {
                "invocation": {
                    "address": "0x5ef30b9986345249bc32d8928b7ee64de9435e39",
                    "callData": "0x0000000000000000000000000000000000000000000000000000000000000e29",
                    "decodedMethod": {
                        "callParams": [
                            {
                                "name": "",
                                "type": "uint256",
                                "value": "3,625"
                            }
                        ],
                        "constructorArguments": "",
                        "name": "ilks",
                        "returnParams": [
                            {
                                "name": "",
                                "type": "bytes32",
                                "value": "0x4554482d41000000000000000000000000000000000000000000000000000000"
                            }
                        ],
                        "signature": "ilks(uint256)"
                    },
                    "errorInfo": "",
                    "fromAddress": "0x986482b0013f6a2dc122d0823d81b51a842a7cad",
                    "gasUsed": 1186,
                    "id": 6,
                    "methodDecoded": true,
                    "operation": "STATICCALL",
                    "output": "0x4554482d41000000000000000000000000000000000000000000000000000000",
                    "revert": false,
                    "revertMessage": "",
                    "selector": "0x2c2cb9fd",
                    "status": true,
                    "value": "0"
                },
                "nodeType": 0
            },
            "7": {
                "invocation": {
                    "address": "0x35d1b3f3d7966a1dfe207aa4514c12a259a0492b",
                    "callData": "0x4554482d41000000000000000000000000000000000000000000000000000000000000000000000000000000af2e41b08a60f9b86a7a710795714c0f0f231336",
                    "decodedMethod": {
                        "callParams": [
                            {
                                "name": "",
                                "type": "bytes32",
                                "value": "0x4554482d41000000000000000000000000000000000000000000000000000000"
                            },
                            {
                                "name": "",
                                "type": "address",
                                "value": "0xaf2e41b08a60f9b86a7a710795714c0f0f231336"
                            }
                        ],
                        "constructorArguments": "",
                        "name": "urns",
                        "returnParams": [
                            {
                                "name": "ink",
                                "type": "uint256",
                                "value": "3,024,169,838,551,137,369"
                            },
                            {
                                "name": "art",
                                "type": "uint256",
                                "value": "84,327,977,984,378,543,878"
                            }
                        ],
                        "signature": "urns(bytes32,address)"
                    },
                    "errorInfo": "",
                    "fromAddress": "0x986482b0013f6a2dc122d0823d81b51a842a7cad",
                    "gasUsed": 2153,
                    "id": 7,
                    "methodDecoded": true,
                    "operation": "STATICCALL",
                    "output": "0x00000000000000000000000000000000000000000000000029f80272074a7c590000000000000000000000000000000000000000000000049249293021d81f06",
                    "revert": false,
                    "revertMessage": "",
                    "selector": "0x2424be5c",
                    "status": true,
                    "value": "0"
                },
                "nodeType": 0
            },
            "8": {
                "invocation": {
                    "address": "0x5ef30b9986345249bc32d8928b7ee64de9435e39",
                    "callData": "0x0000000000000000000000000000000000000000000000000000000000000e29",
                    "decodedMethod": {
                        "callParams": [
                            {
                                "name": "",
                                "type": "uint256",
                                "value": "3,625"
                            }
                        ],
                        "constructorArguments": "",
                        "name": "owns",
                        "returnParams": [
                            {
                                "name": "",
                                "type": "address",
                                "value": "0x986482b0013f6a2dc122d0823d81b51a842a7cad"
                            }
                        ],
                        "signature": "owns(uint256)"
                    },
                    "errorInfo": "",
                    "fromAddress": "0x986482b0013f6a2dc122d0823d81b51a842a7cad",
                    "gasUsed": 1245,
                    "id": 8,
                    "methodDecoded": true,
                    "operation": "STATICCALL",
                    "output": "0x000000000000000000000000986482b0013f6a2dc122d0823d81b51a842a7cad",
                    "revert": false,
                    "revertMessage": "",
                    "selector": "0x8161b120",
                    "status": true,
                    "value": "0"
                },
                "nodeType": 0
            },
            "9": {
                "invocation": {
                    "address": "0x35d1b3f3d7966a1dfe207aa4514c12a259a0492b",
                    "callData": "0x4554482d41000000000000000000000000000000000000000000000000000000",
                    "decodedMethod": {
                        "callParams": [
                            {
                                "name": "",
                                "type": "bytes32",
                                "value": "0x4554482d41000000000000000000000000000000000000000000000000000000"
                            }
                        ],
                        "constructorArguments": "",
                        "name": "ilks",
                        "returnParams": [
                            {
                                "name": "Art",
                                "type": "uint256",
                                "value": "80,525,684,977,228,019,342,348,949"
                            },
                            {
                                "name": "rate",
                                "type": "uint256",
                                "value": "1,006,394,800,901,804,099,449,466,198"
                            },
                            {
                                "name": "spot",
                                "type": "uint256",
                                "value": "95,346,738,382,466,666,666,666,666,666"
                            },
                            {
                                "name": "line",
                                "type": "uint256",
                                "value": "100,000,000,000,000,000,000,000,000,000,000,000,000,000,000,000,000,000"
                            },
                            {
                                "name": "dust",
                                "type": "uint256",
                                "value": "20,000,000,000,000,000,000,000,000,000,000,000,000,000,000,000"
                            }
                        ],
                        "signature": "ilks(bytes32)"
                    },
                    "errorInfo": "",
                    "fromAddress": "0x986482b0013f6a2dc122d0823d81b51a842a7cad",
                    "gasUsed": 4594,
                    "id": 9,
                    "methodDecoded": true,
                    "operation": "STATICCALL",
                    "output": "0x000000000000000000000000000000000000000000429bfa213160c3dac5929500000000000000000000000000000000000000000340786379cd8bcf556d2d5600000000000000000000000000000000000000013414f934af121321a1a6aaaa000000000000000000010b46c6cdd6e3e0828f4db456ff0c8ea00000000000000000000000000000000000000380d4bd8a8678c1bb542c80deb4800000000000",
                    "revert": false,
                    "revertMessage": "",
                    "selector": "0xd9638d36",
                    "status": true,
                    "value": "0"
                },
                "nodeType": 0
            }
        },
        "gasFlame": [
            {
                "children": [
                    {
                        "children": [
                            {
                                "children": [],
                                "depth": 0,
                                "name": "Initial Gas",
                                "value": 23144
                            },
                            {
                                "children": [
                                    {
                                        "children": [
                                            {
                                                "children": [],
                                                "depth": 2,
                                                "name": "owns",
                                                "value": 1245
                                            },
                                            {
                                                "children": [],
                                                "depth": 2,
                                                "name": "vat",
                                                "value": 1098
                                            },
                                            {
                                                "children": [],
                                                "depth": 2,
                                                "name": "urns",
                                                "value": 1312
                                            },
                                            {
                                                "children": [],
                                                "depth": 2,
                                                "name": "ilks",
                                                "value": 1186
                                            },
                                            {
                                                "children": [],
                                                "depth": 2,
                                                "name": "urns",
                                                "value": 2153
                                            },
                                            {
                                                "children": [],
                                                "depth": 2,
                                                "name": "owns",
                                                "value": 1245
                                            },
                                            {
                                                "children": [],
                                                "depth": 2,
                                                "name": "ilks",
                                                "value": 4594
                                            },
                                            {
                                                "children": [],
                                                "depth": 2,
                                                "name": "urns",
                                                "value": 2153
                                            },
                                            {
                                                "children": [],
                                                "depth": 2,
                                                "name": "dai",
                                                "value": 1236
                                            },
                                            {
                                                "children": [],
                                                "depth": 2,
                                                "name": "dai",
                                                "value": 1141
                                            },
                                            {
                                                "children": [],
                                                "depth": 2,
                                                "name": "transferFrom",
                                                "value": 31418
                                            },
                                            {
                                                "children": [],
                                                "depth": 2,
                                                "name": "dai",
                                                "value": 1141
                                            },
                                            {
                                                "children": [],
                                                "depth": 2,
                                                "name": "approve",
                                                "value": 22414
                                            },
                                            {
                                                "children": [
                                                    {
                                                        "children": [],
                                                        "depth": 3,
                                                        "name": "move",
                                                        "value": 17943
                                                    },
                                                    {
                                                        "children": [],
                                                        "depth": 3,
                                                        "name": "burn",
                                                        "value": 15003
                                                    }
                                                ],
                                                "depth": 2,
                                                "name": "join",
                                                "value": 42593
                                            },
                                            {
                                                "children": [
                                                    {
                                                        "children": [],
                                                        "depth": 3,
                                                        "name": "frob",
                                                        "value": 43177
                                                    }
                                                ],
                                                "depth": 2,
                                                "name": "frob",
                                                "value": 53188
                                            }
                                        ],
                                        "depth": 1,
                                        "name": "safeWipeAll",
                                        "value": 193555
                                    }
                                ],
                                "depth": 0,
                                "name": "Executed Gas",
                                "value": 201296
                            }
                        ],
                        "depth": -1,
                        "name": "Actual Gas Used",
                        "value": 171040
                    },
                    {
                        "children": [],
                        "depth": -1,
                        "name": "Refunded Gas",
                        "value": 53400
                    }
                ],
                "depth": -2,
                "name": "Total Gas",
                "value": 224440
            }
        ],
        "isConfirmed": true,
        "mainTrace": [
            {
                "children": [
                    {
                        "children": [
                            {
                                "children": [],
                                "depth": 1,
                                "id": 1,
                                "order": 1
                            },
                            {
                                "children": [
                                    {
                                        "children": [],
                                        "depth": 2,
                                        "id": 3,
                                        "order": 3
                                    },
                                    {
                                        "children": [],
                                        "depth": 2,
                                        "id": 4,
                                        "order": 4
                                    },
                                    {
                                        "children": [],
                                        "depth": 2,
                                        "id": 5,
                                        "order": 5
                                    },
                                    {
                                        "children": [],
                                        "depth": 2,
                                        "id": 6,
                                        "order": 6
                                    },
                                    {
                                        "children": [],
                                        "depth": 2,
                                        "id": 7,
                                        "order": 7
                                    },
                                    {
                                        "children": [],
                                        "depth": 2,
                                        "id": 8,
                                        "order": 8
                                    },
                                    {
                                        "children": [],
                                        "depth": 2,
                                        "id": 9,
                                        "order": 9
                                    },
                                    {
                                        "children": [],
                                        "depth": 2,
                                        "id": 10,
                                        "order": 10
                                    },
                                    {
                                        "children": [],
                                        "depth": 2,
                                        "id": 11,
                                        "order": 11
                                    },
                                    {
                                        "children": [],
                                        "depth": 2,
                                        "id": 12,
                                        "order": 12
                                    },
                                    {
                                        "children": [
                                            {
                                                "children": [],
                                                "depth": 3,
                                                "id": 14,
                                                "order": 14
                                            }
                                        ],
                                        "depth": 2,
                                        "id": 13,
                                        "order": 13
                                    },
                                    {
                                        "children": [],
                                        "depth": 2,
                                        "id": 15,
                                        "order": 15
                                    },
                                    {
                                        "children": [
                                            {
                                                "children": [],
                                                "depth": 3,
                                                "id": 17,
                                                "order": 17
                                            }
                                        ],
                                        "depth": 2,
                                        "id": 16,
                                        "order": 16
                                    },
                                    {
                                        "children": [
                                            {
                                                "children": [
                                                    {
                                                        "children": [],
                                                        "depth": 4,
                                                        "id": 20,
                                                        "order": 20
                                                    }
                                                ],
                                                "depth": 3,
                                                "id": 19,
                                                "order": 19
                                            },
                                            {
                                                "children": [
                                                    {
                                                        "children": [],
                                                        "depth": 4,
                                                        "id": 22,
                                                        "order": 22
                                                    }
                                                ],
                                                "depth": 3,
                                                "id": 21,
                                                "order": 21
                                            },
                                            {
                                                "children": [],
                                                "depth": 3,
                                                "id": 23,
                                                "order": 23
                                            }
                                        ],
                                        "depth": 2,
                                        "id": 18,
                                        "order": 18
                                    },
                                    {
                                        "children": [
                                            {
                                                "children": [
                                                    {
                                                        "children": [],
                                                        "depth": 4,
                                                        "id": 26,
                                                        "order": 26
                                                    }
                                                ],
                                                "depth": 3,
                                                "id": 25,
                                                "order": 25
                                            },
                                            {
                                                "children": [],
                                                "depth": 3,
                                                "id": 27,
                                                "order": 27
                                            }
                                        ],
                                        "depth": 2,
                                        "id": 24,
                                        "order": 24
                                    }
                                ],
                                "depth": 1,
                                "id": 2,
                                "order": 2
                            }
                        ],
                        "depth": 0,
                        "id": 0,
                        "order": 0
                    }
                ],
                "depth": -1,
                "id": -1,
                "order": -1
            }
        ],
        "mainTraceNodeCount": 28,
        "parentIdMap": {
            "0": -1,
            "1": 0,
            "10": 2,
            "11": 2,
            "12": 2,
            "13": 2,
            "14": 13,
            "15": 2,
            "16": 2,
            "17": 16,
            "18": 2,
            "19": 18,
            "2": 0,
            "20": 19,
            "21": 18,
            "22": 21,
            "23": 18,
            "24": 2,
            "25": 24,
            "26": 25,
            "27": 24,
            "3": 2,
            "4": 2,
            "5": 2,
            "6": 2,
            "7": 2,
            "8": 2,
            "9": 2
        },
        "tidyTrace": [
            {
                "children": [
                    {
                        "children": [
                            {
                                "children": [],
                                "depth": 1,
                                "id": 1,
                                "order": 1
                            },
                            {
                                "children": [
                                    {
                                        "children": [],
                                        "depth": 2,
                                        "id": 12,
                                        "order": 12
                                    },
                                    {
                                        "children": [
                                            {
                                                "children": [],
                                                "depth": 3,
                                                "id": 14,
                                                "order": 14
                                            }
                                        ],
                                        "depth": 2,
                                        "id": 13,
                                        "order": 13
                                    },
                                    {
                                        "children": [],
                                        "depth": 2,
                                        "id": 15,
                                        "order": 15
                                    },
                                    {
                                        "children": [
                                            {
                                                "children": [],
                                                "depth": 3,
                                                "id": 17,
                                                "order": 17
                                            }
                                        ],
                                        "depth": 2,
                                        "id": 16,
                                        "order": 16
                                    },
                                    {
                                        "children": [
                                            {
                                                "children": [
                                                    {
                                                        "children": [],
                                                        "depth": 4,
                                                        "id": 20,
                                                        "order": 20
                                                    }
                                                ],
                                                "depth": 3,
                                                "id": 19,
                                                "order": 19
                                            },
                                            {
                                                "children": [
                                                    {
                                                        "children": [],
                                                        "depth": 4,
                                                        "id": 22,
                                                        "order": 22
                                                    }
                                                ],
                                                "depth": 3,
                                                "id": 21,
                                                "order": 21
                                            },
                                            {
                                                "children": [],
                                                "depth": 3,
                                                "id": 23,
                                                "order": 23
                                            }
                                        ],
                                        "depth": 2,
                                        "id": 18,
                                        "order": 18
                                    },
                                    {
                                        "children": [
                                            {
                                                "children": [
                                                    {
                                                        "children": [],
                                                        "depth": 4,
                                                        "id": 26,
                                                        "order": 26
                                                    }
                                                ],
                                                "depth": 3,
                                                "id": 25,
                                                "order": 25
                                            },
                                            {
                                                "children": [],
                                                "depth": 3,
                                                "id": 27,
                                                "order": 27
                                            }
                                        ],
                                        "depth": 2,
                                        "id": 24,
                                        "order": 24
                                    }
                                ],
                                "depth": 1,
                                "id": 2,
                                "order": 2
                            }
                        ],
                        "depth": 0,
                        "id": 0,
                        "order": 0
                    }
                ],
                "depth": -1,
                "id": -1,
                "order": -1
            }
        ],
        "tidyTraceNodeCount": 19
    },
    "state_change": {
        "stateChanges": [
            {
                "address": "0x35d1b3f3d7966a1dfe207aa4514c12a259a0492b",
                "erc": "",
                "slots": [
                    {
                        "current": "0x000000000000000000000000000000000000000000a0c92485ed95007b57bbca",
                        "key": "0x87fc82c036edd97c153daa61ef257f683987da19a278f5adfd044dd3dfbf9040",
                        "prev": "0x00000000000000000000000000000000000000000096cf1a4005c1f452f435ce"
                    },
                    {
                        "current": "0x0000000000000000000078640de47a44b19f56bb2cf95fbb98bd1fed38000000",
                        "key": "0x7adce341587c7ad28f80a9ef54da0d2f0bfd917b11856be2d246a8c66685b1a0",
                        "prev": "0x0000000000000000000078641cc20e6398770ac9aa373d31c898c243f0000000"
                    },
                    {
                        "current": "0x00000000000000000000ddf24ca396b9b64f234d40a97dec04b82aee00dbca44",
                        "key": "0x0000000000000000000000000000000000000000000000000000000000000007",
                        "prev": "0x00000000000000000000ddf25b812ad89d26d75bbddd6157eeabfa3890784448"
                    },
                    {
                        "current": "0x0000000000000000000000000000000000000000000000000000000000000000",
                        "key": "0xc9e11f0c344f2735c38c0291b25bb3c0651e0180f50b8aae5ac6f6aea32ab78e",
                        "prev": "0x0000000000000000000000000000000000000000000000049249293021d81f06"
                    },
                    {
                        "current": "0x000000000000000000000000000000000000000000429bf58ee83793b8ed738f",
                        "key": "0x5cd43a2b0a7e767504a508ed07c6f6d26130368a2a5ce573193b4c24eba603bb",
                        "prev": "0x000000000000000000000000000000000000000000429bfa213160c3dac59295"
                    }
                ],
                "storageVariables": [
                    {
                        "name": "debt",
                        "type": "uint256",
                        "value": {
                            "current": "83040037561317329436839478822790268555382778794592836",
                            "prev": "83040122428555943477203513810729155053466210415428680",
                            "typeTag": 1
                        }
                    },
                    {
                        "name": "urns",
                        "type": "mapping(bytes32 => mapping(address => struct Vat.Urn))",
                        "value": {
                            "pairs": [
                                {
                                    "key": "0x4554482d41000000000000000000000000000000000000000000000000000000",
                                    "value": {
                                        "pairs": [
                                            {
                                                "key": "0xaf2e41b08a60f9b86a7a710795714c0f0f231336",
                                                "value": {
                                                    "fields": [
                                                        {
                                                            "name": "art",
                                                            "type": "uint256",
                                                            "value": {
                                                                "current": "0",
                                                                "prev": "84327977984378543878",
                                                                "typeTag": 1
                                                            }
                                                        }
                                                    ],
                                                    "typeTag": 3
                                                }
                                            }
                                        ],
                                        "typeTag": 4
                                    }
                                }
                            ],
                            "typeTag": 4
                        }
                    },
                    {
                        "name": "ilks",
                        "type": "mapping(bytes32 => struct Vat.Ilk)",
                        "value": {
                            "pairs": [
                                {
                                    "key": "0x4554482d41000000000000000000000000000000000000000000000000000000",
                                    "value": {
                                        "fields": [
                                            {
                                                "name": "Art",
                                                "type": "uint256",
                                                "value": {
                                                    "current": "80525600649250034963805071",
                                                    "prev": "80525684977228019342348949",
                                                    "typeTag": 1
                                                }
                                            }
                                        ],
                                        "typeTag": 3
                                    }
                                }
                            ],
                            "typeTag": 4
                        }
                    },
                    {
                        "name": "dai",
                        "type": "mapping(address => uint256)",
                        "value": {
                            "pairs": [
                                {
                                    "key": "0x9759a6ac90977b93b58547b4a71c78317f391a28",
                                    "value": {
                                        "current": "45043559774639428099248403000000000000000000000000000",
                                        "prev": "45043644641878042139612438000000000000000000000000000",
                                        "typeTag": 1
                                    }
                                },
                                {
                                    "key": "0xaf2e41b08a60f9b86a7a710795714c0f0f231336",
                                    "value": {
                                        "current": "194378000534717526011526090",
                                        "prev": "182316887032800957632361934",
                                        "typeTag": 1
                                    }
                                }
                            ],
                            "typeTag": 4
                        }
                    }
                ]
            },
            {
                "address": "0x6b175474e89094c44da98b954eedeac495271d0f",
                "erc": "ERC-20",
                "slots": [
                    {
                        "current": "0x000000000000000000000000000000000000000000000000380c3beae8dc63fd",
                        "key": "0x2a9e2870a19bd8b64d86212096994f4b8e4a0da2584f791b40236b2f09ce338b",
                        "prev": "0x000000000000000000000000000000000000000000000004d1d13bca8b0d2800"
                    },
                    {
                        "current": "0x00000000000000000000000000000000000000000025425844a93ac0da1a1113",
                        "key": "0x0000000000000000000000000000000000000000000000000000000000000001",
                        "prev": "0x00000000000000000000000000000000000000000025425cde6e3aa07c4ad516"
                    }
                ],
                "storageVariables": [
                    {
                        "name": "balanceOf",
                        "type": "mapping(address => uint256)",
                        "value": {
                            "pairs": [
                                {
                                    "key": "0xa3069346612b584ba46a39c2c170b080a40febf6",
                                    "value": {
                                        "current": "4038668845959635965",
                                        "prev": "88905907460000000000",
                                        "typeTag": 1
                                    }
                                }
                            ],
                            "typeTag": 4
                        }
                    },
                    {
                        "name": "totalSupply",
                        "type": "uint256",
                        "value": {
                            "current": "45043559774639428099248403",
                            "prev": "45043644641878042139612438",
                            "typeTag": 1
                        }
                    }
                ]
            }
        ]
    }
}