{
    "balance_change": {
        "balanceChanges": [
            {
                "account": "0x788fb9b1a10b5772afc29876caec6086bca25122",
                "assets": [
                    {
                        "address": "0xdc0327d50e6c73db2f8117760592c8bbf1cdcf38",
                        "amount": "7.278814285714285714",
                        "iconUrl": "",
                        "isERC1155": false,
                        "isERC721": false,
                        "sign": true,
                        "value": "18.87089496"
                    },
                    {
                        "address": "0xeeeeeeeeeeeeeeeeeeeeeeeeeeeeeeeeeeeeeeee",
                        "amount": "0.003838530127844599",
                        "iconUrl": "https://assets.blocksec.com/image/1663669189317-3.png",
                        "isERC1155": false,
                        "isERC721": false,
                        "sign": false,
                        "value": "4.5610751403545361014"
                    }
                ]
            },
            {
                "account": "0xfbddadd80fe7bda00b901fbaf73803f2238ae655",
                "assets": [
                    {
                        "address": "0xeeeeeeeeeeeeeeeeeeeeeeeeeeeeeeeeeeeeeeee",
                        "amount": "0.0000000075336497",
                        "iconUrl": "https://assets.blocksec.com/image/1663669189317-3.png",
                        "isERC1155": false,
                        "isERC721": false,
                        "sign": true,
                        "value": "0.00000895174486508795452"
                    },
                    {
                        "address": "0xdc0327d50e6c73db2f8117760592c8bbf1cdcf38",
                        "amount": "7.278814285714285714",
                        "iconUrl": "",
                        "isERC1155": false,
                        "isERC721": false,
                        "sign": false,
                        "value": "18.87089496"
                    }
                ]
            },
            {
                "account": "0x4b5057b2c87ec9e7c047fb00c0e406dff2fdacad",
                "assets": [
                    {
                        "address": "0xeeeeeeeeeeeeeeeeeeeeeeeeeeeeeeeeeeeeeeee",
                        "amount": "0.003838522594194899",
                        "iconUrl": "https://assets.blocksec.com/image/1663669189317-3.png",
                        "isERC1155": false,
                        "isERC721": false,
                        "sign": true,
                        "value": "4.561066188193432358"
                    }
                ]
            }
        ]
    },
    "profile": {
        "basic_info": {
            "baseFee": "18.849847616",
            "blockNumber": 15150960,
            "callData": "0x03a9ea6d000000000000000000000000000000000000000000000000000000000000000b0000000000000000000000000000000000000000000000000000000000e72f6a00000000000000000000000000000000000000000000000000000000000000000000000000000000000000000000000000000000000000007e17e7de1643559600000000000000000000000000000000000000000000000000000000000000a000000000000000000000000000000000000000000000000000000000000000413b3c1ce5e5a86189d6012d757fe83fa6829e90a8d9723fa29be14223d5ad0ab23bf5ee571e4e85184468ff7cf16d6fe7f64fb8ff45b8d4554075ac38b15592e41c00000000000000000000000000000000000000000000000000000000000000",
            "debugEnable": true,
            "errorInfo": "",
            "eventCount": 2,
            "feeRecipient": "0x3ecef08d0e2dad803847e052249bb4f8bff2d5bb",
            "formatValue": "0.003838530127844599",
            "gasLimit": 212135,
            "gasPrice": "20.349847616",
            "gasUsed": 207211,
            "intTxnCount": 8,
            "internalRevert": false,
            "internalRevertMessage": "",
            "isContractCreation": false,
            "isFlashloan": false,
            "maxFee": "24.482437146",
            "nonce": 265,
            "overwritedBlockNumber": -1,
            "priorityFee": "1.5",
            "receiver": "0xfbddadd80fe7bda00b901fbaf73803f2238ae655",
            "revertMessage": "",
            "sender": "0x788fb9b1a10b5772afc29876caec6086bca25122",
            "simulationEnable": true,
            "sourceTxnHash": "0xb6ae521a773548db96027f3ea3736fb6edbbe3b0b97a050cc11c1bac1111cbb2",
            "status": true,
            "timestamp": "2022-07-16T02:15:49Z",
            "transactionFee": "0.004216712274358976",
            "txnHash": "0xb6ae521a773548db96027f3ea3736fb6edbbe3b0b97a050cc11c1bac1111cbb2",
            "txnIndex": 84,
            "type": 2,
            "value": "3838530127844599"
        },
        "fund_flow": [
            {
                "amount": "0.003838530127844599",
                "from": "0x788fb9b1a10b5772afc29876caec6086bca25122",
                "id": 1,
                "isERC1155": false,
                "isERC721": false,
                "isReverted": false,
                "order": 1,
                "to": "0xfbddadd80fe7bda00b901fbaf73803f2238ae655",
                "token": "0xeeeeeeeeeeeeeeeeeeeeeeeeeeeeeeeeeeeeeeee"
            },
            {
                "amount": "7.278814285714285714",
                "from": "0xfbddadd80fe7bda00b901fbaf73803f2238ae655",
                "id": 2,
                "isERC1155": false,
                "isERC721": false,
                "isReverted": false,
                "order": 2,
                "to": "0x788fb9b1a10b5772afc29876caec6086bca25122",
                "token": "0xdc0327d50e6c73db2f8117760592c8bbf1cdcf38"
            },
            {
                "amount": "0.003838522594194899",
                "from": "0xfbddadd80fe7bda00b901fbaf73803f2238ae655",
                "id": 3,
                "isERC1155": false,
                "isERC721": false,
                "isReverted": false,
                "order": 3,
                "to": "0x4b5057b2c87ec9e7c047fb00c0e406dff2fdacad",
                "token": "0xeeeeeeeeeeeeeeeeeeeeeeeeeeeeeeeeeeeeeeee"
            }
        ],
        "token_infos": [
            {
                "address": "0xc02aaa39b223fe8d0a0e5c4f27ead9083c756cc2",
                "decimals": 18
            },
            {
                "address": "0xdc0327d50e6c73db2f8117760592c8bbf1cdcf38",
                "decimals": 18
            },
            {
                "address": "0xeeeeeeeeeeeeeeeeeeeeeeeeeeeeeeeeeeeeeeee",
                "decimals": 18
            }
        ]
    },
    "address_label": {
        "labels": [
            {
                "address": "0x0000000000000000000000000000000000000004",
                "label": "Precompiled"
            },
            {
                "address": "0xeeeeeeeeeeeeeeeeeeeeeeeeeeeeeeeeeeeeeeee",
                "label": "Ether"
            },
            {
                "address": "0x3d66d374cff558b9d988996786afb1eb6c31ef8b",
                "label": "AdminUpgradeabilityProxy_3d66_ef8b"
            },
            {
                "address": "0x40568bdb8fa8c35905938b33806f03902549a000",
                "label": "ServiceV24"
            },
            {
                "address": "0x2a8e126e36954e9394d4978f08b7884eefcaa2c4",
                "label": "StrongNFTBonusV10"
            },
            {
                "address": "0x0000000000000000000000000000000000000001",
                "label": "Precompiled"
            },
            {
                "address": "0x0000000000000000000000000000000000000002",
                "label": "Precompiled"
            },
            {
                "address": "0x0000000000000000000000000000000000000003",
                "label": "Precompiled"
            },
            {
                "address": "0xcca06cd29c61123d9d65b904b18174382380ca64",
                "label": "StrongNFTBonusDeprecated"
            },
            {
                "address": "0xdc0327d50e6c73db2f8117760592c8bbf1cdcf38",
                "label": "StrongBlock: STRNGR Token"
            },
            {
                "address": "0xfbddadd80fe7bda00b901fbaf73803f2238ae655",
                "label": "StrongBlock: Service"
            },
            {
                "address": "0x1a50be5dc5dd721f3e337816b23002c9c5e4b812",
                "label": "AdminUpgradeabilityProxy"
            }
        ]
    },
    "trace": {
        "accountLabels": null,
        "dataMap": {
            "-1": {
                "invocation": {
                    "address": "0x788fb9b1a10b5772afc29876caec6086bca25122",
                    "callData": "",
                    "decodedMethod": null,
                    "errorInfo": "",
                    "fromAddress": "",
                    "gasUsed": 0,
                    "id": -1,
                    "methodDecoded": false,
                    "operation": "",
                    "output": "",
                    "revert": false,
                    "revertMessage": "",
                    "selector": "",
                    "status": false,
                    "value": ""
                },
                "nodeType": 0
            },
            "0": {
                "invocation": {
                    "address": "0xfbddadd80fe7bda00b901fbaf73803f2238ae655",
                    "callData": "0x000000000000000000000000000000000000000000000000000000000000000b0000000000000000000000000000000000000000000000000000000000e72f6a00000000000000000000000000000000000000000000000000000000000000000000000000000000000000000000000000000000000000007e17e7de1643559600000000000000000000000000000000000000000000000000000000000000a000000000000000000000000000000000000000000000000000000000000000413b3c1ce5e5a86189d6012d757fe83fa6829e90a8d9723fa29be14223d5ad0ab23bf5ee571e4e85184468ff7cf16d6fe7f64fb8ff45b8d4554075ac38b15592e41c00000000000000000000000000000000000000000000000000000000000000",
                    "decodedMethod": {
                        "callParams": [
                            {
                                "name": "nodeId",
                                "type": "uint128",
                                "value": "11"
                            },
                            {
                                "name": "blockNumber",
                                "type": "uint256",
                                "value": "15,150,954"
                            },
                            {
                                "name": "toStrongPool",
                                "type": "bool",
                                "value": false
                            },
                            {
                                "name": "claimedTotal",
                                "type": "uint256",
                                "value": "9,085,985,714,285,532,566"
                            },
                            {
                                "name": "signature",
                                "type": "bytes",
                                "value": "0x3b3c1ce5e5a86189d6012d757fe83fa6829e90a8d9723fa29be14223d5ad0ab23bf5ee571e4e85184468ff7cf16d6fe7f64fb8ff45b8d4554075ac38b15592e41c"
                            }
                        ],
                        "constructorArguments": "",
                        "name": "claim",
                        "returnParams": [
                            {
                                "name": "",
                                "type": "uint256",
                                "value": "3,838,522,594,194,899"
                            }
                        ],
                        "signature": "claim(uint128,uint256,bool,uint256,bytes)"
                    },
                    "errorInfo": "",
                    "fromAddress": "0x788fb9b1a10b5772afc29876caec6086bca25122",
                    "gasUsed": 207211,
                    "id": 0,
                    "methodDecoded": true,
                    "operation": "CALL",
                    "output": "0x000000000000000000000000000000000000000000000000000da31dafb075d3",
                    "revert": false,
                    "revertMessage": "",
                    "selector": "0x03a9ea6d",
                    "status": true,
                    "value": "0.003838530127844599"
                },
                "nodeType": 0
            },
            "1": {
                "invocation": {
                    "address": "0x40568bdb8fa8c35905938b33806f03902549a000",
                    "callData": "0x000000000000000000000000000000000000000000000000000000000000000b0000000000000000000000000000000000000000000000000000000000e72f6a00000000000000000000000000000000000000000000000000000000000000000000000000000000000000000000000000000000000000007e17e7de1643559600000000000000000000000000000000000000000000000000000000000000a000000000000000000000000000000000000000000000000000000000000000413b3c1ce5e5a86189d6012d757fe83fa6829e90a8d9723fa29be14223d5ad0ab23bf5ee571e4e85184468ff7cf16d6fe7f64fb8ff45b8d4554075ac38b15592e41c00000000000000000000000000000000000000000000000000000000000000",
                    "decodedMethod": {
                        "callParams": [
                            {
                                "name": "nodeId",
                                "type": "uint128",
                                "value": "11"
                            },
                            {
                                "name": "blockNumber",
                                "type": "uint256",
                                "value": "15,150,954"
                            },
                            {
                                "name": "toStrongPool",
                                "type": "bool",
                                "value": false
                            },
                            {
                                "name": "claimedTotal",
                                "type": "uint256",
                                "value": "9,085,985,714,285,532,566"
                            },
                            {
                                "name": "signature",
                                "type": "bytes",
                                "value": "0x3b3c1ce5e5a86189d6012d757fe83fa6829e90a8d9723fa29be14223d5ad0ab23bf5ee571e4e85184468ff7cf16d6fe7f64fb8ff45b8d4554075ac38b15592e41c"
                            }
                        ],
                        "constructorArguments": "",
                        "name": "claim",
                        "returnParams": [
                            {
                                "name": "",
                                "type": "uint256",
                                "value": "3,838,522,594,194,899"
                            }
                        ],
                        "signature": "claim(uint128,uint256,bool,uint256,bytes)"
                    },
                    "errorInfo": "",
                    "fromAddress": "0xfbddadd80fe7bda00b901fbaf73803f2238ae655",
                    "gasUsed": 176726,
                    "id": 1,
                    "methodDecoded": true,
                    "operation": "DELEGATECALL",
                    "output": "0x000000000000000000000000000000000000000000000000000da31dafb075d3",
                    "revert": false,
                    "revertMessage": "",
                    "selector": "0x03a9ea6d",
                    "status": true,
                    "value": "0.003838530127844599"
                },
                "nodeType": 0
            },
            "10": {
                "invocation": {
                    "address": "0x4b5057b2c87ec9e7c047fb00c0e406dff2fdacad",
                    "callData": "0x",
                    "decodedMethod": null,
                    "errorInfo": "",
                    "fromAddress": "0xfbddadd80fe7bda00b901fbaf73803f2238ae655",
                    "gasUsed": 0,
                    "id": 10,
                    "methodDecoded": false,
                    "operation": "CALL",
                    "output": "",
                    "revert": false,
                    "revertMessage": "",
                    "selector": "fallback",
                    "status": true,
                    "value": "0.003838522594194899"
                },
                "nodeType": 0
            },
            "2": {
                "invocation": {
                    "address": "0x1a50be5dc5dd721f3e337816b23002c9c5e4b812",
                    "callData": "0x000000000000000000000000788fb9b1a10b5772afc29876caec6086bca25122000000000000000000000000000000000000000000000000000000000000000b0000000000000000000000000000000000000000000000000000000000df691d0000000000000000000000000000000000000000000000000000000000e72f6a",
                    "decodedMethod": {
                        "callParams": [
                            {
                                "name": "_entity",
                                "type": "address",
                                "value": "0x788fb9b1a10b5772afc29876caec6086bca25122"
                            },
                            {
                                "name": "_nodeId",
                                "type": "uint128",
                                "value": "11"
                            },
                            {
                                "name": "_from",
                                "type": "uint256",
                                "value": "14,641,437"
                            },
                            {
                                "name": "_to",
                                "type": "uint256",
                                "value": "15,150,954"
                            }
                        ],
                        "constructorArguments": "",
                        "name": "getBonus",
                        "returnParams": [
                            {
                                "name": "",
                                "type": "uint256",
                                "value": "0"
                            }
                        ],
                        "signature": "getBonus(address,uint128,uint256,uint256)"
                    },
                    "errorInfo": "",
                    "fromAddress": "0xfbddadd80fe7bda00b901fbaf73803f2238ae655",
                    "gasUsed": 54400,
                    "id": 2,
                    "methodDecoded": true,
                    "operation": "STATICCALL",
                    "output": "0x0000000000000000000000000000000000000000000000000000000000000000",
                    "revert": false,
                    "revertMessage": "",
                    "selector": "0xb07d9cbb",
                    "status": true,
                    "value": "0"
                },
                "nodeType": 0
            },
            "3": {
                "invocation": {
                    "address": "0x2a8e126e36954e9394d4978f08b7884eefcaa2c4",
                    "callData": "0x000000000000000000000000788fb9b1a10b5772afc29876caec6086bca25122000000000000000000000000000000000000000000000000000000000000000b0000000000000000000000000000000000000000000000000000000000df691d0000000000000000000000000000000000000000000000000000000000e72f6a",
                    "decodedMethod": {
                        "callParams": [
                            {
                                "name": "_entity",
                                "type": "address",
                                "value": "0x788fb9b1a10b5772afc29876caec6086bca25122"
                            },
                            {
                                "name": "_nodeId",
                                "type": "uint128",
                                "value": "11"
                            },
                            {
                                "name": "_from",
                                "type": "uint256",
                                "value": "14,641,437"
                            },
                            {
                                "name": "_to",
                                "type": "uint256",
                                "value": "15,150,954"
                            }
                        ],
                        "constructorArguments": "",
                        "name": "getBonus",
                        "returnParams": [
                            {
                                "name": "",
                                "type": "uint256",
                                "value": "0"
                            }
                        ],
                        "signature": "getBonus(address,uint128,uint256,uint256)"
                    },
                    "errorInfo": "",
                    "fromAddress": "0x1a50be5dc5dd721f3e337816b23002c9c5e4b812",
                    "gasUsed": 47142,
                    "id": 3,
                    "methodDecoded": true,
                    "operation": "DELEGATECALL",
                    "output": "0x0000000000000000000000000000000000000000000000000000000000000000",
                    "revert": false,
                    "revertMessage": "",
                    "selector": "0xb07d9cbb",
                    "status": true,
                    "value": "0"
                },
                "nodeType": 0
            },
            "4": {
                "invocation": {
                    "address": "0x3d66d374cff558b9d988996786afb1eb6c31ef8b",
                    "callData": "0x000000000000000000000000788fb9b1a10b5772afc29876caec6086bca25122000000000000000000000000000000000000000000000000000000000000000b",
                    "decodedMethod": {
                        "callParams": [
                            {
                                "name": "_entity",
                                "type": "address",
                                "value": "0x788fb9b1a10b5772afc29876caec6086bca25122"
                            },
                            {
                                "name": "_nodeId",
                                "type": "uint128",
                                "value": "11"
                            }
                        ],
                        "constructorArguments": "",
                        "name": "getStakedNftId",
                        "returnParams": [
                            {
                                "name": "",
                                "type": "uint256",
                                "value": "0"
                            }
                        ],
                        "signature": "getStakedNftId(address,uint128)"
                    },
                    "errorInfo": "",
                    "fromAddress": "0x1a50be5dc5dd721f3e337816b23002c9c5e4b812",
                    "gasUsed": 9944,
                    "id": 4,
                    "methodDecoded": true,
                    "operation": "STATICCALL",
                    "output": "0x0000000000000000000000000000000000000000000000000000000000000000",
                    "revert": false,
                    "revertMessage": "",
                    "selector": "0x3418c894",
                    "status": true,
                    "value": "0"
                },
                "nodeType": 0
            },
            "5": {
                "invocation": {
                    "address": "0xcca06cd29c61123d9d65b904b18174382380ca64",
                    "callData": "0x000000000000000000000000788fb9b1a10b5772afc29876caec6086bca25122000000000000000000000000000000000000000000000000000000000000000b",
                    "decodedMethod": {
                        "callParams": [
                            {
                                "name": "_entity",
                                "type": "address",
                                "value": "0x788fb9b1a10b5772afc29876caec6086bca25122"
                            },
                            {
                                "name": "_nodeId",
                                "type": "uint128",
                                "value": "11"
                            }
                        ],
                        "constructorArguments": "",
                        "name": "getStakedNftId",
                        "returnParams": [
                            {
                                "name": "",
                                "type": "uint256",
                                "value": "0"
                            }
                        ],
                        "signature": "getStakedNftId(address,uint128)"
                    },
                    "errorInfo": "",
                    "fromAddress": "0x3d66d374cff558b9d988996786afb1eb6c31ef8b",
                    "gasUsed": 2665,
                    "id": 5,
                    "methodDecoded": true,
                    "operation": "DELEGATECALL",
                    "output": "0x0000000000000000000000000000000000000000000000000000000000000000",
                    "revert": false,
                    "revertMessage": "",
                    "selector": "0x3418c894",
                    "status": true,
                    "value": "0"
                },
                "nodeType": 0
            },
            "6": {
                "invocation": {
                    "address": "0x0000000000000000000000000000000000000001",
                    "callData": "0xfeb465d880cc557601388c1a6a27f1bba7508fb9626bfcceae5c7cc7000000000000000000000000000000000000000000000000000000000000001c3b3c1ce5e5a86189d6012d757fe83fa6829e90a8d9723fa29be14223d5ad0ab23bf5ee571e4e85184468ff7cf16d6fe7f64fb8ff45b8d4554075ac38b15592e4",
                    "decodedMethod": {
                        "callParams": [
                            {
                                "name": "hash",
                                "type": "bytes32",
                                "value": "0x89c5643dfeb465d880cc557601388c1a6a27f1bba7508fb9626bfcceae5c7cc7"
                            },
                            {
                                "name": "v",
                                "type": "uint256",
                                "value": "28"
                            },
                            {
                                "name": "r",
                                "type": "bytes32",
                                "value": "0x3b3c1ce5e5a86189d6012d757fe83fa6829e90a8d9723fa29be14223d5ad0ab2"
                            },
                            {
                                "name": "s",
                                "type": "bytes32",
                                "value": "0x3bf5ee571e4e85184468ff7cf16d6fe7f64fb8ff45b8d4554075ac38b15592e4"
                            }
                        ],
                        "constructorArguments": "",
                        "name": "ecrecover",
                        "returnParams": [
                            {
                                "name": "",
                                "type": "address",
                                "value": "0xcaa6f3fa9357dc054332ba4ac026017de8a751dd"
                            }
                        ],
                        "signature": "ecrecover(bytes32,uint256,bytes32,bytes32)"
                    },
                    "errorInfo": "",
                    "fromAddress": "0xfbddadd80fe7bda00b901fbaf73803f2238ae655",
                    "gasUsed": 3000,
                    "id": 6,
                    "methodDecoded": true,
                    "operation": "STATICCALL",
                    "output": "0x000000000000000000000000caa6f3fa9357dc054332ba4ac026017de8a751dd",
                    "revert": false,
                    "revertMessage": "",
                    "selector": "0x89c5643d",
                    "status": true,
                    "value": "0"
                },
                "nodeType": 0
            },
            "7": {
                "event": {
                    "contract": "0xfbddadd80fe7bda00b901fbaf73803f2238ae655",
                    "decodedLog": {
                        "name": "Claimed",
                        "params": [
                            {
                                "name": "user",
                                "type": "address",
                                "value": "0x788fb9b1a10b5772afc29876caec6086bca25122"
                            },
                            {
                                "name": "amount",
                                "type": "uint256",
                                "value": "7,278,814,285,714,285,714"
                            }
                        ],
                        "signature": "Claimed(address,uint256)"
                    },
                    "id": 7,
                    "logData": "0x00000000000000000000000000000000000000000000000065038b072e09e492",
                    "logDecoded": true,
                    "operation": "EVENT",
                    "revert": false,
                    "status": true,
                    "topics": [
                        "0xd8138f8a3f377c5259ca548e70e4c2de94f129f5a11036a15b69513cba2b426a",
                        "0x000000000000000000000000788fb9b1a10b5772afc29876caec6086bca25122"
                    ]
                },
                "nodeType": 1
            },
            "8": {
                "invocation": {
                    "address": "0xdc0327d50e6c73db2f8117760592c8bbf1cdcf38",
                    "callData": "0x000000000000000000000000788fb9b1a10b5772afc29876caec6086bca2512200000000000000000000000000000000000000000000000065038b072e09e492",
                    "decodedMethod": {
                        "callParams": [
                            {
                                "name": "to",
                                "type": "address",
                                "value": "0x788fb9b1a10b5772afc29876caec6086bca25122"
                            },
                            {
                                "decimalAvailable": true,
                                "name": "amount",
                                "type": "uint256",
                                "value": "7,278,814,285,714,285,714"
                            }
                        ],
                        "constructorArguments": "",
                        "name": "transfer",
                        "returnParams": [
                            {
                                "name": "",
                                "type": "bool",
                                "value": true
                            }
                        ],
                        "signature": "transfer(address,uint256)"
                    },
                    "errorInfo": "",
                    "fromAddress": "0xfbddadd80fe7bda00b901fbaf73803f2238ae655",
                    "gasUsed": 13662,
                    "id": 8,
                    "methodDecoded": true,
                    "operation": "CALL",
                    "output": "0x0000000000000000000000000000000000000000000000000000000000000001",
                    "revert": false,
                    "revertMessage": "",
                    "selector": "0xa9059cbb",
                    "status": true,
                    "value": "0"
                },
                "nodeType": 0
            },
            "9": {
                "event": {
                    "contract": "0xdc0327d50e6c73db2f8117760592c8bbf1cdcf38",
                    "decodedLog": {
                        "name": "Transfer",
                        "params": [
                            {
                                "name": "from",
                                "type": "address",
                                "value": "0xfbddadd80fe7bda00b901fbaf73803f2238ae655"
                            },
                            {
                                "name": "to",
                                "type": "address",
                                "value": "0x788fb9b1a10b5772afc29876caec6086bca25122"
                            },
                            {
                                "decimalAvailable": true,
                                "name": "value",
                                "type": "uint256",
                                "value": "7,278,814,285,714,285,714"
                            }
                        ],
                        "signature": "Transfer(address,address,uint256)"
                    },
                    "id": 9,
                    "logData": "0x00000000000000000000000000000000000000000000000065038b072e09e492",
                    "logDecoded": true,
                    "operation": "EVENT",
                    "revert": false,
                    "status": true,
                    "topics": [
                        "0xddf252ad1be2c89b69c2b068fc378daa952ba7f163c4a11628f55a4df523b3ef",
                        "0x000000000000000000000000fbddadd80fe7bda00b901fbaf73803f2238ae655",
                        "0x000000000000000000000000788fb9b1a10b5772afc29876caec6086bca25122"
                    ]
                },
                "nodeType": 1
            }
        },
        "gasFlame": [
            {
                "children": [
                    {
                        "children": [
                            {
                                "children": [],
                                "depth": 0,
                                "name": "Initial Gas",
                                "value": 23164
                            },
                            {
                                "children": [
                                    {
                                        "children": [
                                            {
                                                "children": [
                                                    {
                                                        "children": [
                                                            {
                                                                "children": [
                                                                    {
                                                                        "children": [],
                                                                        "depth": 5,
                                                                        "name": "getStakedNftId",
                                                                        "value": 2665
                                                                    }
                                                                ],
                                                                "depth": 4,
                                                                "name": "getStakedNftId",
                                                                "value": 9944
                                                            }
                                                        ],
                                                        "depth": 3,
                                                        "name": "getBonus",
                                                        "value": 47142
                                                    }
                                                ],
                                                "depth": 2,
                                                "name": "getBonus",
                                                "value": 54400
                                            },
                                            {
                                                "children": [],
                                                "depth": 2,
                                                "name": "ecrecover",
                                                "value": 3000
                                            },
                                            {
                                                "children": [],
                                                "depth": 2,
                                                "name": "transfer",
                                                "value": 13662
                                            },
                                            {
                                                "children": [],
                                                "depth": 2,
                                                "name": "fallback",
                                                "value": 0
                                            }
                                        ],
                                        "depth": 1,
                                        "name": "claim",
                                        "value": 176726
                                    }
                                ],
                                "depth": 0,
                                "name": "Executed Gas",
                                "value": 184047
                            }
                        ],
                        "depth": -1,
                        "name": "Actual Gas Used",
                        "value": 207211
                    },
                    {
                        "children": [],
                        "depth": -1,
                        "name": "Refunded Gas",
                        "value": 0
                    }
                ],
                "depth": -2,
                "name": "Total Gas",
                "value": 207211
            }
        ],
        "isConfirmed": true,
        "mainTrace": [
            {
                "children": [
                    {
                        "children": [
                            {
                                "children": [
                                    {
                                        "children": [
                                            {
                                                "children": [
                                                    {
                                                        "children": [
                                                            {
                                                                "children": [],
                                                                "depth": 5,
                                                                "id": 5,
                                                                "order": 5
                                                            }
                                                        ],
                                                        "depth": 4,
                                                        "id": 4,
                                                        "order": 4
                                                    }
                                                ],
                                                "depth": 3,
                                                "id": 3,
                                                "order": 3
                                            }
                                        ],
                                        "depth": 2,
                                        "id": 2,
                                        "order": 2
                                    },
                                    {
                                        "children": [],
                                        "depth": 2,
                                        "id": 6,
                                        "order": 6
                                    },
                                    {
                                        "children": [],
                                        "depth": 2,
                                        "id": 7,
                                        "order": 7
                                    },
                                    {
                                        "children": [
                                            {
                                                "children": [],
                                                "depth": 3,
                                                "id": 9,
                                                "order": 9
                                            }
                                        ],
                                        "depth": 2,
                                        "id": 8,
                                        "order": 8
                                    },
                                    {
                                        "children": [],
                                        "depth": 2,
                                        "id": 10,
                                        "order": 10
                                    }
                                ],
                                "depth": 1,
                                "id": 1,
                                "order": 1
                            }
                        ],
                        "depth": 0,
                        "id": 0,
                        "order": 0
                    }
                ],
                "depth": -1,
                "id": -1,
                "order": -1
            }
        ],
        "mainTraceNodeCount": 11,
        "parentIdMap": {
            "0": -1,
            "1": 0,
            "10": 1,
            "2": 1,
            "3": 2,
            "4": 3,
            "5": 4,
            "6": 1,
            "7": 1,
            "8": 1,
            "9": 8
        },
        "tidyTrace": [
            {
                "children": [
                    {
                        "children": [
                            {
                                "children": [
                                    {
                                        "children": [],
                                        "depth": 2,
                                        "id": 7,
                                        "order": 7
                                    },
                                    {
                                        "children": [
                                            {
                                                "children": [],
                                                "depth": 3,
                                                "id": 9,
                                                "order": 9
                                            }
                                        ],
                                        "depth": 2,
                                        "id": 8,
                                        "order": 8
                                    },
                                    {
                                        "children": [],
                                        "depth": 2,
                                        "id": 10,
                                        "order": 10
                                    }
                                ],
                                "depth": 1,
                                "id": 1,
                                "order": 1
                            }
                        ],
                        "depth": 0,
                        "id": 0,
                        "order": 0
                    }
                ],
                "depth": -1,
                "id": -1,
                "order": -1
            }
        ],
        "tidyTraceNodeCount": 6
    },
    "state_change": {
        "stateChanges": [
            {
                "address": "0xdc0327d50e6c73db2f8117760592c8bbf1cdcf38",
                "erc": "ERC-20",
                "slots": [
                    {
                        "current": "0x000000000000000000000000000000000000000000000742114e3a550d4087fb",
                        "key": "0xb73d57ea57b9d8939177a255f0818cf6fd76cb78df58bf3c8b47a1faae3e8a16",
                        "prev": "0x0000000000000000000000000000000000000000000007427651c55c3b4a6c8d"
                    },
                    {
                        "current": "0x000000000000000000000000000000000000000000000002044556793d2a49d2",
                        "key": "0x5cdd72a8c962a4305e87dd90222f9ad3dd0df212cb8af5fa5c3a105346b0af8c",
                        "prev": "0x0000000000000000000000000000000000000000000000019f41cb720f206540"
                    }
                ],
                "storageVariables": [
                    {
                        "name": "_balances",
                        "type": "mapping(address => uint256)",
                        "value": {
                            "pairs": [
                                {
                                    "key": "0x788fb9b1a10b5772afc29876caec6086bca25122",
                                    "value": {
                                        "current": "37201235375681063378",
                                        "prev": "29922421089966777664",
                                        "typeTag": 1
                                    }
                                },
                                {
                                    "key": "0xfbddadd80fe7bda00b901fbaf73803f2238ae655",
                                    "value": {
                                        "current": "34275297487236144072699",
                                        "prev": "34282576301521858358413",
                                        "typeTag": 1
                                    }
                                }
                            ],
                            "typeTag": 4
                        }
                    }
                ]
            },
            {
                "address": "0xfbddadd80fe7bda00b901fbaf73803f2238ae655",
                "erc": "",
                "slots": [
                    {
                        "current": "0x00000000000000000000000000000000000000000000073c0573fec4a04412f0",
                        "key": "0x0000000000000000000000000000000000000000000000000000000000000014",
                        "prev": "0x00000000000000000000000000000000000000000000073c6a7789cbce4df782"
                    },
                    {
                        "current": "0x0000000000000000000000000000000000000000000000000000000000e72f6a",
                        "key": "0xde54a0c00304637f68158976fafa985853c8085d9db000dd96045261b79d7bfb",
                        "prev": "0x0000000000000000000000000000000000000000000000000000000000df691d"
                    },
                    {
                        "current": "0x000000000000000000000000000000000000000000000000e31b72e5444d3a28",
                        "key": "0x75c21f3b54b4302423550dbe689246b89c9d8eedc9fa2d3a8391f1465247c4a5",
                        "prev": "0x0000000000000000000000000000000000000000000000000000000000000000"
                    }
                ],
                "storageVariables": [
                    {
                        "name": "rewardBalance",
                        "type": "uint256",
                        "value": {
                            "current": "34163762962223056818928",
                            "prev": "34171041776508771104642",
                            "typeTag": 1
                        }
                    },
                    {
                        "name": "entityNodeClaimedOnBlock",
                        "type": "mapping(bytes => uint256)",
                        "value": {
                            "pairs": [
                                {
                                    "key": "0x788fb9b1a10b5772afc29876caec6086bca251220000000000000000000000000000000b",
                                    "value": {
                                        "current": "15150954",
                                        "prev": "14641437",
                                        "typeTag": 1
                                    }
                                }
                            ],
                            "typeTag": 4
                        }
                    },
                    {
                        "name": "entityNodeClaimedTotal",
                        "type": "mapping(bytes => uint256)",
                        "value": {
                            "pairs": [
                                {
                                    "key": "0x788fb9b1a10b5772afc29876caec6086bca251220000000000000000000000000000000b",
                                    "value": {
                                        "current": "16364799999999818280",
                                        "prev": "0",
                                        "typeTag": 1
                                    }
                                }
                            ],
                            "typeTag": 4
                        }
                    }
                ]
            }
        ]
    }
}