{
    "balance_change": {
        "balanceChanges": []
    },
    "profile": {
        "basic_info": {
            "baseFee": "12.766379344",
            "blockNumber": 16316102,
            "callData": "0xf242432a00000000000000000000000027c3bfe8650215a51d2b925a1410d9003517ca450000000000000000000000002190d4ee2bfc8883c3d71f4b5f41acd7a7287ff50000000000000000000000000000000000000000000000000000000000000001000000000000000000000000000000000000000000000000000000000000000100000000000000000000000000000000000000000000000000000000000000a00000000000000000000000000000000000000000000000000000000000000000",
            "debugEnable": true,
            "errorInfo": "execution reverted",
            "eventCount": 0,
            "feeRecipient": "0x199d5ed7f45f4ee35960cf22eade2076e95b253f",
            "formatValue": "0",
            "gasLimit": 65185,
            "gasPrice": "14",
            "gasUsed": 38459,
            "intTxnCount": 1,
            "internalRevert": true,
            "internalRevertMessage": "",
            "isContractCreation": false,
            "isFlashloan": false,
            "maxFee": "",
            "nonce": 9,
            "overwritedBlockNumber": -1,
            "priorityFee": "",
            "receiver": "0x95c7df9bb4d1cf75b1069570df837917a4b32eb8",
            "revertMessage": "*ERC1155: insufficient balance for transfer",
            "sender": "0x27c3bfe8650215a51d2b925a1410d9003517ca45",
            "simulationEnable": true,
            "sourceTxnHash": "0xb6b8cb344bfd29e6a079ccc544556ecb441e76d0070a2c1ab7ca484816495185",
            "status": false,
            "timestamp": "2023-01-02T02:28:23Z",
            "transactionFee": "0.000538426",
            "txnHash": "0xb6b8cb344bfd29e6a079ccc544556ecb441e76d0070a2c1ab7ca484816495185",
            "txnIndex": 98,
            "type": 0,
            "value": "0"
        },
        "fund_flow": [],
        "token_infos": [
            {
                "address": "0xc02aaa39b223fe8d0a0e5c4f27ead9083c756cc2",
                "decimals": 18
            },
            {
                "address": "0xeeeeeeeeeeeeeeeeeeeeeeeeeeeeeeeeeeeeeeee",
                "decimals": 18
            }
        ]
    },
    "address_label": {
        "labels": [
            {
                "address": "0x95c7df9bb4d1cf75b1069570df837917a4b32eb8",
                "label": "Burn Adventures (burna)"
            },
            {
                "address": "0x6bf5ed59de0e19999d264746843ff931c0133090",
                "label": "Manifold ERC1155 Creator (M1155)"
            },
            {
                "address": "0x0000000000000000000000000000000000000001",
                "label": "Precompiled"
            },
            {
                "address": "0x0000000000000000000000000000000000000002",
                "label": "Precompiled"
            },
            {
                "address": "0x0000000000000000000000000000000000000003",
                "label": "Precompiled"
            },
            {
                "address": "0x0000000000000000000000000000000000000004",
                "label": "Precompiled"
            },
            {
                "address": "0xeeeeeeeeeeeeeeeeeeeeeeeeeeeeeeeeeeeeeeee",
                "label": "Ether"
            }
        ]
    },
    "trace": {
        "accountLabels": null,
        "dataMap": {
            "-1": {
                "invocation": {
                    "address": "0x27c3bfe8650215a51d2b925a1410d9003517ca45",
                    "callData": "",
                    "decodedMethod": null,
                    "errorInfo": "",
                    "fromAddress": "",
                    "gasUsed": 0,
                    "id": -1,
                    "methodDecoded": false,
                    "operation": "",
                    "output": "",
                    "revert": false,
                    "revertMessage": "",
                    "selector": "",
                    "status": false,
                    "value": ""
                },
                "nodeType": 0
            },
            "0": {
                "invocation": {
                    "address": "0x95c7df9bb4d1cf75b1069570df837917a4b32eb8",
                    "callData": "0x00000000000000000000000027c3bfe8650215a51d2b925a1410d9003517ca450000000000000000000000002190d4ee2bfc8883c3d71f4b5f41acd7a7287ff50000000000000000000000000000000000000000000000000000000000000001000000000000000000000000000000000000000000000000000000000000000100000000000000000000000000000000000000000000000000000000000000a00000000000000000000000000000000000000000000000000000000000000000",
                    "decodedMethod": {
                        "callParams": [
                            {
                                "name": "from",
                                "type": "address",
                                "value": "0x27c3bfe8650215a51d2b925a1410d9003517ca45"
                            },
                            {
                                "name": "to",
                                "type": "address",
                                "value": "0x2190d4ee2bfc8883c3d71f4b5f41acd7a7287ff5"
                            },
                            {
                                "name": "id",
                                "type": "uint256",
                                "value": "1"
                            },
                            {
                                "name": "amount",
                                "type": "uint256",
                                "value": "1"
                            },
                            {
                                "name": "data",
                                "type": "bytes",
                                "value": "0x"
                            }
                        ],
                        "constructorArguments": "",
                        "name": "safeTransferFrom",
                        "returnParams": [],
                        "signature": "safeTransferFrom(address,address,uint256,uint256,bytes)"
                    },
                    "errorInfo": "execution reverted",
                    "fromAddress": "0x27c3bfe8650215a51d2b925a1410d9003517ca45",
                    "gasUsed": 38459,
                    "id": 0,
                    "methodDecoded": true,
                    "operation": "CALL",
                    "output": "0x08c379a00000000000000000000000000000000000000000000000000000000000000020000000000000000000000000000000000000000000000000000000000000002a455243313135353a20696e73756666696369656e742062616c616e636520666f72207472616e7366657200000000000000000000000000000000000000000000",
                    "revert": true,
                    "revertMessage": "*ERC1155: insufficient balance for transfer",
                    "selector": "0xf242432a",
                    "status": false,
                    "value": "0"
                },
                "nodeType": 0
            },
            "1": {
                "invocation": {
                    "address": "0x6bf5ed59de0e19999d264746843ff931c0133090",
                    "callData": "0x00000000000000000000000027c3bfe8650215a51d2b925a1410d9003517ca450000000000000000000000002190d4ee2bfc8883c3d71f4b5f41acd7a7287ff50000000000000000000000000000000000000000000000000000000000000001000000000000000000000000000000000000000000000000000000000000000100000000000000000000000000000000000000000000000000000000000000a00000000000000000000000000000000000000000000000000000000000000000",
                    "decodedMethod": {
                        "callParams": [
                            {
                                "name": "from",
                                "type": "address",
                                "value": "0x27c3bfe8650215a51d2b925a1410d9003517ca45"
                            },
                            {
                                "name": "to",
                                "type": "address",
                                "value": "0x2190d4ee2bfc8883c3d71f4b5f41acd7a7287ff5"
                            },
                            {
                                "name": "id",
                                "type": "uint256",
                                "value": "1"
                            },
                            {
                                "name": "amount",
                                "type": "uint256",
                                "value": "1"
                            },
                            {
                                "name": "data",
                                "type": "bytes",
                                "value": "0x"
                            }
                        ],
                        "constructorArguments": "",
                        "name": "safeTransferFrom",
                        "returnParams": [],
                        "signature": "safeTransferFrom(address,address,uint256,uint256,bytes)"
                    },
                    "errorInfo": "execution reverted",
                    "fromAddress": "0x95c7df9bb4d1cf75b1069570df837917a4b32eb8",
                    "gasUsed": 11158,
                    "id": 1,
                    "methodDecoded": true,
                    "operation": "DELEGATECALL",
                    "output": "0x08c379a00000000000000000000000000000000000000000000000000000000000000020000000000000000000000000000000000000000000000000000000000000002a455243313135353a20696e73756666696369656e742062616c616e636520666f72207472616e7366657200000000000000000000000000000000000000000000",
                    "revert": true,
                    "revertMessage": "*ERC1155: insufficient balance for transfer",
                    "selector": "0xf242432a",
                    "status": false,
                    "value": "0"
                },
                "nodeType": 0
            }
        },
        "gasFlame": [
            {
                "children": [
                    {
                        "children": [
                            {
                                "children": [],
                                "depth": 0,
                                "name": "Initial Gas",
                                "value": 22336
                            },
                            {
                                "children": [
                                    {
                                        "children": [],
                                        "depth": 1,
                                        "name": "safeTransferFrom",
                                        "value": 11158
                                    }
                                ],
                                "depth": 0,
                                "name": "Executed Gas",
                                "value": 16123
                            }
                        ],
                        "depth": -1,
                        "name": "Actual Gas Used",
                        "value": 38459
                    },
                    {
                        "children": [],
                        "depth": -1,
                        "name": "Refunded Gas",
                        "value": 0
                    }
                ],
                "depth": -2,
                "name": "Total Gas",
                "value": 38459
            }
        ],
        "isConfirmed": true,
        "mainTrace": [
            {
                "children": [
                    {
                        "children": [
                            {
                                "children": [],
                                "depth": 1,
                                "id": 1,
                                "order": 1
                            }
                        ],
                        "depth": 0,
                        "id": 0,
                        "order": 0
                    }
                ],
                "depth": -1,
                "id": -1,
                "order": -1
            }
        ],
        "mainTraceNodeCount": 2,
        "parentIdMap": {
            "0": -1,
            "1": 0
        },
        "tidyTrace": [
            {
                "children": [
                    {
                        "children": [
                            {
                                "children": [],
                                "depth": 1,
                                "id": 1,
                                "order": 1
                            }
                        ],
                        "depth": 0,
                        "id": 0,
                        "order": 0
                    }
                ],
                "depth": -1,
                "id": -1,
                "order": -1
            }
        ],
        "tidyTraceNodeCount": 2
    },
    "state_change": {
        "stateChanges": []
    }
}