{
    "balance_change": {
        "balanceChanges": [
            {
                "account": "0x7008f1da67c7ba098e9a67c328948f6e1710ffdc",
                "assets": [
                    {
                        "address": "0x4d224452801aced8b2f0aebe155379bb5d594381",
                        "amount": "610",
                        "iconUrl": "https://assets.blocksec.com/icon/2edd169b33ddc44d0c2362c907ae50b3b0aed7e6e08bf6f72599647136aeddd0.png",
                        "isERC1155": false,
                        "isERC721": false,
                        "sign": false,
                        "value": "9496.944210000000179"
                    },
                    {
                        "address": "0x34d85c9cdeb23fa97cb08333b511ac86e1c4e258",
                        "amount": "1",
                        "iconUrl": "https://assets.blocksec.com/nft/icon/nft_74647b38-0759-43d4-86e9-7fad1f775289.png",
                        "isERC1155": false,
                        "isERC721": true,
                        "sign": true,
                        "tokenID": "92325",
                        "value": ""
                    },
                    {
                        "address": "0x34d85c9cdeb23fa97cb08333b511ac86e1c4e258",
                        "amount": "1",
                        "iconUrl": "https://assets.blocksec.com/nft/icon/nft_74647b38-0759-43d4-86e9-7fad1f775289.png",
                        "isERC1155": false,
                        "isERC721": true,
                        "sign": true,
                        "tokenID": "92326",
                        "value": ""
                    }
                ]
            },
            {
                "account": "0x34d85c9cdeb23fa97cb08333b511ac86e1c4e258",
                "assets": [
                    {
                        "address": "0x4d224452801aced8b2f0aebe155379bb5d594381",
                        "amount": "610",
                        "iconUrl": "https://assets.blocksec.com/icon/2edd169b33ddc44d0c2362c907ae50b3b0aed7e6e08bf6f72599647136aeddd0.png",
                        "isERC1155": false,
                        "isERC721": false,
                        "sign": true,
                        "value": "9496.944210000000179"
                    }
                ]
            },
            {
                "account": "0x0000000000000000000000000000000000000000",
                "assets": [
                    {
                        "address": "0x34d85c9cdeb23fa97cb08333b511ac86e1c4e258",
                        "amount": "1",
                        "iconUrl": "https://assets.blocksec.com/nft/icon/nft_74647b38-0759-43d4-86e9-7fad1f775289.png",
                        "isERC1155": false,
                        "isERC721": true,
                        "sign": false,
                        "tokenID": "92325",
                        "value": ""
                    },
                    {
                        "address": "0x34d85c9cdeb23fa97cb08333b511ac86e1c4e258",
                        "amount": "1",
                        "iconUrl": "https://assets.blocksec.com/nft/icon/nft_74647b38-0759-43d4-86e9-7fad1f775289.png",
                        "isERC1155": false,
                        "isERC721": true,
                        "sign": false,
                        "tokenID": "92326",
                        "value": ""
                    }
                ]
            }
        ]
    },
    "profile": {
        "basic_info": {
            "baseFee": "5736.082558116",
            "blockNumber": 14689486,
            "callData": "0x3fa8e1b500000000000000000000000000000000000000000000000000000000000000020000000000000000000000000000000000000000000000000000000000000040000000000000000000000000000000000000000000000000000000000000000ffc01143e74089d2ef55ec3956e98a1e76904dbda9cb8b3e6b3e1f73d0e8a2bb090e12e361bcc29e9679a8d9137ea4d827428eae4491319d85aa9f6846d4f438367d4acf96d286fcb21a09bb30046d311a80e5b5dab28cf12f081fc1089502cd11d808f1f85bc204b194ffb0d8d965b49a27ea9ba2fc26edb3e41fac73b94b5179859189e2598620fd18021d1b57dcf0730e8fa24144897f59f8c29f8557b34efa078cc5af81974ec99eb30355f18ab8f2239cdb5aefc219738cdcd71e8b22f207e0a5dba4361f5faba59f016508b99aaec9ca8e1eea282c851d50192a00da02a6c403ecc9dd14298dc165129b91af968df0afb888d575274c90ce821ee5cfc81b4ba3d187a435171e1af28d776e997f7760990c3341f43ffe50af9cf1e2bab99c8494ccc5e0202b45f14e56afe9dbcebdf7f97889669d09e1d7d678fa3b34e83ed1357e22a93af298bd8b0ffedebd416c31c07142612efb5eea6b7ef7336e9dba9525bfd688eab4fde5cbeb9ff10dd74f3e8b7d4ae7abe9b8f94f1624e8ea32a303bb90d7ed16f50d7b49e7c91a895541895f16a999574bc3f288cf1411883d87a9a9288e6eb2432ff524c742c23a7bb1b117a79208ddc6dd3a439dcd0d5aaa35b2f35616ef4997c7f30dcc8bb941919fb4bab170424187ae676a1594ba69bc0",
            "debugEnable": true,
            "errorInfo": "",
            "eventCount": 5,
            "feeRecipient": "0xea674fdde714fd979de3edf0f56aa9716b898ec8",
            "formatValue": "0",
            "gasLimit": 355290,
            "gasPrice": "5900",
            "gasUsed": 350302,
            "intTxnCount": 1,
            "internalRevert": false,
            "internalRevertMessage": "",
            "isContractCreation": false,
            "isFlashloan": false,
            "maxFee": "5900",
            "nonce": 216,
            "overwritedBlockNumber": -1,
            "priorityFee": "5500",
            "receiver": "0x34d85c9cdeb23fa97cb08333b511ac86e1c4e258",
            "revertMessage": "",
            "sender": "0x7008f1da67c7ba098e9a67c328948f6e1710ffdc",
            "simulationEnable": true,
            "sourceTxnHash": "0xb772d8f3ecdae2702a9873a8640f59d6cb9110442dbf59f92ec6c47997717cf1",
            "status": true,
            "timestamp": "2022-05-01T03:15:04Z",
            "transactionFee": "2.0667818",
            "txnHash": "0xb772d8f3ecdae2702a9873a8640f59d6cb9110442dbf59f92ec6c47997717cf1",
            "txnIndex": 118,
            "type": 2,
            "value": "0"
        },
        "fund_flow": [
            {
                "amount": "610",
                "from": "0x7008f1da67c7ba098e9a67c328948f6e1710ffdc",
                "id": 1,
                "isERC1155": false,
                "isERC721": false,
                "isReverted": false,
                "order": 1,
                "to": "0x34d85c9cdeb23fa97cb08333b511ac86e1c4e258",
                "token": "0x4d224452801aced8b2f0aebe155379bb5d594381"
            },
            {
                "amount": "1",
                "from": "0x0000000000000000000000000000000000000000",
                "id": 2,
                "isERC1155": false,
                "isERC721": true,
                "isReverted": false,
                "order": 2,
                "to": "0x7008f1da67c7ba098e9a67c328948f6e1710ffdc",
                "token": "0x34d85c9cdeb23fa97cb08333b511ac86e1c4e258",
                "tokenID": "92325"
            },
            {
                "amount": "1",
                "from": "0x0000000000000000000000000000000000000000",
                "id": 3,
                "isERC1155": false,
                "isERC721": true,
                "isReverted": false,
                "order": 3,
                "to": "0x7008f1da67c7ba098e9a67c328948f6e1710ffdc",
                "token": "0x34d85c9cdeb23fa97cb08333b511ac86e1c4e258",
                "tokenID": "92326"
            }
        ],
        "token_infos": [
            {
                "address": "0x4d224452801aced8b2f0aebe155379bb5d594381",
                "decimals": 18
            },
            {
                "address": "0xc02aaa39b223fe8d0a0e5c4f27ead9083c756cc2",
                "decimals": 18
            },
            {
                "address": "0xeeeeeeeeeeeeeeeeeeeeeeeeeeeeeeeeeeeeeeee",
                "decimals": 18
            }
        ]
    },
    "address_label": {
        "labels": [
            {
                "address": "0x0000000000000000000000000000000000000001",
                "label": "Precompiled"
            },
            {
                "address": "0x0000000000000000000000000000000000000002",
                "label": "Precompiled"
            },
            {
                "address": "0x0000000000000000000000000000000000000003",
                "label": "Precompiled"
            },
            {
                "address": "0x0000000000000000000000000000000000000004",
                "label": "Precompiled"
            },
            {
                "address": "0xeeeeeeeeeeeeeeeeeeeeeeeeeeeeeeeeeeeeeeee",
                "label": "Ether"
            },
            {
                "address": "0x4d224452801aced8b2f0aebe155379bb5d594381",
                "label": "Apecoin: APE Token"
            },
            {
                "address": "0x34d85c9cdeb23fa97cb08333b511ac86e1c4e258",
                "label": "The Otherside: OTHR Token"
            }
        ]
    },
    "trace": {
        "accountLabels": null,
        "dataMap": {
            "-1": {
                "invocation": {
                    "address": "0x7008f1da67c7ba098e9a67c328948f6e1710ffdc",
                    "callData": "",
                    "decodedMethod": null,
                    "errorInfo": "",
                    "fromAddress": "",
                    "gasUsed": 0,
                    "id": -1,
                    "methodDecoded": false,
                    "operation": "",
                    "output": "",
                    "revert": false,
                    "revertMessage": "",
                    "selector": "",
                    "status": false,
                    "value": ""
                },
                "nodeType": 0
            },
            "0": {
                "invocation": {
                    "address": "0x34d85c9cdeb23fa97cb08333b511ac86e1c4e258",
                    "callData": "0x00000000000000000000000000000000000000000000000000000000000000020000000000000000000000000000000000000000000000000000000000000040000000000000000000000000000000000000000000000000000000000000000ffc01143e74089d2ef55ec3956e98a1e76904dbda9cb8b3e6b3e1f73d0e8a2bb090e12e361bcc29e9679a8d9137ea4d827428eae4491319d85aa9f6846d4f438367d4acf96d286fcb21a09bb30046d311a80e5b5dab28cf12f081fc1089502cd11d808f1f85bc204b194ffb0d8d965b49a27ea9ba2fc26edb3e41fac73b94b5179859189e2598620fd18021d1b57dcf0730e8fa24144897f59f8c29f8557b34efa078cc5af81974ec99eb30355f18ab8f2239cdb5aefc219738cdcd71e8b22f207e0a5dba4361f5faba59f016508b99aaec9ca8e1eea282c851d50192a00da02a6c403ecc9dd14298dc165129b91af968df0afb888d575274c90ce821ee5cfc81b4ba3d187a435171e1af28d776e997f7760990c3341f43ffe50af9cf1e2bab99c8494ccc5e0202b45f14e56afe9dbcebdf7f97889669d09e1d7d678fa3b34e83ed1357e22a93af298bd8b0ffedebd416c31c07142612efb5eea6b7ef7336e9dba9525bfd688eab4fde5cbeb9ff10dd74f3e8b7d4ae7abe9b8f94f1624e8ea32a303bb90d7ed16f50d7b49e7c91a895541895f16a999574bc3f288cf1411883d87a9a9288e6eb2432ff524c742c23a7bb1b117a79208ddc6dd3a439dcd0d5aaa35b2f35616ef4997c7f30dcc8bb941919fb4bab170424187ae676a1594ba69bc0",
                    "decodedMethod": {
                        "callParams": [
                            {
                                "name": "numLands",
                                "type": "uint256",
                                "value": "2"
                            },
                            {
                                "name": "merkleProof",
                                "type": "bytes32[]",
                                "value": [
                                    "0xfc01143e74089d2ef55ec3956e98a1e76904dbda9cb8b3e6b3e1f73d0e8a2bb0",
                                    "0x90e12e361bcc29e9679a8d9137ea4d827428eae4491319d85aa9f6846d4f4383",
                                    "0x67d4acf96d286fcb21a09bb30046d311a80e5b5dab28cf12f081fc1089502cd1",
                                    "0x1d808f1f85bc204b194ffb0d8d965b49a27ea9ba2fc26edb3e41fac73b94b517",
                                    "0x9859189e2598620fd18021d1b57dcf0730e8fa24144897f59f8c29f8557b34ef",
                                    "0xa078cc5af81974ec99eb30355f18ab8f2239cdb5aefc219738cdcd71e8b22f20",
                                    "0x7e0a5dba4361f5faba59f016508b99aaec9ca8e1eea282c851d50192a00da02a",
                                    "0x6c403ecc9dd14298dc165129b91af968df0afb888d575274c90ce821ee5cfc81",
                                    "0xb4ba3d187a435171e1af28d776e997f7760990c3341f43ffe50af9cf1e2bab99",
                                    "0xc8494ccc5e0202b45f14e56afe9dbcebdf7f97889669d09e1d7d678fa3b34e83",
                                    "0xed1357e22a93af298bd8b0ffedebd416c31c07142612efb5eea6b7ef7336e9db",
                                    "0xa9525bfd688eab4fde5cbeb9ff10dd74f3e8b7d4ae7abe9b8f94f1624e8ea32a",
                                    "0x303bb90d7ed16f50d7b49e7c91a895541895f16a999574bc3f288cf1411883d8",
                                    "0x7a9a9288e6eb2432ff524c742c23a7bb1b117a79208ddc6dd3a439dcd0d5aaa3",
                                    "0x5b2f35616ef4997c7f30dcc8bb941919fb4bab170424187ae676a1594ba69bc0"
                                ]
                            }
                        ],
                        "constructorArguments": "",
                        "name": "mintLands",
                        "returnParams": [],
                        "signature": "mintLands(uint256,bytes32[])"
                    },
                    "errorInfo": "",
                    "fromAddress": "0x7008f1da67c7ba098e9a67c328948f6e1710ffdc",
                    "gasUsed": 350302,
                    "id": 0,
                    "methodDecoded": true,
                    "operation": "CALL",
                    "output": "",
                    "revert": false,
                    "revertMessage": "",
                    "selector": "0x3fa8e1b5",
                    "status": true,
                    "value": "0"
                },
                "nodeType": 0
            },
            "1": {
                "invocation": {
                    "address": "0x4d224452801aced8b2f0aebe155379bb5d594381",
                    "callData": "0x0000000000000000000000007008f1da67c7ba098e9a67c328948f6e1710ffdc00000000000000000000000034d85c9cdeb23fa97cb08333b511ac86e1c4e25800000000000000000000000000000000000000000000002111735814dc480000",
                    "decodedMethod": {
                        "callParams": [
                            {
                                "name": "sender",
                                "type": "address",
                                "value": "0x7008f1da67c7ba098e9a67c328948f6e1710ffdc"
                            },
                            {
                                "name": "recipient",
                                "type": "address",
                                "value": "0x34d85c9cdeb23fa97cb08333b511ac86e1c4e258"
                            },
                            {
                                "decimalAvailable": true,
                                "name": "amount",
                                "type": "uint256",
                                "value": "610,000,000,000,000,000,000"
                            }
                        ],
                        "constructorArguments": "",
                        "name": "transferFrom",
                        "returnParams": [
                            {
                                "name": "",
                                "type": "bool",
                                "value": true
                            }
                        ],
                        "signature": "transferFrom(address,address,uint256)"
                    },
                    "errorInfo": "",
                    "fromAddress": "0x34d85c9cdeb23fa97cb08333b511ac86e1c4e258",
                    "gasUsed": 20223,
                    "id": 1,
                    "methodDecoded": true,
                    "operation": "CALL",
                    "output": "0x0000000000000000000000000000000000000000000000000000000000000001",
                    "revert": false,
                    "revertMessage": "",
                    "selector": "0x23b872dd",
                    "status": true,
                    "value": "0"
                },
                "nodeType": 0
            },
            "2": {
                "event": {
                    "contract": "0x4d224452801aced8b2f0aebe155379bb5d594381",
                    "decodedLog": {
                        "name": "Transfer",
                        "params": [
                            {
                                "name": "from",
                                "type": "address",
                                "value": "0x7008f1da67c7ba098e9a67c328948f6e1710ffdc"
                            },
                            {
                                "name": "to",
                                "type": "address",
                                "value": "0x34d85c9cdeb23fa97cb08333b511ac86e1c4e258"
                            },
                            {
                                "decimalAvailable": true,
                                "name": "value",
                                "type": "uint256",
                                "value": "610,000,000,000,000,000,000"
                            }
                        ],
                        "signature": "Transfer(address,address,uint256)"
                    },
                    "id": 2,
                    "logData": "0x00000000000000000000000000000000000000000000002111735814dc480000",
                    "logDecoded": true,
                    "operation": "EVENT",
                    "revert": false,
                    "status": true,
                    "topics": [
                        "0xddf252ad1be2c89b69c2b068fc378daa952ba7f163c4a11628f55a4df523b3ef",
                        "0x0000000000000000000000007008f1da67c7ba098e9a67c328948f6e1710ffdc",
                        "0x00000000000000000000000034d85c9cdeb23fa97cb08333b511ac86e1c4e258"
                    ]
                },
                "nodeType": 1
            },
            "3": {
                "event": {
                    "contract": "0x4d224452801aced8b2f0aebe155379bb5d594381",
                    "decodedLog": {
                        "name": "Approval",
                        "params": [
                            {
                                "name": "owner",
                                "type": "address",
                                "value": "0x7008f1da67c7ba098e9a67c328948f6e1710ffdc"
                            },
                            {
                                "name": "spender",
                                "type": "address",
                                "value": "0x34d85c9cdeb23fa97cb08333b511ac86e1c4e258"
                            },
                            {
                                "decimalAvailable": true,
                                "name": "value",
                                "type": "uint256",
                                "value": "9,999,390,000,000,000,000,000,000"
                            }
                        ],
                        "signature": "Approval(address,address,uint256)"
                    },
                    "id": 3,
                    "logData": "0x00000000000000000000000000000000000000000008457404a0a9336db80000",
                    "logDecoded": true,
                    "operation": "EVENT",
                    "revert": false,
                    "status": true,
                    "topics": [
                        "0x8c5be1e5ebec7d5bd14f71427d1e84f3dd0314c0f7b2291e5b200ac8c7c3b925",
                        "0x0000000000000000000000007008f1da67c7ba098e9a67c328948f6e1710ffdc",
                        "0x00000000000000000000000034d85c9cdeb23fa97cb08333b511ac86e1c4e258"
                    ]
                },
                "nodeType": 1
            },
            "4": {
                "event": {
                    "contract": "0x34d85c9cdeb23fa97cb08333b511ac86e1c4e258",
                    "decodedLog": {
                        "name": "PublicSaleMint",
                        "params": [
                            {
                                "name": "sender",
                                "type": "address",
                                "value": "0x7008f1da67c7ba098e9a67c328948f6e1710ffdc"
                            },
                            {
                                "name": "numLands",
                                "type": "uint256",
                                "value": "2"
                            },
                            {
                                "name": "mintPrice",
                                "type": "uint256",
                                "value": "305,000,000,000,000,000,000"
                            }
                        ],
                        "signature": "PublicSaleMint(address,uint256,uint256)"
                    },
                    "id": 4,
                    "logData": "0x",
                    "logDecoded": true,
                    "operation": "EVENT",
                    "revert": false,
                    "status": true,
                    "topics": [
                        "0x2c7d174a64b49c17bcea3a44c1ba1547c9a3f4997b68952c5dd3fcc1f17f7d6d",
                        "0x0000000000000000000000007008f1da67c7ba098e9a67c328948f6e1710ffdc",
                        "0x0000000000000000000000000000000000000000000000000000000000000002",
                        "0x00000000000000000000000000000000000000000000001088b9ac0a6e240000"
                    ]
                },
                "nodeType": 1
            },
            "5": {
                "event": {
                    "contract": "0x34d85c9cdeb23fa97cb08333b511ac86e1c4e258",
                    "decodedLog": {
                        "name": "Transfer",
                        "params": [
                            {
                                "name": "from",
                                "type": "address",
                                "value": "0x0000000000000000000000000000000000000000"
                            },
                            {
                                "name": "to",
                                "type": "address",
                                "value": "0x7008f1da67c7ba098e9a67c328948f6e1710ffdc"
                            },
                            {
                                "decimalAvailable": true,
                                "name": "tokenId",
                                "type": "uint256",
                                "value": "92,325"
                            }
                        ],
                        "signature": "Transfer(address,address,uint256)"
                    },
                    "id": 5,
                    "logData": "0x",
                    "logDecoded": true,
                    "operation": "EVENT",
                    "revert": false,
                    "status": true,
                    "topics": [
                        "0xddf252ad1be2c89b69c2b068fc378daa952ba7f163c4a11628f55a4df523b3ef",
                        "0x0000000000000000000000000000000000000000000000000000000000000000",
                        "0x0000000000000000000000007008f1da67c7ba098e9a67c328948f6e1710ffdc",
                        "0x00000000000000000000000000000000000000000000000000000000000168a5"
                    ]
                },
                "nodeType": 1
            },
            "6": {
                "event": {
                    "contract": "0x34d85c9cdeb23fa97cb08333b511ac86e1c4e258",
                    "decodedLog": {
                        "name": "Transfer",
                        "params": [
                            {
                                "name": "from",
                                "type": "address",
                                "value": "0x0000000000000000000000000000000000000000"
                            },
                            {
                                "name": "to",
                                "type": "address",
                                "value": "0x7008f1da67c7ba098e9a67c328948f6e1710ffdc"
                            },
                            {
                                "decimalAvailable": true,
                                "name": "tokenId",
                                "type": "uint256",
                                "value": "92,326"
                            }
                        ],
                        "signature": "Transfer(address,address,uint256)"
                    },
                    "id": 6,
                    "logData": "0x",
                    "logDecoded": true,
                    "operation": "EVENT",
                    "revert": false,
                    "status": true,
                    "topics": [
                        "0xddf252ad1be2c89b69c2b068fc378daa952ba7f163c4a11628f55a4df523b3ef",
                        "0x0000000000000000000000000000000000000000000000000000000000000000",
                        "0x0000000000000000000000007008f1da67c7ba098e9a67c328948f6e1710ffdc",
                        "0x00000000000000000000000000000000000000000000000000000000000168a6"
                    ]
                },
                "nodeType": 1
            }
        },
        "gasFlame": [
            {
                "children": [
                    {
                        "children": [
                            {
                                "children": [],
                                "depth": 0,
                                "name": "Initial Gas",
                                "value": 29152
                            },
                            {
                                "children": [
                                    {
                                        "children": [],
                                        "depth": 1,
                                        "name": "transferFrom",
                                        "value": 20223
                                    }
                                ],
                                "depth": 0,
                                "name": "Executed Gas",
                                "value": 323950
                            }
                        ],
                        "depth": -1,
                        "name": "Actual Gas Used",
                        "value": 350302
                    },
                    {
                        "children": [],
                        "depth": -1,
                        "name": "Refunded Gas",
                        "value": 2800
                    }
                ],
                "depth": -2,
                "name": "Total Gas",
                "value": 353102
            }
        ],
        "isConfirmed": true,
        "mainTrace": [
            {
                "children": [
                    {
                        "children": [
                            {
                                "children": [
                                    {
                                        "children": [],
                                        "depth": 2,
                                        "id": 2,
                                        "order": 2
                                    },
                                    {
                                        "children": [],
                                        "depth": 2,
                                        "id": 3,
                                        "order": 3
                                    }
                                ],
                                "depth": 1,
                                "id": 1,
                                "order": 1
                            },
                            {
                                "children": [],
                                "depth": 1,
                                "id": 4,
                                "order": 4
                            },
                            {
                                "children": [],
                                "depth": 1,
                                "id": 5,
                                "order": 5
                            },
                            {
                                "children": [],
                                "depth": 1,
                                "id": 6,
                                "order": 6
                            }
                        ],
                        "depth": 0,
                        "id": 0,
                        "order": 0
                    }
                ],
                "depth": -1,
                "id": -1,
                "order": -1
            }
        ],
        "mainTraceNodeCount": 7,
        "parentIdMap": {
            "0": -1,
            "1": 0,
            "2": 1,
            "3": 1,
            "4": 0,
            "5": 0,
            "6": 0
        },
        "tidyTrace": [
            {
                "children": [
                    {
                        "children": [
                            {
                                "children": [
                                    {
                                        "children": [],
                                        "depth": 2,
                                        "id": 2,
                                        "order": 2
                                    },
                                    {
                                        "children": [],
                                        "depth": 2,
                                        "id": 3,
                                        "order": 3
                                    }
                                ],
                                "depth": 1,
                                "id": 1,
                                "order": 1
                            },
                            {
                                "children": [],
                                "depth": 1,
                                "id": 4,
                                "order": 4
                            },
                            {
                                "children": [],
                                "depth": 1,
                                "id": 5,
                                "order": 5
                            },
                            {
                                "children": [],
                                "depth": 1,
                                "id": 6,
                                "order": 6
                            }
                        ],
                        "depth": 0,
                        "id": 0,
                        "order": 0
                    }
                ],
                "depth": -1,
                "id": -1,
                "order": -1
            }
        ],
        "tidyTraceNodeCount": 7
    },
    "state_change": {
        "stateChanges": [
            {
                "address": "0x34d85c9cdeb23fa97cb08333b511ac86e1c4e258",
                "erc": "ERC-721",
                "slots": [
                    {
                        "current": "0x00000000000000000000000000000000000000000000000000000000000168a7",
                        "key": "0x0000000000000000000000000000000000000000000000000000000000000014",
                        "prev": "0x00000000000000000000000000000000000000000000000000000000000168a5"
                    },
                    {
                        "current": "0x0000000000000000000000000000000000000000000000000000000000000002",
                        "key": "0x8f05d46c9e546ec42a2142b327ef56db4a5afa1843abf2ef500781bf5a377f53",
                        "prev": "0x0000000000000000000000000000000000000000000000000000000000000000"
                    },
                    {
                        "current": "0x0000000000000000000000000000000000000000000000000000000000000001",
                        "key": "0x641340de580e656589d83be11aadeeb4dc02fb9c97d9d372a28f272408bc9587",
                        "prev": "0x0000000000000000000000000000000000000000000000000000000000000000"
                    },
                    {
                        "current": "0x0000000000000000000000007008f1da67c7ba098e9a67c328948f6e1710ffdc",
                        "key": "0x78f23f2ebf768bfb4b0a7b176036d5512c8b9165612cf8b2c9cd7f94c5a95a3f",
                        "prev": "0x0000000000000000000000000000000000000000000000000000000000000000"
                    },
                    {
                        "current": "0x000000000000000000000000000000000000000000000000000000000000f376",
                        "key": "0x8f5a3c270f0184bd3495f0733ff0c059c52c0f9327d1e4b004a11a69630a8d9c",
                        "prev": "0x0000000000000000000000000000000000000000000000000000000000000000"
                    },
                    {
                        "current": "0x00000000000000000000000000000000000000000000000000000000000168a5",
                        "key": "0x512bb4ea9d9c0bf4eadef023b7b1b063c7bc4749f35adb3111862a0d69bc24d3",
                        "prev": "0x0000000000000000000000000000000000000000000000000000000000000000"
                    },
                    {
                        "current": "0x0000000000000000000000000000000000000000000000000000000000000002",
                        "key": "0xefc784c985a156020a38a8ba388f1dc41717e4a6b35deb0b1103262f4b90a2ff",
                        "prev": "0x0000000000000000000000000000000000000000000000000000000000000000"
                    },
                    {
                        "current": "0x00000000000000000000000000000000000000000000000000000000000168a5",
                        "key": "0xf3f7a9fe364faab93b216da50a3214154f22a0a2b415b23a84c8169e8b646258",
                        "prev": "0x0000000000000000000000000000000000000000000000000000000000000000"
                    },
                    {
                        "current": "0x000000000000000000000000000000000000000000000000000000000000f375",
                        "key": "0x71f5f41df6f1f4f54db2cbd6a75a5340086adac686996e02652d88555c655fc7",
                        "prev": "0x0000000000000000000000000000000000000000000000000000000000000000"
                    },
                    {
                        "current": "0x00000000000000000000000000000000000000000000000000000000000168a6",
                        "key": "0xdbdcb14c49ed5428f7c301bfc67f5e07ac0bf5de589e485066542be1aede5944",
                        "prev": "0x0000000000000000000000000000000000000000000000000000000000000000"
                    },
                    {
                        "current": "0x0000000000000000000000007008f1da67c7ba098e9a67c328948f6e1710ffdc",
                        "key": "0x1c90fb51095cfcbf582f9b0fc70c5e1194423ae81e4cbb01ba14194a5b41dd3a",
                        "prev": "0x0000000000000000000000000000000000000000000000000000000000000000"
                    },
                    {
                        "current": "0x000000000000000000000000000000000000000000000000000000000000f377",
                        "key": "0x0000000000000000000000000000000000000000000000000000000000000008",
                        "prev": "0x000000000000000000000000000000000000000000000000000000000000f375"
                    },
                    {
                        "current": "0x000000000000000000000000000000000000000000000000000000000000b8df",
                        "key": "0x0000000000000000000000000000000000000000000000000000000000000013",
                        "prev": "0x000000000000000000000000000000000000000000000000000000000000b8dd"
                    },
                    {
                        "current": "0x00000000000000000000000000000000000000000000000000000000000168a6",
                        "key": "0xf3f7a9fe364faab93b216da50a3214154f22a0a2b415b23a84c8169e8b646259",
                        "prev": "0x0000000000000000000000000000000000000000000000000000000000000000"
                    }
                ],
                "storageVariables": [
                    {
                        "name": "_allTokensIndex",
                        "type": "mapping(uint256 => uint256)",
                        "value": {
                            "pairs": [
                                {
                                    "key": "92325",
                                    "value": {
                                        "current": "62325",
                                        "prev": "0",
                                        "typeTag": 1
                                    }
                                },
                                {
                                    "key": "92326",
                                    "value": {
                                        "current": "62326",
                                        "prev": "0",
                                        "typeTag": 1
                                    }
                                }
                            ],
                            "typeTag": 4
                        }
                    },
                    {
                        "name": "_owners",
                        "type": "mapping(uint256 => address)",
                        "value": {
                            "pairs": [
                                {
                                    "key": "92325",
                                    "value": {
                                        "current": "0x7008f1da67c7ba098e9a67c328948f6e1710ffdc",
                                        "prev": "0x0000000000000000000000000000000000000000",
                                        "typeTag": 1
                                    }
                                },
                                {
                                    "key": "92326",
                                    "value": {
                                        "current": "0x7008f1da67c7ba098e9a67c328948f6e1710ffdc",
                                        "prev": "0x0000000000000000000000000000000000000000",
                                        "typeTag": 1
                                    }
                                }
                            ],
                            "typeTag": 4
                        }
                    },
                    {
                        "name": "_ownedTokensIndex",
                        "type": "mapping(uint256 => uint256)",
                        "value": {
                            "pairs": [
                                {
                                    "key": "92326",
                                    "value": {
                                        "current": "1",
                                        "prev": "0",
                                        "typeTag": 1
                                    }
                                }
                            ],
                            "typeTag": 4
                        }
                    },
                    {
                        "name": "_balances",
                        "type": "mapping(address => uint256)",
                        "value": {
                            "pairs": [
                                {
                                    "key": "0x7008f1da67c7ba098e9a67c328948f6e1710ffdc",
                                    "value": {
                                        "current": "2",
                                        "prev": "0",
                                        "typeTag": 1
                                    }
                                }
                            ],
                            "typeTag": 4
                        }
                    },
                    {
                        "name": "_allTokens",
                        "type": "uint256[]",
                        "value": {
                            "elemType": "uint256",
                            "elems": [
                                {
                                    "index": 62325,
                                    "value": {
                                        "current": "92325",
                                        "prev": "0",
                                        "typeTag": 1
                                    }
                                },
                                {
                                    "index": 62326,
                                    "value": {
                                        "current": "92326",
                                        "prev": "0",
                                        "typeTag": 1
                                    }
                                }
                            ],
                            "typeTag": 2
                        }
                    },
                    {
                        "name": "mintIndexPublicSaleAndContributors",
                        "type": "uint256",
                        "value": {
                            "current": "92327",
                            "prev": "92325",
                            "typeTag": 1
                        }
                    },
                    {
                        "name": "_ownedTokens",
                        "type": "mapping(address => mapping(uint256 => uint256))",
                        "value": {
                            "pairs": [
                                {
                                    "key": "0x7008f1da67c7ba098e9a67c328948f6e1710ffdc",
                                    "value": {
                                        "pairs": [
                                            {
                                                "key": "0",
                                                "value": {
                                                    "current": "92325",
                                                    "prev": "0",
                                                    "typeTag": 1
                                                }
                                            },
                                            {
                                                "key": "1",
                                                "value": {
                                                    "current": "92326",
                                                    "prev": "0",
                                                    "typeTag": 1
                                                }
                                            }
                                        ],
                                        "typeTag": 4
                                    }
                                }
                            ],
                            "typeTag": 4
                        }
                    },
                    {
                        "name": "mintedPerAddress",
                        "type": "mapping(address => uint256)",
                        "value": {
                            "pairs": [
                                {
                                    "key": "0x7008f1da67c7ba098e9a67c328948f6e1710ffdc",
                                    "value": {
                                        "current": "2",
                                        "prev": "0",
                                        "typeTag": 1
                                    }
                                }
                            ],
                            "typeTag": 4
                        }
                    },
                    {
                        "name": "currentNumLandsMintedPublicSale",
                        "type": "uint256",
                        "value": {
                            "current": "47327",
                            "prev": "47325",
                            "typeTag": 1
                        }
                    }
                ]
            },
            {
                "address": "0x4d224452801aced8b2f0aebe155379bb5d594381",
                "erc": "ERC-20",
                "slots": [
                    {
                        "current": "0x00000000000000000000000000000000000000000008457404a0a9336db80000",
                        "key": "0xeb4989982a3c6feac5d0d7d9602084ec95985429f672df1904fcdb20c6db2722",
                        "prev": "0x000000000000000000000000000000000000000000084595161401484a000000"
                    },
                    {
                        "current": "0x0000000000000000000000000000000000000000000000003b42166066eb0000",
                        "key": "0x9397776371b531ee52d0d82ec89e7ff04e5e3af2415a8b585e9bc08175964d61",
                        "prev": "0x0000000000000000000000000000000000000000000000214cb56e7543330000"
                    },
                    {
                        "current": "0x0000000000000000000000000000000000000000000bf14157fb8218baf156d3",
                        "key": "0xbb7d7bbf4436c9f033ad90a2847891e1b1c41eace6283858c8890e702019fcb2",
                        "prev": "0x0000000000000000000000000000000000000000000bf12046882a03dea956d3"
                    }
                ],
                "storageVariables": [
                    {
                        "name": "_balances",
                        "type": "mapping(address => uint256)",
                        "value": {
                            "pairs": [
                                {
                                    "key": "0x34d85c9cdeb23fa97cb08333b511ac86e1c4e258",
                                    "value": {
                                        "current": "14437479716301239720433363",
                                        "prev": "14436869716301239720433363",
                                        "typeTag": 1
                                    }
                                },
                                {
                                    "key": "0x7008f1da67c7ba098e9a67c328948f6e1710ffdc",
                                    "value": {
                                        "current": "4270000000000000000",
                                        "prev": "614270000000000000000",
                                        "typeTag": 1
                                    }
                                }
                            ],
                            "typeTag": 4
                        }
                    },
                    {
                        "name": "_allowances",
                        "type": "mapping(address => mapping(address => uint256))",
                        "value": {
                            "pairs": [
                                {
                                    "key": "0x7008f1da67c7ba098e9a67c328948f6e1710ffdc",
                                    "value": {
                                        "pairs": [
                                            {
                                                "key": "0x34d85c9cdeb23fa97cb08333b511ac86e1c4e258",
                                                "value": {
                                                    "current": "9999390000000000000000000",
                                                    "prev": "10000000000000000000000000",
                                                    "typeTag": 1
                                                }
                                            }
                                        ],
                                        "typeTag": 4
                                    }
                                }
                            ],
                            "typeTag": 4
                        }
                    }
                ]
            }
        ]
    }
}