{
    "balance_change": {
        "balanceChanges": [
            {
                "account": "0x5649c3921dc656f51e8eb8324f1f7c41f1041ab4",
                "assets": [
                    {
                        "address": "0x31ead6a10b5215321afa8bef2f05aa271508fa6c",
                        "amount": "50,000,000,000,000,000,000",
                        "iconUrl": "",
                        "isERC1155": false,
                        "isERC721": false,
                        "sign": false,
                        "value": ""
                    }
                ]
            },
            {
                "account": "0x0d94d9ebebedf7e06b6b6e4cfe32d26552852652",
                "assets": [
                    {
                        "address": "0x31ead6a10b5215321afa8bef2f05aa271508fa6c",
                        "amount": "50,000,000,000,000,000,000",
                        "iconUrl": "",
                        "isERC1155": false,
                        "isERC721": false,
                        "sign": true,
                        "value": ""
                    }
                ]
            }
        ]
    },
    "profile": {
        "basic_info": {
            "baseFee": "",
            "blockNumber": 6563267,
            "callData": "0xa9059cbb0000000000000000000000000d94d9ebebedf7e06b6b6e4cfe32d26552852652000000000000000000000000000000000000000000000002b5e3af16b1880000",
            "debugEnable": true,
            "errorInfo": "",
            "eventCount": 1,
            "feeRecipient": "0xea674fdde714fd979de3edf0f56aa9716b898ec8",
            "formatValue": "0",
            "gasLimit": 72000,
            "gasPrice": "29.531342848",
            "gasUsed": 53501,
            "intTxnCount": 0,
            "internalRevert": false,
            "internalRevertMessage": "",
            "isContractCreation": false,
            "isFlashloan": false,
            "maxFee": "",
            "nonce": 960,
            "overwritedBlockNumber": -1,
            "priorityFee": "",
            "receiver": "0x31ead6a10b5215321afa8bef2f05aa271508fa6c",
            "revertMessage": "",
            "sender": "0x5649c3921dc656f51e8eb8324f1f7c41f1041ab4",
            "simulationEnable": true,
            "sourceTxnHash": "0xb72c689a29ab9d2b2f2346fe25faac16221a892609b02aa5609941226822405c",
            "status": true,
            "timestamp": "2018-10-22T15:37:56Z",
            "transactionFee": "0.001579956373710848",
            "txnHash": "0xb72c689a29ab9d2b2f2346fe25faac16221a892609b02aa5609941226822405c",
            "txnIndex": 22,
            "type": 0,
            "value": "0"
        },
        "fund_flow": [
            {
                "amount": "50,000,000,000,000,000,000",
                "from": "0x5649c3921dc656f51e8eb8324f1f7c41f1041ab4",
                "id": 1,
                "isERC1155": false,
                "isERC721": false,
                "isReverted": false,
                "order": 1,
                "to": "0x0d94d9ebebedf7e06b6b6e4cfe32d26552852652",
                "token": "0x31ead6a10b5215321afa8bef2f05aa271508fa6c"
            }
        ],
        "token_infos": [
            {
                "address": "0xc02aaa39b223fe8d0a0e5c4f27ead9083c756cc2",
                "decimals": 18
            },
            {
                "address": "0xeeeeeeeeeeeeeeeeeeeeeeeeeeeeeeeeeeeeeeee",
                "decimals": 18
            }
        ]
    },
    "address_label": {
        "labels": [
            {
                "address": "0xeeeeeeeeeeeeeeeeeeeeeeeeeeeeeeeeeeeeeeee",
                "label": "Ether"
            },
            {
                "address": "0x31ead6a10b5215321afa8bef2f05aa271508fa6c",
                "label": "CustomToken"
            },
            {
                "address": "0x0000000000000000000000000000000000000001",
                "label": "Precompiled"
            },
            {
                "address": "0x0000000000000000000000000000000000000002",
                "label": "Precompiled"
            },
            {
                "address": "0x0000000000000000000000000000000000000003",
                "label": "Precompiled"
            },
            {
                "address": "0x0000000000000000000000000000000000000004",
                "label": "Precompiled"
            }
        ]
    },
    "trace": {
        "accountLabels": null,
        "dataMap": {
            "-1": {
                "invocation": {
                    "address": "0x5649c3921dc656f51e8eb8324f1f7c41f1041ab4",
                    "callData": "",
                    "decodedMethod": null,
                    "errorInfo": "",
                    "fromAddress": "",
                    "gasUsed": 0,
                    "id": -1,
                    "methodDecoded": false,
                    "operation": "",
                    "output": "",
                    "revert": false,
                    "revertMessage": "",
                    "selector": "",
                    "status": false,
                    "value": ""
                },
                "nodeType": 0
            },
            "0": {
                "invocation": {
                    "address": "0x31ead6a10b5215321afa8bef2f05aa271508fa6c",
                    "callData": "0x0000000000000000000000000d94d9ebebedf7e06b6b6e4cfe32d26552852652000000000000000000000000000000000000000000000002b5e3af16b1880000",
                    "decodedMethod": {
                        "callParams": [
                            {
                                "name": "_to",
                                "type": "address",
                                "value": "0x0d94d9ebebedf7e06b6b6e4cfe32d26552852652"
                            },
                            {
                                "decimalAvailable": true,
                                "name": "_value",
                                "type": "uint256",
                                "value": "50,000,000,000,000,000,000"
                            }
                        ],
                        "constructorArguments": "",
                        "name": "transfer",
                        "returnParams": [
                            {
                                "name": "success",
                                "type": "bool",
                                "value": true
                            }
                        ],
                        "signature": "transfer(address,uint256)"
                    },
                    "errorInfo": "",
                    "fromAddress": "0x5649c3921dc656f51e8eb8324f1f7c41f1041ab4",
                    "gasUsed": 53501,
                    "id": 0,
                    "methodDecoded": true,
                    "operation": "CALL",
                    "output": "0x0000000000000000000000000000000000000000000000000000000000000001",
                    "revert": false,
                    "revertMessage": "",
                    "selector": "0xa9059cbb",
                    "status": true,
                    "value": "0"
                },
                "nodeType": 0
            },
            "1": {
                "event": {
                    "contract": "0x31ead6a10b5215321afa8bef2f05aa271508fa6c",
                    "decodedLog": {
                        "name": "Transfer",
                        "params": [
                            {
                                "name": "from",
                                "type": "address",
                                "value": "0x5649c3921dc656f51e8eb8324f1f7c41f1041ab4"
                            },
                            {
                                "name": "to",
                                "type": "address",
                                "value": "0x0d94d9ebebedf7e06b6b6e4cfe32d26552852652"
                            },
                            {
                                "decimalAvailable": true,
                                "name": "value",
                                "type": "uint256",
                                "value": "50,000,000,000,000,000,000"
                            }
                        ],
                        "signature": "Transfer(address,address,uint256)"
                    },
                    "id": 1,
                    "logData": "0x000000000000000000000000000000000000000000000002b5e3af16b1880000",
                    "logDecoded": true,
                    "operation": "EVENT",
                    "revert": false,
                    "status": true,
                    "topics": [
                        "0xddf252ad1be2c89b69c2b068fc378daa952ba7f163c4a11628f55a4df523b3ef",
                        "0x0000000000000000000000005649c3921dc656f51e8eb8324f1f7c41f1041ab4",
                        "0x0000000000000000000000000d94d9ebebedf7e06b6b6e4cfe32d26552852652"
                    ]
                },
                "nodeType": 1
            }
        },
        "gasFlame": [
            {
                "children": [
                    {
                        "children": [
                            {
                                "children": [],
                                "depth": 0,
                                "name": "Initial Gas",
                                "value": 23256
                            },
                            {
                                "children": [],
                                "depth": 0,
                                "name": "Executed Gas",
                                "value": 30245
                            }
                        ],
                        "depth": -1,
                        "name": "Actual Gas Used",
                        "value": 53501
                    },
                    {
                        "children": [],
                        "depth": -1,
                        "name": "Refunded Gas",
                        "value": 0
                    }
                ],
                "depth": -2,
                "name": "Total Gas",
                "value": 53501
            }
        ],
        "isConfirmed": true,
        "mainTrace": [
            {
                "children": [
                    {
                        "children": [
                            {
                                "children": [],
                                "depth": 1,
                                "id": 1,
                                "order": 1
                            }
                        ],
                        "depth": 0,
                        "id": 0,
                        "order": 0
                    }
                ],
                "depth": -1,
                "id": -1,
                "order": -1
            }
        ],
        "mainTraceNodeCount": 2,
        "parentIdMap": {
            "0": -1,
            "1": 0
        },
        "tidyTrace": [
            {
                "children": [
                    {
                        "children": [
                            {
                                "children": [],
                                "depth": 1,
                                "id": 1,
                                "order": 1
                            }
                        ],
                        "depth": 0,
                        "id": 0,
                        "order": 0
                    }
                ],
                "depth": -1,
                "id": -1,
                "order": -1
            }
        ],
        "tidyTraceNodeCount": 2
    },
    "state_change": {
        "stateChanges": [
            {
                "address": "0x31ead6a10b5215321afa8bef2f05aa271508fa6c",
                "erc": "ERC-20",
                "slots": [
                    {
                        "current": "0x000000000000000000000000000000000000000000081d0bcebb3cb3f63d8000",
                        "key": "0x193628c268fbd5dbd7f80385073497aeabef75f0291f9b63b1bdd75db0b74632",
                        "prev": "0x000000000000000000000000000000000000000000081d0e849eebcaa7c58000"
                    },
                    {
                        "current": "0x000000000000000000000000000000000000000000000002b5e3af16b1880000",
                        "key": "0x7260ba050f2289b3b89b4b1b67e75527132dbc3f87c48e091709947c01498eb5",
                        "prev": "0x0000000000000000000000000000000000000000000000000000000000000000"
                    }
                ],
                "storageVariables": [
                    {
                        "name": "balanceOf",
                        "type": "mapping(address => uint256)",
                        "value": {
                            "pairs": [
                                {
                                    "key": "0x0d94d9ebebedf7e06b6b6e4cfe32d26552852652",
                                    "value": {
                                        "current": "50000000000000000000",
                                        "prev": "0",
                                        "typeTag": 1
                                    }
                                },
                                {
                                    "key": "0x5649c3921dc656f51e8eb8324f1f7c41f1041ab4",
                                    "value": {
                                        "current": "9808572995672000000000000",
                                        "prev": "9808622995672000000000000",
                                        "typeTag": 1
                                    }
                                }
                            ],
                            "typeTag": 4
                        }
                    }
                ]
            }
        ]
    }
}