{
    "balance_change": {
        "balanceChanges": [
            {
                "account": "0xab8d8b74f202f4cd4a918b65da4bac612e086ee7",
                "assets": [
                    {
                        "address": "0xc66ea802717bfb9833400264dd12c2bceaa34a6d",
                        "amount": "132",
                        "iconUrl": "",
                        "isERC1155": false,
                        "isERC721": false,
                        "sign": false,
                        "value": ""
                    }
                ]
            },
            {
                "account": "0x1292714f89f535c066d483e92a54b360f3df7589",
                "assets": [
                    {
                        "address": "0xc66ea802717bfb9833400264dd12c2bceaa34a6d",
                        "amount": "132",
                        "iconUrl": "",
                        "isERC1155": false,
                        "isERC721": false,
                        "sign": true,
                        "value": ""
                    }
                ]
            }
        ]
    },
    "profile": {
        "basic_info": {
            "baseFee": "",
            "blockNumber": 2898260,
            "callData": "0xf09ea2a600000000000000000000000000000000000000000000000727de34a24f900000000000000000000000000000c66ea802717bfb9833400264dd12c2bceaa34a6d0000000000000000000000000000000000000000000000085f4919bde7540000000000000000000000000000ecf8f87f810ecf450940c9f60066b4a7a501d6a7",
            "debugEnable": true,
            "errorInfo": "",
            "eventCount": 5,
            "feeRecipient": "0x4bb96091ee9d802ed039c4d1a5f6216f90f81b01",
            "formatValue": "0",
            "gasLimit": 1000000,
            "gasPrice": "20",
            "gasUsed": 193875,
            "intTxnCount": 13,
            "internalRevert": false,
            "internalRevertMessage": "",
            "isContractCreation": false,
            "isFlashloan": false,
            "maxFee": "",
            "nonce": 455,
            "overwritedBlockNumber": -1,
            "priorityFee": "",
            "receiver": "0x1292714f89f535c066d483e92a54b360f3df7589",
            "revertMessage": "",
            "sender": "0xab8d8b74f202f4cd4a918b65da4bac612e086ee7",
            "simulationEnable": true,
            "sourceTxnHash": "0xb76be86212643c55f3def96ed800f76e76024617ba51a3296b71afc7fced3df4",
            "status": true,
            "timestamp": "2016-12-29T15:44:19Z",
            "transactionFee": "0.0038775",
            "txnHash": "0xb76be86212643c55f3def96ed800f76e76024617ba51a3296b71afc7fced3df4",
            "txnIndex": 7,
            "type": 0,
            "value": "0"
        },
        "fund_flow": [
            {
                "amount": "132",
                "from": "0xab8d8b74f202f4cd4a918b65da4bac612e086ee7",
                "id": 1,
                "isERC1155": false,
                "isERC721": false,
                "isReverted": false,
                "order": 1,
                "to": "0x1292714f89f535c066d483e92a54b360f3df7589",
                "token": "0xc66ea802717bfb9833400264dd12c2bceaa34a6d"
            }
        ],
        "token_infos": [
            {
                "address": "0xc02aaa39b223fe8d0a0e5c4f27ead9083c756cc2",
                "decimals": 18
            },
            {
                "address": "0xc66ea802717bfb9833400264dd12c2bceaa34a6d",
                "decimals": 18
            },
            {
                "address": "0xeeeeeeeeeeeeeeeeeeeeeeeeeeeeeeeeeeeeeeee",
                "decimals": 18
            }
        ]
    },
    "address_label": {
        "labels": [
            {
                "address": "0xc66ea802717bfb9833400264dd12c2bceaa34a6d",
                "label": "Sky: Old Token"
            },
            {
                "address": "0xecf8f87f810ecf450940c9f60066b4a7a501d6a7",
                "label": "WETH: Old Contract"
            },
            {
                "address": "0x0000000000000000000000000000000000000001",
                "label": "Precompiled"
            },
            {
                "address": "0x0000000000000000000000000000000000000002",
                "label": "Precompiled"
            },
            {
                "address": "0x0000000000000000000000000000000000000003",
                "label": "Precompiled"
            },
            {
                "address": "0x0000000000000000000000000000000000000004",
                "label": "Precompiled"
            },
            {
                "address": "0xeeeeeeeeeeeeeeeeeeeeeeeeeeeeeeeeeeeeeeee",
                "label": "Ether"
            },
            {
                "address": "0x1292714f89f535c066d483e92a54b360f3df7589",
                "label": "ExpiringMarket"
            }
        ]
    },
    "trace": {
        "accountLabels": null,
        "dataMap": {
            "-1": {
                "invocation": {
                    "address": "0xab8d8b74f202f4cd4a918b65da4bac612e086ee7",
                    "callData": "",
                    "decodedMethod": null,
                    "errorInfo": "",
                    "fromAddress": "",
                    "gasUsed": 0,
                    "id": -1,
                    "methodDecoded": false,
                    "operation": "",
                    "output": "",
                    "revert": false,
                    "revertMessage": "",
                    "selector": "",
                    "status": false,
                    "value": ""
                },
                "nodeType": 0
            },
            "0": {
                "invocation": {
                    "address": "0x1292714f89f535c066d483e92a54b360f3df7589",
                    "callData": "0x00000000000000000000000000000000000000000000000727de34a24f900000000000000000000000000000c66ea802717bfb9833400264dd12c2bceaa34a6d0000000000000000000000000000000000000000000000085f4919bde7540000000000000000000000000000ecf8f87f810ecf450940c9f60066b4a7a501d6a7",
                    "decodedMethod": {
                        "callParams": [
                            {
                                "name": "sell_how_much",
                                "type": "uint256",
                                "value": "132,000,000,000,000,000,000"
                            },
                            {
                                "name": "sell_which_token",
                                "type": "address",
                                "value": "0xc66ea802717bfb9833400264dd12c2bceaa34a6d"
                            },
                            {
                                "name": "buy_how_much",
                                "type": "uint256",
                                "value": "154,440,000,000,000,000,000"
                            },
                            {
                                "name": "buy_which_token",
                                "type": "address",
                                "value": "0xecf8f87f810ecf450940c9f60066b4a7a501d6a7"
                            }
                        ],
                        "constructorArguments": "",
                        "name": "offer",
                        "returnParams": [
                            {
                                "name": "id",
                                "type": "uint256",
                                "value": "154"
                            }
                        ],
                        "signature": "offer(uint256,address,uint256,address)"
                    },
                    "errorInfo": "",
                    "fromAddress": "0xab8d8b74f202f4cd4a918b65da4bac612e086ee7",
                    "gasUsed": 193875,
                    "id": 0,
                    "methodDecoded": true,
                    "operation": "CALL",
                    "output": "0x000000000000000000000000000000000000000000000000000000000000009a",
                    "revert": false,
                    "revertMessage": "",
                    "selector": "0xf09ea2a6",
                    "status": true,
                    "value": "0"
                },
                "nodeType": 0
            },
            "1": {
                "invocation": {
                    "address": "0xc66ea802717bfb9833400264dd12c2bceaa34a6d",
                    "callData": "0x000000000000000000000000ab8d8b74f202f4cd4a918b65da4bac612e086ee70000000000000000000000001292714f89f535c066d483e92a54b360f3df758900000000000000000000000000000000000000000000000727de34a24f900000",
                    "decodedMethod": {
                        "callParams": [
                            {
                                "name": "sender",
                                "type": "address",
                                "value": "0xab8d8b74f202f4cd4a918b65da4bac612e086ee7"
                            },
                            {
                                "name": "recipient",
                                "type": "address",
                                "value": "0x1292714f89f535c066d483e92a54b360f3df7589"
                            },
                            {
                                "decimalAvailable": true,
                                "name": "amount",
                                "type": "uint256",
                                "value": "132,000,000,000,000,000,000"
                            }
                        ],
                        "constructorArguments": "",
                        "name": "transferFrom",
                        "returnParams": [
                            {
                                "name": "",
                                "type": "bool",
                                "value": true
                            }
                        ],
                        "signature": "transferFrom(address,address,uint256)"
                    },
                    "errorInfo": "",
                    "fromAddress": "0x1292714f89f535c066d483e92a54b360f3df7589",
                    "gasUsed": 47151,
                    "id": 1,
                    "methodDecoded": true,
                    "operation": "CALL",
                    "output": "0x0000000000000000000000000000000000000000000000000000000000000001",
                    "revert": false,
                    "revertMessage": "",
                    "selector": "0x23b872dd",
                    "status": true,
                    "value": "0"
                },
                "nodeType": 0
            },
            "10": {
                "event": {
                    "contract": "0x96477a1c968a0e64e53b7ed01d0d6e4a311945c2",
                    "decodedLog": {
                        "name": "Approval",
                        "params": [
                            {
                                "name": "owner",
                                "type": "address",
                                "value": "0xab8d8b74f202f4cd4a918b65da4bac612e086ee7"
                            },
                            {
                                "name": "spender",
                                "type": "address",
                                "value": "0x1292714f89f535c066d483e92a54b360f3df7589"
                            },
                            {
                                "decimalAvailable": true,
                                "name": "value",
                                "type": "uint256",
                                "value": "249,906,333,400,000,000,000"
                            }
                        ],
                        "signature": "Approval(address,address,uint256)"
                    },
                    "id": 10,
                    "logData": "0x00000000000000000000000000000000000000000000000d8c25a62ab3567000",
                    "logDecoded": true,
                    "operation": "EVENT",
                    "revert": false,
                    "status": true,
                    "topics": [
                        "0x8c5be1e5ebec7d5bd14f71427d1e84f3dd0314c0f7b2291e5b200ac8c7c3b925",
                        "0x000000000000000000000000ab8d8b74f202f4cd4a918b65da4bac612e086ee7",
                        "0x0000000000000000000000001292714f89f535c066d483e92a54b360f3df7589"
                    ]
                },
                "nodeType": 1
            },
            "11": {
                "invocation": {
                    "address": "0xaae65d15e74729e6072b388c2e34f67d6e327b66",
                    "callData": "0x000000000000000000000000ab8d8b74f202f4cd4a918b65da4bac612e086ee70000000000000000000000001292714f89f535c066d483e92a54b360f3df758900000000000000000000000000000000000000000000000727de34a24f900000",
                    "decodedMethod": null,
                    "errorInfo": "",
                    "fromAddress": "0xbaf42749e027bb38ce4f23ddae8c84da8a15488f",
                    "gasUsed": 17561,
                    "id": 11,
                    "methodDecoded": false,
                    "operation": "CALL",
                    "output": "",
                    "revert": false,
                    "revertMessage": "",
                    "selector": "0xd70cf105",
                    "status": true,
                    "value": "0"
                },
                "nodeType": 0
            },
            "12": {
                "invocation": {
                    "address": "0x77a79a78c56504c6c1f7499852b6e1918a6d0ab4",
                    "callData": "0x000000000000000000000000baf42749e027bb38ce4f23ddae8c84da8a15488f000000000000000000000000aae65d15e74729e6072b388c2e34f67d6e327b66d70cf10500000000000000000000000000000000000000000000000000000000",
                    "decodedMethod": {
                        "callParams": [
                            {
                                "name": "user",
                                "type": "address",
                                "value": "0xbaf42749e027bb38ce4f23ddae8c84da8a15488f"
                            },
                            {
                                "name": "target",
                                "type": "address",
                                "value": "0xaae65d15e74729e6072b388c2e34f67d6e327b66"
                            },
                            {
                                "name": "functionSig",
                                "type": "bytes4",
                                "value": "0xd70cf105"
                            }
                        ],
                        "constructorArguments": "",
                        "name": "canCall",
                        "returnParams": [
                            {
                                "name": "",
                                "type": "bool",
                                "value": true
                            }
                        ],
                        "signature": "canCall(address,address,bytes4)"
                    },
                    "errorInfo": "",
                    "fromAddress": "0xaae65d15e74729e6072b388c2e34f67d6e327b66",
                    "gasUsed": 832,
                    "id": 12,
                    "methodDecoded": true,
                    "operation": "CALL",
                    "output": "0x0000000000000000000000000000000000000000000000000000000000000001",
                    "revert": false,
                    "revertMessage": "",
                    "selector": "0xb7009613",
                    "status": true,
                    "value": "0"
                },
                "nodeType": 0
            },
            "13": {
                "event": {
                    "contract": "0xaae65d15e74729e6072b388c2e34f67d6e327b66",
                    "decodedLog": {
                        "name": "BalanceUpdate",
                        "params": [
                            {
                                "name": "user",
                                "type": "address",
                                "value": "0xab8d8b74f202f4cd4a918b65da4bac612e086ee7"
                            },
                            {
                                "name": "currentBalance",
                                "type": "uint256",
                                "value": "23,506,299,219,538,283,839"
                            }
                        ],
                        "signature": "BalanceUpdate(address,uint256)"
                    },
                    "id": 13,
                    "logData": "0x00000000000000000000000000000000000000000000000146372699349f0d3f",
                    "logDecoded": true,
                    "operation": "EVENT",
                    "revert": false,
                    "status": true,
                    "topics": [
                        "0x163aa6d2d8e5248ce93dbd22509af93e5f27f8e0edc15c9e26f2867c593e0870",
                        "0x000000000000000000000000ab8d8b74f202f4cd4a918b65da4bac612e086ee7"
                    ]
                },
                "nodeType": 1
            },
            "14": {
                "event": {
                    "contract": "0xaae65d15e74729e6072b388c2e34f67d6e327b66",
                    "decodedLog": {
                        "name": "BalanceUpdate",
                        "params": [
                            {
                                "name": "user",
                                "type": "address",
                                "value": "0x1292714f89f535c066d483e92a54b360f3df7589"
                            },
                            {
                                "name": "currentBalance",
                                "type": "uint256",
                                "value": "12,153,680,523,364,485,981,309"
                            }
                        ],
                        "signature": "BalanceUpdate(address,uint256)"
                    },
                    "id": 14,
                    "logData": "0x000000000000000000000000000000000000000000000292da330b0a73ce647d",
                    "logDecoded": true,
                    "operation": "EVENT",
                    "revert": false,
                    "status": true,
                    "topics": [
                        "0x163aa6d2d8e5248ce93dbd22509af93e5f27f8e0edc15c9e26f2867c593e0870",
                        "0x0000000000000000000000001292714f89f535c066d483e92a54b360f3df7589"
                    ]
                },
                "nodeType": 1
            },
            "15": {
                "invocation": {
                    "address": "0xc66ea802717bfb9833400264dd12c2bceaa34a6d",
                    "callData": "0x000000000000000000000000ab8d8b74f202f4cd4a918b65da4bac612e086ee70000000000000000000000001292714f89f535c066d483e92a54b360f3df758900000000000000000000000000000000000000000000000727de34a24f900000",
                    "decodedMethod": {
                        "callParams": [
                            {
                                "name": "from",
                                "type": "address",
                                "value": "0xab8d8b74f202f4cd4a918b65da4bac612e086ee7"
                            },
                            {
                                "name": "to",
                                "type": "address",
                                "value": "0x1292714f89f535c066d483e92a54b360f3df7589"
                            },
                            {
                                "name": "amount",
                                "type": "uint256",
                                "value": "132,000,000,000,000,000,000"
                            }
                        ],
                        "constructorArguments": "",
                        "name": "emitTransfer",
                        "returnParams": [],
                        "signature": "emitTransfer(address,address,uint256)"
                    },
                    "errorInfo": "",
                    "fromAddress": "0xbaf42749e027bb38ce4f23ddae8c84da8a15488f",
                    "gasUsed": 4720,
                    "id": 15,
                    "methodDecoded": true,
                    "operation": "CALL",
                    "output": "",
                    "revert": false,
                    "revertMessage": "",
                    "selector": "0x23de6651",
                    "status": true,
                    "value": "0"
                },
                "nodeType": 0
            },
            "16": {
                "invocation": {
                    "address": "0x77a79a78c56504c6c1f7499852b6e1918a6d0ab4",
                    "callData": "0x000000000000000000000000baf42749e027bb38ce4f23ddae8c84da8a15488f000000000000000000000000c66ea802717bfb9833400264dd12c2bceaa34a6d23de665100000000000000000000000000000000000000000000000000000000",
                    "decodedMethod": {
                        "callParams": [
                            {
                                "name": "user",
                                "type": "address",
                                "value": "0xbaf42749e027bb38ce4f23ddae8c84da8a15488f"
                            },
                            {
                                "name": "target",
                                "type": "address",
                                "value": "0xc66ea802717bfb9833400264dd12c2bceaa34a6d"
                            },
                            {
                                "name": "functionSig",
                                "type": "bytes4",
                                "value": "0x23de6651"
                            }
                        ],
                        "constructorArguments": "",
                        "name": "canCall",
                        "returnParams": [
                            {
                                "name": "",
                                "type": "bool",
                                "value": true
                            }
                        ],
                        "signature": "canCall(address,address,bytes4)"
                    },
                    "errorInfo": "",
                    "fromAddress": "0xc66ea802717bfb9833400264dd12c2bceaa34a6d",
                    "gasUsed": 832,
                    "id": 16,
                    "methodDecoded": true,
                    "operation": "CALL",
                    "output": "0x0000000000000000000000000000000000000000000000000000000000000001",
                    "revert": false,
                    "revertMessage": "",
                    "selector": "0xb7009613",
                    "status": true,
                    "value": "0"
                },
                "nodeType": 0
            },
            "17": {
                "event": {
                    "contract": "0xc66ea802717bfb9833400264dd12c2bceaa34a6d",
                    "decodedLog": {
                        "name": "Transfer",
                        "params": [
                            {
                                "name": "from",
                                "type": "address",
                                "value": "0xab8d8b74f202f4cd4a918b65da4bac612e086ee7"
                            },
                            {
                                "name": "to",
                                "type": "address",
                                "value": "0x1292714f89f535c066d483e92a54b360f3df7589"
                            },
                            {
                                "decimalAvailable": true,
                                "name": "value",
                                "type": "uint256",
                                "value": "132,000,000,000,000,000,000"
                            }
                        ],
                        "signature": "Transfer(address,address,uint256)"
                    },
                    "id": 17,
                    "logData": "0x00000000000000000000000000000000000000000000000727de34a24f900000",
                    "logDecoded": true,
                    "operation": "EVENT",
                    "revert": false,
                    "status": true,
                    "topics": [
                        "0xddf252ad1be2c89b69c2b068fc378daa952ba7f163c4a11628f55a4df523b3ef",
                        "0x000000000000000000000000ab8d8b74f202f4cd4a918b65da4bac612e086ee7",
                        "0x0000000000000000000000001292714f89f535c066d483e92a54b360f3df7589"
                    ]
                },
                "nodeType": 1
            },
            "18": {
                "event": {
                    "contract": "0x1292714f89f535c066d483e92a54b360f3df7589",
                    "decodedLog": {
                        "name": "ItemUpdate",
                        "params": [
                            {
                                "name": "id",
                                "type": "uint256",
                                "value": "154"
                            }
                        ],
                        "signature": "ItemUpdate(uint256)"
                    },
                    "id": 18,
                    "logData": "0x000000000000000000000000000000000000000000000000000000000000009a",
                    "logDecoded": true,
                    "operation": "EVENT",
                    "revert": false,
                    "status": true,
                    "topics": [
                        "0xde857d2761836ca6234345c7f7f4c783271ed7d1aedf9268b3fe32800d186fde"
                    ]
                },
                "nodeType": 1
            },
            "2": {
                "invocation": {
                    "address": "0xbaf42749e027bb38ce4f23ddae8c84da8a15488f",
                    "callData": "0x0000000000000000000000001292714f89f535c066d483e92a54b360f3df7589000000000000000000000000ab8d8b74f202f4cd4a918b65da4bac612e086ee70000000000000000000000001292714f89f535c066d483e92a54b360f3df758900000000000000000000000000000000000000000000000727de34a24f900000",
                    "decodedMethod": {
                        "callParams": [
                            {
                                "name": "token",
                                "type": "address",
                                "value": "0x1292714f89f535c066d483e92a54b360f3df7589"
                            },
                            {
                                "name": "from",
                                "type": "address",
                                "value": "0xab8d8b74f202f4cd4a918b65da4bac612e086ee7"
                            },
                            {
                                "name": "to",
                                "type": "address",
                                "value": "0x1292714f89f535c066d483e92a54b360f3df7589"
                            },
                            {
                                "name": "amount",
                                "type": "uint256",
                                "value": "132,000,000,000,000,000,000"
                            }
                        ],
                        "constructorArguments": "",
                        "name": "transferFrom",
                        "returnParams": [
                            {
                                "name": "",
                                "type": "bool",
                                "value": true
                            }
                        ],
                        "signature": "transferFrom(address,address,address,uint256)"
                    },
                    "errorInfo": "",
                    "fromAddress": "0xc66ea802717bfb9833400264dd12c2bceaa34a6d",
                    "gasUsed": 45667,
                    "id": 2,
                    "methodDecoded": true,
                    "operation": "CALL",
                    "output": "0x0000000000000000000000000000000000000000000000000000000000000001",
                    "revert": false,
                    "revertMessage": "",
                    "selector": "0x15dacbea",
                    "status": true,
                    "value": "0"
                },
                "nodeType": 0
            },
            "3": {
                "invocation": {
                    "address": "0x77a79a78c56504c6c1f7499852b6e1918a6d0ab4",
                    "callData": "0x000000000000000000000000c66ea802717bfb9833400264dd12c2bceaa34a6d000000000000000000000000baf42749e027bb38ce4f23ddae8c84da8a15488f15dacbea00000000000000000000000000000000000000000000000000000000",
                    "decodedMethod": {
                        "callParams": [
                            {
                                "name": "user",
                                "type": "address",
                                "value": "0xc66ea802717bfb9833400264dd12c2bceaa34a6d"
                            },
                            {
                                "name": "target",
                                "type": "address",
                                "value": "0xbaf42749e027bb38ce4f23ddae8c84da8a15488f"
                            },
                            {
                                "name": "functionSig",
                                "type": "bytes4",
                                "value": "0x15dacbea"
                            }
                        ],
                        "constructorArguments": "",
                        "name": "canCall",
                        "returnParams": [
                            {
                                "name": "",
                                "type": "bool",
                                "value": true
                            }
                        ],
                        "signature": "canCall(address,address,bytes4)"
                    },
                    "errorInfo": "",
                    "fromAddress": "0xbaf42749e027bb38ce4f23ddae8c84da8a15488f",
                    "gasUsed": 832,
                    "id": 3,
                    "methodDecoded": true,
                    "operation": "CALL",
                    "output": "0x0000000000000000000000000000000000000000000000000000000000000001",
                    "revert": false,
                    "revertMessage": "",
                    "selector": "0xb7009613",
                    "status": true,
                    "value": "0"
                },
                "nodeType": 0
            },
            "4": {
                "invocation": {
                    "address": "0xaae65d15e74729e6072b388c2e34f67d6e327b66",
                    "callData": "0x000000000000000000000000ab8d8b74f202f4cd4a918b65da4bac612e086ee7",
                    "decodedMethod": {
                        "callParams": [
                            {
                                "name": "account",
                                "type": "address",
                                "value": "0xab8d8b74f202f4cd4a918b65da4bac612e086ee7"
                            }
                        ],
                        "constructorArguments": "",
                        "name": "getBalance",
                        "returnParams": [
                            {
                                "name": "",
                                "type": "uint256",
                                "value": "155,506,299,219,538,283,839"
                            }
                        ],
                        "signature": "getBalance(address)"
                    },
                    "errorInfo": "",
                    "fromAddress": "0xbaf42749e027bb38ce4f23ddae8c84da8a15488f",
                    "gasUsed": 687,
                    "id": 4,
                    "methodDecoded": true,
                    "operation": "CALL",
                    "output": "0x0000000000000000000000000000000000000000000000086e155b3b842f0d3f",
                    "revert": false,
                    "revertMessage": "",
                    "selector": "0xf8b2cb4f",
                    "status": true,
                    "value": "0"
                },
                "nodeType": 0
            },
            "5": {
                "invocation": {
                    "address": "0xaae65d15e74729e6072b388c2e34f67d6e327b66",
                    "callData": "0x000000000000000000000000ab8d8b74f202f4cd4a918b65da4bac612e086ee7",
                    "decodedMethod": {
                        "callParams": [
                            {
                                "name": "account",
                                "type": "address",
                                "value": "0xab8d8b74f202f4cd4a918b65da4bac612e086ee7"
                            }
                        ],
                        "constructorArguments": "",
                        "name": "getBalance",
                        "returnParams": [
                            {
                                "name": "",
                                "type": "uint256",
                                "value": "155,506,299,219,538,283,839"
                            }
                        ],
                        "signature": "getBalance(address)"
                    },
                    "errorInfo": "",
                    "fromAddress": "0xbaf42749e027bb38ce4f23ddae8c84da8a15488f",
                    "gasUsed": 687,
                    "id": 5,
                    "methodDecoded": true,
                    "operation": "CALL",
                    "output": "0x0000000000000000000000000000000000000000000000086e155b3b842f0d3f",
                    "revert": false,
                    "revertMessage": "",
                    "selector": "0xf8b2cb4f",
                    "status": true,
                    "value": "0"
                },
                "nodeType": 0
            },
            "6": {
                "invocation": {
                    "address": "0x96477a1c968a0e64e53b7ed01d0d6e4a311945c2",
                    "callData": "0x000000000000000000000000ab8d8b74f202f4cd4a918b65da4bac612e086ee70000000000000000000000001292714f89f535c066d483e92a54b360f3df7589",
                    "decodedMethod": {
                        "callParams": [
                            {
                                "name": "_owner",
                                "type": "address",
                                "value": "0xab8d8b74f202f4cd4a918b65da4bac612e086ee7"
                            },
                            {
                                "name": "_operator",
                                "type": "address",
                                "value": "0x1292714f89f535c066d483e92a54b360f3df7589"
                            }
                        ],
                        "constructorArguments": "",
                        "name": "getApproval",
                        "returnParams": [
                            {
                                "name": "",
                                "type": "uint256",
                                "value": "381,906,333,400,000,000,000"
                            }
                        ],
                        "signature": "getApproval(address,address)"
                    },
                    "errorInfo": "",
                    "fromAddress": "0xbaf42749e027bb38ce4f23ddae8c84da8a15488f",
                    "gasUsed": 652,
                    "id": 6,
                    "methodDecoded": true,
                    "operation": "CALL",
                    "output": "0x000000000000000000000000000000000000000000000014b403dacd02e67000",
                    "revert": false,
                    "revertMessage": "",
                    "selector": "0x89fcd099",
                    "status": true,
                    "value": "0"
                },
                "nodeType": 0
            },
            "7": {
                "invocation": {
                    "address": "0xaae65d15e74729e6072b388c2e34f67d6e327b66",
                    "callData": "0x0000000000000000000000001292714f89f535c066d483e92a54b360f3df7589",
                    "decodedMethod": {
                        "callParams": [
                            {
                                "name": "account",
                                "type": "address",
                                "value": "0x1292714f89f535c066d483e92a54b360f3df7589"
                            }
                        ],
                        "constructorArguments": "",
                        "name": "getBalance",
                        "returnParams": [
                            {
                                "name": "",
                                "type": "uint256",
                                "value": "12,021,680,523,364,485,981,309"
                            }
                        ],
                        "signature": "getBalance(address)"
                    },
                    "errorInfo": "",
                    "fromAddress": "0xbaf42749e027bb38ce4f23ddae8c84da8a15488f",
                    "gasUsed": 687,
                    "id": 7,
                    "methodDecoded": true,
                    "operation": "CALL",
                    "output": "0x00000000000000000000000000000000000000000000028bb254d668243e647d",
                    "revert": false,
                    "revertMessage": "",
                    "selector": "0xf8b2cb4f",
                    "status": true,
                    "value": "0"
                },
                "nodeType": 0
            },
            "8": {
                "invocation": {
                    "address": "0x96477a1c968a0e64e53b7ed01d0d6e4a311945c2",
                    "callData": "0x000000000000000000000000ab8d8b74f202f4cd4a918b65da4bac612e086ee70000000000000000000000001292714f89f535c066d483e92a54b360f3df758900000000000000000000000000000000000000000000000d8c25a62ab3567000",
                    "decodedMethod": {
                        "callParams": [
                            {
                                "name": "owner_",
                                "type": "address",
                                "value": "0xab8d8b74f202f4cd4a918b65da4bac612e086ee7"
                            },
                            {
                                "name": "spender_",
                                "type": "address",
                                "value": "0x1292714f89f535c066d483e92a54b360f3df7589"
                            },
                            {
                                "name": "amount_",
                                "type": "uint256",
                                "value": "249,906,333,400,000,000,000"
                            }
                        ],
                        "constructorArguments": "",
                        "name": "setApproval",
                        "returnParams": [],
                        "signature": "setApproval(address,address,uint256)"
                    },
                    "errorInfo": "",
                    "fromAddress": "0xbaf42749e027bb38ce4f23ddae8c84da8a15488f",
                    "gasUsed": 9833,
                    "id": 8,
                    "methodDecoded": true,
                    "operation": "CALL",
                    "output": "",
                    "revert": false,
                    "revertMessage": "",
                    "selector": "0x0c9fcec9",
                    "status": true,
                    "value": "0"
                },
                "nodeType": 0
            },
            "9": {
                "invocation": {
                    "address": "0x77a79a78c56504c6c1f7499852b6e1918a6d0ab4",
                    "callData": "0x000000000000000000000000baf42749e027bb38ce4f23ddae8c84da8a15488f00000000000000000000000096477a1c968a0e64e53b7ed01d0d6e4a311945c20c9fcec900000000000000000000000000000000000000000000000000000000",
                    "decodedMethod": {
                        "callParams": [
                            {
                                "name": "user",
                                "type": "address",
                                "value": "0xbaf42749e027bb38ce4f23ddae8c84da8a15488f"
                            },
                            {
                                "name": "target",
                                "type": "address",
                                "value": "0x96477a1c968a0e64e53b7ed01d0d6e4a311945c2"
                            },
                            {
                                "name": "functionSig",
                                "type": "bytes4",
                                "value": "0x0c9fcec9"
                            }
                        ],
                        "constructorArguments": "",
                        "name": "canCall",
                        "returnParams": [
                            {
                                "name": "",
                                "type": "bool",
                                "value": true
                            }
                        ],
                        "signature": "canCall(address,address,bytes4)"
                    },
                    "errorInfo": "",
                    "fromAddress": "0x96477a1c968a0e64e53b7ed01d0d6e4a311945c2",
                    "gasUsed": 832,
                    "id": 9,
                    "methodDecoded": true,
                    "operation": "CALL",
                    "output": "0x0000000000000000000000000000000000000000000000000000000000000001",
                    "revert": false,
                    "revertMessage": "",
                    "selector": "0xb7009613",
                    "status": true,
                    "value": "0"
                },
                "nodeType": 0
            }
        },
        "gasFlame": [
            {
                "children": [
                    {
                        "children": [
                            {
                                "children": [],
                                "depth": 0,
                                "name": "Initial Gas",
                                "value": 25176
                            },
                            {
                                "children": [
                                    {
                                        "children": [
                                            {
                                                "children": [
                                                    {
                                                        "children": [],
                                                        "depth": 3,
                                                        "name": "canCall",
                                                        "value": 832
                                                    },
                                                    {
                                                        "children": [],
                                                        "depth": 3,
                                                        "name": "getBalance",
                                                        "value": 687
                                                    },
                                                    {
                                                        "children": [],
                                                        "depth": 3,
                                                        "name": "getBalance",
                                                        "value": 687
                                                    },
                                                    {
                                                        "children": [],
                                                        "depth": 3,
                                                        "name": "getApproval",
                                                        "value": 652
                                                    },
                                                    {
                                                        "children": [],
                                                        "depth": 3,
                                                        "name": "getBalance",
                                                        "value": 687
                                                    },
                                                    {
                                                        "children": [
                                                            {
                                                                "children": [],
                                                                "depth": 4,
                                                                "name": "canCall",
                                                                "value": 832
                                                            }
                                                        ],
                                                        "depth": 3,
                                                        "name": "setApproval",
                                                        "value": 9833
                                                    },
                                                    {
                                                        "children": [
                                                            {
                                                                "children": [],
                                                                "depth": 4,
                                                                "name": "canCall",
                                                                "value": 832
                                                            }
                                                        ],
                                                        "depth": 3,
                                                        "name": "0xd70cf105",
                                                        "value": 17561
                                                    },
                                                    {
                                                        "children": [
                                                            {
                                                                "children": [],
                                                                "depth": 4,
                                                                "name": "canCall",
                                                                "value": 832
                                                            }
                                                        ],
                                                        "depth": 3,
                                                        "name": "emitTransfer",
                                                        "value": 4720
                                                    }
                                                ],
                                                "depth": 2,
                                                "name": "transferFrom",
                                                "value": 45667
                                            }
                                        ],
                                        "depth": 1,
                                        "name": "transferFrom",
                                        "value": 47151
                                    }
                                ],
                                "depth": 0,
                                "name": "Executed Gas",
                                "value": 183699
                            }
                        ],
                        "depth": -1,
                        "name": "Actual Gas Used",
                        "value": 193875
                    },
                    {
                        "children": [],
                        "depth": -1,
                        "name": "Refunded Gas",
                        "value": 15000
                    }
                ],
                "depth": -2,
                "name": "Total Gas",
                "value": 208875
            }
        ],
        "isConfirmed": true,
        "mainTrace": [
            {
                "children": [
                    {
                        "children": [
                            {
                                "children": [
                                    {
                                        "children": [
                                            {
                                                "children": [],
                                                "depth": 3,
                                                "id": 3,
                                                "order": 3
                                            },
                                            {
                                                "children": [],
                                                "depth": 3,
                                                "id": 4,
                                                "order": 4
                                            },
                                            {
                                                "children": [],
                                                "depth": 3,
                                                "id": 5,
                                                "order": 5
                                            },
                                            {
                                                "children": [],
                                                "depth": 3,
                                                "id": 6,
                                                "order": 6
                                            },
                                            {
                                                "children": [],
                                                "depth": 3,
                                                "id": 7,
                                                "order": 7
                                            },
                                            {
                                                "children": [
                                                    {
                                                        "children": [],
                                                        "depth": 4,
                                                        "id": 9,
                                                        "order": 9
                                                    },
                                                    {
                                                        "children": [],
                                                        "depth": 4,
                                                        "id": 10,
                                                        "order": 10
                                                    }
                                                ],
                                                "depth": 3,
                                                "id": 8,
                                                "order": 8
                                            },
                                            {
                                                "children": [
                                                    {
                                                        "children": [],
                                                        "depth": 4,
                                                        "id": 12,
                                                        "order": 12
                                                    },
                                                    {
                                                        "children": [],
                                                        "depth": 4,
                                                        "id": 13,
                                                        "order": 13
                                                    },
                                                    {
                                                        "children": [],
                                                        "depth": 4,
                                                        "id": 14,
                                                        "order": 14
                                                    }
                                                ],
                                                "depth": 3,
                                                "id": 11,
                                                "order": 11
                                            },
                                            {
                                                "children": [
                                                    {
                                                        "children": [],
                                                        "depth": 4,
                                                        "id": 16,
                                                        "order": 16
                                                    },
                                                    {
                                                        "children": [],
                                                        "depth": 4,
                                                        "id": 17,
                                                        "order": 17
                                                    }
                                                ],
                                                "depth": 3,
                                                "id": 15,
                                                "order": 15
                                            }
                                        ],
                                        "depth": 2,
                                        "id": 2,
                                        "order": 2
                                    }
                                ],
                                "depth": 1,
                                "id": 1,
                                "order": 1
                            },
                            {
                                "children": [],
                                "depth": 1,
                                "id": 18,
                                "order": 18
                            }
                        ],
                        "depth": 0,
                        "id": 0,
                        "order": 0
                    }
                ],
                "depth": -1,
                "id": -1,
                "order": -1
            }
        ],
        "mainTraceNodeCount": 19,
        "parentIdMap": {
            "0": -1,
            "1": 0,
            "10": 8,
            "11": 2,
            "12": 11,
            "13": 11,
            "14": 11,
            "15": 2,
            "16": 15,
            "17": 15,
            "18": 0,
            "2": 1,
            "3": 2,
            "4": 2,
            "5": 2,
            "6": 2,
            "7": 2,
            "8": 2,
            "9": 8
        },
        "tidyTrace": [
            {
                "children": [
                    {
                        "children": [
                            {
                                "children": [
                                    {
                                        "children": [
                                            {
                                                "children": [],
                                                "depth": 3,
                                                "id": 3,
                                                "order": 3
                                            },
                                            {
                                                "children": [],
                                                "depth": 3,
                                                "id": 4,
                                                "order": 4
                                            },
                                            {
                                                "children": [],
                                                "depth": 3,
                                                "id": 5,
                                                "order": 5
                                            },
                                            {
                                                "children": [],
                                                "depth": 3,
                                                "id": 6,
                                                "order": 6
                                            },
                                            {
                                                "children": [],
                                                "depth": 3,
                                                "id": 7,
                                                "order": 7
                                            },
                                            {
                                                "children": [
                                                    {
                                                        "children": [],
                                                        "depth": 4,
                                                        "id": 9,
                                                        "order": 9
                                                    },
                                                    {
                                                        "children": [],
                                                        "depth": 4,
                                                        "id": 10,
                                                        "order": 10
                                                    }
                                                ],
                                                "depth": 3,
                                                "id": 8,
                                                "order": 8
                                            },
                                            {
                                                "children": [
                                                    {
                                                        "children": [],
                                                        "depth": 4,
                                                        "id": 12,
                                                        "order": 12
                                                    },
                                                    {
                                                        "children": [],
                                                        "depth": 4,
                                                        "id": 13,
                                                        "order": 13
                                                    },
                                                    {
                                                        "children": [],
                                                        "depth": 4,
                                                        "id": 14,
                                                        "order": 14
                                                    }
                                                ],
                                                "depth": 3,
                                                "id": 11,
                                                "order": 11
                                            },
                                            {
                                                "children": [
                                                    {
                                                        "children": [],
                                                        "depth": 4,
                                                        "id": 16,
                                                        "order": 16
                                                    },
                                                    {
                                                        "children": [],
                                                        "depth": 4,
                                                        "id": 17,
                                                        "order": 17
                                                    }
                                                ],
                                                "depth": 3,
                                                "id": 15,
                                                "order": 15
                                            }
                                        ],
                                        "depth": 2,
                                        "id": 2,
                                        "order": 2
                                    }
                                ],
                                "depth": 1,
                                "id": 1,
                                "order": 1
                            },
                            {
                                "children": [],
                                "depth": 1,
                                "id": 18,
                                "order": 18
                            }
                        ],
                        "depth": 0,
                        "id": 0,
                        "order": 0
                    }
                ],
                "depth": -1,
                "id": -1,
                "order": -1
            }
        ],
        "tidyTraceNodeCount": 19
    },
    "state_change": {
        "stateChanges": [
            {
                "address": "0x1292714f89f535c066d483e92a54b360f3df7589",
                "erc": "",
                "slots": [
                    {
                        "current": "0x000000000000000000000000c66ea802717bfb9833400264dd12c2bceaa34a6d",
                        "key": "0x45def901a1e0fe49b271de6332b0bc0fe92ec864df9174ec34009ea41df2cdfb",
                        "prev": "0x0000000000000000000000000000000000000000000000000000000000000000"
                    },
                    {
                        "current": "0x0000000000000000000000000000000000000000000000085f4919bde7540000",
                        "key": "0x45def901a1e0fe49b271de6332b0bc0fe92ec864df9174ec34009ea41df2cdfc",
                        "prev": "0x0000000000000000000000000000000000000000000000000000000000000000"
                    },
                    {
                        "current": "0x000000000000000000000000ecf8f87f810ecf450940c9f60066b4a7a501d6a7",
                        "key": "0x45def901a1e0fe49b271de6332b0bc0fe92ec864df9174ec34009ea41df2cdfd",
                        "prev": "0x0000000000000000000000000000000000000000000000000000000000000000"
                    },
                    {
                        "current": "0x000000000000000000000001ab8d8b74f202f4cd4a918b65da4bac612e086ee7",
                        "key": "0x45def901a1e0fe49b271de6332b0bc0fe92ec864df9174ec34009ea41df2cdfe",
                        "prev": "0x0000000000000000000000000000000000000000000000000000000000000000"
                    },
                    {
                        "current": "0x000000000000000000000000000000000000000000000000000000000000009a",
                        "key": "0x0000000000000000000000000000000000000000000000000000000000000002",
                        "prev": "0x0000000000000000000000000000000000000000000000000000000000000099"
                    },
                    {
                        "current": "0x00000000000000000000000000000000000000000000000727de34a24f900000",
                        "key": "0x45def901a1e0fe49b271de6332b0bc0fe92ec864df9174ec34009ea41df2cdfa",
                        "prev": "0x0000000000000000000000000000000000000000000000000000000000000000"
                    }
                ],
                "storageVariables": []
            },
            {
                "address": "0x96477a1c968a0e64e53b7ed01d0d6e4a311945c2",
                "erc": "",
                "slots": [
                    {
                        "current": "0x00000000000000000000000000000000000000000000000d8c25a62ab3567000",
                        "key": "0x7b103e7b37cc3f04d1898f5ef847ed4e5f1e5c1ff007b2487bf9469d845ea45d",
                        "prev": "0x000000000000000000000000000000000000000000000014b403dacd02e67000"
                    }
                ],
                "storageVariables": []
            },
            {
                "address": "0xaae65d15e74729e6072b388c2e34f67d6e327b66",
                "erc": "",
                "slots": [
                    {
                        "current": "0x00000000000000000000000000000000000000000000000146372699349f0d3f",
                        "key": "0x840c173a26e1aa81c4b8cb11d6e69449585c0939166a9655cc30b58259b8634f",
                        "prev": "0x0000000000000000000000000000000000000000000000086e155b3b842f0d3f"
                    },
                    {
                        "current": "0x000000000000000000000000000000000000000000000292da330b0a73ce647d",
                        "key": "0x266e4b23f201784da0800c741153e1df00b9533bfef77eee62306d9d99d027cb",
                        "prev": "0x00000000000000000000000000000000000000000000028bb254d668243e647d"
                    }
                ],
                "storageVariables": []
            }
        ]
    }
}