{
    "balance_change": {
        "balanceChanges": [
            {
                "account": "0x263424c055a13d793dc2baae9609be083533aa9f",
                "assets": [
                    {
                        "address": "0xe183c454ab04205415dc42e1bb48313a912d148e",
                        "amount": "50,000,000,000,000,000,000",
                        "iconUrl": "",
                        "isERC1155": false,
                        "isERC721": false,
                        "sign": true,
                        "value": ""
                    }
                ]
            },
            {
                "account": "0x1c209a63b97d92ce8be1ac801883fc71af246ee4",
                "assets": [
                    {
                        "address": "0xe183c454ab04205415dc42e1bb48313a912d148e",
                        "amount": "50,000,000,000,000,000,000",
                        "iconUrl": "",
                        "isERC1155": false,
                        "isERC721": false,
                        "sign": false,
                        "value": ""
                    }
                ]
            }
        ]
    },
    "profile": {
        "basic_info": {
            "baseFee": "",
            "blockNumber": 8510997,
            "callData": "0xa9059cbb000000000000000000000000263424c055a13d793dc2baae9609be083533aa9f000000000000000000000000000000000000000000000002b5e3af16b1880000",
            "debugEnable": true,
            "errorInfo": "",
            "eventCount": 1,
            "feeRecipient": "0xa3c084ae80a3f03963017669bc696e961d3ae5d5",
            "formatValue": "0",
            "gasLimit": 340000,
            "gasPrice": "22",
            "gasUsed": 38354,
            "intTxnCount": 0,
            "internalRevert": false,
            "internalRevertMessage": "",
            "isContractCreation": false,
            "isFlashloan": false,
            "maxFee": "",
            "nonce": 34,
            "overwritedBlockNumber": -1,
            "priorityFee": "",
            "receiver": "0xe183c454ab04205415dc42e1bb48313a912d148e",
            "revertMessage": "",
            "sender": "0x1c209a63b97d92ce8be1ac801883fc71af246ee4",
            "simulationEnable": true,
            "sourceTxnHash": "0xb72a470e690fcc00f0bc46efee95aeeaf63488c8e6b86a9e98fb576f15e0ddd3",
            "status": true,
            "timestamp": "2019-09-08T18:54:57Z",
            "transactionFee": "0.000843788",
            "txnHash": "0xb72a470e690fcc00f0bc46efee95aeeaf63488c8e6b86a9e98fb576f15e0ddd3",
            "txnIndex": 10,
            "type": 0,
            "value": "0"
        },
        "fund_flow": [
            {
                "amount": "50,000,000,000,000,000,000",
                "from": "0x1c209a63b97d92ce8be1ac801883fc71af246ee4",
                "id": 1,
                "isERC1155": false,
                "isERC721": false,
                "isReverted": false,
                "order": 1,
                "to": "0x263424c055a13d793dc2baae9609be083533aa9f",
                "token": "0xe183c454ab04205415dc42e1bb48313a912d148e"
            }
        ],
        "token_infos": [
            {
                "address": "0xc02aaa39b223fe8d0a0e5c4f27ead9083c756cc2",
                "decimals": 18
            },
            {
                "address": "0xeeeeeeeeeeeeeeeeeeeeeeeeeeeeeeeeeeeeeeee",
                "decimals": 18
            }
        ]
    },
    "address_label": {
        "labels": [
            {
                "address": "0x0000000000000000000000000000000000000003",
                "label": "Precompiled"
            },
            {
                "address": "0x0000000000000000000000000000000000000004",
                "label": "Precompiled"
            },
            {
                "address": "0xeeeeeeeeeeeeeeeeeeeeeeeeeeeeeeeeeeeeeeee",
                "label": "Ether"
            },
            {
                "address": "0x0000000000000000000000000000000000000001",
                "label": "Precompiled"
            },
            {
                "address": "0x0000000000000000000000000000000000000002",
                "label": "Precompiled"
            }
        ]
    },
    "trace": {
        "accountLabels": null,
        "dataMap": {
            "-1": {
                "invocation": {
                    "address": "0x1c209a63b97d92ce8be1ac801883fc71af246ee4",
                    "callData": "",
                    "decodedMethod": null,
                    "errorInfo": "",
                    "fromAddress": "",
                    "gasUsed": 0,
                    "id": -1,
                    "methodDecoded": false,
                    "operation": "",
                    "output": "",
                    "revert": false,
                    "revertMessage": "",
                    "selector": "",
                    "status": false,
                    "value": ""
                },
                "nodeType": 0
            },
            "0": {
                "invocation": {
                    "address": "0xe183c454ab04205415dc42e1bb48313a912d148e",
                    "callData": "0x000000000000000000000000263424c055a13d793dc2baae9609be083533aa9f000000000000000000000000000000000000000000000002b5e3af16b1880000",
                    "decodedMethod": {
                        "callParams": [
                            {
                                "name": "_to",
                                "type": "address",
                                "value": "0x263424c055a13d793dc2baae9609be083533aa9f"
                            },
                            {
                                "decimalAvailable": true,
                                "name": "_value",
                                "type": "uint256",
                                "value": "50,000,000,000,000,000,000"
                            }
                        ],
                        "constructorArguments": "",
                        "name": "transfer",
                        "returnParams": [],
                        "signature": "transfer(address,uint256)"
                    },
                    "errorInfo": "",
                    "fromAddress": "0x1c209a63b97d92ce8be1ac801883fc71af246ee4",
                    "gasUsed": 38354,
                    "id": 0,
                    "methodDecoded": true,
                    "operation": "CALL",
                    "output": "",
                    "revert": false,
                    "revertMessage": "",
                    "selector": "0xa9059cbb",
                    "status": true,
                    "value": "0"
                },
                "nodeType": 0
            },
            "1": {
                "event": {
                    "contract": "0xe183c454ab04205415dc42e1bb48313a912d148e",
                    "decodedLog": {
                        "name": "Transfer",
                        "params": [
                            {
                                "name": "from",
                                "type": "address",
                                "value": "0x1c209a63b97d92ce8be1ac801883fc71af246ee4"
                            },
                            {
                                "name": "to",
                                "type": "address",
                                "value": "0x263424c055a13d793dc2baae9609be083533aa9f"
                            },
                            {
                                "decimalAvailable": true,
                                "name": "value",
                                "type": "uint256",
                                "value": "50,000,000,000,000,000,000"
                            }
                        ],
                        "signature": "Transfer(address,address,uint256)"
                    },
                    "id": 1,
                    "logData": "0x000000000000000000000000000000000000000000000002b5e3af16b1880000",
                    "logDecoded": true,
                    "operation": "EVENT",
                    "revert": false,
                    "status": true,
                    "topics": [
                        "0xddf252ad1be2c89b69c2b068fc378daa952ba7f163c4a11628f55a4df523b3ef",
                        "0x0000000000000000000000001c209a63b97d92ce8be1ac801883fc71af246ee4",
                        "0x000000000000000000000000263424c055a13d793dc2baae9609be083533aa9f"
                    ]
                },
                "nodeType": 1
            }
        },
        "gasFlame": [
            {
                "children": [
                    {
                        "children": [
                            {
                                "children": [],
                                "depth": 0,
                                "name": "Initial Gas",
                                "value": 23256
                            },
                            {
                                "children": [],
                                "depth": 0,
                                "name": "Executed Gas",
                                "value": 15098
                            }
                        ],
                        "depth": -1,
                        "name": "Actual Gas Used",
                        "value": 38354
                    },
                    {
                        "children": [],
                        "depth": -1,
                        "name": "Refunded Gas",
                        "value": 0
                    }
                ],
                "depth": -2,
                "name": "Total Gas",
                "value": 38354
            }
        ],
        "isConfirmed": true,
        "mainTrace": [
            {
                "children": [
                    {
                        "children": [
                            {
                                "children": [],
                                "depth": 1,
                                "id": 1,
                                "order": 1
                            }
                        ],
                        "depth": 0,
                        "id": 0,
                        "order": 0
                    }
                ],
                "depth": -1,
                "id": -1,
                "order": -1
            }
        ],
        "mainTraceNodeCount": 2,
        "parentIdMap": {
            "0": -1,
            "1": 0
        },
        "tidyTrace": [
            {
                "children": [
                    {
                        "children": [
                            {
                                "children": [],
                                "depth": 1,
                                "id": 1,
                                "order": 1
                            }
                        ],
                        "depth": 0,
                        "id": 0,
                        "order": 0
                    }
                ],
                "depth": -1,
                "id": -1,
                "order": -1
            }
        ],
        "tidyTraceNodeCount": 2
    },
    "state_change": {
        "stateChanges": [
            {
                "address": "0xe183c454ab04205415dc42e1bb48313a912d148e",
                "erc": "",
                "slots": [
                    {
                        "current": "0x000000000000000000000000000000000000000000080437ba0c7cd26d700000",
                        "key": "0xb7a011d27ce4181e3a508408709b86059e2565141156b05c3774adbdce2d39f4",
                        "prev": "0x0000000000000000000000000000000000000000000804350428cdbbbbe80000"
                    },
                    {
                        "current": "0x000000000000000000000000000000000000000000000015af1d78b58c400000",
                        "key": "0x2abea6d493657735f625f604bf98aa1b0e2c3c039382c92c474afa9003c2ce4f",
                        "prev": "0x000000000000000000000000000000000000000000000018650127cc3dc80000"
                    }
                ],
                "storageVariables": []
            }
        ]
    }
}