{
    "balance_change": {
        "balanceChanges": [
            {
                "account": "0x3bb110f2546e74f06c513dda9f6abe56de15961d",
                "assets": [
                    {
                        "address": "0x4691937a7508860f876c9c0a2a617e7d9e945d4b",
                        "amount": "3,813.058813774956537342",
                        "iconUrl": "https://assets.blocksec.com/icon/f3bbe70af9fc6d1ff070cd90c3a2728ef62e522215e05a2ee9a317a0cd573736.png",
                        "isERC1155": false,
                        "isERC721": false,
                        "sign": false,
                        "value": "847.0161783"
                    }
                ]
            },
            {
                "account": "0x21985db527e30071d2231c9358cc36636d83af84",
                "assets": [
                    {
                        "address": "0x4691937a7508860f876c9c0a2a617e7d9e945d4b",
                        "amount": "3,813.058813774956537342",
                        "iconUrl": "https://assets.blocksec.com/icon/f3bbe70af9fc6d1ff070cd90c3a2728ef62e522215e05a2ee9a317a0cd573736.png",
                        "isERC1155": false,
                        "isERC721": false,
                        "sign": true,
                        "value": "847.0161783"
                    }
                ]
            }
        ]
    },
    "profile": {
        "basic_info": {
            "baseFee": "18.560308644",
            "blockNumber": 15021343,
            "callData": "0xa9059cbb00000000000000000000000021985db527e30071d2231c9358cc36636d83af840000000000000000000000000000000000000000000000ceb4d234ad48a325fe",
            "debugEnable": true,
            "errorInfo": "",
            "eventCount": 1,
            "feeRecipient": "0x829bd824b016326a401d083b33d092293333a830",
            "formatValue": "0",
            "gasLimit": 77313,
            "gasPrice": "19.970308644",
            "gasUsed": 46742,
            "intTxnCount": 0,
            "internalRevert": false,
            "internalRevertMessage": "",
            "isContractCreation": false,
            "isFlashloan": false,
            "maxFee": "20",
            "nonce": 32,
            "overwritedBlockNumber": -1,
            "priorityFee": "1.41",
            "receiver": "0x4691937a7508860f876c9c0a2a617e7d9e945d4b",
            "revertMessage": "",
            "sender": "0x3bb110f2546e74f06c513dda9f6abe56de15961d",
            "simulationEnable": true,
            "sourceTxnHash": "0xb79361f54e82ba5dfa3ddbcfb75fade8afe942af16d41a0c3b0cac5b84cfd133",
            "status": true,
            "timestamp": "2022-06-25T02:02:53Z",
            "transactionFee": "0.000933452166637848",
            "txnHash": "0xb79361f54e82ba5dfa3ddbcfb75fade8afe942af16d41a0c3b0cac5b84cfd133",
            "txnIndex": 93,
            "type": 2,
            "value": "0"
        },
        "fund_flow": [
            {
                "amount": "3,813.058813774956537342",
                "from": "0x3bb110f2546e74f06c513dda9f6abe56de15961d",
                "id": 1,
                "isERC1155": false,
                "isERC721": false,
                "isReverted": false,
                "order": 1,
                "to": "0x21985db527e30071d2231c9358cc36636d83af84",
                "token": "0x4691937a7508860f876c9c0a2a617e7d9e945d4b"
            }
        ],
        "token_infos": [
            {
                "address": "0x4691937a7508860f876c9c0a2a617e7d9e945d4b",
                "decimals": 18
            },
            {
                "address": "0xc02aaa39b223fe8d0a0e5c4f27ead9083c756cc2",
                "decimals": 18
            },
            {
                "address": "0xeeeeeeeeeeeeeeeeeeeeeeeeeeeeeeeeeeeeeeee",
                "decimals": 18
            }
        ]
    },
    "address_label": {
        "labels": [
            {
                "address": "0xeeeeeeeeeeeeeeeeeeeeeeeeeeeeeeeeeeeeeeee",
                "label": "Ether"
            },
            {
                "address": "0x4691937a7508860f876c9c0a2a617e7d9e945d4b",
                "label": "Woo Network: WOO Token"
            },
            {
                "address": "0x0000000000000000000000000000000000000001",
                "label": "Precompiled"
            },
            {
                "address": "0x0000000000000000000000000000000000000002",
                "label": "Precompiled"
            },
            {
                "address": "0x0000000000000000000000000000000000000003",
                "label": "Precompiled"
            },
            {
                "address": "0x0000000000000000000000000000000000000004",
                "label": "Precompiled"
            }
        ]
    },
    "trace": {
        "accountLabels": null,
        "dataMap": {
            "-1": {
                "invocation": {
                    "address": "0x3bb110f2546e74f06c513dda9f6abe56de15961d",
                    "callData": "",
                    "decodedMethod": null,
                    "errorInfo": "",
                    "fromAddress": "",
                    "gasUsed": 0,
                    "id": -1,
                    "methodDecoded": false,
                    "operation": "",
                    "output": "",
                    "revert": false,
                    "revertMessage": "",
                    "selector": "",
                    "status": false,
                    "value": ""
                },
                "nodeType": 0
            },
            "0": {
                "invocation": {
                    "address": "0x4691937a7508860f876c9c0a2a617e7d9e945d4b",
                    "callData": "0x00000000000000000000000021985db527e30071d2231c9358cc36636d83af840000000000000000000000000000000000000000000000ceb4d234ad48a325fe",
                    "decodedMethod": {
                        "callParams": [
                            {
                                "name": "_to",
                                "type": "address",
                                "value": "0x21985db527e30071d2231c9358cc36636d83af84"
                            },
                            {
                                "decimalAvailable": true,
                                "name": "_value",
                                "type": "uint256",
                                "value": "3,813,058,813,774,956,537,342"
                            }
                        ],
                        "constructorArguments": "",
                        "name": "transfer",
                        "returnParams": [
                            {
                                "name": "success",
                                "type": "bool",
                                "value": true
                            }
                        ],
                        "signature": "transfer(address,uint256)"
                    },
                    "errorInfo": "",
                    "fromAddress": "0x3bb110f2546e74f06c513dda9f6abe56de15961d",
                    "gasUsed": 46742,
                    "id": 0,
                    "methodDecoded": true,
                    "operation": "CALL",
                    "output": "0x0000000000000000000000000000000000000000000000000000000000000001",
                    "revert": false,
                    "revertMessage": "",
                    "selector": "0xa9059cbb",
                    "status": true,
                    "value": "0"
                },
                "nodeType": 0
            },
            "1": {
                "event": {
                    "contract": "0x4691937a7508860f876c9c0a2a617e7d9e945d4b",
                    "decodedLog": {
                        "name": "Transfer",
                        "params": [
                            {
                                "name": "_from",
                                "type": "address",
                                "value": "0x3bb110f2546e74f06c513dda9f6abe56de15961d"
                            },
                            {
                                "name": "_to",
                                "type": "address",
                                "value": "0x21985db527e30071d2231c9358cc36636d83af84"
                            },
                            {
                                "decimalAvailable": true,
                                "name": "_value",
                                "type": "uint256",
                                "value": "3,813,058,813,774,956,537,342"
                            }
                        ],
                        "signature": "Transfer(address,address,uint256)"
                    },
                    "id": 1,
                    "logData": "0x0000000000000000000000000000000000000000000000ceb4d234ad48a325fe",
                    "logDecoded": true,
                    "operation": "EVENT",
                    "revert": false,
                    "status": true,
                    "topics": [
                        "0xddf252ad1be2c89b69c2b068fc378daa952ba7f163c4a11628f55a4df523b3ef",
                        "0x0000000000000000000000003bb110f2546e74f06c513dda9f6abe56de15961d",
                        "0x00000000000000000000000021985db527e30071d2231c9358cc36636d83af84"
                    ]
                },
                "nodeType": 1
            }
        },
        "gasFlame": [
            {
                "children": [
                    {
                        "children": [
                            {
                                "children": [],
                                "depth": 0,
                                "name": "Initial Gas",
                                "value": 21656
                            },
                            {
                                "children": [],
                                "depth": 0,
                                "name": "Executed Gas",
                                "value": 29886
                            }
                        ],
                        "depth": -1,
                        "name": "Actual Gas Used",
                        "value": 46742
                    },
                    {
                        "children": [],
                        "depth": -1,
                        "name": "Refunded Gas",
                        "value": 4800
                    }
                ],
                "depth": -2,
                "name": "Total Gas",
                "value": 51542
            }
        ],
        "isConfirmed": true,
        "mainTrace": [
            {
                "children": [
                    {
                        "children": [
                            {
                                "children": [],
                                "depth": 1,
                                "id": 1,
                                "order": 1
                            }
                        ],
                        "depth": 0,
                        "id": 0,
                        "order": 0
                    }
                ],
                "depth": -1,
                "id": -1,
                "order": -1
            }
        ],
        "mainTraceNodeCount": 2,
        "parentIdMap": {
            "0": -1,
            "1": 0
        },
        "tidyTrace": [
            {
                "children": [
                    {
                        "children": [
                            {
                                "children": [],
                                "depth": 1,
                                "id": 1,
                                "order": 1
                            }
                        ],
                        "depth": 0,
                        "id": 0,
                        "order": 0
                    }
                ],
                "depth": -1,
                "id": -1,
                "order": -1
            }
        ],
        "tidyTraceNodeCount": 2
    },
    "state_change": {
        "stateChanges": [
            {
                "address": "0x4691937a7508860f876c9c0a2a617e7d9e945d4b",
                "erc": "ERC-20",
                "slots": [
                    {
                        "current": "0x0000000000000000000000000000000000000000000000000000000000000000",
                        "key": "0x08ae12374e2b5a3bfcb8a8e51913a317b9aaeebd190a47a65147dc4c37bc9e47",
                        "prev": "0x0000000000000000000000000000000000000000000000ceb4d234ad48a325fe"
                    },
                    {
                        "current": "0x0000000000000000000000000000000000000000000000ceb4d234ad48a325fe",
                        "key": "0x80f1ac98a978b15a95907f9f371c764ce780dadef39a454d84bcbca0d0ae38cf",
                        "prev": "0x0000000000000000000000000000000000000000000000000000000000000000"
                    }
                ],
                "storageVariables": [
                    {
                        "name": "balances",
                        "type": "mapping(address => uint256)",
                        "value": {
                            "pairs": [
                                {
                                    "key": "0x21985db527e30071d2231c9358cc36636d83af84",
                                    "value": {
                                        "current": "3813058813774956537342",
                                        "prev": "0",
                                        "typeTag": 1
                                    }
                                },
                                {
                                    "key": "0x3bb110f2546e74f06c513dda9f6abe56de15961d",
                                    "value": {
                                        "current": "0",
                                        "prev": "3813058813774956537342",
                                        "typeTag": 1
                                    }
                                }
                            ],
                            "typeTag": 4
                        }
                    }
                ]
            }
        ]
    }
}