{
    "balance_change": {
        "balanceChanges": [
            {
                "account": "0x8c66b5f2c0c1d815bb583170713433d38e43afec",
                "assets": [
                    {
                        "address": "0x452f4e0219638bd3ecf8a89c9328e8ad2a28c105",
                        "amount": "2,000",
                        "iconUrl": "",
                        "isERC1155": false,
                        "isERC721": false,
                        "sign": false,
                        "value": ""
                    }
                ]
            },
            {
                "account": "0x4e9e497798879981131bc7b523222a7727ac817b",
                "assets": [
                    {
                        "address": "0x452f4e0219638bd3ecf8a89c9328e8ad2a28c105",
                        "amount": "2,000",
                        "iconUrl": "",
                        "isERC1155": false,
                        "isERC721": false,
                        "sign": true,
                        "value": ""
                    }
                ]
            }
        ]
    },
    "profile": {
        "basic_info": {
            "baseFee": "",
            "blockNumber": 5549714,
            "callData": "0xa9059cbb0000000000000000000000004e9e497798879981131bc7b523222a7727ac817b0000000000000000000000000000000000000000000000000000000000030d40",
            "debugEnable": true,
            "errorInfo": "",
            "eventCount": 1,
            "feeRecipient": "0xea674fdde714fd979de3edf0f56aa9716b898ec8",
            "formatValue": "0",
            "gasLimit": 60000,
            "gasPrice": "9",
            "gasUsed": 51289,
            "intTxnCount": 0,
            "internalRevert": false,
            "internalRevertMessage": "",
            "isContractCreation": false,
            "isFlashloan": false,
            "maxFee": "",
            "nonce": 13,
            "overwritedBlockNumber": -1,
            "priorityFee": "",
            "receiver": "0x452f4e0219638bd3ecf8a89c9328e8ad2a28c105",
            "revertMessage": "",
            "sender": "0x8c66b5f2c0c1d815bb583170713433d38e43afec",
            "simulationEnable": true,
            "sourceTxnHash": "0xb8a0d4eb953f50a4cbb78e800f10959cfcaa4ad2a99eb38537f8a60db6fa2f5c",
            "status": true,
            "timestamp": "2018-05-03T15:06:35Z",
            "transactionFee": "0.000461601",
            "txnHash": "0xb8a0d4eb953f50a4cbb78e800f10959cfcaa4ad2a99eb38537f8a60db6fa2f5c",
            "txnIndex": 67,
            "type": 0,
            "value": "0"
        },
        "fund_flow": [
            {
                "amount": "2,000",
                "from": "0x8c66b5f2c0c1d815bb583170713433d38e43afec",
                "id": 1,
                "isERC1155": false,
                "isERC721": false,
                "isReverted": false,
                "order": 1,
                "to": "0x4e9e497798879981131bc7b523222a7727ac817b",
                "token": "0x452f4e0219638bd3ecf8a89c9328e8ad2a28c105"
            }
        ],
        "token_infos": [
            {
                "address": "0xeeeeeeeeeeeeeeeeeeeeeeeeeeeeeeeeeeeeeeee",
                "decimals": 18
            },
            {
                "address": "0x452f4e0219638bd3ecf8a89c9328e8ad2a28c105",
                "decimals": 2
            },
            {
                "address": "0xc02aaa39b223fe8d0a0e5c4f27ead9083c756cc2",
                "decimals": 18
            }
        ]
    },
    "address_label": {
        "labels": [
            {
                "address": "0xeeeeeeeeeeeeeeeeeeeeeeeeeeeeeeeeeeeeeeee",
                "label": "Ether"
            },
            {
                "address": "0x452f4e0219638bd3ecf8a89c9328e8ad2a28c105",
                "label": "SCK"
            },
            {
                "address": "0x0000000000000000000000000000000000000001",
                "label": "Precompiled"
            },
            {
                "address": "0x0000000000000000000000000000000000000002",
                "label": "Precompiled"
            },
            {
                "address": "0x0000000000000000000000000000000000000003",
                "label": "Precompiled"
            },
            {
                "address": "0x0000000000000000000000000000000000000004",
                "label": "Precompiled"
            }
        ]
    },
    "trace": {
        "accountLabels": null,
        "dataMap": {
            "-1": {
                "invocation": {
                    "address": "0x8c66b5f2c0c1d815bb583170713433d38e43afec",
                    "callData": "",
                    "decodedMethod": null,
                    "errorInfo": "",
                    "fromAddress": "",
                    "gasUsed": 0,
                    "id": -1,
                    "methodDecoded": false,
                    "operation": "",
                    "output": "",
                    "revert": false,
                    "revertMessage": "",
                    "selector": "",
                    "status": false,
                    "value": ""
                },
                "nodeType": 0
            },
            "0": {
                "invocation": {
                    "address": "0x452f4e0219638bd3ecf8a89c9328e8ad2a28c105",
                    "callData": "0x0000000000000000000000004e9e497798879981131bc7b523222a7727ac817b0000000000000000000000000000000000000000000000000000000000030d40",
                    "decodedMethod": {
                        "callParams": [
                            {
                                "name": "_to",
                                "type": "address",
                                "value": "0x4e9e497798879981131bc7b523222a7727ac817b"
                            },
                            {
                                "decimalAvailable": true,
                                "name": "_value",
                                "type": "uint256",
                                "value": "200,000"
                            }
                        ],
                        "constructorArguments": "",
                        "name": "transfer",
                        "returnParams": [
                            {
                                "name": "success",
                                "type": "bool",
                                "value": true
                            }
                        ],
                        "signature": "transfer(address,uint256)"
                    },
                    "errorInfo": "",
                    "fromAddress": "0x8c66b5f2c0c1d815bb583170713433d38e43afec",
                    "gasUsed": 51289,
                    "id": 0,
                    "methodDecoded": true,
                    "operation": "CALL",
                    "output": "0x0000000000000000000000000000000000000000000000000000000000000001",
                    "revert": false,
                    "revertMessage": "",
                    "selector": "0xa9059cbb",
                    "status": true,
                    "value": "0"
                },
                "nodeType": 0
            },
            "1": {
                "event": {
                    "contract": "0x452f4e0219638bd3ecf8a89c9328e8ad2a28c105",
                    "decodedLog": {
                        "name": "Transfer",
                        "params": [
                            {
                                "name": "_from",
                                "type": "address",
                                "value": "0x8c66b5f2c0c1d815bb583170713433d38e43afec"
                            },
                            {
                                "name": "_to",
                                "type": "address",
                                "value": "0x4e9e497798879981131bc7b523222a7727ac817b"
                            },
                            {
                                "decimalAvailable": true,
                                "name": "_value",
                                "type": "uint256",
                                "value": "200,000"
                            }
                        ],
                        "signature": "Transfer(address,address,uint256)"
                    },
                    "id": 1,
                    "logData": "0x0000000000000000000000000000000000000000000000000000000000030d40",
                    "logDecoded": true,
                    "operation": "EVENT",
                    "revert": false,
                    "status": true,
                    "topics": [
                        "0xddf252ad1be2c89b69c2b068fc378daa952ba7f163c4a11628f55a4df523b3ef",
                        "0x0000000000000000000000008c66b5f2c0c1d815bb583170713433d38e43afec",
                        "0x0000000000000000000000004e9e497798879981131bc7b523222a7727ac817b"
                    ]
                },
                "nodeType": 1
            }
        },
        "gasFlame": [
            {
                "children": [
                    {
                        "children": [
                            {
                                "children": [],
                                "depth": 0,
                                "name": "Initial Gas",
                                "value": 23000
                            },
                            {
                                "children": [],
                                "depth": 0,
                                "name": "Executed Gas",
                                "value": 28289
                            }
                        ],
                        "depth": -1,
                        "name": "Actual Gas Used",
                        "value": 51289
                    },
                    {
                        "children": [],
                        "depth": -1,
                        "name": "Refunded Gas",
                        "value": 0
                    }
                ],
                "depth": -2,
                "name": "Total Gas",
                "value": 51289
            }
        ],
        "isConfirmed": true,
        "mainTrace": [
            {
                "children": [
                    {
                        "children": [
                            {
                                "children": [],
                                "depth": 1,
                                "id": 1,
                                "order": 1
                            }
                        ],
                        "depth": 0,
                        "id": 0,
                        "order": 0
                    }
                ],
                "depth": -1,
                "id": -1,
                "order": -1
            }
        ],
        "mainTraceNodeCount": 2,
        "parentIdMap": {
            "0": -1,
            "1": 0
        },
        "tidyTrace": [
            {
                "children": [
                    {
                        "children": [
                            {
                                "children": [],
                                "depth": 1,
                                "id": 1,
                                "order": 1
                            }
                        ],
                        "depth": 0,
                        "id": 0,
                        "order": 0
                    }
                ],
                "depth": -1,
                "id": -1,
                "order": -1
            }
        ],
        "tidyTraceNodeCount": 2
    },
    "state_change": {
        "stateChanges": [
            {
                "address": "0x452f4e0219638bd3ecf8a89c9328e8ad2a28c105",
                "erc": "ERC-20",
                "slots": [
                    {
                        "current": "0x000000000000000000000000000000000000000000000000000000000008d9a0",
                        "key": "0xf49b82dbb2cfef5e2f38c7899e62b842da8a69f2244ee86df944f99d6fa32259",
                        "prev": "0x00000000000000000000000000000000000000000000000000000000000be6e0"
                    },
                    {
                        "current": "0x0000000000000000000000000000000000000000000000000000000000030d40",
                        "key": "0xc6fb00592167812fa0b9f6d12d6b06206f4dd9bf105d22ae08b3c4e7adc03173",
                        "prev": "0x0000000000000000000000000000000000000000000000000000000000000000"
                    }
                ],
                "storageVariables": []
            }
        ]
    }
}