{
    "balance_change": {
        "balanceChanges": []
    },
    "profile": {
        "basic_info": {
            "baseFee": "9.295286803",
            "blockNumber": 14817131,
            "callData": "0xa0712d680000000000000000000000000000000000000000000000000000000000000001",
            "debugEnable": true,
            "errorInfo": "out of gas",
            "eventCount": 0,
            "feeRecipient": "0xea674fdde714fd979de3edf0f56aa9716b898ec8",
            "formatValue": "0.005",
            "gasLimit": 80000,
            "gasPrice": "10",
            "gasUsed": 80000,
            "intTxnCount": 0,
            "internalRevert": false,
            "internalRevertMessage": "",
            "isContractCreation": false,
            "isFlashloan": false,
            "maxFee": "10",
            "nonce": 1,
            "overwritedBlockNumber": -1,
            "priorityFee": "10",
            "receiver": "0xff14fe4f84e3adf3ad5f65bcad01da5d0a289f5b",
            "revertMessage": "",
            "sender": "0x266b749353a5e0c4f921ae91c6a91f80cb7dccea",
            "simulationEnable": true,
            "sourceTxnHash": "0xb8c02934707812aab2391e53ba91df4d0b5e30cadc63d361cffb81549d9f30d2",
            "status": false,
            "timestamp": "2022-05-21T11:55:37Z",
            "transactionFee": "0.0008",
            "txnHash": "0xb8c02934707812aab2391e53ba91df4d0b5e30cadc63d361cffb81549d9f30d2",
            "txnIndex": 130,
            "type": 2,
            "value": "5000000000000000"
        },
        "fund_flow": [],
        "token_infos": [
            {
                "address": "0xc02aaa39b223fe8d0a0e5c4f27ead9083c756cc2",
                "decimals": 18
            },
            {
                "address": "0xeeeeeeeeeeeeeeeeeeeeeeeeeeeeeeeeeeeeeeee",
                "decimals": 18
            }
        ]
    },
    "address_label": {
        "labels": [
            {
                "address": "0x0000000000000000000000000000000000000003",
                "label": "Precompiled"
            },
            {
                "address": "0x0000000000000000000000000000000000000004",
                "label": "Precompiled"
            },
            {
                "address": "0xeeeeeeeeeeeeeeeeeeeeeeeeeeeeeeeeeeeeeeee",
                "label": "Ether"
            },
            {
                "address": "0xff14fe4f84e3adf3ad5f65bcad01da5d0a289f5b",
                "label": "NAY"
            },
            {
                "address": "0x0000000000000000000000000000000000000001",
                "label": "Precompiled"
            },
            {
                "address": "0x0000000000000000000000000000000000000002",
                "label": "Precompiled"
            }
        ]
    },
    "trace": {
        "accountLabels": null,
        "dataMap": {
            "-1": {
                "invocation": {
                    "address": "0x266b749353a5e0c4f921ae91c6a91f80cb7dccea",
                    "callData": "",
                    "decodedMethod": null,
                    "errorInfo": "",
                    "fromAddress": "",
                    "gasUsed": 0,
                    "id": -1,
                    "methodDecoded": false,
                    "operation": "",
                    "output": "",
                    "revert": false,
                    "revertMessage": "",
                    "selector": "",
                    "status": false,
                    "value": ""
                },
                "nodeType": 0
            },
            "0": {
                "invocation": {
                    "address": "0xff14fe4f84e3adf3ad5f65bcad01da5d0a289f5b",
                    "callData": "0x0000000000000000000000000000000000000000000000000000000000000001",
                    "decodedMethod": {
                        "callParams": [
                            {
                                "name": "_quantity",
                                "type": "uint256",
                                "value": "1"
                            }
                        ],
                        "constructorArguments": "",
                        "name": "mint",
                        "returnParams": [],
                        "signature": "mint(uint256)"
                    },
                    "errorInfo": "out of gas",
                    "fromAddress": "0x266b749353a5e0c4f921ae91c6a91f80cb7dccea",
                    "gasUsed": 80000,
                    "id": 0,
                    "methodDecoded": true,
                    "operation": "CALL",
                    "output": "",
                    "revert": true,
                    "revertMessage": "",
                    "selector": "0xa0712d68",
                    "status": false,
                    "value": "0.005"
                },
                "nodeType": 0
            }
        },
        "gasFlame": [
            {
                "children": [
                    {
                        "children": [
                            {
                                "children": [],
                                "depth": 0,
                                "name": "Initial Gas",
                                "value": 21204
                            },
                            {
                                "children": [],
                                "depth": 0,
                                "name": "Executed Gas",
                                "value": 58796
                            }
                        ],
                        "depth": -1,
                        "name": "Actual Gas Used",
                        "value": 80000
                    },
                    {
                        "children": [],
                        "depth": -1,
                        "name": "Refunded Gas",
                        "value": 0
                    }
                ],
                "depth": -2,
                "name": "Total Gas",
                "value": 80000
            }
        ],
        "isConfirmed": true,
        "mainTrace": [
            {
                "children": [
                    {
                        "children": [],
                        "depth": 0,
                        "id": 0,
                        "order": 0
                    }
                ],
                "depth": -1,
                "id": -1,
                "order": -1
            }
        ],
        "mainTraceNodeCount": 1,
        "parentIdMap": {
            "0": -1
        },
        "tidyTrace": [
            {
                "children": [
                    {
                        "children": [],
                        "depth": 0,
                        "id": 0,
                        "order": 0
                    }
                ],
                "depth": -1,
                "id": -1,
                "order": -1
            }
        ],
        "tidyTraceNodeCount": 1
    },
    "state_change": {
        "stateChanges": []
    }
}