{
    "balance_change": {
        "balanceChanges": [
            {
                "account": "0xc5b373618d4d01a38f822f56ca6d2ff5080cc4f2",
                "assets": [
                    {
                        "address": "0xeeeeeeeeeeeeeeeeeeeeeeeeeeeeeeeeeeeeeeee",
                        "amount": "0.008",
                        "iconUrl": "https://assets.blocksec.com/image/1663669189317-3.png",
                        "isERC1155": false,
                        "isERC721": false,
                        "sign": true,
                        "value": ""
                    }
                ]
            },
            {
                "account": "0x06012c8cf97bead5deae237070f9587f8e7a266d",
                "assets": [
                    {
                        "address": "0xeeeeeeeeeeeeeeeeeeeeeeeeeeeeeeeeeeeeeeee",
                        "amount": "0.008",
                        "iconUrl": "https://assets.blocksec.com/image/1663669189317-3.png",
                        "isERC1155": false,
                        "isERC721": false,
                        "sign": false,
                        "value": ""
                    }
                ]
            }
        ]
    },
    "profile": {
        "basic_info": {
            "baseFee": "",
            "blockNumber": 5220357,
            "callData": "0x6a806229000000000000000000000000000000000000000000000000000000000000000b0000000000000000000000000000000000000000000000000000000000074f96",
            "debugEnable": true,
            "errorInfo": "",
            "eventCount": 2,
            "feeRecipient": "0xea674fdde714fd979de3edf0f56aa9716b898ec8",
            "formatValue": "0",
            "gasLimit": 360000,
            "gasPrice": "5.1001",
            "gasUsed": 166438,
            "intTxnCount": 5,
            "internalRevert": false,
            "internalRevertMessage": "",
            "isContractCreation": false,
            "isFlashloan": false,
            "maxFee": "",
            "nonce": 30264,
            "overwritedBlockNumber": -1,
            "priorityFee": "",
            "receiver": "0x903625318d13a3529fb4309fd57dd8d105fcd39c",
            "revertMessage": "",
            "sender": "0xc5b373618d4d01a38f822f56ca6d2ff5080cc4f2",
            "simulationEnable": true,
            "sourceTxnHash": "0xb87cb9775fa62053c80c137647366b659be4da1027c17151f53ba74b1cca43ff",
            "status": true,
            "timestamp": "2018-03-08T20:11:47Z",
            "transactionFee": "0.0008488504438",
            "txnHash": "0xb87cb9775fa62053c80c137647366b659be4da1027c17151f53ba74b1cca43ff",
            "txnIndex": 5,
            "type": 0,
            "value": "0"
        },
        "fund_flow": [
            {
                "amount": "0.008",
                "from": "0x06012c8cf97bead5deae237070f9587f8e7a266d",
                "id": 1,
                "isERC1155": false,
                "isERC721": false,
                "isReverted": false,
                "order": 1,
                "to": "0x903625318d13a3529fb4309fd57dd8d105fcd39c",
                "token": "0xeeeeeeeeeeeeeeeeeeeeeeeeeeeeeeeeeeeeeeee"
            },
            {
                "amount": "0.008",
                "from": "0x903625318d13a3529fb4309fd57dd8d105fcd39c",
                "id": 2,
                "isERC1155": false,
                "isERC721": false,
                "isReverted": false,
                "order": 2,
                "to": "0xc5b373618d4d01a38f822f56ca6d2ff5080cc4f2",
                "token": "0xeeeeeeeeeeeeeeeeeeeeeeeeeeeeeeeeeeeeeeee"
            }
        ],
        "token_infos": [
            {
                "address": "0xc02aaa39b223fe8d0a0e5c4f27ead9083c756cc2",
                "decimals": 18
            },
            {
                "address": "0xeeeeeeeeeeeeeeeeeeeeeeeeeeeeeeeeeeeeeeee",
                "decimals": 18
            }
        ]
    },
    "address_label": {
        "labels": [
            {
                "address": "0x0000000000000000000000000000000000000002",
                "label": "Precompiled"
            },
            {
                "address": "0x0000000000000000000000000000000000000003",
                "label": "Precompiled"
            },
            {
                "address": "0x0000000000000000000000000000000000000004",
                "label": "Precompiled"
            },
            {
                "address": "0xeeeeeeeeeeeeeeeeeeeeeeeeeeeeeeeeeeeeeeee",
                "label": "Ether"
            },
            {
                "address": "0x06012c8cf97bead5deae237070f9587f8e7a266d",
                "label": "CryptoKitties: Core"
            },
            {
                "address": "0xf97e0a5b616dffc913e72455fde9ea8bbe946a2b",
                "label": "GeneScience"
            },
            {
                "address": "0x0000000000000000000000000000000000000001",
                "label": "Precompiled"
            }
        ]
    },
    "trace": {
        "accountLabels": null,
        "dataMap": {
            "-1": {
                "invocation": {
                    "address": "0xc5b373618d4d01a38f822f56ca6d2ff5080cc4f2",
                    "callData": "",
                    "decodedMethod": null,
                    "errorInfo": "",
                    "fromAddress": "",
                    "gasUsed": 0,
                    "id": -1,
                    "methodDecoded": false,
                    "operation": "",
                    "output": "",
                    "revert": false,
                    "revertMessage": "",
                    "selector": "",
                    "status": false,
                    "value": ""
                },
                "nodeType": 0
            },
            "0": {
                "invocation": {
                    "address": "0x903625318d13a3529fb4309fd57dd8d105fcd39c",
                    "callData": "0x000000000000000000000000000000000000000000000000000000000000000b0000000000000000000000000000000000000000000000000000000000074f96",
                    "decodedMethod": null,
                    "errorInfo": "",
                    "fromAddress": "0xc5b373618d4d01a38f822f56ca6d2ff5080cc4f2",
                    "gasUsed": 166438,
                    "id": 0,
                    "methodDecoded": false,
                    "operation": "CALL",
                    "output": "",
                    "revert": false,
                    "revertMessage": "",
                    "selector": "0x6a806229",
                    "status": true,
                    "value": "0"
                },
                "nodeType": 0
            },
            "1": {
                "invocation": {
                    "address": "0x06012c8cf97bead5deae237070f9587f8e7a266d",
                    "callData": "0x0000000000000000000000000000000000000000000000000000000000074f96",
                    "decodedMethod": {
                        "callParams": [
                            {
                                "name": "_matronId",
                                "type": "uint256",
                                "value": "479,126"
                            }
                        ],
                        "constructorArguments": "",
                        "name": "giveBirth",
                        "returnParams": [
                            {
                                "name": "",
                                "type": "uint256",
                                "value": "597,158"
                            }
                        ],
                        "signature": "giveBirth(uint256)"
                    },
                    "errorInfo": "",
                    "fromAddress": "0x903625318d13a3529fb4309fd57dd8d105fcd39c",
                    "gasUsed": 237833,
                    "id": 1,
                    "methodDecoded": true,
                    "operation": "CALL",
                    "output": "0x0000000000000000000000000000000000000000000000000000000000091ca6",
                    "revert": false,
                    "revertMessage": "",
                    "selector": "0x88c2a0bf",
                    "status": true,
                    "value": "0"
                },
                "nodeType": 0
            },
            "2": {
                "invocation": {
                    "address": "0xf97e0a5b616dffc913e72455fde9ea8bbe946a2b",
                    "callData": "0x000042d68390a430d2e02403000a331c213350e19805198c3304235392a4b17600004b16829093498c358862608e5029816b5682988418ce638c21524e37b13700000000000000000000000000000000000000000000000000000000004fa804",
                    "decodedMethod": {
                        "callParams": [
                            {
                                "name": "_genes1",
                                "type": "uint256",
                                "value": "461,298,542,887,164,402,236,829,004,175,990,360,424,308,763,234,825,578,125,401,944,955,859,318"
                            },
                            {
                                "name": "_genes2",
                                "type": "uint256",
                                "value": "518,237,844,908,732,132,980,962,847,237,482,864,486,315,929,321,982,290,056,724,445,568,414,007"
                            },
                            {
                                "name": "_targetBlock",
                                "type": "uint256",
                                "value": "5,220,356"
                            }
                        ],
                        "constructorArguments": "",
                        "name": "mixGenes",
                        "returnParams": [
                            {
                                "name": "",
                                "type": "uint256",
                                "value": "461,136,630,175,237,667,946,577,713,054,651,892,479,429,266,160,575,972,362,495,188,202,300,731"
                            }
                        ],
                        "signature": "mixGenes(uint256,uint256,uint256)"
                    },
                    "errorInfo": "",
                    "fromAddress": "0x06012c8cf97bead5deae237070f9587f8e7a266d",
                    "gasUsed": 103225,
                    "id": 2,
                    "methodDecoded": true,
                    "operation": "CALL",
                    "output": "0x000042d0821ca430d2e48863000e531c016ada8190c418ce6304215386a6253b",
                    "revert": false,
                    "revertMessage": "",
                    "selector": "0x0d9f5aed",
                    "status": true,
                    "value": "0"
                },
                "nodeType": 0
            },
            "3": {
                "event": {
                    "contract": "0x06012c8cf97bead5deae237070f9587f8e7a266d",
                    "decodedLog": {
                        "name": "Birth",
                        "params": [
                            {
                                "name": "owner",
                                "type": "address",
                                "value": "0x16205a6048b6af17f1ac1a009bbf2ed9289e6921"
                            },
                            {
                                "name": "kittyId",
                                "type": "uint256",
                                "value": "597,158"
                            },
                            {
                                "name": "matronId",
                                "type": "uint256",
                                "value": "479,126"
                            },
                            {
                                "name": "sireId",
                                "type": "uint256",
                                "value": "592,291"
                            },
                            {
                                "name": "genes",
                                "type": "uint256",
                                "value": "461,136,630,175,237,667,946,577,713,054,651,892,479,429,266,160,575,972,362,495,188,202,300,731"
                            }
                        ],
                        "signature": "Birth(address,uint256,uint256,uint256,uint256)"
                    },
                    "id": 3,
                    "logData": "0x00000000000000000000000016205a6048b6af17f1ac1a009bbf2ed9289e69210000000000000000000000000000000000000000000000000000000000091ca60000000000000000000000000000000000000000000000000000000000074f9600000000000000000000000000000000000000000000000000000000000909a3000042d0821ca430d2e48863000e531c016ada8190c418ce6304215386a6253b",
                    "logDecoded": true,
                    "operation": "EVENT",
                    "revert": false,
                    "status": true,
                    "topics": [
                        "0x0a5311bd2a6608f08a180df2ee7c5946819a649b204b554bb8e39825b2c50ad5"
                    ]
                },
                "nodeType": 1
            },
            "4": {
                "event": {
                    "contract": "0x06012c8cf97bead5deae237070f9587f8e7a266d",
                    "decodedLog": {
                        "name": "Transfer",
                        "params": [
                            {
                                "name": "from",
                                "type": "address",
                                "value": "0x0000000000000000000000000000000000000000"
                            },
                            {
                                "name": "to",
                                "type": "address",
                                "value": "0x16205a6048b6af17f1ac1a009bbf2ed9289e6921"
                            },
                            {
                                "decimalAvailable": true,
                                "name": "tokenId",
                                "type": "uint256",
                                "value": "597,158"
                            }
                        ],
                        "signature": "Transfer(address,address,uint256)"
                    },
                    "id": 4,
                    "logData": "0x000000000000000000000000000000000000000000000000000000000000000000000000000000000000000016205a6048b6af17f1ac1a009bbf2ed9289e69210000000000000000000000000000000000000000000000000000000000091ca6",
                    "logDecoded": true,
                    "operation": "EVENT",
                    "revert": false,
                    "status": true,
                    "topics": [
                        "0xddf252ad1be2c89b69c2b068fc378daa952ba7f163c4a11628f55a4df523b3ef"
                    ]
                },
                "nodeType": 1
            },
            "5": {
                "invocation": {
                    "address": "0x903625318d13a3529fb4309fd57dd8d105fcd39c",
                    "callData": "0x",
                    "decodedMethod": null,
                    "errorInfo": "",
                    "fromAddress": "0x06012c8cf97bead5deae237070f9587f8e7a266d",
                    "gasUsed": 349,
                    "id": 5,
                    "methodDecoded": false,
                    "operation": "CALL",
                    "output": "",
                    "revert": false,
                    "revertMessage": "",
                    "selector": "fallback",
                    "status": true,
                    "value": "0.008"
                },
                "nodeType": 0
            },
            "6": {
                "invocation": {
                    "address": "0xb1a8c1371ee2c4bcc27916cd9faadbfa594c9b57",
                    "callData": "0x000000000000000000000000000000000000000000000000000000000000000b",
                    "decodedMethod": {
                        "callParams": [
                            {
                                "name": "_amount",
                                "type": "uint256",
                                "value": "11"
                            }
                        ],
                        "constructorArguments": "",
                        "name": "spend",
                        "returnParams": [],
                        "signature": "spend(uint256)"
                    },
                    "errorInfo": "",
                    "fromAddress": "0x903625318d13a3529fb4309fd57dd8d105fcd39c",
                    "gasUsed": 61370,
                    "id": 6,
                    "methodDecoded": true,
                    "operation": "CALL",
                    "output": "",
                    "revert": false,
                    "revertMessage": "",
                    "selector": "0x1dbf3bc7",
                    "status": true,
                    "value": "0"
                },
                "nodeType": 0
            },
            "7": {
                "invocation": {
                    "address": "0xc5b373618d4d01a38f822f56ca6d2ff5080cc4f2",
                    "callData": "0x",
                    "decodedMethod": null,
                    "errorInfo": "",
                    "fromAddress": "0x903625318d13a3529fb4309fd57dd8d105fcd39c",
                    "gasUsed": 0,
                    "id": 7,
                    "methodDecoded": false,
                    "operation": "CALL",
                    "output": "",
                    "revert": false,
                    "revertMessage": "",
                    "selector": "fallback",
                    "status": true,
                    "value": "0.008"
                },
                "nodeType": 0
            }
        },
        "gasFlame": [
            {
                "children": [
                    {
                        "children": [
                            {
                                "children": [],
                                "depth": 0,
                                "name": "Initial Gas",
                                "value": 21784
                            },
                            {
                                "children": [
                                    {
                                        "children": [
                                            {
                                                "children": [],
                                                "depth": 2,
                                                "name": "mixGenes",
                                                "value": 103225
                                            },
                                            {
                                                "children": [],
                                                "depth": 2,
                                                "name": "fallback",
                                                "value": 349
                                            }
                                        ],
                                        "depth": 1,
                                        "name": "giveBirth",
                                        "value": 237833
                                    },
                                    {
                                        "children": [],
                                        "depth": 1,
                                        "name": "spend",
                                        "value": 61370
                                    },
                                    {
                                        "children": [],
                                        "depth": 1,
                                        "name": "fallback",
                                        "value": 0
                                    }
                                ],
                                "depth": 0,
                                "name": "Executed Gas",
                                "value": 309654
                            }
                        ],
                        "depth": -1,
                        "name": "Actual Gas Used",
                        "value": 166438
                    },
                    {
                        "children": [],
                        "depth": -1,
                        "name": "Refunded Gas",
                        "value": 165000
                    }
                ],
                "depth": -2,
                "name": "Total Gas",
                "value": 331438
            }
        ],
        "isConfirmed": true,
        "mainTrace": [
            {
                "children": [
                    {
                        "children": [
                            {
                                "children": [
                                    {
                                        "children": [],
                                        "depth": 2,
                                        "id": 2,
                                        "order": 2
                                    },
                                    {
                                        "children": [],
                                        "depth": 2,
                                        "id": 3,
                                        "order": 3
                                    },
                                    {
                                        "children": [],
                                        "depth": 2,
                                        "id": 4,
                                        "order": 4
                                    },
                                    {
                                        "children": [],
                                        "depth": 2,
                                        "id": 5,
                                        "order": 5
                                    }
                                ],
                                "depth": 1,
                                "id": 1,
                                "order": 1
                            },
                            {
                                "children": [],
                                "depth": 1,
                                "id": 6,
                                "order": 6
                            },
                            {
                                "children": [],
                                "depth": 1,
                                "id": 7,
                                "order": 7
                            }
                        ],
                        "depth": 0,
                        "id": 0,
                        "order": 0
                    }
                ],
                "depth": -1,
                "id": -1,
                "order": -1
            }
        ],
        "mainTraceNodeCount": 8,
        "parentIdMap": {
            "0": -1,
            "1": 0,
            "2": 1,
            "3": 1,
            "4": 1,
            "5": 1,
            "6": 0,
            "7": 0
        },
        "tidyTrace": [
            {
                "children": [
                    {
                        "children": [
                            {
                                "children": [
                                    {
                                        "children": [],
                                        "depth": 2,
                                        "id": 2,
                                        "order": 2
                                    },
                                    {
                                        "children": [],
                                        "depth": 2,
                                        "id": 3,
                                        "order": 3
                                    },
                                    {
                                        "children": [],
                                        "depth": 2,
                                        "id": 4,
                                        "order": 4
                                    },
                                    {
                                        "children": [],
                                        "depth": 2,
                                        "id": 5,
                                        "order": 5
                                    }
                                ],
                                "depth": 1,
                                "id": 1,
                                "order": 1
                            },
                            {
                                "children": [],
                                "depth": 1,
                                "id": 6,
                                "order": 6
                            },
                            {
                                "children": [],
                                "depth": 1,
                                "id": 7,
                                "order": 7
                            }
                        ],
                        "depth": 0,
                        "id": 0,
                        "order": 0
                    }
                ],
                "depth": -1,
                "id": -1,
                "order": -1
            }
        ],
        "tidyTraceNodeCount": 8
    },
    "state_change": {
        "stateChanges": [
            {
                "address": "0x06012c8cf97bead5deae237070f9587f8e7a266d",
                "erc": "",
                "slots": [
                    {
                        "current": "0x000042d0821ca430d2e48863000e531c016ada8190c418ce6304215386a6253b",
                        "key": "0xf652222313e28459528d920b65115c16c04f3efc82aaedc97be59f3f378e468b",
                        "prev": "0x0000000000000000000000000000000000000000000000000000000000000000"
                    },
                    {
                        "current": "0x0003000100000000000909a300074f960000000000000000000000005aa19903",
                        "key": "0xf652222313e28459528d920b65115c16c04f3efc82aaedc97be59f3f378e468c",
                        "prev": "0x0000000000000000000000000000000000000000000000000000000000000000"
                    },
                    {
                        "current": "0x00000000000000000000000000000000000000000000000000000000000002de",
                        "key": "0x5bee99e7de5412d9641617f105863e75654f43ca4aadcd90712be8c4b520a286",
                        "prev": "0x00000000000000000000000000000000000000000000000000000000000002dd"
                    },
                    {
                        "current": "0x00000000000000000000000016205a6048b6af17f1ac1a009bbf2ed9289e6921",
                        "key": "0x36b8d38cef966670a989662654e0b17d60c2d52d02f5028fa93ea3591eae2ce9",
                        "prev": "0x0000000000000000000000000000000000000000000000000000000000000000"
                    },
                    {
                        "current": "0x000200070000000000051a4300074de000000000004fa805000000005a67e066",
                        "key": "0xf652222313e28459528d920b65115c16c04f3efc82aaedc97be59f3f378aac6c",
                        "prev": "0x00020007000909a300051a4300074de000000000004fa805000000005a67e066"
                    },
                    {
                        "current": "0x0000000000000000000000000000000000000000000000000000000000000365",
                        "key": "0x000000000000000000000000000000000000000000000000000000000000000f",
                        "prev": "0x0000000000000000000000000000000000000000000000000000000000000366"
                    },
                    {
                        "current": "0x0000000000000000000000000000000000000000000000000000000000091ca7",
                        "key": "0x0000000000000000000000000000000000000000000000000000000000000006",
                        "prev": "0x0000000000000000000000000000000000000000000000000000000000091ca6"
                    }
                ],
                "storageVariables": [
                    {
                        "name": "kittyIndexToOwner",
                        "type": "mapping(uint256 => address)",
                        "value": {
                            "pairs": [
                                {
                                    "key": "597158",
                                    "value": {
                                        "current": "0x16205a6048b6af17f1ac1a009bbf2ed9289e6921",
                                        "prev": "0x0000000000000000000000000000000000000000",
                                        "typeTag": 1
                                    }
                                }
                            ],
                            "typeTag": 4
                        }
                    },
                    {
                        "name": "pregnantKitties",
                        "type": "uint256",
                        "value": {
                            "current": "869",
                            "prev": "870",
                            "typeTag": 1
                        }
                    },
                    {
                        "name": "kitties",
                        "type": "struct KittyBase.Kitty[]",
                        "value": {
                            "elemType": "struct KittyBase.Kitty",
                            "elems": [
                                {
                                    "index": 479126,
                                    "value": {
                                        "fields": [
                                            {
                                                "name": "birthTime",
                                                "type": "uint64",
                                                "value": {
                                                    "current": "1516757094",
                                                    "prev": "1516757094",
                                                    "typeTag": 1
                                                }
                                            },
                                            {
                                                "name": "cooldownEndBlock",
                                                "type": "uint64",
                                                "value": {
                                                    "current": "5220357",
                                                    "prev": "5220357",
                                                    "typeTag": 1
                                                }
                                            },
                                            {
                                                "name": "matronId",
                                                "type": "uint32",
                                                "value": {
                                                    "current": "478688",
                                                    "prev": "478688",
                                                    "typeTag": 1
                                                }
                                            },
                                            {
                                                "name": "sireId",
                                                "type": "uint32",
                                                "value": {
                                                    "current": "334403",
                                                    "prev": "334403",
                                                    "typeTag": 1
                                                }
                                            },
                                            {
                                                "name": "siringWithId",
                                                "type": "uint32",
                                                "value": {
                                                    "current": "0",
                                                    "prev": "592291",
                                                    "typeTag": 1
                                                }
                                            },
                                            {
                                                "name": "cooldownIndex",
                                                "type": "uint16",
                                                "value": {
                                                    "current": "7",
                                                    "prev": "7",
                                                    "typeTag": 1
                                                }
                                            },
                                            {
                                                "name": "generation",
                                                "type": "uint16",
                                                "value": {
                                                    "current": "2",
                                                    "prev": "2",
                                                    "typeTag": 1
                                                }
                                            }
                                        ],
                                        "typeTag": 3
                                    }
                                },
                                {
                                    "index": 597158,
                                    "value": {
                                        "fields": [
                                            {
                                                "name": "genes",
                                                "type": "uint256",
                                                "value": {
                                                    "current": "461136630175237667946577713054651892479429266160575972362495188202300731",
                                                    "prev": "0",
                                                    "typeTag": 1
                                                }
                                            },
                                            {
                                                "name": "birthTime",
                                                "type": "uint64",
                                                "value": {
                                                    "current": "1520539907",
                                                    "prev": "0",
                                                    "typeTag": 1
                                                }
                                            },
                                            {
                                                "name": "cooldownEndBlock",
                                                "type": "uint64",
                                                "value": {
                                                    "current": "0",
                                                    "prev": "0",
                                                    "typeTag": 1
                                                }
                                            },
                                            {
                                                "name": "matronId",
                                                "type": "uint32",
                                                "value": {
                                                    "current": "479126",
                                                    "prev": "0",
                                                    "typeTag": 1
                                                }
                                            },
                                            {
                                                "name": "sireId",
                                                "type": "uint32",
                                                "value": {
                                                    "current": "592291",
                                                    "prev": "0",
                                                    "typeTag": 1
                                                }
                                            },
                                            {
                                                "name": "siringWithId",
                                                "type": "uint32",
                                                "value": {
                                                    "current": "0",
                                                    "prev": "0",
                                                    "typeTag": 1
                                                }
                                            },
                                            {
                                                "name": "cooldownIndex",
                                                "type": "uint16",
                                                "value": {
                                                    "current": "1",
                                                    "prev": "0",
                                                    "typeTag": 1
                                                }
                                            },
                                            {
                                                "name": "generation",
                                                "type": "uint16",
                                                "value": {
                                                    "current": "3",
                                                    "prev": "0",
                                                    "typeTag": 1
                                                }
                                            }
                                        ],
                                        "typeTag": 3
                                    }
                                }
                            ],
                            "typeTag": 2
                        }
                    },
                    {
                        "name": "ownershipTokenCount",
                        "type": "mapping(address => uint256)",
                        "value": {
                            "pairs": [
                                {
                                    "key": "0x16205a6048b6af17f1ac1a009bbf2ed9289e6921",
                                    "value": {
                                        "current": "734",
                                        "prev": "733",
                                        "typeTag": 1
                                    }
                                }
                            ],
                            "typeTag": 4
                        }
                    }
                ]
            },
            {
                "address": "0xb1a8c1371ee2c4bcc27916cd9faadbfa594c9b57",
                "erc": "",
                "slots": [
                    {
                        "current": "0x0000000000000000000000000000000000000000000000000000000000000000",
                        "key": "0x0000000000000000000000000000000000000000000000000000000000000bee",
                        "prev": "0x0000000000000000000000000000000000000000000000000000000000000001"
                    },
                    {
                        "current": "0x0000000000000000000000000000000000000000000000000000000000000bee",
                        "key": "0x0000000000000000000000000000000000000000000000000000000000000000",
                        "prev": "0x0000000000000000000000000000000000000000000000000000000000000bf9"
                    },
                    {
                        "current": "0x0000000000000000000000000000000000000000000000000000000000000000",
                        "key": "0x0000000000000000000000000000000000000000000000000000000000000bf4",
                        "prev": "0x0000000000000000000000000000000000000000000000000000000000000001"
                    },
                    {
                        "current": "0x0000000000000000000000000000000000000000000000000000000000000000",
                        "key": "0x0000000000000000000000000000000000000000000000000000000000000bf2",
                        "prev": "0x0000000000000000000000000000000000000000000000000000000000000001"
                    },
                    {
                        "current": "0x0000000000000000000000000000000000000000000000000000000000000000",
                        "key": "0x0000000000000000000000000000000000000000000000000000000000000bf8",
                        "prev": "0x0000000000000000000000000000000000000000000000000000000000000001"
                    },
                    {
                        "current": "0x0000000000000000000000000000000000000000000000000000000000000000",
                        "key": "0x0000000000000000000000000000000000000000000000000000000000000bf7",
                        "prev": "0x0000000000000000000000000000000000000000000000000000000000000001"
                    },
                    {
                        "current": "0x0000000000000000000000000000000000000000000000000000000000000000",
                        "key": "0x0000000000000000000000000000000000000000000000000000000000000bf3",
                        "prev": "0x0000000000000000000000000000000000000000000000000000000000000001"
                    },
                    {
                        "current": "0x0000000000000000000000000000000000000000000000000000000000000000",
                        "key": "0x0000000000000000000000000000000000000000000000000000000000000bf0",
                        "prev": "0x0000000000000000000000000000000000000000000000000000000000000001"
                    },
                    {
                        "current": "0x0000000000000000000000000000000000000000000000000000000000000000",
                        "key": "0x0000000000000000000000000000000000000000000000000000000000000bf5",
                        "prev": "0x0000000000000000000000000000000000000000000000000000000000000001"
                    },
                    {
                        "current": "0x0000000000000000000000000000000000000000000000000000000000000000",
                        "key": "0x0000000000000000000000000000000000000000000000000000000000000bef",
                        "prev": "0x0000000000000000000000000000000000000000000000000000000000000001"
                    },
                    {
                        "current": "0x0000000000000000000000000000000000000000000000000000000000000000",
                        "key": "0x0000000000000000000000000000000000000000000000000000000000000bf6",
                        "prev": "0x0000000000000000000000000000000000000000000000000000000000000001"
                    },
                    {
                        "current": "0x0000000000000000000000000000000000000000000000000000000000000000",
                        "key": "0x0000000000000000000000000000000000000000000000000000000000000bf1",
                        "prev": "0x0000000000000000000000000000000000000000000000000000000000000001"
                    }
                ],
                "storageVariables": []
            }
        ]
    }
}