{
    "balance_change": {
        "balanceChanges": [
            {
                "account": "0xb0ae226b8cf8fd6c3830ce6783c36544c50513ea",
                "assets": [
                    {
                        "address": "0xe99a894a69d7c2e3c92e61b64c505a6a57d2bc07",
                        "amount": "256.2276",
                        "iconUrl": "",
                        "isERC1155": false,
                        "isERC721": false,
                        "sign": false,
                        "value": ""
                    }
                ]
            },
            {
                "account": "0x2098a4621e3835d7d415206edac3270cb92f66fd",
                "assets": [
                    {
                        "address": "0xe99a894a69d7c2e3c92e61b64c505a6a57d2bc07",
                        "amount": "256.2276",
                        "iconUrl": "",
                        "isERC1155": false,
                        "isERC721": false,
                        "sign": true,
                        "value": ""
                    }
                ]
            }
        ]
    },
    "profile": {
        "basic_info": {
            "baseFee": "",
            "blockNumber": 10680720,
            "callData": "0xa9059cbb0000000000000000000000002098a4621e3835d7d415206edac3270cb92f66fd00000000000000000000000000000000000000000000000de3df4ca5e2e10000",
            "debugEnable": true,
            "errorInfo": "",
            "eventCount": 1,
            "feeRecipient": "0xc4aeb20798368c48b27280847e187bb332b9bc77",
            "formatValue": "0",
            "gasLimit": 64000,
            "gasPrice": "92",
            "gasUsed": 37141,
            "intTxnCount": 0,
            "internalRevert": false,
            "internalRevertMessage": "",
            "isContractCreation": false,
            "isFlashloan": false,
            "maxFee": "",
            "nonce": 35402,
            "overwritedBlockNumber": -1,
            "priorityFee": "",
            "receiver": "0xe99a894a69d7c2e3c92e61b64c505a6a57d2bc07",
            "revertMessage": "",
            "sender": "0xb0ae226b8cf8fd6c3830ce6783c36544c50513ea",
            "simulationEnable": true,
            "sourceTxnHash": "0xb88266742851d3c776098a99851a95343dd9ee9beee47380a5bb8dfea233b09f",
            "status": true,
            "timestamp": "2020-08-18T00:18:53Z",
            "transactionFee": "0.003416972",
            "txnHash": "0xb88266742851d3c776098a99851a95343dd9ee9beee47380a5bb8dfea233b09f",
            "txnIndex": 79,
            "type": 0,
            "value": "0"
        },
        "fund_flow": [
            {
                "amount": "256.2276",
                "from": "0xb0ae226b8cf8fd6c3830ce6783c36544c50513ea",
                "id": 1,
                "isERC1155": false,
                "isERC721": false,
                "isReverted": false,
                "order": 1,
                "to": "0x2098a4621e3835d7d415206edac3270cb92f66fd",
                "token": "0xe99a894a69d7c2e3c92e61b64c505a6a57d2bc07"
            }
        ],
        "token_infos": [
            {
                "address": "0xc02aaa39b223fe8d0a0e5c4f27ead9083c756cc2",
                "decimals": 18
            },
            {
                "address": "0xe99a894a69d7c2e3c92e61b64c505a6a57d2bc07",
                "decimals": 18
            },
            {
                "address": "0xeeeeeeeeeeeeeeeeeeeeeeeeeeeeeeeeeeeeeeee",
                "decimals": 18
            }
        ]
    },
    "address_label": {
        "labels": [
            {
                "address": "0xeeeeeeeeeeeeeeeeeeeeeeeeeeeeeeeeeeeeeeee",
                "label": "Ether"
            },
            {
                "address": "0xe99a894a69d7c2e3c92e61b64c505a6a57d2bc07",
                "label": "Hyperion: HYN Token"
            },
            {
                "address": "0x0000000000000000000000000000000000000001",
                "label": "Precompiled"
            },
            {
                "address": "0x0000000000000000000000000000000000000002",
                "label": "Precompiled"
            },
            {
                "address": "0x0000000000000000000000000000000000000003",
                "label": "Precompiled"
            },
            {
                "address": "0x0000000000000000000000000000000000000004",
                "label": "Precompiled"
            }
        ]
    },
    "trace": {
        "accountLabels": null,
        "dataMap": {
            "-1": {
                "invocation": {
                    "address": "0xb0ae226b8cf8fd6c3830ce6783c36544c50513ea",
                    "callData": "",
                    "decodedMethod": null,
                    "errorInfo": "",
                    "fromAddress": "",
                    "gasUsed": 0,
                    "id": -1,
                    "methodDecoded": false,
                    "operation": "",
                    "output": "",
                    "revert": false,
                    "revertMessage": "",
                    "selector": "",
                    "status": false,
                    "value": ""
                },
                "nodeType": 0
            },
            "0": {
                "invocation": {
                    "address": "0xe99a894a69d7c2e3c92e61b64c505a6a57d2bc07",
                    "callData": "0x0000000000000000000000002098a4621e3835d7d415206edac3270cb92f66fd00000000000000000000000000000000000000000000000de3df4ca5e2e10000",
                    "decodedMethod": {
                        "callParams": [
                            {
                                "name": "_to",
                                "type": "address",
                                "value": "0x2098a4621e3835d7d415206edac3270cb92f66fd"
                            },
                            {
                                "decimalAvailable": true,
                                "name": "_value",
                                "type": "uint256",
                                "value": "256,227,600,000,000,000,000"
                            }
                        ],
                        "constructorArguments": "",
                        "name": "transfer",
                        "returnParams": [
                            {
                                "name": "",
                                "type": "bool",
                                "value": true
                            }
                        ],
                        "signature": "transfer(address,uint256)"
                    },
                    "errorInfo": "",
                    "fromAddress": "0xb0ae226b8cf8fd6c3830ce6783c36544c50513ea",
                    "gasUsed": 37141,
                    "id": 0,
                    "methodDecoded": true,
                    "operation": "CALL",
                    "output": "0x0000000000000000000000000000000000000000000000000000000000000001",
                    "revert": false,
                    "revertMessage": "",
                    "selector": "0xa9059cbb",
                    "status": true,
                    "value": "0"
                },
                "nodeType": 0
            },
            "1": {
                "event": {
                    "contract": "0xe99a894a69d7c2e3c92e61b64c505a6a57d2bc07",
                    "decodedLog": {
                        "name": "Transfer",
                        "params": [
                            {
                                "name": "from",
                                "type": "address",
                                "value": "0xb0ae226b8cf8fd6c3830ce6783c36544c50513ea"
                            },
                            {
                                "name": "to",
                                "type": "address",
                                "value": "0x2098a4621e3835d7d415206edac3270cb92f66fd"
                            },
                            {
                                "decimalAvailable": true,
                                "name": "value",
                                "type": "uint256",
                                "value": "256,227,600,000,000,000,000"
                            }
                        ],
                        "signature": "Transfer(address,address,uint256)"
                    },
                    "id": 1,
                    "logData": "0x00000000000000000000000000000000000000000000000de3df4ca5e2e10000",
                    "logDecoded": true,
                    "operation": "EVENT",
                    "revert": false,
                    "status": true,
                    "topics": [
                        "0xddf252ad1be2c89b69c2b068fc378daa952ba7f163c4a11628f55a4df523b3ef",
                        "0x000000000000000000000000b0ae226b8cf8fd6c3830ce6783c36544c50513ea",
                        "0x0000000000000000000000002098a4621e3835d7d415206edac3270cb92f66fd"
                    ]
                },
                "nodeType": 1
            }
        },
        "gasFlame": [
            {
                "children": [
                    {
                        "children": [
                            {
                                "children": [],
                                "depth": 0,
                                "name": "Initial Gas",
                                "value": 21644
                            },
                            {
                                "children": [],
                                "depth": 0,
                                "name": "Executed Gas",
                                "value": 15497
                            }
                        ],
                        "depth": -1,
                        "name": "Actual Gas Used",
                        "value": 37141
                    },
                    {
                        "children": [],
                        "depth": -1,
                        "name": "Refunded Gas",
                        "value": 0
                    }
                ],
                "depth": -2,
                "name": "Total Gas",
                "value": 37141
            }
        ],
        "isConfirmed": true,
        "mainTrace": [
            {
                "children": [
                    {
                        "children": [
                            {
                                "children": [],
                                "depth": 1,
                                "id": 1,
                                "order": 1
                            }
                        ],
                        "depth": 0,
                        "id": 0,
                        "order": 0
                    }
                ],
                "depth": -1,
                "id": -1,
                "order": -1
            }
        ],
        "mainTraceNodeCount": 2,
        "parentIdMap": {
            "0": -1,
            "1": 0
        },
        "tidyTrace": [
            {
                "children": [
                    {
                        "children": [
                            {
                                "children": [],
                                "depth": 1,
                                "id": 1,
                                "order": 1
                            }
                        ],
                        "depth": 0,
                        "id": 0,
                        "order": 0
                    }
                ],
                "depth": -1,
                "id": -1,
                "order": -1
            }
        ],
        "tidyTraceNodeCount": 2
    },
    "state_change": {
        "stateChanges": [
            {
                "address": "0xe99a894a69d7c2e3c92e61b64c505a6a57d2bc07",
                "erc": "ERC-20",
                "slots": [
                    {
                        "current": "0x000000000000000000000000000000000000000000003470d92ad56dd6388890",
                        "key": "0xbf3c2a4e255f1f1e106882783770e2d16b2a2fe017c3ec3ae1db1cc6b786c8b7",
                        "prev": "0x00000000000000000000000000000000000000000000347ebd0a2213b9198890"
                    },
                    {
                        "current": "0x0000000000000000000000000000000000000000000012e903d676e96d272240",
                        "key": "0x28edd0dee957803cbc5f07388160456a0ab4252ab8503ec273bd7c1aef65f493",
                        "prev": "0x0000000000000000000000000000000000000000000012db1ff72a438a462240"
                    }
                ],
                "storageVariables": [
                    {
                        "name": "balances",
                        "type": "mapping(address => uint256)",
                        "value": {
                            "pairs": [
                                {
                                    "key": "0x2098a4621e3835d7d415206edac3270cb92f66fd",
                                    "value": {
                                        "current": "89300964599999999976000",
                                        "prev": "89044736999999999976000",
                                        "typeTag": 1
                                    }
                                },
                                {
                                    "key": "0xb0ae226b8cf8fd6c3830ce6783c36544c50513ea",
                                    "value": {
                                        "current": "247644740999999995283600",
                                        "prev": "247900968599999995283600",
                                        "typeTag": 1
                                    }
                                }
                            ],
                            "typeTag": 4
                        }
                    }
                ]
            }
        ]
    }
}