{
    "balance_change": {
        "balanceChanges": []
    },
    "profile": {
        "basic_info": {
            "baseFee": "88.500186444",
            "blockNumber": 14934742,
            "callData": "0xa22cb4650000000000000000000000004fee7b061c97c9c496b01dbce9cdb10c02f0a0be0000000000000000000000000000000000000000000000000000000000000001",
            "debugEnable": true,
            "errorInfo": "",
            "eventCount": 1,
            "feeRecipient": "0x2a20380dca5bc24d052acfbf79ba23e988ad0050",
            "formatValue": "0",
            "gasLimit": 51422,
            "gasPrice": "89.500186444",
            "gasUsed": 46747,
            "intTxnCount": 0,
            "internalRevert": false,
            "internalRevertMessage": "",
            "isContractCreation": false,
            "isFlashloan": false,
            "maxFee": "90.762593953",
            "nonce": 1028,
            "overwritedBlockNumber": -1,
            "priorityFee": "1",
            "receiver": "0x236672ed575e1e479b8e101aeeb920f32361f6f9",
            "revertMessage": "",
            "sender": "0xb0390f8e5fdcb801276c965ee740b936eec80e10",
            "simulationEnable": true,
            "sourceTxnHash": "0xb8793c085ef46869b651a7821fa0d50150758323aa9a3240788a393788261b60",
            "status": true,
            "timestamp": "2022-06-09T21:24:33Z",
            "transactionFee": "0.004183865215697668",
            "txnHash": "0xb8793c085ef46869b651a7821fa0d50150758323aa9a3240788a393788261b60",
            "txnIndex": 24,
            "type": 2,
            "value": "0"
        },
        "fund_flow": [],
        "token_infos": [
            {
                "address": "0xc02aaa39b223fe8d0a0e5c4f27ead9083c756cc2",
                "decimals": 18
            },
            {
                "address": "0xeeeeeeeeeeeeeeeeeeeeeeeeeeeeeeeeeeeeeeee",
                "decimals": 18
            }
        ]
    },
    "address_label": {
        "labels": [
            {
                "address": "0x0000000000000000000000000000000000000004",
                "label": "Precompiled"
            },
            {
                "address": "0xeeeeeeeeeeeeeeeeeeeeeeeeeeeeeeeeeeeeeeee",
                "label": "Ether"
            },
            {
                "address": "0x236672ed575e1e479b8e101aeeb920f32361f6f9",
                "label": "Frontier (FRONTIER)"
            },
            {
                "address": "0x4fee7b061c97c9c496b01dbce9cdb10c02f0a0be",
                "label": "Rarible:Transfer Proxy"
            },
            {
                "address": "0x0000000000000000000000000000000000000001",
                "label": "Precompiled"
            },
            {
                "address": "0x0000000000000000000000000000000000000002",
                "label": "Precompiled"
            },
            {
                "address": "0x0000000000000000000000000000000000000003",
                "label": "Precompiled"
            }
        ]
    },
    "trace": {
        "accountLabels": null,
        "dataMap": {
            "-1": {
                "invocation": {
                    "address": "0xb0390f8e5fdcb801276c965ee740b936eec80e10",
                    "callData": "",
                    "decodedMethod": null,
                    "errorInfo": "",
                    "fromAddress": "",
                    "gasUsed": 0,
                    "id": -1,
                    "methodDecoded": false,
                    "operation": "",
                    "output": "",
                    "revert": false,
                    "revertMessage": "",
                    "selector": "",
                    "status": false,
                    "value": ""
                },
                "nodeType": 0
            },
            "0": {
                "invocation": {
                    "address": "0x236672ed575e1e479b8e101aeeb920f32361f6f9",
                    "callData": "0x0000000000000000000000004fee7b061c97c9c496b01dbce9cdb10c02f0a0be0000000000000000000000000000000000000000000000000000000000000001",
                    "decodedMethod": {
                        "callParams": [
                            {
                                "name": "operator",
                                "type": "address",
                                "value": "0x4fee7b061c97c9c496b01dbce9cdb10c02f0a0be"
                            },
                            {
                                "name": "approved",
                                "type": "bool",
                                "value": true
                            }
                        ],
                        "constructorArguments": "",
                        "name": "setApprovalForAll",
                        "returnParams": [],
                        "signature": "setApprovalForAll(address,bool)"
                    },
                    "errorInfo": "",
                    "fromAddress": "0xb0390f8e5fdcb801276c965ee740b936eec80e10",
                    "gasUsed": 46747,
                    "id": 0,
                    "methodDecoded": true,
                    "operation": "CALL",
                    "output": "",
                    "revert": false,
                    "revertMessage": "",
                    "selector": "0xa22cb465",
                    "status": true,
                    "value": "0"
                },
                "nodeType": 0
            },
            "1": {
                "event": {
                    "contract": "0x236672ed575e1e479b8e101aeeb920f32361f6f9",
                    "decodedLog": {
                        "name": "ApprovalForAll",
                        "params": [
                            {
                                "name": "account",
                                "type": "address",
                                "value": "0xb0390f8e5fdcb801276c965ee740b936eec80e10"
                            },
                            {
                                "name": "operator",
                                "type": "address",
                                "value": "0x4fee7b061c97c9c496b01dbce9cdb10c02f0a0be"
                            },
                            {
                                "name": "approved",
                                "type": "bool",
                                "value": true
                            }
                        ],
                        "signature": "ApprovalForAll(address,address,bool)"
                    },
                    "id": 1,
                    "logData": "0x0000000000000000000000000000000000000000000000000000000000000001",
                    "logDecoded": true,
                    "operation": "EVENT",
                    "revert": false,
                    "status": true,
                    "topics": [
                        "0x17307eab39ab6107e8899845ad3d59bd9653f200f220920489ca2b5937696c31",
                        "0x000000000000000000000000b0390f8e5fdcb801276c965ee740b936eec80e10",
                        "0x0000000000000000000000004fee7b061c97c9c496b01dbce9cdb10c02f0a0be"
                    ]
                },
                "nodeType": 1
            }
        },
        "gasFlame": [
            {
                "children": [
                    {
                        "children": [
                            {
                                "children": [],
                                "depth": 0,
                                "name": "Initial Gas",
                                "value": 21572
                            },
                            {
                                "children": [],
                                "depth": 0,
                                "name": "Executed Gas",
                                "value": 25175
                            }
                        ],
                        "depth": -1,
                        "name": "Actual Gas Used",
                        "value": 46747
                    },
                    {
                        "children": [],
                        "depth": -1,
                        "name": "Refunded Gas",
                        "value": 0
                    }
                ],
                "depth": -2,
                "name": "Total Gas",
                "value": 46747
            }
        ],
        "isConfirmed": true,
        "mainTrace": [
            {
                "children": [
                    {
                        "children": [
                            {
                                "children": [],
                                "depth": 1,
                                "id": 1,
                                "order": 1
                            }
                        ],
                        "depth": 0,
                        "id": 0,
                        "order": 0
                    }
                ],
                "depth": -1,
                "id": -1,
                "order": -1
            }
        ],
        "mainTraceNodeCount": 2,
        "parentIdMap": {
            "0": -1,
            "1": 0
        },
        "tidyTrace": [
            {
                "children": [
                    {
                        "children": [
                            {
                                "children": [],
                                "depth": 1,
                                "id": 1,
                                "order": 1
                            }
                        ],
                        "depth": 0,
                        "id": 0,
                        "order": 0
                    }
                ],
                "depth": -1,
                "id": -1,
                "order": -1
            }
        ],
        "tidyTraceNodeCount": 2
    },
    "state_change": {
        "stateChanges": [
            {
                "address": "0x236672ed575e1e479b8e101aeeb920f32361f6f9",
                "erc": "ERC-1155",
                "slots": [
                    {
                        "current": "0x0000000000000000000000000000000000000000000000000000000000000001",
                        "key": "0x430a98c40d5b15d543cf4b60890939335abca64c484c717997558acdfa1b7858",
                        "prev": "0x0000000000000000000000000000000000000000000000000000000000000000"
                    }
                ],
                "storageVariables": [
                    {
                        "name": "_operatorApprovals",
                        "type": "mapping(address => mapping(address => bool))",
                        "value": {
                            "pairs": [
                                {
                                    "key": "0xb0390f8e5fdcb801276c965ee740b936eec80e10",
                                    "value": {
                                        "pairs": [
                                            {
                                                "key": "0x4fee7b061c97c9c496b01dbce9cdb10c02f0a0be",
                                                "value": {
                                                    "current": "true",
                                                    "prev": "false",
                                                    "typeTag": 1
                                                }
                                            }
                                        ],
                                        "typeTag": 4
                                    }
                                }
                            ],
                            "typeTag": 4
                        }
                    }
                ]
            }
        ]
    }
}