{
    "balance_change": {
        "balanceChanges": [
            {
                "account": "0xddf4c45bb2525a47fcca3eb19e478ae132171e3d",
                "assets": [
                    {
                        "address": "0x23352036e911a22cfc692b5e2e196692658aded9",
                        "amount": "2,186.37125",
                        "iconUrl": "https://assets.blocksec.com/icon/38788c153622da01900edc2e9f9504d7566eacb8b0045ce1072b8de7185154ed.png",
                        "isERC1155": false,
                        "isERC721": false,
                        "sign": false,
                        "value": ""
                    }
                ]
            },
            {
                "account": "0x6e99d8a2b6315850875cf3852a06f80ef311c06e",
                "assets": [
                    {
                        "address": "0x23352036e911a22cfc692b5e2e196692658aded9",
                        "amount": "2,186.37125",
                        "iconUrl": "https://assets.blocksec.com/icon/38788c153622da01900edc2e9f9504d7566eacb8b0045ce1072b8de7185154ed.png",
                        "isERC1155": false,
                        "isERC721": false,
                        "sign": true,
                        "value": ""
                    }
                ]
            }
        ]
    },
    "profile": {
        "basic_info": {
            "baseFee": "",
            "blockNumber": 5544813,
            "callData": "0xa9059cbb0000000000000000000000006e99d8a2b6315850875cf3852a06f80ef311c06e00000000000000000000000000000000000000000000007685ff0bfbd0c52000",
            "debugEnable": true,
            "errorInfo": "",
            "eventCount": 1,
            "feeRecipient": "0x5a0b54d5dc17e0aadc383d2db43b0a0d3e029c4c",
            "formatValue": "0",
            "gasLimit": 80000,
            "gasPrice": "4",
            "gasUsed": 40281,
            "intTxnCount": 0,
            "internalRevert": false,
            "internalRevertMessage": "",
            "isContractCreation": false,
            "isFlashloan": false,
            "maxFee": "",
            "nonce": 3774,
            "overwritedBlockNumber": -1,
            "priorityFee": "",
            "receiver": "0x23352036e911a22cfc692b5e2e196692658aded9",
            "revertMessage": "",
            "sender": "0xddf4c45bb2525a47fcca3eb19e478ae132171e3d",
            "simulationEnable": true,
            "sourceTxnHash": "0xb84e292b868b18c555112eeaa0b2bd2552470b6482799375e873a0200f5f735d",
            "status": true,
            "timestamp": "2018-05-02T18:12:11Z",
            "transactionFee": "0.000161124",
            "txnHash": "0xb84e292b868b18c555112eeaa0b2bd2552470b6482799375e873a0200f5f735d",
            "txnIndex": 46,
            "type": 0,
            "value": "0"
        },
        "fund_flow": [
            {
                "amount": "2,186.37125",
                "from": "0xddf4c45bb2525a47fcca3eb19e478ae132171e3d",
                "id": 1,
                "isERC1155": false,
                "isERC721": false,
                "isReverted": false,
                "order": 1,
                "to": "0x6e99d8a2b6315850875cf3852a06f80ef311c06e",
                "token": "0x23352036e911a22cfc692b5e2e196692658aded9"
            }
        ],
        "token_infos": [
            {
                "address": "0x23352036e911a22cfc692b5e2e196692658aded9",
                "decimals": 18
            },
            {
                "address": "0xc02aaa39b223fe8d0a0e5c4f27ead9083c756cc2",
                "decimals": 18
            },
            {
                "address": "0xeeeeeeeeeeeeeeeeeeeeeeeeeeeeeeeeeeeeeeee",
                "decimals": 18
            }
        ]
    },
    "address_label": {
        "labels": [
            {
                "address": "0x0000000000000000000000000000000000000001",
                "label": "Precompiled"
            },
            {
                "address": "0x0000000000000000000000000000000000000002",
                "label": "Precompiled"
            },
            {
                "address": "0x0000000000000000000000000000000000000003",
                "label": "Precompiled"
            },
            {
                "address": "0x0000000000000000000000000000000000000004",
                "label": "Precompiled"
            },
            {
                "address": "0xeeeeeeeeeeeeeeeeeeeeeeeeeeeeeeeeeeeeeeee",
                "label": "Ether"
            },
            {
                "address": "0x23352036e911a22cfc692b5e2e196692658aded9",
                "label": "Friendz Coin"
            }
        ]
    },
    "trace": {
        "accountLabels": null,
        "dataMap": {
            "-1": {
                "invocation": {
                    "address": "0xddf4c45bb2525a47fcca3eb19e478ae132171e3d",
                    "callData": "",
                    "decodedMethod": null,
                    "errorInfo": "",
                    "fromAddress": "",
                    "gasUsed": 0,
                    "id": -1,
                    "methodDecoded": false,
                    "operation": "",
                    "output": "",
                    "revert": false,
                    "revertMessage": "",
                    "selector": "",
                    "status": false,
                    "value": ""
                },
                "nodeType": 0
            },
            "0": {
                "invocation": {
                    "address": "0x23352036e911a22cfc692b5e2e196692658aded9",
                    "callData": "0x0000000000000000000000006e99d8a2b6315850875cf3852a06f80ef311c06e00000000000000000000000000000000000000000000007685ff0bfbd0c52000",
                    "decodedMethod": {
                        "callParams": [
                            {
                                "name": "_to",
                                "type": "address",
                                "value": "0x6e99d8a2b6315850875cf3852a06f80ef311c06e"
                            },
                            {
                                "decimalAvailable": true,
                                "name": "_value",
                                "type": "uint256",
                                "value": "2,186,371,250,000,000,000,000"
                            }
                        ],
                        "constructorArguments": "",
                        "name": "transfer",
                        "returnParams": [
                            {
                                "name": "success",
                                "type": "bool",
                                "value": true
                            }
                        ],
                        "signature": "transfer(address,uint256)"
                    },
                    "errorInfo": "",
                    "fromAddress": "0xddf4c45bb2525a47fcca3eb19e478ae132171e3d",
                    "gasUsed": 40281,
                    "id": 0,
                    "methodDecoded": true,
                    "operation": "CALL",
                    "output": "0x0000000000000000000000000000000000000000000000000000000000000001",
                    "revert": false,
                    "revertMessage": "",
                    "selector": "0xa9059cbb",
                    "status": true,
                    "value": "0"
                },
                "nodeType": 0
            },
            "1": {
                "event": {
                    "contract": "0x23352036e911a22cfc692b5e2e196692658aded9",
                    "decodedLog": {
                        "name": "Transfer",
                        "params": [
                            {
                                "name": "from",
                                "type": "address",
                                "value": "0xddf4c45bb2525a47fcca3eb19e478ae132171e3d"
                            },
                            {
                                "name": "to",
                                "type": "address",
                                "value": "0x6e99d8a2b6315850875cf3852a06f80ef311c06e"
                            },
                            {
                                "decimalAvailable": true,
                                "name": "value",
                                "type": "uint256",
                                "value": "2,186,371,250,000,000,000,000"
                            }
                        ],
                        "signature": "Transfer(address,address,uint256)"
                    },
                    "id": 1,
                    "logData": "0x00000000000000000000000000000000000000000000007685ff0bfbd0c52000",
                    "logDecoded": true,
                    "operation": "EVENT",
                    "revert": false,
                    "status": true,
                    "topics": [
                        "0xddf252ad1be2c89b69c2b068fc378daa952ba7f163c4a11628f55a4df523b3ef",
                        "0x000000000000000000000000ddf4c45bb2525a47fcca3eb19e478ae132171e3d",
                        "0x0000000000000000000000006e99d8a2b6315850875cf3852a06f80ef311c06e"
                    ]
                },
                "nodeType": 1
            }
        },
        "gasFlame": [
            {
                "children": [
                    {
                        "children": [
                            {
                                "children": [],
                                "depth": 0,
                                "name": "Initial Gas",
                                "value": 23320
                            },
                            {
                                "children": [],
                                "depth": 0,
                                "name": "Executed Gas",
                                "value": 16961
                            }
                        ],
                        "depth": -1,
                        "name": "Actual Gas Used",
                        "value": 40281
                    },
                    {
                        "children": [],
                        "depth": -1,
                        "name": "Refunded Gas",
                        "value": 0
                    }
                ],
                "depth": -2,
                "name": "Total Gas",
                "value": 40281
            }
        ],
        "isConfirmed": true,
        "mainTrace": [
            {
                "children": [
                    {
                        "children": [
                            {
                                "children": [],
                                "depth": 1,
                                "id": 1,
                                "order": 1
                            }
                        ],
                        "depth": 0,
                        "id": 0,
                        "order": 0
                    }
                ],
                "depth": -1,
                "id": -1,
                "order": -1
            }
        ],
        "mainTraceNodeCount": 2,
        "parentIdMap": {
            "0": -1,
            "1": 0
        },
        "tidyTrace": [
            {
                "children": [
                    {
                        "children": [
                            {
                                "children": [],
                                "depth": 1,
                                "id": 1,
                                "order": 1
                            }
                        ],
                        "depth": 0,
                        "id": 0,
                        "order": 0
                    }
                ],
                "depth": -1,
                "id": -1,
                "order": -1
            }
        ],
        "tidyTraceNodeCount": 2
    },
    "state_change": {
        "stateChanges": [
            {
                "address": "0x23352036e911a22cfc692b5e2e196692658aded9",
                "erc": "ERC-20",
                "slots": [
                    {
                        "current": "0x0000000000000000000000000000000000000000000f4c5eb8f2cbe1896bade0",
                        "key": "0xb95d58931f1c2a29871f49a5efea4ec6b11c3d83aa62d010c05eab27c6815ce6",
                        "prev": "0x0000000000000000000000000000000000000000000f4cd53ef1d7dd5a30cde0"
                    },
                    {
                        "current": "0x0000000000000000000000000000000000000000000001f2a3a81758624b2000",
                        "key": "0xf53cf5cbeaf6c1327db678f124088a3deb1738055205fbf993cfb33c14f71cba",
                        "prev": "0x00000000000000000000000000000000000000000000017c1da90b5c91860000"
                    }
                ],
                "storageVariables": [
                    {
                        "name": "balances",
                        "type": "mapping(address => uint256)",
                        "value": {
                            "pairs": [
                                {
                                    "key": "0x6e99d8a2b6315850875cf3852a06f80ef311c06e",
                                    "value": {
                                        "current": "9198271250000000000000",
                                        "prev": "7011900000000000000000",
                                        "typeTag": 1
                                    }
                                },
                                {
                                    "key": "0xddf4c45bb2525a47fcca3eb19e478ae132171e3d",
                                    "value": {
                                        "current": "18494534467798876231020000",
                                        "prev": "18496720839048876231020000",
                                        "typeTag": 1
                                    }
                                }
                            ],
                            "typeTag": 4
                        }
                    }
                ]
            }
        ]
    }
}