{
    "balance_change": {
        "balanceChanges": [
            {
                "account": "0xa5d72816d75625ca3b408303998ae24756dbf5ac",
                "assets": [
                    {
                        "address": "0x04cd48c02807a5b2443c6e50e274479642c41232",
                        "amount": "499.5",
                        "iconUrl": "",
                        "isERC1155": false,
                        "isERC721": false,
                        "sign": false,
                        "value": ""
                    }
                ]
            },
            {
                "account": "0x7438615040e9dc245b1ea80ad8df2cf75a4fac60",
                "assets": [
                    {
                        "address": "0x04cd48c02807a5b2443c6e50e274479642c41232",
                        "amount": "499.5",
                        "iconUrl": "",
                        "isERC1155": false,
                        "isERC721": false,
                        "sign": true,
                        "value": ""
                    }
                ]
            }
        ]
    },
    "profile": {
        "basic_info": {
            "baseFee": "",
            "blockNumber": 7805200,
            "callData": "0xa9059cbb0000000000000000000000007438615040e9dc245b1ea80ad8df2cf75a4fac6000000000000000000000000000000000000000000000001b13f47b891b9e0000",
            "debugEnable": true,
            "errorInfo": "",
            "eventCount": 1,
            "feeRecipient": "0x5a0b54d5dc17e0aadc383d2db43b0a0d3e029c4c",
            "formatValue": "0",
            "gasLimit": 90000,
            "gasPrice": "1.319876253",
            "gasUsed": 51525,
            "intTxnCount": 0,
            "internalRevert": false,
            "internalRevertMessage": "",
            "isContractCreation": false,
            "isFlashloan": false,
            "maxFee": "",
            "nonce": 1118,
            "overwritedBlockNumber": -1,
            "priorityFee": "",
            "receiver": "0x04cd48c02807a5b2443c6e50e274479642c41232",
            "revertMessage": "",
            "sender": "0xa5d72816d75625ca3b408303998ae24756dbf5ac",
            "simulationEnable": true,
            "sourceTxnHash": "0xb8a059a785e51ff97cef94da6e6921eb0ae44bf69be782eff46183597e3c4342",
            "status": true,
            "timestamp": "2019-05-21T19:58:45Z",
            "transactionFee": "0.000068006623935825",
            "txnHash": "0xb8a059a785e51ff97cef94da6e6921eb0ae44bf69be782eff46183597e3c4342",
            "txnIndex": 123,
            "type": 0,
            "value": "0"
        },
        "fund_flow": [
            {
                "amount": "499.5",
                "from": "0xa5d72816d75625ca3b408303998ae24756dbf5ac",
                "id": 1,
                "isERC1155": false,
                "isERC721": false,
                "isReverted": false,
                "order": 1,
                "to": "0x7438615040e9dc245b1ea80ad8df2cf75a4fac60",
                "token": "0x04cd48c02807a5b2443c6e50e274479642c41232"
            }
        ],
        "token_infos": [
            {
                "address": "0xeeeeeeeeeeeeeeeeeeeeeeeeeeeeeeeeeeeeeeee",
                "decimals": 18
            },
            {
                "address": "0x04cd48c02807a5b2443c6e50e274479642c41232",
                "decimals": 18
            },
            {
                "address": "0xc02aaa39b223fe8d0a0e5c4f27ead9083c756cc2",
                "decimals": 18
            }
        ]
    },
    "address_label": {
        "labels": [
            {
                "address": "0xeeeeeeeeeeeeeeeeeeeeeeeeeeeeeeeeeeeeeeee",
                "label": "Ether"
            },
            {
                "address": "0x04cd48c02807a5b2443c6e50e274479642c41232",
                "label": "HEZ (HEZ)"
            },
            {
                "address": "0x0000000000000000000000000000000000000001",
                "label": "Precompiled"
            },
            {
                "address": "0x0000000000000000000000000000000000000002",
                "label": "Precompiled"
            },
            {
                "address": "0x0000000000000000000000000000000000000003",
                "label": "Precompiled"
            },
            {
                "address": "0x0000000000000000000000000000000000000004",
                "label": "Precompiled"
            }
        ]
    },
    "trace": {
        "accountLabels": null,
        "dataMap": {
            "-1": {
                "invocation": {
                    "address": "0xa5d72816d75625ca3b408303998ae24756dbf5ac",
                    "callData": "",
                    "decodedMethod": null,
                    "errorInfo": "",
                    "fromAddress": "",
                    "gasUsed": 0,
                    "id": -1,
                    "methodDecoded": false,
                    "operation": "",
                    "output": "",
                    "revert": false,
                    "revertMessage": "",
                    "selector": "",
                    "status": false,
                    "value": ""
                },
                "nodeType": 0
            },
            "0": {
                "invocation": {
                    "address": "0x04cd48c02807a5b2443c6e50e274479642c41232",
                    "callData": "0x0000000000000000000000007438615040e9dc245b1ea80ad8df2cf75a4fac6000000000000000000000000000000000000000000000001b13f47b891b9e0000",
                    "decodedMethod": {
                        "callParams": [
                            {
                                "name": "_to",
                                "type": "address",
                                "value": "0x7438615040e9dc245b1ea80ad8df2cf75a4fac60"
                            },
                            {
                                "decimalAvailable": true,
                                "name": "_value",
                                "type": "uint256",
                                "value": "499,500,000,000,000,000,000"
                            }
                        ],
                        "constructorArguments": "",
                        "name": "transfer",
                        "returnParams": [
                            {
                                "name": "success",
                                "type": "bool",
                                "value": true
                            }
                        ],
                        "signature": "transfer(address,uint256)"
                    },
                    "errorInfo": "",
                    "fromAddress": "0xa5d72816d75625ca3b408303998ae24756dbf5ac",
                    "gasUsed": 51525,
                    "id": 0,
                    "methodDecoded": true,
                    "operation": "CALL",
                    "output": "0x0000000000000000000000000000000000000000000000000000000000000001",
                    "revert": false,
                    "revertMessage": "",
                    "selector": "0xa9059cbb",
                    "status": true,
                    "value": "0"
                },
                "nodeType": 0
            },
            "1": {
                "event": {
                    "contract": "0x04cd48c02807a5b2443c6e50e274479642c41232",
                    "decodedLog": {
                        "name": "Transfer",
                        "params": [
                            {
                                "name": "_from",
                                "type": "address",
                                "value": "0xa5d72816d75625ca3b408303998ae24756dbf5ac"
                            },
                            {
                                "name": "_to",
                                "type": "address",
                                "value": "0x7438615040e9dc245b1ea80ad8df2cf75a4fac60"
                            },
                            {
                                "decimalAvailable": true,
                                "name": "_value",
                                "type": "uint256",
                                "value": "499,500,000,000,000,000,000"
                            }
                        ],
                        "signature": "Transfer(address,address,uint256)"
                    },
                    "id": 1,
                    "logData": "0x00000000000000000000000000000000000000000000001b13f47b891b9e0000",
                    "logDecoded": true,
                    "operation": "EVENT",
                    "revert": false,
                    "status": true,
                    "topics": [
                        "0xddf252ad1be2c89b69c2b068fc378daa952ba7f163c4a11628f55a4df523b3ef",
                        "0x000000000000000000000000a5d72816d75625ca3b408303998ae24756dbf5ac",
                        "0x0000000000000000000000007438615040e9dc245b1ea80ad8df2cf75a4fac60"
                    ]
                },
                "nodeType": 1
            }
        },
        "gasFlame": [
            {
                "children": [
                    {
                        "children": [
                            {
                                "children": [],
                                "depth": 0,
                                "name": "Initial Gas",
                                "value": 23256
                            },
                            {
                                "children": [],
                                "depth": 0,
                                "name": "Executed Gas",
                                "value": 28269
                            }
                        ],
                        "depth": -1,
                        "name": "Actual Gas Used",
                        "value": 51525
                    },
                    {
                        "children": [],
                        "depth": -1,
                        "name": "Refunded Gas",
                        "value": 0
                    }
                ],
                "depth": -2,
                "name": "Total Gas",
                "value": 51525
            }
        ],
        "isConfirmed": true,
        "mainTrace": [
            {
                "children": [
                    {
                        "children": [
                            {
                                "children": [],
                                "depth": 1,
                                "id": 1,
                                "order": 1
                            }
                        ],
                        "depth": 0,
                        "id": 0,
                        "order": 0
                    }
                ],
                "depth": -1,
                "id": -1,
                "order": -1
            }
        ],
        "mainTraceNodeCount": 2,
        "parentIdMap": {
            "0": -1,
            "1": 0
        },
        "tidyTrace": [
            {
                "children": [
                    {
                        "children": [
                            {
                                "children": [],
                                "depth": 1,
                                "id": 1,
                                "order": 1
                            }
                        ],
                        "depth": 0,
                        "id": 0,
                        "order": 0
                    }
                ],
                "depth": -1,
                "id": -1,
                "order": -1
            }
        ],
        "tidyTraceNodeCount": 2
    },
    "state_change": {
        "stateChanges": [
            {
                "address": "0x04cd48c02807a5b2443c6e50e274479642c41232",
                "erc": "ERC-20",
                "slots": [
                    {
                        "current": "0x00000000000000000000000000000000000000000004862d348b8bcf3bcb8000",
                        "key": "0x237a9398b861dff94c8963f84aeb6a5f6c509c65d96e7fb9d08bd71ed3ca4741",
                        "prev": "0x0000000000000000000000000000000000000000000486484880075857698000"
                    },
                    {
                        "current": "0x00000000000000000000000000000000000000000000001b13f47b891b9e0000",
                        "key": "0x65b75c797da8e24c39a277682d09a5fa2b8539b188c84960f53fabc17619708f",
                        "prev": "0x0000000000000000000000000000000000000000000000000000000000000000"
                    }
                ],
                "storageVariables": [
                    {
                        "name": "balances",
                        "type": "mapping(address => uint256)",
                        "value": {
                            "pairs": [
                                {
                                    "key": "0x7438615040e9dc245b1ea80ad8df2cf75a4fac60",
                                    "value": {
                                        "current": "499500000000000000000",
                                        "prev": "0",
                                        "typeTag": 1
                                    }
                                },
                                {
                                    "key": "0xa5d72816d75625ca3b408303998ae24756dbf5ac",
                                    "value": {
                                        "current": "5469334276920000000000000",
                                        "prev": "5469833776920000000000000",
                                        "typeTag": 1
                                    }
                                }
                            ],
                            "typeTag": 4
                        }
                    }
                ]
            }
        ]
    }
}