{
    "balance_change": {
        "balanceChanges": [
            {
                "account": "0xea705366cdf72ab8e55b30717abaa08c2e215391",
                "assets": [
                    {
                        "address": "0x51504928bf128dfcb01dd6ae343c6c1a42cc5342",
                        "amount": "5.529",
                        "iconUrl": "",
                        "isERC1155": false,
                        "isERC721": false,
                        "sign": false,
                        "value": ""
                    }
                ]
            },
            {
                "account": "0xce62012c06b8f136394be78cf00deed3b4d00e36",
                "assets": [
                    {
                        "address": "0x51504928bf128dfcb01dd6ae343c6c1a42cc5342",
                        "amount": "5.529",
                        "iconUrl": "",
                        "isERC1155": false,
                        "isERC721": false,
                        "sign": true,
                        "value": ""
                    }
                ]
            }
        ]
    },
    "profile": {
        "basic_info": {
            "baseFee": "",
            "blockNumber": 8111175,
            "callData": "0xa9059cbb000000000000000000000000ce62012c06b8f136394be78cf00deed3b4d00e360000000000000000000000000000000000000000000000004cbaf434c3228000",
            "debugEnable": true,
            "errorInfo": "",
            "eventCount": 1,
            "feeRecipient": "0xea674fdde714fd979de3edf0f56aa9716b898ec8",
            "formatValue": "0",
            "gasLimit": 60000,
            "gasPrice": "1",
            "gasUsed": 36936,
            "intTxnCount": 0,
            "internalRevert": false,
            "internalRevertMessage": "",
            "isContractCreation": false,
            "isFlashloan": false,
            "maxFee": "",
            "nonce": 6065,
            "overwritedBlockNumber": -1,
            "priorityFee": "",
            "receiver": "0x51504928bf128dfcb01dd6ae343c6c1a42cc5342",
            "revertMessage": "",
            "sender": "0xea705366cdf72ab8e55b30717abaa08c2e215391",
            "simulationEnable": true,
            "sourceTxnHash": "0xb9da08685107dc8bfde58b08e445c4b5b8b601f00cbdec844f07914cfb7a4f70",
            "status": true,
            "timestamp": "2019-07-08T14:40:38Z",
            "transactionFee": "0.000036936",
            "txnHash": "0xb9da08685107dc8bfde58b08e445c4b5b8b601f00cbdec844f07914cfb7a4f70",
            "txnIndex": 42,
            "type": 0,
            "value": "0"
        },
        "fund_flow": [
            {
                "amount": "5.529",
                "from": "0xea705366cdf72ab8e55b30717abaa08c2e215391",
                "id": 1,
                "isERC1155": false,
                "isERC721": false,
                "isReverted": false,
                "order": 1,
                "to": "0xce62012c06b8f136394be78cf00deed3b4d00e36",
                "token": "0x51504928bf128dfcb01dd6ae343c6c1a42cc5342"
            }
        ],
        "token_infos": [
            {
                "address": "0xeeeeeeeeeeeeeeeeeeeeeeeeeeeeeeeeeeeeeeee",
                "decimals": 18
            },
            {
                "address": "0x51504928bf128dfcb01dd6ae343c6c1a42cc5342",
                "decimals": 18
            },
            {
                "address": "0xc02aaa39b223fe8d0a0e5c4f27ead9083c756cc2",
                "decimals": 18
            }
        ]
    },
    "address_label": {
        "labels": [
            {
                "address": "0x0000000000000000000000000000000000000004",
                "label": "Precompiled"
            },
            {
                "address": "0xeeeeeeeeeeeeeeeeeeeeeeeeeeeeeeeeeeeeeeee",
                "label": "Ether"
            },
            {
                "address": "0x51504928bf128dfcb01dd6ae343c6c1a42cc5342",
                "label": "KarlBenz Coin (KARL)"
            },
            {
                "address": "0x0000000000000000000000000000000000000001",
                "label": "Precompiled"
            },
            {
                "address": "0x0000000000000000000000000000000000000002",
                "label": "Precompiled"
            },
            {
                "address": "0x0000000000000000000000000000000000000003",
                "label": "Precompiled"
            }
        ]
    },
    "trace": {
        "accountLabels": null,
        "dataMap": {
            "-1": {
                "invocation": {
                    "address": "0xea705366cdf72ab8e55b30717abaa08c2e215391",
                    "callData": "",
                    "decodedMethod": null,
                    "errorInfo": "",
                    "fromAddress": "",
                    "gasUsed": 0,
                    "id": -1,
                    "methodDecoded": false,
                    "operation": "",
                    "output": "",
                    "revert": false,
                    "revertMessage": "",
                    "selector": "",
                    "status": false,
                    "value": ""
                },
                "nodeType": 0
            },
            "0": {
                "invocation": {
                    "address": "0x51504928bf128dfcb01dd6ae343c6c1a42cc5342",
                    "callData": "0x000000000000000000000000ce62012c06b8f136394be78cf00deed3b4d00e360000000000000000000000000000000000000000000000004cbaf434c3228000",
                    "decodedMethod": {
                        "callParams": [
                            {
                                "name": "recipient",
                                "type": "address",
                                "value": "0xce62012c06b8f136394be78cf00deed3b4d00e36"
                            },
                            {
                                "decimalAvailable": true,
                                "name": "amount",
                                "type": "uint256",
                                "value": "5,529,000,000,000,000,000"
                            }
                        ],
                        "constructorArguments": "",
                        "name": "transfer",
                        "returnParams": [
                            {
                                "name": "",
                                "type": "bool",
                                "value": true
                            }
                        ],
                        "signature": "transfer(address,uint256)"
                    },
                    "errorInfo": "",
                    "fromAddress": "0xea705366cdf72ab8e55b30717abaa08c2e215391",
                    "gasUsed": 36936,
                    "id": 0,
                    "methodDecoded": true,
                    "operation": "CALL",
                    "output": "0x0000000000000000000000000000000000000000000000000000000000000001",
                    "revert": false,
                    "revertMessage": "",
                    "selector": "0xa9059cbb",
                    "status": true,
                    "value": "0"
                },
                "nodeType": 0
            },
            "1": {
                "event": {
                    "contract": "0x51504928bf128dfcb01dd6ae343c6c1a42cc5342",
                    "decodedLog": {
                        "name": "Transfer",
                        "params": [
                            {
                                "name": "from",
                                "type": "address",
                                "value": "0xea705366cdf72ab8e55b30717abaa08c2e215391"
                            },
                            {
                                "name": "to",
                                "type": "address",
                                "value": "0xce62012c06b8f136394be78cf00deed3b4d00e36"
                            },
                            {
                                "decimalAvailable": true,
                                "name": "value",
                                "type": "uint256",
                                "value": "5,529,000,000,000,000,000"
                            }
                        ],
                        "signature": "Transfer(address,address,uint256)"
                    },
                    "id": 1,
                    "logData": "0x0000000000000000000000000000000000000000000000004cbaf434c3228000",
                    "logDecoded": true,
                    "operation": "EVENT",
                    "revert": false,
                    "status": true,
                    "topics": [
                        "0xddf252ad1be2c89b69c2b068fc378daa952ba7f163c4a11628f55a4df523b3ef",
                        "0x000000000000000000000000ea705366cdf72ab8e55b30717abaa08c2e215391",
                        "0x000000000000000000000000ce62012c06b8f136394be78cf00deed3b4d00e36"
                    ]
                },
                "nodeType": 1
            }
        },
        "gasFlame": [
            {
                "children": [
                    {
                        "children": [
                            {
                                "children": [],
                                "depth": 0,
                                "name": "Initial Gas",
                                "value": 23256
                            },
                            {
                                "children": [],
                                "depth": 0,
                                "name": "Executed Gas",
                                "value": 13680
                            }
                        ],
                        "depth": -1,
                        "name": "Actual Gas Used",
                        "value": 36936
                    },
                    {
                        "children": [],
                        "depth": -1,
                        "name": "Refunded Gas",
                        "value": 0
                    }
                ],
                "depth": -2,
                "name": "Total Gas",
                "value": 36936
            }
        ],
        "isConfirmed": true,
        "mainTrace": [
            {
                "children": [
                    {
                        "children": [
                            {
                                "children": [],
                                "depth": 1,
                                "id": 1,
                                "order": 1
                            }
                        ],
                        "depth": 0,
                        "id": 0,
                        "order": 0
                    }
                ],
                "depth": -1,
                "id": -1,
                "order": -1
            }
        ],
        "mainTraceNodeCount": 2,
        "parentIdMap": {
            "0": -1,
            "1": 0
        },
        "tidyTrace": [
            {
                "children": [
                    {
                        "children": [
                            {
                                "children": [],
                                "depth": 1,
                                "id": 1,
                                "order": 1
                            }
                        ],
                        "depth": 0,
                        "id": 0,
                        "order": 0
                    }
                ],
                "depth": -1,
                "id": -1,
                "order": -1
            }
        ],
        "tidyTraceNodeCount": 2
    },
    "state_change": {
        "stateChanges": [
            {
                "address": "0x51504928bf128dfcb01dd6ae343c6c1a42cc5342",
                "erc": "",
                "slots": [
                    {
                        "current": "0x0000000000000000000000000000000000000000000bf6045cddf79786e14000",
                        "key": "0x654d46f10833ebdbce066a068d770151af6bdafc4fe1632dc4d25e2eff0cb224",
                        "prev": "0x0000000000000000000000000000000000000000000bf604a998ebcc4a03c000"
                    },
                    {
                        "current": "0x00000000000000000000000000000000000000000000000150894e849b390000",
                        "key": "0x9054fff2cdbd4ba28d2f8fb1942d1427090496ad8198ae1cef34106555de08a1",
                        "prev": "0x00000000000000000000000000000000000000000000000103ce5a4fd8168000"
                    }
                ],
                "storageVariables": []
            }
        ]
    }
}