{
    "balance_change": {
        "balanceChanges": [
            {
                "account": "0x6b3ae4dd41205d66549662ccf32fff6da8fe9e31",
                "assets": [
                    {
                        "address": "0xeeeeeeeeeeeeeeeeeeeeeeeeeeeeeeeeeeeeeeee",
                        "amount": "0.0299",
                        "iconUrl": "https://assets.blocksec.com/image/1663669189317-3.png",
                        "isERC1155": false,
                        "isERC721": false,
                        "sign": false,
                        "value": "111.5226432"
                    },
                    {
                        "address": "0xcf23d21ffcf04585898a3d2c255c7116193785a5",
                        "amount": "1",
                        "iconUrl": "",
                        "isERC1155": false,
                        "isERC721": true,
                        "sign": true,
                        "tokenID": "863",
                        "value": ""
                    }
                ]
            },
            {
                "account": "0x5b3256965e7c3cf26e11fcaf296dfc8807c01073",
                "assets": [
                    {
                        "address": "0xeeeeeeeeeeeeeeeeeeeeeeeeeeeeeeeeeeeeeeee",
                        "amount": "0.0037375",
                        "iconUrl": "https://assets.blocksec.com/image/1663669189317-3.png",
                        "isERC1155": false,
                        "isERC721": false,
                        "sign": true,
                        "value": "13.9403304"
                    }
                ]
            },
            {
                "account": "0xd2e5b54b99b79ae29cefb275930a1e7abecf0366",
                "assets": [
                    {
                        "address": "0xeeeeeeeeeeeeeeeeeeeeeeeeeeeeeeeeeeeeeeee",
                        "amount": "0.0261625",
                        "iconUrl": "https://assets.blocksec.com/image/1663669189317-3.png",
                        "isERC1155": false,
                        "isERC721": false,
                        "sign": true,
                        "value": "97.58231282"
                    },
                    {
                        "address": "0xcf23d21ffcf04585898a3d2c255c7116193785a5",
                        "amount": "1",
                        "iconUrl": "",
                        "isERC1155": false,
                        "isERC721": true,
                        "sign": false,
                        "tokenID": "863",
                        "value": ""
                    }
                ]
            }
        ]
    },
    "profile": {
        "basic_info": {
            "baseFee": "104.189573617",
            "blockNumber": 13936478,
            "callData": "0xab834bab0000000000000000000000007be8076f4ea4a4ad08075c2508e481d6c946d12b0000000000000000000000006b3ae4dd41205d66549662ccf32fff6da8fe9e31000000000000000000000000d2e5b54b99b79ae29cefb275930a1e7abecf03660000000000000000000000000000000000000000000000000000000000000000000000000000000000000000cf23d21ffcf04585898a3d2c255c7116193785a5000000000000000000000000000000000000000000000000000000000000000000000000000000000000000000000000000000000000000000000000000000000000000000000000000000007be8076f4ea4a4ad08075c2508e481d6c946d12b000000000000000000000000d2e5b54b99b79ae29cefb275930a1e7abecf036600000000000000000000000000000000000000000000000000000000000000000000000000000000000000005b3256965e7c3cf26e11fcaf296dfc8807c01073000000000000000000000000cf23d21ffcf04585898a3d2c255c7116193785a50000000000000000000000000000000000000000000000000000000000000000000000000000000000000000000000000000000000000000000000000000000000000000000000000000000000000000000000000000000000000000000004e2000000000000000000000000000000000000000000000000000000000000000000000000000000000000000000000000000000000000000000000000000000000000000000000000000000000000000000000000000000000000000000000000000000000000000000000000000000000000000000000000006a39e43ec8c00000000000000000000000000000000000000000000000000000000000000000000000000000000000000000000000000000000000000000000000000061d3ba4000000000000000000000000000000000000000000000000000000000000000007dbd02035ed6c7d9141abe4d3cbed626aa7704104a753476a06f1cb097378c2100000000000000000000000000000000000000000000000000000000000004e2000000000000000000000000000000000000000000000000000000000000000000000000000000000000000000000000000000000000000000000000000000000000000000000000000000000000000000000000000000000000000000000000000000000000000000000000000000000000000000000000006a39e43ec8c00000000000000000000000000000000000000000000000000000000000000000000000000000000000000000000000000000000000000000000000000061d3b9c80000000000000000000000000000000000000000000000000000000062c24b98280961049c05c2d2efe14025099bdb69a28036abef237aaa64e067f1214c7fc90000000000000000000000000000000000000000000000000000000000000001000000000000000000000000000000000000000000000000000000000000000000000000000000000000000000000000000000000000000000000000000000000000000000000000000000000000000000000000000000000000000000000000000000000000000000000000000000000000000000000000000000000000000100000000000000000000000000000000000000000000000000000000000000010000000000000000000000000000000000000000000000000000000000000000000000000000000000000000000000000000000000000000000000000000000000000000000000000000000000000000000000000000000000000000000006a0000000000000000000000000000000000000000000000000000000000000074000000000000000000000000000000000000000000000000000000000000007e0000000000000000000000000000000000000000000000000000000000000088000000000000000000000000000000000000000000000000000000000000009200000000000000000000000000000000000000000000000000000000000000940000000000000000000000000000000000000000000000000000000000000001c000000000000000000000000000000000000000000000000000000000000001c09c70bf53b4db6fc880857378ed0e49b1a9caf0d488fda912292340f09efd33a5d6d6f9ef62f7529dbfafc7b07f405796592379af7024c7e744757810f80990d09c70bf53b4db6fc880857378ed0e49b1a9caf0d488fda912292340f09efd33a5d6d6f9ef62f7529dbfafc7b07f405796592379af7024c7e744757810f80990db40e91a4e90a6da15c6607b82a04605f5bfb9b8c000000000000000000000000000000000000000000000000000000000000000000000000000000000000006423b872dd00000000000000000000000000000000000000000000000000000000000000000000000000000000000000006b3ae4dd41205d66549662ccf32fff6da8fe9e31000000000000000000000000000000000000000000000000000000000000035f00000000000000000000000000000000000000000000000000000000000000000000000000000000000000000000000000000000000000000000006423b872dd000000000000000000000000d2e5b54b99b79ae29cefb275930a1e7abecf03660000000000000000000000000000000000000000000000000000000000000000000000000000000000000000000000000000000000000000000000000000035f00000000000000000000000000000000000000000000000000000000000000000000000000000000000000000000000000000000000000000000006400000000ffffffffffffffffffffffffffffffffffffffffffffffffffffffffffffffff00000000000000000000000000000000000000000000000000000000000000000000000000000000000000000000000000000000000000000000000000000000000000000000000000000000000000000000000000000000000000000000000000000000000000000000000000000000000000000000000000000064000000000000000000000000000000000000000000000000000000000000000000000000ffffffffffffffffffffffffffffffffffffffffffffffffffffffffffffffff00000000000000000000000000000000000000000000000000000000000000000000000000000000000000000000000000000000000000000000000000000000000000000000000000000000000000000000000000000000000000000000000000000000000000000000000000000000000000000000000000000000",
            "debugEnable": true,
            "errorInfo": "",
            "eventCount": 3,
            "feeRecipient": "0x2a20380dca5bc24d052acfbf79ba23e988ad0050",
            "formatValue": "0.0299",
            "gasLimit": 314979,
            "gasPrice": "105.689573617",
            "gasUsed": 227750,
            "intTxnCount": 10,
            "internalRevert": false,
            "internalRevertMessage": "",
            "isContractCreation": false,
            "isFlashloan": false,
            "maxFee": "139.279226504",
            "nonce": 60,
            "overwritedBlockNumber": -1,
            "priorityFee": "1.5",
            "receiver": "0x7be8076f4ea4a4ad08075c2508e481d6c946d12b",
            "revertMessage": "",
            "sender": "0x6b3ae4dd41205d66549662ccf32fff6da8fe9e31",
            "simulationEnable": true,
            "sourceTxnHash": "0xb952202480f7026799b4505ff539bd28e51e10912bd6046ffcc7b9a4927798e5",
            "status": true,
            "timestamp": "2022-01-04T03:10:27Z",
            "transactionFee": "0.02407080039127175",
            "txnHash": "0xb952202480f7026799b4505ff539bd28e51e10912bd6046ffcc7b9a4927798e5",
            "txnIndex": 217,
            "type": 2,
            "value": "29900000000000000"
        },
        "fund_flow": [
            {
                "amount": "0.0299",
                "from": "0x6b3ae4dd41205d66549662ccf32fff6da8fe9e31",
                "id": 1,
                "isERC1155": false,
                "isERC721": false,
                "isReverted": false,
                "order": 1,
                "to": "0x7be8076f4ea4a4ad08075c2508e481d6c946d12b",
                "token": "0xeeeeeeeeeeeeeeeeeeeeeeeeeeeeeeeeeeeeeeee"
            },
            {
                "amount": "0.0037375",
                "from": "0x7be8076f4ea4a4ad08075c2508e481d6c946d12b",
                "id": 2,
                "isERC1155": false,
                "isERC721": false,
                "isReverted": false,
                "order": 2,
                "to": "0x5b3256965e7c3cf26e11fcaf296dfc8807c01073",
                "token": "0xeeeeeeeeeeeeeeeeeeeeeeeeeeeeeeeeeeeeeeee"
            },
            {
                "amount": "0.0261625",
                "from": "0x7be8076f4ea4a4ad08075c2508e481d6c946d12b",
                "id": 3,
                "isERC1155": false,
                "isERC721": false,
                "isReverted": false,
                "order": 3,
                "to": "0xd2e5b54b99b79ae29cefb275930a1e7abecf0366",
                "token": "0xeeeeeeeeeeeeeeeeeeeeeeeeeeeeeeeeeeeeeeee"
            },
            {
                "amount": "1",
                "from": "0xd2e5b54b99b79ae29cefb275930a1e7abecf0366",
                "id": 4,
                "isERC1155": false,
                "isERC721": true,
                "isReverted": false,
                "order": 4,
                "to": "0x6b3ae4dd41205d66549662ccf32fff6da8fe9e31",
                "token": "0xcf23d21ffcf04585898a3d2c255c7116193785a5",
                "tokenID": "863"
            }
        ],
        "token_infos": [
            {
                "address": "0xc02aaa39b223fe8d0a0e5c4f27ead9083c756cc2",
                "decimals": 18
            },
            {
                "address": "0xeeeeeeeeeeeeeeeeeeeeeeeeeeeeeeeeeeeeeeee",
                "decimals": 18
            }
        ]
    },
    "address_label": {
        "labels": [
            {
                "address": "0x0000000000000000000000000000000000000002",
                "label": "Precompiled"
            },
            {
                "address": "0xa5409ec958c83c3f309868babaca7c86dcb077c1",
                "label": "OpenSea: Registry"
            },
            {
                "address": "0x7be8076f4ea4a4ad08075c2508e481d6c946d12b",
                "label": "OpenSea: Wyvern Exchange v1"
            },
            {
                "address": "0x0000000000000000000000000000000000000000",
                "label": "Null Address"
            },
            {
                "address": "0x530967edb5ea4f86f528568eef2ef237df761d62",
                "label": "OwnableDelegateProxy"
            },
            {
                "address": "0x0000000000000000000000000000000000000001",
                "label": "Precompiled"
            },
            {
                "address": "0x0000000000000000000000000000000000000003",
                "label": "Precompiled"
            },
            {
                "address": "0x0000000000000000000000000000000000000004",
                "label": "Precompiled"
            },
            {
                "address": "0xeeeeeeeeeeeeeeeeeeeeeeeeeeeeeeeeeeeeeeee",
                "label": "Ether"
            },
            {
                "address": "0x5b3256965e7c3cf26e11fcaf296dfc8807c01073",
                "label": "OpenSea: Wallet"
            },
            {
                "address": "0xcf23d21ffcf04585898a3d2c255c7116193785a5",
                "label": "DegenDads (DDADS)"
            },
            {
                "address": "0xf9e266af4bca5890e2781812cc6a6e89495a79f2",
                "label": "AuthenticatedProxy"
            }
        ]
    },
    "trace": {
        "accountLabels": null,
        "dataMap": {
            "-1": {
                "invocation": {
                    "address": "0x6b3ae4dd41205d66549662ccf32fff6da8fe9e31",
                    "callData": "",
                    "decodedMethod": null,
                    "errorInfo": "",
                    "fromAddress": "",
                    "gasUsed": 0,
                    "id": -1,
                    "methodDecoded": false,
                    "operation": "",
                    "output": "",
                    "revert": false,
                    "revertMessage": "",
                    "selector": "",
                    "status": false,
                    "value": ""
                },
                "nodeType": 0
            },
            "0": {
                "invocation": {
                    "address": "0x7be8076f4ea4a4ad08075c2508e481d6c946d12b",
                    "callData": "0x0000000000000000000000007be8076f4ea4a4ad08075c2508e481d6c946d12b0000000000000000000000006b3ae4dd41205d66549662ccf32fff6da8fe9e31000000000000000000000000d2e5b54b99b79ae29cefb275930a1e7abecf03660000000000000000000000000000000000000000000000000000000000000000000000000000000000000000cf23d21ffcf04585898a3d2c255c7116193785a5000000000000000000000000000000000000000000000000000000000000000000000000000000000000000000000000000000000000000000000000000000000000000000000000000000007be8076f4ea4a4ad08075c2508e481d6c946d12b000000000000000000000000d2e5b54b99b79ae29cefb275930a1e7abecf036600000000000000000000000000000000000000000000000000000000000000000000000000000000000000005b3256965e7c3cf26e11fcaf296dfc8807c01073000000000000000000000000cf23d21ffcf04585898a3d2c255c7116193785a50000000000000000000000000000000000000000000000000000000000000000000000000000000000000000000000000000000000000000000000000000000000000000000000000000000000000000000000000000000000000000000004e2000000000000000000000000000000000000000000000000000000000000000000000000000000000000000000000000000000000000000000000000000000000000000000000000000000000000000000000000000000000000000000000000000000000000000000000000000000000000000000000000006a39e43ec8c00000000000000000000000000000000000000000000000000000000000000000000000000000000000000000000000000000000000000000000000000061d3ba4000000000000000000000000000000000000000000000000000000000000000007dbd02035ed6c7d9141abe4d3cbed626aa7704104a753476a06f1cb097378c2100000000000000000000000000000000000000000000000000000000000004e2000000000000000000000000000000000000000000000000000000000000000000000000000000000000000000000000000000000000000000000000000000000000000000000000000000000000000000000000000000000000000000000000000000000000000000000000000000000000000000000000006a39e43ec8c00000000000000000000000000000000000000000000000000000000000000000000000000000000000000000000000000000000000000000000000000061d3b9c80000000000000000000000000000000000000000000000000000000062c24b98280961049c05c2d2efe14025099bdb69a28036abef237aaa64e067f1214c7fc90000000000000000000000000000000000000000000000000000000000000001000000000000000000000000000000000000000000000000000000000000000000000000000000000000000000000000000000000000000000000000000000000000000000000000000000000000000000000000000000000000000000000000000000000000000000000000000000000000000000000000000000000000000100000000000000000000000000000000000000000000000000000000000000010000000000000000000000000000000000000000000000000000000000000000000000000000000000000000000000000000000000000000000000000000000000000000000000000000000000000000000000000000000000000000000006a0000000000000000000000000000000000000000000000000000000000000074000000000000000000000000000000000000000000000000000000000000007e0000000000000000000000000000000000000000000000000000000000000088000000000000000000000000000000000000000000000000000000000000009200000000000000000000000000000000000000000000000000000000000000940000000000000000000000000000000000000000000000000000000000000001c000000000000000000000000000000000000000000000000000000000000001c09c70bf53b4db6fc880857378ed0e49b1a9caf0d488fda912292340f09efd33a5d6d6f9ef62f7529dbfafc7b07f405796592379af7024c7e744757810f80990d09c70bf53b4db6fc880857378ed0e49b1a9caf0d488fda912292340f09efd33a5d6d6f9ef62f7529dbfafc7b07f405796592379af7024c7e744757810f80990db40e91a4e90a6da15c6607b82a04605f5bfb9b8c000000000000000000000000000000000000000000000000000000000000000000000000000000000000006423b872dd00000000000000000000000000000000000000000000000000000000000000000000000000000000000000006b3ae4dd41205d66549662ccf32fff6da8fe9e31000000000000000000000000000000000000000000000000000000000000035f00000000000000000000000000000000000000000000000000000000000000000000000000000000000000000000000000000000000000000000006423b872dd000000000000000000000000d2e5b54b99b79ae29cefb275930a1e7abecf03660000000000000000000000000000000000000000000000000000000000000000000000000000000000000000000000000000000000000000000000000000035f00000000000000000000000000000000000000000000000000000000000000000000000000000000000000000000000000000000000000000000006400000000ffffffffffffffffffffffffffffffffffffffffffffffffffffffffffffffff00000000000000000000000000000000000000000000000000000000000000000000000000000000000000000000000000000000000000000000000000000000000000000000000000000000000000000000000000000000000000000000000000000000000000000000000000000000000000000000000000000064000000000000000000000000000000000000000000000000000000000000000000000000ffffffffffffffffffffffffffffffffffffffffffffffffffffffffffffffff00000000000000000000000000000000000000000000000000000000000000000000000000000000000000000000000000000000000000000000000000000000000000000000000000000000000000000000000000000000000000000000000000000000000000000000000000000000000000000000000000000000",
                    "decodedMethod": {
                        "callParams": [
                            {
                                "name": "addrs",
                                "type": "address[14]",
                                "value": [
                                    "0x7be8076f4ea4a4ad08075c2508e481d6c946d12b",
                                    "0x6b3ae4dd41205d66549662ccf32fff6da8fe9e31",
                                    "0xd2e5b54b99b79ae29cefb275930a1e7abecf0366",
                                    "0x0000000000000000000000000000000000000000",
                                    "0xcf23d21ffcf04585898a3d2c255c7116193785a5",
                                    "0x0000000000000000000000000000000000000000",
                                    "0x0000000000000000000000000000000000000000",
                                    "0x7be8076f4ea4a4ad08075c2508e481d6c946d12b",
                                    "0xd2e5b54b99b79ae29cefb275930a1e7abecf0366",
                                    "0x0000000000000000000000000000000000000000",
                                    "0x5b3256965e7c3cf26e11fcaf296dfc8807c01073",
                                    "0xcf23d21ffcf04585898a3d2c255c7116193785a5",
                                    "0x0000000000000000000000000000000000000000",
                                    "0x0000000000000000000000000000000000000000"
                                ]
                            },
                            {
                                "name": "uints",
                                "type": "uint256[18]",
                                "value": [
                                    "1,250",
                                    "0",
                                    "0",
                                    "0",
                                    "29,900,000,000,000,000",
                                    "0",
                                    "1,641,265,728",
                                    "0",
                                    "56,873,054,062,511,657,821,492,161,774,413,770,574,125,822,443,163,377,779,560,134,454,412,551,097,377",
                                    "1,250",
                                    "0",
                                    "0",
                                    "0",
                                    "29,900,000,000,000,000",
                                    "0",
                                    "1,641,265,608",
                                    "1,656,900,504",
                                    "18,109,085,160,580,173,798,234,517,409,033,023,477,725,028,252,516,302,116,795,740,603,307,906,596,809"
                                ]
                            },
                            {
                                "name": "feeMethodsSidesKindsHowToCalls",
                                "type": "uint8[8]",
                                "value": [
                                    "1",
                                    "0",
                                    "0",
                                    "0",
                                    "1",
                                    "1",
                                    "0",
                                    "0"
                                ]
                            },
                            {
                                "name": "calldataBuy",
                                "type": "bytes",
                                "value": "0x23b872dd00000000000000000000000000000000000000000000000000000000000000000000000000000000000000006b3ae4dd41205d66549662ccf32fff6da8fe9e31000000000000000000000000000000000000000000000000000000000000035f"
                            },
                            {
                                "name": "calldataSell",
                                "type": "bytes",
                                "value": "0x23b872dd000000000000000000000000d2e5b54b99b79ae29cefb275930a1e7abecf03660000000000000000000000000000000000000000000000000000000000000000000000000000000000000000000000000000000000000000000000000000035f"
                            },
                            {
                                "name": "replacementPatternBuy",
                                "type": "bytes",
                                "value": "0x00000000ffffffffffffffffffffffffffffffffffffffffffffffffffffffffffffffff00000000000000000000000000000000000000000000000000000000000000000000000000000000000000000000000000000000000000000000000000000000"
                            },
                            {
                                "name": "replacementPatternSell",
                                "type": "bytes",
                                "value": "0x000000000000000000000000000000000000000000000000000000000000000000000000ffffffffffffffffffffffffffffffffffffffffffffffffffffffffffffffff0000000000000000000000000000000000000000000000000000000000000000"
                            },
                            {
                                "name": "staticExtradataBuy",
                                "type": "bytes",
                                "value": "0x"
                            },
                            {
                                "name": "staticExtradataSell",
                                "type": "bytes",
                                "value": "0x"
                            },
                            {
                                "name": "vs",
                                "type": "uint8[2]",
                                "value": [
                                    "28",
                                    "28"
                                ]
                            },
                            {
                                "name": "rssMetadata",
                                "type": "bytes32[5]",
                                "value": [
                                    "0x09c70bf53b4db6fc880857378ed0e49b1a9caf0d488fda912292340f09efd33a",
                                    "0x5d6d6f9ef62f7529dbfafc7b07f405796592379af7024c7e744757810f80990d",
                                    "0x09c70bf53b4db6fc880857378ed0e49b1a9caf0d488fda912292340f09efd33a",
                                    "0x5d6d6f9ef62f7529dbfafc7b07f405796592379af7024c7e744757810f80990d",
                                    "0xb40e91a4e90a6da15c6607b82a04605f5bfb9b8c000000000000000000000000"
                                ]
                            }
                        ],
                        "constructorArguments": "",
                        "name": "atomicMatch_",
                        "returnParams": [],
                        "signature": "atomicMatch_(address[14],uint256[18],uint8[8],bytes,bytes,bytes,bytes,bytes,bytes,uint8[2],bytes32[5])"
                    },
                    "errorInfo": "",
                    "fromAddress": "0x6b3ae4dd41205d66549662ccf32fff6da8fe9e31",
                    "gasUsed": 227750,
                    "id": 0,
                    "methodDecoded": true,
                    "operation": "CALL",
                    "output": "",
                    "revert": false,
                    "revertMessage": "",
                    "selector": "0xab834bab",
                    "status": true,
                    "value": "0.0299"
                },
                "nodeType": 0
            },
            "1": {
                "invocation": {
                    "address": "0x0000000000000000000000000000000000000001",
                    "callData": "0x42410637357acdfc8d5f88a70d1b9204f56099244fe1449020df36ed000000000000000000000000000000000000000000000000000000000000001c09c70bf53b4db6fc880857378ed0e49b1a9caf0d488fda912292340f09efd33a5d6d6f9ef62f7529dbfafc7b07f405796592379af7024c7e744757810f80990d",
                    "decodedMethod": {
                        "callParams": [
                            {
                                "name": "hash",
                                "type": "bytes32",
                                "value": "0x841eff2d42410637357acdfc8d5f88a70d1b9204f56099244fe1449020df36ed"
                            },
                            {
                                "name": "v",
                                "type": "uint256",
                                "value": "28"
                            },
                            {
                                "name": "r",
                                "type": "bytes32",
                                "value": "0x09c70bf53b4db6fc880857378ed0e49b1a9caf0d488fda912292340f09efd33a"
                            },
                            {
                                "name": "s",
                                "type": "bytes32",
                                "value": "0x5d6d6f9ef62f7529dbfafc7b07f405796592379af7024c7e744757810f80990d"
                            }
                        ],
                        "constructorArguments": "",
                        "name": "ecrecover",
                        "returnParams": [
                            {
                                "name": "",
                                "type": "address",
                                "value": "0xd2e5b54b99b79ae29cefb275930a1e7abecf0366"
                            }
                        ],
                        "signature": "ecrecover(bytes32,uint256,bytes32,bytes32)"
                    },
                    "errorInfo": "",
                    "fromAddress": "0x7be8076f4ea4a4ad08075c2508e481d6c946d12b",
                    "gasUsed": 3000,
                    "id": 1,
                    "methodDecoded": true,
                    "operation": "CALL",
                    "output": "0x000000000000000000000000d2e5b54b99b79ae29cefb275930a1e7abecf0366",
                    "revert": false,
                    "revertMessage": "",
                    "selector": "0x841eff2d",
                    "status": true,
                    "value": "0"
                },
                "nodeType": 0
            },
            "10": {
                "invocation": {
                    "address": "0xcf23d21ffcf04585898a3d2c255c7116193785a5",
                    "callData": "0x000000000000000000000000d2e5b54b99b79ae29cefb275930a1e7abecf03660000000000000000000000006b3ae4dd41205d66549662ccf32fff6da8fe9e31000000000000000000000000000000000000000000000000000000000000035f00000000000000000000000000000000000000000000000000000000",
                    "decodedMethod": {
                        "callParams": [
                            {
                                "name": "from",
                                "type": "address",
                                "value": "0xd2e5b54b99b79ae29cefb275930a1e7abecf0366"
                            },
                            {
                                "name": "to",
                                "type": "address",
                                "value": "0x6b3ae4dd41205d66549662ccf32fff6da8fe9e31"
                            },
                            {
                                "decimalAvailable": true,
                                "name": "tokenId",
                                "type": "uint256",
                                "value": "863"
                            }
                        ],
                        "constructorArguments": "",
                        "name": "transferFrom",
                        "returnParams": [],
                        "signature": "transferFrom(address,address,uint256)"
                    },
                    "errorInfo": "",
                    "fromAddress": "0x530967edb5ea4f86f528568eef2ef237df761d62",
                    "gasUsed": 87163,
                    "id": 10,
                    "methodDecoded": true,
                    "operation": "CALL",
                    "output": "",
                    "revert": false,
                    "revertMessage": "",
                    "selector": "0x23b872dd",
                    "status": true,
                    "value": "0"
                },
                "nodeType": 0
            },
            "11": {
                "event": {
                    "contract": "0xcf23d21ffcf04585898a3d2c255c7116193785a5",
                    "decodedLog": {
                        "name": "Approval",
                        "params": [
                            {
                                "name": "owner",
                                "type": "address",
                                "value": "0xd2e5b54b99b79ae29cefb275930a1e7abecf0366"
                            },
                            {
                                "name": "approved",
                                "type": "address",
                                "value": "0x0000000000000000000000000000000000000000"
                            },
                            {
                                "decimalAvailable": true,
                                "name": "tokenId",
                                "type": "uint256",
                                "value": "863"
                            }
                        ],
                        "signature": "Approval(address,address,uint256)"
                    },
                    "id": 11,
                    "logData": "0x",
                    "logDecoded": true,
                    "operation": "EVENT",
                    "revert": false,
                    "status": true,
                    "topics": [
                        "0x8c5be1e5ebec7d5bd14f71427d1e84f3dd0314c0f7b2291e5b200ac8c7c3b925",
                        "0x000000000000000000000000d2e5b54b99b79ae29cefb275930a1e7abecf0366",
                        "0x0000000000000000000000000000000000000000000000000000000000000000",
                        "0x000000000000000000000000000000000000000000000000000000000000035f"
                    ]
                },
                "nodeType": 1
            },
            "12": {
                "event": {
                    "contract": "0xcf23d21ffcf04585898a3d2c255c7116193785a5",
                    "decodedLog": {
                        "name": "Transfer",
                        "params": [
                            {
                                "name": "from",
                                "type": "address",
                                "value": "0xd2e5b54b99b79ae29cefb275930a1e7abecf0366"
                            },
                            {
                                "name": "to",
                                "type": "address",
                                "value": "0x6b3ae4dd41205d66549662ccf32fff6da8fe9e31"
                            },
                            {
                                "decimalAvailable": true,
                                "name": "tokenId",
                                "type": "uint256",
                                "value": "863"
                            }
                        ],
                        "signature": "Transfer(address,address,uint256)"
                    },
                    "id": 12,
                    "logData": "0x",
                    "logDecoded": true,
                    "operation": "EVENT",
                    "revert": false,
                    "status": true,
                    "topics": [
                        "0xddf252ad1be2c89b69c2b068fc378daa952ba7f163c4a11628f55a4df523b3ef",
                        "0x000000000000000000000000d2e5b54b99b79ae29cefb275930a1e7abecf0366",
                        "0x0000000000000000000000006b3ae4dd41205d66549662ccf32fff6da8fe9e31",
                        "0x000000000000000000000000000000000000000000000000000000000000035f"
                    ]
                },
                "nodeType": 1
            },
            "13": {
                "event": {
                    "contract": "0x7be8076f4ea4a4ad08075c2508e481d6c946d12b",
                    "decodedLog": {
                        "name": "OrdersMatched",
                        "params": [
                            {
                                "name": "maker",
                                "type": "address",
                                "value": "0xd2e5b54b99b79ae29cefb275930a1e7abecf0366"
                            },
                            {
                                "name": "taker",
                                "type": "address",
                                "value": "0x6b3ae4dd41205d66549662ccf32fff6da8fe9e31"
                            },
                            {
                                "name": "metadata",
                                "type": "bytes32",
                                "value": "0xb40e91a4e90a6da15c6607b82a04605f5bfb9b8c000000000000000000000000"
                            },
                            {
                                "name": "buyHash",
                                "type": "bytes32",
                                "value": "0x0000000000000000000000000000000000000000000000000000000000000000"
                            },
                            {
                                "name": "sellHash",
                                "type": "bytes32",
                                "value": "0x841eff2d42410637357acdfc8d5f88a70d1b9204f56099244fe1449020df36ed"
                            },
                            {
                                "name": "price",
                                "type": "uint256",
                                "value": "29,900,000,000,000,000"
                            }
                        ],
                        "signature": "OrdersMatched(bytes32,bytes32,address,address,uint256,bytes32)"
                    },
                    "id": 13,
                    "logData": "0x0000000000000000000000000000000000000000000000000000000000000000841eff2d42410637357acdfc8d5f88a70d1b9204f56099244fe1449020df36ed000000000000000000000000000000000000000000000000006a39e43ec8c000",
                    "logDecoded": true,
                    "operation": "EVENT",
                    "revert": false,
                    "status": true,
                    "topics": [
                        "0xc4109843e0b7d514e4c093114b863f8e7d8d9a458c372cd51bfe526b588006c9",
                        "0x000000000000000000000000d2e5b54b99b79ae29cefb275930a1e7abecf0366",
                        "0x0000000000000000000000006b3ae4dd41205d66549662ccf32fff6da8fe9e31",
                        "0xb40e91a4e90a6da15c6607b82a04605f5bfb9b8c000000000000000000000000"
                    ]
                },
                "nodeType": 1
            },
            "2": {
                "invocation": {
                    "address": "0xa5409ec958c83c3f309868babaca7c86dcb077c1",
                    "callData": "0x000000000000000000000000d2e5b54b99b79ae29cefb275930a1e7abecf0366",
                    "decodedMethod": {
                        "callParams": [
                            {
                                "name": "",
                                "type": "address",
                                "value": "0xd2e5b54b99b79ae29cefb275930a1e7abecf0366"
                            }
                        ],
                        "constructorArguments": "",
                        "name": "proxies",
                        "returnParams": [
                            {
                                "name": "",
                                "type": "address",
                                "value": "0x530967edb5ea4f86f528568eef2ef237df761d62"
                            }
                        ],
                        "signature": "proxies(address)"
                    },
                    "errorInfo": "",
                    "fromAddress": "0x7be8076f4ea4a4ad08075c2508e481d6c946d12b",
                    "gasUsed": 2782,
                    "id": 2,
                    "methodDecoded": true,
                    "operation": "CALL",
                    "output": "0x000000000000000000000000530967edb5ea4f86f528568eef2ef237df761d62",
                    "revert": false,
                    "revertMessage": "",
                    "selector": "0xc4552791",
                    "status": true,
                    "value": "0"
                },
                "nodeType": 0
            },
            "3": {
                "invocation": {
                    "address": "0xa5409ec958c83c3f309868babaca7c86dcb077c1",
                    "callData": "0x",
                    "decodedMethod": {
                        "callParams": [],
                        "constructorArguments": "",
                        "name": "delegateProxyImplementation",
                        "returnParams": [
                            {
                                "name": "",
                                "type": "address",
                                "value": "0xf9e266af4bca5890e2781812cc6a6e89495a79f2"
                            }
                        ],
                        "signature": "delegateProxyImplementation()"
                    },
                    "errorInfo": "",
                    "fromAddress": "0x7be8076f4ea4a4ad08075c2508e481d6c946d12b",
                    "gasUsed": 2613,
                    "id": 3,
                    "methodDecoded": true,
                    "operation": "CALL",
                    "output": "0x000000000000000000000000f9e266af4bca5890e2781812cc6a6e89495a79f2",
                    "revert": false,
                    "revertMessage": "",
                    "selector": "0x97204d8e",
                    "status": true,
                    "value": "0"
                },
                "nodeType": 0
            },
            "4": {
                "invocation": {
                    "address": "0x530967edb5ea4f86f528568eef2ef237df761d62",
                    "callData": "0x",
                    "decodedMethod": {
                        "callParams": [],
                        "constructorArguments": "",
                        "name": "implementation",
                        "returnParams": [
                            {
                                "name": "",
                                "type": "address",
                                "value": "0xf9e266af4bca5890e2781812cc6a6e89495a79f2"
                            }
                        ],
                        "signature": "implementation()"
                    },
                    "errorInfo": "",
                    "fromAddress": "0x7be8076f4ea4a4ad08075c2508e481d6c946d12b",
                    "gasUsed": 2525,
                    "id": 4,
                    "methodDecoded": true,
                    "operation": "CALL",
                    "output": "0x000000000000000000000000f9e266af4bca5890e2781812cc6a6e89495a79f2",
                    "revert": false,
                    "revertMessage": "",
                    "selector": "0x5c60da1b",
                    "status": true,
                    "value": "0"
                },
                "nodeType": 0
            },
            "5": {
                "invocation": {
                    "address": "0x5b3256965e7c3cf26e11fcaf296dfc8807c01073",
                    "callData": "0x",
                    "decodedMethod": null,
                    "errorInfo": "",
                    "fromAddress": "0x7be8076f4ea4a4ad08075c2508e481d6c946d12b",
                    "gasUsed": 0,
                    "id": 5,
                    "methodDecoded": false,
                    "operation": "CALL",
                    "output": "",
                    "revert": false,
                    "revertMessage": "",
                    "selector": "fallback",
                    "status": true,
                    "value": "0.0037375"
                },
                "nodeType": 0
            },
            "6": {
                "invocation": {
                    "address": "0xd2e5b54b99b79ae29cefb275930a1e7abecf0366",
                    "callData": "0x",
                    "decodedMethod": null,
                    "errorInfo": "",
                    "fromAddress": "0x7be8076f4ea4a4ad08075c2508e481d6c946d12b",
                    "gasUsed": 0,
                    "id": 6,
                    "methodDecoded": false,
                    "operation": "CALL",
                    "output": "",
                    "revert": false,
                    "revertMessage": "",
                    "selector": "fallback",
                    "status": true,
                    "value": "0.0261625"
                },
                "nodeType": 0
            },
            "7": {
                "invocation": {
                    "address": "0x530967edb5ea4f86f528568eef2ef237df761d62",
                    "callData": "0x000000000000000000000000cf23d21ffcf04585898a3d2c255c7116193785a500000000000000000000000000000000000000000000000000000000000000000000000000000000000000000000000000000000000000000000000000000060000000000000000000000000000000000000000000000000000000000000006423b872dd000000000000000000000000d2e5b54b99b79ae29cefb275930a1e7abecf03660000000000000000000000006b3ae4dd41205d66549662ccf32fff6da8fe9e31000000000000000000000000000000000000000000000000000000000000035f00000000000000000000000000000000000000000000000000000000",
                    "decodedMethod": {
                        "callParams": [
                            {
                                "name": "dest",
                                "type": "address",
                                "value": "0xcf23d21ffcf04585898a3d2c255c7116193785a5"
                            },
                            {
                                "name": "howToCall",
                                "type": "uint8",
                                "value": "0"
                            },
                            {
                                "name": "calldata",
                                "type": "bytes",
                                "value": "0x23b872dd000000000000000000000000d2e5b54b99b79ae29cefb275930a1e7abecf03660000000000000000000000006b3ae4dd41205d66549662ccf32fff6da8fe9e31000000000000000000000000000000000000000000000000000000000000035f"
                            }
                        ],
                        "constructorArguments": "",
                        "name": "proxy",
                        "returnParams": [
                            {
                                "name": "result",
                                "type": "bool",
                                "value": true
                            }
                        ],
                        "signature": "proxy(address,uint8,bytes)"
                    },
                    "errorInfo": "",
                    "fromAddress": "0x7be8076f4ea4a4ad08075c2508e481d6c946d12b",
                    "gasUsed": 99320,
                    "id": 7,
                    "methodDecoded": true,
                    "operation": "CALL",
                    "output": "0x0000000000000000000000000000000000000000000000000000000000000001",
                    "revert": false,
                    "revertMessage": "",
                    "selector": "0x1b0f7ba9",
                    "status": true,
                    "value": "0"
                },
                "nodeType": 0
            },
            "8": {
                "invocation": {
                    "address": "0xf9e266af4bca5890e2781812cc6a6e89495a79f2",
                    "callData": "0x000000000000000000000000cf23d21ffcf04585898a3d2c255c7116193785a500000000000000000000000000000000000000000000000000000000000000000000000000000000000000000000000000000000000000000000000000000060000000000000000000000000000000000000000000000000000000000000006423b872dd000000000000000000000000d2e5b54b99b79ae29cefb275930a1e7abecf03660000000000000000000000006b3ae4dd41205d66549662ccf32fff6da8fe9e31000000000000000000000000000000000000000000000000000000000000035f00000000000000000000000000000000000000000000000000000000",
                    "decodedMethod": {
                        "callParams": [
                            {
                                "name": "dest",
                                "type": "address",
                                "value": "0xcf23d21ffcf04585898a3d2c255c7116193785a5"
                            },
                            {
                                "name": "howToCall",
                                "type": "uint8",
                                "value": "0"
                            },
                            {
                                "name": "calldata",
                                "type": "bytes",
                                "value": "0x23b872dd000000000000000000000000d2e5b54b99b79ae29cefb275930a1e7abecf03660000000000000000000000006b3ae4dd41205d66549662ccf32fff6da8fe9e31000000000000000000000000000000000000000000000000000000000000035f"
                            }
                        ],
                        "constructorArguments": "",
                        "name": "proxy",
                        "returnParams": [
                            {
                                "name": "result",
                                "type": "bool",
                                "value": true
                            }
                        ],
                        "signature": "proxy(address,uint8,bytes)"
                    },
                    "errorInfo": "",
                    "fromAddress": "0x530967edb5ea4f86f528568eef2ef237df761d62",
                    "gasUsed": 96060,
                    "id": 8,
                    "methodDecoded": true,
                    "operation": "DELEGATECALL",
                    "output": "0x0000000000000000000000000000000000000000000000000000000000000001",
                    "revert": false,
                    "revertMessage": "",
                    "selector": "0x1b0f7ba9",
                    "status": true,
                    "value": "0"
                },
                "nodeType": 0
            },
            "9": {
                "invocation": {
                    "address": "0xa5409ec958c83c3f309868babaca7c86dcb077c1",
                    "callData": "0x0000000000000000000000007be8076f4ea4a4ad08075c2508e481d6c946d12b",
                    "decodedMethod": {
                        "callParams": [
                            {
                                "name": "",
                                "type": "address",
                                "value": "0x7be8076f4ea4a4ad08075c2508e481d6c946d12b"
                            }
                        ],
                        "constructorArguments": "",
                        "name": "contracts",
                        "returnParams": [
                            {
                                "name": "",
                                "type": "bool",
                                "value": true
                            }
                        ],
                        "signature": "contracts(address)"
                    },
                    "errorInfo": "",
                    "fromAddress": "0x530967edb5ea4f86f528568eef2ef237df761d62",
                    "gasUsed": 2553,
                    "id": 9,
                    "methodDecoded": true,
                    "operation": "CALL",
                    "output": "0x0000000000000000000000000000000000000000000000000000000000000001",
                    "revert": false,
                    "revertMessage": "",
                    "selector": "0x69dc9ff3",
                    "status": true,
                    "value": "0"
                },
                "nodeType": 0
            }
        },
        "gasFlame": [
            {
                "children": [
                    {
                        "children": [
                            {
                                "children": [],
                                "depth": 0,
                                "name": "Initial Gas",
                                "value": 37108
                            },
                            {
                                "children": [
                                    {
                                        "children": [],
                                        "depth": 1,
                                        "name": "ecrecover",
                                        "value": 3000
                                    },
                                    {
                                        "children": [],
                                        "depth": 1,
                                        "name": "proxies",
                                        "value": 2782
                                    },
                                    {
                                        "children": [],
                                        "depth": 1,
                                        "name": "delegateProxyImplementation",
                                        "value": 2613
                                    },
                                    {
                                        "children": [],
                                        "depth": 1,
                                        "name": "implementation",
                                        "value": 2525
                                    },
                                    {
                                        "children": [],
                                        "depth": 1,
                                        "name": "fallback",
                                        "value": 0
                                    },
                                    {
                                        "children": [],
                                        "depth": 1,
                                        "name": "fallback",
                                        "value": 0
                                    },
                                    {
                                        "children": [
                                            {
                                                "children": [
                                                    {
                                                        "children": [],
                                                        "depth": 3,
                                                        "name": "contracts",
                                                        "value": 2553
                                                    },
                                                    {
                                                        "children": [],
                                                        "depth": 3,
                                                        "name": "transferFrom",
                                                        "value": 87163
                                                    }
                                                ],
                                                "depth": 2,
                                                "name": "proxy",
                                                "value": 96060
                                            }
                                        ],
                                        "depth": 1,
                                        "name": "proxy",
                                        "value": 99320
                                    }
                                ],
                                "depth": 0,
                                "name": "Executed Gas",
                                "value": 203042
                            }
                        ],
                        "depth": -1,
                        "name": "Actual Gas Used",
                        "value": 227750
                    },
                    {
                        "children": [],
                        "depth": -1,
                        "name": "Refunded Gas",
                        "value": 12400
                    }
                ],
                "depth": -2,
                "name": "Total Gas",
                "value": 240150
            }
        ],
        "isConfirmed": true,
        "mainTrace": [
            {
                "children": [
                    {
                        "children": [
                            {
                                "children": [],
                                "depth": 1,
                                "id": 1,
                                "order": 1
                            },
                            {
                                "children": [],
                                "depth": 1,
                                "id": 2,
                                "order": 2
                            },
                            {
                                "children": [],
                                "depth": 1,
                                "id": 3,
                                "order": 3
                            },
                            {
                                "children": [],
                                "depth": 1,
                                "id": 4,
                                "order": 4
                            },
                            {
                                "children": [],
                                "depth": 1,
                                "id": 5,
                                "order": 5
                            },
                            {
                                "children": [],
                                "depth": 1,
                                "id": 6,
                                "order": 6
                            },
                            {
                                "children": [
                                    {
                                        "children": [
                                            {
                                                "children": [],
                                                "depth": 3,
                                                "id": 9,
                                                "order": 9
                                            },
                                            {
                                                "children": [
                                                    {
                                                        "children": [],
                                                        "depth": 4,
                                                        "id": 11,
                                                        "order": 11
                                                    },
                                                    {
                                                        "children": [],
                                                        "depth": 4,
                                                        "id": 12,
                                                        "order": 12
                                                    }
                                                ],
                                                "depth": 3,
                                                "id": 10,
                                                "order": 10
                                            }
                                        ],
                                        "depth": 2,
                                        "id": 8,
                                        "order": 8
                                    }
                                ],
                                "depth": 1,
                                "id": 7,
                                "order": 7
                            },
                            {
                                "children": [],
                                "depth": 1,
                                "id": 13,
                                "order": 13
                            }
                        ],
                        "depth": 0,
                        "id": 0,
                        "order": 0
                    }
                ],
                "depth": -1,
                "id": -1,
                "order": -1
            }
        ],
        "mainTraceNodeCount": 14,
        "parentIdMap": {
            "0": -1,
            "1": 0,
            "10": 8,
            "11": 10,
            "12": 10,
            "13": 0,
            "2": 0,
            "3": 0,
            "4": 0,
            "5": 0,
            "6": 0,
            "7": 0,
            "8": 7,
            "9": 8
        },
        "tidyTrace": [
            {
                "children": [
                    {
                        "children": [
                            {
                                "children": [],
                                "depth": 1,
                                "id": 1,
                                "order": 1
                            },
                            {
                                "children": [],
                                "depth": 1,
                                "id": 2,
                                "order": 2
                            },
                            {
                                "children": [],
                                "depth": 1,
                                "id": 3,
                                "order": 3
                            },
                            {
                                "children": [],
                                "depth": 1,
                                "id": 4,
                                "order": 4
                            },
                            {
                                "children": [],
                                "depth": 1,
                                "id": 5,
                                "order": 5
                            },
                            {
                                "children": [],
                                "depth": 1,
                                "id": 6,
                                "order": 6
                            },
                            {
                                "children": [
                                    {
                                        "children": [
                                            {
                                                "children": [],
                                                "depth": 3,
                                                "id": 9,
                                                "order": 9
                                            },
                                            {
                                                "children": [
                                                    {
                                                        "children": [],
                                                        "depth": 4,
                                                        "id": 11,
                                                        "order": 11
                                                    },
                                                    {
                                                        "children": [],
                                                        "depth": 4,
                                                        "id": 12,
                                                        "order": 12
                                                    }
                                                ],
                                                "depth": 3,
                                                "id": 10,
                                                "order": 10
                                            }
                                        ],
                                        "depth": 2,
                                        "id": 8,
                                        "order": 8
                                    }
                                ],
                                "depth": 1,
                                "id": 7,
                                "order": 7
                            },
                            {
                                "children": [],
                                "depth": 1,
                                "id": 13,
                                "order": 13
                            }
                        ],
                        "depth": 0,
                        "id": 0,
                        "order": 0
                    }
                ],
                "depth": -1,
                "id": -1,
                "order": -1
            }
        ],
        "tidyTraceNodeCount": 14
    },
    "state_change": {
        "stateChanges": [
            {
                "address": "0x7be8076f4ea4a4ad08075c2508e481d6c946d12b",
                "erc": "",
                "slots": [
                    {
                        "current": "0x0000000000000000000000000000000000000000000000000000000000000001",
                        "key": "0x383cbf5db6264af3662c33922e47fad4ce99072cff495921bd6cdec09ffe88cb",
                        "prev": "0x0000000000000000000000000000000000000000000000000000000000000000"
                    }
                ],
                "storageVariables": [
                    {
                        "name": "cancelledOrFinalized",
                        "type": "mapping(bytes32 => bool)",
                        "value": {
                            "pairs": [
                                {
                                    "key": "0x841eff2d42410637357acdfc8d5f88a70d1b9204f56099244fe1449020df36ed",
                                    "value": {
                                        "current": "true",
                                        "prev": "false",
                                        "typeTag": 1
                                    }
                                }
                            ],
                            "typeTag": 4
                        }
                    }
                ]
            },
            {
                "address": "0xcf23d21ffcf04585898a3d2c255c7116193785a5",
                "erc": "ERC-721",
                "slots": [
                    {
                        "current": "0x0000000000000000000000000000000000000000000000000000000000000001",
                        "key": "0x30311553eaf544e03fe6287b06132fafa1d041be15528588dbb610503799811a",
                        "prev": "0x0000000000000000000000000000000000000000000000000000000000000004"
                    },
                    {
                        "current": "0x0000000000000000000000000000000000000000000000000000000000000000",
                        "key": "0xa30b7bf4204967a39056db4b9aefb7e54c1dac814a1391a73d1c3235d100424c",
                        "prev": "0x0000000000000000000000000000000000000000000000000000000000000001"
                    },
                    {
                        "current": "0x0000000000000000000000000000000000000000000000000000000000000000",
                        "key": "0xb354b78f0d626b7f1351e7c3008cd7efc63204320a67ad46c1f96a146f48e713",
                        "prev": "0x0000000000000000000000000000000000000000000000000000000000000228"
                    },
                    {
                        "current": "0x000000000000000000000000000000000000000000000000000000000000035f",
                        "key": "0x7c4cd79d32e9b8b550a837d277c6bd89276c7b1dca31b9f594de31a302e67898",
                        "prev": "0x0000000000000000000000000000000000000000000000000000000000000000"
                    },
                    {
                        "current": "0x0000000000000000000000000000000000000000000000000000000000000004",
                        "key": "0x39e8c10d2546878cb3d772ce2b5b23cc6c22623719fab86fbfce998cb9ef2ccc",
                        "prev": "0x0000000000000000000000000000000000000000000000000000000000000005"
                    },
                    {
                        "current": "0x0000000000000000000000000000000000000000000000000000000000000001",
                        "key": "0xc790b9770f3a09c6e614bc2206a16ac5d9b7e105959b1b13c741709a4b677259",
                        "prev": "0x0000000000000000000000000000000000000000000000000000000000000000"
                    },
                    {
                        "current": "0x0000000000000000000000006b3ae4dd41205d66549662ccf32fff6da8fe9e31",
                        "key": "0x8944acdce973ad33374f0535d59a17302024613a5593c9597b263a0ee81c3c5d",
                        "prev": "0x000000000000000000000000d2e5b54b99b79ae29cefb275930a1e7abecf0366"
                    },
                    {
                        "current": "0x0000000000000000000000000000000000000000000000000000000000000228",
                        "key": "0xf95a9cd5bf20fe1c1f6d223adf367d01b69d88638449b946c684ca45b34971c9",
                        "prev": "0x000000000000000000000000000000000000000000000000000000000000035f"
                    }
                ],
                "storageVariables": [
                    {
                        "name": "_ownedTokensIndex",
                        "type": "mapping(uint256 => uint256)",
                        "value": {
                            "pairs": [
                                {
                                    "key": "552",
                                    "value": {
                                        "current": "1",
                                        "prev": "4",
                                        "typeTag": 1
                                    }
                                },
                                {
                                    "key": "863",
                                    "value": {
                                        "current": "0",
                                        "prev": "1",
                                        "typeTag": 1
                                    }
                                }
                            ],
                            "typeTag": 4
                        }
                    },
                    {
                        "name": "_ownedTokens",
                        "type": "mapping(address => mapping(uint256 => uint256))",
                        "value": {
                            "pairs": [
                                {
                                    "key": "0x6b3ae4dd41205d66549662ccf32fff6da8fe9e31",
                                    "value": {
                                        "pairs": [
                                            {
                                                "key": "0",
                                                "value": {
                                                    "current": "863",
                                                    "prev": "0",
                                                    "typeTag": 1
                                                }
                                            }
                                        ],
                                        "typeTag": 4
                                    }
                                },
                                {
                                    "key": "0xd2e5b54b99b79ae29cefb275930a1e7abecf0366",
                                    "value": {
                                        "pairs": [
                                            {
                                                "key": "1",
                                                "value": {
                                                    "current": "552",
                                                    "prev": "863",
                                                    "typeTag": 1
                                                }
                                            },
                                            {
                                                "key": "4",
                                                "value": {
                                                    "current": "0",
                                                    "prev": "552",
                                                    "typeTag": 1
                                                }
                                            }
                                        ],
                                        "typeTag": 4
                                    }
                                }
                            ],
                            "typeTag": 4
                        }
                    },
                    {
                        "name": "_balances",
                        "type": "mapping(address => uint256)",
                        "value": {
                            "pairs": [
                                {
                                    "key": "0x6b3ae4dd41205d66549662ccf32fff6da8fe9e31",
                                    "value": {
                                        "current": "1",
                                        "prev": "0",
                                        "typeTag": 1
                                    }
                                },
                                {
                                    "key": "0xd2e5b54b99b79ae29cefb275930a1e7abecf0366",
                                    "value": {
                                        "current": "4",
                                        "prev": "5",
                                        "typeTag": 1
                                    }
                                }
                            ],
                            "typeTag": 4
                        }
                    },
                    {
                        "name": "_owners",
                        "type": "mapping(uint256 => address)",
                        "value": {
                            "pairs": [
                                {
                                    "key": "863",
                                    "value": {
                                        "current": "0x6b3ae4dd41205d66549662ccf32fff6da8fe9e31",
                                        "prev": "0xd2e5b54b99b79ae29cefb275930a1e7abecf0366",
                                        "typeTag": 1
                                    }
                                }
                            ],
                            "typeTag": 4
                        }
                    }
                ]
            }
        ]
    }
}