{
    "balance_change": {
        "balanceChanges": []
    },
    "profile": {
        "basic_info": {
            "baseFee": "",
            "blockNumber": 9427815,
            "callData": "0xe7ec73430000000000000000000000000000000000000000000000000000000000000001",
            "debugEnable": true,
            "errorInfo": "",
            "eventCount": 0,
            "feeRecipient": "0xea674fdde714fd979de3edf0f56aa9716b898ec8",
            "formatValue": "0",
            "gasLimit": 60000,
            "gasPrice": "4.3312885",
            "gasUsed": 17357,
            "intTxnCount": 2,
            "internalRevert": false,
            "internalRevertMessage": "",
            "isContractCreation": false,
            "isFlashloan": false,
            "maxFee": "",
            "nonce": 6398,
            "overwritedBlockNumber": -1,
            "priorityFee": "",
            "receiver": "0x8018280076d7fa2caa1147e441352e8a89e1ddbe",
            "revertMessage": "",
            "sender": "0xffdce1ae835d35bb603c95163e510bb2604a1a41",
            "simulationEnable": true,
            "sourceTxnHash": "0xb920c2511b2c6060e588bfd382d7effa86508d33850cad3bfbe40542f687eb03",
            "status": true,
            "timestamp": "2020-02-06T07:43:25Z",
            "transactionFee": "0.0000751781744945",
            "txnHash": "0xb920c2511b2c6060e588bfd382d7effa86508d33850cad3bfbe40542f687eb03",
            "txnIndex": 35,
            "type": 0,
            "value": "0"
        },
        "fund_flow": [],
        "token_infos": [
            {
                "address": "0xc02aaa39b223fe8d0a0e5c4f27ead9083c756cc2",
                "decimals": 18
            },
            {
                "address": "0xeeeeeeeeeeeeeeeeeeeeeeeeeeeeeeeeeeeeeeee",
                "decimals": 18
            }
        ]
    },
    "address_label": {
        "labels": [
            {
                "address": "0xeeeeeeeeeeeeeeeeeeeeeeeeeeeeeeeeeeeeeeee",
                "label": "Ether"
            },
            {
                "address": "0x0000000000000000000000000000000000000001",
                "label": "Precompiled"
            },
            {
                "address": "0x0000000000000000000000000000000000000002",
                "label": "Precompiled"
            },
            {
                "address": "0x0000000000000000000000000000000000000003",
                "label": "Precompiled"
            },
            {
                "address": "0x0000000000000000000000000000000000000004",
                "label": "Precompiled"
            }
        ]
    },
    "trace": {
        "accountLabels": null,
        "dataMap": {
            "-1": {
                "invocation": {
                    "address": "0xffdce1ae835d35bb603c95163e510bb2604a1a41",
                    "callData": "",
                    "decodedMethod": null,
                    "errorInfo": "",
                    "fromAddress": "",
                    "gasUsed": 0,
                    "id": -1,
                    "methodDecoded": false,
                    "operation": "",
                    "output": "",
                    "revert": false,
                    "revertMessage": "",
                    "selector": "",
                    "status": false,
                    "value": ""
                },
                "nodeType": 0
            },
            "0": {
                "invocation": {
                    "address": "0x8018280076d7fa2caa1147e441352e8a89e1ddbe",
                    "callData": "0x0000000000000000000000000000000000000000000000000000000000000001",
                    "decodedMethod": {
                        "callParams": [
                            {
                                "name": "_cancelled",
                                "type": "bool",
                                "value": true
                            }
                        ],
                        "constructorArguments": "",
                        "name": "cancel",
                        "returnParams": [],
                        "signature": "cancel(bool)"
                    },
                    "errorInfo": "",
                    "fromAddress": "0xffdce1ae835d35bb603c95163e510bb2604a1a41",
                    "gasUsed": 17357,
                    "id": 0,
                    "methodDecoded": true,
                    "operation": "CALL",
                    "output": "",
                    "revert": false,
                    "revertMessage": "",
                    "selector": "0xe7ec7343",
                    "status": true,
                    "value": "0"
                },
                "nodeType": 0
            },
            "1": {
                "invocation": {
                    "address": "0xd5881acf182d1ff6770de19e2198d623550fdc79",
                    "callData": "0x",
                    "decodedMethod": null,
                    "errorInfo": "",
                    "fromAddress": "0x8018280076d7fa2caa1147e441352e8a89e1ddbe",
                    "gasUsed": 5022,
                    "id": 1,
                    "methodDecoded": false,
                    "operation": "CALL",
                    "output": "",
                    "revert": false,
                    "revertMessage": "",
                    "selector": "fallback",
                    "status": true,
                    "value": "0"
                },
                "nodeType": 0
            },
            "2": {
                "invocation": {
                    "address": "0x8018280076d7fa2caa1147e441352e8a89e1ddbe",
                    "callData": "",
                    "decodedMethod": null,
                    "errorInfo": "",
                    "fromAddress": "0xd5881acf182d1ff6770de19e2198d623550fdc79",
                    "gasUsed": 0,
                    "id": 2,
                    "methodDecoded": false,
                    "operation": "SELFDESTRUCT",
                    "output": "",
                    "revert": false,
                    "revertMessage": "",
                    "selector": "",
                    "status": true,
                    "value": "0"
                },
                "nodeType": 0
            }
        },
        "gasFlame": [
            {
                "children": [
                    {
                        "children": [
                            {
                                "children": [],
                                "depth": 0,
                                "name": "Initial Gas",
                                "value": 21204
                            },
                            {
                                "children": [
                                    {
                                        "children": [
                                            {
                                                "children": [],
                                                "depth": 2,
                                                "name": "",
                                                "value": 0
                                            }
                                        ],
                                        "depth": 1,
                                        "name": "fallback",
                                        "value": 5022
                                    }
                                ],
                                "depth": 0,
                                "name": "Executed Gas",
                                "value": 13509
                            }
                        ],
                        "depth": -1,
                        "name": "Actual Gas Used",
                        "value": 17357
                    },
                    {
                        "children": [],
                        "depth": -1,
                        "name": "Refunded Gas",
                        "value": 17356
                    }
                ],
                "depth": -2,
                "name": "Total Gas",
                "value": 34713
            }
        ],
        "isConfirmed": true,
        "mainTrace": [
            {
                "children": [
                    {
                        "children": [
                            {
                                "children": [
                                    {
                                        "children": [],
                                        "depth": 2,
                                        "id": 2,
                                        "order": 2
                                    }
                                ],
                                "depth": 1,
                                "id": 1,
                                "order": 1
                            }
                        ],
                        "depth": 0,
                        "id": 0,
                        "order": 0
                    }
                ],
                "depth": -1,
                "id": -1,
                "order": -1
            }
        ],
        "mainTraceNodeCount": 3,
        "parentIdMap": {
            "0": -1,
            "1": 0,
            "2": 1
        },
        "tidyTrace": [
            {
                "children": [
                    {
                        "children": [
                            {
                                "children": [
                                    {
                                        "children": [],
                                        "depth": 2,
                                        "id": 2,
                                        "order": 2
                                    }
                                ],
                                "depth": 1,
                                "id": 1,
                                "order": 1
                            }
                        ],
                        "depth": 0,
                        "id": 0,
                        "order": 0
                    }
                ],
                "depth": -1,
                "id": -1,
                "order": -1
            }
        ],
        "tidyTraceNodeCount": 3
    },
    "state_change": {
        "stateChanges": [
            {
                "address": "0x8018280076d7fa2caa1147e441352e8a89e1ddbe",
                "erc": "",
                "slots": [
                    {
                        "current": "0x000000000000000000000000000000000000000000000000000000000005d5c0",
                        "key": "0x0000000000000000000000000000000000000000000000000000000000000032",
                        "prev": "0x000000000000000000000000000000000000000000000000000000000005d5bf"
                    }
                ],
                "storageVariables": []
            }
        ]
    }
}