{
    "balance_change": {
        "balanceChanges": [
            {
                "account": "0xa059ba7186aa5634c48fcb458b8cdb940237933f",
                "assets": [
                    {
                        "address": "0x504b60a4133699c7056b58d3fe11ea73865a2d65",
                        "amount": "158.73015873",
                        "iconUrl": "",
                        "isERC1155": false,
                        "isERC721": false,
                        "sign": false,
                        "value": ""
                    }
                ]
            },
            {
                "account": "0x0664caf07f66318ddd9cb4f7a2368638f39c4d28",
                "assets": [
                    {
                        "address": "0x504b60a4133699c7056b58d3fe11ea73865a2d65",
                        "amount": "158.73015873",
                        "iconUrl": "",
                        "isERC1155": false,
                        "isERC721": false,
                        "sign": true,
                        "value": ""
                    }
                ]
            }
        ]
    },
    "profile": {
        "basic_info": {
            "baseFee": "",
            "blockNumber": 10477349,
            "callData": "0xa9059cbb0000000000000000000000000664caf07f66318ddd9cb4f7a2368638f39c4d2800000000000000000000000000000000000000000000000000000003b21b0041",
            "debugEnable": true,
            "errorInfo": "",
            "eventCount": 1,
            "feeRecipient": "0x52bc44d5378309ee2abf1539bf71de1b7d7be3b5",
            "formatValue": "0",
            "gasLimit": 80000,
            "gasPrice": "64",
            "gasUsed": 36273,
            "intTxnCount": 0,
            "internalRevert": false,
            "internalRevertMessage": "",
            "isContractCreation": false,
            "isFlashloan": false,
            "maxFee": "",
            "nonce": 3980,
            "overwritedBlockNumber": -1,
            "priorityFee": "",
            "receiver": "0x504b60a4133699c7056b58d3fe11ea73865a2d65",
            "revertMessage": "",
            "sender": "0xa059ba7186aa5634c48fcb458b8cdb940237933f",
            "simulationEnable": true,
            "sourceTxnHash": "0xb9843eb940346b4be0624687a8511c4ca27acb167a8e724772a6785ddfafd24c",
            "status": true,
            "timestamp": "2020-07-17T13:52:39Z",
            "transactionFee": "0.002321472",
            "txnHash": "0xb9843eb940346b4be0624687a8511c4ca27acb167a8e724772a6785ddfafd24c",
            "txnIndex": 68,
            "type": 0,
            "value": "0"
        },
        "fund_flow": [
            {
                "amount": "158.73015873",
                "from": "0xa059ba7186aa5634c48fcb458b8cdb940237933f",
                "id": 1,
                "isERC1155": false,
                "isERC721": false,
                "isReverted": false,
                "order": 1,
                "to": "0x0664caf07f66318ddd9cb4f7a2368638f39c4d28",
                "token": "0x504b60a4133699c7056b58d3fe11ea73865a2d65"
            }
        ],
        "token_infos": [
            {
                "address": "0x504b60a4133699c7056b58d3fe11ea73865a2d65",
                "decimals": 8
            },
            {
                "address": "0xc02aaa39b223fe8d0a0e5c4f27ead9083c756cc2",
                "decimals": 18
            },
            {
                "address": "0xeeeeeeeeeeeeeeeeeeeeeeeeeeeeeeeeeeeeeeee",
                "decimals": 18
            }
        ]
    },
    "address_label": {
        "labels": [
            {
                "address": "0x0000000000000000000000000000000000000004",
                "label": "Precompiled"
            },
            {
                "address": "0xeeeeeeeeeeeeeeeeeeeeeeeeeeeeeeeeeeeeeeee",
                "label": "Ether"
            },
            {
                "address": "0x504b60a4133699c7056b58d3fe11ea73865a2d65",
                "label": "Capital Coin Extended (CPTLX)"
            },
            {
                "address": "0x0000000000000000000000000000000000000001",
                "label": "Precompiled"
            },
            {
                "address": "0x0000000000000000000000000000000000000002",
                "label": "Precompiled"
            },
            {
                "address": "0x0000000000000000000000000000000000000003",
                "label": "Precompiled"
            }
        ]
    },
    "trace": {
        "accountLabels": null,
        "dataMap": {
            "-1": {
                "invocation": {
                    "address": "0xa059ba7186aa5634c48fcb458b8cdb940237933f",
                    "callData": "",
                    "decodedMethod": null,
                    "errorInfo": "",
                    "fromAddress": "",
                    "gasUsed": 0,
                    "id": -1,
                    "methodDecoded": false,
                    "operation": "",
                    "output": "",
                    "revert": false,
                    "revertMessage": "",
                    "selector": "",
                    "status": false,
                    "value": ""
                },
                "nodeType": 0
            },
            "0": {
                "invocation": {
                    "address": "0x504b60a4133699c7056b58d3fe11ea73865a2d65",
                    "callData": "0x0000000000000000000000000664caf07f66318ddd9cb4f7a2368638f39c4d2800000000000000000000000000000000000000000000000000000003b21b0041",
                    "decodedMethod": {
                        "callParams": [
                            {
                                "name": "to",
                                "type": "address",
                                "value": "0x0664caf07f66318ddd9cb4f7a2368638f39c4d28"
                            },
                            {
                                "decimalAvailable": true,
                                "name": "tokens",
                                "type": "uint256",
                                "value": "15,873,015,873"
                            }
                        ],
                        "constructorArguments": "",
                        "name": "transfer",
                        "returnParams": [
                            {
                                "name": "success",
                                "type": "bool",
                                "value": true
                            }
                        ],
                        "signature": "transfer(address,uint256)"
                    },
                    "errorInfo": "",
                    "fromAddress": "0xa059ba7186aa5634c48fcb458b8cdb940237933f",
                    "gasUsed": 36273,
                    "id": 0,
                    "methodDecoded": true,
                    "operation": "CALL",
                    "output": "0x0000000000000000000000000000000000000000000000000000000000000001",
                    "revert": false,
                    "revertMessage": "",
                    "selector": "0xa9059cbb",
                    "status": true,
                    "value": "0"
                },
                "nodeType": 0
            },
            "1": {
                "event": {
                    "contract": "0x504b60a4133699c7056b58d3fe11ea73865a2d65",
                    "decodedLog": {
                        "name": "Transfer",
                        "params": [
                            {
                                "name": "from",
                                "type": "address",
                                "value": "0xa059ba7186aa5634c48fcb458b8cdb940237933f"
                            },
                            {
                                "name": "to",
                                "type": "address",
                                "value": "0x0664caf07f66318ddd9cb4f7a2368638f39c4d28"
                            },
                            {
                                "decimalAvailable": true,
                                "name": "tokens",
                                "type": "uint256",
                                "value": "15,873,015,873"
                            }
                        ],
                        "signature": "Transfer(address,address,uint256)"
                    },
                    "id": 1,
                    "logData": "0x00000000000000000000000000000000000000000000000000000003b21b0041",
                    "logDecoded": true,
                    "operation": "EVENT",
                    "revert": false,
                    "status": true,
                    "topics": [
                        "0xddf252ad1be2c89b69c2b068fc378daa952ba7f163c4a11628f55a4df523b3ef",
                        "0x000000000000000000000000a059ba7186aa5634c48fcb458b8cdb940237933f",
                        "0x0000000000000000000000000664caf07f66318ddd9cb4f7a2368638f39c4d28"
                    ]
                },
                "nodeType": 1
            }
        },
        "gasFlame": [
            {
                "children": [
                    {
                        "children": [
                            {
                                "children": [],
                                "depth": 0,
                                "name": "Initial Gas",
                                "value": 21608
                            },
                            {
                                "children": [],
                                "depth": 0,
                                "name": "Executed Gas",
                                "value": 14665
                            }
                        ],
                        "depth": -1,
                        "name": "Actual Gas Used",
                        "value": 36273
                    },
                    {
                        "children": [],
                        "depth": -1,
                        "name": "Refunded Gas",
                        "value": 0
                    }
                ],
                "depth": -2,
                "name": "Total Gas",
                "value": 36273
            }
        ],
        "isConfirmed": true,
        "mainTrace": [
            {
                "children": [
                    {
                        "children": [
                            {
                                "children": [],
                                "depth": 1,
                                "id": 1,
                                "order": 1
                            }
                        ],
                        "depth": 0,
                        "id": 0,
                        "order": 0
                    }
                ],
                "depth": -1,
                "id": -1,
                "order": -1
            }
        ],
        "mainTraceNodeCount": 2,
        "parentIdMap": {
            "0": -1,
            "1": 0
        },
        "tidyTrace": [
            {
                "children": [
                    {
                        "children": [
                            {
                                "children": [],
                                "depth": 1,
                                "id": 1,
                                "order": 1
                            }
                        ],
                        "depth": 0,
                        "id": 0,
                        "order": 0
                    }
                ],
                "depth": -1,
                "id": -1,
                "order": -1
            }
        ],
        "tidyTraceNodeCount": 2
    },
    "state_change": {
        "stateChanges": [
            {
                "address": "0x504b60a4133699c7056b58d3fe11ea73865a2d65",
                "erc": "ERC-20",
                "slots": [
                    {
                        "current": "0x00000000000000000000000000000000000000000000000000009bbbfa3d7f87",
                        "key": "0x4663ed8b18d00cd0be3bda85f354beccf48821e1761cc5fb8cf2b35f5049ecae",
                        "prev": "0x00000000000000000000000000000000000000000000000000009bbfac587fc8"
                    },
                    {
                        "current": "0x0000000000000000000000000000000000000000000000000000001a65605b6a",
                        "key": "0x217735f6bd80a0aab257205490c93f06989d375c87636c92322852790ced8c53",
                        "prev": "0x00000000000000000000000000000000000000000000000000000016b3455b29"
                    }
                ],
                "storageVariables": [
                    {
                        "name": "balances",
                        "type": "mapping(address => uint256)",
                        "value": {
                            "pairs": [
                                {
                                    "key": "0x0664caf07f66318ddd9cb4f7a2368638f39c4d28",
                                    "value": {
                                        "current": "113369963370",
                                        "prev": "97496947497",
                                        "typeTag": 1
                                    }
                                },
                                {
                                    "key": "0xa059ba7186aa5634c48fcb458b8cdb940237933f",
                                    "value": {
                                        "current": "171231659523975",
                                        "prev": "171247532539848",
                                        "typeTag": 1
                                    }
                                }
                            ],
                            "typeTag": 4
                        }
                    }
                ]
            }
        ]
    }
}