{
    "balance_change": {
        "balanceChanges": [
            {
                "account": "0x96d94e97593f63ad9feeff793a64d0764569ae44",
                "assets": [
                    {
                        "address": "0xb91318f35bdb262e9423bc7c7c2a3a93dd93c92c",
                        "amount": "703.2",
                        "iconUrl": "",
                        "isERC1155": false,
                        "isERC721": false,
                        "sign": false,
                        "value": ""
                    }
                ]
            },
            {
                "account": "0x61cb6e149253ac91d4020fcb43192f430a82b9a1",
                "assets": [
                    {
                        "address": "0xb91318f35bdb262e9423bc7c7c2a3a93dd93c92c",
                        "amount": "703.2",
                        "iconUrl": "",
                        "isERC1155": false,
                        "isERC721": false,
                        "sign": true,
                        "value": ""
                    }
                ]
            }
        ]
    },
    "profile": {
        "basic_info": {
            "baseFee": "",
            "blockNumber": 5094175,
            "callData": "0xa9059cbb00000000000000000000000061cb6e149253ac91d4020fcb43192f430a82b9a10000000000000000000000000000000000000000000000261edc424966b00000",
            "debugEnable": true,
            "errorInfo": "",
            "eventCount": 1,
            "feeRecipient": "0x829bd824b016326a401d083b33d092293333a830",
            "formatValue": "0",
            "gasLimit": 51639,
            "gasPrice": "4",
            "gasUsed": 51639,
            "intTxnCount": 0,
            "internalRevert": false,
            "internalRevertMessage": "",
            "isContractCreation": false,
            "isFlashloan": false,
            "maxFee": "",
            "nonce": 38,
            "overwritedBlockNumber": -1,
            "priorityFee": "",
            "receiver": "0xb91318f35bdb262e9423bc7c7c2a3a93dd93c92c",
            "revertMessage": "",
            "sender": "0x96d94e97593f63ad9feeff793a64d0764569ae44",
            "simulationEnable": true,
            "sourceTxnHash": "0xb972e5f30b1085bd8f439bff1b4792c955ea8f7e855af209737f67159b849a9f",
            "status": true,
            "timestamp": "2018-02-15T10:32:39Z",
            "transactionFee": "0.000206556",
            "txnHash": "0xb972e5f30b1085bd8f439bff1b4792c955ea8f7e855af209737f67159b849a9f",
            "txnIndex": 142,
            "type": 0,
            "value": "0"
        },
        "fund_flow": [
            {
                "amount": "703.2",
                "from": "0x96d94e97593f63ad9feeff793a64d0764569ae44",
                "id": 1,
                "isERC1155": false,
                "isERC721": false,
                "isReverted": false,
                "order": 1,
                "to": "0x61cb6e149253ac91d4020fcb43192f430a82b9a1",
                "token": "0xb91318f35bdb262e9423bc7c7c2a3a93dd93c92c"
            }
        ],
        "token_infos": [
            {
                "address": "0xeeeeeeeeeeeeeeeeeeeeeeeeeeeeeeeeeeeeeeee",
                "decimals": 18
            },
            {
                "address": "0xb91318f35bdb262e9423bc7c7c2a3a93dd93c92c",
                "decimals": 18
            },
            {
                "address": "0xc02aaa39b223fe8d0a0e5c4f27ead9083c756cc2",
                "decimals": 18
            }
        ]
    },
    "address_label": {
        "labels": [
            {
                "address": "0x0000000000000000000000000000000000000003",
                "label": "Precompiled"
            },
            {
                "address": "0x0000000000000000000000000000000000000004",
                "label": "Precompiled"
            },
            {
                "address": "0xeeeeeeeeeeeeeeeeeeeeeeeeeeeeeeeeeeeeeeee",
                "label": "Ether"
            },
            {
                "address": "0xb91318f35bdb262e9423bc7c7c2a3a93dd93c92c",
                "label": "Nuls: Old NULS Token"
            },
            {
                "address": "0x0000000000000000000000000000000000000001",
                "label": "Precompiled"
            },
            {
                "address": "0x0000000000000000000000000000000000000002",
                "label": "Precompiled"
            }
        ]
    },
    "trace": {
        "accountLabels": null,
        "dataMap": {
            "-1": {
                "invocation": {
                    "address": "0x96d94e97593f63ad9feeff793a64d0764569ae44",
                    "callData": "",
                    "decodedMethod": null,
                    "errorInfo": "",
                    "fromAddress": "",
                    "gasUsed": 0,
                    "id": -1,
                    "methodDecoded": false,
                    "operation": "",
                    "output": "",
                    "revert": false,
                    "revertMessage": "",
                    "selector": "",
                    "status": false,
                    "value": ""
                },
                "nodeType": 0
            },
            "0": {
                "invocation": {
                    "address": "0xb91318f35bdb262e9423bc7c7c2a3a93dd93c92c",
                    "callData": "0x00000000000000000000000061cb6e149253ac91d4020fcb43192f430a82b9a10000000000000000000000000000000000000000000000261edc424966b00000",
                    "decodedMethod": {
                        "callParams": [
                            {
                                "name": "_to",
                                "type": "address",
                                "value": "0x61cb6e149253ac91d4020fcb43192f430a82b9a1"
                            },
                            {
                                "decimalAvailable": true,
                                "name": "_value",
                                "type": "uint256",
                                "value": "703,200,000,000,000,000,000"
                            }
                        ],
                        "constructorArguments": "",
                        "name": "transfer",
                        "returnParams": [
                            {
                                "name": "success",
                                "type": "bool",
                                "value": true
                            }
                        ],
                        "signature": "transfer(address,uint256)"
                    },
                    "errorInfo": "",
                    "fromAddress": "0x96d94e97593f63ad9feeff793a64d0764569ae44",
                    "gasUsed": 51639,
                    "id": 0,
                    "methodDecoded": true,
                    "operation": "CALL",
                    "output": "0x0000000000000000000000000000000000000000000000000000000000000001",
                    "revert": false,
                    "revertMessage": "",
                    "selector": "0xa9059cbb",
                    "status": true,
                    "value": "0"
                },
                "nodeType": 0
            },
            "1": {
                "event": {
                    "contract": "0xb91318f35bdb262e9423bc7c7c2a3a93dd93c92c",
                    "decodedLog": {
                        "name": "Transfer",
                        "params": [
                            {
                                "name": "_from",
                                "type": "address",
                                "value": "0x96d94e97593f63ad9feeff793a64d0764569ae44"
                            },
                            {
                                "name": "_to",
                                "type": "address",
                                "value": "0x61cb6e149253ac91d4020fcb43192f430a82b9a1"
                            },
                            {
                                "decimalAvailable": true,
                                "name": "_value",
                                "type": "uint256",
                                "value": "703,200,000,000,000,000,000"
                            }
                        ],
                        "signature": "Transfer(address,address,uint256)"
                    },
                    "id": 1,
                    "logData": "0x0000000000000000000000000000000000000000000000261edc424966b00000",
                    "logDecoded": true,
                    "operation": "EVENT",
                    "revert": false,
                    "status": true,
                    "topics": [
                        "0xddf252ad1be2c89b69c2b068fc378daa952ba7f163c4a11628f55a4df523b3ef",
                        "0x00000000000000000000000096d94e97593f63ad9feeff793a64d0764569ae44",
                        "0x00000000000000000000000061cb6e149253ac91d4020fcb43192f430a82b9a1"
                    ]
                },
                "nodeType": 1
            }
        },
        "gasFlame": [
            {
                "children": [
                    {
                        "children": [
                            {
                                "children": [],
                                "depth": 0,
                                "name": "Initial Gas",
                                "value": 23256
                            },
                            {
                                "children": [],
                                "depth": 0,
                                "name": "Executed Gas",
                                "value": 28383
                            }
                        ],
                        "depth": -1,
                        "name": "Actual Gas Used",
                        "value": 51639
                    },
                    {
                        "children": [],
                        "depth": -1,
                        "name": "Refunded Gas",
                        "value": 0
                    }
                ],
                "depth": -2,
                "name": "Total Gas",
                "value": 51639
            }
        ],
        "isConfirmed": true,
        "mainTrace": [
            {
                "children": [
                    {
                        "children": [
                            {
                                "children": [],
                                "depth": 1,
                                "id": 1,
                                "order": 1
                            }
                        ],
                        "depth": 0,
                        "id": 0,
                        "order": 0
                    }
                ],
                "depth": -1,
                "id": -1,
                "order": -1
            }
        ],
        "mainTraceNodeCount": 2,
        "parentIdMap": {
            "0": -1,
            "1": 0
        },
        "tidyTrace": [
            {
                "children": [
                    {
                        "children": [
                            {
                                "children": [],
                                "depth": 1,
                                "id": 1,
                                "order": 1
                            }
                        ],
                        "depth": 0,
                        "id": 0,
                        "order": 0
                    }
                ],
                "depth": -1,
                "id": -1,
                "order": -1
            }
        ],
        "tidyTraceNodeCount": 2
    },
    "state_change": {
        "stateChanges": [
            {
                "address": "0xb91318f35bdb262e9423bc7c7c2a3a93dd93c92c",
                "erc": "ERC-20",
                "slots": [
                    {
                        "current": "0x0000000000000000000000000000000000000000000000261edc424966b00000",
                        "key": "0x5879d03983a8033941ed26abf3dc6409d390a48c0f1a23ac78f1464215cca4b6",
                        "prev": "0x00000000000000000000000000000000000000000000004c3db88492cd600000"
                    },
                    {
                        "current": "0x0000000000000000000000000000000000000000000000261edc424966b00000",
                        "key": "0x6017ab80483a51d5a70df19ab017f18c6149c8513709afbaa48c870d704c9b2e",
                        "prev": "0x0000000000000000000000000000000000000000000000000000000000000000"
                    }
                ],
                "storageVariables": [
                    {
                        "name": "balances",
                        "type": "mapping(address => uint256)",
                        "value": {
                            "pairs": [
                                {
                                    "key": "0x61cb6e149253ac91d4020fcb43192f430a82b9a1",
                                    "value": {
                                        "current": "703200000000000000000",
                                        "prev": "0",
                                        "typeTag": 1
                                    }
                                },
                                {
                                    "key": "0x96d94e97593f63ad9feeff793a64d0764569ae44",
                                    "value": {
                                        "current": "703200000000000000000",
                                        "prev": "1406400000000000000000",
                                        "typeTag": 1
                                    }
                                }
                            ],
                            "typeTag": 4
                        }
                    }
                ]
            }
        ]
    }
}