{
    "balance_change": {
        "balanceChanges": [
            {
                "account": "0x21a31ee1afc51d94c2efccaa2092ad1028285549",
                "assets": [
                    {
                        "address": "0xdac17f958d2ee523a2206206994597c13d831ec7",
                        "amount": "307.229583",
                        "iconUrl": "https://assets.blocksec.com/icon/fcea71f3193ce895be44bfdf941f7e4c9381dd587f273c2d1a27f1263d84e4ea.png",
                        "isERC1155": false,
                        "isERC721": false,
                        "sign": false,
                        "value": "307.53681258299996618"
                    }
                ]
            },
            {
                "account": "0xf97fb636aeb9545fe133f78ff9663f18795da8e8",
                "assets": [
                    {
                        "address": "0xdac17f958d2ee523a2206206994597c13d831ec7",
                        "amount": "307.229583",
                        "iconUrl": "https://assets.blocksec.com/icon/fcea71f3193ce895be44bfdf941f7e4c9381dd587f273c2d1a27f1263d84e4ea.png",
                        "isERC1155": false,
                        "isERC721": false,
                        "sign": true,
                        "value": "307.53681258299996618"
                    }
                ]
            }
        ]
    },
    "profile": {
        "basic_info": {
            "baseFee": "16.993022",
            "blockNumber": 16623632,
            "callData": "0xa9059cbb000000000000000000000000f97fb636aeb9545fe133f78ff9663f18795da8e800000000000000000000000000000000000000000000000000000000124ff38f",
            "debugEnable": true,
            "errorInfo": "",
            "eventCount": 1,
            "feeRecipient": "0xdafea492d9c6733ae3d56b7ed1adb60692c98bc5",
            "formatValue": "0",
            "gasLimit": 207128,
            "gasPrice": "18.993022",
            "gasUsed": 46109,
            "intTxnCount": 0,
            "internalRevert": false,
            "internalRevertMessage": "",
            "isContractCreation": false,
            "isFlashloan": false,
            "maxFee": "102",
            "nonce": 5623645,
            "overwritedBlockNumber": -1,
            "priorityFee": "2",
            "receiver": "0xdac17f958d2ee523a2206206994597c13d831ec7",
            "revertMessage": "",
            "sender": "0x21a31ee1afc51d94c2efccaa2092ad1028285549",
            "simulationEnable": true,
            "sourceTxnHash": "0xba6039efc30b8ed943172c58c787b6f4588f28fb15880d06a856d1fa50b788ee",
            "status": true,
            "timestamp": "2023-02-14T01:11:59Z",
            "transactionFee": "0.000875749251398",
            "txnHash": "0xba6039efc30b8ed943172c58c787b6f4588f28fb15880d06a856d1fa50b788ee",
            "txnIndex": 37,
            "type": 2,
            "value": "0"
        },
        "fund_flow": [
            {
                "amount": "307.229583",
                "from": "0x21a31ee1afc51d94c2efccaa2092ad1028285549",
                "id": 1,
                "isERC1155": false,
                "isERC721": false,
                "isReverted": false,
                "order": 1,
                "to": "0xf97fb636aeb9545fe133f78ff9663f18795da8e8",
                "token": "0xdac17f958d2ee523a2206206994597c13d831ec7"
            }
        ],
        "token_infos": [
            {
                "address": "0xc02aaa39b223fe8d0a0e5c4f27ead9083c756cc2",
                "decimals": 18
            },
            {
                "address": "0xdac17f958d2ee523a2206206994597c13d831ec7",
                "decimals": 6
            },
            {
                "address": "0xeeeeeeeeeeeeeeeeeeeeeeeeeeeeeeeeeeeeeeee",
                "decimals": 18
            }
        ]
    },
    "address_label": {
        "labels": [
            {
                "address": "0x0000000000000000000000000000000000000004",
                "label": "Precompiled"
            },
            {
                "address": "0xeeeeeeeeeeeeeeeeeeeeeeeeeeeeeeeeeeeeeeee",
                "label": "Ether"
            },
            {
                "address": "0xf97fb636aeb9545fe133f78ff9663f18795da8e8",
                "label": "STAKE"
            },
            {
                "address": "0xdac17f958d2ee523a2206206994597c13d831ec7",
                "label": "Tether: USDT Stablecoin"
            },
            {
                "address": "0x21a31ee1afc51d94c2efccaa2092ad1028285549",
                "label": "Binance 15"
            },
            {
                "address": "0x0000000000000000000000000000000000000001",
                "label": "Precompiled"
            },
            {
                "address": "0x0000000000000000000000000000000000000002",
                "label": "Precompiled"
            },
            {
                "address": "0x0000000000000000000000000000000000000003",
                "label": "Precompiled"
            }
        ]
    },
    "trace": {
        "accountLabels": null,
        "dataMap": {
            "-1": {
                "invocation": {
                    "address": "0x21a31ee1afc51d94c2efccaa2092ad1028285549",
                    "callData": "",
                    "decodedMethod": null,
                    "errorInfo": "",
                    "fromAddress": "",
                    "gasUsed": 0,
                    "id": -1,
                    "methodDecoded": false,
                    "operation": "",
                    "output": "",
                    "revert": false,
                    "revertMessage": "",
                    "selector": "",
                    "status": false,
                    "value": ""
                },
                "nodeType": 0
            },
            "0": {
                "invocation": {
                    "address": "0xdac17f958d2ee523a2206206994597c13d831ec7",
                    "callData": "0x000000000000000000000000f97fb636aeb9545fe133f78ff9663f18795da8e800000000000000000000000000000000000000000000000000000000124ff38f",
                    "decodedMethod": {
                        "callParams": [
                            {
                                "name": "_to",
                                "type": "address",
                                "value": "0xf97fb636aeb9545fe133f78ff9663f18795da8e8"
                            },
                            {
                                "decimalAvailable": true,
                                "name": "_value",
                                "type": "uint256",
                                "value": "307,229,583"
                            }
                        ],
                        "constructorArguments": "",
                        "name": "transfer",
                        "returnParams": [],
                        "signature": "transfer(address,uint256)"
                    },
                    "errorInfo": "",
                    "fromAddress": "0x21a31ee1afc51d94c2efccaa2092ad1028285549",
                    "gasUsed": 46109,
                    "id": 0,
                    "methodDecoded": true,
                    "operation": "CALL",
                    "output": "",
                    "revert": false,
                    "revertMessage": "",
                    "selector": "0xa9059cbb",
                    "status": true,
                    "value": "0"
                },
                "nodeType": 0
            },
            "1": {
                "event": {
                    "contract": "0xdac17f958d2ee523a2206206994597c13d831ec7",
                    "decodedLog": {
                        "name": "Transfer",
                        "params": [
                            {
                                "name": "from",
                                "type": "address",
                                "value": "0x21a31ee1afc51d94c2efccaa2092ad1028285549"
                            },
                            {
                                "name": "to",
                                "type": "address",
                                "value": "0xf97fb636aeb9545fe133f78ff9663f18795da8e8"
                            },
                            {
                                "decimalAvailable": true,
                                "name": "value",
                                "type": "uint256",
                                "value": "307,229,583"
                            }
                        ],
                        "signature": "Transfer(address,address,uint256)"
                    },
                    "id": 1,
                    "logData": "0x00000000000000000000000000000000000000000000000000000000124ff38f",
                    "logDecoded": true,
                    "operation": "EVENT",
                    "revert": false,
                    "status": true,
                    "topics": [
                        "0xddf252ad1be2c89b69c2b068fc378daa952ba7f163c4a11628f55a4df523b3ef",
                        "0x00000000000000000000000021a31ee1afc51d94c2efccaa2092ad1028285549",
                        "0x000000000000000000000000f97fb636aeb9545fe133f78ff9663f18795da8e8"
                    ]
                },
                "nodeType": 1
            }
        },
        "gasFlame": [
            {
                "children": [
                    {
                        "children": [
                            {
                                "children": [],
                                "depth": 0,
                                "name": "Initial Gas",
                                "value": 21608
                            },
                            {
                                "children": [],
                                "depth": 0,
                                "name": "Executed Gas",
                                "value": 24501
                            }
                        ],
                        "depth": -1,
                        "name": "Actual Gas Used",
                        "value": 46109
                    },
                    {
                        "children": [],
                        "depth": -1,
                        "name": "Refunded Gas",
                        "value": 0
                    }
                ],
                "depth": -2,
                "name": "Total Gas",
                "value": 46109
            }
        ],
        "isConfirmed": true,
        "mainTrace": [
            {
                "children": [
                    {
                        "children": [
                            {
                                "children": [],
                                "depth": 1,
                                "id": 1,
                                "order": 1
                            }
                        ],
                        "depth": 0,
                        "id": 0,
                        "order": 0
                    }
                ],
                "depth": -1,
                "id": -1,
                "order": -1
            }
        ],
        "mainTraceNodeCount": 2,
        "parentIdMap": {
            "0": -1,
            "1": 0
        },
        "tidyTrace": [
            {
                "children": [
                    {
                        "children": [
                            {
                                "children": [],
                                "depth": 1,
                                "id": 1,
                                "order": 1
                            }
                        ],
                        "depth": 0,
                        "id": 0,
                        "order": 0
                    }
                ],
                "depth": -1,
                "id": -1,
                "order": -1
            }
        ],
        "tidyTraceNodeCount": 2
    },
    "state_change": {
        "stateChanges": [
            {
                "address": "0xdac17f958d2ee523a2206206994597c13d831ec7",
                "erc": "ERC-20",
                "slots": [
                    {
                        "current": "0x00000000000000000000000000000000000000000000000000007a7c5d1eea3b",
                        "key": "0xdf70affd7af96966d2670c0f3ed33a9da6b177986dc23d985c9fbdd265f954a7",
                        "prev": "0x00000000000000000000000000000000000000000000000000007a7c6f6eddca"
                    },
                    {
                        "current": "0x0000000000000000000000000000000000000000000000000000000086d04615",
                        "key": "0xb84782ade282ef9096fea1bdcbfd1276ca286dd1af3b48b4d5b749ef48ef1c7f",
                        "prev": "0x0000000000000000000000000000000000000000000000000000000074805286"
                    }
                ],
                "storageVariables": [
                    {
                        "name": "balances",
                        "type": "mapping(address => uint256)",
                        "value": {
                            "pairs": [
                                {
                                    "key": "0x21a31ee1afc51d94c2efccaa2092ad1028285549",
                                    "value": {
                                        "current": "134674556840507",
                                        "prev": "134674864070090",
                                        "typeTag": 1
                                    }
                                },
                                {
                                    "key": "0xf97fb636aeb9545fe133f78ff9663f18795da8e8",
                                    "value": {
                                        "current": "2261796373",
                                        "prev": "1954566790",
                                        "typeTag": 1
                                    }
                                }
                            ],
                            "typeTag": 4
                        }
                    }
                ]
            }
        ]
    }
}