{
    "balance_change": {
        "balanceChanges": [
            {
                "account": "0x8ed9bceb25848a52d4beb27941d1e415e1d1bc47",
                "assets": [
                    {
                        "address": "0xeeeeeeeeeeeeeeeeeeeeeeeeeeeeeeeeeeeeeeee",
                        "amount": "0.985587483119187555",
                        "iconUrl": "https://assets.blocksec.com/image/1663669189317-3.png",
                        "isERC1155": false,
                        "isERC721": false,
                        "sign": false,
                        "value": "1330.350245"
                    },
                    {
                        "address": "0xae1eaae3f627aaca434127644371b67b18444051",
                        "amount": "1,876.71012338",
                        "iconUrl": "https://assets.blocksec.com/icon/c99c1978fca76ba40851686f5f60f7cb9ef7aaf22dc0b7cc3c3fd58dc0d365a5.png",
                        "isERC1155": false,
                        "isERC721": false,
                        "sign": false,
                        "value": "1323.693483"
                    },
                    {
                        "address": "0xd65e975c7d0d5871eff8b079120e43c9f377ada1",
                        "amount": "0.000379941073800027",
                        "iconUrl": "",
                        "isERC1155": false,
                        "isERC721": false,
                        "sign": true,
                        "value": "2654.038344"
                    }
                ]
            },
            {
                "account": "0x0000000000000000000000000000000000000000",
                "assets": [
                    {
                        "address": "0xd65e975c7d0d5871eff8b079120e43c9f377ada1",
                        "amount": "0.000379941073800027",
                        "iconUrl": "",
                        "isERC1155": false,
                        "isERC721": false,
                        "sign": false,
                        "value": "2654.038344"
                    }
                ]
            },
            {
                "account": "0xc02aaa39b223fe8d0a0e5c4f27ead9083c756cc2",
                "assets": [
                    {
                        "address": "0xeeeeeeeeeeeeeeeeeeeeeeeeeeeeeeeeeeeeeeee",
                        "amount": "0.985587483119187555",
                        "iconUrl": "https://assets.blocksec.com/image/1663669189317-3.png",
                        "isERC1155": false,
                        "isERC721": false,
                        "sign": true,
                        "value": "1330.350245"
                    },
                    {
                        "address": "0xc02aaa39b223fe8d0a0e5c4f27ead9083c756cc2",
                        "amount": "0.985587483119187555",
                        "iconUrl": "https://assets.blocksec.com/icon/f1cb2d02c471d545bbc7722daf3277fd852d98e63d118771af7047bd8256c516.png",
                        "isERC1155": false,
                        "isERC721": false,
                        "sign": false,
                        "value": "1330.350245"
                    }
                ]
            },
            {
                "account": "0xd65e975c7d0d5871eff8b079120e43c9f377ada1",
                "assets": [
                    {
                        "address": "0xae1eaae3f627aaca434127644371b67b18444051",
                        "amount": "1,876.71012338",
                        "iconUrl": "https://assets.blocksec.com/icon/c99c1978fca76ba40851686f5f60f7cb9ef7aaf22dc0b7cc3c3fd58dc0d365a5.png",
                        "isERC1155": false,
                        "isERC721": false,
                        "sign": true,
                        "value": "1323.693483"
                    },
                    {
                        "address": "0xc02aaa39b223fe8d0a0e5c4f27ead9083c756cc2",
                        "amount": "0.985587483119187555",
                        "iconUrl": "https://assets.blocksec.com/icon/f1cb2d02c471d545bbc7722daf3277fd852d98e63d118771af7047bd8256c516.png",
                        "isERC1155": false,
                        "isERC721": false,
                        "sign": true,
                        "value": "1330.350245"
                    }
                ]
            }
        ]
    },
    "profile": {
        "basic_info": {
            "baseFee": "",
            "blockNumber": 11762710,
            "callData": "0xf305d719000000000000000000000000ae1eaae3f627aaca434127644371b67b184440510000000000000000000000000000000000000000000000000000002bb21063f20000000000000000000000000000000000000000000000000000002b7a223a7c0000000000000000000000000000000000000000000000000d9c00a93b422ec10000000000000000000000008ed9bceb25848a52d4beb27941d1e415e1d1bc470000000000000000000000000000000000000000000000000000000060166fda",
            "debugEnable": true,
            "errorInfo": "",
            "eventCount": 7,
            "feeRecipient": "0x829bd824b016326a401d083b33d092293333a830",
            "formatValue": "0.985587483119187555",
            "gasLimit": 192199,
            "gasPrice": "80",
            "gasUsed": 133950,
            "intTxnCount": 9,
            "internalRevert": false,
            "internalRevertMessage": "",
            "isContractCreation": false,
            "isFlashloan": false,
            "maxFee": "",
            "nonce": 362,
            "overwritedBlockNumber": -1,
            "priorityFee": "",
            "receiver": "0x7a250d5630b4cf539739df2c5dacb4c659f2488d",
            "revertMessage": "",
            "sender": "0x8ed9bceb25848a52d4beb27941d1e415e1d1bc47",
            "simulationEnable": true,
            "sourceTxnHash": "0xba315a2d79d44c9283c299e4473b6312fa5d28bbeb7cf9b2118611a8f571bc40",
            "status": true,
            "timestamp": "2021-01-31T08:33:38Z",
            "transactionFee": "0.010716",
            "txnHash": "0xba315a2d79d44c9283c299e4473b6312fa5d28bbeb7cf9b2118611a8f571bc40",
            "txnIndex": 22,
            "type": 0,
            "value": "985587483119187555"
        },
        "fund_flow": [
            {
                "amount": "0.985587483119187555",
                "from": "0x8ed9bceb25848a52d4beb27941d1e415e1d1bc47",
                "id": 1,
                "isERC1155": false,
                "isERC721": false,
                "isReverted": false,
                "order": 1,
                "to": "0x7a250d5630b4cf539739df2c5dacb4c659f2488d",
                "token": "0xeeeeeeeeeeeeeeeeeeeeeeeeeeeeeeeeeeeeeeee"
            },
            {
                "amount": "1,876.71012338",
                "from": "0x8ed9bceb25848a52d4beb27941d1e415e1d1bc47",
                "id": 2,
                "isERC1155": false,
                "isERC721": false,
                "isReverted": false,
                "order": 2,
                "to": "0xd65e975c7d0d5871eff8b079120e43c9f377ada1",
                "token": "0xae1eaae3f627aaca434127644371b67b18444051"
            },
            {
                "amount": "0.985587483119187555",
                "from": "0x7a250d5630b4cf539739df2c5dacb4c659f2488d",
                "id": 3,
                "isERC1155": false,
                "isERC721": false,
                "isReverted": false,
                "order": 3,
                "to": "0xc02aaa39b223fe8d0a0e5c4f27ead9083c756cc2",
                "token": "0xeeeeeeeeeeeeeeeeeeeeeeeeeeeeeeeeeeeeeeee"
            },
            {
                "amount": "0.985587483119187555",
                "from": "0xc02aaa39b223fe8d0a0e5c4f27ead9083c756cc2",
                "id": 4,
                "isERC1155": false,
                "isERC721": false,
                "isReverted": false,
                "order": 4,
                "to": "0x7a250d5630b4cf539739df2c5dacb4c659f2488d",
                "token": "0xc02aaa39b223fe8d0a0e5c4f27ead9083c756cc2"
            },
            {
                "amount": "0.985587483119187555",
                "from": "0x7a250d5630b4cf539739df2c5dacb4c659f2488d",
                "id": 5,
                "isERC1155": false,
                "isERC721": false,
                "isReverted": false,
                "order": 5,
                "to": "0xd65e975c7d0d5871eff8b079120e43c9f377ada1",
                "token": "0xc02aaa39b223fe8d0a0e5c4f27ead9083c756cc2"
            },
            {
                "amount": "0.000379941073800027",
                "from": "0x0000000000000000000000000000000000000000",
                "id": 6,
                "isERC1155": false,
                "isERC721": false,
                "isReverted": false,
                "order": 6,
                "to": "0x8ed9bceb25848a52d4beb27941d1e415e1d1bc47",
                "token": "0xd65e975c7d0d5871eff8b079120e43c9f377ada1"
            }
        ],
        "token_infos": [
            {
                "address": "0xae1eaae3f627aaca434127644371b67b18444051",
                "decimals": 8
            },
            {
                "address": "0xc02aaa39b223fe8d0a0e5c4f27ead9083c756cc2",
                "decimals": 18
            },
            {
                "address": "0xd65e975c7d0d5871eff8b079120e43c9f377ada1",
                "decimals": 18
            },
            {
                "address": "0xeeeeeeeeeeeeeeeeeeeeeeeeeeeeeeeeeeeeeeee",
                "decimals": 18
            }
        ]
    },
    "address_label": {
        "labels": [
            {
                "address": "0x7a250d5630b4cf539739df2c5dacb4c659f2488d",
                "label": "Uniswap V2: Router 2"
            },
            {
                "address": "0xc02aaa39b223fe8d0a0e5c4f27ead9083c756cc2",
                "label": "Wrapped Ether (WETH)"
            },
            {
                "address": "0xd65e975c7d0d5871eff8b079120e43c9f377ada1",
                "label": "Uniswap V2: YOP 10"
            },
            {
                "address": "0x0000000000000000000000000000000000000001",
                "label": "Precompiled"
            },
            {
                "address": "0x0000000000000000000000000000000000000002",
                "label": "Precompiled"
            },
            {
                "address": "0x0000000000000000000000000000000000000003",
                "label": "Precompiled"
            },
            {
                "address": "0x0000000000000000000000000000000000000004",
                "label": "Precompiled"
            },
            {
                "address": "0xeeeeeeeeeeeeeeeeeeeeeeeeeeeeeeeeeeeeeeee",
                "label": "Ether"
            },
            {
                "address": "0xae1eaae3f627aaca434127644371b67b18444051",
                "label": "YOP: YOP Token"
            },
            {
                "address": "0x5c69bee701ef814a2b6a3edd4b1652cb9cc5aa6f",
                "label": "Uniswap V2: Factory Contract"
            },
            {
                "address": "0x0000000000000000000000000000000000000000",
                "label": "Null Address"
            }
        ]
    },
    "trace": {
        "accountLabels": null,
        "dataMap": {
            "-1": {
                "invocation": {
                    "address": "0x8ed9bceb25848a52d4beb27941d1e415e1d1bc47",
                    "callData": "",
                    "decodedMethod": null,
                    "errorInfo": "",
                    "fromAddress": "",
                    "gasUsed": 0,
                    "id": -1,
                    "methodDecoded": false,
                    "operation": "",
                    "output": "",
                    "revert": false,
                    "revertMessage": "",
                    "selector": "",
                    "status": false,
                    "value": ""
                },
                "nodeType": 0
            },
            "0": {
                "invocation": {
                    "address": "0x7a250d5630b4cf539739df2c5dacb4c659f2488d",
                    "callData": "0x000000000000000000000000ae1eaae3f627aaca434127644371b67b184440510000000000000000000000000000000000000000000000000000002bb21063f20000000000000000000000000000000000000000000000000000002b7a223a7c0000000000000000000000000000000000000000000000000d9c00a93b422ec10000000000000000000000008ed9bceb25848a52d4beb27941d1e415e1d1bc470000000000000000000000000000000000000000000000000000000060166fda",
                    "decodedMethod": {
                        "callParams": [
                            {
                                "name": "token",
                                "type": "address",
                                "value": "0xae1eaae3f627aaca434127644371b67b18444051"
                            },
                            {
                                "name": "amountTokenDesired",
                                "type": "uint256",
                                "value": "187,671,012,338"
                            },
                            {
                                "name": "amountTokenMin",
                                "type": "uint256",
                                "value": "186,732,657,276"
                            },
                            {
                                "name": "amountETHMin",
                                "type": "uint256",
                                "value": "980,659,545,703,591,617"
                            },
                            {
                                "name": "to",
                                "type": "address",
                                "value": "0x8ed9bceb25848a52d4beb27941d1e415e1d1bc47"
                            },
                            {
                                "name": "deadline",
                                "type": "uint256",
                                "value": "1,612,083,162"
                            }
                        ],
                        "constructorArguments": "",
                        "name": "addLiquidityETH",
                        "returnParams": [
                            {
                                "name": "amountToken",
                                "type": "uint256",
                                "value": "187,671,012,338"
                            },
                            {
                                "name": "amountETH",
                                "type": "uint256",
                                "value": "985,587,483,119,187,555"
                            },
                            {
                                "name": "liquidity",
                                "type": "uint256",
                                "value": "379,941,073,800,027"
                            }
                        ],
                        "signature": "addLiquidityETH(address,uint256,uint256,uint256,address,uint256)"
                    },
                    "errorInfo": "",
                    "fromAddress": "0x8ed9bceb25848a52d4beb27941d1e415e1d1bc47",
                    "gasUsed": 133950,
                    "id": 0,
                    "methodDecoded": true,
                    "operation": "CALL",
                    "output": "0x0000000000000000000000000000000000000000000000000000002bb21063f20000000000000000000000000000000000000000000000000dad82981263f6630000000000000000000000000000000000000000000000000001598decbd4b5b",
                    "revert": false,
                    "revertMessage": "",
                    "selector": "0xf305d719",
                    "status": true,
                    "value": "0.985587483119187555"
                },
                "nodeType": 0
            },
            "1": {
                "invocation": {
                    "address": "0x5c69bee701ef814a2b6a3edd4b1652cb9cc5aa6f",
                    "callData": "0x000000000000000000000000ae1eaae3f627aaca434127644371b67b18444051000000000000000000000000c02aaa39b223fe8d0a0e5c4f27ead9083c756cc2",
                    "decodedMethod": {
                        "callParams": [
                            {
                                "name": "",
                                "type": "address",
                                "value": "0xae1eaae3f627aaca434127644371b67b18444051"
                            },
                            {
                                "name": "",
                                "type": "address",
                                "value": "0xc02aaa39b223fe8d0a0e5c4f27ead9083c756cc2"
                            }
                        ],
                        "constructorArguments": "",
                        "name": "getPair",
                        "returnParams": [
                            {
                                "name": "",
                                "type": "address",
                                "value": "0xd65e975c7d0d5871eff8b079120e43c9f377ada1"
                            }
                        ],
                        "signature": "getPair(address,address)"
                    },
                    "errorInfo": "",
                    "fromAddress": "0x7a250d5630b4cf539739df2c5dacb4c659f2488d",
                    "gasUsed": 1264,
                    "id": 1,
                    "methodDecoded": true,
                    "operation": "STATICCALL",
                    "output": "0x000000000000000000000000d65e975c7d0d5871eff8b079120e43c9f377ada1",
                    "revert": false,
                    "revertMessage": "",
                    "selector": "0xe6a43905",
                    "status": true,
                    "value": "0"
                },
                "nodeType": 0
            },
            "10": {
                "invocation": {
                    "address": "0xd65e975c7d0d5871eff8b079120e43c9f377ada1",
                    "callData": "0x0000000000000000000000008ed9bceb25848a52d4beb27941d1e415e1d1bc47",
                    "decodedMethod": {
                        "callParams": [
                            {
                                "name": "to",
                                "type": "address",
                                "value": "0x8ed9bceb25848a52d4beb27941d1e415e1d1bc47"
                            }
                        ],
                        "constructorArguments": "",
                        "name": "mint",
                        "returnParams": [
                            {
                                "name": "liquidity",
                                "type": "uint256",
                                "value": "379,941,073,800,027"
                            }
                        ],
                        "signature": "mint(address)"
                    },
                    "errorInfo": "",
                    "fromAddress": "0x7a250d5630b4cf539739df2c5dacb4c659f2488d",
                    "gasUsed": 71790,
                    "id": 10,
                    "methodDecoded": true,
                    "operation": "CALL",
                    "output": "0x0000000000000000000000000000000000000000000000000001598decbd4b5b",
                    "revert": false,
                    "revertMessage": "",
                    "selector": "0x6a627842",
                    "status": true,
                    "value": "0"
                },
                "nodeType": 0
            },
            "11": {
                "invocation": {
                    "address": "0xae1eaae3f627aaca434127644371b67b18444051",
                    "callData": "0x000000000000000000000000d65e975c7d0d5871eff8b079120e43c9f377ada1",
                    "decodedMethod": {
                        "callParams": [
                            {
                                "name": "account",
                                "type": "address",
                                "value": "0xd65e975c7d0d5871eff8b079120e43c9f377ada1"
                            }
                        ],
                        "constructorArguments": "",
                        "name": "balanceOf",
                        "returnParams": [
                            {
                                "decimalAvailable": true,
                                "name": "",
                                "type": "uint256",
                                "value": "93,098,559,511,936"
                            }
                        ],
                        "signature": "balanceOf(address)"
                    },
                    "errorInfo": "",
                    "fromAddress": "0xd65e975c7d0d5871eff8b079120e43c9f377ada1",
                    "gasUsed": 1231,
                    "id": 11,
                    "methodDecoded": true,
                    "operation": "STATICCALL",
                    "output": "0x000000000000000000000000000000000000000000000000000054ac32919d80",
                    "revert": false,
                    "revertMessage": "",
                    "selector": "0x70a08231",
                    "status": true,
                    "value": "0"
                },
                "nodeType": 0
            },
            "12": {
                "invocation": {
                    "address": "0xc02aaa39b223fe8d0a0e5c4f27ead9083c756cc2",
                    "callData": "0x000000000000000000000000d65e975c7d0d5871eff8b079120e43c9f377ada1",
                    "decodedMethod": {
                        "callParams": [
                            {
                                "name": "",
                                "type": "address",
                                "value": "0xd65e975c7d0d5871eff8b079120e43c9f377ada1"
                            }
                        ],
                        "constructorArguments": "",
                        "name": "balanceOf",
                        "returnParams": [
                            {
                                "decimalAvailable": true,
                                "name": "",
                                "type": "uint256",
                                "value": "488,923,535,970,140,904,341"
                            }
                        ],
                        "signature": "balanceOf(address)"
                    },
                    "errorInfo": "",
                    "fromAddress": "0xd65e975c7d0d5871eff8b079120e43c9f377ada1",
                    "gasUsed": 1234,
                    "id": 12,
                    "methodDecoded": true,
                    "operation": "STATICCALL",
                    "output": "0x00000000000000000000000000000000000000000000001a812d5589742b5b95",
                    "revert": false,
                    "revertMessage": "",
                    "selector": "0x70a08231",
                    "status": true,
                    "value": "0"
                },
                "nodeType": 0
            },
            "13": {
                "invocation": {
                    "address": "0x5c69bee701ef814a2b6a3edd4b1652cb9cc5aa6f",
                    "callData": "0x",
                    "decodedMethod": {
                        "callParams": [],
                        "constructorArguments": "",
                        "name": "feeTo",
                        "returnParams": [
                            {
                                "name": "",
                                "type": "address",
                                "value": "0x0000000000000000000000000000000000000000"
                            }
                        ],
                        "signature": "feeTo()"
                    },
                    "errorInfo": "",
                    "fromAddress": "0xd65e975c7d0d5871eff8b079120e43c9f377ada1",
                    "gasUsed": 1014,
                    "id": 13,
                    "methodDecoded": true,
                    "operation": "STATICCALL",
                    "output": "0x0000000000000000000000000000000000000000000000000000000000000000",
                    "revert": false,
                    "revertMessage": "",
                    "selector": "0x017e7e58",
                    "status": true,
                    "value": "0"
                },
                "nodeType": 0
            },
            "14": {
                "event": {
                    "contract": "0xd65e975c7d0d5871eff8b079120e43c9f377ada1",
                    "decodedLog": {
                        "name": "Transfer",
                        "params": [
                            {
                                "name": "from",
                                "type": "address",
                                "value": "0x0000000000000000000000000000000000000000"
                            },
                            {
                                "name": "to",
                                "type": "address",
                                "value": "0x8ed9bceb25848a52d4beb27941d1e415e1d1bc47"
                            },
                            {
                                "decimalAvailable": true,
                                "name": "value",
                                "type": "uint256",
                                "value": "379,941,073,800,027"
                            }
                        ],
                        "signature": "Transfer(address,address,uint256)"
                    },
                    "id": 14,
                    "logData": "0x0000000000000000000000000000000000000000000000000001598decbd4b5b",
                    "logDecoded": true,
                    "operation": "EVENT",
                    "revert": false,
                    "status": true,
                    "topics": [
                        "0xddf252ad1be2c89b69c2b068fc378daa952ba7f163c4a11628f55a4df523b3ef",
                        "0x0000000000000000000000000000000000000000000000000000000000000000",
                        "0x0000000000000000000000008ed9bceb25848a52d4beb27941d1e415e1d1bc47"
                    ]
                },
                "nodeType": 1
            },
            "15": {
                "event": {
                    "contract": "0xd65e975c7d0d5871eff8b079120e43c9f377ada1",
                    "decodedLog": {
                        "name": "Sync",
                        "params": [
                            {
                                "name": "reserve0",
                                "type": "uint112",
                                "value": "93,098,559,511,936"
                            },
                            {
                                "name": "reserve1",
                                "type": "uint112",
                                "value": "488,923,535,970,140,904,341"
                            }
                        ],
                        "signature": "Sync(uint112,uint112)"
                    },
                    "id": 15,
                    "logData": "0x000000000000000000000000000000000000000000000000000054ac32919d8000000000000000000000000000000000000000000000001a812d5589742b5b95",
                    "logDecoded": true,
                    "operation": "EVENT",
                    "revert": false,
                    "status": true,
                    "topics": [
                        "0x1c411e9a96e071241c2f21f7726b17ae89e3cab4c78be50e062b03a9fffbbad1"
                    ]
                },
                "nodeType": 1
            },
            "16": {
                "event": {
                    "contract": "0xd65e975c7d0d5871eff8b079120e43c9f377ada1",
                    "decodedLog": {
                        "name": "Mint",
                        "params": [
                            {
                                "name": "sender",
                                "type": "address",
                                "value": "0x7a250d5630b4cf539739df2c5dacb4c659f2488d"
                            },
                            {
                                "name": "amount0",
                                "type": "uint256",
                                "value": "187,671,012,338"
                            },
                            {
                                "name": "amount1",
                                "type": "uint256",
                                "value": "985,587,483,119,187,555"
                            }
                        ],
                        "signature": "Mint(address,uint256,uint256)"
                    },
                    "id": 16,
                    "logData": "0x0000000000000000000000000000000000000000000000000000002bb21063f20000000000000000000000000000000000000000000000000dad82981263f663",
                    "logDecoded": true,
                    "operation": "EVENT",
                    "revert": false,
                    "status": true,
                    "topics": [
                        "0x4c209b5fc8ad50758f13e2e1088ba56a560dff690a1c6fef26394f4c03821c4f",
                        "0x0000000000000000000000007a250d5630b4cf539739df2c5dacb4c659f2488d"
                    ]
                },
                "nodeType": 1
            },
            "2": {
                "invocation": {
                    "address": "0xd65e975c7d0d5871eff8b079120e43c9f377ada1",
                    "callData": "0x",
                    "decodedMethod": {
                        "callParams": [],
                        "constructorArguments": "",
                        "name": "getReserves",
                        "returnParams": [
                            {
                                "name": "_reserve0",
                                "type": "uint112",
                                "value": "92,910,888,499,598"
                            },
                            {
                                "name": "_reserve1",
                                "type": "uint112",
                                "value": "487,937,948,487,021,716,786"
                            },
                            {
                                "name": "_blockTimestampLast",
                                "type": "uint32",
                                "value": "1,612,081,949"
                            }
                        ],
                        "signature": "getReserves()"
                    },
                    "errorInfo": "",
                    "fromAddress": "0x7a250d5630b4cf539739df2c5dacb4c659f2488d",
                    "gasUsed": 1204,
                    "id": 2,
                    "methodDecoded": true,
                    "operation": "STATICCALL",
                    "output": "0x000000000000000000000000000000000000000000000000000054808081398e00000000000000000000000000000000000000000000001a737fd2f161c765320000000000000000000000000000000000000000000000000000000060166b1d",
                    "revert": false,
                    "revertMessage": "",
                    "selector": "0x0902f1ac",
                    "status": true,
                    "value": "0"
                },
                "nodeType": 0
            },
            "3": {
                "invocation": {
                    "address": "0xae1eaae3f627aaca434127644371b67b18444051",
                    "callData": "0x0000000000000000000000008ed9bceb25848a52d4beb27941d1e415e1d1bc47000000000000000000000000d65e975c7d0d5871eff8b079120e43c9f377ada10000000000000000000000000000000000000000000000000000002bb21063f2",
                    "decodedMethod": {
                        "callParams": [
                            {
                                "name": "sender",
                                "type": "address",
                                "value": "0x8ed9bceb25848a52d4beb27941d1e415e1d1bc47"
                            },
                            {
                                "name": "recipient",
                                "type": "address",
                                "value": "0xd65e975c7d0d5871eff8b079120e43c9f377ada1"
                            },
                            {
                                "decimalAvailable": true,
                                "name": "amount",
                                "type": "uint256",
                                "value": "187,671,012,338"
                            }
                        ],
                        "constructorArguments": "",
                        "name": "transferFrom",
                        "returnParams": [
                            {
                                "name": "",
                                "type": "bool",
                                "value": true
                            }
                        ],
                        "signature": "transferFrom(address,address,uint256)"
                    },
                    "errorInfo": "",
                    "fromAddress": "0x7a250d5630b4cf539739df2c5dacb4c659f2488d",
                    "gasUsed": 22855,
                    "id": 3,
                    "methodDecoded": true,
                    "operation": "CALL",
                    "output": "0x0000000000000000000000000000000000000000000000000000000000000001",
                    "revert": false,
                    "revertMessage": "",
                    "selector": "0x23b872dd",
                    "status": true,
                    "value": "0"
                },
                "nodeType": 0
            },
            "4": {
                "event": {
                    "contract": "0xae1eaae3f627aaca434127644371b67b18444051",
                    "decodedLog": {
                        "name": "Transfer",
                        "params": [
                            {
                                "name": "from",
                                "type": "address",
                                "value": "0x8ed9bceb25848a52d4beb27941d1e415e1d1bc47"
                            },
                            {
                                "name": "to",
                                "type": "address",
                                "value": "0xd65e975c7d0d5871eff8b079120e43c9f377ada1"
                            },
                            {
                                "decimalAvailable": true,
                                "name": "value",
                                "type": "uint256",
                                "value": "187,671,012,338"
                            }
                        ],
                        "signature": "Transfer(address,address,uint256)"
                    },
                    "id": 4,
                    "logData": "0x0000000000000000000000000000000000000000000000000000002bb21063f2",
                    "logDecoded": true,
                    "operation": "EVENT",
                    "revert": false,
                    "status": true,
                    "topics": [
                        "0xddf252ad1be2c89b69c2b068fc378daa952ba7f163c4a11628f55a4df523b3ef",
                        "0x0000000000000000000000008ed9bceb25848a52d4beb27941d1e415e1d1bc47",
                        "0x000000000000000000000000d65e975c7d0d5871eff8b079120e43c9f377ada1"
                    ]
                },
                "nodeType": 1
            },
            "5": {
                "event": {
                    "contract": "0xae1eaae3f627aaca434127644371b67b18444051",
                    "decodedLog": {
                        "name": "Approval",
                        "params": [
                            {
                                "name": "owner",
                                "type": "address",
                                "value": "0x8ed9bceb25848a52d4beb27941d1e415e1d1bc47"
                            },
                            {
                                "name": "spender",
                                "type": "address",
                                "value": "0x7a250d5630b4cf539739df2c5dacb4c659f2488d"
                            },
                            {
                                "decimalAvailable": true,
                                "name": "value",
                                "type": "uint256",
                                "value": "115,792,089,237,316,195,423,570,985,008,687,907,853,269,984,665,640,564,039,457,584,007,725,458,627,597"
                            }
                        ],
                        "signature": "Approval(address,address,uint256)"
                    },
                    "id": 5,
                    "logData": "0xffffffffffffffffffffffffffffffffffffffffffffffffffffffd44def9c0d",
                    "logDecoded": true,
                    "operation": "EVENT",
                    "revert": false,
                    "status": true,
                    "topics": [
                        "0x8c5be1e5ebec7d5bd14f71427d1e84f3dd0314c0f7b2291e5b200ac8c7c3b925",
                        "0x0000000000000000000000008ed9bceb25848a52d4beb27941d1e415e1d1bc47",
                        "0x0000000000000000000000007a250d5630b4cf539739df2c5dacb4c659f2488d"
                    ]
                },
                "nodeType": 1
            },
            "6": {
                "invocation": {
                    "address": "0xc02aaa39b223fe8d0a0e5c4f27ead9083c756cc2",
                    "callData": "0x",
                    "decodedMethod": {
                        "callParams": [],
                        "constructorArguments": "",
                        "name": "deposit",
                        "returnParams": [],
                        "signature": "deposit()"
                    },
                    "errorInfo": "",
                    "fromAddress": "0x7a250d5630b4cf539739df2c5dacb4c659f2488d",
                    "gasUsed": 22674,
                    "id": 6,
                    "methodDecoded": true,
                    "operation": "CALL",
                    "output": "",
                    "revert": false,
                    "revertMessage": "",
                    "selector": "0xd0e30db0",
                    "status": true,
                    "value": "0.985587483119187555"
                },
                "nodeType": 0
            },
            "7": {
                "event": {
                    "contract": "0xc02aaa39b223fe8d0a0e5c4f27ead9083c756cc2",
                    "decodedLog": {
                        "name": "Deposit",
                        "params": [
                            {
                                "name": "dst",
                                "type": "address",
                                "value": "0x7a250d5630b4cf539739df2c5dacb4c659f2488d"
                            },
                            {
                                "name": "wad",
                                "type": "uint256",
                                "value": "985,587,483,119,187,555"
                            }
                        ],
                        "signature": "Deposit(address,uint256)"
                    },
                    "id": 7,
                    "logData": "0x0000000000000000000000000000000000000000000000000dad82981263f663",
                    "logDecoded": true,
                    "operation": "EVENT",
                    "revert": false,
                    "status": true,
                    "topics": [
                        "0xe1fffcc4923d04b559f4d29a8bfc6cda04eb5b0d3c460751c2402c5c5cc9109c",
                        "0x0000000000000000000000007a250d5630b4cf539739df2c5dacb4c659f2488d"
                    ]
                },
                "nodeType": 1
            },
            "8": {
                "invocation": {
                    "address": "0xc02aaa39b223fe8d0a0e5c4f27ead9083c756cc2",
                    "callData": "0x000000000000000000000000d65e975c7d0d5871eff8b079120e43c9f377ada10000000000000000000000000000000000000000000000000dad82981263f663",
                    "decodedMethod": {
                        "callParams": [
                            {
                                "name": "dst",
                                "type": "address",
                                "value": "0xd65e975c7d0d5871eff8b079120e43c9f377ada1"
                            },
                            {
                                "decimalAvailable": true,
                                "name": "wad",
                                "type": "uint256",
                                "value": "985,587,483,119,187,555"
                            }
                        ],
                        "constructorArguments": "",
                        "name": "transfer",
                        "returnParams": [
                            {
                                "name": "",
                                "type": "bool",
                                "value": true
                            }
                        ],
                        "signature": "transfer(address,uint256)"
                    },
                    "errorInfo": "",
                    "fromAddress": "0x7a250d5630b4cf539739df2c5dacb4c659f2488d",
                    "gasUsed": 10962,
                    "id": 8,
                    "methodDecoded": true,
                    "operation": "CALL",
                    "output": "0x0000000000000000000000000000000000000000000000000000000000000001",
                    "revert": false,
                    "revertMessage": "",
                    "selector": "0xa9059cbb",
                    "status": true,
                    "value": "0"
                },
                "nodeType": 0
            },
            "9": {
                "event": {
                    "contract": "0xc02aaa39b223fe8d0a0e5c4f27ead9083c756cc2",
                    "decodedLog": {
                        "name": "Transfer",
                        "params": [
                            {
                                "name": "src",
                                "type": "address",
                                "value": "0x7a250d5630b4cf539739df2c5dacb4c659f2488d"
                            },
                            {
                                "name": "dst",
                                "type": "address",
                                "value": "0xd65e975c7d0d5871eff8b079120e43c9f377ada1"
                            },
                            {
                                "decimalAvailable": true,
                                "name": "wad",
                                "type": "uint256",
                                "value": "985,587,483,119,187,555"
                            }
                        ],
                        "signature": "Transfer(address,address,uint256)"
                    },
                    "id": 9,
                    "logData": "0x0000000000000000000000000000000000000000000000000dad82981263f663",
                    "logDecoded": true,
                    "operation": "EVENT",
                    "revert": false,
                    "status": true,
                    "topics": [
                        "0xddf252ad1be2c89b69c2b068fc378daa952ba7f163c4a11628f55a4df523b3ef",
                        "0x0000000000000000000000007a250d5630b4cf539739df2c5dacb4c659f2488d",
                        "0x000000000000000000000000d65e975c7d0d5871eff8b079120e43c9f377ada1"
                    ]
                },
                "nodeType": 1
            }
        },
        "gasFlame": [
            {
                "children": [
                    {
                        "children": [
                            {
                                "children": [],
                                "depth": 0,
                                "name": "Initial Gas",
                                "value": 22564
                            },
                            {
                                "children": [
                                    {
                                        "children": [],
                                        "depth": 1,
                                        "name": "getPair",
                                        "value": 1264
                                    },
                                    {
                                        "children": [],
                                        "depth": 1,
                                        "name": "getReserves",
                                        "value": 1204
                                    },
                                    {
                                        "children": [],
                                        "depth": 1,
                                        "name": "transferFrom",
                                        "value": 22855
                                    },
                                    {
                                        "children": [],
                                        "depth": 1,
                                        "name": "deposit",
                                        "value": 22674
                                    },
                                    {
                                        "children": [],
                                        "depth": 1,
                                        "name": "transfer",
                                        "value": 10962
                                    },
                                    {
                                        "children": [
                                            {
                                                "children": [],
                                                "depth": 2,
                                                "name": "balanceOf",
                                                "value": 1231
                                            },
                                            {
                                                "children": [],
                                                "depth": 2,
                                                "name": "balanceOf",
                                                "value": 1234
                                            },
                                            {
                                                "children": [],
                                                "depth": 2,
                                                "name": "feeTo",
                                                "value": 1014
                                            }
                                        ],
                                        "depth": 1,
                                        "name": "mint",
                                        "value": 71790
                                    }
                                ],
                                "depth": 0,
                                "name": "Executed Gas",
                                "value": 149786
                            }
                        ],
                        "depth": -1,
                        "name": "Actual Gas Used",
                        "value": 133950
                    },
                    {
                        "children": [],
                        "depth": -1,
                        "name": "Refunded Gas",
                        "value": 38400
                    }
                ],
                "depth": -2,
                "name": "Total Gas",
                "value": 172350
            }
        ],
        "isConfirmed": true,
        "mainTrace": [
            {
                "children": [
                    {
                        "children": [
                            {
                                "children": [],
                                "depth": 1,
                                "id": 1,
                                "order": 1
                            },
                            {
                                "children": [],
                                "depth": 1,
                                "id": 2,
                                "order": 2
                            },
                            {
                                "children": [
                                    {
                                        "children": [],
                                        "depth": 2,
                                        "id": 4,
                                        "order": 4
                                    },
                                    {
                                        "children": [],
                                        "depth": 2,
                                        "id": 5,
                                        "order": 5
                                    }
                                ],
                                "depth": 1,
                                "id": 3,
                                "order": 3
                            },
                            {
                                "children": [
                                    {
                                        "children": [],
                                        "depth": 2,
                                        "id": 7,
                                        "order": 7
                                    }
                                ],
                                "depth": 1,
                                "id": 6,
                                "order": 6
                            },
                            {
                                "children": [
                                    {
                                        "children": [],
                                        "depth": 2,
                                        "id": 9,
                                        "order": 9
                                    }
                                ],
                                "depth": 1,
                                "id": 8,
                                "order": 8
                            },
                            {
                                "children": [
                                    {
                                        "children": [],
                                        "depth": 2,
                                        "id": 11,
                                        "order": 11
                                    },
                                    {
                                        "children": [],
                                        "depth": 2,
                                        "id": 12,
                                        "order": 12
                                    },
                                    {
                                        "children": [],
                                        "depth": 2,
                                        "id": 13,
                                        "order": 13
                                    },
                                    {
                                        "children": [],
                                        "depth": 2,
                                        "id": 14,
                                        "order": 14
                                    },
                                    {
                                        "children": [],
                                        "depth": 2,
                                        "id": 15,
                                        "order": 15
                                    },
                                    {
                                        "children": [],
                                        "depth": 2,
                                        "id": 16,
                                        "order": 16
                                    }
                                ],
                                "depth": 1,
                                "id": 10,
                                "order": 10
                            }
                        ],
                        "depth": 0,
                        "id": 0,
                        "order": 0
                    }
                ],
                "depth": -1,
                "id": -1,
                "order": -1
            }
        ],
        "mainTraceNodeCount": 17,
        "parentIdMap": {
            "0": -1,
            "1": 0,
            "10": 0,
            "11": 10,
            "12": 10,
            "13": 10,
            "14": 10,
            "15": 10,
            "16": 10,
            "2": 0,
            "3": 0,
            "4": 3,
            "5": 3,
            "6": 0,
            "7": 6,
            "8": 0,
            "9": 8
        },
        "tidyTrace": [
            {
                "children": [
                    {
                        "children": [
                            {
                                "children": [
                                    {
                                        "children": [],
                                        "depth": 2,
                                        "id": 4,
                                        "order": 4
                                    },
                                    {
                                        "children": [],
                                        "depth": 2,
                                        "id": 5,
                                        "order": 5
                                    }
                                ],
                                "depth": 1,
                                "id": 3,
                                "order": 3
                            },
                            {
                                "children": [
                                    {
                                        "children": [],
                                        "depth": 2,
                                        "id": 7,
                                        "order": 7
                                    }
                                ],
                                "depth": 1,
                                "id": 6,
                                "order": 6
                            },
                            {
                                "children": [
                                    {
                                        "children": [],
                                        "depth": 2,
                                        "id": 9,
                                        "order": 9
                                    }
                                ],
                                "depth": 1,
                                "id": 8,
                                "order": 8
                            },
                            {
                                "children": [
                                    {
                                        "children": [],
                                        "depth": 2,
                                        "id": 14,
                                        "order": 14
                                    },
                                    {
                                        "children": [],
                                        "depth": 2,
                                        "id": 15,
                                        "order": 15
                                    },
                                    {
                                        "children": [],
                                        "depth": 2,
                                        "id": 16,
                                        "order": 16
                                    }
                                ],
                                "depth": 1,
                                "id": 10,
                                "order": 10
                            }
                        ],
                        "depth": 0,
                        "id": 0,
                        "order": 0
                    }
                ],
                "depth": -1,
                "id": -1,
                "order": -1
            }
        ],
        "tidyTraceNodeCount": 12
    },
    "state_change": {
        "stateChanges": [
            {
                "address": "0xae1eaae3f627aaca434127644371b67b18444051",
                "erc": "ERC-20",
                "slots": [
                    {
                        "current": "0x0000000000000000000000000000000000000000000000000000000000000000",
                        "key": "0xee624d2c3c31ddeaf5af24243a7eb31a81f50d9f359c481712c0d225218a2825",
                        "prev": "0x0000000000000000000000000000000000000000000000000000002bb21063f2"
                    },
                    {
                        "current": "0x000000000000000000000000000000000000000000000000000054ac32919d80",
                        "key": "0xf97afa76c28180460b20cf1e4a04537713c21061488f28d7ff70ee21b31d5ec6",
                        "prev": "0x000000000000000000000000000000000000000000000000000054808081398e"
                    },
                    {
                        "current": "0xffffffffffffffffffffffffffffffffffffffffffffffffffffffd44def9c0d",
                        "key": "0xc91f50a358589366d7f54cf06577db83a9ea840ddaf81c20801275cd88de81aa",
                        "prev": "0xffffffffffffffffffffffffffffffffffffffffffffffffffffffffffffffff"
                    }
                ],
                "storageVariables": [
                    {
                        "name": "_balances",
                        "type": "mapping(address => uint256)",
                        "value": {
                            "pairs": [
                                {
                                    "key": "0x8ed9bceb25848a52d4beb27941d1e415e1d1bc47",
                                    "value": {
                                        "current": "0",
                                        "prev": "187671012338",
                                        "typeTag": 1
                                    }
                                },
                                {
                                    "key": "0xd65e975c7d0d5871eff8b079120e43c9f377ada1",
                                    "value": {
                                        "current": "93098559511936",
                                        "prev": "92910888499598",
                                        "typeTag": 1
                                    }
                                }
                            ],
                            "typeTag": 4
                        }
                    },
                    {
                        "name": "_allowances",
                        "type": "mapping(address => mapping(address => uint256))",
                        "value": {
                            "pairs": [
                                {
                                    "key": "0x8ed9bceb25848a52d4beb27941d1e415e1d1bc47",
                                    "value": {
                                        "pairs": [
                                            {
                                                "key": "0x7a250d5630b4cf539739df2c5dacb4c659f2488d",
                                                "value": {
                                                    "current": "115792089237316195423570985008687907853269984665640564039457584007725458627597",
                                                    "prev": "115792089237316195423570985008687907853269984665640564039457584007913129639935",
                                                    "typeTag": 1
                                                }
                                            }
                                        ],
                                        "typeTag": 4
                                    }
                                }
                            ],
                            "typeTag": 4
                        }
                    }
                ]
            },
            {
                "address": "0xc02aaa39b223fe8d0a0e5c4f27ead9083c756cc2",
                "erc": "ERC-20",
                "slots": [
                    {
                        "current": "0x00000000000000000000000000000000000000000000001a812d5589742b5b95",
                        "key": "0x88209b72d366f9139c29dea1b0e4def764946acf7c0430a79a2f74b2364e109b",
                        "prev": "0x00000000000000000000000000000000000000000000001a737fd2f161c76532"
                    }
                ],
                "storageVariables": [
                    {
                        "name": "balanceOf",
                        "type": "mapping(address => uint256)",
                        "value": {
                            "pairs": [
                                {
                                    "key": "0xd65e975c7d0d5871eff8b079120e43c9f377ada1",
                                    "value": {
                                        "current": "488923535970140904341",
                                        "prev": "487937948487021716786",
                                        "typeTag": 1
                                    }
                                }
                            ],
                            "typeTag": 4
                        }
                    }
                ]
            },
            {
                "address": "0xd65e975c7d0d5871eff8b079120e43c9f377ada1",
                "erc": "ERC-20",
                "slots": [
                    {
                        "current": "0x0000000000000000000000000000000000000000000000000001598decbd4b5b",
                        "key": "0xee624d2c3c31ddeaf5af24243a7eb31a81f50d9f359c481712c0d225218a2825",
                        "prev": "0x0000000000000000000000000000000000000000000000000000000000000000"
                    },
                    {
                        "current": "0x0000000000000000000000000783afd35b24331092e18c20533515cfbfb658cf",
                        "key": "0x0000000000000000000000000000000000000000000000000000000000000009",
                        "prev": "0x00000000000000000000000007839a3a1827c48a6d758d85e78ad9f101e4497c"
                    },
                    {
                        "current": "0x0000000000000000000000000000000000003abf13f50cdc28077bce2ac6e699",
                        "key": "0x000000000000000000000000000000000000000000000000000000000000000a",
                        "prev": "0x0000000000000000000000000000000000003abe3786ee4a18af0924c44068e1"
                    },
                    {
                        "current": "0x60166b6200000000001a812d5589742b5b95000000000000000054ac32919d80",
                        "key": "0x0000000000000000000000000000000000000000000000000000000000000008",
                        "prev": "0x60166b1d00000000001a737fd2f161c76532000000000000000054808081398e"
                    },
                    {
                        "current": "0x000000000000000000000000000000000000000000000000029d9c460946b8fd",
                        "key": "0x0000000000000000000000000000000000000000000000000000000000000000",
                        "prev": "0x000000000000000000000000000000000000000000000000029c42b81c896da2"
                    }
                ],
                "storageVariables": [
                    {
                        "name": "balanceOf",
                        "type": "mapping(address => uint256)",
                        "value": {
                            "pairs": [
                                {
                                    "key": "0x8ed9bceb25848a52d4beb27941d1e415e1d1bc47",
                                    "value": {
                                        "current": "379941073800027",
                                        "prev": "0",
                                        "typeTag": 1
                                    }
                                }
                            ],
                            "typeTag": 4
                        }
                    },
                    {
                        "name": "price0CumulativeLast",
                        "type": "uint256",
                        "value": {
                            "current": "42899649587539572681684602355981279822943246543",
                            "prev": "42897768077293118589553207832836118548886866300",
                            "typeTag": 1
                        }
                    },
                    {
                        "name": "price1CumulativeLast",
                        "type": "uint256",
                        "value": {
                            "current": "1191518512514763350110624652125849",
                            "prev": "1191450292686397171705664617081057",
                            "typeTag": 1
                        }
                    },
                    {
                        "name": "reserve0",
                        "type": "uint112",
                        "value": {
                            "current": "93098559511936",
                            "prev": "92910888499598",
                            "typeTag": 1
                        }
                    },
                    {
                        "name": "reserve1",
                        "type": "uint112",
                        "value": {
                            "current": "488923535970140904341",
                            "prev": "487937948487021716786",
                            "typeTag": 1
                        }
                    },
                    {
                        "name": "blockTimestampLast",
                        "type": "uint32",
                        "value": {
                            "current": "1612082018",
                            "prev": "1612081949",
                            "typeTag": 1
                        }
                    },
                    {
                        "name": "totalSupply",
                        "type": "uint256",
                        "value": {
                            "current": "188478584036702461",
                            "prev": "188098642962902434",
                            "typeTag": 1
                        }
                    }
                ]
            }
        ]
    }
}