{
    "balance_change": {
        "balanceChanges": [
            {
                "account": "0x793b8c77b4f9a5fb48561ed29f82e51f6bcbff5f",
                "assets": [
                    {
                        "address": "0x656c00e1bcd96f256f224ad9112ff426ef053733",
                        "amount": "620.999998999999999999",
                        "iconUrl": "",
                        "isERC1155": false,
                        "isERC721": false,
                        "sign": false,
                        "value": "752.3339511"
                    }
                ]
            },
            {
                "account": "0x6cc5f688a315f3dc28a7781717a9a798a59fda7b",
                "assets": [
                    {
                        "address": "0x656c00e1bcd96f256f224ad9112ff426ef053733",
                        "amount": "620.999998999999999999",
                        "iconUrl": "",
                        "isERC1155": false,
                        "isERC721": false,
                        "sign": true,
                        "value": "752.3339511"
                    }
                ]
            }
        ]
    },
    "profile": {
        "basic_info": {
            "baseFee": "",
            "blockNumber": 12961022,
            "callData": "0xa9059cbb0000000000000000000000006cc5f688a315f3dc28a7781717a9a798a59fda7b000000000000000000000000000000000000000000000021aa1b30e438eeefff",
            "debugEnable": true,
            "errorInfo": "",
            "eventCount": 1,
            "feeRecipient": "0x829bd824b016326a401d083b33d092293333a830",
            "formatValue": "0",
            "gasLimit": 250000,
            "gasPrice": "56",
            "gasUsed": 41848,
            "intTxnCount": 1,
            "internalRevert": false,
            "internalRevertMessage": "",
            "isContractCreation": false,
            "isFlashloan": false,
            "maxFee": "",
            "nonce": 1,
            "overwritedBlockNumber": -1,
            "priorityFee": "",
            "receiver": "0x656c00e1bcd96f256f224ad9112ff426ef053733",
            "revertMessage": "",
            "sender": "0x793b8c77b4f9a5fb48561ed29f82e51f6bcbff5f",
            "simulationEnable": true,
            "sourceTxnHash": "0xba860f6dd76fa78ec8a26f76624cb3cef434901fc8924f36dc498f172935bce8",
            "status": true,
            "timestamp": "2021-08-04T21:18:10Z",
            "transactionFee": "0.002343488",
            "txnHash": "0xba860f6dd76fa78ec8a26f76624cb3cef434901fc8924f36dc498f172935bce8",
            "txnIndex": 154,
            "type": 0,
            "value": "0"
        },
        "fund_flow": [
            {
                "amount": "620.999998999999999999",
                "from": "0x793b8c77b4f9a5fb48561ed29f82e51f6bcbff5f",
                "id": 1,
                "isERC1155": false,
                "isERC721": false,
                "isReverted": false,
                "order": 1,
                "to": "0x6cc5f688a315f3dc28a7781717a9a798a59fda7b",
                "token": "0x656c00e1bcd96f256f224ad9112ff426ef053733"
            }
        ],
        "token_infos": [
            {
                "address": "0x656c00e1bcd96f256f224ad9112ff426ef053733",
                "decimals": 18
            },
            {
                "address": "0xc02aaa39b223fe8d0a0e5c4f27ead9083c756cc2",
                "decimals": 18
            },
            {
                "address": "0xeeeeeeeeeeeeeeeeeeeeeeeeeeeeeeeeeeeeeeee",
                "decimals": 18
            }
        ]
    },
    "address_label": {
        "labels": [
            {
                "address": "0x6cc5f688a315f3dc28a7781717a9a798a59fda7b",
                "label": "OKX"
            },
            {
                "address": "0x4ad0cc4bfa295ecd75ce133cdda89cb09380f185",
                "label": "Efinity Token (EFI)"
            },
            {
                "address": "0x0000000000000000000000000000000000000001",
                "label": "Precompiled"
            },
            {
                "address": "0x656c00e1bcd96f256f224ad9112ff426ef053733",
                "label": "Efinity: EFI Token"
            },
            {
                "address": "0x793b8c77b4f9a5fb48561ed29f82e51f6bcbff5f",
                "label": "OKEX"
            },
            {
                "address": "0x0000000000000000000000000000000000000002",
                "label": "Precompiled"
            },
            {
                "address": "0x0000000000000000000000000000000000000003",
                "label": "Precompiled"
            },
            {
                "address": "0x0000000000000000000000000000000000000004",
                "label": "Precompiled"
            },
            {
                "address": "0xeeeeeeeeeeeeeeeeeeeeeeeeeeeeeeeeeeeeeeee",
                "label": "Ether"
            }
        ]
    },
    "trace": {
        "accountLabels": null,
        "dataMap": {
            "-1": {
                "invocation": {
                    "address": "0x793b8c77b4f9a5fb48561ed29f82e51f6bcbff5f",
                    "callData": "",
                    "decodedMethod": null,
                    "errorInfo": "",
                    "fromAddress": "",
                    "gasUsed": 0,
                    "id": -1,
                    "methodDecoded": false,
                    "operation": "",
                    "output": "",
                    "revert": false,
                    "revertMessage": "",
                    "selector": "",
                    "status": false,
                    "value": ""
                },
                "nodeType": 0
            },
            "0": {
                "invocation": {
                    "address": "0x656c00e1bcd96f256f224ad9112ff426ef053733",
                    "callData": "0x0000000000000000000000006cc5f688a315f3dc28a7781717a9a798a59fda7b000000000000000000000000000000000000000000000021aa1b30e438eeefff",
                    "decodedMethod": {
                        "callParams": [
                            {
                                "name": "recipient",
                                "type": "address",
                                "value": "0x6cc5f688a315f3dc28a7781717a9a798a59fda7b"
                            },
                            {
                                "decimalAvailable": true,
                                "name": "amount",
                                "type": "uint256",
                                "value": "620,999,998,999,999,999,999"
                            }
                        ],
                        "constructorArguments": "",
                        "name": "transfer",
                        "returnParams": [
                            {
                                "name": "",
                                "type": "bool",
                                "value": true
                            }
                        ],
                        "signature": "transfer(address,uint256)"
                    },
                    "errorInfo": "",
                    "fromAddress": "0x793b8c77b4f9a5fb48561ed29f82e51f6bcbff5f",
                    "gasUsed": 41848,
                    "id": 0,
                    "methodDecoded": true,
                    "operation": "CALL",
                    "output": "0x0000000000000000000000000000000000000000000000000000000000000001",
                    "revert": false,
                    "revertMessage": "",
                    "selector": "0xa9059cbb",
                    "status": true,
                    "value": "0"
                },
                "nodeType": 0
            },
            "1": {
                "invocation": {
                    "address": "0x4ad0cc4bfa295ecd75ce133cdda89cb09380f185",
                    "callData": "0x0000000000000000000000006cc5f688a315f3dc28a7781717a9a798a59fda7b000000000000000000000000000000000000000000000021aa1b30e438eeefff",
                    "decodedMethod": {
                        "callParams": [
                            {
                                "name": "recipient",
                                "type": "address",
                                "value": "0x6cc5f688a315f3dc28a7781717a9a798a59fda7b"
                            },
                            {
                                "decimalAvailable": true,
                                "name": "amount",
                                "type": "uint256",
                                "value": "620,999,998,999,999,999,999"
                            }
                        ],
                        "constructorArguments": "",
                        "name": "transfer",
                        "returnParams": [
                            {
                                "name": "",
                                "type": "bool",
                                "value": true
                            }
                        ],
                        "signature": "transfer(address,uint256)"
                    },
                    "errorInfo": "",
                    "fromAddress": "0x656c00e1bcd96f256f224ad9112ff426ef053733",
                    "gasUsed": 12934,
                    "id": 1,
                    "methodDecoded": true,
                    "operation": "DELEGATECALL",
                    "output": "0x0000000000000000000000000000000000000000000000000000000000000001",
                    "revert": false,
                    "revertMessage": "",
                    "selector": "0xa9059cbb",
                    "status": true,
                    "value": "0"
                },
                "nodeType": 0
            },
            "2": {
                "event": {
                    "contract": "0x656c00e1bcd96f256f224ad9112ff426ef053733",
                    "decodedLog": {
                        "name": "Transfer",
                        "params": [
                            {
                                "name": "from",
                                "type": "address",
                                "value": "0x793b8c77b4f9a5fb48561ed29f82e51f6bcbff5f"
                            },
                            {
                                "name": "to",
                                "type": "address",
                                "value": "0x6cc5f688a315f3dc28a7781717a9a798a59fda7b"
                            },
                            {
                                "decimalAvailable": true,
                                "name": "value",
                                "type": "uint256",
                                "value": "620,999,998,999,999,999,999"
                            }
                        ],
                        "signature": "Transfer(address,address,uint256)"
                    },
                    "id": 2,
                    "logData": "0x000000000000000000000000000000000000000000000021aa1b30e438eeefff",
                    "logDecoded": true,
                    "operation": "EVENT",
                    "revert": false,
                    "status": true,
                    "topics": [
                        "0xddf252ad1be2c89b69c2b068fc378daa952ba7f163c4a11628f55a4df523b3ef",
                        "0x000000000000000000000000793b8c77b4f9a5fb48561ed29f82e51f6bcbff5f",
                        "0x0000000000000000000000006cc5f688a315f3dc28a7781717a9a798a59fda7b"
                    ]
                },
                "nodeType": 1
            }
        },
        "gasFlame": [
            {
                "children": [
                    {
                        "children": [
                            {
                                "children": [],
                                "depth": 0,
                                "name": "Initial Gas",
                                "value": 21668
                            },
                            {
                                "children": [
                                    {
                                        "children": [],
                                        "depth": 1,
                                        "name": "transfer",
                                        "value": 12934
                                    }
                                ],
                                "depth": 0,
                                "name": "Executed Gas",
                                "value": 20180
                            }
                        ],
                        "depth": -1,
                        "name": "Actual Gas Used",
                        "value": 41848
                    },
                    {
                        "children": [],
                        "depth": -1,
                        "name": "Refunded Gas",
                        "value": 0
                    }
                ],
                "depth": -2,
                "name": "Total Gas",
                "value": 41848
            }
        ],
        "isConfirmed": true,
        "mainTrace": [
            {
                "children": [
                    {
                        "children": [
                            {
                                "children": [
                                    {
                                        "children": [],
                                        "depth": 2,
                                        "id": 2,
                                        "order": 2
                                    }
                                ],
                                "depth": 1,
                                "id": 1,
                                "order": 1
                            }
                        ],
                        "depth": 0,
                        "id": 0,
                        "order": 0
                    }
                ],
                "depth": -1,
                "id": -1,
                "order": -1
            }
        ],
        "mainTraceNodeCount": 3,
        "parentIdMap": {
            "0": -1,
            "1": 0,
            "2": 1
        },
        "tidyTrace": [
            {
                "children": [
                    {
                        "children": [
                            {
                                "children": [
                                    {
                                        "children": [],
                                        "depth": 2,
                                        "id": 2,
                                        "order": 2
                                    }
                                ],
                                "depth": 1,
                                "id": 1,
                                "order": 1
                            }
                        ],
                        "depth": 0,
                        "id": 0,
                        "order": 0
                    }
                ],
                "depth": -1,
                "id": -1,
                "order": -1
            }
        ],
        "tidyTraceNodeCount": 3
    },
    "state_change": {
        "stateChanges": [
            {
                "address": "0x656c00e1bcd96f256f224ad9112ff426ef053733",
                "erc": "ERC-20",
                "slots": [
                    {
                        "current": "0x000000000000000000000000000000000000000000078768d25698408f1ab02a",
                        "key": "0x5b8b8e3cb786b7c0e8a822f9cb08ae3e253bd6654304f008c93ba33c79e0d3fb",
                        "prev": "0x000000000000000000000000000000000000000000078747283b675c562bc02b"
                    },
                    {
                        "current": "0x0000000000000000000000000000000000000000000000000000000000000001",
                        "key": "0x37bba16cfbddc7227f5629fe42c6e4ca3a9d104704518bb04da66c3a1be3a8f6",
                        "prev": "0x000000000000000000000000000000000000000000000021aa1b30e438eef000"
                    }
                ],
                "storageVariables": [
                    {
                        "name": "_balances",
                        "type": "mapping(address => uint256)",
                        "value": {
                            "pairs": [
                                {
                                    "key": "0x6cc5f688a315f3dc28a7781717a9a798a59fda7b",
                                    "value": {
                                        "current": "9101933830342471128363050",
                                        "prev": "9101312830343471128363051",
                                        "typeTag": 1
                                    }
                                },
                                {
                                    "key": "0x793b8c77b4f9a5fb48561ed29f82e51f6bcbff5f",
                                    "value": {
                                        "current": "1",
                                        "prev": "620999999000000000000",
                                        "typeTag": 1
                                    }
                                }
                            ],
                            "typeTag": 4
                        }
                    }
                ]
            }
        ]
    }
}