{
    "balance_change": {
        "balanceChanges": [
            {
                "account": "0x004075e4d4b1ce6c48c81cc940e2bad24b489e64",
                "assets": [
                    {
                        "address": "0xc02aaa39b223fe8d0a0e5c4f27ead9083c756cc2",
                        "amount": "40",
                        "iconUrl": "https://assets.blocksec.com/icon/f1cb2d02c471d545bbc7722daf3277fd852d98e63d118771af7047bd8256c516.png",
                        "isERC1155": false,
                        "isERC721": false,
                        "sign": false,
                        "value": ""
                    }
                ]
            },
            {
                "account": "0x14fbca95be7e99c15cc2996c6c9d841e54b79425",
                "assets": [
                    {
                        "address": "0xc02aaa39b223fe8d0a0e5c4f27ead9083c756cc2",
                        "amount": "40",
                        "iconUrl": "https://assets.blocksec.com/icon/f1cb2d02c471d545bbc7722daf3277fd852d98e63d118771af7047bd8256c516.png",
                        "isERC1155": false,
                        "isERC721": false,
                        "sign": true,
                        "value": ""
                    }
                ]
            }
        ]
    },
    "profile": {
        "basic_info": {
            "baseFee": "",
            "blockNumber": 5302732,
            "callData": "0x1b33d4120000000000000000000000000000000000000000000000022b1c8c1227a00000000000000000000000000000c02aaa39b223fe8d0a0e5c4f27ead9083c756cc200000000000000000000000000000000000000000000048c126ce61ced49200000000000000000000000000089d24a6b4ccb1b6faa2625fe562bdd9a232603590000000000000000000000000000000000000000000000000000000000000000",
            "debugEnable": true,
            "errorInfo": "",
            "eventCount": 4,
            "feeRecipient": "0x5a0b54d5dc17e0aadc383d2db43b0a0d3e029c4c",
            "formatValue": "0",
            "gasLimit": 331071,
            "gasPrice": "22",
            "gasUsed": 231071,
            "intTxnCount": 1,
            "internalRevert": false,
            "internalRevertMessage": "",
            "isContractCreation": false,
            "isFlashloan": false,
            "maxFee": "",
            "nonce": 26127,
            "overwritedBlockNumber": -1,
            "priorityFee": "",
            "receiver": "0x14fbca95be7e99c15cc2996c6c9d841e54b79425",
            "revertMessage": "",
            "sender": "0x004075e4d4b1ce6c48c81cc940e2bad24b489e64",
            "simulationEnable": true,
            "sourceTxnHash": "0xbbf25dff83870649588962adbfbe03005cb54d4e574ac2b4f63693612f1fa466",
            "status": true,
            "timestamp": "2018-03-22T18:49:08Z",
            "transactionFee": "0.005083562",
            "txnHash": "0xbbf25dff83870649588962adbfbe03005cb54d4e574ac2b4f63693612f1fa466",
            "txnIndex": 12,
            "type": 0,
            "value": "0"
        },
        "fund_flow": [
            {
                "amount": "40",
                "from": "0x004075e4d4b1ce6c48c81cc940e2bad24b489e64",
                "id": 1,
                "isERC1155": false,
                "isERC721": false,
                "isReverted": false,
                "order": 1,
                "to": "0x14fbca95be7e99c15cc2996c6c9d841e54b79425",
                "token": "0xc02aaa39b223fe8d0a0e5c4f27ead9083c756cc2"
            }
        ],
        "token_infos": [
            {
                "address": "0xc02aaa39b223fe8d0a0e5c4f27ead9083c756cc2",
                "decimals": 18
            },
            {
                "address": "0xeeeeeeeeeeeeeeeeeeeeeeeeeeeeeeeeeeeeeeee",
                "decimals": 18
            }
        ]
    },
    "address_label": {
        "labels": [
            {
                "address": "0x0000000000000000000000000000000000000001",
                "label": "Precompiled"
            },
            {
                "address": "0x0000000000000000000000000000000000000002",
                "label": "Precompiled"
            },
            {
                "address": "0x0000000000000000000000000000000000000003",
                "label": "Precompiled"
            },
            {
                "address": "0x0000000000000000000000000000000000000004",
                "label": "Precompiled"
            },
            {
                "address": "0xeeeeeeeeeeeeeeeeeeeeeeeeeeeeeeeeeeeeeeee",
                "label": "Ether"
            },
            {
                "address": "0xc02aaa39b223fe8d0a0e5c4f27ead9083c756cc2",
                "label": "Wrapped Ether (WETH)"
            },
            {
                "address": "0x89d24a6b4ccb1b6faa2625fe562bdd9a23260359",
                "label": "Sai Stablecoin"
            },
            {
                "address": "0x14fbca95be7e99c15cc2996c6c9d841e54b79425",
                "label": "OasisDex: Old Contract 1"
            }
        ]
    },
    "trace": {
        "accountLabels": null,
        "dataMap": {
            "-1": {
                "invocation": {
                    "address": "0x004075e4d4b1ce6c48c81cc940e2bad24b489e64",
                    "callData": "",
                    "decodedMethod": null,
                    "errorInfo": "",
                    "fromAddress": "",
                    "gasUsed": 0,
                    "id": -1,
                    "methodDecoded": false,
                    "operation": "",
                    "output": "",
                    "revert": false,
                    "revertMessage": "",
                    "selector": "",
                    "status": false,
                    "value": ""
                },
                "nodeType": 0
            },
            "0": {
                "invocation": {
                    "address": "0x14fbca95be7e99c15cc2996c6c9d841e54b79425",
                    "callData": "0x0000000000000000000000000000000000000000000000022b1c8c1227a00000000000000000000000000000c02aaa39b223fe8d0a0e5c4f27ead9083c756cc200000000000000000000000000000000000000000000048c126ce61ced49200000000000000000000000000089d24a6b4ccb1b6faa2625fe562bdd9a232603590000000000000000000000000000000000000000000000000000000000000000",
                    "decodedMethod": {
                        "callParams": [
                            {
                                "name": "pay_amt",
                                "type": "uint256",
                                "value": "40,000,000,000,000,000,000"
                            },
                            {
                                "name": "pay_gem",
                                "type": "address",
                                "value": "0xc02aaa39b223fe8d0a0e5c4f27ead9083c756cc2"
                            },
                            {
                                "name": "buy_amt",
                                "type": "uint256",
                                "value": "21,473,337,790,800,000,000,000"
                            },
                            {
                                "name": "buy_gem",
                                "type": "address",
                                "value": "0x89d24a6b4ccb1b6faa2625fe562bdd9a23260359"
                            },
                            {
                                "name": "pos",
                                "type": "uint256",
                                "value": "0"
                            }
                        ],
                        "constructorArguments": "",
                        "name": "offer",
                        "returnParams": [
                            {
                                "name": "",
                                "type": "uint256",
                                "value": "33,382"
                            }
                        ],
                        "signature": "offer(uint256,address,uint256,address,uint256)"
                    },
                    "errorInfo": "",
                    "fromAddress": "0x004075e4d4b1ce6c48c81cc940e2bad24b489e64",
                    "gasUsed": 231071,
                    "id": 0,
                    "methodDecoded": true,
                    "operation": "CALL",
                    "output": "0x0000000000000000000000000000000000000000000000000000000000008266",
                    "revert": false,
                    "revertMessage": "",
                    "selector": "0x1b33d412",
                    "status": true,
                    "value": "0"
                },
                "nodeType": 0
            },
            "1": {
                "invocation": {
                    "address": "0xc02aaa39b223fe8d0a0e5c4f27ead9083c756cc2",
                    "callData": "0x000000000000000000000000004075e4d4b1ce6c48c81cc940e2bad24b489e6400000000000000000000000014fbca95be7e99c15cc2996c6c9d841e54b794250000000000000000000000000000000000000000000000022b1c8c1227a00000",
                    "decodedMethod": {
                        "callParams": [
                            {
                                "name": "src",
                                "type": "address",
                                "value": "0x004075e4d4b1ce6c48c81cc940e2bad24b489e64"
                            },
                            {
                                "name": "dst",
                                "type": "address",
                                "value": "0x14fbca95be7e99c15cc2996c6c9d841e54b79425"
                            },
                            {
                                "decimalAvailable": true,
                                "name": "wad",
                                "type": "uint256",
                                "value": "40,000,000,000,000,000,000"
                            }
                        ],
                        "constructorArguments": "",
                        "name": "transferFrom",
                        "returnParams": [
                            {
                                "name": "",
                                "type": "bool",
                                "value": true
                            }
                        ],
                        "signature": "transferFrom(address,address,uint256)"
                    },
                    "errorInfo": "",
                    "fromAddress": "0x14fbca95be7e99c15cc2996c6c9d841e54b79425",
                    "gasUsed": 13625,
                    "id": 1,
                    "methodDecoded": true,
                    "operation": "CALL",
                    "output": "0x0000000000000000000000000000000000000000000000000000000000000001",
                    "revert": false,
                    "revertMessage": "",
                    "selector": "0x23b872dd",
                    "status": true,
                    "value": "0"
                },
                "nodeType": 0
            },
            "2": {
                "event": {
                    "contract": "0xc02aaa39b223fe8d0a0e5c4f27ead9083c756cc2",
                    "decodedLog": {
                        "name": "Transfer",
                        "params": [
                            {
                                "name": "src",
                                "type": "address",
                                "value": "0x004075e4d4b1ce6c48c81cc940e2bad24b489e64"
                            },
                            {
                                "name": "dst",
                                "type": "address",
                                "value": "0x14fbca95be7e99c15cc2996c6c9d841e54b79425"
                            },
                            {
                                "decimalAvailable": true,
                                "name": "wad",
                                "type": "uint256",
                                "value": "40,000,000,000,000,000,000"
                            }
                        ],
                        "signature": "Transfer(address,address,uint256)"
                    },
                    "id": 2,
                    "logData": "0x0000000000000000000000000000000000000000000000022b1c8c1227a00000",
                    "logDecoded": true,
                    "operation": "EVENT",
                    "revert": false,
                    "status": true,
                    "topics": [
                        "0xddf252ad1be2c89b69c2b068fc378daa952ba7f163c4a11628f55a4df523b3ef",
                        "0x000000000000000000000000004075e4d4b1ce6c48c81cc940e2bad24b489e64",
                        "0x00000000000000000000000014fbca95be7e99c15cc2996c6c9d841e54b79425"
                    ]
                },
                "nodeType": 1
            },
            "3": {
                "event": {
                    "contract": "0x14fbca95be7e99c15cc2996c6c9d841e54b79425",
                    "decodedLog": {
                        "name": "LogItemUpdate",
                        "params": [
                            {
                                "name": "id",
                                "type": "uint256",
                                "value": "33,382"
                            }
                        ],
                        "signature": "LogItemUpdate(uint256)"
                    },
                    "id": 3,
                    "logData": "0x0000000000000000000000000000000000000000000000000000000000008266",
                    "logDecoded": true,
                    "operation": "EVENT",
                    "revert": false,
                    "status": true,
                    "topics": [
                        "0xa2c251311b1a7a475913900a2a73dc9789a21b04bc737e050bbc506dd4eb3488"
                    ]
                },
                "nodeType": 1
            },
            "4": {
                "event": {
                    "contract": "0x14fbca95be7e99c15cc2996c6c9d841e54b79425",
                    "decodedLog": {
                        "name": "LogMake",
                        "params": [
                            {
                                "name": "id",
                                "type": "bytes32",
                                "value": "0x0000000000000000000000000000000000000000000000000000000000008266"
                            },
                            {
                                "name": "pair",
                                "type": "bytes32",
                                "value": "0x9dd48110dcc444fdc242510c09bbbbe21a5975cac061d82f7b843bce061ba391"
                            },
                            {
                                "name": "maker",
                                "type": "address",
                                "value": "0x004075e4d4b1ce6c48c81cc940e2bad24b489e64"
                            },
                            {
                                "name": "pay_gem",
                                "type": "address",
                                "value": "0xc02aaa39b223fe8d0a0e5c4f27ead9083c756cc2"
                            },
                            {
                                "name": "buy_gem",
                                "type": "address",
                                "value": "0x89d24a6b4ccb1b6faa2625fe562bdd9a23260359"
                            },
                            {
                                "name": "pay_amt",
                                "type": "uint128",
                                "value": "40,000,000,000,000,000,000"
                            },
                            {
                                "name": "buy_amt",
                                "type": "uint128",
                                "value": "21,473,337,790,800,000,000,000"
                            },
                            {
                                "name": "timestamp",
                                "type": "uint64",
                                "value": "1,521,744,548"
                            }
                        ],
                        "signature": "LogMake(bytes32,bytes32,address,address,address,uint128,uint128,uint64)"
                    },
                    "id": 4,
                    "logData": "0x000000000000000000000000c02aaa39b223fe8d0a0e5c4f27ead9083c756cc200000000000000000000000089d24a6b4ccb1b6faa2625fe562bdd9a232603590000000000000000000000000000000000000000000000022b1c8c1227a0000000000000000000000000000000000000000000000000048c126ce61ced492000000000000000000000000000000000000000000000000000000000005ab3faa4",
                    "logDecoded": true,
                    "operation": "EVENT",
                    "revert": false,
                    "status": true,
                    "topics": [
                        "0x773ff502687307abfa024ac9f62f9752a0d210dac2ffd9a29e38e12e2ea82c82",
                        "0x0000000000000000000000000000000000000000000000000000000000008266",
                        "0x9dd48110dcc444fdc242510c09bbbbe21a5975cac061d82f7b843bce061ba391",
                        "0x000000000000000000000000004075e4d4b1ce6c48c81cc940e2bad24b489e64"
                    ]
                },
                "nodeType": 1
            },
            "5": {
                "event": {
                    "contract": "0x14fbca95be7e99c15cc2996c6c9d841e54b79425",
                    "decodedLog": {
                        "name": "LogSortedOffer",
                        "params": [
                            {
                                "name": "id",
                                "type": "uint256",
                                "value": "33,382"
                            }
                        ],
                        "signature": "LogSortedOffer(uint256)"
                    },
                    "id": 5,
                    "logData": "0x0000000000000000000000000000000000000000000000000000000000008266",
                    "logDecoded": true,
                    "operation": "EVENT",
                    "revert": false,
                    "status": true,
                    "topics": [
                        "0x20fb9bad86c18f7e22e8065258790d9416a7d2df8ff05f80f82c46d38b925acd"
                    ]
                },
                "nodeType": 1
            }
        },
        "gasFlame": [
            {
                "children": [
                    {
                        "children": [
                            {
                                "children": [],
                                "depth": 0,
                                "name": "Initial Gas",
                                "value": 25496
                            },
                            {
                                "children": [
                                    {
                                        "children": [],
                                        "depth": 1,
                                        "name": "transferFrom",
                                        "value": 13625
                                    }
                                ],
                                "depth": 0,
                                "name": "Executed Gas",
                                "value": 205575
                            }
                        ],
                        "depth": -1,
                        "name": "Actual Gas Used",
                        "value": 231071
                    },
                    {
                        "children": [],
                        "depth": -1,
                        "name": "Refunded Gas",
                        "value": 0
                    }
                ],
                "depth": -2,
                "name": "Total Gas",
                "value": 231071
            }
        ],
        "isConfirmed": true,
        "mainTrace": [
            {
                "children": [
                    {
                        "children": [
                            {
                                "children": [
                                    {
                                        "children": [],
                                        "depth": 2,
                                        "id": 2,
                                        "order": 2
                                    }
                                ],
                                "depth": 1,
                                "id": 1,
                                "order": 1
                            },
                            {
                                "children": [],
                                "depth": 1,
                                "id": 3,
                                "order": 3
                            },
                            {
                                "children": [],
                                "depth": 1,
                                "id": 4,
                                "order": 4
                            },
                            {
                                "children": [],
                                "depth": 1,
                                "id": 5,
                                "order": 5
                            }
                        ],
                        "depth": 0,
                        "id": 0,
                        "order": 0
                    }
                ],
                "depth": -1,
                "id": -1,
                "order": -1
            }
        ],
        "mainTraceNodeCount": 6,
        "parentIdMap": {
            "0": -1,
            "1": 0,
            "2": 1,
            "3": 0,
            "4": 0,
            "5": 0
        },
        "tidyTrace": [
            {
                "children": [
                    {
                        "children": [
                            {
                                "children": [
                                    {
                                        "children": [],
                                        "depth": 2,
                                        "id": 2,
                                        "order": 2
                                    }
                                ],
                                "depth": 1,
                                "id": 1,
                                "order": 1
                            },
                            {
                                "children": [],
                                "depth": 1,
                                "id": 3,
                                "order": 3
                            },
                            {
                                "children": [],
                                "depth": 1,
                                "id": 4,
                                "order": 4
                            },
                            {
                                "children": [],
                                "depth": 1,
                                "id": 5,
                                "order": 5
                            }
                        ],
                        "depth": 0,
                        "id": 0,
                        "order": 0
                    }
                ],
                "depth": -1,
                "id": -1,
                "order": -1
            }
        ],
        "tidyTraceNodeCount": 6
    },
    "state_change": {
        "stateChanges": [
            {
                "address": "0x14fbca95be7e99c15cc2996c6c9d841e54b79425",
                "erc": "",
                "slots": [
                    {
                        "current": "0x000000000000000000000000c02aaa39b223fe8d0a0e5c4f27ead9083c756cc2",
                        "key": "0xcce1b56b7d45650eec4b2d3660df708d68344606bae1157665bfcadda06f3140",
                        "prev": "0x0000000000000000000000000000000000000000000000000000000000000000"
                    },
                    {
                        "current": "0x00000000000000000000000000000000000000000000048c126ce61ced492000",
                        "key": "0xcce1b56b7d45650eec4b2d3660df708d68344606bae1157665bfcadda06f3141",
                        "prev": "0x0000000000000000000000000000000000000000000000000000000000000000"
                    },
                    {
                        "current": "0x0000000000000000000000000000000000000000000000000000000000000012",
                        "key": "0xcc9bd740ec949c1c5f14f207591d901e2f99f59fc9709ff11e2a59fbbccfa000",
                        "prev": "0x0000000000000000000000000000000000000000000000000000000000000011"
                    },
                    {
                        "current": "0x0000000000000000000000000000000000000000000000000000000000008266",
                        "key": "0x66dab1eaa02a0b1d7ba7b91da4c9881820bb1dab48c4359bb8374a9baaf74511",
                        "prev": "0x0000000000000000000000000000000000000000000000000000000000000000"
                    },
                    {
                        "current": "0x0000000000000000000000000000000000000000000000022b1c8c1227a00000",
                        "key": "0xcce1b56b7d45650eec4b2d3660df708d68344606bae1157665bfcadda06f313f",
                        "prev": "0x0000000000000000000000000000000000000000000000000000000000000000"
                    },
                    {
                        "current": "0x00000000000000000000000089d24a6b4ccb1b6faa2625fe562bdd9a23260359",
                        "key": "0xcce1b56b7d45650eec4b2d3660df708d68344606bae1157665bfcadda06f3142",
                        "prev": "0x0000000000000000000000000000000000000000000000000000000000000000"
                    },
                    {
                        "current": "0x00000000000000005ab3faa4004075e4d4b1ce6c48c81cc940e2bad24b489e64",
                        "key": "0xcce1b56b7d45650eec4b2d3660df708d68344606bae1157665bfcadda06f3143",
                        "prev": "0x0000000000000000000000000000000000000000000000000000000000000000"
                    },
                    {
                        "current": "0x0000000000000000000000000000000000000000000000000000000000008266",
                        "key": "0x0000000000000000000000000000000000000000000000000000000000000002",
                        "prev": "0x0000000000000000000000000000000000000000000000000000000000008265"
                    },
                    {
                        "current": "0x0000000000000000000000000000000000000000000000000000000000008266",
                        "key": "0x1e51de45c7be7ad8cf9e26a513239f593c80c41c0b9df15fc91ffa6e71f6a6bc",
                        "prev": "0x0000000000000000000000000000000000000000000000000000000000008235"
                    },
                    {
                        "current": "0x0000000000000000000000000000000000000000000000000000000000008235",
                        "key": "0xf2a519a87832c3bc7f114a0ff3723ee7ee3b278c14b3ac86cc9dcbb03c872b53",
                        "prev": "0x0000000000000000000000000000000000000000000000000000000000000000"
                    }
                ],
                "storageVariables": [
                    {
                        "name": "offers",
                        "type": "mapping(uint256 => struct SimpleMarket.OfferInfo)",
                        "value": {
                            "pairs": [
                                {
                                    "key": "33382",
                                    "value": {
                                        "fields": [
                                            {
                                                "name": "pay_amt",
                                                "type": "uint256",
                                                "value": {
                                                    "current": "40000000000000000000",
                                                    "prev": "0",
                                                    "typeTag": 1
                                                }
                                            },
                                            {
                                                "name": "pay_gem",
                                                "type": "contract ERC20",
                                                "value": {
                                                    "current": "0xc02aaa39b223fe8d0a0e5c4f27ead9083c756cc2",
                                                    "prev": "0x0000000000000000000000000000000000000000",
                                                    "typeTag": 1
                                                }
                                            },
                                            {
                                                "name": "buy_amt",
                                                "type": "uint256",
                                                "value": {
                                                    "current": "21473337790800000000000",
                                                    "prev": "0",
                                                    "typeTag": 1
                                                }
                                            },
                                            {
                                                "name": "buy_gem",
                                                "type": "contract ERC20",
                                                "value": {
                                                    "current": "0x89d24a6b4ccb1b6faa2625fe562bdd9a23260359",
                                                    "prev": "0x0000000000000000000000000000000000000000",
                                                    "typeTag": 1
                                                }
                                            },
                                            {
                                                "name": "owner",
                                                "type": "address",
                                                "value": {
                                                    "current": "0x004075e4d4b1ce6c48c81cc940e2bad24b489e64",
                                                    "prev": "0x0000000000000000000000000000000000000000",
                                                    "typeTag": 1
                                                }
                                            },
                                            {
                                                "name": "timestamp",
                                                "type": "uint64",
                                                "value": {
                                                    "current": "1521744548",
                                                    "prev": "0",
                                                    "typeTag": 1
                                                }
                                            }
                                        ],
                                        "typeTag": 3
                                    }
                                }
                            ],
                            "typeTag": 4
                        }
                    },
                    {
                        "name": "last_offer_id",
                        "type": "uint256",
                        "value": {
                            "current": "33382",
                            "prev": "33381",
                            "typeTag": 1
                        }
                    },
                    {
                        "name": "_best",
                        "type": "mapping(address => mapping(address => uint256))",
                        "value": {
                            "pairs": [
                                {
                                    "key": "0xc02aaa39b223fe8d0a0e5c4f27ead9083c756cc2",
                                    "value": {
                                        "pairs": [
                                            {
                                                "key": "0x89d24a6b4ccb1b6faa2625fe562bdd9a23260359",
                                                "value": {
                                                    "current": "33382",
                                                    "prev": "33333",
                                                    "typeTag": 1
                                                }
                                            }
                                        ],
                                        "typeTag": 4
                                    }
                                }
                            ],
                            "typeTag": 4
                        }
                    },
                    {
                        "name": "_rank",
                        "type": "mapping(uint256 => struct MatchingMarket.sortInfo)",
                        "value": {
                            "pairs": [
                                {
                                    "key": "33333",
                                    "value": {
                                        "fields": [
                                            {
                                                "name": "next",
                                                "type": "uint256",
                                                "value": {
                                                    "current": "33382",
                                                    "prev": "0",
                                                    "typeTag": 1
                                                }
                                            }
                                        ],
                                        "typeTag": 3
                                    }
                                },
                                {
                                    "key": "33382",
                                    "value": {
                                        "fields": [
                                            {
                                                "name": "prev",
                                                "type": "uint256",
                                                "value": {
                                                    "current": "33333",
                                                    "prev": "0",
                                                    "typeTag": 1
                                                }
                                            }
                                        ],
                                        "typeTag": 3
                                    }
                                }
                            ],
                            "typeTag": 4
                        }
                    },
                    {
                        "name": "_span",
                        "type": "mapping(address => mapping(address => uint256))",
                        "value": {
                            "pairs": [
                                {
                                    "key": "0xc02aaa39b223fe8d0a0e5c4f27ead9083c756cc2",
                                    "value": {
                                        "pairs": [
                                            {
                                                "key": "0x89d24a6b4ccb1b6faa2625fe562bdd9a23260359",
                                                "value": {
                                                    "current": "18",
                                                    "prev": "17",
                                                    "typeTag": 1
                                                }
                                            }
                                        ],
                                        "typeTag": 4
                                    }
                                }
                            ],
                            "typeTag": 4
                        }
                    }
                ]
            },
            {
                "address": "0xc02aaa39b223fe8d0a0e5c4f27ead9083c756cc2",
                "erc": "ERC-20",
                "slots": [
                    {
                        "current": "0x000000000000000000000000000000000000000000000000d54814b9b5277ddd",
                        "key": "0x307b718f2ee8a8929fb1a85977cb195949c7b36652cb609832a80dc69eb1fcaa",
                        "prev": "0x0000000000000000000000000000000000000000000000030064a0cbdcc77ddd"
                    },
                    {
                        "current": "0x00000000000000000000000000000000000000000000001e81ed252077a3656c",
                        "key": "0x832e1a35f35565a2f1345ed8ea1974659286dba97b08d51eae6ca45f9e05ec02",
                        "prev": "0x00000000000000000000000000000000000000000000001c56d0990e5003656c"
                    }
                ],
                "storageVariables": [
                    {
                        "name": "balanceOf",
                        "type": "mapping(address => uint256)",
                        "value": {
                            "pairs": [
                                {
                                    "key": "0x004075e4d4b1ce6c48c81cc940e2bad24b489e64",
                                    "value": {
                                        "current": "15368556516242587101",
                                        "prev": "55368556516242587101",
                                        "typeTag": 1
                                    }
                                },
                                {
                                    "key": "0x14fbca95be7e99c15cc2996c6c9d841e54b79425",
                                    "value": {
                                        "current": "562764502233036055916",
                                        "prev": "522764502233036055916",
                                        "typeTag": 1
                                    }
                                }
                            ],
                            "typeTag": 4
                        }
                    }
                ]
            }
        ]
    }
}