{
    "balance_change": {
        "balanceChanges": [
            {
                "account": "0xaa3ee038335ba66417cf63f2ead0978cca66a1a2",
                "assets": [
                    {
                        "address": "0x43afc9058a3debf37eadf99138e449ce8a480a8a",
                        "amount": "100",
                        "iconUrl": "",
                        "isERC1155": false,
                        "isERC721": false,
                        "sign": false,
                        "value": ""
                    }
                ]
            },
            {
                "account": "0x0bd06666a617732070ff5e4875a710776a9a0b10",
                "assets": [
                    {
                        "address": "0x43afc9058a3debf37eadf99138e449ce8a480a8a",
                        "amount": "100",
                        "iconUrl": "",
                        "isERC1155": false,
                        "isERC721": false,
                        "sign": true,
                        "value": ""
                    }
                ]
            }
        ]
    },
    "profile": {
        "basic_info": {
            "baseFee": "",
            "blockNumber": 8873619,
            "callData": "0xa9059cbb0000000000000000000000000bd06666a617732070ff5e4875a710776a9a0b100000000000000000000000000000000000000000000000056bc75e2d63100000",
            "debugEnable": true,
            "errorInfo": "",
            "eventCount": 1,
            "feeRecipient": "0x5a0b54d5dc17e0aadc383d2db43b0a0d3e029c4c",
            "formatValue": "0",
            "gasLimit": 90000,
            "gasPrice": "1",
            "gasUsed": 38526,
            "intTxnCount": 0,
            "internalRevert": false,
            "internalRevertMessage": "",
            "isContractCreation": false,
            "isFlashloan": false,
            "maxFee": "",
            "nonce": 91022,
            "overwritedBlockNumber": -1,
            "priorityFee": "",
            "receiver": "0x43afc9058a3debf37eadf99138e449ce8a480a8a",
            "revertMessage": "",
            "sender": "0xaa3ee038335ba66417cf63f2ead0978cca66a1a2",
            "simulationEnable": true,
            "sourceTxnHash": "0xbb7409dbb5ba1905ead122a7405f3b3ef9d9f8a642f89e213c0bc207886410d8",
            "status": true,
            "timestamp": "2019-11-04T21:13:12Z",
            "transactionFee": "0.000038526",
            "txnHash": "0xbb7409dbb5ba1905ead122a7405f3b3ef9d9f8a642f89e213c0bc207886410d8",
            "txnIndex": 29,
            "type": 0,
            "value": "0"
        },
        "fund_flow": [
            {
                "amount": "100",
                "from": "0xaa3ee038335ba66417cf63f2ead0978cca66a1a2",
                "id": 1,
                "isERC1155": false,
                "isERC721": false,
                "isReverted": false,
                "order": 1,
                "to": "0x0bd06666a617732070ff5e4875a710776a9a0b10",
                "token": "0x43afc9058a3debf37eadf99138e449ce8a480a8a"
            }
        ],
        "token_infos": [
            {
                "address": "0xeeeeeeeeeeeeeeeeeeeeeeeeeeeeeeeeeeeeeeee",
                "decimals": 18
            },
            {
                "address": "0x43afc9058a3debf37eadf99138e449ce8a480a8a",
                "decimals": 18
            },
            {
                "address": "0xc02aaa39b223fe8d0a0e5c4f27ead9083c756cc2",
                "decimals": 18
            }
        ]
    },
    "address_label": {
        "labels": [
            {
                "address": "0x0000000000000000000000000000000000000001",
                "label": "Precompiled"
            },
            {
                "address": "0x0000000000000000000000000000000000000002",
                "label": "Precompiled"
            },
            {
                "address": "0x0000000000000000000000000000000000000003",
                "label": "Precompiled"
            },
            {
                "address": "0x0000000000000000000000000000000000000004",
                "label": "Precompiled"
            },
            {
                "address": "0xeeeeeeeeeeeeeeeeeeeeeeeeeeeeeeeeeeeeeeee",
                "label": "Ether"
            },
            {
                "address": "0x43afc9058a3debf37eadf99138e449ce8a480a8a",
                "label": "STAMP (STAMP)"
            }
        ]
    },
    "trace": {
        "accountLabels": null,
        "dataMap": {
            "-1": {
                "invocation": {
                    "address": "0xaa3ee038335ba66417cf63f2ead0978cca66a1a2",
                    "callData": "",
                    "decodedMethod": null,
                    "errorInfo": "",
                    "fromAddress": "",
                    "gasUsed": 0,
                    "id": -1,
                    "methodDecoded": false,
                    "operation": "",
                    "output": "",
                    "revert": false,
                    "revertMessage": "",
                    "selector": "",
                    "status": false,
                    "value": ""
                },
                "nodeType": 0
            },
            "0": {
                "invocation": {
                    "address": "0x43afc9058a3debf37eadf99138e449ce8a480a8a",
                    "callData": "0x0000000000000000000000000bd06666a617732070ff5e4875a710776a9a0b100000000000000000000000000000000000000000000000056bc75e2d63100000",
                    "decodedMethod": {
                        "callParams": [
                            {
                                "name": "_to",
                                "type": "address",
                                "value": "0x0bd06666a617732070ff5e4875a710776a9a0b10"
                            },
                            {
                                "decimalAvailable": true,
                                "name": "_value",
                                "type": "uint256",
                                "value": "100,000,000,000,000,000,000"
                            }
                        ],
                        "constructorArguments": "",
                        "name": "transfer",
                        "returnParams": [
                            {
                                "name": "success",
                                "type": "bool",
                                "value": true
                            }
                        ],
                        "signature": "transfer(address,uint256)"
                    },
                    "errorInfo": "",
                    "fromAddress": "0xaa3ee038335ba66417cf63f2ead0978cca66a1a2",
                    "gasUsed": 38526,
                    "id": 0,
                    "methodDecoded": true,
                    "operation": "CALL",
                    "output": "0x0000000000000000000000000000000000000000000000000000000000000001",
                    "revert": false,
                    "revertMessage": "",
                    "selector": "0xa9059cbb",
                    "status": true,
                    "value": "0"
                },
                "nodeType": 0
            },
            "1": {
                "event": {
                    "contract": "0x43afc9058a3debf37eadf99138e449ce8a480a8a",
                    "decodedLog": {
                        "name": "Transfer",
                        "params": [
                            {
                                "name": "from",
                                "type": "address",
                                "value": "0xaa3ee038335ba66417cf63f2ead0978cca66a1a2"
                            },
                            {
                                "name": "to",
                                "type": "address",
                                "value": "0x0bd06666a617732070ff5e4875a710776a9a0b10"
                            },
                            {
                                "decimalAvailable": true,
                                "name": "value",
                                "type": "uint256",
                                "value": "100,000,000,000,000,000,000"
                            }
                        ],
                        "signature": "Transfer(address,address,uint256)"
                    },
                    "id": 1,
                    "logData": "0x0000000000000000000000000000000000000000000000056bc75e2d63100000",
                    "logDecoded": true,
                    "operation": "EVENT",
                    "revert": false,
                    "status": true,
                    "topics": [
                        "0xddf252ad1be2c89b69c2b068fc378daa952ba7f163c4a11628f55a4df523b3ef",
                        "0x000000000000000000000000aa3ee038335ba66417cf63f2ead0978cca66a1a2",
                        "0x0000000000000000000000000bd06666a617732070ff5e4875a710776a9a0b10"
                    ]
                },
                "nodeType": 1
            }
        },
        "gasFlame": [
            {
                "children": [
                    {
                        "children": [
                            {
                                "children": [],
                                "depth": 0,
                                "name": "Initial Gas",
                                "value": 23256
                            },
                            {
                                "children": [],
                                "depth": 0,
                                "name": "Executed Gas",
                                "value": 15270
                            }
                        ],
                        "depth": -1,
                        "name": "Actual Gas Used",
                        "value": 38526
                    },
                    {
                        "children": [],
                        "depth": -1,
                        "name": "Refunded Gas",
                        "value": 0
                    }
                ],
                "depth": -2,
                "name": "Total Gas",
                "value": 38526
            }
        ],
        "isConfirmed": true,
        "mainTrace": [
            {
                "children": [
                    {
                        "children": [
                            {
                                "children": [],
                                "depth": 1,
                                "id": 1,
                                "order": 1
                            }
                        ],
                        "depth": 0,
                        "id": 0,
                        "order": 0
                    }
                ],
                "depth": -1,
                "id": -1,
                "order": -1
            }
        ],
        "mainTraceNodeCount": 2,
        "parentIdMap": {
            "0": -1,
            "1": 0
        },
        "tidyTrace": [
            {
                "children": [
                    {
                        "children": [
                            {
                                "children": [],
                                "depth": 1,
                                "id": 1,
                                "order": 1
                            }
                        ],
                        "depth": 0,
                        "id": 0,
                        "order": 0
                    }
                ],
                "depth": -1,
                "id": -1,
                "order": -1
            }
        ],
        "tidyTraceNodeCount": 2
    },
    "state_change": {
        "stateChanges": [
            {
                "address": "0x43afc9058a3debf37eadf99138e449ce8a480a8a",
                "erc": "",
                "slots": [
                    {
                        "current": "0x0000000000000000000000000000000000000001416b529aa3bf7b26d6980000",
                        "key": "0x0d9c2b249becbc4bb3050a8660b3049760770368b69785cfea7a0eb509597868",
                        "prev": "0x0000000000000000000000000000000000000001416b52a00f86d95439a80000"
                    },
                    {
                        "current": "0x00000000000000000000000000000000000000000000003ba1910bf341b00000",
                        "key": "0x5f7a2ae922a89bca5f0832437513de9e6859920594ee2b371fe2125605ac921d",
                        "prev": "0x00000000000000000000000000000000000000000000003635c9adc5dea00000"
                    }
                ],
                "storageVariables": [
                    {
                        "name": "balanceOf",
                        "type": "mapping(address => uint256)",
                        "value": {
                            "pairs": [
                                {
                                    "key": "0x0bd06666a617732070ff5e4875a710776a9a0b10",
                                    "value": {
                                        "current": "1100000000000000000000",
                                        "prev": "1000000000000000000000",
                                        "typeTag": 1
                                    }
                                },
                                {
                                    "key": "0xaa3ee038335ba66417cf63f2ead0978cca66a1a2",
                                    "value": {
                                        "current": "99474433302000000000000000000",
                                        "prev": "99474433402000000000000000000",
                                        "typeTag": 1
                                    }
                                }
                            ],
                            "typeTag": 4
                        }
                    }
                ]
            }
        ]
    }
}