{
    "balance_change": {
        "balanceChanges": [
            {
                "account": "0x5f4c18a5167baaaafdd25c31f40b008dd28c04c9",
                "assets": [
                    {
                        "address": "0xab9f41ccc0ab1590160e130f3238f51b38a89b40",
                        "amount": "95,908,523",
                        "iconUrl": "",
                        "isERC1155": false,
                        "isERC721": false,
                        "sign": false,
                        "value": "98.95174844"
                    },
                    {
                        "address": "0xeeeeeeeeeeeeeeeeeeeeeeeeeeeeeeeeeeeeeeee",
                        "amount": "0.051936057032016937",
                        "iconUrl": "https://assets.blocksec.com/image/1663669189317-3.png",
                        "isERC1155": false,
                        "isERC721": false,
                        "sign": true,
                        "value": "119.8625592"
                    }
                ]
            },
            {
                "account": "0x18dd525f7b8bb98d54dd096fd405bb82b7d60dba",
                "assets": [
                    {
                        "address": "0xab9f41ccc0ab1590160e130f3238f51b38a89b40",
                        "amount": "164,908,523",
                        "iconUrl": "",
                        "isERC1155": false,
                        "isERC721": false,
                        "sign": true,
                        "value": "152.031891"
                    },
                    {
                        "address": "0xc02aaa39b223fe8d0a0e5c4f27ead9083c756cc2",
                        "amount": "0.091351481166929438",
                        "iconUrl": "https://assets.blocksec.com/icon/f1cb2d02c471d545bbc7722daf3277fd852d98e63d118771af7047bd8256c516.png",
                        "isERC1155": false,
                        "isERC721": false,
                        "sign": false,
                        "value": "210.8289104"
                    }
                ]
            },
            {
                "account": "0x480d2bce017cfc71f5101b381d9a83d88746eceb",
                "assets": [
                    {
                        "address": "0xeeeeeeeeeeeeeeeeeeeeeeeeeeeeeeeeeeeeeeee",
                        "amount": "0.039415424134912501",
                        "iconUrl": "https://assets.blocksec.com/image/1663669189317-3.png",
                        "isERC1155": false,
                        "isERC721": false,
                        "sign": true,
                        "value": "90.96635125"
                    }
                ]
            },
            {
                "account": "0xab9f41ccc0ab1590160e130f3238f51b38a89b40",
                "assets": [
                    {
                        "address": "0xab9f41ccc0ab1590160e130f3238f51b38a89b40",
                        "amount": "69,000,000",
                        "iconUrl": "",
                        "isERC1155": false,
                        "isERC721": false,
                        "sign": false,
                        "value": "67.8826301"
                    }
                ]
            },
            {
                "account": "0xc02aaa39b223fe8d0a0e5c4f27ead9083c756cc2",
                "assets": [
                    {
                        "address": "0xeeeeeeeeeeeeeeeeeeeeeeeeeeeeeeeeeeeeeeee",
                        "amount": "0.091351481166929438",
                        "iconUrl": "https://assets.blocksec.com/image/1663669189317-3.png",
                        "isERC1155": false,
                        "isERC721": false,
                        "sign": false,
                        "value": "210.8289104"
                    },
                    {
                        "address": "0xc02aaa39b223fe8d0a0e5c4f27ead9083c756cc2",
                        "amount": "0.091351481166929438",
                        "iconUrl": "https://assets.blocksec.com/icon/f1cb2d02c471d545bbc7722daf3277fd852d98e63d118771af7047bd8256c516.png",
                        "isERC1155": false,
                        "isERC721": false,
                        "sign": true,
                        "value": "210.8289104"
                    }
                ]
            }
        ]
    },
    "profile": {
        "basic_info": {
            "baseFee": "38.654238046",
            "blockNumber": 19139851,
            "callData": "0x791ac9470000000000000000000000000000000000000000000000000154bc4b2458ee000000000000000000000000000000000000000000000000000079dc02c36c356400000000000000000000000000000000000000000000000000000000000000a00000000000000000000000005f4c18a5167baaaafdd25c31f40b008dd28c04c90000000000000000000000000000000000000000000000000000000065bcb72c0000000000000000000000000000000000000000000000000000000000000002000000000000000000000000ab9f41ccc0ab1590160e130f3238f51b38a89b40000000000000000000000000c02aaa39b223fe8d0a0e5c4f27ead9083c756cc2",
            "debugEnable": true,
            "errorInfo": "",
            "eventCount": 13,
            "feeRecipient": "0x95222290dd7278aa3ddd389cc1e1d165cc4bafe5",
            "formatValue": "0",
            "gasLimit": 552288,
            "gasPrice": "43.654238046",
            "gasUsed": 245667,
            "intTxnCount": 27,
            "internalRevert": false,
            "internalRevertMessage": "",
            "isContractCreation": false,
            "isFlashloan": false,
            "maxFee": "53.921770026",
            "nonce": 64,
            "overwritedBlockNumber": -1,
            "priorityFee": "5",
            "receiver": "0x80a64c6d7f12c47b7c66c5b4e20e72bc1fcd5d9e",
            "revertMessage": "",
            "sender": "0x5f4c18a5167baaaafdd25c31f40b008dd28c04c9",
            "simulationEnable": true,
            "sourceTxnHash": "0xbbfc102066fdf212533a6c22a36a847b451f7c0838bcc17bbc8b6f3acedd856e",
            "status": true,
            "timestamp": "2024-02-02T09:34:35Z",
            "transactionFee": "0.010724405698046682",
            "txnHash": "0xbbfc102066fdf212533a6c22a36a847b451f7c0838bcc17bbc8b6f3acedd856e",
            "txnIndex": 11,
            "type": 2,
            "value": "0"
        },
        "fund_flow": [
            {
                "amount": "69,000,000",
                "from": "0xab9f41ccc0ab1590160e130f3238f51b38a89b40",
                "id": 1,
                "isERC1155": false,
                "isERC721": false,
                "isReverted": false,
                "order": 1,
                "to": "0x18dd525f7b8bb98d54dd096fd405bb82b7d60dba",
                "token": "0xab9f41ccc0ab1590160e130f3238f51b38a89b40"
            },
            {
                "amount": "0.039415424134912501",
                "from": "0x18dd525f7b8bb98d54dd096fd405bb82b7d60dba",
                "id": 2,
                "isERC1155": false,
                "isERC721": false,
                "isReverted": false,
                "order": 2,
                "to": "0x7a250d5630b4cf539739df2c5dacb4c659f2488d",
                "token": "0xc02aaa39b223fe8d0a0e5c4f27ead9083c756cc2"
            },
            {
                "amount": "0.039415424134912501",
                "from": "0xc02aaa39b223fe8d0a0e5c4f27ead9083c756cc2",
                "id": 3,
                "isERC1155": false,
                "isERC721": false,
                "isReverted": false,
                "order": 3,
                "to": "0x7a250d5630b4cf539739df2c5dacb4c659f2488d",
                "token": "0xeeeeeeeeeeeeeeeeeeeeeeeeeeeeeeeeeeeeeeee"
            },
            {
                "amount": "0.039415424134912501",
                "from": "0x7a250d5630b4cf539739df2c5dacb4c659f2488d",
                "id": 4,
                "isERC1155": false,
                "isERC721": false,
                "isReverted": false,
                "order": 4,
                "to": "0xc02aaa39b223fe8d0a0e5c4f27ead9083c756cc2",
                "token": "0xc02aaa39b223fe8d0a0e5c4f27ead9083c756cc2"
            },
            {
                "amount": "0.039415424134912501",
                "from": "0x7a250d5630b4cf539739df2c5dacb4c659f2488d",
                "id": 5,
                "isERC1155": false,
                "isERC721": false,
                "isReverted": false,
                "order": 5,
                "to": "0xab9f41ccc0ab1590160e130f3238f51b38a89b40",
                "token": "0xeeeeeeeeeeeeeeeeeeeeeeeeeeeeeeeeeeeeeeee"
            },
            {
                "amount": "0.039415424134912501",
                "from": "0xab9f41ccc0ab1590160e130f3238f51b38a89b40",
                "id": 6,
                "isERC1155": false,
                "isERC721": false,
                "isReverted": false,
                "order": 6,
                "to": "0x480d2bce017cfc71f5101b381d9a83d88746eceb",
                "token": "0xeeeeeeeeeeeeeeeeeeeeeeeeeeeeeeeeeeeeeeee"
            },
            {
                "amount": "95,908,523",
                "from": "0x5f4c18a5167baaaafdd25c31f40b008dd28c04c9",
                "id": 7,
                "isERC1155": false,
                "isERC721": false,
                "isReverted": false,
                "order": 7,
                "to": "0x18dd525f7b8bb98d54dd096fd405bb82b7d60dba",
                "token": "0xab9f41ccc0ab1590160e130f3238f51b38a89b40"
            },
            {
                "amount": "0.051936057032016937",
                "from": "0x18dd525f7b8bb98d54dd096fd405bb82b7d60dba",
                "id": 8,
                "isERC1155": false,
                "isERC721": false,
                "isReverted": false,
                "order": 8,
                "to": "0x80a64c6d7f12c47b7c66c5b4e20e72bc1fcd5d9e",
                "token": "0xc02aaa39b223fe8d0a0e5c4f27ead9083c756cc2"
            },
            {
                "amount": "0.051936057032016937",
                "from": "0xc02aaa39b223fe8d0a0e5c4f27ead9083c756cc2",
                "id": 9,
                "isERC1155": false,
                "isERC721": false,
                "isReverted": false,
                "order": 9,
                "to": "0x80a64c6d7f12c47b7c66c5b4e20e72bc1fcd5d9e",
                "token": "0xeeeeeeeeeeeeeeeeeeeeeeeeeeeeeeeeeeeeeeee"
            },
            {
                "amount": "0.051936057032016937",
                "from": "0x80a64c6d7f12c47b7c66c5b4e20e72bc1fcd5d9e",
                "id": 10,
                "isERC1155": false,
                "isERC721": false,
                "isReverted": false,
                "order": 10,
                "to": "0xc02aaa39b223fe8d0a0e5c4f27ead9083c756cc2",
                "token": "0xc02aaa39b223fe8d0a0e5c4f27ead9083c756cc2"
            },
            {
                "amount": "0.051936057032016937",
                "from": "0x80a64c6d7f12c47b7c66c5b4e20e72bc1fcd5d9e",
                "id": 11,
                "isERC1155": false,
                "isERC721": false,
                "isReverted": false,
                "order": 11,
                "to": "0x5f4c18a5167baaaafdd25c31f40b008dd28c04c9",
                "token": "0xeeeeeeeeeeeeeeeeeeeeeeeeeeeeeeeeeeeeeeee"
            }
        ],
        "token_infos": [
            {
                "address": "0xab9f41ccc0ab1590160e130f3238f51b38a89b40",
                "decimals": 9
            },
            {
                "address": "0xc02aaa39b223fe8d0a0e5c4f27ead9083c756cc2",
                "decimals": 18
            },
            {
                "address": "0xeeeeeeeeeeeeeeeeeeeeeeeeeeeeeeeeeeeeeeee",
                "decimals": 18
            }
        ]
    },
    "address_label": {
        "labels": [
            {
                "address": "0x80a64c6d7f12c47b7c66c5b4e20e72bc1fcd5d9e",
                "label": "Maestro: Router 2"
            },
            {
                "address": "0xab9f41ccc0ab1590160e130f3238f51b38a89b40",
                "label": "VISION"
            },
            {
                "address": "0x0000000000000000000000000000000000000001",
                "label": "Precompiled"
            },
            {
                "address": "0x0000000000000000000000000000000000000004",
                "label": "Precompiled"
            },
            {
                "address": "0xc02aaa39b223fe8d0a0e5c4f27ead9083c756cc2",
                "label": "Wrapped Ether (WETH)"
            },
            {
                "address": "0x7a250d5630b4cf539739df2c5dacb4c659f2488d",
                "label": "Uniswap V2: Router 2"
            },
            {
                "address": "0x18dd525f7b8bb98d54dd096fd405bb82b7d60dba",
                "label": "Uniswap V2: VISION 49"
            },
            {
                "address": "0x0000000000000000000000000000000000000002",
                "label": "Precompiled"
            },
            {
                "address": "0x0000000000000000000000000000000000000003",
                "label": "Precompiled"
            },
            {
                "address": "0xeeeeeeeeeeeeeeeeeeeeeeeeeeeeeeeeeeeeeeee",
                "label": "Ether"
            }
        ]
    },
    "trace": {
        "accountLabels": null,
        "dataMap": {
            "-1": {
                "invocation": {
                    "address": "0x5f4c18a5167baaaafdd25c31f40b008dd28c04c9",
                    "callData": "",
                    "decodedMethod": null,
                    "errorInfo": "",
                    "fromAddress": "",
                    "gasUsed": 0,
                    "id": -1,
                    "methodDecoded": false,
                    "operation": "",
                    "output": "",
                    "revert": false,
                    "revertMessage": "",
                    "selector": "",
                    "status": false,
                    "value": ""
                },
                "nodeType": 0
            },
            "0": {
                "invocation": {
                    "address": "0x80a64c6d7f12c47b7c66c5b4e20e72bc1fcd5d9e",
                    "callData": "0x0000000000000000000000000000000000000000000000000154bc4b2458ee000000000000000000000000000000000000000000000000000079dc02c36c356400000000000000000000000000000000000000000000000000000000000000a00000000000000000000000005f4c18a5167baaaafdd25c31f40b008dd28c04c90000000000000000000000000000000000000000000000000000000065bcb72c0000000000000000000000000000000000000000000000000000000000000002000000000000000000000000ab9f41ccc0ab1590160e130f3238f51b38a89b40000000000000000000000000c02aaa39b223fe8d0a0e5c4f27ead9083c756cc2",
                    "decodedMethod": {
                        "callParams": [
                            {
                                "name": "amountIn",
                                "type": "uint256",
                                "value": "95,908,523,000,000,000"
                            },
                            {
                                "name": "amountOutMin",
                                "type": "uint256",
                                "value": "34,300,376,608,683,364"
                            },
                            {
                                "name": "path",
                                "type": "address[]",
                                "value": [
                                    "0xab9f41ccc0ab1590160e130f3238f51b38a89b40",
                                    "0xc02aaa39b223fe8d0a0e5c4f27ead9083c756cc2"
                                ]
                            },
                            {
                                "name": "to",
                                "type": "address",
                                "value": "0x5f4c18a5167baaaafdd25c31f40b008dd28c04c9"
                            },
                            {
                                "name": "deadline",
                                "type": "uint256",
                                "value": "1,706,866,476"
                            }
                        ],
                        "constructorArguments": "",
                        "name": "swapExactTokensForETHSupportingFeeOnTransferTokens",
                        "returnParams": [],
                        "signature": "swapExactTokensForETHSupportingFeeOnTransferTokens(uint256,uint256,address[],address,uint256)"
                    },
                    "errorInfo": "",
                    "fromAddress": "0x5f4c18a5167baaaafdd25c31f40b008dd28c04c9",
                    "gasUsed": 245667,
                    "id": 0,
                    "methodDecoded": true,
                    "operation": "CALL",
                    "output": "",
                    "revert": false,
                    "revertMessage": "",
                    "selector": "0x791ac947",
                    "status": true,
                    "value": "0"
                },
                "nodeType": 0
            },
            "1": {
                "invocation": {
                    "address": "0x6599ae06914f1f5ec0053d3f475348d40e608442",
                    "callData": "0x0000000000000000000000000000000000000000000000000154bc4b2458ee000000000000000000000000000000000000000000000000000079dc02c36c356400000000000000000000000000000000000000000000000000000000000000a00000000000000000000000005f4c18a5167baaaafdd25c31f40b008dd28c04c90000000000000000000000000000000000000000000000000000000065bcb72c0000000000000000000000000000000000000000000000000000000000000002000000000000000000000000ab9f41ccc0ab1590160e130f3238f51b38a89b40000000000000000000000000c02aaa39b223fe8d0a0e5c4f27ead9083c756cc2",
                    "decodedMethod": {
                        "callParams": [
                            {
                                "name": "amountIn",
                                "type": "uint256",
                                "value": "95,908,523,000,000,000"
                            },
                            {
                                "name": "amountOutMin",
                                "type": "uint256",
                                "value": "34,300,376,608,683,364"
                            },
                            {
                                "name": "path",
                                "type": "address[]",
                                "value": [
                                    "0xab9f41ccc0ab1590160e130f3238f51b38a89b40",
                                    "0xc02aaa39b223fe8d0a0e5c4f27ead9083c756cc2"
                                ]
                            },
                            {
                                "name": "to",
                                "type": "address",
                                "value": "0x5f4c18a5167baaaafdd25c31f40b008dd28c04c9"
                            },
                            {
                                "name": "deadline",
                                "type": "uint256",
                                "value": "1,706,866,476"
                            }
                        ],
                        "constructorArguments": "",
                        "name": "swapExactTokensForETHSupportingFeeOnTransferTokens",
                        "returnParams": [],
                        "signature": "swapExactTokensForETHSupportingFeeOnTransferTokens(uint256,uint256,address[],address,uint256)"
                    },
                    "errorInfo": "",
                    "fromAddress": "0x80a64c6d7f12c47b7c66c5b4e20e72bc1fcd5d9e",
                    "gasUsed": 279171,
                    "id": 1,
                    "methodDecoded": true,
                    "operation": "DELEGATECALL",
                    "output": "",
                    "revert": false,
                    "revertMessage": "",
                    "selector": "0x791ac947",
                    "status": true,
                    "value": "0"
                },
                "nodeType": 0
            },
            "10": {
                "invocation": {
                    "address": "0xab9f41ccc0ab1590160e130f3238f51b38a89b40",
                    "callData": "0x00000000000000000000000018dd525f7b8bb98d54dd096fd405bb82b7d60dba",
                    "decodedMethod": {
                        "callParams": [
                            {
                                "name": "account",
                                "type": "address",
                                "value": "0x18dd525f7b8bb98d54dd096fd405bb82b7d60dba"
                            }
                        ],
                        "constructorArguments": "",
                        "name": "balanceOf",
                        "returnParams": [
                            {
                                "decimalAvailable": true,
                                "name": "",
                                "type": "uint256",
                                "value": "3,068,347,047,376,203,316"
                            }
                        ],
                        "signature": "balanceOf(address)"
                    },
                    "errorInfo": "",
                    "fromAddress": "0x7a250d5630b4cf539739df2c5dacb4c659f2488d",
                    "gasUsed": 639,
                    "id": 10,
                    "methodDecoded": true,
                    "operation": "STATICCALL",
                    "output": "0x0000000000000000000000000000000000000000000000002a94f561fe7a2e34",
                    "revert": false,
                    "revertMessage": "",
                    "selector": "0x70a08231",
                    "status": true,
                    "value": "0"
                },
                "nodeType": 0
            },
            "11": {
                "invocation": {
                    "address": "0x18dd525f7b8bb98d54dd096fd405bb82b7d60dba",
                    "callData": "0x0000000000000000000000000000000000000000000000000000000000000000000000000000000000000000000000000000000000000000008c081e923b99f50000000000000000000000007a250d5630b4cf539739df2c5dacb4c659f2488d00000000000000000000000000000000000000000000000000000000000000800000000000000000000000000000000000000000000000000000000000000000",
                    "decodedMethod": {
                        "callParams": [
                            {
                                "name": "amount0Out",
                                "type": "uint256",
                                "value": "0"
                            },
                            {
                                "name": "amount1Out",
                                "type": "uint256",
                                "value": "39,415,424,134,912,501"
                            },
                            {
                                "name": "to",
                                "type": "address",
                                "value": "0x7a250d5630b4cf539739df2c5dacb4c659f2488d"
                            },
                            {
                                "name": "data",
                                "type": "bytes",
                                "value": "0x"
                            }
                        ],
                        "constructorArguments": "",
                        "name": "swap",
                        "returnParams": [],
                        "signature": "swap(uint256,uint256,address,bytes)"
                    },
                    "errorInfo": "",
                    "fromAddress": "0x7a250d5630b4cf539739df2c5dacb4c659f2488d",
                    "gasUsed": 54542,
                    "id": 11,
                    "methodDecoded": true,
                    "operation": "CALL",
                    "output": "",
                    "revert": false,
                    "revertMessage": "",
                    "selector": "0x022c0d9f",
                    "status": true,
                    "value": "0"
                },
                "nodeType": 0
            },
            "12": {
                "invocation": {
                    "address": "0xc02aaa39b223fe8d0a0e5c4f27ead9083c756cc2",
                    "callData": "0x0000000000000000000000007a250d5630b4cf539739df2c5dacb4c659f2488d000000000000000000000000000000000000000000000000008c081e923b99f5",
                    "decodedMethod": {
                        "callParams": [
                            {
                                "name": "dst",
                                "type": "address",
                                "value": "0x7a250d5630b4cf539739df2c5dacb4c659f2488d"
                            },
                            {
                                "decimalAvailable": true,
                                "name": "wad",
                                "type": "uint256",
                                "value": "39,415,424,134,912,501"
                            }
                        ],
                        "constructorArguments": "",
                        "name": "transfer",
                        "returnParams": [
                            {
                                "name": "",
                                "type": "bool",
                                "value": true
                            }
                        ],
                        "signature": "transfer(address,uint256)"
                    },
                    "errorInfo": "",
                    "fromAddress": "0x18dd525f7b8bb98d54dd096fd405bb82b7d60dba",
                    "gasUsed": 29962,
                    "id": 12,
                    "methodDecoded": true,
                    "operation": "CALL",
                    "output": "0x0000000000000000000000000000000000000000000000000000000000000001",
                    "revert": false,
                    "revertMessage": "",
                    "selector": "0xa9059cbb",
                    "status": true,
                    "value": "0"
                },
                "nodeType": 0
            },
            "13": {
                "event": {
                    "contract": "0xc02aaa39b223fe8d0a0e5c4f27ead9083c756cc2",
                    "decodedLog": {
                        "name": "Transfer",
                        "params": [
                            {
                                "name": "src",
                                "type": "address",
                                "value": "0x18dd525f7b8bb98d54dd096fd405bb82b7d60dba"
                            },
                            {
                                "name": "dst",
                                "type": "address",
                                "value": "0x7a250d5630b4cf539739df2c5dacb4c659f2488d"
                            },
                            {
                                "decimalAvailable": true,
                                "name": "wad",
                                "type": "uint256",
                                "value": "39,415,424,134,912,501"
                            }
                        ],
                        "signature": "Transfer(address,address,uint256)"
                    },
                    "id": 13,
                    "logData": "0x000000000000000000000000000000000000000000000000008c081e923b99f5",
                    "logDecoded": true,
                    "operation": "EVENT",
                    "revert": false,
                    "status": true,
                    "topics": [
                        "0xddf252ad1be2c89b69c2b068fc378daa952ba7f163c4a11628f55a4df523b3ef",
                        "0x00000000000000000000000018dd525f7b8bb98d54dd096fd405bb82b7d60dba",
                        "0x0000000000000000000000007a250d5630b4cf539739df2c5dacb4c659f2488d"
                    ]
                },
                "nodeType": 1
            },
            "14": {
                "invocation": {
                    "address": "0xab9f41ccc0ab1590160e130f3238f51b38a89b40",
                    "callData": "0x00000000000000000000000018dd525f7b8bb98d54dd096fd405bb82b7d60dba",
                    "decodedMethod": {
                        "callParams": [
                            {
                                "name": "account",
                                "type": "address",
                                "value": "0x18dd525f7b8bb98d54dd096fd405bb82b7d60dba"
                            }
                        ],
                        "constructorArguments": "",
                        "name": "balanceOf",
                        "returnParams": [
                            {
                                "decimalAvailable": true,
                                "name": "",
                                "type": "uint256",
                                "value": "3,068,347,047,376,203,316"
                            }
                        ],
                        "signature": "balanceOf(address)"
                    },
                    "errorInfo": "",
                    "fromAddress": "0x18dd525f7b8bb98d54dd096fd405bb82b7d60dba",
                    "gasUsed": 639,
                    "id": 14,
                    "methodDecoded": true,
                    "operation": "STATICCALL",
                    "output": "0x0000000000000000000000000000000000000000000000002a94f561fe7a2e34",
                    "revert": false,
                    "revertMessage": "",
                    "selector": "0x70a08231",
                    "status": true,
                    "value": "0"
                },
                "nodeType": 0
            },
            "15": {
                "invocation": {
                    "address": "0xc02aaa39b223fe8d0a0e5c4f27ead9083c756cc2",
                    "callData": "0x00000000000000000000000018dd525f7b8bb98d54dd096fd405bb82b7d60dba",
                    "decodedMethod": {
                        "callParams": [
                            {
                                "name": "",
                                "type": "address",
                                "value": "0x18dd525f7b8bb98d54dd096fd405bb82b7d60dba"
                            }
                        ],
                        "constructorArguments": "",
                        "name": "balanceOf",
                        "returnParams": [
                            {
                                "decimalAvailable": true,
                                "name": "",
                                "type": "uint256",
                                "value": "1,718,496,591,224,841,967"
                            }
                        ],
                        "signature": "balanceOf(address)"
                    },
                    "errorInfo": "",
                    "fromAddress": "0x18dd525f7b8bb98d54dd096fd405bb82b7d60dba",
                    "gasUsed": 534,
                    "id": 15,
                    "methodDecoded": true,
                    "operation": "STATICCALL",
                    "output": "0x00000000000000000000000000000000000000000000000017d9538b73ad26ef",
                    "revert": false,
                    "revertMessage": "",
                    "selector": "0x70a08231",
                    "status": true,
                    "value": "0"
                },
                "nodeType": 0
            },
            "16": {
                "event": {
                    "contract": "0x18dd525f7b8bb98d54dd096fd405bb82b7d60dba",
                    "decodedLog": {
                        "name": "Sync",
                        "params": [
                            {
                                "name": "reserve0",
                                "type": "uint112",
                                "value": "3,068,347,047,376,203,316"
                            },
                            {
                                "name": "reserve1",
                                "type": "uint112",
                                "value": "1,718,496,591,224,841,967"
                            }
                        ],
                        "signature": "Sync(uint112,uint112)"
                    },
                    "id": 16,
                    "logData": "0x0000000000000000000000000000000000000000000000002a94f561fe7a2e3400000000000000000000000000000000000000000000000017d9538b73ad26ef",
                    "logDecoded": true,
                    "operation": "EVENT",
                    "revert": false,
                    "status": true,
                    "topics": [
                        "0x1c411e9a96e071241c2f21f7726b17ae89e3cab4c78be50e062b03a9fffbbad1"
                    ]
                },
                "nodeType": 1
            },
            "17": {
                "event": {
                    "contract": "0x18dd525f7b8bb98d54dd096fd405bb82b7d60dba",
                    "decodedLog": {
                        "name": "Swap",
                        "params": [
                            {
                                "name": "sender",
                                "type": "address",
                                "value": "0x7a250d5630b4cf539739df2c5dacb4c659f2488d"
                            },
                            {
                                "name": "to",
                                "type": "address",
                                "value": "0x7a250d5630b4cf539739df2c5dacb4c659f2488d"
                            },
                            {
                                "name": "amount0In",
                                "type": "uint256",
                                "value": "69,000,000,000,000,000"
                            },
                            {
                                "name": "amount1In",
                                "type": "uint256",
                                "value": "0"
                            },
                            {
                                "name": "amount0Out",
                                "type": "uint256",
                                "value": "0"
                            },
                            {
                                "name": "amount1Out",
                                "type": "uint256",
                                "value": "39,415,424,134,912,501"
                            }
                        ],
                        "signature": "Swap(address,uint256,uint256,uint256,uint256,address)"
                    },
                    "id": 17,
                    "logData": "0x00000000000000000000000000000000000000000000000000f523226980800000000000000000000000000000000000000000000000000000000000000000000000000000000000000000000000000000000000000000000000000000000000000000000000000000000000000000000000000000000000008c081e923b99f5",
                    "logDecoded": true,
                    "operation": "EVENT",
                    "revert": false,
                    "status": true,
                    "topics": [
                        "0xd78ad95fa46c994b6551d0da85fc275fe613ce37657fb8d5e3d130840159d822",
                        "0x0000000000000000000000007a250d5630b4cf539739df2c5dacb4c659f2488d",
                        "0x0000000000000000000000007a250d5630b4cf539739df2c5dacb4c659f2488d"
                    ]
                },
                "nodeType": 1
            },
            "18": {
                "invocation": {
                    "address": "0xc02aaa39b223fe8d0a0e5c4f27ead9083c756cc2",
                    "callData": "0x0000000000000000000000007a250d5630b4cf539739df2c5dacb4c659f2488d",
                    "decodedMethod": {
                        "callParams": [
                            {
                                "name": "",
                                "type": "address",
                                "value": "0x7a250d5630b4cf539739df2c5dacb4c659f2488d"
                            }
                        ],
                        "constructorArguments": "",
                        "name": "balanceOf",
                        "returnParams": [
                            {
                                "decimalAvailable": true,
                                "name": "",
                                "type": "uint256",
                                "value": "39,415,424,134,912,501"
                            }
                        ],
                        "signature": "balanceOf(address)"
                    },
                    "errorInfo": "",
                    "fromAddress": "0x7a250d5630b4cf539739df2c5dacb4c659f2488d",
                    "gasUsed": 534,
                    "id": 18,
                    "methodDecoded": true,
                    "operation": "STATICCALL",
                    "output": "0x000000000000000000000000000000000000000000000000008c081e923b99f5",
                    "revert": false,
                    "revertMessage": "",
                    "selector": "0x70a08231",
                    "status": true,
                    "value": "0"
                },
                "nodeType": 0
            },
            "19": {
                "invocation": {
                    "address": "0xc02aaa39b223fe8d0a0e5c4f27ead9083c756cc2",
                    "callData": "0x000000000000000000000000000000000000000000000000008c081e923b99f5",
                    "decodedMethod": {
                        "callParams": [
                            {
                                "name": "wad",
                                "type": "uint256",
                                "value": "39,415,424,134,912,501"
                            }
                        ],
                        "constructorArguments": "",
                        "name": "withdraw",
                        "returnParams": [],
                        "signature": "withdraw(uint256)"
                    },
                    "errorInfo": "",
                    "fromAddress": "0x7a250d5630b4cf539739df2c5dacb4c659f2488d",
                    "gasUsed": 9223,
                    "id": 19,
                    "methodDecoded": true,
                    "operation": "CALL",
                    "output": "",
                    "revert": false,
                    "revertMessage": "",
                    "selector": "0x2e1a7d4d",
                    "status": true,
                    "value": "0"
                },
                "nodeType": 0
            },
            "2": {
                "invocation": {
                    "address": "0xab9f41ccc0ab1590160e130f3238f51b38a89b40",
                    "callData": "0x0000000000000000000000005f4c18a5167baaaafdd25c31f40b008dd28c04c900000000000000000000000018dd525f7b8bb98d54dd096fd405bb82b7d60dba0000000000000000000000000000000000000000000000000154bc4b2458ee00",
                    "decodedMethod": {
                        "callParams": [
                            {
                                "name": "sender",
                                "type": "address",
                                "value": "0x5f4c18a5167baaaafdd25c31f40b008dd28c04c9"
                            },
                            {
                                "name": "recipient",
                                "type": "address",
                                "value": "0x18dd525f7b8bb98d54dd096fd405bb82b7d60dba"
                            },
                            {
                                "decimalAvailable": true,
                                "name": "amount",
                                "type": "uint256",
                                "value": "95,908,523,000,000,000"
                            }
                        ],
                        "constructorArguments": "",
                        "name": "transferFrom",
                        "returnParams": [
                            {
                                "name": "",
                                "type": "bool",
                                "value": true
                            }
                        ],
                        "signature": "transferFrom(address,address,uint256)"
                    },
                    "errorInfo": "",
                    "fromAddress": "0x80a64c6d7f12c47b7c66c5b4e20e72bc1fcd5d9e",
                    "gasUsed": 205596,
                    "id": 2,
                    "methodDecoded": true,
                    "operation": "CALL",
                    "output": "0x0000000000000000000000000000000000000000000000000000000000000001",
                    "revert": false,
                    "revertMessage": "",
                    "selector": "0x23b872dd",
                    "status": true,
                    "value": "0"
                },
                "nodeType": 0
            },
            "20": {
                "invocation": {
                    "address": "0x7a250d5630b4cf539739df2c5dacb4c659f2488d",
                    "callData": "0x",
                    "decodedMethod": null,
                    "errorInfo": "",
                    "fromAddress": "0xc02aaa39b223fe8d0a0e5c4f27ead9083c756cc2",
                    "gasUsed": 83,
                    "id": 20,
                    "methodDecoded": false,
                    "operation": "CALL",
                    "output": "",
                    "revert": false,
                    "revertMessage": "",
                    "selector": "fallback",
                    "status": true,
                    "value": "0.039415424134912501"
                },
                "nodeType": 0
            },
            "21": {
                "event": {
                    "contract": "0xc02aaa39b223fe8d0a0e5c4f27ead9083c756cc2",
                    "decodedLog": {
                        "name": "Withdrawal",
                        "params": [
                            {
                                "name": "src",
                                "type": "address",
                                "value": "0x7a250d5630b4cf539739df2c5dacb4c659f2488d"
                            },
                            {
                                "name": "wad",
                                "type": "uint256",
                                "value": "39,415,424,134,912,501"
                            }
                        ],
                        "signature": "Withdrawal(address,uint256)"
                    },
                    "id": 21,
                    "logData": "0x000000000000000000000000000000000000000000000000008c081e923b99f5",
                    "logDecoded": true,
                    "operation": "EVENT",
                    "revert": false,
                    "status": true,
                    "topics": [
                        "0x7fcf532c15f0a6db0bd6d0e038bea71d30d808c7d98cb3bf7268a95bf5081b65",
                        "0x0000000000000000000000007a250d5630b4cf539739df2c5dacb4c659f2488d"
                    ]
                },
                "nodeType": 1
            },
            "22": {
                "invocation": {
                    "address": "0xab9f41ccc0ab1590160e130f3238f51b38a89b40",
                    "callData": "0x",
                    "decodedMethod": null,
                    "errorInfo": "",
                    "fromAddress": "0x7a250d5630b4cf539739df2c5dacb4c659f2488d",
                    "gasUsed": 55,
                    "id": 22,
                    "methodDecoded": false,
                    "operation": "CALL",
                    "output": "",
                    "revert": false,
                    "revertMessage": "",
                    "selector": "fallback",
                    "status": true,
                    "value": "0.039415424134912501"
                },
                "nodeType": 0
            },
            "23": {
                "invocation": {
                    "address": "0x480d2bce017cfc71f5101b381d9a83d88746eceb",
                    "callData": "0x",
                    "decodedMethod": null,
                    "errorInfo": "",
                    "fromAddress": "0xab9f41ccc0ab1590160e130f3238f51b38a89b40",
                    "gasUsed": 0,
                    "id": 23,
                    "methodDecoded": false,
                    "operation": "CALL",
                    "output": "",
                    "revert": false,
                    "revertMessage": "",
                    "selector": "fallback",
                    "status": true,
                    "value": "0.039415424134912501"
                },
                "nodeType": 0
            },
            "24": {
                "event": {
                    "contract": "0xab9f41ccc0ab1590160e130f3238f51b38a89b40",
                    "decodedLog": {
                        "name": "Transfer",
                        "params": [
                            {
                                "name": "from",
                                "type": "address",
                                "value": "0x5f4c18a5167baaaafdd25c31f40b008dd28c04c9"
                            },
                            {
                                "name": "to",
                                "type": "address",
                                "value": "0x18dd525f7b8bb98d54dd096fd405bb82b7d60dba"
                            },
                            {
                                "decimalAvailable": true,
                                "name": "value",
                                "type": "uint256",
                                "value": "95,908,523,000,000,000"
                            }
                        ],
                        "signature": "Transfer(address,address,uint256)"
                    },
                    "id": 24,
                    "logData": "0x0000000000000000000000000000000000000000000000000154bc4b2458ee00",
                    "logDecoded": true,
                    "operation": "EVENT",
                    "revert": false,
                    "status": true,
                    "topics": [
                        "0xddf252ad1be2c89b69c2b068fc378daa952ba7f163c4a11628f55a4df523b3ef",
                        "0x0000000000000000000000005f4c18a5167baaaafdd25c31f40b008dd28c04c9",
                        "0x00000000000000000000000018dd525f7b8bb98d54dd096fd405bb82b7d60dba"
                    ]
                },
                "nodeType": 1
            },
            "25": {
                "event": {
                    "contract": "0xab9f41ccc0ab1590160e130f3238f51b38a89b40",
                    "decodedLog": {
                        "name": "Approval",
                        "params": [
                            {
                                "name": "owner",
                                "type": "address",
                                "value": "0x5f4c18a5167baaaafdd25c31f40b008dd28c04c9"
                            },
                            {
                                "name": "spender",
                                "type": "address",
                                "value": "0x80a64c6d7f12c47b7c66c5b4e20e72bc1fcd5d9e"
                            },
                            {
                                "decimalAvailable": true,
                                "name": "value",
                                "type": "uint256",
                                "value": "115,792,089,237,316,195,423,570,985,008,687,907,853,269,984,665,640,564,039,457,488,099,390,129,639,935"
                            }
                        ],
                        "signature": "Approval(address,address,uint256)"
                    },
                    "id": 25,
                    "logData": "0xfffffffffffffffffffffffffffffffffffffffffffffffffeab43b4dba711ff",
                    "logDecoded": true,
                    "operation": "EVENT",
                    "revert": false,
                    "status": true,
                    "topics": [
                        "0x8c5be1e5ebec7d5bd14f71427d1e84f3dd0314c0f7b2291e5b200ac8c7c3b925",
                        "0x0000000000000000000000005f4c18a5167baaaafdd25c31f40b008dd28c04c9",
                        "0x00000000000000000000000080a64c6d7f12c47b7c66c5b4e20e72bc1fcd5d9e"
                    ]
                },
                "nodeType": 1
            },
            "26": {
                "invocation": {
                    "address": "0x18dd525f7b8bb98d54dd096fd405bb82b7d60dba",
                    "callData": "0x",
                    "decodedMethod": {
                        "callParams": [],
                        "constructorArguments": "",
                        "name": "getReserves",
                        "returnParams": [
                            {
                                "name": "_reserve0",
                                "type": "uint112",
                                "value": "3,068,347,047,376,203,316"
                            },
                            {
                                "name": "_reserve1",
                                "type": "uint112",
                                "value": "1,718,496,591,224,841,967"
                            },
                            {
                                "name": "_blockTimestampLast",
                                "type": "uint32",
                                "value": "1,706,866,475"
                            }
                        ],
                        "signature": "getReserves()"
                    },
                    "errorInfo": "",
                    "fromAddress": "0x80a64c6d7f12c47b7c66c5b4e20e72bc1fcd5d9e",
                    "gasUsed": 504,
                    "id": 26,
                    "methodDecoded": true,
                    "operation": "STATICCALL",
                    "output": "0x0000000000000000000000000000000000000000000000002a94f561fe7a2e3400000000000000000000000000000000000000000000000017d9538b73ad26ef0000000000000000000000000000000000000000000000000000000065bcb72b",
                    "revert": false,
                    "revertMessage": "",
                    "selector": "0x0902f1ac",
                    "status": true,
                    "value": "0"
                },
                "nodeType": 0
            },
            "27": {
                "invocation": {
                    "address": "0xab9f41ccc0ab1590160e130f3238f51b38a89b40",
                    "callData": "0x00000000000000000000000018dd525f7b8bb98d54dd096fd405bb82b7d60dba",
                    "decodedMethod": {
                        "callParams": [
                            {
                                "name": "account",
                                "type": "address",
                                "value": "0x18dd525f7b8bb98d54dd096fd405bb82b7d60dba"
                            }
                        ],
                        "constructorArguments": "",
                        "name": "balanceOf",
                        "returnParams": [
                            {
                                "decimalAvailable": true,
                                "name": "",
                                "type": "uint256",
                                "value": "3,164,255,570,376,203,316"
                            }
                        ],
                        "signature": "balanceOf(address)"
                    },
                    "errorInfo": "",
                    "fromAddress": "0x80a64c6d7f12c47b7c66c5b4e20e72bc1fcd5d9e",
                    "gasUsed": 639,
                    "id": 27,
                    "methodDecoded": true,
                    "operation": "STATICCALL",
                    "output": "0x0000000000000000000000000000000000000000000000002be9b1ad22d31c34",
                    "revert": false,
                    "revertMessage": "",
                    "selector": "0x70a08231",
                    "status": true,
                    "value": "0"
                },
                "nodeType": 0
            },
            "28": {
                "invocation": {
                    "address": "0x18dd525f7b8bb98d54dd096fd405bb82b7d60dba",
                    "callData": "0x000000000000000000000000000000000000000000000000000000000000000000000000000000000000000000000000000000000000000000b88391966d842900000000000000000000000080a64c6d7f12c47b7c66c5b4e20e72bc1fcd5d9e00000000000000000000000000000000000000000000000000000000000000800000000000000000000000000000000000000000000000000000000000000000",
                    "decodedMethod": {
                        "callParams": [
                            {
                                "name": "amount0Out",
                                "type": "uint256",
                                "value": "0"
                            },
                            {
                                "name": "amount1Out",
                                "type": "uint256",
                                "value": "51,936,057,032,016,937"
                            },
                            {
                                "name": "to",
                                "type": "address",
                                "value": "0x80a64c6d7f12c47b7c66c5b4e20e72bc1fcd5d9e"
                            },
                            {
                                "name": "data",
                                "type": "bytes",
                                "value": "0x"
                            }
                        ],
                        "constructorArguments": "",
                        "name": "swap",
                        "returnParams": [],
                        "signature": "swap(uint256,uint256,address,bytes)"
                    },
                    "errorInfo": "",
                    "fromAddress": "0x80a64c6d7f12c47b7c66c5b4e20e72bc1fcd5d9e",
                    "gasUsed": 38442,
                    "id": 28,
                    "methodDecoded": true,
                    "operation": "CALL",
                    "output": "",
                    "revert": false,
                    "revertMessage": "",
                    "selector": "0x022c0d9f",
                    "status": true,
                    "value": "0"
                },
                "nodeType": 0
            },
            "29": {
                "invocation": {
                    "address": "0xc02aaa39b223fe8d0a0e5c4f27ead9083c756cc2",
                    "callData": "0x00000000000000000000000080a64c6d7f12c47b7c66c5b4e20e72bc1fcd5d9e00000000000000000000000000000000000000000000000000b88391966d8429",
                    "decodedMethod": {
                        "callParams": [
                            {
                                "name": "dst",
                                "type": "address",
                                "value": "0x80a64c6d7f12c47b7c66c5b4e20e72bc1fcd5d9e"
                            },
                            {
                                "decimalAvailable": true,
                                "name": "wad",
                                "type": "uint256",
                                "value": "51,936,057,032,016,937"
                            }
                        ],
                        "constructorArguments": "",
                        "name": "transfer",
                        "returnParams": [
                            {
                                "name": "",
                                "type": "bool",
                                "value": true
                            }
                        ],
                        "signature": "transfer(address,uint256)"
                    },
                    "errorInfo": "",
                    "fromAddress": "0x18dd525f7b8bb98d54dd096fd405bb82b7d60dba",
                    "gasUsed": 25162,
                    "id": 29,
                    "methodDecoded": true,
                    "operation": "CALL",
                    "output": "0x0000000000000000000000000000000000000000000000000000000000000001",
                    "revert": false,
                    "revertMessage": "",
                    "selector": "0xa9059cbb",
                    "status": true,
                    "value": "0"
                },
                "nodeType": 0
            },
            "3": {
                "invocation": {
                    "address": "0x7a250d5630b4cf539739df2c5dacb4c659f2488d",
                    "callData": "0x",
                    "decodedMethod": {
                        "callParams": [],
                        "constructorArguments": "",
                        "name": "WETH",
                        "returnParams": [
                            {
                                "name": "",
                                "type": "address",
                                "value": "0xc02aaa39b223fe8d0a0e5c4f27ead9083c756cc2"
                            }
                        ],
                        "signature": "WETH()"
                    },
                    "errorInfo": "",
                    "fromAddress": "0xab9f41ccc0ab1590160e130f3238f51b38a89b40",
                    "gasUsed": 275,
                    "id": 3,
                    "methodDecoded": true,
                    "operation": "STATICCALL",
                    "output": "0x000000000000000000000000c02aaa39b223fe8d0a0e5c4f27ead9083c756cc2",
                    "revert": false,
                    "revertMessage": "",
                    "selector": "0xad5c4648",
                    "status": true,
                    "value": "0"
                },
                "nodeType": 0
            },
            "30": {
                "event": {
                    "contract": "0xc02aaa39b223fe8d0a0e5c4f27ead9083c756cc2",
                    "decodedLog": {
                        "name": "Transfer",
                        "params": [
                            {
                                "name": "src",
                                "type": "address",
                                "value": "0x18dd525f7b8bb98d54dd096fd405bb82b7d60dba"
                            },
                            {
                                "name": "dst",
                                "type": "address",
                                "value": "0x80a64c6d7f12c47b7c66c5b4e20e72bc1fcd5d9e"
                            },
                            {
                                "decimalAvailable": true,
                                "name": "wad",
                                "type": "uint256",
                                "value": "51,936,057,032,016,937"
                            }
                        ],
                        "signature": "Transfer(address,address,uint256)"
                    },
                    "id": 30,
                    "logData": "0x00000000000000000000000000000000000000000000000000b88391966d8429",
                    "logDecoded": true,
                    "operation": "EVENT",
                    "revert": false,
                    "status": true,
                    "topics": [
                        "0xddf252ad1be2c89b69c2b068fc378daa952ba7f163c4a11628f55a4df523b3ef",
                        "0x00000000000000000000000018dd525f7b8bb98d54dd096fd405bb82b7d60dba",
                        "0x00000000000000000000000080a64c6d7f12c47b7c66c5b4e20e72bc1fcd5d9e"
                    ]
                },
                "nodeType": 1
            },
            "31": {
                "invocation": {
                    "address": "0xab9f41ccc0ab1590160e130f3238f51b38a89b40",
                    "callData": "0x00000000000000000000000018dd525f7b8bb98d54dd096fd405bb82b7d60dba",
                    "decodedMethod": {
                        "callParams": [
                            {
                                "name": "account",
                                "type": "address",
                                "value": "0x18dd525f7b8bb98d54dd096fd405bb82b7d60dba"
                            }
                        ],
                        "constructorArguments": "",
                        "name": "balanceOf",
                        "returnParams": [
                            {
                                "decimalAvailable": true,
                                "name": "",
                                "type": "uint256",
                                "value": "3,164,255,570,376,203,316"
                            }
                        ],
                        "signature": "balanceOf(address)"
                    },
                    "errorInfo": "",
                    "fromAddress": "0x18dd525f7b8bb98d54dd096fd405bb82b7d60dba",
                    "gasUsed": 639,
                    "id": 31,
                    "methodDecoded": true,
                    "operation": "STATICCALL",
                    "output": "0x0000000000000000000000000000000000000000000000002be9b1ad22d31c34",
                    "revert": false,
                    "revertMessage": "",
                    "selector": "0x70a08231",
                    "status": true,
                    "value": "0"
                },
                "nodeType": 0
            },
            "32": {
                "invocation": {
                    "address": "0xc02aaa39b223fe8d0a0e5c4f27ead9083c756cc2",
                    "callData": "0x00000000000000000000000018dd525f7b8bb98d54dd096fd405bb82b7d60dba",
                    "decodedMethod": {
                        "callParams": [
                            {
                                "name": "",
                                "type": "address",
                                "value": "0x18dd525f7b8bb98d54dd096fd405bb82b7d60dba"
                            }
                        ],
                        "constructorArguments": "",
                        "name": "balanceOf",
                        "returnParams": [
                            {
                                "decimalAvailable": true,
                                "name": "",
                                "type": "uint256",
                                "value": "1,666,560,534,192,825,030"
                            }
                        ],
                        "signature": "balanceOf(address)"
                    },
                    "errorInfo": "",
                    "fromAddress": "0x18dd525f7b8bb98d54dd096fd405bb82b7d60dba",
                    "gasUsed": 534,
                    "id": 32,
                    "methodDecoded": true,
                    "operation": "STATICCALL",
                    "output": "0x0000000000000000000000000000000000000000000000001720cff9dd3fa2c6",
                    "revert": false,
                    "revertMessage": "",
                    "selector": "0x70a08231",
                    "status": true,
                    "value": "0"
                },
                "nodeType": 0
            },
            "33": {
                "event": {
                    "contract": "0x18dd525f7b8bb98d54dd096fd405bb82b7d60dba",
                    "decodedLog": {
                        "name": "Sync",
                        "params": [
                            {
                                "name": "reserve0",
                                "type": "uint112",
                                "value": "3,164,255,570,376,203,316"
                            },
                            {
                                "name": "reserve1",
                                "type": "uint112",
                                "value": "1,666,560,534,192,825,030"
                            }
                        ],
                        "signature": "Sync(uint112,uint112)"
                    },
                    "id": 33,
                    "logData": "0x0000000000000000000000000000000000000000000000002be9b1ad22d31c340000000000000000000000000000000000000000000000001720cff9dd3fa2c6",
                    "logDecoded": true,
                    "operation": "EVENT",
                    "revert": false,
                    "status": true,
                    "topics": [
                        "0x1c411e9a96e071241c2f21f7726b17ae89e3cab4c78be50e062b03a9fffbbad1"
                    ]
                },
                "nodeType": 1
            },
            "34": {
                "event": {
                    "contract": "0x18dd525f7b8bb98d54dd096fd405bb82b7d60dba",
                    "decodedLog": {
                        "name": "Swap",
                        "params": [
                            {
                                "name": "sender",
                                "type": "address",
                                "value": "0x80a64c6d7f12c47b7c66c5b4e20e72bc1fcd5d9e"
                            },
                            {
                                "name": "to",
                                "type": "address",
                                "value": "0x80a64c6d7f12c47b7c66c5b4e20e72bc1fcd5d9e"
                            },
                            {
                                "name": "amount0In",
                                "type": "uint256",
                                "value": "95,908,523,000,000,000"
                            },
                            {
                                "name": "amount1In",
                                "type": "uint256",
                                "value": "0"
                            },
                            {
                                "name": "amount0Out",
                                "type": "uint256",
                                "value": "0"
                            },
                            {
                                "name": "amount1Out",
                                "type": "uint256",
                                "value": "51,936,057,032,016,937"
                            }
                        ],
                        "signature": "Swap(address,uint256,uint256,uint256,uint256,address)"
                    },
                    "id": 34,
                    "logData": "0x0000000000000000000000000000000000000000000000000154bc4b2458ee000000000000000000000000000000000000000000000000000000000000000000000000000000000000000000000000000000000000000000000000000000000000000000000000000000000000000000000000000000000000b88391966d8429",
                    "logDecoded": true,
                    "operation": "EVENT",
                    "revert": false,
                    "status": true,
                    "topics": [
                        "0xd78ad95fa46c994b6551d0da85fc275fe613ce37657fb8d5e3d130840159d822",
                        "0x00000000000000000000000080a64c6d7f12c47b7c66c5b4e20e72bc1fcd5d9e",
                        "0x00000000000000000000000080a64c6d7f12c47b7c66c5b4e20e72bc1fcd5d9e"
                    ]
                },
                "nodeType": 1
            },
            "35": {
                "invocation": {
                    "address": "0xc02aaa39b223fe8d0a0e5c4f27ead9083c756cc2",
                    "callData": "0x00000000000000000000000080a64c6d7f12c47b7c66c5b4e20e72bc1fcd5d9e",
                    "decodedMethod": {
                        "callParams": [
                            {
                                "name": "",
                                "type": "address",
                                "value": "0x80a64c6d7f12c47b7c66c5b4e20e72bc1fcd5d9e"
                            }
                        ],
                        "constructorArguments": "",
                        "name": "balanceOf",
                        "returnParams": [
                            {
                                "decimalAvailable": true,
                                "name": "",
                                "type": "uint256",
                                "value": "51,936,057,032,016,937"
                            }
                        ],
                        "signature": "balanceOf(address)"
                    },
                    "errorInfo": "",
                    "fromAddress": "0x80a64c6d7f12c47b7c66c5b4e20e72bc1fcd5d9e",
                    "gasUsed": 534,
                    "id": 35,
                    "methodDecoded": true,
                    "operation": "STATICCALL",
                    "output": "0x00000000000000000000000000000000000000000000000000b88391966d8429",
                    "revert": false,
                    "revertMessage": "",
                    "selector": "0x70a08231",
                    "status": true,
                    "value": "0"
                },
                "nodeType": 0
            },
            "36": {
                "invocation": {
                    "address": "0xc02aaa39b223fe8d0a0e5c4f27ead9083c756cc2",
                    "callData": "0x00000000000000000000000000000000000000000000000000b88391966d8429",
                    "decodedMethod": {
                        "callParams": [
                            {
                                "name": "wad",
                                "type": "uint256",
                                "value": "51,936,057,032,016,937"
                            }
                        ],
                        "constructorArguments": "",
                        "name": "withdraw",
                        "returnParams": [],
                        "signature": "withdraw(uint256)"
                    },
                    "errorInfo": "",
                    "fromAddress": "0x80a64c6d7f12c47b7c66c5b4e20e72bc1fcd5d9e",
                    "gasUsed": 9533,
                    "id": 36,
                    "methodDecoded": true,
                    "operation": "CALL",
                    "output": "",
                    "revert": false,
                    "revertMessage": "",
                    "selector": "0x2e1a7d4d",
                    "status": true,
                    "value": "0"
                },
                "nodeType": 0
            },
            "37": {
                "invocation": {
                    "address": "0x80a64c6d7f12c47b7c66c5b4e20e72bc1fcd5d9e",
                    "callData": "0x",
                    "decodedMethod": null,
                    "errorInfo": "",
                    "fromAddress": "0xc02aaa39b223fe8d0a0e5c4f27ead9083c756cc2",
                    "gasUsed": 393,
                    "id": 37,
                    "methodDecoded": false,
                    "operation": "CALL",
                    "output": "",
                    "revert": false,
                    "revertMessage": "",
                    "selector": "fallback",
                    "status": true,
                    "value": "0.051936057032016937"
                },
                "nodeType": 0
            },
            "38": {
                "invocation": {
                    "address": "0x6599ae06914f1f5ec0053d3f475348d40e608442",
                    "callData": "0x",
                    "decodedMethod": null,
                    "errorInfo": "",
                    "fromAddress": "0x80a64c6d7f12c47b7c66c5b4e20e72bc1fcd5d9e",
                    "gasUsed": 62,
                    "id": 38,
                    "methodDecoded": false,
                    "operation": "DELEGATECALL",
                    "output": "",
                    "revert": false,
                    "revertMessage": "",
                    "selector": "fallback",
                    "status": true,
                    "value": "0.051936057032016937"
                },
                "nodeType": 0
            },
            "39": {
                "event": {
                    "contract": "0xc02aaa39b223fe8d0a0e5c4f27ead9083c756cc2",
                    "decodedLog": {
                        "name": "Withdrawal",
                        "params": [
                            {
                                "name": "src",
                                "type": "address",
                                "value": "0x80a64c6d7f12c47b7c66c5b4e20e72bc1fcd5d9e"
                            },
                            {
                                "name": "wad",
                                "type": "uint256",
                                "value": "51,936,057,032,016,937"
                            }
                        ],
                        "signature": "Withdrawal(address,uint256)"
                    },
                    "id": 39,
                    "logData": "0x00000000000000000000000000000000000000000000000000b88391966d8429",
                    "logDecoded": true,
                    "operation": "EVENT",
                    "revert": false,
                    "status": true,
                    "topics": [
                        "0x7fcf532c15f0a6db0bd6d0e038bea71d30d808c7d98cb3bf7268a95bf5081b65",
                        "0x00000000000000000000000080a64c6d7f12c47b7c66c5b4e20e72bc1fcd5d9e"
                    ]
                },
                "nodeType": 1
            },
            "4": {
                "event": {
                    "contract": "0xab9f41ccc0ab1590160e130f3238f51b38a89b40",
                    "decodedLog": {
                        "name": "Approval",
                        "params": [
                            {
                                "name": "owner",
                                "type": "address",
                                "value": "0xab9f41ccc0ab1590160e130f3238f51b38a89b40"
                            },
                            {
                                "name": "spender",
                                "type": "address",
                                "value": "0x7a250d5630b4cf539739df2c5dacb4c659f2488d"
                            },
                            {
                                "decimalAvailable": true,
                                "name": "value",
                                "type": "uint256",
                                "value": "69,000,000,000,000,000"
                            }
                        ],
                        "signature": "Approval(address,address,uint256)"
                    },
                    "id": 4,
                    "logData": "0x00000000000000000000000000000000000000000000000000f5232269808000",
                    "logDecoded": true,
                    "operation": "EVENT",
                    "revert": false,
                    "status": true,
                    "topics": [
                        "0x8c5be1e5ebec7d5bd14f71427d1e84f3dd0314c0f7b2291e5b200ac8c7c3b925",
                        "0x000000000000000000000000ab9f41ccc0ab1590160e130f3238f51b38a89b40",
                        "0x0000000000000000000000007a250d5630b4cf539739df2c5dacb4c659f2488d"
                    ]
                },
                "nodeType": 1
            },
            "40": {
                "invocation": {
                    "address": "0x5f4c18a5167baaaafdd25c31f40b008dd28c04c9",
                    "callData": "0x",
                    "decodedMethod": null,
                    "errorInfo": "",
                    "fromAddress": "0x80a64c6d7f12c47b7c66c5b4e20e72bc1fcd5d9e",
                    "gasUsed": 0,
                    "id": 40,
                    "methodDecoded": false,
                    "operation": "CALL",
                    "output": "",
                    "revert": false,
                    "revertMessage": "",
                    "selector": "fallback",
                    "status": true,
                    "value": "0.051936057032016937"
                },
                "nodeType": 0
            },
            "5": {
                "invocation": {
                    "address": "0x7a250d5630b4cf539739df2c5dacb4c659f2488d",
                    "callData": "0x00000000000000000000000000000000000000000000000000f5232269808000000000000000000000000000000000000000000000000000000000000000000000000000000000000000000000000000000000000000000000000000000000a0000000000000000000000000ab9f41ccc0ab1590160e130f3238f51b38a89b400000000000000000000000000000000000000000000000000000000065bcb72b0000000000000000000000000000000000000000000000000000000000000002000000000000000000000000ab9f41ccc0ab1590160e130f3238f51b38a89b40000000000000000000000000c02aaa39b223fe8d0a0e5c4f27ead9083c756cc2",
                    "decodedMethod": {
                        "callParams": [
                            {
                                "name": "amountIn",
                                "type": "uint256",
                                "value": "69,000,000,000,000,000"
                            },
                            {
                                "name": "amountOutMin",
                                "type": "uint256",
                                "value": "0"
                            },
                            {
                                "name": "path",
                                "type": "address[]",
                                "value": [
                                    "0xab9f41ccc0ab1590160e130f3238f51b38a89b40",
                                    "0xc02aaa39b223fe8d0a0e5c4f27ead9083c756cc2"
                                ]
                            },
                            {
                                "name": "to",
                                "type": "address",
                                "value": "0xab9f41ccc0ab1590160e130f3238f51b38a89b40"
                            },
                            {
                                "name": "deadline",
                                "type": "uint256",
                                "value": "1,706,866,475"
                            }
                        ],
                        "constructorArguments": "",
                        "name": "swapExactTokensForETHSupportingFeeOnTransferTokens",
                        "returnParams": [],
                        "signature": "swapExactTokensForETHSupportingFeeOnTransferTokens(uint256,uint256,address[],address,uint256)"
                    },
                    "errorInfo": "",
                    "fromAddress": "0xab9f41ccc0ab1590160e130f3238f51b38a89b40",
                    "gasUsed": 103011,
                    "id": 5,
                    "methodDecoded": true,
                    "operation": "CALL",
                    "output": "",
                    "revert": false,
                    "revertMessage": "",
                    "selector": "0x791ac947",
                    "status": true,
                    "value": "0"
                },
                "nodeType": 0
            },
            "6": {
                "invocation": {
                    "address": "0xab9f41ccc0ab1590160e130f3238f51b38a89b40",
                    "callData": "0x000000000000000000000000ab9f41ccc0ab1590160e130f3238f51b38a89b4000000000000000000000000018dd525f7b8bb98d54dd096fd405bb82b7d60dba00000000000000000000000000000000000000000000000000f5232269808000",
                    "decodedMethod": {
                        "callParams": [
                            {
                                "name": "sender",
                                "type": "address",
                                "value": "0xab9f41ccc0ab1590160e130f3238f51b38a89b40"
                            },
                            {
                                "name": "recipient",
                                "type": "address",
                                "value": "0x18dd525f7b8bb98d54dd096fd405bb82b7d60dba"
                            },
                            {
                                "decimalAvailable": true,
                                "name": "amount",
                                "type": "uint256",
                                "value": "69,000,000,000,000,000"
                            }
                        ],
                        "constructorArguments": "",
                        "name": "transferFrom",
                        "returnParams": [
                            {
                                "name": "",
                                "type": "bool",
                                "value": true
                            }
                        ],
                        "signature": "transferFrom(address,address,uint256)"
                    },
                    "errorInfo": "",
                    "fromAddress": "0x7a250d5630b4cf539739df2c5dacb4c659f2488d",
                    "gasUsed": 18877,
                    "id": 6,
                    "methodDecoded": true,
                    "operation": "CALL",
                    "output": "0x0000000000000000000000000000000000000000000000000000000000000001",
                    "revert": false,
                    "revertMessage": "",
                    "selector": "0x23b872dd",
                    "status": true,
                    "value": "0"
                },
                "nodeType": 0
            },
            "7": {
                "event": {
                    "contract": "0xab9f41ccc0ab1590160e130f3238f51b38a89b40",
                    "decodedLog": {
                        "name": "Transfer",
                        "params": [
                            {
                                "name": "from",
                                "type": "address",
                                "value": "0xab9f41ccc0ab1590160e130f3238f51b38a89b40"
                            },
                            {
                                "name": "to",
                                "type": "address",
                                "value": "0x18dd525f7b8bb98d54dd096fd405bb82b7d60dba"
                            },
                            {
                                "decimalAvailable": true,
                                "name": "value",
                                "type": "uint256",
                                "value": "69,000,000,000,000,000"
                            }
                        ],
                        "signature": "Transfer(address,address,uint256)"
                    },
                    "id": 7,
                    "logData": "0x00000000000000000000000000000000000000000000000000f5232269808000",
                    "logDecoded": true,
                    "operation": "EVENT",
                    "revert": false,
                    "status": true,
                    "topics": [
                        "0xddf252ad1be2c89b69c2b068fc378daa952ba7f163c4a11628f55a4df523b3ef",
                        "0x000000000000000000000000ab9f41ccc0ab1590160e130f3238f51b38a89b40",
                        "0x00000000000000000000000018dd525f7b8bb98d54dd096fd405bb82b7d60dba"
                    ]
                },
                "nodeType": 1
            },
            "8": {
                "event": {
                    "contract": "0xab9f41ccc0ab1590160e130f3238f51b38a89b40",
                    "decodedLog": {
                        "name": "Approval",
                        "params": [
                            {
                                "name": "owner",
                                "type": "address",
                                "value": "0xab9f41ccc0ab1590160e130f3238f51b38a89b40"
                            },
                            {
                                "name": "spender",
                                "type": "address",
                                "value": "0x7a250d5630b4cf539739df2c5dacb4c659f2488d"
                            },
                            {
                                "decimalAvailable": true,
                                "name": "value",
                                "type": "uint256",
                                "value": "0"
                            }
                        ],
                        "signature": "Approval(address,address,uint256)"
                    },
                    "id": 8,
                    "logData": "0x0000000000000000000000000000000000000000000000000000000000000000",
                    "logDecoded": true,
                    "operation": "EVENT",
                    "revert": false,
                    "status": true,
                    "topics": [
                        "0x8c5be1e5ebec7d5bd14f71427d1e84f3dd0314c0f7b2291e5b200ac8c7c3b925",
                        "0x000000000000000000000000ab9f41ccc0ab1590160e130f3238f51b38a89b40",
                        "0x0000000000000000000000007a250d5630b4cf539739df2c5dacb4c659f2488d"
                    ]
                },
                "nodeType": 1
            },
            "9": {
                "invocation": {
                    "address": "0x18dd525f7b8bb98d54dd096fd405bb82b7d60dba",
                    "callData": "0x",
                    "decodedMethod": {
                        "callParams": [],
                        "constructorArguments": "",
                        "name": "getReserves",
                        "returnParams": [
                            {
                                "name": "_reserve0",
                                "type": "uint112",
                                "value": "2,999,347,047,376,203,316"
                            },
                            {
                                "name": "_reserve1",
                                "type": "uint112",
                                "value": "1,757,912,015,359,754,468"
                            },
                            {
                                "name": "_blockTimestampLast",
                                "type": "uint32",
                                "value": "1,706,866,475"
                            }
                        ],
                        "signature": "getReserves()"
                    },
                    "errorInfo": "",
                    "fromAddress": "0x7a250d5630b4cf539739df2c5dacb4c659f2488d",
                    "gasUsed": 2504,
                    "id": 9,
                    "methodDecoded": true,
                    "operation": "STATICCALL",
                    "output": "0x000000000000000000000000000000000000000000000000299fd23f94f9ae3400000000000000000000000000000000000000000000000018655baa05e8c0e40000000000000000000000000000000000000000000000000000000065bcb72b",
                    "revert": false,
                    "revertMessage": "",
                    "selector": "0x0902f1ac",
                    "status": true,
                    "value": "0"
                },
                "nodeType": 0
            }
        },
        "gasFlame": [
            {
                "children": [
                    {
                        "children": [
                            {
                                "children": [],
                                "depth": 0,
                                "name": "Initial Gas",
                                "value": 23036
                            },
                            {
                                "children": [
                                    {
                                        "children": [
                                            {
                                                "children": [
                                                    {
                                                        "children": [],
                                                        "depth": 3,
                                                        "name": "WETH",
                                                        "value": 275
                                                    },
                                                    {
                                                        "children": [
                                                            {
                                                                "children": [],
                                                                "depth": 4,
                                                                "name": "transferFrom",
                                                                "value": 18877
                                                            },
                                                            {
                                                                "children": [],
                                                                "depth": 4,
                                                                "name": "getReserves",
                                                                "value": 2504
                                                            },
                                                            {
                                                                "children": [],
                                                                "depth": 4,
                                                                "name": "balanceOf",
                                                                "value": 639
                                                            },
                                                            {
                                                                "children": [
                                                                    {
                                                                        "children": [],
                                                                        "depth": 5,
                                                                        "name": "transfer",
                                                                        "value": 29962
                                                                    },
                                                                    {
                                                                        "children": [],
                                                                        "depth": 5,
                                                                        "name": "balanceOf",
                                                                        "value": 639
                                                                    },
                                                                    {
                                                                        "children": [],
                                                                        "depth": 5,
                                                                        "name": "balanceOf",
                                                                        "value": 534
                                                                    }
                                                                ],
                                                                "depth": 4,
                                                                "name": "swap",
                                                                "value": 54542
                                                            },
                                                            {
                                                                "children": [],
                                                                "depth": 4,
                                                                "name": "balanceOf",
                                                                "value": 534
                                                            },
                                                            {
                                                                "children": [
                                                                    {
                                                                        "children": [],
                                                                        "depth": 5,
                                                                        "name": "fallback",
                                                                        "value": 83
                                                                    }
                                                                ],
                                                                "depth": 4,
                                                                "name": "withdraw",
                                                                "value": 9223
                                                            },
                                                            {
                                                                "children": [],
                                                                "depth": 4,
                                                                "name": "fallback",
                                                                "value": 55
                                                            }
                                                        ],
                                                        "depth": 3,
                                                        "name": "swapExactTokensForETHSupportingFeeOnTransferTokens",
                                                        "value": 103011
                                                    },
                                                    {
                                                        "children": [],
                                                        "depth": 3,
                                                        "name": "fallback",
                                                        "value": 0
                                                    }
                                                ],
                                                "depth": 2,
                                                "name": "transferFrom",
                                                "value": 205596
                                            },
                                            {
                                                "children": [],
                                                "depth": 2,
                                                "name": "getReserves",
                                                "value": 504
                                            },
                                            {
                                                "children": [],
                                                "depth": 2,
                                                "name": "balanceOf",
                                                "value": 639
                                            },
                                            {
                                                "children": [
                                                    {
                                                        "children": [],
                                                        "depth": 3,
                                                        "name": "transfer",
                                                        "value": 25162
                                                    },
                                                    {
                                                        "children": [],
                                                        "depth": 3,
                                                        "name": "balanceOf",
                                                        "value": 639
                                                    },
                                                    {
                                                        "children": [],
                                                        "depth": 3,
                                                        "name": "balanceOf",
                                                        "value": 534
                                                    }
                                                ],
                                                "depth": 2,
                                                "name": "swap",
                                                "value": 38442
                                            },
                                            {
                                                "children": [],
                                                "depth": 2,
                                                "name": "balanceOf",
                                                "value": 534
                                            },
                                            {
                                                "children": [
                                                    {
                                                        "children": [
                                                            {
                                                                "children": [],
                                                                "depth": 4,
                                                                "name": "fallback",
                                                                "value": 62
                                                            }
                                                        ],
                                                        "depth": 3,
                                                        "name": "fallback",
                                                        "value": 393
                                                    }
                                                ],
                                                "depth": 2,
                                                "name": "withdraw",
                                                "value": 9533
                                            },
                                            {
                                                "children": [],
                                                "depth": 2,
                                                "name": "fallback",
                                                "value": 0
                                            }
                                        ],
                                        "depth": 1,
                                        "name": "swapExactTokensForETHSupportingFeeOnTransferTokens",
                                        "value": 279171
                                    }
                                ],
                                "depth": 0,
                                "name": "Executed Gas",
                                "value": 284047
                            }
                        ],
                        "depth": -1,
                        "name": "Actual Gas Used",
                        "value": 245667
                    },
                    {
                        "children": [],
                        "depth": -1,
                        "name": "Refunded Gas",
                        "value": 61416
                    }
                ],
                "depth": -2,
                "name": "Total Gas",
                "value": 307083
            }
        ],
        "isConfirmed": true,
        "mainTrace": [
            {
                "children": [
                    {
                        "children": [
                            {
                                "children": [
                                    {
                                        "children": [
                                            {
                                                "children": [],
                                                "depth": 3,
                                                "id": 3,
                                                "order": 3
                                            },
                                            {
                                                "children": [],
                                                "depth": 3,
                                                "id": 4,
                                                "order": 4
                                            },
                                            {
                                                "children": [
                                                    {
                                                        "children": [
                                                            {
                                                                "children": [],
                                                                "depth": 5,
                                                                "id": 7,
                                                                "order": 7
                                                            },
                                                            {
                                                                "children": [],
                                                                "depth": 5,
                                                                "id": 8,
                                                                "order": 8
                                                            }
                                                        ],
                                                        "depth": 4,
                                                        "id": 6,
                                                        "order": 6
                                                    },
                                                    {
                                                        "children": [],
                                                        "depth": 4,
                                                        "id": 9,
                                                        "order": 9
                                                    },
                                                    {
                                                        "children": [],
                                                        "depth": 4,
                                                        "id": 10,
                                                        "order": 10
                                                    },
                                                    {
                                                        "children": [
                                                            {
                                                                "children": [
                                                                    {
                                                                        "children": [],
                                                                        "depth": 6,
                                                                        "id": 13,
                                                                        "order": 13
                                                                    }
                                                                ],
                                                                "depth": 5,
                                                                "id": 12,
                                                                "order": 12
                                                            },
                                                            {
                                                                "children": [],
                                                                "depth": 5,
                                                                "id": 14,
                                                                "order": 14
                                                            },
                                                            {
                                                                "children": [],
                                                                "depth": 5,
                                                                "id": 15,
                                                                "order": 15
                                                            },
                                                            {
                                                                "children": [],
                                                                "depth": 5,
                                                                "id": 16,
                                                                "order": 16
                                                            },
                                                            {
                                                                "children": [],
                                                                "depth": 5,
                                                                "id": 17,
                                                                "order": 17
                                                            }
                                                        ],
                                                        "depth": 4,
                                                        "id": 11,
                                                        "order": 11
                                                    },
                                                    {
                                                        "children": [],
                                                        "depth": 4,
                                                        "id": 18,
                                                        "order": 18
                                                    },
                                                    {
                                                        "children": [
                                                            {
                                                                "children": [],
                                                                "depth": 5,
                                                                "id": 20,
                                                                "order": 20
                                                            },
                                                            {
                                                                "children": [],
                                                                "depth": 5,
                                                                "id": 21,
                                                                "order": 21
                                                            }
                                                        ],
                                                        "depth": 4,
                                                        "id": 19,
                                                        "order": 19
                                                    },
                                                    {
                                                        "children": [],
                                                        "depth": 4,
                                                        "id": 22,
                                                        "order": 22
                                                    }
                                                ],
                                                "depth": 3,
                                                "id": 5,
                                                "order": 5
                                            },
                                            {
                                                "children": [],
                                                "depth": 3,
                                                "id": 23,
                                                "order": 23
                                            },
                                            {
                                                "children": [],
                                                "depth": 3,
                                                "id": 24,
                                                "order": 24
                                            },
                                            {
                                                "children": [],
                                                "depth": 3,
                                                "id": 25,
                                                "order": 25
                                            }
                                        ],
                                        "depth": 2,
                                        "id": 2,
                                        "order": 2
                                    },
                                    {
                                        "children": [],
                                        "depth": 2,
                                        "id": 26,
                                        "order": 26
                                    },
                                    {
                                        "children": [],
                                        "depth": 2,
                                        "id": 27,
                                        "order": 27
                                    },
                                    {
                                        "children": [
                                            {
                                                "children": [
                                                    {
                                                        "children": [],
                                                        "depth": 4,
                                                        "id": 30,
                                                        "order": 30
                                                    }
                                                ],
                                                "depth": 3,
                                                "id": 29,
                                                "order": 29
                                            },
                                            {
                                                "children": [],
                                                "depth": 3,
                                                "id": 31,
                                                "order": 31
                                            },
                                            {
                                                "children": [],
                                                "depth": 3,
                                                "id": 32,
                                                "order": 32
                                            },
                                            {
                                                "children": [],
                                                "depth": 3,
                                                "id": 33,
                                                "order": 33
                                            },
                                            {
                                                "children": [],
                                                "depth": 3,
                                                "id": 34,
                                                "order": 34
                                            }
                                        ],
                                        "depth": 2,
                                        "id": 28,
                                        "order": 28
                                    },
                                    {
                                        "children": [],
                                        "depth": 2,
                                        "id": 35,
                                        "order": 35
                                    },
                                    {
                                        "children": [
                                            {
                                                "children": [
                                                    {
                                                        "children": [],
                                                        "depth": 4,
                                                        "id": 38,
                                                        "order": 38
                                                    }
                                                ],
                                                "depth": 3,
                                                "id": 37,
                                                "order": 37
                                            },
                                            {
                                                "children": [],
                                                "depth": 3,
                                                "id": 39,
                                                "order": 39
                                            }
                                        ],
                                        "depth": 2,
                                        "id": 36,
                                        "order": 36
                                    },
                                    {
                                        "children": [],
                                        "depth": 2,
                                        "id": 40,
                                        "order": 40
                                    }
                                ],
                                "depth": 1,
                                "id": 1,
                                "order": 1
                            }
                        ],
                        "depth": 0,
                        "id": 0,
                        "order": 0
                    }
                ],
                "depth": -1,
                "id": -1,
                "order": -1
            }
        ],
        "mainTraceNodeCount": 41,
        "parentIdMap": {
            "0": -1,
            "1": 0,
            "10": 5,
            "11": 5,
            "12": 11,
            "13": 12,
            "14": 11,
            "15": 11,
            "16": 11,
            "17": 11,
            "18": 5,
            "19": 5,
            "2": 1,
            "20": 19,
            "21": 19,
            "22": 5,
            "23": 2,
            "24": 2,
            "25": 2,
            "26": 1,
            "27": 1,
            "28": 1,
            "29": 28,
            "3": 2,
            "30": 29,
            "31": 28,
            "32": 28,
            "33": 28,
            "34": 28,
            "35": 1,
            "36": 1,
            "37": 36,
            "38": 37,
            "39": 36,
            "4": 2,
            "40": 1,
            "5": 2,
            "6": 5,
            "7": 6,
            "8": 6,
            "9": 5
        },
        "tidyTrace": [
            {
                "children": [
                    {
                        "children": [
                            {
                                "children": [
                                    {
                                        "children": [
                                            {
                                                "children": [],
                                                "depth": 3,
                                                "id": 4,
                                                "order": 4
                                            },
                                            {
                                                "children": [
                                                    {
                                                        "children": [
                                                            {
                                                                "children": [],
                                                                "depth": 5,
                                                                "id": 7,
                                                                "order": 7
                                                            },
                                                            {
                                                                "children": [],
                                                                "depth": 5,
                                                                "id": 8,
                                                                "order": 8
                                                            }
                                                        ],
                                                        "depth": 4,
                                                        "id": 6,
                                                        "order": 6
                                                    },
                                                    {
                                                        "children": [
                                                            {
                                                                "children": [
                                                                    {
                                                                        "children": [],
                                                                        "depth": 6,
                                                                        "id": 13,
                                                                        "order": 13
                                                                    }
                                                                ],
                                                                "depth": 5,
                                                                "id": 12,
                                                                "order": 12
                                                            },
                                                            {
                                                                "children": [],
                                                                "depth": 5,
                                                                "id": 16,
                                                                "order": 16
                                                            },
                                                            {
                                                                "children": [],
                                                                "depth": 5,
                                                                "id": 17,
                                                                "order": 17
                                                            }
                                                        ],
                                                        "depth": 4,
                                                        "id": 11,
                                                        "order": 11
                                                    },
                                                    {
                                                        "children": [
                                                            {
                                                                "children": [],
                                                                "depth": 5,
                                                                "id": 20,
                                                                "order": 20
                                                            },
                                                            {
                                                                "children": [],
                                                                "depth": 5,
                                                                "id": 21,
                                                                "order": 21
                                                            }
                                                        ],
                                                        "depth": 4,
                                                        "id": 19,
                                                        "order": 19
                                                    },
                                                    {
                                                        "children": [],
                                                        "depth": 4,
                                                        "id": 22,
                                                        "order": 22
                                                    }
                                                ],
                                                "depth": 3,
                                                "id": 5,
                                                "order": 5
                                            },
                                            {
                                                "children": [],
                                                "depth": 3,
                                                "id": 23,
                                                "order": 23
                                            },
                                            {
                                                "children": [],
                                                "depth": 3,
                                                "id": 24,
                                                "order": 24
                                            },
                                            {
                                                "children": [],
                                                "depth": 3,
                                                "id": 25,
                                                "order": 25
                                            }
                                        ],
                                        "depth": 2,
                                        "id": 2,
                                        "order": 2
                                    },
                                    {
                                        "children": [
                                            {
                                                "children": [
                                                    {
                                                        "children": [],
                                                        "depth": 4,
                                                        "id": 30,
                                                        "order": 30
                                                    }
                                                ],
                                                "depth": 3,
                                                "id": 29,
                                                "order": 29
                                            },
                                            {
                                                "children": [],
                                                "depth": 3,
                                                "id": 33,
                                                "order": 33
                                            },
                                            {
                                                "children": [],
                                                "depth": 3,
                                                "id": 34,
                                                "order": 34
                                            }
                                        ],
                                        "depth": 2,
                                        "id": 28,
                                        "order": 28
                                    },
                                    {
                                        "children": [
                                            {
                                                "children": [
                                                    {
                                                        "children": [],
                                                        "depth": 4,
                                                        "id": 38,
                                                        "order": 38
                                                    }
                                                ],
                                                "depth": 3,
                                                "id": 37,
                                                "order": 37
                                            },
                                            {
                                                "children": [],
                                                "depth": 3,
                                                "id": 39,
                                                "order": 39
                                            }
                                        ],
                                        "depth": 2,
                                        "id": 36,
                                        "order": 36
                                    },
                                    {
                                        "children": [],
                                        "depth": 2,
                                        "id": 40,
                                        "order": 40
                                    }
                                ],
                                "depth": 1,
                                "id": 1,
                                "order": 1
                            }
                        ],
                        "depth": 0,
                        "id": 0,
                        "order": 0
                    }
                ],
                "depth": -1,
                "id": -1,
                "order": -1
            }
        ],
        "tidyTraceNodeCount": 30
    },
    "state_change": {
        "stateChanges": [
            {
                "address": "0x18dd525f7b8bb98d54dd096fd405bb82b7d60dba",
                "erc": "ERC-20",
                "slots": [
                    {
                        "current": "0x65bcb72b0000000000001720cff9dd3fa2c60000000000002be9b1ad22d31c34",
                        "key": "0x0000000000000000000000000000000000000000000000000000000000000008",
                        "prev": "0x65bcb72b00000000000018655baa05e8c0e4000000000000299fd23f94f9ae34"
                    }
                ],
                "storageVariables": [
                    {
                        "name": "reserve0",
                        "type": "uint112",
                        "value": {
                            "current": "3164255570376203316",
                            "prev": "2999347047376203316",
                            "typeTag": 1
                        }
                    },
                    {
                        "name": "reserve1",
                        "type": "uint112",
                        "value": {
                            "current": "1666560534192825030",
                            "prev": "1757912015359754468",
                            "typeTag": 1
                        }
                    },
                    {
                        "name": "blockTimestampLast",
                        "type": "uint32",
                        "value": {
                            "current": "1706866475",
                            "prev": "1706866475",
                            "typeTag": 1
                        }
                    }
                ]
            },
            {
                "address": "0xab9f41ccc0ab1590160e130f3238f51b38a89b40",
                "erc": "ERC-20",
                "slots": [
                    {
                        "current": "0x0000000000000000000000000000000000000000000000002be9b1ad22d31c34",
                        "key": "0xbc884acdd9bb0c768315329bbe76e68e80a0d97b25d8a984b77d41705ae1e6bf",
                        "prev": "0x000000000000000000000000000000000000000000000000299fd23f94f9ae34"
                    },
                    {
                        "current": "0x00000000000000000000000000000000000000000000000000bc9a79ac5924cd",
                        "key": "0xb21792fdca51ba4487e665a1078203b49b0ef0765602316a61f84befd30f6661",
                        "prev": "0x00000000000000000000000000000000000000000000000001b1bd9c15d9a4cd"
                    },
                    {
                        "current": "0x0000000000000000000000000000000000000000000000000000000001240d0b",
                        "key": "0x0000000000000000000000000000000000000000000000000000000000000015",
                        "prev": "0x0000000000000000000000000000000000000000000000000000000001240d09"
                    },
                    {
                        "current": "0x00000000000000000000000000000000000000000000000000000000149d1069",
                        "key": "0x561cc312661e45cbfb698e69b015cc68c0b9959ab9018ea00307e3cfaf75212b",
                        "prev": "0x0000000000000000000000000000000000000000000000000154bc4b38f5fe69"
                    },
                    {
                        "current": "0xfffffffffffffffffffffffffffffffffffffffffffffffffeab43b4dba711ff",
                        "key": "0xf608abc1ef08bd2b01c0b0ae024e2e2d388ffbcd0380157e42ca857dbcb016b4",
                        "prev": "0xffffffffffffffffffffffffffffffffffffffffffffffffffffffffffffffff"
                    },
                    {
                        "current": "0x0000000000000000000000000000000000000000000000000000000000000001",
                        "key": "0x0000000000000000000000000000000000000000000000000000000000000014",
                        "prev": "0x0000000000000000000000000000000000000000000000000000000000000002"
                    }
                ],
                "storageVariables": [
                    {
                        "name": "_balances",
                        "type": "mapping(address => uint256)",
                        "value": {
                            "pairs": [
                                {
                                    "key": "0x18dd525f7b8bb98d54dd096fd405bb82b7d60dba",
                                    "value": {
                                        "current": "3164255570376203316",
                                        "prev": "2999347047376203316",
                                        "typeTag": 1
                                    }
                                },
                                {
                                    "key": "0x5f4c18a5167baaaafdd25c31f40b008dd28c04c9",
                                    "value": {
                                        "current": "345837673",
                                        "prev": "95908523345837673",
                                        "typeTag": 1
                                    }
                                },
                                {
                                    "key": "0xab9f41ccc0ab1590160e130f3238f51b38a89b40",
                                    "value": {
                                        "current": "53087142994846925",
                                        "prev": "122087142994846925",
                                        "typeTag": 1
                                    }
                                }
                            ],
                            "typeTag": 4
                        }
                    },
                    {
                        "name": "lastSellBlock",
                        "type": "uint256",
                        "value": {
                            "current": "19139851",
                            "prev": "19139849",
                            "typeTag": 1
                        }
                    },
                    {
                        "name": "_allowances",
                        "type": "mapping(address => mapping(address => uint256))",
                        "value": {
                            "pairs": [
                                {
                                    "key": "0x5f4c18a5167baaaafdd25c31f40b008dd28c04c9",
                                    "value": {
                                        "pairs": [
                                            {
                                                "key": "0x80a64c6d7f12c47b7c66c5b4e20e72bc1fcd5d9e",
                                                "value": {
                                                    "current": "115792089237316195423570985008687907853269984665640564039457488099390129639935",
                                                    "prev": "115792089237316195423570985008687907853269984665640564039457584007913129639935",
                                                    "typeTag": 1
                                                }
                                            }
                                        ],
                                        "typeTag": 4
                                    }
                                }
                            ],
                            "typeTag": 4
                        }
                    },
                    {
                        "name": "sellCount",
                        "type": "uint256",
                        "value": {
                            "current": "1",
                            "prev": "2",
                            "typeTag": 1
                        }
                    }
                ]
            },
            {
                "address": "0xc02aaa39b223fe8d0a0e5c4f27ead9083c756cc2",
                "erc": "ERC-20",
                "slots": [
                    {
                        "current": "0x0000000000000000000000000000000000000000000000001720cff9dd3fa2c6",
                        "key": "0x986650ede8a6b1b11878fa441799cf48b7cf0d63603d36a49369069986475692",
                        "prev": "0x00000000000000000000000000000000000000000000000018655baa05e8c0e4"
                    }
                ],
                "storageVariables": [
                    {
                        "name": "balanceOf",
                        "type": "mapping(address => uint256)",
                        "value": {
                            "pairs": [
                                {
                                    "key": "0x18dd525f7b8bb98d54dd096fd405bb82b7d60dba",
                                    "value": {
                                        "current": "1666560534192825030",
                                        "prev": "1757912015359754468",
                                        "typeTag": 1
                                    }
                                }
                            ],
                            "typeTag": 4
                        }
                    }
                ]
            }
        ]
    }
}