{
    "balance_change": {
        "balanceChanges": [
            {
                "account": "0x0fd52eb3a6949b39ced7d6d235a7bab214b8fd8e",
                "assets": [
                    {
                        "address": "0x4eef32781db07a9b7d9d36bb9ba81fa08af9d3ab",
                        "amount": "67,410",
                        "iconUrl": "",
                        "isERC1155": false,
                        "isERC721": false,
                        "sign": false,
                        "value": ""
                    }
                ]
            },
            {
                "account": "0xf5cf982579295f18621a570cf30f1fa64c70963b",
                "assets": [
                    {
                        "address": "0x4eef32781db07a9b7d9d36bb9ba81fa08af9d3ab",
                        "amount": "67,410",
                        "iconUrl": "",
                        "isERC1155": false,
                        "isERC721": false,
                        "sign": true,
                        "value": ""
                    }
                ]
            }
        ]
    },
    "profile": {
        "basic_info": {
            "baseFee": "",
            "blockNumber": 7941866,
            "callData": "0xa9059cbb000000000000000000000000f5cf982579295f18621a570cf30f1fa64c70963b000000000000000000000000000000000000000000000e464dad16835a080000",
            "debugEnable": true,
            "errorInfo": "",
            "eventCount": 1,
            "feeRecipient": "0x2a65aca4d5fc5b5c859090a6c34d164135398226",
            "formatValue": "0",
            "gasLimit": 52492,
            "gasPrice": "10",
            "gasUsed": 52492,
            "intTxnCount": 0,
            "internalRevert": false,
            "internalRevertMessage": "",
            "isContractCreation": false,
            "isFlashloan": false,
            "maxFee": "",
            "nonce": 5047,
            "overwritedBlockNumber": -1,
            "priorityFee": "",
            "receiver": "0x4eef32781db07a9b7d9d36bb9ba81fa08af9d3ab",
            "revertMessage": "",
            "sender": "0x0fd52eb3a6949b39ced7d6d235a7bab214b8fd8e",
            "simulationEnable": true,
            "sourceTxnHash": "0xbbf4a049ed8687eb11537703c12db68af95e0708267170b7cb45924420a380ad",
            "status": true,
            "timestamp": "2019-06-12T04:37:47Z",
            "transactionFee": "0.00052492",
            "txnHash": "0xbbf4a049ed8687eb11537703c12db68af95e0708267170b7cb45924420a380ad",
            "txnIndex": 155,
            "type": 0,
            "value": "0"
        },
        "fund_flow": [
            {
                "amount": "67,410",
                "from": "0x0fd52eb3a6949b39ced7d6d235a7bab214b8fd8e",
                "id": 1,
                "isERC1155": false,
                "isERC721": false,
                "isReverted": false,
                "order": 1,
                "to": "0xf5cf982579295f18621a570cf30f1fa64c70963b",
                "token": "0x4eef32781db07a9b7d9d36bb9ba81fa08af9d3ab"
            }
        ],
        "token_infos": [
            {
                "address": "0xeeeeeeeeeeeeeeeeeeeeeeeeeeeeeeeeeeeeeeee",
                "decimals": 18
            },
            {
                "address": "0x4eef32781db07a9b7d9d36bb9ba81fa08af9d3ab",
                "decimals": 18
            },
            {
                "address": "0xc02aaa39b223fe8d0a0e5c4f27ead9083c756cc2",
                "decimals": 18
            }
        ]
    },
    "address_label": {
        "labels": [
            {
                "address": "0x4eef32781db07a9b7d9d36bb9ba81fa08af9d3ab",
                "label": "Renvale Token (RVT)"
            },
            {
                "address": "0x0000000000000000000000000000000000000001",
                "label": "Precompiled"
            },
            {
                "address": "0x0000000000000000000000000000000000000002",
                "label": "Precompiled"
            },
            {
                "address": "0x0000000000000000000000000000000000000003",
                "label": "Precompiled"
            },
            {
                "address": "0x0000000000000000000000000000000000000004",
                "label": "Precompiled"
            },
            {
                "address": "0xeeeeeeeeeeeeeeeeeeeeeeeeeeeeeeeeeeeeeeee",
                "label": "Ether"
            }
        ]
    },
    "trace": {
        "accountLabels": null,
        "dataMap": {
            "-1": {
                "invocation": {
                    "address": "0x0fd52eb3a6949b39ced7d6d235a7bab214b8fd8e",
                    "callData": "",
                    "decodedMethod": null,
                    "errorInfo": "",
                    "fromAddress": "",
                    "gasUsed": 0,
                    "id": -1,
                    "methodDecoded": false,
                    "operation": "",
                    "output": "",
                    "revert": false,
                    "revertMessage": "",
                    "selector": "",
                    "status": false,
                    "value": ""
                },
                "nodeType": 0
            },
            "0": {
                "invocation": {
                    "address": "0x4eef32781db07a9b7d9d36bb9ba81fa08af9d3ab",
                    "callData": "0x000000000000000000000000f5cf982579295f18621a570cf30f1fa64c70963b000000000000000000000000000000000000000000000e464dad16835a080000",
                    "decodedMethod": {
                        "callParams": [
                            {
                                "name": "_to",
                                "type": "address",
                                "value": "0xf5cf982579295f18621a570cf30f1fa64c70963b"
                            },
                            {
                                "decimalAvailable": true,
                                "name": "_value",
                                "type": "uint256",
                                "value": "67,410,000,000,000,000,000,000"
                            }
                        ],
                        "constructorArguments": "",
                        "name": "transfer",
                        "returnParams": [
                            {
                                "name": "success",
                                "type": "bool",
                                "value": true
                            }
                        ],
                        "signature": "transfer(address,uint256)"
                    },
                    "errorInfo": "",
                    "fromAddress": "0x0fd52eb3a6949b39ced7d6d235a7bab214b8fd8e",
                    "gasUsed": 52492,
                    "id": 0,
                    "methodDecoded": true,
                    "operation": "CALL",
                    "output": "0x0000000000000000000000000000000000000000000000000000000000000001",
                    "revert": false,
                    "revertMessage": "",
                    "selector": "0xa9059cbb",
                    "status": true,
                    "value": "0"
                },
                "nodeType": 0
            },
            "1": {
                "event": {
                    "contract": "0x4eef32781db07a9b7d9d36bb9ba81fa08af9d3ab",
                    "decodedLog": {
                        "name": "Transfer",
                        "params": [
                            {
                                "name": "from",
                                "type": "address",
                                "value": "0x0fd52eb3a6949b39ced7d6d235a7bab214b8fd8e"
                            },
                            {
                                "name": "to",
                                "type": "address",
                                "value": "0xf5cf982579295f18621a570cf30f1fa64c70963b"
                            },
                            {
                                "decimalAvailable": true,
                                "name": "value",
                                "type": "uint256",
                                "value": "67,410,000,000,000,000,000,000"
                            }
                        ],
                        "signature": "Transfer(address,address,uint256)"
                    },
                    "id": 1,
                    "logData": "0x000000000000000000000000000000000000000000000e464dad16835a080000",
                    "logDecoded": true,
                    "operation": "EVENT",
                    "revert": false,
                    "status": true,
                    "topics": [
                        "0xddf252ad1be2c89b69c2b068fc378daa952ba7f163c4a11628f55a4df523b3ef",
                        "0x0000000000000000000000000fd52eb3a6949b39ced7d6d235a7bab214b8fd8e",
                        "0x000000000000000000000000f5cf982579295f18621a570cf30f1fa64c70963b"
                    ]
                },
                "nodeType": 1
            }
        },
        "gasFlame": [
            {
                "children": [
                    {
                        "children": [
                            {
                                "children": [],
                                "depth": 0,
                                "name": "Initial Gas",
                                "value": 23320
                            },
                            {
                                "children": [],
                                "depth": 0,
                                "name": "Executed Gas",
                                "value": 29172
                            }
                        ],
                        "depth": -1,
                        "name": "Actual Gas Used",
                        "value": 52492
                    },
                    {
                        "children": [],
                        "depth": -1,
                        "name": "Refunded Gas",
                        "value": 0
                    }
                ],
                "depth": -2,
                "name": "Total Gas",
                "value": 52492
            }
        ],
        "isConfirmed": true,
        "mainTrace": [
            {
                "children": [
                    {
                        "children": [
                            {
                                "children": [],
                                "depth": 1,
                                "id": 1,
                                "order": 1
                            }
                        ],
                        "depth": 0,
                        "id": 0,
                        "order": 0
                    }
                ],
                "depth": -1,
                "id": -1,
                "order": -1
            }
        ],
        "mainTraceNodeCount": 2,
        "parentIdMap": {
            "0": -1,
            "1": 0
        },
        "tidyTrace": [
            {
                "children": [
                    {
                        "children": [
                            {
                                "children": [],
                                "depth": 1,
                                "id": 1,
                                "order": 1
                            }
                        ],
                        "depth": 0,
                        "id": 0,
                        "order": 0
                    }
                ],
                "depth": -1,
                "id": -1,
                "order": -1
            }
        ],
        "tidyTraceNodeCount": 2
    },
    "state_change": {
        "stateChanges": [
            {
                "address": "0x4eef32781db07a9b7d9d36bb9ba81fa08af9d3ab",
                "erc": "ERC-20",
                "slots": [
                    {
                        "current": "0x000000000000000000000000000000000000000000b8c2d02bffc061d4280000",
                        "key": "0x970ac0ca3751c4d35acd7753dc2932ec4ac279c53263c7bdd3f0d6517b5e5034",
                        "prev": "0x000000000000000000000000000000000000000000b8d11679acd6e52e300000"
                    },
                    {
                        "current": "0x000000000000000000000000000000000000000000000e464dad16835a080000",
                        "key": "0xb2f160df8f1541224fcca8257e82c99eb7da7e18a329300c1a2ced359eafc45a",
                        "prev": "0x0000000000000000000000000000000000000000000000000000000000000000"
                    }
                ],
                "storageVariables": [
                    {
                        "name": "balances",
                        "type": "mapping(address => uint256)",
                        "value": {
                            "pairs": [
                                {
                                    "key": "0x0fd52eb3a6949b39ced7d6d235a7bab214b8fd8e",
                                    "value": {
                                        "current": "223362330000000000000000000",
                                        "prev": "223429740000000000000000000",
                                        "typeTag": 1
                                    }
                                },
                                {
                                    "key": "0xf5cf982579295f18621a570cf30f1fa64c70963b",
                                    "value": {
                                        "current": "67410000000000000000000",
                                        "prev": "0",
                                        "typeTag": 1
                                    }
                                }
                            ],
                            "typeTag": 4
                        }
                    }
                ]
            }
        ]
    }
}