{
    "balance_change": {
        "balanceChanges": [
            {
                "account": "0xd4e03de979dcc24aa2a59afedcf0df27f1fdf6b3",
                "assets": [
                    {
                        "address": "0x41e5560054824ea6b0732e656e3ad64e20e94e45",
                        "amount": "600",
                        "iconUrl": "",
                        "isERC1155": false,
                        "isERC721": false,
                        "sign": false,
                        "value": ""
                    }
                ]
            },
            {
                "account": "0x2ad7cb7ce3b5cbaa02481e416d85f5954748d292",
                "assets": [
                    {
                        "address": "0x41e5560054824ea6b0732e656e3ad64e20e94e45",
                        "amount": "600",
                        "iconUrl": "",
                        "isERC1155": false,
                        "isERC721": false,
                        "sign": true,
                        "value": ""
                    }
                ]
            }
        ]
    },
    "profile": {
        "basic_info": {
            "baseFee": "",
            "blockNumber": 5399519,
            "callData": "0xa9059cbb0000000000000000000000002ad7cb7ce3b5cbaa02481e416d85f5954748d2920000000000000000000000000000000000000000000000000000000df8475800",
            "debugEnable": true,
            "errorInfo": "",
            "eventCount": 1,
            "feeRecipient": "0x52bc44d5378309ee2abf1539bf71de1b7d7be3b5",
            "formatValue": "0",
            "gasLimit": 120000,
            "gasPrice": "24",
            "gasUsed": 21715,
            "intTxnCount": 0,
            "internalRevert": false,
            "internalRevertMessage": "",
            "isContractCreation": false,
            "isFlashloan": false,
            "maxFee": "",
            "nonce": 0,
            "overwritedBlockNumber": -1,
            "priorityFee": "",
            "receiver": "0x41e5560054824ea6b0732e656e3ad64e20e94e45",
            "revertMessage": "",
            "sender": "0xd4e03de979dcc24aa2a59afedcf0df27f1fdf6b3",
            "simulationEnable": true,
            "sourceTxnHash": "0xbc435ac594e2e3b62a5994b80694c2feb0adf3d62351a28541d58c57867b75b1",
            "status": true,
            "timestamp": "2018-04-07T21:55:58Z",
            "transactionFee": "0.00052116",
            "txnHash": "0xbc435ac594e2e3b62a5994b80694c2feb0adf3d62351a28541d58c57867b75b1",
            "txnIndex": 0,
            "type": 0,
            "value": "0"
        },
        "fund_flow": [
            {
                "amount": "600",
                "from": "0xd4e03de979dcc24aa2a59afedcf0df27f1fdf6b3",
                "id": 1,
                "isERC1155": false,
                "isERC721": false,
                "isReverted": false,
                "order": 1,
                "to": "0x2ad7cb7ce3b5cbaa02481e416d85f5954748d292",
                "token": "0x41e5560054824ea6b0732e656e3ad64e20e94e45"
            }
        ],
        "token_infos": [
            {
                "address": "0xeeeeeeeeeeeeeeeeeeeeeeeeeeeeeeeeeeeeeeee",
                "decimals": 18
            },
            {
                "address": "0x41e5560054824ea6b0732e656e3ad64e20e94e45",
                "decimals": 8
            },
            {
                "address": "0xc02aaa39b223fe8d0a0e5c4f27ead9083c756cc2",
                "decimals": 18
            }
        ]
    },
    "address_label": {
        "labels": [
            {
                "address": "0x0000000000000000000000000000000000000001",
                "label": "Precompiled"
            },
            {
                "address": "0x0000000000000000000000000000000000000002",
                "label": "Precompiled"
            },
            {
                "address": "0x0000000000000000000000000000000000000003",
                "label": "Precompiled"
            },
            {
                "address": "0x0000000000000000000000000000000000000004",
                "label": "Precompiled"
            },
            {
                "address": "0xeeeeeeeeeeeeeeeeeeeeeeeeeeeeeeeeeeeeeeee",
                "label": "Ether"
            },
            {
                "address": "0x41e5560054824ea6b0732e656e3ad64e20e94e45",
                "label": "Civic: CVC Token"
            }
        ]
    },
    "trace": {
        "accountLabels": null,
        "dataMap": {
            "-1": {
                "invocation": {
                    "address": "0xd4e03de979dcc24aa2a59afedcf0df27f1fdf6b3",
                    "callData": "",
                    "decodedMethod": null,
                    "errorInfo": "",
                    "fromAddress": "",
                    "gasUsed": 0,
                    "id": -1,
                    "methodDecoded": false,
                    "operation": "",
                    "output": "",
                    "revert": false,
                    "revertMessage": "",
                    "selector": "",
                    "status": false,
                    "value": ""
                },
                "nodeType": 0
            },
            "0": {
                "invocation": {
                    "address": "0x41e5560054824ea6b0732e656e3ad64e20e94e45",
                    "callData": "0x0000000000000000000000002ad7cb7ce3b5cbaa02481e416d85f5954748d2920000000000000000000000000000000000000000000000000000000df8475800",
                    "decodedMethod": {
                        "callParams": [
                            {
                                "name": "_to",
                                "type": "address",
                                "value": "0x2ad7cb7ce3b5cbaa02481e416d85f5954748d292"
                            },
                            {
                                "decimalAvailable": true,
                                "name": "_value",
                                "type": "uint256",
                                "value": "60,000,000,000"
                            }
                        ],
                        "constructorArguments": "",
                        "name": "transfer",
                        "returnParams": [
                            {
                                "name": "success",
                                "type": "bool",
                                "value": true
                            }
                        ],
                        "signature": "transfer(address,uint256)"
                    },
                    "errorInfo": "",
                    "fromAddress": "0xd4e03de979dcc24aa2a59afedcf0df27f1fdf6b3",
                    "gasUsed": 21715,
                    "id": 0,
                    "methodDecoded": true,
                    "operation": "CALL",
                    "output": "0x0000000000000000000000000000000000000000000000000000000000000001",
                    "revert": false,
                    "revertMessage": "",
                    "selector": "0xa9059cbb",
                    "status": true,
                    "value": "0"
                },
                "nodeType": 0
            },
            "1": {
                "event": {
                    "contract": "0x41e5560054824ea6b0732e656e3ad64e20e94e45",
                    "decodedLog": {
                        "name": "Transfer",
                        "params": [
                            {
                                "name": "from",
                                "type": "address",
                                "value": "0xd4e03de979dcc24aa2a59afedcf0df27f1fdf6b3"
                            },
                            {
                                "name": "to",
                                "type": "address",
                                "value": "0x2ad7cb7ce3b5cbaa02481e416d85f5954748d292"
                            },
                            {
                                "decimalAvailable": true,
                                "name": "value",
                                "type": "uint256",
                                "value": "60,000,000,000"
                            }
                        ],
                        "signature": "Transfer(address,address,uint256)"
                    },
                    "id": 1,
                    "logData": "0x0000000000000000000000000000000000000000000000000000000df8475800",
                    "logDecoded": true,
                    "operation": "EVENT",
                    "revert": false,
                    "status": true,
                    "topics": [
                        "0xddf252ad1be2c89b69c2b068fc378daa952ba7f163c4a11628f55a4df523b3ef",
                        "0x000000000000000000000000d4e03de979dcc24aa2a59afedcf0df27f1fdf6b3",
                        "0x0000000000000000000000002ad7cb7ce3b5cbaa02481e416d85f5954748d292"
                    ]
                },
                "nodeType": 1
            }
        },
        "gasFlame": [
            {
                "children": [
                    {
                        "children": [
                            {
                                "children": [],
                                "depth": 0,
                                "name": "Initial Gas",
                                "value": 23064
                            },
                            {
                                "children": [],
                                "depth": 0,
                                "name": "Executed Gas",
                                "value": 13651
                            }
                        ],
                        "depth": -1,
                        "name": "Actual Gas Used",
                        "value": 21715
                    },
                    {
                        "children": [],
                        "depth": -1,
                        "name": "Refunded Gas",
                        "value": 15000
                    }
                ],
                "depth": -2,
                "name": "Total Gas",
                "value": 36715
            }
        ],
        "isConfirmed": true,
        "mainTrace": [
            {
                "children": [
                    {
                        "children": [
                            {
                                "children": [],
                                "depth": 1,
                                "id": 1,
                                "order": 1
                            }
                        ],
                        "depth": 0,
                        "id": 0,
                        "order": 0
                    }
                ],
                "depth": -1,
                "id": -1,
                "order": -1
            }
        ],
        "mainTraceNodeCount": 2,
        "parentIdMap": {
            "0": -1,
            "1": 0
        },
        "tidyTrace": [
            {
                "children": [
                    {
                        "children": [
                            {
                                "children": [],
                                "depth": 1,
                                "id": 1,
                                "order": 1
                            }
                        ],
                        "depth": 0,
                        "id": 0,
                        "order": 0
                    }
                ],
                "depth": -1,
                "id": -1,
                "order": -1
            }
        ],
        "tidyTraceNodeCount": 2
    },
    "state_change": {
        "stateChanges": [
            {
                "address": "0x41e5560054824ea6b0732e656e3ad64e20e94e45",
                "erc": "ERC-20",
                "slots": [
                    {
                        "current": "0x0000000000000000000000000000000000000000000000000000000000000000",
                        "key": "0x5b4956ea9d03235aa3ecb1953b22b0615a8230d9512c4ff99b8e5bf823f2e5eb",
                        "prev": "0x0000000000000000000000000000000000000000000000000000000df8475800"
                    },
                    {
                        "current": "0x00000000000000000000000000000000000000000000000000000a5399b40d7a",
                        "key": "0x9702ad08d2d7db2356736906f07ed582c9cedf9f8eb4bca71fc3c5262d451214",
                        "prev": "0x00000000000000000000000000000000000000000000000000000a45a16cb57a"
                    }
                ],
                "storageVariables": []
            }
        ]
    }
}