{
    "balance_change": {
        "balanceChanges": [
            {
                "account": "0x71dd678c1ea452d0b33d4bf7973df96c9e743c6a",
                "assets": [
                    {
                        "address": "0x5d285f735998f36631f678ff41fb56a10a4d0429",
                        "amount": "61,342.73",
                        "iconUrl": "",
                        "isERC1155": false,
                        "isERC721": false,
                        "sign": false,
                        "value": ""
                    }
                ]
            },
            {
                "account": "0xd26c2ac31f0daf70d90625218bcaf5a0cf183e2b",
                "assets": [
                    {
                        "address": "0x5d285f735998f36631f678ff41fb56a10a4d0429",
                        "amount": "61,342.73",
                        "iconUrl": "",
                        "isERC1155": false,
                        "isERC721": false,
                        "sign": true,
                        "value": ""
                    }
                ]
            }
        ]
    },
    "profile": {
        "basic_info": {
            "baseFee": "",
            "blockNumber": 7935861,
            "callData": "0xa9059cbb000000000000000000000000d26c2ac31f0daf70d90625218bcaf5a0cf183e2b000000000000000000000000000000000000000000000cfd6563f74989c10000",
            "debugEnable": true,
            "errorInfo": "",
            "eventCount": 1,
            "feeRecipient": "0xaa5c4244f05c92781c4f259913319d8ba1acf05e",
            "formatValue": "0",
            "gasLimit": 110000,
            "gasPrice": "60",
            "gasUsed": 22459,
            "intTxnCount": 0,
            "internalRevert": false,
            "internalRevertMessage": "",
            "isContractCreation": false,
            "isFlashloan": false,
            "maxFee": "",
            "nonce": 2,
            "overwritedBlockNumber": -1,
            "priorityFee": "",
            "receiver": "0x5d285f735998f36631f678ff41fb56a10a4d0429",
            "revertMessage": "",
            "sender": "0x71dd678c1ea452d0b33d4bf7973df96c9e743c6a",
            "simulationEnable": true,
            "sourceTxnHash": "0xbc14a7ef4b3262ecda0ece12347ed379371513e489a95f6e5f5ced640d55e796",
            "status": true,
            "timestamp": "2019-06-11T06:15:12Z",
            "transactionFee": "0.00134754",
            "txnHash": "0xbc14a7ef4b3262ecda0ece12347ed379371513e489a95f6e5f5ced640d55e796",
            "txnIndex": 15,
            "type": 0,
            "value": "0"
        },
        "fund_flow": [
            {
                "amount": "61,342.73",
                "from": "0x71dd678c1ea452d0b33d4bf7973df96c9e743c6a",
                "id": 1,
                "isERC1155": false,
                "isERC721": false,
                "isReverted": false,
                "order": 1,
                "to": "0xd26c2ac31f0daf70d90625218bcaf5a0cf183e2b",
                "token": "0x5d285f735998f36631f678ff41fb56a10a4d0429"
            }
        ],
        "token_infos": [
            {
                "address": "0x5d285f735998f36631f678ff41fb56a10a4d0429",
                "decimals": 18
            },
            {
                "address": "0xc02aaa39b223fe8d0a0e5c4f27ead9083c756cc2",
                "decimals": 18
            },
            {
                "address": "0xeeeeeeeeeeeeeeeeeeeeeeeeeeeeeeeeeeeeeeee",
                "decimals": 18
            }
        ]
    },
    "address_label": {
        "labels": [
            {
                "address": "0xeeeeeeeeeeeeeeeeeeeeeeeeeeeeeeeeeeeeeeee",
                "label": "Ether"
            },
            {
                "address": "0x5d285f735998f36631f678ff41fb56a10a4d0429",
                "label": "MixMarvel Token"
            },
            {
                "address": "0x0000000000000000000000000000000000000001",
                "label": "Precompiled"
            },
            {
                "address": "0x0000000000000000000000000000000000000002",
                "label": "Precompiled"
            },
            {
                "address": "0x0000000000000000000000000000000000000003",
                "label": "Precompiled"
            },
            {
                "address": "0x0000000000000000000000000000000000000004",
                "label": "Precompiled"
            }
        ]
    },
    "trace": {
        "accountLabels": null,
        "dataMap": {
            "-1": {
                "invocation": {
                    "address": "0x71dd678c1ea452d0b33d4bf7973df96c9e743c6a",
                    "callData": "",
                    "decodedMethod": null,
                    "errorInfo": "",
                    "fromAddress": "",
                    "gasUsed": 0,
                    "id": -1,
                    "methodDecoded": false,
                    "operation": "",
                    "output": "",
                    "revert": false,
                    "revertMessage": "",
                    "selector": "",
                    "status": false,
                    "value": ""
                },
                "nodeType": 0
            },
            "0": {
                "invocation": {
                    "address": "0x5d285f735998f36631f678ff41fb56a10a4d0429",
                    "callData": "0x000000000000000000000000d26c2ac31f0daf70d90625218bcaf5a0cf183e2b000000000000000000000000000000000000000000000cfd6563f74989c10000",
                    "decodedMethod": {
                        "callParams": [
                            {
                                "name": "to",
                                "type": "address",
                                "value": "0xd26c2ac31f0daf70d90625218bcaf5a0cf183e2b"
                            },
                            {
                                "decimalAvailable": true,
                                "name": "value",
                                "type": "uint256",
                                "value": "61,342,730,000,000,000,000,000"
                            }
                        ],
                        "constructorArguments": "",
                        "name": "transfer",
                        "returnParams": [
                            {
                                "name": "",
                                "type": "bool",
                                "value": true
                            }
                        ],
                        "signature": "transfer(address,uint256)"
                    },
                    "errorInfo": "",
                    "fromAddress": "0x71dd678c1ea452d0b33d4bf7973df96c9e743c6a",
                    "gasUsed": 22459,
                    "id": 0,
                    "methodDecoded": true,
                    "operation": "CALL",
                    "output": "0x0000000000000000000000000000000000000000000000000000000000000001",
                    "revert": false,
                    "revertMessage": "",
                    "selector": "0xa9059cbb",
                    "status": true,
                    "value": "0"
                },
                "nodeType": 0
            },
            "1": {
                "event": {
                    "contract": "0x5d285f735998f36631f678ff41fb56a10a4d0429",
                    "decodedLog": {
                        "name": "Transfer",
                        "params": [
                            {
                                "name": "from",
                                "type": "address",
                                "value": "0x71dd678c1ea452d0b33d4bf7973df96c9e743c6a"
                            },
                            {
                                "name": "to",
                                "type": "address",
                                "value": "0xd26c2ac31f0daf70d90625218bcaf5a0cf183e2b"
                            },
                            {
                                "decimalAvailable": true,
                                "name": "value",
                                "type": "uint256",
                                "value": "61,342,730,000,000,000,000,000"
                            }
                        ],
                        "signature": "Transfer(address,address,uint256)"
                    },
                    "id": 1,
                    "logData": "0x000000000000000000000000000000000000000000000cfd6563f74989c10000",
                    "logDecoded": true,
                    "operation": "EVENT",
                    "revert": false,
                    "status": true,
                    "topics": [
                        "0xddf252ad1be2c89b69c2b068fc378daa952ba7f163c4a11628f55a4df523b3ef",
                        "0x00000000000000000000000071dd678c1ea452d0b33d4bf7973df96c9e743c6a",
                        "0x000000000000000000000000d26c2ac31f0daf70d90625218bcaf5a0cf183e2b"
                    ]
                },
                "nodeType": 1
            }
        },
        "gasFlame": [
            {
                "children": [
                    {
                        "children": [
                            {
                                "children": [],
                                "depth": 0,
                                "name": "Initial Gas",
                                "value": 23320
                            },
                            {
                                "children": [],
                                "depth": 0,
                                "name": "Executed Gas",
                                "value": 14139
                            }
                        ],
                        "depth": -1,
                        "name": "Actual Gas Used",
                        "value": 22459
                    },
                    {
                        "children": [],
                        "depth": -1,
                        "name": "Refunded Gas",
                        "value": 15000
                    }
                ],
                "depth": -2,
                "name": "Total Gas",
                "value": 37459
            }
        ],
        "isConfirmed": true,
        "mainTrace": [
            {
                "children": [
                    {
                        "children": [
                            {
                                "children": [],
                                "depth": 1,
                                "id": 1,
                                "order": 1
                            }
                        ],
                        "depth": 0,
                        "id": 0,
                        "order": 0
                    }
                ],
                "depth": -1,
                "id": -1,
                "order": -1
            }
        ],
        "mainTraceNodeCount": 2,
        "parentIdMap": {
            "0": -1,
            "1": 0
        },
        "tidyTrace": [
            {
                "children": [
                    {
                        "children": [
                            {
                                "children": [],
                                "depth": 1,
                                "id": 1,
                                "order": 1
                            }
                        ],
                        "depth": 0,
                        "id": 0,
                        "order": 0
                    }
                ],
                "depth": -1,
                "id": -1,
                "order": -1
            }
        ],
        "tidyTraceNodeCount": 2
    },
    "state_change": {
        "stateChanges": [
            {
                "address": "0x5d285f735998f36631f678ff41fb56a10a4d0429",
                "erc": "ERC-20",
                "slots": [
                    {
                        "current": "0x0000000000000000000000000000000000000000000000000000000000000000",
                        "key": "0x2e5b443fd879659c00fe30f94f5b35e6c4c28692426f7d1003010ba3795f2116",
                        "prev": "0x000000000000000000000000000000000000000000000cfd6563f74989c10000"
                    },
                    {
                        "current": "0x0000000000000000000000000000000000000000000ee09e538b1e9ef2bf5100",
                        "key": "0x885111dbb506680a2442a3a6926f36521a6021589767a9548ebb5f9df6bed3b6",
                        "prev": "0x0000000000000000000000000000000000000000000ed3a0ee27275568fe5100"
                    }
                ],
                "storageVariables": [
                    {
                        "name": "_balances",
                        "type": "mapping(address => uint256)",
                        "value": {
                            "pairs": [
                                {
                                    "key": "0x71dd678c1ea452d0b33d4bf7973df96c9e743c6a",
                                    "value": {
                                        "current": "0",
                                        "prev": "61342730000000000000000",
                                        "typeTag": 1
                                    }
                                },
                                {
                                    "key": "0xd26c2ac31f0daf70d90625218bcaf5a0cf183e2b",
                                    "value": {
                                        "current": "17985692172270250020000000",
                                        "prev": "17924349442270250020000000",
                                        "typeTag": 1
                                    }
                                }
                            ],
                            "typeTag": 4
                        }
                    }
                ]
            }
        ]
    }
}