{
    "balance_change": {
        "balanceChanges": [
            {
                "account": "0xecc4b9583ea59c8bd4dfaa30e1676e302b39c2ff",
                "assets": [
                    {
                        "address": "0xc011a73ee8576fb46f5e1c5751ca3b9fe0af2a6f",
                        "amount": "332.129548803192103043",
                        "iconUrl": "https://assets.blocksec.com/icon/c1e3b6af03ce5f020e733ca697c33400586b436d22b539a9570605e485361831.png",
                        "isERC1155": false,
                        "isERC721": false,
                        "sign": false,
                        "value": "2421.745336"
                    },
                    {
                        "address": "0xb4d930279552397bba2ee473229f89ec245bc365",
                        "amount": "205.877854487046432392",
                        "iconUrl": "",
                        "isERC1155": false,
                        "isERC721": false,
                        "sign": true,
                        "value": "2369.800547"
                    }
                ]
            },
            {
                "account": "0x43ae24960e5534731fc831386c07755a2dc33d47",
                "assets": [
                    {
                        "address": "0xc02aaa39b223fe8d0a0e5c4f27ead9083c756cc2",
                        "amount": "4.043379137328817075",
                        "iconUrl": "https://assets.blocksec.com/icon/f1cb2d02c471d545bbc7722daf3277fd852d98e63d118771af7047bd8256c516.png",
                        "isERC1155": false,
                        "isERC721": false,
                        "sign": false,
                        "value": "2404.030915"
                    },
                    {
                        "address": "0xc011a73ee8576fb46f5e1c5751ca3b9fe0af2a6f",
                        "amount": "332.129548803192103043",
                        "iconUrl": "https://assets.blocksec.com/icon/c1e3b6af03ce5f020e733ca697c33400586b436d22b539a9570605e485361831.png",
                        "isERC1155": false,
                        "isERC721": false,
                        "sign": true,
                        "value": "2421.745336"
                    }
                ]
            },
            {
                "account": "0xc0897d6ba893e31f42f658eead777aa15b8f824d",
                "assets": [
                    {
                        "address": "0xc02aaa39b223fe8d0a0e5c4f27ead9083c756cc2",
                        "amount": "4.043379137328817075",
                        "iconUrl": "https://assets.blocksec.com/icon/f1cb2d02c471d545bbc7722daf3277fd852d98e63d118771af7047bd8256c516.png",
                        "isERC1155": false,
                        "isERC721": false,
                        "sign": true,
                        "value": "2404.030915"
                    },
                    {
                        "address": "0xb4d930279552397bba2ee473229f89ec245bc365",
                        "amount": "205.877854487046432392",
                        "iconUrl": "",
                        "isERC1155": false,
                        "isERC721": false,
                        "sign": false,
                        "value": "2369.800547"
                    }
                ]
            }
        ]
    },
    "profile": {
        "basic_info": {
            "baseFee": "",
            "blockNumber": 11518427,
            "callData": "0x38ed1739000000000000000000000000000000000000000000000012013930f05107a08300000000000000000000000000000000000000000000000ad5e96d4f1f7f9f3200000000000000000000000000000000000000000000000000000000000000a0000000000000000000000000ecc4b9583ea59c8bd4dfaa30e1676e302b39c2ff000000000000000000000000000000000000000000000000000000005fe4f7470000000000000000000000000000000000000000000000000000000000000003000000000000000000000000c011a73ee8576fb46f5e1c5751ca3b9fe0af2a6f000000000000000000000000c02aaa39b223fe8d0a0e5c4f27ead9083c756cc2000000000000000000000000b4d930279552397bba2ee473229f89ec245bc365",
            "debugEnable": true,
            "errorInfo": "",
            "eventCount": 7,
            "feeRecipient": "0x829bd824b016326a401d083b33d092293333a830",
            "formatValue": "0",
            "gasLimit": 271866,
            "gasPrice": "33",
            "gasUsed": 221637,
            "intTxnCount": 24,
            "internalRevert": false,
            "internalRevertMessage": "",
            "isContractCreation": false,
            "isFlashloan": false,
            "maxFee": "",
            "nonce": 409,
            "overwritedBlockNumber": -1,
            "priorityFee": "",
            "receiver": "0x7a250d5630b4cf539739df2c5dacb4c659f2488d",
            "revertMessage": "",
            "sender": "0xecc4b9583ea59c8bd4dfaa30e1676e302b39c2ff",
            "simulationEnable": true,
            "sourceTxnHash": "0xbc0716c0e313ce9afc70319feaa1635e134ee77615afe4f6659508ff98f465ee",
            "status": true,
            "timestamp": "2020-12-24T20:16:43Z",
            "transactionFee": "0.007314021",
            "txnHash": "0xbc0716c0e313ce9afc70319feaa1635e134ee77615afe4f6659508ff98f465ee",
            "txnIndex": 26,
            "type": 0,
            "value": "0"
        },
        "fund_flow": [
            {
                "amount": "332.129548803192103043",
                "from": "0xecc4b9583ea59c8bd4dfaa30e1676e302b39c2ff",
                "id": 1,
                "isERC1155": false,
                "isERC721": false,
                "isReverted": false,
                "order": 1,
                "to": "0x43ae24960e5534731fc831386c07755a2dc33d47",
                "token": "0xc011a73ee8576fb46f5e1c5751ca3b9fe0af2a6f"
            },
            {
                "amount": "4.043379137328817075",
                "from": "0x43ae24960e5534731fc831386c07755a2dc33d47",
                "id": 2,
                "isERC1155": false,
                "isERC721": false,
                "isReverted": false,
                "order": 2,
                "to": "0xc0897d6ba893e31f42f658eead777aa15b8f824d",
                "token": "0xc02aaa39b223fe8d0a0e5c4f27ead9083c756cc2"
            },
            {
                "amount": "205.877854487046432392",
                "from": "0xc0897d6ba893e31f42f658eead777aa15b8f824d",
                "id": 3,
                "isERC1155": false,
                "isERC721": false,
                "isReverted": false,
                "order": 3,
                "to": "0xecc4b9583ea59c8bd4dfaa30e1676e302b39c2ff",
                "token": "0xb4d930279552397bba2ee473229f89ec245bc365"
            }
        ],
        "token_infos": [
            {
                "address": "0xb4d930279552397bba2ee473229f89ec245bc365",
                "decimals": 18
            },
            {
                "address": "0xc011a73ee8576fb46f5e1c5751ca3b9fe0af2a6f",
                "decimals": 18
            },
            {
                "address": "0xc02aaa39b223fe8d0a0e5c4f27ead9083c756cc2",
                "decimals": 18
            },
            {
                "address": "0xeeeeeeeeeeeeeeeeeeeeeeeeeeeeeeeeeeeeeeee",
                "decimals": 18
            }
        ]
    },
    "address_label": {
        "labels": [
            {
                "address": "0x5b1b5fea1b99d83ad479df0c222f0492385381dd",
                "label": "Synthetix: Token State Synthetix"
            },
            {
                "address": "0x4534e92eefecc63c6105f53893d355c14aa129cf",
                "label": "Synthetix: Old System Status"
            },
            {
                "address": "0x7a250d5630b4cf539739df2c5dacb4c659f2488d",
                "label": "Uniswap V2: Router 2"
            },
            {
                "address": "0xc011a73ee8576fb46f5e1c5751ca3b9fe0af2a6f",
                "label": "Synthetix: Proxy SNX Token"
            },
            {
                "address": "0xc02aaa39b223fe8d0a0e5c4f27ead9083c756cc2",
                "label": "Wrapped Ether (WETH)"
            },
            {
                "address": "0xc0897d6ba893e31f42f658eead777aa15b8f824d",
                "label": "Uniswap V2: MAHA 2"
            },
            {
                "address": "0x6e6a43a8148b5c54a94c044a835476d3f3f4d59a",
                "label": "Synthetix Network Token (SNX)"
            },
            {
                "address": "0xb4d930279552397bba2ee473229f89ec245bc365",
                "label": "MahaDAO: Old MAHA Token"
            },
            {
                "address": "0x4b9ca5607f1ff8019c1c6a3c2f0cc8de622d5b82",
                "label": "Synthetix: State"
            },
            {
                "address": "0x0000000000000000000000000000000000000001",
                "label": "Precompiled"
            },
            {
                "address": "0x0000000000000000000000000000000000000002",
                "label": "Precompiled"
            },
            {
                "address": "0x0000000000000000000000000000000000000003",
                "label": "Precompiled"
            },
            {
                "address": "0x0000000000000000000000000000000000000004",
                "label": "Precompiled"
            },
            {
                "address": "0xeeeeeeeeeeeeeeeeeeeeeeeeeeeeeeeeeeeeeeee",
                "label": "Ether"
            },
            {
                "address": "0x43ae24960e5534731fc831386c07755a2dc33d47",
                "label": "Uniswap V2: SNX"
            }
        ]
    },
    "trace": {
        "accountLabels": null,
        "dataMap": {
            "-1": {
                "invocation": {
                    "address": "0xecc4b9583ea59c8bd4dfaa30e1676e302b39c2ff",
                    "callData": "",
                    "decodedMethod": null,
                    "errorInfo": "",
                    "fromAddress": "",
                    "gasUsed": 0,
                    "id": -1,
                    "methodDecoded": false,
                    "operation": "",
                    "output": "",
                    "revert": false,
                    "revertMessage": "",
                    "selector": "",
                    "status": false,
                    "value": ""
                },
                "nodeType": 0
            },
            "0": {
                "invocation": {
                    "address": "0x7a250d5630b4cf539739df2c5dacb4c659f2488d",
                    "callData": "0x000000000000000000000000000000000000000000000012013930f05107a08300000000000000000000000000000000000000000000000ad5e96d4f1f7f9f3200000000000000000000000000000000000000000000000000000000000000a0000000000000000000000000ecc4b9583ea59c8bd4dfaa30e1676e302b39c2ff000000000000000000000000000000000000000000000000000000005fe4f7470000000000000000000000000000000000000000000000000000000000000003000000000000000000000000c011a73ee8576fb46f5e1c5751ca3b9fe0af2a6f000000000000000000000000c02aaa39b223fe8d0a0e5c4f27ead9083c756cc2000000000000000000000000b4d930279552397bba2ee473229f89ec245bc365",
                    "decodedMethod": {
                        "callParams": [
                            {
                                "name": "amountIn",
                                "type": "uint256",
                                "value": "332,129,548,803,192,103,043"
                            },
                            {
                                "name": "amountOutMin",
                                "type": "uint256",
                                "value": "199,881,412,123,346,050,866"
                            },
                            {
                                "name": "path",
                                "type": "address[]",
                                "value": [
                                    "0xc011a73ee8576fb46f5e1c5751ca3b9fe0af2a6f",
                                    "0xc02aaa39b223fe8d0a0e5c4f27ead9083c756cc2",
                                    "0xb4d930279552397bba2ee473229f89ec245bc365"
                                ]
                            },
                            {
                                "name": "to",
                                "type": "address",
                                "value": "0xecc4b9583ea59c8bd4dfaa30e1676e302b39c2ff"
                            },
                            {
                                "name": "deadline",
                                "type": "uint256",
                                "value": "1,608,841,031"
                            }
                        ],
                        "constructorArguments": "",
                        "name": "swapExactTokensForTokens",
                        "returnParams": [
                            {
                                "name": "amounts",
                                "type": "uint256[]",
                                "value": [
                                    "332,129,548,803,192,103,043",
                                    "4,043,379,137,328,817,075",
                                    "205,877,854,487,046,432,392"
                                ]
                            }
                        ],
                        "signature": "swapExactTokensForTokens(uint256,uint256,address[],address,uint256)"
                    },
                    "errorInfo": "",
                    "fromAddress": "0xecc4b9583ea59c8bd4dfaa30e1676e302b39c2ff",
                    "gasUsed": 221637,
                    "id": 0,
                    "methodDecoded": true,
                    "operation": "CALL",
                    "output": "0x00000000000000000000000000000000000000000000000000000000000000200000000000000000000000000000000000000000000000000000000000000003000000000000000000000000000000000000000000000012013930f05107a083000000000000000000000000000000000000000000000000381cf7e714b5a3b300000000000000000000000000000000000000000000000b292111de4bf6a688",
                    "revert": false,
                    "revertMessage": "",
                    "selector": "0x38ed1739",
                    "status": true,
                    "value": "0"
                },
                "nodeType": 0
            },
            "1": {
                "invocation": {
                    "address": "0x43ae24960e5534731fc831386c07755a2dc33d47",
                    "callData": "0x",
                    "decodedMethod": {
                        "callParams": [],
                        "constructorArguments": "",
                        "name": "getReserves",
                        "returnParams": [
                            {
                                "name": "_reserve0",
                                "type": "uint112",
                                "value": "385,828,205,457,852,310,004,512"
                            },
                            {
                                "name": "_reserve1",
                                "type": "uint112",
                                "value": "4,715,289,198,802,914,232,257"
                            },
                            {
                                "name": "_blockTimestampLast",
                                "type": "uint32",
                                "value": "1,608,840,621"
                            }
                        ],
                        "signature": "getReserves()"
                    },
                    "errorInfo": "",
                    "fromAddress": "0x7a250d5630b4cf539739df2c5dacb4c659f2488d",
                    "gasUsed": 1204,
                    "id": 1,
                    "methodDecoded": true,
                    "operation": "STATICCALL",
                    "output": "0x0000000000000000000000000000000000000000000051b3c9f732793550a3200000000000000000000000000000000000000000000000ff9dc86fa36bf7c7c1000000000000000000000000000000000000000000000000000000005fe4f5ad",
                    "revert": false,
                    "revertMessage": "",
                    "selector": "0x0902f1ac",
                    "status": true,
                    "value": "0"
                },
                "nodeType": 0
            },
            "10": {
                "invocation": {
                    "address": "0x5b1b5fea1b99d83ad479df0c222f0492385381dd",
                    "callData": "0x000000000000000000000000ecc4b9583ea59c8bd4dfaa30e1676e302b39c2ff",
                    "decodedMethod": {
                        "callParams": [
                            {
                                "name": "",
                                "type": "address",
                                "value": "0xecc4b9583ea59c8bd4dfaa30e1676e302b39c2ff"
                            }
                        ],
                        "constructorArguments": "",
                        "name": "balanceOf",
                        "returnParams": [
                            {
                                "decimalAvailable": true,
                                "name": "",
                                "type": "uint256",
                                "value": "332,129,548,803,192,103,043"
                            }
                        ],
                        "signature": "balanceOf(address)"
                    },
                    "errorInfo": "",
                    "fromAddress": "0x6e6a43a8148b5c54a94c044a835476d3f3f4d59a",
                    "gasUsed": 1186,
                    "id": 10,
                    "methodDecoded": true,
                    "operation": "STATICCALL",
                    "output": "0x000000000000000000000000000000000000000000000012013930f05107a083",
                    "revert": false,
                    "revertMessage": "",
                    "selector": "0x70a08231",
                    "status": true,
                    "value": "0"
                },
                "nodeType": 0
            },
            "11": {
                "invocation": {
                    "address": "0x5b1b5fea1b99d83ad479df0c222f0492385381dd",
                    "callData": "0x000000000000000000000000ecc4b9583ea59c8bd4dfaa30e1676e302b39c2ff0000000000000000000000000000000000000000000000000000000000000000",
                    "decodedMethod": {
                        "callParams": [
                            {
                                "name": "account",
                                "type": "address",
                                "value": "0xecc4b9583ea59c8bd4dfaa30e1676e302b39c2ff"
                            },
                            {
                                "name": "value",
                                "type": "uint256",
                                "value": "0"
                            }
                        ],
                        "constructorArguments": "",
                        "name": "setBalanceOf",
                        "returnParams": [],
                        "signature": "setBalanceOf(address,uint256)"
                    },
                    "errorInfo": "",
                    "fromAddress": "0x6e6a43a8148b5c54a94c044a835476d3f3f4d59a",
                    "gasUsed": 6425,
                    "id": 11,
                    "methodDecoded": true,
                    "operation": "CALL",
                    "output": "",
                    "revert": false,
                    "revertMessage": "",
                    "selector": "0xb46310f6",
                    "status": true,
                    "value": "0"
                },
                "nodeType": 0
            },
            "12": {
                "invocation": {
                    "address": "0x5b1b5fea1b99d83ad479df0c222f0492385381dd",
                    "callData": "0x00000000000000000000000043ae24960e5534731fc831386c07755a2dc33d47",
                    "decodedMethod": {
                        "callParams": [
                            {
                                "name": "",
                                "type": "address",
                                "value": "0x43ae24960e5534731fc831386c07755a2dc33d47"
                            }
                        ],
                        "constructorArguments": "",
                        "name": "balanceOf",
                        "returnParams": [
                            {
                                "decimalAvailable": true,
                                "name": "",
                                "type": "uint256",
                                "value": "385,828,205,457,852,310,004,512"
                            }
                        ],
                        "signature": "balanceOf(address)"
                    },
                    "errorInfo": "",
                    "fromAddress": "0x6e6a43a8148b5c54a94c044a835476d3f3f4d59a",
                    "gasUsed": 1186,
                    "id": 12,
                    "methodDecoded": true,
                    "operation": "STATICCALL",
                    "output": "0x0000000000000000000000000000000000000000000051b3c9f732793550a320",
                    "revert": false,
                    "revertMessage": "",
                    "selector": "0x70a08231",
                    "status": true,
                    "value": "0"
                },
                "nodeType": 0
            },
            "13": {
                "invocation": {
                    "address": "0x5b1b5fea1b99d83ad479df0c222f0492385381dd",
                    "callData": "0x00000000000000000000000043ae24960e5534731fc831386c07755a2dc33d470000000000000000000000000000000000000000000051c5cb306369865843a3",
                    "decodedMethod": {
                        "callParams": [
                            {
                                "name": "account",
                                "type": "address",
                                "value": "0x43ae24960e5534731fc831386c07755a2dc33d47"
                            },
                            {
                                "name": "value",
                                "type": "uint256",
                                "value": "386,160,335,006,655,502,107,555"
                            }
                        ],
                        "constructorArguments": "",
                        "name": "setBalanceOf",
                        "returnParams": [],
                        "signature": "setBalanceOf(address,uint256)"
                    },
                    "errorInfo": "",
                    "fromAddress": "0x6e6a43a8148b5c54a94c044a835476d3f3f4d59a",
                    "gasUsed": 6425,
                    "id": 13,
                    "methodDecoded": true,
                    "operation": "CALL",
                    "output": "",
                    "revert": false,
                    "revertMessage": "",
                    "selector": "0xb46310f6",
                    "status": true,
                    "value": "0"
                },
                "nodeType": 0
            },
            "14": {
                "invocation": {
                    "address": "0xc011a73ee8576fb46f5e1c5751ca3b9fe0af2a6f",
                    "callData": "0x00000000000000000000000000000000000000000000000000000000000000c00000000000000000000000000000000000000000000000000000000000000003ddf252ad1be2c89b69c2b068fc378daa952ba7f163c4a11628f55a4df523b3ef000000000000000000000000ecc4b9583ea59c8bd4dfaa30e1676e302b39c2ff00000000000000000000000043ae24960e5534731fc831386c07755a2dc33d4700000000000000000000000000000000000000000000000000000000000000000000000000000000000000000000000000000000000000000000000000000020000000000000000000000000000000000000000000000012013930f05107a083",
                    "decodedMethod": {
                        "callParams": [
                            {
                                "name": "callData",
                                "type": "bytes",
                                "value": "0x000000000000000000000000000000000000000000000012013930f05107a083"
                            },
                            {
                                "name": "numTopics",
                                "type": "uint256",
                                "value": "3"
                            },
                            {
                                "name": "topic1",
                                "type": "bytes32",
                                "value": "0xddf252ad1be2c89b69c2b068fc378daa952ba7f163c4a11628f55a4df523b3ef"
                            },
                            {
                                "name": "topic2",
                                "type": "bytes32",
                                "value": "0x000000000000000000000000ecc4b9583ea59c8bd4dfaa30e1676e302b39c2ff"
                            },
                            {
                                "name": "topic3",
                                "type": "bytes32",
                                "value": "0x00000000000000000000000043ae24960e5534731fc831386c07755a2dc33d47"
                            },
                            {
                                "name": "topic4",
                                "type": "bytes32",
                                "value": "0x0000000000000000000000000000000000000000000000000000000000000000"
                            }
                        ],
                        "constructorArguments": "",
                        "name": "_emit",
                        "returnParams": [],
                        "signature": "_emit(bytes,uint256,bytes32,bytes32,bytes32,bytes32)"
                    },
                    "errorInfo": "",
                    "fromAddress": "0x6e6a43a8148b5c54a94c044a835476d3f3f4d59a",
                    "gasUsed": 3406,
                    "id": 14,
                    "methodDecoded": true,
                    "operation": "CALL",
                    "output": "",
                    "revert": false,
                    "revertMessage": "",
                    "selector": "0x907dff97",
                    "status": true,
                    "value": "0"
                },
                "nodeType": 0
            },
            "15": {
                "event": {
                    "contract": "0xc011a73ee8576fb46f5e1c5751ca3b9fe0af2a6f",
                    "decodedLog": {
                        "name": "Transfer",
                        "params": [
                            {
                                "name": "from",
                                "type": "address",
                                "value": "0xecc4b9583ea59c8bd4dfaa30e1676e302b39c2ff"
                            },
                            {
                                "name": "to",
                                "type": "address",
                                "value": "0x43ae24960e5534731fc831386c07755a2dc33d47"
                            },
                            {
                                "decimalAvailable": true,
                                "name": "value",
                                "type": "uint256",
                                "value": "332,129,548,803,192,103,043"
                            }
                        ],
                        "signature": "Transfer(address,address,uint256)"
                    },
                    "id": 15,
                    "logData": "0x000000000000000000000000000000000000000000000012013930f05107a083",
                    "logDecoded": true,
                    "operation": "EVENT",
                    "revert": false,
                    "status": true,
                    "topics": [
                        "0xddf252ad1be2c89b69c2b068fc378daa952ba7f163c4a11628f55a4df523b3ef",
                        "0x000000000000000000000000ecc4b9583ea59c8bd4dfaa30e1676e302b39c2ff",
                        "0x00000000000000000000000043ae24960e5534731fc831386c07755a2dc33d47"
                    ]
                },
                "nodeType": 1
            },
            "16": {
                "invocation": {
                    "address": "0x43ae24960e5534731fc831386c07755a2dc33d47",
                    "callData": "0x0000000000000000000000000000000000000000000000000000000000000000000000000000000000000000000000000000000000000000381cf7e714b5a3b3000000000000000000000000c0897d6ba893e31f42f658eead777aa15b8f824d00000000000000000000000000000000000000000000000000000000000000800000000000000000000000000000000000000000000000000000000000000000",
                    "decodedMethod": {
                        "callParams": [
                            {
                                "name": "amount0Out",
                                "type": "uint256",
                                "value": "0"
                            },
                            {
                                "name": "amount1Out",
                                "type": "uint256",
                                "value": "4,043,379,137,328,817,075"
                            },
                            {
                                "name": "to",
                                "type": "address",
                                "value": "0xc0897d6ba893e31f42f658eead777aa15b8f824d"
                            },
                            {
                                "name": "data",
                                "type": "bytes",
                                "value": "0x"
                            }
                        ],
                        "constructorArguments": "",
                        "name": "swap",
                        "returnParams": [],
                        "signature": "swap(uint256,uint256,address,bytes)"
                    },
                    "errorInfo": "",
                    "fromAddress": "0x7a250d5630b4cf539739df2c5dacb4c659f2488d",
                    "gasUsed": 62327,
                    "id": 16,
                    "methodDecoded": true,
                    "operation": "CALL",
                    "output": "",
                    "revert": false,
                    "revertMessage": "",
                    "selector": "0x022c0d9f",
                    "status": true,
                    "value": "0"
                },
                "nodeType": 0
            },
            "17": {
                "invocation": {
                    "address": "0xc02aaa39b223fe8d0a0e5c4f27ead9083c756cc2",
                    "callData": "0x000000000000000000000000c0897d6ba893e31f42f658eead777aa15b8f824d000000000000000000000000000000000000000000000000381cf7e714b5a3b3",
                    "decodedMethod": {
                        "callParams": [
                            {
                                "name": "dst",
                                "type": "address",
                                "value": "0xc0897d6ba893e31f42f658eead777aa15b8f824d"
                            },
                            {
                                "decimalAvailable": true,
                                "name": "wad",
                                "type": "uint256",
                                "value": "4,043,379,137,328,817,075"
                            }
                        ],
                        "constructorArguments": "",
                        "name": "transfer",
                        "returnParams": [
                            {
                                "name": "",
                                "type": "bool",
                                "value": true
                            }
                        ],
                        "signature": "transfer(address,uint256)"
                    },
                    "errorInfo": "",
                    "fromAddress": "0x43ae24960e5534731fc831386c07755a2dc33d47",
                    "gasUsed": 15162,
                    "id": 17,
                    "methodDecoded": true,
                    "operation": "CALL",
                    "output": "0x0000000000000000000000000000000000000000000000000000000000000001",
                    "revert": false,
                    "revertMessage": "",
                    "selector": "0xa9059cbb",
                    "status": true,
                    "value": "0"
                },
                "nodeType": 0
            },
            "18": {
                "event": {
                    "contract": "0xc02aaa39b223fe8d0a0e5c4f27ead9083c756cc2",
                    "decodedLog": {
                        "name": "Transfer",
                        "params": [
                            {
                                "name": "src",
                                "type": "address",
                                "value": "0x43ae24960e5534731fc831386c07755a2dc33d47"
                            },
                            {
                                "name": "dst",
                                "type": "address",
                                "value": "0xc0897d6ba893e31f42f658eead777aa15b8f824d"
                            },
                            {
                                "decimalAvailable": true,
                                "name": "wad",
                                "type": "uint256",
                                "value": "4,043,379,137,328,817,075"
                            }
                        ],
                        "signature": "Transfer(address,address,uint256)"
                    },
                    "id": 18,
                    "logData": "0x000000000000000000000000000000000000000000000000381cf7e714b5a3b3",
                    "logDecoded": true,
                    "operation": "EVENT",
                    "revert": false,
                    "status": true,
                    "topics": [
                        "0xddf252ad1be2c89b69c2b068fc378daa952ba7f163c4a11628f55a4df523b3ef",
                        "0x00000000000000000000000043ae24960e5534731fc831386c07755a2dc33d47",
                        "0x000000000000000000000000c0897d6ba893e31f42f658eead777aa15b8f824d"
                    ]
                },
                "nodeType": 1
            },
            "19": {
                "invocation": {
                    "address": "0xc011a73ee8576fb46f5e1c5751ca3b9fe0af2a6f",
                    "callData": "0x00000000000000000000000043ae24960e5534731fc831386c07755a2dc33d47",
                    "decodedMethod": {
                        "callParams": [
                            {
                                "name": "owner",
                                "type": "address",
                                "value": "0x43ae24960e5534731fc831386c07755a2dc33d47"
                            }
                        ],
                        "constructorArguments": "",
                        "name": "balanceOf",
                        "returnParams": [
                            {
                                "decimalAvailable": true,
                                "name": "",
                                "type": "uint256",
                                "value": "386,160,335,006,655,502,107,555"
                            }
                        ],
                        "signature": "balanceOf(address)"
                    },
                    "errorInfo": "",
                    "fromAddress": "0x43ae24960e5534731fc831386c07755a2dc33d47",
                    "gasUsed": 6908,
                    "id": 19,
                    "methodDecoded": true,
                    "operation": "STATICCALL",
                    "output": "0x0000000000000000000000000000000000000000000051c5cb306369865843a3",
                    "revert": false,
                    "revertMessage": "",
                    "selector": "0x70a08231",
                    "status": true,
                    "value": "0"
                },
                "nodeType": 0
            },
            "2": {
                "invocation": {
                    "address": "0xc0897d6ba893e31f42f658eead777aa15b8f824d",
                    "callData": "0x",
                    "decodedMethod": {
                        "callParams": [],
                        "constructorArguments": "",
                        "name": "getReserves",
                        "returnParams": [
                            {
                                "name": "_reserve0",
                                "type": "uint112",
                                "value": "49,344,679,725,510,526,915,042"
                            },
                            {
                                "name": "_reserve1",
                                "type": "uint112",
                                "value": "962,176,074,708,114,388,312"
                            },
                            {
                                "name": "_blockTimestampLast",
                                "type": "uint32",
                                "value": "1,608,840,892"
                            }
                        ],
                        "signature": "getReserves()"
                    },
                    "errorInfo": "",
                    "fromAddress": "0x7a250d5630b4cf539739df2c5dacb4c659f2488d",
                    "gasUsed": 1204,
                    "id": 2,
                    "methodDecoded": true,
                    "operation": "STATICCALL",
                    "output": "0x000000000000000000000000000000000000000000000a72fafea308aaba51e200000000000000000000000000000000000000000000003428e01a1ea4deb558000000000000000000000000000000000000000000000000000000005fe4f6bc",
                    "revert": false,
                    "revertMessage": "",
                    "selector": "0x0902f1ac",
                    "status": true,
                    "value": "0"
                },
                "nodeType": 0
            },
            "20": {
                "invocation": {
                    "address": "0x6e6a43a8148b5c54a94c044a835476d3f3f4d59a",
                    "callData": "0x00000000000000000000000043ae24960e5534731fc831386c07755a2dc33d47",
                    "decodedMethod": {
                        "callParams": [
                            {
                                "name": "account",
                                "type": "address",
                                "value": "0x43ae24960e5534731fc831386c07755a2dc33d47"
                            }
                        ],
                        "constructorArguments": "",
                        "name": "balanceOf",
                        "returnParams": [
                            {
                                "decimalAvailable": true,
                                "name": "",
                                "type": "uint256",
                                "value": "386,160,335,006,655,502,107,555"
                            }
                        ],
                        "signature": "balanceOf(address)"
                    },
                    "errorInfo": "",
                    "fromAddress": "0xc011a73ee8576fb46f5e1c5751ca3b9fe0af2a6f",
                    "gasUsed": 3984,
                    "id": 20,
                    "methodDecoded": true,
                    "operation": "CALL",
                    "output": "0x0000000000000000000000000000000000000000000051c5cb306369865843a3",
                    "revert": false,
                    "revertMessage": "",
                    "selector": "0x70a08231",
                    "status": true,
                    "value": "0"
                },
                "nodeType": 0
            },
            "21": {
                "invocation": {
                    "address": "0x5b1b5fea1b99d83ad479df0c222f0492385381dd",
                    "callData": "0x00000000000000000000000043ae24960e5534731fc831386c07755a2dc33d47",
                    "decodedMethod": {
                        "callParams": [
                            {
                                "name": "",
                                "type": "address",
                                "value": "0x43ae24960e5534731fc831386c07755a2dc33d47"
                            }
                        ],
                        "constructorArguments": "",
                        "name": "balanceOf",
                        "returnParams": [
                            {
                                "decimalAvailable": true,
                                "name": "",
                                "type": "uint256",
                                "value": "386,160,335,006,655,502,107,555"
                            }
                        ],
                        "signature": "balanceOf(address)"
                    },
                    "errorInfo": "",
                    "fromAddress": "0x6e6a43a8148b5c54a94c044a835476d3f3f4d59a",
                    "gasUsed": 1186,
                    "id": 21,
                    "methodDecoded": true,
                    "operation": "STATICCALL",
                    "output": "0x0000000000000000000000000000000000000000000051c5cb306369865843a3",
                    "revert": false,
                    "revertMessage": "",
                    "selector": "0x70a08231",
                    "status": true,
                    "value": "0"
                },
                "nodeType": 0
            },
            "22": {
                "invocation": {
                    "address": "0xc02aaa39b223fe8d0a0e5c4f27ead9083c756cc2",
                    "callData": "0x00000000000000000000000043ae24960e5534731fc831386c07755a2dc33d47",
                    "decodedMethod": {
                        "callParams": [
                            {
                                "name": "",
                                "type": "address",
                                "value": "0x43ae24960e5534731fc831386c07755a2dc33d47"
                            }
                        ],
                        "constructorArguments": "",
                        "name": "balanceOf",
                        "returnParams": [
                            {
                                "decimalAvailable": true,
                                "name": "",
                                "type": "uint256",
                                "value": "4,711,245,819,665,585,415,182"
                            }
                        ],
                        "signature": "balanceOf(address)"
                    },
                    "errorInfo": "",
                    "fromAddress": "0x43ae24960e5534731fc831386c07755a2dc33d47",
                    "gasUsed": 1234,
                    "id": 22,
                    "methodDecoded": true,
                    "operation": "STATICCALL",
                    "output": "0x0000000000000000000000000000000000000000000000ff65ab77bc5742240e",
                    "revert": false,
                    "revertMessage": "",
                    "selector": "0x70a08231",
                    "status": true,
                    "value": "0"
                },
                "nodeType": 0
            },
            "23": {
                "event": {
                    "contract": "0x43ae24960e5534731fc831386c07755a2dc33d47",
                    "decodedLog": {
                        "name": "Sync",
                        "params": [
                            {
                                "name": "reserve0",
                                "type": "uint112",
                                "value": "386,160,335,006,655,502,107,555"
                            },
                            {
                                "name": "reserve1",
                                "type": "uint112",
                                "value": "4,711,245,819,665,585,415,182"
                            }
                        ],
                        "signature": "Sync(uint112,uint112)"
                    },
                    "id": 23,
                    "logData": "0x0000000000000000000000000000000000000000000051c5cb306369865843a30000000000000000000000000000000000000000000000ff65ab77bc5742240e",
                    "logDecoded": true,
                    "operation": "EVENT",
                    "revert": false,
                    "status": true,
                    "topics": [
                        "0x1c411e9a96e071241c2f21f7726b17ae89e3cab4c78be50e062b03a9fffbbad1"
                    ]
                },
                "nodeType": 1
            },
            "24": {
                "event": {
                    "contract": "0x43ae24960e5534731fc831386c07755a2dc33d47",
                    "decodedLog": {
                        "name": "Swap",
                        "params": [
                            {
                                "name": "sender",
                                "type": "address",
                                "value": "0x7a250d5630b4cf539739df2c5dacb4c659f2488d"
                            },
                            {
                                "name": "to",
                                "type": "address",
                                "value": "0xc0897d6ba893e31f42f658eead777aa15b8f824d"
                            },
                            {
                                "name": "amount0In",
                                "type": "uint256",
                                "value": "332,129,548,803,192,103,043"
                            },
                            {
                                "name": "amount1In",
                                "type": "uint256",
                                "value": "0"
                            },
                            {
                                "name": "amount0Out",
                                "type": "uint256",
                                "value": "0"
                            },
                            {
                                "name": "amount1Out",
                                "type": "uint256",
                                "value": "4,043,379,137,328,817,075"
                            }
                        ],
                        "signature": "Swap(address,uint256,uint256,uint256,uint256,address)"
                    },
                    "id": 24,
                    "logData": "0x000000000000000000000000000000000000000000000012013930f05107a08300000000000000000000000000000000000000000000000000000000000000000000000000000000000000000000000000000000000000000000000000000000000000000000000000000000000000000000000000000000381cf7e714b5a3b3",
                    "logDecoded": true,
                    "operation": "EVENT",
                    "revert": false,
                    "status": true,
                    "topics": [
                        "0xd78ad95fa46c994b6551d0da85fc275fe613ce37657fb8d5e3d130840159d822",
                        "0x0000000000000000000000007a250d5630b4cf539739df2c5dacb4c659f2488d",
                        "0x000000000000000000000000c0897d6ba893e31f42f658eead777aa15b8f824d"
                    ]
                },
                "nodeType": 1
            },
            "25": {
                "invocation": {
                    "address": "0xc0897d6ba893e31f42f658eead777aa15b8f824d",
                    "callData": "0x00000000000000000000000000000000000000000000000b292111de4bf6a6880000000000000000000000000000000000000000000000000000000000000000000000000000000000000000ecc4b9583ea59c8bd4dfaa30e1676e302b39c2ff00000000000000000000000000000000000000000000000000000000000000800000000000000000000000000000000000000000000000000000000000000000",
                    "decodedMethod": {
                        "callParams": [
                            {
                                "name": "amount0Out",
                                "type": "uint256",
                                "value": "205,877,854,487,046,432,392"
                            },
                            {
                                "name": "amount1Out",
                                "type": "uint256",
                                "value": "0"
                            },
                            {
                                "name": "to",
                                "type": "address",
                                "value": "0xecc4b9583ea59c8bd4dfaa30e1676e302b39c2ff"
                            },
                            {
                                "name": "data",
                                "type": "bytes",
                                "value": "0x"
                            }
                        ],
                        "constructorArguments": "",
                        "name": "swap",
                        "returnParams": [],
                        "signature": "swap(uint256,uint256,address,bytes)"
                    },
                    "errorInfo": "",
                    "fromAddress": "0x7a250d5630b4cf539739df2c5dacb4c659f2488d",
                    "gasUsed": 71953,
                    "id": 25,
                    "methodDecoded": true,
                    "operation": "CALL",
                    "output": "",
                    "revert": false,
                    "revertMessage": "",
                    "selector": "0x022c0d9f",
                    "status": true,
                    "value": "0"
                },
                "nodeType": 0
            },
            "26": {
                "invocation": {
                    "address": "0xb4d930279552397bba2ee473229f89ec245bc365",
                    "callData": "0x000000000000000000000000ecc4b9583ea59c8bd4dfaa30e1676e302b39c2ff00000000000000000000000000000000000000000000000b292111de4bf6a688",
                    "decodedMethod": {
                        "callParams": [
                            {
                                "name": "recipient",
                                "type": "address",
                                "value": "0xecc4b9583ea59c8bd4dfaa30e1676e302b39c2ff"
                            },
                            {
                                "decimalAvailable": true,
                                "name": "amount",
                                "type": "uint256",
                                "value": "205,877,854,487,046,432,392"
                            }
                        ],
                        "constructorArguments": "",
                        "name": "transfer",
                        "returnParams": [
                            {
                                "name": "",
                                "type": "bool",
                                "value": true
                            }
                        ],
                        "signature": "transfer(address,uint256)"
                    },
                    "errorInfo": "",
                    "fromAddress": "0xc0897d6ba893e31f42f658eead777aa15b8f824d",
                    "gasUsed": 30486,
                    "id": 26,
                    "methodDecoded": true,
                    "operation": "CALL",
                    "output": "0x0000000000000000000000000000000000000000000000000000000000000001",
                    "revert": false,
                    "revertMessage": "",
                    "selector": "0xa9059cbb",
                    "status": true,
                    "value": "0"
                },
                "nodeType": 0
            },
            "27": {
                "event": {
                    "contract": "0xb4d930279552397bba2ee473229f89ec245bc365",
                    "decodedLog": {
                        "name": "Transfer",
                        "params": [
                            {
                                "name": "from",
                                "type": "address",
                                "value": "0xc0897d6ba893e31f42f658eead777aa15b8f824d"
                            },
                            {
                                "name": "to",
                                "type": "address",
                                "value": "0xecc4b9583ea59c8bd4dfaa30e1676e302b39c2ff"
                            },
                            {
                                "decimalAvailable": true,
                                "name": "value",
                                "type": "uint256",
                                "value": "205,877,854,487,046,432,392"
                            }
                        ],
                        "signature": "Transfer(address,address,uint256)"
                    },
                    "id": 27,
                    "logData": "0x00000000000000000000000000000000000000000000000b292111de4bf6a688",
                    "logDecoded": true,
                    "operation": "EVENT",
                    "revert": false,
                    "status": true,
                    "topics": [
                        "0xddf252ad1be2c89b69c2b068fc378daa952ba7f163c4a11628f55a4df523b3ef",
                        "0x000000000000000000000000c0897d6ba893e31f42f658eead777aa15b8f824d",
                        "0x000000000000000000000000ecc4b9583ea59c8bd4dfaa30e1676e302b39c2ff"
                    ]
                },
                "nodeType": 1
            },
            "28": {
                "invocation": {
                    "address": "0xb4d930279552397bba2ee473229f89ec245bc365",
                    "callData": "0x000000000000000000000000c0897d6ba893e31f42f658eead777aa15b8f824d",
                    "decodedMethod": {
                        "callParams": [
                            {
                                "name": "account",
                                "type": "address",
                                "value": "0xc0897d6ba893e31f42f658eead777aa15b8f824d"
                            }
                        ],
                        "constructorArguments": "",
                        "name": "balanceOf",
                        "returnParams": [
                            {
                                "decimalAvailable": true,
                                "name": "",
                                "type": "uint256",
                                "value": "49,138,801,871,023,480,482,650"
                            }
                        ],
                        "signature": "balanceOf(address)"
                    },
                    "errorInfo": "",
                    "fromAddress": "0xc0897d6ba893e31f42f658eead777aa15b8f824d",
                    "gasUsed": 1210,
                    "id": 28,
                    "methodDecoded": true,
                    "operation": "STATICCALL",
                    "output": "0x000000000000000000000000000000000000000000000a67d1dd912a5ec3ab5a",
                    "revert": false,
                    "revertMessage": "",
                    "selector": "0x70a08231",
                    "status": true,
                    "value": "0"
                },
                "nodeType": 0
            },
            "29": {
                "invocation": {
                    "address": "0xc02aaa39b223fe8d0a0e5c4f27ead9083c756cc2",
                    "callData": "0x000000000000000000000000c0897d6ba893e31f42f658eead777aa15b8f824d",
                    "decodedMethod": {
                        "callParams": [
                            {
                                "name": "",
                                "type": "address",
                                "value": "0xc0897d6ba893e31f42f658eead777aa15b8f824d"
                            }
                        ],
                        "constructorArguments": "",
                        "name": "balanceOf",
                        "returnParams": [
                            {
                                "decimalAvailable": true,
                                "name": "",
                                "type": "uint256",
                                "value": "966,219,453,845,443,205,387"
                            }
                        ],
                        "signature": "balanceOf(address)"
                    },
                    "errorInfo": "",
                    "fromAddress": "0xc0897d6ba893e31f42f658eead777aa15b8f824d",
                    "gasUsed": 1234,
                    "id": 29,
                    "methodDecoded": true,
                    "operation": "STATICCALL",
                    "output": "0x00000000000000000000000000000000000000000000003460fd1205b994590b",
                    "revert": false,
                    "revertMessage": "",
                    "selector": "0x70a08231",
                    "status": true,
                    "value": "0"
                },
                "nodeType": 0
            },
            "3": {
                "invocation": {
                    "address": "0xc011a73ee8576fb46f5e1c5751ca3b9fe0af2a6f",
                    "callData": "0x000000000000000000000000ecc4b9583ea59c8bd4dfaa30e1676e302b39c2ff00000000000000000000000043ae24960e5534731fc831386c07755a2dc33d47000000000000000000000000000000000000000000000012013930f05107a083",
                    "decodedMethod": {
                        "callParams": [
                            {
                                "name": "from",
                                "type": "address",
                                "value": "0xecc4b9583ea59c8bd4dfaa30e1676e302b39c2ff"
                            },
                            {
                                "name": "to",
                                "type": "address",
                                "value": "0x43ae24960e5534731fc831386c07755a2dc33d47"
                            },
                            {
                                "decimalAvailable": true,
                                "name": "value",
                                "type": "uint256",
                                "value": "332,129,548,803,192,103,043"
                            }
                        ],
                        "constructorArguments": "",
                        "name": "transferFrom",
                        "returnParams": [
                            {
                                "name": "",
                                "type": "bool",
                                "value": true
                            }
                        ],
                        "signature": "transferFrom(address,address,uint256)"
                    },
                    "errorInfo": "",
                    "fromAddress": "0x7a250d5630b4cf539739df2c5dacb4c659f2488d",
                    "gasUsed": 66737,
                    "id": 3,
                    "methodDecoded": true,
                    "operation": "CALL",
                    "output": "0x0000000000000000000000000000000000000000000000000000000000000001",
                    "revert": false,
                    "revertMessage": "",
                    "selector": "0x23b872dd",
                    "status": true,
                    "value": "0"
                },
                "nodeType": 0
            },
            "30": {
                "event": {
                    "contract": "0xc0897d6ba893e31f42f658eead777aa15b8f824d",
                    "decodedLog": {
                        "name": "Sync",
                        "params": [
                            {
                                "name": "reserve0",
                                "type": "uint112",
                                "value": "49,138,801,871,023,480,482,650"
                            },
                            {
                                "name": "reserve1",
                                "type": "uint112",
                                "value": "966,219,453,845,443,205,387"
                            }
                        ],
                        "signature": "Sync(uint112,uint112)"
                    },
                    "id": 30,
                    "logData": "0x000000000000000000000000000000000000000000000a67d1dd912a5ec3ab5a00000000000000000000000000000000000000000000003460fd1205b994590b",
                    "logDecoded": true,
                    "operation": "EVENT",
                    "revert": false,
                    "status": true,
                    "topics": [
                        "0x1c411e9a96e071241c2f21f7726b17ae89e3cab4c78be50e062b03a9fffbbad1"
                    ]
                },
                "nodeType": 1
            },
            "31": {
                "event": {
                    "contract": "0xc0897d6ba893e31f42f658eead777aa15b8f824d",
                    "decodedLog": {
                        "name": "Swap",
                        "params": [
                            {
                                "name": "sender",
                                "type": "address",
                                "value": "0x7a250d5630b4cf539739df2c5dacb4c659f2488d"
                            },
                            {
                                "name": "to",
                                "type": "address",
                                "value": "0xecc4b9583ea59c8bd4dfaa30e1676e302b39c2ff"
                            },
                            {
                                "name": "amount0In",
                                "type": "uint256",
                                "value": "0"
                            },
                            {
                                "name": "amount1In",
                                "type": "uint256",
                                "value": "4,043,379,137,328,817,075"
                            },
                            {
                                "name": "amount0Out",
                                "type": "uint256",
                                "value": "205,877,854,487,046,432,392"
                            },
                            {
                                "name": "amount1Out",
                                "type": "uint256",
                                "value": "0"
                            }
                        ],
                        "signature": "Swap(address,uint256,uint256,uint256,uint256,address)"
                    },
                    "id": 31,
                    "logData": "0x0000000000000000000000000000000000000000000000000000000000000000000000000000000000000000000000000000000000000000381cf7e714b5a3b300000000000000000000000000000000000000000000000b292111de4bf6a6880000000000000000000000000000000000000000000000000000000000000000",
                    "logDecoded": true,
                    "operation": "EVENT",
                    "revert": false,
                    "status": true,
                    "topics": [
                        "0xd78ad95fa46c994b6551d0da85fc275fe613ce37657fb8d5e3d130840159d822",
                        "0x0000000000000000000000007a250d5630b4cf539739df2c5dacb4c659f2488d",
                        "0x000000000000000000000000ecc4b9583ea59c8bd4dfaa30e1676e302b39c2ff"
                    ]
                },
                "nodeType": 1
            },
            "4": {
                "invocation": {
                    "address": "0x6e6a43a8148b5c54a94c044a835476d3f3f4d59a",
                    "callData": "0x0000000000000000000000007a250d5630b4cf539739df2c5dacb4c659f2488d",
                    "decodedMethod": {
                        "callParams": [
                            {
                                "name": "sender",
                                "type": "address",
                                "value": "0x7a250d5630b4cf539739df2c5dacb4c659f2488d"
                            }
                        ],
                        "constructorArguments": "",
                        "name": "setMessageSender",
                        "returnParams": [],
                        "signature": "setMessageSender(address)"
                    },
                    "errorInfo": "",
                    "fromAddress": "0xc011a73ee8576fb46f5e1c5751ca3b9fe0af2a6f",
                    "gasUsed": 7044,
                    "id": 4,
                    "methodDecoded": true,
                    "operation": "CALL",
                    "output": "",
                    "revert": false,
                    "revertMessage": "",
                    "selector": "0xbc67f832",
                    "status": true,
                    "value": "0"
                },
                "nodeType": 0
            },
            "5": {
                "invocation": {
                    "address": "0x6e6a43a8148b5c54a94c044a835476d3f3f4d59a",
                    "callData": "0x000000000000000000000000ecc4b9583ea59c8bd4dfaa30e1676e302b39c2ff00000000000000000000000043ae24960e5534731fc831386c07755a2dc33d47000000000000000000000000000000000000000000000012013930f05107a083",
                    "decodedMethod": {
                        "callParams": [
                            {
                                "name": "from",
                                "type": "address",
                                "value": "0xecc4b9583ea59c8bd4dfaa30e1676e302b39c2ff"
                            },
                            {
                                "name": "to",
                                "type": "address",
                                "value": "0x43ae24960e5534731fc831386c07755a2dc33d47"
                            },
                            {
                                "decimalAvailable": true,
                                "name": "value",
                                "type": "uint256",
                                "value": "332,129,548,803,192,103,043"
                            }
                        ],
                        "constructorArguments": "",
                        "name": "transferFrom",
                        "returnParams": [
                            {
                                "name": "",
                                "type": "bool",
                                "value": true
                            }
                        ],
                        "signature": "transferFrom(address,address,uint256)"
                    },
                    "errorInfo": "",
                    "fromAddress": "0xc011a73ee8576fb46f5e1c5751ca3b9fe0af2a6f",
                    "gasUsed": 54255,
                    "id": 5,
                    "methodDecoded": true,
                    "operation": "CALL",
                    "output": "0x0000000000000000000000000000000000000000000000000000000000000001",
                    "revert": false,
                    "revertMessage": "",
                    "selector": "0x23b872dd",
                    "status": true,
                    "value": "0"
                },
                "nodeType": 0
            },
            "6": {
                "invocation": {
                    "address": "0x4534e92eefecc63c6105f53893d355c14aa129cf",
                    "callData": "0x",
                    "decodedMethod": {
                        "callParams": [],
                        "constructorArguments": "",
                        "name": "requireSystemActive",
                        "returnParams": [],
                        "signature": "requireSystemActive()"
                    },
                    "errorInfo": "",
                    "fromAddress": "0x6e6a43a8148b5c54a94c044a835476d3f3f4d59a",
                    "gasUsed": 1194,
                    "id": 6,
                    "methodDecoded": true,
                    "operation": "STATICCALL",
                    "output": "",
                    "revert": false,
                    "revertMessage": "",
                    "selector": "0x086dabd1",
                    "status": true,
                    "value": "0"
                },
                "nodeType": 0
            },
            "7": {
                "invocation": {
                    "address": "0x4b9ca5607f1ff8019c1c6a3c2f0cc8de622d5b82",
                    "callData": "0x000000000000000000000000ecc4b9583ea59c8bd4dfaa30e1676e302b39c2ff",
                    "decodedMethod": {
                        "callParams": [
                            {
                                "name": "",
                                "type": "address",
                                "value": "0xecc4b9583ea59c8bd4dfaa30e1676e302b39c2ff"
                            }
                        ],
                        "constructorArguments": "",
                        "name": "issuanceData",
                        "returnParams": [
                            {
                                "name": "initialDebtOwnership",
                                "type": "uint256",
                                "value": "0"
                            },
                            {
                                "name": "debtEntryIndex",
                                "type": "uint256",
                                "value": "0"
                            }
                        ],
                        "signature": "issuanceData(address)"
                    },
                    "errorInfo": "",
                    "fromAddress": "0x6e6a43a8148b5c54a94c044a835476d3f3f4d59a",
                    "gasUsed": 2275,
                    "id": 7,
                    "methodDecoded": true,
                    "operation": "STATICCALL",
                    "output": "0x00000000000000000000000000000000000000000000000000000000000000000000000000000000000000000000000000000000000000000000000000000000",
                    "revert": false,
                    "revertMessage": "",
                    "selector": "0x8b3f8088",
                    "status": true,
                    "value": "0"
                },
                "nodeType": 0
            },
            "8": {
                "invocation": {
                    "address": "0x5b1b5fea1b99d83ad479df0c222f0492385381dd",
                    "callData": "0x000000000000000000000000ecc4b9583ea59c8bd4dfaa30e1676e302b39c2ff0000000000000000000000007a250d5630b4cf539739df2c5dacb4c659f2488d",
                    "decodedMethod": {
                        "callParams": [
                            {
                                "name": "",
                                "type": "address",
                                "value": "0xecc4b9583ea59c8bd4dfaa30e1676e302b39c2ff"
                            },
                            {
                                "name": "",
                                "type": "address",
                                "value": "0x7a250d5630b4cf539739df2c5dacb4c659f2488d"
                            }
                        ],
                        "constructorArguments": "",
                        "name": "allowance",
                        "returnParams": [
                            {
                                "decimalAvailable": true,
                                "name": "",
                                "type": "uint256",
                                "value": "115,792,089,237,316,195,423,570,985,008,687,907,853,269,984,665,640,564,039,154,527,974,323,630,691,996"
                            }
                        ],
                        "signature": "allowance(address,address)"
                    },
                    "errorInfo": "",
                    "fromAddress": "0x6e6a43a8148b5c54a94c044a835476d3f3f4d59a",
                    "gasUsed": 1405,
                    "id": 8,
                    "methodDecoded": true,
                    "operation": "STATICCALL",
                    "output": "0xffffffffffffffffffffffffffffffffffffffffffffffef9240af1c2b10d69c",
                    "revert": false,
                    "revertMessage": "",
                    "selector": "0xdd62ed3e",
                    "status": true,
                    "value": "0"
                },
                "nodeType": 0
            },
            "9": {
                "invocation": {
                    "address": "0x5b1b5fea1b99d83ad479df0c222f0492385381dd",
                    "callData": "0x000000000000000000000000ecc4b9583ea59c8bd4dfaa30e1676e302b39c2ff0000000000000000000000007a250d5630b4cf539739df2c5dacb4c659f2488dffffffffffffffffffffffffffffffffffffffffffffffdd91077e2bda093619",
                    "decodedMethod": {
                        "callParams": [
                            {
                                "name": "tokenOwner",
                                "type": "address",
                                "value": "0xecc4b9583ea59c8bd4dfaa30e1676e302b39c2ff"
                            },
                            {
                                "name": "spender",
                                "type": "address",
                                "value": "0x7a250d5630b4cf539739df2c5dacb4c659f2488d"
                            },
                            {
                                "name": "value",
                                "type": "uint256",
                                "value": "115,792,089,237,316,195,423,570,985,008,687,907,853,269,984,665,640,564,038,822,398,425,520,438,588,953"
                            }
                        ],
                        "constructorArguments": "",
                        "name": "setAllowance",
                        "returnParams": [],
                        "signature": "setAllowance(address,address,uint256)"
                    },
                    "errorInfo": "",
                    "fromAddress": "0x6e6a43a8148b5c54a94c044a835476d3f3f4d59a",
                    "gasUsed": 6549,
                    "id": 9,
                    "methodDecoded": true,
                    "operation": "CALL",
                    "output": "",
                    "revert": false,
                    "revertMessage": "",
                    "selector": "0xda46098c",
                    "status": true,
                    "value": "0"
                },
                "nodeType": 0
            }
        },
        "gasFlame": [
            {
                "children": [
                    {
                        "children": [
                            {
                                "children": [],
                                "depth": 0,
                                "name": "Initial Gas",
                                "value": 23464
                            },
                            {
                                "children": [
                                    {
                                        "children": [],
                                        "depth": 1,
                                        "name": "getReserves",
                                        "value": 1204
                                    },
                                    {
                                        "children": [],
                                        "depth": 1,
                                        "name": "getReserves",
                                        "value": 1204
                                    },
                                    {
                                        "children": [
                                            {
                                                "children": [],
                                                "depth": 2,
                                                "name": "setMessageSender",
                                                "value": 7044
                                            },
                                            {
                                                "children": [
                                                    {
                                                        "children": [],
                                                        "depth": 3,
                                                        "name": "requireSystemActive",
                                                        "value": 1194
                                                    },
                                                    {
                                                        "children": [],
                                                        "depth": 3,
                                                        "name": "issuanceData",
                                                        "value": 2275
                                                    },
                                                    {
                                                        "children": [],
                                                        "depth": 3,
                                                        "name": "allowance",
                                                        "value": 1405
                                                    },
                                                    {
                                                        "children": [],
                                                        "depth": 3,
                                                        "name": "setAllowance",
                                                        "value": 6549
                                                    },
                                                    {
                                                        "children": [],
                                                        "depth": 3,
                                                        "name": "balanceOf",
                                                        "value": 1186
                                                    },
                                                    {
                                                        "children": [],
                                                        "depth": 3,
                                                        "name": "setBalanceOf",
                                                        "value": 6425
                                                    },
                                                    {
                                                        "children": [],
                                                        "depth": 3,
                                                        "name": "balanceOf",
                                                        "value": 1186
                                                    },
                                                    {
                                                        "children": [],
                                                        "depth": 3,
                                                        "name": "setBalanceOf",
                                                        "value": 6425
                                                    },
                                                    {
                                                        "children": [],
                                                        "depth": 3,
                                                        "name": "_emit",
                                                        "value": 3406
                                                    }
                                                ],
                                                "depth": 2,
                                                "name": "transferFrom",
                                                "value": 54255
                                            }
                                        ],
                                        "depth": 1,
                                        "name": "transferFrom",
                                        "value": 66737
                                    },
                                    {
                                        "children": [
                                            {
                                                "children": [],
                                                "depth": 2,
                                                "name": "transfer",
                                                "value": 15162
                                            },
                                            {
                                                "children": [
                                                    {
                                                        "children": [
                                                            {
                                                                "children": [],
                                                                "depth": 4,
                                                                "name": "balanceOf",
                                                                "value": 1186
                                                            }
                                                        ],
                                                        "depth": 3,
                                                        "name": "balanceOf",
                                                        "value": 3984
                                                    }
                                                ],
                                                "depth": 2,
                                                "name": "balanceOf",
                                                "value": 6908
                                            },
                                            {
                                                "children": [],
                                                "depth": 2,
                                                "name": "balanceOf",
                                                "value": 1234
                                            }
                                        ],
                                        "depth": 1,
                                        "name": "swap",
                                        "value": 62327
                                    },
                                    {
                                        "children": [
                                            {
                                                "children": [],
                                                "depth": 2,
                                                "name": "transfer",
                                                "value": 30486
                                            },
                                            {
                                                "children": [],
                                                "depth": 2,
                                                "name": "balanceOf",
                                                "value": 1210
                                            },
                                            {
                                                "children": [],
                                                "depth": 2,
                                                "name": "balanceOf",
                                                "value": 1234
                                            }
                                        ],
                                        "depth": 1,
                                        "name": "swap",
                                        "value": 71953
                                    }
                                ],
                                "depth": 0,
                                "name": "Executed Gas",
                                "value": 221573
                            }
                        ],
                        "depth": -1,
                        "name": "Actual Gas Used",
                        "value": 221637
                    },
                    {
                        "children": [],
                        "depth": -1,
                        "name": "Refunded Gas",
                        "value": 23400
                    }
                ],
                "depth": -2,
                "name": "Total Gas",
                "value": 245037
            }
        ],
        "isConfirmed": true,
        "mainTrace": [
            {
                "children": [
                    {
                        "children": [
                            {
                                "children": [],
                                "depth": 1,
                                "id": 1,
                                "order": 1
                            },
                            {
                                "children": [],
                                "depth": 1,
                                "id": 2,
                                "order": 2
                            },
                            {
                                "children": [
                                    {
                                        "children": [],
                                        "depth": 2,
                                        "id": 4,
                                        "order": 4
                                    },
                                    {
                                        "children": [
                                            {
                                                "children": [],
                                                "depth": 3,
                                                "id": 6,
                                                "order": 6
                                            },
                                            {
                                                "children": [],
                                                "depth": 3,
                                                "id": 7,
                                                "order": 7
                                            },
                                            {
                                                "children": [],
                                                "depth": 3,
                                                "id": 8,
                                                "order": 8
                                            },
                                            {
                                                "children": [],
                                                "depth": 3,
                                                "id": 9,
                                                "order": 9
                                            },
                                            {
                                                "children": [],
                                                "depth": 3,
                                                "id": 10,
                                                "order": 10
                                            },
                                            {
                                                "children": [],
                                                "depth": 3,
                                                "id": 11,
                                                "order": 11
                                            },
                                            {
                                                "children": [],
                                                "depth": 3,
                                                "id": 12,
                                                "order": 12
                                            },
                                            {
                                                "children": [],
                                                "depth": 3,
                                                "id": 13,
                                                "order": 13
                                            },
                                            {
                                                "children": [
                                                    {
                                                        "children": [],
                                                        "depth": 4,
                                                        "id": 15,
                                                        "order": 15
                                                    }
                                                ],
                                                "depth": 3,
                                                "id": 14,
                                                "order": 14
                                            }
                                        ],
                                        "depth": 2,
                                        "id": 5,
                                        "order": 5
                                    }
                                ],
                                "depth": 1,
                                "id": 3,
                                "order": 3
                            },
                            {
                                "children": [
                                    {
                                        "children": [
                                            {
                                                "children": [],
                                                "depth": 3,
                                                "id": 18,
                                                "order": 18
                                            }
                                        ],
                                        "depth": 2,
                                        "id": 17,
                                        "order": 17
                                    },
                                    {
                                        "children": [
                                            {
                                                "children": [
                                                    {
                                                        "children": [],
                                                        "depth": 4,
                                                        "id": 21,
                                                        "order": 21
                                                    }
                                                ],
                                                "depth": 3,
                                                "id": 20,
                                                "order": 20
                                            }
                                        ],
                                        "depth": 2,
                                        "id": 19,
                                        "order": 19
                                    },
                                    {
                                        "children": [],
                                        "depth": 2,
                                        "id": 22,
                                        "order": 22
                                    },
                                    {
                                        "children": [],
                                        "depth": 2,
                                        "id": 23,
                                        "order": 23
                                    },
                                    {
                                        "children": [],
                                        "depth": 2,
                                        "id": 24,
                                        "order": 24
                                    }
                                ],
                                "depth": 1,
                                "id": 16,
                                "order": 16
                            },
                            {
                                "children": [
                                    {
                                        "children": [
                                            {
                                                "children": [],
                                                "depth": 3,
                                                "id": 27,
                                                "order": 27
                                            }
                                        ],
                                        "depth": 2,
                                        "id": 26,
                                        "order": 26
                                    },
                                    {
                                        "children": [],
                                        "depth": 2,
                                        "id": 28,
                                        "order": 28
                                    },
                                    {
                                        "children": [],
                                        "depth": 2,
                                        "id": 29,
                                        "order": 29
                                    },
                                    {
                                        "children": [],
                                        "depth": 2,
                                        "id": 30,
                                        "order": 30
                                    },
                                    {
                                        "children": [],
                                        "depth": 2,
                                        "id": 31,
                                        "order": 31
                                    }
                                ],
                                "depth": 1,
                                "id": 25,
                                "order": 25
                            }
                        ],
                        "depth": 0,
                        "id": 0,
                        "order": 0
                    }
                ],
                "depth": -1,
                "id": -1,
                "order": -1
            }
        ],
        "mainTraceNodeCount": 32,
        "parentIdMap": {
            "0": -1,
            "1": 0,
            "10": 5,
            "11": 5,
            "12": 5,
            "13": 5,
            "14": 5,
            "15": 14,
            "16": 0,
            "17": 16,
            "18": 17,
            "19": 16,
            "2": 0,
            "20": 19,
            "21": 20,
            "22": 16,
            "23": 16,
            "24": 16,
            "25": 0,
            "26": 25,
            "27": 26,
            "28": 25,
            "29": 25,
            "3": 0,
            "30": 25,
            "31": 25,
            "4": 3,
            "5": 3,
            "6": 5,
            "7": 5,
            "8": 5,
            "9": 5
        },
        "tidyTrace": [
            {
                "children": [
                    {
                        "children": [
                            {
                                "children": [
                                    {
                                        "children": [],
                                        "depth": 2,
                                        "id": 4,
                                        "order": 4
                                    },
                                    {
                                        "children": [
                                            {
                                                "children": [],
                                                "depth": 3,
                                                "id": 9,
                                                "order": 9
                                            },
                                            {
                                                "children": [],
                                                "depth": 3,
                                                "id": 11,
                                                "order": 11
                                            },
                                            {
                                                "children": [],
                                                "depth": 3,
                                                "id": 13,
                                                "order": 13
                                            },
                                            {
                                                "children": [
                                                    {
                                                        "children": [],
                                                        "depth": 4,
                                                        "id": 15,
                                                        "order": 15
                                                    }
                                                ],
                                                "depth": 3,
                                                "id": 14,
                                                "order": 14
                                            }
                                        ],
                                        "depth": 2,
                                        "id": 5,
                                        "order": 5
                                    }
                                ],
                                "depth": 1,
                                "id": 3,
                                "order": 3
                            },
                            {
                                "children": [
                                    {
                                        "children": [
                                            {
                                                "children": [],
                                                "depth": 3,
                                                "id": 18,
                                                "order": 18
                                            }
                                        ],
                                        "depth": 2,
                                        "id": 17,
                                        "order": 17
                                    },
                                    {
                                        "children": [],
                                        "depth": 2,
                                        "id": 23,
                                        "order": 23
                                    },
                                    {
                                        "children": [],
                                        "depth": 2,
                                        "id": 24,
                                        "order": 24
                                    }
                                ],
                                "depth": 1,
                                "id": 16,
                                "order": 16
                            },
                            {
                                "children": [
                                    {
                                        "children": [
                                            {
                                                "children": [],
                                                "depth": 3,
                                                "id": 27,
                                                "order": 27
                                            }
                                        ],
                                        "depth": 2,
                                        "id": 26,
                                        "order": 26
                                    },
                                    {
                                        "children": [],
                                        "depth": 2,
                                        "id": 30,
                                        "order": 30
                                    },
                                    {
                                        "children": [],
                                        "depth": 2,
                                        "id": 31,
                                        "order": 31
                                    }
                                ],
                                "depth": 1,
                                "id": 25,
                                "order": 25
                            }
                        ],
                        "depth": 0,
                        "id": 0,
                        "order": 0
                    }
                ],
                "depth": -1,
                "id": -1,
                "order": -1
            }
        ],
        "tidyTraceNodeCount": 19
    },
    "state_change": {
        "stateChanges": [
            {
                "address": "0x43ae24960e5534731fc831386c07755a2dc33d47",
                "erc": "ERC-20",
                "slots": [
                    {
                        "current": "0x00000000000000000000000000000002e95b5666b5e3a1118b411c0a28c0914d",
                        "key": "0x0000000000000000000000000000000000000000000000000000000000000009",
                        "prev": "0x00000000000000000000000000000002e956ab43a3e8922618f01a18becccbb5"
                    },
                    {
                        "current": "0x000000000000000000000000000086d8f6a1d485156ded1e1644495abbc58503",
                        "key": "0x000000000000000000000000000000000000000000000000000000000000000a",
                        "prev": "0x000000000000000000000000000086d87c88b507ea25414637f9473449cbbabb"
                    },
                    {
                        "current": "0x5fe4f72b0000000000ff65ab77bc5742240e0000000051c5cb306369865843a3",
                        "key": "0x0000000000000000000000000000000000000000000000000000000000000008",
                        "prev": "0x5fe4f5ad0000000000ff9dc86fa36bf7c7c10000000051b3c9f732793550a320"
                    }
                ],
                "storageVariables": [
                    {
                        "name": "price0CumulativeLast",
                        "type": "uint256",
                        "value": {
                            "current": "990749108298679458689500130882411860301",
                            "prev": "990724868040652650940052575225322982325",
                            "typeTag": 1
                        }
                    },
                    {
                        "name": "price1CumulativeLast",
                        "type": "uint256",
                        "value": {
                            "current": "11746875136467967885834101714759497009169667",
                            "prev": "11746712840206389048989843845157500345891515",
                            "typeTag": 1
                        }
                    },
                    {
                        "name": "reserve0",
                        "type": "uint112",
                        "value": {
                            "current": "386160335006655502107555",
                            "prev": "385828205457852310004512",
                            "typeTag": 1
                        }
                    },
                    {
                        "name": "reserve1",
                        "type": "uint112",
                        "value": {
                            "current": "4711245819665585415182",
                            "prev": "4715289198802914232257",
                            "typeTag": 1
                        }
                    },
                    {
                        "name": "blockTimestampLast",
                        "type": "uint32",
                        "value": {
                            "current": "1608841003",
                            "prev": "1608840621",
                            "typeTag": 1
                        }
                    }
                ]
            },
            {
                "address": "0x5b1b5fea1b99d83ad479df0c222f0492385381dd",
                "erc": "",
                "slots": [
                    {
                        "current": "0x0000000000000000000000000000000000000000000000000000000000000000",
                        "key": "0x8c8853a3dd8ea98139a484f68b287cc134a8eff711a24ae5e0e58d89309a608b",
                        "prev": "0x000000000000000000000000000000000000000000000012013930f05107a083"
                    },
                    {
                        "current": "0x0000000000000000000000000000000000000000000051c5cb306369865843a3",
                        "key": "0xa15fc45a637ca6b18b0e9fc8a6662d4f0c0cc9ecf694e286e23b89ab1a731427",
                        "prev": "0x0000000000000000000000000000000000000000000051b3c9f732793550a320"
                    },
                    {
                        "current": "0xffffffffffffffffffffffffffffffffffffffffffffffdd91077e2bda093619",
                        "key": "0xd7778f233ee62aab6a96bacdd4cb41397b17975e4a9f3889c202f90eb98ec201",
                        "prev": "0xffffffffffffffffffffffffffffffffffffffffffffffef9240af1c2b10d69c"
                    }
                ],
                "storageVariables": [
                    {
                        "name": "balanceOf",
                        "type": "mapping(address => uint256)",
                        "value": {
                            "pairs": [
                                {
                                    "key": "0x43ae24960e5534731fc831386c07755a2dc33d47",
                                    "value": {
                                        "current": "386160335006655502107555",
                                        "prev": "385828205457852310004512",
                                        "typeTag": 1
                                    }
                                },
                                {
                                    "key": "0xecc4b9583ea59c8bd4dfaa30e1676e302b39c2ff",
                                    "value": {
                                        "current": "0",
                                        "prev": "332129548803192103043",
                                        "typeTag": 1
                                    }
                                }
                            ],
                            "typeTag": 4
                        }
                    },
                    {
                        "name": "allowance",
                        "type": "mapping(address => mapping(address => uint256))",
                        "value": {
                            "pairs": [
                                {
                                    "key": "0xecc4b9583ea59c8bd4dfaa30e1676e302b39c2ff",
                                    "value": {
                                        "pairs": [
                                            {
                                                "key": "0x7a250d5630b4cf539739df2c5dacb4c659f2488d",
                                                "value": {
                                                    "current": "115792089237316195423570985008687907853269984665640564038822398425520438588953",
                                                    "prev": "115792089237316195423570985008687907853269984665640564039154527974323630691996",
                                                    "typeTag": 1
                                                }
                                            }
                                        ],
                                        "typeTag": 4
                                    }
                                }
                            ],
                            "typeTag": 4
                        }
                    }
                ]
            },
            {
                "address": "0x6e6a43a8148b5c54a94c044a835476d3f3f4d59a",
                "erc": "ERC-20",
                "slots": [
                    {
                        "current": "0x0000000000000000000000007a250d5630b4cf539739df2c5dacb4c659f2488d",
                        "key": "0x0000000000000000000000000000000000000000000000000000000000000004",
                        "prev": "0x0000000000000000000000000d0452f487d1edc869d1488ae984590ca2900d2f"
                    }
                ],
                "storageVariables": [
                    {
                        "name": "messageSender",
                        "type": "address",
                        "value": {
                            "current": "0x7a250d5630b4cf539739df2c5dacb4c659f2488d",
                            "prev": "0x0d0452f487d1edc869d1488ae984590ca2900d2f",
                            "typeTag": 1
                        }
                    }
                ]
            },
            {
                "address": "0xb4d930279552397bba2ee473229f89ec245bc365",
                "erc": "ERC-20",
                "slots": [
                    {
                        "current": "0x000000000000000000000000000000000000000000000a67d1dd912a5ec3ab5a",
                        "key": "0xb2314df870c27a0dcec86e41a61867474f3923e1aaf54ad3aaf07fa5e345ab9e",
                        "prev": "0x000000000000000000000000000000000000000000000a72fafea308aaba51e2"
                    },
                    {
                        "current": "0x00000000000000000000000000000000000000000000000b292111de4bf6a688",
                        "key": "0xd79a3db7d9819475e82c3474de35f00de1a56a29d4e475a97991441aeba674ee",
                        "prev": "0x0000000000000000000000000000000000000000000000000000000000000000"
                    }
                ],
                "storageVariables": [
                    {
                        "name": "_balances",
                        "type": "mapping(address => uint256)",
                        "value": {
                            "pairs": [
                                {
                                    "key": "0xc0897d6ba893e31f42f658eead777aa15b8f824d",
                                    "value": {
                                        "current": "49138801871023480482650",
                                        "prev": "49344679725510526915042",
                                        "typeTag": 1
                                    }
                                },
                                {
                                    "key": "0xecc4b9583ea59c8bd4dfaa30e1676e302b39c2ff",
                                    "value": {
                                        "current": "205877854487046432392",
                                        "prev": "0",
                                        "typeTag": 1
                                    }
                                }
                            ],
                            "typeTag": 4
                        }
                    }
                ]
            },
            {
                "address": "0xc02aaa39b223fe8d0a0e5c4f27ead9083c756cc2",
                "erc": "ERC-20",
                "slots": [
                    {
                        "current": "0x00000000000000000000000000000000000000000000003460fd1205b994590b",
                        "key": "0x0e9597b5125732ce58758635d0e5c8f7d97d2f2f38e454c2aef3568155bb4fea",
                        "prev": "0x00000000000000000000000000000000000000000000003428e01a1ea4deb558"
                    },
                    {
                        "current": "0x0000000000000000000000000000000000000000000000ff65ab77bc5742240e",
                        "key": "0xa15fc45a637ca6b18b0e9fc8a6662d4f0c0cc9ecf694e286e23b89ab1a731427",
                        "prev": "0x0000000000000000000000000000000000000000000000ff9dc86fa36bf7c7c1"
                    }
                ],
                "storageVariables": [
                    {
                        "name": "balanceOf",
                        "type": "mapping(address => uint256)",
                        "value": {
                            "pairs": [
                                {
                                    "key": "0x43ae24960e5534731fc831386c07755a2dc33d47",
                                    "value": {
                                        "current": "4711245819665585415182",
                                        "prev": "4715289198802914232257",
                                        "typeTag": 1
                                    }
                                },
                                {
                                    "key": "0xc0897d6ba893e31f42f658eead777aa15b8f824d",
                                    "value": {
                                        "current": "966219453845443205387",
                                        "prev": "962176074708114388312",
                                        "typeTag": 1
                                    }
                                }
                            ],
                            "typeTag": 4
                        }
                    }
                ]
            },
            {
                "address": "0xc0897d6ba893e31f42f658eead777aa15b8f824d",
                "erc": "ERC-20",
                "slots": [
                    {
                        "current": "0x0000000000000000000000000000000020bb76ec3027965fe75ce209d70a0bf2",
                        "key": "0x0000000000000000000000000000000000000000000000000000000000000009",
                        "prev": "0x0000000000000000000000000000000020b94cd62d3750f34f7439bce6a94b16"
                    },
                    {
                        "current": "0x000000000000000000000000000003db777c1fe132acb990ce231c7f906e9ff9",
                        "key": "0x000000000000000000000000000000000000000000000000000000000000000a",
                        "prev": "0x000000000000000000000000000003db613f8caf49e617e148ea003fd16b5c7a"
                    },
                    {
                        "current": "0x5fe4f72b00000000003460fd1205b994590b000000000a67d1dd912a5ec3ab5a",
                        "key": "0x0000000000000000000000000000000000000000000000000000000000000008",
                        "prev": "0x5fe4f6bc00000000003428e01a1ea4deb558000000000a72fafea308aaba51e2"
                    }
                ],
                "storageVariables": [
                    {
                        "name": "price0CumulativeLast",
                        "type": "uint256",
                        "value": {
                            "current": "43508667414746043665424826332860779506",
                            "prev": "43497429215896605263362469449423211286",
                            "typeTag": 1
                        }
                    },
                    {
                        "name": "price1CumulativeLast",
                        "type": "uint256",
                        "value": {
                            "current": "336017518773871844086804512652268623798265",
                            "prev": "335987961234684631494818792762259488332922",
                            "typeTag": 1
                        }
                    },
                    {
                        "name": "reserve0",
                        "type": "uint112",
                        "value": {
                            "current": "49138801871023480482650",
                            "prev": "49344679725510526915042",
                            "typeTag": 1
                        }
                    },
                    {
                        "name": "reserve1",
                        "type": "uint112",
                        "value": {
                            "current": "966219453845443205387",
                            "prev": "962176074708114388312",
                            "typeTag": 1
                        }
                    },
                    {
                        "name": "blockTimestampLast",
                        "type": "uint32",
                        "value": {
                            "current": "1608841003",
                            "prev": "1608840892",
                            "typeTag": 1
                        }
                    }
                ]
            }
        ]
    }
}