{
    "balance_change": {
        "balanceChanges": [
            {
                "account": "0x4f12bfdb47de4d2303d4072ef7a345ef561f01a8",
                "assets": [
                    {
                        "address": "0x514910771af9ca656af840dff83e8264ecf986ca",
                        "amount": "20",
                        "iconUrl": "https://assets.blocksec.com/icon/f97453a18956674db69f16b525216d646fc76f3c7f90f0cd6147f8534d5af3e9.png",
                        "isERC1155": false,
                        "isERC721": false,
                        "sign": true,
                        "value": "123.39999999999999858"
                    },
                    {
                        "address": "0xdac17f958d2ee523a2206206994597c13d831ec7",
                        "amount": "124.518274",
                        "iconUrl": "https://assets.blocksec.com/icon/fcea71f3193ce895be44bfdf941f7e4c9381dd587f273c2d1a27f1263d84e4ea.png",
                        "isERC1155": false,
                        "isERC721": false,
                        "sign": false,
                        "value": "124.642792273999986286"
                    }
                ]
            },
            {
                "account": "0xac5a2c404ebba22a869998089ac7893ff4e1f0a7",
                "assets": [
                    {
                        "address": "0x514910771af9ca656af840dff83e8264ecf986ca",
                        "amount": "20",
                        "iconUrl": "https://assets.blocksec.com/icon/f97453a18956674db69f16b525216d646fc76f3c7f90f0cd6147f8534d5af3e9.png",
                        "isERC1155": false,
                        "isERC721": false,
                        "sign": false,
                        "value": "123.39999999999999858"
                    },
                    {
                        "address": "0xdac17f958d2ee523a2206206994597c13d831ec7",
                        "amount": "124.518274",
                        "iconUrl": "https://assets.blocksec.com/icon/fcea71f3193ce895be44bfdf941f7e4c9381dd587f273c2d1a27f1263d84e4ea.png",
                        "isERC1155": false,
                        "isERC721": false,
                        "sign": true,
                        "value": "124.642792273999986286"
                    }
                ]
            }
        ]
    },
    "profile": {
        "basic_info": {
            "baseFee": "16.160249653",
            "blockNumber": 16369567,
            "callData": "0x5ae401dc0000000000000000000000000000000000000000000000000000000063bc1e0f00000000000000000000000000000000000000000000000000000000000000400000000000000000000000000000000000000000000000000000000000000001000000000000000000000000000000000000000000000000000000000000002000000000000000000000000000000000000000000000000000000000000000e45023b4df000000000000000000000000dac17f958d2ee523a2206206994597c13d831ec7000000000000000000000000514910771af9ca656af840dff83e8264ecf986ca0000000000000000000000000000000000000000000000000000000000000bb80000000000000000000000004f12bfdb47de4d2303d4072ef7a345ef561f01a8000000000000000000000000000000000000000000000001158e460913d000000000000000000000000000000000000000000000000000000000000007757f81000000000000000000000000000000000000000000000000000000000000000000000000000000000000000000000000000000000000000000000000",
            "debugEnable": true,
            "errorInfo": "",
            "eventCount": 3,
            "feeRecipient": "0xdafea492d9c6733ae3d56b7ed1adb60692c98bc5",
            "formatValue": "0",
            "gasLimit": 159163,
            "gasPrice": "17.660249653",
            "gasUsed": 125957,
            "intTxnCount": 7,
            "internalRevert": false,
            "internalRevertMessage": "",
            "isContractCreation": false,
            "isFlashloan": false,
            "maxFee": "21.627222699",
            "nonce": 70,
            "overwritedBlockNumber": -1,
            "priorityFee": "1.5",
            "receiver": "0x68b3465833fb72a70ecdf485e0e4c7bd8665fc45",
            "revertMessage": "",
            "sender": "0x4f12bfdb47de4d2303d4072ef7a345ef561f01a8",
            "simulationEnable": true,
            "sourceTxnHash": "0xbcc00a0bf072cafb7d16e481b0dbfb91aa002a4c3f645fb12038b28834890350",
            "status": true,
            "timestamp": "2023-01-09T13:32:59Z",
            "transactionFee": "0.002224432065542921",
            "txnHash": "0xbcc00a0bf072cafb7d16e481b0dbfb91aa002a4c3f645fb12038b28834890350",
            "txnIndex": 104,
            "type": 2,
            "value": "0"
        },
        "fund_flow": [
            {
                "amount": "20",
                "from": "0xac5a2c404ebba22a869998089ac7893ff4e1f0a7",
                "id": 1,
                "isERC1155": false,
                "isERC721": false,
                "isReverted": false,
                "order": 1,
                "to": "0x4f12bfdb47de4d2303d4072ef7a345ef561f01a8",
                "token": "0x514910771af9ca656af840dff83e8264ecf986ca"
            },
            {
                "amount": "124.518274",
                "from": "0x4f12bfdb47de4d2303d4072ef7a345ef561f01a8",
                "id": 2,
                "isERC1155": false,
                "isERC721": false,
                "isReverted": false,
                "order": 2,
                "to": "0xac5a2c404ebba22a869998089ac7893ff4e1f0a7",
                "token": "0xdac17f958d2ee523a2206206994597c13d831ec7"
            }
        ],
        "token_infos": [
            {
                "address": "0xdac17f958d2ee523a2206206994597c13d831ec7",
                "decimals": 6
            },
            {
                "address": "0xeeeeeeeeeeeeeeeeeeeeeeeeeeeeeeeeeeeeeeee",
                "decimals": 18
            },
            {
                "address": "0x514910771af9ca656af840dff83e8264ecf986ca",
                "decimals": 18
            },
            {
                "address": "0xc02aaa39b223fe8d0a0e5c4f27ead9083c756cc2",
                "decimals": 18
            }
        ]
    },
    "address_label": {
        "labels": [
            {
                "address": "0x0000000000000000000000000000000000000003",
                "label": "Precompiled"
            },
            {
                "address": "0x0000000000000000000000000000000000000004",
                "label": "Precompiled"
            },
            {
                "address": "0xeeeeeeeeeeeeeeeeeeeeeeeeeeeeeeeeeeeeeeee",
                "label": "Ether"
            },
            {
                "address": "0x514910771af9ca656af840dff83e8264ecf986ca",
                "label": "Chainlink: LINK Token"
            },
            {
                "address": "0xdac17f958d2ee523a2206206994597c13d831ec7",
                "label": "Tether: USDT Stablecoin"
            },
            {
                "address": "0x0000000000000000000000000000000000000002",
                "label": "Precompiled"
            },
            {
                "address": "0xac5a2c404ebba22a869998089ac7893ff4e1f0a7",
                "label": "Uniswap V3: LINK-USDT"
            },
            {
                "address": "0x68b3465833fb72a70ecdf485e0e4c7bd8665fc45",
                "label": "Uniswap V3: Router 2"
            },
            {
                "address": "0x0000000000000000000000000000000000000001",
                "label": "Precompiled"
            }
        ]
    },
    "trace": {
        "accountLabels": null,
        "dataMap": {
            "-1": {
                "invocation": {
                    "address": "0x4f12bfdb47de4d2303d4072ef7a345ef561f01a8",
                    "callData": "",
                    "decodedMethod": null,
                    "errorInfo": "",
                    "fromAddress": "",
                    "gasUsed": 0,
                    "id": -1,
                    "methodDecoded": false,
                    "operation": "",
                    "output": "",
                    "revert": false,
                    "revertMessage": "",
                    "selector": "",
                    "status": false,
                    "value": ""
                },
                "nodeType": 0
            },
            "0": {
                "invocation": {
                    "address": "0x68b3465833fb72a70ecdf485e0e4c7bd8665fc45",
                    "callData": "0x0000000000000000000000000000000000000000000000000000000063bc1e0f00000000000000000000000000000000000000000000000000000000000000400000000000000000000000000000000000000000000000000000000000000001000000000000000000000000000000000000000000000000000000000000002000000000000000000000000000000000000000000000000000000000000000e45023b4df000000000000000000000000dac17f958d2ee523a2206206994597c13d831ec7000000000000000000000000514910771af9ca656af840dff83e8264ecf986ca0000000000000000000000000000000000000000000000000000000000000bb80000000000000000000000004f12bfdb47de4d2303d4072ef7a345ef561f01a8000000000000000000000000000000000000000000000001158e460913d000000000000000000000000000000000000000000000000000000000000007757f81000000000000000000000000000000000000000000000000000000000000000000000000000000000000000000000000000000000000000000000000",
                    "decodedMethod": {
                        "callParams": [
                            {
                                "name": "deadline",
                                "type": "uint256",
                                "value": "1,673,272,847"
                            },
                            {
                                "name": "data",
                                "type": "bytes[]",
                                "value": [
                                    "0x5023b4df000000000000000000000000dac17f958d2ee523a2206206994597c13d831ec7000000000000000000000000514910771af9ca656af840dff83e8264ecf986ca0000000000000000000000000000000000000000000000000000000000000bb80000000000000000000000004f12bfdb47de4d2303d4072ef7a345ef561f01a8000000000000000000000000000000000000000000000001158e460913d000000000000000000000000000000000000000000000000000000000000007757f810000000000000000000000000000000000000000000000000000000000000000"
                                ]
                            }
                        ],
                        "constructorArguments": "",
                        "name": "multicall",
                        "returnParams": [
                            {
                                "name": "",
                                "type": "bytes[]",
                                "value": [
                                    "0x00000000000000000000000000000000000000000000000000000000076bff82"
                                ]
                            }
                        ],
                        "signature": "multicall(uint256,bytes[])"
                    },
                    "errorInfo": "",
                    "fromAddress": "0x4f12bfdb47de4d2303d4072ef7a345ef561f01a8",
                    "gasUsed": 125957,
                    "id": 0,
                    "methodDecoded": true,
                    "operation": "CALL",
                    "output": "0x000000000000000000000000000000000000000000000000000000000000002000000000000000000000000000000000000000000000000000000000000000010000000000000000000000000000000000000000000000000000000000000020000000000000000000000000000000000000000000000000000000000000002000000000000000000000000000000000000000000000000000000000076bff82",
                    "revert": false,
                    "revertMessage": "",
                    "selector": "0x5ae401dc",
                    "status": true,
                    "value": "0"
                },
                "nodeType": 0
            },
            "1": {
                "invocation": {
                    "address": "0x68b3465833fb72a70ecdf485e0e4c7bd8665fc45",
                    "callData": "0x000000000000000000000000dac17f958d2ee523a2206206994597c13d831ec7000000000000000000000000514910771af9ca656af840dff83e8264ecf986ca0000000000000000000000000000000000000000000000000000000000000bb80000000000000000000000004f12bfdb47de4d2303d4072ef7a345ef561f01a8000000000000000000000000000000000000000000000001158e460913d000000000000000000000000000000000000000000000000000000000000007757f810000000000000000000000000000000000000000000000000000000000000000",
                    "decodedMethod": {
                        "callParams": [
                            {
                                "name": "params",
                                "type": "(address,address,uint24,address,uint256,uint256,uint160)",
                                "value": [
                                    {
                                        "name": "tokenIn",
                                        "type": "address",
                                        "value": "0xdac17f958d2ee523a2206206994597c13d831ec7"
                                    },
                                    {
                                        "name": "tokenOut",
                                        "type": "address",
                                        "value": "0x514910771af9ca656af840dff83e8264ecf986ca"
                                    },
                                    {
                                        "name": "fee",
                                        "type": "uint24",
                                        "value": "3,000"
                                    },
                                    {
                                        "name": "recipient",
                                        "type": "address",
                                        "value": "0x4f12bfdb47de4d2303d4072ef7a345ef561f01a8"
                                    },
                                    {
                                        "name": "amountOut",
                                        "type": "uint256",
                                        "value": "20,000,000,000,000,000,000"
                                    },
                                    {
                                        "name": "amountInMaximum",
                                        "type": "uint256",
                                        "value": "125,140,865"
                                    },
                                    {
                                        "name": "sqrtPriceLimitX96",
                                        "type": "uint160",
                                        "value": "0"
                                    }
                                ]
                            }
                        ],
                        "constructorArguments": "",
                        "name": "exactOutputSingle",
                        "returnParams": [
                            {
                                "name": "amountIn",
                                "type": "uint256",
                                "value": "124,518,274"
                            }
                        ],
                        "signature": "exactOutputSingle((address,address,uint24,address,uint256,uint256,uint160))"
                    },
                    "errorInfo": "",
                    "fromAddress": "0x68b3465833fb72a70ecdf485e0e4c7bd8665fc45",
                    "gasUsed": 102831,
                    "id": 1,
                    "methodDecoded": true,
                    "operation": "DELEGATECALL",
                    "output": "0x00000000000000000000000000000000000000000000000000000000076bff82",
                    "revert": false,
                    "revertMessage": "",
                    "selector": "0x5023b4df",
                    "status": true,
                    "value": "0"
                },
                "nodeType": 0
            },
            "10": {
                "event": {
                    "contract": "0xac5a2c404ebba22a869998089ac7893ff4e1f0a7",
                    "decodedLog": {
                        "name": "Swap",
                        "params": [
                            {
                                "name": "sender",
                                "type": "address",
                                "value": "0x68b3465833fb72a70ecdf485e0e4c7bd8665fc45"
                            },
                            {
                                "name": "recipient",
                                "type": "address",
                                "value": "0x4f12bfdb47de4d2303d4072ef7a345ef561f01a8"
                            },
                            {
                                "name": "amount0",
                                "type": "int256",
                                "value": "-20,000,000,000,000,000,000"
                            },
                            {
                                "name": "amount1",
                                "type": "int256",
                                "value": "124,518,274"
                            },
                            {
                                "name": "sqrtPriceX96",
                                "type": "uint160",
                                "value": "197,766,121,877,974,120,720,765"
                            },
                            {
                                "name": "liquidity",
                                "type": "uint128",
                                "value": "13,144,198,273,250,050"
                            },
                            {
                                "name": "tick",
                                "type": "int24",
                                "value": "-258,029"
                            }
                        ],
                        "signature": "Swap(address,address,int256,int256,uint160,uint128,int24)"
                    },
                    "id": 10,
                    "logData": "0xfffffffffffffffffffffffffffffffffffffffffffffffeea71b9f6ec30000000000000000000000000000000000000000000000000000000000000076bff820000000000000000000000000000000000000000000029e0ec46663257c0e97d000000000000000000000000000000000000000000000000002eb29424ef3302fffffffffffffffffffffffffffffffffffffffffffffffffffffffffffc1013",
                    "logDecoded": true,
                    "operation": "EVENT",
                    "revert": false,
                    "status": true,
                    "topics": [
                        "0xc42079f94a6350d7e6235f29174924f928cc2ac818eb64fed8004e115fbcca67",
                        "0x00000000000000000000000068b3465833fb72a70ecdf485e0e4c7bd8665fc45",
                        "0x0000000000000000000000004f12bfdb47de4d2303d4072ef7a345ef561f01a8"
                    ]
                },
                "nodeType": 1
            },
            "2": {
                "invocation": {
                    "address": "0xac5a2c404ebba22a869998089ac7893ff4e1f0a7",
                    "callData": "0x0000000000000000000000004f12bfdb47de4d2303d4072ef7a345ef561f01a80000000000000000000000000000000000000000000000000000000000000000fffffffffffffffffffffffffffffffffffffffffffffffeea71b9f6ec300000000000000000000000000000fffd8963efd1fc6a506488495d951d5263988d2500000000000000000000000000000000000000000000000000000000000000a000000000000000000000000000000000000000000000000000000000000000c0000000000000000000000000000000000000000000000000000000000000002000000000000000000000000000000000000000000000000000000000000000400000000000000000000000004f12bfdb47de4d2303d4072ef7a345ef561f01a8000000000000000000000000000000000000000000000000000000000000002b514910771af9ca656af840dff83e8264ecf986ca000bb8dac17f958d2ee523a2206206994597c13d831ec7000000000000000000000000000000000000000000",
                    "decodedMethod": {
                        "callParams": [
                            {
                                "name": "recipient",
                                "type": "address",
                                "value": "0x4f12bfdb47de4d2303d4072ef7a345ef561f01a8"
                            },
                            {
                                "name": "zeroForOne",
                                "type": "bool",
                                "value": false
                            },
                            {
                                "name": "amountSpecified",
                                "type": "int256",
                                "value": "-20,000,000,000,000,000,000"
                            },
                            {
                                "name": "sqrtPriceLimitX96",
                                "type": "uint160",
                                "value": "1,461,446,703,485,210,103,287,273,052,203,988,822,378,723,970,341"
                            },
                            {
                                "name": "data",
                                "type": "bytes",
                                "value": "0x000000000000000000000000000000000000000000000000000000000000002000000000000000000000000000000000000000000000000000000000000000400000000000000000000000004f12bfdb47de4d2303d4072ef7a345ef561f01a8000000000000000000000000000000000000000000000000000000000000002b514910771af9ca656af840dff83e8264ecf986ca000bb8dac17f958d2ee523a2206206994597c13d831ec7000000000000000000000000000000000000000000"
                            }
                        ],
                        "constructorArguments": "",
                        "name": "swap",
                        "returnParams": [
                            {
                                "name": "amount0",
                                "type": "int256",
                                "value": "-20,000,000,000,000,000,000"
                            },
                            {
                                "name": "amount1",
                                "type": "int256",
                                "value": "124,518,274"
                            }
                        ],
                        "signature": "swap(address,bool,int256,uint160,bytes)"
                    },
                    "errorInfo": "",
                    "fromAddress": "0x68b3465833fb72a70ecdf485e0e4c7bd8665fc45",
                    "gasUsed": 95192,
                    "id": 2,
                    "methodDecoded": true,
                    "operation": "CALL",
                    "output": "0xfffffffffffffffffffffffffffffffffffffffffffffffeea71b9f6ec30000000000000000000000000000000000000000000000000000000000000076bff82",
                    "revert": false,
                    "revertMessage": "",
                    "selector": "0x128acb08",
                    "status": true,
                    "value": "0"
                },
                "nodeType": 0
            },
            "3": {
                "invocation": {
                    "address": "0x514910771af9ca656af840dff83e8264ecf986ca",
                    "callData": "0x0000000000000000000000004f12bfdb47de4d2303d4072ef7a345ef561f01a8000000000000000000000000000000000000000000000001158e460913d00000",
                    "decodedMethod": {
                        "callParams": [
                            {
                                "name": "_to",
                                "type": "address",
                                "value": "0x4f12bfdb47de4d2303d4072ef7a345ef561f01a8"
                            },
                            {
                                "decimalAvailable": true,
                                "name": "_value",
                                "type": "uint256",
                                "value": "20,000,000,000,000,000,000"
                            }
                        ],
                        "constructorArguments": "",
                        "name": "transfer",
                        "returnParams": [
                            {
                                "name": "success",
                                "type": "bool",
                                "value": true
                            }
                        ],
                        "signature": "transfer(address,uint256)"
                    },
                    "errorInfo": "",
                    "fromAddress": "0xac5a2c404ebba22a869998089ac7893ff4e1f0a7",
                    "gasUsed": 13345,
                    "id": 3,
                    "methodDecoded": true,
                    "operation": "CALL",
                    "output": "0x0000000000000000000000000000000000000000000000000000000000000001",
                    "revert": false,
                    "revertMessage": "",
                    "selector": "0xa9059cbb",
                    "status": true,
                    "value": "0"
                },
                "nodeType": 0
            },
            "4": {
                "event": {
                    "contract": "0x514910771af9ca656af840dff83e8264ecf986ca",
                    "decodedLog": {
                        "name": "Transfer",
                        "params": [
                            {
                                "name": "from",
                                "type": "address",
                                "value": "0xac5a2c404ebba22a869998089ac7893ff4e1f0a7"
                            },
                            {
                                "name": "to",
                                "type": "address",
                                "value": "0x4f12bfdb47de4d2303d4072ef7a345ef561f01a8"
                            },
                            {
                                "decimalAvailable": true,
                                "name": "value",
                                "type": "uint256",
                                "value": "20,000,000,000,000,000,000"
                            }
                        ],
                        "signature": "Transfer(address,address,uint256)"
                    },
                    "id": 4,
                    "logData": "0x000000000000000000000000000000000000000000000001158e460913d00000",
                    "logDecoded": true,
                    "operation": "EVENT",
                    "revert": false,
                    "status": true,
                    "topics": [
                        "0xddf252ad1be2c89b69c2b068fc378daa952ba7f163c4a11628f55a4df523b3ef",
                        "0x000000000000000000000000ac5a2c404ebba22a869998089ac7893ff4e1f0a7",
                        "0x0000000000000000000000004f12bfdb47de4d2303d4072ef7a345ef561f01a8"
                    ]
                },
                "nodeType": 1
            },
            "5": {
                "invocation": {
                    "address": "0xdac17f958d2ee523a2206206994597c13d831ec7",
                    "callData": "0x000000000000000000000000ac5a2c404ebba22a869998089ac7893ff4e1f0a7",
                    "decodedMethod": {
                        "callParams": [
                            {
                                "name": "who",
                                "type": "address",
                                "value": "0xac5a2c404ebba22a869998089ac7893ff4e1f0a7"
                            }
                        ],
                        "constructorArguments": "",
                        "name": "balanceOf",
                        "returnParams": [
                            {
                                "decimalAvailable": true,
                                "name": "",
                                "type": "uint256",
                                "value": "6,549,037,477"
                            }
                        ],
                        "signature": "balanceOf(address)"
                    },
                    "errorInfo": "",
                    "fromAddress": "0xac5a2c404ebba22a869998089ac7893ff4e1f0a7",
                    "gasUsed": 5031,
                    "id": 5,
                    "methodDecoded": true,
                    "operation": "STATICCALL",
                    "output": "0x00000000000000000000000000000000000000000000000000000001865a61a5",
                    "revert": false,
                    "revertMessage": "",
                    "selector": "0x70a08231",
                    "status": true,
                    "value": "0"
                },
                "nodeType": 0
            },
            "6": {
                "invocation": {
                    "address": "0x68b3465833fb72a70ecdf485e0e4c7bd8665fc45",
                    "callData": "0xfffffffffffffffffffffffffffffffffffffffffffffffeea71b9f6ec30000000000000000000000000000000000000000000000000000000000000076bff82000000000000000000000000000000000000000000000000000000000000006000000000000000000000000000000000000000000000000000000000000000c0000000000000000000000000000000000000000000000000000000000000002000000000000000000000000000000000000000000000000000000000000000400000000000000000000000004f12bfdb47de4d2303d4072ef7a345ef561f01a8000000000000000000000000000000000000000000000000000000000000002b514910771af9ca656af840dff83e8264ecf986ca000bb8dac17f958d2ee523a2206206994597c13d831ec7000000000000000000000000000000000000000000",
                    "decodedMethod": {
                        "callParams": [
                            {
                                "name": "amount0Delta",
                                "type": "int256",
                                "value": "-20,000,000,000,000,000,000"
                            },
                            {
                                "name": "amount1Delta",
                                "type": "int256",
                                "value": "124,518,274"
                            },
                            {
                                "name": "_data",
                                "type": "bytes",
                                "value": "0x000000000000000000000000000000000000000000000000000000000000002000000000000000000000000000000000000000000000000000000000000000400000000000000000000000004f12bfdb47de4d2303d4072ef7a345ef561f01a8000000000000000000000000000000000000000000000000000000000000002b514910771af9ca656af840dff83e8264ecf986ca000bb8dac17f958d2ee523a2206206994597c13d831ec7000000000000000000000000000000000000000000"
                            }
                        ],
                        "constructorArguments": "",
                        "name": "uniswapV3SwapCallback",
                        "returnParams": [],
                        "signature": "uniswapV3SwapCallback(int256,int256,bytes)"
                    },
                    "errorInfo": "",
                    "fromAddress": "0xac5a2c404ebba22a869998089ac7893ff4e1f0a7",
                    "gasUsed": 31575,
                    "id": 6,
                    "methodDecoded": true,
                    "operation": "CALL",
                    "output": "",
                    "revert": false,
                    "revertMessage": "",
                    "selector": "0xfa461e33",
                    "status": true,
                    "value": "0"
                },
                "nodeType": 0
            },
            "7": {
                "invocation": {
                    "address": "0xdac17f958d2ee523a2206206994597c13d831ec7",
                    "callData": "0x0000000000000000000000004f12bfdb47de4d2303d4072ef7a345ef561f01a8000000000000000000000000ac5a2c404ebba22a869998089ac7893ff4e1f0a700000000000000000000000000000000000000000000000000000000076bff82",
                    "decodedMethod": {
                        "callParams": [
                            {
                                "name": "_from",
                                "type": "address",
                                "value": "0x4f12bfdb47de4d2303d4072ef7a345ef561f01a8"
                            },
                            {
                                "name": "_to",
                                "type": "address",
                                "value": "0xac5a2c404ebba22a869998089ac7893ff4e1f0a7"
                            },
                            {
                                "decimalAvailable": true,
                                "name": "_value",
                                "type": "uint256",
                                "value": "124,518,274"
                            }
                        ],
                        "constructorArguments": "",
                        "name": "transferFrom",
                        "returnParams": [],
                        "signature": "transferFrom(address,address,uint256)"
                    },
                    "errorInfo": "",
                    "fromAddress": "0x68b3465833fb72a70ecdf485e0e4c7bd8665fc45",
                    "gasUsed": 22530,
                    "id": 7,
                    "methodDecoded": true,
                    "operation": "CALL",
                    "output": "",
                    "revert": false,
                    "revertMessage": "",
                    "selector": "0x23b872dd",
                    "status": true,
                    "value": "0"
                },
                "nodeType": 0
            },
            "8": {
                "event": {
                    "contract": "0xdac17f958d2ee523a2206206994597c13d831ec7",
                    "decodedLog": {
                        "name": "Transfer",
                        "params": [
                            {
                                "name": "from",
                                "type": "address",
                                "value": "0x4f12bfdb47de4d2303d4072ef7a345ef561f01a8"
                            },
                            {
                                "name": "to",
                                "type": "address",
                                "value": "0xac5a2c404ebba22a869998089ac7893ff4e1f0a7"
                            },
                            {
                                "decimalAvailable": true,
                                "name": "value",
                                "type": "uint256",
                                "value": "124,518,274"
                            }
                        ],
                        "signature": "Transfer(address,address,uint256)"
                    },
                    "id": 8,
                    "logData": "0x00000000000000000000000000000000000000000000000000000000076bff82",
                    "logDecoded": true,
                    "operation": "EVENT",
                    "revert": false,
                    "status": true,
                    "topics": [
                        "0xddf252ad1be2c89b69c2b068fc378daa952ba7f163c4a11628f55a4df523b3ef",
                        "0x0000000000000000000000004f12bfdb47de4d2303d4072ef7a345ef561f01a8",
                        "0x000000000000000000000000ac5a2c404ebba22a869998089ac7893ff4e1f0a7"
                    ]
                },
                "nodeType": 1
            },
            "9": {
                "invocation": {
                    "address": "0xdac17f958d2ee523a2206206994597c13d831ec7",
                    "callData": "0x000000000000000000000000ac5a2c404ebba22a869998089ac7893ff4e1f0a7",
                    "decodedMethod": {
                        "callParams": [
                            {
                                "name": "who",
                                "type": "address",
                                "value": "0xac5a2c404ebba22a869998089ac7893ff4e1f0a7"
                            }
                        ],
                        "constructorArguments": "",
                        "name": "balanceOf",
                        "returnParams": [
                            {
                                "decimalAvailable": true,
                                "name": "",
                                "type": "uint256",
                                "value": "6,673,555,751"
                            }
                        ],
                        "signature": "balanceOf(address)"
                    },
                    "errorInfo": "",
                    "fromAddress": "0xac5a2c404ebba22a869998089ac7893ff4e1f0a7",
                    "gasUsed": 1031,
                    "id": 9,
                    "methodDecoded": true,
                    "operation": "STATICCALL",
                    "output": "0x000000000000000000000000000000000000000000000000000000018dc66127",
                    "revert": false,
                    "revertMessage": "",
                    "selector": "0x70a08231",
                    "status": true,
                    "value": "0"
                },
                "nodeType": 0
            }
        },
        "gasFlame": [
            {
                "children": [
                    {
                        "children": [
                            {
                                "children": [],
                                "depth": 0,
                                "name": "Initial Gas",
                                "value": 23748
                            },
                            {
                                "children": [
                                    {
                                        "children": [
                                            {
                                                "children": [
                                                    {
                                                        "children": [],
                                                        "depth": 3,
                                                        "name": "transfer",
                                                        "value": 13345
                                                    },
                                                    {
                                                        "children": [],
                                                        "depth": 3,
                                                        "name": "balanceOf",
                                                        "value": 5031
                                                    },
                                                    {
                                                        "children": [
                                                            {
                                                                "children": [],
                                                                "depth": 4,
                                                                "name": "transferFrom",
                                                                "value": 22530
                                                            }
                                                        ],
                                                        "depth": 3,
                                                        "name": "uniswapV3SwapCallback",
                                                        "value": 31575
                                                    },
                                                    {
                                                        "children": [],
                                                        "depth": 3,
                                                        "name": "balanceOf",
                                                        "value": 1031
                                                    }
                                                ],
                                                "depth": 2,
                                                "name": "swap",
                                                "value": 95192
                                            }
                                        ],
                                        "depth": 1,
                                        "name": "exactOutputSingle",
                                        "value": 102831
                                    }
                                ],
                                "depth": 0,
                                "name": "Executed Gas",
                                "value": 105009
                            }
                        ],
                        "depth": -1,
                        "name": "Actual Gas Used",
                        "value": 125957
                    },
                    {
                        "children": [],
                        "depth": -1,
                        "name": "Refunded Gas",
                        "value": 2800
                    }
                ],
                "depth": -2,
                "name": "Total Gas",
                "value": 128757
            }
        ],
        "isConfirmed": true,
        "mainTrace": [
            {
                "children": [
                    {
                        "children": [
                            {
                                "children": [
                                    {
                                        "children": [
                                            {
                                                "children": [
                                                    {
                                                        "children": [],
                                                        "depth": 4,
                                                        "id": 4,
                                                        "order": 4
                                                    }
                                                ],
                                                "depth": 3,
                                                "id": 3,
                                                "order": 3
                                            },
                                            {
                                                "children": [],
                                                "depth": 3,
                                                "id": 5,
                                                "order": 5
                                            },
                                            {
                                                "children": [
                                                    {
                                                        "children": [
                                                            {
                                                                "children": [],
                                                                "depth": 5,
                                                                "id": 8,
                                                                "order": 8
                                                            }
                                                        ],
                                                        "depth": 4,
                                                        "id": 7,
                                                        "order": 7
                                                    }
                                                ],
                                                "depth": 3,
                                                "id": 6,
                                                "order": 6
                                            },
                                            {
                                                "children": [],
                                                "depth": 3,
                                                "id": 9,
                                                "order": 9
                                            },
                                            {
                                                "children": [],
                                                "depth": 3,
                                                "id": 10,
                                                "order": 10
                                            }
                                        ],
                                        "depth": 2,
                                        "id": 2,
                                        "order": 2
                                    }
                                ],
                                "depth": 1,
                                "id": 1,
                                "order": 1
                            }
                        ],
                        "depth": 0,
                        "id": 0,
                        "order": 0
                    }
                ],
                "depth": -1,
                "id": -1,
                "order": -1
            }
        ],
        "mainTraceNodeCount": 11,
        "parentIdMap": {
            "0": -1,
            "1": 0,
            "10": 2,
            "2": 1,
            "3": 2,
            "4": 3,
            "5": 2,
            "6": 2,
            "7": 6,
            "8": 7,
            "9": 2
        },
        "tidyTrace": [
            {
                "children": [
                    {
                        "children": [
                            {
                                "children": [
                                    {
                                        "children": [
                                            {
                                                "children": [
                                                    {
                                                        "children": [],
                                                        "depth": 4,
                                                        "id": 4,
                                                        "order": 4
                                                    }
                                                ],
                                                "depth": 3,
                                                "id": 3,
                                                "order": 3
                                            },
                                            {
                                                "children": [
                                                    {
                                                        "children": [
                                                            {
                                                                "children": [],
                                                                "depth": 5,
                                                                "id": 8,
                                                                "order": 8
                                                            }
                                                        ],
                                                        "depth": 4,
                                                        "id": 7,
                                                        "order": 7
                                                    }
                                                ],
                                                "depth": 3,
                                                "id": 6,
                                                "order": 6
                                            },
                                            {
                                                "children": [],
                                                "depth": 3,
                                                "id": 10,
                                                "order": 10
                                            }
                                        ],
                                        "depth": 2,
                                        "id": 2,
                                        "order": 2
                                    }
                                ],
                                "depth": 1,
                                "id": 1,
                                "order": 1
                            }
                        ],
                        "depth": 0,
                        "id": 0,
                        "order": 0
                    }
                ],
                "depth": -1,
                "id": -1,
                "order": -1
            }
        ],
        "tidyTraceNodeCount": 9
    },
    "state_change": {
        "stateChanges": [
            {
                "address": "0x514910771af9ca656af840dff83e8264ecf986ca",
                "erc": "",
                "slots": [
                    {
                        "current": "0x0000000000000000000000000000000000000000000001e6cbd4cb9093a5b04b",
                        "key": "0xfed296f18783f9462ce3dd104fe007317122605d18268b4ea9523e9bf5bb8303",
                        "prev": "0x0000000000000000000000000000000000000000000001e7e1631199a775b04b"
                    },
                    {
                        "current": "0x000000000000000000000000000000000000000000000006c04bf38d7aecc182",
                        "key": "0x4737b249d51b72b3fa532bf364de259d380811164d48bcf5828a2bb1513023ec",
                        "prev": "0x000000000000000000000000000000000000000000000005aabdad84671cc182"
                    }
                ],
                "storageVariables": [
                    {
                        "name": "balances",
                        "type": "mapping(address => uint256)",
                        "value": {
                            "pairs": [
                                {
                                    "key": "0x4f12bfdb47de4d2303d4072ef7a345ef561f01a8",
                                    "value": {
                                        "current": "124536900909771047298",
                                        "prev": "104536900909771047298",
                                        "typeTag": 1
                                    }
                                },
                                {
                                    "key": "0xac5a2c404ebba22a869998089ac7893ff4e1f0a7",
                                    "value": {
                                        "current": "8979805207929416953931",
                                        "prev": "8999805207929416953931",
                                        "typeTag": 1
                                    }
                                }
                            ],
                            "typeTag": 4
                        }
                    }
                ]
            },
            {
                "address": "0xac5a2c404ebba22a869998089ac7893ff4e1f0a7",
                "erc": "",
                "slots": [
                    {
                        "current": "0x000100000100010000fc10130000000000000000000029e0ec46663257c0e97d",
                        "key": "0x0000000000000000000000000000000000000000000000000000000000000000",
                        "prev": "0x000100000100010000fc0fc80000000000000000000029b85b9318e79514b028"
                    },
                    {
                        "current": "0x01000000460000004754e8bec0a90bc75399e4b7d2fff458fa983e3863bc178b",
                        "key": "0x0000000000000000000000000000000000000000000000000000000000000008",
                        "prev": "0x01000000460000004754dcaadb7fc4ea9d44ac5c7efff4590345799863bc1557"
                    },
                    {
                        "current": "0x00000000000000000000000000000000000003fe25bd95c992f92779ef09e03c",
                        "key": "0x0000000000000000000000000000000000000000000000000000000000000002",
                        "prev": "0x00000000000000000000000000000000000003fe067e220a872275095c5a55e7"
                    }
                ],
                "storageVariables": [
                    {
                        "name": "slot0",
                        "type": "struct UniswapV3Pool.Slot0",
                        "value": {
                            "fields": [
                                {
                                    "name": "sqrtPriceX96",
                                    "type": "uint160",
                                    "value": {
                                        "current": "197766121877974120720765",
                                        "prev": "197017825352479956840488",
                                        "typeTag": 1
                                    }
                                },
                                {
                                    "name": "tick",
                                    "type": "int24",
                                    "value": {
                                        "current": "-258029",
                                        "prev": "-258104",
                                        "typeTag": 1
                                    }
                                },
                                {
                                    "name": "observationIndex",
                                    "type": "uint16",
                                    "value": {
                                        "current": "0",
                                        "prev": "0",
                                        "typeTag": 1
                                    }
                                },
                                {
                                    "name": "observationCardinality",
                                    "type": "uint16",
                                    "value": {
                                        "current": "1",
                                        "prev": "1",
                                        "typeTag": 1
                                    }
                                },
                                {
                                    "name": "observationCardinalityNext",
                                    "type": "uint16",
                                    "value": {
                                        "current": "1",
                                        "prev": "1",
                                        "typeTag": 1
                                    }
                                },
                                {
                                    "name": "feeProtocol",
                                    "type": "uint8",
                                    "value": {
                                        "current": "0",
                                        "prev": "0",
                                        "typeTag": 1
                                    }
                                },
                                {
                                    "name": "unlocked",
                                    "type": "bool",
                                    "value": {
                                        "current": "true",
                                        "prev": "true",
                                        "typeTag": 1
                                    }
                                }
                            ],
                            "typeTag": 3
                        }
                    },
                    {
                        "name": "observations",
                        "type": "struct Oracle.Observation[65535]",
                        "value": {
                            "elemType": "struct Oracle.Observation",
                            "elems": [
                                {
                                    "index": 0,
                                    "value": {
                                        "fields": [
                                            {
                                                "name": "blockTimestamp",
                                                "type": "uint32",
                                                "value": {
                                                    "current": "1673271179",
                                                    "prev": "1673270615",
                                                    "typeTag": 1
                                                }
                                            },
                                            {
                                                "name": "tickCumulative",
                                                "type": "int56",
                                                "value": {
                                                    "current": "-12811978129864",
                                                    "prev": "-12811832559208",
                                                    "typeTag": 1
                                                }
                                            },
                                            {
                                                "name": "secondsPerLiquidityCumulativeX128",
                                                "type": "uint160",
                                                "value": {
                                                    "current": "23819765690117170093367721725270664984530",
                                                    "prev": "23819765690117155492305644475038225423486",
                                                    "typeTag": 1
                                                }
                                            },
                                            {
                                                "name": "initialized",
                                                "type": "bool",
                                                "value": {
                                                    "current": "true",
                                                    "prev": "true",
                                                    "typeTag": 1
                                                }
                                            }
                                        ],
                                        "typeTag": 3
                                    }
                                }
                            ],
                            "typeTag": 2
                        }
                    },
                    {
                        "name": "feeGrowthGlobal1X128",
                        "type": "uint256",
                        "value": {
                            "current": "80982862229272441998854903685180",
                            "prev": "80973191485045017866622704702951",
                            "typeTag": 1
                        }
                    }
                ]
            },
            {
                "address": "0xdac17f958d2ee523a2206206994597c13d831ec7",
                "erc": "ERC-20",
                "slots": [
                    {
                        "current": "0x0000000000000000000000000000000000000000000000000000000028cffa9e",
                        "key": "0x7935a5a19c2b140007cefb116c30a9a0da36961de408557b724ca1f1c6ba494a",
                        "prev": "0x00000000000000000000000000000000000000000000000000000000303bfa20"
                    },
                    {
                        "current": "0x000000000000000000000000000000000000000000000000000000018dc66127",
                        "key": "0x2ef6b962590a1abd98fb50de5ac242a7150607ada998358caf687f721d4c4d67",
                        "prev": "0x00000000000000000000000000000000000000000000000000000001865a61a5"
                    }
                ],
                "storageVariables": [
                    {
                        "name": "balances",
                        "type": "mapping(address => uint256)",
                        "value": {
                            "pairs": [
                                {
                                    "key": "0x4f12bfdb47de4d2303d4072ef7a345ef561f01a8",
                                    "value": {
                                        "current": "684718750",
                                        "prev": "809237024",
                                        "typeTag": 1
                                    }
                                },
                                {
                                    "key": "0xac5a2c404ebba22a869998089ac7893ff4e1f0a7",
                                    "value": {
                                        "current": "6673555751",
                                        "prev": "6549037477",
                                        "typeTag": 1
                                    }
                                }
                            ],
                            "typeTag": 4
                        }
                    }
                ]
            }
        ]
    }
}