{
    "balance_change": {
        "balanceChanges": [
            {
                "account": "0xf081eda01d8d3b10f6f93ff1459339b9ed174d3c",
                "assets": [
                    {
                        "address": "0xf87e31492faf9a91b02ee0deaad50d51d56d5d4d",
                        "amount": "1",
                        "iconUrl": "",
                        "isERC1155": false,
                        "isERC721": true,
                        "sign": false,
                        "tokenID": "25180895152149446296289720949950847647597",
                        "value": ""
                    },
                    {
                        "address": "0xf87e31492faf9a91b02ee0deaad50d51d56d5d4d",
                        "amount": "1",
                        "iconUrl": "",
                        "isERC1155": false,
                        "isERC721": true,
                        "sign": false,
                        "tokenID": "25180895152149446296289720949950847647596",
                        "value": ""
                    },
                    {
                        "address": "0xf87e31492faf9a91b02ee0deaad50d51d56d5d4d",
                        "amount": "1",
                        "iconUrl": "",
                        "isERC1155": false,
                        "isERC721": true,
                        "sign": false,
                        "tokenID": "25180895152149446296289720949950847647595",
                        "value": ""
                    },
                    {
                        "address": "0xf87e31492faf9a91b02ee0deaad50d51d56d5d4d",
                        "amount": "1",
                        "iconUrl": "",
                        "isERC1155": false,
                        "isERC721": true,
                        "sign": false,
                        "tokenID": "25180895152149446296289720949950847647594",
                        "value": ""
                    }
                ]
            },
            {
                "account": "0x959e104e1a4db6317fa58f8295f586e1a978c297",
                "assets": [
                    {
                        "address": "0xf87e31492faf9a91b02ee0deaad50d51d56d5d4d",
                        "amount": "1",
                        "iconUrl": "",
                        "isERC1155": false,
                        "isERC721": true,
                        "sign": true,
                        "tokenID": "25180895152149446296289720949950847647597",
                        "value": ""
                    },
                    {
                        "address": "0xf87e31492faf9a91b02ee0deaad50d51d56d5d4d",
                        "amount": "1",
                        "iconUrl": "",
                        "isERC1155": false,
                        "isERC721": true,
                        "sign": true,
                        "tokenID": "25180895152149446296289720949950847647596",
                        "value": ""
                    },
                    {
                        "address": "0xf87e31492faf9a91b02ee0deaad50d51d56d5d4d",
                        "amount": "1",
                        "iconUrl": "",
                        "isERC1155": false,
                        "isERC721": true,
                        "sign": true,
                        "tokenID": "25180895152149446296289720949950847647595",
                        "value": ""
                    },
                    {
                        "address": "0xf87e31492faf9a91b02ee0deaad50d51d56d5d4d",
                        "amount": "1",
                        "iconUrl": "",
                        "isERC1155": false,
                        "isERC721": true,
                        "sign": true,
                        "tokenID": "25180895152149446296289720949950847647594",
                        "value": ""
                    }
                ]
            }
        ]
    },
    "profile": {
        "basic_info": {
            "baseFee": "",
            "blockNumber": 7088952,
            "callData": "0xf5f83a61000000000000000000000000000000000000000000000000000000000000006000000000000000000000000000000000000000000000000000000000000001000000000000000000000000000000000000000000000000000000000000000785000000000000000000000000000000000000000000000000000000000000000400000000000000000000000000000000000000000000000000000000000000490000000000000000000000000000000000000000000000000000000000000049000000000000000000000000000000000000000000000000000000000000004900000000000000000000000000000000000000000000000000000000000000490000000000000000000000000000000000000000000000000000000000000004ffffffffffffffffffffffffffffffffffffffffffffffffffffffffffffff6dffffffffffffffffffffffffffffffffffffffffffffffffffffffffffffff6cffffffffffffffffffffffffffffffffffffffffffffffffffffffffffffff6bffffffffffffffffffffffffffffffffffffffffffffffffffffffffffffff6a",
            "debugEnable": true,
            "errorInfo": "",
            "eventCount": 8,
            "feeRecipient": "0x829bd824b016326a401d083b33d092293333a830",
            "formatValue": "0",
            "gasLimit": 5000000,
            "gasPrice": "3",
            "gasUsed": 729785,
            "intTxnCount": 19,
            "internalRevert": false,
            "internalRevertMessage": "",
            "isContractCreation": false,
            "isFlashloan": false,
            "maxFee": "",
            "nonce": 5685,
            "overwritedBlockNumber": -1,
            "priorityFee": "",
            "receiver": "0xf87e31492faf9a91b02ee0deaad50d51d56d5d4d",
            "revertMessage": "",
            "sender": "0xf081eda01d8d3b10f6f93ff1459339b9ed174d3c",
            "simulationEnable": true,
            "sourceTxnHash": "0xbc896bd35ad21d10790912d44f79143349867fe3771373ae1d5d6173d5e702da",
            "status": true,
            "timestamp": "2019-01-18T20:19:36Z",
            "transactionFee": "0.002189355",
            "txnHash": "0xbc896bd35ad21d10790912d44f79143349867fe3771373ae1d5d6173d5e702da",
            "txnIndex": 11,
            "type": 0,
            "value": "0"
        },
        "fund_flow": [
            {
                "amount": "1",
                "from": "0xf081eda01d8d3b10f6f93ff1459339b9ed174d3c",
                "id": 1,
                "isERC1155": false,
                "isERC721": true,
                "isReverted": false,
                "order": 1,
                "to": "0x959e104e1a4db6317fa58f8295f586e1a978c297",
                "token": "0xf87e31492faf9a91b02ee0deaad50d51d56d5d4d",
                "tokenID": "25180895152149446296289720949950847647597"
            },
            {
                "amount": "1",
                "from": "0xf081eda01d8d3b10f6f93ff1459339b9ed174d3c",
                "id": 2,
                "isERC1155": false,
                "isERC721": true,
                "isReverted": false,
                "order": 2,
                "to": "0x959e104e1a4db6317fa58f8295f586e1a978c297",
                "token": "0xf87e31492faf9a91b02ee0deaad50d51d56d5d4d",
                "tokenID": "25180895152149446296289720949950847647596"
            },
            {
                "amount": "1",
                "from": "0xf081eda01d8d3b10f6f93ff1459339b9ed174d3c",
                "id": 3,
                "isERC1155": false,
                "isERC721": true,
                "isReverted": false,
                "order": 3,
                "to": "0x959e104e1a4db6317fa58f8295f586e1a978c297",
                "token": "0xf87e31492faf9a91b02ee0deaad50d51d56d5d4d",
                "tokenID": "25180895152149446296289720949950847647595"
            },
            {
                "amount": "1",
                "from": "0xf081eda01d8d3b10f6f93ff1459339b9ed174d3c",
                "id": 4,
                "isERC1155": false,
                "isERC721": true,
                "isReverted": false,
                "order": 4,
                "to": "0x959e104e1a4db6317fa58f8295f586e1a978c297",
                "token": "0xf87e31492faf9a91b02ee0deaad50d51d56d5d4d",
                "tokenID": "25180895152149446296289720949950847647594"
            }
        ],
        "token_infos": [
            {
                "address": "0xc02aaa39b223fe8d0a0e5c4f27ead9083c756cc2",
                "decimals": 18
            },
            {
                "address": "0xeeeeeeeeeeeeeeeeeeeeeeeeeeeeeeeeeeeeeeee",
                "decimals": 18
            }
        ]
    },
    "address_label": {
        "labels": [
            {
                "address": "0xf87e31492faf9a91b02ee0deaad50d51d56d5d4d",
                "label": "Decentraland: LAND"
            },
            {
                "address": "0xf8550b0511486af9a75c63d85a01c919535f76db",
                "label": "LANDRegistry"
            },
            {
                "address": "0xe34fcd12115bfe2fb632cd63fe7be5472b54173f",
                "label": "EstateRegistry"
            },
            {
                "address": "0x0000000000000000000000000000000000000001",
                "label": "Precompiled"
            },
            {
                "address": "0x0000000000000000000000000000000000000002",
                "label": "Precompiled"
            },
            {
                "address": "0x0000000000000000000000000000000000000003",
                "label": "Precompiled"
            },
            {
                "address": "0x0000000000000000000000000000000000000004",
                "label": "Precompiled"
            },
            {
                "address": "0xeeeeeeeeeeeeeeeeeeeeeeeeeeeeeeeeeeeeeeee",
                "label": "Ether"
            },
            {
                "address": "0x959e104e1a4db6317fa58f8295f586e1a978c297",
                "label": "Decentraland: Estate"
            }
        ]
    },
    "trace": {
        "accountLabels": null,
        "dataMap": {
            "-1": {
                "invocation": {
                    "address": "0xf081eda01d8d3b10f6f93ff1459339b9ed174d3c",
                    "callData": "",
                    "decodedMethod": null,
                    "errorInfo": "",
                    "fromAddress": "",
                    "gasUsed": 0,
                    "id": -1,
                    "methodDecoded": false,
                    "operation": "",
                    "output": "",
                    "revert": false,
                    "revertMessage": "",
                    "selector": "",
                    "status": false,
                    "value": ""
                },
                "nodeType": 0
            },
            "0": {
                "invocation": {
                    "address": "0xf87e31492faf9a91b02ee0deaad50d51d56d5d4d",
                    "callData": "0x000000000000000000000000000000000000000000000000000000000000006000000000000000000000000000000000000000000000000000000000000001000000000000000000000000000000000000000000000000000000000000000785000000000000000000000000000000000000000000000000000000000000000400000000000000000000000000000000000000000000000000000000000000490000000000000000000000000000000000000000000000000000000000000049000000000000000000000000000000000000000000000000000000000000004900000000000000000000000000000000000000000000000000000000000000490000000000000000000000000000000000000000000000000000000000000004ffffffffffffffffffffffffffffffffffffffffffffffffffffffffffffff6dffffffffffffffffffffffffffffffffffffffffffffffffffffffffffffff6cffffffffffffffffffffffffffffffffffffffffffffffffffffffffffffff6bffffffffffffffffffffffffffffffffffffffffffffffffffffffffffffff6a",
                    "decodedMethod": {
                        "callParams": [
                            {
                                "name": "x",
                                "type": "int256[]",
                                "value": [
                                    "73",
                                    "73",
                                    "73",
                                    "73"
                                ]
                            },
                            {
                                "name": "y",
                                "type": "int256[]",
                                "value": [
                                    "-147",
                                    "-148",
                                    "-149",
                                    "-150"
                                ]
                            },
                            {
                                "name": "estateId",
                                "type": "uint256",
                                "value": "1,925"
                            }
                        ],
                        "constructorArguments": "",
                        "name": "transferManyLandToEstate",
                        "returnParams": [],
                        "signature": "transferManyLandToEstate(int256[],int256[],uint256)"
                    },
                    "errorInfo": "",
                    "fromAddress": "0xf081eda01d8d3b10f6f93ff1459339b9ed174d3c",
                    "gasUsed": 729785,
                    "id": 0,
                    "methodDecoded": true,
                    "operation": "CALL",
                    "output": "",
                    "revert": false,
                    "revertMessage": "",
                    "selector": "0xf5f83a61",
                    "status": true,
                    "value": "0"
                },
                "nodeType": 0
            },
            "1": {
                "invocation": {
                    "address": "0xf8550b0511486af9a75c63d85a01c919535f76db",
                    "callData": "0x000000000000000000000000000000000000000000000000000000000000006000000000000000000000000000000000000000000000000000000000000001000000000000000000000000000000000000000000000000000000000000000785000000000000000000000000000000000000000000000000000000000000000400000000000000000000000000000000000000000000000000000000000000490000000000000000000000000000000000000000000000000000000000000049000000000000000000000000000000000000000000000000000000000000004900000000000000000000000000000000000000000000000000000000000000490000000000000000000000000000000000000000000000000000000000000004ffffffffffffffffffffffffffffffffffffffffffffffffffffffffffffff6dffffffffffffffffffffffffffffffffffffffffffffffffffffffffffffff6cffffffffffffffffffffffffffffffffffffffffffffffffffffffffffffff6bffffffffffffffffffffffffffffffffffffffffffffffffffffffffffffff6a",
                    "decodedMethod": {
                        "callParams": [
                            {
                                "name": "x",
                                "type": "int256[]",
                                "value": [
                                    "73",
                                    "73",
                                    "73",
                                    "73"
                                ]
                            },
                            {
                                "name": "y",
                                "type": "int256[]",
                                "value": [
                                    "-147",
                                    "-148",
                                    "-149",
                                    "-150"
                                ]
                            },
                            {
                                "name": "estateId",
                                "type": "uint256",
                                "value": "1,925"
                            }
                        ],
                        "constructorArguments": "",
                        "name": "transferManyLandToEstate",
                        "returnParams": [],
                        "signature": "transferManyLandToEstate(int256[],int256[],uint256)"
                    },
                    "errorInfo": "",
                    "fromAddress": "0xf87e31492faf9a91b02ee0deaad50d51d56d5d4d",
                    "gasUsed": 875529,
                    "id": 1,
                    "methodDecoded": true,
                    "operation": "DELEGATECALL",
                    "output": "",
                    "revert": false,
                    "revertMessage": "",
                    "selector": "0xf5f83a61",
                    "status": true,
                    "value": "0"
                },
                "nodeType": 0
            },
            "10": {
                "invocation": {
                    "address": "0x959e104e1a4db6317fa58f8295f586e1a978c297",
                    "callData": "0x000000000000000000000000f081eda01d8d3b10f6f93ff1459339b9ed174d3c000000000000000000000000f081eda01d8d3b10f6f93ff1459339b9ed174d3c00000000000000000000000000000049ffffffffffffffffffffffffffffff6c000000000000000000000000000000000000000000000000000000000000008000000000000000000000000000000000000000000000000000000000000000200000000000000000000000000000000000000000000000000000000000000785",
                    "decodedMethod": {
                        "callParams": [
                            {
                                "name": "_operator",
                                "type": "address",
                                "value": "0xf081eda01d8d3b10f6f93ff1459339b9ed174d3c"
                            },
                            {
                                "name": "_from",
                                "type": "address",
                                "value": "0xf081eda01d8d3b10f6f93ff1459339b9ed174d3c"
                            },
                            {
                                "name": "_tokenId",
                                "type": "uint256",
                                "value": "25,180,895,152,149,446,296,289,720,949,950,847,647,596"
                            },
                            {
                                "name": "_data",
                                "type": "bytes",
                                "value": "0x0000000000000000000000000000000000000000000000000000000000000785"
                            }
                        ],
                        "constructorArguments": "",
                        "name": "onERC721Received",
                        "returnParams": [
                            {
                                "name": "",
                                "type": "bytes4",
                                "value": "0x150b7a02"
                            }
                        ],
                        "signature": "onERC721Received(address,address,uint256,bytes)"
                    },
                    "errorInfo": "",
                    "fromAddress": "0xf87e31492faf9a91b02ee0deaad50d51d56d5d4d",
                    "gasUsed": 87918,
                    "id": 10,
                    "methodDecoded": true,
                    "operation": "CALL",
                    "output": "0x150b7a0200000000000000000000000000000000000000000000000000000000",
                    "revert": false,
                    "revertMessage": "",
                    "selector": "0x150b7a02",
                    "status": true,
                    "value": "0"
                },
                "nodeType": 0
            },
            "11": {
                "invocation": {
                    "address": "0xe34fcd12115bfe2fb632cd63fe7be5472b54173f",
                    "callData": "0x000000000000000000000000f081eda01d8d3b10f6f93ff1459339b9ed174d3c000000000000000000000000f081eda01d8d3b10f6f93ff1459339b9ed174d3c00000000000000000000000000000049ffffffffffffffffffffffffffffff6c000000000000000000000000000000000000000000000000000000000000008000000000000000000000000000000000000000000000000000000000000000200000000000000000000000000000000000000000000000000000000000000785",
                    "decodedMethod": {
                        "callParams": [
                            {
                                "name": "_operator",
                                "type": "address",
                                "value": "0xf081eda01d8d3b10f6f93ff1459339b9ed174d3c"
                            },
                            {
                                "name": "_from",
                                "type": "address",
                                "value": "0xf081eda01d8d3b10f6f93ff1459339b9ed174d3c"
                            },
                            {
                                "name": "_tokenId",
                                "type": "uint256",
                                "value": "25,180,895,152,149,446,296,289,720,949,950,847,647,596"
                            },
                            {
                                "name": "_data",
                                "type": "bytes",
                                "value": "0x0000000000000000000000000000000000000000000000000000000000000785"
                            }
                        ],
                        "constructorArguments": "",
                        "name": "onERC721Received",
                        "returnParams": [
                            {
                                "name": "",
                                "type": "bytes4",
                                "value": "0x150b7a02"
                            }
                        ],
                        "signature": "onERC721Received(address,address,uint256,bytes)"
                    },
                    "errorInfo": "",
                    "fromAddress": "0x959e104e1a4db6317fa58f8295f586e1a978c297",
                    "gasUsed": 86305,
                    "id": 11,
                    "methodDecoded": true,
                    "operation": "DELEGATECALL",
                    "output": "0x150b7a0200000000000000000000000000000000000000000000000000000000",
                    "revert": false,
                    "revertMessage": "",
                    "selector": "0x150b7a02",
                    "status": true,
                    "value": "0"
                },
                "nodeType": 0
            },
            "12": {
                "invocation": {
                    "address": "0xf87e31492faf9a91b02ee0deaad50d51d56d5d4d",
                    "callData": "0x00000000000000000000000000000049ffffffffffffffffffffffffffffff6c",
                    "decodedMethod": {
                        "callParams": [
                            {
                                "name": "assetId",
                                "type": "uint256",
                                "value": "25,180,895,152,149,446,296,289,720,949,950,847,647,596"
                            }
                        ],
                        "constructorArguments": "",
                        "name": "ownerOf",
                        "returnParams": [
                            {
                                "name": "",
                                "type": "address",
                                "value": "0x959e104e1a4db6317fa58f8295f586e1a978c297"
                            }
                        ],
                        "signature": "ownerOf(uint256)"
                    },
                    "errorInfo": "",
                    "fromAddress": "0x959e104e1a4db6317fa58f8295f586e1a978c297",
                    "gasUsed": 3626,
                    "id": 12,
                    "methodDecoded": true,
                    "operation": "CALL",
                    "output": "0x000000000000000000000000959e104e1a4db6317fa58f8295f586e1a978c297",
                    "revert": false,
                    "revertMessage": "",
                    "selector": "0x6352211e",
                    "status": true,
                    "value": "0"
                },
                "nodeType": 0
            },
            "13": {
                "invocation": {
                    "address": "0xf8550b0511486af9a75c63d85a01c919535f76db",
                    "callData": "0x00000000000000000000000000000049ffffffffffffffffffffffffffffff6c",
                    "decodedMethod": {
                        "callParams": [
                            {
                                "name": "assetId",
                                "type": "uint256",
                                "value": "25,180,895,152,149,446,296,289,720,949,950,847,647,596"
                            }
                        ],
                        "constructorArguments": "",
                        "name": "ownerOf",
                        "returnParams": [
                            {
                                "name": "",
                                "type": "address",
                                "value": "0x959e104e1a4db6317fa58f8295f586e1a978c297"
                            }
                        ],
                        "signature": "ownerOf(uint256)"
                    },
                    "errorInfo": "",
                    "fromAddress": "0xf87e31492faf9a91b02ee0deaad50d51d56d5d4d",
                    "gasUsed": 1204,
                    "id": 13,
                    "methodDecoded": true,
                    "operation": "DELEGATECALL",
                    "output": "0x000000000000000000000000959e104e1a4db6317fa58f8295f586e1a978c297",
                    "revert": false,
                    "revertMessage": "",
                    "selector": "0x6352211e",
                    "status": true,
                    "value": "0"
                },
                "nodeType": 0
            },
            "14": {
                "event": {
                    "contract": "0x959e104e1a4db6317fa58f8295f586e1a978c297",
                    "decodedLog": {
                        "name": "AddLand",
                        "params": [
                            {
                                "name": "_estateId",
                                "type": "uint256",
                                "value": "1,925"
                            },
                            {
                                "name": "_landId",
                                "type": "uint256",
                                "value": "25,180,895,152,149,446,296,289,720,949,950,847,647,596"
                            }
                        ],
                        "signature": "AddLand(uint256,uint256)"
                    },
                    "id": 14,
                    "logData": "0x",
                    "logDecoded": true,
                    "operation": "EVENT",
                    "revert": false,
                    "status": true,
                    "topics": [
                        "0xff0e52667d53255667dc777a00af81038a4646367b0d73d8ee8540ca5b0c9a2e",
                        "0x0000000000000000000000000000000000000000000000000000000000000785",
                        "0x00000000000000000000000000000049ffffffffffffffffffffffffffffff6c"
                    ]
                },
                "nodeType": 1
            },
            "15": {
                "event": {
                    "contract": "0xf87e31492faf9a91b02ee0deaad50d51d56d5d4d",
                    "decodedLog": {
                        "name": "Transfer",
                        "params": [
                            {
                                "name": "from",
                                "type": "address",
                                "value": "0xf081eda01d8d3b10f6f93ff1459339b9ed174d3c"
                            },
                            {
                                "name": "to",
                                "type": "address",
                                "value": "0x959e104e1a4db6317fa58f8295f586e1a978c297"
                            },
                            {
                                "decimalAvailable": true,
                                "name": "tokenId",
                                "type": "uint256",
                                "value": "25,180,895,152,149,446,296,289,720,949,950,847,647,596"
                            }
                        ],
                        "signature": "Transfer(address,address,uint256)"
                    },
                    "id": 15,
                    "logData": "0x",
                    "logDecoded": true,
                    "operation": "EVENT",
                    "revert": false,
                    "status": true,
                    "topics": [
                        "0xddf252ad1be2c89b69c2b068fc378daa952ba7f163c4a11628f55a4df523b3ef",
                        "0x000000000000000000000000f081eda01d8d3b10f6f93ff1459339b9ed174d3c",
                        "0x000000000000000000000000959e104e1a4db6317fa58f8295f586e1a978c297",
                        "0x00000000000000000000000000000049ffffffffffffffffffffffffffffff6c"
                    ]
                },
                "nodeType": 1
            },
            "16": {
                "invocation": {
                    "address": "0x959e104e1a4db6317fa58f8295f586e1a978c297",
                    "callData": "0x000000000000000000000000f081eda01d8d3b10f6f93ff1459339b9ed174d3c000000000000000000000000f081eda01d8d3b10f6f93ff1459339b9ed174d3c00000000000000000000000000000049ffffffffffffffffffffffffffffff6b000000000000000000000000000000000000000000000000000000000000008000000000000000000000000000000000000000000000000000000000000000200000000000000000000000000000000000000000000000000000000000000785",
                    "decodedMethod": {
                        "callParams": [
                            {
                                "name": "_operator",
                                "type": "address",
                                "value": "0xf081eda01d8d3b10f6f93ff1459339b9ed174d3c"
                            },
                            {
                                "name": "_from",
                                "type": "address",
                                "value": "0xf081eda01d8d3b10f6f93ff1459339b9ed174d3c"
                            },
                            {
                                "name": "_tokenId",
                                "type": "uint256",
                                "value": "25,180,895,152,149,446,296,289,720,949,950,847,647,595"
                            },
                            {
                                "name": "_data",
                                "type": "bytes",
                                "value": "0x0000000000000000000000000000000000000000000000000000000000000785"
                            }
                        ],
                        "constructorArguments": "",
                        "name": "onERC721Received",
                        "returnParams": [
                            {
                                "name": "",
                                "type": "bytes4",
                                "value": "0x150b7a02"
                            }
                        ],
                        "signature": "onERC721Received(address,address,uint256,bytes)"
                    },
                    "errorInfo": "",
                    "fromAddress": "0xf87e31492faf9a91b02ee0deaad50d51d56d5d4d",
                    "gasUsed": 87918,
                    "id": 16,
                    "methodDecoded": true,
                    "operation": "CALL",
                    "output": "0x150b7a0200000000000000000000000000000000000000000000000000000000",
                    "revert": false,
                    "revertMessage": "",
                    "selector": "0x150b7a02",
                    "status": true,
                    "value": "0"
                },
                "nodeType": 0
            },
            "17": {
                "invocation": {
                    "address": "0xe34fcd12115bfe2fb632cd63fe7be5472b54173f",
                    "callData": "0x000000000000000000000000f081eda01d8d3b10f6f93ff1459339b9ed174d3c000000000000000000000000f081eda01d8d3b10f6f93ff1459339b9ed174d3c00000000000000000000000000000049ffffffffffffffffffffffffffffff6b000000000000000000000000000000000000000000000000000000000000008000000000000000000000000000000000000000000000000000000000000000200000000000000000000000000000000000000000000000000000000000000785",
                    "decodedMethod": {
                        "callParams": [
                            {
                                "name": "_operator",
                                "type": "address",
                                "value": "0xf081eda01d8d3b10f6f93ff1459339b9ed174d3c"
                            },
                            {
                                "name": "_from",
                                "type": "address",
                                "value": "0xf081eda01d8d3b10f6f93ff1459339b9ed174d3c"
                            },
                            {
                                "name": "_tokenId",
                                "type": "uint256",
                                "value": "25,180,895,152,149,446,296,289,720,949,950,847,647,595"
                            },
                            {
                                "name": "_data",
                                "type": "bytes",
                                "value": "0x0000000000000000000000000000000000000000000000000000000000000785"
                            }
                        ],
                        "constructorArguments": "",
                        "name": "onERC721Received",
                        "returnParams": [
                            {
                                "name": "",
                                "type": "bytes4",
                                "value": "0x150b7a02"
                            }
                        ],
                        "signature": "onERC721Received(address,address,uint256,bytes)"
                    },
                    "errorInfo": "",
                    "fromAddress": "0x959e104e1a4db6317fa58f8295f586e1a978c297",
                    "gasUsed": 86305,
                    "id": 17,
                    "methodDecoded": true,
                    "operation": "DELEGATECALL",
                    "output": "0x150b7a0200000000000000000000000000000000000000000000000000000000",
                    "revert": false,
                    "revertMessage": "",
                    "selector": "0x150b7a02",
                    "status": true,
                    "value": "0"
                },
                "nodeType": 0
            },
            "18": {
                "invocation": {
                    "address": "0xf87e31492faf9a91b02ee0deaad50d51d56d5d4d",
                    "callData": "0x00000000000000000000000000000049ffffffffffffffffffffffffffffff6b",
                    "decodedMethod": {
                        "callParams": [
                            {
                                "name": "assetId",
                                "type": "uint256",
                                "value": "25,180,895,152,149,446,296,289,720,949,950,847,647,595"
                            }
                        ],
                        "constructorArguments": "",
                        "name": "ownerOf",
                        "returnParams": [
                            {
                                "name": "",
                                "type": "address",
                                "value": "0x959e104e1a4db6317fa58f8295f586e1a978c297"
                            }
                        ],
                        "signature": "ownerOf(uint256)"
                    },
                    "errorInfo": "",
                    "fromAddress": "0x959e104e1a4db6317fa58f8295f586e1a978c297",
                    "gasUsed": 3626,
                    "id": 18,
                    "methodDecoded": true,
                    "operation": "CALL",
                    "output": "0x000000000000000000000000959e104e1a4db6317fa58f8295f586e1a978c297",
                    "revert": false,
                    "revertMessage": "",
                    "selector": "0x6352211e",
                    "status": true,
                    "value": "0"
                },
                "nodeType": 0
            },
            "19": {
                "invocation": {
                    "address": "0xf8550b0511486af9a75c63d85a01c919535f76db",
                    "callData": "0x00000000000000000000000000000049ffffffffffffffffffffffffffffff6b",
                    "decodedMethod": {
                        "callParams": [
                            {
                                "name": "assetId",
                                "type": "uint256",
                                "value": "25,180,895,152,149,446,296,289,720,949,950,847,647,595"
                            }
                        ],
                        "constructorArguments": "",
                        "name": "ownerOf",
                        "returnParams": [
                            {
                                "name": "",
                                "type": "address",
                                "value": "0x959e104e1a4db6317fa58f8295f586e1a978c297"
                            }
                        ],
                        "signature": "ownerOf(uint256)"
                    },
                    "errorInfo": "",
                    "fromAddress": "0xf87e31492faf9a91b02ee0deaad50d51d56d5d4d",
                    "gasUsed": 1204,
                    "id": 19,
                    "methodDecoded": true,
                    "operation": "DELEGATECALL",
                    "output": "0x000000000000000000000000959e104e1a4db6317fa58f8295f586e1a978c297",
                    "revert": false,
                    "revertMessage": "",
                    "selector": "0x6352211e",
                    "status": true,
                    "value": "0"
                },
                "nodeType": 0
            },
            "2": {
                "invocation": {
                    "address": "0x959e104e1a4db6317fa58f8295f586e1a978c297",
                    "callData": "0x0000000000000000000000000000000000000000000000000000000000000785",
                    "decodedMethod": {
                        "callParams": [
                            {
                                "name": "_tokenId",
                                "type": "uint256",
                                "value": "1,925"
                            }
                        ],
                        "constructorArguments": "",
                        "name": "ownerOf",
                        "returnParams": [
                            {
                                "name": "",
                                "type": "address",
                                "value": "0xf081eda01d8d3b10f6f93ff1459339b9ed174d3c"
                            }
                        ],
                        "signature": "ownerOf(uint256)"
                    },
                    "errorInfo": "",
                    "fromAddress": "0xf87e31492faf9a91b02ee0deaad50d51d56d5d4d",
                    "gasUsed": 2709,
                    "id": 2,
                    "methodDecoded": true,
                    "operation": "CALL",
                    "output": "0x000000000000000000000000f081eda01d8d3b10f6f93ff1459339b9ed174d3c",
                    "revert": false,
                    "revertMessage": "",
                    "selector": "0x6352211e",
                    "status": true,
                    "value": "0"
                },
                "nodeType": 0
            },
            "20": {
                "event": {
                    "contract": "0x959e104e1a4db6317fa58f8295f586e1a978c297",
                    "decodedLog": {
                        "name": "AddLand",
                        "params": [
                            {
                                "name": "_estateId",
                                "type": "uint256",
                                "value": "1,925"
                            },
                            {
                                "name": "_landId",
                                "type": "uint256",
                                "value": "25,180,895,152,149,446,296,289,720,949,950,847,647,595"
                            }
                        ],
                        "signature": "AddLand(uint256,uint256)"
                    },
                    "id": 20,
                    "logData": "0x",
                    "logDecoded": true,
                    "operation": "EVENT",
                    "revert": false,
                    "status": true,
                    "topics": [
                        "0xff0e52667d53255667dc777a00af81038a4646367b0d73d8ee8540ca5b0c9a2e",
                        "0x0000000000000000000000000000000000000000000000000000000000000785",
                        "0x00000000000000000000000000000049ffffffffffffffffffffffffffffff6b"
                    ]
                },
                "nodeType": 1
            },
            "21": {
                "event": {
                    "contract": "0xf87e31492faf9a91b02ee0deaad50d51d56d5d4d",
                    "decodedLog": {
                        "name": "Transfer",
                        "params": [
                            {
                                "name": "from",
                                "type": "address",
                                "value": "0xf081eda01d8d3b10f6f93ff1459339b9ed174d3c"
                            },
                            {
                                "name": "to",
                                "type": "address",
                                "value": "0x959e104e1a4db6317fa58f8295f586e1a978c297"
                            },
                            {
                                "decimalAvailable": true,
                                "name": "tokenId",
                                "type": "uint256",
                                "value": "25,180,895,152,149,446,296,289,720,949,950,847,647,595"
                            }
                        ],
                        "signature": "Transfer(address,address,uint256)"
                    },
                    "id": 21,
                    "logData": "0x",
                    "logDecoded": true,
                    "operation": "EVENT",
                    "revert": false,
                    "status": true,
                    "topics": [
                        "0xddf252ad1be2c89b69c2b068fc378daa952ba7f163c4a11628f55a4df523b3ef",
                        "0x000000000000000000000000f081eda01d8d3b10f6f93ff1459339b9ed174d3c",
                        "0x000000000000000000000000959e104e1a4db6317fa58f8295f586e1a978c297",
                        "0x00000000000000000000000000000049ffffffffffffffffffffffffffffff6b"
                    ]
                },
                "nodeType": 1
            },
            "22": {
                "invocation": {
                    "address": "0x959e104e1a4db6317fa58f8295f586e1a978c297",
                    "callData": "0x000000000000000000000000f081eda01d8d3b10f6f93ff1459339b9ed174d3c000000000000000000000000f081eda01d8d3b10f6f93ff1459339b9ed174d3c00000000000000000000000000000049ffffffffffffffffffffffffffffff6a000000000000000000000000000000000000000000000000000000000000008000000000000000000000000000000000000000000000000000000000000000200000000000000000000000000000000000000000000000000000000000000785",
                    "decodedMethod": {
                        "callParams": [
                            {
                                "name": "_operator",
                                "type": "address",
                                "value": "0xf081eda01d8d3b10f6f93ff1459339b9ed174d3c"
                            },
                            {
                                "name": "_from",
                                "type": "address",
                                "value": "0xf081eda01d8d3b10f6f93ff1459339b9ed174d3c"
                            },
                            {
                                "name": "_tokenId",
                                "type": "uint256",
                                "value": "25,180,895,152,149,446,296,289,720,949,950,847,647,594"
                            },
                            {
                                "name": "_data",
                                "type": "bytes",
                                "value": "0x0000000000000000000000000000000000000000000000000000000000000785"
                            }
                        ],
                        "constructorArguments": "",
                        "name": "onERC721Received",
                        "returnParams": [
                            {
                                "name": "",
                                "type": "bytes4",
                                "value": "0x150b7a02"
                            }
                        ],
                        "signature": "onERC721Received(address,address,uint256,bytes)"
                    },
                    "errorInfo": "",
                    "fromAddress": "0xf87e31492faf9a91b02ee0deaad50d51d56d5d4d",
                    "gasUsed": 87918,
                    "id": 22,
                    "methodDecoded": true,
                    "operation": "CALL",
                    "output": "0x150b7a0200000000000000000000000000000000000000000000000000000000",
                    "revert": false,
                    "revertMessage": "",
                    "selector": "0x150b7a02",
                    "status": true,
                    "value": "0"
                },
                "nodeType": 0
            },
            "23": {
                "invocation": {
                    "address": "0xe34fcd12115bfe2fb632cd63fe7be5472b54173f",
                    "callData": "0x000000000000000000000000f081eda01d8d3b10f6f93ff1459339b9ed174d3c000000000000000000000000f081eda01d8d3b10f6f93ff1459339b9ed174d3c00000000000000000000000000000049ffffffffffffffffffffffffffffff6a000000000000000000000000000000000000000000000000000000000000008000000000000000000000000000000000000000000000000000000000000000200000000000000000000000000000000000000000000000000000000000000785",
                    "decodedMethod": {
                        "callParams": [
                            {
                                "name": "_operator",
                                "type": "address",
                                "value": "0xf081eda01d8d3b10f6f93ff1459339b9ed174d3c"
                            },
                            {
                                "name": "_from",
                                "type": "address",
                                "value": "0xf081eda01d8d3b10f6f93ff1459339b9ed174d3c"
                            },
                            {
                                "name": "_tokenId",
                                "type": "uint256",
                                "value": "25,180,895,152,149,446,296,289,720,949,950,847,647,594"
                            },
                            {
                                "name": "_data",
                                "type": "bytes",
                                "value": "0x0000000000000000000000000000000000000000000000000000000000000785"
                            }
                        ],
                        "constructorArguments": "",
                        "name": "onERC721Received",
                        "returnParams": [
                            {
                                "name": "",
                                "type": "bytes4",
                                "value": "0x150b7a02"
                            }
                        ],
                        "signature": "onERC721Received(address,address,uint256,bytes)"
                    },
                    "errorInfo": "",
                    "fromAddress": "0x959e104e1a4db6317fa58f8295f586e1a978c297",
                    "gasUsed": 86305,
                    "id": 23,
                    "methodDecoded": true,
                    "operation": "DELEGATECALL",
                    "output": "0x150b7a0200000000000000000000000000000000000000000000000000000000",
                    "revert": false,
                    "revertMessage": "",
                    "selector": "0x150b7a02",
                    "status": true,
                    "value": "0"
                },
                "nodeType": 0
            },
            "24": {
                "invocation": {
                    "address": "0xf87e31492faf9a91b02ee0deaad50d51d56d5d4d",
                    "callData": "0x00000000000000000000000000000049ffffffffffffffffffffffffffffff6a",
                    "decodedMethod": {
                        "callParams": [
                            {
                                "name": "assetId",
                                "type": "uint256",
                                "value": "25,180,895,152,149,446,296,289,720,949,950,847,647,594"
                            }
                        ],
                        "constructorArguments": "",
                        "name": "ownerOf",
                        "returnParams": [
                            {
                                "name": "",
                                "type": "address",
                                "value": "0x959e104e1a4db6317fa58f8295f586e1a978c297"
                            }
                        ],
                        "signature": "ownerOf(uint256)"
                    },
                    "errorInfo": "",
                    "fromAddress": "0x959e104e1a4db6317fa58f8295f586e1a978c297",
                    "gasUsed": 3626,
                    "id": 24,
                    "methodDecoded": true,
                    "operation": "CALL",
                    "output": "0x000000000000000000000000959e104e1a4db6317fa58f8295f586e1a978c297",
                    "revert": false,
                    "revertMessage": "",
                    "selector": "0x6352211e",
                    "status": true,
                    "value": "0"
                },
                "nodeType": 0
            },
            "25": {
                "invocation": {
                    "address": "0xf8550b0511486af9a75c63d85a01c919535f76db",
                    "callData": "0x00000000000000000000000000000049ffffffffffffffffffffffffffffff6a",
                    "decodedMethod": {
                        "callParams": [
                            {
                                "name": "assetId",
                                "type": "uint256",
                                "value": "25,180,895,152,149,446,296,289,720,949,950,847,647,594"
                            }
                        ],
                        "constructorArguments": "",
                        "name": "ownerOf",
                        "returnParams": [
                            {
                                "name": "",
                                "type": "address",
                                "value": "0x959e104e1a4db6317fa58f8295f586e1a978c297"
                            }
                        ],
                        "signature": "ownerOf(uint256)"
                    },
                    "errorInfo": "",
                    "fromAddress": "0xf87e31492faf9a91b02ee0deaad50d51d56d5d4d",
                    "gasUsed": 1204,
                    "id": 25,
                    "methodDecoded": true,
                    "operation": "DELEGATECALL",
                    "output": "0x000000000000000000000000959e104e1a4db6317fa58f8295f586e1a978c297",
                    "revert": false,
                    "revertMessage": "",
                    "selector": "0x6352211e",
                    "status": true,
                    "value": "0"
                },
                "nodeType": 0
            },
            "26": {
                "event": {
                    "contract": "0x959e104e1a4db6317fa58f8295f586e1a978c297",
                    "decodedLog": {
                        "name": "AddLand",
                        "params": [
                            {
                                "name": "_estateId",
                                "type": "uint256",
                                "value": "1,925"
                            },
                            {
                                "name": "_landId",
                                "type": "uint256",
                                "value": "25,180,895,152,149,446,296,289,720,949,950,847,647,594"
                            }
                        ],
                        "signature": "AddLand(uint256,uint256)"
                    },
                    "id": 26,
                    "logData": "0x",
                    "logDecoded": true,
                    "operation": "EVENT",
                    "revert": false,
                    "status": true,
                    "topics": [
                        "0xff0e52667d53255667dc777a00af81038a4646367b0d73d8ee8540ca5b0c9a2e",
                        "0x0000000000000000000000000000000000000000000000000000000000000785",
                        "0x00000000000000000000000000000049ffffffffffffffffffffffffffffff6a"
                    ]
                },
                "nodeType": 1
            },
            "27": {
                "event": {
                    "contract": "0xf87e31492faf9a91b02ee0deaad50d51d56d5d4d",
                    "decodedLog": {
                        "name": "Transfer",
                        "params": [
                            {
                                "name": "from",
                                "type": "address",
                                "value": "0xf081eda01d8d3b10f6f93ff1459339b9ed174d3c"
                            },
                            {
                                "name": "to",
                                "type": "address",
                                "value": "0x959e104e1a4db6317fa58f8295f586e1a978c297"
                            },
                            {
                                "decimalAvailable": true,
                                "name": "tokenId",
                                "type": "uint256",
                                "value": "25,180,895,152,149,446,296,289,720,949,950,847,647,594"
                            }
                        ],
                        "signature": "Transfer(address,address,uint256)"
                    },
                    "id": 27,
                    "logData": "0x",
                    "logDecoded": true,
                    "operation": "EVENT",
                    "revert": false,
                    "status": true,
                    "topics": [
                        "0xddf252ad1be2c89b69c2b068fc378daa952ba7f163c4a11628f55a4df523b3ef",
                        "0x000000000000000000000000f081eda01d8d3b10f6f93ff1459339b9ed174d3c",
                        "0x000000000000000000000000959e104e1a4db6317fa58f8295f586e1a978c297",
                        "0x00000000000000000000000000000049ffffffffffffffffffffffffffffff6a"
                    ]
                },
                "nodeType": 1
            },
            "3": {
                "invocation": {
                    "address": "0xe34fcd12115bfe2fb632cd63fe7be5472b54173f",
                    "callData": "0x0000000000000000000000000000000000000000000000000000000000000785",
                    "decodedMethod": {
                        "callParams": [
                            {
                                "name": "_tokenId",
                                "type": "uint256",
                                "value": "1,925"
                            }
                        ],
                        "constructorArguments": "",
                        "name": "ownerOf",
                        "returnParams": [
                            {
                                "name": "",
                                "type": "address",
                                "value": "0xf081eda01d8d3b10f6f93ff1459339b9ed174d3c"
                            }
                        ],
                        "signature": "ownerOf(uint256)"
                    },
                    "errorInfo": "",
                    "fromAddress": "0x959e104e1a4db6317fa58f8295f586e1a978c297",
                    "gasUsed": 1123,
                    "id": 3,
                    "methodDecoded": true,
                    "operation": "DELEGATECALL",
                    "output": "0x000000000000000000000000f081eda01d8d3b10f6f93ff1459339b9ed174d3c",
                    "revert": false,
                    "revertMessage": "",
                    "selector": "0x6352211e",
                    "status": true,
                    "value": "0"
                },
                "nodeType": 0
            },
            "4": {
                "invocation": {
                    "address": "0x959e104e1a4db6317fa58f8295f586e1a978c297",
                    "callData": "0x000000000000000000000000f081eda01d8d3b10f6f93ff1459339b9ed174d3c000000000000000000000000f081eda01d8d3b10f6f93ff1459339b9ed174d3c00000000000000000000000000000049ffffffffffffffffffffffffffffff6d000000000000000000000000000000000000000000000000000000000000008000000000000000000000000000000000000000000000000000000000000000200000000000000000000000000000000000000000000000000000000000000785",
                    "decodedMethod": {
                        "callParams": [
                            {
                                "name": "_operator",
                                "type": "address",
                                "value": "0xf081eda01d8d3b10f6f93ff1459339b9ed174d3c"
                            },
                            {
                                "name": "_from",
                                "type": "address",
                                "value": "0xf081eda01d8d3b10f6f93ff1459339b9ed174d3c"
                            },
                            {
                                "name": "_tokenId",
                                "type": "uint256",
                                "value": "25,180,895,152,149,446,296,289,720,949,950,847,647,597"
                            },
                            {
                                "name": "_data",
                                "type": "bytes",
                                "value": "0x0000000000000000000000000000000000000000000000000000000000000785"
                            }
                        ],
                        "constructorArguments": "",
                        "name": "onERC721Received",
                        "returnParams": [
                            {
                                "name": "",
                                "type": "bytes4",
                                "value": "0x150b7a02"
                            }
                        ],
                        "signature": "onERC721Received(address,address,uint256,bytes)"
                    },
                    "errorInfo": "",
                    "fromAddress": "0xf87e31492faf9a91b02ee0deaad50d51d56d5d4d",
                    "gasUsed": 87918,
                    "id": 4,
                    "methodDecoded": true,
                    "operation": "CALL",
                    "output": "0x150b7a0200000000000000000000000000000000000000000000000000000000",
                    "revert": false,
                    "revertMessage": "",
                    "selector": "0x150b7a02",
                    "status": true,
                    "value": "0"
                },
                "nodeType": 0
            },
            "5": {
                "invocation": {
                    "address": "0xe34fcd12115bfe2fb632cd63fe7be5472b54173f",
                    "callData": "0x000000000000000000000000f081eda01d8d3b10f6f93ff1459339b9ed174d3c000000000000000000000000f081eda01d8d3b10f6f93ff1459339b9ed174d3c00000000000000000000000000000049ffffffffffffffffffffffffffffff6d000000000000000000000000000000000000000000000000000000000000008000000000000000000000000000000000000000000000000000000000000000200000000000000000000000000000000000000000000000000000000000000785",
                    "decodedMethod": {
                        "callParams": [
                            {
                                "name": "_operator",
                                "type": "address",
                                "value": "0xf081eda01d8d3b10f6f93ff1459339b9ed174d3c"
                            },
                            {
                                "name": "_from",
                                "type": "address",
                                "value": "0xf081eda01d8d3b10f6f93ff1459339b9ed174d3c"
                            },
                            {
                                "name": "_tokenId",
                                "type": "uint256",
                                "value": "25,180,895,152,149,446,296,289,720,949,950,847,647,597"
                            },
                            {
                                "name": "_data",
                                "type": "bytes",
                                "value": "0x0000000000000000000000000000000000000000000000000000000000000785"
                            }
                        ],
                        "constructorArguments": "",
                        "name": "onERC721Received",
                        "returnParams": [
                            {
                                "name": "",
                                "type": "bytes4",
                                "value": "0x150b7a02"
                            }
                        ],
                        "signature": "onERC721Received(address,address,uint256,bytes)"
                    },
                    "errorInfo": "",
                    "fromAddress": "0x959e104e1a4db6317fa58f8295f586e1a978c297",
                    "gasUsed": 86305,
                    "id": 5,
                    "methodDecoded": true,
                    "operation": "DELEGATECALL",
                    "output": "0x150b7a0200000000000000000000000000000000000000000000000000000000",
                    "revert": false,
                    "revertMessage": "",
                    "selector": "0x150b7a02",
                    "status": true,
                    "value": "0"
                },
                "nodeType": 0
            },
            "6": {
                "invocation": {
                    "address": "0xf87e31492faf9a91b02ee0deaad50d51d56d5d4d",
                    "callData": "0x00000000000000000000000000000049ffffffffffffffffffffffffffffff6d",
                    "decodedMethod": {
                        "callParams": [
                            {
                                "name": "assetId",
                                "type": "uint256",
                                "value": "25,180,895,152,149,446,296,289,720,949,950,847,647,597"
                            }
                        ],
                        "constructorArguments": "",
                        "name": "ownerOf",
                        "returnParams": [
                            {
                                "name": "",
                                "type": "address",
                                "value": "0x959e104e1a4db6317fa58f8295f586e1a978c297"
                            }
                        ],
                        "signature": "ownerOf(uint256)"
                    },
                    "errorInfo": "",
                    "fromAddress": "0x959e104e1a4db6317fa58f8295f586e1a978c297",
                    "gasUsed": 3626,
                    "id": 6,
                    "methodDecoded": true,
                    "operation": "CALL",
                    "output": "0x000000000000000000000000959e104e1a4db6317fa58f8295f586e1a978c297",
                    "revert": false,
                    "revertMessage": "",
                    "selector": "0x6352211e",
                    "status": true,
                    "value": "0"
                },
                "nodeType": 0
            },
            "7": {
                "invocation": {
                    "address": "0xf8550b0511486af9a75c63d85a01c919535f76db",
                    "callData": "0x00000000000000000000000000000049ffffffffffffffffffffffffffffff6d",
                    "decodedMethod": {
                        "callParams": [
                            {
                                "name": "assetId",
                                "type": "uint256",
                                "value": "25,180,895,152,149,446,296,289,720,949,950,847,647,597"
                            }
                        ],
                        "constructorArguments": "",
                        "name": "ownerOf",
                        "returnParams": [
                            {
                                "name": "",
                                "type": "address",
                                "value": "0x959e104e1a4db6317fa58f8295f586e1a978c297"
                            }
                        ],
                        "signature": "ownerOf(uint256)"
                    },
                    "errorInfo": "",
                    "fromAddress": "0xf87e31492faf9a91b02ee0deaad50d51d56d5d4d",
                    "gasUsed": 1204,
                    "id": 7,
                    "methodDecoded": true,
                    "operation": "DELEGATECALL",
                    "output": "0x000000000000000000000000959e104e1a4db6317fa58f8295f586e1a978c297",
                    "revert": false,
                    "revertMessage": "",
                    "selector": "0x6352211e",
                    "status": true,
                    "value": "0"
                },
                "nodeType": 0
            },
            "8": {
                "event": {
                    "contract": "0x959e104e1a4db6317fa58f8295f586e1a978c297",
                    "decodedLog": {
                        "name": "AddLand",
                        "params": [
                            {
                                "name": "_estateId",
                                "type": "uint256",
                                "value": "1,925"
                            },
                            {
                                "name": "_landId",
                                "type": "uint256",
                                "value": "25,180,895,152,149,446,296,289,720,949,950,847,647,597"
                            }
                        ],
                        "signature": "AddLand(uint256,uint256)"
                    },
                    "id": 8,
                    "logData": "0x",
                    "logDecoded": true,
                    "operation": "EVENT",
                    "revert": false,
                    "status": true,
                    "topics": [
                        "0xff0e52667d53255667dc777a00af81038a4646367b0d73d8ee8540ca5b0c9a2e",
                        "0x0000000000000000000000000000000000000000000000000000000000000785",
                        "0x00000000000000000000000000000049ffffffffffffffffffffffffffffff6d"
                    ]
                },
                "nodeType": 1
            },
            "9": {
                "event": {
                    "contract": "0xf87e31492faf9a91b02ee0deaad50d51d56d5d4d",
                    "decodedLog": {
                        "name": "Transfer",
                        "params": [
                            {
                                "name": "from",
                                "type": "address",
                                "value": "0xf081eda01d8d3b10f6f93ff1459339b9ed174d3c"
                            },
                            {
                                "name": "to",
                                "type": "address",
                                "value": "0x959e104e1a4db6317fa58f8295f586e1a978c297"
                            },
                            {
                                "decimalAvailable": true,
                                "name": "tokenId",
                                "type": "uint256",
                                "value": "25,180,895,152,149,446,296,289,720,949,950,847,647,597"
                            }
                        ],
                        "signature": "Transfer(address,address,uint256)"
                    },
                    "id": 9,
                    "logData": "0x",
                    "logDecoded": true,
                    "operation": "EVENT",
                    "revert": false,
                    "status": true,
                    "topics": [
                        "0xddf252ad1be2c89b69c2b068fc378daa952ba7f163c4a11628f55a4df523b3ef",
                        "0x000000000000000000000000f081eda01d8d3b10f6f93ff1459339b9ed174d3c",
                        "0x000000000000000000000000959e104e1a4db6317fa58f8295f586e1a978c297",
                        "0x00000000000000000000000000000049ffffffffffffffffffffffffffffff6d"
                    ]
                },
                "nodeType": 1
            }
        },
        "gasFlame": [
            {
                "children": [
                    {
                        "children": [
                            {
                                "children": [],
                                "depth": 0,
                                "name": "Initial Gas",
                                "value": 31768
                            },
                            {
                                "children": [
                                    {
                                        "children": [
                                            {
                                                "children": [
                                                    {
                                                        "children": [],
                                                        "depth": 3,
                                                        "name": "ownerOf",
                                                        "value": 1123
                                                    }
                                                ],
                                                "depth": 2,
                                                "name": "ownerOf",
                                                "value": 2709
                                            },
                                            {
                                                "children": [
                                                    {
                                                        "children": [
                                                            {
                                                                "children": [
                                                                    {
                                                                        "children": [],
                                                                        "depth": 5,
                                                                        "name": "ownerOf",
                                                                        "value": 1204
                                                                    }
                                                                ],
                                                                "depth": 4,
                                                                "name": "ownerOf",
                                                                "value": 3626
                                                            }
                                                        ],
                                                        "depth": 3,
                                                        "name": "onERC721Received",
                                                        "value": 86305
                                                    }
                                                ],
                                                "depth": 2,
                                                "name": "onERC721Received",
                                                "value": 87918
                                            },
                                            {
                                                "children": [
                                                    {
                                                        "children": [
                                                            {
                                                                "children": [
                                                                    {
                                                                        "children": [],
                                                                        "depth": 5,
                                                                        "name": "ownerOf",
                                                                        "value": 1204
                                                                    }
                                                                ],
                                                                "depth": 4,
                                                                "name": "ownerOf",
                                                                "value": 3626
                                                            }
                                                        ],
                                                        "depth": 3,
                                                        "name": "onERC721Received",
                                                        "value": 86305
                                                    }
                                                ],
                                                "depth": 2,
                                                "name": "onERC721Received",
                                                "value": 87918
                                            },
                                            {
                                                "children": [
                                                    {
                                                        "children": [
                                                            {
                                                                "children": [
                                                                    {
                                                                        "children": [],
                                                                        "depth": 5,
                                                                        "name": "ownerOf",
                                                                        "value": 1204
                                                                    }
                                                                ],
                                                                "depth": 4,
                                                                "name": "ownerOf",
                                                                "value": 3626
                                                            }
                                                        ],
                                                        "depth": 3,
                                                        "name": "onERC721Received",
                                                        "value": 86305
                                                    }
                                                ],
                                                "depth": 2,
                                                "name": "onERC721Received",
                                                "value": 87918
                                            },
                                            {
                                                "children": [
                                                    {
                                                        "children": [
                                                            {
                                                                "children": [
                                                                    {
                                                                        "children": [],
                                                                        "depth": 5,
                                                                        "name": "ownerOf",
                                                                        "value": 1204
                                                                    }
                                                                ],
                                                                "depth": 4,
                                                                "name": "ownerOf",
                                                                "value": 3626
                                                            }
                                                        ],
                                                        "depth": 3,
                                                        "name": "onERC721Received",
                                                        "value": 86305
                                                    }
                                                ],
                                                "depth": 2,
                                                "name": "onERC721Received",
                                                "value": 87918
                                            }
                                        ],
                                        "depth": 1,
                                        "name": "transferManyLandToEstate",
                                        "value": 875529
                                    }
                                ],
                                "depth": 0,
                                "name": "Executed Gas",
                                "value": 878017
                            }
                        ],
                        "depth": -1,
                        "name": "Actual Gas Used",
                        "value": 729785
                    },
                    {
                        "children": [],
                        "depth": -1,
                        "name": "Refunded Gas",
                        "value": 180000
                    }
                ],
                "depth": -2,
                "name": "Total Gas",
                "value": 909785
            }
        ],
        "isConfirmed": true,
        "mainTrace": [
            {
                "children": [
                    {
                        "children": [
                            {
                                "children": [
                                    {
                                        "children": [
                                            {
                                                "children": [],
                                                "depth": 3,
                                                "id": 3,
                                                "order": 3
                                            }
                                        ],
                                        "depth": 2,
                                        "id": 2,
                                        "order": 2
                                    },
                                    {
                                        "children": [
                                            {
                                                "children": [
                                                    {
                                                        "children": [
                                                            {
                                                                "children": [],
                                                                "depth": 5,
                                                                "id": 7,
                                                                "order": 7
                                                            }
                                                        ],
                                                        "depth": 4,
                                                        "id": 6,
                                                        "order": 6
                                                    },
                                                    {
                                                        "children": [],
                                                        "depth": 4,
                                                        "id": 8,
                                                        "order": 8
                                                    }
                                                ],
                                                "depth": 3,
                                                "id": 5,
                                                "order": 5
                                            }
                                        ],
                                        "depth": 2,
                                        "id": 4,
                                        "order": 4
                                    },
                                    {
                                        "children": [],
                                        "depth": 2,
                                        "id": 9,
                                        "order": 9
                                    },
                                    {
                                        "children": [
                                            {
                                                "children": [
                                                    {
                                                        "children": [
                                                            {
                                                                "children": [],
                                                                "depth": 5,
                                                                "id": 13,
                                                                "order": 13
                                                            }
                                                        ],
                                                        "depth": 4,
                                                        "id": 12,
                                                        "order": 12
                                                    },
                                                    {
                                                        "children": [],
                                                        "depth": 4,
                                                        "id": 14,
                                                        "order": 14
                                                    }
                                                ],
                                                "depth": 3,
                                                "id": 11,
                                                "order": 11
                                            }
                                        ],
                                        "depth": 2,
                                        "id": 10,
                                        "order": 10
                                    },
                                    {
                                        "children": [],
                                        "depth": 2,
                                        "id": 15,
                                        "order": 15
                                    },
                                    {
                                        "children": [
                                            {
                                                "children": [
                                                    {
                                                        "children": [
                                                            {
                                                                "children": [],
                                                                "depth": 5,
                                                                "id": 19,
                                                                "order": 19
                                                            }
                                                        ],
                                                        "depth": 4,
                                                        "id": 18,
                                                        "order": 18
                                                    },
                                                    {
                                                        "children": [],
                                                        "depth": 4,
                                                        "id": 20,
                                                        "order": 20
                                                    }
                                                ],
                                                "depth": 3,
                                                "id": 17,
                                                "order": 17
                                            }
                                        ],
                                        "depth": 2,
                                        "id": 16,
                                        "order": 16
                                    },
                                    {
                                        "children": [],
                                        "depth": 2,
                                        "id": 21,
                                        "order": 21
                                    },
                                    {
                                        "children": [
                                            {
                                                "children": [
                                                    {
                                                        "children": [
                                                            {
                                                                "children": [],
                                                                "depth": 5,
                                                                "id": 25,
                                                                "order": 25
                                                            }
                                                        ],
                                                        "depth": 4,
                                                        "id": 24,
                                                        "order": 24
                                                    },
                                                    {
                                                        "children": [],
                                                        "depth": 4,
                                                        "id": 26,
                                                        "order": 26
                                                    }
                                                ],
                                                "depth": 3,
                                                "id": 23,
                                                "order": 23
                                            }
                                        ],
                                        "depth": 2,
                                        "id": 22,
                                        "order": 22
                                    },
                                    {
                                        "children": [],
                                        "depth": 2,
                                        "id": 27,
                                        "order": 27
                                    }
                                ],
                                "depth": 1,
                                "id": 1,
                                "order": 1
                            }
                        ],
                        "depth": 0,
                        "id": 0,
                        "order": 0
                    }
                ],
                "depth": -1,
                "id": -1,
                "order": -1
            }
        ],
        "mainTraceNodeCount": 28,
        "parentIdMap": {
            "0": -1,
            "1": 0,
            "10": 1,
            "11": 10,
            "12": 11,
            "13": 12,
            "14": 11,
            "15": 1,
            "16": 1,
            "17": 16,
            "18": 17,
            "19": 18,
            "2": 1,
            "20": 17,
            "21": 1,
            "22": 1,
            "23": 22,
            "24": 23,
            "25": 24,
            "26": 23,
            "27": 1,
            "3": 2,
            "4": 1,
            "5": 4,
            "6": 5,
            "7": 6,
            "8": 5,
            "9": 1
        },
        "tidyTrace": [
            {
                "children": [
                    {
                        "children": [
                            {
                                "children": [
                                    {
                                        "children": [
                                            {
                                                "children": [],
                                                "depth": 3,
                                                "id": 3,
                                                "order": 3
                                            }
                                        ],
                                        "depth": 2,
                                        "id": 2,
                                        "order": 2
                                    },
                                    {
                                        "children": [
                                            {
                                                "children": [
                                                    {
                                                        "children": [
                                                            {
                                                                "children": [],
                                                                "depth": 5,
                                                                "id": 7,
                                                                "order": 7
                                                            }
                                                        ],
                                                        "depth": 4,
                                                        "id": 6,
                                                        "order": 6
                                                    },
                                                    {
                                                        "children": [],
                                                        "depth": 4,
                                                        "id": 8,
                                                        "order": 8
                                                    }
                                                ],
                                                "depth": 3,
                                                "id": 5,
                                                "order": 5
                                            }
                                        ],
                                        "depth": 2,
                                        "id": 4,
                                        "order": 4
                                    },
                                    {
                                        "children": [],
                                        "depth": 2,
                                        "id": 9,
                                        "order": 9
                                    },
                                    {
                                        "children": [
                                            {
                                                "children": [
                                                    {
                                                        "children": [
                                                            {
                                                                "children": [],
                                                                "depth": 5,
                                                                "id": 13,
                                                                "order": 13
                                                            }
                                                        ],
                                                        "depth": 4,
                                                        "id": 12,
                                                        "order": 12
                                                    },
                                                    {
                                                        "children": [],
                                                        "depth": 4,
                                                        "id": 14,
                                                        "order": 14
                                                    }
                                                ],
                                                "depth": 3,
                                                "id": 11,
                                                "order": 11
                                            }
                                        ],
                                        "depth": 2,
                                        "id": 10,
                                        "order": 10
                                    },
                                    {
                                        "children": [],
                                        "depth": 2,
                                        "id": 15,
                                        "order": 15
                                    },
                                    {
                                        "children": [
                                            {
                                                "children": [
                                                    {
                                                        "children": [
                                                            {
                                                                "children": [],
                                                                "depth": 5,
                                                                "id": 19,
                                                                "order": 19
                                                            }
                                                        ],
                                                        "depth": 4,
                                                        "id": 18,
                                                        "order": 18
                                                    },
                                                    {
                                                        "children": [],
                                                        "depth": 4,
                                                        "id": 20,
                                                        "order": 20
                                                    }
                                                ],
                                                "depth": 3,
                                                "id": 17,
                                                "order": 17
                                            }
                                        ],
                                        "depth": 2,
                                        "id": 16,
                                        "order": 16
                                    },
                                    {
                                        "children": [],
                                        "depth": 2,
                                        "id": 21,
                                        "order": 21
                                    },
                                    {
                                        "children": [
                                            {
                                                "children": [
                                                    {
                                                        "children": [
                                                            {
                                                                "children": [],
                                                                "depth": 5,
                                                                "id": 25,
                                                                "order": 25
                                                            }
                                                        ],
                                                        "depth": 4,
                                                        "id": 24,
                                                        "order": 24
                                                    },
                                                    {
                                                        "children": [],
                                                        "depth": 4,
                                                        "id": 26,
                                                        "order": 26
                                                    }
                                                ],
                                                "depth": 3,
                                                "id": 23,
                                                "order": 23
                                            }
                                        ],
                                        "depth": 2,
                                        "id": 22,
                                        "order": 22
                                    },
                                    {
                                        "children": [],
                                        "depth": 2,
                                        "id": 27,
                                        "order": 27
                                    }
                                ],
                                "depth": 1,
                                "id": 1,
                                "order": 1
                            }
                        ],
                        "depth": 0,
                        "id": 0,
                        "order": 0
                    }
                ],
                "depth": -1,
                "id": -1,
                "order": -1
            }
        ],
        "tidyTraceNodeCount": 28
    },
    "state_change": {
        "stateChanges": [
            {
                "address": "0x959e104e1a4db6317fa58f8295f586e1a978c297",
                "erc": "ERC-721",
                "slots": [
                    {
                        "current": "0x00000000000000000000000000000000000000000000000000000000000005ab",
                        "key": "0x9aae5fa766f4e4ddd54fde2ce58c9882c9a779129a1105cd4126f161a1120f50",
                        "prev": "0x0000000000000000000000000000000000000000000000000000000000000000"
                    },
                    {
                        "current": "0x00000000000000000000000000000000000000000000000000000000000005ac",
                        "key": "0x86ca6b469bdda1458e427f87a635c24bdeafcf8765631a55144a703a3f500b2d",
                        "prev": "0x0000000000000000000000000000000000000000000000000000000000000000"
                    },
                    {
                        "current": "0x0000000000000000000000000000000000000000000000000000000000000785",
                        "key": "0x43c6a60b36d7e280031efb18968b47323fac73fc51cf67351e95041938370f9e",
                        "prev": "0x0000000000000000000000000000000000000000000000000000000000000000"
                    },
                    {
                        "current": "0x00000000000000000000000000000049ffffffffffffffffffffffffffffff6d",
                        "key": "0x9f2870237b23809491870b09081627b0a087f78712ca17cc3777baa46c6a72ff",
                        "prev": "0x0000000000000000000000000000000000000000000000000000000000000000"
                    },
                    {
                        "current": "0x0000000000000000000000000000000000000000000000000000000000000785",
                        "key": "0xe7a18408e958b048d94596cc5211819d4a5010d8e410c9a1639ae55e4b08edc4",
                        "prev": "0x0000000000000000000000000000000000000000000000000000000000000000"
                    },
                    {
                        "current": "0x00000000000000000000000000000000000000000000000000000000000005ae",
                        "key": "0x95e4da7e15a2b9c5bb595f1d937409e35c4a1382e2fe314fe00df48d272343ba",
                        "prev": "0x00000000000000000000000000000000000000000000000000000000000005aa"
                    },
                    {
                        "current": "0x00000000000000000000000000000049ffffffffffffffffffffffffffffff6b",
                        "key": "0x9f2870237b23809491870b09081627b0a087f78712ca17cc3777baa46c6a7301",
                        "prev": "0x0000000000000000000000000000000000000000000000000000000000000000"
                    },
                    {
                        "current": "0x0000000000000000000000000000000000000000000000000000000000000785",
                        "key": "0xa3b979a7a26300968a3a0663abbcce7d5aa53063bfee2356dc1c85ba119584d4",
                        "prev": "0x0000000000000000000000000000000000000000000000000000000000000000"
                    },
                    {
                        "current": "0x00000000000000000000000000000000000000000000000000000000000005ae",
                        "key": "0xb163203b1a72be525a77cd061f996f788005182d22ac9bec4dc4ca6afc97d893",
                        "prev": "0x0000000000000000000000000000000000000000000000000000000000000000"
                    },
                    {
                        "current": "0x0000000000000000000000000000000000000000000000000000000000000785",
                        "key": "0x3971de4967f548d345d3992c849e522a31e451469510a97096795fbe2c00fb20",
                        "prev": "0x0000000000000000000000000000000000000000000000000000000000000000"
                    },
                    {
                        "current": "0x00000000000000000000000000000000000000000000000000000000000005ad",
                        "key": "0xe83aa00416e9344266941ec3c3af97af2826a2cb1d3c7ef17319aaea25300983",
                        "prev": "0x0000000000000000000000000000000000000000000000000000000000000000"
                    },
                    {
                        "current": "0x00000000000000000000000000000049ffffffffffffffffffffffffffffff6a",
                        "key": "0x9f2870237b23809491870b09081627b0a087f78712ca17cc3777baa46c6a7302",
                        "prev": "0x0000000000000000000000000000000000000000000000000000000000000000"
                    },
                    {
                        "current": "0x00000000000000000000000000000049ffffffffffffffffffffffffffffff6c",
                        "key": "0x9f2870237b23809491870b09081627b0a087f78712ca17cc3777baa46c6a7300",
                        "prev": "0x0000000000000000000000000000000000000000000000000000000000000000"
                    }
                ],
                "storageVariables": [
                    {
                        "name": "estateLandIds",
                        "type": "mapping(uint256 => uint256[])",
                        "value": {
                            "pairs": [
                                {
                                    "key": "1925",
                                    "value": {
                                        "elemType": "uint256",
                                        "elems": [
                                            {
                                                "index": 1450,
                                                "value": {
                                                    "current": "25180895152149446296289720949950847647597",
                                                    "prev": "0",
                                                    "typeTag": 1
                                                }
                                            },
                                            {
                                                "index": 1451,
                                                "value": {
                                                    "current": "25180895152149446296289720949950847647596",
                                                    "prev": "0",
                                                    "typeTag": 1
                                                }
                                            },
                                            {
                                                "index": 1452,
                                                "value": {
                                                    "current": "25180895152149446296289720949950847647595",
                                                    "prev": "0",
                                                    "typeTag": 1
                                                }
                                            },
                                            {
                                                "index": 1453,
                                                "value": {
                                                    "current": "25180895152149446296289720949950847647594",
                                                    "prev": "0",
                                                    "typeTag": 1
                                                }
                                            }
                                        ],
                                        "typeTag": 2
                                    }
                                }
                            ],
                            "typeTag": 4
                        }
                    },
                    {
                        "name": "landIdEstate",
                        "type": "mapping(uint256 => uint256)",
                        "value": {
                            "pairs": [
                                {
                                    "key": "25180895152149446296289720949950847647594",
                                    "value": {
                                        "current": "1925",
                                        "prev": "0",
                                        "typeTag": 1
                                    }
                                },
                                {
                                    "key": "25180895152149446296289720949950847647595",
                                    "value": {
                                        "current": "1925",
                                        "prev": "0",
                                        "typeTag": 1
                                    }
                                },
                                {
                                    "key": "25180895152149446296289720949950847647596",
                                    "value": {
                                        "current": "1925",
                                        "prev": "0",
                                        "typeTag": 1
                                    }
                                },
                                {
                                    "key": "25180895152149446296289720949950847647597",
                                    "value": {
                                        "current": "1925",
                                        "prev": "0",
                                        "typeTag": 1
                                    }
                                }
                            ],
                            "typeTag": 4
                        }
                    },
                    {
                        "name": "estateLandIndex",
                        "type": "mapping(uint256 => mapping(uint256 => uint256))",
                        "value": {
                            "pairs": [
                                {
                                    "key": "1925",
                                    "value": {
                                        "pairs": [
                                            {
                                                "key": "25180895152149446296289720949950847647594",
                                                "value": {
                                                    "current": "1454",
                                                    "prev": "0",
                                                    "typeTag": 1
                                                }
                                            },
                                            {
                                                "key": "25180895152149446296289720949950847647595",
                                                "value": {
                                                    "current": "1453",
                                                    "prev": "0",
                                                    "typeTag": 1
                                                }
                                            },
                                            {
                                                "key": "25180895152149446296289720949950847647596",
                                                "value": {
                                                    "current": "1452",
                                                    "prev": "0",
                                                    "typeTag": 1
                                                }
                                            },
                                            {
                                                "key": "25180895152149446296289720949950847647597",
                                                "value": {
                                                    "current": "1451",
                                                    "prev": "0",
                                                    "typeTag": 1
                                                }
                                            }
                                        ],
                                        "typeTag": 4
                                    }
                                }
                            ],
                            "typeTag": 4
                        }
                    }
                ]
            },
            {
                "address": "0xf87e31492faf9a91b02ee0deaad50d51d56d5d4d",
                "erc": "ERC-721",
                "slots": [
                    {
                        "current": "0x000000000000000000000000000000000000000000000000000000000000ae88",
                        "key": "0xcd18f5f2f423c86825a20dbca84c143b577b73eb70daf0cef8296a9254378d9f",
                        "prev": "0x0000000000000000000000000000000000000000000000000000000000001852"
                    },
                    {
                        "current": "0x000000000000000000000000959e104e1a4db6317fa58f8295f586e1a978c297",
                        "key": "0x7949224ba940dd570b3534833665eefe7cf5258223f67caec07592c5870406b5",
                        "prev": "0x000000000000000000000000f081eda01d8d3b10f6f93ff1459339b9ed174d3c"
                    },
                    {
                        "current": "0x0000000000000000000000000000006e00000000000000000000000000000089",
                        "key": "0x976ab14f924921d99688de52b3dfe05b6fdf407ae473d320581b4cff4769dd18",
                        "prev": "0x00000000000000000000000000000049ffffffffffffffffffffffffffffff6c"
                    },
                    {
                        "current": "0x0000000000000000000000000000000000000000000000000000000000000000",
                        "key": "0x976ab14f924921d99688de52b3dfe05b6fdf407ae473d320581b4cff476a0162",
                        "prev": "0x0000000000000000000000000000006d00000000000000000000000000000081"
                    },
                    {
                        "current": "0x0000000000000000000000000000000000000000000000000000000000001881",
                        "key": "0x10fff170260fe17f988b318326df196858ec550809698cefcf0232768a6eb1b3",
                        "prev": "0x0000000000000000000000000000000000000000000000000000000000003c9f"
                    },
                    {
                        "current": "0x00000000000000000000000000000049ffffffffffffffffffffffffffffff6d",
                        "key": "0xfc4b582cff8c3bc40b2a3c45f1f338e2fbb3d7322b23fe2cc58ce1789d9667e4",
                        "prev": "0x0000000000000000000000000000000000000000000000000000000000000000"
                    },
                    {
                        "current": "0x000000000000000000000000959e104e1a4db6317fa58f8295f586e1a978c297",
                        "key": "0xa2fa1ae100f5958d0f517b3731442a2b4ab53db53606b13276382cf404584510",
                        "prev": "0x000000000000000000000000f081eda01d8d3b10f6f93ff1459339b9ed174d3c"
                    },
                    {
                        "current": "0x000000000000000000000000000000000000000000000000000000000000ae8a",
                        "key": "0xf16b9fb9cd2a8c53b95d68664fd73fdfc7a8599f53acdda80cd7ba1b4b368e05",
                        "prev": "0x000000000000000000000000000000000000000000000000000000000000185a"
                    },
                    {
                        "current": "0x0000000000000000000000000000006f00000000000000000000000000000089",
                        "key": "0x976ab14f924921d99688de52b3dfe05b6fdf407ae473d320581b4cff4769dd14",
                        "prev": "0x00000000000000000000000000000049ffffffffffffffffffffffffffffff6d"
                    },
                    {
                        "current": "0x000000000000000000000000000000000000000000000000000000000000ae8c",
                        "key": "0x6d7f2a8541b59d1bfaeb2d05bcea00862e3da29bf1fb4c618add7882e82755f5",
                        "prev": "0x000000000000000000000000000000000000000000000000000000000000ae88"
                    },
                    {
                        "current": "0x0000000000000000000000000000000000000000000000000000000000001852",
                        "key": "0xa4616d26ae2bb5670d8d2c02f19b2c7f10777e911b5872fd0256ca3c9bc56863",
                        "prev": "0x0000000000000000000000000000000000000000000000000000000000003ca2"
                    },
                    {
                        "current": "0x000000000000000000000000000000000000000000000000000000000000ae89",
                        "key": "0x02c1dcd09f4db846c9a2c5d98e08fe8fab67b3c9f4654f0472f8823b5f97b66c",
                        "prev": "0x0000000000000000000000000000000000000000000000000000000000001856"
                    },
                    {
                        "current": "0x00000000000000000000000000000049ffffffffffffffffffffffffffffff6c",
                        "key": "0xfc4b582cff8c3bc40b2a3c45f1f338e2fbb3d7322b23fe2cc58ce1789d9667e5",
                        "prev": "0x0000000000000000000000000000000000000000000000000000000000000000"
                    },
                    {
                        "current": "0x0000000000000000000000000000000000000000000000000000000000000000",
                        "key": "0x976ab14f924921d99688de52b3dfe05b6fdf407ae473d320581b4cff476a0161",
                        "prev": "0x0000000000000000000000000000006c00000000000000000000000000000088"
                    },
                    {
                        "current": "0x0000000000000000000000000000000000000000000000000000000000000000",
                        "key": "0x976ab14f924921d99688de52b3dfe05b6fdf407ae473d320581b4cff476a0164",
                        "prev": "0x0000000000000000000000000000006f00000000000000000000000000000089"
                    },
                    {
                        "current": "0x0000000000000000000000000000000000000000000000000000000000001856",
                        "key": "0x3665706fecb8db4336b4f8a747e62fedb530882f13e0618f9f1f996ef7413b45",
                        "prev": "0x0000000000000000000000000000000000000000000000000000000000003ca1"
                    },
                    {
                        "current": "0x000000000000000000000000000000000000000000000000000000000000185a",
                        "key": "0x5d4b98ba7483bd82067fae5b496c1e5321b9650e0b838131d150cce81894ce92",
                        "prev": "0x0000000000000000000000000000000000000000000000000000000000003ca0"
                    },
                    {
                        "current": "0x000000000000000000000000959e104e1a4db6317fa58f8295f586e1a978c297",
                        "key": "0x312874b72620d0cc79873c947a277c6ffb0ec29bda72bfa9358380908ba67086",
                        "prev": "0x000000000000000000000000f081eda01d8d3b10f6f93ff1459339b9ed174d3c"
                    },
                    {
                        "current": "0x0000000000000000000000000000000000000000000000000000000000000000",
                        "key": "0x976ab14f924921d99688de52b3dfe05b6fdf407ae473d320581b4cff476a0163",
                        "prev": "0x0000000000000000000000000000006e00000000000000000000000000000089"
                    },
                    {
                        "current": "0x00000000000000000000000000000049ffffffffffffffffffffffffffffff6b",
                        "key": "0xfc4b582cff8c3bc40b2a3c45f1f338e2fbb3d7322b23fe2cc58ce1789d9667e6",
                        "prev": "0x0000000000000000000000000000000000000000000000000000000000000000"
                    },
                    {
                        "current": "0x000000000000000000000000959e104e1a4db6317fa58f8295f586e1a978c297",
                        "key": "0x3402b3b8cb84d9077a858b81026e95060920fc302c8f4a34c894e56137f0367b",
                        "prev": "0x000000000000000000000000f081eda01d8d3b10f6f93ff1459339b9ed174d3c"
                    },
                    {
                        "current": "0x0000000000000000000000000000006c00000000000000000000000000000088",
                        "key": "0x976ab14f924921d99688de52b3dfe05b6fdf407ae473d320581b4cff4769dd43",
                        "prev": "0x00000000000000000000000000000049ffffffffffffffffffffffffffffff6a"
                    },
                    {
                        "current": "0x000000000000000000000000000000000000000000000000000000000000ae8b",
                        "key": "0x64622d2dafd5592521c93cbf2550e78bb13f9458cdce077307a16996bef2c67f",
                        "prev": "0x0000000000000000000000000000000000000000000000000000000000001881"
                    },
                    {
                        "current": "0x0000000000000000000000000000006d00000000000000000000000000000081",
                        "key": "0x976ab14f924921d99688de52b3dfe05b6fdf407ae473d320581b4cff4769dd1c",
                        "prev": "0x00000000000000000000000000000049ffffffffffffffffffffffffffffff6b"
                    },
                    {
                        "current": "0x00000000000000000000000000000049ffffffffffffffffffffffffffffff6a",
                        "key": "0xfc4b582cff8c3bc40b2a3c45f1f338e2fbb3d7322b23fe2cc58ce1789d9667e7",
                        "prev": "0x0000000000000000000000000000000000000000000000000000000000000000"
                    },
                    {
                        "current": "0x0000000000000000000000000000000000000000000000000000000000003c9f",
                        "key": "0x412e3d88df54b940e1f7bf4776a4f23679619ec1674fde214c64ee66611e0959",
                        "prev": "0x0000000000000000000000000000000000000000000000000000000000003ca3"
                    }
                ],
                "storageVariables": [
                    {
                        "name": "_indexOfAsset",
                        "type": "mapping(uint256 => uint256)",
                        "value": {
                            "pairs": [
                                {
                                    "key": "25180895152149446296289720949950847647594",
                                    "value": {
                                        "current": "44683",
                                        "prev": "6273",
                                        "typeTag": 1
                                    }
                                },
                                {
                                    "key": "25180895152149446296289720949950847647595",
                                    "value": {
                                        "current": "44682",
                                        "prev": "6234",
                                        "typeTag": 1
                                    }
                                },
                                {
                                    "key": "25180895152149446296289720949950847647596",
                                    "value": {
                                        "current": "44681",
                                        "prev": "6230",
                                        "typeTag": 1
                                    }
                                },
                                {
                                    "key": "25180895152149446296289720949950847647597",
                                    "value": {
                                        "current": "44680",
                                        "prev": "6226",
                                        "typeTag": 1
                                    }
                                },
                                {
                                    "key": "36750495627461354054044457602630966837384",
                                    "value": {
                                        "current": "6273",
                                        "prev": "15519",
                                        "typeTag": 1
                                    }
                                },
                                {
                                    "key": "37090777994382292517507832210062735048833",
                                    "value": {
                                        "current": "6234",
                                        "prev": "15520",
                                        "typeTag": 1
                                    }
                                },
                                {
                                    "key": "37431060361303230980971206817494503260297",
                                    "value": {
                                        "current": "6230",
                                        "prev": "15521",
                                        "typeTag": 1
                                    }
                                },
                                {
                                    "key": "37771342728224169444434581424926271471753",
                                    "value": {
                                        "current": "6226",
                                        "prev": "15522",
                                        "typeTag": 1
                                    }
                                }
                            ],
                            "typeTag": 4
                        }
                    },
                    {
                        "name": "_holderOf",
                        "type": "mapping(uint256 => address)",
                        "value": {
                            "pairs": [
                                {
                                    "key": "25180895152149446296289720949950847647594",
                                    "value": {
                                        "current": "0x959e104e1a4db6317fa58f8295f586e1a978c297",
                                        "prev": "0xf081eda01d8d3b10f6f93ff1459339b9ed174d3c",
                                        "typeTag": 1
                                    }
                                },
                                {
                                    "key": "25180895152149446296289720949950847647595",
                                    "value": {
                                        "current": "0x959e104e1a4db6317fa58f8295f586e1a978c297",
                                        "prev": "0xf081eda01d8d3b10f6f93ff1459339b9ed174d3c",
                                        "typeTag": 1
                                    }
                                },
                                {
                                    "key": "25180895152149446296289720949950847647596",
                                    "value": {
                                        "current": "0x959e104e1a4db6317fa58f8295f586e1a978c297",
                                        "prev": "0xf081eda01d8d3b10f6f93ff1459339b9ed174d3c",
                                        "typeTag": 1
                                    }
                                },
                                {
                                    "key": "25180895152149446296289720949950847647597",
                                    "value": {
                                        "current": "0x959e104e1a4db6317fa58f8295f586e1a978c297",
                                        "prev": "0xf081eda01d8d3b10f6f93ff1459339b9ed174d3c",
                                        "typeTag": 1
                                    }
                                }
                            ],
                            "typeTag": 4
                        }
                    },
                    {
                        "name": "_assetsOf",
                        "type": "mapping(address => uint256[])",
                        "value": {
                            "pairs": [
                                {
                                    "key": "0x959e104e1a4db6317fa58f8295f586e1a978c297",
                                    "value": {
                                        "elemType": "uint256",
                                        "elems": [
                                            {
                                                "index": 44680,
                                                "value": {
                                                    "current": "25180895152149446296289720949950847647597",
                                                    "prev": "0",
                                                    "typeTag": 1
                                                }
                                            },
                                            {
                                                "index": 44681,
                                                "value": {
                                                    "current": "25180895152149446296289720949950847647596",
                                                    "prev": "0",
                                                    "typeTag": 1
                                                }
                                            },
                                            {
                                                "index": 44682,
                                                "value": {
                                                    "current": "25180895152149446296289720949950847647595",
                                                    "prev": "0",
                                                    "typeTag": 1
                                                }
                                            },
                                            {
                                                "index": 44683,
                                                "value": {
                                                    "current": "25180895152149446296289720949950847647594",
                                                    "prev": "0",
                                                    "typeTag": 1
                                                }
                                            }
                                        ],
                                        "typeTag": 2
                                    }
                                },
                                {
                                    "key": "0xf081eda01d8d3b10f6f93ff1459339b9ed174d3c",
                                    "value": {
                                        "elemType": "uint256",
                                        "elems": [
                                            {
                                                "index": 6226,
                                                "value": {
                                                    "current": "37771342728224169444434581424926271471753",
                                                    "prev": "25180895152149446296289720949950847647597",
                                                    "typeTag": 1
                                                }
                                            },
                                            {
                                                "index": 6230,
                                                "value": {
                                                    "current": "37431060361303230980971206817494503260297",
                                                    "prev": "25180895152149446296289720949950847647596",
                                                    "typeTag": 1
                                                }
                                            },
                                            {
                                                "index": 6234,
                                                "value": {
                                                    "current": "37090777994382292517507832210062735048833",
                                                    "prev": "25180895152149446296289720949950847647595",
                                                    "typeTag": 1
                                                }
                                            },
                                            {
                                                "index": 6273,
                                                "value": {
                                                    "current": "36750495627461354054044457602630966837384",
                                                    "prev": "25180895152149446296289720949950847647594",
                                                    "typeTag": 1
                                                }
                                            }
                                        ],
                                        "typeTag": 2
                                    }
                                }
                            ],
                            "typeTag": 4
                        }
                    }
                ]
            }
        ]
    }
}