{
    "balance_change": {
        "balanceChanges": []
    },
    "profile": {
        "basic_info": {
            "baseFee": "7.261918719",
            "blockNumber": 15672953,
            "callData": "0x432ced043030303030343200000000000000000000000000000000000000000000000000",
            "debugEnable": true,
            "errorInfo": "",
            "eventCount": 1,
            "feeRecipient": "0xdafea492d9c6733ae3d56b7ed1adb60692c98bc5",
            "formatValue": "0",
            "gasLimit": 45125,
            "gasPrice": "8.761918719",
            "gasUsed": 45125,
            "intTxnCount": 0,
            "internalRevert": false,
            "internalRevertMessage": "",
            "isContractCreation": false,
            "isFlashloan": false,
            "maxFee": "11.069601981",
            "nonce": 266,
            "overwritedBlockNumber": -1,
            "priorityFee": "1.5",
            "receiver": "0x5564886ca2c518d1964e5fcea4f423b41db9f561",
            "revertMessage": "",
            "sender": "0x547322faf3b4d0e16c8dda880da2bbd40ebd6109",
            "simulationEnable": true,
            "sourceTxnHash": "0xbc70a94a1c28074a1b84708cb47d738d9fc371df4a01b43878de5ceff7dc67ab",
            "status": true,
            "timestamp": "2022-10-04T06:21:35Z",
            "transactionFee": "0.000395381582194875",
            "txnHash": "0xbc70a94a1c28074a1b84708cb47d738d9fc371df4a01b43878de5ceff7dc67ab",
            "txnIndex": 92,
            "type": 2,
            "value": "0"
        },
        "fund_flow": [],
        "token_infos": [
            {
                "address": "0xc02aaa39b223fe8d0a0e5c4f27ead9083c756cc2",
                "decimals": 18
            },
            {
                "address": "0xeeeeeeeeeeeeeeeeeeeeeeeeeeeeeeeeeeeeeeee",
                "decimals": 18
            }
        ]
    },
    "address_label": {
        "labels": [
            {
                "address": "0x5564886ca2c518d1964e5fcea4f423b41db9f561",
                "label": "Linagee: Name Registrar"
            },
            {
                "address": "0x0000000000000000000000000000000000000001",
                "label": "Precompiled"
            },
            {
                "address": "0x0000000000000000000000000000000000000002",
                "label": "Precompiled"
            },
            {
                "address": "0x0000000000000000000000000000000000000003",
                "label": "Precompiled"
            },
            {
                "address": "0x0000000000000000000000000000000000000004",
                "label": "Precompiled"
            },
            {
                "address": "0xeeeeeeeeeeeeeeeeeeeeeeeeeeeeeeeeeeeeeeee",
                "label": "Ether"
            }
        ]
    },
    "trace": {
        "accountLabels": null,
        "dataMap": {
            "-1": {
                "invocation": {
                    "address": "0x547322faf3b4d0e16c8dda880da2bbd40ebd6109",
                    "callData": "",
                    "decodedMethod": null,
                    "errorInfo": "",
                    "fromAddress": "",
                    "gasUsed": 0,
                    "id": -1,
                    "methodDecoded": false,
                    "operation": "",
                    "output": "",
                    "revert": false,
                    "revertMessage": "",
                    "selector": "",
                    "status": false,
                    "value": ""
                },
                "nodeType": 0
            },
            "0": {
                "invocation": {
                    "address": "0x5564886ca2c518d1964e5fcea4f423b41db9f561",
                    "callData": "0x3030303030343200000000000000000000000000000000000000000000000000",
                    "decodedMethod": {
                        "callParams": [
                            {
                                "name": "_name",
                                "type": "bytes32",
                                "value": "0x3030303030343200000000000000000000000000000000000000000000000000"
                            }
                        ],
                        "constructorArguments": "",
                        "name": "reserve",
                        "returnParams": [],
                        "signature": "reserve(bytes32)"
                    },
                    "errorInfo": "",
                    "fromAddress": "0x547322faf3b4d0e16c8dda880da2bbd40ebd6109",
                    "gasUsed": 45125,
                    "id": 0,
                    "methodDecoded": true,
                    "operation": "CALL",
                    "output": "",
                    "revert": false,
                    "revertMessage": "",
                    "selector": "0x432ced04",
                    "status": true,
                    "value": "0"
                },
                "nodeType": 0
            },
            "1": {
                "event": {
                    "contract": "0x5564886ca2c518d1964e5fcea4f423b41db9f561",
                    "decodedLog": {
                        "name": "Changed",
                        "params": [
                            {
                                "name": "name",
                                "type": "bytes32",
                                "value": "0x3030303030343200000000000000000000000000000000000000000000000000"
                            }
                        ],
                        "signature": "Changed(bytes32)"
                    },
                    "id": 1,
                    "logData": "0x",
                    "logDecoded": true,
                    "operation": "EVENT",
                    "revert": false,
                    "status": true,
                    "topics": [
                        "0xa6697e974e6a320f454390be03f74955e8978f1a6971ea6730542e37b66179bc",
                        "0x3030303030343200000000000000000000000000000000000000000000000000"
                    ]
                },
                "nodeType": 1
            }
        },
        "gasFlame": [
            {
                "children": [
                    {
                        "children": [
                            {
                                "children": [],
                                "depth": 0,
                                "name": "Initial Gas",
                                "value": 21276
                            },
                            {
                                "children": [],
                                "depth": 0,
                                "name": "Executed Gas",
                                "value": 23849
                            }
                        ],
                        "depth": -1,
                        "name": "Actual Gas Used",
                        "value": 45125
                    },
                    {
                        "children": [],
                        "depth": -1,
                        "name": "Refunded Gas",
                        "value": 0
                    }
                ],
                "depth": -2,
                "name": "Total Gas",
                "value": 45125
            }
        ],
        "isConfirmed": true,
        "mainTrace": [
            {
                "children": [
                    {
                        "children": [
                            {
                                "children": [],
                                "depth": 1,
                                "id": 1,
                                "order": 1
                            }
                        ],
                        "depth": 0,
                        "id": 0,
                        "order": 0
                    }
                ],
                "depth": -1,
                "id": -1,
                "order": -1
            }
        ],
        "mainTraceNodeCount": 2,
        "parentIdMap": {
            "0": -1,
            "1": 0
        },
        "tidyTrace": [
            {
                "children": [
                    {
                        "children": [
                            {
                                "children": [],
                                "depth": 1,
                                "id": 1,
                                "order": 1
                            }
                        ],
                        "depth": 0,
                        "id": 0,
                        "order": 0
                    }
                ],
                "depth": -1,
                "id": -1,
                "order": -1
            }
        ],
        "tidyTraceNodeCount": 2
    },
    "state_change": {
        "stateChanges": [
            {
                "address": "0x5564886ca2c518d1964e5fcea4f423b41db9f561",
                "erc": "",
                "slots": [
                    {
                        "current": "0x000000000000000000000000547322faf3b4d0e16c8dda880da2bbd40ebd6109",
                        "key": "0xf2a023d1c396dc0041b82e5fb0b28add2f643aa93731b71edad014e576b9db7d",
                        "prev": "0x0000000000000000000000000000000000000000000000000000000000000000"
                    }
                ],
                "storageVariables": []
            }
        ]
    }
}