{
    "balance_change": {
        "balanceChanges": [
            {
                "account": "0x6ce72c3697b718e300fe4a409351ed338c215187",
                "assets": [
                    {
                        "address": "0xab4e1802c61e12fd7b10a69a226f5d727c76a8aa",
                        "amount": "5",
                        "iconUrl": "",
                        "isERC1155": false,
                        "isERC721": false,
                        "sign": false,
                        "value": ""
                    }
                ]
            },
            {
                "account": "0x44d2824b448c931bd8e440023b878f90bb1f687a",
                "assets": [
                    {
                        "address": "0xab4e1802c61e12fd7b10a69a226f5d727c76a8aa",
                        "amount": "5",
                        "iconUrl": "",
                        "isERC1155": false,
                        "isERC721": false,
                        "sign": true,
                        "value": ""
                    }
                ]
            }
        ]
    },
    "profile": {
        "basic_info": {
            "baseFee": "",
            "blockNumber": 6642111,
            "callData": "0xa9059cbb00000000000000000000000044d2824b448c931bd8e440023b878f90bb1f687a0000000000000000000000000000000000000000000000004563918244f40000",
            "debugEnable": true,
            "errorInfo": "",
            "eventCount": 1,
            "feeRecipient": "0xa39b0ff4c3413db472d62a12a7a474544b58bc25",
            "formatValue": "0",
            "gasLimit": 182000,
            "gasPrice": "4",
            "gasUsed": 54623,
            "intTxnCount": 0,
            "internalRevert": false,
            "internalRevertMessage": "",
            "isContractCreation": false,
            "isFlashloan": false,
            "maxFee": "",
            "nonce": 55,
            "overwritedBlockNumber": -1,
            "priorityFee": "",
            "receiver": "0xab4e1802c61e12fd7b10a69a226f5d727c76a8aa",
            "revertMessage": "",
            "sender": "0x6ce72c3697b718e300fe4a409351ed338c215187",
            "simulationEnable": true,
            "sourceTxnHash": "0xbcc3f5fcbbda8570b357f7e981adf93184713173d0f802997dbd5266d82ee826",
            "status": true,
            "timestamp": "2018-11-04T13:10:16Z",
            "transactionFee": "0.000218492",
            "txnHash": "0xbcc3f5fcbbda8570b357f7e981adf93184713173d0f802997dbd5266d82ee826",
            "txnIndex": 53,
            "type": 0,
            "value": "0"
        },
        "fund_flow": [
            {
                "amount": "5",
                "from": "0x6ce72c3697b718e300fe4a409351ed338c215187",
                "id": 1,
                "isERC1155": false,
                "isERC721": false,
                "isReverted": false,
                "order": 1,
                "to": "0x44d2824b448c931bd8e440023b878f90bb1f687a",
                "token": "0xab4e1802c61e12fd7b10a69a226f5d727c76a8aa"
            }
        ],
        "token_infos": [
            {
                "address": "0xab4e1802c61e12fd7b10a69a226f5d727c76a8aa",
                "decimals": 18
            },
            {
                "address": "0xc02aaa39b223fe8d0a0e5c4f27ead9083c756cc2",
                "decimals": 18
            },
            {
                "address": "0xeeeeeeeeeeeeeeeeeeeeeeeeeeeeeeeeeeeeeeee",
                "decimals": 18
            }
        ]
    },
    "address_label": {
        "labels": [
            {
                "address": "0x0000000000000000000000000000000000000002",
                "label": "Precompiled"
            },
            {
                "address": "0x0000000000000000000000000000000000000003",
                "label": "Precompiled"
            },
            {
                "address": "0x0000000000000000000000000000000000000004",
                "label": "Precompiled"
            },
            {
                "address": "0xeeeeeeeeeeeeeeeeeeeeeeeeeeeeeeeeeeeeeeee",
                "label": "Ether"
            },
            {
                "address": "0xab4e1802c61e12fd7b10a69a226f5d727c76a8aa",
                "label": "ODF"
            },
            {
                "address": "0x0000000000000000000000000000000000000001",
                "label": "Precompiled"
            }
        ]
    },
    "trace": {
        "accountLabels": null,
        "dataMap": {
            "-1": {
                "invocation": {
                    "address": "0x6ce72c3697b718e300fe4a409351ed338c215187",
                    "callData": "",
                    "decodedMethod": null,
                    "errorInfo": "",
                    "fromAddress": "",
                    "gasUsed": 0,
                    "id": -1,
                    "methodDecoded": false,
                    "operation": "",
                    "output": "",
                    "revert": false,
                    "revertMessage": "",
                    "selector": "",
                    "status": false,
                    "value": ""
                },
                "nodeType": 0
            },
            "0": {
                "invocation": {
                    "address": "0xab4e1802c61e12fd7b10a69a226f5d727c76a8aa",
                    "callData": "0x00000000000000000000000044d2824b448c931bd8e440023b878f90bb1f687a0000000000000000000000000000000000000000000000004563918244f40000",
                    "decodedMethod": {
                        "callParams": [
                            {
                                "name": "recipient",
                                "type": "address",
                                "value": "0x44d2824b448c931bd8e440023b878f90bb1f687a"
                            },
                            {
                                "decimalAvailable": true,
                                "name": "amount",
                                "type": "uint256",
                                "value": "5,000,000,000,000,000,000"
                            }
                        ],
                        "constructorArguments": "",
                        "name": "transfer",
                        "returnParams": [
                            {
                                "name": "",
                                "type": "bool",
                                "value": true
                            }
                        ],
                        "signature": "transfer(address,uint256)"
                    },
                    "errorInfo": "",
                    "fromAddress": "0x6ce72c3697b718e300fe4a409351ed338c215187",
                    "gasUsed": 54623,
                    "id": 0,
                    "methodDecoded": true,
                    "operation": "CALL",
                    "output": "0x0000000000000000000000000000000000000000000000000000000000000001",
                    "revert": false,
                    "revertMessage": "",
                    "selector": "0xa9059cbb",
                    "status": true,
                    "value": "0"
                },
                "nodeType": 0
            },
            "1": {
                "event": {
                    "contract": "0xab4e1802c61e12fd7b10a69a226f5d727c76a8aa",
                    "decodedLog": {
                        "name": "Transfer",
                        "params": [
                            {
                                "name": "from",
                                "type": "address",
                                "value": "0x6ce72c3697b718e300fe4a409351ed338c215187"
                            },
                            {
                                "name": "to",
                                "type": "address",
                                "value": "0x44d2824b448c931bd8e440023b878f90bb1f687a"
                            },
                            {
                                "decimalAvailable": true,
                                "name": "value",
                                "type": "uint256",
                                "value": "5,000,000,000,000,000,000"
                            }
                        ],
                        "signature": "Transfer(address,address,uint256)"
                    },
                    "id": 1,
                    "logData": "0x0000000000000000000000000000000000000000000000004563918244f40000",
                    "logDecoded": true,
                    "operation": "EVENT",
                    "revert": false,
                    "status": true,
                    "topics": [
                        "0xddf252ad1be2c89b69c2b068fc378daa952ba7f163c4a11628f55a4df523b3ef",
                        "0x0000000000000000000000006ce72c3697b718e300fe4a409351ed338c215187",
                        "0x00000000000000000000000044d2824b448c931bd8e440023b878f90bb1f687a"
                    ]
                },
                "nodeType": 1
            }
        },
        "gasFlame": [
            {
                "children": [
                    {
                        "children": [
                            {
                                "children": [],
                                "depth": 0,
                                "name": "Initial Gas",
                                "value": 23192
                            },
                            {
                                "children": [],
                                "depth": 0,
                                "name": "Executed Gas",
                                "value": 31431
                            }
                        ],
                        "depth": -1,
                        "name": "Actual Gas Used",
                        "value": 54623
                    },
                    {
                        "children": [],
                        "depth": -1,
                        "name": "Refunded Gas",
                        "value": 0
                    }
                ],
                "depth": -2,
                "name": "Total Gas",
                "value": 54623
            }
        ],
        "isConfirmed": true,
        "mainTrace": [
            {
                "children": [
                    {
                        "children": [
                            {
                                "children": [],
                                "depth": 1,
                                "id": 1,
                                "order": 1
                            }
                        ],
                        "depth": 0,
                        "id": 0,
                        "order": 0
                    }
                ],
                "depth": -1,
                "id": -1,
                "order": -1
            }
        ],
        "mainTraceNodeCount": 2,
        "parentIdMap": {
            "0": -1,
            "1": 0
        },
        "tidyTrace": [
            {
                "children": [
                    {
                        "children": [
                            {
                                "children": [],
                                "depth": 1,
                                "id": 1,
                                "order": 1
                            }
                        ],
                        "depth": 0,
                        "id": 0,
                        "order": 0
                    }
                ],
                "depth": -1,
                "id": -1,
                "order": -1
            }
        ],
        "tidyTraceNodeCount": 2
    },
    "state_change": {
        "stateChanges": [
            {
                "address": "0xab4e1802c61e12fd7b10a69a226f5d727c76a8aa",
                "erc": "",
                "slots": [
                    {
                        "current": "0x000000000000000000000000000000000000000000000005f68e8131ecf80000",
                        "key": "0xf4292c5a62d7c9aefc43490705fe97172ae0f4de2ecf182e51902db7c2879bac",
                        "prev": "0x0000000000000000000000000000000000000000000000063bf212b431ec0000"
                    },
                    {
                        "current": "0x0000000000000000000000000000000000000000000000004563918244f40000",
                        "key": "0x8d413829f58e24d1efa9c717757371cc309a2956e59a1b94925068b8040c4d8b",
                        "prev": "0x0000000000000000000000000000000000000000000000000000000000000000"
                    }
                ],
                "storageVariables": []
            }
        ]
    }
}