{
    "balance_change": {
        "balanceChanges": []
    },
    "profile": {
        "basic_info": {
            "baseFee": "33.763376442",
            "blockNumber": 13345467,
            "callData": "0xb52c05fe000000000000000000000000000000000000000000000000b469471f801400000000000000000000000000000000000000000000000000000000000064efd800",
            "debugEnable": true,
            "errorInfo": "",
            "eventCount": 3,
            "feeRecipient": "0xea674fdde714fd979de3edf0f56aa9716b898ec8",
            "formatValue": "0",
            "gasLimit": 621939,
            "gasPrice": "35.763376442",
            "gasUsed": 406834,
            "intTxnCount": 8,
            "internalRevert": false,
            "internalRevertMessage": "",
            "isContractCreation": false,
            "isFlashloan": false,
            "maxFee": "49.043106236",
            "nonce": 2,
            "overwritedBlockNumber": -1,
            "priorityFee": "2",
            "receiver": "0x5564585073d4ca3866931b0660df29921c4bbbcc",
            "revertMessage": "",
            "sender": "0xa4859e82da2687ab3cc2ccfc0b328cf9576f6df2",
            "simulationEnable": true,
            "sourceTxnHash": "0xbc0962aeca213b768386dfc7d21c4f3b6b9ed8f0e7e165e279d38a9ab95e5618",
            "status": true,
            "timestamp": "2021-10-03T09:42:03Z",
            "transactionFee": "0.014549757491404628",
            "txnHash": "0xbc0962aeca213b768386dfc7d21c4f3b6b9ed8f0e7e165e279d38a9ab95e5618",
            "txnIndex": 350,
            "type": 2,
            "value": "0"
        },
        "fund_flow": [],
        "token_infos": [
            {
                "address": "0xc02aaa39b223fe8d0a0e5c4f27ead9083c756cc2",
                "decimals": 18
            },
            {
                "address": "0xeeeeeeeeeeeeeeeeeeeeeeeeeeeeeeeeeeeeeeee",
                "decimals": 18
            }
        ]
    },
    "address_label": {
        "labels": [
            {
                "address": "0x5564585073d4ca3866931b0660df29921c4bbbcc",
                "label": "VeXBE"
            },
            {
                "address": "0x0000000000000000000000000000000000000003",
                "label": "Precompiled"
            },
            {
                "address": "0x0000000000000000000000000000000000000004",
                "label": "Precompiled"
            },
            {
                "address": "0x98e59fee7c9cf4552deacc1925f478af86f0e097",
                "label": "LockSubscription"
            },
            {
                "address": "0x0b1fa4b11edbcb6d35731549211d83c857ffbc0a",
                "label": "VotingStakingRewards"
            },
            {
                "address": "0x248c64eac8ac88ede0af69cb855f92a7c5d64ab5",
                "label": "BonusCampaign"
            },
            {
                "address": "0x0000000000000000000000000000000000000001",
                "label": "Precompiled"
            },
            {
                "address": "0x0000000000000000000000000000000000000002",
                "label": "Precompiled"
            },
            {
                "address": "0xeeeeeeeeeeeeeeeeeeeeeeeeeeeeeeeeeeeeeeee",
                "label": "Ether"
            }
        ]
    },
    "trace": {
        "accountLabels": null,
        "dataMap": {
            "-1": {
                "invocation": {
                    "address": "0xa4859e82da2687ab3cc2ccfc0b328cf9576f6df2",
                    "callData": "",
                    "decodedMethod": null,
                    "errorInfo": "",
                    "fromAddress": "",
                    "gasUsed": 0,
                    "id": -1,
                    "methodDecoded": false,
                    "operation": "",
                    "output": "",
                    "revert": false,
                    "revertMessage": "",
                    "selector": "",
                    "status": false,
                    "value": ""
                },
                "nodeType": 0
            },
            "0": {
                "invocation": {
                    "address": "0x5564585073d4ca3866931b0660df29921c4bbbcc",
                    "callData": "0x000000000000000000000000000000000000000000000000b469471f801400000000000000000000000000000000000000000000000000000000000064efd800",
                    "decodedMethod": {
                        "callParams": [
                            {
                                "name": "_value",
                                "type": "uint256",
                                "value": "13,000,000,000,000,000,000"
                            },
                            {
                                "name": "_unlockTime",
                                "type": "uint256",
                                "value": "1,693,440,000"
                            }
                        ],
                        "constructorArguments": "",
                        "name": "createLock",
                        "returnParams": [],
                        "signature": "createLock(uint256,uint256)"
                    },
                    "errorInfo": "",
                    "fromAddress": "0xa4859e82da2687ab3cc2ccfc0b328cf9576f6df2",
                    "gasUsed": 406834,
                    "id": 0,
                    "methodDecoded": true,
                    "operation": "CALL",
                    "output": "",
                    "revert": false,
                    "revertMessage": "",
                    "selector": "0xb52c05fe",
                    "status": true,
                    "value": "0"
                },
                "nodeType": 0
            },
            "1": {
                "invocation": {
                    "address": "0x0b1fa4b11edbcb6d35731549211d83c857ffbc0a",
                    "callData": "0x000000000000000000000000a4859e82da2687ab3cc2ccfc0b328cf9576f6df2",
                    "decodedMethod": {
                        "callParams": [
                            {
                                "name": "account",
                                "type": "address",
                                "value": "0xa4859e82da2687ab3cc2ccfc0b328cf9576f6df2"
                            }
                        ],
                        "constructorArguments": "",
                        "name": "balanceOf",
                        "returnParams": [
                            {
                                "decimalAvailable": true,
                                "name": "",
                                "type": "uint256",
                                "value": "13,000,000,000,000,000,000"
                            }
                        ],
                        "signature": "balanceOf(address)"
                    },
                    "errorInfo": "",
                    "fromAddress": "0x5564585073d4ca3866931b0660df29921c4bbbcc",
                    "gasUsed": 2955,
                    "id": 1,
                    "methodDecoded": true,
                    "operation": "STATICCALL",
                    "output": "0x000000000000000000000000000000000000000000000000b469471f80140000",
                    "revert": false,
                    "revertMessage": "",
                    "selector": "0x70a08231",
                    "status": true,
                    "value": "0"
                },
                "nodeType": 0
            },
            "10": {
                "event": {
                    "contract": "0x5564585073d4ca3866931b0660df29921c4bbbcc",
                    "decodedLog": {
                        "name": "Deposit",
                        "params": [
                            {
                                "name": "provider",
                                "type": "address",
                                "value": "0xa4859e82da2687ab3cc2ccfc0b328cf9576f6df2"
                            },
                            {
                                "name": "locktime",
                                "type": "uint256",
                                "value": "1,693,440,000"
                            },
                            {
                                "name": "value",
                                "type": "uint256",
                                "value": "13,000,000,000,000,000,000"
                            },
                            {
                                "name": "_type",
                                "type": "int128",
                                "value": "1"
                            },
                            {
                                "name": "ts",
                                "type": "uint256",
                                "value": "1,633,254,123"
                            }
                        ],
                        "signature": "Deposit(address,uint256,uint256,int128,uint256)"
                    },
                    "id": 10,
                    "logData": "0x000000000000000000000000000000000000000000000000b469471f8014000000000000000000000000000000000000000000000000000000000000000000010000000000000000000000000000000000000000000000000000000061597aeb",
                    "logDecoded": true,
                    "operation": "EVENT",
                    "revert": false,
                    "status": true,
                    "topics": [
                        "0x4566dfc29f6f11d13a418c26a02bef7c28bae749d4de47e4e6a7cddea6730d59",
                        "0x000000000000000000000000a4859e82da2687ab3cc2ccfc0b328cf9576f6df2",
                        "0x0000000000000000000000000000000000000000000000000000000064efd800"
                    ]
                },
                "nodeType": 1
            },
            "11": {
                "event": {
                    "contract": "0x5564585073d4ca3866931b0660df29921c4bbbcc",
                    "decodedLog": {
                        "name": "Supply",
                        "params": [
                            {
                                "name": "prevSupply",
                                "type": "uint256",
                                "value": "4,111,440,855,285,882,700,315"
                            },
                            {
                                "name": "supply",
                                "type": "uint256",
                                "value": "4,124,440,855,285,882,700,315"
                            }
                        ],
                        "signature": "Supply(uint256,uint256)"
                    },
                    "id": 11,
                    "logData": "0x0000000000000000000000000000000000000000000000dee1b42a890740421b0000000000000000000000000000000000000000000000df961d71a88754421b",
                    "logDecoded": true,
                    "operation": "EVENT",
                    "revert": false,
                    "status": true,
                    "topics": [
                        "0x5e2aa66efd74cce82b21852e317e5490d9ecc9e6bb953ae24d90851258cc2f5c"
                    ]
                },
                "nodeType": 1
            },
            "2": {
                "invocation": {
                    "address": "0x98e59fee7c9cf4552deacc1925f478af86f0e097",
                    "callData": "0x000000000000000000000000a4859e82da2687ab3cc2ccfc0b328cf9576f6df20000000000000000000000000000000000000000000000000000000061597aeb0000000000000000000000000000000000000000000000000000000064efd800000000000000000000000000000000000000000000000000b469471f80140000",
                    "decodedMethod": {
                        "callParams": [
                            {
                                "name": "account",
                                "type": "address",
                                "value": "0xa4859e82da2687ab3cc2ccfc0b328cf9576f6df2"
                            },
                            {
                                "name": "lockStart",
                                "type": "uint256",
                                "value": "1,633,254,123"
                            },
                            {
                                "name": "lockEnd",
                                "type": "uint256",
                                "value": "1,693,440,000"
                            },
                            {
                                "name": "amount",
                                "type": "uint256",
                                "value": "13,000,000,000,000,000,000"
                            }
                        ],
                        "constructorArguments": "",
                        "name": "processLockEvent",
                        "returnParams": [],
                        "signature": "processLockEvent(address,uint256,uint256,uint256)"
                    },
                    "errorInfo": "",
                    "fromAddress": "0x5564585073d4ca3866931b0660df29921c4bbbcc",
                    "gasUsed": 116484,
                    "id": 2,
                    "methodDecoded": true,
                    "operation": "CALL",
                    "output": "",
                    "revert": false,
                    "revertMessage": "",
                    "selector": "0x127d4d4d",
                    "status": true,
                    "value": "0"
                },
                "nodeType": 0
            },
            "3": {
                "invocation": {
                    "address": "0x248c64eac8ac88ede0af69cb855f92a7c5d64ab5",
                    "callData": "0x000000000000000000000000a4859e82da2687ab3cc2ccfc0b328cf9576f6df20000000000000000000000000000000000000000000000000000000061597aeb0000000000000000000000000000000000000000000000000000000064efd800000000000000000000000000000000000000000000000000b469471f80140000",
                    "decodedMethod": {
                        "callParams": [
                            {
                                "name": "account",
                                "type": "address",
                                "value": "0xa4859e82da2687ab3cc2ccfc0b328cf9576f6df2"
                            },
                            {
                                "name": "lockStart",
                                "type": "uint256",
                                "value": "1,633,254,123"
                            },
                            {
                                "name": "lockEnd",
                                "type": "uint256",
                                "value": "1,693,440,000"
                            },
                            {
                                "name": "amount",
                                "type": "uint256",
                                "value": "13,000,000,000,000,000,000"
                            }
                        ],
                        "constructorArguments": "",
                        "name": "processLockEvent",
                        "returnParams": [],
                        "signature": "processLockEvent(address,uint256,uint256,uint256)"
                    },
                    "errorInfo": "",
                    "fromAddress": "0x98e59fee7c9cf4552deacc1925f478af86f0e097",
                    "gasUsed": 104091,
                    "id": 3,
                    "methodDecoded": true,
                    "operation": "CALL",
                    "output": "",
                    "revert": false,
                    "revertMessage": "",
                    "selector": "0x127d4d4d",
                    "status": true,
                    "value": "0"
                },
                "nodeType": 0
            },
            "4": {
                "invocation": {
                    "address": "0x5564585073d4ca3866931b0660df29921c4bbbcc",
                    "callData": "0x",
                    "decodedMethod": {
                        "callParams": [],
                        "constructorArguments": "",
                        "name": "MAXTIME",
                        "returnParams": [
                            {
                                "name": "",
                                "type": "uint256",
                                "value": "60,480,000"
                            }
                        ],
                        "signature": "MAXTIME()"
                    },
                    "errorInfo": "",
                    "fromAddress": "0x248c64eac8ac88ede0af69cb855f92a7c5d64ab5",
                    "gasUsed": 287,
                    "id": 4,
                    "methodDecoded": true,
                    "operation": "STATICCALL",
                    "output": "0x00000000000000000000000000000000000000000000000000000000039ada00",
                    "revert": false,
                    "revertMessage": "",
                    "selector": "0xee00ef3a",
                    "status": true,
                    "value": "0"
                },
                "nodeType": 0
            },
            "5": {
                "invocation": {
                    "address": "0x5564585073d4ca3866931b0660df29921c4bbbcc",
                    "callData": "0x000000000000000000000000a4859e82da2687ab3cc2ccfc0b328cf9576f6df2",
                    "decodedMethod": {
                        "callParams": [
                            {
                                "name": "addr",
                                "type": "address",
                                "value": "0xa4859e82da2687ab3cc2ccfc0b328cf9576f6df2"
                            }
                        ],
                        "constructorArguments": "",
                        "name": "lockedEnd",
                        "returnParams": [
                            {
                                "name": "",
                                "type": "uint256",
                                "value": "1,693,440,000"
                            }
                        ],
                        "signature": "lockedEnd(address)"
                    },
                    "errorInfo": "",
                    "fromAddress": "0x248c64eac8ac88ede0af69cb855f92a7c5d64ab5",
                    "gasUsed": 538,
                    "id": 5,
                    "methodDecoded": true,
                    "operation": "STATICCALL",
                    "output": "0x0000000000000000000000000000000000000000000000000000000064efd800",
                    "revert": false,
                    "revertMessage": "",
                    "selector": "0x4deafcae",
                    "status": true,
                    "value": "0"
                },
                "nodeType": 0
            },
            "6": {
                "invocation": {
                    "address": "0x5564585073d4ca3866931b0660df29921c4bbbcc",
                    "callData": "0x000000000000000000000000a4859e82da2687ab3cc2ccfc0b328cf9576f6df20000000000000000000000000000000000000000000000000000000000cba2bb",
                    "decodedMethod": {
                        "callParams": [
                            {
                                "name": "addr",
                                "type": "address",
                                "value": "0xa4859e82da2687ab3cc2ccfc0b328cf9576f6df2"
                            },
                            {
                                "name": "_block",
                                "type": "uint256",
                                "value": "13,345,467"
                            }
                        ],
                        "constructorArguments": "",
                        "name": "balanceOfAt",
                        "returnParams": [
                            {
                                "name": "",
                                "type": "uint256",
                                "value": "12,936,779,117,058,078,519"
                            }
                        ],
                        "signature": "balanceOfAt(address,uint256)"
                    },
                    "errorInfo": "",
                    "fromAddress": "0x248c64eac8ac88ede0af69cb855f92a7c5d64ab5",
                    "gasUsed": 15260,
                    "id": 6,
                    "methodDecoded": true,
                    "operation": "STATICCALL",
                    "output": "0x000000000000000000000000000000000000000000000000b388ac10a1f03737",
                    "revert": false,
                    "revertMessage": "",
                    "selector": "0x4ee2cd7e",
                    "status": true,
                    "value": "0"
                },
                "nodeType": 0
            },
            "7": {
                "invocation": {
                    "address": "0x5564585073d4ca3866931b0660df29921c4bbbcc",
                    "callData": "0x",
                    "decodedMethod": {
                        "callParams": [],
                        "constructorArguments": "",
                        "name": "MAXTIME",
                        "returnParams": [
                            {
                                "name": "",
                                "type": "uint256",
                                "value": "60,480,000"
                            }
                        ],
                        "signature": "MAXTIME()"
                    },
                    "errorInfo": "",
                    "fromAddress": "0x248c64eac8ac88ede0af69cb855f92a7c5d64ab5",
                    "gasUsed": 287,
                    "id": 7,
                    "methodDecoded": true,
                    "operation": "STATICCALL",
                    "output": "0x00000000000000000000000000000000000000000000000000000000039ada00",
                    "revert": false,
                    "revertMessage": "",
                    "selector": "0xee00ef3a",
                    "status": true,
                    "value": "0"
                },
                "nodeType": 0
            },
            "8": {
                "invocation": {
                    "address": "0x5564585073d4ca3866931b0660df29921c4bbbcc",
                    "callData": "0x000000000000000000000000a4859e82da2687ab3cc2ccfc0b328cf9576f6df2",
                    "decodedMethod": {
                        "callParams": [
                            {
                                "name": "addr",
                                "type": "address",
                                "value": "0xa4859e82da2687ab3cc2ccfc0b328cf9576f6df2"
                            }
                        ],
                        "constructorArguments": "",
                        "name": "lockedEnd",
                        "returnParams": [
                            {
                                "name": "",
                                "type": "uint256",
                                "value": "1,693,440,000"
                            }
                        ],
                        "signature": "lockedEnd(address)"
                    },
                    "errorInfo": "",
                    "fromAddress": "0x248c64eac8ac88ede0af69cb855f92a7c5d64ab5",
                    "gasUsed": 538,
                    "id": 8,
                    "methodDecoded": true,
                    "operation": "STATICCALL",
                    "output": "0x0000000000000000000000000000000000000000000000000000000064efd800",
                    "revert": false,
                    "revertMessage": "",
                    "selector": "0x4deafcae",
                    "status": true,
                    "value": "0"
                },
                "nodeType": 0
            },
            "9": {
                "event": {
                    "contract": "0x248c64eac8ac88ede0af69cb855f92a7c5d64ab5",
                    "decodedLog": {
                        "name": "Staked",
                        "params": [
                            {
                                "name": "user",
                                "type": "address",
                                "value": "0xa4859e82da2687ab3cc2ccfc0b328cf9576f6df2"
                            },
                            {
                                "name": "amount",
                                "type": "uint256",
                                "value": "12,936,779,117,058,078,519"
                            }
                        ],
                        "signature": "Staked(address,uint256)"
                    },
                    "id": 9,
                    "logData": "0x000000000000000000000000000000000000000000000000b388ac10a1f03737",
                    "logDecoded": true,
                    "operation": "EVENT",
                    "revert": false,
                    "status": true,
                    "topics": [
                        "0x9e71bc8eea02a63969f509818f2dafb9254532904319f9dbda79b67bd34a5f3d",
                        "0x000000000000000000000000a4859e82da2687ab3cc2ccfc0b328cf9576f6df2"
                    ]
                },
                "nodeType": 1
            }
        },
        "gasFlame": [
            {
                "children": [
                    {
                        "children": [
                            {
                                "children": [],
                                "depth": 0,
                                "name": "Initial Gas",
                                "value": 21428
                            },
                            {
                                "children": [
                                    {
                                        "children": [],
                                        "depth": 1,
                                        "name": "balanceOf",
                                        "value": 2955
                                    },
                                    {
                                        "children": [
                                            {
                                                "children": [
                                                    {
                                                        "children": [],
                                                        "depth": 3,
                                                        "name": "MAXTIME",
                                                        "value": 287
                                                    },
                                                    {
                                                        "children": [],
                                                        "depth": 3,
                                                        "name": "lockedEnd",
                                                        "value": 538
                                                    },
                                                    {
                                                        "children": [],
                                                        "depth": 3,
                                                        "name": "balanceOfAt",
                                                        "value": 15260
                                                    },
                                                    {
                                                        "children": [],
                                                        "depth": 3,
                                                        "name": "MAXTIME",
                                                        "value": 287
                                                    },
                                                    {
                                                        "children": [],
                                                        "depth": 3,
                                                        "name": "lockedEnd",
                                                        "value": 538
                                                    }
                                                ],
                                                "depth": 2,
                                                "name": "processLockEvent",
                                                "value": 104091
                                            }
                                        ],
                                        "depth": 1,
                                        "name": "processLockEvent",
                                        "value": 116484
                                    }
                                ],
                                "depth": 0,
                                "name": "Executed Gas",
                                "value": 391006
                            }
                        ],
                        "depth": -1,
                        "name": "Actual Gas Used",
                        "value": 406834
                    },
                    {
                        "children": [],
                        "depth": -1,
                        "name": "Refunded Gas",
                        "value": 5600
                    }
                ],
                "depth": -2,
                "name": "Total Gas",
                "value": 412434
            }
        ],
        "isConfirmed": true,
        "mainTrace": [
            {
                "children": [
                    {
                        "children": [
                            {
                                "children": [],
                                "depth": 1,
                                "id": 1,
                                "order": 1
                            },
                            {
                                "children": [
                                    {
                                        "children": [
                                            {
                                                "children": [],
                                                "depth": 3,
                                                "id": 4,
                                                "order": 4
                                            },
                                            {
                                                "children": [],
                                                "depth": 3,
                                                "id": 5,
                                                "order": 5
                                            },
                                            {
                                                "children": [],
                                                "depth": 3,
                                                "id": 6,
                                                "order": 6
                                            },
                                            {
                                                "children": [],
                                                "depth": 3,
                                                "id": 7,
                                                "order": 7
                                            },
                                            {
                                                "children": [],
                                                "depth": 3,
                                                "id": 8,
                                                "order": 8
                                            },
                                            {
                                                "children": [],
                                                "depth": 3,
                                                "id": 9,
                                                "order": 9
                                            }
                                        ],
                                        "depth": 2,
                                        "id": 3,
                                        "order": 3
                                    }
                                ],
                                "depth": 1,
                                "id": 2,
                                "order": 2
                            },
                            {
                                "children": [],
                                "depth": 1,
                                "id": 10,
                                "order": 10
                            },
                            {
                                "children": [],
                                "depth": 1,
                                "id": 11,
                                "order": 11
                            }
                        ],
                        "depth": 0,
                        "id": 0,
                        "order": 0
                    }
                ],
                "depth": -1,
                "id": -1,
                "order": -1
            }
        ],
        "mainTraceNodeCount": 12,
        "parentIdMap": {
            "0": -1,
            "1": 0,
            "10": 0,
            "11": 0,
            "2": 0,
            "3": 2,
            "4": 3,
            "5": 3,
            "6": 3,
            "7": 3,
            "8": 3,
            "9": 3
        },
        "tidyTrace": [
            {
                "children": [
                    {
                        "children": [
                            {
                                "children": [
                                    {
                                        "children": [
                                            {
                                                "children": [],
                                                "depth": 3,
                                                "id": 9,
                                                "order": 9
                                            }
                                        ],
                                        "depth": 2,
                                        "id": 3,
                                        "order": 3
                                    }
                                ],
                                "depth": 1,
                                "id": 2,
                                "order": 2
                            },
                            {
                                "children": [],
                                "depth": 1,
                                "id": 10,
                                "order": 10
                            },
                            {
                                "children": [],
                                "depth": 1,
                                "id": 11,
                                "order": 11
                            }
                        ],
                        "depth": 0,
                        "id": 0,
                        "order": 0
                    }
                ],
                "depth": -1,
                "id": -1,
                "order": -1
            }
        ],
        "tidyTraceNodeCount": 6
    },
    "state_change": {
        "stateChanges": [
            {
                "address": "0x248c64eac8ac88ede0af69cb855f92a7c5d64ab5",
                "erc": "",
                "slots": [
                    {
                        "current": "0x0000000000000000000000000000000000000000000000b3494da68ccdb67e7a",
                        "key": "0x000000000000000000000000000000000000000000000000000000000000000c",
                        "prev": "0x0000000000000000000000000000000000000000000000b295c4fa7c2bc64743"
                    },
                    {
                        "current": "0x000000000000000000000000000000000000000000000000b388ac10a1f03737",
                        "key": "0x75f96a214f917b4e9002e0fdba6b37553a37862773e9ae0fc1e1233b187578b4",
                        "prev": "0x0000000000000000000000000000000000000000000000000000000000000000"
                    },
                    {
                        "current": "0x0000000000000000000000000000000000000000000000000000000000000001",
                        "key": "0x7cf4e063cd4f34ece095b1c675a83727b1fb3589c8e936efafc0fa2553d9c213",
                        "prev": "0x0000000000000000000000000000000000000000000000000000000000000000"
                    }
                ],
                "storageVariables": [
                    {
                        "name": "_totalSupply",
                        "type": "uint256",
                        "value": {
                            "current": "3307249250255662120570",
                            "prev": "3294312471138604042051",
                            "typeTag": 1
                        }
                    },
                    {
                        "name": "_balances",
                        "type": "mapping(address => uint256)",
                        "value": {
                            "pairs": [
                                {
                                    "key": "0xa4859e82da2687ab3cc2ccfc0b328cf9576f6df2",
                                    "value": {
                                        "current": "12936779117058078519",
                                        "prev": "0",
                                        "typeTag": 1
                                    }
                                }
                            ],
                            "typeTag": 4
                        }
                    },
                    {
                        "name": "registered",
                        "type": "mapping(address => bool)",
                        "value": {
                            "pairs": [
                                {
                                    "key": "0xa4859e82da2687ab3cc2ccfc0b328cf9576f6df2",
                                    "value": {
                                        "current": "true",
                                        "prev": "false",
                                        "typeTag": 1
                                    }
                                }
                            ],
                            "typeTag": 4
                        }
                    }
                ]
            },
            {
                "address": "0x5564585073d4ca3866931b0660df29921c4bbbcc",
                "erc": "",
                "slots": [
                    {
                        "current": "0x0000000000000000000000320bd84e1b0000000000000000b388ac10a1f03737",
                        "key": "0x36ae682b22426a5f31c671363a74728b9f958e8ff00f3585c5e0ec9a4eda4120",
                        "prev": "0x0000000000000000000000000000000000000000000000000000000000000000"
                    },
                    {
                        "current": "0x0000000000000000000000000000000000000000000000000000000000cba2bb",
                        "key": "0x36ae682b22426a5f31c671363a74728b9f958e8ff00f3585c5e0ec9a4eda4122",
                        "prev": "0x0000000000000000000000000000000000000000000000000000000000000000"
                    },
                    {
                        "current": "0x000000000000000000000000000000000000000000000000b469471f80140000",
                        "key": "0xff1f6279f6dd2ef810361d35757147acd897af184228154141c89211b626583b",
                        "prev": "0x0000000000000000000000000000000000000000000000000000000000000000"
                    },
                    {
                        "current": "0x0000000000000000000000000000000000000000000000000000000061597aeb",
                        "key": "0x97fbbeaa789041c35abf8785316a14aace2a45cfc2dee0f97bf10f70bcedde59",
                        "prev": "0x0000000000000000000000000000000000000000000000000000000000000000"
                    },
                    {
                        "current": "0x0000000000000000000000000000000000000000000000000000000061597aeb",
                        "key": "0x8e97f030ecf413ee0d190f4d816fdbf2292256241d153c802a447a768843b8d8",
                        "prev": "0x0000000000000000000000000000000000000000000000000000000000000000"
                    },
                    {
                        "current": "0x0000000000000000000000000000000000000000000000df961d71a88754421b",
                        "key": "0x0000000000000000000000000000000000000000000000000000000000000002",
                        "prev": "0x0000000000000000000000000000000000000000000000dee1b42a890740421b"
                    },
                    {
                        "current": "0x0000000000000000000000000000000000000000000000000000000064efd800",
                        "key": "0xff1f6279f6dd2ef810361d35757147acd897af184228154141c89211b626583c",
                        "prev": "0x0000000000000000000000000000000000000000000000000000000000000000"
                    },
                    {
                        "current": "0x000000000000000000003e02105fcb6900000000000000ccf291617171a5ad1d",
                        "key": "0x97fbbeaa789041c35abf8785316a14aace2a45cfc2dee0f97bf10f70bcedde58",
                        "prev": "0x0000000000000000000000000000000000000000000000000000000000000000"
                    },
                    {
                        "current": "0x000000000000000000000000000000000000000000000000000000000000006e",
                        "key": "0x0000000000000000000000000000000000000000000000000000000000000005",
                        "prev": "0x000000000000000000000000000000000000000000000000000000000000006d"
                    },
                    {
                        "current": "0x0000000000000000000000000000000000000000000000000000000000cba2bb",
                        "key": "0x97fbbeaa789041c35abf8785316a14aace2a45cfc2dee0f97bf10f70bcedde5a",
                        "prev": "0x0000000000000000000000000000000000000000000000000000000000000000"
                    },
                    {
                        "current": "0x00000000000000000000000000000000fffffffffffffffffffffde93a05fd5c",
                        "key": "0x53072b1b0686b2c1679330d64008e65ad87459388f2dd30d99511342c83604c2",
                        "prev": "0x00000000000000000000000000000000fffffffffffffffffffffe1b45de4b77"
                    },
                    {
                        "current": "0x0000000000000000000000000000000000000000000000000000000061597aeb",
                        "key": "0x36ae682b22426a5f31c671363a74728b9f958e8ff00f3585c5e0ec9a4eda4121",
                        "prev": "0x0000000000000000000000000000000000000000000000000000000000000000"
                    },
                    {
                        "current": "0x0000000000000000000000000000000000000000000000000000000000000001",
                        "key": "0x051bfddfa3005cdbf12cbd061085fefe7be54addb1dd5a6e01afc662b7d04bef",
                        "prev": "0x0000000000000000000000000000000000000000000000000000000000000000"
                    }
                ],
                "storageVariables": [
                    {
                        "name": "pointHistory",
                        "type": "mapping(uint256 => struct VeXBE.Point)",
                        "value": {
                            "pairs": [
                                {
                                    "key": "110",
                                    "value": {
                                        "fields": [
                                            {
                                                "name": "bias",
                                                "type": "int128",
                                                "value": {
                                                    "current": "3780614649805416017181",
                                                    "prev": "0",
                                                    "typeTag": 1
                                                }
                                            },
                                            {
                                                "name": "slope",
                                                "type": "int128",
                                                "value": {
                                                    "current": "68178585570153",
                                                    "prev": "0",
                                                    "typeTag": 1
                                                }
                                            },
                                            {
                                                "name": "ts",
                                                "type": "uint256",
                                                "value": {
                                                    "current": "1633254123",
                                                    "prev": "0",
                                                    "typeTag": 1
                                                }
                                            },
                                            {
                                                "name": "blk",
                                                "type": "uint256",
                                                "value": {
                                                    "current": "13345467",
                                                    "prev": "0",
                                                    "typeTag": 1
                                                }
                                            }
                                        ],
                                        "typeTag": 3
                                    }
                                }
                            ],
                            "typeTag": 4
                        }
                    },
                    {
                        "name": "userPointEpoch",
                        "type": "mapping(address => uint256)",
                        "value": {
                            "pairs": [
                                {
                                    "key": "0xa4859e82da2687ab3cc2ccfc0b328cf9576f6df2",
                                    "value": {
                                        "current": "1",
                                        "prev": "0",
                                        "typeTag": 1
                                    }
                                }
                            ],
                            "typeTag": 4
                        }
                    },
                    {
                        "name": "slopeChanges",
                        "type": "mapping(uint256 => int128)",
                        "value": {
                            "pairs": [
                                {
                                    "key": "1693440000",
                                    "value": {
                                        "current": "-2296834032292",
                                        "prev": "-2081886942345",
                                        "typeTag": 1
                                    }
                                }
                            ],
                            "typeTag": 4
                        }
                    },
                    {
                        "name": "userPointHistory",
                        "type": "mapping(address => mapping(uint256 => struct VeXBE.Point))",
                        "value": {
                            "pairs": [
                                {
                                    "key": "0xa4859e82da2687ab3cc2ccfc0b328cf9576f6df2",
                                    "value": {
                                        "pairs": [
                                            {
                                                "key": "1",
                                                "value": {
                                                    "fields": [
                                                        {
                                                            "name": "bias",
                                                            "type": "int128",
                                                            "value": {
                                                                "current": "12936779117058078519",
                                                                "prev": "0",
                                                                "typeTag": 1
                                                            }
                                                        },
                                                        {
                                                            "name": "slope",
                                                            "type": "int128",
                                                            "value": {
                                                                "current": "214947089947",
                                                                "prev": "0",
                                                                "typeTag": 1
                                                            }
                                                        },
                                                        {
                                                            "name": "ts",
                                                            "type": "uint256",
                                                            "value": {
                                                                "current": "1633254123",
                                                                "prev": "0",
                                                                "typeTag": 1
                                                            }
                                                        },
                                                        {
                                                            "name": "blk",
                                                            "type": "uint256",
                                                            "value": {
                                                                "current": "13345467",
                                                                "prev": "0",
                                                                "typeTag": 1
                                                            }
                                                        }
                                                    ],
                                                    "typeTag": 3
                                                }
                                            }
                                        ],
                                        "typeTag": 4
                                    }
                                }
                            ],
                            "typeTag": 4
                        }
                    },
                    {
                        "name": "supply",
                        "type": "uint256",
                        "value": {
                            "current": "4124440855285882700315",
                            "prev": "4111440855285882700315",
                            "typeTag": 1
                        }
                    },
                    {
                        "name": "epoch",
                        "type": "uint256",
                        "value": {
                            "current": "110",
                            "prev": "109",
                            "typeTag": 1
                        }
                    },
                    {
                        "name": "_lockStarts",
                        "type": "mapping(address => uint256)",
                        "value": {
                            "pairs": [
                                {
                                    "key": "0xa4859e82da2687ab3cc2ccfc0b328cf9576f6df2",
                                    "value": {
                                        "current": "1633254123",
                                        "prev": "0",
                                        "typeTag": 1
                                    }
                                }
                            ],
                            "typeTag": 4
                        }
                    },
                    {
                        "name": "locked",
                        "type": "mapping(address => struct VeXBE.LockedBalance)",
                        "value": {
                            "pairs": [
                                {
                                    "key": "0xa4859e82da2687ab3cc2ccfc0b328cf9576f6df2",
                                    "value": {
                                        "fields": [
                                            {
                                                "name": "amount",
                                                "type": "int128",
                                                "value": {
                                                    "current": "13000000000000000000",
                                                    "prev": "0",
                                                    "typeTag": 1
                                                }
                                            },
                                            {
                                                "name": "end",
                                                "type": "uint256",
                                                "value": {
                                                    "current": "1693440000",
                                                    "prev": "0",
                                                    "typeTag": 1
                                                }
                                            }
                                        ],
                                        "typeTag": 3
                                    }
                                }
                            ],
                            "typeTag": 4
                        }
                    }
                ]
            }
        ]
    }
}