{
    "balance_change": {
        "balanceChanges": []
    },
    "profile": {
        "basic_info": {
            "baseFee": "",
            "blockNumber": 4417951,
            "callData": "0x4bb77d9d00000000000000000000000000000000000000000000000000000000000000200000000000000000000000000000000000000000000000000000000000000028aaaebeba3810b1e6b70781f14b2d72c1cb89c0b2b320c43bb67ff79f562f5ff400000000000000000000000000000000000000000000001b1ae4d6e2ef500000e98e2830be1a7e4156d656a7505e65d08c67660dc618072422e9c78053c261e90000000000000000000000000000000000000000000001f929dd09631b885c00fdd18b7aa4e2107a72f3310e2403b9bd7ace4a9f01431002607b3b01430ce75d00000000000000000000000000000000000000000000000526f29542afa1e000279c8d120dfdb1ac051dfcfe9d373ee1d16624187fd2ed07d8817b7f9da2f07b000000000000000000000000000000000000000000000019ee3f4b5aa5d8d000eadf11d2ba45e7887d539b397ca436e3789fd0fce1853a6c2638148b7ed570cc000000000000000000000000000000000000000000000000bce34b08cc1c5000e87812529b4000d766aec50a1a984790593976f56e22fb85d5da4b019aa40e67000000000000000000000000000000000000000000000000eaa2b994d61100008b21758feaef617b6cd3aee4f30364f0287b0431b340f76fb21150ccbd700c660000000000000000000000000000000000000000000000002a56a2fbcffc500065d846b10b976259b1fbc3e9fba48b1be66bb2dbe08b858bdc52964e054cbf2e000000000000000000000000000000000000000000000000049713eb8aaf300091a08135082b0a28b4ad8ecc7749a009e0408743a9d1cdf34dd6a58d60ee95040000000000000000000000000000000000000000000000018057ecfbdb6610004e83d2e9b055f813bdc781f90b2d10c9b9d12de3bb4a4c78bc533ae84e4eea45000000000000000000000000000000000000000000000000b7e174cc69ed00003ec6762bdf44eb044276fec7d12c1bb640cb139cfd533f93eeebba5414f5db550000000000000000000000000000000000000000000000000389f12621b980007f6eba349e0d664091510cc582465ecc130017c86d4c6119a34ae40e19d4a52c0000000000000000000000000000000000000000000000000758b335d4bfa000a7176ea9ccab4e661d15bc0b1e10ef9f3120087c1d1c72680a3a84c988ac712400000000000000000000000000000000000000000000000673ac7975ec8c30007d061b4a42df72b2fc5e85538922d3740ef4d481b04a89b98206cedb360379a800000000000000000000000000000000000000000000000003201fd96916f00010e95f355d033982a91da3f7d2b412395ab9faf178843c62935e3401867865d3000000000000000000000000000000000000000000000000b46919a5f7d6e0009ee187a325c80a9ca820b4f297a58770bf5a85fede3756f8e7e9d14ff37d7b660000000000000000000000000000000000000000000000001ca4d628cedaa000c157673705e9a7d6253fb36c51e0b2c9193b9b560fd6d145bd19ecdf6b3a873b00000000000000000000000000000000000000000000001cddec08b1af82000049b019f3320b92b2244c14d064de7e7b09dbc4c649e8650e7aa17e5ce7253294000000000000000000000000000000000000000000000000f9d76148a0ca5000aeb724422620edb430dcaf22aeeff2e9388a578c02754cd08699652fb76035c700000000000000000000000000000000000000000000000004ab663ad2ccb0008b1a1d9c2b109e527c9134b25b1a1833b16b6594f92daa9f6d9b7a6024bce9d0000000000000000000000000000000000000000000000000170d848af9bf5400",
            "debugEnable": true,
            "errorInfo": "",
            "eventCount": 20,
            "feeRecipient": "0xb2930b35844a230f00e51431acae96fe543a0347",
            "formatValue": "0",
            "gasLimit": 500000,
            "gasPrice": "20",
            "gasUsed": 216868,
            "intTxnCount": 0,
            "internalRevert": false,
            "internalRevertMessage": "",
            "isContractCreation": false,
            "isFlashloan": false,
            "maxFee": "",
            "nonce": 30,
            "overwritedBlockNumber": -1,
            "priorityFee": "",
            "receiver": "0x0247828dab926b0f78ac4f579c586390a13e6ba7",
            "revertMessage": "",
            "sender": "0x6c0dbbf26be3a63c06a3630b2128dd5a95f157b2",
            "simulationEnable": true,
            "sourceTxnHash": "0xbd97485f98d268ec1ee55859bed8c01d24a77203c4800cc6b2189e9ebac68055",
            "status": true,
            "timestamp": "2017-10-24T02:00:25Z",
            "transactionFee": "0.00433736",
            "txnHash": "0xbd97485f98d268ec1ee55859bed8c01d24a77203c4800cc6b2189e9ebac68055",
            "txnIndex": 70,
            "type": 0,
            "value": "0"
        },
        "fund_flow": [],
        "token_infos": [
            {
                "address": "0xc02aaa39b223fe8d0a0e5c4f27ead9083c756cc2",
                "decimals": 18
            },
            {
                "address": "0xeeeeeeeeeeeeeeeeeeeeeeeeeeeeeeeeeeeeeeee",
                "decimals": 18
            }
        ]
    },
    "address_label": {
        "labels": [
            {
                "address": "0x0000000000000000000000000000000000000002",
                "label": "Precompiled"
            },
            {
                "address": "0x0000000000000000000000000000000000000003",
                "label": "Precompiled"
            },
            {
                "address": "0x0000000000000000000000000000000000000004",
                "label": "Precompiled"
            },
            {
                "address": "0xeeeeeeeeeeeeeeeeeeeeeeeeeeeeeeeeeeeeeeee",
                "label": "Ether"
            },
            {
                "address": "0x0000000000000000000000000000000000000001",
                "label": "Precompiled"
            }
        ]
    },
    "trace": {
        "accountLabels": null,
        "dataMap": {
            "-1": {
                "invocation": {
                    "address": "0x6c0dbbf26be3a63c06a3630b2128dd5a95f157b2",
                    "callData": "",
                    "decodedMethod": null,
                    "errorInfo": "",
                    "fromAddress": "",
                    "gasUsed": 0,
                    "id": -1,
                    "methodDecoded": false,
                    "operation": "",
                    "output": "",
                    "revert": false,
                    "revertMessage": "",
                    "selector": "",
                    "status": false,
                    "value": ""
                },
                "nodeType": 0
            },
            "0": {
                "invocation": {
                    "address": "0x0247828dab926b0f78ac4f579c586390a13e6ba7",
                    "callData": "0x00000000000000000000000000000000000000000000000000000000000000200000000000000000000000000000000000000000000000000000000000000028aaaebeba3810b1e6b70781f14b2d72c1cb89c0b2b320c43bb67ff79f562f5ff400000000000000000000000000000000000000000000001b1ae4d6e2ef500000e98e2830be1a7e4156d656a7505e65d08c67660dc618072422e9c78053c261e90000000000000000000000000000000000000000000001f929dd09631b885c00fdd18b7aa4e2107a72f3310e2403b9bd7ace4a9f01431002607b3b01430ce75d00000000000000000000000000000000000000000000000526f29542afa1e000279c8d120dfdb1ac051dfcfe9d373ee1d16624187fd2ed07d8817b7f9da2f07b000000000000000000000000000000000000000000000019ee3f4b5aa5d8d000eadf11d2ba45e7887d539b397ca436e3789fd0fce1853a6c2638148b7ed570cc000000000000000000000000000000000000000000000000bce34b08cc1c5000e87812529b4000d766aec50a1a984790593976f56e22fb85d5da4b019aa40e67000000000000000000000000000000000000000000000000eaa2b994d61100008b21758feaef617b6cd3aee4f30364f0287b0431b340f76fb21150ccbd700c660000000000000000000000000000000000000000000000002a56a2fbcffc500065d846b10b976259b1fbc3e9fba48b1be66bb2dbe08b858bdc52964e054cbf2e000000000000000000000000000000000000000000000000049713eb8aaf300091a08135082b0a28b4ad8ecc7749a009e0408743a9d1cdf34dd6a58d60ee95040000000000000000000000000000000000000000000000018057ecfbdb6610004e83d2e9b055f813bdc781f90b2d10c9b9d12de3bb4a4c78bc533ae84e4eea45000000000000000000000000000000000000000000000000b7e174cc69ed00003ec6762bdf44eb044276fec7d12c1bb640cb139cfd533f93eeebba5414f5db550000000000000000000000000000000000000000000000000389f12621b980007f6eba349e0d664091510cc582465ecc130017c86d4c6119a34ae40e19d4a52c0000000000000000000000000000000000000000000000000758b335d4bfa000a7176ea9ccab4e661d15bc0b1e10ef9f3120087c1d1c72680a3a84c988ac712400000000000000000000000000000000000000000000000673ac7975ec8c30007d061b4a42df72b2fc5e85538922d3740ef4d481b04a89b98206cedb360379a800000000000000000000000000000000000000000000000003201fd96916f00010e95f355d033982a91da3f7d2b412395ab9faf178843c62935e3401867865d3000000000000000000000000000000000000000000000000b46919a5f7d6e0009ee187a325c80a9ca820b4f297a58770bf5a85fede3756f8e7e9d14ff37d7b660000000000000000000000000000000000000000000000001ca4d628cedaa000c157673705e9a7d6253fb36c51e0b2c9193b9b560fd6d145bd19ecdf6b3a873b00000000000000000000000000000000000000000000001cddec08b1af82000049b019f3320b92b2244c14d064de7e7b09dbc4c649e8650e7aa17e5ce7253294000000000000000000000000000000000000000000000000f9d76148a0ca5000aeb724422620edb430dcaf22aeeff2e9388a578c02754cd08699652fb76035c700000000000000000000000000000000000000000000000004ab663ad2ccb0008b1a1d9c2b109e527c9134b25b1a1833b16b6594f92daa9f6d9b7a6024bce9d0000000000000000000000000000000000000000000000000170d848af9bf5400",
                    "decodedMethod": {
                        "callParams": [
                            {
                                "name": "data",
                                "type": "uint256[]",
                                "value": [
                                    "77,201,932,000,687,051,421,874,801,696,342,701,541,816,747,065,578,039,511,607,412,978,553,675,800,564",
                                    "500,000,000,000,000,000,000",
                                    "105,640,063,387,051,144,792,550,451,261,497,903,460,441,457,163,918,809,975,891,088,748,950,929,433,065",
                                    "9,318,622,334,870,000,000,000",
                                    "114,805,384,377,324,989,184,844,141,703,382,538,000,547,027,004,383,660,126,484,765,048,213,793,990,493",
                                    "95,040,190,000,000,000,000",
                                    "17,916,802,869,840,178,042,942,795,247,092,822,320,455,131,622,678,360,136,634,860,978,380,264,894,587",
                                    "478,336,125,000,000,000,000",
                                    "106,235,336,474,823,453,389,486,158,446,226,608,119,708,043,014,528,268,593,371,342,719,108,708,135,116",
                                    "13,610,805,000,000,000,000",
                                    "105,148,728,977,590,811,792,299,986,528,418,929,969,561,269,177,981,154,754,864,512,955,721,607,024,231",
                                    "16,907,280,000,000,000,000",
                                    "62,930,603,290,548,214,360,757,485,426,029,703,931,018,591,937,923,776,377,076,887,391,711,861,410,918",
                                    "3,050,805,000,000,000,000",
                                    "46,065,724,568,277,582,714,371,634,636,229,214,882,644,068,633,316,683,630,138,143,291,897,616,842,542",
                                    "330,755,000,000,000,000",
                                    "65,868,950,329,954,280,980,812,202,185,524,770,132,900,765,951,430,137,347,030,913,856,325,200,811,268",
                                    "27,694,865,000,000,000,000",
                                    "35,513,314,821,951,475,054,851,555,170,217,897,793,407,390,783,822,877,904,061,693,422,504,457,988,677",
                                    "13,250,000,000,000,000,000",
                                    "28,394,047,919,848,256,427,149,253,019,909,646,962,370,008,691,636,206,187,571,942,474,778,999,642,965",
                                    "255,000,000,000,000,000",
                                    "57,639,370,090,583,037,622,785,570,848,051,468,323,393,488,574,738,526,596,694,542,480,529,698,366,764",
                                    "529,370,000,000,000,000",
                                    "75,577,646,965,778,702,210,756,430,258,267,198,248,749,667,822,992,505,601,252,156,784,431,126,573,348",
                                    "119,015,635,000,000,000,000",
                                    "56,549,895,504,526,918,010,657,286,650,547,708,138,328,995,034,682,706,651,001,135,417,947,412,724,136",
                                    "225,215,000,000,000,000",
                                    "7,649,338,048,001,113,894,542,074,868,430,321,821,189,059,177,274,049,283,333,058,549,351,961,880,019",
                                    "12,999,950,000,000,000,000",
                                    "71,863,906,799,938,196,381,140,519,696,111,095,937,260,546,502,802,581,530,182,990,928,692,700,347,238",
                                    "2,064,010,000,000,000,000",
                                    "87,450,807,834,499,600,315,753,851,786,926,623,040,752,440,383,855,326,797,789,155,313,141,933,573,947",
                                    "532,500,000,000,000,000,000",
                                    "33,329,982,130,175,527,327,088,547,962,731,320,106,722,453,337,864,112,350,520,270,991,360,256,193,172",
                                    "18,002,965,000,000,000,000",
                                    "79,026,018,912,583,173,496,767,359,823,153,552,056,008,712,708,184,028,223,533,815,353,679,129,097,671",
                                    "336,475,000,000,000,000",
                                    "62,917,628,337,689,267,952,275,825,761,874,349,583,538,013,184,720,660,579,337,261,763,390,504,495,568",
                                    "1,661,129,570,000,000,000"
                                ]
                            }
                        ],
                        "constructorArguments": "",
                        "name": "updateRates",
                        "returnParams": [],
                        "signature": "updateRates(uint256[])"
                    },
                    "errorInfo": "",
                    "fromAddress": "0x6c0dbbf26be3a63c06a3630b2128dd5a95f157b2",
                    "gasUsed": 216868,
                    "id": 0,
                    "methodDecoded": true,
                    "operation": "CALL",
                    "output": "",
                    "revert": false,
                    "revertMessage": "",
                    "selector": "0x4bb77d9d",
                    "status": true,
                    "value": "0"
                },
                "nodeType": 0
            },
            "1": {
                "event": {
                    "contract": "0x0247828dab926b0f78ac4f579c586390a13e6ba7",
                    "decodedLog": {
                        "name": "RateUpdated",
                        "params": [
                            {
                                "name": "timestamp",
                                "type": "uint256",
                                "value": "1,508,810,425"
                            },
                            {
                                "name": "symbol",
                                "type": "bytes32",
                                "value": "0xaaaebeba3810b1e6b70781f14b2d72c1cb89c0b2b320c43bb67ff79f562f5ff4"
                            },
                            {
                                "name": "rate",
                                "type": "uint256",
                                "value": "500,000,000,000,000,000,000"
                            }
                        ],
                        "signature": "RateUpdated(uint256,bytes32,uint256)"
                    },
                    "id": 1,
                    "logData": "0x0000000000000000000000000000000000000000000000000000000059ee9eb9aaaebeba3810b1e6b70781f14b2d72c1cb89c0b2b320c43bb67ff79f562f5ff400000000000000000000000000000000000000000000001b1ae4d6e2ef500000",
                    "logDecoded": true,
                    "operation": "EVENT",
                    "revert": false,
                    "status": true,
                    "topics": [
                        "0xac1deea0e640492bbd200ce9e2992f2cab37749ee28a89e8ae7fb852b9fb3ea4"
                    ]
                },
                "nodeType": 1
            },
            "10": {
                "event": {
                    "contract": "0x0247828dab926b0f78ac4f579c586390a13e6ba7",
                    "decodedLog": {
                        "name": "RateUpdated",
                        "params": [
                            {
                                "name": "timestamp",
                                "type": "uint256",
                                "value": "1,508,810,425"
                            },
                            {
                                "name": "symbol",
                                "type": "bytes32",
                                "value": "0x4e83d2e9b055f813bdc781f90b2d10c9b9d12de3bb4a4c78bc533ae84e4eea45"
                            },
                            {
                                "name": "rate",
                                "type": "uint256",
                                "value": "13,250,000,000,000,000,000"
                            }
                        ],
                        "signature": "RateUpdated(uint256,bytes32,uint256)"
                    },
                    "id": 10,
                    "logData": "0x0000000000000000000000000000000000000000000000000000000059ee9eb94e83d2e9b055f813bdc781f90b2d10c9b9d12de3bb4a4c78bc533ae84e4eea45000000000000000000000000000000000000000000000000b7e174cc69ed0000",
                    "logDecoded": true,
                    "operation": "EVENT",
                    "revert": false,
                    "status": true,
                    "topics": [
                        "0xac1deea0e640492bbd200ce9e2992f2cab37749ee28a89e8ae7fb852b9fb3ea4"
                    ]
                },
                "nodeType": 1
            },
            "11": {
                "event": {
                    "contract": "0x0247828dab926b0f78ac4f579c586390a13e6ba7",
                    "decodedLog": {
                        "name": "RateUpdated",
                        "params": [
                            {
                                "name": "timestamp",
                                "type": "uint256",
                                "value": "1,508,810,425"
                            },
                            {
                                "name": "symbol",
                                "type": "bytes32",
                                "value": "0x3ec6762bdf44eb044276fec7d12c1bb640cb139cfd533f93eeebba5414f5db55"
                            },
                            {
                                "name": "rate",
                                "type": "uint256",
                                "value": "255,000,000,000,000,000"
                            }
                        ],
                        "signature": "RateUpdated(uint256,bytes32,uint256)"
                    },
                    "id": 11,
                    "logData": "0x0000000000000000000000000000000000000000000000000000000059ee9eb93ec6762bdf44eb044276fec7d12c1bb640cb139cfd533f93eeebba5414f5db550000000000000000000000000000000000000000000000000389f12621b98000",
                    "logDecoded": true,
                    "operation": "EVENT",
                    "revert": false,
                    "status": true,
                    "topics": [
                        "0xac1deea0e640492bbd200ce9e2992f2cab37749ee28a89e8ae7fb852b9fb3ea4"
                    ]
                },
                "nodeType": 1
            },
            "12": {
                "event": {
                    "contract": "0x0247828dab926b0f78ac4f579c586390a13e6ba7",
                    "decodedLog": {
                        "name": "RateUpdated",
                        "params": [
                            {
                                "name": "timestamp",
                                "type": "uint256",
                                "value": "1,508,810,425"
                            },
                            {
                                "name": "symbol",
                                "type": "bytes32",
                                "value": "0x7f6eba349e0d664091510cc582465ecc130017c86d4c6119a34ae40e19d4a52c"
                            },
                            {
                                "name": "rate",
                                "type": "uint256",
                                "value": "529,370,000,000,000,000"
                            }
                        ],
                        "signature": "RateUpdated(uint256,bytes32,uint256)"
                    },
                    "id": 12,
                    "logData": "0x0000000000000000000000000000000000000000000000000000000059ee9eb97f6eba349e0d664091510cc582465ecc130017c86d4c6119a34ae40e19d4a52c0000000000000000000000000000000000000000000000000758b335d4bfa000",
                    "logDecoded": true,
                    "operation": "EVENT",
                    "revert": false,
                    "status": true,
                    "topics": [
                        "0xac1deea0e640492bbd200ce9e2992f2cab37749ee28a89e8ae7fb852b9fb3ea4"
                    ]
                },
                "nodeType": 1
            },
            "13": {
                "event": {
                    "contract": "0x0247828dab926b0f78ac4f579c586390a13e6ba7",
                    "decodedLog": {
                        "name": "RateUpdated",
                        "params": [
                            {
                                "name": "timestamp",
                                "type": "uint256",
                                "value": "1,508,810,425"
                            },
                            {
                                "name": "symbol",
                                "type": "bytes32",
                                "value": "0xa7176ea9ccab4e661d15bc0b1e10ef9f3120087c1d1c72680a3a84c988ac7124"
                            },
                            {
                                "name": "rate",
                                "type": "uint256",
                                "value": "119,015,635,000,000,000,000"
                            }
                        ],
                        "signature": "RateUpdated(uint256,bytes32,uint256)"
                    },
                    "id": 13,
                    "logData": "0x0000000000000000000000000000000000000000000000000000000059ee9eb9a7176ea9ccab4e661d15bc0b1e10ef9f3120087c1d1c72680a3a84c988ac712400000000000000000000000000000000000000000000000673ac7975ec8c3000",
                    "logDecoded": true,
                    "operation": "EVENT",
                    "revert": false,
                    "status": true,
                    "topics": [
                        "0xac1deea0e640492bbd200ce9e2992f2cab37749ee28a89e8ae7fb852b9fb3ea4"
                    ]
                },
                "nodeType": 1
            },
            "14": {
                "event": {
                    "contract": "0x0247828dab926b0f78ac4f579c586390a13e6ba7",
                    "decodedLog": {
                        "name": "RateUpdated",
                        "params": [
                            {
                                "name": "timestamp",
                                "type": "uint256",
                                "value": "1,508,810,425"
                            },
                            {
                                "name": "symbol",
                                "type": "bytes32",
                                "value": "0x7d061b4a42df72b2fc5e85538922d3740ef4d481b04a89b98206cedb360379a8"
                            },
                            {
                                "name": "rate",
                                "type": "uint256",
                                "value": "225,215,000,000,000,000"
                            }
                        ],
                        "signature": "RateUpdated(uint256,bytes32,uint256)"
                    },
                    "id": 14,
                    "logData": "0x0000000000000000000000000000000000000000000000000000000059ee9eb97d061b4a42df72b2fc5e85538922d3740ef4d481b04a89b98206cedb360379a800000000000000000000000000000000000000000000000003201fd96916f000",
                    "logDecoded": true,
                    "operation": "EVENT",
                    "revert": false,
                    "status": true,
                    "topics": [
                        "0xac1deea0e640492bbd200ce9e2992f2cab37749ee28a89e8ae7fb852b9fb3ea4"
                    ]
                },
                "nodeType": 1
            },
            "15": {
                "event": {
                    "contract": "0x0247828dab926b0f78ac4f579c586390a13e6ba7",
                    "decodedLog": {
                        "name": "RateUpdated",
                        "params": [
                            {
                                "name": "timestamp",
                                "type": "uint256",
                                "value": "1,508,810,425"
                            },
                            {
                                "name": "symbol",
                                "type": "bytes32",
                                "value": "0x10e95f355d033982a91da3f7d2b412395ab9faf178843c62935e3401867865d3"
                            },
                            {
                                "name": "rate",
                                "type": "uint256",
                                "value": "12,999,950,000,000,000,000"
                            }
                        ],
                        "signature": "RateUpdated(uint256,bytes32,uint256)"
                    },
                    "id": 15,
                    "logData": "0x0000000000000000000000000000000000000000000000000000000059ee9eb910e95f355d033982a91da3f7d2b412395ab9faf178843c62935e3401867865d3000000000000000000000000000000000000000000000000b46919a5f7d6e000",
                    "logDecoded": true,
                    "operation": "EVENT",
                    "revert": false,
                    "status": true,
                    "topics": [
                        "0xac1deea0e640492bbd200ce9e2992f2cab37749ee28a89e8ae7fb852b9fb3ea4"
                    ]
                },
                "nodeType": 1
            },
            "16": {
                "event": {
                    "contract": "0x0247828dab926b0f78ac4f579c586390a13e6ba7",
                    "decodedLog": {
                        "name": "RateUpdated",
                        "params": [
                            {
                                "name": "timestamp",
                                "type": "uint256",
                                "value": "1,508,810,425"
                            },
                            {
                                "name": "symbol",
                                "type": "bytes32",
                                "value": "0x9ee187a325c80a9ca820b4f297a58770bf5a85fede3756f8e7e9d14ff37d7b66"
                            },
                            {
                                "name": "rate",
                                "type": "uint256",
                                "value": "2,064,010,000,000,000,000"
                            }
                        ],
                        "signature": "RateUpdated(uint256,bytes32,uint256)"
                    },
                    "id": 16,
                    "logData": "0x0000000000000000000000000000000000000000000000000000000059ee9eb99ee187a325c80a9ca820b4f297a58770bf5a85fede3756f8e7e9d14ff37d7b660000000000000000000000000000000000000000000000001ca4d628cedaa000",
                    "logDecoded": true,
                    "operation": "EVENT",
                    "revert": false,
                    "status": true,
                    "topics": [
                        "0xac1deea0e640492bbd200ce9e2992f2cab37749ee28a89e8ae7fb852b9fb3ea4"
                    ]
                },
                "nodeType": 1
            },
            "17": {
                "event": {
                    "contract": "0x0247828dab926b0f78ac4f579c586390a13e6ba7",
                    "decodedLog": {
                        "name": "RateUpdated",
                        "params": [
                            {
                                "name": "timestamp",
                                "type": "uint256",
                                "value": "1,508,810,425"
                            },
                            {
                                "name": "symbol",
                                "type": "bytes32",
                                "value": "0xc157673705e9a7d6253fb36c51e0b2c9193b9b560fd6d145bd19ecdf6b3a873b"
                            },
                            {
                                "name": "rate",
                                "type": "uint256",
                                "value": "532,500,000,000,000,000,000"
                            }
                        ],
                        "signature": "RateUpdated(uint256,bytes32,uint256)"
                    },
                    "id": 17,
                    "logData": "0x0000000000000000000000000000000000000000000000000000000059ee9eb9c157673705e9a7d6253fb36c51e0b2c9193b9b560fd6d145bd19ecdf6b3a873b00000000000000000000000000000000000000000000001cddec08b1af820000",
                    "logDecoded": true,
                    "operation": "EVENT",
                    "revert": false,
                    "status": true,
                    "topics": [
                        "0xac1deea0e640492bbd200ce9e2992f2cab37749ee28a89e8ae7fb852b9fb3ea4"
                    ]
                },
                "nodeType": 1
            },
            "18": {
                "event": {
                    "contract": "0x0247828dab926b0f78ac4f579c586390a13e6ba7",
                    "decodedLog": {
                        "name": "RateUpdated",
                        "params": [
                            {
                                "name": "timestamp",
                                "type": "uint256",
                                "value": "1,508,810,425"
                            },
                            {
                                "name": "symbol",
                                "type": "bytes32",
                                "value": "0x49b019f3320b92b2244c14d064de7e7b09dbc4c649e8650e7aa17e5ce7253294"
                            },
                            {
                                "name": "rate",
                                "type": "uint256",
                                "value": "18,002,965,000,000,000,000"
                            }
                        ],
                        "signature": "RateUpdated(uint256,bytes32,uint256)"
                    },
                    "id": 18,
                    "logData": "0x0000000000000000000000000000000000000000000000000000000059ee9eb949b019f3320b92b2244c14d064de7e7b09dbc4c649e8650e7aa17e5ce7253294000000000000000000000000000000000000000000000000f9d76148a0ca5000",
                    "logDecoded": true,
                    "operation": "EVENT",
                    "revert": false,
                    "status": true,
                    "topics": [
                        "0xac1deea0e640492bbd200ce9e2992f2cab37749ee28a89e8ae7fb852b9fb3ea4"
                    ]
                },
                "nodeType": 1
            },
            "19": {
                "event": {
                    "contract": "0x0247828dab926b0f78ac4f579c586390a13e6ba7",
                    "decodedLog": {
                        "name": "RateUpdated",
                        "params": [
                            {
                                "name": "timestamp",
                                "type": "uint256",
                                "value": "1,508,810,425"
                            },
                            {
                                "name": "symbol",
                                "type": "bytes32",
                                "value": "0xaeb724422620edb430dcaf22aeeff2e9388a578c02754cd08699652fb76035c7"
                            },
                            {
                                "name": "rate",
                                "type": "uint256",
                                "value": "336,475,000,000,000,000"
                            }
                        ],
                        "signature": "RateUpdated(uint256,bytes32,uint256)"
                    },
                    "id": 19,
                    "logData": "0x0000000000000000000000000000000000000000000000000000000059ee9eb9aeb724422620edb430dcaf22aeeff2e9388a578c02754cd08699652fb76035c700000000000000000000000000000000000000000000000004ab663ad2ccb000",
                    "logDecoded": true,
                    "operation": "EVENT",
                    "revert": false,
                    "status": true,
                    "topics": [
                        "0xac1deea0e640492bbd200ce9e2992f2cab37749ee28a89e8ae7fb852b9fb3ea4"
                    ]
                },
                "nodeType": 1
            },
            "2": {
                "event": {
                    "contract": "0x0247828dab926b0f78ac4f579c586390a13e6ba7",
                    "decodedLog": {
                        "name": "RateUpdated",
                        "params": [
                            {
                                "name": "timestamp",
                                "type": "uint256",
                                "value": "1,508,810,425"
                            },
                            {
                                "name": "symbol",
                                "type": "bytes32",
                                "value": "0xe98e2830be1a7e4156d656a7505e65d08c67660dc618072422e9c78053c261e9"
                            },
                            {
                                "name": "rate",
                                "type": "uint256",
                                "value": "9,318,622,334,870,000,000,000"
                            }
                        ],
                        "signature": "RateUpdated(uint256,bytes32,uint256)"
                    },
                    "id": 2,
                    "logData": "0x0000000000000000000000000000000000000000000000000000000059ee9eb9e98e2830be1a7e4156d656a7505e65d08c67660dc618072422e9c78053c261e90000000000000000000000000000000000000000000001f929dd09631b885c00",
                    "logDecoded": true,
                    "operation": "EVENT",
                    "revert": false,
                    "status": true,
                    "topics": [
                        "0xac1deea0e640492bbd200ce9e2992f2cab37749ee28a89e8ae7fb852b9fb3ea4"
                    ]
                },
                "nodeType": 1
            },
            "20": {
                "event": {
                    "contract": "0x0247828dab926b0f78ac4f579c586390a13e6ba7",
                    "decodedLog": {
                        "name": "RateUpdated",
                        "params": [
                            {
                                "name": "timestamp",
                                "type": "uint256",
                                "value": "1,508,810,425"
                            },
                            {
                                "name": "symbol",
                                "type": "bytes32",
                                "value": "0x8b1a1d9c2b109e527c9134b25b1a1833b16b6594f92daa9f6d9b7a6024bce9d0"
                            },
                            {
                                "name": "rate",
                                "type": "uint256",
                                "value": "1,661,129,570,000,000,000"
                            }
                        ],
                        "signature": "RateUpdated(uint256,bytes32,uint256)"
                    },
                    "id": 20,
                    "logData": "0x0000000000000000000000000000000000000000000000000000000059ee9eb98b1a1d9c2b109e527c9134b25b1a1833b16b6594f92daa9f6d9b7a6024bce9d0000000000000000000000000000000000000000000000000170d848af9bf5400",
                    "logDecoded": true,
                    "operation": "EVENT",
                    "revert": false,
                    "status": true,
                    "topics": [
                        "0xac1deea0e640492bbd200ce9e2992f2cab37749ee28a89e8ae7fb852b9fb3ea4"
                    ]
                },
                "nodeType": 1
            },
            "3": {
                "event": {
                    "contract": "0x0247828dab926b0f78ac4f579c586390a13e6ba7",
                    "decodedLog": {
                        "name": "RateUpdated",
                        "params": [
                            {
                                "name": "timestamp",
                                "type": "uint256",
                                "value": "1,508,810,425"
                            },
                            {
                                "name": "symbol",
                                "type": "bytes32",
                                "value": "0xfdd18b7aa4e2107a72f3310e2403b9bd7ace4a9f01431002607b3b01430ce75d"
                            },
                            {
                                "name": "rate",
                                "type": "uint256",
                                "value": "95,040,190,000,000,000,000"
                            }
                        ],
                        "signature": "RateUpdated(uint256,bytes32,uint256)"
                    },
                    "id": 3,
                    "logData": "0x0000000000000000000000000000000000000000000000000000000059ee9eb9fdd18b7aa4e2107a72f3310e2403b9bd7ace4a9f01431002607b3b01430ce75d00000000000000000000000000000000000000000000000526f29542afa1e000",
                    "logDecoded": true,
                    "operation": "EVENT",
                    "revert": false,
                    "status": true,
                    "topics": [
                        "0xac1deea0e640492bbd200ce9e2992f2cab37749ee28a89e8ae7fb852b9fb3ea4"
                    ]
                },
                "nodeType": 1
            },
            "4": {
                "event": {
                    "contract": "0x0247828dab926b0f78ac4f579c586390a13e6ba7",
                    "decodedLog": {
                        "name": "RateUpdated",
                        "params": [
                            {
                                "name": "timestamp",
                                "type": "uint256",
                                "value": "1,508,810,425"
                            },
                            {
                                "name": "symbol",
                                "type": "bytes32",
                                "value": "0x279c8d120dfdb1ac051dfcfe9d373ee1d16624187fd2ed07d8817b7f9da2f07b"
                            },
                            {
                                "name": "rate",
                                "type": "uint256",
                                "value": "478,336,125,000,000,000,000"
                            }
                        ],
                        "signature": "RateUpdated(uint256,bytes32,uint256)"
                    },
                    "id": 4,
                    "logData": "0x0000000000000000000000000000000000000000000000000000000059ee9eb9279c8d120dfdb1ac051dfcfe9d373ee1d16624187fd2ed07d8817b7f9da2f07b000000000000000000000000000000000000000000000019ee3f4b5aa5d8d000",
                    "logDecoded": true,
                    "operation": "EVENT",
                    "revert": false,
                    "status": true,
                    "topics": [
                        "0xac1deea0e640492bbd200ce9e2992f2cab37749ee28a89e8ae7fb852b9fb3ea4"
                    ]
                },
                "nodeType": 1
            },
            "5": {
                "event": {
                    "contract": "0x0247828dab926b0f78ac4f579c586390a13e6ba7",
                    "decodedLog": {
                        "name": "RateUpdated",
                        "params": [
                            {
                                "name": "timestamp",
                                "type": "uint256",
                                "value": "1,508,810,425"
                            },
                            {
                                "name": "symbol",
                                "type": "bytes32",
                                "value": "0xeadf11d2ba45e7887d539b397ca436e3789fd0fce1853a6c2638148b7ed570cc"
                            },
                            {
                                "name": "rate",
                                "type": "uint256",
                                "value": "13,610,805,000,000,000,000"
                            }
                        ],
                        "signature": "RateUpdated(uint256,bytes32,uint256)"
                    },
                    "id": 5,
                    "logData": "0x0000000000000000000000000000000000000000000000000000000059ee9eb9eadf11d2ba45e7887d539b397ca436e3789fd0fce1853a6c2638148b7ed570cc000000000000000000000000000000000000000000000000bce34b08cc1c5000",
                    "logDecoded": true,
                    "operation": "EVENT",
                    "revert": false,
                    "status": true,
                    "topics": [
                        "0xac1deea0e640492bbd200ce9e2992f2cab37749ee28a89e8ae7fb852b9fb3ea4"
                    ]
                },
                "nodeType": 1
            },
            "6": {
                "event": {
                    "contract": "0x0247828dab926b0f78ac4f579c586390a13e6ba7",
                    "decodedLog": {
                        "name": "RateUpdated",
                        "params": [
                            {
                                "name": "timestamp",
                                "type": "uint256",
                                "value": "1,508,810,425"
                            },
                            {
                                "name": "symbol",
                                "type": "bytes32",
                                "value": "0xe87812529b4000d766aec50a1a984790593976f56e22fb85d5da4b019aa40e67"
                            },
                            {
                                "name": "rate",
                                "type": "uint256",
                                "value": "16,907,280,000,000,000,000"
                            }
                        ],
                        "signature": "RateUpdated(uint256,bytes32,uint256)"
                    },
                    "id": 6,
                    "logData": "0x0000000000000000000000000000000000000000000000000000000059ee9eb9e87812529b4000d766aec50a1a984790593976f56e22fb85d5da4b019aa40e67000000000000000000000000000000000000000000000000eaa2b994d6110000",
                    "logDecoded": true,
                    "operation": "EVENT",
                    "revert": false,
                    "status": true,
                    "topics": [
                        "0xac1deea0e640492bbd200ce9e2992f2cab37749ee28a89e8ae7fb852b9fb3ea4"
                    ]
                },
                "nodeType": 1
            },
            "7": {
                "event": {
                    "contract": "0x0247828dab926b0f78ac4f579c586390a13e6ba7",
                    "decodedLog": {
                        "name": "RateUpdated",
                        "params": [
                            {
                                "name": "timestamp",
                                "type": "uint256",
                                "value": "1,508,810,425"
                            },
                            {
                                "name": "symbol",
                                "type": "bytes32",
                                "value": "0x8b21758feaef617b6cd3aee4f30364f0287b0431b340f76fb21150ccbd700c66"
                            },
                            {
                                "name": "rate",
                                "type": "uint256",
                                "value": "3,050,805,000,000,000,000"
                            }
                        ],
                        "signature": "RateUpdated(uint256,bytes32,uint256)"
                    },
                    "id": 7,
                    "logData": "0x0000000000000000000000000000000000000000000000000000000059ee9eb98b21758feaef617b6cd3aee4f30364f0287b0431b340f76fb21150ccbd700c660000000000000000000000000000000000000000000000002a56a2fbcffc5000",
                    "logDecoded": true,
                    "operation": "EVENT",
                    "revert": false,
                    "status": true,
                    "topics": [
                        "0xac1deea0e640492bbd200ce9e2992f2cab37749ee28a89e8ae7fb852b9fb3ea4"
                    ]
                },
                "nodeType": 1
            },
            "8": {
                "event": {
                    "contract": "0x0247828dab926b0f78ac4f579c586390a13e6ba7",
                    "decodedLog": {
                        "name": "RateUpdated",
                        "params": [
                            {
                                "name": "timestamp",
                                "type": "uint256",
                                "value": "1,508,810,425"
                            },
                            {
                                "name": "symbol",
                                "type": "bytes32",
                                "value": "0x65d846b10b976259b1fbc3e9fba48b1be66bb2dbe08b858bdc52964e054cbf2e"
                            },
                            {
                                "name": "rate",
                                "type": "uint256",
                                "value": "330,755,000,000,000,000"
                            }
                        ],
                        "signature": "RateUpdated(uint256,bytes32,uint256)"
                    },
                    "id": 8,
                    "logData": "0x0000000000000000000000000000000000000000000000000000000059ee9eb965d846b10b976259b1fbc3e9fba48b1be66bb2dbe08b858bdc52964e054cbf2e000000000000000000000000000000000000000000000000049713eb8aaf3000",
                    "logDecoded": true,
                    "operation": "EVENT",
                    "revert": false,
                    "status": true,
                    "topics": [
                        "0xac1deea0e640492bbd200ce9e2992f2cab37749ee28a89e8ae7fb852b9fb3ea4"
                    ]
                },
                "nodeType": 1
            },
            "9": {
                "event": {
                    "contract": "0x0247828dab926b0f78ac4f579c586390a13e6ba7",
                    "decodedLog": {
                        "name": "RateUpdated",
                        "params": [
                            {
                                "name": "timestamp",
                                "type": "uint256",
                                "value": "1,508,810,425"
                            },
                            {
                                "name": "symbol",
                                "type": "bytes32",
                                "value": "0x91a08135082b0a28b4ad8ecc7749a009e0408743a9d1cdf34dd6a58d60ee9504"
                            },
                            {
                                "name": "rate",
                                "type": "uint256",
                                "value": "27,694,865,000,000,000,000"
                            }
                        ],
                        "signature": "RateUpdated(uint256,bytes32,uint256)"
                    },
                    "id": 9,
                    "logData": "0x0000000000000000000000000000000000000000000000000000000059ee9eb991a08135082b0a28b4ad8ecc7749a009e0408743a9d1cdf34dd6a58d60ee95040000000000000000000000000000000000000000000000018057ecfbdb661000",
                    "logDecoded": true,
                    "operation": "EVENT",
                    "revert": false,
                    "status": true,
                    "topics": [
                        "0xac1deea0e640492bbd200ce9e2992f2cab37749ee28a89e8ae7fb852b9fb3ea4"
                    ]
                },
                "nodeType": 1
            }
        },
        "gasFlame": [
            {
                "children": [
                    {
                        "children": [
                            {
                                "children": [],
                                "depth": 0,
                                "name": "Initial Gas",
                                "value": 76824
                            },
                            {
                                "children": [],
                                "depth": 0,
                                "name": "Executed Gas",
                                "value": 140044
                            }
                        ],
                        "depth": -1,
                        "name": "Actual Gas Used",
                        "value": 216868
                    },
                    {
                        "children": [],
                        "depth": -1,
                        "name": "Refunded Gas",
                        "value": 0
                    }
                ],
                "depth": -2,
                "name": "Total Gas",
                "value": 216868
            }
        ],
        "isConfirmed": true,
        "mainTrace": [
            {
                "children": [
                    {
                        "children": [
                            {
                                "children": [],
                                "depth": 1,
                                "id": 1,
                                "order": 1
                            },
                            {
                                "children": [],
                                "depth": 1,
                                "id": 2,
                                "order": 2
                            },
                            {
                                "children": [],
                                "depth": 1,
                                "id": 3,
                                "order": 3
                            },
                            {
                                "children": [],
                                "depth": 1,
                                "id": 4,
                                "order": 4
                            },
                            {
                                "children": [],
                                "depth": 1,
                                "id": 5,
                                "order": 5
                            },
                            {
                                "children": [],
                                "depth": 1,
                                "id": 6,
                                "order": 6
                            },
                            {
                                "children": [],
                                "depth": 1,
                                "id": 7,
                                "order": 7
                            },
                            {
                                "children": [],
                                "depth": 1,
                                "id": 8,
                                "order": 8
                            },
                            {
                                "children": [],
                                "depth": 1,
                                "id": 9,
                                "order": 9
                            },
                            {
                                "children": [],
                                "depth": 1,
                                "id": 10,
                                "order": 10
                            },
                            {
                                "children": [],
                                "depth": 1,
                                "id": 11,
                                "order": 11
                            },
                            {
                                "children": [],
                                "depth": 1,
                                "id": 12,
                                "order": 12
                            },
                            {
                                "children": [],
                                "depth": 1,
                                "id": 13,
                                "order": 13
                            },
                            {
                                "children": [],
                                "depth": 1,
                                "id": 14,
                                "order": 14
                            },
                            {
                                "children": [],
                                "depth": 1,
                                "id": 15,
                                "order": 15
                            },
                            {
                                "children": [],
                                "depth": 1,
                                "id": 16,
                                "order": 16
                            },
                            {
                                "children": [],
                                "depth": 1,
                                "id": 17,
                                "order": 17
                            },
                            {
                                "children": [],
                                "depth": 1,
                                "id": 18,
                                "order": 18
                            },
                            {
                                "children": [],
                                "depth": 1,
                                "id": 19,
                                "order": 19
                            },
                            {
                                "children": [],
                                "depth": 1,
                                "id": 20,
                                "order": 20
                            }
                        ],
                        "depth": 0,
                        "id": 0,
                        "order": 0
                    }
                ],
                "depth": -1,
                "id": -1,
                "order": -1
            }
        ],
        "mainTraceNodeCount": 21,
        "parentIdMap": {
            "0": -1,
            "1": 0,
            "10": 0,
            "11": 0,
            "12": 0,
            "13": 0,
            "14": 0,
            "15": 0,
            "16": 0,
            "17": 0,
            "18": 0,
            "19": 0,
            "2": 0,
            "20": 0,
            "3": 0,
            "4": 0,
            "5": 0,
            "6": 0,
            "7": 0,
            "8": 0,
            "9": 0
        },
        "tidyTrace": [
            {
                "children": [
                    {
                        "children": [
                            {
                                "children": [],
                                "depth": 1,
                                "id": 1,
                                "order": 1
                            },
                            {
                                "children": [],
                                "depth": 1,
                                "id": 2,
                                "order": 2
                            },
                            {
                                "children": [],
                                "depth": 1,
                                "id": 3,
                                "order": 3
                            },
                            {
                                "children": [],
                                "depth": 1,
                                "id": 4,
                                "order": 4
                            },
                            {
                                "children": [],
                                "depth": 1,
                                "id": 5,
                                "order": 5
                            },
                            {
                                "children": [],
                                "depth": 1,
                                "id": 6,
                                "order": 6
                            },
                            {
                                "children": [],
                                "depth": 1,
                                "id": 7,
                                "order": 7
                            },
                            {
                                "children": [],
                                "depth": 1,
                                "id": 8,
                                "order": 8
                            },
                            {
                                "children": [],
                                "depth": 1,
                                "id": 9,
                                "order": 9
                            },
                            {
                                "children": [],
                                "depth": 1,
                                "id": 10,
                                "order": 10
                            },
                            {
                                "children": [],
                                "depth": 1,
                                "id": 11,
                                "order": 11
                            },
                            {
                                "children": [],
                                "depth": 1,
                                "id": 12,
                                "order": 12
                            },
                            {
                                "children": [],
                                "depth": 1,
                                "id": 13,
                                "order": 13
                            },
                            {
                                "children": [],
                                "depth": 1,
                                "id": 14,
                                "order": 14
                            },
                            {
                                "children": [],
                                "depth": 1,
                                "id": 15,
                                "order": 15
                            },
                            {
                                "children": [],
                                "depth": 1,
                                "id": 16,
                                "order": 16
                            },
                            {
                                "children": [],
                                "depth": 1,
                                "id": 17,
                                "order": 17
                            },
                            {
                                "children": [],
                                "depth": 1,
                                "id": 18,
                                "order": 18
                            },
                            {
                                "children": [],
                                "depth": 1,
                                "id": 19,
                                "order": 19
                            },
                            {
                                "children": [],
                                "depth": 1,
                                "id": 20,
                                "order": 20
                            }
                        ],
                        "depth": 0,
                        "id": 0,
                        "order": 0
                    }
                ],
                "depth": -1,
                "id": -1,
                "order": -1
            }
        ],
        "tidyTraceNodeCount": 21
    },
    "state_change": {
        "stateChanges": [
            {
                "address": "0x0247828dab926b0f78ac4f579c586390a13e6ba7",
                "erc": "",
                "slots": [
                    {
                        "current": "0x00000000000000000000000000000000000000000000000004ab663ad2ccb000",
                        "key": "0xa125823495675fd7148da41482fa8d2611278f5c7ed500e2a5c9ad681441d1fa",
                        "prev": "0x00000000000000000000000000000000000000000000000004958cd65d6e5000"
                    },
                    {
                        "current": "0x0000000000000000000000000000000000000000000001f929dd09631b885c00",
                        "key": "0x9512ef85800fa7bcfd09699948fb1d02222e4714ec562ff5051bf4c70552ca87",
                        "prev": "0x00000000000000000000000000000000000000000000022bcbbfea60ad72e000"
                    },
                    {
                        "current": "0x000000000000000000000000000000000000000000000019ee3f4b5aa5d8d000",
                        "key": "0xa30ca5a538b5f9564b377f2ac2e02815cc144f2f9acfe86b7e7085fdbb7b917c",
                        "prev": "0x00000000000000000000000000000000000000000000001a892cd93047714000"
                    },
                    {
                        "current": "0x00000000000000000000000000000000000000000000000003201fd96916f000",
                        "key": "0x6bae526cff61f5c609eb57a3428b8e31ea7e330fb6787bf9464ea670f3408282",
                        "prev": "0x00000000000000000000000000000000000000000000000003331400e4f76000"
                    },
                    {
                        "current": "0x00000000000000000000000000000000000000000000001cddec08b1af820000",
                        "key": "0x2c9cc27c454f3ee7958193d7c97fc6b8db8755cfb3472bcad6562c8e7eff4459",
                        "prev": "0x00000000000000000000000000000000000000000000001dfa7857a29166a000"
                    },
                    {
                        "current": "0x000000000000000000000000000000000000000000000000b46919a5f7d6e000",
                        "key": "0xd49f7499b32da9e378b2cbcc043d2170787643f7b46bc9609f12eca4e05cd7b9",
                        "prev": "0x000000000000000000000000000000000000000000000000c249f947003eb000"
                    },
                    {
                        "current": "0x000000000000000000000000000000000000000000000000170d848af9bf5400",
                        "key": "0x86f0e85b9a8ebf28633e3f13678c013c1637a6a8ad4e7bf76d127fa5d946d738",
                        "prev": "0x00000000000000000000000000000000000000000000000018b18df960e43c00"
                    },
                    {
                        "current": "0x000000000000000000000000000000000000000000000000eaa2b994d6110000",
                        "key": "0xdd8075c5adf8f2c5bc7bac31eabe30a6861ba6dfd71d6e75e11e5ef9830be044",
                        "prev": "0x000000000000000000000000000000000000000000000000ed0810bf28170000"
                    },
                    {
                        "current": "0x0000000000000000000000000000000000000000000000000758b335d4bfa000",
                        "key": "0xe7bfced1249456686a47a63cfcad6c127b98bb53e922afade05a791291d3b3c5",
                        "prev": "0x000000000000000000000000000000000000000000000000076d89658e5b3000"
                    },
                    {
                        "current": "0x000000000000000000000000000000000000000000000000f9d76148a0ca5000",
                        "key": "0xa02db47bba9599731719dcfc394ef305c67f019047e73f3f756e1e8c1cef9b2b",
                        "prev": "0x000000000000000000000000000000000000000000000000f2cbb8774dff0000"
                    },
                    {
                        "current": "0x0000000000000000000000000000000000000000000000002a56a2fbcffc5000",
                        "key": "0x7172389d63517d3a29351ece5b3efca00e067a16c5915aa202ae04bdcce49ffe",
                        "prev": "0x0000000000000000000000000000000000000000000000002ae26f99a3e5b000"
                    },
                    {
                        "current": "0x00000000000000000000000000000000000000000000000526f29542afa1e000",
                        "key": "0xfe575a479351993a815884b0e2dd97eeea06ff4fe4c8ea6316b0de6ed5007677",
                        "prev": "0x00000000000000000000000000000000000000000000000527155d36affbc000"
                    },
                    {
                        "current": "0x0000000000000000000000000000000000000000000000018057ecfbdb661000",
                        "key": "0x3b70a5a09eb977423daea01234be531bb117d528cfe4c5acce9ec2bb790beabb",
                        "prev": "0x0000000000000000000000000000000000000000000000019d1d9253a8c0e000"
                    },
                    {
                        "current": "0x00000000000000000000000000000000000000000000000673ac7975ec8c3000",
                        "key": "0x14fa52de6c6255ef5f7834fec8d31626e1d49ab4f16f485ce7030169efc5ed10",
                        "prev": "0x000000000000000000000000000000000000000000000006ddaea4480ffee000"
                    },
                    {
                        "current": "0x0000000000000000000000000000000000000000000000000389f12621b98000",
                        "key": "0x14e56a3fa5e4a514dd182edeea2a32463ff1bcd44b67df21f4d5e70380605f15",
                        "prev": "0x000000000000000000000000000000000000000000000000038608b46c78c000"
                    },
                    {
                        "current": "0x000000000000000000000000000000000000000000000000049713eb8aaf3000",
                        "key": "0x0e01540e079b3b9f290b4c7c7893596b3ef8e3094f73f309a26d6beccd627b69",
                        "prev": "0x00000000000000000000000000000000000000000000000004cb5b22768de000"
                    },
                    {
                        "current": "0x000000000000000000000000000000000000000000000000b7e174cc69ed0000",
                        "key": "0xceec19f5b12109f1adb91adef926fe888665f2b0298eb27826861f75418cf6d0",
                        "prev": "0x000000000000000000000000000000000000000000000000b05a3735269ea000"
                    },
                    {
                        "current": "0x000000000000000000000000000000000000000000000000bce34b08cc1c5000",
                        "key": "0x89e7c9dd21796bdf0d7504270660759a9b3b39044bef29ec0a9bd6ff7c778bcd",
                        "prev": "0x000000000000000000000000000000000000000000000000ba9cbca40110e000"
                    },
                    {
                        "current": "0x0000000000000000000000000000000000000000000000001ca4d628cedaa000",
                        "key": "0x7ff3dd2ced28e86df154f25d7cc19eeaf4c2403bbed9c3cb1b33cc06eca23f36",
                        "prev": "0x0000000000000000000000000000000000000000000000001df973f6c4b1d000"
                    }
                ],
                "storageVariables": []
            }
        ]
    }
}