{
    "balance_change": {
        "balanceChanges": [
            {
                "account": "0xdc3f961b733eee8a370977d9854f64d86121ac31",
                "assets": [
                    {
                        "address": "0x86741069119e1492e9917c1b721df5cd7de8ddce",
                        "amount": "88",
                        "iconUrl": "",
                        "isERC1155": false,
                        "isERC721": false,
                        "sign": false,
                        "value": ""
                    }
                ]
            },
            {
                "account": "0x3da92b02017f344b000b518bb3d0c8753e7557fd",
                "assets": [
                    {
                        "address": "0x86741069119e1492e9917c1b721df5cd7de8ddce",
                        "amount": "88",
                        "iconUrl": "",
                        "isERC1155": false,
                        "isERC721": false,
                        "sign": true,
                        "value": ""
                    }
                ]
            }
        ]
    },
    "profile": {
        "basic_info": {
            "baseFee": "",
            "blockNumber": 5685368,
            "callData": "0xa9059cbb0000000000000000000000003da92b02017f344b000b518bb3d0c8753e7557fd000000000000000000000000000000000000000000000004c53ecdc18a600000",
            "debugEnable": true,
            "errorInfo": "",
            "eventCount": 1,
            "feeRecipient": "0x829bd824b016326a401d083b33d092293333a830",
            "formatValue": "0",
            "gasLimit": 84000,
            "gasPrice": "6",
            "gasUsed": 39064,
            "intTxnCount": 0,
            "internalRevert": false,
            "internalRevertMessage": "",
            "isContractCreation": false,
            "isFlashloan": false,
            "maxFee": "",
            "nonce": 25287,
            "overwritedBlockNumber": -1,
            "priorityFee": "",
            "receiver": "0x86741069119e1492e9917c1b721df5cd7de8ddce",
            "revertMessage": "",
            "sender": "0xdc3f961b733eee8a370977d9854f64d86121ac31",
            "simulationEnable": true,
            "sourceTxnHash": "0xbd3e57bb3492322de596d32a0871b5fbcc54a3bfc4e2f2054610f49080d9e795",
            "status": true,
            "timestamp": "2018-05-27T11:20:27Z",
            "transactionFee": "0.000234384",
            "txnHash": "0xbd3e57bb3492322de596d32a0871b5fbcc54a3bfc4e2f2054610f49080d9e795",
            "txnIndex": 126,
            "type": 0,
            "value": "0"
        },
        "fund_flow": [
            {
                "amount": "88",
                "from": "0xdc3f961b733eee8a370977d9854f64d86121ac31",
                "id": 1,
                "isERC1155": false,
                "isERC721": false,
                "isReverted": false,
                "order": 1,
                "to": "0x3da92b02017f344b000b518bb3d0c8753e7557fd",
                "token": "0x86741069119e1492e9917c1b721df5cd7de8ddce"
            }
        ],
        "token_infos": [
            {
                "address": "0x86741069119e1492e9917c1b721df5cd7de8ddce",
                "decimals": 18
            },
            {
                "address": "0xc02aaa39b223fe8d0a0e5c4f27ead9083c756cc2",
                "decimals": 18
            },
            {
                "address": "0xeeeeeeeeeeeeeeeeeeeeeeeeeeeeeeeeeeeeeeee",
                "decimals": 18
            }
        ]
    },
    "address_label": {
        "labels": [
            {
                "address": "0x0000000000000000000000000000000000000002",
                "label": "Precompiled"
            },
            {
                "address": "0x0000000000000000000000000000000000000003",
                "label": "Precompiled"
            },
            {
                "address": "0x0000000000000000000000000000000000000004",
                "label": "Precompiled"
            },
            {
                "address": "0xeeeeeeeeeeeeeeeeeeeeeeeeeeeeeeeeeeeeeeee",
                "label": "Ether"
            },
            {
                "address": "0x86741069119e1492e9917c1b721df5cd7de8ddce",
                "label": "Quantum Gold Token (QTG)"
            },
            {
                "address": "0x0000000000000000000000000000000000000001",
                "label": "Precompiled"
            }
        ]
    },
    "trace": {
        "accountLabels": null,
        "dataMap": {
            "-1": {
                "invocation": {
                    "address": "0xdc3f961b733eee8a370977d9854f64d86121ac31",
                    "callData": "",
                    "decodedMethod": null,
                    "errorInfo": "",
                    "fromAddress": "",
                    "gasUsed": 0,
                    "id": -1,
                    "methodDecoded": false,
                    "operation": "",
                    "output": "",
                    "revert": false,
                    "revertMessage": "",
                    "selector": "",
                    "status": false,
                    "value": ""
                },
                "nodeType": 0
            },
            "0": {
                "invocation": {
                    "address": "0x86741069119e1492e9917c1b721df5cd7de8ddce",
                    "callData": "0x0000000000000000000000003da92b02017f344b000b518bb3d0c8753e7557fd000000000000000000000000000000000000000000000004c53ecdc18a600000",
                    "decodedMethod": {
                        "callParams": [
                            {
                                "name": "recipient",
                                "type": "address",
                                "value": "0x3da92b02017f344b000b518bb3d0c8753e7557fd"
                            },
                            {
                                "decimalAvailable": true,
                                "name": "amount",
                                "type": "uint256",
                                "value": "88,000,000,000,000,000,000"
                            }
                        ],
                        "constructorArguments": "",
                        "name": "transfer",
                        "returnParams": [
                            {
                                "name": "",
                                "type": "bool",
                                "value": true
                            }
                        ],
                        "signature": "transfer(address,uint256)"
                    },
                    "errorInfo": "",
                    "fromAddress": "0xdc3f961b733eee8a370977d9854f64d86121ac31",
                    "gasUsed": 39064,
                    "id": 0,
                    "methodDecoded": true,
                    "operation": "CALL",
                    "output": "0x0000000000000000000000000000000000000000000000000000000000000001",
                    "revert": false,
                    "revertMessage": "",
                    "selector": "0xa9059cbb",
                    "status": true,
                    "value": "0"
                },
                "nodeType": 0
            },
            "1": {
                "event": {
                    "contract": "0x86741069119e1492e9917c1b721df5cd7de8ddce",
                    "decodedLog": {
                        "name": "Transfer",
                        "params": [
                            {
                                "name": "from",
                                "type": "address",
                                "value": "0xdc3f961b733eee8a370977d9854f64d86121ac31"
                            },
                            {
                                "name": "to",
                                "type": "address",
                                "value": "0x3da92b02017f344b000b518bb3d0c8753e7557fd"
                            },
                            {
                                "decimalAvailable": true,
                                "name": "value",
                                "type": "uint256",
                                "value": "88,000,000,000,000,000,000"
                            }
                        ],
                        "signature": "Transfer(address,address,uint256)"
                    },
                    "id": 1,
                    "logData": "0x000000000000000000000000000000000000000000000004c53ecdc18a600000",
                    "logDecoded": true,
                    "operation": "EVENT",
                    "revert": false,
                    "status": true,
                    "topics": [
                        "0xddf252ad1be2c89b69c2b068fc378daa952ba7f163c4a11628f55a4df523b3ef",
                        "0x000000000000000000000000dc3f961b733eee8a370977d9854f64d86121ac31",
                        "0x0000000000000000000000003da92b02017f344b000b518bb3d0c8753e7557fd"
                    ]
                },
                "nodeType": 1
            }
        },
        "gasFlame": [
            {
                "children": [
                    {
                        "children": [
                            {
                                "children": [],
                                "depth": 0,
                                "name": "Initial Gas",
                                "value": 23192
                            },
                            {
                                "children": [],
                                "depth": 0,
                                "name": "Executed Gas",
                                "value": 15872
                            }
                        ],
                        "depth": -1,
                        "name": "Actual Gas Used",
                        "value": 39064
                    },
                    {
                        "children": [],
                        "depth": -1,
                        "name": "Refunded Gas",
                        "value": 0
                    }
                ],
                "depth": -2,
                "name": "Total Gas",
                "value": 39064
            }
        ],
        "isConfirmed": true,
        "mainTrace": [
            {
                "children": [
                    {
                        "children": [
                            {
                                "children": [],
                                "depth": 1,
                                "id": 1,
                                "order": 1
                            }
                        ],
                        "depth": 0,
                        "id": 0,
                        "order": 0
                    }
                ],
                "depth": -1,
                "id": -1,
                "order": -1
            }
        ],
        "mainTraceNodeCount": 2,
        "parentIdMap": {
            "0": -1,
            "1": 0
        },
        "tidyTrace": [
            {
                "children": [
                    {
                        "children": [
                            {
                                "children": [],
                                "depth": 1,
                                "id": 1,
                                "order": 1
                            }
                        ],
                        "depth": 0,
                        "id": 0,
                        "order": 0
                    }
                ],
                "depth": -1,
                "id": -1,
                "order": -1
            }
        ],
        "tidyTraceNodeCount": 2
    },
    "state_change": {
        "stateChanges": [
            {
                "address": "0x86741069119e1492e9917c1b721df5cd7de8ddce",
                "erc": "",
                "slots": [
                    {
                        "current": "0x000000000000000000000000000000000000000000000478afc9a0fe0501e0fb",
                        "key": "0x43957f95478a2c96fecfeaf274504345afd6466a603c18cd8c5b626f41b77f21",
                        "prev": "0x00000000000000000000000000000000000000000000047d75086ebf8f61e0fb"
                    },
                    {
                        "current": "0x0000000000000000000000000000000000000000000000366d4c88947c300000",
                        "key": "0x705186189431da49c45527848b76f0e47cdff285abaf6beb15e26d3ba57000e9",
                        "prev": "0x000000000000000000000000000000000000000000000031a80dbad2f1d00000"
                    }
                ],
                "storageVariables": []
            }
        ]
    }
}