{
    "balance_change": {
        "balanceChanges": [
            {
                "account": "0x74db9ab3d5c3be2bfc087907942d4c66c7cf0b10",
                "assets": [
                    {
                        "address": "0xcadb96858fe496bb6309622f9023ba2defb5d540",
                        "amount": "1,082.4309",
                        "iconUrl": "",
                        "isERC1155": false,
                        "isERC721": false,
                        "sign": false,
                        "value": ""
                    }
                ]
            },
            {
                "account": "0xdee912cfe838d1f520f5f6e325895508f746c70f",
                "assets": [
                    {
                        "address": "0xcadb96858fe496bb6309622f9023ba2defb5d540",
                        "amount": "1,082.4309",
                        "iconUrl": "",
                        "isERC1155": false,
                        "isERC721": false,
                        "sign": true,
                        "value": ""
                    }
                ]
            }
        ]
    },
    "profile": {
        "basic_info": {
            "baseFee": "",
            "blockNumber": 9111823,
            "callData": "0xa9059cbb000000000000000000000000dee912cfe838d1f520f5f6e325895508f746c70f00000000000000000000000000000000000000000000003aadbf1095d65f4000",
            "debugEnable": true,
            "errorInfo": "",
            "eventCount": 1,
            "feeRecipient": "0x1b0fef50fdda7867e5b632a65013acab514b9ec3",
            "formatValue": "0",
            "gasLimit": 210000,
            "gasPrice": "10",
            "gasUsed": 38841,
            "intTxnCount": 0,
            "internalRevert": false,
            "internalRevertMessage": "",
            "isContractCreation": false,
            "isFlashloan": false,
            "maxFee": "",
            "nonce": 308,
            "overwritedBlockNumber": -1,
            "priorityFee": "",
            "receiver": "0xcadb96858fe496bb6309622f9023ba2defb5d540",
            "revertMessage": "",
            "sender": "0x74db9ab3d5c3be2bfc087907942d4c66c7cf0b10",
            "simulationEnable": true,
            "sourceTxnHash": "0xbd22c42a7f8e1096d930e597f132d5af198c8cc219bb572352986b1a3acc1a99",
            "status": true,
            "timestamp": "2019-12-15T18:55:26Z",
            "transactionFee": "0.00038841",
            "txnHash": "0xbd22c42a7f8e1096d930e597f132d5af198c8cc219bb572352986b1a3acc1a99",
            "txnIndex": 68,
            "type": 0,
            "value": "0"
        },
        "fund_flow": [
            {
                "amount": "1,082.4309",
                "from": "0x74db9ab3d5c3be2bfc087907942d4c66c7cf0b10",
                "id": 1,
                "isERC1155": false,
                "isERC721": false,
                "isReverted": false,
                "order": 1,
                "to": "0xdee912cfe838d1f520f5f6e325895508f746c70f",
                "token": "0xcadb96858fe496bb6309622f9023ba2defb5d540"
            }
        ],
        "token_infos": [
            {
                "address": "0xc02aaa39b223fe8d0a0e5c4f27ead9083c756cc2",
                "decimals": 18
            },
            {
                "address": "0xcadb96858fe496bb6309622f9023ba2defb5d540",
                "decimals": 18
            },
            {
                "address": "0xeeeeeeeeeeeeeeeeeeeeeeeeeeeeeeeeeeeeeeee",
                "decimals": 18
            }
        ]
    },
    "address_label": {
        "labels": [
            {
                "address": "0xeeeeeeeeeeeeeeeeeeeeeeeeeeeeeeeeeeeeeeee",
                "label": "Ether"
            },
            {
                "address": "0xcadb96858fe496bb6309622f9023ba2defb5d540",
                "label": "SBToken (SBC)"
            },
            {
                "address": "0x0000000000000000000000000000000000000001",
                "label": "Precompiled"
            },
            {
                "address": "0x0000000000000000000000000000000000000002",
                "label": "Precompiled"
            },
            {
                "address": "0x0000000000000000000000000000000000000003",
                "label": "Precompiled"
            },
            {
                "address": "0x0000000000000000000000000000000000000004",
                "label": "Precompiled"
            }
        ]
    },
    "trace": {
        "accountLabels": null,
        "dataMap": {
            "-1": {
                "invocation": {
                    "address": "0x74db9ab3d5c3be2bfc087907942d4c66c7cf0b10",
                    "callData": "",
                    "decodedMethod": null,
                    "errorInfo": "",
                    "fromAddress": "",
                    "gasUsed": 0,
                    "id": -1,
                    "methodDecoded": false,
                    "operation": "",
                    "output": "",
                    "revert": false,
                    "revertMessage": "",
                    "selector": "",
                    "status": false,
                    "value": ""
                },
                "nodeType": 0
            },
            "0": {
                "invocation": {
                    "address": "0xcadb96858fe496bb6309622f9023ba2defb5d540",
                    "callData": "0x000000000000000000000000dee912cfe838d1f520f5f6e325895508f746c70f00000000000000000000000000000000000000000000003aadbf1095d65f4000",
                    "decodedMethod": {
                        "callParams": [
                            {
                                "name": "_to",
                                "type": "address",
                                "value": "0xdee912cfe838d1f520f5f6e325895508f746c70f"
                            },
                            {
                                "decimalAvailable": true,
                                "name": "_value",
                                "type": "uint256",
                                "value": "1,082,430,900,000,000,000,000"
                            }
                        ],
                        "constructorArguments": "",
                        "name": "transfer",
                        "returnParams": [
                            {
                                "name": "success",
                                "type": "bool",
                                "value": true
                            }
                        ],
                        "signature": "transfer(address,uint256)"
                    },
                    "errorInfo": "",
                    "fromAddress": "0x74db9ab3d5c3be2bfc087907942d4c66c7cf0b10",
                    "gasUsed": 38841,
                    "id": 0,
                    "methodDecoded": true,
                    "operation": "CALL",
                    "output": "0x0000000000000000000000000000000000000000000000000000000000000001",
                    "revert": false,
                    "revertMessage": "",
                    "selector": "0xa9059cbb",
                    "status": true,
                    "value": "0"
                },
                "nodeType": 0
            },
            "1": {
                "event": {
                    "contract": "0xcadb96858fe496bb6309622f9023ba2defb5d540",
                    "decodedLog": {
                        "name": "Transfer",
                        "params": [
                            {
                                "name": "_from",
                                "type": "address",
                                "value": "0x74db9ab3d5c3be2bfc087907942d4c66c7cf0b10"
                            },
                            {
                                "name": "_to",
                                "type": "address",
                                "value": "0xdee912cfe838d1f520f5f6e325895508f746c70f"
                            },
                            {
                                "decimalAvailable": true,
                                "name": "_value",
                                "type": "uint256",
                                "value": "1,082,430,900,000,000,000,000"
                            }
                        ],
                        "signature": "Transfer(address,address,uint256)"
                    },
                    "id": 1,
                    "logData": "0x00000000000000000000000000000000000000000000003aadbf1095d65f4000",
                    "logDecoded": true,
                    "operation": "EVENT",
                    "revert": false,
                    "status": true,
                    "topics": [
                        "0xddf252ad1be2c89b69c2b068fc378daa952ba7f163c4a11628f55a4df523b3ef",
                        "0x00000000000000000000000074db9ab3d5c3be2bfc087907942d4c66c7cf0b10",
                        "0x000000000000000000000000dee912cfe838d1f520f5f6e325895508f746c70f"
                    ]
                },
                "nodeType": 1
            }
        },
        "gasFlame": [
            {
                "children": [
                    {
                        "children": [
                            {
                                "children": [],
                                "depth": 0,
                                "name": "Initial Gas",
                                "value": 21656
                            },
                            {
                                "children": [],
                                "depth": 0,
                                "name": "Executed Gas",
                                "value": 17185
                            }
                        ],
                        "depth": -1,
                        "name": "Actual Gas Used",
                        "value": 38841
                    },
                    {
                        "children": [],
                        "depth": -1,
                        "name": "Refunded Gas",
                        "value": 0
                    }
                ],
                "depth": -2,
                "name": "Total Gas",
                "value": 38841
            }
        ],
        "isConfirmed": true,
        "mainTrace": [
            {
                "children": [
                    {
                        "children": [
                            {
                                "children": [],
                                "depth": 1,
                                "id": 1,
                                "order": 1
                            }
                        ],
                        "depth": 0,
                        "id": 0,
                        "order": 0
                    }
                ],
                "depth": -1,
                "id": -1,
                "order": -1
            }
        ],
        "mainTraceNodeCount": 2,
        "parentIdMap": {
            "0": -1,
            "1": 0
        },
        "tidyTrace": [
            {
                "children": [
                    {
                        "children": [
                            {
                                "children": [],
                                "depth": 1,
                                "id": 1,
                                "order": 1
                            }
                        ],
                        "depth": 0,
                        "id": 0,
                        "order": 0
                    }
                ],
                "depth": -1,
                "id": -1,
                "order": -1
            }
        ],
        "tidyTraceNodeCount": 2
    },
    "state_change": {
        "stateChanges": [
            {
                "address": "0xcadb96858fe496bb6309622f9023ba2defb5d540",
                "erc": "ERC-20",
                "slots": [
                    {
                        "current": "0x000000000000000000000000000000000000000000006b2b7d9234fe5e6ef400",
                        "key": "0x002af6cb24c4b31b6ef4c086ce6d7354dd243a39e08a509894710b80419e98c7",
                        "prev": "0x000000000000000000000000000000000000000000006b662b51459434ce3400"
                    },
                    {
                        "current": "0x00000000000000000000000000000000000000000000008e74ed8962514a0000",
                        "key": "0xe6ea9c26057c142feb9efa392c913bdb97ae3faf5659f0843512a694790ca306",
                        "prev": "0x000000000000000000000000000000000000000000000053c72e78cc7aeac000"
                    }
                ],
                "storageVariables": [
                    {
                        "name": "balances",
                        "type": "mapping(address => uint256)",
                        "value": {
                            "pairs": [
                                {
                                    "key": "0x74db9ab3d5c3be2bfc087907942d4c66c7cf0b10",
                                    "value": {
                                        "current": "506095472015090000000000",
                                        "prev": "507177902915090000000000",
                                        "typeTag": 1
                                    }
                                },
                                {
                                    "key": "0xdee912cfe838d1f520f5f6e325895508f746c70f",
                                    "value": {
                                        "current": "2627863200000000000000",
                                        "prev": "1545432300000000000000",
                                        "typeTag": 1
                                    }
                                }
                            ],
                            "typeTag": 4
                        }
                    }
                ]
            }
        ]
    }
}