{
    "balance_change": {
        "balanceChanges": [
            {
                "account": "0x7ae6a3a73773d7ef7fc0de1cf5a514b92f37d790",
                "assets": [
                    {
                        "address": "0xa0b86991c6218b36c1d19d4a2e9eb0ce3606eb48",
                        "amount": "68.771903",
                        "iconUrl": "https://assets.blocksec.com/icon/0347a86cc07dbd03fdc5db01a4e5ac7e1217f90e0b6e4bb0f75cbcca09160989.png",
                        "isERC1155": false,
                        "isERC721": false,
                        "sign": false,
                        "value": "68.77127236"
                    }
                ]
            },
            {
                "account": "0xab782bc7d4a2b306825de5a7730034f8f63ee1bc",
                "assets": [
                    {
                        "address": "0xa0b86991c6218b36c1d19d4a2e9eb0ce3606eb48",
                        "amount": "68.771903",
                        "iconUrl": "https://assets.blocksec.com/icon/0347a86cc07dbd03fdc5db01a4e5ac7e1217f90e0b6e4bb0f75cbcca09160989.png",
                        "isERC1155": false,
                        "isERC721": false,
                        "sign": true,
                        "value": "68.77127236"
                    }
                ]
            }
        ]
    },
    "profile": {
        "basic_info": {
            "baseFee": "2.15617863",
            "blockNumber": 20281096,
            "callData": "0x23b872dd0000000000000000000000007ae6a3a73773d7ef7fc0de1cf5a514b92f37d790000000000000000000000000ab782bc7d4a2b306825de5a7730034f8f63ee1bc000000000000000000000000000000000000000000000000000000000419603f",
            "debugEnable": true,
            "errorInfo": "",
            "eventCount": 1,
            "feeRecipient": "0x95222290dd7278aa3ddd389cc1e1d165cc4bafe5",
            "formatValue": "0",
            "gasLimit": 200000,
            "gasPrice": "3.15617863",
            "gasUsed": 48613,
            "intTxnCount": 1,
            "internalRevert": false,
            "internalRevertMessage": "",
            "isContractCreation": false,
            "isFlashloan": false,
            "maxFee": "22.4",
            "nonce": 394172,
            "overwritedBlockNumber": -1,
            "priorityFee": "1",
            "receiver": "0xa0b86991c6218b36c1d19d4a2e9eb0ce3606eb48",
            "revertMessage": "",
            "sender": "0x1a1c87d9a6f55d3bbb064bff1059ad37b6bdc097",
            "simulationEnable": true,
            "sourceTxnHash": "0xbd764c9e88dd9689db11f51844bbfaa8cad3253e2df778fdf49f710e0f6eda0a",
            "status": true,
            "timestamp": "2024-07-11T05:13:23Z",
            "transactionFee": "0.00015343131174019",
            "txnHash": "0xbd764c9e88dd9689db11f51844bbfaa8cad3253e2df778fdf49f710e0f6eda0a",
            "txnIndex": 94,
            "type": 2,
            "value": "0"
        },
        "fund_flow": [
            {
                "amount": "68.771903",
                "from": "0x7ae6a3a73773d7ef7fc0de1cf5a514b92f37d790",
                "id": 1,
                "isERC1155": false,
                "isERC721": false,
                "isReverted": false,
                "order": 1,
                "to": "0xab782bc7d4a2b306825de5a7730034f8f63ee1bc",
                "token": "0xa0b86991c6218b36c1d19d4a2e9eb0ce3606eb48"
            }
        ],
        "token_infos": [
            {
                "address": "0xa0b86991c6218b36c1d19d4a2e9eb0ce3606eb48",
                "decimals": 6
            },
            {
                "address": "0xc02aaa39b223fe8d0a0e5c4f27ead9083c756cc2",
                "decimals": 18
            },
            {
                "address": "0xeeeeeeeeeeeeeeeeeeeeeeeeeeeeeeeeeeeeeeee",
                "decimals": 18
            }
        ]
    },
    "address_label": {
        "labels": [
            {
                "address": "0xeeeeeeeeeeeeeeeeeeeeeeeeeeeeeeeeeeeeeeee",
                "label": "Ether"
            },
            {
                "address": "0x0000000000000000000000000000000000000002",
                "label": "Precompiled"
            },
            {
                "address": "0x0000000000000000000000000000000000000004",
                "label": "Precompiled"
            },
            {
                "address": "0x0000000000000000000000000000000000000003",
                "label": "Precompiled"
            },
            {
                "address": "0x1a1c87d9a6f55d3bbb064bff1059ad37b6bdc097",
                "label": "Bitvavo: Deposit Funder"
            },
            {
                "address": "0xab782bc7d4a2b306825de5a7730034f8f63ee1bc",
                "label": "Bitvavo: Hot 3"
            },
            {
                "address": "0xa0b86991c6218b36c1d19d4a2e9eb0ce3606eb48",
                "label": "Circle: USDC Token"
            },
            {
                "address": "0x43506849d7c04f9138d1a2050bbf3a0c054402dd",
                "label": "FiatTokenV2_2"
            },
            {
                "address": "0x0000000000000000000000000000000000000001",
                "label": "Precompiled"
            }
        ]
    },
    "trace": {
        "accountLabels": null,
        "dataMap": {
            "-1": {
                "invocation": {
                    "address": "0x1a1c87d9a6f55d3bbb064bff1059ad37b6bdc097",
                    "callData": "",
                    "decodedMethod": null,
                    "errorInfo": "",
                    "fromAddress": "",
                    "gasUsed": 0,
                    "id": -1,
                    "methodDecoded": false,
                    "operation": "",
                    "output": "",
                    "revert": false,
                    "revertMessage": "",
                    "selector": "",
                    "status": false,
                    "value": ""
                },
                "nodeType": 0
            },
            "0": {
                "invocation": {
                    "address": "0xa0b86991c6218b36c1d19d4a2e9eb0ce3606eb48",
                    "callData": "0x0000000000000000000000007ae6a3a73773d7ef7fc0de1cf5a514b92f37d790000000000000000000000000ab782bc7d4a2b306825de5a7730034f8f63ee1bc000000000000000000000000000000000000000000000000000000000419603f",
                    "decodedMethod": {
                        "callParams": [
                            {
                                "name": "from",
                                "type": "address",
                                "value": "0x7ae6a3a73773d7ef7fc0de1cf5a514b92f37d790"
                            },
                            {
                                "name": "to",
                                "type": "address",
                                "value": "0xab782bc7d4a2b306825de5a7730034f8f63ee1bc"
                            },
                            {
                                "decimalAvailable": true,
                                "name": "value",
                                "type": "uint256",
                                "value": "68,771,903"
                            }
                        ],
                        "constructorArguments": "",
                        "name": "transferFrom",
                        "returnParams": [
                            {
                                "name": "",
                                "type": "bool",
                                "value": true
                            }
                        ],
                        "signature": "transferFrom(address,address,uint256)"
                    },
                    "errorInfo": "",
                    "fromAddress": "0x1a1c87d9a6f55d3bbb064bff1059ad37b6bdc097",
                    "gasUsed": 48613,
                    "id": 0,
                    "methodDecoded": true,
                    "operation": "CALL",
                    "output": "0x0000000000000000000000000000000000000000000000000000000000000001",
                    "revert": false,
                    "revertMessage": "",
                    "selector": "0x23b872dd",
                    "status": true,
                    "value": "0"
                },
                "nodeType": 0
            },
            "1": {
                "invocation": {
                    "address": "0x43506849d7c04f9138d1a2050bbf3a0c054402dd",
                    "callData": "0x0000000000000000000000007ae6a3a73773d7ef7fc0de1cf5a514b92f37d790000000000000000000000000ab782bc7d4a2b306825de5a7730034f8f63ee1bc000000000000000000000000000000000000000000000000000000000419603f",
                    "decodedMethod": {
                        "callParams": [
                            {
                                "name": "from",
                                "type": "address",
                                "value": "0x7ae6a3a73773d7ef7fc0de1cf5a514b92f37d790"
                            },
                            {
                                "name": "to",
                                "type": "address",
                                "value": "0xab782bc7d4a2b306825de5a7730034f8f63ee1bc"
                            },
                            {
                                "decimalAvailable": true,
                                "name": "value",
                                "type": "uint256",
                                "value": "68,771,903"
                            }
                        ],
                        "constructorArguments": "",
                        "name": "transferFrom",
                        "returnParams": [
                            {
                                "name": "",
                                "type": "bool",
                                "value": true
                            }
                        ],
                        "signature": "transferFrom(address,address,uint256)"
                    },
                    "errorInfo": "",
                    "fromAddress": "0xa0b86991c6218b36c1d19d4a2e9eb0ce3606eb48",
                    "gasUsed": 24154,
                    "id": 1,
                    "methodDecoded": true,
                    "operation": "DELEGATECALL",
                    "output": "0x0000000000000000000000000000000000000000000000000000000000000001",
                    "revert": false,
                    "revertMessage": "",
                    "selector": "0x23b872dd",
                    "status": true,
                    "value": "0"
                },
                "nodeType": 0
            },
            "2": {
                "event": {
                    "contract": "0xa0b86991c6218b36c1d19d4a2e9eb0ce3606eb48",
                    "decodedLog": {
                        "name": "Transfer",
                        "params": [
                            {
                                "name": "from",
                                "type": "address",
                                "value": "0x7ae6a3a73773d7ef7fc0de1cf5a514b92f37d790"
                            },
                            {
                                "name": "to",
                                "type": "address",
                                "value": "0xab782bc7d4a2b306825de5a7730034f8f63ee1bc"
                            },
                            {
                                "decimalAvailable": true,
                                "name": "value",
                                "type": "uint256",
                                "value": "68,771,903"
                            }
                        ],
                        "signature": "Transfer(address,address,uint256)"
                    },
                    "id": 2,
                    "logData": "0x000000000000000000000000000000000000000000000000000000000419603f",
                    "logDecoded": true,
                    "operation": "EVENT",
                    "revert": false,
                    "status": true,
                    "topics": [
                        "0xddf252ad1be2c89b69c2b068fc378daa952ba7f163c4a11628f55a4df523b3ef",
                        "0x0000000000000000000000007ae6a3a73773d7ef7fc0de1cf5a514b92f37d790",
                        "0x000000000000000000000000ab782bc7d4a2b306825de5a7730034f8f63ee1bc"
                    ]
                },
                "nodeType": 1
            }
        },
        "gasFlame": [
            {
                "children": [
                    {
                        "children": [
                            {
                                "children": [],
                                "depth": 0,
                                "name": "Initial Gas",
                                "value": 21964
                            },
                            {
                                "children": [
                                    {
                                        "children": [],
                                        "depth": 1,
                                        "name": "transferFrom",
                                        "value": 24154
                                    }
                                ],
                                "depth": 0,
                                "name": "Executed Gas",
                                "value": 31449
                            }
                        ],
                        "depth": -1,
                        "name": "Actual Gas Used",
                        "value": 48613
                    },
                    {
                        "children": [],
                        "depth": -1,
                        "name": "Refunded Gas",
                        "value": 4800
                    }
                ],
                "depth": -2,
                "name": "Total Gas",
                "value": 53413
            }
        ],
        "isConfirmed": true,
        "mainTrace": [
            {
                "children": [
                    {
                        "children": [
                            {
                                "children": [
                                    {
                                        "children": [],
                                        "depth": 2,
                                        "id": 2,
                                        "order": 2
                                    }
                                ],
                                "depth": 1,
                                "id": 1,
                                "order": 1
                            }
                        ],
                        "depth": 0,
                        "id": 0,
                        "order": 0
                    }
                ],
                "depth": -1,
                "id": -1,
                "order": -1
            }
        ],
        "mainTraceNodeCount": 3,
        "parentIdMap": {
            "0": -1,
            "1": 0,
            "2": 1
        },
        "tidyTrace": [
            {
                "children": [
                    {
                        "children": [
                            {
                                "children": [
                                    {
                                        "children": [],
                                        "depth": 2,
                                        "id": 2,
                                        "order": 2
                                    }
                                ],
                                "depth": 1,
                                "id": 1,
                                "order": 1
                            }
                        ],
                        "depth": 0,
                        "id": 0,
                        "order": 0
                    }
                ],
                "depth": -1,
                "id": -1,
                "order": -1
            }
        ],
        "tidyTraceNodeCount": 3
    },
    "state_change": {
        "stateChanges": [
            {
                "address": "0xa0b86991c6218b36c1d19d4a2e9eb0ce3606eb48",
                "erc": "ERC-20",
                "slots": [
                    {
                        "current": "0x0000000000000000000000000000000000000000000000000000000000000000",
                        "key": "0x30665451697f35e9585b803e5c5b3830b86ab41733ff4019f829390dfce21c64",
                        "prev": "0x000000000000000000000000000000000000000000000000000000000419603f"
                    },
                    {
                        "current": "0x0000000000000000000000000000000000000000000000000000025f41ce1b50",
                        "key": "0xae9c850b8b3d732900edd384665dc6ed7284291a0afdcb9cf35a95adbfd8a684",
                        "prev": "0x0000000000000000000000000000000000000000000000000000025f3db4bb11"
                    },
                    {
                        "current": "0xfffffffffffffffffffffffffffffffffffffffffffffffffffffffffbe69fc0",
                        "key": "0xd95e8ddb9adf2a22bad682e1c47194a680833cfafd1e482b6e16585208b9ef64",
                        "prev": "0xffffffffffffffffffffffffffffffffffffffffffffffffffffffffffffffff"
                    }
                ],
                "storageVariables": [
                    {
                        "name": "allowed",
                        "type": "mapping(address => mapping(address => uint256))",
                        "value": {
                            "pairs": [
                                {
                                    "key": "0x7ae6a3a73773d7ef7fc0de1cf5a514b92f37d790",
                                    "value": {
                                        "pairs": [
                                            {
                                                "key": "0x1a1c87d9a6f55d3bbb064bff1059ad37b6bdc097",
                                                "value": {
                                                    "current": "115792089237316195423570985008687907853269984665640564039457584007913060868032",
                                                    "prev": "115792089237316195423570985008687907853269984665640564039457584007913129639935",
                                                    "typeTag": 1
                                                }
                                            }
                                        ],
                                        "typeTag": 4
                                    }
                                }
                            ],
                            "typeTag": 4
                        }
                    },
                    {
                        "name": "balanceAndBlacklistStates",
                        "type": "mapping(address => uint256)",
                        "value": {
                            "pairs": [
                                {
                                    "key": "0x7ae6a3a73773d7ef7fc0de1cf5a514b92f37d790",
                                    "value": {
                                        "current": "0",
                                        "prev": "68771903",
                                        "typeTag": 1
                                    }
                                },
                                {
                                    "key": "0xab782bc7d4a2b306825de5a7730034f8f63ee1bc",
                                    "value": {
                                        "current": "2608149175120",
                                        "prev": "2608080403217",
                                        "typeTag": 1
                                    }
                                }
                            ],
                            "typeTag": 4
                        }
                    }
                ]
            }
        ]
    }
}