{
    "balance_change": {
        "balanceChanges": [
            {
                "account": "0xfe41b3eeea548f98def609b8e7445f91cc546dbf",
                "assets": [
                    {
                        "address": "0x03cb0021808442ad5efb61197966aef72a1def96",
                        "amount": "1",
                        "iconUrl": "",
                        "isERC1155": false,
                        "isERC721": false,
                        "sign": false,
                        "value": ""
                    },
                    {
                        "address": "0x573aaaa81154cd24e96f0cb97fd86110b8f6767f",
                        "amount": "50",
                        "iconUrl": "",
                        "isERC1155": false,
                        "isERC721": false,
                        "sign": true,
                        "value": ""
                    }
                ]
            },
            {
                "account": "0xae9b8e05c22bae74d1e8db82c4af122b18050bd4",
                "assets": [
                    {
                        "address": "0x03cb0021808442ad5efb61197966aef72a1def96",
                        "amount": "0.91",
                        "iconUrl": "",
                        "isERC1155": false,
                        "isERC721": false,
                        "sign": true,
                        "value": ""
                    },
                    {
                        "address": "0x573aaaa81154cd24e96f0cb97fd86110b8f6767f",
                        "amount": "50",
                        "iconUrl": "",
                        "isERC1155": false,
                        "isERC721": false,
                        "sign": false,
                        "value": ""
                    }
                ]
            },
            {
                "account": "0x62a364f7cba3be8fc9dcfdde12cabec8244af381",
                "assets": [
                    {
                        "address": "0x03cb0021808442ad5efb61197966aef72a1def96",
                        "amount": "0.09",
                        "iconUrl": "",
                        "isERC1155": false,
                        "isERC721": false,
                        "sign": true,
                        "value": ""
                    }
                ]
            }
        ]
    },
    "profile": {
        "basic_info": {
            "baseFee": "",
            "blockNumber": 7260434,
            "callData": "0x29675f290000000000000000000000000000000000000000000000000de0b6b3a764000000000000000000000000000000000000000000000000000000000000000000070000000000000000000000000000000000000000000000000000000000000000000000000000000000000000000000000000000000000000000000000000000c",
            "debugEnable": true,
            "errorInfo": "",
            "eventCount": 3,
            "feeRecipient": "0x829bd824b016326a401d083b33d092293333a830",
            "formatValue": "0",
            "gasLimit": 1000000,
            "gasPrice": "30",
            "gasUsed": 482735,
            "intTxnCount": 4,
            "internalRevert": false,
            "internalRevertMessage": "",
            "isContractCreation": false,
            "isFlashloan": false,
            "maxFee": "",
            "nonce": 81,
            "overwritedBlockNumber": -1,
            "priorityFee": "",
            "receiver": "0xae9b8e05c22bae74d1e8db82c4af122b18050bd4",
            "revertMessage": "",
            "sender": "0xfe41b3eeea548f98def609b8e7445f91cc546dbf",
            "simulationEnable": true,
            "sourceTxnHash": "0xbd2be6d866bb511a8e2e45b8f2cafb57e49b235cd750240d357fe04180172e15",
            "status": true,
            "timestamp": "2019-02-24T06:00:26Z",
            "transactionFee": "0.01448205",
            "txnHash": "0xbd2be6d866bb511a8e2e45b8f2cafb57e49b235cd750240d357fe04180172e15",
            "txnIndex": 34,
            "type": 0,
            "value": "0"
        },
        "fund_flow": [
            {
                "amount": "1",
                "from": "0xfe41b3eeea548f98def609b8e7445f91cc546dbf",
                "id": 1,
                "isERC1155": false,
                "isERC721": false,
                "isReverted": false,
                "order": 1,
                "to": "0xae9b8e05c22bae74d1e8db82c4af122b18050bd4",
                "token": "0x03cb0021808442ad5efb61197966aef72a1def96"
            },
            {
                "amount": "50",
                "from": "0xae9b8e05c22bae74d1e8db82c4af122b18050bd4",
                "id": 2,
                "isERC1155": false,
                "isERC721": false,
                "isReverted": false,
                "order": 2,
                "to": "0xfe41b3eeea548f98def609b8e7445f91cc546dbf",
                "token": "0x573aaaa81154cd24e96f0cb97fd86110b8f6767f"
            },
            {
                "amount": "0.09",
                "from": "0xae9b8e05c22bae74d1e8db82c4af122b18050bd4",
                "id": 3,
                "isERC1155": false,
                "isERC721": false,
                "isReverted": false,
                "order": 3,
                "to": "0x62a364f7cba3be8fc9dcfdde12cabec8244af381",
                "token": "0x03cb0021808442ad5efb61197966aef72a1def96"
            }
        ],
        "token_infos": [
            {
                "address": "0x03cb0021808442ad5efb61197966aef72a1def96",
                "decimals": 18
            },
            {
                "address": "0x573aaaa81154cd24e96f0cb97fd86110b8f6767f",
                "decimals": 18
            },
            {
                "address": "0xc02aaa39b223fe8d0a0e5c4f27ead9083c756cc2",
                "decimals": 18
            },
            {
                "address": "0xeeeeeeeeeeeeeeeeeeeeeeeeeeeeeeeeeeeeeeee",
                "decimals": 18
            }
        ]
    },
    "address_label": {
        "labels": [
            {
                "address": "0xeeeeeeeeeeeeeeeeeeeeeeeeeeeeeeeeeeeeeeee",
                "label": "Ether"
            },
            {
                "address": "0xae9b8e05c22bae74d1e8db82c4af122b18050bd4",
                "label": "Biigo2"
            },
            {
                "address": "0x03cb0021808442ad5efb61197966aef72a1def96",
                "label": "coToken (coToken)"
            },
            {
                "address": "0x573aaaa81154cd24e96f0cb97fd86110b8f6767f",
                "label": "Fus"
            },
            {
                "address": "0x0000000000000000000000000000000000000001",
                "label": "Precompiled"
            },
            {
                "address": "0x0000000000000000000000000000000000000002",
                "label": "Precompiled"
            },
            {
                "address": "0x0000000000000000000000000000000000000003",
                "label": "Precompiled"
            },
            {
                "address": "0x0000000000000000000000000000000000000004",
                "label": "Precompiled"
            }
        ]
    },
    "trace": {
        "accountLabels": null,
        "dataMap": {
            "-1": {
                "invocation": {
                    "address": "0xfe41b3eeea548f98def609b8e7445f91cc546dbf",
                    "callData": "",
                    "decodedMethod": null,
                    "errorInfo": "",
                    "fromAddress": "",
                    "gasUsed": 0,
                    "id": -1,
                    "methodDecoded": false,
                    "operation": "",
                    "output": "",
                    "revert": false,
                    "revertMessage": "",
                    "selector": "",
                    "status": false,
                    "value": ""
                },
                "nodeType": 0
            },
            "0": {
                "invocation": {
                    "address": "0xae9b8e05c22bae74d1e8db82c4af122b18050bd4",
                    "callData": "0x0000000000000000000000000000000000000000000000000de0b6b3a764000000000000000000000000000000000000000000000000000000000000000000070000000000000000000000000000000000000000000000000000000000000000000000000000000000000000000000000000000000000000000000000000000c",
                    "decodedMethod": {
                        "callParams": [
                            {
                                "name": "tokenId",
                                "type": "uint256",
                                "value": "1,000,000,000,000,000,000"
                            },
                            {
                                "name": "price",
                                "type": "uint256",
                                "value": "7"
                            },
                            {
                                "name": "safe",
                                "type": "bool",
                                "value": false
                            },
                            {
                                "name": "hookCount",
                                "type": "uint256",
                                "value": "12"
                            }
                        ],
                        "constructorArguments": "",
                        "name": "buy",
                        "returnParams": [],
                        "signature": "buy(uint256,uint256,bool,uint256)"
                    },
                    "errorInfo": "",
                    "fromAddress": "0xfe41b3eeea548f98def609b8e7445f91cc546dbf",
                    "gasUsed": 482735,
                    "id": 0,
                    "methodDecoded": true,
                    "operation": "CALL",
                    "output": "",
                    "revert": false,
                    "revertMessage": "",
                    "selector": "0x29675f29",
                    "status": true,
                    "value": "0"
                },
                "nodeType": 0
            },
            "1": {
                "invocation": {
                    "address": "0x03cb0021808442ad5efb61197966aef72a1def96",
                    "callData": "0x000000000000000000000000fe41b3eeea548f98def609b8e7445f91cc546dbf0000000000000000000000000000000000000000000000000de0b6b3a7640000",
                    "decodedMethod": {
                        "callParams": [
                            {
                                "name": "_to",
                                "type": "address",
                                "value": "0xfe41b3eeea548f98def609b8e7445f91cc546dbf"
                            },
                            {
                                "name": "_value",
                                "type": "uint256",
                                "value": "1,000,000,000,000,000,000"
                            }
                        ],
                        "constructorArguments": "",
                        "name": "deduct",
                        "returnParams": [
                            {
                                "name": "success",
                                "type": "bool",
                                "value": true
                            }
                        ],
                        "signature": "deduct(address,uint256)"
                    },
                    "errorInfo": "",
                    "fromAddress": "0xae9b8e05c22bae74d1e8db82c4af122b18050bd4",
                    "gasUsed": 14038,
                    "id": 1,
                    "methodDecoded": true,
                    "operation": "CALL",
                    "output": "0x0000000000000000000000000000000000000000000000000000000000000001",
                    "revert": false,
                    "revertMessage": "",
                    "selector": "0x47055321",
                    "status": true,
                    "value": "0"
                },
                "nodeType": 0
            },
            "2": {
                "event": {
                    "contract": "0x03cb0021808442ad5efb61197966aef72a1def96",
                    "decodedLog": {
                        "name": "Transfer",
                        "params": [
                            {
                                "name": "from",
                                "type": "address",
                                "value": "0xfe41b3eeea548f98def609b8e7445f91cc546dbf"
                            },
                            {
                                "name": "to",
                                "type": "address",
                                "value": "0xae9b8e05c22bae74d1e8db82c4af122b18050bd4"
                            },
                            {
                                "decimalAvailable": true,
                                "name": "value",
                                "type": "uint256",
                                "value": "1,000,000,000,000,000,000"
                            }
                        ],
                        "signature": "Transfer(address,address,uint256)"
                    },
                    "id": 2,
                    "logData": "0x0000000000000000000000000000000000000000000000000de0b6b3a7640000",
                    "logDecoded": true,
                    "operation": "EVENT",
                    "revert": false,
                    "status": true,
                    "topics": [
                        "0xddf252ad1be2c89b69c2b068fc378daa952ba7f163c4a11628f55a4df523b3ef",
                        "0x000000000000000000000000fe41b3eeea548f98def609b8e7445f91cc546dbf",
                        "0x000000000000000000000000ae9b8e05c22bae74d1e8db82c4af122b18050bd4"
                    ]
                },
                "nodeType": 1
            },
            "3": {
                "invocation": {
                    "address": "0x573aaaa81154cd24e96f0cb97fd86110b8f6767f",
                    "callData": "0x000000000000000000000000fe41b3eeea548f98def609b8e7445f91cc546dbf000000000000000000000000000000000000000000000002b5e3af16b1880000",
                    "decodedMethod": {
                        "callParams": [
                            {
                                "name": "origin",
                                "type": "address",
                                "value": "0xfe41b3eeea548f98def609b8e7445f91cc546dbf"
                            },
                            {
                                "name": "amount",
                                "type": "uint256",
                                "value": "50,000,000,000,000,000,000"
                            }
                        ],
                        "constructorArguments": "",
                        "name": "distribute",
                        "returnParams": [],
                        "signature": "distribute(address,uint256)"
                    },
                    "errorInfo": "",
                    "fromAddress": "0xae9b8e05c22bae74d1e8db82c4af122b18050bd4",
                    "gasUsed": 39154,
                    "id": 3,
                    "methodDecoded": true,
                    "operation": "CALL",
                    "output": "",
                    "revert": false,
                    "revertMessage": "",
                    "selector": "0xfb932108",
                    "status": true,
                    "value": "0"
                },
                "nodeType": 0
            },
            "4": {
                "event": {
                    "contract": "0x573aaaa81154cd24e96f0cb97fd86110b8f6767f",
                    "decodedLog": {
                        "name": "Transfer",
                        "params": [
                            {
                                "name": "from",
                                "type": "address",
                                "value": "0xae9b8e05c22bae74d1e8db82c4af122b18050bd4"
                            },
                            {
                                "name": "to",
                                "type": "address",
                                "value": "0xfe41b3eeea548f98def609b8e7445f91cc546dbf"
                            },
                            {
                                "decimalAvailable": true,
                                "name": "value",
                                "type": "uint256",
                                "value": "50,000,000,000,000,000,000"
                            }
                        ],
                        "signature": "Transfer(address,address,uint256)"
                    },
                    "id": 4,
                    "logData": "0x000000000000000000000000000000000000000000000002b5e3af16b1880000",
                    "logDecoded": true,
                    "operation": "EVENT",
                    "revert": false,
                    "status": true,
                    "topics": [
                        "0xddf252ad1be2c89b69c2b068fc378daa952ba7f163c4a11628f55a4df523b3ef",
                        "0x000000000000000000000000ae9b8e05c22bae74d1e8db82c4af122b18050bd4",
                        "0x000000000000000000000000fe41b3eeea548f98def609b8e7445f91cc546dbf"
                    ]
                },
                "nodeType": 1
            },
            "5": {
                "invocation": {
                    "address": "0x62a364f7cba3be8fc9dcfdde12cabec8244af381",
                    "callData": "0xe398fbccd0e711328960cc91874eef1a28118ad7e84cd109788baf0523d4bb6f00000000000000000000000000000000000000000000000000d529ae9e860000000000000000000000000000000000000000000000000000006a94d74f430000",
                    "decodedMethod": null,
                    "errorInfo": "",
                    "fromAddress": "0xae9b8e05c22bae74d1e8db82c4af122b18050bd4",
                    "gasUsed": 33340,
                    "id": 5,
                    "methodDecoded": false,
                    "operation": "CALL",
                    "output": "",
                    "revert": false,
                    "revertMessage": "",
                    "selector": "0x7f2dc9b5",
                    "status": true,
                    "value": "0"
                },
                "nodeType": 0
            },
            "6": {
                "invocation": {
                    "address": "0x03cb0021808442ad5efb61197966aef72a1def96",
                    "callData": "0x000000000000000000000000ae9b8e05c22bae74d1e8db82c4af122b18050bd4000000000000000000000000000000000000000000000000013fbe85edc90000",
                    "decodedMethod": {
                        "callParams": [
                            {
                                "name": "_to",
                                "type": "address",
                                "value": "0xae9b8e05c22bae74d1e8db82c4af122b18050bd4"
                            },
                            {
                                "name": "_value",
                                "type": "uint256",
                                "value": "90,000,000,000,000,000"
                            }
                        ],
                        "constructorArguments": "",
                        "name": "deduct",
                        "returnParams": [
                            {
                                "name": "success",
                                "type": "bool",
                                "value": true
                            }
                        ],
                        "signature": "deduct(address,uint256)"
                    },
                    "errorInfo": "",
                    "fromAddress": "0x62a364f7cba3be8fc9dcfdde12cabec8244af381",
                    "gasUsed": 14038,
                    "id": 6,
                    "methodDecoded": true,
                    "operation": "CALL",
                    "output": "0x0000000000000000000000000000000000000000000000000000000000000001",
                    "revert": false,
                    "revertMessage": "",
                    "selector": "0x47055321",
                    "status": true,
                    "value": "0"
                },
                "nodeType": 0
            },
            "7": {
                "event": {
                    "contract": "0x03cb0021808442ad5efb61197966aef72a1def96",
                    "decodedLog": {
                        "name": "Transfer",
                        "params": [
                            {
                                "name": "from",
                                "type": "address",
                                "value": "0xae9b8e05c22bae74d1e8db82c4af122b18050bd4"
                            },
                            {
                                "name": "to",
                                "type": "address",
                                "value": "0x62a364f7cba3be8fc9dcfdde12cabec8244af381"
                            },
                            {
                                "decimalAvailable": true,
                                "name": "value",
                                "type": "uint256",
                                "value": "90,000,000,000,000,000"
                            }
                        ],
                        "signature": "Transfer(address,address,uint256)"
                    },
                    "id": 7,
                    "logData": "0x000000000000000000000000000000000000000000000000013fbe85edc90000",
                    "logDecoded": true,
                    "operation": "EVENT",
                    "revert": false,
                    "status": true,
                    "topics": [
                        "0xddf252ad1be2c89b69c2b068fc378daa952ba7f163c4a11628f55a4df523b3ef",
                        "0x000000000000000000000000ae9b8e05c22bae74d1e8db82c4af122b18050bd4",
                        "0x00000000000000000000000062a364f7cba3be8fc9dcfdde12cabec8244af381"
                    ]
                },
                "nodeType": 1
            }
        },
        "gasFlame": [
            {
                "children": [
                    {
                        "children": [
                            {
                                "children": [],
                                "depth": 0,
                                "name": "Initial Gas",
                                "value": 22296
                            },
                            {
                                "children": [
                                    {
                                        "children": [],
                                        "depth": 1,
                                        "name": "deduct",
                                        "value": 14038
                                    },
                                    {
                                        "children": [],
                                        "depth": 1,
                                        "name": "distribute",
                                        "value": 39154
                                    },
                                    {
                                        "children": [
                                            {
                                                "children": [],
                                                "depth": 2,
                                                "name": "deduct",
                                                "value": 14038
                                            }
                                        ],
                                        "depth": 1,
                                        "name": "0x7f2dc9b5",
                                        "value": 33340
                                    }
                                ],
                                "depth": 0,
                                "name": "Executed Gas",
                                "value": 460439
                            }
                        ],
                        "depth": -1,
                        "name": "Actual Gas Used",
                        "value": 482735
                    },
                    {
                        "children": [],
                        "depth": -1,
                        "name": "Refunded Gas",
                        "value": 0
                    }
                ],
                "depth": -2,
                "name": "Total Gas",
                "value": 482735
            }
        ],
        "isConfirmed": true,
        "mainTrace": [
            {
                "children": [
                    {
                        "children": [
                            {
                                "children": [
                                    {
                                        "children": [],
                                        "depth": 2,
                                        "id": 2,
                                        "order": 2
                                    }
                                ],
                                "depth": 1,
                                "id": 1,
                                "order": 1
                            },
                            {
                                "children": [
                                    {
                                        "children": [],
                                        "depth": 2,
                                        "id": 4,
                                        "order": 4
                                    }
                                ],
                                "depth": 1,
                                "id": 3,
                                "order": 3
                            },
                            {
                                "children": [
                                    {
                                        "children": [
                                            {
                                                "children": [],
                                                "depth": 3,
                                                "id": 7,
                                                "order": 7
                                            }
                                        ],
                                        "depth": 2,
                                        "id": 6,
                                        "order": 6
                                    }
                                ],
                                "depth": 1,
                                "id": 5,
                                "order": 5
                            }
                        ],
                        "depth": 0,
                        "id": 0,
                        "order": 0
                    }
                ],
                "depth": -1,
                "id": -1,
                "order": -1
            }
        ],
        "mainTraceNodeCount": 8,
        "parentIdMap": {
            "0": -1,
            "1": 0,
            "2": 1,
            "3": 0,
            "4": 3,
            "5": 0,
            "6": 5,
            "7": 6
        },
        "tidyTrace": [
            {
                "children": [
                    {
                        "children": [
                            {
                                "children": [
                                    {
                                        "children": [],
                                        "depth": 2,
                                        "id": 2,
                                        "order": 2
                                    }
                                ],
                                "depth": 1,
                                "id": 1,
                                "order": 1
                            },
                            {
                                "children": [
                                    {
                                        "children": [],
                                        "depth": 2,
                                        "id": 4,
                                        "order": 4
                                    }
                                ],
                                "depth": 1,
                                "id": 3,
                                "order": 3
                            },
                            {
                                "children": [
                                    {
                                        "children": [
                                            {
                                                "children": [],
                                                "depth": 3,
                                                "id": 7,
                                                "order": 7
                                            }
                                        ],
                                        "depth": 2,
                                        "id": 6,
                                        "order": 6
                                    }
                                ],
                                "depth": 1,
                                "id": 5,
                                "order": 5
                            }
                        ],
                        "depth": 0,
                        "id": 0,
                        "order": 0
                    }
                ],
                "depth": -1,
                "id": -1,
                "order": -1
            }
        ],
        "tidyTraceNodeCount": 8
    },
    "state_change": {
        "stateChanges": [
            {
                "address": "0x03cb0021808442ad5efb61197966aef72a1def96",
                "erc": "",
                "slots": [
                    {
                        "current": "0x0000000000000000000000000000000000000000000000001bda3cb54d7672dc",
                        "key": "0x1e10b7fa448a337ee0168363233530b93606ecf728e34813a24a8671f71be334",
                        "prev": "0x00000000000000000000000000000000000000000000000029baf368f4da72dc"
                    },
                    {
                        "current": "0x00000000000000000000000000000000000000000000006ae05a7c3a2382b525",
                        "key": "0x185346adec82a13a5fc08c7d533e8c80399779c28b22f298647f4f0c87c5c363",
                        "prev": "0x00000000000000000000000000000000000000000000006ad3b9840c69e7b525"
                    },
                    {
                        "current": "0x00000000000000000000000000000000000000000000001ddad9f230fc7e8000",
                        "key": "0x2ae1781e2b15e18335d21665ed35f55f4489bb9a28dc7e5c8dd1f7abd6dbaf1c",
                        "prev": "0x00000000000000000000000000000000000000000000001dd99a33ab0eb58000"
                    }
                ],
                "storageVariables": []
            },
            {
                "address": "0x573aaaa81154cd24e96f0cb97fd86110b8f6767f",
                "erc": "",
                "slots": [
                    {
                        "current": "0x0000000000000000000000000000000000000000001cacd8d75e9fa1b6a80000",
                        "key": "0x185346adec82a13a5fc08c7d533e8c80399779c28b22f298647f4f0c87c5c363",
                        "prev": "0x0000000000000000000000000000000000000000001cacdb8d424eb868300000"
                    },
                    {
                        "current": "0x00000000000000000000000000000000000000000000004daedeb3a3fec40000",
                        "key": "0x1e10b7fa448a337ee0168363233530b93606ecf728e34813a24a8671f71be334",
                        "prev": "0x00000000000000000000000000000000000000000000004af8fb048d4d3c0000"
                    },
                    {
                        "current": "0x00000000000000000000000000000000000000000008884994574b8e0c9a0000",
                        "key": "0x06f8c95004082a5edc664ebef019ecff95ff1fc5a6fe116c7c449d6a0bc7041c",
                        "prev": "0x000000000000000000000000000000000000000000088846de739c775b120000"
                    },
                    {
                        "current": "0x00000000000000000000000000000000000000000007b389b69bc3a0a8160000",
                        "key": "0x8f9c7e241539d1f10aeabb946285fadf5c5f29fe9251e834bbb04d5956aa65a1",
                        "prev": "0x00000000000000000000000000000000000000000007b38700b81489f68e0000"
                    },
                    {
                        "current": "0x00000000000000000000000000000000000000000004697b80f1657f71580001",
                        "key": "0xb168e0b9e09601c4f19c3c4777eb2b5ea2adc80e119631df9f581c5a8776bd3a",
                        "prev": "0x000000000000000000000000000000000000000000046978cb0db668bfd00001"
                    }
                ],
                "storageVariables": []
            },
            {
                "address": "0x62a364f7cba3be8fc9dcfdde12cabec8244af381",
                "erc": "",
                "slots": [
                    {
                        "current": "0x000000000000000000000000000000000000000000000000183b09bfd1d50000",
                        "key": "0x315156153df6c069e0326b66ac7c5c9853586c21f7c9dd8e5eb8145e91a1910f",
                        "prev": "0x0000000000000000000000000000000000000000000000001765e011334f0000"
                    },
                    {
                        "current": "0x0000000000000000000000000000000000000000000000000354a6ba7a180000",
                        "key": "0x6f4fb17e26c5ce1cc20905ba716d1551793cae0590c044be5c59c3daebd75885",
                        "prev": "0x000000000000000000000000000000000000000000000000027f7d0bdb920000"
                    },
                    {
                        "current": "0x00000000000000000000000000000000000000000000000001aa535d3d0c0000",
                        "key": "0x0ac6beb525cc907b29307d6e9ee735a19c0217d31038bd22703045036490d8bb",
                        "prev": "0x000000000000000000000000000000000000000000000000013fbe85edc90000"
                    }
                ],
                "storageVariables": []
            },
            {
                "address": "0xae9b8e05c22bae74d1e8db82c4af122b18050bd4",
                "erc": "",
                "slots": [
                    {
                        "current": "0x00000000000000000000000000000000000000000000000000070c0700000a33",
                        "key": "0x02a90e8a4b5eabe904482bdb02eed7dbb043efb15721bc1003f44ce6cbe173c7",
                        "prev": "0x00000000000000000000000000000000000000000000000000060c0600000a31"
                    },
                    {
                        "current": "0x0000000000000000000000000000000000000000000000018a211187c5180000",
                        "key": "0x77b1c414fdd1aa0da9cf8924bb0e70fd1088f2d4c392eea923ff883883316cb3",
                        "prev": "0x0000000000000000000000000000000000000000000000017c405ad41db40000"
                    },
                    {
                        "current": "0x00000000000000000000000000000064060a0711000000005c7232fa00000a33",
                        "key": "0xb1043cc69617cbf53228bd8319723d6d69f9f98580b895da2b8cc6f8efad5e0c",
                        "prev": "0x0000000000000000000000000000006402bc090b000000005c6cb72b0000096b"
                    },
                    {
                        "current": "0x00000064066e060a00000a33fe41b3eeea548f98def609b8e7445f91cc546dbf",
                        "key": "0x96629efe1be47066dd6c774b0c6cab556fdb9634b0a008147282ef79a392f269",
                        "prev": "0x00000064063705d300000a2a3ecf2366fb5f39a38d2a3feaefd4535ee7ce28d8"
                    },
                    {
                        "current": "0x0000000000000000000000000000000000000022000000000000066e00000a31",
                        "key": "0x0000000000000000000000000000000000000000000000000000000000000016",
                        "prev": "0x0000000000000000000000000000000000000021000000000000060a00000a31"
                    },
                    {
                        "current": "0x0000000000000000000000000000000000000000000000000000000000000007",
                        "key": "0x0000000000000000000000000000000000000000000000000000000000000006",
                        "prev": "0x000000000000000000000000000000000000000000000000000000000000000a"
                    }
                ],
                "storageVariables": []
            }
        ]
    }
}