{
    "balance_change": {
        "balanceChanges": [
            {
                "account": "0xab95799727dfe3431bf4b52d2bafc6f8a6fac2c3",
                "assets": [
                    {
                        "address": "0xc02aaa39b223fe8d0a0e5c4f27ead9083c756cc2",
                        "amount": "1.572441775512259798",
                        "iconUrl": "https://assets.blocksec.com/icon/f1cb2d02c471d545bbc7722daf3277fd852d98e63d118771af7047bd8256c516.png",
                        "isERC1155": false,
                        "isERC721": false,
                        "sign": false,
                        "value": "2967.3863243251198285"
                    }
                ]
            },
            {
                "account": "0x470e8de2ebaef52014a47cb5e6af86884947f08c",
                "assets": [
                    {
                        "address": "0xc770eefad204b5180df6a14ee197d99d808ee52d",
                        "amount": "138,638.899999999999948395",
                        "iconUrl": "https://assets.blocksec.com/icon/abbc175c114974ba787f2e56f904e1c3b188098a02040d55f4039f986e4b481b.png",
                        "isERC1155": false,
                        "isERC721": false,
                        "sign": false,
                        "value": "3050.055799999999823"
                    },
                    {
                        "address": "0xc02aaa39b223fe8d0a0e5c4f27ead9083c756cc2",
                        "amount": "1.572441775512259798",
                        "iconUrl": "https://assets.blocksec.com/icon/f1cb2d02c471d545bbc7722daf3277fd852d98e63d118771af7047bd8256c516.png",
                        "isERC1155": false,
                        "isERC721": false,
                        "sign": true,
                        "value": "2967.3863243251198285"
                    }
                ]
            },
            {
                "account": "0xdc7bed80d1dba5cd3bf93f82718cef7d2f0f0af8",
                "assets": [
                    {
                        "address": "0xc770eefad204b5180df6a14ee197d99d808ee52d",
                        "amount": "138,638.899999999999948395",
                        "iconUrl": "https://assets.blocksec.com/icon/abbc175c114974ba787f2e56f904e1c3b188098a02040d55f4039f986e4b481b.png",
                        "isERC1155": false,
                        "isERC721": false,
                        "sign": true,
                        "value": "3050.055799999999823"
                    }
                ]
            }
        ]
    },
    "profile": {
        "basic_info": {
            "baseFee": "15.757948015",
            "blockNumber": 18504348,
            "callData": "0x3a9a451f0000000000000000000000000000000000000000000000000000000000000020000000000000000000000000000000000000000000000000000000000000008800000000000000000000000000000000000000000000000015d26f76b3648cd6000000000000000000000000000000000000000000001d5b8dff002d3dcee66b000000000000000000000000470e8de2ebaef52014a47cb5e6af86884947f08cdc7bed80d1dba5cd3bf93f82718cef7d2f0f0af8c02aaa39b223fe8d0a0e5c4f27ead9083c756cc2000000000000000000000000000000000000000000000000",
            "debugEnable": true,
            "errorInfo": "",
            "eventCount": 4,
            "feeRecipient": "0x95222290dd7278aa3ddd389cc1e1d165cc4bafe5",
            "formatValue": "0",
            "gasLimit": 300000,
            "gasPrice": "207.621087684",
            "gasUsed": 95414,
            "intTxnCount": 6,
            "internalRevert": false,
            "internalRevertMessage": "",
            "isContractCreation": false,
            "isFlashloan": false,
            "maxFee": "223.379035699",
            "nonce": 3752,
            "overwritedBlockNumber": -1,
            "priorityFee": "191.863139669",
            "receiver": "0x99b1817acb40e76c309e26b2face9da9eff55317",
            "revertMessage": "",
            "sender": "0xab95799727dfe3431bf4b52d2bafc6f8a6fac2c3",
            "simulationEnable": true,
            "sourceTxnHash": "0xbd2e755218cd5a2ee3ad518e47dcdc4e0dc5d1ccbdf7e89b5607b288a399dbd3",
            "status": true,
            "timestamp": "2023-11-05T07:33:35Z",
            "transactionFee": "0.019809958460281176",
            "txnHash": "0xbd2e755218cd5a2ee3ad518e47dcdc4e0dc5d1ccbdf7e89b5607b288a399dbd3",
            "txnIndex": 5,
            "type": 2,
            "value": "0"
        },
        "fund_flow": [
            {
                "amount": "1.572441775512259798",
                "from": "0xab95799727dfe3431bf4b52d2bafc6f8a6fac2c3",
                "id": 1,
                "isERC1155": false,
                "isERC721": false,
                "isReverted": false,
                "order": 1,
                "to": "0x470e8de2ebaef52014a47cb5e6af86884947f08c",
                "token": "0xc02aaa39b223fe8d0a0e5c4f27ead9083c756cc2"
            },
            {
                "amount": "138,638.899999999999948395",
                "from": "0x470e8de2ebaef52014a47cb5e6af86884947f08c",
                "id": 2,
                "isERC1155": false,
                "isERC721": false,
                "isReverted": false,
                "order": 2,
                "to": "0xdc7bed80d1dba5cd3bf93f82718cef7d2f0f0af8",
                "token": "0xc770eefad204b5180df6a14ee197d99d808ee52d"
            }
        ],
        "token_infos": [
            {
                "address": "0xeeeeeeeeeeeeeeeeeeeeeeeeeeeeeeeeeeeeeeee",
                "decimals": 18
            },
            {
                "address": "0xc02aaa39b223fe8d0a0e5c4f27ead9083c756cc2",
                "decimals": 18
            },
            {
                "address": "0xc770eefad204b5180df6a14ee197d99d808ee52d",
                "decimals": 18
            }
        ]
    },
    "address_label": {
        "labels": [
            {
                "address": "0xc02aaa39b223fe8d0a0e5c4f27ead9083c756cc2",
                "label": "Wrapped Ether (WETH)"
            },
            {
                "address": "0x470e8de2ebaef52014a47cb5e6af86884947f08c",
                "label": "Uniswap V2: FOX"
            },
            {
                "address": "0x0000000000000000000000000000000000000001",
                "label": "Precompiled"
            },
            {
                "address": "0x0000000000000000000000000000000000000002",
                "label": "Precompiled"
            },
            {
                "address": "0x0000000000000000000000000000000000000003",
                "label": "Precompiled"
            },
            {
                "address": "0x0000000000000000000000000000000000000004",
                "label": "Precompiled"
            },
            {
                "address": "0xeeeeeeeeeeeeeeeeeeeeeeeeeeeeeeeeeeeeeeee",
                "label": "Ether"
            },
            {
                "address": "0xc770eefad204b5180df6a14ee197d99d808ee52d",
                "label": "ShapeShift: FOX Token"
            }
        ]
    },
    "trace": {
        "accountLabels": null,
        "dataMap": {
            "-1": {
                "invocation": {
                    "address": "0xab95799727dfe3431bf4b52d2bafc6f8a6fac2c3",
                    "callData": "",
                    "decodedMethod": null,
                    "errorInfo": "",
                    "fromAddress": "",
                    "gasUsed": 0,
                    "id": -1,
                    "methodDecoded": false,
                    "operation": "",
                    "output": "",
                    "revert": false,
                    "revertMessage": "",
                    "selector": "",
                    "status": false,
                    "value": ""
                },
                "nodeType": 0
            },
            "0": {
                "invocation": {
                    "address": "0x99b1817acb40e76c309e26b2face9da9eff55317",
                    "callData": "0x0000000000000000000000000000000000000000000000000000000000000020000000000000000000000000000000000000000000000000000000000000008800000000000000000000000000000000000000000000000015d26f76b3648cd6000000000000000000000000000000000000000000001d5b8dff002d3dcee66b000000000000000000000000470e8de2ebaef52014a47cb5e6af86884947f08cdc7bed80d1dba5cd3bf93f82718cef7d2f0f0af8c02aaa39b223fe8d0a0e5c4f27ead9083c756cc2000000000000000000000000000000000000000000000000",
                    "decodedMethod": null,
                    "errorInfo": "",
                    "fromAddress": "0xab95799727dfe3431bf4b52d2bafc6f8a6fac2c3",
                    "gasUsed": 95414,
                    "id": 0,
                    "methodDecoded": false,
                    "operation": "CALL",
                    "output": "0x000000000000000000000000000000000000000000001d5ba13c71a07751366b",
                    "revert": false,
                    "revertMessage": "",
                    "selector": "0x3a9a451f",
                    "status": true,
                    "value": "0"
                },
                "nodeType": 0
            },
            "1": {
                "invocation": {
                    "address": "0xc02aaa39b223fe8d0a0e5c4f27ead9083c756cc2",
                    "callData": "0x000000000000000000000000ab95799727dfe3431bf4b52d2bafc6f8a6fac2c3000000000000000000000000470e8de2ebaef52014a47cb5e6af86884947f08c00000000000000000000000000000000000000000000000015d26f76b3648cd6",
                    "decodedMethod": {
                        "callParams": [
                            {
                                "name": "src",
                                "type": "address",
                                "value": "0xab95799727dfe3431bf4b52d2bafc6f8a6fac2c3"
                            },
                            {
                                "name": "dst",
                                "type": "address",
                                "value": "0x470e8de2ebaef52014a47cb5e6af86884947f08c"
                            },
                            {
                                "decimalAvailable": true,
                                "name": "wad",
                                "type": "uint256",
                                "value": "1,572,441,775,512,259,798"
                            }
                        ],
                        "constructorArguments": "",
                        "name": "transferFrom",
                        "returnParams": [
                            {
                                "name": "",
                                "type": "bool",
                                "value": true
                            }
                        ],
                        "signature": "transferFrom(address,address,uint256)"
                    },
                    "errorInfo": "",
                    "fromAddress": "0x99b1817acb40e76c309e26b2face9da9eff55317",
                    "gasUsed": 15025,
                    "id": 1,
                    "methodDecoded": true,
                    "operation": "CALL",
                    "output": "0x0000000000000000000000000000000000000000000000000000000000000001",
                    "revert": false,
                    "revertMessage": "",
                    "selector": "0x23b872dd",
                    "status": true,
                    "value": "0"
                },
                "nodeType": 0
            },
            "10": {
                "event": {
                    "contract": "0x470e8de2ebaef52014a47cb5e6af86884947f08c",
                    "decodedLog": {
                        "name": "Swap",
                        "params": [
                            {
                                "name": "sender",
                                "type": "address",
                                "value": "0x99b1817acb40e76c309e26b2face9da9eff55317"
                            },
                            {
                                "name": "to",
                                "type": "address",
                                "value": "0xdc7bed80d1dba5cd3bf93f82718cef7d2f0f0af8"
                            },
                            {
                                "name": "amount0In",
                                "type": "uint256",
                                "value": "1,572,441,775,512,259,798"
                            },
                            {
                                "name": "amount1In",
                                "type": "uint256",
                                "value": "0"
                            },
                            {
                                "name": "amount0Out",
                                "type": "uint256",
                                "value": "0"
                            },
                            {
                                "name": "amount1Out",
                                "type": "uint256",
                                "value": "138,638,899,999,999,999,948,395"
                            }
                        ],
                        "signature": "Swap(address,uint256,uint256,uint256,uint256,address)"
                    },
                    "id": 10,
                    "logData": "0x00000000000000000000000000000000000000000000000015d26f76b3648cd600000000000000000000000000000000000000000000000000000000000000000000000000000000000000000000000000000000000000000000000000000000000000000000000000000000000000000000000000001d5ba13c71a07751366b",
                    "logDecoded": true,
                    "operation": "EVENT",
                    "revert": false,
                    "status": true,
                    "topics": [
                        "0xd78ad95fa46c994b6551d0da85fc275fe613ce37657fb8d5e3d130840159d822",
                        "0x00000000000000000000000099b1817acb40e76c309e26b2face9da9eff55317",
                        "0x000000000000000000000000dc7bed80d1dba5cd3bf93f82718cef7d2f0f0af8"
                    ]
                },
                "nodeType": 1
            },
            "2": {
                "event": {
                    "contract": "0xc02aaa39b223fe8d0a0e5c4f27ead9083c756cc2",
                    "decodedLog": {
                        "name": "Transfer",
                        "params": [
                            {
                                "name": "src",
                                "type": "address",
                                "value": "0xab95799727dfe3431bf4b52d2bafc6f8a6fac2c3"
                            },
                            {
                                "name": "dst",
                                "type": "address",
                                "value": "0x470e8de2ebaef52014a47cb5e6af86884947f08c"
                            },
                            {
                                "decimalAvailable": true,
                                "name": "wad",
                                "type": "uint256",
                                "value": "1,572,441,775,512,259,798"
                            }
                        ],
                        "signature": "Transfer(address,address,uint256)"
                    },
                    "id": 2,
                    "logData": "0x00000000000000000000000000000000000000000000000015d26f76b3648cd6",
                    "logDecoded": true,
                    "operation": "EVENT",
                    "revert": false,
                    "status": true,
                    "topics": [
                        "0xddf252ad1be2c89b69c2b068fc378daa952ba7f163c4a11628f55a4df523b3ef",
                        "0x000000000000000000000000ab95799727dfe3431bf4b52d2bafc6f8a6fac2c3",
                        "0x000000000000000000000000470e8de2ebaef52014a47cb5e6af86884947f08c"
                    ]
                },
                "nodeType": 1
            },
            "3": {
                "invocation": {
                    "address": "0x470e8de2ebaef52014a47cb5e6af86884947f08c",
                    "callData": "0x",
                    "decodedMethod": {
                        "callParams": [],
                        "constructorArguments": "",
                        "name": "getReserves",
                        "returnParams": [
                            {
                                "name": "_reserve0",
                                "type": "uint112",
                                "value": "832,121,194,849,241,893,564"
                            },
                            {
                                "name": "_reserve1",
                                "type": "uint112",
                                "value": "73,725,784,336,762,012,057,344,580"
                            },
                            {
                                "name": "_blockTimestampLast",
                                "type": "uint32",
                                "value": "1,699,169,603"
                            }
                        ],
                        "signature": "getReserves()"
                    },
                    "errorInfo": "",
                    "fromAddress": "0x99b1817acb40e76c309e26b2face9da9eff55317",
                    "gasUsed": 2504,
                    "id": 3,
                    "methodDecoded": true,
                    "operation": "STATICCALL",
                    "output": "0x00000000000000000000000000000000000000000000002d1c0059f2c6ab8abc0000000000000000000000000000000000000000003cfc0ac6fd82970ce61a440000000000000000000000000000000000000000000000000000000065474543",
                    "revert": false,
                    "revertMessage": "",
                    "selector": "0x0902f1ac",
                    "status": true,
                    "value": "0"
                },
                "nodeType": 0
            },
            "4": {
                "invocation": {
                    "address": "0x470e8de2ebaef52014a47cb5e6af86884947f08c",
                    "callData": "0x0000000000000000000000000000000000000000000000000000000000000000000000000000000000000000000000000000000000001d5ba13c71a07751366b000000000000000000000000dc7bed80d1dba5cd3bf93f82718cef7d2f0f0af800000000000000000000000000000000000000000000000000000000000000800000000000000000000000000000000000000000000000000000000000000000",
                    "decodedMethod": {
                        "callParams": [
                            {
                                "name": "amount0Out",
                                "type": "uint256",
                                "value": "0"
                            },
                            {
                                "name": "amount1Out",
                                "type": "uint256",
                                "value": "138,638,899,999,999,999,948,395"
                            },
                            {
                                "name": "to",
                                "type": "address",
                                "value": "0xdc7bed80d1dba5cd3bf93f82718cef7d2f0f0af8"
                            },
                            {
                                "name": "data",
                                "type": "bytes",
                                "value": "0x"
                            }
                        ],
                        "constructorArguments": "",
                        "name": "swap",
                        "returnParams": [],
                        "signature": "swap(uint256,uint256,address,bytes)"
                    },
                    "errorInfo": "",
                    "fromAddress": "0x99b1817acb40e76c309e26b2face9da9eff55317",
                    "gasUsed": 47804,
                    "id": 4,
                    "methodDecoded": true,
                    "operation": "CALL",
                    "output": "",
                    "revert": false,
                    "revertMessage": "",
                    "selector": "0x022c0d9f",
                    "status": true,
                    "value": "0"
                },
                "nodeType": 0
            },
            "5": {
                "invocation": {
                    "address": "0xc770eefad204b5180df6a14ee197d99d808ee52d",
                    "callData": "0x000000000000000000000000dc7bed80d1dba5cd3bf93f82718cef7d2f0f0af8000000000000000000000000000000000000000000001d5ba13c71a07751366b",
                    "decodedMethod": {
                        "callParams": [
                            {
                                "name": "to",
                                "type": "address",
                                "value": "0xdc7bed80d1dba5cd3bf93f82718cef7d2f0f0af8"
                            },
                            {
                                "decimalAvailable": true,
                                "name": "value",
                                "type": "uint256",
                                "value": "138,638,899,999,999,999,948,395"
                            }
                        ],
                        "constructorArguments": "",
                        "name": "transfer",
                        "returnParams": [
                            {
                                "name": "",
                                "type": "bool",
                                "value": true
                            }
                        ],
                        "signature": "transfer(address,uint256)"
                    },
                    "errorInfo": "",
                    "fromAddress": "0x470e8de2ebaef52014a47cb5e6af86884947f08c",
                    "gasUsed": 12923,
                    "id": 5,
                    "methodDecoded": true,
                    "operation": "CALL",
                    "output": "0x0000000000000000000000000000000000000000000000000000000000000001",
                    "revert": false,
                    "revertMessage": "",
                    "selector": "0xa9059cbb",
                    "status": true,
                    "value": "0"
                },
                "nodeType": 0
            },
            "6": {
                "event": {
                    "contract": "0xc770eefad204b5180df6a14ee197d99d808ee52d",
                    "decodedLog": {
                        "name": "Transfer",
                        "params": [
                            {
                                "name": "from",
                                "type": "address",
                                "value": "0x470e8de2ebaef52014a47cb5e6af86884947f08c"
                            },
                            {
                                "name": "to",
                                "type": "address",
                                "value": "0xdc7bed80d1dba5cd3bf93f82718cef7d2f0f0af8"
                            },
                            {
                                "decimalAvailable": true,
                                "name": "value",
                                "type": "uint256",
                                "value": "138,638,899,999,999,999,948,395"
                            }
                        ],
                        "signature": "Transfer(address,address,uint256)"
                    },
                    "id": 6,
                    "logData": "0x000000000000000000000000000000000000000000001d5ba13c71a07751366b",
                    "logDecoded": true,
                    "operation": "EVENT",
                    "revert": false,
                    "status": true,
                    "topics": [
                        "0xddf252ad1be2c89b69c2b068fc378daa952ba7f163c4a11628f55a4df523b3ef",
                        "0x000000000000000000000000470e8de2ebaef52014a47cb5e6af86884947f08c",
                        "0x000000000000000000000000dc7bed80d1dba5cd3bf93f82718cef7d2f0f0af8"
                    ]
                },
                "nodeType": 1
            },
            "7": {
                "invocation": {
                    "address": "0xc02aaa39b223fe8d0a0e5c4f27ead9083c756cc2",
                    "callData": "0x000000000000000000000000470e8de2ebaef52014a47cb5e6af86884947f08c",
                    "decodedMethod": {
                        "callParams": [
                            {
                                "name": "",
                                "type": "address",
                                "value": "0x470e8de2ebaef52014a47cb5e6af86884947f08c"
                            }
                        ],
                        "constructorArguments": "",
                        "name": "balanceOf",
                        "returnParams": [
                            {
                                "decimalAvailable": true,
                                "name": "",
                                "type": "uint256",
                                "value": "833,693,636,624,754,153,362"
                            }
                        ],
                        "signature": "balanceOf(address)"
                    },
                    "errorInfo": "",
                    "fromAddress": "0x470e8de2ebaef52014a47cb5e6af86884947f08c",
                    "gasUsed": 534,
                    "id": 7,
                    "methodDecoded": true,
                    "operation": "STATICCALL",
                    "output": "0x00000000000000000000000000000000000000000000002d31d2c9697a101792",
                    "revert": false,
                    "revertMessage": "",
                    "selector": "0x70a08231",
                    "status": true,
                    "value": "0"
                },
                "nodeType": 0
            },
            "8": {
                "invocation": {
                    "address": "0xc770eefad204b5180df6a14ee197d99d808ee52d",
                    "callData": "0x000000000000000000000000470e8de2ebaef52014a47cb5e6af86884947f08c",
                    "decodedMethod": {
                        "callParams": [
                            {
                                "name": "owner",
                                "type": "address",
                                "value": "0x470e8de2ebaef52014a47cb5e6af86884947f08c"
                            }
                        ],
                        "constructorArguments": "",
                        "name": "balanceOf",
                        "returnParams": [
                            {
                                "decimalAvailable": true,
                                "name": "",
                                "type": "uint256",
                                "value": "73,587,145,436,762,012,057,396,185"
                            }
                        ],
                        "signature": "balanceOf(address)"
                    },
                    "errorInfo": "",
                    "fromAddress": "0x470e8de2ebaef52014a47cb5e6af86884947f08c",
                    "gasUsed": 524,
                    "id": 8,
                    "methodDecoded": true,
                    "operation": "STATICCALL",
                    "output": "0x0000000000000000000000000000000000000000003cdeaf25c110f69594e3d9",
                    "revert": false,
                    "revertMessage": "",
                    "selector": "0x70a08231",
                    "status": true,
                    "value": "0"
                },
                "nodeType": 0
            },
            "9": {
                "event": {
                    "contract": "0x470e8de2ebaef52014a47cb5e6af86884947f08c",
                    "decodedLog": {
                        "name": "Sync",
                        "params": [
                            {
                                "name": "reserve0",
                                "type": "uint112",
                                "value": "833,693,636,624,754,153,362"
                            },
                            {
                                "name": "reserve1",
                                "type": "uint112",
                                "value": "73,587,145,436,762,012,057,396,185"
                            }
                        ],
                        "signature": "Sync(uint112,uint112)"
                    },
                    "id": 9,
                    "logData": "0x00000000000000000000000000000000000000000000002d31d2c9697a1017920000000000000000000000000000000000000000003cdeaf25c110f69594e3d9",
                    "logDecoded": true,
                    "operation": "EVENT",
                    "revert": false,
                    "status": true,
                    "topics": [
                        "0x1c411e9a96e071241c2f21f7726b17ae89e3cab4c78be50e062b03a9fffbbad1"
                    ]
                },
                "nodeType": 1
            }
        },
        "gasFlame": [
            {
                "children": [
                    {
                        "children": [
                            {
                                "children": [],
                                "depth": 0,
                                "name": "Initial Gas",
                                "value": 22908
                            },
                            {
                                "children": [
                                    {
                                        "children": [],
                                        "depth": 1,
                                        "name": "transferFrom",
                                        "value": 15025
                                    },
                                    {
                                        "children": [],
                                        "depth": 1,
                                        "name": "getReserves",
                                        "value": 2504
                                    },
                                    {
                                        "children": [
                                            {
                                                "children": [],
                                                "depth": 2,
                                                "name": "transfer",
                                                "value": 12923
                                            },
                                            {
                                                "children": [],
                                                "depth": 2,
                                                "name": "balanceOf",
                                                "value": 534
                                            },
                                            {
                                                "children": [],
                                                "depth": 2,
                                                "name": "balanceOf",
                                                "value": 524
                                            }
                                        ],
                                        "depth": 1,
                                        "name": "swap",
                                        "value": 47804
                                    }
                                ],
                                "depth": 0,
                                "name": "Executed Gas",
                                "value": 75306
                            }
                        ],
                        "depth": -1,
                        "name": "Actual Gas Used",
                        "value": 95414
                    },
                    {
                        "children": [],
                        "depth": -1,
                        "name": "Refunded Gas",
                        "value": 2800
                    }
                ],
                "depth": -2,
                "name": "Total Gas",
                "value": 98214
            }
        ],
        "isConfirmed": true,
        "mainTrace": [
            {
                "children": [
                    {
                        "children": [
                            {
                                "children": [
                                    {
                                        "children": [],
                                        "depth": 2,
                                        "id": 2,
                                        "order": 2
                                    }
                                ],
                                "depth": 1,
                                "id": 1,
                                "order": 1
                            },
                            {
                                "children": [],
                                "depth": 1,
                                "id": 3,
                                "order": 3
                            },
                            {
                                "children": [
                                    {
                                        "children": [
                                            {
                                                "children": [],
                                                "depth": 3,
                                                "id": 6,
                                                "order": 6
                                            }
                                        ],
                                        "depth": 2,
                                        "id": 5,
                                        "order": 5
                                    },
                                    {
                                        "children": [],
                                        "depth": 2,
                                        "id": 7,
                                        "order": 7
                                    },
                                    {
                                        "children": [],
                                        "depth": 2,
                                        "id": 8,
                                        "order": 8
                                    },
                                    {
                                        "children": [],
                                        "depth": 2,
                                        "id": 9,
                                        "order": 9
                                    },
                                    {
                                        "children": [],
                                        "depth": 2,
                                        "id": 10,
                                        "order": 10
                                    }
                                ],
                                "depth": 1,
                                "id": 4,
                                "order": 4
                            }
                        ],
                        "depth": 0,
                        "id": 0,
                        "order": 0
                    }
                ],
                "depth": -1,
                "id": -1,
                "order": -1
            }
        ],
        "mainTraceNodeCount": 11,
        "parentIdMap": {
            "0": -1,
            "1": 0,
            "10": 4,
            "2": 1,
            "3": 0,
            "4": 0,
            "5": 4,
            "6": 5,
            "7": 4,
            "8": 4,
            "9": 4
        },
        "tidyTrace": [
            {
                "children": [
                    {
                        "children": [
                            {
                                "children": [
                                    {
                                        "children": [],
                                        "depth": 2,
                                        "id": 2,
                                        "order": 2
                                    }
                                ],
                                "depth": 1,
                                "id": 1,
                                "order": 1
                            },
                            {
                                "children": [
                                    {
                                        "children": [
                                            {
                                                "children": [],
                                                "depth": 3,
                                                "id": 6,
                                                "order": 6
                                            }
                                        ],
                                        "depth": 2,
                                        "id": 5,
                                        "order": 5
                                    },
                                    {
                                        "children": [],
                                        "depth": 2,
                                        "id": 9,
                                        "order": 9
                                    },
                                    {
                                        "children": [],
                                        "depth": 2,
                                        "id": 10,
                                        "order": 10
                                    }
                                ],
                                "depth": 1,
                                "id": 4,
                                "order": 4
                            }
                        ],
                        "depth": 0,
                        "id": 0,
                        "order": 0
                    }
                ],
                "depth": -1,
                "id": -1,
                "order": -1
            }
        ],
        "tidyTraceNodeCount": 8
    },
    "state_change": {
        "stateChanges": [
            {
                "address": "0x470e8de2ebaef52014a47cb5e6af86884947f08c",
                "erc": "ERC-20",
                "slots": [
                    {
                        "current": "0x000000000000000000000000027c6110b5c8ea3969174e33a87f78cdecb5817e",
                        "key": "0x0000000000000000000000000000000000000000000000000000000000000009",
                        "prev": "0x000000000000000000000000027c61007cab21029b372198596ec3e7d9bd0c3a"
                    },
                    {
                        "current": "0x000000000000000000000000000000003d632b48e4013449fa41404f31cffdac",
                        "key": "0x000000000000000000000000000000000000000000000000000000000000000a",
                        "prev": "0x000000000000000000000000000000003d632b4003b0d8c20d27bc2a4a6d2afc"
                    },
                    {
                        "current": "0x6547454f0000003cdeaf25c110f69594e3d900000000002d31d2c9697a101792",
                        "key": "0x0000000000000000000000000000000000000000000000000000000000000008",
                        "prev": "0x654745430000003cfc0ac6fd82970ce61a4400000000002d1c0059f2c6ab8abc"
                    }
                ],
                "storageVariables": [
                    {
                        "name": "price1CumulativeLast",
                        "type": "uint256",
                        "value": {
                            "current": "81597823050479512324005768273287183788",
                            "prev": "81597822347232423701595378752661826300",
                            "typeTag": 1
                        }
                    },
                    {
                        "name": "reserve0",
                        "type": "uint112",
                        "value": {
                            "current": "833693636624754153362",
                            "prev": "832121194849241893564",
                            "typeTag": 1
                        }
                    },
                    {
                        "name": "reserve1",
                        "type": "uint112",
                        "value": {
                            "current": "73587145436762012057396185",
                            "prev": "73725784336762012057344580",
                            "typeTag": 1
                        }
                    },
                    {
                        "name": "blockTimestampLast",
                        "type": "uint32",
                        "value": {
                            "current": "1699169615",
                            "prev": "1699169603",
                            "typeTag": 1
                        }
                    },
                    {
                        "name": "price0CumulativeLast",
                        "type": "uint256",
                        "value": {
                            "current": "14191729524152205038110211701494982384597434750",
                            "prev": "14191724003713680828090534728690187055935589434",
                            "typeTag": 1
                        }
                    }
                ]
            },
            {
                "address": "0xc02aaa39b223fe8d0a0e5c4f27ead9083c756cc2",
                "erc": "ERC-20",
                "slots": [
                    {
                        "current": "0x00000000000000000000000000000000000000000000000392dbbeba3001da4b",
                        "key": "0xf19c2e9115f258e6a151e96fa1797f1c00dc7fd8bb493958c0faf288572aed61",
                        "prev": "0x000000000000000000000000000000000000000000000003a8ae2e30e3666721"
                    },
                    {
                        "current": "0x00000000000000000000000000000000000000000000002d31d2c9697a101792",
                        "key": "0x91674d69d5f92e0476885678c36e337c08668d179c4f8f75767240d2f7c7a533",
                        "prev": "0x00000000000000000000000000000000000000000000002d1c0059f2c6ab8abc"
                    }
                ],
                "storageVariables": [
                    {
                        "name": "balanceOf",
                        "type": "mapping(address => uint256)",
                        "value": {
                            "pairs": [
                                {
                                    "key": "0x470e8de2ebaef52014a47cb5e6af86884947f08c",
                                    "value": {
                                        "current": "833693636624754153362",
                                        "prev": "832121194849241893564",
                                        "typeTag": 1
                                    }
                                },
                                {
                                    "key": "0xab95799727dfe3431bf4b52d2bafc6f8a6fac2c3",
                                    "value": {
                                        "current": "65922493677444389451",
                                        "prev": "67494935452956649249",
                                        "typeTag": 1
                                    }
                                }
                            ],
                            "typeTag": 4
                        }
                    }
                ]
            },
            {
                "address": "0xc770eefad204b5180df6a14ee197d99d808ee52d",
                "erc": "ERC-20",
                "slots": [
                    {
                        "current": "0x0000000000000000000000000000000000000000003cdeaf25c110f69594e3d9",
                        "key": "0x34c2e03f6207e2786b494b57d614a2996d8a2053f2b70adfea3ef2401ec8d2e9",
                        "prev": "0x0000000000000000000000000000000000000000003cfc0ac6fd82970ce61a44"
                    },
                    {
                        "current": "0x000000000000000000000000000000000000000000003e71f4317c2d3aee1930",
                        "key": "0xde9b2c4fd7dfa091eac7d0a185856737a0f6fd09004f2a8d901811d2f1cf1760",
                        "prev": "0x00000000000000000000000000000000000000000000211652f50a8cc39ce2c5"
                    }
                ],
                "storageVariables": [
                    {
                        "name": "_balances",
                        "type": "mapping(address => uint256)",
                        "value": {
                            "pairs": [
                                {
                                    "key": "0x470e8de2ebaef52014a47cb5e6af86884947f08c",
                                    "value": {
                                        "current": "73587145436762012057396185",
                                        "prev": "73725784336762012057344580",
                                        "typeTag": 1
                                    }
                                },
                                {
                                    "key": "0xdc7bed80d1dba5cd3bf93f82718cef7d2f0f0af8",
                                    "value": {
                                        "current": "294888799999999999875376",
                                        "prev": "156249899999999999926981",
                                        "typeTag": 1
                                    }
                                }
                            ],
                            "typeTag": 4
                        }
                    }
                ]
            }
        ]
    }
}