{
    "balance_change": {
        "balanceChanges": [
            {
                "account": "0xdb0bcd8078dffeba81a2b4489f0a5212cf7436f1",
                "assets": [
                    {
                        "address": "0x68e54af74b22acaccffa04ccaad13be16ed14eac",
                        "amount": "1,508",
                        "iconUrl": "",
                        "isERC1155": false,
                        "isERC721": false,
                        "sign": false,
                        "value": ""
                    }
                ]
            },
            {
                "account": "0xc0f54f4813fccd34afc6abc46db79636d8f51dae",
                "assets": [
                    {
                        "address": "0x68e54af74b22acaccffa04ccaad13be16ed14eac",
                        "amount": "1,508",
                        "iconUrl": "",
                        "isERC1155": false,
                        "isERC721": false,
                        "sign": true,
                        "value": ""
                    }
                ]
            }
        ]
    },
    "profile": {
        "basic_info": {
            "baseFee": "",
            "blockNumber": 9133906,
            "callData": "0xa9059cbb000000000000000000000000c0f54f4813fccd34afc6abc46db79636d8f51dae000000000000000000000000000000000000000000000000000000231c616400",
            "debugEnable": true,
            "errorInfo": "",
            "eventCount": 1,
            "feeRecipient": "0x5a0b54d5dc17e0aadc383d2db43b0a0d3e029c4c",
            "formatValue": "0",
            "gasLimit": 65000,
            "gasPrice": "30",
            "gasUsed": 36911,
            "intTxnCount": 0,
            "internalRevert": false,
            "internalRevertMessage": "",
            "isContractCreation": false,
            "isFlashloan": false,
            "maxFee": "",
            "nonce": 0,
            "overwritedBlockNumber": -1,
            "priorityFee": "",
            "receiver": "0x68e54af74b22acaccffa04ccaad13be16ed14eac",
            "revertMessage": "",
            "sender": "0xdb0bcd8078dffeba81a2b4489f0a5212cf7436f1",
            "simulationEnable": true,
            "sourceTxnHash": "0xbd2cb33b9a8b80bad78b209a9c45725da9a9de953a0a74795f134a5c549d0eb6",
            "status": true,
            "timestamp": "2019-12-20T04:17:09Z",
            "transactionFee": "0.00110733",
            "txnHash": "0xbd2cb33b9a8b80bad78b209a9c45725da9a9de953a0a74795f134a5c549d0eb6",
            "txnIndex": 9,
            "type": 0,
            "value": "0"
        },
        "fund_flow": [
            {
                "amount": "1,508",
                "from": "0xdb0bcd8078dffeba81a2b4489f0a5212cf7436f1",
                "id": 1,
                "isERC1155": false,
                "isERC721": false,
                "isReverted": false,
                "order": 1,
                "to": "0xc0f54f4813fccd34afc6abc46db79636d8f51dae",
                "token": "0x68e54af74b22acaccffa04ccaad13be16ed14eac"
            }
        ],
        "token_infos": [
            {
                "address": "0x68e54af74b22acaccffa04ccaad13be16ed14eac",
                "decimals": 8
            },
            {
                "address": "0xc02aaa39b223fe8d0a0e5c4f27ead9083c756cc2",
                "decimals": 18
            },
            {
                "address": "0xeeeeeeeeeeeeeeeeeeeeeeeeeeeeeeeeeeeeeeee",
                "decimals": 18
            }
        ]
    },
    "address_label": {
        "labels": [
            {
                "address": "0x68e54af74b22acaccffa04ccaad13be16ed14eac",
                "label": "WENI (WENI)"
            },
            {
                "address": "0x0000000000000000000000000000000000000001",
                "label": "Precompiled"
            },
            {
                "address": "0x0000000000000000000000000000000000000002",
                "label": "Precompiled"
            },
            {
                "address": "0x0000000000000000000000000000000000000003",
                "label": "Precompiled"
            },
            {
                "address": "0x0000000000000000000000000000000000000004",
                "label": "Precompiled"
            },
            {
                "address": "0xeeeeeeeeeeeeeeeeeeeeeeeeeeeeeeeeeeeeeeee",
                "label": "Ether"
            }
        ]
    },
    "trace": {
        "accountLabels": null,
        "dataMap": {
            "-1": {
                "invocation": {
                    "address": "0xdb0bcd8078dffeba81a2b4489f0a5212cf7436f1",
                    "callData": "",
                    "decodedMethod": null,
                    "errorInfo": "",
                    "fromAddress": "",
                    "gasUsed": 0,
                    "id": -1,
                    "methodDecoded": false,
                    "operation": "",
                    "output": "",
                    "revert": false,
                    "revertMessage": "",
                    "selector": "",
                    "status": false,
                    "value": ""
                },
                "nodeType": 0
            },
            "0": {
                "invocation": {
                    "address": "0x68e54af74b22acaccffa04ccaad13be16ed14eac",
                    "callData": "0x000000000000000000000000c0f54f4813fccd34afc6abc46db79636d8f51dae000000000000000000000000000000000000000000000000000000231c616400",
                    "decodedMethod": {
                        "callParams": [
                            {
                                "name": "to",
                                "type": "address",
                                "value": "0xc0f54f4813fccd34afc6abc46db79636d8f51dae"
                            },
                            {
                                "decimalAvailable": true,
                                "name": "value",
                                "type": "uint256",
                                "value": "150,800,000,000"
                            }
                        ],
                        "constructorArguments": "",
                        "name": "transfer",
                        "returnParams": [
                            {
                                "name": "",
                                "type": "bool",
                                "value": true
                            }
                        ],
                        "signature": "transfer(address,uint256)"
                    },
                    "errorInfo": "",
                    "fromAddress": "0xdb0bcd8078dffeba81a2b4489f0a5212cf7436f1",
                    "gasUsed": 36911,
                    "id": 0,
                    "methodDecoded": true,
                    "operation": "CALL",
                    "output": "0x0000000000000000000000000000000000000000000000000000000000000001",
                    "revert": false,
                    "revertMessage": "",
                    "selector": "0xa9059cbb",
                    "status": true,
                    "value": "0"
                },
                "nodeType": 0
            },
            "1": {
                "event": {
                    "contract": "0x68e54af74b22acaccffa04ccaad13be16ed14eac",
                    "decodedLog": {
                        "name": "Transfer",
                        "params": [
                            {
                                "name": "from",
                                "type": "address",
                                "value": "0xdb0bcd8078dffeba81a2b4489f0a5212cf7436f1"
                            },
                            {
                                "name": "to",
                                "type": "address",
                                "value": "0xc0f54f4813fccd34afc6abc46db79636d8f51dae"
                            },
                            {
                                "decimalAvailable": true,
                                "name": "value",
                                "type": "uint256",
                                "value": "150,800,000,000"
                            }
                        ],
                        "signature": "Transfer(address,address,uint256)"
                    },
                    "id": 1,
                    "logData": "0x000000000000000000000000000000000000000000000000000000231c616400",
                    "logDecoded": true,
                    "operation": "EVENT",
                    "revert": false,
                    "status": true,
                    "topics": [
                        "0xddf252ad1be2c89b69c2b068fc378daa952ba7f163c4a11628f55a4df523b3ef",
                        "0x000000000000000000000000db0bcd8078dffeba81a2b4489f0a5212cf7436f1",
                        "0x000000000000000000000000c0f54f4813fccd34afc6abc46db79636d8f51dae"
                    ]
                },
                "nodeType": 1
            }
        },
        "gasFlame": [
            {
                "children": [
                    {
                        "children": [
                            {
                                "children": [],
                                "depth": 0,
                                "name": "Initial Gas",
                                "value": 21608
                            },
                            {
                                "children": [],
                                "depth": 0,
                                "name": "Executed Gas",
                                "value": 30303
                            }
                        ],
                        "depth": -1,
                        "name": "Actual Gas Used",
                        "value": 36911
                    },
                    {
                        "children": [],
                        "depth": -1,
                        "name": "Refunded Gas",
                        "value": 15000
                    }
                ],
                "depth": -2,
                "name": "Total Gas",
                "value": 51911
            }
        ],
        "isConfirmed": true,
        "mainTrace": [
            {
                "children": [
                    {
                        "children": [
                            {
                                "children": [],
                                "depth": 1,
                                "id": 1,
                                "order": 1
                            }
                        ],
                        "depth": 0,
                        "id": 0,
                        "order": 0
                    }
                ],
                "depth": -1,
                "id": -1,
                "order": -1
            }
        ],
        "mainTraceNodeCount": 2,
        "parentIdMap": {
            "0": -1,
            "1": 0
        },
        "tidyTrace": [
            {
                "children": [
                    {
                        "children": [
                            {
                                "children": [],
                                "depth": 1,
                                "id": 1,
                                "order": 1
                            }
                        ],
                        "depth": 0,
                        "id": 0,
                        "order": 0
                    }
                ],
                "depth": -1,
                "id": -1,
                "order": -1
            }
        ],
        "tidyTraceNodeCount": 2
    },
    "state_change": {
        "stateChanges": [
            {
                "address": "0x68e54af74b22acaccffa04ccaad13be16ed14eac",
                "erc": "ERC-20",
                "slots": [
                    {
                        "current": "0x0000000000000000000000000000000000000000000000000000000000000000",
                        "key": "0xdd0fbdbe623dc6960ef7641c80e1324471fca520cfac8b90964e6cd07fddbb4c",
                        "prev": "0x000000000000000000000000000000000000000000000000000000231c616400"
                    },
                    {
                        "current": "0x000000000000000000000000000000000000000000000000000000231c616400",
                        "key": "0x7bf5282df63e7f95a46bbdb1b71799d8305ccd5cf7dbfd47a11333dd8d7215aa",
                        "prev": "0x0000000000000000000000000000000000000000000000000000000000000000"
                    }
                ],
                "storageVariables": [
                    {
                        "name": "_balances",
                        "type": "mapping(address => uint256)",
                        "value": {
                            "pairs": [
                                {
                                    "key": "0xc0f54f4813fccd34afc6abc46db79636d8f51dae",
                                    "value": {
                                        "current": "150800000000",
                                        "prev": "0",
                                        "typeTag": 1
                                    }
                                },
                                {
                                    "key": "0xdb0bcd8078dffeba81a2b4489f0a5212cf7436f1",
                                    "value": {
                                        "current": "0",
                                        "prev": "150800000000",
                                        "typeTag": 1
                                    }
                                }
                            ],
                            "typeTag": 4
                        }
                    }
                ]
            }
        ]
    }
}