{
    "balance_change": {
        "balanceChanges": []
    },
    "profile": {
        "basic_info": {
            "baseFee": "",
            "blockNumber": 9799546,
            "callData": "0xe1fa8e84a6a8156bdf44a5185d082e47c0cad40f89bc3d0fd3a9b4fbed9c030db0c2c4fb",
            "debugEnable": true,
            "errorInfo": "",
            "eventCount": 1,
            "feeRecipient": "0x5a0b54d5dc17e0aadc383d2db43b0a0d3e029c4c",
            "formatValue": "0",
            "gasLimit": 1600000,
            "gasPrice": "10",
            "gasUsed": 65792,
            "intTxnCount": 0,
            "internalRevert": false,
            "internalRevertMessage": "",
            "isContractCreation": false,
            "isFlashloan": false,
            "maxFee": "",
            "nonce": 704128,
            "overwritedBlockNumber": -1,
            "priorityFee": "",
            "receiver": "0xcd111aa492a9c77a367c36e6d6af8e6f212e0c8e",
            "revertMessage": "",
            "sender": "0x00472c1e4275230354dbe5007a5976053f12610a",
            "simulationEnable": true,
            "sourceTxnHash": "0xbd3994d61be6b0f88b92b72490746799adb3940e20ef783a592b898ca11679b2",
            "status": true,
            "timestamp": "2020-04-03T14:27:27Z",
            "transactionFee": "0.00065792",
            "txnHash": "0xbd3994d61be6b0f88b92b72490746799adb3940e20ef783a592b898ca11679b2",
            "txnIndex": 144,
            "type": 0,
            "value": "0"
        },
        "fund_flow": [],
        "token_infos": [
            {
                "address": "0xc02aaa39b223fe8d0a0e5c4f27ead9083c756cc2",
                "decimals": 18
            },
            {
                "address": "0xeeeeeeeeeeeeeeeeeeeeeeeeeeeeeeeeeeeeeeee",
                "decimals": 18
            }
        ]
    },
    "address_label": {
        "labels": [
            {
                "address": "0x0000000000000000000000000000000000000002",
                "label": "Precompiled"
            },
            {
                "address": "0x0000000000000000000000000000000000000003",
                "label": "Precompiled"
            },
            {
                "address": "0x0000000000000000000000000000000000000004",
                "label": "Precompiled"
            },
            {
                "address": "0xeeeeeeeeeeeeeeeeeeeeeeeeeeeeeeeeeeeeeeee",
                "label": "Ether"
            },
            {
                "address": "0x00472c1e4275230354dbe5007a5976053f12610a",
                "label": "Acronis"
            },
            {
                "address": "0xcd111aa492a9c77a367c36e6d6af8e6f212e0c8e",
                "label": "Acronis: Contract"
            },
            {
                "address": "0x0000000000000000000000000000000000000001",
                "label": "Precompiled"
            }
        ]
    },
    "trace": {
        "accountLabels": null,
        "dataMap": {
            "-1": {
                "invocation": {
                    "address": "0x00472c1e4275230354dbe5007a5976053f12610a",
                    "callData": "",
                    "decodedMethod": null,
                    "errorInfo": "",
                    "fromAddress": "",
                    "gasUsed": 0,
                    "id": -1,
                    "methodDecoded": false,
                    "operation": "",
                    "output": "",
                    "revert": false,
                    "revertMessage": "",
                    "selector": "",
                    "status": false,
                    "value": ""
                },
                "nodeType": 0
            },
            "0": {
                "invocation": {
                    "address": "0xcd111aa492a9c77a367c36e6d6af8e6f212e0c8e",
                    "callData": "0xa6a8156bdf44a5185d082e47c0cad40f89bc3d0fd3a9b4fbed9c030db0c2c4fb",
                    "decodedMethod": {
                        "callParams": [
                            {
                                "name": "id",
                                "type": "bytes32",
                                "value": "0xa6a8156bdf44a5185d082e47c0cad40f89bc3d0fd3a9b4fbed9c030db0c2c4fb"
                            }
                        ],
                        "constructorArguments": "",
                        "name": "register",
                        "returnParams": [],
                        "signature": "register(bytes32)"
                    },
                    "errorInfo": "",
                    "fromAddress": "0x00472c1e4275230354dbe5007a5976053f12610a",
                    "gasUsed": 65792,
                    "id": 0,
                    "methodDecoded": true,
                    "operation": "CALL",
                    "output": "",
                    "revert": false,
                    "revertMessage": "",
                    "selector": "0xe1fa8e84",
                    "status": true,
                    "value": "0"
                },
                "nodeType": 0
            },
            "1": {
                "event": {
                    "contract": "0xcd111aa492a9c77a367c36e6d6af8e6f212e0c8e",
                    "decodedLog": null,
                    "id": 1,
                    "logData": "0xa6a8156bdf44a5185d082e47c0cad40f89bc3d0fd3a9b4fbed9c030db0c2c4fb",
                    "logDecoded": false,
                    "operation": "EVENT",
                    "revert": false,
                    "status": true,
                    "topics": [
                        "0x78e4fc71ff7e525b3b4660a76336a2046232fd9bba9c65abb22fa3d07d6e7066"
                    ]
                },
                "nodeType": 1
            }
        },
        "gasFlame": [
            {
                "children": [
                    {
                        "children": [
                            {
                                "children": [],
                                "depth": 0,
                                "name": "Initial Gas",
                                "value": 21576
                            },
                            {
                                "children": [],
                                "depth": 0,
                                "name": "Executed Gas",
                                "value": 44216
                            }
                        ],
                        "depth": -1,
                        "name": "Actual Gas Used",
                        "value": 65792
                    },
                    {
                        "children": [],
                        "depth": -1,
                        "name": "Refunded Gas",
                        "value": 0
                    }
                ],
                "depth": -2,
                "name": "Total Gas",
                "value": 65792
            }
        ],
        "isConfirmed": true,
        "mainTrace": [
            {
                "children": [
                    {
                        "children": [
                            {
                                "children": [],
                                "depth": 1,
                                "id": 1,
                                "order": 1
                            }
                        ],
                        "depth": 0,
                        "id": 0,
                        "order": 0
                    }
                ],
                "depth": -1,
                "id": -1,
                "order": -1
            }
        ],
        "mainTraceNodeCount": 2,
        "parentIdMap": {
            "0": -1,
            "1": 0
        },
        "tidyTrace": [
            {
                "children": [
                    {
                        "children": [
                            {
                                "children": [],
                                "depth": 1,
                                "id": 1,
                                "order": 1
                            }
                        ],
                        "depth": 0,
                        "id": 0,
                        "order": 0
                    }
                ],
                "depth": -1,
                "id": -1,
                "order": -1
            }
        ],
        "tidyTraceNodeCount": 2
    },
    "state_change": {
        "stateChanges": [
            {
                "address": "0xcd111aa492a9c77a367c36e6d6af8e6f212e0c8e",
                "erc": "",
                "slots": [
                    {
                        "current": "0x00000000000000000000000000472c1e4275230354dbe5007a5976053f12610a",
                        "key": "0xf7a6c37be23a47b98516d7a30a5193fa9b3959a4ae716723cdb4bb42f2478800",
                        "prev": "0x0000000000000000000000000000000000000000000000000000000000000000"
                    },
                    {
                        "current": "0x000000000000000000000000000000000000000000000000000000005e8747cf",
                        "key": "0xf7a6c37be23a47b98516d7a30a5193fa9b3959a4ae716723cdb4bb42f2478801",
                        "prev": "0x0000000000000000000000000000000000000000000000000000000000000000"
                    }
                ],
                "storageVariables": []
            }
        ]
    }
}