{
    "balance_change": {
        "balanceChanges": []
    },
    "profile": {
        "basic_info": {
            "baseFee": "",
            "blockNumber": 10699082,
            "callData": "0x7ff36ab500000000000000000000000000000000000000000000001b27ae2283cc01749100000000000000000000000000000000000000000000000000000000000000800000000000000000000000003518998395bb5d4cde2a6181f745f43c0fda3221000000000000000000000000000000000000000000000000000000005f3ed2c80000000000000000000000000000000000000000000000000000000000000002000000000000000000000000c02aaa39b223fe8d0a0e5c4f27ead9083c756cc2000000000000000000000000cc4304a31d09258b0029ea7fe63d032f52e44efe",
            "debugEnable": true,
            "errorInfo": "execution reverted",
            "eventCount": 0,
            "feeRecipient": "0xea674fdde714fd979de3edf0f56aa9716b898ec8",
            "formatValue": "1.7",
            "gasLimit": 172170,
            "gasPrice": "84",
            "gasUsed": 23411,
            "intTxnCount": 0,
            "internalRevert": false,
            "internalRevertMessage": "",
            "isContractCreation": false,
            "isFlashloan": false,
            "maxFee": "",
            "nonce": 248,
            "overwritedBlockNumber": -1,
            "priorityFee": "",
            "receiver": "0x7a250d5630b4cf539739df2c5dacb4c659f2488d",
            "revertMessage": "UniswapV2Router: EXPIRED",
            "sender": "0xae6dcd07fac9d7cccc98509120c1071048cdd8a1",
            "simulationEnable": true,
            "sourceTxnHash": "0xbdbfc91a4f8bf4d87f8b5b16a11c5dd2f2502384a12859806ae1795803819c4c",
            "status": false,
            "timestamp": "2020-08-20T19:48:49Z",
            "transactionFee": "0.001966524",
            "txnHash": "0xbdbfc91a4f8bf4d87f8b5b16a11c5dd2f2502384a12859806ae1795803819c4c",
            "txnIndex": 93,
            "type": 0,
            "value": "1700000000000000000"
        },
        "fund_flow": [],
        "token_infos": [
            {
                "address": "0xeeeeeeeeeeeeeeeeeeeeeeeeeeeeeeeeeeeeeeee",
                "decimals": 18
            },
            {
                "address": "0xc02aaa39b223fe8d0a0e5c4f27ead9083c756cc2",
                "decimals": 18
            }
        ]
    },
    "address_label": {
        "labels": [
            {
                "address": "0x0000000000000000000000000000000000000004",
                "label": "Precompiled"
            },
            {
                "address": "0xeeeeeeeeeeeeeeeeeeeeeeeeeeeeeeeeeeeeeeee",
                "label": "Ether"
            },
            {
                "address": "0x7a250d5630b4cf539739df2c5dacb4c659f2488d",
                "label": "Uniswap V2: Router 2"
            },
            {
                "address": "0xc02aaa39b223fe8d0a0e5c4f27ead9083c756cc2",
                "label": "Wrapped Ether (WETH)"
            },
            {
                "address": "0xcc4304a31d09258b0029ea7fe63d032f52e44efe",
                "label": "TrustSwap: SWAP Token"
            },
            {
                "address": "0x0000000000000000000000000000000000000001",
                "label": "Precompiled"
            },
            {
                "address": "0x0000000000000000000000000000000000000002",
                "label": "Precompiled"
            },
            {
                "address": "0x0000000000000000000000000000000000000003",
                "label": "Precompiled"
            }
        ]
    },
    "trace": {
        "accountLabels": null,
        "dataMap": {
            "-1": {
                "invocation": {
                    "address": "0xae6dcd07fac9d7cccc98509120c1071048cdd8a1",
                    "callData": "",
                    "decodedMethod": null,
                    "errorInfo": "",
                    "fromAddress": "",
                    "gasUsed": 0,
                    "id": -1,
                    "methodDecoded": false,
                    "operation": "",
                    "output": "",
                    "revert": false,
                    "revertMessage": "",
                    "selector": "",
                    "status": false,
                    "value": ""
                },
                "nodeType": 0
            },
            "0": {
                "invocation": {
                    "address": "0x7a250d5630b4cf539739df2c5dacb4c659f2488d",
                    "callData": "0x00000000000000000000000000000000000000000000001b27ae2283cc01749100000000000000000000000000000000000000000000000000000000000000800000000000000000000000003518998395bb5d4cde2a6181f745f43c0fda3221000000000000000000000000000000000000000000000000000000005f3ed2c80000000000000000000000000000000000000000000000000000000000000002000000000000000000000000c02aaa39b223fe8d0a0e5c4f27ead9083c756cc2000000000000000000000000cc4304a31d09258b0029ea7fe63d032f52e44efe",
                    "decodedMethod": {
                        "callParams": [
                            {
                                "name": "amountOutMin",
                                "type": "uint256",
                                "value": "500,921,350,753,043,444,881"
                            },
                            {
                                "name": "path",
                                "type": "address[]",
                                "value": [
                                    "0xc02aaa39b223fe8d0a0e5c4f27ead9083c756cc2",
                                    "0xcc4304a31d09258b0029ea7fe63d032f52e44efe"
                                ]
                            },
                            {
                                "name": "to",
                                "type": "address",
                                "value": "0x3518998395bb5d4cde2a6181f745f43c0fda3221"
                            },
                            {
                                "name": "deadline",
                                "type": "uint256",
                                "value": "1,597,952,712"
                            }
                        ],
                        "constructorArguments": "",
                        "name": "swapExactETHForTokens",
                        "returnParams": [],
                        "signature": "swapExactETHForTokens(uint256,address[],address,uint256)"
                    },
                    "errorInfo": "execution reverted",
                    "fromAddress": "0xae6dcd07fac9d7cccc98509120c1071048cdd8a1",
                    "gasUsed": 23411,
                    "id": 0,
                    "methodDecoded": true,
                    "operation": "CALL",
                    "output": "0x08c379a000000000000000000000000000000000000000000000000000000000000000200000000000000000000000000000000000000000000000000000000000000018556e69737761705632526f757465723a20455850495245440000000000000000",
                    "revert": true,
                    "revertMessage": "UniswapV2Router: EXPIRED",
                    "selector": "0x7ff36ab5",
                    "status": false,
                    "value": "1.7"
                },
                "nodeType": 0
            }
        },
        "gasFlame": [
            {
                "children": [
                    {
                        "children": [
                            {
                                "children": [],
                                "depth": 0,
                                "name": "Initial Gas",
                                "value": 22848
                            },
                            {
                                "children": [],
                                "depth": 0,
                                "name": "Executed Gas",
                                "value": 563
                            }
                        ],
                        "depth": -1,
                        "name": "Actual Gas Used",
                        "value": 23411
                    },
                    {
                        "children": [],
                        "depth": -1,
                        "name": "Refunded Gas",
                        "value": 0
                    }
                ],
                "depth": -2,
                "name": "Total Gas",
                "value": 23411
            }
        ],
        "isConfirmed": true,
        "mainTrace": [
            {
                "children": [
                    {
                        "children": [],
                        "depth": 0,
                        "id": 0,
                        "order": 0
                    }
                ],
                "depth": -1,
                "id": -1,
                "order": -1
            }
        ],
        "mainTraceNodeCount": 1,
        "parentIdMap": {
            "0": -1
        },
        "tidyTrace": [
            {
                "children": [
                    {
                        "children": [],
                        "depth": 0,
                        "id": 0,
                        "order": 0
                    }
                ],
                "depth": -1,
                "id": -1,
                "order": -1
            }
        ],
        "tidyTraceNodeCount": 1
    },
    "state_change": {
        "stateChanges": []
    }
}