{
    "balance_change": {
        "balanceChanges": [
            {
                "account": "0x5159748551e2db3328324e381be80d49f680c63b",
                "assets": [
                    {
                        "address": "0xf3586684107ce0859c44aa2b2e0fb8cd8731a15a",
                        "amount": "9,900",
                        "iconUrl": "",
                        "isERC1155": false,
                        "isERC721": false,
                        "sign": false,
                        "value": ""
                    }
                ]
            },
            {
                "account": "0xe3c66e7142ed3f126e7cbe8193dcefdff4722a72",
                "assets": [
                    {
                        "address": "0xf3586684107ce0859c44aa2b2e0fb8cd8731a15a",
                        "amount": "9,900",
                        "iconUrl": "",
                        "isERC1155": false,
                        "isERC721": false,
                        "sign": true,
                        "value": ""
                    }
                ]
            }
        ]
    },
    "profile": {
        "basic_info": {
            "baseFee": "",
            "blockNumber": 9004255,
            "callData": "0xa9059cbb000000000000000000000000e3c66e7142ed3f126e7cbe8193dcefdff4722a72000000000000000000000000000000000000000000000000000000170cdc1e00",
            "debugEnable": true,
            "errorInfo": "",
            "eventCount": 1,
            "feeRecipient": "0xea674fdde714fd979de3edf0f56aa9716b898ec8",
            "formatValue": "0",
            "gasLimit": 200000,
            "gasPrice": "19",
            "gasUsed": 51985,
            "intTxnCount": 0,
            "internalRevert": false,
            "internalRevertMessage": "",
            "isContractCreation": false,
            "isFlashloan": false,
            "maxFee": "",
            "nonce": 85716,
            "overwritedBlockNumber": -1,
            "priorityFee": "",
            "receiver": "0xf3586684107ce0859c44aa2b2e0fb8cd8731a15a",
            "revertMessage": "",
            "sender": "0x5159748551e2db3328324e381be80d49f680c63b",
            "simulationEnable": true,
            "sourceTxnHash": "0xbd06cfce0cff2dd0afcf4697ce89ee7b0964b713f835b336e1bb5bea9ffdb218",
            "status": true,
            "timestamp": "2019-11-26T12:50:31Z",
            "transactionFee": "0.000987715",
            "txnHash": "0xbd06cfce0cff2dd0afcf4697ce89ee7b0964b713f835b336e1bb5bea9ffdb218",
            "txnIndex": 44,
            "type": 0,
            "value": "0"
        },
        "fund_flow": [
            {
                "amount": "9,900",
                "from": "0x5159748551e2db3328324e381be80d49f680c63b",
                "id": 1,
                "isERC1155": false,
                "isERC721": false,
                "isReverted": false,
                "order": 1,
                "to": "0xe3c66e7142ed3f126e7cbe8193dcefdff4722a72",
                "token": "0xf3586684107ce0859c44aa2b2e0fb8cd8731a15a"
            }
        ],
        "token_infos": [
            {
                "address": "0xc02aaa39b223fe8d0a0e5c4f27ead9083c756cc2",
                "decimals": 18
            },
            {
                "address": "0xf3586684107ce0859c44aa2b2e0fb8cd8731a15a",
                "decimals": 7
            },
            {
                "address": "0xeeeeeeeeeeeeeeeeeeeeeeeeeeeeeeeeeeeeeeee",
                "decimals": 18
            }
        ]
    },
    "address_label": {
        "labels": [
            {
                "address": "0x0000000000000000000000000000000000000004",
                "label": "Precompiled"
            },
            {
                "address": "0xeeeeeeeeeeeeeeeeeeeeeeeeeeeeeeeeeeeeeeee",
                "label": "Ether"
            },
            {
                "address": "0xf3586684107ce0859c44aa2b2e0fb8cd8731a15a",
                "label": "KaratBank: Old KBC Token"
            },
            {
                "address": "0x0000000000000000000000000000000000000001",
                "label": "Precompiled"
            },
            {
                "address": "0x0000000000000000000000000000000000000002",
                "label": "Precompiled"
            },
            {
                "address": "0x0000000000000000000000000000000000000003",
                "label": "Precompiled"
            }
        ]
    },
    "trace": {
        "accountLabels": null,
        "dataMap": {
            "-1": {
                "invocation": {
                    "address": "0x5159748551e2db3328324e381be80d49f680c63b",
                    "callData": "",
                    "decodedMethod": null,
                    "errorInfo": "",
                    "fromAddress": "",
                    "gasUsed": 0,
                    "id": -1,
                    "methodDecoded": false,
                    "operation": "",
                    "output": "",
                    "revert": false,
                    "revertMessage": "",
                    "selector": "",
                    "status": false,
                    "value": ""
                },
                "nodeType": 0
            },
            "0": {
                "invocation": {
                    "address": "0xf3586684107ce0859c44aa2b2e0fb8cd8731a15a",
                    "callData": "0x000000000000000000000000e3c66e7142ed3f126e7cbe8193dcefdff4722a72000000000000000000000000000000000000000000000000000000170cdc1e00",
                    "decodedMethod": {
                        "callParams": [
                            {
                                "name": "_to",
                                "type": "address",
                                "value": "0xe3c66e7142ed3f126e7cbe8193dcefdff4722a72"
                            },
                            {
                                "decimalAvailable": true,
                                "name": "_value",
                                "type": "uint256",
                                "value": "99,000,000,000"
                            }
                        ],
                        "constructorArguments": "",
                        "name": "transfer",
                        "returnParams": [
                            {
                                "name": "",
                                "type": "bool",
                                "value": true
                            }
                        ],
                        "signature": "transfer(address,uint256)"
                    },
                    "errorInfo": "",
                    "fromAddress": "0x5159748551e2db3328324e381be80d49f680c63b",
                    "gasUsed": 51985,
                    "id": 0,
                    "methodDecoded": true,
                    "operation": "CALL",
                    "output": "0x0000000000000000000000000000000000000000000000000000000000000001",
                    "revert": false,
                    "revertMessage": "",
                    "selector": "0xa9059cbb",
                    "status": true,
                    "value": "0"
                },
                "nodeType": 0
            },
            "1": {
                "event": {
                    "contract": "0xf3586684107ce0859c44aa2b2e0fb8cd8731a15a",
                    "decodedLog": {
                        "name": "Transfer",
                        "params": [
                            {
                                "name": "from",
                                "type": "address",
                                "value": "0x5159748551e2db3328324e381be80d49f680c63b"
                            },
                            {
                                "name": "to",
                                "type": "address",
                                "value": "0xe3c66e7142ed3f126e7cbe8193dcefdff4722a72"
                            },
                            {
                                "decimalAvailable": true,
                                "name": "value",
                                "type": "uint256",
                                "value": "99,000,000,000"
                            }
                        ],
                        "signature": "Transfer(address,address,uint256)"
                    },
                    "id": 1,
                    "logData": "0x000000000000000000000000000000000000000000000000000000170cdc1e00",
                    "logDecoded": true,
                    "operation": "EVENT",
                    "revert": false,
                    "status": true,
                    "topics": [
                        "0xddf252ad1be2c89b69c2b068fc378daa952ba7f163c4a11628f55a4df523b3ef",
                        "0x0000000000000000000000005159748551e2db3328324e381be80d49f680c63b",
                        "0x000000000000000000000000e3c66e7142ed3f126e7cbe8193dcefdff4722a72"
                    ]
                },
                "nodeType": 1
            }
        },
        "gasFlame": [
            {
                "children": [
                    {
                        "children": [
                            {
                                "children": [],
                                "depth": 0,
                                "name": "Initial Gas",
                                "value": 23064
                            },
                            {
                                "children": [],
                                "depth": 0,
                                "name": "Executed Gas",
                                "value": 28921
                            }
                        ],
                        "depth": -1,
                        "name": "Actual Gas Used",
                        "value": 51985
                    },
                    {
                        "children": [],
                        "depth": -1,
                        "name": "Refunded Gas",
                        "value": 0
                    }
                ],
                "depth": -2,
                "name": "Total Gas",
                "value": 51985
            }
        ],
        "isConfirmed": true,
        "mainTrace": [
            {
                "children": [
                    {
                        "children": [
                            {
                                "children": [],
                                "depth": 1,
                                "id": 1,
                                "order": 1
                            }
                        ],
                        "depth": 0,
                        "id": 0,
                        "order": 0
                    }
                ],
                "depth": -1,
                "id": -1,
                "order": -1
            }
        ],
        "mainTraceNodeCount": 2,
        "parentIdMap": {
            "0": -1,
            "1": 0
        },
        "tidyTrace": [
            {
                "children": [
                    {
                        "children": [
                            {
                                "children": [],
                                "depth": 1,
                                "id": 1,
                                "order": 1
                            }
                        ],
                        "depth": 0,
                        "id": 0,
                        "order": 0
                    }
                ],
                "depth": -1,
                "id": -1,
                "order": -1
            }
        ],
        "tidyTraceNodeCount": 2
    },
    "state_change": {
        "stateChanges": [
            {
                "address": "0xf3586684107ce0859c44aa2b2e0fb8cd8731a15a",
                "erc": "ERC-20",
                "slots": [
                    {
                        "current": "0x000000000000000000000000000000000000000000000000001b63cbaa1c3636",
                        "key": "0x03f35e3b13f344557799aca56a491c53cb3775104ab4c9cf983364e3e6774de9",
                        "prev": "0x000000000000000000000000000000000000000000000000001b63e2b6f85436"
                    },
                    {
                        "current": "0x000000000000000000000000000000000000000000000000000000170cdc1e00",
                        "key": "0x6a3088ceaacaef4f5e3a6823eba76b357d549fc44e57830c16e3ccdb92707d7f",
                        "prev": "0x0000000000000000000000000000000000000000000000000000000000000000"
                    }
                ],
                "storageVariables": [
                    {
                        "name": "balances",
                        "type": "mapping(address => uint256)",
                        "value": {
                            "pairs": [
                                {
                                    "key": "0x5159748551e2db3328324e381be80d49f680c63b",
                                    "value": {
                                        "current": "7709550754674230",
                                        "prev": "7709649754674230",
                                        "typeTag": 1
                                    }
                                },
                                {
                                    "key": "0xe3c66e7142ed3f126e7cbe8193dcefdff4722a72",
                                    "value": {
                                        "current": "99000000000",
                                        "prev": "0",
                                        "typeTag": 1
                                    }
                                }
                            ],
                            "typeTag": 4
                        }
                    }
                ]
            }
        ]
    }
}