{
    "balance_change": {
        "balanceChanges": [
            {
                "account": "0xcee4533a770b4c62ea591ad426212c81457c9590",
                "assets": [
                    {
                        "address": "0xd7b39faa4168d2d0dde7804b1c9c2fa4afe2c194",
                        "amount": "50",
                        "iconUrl": "",
                        "isERC1155": false,
                        "isERC721": false,
                        "sign": false,
                        "value": ""
                    }
                ]
            },
            {
                "account": "0x676023730a3d155f68b3d79035d7847cb3e4eba5",
                "assets": [
                    {
                        "address": "0xd7b39faa4168d2d0dde7804b1c9c2fa4afe2c194",
                        "amount": "50",
                        "iconUrl": "",
                        "isERC1155": false,
                        "isERC721": false,
                        "sign": true,
                        "value": ""
                    }
                ]
            }
        ]
    },
    "profile": {
        "basic_info": {
            "baseFee": "",
            "blockNumber": 10226844,
            "callData": "0xa9059cbb000000000000000000000000676023730a3d155f68b3d79035d7847cb3e4eba50000000000000000000000000000000000000000000000000000000000000032",
            "debugEnable": true,
            "errorInfo": "",
            "eventCount": 1,
            "feeRecipient": "0x6a7a43be33ba930fe58f34e07d0ad6ba7adb9b1f",
            "formatValue": "0",
            "gasLimit": 78232,
            "gasPrice": "22",
            "gasUsed": 52155,
            "intTxnCount": 0,
            "internalRevert": false,
            "internalRevertMessage": "",
            "isContractCreation": false,
            "isFlashloan": false,
            "maxFee": "",
            "nonce": 7,
            "overwritedBlockNumber": -1,
            "priorityFee": "",
            "receiver": "0xd7b39faa4168d2d0dde7804b1c9c2fa4afe2c194",
            "revertMessage": "",
            "sender": "0xcee4533a770b4c62ea591ad426212c81457c9590",
            "simulationEnable": true,
            "sourceTxnHash": "0xbda9140f215f4b78a8db31cfc12d2eb6b7ed9a5e54b4414ab9c732d374fc4bbb",
            "status": true,
            "timestamp": "2020-06-08T18:44:09Z",
            "transactionFee": "0.00114741",
            "txnHash": "0xbda9140f215f4b78a8db31cfc12d2eb6b7ed9a5e54b4414ab9c732d374fc4bbb",
            "txnIndex": 43,
            "type": 0,
            "value": "0"
        },
        "fund_flow": [
            {
                "amount": "50",
                "from": "0xcee4533a770b4c62ea591ad426212c81457c9590",
                "id": 1,
                "isERC1155": false,
                "isERC721": false,
                "isReverted": false,
                "order": 1,
                "to": "0x676023730a3d155f68b3d79035d7847cb3e4eba5",
                "token": "0xd7b39faa4168d2d0dde7804b1c9c2fa4afe2c194"
            }
        ],
        "token_infos": [
            {
                "address": "0xc02aaa39b223fe8d0a0e5c4f27ead9083c756cc2",
                "decimals": 18
            },
            {
                "address": "0xeeeeeeeeeeeeeeeeeeeeeeeeeeeeeeeeeeeeeeee",
                "decimals": 18
            }
        ]
    },
    "address_label": {
        "labels": [
            {
                "address": "0xeeeeeeeeeeeeeeeeeeeeeeeeeeeeeeeeeeeeeeee",
                "label": "Ether"
            },
            {
                "address": "0xd7b39faa4168d2d0dde7804b1c9c2fa4afe2c194",
                "label": "BaseToken"
            },
            {
                "address": "0x0000000000000000000000000000000000000001",
                "label": "Precompiled"
            },
            {
                "address": "0x0000000000000000000000000000000000000002",
                "label": "Precompiled"
            },
            {
                "address": "0x0000000000000000000000000000000000000003",
                "label": "Precompiled"
            },
            {
                "address": "0x0000000000000000000000000000000000000004",
                "label": "Precompiled"
            }
        ]
    },
    "trace": {
        "accountLabels": null,
        "dataMap": {
            "-1": {
                "invocation": {
                    "address": "0xcee4533a770b4c62ea591ad426212c81457c9590",
                    "callData": "",
                    "decodedMethod": null,
                    "errorInfo": "",
                    "fromAddress": "",
                    "gasUsed": 0,
                    "id": -1,
                    "methodDecoded": false,
                    "operation": "",
                    "output": "",
                    "revert": false,
                    "revertMessage": "",
                    "selector": "",
                    "status": false,
                    "value": ""
                },
                "nodeType": 0
            },
            "0": {
                "invocation": {
                    "address": "0xd7b39faa4168d2d0dde7804b1c9c2fa4afe2c194",
                    "callData": "0x000000000000000000000000676023730a3d155f68b3d79035d7847cb3e4eba50000000000000000000000000000000000000000000000000000000000000032",
                    "decodedMethod": {
                        "callParams": [
                            {
                                "name": "to",
                                "type": "address",
                                "value": "0x676023730a3d155f68b3d79035d7847cb3e4eba5"
                            },
                            {
                                "decimalAvailable": true,
                                "name": "value",
                                "type": "uint256",
                                "value": "50"
                            }
                        ],
                        "constructorArguments": "",
                        "name": "transfer",
                        "returnParams": [
                            {
                                "name": "",
                                "type": "bool",
                                "value": true
                            }
                        ],
                        "signature": "transfer(address,uint256)"
                    },
                    "errorInfo": "",
                    "fromAddress": "0xcee4533a770b4c62ea591ad426212c81457c9590",
                    "gasUsed": 52155,
                    "id": 0,
                    "methodDecoded": true,
                    "operation": "CALL",
                    "output": "0x0000000000000000000000000000000000000000000000000000000000000001",
                    "revert": false,
                    "revertMessage": "",
                    "selector": "0xa9059cbb",
                    "status": true,
                    "value": "0"
                },
                "nodeType": 0
            },
            "1": {
                "event": {
                    "contract": "0xd7b39faa4168d2d0dde7804b1c9c2fa4afe2c194",
                    "decodedLog": {
                        "name": "Transfer",
                        "params": [
                            {
                                "name": "from",
                                "type": "address",
                                "value": "0xcee4533a770b4c62ea591ad426212c81457c9590"
                            },
                            {
                                "name": "to",
                                "type": "address",
                                "value": "0x676023730a3d155f68b3d79035d7847cb3e4eba5"
                            },
                            {
                                "decimalAvailable": true,
                                "name": "value",
                                "type": "uint256",
                                "value": "50"
                            }
                        ],
                        "signature": "Transfer(address,address,uint256)"
                    },
                    "id": 1,
                    "logData": "0x0000000000000000000000000000000000000000000000000000000000000032",
                    "logDecoded": true,
                    "operation": "EVENT",
                    "revert": false,
                    "status": true,
                    "topics": [
                        "0xddf252ad1be2c89b69c2b068fc378daa952ba7f163c4a11628f55a4df523b3ef",
                        "0x000000000000000000000000cee4533a770b4c62ea591ad426212c81457c9590",
                        "0x000000000000000000000000676023730a3d155f68b3d79035d7847cb3e4eba5"
                    ]
                },
                "nodeType": 1
            }
        },
        "gasFlame": [
            {
                "children": [
                    {
                        "children": [
                            {
                                "children": [],
                                "depth": 0,
                                "name": "Initial Gas",
                                "value": 21572
                            },
                            {
                                "children": [],
                                "depth": 0,
                                "name": "Executed Gas",
                                "value": 30583
                            }
                        ],
                        "depth": -1,
                        "name": "Actual Gas Used",
                        "value": 52155
                    },
                    {
                        "children": [],
                        "depth": -1,
                        "name": "Refunded Gas",
                        "value": 0
                    }
                ],
                "depth": -2,
                "name": "Total Gas",
                "value": 52155
            }
        ],
        "isConfirmed": true,
        "mainTrace": [
            {
                "children": [
                    {
                        "children": [
                            {
                                "children": [],
                                "depth": 1,
                                "id": 1,
                                "order": 1
                            }
                        ],
                        "depth": 0,
                        "id": 0,
                        "order": 0
                    }
                ],
                "depth": -1,
                "id": -1,
                "order": -1
            }
        ],
        "mainTraceNodeCount": 2,
        "parentIdMap": {
            "0": -1,
            "1": 0
        },
        "tidyTrace": [
            {
                "children": [
                    {
                        "children": [
                            {
                                "children": [],
                                "depth": 1,
                                "id": 1,
                                "order": 1
                            }
                        ],
                        "depth": 0,
                        "id": 0,
                        "order": 0
                    }
                ],
                "depth": -1,
                "id": -1,
                "order": -1
            }
        ],
        "tidyTraceNodeCount": 2
    },
    "state_change": {
        "stateChanges": [
            {
                "address": "0xd7b39faa4168d2d0dde7804b1c9c2fa4afe2c194",
                "erc": "ERC-20",
                "slots": [
                    {
                        "current": "0x000000000000000000000000000000000000000000000000000000000000258a",
                        "key": "0x53a6e7f35fe3293f49cd1f64db7da34fe4eadce564c25bd1847cd4267e39c925",
                        "prev": "0x00000000000000000000000000000000000000000000000000000000000025bc"
                    },
                    {
                        "current": "0x0000000000000000000000000000000000000000000000000000000000000032",
                        "key": "0xe9a62880f3b09081de9438f409d6ae24358e5726133f494bc1ed5d94e9221be6",
                        "prev": "0x0000000000000000000000000000000000000000000000000000000000000000"
                    }
                ],
                "storageVariables": [
                    {
                        "name": "_balances",
                        "type": "mapping(address => uint256)",
                        "value": {
                            "pairs": [
                                {
                                    "key": "0x676023730a3d155f68b3d79035d7847cb3e4eba5",
                                    "value": {
                                        "current": "50",
                                        "prev": "0",
                                        "typeTag": 1
                                    }
                                },
                                {
                                    "key": "0xcee4533a770b4c62ea591ad426212c81457c9590",
                                    "value": {
                                        "current": "9610",
                                        "prev": "9660",
                                        "typeTag": 1
                                    }
                                }
                            ],
                            "typeTag": 4
                        }
                    }
                ]
            }
        ]
    }
}