{
    "balance_change": {
        "balanceChanges": [
            {
                "account": "0x7e0df19b9cdd755990bd510dbc8a3685172b07fd",
                "assets": [
                    {
                        "address": "0x4672bad527107471cb5067a887f4656d585a8a31",
                        "amount": "16,622.55",
                        "iconUrl": "",
                        "isERC1155": false,
                        "isERC721": false,
                        "sign": false,
                        "value": ""
                    }
                ]
            },
            {
                "account": "0x925ea5af075bde17811e4bcdc198dc5d3675e466",
                "assets": [
                    {
                        "address": "0x4672bad527107471cb5067a887f4656d585a8a31",
                        "amount": "16,622.55",
                        "iconUrl": "",
                        "isERC1155": false,
                        "isERC721": false,
                        "sign": true,
                        "value": ""
                    }
                ]
            }
        ]
    },
    "profile": {
        "basic_info": {
            "baseFee": "",
            "blockNumber": 6760090,
            "callData": "0xa9059cbb000000000000000000000000925ea5af075bde17811e4bcdc198dc5d3675e4660000000000000000000000000000000000000000000003851c38c2f4a16f0000",
            "debugEnable": true,
            "errorInfo": "",
            "eventCount": 1,
            "feeRecipient": "0x52bc44d5378309ee2abf1539bf71de1b7d7be3b5",
            "formatValue": "0",
            "gasLimit": 36785,
            "gasPrice": "4.7",
            "gasUsed": 36785,
            "intTxnCount": 0,
            "internalRevert": false,
            "internalRevertMessage": "",
            "isContractCreation": false,
            "isFlashloan": false,
            "maxFee": "",
            "nonce": 0,
            "overwritedBlockNumber": -1,
            "priorityFee": "",
            "receiver": "0x4672bad527107471cb5067a887f4656d585a8a31",
            "revertMessage": "",
            "sender": "0x7e0df19b9cdd755990bd510dbc8a3685172b07fd",
            "simulationEnable": true,
            "sourceTxnHash": "0xbdeb81382122828c3eed37361a1ec3d49b4dc7e8624da9918ef03073f7d5e163",
            "status": true,
            "timestamp": "2018-11-23T21:27:24Z",
            "transactionFee": "0.0001728895",
            "txnHash": "0xbdeb81382122828c3eed37361a1ec3d49b4dc7e8624da9918ef03073f7d5e163",
            "txnIndex": 36,
            "type": 0,
            "value": "0"
        },
        "fund_flow": [
            {
                "amount": "16,622.55",
                "from": "0x7e0df19b9cdd755990bd510dbc8a3685172b07fd",
                "id": 1,
                "isERC1155": false,
                "isERC721": false,
                "isReverted": false,
                "order": 1,
                "to": "0x925ea5af075bde17811e4bcdc198dc5d3675e466",
                "token": "0x4672bad527107471cb5067a887f4656d585a8a31"
            }
        ],
        "token_infos": [
            {
                "address": "0x4672bad527107471cb5067a887f4656d585a8a31",
                "decimals": 18
            },
            {
                "address": "0xc02aaa39b223fe8d0a0e5c4f27ead9083c756cc2",
                "decimals": 18
            },
            {
                "address": "0xeeeeeeeeeeeeeeeeeeeeeeeeeeeeeeeeeeeeeeee",
                "decimals": 18
            }
        ]
    },
    "address_label": {
        "labels": [
            {
                "address": "0xeeeeeeeeeeeeeeeeeeeeeeeeeeeeeeeeeeeeeeee",
                "label": "Ether"
            },
            {
                "address": "0x4672bad527107471cb5067a887f4656d585a8a31",
                "label": "Dropil (DROP)"
            },
            {
                "address": "0x0000000000000000000000000000000000000001",
                "label": "Precompiled"
            },
            {
                "address": "0x0000000000000000000000000000000000000002",
                "label": "Precompiled"
            },
            {
                "address": "0x0000000000000000000000000000000000000003",
                "label": "Precompiled"
            },
            {
                "address": "0x0000000000000000000000000000000000000004",
                "label": "Precompiled"
            }
        ]
    },
    "trace": {
        "accountLabels": null,
        "dataMap": {
            "-1": {
                "invocation": {
                    "address": "0x7e0df19b9cdd755990bd510dbc8a3685172b07fd",
                    "callData": "",
                    "decodedMethod": null,
                    "errorInfo": "",
                    "fromAddress": "",
                    "gasUsed": 0,
                    "id": -1,
                    "methodDecoded": false,
                    "operation": "",
                    "output": "",
                    "revert": false,
                    "revertMessage": "",
                    "selector": "",
                    "status": false,
                    "value": ""
                },
                "nodeType": 0
            },
            "0": {
                "invocation": {
                    "address": "0x4672bad527107471cb5067a887f4656d585a8a31",
                    "callData": "0x000000000000000000000000925ea5af075bde17811e4bcdc198dc5d3675e4660000000000000000000000000000000000000000000003851c38c2f4a16f0000",
                    "decodedMethod": {
                        "callParams": [
                            {
                                "name": "to",
                                "type": "address",
                                "value": "0x925ea5af075bde17811e4bcdc198dc5d3675e466"
                            },
                            {
                                "decimalAvailable": true,
                                "name": "tokens",
                                "type": "uint256",
                                "value": "16,622,550,000,000,000,000,000"
                            }
                        ],
                        "constructorArguments": "",
                        "name": "transfer",
                        "returnParams": [
                            {
                                "name": "success",
                                "type": "bool",
                                "value": true
                            }
                        ],
                        "signature": "transfer(address,uint256)"
                    },
                    "errorInfo": "",
                    "fromAddress": "0x7e0df19b9cdd755990bd510dbc8a3685172b07fd",
                    "gasUsed": 36785,
                    "id": 0,
                    "methodDecoded": true,
                    "operation": "CALL",
                    "output": "0x0000000000000000000000000000000000000000000000000000000000000001",
                    "revert": false,
                    "revertMessage": "",
                    "selector": "0xa9059cbb",
                    "status": true,
                    "value": "0"
                },
                "nodeType": 0
            },
            "1": {
                "event": {
                    "contract": "0x4672bad527107471cb5067a887f4656d585a8a31",
                    "decodedLog": {
                        "name": "Transfer",
                        "params": [
                            {
                                "name": "from",
                                "type": "address",
                                "value": "0x7e0df19b9cdd755990bd510dbc8a3685172b07fd"
                            },
                            {
                                "name": "to",
                                "type": "address",
                                "value": "0x925ea5af075bde17811e4bcdc198dc5d3675e466"
                            },
                            {
                                "decimalAvailable": true,
                                "name": "tokens",
                                "type": "uint256",
                                "value": "16,622,550,000,000,000,000,000"
                            }
                        ],
                        "signature": "Transfer(address,address,uint256)"
                    },
                    "id": 1,
                    "logData": "0x0000000000000000000000000000000000000000000003851c38c2f4a16f0000",
                    "logDecoded": true,
                    "operation": "EVENT",
                    "revert": false,
                    "status": true,
                    "topics": [
                        "0xddf252ad1be2c89b69c2b068fc378daa952ba7f163c4a11628f55a4df523b3ef",
                        "0x0000000000000000000000007e0df19b9cdd755990bd510dbc8a3685172b07fd",
                        "0x000000000000000000000000925ea5af075bde17811e4bcdc198dc5d3675e466"
                    ]
                },
                "nodeType": 1
            }
        },
        "gasFlame": [
            {
                "children": [
                    {
                        "children": [
                            {
                                "children": [],
                                "depth": 0,
                                "name": "Initial Gas",
                                "value": 23320
                            },
                            {
                                "children": [],
                                "depth": 0,
                                "name": "Executed Gas",
                                "value": 13465
                            }
                        ],
                        "depth": -1,
                        "name": "Actual Gas Used",
                        "value": 36785
                    },
                    {
                        "children": [],
                        "depth": -1,
                        "name": "Refunded Gas",
                        "value": 0
                    }
                ],
                "depth": -2,
                "name": "Total Gas",
                "value": 36785
            }
        ],
        "isConfirmed": true,
        "mainTrace": [
            {
                "children": [
                    {
                        "children": [
                            {
                                "children": [],
                                "depth": 1,
                                "id": 1,
                                "order": 1
                            }
                        ],
                        "depth": 0,
                        "id": 0,
                        "order": 0
                    }
                ],
                "depth": -1,
                "id": -1,
                "order": -1
            }
        ],
        "mainTraceNodeCount": 2,
        "parentIdMap": {
            "0": -1,
            "1": 0
        },
        "tidyTrace": [
            {
                "children": [
                    {
                        "children": [
                            {
                                "children": [],
                                "depth": 1,
                                "id": 1,
                                "order": 1
                            }
                        ],
                        "depth": 0,
                        "id": 0,
                        "order": 0
                    }
                ],
                "depth": -1,
                "id": -1,
                "order": -1
            }
        ],
        "tidyTraceNodeCount": 2
    },
    "state_change": {
        "stateChanges": [
            {
                "address": "0x4672bad527107471cb5067a887f4656d585a8a31",
                "erc": "ERC-20",
                "slots": [
                    {
                        "current": "0x00000000000000000000000000000000000000000000032682181ee443410000",
                        "key": "0xf3f57cb58075155cd251ada2c91ed46522eab3bff802c932fd119a61754ac5a5",
                        "prev": "0x0000000000000000000000000000000000000000000006ab9e50e1d8e4b00000"
                    },
                    {
                        "current": "0x0000000000000000000000000000000000000000009f23eeaf2e9c4dd44dc0aa",
                        "key": "0x21761dd2378177dfe63291454369ce1c3b8b2b5d2f81ddfb1d9be453a5328228",
                        "prev": "0x0000000000000000000000000000000000000000009f206992f5d95932dec0aa"
                    }
                ],
                "storageVariables": [
                    {
                        "name": "balances",
                        "type": "mapping(address => uint256)",
                        "value": {
                            "pairs": [
                                {
                                    "key": "0x7e0df19b9cdd755990bd510dbc8a3685172b07fd",
                                    "value": {
                                        "current": "14877450000000000000000",
                                        "prev": "31500000000000000000000",
                                        "typeTag": 1
                                    }
                                },
                                {
                                    "key": "0x925ea5af075bde17811e4bcdc198dc5d3675e466",
                                    "value": {
                                        "current": "192388891093914682888405162",
                                        "prev": "192372268543914682888405162",
                                        "typeTag": 1
                                    }
                                }
                            ],
                            "typeTag": 4
                        }
                    }
                ]
            }
        ]
    }
}