{
    "balance_change": {
        "balanceChanges": [
            {
                "account": "0xe515ae2bb32282f3bdf9ab51de0afbb0b70415d8",
                "assets": [
                    {
                        "address": "0x464ebe77c293e473b48cfe96ddcf88fcf7bfdac0",
                        "amount": "260",
                        "iconUrl": "https://assets.blocksec.com/icon/b4b3bbd01deab816786239b5b9c0e5b33c8d743ab80165ed25d99d5a22128ed3.png",
                        "isERC1155": false,
                        "isERC721": false,
                        "sign": false,
                        "value": "119.9217439"
                    }
                ]
            },
            {
                "account": "0xe868659b5d88b5560532f5f1eeed17203033f6ef",
                "assets": [
                    {
                        "address": "0x464ebe77c293e473b48cfe96ddcf88fcf7bfdac0",
                        "amount": "260",
                        "iconUrl": "https://assets.blocksec.com/icon/b4b3bbd01deab816786239b5b9c0e5b33c8d743ab80165ed25d99d5a22128ed3.png",
                        "isERC1155": false,
                        "isERC721": false,
                        "sign": true,
                        "value": "119.9217439"
                    }
                ]
            }
        ]
    },
    "profile": {
        "basic_info": {
            "baseFee": "19.972947696",
            "blockNumber": 15178361,
            "callData": "0xa9059cbb000000000000000000000000e868659b5d88b5560532f5f1eeed17203033f6ef00000000000000000000000000000000000000000000000e18398e7601900000",
            "debugEnable": true,
            "errorInfo": "",
            "eventCount": 1,
            "feeRecipient": "0x829bd824b016326a401d083b33d092293333a830",
            "formatValue": "0",
            "gasLimit": 100000,
            "gasPrice": "29",
            "gasUsed": 54533,
            "intTxnCount": 0,
            "internalRevert": false,
            "internalRevertMessage": "",
            "isContractCreation": false,
            "isFlashloan": false,
            "maxFee": "",
            "nonce": 7683,
            "overwritedBlockNumber": -1,
            "priorityFee": "",
            "receiver": "0x464ebe77c293e473b48cfe96ddcf88fcf7bfdac0",
            "revertMessage": "",
            "sender": "0xe515ae2bb32282f3bdf9ab51de0afbb0b70415d8",
            "simulationEnable": true,
            "sourceTxnHash": "0xbd62f7a8669abfd1f01c5cd905578a293596ca7fc0a78f4ec56f9efe0c665cea",
            "status": true,
            "timestamp": "2022-07-20T08:14:02Z",
            "transactionFee": "0.001581457",
            "txnHash": "0xbd62f7a8669abfd1f01c5cd905578a293596ca7fc0a78f4ec56f9efe0c665cea",
            "txnIndex": 13,
            "type": 0,
            "value": "0"
        },
        "fund_flow": [
            {
                "amount": "260",
                "from": "0xe515ae2bb32282f3bdf9ab51de0afbb0b70415d8",
                "id": 1,
                "isERC1155": false,
                "isERC721": false,
                "isReverted": false,
                "order": 1,
                "to": "0xe868659b5d88b5560532f5f1eeed17203033f6ef",
                "token": "0x464ebe77c293e473b48cfe96ddcf88fcf7bfdac0"
            }
        ],
        "token_infos": [
            {
                "address": "0x464ebe77c293e473b48cfe96ddcf88fcf7bfdac0",
                "decimals": 18
            },
            {
                "address": "0xc02aaa39b223fe8d0a0e5c4f27ead9083c756cc2",
                "decimals": 18
            },
            {
                "address": "0xeeeeeeeeeeeeeeeeeeeeeeeeeeeeeeeeeeeeeeee",
                "decimals": 18
            }
        ]
    },
    "address_label": {
        "labels": [
            {
                "address": "0x0000000000000000000000000000000000000001",
                "label": "Precompiled"
            },
            {
                "address": "0x0000000000000000000000000000000000000002",
                "label": "Precompiled"
            },
            {
                "address": "0x0000000000000000000000000000000000000003",
                "label": "Precompiled"
            },
            {
                "address": "0x0000000000000000000000000000000000000004",
                "label": "Precompiled"
            },
            {
                "address": "0xeeeeeeeeeeeeeeeeeeeeeeeeeeeeeeeeeeeeeeee",
                "label": "Ether"
            },
            {
                "address": "0xe868659b5d88b5560532f5f1eeed17203033f6ef",
                "label": "KUCOIN"
            },
            {
                "address": "0x464ebe77c293e473b48cfe96ddcf88fcf7bfdac0",
                "label": "Kryll: KRL Token"
            }
        ]
    },
    "trace": {
        "accountLabels": null,
        "dataMap": {
            "-1": {
                "invocation": {
                    "address": "0xe515ae2bb32282f3bdf9ab51de0afbb0b70415d8",
                    "callData": "",
                    "decodedMethod": null,
                    "errorInfo": "",
                    "fromAddress": "",
                    "gasUsed": 0,
                    "id": -1,
                    "methodDecoded": false,
                    "operation": "",
                    "output": "",
                    "revert": false,
                    "revertMessage": "",
                    "selector": "",
                    "status": false,
                    "value": ""
                },
                "nodeType": 0
            },
            "0": {
                "invocation": {
                    "address": "0x464ebe77c293e473b48cfe96ddcf88fcf7bfdac0",
                    "callData": "0x000000000000000000000000e868659b5d88b5560532f5f1eeed17203033f6ef00000000000000000000000000000000000000000000000e18398e7601900000",
                    "decodedMethod": {
                        "callParams": [
                            {
                                "name": "_to",
                                "type": "address",
                                "value": "0xe868659b5d88b5560532f5f1eeed17203033f6ef"
                            },
                            {
                                "decimalAvailable": true,
                                "name": "_value",
                                "type": "uint256",
                                "value": "260,000,000,000,000,000,000"
                            }
                        ],
                        "constructorArguments": "",
                        "name": "transfer",
                        "returnParams": [
                            {
                                "name": "",
                                "type": "bool",
                                "value": true
                            }
                        ],
                        "signature": "transfer(address,uint256)"
                    },
                    "errorInfo": "",
                    "fromAddress": "0xe515ae2bb32282f3bdf9ab51de0afbb0b70415d8",
                    "gasUsed": 54533,
                    "id": 0,
                    "methodDecoded": true,
                    "operation": "CALL",
                    "output": "0x0000000000000000000000000000000000000000000000000000000000000001",
                    "revert": false,
                    "revertMessage": "",
                    "selector": "0xa9059cbb",
                    "status": true,
                    "value": "0"
                },
                "nodeType": 0
            },
            "1": {
                "event": {
                    "contract": "0x464ebe77c293e473b48cfe96ddcf88fcf7bfdac0",
                    "decodedLog": {
                        "name": "Transfer",
                        "params": [
                            {
                                "name": "from",
                                "type": "address",
                                "value": "0xe515ae2bb32282f3bdf9ab51de0afbb0b70415d8"
                            },
                            {
                                "name": "to",
                                "type": "address",
                                "value": "0xe868659b5d88b5560532f5f1eeed17203033f6ef"
                            },
                            {
                                "decimalAvailable": true,
                                "name": "value",
                                "type": "uint256",
                                "value": "260,000,000,000,000,000,000"
                            }
                        ],
                        "signature": "Transfer(address,address,uint256)"
                    },
                    "id": 1,
                    "logData": "0x00000000000000000000000000000000000000000000000e18398e7601900000",
                    "logDecoded": true,
                    "operation": "EVENT",
                    "revert": false,
                    "status": true,
                    "topics": [
                        "0xddf252ad1be2c89b69c2b068fc378daa952ba7f163c4a11628f55a4df523b3ef",
                        "0x000000000000000000000000e515ae2bb32282f3bdf9ab51de0afbb0b70415d8",
                        "0x000000000000000000000000e868659b5d88b5560532f5f1eeed17203033f6ef"
                    ]
                },
                "nodeType": 1
            }
        },
        "gasFlame": [
            {
                "children": [
                    {
                        "children": [
                            {
                                "children": [],
                                "depth": 0,
                                "name": "Initial Gas",
                                "value": 21644
                            },
                            {
                                "children": [],
                                "depth": 0,
                                "name": "Executed Gas",
                                "value": 32889
                            }
                        ],
                        "depth": -1,
                        "name": "Actual Gas Used",
                        "value": 54533
                    },
                    {
                        "children": [],
                        "depth": -1,
                        "name": "Refunded Gas",
                        "value": 0
                    }
                ],
                "depth": -2,
                "name": "Total Gas",
                "value": 54533
            }
        ],
        "isConfirmed": true,
        "mainTrace": [
            {
                "children": [
                    {
                        "children": [
                            {
                                "children": [],
                                "depth": 1,
                                "id": 1,
                                "order": 1
                            }
                        ],
                        "depth": 0,
                        "id": 0,
                        "order": 0
                    }
                ],
                "depth": -1,
                "id": -1,
                "order": -1
            }
        ],
        "mainTraceNodeCount": 2,
        "parentIdMap": {
            "0": -1,
            "1": 0
        },
        "tidyTrace": [
            {
                "children": [
                    {
                        "children": [
                            {
                                "children": [],
                                "depth": 1,
                                "id": 1,
                                "order": 1
                            }
                        ],
                        "depth": 0,
                        "id": 0,
                        "order": 0
                    }
                ],
                "depth": -1,
                "id": -1,
                "order": -1
            }
        ],
        "tidyTraceNodeCount": 2
    },
    "state_change": {
        "stateChanges": [
            {
                "address": "0x464ebe77c293e473b48cfe96ddcf88fcf7bfdac0",
                "erc": "ERC-20",
                "slots": [
                    {
                        "current": "0x00000000000000000000000000000000000000000000141820c4745adeba7a57",
                        "key": "0x70ca76139332590d579750b7ce40191cf994f58c0e0f4bf1775eb8daa7ca6d29",
                        "prev": "0x00000000000000000000000000000000000000000000142638fe02d0e04a7a57"
                    },
                    {
                        "current": "0x00000000000000000000000000000000000000000000000e18398e7601900000",
                        "key": "0x2f7a2fa0aff7503401a8abcbf293c878990592907bfa67ef8ac82666da8eef4d",
                        "prev": "0x0000000000000000000000000000000000000000000000000000000000000000"
                    }
                ],
                "storageVariables": [
                    {
                        "name": "balances",
                        "type": "mapping(address => uint256)",
                        "value": {
                            "pairs": [
                                {
                                    "key": "0xe515ae2bb32282f3bdf9ab51de0afbb0b70415d8",
                                    "value": {
                                        "current": "94892412655200215136855",
                                        "prev": "95152412655200215136855",
                                        "typeTag": 1
                                    }
                                },
                                {
                                    "key": "0xe868659b5d88b5560532f5f1eeed17203033f6ef",
                                    "value": {
                                        "current": "260000000000000000000",
                                        "prev": "0",
                                        "typeTag": 1
                                    }
                                }
                            ],
                            "typeTag": 4
                        }
                    }
                ]
            }
        ]
    }
}