{
    "balance_change": {
        "balanceChanges": [
            {
                "account": "0x5ab9d116a53ef41063e3eae26a7ebe736720e9ba",
                "assets": [
                    {
                        "address": "0xc02aaa39b223fe8d0a0e5c4f27ead9083c756cc2",
                        "amount": "2.990906807618741248",
                        "iconUrl": "https://assets.blocksec.com/icon/f1cb2d02c471d545bbc7722daf3277fd852d98e63d118771af7047bd8256c516.png",
                        "isERC1155": false,
                        "isERC721": false,
                        "sign": false,
                        "value": "6384.299945"
                    }
                ]
            },
            {
                "account": "0x7f713a9ca401e22a5472bf37cd19211edfbc9737",
                "assets": [
                    {
                        "address": "0xf151980e7a781481709e8195744bf2399fb3cba4",
                        "amount": "683,294.961403647802798432",
                        "iconUrl": "",
                        "isERC1155": false,
                        "isERC721": false,
                        "sign": true,
                        "value": "6181.312246"
                    }
                ]
            },
            {
                "account": "0xe0deb97487bddf4c28ab1aa169179db0da625b29",
                "assets": [
                    {
                        "address": "0xc02aaa39b223fe8d0a0e5c4f27ead9083c756cc2",
                        "amount": "2.990906807618741248",
                        "iconUrl": "https://assets.blocksec.com/icon/f1cb2d02c471d545bbc7722daf3277fd852d98e63d118771af7047bd8256c516.png",
                        "isERC1155": false,
                        "isERC721": false,
                        "sign": true,
                        "value": "6384.299945"
                    },
                    {
                        "address": "0xf151980e7a781481709e8195744bf2399fb3cba4",
                        "amount": "683,294.961403647802798432",
                        "iconUrl": "",
                        "isERC1155": false,
                        "isERC721": false,
                        "sign": false,
                        "value": "6181.312246"
                    }
                ]
            }
        ]
    },
    "profile": {
        "basic_info": {
            "baseFee": "",
            "blockNumber": 12275189,
            "callData": "0x38ed17390000000000000000000000000000000000000000000000002981d5e52069a400000000000000000000000000000000000000000000008ff6d37bf1227c8aef8200000000000000000000000000000000000000000000000000000000000000a00000000000000000000000007f713a9ca401e22a5472bf37cd19211edfbc973700000000000000000000000000000000000000000000000000000000607e6b8a0000000000000000000000000000000000000000000000000000000000000002000000000000000000000000c02aaa39b223fe8d0a0e5c4f27ead9083c756cc2000000000000000000000000f151980e7a781481709e8195744bf2399fb3cba4",
            "debugEnable": true,
            "errorInfo": "",
            "eventCount": 4,
            "feeRecipient": "0x7f101fe45e6649a6fb8f3f8b43ed03d353f2b90c",
            "formatValue": "0",
            "gasLimit": 250000,
            "gasPrice": "265",
            "gasUsed": 115488,
            "intTxnCount": 6,
            "internalRevert": false,
            "internalRevertMessage": "",
            "isContractCreation": false,
            "isFlashloan": false,
            "maxFee": "",
            "nonce": 178671,
            "overwritedBlockNumber": -1,
            "priorityFee": "",
            "receiver": "0x7a250d5630b4cf539739df2c5dacb4c659f2488d",
            "revertMessage": "",
            "sender": "0x5ab9d116a53ef41063e3eae26a7ebe736720e9ba",
            "simulationEnable": true,
            "sourceTxnHash": "0xbec0182645aa5902d5798a29d7be4597bcd94874c1ecbc3826b8f32bfdbb6b76",
            "status": true,
            "timestamp": "2021-04-20T05:40:00Z",
            "transactionFee": "0.03060432",
            "txnHash": "0xbec0182645aa5902d5798a29d7be4597bcd94874c1ecbc3826b8f32bfdbb6b76",
            "txnIndex": 18,
            "type": 0,
            "value": "0"
        },
        "fund_flow": [
            {
                "amount": "2.990906807618741248",
                "from": "0x5ab9d116a53ef41063e3eae26a7ebe736720e9ba",
                "id": 1,
                "isERC1155": false,
                "isERC721": false,
                "isReverted": false,
                "order": 1,
                "to": "0xe0deb97487bddf4c28ab1aa169179db0da625b29",
                "token": "0xc02aaa39b223fe8d0a0e5c4f27ead9083c756cc2"
            },
            {
                "amount": "683,294.961403647802798432",
                "from": "0xe0deb97487bddf4c28ab1aa169179db0da625b29",
                "id": 2,
                "isERC1155": false,
                "isERC721": false,
                "isReverted": false,
                "order": 2,
                "to": "0x7f713a9ca401e22a5472bf37cd19211edfbc9737",
                "token": "0xf151980e7a781481709e8195744bf2399fb3cba4"
            }
        ],
        "token_infos": [
            {
                "address": "0xeeeeeeeeeeeeeeeeeeeeeeeeeeeeeeeeeeeeeeee",
                "decimals": 18
            },
            {
                "address": "0xc02aaa39b223fe8d0a0e5c4f27ead9083c756cc2",
                "decimals": 18
            },
            {
                "address": "0xf151980e7a781481709e8195744bf2399fb3cba4",
                "decimals": 18
            }
        ]
    },
    "address_label": {
        "labels": [
            {
                "address": "0x0000000000000000000000000000000000000004",
                "label": "Precompiled"
            },
            {
                "address": "0xf151980e7a781481709e8195744bf2399fb3cba4",
                "label": "Aubit: Old FWT Token"
            },
            {
                "address": "0x7a250d5630b4cf539739df2c5dacb4c659f2488d",
                "label": "Uniswap V2: Router 2"
            },
            {
                "address": "0xe0deb97487bddf4c28ab1aa169179db0da625b29",
                "label": "Uniswap V2: FWT"
            },
            {
                "address": "0x0000000000000000000000000000000000000001",
                "label": "Precompiled"
            },
            {
                "address": "0xeeeeeeeeeeeeeeeeeeeeeeeeeeeeeeeeeeeeeeee",
                "label": "Ether"
            },
            {
                "address": "0xc02aaa39b223fe8d0a0e5c4f27ead9083c756cc2",
                "label": "Wrapped Ether (WETH)"
            },
            {
                "address": "0x0000000000000000000000000000000000000002",
                "label": "Precompiled"
            },
            {
                "address": "0x0000000000000000000000000000000000000003",
                "label": "Precompiled"
            }
        ]
    },
    "trace": {
        "accountLabels": null,
        "dataMap": {
            "-1": {
                "invocation": {
                    "address": "0x5ab9d116a53ef41063e3eae26a7ebe736720e9ba",
                    "callData": "",
                    "decodedMethod": null,
                    "errorInfo": "",
                    "fromAddress": "",
                    "gasUsed": 0,
                    "id": -1,
                    "methodDecoded": false,
                    "operation": "",
                    "output": "",
                    "revert": false,
                    "revertMessage": "",
                    "selector": "",
                    "status": false,
                    "value": ""
                },
                "nodeType": 0
            },
            "0": {
                "invocation": {
                    "address": "0x7a250d5630b4cf539739df2c5dacb4c659f2488d",
                    "callData": "0x0000000000000000000000000000000000000000000000002981d5e52069a400000000000000000000000000000000000000000000008ff6d37bf1227c8aef8200000000000000000000000000000000000000000000000000000000000000a00000000000000000000000007f713a9ca401e22a5472bf37cd19211edfbc973700000000000000000000000000000000000000000000000000000000607e6b8a0000000000000000000000000000000000000000000000000000000000000002000000000000000000000000c02aaa39b223fe8d0a0e5c4f27ead9083c756cc2000000000000000000000000f151980e7a781481709e8195744bf2399fb3cba4",
                    "decodedMethod": {
                        "callParams": [
                            {
                                "name": "amountIn",
                                "type": "uint256",
                                "value": "2,990,906,807,618,741,248"
                            },
                            {
                                "name": "amountOutMin",
                                "type": "uint256",
                                "value": "679,851,545,131,386,374,123,394"
                            },
                            {
                                "name": "path",
                                "type": "address[]",
                                "value": [
                                    "0xc02aaa39b223fe8d0a0e5c4f27ead9083c756cc2",
                                    "0xf151980e7a781481709e8195744bf2399fb3cba4"
                                ]
                            },
                            {
                                "name": "to",
                                "type": "address",
                                "value": "0x7f713a9ca401e22a5472bf37cd19211edfbc9737"
                            },
                            {
                                "name": "deadline",
                                "type": "uint256",
                                "value": "1,618,897,802"
                            }
                        ],
                        "constructorArguments": "",
                        "name": "swapExactTokensForTokens",
                        "returnParams": [
                            {
                                "name": "amounts",
                                "type": "uint256[]",
                                "value": [
                                    "2,990,906,807,618,741,248",
                                    "683,294,961,403,647,802,798,432"
                                ]
                            }
                        ],
                        "signature": "swapExactTokensForTokens(uint256,uint256,address[],address,uint256)"
                    },
                    "errorInfo": "",
                    "fromAddress": "0x5ab9d116a53ef41063e3eae26a7ebe736720e9ba",
                    "gasUsed": 115488,
                    "id": 0,
                    "methodDecoded": true,
                    "operation": "CALL",
                    "output": "0x000000000000000000000000000000000000000000000000000000000000002000000000000000000000000000000000000000000000000000000000000000020000000000000000000000000000000000000000000000002981d5e52069a4000000000000000000000000000000000000000000000090b17e7c08c152c4f160",
                    "revert": false,
                    "revertMessage": "",
                    "selector": "0x38ed1739",
                    "status": true,
                    "value": "0"
                },
                "nodeType": 0
            },
            "1": {
                "invocation": {
                    "address": "0xe0deb97487bddf4c28ab1aa169179db0da625b29",
                    "callData": "0x",
                    "decodedMethod": {
                        "callParams": [],
                        "constructorArguments": "",
                        "name": "getReserves",
                        "returnParams": [
                            {
                                "name": "_reserve0",
                                "type": "uint112",
                                "value": "223,439,227,065,358,230,419"
                            },
                            {
                                "name": "_reserve1",
                                "type": "uint112",
                                "value": "51,883,252,294,214,922,878,124,267"
                            },
                            {
                                "name": "_blockTimestampLast",
                                "type": "uint32",
                                "value": "1,618,896,930"
                            }
                        ],
                        "signature": "getReserves()"
                    },
                    "errorInfo": "",
                    "fromAddress": "0x7a250d5630b4cf539739df2c5dacb4c659f2488d",
                    "gasUsed": 2504,
                    "id": 1,
                    "methodDecoded": true,
                    "operation": "STATICCALL",
                    "output": "0x00000000000000000000000000000000000000000000000c1cd7992f268623930000000000000000000000000000000000000000002aeab4be1e5098991500eb00000000000000000000000000000000000000000000000000000000607e6822",
                    "revert": false,
                    "revertMessage": "",
                    "selector": "0x0902f1ac",
                    "status": true,
                    "value": "0"
                },
                "nodeType": 0
            },
            "10": {
                "event": {
                    "contract": "0xe0deb97487bddf4c28ab1aa169179db0da625b29",
                    "decodedLog": {
                        "name": "Swap",
                        "params": [
                            {
                                "name": "sender",
                                "type": "address",
                                "value": "0x7a250d5630b4cf539739df2c5dacb4c659f2488d"
                            },
                            {
                                "name": "to",
                                "type": "address",
                                "value": "0x7f713a9ca401e22a5472bf37cd19211edfbc9737"
                            },
                            {
                                "name": "amount0In",
                                "type": "uint256",
                                "value": "2,990,906,807,618,741,248"
                            },
                            {
                                "name": "amount1In",
                                "type": "uint256",
                                "value": "0"
                            },
                            {
                                "name": "amount0Out",
                                "type": "uint256",
                                "value": "0"
                            },
                            {
                                "name": "amount1Out",
                                "type": "uint256",
                                "value": "683,294,961,403,647,802,798,432"
                            }
                        ],
                        "signature": "Swap(address,uint256,uint256,uint256,uint256,address)"
                    },
                    "id": 10,
                    "logData": "0x0000000000000000000000000000000000000000000000002981d5e52069a400000000000000000000000000000000000000000000000000000000000000000000000000000000000000000000000000000000000000000000000000000000000000000000000000000000000000000000000000000090b17e7c08c152c4f160",
                    "logDecoded": true,
                    "operation": "EVENT",
                    "revert": false,
                    "status": true,
                    "topics": [
                        "0xd78ad95fa46c994b6551d0da85fc275fe613ce37657fb8d5e3d130840159d822",
                        "0x0000000000000000000000007a250d5630b4cf539739df2c5dacb4c659f2488d",
                        "0x0000000000000000000000007f713a9ca401e22a5472bf37cd19211edfbc9737"
                    ]
                },
                "nodeType": 1
            },
            "2": {
                "invocation": {
                    "address": "0xc02aaa39b223fe8d0a0e5c4f27ead9083c756cc2",
                    "callData": "0x0000000000000000000000005ab9d116a53ef41063e3eae26a7ebe736720e9ba000000000000000000000000e0deb97487bddf4c28ab1aa169179db0da625b290000000000000000000000000000000000000000000000002981d5e52069a400",
                    "decodedMethod": {
                        "callParams": [
                            {
                                "name": "src",
                                "type": "address",
                                "value": "0x5ab9d116a53ef41063e3eae26a7ebe736720e9ba"
                            },
                            {
                                "name": "dst",
                                "type": "address",
                                "value": "0xe0deb97487bddf4c28ab1aa169179db0da625b29"
                            },
                            {
                                "decimalAvailable": true,
                                "name": "wad",
                                "type": "uint256",
                                "value": "2,990,906,807,618,741,248"
                            }
                        ],
                        "constructorArguments": "",
                        "name": "transferFrom",
                        "returnParams": [
                            {
                                "name": "",
                                "type": "bool",
                                "value": true
                            }
                        ],
                        "signature": "transferFrom(address,address,uint256)"
                    },
                    "errorInfo": "",
                    "fromAddress": "0x7a250d5630b4cf539739df2c5dacb4c659f2488d",
                    "gasUsed": 15025,
                    "id": 2,
                    "methodDecoded": true,
                    "operation": "CALL",
                    "output": "0x0000000000000000000000000000000000000000000000000000000000000001",
                    "revert": false,
                    "revertMessage": "",
                    "selector": "0x23b872dd",
                    "status": true,
                    "value": "0"
                },
                "nodeType": 0
            },
            "3": {
                "event": {
                    "contract": "0xc02aaa39b223fe8d0a0e5c4f27ead9083c756cc2",
                    "decodedLog": {
                        "name": "Transfer",
                        "params": [
                            {
                                "name": "src",
                                "type": "address",
                                "value": "0x5ab9d116a53ef41063e3eae26a7ebe736720e9ba"
                            },
                            {
                                "name": "dst",
                                "type": "address",
                                "value": "0xe0deb97487bddf4c28ab1aa169179db0da625b29"
                            },
                            {
                                "decimalAvailable": true,
                                "name": "wad",
                                "type": "uint256",
                                "value": "2,990,906,807,618,741,248"
                            }
                        ],
                        "signature": "Transfer(address,address,uint256)"
                    },
                    "id": 3,
                    "logData": "0x0000000000000000000000000000000000000000000000002981d5e52069a400",
                    "logDecoded": true,
                    "operation": "EVENT",
                    "revert": false,
                    "status": true,
                    "topics": [
                        "0xddf252ad1be2c89b69c2b068fc378daa952ba7f163c4a11628f55a4df523b3ef",
                        "0x0000000000000000000000005ab9d116a53ef41063e3eae26a7ebe736720e9ba",
                        "0x000000000000000000000000e0deb97487bddf4c28ab1aa169179db0da625b29"
                    ]
                },
                "nodeType": 1
            },
            "4": {
                "invocation": {
                    "address": "0xe0deb97487bddf4c28ab1aa169179db0da625b29",
                    "callData": "0x00000000000000000000000000000000000000000000000000000000000000000000000000000000000000000000000000000000000090b17e7c08c152c4f1600000000000000000000000007f713a9ca401e22a5472bf37cd19211edfbc973700000000000000000000000000000000000000000000000000000000000000800000000000000000000000000000000000000000000000000000000000000000",
                    "decodedMethod": {
                        "callParams": [
                            {
                                "name": "amount0Out",
                                "type": "uint256",
                                "value": "0"
                            },
                            {
                                "name": "amount1Out",
                                "type": "uint256",
                                "value": "683,294,961,403,647,802,798,432"
                            },
                            {
                                "name": "to",
                                "type": "address",
                                "value": "0x7f713a9ca401e22a5472bf37cd19211edfbc9737"
                            },
                            {
                                "name": "data",
                                "type": "bytes",
                                "value": "0x"
                            }
                        ],
                        "constructorArguments": "",
                        "name": "swap",
                        "returnParams": [],
                        "signature": "swap(uint256,uint256,address,bytes)"
                    },
                    "errorInfo": "",
                    "fromAddress": "0x7a250d5630b4cf539739df2c5dacb4c659f2488d",
                    "gasUsed": 64926,
                    "id": 4,
                    "methodDecoded": true,
                    "operation": "CALL",
                    "output": "",
                    "revert": false,
                    "revertMessage": "",
                    "selector": "0x022c0d9f",
                    "status": true,
                    "value": "0"
                },
                "nodeType": 0
            },
            "5": {
                "invocation": {
                    "address": "0xf151980e7a781481709e8195744bf2399fb3cba4",
                    "callData": "0x0000000000000000000000007f713a9ca401e22a5472bf37cd19211edfbc97370000000000000000000000000000000000000000000090b17e7c08c152c4f160",
                    "decodedMethod": {
                        "callParams": [
                            {
                                "name": "_to",
                                "type": "address",
                                "value": "0x7f713a9ca401e22a5472bf37cd19211edfbc9737"
                            },
                            {
                                "decimalAvailable": true,
                                "name": "_value",
                                "type": "uint256",
                                "value": "683,294,961,403,647,802,798,432"
                            }
                        ],
                        "constructorArguments": "",
                        "name": "transfer",
                        "returnParams": [
                            {
                                "name": "",
                                "type": "bool",
                                "value": true
                            }
                        ],
                        "signature": "transfer(address,uint256)"
                    },
                    "errorInfo": "",
                    "fromAddress": "0xe0deb97487bddf4c28ab1aa169179db0da625b29",
                    "gasUsed": 30082,
                    "id": 5,
                    "methodDecoded": true,
                    "operation": "CALL",
                    "output": "0x0000000000000000000000000000000000000000000000000000000000000001",
                    "revert": false,
                    "revertMessage": "",
                    "selector": "0xa9059cbb",
                    "status": true,
                    "value": "0"
                },
                "nodeType": 0
            },
            "6": {
                "event": {
                    "contract": "0xf151980e7a781481709e8195744bf2399fb3cba4",
                    "decodedLog": {
                        "name": "Transfer",
                        "params": [
                            {
                                "name": "from",
                                "type": "address",
                                "value": "0xe0deb97487bddf4c28ab1aa169179db0da625b29"
                            },
                            {
                                "name": "to",
                                "type": "address",
                                "value": "0x7f713a9ca401e22a5472bf37cd19211edfbc9737"
                            },
                            {
                                "decimalAvailable": true,
                                "name": "value",
                                "type": "uint256",
                                "value": "683,294,961,403,647,802,798,432"
                            }
                        ],
                        "signature": "Transfer(address,address,uint256)"
                    },
                    "id": 6,
                    "logData": "0x0000000000000000000000000000000000000000000090b17e7c08c152c4f160",
                    "logDecoded": true,
                    "operation": "EVENT",
                    "revert": false,
                    "status": true,
                    "topics": [
                        "0xddf252ad1be2c89b69c2b068fc378daa952ba7f163c4a11628f55a4df523b3ef",
                        "0x000000000000000000000000e0deb97487bddf4c28ab1aa169179db0da625b29",
                        "0x0000000000000000000000007f713a9ca401e22a5472bf37cd19211edfbc9737"
                    ]
                },
                "nodeType": 1
            },
            "7": {
                "invocation": {
                    "address": "0xc02aaa39b223fe8d0a0e5c4f27ead9083c756cc2",
                    "callData": "0x000000000000000000000000e0deb97487bddf4c28ab1aa169179db0da625b29",
                    "decodedMethod": {
                        "callParams": [
                            {
                                "name": "",
                                "type": "address",
                                "value": "0xe0deb97487bddf4c28ab1aa169179db0da625b29"
                            }
                        ],
                        "constructorArguments": "",
                        "name": "balanceOf",
                        "returnParams": [
                            {
                                "decimalAvailable": true,
                                "name": "",
                                "type": "uint256",
                                "value": "226,430,133,872,976,971,667"
                            }
                        ],
                        "signature": "balanceOf(address)"
                    },
                    "errorInfo": "",
                    "fromAddress": "0xe0deb97487bddf4c28ab1aa169179db0da625b29",
                    "gasUsed": 534,
                    "id": 7,
                    "methodDecoded": true,
                    "operation": "STATICCALL",
                    "output": "0x00000000000000000000000000000000000000000000000c46596f1446efc793",
                    "revert": false,
                    "revertMessage": "",
                    "selector": "0x70a08231",
                    "status": true,
                    "value": "0"
                },
                "nodeType": 0
            },
            "8": {
                "invocation": {
                    "address": "0xf151980e7a781481709e8195744bf2399fb3cba4",
                    "callData": "0x000000000000000000000000e0deb97487bddf4c28ab1aa169179db0da625b29",
                    "decodedMethod": {
                        "callParams": [
                            {
                                "name": "account",
                                "type": "address",
                                "value": "0xe0deb97487bddf4c28ab1aa169179db0da625b29"
                            }
                        ],
                        "constructorArguments": "",
                        "name": "balanceOf",
                        "returnParams": [
                            {
                                "decimalAvailable": true,
                                "name": "",
                                "type": "uint256",
                                "value": "51,199,957,332,811,275,075,325,835"
                            }
                        ],
                        "signature": "balanceOf(address)"
                    },
                    "errorInfo": "",
                    "fromAddress": "0xe0deb97487bddf4c28ab1aa169179db0da625b29",
                    "gasUsed": 487,
                    "id": 8,
                    "methodDecoded": true,
                    "operation": "STATICCALL",
                    "output": "0x0000000000000000000000000000000000000000002a5a033fa247d746500f8b",
                    "revert": false,
                    "revertMessage": "",
                    "selector": "0x70a08231",
                    "status": true,
                    "value": "0"
                },
                "nodeType": 0
            },
            "9": {
                "event": {
                    "contract": "0xe0deb97487bddf4c28ab1aa169179db0da625b29",
                    "decodedLog": {
                        "name": "Sync",
                        "params": [
                            {
                                "name": "reserve0",
                                "type": "uint112",
                                "value": "226,430,133,872,976,971,667"
                            },
                            {
                                "name": "reserve1",
                                "type": "uint112",
                                "value": "51,199,957,332,811,275,075,325,835"
                            }
                        ],
                        "signature": "Sync(uint112,uint112)"
                    },
                    "id": 9,
                    "logData": "0x00000000000000000000000000000000000000000000000c46596f1446efc7930000000000000000000000000000000000000000002a5a033fa247d746500f8b",
                    "logDecoded": true,
                    "operation": "EVENT",
                    "revert": false,
                    "status": true,
                    "topics": [
                        "0x1c411e9a96e071241c2f21f7726b17ae89e3cab4c78be50e062b03a9fffbbad1"
                    ]
                },
                "nodeType": 1
            }
        },
        "gasFlame": [
            {
                "children": [
                    {
                        "children": [
                            {
                                "children": [],
                                "depth": 0,
                                "name": "Initial Gas",
                                "value": 23084
                            },
                            {
                                "children": [
                                    {
                                        "children": [],
                                        "depth": 1,
                                        "name": "getReserves",
                                        "value": 2504
                                    },
                                    {
                                        "children": [],
                                        "depth": 1,
                                        "name": "transferFrom",
                                        "value": 15025
                                    },
                                    {
                                        "children": [
                                            {
                                                "children": [],
                                                "depth": 2,
                                                "name": "transfer",
                                                "value": 30082
                                            },
                                            {
                                                "children": [],
                                                "depth": 2,
                                                "name": "balanceOf",
                                                "value": 534
                                            },
                                            {
                                                "children": [],
                                                "depth": 2,
                                                "name": "balanceOf",
                                                "value": 487
                                            }
                                        ],
                                        "depth": 1,
                                        "name": "swap",
                                        "value": 64926
                                    }
                                ],
                                "depth": 0,
                                "name": "Executed Gas",
                                "value": 95204
                            }
                        ],
                        "depth": -1,
                        "name": "Actual Gas Used",
                        "value": 115488
                    },
                    {
                        "children": [],
                        "depth": -1,
                        "name": "Refunded Gas",
                        "value": 2800
                    }
                ],
                "depth": -2,
                "name": "Total Gas",
                "value": 118288
            }
        ],
        "isConfirmed": true,
        "mainTrace": [
            {
                "children": [
                    {
                        "children": [
                            {
                                "children": [],
                                "depth": 1,
                                "id": 1,
                                "order": 1
                            },
                            {
                                "children": [
                                    {
                                        "children": [],
                                        "depth": 2,
                                        "id": 3,
                                        "order": 3
                                    }
                                ],
                                "depth": 1,
                                "id": 2,
                                "order": 2
                            },
                            {
                                "children": [
                                    {
                                        "children": [
                                            {
                                                "children": [],
                                                "depth": 3,
                                                "id": 6,
                                                "order": 6
                                            }
                                        ],
                                        "depth": 2,
                                        "id": 5,
                                        "order": 5
                                    },
                                    {
                                        "children": [],
                                        "depth": 2,
                                        "id": 7,
                                        "order": 7
                                    },
                                    {
                                        "children": [],
                                        "depth": 2,
                                        "id": 8,
                                        "order": 8
                                    },
                                    {
                                        "children": [],
                                        "depth": 2,
                                        "id": 9,
                                        "order": 9
                                    },
                                    {
                                        "children": [],
                                        "depth": 2,
                                        "id": 10,
                                        "order": 10
                                    }
                                ],
                                "depth": 1,
                                "id": 4,
                                "order": 4
                            }
                        ],
                        "depth": 0,
                        "id": 0,
                        "order": 0
                    }
                ],
                "depth": -1,
                "id": -1,
                "order": -1
            }
        ],
        "mainTraceNodeCount": 11,
        "parentIdMap": {
            "0": -1,
            "1": 0,
            "10": 4,
            "2": 0,
            "3": 2,
            "4": 0,
            "5": 4,
            "6": 5,
            "7": 4,
            "8": 4,
            "9": 4
        },
        "tidyTrace": [
            {
                "children": [
                    {
                        "children": [
                            {
                                "children": [
                                    {
                                        "children": [],
                                        "depth": 2,
                                        "id": 3,
                                        "order": 3
                                    }
                                ],
                                "depth": 1,
                                "id": 2,
                                "order": 2
                            },
                            {
                                "children": [
                                    {
                                        "children": [
                                            {
                                                "children": [],
                                                "depth": 3,
                                                "id": 6,
                                                "order": 6
                                            }
                                        ],
                                        "depth": 2,
                                        "id": 5,
                                        "order": 5
                                    },
                                    {
                                        "children": [],
                                        "depth": 2,
                                        "id": 9,
                                        "order": 9
                                    },
                                    {
                                        "children": [],
                                        "depth": 2,
                                        "id": 10,
                                        "order": 10
                                    }
                                ],
                                "depth": 1,
                                "id": 4,
                                "order": 4
                            }
                        ],
                        "depth": 0,
                        "id": 0,
                        "order": 0
                    }
                ],
                "depth": -1,
                "id": -1,
                "order": -1
            }
        ],
        "tidyTraceNodeCount": 8
    },
    "state_change": {
        "stateChanges": [
            {
                "address": "0xc02aaa39b223fe8d0a0e5c4f27ead9083c756cc2",
                "erc": "ERC-20",
                "slots": [
                    {
                        "current": "0x00000000000000000000000000000000000000000000000846777915e60a685f",
                        "key": "0xc0dc5eb7596de429ad04e2928f9ca120dc2e9970431d935ce7be63b86e9a4bf7",
                        "prev": "0x0000000000000000000000000000000000000000000000086ff94efb06740c5f"
                    },
                    {
                        "current": "0x00000000000000000000000000000000000000000000000c46596f1446efc793",
                        "key": "0x199f3baa372ec456da7af8ee62147e9b6a1d30ddc7f2fcec6fb267483baf4f74",
                        "prev": "0x00000000000000000000000000000000000000000000000c1cd7992f26862393"
                    }
                ],
                "storageVariables": [
                    {
                        "name": "balanceOf",
                        "type": "mapping(address => uint256)",
                        "value": {
                            "pairs": [
                                {
                                    "key": "0x5ab9d116a53ef41063e3eae26a7ebe736720e9ba",
                                    "value": {
                                        "current": "152651612829520652383",
                                        "prev": "155642519637139393631",
                                        "typeTag": 1
                                    }
                                },
                                {
                                    "key": "0xe0deb97487bddf4c28ab1aa169179db0da625b29",
                                    "value": {
                                        "current": "226430133872976971667",
                                        "prev": "223439227065358230419",
                                        "typeTag": 1
                                    }
                                }
                            ],
                            "typeTag": 4
                        }
                    }
                ]
            },
            {
                "address": "0xe0deb97487bddf4c28ab1aa169179db0da625b29",
                "erc": "ERC-20",
                "slots": [
                    {
                        "current": "0x0000000000000000000000000290eac47985da862f9c3d8bfecc56c2b70bbfc2",
                        "key": "0x0000000000000000000000000000000000000000000000000000000000000009",
                        "prev": "0x0000000000000000000000000290e707d3f3c4224d569919c722ad2151069a30"
                    },
                    {
                        "current": "0x00000000000000000000000000000000005d3bf44ae622030f6734a2db3d7ae2",
                        "key": "0x000000000000000000000000000000000000000000000000000000000000000a",
                        "prev": "0x00000000000000000000000000000000005d3ba816c201cb3fdd0e397f13f36c"
                    },
                    {
                        "current": "0x607e69300000002a5a033fa247d746500f8b00000000000c46596f1446efc793",
                        "key": "0x0000000000000000000000000000000000000000000000000000000000000008",
                        "prev": "0x607e68220000002aeab4be1e5098991500eb00000000000c1cd7992f26862393"
                    }
                ],
                "storageVariables": [
                    {
                        "name": "price0CumulativeLast",
                        "type": "uint256",
                        "value": {
                            "current": "14649739982019632351263584208568969609291218882",
                            "prev": "14649414451995707161608135434411565404802947632",
                            "typeTag": 1
                        }
                    },
                    {
                        "name": "price1CumulativeLast",
                        "type": "uint256",
                        "value": {
                            "current": "484099624862112180708185163287067362",
                            "prev": "484093587384867111149274200699827052",
                            "typeTag": 1
                        }
                    },
                    {
                        "name": "reserve0",
                        "type": "uint112",
                        "value": {
                            "current": "226430133872976971667",
                            "prev": "223439227065358230419",
                            "typeTag": 1
                        }
                    },
                    {
                        "name": "reserve1",
                        "type": "uint112",
                        "value": {
                            "current": "51199957332811275075325835",
                            "prev": "51883252294214922878124267",
                            "typeTag": 1
                        }
                    },
                    {
                        "name": "blockTimestampLast",
                        "type": "uint32",
                        "value": {
                            "current": "1618897200",
                            "prev": "1618896930",
                            "typeTag": 1
                        }
                    }
                ]
            },
            {
                "address": "0xf151980e7a781481709e8195744bf2399fb3cba4",
                "erc": "ERC-20",
                "slots": [
                    {
                        "current": "0x0000000000000000000000000000000000000000002a5a033fa247d746500f8b",
                        "key": "0x0ccc6da11da8e15648163f8b8baeadb147514d56c154881ddb7c89bee4200fc1",
                        "prev": "0x0000000000000000000000000000000000000000002aeab4be1e5098991500eb"
                    },
                    {
                        "current": "0x0000000000000000000000000000000000000000000090b17e7c08c152c4f160",
                        "key": "0x7ec4ccd0309f3c72c342facae9fab9c057d01f1fa800849da95f6ab121bb94ea",
                        "prev": "0x0000000000000000000000000000000000000000000000000000000000000000"
                    }
                ],
                "storageVariables": [
                    {
                        "name": "_balances",
                        "type": "mapping(address => uint256)",
                        "value": {
                            "pairs": [
                                {
                                    "key": "0x7f713a9ca401e22a5472bf37cd19211edfbc9737",
                                    "value": {
                                        "current": "683294961403647802798432",
                                        "prev": "0",
                                        "typeTag": 1
                                    }
                                },
                                {
                                    "key": "0xe0deb97487bddf4c28ab1aa169179db0da625b29",
                                    "value": {
                                        "current": "51199957332811275075325835",
                                        "prev": "51883252294214922878124267",
                                        "typeTag": 1
                                    }
                                }
                            ],
                            "typeTag": 4
                        }
                    }
                ]
            }
        ]
    }
}