{
    "balance_change": {
        "balanceChanges": [
            {
                "account": "0xcb3e08518dd778be435d91d54b09b28c1edddfda",
                "assets": [
                    {
                        "address": "0xeeeeeeeeeeeeeeeeeeeeeeeeeeeeeeeeeeeeeeee",
                        "amount": "0.2",
                        "iconUrl": "https://assets.blocksec.com/image/1663669189317-3.png",
                        "isERC1155": false,
                        "isERC721": false,
                        "sign": false,
                        "value": ""
                    }
                ]
            },
            {
                "account": "0x0d468b66b49bb25a96f73c4f1b56d60fc0c90267",
                "assets": [
                    {
                        "address": "0xeeeeeeeeeeeeeeeeeeeeeeeeeeeeeeeeeeeeeeee",
                        "amount": "0.2",
                        "iconUrl": "https://assets.blocksec.com/image/1663669189317-3.png",
                        "isERC1155": false,
                        "isERC721": false,
                        "sign": true,
                        "value": ""
                    }
                ]
            }
        ]
    },
    "profile": {
        "basic_info": {
            "baseFee": "",
            "blockNumber": 10350482,
            "callData": "0xbe389d5700000000000000000000000000000000000000000000000000000000000000010000000000000000000000000000000000000000000000000000000000000004",
            "debugEnable": true,
            "errorInfo": "",
            "eventCount": 4,
            "feeRecipient": "0x829bd824b016326a401d083b33d092293333a830",
            "formatValue": "0.2",
            "gasLimit": 264149,
            "gasPrice": "31",
            "gasUsed": 138958,
            "intTxnCount": 1,
            "internalRevert": false,
            "internalRevertMessage": "",
            "isContractCreation": false,
            "isFlashloan": false,
            "maxFee": "",
            "nonce": 3,
            "overwritedBlockNumber": -1,
            "priorityFee": "",
            "receiver": "0x5acc84a3e955bdd76467d3348077d003f00ffb97",
            "revertMessage": "",
            "sender": "0xcb3e08518dd778be435d91d54b09b28c1edddfda",
            "simulationEnable": true,
            "sourceTxnHash": "0xbfe77f183806a5b2479487b810e186e7780988b3a467d5ab3bd1aaa21e99e50e",
            "status": true,
            "timestamp": "2020-06-27T22:31:07Z",
            "transactionFee": "0.004307698",
            "txnHash": "0xbfe77f183806a5b2479487b810e186e7780988b3a467d5ab3bd1aaa21e99e50e",
            "txnIndex": 102,
            "type": 0,
            "value": "200000000000000000"
        },
        "fund_flow": [
            {
                "amount": "0.2",
                "from": "0xcb3e08518dd778be435d91d54b09b28c1edddfda",
                "id": 1,
                "isERC1155": false,
                "isERC721": false,
                "isReverted": false,
                "order": 1,
                "to": "0x5acc84a3e955bdd76467d3348077d003f00ffb97",
                "token": "0xeeeeeeeeeeeeeeeeeeeeeeeeeeeeeeeeeeeeeeee"
            },
            {
                "amount": "0.2",
                "from": "0x5acc84a3e955bdd76467d3348077d003f00ffb97",
                "id": 2,
                "isERC1155": false,
                "isERC721": false,
                "isReverted": false,
                "order": 2,
                "to": "0x0d468b66b49bb25a96f73c4f1b56d60fc0c90267",
                "token": "0xeeeeeeeeeeeeeeeeeeeeeeeeeeeeeeeeeeeeeeee"
            }
        ],
        "token_infos": [
            {
                "address": "0xc02aaa39b223fe8d0a0e5c4f27ead9083c756cc2",
                "decimals": 18
            },
            {
                "address": "0xeeeeeeeeeeeeeeeeeeeeeeeeeeeeeeeeeeeeeeee",
                "decimals": 18
            }
        ]
    },
    "address_label": {
        "labels": [
            {
                "address": "0xeeeeeeeeeeeeeeeeeeeeeeeeeeeeeeeeeeeeeeee",
                "label": "Ether"
            },
            {
                "address": "0x5acc84a3e955bdd76467d3348077d003f00ffb97",
                "label": "Forsage.io"
            },
            {
                "address": "0x0000000000000000000000000000000000000001",
                "label": "Precompiled"
            },
            {
                "address": "0x0000000000000000000000000000000000000002",
                "label": "Precompiled"
            },
            {
                "address": "0x0000000000000000000000000000000000000003",
                "label": "Precompiled"
            },
            {
                "address": "0x0000000000000000000000000000000000000004",
                "label": "Precompiled"
            }
        ]
    },
    "trace": {
        "accountLabels": null,
        "dataMap": {
            "-1": {
                "invocation": {
                    "address": "0xcb3e08518dd778be435d91d54b09b28c1edddfda",
                    "callData": "",
                    "decodedMethod": null,
                    "errorInfo": "",
                    "fromAddress": "",
                    "gasUsed": 0,
                    "id": -1,
                    "methodDecoded": false,
                    "operation": "",
                    "output": "",
                    "revert": false,
                    "revertMessage": "",
                    "selector": "",
                    "status": false,
                    "value": ""
                },
                "nodeType": 0
            },
            "0": {
                "invocation": {
                    "address": "0x5acc84a3e955bdd76467d3348077d003f00ffb97",
                    "callData": "0x00000000000000000000000000000000000000000000000000000000000000010000000000000000000000000000000000000000000000000000000000000004",
                    "decodedMethod": {
                        "callParams": [
                            {
                                "name": "matrix",
                                "type": "uint8",
                                "value": "1"
                            },
                            {
                                "name": "level",
                                "type": "uint8",
                                "value": "4"
                            }
                        ],
                        "constructorArguments": "",
                        "name": "buyNewLevel",
                        "returnParams": [],
                        "signature": "buyNewLevel(uint8,uint8)"
                    },
                    "errorInfo": "",
                    "fromAddress": "0xcb3e08518dd778be435d91d54b09b28c1edddfda",
                    "gasUsed": 138958,
                    "id": 0,
                    "methodDecoded": true,
                    "operation": "CALL",
                    "output": "",
                    "revert": false,
                    "revertMessage": "",
                    "selector": "0xbe389d57",
                    "status": true,
                    "value": "0.2"
                },
                "nodeType": 0
            },
            "1": {
                "event": {
                    "contract": "0x5acc84a3e955bdd76467d3348077d003f00ffb97",
                    "decodedLog": {
                        "name": "NewUserPlace",
                        "params": [
                            {
                                "name": "user",
                                "type": "address",
                                "value": "0xcb3e08518dd778be435d91d54b09b28c1edddfda"
                            },
                            {
                                "name": "referrer",
                                "type": "address",
                                "value": "0x68aa746d138dd633f0196316618279265d17838a"
                            },
                            {
                                "name": "matrix",
                                "type": "uint8",
                                "value": "1"
                            },
                            {
                                "name": "level",
                                "type": "uint8",
                                "value": "4"
                            },
                            {
                                "name": "place",
                                "type": "uint8",
                                "value": "3"
                            }
                        ],
                        "signature": "NewUserPlace(address,address,uint8,uint8,uint8)"
                    },
                    "id": 1,
                    "logData": "0x000000000000000000000000000000000000000000000000000000000000000100000000000000000000000000000000000000000000000000000000000000040000000000000000000000000000000000000000000000000000000000000003",
                    "logDecoded": true,
                    "operation": "EVENT",
                    "revert": false,
                    "status": true,
                    "topics": [
                        "0x68062c5925c4317adf3a7095478d28b33fd8b41458bc7620b61bc46bf1b24d82",
                        "0x000000000000000000000000cb3e08518dd778be435d91d54b09b28c1edddfda",
                        "0x00000000000000000000000068aa746d138dd633f0196316618279265d17838a"
                    ]
                },
                "nodeType": 1
            },
            "2": {
                "event": {
                    "contract": "0x5acc84a3e955bdd76467d3348077d003f00ffb97",
                    "decodedLog": {
                        "name": "Reinvest",
                        "params": [
                            {
                                "name": "user",
                                "type": "address",
                                "value": "0x68aa746d138dd633f0196316618279265d17838a"
                            },
                            {
                                "name": "currentReferrer",
                                "type": "address",
                                "value": "0x0d468b66b49bb25a96f73c4f1b56d60fc0c90267"
                            },
                            {
                                "name": "caller",
                                "type": "address",
                                "value": "0xcb3e08518dd778be435d91d54b09b28c1edddfda"
                            },
                            {
                                "name": "matrix",
                                "type": "uint8",
                                "value": "1"
                            },
                            {
                                "name": "level",
                                "type": "uint8",
                                "value": "4"
                            }
                        ],
                        "signature": "Reinvest(address,address,address,uint8,uint8)"
                    },
                    "id": 2,
                    "logData": "0x00000000000000000000000000000000000000000000000000000000000000010000000000000000000000000000000000000000000000000000000000000004",
                    "logDecoded": true,
                    "operation": "EVENT",
                    "revert": false,
                    "status": true,
                    "topics": [
                        "0xa00c953eff38ec1b71e7fe060b2ab8df0bbe5354319fbdde4fbdafd6324386a6",
                        "0x00000000000000000000000068aa746d138dd633f0196316618279265d17838a",
                        "0x0000000000000000000000000d468b66b49bb25a96f73c4f1b56d60fc0c90267",
                        "0x000000000000000000000000cb3e08518dd778be435d91d54b09b28c1edddfda"
                    ]
                },
                "nodeType": 1
            },
            "3": {
                "event": {
                    "contract": "0x5acc84a3e955bdd76467d3348077d003f00ffb97",
                    "decodedLog": {
                        "name": "NewUserPlace",
                        "params": [
                            {
                                "name": "user",
                                "type": "address",
                                "value": "0x68aa746d138dd633f0196316618279265d17838a"
                            },
                            {
                                "name": "referrer",
                                "type": "address",
                                "value": "0x0d468b66b49bb25a96f73c4f1b56d60fc0c90267"
                            },
                            {
                                "name": "matrix",
                                "type": "uint8",
                                "value": "1"
                            },
                            {
                                "name": "level",
                                "type": "uint8",
                                "value": "4"
                            },
                            {
                                "name": "place",
                                "type": "uint8",
                                "value": "1"
                            }
                        ],
                        "signature": "NewUserPlace(address,address,uint8,uint8,uint8)"
                    },
                    "id": 3,
                    "logData": "0x000000000000000000000000000000000000000000000000000000000000000100000000000000000000000000000000000000000000000000000000000000040000000000000000000000000000000000000000000000000000000000000001",
                    "logDecoded": true,
                    "operation": "EVENT",
                    "revert": false,
                    "status": true,
                    "topics": [
                        "0x68062c5925c4317adf3a7095478d28b33fd8b41458bc7620b61bc46bf1b24d82",
                        "0x00000000000000000000000068aa746d138dd633f0196316618279265d17838a",
                        "0x0000000000000000000000000d468b66b49bb25a96f73c4f1b56d60fc0c90267"
                    ]
                },
                "nodeType": 1
            },
            "4": {
                "invocation": {
                    "address": "0x0d468b66b49bb25a96f73c4f1b56d60fc0c90267",
                    "callData": "0x",
                    "decodedMethod": null,
                    "errorInfo": "",
                    "fromAddress": "0x5acc84a3e955bdd76467d3348077d003f00ffb97",
                    "gasUsed": 0,
                    "id": 4,
                    "methodDecoded": false,
                    "operation": "CALL",
                    "output": "",
                    "revert": false,
                    "revertMessage": "",
                    "selector": "fallback",
                    "status": true,
                    "value": "0.2"
                },
                "nodeType": 0
            },
            "5": {
                "event": {
                    "contract": "0x5acc84a3e955bdd76467d3348077d003f00ffb97",
                    "decodedLog": {
                        "name": "Upgrade",
                        "params": [
                            {
                                "name": "user",
                                "type": "address",
                                "value": "0xcb3e08518dd778be435d91d54b09b28c1edddfda"
                            },
                            {
                                "name": "referrer",
                                "type": "address",
                                "value": "0x68aa746d138dd633f0196316618279265d17838a"
                            },
                            {
                                "name": "matrix",
                                "type": "uint8",
                                "value": "1"
                            },
                            {
                                "name": "level",
                                "type": "uint8",
                                "value": "4"
                            }
                        ],
                        "signature": "Upgrade(address,address,uint8,uint8)"
                    },
                    "id": 5,
                    "logData": "0x00000000000000000000000000000000000000000000000000000000000000010000000000000000000000000000000000000000000000000000000000000004",
                    "logDecoded": true,
                    "operation": "EVENT",
                    "revert": false,
                    "status": true,
                    "topics": [
                        "0x18a92df19fd94d6cfff209966673a5ca05a1c8e2bb68e097fce2bdc2ed811119",
                        "0x000000000000000000000000cb3e08518dd778be435d91d54b09b28c1edddfda",
                        "0x00000000000000000000000068aa746d138dd633f0196316618279265d17838a"
                    ]
                },
                "nodeType": 1
            }
        },
        "gasFlame": [
            {
                "children": [
                    {
                        "children": [
                            {
                                "children": [],
                                "depth": 0,
                                "name": "Initial Gas",
                                "value": 21344
                            },
                            {
                                "children": [
                                    {
                                        "children": [],
                                        "depth": 1,
                                        "name": "fallback",
                                        "value": 0
                                    }
                                ],
                                "depth": 0,
                                "name": "Executed Gas",
                                "value": 181814
                            }
                        ],
                        "depth": -1,
                        "name": "Actual Gas Used",
                        "value": 138958
                    },
                    {
                        "children": [],
                        "depth": -1,
                        "name": "Refunded Gas",
                        "value": 64200
                    }
                ],
                "depth": -2,
                "name": "Total Gas",
                "value": 203158
            }
        ],
        "isConfirmed": true,
        "mainTrace": [
            {
                "children": [
                    {
                        "children": [
                            {
                                "children": [],
                                "depth": 1,
                                "id": 1,
                                "order": 1
                            },
                            {
                                "children": [],
                                "depth": 1,
                                "id": 2,
                                "order": 2
                            },
                            {
                                "children": [],
                                "depth": 1,
                                "id": 3,
                                "order": 3
                            },
                            {
                                "children": [],
                                "depth": 1,
                                "id": 4,
                                "order": 4
                            },
                            {
                                "children": [],
                                "depth": 1,
                                "id": 5,
                                "order": 5
                            }
                        ],
                        "depth": 0,
                        "id": 0,
                        "order": 0
                    }
                ],
                "depth": -1,
                "id": -1,
                "order": -1
            }
        ],
        "mainTraceNodeCount": 6,
        "parentIdMap": {
            "0": -1,
            "1": 0,
            "2": 0,
            "3": 0,
            "4": 0,
            "5": 0
        },
        "tidyTrace": [
            {
                "children": [
                    {
                        "children": [
                            {
                                "children": [],
                                "depth": 1,
                                "id": 1,
                                "order": 1
                            },
                            {
                                "children": [],
                                "depth": 1,
                                "id": 2,
                                "order": 2
                            },
                            {
                                "children": [],
                                "depth": 1,
                                "id": 3,
                                "order": 3
                            },
                            {
                                "children": [],
                                "depth": 1,
                                "id": 4,
                                "order": 4
                            },
                            {
                                "children": [],
                                "depth": 1,
                                "id": 5,
                                "order": 5
                            }
                        ],
                        "depth": 0,
                        "id": 0,
                        "order": 0
                    }
                ],
                "depth": -1,
                "id": -1,
                "order": -1
            }
        ],
        "tidyTraceNodeCount": 6
    },
    "state_change": {
        "stateChanges": [
            {
                "address": "0x5acc84a3e955bdd76467d3348077d003f00ffb97",
                "erc": "",
                "slots": [
                    {
                        "current": "0x00000000000000000000000068aa746d138dd633f0196316618279265d17838a",
                        "key": "0x0e219eb73e7c7513f9b74d7327df2076c02691a796a61752ce1c10a477ecbebe",
                        "prev": "0x0000000000000000000000000000000000000000000000000000000000000000"
                    },
                    {
                        "current": "0x0000000000000000000000000000000000000000000000000000000000000001",
                        "key": "0xdf0aab9f1da4851f601472a58b483d65cb9a4cb11e5ca011eeb12a6fd80f627d",
                        "prev": "0x0000000000000000000000000000000000000000000000000000000000000000"
                    },
                    {
                        "current": "0x0000000000000000000000000000000000000000000000000000000000000000",
                        "key": "0x15bb185ef8bf5d4aaf28bc9cee7e3cfb56fb624c718b8f9f111c278630ae9218",
                        "prev": "0x0000000000000000000000007ca68d225405f92c9d6a9f9bacc357072c63da9f"
                    },
                    {
                        "current": "0x00000000000000000000000068aa746d138dd633f0196316618279265d17838a",
                        "key": "0x408dcb79a97d525e6e466c0bf93df5daa909b6e8f8e4e5b0e02383699822d0cb",
                        "prev": "0x0000000000000000000000000000000000000000000000000000000000000000"
                    },
                    {
                        "current": "0x0000000000000000000000000000000000000000000000000000000000000001",
                        "key": "0x5f9ff6a8c6af3e0d1384f2d29b2e4678f6ec21887a3dc7b3de79c1d3741a13b4",
                        "prev": "0x0000000000000000000000000000000000000000000000000000000000000000"
                    },
                    {
                        "current": "0x0000000000000000000000000000000000000000000000000000000000000001",
                        "key": "0xe8c8af3070b52038f8a6362fae723050a395a183628ee92ffe4f740e266b1178",
                        "prev": "0x0000000000000000000000000000000000000000000000000000000000000000"
                    },
                    {
                        "current": "0x0000000000000000000000000000000000000000000000000000000000000000",
                        "key": "0xe8c8af3070b52038f8a6362fae723050a395a183628ee92ffe4f740e266b1176",
                        "prev": "0x0000000000000000000000000000000000000000000000000000000000000002"
                    },
                    {
                        "current": "0x0000000000000000000000000000000000000000000000000000000000000000",
                        "key": "0x15bb185ef8bf5d4aaf28bc9cee7e3cfb56fb624c718b8f9f111c278630ae9219",
                        "prev": "0x000000000000000000000000fb823d340d09f2b832725007d84103d5c4a53111"
                    }
                ],
                "storageVariables": [
                    {
                        "name": "users",
                        "type": "mapping(address => struct SmartMatrixForsage.User)",
                        "value": {
                            "pairs": [
                                {
                                    "key": "0x0d468b66b49bb25a96f73c4f1b56d60fc0c90267",
                                    "value": {
                                        "fields": [
                                            {
                                                "name": "x3Matrix",
                                                "type": "mapping(uint8 => struct SmartMatrixForsage.X3)",
                                                "value": {
                                                    "pairs": [
                                                        {
                                                            "key": "4",
                                                            "value": {
                                                                "fields": [
                                                                    {
                                                                        "name": "referrals",
                                                                        "type": "address[]",
                                                                        "value": {
                                                                            "elemType": "address",
                                                                            "elems": [
                                                                                {
                                                                                    "index": 0,
                                                                                    "value": {
                                                                                        "current": "0x68aa746d138dd633f0196316618279265d17838a",
                                                                                        "prev": "0x0000000000000000000000000000000000000000",
                                                                                        "typeTag": 1
                                                                                    }
                                                                                }
                                                                            ],
                                                                            "typeTag": 2
                                                                        }
                                                                    }
                                                                ],
                                                                "typeTag": 3
                                                            }
                                                        }
                                                    ],
                                                    "typeTag": 4
                                                }
                                            }
                                        ],
                                        "typeTag": 3
                                    }
                                },
                                {
                                    "key": "0x68aa746d138dd633f0196316618279265d17838a",
                                    "value": {
                                        "fields": [
                                            {
                                                "name": "x3Matrix",
                                                "type": "mapping(uint8 => struct SmartMatrixForsage.X3)",
                                                "value": {
                                                    "pairs": [
                                                        {
                                                            "key": "4",
                                                            "value": {
                                                                "fields": [
                                                                    {
                                                                        "name": "reinvestCount",
                                                                        "type": "uint256",
                                                                        "value": {
                                                                            "current": "1",
                                                                            "prev": "0",
                                                                            "typeTag": 1
                                                                        }
                                                                    }
                                                                ],
                                                                "typeTag": 3
                                                            }
                                                        }
                                                    ],
                                                    "typeTag": 4
                                                }
                                            }
                                        ],
                                        "typeTag": 3
                                    }
                                },
                                {
                                    "key": "0xcb3e08518dd778be435d91d54b09b28c1edddfda",
                                    "value": {
                                        "fields": [
                                            {
                                                "name": "activeX3Levels",
                                                "type": "mapping(uint8 => bool)",
                                                "value": {
                                                    "pairs": [
                                                        {
                                                            "key": "4",
                                                            "value": {
                                                                "current": "true",
                                                                "prev": "false",
                                                                "typeTag": 1
                                                            }
                                                        }
                                                    ],
                                                    "typeTag": 4
                                                }
                                            },
                                            {
                                                "name": "x3Matrix",
                                                "type": "mapping(uint8 => struct SmartMatrixForsage.X3)",
                                                "value": {
                                                    "pairs": [
                                                        {
                                                            "key": "4",
                                                            "value": {
                                                                "fields": [
                                                                    {
                                                                        "name": "currentReferrer",
                                                                        "type": "address",
                                                                        "value": {
                                                                            "current": "0x68aa746d138dd633f0196316618279265d17838a",
                                                                            "prev": "0x0000000000000000000000000000000000000000",
                                                                            "typeTag": 1
                                                                        }
                                                                    }
                                                                ],
                                                                "typeTag": 3
                                                            }
                                                        }
                                                    ],
                                                    "typeTag": 4
                                                }
                                            }
                                        ],
                                        "typeTag": 3
                                    }
                                }
                            ],
                            "typeTag": 4
                        }
                    }
                ]
            }
        ]
    }
}