{
    "balance_change": {
        "balanceChanges": []
    },
    "profile": {
        "basic_info": {
            "baseFee": "",
            "blockNumber": 6022867,
            "callData": "0xa9059cbb0000000000000000000000000e69d0a2bbb30abcb7e5cfea0e4fde19c00a8d470000000000000000000000000000000000000000000000000000000000000000",
            "debugEnable": true,
            "errorInfo": "",
            "eventCount": 1,
            "feeRecipient": "0x5a0b54d5dc17e0aadc383d2db43b0a0d3e029c4c",
            "formatValue": "0",
            "gasLimit": 100000,
            "gasPrice": "1.3",
            "gasUsed": 84611,
            "intTxnCount": 0,
            "internalRevert": false,
            "internalRevertMessage": "",
            "isContractCreation": false,
            "isFlashloan": false,
            "maxFee": "",
            "nonce": 1,
            "overwritedBlockNumber": -1,
            "priorityFee": "",
            "receiver": "0x0e69d0a2bbb30abcb7e5cfea0e4fde19c00a8d47",
            "revertMessage": "",
            "sender": "0x6b5847c6996fd99242e5b305fcb7e358a6e16ff8",
            "simulationEnable": true,
            "sourceTxnHash": "0xbf0a7feeaa0ed66ca8194094ec6a32851383e83fa99a980d6d489daa453543f8",
            "status": true,
            "timestamp": "2018-07-24T17:35:41Z",
            "transactionFee": "0.0001099943",
            "txnHash": "0xbf0a7feeaa0ed66ca8194094ec6a32851383e83fa99a980d6d489daa453543f8",
            "txnIndex": 27,
            "type": 0,
            "value": "0"
        },
        "fund_flow": [
            {
                "amount": "0",
                "from": "0x6b5847c6996fd99242e5b305fcb7e358a6e16ff8",
                "id": 1,
                "isERC1155": false,
                "isERC721": false,
                "isReverted": false,
                "order": 1,
                "to": "0x0e69d0a2bbb30abcb7e5cfea0e4fde19c00a8d47",
                "token": "0x0e69d0a2bbb30abcb7e5cfea0e4fde19c00a8d47"
            }
        ],
        "token_infos": [
            {
                "address": "0x0e69d0a2bbb30abcb7e5cfea0e4fde19c00a8d47",
                "decimals": 8
            },
            {
                "address": "0xc02aaa39b223fe8d0a0e5c4f27ead9083c756cc2",
                "decimals": 18
            },
            {
                "address": "0xeeeeeeeeeeeeeeeeeeeeeeeeeeeeeeeeeeeeeeee",
                "decimals": 18
            }
        ]
    },
    "address_label": {
        "labels": [
            {
                "address": "0x0000000000000000000000000000000000000003",
                "label": "Precompiled"
            },
            {
                "address": "0x0000000000000000000000000000000000000004",
                "label": "Precompiled"
            },
            {
                "address": "0xeeeeeeeeeeeeeeeeeeeeeeeeeeeeeeeeeeeeeeee",
                "label": "Ether"
            },
            {
                "address": "0x0e69d0a2bbb30abcb7e5cfea0e4fde19c00a8d47",
                "label": "CarLive Chain: IOV Token"
            },
            {
                "address": "0x0000000000000000000000000000000000000001",
                "label": "Precompiled"
            },
            {
                "address": "0x0000000000000000000000000000000000000002",
                "label": "Precompiled"
            }
        ]
    },
    "trace": {
        "accountLabels": null,
        "dataMap": {
            "-1": {
                "invocation": {
                    "address": "0x6b5847c6996fd99242e5b305fcb7e358a6e16ff8",
                    "callData": "",
                    "decodedMethod": null,
                    "errorInfo": "",
                    "fromAddress": "",
                    "gasUsed": 0,
                    "id": -1,
                    "methodDecoded": false,
                    "operation": "",
                    "output": "",
                    "revert": false,
                    "revertMessage": "",
                    "selector": "",
                    "status": false,
                    "value": ""
                },
                "nodeType": 0
            },
            "0": {
                "invocation": {
                    "address": "0x0e69d0a2bbb30abcb7e5cfea0e4fde19c00a8d47",
                    "callData": "0x0000000000000000000000000e69d0a2bbb30abcb7e5cfea0e4fde19c00a8d470000000000000000000000000000000000000000000000000000000000000000",
                    "decodedMethod": {
                        "callParams": [
                            {
                                "name": "dst",
                                "type": "address",
                                "value": "0x0e69d0a2bbb30abcb7e5cfea0e4fde19c00a8d47"
                            },
                            {
                                "decimalAvailable": true,
                                "name": "wad",
                                "type": "uint256",
                                "value": "0"
                            }
                        ],
                        "constructorArguments": "",
                        "name": "transfer",
                        "returnParams": [
                            {
                                "name": "",
                                "type": "bool",
                                "value": true
                            }
                        ],
                        "signature": "transfer(address,uint256)"
                    },
                    "errorInfo": "",
                    "fromAddress": "0x6b5847c6996fd99242e5b305fcb7e358a6e16ff8",
                    "gasUsed": 84611,
                    "id": 0,
                    "methodDecoded": true,
                    "operation": "CALL",
                    "output": "0x0000000000000000000000000000000000000000000000000000000000000001",
                    "revert": false,
                    "revertMessage": "",
                    "selector": "0xa9059cbb",
                    "status": true,
                    "value": "0"
                },
                "nodeType": 0
            },
            "1": {
                "event": {
                    "contract": "0x0e69d0a2bbb30abcb7e5cfea0e4fde19c00a8d47",
                    "decodedLog": {
                        "name": "Transfer",
                        "params": [
                            {
                                "name": "src",
                                "type": "address",
                                "value": "0x6b5847c6996fd99242e5b305fcb7e358a6e16ff8"
                            },
                            {
                                "name": "dst",
                                "type": "address",
                                "value": "0x0e69d0a2bbb30abcb7e5cfea0e4fde19c00a8d47"
                            },
                            {
                                "decimalAvailable": true,
                                "name": "wad",
                                "type": "uint256",
                                "value": "0"
                            }
                        ],
                        "signature": "Transfer(address,address,uint256)"
                    },
                    "id": 1,
                    "logData": "0x0000000000000000000000000000000000000000000000000000000000000000",
                    "logDecoded": true,
                    "operation": "EVENT",
                    "revert": false,
                    "status": true,
                    "topics": [
                        "0xddf252ad1be2c89b69c2b068fc378daa952ba7f163c4a11628f55a4df523b3ef",
                        "0x0000000000000000000000006b5847c6996fd99242e5b305fcb7e358a6e16ff8",
                        "0x0000000000000000000000000e69d0a2bbb30abcb7e5cfea0e4fde19c00a8d47"
                    ]
                },
                "nodeType": 1
            }
        },
        "gasFlame": [
            {
                "children": [
                    {
                        "children": [
                            {
                                "children": [],
                                "depth": 0,
                                "name": "Initial Gas",
                                "value": 22808
                            },
                            {
                                "children": [],
                                "depth": 0,
                                "name": "Executed Gas",
                                "value": 61803
                            }
                        ],
                        "depth": -1,
                        "name": "Actual Gas Used",
                        "value": 84611
                    },
                    {
                        "children": [],
                        "depth": -1,
                        "name": "Refunded Gas",
                        "value": 0
                    }
                ],
                "depth": -2,
                "name": "Total Gas",
                "value": 84611
            }
        ],
        "isConfirmed": true,
        "mainTrace": [
            {
                "children": [
                    {
                        "children": [
                            {
                                "children": [],
                                "depth": 1,
                                "id": 1,
                                "order": 1
                            }
                        ],
                        "depth": 0,
                        "id": 0,
                        "order": 0
                    }
                ],
                "depth": -1,
                "id": -1,
                "order": -1
            }
        ],
        "mainTraceNodeCount": 2,
        "parentIdMap": {
            "0": -1,
            "1": 0
        },
        "tidyTrace": [
            {
                "children": [
                    {
                        "children": [
                            {
                                "children": [],
                                "depth": 1,
                                "id": 1,
                                "order": 1
                            }
                        ],
                        "depth": 0,
                        "id": 0,
                        "order": 0
                    }
                ],
                "depth": -1,
                "id": -1,
                "order": -1
            }
        ],
        "tidyTraceNodeCount": 2
    },
    "state_change": {
        "stateChanges": [
            {
                "address": "0x0e69d0a2bbb30abcb7e5cfea0e4fde19c00a8d47",
                "erc": "ERC-20",
                "slots": [
                    {
                        "current": "0x000000000000000000000000000000000000000000000000000000003b9aca00",
                        "key": "0x2c29c81203bee6ac7d40c842eb9bb1a35a04ca04a82eb045561caedb9407d484",
                        "prev": "0x0000000000000000000000000000000000000000000000000000000000000000"
                    },
                    {
                        "current": "0x0000000000000000000000000000000000000000000000000000000000000001",
                        "key": "0xdaeb805ae6f8bd1387986fa253ecccb8b8183890ae1faff14182a7c96adcce92",
                        "prev": "0x0000000000000000000000000000000000000000000000000000000000000000"
                    },
                    {
                        "current": "0x000000000000000000000000000000000000000000000000000008235e5c8800",
                        "key": "0x0000000000000000000000000000000000000000000000000000000000000004",
                        "prev": "0x0000000000000000000000000000000000000000000000000000082322c1be00"
                    }
                ],
                "storageVariables": [
                    {
                        "name": "_balances",
                        "type": "mapping(address => uint256)",
                        "value": {
                            "pairs": [
                                {
                                    "key": "0x6b5847c6996fd99242e5b305fcb7e358a6e16ff8",
                                    "value": {
                                        "current": "1000000000",
                                        "prev": "0",
                                        "typeTag": 1
                                    }
                                }
                            ],
                            "typeTag": 4
                        }
                    },
                    {
                        "name": "touched",
                        "type": "mapping(address => bool)",
                        "value": {
                            "pairs": [
                                {
                                    "key": "0x6b5847c6996fd99242e5b305fcb7e358a6e16ff8",
                                    "value": {
                                        "current": "true",
                                        "prev": "false",
                                        "typeTag": 1
                                    }
                                }
                            ],
                            "typeTag": 4
                        }
                    },
                    {
                        "name": "currentAirdropAmount",
                        "type": "uint256",
                        "value": {
                            "current": "8948000000000",
                            "prev": "8947000000000",
                            "typeTag": 1
                        }
                    }
                ]
            }
        ]
    }
}