{
    "balance_change": {
        "balanceChanges": [
            {
                "account": "0x797726c7c3156b4a479e95b31865ef98d4d468f4",
                "assets": [
                    {
                        "address": "0x905e337c6c8645263d3521205aa37bf4d034e745",
                        "amount": "5.6",
                        "iconUrl": "https://assets.blocksec.com/icon/7eb1acbb3f14f8453810e5b34872c48b7ad632df868e6644fa8357677f296ec9.png",
                        "isERC1155": false,
                        "isERC721": false,
                        "sign": true,
                        "value": ""
                    }
                ]
            },
            {
                "account": "0xa9958ed59bafcfe2e156748222ca325b75388881",
                "assets": [
                    {
                        "address": "0x905e337c6c8645263d3521205aa37bf4d034e745",
                        "amount": "7",
                        "iconUrl": "https://assets.blocksec.com/icon/7eb1acbb3f14f8453810e5b34872c48b7ad632df868e6644fa8357677f296ec9.png",
                        "isERC1155": false,
                        "isERC721": false,
                        "sign": false,
                        "value": ""
                    }
                ]
            },
            {
                "account": "0xb8ef328c2923e7f0885af2ee4c5d5854d6dd3350",
                "assets": [
                    {
                        "address": "0xeeeeeeeeeeeeeeeeeeeeeeeeeeeeeeeeeeeeeeee",
                        "amount": "0.001",
                        "iconUrl": "https://assets.blocksec.com/image/1663669189317-3.png",
                        "isERC1155": false,
                        "isERC721": false,
                        "sign": true,
                        "value": ""
                    },
                    {
                        "address": "0x905e337c6c8645263d3521205aa37bf4d034e745",
                        "amount": "1.4",
                        "iconUrl": "https://assets.blocksec.com/icon/7eb1acbb3f14f8453810e5b34872c48b7ad632df868e6644fa8357677f296ec9.png",
                        "isERC1155": false,
                        "isERC721": false,
                        "sign": true,
                        "value": ""
                    }
                ]
            },
            {
                "account": "0xd5586ef251b2fbe32a03f226868e581c9f1aa261",
                "assets": [
                    {
                        "address": "0xeeeeeeeeeeeeeeeeeeeeeeeeeeeeeeeeeeeeeeee",
                        "amount": "0.001",
                        "iconUrl": "https://assets.blocksec.com/image/1663669189317-3.png",
                        "isERC1155": false,
                        "isERC721": false,
                        "sign": false,
                        "value": ""
                    }
                ]
            }
        ]
    },
    "profile": {
        "basic_info": {
            "baseFee": "",
            "blockNumber": 6533749,
            "callData": "0x21670f22000000000000000000000000b8ef328c2923e7f0885af2ee4c5d5854d6dd3350000000000000000000000000000000000000000000000000136dcc951d8c0000",
            "debugEnable": true,
            "errorInfo": "",
            "eventCount": 3,
            "feeRecipient": "0xb2930b35844a230f00e51431acae96fe543a0347",
            "formatValue": "0",
            "gasLimit": 142338,
            "gasPrice": "6",
            "gasUsed": 141563,
            "intTxnCount": 4,
            "internalRevert": false,
            "internalRevertMessage": "",
            "isContractCreation": false,
            "isFlashloan": false,
            "maxFee": "",
            "nonce": 2787,
            "overwritedBlockNumber": -1,
            "priorityFee": "",
            "receiver": "0x0a9a88059c8d54af3d466020af987e98d4024219",
            "revertMessage": "",
            "sender": "0x460e5412c8b492d95d6b4aeac6f329fb7281cec5",
            "simulationEnable": true,
            "sourceTxnHash": "0xbf8dd6118fa6f6fa68e9d7cd6121dc8e1fa3a2f2ab17418fdc86314c1f7b198e",
            "status": true,
            "timestamp": "2018-10-17T19:47:46Z",
            "transactionFee": "0.000849378",
            "txnHash": "0xbf8dd6118fa6f6fa68e9d7cd6121dc8e1fa3a2f2ab17418fdc86314c1f7b198e",
            "txnIndex": 9,
            "type": 0,
            "value": "0"
        },
        "fund_flow": [
            {
                "amount": "0.001",
                "from": "0xd5586ef251b2fbe32a03f226868e581c9f1aa261",
                "id": 1,
                "isERC1155": false,
                "isERC721": false,
                "isReverted": false,
                "order": 1,
                "to": "0xb8ef328c2923e7f0885af2ee4c5d5854d6dd3350",
                "token": "0xeeeeeeeeeeeeeeeeeeeeeeeeeeeeeeeeeeeeeeee"
            },
            {
                "amount": "5.6",
                "from": "0xa9958ed59bafcfe2e156748222ca325b75388881",
                "id": 2,
                "isERC1155": false,
                "isERC721": false,
                "isReverted": false,
                "order": 2,
                "to": "0x797726c7c3156b4a479e95b31865ef98d4d468f4",
                "token": "0x905e337c6c8645263d3521205aa37bf4d034e745"
            },
            {
                "amount": "1.4",
                "from": "0xa9958ed59bafcfe2e156748222ca325b75388881",
                "id": 3,
                "isERC1155": false,
                "isERC721": false,
                "isReverted": false,
                "order": 3,
                "to": "0xb8ef328c2923e7f0885af2ee4c5d5854d6dd3350",
                "token": "0x905e337c6c8645263d3521205aa37bf4d034e745"
            }
        ],
        "token_infos": [
            {
                "address": "0xeeeeeeeeeeeeeeeeeeeeeeeeeeeeeeeeeeeeeeee",
                "decimals": 18
            },
            {
                "address": "0x905e337c6c8645263d3521205aa37bf4d034e745",
                "decimals": 18
            },
            {
                "address": "0xc02aaa39b223fe8d0a0e5c4f27ead9083c756cc2",
                "decimals": 18
            }
        ]
    },
    "address_label": {
        "labels": [
            {
                "address": "0x0000000000000000000000000000000000000001",
                "label": "Precompiled"
            },
            {
                "address": "0x0000000000000000000000000000000000000002",
                "label": "Precompiled"
            },
            {
                "address": "0x0000000000000000000000000000000000000003",
                "label": "Precompiled"
            },
            {
                "address": "0x0000000000000000000000000000000000000004",
                "label": "Precompiled"
            },
            {
                "address": "0xeeeeeeeeeeeeeeeeeeeeeeeeeeeeeeeeeeeeeeee",
                "label": "Ether"
            },
            {
                "address": "0x905e337c6c8645263d3521205aa37bf4d034e745",
                "label": "Medical Token Currency (MTC)"
            },
            {
                "address": "0x0a9a88059c8d54af3d466020af987e98d4024219",
                "label": "BrokerInt"
            },
            {
                "address": "0xd5586ef251b2fbe32a03f226868e581c9f1aa261",
                "label": "BrokerImp"
            }
        ]
    },
    "trace": {
        "accountLabels": null,
        "dataMap": {
            "-1": {
                "invocation": {
                    "address": "0x460e5412c8b492d95d6b4aeac6f329fb7281cec5",
                    "callData": "",
                    "decodedMethod": null,
                    "errorInfo": "",
                    "fromAddress": "",
                    "gasUsed": 0,
                    "id": -1,
                    "methodDecoded": false,
                    "operation": "",
                    "output": "",
                    "revert": false,
                    "revertMessage": "",
                    "selector": "",
                    "status": false,
                    "value": ""
                },
                "nodeType": 0
            },
            "0": {
                "invocation": {
                    "address": "0x0a9a88059c8d54af3d466020af987e98d4024219",
                    "callData": "0x000000000000000000000000b8ef328c2923e7f0885af2ee4c5d5854d6dd3350000000000000000000000000000000000000000000000000136dcc951d8c0000",
                    "decodedMethod": {
                        "callParams": [
                            {
                                "name": "_beneficiary",
                                "type": "address",
                                "value": "0xb8ef328c2923e7f0885af2ee4c5d5854d6dd3350"
                            },
                            {
                                "name": "_value",
                                "type": "uint256",
                                "value": "1,400,000,000,000,000,000"
                            }
                        ],
                        "constructorArguments": "",
                        "name": "reward",
                        "returnParams": [],
                        "signature": "reward(address,uint256)"
                    },
                    "errorInfo": "",
                    "fromAddress": "0x460e5412c8b492d95d6b4aeac6f329fb7281cec5",
                    "gasUsed": 141563,
                    "id": 0,
                    "methodDecoded": true,
                    "operation": "CALL",
                    "output": "",
                    "revert": false,
                    "revertMessage": "",
                    "selector": "0x21670f22",
                    "status": true,
                    "value": "0"
                },
                "nodeType": 0
            },
            "1": {
                "invocation": {
                    "address": "0xd5586ef251b2fbe32a03f226868e581c9f1aa261",
                    "callData": "0x000000000000000000000000b8ef328c2923e7f0885af2ee4c5d5854d6dd3350000000000000000000000000000000000000000000000000136dcc951d8c0000",
                    "decodedMethod": {
                        "callParams": [
                            {
                                "name": "_beneficiary",
                                "type": "address",
                                "value": "0xb8ef328c2923e7f0885af2ee4c5d5854d6dd3350"
                            },
                            {
                                "name": "_value",
                                "type": "uint256",
                                "value": "1,400,000,000,000,000,000"
                            }
                        ],
                        "constructorArguments": "",
                        "name": "reward",
                        "returnParams": [
                            {
                                "name": "",
                                "type": "bool",
                                "value": true
                            }
                        ],
                        "signature": "reward(address,uint256)"
                    },
                    "errorInfo": "",
                    "fromAddress": "0x0a9a88059c8d54af3d466020af987e98d4024219",
                    "gasUsed": 114360,
                    "id": 1,
                    "methodDecoded": true,
                    "operation": "CALL",
                    "output": "0x0000000000000000000000000000000000000000000000000000000000000001",
                    "revert": false,
                    "revertMessage": "",
                    "selector": "0x21670f22",
                    "status": true,
                    "value": "0"
                },
                "nodeType": 0
            },
            "2": {
                "invocation": {
                    "address": "0xb8ef328c2923e7f0885af2ee4c5d5854d6dd3350",
                    "callData": "0x",
                    "decodedMethod": null,
                    "errorInfo": "",
                    "fromAddress": "0xd5586ef251b2fbe32a03f226868e581c9f1aa261",
                    "gasUsed": 0,
                    "id": 2,
                    "methodDecoded": false,
                    "operation": "CALL",
                    "output": "",
                    "revert": false,
                    "revertMessage": "",
                    "selector": "fallback",
                    "status": true,
                    "value": "0.001"
                },
                "nodeType": 0
            },
            "3": {
                "invocation": {
                    "address": "0x905e337c6c8645263d3521205aa37bf4d034e745",
                    "callData": "0x000000000000000000000000a9958ed59bafcfe2e156748222ca325b75388881000000000000000000000000797726c7c3156b4a479e95b31865ef98d4d468f40000000000000000000000000000000000000000000000004db7325476300000",
                    "decodedMethod": {
                        "callParams": [
                            {
                                "name": "_from",
                                "type": "address",
                                "value": "0xa9958ed59bafcfe2e156748222ca325b75388881"
                            },
                            {
                                "name": "_to",
                                "type": "address",
                                "value": "0x797726c7c3156b4a479e95b31865ef98d4d468f4"
                            },
                            {
                                "decimalAvailable": true,
                                "name": "_value",
                                "type": "uint256",
                                "value": "5,600,000,000,000,000,000"
                            }
                        ],
                        "constructorArguments": "",
                        "name": "transferFrom",
                        "returnParams": [
                            {
                                "name": "",
                                "type": "bool",
                                "value": true
                            }
                        ],
                        "signature": "transferFrom(address,address,uint256)"
                    },
                    "errorInfo": "",
                    "fromAddress": "0xd5586ef251b2fbe32a03f226868e581c9f1aa261",
                    "gasUsed": 19852,
                    "id": 3,
                    "methodDecoded": true,
                    "operation": "CALL",
                    "output": "0x0000000000000000000000000000000000000000000000000000000000000001",
                    "revert": false,
                    "revertMessage": "",
                    "selector": "0x23b872dd",
                    "status": true,
                    "value": "0"
                },
                "nodeType": 0
            },
            "4": {
                "event": {
                    "contract": "0x905e337c6c8645263d3521205aa37bf4d034e745",
                    "decodedLog": {
                        "name": "Transfer",
                        "params": [
                            {
                                "name": "from",
                                "type": "address",
                                "value": "0xa9958ed59bafcfe2e156748222ca325b75388881"
                            },
                            {
                                "name": "to",
                                "type": "address",
                                "value": "0x797726c7c3156b4a479e95b31865ef98d4d468f4"
                            },
                            {
                                "decimalAvailable": true,
                                "name": "value",
                                "type": "uint256",
                                "value": "5,600,000,000,000,000,000"
                            }
                        ],
                        "signature": "Transfer(address,address,uint256)"
                    },
                    "id": 4,
                    "logData": "0x0000000000000000000000000000000000000000000000004db7325476300000",
                    "logDecoded": true,
                    "operation": "EVENT",
                    "revert": false,
                    "status": true,
                    "topics": [
                        "0xddf252ad1be2c89b69c2b068fc378daa952ba7f163c4a11628f55a4df523b3ef",
                        "0x000000000000000000000000a9958ed59bafcfe2e156748222ca325b75388881",
                        "0x000000000000000000000000797726c7c3156b4a479e95b31865ef98d4d468f4"
                    ]
                },
                "nodeType": 1
            },
            "5": {
                "invocation": {
                    "address": "0x905e337c6c8645263d3521205aa37bf4d034e745",
                    "callData": "0x000000000000000000000000a9958ed59bafcfe2e156748222ca325b75388881000000000000000000000000b8ef328c2923e7f0885af2ee4c5d5854d6dd3350000000000000000000000000000000000000000000000000136dcc951d8c0000",
                    "decodedMethod": {
                        "callParams": [
                            {
                                "name": "_from",
                                "type": "address",
                                "value": "0xa9958ed59bafcfe2e156748222ca325b75388881"
                            },
                            {
                                "name": "_to",
                                "type": "address",
                                "value": "0xb8ef328c2923e7f0885af2ee4c5d5854d6dd3350"
                            },
                            {
                                "decimalAvailable": true,
                                "name": "_value",
                                "type": "uint256",
                                "value": "1,400,000,000,000,000,000"
                            }
                        ],
                        "constructorArguments": "",
                        "name": "transferFrom",
                        "returnParams": [
                            {
                                "name": "",
                                "type": "bool",
                                "value": true
                            }
                        ],
                        "signature": "transferFrom(address,address,uint256)"
                    },
                    "errorInfo": "",
                    "fromAddress": "0xd5586ef251b2fbe32a03f226868e581c9f1aa261",
                    "gasUsed": 34852,
                    "id": 5,
                    "methodDecoded": true,
                    "operation": "CALL",
                    "output": "0x0000000000000000000000000000000000000000000000000000000000000001",
                    "revert": false,
                    "revertMessage": "",
                    "selector": "0x23b872dd",
                    "status": true,
                    "value": "0"
                },
                "nodeType": 0
            },
            "6": {
                "event": {
                    "contract": "0x905e337c6c8645263d3521205aa37bf4d034e745",
                    "decodedLog": {
                        "name": "Transfer",
                        "params": [
                            {
                                "name": "from",
                                "type": "address",
                                "value": "0xa9958ed59bafcfe2e156748222ca325b75388881"
                            },
                            {
                                "name": "to",
                                "type": "address",
                                "value": "0xb8ef328c2923e7f0885af2ee4c5d5854d6dd3350"
                            },
                            {
                                "decimalAvailable": true,
                                "name": "value",
                                "type": "uint256",
                                "value": "1,400,000,000,000,000,000"
                            }
                        ],
                        "signature": "Transfer(address,address,uint256)"
                    },
                    "id": 6,
                    "logData": "0x000000000000000000000000000000000000000000000000136dcc951d8c0000",
                    "logDecoded": true,
                    "operation": "EVENT",
                    "revert": false,
                    "status": true,
                    "topics": [
                        "0xddf252ad1be2c89b69c2b068fc378daa952ba7f163c4a11628f55a4df523b3ef",
                        "0x000000000000000000000000a9958ed59bafcfe2e156748222ca325b75388881",
                        "0x000000000000000000000000b8ef328c2923e7f0885af2ee4c5d5854d6dd3350"
                    ]
                },
                "nodeType": 1
            },
            "7": {
                "event": {
                    "contract": "0x0a9a88059c8d54af3d466020af987e98d4024219",
                    "decodedLog": {
                        "name": "Reward",
                        "params": [
                            {
                                "name": "_to",
                                "type": "address",
                                "value": "0xb8ef328c2923e7f0885af2ee4c5d5854d6dd3350"
                            },
                            {
                                "name": "_value",
                                "type": "uint256",
                                "value": "1,400,000,000,000,000,000"
                            }
                        ],
                        "signature": "Reward(address,uint256)"
                    },
                    "id": 7,
                    "logData": "0x000000000000000000000000b8ef328c2923e7f0885af2ee4c5d5854d6dd3350000000000000000000000000000000000000000000000000136dcc951d8c0000",
                    "logDecoded": true,
                    "operation": "EVENT",
                    "revert": false,
                    "status": true,
                    "topics": [
                        "0x619caafabdd75649b302ba8419e48cccf64f37f1983ac4727cfb38b57703ffc9"
                    ]
                },
                "nodeType": 1
            }
        },
        "gasFlame": [
            {
                "children": [
                    {
                        "children": [
                            {
                                "children": [],
                                "depth": 0,
                                "name": "Initial Gas",
                                "value": 23192
                            },
                            {
                                "children": [
                                    {
                                        "children": [
                                            {
                                                "children": [],
                                                "depth": 2,
                                                "name": "fallback",
                                                "value": 0
                                            },
                                            {
                                                "children": [],
                                                "depth": 2,
                                                "name": "transferFrom",
                                                "value": 19852
                                            },
                                            {
                                                "children": [],
                                                "depth": 2,
                                                "name": "transferFrom",
                                                "value": 34852
                                            }
                                        ],
                                        "depth": 1,
                                        "name": "reward",
                                        "value": 114360
                                    }
                                ],
                                "depth": 0,
                                "name": "Executed Gas",
                                "value": 118371
                            }
                        ],
                        "depth": -1,
                        "name": "Actual Gas Used",
                        "value": 141563
                    },
                    {
                        "children": [],
                        "depth": -1,
                        "name": "Refunded Gas",
                        "value": 0
                    }
                ],
                "depth": -2,
                "name": "Total Gas",
                "value": 141563
            }
        ],
        "isConfirmed": true,
        "mainTrace": [
            {
                "children": [
                    {
                        "children": [
                            {
                                "children": [
                                    {
                                        "children": [],
                                        "depth": 2,
                                        "id": 2,
                                        "order": 2
                                    },
                                    {
                                        "children": [
                                            {
                                                "children": [],
                                                "depth": 3,
                                                "id": 4,
                                                "order": 4
                                            }
                                        ],
                                        "depth": 2,
                                        "id": 3,
                                        "order": 3
                                    },
                                    {
                                        "children": [
                                            {
                                                "children": [],
                                                "depth": 3,
                                                "id": 6,
                                                "order": 6
                                            }
                                        ],
                                        "depth": 2,
                                        "id": 5,
                                        "order": 5
                                    }
                                ],
                                "depth": 1,
                                "id": 1,
                                "order": 1
                            },
                            {
                                "children": [],
                                "depth": 1,
                                "id": 7,
                                "order": 7
                            }
                        ],
                        "depth": 0,
                        "id": 0,
                        "order": 0
                    }
                ],
                "depth": -1,
                "id": -1,
                "order": -1
            }
        ],
        "mainTraceNodeCount": 8,
        "parentIdMap": {
            "0": -1,
            "1": 0,
            "2": 1,
            "3": 1,
            "4": 3,
            "5": 1,
            "6": 5,
            "7": 0
        },
        "tidyTrace": [
            {
                "children": [
                    {
                        "children": [
                            {
                                "children": [
                                    {
                                        "children": [],
                                        "depth": 2,
                                        "id": 2,
                                        "order": 2
                                    },
                                    {
                                        "children": [
                                            {
                                                "children": [],
                                                "depth": 3,
                                                "id": 4,
                                                "order": 4
                                            }
                                        ],
                                        "depth": 2,
                                        "id": 3,
                                        "order": 3
                                    },
                                    {
                                        "children": [
                                            {
                                                "children": [],
                                                "depth": 3,
                                                "id": 6,
                                                "order": 6
                                            }
                                        ],
                                        "depth": 2,
                                        "id": 5,
                                        "order": 5
                                    }
                                ],
                                "depth": 1,
                                "id": 1,
                                "order": 1
                            },
                            {
                                "children": [],
                                "depth": 1,
                                "id": 7,
                                "order": 7
                            }
                        ],
                        "depth": 0,
                        "id": 0,
                        "order": 0
                    }
                ],
                "depth": -1,
                "id": -1,
                "order": -1
            }
        ],
        "tidyTraceNodeCount": 8
    },
    "state_change": {
        "stateChanges": [
            {
                "address": "0x905e337c6c8645263d3521205aa37bf4d034e745",
                "erc": "ERC-20",
                "slots": [
                    {
                        "current": "0x0000000000000000000000000000000000000000000003173516af50f5400000",
                        "key": "0xab6a2ec577a9e7959f773c3565190dcc333034b70254141eb721928e3d63cd45",
                        "prev": "0x000000000000000000000000000000000000000000000316e75f7cfc7f100000"
                    },
                    {
                        "current": "0x000000000000000000000000000000000000000000000000136dcc951d8c0000",
                        "key": "0x764259d910f254b6eafc6f19069da3f7fd2786c831d7fde375fcc61b87397a03",
                        "prev": "0x0000000000000000000000000000000000000000000000000000000000000000"
                    },
                    {
                        "current": "0x00000000000000000000000000000000000000000000cfe5197271c86e700000",
                        "key": "0xab97b36231ee7244a828a4ab1af1f40939bd6db3b6abd1eeab9b1876b8827d5a",
                        "prev": "0x00000000000000000000000000000000000000000000cfe57a9770b2022c0000"
                    },
                    {
                        "current": "0x00000000000000000000000000000000000000000000cfe52ce03e5d8bfc0000",
                        "key": "0xe5a153e43ca9392c5989b70b8930b8b7e1a8a225082527bbf1fc51a059a15224",
                        "prev": "0x00000000000000000000000000000000000000000000cfe58e053d471fb80000"
                    }
                ],
                "storageVariables": [
                    {
                        "name": "balances",
                        "type": "mapping(address => uint256)",
                        "value": {
                            "pairs": [
                                {
                                    "key": "0x797726c7c3156b4a479e95b31865ef98d4d468f4",
                                    "value": {
                                        "current": "14595200000000000000000",
                                        "prev": "14589600000000000000000",
                                        "typeTag": 1
                                    }
                                },
                                {
                                    "key": "0xa9958ed59bafcfe2e156748222ca325b75388881",
                                    "value": {
                                        "current": "981757400000000000000000",
                                        "prev": "981764400000000000000000",
                                        "typeTag": 1
                                    }
                                },
                                {
                                    "key": "0xb8ef328c2923e7f0885af2ee4c5d5854d6dd3350",
                                    "value": {
                                        "current": "1400000000000000000",
                                        "prev": "0",
                                        "typeTag": 1
                                    }
                                }
                            ],
                            "typeTag": 4
                        }
                    },
                    {
                        "name": "allowed",
                        "type": "mapping(address => mapping(address => uint256))",
                        "value": {
                            "pairs": [
                                {
                                    "key": "0xa9958ed59bafcfe2e156748222ca325b75388881",
                                    "value": {
                                        "pairs": [
                                            {
                                                "key": "0xd5586ef251b2fbe32a03f226868e581c9f1aa261",
                                                "value": {
                                                    "current": "981756000000000000000000",
                                                    "prev": "981763000000000000000000",
                                                    "typeTag": 1
                                                }
                                            }
                                        ],
                                        "typeTag": 4
                                    }
                                }
                            ],
                            "typeTag": 4
                        }
                    }
                ]
            },
            {
                "address": "0xd5586ef251b2fbe32a03f226868e581c9f1aa261",
                "erc": "",
                "slots": [
                    {
                        "current": "0x0000000000000000000000000000000000000000000000000000000000000001",
                        "key": "0xdbd869e68dda9ed1bd703c68c94e1a1238a8081ae579dfc5678c2218b125649e",
                        "prev": "0x0000000000000000000000000000000000000000000000000000000000000000"
                    }
                ],
                "storageVariables": [
                    {
                        "name": "ethSent",
                        "type": "mapping(address => bool)",
                        "value": {
                            "pairs": [
                                {
                                    "key": "0xb8ef328c2923e7f0885af2ee4c5d5854d6dd3350",
                                    "value": {
                                        "current": "true",
                                        "prev": "false",
                                        "typeTag": 1
                                    }
                                }
                            ],
                            "typeTag": 4
                        }
                    }
                ]
            }
        ]
    }
}