{
    "balance_change": {
        "balanceChanges": [
            {
                "account": "0xf35db530c0416106b749c301176155c04e3c684d",
                "assets": [
                    {
                        "address": "0xeeeeeeeeeeeeeeeeeeeeeeeeeeeeeeeeeeeeeeee",
                        "amount": "0.0015",
                        "iconUrl": "https://assets.blocksec.com/image/1663669189317-3.png",
                        "isERC1155": false,
                        "isERC721": false,
                        "sign": false,
                        "value": "5.43939"
                    },
                    {
                        "address": "0x15c905dec8da0a90fa05f8121e8f8285d30ef1f4",
                        "amount": "1",
                        "iconUrl": "",
                        "isERC1155": false,
                        "isERC721": true,
                        "sign": true,
                        "tokenID": "103957",
                        "value": ""
                    },
                    {
                        "address": "0x15c905dec8da0a90fa05f8121e8f8285d30ef1f4",
                        "amount": "1",
                        "iconUrl": "",
                        "isERC1155": false,
                        "isERC721": true,
                        "sign": true,
                        "tokenID": "103958",
                        "value": ""
                    },
                    {
                        "address": "0x15c905dec8da0a90fa05f8121e8f8285d30ef1f4",
                        "amount": "1",
                        "iconUrl": "",
                        "isERC1155": false,
                        "isERC721": true,
                        "sign": true,
                        "tokenID": "103959",
                        "value": ""
                    },
                    {
                        "address": "0x15c905dec8da0a90fa05f8121e8f8285d30ef1f4",
                        "amount": "1",
                        "iconUrl": "",
                        "isERC1155": false,
                        "isERC721": true,
                        "sign": true,
                        "tokenID": "103960",
                        "value": ""
                    },
                    {
                        "address": "0x15c905dec8da0a90fa05f8121e8f8285d30ef1f4",
                        "amount": "1",
                        "iconUrl": "",
                        "isERC1155": false,
                        "isERC721": true,
                        "sign": true,
                        "tokenID": "103961",
                        "value": ""
                    }
                ]
            },
            {
                "account": "0x0000000000000000000000000000000000000000",
                "assets": [
                    {
                        "address": "0x15c905dec8da0a90fa05f8121e8f8285d30ef1f4",
                        "amount": "1",
                        "iconUrl": "",
                        "isERC1155": false,
                        "isERC721": true,
                        "sign": false,
                        "tokenID": "103957",
                        "value": ""
                    },
                    {
                        "address": "0x15c905dec8da0a90fa05f8121e8f8285d30ef1f4",
                        "amount": "1",
                        "iconUrl": "",
                        "isERC1155": false,
                        "isERC721": true,
                        "sign": false,
                        "tokenID": "103958",
                        "value": ""
                    },
                    {
                        "address": "0x15c905dec8da0a90fa05f8121e8f8285d30ef1f4",
                        "amount": "1",
                        "iconUrl": "",
                        "isERC1155": false,
                        "isERC721": true,
                        "sign": false,
                        "tokenID": "103959",
                        "value": ""
                    },
                    {
                        "address": "0x15c905dec8da0a90fa05f8121e8f8285d30ef1f4",
                        "amount": "1",
                        "iconUrl": "",
                        "isERC1155": false,
                        "isERC721": true,
                        "sign": false,
                        "tokenID": "103960",
                        "value": ""
                    },
                    {
                        "address": "0x15c905dec8da0a90fa05f8121e8f8285d30ef1f4",
                        "amount": "1",
                        "iconUrl": "",
                        "isERC1155": false,
                        "isERC721": true,
                        "sign": false,
                        "tokenID": "103961",
                        "value": ""
                    }
                ]
            },
            {
                "account": "0x1cf0df2a5a20cd61d68d4489eebbf85b8d39e18a",
                "assets": [
                    {
                        "address": "0xeeeeeeeeeeeeeeeeeeeeeeeeeeeeeeeeeeeeeeee",
                        "amount": "0.0015",
                        "iconUrl": "https://assets.blocksec.com/image/1663669189317-3.png",
                        "isERC1155": false,
                        "isERC721": false,
                        "sign": true,
                        "value": "5.43939"
                    }
                ]
            }
        ]
    },
    "profile": {
        "basic_info": {
            "baseFee": "19.253043555",
            "blockNumber": 19617424,
            "callData": "0x84bb1e42000000000000000000000000f35db530c0416106b749c301176155c04e3c684d0000000000000000000000000000000000000000000000000000000000000005000000000000000000000000eeeeeeeeeeeeeeeeeeeeeeeeeeeeeeeeeeeeeeee000000000000000000000000000000000000000000000000000110d9316ec00000000000000000000000000000000000000000000000000000000000000000c0000000000000000000000000000000000000000000000000000000000000018000000000000000000000000000000000000000000000000000000000000000800000000000000000000000000000000000000000000000000000000000000005000000000000000000000000000000000000000000000000000110d9316ec000000000000000000000000000eeeeeeeeeeeeeeeeeeeeeeeeeeeeeeeeeeeeeeee000000000000000000000000000000000000000000000000000000000000000100000000000000000000000000000000000000000000000000000000000000000000000000000000000000000000000000000000000000000000000000000000",
            "debugEnable": true,
            "errorInfo": "",
            "eventCount": 6,
            "feeRecipient": "0x95222290dd7278aa3ddd389cc1e1d165cc4bafe5",
            "formatValue": "0.0015",
            "gasLimit": 176611,
            "gasPrice": "19.267249348",
            "gasUsed": 174062,
            "intTxnCount": 3,
            "internalRevert": false,
            "internalRevertMessage": "",
            "isContractCreation": false,
            "isFlashloan": false,
            "maxFee": "20.971888135",
            "nonce": 206,
            "overwritedBlockNumber": -1,
            "priorityFee": "0.014205793",
            "receiver": "0x15c905dec8da0a90fa05f8121e8f8285d30ef1f4",
            "revertMessage": "",
            "sender": "0xf35db530c0416106b749c301176155c04e3c684d",
            "simulationEnable": true,
            "sourceTxnHash": "0xbf671fa60134657250aa0d2bfb09402db116cfaae4778d55b6edc44df5be7f4c",
            "status": true,
            "timestamp": "2024-04-09T10:14:11Z",
            "transactionFee": "0.003353695956011576",
            "txnHash": "0xbf671fa60134657250aa0d2bfb09402db116cfaae4778d55b6edc44df5be7f4c",
            "txnIndex": 215,
            "type": 2,
            "value": "1500000000000000"
        },
        "fund_flow": [
            {
                "amount": "0.0015",
                "from": "0xf35db530c0416106b749c301176155c04e3c684d",
                "id": 1,
                "isERC1155": false,
                "isERC721": false,
                "isReverted": false,
                "order": 1,
                "to": "0x15c905dec8da0a90fa05f8121e8f8285d30ef1f4",
                "token": "0xeeeeeeeeeeeeeeeeeeeeeeeeeeeeeeeeeeeeeeee"
            },
            {
                "amount": "0.0015",
                "from": "0x15c905dec8da0a90fa05f8121e8f8285d30ef1f4",
                "id": 2,
                "isERC1155": false,
                "isERC721": false,
                "isReverted": false,
                "order": 2,
                "to": "0x1cf0df2a5a20cd61d68d4489eebbf85b8d39e18a",
                "token": "0xeeeeeeeeeeeeeeeeeeeeeeeeeeeeeeeeeeeeeeee"
            },
            {
                "amount": "1",
                "from": "0x0000000000000000000000000000000000000000",
                "id": 3,
                "isERC1155": false,
                "isERC721": true,
                "isReverted": false,
                "order": 3,
                "to": "0xf35db530c0416106b749c301176155c04e3c684d",
                "token": "0x15c905dec8da0a90fa05f8121e8f8285d30ef1f4",
                "tokenID": "103957"
            },
            {
                "amount": "1",
                "from": "0x0000000000000000000000000000000000000000",
                "id": 4,
                "isERC1155": false,
                "isERC721": true,
                "isReverted": false,
                "order": 4,
                "to": "0xf35db530c0416106b749c301176155c04e3c684d",
                "token": "0x15c905dec8da0a90fa05f8121e8f8285d30ef1f4",
                "tokenID": "103958"
            },
            {
                "amount": "1",
                "from": "0x0000000000000000000000000000000000000000",
                "id": 5,
                "isERC1155": false,
                "isERC721": true,
                "isReverted": false,
                "order": 5,
                "to": "0xf35db530c0416106b749c301176155c04e3c684d",
                "token": "0x15c905dec8da0a90fa05f8121e8f8285d30ef1f4",
                "tokenID": "103959"
            },
            {
                "amount": "1",
                "from": "0x0000000000000000000000000000000000000000",
                "id": 6,
                "isERC1155": false,
                "isERC721": true,
                "isReverted": false,
                "order": 6,
                "to": "0xf35db530c0416106b749c301176155c04e3c684d",
                "token": "0x15c905dec8da0a90fa05f8121e8f8285d30ef1f4",
                "tokenID": "103960"
            },
            {
                "amount": "1",
                "from": "0x0000000000000000000000000000000000000000",
                "id": 7,
                "isERC1155": false,
                "isERC721": true,
                "isReverted": false,
                "order": 7,
                "to": "0xf35db530c0416106b749c301176155c04e3c684d",
                "token": "0x15c905dec8da0a90fa05f8121e8f8285d30ef1f4",
                "tokenID": "103961"
            }
        ],
        "token_infos": [
            {
                "address": "0xc02aaa39b223fe8d0a0e5c4f27ead9083c756cc2",
                "decimals": 18
            },
            {
                "address": "0xeeeeeeeeeeeeeeeeeeeeeeeeeeeeeeeeeeeeeeee",
                "decimals": 18
            }
        ]
    },
    "address_label": {
        "labels": [
            {
                "address": "0xeeeeeeeeeeeeeeeeeeeeeeeeeeeeeeeeeeeeeeee",
                "label": "Ether"
            },
            {
                "address": "0x1cf0df2a5a20cd61d68d4489eebbf85b8d39e18a",
                "label": "Rarible: Treasury"
            },
            {
                "address": "0x34cfac646f301356faa8b21e94227e3583fe3f5f",
                "label": "Safe: Mastercopy 1.1.1"
            },
            {
                "address": "0x012d933a365377bc0f65ca5d1080fcda3ac4687b",
                "label": "OpenEditionERC721FlatFee"
            },
            {
                "address": "0x0000000000000000000000000000000000000001",
                "label": "Precompiled"
            },
            {
                "address": "0x0000000000000000000000000000000000000002",
                "label": "Precompiled"
            },
            {
                "address": "0x0000000000000000000000000000000000000003",
                "label": "Precompiled"
            },
            {
                "address": "0x0000000000000000000000000000000000000004",
                "label": "Precompiled"
            }
        ]
    },
    "trace": {
        "accountLabels": null,
        "dataMap": {
            "-1": {
                "invocation": {
                    "address": "0xf35db530c0416106b749c301176155c04e3c684d",
                    "callData": "",
                    "decodedMethod": null,
                    "errorInfo": "",
                    "fromAddress": "",
                    "gasUsed": 0,
                    "id": -1,
                    "methodDecoded": false,
                    "operation": "",
                    "output": "",
                    "revert": false,
                    "revertMessage": "",
                    "selector": "",
                    "status": false,
                    "value": ""
                },
                "nodeType": 0
            },
            "0": {
                "invocation": {
                    "address": "0x15c905dec8da0a90fa05f8121e8f8285d30ef1f4",
                    "callData": "0x000000000000000000000000f35db530c0416106b749c301176155c04e3c684d0000000000000000000000000000000000000000000000000000000000000005000000000000000000000000eeeeeeeeeeeeeeeeeeeeeeeeeeeeeeeeeeeeeeee000000000000000000000000000000000000000000000000000110d9316ec00000000000000000000000000000000000000000000000000000000000000000c0000000000000000000000000000000000000000000000000000000000000018000000000000000000000000000000000000000000000000000000000000000800000000000000000000000000000000000000000000000000000000000000005000000000000000000000000000000000000000000000000000110d9316ec000000000000000000000000000eeeeeeeeeeeeeeeeeeeeeeeeeeeeeeeeeeeeeeee000000000000000000000000000000000000000000000000000000000000000100000000000000000000000000000000000000000000000000000000000000000000000000000000000000000000000000000000000000000000000000000000",
                    "decodedMethod": {
                        "callParams": [
                            {
                                "name": "_receiver",
                                "type": "address",
                                "value": "0xf35db530c0416106b749c301176155c04e3c684d"
                            },
                            {
                                "name": "_quantity",
                                "type": "uint256",
                                "value": "5"
                            },
                            {
                                "name": "_currency",
                                "type": "address",
                                "value": "0xeeeeeeeeeeeeeeeeeeeeeeeeeeeeeeeeeeeeeeee"
                            },
                            {
                                "name": "_pricePerToken",
                                "type": "uint256",
                                "value": "300,000,000,000,000"
                            },
                            {
                                "name": "_allowlistProof",
                                "type": "(bytes32[],uint256,uint256,address)",
                                "value": [
                                    {
                                        "name": "proof",
                                        "type": "bytes32[]",
                                        "value": [
                                            "0x0000000000000000000000000000000000000000000000000000000000000000"
                                        ]
                                    },
                                    {
                                        "name": "quantityLimitPerWallet",
                                        "type": "uint256",
                                        "value": "5"
                                    },
                                    {
                                        "name": "pricePerToken",
                                        "type": "uint256",
                                        "value": "300,000,000,000,000"
                                    },
                                    {
                                        "name": "currency",
                                        "type": "address",
                                        "value": "0xeeeeeeeeeeeeeeeeeeeeeeeeeeeeeeeeeeeeeeee"
                                    }
                                ]
                            },
                            {
                                "name": "_data",
                                "type": "bytes",
                                "value": "0x"
                            }
                        ],
                        "constructorArguments": "",
                        "name": "claim",
                        "returnParams": [],
                        "signature": "claim(address,uint256,address,uint256,(bytes32[],uint256,uint256,address),bytes)"
                    },
                    "errorInfo": "",
                    "fromAddress": "0xf35db530c0416106b749c301176155c04e3c684d",
                    "gasUsed": 174062,
                    "id": 0,
                    "methodDecoded": true,
                    "operation": "CALL",
                    "output": "",
                    "revert": false,
                    "revertMessage": "",
                    "selector": "0x84bb1e42",
                    "status": true,
                    "value": "0.0015"
                },
                "nodeType": 0
            },
            "1": {
                "invocation": {
                    "address": "0x012d933a365377bc0f65ca5d1080fcda3ac4687b",
                    "callData": "0x000000000000000000000000f35db530c0416106b749c301176155c04e3c684d0000000000000000000000000000000000000000000000000000000000000005000000000000000000000000eeeeeeeeeeeeeeeeeeeeeeeeeeeeeeeeeeeeeeee000000000000000000000000000000000000000000000000000110d9316ec00000000000000000000000000000000000000000000000000000000000000000c0000000000000000000000000000000000000000000000000000000000000018000000000000000000000000000000000000000000000000000000000000000800000000000000000000000000000000000000000000000000000000000000005000000000000000000000000000000000000000000000000000110d9316ec000000000000000000000000000eeeeeeeeeeeeeeeeeeeeeeeeeeeeeeeeeeeeeeee000000000000000000000000000000000000000000000000000000000000000100000000000000000000000000000000000000000000000000000000000000000000000000000000000000000000000000000000000000000000000000000000",
                    "decodedMethod": {
                        "callParams": [
                            {
                                "name": "_receiver",
                                "type": "address",
                                "value": "0xf35db530c0416106b749c301176155c04e3c684d"
                            },
                            {
                                "name": "_quantity",
                                "type": "uint256",
                                "value": "5"
                            },
                            {
                                "name": "_currency",
                                "type": "address",
                                "value": "0xeeeeeeeeeeeeeeeeeeeeeeeeeeeeeeeeeeeeeeee"
                            },
                            {
                                "name": "_pricePerToken",
                                "type": "uint256",
                                "value": "300,000,000,000,000"
                            },
                            {
                                "name": "_allowlistProof",
                                "type": "(bytes32[],uint256,uint256,address)",
                                "value": [
                                    {
                                        "name": "proof",
                                        "type": "bytes32[]",
                                        "value": [
                                            "0x0000000000000000000000000000000000000000000000000000000000000000"
                                        ]
                                    },
                                    {
                                        "name": "quantityLimitPerWallet",
                                        "type": "uint256",
                                        "value": "5"
                                    },
                                    {
                                        "name": "pricePerToken",
                                        "type": "uint256",
                                        "value": "300,000,000,000,000"
                                    },
                                    {
                                        "name": "currency",
                                        "type": "address",
                                        "value": "0xeeeeeeeeeeeeeeeeeeeeeeeeeeeeeeeeeeeeeeee"
                                    }
                                ]
                            },
                            {
                                "name": "_data",
                                "type": "bytes",
                                "value": "0x"
                            }
                        ],
                        "constructorArguments": "",
                        "name": "claim",
                        "returnParams": [],
                        "signature": "claim(address,uint256,address,uint256,(bytes32[],uint256,uint256,address),bytes)"
                    },
                    "errorInfo": "",
                    "fromAddress": "0x15c905dec8da0a90fa05f8121e8f8285d30ef1f4",
                    "gasUsed": 147645,
                    "id": 1,
                    "methodDecoded": true,
                    "operation": "DELEGATECALL",
                    "output": "",
                    "revert": false,
                    "revertMessage": "",
                    "selector": "0x84bb1e42",
                    "status": true,
                    "value": "0.0015"
                },
                "nodeType": 0
            },
            "2": {
                "invocation": {
                    "address": "0x1cf0df2a5a20cd61d68d4489eebbf85b8d39e18a",
                    "callData": "0x",
                    "decodedMethod": null,
                    "errorInfo": "",
                    "fromAddress": "0x15c905dec8da0a90fa05f8121e8f8285d30ef1f4",
                    "gasUsed": 4918,
                    "id": 2,
                    "methodDecoded": false,
                    "operation": "CALL",
                    "output": "",
                    "revert": false,
                    "revertMessage": "",
                    "selector": "fallback",
                    "status": true,
                    "value": "0.0015"
                },
                "nodeType": 0
            },
            "3": {
                "invocation": {
                    "address": "0x34cfac646f301356faa8b21e94227e3583fe3f5f",
                    "callData": "0x",
                    "decodedMethod": null,
                    "errorInfo": "",
                    "fromAddress": "0x1cf0df2a5a20cd61d68d4489eebbf85b8d39e18a",
                    "gasUsed": 93,
                    "id": 3,
                    "methodDecoded": false,
                    "operation": "DELEGATECALL",
                    "output": "",
                    "revert": false,
                    "revertMessage": "",
                    "selector": "fallback",
                    "status": true,
                    "value": "0.0015"
                },
                "nodeType": 0
            },
            "4": {
                "event": {
                    "contract": "0x15c905dec8da0a90fa05f8121e8f8285d30ef1f4",
                    "decodedLog": {
                        "name": "Transfer",
                        "params": [
                            {
                                "name": "from",
                                "type": "address",
                                "value": "0x0000000000000000000000000000000000000000"
                            },
                            {
                                "name": "to",
                                "type": "address",
                                "value": "0xf35db530c0416106b749c301176155c04e3c684d"
                            },
                            {
                                "decimalAvailable": true,
                                "name": "tokenId",
                                "type": "uint256",
                                "value": "103,957"
                            }
                        ],
                        "signature": "Transfer(address,address,uint256)"
                    },
                    "id": 4,
                    "logData": "0x",
                    "logDecoded": true,
                    "operation": "EVENT",
                    "revert": false,
                    "status": true,
                    "topics": [
                        "0xddf252ad1be2c89b69c2b068fc378daa952ba7f163c4a11628f55a4df523b3ef",
                        "0x0000000000000000000000000000000000000000000000000000000000000000",
                        "0x000000000000000000000000f35db530c0416106b749c301176155c04e3c684d",
                        "0x0000000000000000000000000000000000000000000000000000000000019615"
                    ]
                },
                "nodeType": 1
            },
            "5": {
                "event": {
                    "contract": "0x15c905dec8da0a90fa05f8121e8f8285d30ef1f4",
                    "decodedLog": {
                        "name": "Transfer",
                        "params": [
                            {
                                "name": "from",
                                "type": "address",
                                "value": "0x0000000000000000000000000000000000000000"
                            },
                            {
                                "name": "to",
                                "type": "address",
                                "value": "0xf35db530c0416106b749c301176155c04e3c684d"
                            },
                            {
                                "decimalAvailable": true,
                                "name": "tokenId",
                                "type": "uint256",
                                "value": "103,958"
                            }
                        ],
                        "signature": "Transfer(address,address,uint256)"
                    },
                    "id": 5,
                    "logData": "0x",
                    "logDecoded": true,
                    "operation": "EVENT",
                    "revert": false,
                    "status": true,
                    "topics": [
                        "0xddf252ad1be2c89b69c2b068fc378daa952ba7f163c4a11628f55a4df523b3ef",
                        "0x0000000000000000000000000000000000000000000000000000000000000000",
                        "0x000000000000000000000000f35db530c0416106b749c301176155c04e3c684d",
                        "0x0000000000000000000000000000000000000000000000000000000000019616"
                    ]
                },
                "nodeType": 1
            },
            "6": {
                "event": {
                    "contract": "0x15c905dec8da0a90fa05f8121e8f8285d30ef1f4",
                    "decodedLog": {
                        "name": "Transfer",
                        "params": [
                            {
                                "name": "from",
                                "type": "address",
                                "value": "0x0000000000000000000000000000000000000000"
                            },
                            {
                                "name": "to",
                                "type": "address",
                                "value": "0xf35db530c0416106b749c301176155c04e3c684d"
                            },
                            {
                                "decimalAvailable": true,
                                "name": "tokenId",
                                "type": "uint256",
                                "value": "103,959"
                            }
                        ],
                        "signature": "Transfer(address,address,uint256)"
                    },
                    "id": 6,
                    "logData": "0x",
                    "logDecoded": true,
                    "operation": "EVENT",
                    "revert": false,
                    "status": true,
                    "topics": [
                        "0xddf252ad1be2c89b69c2b068fc378daa952ba7f163c4a11628f55a4df523b3ef",
                        "0x0000000000000000000000000000000000000000000000000000000000000000",
                        "0x000000000000000000000000f35db530c0416106b749c301176155c04e3c684d",
                        "0x0000000000000000000000000000000000000000000000000000000000019617"
                    ]
                },
                "nodeType": 1
            },
            "7": {
                "event": {
                    "contract": "0x15c905dec8da0a90fa05f8121e8f8285d30ef1f4",
                    "decodedLog": {
                        "name": "Transfer",
                        "params": [
                            {
                                "name": "from",
                                "type": "address",
                                "value": "0x0000000000000000000000000000000000000000"
                            },
                            {
                                "name": "to",
                                "type": "address",
                                "value": "0xf35db530c0416106b749c301176155c04e3c684d"
                            },
                            {
                                "decimalAvailable": true,
                                "name": "tokenId",
                                "type": "uint256",
                                "value": "103,960"
                            }
                        ],
                        "signature": "Transfer(address,address,uint256)"
                    },
                    "id": 7,
                    "logData": "0x",
                    "logDecoded": true,
                    "operation": "EVENT",
                    "revert": false,
                    "status": true,
                    "topics": [
                        "0xddf252ad1be2c89b69c2b068fc378daa952ba7f163c4a11628f55a4df523b3ef",
                        "0x0000000000000000000000000000000000000000000000000000000000000000",
                        "0x000000000000000000000000f35db530c0416106b749c301176155c04e3c684d",
                        "0x0000000000000000000000000000000000000000000000000000000000019618"
                    ]
                },
                "nodeType": 1
            },
            "8": {
                "event": {
                    "contract": "0x15c905dec8da0a90fa05f8121e8f8285d30ef1f4",
                    "decodedLog": {
                        "name": "Transfer",
                        "params": [
                            {
                                "name": "from",
                                "type": "address",
                                "value": "0x0000000000000000000000000000000000000000"
                            },
                            {
                                "name": "to",
                                "type": "address",
                                "value": "0xf35db530c0416106b749c301176155c04e3c684d"
                            },
                            {
                                "decimalAvailable": true,
                                "name": "tokenId",
                                "type": "uint256",
                                "value": "103,961"
                            }
                        ],
                        "signature": "Transfer(address,address,uint256)"
                    },
                    "id": 8,
                    "logData": "0x",
                    "logDecoded": true,
                    "operation": "EVENT",
                    "revert": false,
                    "status": true,
                    "topics": [
                        "0xddf252ad1be2c89b69c2b068fc378daa952ba7f163c4a11628f55a4df523b3ef",
                        "0x0000000000000000000000000000000000000000000000000000000000000000",
                        "0x000000000000000000000000f35db530c0416106b749c301176155c04e3c684d",
                        "0x0000000000000000000000000000000000000000000000000000000000019619"
                    ]
                },
                "nodeType": 1
            },
            "9": {
                "event": {
                    "contract": "0x15c905dec8da0a90fa05f8121e8f8285d30ef1f4",
                    "decodedLog": {
                        "name": "TokensClaimed",
                        "params": [
                            {
                                "name": "claimConditionIndex",
                                "type": "uint256",
                                "value": "0"
                            },
                            {
                                "name": "claimer",
                                "type": "address",
                                "value": "0xf35db530c0416106b749c301176155c04e3c684d"
                            },
                            {
                                "name": "receiver",
                                "type": "address",
                                "value": "0xf35db530c0416106b749c301176155c04e3c684d"
                            },
                            {
                                "name": "startTokenId",
                                "type": "uint256",
                                "value": "103,957"
                            },
                            {
                                "name": "quantityClaimed",
                                "type": "uint256",
                                "value": "5"
                            }
                        ],
                        "signature": "TokensClaimed(uint256,address,address,uint256,uint256)"
                    },
                    "id": 9,
                    "logData": "0x00000000000000000000000000000000000000000000000000000000000196150000000000000000000000000000000000000000000000000000000000000005",
                    "logDecoded": true,
                    "operation": "EVENT",
                    "revert": false,
                    "status": true,
                    "topics": [
                        "0xfa76a4010d9533e3e964f2930a65fb6042a12fa6ff5b08281837a10b0be7321e",
                        "0x0000000000000000000000000000000000000000000000000000000000000000",
                        "0x000000000000000000000000f35db530c0416106b749c301176155c04e3c684d",
                        "0x000000000000000000000000f35db530c0416106b749c301176155c04e3c684d"
                    ]
                },
                "nodeType": 1
            }
        },
        "gasFlame": [
            {
                "children": [
                    {
                        "children": [
                            {
                                "children": [],
                                "depth": 0,
                                "name": "Initial Gas",
                                "value": 23676
                            },
                            {
                                "children": [
                                    {
                                        "children": [
                                            {
                                                "children": [
                                                    {
                                                        "children": [],
                                                        "depth": 3,
                                                        "name": "fallback",
                                                        "value": 93
                                                    }
                                                ],
                                                "depth": 2,
                                                "name": "fallback",
                                                "value": 4918
                                            }
                                        ],
                                        "depth": 1,
                                        "name": "claim",
                                        "value": 147645
                                    }
                                ],
                                "depth": 0,
                                "name": "Executed Gas",
                                "value": 150386
                            }
                        ],
                        "depth": -1,
                        "name": "Actual Gas Used",
                        "value": 174062
                    },
                    {
                        "children": [],
                        "depth": -1,
                        "name": "Refunded Gas",
                        "value": 0
                    }
                ],
                "depth": -2,
                "name": "Total Gas",
                "value": 174062
            }
        ],
        "isConfirmed": true,
        "mainTrace": [
            {
                "children": [
                    {
                        "children": [
                            {
                                "children": [
                                    {
                                        "children": [
                                            {
                                                "children": [],
                                                "depth": 3,
                                                "id": 3,
                                                "order": 3
                                            }
                                        ],
                                        "depth": 2,
                                        "id": 2,
                                        "order": 2
                                    },
                                    {
                                        "children": [],
                                        "depth": 2,
                                        "id": 4,
                                        "order": 4
                                    },
                                    {
                                        "children": [],
                                        "depth": 2,
                                        "id": 5,
                                        "order": 5
                                    },
                                    {
                                        "children": [],
                                        "depth": 2,
                                        "id": 6,
                                        "order": 6
                                    },
                                    {
                                        "children": [],
                                        "depth": 2,
                                        "id": 7,
                                        "order": 7
                                    },
                                    {
                                        "children": [],
                                        "depth": 2,
                                        "id": 8,
                                        "order": 8
                                    },
                                    {
                                        "children": [],
                                        "depth": 2,
                                        "id": 9,
                                        "order": 9
                                    }
                                ],
                                "depth": 1,
                                "id": 1,
                                "order": 1
                            }
                        ],
                        "depth": 0,
                        "id": 0,
                        "order": 0
                    }
                ],
                "depth": -1,
                "id": -1,
                "order": -1
            }
        ],
        "mainTraceNodeCount": 10,
        "parentIdMap": {
            "0": -1,
            "1": 0,
            "2": 1,
            "3": 2,
            "4": 1,
            "5": 1,
            "6": 1,
            "7": 1,
            "8": 1,
            "9": 1
        },
        "tidyTrace": [
            {
                "children": [
                    {
                        "children": [
                            {
                                "children": [
                                    {
                                        "children": [
                                            {
                                                "children": [],
                                                "depth": 3,
                                                "id": 3,
                                                "order": 3
                                            }
                                        ],
                                        "depth": 2,
                                        "id": 2,
                                        "order": 2
                                    },
                                    {
                                        "children": [],
                                        "depth": 2,
                                        "id": 4,
                                        "order": 4
                                    },
                                    {
                                        "children": [],
                                        "depth": 2,
                                        "id": 5,
                                        "order": 5
                                    },
                                    {
                                        "children": [],
                                        "depth": 2,
                                        "id": 6,
                                        "order": 6
                                    },
                                    {
                                        "children": [],
                                        "depth": 2,
                                        "id": 7,
                                        "order": 7
                                    },
                                    {
                                        "children": [],
                                        "depth": 2,
                                        "id": 8,
                                        "order": 8
                                    },
                                    {
                                        "children": [],
                                        "depth": 2,
                                        "id": 9,
                                        "order": 9
                                    }
                                ],
                                "depth": 1,
                                "id": 1,
                                "order": 1
                            }
                        ],
                        "depth": 0,
                        "id": 0,
                        "order": 0
                    }
                ],
                "depth": -1,
                "id": -1,
                "order": -1
            }
        ],
        "tidyTraceNodeCount": 10
    },
    "state_change": {
        "stateChanges": [
            {
                "address": "0x15c905dec8da0a90fa05f8121e8f8285d30ef1f4",
                "erc": "ERC-721",
                "slots": [
                    {
                        "current": "0x0000000000000000000000000000000000000000000000000000000000019619",
                        "key": "0x4ad3b33220dddc71b994a52d72c06b10862965f7d926534c05c00fb7e819e7b9",
                        "prev": "0x0000000000000000000000000000000000000000000000000000000000019614"
                    },
                    {
                        "current": "0x0000000000000000000000000000000000000000000000000000000000000005",
                        "key": "0xb68f32de99cc0c93a35150e1f013bdb983f034f0c2b10a27cf73cc9cdeae9032",
                        "prev": "0x0000000000000000000000000000000000000000000000000000000000000000"
                    },
                    {
                        "current": "0x000000000000000000000000000000000000000000000000000000000001961a",
                        "key": "0x2569078dfb4b0305704d3008e7403993ae9601b85f7ae5e742de3de8f8011c40",
                        "prev": "0x0000000000000000000000000000000000000000000000000000000000019615"
                    },
                    {
                        "current": "0x0000000000000000661514f3f35db530c0416106b749c301176155c04e3c684d",
                        "key": "0xe432b8f7e3d3def664d649f5688d5605f7de909056d5918d3042d83a41c28d8a",
                        "prev": "0x0000000000000000000000000000000000000000000000000000000000000000"
                    },
                    {
                        "current": "0x0000000000000000000000000000000000000000000000050000000000000005",
                        "key": "0x762d20540b1c2a9f976fe264de5e81e0c78cc5baded17d52de2845c9819f54ba",
                        "prev": "0x0000000000000000000000000000000000000000000000000000000000000000"
                    }
                ],
                "storageVariables": []
            }
        ]
    }
}