{
    "balance_change": {
        "balanceChanges": [
            {
                "account": "0xc24ed386bf2718bce8668264ab18b39f75e77558",
                "assets": [
                    {
                        "address": "0x3c7b464376db7c9927930cf50eefdea2eff3a66a",
                        "amount": "174.38383838",
                        "iconUrl": "",
                        "isERC1155": false,
                        "isERC721": false,
                        "sign": false,
                        "value": ""
                    }
                ]
            },
            {
                "account": "0xd2349d84187580c73f1c77669f6f409dc425c3a3",
                "assets": [
                    {
                        "address": "0x3c7b464376db7c9927930cf50eefdea2eff3a66a",
                        "amount": "174.38383838",
                        "iconUrl": "",
                        "isERC1155": false,
                        "isERC721": false,
                        "sign": true,
                        "value": ""
                    }
                ]
            }
        ]
    },
    "profile": {
        "basic_info": {
            "baseFee": "",
            "blockNumber": 8646101,
            "callData": "0xa9059cbb000000000000000000000000d2349d84187580c73f1c77669f6f409dc425c3a3000000000000000000000000000000000000000000000000000000040f689ede",
            "debugEnable": true,
            "errorInfo": "",
            "eventCount": 1,
            "feeRecipient": "0x5a0b54d5dc17e0aadc383d2db43b0a0d3e029c4c",
            "formatValue": "0",
            "gasLimit": 57391,
            "gasPrice": "30",
            "gasUsed": 22391,
            "intTxnCount": 0,
            "internalRevert": false,
            "internalRevertMessage": "",
            "isContractCreation": false,
            "isFlashloan": false,
            "maxFee": "",
            "nonce": 0,
            "overwritedBlockNumber": -1,
            "priorityFee": "",
            "receiver": "0x3c7b464376db7c9927930cf50eefdea2eff3a66a",
            "revertMessage": "",
            "sender": "0xc24ed386bf2718bce8668264ab18b39f75e77558",
            "simulationEnable": true,
            "sourceTxnHash": "0xbfd5ee11d837389cda1683d405030665f1c9bb856c7acc4ba44566cf6cddaa77",
            "status": true,
            "timestamp": "2019-09-29T21:29:52Z",
            "transactionFee": "0.00067173",
            "txnHash": "0xbfd5ee11d837389cda1683d405030665f1c9bb856c7acc4ba44566cf6cddaa77",
            "txnIndex": 4,
            "type": 0,
            "value": "0"
        },
        "fund_flow": [
            {
                "amount": "174.38383838",
                "from": "0xc24ed386bf2718bce8668264ab18b39f75e77558",
                "id": 1,
                "isERC1155": false,
                "isERC721": false,
                "isReverted": false,
                "order": 1,
                "to": "0xd2349d84187580c73f1c77669f6f409dc425c3a3",
                "token": "0x3c7b464376db7c9927930cf50eefdea2eff3a66a"
            }
        ],
        "token_infos": [
            {
                "address": "0x3c7b464376db7c9927930cf50eefdea2eff3a66a",
                "decimals": 8
            },
            {
                "address": "0xc02aaa39b223fe8d0a0e5c4f27ead9083c756cc2",
                "decimals": 18
            },
            {
                "address": "0xeeeeeeeeeeeeeeeeeeeeeeeeeeeeeeeeeeeeeeee",
                "decimals": 18
            }
        ]
    },
    "address_label": {
        "labels": [
            {
                "address": "0xeeeeeeeeeeeeeeeeeeeeeeeeeeeeeeeeeeeeeeee",
                "label": "Ether"
            },
            {
                "address": "0x3c7b464376db7c9927930cf50eefdea2eff3a66a",
                "label": "USDA Stablecoin"
            },
            {
                "address": "0x0000000000000000000000000000000000000001",
                "label": "Precompiled"
            },
            {
                "address": "0x0000000000000000000000000000000000000002",
                "label": "Precompiled"
            },
            {
                "address": "0x0000000000000000000000000000000000000003",
                "label": "Precompiled"
            },
            {
                "address": "0x0000000000000000000000000000000000000004",
                "label": "Precompiled"
            }
        ]
    },
    "trace": {
        "accountLabels": null,
        "dataMap": {
            "-1": {
                "invocation": {
                    "address": "0xc24ed386bf2718bce8668264ab18b39f75e77558",
                    "callData": "",
                    "decodedMethod": null,
                    "errorInfo": "",
                    "fromAddress": "",
                    "gasUsed": 0,
                    "id": -1,
                    "methodDecoded": false,
                    "operation": "",
                    "output": "",
                    "revert": false,
                    "revertMessage": "",
                    "selector": "",
                    "status": false,
                    "value": ""
                },
                "nodeType": 0
            },
            "0": {
                "invocation": {
                    "address": "0x3c7b464376db7c9927930cf50eefdea2eff3a66a",
                    "callData": "0x000000000000000000000000d2349d84187580c73f1c77669f6f409dc425c3a3000000000000000000000000000000000000000000000000000000040f689ede",
                    "decodedMethod": {
                        "callParams": [
                            {
                                "name": "_to",
                                "type": "address",
                                "value": "0xd2349d84187580c73f1c77669f6f409dc425c3a3"
                            },
                            {
                                "decimalAvailable": true,
                                "name": "_value",
                                "type": "uint256",
                                "value": "17,438,383,838"
                            }
                        ],
                        "constructorArguments": "",
                        "name": "transfer",
                        "returnParams": [
                            {
                                "name": "",
                                "type": "bool",
                                "value": true
                            }
                        ],
                        "signature": "transfer(address,uint256)"
                    },
                    "errorInfo": "",
                    "fromAddress": "0xc24ed386bf2718bce8668264ab18b39f75e77558",
                    "gasUsed": 22391,
                    "id": 0,
                    "methodDecoded": true,
                    "operation": "CALL",
                    "output": "0x0000000000000000000000000000000000000000000000000000000000000001",
                    "revert": false,
                    "revertMessage": "",
                    "selector": "0xa9059cbb",
                    "status": true,
                    "value": "0"
                },
                "nodeType": 0
            },
            "1": {
                "event": {
                    "contract": "0x3c7b464376db7c9927930cf50eefdea2eff3a66a",
                    "decodedLog": {
                        "name": "Transfer",
                        "params": [
                            {
                                "name": "from",
                                "type": "address",
                                "value": "0xc24ed386bf2718bce8668264ab18b39f75e77558"
                            },
                            {
                                "name": "to",
                                "type": "address",
                                "value": "0xd2349d84187580c73f1c77669f6f409dc425c3a3"
                            },
                            {
                                "decimalAvailable": true,
                                "name": "value",
                                "type": "uint256",
                                "value": "17,438,383,838"
                            }
                        ],
                        "signature": "Transfer(address,address,uint256)"
                    },
                    "id": 1,
                    "logData": "0x000000000000000000000000000000000000000000000000000000040f689ede",
                    "logDecoded": true,
                    "operation": "EVENT",
                    "revert": false,
                    "status": true,
                    "topics": [
                        "0xddf252ad1be2c89b69c2b068fc378daa952ba7f163c4a11628f55a4df523b3ef",
                        "0x000000000000000000000000c24ed386bf2718bce8668264ab18b39f75e77558",
                        "0x000000000000000000000000d2349d84187580c73f1c77669f6f409dc425c3a3"
                    ]
                },
                "nodeType": 1
            }
        },
        "gasFlame": [
            {
                "children": [
                    {
                        "children": [
                            {
                                "children": [],
                                "depth": 0,
                                "name": "Initial Gas",
                                "value": 23128
                            },
                            {
                                "children": [],
                                "depth": 0,
                                "name": "Executed Gas",
                                "value": 14263
                            }
                        ],
                        "depth": -1,
                        "name": "Actual Gas Used",
                        "value": 22391
                    },
                    {
                        "children": [],
                        "depth": -1,
                        "name": "Refunded Gas",
                        "value": 15000
                    }
                ],
                "depth": -2,
                "name": "Total Gas",
                "value": 37391
            }
        ],
        "isConfirmed": true,
        "mainTrace": [
            {
                "children": [
                    {
                        "children": [
                            {
                                "children": [],
                                "depth": 1,
                                "id": 1,
                                "order": 1
                            }
                        ],
                        "depth": 0,
                        "id": 0,
                        "order": 0
                    }
                ],
                "depth": -1,
                "id": -1,
                "order": -1
            }
        ],
        "mainTraceNodeCount": 2,
        "parentIdMap": {
            "0": -1,
            "1": 0
        },
        "tidyTrace": [
            {
                "children": [
                    {
                        "children": [
                            {
                                "children": [],
                                "depth": 1,
                                "id": 1,
                                "order": 1
                            }
                        ],
                        "depth": 0,
                        "id": 0,
                        "order": 0
                    }
                ],
                "depth": -1,
                "id": -1,
                "order": -1
            }
        ],
        "tidyTraceNodeCount": 2
    },
    "state_change": {
        "stateChanges": [
            {
                "address": "0x3c7b464376db7c9927930cf50eefdea2eff3a66a",
                "erc": "ERC-20",
                "slots": [
                    {
                        "current": "0x00000000000000000000000000000000000000000000000000002c4e86416b11",
                        "key": "0x5910886e14f27d3e7a8a4d804187a39feaa94e5706ba93f011f2f7615fe1397a",
                        "prev": "0x00000000000000000000000000000000000000000000000000002c4a76d8cc33"
                    },
                    {
                        "current": "0x0000000000000000000000000000000000000000000000000000000000000000",
                        "key": "0xf4d26ab1e8fcf2bcecc11eba264771e065610312d4e5df608fbb1ef4076dcfe1",
                        "prev": "0x000000000000000000000000000000000000000000000000000000040f689ede"
                    }
                ],
                "storageVariables": [
                    {
                        "name": "balanceOf",
                        "type": "mapping(address => uint256)",
                        "value": {
                            "pairs": [
                                {
                                    "key": "0xc24ed386bf2718bce8668264ab18b39f75e77558",
                                    "value": {
                                        "current": "0",
                                        "prev": "17438383838",
                                        "typeTag": 1
                                    }
                                },
                                {
                                    "key": "0xd2349d84187580c73f1c77669f6f409dc425c3a3",
                                    "value": {
                                        "current": "48715771505425",
                                        "prev": "48698333121587",
                                        "typeTag": 1
                                    }
                                }
                            ],
                            "typeTag": 4
                        }
                    }
                ]
            }
        ]
    }
}