{
    "balance_change": {
        "balanceChanges": [
            {
                "account": "0xe4afb6638065ab723bbf1ad04d454038dbc5cf3b",
                "assets": [
                    {
                        "address": "0x4f878c0852722b0976a955d68b376e4cd4ae99e5",
                        "amount": "5,000",
                        "iconUrl": "https://assets.blocksec.com/icon/405ccdc4a544ba497e8174886a6fc56c5d98abd77f68f60efbce642ba95ddeb2.png",
                        "isERC1155": false,
                        "isERC721": false,
                        "sign": false,
                        "value": ""
                    }
                ]
            },
            {
                "account": "0x8193c2b585f3de9f0b54179351d3e31ad18377e8",
                "assets": [
                    {
                        "address": "0x4f878c0852722b0976a955d68b376e4cd4ae99e5",
                        "amount": "5,000",
                        "iconUrl": "https://assets.blocksec.com/icon/405ccdc4a544ba497e8174886a6fc56c5d98abd77f68f60efbce642ba95ddeb2.png",
                        "isERC1155": false,
                        "isERC721": false,
                        "sign": true,
                        "value": ""
                    }
                ]
            }
        ]
    },
    "profile": {
        "basic_info": {
            "baseFee": "",
            "blockNumber": 5416549,
            "callData": "0xa9059cbb0000000000000000000000008193c2b585f3de9f0b54179351d3e31ad18377e8000000000000000000000000000000000000000000000000000000746a528800",
            "debugEnable": true,
            "errorInfo": "",
            "eventCount": 1,
            "feeRecipient": "0x5a0b54d5dc17e0aadc383d2db43b0a0d3e029c4c",
            "formatValue": "0",
            "gasLimit": 150000,
            "gasPrice": "22",
            "gasUsed": 21955,
            "intTxnCount": 0,
            "internalRevert": false,
            "internalRevertMessage": "",
            "isContractCreation": false,
            "isFlashloan": false,
            "maxFee": "",
            "nonce": 2,
            "overwritedBlockNumber": -1,
            "priorityFee": "",
            "receiver": "0x4f878c0852722b0976a955d68b376e4cd4ae99e5",
            "revertMessage": "",
            "sender": "0xe4afb6638065ab723bbf1ad04d454038dbc5cf3b",
            "simulationEnable": true,
            "sourceTxnHash": "0xbfad9359a4c49e9d07f61895e4d2acbe7f606b6cd8c111b03469c05fdc293e87",
            "status": true,
            "timestamp": "2018-04-10T17:31:24Z",
            "transactionFee": "0.00048301",
            "txnHash": "0xbfad9359a4c49e9d07f61895e4d2acbe7f606b6cd8c111b03469c05fdc293e87",
            "txnIndex": 75,
            "type": 0,
            "value": "0"
        },
        "fund_flow": [
            {
                "amount": "5,000",
                "from": "0xe4afb6638065ab723bbf1ad04d454038dbc5cf3b",
                "id": 1,
                "isERC1155": false,
                "isERC721": false,
                "isReverted": false,
                "order": 1,
                "to": "0x8193c2b585f3de9f0b54179351d3e31ad18377e8",
                "token": "0x4f878c0852722b0976a955d68b376e4cd4ae99e5"
            }
        ],
        "token_infos": [
            {
                "address": "0x4f878c0852722b0976a955d68b376e4cd4ae99e5",
                "decimals": 8
            },
            {
                "address": "0xc02aaa39b223fe8d0a0e5c4f27ead9083c756cc2",
                "decimals": 18
            },
            {
                "address": "0xeeeeeeeeeeeeeeeeeeeeeeeeeeeeeeeeeeeeeeee",
                "decimals": 18
            }
        ]
    },
    "address_label": {
        "labels": [
            {
                "address": "0xeeeeeeeeeeeeeeeeeeeeeeeeeeeeeeeeeeeeeeee",
                "label": "Ether"
            },
            {
                "address": "0x4f878c0852722b0976a955d68b376e4cd4ae99e5",
                "label": "WaykiCoin Token"
            },
            {
                "address": "0x0000000000000000000000000000000000000001",
                "label": "Precompiled"
            },
            {
                "address": "0x0000000000000000000000000000000000000002",
                "label": "Precompiled"
            },
            {
                "address": "0x0000000000000000000000000000000000000003",
                "label": "Precompiled"
            },
            {
                "address": "0x0000000000000000000000000000000000000004",
                "label": "Precompiled"
            }
        ]
    },
    "trace": {
        "accountLabels": null,
        "dataMap": {
            "-1": {
                "invocation": {
                    "address": "0xe4afb6638065ab723bbf1ad04d454038dbc5cf3b",
                    "callData": "",
                    "decodedMethod": null,
                    "errorInfo": "",
                    "fromAddress": "",
                    "gasUsed": 0,
                    "id": -1,
                    "methodDecoded": false,
                    "operation": "",
                    "output": "",
                    "revert": false,
                    "revertMessage": "",
                    "selector": "",
                    "status": false,
                    "value": ""
                },
                "nodeType": 0
            },
            "0": {
                "invocation": {
                    "address": "0x4f878c0852722b0976a955d68b376e4cd4ae99e5",
                    "callData": "0x0000000000000000000000008193c2b585f3de9f0b54179351d3e31ad18377e8000000000000000000000000000000000000000000000000000000746a528800",
                    "decodedMethod": {
                        "callParams": [
                            {
                                "name": "_to",
                                "type": "address",
                                "value": "0x8193c2b585f3de9f0b54179351d3e31ad18377e8"
                            },
                            {
                                "decimalAvailable": true,
                                "name": "_value",
                                "type": "uint256",
                                "value": "500,000,000,000"
                            }
                        ],
                        "constructorArguments": "",
                        "name": "transfer",
                        "returnParams": [
                            {
                                "name": "success",
                                "type": "bool",
                                "value": true
                            }
                        ],
                        "signature": "transfer(address,uint256)"
                    },
                    "errorInfo": "",
                    "fromAddress": "0xe4afb6638065ab723bbf1ad04d454038dbc5cf3b",
                    "gasUsed": 21955,
                    "id": 0,
                    "methodDecoded": true,
                    "operation": "CALL",
                    "output": "0x0000000000000000000000000000000000000000000000000000000000000001",
                    "revert": false,
                    "revertMessage": "",
                    "selector": "0xa9059cbb",
                    "status": true,
                    "value": "0"
                },
                "nodeType": 0
            },
            "1": {
                "event": {
                    "contract": "0x4f878c0852722b0976a955d68b376e4cd4ae99e5",
                    "decodedLog": {
                        "name": "Transfer",
                        "params": [
                            {
                                "name": "_from",
                                "type": "address",
                                "value": "0xe4afb6638065ab723bbf1ad04d454038dbc5cf3b"
                            },
                            {
                                "name": "_to",
                                "type": "address",
                                "value": "0x8193c2b585f3de9f0b54179351d3e31ad18377e8"
                            },
                            {
                                "decimalAvailable": true,
                                "name": "_value",
                                "type": "uint256",
                                "value": "500,000,000,000"
                            }
                        ],
                        "signature": "Transfer(address,address,uint256)"
                    },
                    "id": 1,
                    "logData": "0x000000000000000000000000000000000000000000000000000000746a528800",
                    "logDecoded": true,
                    "operation": "EVENT",
                    "revert": false,
                    "status": true,
                    "topics": [
                        "0xddf252ad1be2c89b69c2b068fc378daa952ba7f163c4a11628f55a4df523b3ef",
                        "0x000000000000000000000000e4afb6638065ab723bbf1ad04d454038dbc5cf3b",
                        "0x0000000000000000000000008193c2b585f3de9f0b54179351d3e31ad18377e8"
                    ]
                },
                "nodeType": 1
            }
        },
        "gasFlame": [
            {
                "children": [
                    {
                        "children": [
                            {
                                "children": [],
                                "depth": 0,
                                "name": "Initial Gas",
                                "value": 23064
                            },
                            {
                                "children": [],
                                "depth": 0,
                                "name": "Executed Gas",
                                "value": 13891
                            }
                        ],
                        "depth": -1,
                        "name": "Actual Gas Used",
                        "value": 21955
                    },
                    {
                        "children": [],
                        "depth": -1,
                        "name": "Refunded Gas",
                        "value": 15000
                    }
                ],
                "depth": -2,
                "name": "Total Gas",
                "value": 36955
            }
        ],
        "isConfirmed": true,
        "mainTrace": [
            {
                "children": [
                    {
                        "children": [
                            {
                                "children": [],
                                "depth": 1,
                                "id": 1,
                                "order": 1
                            }
                        ],
                        "depth": 0,
                        "id": 0,
                        "order": 0
                    }
                ],
                "depth": -1,
                "id": -1,
                "order": -1
            }
        ],
        "mainTraceNodeCount": 2,
        "parentIdMap": {
            "0": -1,
            "1": 0
        },
        "tidyTrace": [
            {
                "children": [
                    {
                        "children": [
                            {
                                "children": [],
                                "depth": 1,
                                "id": 1,
                                "order": 1
                            }
                        ],
                        "depth": 0,
                        "id": 0,
                        "order": 0
                    }
                ],
                "depth": -1,
                "id": -1,
                "order": -1
            }
        ],
        "tidyTraceNodeCount": 2
    },
    "state_change": {
        "stateChanges": [
            {
                "address": "0x4f878c0852722b0976a955d68b376e4cd4ae99e5",
                "erc": "ERC-20",
                "slots": [
                    {
                        "current": "0x0000000000000000000000000000000000000000000000000000000000000000",
                        "key": "0x746409e4acc13e684ff65ca47c24c3e85caf42e460d2a894d690be8e65c200ec",
                        "prev": "0x000000000000000000000000000000000000000000000000000000746a528800"
                    },
                    {
                        "current": "0x0000000000000000000000000000000000000000000000000023319dea71f37c",
                        "key": "0xe1f515bc34a01e2ffe3afb6dffb0d50a00b825a6374bdb3d2eca08fc024936bb",
                        "prev": "0x00000000000000000000000000000000000000000000000000233129801f6b7c"
                    }
                ],
                "storageVariables": [
                    {
                        "name": "balances",
                        "type": "mapping(address => uint256)",
                        "value": {
                            "pairs": [
                                {
                                    "key": "0x8193c2b585f3de9f0b54179351d3e31ad18377e8",
                                    "value": {
                                        "current": "9906178497835900",
                                        "prev": "9905678497835900",
                                        "typeTag": 1
                                    }
                                },
                                {
                                    "key": "0xe4afb6638065ab723bbf1ad04d454038dbc5cf3b",
                                    "value": {
                                        "current": "0",
                                        "prev": "500000000000",
                                        "typeTag": 1
                                    }
                                }
                            ],
                            "typeTag": 4
                        }
                    }
                ]
            }
        ]
    }
}