{
    "balance_change": {
        "balanceChanges": [
            {
                "account": "0x3c01397c3c9fda958380cbbdc1d5689c7d6b7b58",
                "assets": [
                    {
                        "address": "0x795dbf627484f8248d3d6c09c309825c1563e873",
                        "amount": "19.50564",
                        "iconUrl": "",
                        "isERC1155": false,
                        "isERC721": false,
                        "sign": false,
                        "value": "1043.334382"
                    }
                ]
            },
            {
                "account": "0xcad5a42d74f66d96650fdf1a1b1d738dedb7d876",
                "assets": [
                    {
                        "address": "0x795dbf627484f8248d3d6c09c309825c1563e873",
                        "amount": "19.50564",
                        "iconUrl": "",
                        "isERC1155": false,
                        "isERC721": false,
                        "sign": true,
                        "value": "1043.334382"
                    }
                ]
            }
        ]
    },
    "profile": {
        "basic_info": {
            "baseFee": "18.670663673",
            "blockNumber": 16703932,
            "callData": "0x40b5b072000000000000000000000000795dbf627484f8248d3d6c09c309825c1563e8730000000000000000000000003c01397c3c9fda958380cbbdc1d5689c7d6b7b580000000000000000000000000000000000000000000000010eb1f43c14a68000",
            "debugEnable": true,
            "errorInfo": "",
            "eventCount": 3,
            "feeRecipient": "0x690b9a9e9aa1c9db991c7721a92d351db4fac990",
            "formatValue": "0",
            "gasLimit": 76975,
            "gasPrice": "20.07",
            "gasUsed": 66480,
            "intTxnCount": 2,
            "internalRevert": false,
            "internalRevertMessage": "",
            "isContractCreation": false,
            "isFlashloan": false,
            "maxFee": "",
            "nonce": 93,
            "overwritedBlockNumber": -1,
            "priorityFee": "",
            "receiver": "0xcad5a42d74f66d96650fdf1a1b1d738dedb7d876",
            "revertMessage": "",
            "sender": "0x3c01397c3c9fda958380cbbdc1d5689c7d6b7b58",
            "simulationEnable": true,
            "sourceTxnHash": "0xbf0d8064c2187e31a6b55f86c93f39eb86502fda9e93b6267ed44216e5a346c4",
            "status": true,
            "timestamp": "2023-02-25T07:50:35Z",
            "transactionFee": "0.0013342536",
            "txnHash": "0xbf0d8064c2187e31a6b55f86c93f39eb86502fda9e93b6267ed44216e5a346c4",
            "txnIndex": 81,
            "type": 0,
            "value": "0"
        },
        "fund_flow": [
            {
                "amount": "19.50564",
                "from": "0x3c01397c3c9fda958380cbbdc1d5689c7d6b7b58",
                "id": 1,
                "isERC1155": false,
                "isERC721": false,
                "isReverted": false,
                "order": 1,
                "to": "0xcad5a42d74f66d96650fdf1a1b1d738dedb7d876",
                "token": "0x795dbf627484f8248d3d6c09c309825c1563e873"
            }
        ],
        "token_infos": [
            {
                "address": "0x795dbf627484f8248d3d6c09c309825c1563e873",
                "decimals": 18
            },
            {
                "address": "0xc02aaa39b223fe8d0a0e5c4f27ead9083c756cc2",
                "decimals": 18
            },
            {
                "address": "0xeeeeeeeeeeeeeeeeeeeeeeeeeeeeeeeeeeeeeeee",
                "decimals": 18
            }
        ]
    },
    "address_label": {
        "labels": [
            {
                "address": "0x795dbf627484f8248d3d6c09c309825c1563e873",
                "label": "Nerv Ledger: SNP Token"
            },
            {
                "address": "0xcad5a42d74f66d96650fdf1a1b1d738dedb7d876",
                "label": "TransparentUpgradeableProxy_cad5_d876"
            },
            {
                "address": "0x0000000000000000000000000000000000000001",
                "label": "Precompiled"
            },
            {
                "address": "0x0000000000000000000000000000000000000002",
                "label": "Precompiled"
            },
            {
                "address": "0x0000000000000000000000000000000000000003",
                "label": "Precompiled"
            },
            {
                "address": "0x0000000000000000000000000000000000000004",
                "label": "Precompiled"
            },
            {
                "address": "0xeeeeeeeeeeeeeeeeeeeeeeeeeeeeeeeeeeeeeeee",
                "label": "Ether"
            },
            {
                "address": "0x80000368cd1f1ed20b488eeb6521f12ebacdb2e3",
                "label": "SeeleBridge"
            }
        ]
    },
    "trace": {
        "accountLabels": null,
        "dataMap": {
            "-1": {
                "invocation": {
                    "address": "0x3c01397c3c9fda958380cbbdc1d5689c7d6b7b58",
                    "callData": "",
                    "decodedMethod": null,
                    "errorInfo": "",
                    "fromAddress": "",
                    "gasUsed": 0,
                    "id": -1,
                    "methodDecoded": false,
                    "operation": "",
                    "output": "",
                    "revert": false,
                    "revertMessage": "",
                    "selector": "",
                    "status": false,
                    "value": ""
                },
                "nodeType": 0
            },
            "0": {
                "invocation": {
                    "address": "0xcad5a42d74f66d96650fdf1a1b1d738dedb7d876",
                    "callData": "0x000000000000000000000000795dbf627484f8248d3d6c09c309825c1563e8730000000000000000000000003c01397c3c9fda958380cbbdc1d5689c7d6b7b580000000000000000000000000000000000000000000000010eb1f43c14a68000",
                    "decodedMethod": {
                        "callParams": [
                            {
                                "name": "_tokenContract",
                                "type": "address",
                                "value": "0x795dbf627484f8248d3d6c09c309825c1563e873"
                            },
                            {
                                "name": "_destination",
                                "type": "address",
                                "value": "0x3c01397c3c9fda958380cbbdc1d5689c7d6b7b58"
                            },
                            {
                                "name": "_amount",
                                "type": "uint256",
                                "value": "19,505,640,000,000,000,000"
                            }
                        ],
                        "constructorArguments": "",
                        "name": "sendToSeele",
                        "returnParams": [],
                        "signature": "sendToSeele(address,address,uint256)"
                    },
                    "errorInfo": "",
                    "fromAddress": "0x3c01397c3c9fda958380cbbdc1d5689c7d6b7b58",
                    "gasUsed": 66480,
                    "id": 0,
                    "methodDecoded": true,
                    "operation": "CALL",
                    "output": "",
                    "revert": false,
                    "revertMessage": "",
                    "selector": "0x40b5b072",
                    "status": true,
                    "value": "0"
                },
                "nodeType": 0
            },
            "1": {
                "invocation": {
                    "address": "0x80000368cd1f1ed20b488eeb6521f12ebacdb2e3",
                    "callData": "0x000000000000000000000000795dbf627484f8248d3d6c09c309825c1563e8730000000000000000000000003c01397c3c9fda958380cbbdc1d5689c7d6b7b580000000000000000000000000000000000000000000000010eb1f43c14a68000",
                    "decodedMethod": {
                        "callParams": [
                            {
                                "name": "_tokenContract",
                                "type": "address",
                                "value": "0x795dbf627484f8248d3d6c09c309825c1563e873"
                            },
                            {
                                "name": "_destination",
                                "type": "address",
                                "value": "0x3c01397c3c9fda958380cbbdc1d5689c7d6b7b58"
                            },
                            {
                                "name": "_amount",
                                "type": "uint256",
                                "value": "19,505,640,000,000,000,000"
                            }
                        ],
                        "constructorArguments": "",
                        "name": "sendToSeele",
                        "returnParams": [],
                        "signature": "sendToSeele(address,address,uint256)"
                    },
                    "errorInfo": "",
                    "fromAddress": "0xcad5a42d74f66d96650fdf1a1b1d738dedb7d876",
                    "gasUsed": 44807,
                    "id": 1,
                    "methodDecoded": true,
                    "operation": "DELEGATECALL",
                    "output": "",
                    "revert": false,
                    "revertMessage": "",
                    "selector": "0x40b5b072",
                    "status": true,
                    "value": "0"
                },
                "nodeType": 0
            },
            "2": {
                "invocation": {
                    "address": "0x795dbf627484f8248d3d6c09c309825c1563e873",
                    "callData": "0x0000000000000000000000003c01397c3c9fda958380cbbdc1d5689c7d6b7b58000000000000000000000000cad5a42d74f66d96650fdf1a1b1d738dedb7d8760000000000000000000000000000000000000000000000010eb1f43c14a68000",
                    "decodedMethod": {
                        "callParams": [
                            {
                                "name": "sender",
                                "type": "address",
                                "value": "0x3c01397c3c9fda958380cbbdc1d5689c7d6b7b58"
                            },
                            {
                                "name": "recipient",
                                "type": "address",
                                "value": "0xcad5a42d74f66d96650fdf1a1b1d738dedb7d876"
                            },
                            {
                                "decimalAvailable": true,
                                "name": "amount",
                                "type": "uint256",
                                "value": "19,505,640,000,000,000,000"
                            }
                        ],
                        "constructorArguments": "",
                        "name": "transferFrom",
                        "returnParams": [
                            {
                                "name": "",
                                "type": "bool",
                                "value": true
                            }
                        ],
                        "signature": "transferFrom(address,address,uint256)"
                    },
                    "errorInfo": "",
                    "fromAddress": "0xcad5a42d74f66d96650fdf1a1b1d738dedb7d876",
                    "gasUsed": 22802,
                    "id": 2,
                    "methodDecoded": true,
                    "operation": "CALL",
                    "output": "0x0000000000000000000000000000000000000000000000000000000000000001",
                    "revert": false,
                    "revertMessage": "",
                    "selector": "0x23b872dd",
                    "status": true,
                    "value": "0"
                },
                "nodeType": 0
            },
            "3": {
                "event": {
                    "contract": "0x795dbf627484f8248d3d6c09c309825c1563e873",
                    "decodedLog": {
                        "name": "Transfer",
                        "params": [
                            {
                                "name": "from",
                                "type": "address",
                                "value": "0x3c01397c3c9fda958380cbbdc1d5689c7d6b7b58"
                            },
                            {
                                "name": "to",
                                "type": "address",
                                "value": "0xcad5a42d74f66d96650fdf1a1b1d738dedb7d876"
                            },
                            {
                                "decimalAvailable": true,
                                "name": "value",
                                "type": "uint256",
                                "value": "19,505,640,000,000,000,000"
                            }
                        ],
                        "signature": "Transfer(address,address,uint256)"
                    },
                    "id": 3,
                    "logData": "0x0000000000000000000000000000000000000000000000010eb1f43c14a68000",
                    "logDecoded": true,
                    "operation": "EVENT",
                    "revert": false,
                    "status": true,
                    "topics": [
                        "0xddf252ad1be2c89b69c2b068fc378daa952ba7f163c4a11628f55a4df523b3ef",
                        "0x0000000000000000000000003c01397c3c9fda958380cbbdc1d5689c7d6b7b58",
                        "0x000000000000000000000000cad5a42d74f66d96650fdf1a1b1d738dedb7d876"
                    ]
                },
                "nodeType": 1
            },
            "4": {
                "event": {
                    "contract": "0x795dbf627484f8248d3d6c09c309825c1563e873",
                    "decodedLog": {
                        "name": "Approval",
                        "params": [
                            {
                                "name": "owner",
                                "type": "address",
                                "value": "0x3c01397c3c9fda958380cbbdc1d5689c7d6b7b58"
                            },
                            {
                                "name": "spender",
                                "type": "address",
                                "value": "0xcad5a42d74f66d96650fdf1a1b1d738dedb7d876"
                            },
                            {
                                "decimalAvailable": true,
                                "name": "value",
                                "type": "uint256",
                                "value": "115,792,089,237,316,195,423,570,985,008,687,907,853,269,984,665,640,564,039,255,003,235,363,129,639,935"
                            }
                        ],
                        "signature": "Approval(address,address,uint256)"
                    },
                    "id": 4,
                    "logData": "0xfffffffffffffffffffffffffffffffffffffffffffffff504a084af490bc3ff",
                    "logDecoded": true,
                    "operation": "EVENT",
                    "revert": false,
                    "status": true,
                    "topics": [
                        "0x8c5be1e5ebec7d5bd14f71427d1e84f3dd0314c0f7b2291e5b200ac8c7c3b925",
                        "0x0000000000000000000000003c01397c3c9fda958380cbbdc1d5689c7d6b7b58",
                        "0x000000000000000000000000cad5a42d74f66d96650fdf1a1b1d738dedb7d876"
                    ]
                },
                "nodeType": 1
            },
            "5": {
                "event": {
                    "contract": "0xcad5a42d74f66d96650fdf1a1b1d738dedb7d876",
                    "decodedLog": {
                        "name": "SendToSeeleEvent",
                        "params": [
                            {
                                "name": "_tokenContract",
                                "type": "address",
                                "value": "0x795dbf627484f8248d3d6c09c309825c1563e873"
                            },
                            {
                                "name": "_sender",
                                "type": "address",
                                "value": "0x3c01397c3c9fda958380cbbdc1d5689c7d6b7b58"
                            },
                            {
                                "name": "_destination",
                                "type": "address",
                                "value": "0x3c01397c3c9fda958380cbbdc1d5689c7d6b7b58"
                            },
                            {
                                "name": "_amount",
                                "type": "uint256",
                                "value": "19,505,640,000,000,000,000"
                            },
                            {
                                "name": "_eventNonce",
                                "type": "uint256",
                                "value": "12,906"
                            }
                        ],
                        "signature": "SendToSeeleEvent(address,address,address,uint256,uint256)"
                    },
                    "id": 5,
                    "logData": "0x0000000000000000000000000000000000000000000000010eb1f43c14a68000000000000000000000000000000000000000000000000000000000000000326a",
                    "logDecoded": true,
                    "operation": "EVENT",
                    "revert": false,
                    "status": true,
                    "topics": [
                        "0x0ee3881a7b95db3ea47c0e737fea394eb0d9fbcd0fd5f9c44acccf294cefed0a",
                        "0x000000000000000000000000795dbf627484f8248d3d6c09c309825c1563e873",
                        "0x0000000000000000000000003c01397c3c9fda958380cbbdc1d5689c7d6b7b58",
                        "0x0000000000000000000000003c01397c3c9fda958380cbbdc1d5689c7d6b7b58"
                    ]
                },
                "nodeType": 1
            }
        },
        "gasFlame": [
            {
                "children": [
                    {
                        "children": [
                            {
                                "children": [],
                                "depth": 0,
                                "name": "Initial Gas",
                                "value": 22024
                            },
                            {
                                "children": [
                                    {
                                        "children": [
                                            {
                                                "children": [],
                                                "depth": 2,
                                                "name": "transferFrom",
                                                "value": 22802
                                            }
                                        ],
                                        "depth": 1,
                                        "name": "sendToSeele",
                                        "value": 44807
                                    }
                                ],
                                "depth": 0,
                                "name": "Executed Gas",
                                "value": 52056
                            }
                        ],
                        "depth": -1,
                        "name": "Actual Gas Used",
                        "value": 66480
                    },
                    {
                        "children": [],
                        "depth": -1,
                        "name": "Refunded Gas",
                        "value": 7600
                    }
                ],
                "depth": -2,
                "name": "Total Gas",
                "value": 74080
            }
        ],
        "isConfirmed": true,
        "mainTrace": [
            {
                "children": [
                    {
                        "children": [
                            {
                                "children": [
                                    {
                                        "children": [
                                            {
                                                "children": [],
                                                "depth": 3,
                                                "id": 3,
                                                "order": 3
                                            },
                                            {
                                                "children": [],
                                                "depth": 3,
                                                "id": 4,
                                                "order": 4
                                            }
                                        ],
                                        "depth": 2,
                                        "id": 2,
                                        "order": 2
                                    },
                                    {
                                        "children": [],
                                        "depth": 2,
                                        "id": 5,
                                        "order": 5
                                    }
                                ],
                                "depth": 1,
                                "id": 1,
                                "order": 1
                            }
                        ],
                        "depth": 0,
                        "id": 0,
                        "order": 0
                    }
                ],
                "depth": -1,
                "id": -1,
                "order": -1
            }
        ],
        "mainTraceNodeCount": 6,
        "parentIdMap": {
            "0": -1,
            "1": 0,
            "2": 1,
            "3": 2,
            "4": 2,
            "5": 1
        },
        "tidyTrace": [
            {
                "children": [
                    {
                        "children": [
                            {
                                "children": [
                                    {
                                        "children": [
                                            {
                                                "children": [],
                                                "depth": 3,
                                                "id": 3,
                                                "order": 3
                                            },
                                            {
                                                "children": [],
                                                "depth": 3,
                                                "id": 4,
                                                "order": 4
                                            }
                                        ],
                                        "depth": 2,
                                        "id": 2,
                                        "order": 2
                                    },
                                    {
                                        "children": [],
                                        "depth": 2,
                                        "id": 5,
                                        "order": 5
                                    }
                                ],
                                "depth": 1,
                                "id": 1,
                                "order": 1
                            }
                        ],
                        "depth": 0,
                        "id": 0,
                        "order": 0
                    }
                ],
                "depth": -1,
                "id": -1,
                "order": -1
            }
        ],
        "tidyTraceNodeCount": 6
    },
    "state_change": {
        "stateChanges": [
            {
                "address": "0x795dbf627484f8248d3d6c09c309825c1563e873",
                "erc": "ERC-20",
                "slots": [
                    {
                        "current": "0x00000000000000000000000000000000000000000000cdf05ae9e28d6b439ca2",
                        "key": "0x236444e4215cc904d5d136e4c6fd14aff036713acea0ec12eccc7aad8f9d96d2",
                        "prev": "0x00000000000000000000000000000000000000000000cdef4c37ee51569d1ca2"
                    },
                    {
                        "current": "0xfffffffffffffffffffffffffffffffffffffffffffffff504a084af490bc3ff",
                        "key": "0x2c301dd76e7ae9fb9e5f62fa121e28f26fc28f4f9ed43d198772c534606645d4",
                        "prev": "0xfffffffffffffffffffffffffffffffffffffffffffffff6135278eb5db243ff"
                    },
                    {
                        "current": "0x0000000000000000000000000000000000000000000000000000000000000000",
                        "key": "0x5f9de0a4199b93530cec07086d9948e95ace23b911f95c241fe904b813dd7885",
                        "prev": "0x0000000000000000000000000000000000000000000000010eb1f43c14a68000"
                    }
                ],
                "storageVariables": [
                    {
                        "name": "_balances",
                        "type": "mapping(address => uint256)",
                        "value": {
                            "pairs": [
                                {
                                    "key": "0x3c01397c3c9fda958380cbbdc1d5689c7d6b7b58",
                                    "value": {
                                        "current": "0",
                                        "prev": "19505640000000000000",
                                        "typeTag": 1
                                    }
                                },
                                {
                                    "key": "0xcad5a42d74f66d96650fdf1a1b1d738dedb7d876",
                                    "value": {
                                        "current": "972518898582197566151842",
                                        "prev": "972499392942197566151842",
                                        "typeTag": 1
                                    }
                                }
                            ],
                            "typeTag": 4
                        }
                    },
                    {
                        "name": "_allowances",
                        "type": "mapping(address => mapping(address => uint256))",
                        "value": {
                            "pairs": [
                                {
                                    "key": "0x3c01397c3c9fda958380cbbdc1d5689c7d6b7b58",
                                    "value": {
                                        "pairs": [
                                            {
                                                "key": "0xcad5a42d74f66d96650fdf1a1b1d738dedb7d876",
                                                "value": {
                                                    "current": "115792089237316195423570985008687907853269984665640564039255003235363129639935",
                                                    "prev": "115792089237316195423570985008687907853269984665640564039274508875363129639935",
                                                    "typeTag": 1
                                                }
                                            }
                                        ],
                                        "typeTag": 4
                                    }
                                }
                            ],
                            "typeTag": 4
                        }
                    }
                ]
            },
            {
                "address": "0xcad5a42d74f66d96650fdf1a1b1d738dedb7d876",
                "erc": "",
                "slots": [
                    {
                        "current": "0x000000000000000000000000000000000000000000000000000000000000326a",
                        "key": "0x0000000000000000000000000000000000000000000000000000000000000006",
                        "prev": "0x0000000000000000000000000000000000000000000000000000000000003269"
                    }
                ],
                "storageVariables": [
                    {
                        "name": "state_lastEventNonce",
                        "type": "uint256",
                        "value": {
                            "current": "12906",
                            "prev": "12905",
                            "typeTag": 1
                        }
                    }
                ]
            }
        ]
    }
}