{
    "balance_change": {
        "balanceChanges": [
            {
                "account": "0x048717ea892f23fb0126f00640e2b18072efd9d2",
                "assets": [
                    {
                        "address": "0xeeeeeeeeeeeeeeeeeeeeeeeeeeeeeeeeeeeeeeee",
                        "amount": "0.000000000000000001",
                        "iconUrl": "https://assets.blocksec.com/image/1663669189317-3.png",
                        "isERC1155": false,
                        "isERC721": false,
                        "sign": false,
                        "value": ""
                    }
                ]
            },
            {
                "account": "0x62600d264c2f76b40469b6d55f357361b0229469",
                "assets": [
                    {
                        "address": "0xeeeeeeeeeeeeeeeeeeeeeeeeeeeeeeeeeeeeeeee",
                        "amount": "0.000000000000000001",
                        "iconUrl": "https://assets.blocksec.com/image/1663669189317-3.png",
                        "isERC1155": false,
                        "isERC721": false,
                        "sign": true,
                        "value": ""
                    }
                ]
            }
        ]
    },
    "profile": {
        "basic_info": {
            "baseFee": "",
            "blockNumber": 5380980,
            "callData": "0x38bbfa50ae255d89c78b0c56000b9282ed229b8a1df475184a8aef289178b3c3cbed3e45000000000000000000000000000000000000000000000000000000000000006000000000000000000000000000000000000000000000000000000000000000a0000000000000000000000000000000000000000000000000000000000000000e5b3238303234312c205b38385d5d000000000000000000000000000000000000000000000000000000000000000000000000000000000000000000000000002212204c62d585e01580b9af6f90d28830c4074287925a9f011b8871fcb8700a5f7754000000000000000000000000000000000000000000000000000000000000",
            "debugEnable": true,
            "errorInfo": "",
            "eventCount": 1,
            "feeRecipient": "0x52bc44d5378309ee2abf1539bf71de1b7d7be3b5",
            "formatValue": "0",
            "gasLimit": 235000,
            "gasPrice": "4",
            "gasUsed": 144011,
            "intTxnCount": 3,
            "internalRevert": false,
            "internalRevertMessage": "",
            "isContractCreation": false,
            "isFlashloan": false,
            "maxFee": "",
            "nonce": 475051,
            "overwritedBlockNumber": -1,
            "priorityFee": "",
            "receiver": "0x048717ea892f23fb0126f00640e2b18072efd9d2",
            "revertMessage": "",
            "sender": "0x26588a9301b0428d95e6fc3a5024fce8bec12d51",
            "simulationEnable": true,
            "sourceTxnHash": "0xbf1fae523f5cb141ad1cc118c5198eb872ce76c922d6473887f5718213bcfae1",
            "status": true,
            "timestamp": "2018-04-04T20:10:24Z",
            "transactionFee": "0.000576044",
            "txnHash": "0xbf1fae523f5cb141ad1cc118c5198eb872ce76c922d6473887f5718213bcfae1",
            "txnIndex": 106,
            "type": 0,
            "value": "0"
        },
        "fund_flow": [
            {
                "amount": "0.000000000000000001",
                "from": "0x048717ea892f23fb0126f00640e2b18072efd9d2",
                "id": 1,
                "isERC1155": false,
                "isERC721": false,
                "isReverted": false,
                "order": 1,
                "to": "0x62600d264c2f76b40469b6d55f357361b0229469",
                "token": "0xeeeeeeeeeeeeeeeeeeeeeeeeeeeeeeeeeeeeeeee"
            }
        ],
        "token_infos": [
            {
                "address": "0xc02aaa39b223fe8d0a0e5c4f27ead9083c756cc2",
                "decimals": 18
            },
            {
                "address": "0xeeeeeeeeeeeeeeeeeeeeeeeeeeeeeeeeeeeeeeee",
                "decimals": 18
            }
        ]
    },
    "address_label": {
        "labels": [
            {
                "address": "0x0000000000000000000000000000000000000001",
                "label": "Precompiled"
            },
            {
                "address": "0x0000000000000000000000000000000000000002",
                "label": "Precompiled"
            },
            {
                "address": "0xeeeeeeeeeeeeeeeeeeeeeeeeeeeeeeeeeeeeeeee",
                "label": "Ether"
            },
            {
                "address": "0x1d3b2638a7cc9f2cb3d298a3da7a90b67e5506ed",
                "label": "OraclizeAddrResolver"
            },
            {
                "address": "0x3dbdc81a6edc94c720b0b88fb65dbd7e395fdcf6",
                "label": "0x3dbd_Oraclize"
            },
            {
                "address": "0x0000000000000000000000000000000000000004",
                "label": "Precompiled"
            },
            {
                "address": "0x26588a9301b0428d95e6fc3a5024fce8bec12d51",
                "label": "0x2658_Oraclize"
            },
            {
                "address": "0x048717ea892f23fb0126f00640e2b18072efd9d2",
                "label": "Etheroll"
            },
            {
                "address": "0x0000000000000000000000000000000000000003",
                "label": "Precompiled"
            }
        ]
    },
    "trace": {
        "accountLabels": null,
        "dataMap": {
            "-1": {
                "invocation": {
                    "address": "0x26588a9301b0428d95e6fc3a5024fce8bec12d51",
                    "callData": "",
                    "decodedMethod": null,
                    "errorInfo": "",
                    "fromAddress": "",
                    "gasUsed": 0,
                    "id": -1,
                    "methodDecoded": false,
                    "operation": "",
                    "output": "",
                    "revert": false,
                    "revertMessage": "",
                    "selector": "",
                    "status": false,
                    "value": ""
                },
                "nodeType": 0
            },
            "0": {
                "invocation": {
                    "address": "0x048717ea892f23fb0126f00640e2b18072efd9d2",
                    "callData": "0xae255d89c78b0c56000b9282ed229b8a1df475184a8aef289178b3c3cbed3e45000000000000000000000000000000000000000000000000000000000000006000000000000000000000000000000000000000000000000000000000000000a0000000000000000000000000000000000000000000000000000000000000000e5b3238303234312c205b38385d5d000000000000000000000000000000000000000000000000000000000000000000000000000000000000000000000000002212204c62d585e01580b9af6f90d28830c4074287925a9f011b8871fcb8700a5f7754000000000000000000000000000000000000000000000000000000000000",
                    "decodedMethod": {
                        "callParams": [
                            {
                                "name": "myid",
                                "type": "bytes32",
                                "value": "0xae255d89c78b0c56000b9282ed229b8a1df475184a8aef289178b3c3cbed3e45"
                            },
                            {
                                "name": "result",
                                "type": "string",
                                "value": "[280241, [88]]"
                            },
                            {
                                "name": "proof",
                                "type": "bytes",
                                "value": "0x12204c62d585e01580b9af6f90d28830c4074287925a9f011b8871fcb8700a5f7754"
                            }
                        ],
                        "constructorArguments": "",
                        "name": "__callback",
                        "returnParams": [],
                        "signature": "__callback(bytes32,string,bytes)"
                    },
                    "errorInfo": "",
                    "fromAddress": "0x26588a9301b0428d95e6fc3a5024fce8bec12d51",
                    "gasUsed": 144011,
                    "id": 0,
                    "methodDecoded": true,
                    "operation": "CALL",
                    "output": "",
                    "revert": false,
                    "revertMessage": "",
                    "selector": "0x38bbfa50",
                    "status": true,
                    "value": "0"
                },
                "nodeType": 0
            },
            "1": {
                "invocation": {
                    "address": "0x1d3b2638a7cc9f2cb3d298a3da7a90b67e5506ed",
                    "callData": "0x",
                    "decodedMethod": {
                        "callParams": [],
                        "constructorArguments": "",
                        "name": "getAddress",
                        "returnParams": [
                            {
                                "name": "oaddr",
                                "type": "address",
                                "value": "0x3dbdc81a6edc94c720b0b88fb65dbd7e395fdcf6"
                            }
                        ],
                        "signature": "getAddress()"
                    },
                    "errorInfo": "",
                    "fromAddress": "0x048717ea892f23fb0126f00640e2b18072efd9d2",
                    "gasUsed": 418,
                    "id": 1,
                    "methodDecoded": true,
                    "operation": "CALL",
                    "output": "0x0000000000000000000000003dbdc81a6edc94c720b0b88fb65dbd7e395fdcf6",
                    "revert": false,
                    "revertMessage": "",
                    "selector": "0x38cc4831",
                    "status": true,
                    "value": "0"
                },
                "nodeType": 0
            },
            "2": {
                "invocation": {
                    "address": "0x3dbdc81a6edc94c720b0b88fb65dbd7e395fdcf6",
                    "callData": "0x",
                    "decodedMethod": {
                        "callParams": [],
                        "constructorArguments": "",
                        "name": "cbAddress",
                        "returnParams": [
                            {
                                "name": "_cbAddress",
                                "type": "address",
                                "value": "0x26588a9301b0428d95e6fc3a5024fce8bec12d51"
                            }
                        ],
                        "signature": "cbAddress()"
                    },
                    "errorInfo": "",
                    "fromAddress": "0x048717ea892f23fb0126f00640e2b18072efd9d2",
                    "gasUsed": 1444,
                    "id": 2,
                    "methodDecoded": true,
                    "operation": "CALL",
                    "output": "0x00000000000000000000000026588a9301b0428d95e6fc3a5024fce8bec12d51",
                    "revert": false,
                    "revertMessage": "",
                    "selector": "0xc281d19e",
                    "status": true,
                    "value": "0"
                },
                "nodeType": 0
            },
            "3": {
                "event": {
                    "contract": "0x048717ea892f23fb0126f00640e2b18072efd9d2",
                    "decodedLog": {
                        "name": "LogResult",
                        "params": [
                            {
                                "name": "ResultSerialNumber",
                                "type": "uint256",
                                "value": "280,241"
                            },
                            {
                                "name": "BetID",
                                "type": "bytes32",
                                "value": "0xae255d89c78b0c56000b9282ed229b8a1df475184a8aef289178b3c3cbed3e45"
                            },
                            {
                                "name": "PlayerAddress",
                                "type": "address",
                                "value": "0x62600d264c2f76b40469b6d55f357361b0229469"
                            },
                            {
                                "name": "PlayerNumber",
                                "type": "uint256",
                                "value": "76"
                            },
                            {
                                "name": "DiceResult",
                                "type": "uint256",
                                "value": "88"
                            },
                            {
                                "name": "Value",
                                "type": "uint256",
                                "value": "260,000,000,000,000,000"
                            },
                            {
                                "name": "Status",
                                "type": "int256",
                                "value": "0"
                            },
                            {
                                "name": "Proof",
                                "type": "bytes",
                                "value": "0x12204c62d585e01580b9af6f90d28830c4074287925a9f011b8871fcb8700a5f7754"
                            }
                        ],
                        "signature": "LogResult(uint256,bytes32,address,uint256,uint256,uint256,int256,bytes)"
                    },
                    "id": 3,
                    "logData": "0x000000000000000000000000000000000000000000000000000000000000004c0000000000000000000000000000000000000000000000000000000000000058000000000000000000000000000000000000000000000000039bb49f599a0000000000000000000000000000000000000000000000000000000000000000000000000000000000000000000000000000000000000000000000000000000000a0000000000000000000000000000000000000000000000000000000000000002212204c62d585e01580b9af6f90d28830c4074287925a9f011b8871fcb8700a5f7754000000000000000000000000000000000000000000000000000000000000",
                    "logDecoded": true,
                    "operation": "EVENT",
                    "revert": false,
                    "status": true,
                    "topics": [
                        "0x8dd0b145385d04711e29558ceab40b456976a2b9a7d648cc1bcd416161bf97b9",
                        "0x00000000000000000000000000000000000000000000000000000000000446b1",
                        "0xae255d89c78b0c56000b9282ed229b8a1df475184a8aef289178b3c3cbed3e45",
                        "0x00000000000000000000000062600d264c2f76b40469b6d55f357361b0229469"
                    ]
                },
                "nodeType": 1
            },
            "4": {
                "invocation": {
                    "address": "0x62600d264c2f76b40469b6d55f357361b0229469",
                    "callData": "0x",
                    "decodedMethod": null,
                    "errorInfo": "",
                    "fromAddress": "0x048717ea892f23fb0126f00640e2b18072efd9d2",
                    "gasUsed": 0,
                    "id": 4,
                    "methodDecoded": false,
                    "operation": "CALL",
                    "output": "",
                    "revert": false,
                    "revertMessage": "",
                    "selector": "fallback",
                    "status": true,
                    "value": "0.000000000000000001"
                },
                "nodeType": 0
            }
        },
        "gasFlame": [
            {
                "children": [
                    {
                        "children": [
                            {
                                "children": [],
                                "depth": 0,
                                "name": "Initial Gas",
                                "value": 27608
                            },
                            {
                                "children": [
                                    {
                                        "children": [],
                                        "depth": 1,
                                        "name": "getAddress",
                                        "value": 418
                                    },
                                    {
                                        "children": [],
                                        "depth": 1,
                                        "name": "cbAddress",
                                        "value": 1444
                                    },
                                    {
                                        "children": [],
                                        "depth": 1,
                                        "name": "fallback",
                                        "value": 0
                                    }
                                ],
                                "depth": 0,
                                "name": "Executed Gas",
                                "value": 161403
                            }
                        ],
                        "depth": -1,
                        "name": "Actual Gas Used",
                        "value": 144011
                    },
                    {
                        "children": [],
                        "depth": -1,
                        "name": "Refunded Gas",
                        "value": 45000
                    }
                ],
                "depth": -2,
                "name": "Total Gas",
                "value": 189011
            }
        ],
        "isConfirmed": true,
        "mainTrace": [
            {
                "children": [
                    {
                        "children": [
                            {
                                "children": [],
                                "depth": 1,
                                "id": 1,
                                "order": 1
                            },
                            {
                                "children": [],
                                "depth": 1,
                                "id": 2,
                                "order": 2
                            },
                            {
                                "children": [],
                                "depth": 1,
                                "id": 3,
                                "order": 3
                            },
                            {
                                "children": [],
                                "depth": 1,
                                "id": 4,
                                "order": 4
                            }
                        ],
                        "depth": 0,
                        "id": 0,
                        "order": 0
                    }
                ],
                "depth": -1,
                "id": -1,
                "order": -1
            }
        ],
        "mainTraceNodeCount": 5,
        "parentIdMap": {
            "0": -1,
            "1": 0,
            "2": 0,
            "3": 0,
            "4": 0
        },
        "tidyTrace": [
            {
                "children": [
                    {
                        "children": [
                            {
                                "children": [],
                                "depth": 1,
                                "id": 1,
                                "order": 1
                            },
                            {
                                "children": [],
                                "depth": 1,
                                "id": 2,
                                "order": 2
                            },
                            {
                                "children": [],
                                "depth": 1,
                                "id": 3,
                                "order": 3
                            },
                            {
                                "children": [],
                                "depth": 1,
                                "id": 4,
                                "order": 4
                            }
                        ],
                        "depth": 0,
                        "id": 0,
                        "order": 0
                    }
                ],
                "depth": -1,
                "id": -1,
                "order": -1
            }
        ],
        "tidyTraceNodeCount": 5
    },
    "state_change": {
        "stateChanges": [
            {
                "address": "0x048717ea892f23fb0126f00640e2b18072efd9d2",
                "erc": "",
                "slots": [
                    {
                        "current": "0x00000000000000000000000000000000000000000000000099c0ce0b9fd72c67",
                        "key": "0x000000000000000000000000000000000000000000000000000000000000000d",
                        "prev": "0x0000000000000000000000000000000000000000000000009ae864012d272c66"
                    },
                    {
                        "current": "0x0000000000000000000000000000000000000000000000000000000000000000",
                        "key": "0x13b1d3f2b35ddbe325b53eba33f71cfa76447753b8016da539daaa9916898d51",
                        "prev": "0x000000000000000000000000000000000000000000000000039bb49f599a0000"
                    },
                    {
                        "current": "0x00000000000000000000000062600d264c2f76b40469b6d55f357361b0229469",
                        "key": "0x9cab00b9e7e3245b077f727ae72560b7c6ce652e97c0fc8c62db64c980440e77",
                        "prev": "0x0000000000000000000000000000000000000000000000000000000000000000"
                    },
                    {
                        "current": "0x000000000000000000000000000000000000000000000000039bb49f599a0000",
                        "key": "0xc83ce192dd2a0150701debe7928e8f831abadcdc037a1d0515e02730ad748c60",
                        "prev": "0x0000000000000000000000000000000000000000000000000000000000000000"
                    },
                    {
                        "current": "0x0000000000000000000000000000000000000000000000000000000000042776",
                        "key": "0x000000000000000000000000000000000000000000000000000000000000000c",
                        "prev": "0x0000000000000000000000000000000000000000000000000000000000042775"
                    },
                    {
                        "current": "0x000000000000000000000000000000000000000000004863372f996f4343ea7f",
                        "key": "0x000000000000000000000000000000000000000000000000000000000000000f",
                        "prev": "0x0000000000000000000000000000000000000000000048633393e4cfe9a9ea7f"
                    },
                    {
                        "current": "0x00000000000000000000000000000000000000000000010345b22cf139b6b957",
                        "key": "0x0000000000000000000000000000000000000000000000000000000000000007",
                        "prev": "0x00000000000000000000000000000000000000000000010342167851e01cb958"
                    },
                    {
                        "current": "0x00000000000000000000000000000000000000000000000297bca968cfefe840",
                        "key": "0x0000000000000000000000000000000000000000000000000000000000000009",
                        "prev": "0x00000000000000000000000000000000000000000000000297b36cb923856840"
                    },
                    {
                        "current": "0x0000000000000000000000000000000000000000000000000000000000000000",
                        "key": "0xb46e229164aed030f7f0b290afdcef842eee64038a5a5231daa0d7b1799fb59b",
                        "prev": "0x00000000000000000000000062600d264c2f76b40469b6d55f357361b0229469"
                    },
                    {
                        "current": "0x000000000000000000000000000000000000000000000000012795f58d4fffff",
                        "key": "0x6d5ebd0e499fd8a4bc9e63ae33dfe83a94e368dcf393bbf7386b339ed5cfcbbc",
                        "prev": "0x0000000000000000000000000000000000000000000000000000000000000000"
                    },
                    {
                        "current": "0x0000000000000000000000000000000000000000000000000000000000000058",
                        "key": "0x732c14a8813f5c623f73d681efd08aeca31bf2e236d4b7a788f487ead000c71b",
                        "prev": "0x0000000000000000000000000000000000000000000000000000000000000000"
                    },
                    {
                        "current": "0x0000000000000000000000000000000000000000000000000000000000000000",
                        "key": "0x754dd0a372b44794acf14c0d1a1a198713b1a7a3faf6e2eb2e3901b3e8746298",
                        "prev": "0x000000000000000000000000000000000000000000000000012795f58d4fffff"
                    }
                ],
                "storageVariables": [
                    {
                        "name": "playerBetValue",
                        "type": "mapping(bytes32 => uint256)",
                        "value": {
                            "pairs": [
                                {
                                    "key": "0xae255d89c78b0c56000b9282ed229b8a1df475184a8aef289178b3c3cbed3e45",
                                    "value": {
                                        "current": "0",
                                        "prev": "260000000000000000",
                                        "typeTag": 1
                                    }
                                }
                            ],
                            "typeTag": 4
                        }
                    },
                    {
                        "name": "playerAddress",
                        "type": "mapping(bytes32 => address)",
                        "value": {
                            "pairs": [
                                {
                                    "key": "0xae255d89c78b0c56000b9282ed229b8a1df475184a8aef289178b3c3cbed3e45",
                                    "value": {
                                        "current": "0x0000000000000000000000000000000000000000",
                                        "prev": "0x62600d264c2f76b40469b6d55f357361b0229469",
                                        "typeTag": 1
                                    }
                                }
                            ],
                            "typeTag": 4
                        }
                    },
                    {
                        "name": "playerProfit",
                        "type": "mapping(bytes32 => uint256)",
                        "value": {
                            "pairs": [
                                {
                                    "key": "0xae255d89c78b0c56000b9282ed229b8a1df475184a8aef289178b3c3cbed3e45",
                                    "value": {
                                        "current": "0",
                                        "prev": "83199999999999999",
                                        "typeTag": 1
                                    }
                                }
                            ],
                            "typeTag": 4
                        }
                    },
                    {
                        "name": "totalWeiWagered",
                        "type": "uint256",
                        "value": {
                            "current": "341840590995610841377407",
                            "prev": "341840330995610841377407",
                            "typeTag": 1
                        }
                    },
                    {
                        "name": "contractBalance",
                        "type": "uint256",
                        "value": {
                            "current": "4782728841039812409687",
                            "prev": "4782468841039812409688",
                            "typeTag": 1
                        }
                    },
                    {
                        "name": "playerTempReward",
                        "type": "mapping(bytes32 => uint256)",
                        "value": {
                            "pairs": [
                                {
                                    "key": "0xae255d89c78b0c56000b9282ed229b8a1df475184a8aef289178b3c3cbed3e45",
                                    "value": {
                                        "current": "83199999999999999",
                                        "prev": "0",
                                        "typeTag": 1
                                    }
                                }
                            ],
                            "typeTag": 4
                        }
                    },
                    {
                        "name": "playerDieResult",
                        "type": "mapping(bytes32 => uint256)",
                        "value": {
                            "pairs": [
                                {
                                    "key": "0xae255d89c78b0c56000b9282ed229b8a1df475184a8aef289178b3c3cbed3e45",
                                    "value": {
                                        "current": "88",
                                        "prev": "0",
                                        "typeTag": 1
                                    }
                                }
                            ],
                            "typeTag": 4
                        }
                    },
                    {
                        "name": "playerTempAddress",
                        "type": "mapping(bytes32 => address)",
                        "value": {
                            "pairs": [
                                {
                                    "key": "0xae255d89c78b0c56000b9282ed229b8a1df475184a8aef289178b3c3cbed3e45",
                                    "value": {
                                        "current": "0x62600d264c2f76b40469b6d55f357361b0229469",
                                        "prev": "0x0000000000000000000000000000000000000000",
                                        "typeTag": 1
                                    }
                                }
                            ],
                            "typeTag": 4
                        }
                    },
                    {
                        "name": "totalBets",
                        "type": "uint256",
                        "value": {
                            "current": "272246",
                            "prev": "272245",
                            "typeTag": 1
                        }
                    },
                    {
                        "name": "maxProfit",
                        "type": "uint256",
                        "value": {
                            "current": "47827288410398124096",
                            "prev": "47824688410398124096",
                            "typeTag": 1
                        }
                    },
                    {
                        "name": "playerTempBetValue",
                        "type": "mapping(bytes32 => uint256)",
                        "value": {
                            "pairs": [
                                {
                                    "key": "0xae255d89c78b0c56000b9282ed229b8a1df475184a8aef289178b3c3cbed3e45",
                                    "value": {
                                        "current": "260000000000000000",
                                        "prev": "0",
                                        "typeTag": 1
                                    }
                                }
                            ],
                            "typeTag": 4
                        }
                    },
                    {
                        "name": "maxPendingPayouts",
                        "type": "uint256",
                        "value": {
                            "current": "11079081632653061223",
                            "prev": "11162281632653061222",
                            "typeTag": 1
                        }
                    }
                ]
            }
        ]
    }
}