{
    "balance_change": {
        "balanceChanges": [
            {
                "account": "0x3bd7f90ffa412522b1b623720b60a9adbaa2ccb0",
                "assets": [
                    {
                        "address": "0x2520e62474ba3085693f856b3e93fa6c92a4ef48",
                        "amount": "1",
                        "iconUrl": "",
                        "isERC1155": false,
                        "isERC721": true,
                        "sign": false,
                        "tokenID": "4319",
                        "value": ""
                    }
                ]
            },
            {
                "account": "0xf849d90ce5ec2dbf40a644948d0c02e8b2aefaa3",
                "assets": [
                    {
                        "address": "0x2520e62474ba3085693f856b3e93fa6c92a4ef48",
                        "amount": "1",
                        "iconUrl": "",
                        "isERC1155": false,
                        "isERC721": true,
                        "sign": true,
                        "tokenID": "4319",
                        "value": ""
                    }
                ]
            }
        ]
    },
    "profile": {
        "basic_info": {
            "baseFee": "13.234773741",
            "blockNumber": 16274899,
            "callData": "0x42842e0e0000000000000000000000003bd7f90ffa412522b1b623720b60a9adbaa2ccb0000000000000000000000000f849d90ce5ec2dbf40a644948d0c02e8b2aefaa300000000000000000000000000000000000000000000000000000000000010df",
            "debugEnable": true,
            "errorInfo": "",
            "eventCount": 2,
            "feeRecipient": "0xdafea492d9c6733ae3d56b7ed1adb60692c98bc5",
            "formatValue": "0",
            "gasLimit": 98801,
            "gasPrice": "14.734773741",
            "gasUsed": 89201,
            "intTxnCount": 0,
            "internalRevert": false,
            "internalRevertMessage": "",
            "isContractCreation": false,
            "isFlashloan": false,
            "maxFee": "16.468053683",
            "nonce": 4,
            "overwritedBlockNumber": -1,
            "priorityFee": "1.5",
            "receiver": "0x2520e62474ba3085693f856b3e93fa6c92a4ef48",
            "revertMessage": "",
            "sender": "0x3bd7f90ffa412522b1b623720b60a9adbaa2ccb0",
            "simulationEnable": true,
            "sourceTxnHash": "0xc0a0d610ce305917fd7d62f9543575b57f68621ff2ea0d4a838fd7dd79e09c3f",
            "status": true,
            "timestamp": "2022-12-27T08:29:59Z",
            "transactionFee": "0.001314356552470941",
            "txnHash": "0xc0a0d610ce305917fd7d62f9543575b57f68621ff2ea0d4a838fd7dd79e09c3f",
            "txnIndex": 65,
            "type": 2,
            "value": "0"
        },
        "fund_flow": [
            {
                "amount": "1",
                "from": "0x3bd7f90ffa412522b1b623720b60a9adbaa2ccb0",
                "id": 1,
                "isERC1155": false,
                "isERC721": true,
                "isReverted": false,
                "order": 1,
                "to": "0xf849d90ce5ec2dbf40a644948d0c02e8b2aefaa3",
                "token": "0x2520e62474ba3085693f856b3e93fa6c92a4ef48",
                "tokenID": "4319"
            }
        ],
        "token_infos": [
            {
                "address": "0xeeeeeeeeeeeeeeeeeeeeeeeeeeeeeeeeeeeeeeee",
                "decimals": 18
            },
            {
                "address": "0xc02aaa39b223fe8d0a0e5c4f27ead9083c756cc2",
                "decimals": 18
            }
        ]
    },
    "address_label": {
        "labels": [
            {
                "address": "0x0000000000000000000000000000000000000003",
                "label": "Precompiled"
            },
            {
                "address": "0x0000000000000000000000000000000000000004",
                "label": "Precompiled"
            },
            {
                "address": "0xeeeeeeeeeeeeeeeeeeeeeeeeeeeeeeeeeeeeeeee",
                "label": "Ether"
            },
            {
                "address": "0x2520e62474ba3085693f856b3e93fa6c92a4ef48",
                "label": "We Are All the SA (WAATSA)"
            },
            {
                "address": "0x0000000000000000000000000000000000000001",
                "label": "Precompiled"
            },
            {
                "address": "0x0000000000000000000000000000000000000002",
                "label": "Precompiled"
            }
        ]
    },
    "trace": {
        "accountLabels": null,
        "dataMap": {
            "-1": {
                "invocation": {
                    "address": "0x3bd7f90ffa412522b1b623720b60a9adbaa2ccb0",
                    "callData": "",
                    "decodedMethod": null,
                    "errorInfo": "",
                    "fromAddress": "",
                    "gasUsed": 0,
                    "id": -1,
                    "methodDecoded": false,
                    "operation": "",
                    "output": "",
                    "revert": false,
                    "revertMessage": "",
                    "selector": "",
                    "status": false,
                    "value": ""
                },
                "nodeType": 0
            },
            "0": {
                "invocation": {
                    "address": "0x2520e62474ba3085693f856b3e93fa6c92a4ef48",
                    "callData": "0x0000000000000000000000003bd7f90ffa412522b1b623720b60a9adbaa2ccb0000000000000000000000000f849d90ce5ec2dbf40a644948d0c02e8b2aefaa300000000000000000000000000000000000000000000000000000000000010df",
                    "decodedMethod": {
                        "callParams": [
                            {
                                "name": "from",
                                "type": "address",
                                "value": "0x3bd7f90ffa412522b1b623720b60a9adbaa2ccb0"
                            },
                            {
                                "name": "to",
                                "type": "address",
                                "value": "0xf849d90ce5ec2dbf40a644948d0c02e8b2aefaa3"
                            },
                            {
                                "name": "tokenId",
                                "type": "uint256",
                                "value": "4,319"
                            }
                        ],
                        "constructorArguments": "",
                        "name": "safeTransferFrom",
                        "returnParams": [],
                        "signature": "safeTransferFrom(address,address,uint256)"
                    },
                    "errorInfo": "",
                    "fromAddress": "0x3bd7f90ffa412522b1b623720b60a9adbaa2ccb0",
                    "gasUsed": 89201,
                    "id": 0,
                    "methodDecoded": true,
                    "operation": "CALL",
                    "output": "",
                    "revert": false,
                    "revertMessage": "",
                    "selector": "0x42842e0e",
                    "status": true,
                    "value": "0"
                },
                "nodeType": 0
            },
            "1": {
                "event": {
                    "contract": "0x2520e62474ba3085693f856b3e93fa6c92a4ef48",
                    "decodedLog": {
                        "name": "Approval",
                        "params": [
                            {
                                "name": "owner",
                                "type": "address",
                                "value": "0x3bd7f90ffa412522b1b623720b60a9adbaa2ccb0"
                            },
                            {
                                "name": "approved",
                                "type": "address",
                                "value": "0x0000000000000000000000000000000000000000"
                            },
                            {
                                "decimalAvailable": true,
                                "name": "tokenId",
                                "type": "uint256",
                                "value": "4,319"
                            }
                        ],
                        "signature": "Approval(address,address,uint256)"
                    },
                    "id": 1,
                    "logData": "0x",
                    "logDecoded": true,
                    "operation": "EVENT",
                    "revert": false,
                    "status": true,
                    "topics": [
                        "0x8c5be1e5ebec7d5bd14f71427d1e84f3dd0314c0f7b2291e5b200ac8c7c3b925",
                        "0x0000000000000000000000003bd7f90ffa412522b1b623720b60a9adbaa2ccb0",
                        "0x0000000000000000000000000000000000000000000000000000000000000000",
                        "0x00000000000000000000000000000000000000000000000000000000000010df"
                    ]
                },
                "nodeType": 1
            },
            "2": {
                "event": {
                    "contract": "0x2520e62474ba3085693f856b3e93fa6c92a4ef48",
                    "decodedLog": {
                        "name": "Transfer",
                        "params": [
                            {
                                "name": "from",
                                "type": "address",
                                "value": "0x3bd7f90ffa412522b1b623720b60a9adbaa2ccb0"
                            },
                            {
                                "name": "to",
                                "type": "address",
                                "value": "0xf849d90ce5ec2dbf40a644948d0c02e8b2aefaa3"
                            },
                            {
                                "decimalAvailable": true,
                                "name": "tokenId",
                                "type": "uint256",
                                "value": "4,319"
                            }
                        ],
                        "signature": "Transfer(address,address,uint256)"
                    },
                    "id": 2,
                    "logData": "0x",
                    "logDecoded": true,
                    "operation": "EVENT",
                    "revert": false,
                    "status": true,
                    "topics": [
                        "0xddf252ad1be2c89b69c2b068fc378daa952ba7f163c4a11628f55a4df523b3ef",
                        "0x0000000000000000000000003bd7f90ffa412522b1b623720b60a9adbaa2ccb0",
                        "0x000000000000000000000000f849d90ce5ec2dbf40a644948d0c02e8b2aefaa3",
                        "0x00000000000000000000000000000000000000000000000000000000000010df"
                    ]
                },
                "nodeType": 1
            }
        },
        "gasFlame": [
            {
                "children": [
                    {
                        "children": [
                            {
                                "children": [],
                                "depth": 0,
                                "name": "Initial Gas",
                                "value": 21952
                            },
                            {
                                "children": [],
                                "depth": 0,
                                "name": "Executed Gas",
                                "value": 76849
                            }
                        ],
                        "depth": -1,
                        "name": "Actual Gas Used",
                        "value": 89201
                    },
                    {
                        "children": [],
                        "depth": -1,
                        "name": "Refunded Gas",
                        "value": 9600
                    }
                ],
                "depth": -2,
                "name": "Total Gas",
                "value": 98801
            }
        ],
        "isConfirmed": true,
        "mainTrace": [
            {
                "children": [
                    {
                        "children": [
                            {
                                "children": [],
                                "depth": 1,
                                "id": 1,
                                "order": 1
                            },
                            {
                                "children": [],
                                "depth": 1,
                                "id": 2,
                                "order": 2
                            }
                        ],
                        "depth": 0,
                        "id": 0,
                        "order": 0
                    }
                ],
                "depth": -1,
                "id": -1,
                "order": -1
            }
        ],
        "mainTraceNodeCount": 3,
        "parentIdMap": {
            "0": -1,
            "1": 0,
            "2": 0
        },
        "tidyTrace": [
            {
                "children": [
                    {
                        "children": [
                            {
                                "children": [],
                                "depth": 1,
                                "id": 1,
                                "order": 1
                            },
                            {
                                "children": [],
                                "depth": 1,
                                "id": 2,
                                "order": 2
                            }
                        ],
                        "depth": 0,
                        "id": 0,
                        "order": 0
                    }
                ],
                "depth": -1,
                "id": -1,
                "order": -1
            }
        ],
        "tidyTraceNodeCount": 3
    },
    "state_change": {
        "stateChanges": [
            {
                "address": "0x2520e62474ba3085693f856b3e93fa6c92a4ef48",
                "erc": "ERC-721",
                "slots": [
                    {
                        "current": "0x0000000000000000000000000000000000000000000000000000000000000004",
                        "key": "0x13afc42e2fab5e030f8d5ee6942e7be19a83418211b1337c785e7bc223c72095",
                        "prev": "0x0000000000000000000000000000000000000000000000000000000000000000"
                    },
                    {
                        "current": "0x0000000000000000000000000000000000000000000000000000000000000000",
                        "key": "0x637dc91cbb78c565e3cbcb0b6ac11d3d158eef93ab5253b32f76dc7eef35a274",
                        "prev": "0x0000000000000000000000000000000000000000000000000000000000000001"
                    },
                    {
                        "current": "0x0000000000000000000000000000000000000000000000000000000000000005",
                        "key": "0x8455d7be0f550dcfe2e906fbb7ca84a400a9bcd5c490401af3254f54f8cfcc25",
                        "prev": "0x0000000000000000000000000000000000000000000000000000000000000004"
                    },
                    {
                        "current": "0x000000000000000000000000f849d90ce5ec2dbf40a644948d0c02e8b2aefaa3",
                        "key": "0xa9728f30b04c70069f15635ca6ecd38f3cbbc8252cea7e5e3830a4feadf50b75",
                        "prev": "0x0000000000000000000000003bd7f90ffa412522b1b623720b60a9adbaa2ccb0"
                    },
                    {
                        "current": "0x0000000000000000000000000000000000000000000000000000000000000000",
                        "key": "0x418eb36719c6e345765ad64bafc08e22d3a2d900128b776946a99dc8ab22eae5",
                        "prev": "0x00000000000000000000000000000000000000000000000000000000000010df"
                    },
                    {
                        "current": "0x00000000000000000000000000000000000000000000000000000000000010df",
                        "key": "0x87e5f5347d9741b68866ae370e199e9a11b9f199569238eb644a7110b9495cfb",
                        "prev": "0x0000000000000000000000000000000000000000000000000000000000000000"
                    }
                ],
                "storageVariables": [
                    {
                        "name": "_ownedTokensIndex",
                        "type": "mapping(uint256 => uint256)",
                        "value": {
                            "pairs": [
                                {
                                    "key": "4319",
                                    "value": {
                                        "current": "4",
                                        "prev": "0",
                                        "typeTag": 1
                                    }
                                }
                            ],
                            "typeTag": 4
                        }
                    },
                    {
                        "name": "_balances",
                        "type": "mapping(address => uint256)",
                        "value": {
                            "pairs": [
                                {
                                    "key": "0x3bd7f90ffa412522b1b623720b60a9adbaa2ccb0",
                                    "value": {
                                        "current": "0",
                                        "prev": "1",
                                        "typeTag": 1
                                    }
                                },
                                {
                                    "key": "0xf849d90ce5ec2dbf40a644948d0c02e8b2aefaa3",
                                    "value": {
                                        "current": "5",
                                        "prev": "4",
                                        "typeTag": 1
                                    }
                                }
                            ],
                            "typeTag": 4
                        }
                    },
                    {
                        "name": "_owners",
                        "type": "mapping(uint256 => address)",
                        "value": {
                            "pairs": [
                                {
                                    "key": "4319",
                                    "value": {
                                        "current": "0xf849d90ce5ec2dbf40a644948d0c02e8b2aefaa3",
                                        "prev": "0x3bd7f90ffa412522b1b623720b60a9adbaa2ccb0",
                                        "typeTag": 1
                                    }
                                }
                            ],
                            "typeTag": 4
                        }
                    },
                    {
                        "name": "_ownedTokens",
                        "type": "mapping(address => mapping(uint256 => uint256))",
                        "value": {
                            "pairs": [
                                {
                                    "key": "0x3bd7f90ffa412522b1b623720b60a9adbaa2ccb0",
                                    "value": {
                                        "pairs": [
                                            {
                                                "key": "0",
                                                "value": {
                                                    "current": "0",
                                                    "prev": "4319",
                                                    "typeTag": 1
                                                }
                                            }
                                        ],
                                        "typeTag": 4
                                    }
                                },
                                {
                                    "key": "0xf849d90ce5ec2dbf40a644948d0c02e8b2aefaa3",
                                    "value": {
                                        "pairs": [
                                            {
                                                "key": "4",
                                                "value": {
                                                    "current": "4319",
                                                    "prev": "0",
                                                    "typeTag": 1
                                                }
                                            }
                                        ],
                                        "typeTag": 4
                                    }
                                }
                            ],
                            "typeTag": 4
                        }
                    }
                ]
            }
        ]
    }
}