{
    "balance_change": {
        "balanceChanges": []
    },
    "profile": {
        "basic_info": {
            "baseFee": "111.805262585",
            "blockNumber": 13825841,
            "callData": "0xc9807539000000000000000000000000000000000000000000000000000000000000008000000000000000000000000000000000000000000000000000000000000003200000000000000000000000000000000000000000000000000000000000000400000100000101000000000000000000000000000000000000000000000000000000000000000000000000000000000000000000000000000000000000000002800000000000000000000000b3bb74daa7336aa8a6de9ef17716153e00014255060907060305040e0c020d00080a010f0b0000000000000000000000000000000000000000000000000000000000000000000000000000000000000000000000600000000000000000000000000000000000000000000000000000000000000010000000000000000000000000000000000000000000000000000002ffcae38d7b00000000000000000000000000000000000000000000000000000300055dbf7d0000000000000000000000000000000000000000000000000000030051c32df70000000000000000000000000000000000000000000000000000030051c32df700000000000000000000000000000000000000000000000000000300569ccd0000000000000000000000000000000000000000000000000000000300715a12c1000000000000000000000000000000000000000000000000000003009ebbef800000000000000000000000000000000000000000000000000000030188b45bcc00000000000000000000000000000000000000000000000000000302d2de3c6e00000000000000000000000000000000000000000000000000000304249bac670000000000000000000000000000000000000000000000000000030613ca4b9600000000000000000000000000000000000000000000000000000307193108640000000000000000000000000000000000000000000000000000030719310864000000000000000000000000000000000000000000000000000003071931086400000000000000000000000000000000000000000000000000000309d1a082a60000000000000000000000000000000000000000000000000000030a6449991d0000000000000000000000000000000000000000000000000000000000000006088950085f79637a710ed96f6916c7543a31cbf251e999d56b554bd57fe049ad5bf14aadb53405905f09543ec384787a6b36be7d72785f972ce1d3d5ef6572cf36524860ba9860ad2c9fc7e5b956120b4fea12e16f93a5ca2b45f8ebed84d0aa0b0859fdc590283827036e79c79489a1b7e9a993d25a123f00e592b7d79d655b06037d29028aaaf7877a1bc5bbc48bb8fa5b31b10f4ebf14e0e5de276b61be0a0a2d686eae5609265832ee971e0508f71e97f8075b7af5eced72d9ebb618f65400000000000000000000000000000000000000000000000000000000000000064d980174cc1d3163349c9f8ff45f1dd8c0b400bae987d58e476cca35876f7b0768582d9c356d05f6b519eec30e4d6d3bac4385d50662f082c21057c1e5862adf63ae29192f72f1a177ad7bbf4a270ec7be5eaa792b016b3c654321db005347d7675f3dc743a1eea39ddb5db23a4c9b1047f8d0ba7196dd4adb24238b7d7ffd29752b988dd4708ee95a0af38eb9f3254e0d616060ff287b1b2d0aaccdd08e82d3640354564dade58281ebf8c10fddcf0dba91f2dd0d558c50b4e58bd780ac08a7",
            "debugEnable": true,
            "errorInfo": "",
            "eventCount": 11,
            "feeRecipient": "0xea674fdde714fd979de3edf0f56aa9716b898ec8",
            "formatValue": "0",
            "gasLimit": 500000,
            "gasPrice": "116.181298296",
            "gasUsed": 328731,
            "intTxnCount": 21,
            "internalRevert": false,
            "internalRevertMessage": "",
            "isContractCreation": false,
            "isFlashloan": false,
            "maxFee": "",
            "nonce": 44329,
            "overwritedBlockNumber": -1,
            "priorityFee": "",
            "receiver": "0x8a4d74003870064d41d4f84940550911fbfccf04",
            "revertMessage": "",
            "sender": "0x3c4ad65f5b4884397e1f09596c7ac7f8f95b3ff3",
            "simulationEnable": true,
            "sourceTxnHash": "0xc0fe96027cd4512fa0fa259b0056431855b41a6979e736019bc30c29766d659c",
            "status": true,
            "timestamp": "2021-12-18T00:26:14Z",
            "transactionFee": "0.038192394370142376",
            "txnHash": "0xc0fe96027cd4512fa0fa259b0056431855b41a6979e736019bc30c29766d659c",
            "txnIndex": 13,
            "type": 0,
            "value": "0"
        },
        "fund_flow": [],
        "token_infos": [
            {
                "address": "0xc02aaa39b223fe8d0a0e5c4f27ead9083c756cc2",
                "decimals": 18
            },
            {
                "address": "0xeeeeeeeeeeeeeeeeeeeeeeeeeeeeeeeeeeeeeeee",
                "decimals": 18
            }
        ]
    },
    "address_label": {
        "labels": [
            {
                "address": "0x0000000000000000000000000000000000000002",
                "label": "Precompiled"
            },
            {
                "address": "0x8a4d74003870064d41d4f84940550911fbfccf04",
                "label": "AccessControlledOffchainAggregator"
            },
            {
                "address": "0xb4e16d0168e52d35cacd2c6185b44281ec28c9dc",
                "label": "Uniswap V2: USDC"
            },
            {
                "address": "0x046728da7cb8272284238bd3e47909823d63a58d",
                "label": "0x0467_UniswapAnchoredView"
            },
            {
                "address": "0x6d2299c48a8dd07a872fdd0f8233924872ad1071",
                "label": "0x6d22_UniswapAnchoredView"
            },
            {
                "address": "0x0000000000000000000000000000000000000001",
                "label": "Precompiled"
            },
            {
                "address": "0x0000000000000000000000000000000000000003",
                "label": "Precompiled"
            },
            {
                "address": "0x0000000000000000000000000000000000000004",
                "label": "Precompiled"
            },
            {
                "address": "0xeeeeeeeeeeeeeeeeeeeeeeeeeeeeeeeeeeeeeeee",
                "label": "Ether"
            },
            {
                "address": "0x2fdbadf3c4d5a8666bc06645b8358ab803996e28",
                "label": "Uniswap V2: YFI"
            },
            {
                "address": "0xba4319741782151d2b1df4799d757892efda4165",
                "label": "ValidatorProxy"
            }
        ]
    },
    "trace": {
        "accountLabels": null,
        "dataMap": {
            "-1": {
                "invocation": {
                    "address": "0x3c4ad65f5b4884397e1f09596c7ac7f8f95b3ff3",
                    "callData": "",
                    "decodedMethod": null,
                    "errorInfo": "",
                    "fromAddress": "",
                    "gasUsed": 0,
                    "id": -1,
                    "methodDecoded": false,
                    "operation": "",
                    "output": "",
                    "revert": false,
                    "revertMessage": "",
                    "selector": "",
                    "status": false,
                    "value": ""
                },
                "nodeType": 0
            },
            "0": {
                "invocation": {
                    "address": "0x8a4d74003870064d41d4f84940550911fbfccf04",
                    "callData": "0x000000000000000000000000000000000000000000000000000000000000008000000000000000000000000000000000000000000000000000000000000003200000000000000000000000000000000000000000000000000000000000000400000100000101000000000000000000000000000000000000000000000000000000000000000000000000000000000000000000000000000000000000000002800000000000000000000000b3bb74daa7336aa8a6de9ef17716153e00014255060907060305040e0c020d00080a010f0b0000000000000000000000000000000000000000000000000000000000000000000000000000000000000000000000600000000000000000000000000000000000000000000000000000000000000010000000000000000000000000000000000000000000000000000002ffcae38d7b00000000000000000000000000000000000000000000000000000300055dbf7d0000000000000000000000000000000000000000000000000000030051c32df70000000000000000000000000000000000000000000000000000030051c32df700000000000000000000000000000000000000000000000000000300569ccd0000000000000000000000000000000000000000000000000000000300715a12c1000000000000000000000000000000000000000000000000000003009ebbef800000000000000000000000000000000000000000000000000000030188b45bcc00000000000000000000000000000000000000000000000000000302d2de3c6e00000000000000000000000000000000000000000000000000000304249bac670000000000000000000000000000000000000000000000000000030613ca4b9600000000000000000000000000000000000000000000000000000307193108640000000000000000000000000000000000000000000000000000030719310864000000000000000000000000000000000000000000000000000003071931086400000000000000000000000000000000000000000000000000000309d1a082a60000000000000000000000000000000000000000000000000000030a6449991d0000000000000000000000000000000000000000000000000000000000000006088950085f79637a710ed96f6916c7543a31cbf251e999d56b554bd57fe049ad5bf14aadb53405905f09543ec384787a6b36be7d72785f972ce1d3d5ef6572cf36524860ba9860ad2c9fc7e5b956120b4fea12e16f93a5ca2b45f8ebed84d0aa0b0859fdc590283827036e79c79489a1b7e9a993d25a123f00e592b7d79d655b06037d29028aaaf7877a1bc5bbc48bb8fa5b31b10f4ebf14e0e5de276b61be0a0a2d686eae5609265832ee971e0508f71e97f8075b7af5eced72d9ebb618f65400000000000000000000000000000000000000000000000000000000000000064d980174cc1d3163349c9f8ff45f1dd8c0b400bae987d58e476cca35876f7b0768582d9c356d05f6b519eec30e4d6d3bac4385d50662f082c21057c1e5862adf63ae29192f72f1a177ad7bbf4a270ec7be5eaa792b016b3c654321db005347d7675f3dc743a1eea39ddb5db23a4c9b1047f8d0ba7196dd4adb24238b7d7ffd29752b988dd4708ee95a0af38eb9f3254e0d616060ff287b1b2d0aaccdd08e82d3640354564dade58281ebf8c10fddcf0dba91f2dd0d558c50b4e58bd780ac08a7",
                    "decodedMethod": {
                        "callParams": [
                            {
                                "name": "_report",
                                "type": "bytes",
                                "value": "0x0000000000000000000000b3bb74daa7336aa8a6de9ef17716153e00014255060907060305040e0c020d00080a010f0b0000000000000000000000000000000000000000000000000000000000000000000000000000000000000000000000600000000000000000000000000000000000000000000000000000000000000010000000000000000000000000000000000000000000000000000002ffcae38d7b00000000000000000000000000000000000000000000000000000300055dbf7d0000000000000000000000000000000000000000000000000000030051c32df70000000000000000000000000000000000000000000000000000030051c32df700000000000000000000000000000000000000000000000000000300569ccd0000000000000000000000000000000000000000000000000000000300715a12c1000000000000000000000000000000000000000000000000000003009ebbef800000000000000000000000000000000000000000000000000000030188b45bcc00000000000000000000000000000000000000000000000000000302d2de3c6e00000000000000000000000000000000000000000000000000000304249bac670000000000000000000000000000000000000000000000000000030613ca4b9600000000000000000000000000000000000000000000000000000307193108640000000000000000000000000000000000000000000000000000030719310864000000000000000000000000000000000000000000000000000003071931086400000000000000000000000000000000000000000000000000000309d1a082a60000000000000000000000000000000000000000000000000000030a6449991d"
                            },
                            {
                                "name": "_rs",
                                "type": "bytes32[]",
                                "value": [
                                    "0x088950085f79637a710ed96f6916c7543a31cbf251e999d56b554bd57fe049ad",
                                    "0x5bf14aadb53405905f09543ec384787a6b36be7d72785f972ce1d3d5ef6572cf",
                                    "0x36524860ba9860ad2c9fc7e5b956120b4fea12e16f93a5ca2b45f8ebed84d0aa",
                                    "0x0b0859fdc590283827036e79c79489a1b7e9a993d25a123f00e592b7d79d655b",
                                    "0x06037d29028aaaf7877a1bc5bbc48bb8fa5b31b10f4ebf14e0e5de276b61be0a",
                                    "0x0a2d686eae5609265832ee971e0508f71e97f8075b7af5eced72d9ebb618f654"
                                ]
                            },
                            {
                                "name": "_ss",
                                "type": "bytes32[]",
                                "value": [
                                    "0x4d980174cc1d3163349c9f8ff45f1dd8c0b400bae987d58e476cca35876f7b07",
                                    "0x68582d9c356d05f6b519eec30e4d6d3bac4385d50662f082c21057c1e5862adf",
                                    "0x63ae29192f72f1a177ad7bbf4a270ec7be5eaa792b016b3c654321db005347d7",
                                    "0x675f3dc743a1eea39ddb5db23a4c9b1047f8d0ba7196dd4adb24238b7d7ffd29",
                                    "0x752b988dd4708ee95a0af38eb9f3254e0d616060ff287b1b2d0aaccdd08e82d3",
                                    "0x640354564dade58281ebf8c10fddcf0dba91f2dd0d558c50b4e58bd780ac08a7"
                                ]
                            },
                            {
                                "name": "_rawVs",
                                "type": "bytes32",
                                "value": "0x0001000001010000000000000000000000000000000000000000000000000000"
                            }
                        ],
                        "constructorArguments": "",
                        "name": "transmit",
                        "returnParams": [],
                        "signature": "transmit(bytes,bytes32[],bytes32[],bytes32)"
                    },
                    "errorInfo": "",
                    "fromAddress": "0x3c4ad65f5b4884397e1f09596c7ac7f8f95b3ff3",
                    "gasUsed": 328731,
                    "id": 0,
                    "methodDecoded": true,
                    "operation": "CALL",
                    "output": "",
                    "revert": false,
                    "revertMessage": "",
                    "selector": "0xc9807539",
                    "status": true,
                    "value": "0"
                },
                "nodeType": 0
            },
            "1": {
                "invocation": {
                    "address": "0x0000000000000000000000000000000000000001",
                    "callData": "0x0f82b75c7ec705b9b2ea51983d14fcba8d558d7c578c28fb8fcb30ee000000000000000000000000000000000000000000000000000000000000001b088950085f79637a710ed96f6916c7543a31cbf251e999d56b554bd57fe049ad4d980174cc1d3163349c9f8ff45f1dd8c0b400bae987d58e476cca35876f7b07",
                    "decodedMethod": {
                        "callParams": [
                            {
                                "name": "hash",
                                "type": "bytes32",
                                "value": "0xeacdab240f82b75c7ec705b9b2ea51983d14fcba8d558d7c578c28fb8fcb30ee"
                            },
                            {
                                "name": "v",
                                "type": "uint256",
                                "value": "27"
                            },
                            {
                                "name": "r",
                                "type": "bytes32",
                                "value": "0x088950085f79637a710ed96f6916c7543a31cbf251e999d56b554bd57fe049ad"
                            },
                            {
                                "name": "s",
                                "type": "bytes32",
                                "value": "0x4d980174cc1d3163349c9f8ff45f1dd8c0b400bae987d58e476cca35876f7b07"
                            }
                        ],
                        "constructorArguments": "",
                        "name": "ecrecover",
                        "returnParams": [
                            {
                                "name": "",
                                "type": "address",
                                "value": "0x03a67cd8467642a03d5ebd67f97157931d94fa32"
                            }
                        ],
                        "signature": "ecrecover(bytes32,uint256,bytes32,bytes32)"
                    },
                    "errorInfo": "",
                    "fromAddress": "0x8a4d74003870064d41d4f84940550911fbfccf04",
                    "gasUsed": 3000,
                    "id": 1,
                    "methodDecoded": true,
                    "operation": "STATICCALL",
                    "output": "0x00000000000000000000000003a67cd8467642a03d5ebd67f97157931d94fa32",
                    "revert": false,
                    "revertMessage": "",
                    "selector": "0xeacdab24",
                    "status": true,
                    "value": "0"
                },
                "nodeType": 0
            },
            "10": {
                "invocation": {
                    "address": "0xba4319741782151d2b1df4799d757892efda4165",
                    "callData": "0x00000000000000000000000000000000000000000000000000000000000014400000000000000000000000000000000000000000000000000000030b8e5b951b000000000000000000000000000000000000000000000000000000000000144100000000000000000000000000000000000000000000000000000302d2de3c6e",
                    "decodedMethod": {
                        "callParams": [
                            {
                                "name": "previousRoundId",
                                "type": "uint256",
                                "value": "5,184"
                            },
                            {
                                "name": "previousAnswer",
                                "type": "int256",
                                "value": "3,348,167,890,203"
                            },
                            {
                                "name": "currentRoundId",
                                "type": "uint256",
                                "value": "5,185"
                            },
                            {
                                "name": "currentAnswer",
                                "type": "int256",
                                "value": "3,310,662,597,742"
                            }
                        ],
                        "constructorArguments": "",
                        "name": "validate",
                        "returnParams": [
                            {
                                "name": "",
                                "type": "bool",
                                "value": true
                            }
                        ],
                        "signature": "validate(uint256,int256,uint256,int256)"
                    },
                    "errorInfo": "",
                    "fromAddress": "0x8a4d74003870064d41d4f84940550911fbfccf04",
                    "gasUsed": 146681,
                    "id": 10,
                    "methodDecoded": true,
                    "operation": "CALL",
                    "output": "0x0000000000000000000000000000000000000000000000000000000000000001",
                    "revert": false,
                    "revertMessage": "",
                    "selector": "0xbeed9b51",
                    "status": true,
                    "value": "0"
                },
                "nodeType": 0
            },
            "11": {
                "invocation": {
                    "address": "0x6d2299c48a8dd07a872fdd0f8233924872ad1071",
                    "callData": "0x00000000000000000000000000000000000000000000000000000000000014400000000000000000000000000000000000000000000000000000030b8e5b951b000000000000000000000000000000000000000000000000000000000000144100000000000000000000000000000000000000000000000000000302d2de3c6e",
                    "decodedMethod": {
                        "callParams": [
                            {
                                "name": "",
                                "type": "uint256",
                                "value": "5,184"
                            },
                            {
                                "name": "",
                                "type": "int256",
                                "value": "3,348,167,890,203"
                            },
                            {
                                "name": "",
                                "type": "uint256",
                                "value": "5,185"
                            },
                            {
                                "name": "currentAnswer",
                                "type": "int256",
                                "value": "3,310,662,597,742"
                            }
                        ],
                        "constructorArguments": "",
                        "name": "validate",
                        "returnParams": [
                            {
                                "name": "valid",
                                "type": "bool",
                                "value": true
                            }
                        ],
                        "signature": "validate(uint256,int256,uint256,int256)"
                    },
                    "errorInfo": "",
                    "fromAddress": "0xba4319741782151d2b1df4799d757892efda4165",
                    "gasUsed": 74865,
                    "id": 11,
                    "methodDecoded": true,
                    "operation": "CALL",
                    "output": "0x0000000000000000000000000000000000000000000000000000000000000001",
                    "revert": false,
                    "revertMessage": "",
                    "selector": "0xbeed9b51",
                    "status": true,
                    "value": "0"
                },
                "nodeType": 0
            },
            "12": {
                "invocation": {
                    "address": "0xb4e16d0168e52d35cacd2c6185b44281ec28c9dc",
                    "callData": "0x",
                    "decodedMethod": {
                        "callParams": [],
                        "constructorArguments": "",
                        "name": "price0CumulativeLast",
                        "returnParams": [
                            {
                                "name": "",
                                "type": "uint256",
                                "value": "398,109,499,112,470,436,061,455,633,593,771,138,575,993,742,527,830"
                            }
                        ],
                        "signature": "price0CumulativeLast()"
                    },
                    "errorInfo": "",
                    "fromAddress": "0x6d2299c48a8dd07a872fdd0f8233924872ad1071",
                    "gasUsed": 2387,
                    "id": 12,
                    "methodDecoded": true,
                    "operation": "STATICCALL",
                    "output": "0x00000000000000000000011065c75a067faacff972f82d9186a5e59855378d56",
                    "revert": false,
                    "revertMessage": "",
                    "selector": "0x5909c0d5",
                    "status": true,
                    "value": "0"
                },
                "nodeType": 0
            },
            "13": {
                "invocation": {
                    "address": "0xb4e16d0168e52d35cacd2c6185b44281ec28c9dc",
                    "callData": "0x",
                    "decodedMethod": {
                        "callParams": [],
                        "constructorArguments": "",
                        "name": "price1CumulativeLast",
                        "returnParams": [
                            {
                                "name": "",
                                "type": "uint256",
                                "value": "468,936,636,805,775,076,012,198,661,061,941"
                            }
                        ],
                        "signature": "price1CumulativeLast()"
                    },
                    "errorInfo": "",
                    "fromAddress": "0x6d2299c48a8dd07a872fdd0f8233924872ad1071",
                    "gasUsed": 2409,
                    "id": 13,
                    "methodDecoded": true,
                    "operation": "STATICCALL",
                    "output": "0x000000000000000000000000000000000000171ecffe7b475d63830f2ca5fd35",
                    "revert": false,
                    "revertMessage": "",
                    "selector": "0x5a3d5493",
                    "status": true,
                    "value": "0"
                },
                "nodeType": 0
            },
            "14": {
                "invocation": {
                    "address": "0xb4e16d0168e52d35cacd2c6185b44281ec28c9dc",
                    "callData": "0x",
                    "decodedMethod": {
                        "callParams": [],
                        "constructorArguments": "",
                        "name": "getReserves",
                        "returnParams": [
                            {
                                "name": "_reserve0",
                                "type": "uint112",
                                "value": "105,849,648,822,042"
                            },
                            {
                                "name": "_reserve1",
                                "type": "uint112",
                                "value": "27,472,536,177,495,603,410,251"
                            },
                            {
                                "name": "_blockTimestampLast",
                                "type": "uint32",
                                "value": "1,639,787,132"
                            }
                        ],
                        "signature": "getReserves()"
                    },
                    "errorInfo": "",
                    "fromAddress": "0x6d2299c48a8dd07a872fdd0f8233924872ad1071",
                    "gasUsed": 2504,
                    "id": 14,
                    "methodDecoded": true,
                    "operation": "STATICCALL",
                    "output": "0x000000000000000000000000000000000000000000000000000060450ab7b71a0000000000000000000000000000000000000000000005d14a0711b2853ff54b0000000000000000000000000000000000000000000000000000000061bd2a7c",
                    "revert": false,
                    "revertMessage": "",
                    "selector": "0x0902f1ac",
                    "status": true,
                    "value": "0"
                },
                "nodeType": 0
            },
            "15": {
                "event": {
                    "contract": "0x6d2299c48a8dd07a872fdd0f8233924872ad1071",
                    "decodedLog": {
                        "name": "UniswapWindowUpdated",
                        "params": [
                            {
                                "name": "symbolHash",
                                "type": "bytes32",
                                "value": "0xaaaebeba3810b1e6b70781f14b2d72c1cb89c0b2b320c43bb67ff79f562f5ff4"
                            },
                            {
                                "name": "oldTimestamp",
                                "type": "uint256",
                                "value": "1,639,785,259"
                            },
                            {
                                "name": "newTimestamp",
                                "type": "uint256",
                                "value": "1,639,787,174"
                            },
                            {
                                "name": "oldPrice",
                                "type": "uint256",
                                "value": "468,899,029,659,660,957,570,282,812,177,466"
                            },
                            {
                                "name": "newPrice",
                                "type": "uint256",
                                "value": "468,937,477,038,268,035,598,063,694,418,991"
                            }
                        ],
                        "signature": "UniswapWindowUpdated(bytes32,uint256,uint256,uint256,uint256)"
                    },
                    "id": 15,
                    "logData": "0x0000000000000000000000000000000000000000000000000000000061bd232b0000000000000000000000000000000000000000000000000000000061bd2aa6000000000000000000000000000000000000171e567a9453782dd1abe32d7c3a000000000000000000000000000000000000171ed2b5816e13e9ada182a2942f",
                    "logDecoded": true,
                    "operation": "EVENT",
                    "revert": false,
                    "status": true,
                    "topics": [
                        "0xe37d39315e3419c0937360f1ac88f2c52ecf67e3b22b367f82047ddb4591904a",
                        "0xaaaebeba3810b1e6b70781f14b2d72c1cb89c0b2b320c43bb67ff79f562f5ff4"
                    ]
                },
                "nodeType": 1
            },
            "16": {
                "event": {
                    "contract": "0x6d2299c48a8dd07a872fdd0f8233924872ad1071",
                    "decodedLog": {
                        "name": "AnchorPriceUpdated",
                        "params": [
                            {
                                "name": "symbolHash",
                                "type": "bytes32",
                                "value": "0xaaaebeba3810b1e6b70781f14b2d72c1cb89c0b2b320c43bb67ff79f562f5ff4"
                            },
                            {
                                "name": "anchorPrice",
                                "type": "uint256",
                                "value": "3,866,681,866"
                            },
                            {
                                "name": "oldTimestamp",
                                "type": "uint256",
                                "value": "1,639,785,259"
                            },
                            {
                                "name": "newTimestamp",
                                "type": "uint256",
                                "value": "1,639,787,174"
                            }
                        ],
                        "signature": "AnchorPriceUpdated(bytes32,uint256,uint256,uint256)"
                    },
                    "id": 16,
                    "logData": "0x00000000000000000000000000000000000000000000000000000000e678e20a0000000000000000000000000000000000000000000000000000000061bd232b0000000000000000000000000000000000000000000000000000000061bd2aa6",
                    "logDecoded": true,
                    "operation": "EVENT",
                    "revert": false,
                    "status": true,
                    "topics": [
                        "0xac9b6bb0c67df7ef0d18e58e4bd539c4d6f780c4c8f341cd8e649109edeb5faf",
                        "0xaaaebeba3810b1e6b70781f14b2d72c1cb89c0b2b320c43bb67ff79f562f5ff4"
                    ]
                },
                "nodeType": 1
            },
            "17": {
                "invocation": {
                    "address": "0x2fdbadf3c4d5a8666bc06645b8358ab803996e28",
                    "callData": "0x",
                    "decodedMethod": {
                        "callParams": [],
                        "constructorArguments": "",
                        "name": "price0CumulativeLast",
                        "returnParams": [
                            {
                                "name": "",
                                "type": "uint256",
                                "value": "5,545,209,772,128,855,718,810,668,073,016,887,851,037,704"
                            }
                        ],
                        "signature": "price0CumulativeLast()"
                    },
                    "errorInfo": "",
                    "fromAddress": "0x6d2299c48a8dd07a872fdd0f8233924872ad1071",
                    "gasUsed": 2387,
                    "id": 17,
                    "methodDecoded": true,
                    "operation": "STATICCALL",
                    "output": "0x00000000000000000000000000003fa7e82ace1f83fb4cd63327fd1094273408",
                    "revert": false,
                    "revertMessage": "",
                    "selector": "0x5909c0d5",
                    "status": true,
                    "value": "0"
                },
                "nodeType": 0
            },
            "18": {
                "invocation": {
                    "address": "0x2fdbadf3c4d5a8666bc06645b8358ab803996e28",
                    "callData": "0x",
                    "decodedMethod": {
                        "callParams": [],
                        "constructorArguments": "",
                        "name": "price1CumulativeLast",
                        "returnParams": [
                            {
                                "name": "",
                                "type": "uint256",
                                "value": "15,460,504,843,544,781,366,389,995,535,874,887,305,902"
                            }
                        ],
                        "signature": "price1CumulativeLast()"
                    },
                    "errorInfo": "",
                    "fromAddress": "0x6d2299c48a8dd07a872fdd0f8233924872ad1071",
                    "gasUsed": 2409,
                    "id": 18,
                    "methodDecoded": true,
                    "operation": "STATICCALL",
                    "output": "0x0000000000000000000000000000002d6f30ec60d7578bc7fe1d2d2e1884caae",
                    "revert": false,
                    "revertMessage": "",
                    "selector": "0x5a3d5493",
                    "status": true,
                    "value": "0"
                },
                "nodeType": 0
            },
            "19": {
                "invocation": {
                    "address": "0x2fdbadf3c4d5a8666bc06645b8358ab803996e28",
                    "callData": "0x",
                    "decodedMethod": {
                        "callParams": [],
                        "constructorArguments": "",
                        "name": "getReserves",
                        "returnParams": [
                            {
                                "name": "_reserve0",
                                "type": "uint112",
                                "value": "51,236,412,735,441,389,099"
                            },
                            {
                                "name": "_reserve1",
                                "type": "uint112",
                                "value": "440,662,990,735,485,715,031"
                            },
                            {
                                "name": "_blockTimestampLast",
                                "type": "uint32",
                                "value": "1,639,787,001"
                            }
                        ],
                        "signature": "getReserves()"
                    },
                    "errorInfo": "",
                    "fromAddress": "0x6d2299c48a8dd07a872fdd0f8233924872ad1071",
                    "gasUsed": 2504,
                    "id": 19,
                    "methodDecoded": true,
                    "operation": "STATICCALL",
                    "output": "0x000000000000000000000000000000000000000000000002c70c4debb548c62b000000000000000000000000000000000000000000000017e36d6f5761e042570000000000000000000000000000000000000000000000000000000061bd29f9",
                    "revert": false,
                    "revertMessage": "",
                    "selector": "0x0902f1ac",
                    "status": true,
                    "value": "0"
                },
                "nodeType": 0
            },
            "2": {
                "invocation": {
                    "address": "0x0000000000000000000000000000000000000001",
                    "callData": "0x0f82b75c7ec705b9b2ea51983d14fcba8d558d7c578c28fb8fcb30ee000000000000000000000000000000000000000000000000000000000000001c5bf14aadb53405905f09543ec384787a6b36be7d72785f972ce1d3d5ef6572cf68582d9c356d05f6b519eec30e4d6d3bac4385d50662f082c21057c1e5862adf",
                    "decodedMethod": {
                        "callParams": [
                            {
                                "name": "hash",
                                "type": "bytes32",
                                "value": "0xeacdab240f82b75c7ec705b9b2ea51983d14fcba8d558d7c578c28fb8fcb30ee"
                            },
                            {
                                "name": "v",
                                "type": "uint256",
                                "value": "28"
                            },
                            {
                                "name": "r",
                                "type": "bytes32",
                                "value": "0x5bf14aadb53405905f09543ec384787a6b36be7d72785f972ce1d3d5ef6572cf"
                            },
                            {
                                "name": "s",
                                "type": "bytes32",
                                "value": "0x68582d9c356d05f6b519eec30e4d6d3bac4385d50662f082c21057c1e5862adf"
                            }
                        ],
                        "constructorArguments": "",
                        "name": "ecrecover",
                        "returnParams": [
                            {
                                "name": "",
                                "type": "address",
                                "value": "0xbe15b23e9f03e3bb44c5e35549354649fb25b87b"
                            }
                        ],
                        "signature": "ecrecover(bytes32,uint256,bytes32,bytes32)"
                    },
                    "errorInfo": "",
                    "fromAddress": "0x8a4d74003870064d41d4f84940550911fbfccf04",
                    "gasUsed": 3000,
                    "id": 2,
                    "methodDecoded": true,
                    "operation": "STATICCALL",
                    "output": "0x000000000000000000000000be15b23e9f03e3bb44c5e35549354649fb25b87b",
                    "revert": false,
                    "revertMessage": "",
                    "selector": "0xeacdab24",
                    "status": true,
                    "value": "0"
                },
                "nodeType": 0
            },
            "20": {
                "event": {
                    "contract": "0x6d2299c48a8dd07a872fdd0f8233924872ad1071",
                    "decodedLog": {
                        "name": "AnchorPriceUpdated",
                        "params": [
                            {
                                "name": "symbolHash",
                                "type": "bytes32",
                                "value": "0xec34391362c28ee226b3b8624a699ee507a40fa771fd01d38b03ac7b70998bbe"
                            },
                            {
                                "name": "anchorPrice",
                                "type": "uint256",
                                "value": "33,461,337,896"
                            },
                            {
                                "name": "oldTimestamp",
                                "type": "uint256",
                                "value": "1,639,783,581"
                            },
                            {
                                "name": "newTimestamp",
                                "type": "uint256",
                                "value": "1,639,787,174"
                            }
                        ],
                        "signature": "AnchorPriceUpdated(bytes32,uint256,uint256,uint256)"
                    },
                    "id": 20,
                    "logData": "0x00000000000000000000000000000000000000000000000000000007ca737f280000000000000000000000000000000000000000000000000000000061bd1c9d0000000000000000000000000000000000000000000000000000000061bd2aa6",
                    "logDecoded": true,
                    "operation": "EVENT",
                    "revert": false,
                    "status": true,
                    "topics": [
                        "0xac9b6bb0c67df7ef0d18e58e4bd539c4d6f780c4c8f341cd8e649109edeb5faf",
                        "0xec34391362c28ee226b3b8624a699ee507a40fa771fd01d38b03ac7b70998bbe"
                    ]
                },
                "nodeType": 1
            },
            "21": {
                "event": {
                    "contract": "0x6d2299c48a8dd07a872fdd0f8233924872ad1071",
                    "decodedLog": {
                        "name": "PriceUpdated",
                        "params": [
                            {
                                "name": "symbolHash",
                                "type": "bytes32",
                                "value": "0xec34391362c28ee226b3b8624a699ee507a40fa771fd01d38b03ac7b70998bbe"
                            },
                            {
                                "name": "price",
                                "type": "uint256",
                                "value": "33,106,625,977"
                            }
                        ],
                        "signature": "PriceUpdated(bytes32,uint256)"
                    },
                    "id": 21,
                    "logData": "0x00000000000000000000000000000000000000000000000000000007b54f05b9",
                    "logDecoded": true,
                    "operation": "EVENT",
                    "revert": false,
                    "status": true,
                    "topics": [
                        "0x46eec4e0eeeef5830de3472bb39db7e52b1c809286dc87c4b85b20e003cc70c3",
                        "0xec34391362c28ee226b3b8624a699ee507a40fa771fd01d38b03ac7b70998bbe"
                    ]
                },
                "nodeType": 1
            },
            "22": {
                "invocation": {
                    "address": "0x046728da7cb8272284238bd3e47909823d63a58d",
                    "callData": "0x00000000000000000000000000000000000000000000000000000000000014400000000000000000000000000000000000000000000000000000030b8e5b951b000000000000000000000000000000000000000000000000000000000000144100000000000000000000000000000000000000000000000000000302d2de3c6e",
                    "decodedMethod": {
                        "callParams": [
                            {
                                "name": "",
                                "type": "uint256",
                                "value": "5,184"
                            },
                            {
                                "name": "",
                                "type": "int256",
                                "value": "3,348,167,890,203"
                            },
                            {
                                "name": "",
                                "type": "uint256",
                                "value": "5,185"
                            },
                            {
                                "name": "currentAnswer",
                                "type": "int256",
                                "value": "3,310,662,597,742"
                            }
                        ],
                        "constructorArguments": "",
                        "name": "validate",
                        "returnParams": [
                            {
                                "name": "valid",
                                "type": "bool",
                                "value": true
                            }
                        ],
                        "signature": "validate(uint256,int256,uint256,int256)"
                    },
                    "errorInfo": "",
                    "fromAddress": "0xba4319741782151d2b1df4799d757892efda4165",
                    "gasUsed": 57865,
                    "id": 22,
                    "methodDecoded": true,
                    "operation": "CALL",
                    "output": "0x0000000000000000000000000000000000000000000000000000000000000001",
                    "revert": false,
                    "revertMessage": "",
                    "selector": "0xbeed9b51",
                    "status": true,
                    "value": "0"
                },
                "nodeType": 0
            },
            "23": {
                "invocation": {
                    "address": "0xb4e16d0168e52d35cacd2c6185b44281ec28c9dc",
                    "callData": "0x",
                    "decodedMethod": {
                        "callParams": [],
                        "constructorArguments": "",
                        "name": "price0CumulativeLast",
                        "returnParams": [
                            {
                                "name": "",
                                "type": "uint256",
                                "value": "398,109,499,112,470,436,061,455,633,593,771,138,575,993,742,527,830"
                            }
                        ],
                        "signature": "price0CumulativeLast()"
                    },
                    "errorInfo": "",
                    "fromAddress": "0x046728da7cb8272284238bd3e47909823d63a58d",
                    "gasUsed": 387,
                    "id": 23,
                    "methodDecoded": true,
                    "operation": "STATICCALL",
                    "output": "0x00000000000000000000011065c75a067faacff972f82d9186a5e59855378d56",
                    "revert": false,
                    "revertMessage": "",
                    "selector": "0x5909c0d5",
                    "status": true,
                    "value": "0"
                },
                "nodeType": 0
            },
            "24": {
                "invocation": {
                    "address": "0xb4e16d0168e52d35cacd2c6185b44281ec28c9dc",
                    "callData": "0x",
                    "decodedMethod": {
                        "callParams": [],
                        "constructorArguments": "",
                        "name": "price1CumulativeLast",
                        "returnParams": [
                            {
                                "name": "",
                                "type": "uint256",
                                "value": "468,936,636,805,775,076,012,198,661,061,941"
                            }
                        ],
                        "signature": "price1CumulativeLast()"
                    },
                    "errorInfo": "",
                    "fromAddress": "0x046728da7cb8272284238bd3e47909823d63a58d",
                    "gasUsed": 409,
                    "id": 24,
                    "methodDecoded": true,
                    "operation": "STATICCALL",
                    "output": "0x000000000000000000000000000000000000171ecffe7b475d63830f2ca5fd35",
                    "revert": false,
                    "revertMessage": "",
                    "selector": "0x5a3d5493",
                    "status": true,
                    "value": "0"
                },
                "nodeType": 0
            },
            "25": {
                "invocation": {
                    "address": "0xb4e16d0168e52d35cacd2c6185b44281ec28c9dc",
                    "callData": "0x",
                    "decodedMethod": {
                        "callParams": [],
                        "constructorArguments": "",
                        "name": "getReserves",
                        "returnParams": [
                            {
                                "name": "_reserve0",
                                "type": "uint112",
                                "value": "105,849,648,822,042"
                            },
                            {
                                "name": "_reserve1",
                                "type": "uint112",
                                "value": "27,472,536,177,495,603,410,251"
                            },
                            {
                                "name": "_blockTimestampLast",
                                "type": "uint32",
                                "value": "1,639,787,132"
                            }
                        ],
                        "signature": "getReserves()"
                    },
                    "errorInfo": "",
                    "fromAddress": "0x046728da7cb8272284238bd3e47909823d63a58d",
                    "gasUsed": 504,
                    "id": 25,
                    "methodDecoded": true,
                    "operation": "STATICCALL",
                    "output": "0x000000000000000000000000000000000000000000000000000060450ab7b71a0000000000000000000000000000000000000000000005d14a0711b2853ff54b0000000000000000000000000000000000000000000000000000000061bd2a7c",
                    "revert": false,
                    "revertMessage": "",
                    "selector": "0x0902f1ac",
                    "status": true,
                    "value": "0"
                },
                "nodeType": 0
            },
            "26": {
                "event": {
                    "contract": "0x046728da7cb8272284238bd3e47909823d63a58d",
                    "decodedLog": {
                        "name": "UniswapWindowUpdated",
                        "params": [
                            {
                                "name": "symbolHash",
                                "type": "bytes32",
                                "value": "0xaaaebeba3810b1e6b70781f14b2d72c1cb89c0b2b320c43bb67ff79f562f5ff4"
                            },
                            {
                                "name": "oldTimestamp",
                                "type": "uint256",
                                "value": "1,639,785,259"
                            },
                            {
                                "name": "newTimestamp",
                                "type": "uint256",
                                "value": "1,639,787,174"
                            },
                            {
                                "name": "oldPrice",
                                "type": "uint256",
                                "value": "468,899,029,659,660,957,570,282,812,177,466"
                            },
                            {
                                "name": "newPrice",
                                "type": "uint256",
                                "value": "468,937,477,038,268,035,598,063,694,418,991"
                            }
                        ],
                        "signature": "UniswapWindowUpdated(bytes32,uint256,uint256,uint256,uint256)"
                    },
                    "id": 26,
                    "logData": "0x0000000000000000000000000000000000000000000000000000000061bd232b0000000000000000000000000000000000000000000000000000000061bd2aa6000000000000000000000000000000000000171e567a9453782dd1abe32d7c3a000000000000000000000000000000000000171ed2b5816e13e9ada182a2942f",
                    "logDecoded": true,
                    "operation": "EVENT",
                    "revert": false,
                    "status": true,
                    "topics": [
                        "0xe37d39315e3419c0937360f1ac88f2c52ecf67e3b22b367f82047ddb4591904a",
                        "0xaaaebeba3810b1e6b70781f14b2d72c1cb89c0b2b320c43bb67ff79f562f5ff4"
                    ]
                },
                "nodeType": 1
            },
            "27": {
                "event": {
                    "contract": "0x046728da7cb8272284238bd3e47909823d63a58d",
                    "decodedLog": {
                        "name": "AnchorPriceUpdated",
                        "params": [
                            {
                                "name": "symbolHash",
                                "type": "bytes32",
                                "value": "0xaaaebeba3810b1e6b70781f14b2d72c1cb89c0b2b320c43bb67ff79f562f5ff4"
                            },
                            {
                                "name": "anchorPrice",
                                "type": "uint256",
                                "value": "3,866,681,866"
                            },
                            {
                                "name": "oldTimestamp",
                                "type": "uint256",
                                "value": "1,639,785,259"
                            },
                            {
                                "name": "newTimestamp",
                                "type": "uint256",
                                "value": "1,639,787,174"
                            }
                        ],
                        "signature": "AnchorPriceUpdated(bytes32,uint256,uint256,uint256)"
                    },
                    "id": 27,
                    "logData": "0x00000000000000000000000000000000000000000000000000000000e678e20a0000000000000000000000000000000000000000000000000000000061bd232b0000000000000000000000000000000000000000000000000000000061bd2aa6",
                    "logDecoded": true,
                    "operation": "EVENT",
                    "revert": false,
                    "status": true,
                    "topics": [
                        "0xac9b6bb0c67df7ef0d18e58e4bd539c4d6f780c4c8f341cd8e649109edeb5faf",
                        "0xaaaebeba3810b1e6b70781f14b2d72c1cb89c0b2b320c43bb67ff79f562f5ff4"
                    ]
                },
                "nodeType": 1
            },
            "28": {
                "invocation": {
                    "address": "0x2fdbadf3c4d5a8666bc06645b8358ab803996e28",
                    "callData": "0x",
                    "decodedMethod": {
                        "callParams": [],
                        "constructorArguments": "",
                        "name": "price0CumulativeLast",
                        "returnParams": [
                            {
                                "name": "",
                                "type": "uint256",
                                "value": "5,545,209,772,128,855,718,810,668,073,016,887,851,037,704"
                            }
                        ],
                        "signature": "price0CumulativeLast()"
                    },
                    "errorInfo": "",
                    "fromAddress": "0x046728da7cb8272284238bd3e47909823d63a58d",
                    "gasUsed": 387,
                    "id": 28,
                    "methodDecoded": true,
                    "operation": "STATICCALL",
                    "output": "0x00000000000000000000000000003fa7e82ace1f83fb4cd63327fd1094273408",
                    "revert": false,
                    "revertMessage": "",
                    "selector": "0x5909c0d5",
                    "status": true,
                    "value": "0"
                },
                "nodeType": 0
            },
            "29": {
                "invocation": {
                    "address": "0x2fdbadf3c4d5a8666bc06645b8358ab803996e28",
                    "callData": "0x",
                    "decodedMethod": {
                        "callParams": [],
                        "constructorArguments": "",
                        "name": "price1CumulativeLast",
                        "returnParams": [
                            {
                                "name": "",
                                "type": "uint256",
                                "value": "15,460,504,843,544,781,366,389,995,535,874,887,305,902"
                            }
                        ],
                        "signature": "price1CumulativeLast()"
                    },
                    "errorInfo": "",
                    "fromAddress": "0x046728da7cb8272284238bd3e47909823d63a58d",
                    "gasUsed": 409,
                    "id": 29,
                    "methodDecoded": true,
                    "operation": "STATICCALL",
                    "output": "0x0000000000000000000000000000002d6f30ec60d7578bc7fe1d2d2e1884caae",
                    "revert": false,
                    "revertMessage": "",
                    "selector": "0x5a3d5493",
                    "status": true,
                    "value": "0"
                },
                "nodeType": 0
            },
            "3": {
                "invocation": {
                    "address": "0x0000000000000000000000000000000000000001",
                    "callData": "0x0f82b75c7ec705b9b2ea51983d14fcba8d558d7c578c28fb8fcb30ee000000000000000000000000000000000000000000000000000000000000001b36524860ba9860ad2c9fc7e5b956120b4fea12e16f93a5ca2b45f8ebed84d0aa63ae29192f72f1a177ad7bbf4a270ec7be5eaa792b016b3c654321db005347d7",
                    "decodedMethod": {
                        "callParams": [
                            {
                                "name": "hash",
                                "type": "bytes32",
                                "value": "0xeacdab240f82b75c7ec705b9b2ea51983d14fcba8d558d7c578c28fb8fcb30ee"
                            },
                            {
                                "name": "v",
                                "type": "uint256",
                                "value": "27"
                            },
                            {
                                "name": "r",
                                "type": "bytes32",
                                "value": "0x36524860ba9860ad2c9fc7e5b956120b4fea12e16f93a5ca2b45f8ebed84d0aa"
                            },
                            {
                                "name": "s",
                                "type": "bytes32",
                                "value": "0x63ae29192f72f1a177ad7bbf4a270ec7be5eaa792b016b3c654321db005347d7"
                            }
                        ],
                        "constructorArguments": "",
                        "name": "ecrecover",
                        "returnParams": [
                            {
                                "name": "",
                                "type": "address",
                                "value": "0x656fc633eb33cf5dad0bcea0e42cde85fb7a4ab8"
                            }
                        ],
                        "signature": "ecrecover(bytes32,uint256,bytes32,bytes32)"
                    },
                    "errorInfo": "",
                    "fromAddress": "0x8a4d74003870064d41d4f84940550911fbfccf04",
                    "gasUsed": 3000,
                    "id": 3,
                    "methodDecoded": true,
                    "operation": "STATICCALL",
                    "output": "0x000000000000000000000000656fc633eb33cf5dad0bcea0e42cde85fb7a4ab8",
                    "revert": false,
                    "revertMessage": "",
                    "selector": "0xeacdab24",
                    "status": true,
                    "value": "0"
                },
                "nodeType": 0
            },
            "30": {
                "invocation": {
                    "address": "0x2fdbadf3c4d5a8666bc06645b8358ab803996e28",
                    "callData": "0x",
                    "decodedMethod": {
                        "callParams": [],
                        "constructorArguments": "",
                        "name": "getReserves",
                        "returnParams": [
                            {
                                "name": "_reserve0",
                                "type": "uint112",
                                "value": "51,236,412,735,441,389,099"
                            },
                            {
                                "name": "_reserve1",
                                "type": "uint112",
                                "value": "440,662,990,735,485,715,031"
                            },
                            {
                                "name": "_blockTimestampLast",
                                "type": "uint32",
                                "value": "1,639,787,001"
                            }
                        ],
                        "signature": "getReserves()"
                    },
                    "errorInfo": "",
                    "fromAddress": "0x046728da7cb8272284238bd3e47909823d63a58d",
                    "gasUsed": 504,
                    "id": 30,
                    "methodDecoded": true,
                    "operation": "STATICCALL",
                    "output": "0x000000000000000000000000000000000000000000000002c70c4debb548c62b000000000000000000000000000000000000000000000017e36d6f5761e042570000000000000000000000000000000000000000000000000000000061bd29f9",
                    "revert": false,
                    "revertMessage": "",
                    "selector": "0x0902f1ac",
                    "status": true,
                    "value": "0"
                },
                "nodeType": 0
            },
            "31": {
                "event": {
                    "contract": "0x046728da7cb8272284238bd3e47909823d63a58d",
                    "decodedLog": {
                        "name": "AnchorPriceUpdated",
                        "params": [
                            {
                                "name": "symbolHash",
                                "type": "bytes32",
                                "value": "0xec34391362c28ee226b3b8624a699ee507a40fa771fd01d38b03ac7b70998bbe"
                            },
                            {
                                "name": "anchorPrice",
                                "type": "uint256",
                                "value": "33,461,337,896"
                            },
                            {
                                "name": "oldTimestamp",
                                "type": "uint256",
                                "value": "1,639,783,581"
                            },
                            {
                                "name": "newTimestamp",
                                "type": "uint256",
                                "value": "1,639,787,174"
                            }
                        ],
                        "signature": "AnchorPriceUpdated(bytes32,uint256,uint256,uint256)"
                    },
                    "id": 31,
                    "logData": "0x00000000000000000000000000000000000000000000000000000007ca737f280000000000000000000000000000000000000000000000000000000061bd1c9d0000000000000000000000000000000000000000000000000000000061bd2aa6",
                    "logDecoded": true,
                    "operation": "EVENT",
                    "revert": false,
                    "status": true,
                    "topics": [
                        "0xac9b6bb0c67df7ef0d18e58e4bd539c4d6f780c4c8f341cd8e649109edeb5faf",
                        "0xec34391362c28ee226b3b8624a699ee507a40fa771fd01d38b03ac7b70998bbe"
                    ]
                },
                "nodeType": 1
            },
            "32": {
                "event": {
                    "contract": "0x046728da7cb8272284238bd3e47909823d63a58d",
                    "decodedLog": {
                        "name": "PriceUpdated",
                        "params": [
                            {
                                "name": "symbolHash",
                                "type": "bytes32",
                                "value": "0xec34391362c28ee226b3b8624a699ee507a40fa771fd01d38b03ac7b70998bbe"
                            },
                            {
                                "name": "price",
                                "type": "uint256",
                                "value": "33,106,625,977"
                            }
                        ],
                        "signature": "PriceUpdated(bytes32,uint256)"
                    },
                    "id": 32,
                    "logData": "0x00000000000000000000000000000000000000000000000000000007b54f05b9",
                    "logDecoded": true,
                    "operation": "EVENT",
                    "revert": false,
                    "status": true,
                    "topics": [
                        "0x46eec4e0eeeef5830de3472bb39db7e52b1c809286dc87c4b85b20e003cc70c3",
                        "0xec34391362c28ee226b3b8624a699ee507a40fa771fd01d38b03ac7b70998bbe"
                    ]
                },
                "nodeType": 1
            },
            "4": {
                "invocation": {
                    "address": "0x0000000000000000000000000000000000000001",
                    "callData": "0x0f82b75c7ec705b9b2ea51983d14fcba8d558d7c578c28fb8fcb30ee000000000000000000000000000000000000000000000000000000000000001b0b0859fdc590283827036e79c79489a1b7e9a993d25a123f00e592b7d79d655b675f3dc743a1eea39ddb5db23a4c9b1047f8d0ba7196dd4adb24238b7d7ffd29",
                    "decodedMethod": {
                        "callParams": [
                            {
                                "name": "hash",
                                "type": "bytes32",
                                "value": "0xeacdab240f82b75c7ec705b9b2ea51983d14fcba8d558d7c578c28fb8fcb30ee"
                            },
                            {
                                "name": "v",
                                "type": "uint256",
                                "value": "27"
                            },
                            {
                                "name": "r",
                                "type": "bytes32",
                                "value": "0x0b0859fdc590283827036e79c79489a1b7e9a993d25a123f00e592b7d79d655b"
                            },
                            {
                                "name": "s",
                                "type": "bytes32",
                                "value": "0x675f3dc743a1eea39ddb5db23a4c9b1047f8d0ba7196dd4adb24238b7d7ffd29"
                            }
                        ],
                        "constructorArguments": "",
                        "name": "ecrecover",
                        "returnParams": [
                            {
                                "name": "",
                                "type": "address",
                                "value": "0xbd34530f411130fd7acb88b8251009a0829379aa"
                            }
                        ],
                        "signature": "ecrecover(bytes32,uint256,bytes32,bytes32)"
                    },
                    "errorInfo": "",
                    "fromAddress": "0x8a4d74003870064d41d4f84940550911fbfccf04",
                    "gasUsed": 3000,
                    "id": 4,
                    "methodDecoded": true,
                    "operation": "STATICCALL",
                    "output": "0x000000000000000000000000bd34530f411130fd7acb88b8251009a0829379aa",
                    "revert": false,
                    "revertMessage": "",
                    "selector": "0xeacdab24",
                    "status": true,
                    "value": "0"
                },
                "nodeType": 0
            },
            "5": {
                "invocation": {
                    "address": "0x0000000000000000000000000000000000000001",
                    "callData": "0x0f82b75c7ec705b9b2ea51983d14fcba8d558d7c578c28fb8fcb30ee000000000000000000000000000000000000000000000000000000000000001c06037d29028aaaf7877a1bc5bbc48bb8fa5b31b10f4ebf14e0e5de276b61be0a752b988dd4708ee95a0af38eb9f3254e0d616060ff287b1b2d0aaccdd08e82d3",
                    "decodedMethod": {
                        "callParams": [
                            {
                                "name": "hash",
                                "type": "bytes32",
                                "value": "0xeacdab240f82b75c7ec705b9b2ea51983d14fcba8d558d7c578c28fb8fcb30ee"
                            },
                            {
                                "name": "v",
                                "type": "uint256",
                                "value": "28"
                            },
                            {
                                "name": "r",
                                "type": "bytes32",
                                "value": "0x06037d29028aaaf7877a1bc5bbc48bb8fa5b31b10f4ebf14e0e5de276b61be0a"
                            },
                            {
                                "name": "s",
                                "type": "bytes32",
                                "value": "0x752b988dd4708ee95a0af38eb9f3254e0d616060ff287b1b2d0aaccdd08e82d3"
                            }
                        ],
                        "constructorArguments": "",
                        "name": "ecrecover",
                        "returnParams": [
                            {
                                "name": "",
                                "type": "address",
                                "value": "0x076b12d219a32613cd370ea9649a860114d3015e"
                            }
                        ],
                        "signature": "ecrecover(bytes32,uint256,bytes32,bytes32)"
                    },
                    "errorInfo": "",
                    "fromAddress": "0x8a4d74003870064d41d4f84940550911fbfccf04",
                    "gasUsed": 3000,
                    "id": 5,
                    "methodDecoded": true,
                    "operation": "STATICCALL",
                    "output": "0x000000000000000000000000076b12d219a32613cd370ea9649a860114d3015e",
                    "revert": false,
                    "revertMessage": "",
                    "selector": "0xeacdab24",
                    "status": true,
                    "value": "0"
                },
                "nodeType": 0
            },
            "6": {
                "invocation": {
                    "address": "0x0000000000000000000000000000000000000001",
                    "callData": "0x0f82b75c7ec705b9b2ea51983d14fcba8d558d7c578c28fb8fcb30ee000000000000000000000000000000000000000000000000000000000000001c0a2d686eae5609265832ee971e0508f71e97f8075b7af5eced72d9ebb618f654640354564dade58281ebf8c10fddcf0dba91f2dd0d558c50b4e58bd780ac08a7",
                    "decodedMethod": {
                        "callParams": [
                            {
                                "name": "hash",
                                "type": "bytes32",
                                "value": "0xeacdab240f82b75c7ec705b9b2ea51983d14fcba8d558d7c578c28fb8fcb30ee"
                            },
                            {
                                "name": "v",
                                "type": "uint256",
                                "value": "28"
                            },
                            {
                                "name": "r",
                                "type": "bytes32",
                                "value": "0x0a2d686eae5609265832ee971e0508f71e97f8075b7af5eced72d9ebb618f654"
                            },
                            {
                                "name": "s",
                                "type": "bytes32",
                                "value": "0x640354564dade58281ebf8c10fddcf0dba91f2dd0d558c50b4e58bd780ac08a7"
                            }
                        ],
                        "constructorArguments": "",
                        "name": "ecrecover",
                        "returnParams": [
                            {
                                "name": "",
                                "type": "address",
                                "value": "0xd3b9610534994aab2777d8af6c41d1e54f2ef33f"
                            }
                        ],
                        "signature": "ecrecover(bytes32,uint256,bytes32,bytes32)"
                    },
                    "errorInfo": "",
                    "fromAddress": "0x8a4d74003870064d41d4f84940550911fbfccf04",
                    "gasUsed": 3000,
                    "id": 6,
                    "methodDecoded": true,
                    "operation": "STATICCALL",
                    "output": "0x000000000000000000000000d3b9610534994aab2777d8af6c41d1e54f2ef33f",
                    "revert": false,
                    "revertMessage": "",
                    "selector": "0xeacdab24",
                    "status": true,
                    "value": "0"
                },
                "nodeType": 0
            },
            "7": {
                "event": {
                    "contract": "0x8a4d74003870064d41d4f84940550911fbfccf04",
                    "decodedLog": {
                        "name": "NewTransmission",
                        "params": [
                            {
                                "name": "aggregatorRoundId",
                                "type": "uint32",
                                "value": "5,185"
                            },
                            {
                                "name": "answer",
                                "type": "int192",
                                "value": "3,310,662,597,742"
                            },
                            {
                                "name": "transmitter",
                                "type": "address",
                                "value": "0x3c4ad65f5b4884397e1f09596c7ac7f8f95b3ff3"
                            },
                            {
                                "name": "observations",
                                "type": "int192[]",
                                "value": [
                                    "3,297,643,826,555",
                                    "3,298,624,913,277",
                                    "3,299,906,629,111",
                                    "3,299,906,629,111",
                                    "3,299,988,000,000",
                                    "3,300,436,611,777",
                                    "3,301,198,000,000",
                                    "3,305,123,371,980",
                                    "3,310,662,597,742",
                                    "3,316,328,934,503",
                                    "3,324,636,711,830",
                                    "3,329,022,298,212",
                                    "3,329,022,298,212",
                                    "3,329,022,298,212",
                                    "3,340,706,546,342",
                                    "3,343,167,101,213"
                                ]
                            },
                            {
                                "name": "observers",
                                "type": "bytes",
                                "value": "0x0907060305040e0c020d00080a010f0b"
                            },
                            {
                                "name": "rawReportContext",
                                "type": "bytes32",
                                "value": "0x0000000000000000000000b3bb74daa7336aa8a6de9ef17716153e0001425506"
                            }
                        ],
                        "signature": "NewTransmission(uint32,int192,address,int192[],bytes,bytes32)"
                    },
                    "id": 7,
                    "logData": "0x00000000000000000000000000000000000000000000000000000302d2de3c6e0000000000000000000000003c4ad65f5b4884397e1f09596c7ac7f8f95b3ff300000000000000000000000000000000000000000000000000000000000000a000000000000000000000000000000000000000000000000000000000000002c00000000000000000000000b3bb74daa7336aa8a6de9ef17716153e00014255060000000000000000000000000000000000000000000000000000000000000010000000000000000000000000000000000000000000000000000002ffcae38d7b00000000000000000000000000000000000000000000000000000300055dbf7d0000000000000000000000000000000000000000000000000000030051c32df70000000000000000000000000000000000000000000000000000030051c32df700000000000000000000000000000000000000000000000000000300569ccd0000000000000000000000000000000000000000000000000000000300715a12c1000000000000000000000000000000000000000000000000000003009ebbef800000000000000000000000000000000000000000000000000000030188b45bcc00000000000000000000000000000000000000000000000000000302d2de3c6e00000000000000000000000000000000000000000000000000000304249bac670000000000000000000000000000000000000000000000000000030613ca4b9600000000000000000000000000000000000000000000000000000307193108640000000000000000000000000000000000000000000000000000030719310864000000000000000000000000000000000000000000000000000003071931086400000000000000000000000000000000000000000000000000000309d1a082a60000000000000000000000000000000000000000000000000000030a6449991d00000000000000000000000000000000000000000000000000000000000000100907060305040e0c020d00080a010f0b00000000000000000000000000000000",
                    "logDecoded": true,
                    "operation": "EVENT",
                    "revert": false,
                    "status": true,
                    "topics": [
                        "0xf6a97944f31ea060dfde0566e4167c1a1082551e64b60ecb14d599a9d023d451",
                        "0x0000000000000000000000000000000000000000000000000000000000001441"
                    ]
                },
                "nodeType": 1
            },
            "8": {
                "event": {
                    "contract": "0x8a4d74003870064d41d4f84940550911fbfccf04",
                    "decodedLog": {
                        "name": "NewRound",
                        "params": [
                            {
                                "name": "roundId",
                                "type": "uint256",
                                "value": "5,185"
                            },
                            {
                                "name": "startedBy",
                                "type": "address",
                                "value": "0x0000000000000000000000000000000000000000"
                            },
                            {
                                "name": "startedAt",
                                "type": "uint256",
                                "value": "1,639,787,174"
                            }
                        ],
                        "signature": "NewRound(uint256,address,uint256)"
                    },
                    "id": 8,
                    "logData": "0x0000000000000000000000000000000000000000000000000000000061bd2aa6",
                    "logDecoded": true,
                    "operation": "EVENT",
                    "revert": false,
                    "status": true,
                    "topics": [
                        "0x0109fc6f55cf40689f02fbaad7af7fe7bbac8a3d2186600afc7d3e10cac60271",
                        "0x0000000000000000000000000000000000000000000000000000000000001441",
                        "0x0000000000000000000000000000000000000000000000000000000000000000"
                    ]
                },
                "nodeType": 1
            },
            "9": {
                "event": {
                    "contract": "0x8a4d74003870064d41d4f84940550911fbfccf04",
                    "decodedLog": {
                        "name": "AnswerUpdated",
                        "params": [
                            {
                                "name": "current",
                                "type": "int256",
                                "value": "3,310,662,597,742"
                            },
                            {
                                "name": "roundId",
                                "type": "uint256",
                                "value": "5,185"
                            },
                            {
                                "name": "updatedAt",
                                "type": "uint256",
                                "value": "1,639,787,174"
                            }
                        ],
                        "signature": "AnswerUpdated(int256,uint256,uint256)"
                    },
                    "id": 9,
                    "logData": "0x0000000000000000000000000000000000000000000000000000000061bd2aa6",
                    "logDecoded": true,
                    "operation": "EVENT",
                    "revert": false,
                    "status": true,
                    "topics": [
                        "0x0559884fd3a460db3073b7fc896cc77986f16e378210ded43186175bf646fc5f",
                        "0x00000000000000000000000000000000000000000000000000000302d2de3c6e",
                        "0x0000000000000000000000000000000000000000000000000000000000001441"
                    ]
                },
                "nodeType": 1
            }
        },
        "gasFlame": [
            {
                "children": [
                    {
                        "children": [
                            {
                                "children": [],
                                "depth": 0,
                                "name": "Initial Gas",
                                "value": 32272
                            },
                            {
                                "children": [
                                    {
                                        "children": [],
                                        "depth": 1,
                                        "name": "ecrecover",
                                        "value": 3000
                                    },
                                    {
                                        "children": [],
                                        "depth": 1,
                                        "name": "ecrecover",
                                        "value": 3000
                                    },
                                    {
                                        "children": [],
                                        "depth": 1,
                                        "name": "ecrecover",
                                        "value": 3000
                                    },
                                    {
                                        "children": [],
                                        "depth": 1,
                                        "name": "ecrecover",
                                        "value": 3000
                                    },
                                    {
                                        "children": [],
                                        "depth": 1,
                                        "name": "ecrecover",
                                        "value": 3000
                                    },
                                    {
                                        "children": [],
                                        "depth": 1,
                                        "name": "ecrecover",
                                        "value": 3000
                                    },
                                    {
                                        "children": [
                                            {
                                                "children": [
                                                    {
                                                        "children": [],
                                                        "depth": 3,
                                                        "name": "price0CumulativeLast",
                                                        "value": 2387
                                                    },
                                                    {
                                                        "children": [],
                                                        "depth": 3,
                                                        "name": "price1CumulativeLast",
                                                        "value": 2409
                                                    },
                                                    {
                                                        "children": [],
                                                        "depth": 3,
                                                        "name": "getReserves",
                                                        "value": 2504
                                                    },
                                                    {
                                                        "children": [],
                                                        "depth": 3,
                                                        "name": "price0CumulativeLast",
                                                        "value": 2387
                                                    },
                                                    {
                                                        "children": [],
                                                        "depth": 3,
                                                        "name": "price1CumulativeLast",
                                                        "value": 2409
                                                    },
                                                    {
                                                        "children": [],
                                                        "depth": 3,
                                                        "name": "getReserves",
                                                        "value": 2504
                                                    }
                                                ],
                                                "depth": 2,
                                                "name": "validate",
                                                "value": 74865
                                            },
                                            {
                                                "children": [
                                                    {
                                                        "children": [],
                                                        "depth": 3,
                                                        "name": "price0CumulativeLast",
                                                        "value": 387
                                                    },
                                                    {
                                                        "children": [],
                                                        "depth": 3,
                                                        "name": "price1CumulativeLast",
                                                        "value": 409
                                                    },
                                                    {
                                                        "children": [],
                                                        "depth": 3,
                                                        "name": "getReserves",
                                                        "value": 504
                                                    },
                                                    {
                                                        "children": [],
                                                        "depth": 3,
                                                        "name": "price0CumulativeLast",
                                                        "value": 387
                                                    },
                                                    {
                                                        "children": [],
                                                        "depth": 3,
                                                        "name": "price1CumulativeLast",
                                                        "value": 409
                                                    },
                                                    {
                                                        "children": [],
                                                        "depth": 3,
                                                        "name": "getReserves",
                                                        "value": 504
                                                    }
                                                ],
                                                "depth": 2,
                                                "name": "validate",
                                                "value": 57865
                                            }
                                        ],
                                        "depth": 1,
                                        "name": "validate",
                                        "value": 146681
                                    }
                                ],
                                "depth": 0,
                                "name": "Executed Gas",
                                "value": 296459
                            }
                        ],
                        "depth": -1,
                        "name": "Actual Gas Used",
                        "value": 328731
                    },
                    {
                        "children": [],
                        "depth": -1,
                        "name": "Refunded Gas",
                        "value": 0
                    }
                ],
                "depth": -2,
                "name": "Total Gas",
                "value": 328731
            }
        ],
        "isConfirmed": true,
        "mainTrace": [
            {
                "children": [
                    {
                        "children": [
                            {
                                "children": [],
                                "depth": 1,
                                "id": 1,
                                "order": 1
                            },
                            {
                                "children": [],
                                "depth": 1,
                                "id": 2,
                                "order": 2
                            },
                            {
                                "children": [],
                                "depth": 1,
                                "id": 3,
                                "order": 3
                            },
                            {
                                "children": [],
                                "depth": 1,
                                "id": 4,
                                "order": 4
                            },
                            {
                                "children": [],
                                "depth": 1,
                                "id": 5,
                                "order": 5
                            },
                            {
                                "children": [],
                                "depth": 1,
                                "id": 6,
                                "order": 6
                            },
                            {
                                "children": [],
                                "depth": 1,
                                "id": 7,
                                "order": 7
                            },
                            {
                                "children": [],
                                "depth": 1,
                                "id": 8,
                                "order": 8
                            },
                            {
                                "children": [],
                                "depth": 1,
                                "id": 9,
                                "order": 9
                            },
                            {
                                "children": [
                                    {
                                        "children": [
                                            {
                                                "children": [],
                                                "depth": 3,
                                                "id": 12,
                                                "order": 12
                                            },
                                            {
                                                "children": [],
                                                "depth": 3,
                                                "id": 13,
                                                "order": 13
                                            },
                                            {
                                                "children": [],
                                                "depth": 3,
                                                "id": 14,
                                                "order": 14
                                            },
                                            {
                                                "children": [],
                                                "depth": 3,
                                                "id": 15,
                                                "order": 15
                                            },
                                            {
                                                "children": [],
                                                "depth": 3,
                                                "id": 16,
                                                "order": 16
                                            },
                                            {
                                                "children": [],
                                                "depth": 3,
                                                "id": 17,
                                                "order": 17
                                            },
                                            {
                                                "children": [],
                                                "depth": 3,
                                                "id": 18,
                                                "order": 18
                                            },
                                            {
                                                "children": [],
                                                "depth": 3,
                                                "id": 19,
                                                "order": 19
                                            },
                                            {
                                                "children": [],
                                                "depth": 3,
                                                "id": 20,
                                                "order": 20
                                            },
                                            {
                                                "children": [],
                                                "depth": 3,
                                                "id": 21,
                                                "order": 21
                                            }
                                        ],
                                        "depth": 2,
                                        "id": 11,
                                        "order": 11
                                    },
                                    {
                                        "children": [
                                            {
                                                "children": [],
                                                "depth": 3,
                                                "id": 23,
                                                "order": 23
                                            },
                                            {
                                                "children": [],
                                                "depth": 3,
                                                "id": 24,
                                                "order": 24
                                            },
                                            {
                                                "children": [],
                                                "depth": 3,
                                                "id": 25,
                                                "order": 25
                                            },
                                            {
                                                "children": [],
                                                "depth": 3,
                                                "id": 26,
                                                "order": 26
                                            },
                                            {
                                                "children": [],
                                                "depth": 3,
                                                "id": 27,
                                                "order": 27
                                            },
                                            {
                                                "children": [],
                                                "depth": 3,
                                                "id": 28,
                                                "order": 28
                                            },
                                            {
                                                "children": [],
                                                "depth": 3,
                                                "id": 29,
                                                "order": 29
                                            },
                                            {
                                                "children": [],
                                                "depth": 3,
                                                "id": 30,
                                                "order": 30
                                            },
                                            {
                                                "children": [],
                                                "depth": 3,
                                                "id": 31,
                                                "order": 31
                                            },
                                            {
                                                "children": [],
                                                "depth": 3,
                                                "id": 32,
                                                "order": 32
                                            }
                                        ],
                                        "depth": 2,
                                        "id": 22,
                                        "order": 22
                                    }
                                ],
                                "depth": 1,
                                "id": 10,
                                "order": 10
                            }
                        ],
                        "depth": 0,
                        "id": 0,
                        "order": 0
                    }
                ],
                "depth": -1,
                "id": -1,
                "order": -1
            }
        ],
        "mainTraceNodeCount": 33,
        "parentIdMap": {
            "0": -1,
            "1": 0,
            "10": 0,
            "11": 10,
            "12": 11,
            "13": 11,
            "14": 11,
            "15": 11,
            "16": 11,
            "17": 11,
            "18": 11,
            "19": 11,
            "2": 0,
            "20": 11,
            "21": 11,
            "22": 10,
            "23": 22,
            "24": 22,
            "25": 22,
            "26": 22,
            "27": 22,
            "28": 22,
            "29": 22,
            "3": 0,
            "30": 22,
            "31": 22,
            "32": 22,
            "4": 0,
            "5": 0,
            "6": 0,
            "7": 0,
            "8": 0,
            "9": 0
        },
        "tidyTrace": [
            {
                "children": [
                    {
                        "children": [
                            {
                                "children": [],
                                "depth": 1,
                                "id": 7,
                                "order": 7
                            },
                            {
                                "children": [],
                                "depth": 1,
                                "id": 8,
                                "order": 8
                            },
                            {
                                "children": [],
                                "depth": 1,
                                "id": 9,
                                "order": 9
                            },
                            {
                                "children": [
                                    {
                                        "children": [
                                            {
                                                "children": [],
                                                "depth": 3,
                                                "id": 15,
                                                "order": 15
                                            },
                                            {
                                                "children": [],
                                                "depth": 3,
                                                "id": 16,
                                                "order": 16
                                            },
                                            {
                                                "children": [],
                                                "depth": 3,
                                                "id": 20,
                                                "order": 20
                                            },
                                            {
                                                "children": [],
                                                "depth": 3,
                                                "id": 21,
                                                "order": 21
                                            }
                                        ],
                                        "depth": 2,
                                        "id": 11,
                                        "order": 11
                                    },
                                    {
                                        "children": [
                                            {
                                                "children": [],
                                                "depth": 3,
                                                "id": 26,
                                                "order": 26
                                            },
                                            {
                                                "children": [],
                                                "depth": 3,
                                                "id": 27,
                                                "order": 27
                                            },
                                            {
                                                "children": [],
                                                "depth": 3,
                                                "id": 31,
                                                "order": 31
                                            },
                                            {
                                                "children": [],
                                                "depth": 3,
                                                "id": 32,
                                                "order": 32
                                            }
                                        ],
                                        "depth": 2,
                                        "id": 22,
                                        "order": 22
                                    }
                                ],
                                "depth": 1,
                                "id": 10,
                                "order": 10
                            }
                        ],
                        "depth": 0,
                        "id": 0,
                        "order": 0
                    }
                ],
                "depth": -1,
                "id": -1,
                "order": -1
            }
        ],
        "tidyTraceNodeCount": 15
    },
    "state_change": {
        "stateChanges": [
            {
                "address": "0x046728da7cb8272284238bd3e47909823d63a58d",
                "erc": "",
                "slots": [
                    {
                        "current": "0x000000000000000000000000000000000000171ed2b5816e13e9ada182a2942f",
                        "key": "0x9987bce89225d8b3a2ab628cc6ae23d7f41acb66e6eb16f76d3a0d39261a24ab",
                        "prev": "0x000000000000000000000000000000000000171e567a9453782dd1abe32d7c3a"
                    },
                    {
                        "current": "0x0000000000000000000000000000000000000000000000000000000061bd232b",
                        "key": "0xd2177d6caff40309ad6d8c013d8e3e034a17416e79175be33a7d454ebe4b60c1",
                        "prev": "0x0000000000000000000000000000000000000000000000000000000061bd1a29"
                    },
                    {
                        "current": "0x000000000000000000000000000000000000171e567a9453782dd1abe32d7c3a",
                        "key": "0xd2177d6caff40309ad6d8c013d8e3e034a17416e79175be33a7d454ebe4b60c2",
                        "prev": "0x000000000000000000000000000000000000171dc016696e9c796a9ebacfd184"
                    },
                    {
                        "current": "0x00000000000000000000000000000000000000000000000000000007b54f05b9",
                        "key": "0xf67d6c00fb9f4ef27a1d3b6778ffdcf792f10b59c9cd52df085e993854d3d346",
                        "prev": "0x00000000000000000000000000000000000000000000000000000007cba9e036"
                    },
                    {
                        "current": "0x0000000000000000000000000000000000000000000000000000000061bd2aa6",
                        "key": "0x9987bce89225d8b3a2ab628cc6ae23d7f41acb66e6eb16f76d3a0d39261a24aa",
                        "prev": "0x0000000000000000000000000000000000000000000000000000000061bd232b"
                    }
                ],
                "storageVariables": [
                    {
                        "name": "oldObservations",
                        "type": "mapping(bytes32 => struct Observation)",
                        "value": {
                            "pairs": [
                                {
                                    "key": "0xaaaebeba3810b1e6b70781f14b2d72c1cb89c0b2b320c43bb67ff79f562f5ff4",
                                    "value": {
                                        "fields": [
                                            {
                                                "name": "timestamp",
                                                "type": "uint256",
                                                "value": {
                                                    "current": "1639785259",
                                                    "prev": "1639782953",
                                                    "typeTag": 1
                                                }
                                            },
                                            {
                                                "name": "acc",
                                                "type": "uint256",
                                                "value": {
                                                    "current": "468899029659660957570282812177466",
                                                    "prev": "468852485813044713025829424058756",
                                                    "typeTag": 1
                                                }
                                            }
                                        ],
                                        "typeTag": 3
                                    }
                                }
                            ],
                            "typeTag": 4
                        }
                    },
                    {
                        "name": "prices",
                        "type": "mapping(bytes32 => struct PriceData)",
                        "value": {
                            "pairs": [
                                {
                                    "key": "0xec34391362c28ee226b3b8624a699ee507a40fa771fd01d38b03ac7b70998bbe",
                                    "value": {
                                        "fields": [
                                            {
                                                "name": "price",
                                                "type": "uint248",
                                                "value": {
                                                    "current": "33106625977",
                                                    "prev": "33481678902",
                                                    "typeTag": 1
                                                }
                                            },
                                            {
                                                "name": "failoverActive",
                                                "type": "bool",
                                                "value": {
                                                    "current": "false",
                                                    "prev": "false",
                                                    "typeTag": 1
                                                }
                                            }
                                        ],
                                        "typeTag": 3
                                    }
                                }
                            ],
                            "typeTag": 4
                        }
                    },
                    {
                        "name": "newObservations",
                        "type": "mapping(bytes32 => struct Observation)",
                        "value": {
                            "pairs": [
                                {
                                    "key": "0xaaaebeba3810b1e6b70781f14b2d72c1cb89c0b2b320c43bb67ff79f562f5ff4",
                                    "value": {
                                        "fields": [
                                            {
                                                "name": "timestamp",
                                                "type": "uint256",
                                                "value": {
                                                    "current": "1639787174",
                                                    "prev": "1639785259",
                                                    "typeTag": 1
                                                }
                                            },
                                            {
                                                "name": "acc",
                                                "type": "uint256",
                                                "value": {
                                                    "current": "468937477038268035598063694418991",
                                                    "prev": "468899029659660957570282812177466",
                                                    "typeTag": 1
                                                }
                                            }
                                        ],
                                        "typeTag": 3
                                    }
                                }
                            ],
                            "typeTag": 4
                        }
                    }
                ]
            },
            {
                "address": "0x6d2299c48a8dd07a872fdd0f8233924872ad1071",
                "erc": "",
                "slots": [
                    {
                        "current": "0x0000000000000000000000000000000000000000000000000000000061bd232b",
                        "key": "0xd2177d6caff40309ad6d8c013d8e3e034a17416e79175be33a7d454ebe4b60c1",
                        "prev": "0x0000000000000000000000000000000000000000000000000000000061bd1a29"
                    },
                    {
                        "current": "0x000000000000000000000000000000000000171e567a9453782dd1abe32d7c3a",
                        "key": "0xd2177d6caff40309ad6d8c013d8e3e034a17416e79175be33a7d454ebe4b60c2",
                        "prev": "0x000000000000000000000000000000000000171dc016696e9c796a9ebacfd184"
                    },
                    {
                        "current": "0x0000000000000000000000000000000000000000000000000000000061bd2aa6",
                        "key": "0x9987bce89225d8b3a2ab628cc6ae23d7f41acb66e6eb16f76d3a0d39261a24aa",
                        "prev": "0x0000000000000000000000000000000000000000000000000000000061bd232b"
                    },
                    {
                        "current": "0x000000000000000000000000000000000000171ed2b5816e13e9ada182a2942f",
                        "key": "0x9987bce89225d8b3a2ab628cc6ae23d7f41acb66e6eb16f76d3a0d39261a24ab",
                        "prev": "0x000000000000000000000000000000000000171e567a9453782dd1abe32d7c3a"
                    },
                    {
                        "current": "0x00000000000000000000000000000000000000000000000000000007b54f05b9",
                        "key": "0xf67d6c00fb9f4ef27a1d3b6778ffdcf792f10b59c9cd52df085e993854d3d346",
                        "prev": "0x00000000000000000000000000000000000000000000000000000007cba9e036"
                    }
                ],
                "storageVariables": [
                    {
                        "name": "oldObservations",
                        "type": "mapping(bytes32 => struct Observation)",
                        "value": {
                            "pairs": [
                                {
                                    "key": "0xaaaebeba3810b1e6b70781f14b2d72c1cb89c0b2b320c43bb67ff79f562f5ff4",
                                    "value": {
                                        "fields": [
                                            {
                                                "name": "timestamp",
                                                "type": "uint256",
                                                "value": {
                                                    "current": "1639785259",
                                                    "prev": "1639782953",
                                                    "typeTag": 1
                                                }
                                            },
                                            {
                                                "name": "acc",
                                                "type": "uint256",
                                                "value": {
                                                    "current": "468899029659660957570282812177466",
                                                    "prev": "468852485813044713025829424058756",
                                                    "typeTag": 1
                                                }
                                            }
                                        ],
                                        "typeTag": 3
                                    }
                                }
                            ],
                            "typeTag": 4
                        }
                    },
                    {
                        "name": "newObservations",
                        "type": "mapping(bytes32 => struct Observation)",
                        "value": {
                            "pairs": [
                                {
                                    "key": "0xaaaebeba3810b1e6b70781f14b2d72c1cb89c0b2b320c43bb67ff79f562f5ff4",
                                    "value": {
                                        "fields": [
                                            {
                                                "name": "timestamp",
                                                "type": "uint256",
                                                "value": {
                                                    "current": "1639787174",
                                                    "prev": "1639785259",
                                                    "typeTag": 1
                                                }
                                            },
                                            {
                                                "name": "acc",
                                                "type": "uint256",
                                                "value": {
                                                    "current": "468937477038268035598063694418991",
                                                    "prev": "468899029659660957570282812177466",
                                                    "typeTag": 1
                                                }
                                            }
                                        ],
                                        "typeTag": 3
                                    }
                                }
                            ],
                            "typeTag": 4
                        }
                    },
                    {
                        "name": "prices",
                        "type": "mapping(bytes32 => struct PriceData)",
                        "value": {
                            "pairs": [
                                {
                                    "key": "0xec34391362c28ee226b3b8624a699ee507a40fa771fd01d38b03ac7b70998bbe",
                                    "value": {
                                        "fields": [
                                            {
                                                "name": "price",
                                                "type": "uint248",
                                                "value": {
                                                    "current": "33106625977",
                                                    "prev": "33481678902",
                                                    "typeTag": 1
                                                }
                                            },
                                            {
                                                "name": "failoverActive",
                                                "type": "bool",
                                                "value": {
                                                    "current": "false",
                                                    "prev": "false",
                                                    "typeTag": 1
                                                }
                                            }
                                        ],
                                        "typeTag": 3
                                    }
                                }
                            ],
                            "typeTag": 4
                        }
                    }
                ]
            },
            {
                "address": "0x8a4d74003870064d41d4f84940550911fbfccf04",
                "erc": "",
                "slots": [
                    {
                        "current": "0x0000000061bd2aa60000000000000000000000000000000000000302d2de3c6e",
                        "key": "0x95f7f92ac6b999a7a0989e211271042b95d04cb2005f7e4a1a7893072bcd3323",
                        "prev": "0x0000000000000000000000000000000000000000000000000000000000000000"
                    },
                    {
                        "current": "0x00000000000000001441050001425506b3bb74daa7336aa8a6de9ef17716153e",
                        "key": "0x000000000000000000000000000000000000000000000000000000000000002a",
                        "prev": "0x00000000000000001440050001425401b3bb74daa7336aa8a6de9ef17716153e"
                    },
                    {
                        "current": "0x0074007600760076007600760076007600760076007600760076007600760076",
                        "key": "0x0000000000000000000000000000000000000000000000000000000000000004",
                        "prev": "0x0073007500750075007500750075007500750075007500750075007500750075"
                    },
                    {
                        "current": "0x000000000000000000000000000000000000000000000004619536d66b684201",
                        "key": "0x0000000000000000000000000000000000000000000000000000000000000010",
                        "prev": "0x000000000000000000000000000000000000000000000003ef7a6d507c28ee01"
                    }
                ],
                "storageVariables": [
                    {
                        "name": "s_oracleObservationsCounts",
                        "type": "uint16[31]",
                        "value": {
                            "elemType": "uint16",
                            "elems": [
                                {
                                    "index": 0,
                                    "value": {
                                        "current": "118",
                                        "prev": "117",
                                        "typeTag": 1
                                    }
                                },
                                {
                                    "index": 1,
                                    "value": {
                                        "current": "118",
                                        "prev": "117",
                                        "typeTag": 1
                                    }
                                },
                                {
                                    "index": 2,
                                    "value": {
                                        "current": "118",
                                        "prev": "117",
                                        "typeTag": 1
                                    }
                                },
                                {
                                    "index": 3,
                                    "value": {
                                        "current": "118",
                                        "prev": "117",
                                        "typeTag": 1
                                    }
                                },
                                {
                                    "index": 4,
                                    "value": {
                                        "current": "118",
                                        "prev": "117",
                                        "typeTag": 1
                                    }
                                },
                                {
                                    "index": 5,
                                    "value": {
                                        "current": "118",
                                        "prev": "117",
                                        "typeTag": 1
                                    }
                                },
                                {
                                    "index": 6,
                                    "value": {
                                        "current": "118",
                                        "prev": "117",
                                        "typeTag": 1
                                    }
                                },
                                {
                                    "index": 7,
                                    "value": {
                                        "current": "118",
                                        "prev": "117",
                                        "typeTag": 1
                                    }
                                },
                                {
                                    "index": 8,
                                    "value": {
                                        "current": "118",
                                        "prev": "117",
                                        "typeTag": 1
                                    }
                                },
                                {
                                    "index": 9,
                                    "value": {
                                        "current": "118",
                                        "prev": "117",
                                        "typeTag": 1
                                    }
                                },
                                {
                                    "index": 10,
                                    "value": {
                                        "current": "118",
                                        "prev": "117",
                                        "typeTag": 1
                                    }
                                },
                                {
                                    "index": 11,
                                    "value": {
                                        "current": "118",
                                        "prev": "117",
                                        "typeTag": 1
                                    }
                                },
                                {
                                    "index": 12,
                                    "value": {
                                        "current": "118",
                                        "prev": "117",
                                        "typeTag": 1
                                    }
                                },
                                {
                                    "index": 13,
                                    "value": {
                                        "current": "118",
                                        "prev": "117",
                                        "typeTag": 1
                                    }
                                },
                                {
                                    "index": 14,
                                    "value": {
                                        "current": "118",
                                        "prev": "117",
                                        "typeTag": 1
                                    }
                                }
                            ],
                            "typeTag": 2
                        }
                    },
                    {
                        "name": "s_transmissions",
                        "type": "mapping(uint32 => struct OffchainAggregator.Transmission)",
                        "value": {
                            "pairs": [
                                {
                                    "key": "5185",
                                    "value": {
                                        "fields": [
                                            {
                                                "name": "answer",
                                                "type": "int192",
                                                "value": {
                                                    "current": "3310662597742",
                                                    "prev": "0",
                                                    "typeTag": 1
                                                }
                                            },
                                            {
                                                "name": "timestamp",
                                                "type": "uint64",
                                                "value": {
                                                    "current": "1639787174",
                                                    "prev": "0",
                                                    "typeTag": 1
                                                }
                                            }
                                        ],
                                        "typeTag": 3
                                    }
                                }
                            ],
                            "typeTag": 4
                        }
                    },
                    {
                        "name": "s_hotVars",
                        "type": "struct OffchainAggregator.HotVars",
                        "value": {
                            "fields": [
                                {
                                    "name": "latestConfigDigest",
                                    "type": "bytes16",
                                    "value": {
                                        "current": "0xb3bb74daa7336aa8a6de9ef17716153e",
                                        "prev": "0xb3bb74daa7336aa8a6de9ef17716153e",
                                        "typeTag": 1
                                    }
                                },
                                {
                                    "name": "latestEpochAndRound",
                                    "type": "uint40",
                                    "value": {
                                        "current": "21124358",
                                        "prev": "21124097",
                                        "typeTag": 1
                                    }
                                },
                                {
                                    "name": "threshold",
                                    "type": "uint8",
                                    "value": {
                                        "current": "5",
                                        "prev": "5",
                                        "typeTag": 1
                                    }
                                },
                                {
                                    "name": "latestAggregatorRoundId",
                                    "type": "uint32",
                                    "value": {
                                        "current": "5185",
                                        "prev": "5184",
                                        "typeTag": 1
                                    }
                                }
                            ],
                            "typeTag": 3
                        }
                    }
                ]
            }
        ]
    }
}