{
    "balance_change": {
        "balanceChanges": [
            {
                "account": "0x32ef6103511dbe1b13364125329a5015ba1dcfbc",
                "assets": [
                    {
                        "address": "0xcba8162778e6a3eba60e1cf7c012b327340bd05d",
                        "amount": "900",
                        "iconUrl": "",
                        "isERC1155": false,
                        "isERC721": false,
                        "sign": false,
                        "value": ""
                    }
                ]
            },
            {
                "account": "0xb1e0c13ee91373737a2e694d5a75bbc13fcbaf50",
                "assets": [
                    {
                        "address": "0xcba8162778e6a3eba60e1cf7c012b327340bd05d",
                        "amount": "900",
                        "iconUrl": "",
                        "isERC1155": false,
                        "isERC721": false,
                        "sign": true,
                        "value": ""
                    }
                ]
            }
        ]
    },
    "profile": {
        "basic_info": {
            "baseFee": "",
            "blockNumber": 6436992,
            "callData": "0xa9059cbb000000000000000000000000b1e0c13ee91373737a2e694d5a75bbc13fcbaf50000000000000000000000000000000000000000000000030ca024f987b900000",
            "debugEnable": true,
            "errorInfo": "",
            "eventCount": 1,
            "feeRecipient": "0xea674fdde714fd979de3edf0f56aa9716b898ec8",
            "formatValue": "0",
            "gasLimit": 72000,
            "gasPrice": "20",
            "gasUsed": 36547,
            "intTxnCount": 0,
            "internalRevert": false,
            "internalRevertMessage": "",
            "isContractCreation": false,
            "isFlashloan": false,
            "maxFee": "",
            "nonce": 0,
            "overwritedBlockNumber": -1,
            "priorityFee": "",
            "receiver": "0xcba8162778e6a3eba60e1cf7c012b327340bd05d",
            "revertMessage": "",
            "sender": "0x32ef6103511dbe1b13364125329a5015ba1dcfbc",
            "simulationEnable": true,
            "sourceTxnHash": "0xc0e4f7d2346e7b31508aa0c577a6282a6cf06362448a18377bf9e65216698f3f",
            "status": true,
            "timestamp": "2018-10-02T02:32:42Z",
            "transactionFee": "0.00073094",
            "txnHash": "0xc0e4f7d2346e7b31508aa0c577a6282a6cf06362448a18377bf9e65216698f3f",
            "txnIndex": 28,
            "type": 0,
            "value": "0"
        },
        "fund_flow": [
            {
                "amount": "900",
                "from": "0x32ef6103511dbe1b13364125329a5015ba1dcfbc",
                "id": 1,
                "isERC1155": false,
                "isERC721": false,
                "isReverted": false,
                "order": 1,
                "to": "0xb1e0c13ee91373737a2e694d5a75bbc13fcbaf50",
                "token": "0xcba8162778e6a3eba60e1cf7c012b327340bd05d"
            }
        ],
        "token_infos": [
            {
                "address": "0xc02aaa39b223fe8d0a0e5c4f27ead9083c756cc2",
                "decimals": 18
            },
            {
                "address": "0xcba8162778e6a3eba60e1cf7c012b327340bd05d",
                "decimals": 18
            },
            {
                "address": "0xeeeeeeeeeeeeeeeeeeeeeeeeeeeeeeeeeeeeeeee",
                "decimals": 18
            }
        ]
    },
    "address_label": {
        "labels": [
            {
                "address": "0xeeeeeeeeeeeeeeeeeeeeeeeeeeeeeeeeeeeeeeee",
                "label": "Ether"
            },
            {
                "address": "0xcba8162778e6a3eba60e1cf7c012b327340bd05d",
                "label": "SINOC"
            },
            {
                "address": "0x0000000000000000000000000000000000000001",
                "label": "Precompiled"
            },
            {
                "address": "0x0000000000000000000000000000000000000002",
                "label": "Precompiled"
            },
            {
                "address": "0x0000000000000000000000000000000000000003",
                "label": "Precompiled"
            },
            {
                "address": "0x0000000000000000000000000000000000000004",
                "label": "Precompiled"
            }
        ]
    },
    "trace": {
        "accountLabels": null,
        "dataMap": {
            "-1": {
                "invocation": {
                    "address": "0x32ef6103511dbe1b13364125329a5015ba1dcfbc",
                    "callData": "",
                    "decodedMethod": null,
                    "errorInfo": "",
                    "fromAddress": "",
                    "gasUsed": 0,
                    "id": -1,
                    "methodDecoded": false,
                    "operation": "",
                    "output": "",
                    "revert": false,
                    "revertMessage": "",
                    "selector": "",
                    "status": false,
                    "value": ""
                },
                "nodeType": 0
            },
            "0": {
                "invocation": {
                    "address": "0xcba8162778e6a3eba60e1cf7c012b327340bd05d",
                    "callData": "0x000000000000000000000000b1e0c13ee91373737a2e694d5a75bbc13fcbaf50000000000000000000000000000000000000000000000030ca024f987b900000",
                    "decodedMethod": {
                        "callParams": [
                            {
                                "name": "_recipient",
                                "type": "address",
                                "value": "0xb1e0c13ee91373737a2e694d5a75bbc13fcbaf50"
                            },
                            {
                                "decimalAvailable": true,
                                "name": "_value",
                                "type": "uint256",
                                "value": "900,000,000,000,000,000,000"
                            }
                        ],
                        "constructorArguments": "",
                        "name": "transfer",
                        "returnParams": [],
                        "signature": "transfer(address,uint256)"
                    },
                    "errorInfo": "",
                    "fromAddress": "0x32ef6103511dbe1b13364125329a5015ba1dcfbc",
                    "gasUsed": 36547,
                    "id": 0,
                    "methodDecoded": true,
                    "operation": "CALL",
                    "output": "",
                    "revert": false,
                    "revertMessage": "",
                    "selector": "0xa9059cbb",
                    "status": true,
                    "value": "0"
                },
                "nodeType": 0
            },
            "1": {
                "event": {
                    "contract": "0xcba8162778e6a3eba60e1cf7c012b327340bd05d",
                    "decodedLog": {
                        "name": "Transfer",
                        "params": [
                            {
                                "name": "_from",
                                "type": "address",
                                "value": "0x32ef6103511dbe1b13364125329a5015ba1dcfbc"
                            },
                            {
                                "name": "_to",
                                "type": "address",
                                "value": "0xb1e0c13ee91373737a2e694d5a75bbc13fcbaf50"
                            },
                            {
                                "decimalAvailable": true,
                                "name": "_value",
                                "type": "uint256",
                                "value": "900,000,000,000,000,000,000"
                            }
                        ],
                        "signature": "Transfer(address,address,uint256)"
                    },
                    "id": 1,
                    "logData": "0x000000000000000000000000000000000000000000000030ca024f987b900000",
                    "logDecoded": true,
                    "operation": "EVENT",
                    "revert": false,
                    "status": true,
                    "topics": [
                        "0xddf252ad1be2c89b69c2b068fc378daa952ba7f163c4a11628f55a4df523b3ef",
                        "0x00000000000000000000000032ef6103511dbe1b13364125329a5015ba1dcfbc",
                        "0x000000000000000000000000b1e0c13ee91373737a2e694d5a75bbc13fcbaf50"
                    ]
                },
                "nodeType": 1
            }
        },
        "gasFlame": [
            {
                "children": [
                    {
                        "children": [
                            {
                                "children": [],
                                "depth": 0,
                                "name": "Initial Gas",
                                "value": 23256
                            },
                            {
                                "children": [],
                                "depth": 0,
                                "name": "Executed Gas",
                                "value": 28291
                            }
                        ],
                        "depth": -1,
                        "name": "Actual Gas Used",
                        "value": 36547
                    },
                    {
                        "children": [],
                        "depth": -1,
                        "name": "Refunded Gas",
                        "value": 15000
                    }
                ],
                "depth": -2,
                "name": "Total Gas",
                "value": 51547
            }
        ],
        "isConfirmed": true,
        "mainTrace": [
            {
                "children": [
                    {
                        "children": [
                            {
                                "children": [],
                                "depth": 1,
                                "id": 1,
                                "order": 1
                            }
                        ],
                        "depth": 0,
                        "id": 0,
                        "order": 0
                    }
                ],
                "depth": -1,
                "id": -1,
                "order": -1
            }
        ],
        "mainTraceNodeCount": 2,
        "parentIdMap": {
            "0": -1,
            "1": 0
        },
        "tidyTrace": [
            {
                "children": [
                    {
                        "children": [
                            {
                                "children": [],
                                "depth": 1,
                                "id": 1,
                                "order": 1
                            }
                        ],
                        "depth": 0,
                        "id": 0,
                        "order": 0
                    }
                ],
                "depth": -1,
                "id": -1,
                "order": -1
            }
        ],
        "tidyTraceNodeCount": 2
    },
    "state_change": {
        "stateChanges": [
            {
                "address": "0xcba8162778e6a3eba60e1cf7c012b327340bd05d",
                "erc": "ERC-20",
                "slots": [
                    {
                        "current": "0x0000000000000000000000000000000000000000000000000000000000000000",
                        "key": "0xa3b642348c09e6396e1c052cad880e98c064d8594e3dd38dce566c4806c7f0af",
                        "prev": "0x000000000000000000000000000000000000000000000030ca024f987b900000"
                    },
                    {
                        "current": "0x000000000000000000000000000000000000000000000030ca024f987b900000",
                        "key": "0x3d6622c9837a324146374e25df2dfa92f11f1636ca111e45b06ff3ab37fc634b",
                        "prev": "0x0000000000000000000000000000000000000000000000000000000000000000"
                    }
                ],
                "storageVariables": [
                    {
                        "name": "balances",
                        "type": "mapping(address => uint256)",
                        "value": {
                            "pairs": [
                                {
                                    "key": "0x32ef6103511dbe1b13364125329a5015ba1dcfbc",
                                    "value": {
                                        "current": "0",
                                        "prev": "900000000000000000000",
                                        "typeTag": 1
                                    }
                                },
                                {
                                    "key": "0xb1e0c13ee91373737a2e694d5a75bbc13fcbaf50",
                                    "value": {
                                        "current": "900000000000000000000",
                                        "prev": "0",
                                        "typeTag": 1
                                    }
                                }
                            ],
                            "typeTag": 4
                        }
                    }
                ]
            }
        ]
    }
}