{
    "balance_change": {
        "balanceChanges": []
    },
    "profile": {
        "basic_info": {
            "baseFee": "37.460051568",
            "blockNumber": 15791020,
            "callData": "0xfb0f3ee100000000000000000000000000000000000000000000000000000000000000200000000000000000000000000000000000000000000000000000000000000000000000000000000000000000000000000000000000000000000000000000000000000000000000000000000000000000000000000000000000314b3d2e423000000000000000000000000000eab129088d167d69e5934052f6c531d94b92b9b3000000000000000000000000004c00500000ad104d7dbd00e3ae0a5c00560c00000000000000000000000000f048cbaad26c1a35e7a04e126fdeb9c8045e676b0000000000000000000000000000000000000000000000000000000000000fd3000000000000000000000000000000000000000000000000000000000000000100000000000000000000000000000000000000000000000000000000000000020000000000000000000000000000000000000000000000000000000063518eb800000000000000000000000000000000000000000000000000000000637a0be00000000000000000000000000000000000000000000000000000000000000000360c6ebe000000000000000000000000000000000000000063ccea39e02f12c10000007b02230091a7ed01230072f7006a004d60a8d4e71d599b8104250f00000000007b02230091a7ed01230072f7006a004d60a8d4e71d599b8104250f00000000000000000000000000000000000000000000000000000000000000000002000000000000000000000000000000000000000000000000000000000000024000000000000000000000000000000000000000000000000000000000000002e000000000000000000000000000000000000000000000000000000000000000020000000000000000000000000000000000000000000000000001550f7dca70000000000000000000000000000000a26b00c1f0df003000390027140000faa7190000000000000000000000000000000000000000000000000002aa1efb94e0000000000000000000000000007aa7e58eff6117c5c66acd7a33047fd876204c340000000000000000000000000000000000000000000000000000000000000041eab44f7d9a58333e1854070c09bd9f44ce1cb1ec7acbeb775beaa6fcf130679b31a5a66780a8648b9ad1857181f823fb2193e47a8304382f145735de1c07c6a91c00000000000000000000000000000000000000000000000000000000000000360c6ebe",
            "debugEnable": true,
            "errorInfo": "execution reverted",
            "eventCount": 1,
            "feeRecipient": "0x388c818ca8b9251b393131c08a736a67ccb19297",
            "formatValue": "0.015",
            "gasLimit": 158813,
            "gasPrice": "38.960051568",
            "gasUsed": 52300,
            "intTxnCount": 1,
            "internalRevert": true,
            "internalRevertMessage": "",
            "isContractCreation": false,
            "isFlashloan": false,
            "maxFee": "50.240495466",
            "nonce": 112,
            "overwritedBlockNumber": -1,
            "priorityFee": "1.5",
            "receiver": "0x00000000006c3852cbef3e08e8df289169ede581",
            "revertMessage": "OrderPartiallyFilled(orderHash=0x3f276ac5b51863b8fc7bdfad0dbe7648a563d9f5039661aa6743b1ec4dd37b63)",
            "sender": "0xc138da0a40280d39b72124dec60033932f895717",
            "simulationEnable": true,
            "sourceTxnHash": "0xc0df15fc5b9b0503b9725562330bbc947fa5493d47b642c3ef501da407b09f44",
            "status": false,
            "timestamp": "2022-10-20T18:11:59Z",
            "transactionFee": "0.0020376106970064",
            "txnHash": "0xc0df15fc5b9b0503b9725562330bbc947fa5493d47b642c3ef501da407b09f44",
            "txnIndex": 68,
            "type": 2,
            "value": "15000000000000000"
        },
        "fund_flow": [],
        "token_infos": [
            {
                "address": "0xc02aaa39b223fe8d0a0e5c4f27ead9083c756cc2",
                "decimals": 18
            },
            {
                "address": "0xeeeeeeeeeeeeeeeeeeeeeeeeeeeeeeeeeeeeeeee",
                "decimals": 18
            }
        ]
    },
    "address_label": {
        "labels": [
            {
                "address": "0x0000000000000000000000000000000000000004",
                "label": "Precompiled"
            },
            {
                "address": "0xeeeeeeeeeeeeeeeeeeeeeeeeeeeeeeeeeeeeeeee",
                "label": "Ether"
            },
            {
                "address": "0xf048cbaad26c1a35e7a04e126fdeb9c8045e676b",
                "label": "WizardsOfTheTowerShade: WTS Token"
            },
            {
                "address": "0x004c00500000ad104d7dbd00e3ae0a5c00560c00",
                "label": "OpenSea: Pausable Zone"
            },
            {
                "address": "0x00000000006c3852cbef3e08e8df289169ede581",
                "label": "Seaport 1.1"
            },
            {
                "address": "0x0000000000000000000000000000000000000001",
                "label": "Precompiled"
            },
            {
                "address": "0x0000a26b00c1f0df003000390027140000faa719",
                "label": "OpenSea: Fees 3"
            },
            {
                "address": "0x0000000000000000000000000000000000000000",
                "label": "Null Address"
            },
            {
                "address": "0x388c818ca8b9251b393131c08a736a67ccb19297",
                "label": "LidoExecutionLayerRewardsVault"
            },
            {
                "address": "0x0000000000000000000000000000000000000002",
                "label": "Precompiled"
            },
            {
                "address": "0x0000000000000000000000000000000000000003",
                "label": "Precompiled"
            }
        ]
    },
    "trace": {
        "accountLabels": null,
        "dataMap": {
            "-1": {
                "invocation": {
                    "address": "0xc138da0a40280d39b72124dec60033932f895717",
                    "callData": "",
                    "decodedMethod": null,
                    "errorInfo": "",
                    "fromAddress": "",
                    "gasUsed": 0,
                    "id": -1,
                    "methodDecoded": false,
                    "operation": "",
                    "output": "",
                    "revert": false,
                    "revertMessage": "",
                    "selector": "",
                    "status": false,
                    "value": ""
                },
                "nodeType": 0
            },
            "0": {
                "invocation": {
                    "address": "0x00000000006c3852cbef3e08e8df289169ede581",
                    "callData": "0x00000000000000000000000000000000000000000000000000000000000000200000000000000000000000000000000000000000000000000000000000000000000000000000000000000000000000000000000000000000000000000000000000000000000000000000000000000000000000000000000000314b3d2e423000000000000000000000000000eab129088d167d69e5934052f6c531d94b92b9b3000000000000000000000000004c00500000ad104d7dbd00e3ae0a5c00560c00000000000000000000000000f048cbaad26c1a35e7a04e126fdeb9c8045e676b0000000000000000000000000000000000000000000000000000000000000fd3000000000000000000000000000000000000000000000000000000000000000100000000000000000000000000000000000000000000000000000000000000020000000000000000000000000000000000000000000000000000000063518eb800000000000000000000000000000000000000000000000000000000637a0be00000000000000000000000000000000000000000000000000000000000000000360c6ebe000000000000000000000000000000000000000063ccea39e02f12c10000007b02230091a7ed01230072f7006a004d60a8d4e71d599b8104250f00000000007b02230091a7ed01230072f7006a004d60a8d4e71d599b8104250f00000000000000000000000000000000000000000000000000000000000000000002000000000000000000000000000000000000000000000000000000000000024000000000000000000000000000000000000000000000000000000000000002e000000000000000000000000000000000000000000000000000000000000000020000000000000000000000000000000000000000000000000001550f7dca70000000000000000000000000000000a26b00c1f0df003000390027140000faa7190000000000000000000000000000000000000000000000000002aa1efb94e0000000000000000000000000007aa7e58eff6117c5c66acd7a33047fd876204c340000000000000000000000000000000000000000000000000000000000000041eab44f7d9a58333e1854070c09bd9f44ce1cb1ec7acbeb775beaa6fcf130679b31a5a66780a8648b9ad1857181f823fb2193e47a8304382f145735de1c07c6a91c00000000000000000000000000000000000000000000000000000000000000360c6ebe",
                    "decodedMethod": {
                        "callParams": [
                            {
                                "name": "parameters",
                                "type": "(address,uint256,uint256,address,address,address,uint256,uint256,uint8,uint256,uint256,bytes32,uint256,bytes32,bytes32,uint256,(uint256,address)[],bytes)",
                                "value": [
                                    {
                                        "name": "considerationToken",
                                        "type": "address",
                                        "value": "0x0000000000000000000000000000000000000000"
                                    },
                                    {
                                        "name": "considerationIdentifier",
                                        "type": "uint256",
                                        "value": "0"
                                    },
                                    {
                                        "name": "considerationAmount",
                                        "type": "uint256",
                                        "value": "13,875,000,000,000,000"
                                    },
                                    {
                                        "name": "offerer",
                                        "type": "address",
                                        "value": "0xeab129088d167d69e5934052f6c531d94b92b9b3"
                                    },
                                    {
                                        "name": "zone",
                                        "type": "address",
                                        "value": "0x004c00500000ad104d7dbd00e3ae0a5c00560c00"
                                    },
                                    {
                                        "name": "offerToken",
                                        "type": "address",
                                        "value": "0xf048cbaad26c1a35e7a04e126fdeb9c8045e676b"
                                    },
                                    {
                                        "name": "offerIdentifier",
                                        "type": "uint256",
                                        "value": "4,051"
                                    },
                                    {
                                        "name": "offerAmount",
                                        "type": "uint256",
                                        "value": "1"
                                    },
                                    {
                                        "name": "basicOrderType",
                                        "type": "uint8",
                                        "value": "2"
                                    },
                                    {
                                        "name": "startTime",
                                        "type": "uint256",
                                        "value": "1,666,289,336"
                                    },
                                    {
                                        "name": "endTime",
                                        "type": "uint256",
                                        "value": "1,668,942,816"
                                    },
                                    {
                                        "name": "zoneHash",
                                        "type": "bytes32",
                                        "value": "0x0000000000000000000000000000000000000000000000000000000000000000"
                                    },
                                    {
                                        "name": "salt",
                                        "type": "uint256",
                                        "value": "24,446,860,302,761,739,304,752,683,030,156,737,591,518,664,810,215,442,929,807,574,068,674,551,550,657"
                                    },
                                    {
                                        "name": "offererConduitKey",
                                        "type": "bytes32",
                                        "value": "0x0000007b02230091a7ed01230072f7006a004d60a8d4e71d599b8104250f0000"
                                    },
                                    {
                                        "name": "fulfillerConduitKey",
                                        "type": "bytes32",
                                        "value": "0x0000007b02230091a7ed01230072f7006a004d60a8d4e71d599b8104250f0000"
                                    },
                                    {
                                        "name": "totalOriginalAdditionalRecipients",
                                        "type": "uint256",
                                        "value": "2"
                                    },
                                    {
                                        "name": "additionalRecipients",
                                        "type": "(uint256,address)[]",
                                        "value": [
                                            [
                                                {
                                                    "name": "amount",
                                                    "type": "uint256",
                                                    "value": "375,000,000,000,000"
                                                },
                                                {
                                                    "name": "recipient",
                                                    "type": "address",
                                                    "value": "0x0000a26b00c1f0df003000390027140000faa719"
                                                }
                                            ],
                                            [
                                                {
                                                    "name": "amount",
                                                    "type": "uint256",
                                                    "value": "750,000,000,000,000"
                                                },
                                                {
                                                    "name": "recipient",
                                                    "type": "address",
                                                    "value": "0x7aa7e58eff6117c5c66acd7a33047fd876204c34"
                                                }
                                            ]
                                        ]
                                    },
                                    {
                                        "name": "signature",
                                        "type": "bytes",
                                        "value": "0xeab44f7d9a58333e1854070c09bd9f44ce1cb1ec7acbeb775beaa6fcf130679b31a5a66780a8648b9ad1857181f823fb2193e47a8304382f145735de1c07c6a91c"
                                    }
                                ]
                            }
                        ],
                        "constructorArguments": "",
                        "name": "fulfillBasicOrder",
                        "returnParams": [],
                        "signature": "fulfillBasicOrder((address,uint256,uint256,address,address,address,uint256,uint256,uint8,uint256,uint256,bytes32,uint256,bytes32,bytes32,uint256,(uint256,address)[],bytes))"
                    },
                    "errorInfo": "execution reverted",
                    "fromAddress": "0xc138da0a40280d39b72124dec60033932f895717",
                    "gasUsed": 52300,
                    "id": 0,
                    "methodDecoded": true,
                    "operation": "CALL",
                    "output": "0xee9e0e633f276ac5b51863b8fc7bdfad0dbe7648a563d9f5039661aa6743b1ec4dd37b63",
                    "revert": true,
                    "revertMessage": "OrderPartiallyFilled(orderHash=0x3f276ac5b51863b8fc7bdfad0dbe7648a563d9f5039661aa6743b1ec4dd37b63)",
                    "selector": "0xfb0f3ee1",
                    "status": false,
                    "value": "0.015"
                },
                "nodeType": 0
            },
            "1": {
                "event": {
                    "contract": "0x00000000006c3852cbef3e08e8df289169ede581",
                    "decodedLog": {
                        "name": "OrderFulfilled",
                        "params": [
                            {
                                "name": "offerer",
                                "type": "address",
                                "value": "0xeab129088d167d69e5934052f6c531d94b92b9b3"
                            },
                            {
                                "name": "zone",
                                "type": "address",
                                "value": "0x004c00500000ad104d7dbd00e3ae0a5c00560c00"
                            },
                            {
                                "name": "orderHash",
                                "type": "bytes32",
                                "value": "0x3f276ac5b51863b8fc7bdfad0dbe7648a563d9f5039661aa6743b1ec4dd37b63"
                            },
                            {
                                "name": "recipient",
                                "type": "address",
                                "value": "0xc138da0a40280d39b72124dec60033932f895717"
                            },
                            {
                                "name": "offer",
                                "type": "(uint8,address,uint256,uint256)[]",
                                "value": [
                                    [
                                        {
                                            "name": "itemType",
                                            "type": "uint8",
                                            "value": "2"
                                        },
                                        {
                                            "name": "token",
                                            "type": "address",
                                            "value": "0xf048cbaad26c1a35e7a04e126fdeb9c8045e676b"
                                        },
                                        {
                                            "name": "identifier",
                                            "type": "uint256",
                                            "value": "4,051"
                                        },
                                        {
                                            "name": "amount",
                                            "type": "uint256",
                                            "value": "1"
                                        }
                                    ]
                                ]
                            },
                            {
                                "name": "consideration",
                                "type": "(uint8,address,uint256,uint256,address)[]",
                                "value": [
                                    [
                                        {
                                            "name": "itemType",
                                            "type": "uint8",
                                            "value": "0"
                                        },
                                        {
                                            "name": "token",
                                            "type": "address",
                                            "value": "0x0000000000000000000000000000000000000000"
                                        },
                                        {
                                            "name": "identifier",
                                            "type": "uint256",
                                            "value": "0"
                                        },
                                        {
                                            "name": "amount",
                                            "type": "uint256",
                                            "value": "13,875,000,000,000,000"
                                        },
                                        {
                                            "name": "recipient",
                                            "type": "address",
                                            "value": "0xeab129088d167d69e5934052f6c531d94b92b9b3"
                                        }
                                    ],
                                    [
                                        {
                                            "name": "itemType",
                                            "type": "uint8",
                                            "value": "0"
                                        },
                                        {
                                            "name": "token",
                                            "type": "address",
                                            "value": "0x0000000000000000000000000000000000000000"
                                        },
                                        {
                                            "name": "identifier",
                                            "type": "uint256",
                                            "value": "0"
                                        },
                                        {
                                            "name": "amount",
                                            "type": "uint256",
                                            "value": "375,000,000,000,000"
                                        },
                                        {
                                            "name": "recipient",
                                            "type": "address",
                                            "value": "0x0000a26b00c1f0df003000390027140000faa719"
                                        }
                                    ],
                                    [
                                        {
                                            "name": "itemType",
                                            "type": "uint8",
                                            "value": "0"
                                        },
                                        {
                                            "name": "token",
                                            "type": "address",
                                            "value": "0x0000000000000000000000000000000000000000"
                                        },
                                        {
                                            "name": "identifier",
                                            "type": "uint256",
                                            "value": "0"
                                        },
                                        {
                                            "name": "amount",
                                            "type": "uint256",
                                            "value": "750,000,000,000,000"
                                        },
                                        {
                                            "name": "recipient",
                                            "type": "address",
                                            "value": "0x7aa7e58eff6117c5c66acd7a33047fd876204c34"
                                        }
                                    ]
                                ]
                            }
                        ],
                        "signature": "OrderFulfilled(bytes32,address,address,address,(uint8,address,uint256,uint256)[],(uint8,address,uint256,uint256,address)[])"
                    },
                    "id": 1,
                    "logData": "0x3f276ac5b51863b8fc7bdfad0dbe7648a563d9f5039661aa6743b1ec4dd37b63000000000000000000000000c138da0a40280d39b72124dec60033932f8957170000000000000000000000000000000000000000000000000000000000000080000000000000000000000000000000000000000000000000000000000000012000000000000000000000000000000000000000000000000000000000000000010000000000000000000000000000000000000000000000000000000000000002000000000000000000000000f048cbaad26c1a35e7a04e126fdeb9c8045e676b0000000000000000000000000000000000000000000000000000000000000fd30000000000000000000000000000000000000000000000000000000000000001000000000000000000000000000000000000000000000000000000000000000300000000000000000000000000000000000000000000000000000000000000000000000000000000000000000000000000000000000000000000000000000000000000000000000000000000000000000000000000000000000000000000000000000000000000000000000000000000000000000000000000314b3d2e423000000000000000000000000000eab129088d167d69e5934052f6c531d94b92b9b30000000000000000000000000000000000000000000000000000000000000000000000000000000000000000000000000000000000000000000000000000000000000000000000000000000000000000000000000000000000000000000000000000000000000000000000000000000000000000000000000001550f7dca70000000000000000000000000000000a26b00c1f0df003000390027140000faa7190000000000000000000000000000000000000000000000000000000000000000000000000000000000000000000000000000000000000000000000000000000000000000000000000000000000000000000000000000000000000000000000000000000000000000000000000000000000000000000000000002aa1efb94e0000000000000000000000000007aa7e58eff6117c5c66acd7a33047fd876204c34",
                    "logDecoded": true,
                    "operation": "EVENT",
                    "revert": true,
                    "status": false,
                    "topics": [
                        "0x9d9af8e38d66c62e2c12f0225249fd9d721c54b83f48d9352c97c6cacdcb6f31",
                        "0x000000000000000000000000eab129088d167d69e5934052f6c531d94b92b9b3",
                        "0x000000000000000000000000004c00500000ad104d7dbd00e3ae0a5c00560c00"
                    ]
                },
                "nodeType": 1
            },
            "2": {
                "invocation": {
                    "address": "0x004c00500000ad104d7dbd00e3ae0a5c00560c00",
                    "callData": "0x3f276ac5b51863b8fc7bdfad0dbe7648a563d9f5039661aa6743b1ec4dd37b63000000000000000000000000c138da0a40280d39b72124dec60033932f895717000000000000000000000000eab129088d167d69e5934052f6c531d94b92b9b30000000000000000000000000000000000000000000000000000000000000000",
                    "decodedMethod": {
                        "callParams": [
                            {
                                "name": "orderHash",
                                "type": "bytes32",
                                "value": "0x3f276ac5b51863b8fc7bdfad0dbe7648a563d9f5039661aa6743b1ec4dd37b63"
                            },
                            {
                                "name": "caller",
                                "type": "address",
                                "value": "0xc138da0a40280d39b72124dec60033932f895717"
                            },
                            {
                                "name": "offerer",
                                "type": "address",
                                "value": "0xeab129088d167d69e5934052f6c531d94b92b9b3"
                            },
                            {
                                "name": "zoneHash",
                                "type": "bytes32",
                                "value": "0x0000000000000000000000000000000000000000000000000000000000000000"
                            }
                        ],
                        "constructorArguments": "",
                        "name": "isValidOrder",
                        "returnParams": [
                            {
                                "name": "validOrderMagicValue",
                                "type": "bytes4",
                                "value": "0x0e1d31dc"
                            }
                        ],
                        "signature": "isValidOrder(bytes32,address,address,bytes32)"
                    },
                    "errorInfo": "",
                    "fromAddress": "0x00000000006c3852cbef3e08e8df289169ede581",
                    "gasUsed": 257,
                    "id": 2,
                    "methodDecoded": true,
                    "operation": "STATICCALL",
                    "output": "0x0e1d31dc00000000000000000000000000000000000000000000000000000000",
                    "revert": true,
                    "revertMessage": "",
                    "selector": "0x0e1d31dc",
                    "status": true,
                    "value": "0"
                },
                "nodeType": 0
            }
        },
        "gasFlame": [
            {
                "children": [
                    {
                        "children": [
                            {
                                "children": [],
                                "depth": 0,
                                "name": "Initial Gas",
                                "value": 27664
                            },
                            {
                                "children": [
                                    {
                                        "children": [],
                                        "depth": 1,
                                        "name": "isValidOrder",
                                        "value": 257
                                    }
                                ],
                                "depth": 0,
                                "name": "Executed Gas",
                                "value": 24636
                            }
                        ],
                        "depth": -1,
                        "name": "Actual Gas Used",
                        "value": 52300
                    },
                    {
                        "children": [],
                        "depth": -1,
                        "name": "Refunded Gas",
                        "value": 0
                    }
                ],
                "depth": -2,
                "name": "Total Gas",
                "value": 52300
            }
        ],
        "isConfirmed": true,
        "mainTrace": [
            {
                "children": [
                    {
                        "children": [
                            {
                                "children": [],
                                "depth": 1,
                                "id": 1,
                                "order": 1
                            },
                            {
                                "children": [],
                                "depth": 1,
                                "id": 2,
                                "order": 2
                            }
                        ],
                        "depth": 0,
                        "id": 0,
                        "order": 0
                    }
                ],
                "depth": -1,
                "id": -1,
                "order": -1
            }
        ],
        "mainTraceNodeCount": 3,
        "parentIdMap": {
            "0": -1,
            "1": 0,
            "2": 0
        },
        "tidyTrace": [
            {
                "children": [
                    {
                        "children": [
                            {
                                "children": [],
                                "depth": 1,
                                "id": 1,
                                "order": 1
                            }
                        ],
                        "depth": 0,
                        "id": 0,
                        "order": 0
                    }
                ],
                "depth": -1,
                "id": -1,
                "order": -1
            }
        ],
        "tidyTraceNodeCount": 2
    },
    "state_change": {
        "stateChanges": []
    }
}