{
    "balance_change": {
        "balanceChanges": [
            {
                "account": "0x807c57d03e31628b5dc9595c722676cb3da1df1c",
                "assets": [
                    {
                        "address": "0xeeeeeeeeeeeeeeeeeeeeeeeeeeeeeeeeeeeeeeee",
                        "amount": "0.1",
                        "iconUrl": "https://assets.blocksec.com/image/1663669189317-3.png",
                        "isERC1155": false,
                        "isERC721": false,
                        "sign": false,
                        "value": "406.07689110000001165"
                    },
                    {
                        "address": "0x9010a15184da16e3a7c5b4aa50094dfe3bb36989",
                        "amount": "661,174.088928153322788268",
                        "iconUrl": "",
                        "isERC1155": false,
                        "isERC721": false,
                        "sign": true,
                        "value": "381.4543648"
                    }
                ]
            },
            {
                "account": "0x96c195f6643a3d797cb90cb6ba0ae2776d51b5f3",
                "assets": [
                    {
                        "address": "0x9010a15184da16e3a7c5b4aa50094dfe3bb36989",
                        "amount": "1,972.09557761729140383",
                        "iconUrl": "",
                        "isERC1155": false,
                        "isERC721": false,
                        "sign": true,
                        "value": "1.14229377"
                    }
                ]
            },
            {
                "account": "0x9a1071d17b8126679aeca3ef152f784bca339c3a",
                "assets": [
                    {
                        "address": "0xc02aaa39b223fe8d0a0e5c4f27ead9083c756cc2",
                        "amount": "0.1",
                        "iconUrl": "https://assets.blocksec.com/icon/f1cb2d02c471d545bbc7722daf3277fd852d98e63d118771af7047bd8256c516.png",
                        "isERC1155": false,
                        "isERC721": false,
                        "sign": true,
                        "value": "406.07689110000001165"
                    },
                    {
                        "address": "0x9010a15184da16e3a7c5b4aa50094dfe3bb36989",
                        "amount": "663,146.184505770614192098",
                        "iconUrl": "",
                        "isERC1155": false,
                        "isERC721": false,
                        "sign": false,
                        "value": "385.6553958"
                    }
                ]
            },
            {
                "account": "0xc02aaa39b223fe8d0a0e5c4f27ead9083c756cc2",
                "assets": [
                    {
                        "address": "0xeeeeeeeeeeeeeeeeeeeeeeeeeeeeeeeeeeeeeeee",
                        "amount": "0.1",
                        "iconUrl": "https://assets.blocksec.com/image/1663669189317-3.png",
                        "isERC1155": false,
                        "isERC721": false,
                        "sign": true,
                        "value": "406.07689110000001165"
                    },
                    {
                        "address": "0xc02aaa39b223fe8d0a0e5c4f27ead9083c756cc2",
                        "amount": "0.1",
                        "iconUrl": "https://assets.blocksec.com/icon/f1cb2d02c471d545bbc7722daf3277fd852d98e63d118771af7047bd8256c516.png",
                        "isERC1155": false,
                        "isERC721": false,
                        "sign": false,
                        "value": "406.07689110000001165"
                    }
                ]
            }
        ]
    },
    "profile": {
        "basic_info": {
            "baseFee": "101.312364901",
            "blockNumber": 13911182,
            "callData": "0x415565b0000000000000000000000000eeeeeeeeeeeeeeeeeeeeeeeeeeeeeeeeeeeeeeee0000000000000000000000009010a15184da16e3a7c5b4aa50094dfe3bb36989000000000000000000000000000000000000000000000000016345785d8a0000000000000000000000000000000000000000000000008b33d6a7803fec49374300000000000000000000000000000000000000000000000000000000000000a000000000000000000000000000000000000000000000000000000000000000040000000000000000000000000000000000000000000000000000000000000080000000000000000000000000000000000000000000000000000000000000012000000000000000000000000000000000000000000000000000000000000004800000000000000000000000000000000000000000000000000000000000000580000000000000000000000000000000000000000000000000000000000000000600000000000000000000000000000000000000000000000000000000000000400000000000000000000000000000000000000000000000000000000000000040000000000000000000000000eeeeeeeeeeeeeeeeeeeeeeeeeeeeeeeeeeeeeeee000000000000000000000000000000000000000000000000016345785d8a000000000000000000000000000000000000000000000000000000000000000000150000000000000000000000000000000000000000000000000000000000000040000000000000000000000000000000000000000000000000000000000000030000000000000000000000000000000000000000000000000000000000000000200000000000000000000000000000000000000000000000000000000000000000000000000000000000000000c02aaa39b223fe8d0a0e5c4f27ead9083c756cc20000000000000000000000009010a15184da16e3a7c5b4aa50094dfe3bb36989000000000000000000000000000000000000000000000000000000000000012000000000000000000000000000000000000000000000000000000000000002c000000000000000000000000000000000000000000000000000000000000002c000000000000000000000000000000000000000000000000000000000000002a0000000000000000000000000000000000000000000000000016345785d8a000000000000000000000000000000000000000000000000000000000000000000000000000000000000000000000000000000000000000000000000000000000001000000000000000000000000000000000000000000000000000000000000002000000000000000000000000000000002556e6973776170563200000000000000000000000000000000000000000000000000000000000000016345785d8a0000000000000000000000000000000000000000000000008b9ebefa6f7b81bb1979000000000000000000000000000000000000000000000000000000000000008000000000000000000000000000000000000000000000000000000000000000a0000000000000000000000000f164fc0ec4e93095b804a4795bbe1e041497b92a00000000000000000000000000000000000000000000000000000000000000400000000000000000000000000000000000000000000000000000000000000002000000000000000000000000c02aaa39b223fe8d0a0e5c4f27ead9083c756cc20000000000000000000000009010a15184da16e3a7c5b4aa50094dfe3bb36989000000000000000000000000000000000000000000000000000000000000000100000000000000000000000000000000000000000000000000000000000000000000000000000000000000000000000000000000000000000000000000000008000000000000000000000000000000000000000000000000000000000000004000000000000000000000000000000000000000000000000000000000000000a0000000000000000000000000000000000000000000000000000000000000002000000000000000000000000000000000000000000000000000000000000000010000000000000000000000009010a15184da16e3a7c5b4aa50094dfe3bb3698900000000000000000000000000000000000000000000006ae852ef3b9571e23600000000000000000000000096c195f6643a3d797cb90cb6ba0ae2776d51b5f30000000000000000000000000000000000000000000000000000000000000007000000000000000000000000000000000000000000000000000000000000004000000000000000000000000000000000000000000000000000000000000000e00000000000000000000000000000000000000000000000000000000000000020000000000000000000000000000000000000000000000000000000000000004000000000000000000000000000000000000000000000000000000000000000a00000000000000000000000000000000000000000000000000000000000000002000000000000000000000000c02aaa39b223fe8d0a0e5c4f27ead9083c756cc2000000000000000000000000eeeeeeeeeeeeeeeeeeeeeeeeeeeeeeeeeeeeeeee0000000000000000000000000000000000000000000000000000000000000000869584cd00000000000000000000000096c195f6643a3d797cb90cb6ba0ae2776d51b5f300000000000000000000000000000000000000000000006513f9ae9161ce90f4",
            "debugEnable": true,
            "errorInfo": "",
            "eventCount": 9,
            "feeRecipient": "0xea674fdde714fd979de3edf0f56aa9716b898ec8",
            "formatValue": "0.1",
            "gasLimit": 407496,
            "gasPrice": "106.197590724",
            "gasUsed": 225618,
            "intTxnCount": 28,
            "internalRevert": false,
            "internalRevertMessage": "",
            "isContractCreation": false,
            "isFlashloan": false,
            "maxFee": "106.197590724",
            "nonce": 658,
            "overwritedBlockNumber": -1,
            "priorityFee": "106.197590724",
            "receiver": "0xdef1c0ded9bec7f1a1670819833240f027b25eff",
            "revertMessage": "",
            "sender": "0x807c57d03e31628b5dc9595c722676cb3da1df1c",
            "simulationEnable": true,
            "sourceTxnHash": "0xc0d19425f5e3e06a4e5b0fa572dc81de753642bf1ad40a79b6b27ad5c414f045",
            "status": true,
            "timestamp": "2021-12-31T05:11:38Z",
            "transactionFee": "0.023960088023967432",
            "txnHash": "0xc0d19425f5e3e06a4e5b0fa572dc81de753642bf1ad40a79b6b27ad5c414f045",
            "txnIndex": 48,
            "type": 2,
            "value": "100000000000000000"
        },
        "fund_flow": [
            {
                "amount": "0.1",
                "from": "0x807c57d03e31628b5dc9595c722676cb3da1df1c",
                "id": 1,
                "isERC1155": false,
                "isERC721": false,
                "isReverted": false,
                "order": 1,
                "to": "0xdef1c0ded9bec7f1a1670819833240f027b25eff",
                "token": "0xeeeeeeeeeeeeeeeeeeeeeeeeeeeeeeeeeeeeeeee"
            },
            {
                "amount": "0.1",
                "from": "0xdef1c0ded9bec7f1a1670819833240f027b25eff",
                "id": 2,
                "isERC1155": false,
                "isERC721": false,
                "isReverted": false,
                "order": 2,
                "to": "0x22f9dcf4647084d6c31b2765f6910cd85c178c18",
                "token": "0xeeeeeeeeeeeeeeeeeeeeeeeeeeeeeeeeeeeeeeee"
            },
            {
                "amount": "0.1",
                "from": "0x22f9dcf4647084d6c31b2765f6910cd85c178c18",
                "id": 3,
                "isERC1155": false,
                "isERC721": false,
                "isReverted": false,
                "order": 3,
                "to": "0xc02aaa39b223fe8d0a0e5c4f27ead9083c756cc2",
                "token": "0xeeeeeeeeeeeeeeeeeeeeeeeeeeeeeeeeeeeeeeee"
            },
            {
                "amount": "0.1",
                "from": "0xc02aaa39b223fe8d0a0e5c4f27ead9083c756cc2",
                "id": 4,
                "isERC1155": false,
                "isERC721": false,
                "isReverted": false,
                "order": 4,
                "to": "0x22f9dcf4647084d6c31b2765f6910cd85c178c18",
                "token": "0xc02aaa39b223fe8d0a0e5c4f27ead9083c756cc2"
            },
            {
                "amount": "0.1",
                "from": "0x22f9dcf4647084d6c31b2765f6910cd85c178c18",
                "id": 5,
                "isERC1155": false,
                "isERC721": false,
                "isReverted": false,
                "order": 5,
                "to": "0x9a1071d17b8126679aeca3ef152f784bca339c3a",
                "token": "0xc02aaa39b223fe8d0a0e5c4f27ead9083c756cc2"
            },
            {
                "amount": "663,146.184505770614192098",
                "from": "0x9a1071d17b8126679aeca3ef152f784bca339c3a",
                "id": 6,
                "isERC1155": false,
                "isERC721": false,
                "isReverted": false,
                "order": 6,
                "to": "0x22f9dcf4647084d6c31b2765f6910cd85c178c18",
                "token": "0x9010a15184da16e3a7c5b4aa50094dfe3bb36989"
            },
            {
                "amount": "1,972.09557761729140383",
                "from": "0x22f9dcf4647084d6c31b2765f6910cd85c178c18",
                "id": 7,
                "isERC1155": false,
                "isERC721": false,
                "isReverted": false,
                "order": 7,
                "to": "0x96c195f6643a3d797cb90cb6ba0ae2776d51b5f3",
                "token": "0x9010a15184da16e3a7c5b4aa50094dfe3bb36989"
            },
            {
                "amount": "661,174.088928153322788268",
                "from": "0x22f9dcf4647084d6c31b2765f6910cd85c178c18",
                "id": 8,
                "isERC1155": false,
                "isERC721": false,
                "isReverted": false,
                "order": 8,
                "to": "0x807c57d03e31628b5dc9595c722676cb3da1df1c",
                "token": "0x9010a15184da16e3a7c5b4aa50094dfe3bb36989"
            }
        ],
        "token_infos": [
            {
                "address": "0x9010a15184da16e3a7c5b4aa50094dfe3bb36989",
                "decimals": 18
            },
            {
                "address": "0xc02aaa39b223fe8d0a0e5c4f27ead9083c756cc2",
                "decimals": 18
            },
            {
                "address": "0xeeeeeeeeeeeeeeeeeeeeeeeeeeeeeeeeeeeeeeee",
                "decimals": 18
            }
        ]
    },
    "address_label": {
        "labels": [
            {
                "address": "0xf164fc0ec4e93095b804a4795bbe1e041497b92a",
                "label": "Uniswap V2: Router"
            },
            {
                "address": "0x4638a7ebe75b911b995d0ec73a81e4f85f41f24e",
                "label": "0x: Pay Taker Transformer"
            },
            {
                "address": "0xb2bc06a4efb20fc6553a69dbfa49b7be938034a7",
                "label": "0x: WETH Transformer"
            },
            {
                "address": "0xb4fa284689c9784a60d840eb136bb16c5246191f",
                "label": "0x: Fill Quote Transformer"
            },
            {
                "address": "0xeeeeeeeeeeeeeeeeeeeeeeeeeeeeeeeeeeeeeeee",
                "label": "Ether"
            },
            {
                "address": "0xda6d9fc5998f550a094585cf9171f0e8ee3ac59f",
                "label": "0x: Affiliate Fee Transformer"
            },
            {
                "address": "0x0000000000000000000000000000000000000003",
                "label": "Precompiled"
            },
            {
                "address": "0x44a6999ec971cfca458aff25a808f272f6d492a2",
                "label": "TransformERC20Feature"
            },
            {
                "address": "0xc02aaa39b223fe8d0a0e5c4f27ead9083c756cc2",
                "label": "Wrapped Ether (WETH)"
            },
            {
                "address": "0x22f9dcf4647084d6c31b2765f6910cd85c178c18",
                "label": "0x: Exchange Proxy Flash Wallet"
            },
            {
                "address": "0x22b4fc7f97a9619cacbb9b99b5238797b88bc17c",
                "label": "BridgeAdapter"
            },
            {
                "address": "0x0000000000000000000000000000000000000001",
                "label": "Precompiled"
            },
            {
                "address": "0x0000000000000000000000000000000000000002",
                "label": "Precompiled"
            },
            {
                "address": "0x0000000000000000000000000000000000000004",
                "label": "Precompiled"
            },
            {
                "address": "0x9a1071d17b8126679aeca3ef152f784bca339c3a",
                "label": "Uniswap V2: YEAR 2"
            },
            {
                "address": "0x9010a15184da16e3a7c5b4aa50094dfe3bb36989",
                "label": "Etherwrapped Rug Contract"
            },
            {
                "address": "0xdef1c0ded9bec7f1a1670819833240f027b25eff",
                "label": "0x: Exchange Proxy"
            }
        ]
    },
    "trace": {
        "accountLabels": null,
        "dataMap": {
            "-1": {
                "invocation": {
                    "address": "0x807c57d03e31628b5dc9595c722676cb3da1df1c",
                    "callData": "",
                    "decodedMethod": null,
                    "errorInfo": "",
                    "fromAddress": "",
                    "gasUsed": 0,
                    "id": -1,
                    "methodDecoded": false,
                    "operation": "",
                    "output": "",
                    "revert": false,
                    "revertMessage": "",
                    "selector": "",
                    "status": false,
                    "value": ""
                },
                "nodeType": 0
            },
            "0": {
                "invocation": {
                    "address": "0xdef1c0ded9bec7f1a1670819833240f027b25eff",
                    "callData": "0x000000000000000000000000eeeeeeeeeeeeeeeeeeeeeeeeeeeeeeeeeeeeeeee0000000000000000000000009010a15184da16e3a7c5b4aa50094dfe3bb36989000000000000000000000000000000000000000000000000016345785d8a0000000000000000000000000000000000000000000000008b33d6a7803fec49374300000000000000000000000000000000000000000000000000000000000000a000000000000000000000000000000000000000000000000000000000000000040000000000000000000000000000000000000000000000000000000000000080000000000000000000000000000000000000000000000000000000000000012000000000000000000000000000000000000000000000000000000000000004800000000000000000000000000000000000000000000000000000000000000580000000000000000000000000000000000000000000000000000000000000000600000000000000000000000000000000000000000000000000000000000000400000000000000000000000000000000000000000000000000000000000000040000000000000000000000000eeeeeeeeeeeeeeeeeeeeeeeeeeeeeeeeeeeeeeee000000000000000000000000000000000000000000000000016345785d8a000000000000000000000000000000000000000000000000000000000000000000150000000000000000000000000000000000000000000000000000000000000040000000000000000000000000000000000000000000000000000000000000030000000000000000000000000000000000000000000000000000000000000000200000000000000000000000000000000000000000000000000000000000000000000000000000000000000000c02aaa39b223fe8d0a0e5c4f27ead9083c756cc20000000000000000000000009010a15184da16e3a7c5b4aa50094dfe3bb36989000000000000000000000000000000000000000000000000000000000000012000000000000000000000000000000000000000000000000000000000000002c000000000000000000000000000000000000000000000000000000000000002c000000000000000000000000000000000000000000000000000000000000002a0000000000000000000000000000000000000000000000000016345785d8a000000000000000000000000000000000000000000000000000000000000000000000000000000000000000000000000000000000000000000000000000000000001000000000000000000000000000000000000000000000000000000000000002000000000000000000000000000000002556e6973776170563200000000000000000000000000000000000000000000000000000000000000016345785d8a0000000000000000000000000000000000000000000000008b9ebefa6f7b81bb1979000000000000000000000000000000000000000000000000000000000000008000000000000000000000000000000000000000000000000000000000000000a0000000000000000000000000f164fc0ec4e93095b804a4795bbe1e041497b92a00000000000000000000000000000000000000000000000000000000000000400000000000000000000000000000000000000000000000000000000000000002000000000000000000000000c02aaa39b223fe8d0a0e5c4f27ead9083c756cc20000000000000000000000009010a15184da16e3a7c5b4aa50094dfe3bb36989000000000000000000000000000000000000000000000000000000000000000100000000000000000000000000000000000000000000000000000000000000000000000000000000000000000000000000000000000000000000000000000008000000000000000000000000000000000000000000000000000000000000004000000000000000000000000000000000000000000000000000000000000000a0000000000000000000000000000000000000000000000000000000000000002000000000000000000000000000000000000000000000000000000000000000010000000000000000000000009010a15184da16e3a7c5b4aa50094dfe3bb3698900000000000000000000000000000000000000000000006ae852ef3b9571e23600000000000000000000000096c195f6643a3d797cb90cb6ba0ae2776d51b5f30000000000000000000000000000000000000000000000000000000000000007000000000000000000000000000000000000000000000000000000000000004000000000000000000000000000000000000000000000000000000000000000e00000000000000000000000000000000000000000000000000000000000000020000000000000000000000000000000000000000000000000000000000000004000000000000000000000000000000000000000000000000000000000000000a00000000000000000000000000000000000000000000000000000000000000002000000000000000000000000c02aaa39b223fe8d0a0e5c4f27ead9083c756cc2000000000000000000000000eeeeeeeeeeeeeeeeeeeeeeeeeeeeeeeeeeeeeeee0000000000000000000000000000000000000000000000000000000000000000869584cd00000000000000000000000096c195f6643a3d797cb90cb6ba0ae2776d51b5f300000000000000000000000000000000000000000000006513f9ae9161ce90f4",
                    "decodedMethod": {
                        "callParams": [
                            {
                                "name": "inputToken",
                                "type": "address",
                                "value": "0xeeeeeeeeeeeeeeeeeeeeeeeeeeeeeeeeeeeeeeee"
                            },
                            {
                                "name": "outputToken",
                                "type": "address",
                                "value": "0x9010a15184da16e3a7c5b4aa50094dfe3bb36989"
                            },
                            {
                                "name": "inputTokenAmount",
                                "type": "uint256",
                                "value": "100,000,000,000,000,000"
                            },
                            {
                                "name": "minOutputTokenAmount",
                                "type": "uint256",
                                "value": "657,365,192,539,097,134,610,243"
                            },
                            {
                                "name": "transformations",
                                "type": "(uint32,bytes)[]",
                                "value": [
                                    [
                                        {
                                            "name": "deploymentNonce",
                                            "type": "uint32",
                                            "value": "6"
                                        },
                                        {
                                            "name": "data",
                                            "type": "bytes",
                                            "value": "0x000000000000000000000000eeeeeeeeeeeeeeeeeeeeeeeeeeeeeeeeeeeeeeee000000000000000000000000000000000000000000000000016345785d8a0000"
                                        }
                                    ],
                                    [
                                        {
                                            "name": "deploymentNonce",
                                            "type": "uint32",
                                            "value": "21"
                                        },
                                        {
                                            "name": "data",
                                            "type": "bytes",
                                            "value": "0x00000000000000000000000000000000000000000000000000000000000000200000000000000000000000000000000000000000000000000000000000000000000000000000000000000000c02aaa39b223fe8d0a0e5c4f27ead9083c756cc20000000000000000000000009010a15184da16e3a7c5b4aa50094dfe3bb36989000000000000000000000000000000000000000000000000000000000000012000000000000000000000000000000000000000000000000000000000000002c000000000000000000000000000000000000000000000000000000000000002c000000000000000000000000000000000000000000000000000000000000002a0000000000000000000000000000000000000000000000000016345785d8a000000000000000000000000000000000000000000000000000000000000000000000000000000000000000000000000000000000000000000000000000000000001000000000000000000000000000000000000000000000000000000000000002000000000000000000000000000000002556e6973776170563200000000000000000000000000000000000000000000000000000000000000016345785d8a0000000000000000000000000000000000000000000000008b9ebefa6f7b81bb1979000000000000000000000000000000000000000000000000000000000000008000000000000000000000000000000000000000000000000000000000000000a0000000000000000000000000f164fc0ec4e93095b804a4795bbe1e041497b92a00000000000000000000000000000000000000000000000000000000000000400000000000000000000000000000000000000000000000000000000000000002000000000000000000000000c02aaa39b223fe8d0a0e5c4f27ead9083c756cc20000000000000000000000009010a15184da16e3a7c5b4aa50094dfe3bb3698900000000000000000000000000000000000000000000000000000000000000010000000000000000000000000000000000000000000000000000000000000000"
                                        }
                                    ],
                                    [
                                        {
                                            "name": "deploymentNonce",
                                            "type": "uint32",
                                            "value": "8"
                                        },
                                        {
                                            "name": "data",
                                            "type": "bytes",
                                            "value": "0x000000000000000000000000000000000000000000000000000000000000002000000000000000000000000000000000000000000000000000000000000000010000000000000000000000009010a15184da16e3a7c5b4aa50094dfe3bb3698900000000000000000000000000000000000000000000006ae852ef3b9571e23600000000000000000000000096c195f6643a3d797cb90cb6ba0ae2776d51b5f3"
                                        }
                                    ],
                                    [
                                        {
                                            "name": "deploymentNonce",
                                            "type": "uint32",
                                            "value": "7"
                                        },
                                        {
                                            "name": "data",
                                            "type": "bytes",
                                            "value": "0x0000000000000000000000000000000000000000000000000000000000000020000000000000000000000000000000000000000000000000000000000000004000000000000000000000000000000000000000000000000000000000000000a00000000000000000000000000000000000000000000000000000000000000002000000000000000000000000c02aaa39b223fe8d0a0e5c4f27ead9083c756cc2000000000000000000000000eeeeeeeeeeeeeeeeeeeeeeeeeeeeeeeeeeeeeeee0000000000000000000000000000000000000000000000000000000000000000"
                                        }
                                    ]
                                ]
                            }
                        ],
                        "constructorArguments": "",
                        "name": "transformERC20",
                        "returnParams": [
                            {
                                "name": "outputTokenAmount",
                                "type": "uint256",
                                "value": "661,174,088,928,153,322,788,268"
                            }
                        ],
                        "signature": "transformERC20(address,address,uint256,uint256,(uint32,bytes)[])"
                    },
                    "errorInfo": "",
                    "fromAddress": "0x807c57d03e31628b5dc9595c722676cb3da1df1c",
                    "gasUsed": 225618,
                    "id": 0,
                    "methodDecoded": true,
                    "operation": "CALL",
                    "output": "0x000000000000000000000000000000000000000000008c0251b5cdb2c66e15ac",
                    "revert": false,
                    "revertMessage": "",
                    "selector": "0x415565b0",
                    "status": true,
                    "value": "0.1"
                },
                "nodeType": 0
            },
            "1": {
                "invocation": {
                    "address": "0x44a6999ec971cfca458aff25a808f272f6d492a2",
                    "callData": "0x000000000000000000000000eeeeeeeeeeeeeeeeeeeeeeeeeeeeeeeeeeeeeeee0000000000000000000000009010a15184da16e3a7c5b4aa50094dfe3bb36989000000000000000000000000000000000000000000000000016345785d8a0000000000000000000000000000000000000000000000008b33d6a7803fec49374300000000000000000000000000000000000000000000000000000000000000a000000000000000000000000000000000000000000000000000000000000000040000000000000000000000000000000000000000000000000000000000000080000000000000000000000000000000000000000000000000000000000000012000000000000000000000000000000000000000000000000000000000000004800000000000000000000000000000000000000000000000000000000000000580000000000000000000000000000000000000000000000000000000000000000600000000000000000000000000000000000000000000000000000000000000400000000000000000000000000000000000000000000000000000000000000040000000000000000000000000eeeeeeeeeeeeeeeeeeeeeeeeeeeeeeeeeeeeeeee000000000000000000000000000000000000000000000000016345785d8a000000000000000000000000000000000000000000000000000000000000000000150000000000000000000000000000000000000000000000000000000000000040000000000000000000000000000000000000000000000000000000000000030000000000000000000000000000000000000000000000000000000000000000200000000000000000000000000000000000000000000000000000000000000000000000000000000000000000c02aaa39b223fe8d0a0e5c4f27ead9083c756cc20000000000000000000000009010a15184da16e3a7c5b4aa50094dfe3bb36989000000000000000000000000000000000000000000000000000000000000012000000000000000000000000000000000000000000000000000000000000002c000000000000000000000000000000000000000000000000000000000000002c000000000000000000000000000000000000000000000000000000000000002a0000000000000000000000000000000000000000000000000016345785d8a000000000000000000000000000000000000000000000000000000000000000000000000000000000000000000000000000000000000000000000000000000000001000000000000000000000000000000000000000000000000000000000000002000000000000000000000000000000002556e6973776170563200000000000000000000000000000000000000000000000000000000000000016345785d8a0000000000000000000000000000000000000000000000008b9ebefa6f7b81bb1979000000000000000000000000000000000000000000000000000000000000008000000000000000000000000000000000000000000000000000000000000000a0000000000000000000000000f164fc0ec4e93095b804a4795bbe1e041497b92a00000000000000000000000000000000000000000000000000000000000000400000000000000000000000000000000000000000000000000000000000000002000000000000000000000000c02aaa39b223fe8d0a0e5c4f27ead9083c756cc20000000000000000000000009010a15184da16e3a7c5b4aa50094dfe3bb36989000000000000000000000000000000000000000000000000000000000000000100000000000000000000000000000000000000000000000000000000000000000000000000000000000000000000000000000000000000000000000000000008000000000000000000000000000000000000000000000000000000000000004000000000000000000000000000000000000000000000000000000000000000a0000000000000000000000000000000000000000000000000000000000000002000000000000000000000000000000000000000000000000000000000000000010000000000000000000000009010a15184da16e3a7c5b4aa50094dfe3bb3698900000000000000000000000000000000000000000000006ae852ef3b9571e23600000000000000000000000096c195f6643a3d797cb90cb6ba0ae2776d51b5f30000000000000000000000000000000000000000000000000000000000000007000000000000000000000000000000000000000000000000000000000000004000000000000000000000000000000000000000000000000000000000000000e00000000000000000000000000000000000000000000000000000000000000020000000000000000000000000000000000000000000000000000000000000004000000000000000000000000000000000000000000000000000000000000000a00000000000000000000000000000000000000000000000000000000000000002000000000000000000000000c02aaa39b223fe8d0a0e5c4f27ead9083c756cc2000000000000000000000000eeeeeeeeeeeeeeeeeeeeeeeeeeeeeeeeeeeeeeee0000000000000000000000000000000000000000000000000000000000000000869584cd00000000000000000000000096c195f6643a3d797cb90cb6ba0ae2776d51b5f300000000000000000000000000000000000000000000006513f9ae9161ce90f4",
                    "decodedMethod": {
                        "callParams": [
                            {
                                "name": "inputToken",
                                "type": "address",
                                "value": "0xeeeeeeeeeeeeeeeeeeeeeeeeeeeeeeeeeeeeeeee"
                            },
                            {
                                "name": "outputToken",
                                "type": "address",
                                "value": "0x9010a15184da16e3a7c5b4aa50094dfe3bb36989"
                            },
                            {
                                "name": "inputTokenAmount",
                                "type": "uint256",
                                "value": "100,000,000,000,000,000"
                            },
                            {
                                "name": "minOutputTokenAmount",
                                "type": "uint256",
                                "value": "657,365,192,539,097,134,610,243"
                            },
                            {
                                "name": "transformations",
                                "type": "(uint32,bytes)[]",
                                "value": [
                                    [
                                        {
                                            "name": "deploymentNonce",
                                            "type": "uint32",
                                            "value": "6"
                                        },
                                        {
                                            "name": "data",
                                            "type": "bytes",
                                            "value": "0x000000000000000000000000eeeeeeeeeeeeeeeeeeeeeeeeeeeeeeeeeeeeeeee000000000000000000000000000000000000000000000000016345785d8a0000"
                                        }
                                    ],
                                    [
                                        {
                                            "name": "deploymentNonce",
                                            "type": "uint32",
                                            "value": "21"
                                        },
                                        {
                                            "name": "data",
                                            "type": "bytes",
                                            "value": "0x00000000000000000000000000000000000000000000000000000000000000200000000000000000000000000000000000000000000000000000000000000000000000000000000000000000c02aaa39b223fe8d0a0e5c4f27ead9083c756cc20000000000000000000000009010a15184da16e3a7c5b4aa50094dfe3bb36989000000000000000000000000000000000000000000000000000000000000012000000000000000000000000000000000000000000000000000000000000002c000000000000000000000000000000000000000000000000000000000000002c000000000000000000000000000000000000000000000000000000000000002a0000000000000000000000000000000000000000000000000016345785d8a000000000000000000000000000000000000000000000000000000000000000000000000000000000000000000000000000000000000000000000000000000000001000000000000000000000000000000000000000000000000000000000000002000000000000000000000000000000002556e6973776170563200000000000000000000000000000000000000000000000000000000000000016345785d8a0000000000000000000000000000000000000000000000008b9ebefa6f7b81bb1979000000000000000000000000000000000000000000000000000000000000008000000000000000000000000000000000000000000000000000000000000000a0000000000000000000000000f164fc0ec4e93095b804a4795bbe1e041497b92a00000000000000000000000000000000000000000000000000000000000000400000000000000000000000000000000000000000000000000000000000000002000000000000000000000000c02aaa39b223fe8d0a0e5c4f27ead9083c756cc20000000000000000000000009010a15184da16e3a7c5b4aa50094dfe3bb3698900000000000000000000000000000000000000000000000000000000000000010000000000000000000000000000000000000000000000000000000000000000"
                                        }
                                    ],
                                    [
                                        {
                                            "name": "deploymentNonce",
                                            "type": "uint32",
                                            "value": "8"
                                        },
                                        {
                                            "name": "data",
                                            "type": "bytes",
                                            "value": "0x000000000000000000000000000000000000000000000000000000000000002000000000000000000000000000000000000000000000000000000000000000010000000000000000000000009010a15184da16e3a7c5b4aa50094dfe3bb3698900000000000000000000000000000000000000000000006ae852ef3b9571e23600000000000000000000000096c195f6643a3d797cb90cb6ba0ae2776d51b5f3"
                                        }
                                    ],
                                    [
                                        {
                                            "name": "deploymentNonce",
                                            "type": "uint32",
                                            "value": "7"
                                        },
                                        {
                                            "name": "data",
                                            "type": "bytes",
                                            "value": "0x0000000000000000000000000000000000000000000000000000000000000020000000000000000000000000000000000000000000000000000000000000004000000000000000000000000000000000000000000000000000000000000000a00000000000000000000000000000000000000000000000000000000000000002000000000000000000000000c02aaa39b223fe8d0a0e5c4f27ead9083c756cc2000000000000000000000000eeeeeeeeeeeeeeeeeeeeeeeeeeeeeeeeeeeeeeee0000000000000000000000000000000000000000000000000000000000000000"
                                        }
                                    ]
                                ]
                            }
                        ],
                        "constructorArguments": "",
                        "name": "transformERC20",
                        "returnParams": [
                            {
                                "name": "outputTokenAmount",
                                "type": "uint256",
                                "value": "661,174,088,928,153,322,788,268"
                            }
                        ],
                        "signature": "transformERC20(address,address,uint256,uint256,(uint32,bytes)[])"
                    },
                    "errorInfo": "",
                    "fromAddress": "0xdef1c0ded9bec7f1a1670819833240f027b25eff",
                    "gasUsed": 228231,
                    "id": 1,
                    "methodDecoded": true,
                    "operation": "DELEGATECALL",
                    "output": "0x000000000000000000000000000000000000000000008c0251b5cdb2c66e15ac",
                    "revert": false,
                    "revertMessage": "",
                    "selector": "0x415565b0",
                    "status": true,
                    "value": "0.1"
                },
                "nodeType": 0
            },
            "10": {
                "invocation": {
                    "address": "0xc02aaa39b223fe8d0a0e5c4f27ead9083c756cc2",
                    "callData": "0x00000000000000000000000022f9dcf4647084d6c31b2765f6910cd85c178c18",
                    "decodedMethod": {
                        "callParams": [
                            {
                                "name": "",
                                "type": "address",
                                "value": "0x22f9dcf4647084d6c31b2765f6910cd85c178c18"
                            }
                        ],
                        "constructorArguments": "",
                        "name": "balanceOf",
                        "returnParams": [
                            {
                                "decimalAvailable": true,
                                "name": "",
                                "type": "uint256",
                                "value": "100,000,000,000,000,000"
                            }
                        ],
                        "signature": "balanceOf(address)"
                    },
                    "errorInfo": "",
                    "fromAddress": "0x22f9dcf4647084d6c31b2765f6910cd85c178c18",
                    "gasUsed": 534,
                    "id": 10,
                    "methodDecoded": true,
                    "operation": "STATICCALL",
                    "output": "0x000000000000000000000000000000000000000000000000016345785d8a0000",
                    "revert": false,
                    "revertMessage": "",
                    "selector": "0x70a08231",
                    "status": true,
                    "value": "0"
                },
                "nodeType": 0
            },
            "11": {
                "invocation": {
                    "address": "0x22b4fc7f97a9619cacbb9b99b5238797b88bc17c",
                    "callData": "0x0000000000000000000000000000000000000000000000000000000000000080000000000000000000000000c02aaa39b223fe8d0a0e5c4f27ead9083c756cc20000000000000000000000009010a15184da16e3a7c5b4aa50094dfe3bb36989000000000000000000000000000000000000000000000000016345785d8a000000000000000000000000000000000002556e6973776170563200000000000000000000000000000000000000000000000000000000000000016345785d8a0000000000000000000000000000000000000000000000008b9ebefa6f7b81bb1979000000000000000000000000000000000000000000000000000000000000008000000000000000000000000000000000000000000000000000000000000000a0000000000000000000000000f164fc0ec4e93095b804a4795bbe1e041497b92a00000000000000000000000000000000000000000000000000000000000000400000000000000000000000000000000000000000000000000000000000000002000000000000000000000000c02aaa39b223fe8d0a0e5c4f27ead9083c756cc20000000000000000000000009010a15184da16e3a7c5b4aa50094dfe3bb36989",
                    "decodedMethod": {
                        "callParams": [
                            {
                                "name": "order",
                                "type": "(bytes32,uint256,uint256,bytes)",
                                "value": [
                                    {
                                        "name": "source",
                                        "type": "bytes32",
                                        "value": "0x00000000000000000000000000000002556e6973776170563200000000000000"
                                    },
                                    {
                                        "name": "takerTokenAmount",
                                        "type": "uint256",
                                        "value": "100,000,000,000,000,000"
                                    },
                                    {
                                        "name": "makerTokenAmount",
                                        "type": "uint256",
                                        "value": "659,337,288,116,714,426,014,073"
                                    },
                                    {
                                        "name": "bridgeData",
                                        "type": "bytes",
                                        "value": "0x000000000000000000000000f164fc0ec4e93095b804a4795bbe1e041497b92a00000000000000000000000000000000000000000000000000000000000000400000000000000000000000000000000000000000000000000000000000000002000000000000000000000000c02aaa39b223fe8d0a0e5c4f27ead9083c756cc20000000000000000000000009010a15184da16e3a7c5b4aa50094dfe3bb36989"
                                    }
                                ]
                            },
                            {
                                "name": "sellToken",
                                "type": "address",
                                "value": "0xc02aaa39b223fe8d0a0e5c4f27ead9083c756cc2"
                            },
                            {
                                "name": "buyToken",
                                "type": "address",
                                "value": "0x9010a15184da16e3a7c5b4aa50094dfe3bb36989"
                            },
                            {
                                "name": "sellAmount",
                                "type": "uint256",
                                "value": "100,000,000,000,000,000"
                            }
                        ],
                        "constructorArguments": "",
                        "name": "trade",
                        "returnParams": [
                            {
                                "name": "boughtAmount",
                                "type": "uint256",
                                "value": "663,146,184,505,770,614,192,098"
                            }
                        ],
                        "signature": "trade((bytes32,uint256,uint256,bytes),address,address,uint256)"
                    },
                    "errorInfo": "",
                    "fromAddress": "0x22f9dcf4647084d6c31b2765f6910cd85c178c18",
                    "gasUsed": 88615,
                    "id": 11,
                    "methodDecoded": true,
                    "operation": "DELEGATECALL",
                    "output": "0x000000000000000000000000000000000000000000008c6d3a08bcee5bdff7e2",
                    "revert": false,
                    "revertMessage": "",
                    "selector": "0xf712a148",
                    "status": true,
                    "value": "0"
                },
                "nodeType": 0
            },
            "12": {
                "invocation": {
                    "address": "0xc02aaa39b223fe8d0a0e5c4f27ead9083c756cc2",
                    "callData": "0x00000000000000000000000022f9dcf4647084d6c31b2765f6910cd85c178c18000000000000000000000000f164fc0ec4e93095b804a4795bbe1e041497b92a",
                    "decodedMethod": {
                        "callParams": [
                            {
                                "name": "",
                                "type": "address",
                                "value": "0x22f9dcf4647084d6c31b2765f6910cd85c178c18"
                            },
                            {
                                "name": "",
                                "type": "address",
                                "value": "0xf164fc0ec4e93095b804a4795bbe1e041497b92a"
                            }
                        ],
                        "constructorArguments": "",
                        "name": "allowance",
                        "returnParams": [
                            {
                                "decimalAvailable": true,
                                "name": "",
                                "type": "uint256",
                                "value": "115,792,089,237,316,195,423,570,985,008,687,907,853,269,984,665,640,564,039,457,584,007,913,129,639,935"
                            }
                        ],
                        "signature": "allowance(address,address)"
                    },
                    "errorInfo": "",
                    "fromAddress": "0x22f9dcf4647084d6c31b2765f6910cd85c178c18",
                    "gasUsed": 2717,
                    "id": 12,
                    "methodDecoded": true,
                    "operation": "STATICCALL",
                    "output": "0xffffffffffffffffffffffffffffffffffffffffffffffffffffffffffffffff",
                    "revert": false,
                    "revertMessage": "",
                    "selector": "0xdd62ed3e",
                    "status": true,
                    "value": "0"
                },
                "nodeType": 0
            },
            "13": {
                "invocation": {
                    "address": "0xf164fc0ec4e93095b804a4795bbe1e041497b92a",
                    "callData": "0x000000000000000000000000000000000000000000000000016345785d8a0000000000000000000000000000000000000000000000000000000000000000000100000000000000000000000000000000000000000000000000000000000000a000000000000000000000000022f9dcf4647084d6c31b2765f6910cd85c178c180000000000000000000000000000000000000000000000000000000061ce910a0000000000000000000000000000000000000000000000000000000000000002000000000000000000000000c02aaa39b223fe8d0a0e5c4f27ead9083c756cc20000000000000000000000009010a15184da16e3a7c5b4aa50094dfe3bb36989",
                    "decodedMethod": {
                        "callParams": [
                            {
                                "name": "amountIn",
                                "type": "uint256",
                                "value": "100,000,000,000,000,000"
                            },
                            {
                                "name": "amountOutMin",
                                "type": "uint256",
                                "value": "1"
                            },
                            {
                                "name": "path",
                                "type": "address[]",
                                "value": [
                                    "0xc02aaa39b223fe8d0a0e5c4f27ead9083c756cc2",
                                    "0x9010a15184da16e3a7c5b4aa50094dfe3bb36989"
                                ]
                            },
                            {
                                "name": "to",
                                "type": "address",
                                "value": "0x22f9dcf4647084d6c31b2765f6910cd85c178c18"
                            },
                            {
                                "name": "deadline",
                                "type": "uint256",
                                "value": "1,640,927,498"
                            }
                        ],
                        "constructorArguments": "",
                        "name": "swapExactTokensForTokens",
                        "returnParams": [
                            {
                                "name": "amounts",
                                "type": "uint256[]",
                                "value": [
                                    "100,000,000,000,000,000",
                                    "663,146,184,505,770,614,192,098"
                                ]
                            }
                        ],
                        "signature": "swapExactTokensForTokens(uint256,uint256,address[],address,uint256)"
                    },
                    "errorInfo": "",
                    "fromAddress": "0x22f9dcf4647084d6c31b2765f6910cd85c178c18",
                    "gasUsed": 76413,
                    "id": 13,
                    "methodDecoded": true,
                    "operation": "CALL",
                    "output": "0x00000000000000000000000000000000000000000000000000000000000000200000000000000000000000000000000000000000000000000000000000000002000000000000000000000000000000000000000000000000016345785d8a0000000000000000000000000000000000000000000000008c6d3a08bcee5bdff7e2",
                    "revert": false,
                    "revertMessage": "",
                    "selector": "0x38ed1739",
                    "status": true,
                    "value": "0"
                },
                "nodeType": 0
            },
            "14": {
                "invocation": {
                    "address": "0x9a1071d17b8126679aeca3ef152f784bca339c3a",
                    "callData": "0x",
                    "decodedMethod": {
                        "callParams": [],
                        "constructorArguments": "",
                        "name": "getReserves",
                        "returnParams": [
                            {
                                "name": "_reserve0",
                                "type": "uint112",
                                "value": "169,190,608,610,313,398,940,404,842"
                            },
                            {
                                "name": "_reserve1",
                                "type": "uint112",
                                "value": "25,337,080,113,603,232,275"
                            },
                            {
                                "name": "_blockTimestampLast",
                                "type": "uint32",
                                "value": "1,640,927,498"
                            }
                        ],
                        "signature": "getReserves()"
                    },
                    "errorInfo": "",
                    "fromAddress": "0xf164fc0ec4e93095b804a4795bbe1e041497b92a",
                    "gasUsed": 2504,
                    "id": 14,
                    "methodDecoded": true,
                    "operation": "STATICCALL",
                    "output": "0x0000000000000000000000000000000000000000008bf381455e713592c10c6a0000000000000000000000000000000000000000000000015f9f641f28ef42130000000000000000000000000000000000000000000000000000000061ce910a",
                    "revert": false,
                    "revertMessage": "",
                    "selector": "0x0902f1ac",
                    "status": true,
                    "value": "0"
                },
                "nodeType": 0
            },
            "15": {
                "invocation": {
                    "address": "0xc02aaa39b223fe8d0a0e5c4f27ead9083c756cc2",
                    "callData": "0x00000000000000000000000022f9dcf4647084d6c31b2765f6910cd85c178c180000000000000000000000009a1071d17b8126679aeca3ef152f784bca339c3a000000000000000000000000000000000000000000000000016345785d8a0000",
                    "decodedMethod": {
                        "callParams": [
                            {
                                "name": "src",
                                "type": "address",
                                "value": "0x22f9dcf4647084d6c31b2765f6910cd85c178c18"
                            },
                            {
                                "name": "dst",
                                "type": "address",
                                "value": "0x9a1071d17b8126679aeca3ef152f784bca339c3a"
                            },
                            {
                                "decimalAvailable": true,
                                "name": "wad",
                                "type": "uint256",
                                "value": "100,000,000,000,000,000"
                            }
                        ],
                        "constructorArguments": "",
                        "name": "transferFrom",
                        "returnParams": [
                            {
                                "name": "",
                                "type": "bool",
                                "value": true
                            }
                        ],
                        "signature": "transferFrom(address,address,uint256)"
                    },
                    "errorInfo": "",
                    "fromAddress": "0xf164fc0ec4e93095b804a4795bbe1e041497b92a",
                    "gasUsed": 8225,
                    "id": 15,
                    "methodDecoded": true,
                    "operation": "CALL",
                    "output": "0x0000000000000000000000000000000000000000000000000000000000000001",
                    "revert": false,
                    "revertMessage": "",
                    "selector": "0x23b872dd",
                    "status": true,
                    "value": "0"
                },
                "nodeType": 0
            },
            "16": {
                "event": {
                    "contract": "0xc02aaa39b223fe8d0a0e5c4f27ead9083c756cc2",
                    "decodedLog": {
                        "name": "Transfer",
                        "params": [
                            {
                                "name": "src",
                                "type": "address",
                                "value": "0x22f9dcf4647084d6c31b2765f6910cd85c178c18"
                            },
                            {
                                "name": "dst",
                                "type": "address",
                                "value": "0x9a1071d17b8126679aeca3ef152f784bca339c3a"
                            },
                            {
                                "decimalAvailable": true,
                                "name": "wad",
                                "type": "uint256",
                                "value": "100,000,000,000,000,000"
                            }
                        ],
                        "signature": "Transfer(address,address,uint256)"
                    },
                    "id": 16,
                    "logData": "0x000000000000000000000000000000000000000000000000016345785d8a0000",
                    "logDecoded": true,
                    "operation": "EVENT",
                    "revert": false,
                    "status": true,
                    "topics": [
                        "0xddf252ad1be2c89b69c2b068fc378daa952ba7f163c4a11628f55a4df523b3ef",
                        "0x00000000000000000000000022f9dcf4647084d6c31b2765f6910cd85c178c18",
                        "0x0000000000000000000000009a1071d17b8126679aeca3ef152f784bca339c3a"
                    ]
                },
                "nodeType": 1
            },
            "17": {
                "invocation": {
                    "address": "0x9a1071d17b8126679aeca3ef152f784bca339c3a",
                    "callData": "0x000000000000000000000000000000000000000000008c6d3a08bcee5bdff7e2000000000000000000000000000000000000000000000000000000000000000000000000000000000000000022f9dcf4647084d6c31b2765f6910cd85c178c1800000000000000000000000000000000000000000000000000000000000000800000000000000000000000000000000000000000000000000000000000000000",
                    "decodedMethod": {
                        "callParams": [
                            {
                                "name": "amount0Out",
                                "type": "uint256",
                                "value": "663,146,184,505,770,614,192,098"
                            },
                            {
                                "name": "amount1Out",
                                "type": "uint256",
                                "value": "0"
                            },
                            {
                                "name": "to",
                                "type": "address",
                                "value": "0x22f9dcf4647084d6c31b2765f6910cd85c178c18"
                            },
                            {
                                "name": "data",
                                "type": "bytes",
                                "value": "0x"
                            }
                        ],
                        "constructorArguments": "",
                        "name": "swap",
                        "returnParams": [],
                        "signature": "swap(uint256,uint256,address,bytes)"
                    },
                    "errorInfo": "",
                    "fromAddress": "0xf164fc0ec4e93095b804a4795bbe1e041497b92a",
                    "gasUsed": 55387,
                    "id": 17,
                    "methodDecoded": true,
                    "operation": "CALL",
                    "output": "",
                    "revert": false,
                    "revertMessage": "",
                    "selector": "0x022c0d9f",
                    "status": true,
                    "value": "0"
                },
                "nodeType": 0
            },
            "18": {
                "invocation": {
                    "address": "0x9010a15184da16e3a7c5b4aa50094dfe3bb36989",
                    "callData": "0x00000000000000000000000022f9dcf4647084d6c31b2765f6910cd85c178c18000000000000000000000000000000000000000000008c6d3a08bcee5bdff7e2",
                    "decodedMethod": {
                        "callParams": [
                            {
                                "name": "recipient",
                                "type": "address",
                                "value": "0x22f9dcf4647084d6c31b2765f6910cd85c178c18"
                            },
                            {
                                "decimalAvailable": true,
                                "name": "amount",
                                "type": "uint256",
                                "value": "663,146,184,505,770,614,192,098"
                            }
                        ],
                        "constructorArguments": "",
                        "name": "transfer",
                        "returnParams": [
                            {
                                "name": "",
                                "type": "bool",
                                "value": true
                            }
                        ],
                        "signature": "transfer(address,uint256)"
                    },
                    "errorInfo": "",
                    "fromAddress": "0x9a1071d17b8126679aeca3ef152f784bca339c3a",
                    "gasUsed": 33038,
                    "id": 18,
                    "methodDecoded": true,
                    "operation": "CALL",
                    "output": "0x0000000000000000000000000000000000000000000000000000000000000001",
                    "revert": false,
                    "revertMessage": "",
                    "selector": "0xa9059cbb",
                    "status": true,
                    "value": "0"
                },
                "nodeType": 0
            },
            "19": {
                "event": {
                    "contract": "0x9010a15184da16e3a7c5b4aa50094dfe3bb36989",
                    "decodedLog": {
                        "name": "Transfer",
                        "params": [
                            {
                                "name": "from",
                                "type": "address",
                                "value": "0x9a1071d17b8126679aeca3ef152f784bca339c3a"
                            },
                            {
                                "name": "to",
                                "type": "address",
                                "value": "0x22f9dcf4647084d6c31b2765f6910cd85c178c18"
                            },
                            {
                                "decimalAvailable": true,
                                "name": "value",
                                "type": "uint256",
                                "value": "663,146,184,505,770,614,192,098"
                            }
                        ],
                        "signature": "Transfer(address,address,uint256)"
                    },
                    "id": 19,
                    "logData": "0x000000000000000000000000000000000000000000008c6d3a08bcee5bdff7e2",
                    "logDecoded": true,
                    "operation": "EVENT",
                    "revert": false,
                    "status": true,
                    "topics": [
                        "0xddf252ad1be2c89b69c2b068fc378daa952ba7f163c4a11628f55a4df523b3ef",
                        "0x0000000000000000000000009a1071d17b8126679aeca3ef152f784bca339c3a",
                        "0x00000000000000000000000022f9dcf4647084d6c31b2765f6910cd85c178c18"
                    ]
                },
                "nodeType": 1
            },
            "2": {
                "invocation": {
                    "address": "0x9010a15184da16e3a7c5b4aa50094dfe3bb36989",
                    "callData": "0x000000000000000000000000807c57d03e31628b5dc9595c722676cb3da1df1c",
                    "decodedMethod": {
                        "callParams": [
                            {
                                "name": "account",
                                "type": "address",
                                "value": "0x807c57d03e31628b5dc9595c722676cb3da1df1c"
                            }
                        ],
                        "constructorArguments": "",
                        "name": "balanceOf",
                        "returnParams": [
                            {
                                "decimalAvailable": true,
                                "name": "",
                                "type": "uint256",
                                "value": "690,749,000,000,000,000,000,000"
                            }
                        ],
                        "signature": "balanceOf(address)"
                    },
                    "errorInfo": "",
                    "fromAddress": "0xdef1c0ded9bec7f1a1670819833240f027b25eff",
                    "gasUsed": 2908,
                    "id": 2,
                    "methodDecoded": true,
                    "operation": "STATICCALL",
                    "output": "0x000000000000000000000000000000000000000000009245940ceaf2cad40000",
                    "revert": false,
                    "revertMessage": "",
                    "selector": "0x70a08231",
                    "status": true,
                    "value": "0"
                },
                "nodeType": 0
            },
            "20": {
                "invocation": {
                    "address": "0x9010a15184da16e3a7c5b4aa50094dfe3bb36989",
                    "callData": "0x0000000000000000000000009a1071d17b8126679aeca3ef152f784bca339c3a",
                    "decodedMethod": {
                        "callParams": [
                            {
                                "name": "account",
                                "type": "address",
                                "value": "0x9a1071d17b8126679aeca3ef152f784bca339c3a"
                            }
                        ],
                        "constructorArguments": "",
                        "name": "balanceOf",
                        "returnParams": [
                            {
                                "decimalAvailable": true,
                                "name": "",
                                "type": "uint256",
                                "value": "168,527,462,425,807,628,326,212,744"
                            }
                        ],
                        "signature": "balanceOf(address)"
                    },
                    "errorInfo": "",
                    "fromAddress": "0x9a1071d17b8126679aeca3ef152f784bca339c3a",
                    "gasUsed": 908,
                    "id": 20,
                    "methodDecoded": true,
                    "operation": "STATICCALL",
                    "output": "0x0000000000000000000000000000000000000000008b67140b55b44736e11488",
                    "revert": false,
                    "revertMessage": "",
                    "selector": "0x70a08231",
                    "status": true,
                    "value": "0"
                },
                "nodeType": 0
            },
            "21": {
                "invocation": {
                    "address": "0xc02aaa39b223fe8d0a0e5c4f27ead9083c756cc2",
                    "callData": "0x0000000000000000000000009a1071d17b8126679aeca3ef152f784bca339c3a",
                    "decodedMethod": {
                        "callParams": [
                            {
                                "name": "",
                                "type": "address",
                                "value": "0x9a1071d17b8126679aeca3ef152f784bca339c3a"
                            }
                        ],
                        "constructorArguments": "",
                        "name": "balanceOf",
                        "returnParams": [
                            {
                                "decimalAvailable": true,
                                "name": "",
                                "type": "uint256",
                                "value": "25,437,080,113,603,232,275"
                            }
                        ],
                        "signature": "balanceOf(address)"
                    },
                    "errorInfo": "",
                    "fromAddress": "0x9a1071d17b8126679aeca3ef152f784bca339c3a",
                    "gasUsed": 534,
                    "id": 21,
                    "methodDecoded": true,
                    "operation": "STATICCALL",
                    "output": "0x0000000000000000000000000000000000000000000000016102a99786794213",
                    "revert": false,
                    "revertMessage": "",
                    "selector": "0x70a08231",
                    "status": true,
                    "value": "0"
                },
                "nodeType": 0
            },
            "22": {
                "event": {
                    "contract": "0x9a1071d17b8126679aeca3ef152f784bca339c3a",
                    "decodedLog": {
                        "name": "Sync",
                        "params": [
                            {
                                "name": "reserve0",
                                "type": "uint112",
                                "value": "168,527,462,425,807,628,326,212,744"
                            },
                            {
                                "name": "reserve1",
                                "type": "uint112",
                                "value": "25,437,080,113,603,232,275"
                            }
                        ],
                        "signature": "Sync(uint112,uint112)"
                    },
                    "id": 22,
                    "logData": "0x0000000000000000000000000000000000000000008b67140b55b44736e114880000000000000000000000000000000000000000000000016102a99786794213",
                    "logDecoded": true,
                    "operation": "EVENT",
                    "revert": false,
                    "status": true,
                    "topics": [
                        "0x1c411e9a96e071241c2f21f7726b17ae89e3cab4c78be50e062b03a9fffbbad1"
                    ]
                },
                "nodeType": 1
            },
            "23": {
                "event": {
                    "contract": "0x9a1071d17b8126679aeca3ef152f784bca339c3a",
                    "decodedLog": {
                        "name": "Swap",
                        "params": [
                            {
                                "name": "sender",
                                "type": "address",
                                "value": "0xf164fc0ec4e93095b804a4795bbe1e041497b92a"
                            },
                            {
                                "name": "to",
                                "type": "address",
                                "value": "0x22f9dcf4647084d6c31b2765f6910cd85c178c18"
                            },
                            {
                                "name": "amount0In",
                                "type": "uint256",
                                "value": "0"
                            },
                            {
                                "name": "amount1In",
                                "type": "uint256",
                                "value": "100,000,000,000,000,000"
                            },
                            {
                                "name": "amount0Out",
                                "type": "uint256",
                                "value": "663,146,184,505,770,614,192,098"
                            },
                            {
                                "name": "amount1Out",
                                "type": "uint256",
                                "value": "0"
                            }
                        ],
                        "signature": "Swap(address,uint256,uint256,uint256,uint256,address)"
                    },
                    "id": 23,
                    "logData": "0x0000000000000000000000000000000000000000000000000000000000000000000000000000000000000000000000000000000000000000016345785d8a0000000000000000000000000000000000000000000000008c6d3a08bcee5bdff7e20000000000000000000000000000000000000000000000000000000000000000",
                    "logDecoded": true,
                    "operation": "EVENT",
                    "revert": false,
                    "status": true,
                    "topics": [
                        "0xd78ad95fa46c994b6551d0da85fc275fe613ce37657fb8d5e3d130840159d822",
                        "0x000000000000000000000000f164fc0ec4e93095b804a4795bbe1e041497b92a",
                        "0x00000000000000000000000022f9dcf4647084d6c31b2765f6910cd85c178c18"
                    ]
                },
                "nodeType": 1
            },
            "24": {
                "event": {
                    "contract": "0x22f9dcf4647084d6c31b2765f6910cd85c178c18",
                    "decodedLog": {
                        "name": "BridgeFill",
                        "params": [
                            {
                                "name": "source",
                                "type": "bytes32",
                                "value": "0x00000000000000000000000000000002556e6973776170563200000000000000"
                            },
                            {
                                "name": "inputToken",
                                "type": "address",
                                "value": "0xc02aaa39b223fe8d0a0e5c4f27ead9083c756cc2"
                            },
                            {
                                "name": "outputToken",
                                "type": "address",
                                "value": "0x9010a15184da16e3a7c5b4aa50094dfe3bb36989"
                            },
                            {
                                "name": "inputTokenAmount",
                                "type": "uint256",
                                "value": "100,000,000,000,000,000"
                            },
                            {
                                "name": "outputTokenAmount",
                                "type": "uint256",
                                "value": "663,146,184,505,770,614,192,098"
                            }
                        ],
                        "signature": "BridgeFill(bytes32,address,address,uint256,uint256)"
                    },
                    "id": 24,
                    "logData": "0x00000000000000000000000000000002556e6973776170563200000000000000000000000000000000000000c02aaa39b223fe8d0a0e5c4f27ead9083c756cc20000000000000000000000009010a15184da16e3a7c5b4aa50094dfe3bb36989000000000000000000000000000000000000000000000000016345785d8a0000000000000000000000000000000000000000000000008c6d3a08bcee5bdff7e2",
                    "logDecoded": true,
                    "operation": "EVENT",
                    "revert": false,
                    "status": true,
                    "topics": [
                        "0xe59e71a14fe90157eedc866c4f8c767d3943d6b6b2e8cd64dddcc92ab4c55af8"
                    ]
                },
                "nodeType": 1
            },
            "25": {
                "invocation": {
                    "address": "0x22f9dcf4647084d6c31b2765f6910cd85c178c18",
                    "callData": "0x000000000000000000000000da6d9fc5998f550a094585cf9171f0e8ee3ac59f00000000000000000000000000000000000000000000000000000000000000400000000000000000000000000000000000000000000000000000000000000144832b24bb0000000000000000000000000000000000000000000000000000000000000020000000000000000000000000807c57d03e31628b5dc9595c722676cb3da1df1c000000000000000000000000807c57d03e31628b5dc9595c722676cb3da1df1c000000000000000000000000000000000000000000000000000000000000006000000000000000000000000000000000000000000000000000000000000000a0000000000000000000000000000000000000000000000000000000000000002000000000000000000000000000000000000000000000000000000000000000010000000000000000000000009010a15184da16e3a7c5b4aa50094dfe3bb3698900000000000000000000000000000000000000000000006ae852ef3b9571e23600000000000000000000000096c195f6643a3d797cb90cb6ba0ae2776d51b5f300000000000000000000000000000000000000000000000000000000",
                    "decodedMethod": {
                        "callParams": [
                            {
                                "name": "target",
                                "type": "address",
                                "value": "0xda6d9fc5998f550a094585cf9171f0e8ee3ac59f"
                            },
                            {
                                "name": "callData",
                                "type": "bytes",
                                "value": "0x832b24bb0000000000000000000000000000000000000000000000000000000000000020000000000000000000000000807c57d03e31628b5dc9595c722676cb3da1df1c000000000000000000000000807c57d03e31628b5dc9595c722676cb3da1df1c000000000000000000000000000000000000000000000000000000000000006000000000000000000000000000000000000000000000000000000000000000a0000000000000000000000000000000000000000000000000000000000000002000000000000000000000000000000000000000000000000000000000000000010000000000000000000000009010a15184da16e3a7c5b4aa50094dfe3bb3698900000000000000000000000000000000000000000000006ae852ef3b9571e23600000000000000000000000096c195f6643a3d797cb90cb6ba0ae2776d51b5f3"
                            }
                        ],
                        "constructorArguments": "",
                        "name": "executeDelegateCall",
                        "returnParams": [
                            {
                                "name": "resultData",
                                "type": "bytes",
                                "value": "0x13c9929e00000000000000000000000000000000000000000000000000000000"
                            }
                        ],
                        "signature": "executeDelegateCall(address,bytes)"
                    },
                    "errorInfo": "",
                    "fromAddress": "0xdef1c0ded9bec7f1a1670819833240f027b25eff",
                    "gasUsed": 16112,
                    "id": 25,
                    "methodDecoded": true,
                    "operation": "CALL",
                    "output": "0x0000000000000000000000000000000000000000000000000000000000000020000000000000000000000000000000000000000000000000000000000000002013c9929e00000000000000000000000000000000000000000000000000000000",
                    "revert": false,
                    "revertMessage": "",
                    "selector": "0xb68df16d",
                    "status": true,
                    "value": "0"
                },
                "nodeType": 0
            },
            "26": {
                "invocation": {
                    "address": "0xda6d9fc5998f550a094585cf9171f0e8ee3ac59f",
                    "callData": "0x0000000000000000000000000000000000000000000000000000000000000020000000000000000000000000807c57d03e31628b5dc9595c722676cb3da1df1c000000000000000000000000807c57d03e31628b5dc9595c722676cb3da1df1c000000000000000000000000000000000000000000000000000000000000006000000000000000000000000000000000000000000000000000000000000000a0000000000000000000000000000000000000000000000000000000000000002000000000000000000000000000000000000000000000000000000000000000010000000000000000000000009010a15184da16e3a7c5b4aa50094dfe3bb3698900000000000000000000000000000000000000000000006ae852ef3b9571e23600000000000000000000000096c195f6643a3d797cb90cb6ba0ae2776d51b5f3",
                    "decodedMethod": {
                        "callParams": [
                            {
                                "name": "context",
                                "type": "(address,address,bytes)",
                                "value": [
                                    {
                                        "name": "sender",
                                        "type": "address",
                                        "value": "0x807c57d03e31628b5dc9595c722676cb3da1df1c"
                                    },
                                    {
                                        "name": "taker",
                                        "type": "address",
                                        "value": "0x807c57d03e31628b5dc9595c722676cb3da1df1c"
                                    },
                                    {
                                        "name": "data",
                                        "type": "bytes",
                                        "value": "0x000000000000000000000000000000000000000000000000000000000000002000000000000000000000000000000000000000000000000000000000000000010000000000000000000000009010a15184da16e3a7c5b4aa50094dfe3bb3698900000000000000000000000000000000000000000000006ae852ef3b9571e23600000000000000000000000096c195f6643a3d797cb90cb6ba0ae2776d51b5f3"
                                    }
                                ]
                            }
                        ],
                        "constructorArguments": "",
                        "name": "transform",
                        "returnParams": [
                            {
                                "name": "success",
                                "type": "bytes4",
                                "value": "0x13c9929e"
                            }
                        ],
                        "signature": "transform((address,address,bytes))"
                    },
                    "errorInfo": "",
                    "fromAddress": "0x22f9dcf4647084d6c31b2765f6910cd85c178c18",
                    "gasUsed": 12327,
                    "id": 26,
                    "methodDecoded": true,
                    "operation": "DELEGATECALL",
                    "output": "0x13c9929e00000000000000000000000000000000000000000000000000000000",
                    "revert": false,
                    "revertMessage": "",
                    "selector": "0x832b24bb",
                    "status": true,
                    "value": "0"
                },
                "nodeType": 0
            },
            "27": {
                "invocation": {
                    "address": "0x9010a15184da16e3a7c5b4aa50094dfe3bb36989",
                    "callData": "0x00000000000000000000000096c195f6643a3d797cb90cb6ba0ae2776d51b5f300000000000000000000000000000000000000000000006ae852ef3b9571e236",
                    "decodedMethod": {
                        "callParams": [
                            {
                                "name": "recipient",
                                "type": "address",
                                "value": "0x96c195f6643a3d797cb90cb6ba0ae2776d51b5f3"
                            },
                            {
                                "decimalAvailable": true,
                                "name": "amount",
                                "type": "uint256",
                                "value": "1,972,095,577,617,291,403,830"
                            }
                        ],
                        "constructorArguments": "",
                        "name": "transfer",
                        "returnParams": [
                            {
                                "name": "",
                                "type": "bool",
                                "value": true
                            }
                        ],
                        "signature": "transfer(address,uint256)"
                    },
                    "errorInfo": "",
                    "fromAddress": "0x22f9dcf4647084d6c31b2765f6910cd85c178c18",
                    "gasUsed": 9138,
                    "id": 27,
                    "methodDecoded": true,
                    "operation": "CALL",
                    "output": "0x0000000000000000000000000000000000000000000000000000000000000001",
                    "revert": false,
                    "revertMessage": "",
                    "selector": "0xa9059cbb",
                    "status": true,
                    "value": "0"
                },
                "nodeType": 0
            },
            "28": {
                "event": {
                    "contract": "0x9010a15184da16e3a7c5b4aa50094dfe3bb36989",
                    "decodedLog": {
                        "name": "Transfer",
                        "params": [
                            {
                                "name": "from",
                                "type": "address",
                                "value": "0x22f9dcf4647084d6c31b2765f6910cd85c178c18"
                            },
                            {
                                "name": "to",
                                "type": "address",
                                "value": "0x96c195f6643a3d797cb90cb6ba0ae2776d51b5f3"
                            },
                            {
                                "decimalAvailable": true,
                                "name": "value",
                                "type": "uint256",
                                "value": "1,972,095,577,617,291,403,830"
                            }
                        ],
                        "signature": "Transfer(address,address,uint256)"
                    },
                    "id": 28,
                    "logData": "0x00000000000000000000000000000000000000000000006ae852ef3b9571e236",
                    "logDecoded": true,
                    "operation": "EVENT",
                    "revert": false,
                    "status": true,
                    "topics": [
                        "0xddf252ad1be2c89b69c2b068fc378daa952ba7f163c4a11628f55a4df523b3ef",
                        "0x00000000000000000000000022f9dcf4647084d6c31b2765f6910cd85c178c18",
                        "0x00000000000000000000000096c195f6643a3d797cb90cb6ba0ae2776d51b5f3"
                    ]
                },
                "nodeType": 1
            },
            "29": {
                "invocation": {
                    "address": "0x22f9dcf4647084d6c31b2765f6910cd85c178c18",
                    "callData": "0x0000000000000000000000004638a7ebe75b911b995d0ec73a81e4f85f41f24e00000000000000000000000000000000000000000000000000000000000000400000000000000000000000000000000000000000000000000000000000000184832b24bb0000000000000000000000000000000000000000000000000000000000000020000000000000000000000000807c57d03e31628b5dc9595c722676cb3da1df1c000000000000000000000000807c57d03e31628b5dc9595c722676cb3da1df1c000000000000000000000000000000000000000000000000000000000000006000000000000000000000000000000000000000000000000000000000000000e00000000000000000000000000000000000000000000000000000000000000020000000000000000000000000000000000000000000000000000000000000004000000000000000000000000000000000000000000000000000000000000000a00000000000000000000000000000000000000000000000000000000000000002000000000000000000000000c02aaa39b223fe8d0a0e5c4f27ead9083c756cc2000000000000000000000000eeeeeeeeeeeeeeeeeeeeeeeeeeeeeeeeeeeeeeee000000000000000000000000000000000000000000000000000000000000000000000000000000000000000000000000000000000000000000000000",
                    "decodedMethod": {
                        "callParams": [
                            {
                                "name": "target",
                                "type": "address",
                                "value": "0x4638a7ebe75b911b995d0ec73a81e4f85f41f24e"
                            },
                            {
                                "name": "callData",
                                "type": "bytes",
                                "value": "0x832b24bb0000000000000000000000000000000000000000000000000000000000000020000000000000000000000000807c57d03e31628b5dc9595c722676cb3da1df1c000000000000000000000000807c57d03e31628b5dc9595c722676cb3da1df1c000000000000000000000000000000000000000000000000000000000000006000000000000000000000000000000000000000000000000000000000000000e00000000000000000000000000000000000000000000000000000000000000020000000000000000000000000000000000000000000000000000000000000004000000000000000000000000000000000000000000000000000000000000000a00000000000000000000000000000000000000000000000000000000000000002000000000000000000000000c02aaa39b223fe8d0a0e5c4f27ead9083c756cc2000000000000000000000000eeeeeeeeeeeeeeeeeeeeeeeeeeeeeeeeeeeeeeee0000000000000000000000000000000000000000000000000000000000000000"
                            }
                        ],
                        "constructorArguments": "",
                        "name": "executeDelegateCall",
                        "returnParams": [
                            {
                                "name": "resultData",
                                "type": "bytes",
                                "value": "0x13c9929e00000000000000000000000000000000000000000000000000000000"
                            }
                        ],
                        "signature": "executeDelegateCall(address,bytes)"
                    },
                    "errorInfo": "",
                    "fromAddress": "0xdef1c0ded9bec7f1a1670819833240f027b25eff",
                    "gasUsed": 7737,
                    "id": 29,
                    "methodDecoded": true,
                    "operation": "CALL",
                    "output": "0x0000000000000000000000000000000000000000000000000000000000000020000000000000000000000000000000000000000000000000000000000000002013c9929e00000000000000000000000000000000000000000000000000000000",
                    "revert": false,
                    "revertMessage": "",
                    "selector": "0xb68df16d",
                    "status": true,
                    "value": "0"
                },
                "nodeType": 0
            },
            "3": {
                "invocation": {
                    "address": "0x22f9dcf4647084d6c31b2765f6910cd85c178c18",
                    "callData": "0x",
                    "decodedMethod": null,
                    "errorInfo": "",
                    "fromAddress": "0xdef1c0ded9bec7f1a1670819833240f027b25eff",
                    "gasUsed": 55,
                    "id": 3,
                    "methodDecoded": false,
                    "operation": "CALL",
                    "output": "",
                    "revert": false,
                    "revertMessage": "",
                    "selector": "fallback",
                    "status": true,
                    "value": "0.1"
                },
                "nodeType": 0
            },
            "30": {
                "invocation": {
                    "address": "0x4638a7ebe75b911b995d0ec73a81e4f85f41f24e",
                    "callData": "0x0000000000000000000000000000000000000000000000000000000000000020000000000000000000000000807c57d03e31628b5dc9595c722676cb3da1df1c000000000000000000000000807c57d03e31628b5dc9595c722676cb3da1df1c000000000000000000000000000000000000000000000000000000000000006000000000000000000000000000000000000000000000000000000000000000e00000000000000000000000000000000000000000000000000000000000000020000000000000000000000000000000000000000000000000000000000000004000000000000000000000000000000000000000000000000000000000000000a00000000000000000000000000000000000000000000000000000000000000002000000000000000000000000c02aaa39b223fe8d0a0e5c4f27ead9083c756cc2000000000000000000000000eeeeeeeeeeeeeeeeeeeeeeeeeeeeeeeeeeeeeeee0000000000000000000000000000000000000000000000000000000000000000",
                    "decodedMethod": {
                        "callParams": [
                            {
                                "name": "context",
                                "type": "(address,address,bytes)",
                                "value": [
                                    {
                                        "name": "sender",
                                        "type": "address",
                                        "value": "0x807c57d03e31628b5dc9595c722676cb3da1df1c"
                                    },
                                    {
                                        "name": "taker",
                                        "type": "address",
                                        "value": "0x807c57d03e31628b5dc9595c722676cb3da1df1c"
                                    },
                                    {
                                        "name": "data",
                                        "type": "bytes",
                                        "value": "0x0000000000000000000000000000000000000000000000000000000000000020000000000000000000000000000000000000000000000000000000000000004000000000000000000000000000000000000000000000000000000000000000a00000000000000000000000000000000000000000000000000000000000000002000000000000000000000000c02aaa39b223fe8d0a0e5c4f27ead9083c756cc2000000000000000000000000eeeeeeeeeeeeeeeeeeeeeeeeeeeeeeeeeeeeeeee0000000000000000000000000000000000000000000000000000000000000000"
                                    }
                                ]
                            }
                        ],
                        "constructorArguments": "",
                        "name": "transform",
                        "returnParams": [
                            {
                                "name": "success",
                                "type": "bytes4",
                                "value": "0x13c9929e"
                            }
                        ],
                        "signature": "transform((address,address,bytes))"
                    },
                    "errorInfo": "",
                    "fromAddress": "0x22f9dcf4647084d6c31b2765f6910cd85c178c18",
                    "gasUsed": 3940,
                    "id": 30,
                    "methodDecoded": true,
                    "operation": "DELEGATECALL",
                    "output": "0x13c9929e00000000000000000000000000000000000000000000000000000000",
                    "revert": false,
                    "revertMessage": "",
                    "selector": "0x832b24bb",
                    "status": true,
                    "value": "0"
                },
                "nodeType": 0
            },
            "31": {
                "invocation": {
                    "address": "0xc02aaa39b223fe8d0a0e5c4f27ead9083c756cc2",
                    "callData": "0x00000000000000000000000022f9dcf4647084d6c31b2765f6910cd85c178c18",
                    "decodedMethod": {
                        "callParams": [
                            {
                                "name": "",
                                "type": "address",
                                "value": "0x22f9dcf4647084d6c31b2765f6910cd85c178c18"
                            }
                        ],
                        "constructorArguments": "",
                        "name": "balanceOf",
                        "returnParams": [
                            {
                                "decimalAvailable": true,
                                "name": "",
                                "type": "uint256",
                                "value": "0"
                            }
                        ],
                        "signature": "balanceOf(address)"
                    },
                    "errorInfo": "",
                    "fromAddress": "0x22f9dcf4647084d6c31b2765f6910cd85c178c18",
                    "gasUsed": 534,
                    "id": 31,
                    "methodDecoded": true,
                    "operation": "STATICCALL",
                    "output": "0x0000000000000000000000000000000000000000000000000000000000000000",
                    "revert": false,
                    "revertMessage": "",
                    "selector": "0x70a08231",
                    "status": true,
                    "value": "0"
                },
                "nodeType": 0
            },
            "32": {
                "invocation": {
                    "address": "0x9010a15184da16e3a7c5b4aa50094dfe3bb36989",
                    "callData": "0x00000000000000000000000022f9dcf4647084d6c31b2765f6910cd85c178c18",
                    "decodedMethod": {
                        "callParams": [
                            {
                                "name": "account",
                                "type": "address",
                                "value": "0x22f9dcf4647084d6c31b2765f6910cd85c178c18"
                            }
                        ],
                        "constructorArguments": "",
                        "name": "balanceOf",
                        "returnParams": [
                            {
                                "decimalAvailable": true,
                                "name": "",
                                "type": "uint256",
                                "value": "661,174,088,928,153,322,788,268"
                            }
                        ],
                        "signature": "balanceOf(address)"
                    },
                    "errorInfo": "",
                    "fromAddress": "0xdef1c0ded9bec7f1a1670819833240f027b25eff",
                    "gasUsed": 908,
                    "id": 32,
                    "methodDecoded": true,
                    "operation": "STATICCALL",
                    "output": "0x000000000000000000000000000000000000000000008c0251b5cdb2c66e15ac",
                    "revert": false,
                    "revertMessage": "",
                    "selector": "0x70a08231",
                    "status": true,
                    "value": "0"
                },
                "nodeType": 0
            },
            "33": {
                "invocation": {
                    "address": "0x22f9dcf4647084d6c31b2765f6910cd85c178c18",
                    "callData": "0x0000000000000000000000009010a15184da16e3a7c5b4aa50094dfe3bb36989000000000000000000000000000000000000000000000000000000000000006000000000000000000000000000000000000000000000000000000000000000000000000000000000000000000000000000000000000000000000000000000044a9059cbb000000000000000000000000807c57d03e31628b5dc9595c722676cb3da1df1c000000000000000000000000000000000000000000008c0251b5cdb2c66e15ac00000000000000000000000000000000000000000000000000000000",
                    "decodedMethod": {
                        "callParams": [
                            {
                                "name": "target",
                                "type": "address",
                                "value": "0x9010a15184da16e3a7c5b4aa50094dfe3bb36989"
                            },
                            {
                                "name": "callData",
                                "type": "bytes",
                                "value": "0xa9059cbb000000000000000000000000807c57d03e31628b5dc9595c722676cb3da1df1c000000000000000000000000000000000000000000008c0251b5cdb2c66e15ac"
                            },
                            {
                                "name": "value",
                                "type": "uint256",
                                "value": "0"
                            }
                        ],
                        "constructorArguments": "",
                        "name": "executeCall",
                        "returnParams": [
                            {
                                "name": "resultData",
                                "type": "bytes",
                                "value": "0x0000000000000000000000000000000000000000000000000000000000000001"
                            }
                        ],
                        "signature": "executeCall(address,bytes,uint256)"
                    },
                    "errorInfo": "",
                    "fromAddress": "0xdef1c0ded9bec7f1a1670819833240f027b25eff",
                    "gasUsed": 8429,
                    "id": 33,
                    "methodDecoded": true,
                    "operation": "CALL",
                    "output": "0x000000000000000000000000000000000000000000000000000000000000002000000000000000000000000000000000000000000000000000000000000000200000000000000000000000000000000000000000000000000000000000000001",
                    "revert": false,
                    "revertMessage": "",
                    "selector": "0x54132d78",
                    "status": true,
                    "value": "0"
                },
                "nodeType": 0
            },
            "34": {
                "invocation": {
                    "address": "0x9010a15184da16e3a7c5b4aa50094dfe3bb36989",
                    "callData": "0x000000000000000000000000807c57d03e31628b5dc9595c722676cb3da1df1c000000000000000000000000000000000000000000008c0251b5cdb2c66e15ac",
                    "decodedMethod": {
                        "callParams": [
                            {
                                "name": "recipient",
                                "type": "address",
                                "value": "0x807c57d03e31628b5dc9595c722676cb3da1df1c"
                            },
                            {
                                "decimalAvailable": true,
                                "name": "amount",
                                "type": "uint256",
                                "value": "661,174,088,928,153,322,788,268"
                            }
                        ],
                        "constructorArguments": "",
                        "name": "transfer",
                        "returnParams": [
                            {
                                "name": "",
                                "type": "bool",
                                "value": true
                            }
                        ],
                        "signature": "transfer(address,uint256)"
                    },
                    "errorInfo": "",
                    "fromAddress": "0x22f9dcf4647084d6c31b2765f6910cd85c178c18",
                    "gasUsed": 7138,
                    "id": 34,
                    "methodDecoded": true,
                    "operation": "CALL",
                    "output": "0x0000000000000000000000000000000000000000000000000000000000000001",
                    "revert": false,
                    "revertMessage": "",
                    "selector": "0xa9059cbb",
                    "status": true,
                    "value": "0"
                },
                "nodeType": 0
            },
            "35": {
                "event": {
                    "contract": "0x9010a15184da16e3a7c5b4aa50094dfe3bb36989",
                    "decodedLog": {
                        "name": "Transfer",
                        "params": [
                            {
                                "name": "from",
                                "type": "address",
                                "value": "0x22f9dcf4647084d6c31b2765f6910cd85c178c18"
                            },
                            {
                                "name": "to",
                                "type": "address",
                                "value": "0x807c57d03e31628b5dc9595c722676cb3da1df1c"
                            },
                            {
                                "decimalAvailable": true,
                                "name": "value",
                                "type": "uint256",
                                "value": "661,174,088,928,153,322,788,268"
                            }
                        ],
                        "signature": "Transfer(address,address,uint256)"
                    },
                    "id": 35,
                    "logData": "0x000000000000000000000000000000000000000000008c0251b5cdb2c66e15ac",
                    "logDecoded": true,
                    "operation": "EVENT",
                    "revert": false,
                    "status": true,
                    "topics": [
                        "0xddf252ad1be2c89b69c2b068fc378daa952ba7f163c4a11628f55a4df523b3ef",
                        "0x00000000000000000000000022f9dcf4647084d6c31b2765f6910cd85c178c18",
                        "0x000000000000000000000000807c57d03e31628b5dc9595c722676cb3da1df1c"
                    ]
                },
                "nodeType": 1
            },
            "36": {
                "invocation": {
                    "address": "0x9010a15184da16e3a7c5b4aa50094dfe3bb36989",
                    "callData": "0x000000000000000000000000807c57d03e31628b5dc9595c722676cb3da1df1c",
                    "decodedMethod": {
                        "callParams": [
                            {
                                "name": "account",
                                "type": "address",
                                "value": "0x807c57d03e31628b5dc9595c722676cb3da1df1c"
                            }
                        ],
                        "constructorArguments": "",
                        "name": "balanceOf",
                        "returnParams": [
                            {
                                "decimalAvailable": true,
                                "name": "",
                                "type": "uint256",
                                "value": "1,351,923,088,928,153,322,788,268"
                            }
                        ],
                        "signature": "balanceOf(address)"
                    },
                    "errorInfo": "",
                    "fromAddress": "0xdef1c0ded9bec7f1a1670819833240f027b25eff",
                    "gasUsed": 908,
                    "id": 36,
                    "methodDecoded": true,
                    "operation": "STATICCALL",
                    "output": "0x000000000000000000000000000000000000000000011e47e5c2b8a5914215ac",
                    "revert": false,
                    "revertMessage": "",
                    "selector": "0x70a08231",
                    "status": true,
                    "value": "0"
                },
                "nodeType": 0
            },
            "37": {
                "event": {
                    "contract": "0xdef1c0ded9bec7f1a1670819833240f027b25eff",
                    "decodedLog": {
                        "name": "TransformedERC20",
                        "params": [
                            {
                                "name": "taker",
                                "type": "address",
                                "value": "0x807c57d03e31628b5dc9595c722676cb3da1df1c"
                            },
                            {
                                "name": "inputToken",
                                "type": "address",
                                "value": "0xeeeeeeeeeeeeeeeeeeeeeeeeeeeeeeeeeeeeeeee"
                            },
                            {
                                "name": "outputToken",
                                "type": "address",
                                "value": "0x9010a15184da16e3a7c5b4aa50094dfe3bb36989"
                            },
                            {
                                "name": "inputTokenAmount",
                                "type": "uint256",
                                "value": "100,000,000,000,000,000"
                            },
                            {
                                "name": "outputTokenAmount",
                                "type": "uint256",
                                "value": "661,174,088,928,153,322,788,268"
                            }
                        ],
                        "signature": "TransformedERC20(address,address,address,uint256,uint256)"
                    },
                    "id": 37,
                    "logData": "0x000000000000000000000000eeeeeeeeeeeeeeeeeeeeeeeeeeeeeeeeeeeeeeee0000000000000000000000009010a15184da16e3a7c5b4aa50094dfe3bb36989000000000000000000000000000000000000000000000000016345785d8a0000000000000000000000000000000000000000000000008c0251b5cdb2c66e15ac",
                    "logDecoded": true,
                    "operation": "EVENT",
                    "revert": false,
                    "status": true,
                    "topics": [
                        "0x0f6672f78a59ba8e5e5b5d38df3ebc67f3c792e2c9259b8d97d7f00dd78ba1b3",
                        "0x000000000000000000000000807c57d03e31628b5dc9595c722676cb3da1df1c"
                    ]
                },
                "nodeType": 1
            },
            "4": {
                "invocation": {
                    "address": "0x22f9dcf4647084d6c31b2765f6910cd85c178c18",
                    "callData": "0x000000000000000000000000b2bc06a4efb20fc6553a69dbfa49b7be938034a7000000000000000000000000000000000000000000000000000000000000004000000000000000000000000000000000000000000000000000000000000000e4832b24bb0000000000000000000000000000000000000000000000000000000000000020000000000000000000000000807c57d03e31628b5dc9595c722676cb3da1df1c000000000000000000000000807c57d03e31628b5dc9595c722676cb3da1df1c00000000000000000000000000000000000000000000000000000000000000600000000000000000000000000000000000000000000000000000000000000040000000000000000000000000eeeeeeeeeeeeeeeeeeeeeeeeeeeeeeeeeeeeeeee000000000000000000000000000000000000000000000000016345785d8a000000000000000000000000000000000000000000000000000000000000",
                    "decodedMethod": {
                        "callParams": [
                            {
                                "name": "target",
                                "type": "address",
                                "value": "0xb2bc06a4efb20fc6553a69dbfa49b7be938034a7"
                            },
                            {
                                "name": "callData",
                                "type": "bytes",
                                "value": "0x832b24bb0000000000000000000000000000000000000000000000000000000000000020000000000000000000000000807c57d03e31628b5dc9595c722676cb3da1df1c000000000000000000000000807c57d03e31628b5dc9595c722676cb3da1df1c00000000000000000000000000000000000000000000000000000000000000600000000000000000000000000000000000000000000000000000000000000040000000000000000000000000eeeeeeeeeeeeeeeeeeeeeeeeeeeeeeeeeeeeeeee000000000000000000000000000000000000000000000000016345785d8a0000"
                            }
                        ],
                        "constructorArguments": "",
                        "name": "executeDelegateCall",
                        "returnParams": [
                            {
                                "name": "resultData",
                                "type": "bytes",
                                "value": "0x13c9929e00000000000000000000000000000000000000000000000000000000"
                            }
                        ],
                        "signature": "executeDelegateCall(address,bytes)"
                    },
                    "errorInfo": "",
                    "fromAddress": "0xdef1c0ded9bec7f1a1670819833240f027b25eff",
                    "gasUsed": 38458,
                    "id": 4,
                    "methodDecoded": true,
                    "operation": "CALL",
                    "output": "0x0000000000000000000000000000000000000000000000000000000000000020000000000000000000000000000000000000000000000000000000000000002013c9929e00000000000000000000000000000000000000000000000000000000",
                    "revert": false,
                    "revertMessage": "",
                    "selector": "0xb68df16d",
                    "status": true,
                    "value": "0"
                },
                "nodeType": 0
            },
            "5": {
                "invocation": {
                    "address": "0xb2bc06a4efb20fc6553a69dbfa49b7be938034a7",
                    "callData": "0x0000000000000000000000000000000000000000000000000000000000000020000000000000000000000000807c57d03e31628b5dc9595c722676cb3da1df1c000000000000000000000000807c57d03e31628b5dc9595c722676cb3da1df1c00000000000000000000000000000000000000000000000000000000000000600000000000000000000000000000000000000000000000000000000000000040000000000000000000000000eeeeeeeeeeeeeeeeeeeeeeeeeeeeeeeeeeeeeeee000000000000000000000000000000000000000000000000016345785d8a0000",
                    "decodedMethod": {
                        "callParams": [
                            {
                                "name": "context",
                                "type": "(address,address,bytes)",
                                "value": [
                                    {
                                        "name": "sender",
                                        "type": "address",
                                        "value": "0x807c57d03e31628b5dc9595c722676cb3da1df1c"
                                    },
                                    {
                                        "name": "taker",
                                        "type": "address",
                                        "value": "0x807c57d03e31628b5dc9595c722676cb3da1df1c"
                                    },
                                    {
                                        "name": "data",
                                        "type": "bytes",
                                        "value": "0x000000000000000000000000eeeeeeeeeeeeeeeeeeeeeeeeeeeeeeeeeeeeeeee000000000000000000000000000000000000000000000000016345785d8a0000"
                                    }
                                ]
                            }
                        ],
                        "constructorArguments": "",
                        "name": "transform",
                        "returnParams": [
                            {
                                "name": "success",
                                "type": "bytes4",
                                "value": "0x13c9929e"
                            }
                        ],
                        "signature": "transform((address,address,bytes))"
                    },
                    "errorInfo": "",
                    "fromAddress": "0x22f9dcf4647084d6c31b2765f6910cd85c178c18",
                    "gasUsed": 34691,
                    "id": 5,
                    "methodDecoded": true,
                    "operation": "DELEGATECALL",
                    "output": "0x13c9929e00000000000000000000000000000000000000000000000000000000",
                    "revert": false,
                    "revertMessage": "",
                    "selector": "0x832b24bb",
                    "status": true,
                    "value": "0"
                },
                "nodeType": 0
            },
            "6": {
                "invocation": {
                    "address": "0xc02aaa39b223fe8d0a0e5c4f27ead9083c756cc2",
                    "callData": "0x",
                    "decodedMethod": {
                        "callParams": [],
                        "constructorArguments": "",
                        "name": "deposit",
                        "returnParams": [],
                        "signature": "deposit()"
                    },
                    "errorInfo": "",
                    "fromAddress": "0x22f9dcf4647084d6c31b2765f6910cd85c178c18",
                    "gasUsed": 23974,
                    "id": 6,
                    "methodDecoded": true,
                    "operation": "CALL",
                    "output": "",
                    "revert": false,
                    "revertMessage": "",
                    "selector": "0xd0e30db0",
                    "status": true,
                    "value": "0.1"
                },
                "nodeType": 0
            },
            "7": {
                "event": {
                    "contract": "0xc02aaa39b223fe8d0a0e5c4f27ead9083c756cc2",
                    "decodedLog": {
                        "name": "Deposit",
                        "params": [
                            {
                                "name": "dst",
                                "type": "address",
                                "value": "0x22f9dcf4647084d6c31b2765f6910cd85c178c18"
                            },
                            {
                                "name": "wad",
                                "type": "uint256",
                                "value": "100,000,000,000,000,000"
                            }
                        ],
                        "signature": "Deposit(address,uint256)"
                    },
                    "id": 7,
                    "logData": "0x000000000000000000000000000000000000000000000000016345785d8a0000",
                    "logDecoded": true,
                    "operation": "EVENT",
                    "revert": false,
                    "status": true,
                    "topics": [
                        "0xe1fffcc4923d04b559f4d29a8bfc6cda04eb5b0d3c460751c2402c5c5cc9109c",
                        "0x00000000000000000000000022f9dcf4647084d6c31b2765f6910cd85c178c18"
                    ]
                },
                "nodeType": 1
            },
            "8": {
                "invocation": {
                    "address": "0x22f9dcf4647084d6c31b2765f6910cd85c178c18",
                    "callData": "0x000000000000000000000000b4fa284689c9784a60d840eb136bb16c5246191f000000000000000000000000000000000000000000000000000000000000004000000000000000000000000000000000000000000000000000000000000003a4832b24bb0000000000000000000000000000000000000000000000000000000000000020000000000000000000000000807c57d03e31628b5dc9595c722676cb3da1df1c000000000000000000000000807c57d03e31628b5dc9595c722676cb3da1df1c0000000000000000000000000000000000000000000000000000000000000060000000000000000000000000000000000000000000000000000000000000030000000000000000000000000000000000000000000000000000000000000000200000000000000000000000000000000000000000000000000000000000000000000000000000000000000000c02aaa39b223fe8d0a0e5c4f27ead9083c756cc20000000000000000000000009010a15184da16e3a7c5b4aa50094dfe3bb36989000000000000000000000000000000000000000000000000000000000000012000000000000000000000000000000000000000000000000000000000000002c000000000000000000000000000000000000000000000000000000000000002c000000000000000000000000000000000000000000000000000000000000002a0000000000000000000000000000000000000000000000000016345785d8a000000000000000000000000000000000000000000000000000000000000000000000000000000000000000000000000000000000000000000000000000000000001000000000000000000000000000000000000000000000000000000000000002000000000000000000000000000000002556e6973776170563200000000000000000000000000000000000000000000000000000000000000016345785d8a0000000000000000000000000000000000000000000000008b9ebefa6f7b81bb1979000000000000000000000000000000000000000000000000000000000000008000000000000000000000000000000000000000000000000000000000000000a0000000000000000000000000f164fc0ec4e93095b804a4795bbe1e041497b92a00000000000000000000000000000000000000000000000000000000000000400000000000000000000000000000000000000000000000000000000000000002000000000000000000000000c02aaa39b223fe8d0a0e5c4f27ead9083c756cc20000000000000000000000009010a15184da16e3a7c5b4aa50094dfe3bb369890000000000000000000000000000000000000000000000000000000000000001000000000000000000000000000000000000000000000000000000000000000000000000000000000000000000000000000000000000000000000000",
                    "decodedMethod": {
                        "callParams": [
                            {
                                "name": "target",
                                "type": "address",
                                "value": "0xb4fa284689c9784a60d840eb136bb16c5246191f"
                            },
                            {
                                "name": "callData",
                                "type": "bytes",
                                "value": "0x832b24bb0000000000000000000000000000000000000000000000000000000000000020000000000000000000000000807c57d03e31628b5dc9595c722676cb3da1df1c000000000000000000000000807c57d03e31628b5dc9595c722676cb3da1df1c0000000000000000000000000000000000000000000000000000000000000060000000000000000000000000000000000000000000000000000000000000030000000000000000000000000000000000000000000000000000000000000000200000000000000000000000000000000000000000000000000000000000000000000000000000000000000000c02aaa39b223fe8d0a0e5c4f27ead9083c756cc20000000000000000000000009010a15184da16e3a7c5b4aa50094dfe3bb36989000000000000000000000000000000000000000000000000000000000000012000000000000000000000000000000000000000000000000000000000000002c000000000000000000000000000000000000000000000000000000000000002c000000000000000000000000000000000000000000000000000000000000002a0000000000000000000000000000000000000000000000000016345785d8a000000000000000000000000000000000000000000000000000000000000000000000000000000000000000000000000000000000000000000000000000000000001000000000000000000000000000000000000000000000000000000000000002000000000000000000000000000000002556e6973776170563200000000000000000000000000000000000000000000000000000000000000016345785d8a0000000000000000000000000000000000000000000000008b9ebefa6f7b81bb1979000000000000000000000000000000000000000000000000000000000000008000000000000000000000000000000000000000000000000000000000000000a0000000000000000000000000f164fc0ec4e93095b804a4795bbe1e041497b92a00000000000000000000000000000000000000000000000000000000000000400000000000000000000000000000000000000000000000000000000000000002000000000000000000000000c02aaa39b223fe8d0a0e5c4f27ead9083c756cc20000000000000000000000009010a15184da16e3a7c5b4aa50094dfe3bb3698900000000000000000000000000000000000000000000000000000000000000010000000000000000000000000000000000000000000000000000000000000000"
                            }
                        ],
                        "constructorArguments": "",
                        "name": "executeDelegateCall",
                        "returnParams": [
                            {
                                "name": "resultData",
                                "type": "bytes",
                                "value": "0x13c9929e00000000000000000000000000000000000000000000000000000000"
                            }
                        ],
                        "signature": "executeDelegateCall(address,bytes)"
                    },
                    "errorInfo": "",
                    "fromAddress": "0xdef1c0ded9bec7f1a1670819833240f027b25eff",
                    "gasUsed": 105668,
                    "id": 8,
                    "methodDecoded": true,
                    "operation": "CALL",
                    "output": "0x0000000000000000000000000000000000000000000000000000000000000020000000000000000000000000000000000000000000000000000000000000002013c9929e00000000000000000000000000000000000000000000000000000000",
                    "revert": false,
                    "revertMessage": "",
                    "selector": "0xb68df16d",
                    "status": true,
                    "value": "0"
                },
                "nodeType": 0
            },
            "9": {
                "invocation": {
                    "address": "0xb4fa284689c9784a60d840eb136bb16c5246191f",
                    "callData": "0x0000000000000000000000000000000000000000000000000000000000000020000000000000000000000000807c57d03e31628b5dc9595c722676cb3da1df1c000000000000000000000000807c57d03e31628b5dc9595c722676cb3da1df1c0000000000000000000000000000000000000000000000000000000000000060000000000000000000000000000000000000000000000000000000000000030000000000000000000000000000000000000000000000000000000000000000200000000000000000000000000000000000000000000000000000000000000000000000000000000000000000c02aaa39b223fe8d0a0e5c4f27ead9083c756cc20000000000000000000000009010a15184da16e3a7c5b4aa50094dfe3bb36989000000000000000000000000000000000000000000000000000000000000012000000000000000000000000000000000000000000000000000000000000002c000000000000000000000000000000000000000000000000000000000000002c000000000000000000000000000000000000000000000000000000000000002a0000000000000000000000000000000000000000000000000016345785d8a000000000000000000000000000000000000000000000000000000000000000000000000000000000000000000000000000000000000000000000000000000000001000000000000000000000000000000000000000000000000000000000000002000000000000000000000000000000002556e6973776170563200000000000000000000000000000000000000000000000000000000000000016345785d8a0000000000000000000000000000000000000000000000008b9ebefa6f7b81bb1979000000000000000000000000000000000000000000000000000000000000008000000000000000000000000000000000000000000000000000000000000000a0000000000000000000000000f164fc0ec4e93095b804a4795bbe1e041497b92a00000000000000000000000000000000000000000000000000000000000000400000000000000000000000000000000000000000000000000000000000000002000000000000000000000000c02aaa39b223fe8d0a0e5c4f27ead9083c756cc20000000000000000000000009010a15184da16e3a7c5b4aa50094dfe3bb3698900000000000000000000000000000000000000000000000000000000000000010000000000000000000000000000000000000000000000000000000000000000",
                    "decodedMethod": {
                        "callParams": [
                            {
                                "name": "context",
                                "type": "(address,address,bytes)",
                                "value": [
                                    {
                                        "name": "sender",
                                        "type": "address",
                                        "value": "0x807c57d03e31628b5dc9595c722676cb3da1df1c"
                                    },
                                    {
                                        "name": "taker",
                                        "type": "address",
                                        "value": "0x807c57d03e31628b5dc9595c722676cb3da1df1c"
                                    },
                                    {
                                        "name": "data",
                                        "type": "bytes",
                                        "value": "0x00000000000000000000000000000000000000000000000000000000000000200000000000000000000000000000000000000000000000000000000000000000000000000000000000000000c02aaa39b223fe8d0a0e5c4f27ead9083c756cc20000000000000000000000009010a15184da16e3a7c5b4aa50094dfe3bb36989000000000000000000000000000000000000000000000000000000000000012000000000000000000000000000000000000000000000000000000000000002c000000000000000000000000000000000000000000000000000000000000002c000000000000000000000000000000000000000000000000000000000000002a0000000000000000000000000000000000000000000000000016345785d8a000000000000000000000000000000000000000000000000000000000000000000000000000000000000000000000000000000000000000000000000000000000001000000000000000000000000000000000000000000000000000000000000002000000000000000000000000000000002556e6973776170563200000000000000000000000000000000000000000000000000000000000000016345785d8a0000000000000000000000000000000000000000000000008b9ebefa6f7b81bb1979000000000000000000000000000000000000000000000000000000000000008000000000000000000000000000000000000000000000000000000000000000a0000000000000000000000000f164fc0ec4e93095b804a4795bbe1e041497b92a00000000000000000000000000000000000000000000000000000000000000400000000000000000000000000000000000000000000000000000000000000002000000000000000000000000c02aaa39b223fe8d0a0e5c4f27ead9083c756cc20000000000000000000000009010a15184da16e3a7c5b4aa50094dfe3bb3698900000000000000000000000000000000000000000000000000000000000000010000000000000000000000000000000000000000000000000000000000000000"
                                    }
                                ]
                            }
                        ],
                        "constructorArguments": "",
                        "name": "transform",
                        "returnParams": [
                            {
                                "name": "magicBytes",
                                "type": "bytes4",
                                "value": "0x13c9929e"
                            }
                        ],
                        "signature": "transform((address,address,bytes))"
                    },
                    "errorInfo": "",
                    "fromAddress": "0x22f9dcf4647084d6c31b2765f6910cd85c178c18",
                    "gasUsed": 101767,
                    "id": 9,
                    "methodDecoded": true,
                    "operation": "DELEGATECALL",
                    "output": "0x13c9929e00000000000000000000000000000000000000000000000000000000",
                    "revert": false,
                    "revertMessage": "",
                    "selector": "0x832b24bb",
                    "status": true,
                    "value": "0"
                },
                "nodeType": 0
            }
        },
        "gasFlame": [
            {
                "children": [
                    {
                        "children": [
                            {
                                "children": [],
                                "depth": 0,
                                "name": "Initial Gas",
                                "value": 33564
                            },
                            {
                                "children": [
                                    {
                                        "children": [
                                            {
                                                "children": [],
                                                "depth": 2,
                                                "name": "balanceOf",
                                                "value": 2908
                                            },
                                            {
                                                "children": [],
                                                "depth": 2,
                                                "name": "fallback",
                                                "value": 55
                                            },
                                            {
                                                "children": [
                                                    {
                                                        "children": [
                                                            {
                                                                "children": [],
                                                                "depth": 4,
                                                                "name": "deposit",
                                                                "value": 23974
                                                            }
                                                        ],
                                                        "depth": 3,
                                                        "name": "transform",
                                                        "value": 34691
                                                    }
                                                ],
                                                "depth": 2,
                                                "name": "executeDelegateCall",
                                                "value": 38458
                                            },
                                            {
                                                "children": [
                                                    {
                                                        "children": [
                                                            {
                                                                "children": [],
                                                                "depth": 4,
                                                                "name": "balanceOf",
                                                                "value": 534
                                                            },
                                                            {
                                                                "children": [
                                                                    {
                                                                        "children": [],
                                                                        "depth": 5,
                                                                        "name": "allowance",
                                                                        "value": 2717
                                                                    },
                                                                    {
                                                                        "children": [
                                                                            {
                                                                                "children": [],
                                                                                "depth": 6,
                                                                                "name": "getReserves",
                                                                                "value": 2504
                                                                            },
                                                                            {
                                                                                "children": [],
                                                                                "depth": 6,
                                                                                "name": "transferFrom",
                                                                                "value": 8225
                                                                            },
                                                                            {
                                                                                "children": [
                                                                                    {
                                                                                        "children": [],
                                                                                        "depth": 7,
                                                                                        "name": "transfer",
                                                                                        "value": 33038
                                                                                    },
                                                                                    {
                                                                                        "children": [],
                                                                                        "depth": 7,
                                                                                        "name": "balanceOf",
                                                                                        "value": 908
                                                                                    },
                                                                                    {
                                                                                        "children": [],
                                                                                        "depth": 7,
                                                                                        "name": "balanceOf",
                                                                                        "value": 534
                                                                                    }
                                                                                ],
                                                                                "depth": 6,
                                                                                "name": "swap",
                                                                                "value": 55387
                                                                            }
                                                                        ],
                                                                        "depth": 5,
                                                                        "name": "swapExactTokensForTokens",
                                                                        "value": 76413
                                                                    }
                                                                ],
                                                                "depth": 4,
                                                                "name": "trade",
                                                                "value": 88615
                                                            }
                                                        ],
                                                        "depth": 3,
                                                        "name": "transform",
                                                        "value": 101767
                                                    }
                                                ],
                                                "depth": 2,
                                                "name": "executeDelegateCall",
                                                "value": 105668
                                            },
                                            {
                                                "children": [
                                                    {
                                                        "children": [
                                                            {
                                                                "children": [],
                                                                "depth": 4,
                                                                "name": "transfer",
                                                                "value": 9138
                                                            }
                                                        ],
                                                        "depth": 3,
                                                        "name": "transform",
                                                        "value": 12327
                                                    }
                                                ],
                                                "depth": 2,
                                                "name": "executeDelegateCall",
                                                "value": 16112
                                            },
                                            {
                                                "children": [
                                                    {
                                                        "children": [
                                                            {
                                                                "children": [],
                                                                "depth": 4,
                                                                "name": "balanceOf",
                                                                "value": 534
                                                            }
                                                        ],
                                                        "depth": 3,
                                                        "name": "transform",
                                                        "value": 3940
                                                    }
                                                ],
                                                "depth": 2,
                                                "name": "executeDelegateCall",
                                                "value": 7737
                                            },
                                            {
                                                "children": [],
                                                "depth": 2,
                                                "name": "balanceOf",
                                                "value": 908
                                            },
                                            {
                                                "children": [
                                                    {
                                                        "children": [],
                                                        "depth": 3,
                                                        "name": "transfer",
                                                        "value": 7138
                                                    }
                                                ],
                                                "depth": 2,
                                                "name": "executeCall",
                                                "value": 8429
                                            },
                                            {
                                                "children": [],
                                                "depth": 2,
                                                "name": "balanceOf",
                                                "value": 908
                                            }
                                        ],
                                        "depth": 1,
                                        "name": "transformERC20",
                                        "value": 228231
                                    }
                                ],
                                "depth": 0,
                                "name": "Executed Gas",
                                "value": 234654
                            }
                        ],
                        "depth": -1,
                        "name": "Actual Gas Used",
                        "value": 225618
                    },
                    {
                        "children": [],
                        "depth": -1,
                        "name": "Refunded Gas",
                        "value": 42600
                    }
                ],
                "depth": -2,
                "name": "Total Gas",
                "value": 268218
            }
        ],
        "isConfirmed": true,
        "mainTrace": [
            {
                "children": [
                    {
                        "children": [
                            {
                                "children": [
                                    {
                                        "children": [],
                                        "depth": 2,
                                        "id": 2,
                                        "order": 2
                                    },
                                    {
                                        "children": [],
                                        "depth": 2,
                                        "id": 3,
                                        "order": 3
                                    },
                                    {
                                        "children": [
                                            {
                                                "children": [
                                                    {
                                                        "children": [
                                                            {
                                                                "children": [],
                                                                "depth": 5,
                                                                "id": 7,
                                                                "order": 7
                                                            }
                                                        ],
                                                        "depth": 4,
                                                        "id": 6,
                                                        "order": 6
                                                    }
                                                ],
                                                "depth": 3,
                                                "id": 5,
                                                "order": 5
                                            }
                                        ],
                                        "depth": 2,
                                        "id": 4,
                                        "order": 4
                                    },
                                    {
                                        "children": [
                                            {
                                                "children": [
                                                    {
                                                        "children": [],
                                                        "depth": 4,
                                                        "id": 10,
                                                        "order": 10
                                                    },
                                                    {
                                                        "children": [
                                                            {
                                                                "children": [],
                                                                "depth": 5,
                                                                "id": 12,
                                                                "order": 12
                                                            },
                                                            {
                                                                "children": [
                                                                    {
                                                                        "children": [],
                                                                        "depth": 6,
                                                                        "id": 14,
                                                                        "order": 14
                                                                    },
                                                                    {
                                                                        "children": [
                                                                            {
                                                                                "children": [],
                                                                                "depth": 7,
                                                                                "id": 16,
                                                                                "order": 16
                                                                            }
                                                                        ],
                                                                        "depth": 6,
                                                                        "id": 15,
                                                                        "order": 15
                                                                    },
                                                                    {
                                                                        "children": [
                                                                            {
                                                                                "children": [
                                                                                    {
                                                                                        "children": [],
                                                                                        "depth": 8,
                                                                                        "id": 19,
                                                                                        "order": 19
                                                                                    }
                                                                                ],
                                                                                "depth": 7,
                                                                                "id": 18,
                                                                                "order": 18
                                                                            },
                                                                            {
                                                                                "children": [],
                                                                                "depth": 7,
                                                                                "id": 20,
                                                                                "order": 20
                                                                            },
                                                                            {
                                                                                "children": [],
                                                                                "depth": 7,
                                                                                "id": 21,
                                                                                "order": 21
                                                                            },
                                                                            {
                                                                                "children": [],
                                                                                "depth": 7,
                                                                                "id": 22,
                                                                                "order": 22
                                                                            },
                                                                            {
                                                                                "children": [],
                                                                                "depth": 7,
                                                                                "id": 23,
                                                                                "order": 23
                                                                            }
                                                                        ],
                                                                        "depth": 6,
                                                                        "id": 17,
                                                                        "order": 17
                                                                    }
                                                                ],
                                                                "depth": 5,
                                                                "id": 13,
                                                                "order": 13
                                                            },
                                                            {
                                                                "children": [],
                                                                "depth": 5,
                                                                "id": 24,
                                                                "order": 24
                                                            }
                                                        ],
                                                        "depth": 4,
                                                        "id": 11,
                                                        "order": 11
                                                    }
                                                ],
                                                "depth": 3,
                                                "id": 9,
                                                "order": 9
                                            }
                                        ],
                                        "depth": 2,
                                        "id": 8,
                                        "order": 8
                                    },
                                    {
                                        "children": [
                                            {
                                                "children": [
                                                    {
                                                        "children": [
                                                            {
                                                                "children": [],
                                                                "depth": 5,
                                                                "id": 28,
                                                                "order": 28
                                                            }
                                                        ],
                                                        "depth": 4,
                                                        "id": 27,
                                                        "order": 27
                                                    }
                                                ],
                                                "depth": 3,
                                                "id": 26,
                                                "order": 26
                                            }
                                        ],
                                        "depth": 2,
                                        "id": 25,
                                        "order": 25
                                    },
                                    {
                                        "children": [
                                            {
                                                "children": [
                                                    {
                                                        "children": [],
                                                        "depth": 4,
                                                        "id": 31,
                                                        "order": 31
                                                    }
                                                ],
                                                "depth": 3,
                                                "id": 30,
                                                "order": 30
                                            }
                                        ],
                                        "depth": 2,
                                        "id": 29,
                                        "order": 29
                                    },
                                    {
                                        "children": [],
                                        "depth": 2,
                                        "id": 32,
                                        "order": 32
                                    },
                                    {
                                        "children": [
                                            {
                                                "children": [
                                                    {
                                                        "children": [],
                                                        "depth": 4,
                                                        "id": 35,
                                                        "order": 35
                                                    }
                                                ],
                                                "depth": 3,
                                                "id": 34,
                                                "order": 34
                                            }
                                        ],
                                        "depth": 2,
                                        "id": 33,
                                        "order": 33
                                    },
                                    {
                                        "children": [],
                                        "depth": 2,
                                        "id": 36,
                                        "order": 36
                                    },
                                    {
                                        "children": [],
                                        "depth": 2,
                                        "id": 37,
                                        "order": 37
                                    }
                                ],
                                "depth": 1,
                                "id": 1,
                                "order": 1
                            }
                        ],
                        "depth": 0,
                        "id": 0,
                        "order": 0
                    }
                ],
                "depth": -1,
                "id": -1,
                "order": -1
            }
        ],
        "mainTraceNodeCount": 38,
        "parentIdMap": {
            "0": -1,
            "1": 0,
            "10": 9,
            "11": 9,
            "12": 11,
            "13": 11,
            "14": 13,
            "15": 13,
            "16": 15,
            "17": 13,
            "18": 17,
            "19": 18,
            "2": 1,
            "20": 17,
            "21": 17,
            "22": 17,
            "23": 17,
            "24": 11,
            "25": 1,
            "26": 25,
            "27": 26,
            "28": 27,
            "29": 1,
            "3": 1,
            "30": 29,
            "31": 30,
            "32": 1,
            "33": 1,
            "34": 33,
            "35": 34,
            "36": 1,
            "37": 1,
            "4": 1,
            "5": 4,
            "6": 5,
            "7": 6,
            "8": 1,
            "9": 8
        },
        "tidyTrace": [
            {
                "children": [
                    {
                        "children": [
                            {
                                "children": [
                                    {
                                        "children": [],
                                        "depth": 2,
                                        "id": 3,
                                        "order": 3
                                    },
                                    {
                                        "children": [
                                            {
                                                "children": [
                                                    {
                                                        "children": [
                                                            {
                                                                "children": [],
                                                                "depth": 5,
                                                                "id": 7,
                                                                "order": 7
                                                            }
                                                        ],
                                                        "depth": 4,
                                                        "id": 6,
                                                        "order": 6
                                                    }
                                                ],
                                                "depth": 3,
                                                "id": 5,
                                                "order": 5
                                            }
                                        ],
                                        "depth": 2,
                                        "id": 4,
                                        "order": 4
                                    },
                                    {
                                        "children": [
                                            {
                                                "children": [
                                                    {
                                                        "children": [
                                                            {
                                                                "children": [
                                                                    {
                                                                        "children": [
                                                                            {
                                                                                "children": [],
                                                                                "depth": 7,
                                                                                "id": 16,
                                                                                "order": 16
                                                                            }
                                                                        ],
                                                                        "depth": 6,
                                                                        "id": 15,
                                                                        "order": 15
                                                                    },
                                                                    {
                                                                        "children": [
                                                                            {
                                                                                "children": [
                                                                                    {
                                                                                        "children": [],
                                                                                        "depth": 8,
                                                                                        "id": 19,
                                                                                        "order": 19
                                                                                    }
                                                                                ],
                                                                                "depth": 7,
                                                                                "id": 18,
                                                                                "order": 18
                                                                            },
                                                                            {
                                                                                "children": [],
                                                                                "depth": 7,
                                                                                "id": 22,
                                                                                "order": 22
                                                                            },
                                                                            {
                                                                                "children": [],
                                                                                "depth": 7,
                                                                                "id": 23,
                                                                                "order": 23
                                                                            }
                                                                        ],
                                                                        "depth": 6,
                                                                        "id": 17,
                                                                        "order": 17
                                                                    }
                                                                ],
                                                                "depth": 5,
                                                                "id": 13,
                                                                "order": 13
                                                            },
                                                            {
                                                                "children": [],
                                                                "depth": 5,
                                                                "id": 24,
                                                                "order": 24
                                                            }
                                                        ],
                                                        "depth": 4,
                                                        "id": 11,
                                                        "order": 11
                                                    }
                                                ],
                                                "depth": 3,
                                                "id": 9,
                                                "order": 9
                                            }
                                        ],
                                        "depth": 2,
                                        "id": 8,
                                        "order": 8
                                    },
                                    {
                                        "children": [
                                            {
                                                "children": [
                                                    {
                                                        "children": [
                                                            {
                                                                "children": [],
                                                                "depth": 5,
                                                                "id": 28,
                                                                "order": 28
                                                            }
                                                        ],
                                                        "depth": 4,
                                                        "id": 27,
                                                        "order": 27
                                                    }
                                                ],
                                                "depth": 3,
                                                "id": 26,
                                                "order": 26
                                            }
                                        ],
                                        "depth": 2,
                                        "id": 25,
                                        "order": 25
                                    },
                                    {
                                        "children": [
                                            {
                                                "children": [],
                                                "depth": 3,
                                                "id": 30,
                                                "order": 30
                                            }
                                        ],
                                        "depth": 2,
                                        "id": 29,
                                        "order": 29
                                    },
                                    {
                                        "children": [
                                            {
                                                "children": [
                                                    {
                                                        "children": [],
                                                        "depth": 4,
                                                        "id": 35,
                                                        "order": 35
                                                    }
                                                ],
                                                "depth": 3,
                                                "id": 34,
                                                "order": 34
                                            }
                                        ],
                                        "depth": 2,
                                        "id": 33,
                                        "order": 33
                                    },
                                    {
                                        "children": [],
                                        "depth": 2,
                                        "id": 37,
                                        "order": 37
                                    }
                                ],
                                "depth": 1,
                                "id": 1,
                                "order": 1
                            }
                        ],
                        "depth": 0,
                        "id": 0,
                        "order": 0
                    }
                ],
                "depth": -1,
                "id": -1,
                "order": -1
            }
        ],
        "tidyTraceNodeCount": 29
    },
    "state_change": {
        "stateChanges": [
            {
                "address": "0x9010a15184da16e3a7c5b4aa50094dfe3bb36989",
                "erc": "ERC-20",
                "slots": [
                    {
                        "current": "0x0000000000000000000000000000000000000000008b67140b55b44736e11488",
                        "key": "0x460fbb57a09d826f92d7d239ed33952295c8f7c88fe04f5a5df837597adaed43",
                        "prev": "0x0000000000000000000000000000000000000000008bf381455e713592c10c6a"
                    },
                    {
                        "current": "0x000000000000000000000000000000000000000000011f54aa0ad46d3632ba4c",
                        "key": "0x2b92a8817974be9ca4c428eecc7a5142fac8b633752fbedc20365449fffbbf43",
                        "prev": "0x000000000000000000000000000000000000000000011ee9c1b7e531a0c0d816"
                    },
                    {
                        "current": "0x000000000000000000000000000000000000000000011e47e5c2b8a5914215ac",
                        "key": "0x526dd7db45bbeb4e58b6ef40f61ed6de4b59447fef8948dc810ad67324dc463d",
                        "prev": "0x000000000000000000000000000000000000000000009245940ceaf2cad40000"
                    }
                ],
                "storageVariables": [
                    {
                        "name": "_balances",
                        "type": "mapping(address => uint256)",
                        "value": {
                            "pairs": [
                                {
                                    "key": "0x807c57d03e31628b5dc9595c722676cb3da1df1c",
                                    "value": {
                                        "current": "1351923088928153322788268",
                                        "prev": "690749000000000000000000",
                                        "typeTag": 1
                                    }
                                },
                                {
                                    "key": "0x96c195f6643a3d797cb90cb6ba0ae2776d51b5f3",
                                    "value": {
                                        "current": "1356880959925081519340108",
                                        "prev": "1354908864347464227936278",
                                        "typeTag": 1
                                    }
                                },
                                {
                                    "key": "0x9a1071d17b8126679aeca3ef152f784bca339c3a",
                                    "value": {
                                        "current": "168527462425807628326212744",
                                        "prev": "169190608610313398940404842",
                                        "typeTag": 1
                                    }
                                }
                            ],
                            "typeTag": 4
                        }
                    }
                ]
            },
            {
                "address": "0x9a1071d17b8126679aeca3ef152f784bca339c3a",
                "erc": "ERC-20",
                "slots": [
                    {
                        "current": "0x61ce910a0000000000016102a997867942130000008b67140b55b44736e11488",
                        "key": "0x0000000000000000000000000000000000000000000000000000000000000008",
                        "prev": "0x61ce910a0000000000015f9f641f28ef42130000008bf381455e713592c10c6a"
                    }
                ],
                "storageVariables": [
                    {
                        "name": "reserve0",
                        "type": "uint112",
                        "value": {
                            "current": "168527462425807628326212744",
                            "prev": "169190608610313398940404842",
                            "typeTag": 1
                        }
                    },
                    {
                        "name": "reserve1",
                        "type": "uint112",
                        "value": {
                            "current": "25437080113603232275",
                            "prev": "25337080113603232275",
                            "typeTag": 1
                        }
                    },
                    {
                        "name": "blockTimestampLast",
                        "type": "uint32",
                        "value": {
                            "current": "1640927498",
                            "prev": "1640927498",
                            "typeTag": 1
                        }
                    }
                ]
            },
            {
                "address": "0xc02aaa39b223fe8d0a0e5c4f27ead9083c756cc2",
                "erc": "ERC-20",
                "slots": [
                    {
                        "current": "0x0000000000000000000000000000000000000000000000016102a99786794213",
                        "key": "0x355209f22c4b3ae48d11eaf0b6b57e0fe139f6af535fa6ab003788a93db0d8bf",
                        "prev": "0x0000000000000000000000000000000000000000000000015f9f641f28ef4213"
                    }
                ],
                "storageVariables": [
                    {
                        "name": "balanceOf",
                        "type": "mapping(address => uint256)",
                        "value": {
                            "pairs": [
                                {
                                    "key": "0x9a1071d17b8126679aeca3ef152f784bca339c3a",
                                    "value": {
                                        "current": "25437080113603232275",
                                        "prev": "25337080113603232275",
                                        "typeTag": 1
                                    }
                                }
                            ],
                            "typeTag": 4
                        }
                    }
                ]
            }
        ]
    }
}