{
    "balance_change": {
        "balanceChanges": [
            {
                "account": "0xc6041b99cbcc4ff8eb62e5361c4147bfa6a77931",
                "assets": [
                    {
                        "address": "0xddaaf4a0702a03a4505f2352a1aba001ffc344be",
                        "amount": "53",
                        "iconUrl": "",
                        "isERC1155": false,
                        "isERC721": false,
                        "sign": false,
                        "value": ""
                    }
                ]
            },
            {
                "account": "0xdae400c9f91c7b7d7eb6e2f6f66897550fafe7c5",
                "assets": [
                    {
                        "address": "0xddaaf4a0702a03a4505f2352a1aba001ffc344be",
                        "amount": "53",
                        "iconUrl": "",
                        "isERC1155": false,
                        "isERC721": false,
                        "sign": true,
                        "value": ""
                    }
                ]
            }
        ]
    },
    "profile": {
        "basic_info": {
            "baseFee": "",
            "blockNumber": 6860339,
            "callData": "0xa9059cbb000000000000000000000000dae400c9f91c7b7d7eb6e2f6f66897550fafe7c5000000000000000000000000000000000000000000000002df85d331a7b40000",
            "debugEnable": true,
            "errorInfo": "",
            "eventCount": 1,
            "feeRecipient": "0x52bc44d5378309ee2abf1539bf71de1b7d7be3b5",
            "formatValue": "0",
            "gasLimit": 800000,
            "gasPrice": "5.04",
            "gasUsed": 38691,
            "intTxnCount": 0,
            "internalRevert": false,
            "internalRevertMessage": "",
            "isContractCreation": false,
            "isFlashloan": false,
            "maxFee": "",
            "nonce": 601,
            "overwritedBlockNumber": -1,
            "priorityFee": "",
            "receiver": "0xddaaf4a0702a03a4505f2352a1aba001ffc344be",
            "revertMessage": "",
            "sender": "0xc6041b99cbcc4ff8eb62e5361c4147bfa6a77931",
            "simulationEnable": true,
            "sourceTxnHash": "0xc0793723c6daa8a4a77d60ecba61680333760b587418e64ac5b7de4e984c3d0d",
            "status": true,
            "timestamp": "2018-12-10T10:28:52Z",
            "transactionFee": "0.00019500264",
            "txnHash": "0xc0793723c6daa8a4a77d60ecba61680333760b587418e64ac5b7de4e984c3d0d",
            "txnIndex": 111,
            "type": 0,
            "value": "0"
        },
        "fund_flow": [
            {
                "amount": "53",
                "from": "0xc6041b99cbcc4ff8eb62e5361c4147bfa6a77931",
                "id": 1,
                "isERC1155": false,
                "isERC721": false,
                "isReverted": false,
                "order": 1,
                "to": "0xdae400c9f91c7b7d7eb6e2f6f66897550fafe7c5",
                "token": "0xddaaf4a0702a03a4505f2352a1aba001ffc344be"
            }
        ],
        "token_infos": [
            {
                "address": "0xc02aaa39b223fe8d0a0e5c4f27ead9083c756cc2",
                "decimals": 18
            },
            {
                "address": "0xddaaf4a0702a03a4505f2352a1aba001ffc344be",
                "decimals": 18
            },
            {
                "address": "0xeeeeeeeeeeeeeeeeeeeeeeeeeeeeeeeeeeeeeeee",
                "decimals": 18
            }
        ]
    },
    "address_label": {
        "labels": [
            {
                "address": "0x0000000000000000000000000000000000000003",
                "label": "Precompiled"
            },
            {
                "address": "0x0000000000000000000000000000000000000004",
                "label": "Precompiled"
            },
            {
                "address": "0xeeeeeeeeeeeeeeeeeeeeeeeeeeeeeeeeeeeeeeee",
                "label": "Ether"
            },
            {
                "address": "0xddaaf4a0702a03a4505f2352a1aba001ffc344be",
                "label": "ATCCOIN (ATCC)"
            },
            {
                "address": "0x0000000000000000000000000000000000000001",
                "label": "Precompiled"
            },
            {
                "address": "0x0000000000000000000000000000000000000002",
                "label": "Precompiled"
            }
        ]
    },
    "trace": {
        "accountLabels": null,
        "dataMap": {
            "-1": {
                "invocation": {
                    "address": "0xc6041b99cbcc4ff8eb62e5361c4147bfa6a77931",
                    "callData": "",
                    "decodedMethod": null,
                    "errorInfo": "",
                    "fromAddress": "",
                    "gasUsed": 0,
                    "id": -1,
                    "methodDecoded": false,
                    "operation": "",
                    "output": "",
                    "revert": false,
                    "revertMessage": "",
                    "selector": "",
                    "status": false,
                    "value": ""
                },
                "nodeType": 0
            },
            "0": {
                "invocation": {
                    "address": "0xddaaf4a0702a03a4505f2352a1aba001ffc344be",
                    "callData": "0x000000000000000000000000dae400c9f91c7b7d7eb6e2f6f66897550fafe7c5000000000000000000000000000000000000000000000002df85d331a7b40000",
                    "decodedMethod": {
                        "callParams": [
                            {
                                "name": "_to",
                                "type": "address",
                                "value": "0xdae400c9f91c7b7d7eb6e2f6f66897550fafe7c5"
                            },
                            {
                                "decimalAvailable": true,
                                "name": "_value",
                                "type": "uint256",
                                "value": "53,000,000,000,000,000,000"
                            }
                        ],
                        "constructorArguments": "",
                        "name": "transfer",
                        "returnParams": [],
                        "signature": "transfer(address,uint256)"
                    },
                    "errorInfo": "",
                    "fromAddress": "0xc6041b99cbcc4ff8eb62e5361c4147bfa6a77931",
                    "gasUsed": 38691,
                    "id": 0,
                    "methodDecoded": true,
                    "operation": "CALL",
                    "output": "",
                    "revert": false,
                    "revertMessage": "",
                    "selector": "0xa9059cbb",
                    "status": true,
                    "value": "0"
                },
                "nodeType": 0
            },
            "1": {
                "event": {
                    "contract": "0xddaaf4a0702a03a4505f2352a1aba001ffc344be",
                    "decodedLog": {
                        "name": "Transfer",
                        "params": [
                            {
                                "name": "from",
                                "type": "address",
                                "value": "0xc6041b99cbcc4ff8eb62e5361c4147bfa6a77931"
                            },
                            {
                                "name": "to",
                                "type": "address",
                                "value": "0xdae400c9f91c7b7d7eb6e2f6f66897550fafe7c5"
                            },
                            {
                                "decimalAvailable": true,
                                "name": "value",
                                "type": "uint256",
                                "value": "53,000,000,000,000,000,000"
                            }
                        ],
                        "signature": "Transfer(address,address,uint256)"
                    },
                    "id": 1,
                    "logData": "0x000000000000000000000000000000000000000000000002df85d331a7b40000",
                    "logDecoded": true,
                    "operation": "EVENT",
                    "revert": false,
                    "status": true,
                    "topics": [
                        "0xddf252ad1be2c89b69c2b068fc378daa952ba7f163c4a11628f55a4df523b3ef",
                        "0x000000000000000000000000c6041b99cbcc4ff8eb62e5361c4147bfa6a77931",
                        "0x000000000000000000000000dae400c9f91c7b7d7eb6e2f6f66897550fafe7c5"
                    ]
                },
                "nodeType": 1
            }
        },
        "gasFlame": [
            {
                "children": [
                    {
                        "children": [
                            {
                                "children": [],
                                "depth": 0,
                                "name": "Initial Gas",
                                "value": 23192
                            },
                            {
                                "children": [],
                                "depth": 0,
                                "name": "Executed Gas",
                                "value": 15499
                            }
                        ],
                        "depth": -1,
                        "name": "Actual Gas Used",
                        "value": 38691
                    },
                    {
                        "children": [],
                        "depth": -1,
                        "name": "Refunded Gas",
                        "value": 0
                    }
                ],
                "depth": -2,
                "name": "Total Gas",
                "value": 38691
            }
        ],
        "isConfirmed": true,
        "mainTrace": [
            {
                "children": [
                    {
                        "children": [
                            {
                                "children": [],
                                "depth": 1,
                                "id": 1,
                                "order": 1
                            }
                        ],
                        "depth": 0,
                        "id": 0,
                        "order": 0
                    }
                ],
                "depth": -1,
                "id": -1,
                "order": -1
            }
        ],
        "mainTraceNodeCount": 2,
        "parentIdMap": {
            "0": -1,
            "1": 0
        },
        "tidyTrace": [
            {
                "children": [
                    {
                        "children": [
                            {
                                "children": [],
                                "depth": 1,
                                "id": 1,
                                "order": 1
                            }
                        ],
                        "depth": 0,
                        "id": 0,
                        "order": 0
                    }
                ],
                "depth": -1,
                "id": -1,
                "order": -1
            }
        ],
        "tidyTraceNodeCount": 2
    },
    "state_change": {
        "stateChanges": [
            {
                "address": "0xddaaf4a0702a03a4505f2352a1aba001ffc344be",
                "erc": "ERC-20",
                "slots": [
                    {
                        "current": "0x00000000000000000000000000000000000000000000426199069b43e6213960",
                        "key": "0x1ca32bd69589d36a034fed2dd918bb710e1ad8a52203d94fd25a41f184e7d173",
                        "prev": "0x000000000000000000000000000000000000000000004264788c6e758dd53960"
                    },
                    {
                        "current": "0x000000000000000000000000000000000000000000000175471dbdae11c00000",
                        "key": "0xef5b0eabc571a041f1052474ab7fa3d0767ac7cab3b228921eb3242ca410d6bb",
                        "prev": "0x0000000000000000000000000000000000000000000001726797ea7c6a0c0000"
                    }
                ],
                "storageVariables": [
                    {
                        "name": "balances",
                        "type": "mapping(address => uint256)",
                        "value": {
                            "pairs": [
                                {
                                    "key": "0xc6041b99cbcc4ff8eb62e5361c4147bfa6a77931",
                                    "value": {
                                        "current": "313476548715999999900000",
                                        "prev": "313529548715999999900000",
                                        "typeTag": 1
                                    }
                                },
                                {
                                    "key": "0xdae400c9f91c7b7d7eb6e2f6f66897550fafe7c5",
                                    "value": {
                                        "current": "6885760000000000000000",
                                        "prev": "6832760000000000000000",
                                        "typeTag": 1
                                    }
                                }
                            ],
                            "typeTag": 4
                        }
                    }
                ]
            }
        ]
    }
}