{
    "balance_change": {
        "balanceChanges": [
            {
                "account": "0x2984581ece53a4390d1f568673cf693139c97049",
                "assets": [
                    {
                        "address": "0xea610b1153477720748dc13ed378003941d84fab",
                        "amount": "2,695",
                        "iconUrl": "",
                        "isERC1155": false,
                        "isERC721": false,
                        "sign": false,
                        "value": ""
                    }
                ]
            },
            {
                "account": "0x3698f6a93095c9d194364b5e06451ac73764b0c8",
                "assets": [
                    {
                        "address": "0xea610b1153477720748dc13ed378003941d84fab",
                        "amount": "2,695",
                        "iconUrl": "",
                        "isERC1155": false,
                        "isERC721": false,
                        "sign": true,
                        "value": ""
                    }
                ]
            }
        ]
    },
    "profile": {
        "basic_info": {
            "baseFee": "",
            "blockNumber": 4748134,
            "callData": "0xa9059cbb0000000000000000000000003698f6a93095c9d194364b5e06451ac73764b0c800000000000000000000000000000000000000000000009218a35d472dbc0000",
            "debugEnable": true,
            "errorInfo": "",
            "eventCount": 1,
            "feeRecipient": "0x5a0b54d5dc17e0aadc383d2db43b0a0d3e029c4c",
            "formatValue": "0",
            "gasLimit": 200000,
            "gasPrice": "50",
            "gasUsed": 36725,
            "intTxnCount": 0,
            "internalRevert": false,
            "internalRevertMessage": "",
            "isContractCreation": false,
            "isFlashloan": false,
            "maxFee": "",
            "nonce": 95540,
            "overwritedBlockNumber": -1,
            "priorityFee": "",
            "receiver": "0xea610b1153477720748dc13ed378003941d84fab",
            "revertMessage": "",
            "sender": "0x2984581ece53a4390d1f568673cf693139c97049",
            "simulationEnable": true,
            "sourceTxnHash": "0xc13ef3a2b0e7a42223f34a7ee0be6b320c2114b129d6eebb592c76ed3bec5edd",
            "status": true,
            "timestamp": "2017-12-17T11:03:13Z",
            "transactionFee": "0.00183625",
            "txnHash": "0xc13ef3a2b0e7a42223f34a7ee0be6b320c2114b129d6eebb592c76ed3bec5edd",
            "txnIndex": 17,
            "type": 0,
            "value": "0"
        },
        "fund_flow": [
            {
                "amount": "2,695",
                "from": "0x2984581ece53a4390d1f568673cf693139c97049",
                "id": 1,
                "isERC1155": false,
                "isERC721": false,
                "isReverted": false,
                "order": 1,
                "to": "0x3698f6a93095c9d194364b5e06451ac73764b0c8",
                "token": "0xea610b1153477720748dc13ed378003941d84fab"
            }
        ],
        "token_infos": [
            {
                "address": "0xc02aaa39b223fe8d0a0e5c4f27ead9083c756cc2",
                "decimals": 18
            },
            {
                "address": "0xea610b1153477720748dc13ed378003941d84fab",
                "decimals": 18
            },
            {
                "address": "0xeeeeeeeeeeeeeeeeeeeeeeeeeeeeeeeeeeeeeeee",
                "decimals": 18
            }
        ]
    },
    "address_label": {
        "labels": [
            {
                "address": "0xeeeeeeeeeeeeeeeeeeeeeeeeeeeeeeeeeeeeeeee",
                "label": "Ether"
            },
            {
                "address": "0x2984581ece53a4390d1f568673cf693139c97049",
                "label": "Cryptopia 2"
            },
            {
                "address": "0xea610b1153477720748dc13ed378003941d84fab",
                "label": "ALISToken"
            },
            {
                "address": "0x0000000000000000000000000000000000000001",
                "label": "Precompiled"
            },
            {
                "address": "0x0000000000000000000000000000000000000002",
                "label": "Precompiled"
            },
            {
                "address": "0x0000000000000000000000000000000000000003",
                "label": "Precompiled"
            },
            {
                "address": "0x0000000000000000000000000000000000000004",
                "label": "Precompiled"
            }
        ]
    },
    "trace": {
        "accountLabels": null,
        "dataMap": {
            "-1": {
                "invocation": {
                    "address": "0x2984581ece53a4390d1f568673cf693139c97049",
                    "callData": "",
                    "decodedMethod": null,
                    "errorInfo": "",
                    "fromAddress": "",
                    "gasUsed": 0,
                    "id": -1,
                    "methodDecoded": false,
                    "operation": "",
                    "output": "",
                    "revert": false,
                    "revertMessage": "",
                    "selector": "",
                    "status": false,
                    "value": ""
                },
                "nodeType": 0
            },
            "0": {
                "invocation": {
                    "address": "0xea610b1153477720748dc13ed378003941d84fab",
                    "callData": "0x0000000000000000000000003698f6a93095c9d194364b5e06451ac73764b0c800000000000000000000000000000000000000000000009218a35d472dbc0000",
                    "decodedMethod": {
                        "callParams": [
                            {
                                "name": "_to",
                                "type": "address",
                                "value": "0x3698f6a93095c9d194364b5e06451ac73764b0c8"
                            },
                            {
                                "decimalAvailable": true,
                                "name": "_value",
                                "type": "uint256",
                                "value": "2,695,000,000,000,000,000,000"
                            }
                        ],
                        "constructorArguments": "",
                        "name": "transfer",
                        "returnParams": [
                            {
                                "name": "",
                                "type": "bool",
                                "value": true
                            }
                        ],
                        "signature": "transfer(address,uint256)"
                    },
                    "errorInfo": "",
                    "fromAddress": "0x2984581ece53a4390d1f568673cf693139c97049",
                    "gasUsed": 36725,
                    "id": 0,
                    "methodDecoded": true,
                    "operation": "CALL",
                    "output": "0x0000000000000000000000000000000000000000000000000000000000000001",
                    "revert": false,
                    "revertMessage": "",
                    "selector": "0xa9059cbb",
                    "status": true,
                    "value": "0"
                },
                "nodeType": 0
            },
            "1": {
                "event": {
                    "contract": "0xea610b1153477720748dc13ed378003941d84fab",
                    "decodedLog": {
                        "name": "Transfer",
                        "params": [
                            {
                                "name": "from",
                                "type": "address",
                                "value": "0x2984581ece53a4390d1f568673cf693139c97049"
                            },
                            {
                                "name": "to",
                                "type": "address",
                                "value": "0x3698f6a93095c9d194364b5e06451ac73764b0c8"
                            },
                            {
                                "decimalAvailable": true,
                                "name": "value",
                                "type": "uint256",
                                "value": "2,695,000,000,000,000,000,000"
                            }
                        ],
                        "signature": "Transfer(address,address,uint256)"
                    },
                    "id": 1,
                    "logData": "0x00000000000000000000000000000000000000000000009218a35d472dbc0000",
                    "logDecoded": true,
                    "operation": "EVENT",
                    "revert": false,
                    "status": true,
                    "topics": [
                        "0xddf252ad1be2c89b69c2b068fc378daa952ba7f163c4a11628f55a4df523b3ef",
                        "0x0000000000000000000000002984581ece53a4390d1f568673cf693139c97049",
                        "0x0000000000000000000000003698f6a93095c9d194364b5e06451ac73764b0c8"
                    ]
                },
                "nodeType": 1
            }
        },
        "gasFlame": [
            {
                "children": [
                    {
                        "children": [
                            {
                                "children": [],
                                "depth": 0,
                                "name": "Initial Gas",
                                "value": 23256
                            },
                            {
                                "children": [],
                                "depth": 0,
                                "name": "Executed Gas",
                                "value": 13469
                            }
                        ],
                        "depth": -1,
                        "name": "Actual Gas Used",
                        "value": 36725
                    },
                    {
                        "children": [],
                        "depth": -1,
                        "name": "Refunded Gas",
                        "value": 0
                    }
                ],
                "depth": -2,
                "name": "Total Gas",
                "value": 36725
            }
        ],
        "isConfirmed": true,
        "mainTrace": [
            {
                "children": [
                    {
                        "children": [
                            {
                                "children": [],
                                "depth": 1,
                                "id": 1,
                                "order": 1
                            }
                        ],
                        "depth": 0,
                        "id": 0,
                        "order": 0
                    }
                ],
                "depth": -1,
                "id": -1,
                "order": -1
            }
        ],
        "mainTraceNodeCount": 2,
        "parentIdMap": {
            "0": -1,
            "1": 0
        },
        "tidyTrace": [
            {
                "children": [
                    {
                        "children": [
                            {
                                "children": [],
                                "depth": 1,
                                "id": 1,
                                "order": 1
                            }
                        ],
                        "depth": 0,
                        "id": 0,
                        "order": 0
                    }
                ],
                "depth": -1,
                "id": -1,
                "order": -1
            }
        ],
        "tidyTraceNodeCount": 2
    },
    "state_change": {
        "stateChanges": [
            {
                "address": "0xea610b1153477720748dc13ed378003941d84fab",
                "erc": "ERC-20",
                "slots": [
                    {
                        "current": "0x00000000000000000000000000000000000000000003ea687f2acc2aebb07a40",
                        "key": "0x37c399e879c3fb054e7b410fd2b3d57851d2c9fe974f82761ad62e020336d486",
                        "prev": "0x00000000000000000000000000000000000000000003eafa97ce2972196c7a40"
                    },
                    {
                        "current": "0x0000000000000000000000000000000000000000000005a7b36f40c7d87e5800",
                        "key": "0x383df542ede1a8dd8cb210937740ee08cfba1d3d7e17041a8e84eb460b2a6084",
                        "prev": "0x0000000000000000000000000000000000000000000005159acbe380aac25800"
                    }
                ],
                "storageVariables": [
                    {
                        "name": "balances",
                        "type": "mapping(address => uint256)",
                        "value": {
                            "pairs": [
                                {
                                    "key": "0x2984581ece53a4390d1f568673cf693139c97049",
                                    "value": {
                                        "current": "4733738840579926851091008",
                                        "prev": "4736433840579926851091008",
                                        "typeTag": 1
                                    }
                                },
                                {
                                    "key": "0x3698f6a93095c9d194364b5e06451ac73764b0c8",
                                    "value": {
                                        "current": "26705368298940000000000",
                                        "prev": "24010368298940000000000",
                                        "typeTag": 1
                                    }
                                }
                            ],
                            "typeTag": 4
                        }
                    }
                ]
            }
        ]
    }
}