{
    "balance_change": {
        "balanceChanges": [
            {
                "account": "0xd1be97d6305c5a58a0eb999281fa400928816753",
                "assets": [
                    {
                        "address": "0xd5ebf09d9f11475c887ab5e150cfaeee7d7c10c4",
                        "amount": "1",
                        "iconUrl": "",
                        "isERC1155": false,
                        "isERC721": true,
                        "sign": false,
                        "tokenID": "4958",
                        "value": ""
                    }
                ]
            },
            {
                "account": "0x30b5459424c25df3887d66e4cf916bc64582fc71",
                "assets": [
                    {
                        "address": "0xd5ebf09d9f11475c887ab5e150cfaeee7d7c10c4",
                        "amount": "1",
                        "iconUrl": "",
                        "isERC1155": false,
                        "isERC721": true,
                        "sign": true,
                        "tokenID": "4958",
                        "value": ""
                    }
                ]
            }
        ]
    },
    "profile": {
        "basic_info": {
            "baseFee": "49.555449598",
            "blockNumber": 14889010,
            "callData": "0x42842e0e000000000000000000000000d1be97d6305c5a58a0eb999281fa40092881675300000000000000000000000030b5459424c25df3887d66e4cf916bc64582fc71000000000000000000000000000000000000000000000000000000000000135e",
            "debugEnable": true,
            "errorInfo": "",
            "eventCount": 1,
            "feeRecipient": "0xea674fdde714fd979de3edf0f56aa9716b898ec8",
            "formatValue": "0",
            "gasLimit": 59422,
            "gasPrice": "51.555449598",
            "gasUsed": 49519,
            "intTxnCount": 0,
            "internalRevert": false,
            "internalRevertMessage": "",
            "isContractCreation": false,
            "isFlashloan": false,
            "maxFee": "56.81",
            "nonce": 178,
            "overwritedBlockNumber": -1,
            "priorityFee": "2",
            "receiver": "0xd5ebf09d9f11475c887ab5e150cfaeee7d7c10c4",
            "revertMessage": "",
            "sender": "0xd1be97d6305c5a58a0eb999281fa400928816753",
            "simulationEnable": true,
            "sourceTxnHash": "0xc195ddbc07a212f96d4fe06d547b6ff08e248a9b908562080c0e53cd02b01d90",
            "status": true,
            "timestamp": "2022-06-02T04:48:49Z",
            "transactionFee": "0.002552974308643362",
            "txnHash": "0xc195ddbc07a212f96d4fe06d547b6ff08e248a9b908562080c0e53cd02b01d90",
            "txnIndex": 49,
            "type": 2,
            "value": "0"
        },
        "fund_flow": [
            {
                "amount": "1",
                "from": "0xd1be97d6305c5a58a0eb999281fa400928816753",
                "id": 1,
                "isERC1155": false,
                "isERC721": true,
                "isReverted": false,
                "order": 1,
                "to": "0x30b5459424c25df3887d66e4cf916bc64582fc71",
                "token": "0xd5ebf09d9f11475c887ab5e150cfaeee7d7c10c4",
                "tokenID": "4958"
            }
        ],
        "token_infos": [
            {
                "address": "0xc02aaa39b223fe8d0a0e5c4f27ead9083c756cc2",
                "decimals": 18
            },
            {
                "address": "0xeeeeeeeeeeeeeeeeeeeeeeeeeeeeeeeeeeeeeeee",
                "decimals": 18
            }
        ]
    },
    "address_label": {
        "labels": [
            {
                "address": "0xeeeeeeeeeeeeeeeeeeeeeeeeeeeeeeeeeeeeeeee",
                "label": "Ether"
            },
            {
                "address": "0xd5ebf09d9f11475c887ab5e150cfaeee7d7c10c4",
                "label": "goblinpisswtf: gpw Token"
            },
            {
                "address": "0x0000000000000000000000000000000000000001",
                "label": "Precompiled"
            },
            {
                "address": "0x0000000000000000000000000000000000000002",
                "label": "Precompiled"
            },
            {
                "address": "0x0000000000000000000000000000000000000003",
                "label": "Precompiled"
            },
            {
                "address": "0x0000000000000000000000000000000000000004",
                "label": "Precompiled"
            }
        ]
    },
    "trace": {
        "accountLabels": null,
        "dataMap": {
            "-1": {
                "invocation": {
                    "address": "0xd1be97d6305c5a58a0eb999281fa400928816753",
                    "callData": "",
                    "decodedMethod": null,
                    "errorInfo": "",
                    "fromAddress": "",
                    "gasUsed": 0,
                    "id": -1,
                    "methodDecoded": false,
                    "operation": "",
                    "output": "",
                    "revert": false,
                    "revertMessage": "",
                    "selector": "",
                    "status": false,
                    "value": ""
                },
                "nodeType": 0
            },
            "0": {
                "invocation": {
                    "address": "0xd5ebf09d9f11475c887ab5e150cfaeee7d7c10c4",
                    "callData": "0x000000000000000000000000d1be97d6305c5a58a0eb999281fa40092881675300000000000000000000000030b5459424c25df3887d66e4cf916bc64582fc71000000000000000000000000000000000000000000000000000000000000135e",
                    "decodedMethod": {
                        "callParams": [
                            {
                                "name": "from",
                                "type": "address",
                                "value": "0xd1be97d6305c5a58a0eb999281fa400928816753"
                            },
                            {
                                "name": "to",
                                "type": "address",
                                "value": "0x30b5459424c25df3887d66e4cf916bc64582fc71"
                            },
                            {
                                "name": "tokenId",
                                "type": "uint256",
                                "value": "4,958"
                            }
                        ],
                        "constructorArguments": "",
                        "name": "safeTransferFrom",
                        "returnParams": [],
                        "signature": "safeTransferFrom(address,address,uint256)"
                    },
                    "errorInfo": "",
                    "fromAddress": "0xd1be97d6305c5a58a0eb999281fa400928816753",
                    "gasUsed": 49519,
                    "id": 0,
                    "methodDecoded": true,
                    "operation": "CALL",
                    "output": "",
                    "revert": false,
                    "revertMessage": "",
                    "selector": "0x42842e0e",
                    "status": true,
                    "value": "0"
                },
                "nodeType": 0
            },
            "1": {
                "event": {
                    "contract": "0xd5ebf09d9f11475c887ab5e150cfaeee7d7c10c4",
                    "decodedLog": {
                        "name": "Transfer",
                        "params": [
                            {
                                "name": "from",
                                "type": "address",
                                "value": "0xd1be97d6305c5a58a0eb999281fa400928816753"
                            },
                            {
                                "name": "to",
                                "type": "address",
                                "value": "0x30b5459424c25df3887d66e4cf916bc64582fc71"
                            },
                            {
                                "decimalAvailable": true,
                                "name": "tokenId",
                                "type": "uint256",
                                "value": "4,958"
                            }
                        ],
                        "signature": "Transfer(address,address,uint256)"
                    },
                    "id": 1,
                    "logData": "0x",
                    "logDecoded": true,
                    "operation": "EVENT",
                    "revert": false,
                    "status": true,
                    "topics": [
                        "0xddf252ad1be2c89b69c2b068fc378daa952ba7f163c4a11628f55a4df523b3ef",
                        "0x000000000000000000000000d1be97d6305c5a58a0eb999281fa400928816753",
                        "0x00000000000000000000000030b5459424c25df3887d66e4cf916bc64582fc71",
                        "0x000000000000000000000000000000000000000000000000000000000000135e"
                    ]
                },
                "nodeType": 1
            }
        },
        "gasFlame": [
            {
                "children": [
                    {
                        "children": [
                            {
                                "children": [],
                                "depth": 0,
                                "name": "Initial Gas",
                                "value": 21952
                            },
                            {
                                "children": [],
                                "depth": 0,
                                "name": "Executed Gas",
                                "value": 27567
                            }
                        ],
                        "depth": -1,
                        "name": "Actual Gas Used",
                        "value": 49519
                    },
                    {
                        "children": [],
                        "depth": -1,
                        "name": "Refunded Gas",
                        "value": 0
                    }
                ],
                "depth": -2,
                "name": "Total Gas",
                "value": 49519
            }
        ],
        "isConfirmed": true,
        "mainTrace": [
            {
                "children": [
                    {
                        "children": [
                            {
                                "children": [],
                                "depth": 1,
                                "id": 1,
                                "order": 1
                            }
                        ],
                        "depth": 0,
                        "id": 0,
                        "order": 0
                    }
                ],
                "depth": -1,
                "id": -1,
                "order": -1
            }
        ],
        "mainTraceNodeCount": 2,
        "parentIdMap": {
            "0": -1,
            "1": 0
        },
        "tidyTrace": [
            {
                "children": [
                    {
                        "children": [
                            {
                                "children": [],
                                "depth": 1,
                                "id": 1,
                                "order": 1
                            }
                        ],
                        "depth": 0,
                        "id": 0,
                        "order": 0
                    }
                ],
                "depth": -1,
                "id": -1,
                "order": -1
            }
        ],
        "tidyTraceNodeCount": 2
    },
    "state_change": {
        "stateChanges": [
            {
                "address": "0xd5ebf09d9f11475c887ab5e150cfaeee7d7c10c4",
                "erc": "ERC-721",
                "slots": [
                    {
                        "current": "0x00000002000000006298413130b5459424c25df3887d66e4cf916bc64582fc71",
                        "key": "0xe2fc19fb5b4c80f8609025e8e324c9fb6a9fff2a774dbf40d4b3efcd3dcca097",
                        "prev": "0x00000000000000006297dd2fd1be97d6305c5a58a0eb999281fa400928816753"
                    },
                    {
                        "current": "0x0000000000000000000000000000000000000000000000140000000000000003",
                        "key": "0xb6cb7ed0cda0c39eab4a51facf296c00b1af471f2b6e41b0ee50981aff4e388b",
                        "prev": "0x0000000000000000000000000000000000000000000000140000000000000004"
                    },
                    {
                        "current": "0x000000000000000000000000000000000000000000000014000000000000005f",
                        "key": "0xd36efa6de92c4432ab5892a527a710821dfbdd70cd30eb05064d3a15ffee6b9d",
                        "prev": "0x000000000000000000000000000000000000000000000014000000000000005e"
                    }
                ],
                "storageVariables": [
                    {
                        "name": "_packedOwnerships",
                        "type": "mapping(uint256 => uint256)",
                        "value": {
                            "pairs": [
                                {
                                    "key": "4958",
                                    "value": {
                                        "current": "53919893336718815696328869316577215038605385786578586906206811651185",
                                        "prev": "2417498690549275583252370449273798635541073206943078770515",
                                        "typeTag": 1
                                    }
                                }
                            ],
                            "typeTag": 4
                        }
                    },
                    {
                        "name": "_packedAddressData",
                        "type": "mapping(address => uint256)",
                        "value": {
                            "pairs": [
                                {
                                    "key": "0x30b5459424c25df3887d66e4cf916bc64582fc71",
                                    "value": {
                                        "current": "368934881474191032415",
                                        "prev": "368934881474191032414",
                                        "typeTag": 1
                                    }
                                },
                                {
                                    "key": "0xd1be97d6305c5a58a0eb999281fa400928816753",
                                    "value": {
                                        "current": "368934881474191032323",
                                        "prev": "368934881474191032324",
                                        "typeTag": 1
                                    }
                                }
                            ],
                            "typeTag": 4
                        }
                    }
                ]
            }
        ]
    }
}