{
    "balance_change": {
        "balanceChanges": [
            {
                "account": "0xa38de7e0d481b90ecd0bec54e6bc869194ab7595",
                "assets": [
                    {
                        "address": "0x100c2982e01679be991428448a7b8371af0cf478",
                        "amount": "1,000,000,000,000,000,000",
                        "iconUrl": "",
                        "isERC1155": false,
                        "isERC721": false,
                        "sign": false,
                        "value": ""
                    }
                ]
            },
            {
                "account": "0x4fd3fc3e36687d01fb0ed9d1fbdbee01c0e6d2d0",
                "assets": [
                    {
                        "address": "0x100c2982e01679be991428448a7b8371af0cf478",
                        "amount": "1,000,000,000,000,000,000",
                        "iconUrl": "",
                        "isERC1155": false,
                        "isERC721": false,
                        "sign": true,
                        "value": ""
                    }
                ]
            }
        ]
    },
    "profile": {
        "basic_info": {
            "baseFee": "",
            "blockNumber": 6744721,
            "callData": "0xa9059cbb0000000000000000000000004fd3fc3e36687d01fb0ed9d1fbdbee01c0e6d2d00000000000000000000000000000000000000000000000000de0b6b3a7640000",
            "debugEnable": true,
            "errorInfo": "",
            "eventCount": 1,
            "feeRecipient": "0x5a0b54d5dc17e0aadc383d2db43b0a0d3e029c4c",
            "formatValue": "0",
            "gasLimit": 102415,
            "gasPrice": "17",
            "gasUsed": 52415,
            "intTxnCount": 0,
            "internalRevert": false,
            "internalRevertMessage": "",
            "isContractCreation": false,
            "isFlashloan": false,
            "maxFee": "",
            "nonce": 2167,
            "overwritedBlockNumber": -1,
            "priorityFee": "",
            "receiver": "0x100c2982e01679be991428448a7b8371af0cf478",
            "revertMessage": "",
            "sender": "0xa38de7e0d481b90ecd0bec54e6bc869194ab7595",
            "simulationEnable": true,
            "sourceTxnHash": "0xc17f47fae16f2af166341a283315a2b397a38e674a698846a0ec7d9ba2639263",
            "status": true,
            "timestamp": "2018-11-21T09:06:51Z",
            "transactionFee": "0.000891055",
            "txnHash": "0xc17f47fae16f2af166341a283315a2b397a38e674a698846a0ec7d9ba2639263",
            "txnIndex": 201,
            "type": 0,
            "value": "0"
        },
        "fund_flow": [
            {
                "amount": "1,000,000,000,000,000,000",
                "from": "0xa38de7e0d481b90ecd0bec54e6bc869194ab7595",
                "id": 1,
                "isERC1155": false,
                "isERC721": false,
                "isReverted": false,
                "order": 1,
                "to": "0x4fd3fc3e36687d01fb0ed9d1fbdbee01c0e6d2d0",
                "token": "0x100c2982e01679be991428448a7b8371af0cf478"
            }
        ],
        "token_infos": [
            {
                "address": "0xc02aaa39b223fe8d0a0e5c4f27ead9083c756cc2",
                "decimals": 18
            },
            {
                "address": "0xeeeeeeeeeeeeeeeeeeeeeeeeeeeeeeeeeeeeeeee",
                "decimals": 18
            }
        ]
    },
    "address_label": {
        "labels": [
            {
                "address": "0x0000000000000000000000000000000000000004",
                "label": "Precompiled"
            },
            {
                "address": "0xeeeeeeeeeeeeeeeeeeeeeeeeeeeeeeeeeeeeeeee",
                "label": "Ether"
            },
            {
                "address": "0x100c2982e01679be991428448a7b8371af0cf478",
                "label": "EveryToken"
            },
            {
                "address": "0x0000000000000000000000000000000000000001",
                "label": "Precompiled"
            },
            {
                "address": "0x0000000000000000000000000000000000000002",
                "label": "Precompiled"
            },
            {
                "address": "0x0000000000000000000000000000000000000003",
                "label": "Precompiled"
            }
        ]
    },
    "trace": {
        "accountLabels": null,
        "dataMap": {
            "-1": {
                "invocation": {
                    "address": "0xa38de7e0d481b90ecd0bec54e6bc869194ab7595",
                    "callData": "",
                    "decodedMethod": null,
                    "errorInfo": "",
                    "fromAddress": "",
                    "gasUsed": 0,
                    "id": -1,
                    "methodDecoded": false,
                    "operation": "",
                    "output": "",
                    "revert": false,
                    "revertMessage": "",
                    "selector": "",
                    "status": false,
                    "value": ""
                },
                "nodeType": 0
            },
            "0": {
                "invocation": {
                    "address": "0x100c2982e01679be991428448a7b8371af0cf478",
                    "callData": "0x0000000000000000000000004fd3fc3e36687d01fb0ed9d1fbdbee01c0e6d2d00000000000000000000000000000000000000000000000000de0b6b3a7640000",
                    "decodedMethod": {
                        "callParams": [
                            {
                                "name": "_to",
                                "type": "address",
                                "value": "0x4fd3fc3e36687d01fb0ed9d1fbdbee01c0e6d2d0"
                            },
                            {
                                "decimalAvailable": true,
                                "name": "_value",
                                "type": "uint256",
                                "value": "1,000,000,000,000,000,000"
                            }
                        ],
                        "constructorArguments": "",
                        "name": "transfer",
                        "returnParams": [
                            {
                                "name": "",
                                "type": "bool",
                                "value": true
                            }
                        ],
                        "signature": "transfer(address,uint256)"
                    },
                    "errorInfo": "",
                    "fromAddress": "0xa38de7e0d481b90ecd0bec54e6bc869194ab7595",
                    "gasUsed": 52415,
                    "id": 0,
                    "methodDecoded": true,
                    "operation": "CALL",
                    "output": "0x0000000000000000000000000000000000000000000000000000000000000001",
                    "revert": false,
                    "revertMessage": "",
                    "selector": "0xa9059cbb",
                    "status": true,
                    "value": "0"
                },
                "nodeType": 0
            },
            "1": {
                "event": {
                    "contract": "0x100c2982e01679be991428448a7b8371af0cf478",
                    "decodedLog": {
                        "name": "Transfer",
                        "params": [
                            {
                                "name": "from",
                                "type": "address",
                                "value": "0xa38de7e0d481b90ecd0bec54e6bc869194ab7595"
                            },
                            {
                                "name": "to",
                                "type": "address",
                                "value": "0x4fd3fc3e36687d01fb0ed9d1fbdbee01c0e6d2d0"
                            },
                            {
                                "decimalAvailable": true,
                                "name": "value",
                                "type": "uint256",
                                "value": "1,000,000,000,000,000,000"
                            }
                        ],
                        "signature": "Transfer(address,address,uint256)"
                    },
                    "id": 1,
                    "logData": "0x0000000000000000000000000000000000000000000000000de0b6b3a7640000",
                    "logDecoded": true,
                    "operation": "EVENT",
                    "revert": false,
                    "status": true,
                    "topics": [
                        "0xddf252ad1be2c89b69c2b068fc378daa952ba7f163c4a11628f55a4df523b3ef",
                        "0x000000000000000000000000a38de7e0d481b90ecd0bec54e6bc869194ab7595",
                        "0x0000000000000000000000004fd3fc3e36687d01fb0ed9d1fbdbee01c0e6d2d0"
                    ]
                },
                "nodeType": 1
            }
        },
        "gasFlame": [
            {
                "children": [
                    {
                        "children": [
                            {
                                "children": [],
                                "depth": 0,
                                "name": "Initial Gas",
                                "value": 23192
                            },
                            {
                                "children": [],
                                "depth": 0,
                                "name": "Executed Gas",
                                "value": 29223
                            }
                        ],
                        "depth": -1,
                        "name": "Actual Gas Used",
                        "value": 52415
                    },
                    {
                        "children": [],
                        "depth": -1,
                        "name": "Refunded Gas",
                        "value": 0
                    }
                ],
                "depth": -2,
                "name": "Total Gas",
                "value": 52415
            }
        ],
        "isConfirmed": true,
        "mainTrace": [
            {
                "children": [
                    {
                        "children": [
                            {
                                "children": [],
                                "depth": 1,
                                "id": 1,
                                "order": 1
                            }
                        ],
                        "depth": 0,
                        "id": 0,
                        "order": 0
                    }
                ],
                "depth": -1,
                "id": -1,
                "order": -1
            }
        ],
        "mainTraceNodeCount": 2,
        "parentIdMap": {
            "0": -1,
            "1": 0
        },
        "tidyTrace": [
            {
                "children": [
                    {
                        "children": [
                            {
                                "children": [],
                                "depth": 1,
                                "id": 1,
                                "order": 1
                            }
                        ],
                        "depth": 0,
                        "id": 0,
                        "order": 0
                    }
                ],
                "depth": -1,
                "id": -1,
                "order": -1
            }
        ],
        "tidyTraceNodeCount": 2
    },
    "state_change": {
        "stateChanges": [
            {
                "address": "0x100c2982e01679be991428448a7b8371af0cf478",
                "erc": "ERC-20",
                "slots": [
                    {
                        "current": "0x00000000000000000000000000000000000000000000d0b54426f8974a6fff88",
                        "key": "0xa39d6afad7ec10caaa9fcde92f527894ba156ea3f49182118a532bc5ef312690",
                        "prev": "0x00000000000000000000000000000000000000000000d0b55207af4af1d3ff88"
                    },
                    {
                        "current": "0x0000000000000000000000000000000000000000000000000de0b6b3a7640000",
                        "key": "0xdfdacb4768cf049e8743f4818cfb7f9ef447753c60ea8bfdd817e343897519fe",
                        "prev": "0x0000000000000000000000000000000000000000000000000000000000000000"
                    }
                ],
                "storageVariables": [
                    {
                        "name": "balances",
                        "type": "mapping(address => uint256)",
                        "value": {
                            "pairs": [
                                {
                                    "key": "0x4fd3fc3e36687d01fb0ed9d1fbdbee01c0e6d2d0",
                                    "value": {
                                        "current": "1000000000000000000",
                                        "prev": "0",
                                        "typeTag": 1
                                    }
                                },
                                {
                                    "key": "0xa38de7e0d481b90ecd0bec54e6bc869194ab7595",
                                    "value": {
                                        "current": "985595999999999999999880",
                                        "prev": "985596999999999999999880",
                                        "typeTag": 1
                                    }
                                }
                            ],
                            "typeTag": 4
                        }
                    }
                ]
            }
        ]
    }
}