{
    "balance_change": {
        "balanceChanges": [
            {
                "account": "0x7d91702c4b52e74aab2fac533a5c2822a294b1e4",
                "assets": [
                    {
                        "address": "0x6a750d255416483bec1a31ca7050c6dac4263b57",
                        "amount": "159,250",
                        "iconUrl": "",
                        "isERC1155": false,
                        "isERC721": false,
                        "sign": false,
                        "value": ""
                    }
                ]
            },
            {
                "account": "0xd15afa6453a2c29a9495061d4937015618b3d767",
                "assets": [
                    {
                        "address": "0x6a750d255416483bec1a31ca7050c6dac4263b57",
                        "amount": "159,250",
                        "iconUrl": "",
                        "isERC1155": false,
                        "isERC721": false,
                        "sign": true,
                        "value": ""
                    }
                ]
            }
        ]
    },
    "profile": {
        "basic_info": {
            "baseFee": "",
            "blockNumber": 6682520,
            "callData": "0xa9059cbb000000000000000000000000d15afa6453a2c29a9495061d4937015618b3d7670000000000000000000000000000000000000000000021b8f5b55956bd080000",
            "debugEnable": true,
            "errorInfo": "",
            "eventCount": 1,
            "feeRecipient": "0xea674fdde714fd979de3edf0f56aa9716b898ec8",
            "formatValue": "0",
            "gasLimit": 60000,
            "gasPrice": "17.20298496",
            "gasUsed": 38419,
            "intTxnCount": 0,
            "internalRevert": false,
            "internalRevertMessage": "",
            "isContractCreation": false,
            "isFlashloan": false,
            "maxFee": "",
            "nonce": 0,
            "overwritedBlockNumber": -1,
            "priorityFee": "",
            "receiver": "0x6a750d255416483bec1a31ca7050c6dac4263b57",
            "revertMessage": "",
            "sender": "0x7d91702c4b52e74aab2fac533a5c2822a294b1e4",
            "simulationEnable": true,
            "sourceTxnHash": "0xc1351d7f9b71f6b30108d11f83e24ba26fdc28bf99d8a4ab6d40a22ee2a8045a",
            "status": true,
            "timestamp": "2018-11-11T04:25:53Z",
            "transactionFee": "0.00066092147917824",
            "txnHash": "0xc1351d7f9b71f6b30108d11f83e24ba26fdc28bf99d8a4ab6d40a22ee2a8045a",
            "txnIndex": 80,
            "type": 0,
            "value": "0"
        },
        "fund_flow": [
            {
                "amount": "159,250",
                "from": "0x7d91702c4b52e74aab2fac533a5c2822a294b1e4",
                "id": 1,
                "isERC1155": false,
                "isERC721": false,
                "isReverted": false,
                "order": 1,
                "to": "0xd15afa6453a2c29a9495061d4937015618b3d767",
                "token": "0x6a750d255416483bec1a31ca7050c6dac4263b57"
            }
        ],
        "token_infos": [
            {
                "address": "0x6a750d255416483bec1a31ca7050c6dac4263b57",
                "decimals": 18
            },
            {
                "address": "0xc02aaa39b223fe8d0a0e5c4f27ead9083c756cc2",
                "decimals": 18
            },
            {
                "address": "0xeeeeeeeeeeeeeeeeeeeeeeeeeeeeeeeeeeeeeeee",
                "decimals": 18
            }
        ]
    },
    "address_label": {
        "labels": [
            {
                "address": "0x0000000000000000000000000000000000000002",
                "label": "Precompiled"
            },
            {
                "address": "0x0000000000000000000000000000000000000003",
                "label": "Precompiled"
            },
            {
                "address": "0x0000000000000000000000000000000000000004",
                "label": "Precompiled"
            },
            {
                "address": "0xeeeeeeeeeeeeeeeeeeeeeeeeeeeeeeeeeeeeeeee",
                "label": "Ether"
            },
            {
                "address": "0x6a750d255416483bec1a31ca7050c6dac4263b57",
                "label": "MaxiMine: Old Token"
            },
            {
                "address": "0x0000000000000000000000000000000000000001",
                "label": "Precompiled"
            }
        ]
    },
    "trace": {
        "accountLabels": null,
        "dataMap": {
            "-1": {
                "invocation": {
                    "address": "0x7d91702c4b52e74aab2fac533a5c2822a294b1e4",
                    "callData": "",
                    "decodedMethod": null,
                    "errorInfo": "",
                    "fromAddress": "",
                    "gasUsed": 0,
                    "id": -1,
                    "methodDecoded": false,
                    "operation": "",
                    "output": "",
                    "revert": false,
                    "revertMessage": "",
                    "selector": "",
                    "status": false,
                    "value": ""
                },
                "nodeType": 0
            },
            "0": {
                "invocation": {
                    "address": "0x6a750d255416483bec1a31ca7050c6dac4263b57",
                    "callData": "0x000000000000000000000000d15afa6453a2c29a9495061d4937015618b3d7670000000000000000000000000000000000000000000021b8f5b55956bd080000",
                    "decodedMethod": {
                        "callParams": [
                            {
                                "name": "_to",
                                "type": "address",
                                "value": "0xd15afa6453a2c29a9495061d4937015618b3d767"
                            },
                            {
                                "decimalAvailable": true,
                                "name": "_value",
                                "type": "uint256",
                                "value": "159,250,000,000,000,000,000,000"
                            }
                        ],
                        "constructorArguments": "",
                        "name": "transfer",
                        "returnParams": [],
                        "signature": "transfer(address,uint256)"
                    },
                    "errorInfo": "",
                    "fromAddress": "0x7d91702c4b52e74aab2fac533a5c2822a294b1e4",
                    "gasUsed": 38419,
                    "id": 0,
                    "methodDecoded": true,
                    "operation": "CALL",
                    "output": "",
                    "revert": false,
                    "revertMessage": "",
                    "selector": "0xa9059cbb",
                    "status": true,
                    "value": "0"
                },
                "nodeType": 0
            },
            "1": {
                "event": {
                    "contract": "0x6a750d255416483bec1a31ca7050c6dac4263b57",
                    "decodedLog": {
                        "name": "Transfer",
                        "params": [
                            {
                                "name": "from",
                                "type": "address",
                                "value": "0x7d91702c4b52e74aab2fac533a5c2822a294b1e4"
                            },
                            {
                                "name": "to",
                                "type": "address",
                                "value": "0xd15afa6453a2c29a9495061d4937015618b3d767"
                            },
                            {
                                "decimalAvailable": true,
                                "name": "value",
                                "type": "uint256",
                                "value": "159,250,000,000,000,000,000,000"
                            }
                        ],
                        "signature": "Transfer(address,address,uint256)"
                    },
                    "id": 1,
                    "logData": "0x0000000000000000000000000000000000000000000021b8f5b55956bd080000",
                    "logDecoded": true,
                    "operation": "EVENT",
                    "revert": false,
                    "status": true,
                    "topics": [
                        "0xddf252ad1be2c89b69c2b068fc378daa952ba7f163c4a11628f55a4df523b3ef",
                        "0x0000000000000000000000007d91702c4b52e74aab2fac533a5c2822a294b1e4",
                        "0x000000000000000000000000d15afa6453a2c29a9495061d4937015618b3d767"
                    ]
                },
                "nodeType": 1
            }
        },
        "gasFlame": [
            {
                "children": [
                    {
                        "children": [
                            {
                                "children": [],
                                "depth": 0,
                                "name": "Initial Gas",
                                "value": 23320
                            },
                            {
                                "children": [],
                                "depth": 0,
                                "name": "Executed Gas",
                                "value": 30099
                            }
                        ],
                        "depth": -1,
                        "name": "Actual Gas Used",
                        "value": 38419
                    },
                    {
                        "children": [],
                        "depth": -1,
                        "name": "Refunded Gas",
                        "value": 15000
                    }
                ],
                "depth": -2,
                "name": "Total Gas",
                "value": 53419
            }
        ],
        "isConfirmed": true,
        "mainTrace": [
            {
                "children": [
                    {
                        "children": [
                            {
                                "children": [],
                                "depth": 1,
                                "id": 1,
                                "order": 1
                            }
                        ],
                        "depth": 0,
                        "id": 0,
                        "order": 0
                    }
                ],
                "depth": -1,
                "id": -1,
                "order": -1
            }
        ],
        "mainTraceNodeCount": 2,
        "parentIdMap": {
            "0": -1,
            "1": 0
        },
        "tidyTrace": [
            {
                "children": [
                    {
                        "children": [
                            {
                                "children": [],
                                "depth": 1,
                                "id": 1,
                                "order": 1
                            }
                        ],
                        "depth": 0,
                        "id": 0,
                        "order": 0
                    }
                ],
                "depth": -1,
                "id": -1,
                "order": -1
            }
        ],
        "tidyTraceNodeCount": 2
    },
    "state_change": {
        "stateChanges": [
            {
                "address": "0x6a750d255416483bec1a31ca7050c6dac4263b57",
                "erc": "",
                "slots": [
                    {
                        "current": "0x0000000000000000000000000000000000000000000000000000000000000000",
                        "key": "0xf2beb233606edfb56f08eb74086da357996dfb7bb70a95e9aa783c70a5e54e8e",
                        "prev": "0x0000000000000000000000000000000000000000000021b8f5b55956bd080000"
                    },
                    {
                        "current": "0x0000000000000000000000000000000000000000000021b8f5b55956bd080000",
                        "key": "0xfe68add10c67c85645f88fd6d7ee291eb533c15a78a5a0c8922729b088054f5f",
                        "prev": "0x0000000000000000000000000000000000000000000000000000000000000000"
                    }
                ],
                "storageVariables": [
                    {
                        "name": "balanceOf",
                        "type": "mapping(address => uint256)",
                        "value": {
                            "pairs": [
                                {
                                    "key": "0x7d91702c4b52e74aab2fac533a5c2822a294b1e4",
                                    "value": {
                                        "current": "0",
                                        "prev": "159250000000000000000000",
                                        "typeTag": 1
                                    }
                                },
                                {
                                    "key": "0xd15afa6453a2c29a9495061d4937015618b3d767",
                                    "value": {
                                        "current": "159250000000000000000000",
                                        "prev": "0",
                                        "typeTag": 1
                                    }
                                }
                            ],
                            "typeTag": 4
                        }
                    }
                ]
            }
        ]
    }
}