{
    "balance_change": {
        "balanceChanges": [
            {
                "account": "0x21a31ee1afc51d94c2efccaa2092ad1028285549",
                "assets": [
                    {
                        "address": "0x15d4c048f83bd7e37d49ea4c83a07267ec4203da",
                        "amount": "21,373",
                        "iconUrl": "https://assets.blocksec.com/icon/36a0407134848a889ddcbd7e9a9dcf40573e21005c8f0c446c3b8b39307d4b8c.png",
                        "isERC1155": false,
                        "isERC721": false,
                        "sign": false,
                        "value": "3378.898694"
                    }
                ]
            },
            {
                "account": "0x484381fd211598121d0deebf4c3724298c6bb04d",
                "assets": [
                    {
                        "address": "0x15d4c048f83bd7e37d49ea4c83a07267ec4203da",
                        "amount": "21,373",
                        "iconUrl": "https://assets.blocksec.com/icon/36a0407134848a889ddcbd7e9a9dcf40573e21005c8f0c446c3b8b39307d4b8c.png",
                        "isERC1155": false,
                        "isERC721": false,
                        "sign": true,
                        "value": "3378.898694"
                    }
                ]
            }
        ]
    },
    "profile": {
        "basic_info": {
            "baseFee": "64.30287989",
            "blockNumber": 14680891,
            "callData": "0xa9059cbb000000000000000000000000484381fd211598121d0deebf4c3724298c6bb04d000000000000000000000000000000000000000000000000000001f1a101dd00",
            "debugEnable": true,
            "errorInfo": "",
            "eventCount": 1,
            "feeRecipient": "0x00192fb10df37c9fb26829eb2cc623cd1bf599e8",
            "formatValue": "0",
            "gasLimit": 207128,
            "gasPrice": "66.30287989",
            "gasUsed": 34832,
            "intTxnCount": 0,
            "internalRevert": false,
            "internalRevertMessage": "",
            "isContractCreation": false,
            "isFlashloan": false,
            "maxFee": "120",
            "nonce": 3566734,
            "overwritedBlockNumber": -1,
            "priorityFee": "2",
            "receiver": "0x15d4c048f83bd7e37d49ea4c83a07267ec4203da",
            "revertMessage": "",
            "sender": "0x21a31ee1afc51d94c2efccaa2092ad1028285549",
            "simulationEnable": true,
            "sourceTxnHash": "0xc1aa6a0b1d5ba2cf6b5e2ad8ee1613a219d9a6c30b994775a95d496355686b5b",
            "status": true,
            "timestamp": "2022-04-29T18:40:32Z",
            "transactionFee": "0.00230946191232848",
            "txnHash": "0xc1aa6a0b1d5ba2cf6b5e2ad8ee1613a219d9a6c30b994775a95d496355686b5b",
            "txnIndex": 88,
            "type": 2,
            "value": "0"
        },
        "fund_flow": [
            {
                "amount": "21,373",
                "from": "0x21a31ee1afc51d94c2efccaa2092ad1028285549",
                "id": 1,
                "isERC1155": false,
                "isERC721": false,
                "isReverted": false,
                "order": 1,
                "to": "0x484381fd211598121d0deebf4c3724298c6bb04d",
                "token": "0x15d4c048f83bd7e37d49ea4c83a07267ec4203da"
            }
        ],
        "token_infos": [
            {
                "address": "0x15d4c048f83bd7e37d49ea4c83a07267ec4203da",
                "decimals": 8
            },
            {
                "address": "0xc02aaa39b223fe8d0a0e5c4f27ead9083c756cc2",
                "decimals": 18
            },
            {
                "address": "0xeeeeeeeeeeeeeeeeeeeeeeeeeeeeeeeeeeeeeeee",
                "decimals": 18
            }
        ]
    },
    "address_label": {
        "labels": [
            {
                "address": "0x15d4c048f83bd7e37d49ea4c83a07267ec4203da",
                "label": "GALA: Old GALA Token"
            },
            {
                "address": "0x21a31ee1afc51d94c2efccaa2092ad1028285549",
                "label": "Binance 15"
            },
            {
                "address": "0x0000000000000000000000000000000000000001",
                "label": "Precompiled"
            },
            {
                "address": "0x0000000000000000000000000000000000000002",
                "label": "Precompiled"
            },
            {
                "address": "0x0000000000000000000000000000000000000003",
                "label": "Precompiled"
            },
            {
                "address": "0x0000000000000000000000000000000000000004",
                "label": "Precompiled"
            },
            {
                "address": "0xeeeeeeeeeeeeeeeeeeeeeeeeeeeeeeeeeeeeeeee",
                "label": "Ether"
            }
        ]
    },
    "trace": {
        "accountLabels": null,
        "dataMap": {
            "-1": {
                "invocation": {
                    "address": "0x21a31ee1afc51d94c2efccaa2092ad1028285549",
                    "callData": "",
                    "decodedMethod": null,
                    "errorInfo": "",
                    "fromAddress": "",
                    "gasUsed": 0,
                    "id": -1,
                    "methodDecoded": false,
                    "operation": "",
                    "output": "",
                    "revert": false,
                    "revertMessage": "",
                    "selector": "",
                    "status": false,
                    "value": ""
                },
                "nodeType": 0
            },
            "0": {
                "invocation": {
                    "address": "0x15d4c048f83bd7e37d49ea4c83a07267ec4203da",
                    "callData": "0x000000000000000000000000484381fd211598121d0deebf4c3724298c6bb04d000000000000000000000000000000000000000000000000000001f1a101dd00",
                    "decodedMethod": {
                        "callParams": [
                            {
                                "name": "recipient",
                                "type": "address",
                                "value": "0x484381fd211598121d0deebf4c3724298c6bb04d"
                            },
                            {
                                "decimalAvailable": true,
                                "name": "amount",
                                "type": "uint256",
                                "value": "2,137,300,000,000"
                            }
                        ],
                        "constructorArguments": "",
                        "name": "transfer",
                        "returnParams": [
                            {
                                "name": "",
                                "type": "bool",
                                "value": true
                            }
                        ],
                        "signature": "transfer(address,uint256)"
                    },
                    "errorInfo": "",
                    "fromAddress": "0x21a31ee1afc51d94c2efccaa2092ad1028285549",
                    "gasUsed": 34832,
                    "id": 0,
                    "methodDecoded": true,
                    "operation": "CALL",
                    "output": "0x0000000000000000000000000000000000000000000000000000000000000001",
                    "revert": false,
                    "revertMessage": "",
                    "selector": "0xa9059cbb",
                    "status": true,
                    "value": "0"
                },
                "nodeType": 0
            },
            "1": {
                "event": {
                    "contract": "0x15d4c048f83bd7e37d49ea4c83a07267ec4203da",
                    "decodedLog": {
                        "name": "Transfer",
                        "params": [
                            {
                                "name": "from",
                                "type": "address",
                                "value": "0x21a31ee1afc51d94c2efccaa2092ad1028285549"
                            },
                            {
                                "name": "to",
                                "type": "address",
                                "value": "0x484381fd211598121d0deebf4c3724298c6bb04d"
                            },
                            {
                                "decimalAvailable": true,
                                "name": "value",
                                "type": "uint256",
                                "value": "2,137,300,000,000"
                            }
                        ],
                        "signature": "Transfer(address,address,uint256)"
                    },
                    "id": 1,
                    "logData": "0x000000000000000000000000000000000000000000000000000001f1a101dd00",
                    "logDecoded": true,
                    "operation": "EVENT",
                    "revert": false,
                    "status": true,
                    "topics": [
                        "0xddf252ad1be2c89b69c2b068fc378daa952ba7f163c4a11628f55a4df523b3ef",
                        "0x00000000000000000000000021a31ee1afc51d94c2efccaa2092ad1028285549",
                        "0x000000000000000000000000484381fd211598121d0deebf4c3724298c6bb04d"
                    ]
                },
                "nodeType": 1
            }
        },
        "gasFlame": [
            {
                "children": [
                    {
                        "children": [
                            {
                                "children": [],
                                "depth": 0,
                                "name": "Initial Gas",
                                "value": 21620
                            },
                            {
                                "children": [],
                                "depth": 0,
                                "name": "Executed Gas",
                                "value": 13212
                            }
                        ],
                        "depth": -1,
                        "name": "Actual Gas Used",
                        "value": 34832
                    },
                    {
                        "children": [],
                        "depth": -1,
                        "name": "Refunded Gas",
                        "value": 0
                    }
                ],
                "depth": -2,
                "name": "Total Gas",
                "value": 34832
            }
        ],
        "isConfirmed": true,
        "mainTrace": [
            {
                "children": [
                    {
                        "children": [
                            {
                                "children": [],
                                "depth": 1,
                                "id": 1,
                                "order": 1
                            }
                        ],
                        "depth": 0,
                        "id": 0,
                        "order": 0
                    }
                ],
                "depth": -1,
                "id": -1,
                "order": -1
            }
        ],
        "mainTraceNodeCount": 2,
        "parentIdMap": {
            "0": -1,
            "1": 0
        },
        "tidyTrace": [
            {
                "children": [
                    {
                        "children": [
                            {
                                "children": [],
                                "depth": 1,
                                "id": 1,
                                "order": 1
                            }
                        ],
                        "depth": 0,
                        "id": 0,
                        "order": 0
                    }
                ],
                "depth": -1,
                "id": -1,
                "order": -1
            }
        ],
        "tidyTraceNodeCount": 2
    },
    "state_change": {
        "stateChanges": [
            {
                "address": "0x15d4c048f83bd7e37d49ea4c83a07267ec4203da",
                "erc": "ERC-20",
                "slots": [
                    {
                        "current": "0x000000000000000000000000000000000000000000000000000002084d0272c0",
                        "key": "0x6741ef6ee697bf5f3e9a5fe97c8fc0e4ad0eb517e22548acff817a854b776464",
                        "prev": "0x00000000000000000000000000000000000000000000000000000016ac0095c0"
                    },
                    {
                        "current": "0x00000000000000000000000000000000000000000000000000039f9a4c461aac",
                        "key": "0x9319194a372d6da00e43ed5f7027e57f755d1a31b34a5351314b4fa3f025c34c",
                        "prev": "0x0000000000000000000000000000000000000000000000000003a18bed47f7ac"
                    }
                ],
                "storageVariables": [
                    {
                        "name": "_balances",
                        "type": "mapping(address => uint256)",
                        "value": {
                            "pairs": [
                                {
                                    "key": "0x21a31ee1afc51d94c2efccaa2092ad1028285549",
                                    "value": {
                                        "current": "1019909983574700",
                                        "prev": "1022047283574700",
                                        "typeTag": 1
                                    }
                                },
                                {
                                    "key": "0x484381fd211598121d0deebf4c3724298c6bb04d",
                                    "value": {
                                        "current": "2234675000000",
                                        "prev": "97375000000",
                                        "typeTag": 1
                                    }
                                }
                            ],
                            "typeTag": 4
                        }
                    }
                ]
            }
        ]
    }
}