{
    "balance_change": {
        "balanceChanges": [
            {
                "account": "0x5e4e86bd38fd5a211a5e697a04f1e91d1e03dcff",
                "assets": [
                    {
                        "address": "0xeeeeeeeeeeeeeeeeeeeeeeeeeeeeeeeeeeeeeeee",
                        "amount": "0.510269922868439324",
                        "iconUrl": "https://assets.blocksec.com/image/1663669189317-3.png",
                        "isERC1155": false,
                        "isERC721": false,
                        "sign": false,
                        "value": "808.1552984905619861"
                    }
                ]
            },
            {
                "account": "0xae0ee0a63a2ce6baeeffe56e7714fb4efe48d419",
                "assets": [
                    {
                        "address": "0xeeeeeeeeeeeeeeeeeeeeeeeeeeeeeeeeeeeeeeee",
                        "amount": "0.50999",
                        "iconUrl": "https://assets.blocksec.com/image/1663669189317-3.png",
                        "isERC1155": false,
                        "isERC721": false,
                        "sign": true,
                        "value": "807.7119621999999861"
                    }
                ]
            },
            {
                "account": "0xc662c410c0ecf747543f5ba90660f6abebd9c8c4",
                "assets": [
                    {
                        "address": "0xeeeeeeeeeeeeeeeeeeeeeeeeeeeeeeeeeeeeeeee",
                        "amount": "0.000279922868439324",
                        "iconUrl": "https://assets.blocksec.com/image/1663669189317-3.png",
                        "isERC1155": false,
                        "isERC721": false,
                        "sign": true,
                        "value": "0.44333624051455199235"
                    }
                ]
            }
        ]
    },
    "profile": {
        "basic_info": {
            "baseFee": "12.371415265",
            "blockNumber": 18185081,
            "callData": "0xe2bbb1580000000000000000000000000000000000000000000000000713d933f500600007cb8e86fe8a8ddc3211f60e7df26ae0e254e4df5009dde8a1dc122568ce7ee8",
            "debugEnable": true,
            "errorInfo": "",
            "eventCount": 2,
            "feeRecipient": "0x749af347607602bfe0e22769ae49554085f01c34",
            "formatValue": "0.510269922868439324",
            "gasLimit": 117230,
            "gasPrice": "12.471415265",
            "gasUsed": 115855,
            "intTxnCount": 3,
            "internalRevert": false,
            "internalRevertMessage": "",
            "isContractCreation": false,
            "isFlashloan": false,
            "maxFee": "16.494323497",
            "nonce": 1,
            "overwritedBlockNumber": -1,
            "priorityFee": "0.1",
            "receiver": "0xae0ee0a63a2ce6baeeffe56e7714fb4efe48d419",
            "revertMessage": "",
            "sender": "0x5e4e86bd38fd5a211a5e697a04f1e91d1e03dcff",
            "simulationEnable": true,
            "sourceTxnHash": "0xc1c44a6b70cff828c9604c3001ea8bfdf3e8c812f0c540534423e72f7eef6e50",
            "status": true,
            "timestamp": "2023-09-21T15:15:59Z",
            "transactionFee": "0.001444875815526575",
            "txnHash": "0xc1c44a6b70cff828c9604c3001ea8bfdf3e8c812f0c540534423e72f7eef6e50",
            "txnIndex": 55,
            "type": 2,
            "value": "510269922868439324"
        },
        "fund_flow": [
            {
                "amount": "0.510269922868439324",
                "from": "0x5e4e86bd38fd5a211a5e697a04f1e91d1e03dcff",
                "id": 1,
                "isERC1155": false,
                "isERC721": false,
                "isReverted": false,
                "order": 1,
                "to": "0xae0ee0a63a2ce6baeeffe56e7714fb4efe48d419",
                "token": "0xeeeeeeeeeeeeeeeeeeeeeeeeeeeeeeeeeeeeeeee"
            },
            {
                "amount": "0.000279922868439324",
                "from": "0xae0ee0a63a2ce6baeeffe56e7714fb4efe48d419",
                "id": 2,
                "isERC1155": false,
                "isERC721": false,
                "isReverted": false,
                "order": 2,
                "to": "0xc662c410c0ecf747543f5ba90660f6abebd9c8c4",
                "token": "0xeeeeeeeeeeeeeeeeeeeeeeeeeeeeeeeeeeeeeeee"
            }
        ],
        "token_infos": [
            {
                "address": "0xeeeeeeeeeeeeeeeeeeeeeeeeeeeeeeeeeeeeeeee",
                "decimals": 18
            },
            {
                "address": "0xc02aaa39b223fe8d0a0e5c4f27ead9083c756cc2",
                "decimals": 18
            }
        ]
    },
    "address_label": {
        "labels": [
            {
                "address": "0xc662c410c0ecf747543f5ba90660f6abebd9c8c4",
                "label": "Starknet: Core Contract"
            },
            {
                "address": "0xae0ee0a63a2ce6baeeffe56e7714fb4efe48d419",
                "label": "StarkNet: StarkGate ETH Bridge"
            },
            {
                "address": "0x0000000000000000000000000000000000000001",
                "label": "Precompiled"
            },
            {
                "address": "0x0000000000000000000000000000000000000002",
                "label": "Precompiled"
            },
            {
                "address": "0xeeeeeeeeeeeeeeeeeeeeeeeeeeeeeeeeeeeeeeee",
                "label": "Ether"
            },
            {
                "address": "0x16938e4b59297060484fa56a12594d8d6f4177e8",
                "label": "Starknet"
            },
            {
                "address": "0x455603ad9ae671f6c1f0f746f24d7904ca603581",
                "label": "StarknetEthBridge"
            },
            {
                "address": "0x0000000000000000000000000000000000000003",
                "label": "Precompiled"
            },
            {
                "address": "0x0000000000000000000000000000000000000004",
                "label": "Precompiled"
            }
        ]
    },
    "trace": {
        "accountLabels": null,
        "dataMap": {
            "-1": {
                "invocation": {
                    "address": "0x5e4e86bd38fd5a211a5e697a04f1e91d1e03dcff",
                    "callData": "",
                    "decodedMethod": null,
                    "errorInfo": "",
                    "fromAddress": "",
                    "gasUsed": 0,
                    "id": -1,
                    "methodDecoded": false,
                    "operation": "",
                    "output": "",
                    "revert": false,
                    "revertMessage": "",
                    "selector": "",
                    "status": false,
                    "value": ""
                },
                "nodeType": 0
            },
            "0": {
                "invocation": {
                    "address": "0xae0ee0a63a2ce6baeeffe56e7714fb4efe48d419",
                    "callData": "0x0000000000000000000000000000000000000000000000000713d933f500600007cb8e86fe8a8ddc3211f60e7df26ae0e254e4df5009dde8a1dc122568ce7ee8",
                    "decodedMethod": {
                        "callParams": [
                            {
                                "name": "amount",
                                "type": "uint256",
                                "value": "509,990,000,000,000,000"
                            },
                            {
                                "name": "l2Recipient",
                                "type": "uint256",
                                "value": "3,525,843,581,653,294,347,257,672,837,030,778,870,590,730,955,968,597,279,681,531,571,957,618,605,800"
                            }
                        ],
                        "constructorArguments": "",
                        "name": "deposit",
                        "returnParams": [],
                        "signature": "deposit(uint256,uint256)"
                    },
                    "errorInfo": "",
                    "fromAddress": "0x5e4e86bd38fd5a211a5e697a04f1e91d1e03dcff",
                    "gasUsed": 115855,
                    "id": 0,
                    "methodDecoded": true,
                    "operation": "CALL",
                    "output": "",
                    "revert": false,
                    "revertMessage": "",
                    "selector": "0xe2bbb158",
                    "status": true,
                    "value": "0.510269922868439324"
                },
                "nodeType": 0
            },
            "1": {
                "invocation": {
                    "address": "0x455603ad9ae671f6c1f0f746f24d7904ca603581",
                    "callData": "0x0000000000000000000000000000000000000000000000000713d933f500600007cb8e86fe8a8ddc3211f60e7df26ae0e254e4df5009dde8a1dc122568ce7ee8",
                    "decodedMethod": {
                        "callParams": [
                            {
                                "name": "amount",
                                "type": "uint256",
                                "value": "509,990,000,000,000,000"
                            },
                            {
                                "name": "l2Recipient",
                                "type": "uint256",
                                "value": "3,525,843,581,653,294,347,257,672,837,030,778,870,590,730,955,968,597,279,681,531,571,957,618,605,800"
                            }
                        ],
                        "constructorArguments": "",
                        "name": "deposit",
                        "returnParams": [],
                        "signature": "deposit(uint256,uint256)"
                    },
                    "errorInfo": "",
                    "fromAddress": "0xae0ee0a63a2ce6baeeffe56e7714fb4efe48d419",
                    "gasUsed": 89037,
                    "id": 1,
                    "methodDecoded": true,
                    "operation": "DELEGATECALL",
                    "output": "",
                    "revert": false,
                    "revertMessage": "",
                    "selector": "0xe2bbb158",
                    "status": true,
                    "value": "0.510269922868439324"
                },
                "nodeType": 0
            },
            "2": {
                "invocation": {
                    "address": "0xc662c410c0ecf747543f5ba90660f6abebd9c8c4",
                    "callData": "0x073314940630fd6dcda0d772d4c972c4e0a9946bef9dabf4ef84eda8ef542b8202d757788a8d8d6f21d1cd40bce38a8222d70654214e96ff95d8086e684fbee50000000000000000000000000000000000000000000000000000000000000060000000000000000000000000000000000000000000000000000000000000000307cb8e86fe8a8ddc3211f60e7df26ae0e254e4df5009dde8a1dc122568ce7ee80000000000000000000000000000000000000000000000000713d933f50060000000000000000000000000000000000000000000000000000000000000000000",
                    "decodedMethod": {
                        "callParams": [
                            {
                                "name": "toAddress",
                                "type": "uint256",
                                "value": "3,256,441,166,037,631,918,262,930,812,410,838,598,500,200,462,657,642,943,867,372,734,773,841,898,370"
                            },
                            {
                                "name": "selector",
                                "type": "uint256",
                                "value": "1,285,101,517,810,983,806,491,589,552,491,143,496,277,809,242,732,141,897,358,598,292,095,611,420,389"
                            },
                            {
                                "name": "payload",
                                "type": "uint256[]",
                                "value": [
                                    "3,525,843,581,653,294,347,257,672,837,030,778,870,590,730,955,968,597,279,681,531,571,957,618,605,800",
                                    "509,990,000,000,000,000",
                                    "0"
                                ]
                            }
                        ],
                        "constructorArguments": "",
                        "name": "sendMessageToL2",
                        "returnParams": [
                            {
                                "name": "",
                                "type": "bytes32",
                                "value": "0x527cc3d8e26ccbdabfbe9f8a8b67ae99fa4c9cf08ab60ed5d41e3264ac78133c"
                            },
                            {
                                "name": "",
                                "type": "uint256",
                                "value": "1,273,872"
                            }
                        ],
                        "signature": "sendMessageToL2(uint256,uint256,uint256[])"
                    },
                    "errorInfo": "",
                    "fromAddress": "0xae0ee0a63a2ce6baeeffe56e7714fb4efe48d419",
                    "gasUsed": 39012,
                    "id": 2,
                    "methodDecoded": true,
                    "operation": "CALL",
                    "output": "0x527cc3d8e26ccbdabfbe9f8a8b67ae99fa4c9cf08ab60ed5d41e3264ac78133c0000000000000000000000000000000000000000000000000000000000137010",
                    "revert": false,
                    "revertMessage": "",
                    "selector": "0x3e3aa6c5",
                    "status": true,
                    "value": "0.000279922868439324"
                },
                "nodeType": 0
            },
            "3": {
                "invocation": {
                    "address": "0x16938e4b59297060484fa56a12594d8d6f4177e8",
                    "callData": "0x073314940630fd6dcda0d772d4c972c4e0a9946bef9dabf4ef84eda8ef542b8202d757788a8d8d6f21d1cd40bce38a8222d70654214e96ff95d8086e684fbee50000000000000000000000000000000000000000000000000000000000000060000000000000000000000000000000000000000000000000000000000000000307cb8e86fe8a8ddc3211f60e7df26ae0e254e4df5009dde8a1dc122568ce7ee80000000000000000000000000000000000000000000000000713d933f50060000000000000000000000000000000000000000000000000000000000000000000",
                    "decodedMethod": {
                        "callParams": [
                            {
                                "name": "toAddress",
                                "type": "uint256",
                                "value": "3,256,441,166,037,631,918,262,930,812,410,838,598,500,200,462,657,642,943,867,372,734,773,841,898,370"
                            },
                            {
                                "name": "selector",
                                "type": "uint256",
                                "value": "1,285,101,517,810,983,806,491,589,552,491,143,496,277,809,242,732,141,897,358,598,292,095,611,420,389"
                            },
                            {
                                "name": "payload",
                                "type": "uint256[]",
                                "value": [
                                    "3,525,843,581,653,294,347,257,672,837,030,778,870,590,730,955,968,597,279,681,531,571,957,618,605,800",
                                    "509,990,000,000,000,000",
                                    "0"
                                ]
                            }
                        ],
                        "constructorArguments": "",
                        "name": "sendMessageToL2",
                        "returnParams": [
                            {
                                "name": "",
                                "type": "bytes32",
                                "value": "0x527cc3d8e26ccbdabfbe9f8a8b67ae99fa4c9cf08ab60ed5d41e3264ac78133c"
                            },
                            {
                                "name": "",
                                "type": "uint256",
                                "value": "1,273,872"
                            }
                        ],
                        "signature": "sendMessageToL2(uint256,uint256,uint256[])"
                    },
                    "errorInfo": "",
                    "fromAddress": "0xc662c410c0ecf747543f5ba90660f6abebd9c8c4",
                    "gasUsed": 33954,
                    "id": 3,
                    "methodDecoded": true,
                    "operation": "DELEGATECALL",
                    "output": "0x527cc3d8e26ccbdabfbe9f8a8b67ae99fa4c9cf08ab60ed5d41e3264ac78133c0000000000000000000000000000000000000000000000000000000000137010",
                    "revert": false,
                    "revertMessage": "",
                    "selector": "0x3e3aa6c5",
                    "status": true,
                    "value": "0.000279922868439324"
                },
                "nodeType": 0
            },
            "4": {
                "event": {
                    "contract": "0xc662c410c0ecf747543f5ba90660f6abebd9c8c4",
                    "decodedLog": {
                        "name": "LogMessageToL2",
                        "params": [
                            {
                                "name": "fromAddress",
                                "type": "address",
                                "value": "0xae0ee0a63a2ce6baeeffe56e7714fb4efe48d419"
                            },
                            {
                                "name": "toAddress",
                                "type": "uint256",
                                "value": "3,256,441,166,037,631,918,262,930,812,410,838,598,500,200,462,657,642,943,867,372,734,773,841,898,370"
                            },
                            {
                                "name": "selector",
                                "type": "uint256",
                                "value": "1,285,101,517,810,983,806,491,589,552,491,143,496,277,809,242,732,141,897,358,598,292,095,611,420,389"
                            },
                            {
                                "name": "payload",
                                "type": "uint256[]",
                                "value": [
                                    "3,525,843,581,653,294,347,257,672,837,030,778,870,590,730,955,968,597,279,681,531,571,957,618,605,800",
                                    "509,990,000,000,000,000",
                                    "0"
                                ]
                            },
                            {
                                "name": "nonce",
                                "type": "uint256",
                                "value": "1,273,872"
                            },
                            {
                                "name": "fee",
                                "type": "uint256",
                                "value": "279,922,868,439,324"
                            }
                        ],
                        "signature": "LogMessageToL2(address,uint256,uint256,uint256[],uint256,uint256)"
                    },
                    "id": 4,
                    "logData": "0x000000000000000000000000000000000000000000000000000000000000006000000000000000000000000000000000000000000000000000000000001370100000000000000000000000000000000000000000000000000000fe969f23491c000000000000000000000000000000000000000000000000000000000000000307cb8e86fe8a8ddc3211f60e7df26ae0e254e4df5009dde8a1dc122568ce7ee80000000000000000000000000000000000000000000000000713d933f50060000000000000000000000000000000000000000000000000000000000000000000",
                    "logDecoded": true,
                    "operation": "EVENT",
                    "revert": false,
                    "status": true,
                    "topics": [
                        "0xdb80dd488acf86d17c747445b0eabb5d57c541d3bd7b6b87af987858e5066b2b",
                        "0x000000000000000000000000ae0ee0a63a2ce6baeeffe56e7714fb4efe48d419",
                        "0x073314940630fd6dcda0d772d4c972c4e0a9946bef9dabf4ef84eda8ef542b82",
                        "0x02d757788a8d8d6f21d1cd40bce38a8222d70654214e96ff95d8086e684fbee5"
                    ]
                },
                "nodeType": 1
            },
            "5": {
                "event": {
                    "contract": "0xae0ee0a63a2ce6baeeffe56e7714fb4efe48d419",
                    "decodedLog": {
                        "name": "LogDeposit",
                        "params": [
                            {
                                "name": "sender",
                                "type": "address",
                                "value": "0x5e4e86bd38fd5a211a5e697a04f1e91d1e03dcff"
                            },
                            {
                                "name": "l2Recipient",
                                "type": "uint256",
                                "value": "3,525,843,581,653,294,347,257,672,837,030,778,870,590,730,955,968,597,279,681,531,571,957,618,605,800"
                            },
                            {
                                "name": "amount",
                                "type": "uint256",
                                "value": "509,990,000,000,000,000"
                            },
                            {
                                "name": "nonce",
                                "type": "uint256",
                                "value": "1,273,872"
                            },
                            {
                                "name": "fee",
                                "type": "uint256",
                                "value": "279,922,868,439,324"
                            }
                        ],
                        "signature": "LogDeposit(address,uint256,uint256,uint256,uint256)"
                    },
                    "id": 5,
                    "logData": "0x0000000000000000000000000000000000000000000000000713d933f500600000000000000000000000000000000000000000000000000000000000001370100000000000000000000000000000000000000000000000000000fe969f23491c",
                    "logDecoded": true,
                    "operation": "EVENT",
                    "revert": false,
                    "status": true,
                    "topics": [
                        "0x5b5dbc6c64043a15d3fe6943a6e443a826b78755edc257b2ec890c022225dbcf",
                        "0x0000000000000000000000005e4e86bd38fd5a211a5e697a04f1e91d1e03dcff",
                        "0x07cb8e86fe8a8ddc3211f60e7df26ae0e254e4df5009dde8a1dc122568ce7ee8"
                    ]
                },
                "nodeType": 1
            }
        },
        "gasFlame": [
            {
                "children": [
                    {
                        "children": [
                            {
                                "children": [],
                                "depth": 0,
                                "name": "Initial Gas",
                                "value": 21776
                            },
                            {
                                "children": [
                                    {
                                        "children": [
                                            {
                                                "children": [
                                                    {
                                                        "children": [],
                                                        "depth": 3,
                                                        "name": "sendMessageToL2",
                                                        "value": 33954
                                                    }
                                                ],
                                                "depth": 2,
                                                "name": "sendMessageToL2",
                                                "value": 39012
                                            }
                                        ],
                                        "depth": 1,
                                        "name": "deposit",
                                        "value": 89037
                                    }
                                ],
                                "depth": 0,
                                "name": "Executed Gas",
                                "value": 94079
                            }
                        ],
                        "depth": -1,
                        "name": "Actual Gas Used",
                        "value": 115855
                    },
                    {
                        "children": [],
                        "depth": -1,
                        "name": "Refunded Gas",
                        "value": 0
                    }
                ],
                "depth": -2,
                "name": "Total Gas",
                "value": 115855
            }
        ],
        "isConfirmed": true,
        "mainTrace": [
            {
                "children": [
                    {
                        "children": [
                            {
                                "children": [
                                    {
                                        "children": [
                                            {
                                                "children": [
                                                    {
                                                        "children": [],
                                                        "depth": 4,
                                                        "id": 4,
                                                        "order": 4
                                                    }
                                                ],
                                                "depth": 3,
                                                "id": 3,
                                                "order": 3
                                            }
                                        ],
                                        "depth": 2,
                                        "id": 2,
                                        "order": 2
                                    },
                                    {
                                        "children": [],
                                        "depth": 2,
                                        "id": 5,
                                        "order": 5
                                    }
                                ],
                                "depth": 1,
                                "id": 1,
                                "order": 1
                            }
                        ],
                        "depth": 0,
                        "id": 0,
                        "order": 0
                    }
                ],
                "depth": -1,
                "id": -1,
                "order": -1
            }
        ],
        "mainTraceNodeCount": 6,
        "parentIdMap": {
            "0": -1,
            "1": 0,
            "2": 1,
            "3": 2,
            "4": 3,
            "5": 1
        },
        "tidyTrace": [
            {
                "children": [
                    {
                        "children": [
                            {
                                "children": [
                                    {
                                        "children": [
                                            {
                                                "children": [
                                                    {
                                                        "children": [],
                                                        "depth": 4,
                                                        "id": 4,
                                                        "order": 4
                                                    }
                                                ],
                                                "depth": 3,
                                                "id": 3,
                                                "order": 3
                                            }
                                        ],
                                        "depth": 2,
                                        "id": 2,
                                        "order": 2
                                    },
                                    {
                                        "children": [],
                                        "depth": 2,
                                        "id": 5,
                                        "order": 5
                                    }
                                ],
                                "depth": 1,
                                "id": 1,
                                "order": 1
                            }
                        ],
                        "depth": 0,
                        "id": 0,
                        "order": 0
                    }
                ],
                "depth": -1,
                "id": -1,
                "order": -1
            }
        ],
        "tidyTraceNodeCount": 6
    },
    "state_change": {
        "stateChanges": [
            {
                "address": "0xae0ee0a63a2ce6baeeffe56e7714fb4efe48d419",
                "erc": "",
                "slots": [
                    {
                        "current": "0x0000000000000000000000005e4e86bd38fd5a211a5e697a04f1e91d1e03dcff",
                        "key": "0x6e3d41b0b117dcb8bda542bc68ce086981f1341fb5e7699375cc6f91ada42aec",
                        "prev": "0x0000000000000000000000000000000000000000000000000000000000000000"
                    }
                ],
                "storageVariables": []
            },
            {
                "address": "0xc662c410c0ecf747543f5ba90660f6abebd9c8c4",
                "erc": "",
                "slots": [
                    {
                        "current": "0x0000000000000000000000000000000000000000000000000000000000137011",
                        "key": "0x40af3c5d10641ea6a095e7a9b843218461f4c8d604207c721ffceec9721b1ac5",
                        "prev": "0x0000000000000000000000000000000000000000000000000000000000137010"
                    },
                    {
                        "current": "0x0000000000000000000000000000000000000000000000000000fe969f23491d",
                        "key": "0x709a57f73ffb9b53832f047dcfb180b98a5857f1c78c8d3a2355ee324fb2b12a",
                        "prev": "0x0000000000000000000000000000000000000000000000000000000000000000"
                    }
                ],
                "storageVariables": []
            }
        ]
    }
}