{
    "balance_change": {
        "balanceChanges": [
            {
                "account": "0x69a123ebf69221045affadea32b56bd32badc507",
                "assets": [
                    {
                        "address": "0xbd1e7f594600dcaf7f483af55deacec0159a064e",
                        "amount": "1,275",
                        "iconUrl": "",
                        "isERC1155": false,
                        "isERC721": false,
                        "sign": false,
                        "value": ""
                    }
                ]
            },
            {
                "account": "0xafcd662d94a7ab075e63db0773aa9c45ac1c499a",
                "assets": [
                    {
                        "address": "0xbd1e7f594600dcaf7f483af55deacec0159a064e",
                        "amount": "1,275",
                        "iconUrl": "",
                        "isERC1155": false,
                        "isERC721": false,
                        "sign": true,
                        "value": ""
                    }
                ]
            }
        ]
    },
    "profile": {
        "basic_info": {
            "baseFee": "",
            "blockNumber": 7730052,
            "callData": "0xa9059cbb000000000000000000000000afcd662d94a7ab075e63db0773aa9c45ac1c499a0000000000000000000000000000000000000000000000000000001daf979b00",
            "debugEnable": true,
            "errorInfo": "",
            "eventCount": 1,
            "feeRecipient": "0xea674fdde714fd979de3edf0f56aa9716b898ec8",
            "formatValue": "0",
            "gasLimit": 36484,
            "gasPrice": "3",
            "gasUsed": 21484,
            "intTxnCount": 0,
            "internalRevert": false,
            "internalRevertMessage": "",
            "isContractCreation": false,
            "isFlashloan": false,
            "maxFee": "",
            "nonce": 3,
            "overwritedBlockNumber": -1,
            "priorityFee": "",
            "receiver": "0xbd1e7f594600dcaf7f483af55deacec0159a064e",
            "revertMessage": "",
            "sender": "0x69a123ebf69221045affadea32b56bd32badc507",
            "simulationEnable": true,
            "sourceTxnHash": "0xc15a678dd01a4e42ef980cb64c8c1a070ab883378a62dcc94147b2274065596b",
            "status": true,
            "timestamp": "2019-05-10T02:10:30Z",
            "transactionFee": "0.000064452",
            "txnHash": "0xc15a678dd01a4e42ef980cb64c8c1a070ab883378a62dcc94147b2274065596b",
            "txnIndex": 155,
            "type": 0,
            "value": "0"
        },
        "fund_flow": [
            {
                "amount": "1,275",
                "from": "0x69a123ebf69221045affadea32b56bd32badc507",
                "id": 1,
                "isERC1155": false,
                "isERC721": false,
                "isReverted": false,
                "order": 1,
                "to": "0xafcd662d94a7ab075e63db0773aa9c45ac1c499a",
                "token": "0xbd1e7f594600dcaf7f483af55deacec0159a064e"
            }
        ],
        "token_infos": [
            {
                "address": "0xbd1e7f594600dcaf7f483af55deacec0159a064e",
                "decimals": 8
            },
            {
                "address": "0xc02aaa39b223fe8d0a0e5c4f27ead9083c756cc2",
                "decimals": 18
            },
            {
                "address": "0xeeeeeeeeeeeeeeeeeeeeeeeeeeeeeeeeeeeeeeee",
                "decimals": 18
            }
        ]
    },
    "address_label": {
        "labels": [
            {
                "address": "0xeeeeeeeeeeeeeeeeeeeeeeeeeeeeeeeeeeeeeeee",
                "label": "Ether"
            },
            {
                "address": "0xbd1e7f594600dcaf7f483af55deacec0159a064e",
                "label": "Qobit.com Token"
            },
            {
                "address": "0x0000000000000000000000000000000000000001",
                "label": "Precompiled"
            },
            {
                "address": "0x0000000000000000000000000000000000000002",
                "label": "Precompiled"
            },
            {
                "address": "0x0000000000000000000000000000000000000003",
                "label": "Precompiled"
            },
            {
                "address": "0x0000000000000000000000000000000000000004",
                "label": "Precompiled"
            }
        ]
    },
    "trace": {
        "accountLabels": null,
        "dataMap": {
            "-1": {
                "invocation": {
                    "address": "0x69a123ebf69221045affadea32b56bd32badc507",
                    "callData": "",
                    "decodedMethod": null,
                    "errorInfo": "",
                    "fromAddress": "",
                    "gasUsed": 0,
                    "id": -1,
                    "methodDecoded": false,
                    "operation": "",
                    "output": "",
                    "revert": false,
                    "revertMessage": "",
                    "selector": "",
                    "status": false,
                    "value": ""
                },
                "nodeType": 0
            },
            "0": {
                "invocation": {
                    "address": "0xbd1e7f594600dcaf7f483af55deacec0159a064e",
                    "callData": "0x000000000000000000000000afcd662d94a7ab075e63db0773aa9c45ac1c499a0000000000000000000000000000000000000000000000000000001daf979b00",
                    "decodedMethod": {
                        "callParams": [
                            {
                                "name": "to",
                                "type": "address",
                                "value": "0xafcd662d94a7ab075e63db0773aa9c45ac1c499a"
                            },
                            {
                                "decimalAvailable": true,
                                "name": "value",
                                "type": "uint256",
                                "value": "127,500,000,000"
                            }
                        ],
                        "constructorArguments": "",
                        "name": "transfer",
                        "returnParams": [
                            {
                                "name": "",
                                "type": "bool",
                                "value": true
                            }
                        ],
                        "signature": "transfer(address,uint256)"
                    },
                    "errorInfo": "",
                    "fromAddress": "0x69a123ebf69221045affadea32b56bd32badc507",
                    "gasUsed": 21484,
                    "id": 0,
                    "methodDecoded": true,
                    "operation": "CALL",
                    "output": "0x0000000000000000000000000000000000000000000000000000000000000001",
                    "revert": false,
                    "revertMessage": "",
                    "selector": "0xa9059cbb",
                    "status": true,
                    "value": "0"
                },
                "nodeType": 0
            },
            "1": {
                "event": {
                    "contract": "0xbd1e7f594600dcaf7f483af55deacec0159a064e",
                    "decodedLog": {
                        "name": "Transfer",
                        "params": [
                            {
                                "name": "from",
                                "type": "address",
                                "value": "0x69a123ebf69221045affadea32b56bd32badc507"
                            },
                            {
                                "name": "to",
                                "type": "address",
                                "value": "0xafcd662d94a7ab075e63db0773aa9c45ac1c499a"
                            },
                            {
                                "decimalAvailable": true,
                                "name": "value",
                                "type": "uint256",
                                "value": "127,500,000,000"
                            }
                        ],
                        "signature": "Transfer(address,address,uint256)"
                    },
                    "id": 1,
                    "logData": "0x0000000000000000000000000000000000000000000000000000001daf979b00",
                    "logDecoded": true,
                    "operation": "EVENT",
                    "revert": false,
                    "status": true,
                    "topics": [
                        "0xddf252ad1be2c89b69c2b068fc378daa952ba7f163c4a11628f55a4df523b3ef",
                        "0x00000000000000000000000069a123ebf69221045affadea32b56bd32badc507",
                        "0x000000000000000000000000afcd662d94a7ab075e63db0773aa9c45ac1c499a"
                    ]
                },
                "nodeType": 1
            }
        },
        "gasFlame": [
            {
                "children": [
                    {
                        "children": [
                            {
                                "children": [],
                                "depth": 0,
                                "name": "Initial Gas",
                                "value": 23064
                            },
                            {
                                "children": [],
                                "depth": 0,
                                "name": "Executed Gas",
                                "value": 13420
                            }
                        ],
                        "depth": -1,
                        "name": "Actual Gas Used",
                        "value": 21484
                    },
                    {
                        "children": [],
                        "depth": -1,
                        "name": "Refunded Gas",
                        "value": 15000
                    }
                ],
                "depth": -2,
                "name": "Total Gas",
                "value": 36484
            }
        ],
        "isConfirmed": true,
        "mainTrace": [
            {
                "children": [
                    {
                        "children": [
                            {
                                "children": [],
                                "depth": 1,
                                "id": 1,
                                "order": 1
                            }
                        ],
                        "depth": 0,
                        "id": 0,
                        "order": 0
                    }
                ],
                "depth": -1,
                "id": -1,
                "order": -1
            }
        ],
        "mainTraceNodeCount": 2,
        "parentIdMap": {
            "0": -1,
            "1": 0
        },
        "tidyTrace": [
            {
                "children": [
                    {
                        "children": [
                            {
                                "children": [],
                                "depth": 1,
                                "id": 1,
                                "order": 1
                            }
                        ],
                        "depth": 0,
                        "id": 0,
                        "order": 0
                    }
                ],
                "depth": -1,
                "id": -1,
                "order": -1
            }
        ],
        "tidyTraceNodeCount": 2
    },
    "state_change": {
        "stateChanges": [
            {
                "address": "0xbd1e7f594600dcaf7f483af55deacec0159a064e",
                "erc": "ERC-20",
                "slots": [
                    {
                        "current": "0x0000000000000000000000000000000000000000000000000000000000000000",
                        "key": "0xa90d3b6e57143688786a3b438200d486629523841193654c6f9eb5944d1f4be2",
                        "prev": "0x0000000000000000000000000000000000000000000000000000001daf979b00"
                    },
                    {
                        "current": "0x0000000000000000000000000000000000000000000000000000004bab827200",
                        "key": "0xb9528e1515b91449c1fb5053881c948b75997c331d312c00b83bd9aee6a88e12",
                        "prev": "0x0000000000000000000000000000000000000000000000000000002dfbead700"
                    }
                ],
                "storageVariables": [
                    {
                        "name": "_balances",
                        "type": "mapping(address => uint256)",
                        "value": {
                            "pairs": [
                                {
                                    "key": "0x69a123ebf69221045affadea32b56bd32badc507",
                                    "value": {
                                        "current": "0",
                                        "prev": "127500000000",
                                        "typeTag": 1
                                    }
                                },
                                {
                                    "key": "0xafcd662d94a7ab075e63db0773aa9c45ac1c499a",
                                    "value": {
                                        "current": "325000000000",
                                        "prev": "197500000000",
                                        "typeTag": 1
                                    }
                                }
                            ],
                            "typeTag": 4
                        }
                    }
                ]
            }
        ]
    }
}