{
    "balance_change": {
        "balanceChanges": [
            {
                "account": "0x2de1a9c3f69a9a5199447f153f23b8f2b7684158",
                "assets": [
                    {
                        "address": "0xf629cbd94d3791c9250152bd8dfbdf380e2a3b9c",
                        "amount": "24",
                        "iconUrl": "https://assets.blocksec.com/icon/4e91198d1517bc4aa7bfb253e3110967513d2a17a9e3cad8d288a4806c405653.png",
                        "isERC1155": false,
                        "isERC721": false,
                        "sign": false,
                        "value": ""
                    },
                    {
                        "address": "0xfaafdc07907ff5120a76b34b731b278c38d6043c",
                        "amount": "1",
                        "iconUrl": "",
                        "isERC1155": true,
                        "isERC721": false,
                        "sign": true,
                        "tokenID": "21937173156288430632721206634314990090071847980793920680089227073388529320321",
                        "value": ""
                    }
                ]
            },
            {
                "account": "0xe72752f55e69052ef40d989a843b9fa59e88b26b",
                "assets": [
                    {
                        "address": "0xf629cbd94d3791c9250152bd8dfbdf380e2a3b9c",
                        "amount": "0.6",
                        "iconUrl": "https://assets.blocksec.com/icon/4e91198d1517bc4aa7bfb253e3110967513d2a17a9e3cad8d288a4806c405653.png",
                        "isERC1155": false,
                        "isERC721": false,
                        "sign": true,
                        "value": ""
                    }
                ]
            },
            {
                "account": "0x3eac6515a8fd518083d188816406d097218f9f8b",
                "assets": [
                    {
                        "address": "0xf629cbd94d3791c9250152bd8dfbdf380e2a3b9c",
                        "amount": "23.4",
                        "iconUrl": "https://assets.blocksec.com/icon/4e91198d1517bc4aa7bfb253e3110967513d2a17a9e3cad8d288a4806c405653.png",
                        "isERC1155": false,
                        "isERC721": false,
                        "sign": true,
                        "value": ""
                    },
                    {
                        "address": "0xfaafdc07907ff5120a76b34b731b278c38d6043c",
                        "amount": "1",
                        "iconUrl": "",
                        "isERC1155": true,
                        "isERC721": false,
                        "sign": false,
                        "tokenID": "21937173156288430632721206634314990090071847980793920680089227073388529320321",
                        "value": ""
                    }
                ]
            }
        ]
    },
    "profile": {
        "basic_info": {
            "baseFee": "",
            "blockNumber": 9787478,
            "callData": "0xced9e8e100000000000000000000000000000000000000000000000000000000000109700000000000000000000000000000000000000000000000000000000000000001",
            "debugEnable": true,
            "errorInfo": "",
            "eventCount": 5,
            "feeRecipient": "0x829bd824b016326a401d083b33d092293333a830",
            "formatValue": "0",
            "gasLimit": 300000,
            "gasPrice": "8",
            "gasUsed": 86443,
            "intTxnCount": 6,
            "internalRevert": false,
            "internalRevertMessage": "",
            "isContractCreation": false,
            "isFlashloan": false,
            "maxFee": "",
            "nonce": 9,
            "overwritedBlockNumber": -1,
            "priorityFee": "",
            "receiver": "0xe72752f55e69052ef40d989a843b9fa59e88b26b",
            "revertMessage": "",
            "sender": "0x2de1a9c3f69a9a5199447f153f23b8f2b7684158",
            "simulationEnable": true,
            "sourceTxnHash": "0xc128384ef4404796c1a17ce84f1ec9d4c03f0978799673e3e8d153e8a4f3e334",
            "status": true,
            "timestamp": "2020-04-01T17:54:27Z",
            "transactionFee": "0.000691544",
            "txnHash": "0xc128384ef4404796c1a17ce84f1ec9d4c03f0978799673e3e8d153e8a4f3e334",
            "txnIndex": 5,
            "type": 0,
            "value": "0"
        },
        "fund_flow": [
            {
                "amount": "0.6",
                "from": "0x2de1a9c3f69a9a5199447f153f23b8f2b7684158",
                "id": 1,
                "isERC1155": false,
                "isERC721": false,
                "isReverted": false,
                "order": 1,
                "to": "0xe72752f55e69052ef40d989a843b9fa59e88b26b",
                "token": "0xf629cbd94d3791c9250152bd8dfbdf380e2a3b9c"
            },
            {
                "amount": "23.4",
                "from": "0x2de1a9c3f69a9a5199447f153f23b8f2b7684158",
                "id": 2,
                "isERC1155": false,
                "isERC721": false,
                "isReverted": false,
                "order": 2,
                "to": "0x3eac6515a8fd518083d188816406d097218f9f8b",
                "token": "0xf629cbd94d3791c9250152bd8dfbdf380e2a3b9c"
            },
            {
                "amount": "1",
                "from": "0x3eac6515a8fd518083d188816406d097218f9f8b",
                "id": 3,
                "isERC1155": true,
                "isERC721": false,
                "isReverted": false,
                "order": 3,
                "to": "0x2de1a9c3f69a9a5199447f153f23b8f2b7684158",
                "token": "0xfaafdc07907ff5120a76b34b731b278c38d6043c",
                "tokenID": "21937173156288430632721206634314990090071847980793920680089227073388529320321"
            }
        ],
        "token_infos": [
            {
                "address": "0xc02aaa39b223fe8d0a0e5c4f27ead9083c756cc2",
                "decimals": 18
            },
            {
                "address": "0xf629cbd94d3791c9250152bd8dfbdf380e2a3b9c",
                "decimals": 18
            },
            {
                "address": "0xeeeeeeeeeeeeeeeeeeeeeeeeeeeeeeeeeeeeeeee",
                "decimals": 18
            }
        ]
    },
    "address_label": {
        "labels": [
            {
                "address": "0x0000000000000000000000000000000000000003",
                "label": "Precompiled"
            },
            {
                "address": "0x0000000000000000000000000000000000000004",
                "label": "Precompiled"
            },
            {
                "address": "0xeeeeeeeeeeeeeeeeeeeeeeeeeeeeeeeeeeeeeeee",
                "label": "Ether"
            },
            {
                "address": "0xfaafdc07907ff5120a76b34b731b278c38d6043c",
                "label": "Enjin: X Token"
            },
            {
                "address": "0xf629cbd94d3791c9250152bd8dfbdf380e2a3b9c",
                "label": "Enjin: ENJ Token"
            },
            {
                "address": "0x0000000000000000000000000000000000000001",
                "label": "Precompiled"
            },
            {
                "address": "0x0000000000000000000000000000000000000002",
                "label": "Precompiled"
            }
        ]
    },
    "trace": {
        "accountLabels": null,
        "dataMap": {
            "-1": {
                "invocation": {
                    "address": "0x2de1a9c3f69a9a5199447f153f23b8f2b7684158",
                    "callData": "",
                    "decodedMethod": null,
                    "errorInfo": "",
                    "fromAddress": "",
                    "gasUsed": 0,
                    "id": -1,
                    "methodDecoded": false,
                    "operation": "",
                    "output": "",
                    "revert": false,
                    "revertMessage": "",
                    "selector": "",
                    "status": false,
                    "value": ""
                },
                "nodeType": 0
            },
            "0": {
                "invocation": {
                    "address": "0xe72752f55e69052ef40d989a843b9fa59e88b26b",
                    "callData": "0x00000000000000000000000000000000000000000000000000000000000109700000000000000000000000000000000000000000000000000000000000000001",
                    "decodedMethod": {
                        "callParams": [
                            {
                                "name": "_categoryId",
                                "type": "uint64",
                                "value": "67,952"
                            },
                            {
                                "name": "_amount",
                                "type": "uint64",
                                "value": "1"
                            }
                        ],
                        "constructorArguments": "",
                        "name": "buy",
                        "returnParams": [],
                        "signature": "buy(uint64,uint64)"
                    },
                    "errorInfo": "",
                    "fromAddress": "0x2de1a9c3f69a9a5199447f153f23b8f2b7684158",
                    "gasUsed": 86443,
                    "id": 0,
                    "methodDecoded": true,
                    "operation": "CALL",
                    "output": "",
                    "revert": false,
                    "revertMessage": "",
                    "selector": "0xced9e8e1",
                    "status": true,
                    "value": "0"
                },
                "nodeType": 0
            },
            "1": {
                "event": {
                    "contract": "0xe72752f55e69052ef40d989a843b9fa59e88b26b",
                    "decodedLog": null,
                    "id": 1,
                    "logData": "0x0000000000000000000000000000000000000000000000000000000000000001",
                    "logDecoded": false,
                    "operation": "EVENT",
                    "revert": false,
                    "status": true,
                    "topics": [
                        "0xd48bddefbc4cd8323ec3e504dc5b9a58756a1a61459c42ff7b62b33979d8ecd4",
                        "0x0000000000000000000000000000000000000000000000000000000000010970",
                        "0x0000000000000000000000002de1a9c3f69a9a5199447f153f23b8f2b7684158"
                    ]
                },
                "nodeType": 1
            },
            "10": {
                "invocation": {
                    "address": "0x4e643a25a64952895f553f20252861258727174e",
                    "callData": "0x30800000000006b80000000000000000000000000000000000000000000001810000000000000000000000003eac6515a8fd518083d188816406d097218f9f8b0000000000000000000000002de1a9c3f69a9a5199447f153f23b8f2b7684158",
                    "decodedMethod": null,
                    "errorInfo": "",
                    "fromAddress": "0xfaafdc07907ff5120a76b34b731b278c38d6043c",
                    "gasUsed": 37308,
                    "id": 10,
                    "methodDecoded": false,
                    "operation": "CALL",
                    "output": "",
                    "revert": false,
                    "revertMessage": "",
                    "selector": "0x95760fb9",
                    "status": true,
                    "value": "0"
                },
                "nodeType": 0
            },
            "11": {
                "event": {
                    "contract": "0xfaafdc07907ff5120a76b34b731b278c38d6043c",
                    "decodedLog": {
                        "name": "TransferSingle",
                        "params": [
                            {
                                "name": "operator",
                                "type": "address",
                                "value": "0xe72752f55e69052ef40d989a843b9fa59e88b26b"
                            },
                            {
                                "name": "from",
                                "type": "address",
                                "value": "0x3eac6515a8fd518083d188816406d097218f9f8b"
                            },
                            {
                                "name": "to",
                                "type": "address",
                                "value": "0x2de1a9c3f69a9a5199447f153f23b8f2b7684158"
                            },
                            {
                                "name": "id",
                                "type": "uint256",
                                "value": "21,937,173,156,288,430,632,721,206,634,314,990,090,071,847,980,793,920,680,089,227,073,388,529,320,321"
                            },
                            {
                                "name": "value",
                                "type": "uint256",
                                "value": "1"
                            }
                        ],
                        "signature": "TransferSingle(address,address,address,uint256,uint256)"
                    },
                    "id": 11,
                    "logData": "0x30800000000006b80000000000000000000000000000000000000000000001810000000000000000000000000000000000000000000000000000000000000001",
                    "logDecoded": true,
                    "operation": "EVENT",
                    "revert": false,
                    "status": true,
                    "topics": [
                        "0xc3d58168c5ae7397731d063d5bbf3d657854427343f4c083240f7aacaa2d0f62",
                        "0x000000000000000000000000e72752f55e69052ef40d989a843b9fa59e88b26b",
                        "0x0000000000000000000000003eac6515a8fd518083d188816406d097218f9f8b",
                        "0x0000000000000000000000002de1a9c3f69a9a5199447f153f23b8f2b7684158"
                    ]
                },
                "nodeType": 1
            },
            "2": {
                "event": {
                    "contract": "0xe72752f55e69052ef40d989a843b9fa59e88b26b",
                    "decodedLog": null,
                    "id": 2,
                    "logData": "0x",
                    "logDecoded": false,
                    "operation": "EVENT",
                    "revert": false,
                    "status": true,
                    "topics": [
                        "0x0639500b8b6d778005d3013729e335ffe5c1f660ad6aa4c14cbb490f6c560587",
                        "0x0000000000000000000000000000000000000000000000000000000000010970"
                    ]
                },
                "nodeType": 1
            },
            "3": {
                "invocation": {
                    "address": "0xf629cbd94d3791c9250152bd8dfbdf380e2a3b9c",
                    "callData": "0x0000000000000000000000002de1a9c3f69a9a5199447f153f23b8f2b7684158000000000000000000000000e72752f55e69052ef40d989a843b9fa59e88b26b0000000000000000000000000000000000000000000000000853a0d2313c0000",
                    "decodedMethod": {
                        "callParams": [
                            {
                                "name": "_from",
                                "type": "address",
                                "value": "0x2de1a9c3f69a9a5199447f153f23b8f2b7684158"
                            },
                            {
                                "name": "_to",
                                "type": "address",
                                "value": "0xe72752f55e69052ef40d989a843b9fa59e88b26b"
                            },
                            {
                                "decimalAvailable": true,
                                "name": "_value",
                                "type": "uint256",
                                "value": "600,000,000,000,000,000"
                            }
                        ],
                        "constructorArguments": "",
                        "name": "transferFrom",
                        "returnParams": [
                            {
                                "name": "success",
                                "type": "bool",
                                "value": true
                            }
                        ],
                        "signature": "transferFrom(address,address,uint256)"
                    },
                    "errorInfo": "",
                    "fromAddress": "0xe72752f55e69052ef40d989a843b9fa59e88b26b",
                    "gasUsed": 21037,
                    "id": 3,
                    "methodDecoded": true,
                    "operation": "CALL",
                    "output": "0x0000000000000000000000000000000000000000000000000000000000000001",
                    "revert": false,
                    "revertMessage": "",
                    "selector": "0x23b872dd",
                    "status": true,
                    "value": "0"
                },
                "nodeType": 0
            },
            "4": {
                "event": {
                    "contract": "0xf629cbd94d3791c9250152bd8dfbdf380e2a3b9c",
                    "decodedLog": {
                        "name": "Transfer",
                        "params": [
                            {
                                "name": "_from",
                                "type": "address",
                                "value": "0x2de1a9c3f69a9a5199447f153f23b8f2b7684158"
                            },
                            {
                                "name": "_to",
                                "type": "address",
                                "value": "0xe72752f55e69052ef40d989a843b9fa59e88b26b"
                            },
                            {
                                "decimalAvailable": true,
                                "name": "_value",
                                "type": "uint256",
                                "value": "600,000,000,000,000,000"
                            }
                        ],
                        "signature": "Transfer(address,address,uint256)"
                    },
                    "id": 4,
                    "logData": "0x0000000000000000000000000000000000000000000000000853a0d2313c0000",
                    "logDecoded": true,
                    "operation": "EVENT",
                    "revert": false,
                    "status": true,
                    "topics": [
                        "0xddf252ad1be2c89b69c2b068fc378daa952ba7f163c4a11628f55a4df523b3ef",
                        "0x0000000000000000000000002de1a9c3f69a9a5199447f153f23b8f2b7684158",
                        "0x000000000000000000000000e72752f55e69052ef40d989a843b9fa59e88b26b"
                    ]
                },
                "nodeType": 1
            },
            "5": {
                "invocation": {
                    "address": "0xf629cbd94d3791c9250152bd8dfbdf380e2a3b9c",
                    "callData": "0x0000000000000000000000002de1a9c3f69a9a5199447f153f23b8f2b76841580000000000000000000000003eac6515a8fd518083d188816406d097218f9f8b00000000000000000000000000000000000000000000000144bd800580240000",
                    "decodedMethod": {
                        "callParams": [
                            {
                                "name": "_from",
                                "type": "address",
                                "value": "0x2de1a9c3f69a9a5199447f153f23b8f2b7684158"
                            },
                            {
                                "name": "_to",
                                "type": "address",
                                "value": "0x3eac6515a8fd518083d188816406d097218f9f8b"
                            },
                            {
                                "decimalAvailable": true,
                                "name": "_value",
                                "type": "uint256",
                                "value": "23,400,000,000,000,000,000"
                            }
                        ],
                        "constructorArguments": "",
                        "name": "transferFrom",
                        "returnParams": [
                            {
                                "name": "success",
                                "type": "bool",
                                "value": true
                            }
                        ],
                        "signature": "transferFrom(address,address,uint256)"
                    },
                    "errorInfo": "",
                    "fromAddress": "0xe72752f55e69052ef40d989a843b9fa59e88b26b",
                    "gasUsed": 27637,
                    "id": 5,
                    "methodDecoded": true,
                    "operation": "CALL",
                    "output": "0x0000000000000000000000000000000000000000000000000000000000000001",
                    "revert": false,
                    "revertMessage": "",
                    "selector": "0x23b872dd",
                    "status": true,
                    "value": "0"
                },
                "nodeType": 0
            },
            "6": {
                "event": {
                    "contract": "0xf629cbd94d3791c9250152bd8dfbdf380e2a3b9c",
                    "decodedLog": {
                        "name": "Transfer",
                        "params": [
                            {
                                "name": "_from",
                                "type": "address",
                                "value": "0x2de1a9c3f69a9a5199447f153f23b8f2b7684158"
                            },
                            {
                                "name": "_to",
                                "type": "address",
                                "value": "0x3eac6515a8fd518083d188816406d097218f9f8b"
                            },
                            {
                                "decimalAvailable": true,
                                "name": "_value",
                                "type": "uint256",
                                "value": "23,400,000,000,000,000,000"
                            }
                        ],
                        "signature": "Transfer(address,address,uint256)"
                    },
                    "id": 6,
                    "logData": "0x00000000000000000000000000000000000000000000000144bd800580240000",
                    "logDecoded": true,
                    "operation": "EVENT",
                    "revert": false,
                    "status": true,
                    "topics": [
                        "0xddf252ad1be2c89b69c2b068fc378daa952ba7f163c4a11628f55a4df523b3ef",
                        "0x0000000000000000000000002de1a9c3f69a9a5199447f153f23b8f2b7684158",
                        "0x0000000000000000000000003eac6515a8fd518083d188816406d097218f9f8b"
                    ]
                },
                "nodeType": 1
            },
            "7": {
                "invocation": {
                    "address": "0xfaafdc07907ff5120a76b34b731b278c38d6043c",
                    "callData": "0x0000000000000000000000003eac6515a8fd518083d188816406d097218f9f8b0000000000000000000000002de1a9c3f69a9a5199447f153f23b8f2b768415830800000000006b8000000000000000000000000000000000000000000000181000000000000000000000000000000000000000000000000000000000000000100000000000000000000000000000000000000000000000000000000000000a000000000000000000000000000000000000000000000000000000000000000000000000000000000000000000000000000000000000000000000000000000000",
                    "decodedMethod": {
                        "callParams": [
                            {
                                "name": "from",
                                "type": "address",
                                "value": "0x3eac6515a8fd518083d188816406d097218f9f8b"
                            },
                            {
                                "name": "to",
                                "type": "address",
                                "value": "0x2de1a9c3f69a9a5199447f153f23b8f2b7684158"
                            },
                            {
                                "name": "id",
                                "type": "uint256",
                                "value": "21,937,173,156,288,430,632,721,206,634,314,990,090,071,847,980,793,920,680,089,227,073,388,529,320,321"
                            },
                            {
                                "name": "amount",
                                "type": "uint256",
                                "value": "1"
                            },
                            {
                                "name": "data",
                                "type": "bytes",
                                "value": "0x"
                            }
                        ],
                        "constructorArguments": "",
                        "name": "safeTransferFrom",
                        "returnParams": [],
                        "signature": "safeTransferFrom(address,address,uint256,uint256,bytes)"
                    },
                    "errorInfo": "",
                    "fromAddress": "0xe72752f55e69052ef40d989a843b9fa59e88b26b",
                    "gasUsed": 52516,
                    "id": 7,
                    "methodDecoded": true,
                    "operation": "CALL",
                    "output": "",
                    "revert": false,
                    "revertMessage": "",
                    "selector": "0xf242432a",
                    "status": true,
                    "value": "0"
                },
                "nodeType": 0
            },
            "8": {
                "invocation": {
                    "address": "0xced2516c9223cea270dcb4b6a6eec2183351283b",
                    "callData": "0x0000000000000000000000003eac6515a8fd518083d188816406d097218f9f8b0000000000000000000000002de1a9c3f69a9a5199447f153f23b8f2b768415830800000000006b8000000000000000000000000000000000000000000000181000000000000000000000000000000000000000000000000000000000000000100000000000000000000000000000000000000000000000000000000000000a000000000000000000000000000000000000000000000000000000000000000000000000000000000000000000000000000000000000000000000000000000000",
                    "decodedMethod": {
                        "callParams": [
                            {
                                "name": "from",
                                "type": "address",
                                "value": "0x3eac6515a8fd518083d188816406d097218f9f8b"
                            },
                            {
                                "name": "to",
                                "type": "address",
                                "value": "0x2de1a9c3f69a9a5199447f153f23b8f2b7684158"
                            },
                            {
                                "name": "id",
                                "type": "uint256",
                                "value": "21,937,173,156,288,430,632,721,206,634,314,990,090,071,847,980,793,920,680,089,227,073,388,529,320,321"
                            },
                            {
                                "name": "amount",
                                "type": "uint256",
                                "value": "1"
                            },
                            {
                                "name": "data",
                                "type": "bytes",
                                "value": "0x"
                            }
                        ],
                        "constructorArguments": "",
                        "name": "safeTransferFrom",
                        "returnParams": [],
                        "signature": "safeTransferFrom(address,address,uint256,uint256,bytes)"
                    },
                    "errorInfo": "",
                    "fromAddress": "0xfaafdc07907ff5120a76b34b731b278c38d6043c",
                    "gasUsed": 50578,
                    "id": 8,
                    "methodDecoded": true,
                    "operation": "DELEGATECALL",
                    "output": "",
                    "revert": false,
                    "revertMessage": "",
                    "selector": "0xf242432a",
                    "status": true,
                    "value": "0"
                },
                "nodeType": 0
            },
            "9": {
                "invocation": {
                    "address": "0x4e643a25a64952895f553f20252861258727174e",
                    "callData": "0x00000000000000000000000000000000000000000000000000000000000000000000000000000000000000003eac6515a8fd518083d188816406d097218f9f8b000000000000000000000000e72752f55e69052ef40d989a843b9fa59e88b26b",
                    "decodedMethod": null,
                    "errorInfo": "",
                    "fromAddress": "0xfaafdc07907ff5120a76b34b731b278c38d6043c",
                    "gasUsed": 4130,
                    "id": 9,
                    "methodDecoded": false,
                    "operation": "STATICCALL",
                    "output": "0x0000000000000000000000000000000000000000000000000000000000000001",
                    "revert": false,
                    "revertMessage": "",
                    "selector": "0xf7250826",
                    "status": true,
                    "value": "0"
                },
                "nodeType": 0
            }
        },
        "gasFlame": [
            {
                "children": [
                    {
                        "children": [
                            {
                                "children": [],
                                "depth": 0,
                                "name": "Initial Gas",
                                "value": 21368
                            },
                            {
                                "children": [
                                    {
                                        "children": [],
                                        "depth": 1,
                                        "name": "transferFrom",
                                        "value": 21037
                                    },
                                    {
                                        "children": [],
                                        "depth": 1,
                                        "name": "transferFrom",
                                        "value": 27637
                                    },
                                    {
                                        "children": [
                                            {
                                                "children": [
                                                    {
                                                        "children": [],
                                                        "depth": 3,
                                                        "name": "0xf7250826",
                                                        "value": 4130
                                                    },
                                                    {
                                                        "children": [],
                                                        "depth": 3,
                                                        "name": "0x95760fb9",
                                                        "value": 37308
                                                    }
                                                ],
                                                "depth": 2,
                                                "name": "safeTransferFrom",
                                                "value": 50578
                                            }
                                        ],
                                        "depth": 1,
                                        "name": "safeTransferFrom",
                                        "value": 52516
                                    }
                                ],
                                "depth": 0,
                                "name": "Executed Gas",
                                "value": 151517
                            }
                        ],
                        "depth": -1,
                        "name": "Actual Gas Used",
                        "value": 86443
                    },
                    {
                        "children": [],
                        "depth": -1,
                        "name": "Refunded Gas",
                        "value": 86442
                    }
                ],
                "depth": -2,
                "name": "Total Gas",
                "value": 172885
            }
        ],
        "isConfirmed": true,
        "mainTrace": [
            {
                "children": [
                    {
                        "children": [
                            {
                                "children": [],
                                "depth": 1,
                                "id": 1,
                                "order": 1
                            },
                            {
                                "children": [],
                                "depth": 1,
                                "id": 2,
                                "order": 2
                            },
                            {
                                "children": [
                                    {
                                        "children": [],
                                        "depth": 2,
                                        "id": 4,
                                        "order": 4
                                    }
                                ],
                                "depth": 1,
                                "id": 3,
                                "order": 3
                            },
                            {
                                "children": [
                                    {
                                        "children": [],
                                        "depth": 2,
                                        "id": 6,
                                        "order": 6
                                    }
                                ],
                                "depth": 1,
                                "id": 5,
                                "order": 5
                            },
                            {
                                "children": [
                                    {
                                        "children": [
                                            {
                                                "children": [],
                                                "depth": 3,
                                                "id": 9,
                                                "order": 9
                                            },
                                            {
                                                "children": [],
                                                "depth": 3,
                                                "id": 10,
                                                "order": 10
                                            },
                                            {
                                                "children": [],
                                                "depth": 3,
                                                "id": 11,
                                                "order": 11
                                            }
                                        ],
                                        "depth": 2,
                                        "id": 8,
                                        "order": 8
                                    }
                                ],
                                "depth": 1,
                                "id": 7,
                                "order": 7
                            }
                        ],
                        "depth": 0,
                        "id": 0,
                        "order": 0
                    }
                ],
                "depth": -1,
                "id": -1,
                "order": -1
            }
        ],
        "mainTraceNodeCount": 12,
        "parentIdMap": {
            "0": -1,
            "1": 0,
            "10": 8,
            "11": 8,
            "2": 0,
            "3": 0,
            "4": 3,
            "5": 0,
            "6": 5,
            "7": 0,
            "8": 7,
            "9": 8
        },
        "tidyTrace": [
            {
                "children": [
                    {
                        "children": [
                            {
                                "children": [],
                                "depth": 1,
                                "id": 1,
                                "order": 1
                            },
                            {
                                "children": [],
                                "depth": 1,
                                "id": 2,
                                "order": 2
                            },
                            {
                                "children": [
                                    {
                                        "children": [],
                                        "depth": 2,
                                        "id": 4,
                                        "order": 4
                                    }
                                ],
                                "depth": 1,
                                "id": 3,
                                "order": 3
                            },
                            {
                                "children": [
                                    {
                                        "children": [],
                                        "depth": 2,
                                        "id": 6,
                                        "order": 6
                                    }
                                ],
                                "depth": 1,
                                "id": 5,
                                "order": 5
                            },
                            {
                                "children": [
                                    {
                                        "children": [
                                            {
                                                "children": [],
                                                "depth": 3,
                                                "id": 10,
                                                "order": 10
                                            },
                                            {
                                                "children": [],
                                                "depth": 3,
                                                "id": 11,
                                                "order": 11
                                            }
                                        ],
                                        "depth": 2,
                                        "id": 8,
                                        "order": 8
                                    }
                                ],
                                "depth": 1,
                                "id": 7,
                                "order": 7
                            }
                        ],
                        "depth": 0,
                        "id": 0,
                        "order": 0
                    }
                ],
                "depth": -1,
                "id": -1,
                "order": -1
            }
        ],
        "tidyTraceNodeCount": 11
    },
    "state_change": {
        "stateChanges": [
            {
                "address": "0x4e643a25a64952895f553f20252861258727174e",
                "erc": "",
                "slots": [
                    {
                        "current": "0x0000000000000000000000000000000000000000000000000000000000000001",
                        "key": "0x709f2f479238a1beabfbba36363438f5b9b88b8592c546ec862e9956258a7547",
                        "prev": "0x0000000000000000000000000000000000000000000000000000000000000000"
                    },
                    {
                        "current": "0x0000000000000000000000002de1a9c3f69a9a5199447f153f23b8f2b7684158",
                        "key": "0x302e63a1a7b2df8bedd85d473a8993df722c49e1d4f7c12f8e42d674503fa068",
                        "prev": "0x0000000000000000000000003eac6515a8fd518083d188816406d097218f9f8b"
                    },
                    {
                        "current": "0x0000000000000000000000000000000000000000000000000000000000000000",
                        "key": "0xd19b1610e92833bc5fa52f7930a04d2d0a81a95b0fbced61960f619f07a3b3c6",
                        "prev": "0x0000000000000000000000000000000000000000000000000000000000000001"
                    }
                ],
                "storageVariables": []
            },
            {
                "address": "0xe72752f55e69052ef40d989a843b9fa59e88b26b",
                "erc": "",
                "slots": [
                    {
                        "current": "0x0000000000000000000000000000000000000000000000000000000000000000",
                        "key": "0xd08e2090deff192860a4b495a712b1934a74719f4f2c4cee540455743e7911d3",
                        "prev": "0x0000000000000000000000000000000000000000000000000000000000010970"
                    },
                    {
                        "current": "0x0000000000000000000000000000000000000000000000000000000000000000",
                        "key": "0xb10e2d527612073b26eecdfd717e6a320cf44b4afac2b0732d9fcbe2b7fe32b6",
                        "prev": "0x0000000000000000000000003eac6515a8fd518083d188816406d097218f9f8b"
                    },
                    {
                        "current": "0x0000000000000000000000000000000000000000000000000000000000000000",
                        "key": "0xb10e2d527612073b26eecdfd717e6a320cf44b4afac2b0732d9fcbe2b7fe32b7",
                        "prev": "0x30800000000006b8000000000000000000000000000000000000000000000181"
                    },
                    {
                        "current": "0x0000000000000000000000000000000000000000000000000000000000000000",
                        "key": "0xb10e2d527612073b26eecdfd717e6a320cf44b4afac2b0732d9fcbe2b7fe32b8",
                        "prev": "0x0000000000000000000000000000000100000000000000014d1120d7b1600000"
                    },
                    {
                        "current": "0x0000000000000000000000000000000000000000000000000000000000000000",
                        "key": "0xb10e2d527612073b26eecdfd717e6a320cf44b4afac2b0732d9fcbe2b7fe32b9",
                        "prev": "0x0000000000000000000000000000000000000000000000000000000000000001"
                    }
                ],
                "storageVariables": []
            },
            {
                "address": "0xf629cbd94d3791c9250152bd8dfbdf380e2a3b9c",
                "erc": "ERC-20",
                "slots": [
                    {
                        "current": "0x000000000000000000000000000000000000000000a56fa46c7ef8ce16a00000",
                        "key": "0xf2018a2dc5e8f6d8b319f187b703e11c5c97a93110d0e5d43a7d0288397ac597",
                        "prev": "0x000000000000000000000000000000000000000000a56fa5b99019a5c8000000"
                    },
                    {
                        "current": "0x000000000000000000000000000000000000000000000001eba763ce942d36a0",
                        "key": "0x182ae0a078cf9c75bc50ff1be4ed8ff3d2d9367aff6fca9e5de558223f6b76d1",
                        "prev": "0x00000000000000000000000000000000000000000000000338b884a6458d36a0"
                    },
                    {
                        "current": "0x000000000000000000000000000000000000000000001b3744c37d1ee9be8c7e",
                        "key": "0x56fe64ba97717d9d38e9540c5d0ef39c308d787a81d8c85739580efa1fcba6d6",
                        "prev": "0x000000000000000000000000000000000000000000001b373c6fdc4cb8828c7e"
                    },
                    {
                        "current": "0x00000000000000000000000000000000000000000000000144bd800580240000",
                        "key": "0x586ed0cbaa5155009b90b324f9481181f963e457544534ead3b97dc61941ba07",
                        "prev": "0x0000000000000000000000000000000000000000000000000000000000000000"
                    }
                ],
                "storageVariables": [
                    {
                        "name": "allowance",
                        "type": "mapping(address => mapping(address => uint256))",
                        "value": {
                            "pairs": [
                                {
                                    "key": "0x2de1a9c3f69a9a5199447f153f23b8f2b7684158",
                                    "value": {
                                        "pairs": [
                                            {
                                                "key": "0xe72752f55e69052ef40d989a843b9fa59e88b26b",
                                                "value": {
                                                    "current": "199999976000000000000000000",
                                                    "prev": "200000000000000000000000000",
                                                    "typeTag": 1
                                                }
                                            }
                                        ],
                                        "typeTag": 4
                                    }
                                }
                            ],
                            "typeTag": 4
                        }
                    },
                    {
                        "name": "balanceOf",
                        "type": "mapping(address => uint256)",
                        "value": {
                            "pairs": [
                                {
                                    "key": "0x2de1a9c3f69a9a5199447f153f23b8f2b7684158",
                                    "value": {
                                        "current": "35427394732633700000",
                                        "prev": "59427394732633700000",
                                        "typeTag": 1
                                    }
                                },
                                {
                                    "key": "0x3eac6515a8fd518083d188816406d097218f9f8b",
                                    "value": {
                                        "current": "23400000000000000000",
                                        "prev": "0",
                                        "typeTag": 1
                                    }
                                },
                                {
                                    "key": "0xe72752f55e69052ef40d989a843b9fa59e88b26b",
                                    "value": {
                                        "current": "128523420903121207856254",
                                        "prev": "128522820903121207856254",
                                        "typeTag": 1
                                    }
                                }
                            ],
                            "typeTag": 4
                        }
                    }
                ]
            }
        ]
    }
}