{
    "balance_change": {
        "balanceChanges": [
            {
                "account": "0x841056f279582d1dfd586c3c77e7821821b5b510",
                "assets": [
                    {
                        "address": "0xf8e386eda857484f5a12e4b5daa9984e06e73705",
                        "amount": "1,000",
                        "iconUrl": "https://assets.blocksec.com/icon/343bd201e90ba027e8721e42546675ad3bae3628b771d148a97e4fc8155f7fde.png",
                        "isERC1155": false,
                        "isERC721": false,
                        "sign": false,
                        "value": "39.91519256"
                    }
                ]
            },
            {
                "account": "0x440d8a630b9c56aee1ccc931367bb9c2b2426cd9",
                "assets": [
                    {
                        "address": "0xf8e386eda857484f5a12e4b5daa9984e06e73705",
                        "amount": "1,000",
                        "iconUrl": "https://assets.blocksec.com/icon/343bd201e90ba027e8721e42546675ad3bae3628b771d148a97e4fc8155f7fde.png",
                        "isERC1155": false,
                        "isERC721": false,
                        "sign": true,
                        "value": "39.91519256"
                    }
                ]
            }
        ]
    },
    "profile": {
        "basic_info": {
            "baseFee": "67.374026128",
            "blockNumber": 13676686,
            "callData": "0xa9059cbb000000000000000000000000440d8a630b9c56aee1ccc931367bb9c2b2426cd900000000000000000000000000000000000000000000003635c9adc5dea00000",
            "debugEnable": true,
            "errorInfo": "",
            "eventCount": 1,
            "feeRecipient": "0xb7e390864a90b7b923c9f9310c6f98aafe43f707",
            "formatValue": "0",
            "gasLimit": 81429,
            "gasPrice": "68.874026128",
            "gasUsed": 54286,
            "intTxnCount": 0,
            "internalRevert": false,
            "internalRevertMessage": "",
            "isContractCreation": false,
            "isFlashloan": false,
            "maxFee": "72.937075044",
            "nonce": 87,
            "overwritedBlockNumber": -1,
            "priorityFee": "1.5",
            "receiver": "0xf8e386eda857484f5a12e4b5daa9984e06e73705",
            "revertMessage": "",
            "sender": "0x841056f279582d1dfd586c3c77e7821821b5b510",
            "simulationEnable": true,
            "sourceTxnHash": "0xc20fedca7ead86f04f58e3d2b3351198455902558a361290fa0efe9c2521c368",
            "status": true,
            "timestamp": "2021-11-24T10:25:58Z",
            "transactionFee": "0.003738895382384608",
            "txnHash": "0xc20fedca7ead86f04f58e3d2b3351198455902558a361290fa0efe9c2521c368",
            "txnIndex": 209,
            "type": 2,
            "value": "0"
        },
        "fund_flow": [
            {
                "amount": "1,000",
                "from": "0x841056f279582d1dfd586c3c77e7821821b5b510",
                "id": 1,
                "isERC1155": false,
                "isERC721": false,
                "isReverted": false,
                "order": 1,
                "to": "0x440d8a630b9c56aee1ccc931367bb9c2b2426cd9",
                "token": "0xf8e386eda857484f5a12e4b5daa9984e06e73705"
            }
        ],
        "token_infos": [
            {
                "address": "0xc02aaa39b223fe8d0a0e5c4f27ead9083c756cc2",
                "decimals": 18
            },
            {
                "address": "0xf8e386eda857484f5a12e4b5daa9984e06e73705",
                "decimals": 18
            },
            {
                "address": "0xeeeeeeeeeeeeeeeeeeeeeeeeeeeeeeeeeeeeeeee",
                "decimals": 18
            }
        ]
    },
    "address_label": {
        "labels": [
            {
                "address": "0xeeeeeeeeeeeeeeeeeeeeeeeeeeeeeeeeeeeeeeee",
                "label": "Ether"
            },
            {
                "address": "0xf8e386eda857484f5a12e4b5daa9984e06e73705",
                "label": "Indorse Token"
            },
            {
                "address": "0x0000000000000000000000000000000000000001",
                "label": "Precompiled"
            },
            {
                "address": "0x0000000000000000000000000000000000000002",
                "label": "Precompiled"
            },
            {
                "address": "0x0000000000000000000000000000000000000003",
                "label": "Precompiled"
            },
            {
                "address": "0x0000000000000000000000000000000000000004",
                "label": "Precompiled"
            }
        ]
    },
    "trace": {
        "accountLabels": null,
        "dataMap": {
            "-1": {
                "invocation": {
                    "address": "0x841056f279582d1dfd586c3c77e7821821b5b510",
                    "callData": "",
                    "decodedMethod": null,
                    "errorInfo": "",
                    "fromAddress": "",
                    "gasUsed": 0,
                    "id": -1,
                    "methodDecoded": false,
                    "operation": "",
                    "output": "",
                    "revert": false,
                    "revertMessage": "",
                    "selector": "",
                    "status": false,
                    "value": ""
                },
                "nodeType": 0
            },
            "0": {
                "invocation": {
                    "address": "0xf8e386eda857484f5a12e4b5daa9984e06e73705",
                    "callData": "0x000000000000000000000000440d8a630b9c56aee1ccc931367bb9c2b2426cd900000000000000000000000000000000000000000000003635c9adc5dea00000",
                    "decodedMethod": {
                        "callParams": [
                            {
                                "name": "_to",
                                "type": "address",
                                "value": "0x440d8a630b9c56aee1ccc931367bb9c2b2426cd9"
                            },
                            {
                                "decimalAvailable": true,
                                "name": "_value",
                                "type": "uint256",
                                "value": "1,000,000,000,000,000,000,000"
                            }
                        ],
                        "constructorArguments": "",
                        "name": "transfer",
                        "returnParams": [
                            {
                                "name": "success",
                                "type": "bool",
                                "value": true
                            }
                        ],
                        "signature": "transfer(address,uint256)"
                    },
                    "errorInfo": "",
                    "fromAddress": "0x841056f279582d1dfd586c3c77e7821821b5b510",
                    "gasUsed": 54286,
                    "id": 0,
                    "methodDecoded": true,
                    "operation": "CALL",
                    "output": "0x0000000000000000000000000000000000000000000000000000000000000001",
                    "revert": false,
                    "revertMessage": "",
                    "selector": "0xa9059cbb",
                    "status": true,
                    "value": "0"
                },
                "nodeType": 0
            },
            "1": {
                "event": {
                    "contract": "0xf8e386eda857484f5a12e4b5daa9984e06e73705",
                    "decodedLog": {
                        "name": "Transfer",
                        "params": [
                            {
                                "name": "from",
                                "type": "address",
                                "value": "0x841056f279582d1dfd586c3c77e7821821b5b510"
                            },
                            {
                                "name": "to",
                                "type": "address",
                                "value": "0x440d8a630b9c56aee1ccc931367bb9c2b2426cd9"
                            },
                            {
                                "decimalAvailable": true,
                                "name": "value",
                                "type": "uint256",
                                "value": "1,000,000,000,000,000,000,000"
                            }
                        ],
                        "signature": "Transfer(address,address,uint256)"
                    },
                    "id": 1,
                    "logData": "0x00000000000000000000000000000000000000000000003635c9adc5dea00000",
                    "logDecoded": true,
                    "operation": "EVENT",
                    "revert": false,
                    "status": true,
                    "topics": [
                        "0xddf252ad1be2c89b69c2b068fc378daa952ba7f163c4a11628f55a4df523b3ef",
                        "0x000000000000000000000000841056f279582d1dfd586c3c77e7821821b5b510",
                        "0x000000000000000000000000440d8a630b9c56aee1ccc931367bb9c2b2426cd9"
                    ]
                },
                "nodeType": 1
            }
        },
        "gasFlame": [
            {
                "children": [
                    {
                        "children": [
                            {
                                "children": [],
                                "depth": 0,
                                "name": "Initial Gas",
                                "value": 21644
                            },
                            {
                                "children": [],
                                "depth": 0,
                                "name": "Executed Gas",
                                "value": 32642
                            }
                        ],
                        "depth": -1,
                        "name": "Actual Gas Used",
                        "value": 54286
                    },
                    {
                        "children": [],
                        "depth": -1,
                        "name": "Refunded Gas",
                        "value": 0
                    }
                ],
                "depth": -2,
                "name": "Total Gas",
                "value": 54286
            }
        ],
        "isConfirmed": true,
        "mainTrace": [
            {
                "children": [
                    {
                        "children": [
                            {
                                "children": [],
                                "depth": 1,
                                "id": 1,
                                "order": 1
                            }
                        ],
                        "depth": 0,
                        "id": 0,
                        "order": 0
                    }
                ],
                "depth": -1,
                "id": -1,
                "order": -1
            }
        ],
        "mainTraceNodeCount": 2,
        "parentIdMap": {
            "0": -1,
            "1": 0
        },
        "tidyTrace": [
            {
                "children": [
                    {
                        "children": [
                            {
                                "children": [],
                                "depth": 1,
                                "id": 1,
                                "order": 1
                            }
                        ],
                        "depth": 0,
                        "id": 0,
                        "order": 0
                    }
                ],
                "depth": -1,
                "id": -1,
                "order": -1
            }
        ],
        "tidyTraceNodeCount": 2
    },
    "state_change": {
        "stateChanges": [
            {
                "address": "0xf8e386eda857484f5a12e4b5daa9984e06e73705",
                "erc": "ERC-20",
                "slots": [
                    {
                        "current": "0x000000000000000000000000000000000000000000000564f81a0905d921ac45",
                        "key": "0x18a5b05249172cf35ed95ed79d86bd4d7ca3dff005d1d8ab47850d8964c46f54",
                        "prev": "0x00000000000000000000000000000000000000000000059b2de3b6cbb7c1ac45"
                    },
                    {
                        "current": "0x00000000000000000000000000000000000000000000003635c9adc5dea00000",
                        "key": "0x334418d68e10f230a90b0d8ec413f49261c5d93e4bce130cfd0244257734bb8a",
                        "prev": "0x0000000000000000000000000000000000000000000000000000000000000000"
                    }
                ],
                "storageVariables": []
            }
        ]
    }
}