{
    "balance_change": {
        "balanceChanges": [
            {
                "account": "0x39df003afb82433ca3713397327a10b5743c384f",
                "assets": [
                    {
                        "address": "0x1287a363d003150338fb74e23e2ec0d525ba8e31",
                        "amount": "4.819475688843023555",
                        "iconUrl": "",
                        "isERC1155": false,
                        "isERC721": false,
                        "sign": false,
                        "value": ""
                    }
                ]
            },
            {
                "account": "0xecaa222c860b385f9267cf1fc736d0216ee6f45a",
                "assets": [
                    {
                        "address": "0x1287a363d003150338fb74e23e2ec0d525ba8e31",
                        "amount": "4.819475688843023555",
                        "iconUrl": "",
                        "isERC1155": false,
                        "isERC721": false,
                        "sign": true,
                        "value": ""
                    }
                ]
            }
        ]
    },
    "profile": {
        "basic_info": {
            "baseFee": "",
            "blockNumber": 8551482,
            "callData": "0xa9059cbb000000000000000000000000ecaa222c860b385f9267cf1fc736d0216ee6f45a00000000000000000000000000000000000000000000000042e2379ab51e94c3",
            "debugEnable": true,
            "errorInfo": "",
            "eventCount": 1,
            "feeRecipient": "0x52bc44d5378309ee2abf1539bf71de1b7d7be3b5",
            "formatValue": "0",
            "gasLimit": 60000,
            "gasPrice": "11",
            "gasUsed": 37341,
            "intTxnCount": 0,
            "internalRevert": false,
            "internalRevertMessage": "",
            "isContractCreation": false,
            "isFlashloan": false,
            "maxFee": "",
            "nonce": 4789,
            "overwritedBlockNumber": -1,
            "priorityFee": "",
            "receiver": "0x1287a363d003150338fb74e23e2ec0d525ba8e31",
            "revertMessage": "",
            "sender": "0x39df003afb82433ca3713397327a10b5743c384f",
            "simulationEnable": true,
            "sourceTxnHash": "0xc247bfb448cf00562372c19fbaace121d7094d26f8d391486c60594d23484ae7",
            "status": true,
            "timestamp": "2019-09-15T02:42:21Z",
            "transactionFee": "0.000410751",
            "txnHash": "0xc247bfb448cf00562372c19fbaace121d7094d26f8d391486c60594d23484ae7",
            "txnIndex": 115,
            "type": 0,
            "value": "0"
        },
        "fund_flow": [
            {
                "amount": "4.819475688843023555",
                "from": "0x39df003afb82433ca3713397327a10b5743c384f",
                "id": 1,
                "isERC1155": false,
                "isERC721": false,
                "isReverted": false,
                "order": 1,
                "to": "0xecaa222c860b385f9267cf1fc736d0216ee6f45a",
                "token": "0x1287a363d003150338fb74e23e2ec0d525ba8e31"
            }
        ],
        "token_infos": [
            {
                "address": "0xc02aaa39b223fe8d0a0e5c4f27ead9083c756cc2",
                "decimals": 18
            },
            {
                "address": "0xeeeeeeeeeeeeeeeeeeeeeeeeeeeeeeeeeeeeeeee",
                "decimals": 18
            },
            {
                "address": "0x1287a363d003150338fb74e23e2ec0d525ba8e31",
                "decimals": 18
            }
        ]
    },
    "address_label": {
        "labels": [
            {
                "address": "0xeeeeeeeeeeeeeeeeeeeeeeeeeeeeeeeeeeeeeeee",
                "label": "Ether"
            },
            {
                "address": "0x1287a363d003150338fb74e23e2ec0d525ba8e31",
                "label": "WAPC"
            },
            {
                "address": "0x0000000000000000000000000000000000000001",
                "label": "Precompiled"
            },
            {
                "address": "0x0000000000000000000000000000000000000002",
                "label": "Precompiled"
            },
            {
                "address": "0x0000000000000000000000000000000000000003",
                "label": "Precompiled"
            },
            {
                "address": "0x0000000000000000000000000000000000000004",
                "label": "Precompiled"
            }
        ]
    },
    "trace": {
        "accountLabels": null,
        "dataMap": {
            "-1": {
                "invocation": {
                    "address": "0x39df003afb82433ca3713397327a10b5743c384f",
                    "callData": "",
                    "decodedMethod": null,
                    "errorInfo": "",
                    "fromAddress": "",
                    "gasUsed": 0,
                    "id": -1,
                    "methodDecoded": false,
                    "operation": "",
                    "output": "",
                    "revert": false,
                    "revertMessage": "",
                    "selector": "",
                    "status": false,
                    "value": ""
                },
                "nodeType": 0
            },
            "0": {
                "invocation": {
                    "address": "0x1287a363d003150338fb74e23e2ec0d525ba8e31",
                    "callData": "0x000000000000000000000000ecaa222c860b385f9267cf1fc736d0216ee6f45a00000000000000000000000000000000000000000000000042e2379ab51e94c3",
                    "decodedMethod": {
                        "callParams": [
                            {
                                "name": "_to",
                                "type": "address",
                                "value": "0xecaa222c860b385f9267cf1fc736d0216ee6f45a"
                            },
                            {
                                "decimalAvailable": true,
                                "name": "_value",
                                "type": "uint256",
                                "value": "4,819,475,688,843,023,555"
                            }
                        ],
                        "constructorArguments": "",
                        "name": "transfer",
                        "returnParams": [
                            {
                                "name": "success",
                                "type": "bool",
                                "value": true
                            }
                        ],
                        "signature": "transfer(address,uint256)"
                    },
                    "errorInfo": "",
                    "fromAddress": "0x39df003afb82433ca3713397327a10b5743c384f",
                    "gasUsed": 37341,
                    "id": 0,
                    "methodDecoded": true,
                    "operation": "CALL",
                    "output": "0x0000000000000000000000000000000000000000000000000000000000000001",
                    "revert": false,
                    "revertMessage": "",
                    "selector": "0xa9059cbb",
                    "status": true,
                    "value": "0"
                },
                "nodeType": 0
            },
            "1": {
                "event": {
                    "contract": "0x1287a363d003150338fb74e23e2ec0d525ba8e31",
                    "decodedLog": {
                        "name": "Transfer",
                        "params": [
                            {
                                "name": "from",
                                "type": "address",
                                "value": "0x39df003afb82433ca3713397327a10b5743c384f"
                            },
                            {
                                "name": "to",
                                "type": "address",
                                "value": "0xecaa222c860b385f9267cf1fc736d0216ee6f45a"
                            },
                            {
                                "decimalAvailable": true,
                                "name": "value",
                                "type": "uint256",
                                "value": "4,819,475,688,843,023,555"
                            }
                        ],
                        "signature": "Transfer(address,address,uint256)"
                    },
                    "id": 1,
                    "logData": "0x00000000000000000000000000000000000000000000000042e2379ab51e94c3",
                    "logDecoded": true,
                    "operation": "EVENT",
                    "revert": false,
                    "status": true,
                    "topics": [
                        "0xddf252ad1be2c89b69c2b068fc378daa952ba7f163c4a11628f55a4df523b3ef",
                        "0x00000000000000000000000039df003afb82433ca3713397327a10b5743c384f",
                        "0x000000000000000000000000ecaa222c860b385f9267cf1fc736d0216ee6f45a"
                    ]
                },
                "nodeType": 1
            }
        },
        "gasFlame": [
            {
                "children": [
                    {
                        "children": [
                            {
                                "children": [],
                                "depth": 0,
                                "name": "Initial Gas",
                                "value": 23320
                            },
                            {
                                "children": [],
                                "depth": 0,
                                "name": "Executed Gas",
                                "value": 14021
                            }
                        ],
                        "depth": -1,
                        "name": "Actual Gas Used",
                        "value": 37341
                    },
                    {
                        "children": [],
                        "depth": -1,
                        "name": "Refunded Gas",
                        "value": 0
                    }
                ],
                "depth": -2,
                "name": "Total Gas",
                "value": 37341
            }
        ],
        "isConfirmed": true,
        "mainTrace": [
            {
                "children": [
                    {
                        "children": [
                            {
                                "children": [],
                                "depth": 1,
                                "id": 1,
                                "order": 1
                            }
                        ],
                        "depth": 0,
                        "id": 0,
                        "order": 0
                    }
                ],
                "depth": -1,
                "id": -1,
                "order": -1
            }
        ],
        "mainTraceNodeCount": 2,
        "parentIdMap": {
            "0": -1,
            "1": 0
        },
        "tidyTrace": [
            {
                "children": [
                    {
                        "children": [
                            {
                                "children": [],
                                "depth": 1,
                                "id": 1,
                                "order": 1
                            }
                        ],
                        "depth": 0,
                        "id": 0,
                        "order": 0
                    }
                ],
                "depth": -1,
                "id": -1,
                "order": -1
            }
        ],
        "tidyTraceNodeCount": 2
    },
    "state_change": {
        "stateChanges": [
            {
                "address": "0x1287a363d003150338fb74e23e2ec0d525ba8e31",
                "erc": "ERC-20",
                "slots": [
                    {
                        "current": "0x00000000000000000000000000000000000000000000002716810ad2a6f39b62",
                        "key": "0x174ee5680c76266858cac759a9422523eb6eb15a94edaa6db04ac96024976208",
                        "prev": "0x000000000000000000000000000000000000000000000026d39ed337f1d5069f"
                    },
                    {
                        "current": "0x000000000000000000000000000000000000000000000d4b9d16d2ad328deba1",
                        "key": "0x265f9b7c929c80baddadc52ba94afa7c8179595e962066b4d169a2367374f02b",
                        "prev": "0x000000000000000000000000000000000000000000000d4bdff90a47e7ac8064"
                    }
                ],
                "storageVariables": [
                    {
                        "name": "balanceOf",
                        "type": "mapping(address => uint256)",
                        "value": {
                            "pairs": [
                                {
                                    "key": "0x39df003afb82433ca3713397327a10b5743c384f",
                                    "value": {
                                        "current": "62785589549188365806497",
                                        "prev": "62790409024877208830052",
                                        "typeTag": 1
                                    }
                                },
                                {
                                    "key": "0xecaa222c860b385f9267cf1fc736d0216ee6f45a",
                                    "value": {
                                        "current": "721044608115362995042",
                                        "prev": "716225132426519971487",
                                        "typeTag": 1
                                    }
                                }
                            ],
                            "typeTag": 4
                        }
                    }
                ]
            }
        ]
    }
}