{
    "balance_change": {
        "balanceChanges": [
            {
                "account": "0x474fbad9636fdee752a539660f2b25cc68dff467",
                "assets": [
                    {
                        "address": "0x5a98fcbea516cf06857215779fd812ca3bef1b32",
                        "amount": "10,000",
                        "iconUrl": "https://assets.blocksec.com/icon/3878691d1a2d54915a451767a8b7abce85c16fd7fc528d5b81becb8ae316240e.png",
                        "isERC1155": false,
                        "isERC721": false,
                        "sign": false,
                        "value": "20299.999999999998046"
                    }
                ]
            },
            {
                "account": "0xf8fa5dba8f6309e68166dae356e1f53d3c97ce8b",
                "assets": [
                    {
                        "address": "0x5a98fcbea516cf06857215779fd812ca3bef1b32",
                        "amount": "10,000",
                        "iconUrl": "https://assets.blocksec.com/icon/3878691d1a2d54915a451767a8b7abce85c16fd7fc528d5b81becb8ae316240e.png",
                        "isERC1155": false,
                        "isERC721": false,
                        "sign": true,
                        "value": "20299.999999999998046"
                    }
                ]
            }
        ]
    },
    "profile": {
        "basic_info": {
            "baseFee": "31.789558868",
            "blockNumber": 18522137,
            "callData": "0xa9059cbb000000000000000000000000f8fa5dba8f6309e68166dae356e1f53d3c97ce8b00000000000000000000000000000000000000000000021e19e0c9bab2400000",
            "debugEnable": true,
            "errorInfo": "",
            "eventCount": 1,
            "feeRecipient": "0x4675c7e5baafbffbca748158becba61ef3b0a263",
            "formatValue": "0",
            "gasLimit": 159265,
            "gasPrice": "32.389558868",
            "gasUsed": 132721,
            "intTxnCount": 6,
            "internalRevert": false,
            "internalRevertMessage": "",
            "isContractCreation": false,
            "isFlashloan": false,
            "maxFee": "47.785975311",
            "nonce": 17,
            "overwritedBlockNumber": -1,
            "priorityFee": "0.6",
            "receiver": "0x5a98fcbea516cf06857215779fd812ca3bef1b32",
            "revertMessage": "",
            "sender": "0x474fbad9636fdee752a539660f2b25cc68dff467",
            "simulationEnable": true,
            "sourceTxnHash": "0xc2cd43161a8809a2adc277eb0bd22432bf982441ff17c17a394bf7b584b497b9",
            "status": true,
            "timestamp": "2023-11-07T19:22:23Z",
            "transactionFee": "0.004298774642519828",
            "txnHash": "0xc2cd43161a8809a2adc277eb0bd22432bf982441ff17c17a394bf7b584b497b9",
            "txnIndex": 83,
            "type": 2,
            "value": "0"
        },
        "fund_flow": [
            {
                "amount": "10,000",
                "from": "0x474fbad9636fdee752a539660f2b25cc68dff467",
                "id": 1,
                "isERC1155": false,
                "isERC721": false,
                "isReverted": false,
                "order": 1,
                "to": "0xf8fa5dba8f6309e68166dae356e1f53d3c97ce8b",
                "token": "0x5a98fcbea516cf06857215779fd812ca3bef1b32"
            }
        ],
        "token_infos": [
            {
                "address": "0xeeeeeeeeeeeeeeeeeeeeeeeeeeeeeeeeeeeeeeee",
                "decimals": 18
            },
            {
                "address": "0x5a98fcbea516cf06857215779fd812ca3bef1b32",
                "decimals": 18
            },
            {
                "address": "0xc02aaa39b223fe8d0a0e5c4f27ead9083c756cc2",
                "decimals": 18
            }
        ]
    },
    "address_label": {
        "labels": [
            {
                "address": "0x5a98fcbea516cf06857215779fd812ca3bef1b32",
                "label": "Lido: LDO Token"
            },
            {
                "address": "0x0000000000000000000000000000000000000001",
                "label": "Precompiled"
            },
            {
                "address": "0x0000000000000000000000000000000000000004",
                "label": "Precompiled"
            },
            {
                "address": "0xeeeeeeeeeeeeeeeeeeeeeeeeeeeeeeeeeeeeeeee",
                "label": "Ether"
            },
            {
                "address": "0x2b33cf282f867a7ff693a66e11b0fcc5552e4425",
                "label": "Lido: DAO Impl 1.0.0"
            },
            {
                "address": "0xb8ffc3cd6e7cf5a098a1c92f48009765b24088dc",
                "label": "Lido: DAO"
            },
            {
                "address": "0xde3a93028f2283cc28756b3674bd657eafb992f4",
                "label": "Lido: Aragon Token Manager Impl"
            },
            {
                "address": "0xf73a1260d222f447210581ddf212d915c09a3249",
                "label": "Lido: Aragon Token Manager"
            },
            {
                "address": "0x0000000000000000000000000000000000000002",
                "label": "Precompiled"
            },
            {
                "address": "0x0000000000000000000000000000000000000003",
                "label": "Precompiled"
            }
        ]
    },
    "trace": {
        "accountLabels": null,
        "dataMap": {
            "-1": {
                "invocation": {
                    "address": "0x474fbad9636fdee752a539660f2b25cc68dff467",
                    "callData": "",
                    "decodedMethod": null,
                    "errorInfo": "",
                    "fromAddress": "",
                    "gasUsed": 0,
                    "id": -1,
                    "methodDecoded": false,
                    "operation": "",
                    "output": "",
                    "revert": false,
                    "revertMessage": "",
                    "selector": "",
                    "status": false,
                    "value": ""
                },
                "nodeType": 0
            },
            "0": {
                "invocation": {
                    "address": "0x5a98fcbea516cf06857215779fd812ca3bef1b32",
                    "callData": "0x000000000000000000000000f8fa5dba8f6309e68166dae356e1f53d3c97ce8b00000000000000000000000000000000000000000000021e19e0c9bab2400000",
                    "decodedMethod": {
                        "callParams": [
                            {
                                "name": "_to",
                                "type": "address",
                                "value": "0xf8fa5dba8f6309e68166dae356e1f53d3c97ce8b"
                            },
                            {
                                "decimalAvailable": true,
                                "name": "_amount",
                                "type": "uint256",
                                "value": "10,000,000,000,000,000,000,000"
                            }
                        ],
                        "constructorArguments": "",
                        "name": "transfer",
                        "returnParams": [
                            {
                                "name": "success",
                                "type": "bool",
                                "value": true
                            }
                        ],
                        "signature": "transfer(address,uint256)"
                    },
                    "errorInfo": "",
                    "fromAddress": "0x474fbad9636fdee752a539660f2b25cc68dff467",
                    "gasUsed": 132721,
                    "id": 0,
                    "methodDecoded": true,
                    "operation": "CALL",
                    "output": "0x0000000000000000000000000000000000000000000000000000000000000001",
                    "revert": false,
                    "revertMessage": "",
                    "selector": "0xa9059cbb",
                    "status": true,
                    "value": "0"
                },
                "nodeType": 0
            },
            "1": {
                "invocation": {
                    "address": "0xf73a1260d222f447210581ddf212d915c09a3249",
                    "callData": "0x000000000000000000000000474fbad9636fdee752a539660f2b25cc68dff467000000000000000000000000f8fa5dba8f6309e68166dae356e1f53d3c97ce8b00000000000000000000000000000000000000000000021e19e0c9bab2400000",
                    "decodedMethod": {
                        "callParams": [
                            {
                                "name": "_from",
                                "type": "address",
                                "value": "0x474fbad9636fdee752a539660f2b25cc68dff467"
                            },
                            {
                                "name": "_to",
                                "type": "address",
                                "value": "0xf8fa5dba8f6309e68166dae356e1f53d3c97ce8b"
                            },
                            {
                                "name": "_amount",
                                "type": "uint256",
                                "value": "10,000,000,000,000,000,000,000"
                            }
                        ],
                        "constructorArguments": "",
                        "name": "onTransfer",
                        "returnParams": [
                            {
                                "name": "",
                                "type": "bool",
                                "value": true
                            }
                        ],
                        "signature": "onTransfer(address,address,uint256)"
                    },
                    "errorInfo": "",
                    "fromAddress": "0x5a98fcbea516cf06857215779fd812ca3bef1b32",
                    "gasUsed": 37314,
                    "id": 1,
                    "methodDecoded": true,
                    "operation": "CALL",
                    "output": "0x0000000000000000000000000000000000000000000000000000000000000001",
                    "revert": false,
                    "revertMessage": "",
                    "selector": "0x4a393149",
                    "status": true,
                    "value": "0"
                },
                "nodeType": 0
            },
            "2": {
                "invocation": {
                    "address": "0xb8ffc3cd6e7cf5a098a1c92f48009765b24088dc",
                    "callData": "0xf1f3eb40f5bc1ad1344716ced8b8a0431d840b5783aea1fd01786bc26f35ac0fcd567bdf93dd0f6acc3bc7f2155f83244d56a65abbfbefb763e015420102c67b",
                    "decodedMethod": {
                        "callParams": [
                            {
                                "name": "_namespace",
                                "type": "bytes32",
                                "value": "0xf1f3eb40f5bc1ad1344716ced8b8a0431d840b5783aea1fd01786bc26f35ac0f"
                            },
                            {
                                "name": "_appId",
                                "type": "bytes32",
                                "value": "0xcd567bdf93dd0f6acc3bc7f2155f83244d56a65abbfbefb763e015420102c67b"
                            }
                        ],
                        "constructorArguments": "",
                        "name": "getApp",
                        "returnParams": [
                            {
                                "name": "",
                                "type": "address",
                                "value": "0xde3a93028f2283cc28756b3674bd657eafb992f4"
                            }
                        ],
                        "signature": "getApp(bytes32,bytes32)"
                    },
                    "errorInfo": "",
                    "fromAddress": "0xf73a1260d222f447210581ddf212d915c09a3249",
                    "gasUsed": 8263,
                    "id": 2,
                    "methodDecoded": true,
                    "operation": "CALL",
                    "output": "0x000000000000000000000000de3a93028f2283cc28756b3674bd657eafb992f4",
                    "revert": false,
                    "revertMessage": "",
                    "selector": "0xbe00bbd8",
                    "status": true,
                    "value": "0"
                },
                "nodeType": 0
            },
            "3": {
                "invocation": {
                    "address": "0x2b33cf282f867a7ff693a66e11b0fcc5552e4425",
                    "callData": "0xf1f3eb40f5bc1ad1344716ced8b8a0431d840b5783aea1fd01786bc26f35ac0fcd567bdf93dd0f6acc3bc7f2155f83244d56a65abbfbefb763e015420102c67b",
                    "decodedMethod": {
                        "callParams": [
                            {
                                "name": "_namespace",
                                "type": "bytes32",
                                "value": "0xf1f3eb40f5bc1ad1344716ced8b8a0431d840b5783aea1fd01786bc26f35ac0f"
                            },
                            {
                                "name": "_appId",
                                "type": "bytes32",
                                "value": "0xcd567bdf93dd0f6acc3bc7f2155f83244d56a65abbfbefb763e015420102c67b"
                            }
                        ],
                        "constructorArguments": "",
                        "name": "getApp",
                        "returnParams": [
                            {
                                "name": "",
                                "type": "address",
                                "value": "0xde3a93028f2283cc28756b3674bd657eafb992f4"
                            }
                        ],
                        "signature": "getApp(bytes32,bytes32)"
                    },
                    "errorInfo": "",
                    "fromAddress": "0xb8ffc3cd6e7cf5a098a1c92f48009765b24088dc",
                    "gasUsed": 2820,
                    "id": 3,
                    "methodDecoded": true,
                    "operation": "DELEGATECALL",
                    "output": "0x000000000000000000000000de3a93028f2283cc28756b3674bd657eafb992f4",
                    "revert": false,
                    "revertMessage": "",
                    "selector": "0xbe00bbd8",
                    "status": true,
                    "value": "0"
                },
                "nodeType": 0
            },
            "4": {
                "invocation": {
                    "address": "0xde3a93028f2283cc28756b3674bd657eafb992f4",
                    "callData": "0x000000000000000000000000474fbad9636fdee752a539660f2b25cc68dff467000000000000000000000000f8fa5dba8f6309e68166dae356e1f53d3c97ce8b00000000000000000000000000000000000000000000021e19e0c9bab2400000",
                    "decodedMethod": {
                        "callParams": [
                            {
                                "name": "_from",
                                "type": "address",
                                "value": "0x474fbad9636fdee752a539660f2b25cc68dff467"
                            },
                            {
                                "name": "_to",
                                "type": "address",
                                "value": "0xf8fa5dba8f6309e68166dae356e1f53d3c97ce8b"
                            },
                            {
                                "name": "_amount",
                                "type": "uint256",
                                "value": "10,000,000,000,000,000,000,000"
                            }
                        ],
                        "constructorArguments": "",
                        "name": "onTransfer",
                        "returnParams": [
                            {
                                "name": "",
                                "type": "bool",
                                "value": true
                            }
                        ],
                        "signature": "onTransfer(address,address,uint256)"
                    },
                    "errorInfo": "",
                    "fromAddress": "0xf73a1260d222f447210581ddf212d915c09a3249",
                    "gasUsed": 18422,
                    "id": 4,
                    "methodDecoded": true,
                    "operation": "DELEGATECALL",
                    "output": "0x0000000000000000000000000000000000000000000000000000000000000001",
                    "revert": false,
                    "revertMessage": "",
                    "selector": "0x4a393149",
                    "status": true,
                    "value": "0"
                },
                "nodeType": 0
            },
            "5": {
                "invocation": {
                    "address": "0x5a98fcbea516cf06857215779fd812ca3bef1b32",
                    "callData": "0x000000000000000000000000f8fa5dba8f6309e68166dae356e1f53d3c97ce8b",
                    "decodedMethod": {
                        "callParams": [
                            {
                                "name": "_owner",
                                "type": "address",
                                "value": "0xf8fa5dba8f6309e68166dae356e1f53d3c97ce8b"
                            }
                        ],
                        "constructorArguments": "",
                        "name": "balanceOf",
                        "returnParams": [
                            {
                                "decimalAvailable": true,
                                "name": "balance",
                                "type": "uint256",
                                "value": "10,000,000,000,000,000,000"
                            }
                        ],
                        "signature": "balanceOf(address)"
                    },
                    "errorInfo": "",
                    "fromAddress": "0xf73a1260d222f447210581ddf212d915c09a3249",
                    "gasUsed": 8016,
                    "id": 5,
                    "methodDecoded": true,
                    "operation": "CALL",
                    "output": "0x0000000000000000000000000000000000000000000000008ac7230489e80000",
                    "revert": false,
                    "revertMessage": "",
                    "selector": "0x70a08231",
                    "status": true,
                    "value": "0"
                },
                "nodeType": 0
            },
            "6": {
                "invocation": {
                    "address": "0x5a98fcbea516cf06857215779fd812ca3bef1b32",
                    "callData": "0x000000000000000000000000474fbad9636fdee752a539660f2b25cc68dff467",
                    "decodedMethod": {
                        "callParams": [
                            {
                                "name": "_owner",
                                "type": "address",
                                "value": "0x474fbad9636fdee752a539660f2b25cc68dff467"
                            }
                        ],
                        "constructorArguments": "",
                        "name": "balanceOf",
                        "returnParams": [
                            {
                                "decimalAvailable": true,
                                "name": "balance",
                                "type": "uint256",
                                "value": "32,649,743,324,686,727,656,464"
                            }
                        ],
                        "signature": "balanceOf(address)"
                    },
                    "errorInfo": "",
                    "fromAddress": "0xf73a1260d222f447210581ddf212d915c09a3249",
                    "gasUsed": 2016,
                    "id": 6,
                    "methodDecoded": true,
                    "operation": "CALL",
                    "output": "0x0000000000000000000000000000000000000000000006e9f235b80c71b23410",
                    "revert": false,
                    "revertMessage": "",
                    "selector": "0x70a08231",
                    "status": true,
                    "value": "0"
                },
                "nodeType": 0
            },
            "7": {
                "event": {
                    "contract": "0x5a98fcbea516cf06857215779fd812ca3bef1b32",
                    "decodedLog": {
                        "name": "Transfer",
                        "params": [
                            {
                                "name": "_from",
                                "type": "address",
                                "value": "0x474fbad9636fdee752a539660f2b25cc68dff467"
                            },
                            {
                                "name": "_to",
                                "type": "address",
                                "value": "0xf8fa5dba8f6309e68166dae356e1f53d3c97ce8b"
                            },
                            {
                                "decimalAvailable": true,
                                "name": "_amount",
                                "type": "uint256",
                                "value": "10,000,000,000,000,000,000,000"
                            }
                        ],
                        "signature": "Transfer(address,address,uint256)"
                    },
                    "id": 7,
                    "logData": "0x00000000000000000000000000000000000000000000021e19e0c9bab2400000",
                    "logDecoded": true,
                    "operation": "EVENT",
                    "revert": false,
                    "status": true,
                    "topics": [
                        "0xddf252ad1be2c89b69c2b068fc378daa952ba7f163c4a11628f55a4df523b3ef",
                        "0x000000000000000000000000474fbad9636fdee752a539660f2b25cc68dff467",
                        "0x000000000000000000000000f8fa5dba8f6309e68166dae356e1f53d3c97ce8b"
                    ]
                },
                "nodeType": 1
            }
        },
        "gasFlame": [
            {
                "children": [
                    {
                        "children": [
                            {
                                "children": [],
                                "depth": 0,
                                "name": "Initial Gas",
                                "value": 21656
                            },
                            {
                                "children": [
                                    {
                                        "children": [
                                            {
                                                "children": [
                                                    {
                                                        "children": [],
                                                        "depth": 3,
                                                        "name": "getApp",
                                                        "value": 2820
                                                    }
                                                ],
                                                "depth": 2,
                                                "name": "getApp",
                                                "value": 8263
                                            },
                                            {
                                                "children": [
                                                    {
                                                        "children": [],
                                                        "depth": 3,
                                                        "name": "balanceOf",
                                                        "value": 8016
                                                    },
                                                    {
                                                        "children": [],
                                                        "depth": 3,
                                                        "name": "balanceOf",
                                                        "value": 2016
                                                    }
                                                ],
                                                "depth": 2,
                                                "name": "onTransfer",
                                                "value": 18422
                                            }
                                        ],
                                        "depth": 1,
                                        "name": "onTransfer",
                                        "value": 37314
                                    }
                                ],
                                "depth": 0,
                                "name": "Executed Gas",
                                "value": 111065
                            }
                        ],
                        "depth": -1,
                        "name": "Actual Gas Used",
                        "value": 132721
                    },
                    {
                        "children": [],
                        "depth": -1,
                        "name": "Refunded Gas",
                        "value": 0
                    }
                ],
                "depth": -2,
                "name": "Total Gas",
                "value": 132721
            }
        ],
        "isConfirmed": true,
        "mainTrace": [
            {
                "children": [
                    {
                        "children": [
                            {
                                "children": [
                                    {
                                        "children": [
                                            {
                                                "children": [],
                                                "depth": 3,
                                                "id": 3,
                                                "order": 3
                                            }
                                        ],
                                        "depth": 2,
                                        "id": 2,
                                        "order": 2
                                    },
                                    {
                                        "children": [
                                            {
                                                "children": [],
                                                "depth": 3,
                                                "id": 5,
                                                "order": 5
                                            },
                                            {
                                                "children": [],
                                                "depth": 3,
                                                "id": 6,
                                                "order": 6
                                            }
                                        ],
                                        "depth": 2,
                                        "id": 4,
                                        "order": 4
                                    }
                                ],
                                "depth": 1,
                                "id": 1,
                                "order": 1
                            },
                            {
                                "children": [],
                                "depth": 1,
                                "id": 7,
                                "order": 7
                            }
                        ],
                        "depth": 0,
                        "id": 0,
                        "order": 0
                    }
                ],
                "depth": -1,
                "id": -1,
                "order": -1
            }
        ],
        "mainTraceNodeCount": 8,
        "parentIdMap": {
            "0": -1,
            "1": 0,
            "2": 1,
            "3": 2,
            "4": 1,
            "5": 4,
            "6": 4,
            "7": 0
        },
        "tidyTrace": [
            {
                "children": [
                    {
                        "children": [
                            {
                                "children": [
                                    {
                                        "children": [
                                            {
                                                "children": [],
                                                "depth": 3,
                                                "id": 3,
                                                "order": 3
                                            }
                                        ],
                                        "depth": 2,
                                        "id": 2,
                                        "order": 2
                                    },
                                    {
                                        "children": [
                                            {
                                                "children": [],
                                                "depth": 3,
                                                "id": 5,
                                                "order": 5
                                            },
                                            {
                                                "children": [],
                                                "depth": 3,
                                                "id": 6,
                                                "order": 6
                                            }
                                        ],
                                        "depth": 2,
                                        "id": 4,
                                        "order": 4
                                    }
                                ],
                                "depth": 1,
                                "id": 1,
                                "order": 1
                            },
                            {
                                "children": [],
                                "depth": 1,
                                "id": 7,
                                "order": 7
                            }
                        ],
                        "depth": 0,
                        "id": 0,
                        "order": 0
                    }
                ],
                "depth": -1,
                "id": -1,
                "order": -1
            }
        ],
        "tidyTraceNodeCount": 8
    },
    "state_change": {
        "stateChanges": [
            {
                "address": "0x5a98fcbea516cf06857215779fd812ca3bef1b32",
                "erc": "ERC-20",
                "slots": [
                    {
                        "current": "0x000000000000021ea4a7ecbf3c280000000000000000000000000000011aa019",
                        "key": "0xf17d27ca15762c6d85e8b4fd8a30910be4bf5d5ac7f7ae170541facb53845552",
                        "prev": "0x0000000000000000000000000000000000000000000000000000000000000000"
                    },
                    {
                        "current": "0x000000000000000000000000000000000000000000000000000000000000000f",
                        "key": "0x9c2cf8a13ec85618c2d3d3cf4b89fcb86217dcde14d9dcfa388549dfe3f9114e",
                        "prev": "0x000000000000000000000000000000000000000000000000000000000000000e"
                    },
                    {
                        "current": "0x00000000000004cbd854ee51bf723410000000000000000000000000011aa019",
                        "key": "0xf20ff304a3dc7fca65d47927b1ed7d5176599ac205a2c44355c6c347cfe1ff67",
                        "prev": "0x0000000000000000000000000000000000000000000000000000000000000000"
                    },
                    {
                        "current": "0x0000000000000000000000000000000000000000000000000000000000000003",
                        "key": "0x2c6e3a28b38a31c5371711bdb4ebc156cc866aadcaad3827dd72287fe2ceffc5",
                        "prev": "0x0000000000000000000000000000000000000000000000000000000000000002"
                    }
                ],
                "storageVariables": [
                    {
                        "name": "balances",
                        "type": "mapping(address => struct MiniMeToken.Checkpoint[])",
                        "value": {
                            "pairs": [
                                {
                                    "key": "0x474fbad9636fdee752a539660f2b25cc68dff467",
                                    "value": {
                                        "elemType": "struct MiniMeToken.Checkpoint",
                                        "elems": [
                                            {
                                                "index": 14,
                                                "value": {
                                                    "fields": [
                                                        {
                                                            "name": "fromBlock",
                                                            "type": "uint128",
                                                            "value": {
                                                                "current": "18522137",
                                                                "prev": "0",
                                                                "typeTag": 1
                                                            }
                                                        },
                                                        {
                                                            "name": "value",
                                                            "type": "uint128",
                                                            "value": {
                                                                "current": "22649743324686727656464",
                                                                "prev": "0",
                                                                "typeTag": 1
                                                            }
                                                        }
                                                    ],
                                                    "typeTag": 3
                                                }
                                            }
                                        ],
                                        "typeTag": 2
                                    }
                                },
                                {
                                    "key": "0xf8fa5dba8f6309e68166dae356e1f53d3c97ce8b",
                                    "value": {
                                        "elemType": "struct MiniMeToken.Checkpoint",
                                        "elems": [
                                            {
                                                "index": 2,
                                                "value": {
                                                    "fields": [
                                                        {
                                                            "name": "fromBlock",
                                                            "type": "uint128",
                                                            "value": {
                                                                "current": "18522137",
                                                                "prev": "0",
                                                                "typeTag": 1
                                                            }
                                                        },
                                                        {
                                                            "name": "value",
                                                            "type": "uint128",
                                                            "value": {
                                                                "current": "10010000000000000000000",
                                                                "prev": "0",
                                                                "typeTag": 1
                                                            }
                                                        }
                                                    ],
                                                    "typeTag": 3
                                                }
                                            }
                                        ],
                                        "typeTag": 2
                                    }
                                }
                            ],
                            "typeTag": 4
                        }
                    }
                ]
            }
        ]
    }
}