{
    "balance_change": {
        "balanceChanges": [
            {
                "account": "0xdef6e56ec2c80937da3bbc1e4ca303c5cbbee595",
                "assets": [
                    {
                        "address": "0x8d8813517a06a0c8ef6dc5ca24ba590feeb65ff0",
                        "amount": "1,267,200",
                        "iconUrl": "",
                        "isERC1155": false,
                        "isERC721": false,
                        "sign": false,
                        "value": "334.2120427"
                    },
                    {
                        "address": "0xeeeeeeeeeeeeeeeeeeeeeeeeeeeeeeeeeeeeeeee",
                        "amount": "0.16108377555062522",
                        "iconUrl": "https://assets.blocksec.com/image/1663669189317-3.png",
                        "isERC1155": false,
                        "isERC721": false,
                        "sign": true,
                        "value": "335.30876561344798828"
                    }
                ]
            },
            {
                "account": "0xc02aaa39b223fe8d0a0e5c4f27ead9083c756cc2",
                "assets": [
                    {
                        "address": "0xeeeeeeeeeeeeeeeeeeeeeeeeeeeeeeeeeeeeeeee",
                        "amount": "0.16108377555062522",
                        "iconUrl": "https://assets.blocksec.com/image/1663669189317-3.png",
                        "isERC1155": false,
                        "isERC721": false,
                        "sign": false,
                        "value": "335.30876561344798828"
                    },
                    {
                        "address": "0xc02aaa39b223fe8d0a0e5c4f27ead9083c756cc2",
                        "amount": "0.16108377555062522",
                        "iconUrl": "https://assets.blocksec.com/icon/f1cb2d02c471d545bbc7722daf3277fd852d98e63d118771af7047bd8256c516.png",
                        "isERC1155": false,
                        "isERC721": false,
                        "sign": true,
                        "value": "335.30876561344798828"
                    }
                ]
            },
            {
                "account": "0xd8a832f8184ad2665292a1532e9dc750b644b237",
                "assets": [
                    {
                        "address": "0x8d8813517a06a0c8ef6dc5ca24ba590feeb65ff0",
                        "amount": "1,267,200",
                        "iconUrl": "",
                        "isERC1155": false,
                        "isERC721": false,
                        "sign": true,
                        "value": "334.2120427"
                    },
                    {
                        "address": "0xc02aaa39b223fe8d0a0e5c4f27ead9083c756cc2",
                        "amount": "0.16108377555062522",
                        "iconUrl": "https://assets.blocksec.com/icon/f1cb2d02c471d545bbc7722daf3277fd852d98e63d118771af7047bd8256c516.png",
                        "isERC1155": false,
                        "isERC721": false,
                        "sign": false,
                        "value": "335.30876561344798828"
                    }
                ]
            }
        ]
    },
    "profile": {
        "basic_info": {
            "baseFee": "50.189334934",
            "blockNumber": 17070581,
            "callData": "0x21938f7500000000000000000000000000000000000000000000000000048082fddc000000000000000000000000000000000000000000000000000002396c50f2ab7e9e00000000000000000000000000000000000000000000000000000000000000a00000000000000000000000000000000000000000000000000000000000000100000000000000000000000000def6e56ec2c80937da3bbc1e4ca303c5cbbee59500000000000000000000000000000000000000000000000000000000000000020000000000000000000000008d8813517a06a0c8ef6dc5ca24ba590feeb65ff0000000000000000000000000c02aaa39b223fe8d0a0e5c4f27ead9083c756cc200000000000000000000000000000000000000000000000000000000000000010000000000000000000000001a75f7db182ce7fca969f029e1ef573f7aee9cb5",
            "debugEnable": true,
            "errorInfo": "",
            "eventCount": 7,
            "feeRecipient": "0xebec795c9c8bbd61ffc14a6662944748f299cacf",
            "formatValue": "0",
            "gasLimit": 223355,
            "gasPrice": "50.289334934",
            "gasUsed": 173362,
            "intTxnCount": 14,
            "internalRevert": false,
            "internalRevertMessage": "",
            "isContractCreation": false,
            "isFlashloan": false,
            "maxFee": "62.45581298",
            "nonce": 592,
            "overwritedBlockNumber": -1,
            "priorityFee": "0.1",
            "receiver": "0x8967ba97f39334c9e6f8e34b8a3d7556306af568",
            "revertMessage": "",
            "sender": "0xdef6e56ec2c80937da3bbc1e4ca303c5cbbee595",
            "simulationEnable": true,
            "sourceTxnHash": "0xc2f596c119eb0ec6bb1dfc7c6d274c8d49932eb3481996c49d67f155b7555704",
            "status": true,
            "timestamp": "2023-04-18T02:19:11Z",
            "transactionFee": "0.008718259682828108",
            "txnHash": "0xc2f596c119eb0ec6bb1dfc7c6d274c8d49932eb3481996c49d67f155b7555704",
            "txnIndex": 89,
            "type": 2,
            "value": "0"
        },
        "fund_flow": [
            {
                "amount": "1,267,200",
                "from": "0xdef6e56ec2c80937da3bbc1e4ca303c5cbbee595",
                "id": 1,
                "isERC1155": false,
                "isERC721": false,
                "isReverted": false,
                "order": 1,
                "to": "0xd8a832f8184ad2665292a1532e9dc750b644b237",
                "token": "0x8d8813517a06a0c8ef6dc5ca24ba590feeb65ff0"
            },
            {
                "amount": "0.16108377555062522",
                "from": "0xd8a832f8184ad2665292a1532e9dc750b644b237",
                "id": 2,
                "isERC1155": false,
                "isERC721": false,
                "isReverted": false,
                "order": 2,
                "to": "0x8967ba97f39334c9e6f8e34b8a3d7556306af568",
                "token": "0xc02aaa39b223fe8d0a0e5c4f27ead9083c756cc2"
            },
            {
                "amount": "0.16108377555062522",
                "from": "0xc02aaa39b223fe8d0a0e5c4f27ead9083c756cc2",
                "id": 3,
                "isERC1155": false,
                "isERC721": false,
                "isReverted": false,
                "order": 3,
                "to": "0x8967ba97f39334c9e6f8e34b8a3d7556306af568",
                "token": "0xeeeeeeeeeeeeeeeeeeeeeeeeeeeeeeeeeeeeeeee"
            },
            {
                "amount": "0.16108377555062522",
                "from": "0x8967ba97f39334c9e6f8e34b8a3d7556306af568",
                "id": 4,
                "isERC1155": false,
                "isERC721": false,
                "isReverted": false,
                "order": 4,
                "to": "0xc02aaa39b223fe8d0a0e5c4f27ead9083c756cc2",
                "token": "0xc02aaa39b223fe8d0a0e5c4f27ead9083c756cc2"
            },
            {
                "amount": "0.16108377555062522",
                "from": "0x8967ba97f39334c9e6f8e34b8a3d7556306af568",
                "id": 5,
                "isERC1155": false,
                "isERC721": false,
                "isReverted": false,
                "order": 5,
                "to": "0xdef6e56ec2c80937da3bbc1e4ca303c5cbbee595",
                "token": "0xeeeeeeeeeeeeeeeeeeeeeeeeeeeeeeeeeeeeeeee"
            }
        ],
        "token_infos": [
            {
                "address": "0xc02aaa39b223fe8d0a0e5c4f27ead9083c756cc2",
                "decimals": 18
            },
            {
                "address": "0xeeeeeeeeeeeeeeeeeeeeeeeeeeeeeeeeeeeeeeee",
                "decimals": 18
            },
            {
                "address": "0x8d8813517a06a0c8ef6dc5ca24ba590feeb65ff0",
                "decimals": 9
            }
        ]
    },
    "address_label": {
        "labels": [
            {
                "address": "0xc02aaa39b223fe8d0a0e5c4f27ead9083c756cc2",
                "label": "Wrapped Ether (WETH)"
            },
            {
                "address": "0x8d8813517a06a0c8ef6dc5ca24ba590feeb65ff0",
                "label": "FRENS (FRENS)"
            },
            {
                "address": "0xd8a832f8184ad2665292a1532e9dc750b644b237",
                "label": "Uniswap V2: FRENS 14"
            },
            {
                "address": "0x0000000000000000000000000000000000000002",
                "label": "Precompiled"
            },
            {
                "address": "0x0000000000000000000000000000000000000003",
                "label": "Precompiled"
            },
            {
                "address": "0x0000000000000000000000000000000000000004",
                "label": "Precompiled"
            },
            {
                "address": "0xeeeeeeeeeeeeeeeeeeeeeeeeeeeeeeeeeeeeeeee",
                "label": "Ether"
            },
            {
                "address": "0x1a75f7db182ce7fca969f029e1ef573f7aee9cb5",
                "label": "Uniswap V2"
            },
            {
                "address": "0x0000000000000000000000000000000000000001",
                "label": "Precompiled"
            }
        ]
    },
    "trace": {
        "accountLabels": null,
        "dataMap": {
            "-1": {
                "invocation": {
                    "address": "0xdef6e56ec2c80937da3bbc1e4ca303c5cbbee595",
                    "callData": "",
                    "decodedMethod": null,
                    "errorInfo": "",
                    "fromAddress": "",
                    "gasUsed": 0,
                    "id": -1,
                    "methodDecoded": false,
                    "operation": "",
                    "output": "",
                    "revert": false,
                    "revertMessage": "",
                    "selector": "",
                    "status": false,
                    "value": ""
                },
                "nodeType": 0
            },
            "0": {
                "invocation": {
                    "address": "0x8967ba97f39334c9e6f8e34b8a3d7556306af568",
                    "callData": "0x00000000000000000000000000000000000000000000000000048082fddc000000000000000000000000000000000000000000000000000002396c50f2ab7e9e00000000000000000000000000000000000000000000000000000000000000a00000000000000000000000000000000000000000000000000000000000000100000000000000000000000000def6e56ec2c80937da3bbc1e4ca303c5cbbee59500000000000000000000000000000000000000000000000000000000000000020000000000000000000000008d8813517a06a0c8ef6dc5ca24ba590feeb65ff0000000000000000000000000c02aaa39b223fe8d0a0e5c4f27ead9083c756cc200000000000000000000000000000000000000000000000000000000000000010000000000000000000000001a75f7db182ce7fca969f029e1ef573f7aee9cb5",
                    "decodedMethod": null,
                    "errorInfo": "",
                    "fromAddress": "0xdef6e56ec2c80937da3bbc1e4ca303c5cbbee595",
                    "gasUsed": 173362,
                    "id": 0,
                    "methodDecoded": false,
                    "operation": "CALL",
                    "output": "",
                    "revert": false,
                    "revertMessage": "",
                    "selector": "0x21938f75",
                    "status": true,
                    "value": "0"
                },
                "nodeType": 0
            },
            "1": {
                "invocation": {
                    "address": "0x1a75f7db182ce7fca969f029e1ef573f7aee9cb5",
                    "callData": "0x0000000000000000000000008d8813517a06a0c8ef6dc5ca24ba590feeb65ff0000000000000000000000000c02aaa39b223fe8d0a0e5c4f27ead9083c756cc2",
                    "decodedMethod": null,
                    "errorInfo": "",
                    "fromAddress": "0x8967ba97f39334c9e6f8e34b8a3d7556306af568",
                    "gasUsed": 3323,
                    "id": 1,
                    "methodDecoded": false,
                    "operation": "STATICCALL",
                    "output": "0x000000000000000000000000d8a832f8184ad2665292a1532e9dc750b644b237",
                    "revert": false,
                    "revertMessage": "",
                    "selector": "0xe98a5b85",
                    "status": true,
                    "value": "0"
                },
                "nodeType": 0
            },
            "10": {
                "invocation": {
                    "address": "0xc02aaa39b223fe8d0a0e5c4f27ead9083c756cc2",
                    "callData": "0x0000000000000000000000008967ba97f39334c9e6f8e34b8a3d7556306af568000000000000000000000000000000000000000000000000023c48d724c615c4",
                    "decodedMethod": {
                        "callParams": [
                            {
                                "name": "dst",
                                "type": "address",
                                "value": "0x8967ba97f39334c9e6f8e34b8a3d7556306af568"
                            },
                            {
                                "decimalAvailable": true,
                                "name": "wad",
                                "type": "uint256",
                                "value": "161,083,775,550,625,220"
                            }
                        ],
                        "constructorArguments": "",
                        "name": "transfer",
                        "returnParams": [
                            {
                                "name": "",
                                "type": "bool",
                                "value": true
                            }
                        ],
                        "signature": "transfer(address,uint256)"
                    },
                    "errorInfo": "",
                    "fromAddress": "0xd8a832f8184ad2665292a1532e9dc750b644b237",
                    "gasUsed": 27962,
                    "id": 10,
                    "methodDecoded": true,
                    "operation": "CALL",
                    "output": "0x0000000000000000000000000000000000000000000000000000000000000001",
                    "revert": false,
                    "revertMessage": "",
                    "selector": "0xa9059cbb",
                    "status": true,
                    "value": "0"
                },
                "nodeType": 0
            },
            "11": {
                "event": {
                    "contract": "0xc02aaa39b223fe8d0a0e5c4f27ead9083c756cc2",
                    "decodedLog": {
                        "name": "Transfer",
                        "params": [
                            {
                                "name": "src",
                                "type": "address",
                                "value": "0xd8a832f8184ad2665292a1532e9dc750b644b237"
                            },
                            {
                                "name": "dst",
                                "type": "address",
                                "value": "0x8967ba97f39334c9e6f8e34b8a3d7556306af568"
                            },
                            {
                                "decimalAvailable": true,
                                "name": "wad",
                                "type": "uint256",
                                "value": "161,083,775,550,625,220"
                            }
                        ],
                        "signature": "Transfer(address,address,uint256)"
                    },
                    "id": 11,
                    "logData": "0x000000000000000000000000000000000000000000000000023c48d724c615c4",
                    "logDecoded": true,
                    "operation": "EVENT",
                    "revert": false,
                    "status": true,
                    "topics": [
                        "0xddf252ad1be2c89b69c2b068fc378daa952ba7f163c4a11628f55a4df523b3ef",
                        "0x000000000000000000000000d8a832f8184ad2665292a1532e9dc750b644b237",
                        "0x0000000000000000000000008967ba97f39334c9e6f8e34b8a3d7556306af568"
                    ]
                },
                "nodeType": 1
            },
            "12": {
                "invocation": {
                    "address": "0x8d8813517a06a0c8ef6dc5ca24ba590feeb65ff0",
                    "callData": "0x000000000000000000000000d8a832f8184ad2665292a1532e9dc750b644b237",
                    "decodedMethod": {
                        "callParams": [
                            {
                                "name": "account",
                                "type": "address",
                                "value": "0xd8a832f8184ad2665292a1532e9dc750b644b237"
                            }
                        ],
                        "constructorArguments": "",
                        "name": "balanceOf",
                        "returnParams": [
                            {
                                "decimalAvailable": true,
                                "name": "",
                                "type": "uint256",
                                "value": "28,354,562,202,049,870"
                            }
                        ],
                        "signature": "balanceOf(address)"
                    },
                    "errorInfo": "",
                    "fromAddress": "0xd8a832f8184ad2665292a1532e9dc750b644b237",
                    "gasUsed": 886,
                    "id": 12,
                    "methodDecoded": true,
                    "operation": "STATICCALL",
                    "output": "0x0000000000000000000000000000000000000000000000000064bc52f7d09d4e",
                    "revert": false,
                    "revertMessage": "",
                    "selector": "0x70a08231",
                    "status": true,
                    "value": "0"
                },
                "nodeType": 0
            },
            "13": {
                "invocation": {
                    "address": "0xc02aaa39b223fe8d0a0e5c4f27ead9083c756cc2",
                    "callData": "0x000000000000000000000000d8a832f8184ad2665292a1532e9dc750b644b237",
                    "decodedMethod": {
                        "callParams": [
                            {
                                "name": "",
                                "type": "address",
                                "value": "0xd8a832f8184ad2665292a1532e9dc750b644b237"
                            }
                        ],
                        "constructorArguments": "",
                        "name": "balanceOf",
                        "returnParams": [
                            {
                                "decimalAvailable": true,
                                "name": "",
                                "type": "uint256",
                                "value": "3,453,648,962,364,912,444"
                            }
                        ],
                        "signature": "balanceOf(address)"
                    },
                    "errorInfo": "",
                    "fromAddress": "0xd8a832f8184ad2665292a1532e9dc750b644b237",
                    "gasUsed": 534,
                    "id": 13,
                    "methodDecoded": true,
                    "operation": "STATICCALL",
                    "output": "0x0000000000000000000000000000000000000000000000002fedd36edca8333c",
                    "revert": false,
                    "revertMessage": "",
                    "selector": "0x70a08231",
                    "status": true,
                    "value": "0"
                },
                "nodeType": 0
            },
            "14": {
                "event": {
                    "contract": "0xd8a832f8184ad2665292a1532e9dc750b644b237",
                    "decodedLog": {
                        "name": "Sync",
                        "params": [
                            {
                                "name": "reserve0",
                                "type": "uint112",
                                "value": "28,354,562,202,049,870"
                            },
                            {
                                "name": "reserve1",
                                "type": "uint112",
                                "value": "3,453,648,962,364,912,444"
                            }
                        ],
                        "signature": "Sync(uint112,uint112)"
                    },
                    "id": 14,
                    "logData": "0x0000000000000000000000000000000000000000000000000064bc52f7d09d4e0000000000000000000000000000000000000000000000002fedd36edca8333c",
                    "logDecoded": true,
                    "operation": "EVENT",
                    "revert": false,
                    "status": true,
                    "topics": [
                        "0x1c411e9a96e071241c2f21f7726b17ae89e3cab4c78be50e062b03a9fffbbad1"
                    ]
                },
                "nodeType": 1
            },
            "15": {
                "event": {
                    "contract": "0xd8a832f8184ad2665292a1532e9dc750b644b237",
                    "decodedLog": {
                        "name": "Swap",
                        "params": [
                            {
                                "name": "sender",
                                "type": "address",
                                "value": "0x1a75f7db182ce7fca969f029e1ef573f7aee9cb5"
                            },
                            {
                                "name": "to",
                                "type": "address",
                                "value": "0x8967ba97f39334c9e6f8e34b8a3d7556306af568"
                            },
                            {
                                "name": "amount0In",
                                "type": "uint256",
                                "value": "1,267,200,000,000,000"
                            },
                            {
                                "name": "amount1In",
                                "type": "uint256",
                                "value": "0"
                            },
                            {
                                "name": "amount0Out",
                                "type": "uint256",
                                "value": "0"
                            },
                            {
                                "name": "amount1Out",
                                "type": "uint256",
                                "value": "161,083,775,550,625,220"
                            }
                        ],
                        "signature": "Swap(address,uint256,uint256,uint256,uint256,address)"
                    },
                    "id": 15,
                    "logData": "0x00000000000000000000000000000000000000000000000000048082fddc000000000000000000000000000000000000000000000000000000000000000000000000000000000000000000000000000000000000000000000000000000000000000000000000000000000000000000000000000000000000023c48d724c615c4",
                    "logDecoded": true,
                    "operation": "EVENT",
                    "revert": false,
                    "status": true,
                    "topics": [
                        "0xd78ad95fa46c994b6551d0da85fc275fe613ce37657fb8d5e3d130840159d822",
                        "0x0000000000000000000000001a75f7db182ce7fca969f029e1ef573f7aee9cb5",
                        "0x0000000000000000000000008967ba97f39334c9e6f8e34b8a3d7556306af568"
                    ]
                },
                "nodeType": 1
            },
            "16": {
                "invocation": {
                    "address": "0xc02aaa39b223fe8d0a0e5c4f27ead9083c756cc2",
                    "callData": "0x0000000000000000000000008967ba97f39334c9e6f8e34b8a3d7556306af568",
                    "decodedMethod": {
                        "callParams": [
                            {
                                "name": "",
                                "type": "address",
                                "value": "0x8967ba97f39334c9e6f8e34b8a3d7556306af568"
                            }
                        ],
                        "constructorArguments": "",
                        "name": "balanceOf",
                        "returnParams": [
                            {
                                "decimalAvailable": true,
                                "name": "",
                                "type": "uint256",
                                "value": "161,083,775,550,625,220"
                            }
                        ],
                        "signature": "balanceOf(address)"
                    },
                    "errorInfo": "",
                    "fromAddress": "0x8967ba97f39334c9e6f8e34b8a3d7556306af568",
                    "gasUsed": 534,
                    "id": 16,
                    "methodDecoded": true,
                    "operation": "STATICCALL",
                    "output": "0x000000000000000000000000000000000000000000000000023c48d724c615c4",
                    "revert": false,
                    "revertMessage": "",
                    "selector": "0x70a08231",
                    "status": true,
                    "value": "0"
                },
                "nodeType": 0
            },
            "17": {
                "event": {
                    "contract": "0x8967ba97f39334c9e6f8e34b8a3d7556306af568",
                    "decodedLog": null,
                    "id": 17,
                    "logData": "0x00000000000000000000000000000000000000000000000000048082fddc000000000000000000000000000000000000000000000000000002396c50f2ab7e9e000000000000000000000000000000000000000000000000023c48d724c615c4",
                    "logDecoded": false,
                    "operation": "EVENT",
                    "revert": false,
                    "status": true,
                    "topics": [
                        "0x75579d79b5f47d9948c4ef1a2ca6debf5b1305937f0eff4fc71cd7fb3053428e"
                    ]
                },
                "nodeType": 1
            },
            "18": {
                "invocation": {
                    "address": "0xc02aaa39b223fe8d0a0e5c4f27ead9083c756cc2",
                    "callData": "0x000000000000000000000000000000000000000000000000023c48d724c615c4",
                    "decodedMethod": {
                        "callParams": [
                            {
                                "name": "wad",
                                "type": "uint256",
                                "value": "161,083,775,550,625,220"
                            }
                        ],
                        "constructorArguments": "",
                        "name": "withdraw",
                        "returnParams": [],
                        "signature": "withdraw(uint256)"
                    },
                    "errorInfo": "",
                    "fromAddress": "0x8967ba97f39334c9e6f8e34b8a3d7556306af568",
                    "gasUsed": 9195,
                    "id": 18,
                    "methodDecoded": true,
                    "operation": "CALL",
                    "output": "",
                    "revert": false,
                    "revertMessage": "",
                    "selector": "0x2e1a7d4d",
                    "status": true,
                    "value": "0"
                },
                "nodeType": 0
            },
            "19": {
                "invocation": {
                    "address": "0x8967ba97f39334c9e6f8e34b8a3d7556306af568",
                    "callData": "0x",
                    "decodedMethod": null,
                    "errorInfo": "",
                    "fromAddress": "0xc02aaa39b223fe8d0a0e5c4f27ead9083c756cc2",
                    "gasUsed": 55,
                    "id": 19,
                    "methodDecoded": false,
                    "operation": "CALL",
                    "output": "",
                    "revert": false,
                    "revertMessage": "",
                    "selector": "fallback",
                    "status": true,
                    "value": "0.16108377555062522"
                },
                "nodeType": 0
            },
            "2": {
                "invocation": {
                    "address": "0x8d8813517a06a0c8ef6dc5ca24ba590feeb65ff0",
                    "callData": "0x000000000000000000000000def6e56ec2c80937da3bbc1e4ca303c5cbbee595000000000000000000000000d8a832f8184ad2665292a1532e9dc750b644b23700000000000000000000000000000000000000000000000000048082fddc0000",
                    "decodedMethod": {
                        "callParams": [
                            {
                                "name": "sender",
                                "type": "address",
                                "value": "0xdef6e56ec2c80937da3bbc1e4ca303c5cbbee595"
                            },
                            {
                                "name": "recipient",
                                "type": "address",
                                "value": "0xd8a832f8184ad2665292a1532e9dc750b644b237"
                            },
                            {
                                "decimalAvailable": true,
                                "name": "amount",
                                "type": "uint256",
                                "value": "1,267,200,000,000,000"
                            }
                        ],
                        "constructorArguments": "",
                        "name": "transferFrom",
                        "returnParams": [
                            {
                                "name": "",
                                "type": "bool",
                                "value": true
                            }
                        ],
                        "signature": "transferFrom(address,address,uint256)"
                    },
                    "errorInfo": "",
                    "fromAddress": "0x8967ba97f39334c9e6f8e34b8a3d7556306af568",
                    "gasUsed": 64232,
                    "id": 2,
                    "methodDecoded": true,
                    "operation": "CALL",
                    "output": "0x0000000000000000000000000000000000000000000000000000000000000001",
                    "revert": false,
                    "revertMessage": "",
                    "selector": "0x23b872dd",
                    "status": true,
                    "value": "0"
                },
                "nodeType": 0
            },
            "20": {
                "event": {
                    "contract": "0xc02aaa39b223fe8d0a0e5c4f27ead9083c756cc2",
                    "decodedLog": {
                        "name": "Withdrawal",
                        "params": [
                            {
                                "name": "src",
                                "type": "address",
                                "value": "0x8967ba97f39334c9e6f8e34b8a3d7556306af568"
                            },
                            {
                                "name": "wad",
                                "type": "uint256",
                                "value": "161,083,775,550,625,220"
                            }
                        ],
                        "signature": "Withdrawal(address,uint256)"
                    },
                    "id": 20,
                    "logData": "0x000000000000000000000000000000000000000000000000023c48d724c615c4",
                    "logDecoded": true,
                    "operation": "EVENT",
                    "revert": false,
                    "status": true,
                    "topics": [
                        "0x7fcf532c15f0a6db0bd6d0e038bea71d30d808c7d98cb3bf7268a95bf5081b65",
                        "0x0000000000000000000000008967ba97f39334c9e6f8e34b8a3d7556306af568"
                    ]
                },
                "nodeType": 1
            },
            "21": {
                "invocation": {
                    "address": "0xdef6e56ec2c80937da3bbc1e4ca303c5cbbee595",
                    "callData": "0x",
                    "decodedMethod": null,
                    "errorInfo": "",
                    "fromAddress": "0x8967ba97f39334c9e6f8e34b8a3d7556306af568",
                    "gasUsed": 0,
                    "id": 21,
                    "methodDecoded": false,
                    "operation": "CALL",
                    "output": "",
                    "revert": false,
                    "revertMessage": "",
                    "selector": "fallback",
                    "status": true,
                    "value": "0.16108377555062522"
                },
                "nodeType": 0
            },
            "3": {
                "event": {
                    "contract": "0x8d8813517a06a0c8ef6dc5ca24ba590feeb65ff0",
                    "decodedLog": {
                        "name": "Transfer",
                        "params": [
                            {
                                "name": "from",
                                "type": "address",
                                "value": "0xdef6e56ec2c80937da3bbc1e4ca303c5cbbee595"
                            },
                            {
                                "name": "to",
                                "type": "address",
                                "value": "0xd8a832f8184ad2665292a1532e9dc750b644b237"
                            },
                            {
                                "decimalAvailable": true,
                                "name": "value",
                                "type": "uint256",
                                "value": "1,267,200,000,000,000"
                            }
                        ],
                        "signature": "Transfer(address,address,uint256)"
                    },
                    "id": 3,
                    "logData": "0x00000000000000000000000000000000000000000000000000048082fddc0000",
                    "logDecoded": true,
                    "operation": "EVENT",
                    "revert": false,
                    "status": true,
                    "topics": [
                        "0xddf252ad1be2c89b69c2b068fc378daa952ba7f163c4a11628f55a4df523b3ef",
                        "0x000000000000000000000000def6e56ec2c80937da3bbc1e4ca303c5cbbee595",
                        "0x000000000000000000000000d8a832f8184ad2665292a1532e9dc750b644b237"
                    ]
                },
                "nodeType": 1
            },
            "4": {
                "event": {
                    "contract": "0x8d8813517a06a0c8ef6dc5ca24ba590feeb65ff0",
                    "decodedLog": {
                        "name": "Approval",
                        "params": [
                            {
                                "name": "owner",
                                "type": "address",
                                "value": "0xdef6e56ec2c80937da3bbc1e4ca303c5cbbee595"
                            },
                            {
                                "name": "spender",
                                "type": "address",
                                "value": "0x8967ba97f39334c9e6f8e34b8a3d7556306af568"
                            },
                            {
                                "decimalAvailable": true,
                                "name": "value",
                                "type": "uint256",
                                "value": "115,792,089,237,316,195,423,570,985,008,687,907,853,269,984,665,640,564,039,457,582,740,713,129,639,935"
                            }
                        ],
                        "signature": "Approval(address,address,uint256)"
                    },
                    "id": 4,
                    "logData": "0xfffffffffffffffffffffffffffffffffffffffffffffffffffb7f7d0223ffff",
                    "logDecoded": true,
                    "operation": "EVENT",
                    "revert": false,
                    "status": true,
                    "topics": [
                        "0x8c5be1e5ebec7d5bd14f71427d1e84f3dd0314c0f7b2291e5b200ac8c7c3b925",
                        "0x000000000000000000000000def6e56ec2c80937da3bbc1e4ca303c5cbbee595",
                        "0x0000000000000000000000008967ba97f39334c9e6f8e34b8a3d7556306af568"
                    ]
                },
                "nodeType": 1
            },
            "5": {
                "invocation": {
                    "address": "0xc02aaa39b223fe8d0a0e5c4f27ead9083c756cc2",
                    "callData": "0x0000000000000000000000008967ba97f39334c9e6f8e34b8a3d7556306af568",
                    "decodedMethod": {
                        "callParams": [
                            {
                                "name": "",
                                "type": "address",
                                "value": "0x8967ba97f39334c9e6f8e34b8a3d7556306af568"
                            }
                        ],
                        "constructorArguments": "",
                        "name": "balanceOf",
                        "returnParams": [
                            {
                                "decimalAvailable": true,
                                "name": "",
                                "type": "uint256",
                                "value": "0"
                            }
                        ],
                        "signature": "balanceOf(address)"
                    },
                    "errorInfo": "",
                    "fromAddress": "0x8967ba97f39334c9e6f8e34b8a3d7556306af568",
                    "gasUsed": 2534,
                    "id": 5,
                    "methodDecoded": true,
                    "operation": "STATICCALL",
                    "output": "0x0000000000000000000000000000000000000000000000000000000000000000",
                    "revert": false,
                    "revertMessage": "",
                    "selector": "0x70a08231",
                    "status": true,
                    "value": "0"
                },
                "nodeType": 0
            },
            "6": {
                "invocation": {
                    "address": "0x1a75f7db182ce7fca969f029e1ef573f7aee9cb5",
                    "callData": "0x0000000000000000000000008d8813517a06a0c8ef6dc5ca24ba590feeb65ff0000000000000000000000000c02aaa39b223fe8d0a0e5c4f27ead9083c756cc20000000000000000000000008967ba97f39334c9e6f8e34b8a3d7556306af568",
                    "decodedMethod": {
                        "callParams": [
                            {
                                "name": "token1",
                                "type": "address",
                                "value": "0x8d8813517a06a0c8ef6dc5ca24ba590feeb65ff0"
                            },
                            {
                                "name": "token2",
                                "type": "address",
                                "value": "0xc02aaa39b223fe8d0a0e5c4f27ead9083c756cc2"
                            },
                            {
                                "name": "reseller",
                                "type": "address",
                                "value": "0x8967ba97f39334c9e6f8e34b8a3d7556306af568"
                            }
                        ],
                        "constructorArguments": "",
                        "name": "swap",
                        "returnParams": [],
                        "signature": "swap(address,address,address)"
                    },
                    "errorInfo": "",
                    "fromAddress": "0x8967ba97f39334c9e6f8e34b8a3d7556306af568",
                    "gasUsed": 72424,
                    "id": 6,
                    "methodDecoded": true,
                    "operation": "CALL",
                    "output": "",
                    "revert": false,
                    "revertMessage": "",
                    "selector": "0x93316212",
                    "status": true,
                    "value": "0"
                },
                "nodeType": 0
            },
            "7": {
                "invocation": {
                    "address": "0xd8a832f8184ad2665292a1532e9dc750b644b237",
                    "callData": "0x",
                    "decodedMethod": {
                        "callParams": [],
                        "constructorArguments": "",
                        "name": "getReserves",
                        "returnParams": [
                            {
                                "name": "_reserve0",
                                "type": "uint112",
                                "value": "27,087,362,202,049,870"
                            },
                            {
                                "name": "_reserve1",
                                "type": "uint112",
                                "value": "3,614,732,737,915,537,664"
                            },
                            {
                                "name": "_blockTimestampLast",
                                "type": "uint32",
                                "value": "1,681,784,279"
                            }
                        ],
                        "signature": "getReserves()"
                    },
                    "errorInfo": "",
                    "fromAddress": "0x1a75f7db182ce7fca969f029e1ef573f7aee9cb5",
                    "gasUsed": 2504,
                    "id": 7,
                    "methodDecoded": true,
                    "operation": "STATICCALL",
                    "output": "0x00000000000000000000000000000000000000000000000000603bcff9f49d4e000000000000000000000000000000000000000000000000322a1c46016e490000000000000000000000000000000000000000000000000000000000643dfdd7",
                    "revert": false,
                    "revertMessage": "",
                    "selector": "0x0902f1ac",
                    "status": true,
                    "value": "0"
                },
                "nodeType": 0
            },
            "8": {
                "invocation": {
                    "address": "0x8d8813517a06a0c8ef6dc5ca24ba590feeb65ff0",
                    "callData": "0x000000000000000000000000d8a832f8184ad2665292a1532e9dc750b644b237",
                    "decodedMethod": {
                        "callParams": [
                            {
                                "name": "account",
                                "type": "address",
                                "value": "0xd8a832f8184ad2665292a1532e9dc750b644b237"
                            }
                        ],
                        "constructorArguments": "",
                        "name": "balanceOf",
                        "returnParams": [
                            {
                                "decimalAvailable": true,
                                "name": "",
                                "type": "uint256",
                                "value": "28,354,562,202,049,870"
                            }
                        ],
                        "signature": "balanceOf(address)"
                    },
                    "errorInfo": "",
                    "fromAddress": "0x1a75f7db182ce7fca969f029e1ef573f7aee9cb5",
                    "gasUsed": 886,
                    "id": 8,
                    "methodDecoded": true,
                    "operation": "STATICCALL",
                    "output": "0x0000000000000000000000000000000000000000000000000064bc52f7d09d4e",
                    "revert": false,
                    "revertMessage": "",
                    "selector": "0x70a08231",
                    "status": true,
                    "value": "0"
                },
                "nodeType": 0
            },
            "9": {
                "invocation": {
                    "address": "0xd8a832f8184ad2665292a1532e9dc750b644b237",
                    "callData": "0x0000000000000000000000000000000000000000000000000000000000000000000000000000000000000000000000000000000000000000023c48d724c615c40000000000000000000000008967ba97f39334c9e6f8e34b8a3d7556306af56800000000000000000000000000000000000000000000000000000000000000800000000000000000000000000000000000000000000000000000000000000000",
                    "decodedMethod": {
                        "callParams": [
                            {
                                "name": "amount0Out",
                                "type": "uint256",
                                "value": "0"
                            },
                            {
                                "name": "amount1Out",
                                "type": "uint256",
                                "value": "161,083,775,550,625,220"
                            },
                            {
                                "name": "to",
                                "type": "address",
                                "value": "0x8967ba97f39334c9e6f8e34b8a3d7556306af568"
                            },
                            {
                                "name": "data",
                                "type": "bytes",
                                "value": "0x"
                            }
                        ],
                        "constructorArguments": "",
                        "name": "swap",
                        "returnParams": [],
                        "signature": "swap(uint256,uint256,address,bytes)"
                    },
                    "errorInfo": "",
                    "fromAddress": "0x1a75f7db182ce7fca969f029e1ef573f7aee9cb5",
                    "gasUsed": 60705,
                    "id": 9,
                    "methodDecoded": true,
                    "operation": "CALL",
                    "output": "",
                    "revert": false,
                    "revertMessage": "",
                    "selector": "0x022c0d9f",
                    "status": true,
                    "value": "0"
                },
                "nodeType": 0
            }
        },
        "gasFlame": [
            {
                "children": [
                    {
                        "children": [
                            {
                                "children": [],
                                "depth": 0,
                                "name": "Initial Gas",
                                "value": 23508
                            },
                            {
                                "children": [
                                    {
                                        "children": [],
                                        "depth": 1,
                                        "name": "0xe98a5b85",
                                        "value": 3323
                                    },
                                    {
                                        "children": [],
                                        "depth": 1,
                                        "name": "transferFrom",
                                        "value": 64232
                                    },
                                    {
                                        "children": [],
                                        "depth": 1,
                                        "name": "balanceOf",
                                        "value": 2534
                                    },
                                    {
                                        "children": [
                                            {
                                                "children": [],
                                                "depth": 2,
                                                "name": "getReserves",
                                                "value": 2504
                                            },
                                            {
                                                "children": [],
                                                "depth": 2,
                                                "name": "balanceOf",
                                                "value": 886
                                            },
                                            {
                                                "children": [
                                                    {
                                                        "children": [],
                                                        "depth": 3,
                                                        "name": "transfer",
                                                        "value": 27962
                                                    },
                                                    {
                                                        "children": [],
                                                        "depth": 3,
                                                        "name": "balanceOf",
                                                        "value": 886
                                                    },
                                                    {
                                                        "children": [],
                                                        "depth": 3,
                                                        "name": "balanceOf",
                                                        "value": 534
                                                    }
                                                ],
                                                "depth": 2,
                                                "name": "swap",
                                                "value": 60705
                                            }
                                        ],
                                        "depth": 1,
                                        "name": "swap",
                                        "value": 72424
                                    },
                                    {
                                        "children": [],
                                        "depth": 1,
                                        "name": "balanceOf",
                                        "value": 534
                                    },
                                    {
                                        "children": [
                                            {
                                                "children": [],
                                                "depth": 2,
                                                "name": "fallback",
                                                "value": 55
                                            }
                                        ],
                                        "depth": 1,
                                        "name": "withdraw",
                                        "value": 9195
                                    },
                                    {
                                        "children": [],
                                        "depth": 1,
                                        "name": "fallback",
                                        "value": 0
                                    }
                                ],
                                "depth": 0,
                                "name": "Executed Gas",
                                "value": 177354
                            }
                        ],
                        "depth": -1,
                        "name": "Actual Gas Used",
                        "value": 173362
                    },
                    {
                        "children": [],
                        "depth": -1,
                        "name": "Refunded Gas",
                        "value": 27500
                    }
                ],
                "depth": -2,
                "name": "Total Gas",
                "value": 200862
            }
        ],
        "isConfirmed": true,
        "mainTrace": [
            {
                "children": [
                    {
                        "children": [
                            {
                                "children": [],
                                "depth": 1,
                                "id": 1,
                                "order": 1
                            },
                            {
                                "children": [
                                    {
                                        "children": [],
                                        "depth": 2,
                                        "id": 3,
                                        "order": 3
                                    },
                                    {
                                        "children": [],
                                        "depth": 2,
                                        "id": 4,
                                        "order": 4
                                    }
                                ],
                                "depth": 1,
                                "id": 2,
                                "order": 2
                            },
                            {
                                "children": [],
                                "depth": 1,
                                "id": 5,
                                "order": 5
                            },
                            {
                                "children": [
                                    {
                                        "children": [],
                                        "depth": 2,
                                        "id": 7,
                                        "order": 7
                                    },
                                    {
                                        "children": [],
                                        "depth": 2,
                                        "id": 8,
                                        "order": 8
                                    },
                                    {
                                        "children": [
                                            {
                                                "children": [
                                                    {
                                                        "children": [],
                                                        "depth": 4,
                                                        "id": 11,
                                                        "order": 11
                                                    }
                                                ],
                                                "depth": 3,
                                                "id": 10,
                                                "order": 10
                                            },
                                            {
                                                "children": [],
                                                "depth": 3,
                                                "id": 12,
                                                "order": 12
                                            },
                                            {
                                                "children": [],
                                                "depth": 3,
                                                "id": 13,
                                                "order": 13
                                            },
                                            {
                                                "children": [],
                                                "depth": 3,
                                                "id": 14,
                                                "order": 14
                                            },
                                            {
                                                "children": [],
                                                "depth": 3,
                                                "id": 15,
                                                "order": 15
                                            }
                                        ],
                                        "depth": 2,
                                        "id": 9,
                                        "order": 9
                                    }
                                ],
                                "depth": 1,
                                "id": 6,
                                "order": 6
                            },
                            {
                                "children": [],
                                "depth": 1,
                                "id": 16,
                                "order": 16
                            },
                            {
                                "children": [],
                                "depth": 1,
                                "id": 17,
                                "order": 17
                            },
                            {
                                "children": [
                                    {
                                        "children": [],
                                        "depth": 2,
                                        "id": 19,
                                        "order": 19
                                    },
                                    {
                                        "children": [],
                                        "depth": 2,
                                        "id": 20,
                                        "order": 20
                                    }
                                ],
                                "depth": 1,
                                "id": 18,
                                "order": 18
                            },
                            {
                                "children": [],
                                "depth": 1,
                                "id": 21,
                                "order": 21
                            }
                        ],
                        "depth": 0,
                        "id": 0,
                        "order": 0
                    }
                ],
                "depth": -1,
                "id": -1,
                "order": -1
            }
        ],
        "mainTraceNodeCount": 22,
        "parentIdMap": {
            "0": -1,
            "1": 0,
            "10": 9,
            "11": 10,
            "12": 9,
            "13": 9,
            "14": 9,
            "15": 9,
            "16": 0,
            "17": 0,
            "18": 0,
            "19": 18,
            "2": 0,
            "20": 18,
            "21": 0,
            "3": 2,
            "4": 2,
            "5": 0,
            "6": 0,
            "7": 6,
            "8": 6,
            "9": 6
        },
        "tidyTrace": [
            {
                "children": [
                    {
                        "children": [
                            {
                                "children": [
                                    {
                                        "children": [],
                                        "depth": 2,
                                        "id": 3,
                                        "order": 3
                                    },
                                    {
                                        "children": [],
                                        "depth": 2,
                                        "id": 4,
                                        "order": 4
                                    }
                                ],
                                "depth": 1,
                                "id": 2,
                                "order": 2
                            },
                            {
                                "children": [
                                    {
                                        "children": [
                                            {
                                                "children": [
                                                    {
                                                        "children": [],
                                                        "depth": 4,
                                                        "id": 11,
                                                        "order": 11
                                                    }
                                                ],
                                                "depth": 3,
                                                "id": 10,
                                                "order": 10
                                            },
                                            {
                                                "children": [],
                                                "depth": 3,
                                                "id": 14,
                                                "order": 14
                                            },
                                            {
                                                "children": [],
                                                "depth": 3,
                                                "id": 15,
                                                "order": 15
                                            }
                                        ],
                                        "depth": 2,
                                        "id": 9,
                                        "order": 9
                                    }
                                ],
                                "depth": 1,
                                "id": 6,
                                "order": 6
                            },
                            {
                                "children": [],
                                "depth": 1,
                                "id": 17,
                                "order": 17
                            },
                            {
                                "children": [
                                    {
                                        "children": [],
                                        "depth": 2,
                                        "id": 19,
                                        "order": 19
                                    },
                                    {
                                        "children": [],
                                        "depth": 2,
                                        "id": 20,
                                        "order": 20
                                    }
                                ],
                                "depth": 1,
                                "id": 18,
                                "order": 18
                            },
                            {
                                "children": [],
                                "depth": 1,
                                "id": 21,
                                "order": 21
                            }
                        ],
                        "depth": 0,
                        "id": 0,
                        "order": 0
                    }
                ],
                "depth": -1,
                "id": -1,
                "order": -1
            }
        ],
        "tidyTraceNodeCount": 15
    },
    "state_change": {
        "stateChanges": [
            {
                "address": "0x8d8813517a06a0c8ef6dc5ca24ba590feeb65ff0",
                "erc": "ERC-20",
                "slots": [
                    {
                        "current": "0x0000000000000000000000000000000000000000000000000064bc52f7d09d4e",
                        "key": "0x5be8a9127682932185e82e32d9c3c9c08e90d871836a503745337283c05040d8",
                        "prev": "0x00000000000000000000000000000000000000000000000000603bcff9f49d4e"
                    },
                    {
                        "current": "0xfffffffffffffffffffffffffffffffffffffffffffffffffffb7f7d0223ffff",
                        "key": "0x67c5c76b810354b3e32cd84b212276e6ce9e519e44a5c2684535074040654e9f",
                        "prev": "0xffffffffffffffffffffffffffffffffffffffffffffffffffffffffffffffff"
                    },
                    {
                        "current": "0x000000000000000000000000000000000000000000000000000000000000001c",
                        "key": "0x0000000000000000000000000000000000000000000000000000000000000014",
                        "prev": "0x000000000000000000000000000000000000000000000000000000000000001b"
                    },
                    {
                        "current": "0x0000000000000000000000000000000000000000000000000000000000000000",
                        "key": "0x9107f483b7c8a2cc4f893ccef43143511a9bc2040490c8471396cd42ab53c3ce",
                        "prev": "0x00000000000000000000000000000000000000000000000000048082fddc0000"
                    }
                ],
                "storageVariables": [
                    {
                        "name": "_balances",
                        "type": "mapping(address => uint256)",
                        "value": {
                            "pairs": [
                                {
                                    "key": "0xd8a832f8184ad2665292a1532e9dc750b644b237",
                                    "value": {
                                        "current": "28354562202049870",
                                        "prev": "27087362202049870",
                                        "typeTag": 1
                                    }
                                },
                                {
                                    "key": "0xdef6e56ec2c80937da3bbc1e4ca303c5cbbee595",
                                    "value": {
                                        "current": "0",
                                        "prev": "1267200000000000",
                                        "typeTag": 1
                                    }
                                }
                            ],
                            "typeTag": 4
                        }
                    },
                    {
                        "name": "_allowances",
                        "type": "mapping(address => mapping(address => uint256))",
                        "value": {
                            "pairs": [
                                {
                                    "key": "0xdef6e56ec2c80937da3bbc1e4ca303c5cbbee595",
                                    "value": {
                                        "pairs": [
                                            {
                                                "key": "0x8967ba97f39334c9e6f8e34b8a3d7556306af568",
                                                "value": {
                                                    "current": "115792089237316195423570985008687907853269984665640564039457582740713129639935",
                                                    "prev": "115792089237316195423570985008687907853269984665640564039457584007913129639935",
                                                    "typeTag": 1
                                                }
                                            }
                                        ],
                                        "typeTag": 4
                                    }
                                }
                            ],
                            "typeTag": 4
                        }
                    },
                    {
                        "name": "swapTimes",
                        "type": "uint256",
                        "value": {
                            "current": "28",
                            "prev": "27",
                            "typeTag": 1
                        }
                    }
                ]
            },
            {
                "address": "0xc02aaa39b223fe8d0a0e5c4f27ead9083c756cc2",
                "erc": "ERC-20",
                "slots": [
                    {
                        "current": "0x0000000000000000000000000000000000000000000000002fedd36edca8333c",
                        "key": "0x2160e9bd217b35a0c0ec7b68dd699833b0fe3047f5c30a9f9896f013ecfd23a5",
                        "prev": "0x000000000000000000000000000000000000000000000000322a1c46016e4900"
                    }
                ],
                "storageVariables": [
                    {
                        "name": "balanceOf",
                        "type": "mapping(address => uint256)",
                        "value": {
                            "pairs": [
                                {
                                    "key": "0xd8a832f8184ad2665292a1532e9dc750b644b237",
                                    "value": {
                                        "current": "3453648962364912444",
                                        "prev": "3614732737915537664",
                                        "typeTag": 1
                                    }
                                }
                            ],
                            "typeTag": 4
                        }
                    }
                ]
            },
            {
                "address": "0xd8a832f8184ad2665292a1532e9dc750b644b237",
                "erc": "ERC-20",
                "slots": [
                    {
                        "current": "0x00000000000000000000000000000019cecb5bf246a60c940b0de452c0a5d038",
                        "key": "0x0000000000000000000000000000000000000000000000000000000000000009",
                        "prev": "0x00000000000000000000000000000019a9432917182c16a99f9df9b6acfaeb58"
                    },
                    {
                        "current": "0x0000000000000000000000000000000000186ee190f004156fb03e030f20d59c",
                        "key": "0x000000000000000000000000000000000000000000000000000000000000000a",
                        "prev": "0x000000000000000000000000000000000017e4c252eb37bb49a3bafce5c19114"
                    },
                    {
                        "current": "0x643dfe1f0000000000002fedd36edca8333c0000000000000064bc52f7d09d4e",
                        "key": "0x0000000000000000000000000000000000000000000000000000000000000008",
                        "prev": "0x643dfdd7000000000000322a1c46016e490000000000000000603bcff9f49d4e"
                    }
                ],
                "storageVariables": [
                    {
                        "name": "reserve0",
                        "type": "uint112",
                        "value": {
                            "current": "28354562202049870",
                            "prev": "27087362202049870",
                            "typeTag": 1
                        }
                    },
                    {
                        "name": "reserve1",
                        "type": "uint112",
                        "value": {
                            "current": "3453648962364912444",
                            "prev": "3614732737915537664",
                            "typeTag": 1
                        }
                    },
                    {
                        "name": "blockTimestampLast",
                        "type": "uint32",
                        "value": {
                            "current": "1681784351",
                            "prev": "1681784279",
                            "typeTag": 1
                        }
                    },
                    {
                        "name": "price0CumulativeLast",
                        "type": "uint256",
                        "value": {
                            "current": "8781936041311790778937982052155968049208",
                            "prev": "8732047421609156630095626589233001196376",
                            "typeTag": 1
                        }
                    },
                    {
                        "name": "price1CumulativeLast",
                        "type": "uint256",
                        "value": {
                            "current": "126864060853806152184083298681673116",
                            "prev": "124062613061592941558078023374311700",
                            "typeTag": 1
                        }
                    }
                ]
            }
        ]
    }
}