{
    "balance_change": {
        "balanceChanges": [
            {
                "account": "0x2a719b16345cb2212eb3bbfc5d88d2b845923a81",
                "assets": [
                    {
                        "address": "0xeeeeeeeeeeeeeeeeeeeeeeeeeeeeeeeeeeeeeeee",
                        "amount": "0.005",
                        "iconUrl": "https://assets.blocksec.com/image/1663669189317-3.png",
                        "isERC1155": false,
                        "isERC721": false,
                        "sign": false,
                        "value": ""
                    }
                ]
            },
            {
                "account": "0xde725d5d8ba8d45a66e2196aa4423f26505c39ac",
                "assets": [
                    {
                        "address": "0xeeeeeeeeeeeeeeeeeeeeeeeeeeeeeeeeeeeeeeee",
                        "amount": "0.005",
                        "iconUrl": "https://assets.blocksec.com/image/1663669189317-3.png",
                        "isERC1155": false,
                        "isERC721": false,
                        "sign": true,
                        "value": ""
                    }
                ]
            }
        ]
    },
    "profile": {
        "basic_info": {
            "baseFee": "",
            "blockNumber": 8344250,
            "callData": "0xe492814f00000000000000000000000099d56c14d2f171021da71a49a840f3c228a5a7d9",
            "debugEnable": true,
            "errorInfo": "",
            "eventCount": 1,
            "feeRecipient": "0x52bc44d5378309ee2abf1539bf71de1b7d7be3b5",
            "formatValue": "0.005",
            "gasLimit": 110919,
            "gasPrice": "1",
            "gasUsed": 110919,
            "intTxnCount": 0,
            "internalRevert": false,
            "internalRevertMessage": "",
            "isContractCreation": false,
            "isFlashloan": false,
            "maxFee": "",
            "nonce": 482,
            "overwritedBlockNumber": -1,
            "priorityFee": "",
            "receiver": "0xde725d5d8ba8d45a66e2196aa4423f26505c39ac",
            "revertMessage": "",
            "sender": "0x2a719b16345cb2212eb3bbfc5d88d2b845923a81",
            "simulationEnable": true,
            "sourceTxnHash": "0xc2c0792a0b997a36752726cef367bde1fa0126eb9e39683653f042ea51db7f3e",
            "status": true,
            "timestamp": "2019-08-13T20:14:12Z",
            "transactionFee": "0.000110919",
            "txnHash": "0xc2c0792a0b997a36752726cef367bde1fa0126eb9e39683653f042ea51db7f3e",
            "txnIndex": 10,
            "type": 0,
            "value": "5000000000000000"
        },
        "fund_flow": [
            {
                "amount": "0.005",
                "from": "0x2a719b16345cb2212eb3bbfc5d88d2b845923a81",
                "id": 1,
                "isERC1155": false,
                "isERC721": false,
                "isReverted": false,
                "order": 1,
                "to": "0xde725d5d8ba8d45a66e2196aa4423f26505c39ac",
                "token": "0xeeeeeeeeeeeeeeeeeeeeeeeeeeeeeeeeeeeeeeee"
            }
        ],
        "token_infos": [
            {
                "address": "0xc02aaa39b223fe8d0a0e5c4f27ead9083c756cc2",
                "decimals": 18
            },
            {
                "address": "0xeeeeeeeeeeeeeeeeeeeeeeeeeeeeeeeeeeeeeeee",
                "decimals": 18
            }
        ]
    },
    "address_label": {
        "labels": [
            {
                "address": "0xeeeeeeeeeeeeeeeeeeeeeeeeeeeeeeeeeeeeeeee",
                "label": "Ether"
            },
            {
                "address": "0xde725d5d8ba8d45a66e2196aa4423f26505c39ac",
                "label": "EtherWin"
            },
            {
                "address": "0x0000000000000000000000000000000000000001",
                "label": "Precompiled"
            },
            {
                "address": "0x0000000000000000000000000000000000000002",
                "label": "Precompiled"
            },
            {
                "address": "0x0000000000000000000000000000000000000003",
                "label": "Precompiled"
            },
            {
                "address": "0x0000000000000000000000000000000000000004",
                "label": "Precompiled"
            }
        ]
    },
    "trace": {
        "accountLabels": null,
        "dataMap": {
            "-1": {
                "invocation": {
                    "address": "0x2a719b16345cb2212eb3bbfc5d88d2b845923a81",
                    "callData": "",
                    "decodedMethod": null,
                    "errorInfo": "",
                    "fromAddress": "",
                    "gasUsed": 0,
                    "id": -1,
                    "methodDecoded": false,
                    "operation": "",
                    "output": "",
                    "revert": false,
                    "revertMessage": "",
                    "selector": "",
                    "status": false,
                    "value": ""
                },
                "nodeType": 0
            },
            "0": {
                "invocation": {
                    "address": "0xde725d5d8ba8d45a66e2196aa4423f26505c39ac",
                    "callData": "0x00000000000000000000000099d56c14d2f171021da71a49a840f3c228a5a7d9",
                    "decodedMethod": {
                        "callParams": [
                            {
                                "name": "_ref",
                                "type": "address",
                                "value": "0x99d56c14d2f171021da71a49a840f3c228a5a7d9"
                            }
                        ],
                        "constructorArguments": "",
                        "name": "play",
                        "returnParams": [],
                        "signature": "play(address)"
                    },
                    "errorInfo": "",
                    "fromAddress": "0x2a719b16345cb2212eb3bbfc5d88d2b845923a81",
                    "gasUsed": 110919,
                    "id": 0,
                    "methodDecoded": true,
                    "operation": "CALL",
                    "output": "",
                    "revert": false,
                    "revertMessage": "",
                    "selector": "0xe492814f",
                    "status": true,
                    "value": "0.005"
                },
                "nodeType": 0
            },
            "1": {
                "event": {
                    "contract": "0xde725d5d8ba8d45a66e2196aa4423f26505c39ac",
                    "decodedLog": {
                        "name": "NewTicket",
                        "params": [
                            {
                                "name": "owner",
                                "type": "address",
                                "value": "0x2a719b16345cb2212eb3bbfc5d88d2b845923a81"
                            },
                            {
                                "name": "blockNum",
                                "type": "uint256",
                                "value": "8,344,250"
                            },
                            {
                                "name": "referrer",
                                "type": "address",
                                "value": "0x99d56c14d2f171021da71a49a840f3c228a5a7d9"
                            },
                            {
                                "name": "value",
                                "type": "uint256",
                                "value": "5,000,000,000,000,000"
                            }
                        ],
                        "signature": "NewTicket(address,uint256,address,uint256)"
                    },
                    "id": 1,
                    "logData": "0x0000000000000000000000000000000000000000000000000011c37937e08000",
                    "logDecoded": true,
                    "operation": "EVENT",
                    "revert": false,
                    "status": true,
                    "topics": [
                        "0x5452a85b225ef4259cf69950e73ab227ccafb86408af83a1dafbee4abd7f5a60",
                        "0x0000000000000000000000002a719b16345cb2212eb3bbfc5d88d2b845923a81",
                        "0x00000000000000000000000000000000000000000000000000000000007f52ba",
                        "0x00000000000000000000000099d56c14d2f171021da71a49a840f3c228a5a7d9"
                    ]
                },
                "nodeType": 1
            }
        },
        "gasFlame": [
            {
                "children": [
                    {
                        "children": [
                            {
                                "children": [],
                                "depth": 0,
                                "name": "Initial Gas",
                                "value": 22680
                            },
                            {
                                "children": [],
                                "depth": 0,
                                "name": "Executed Gas",
                                "value": 88239
                            }
                        ],
                        "depth": -1,
                        "name": "Actual Gas Used",
                        "value": 110919
                    },
                    {
                        "children": [],
                        "depth": -1,
                        "name": "Refunded Gas",
                        "value": 0
                    }
                ],
                "depth": -2,
                "name": "Total Gas",
                "value": 110919
            }
        ],
        "isConfirmed": true,
        "mainTrace": [
            {
                "children": [
                    {
                        "children": [
                            {
                                "children": [],
                                "depth": 1,
                                "id": 1,
                                "order": 1
                            }
                        ],
                        "depth": 0,
                        "id": 0,
                        "order": 0
                    }
                ],
                "depth": -1,
                "id": -1,
                "order": -1
            }
        ],
        "mainTraceNodeCount": 2,
        "parentIdMap": {
            "0": -1,
            "1": 0
        },
        "tidyTrace": [
            {
                "children": [
                    {
                        "children": [
                            {
                                "children": [],
                                "depth": 1,
                                "id": 1,
                                "order": 1
                            }
                        ],
                        "depth": 0,
                        "id": 0,
                        "order": 0
                    }
                ],
                "depth": -1,
                "id": -1,
                "order": -1
            }
        ],
        "tidyTraceNodeCount": 2
    },
    "state_change": {
        "stateChanges": [
            {
                "address": "0xde725d5d8ba8d45a66e2196aa4423f26505c39ac",
                "erc": "",
                "slots": [
                    {
                        "current": "0x000000000000000000000000000000000000000000000000116e73df89380c00",
                        "key": "0x0000000000000000000000000000000000000000000000000000000000000009",
                        "prev": "0x000000000000000000000000000000000000000000000000116d2fdd9e848800"
                    },
                    {
                        "current": "0x0000000000000000000000000000000000000000000000000011c37937e08000",
                        "key": "0x71f615ce96f455ac6a743e27039fd3168a87add0a46b4d0b32b9cc0c140026fb",
                        "prev": "0x0000000000000000000000000000000000000000000000000000000000000000"
                    },
                    {
                        "current": "0x0000000000000000000000000000000000000000000000000011c37937e08000",
                        "key": "0x3ca35ccd13d450406b710aa690a7a7d8aadcc2cbfad557c3c941107585670907",
                        "prev": "0x0000000000000000000000000000000000000000000000000000000000000000"
                    },
                    {
                        "current": "0x000000000000000000000000000000000000000000000001b56d88fff8500000",
                        "key": "0x0000000000000000000000000000000000000000000000000000000000000012",
                        "prev": "0x000000000000000000000000000000000000000000000001b55bc586c06f8000"
                    },
                    {
                        "current": "0x000000000000000000000000000000000000000000000001b56d88fff8500000",
                        "key": "0xa374555fb0cd69573b8513bad29ee3a7b139fa513d1ae0e47b234a583f81bd98",
                        "prev": "0x0000000000000000000000000000000000000000000000000000000000000000"
                    },
                    {
                        "current": "0x000000000000000000000000000000000000000000000000018bf32f3c37a000",
                        "key": "0xaac5d0a3a77e63b9b95f8f9a48f5a2e2b312397bdfcd33c291bc764624a2a0f3",
                        "prev": "0x000000000000000000000000000000000000000000000000018bc5b5b3fa8000"
                    }
                ],
                "storageVariables": [
                    {
                        "name": "ownersWeis",
                        "type": "uint256",
                        "value": {
                            "current": "1256068750000000000",
                            "prev": "1255712500000000000",
                            "typeTag": 1
                        }
                    },
                    {
                        "name": "tickets",
                        "type": "mapping(address => mapping(uint256 => struct EtherWin.Ticket))",
                        "value": {
                            "pairs": [
                                {
                                    "key": "0x2a719b16345cb2212eb3bbfc5d88d2b845923a81",
                                    "value": {
                                        "pairs": [
                                            {
                                                "key": "8344250",
                                                "value": {
                                                    "fields": [
                                                        {
                                                            "name": "value",
                                                            "type": "uint256",
                                                            "value": {
                                                                "current": "5000000000000000",
                                                                "prev": "0",
                                                                "typeTag": 1
                                                            }
                                                        }
                                                    ],
                                                    "typeTag": 3
                                                }
                                            }
                                        ],
                                        "typeTag": 4
                                    }
                                }
                            ],
                            "typeTag": 4
                        }
                    },
                    {
                        "name": "blocks",
                        "type": "mapping(uint256 => uint256)",
                        "value": {
                            "pairs": [
                                {
                                    "key": "8344250",
                                    "value": {
                                        "current": "5000000000000000",
                                        "prev": "0",
                                        "typeTag": 1
                                    }
                                }
                            ],
                            "typeTag": 4
                        }
                    },
                    {
                        "name": "allTicketsPrice",
                        "type": "uint256",
                        "value": {
                            "current": "31520000000000000000",
                            "prev": "31515000000000000000",
                            "typeTag": 1
                        }
                    },
                    {
                        "name": "allTicketsForBlock",
                        "type": "mapping(uint256 => uint256)",
                        "value": {
                            "pairs": [
                                {
                                    "key": "8344250",
                                    "value": {
                                        "current": "31520000000000000000",
                                        "prev": "0",
                                        "typeTag": 1
                                    }
                                }
                            ],
                            "typeTag": 4
                        }
                    },
                    {
                        "name": "refs",
                        "type": "mapping(address => uint256)",
                        "value": {
                            "pairs": [
                                {
                                    "key": "0x99d56c14d2f171021da71a49a840f3c228a5a7d9",
                                    "value": {
                                        "current": "111450000000000000",
                                        "prev": "111400000000000000",
                                        "typeTag": 1
                                    }
                                }
                            ],
                            "typeTag": 4
                        }
                    }
                ]
            }
        ]
    }
}