{
    "balance_change": {
        "balanceChanges": []
    },
    "profile": {
        "basic_info": {
            "baseFee": "",
            "blockNumber": 9216354,
            "callData": "0x1801fbe500c0e8a77028480f2500000000000000000000000000000000000000e185c50000000000001193e87df9d0860b29c4e330f19f28ca5421b32f4121a73c201651",
            "debugEnable": true,
            "errorInfo": "out of gas",
            "eventCount": 1,
            "feeRecipient": "0x652d38d814bcdf3e0f750a0faf272ee96c1f67ed",
            "formatValue": "0",
            "gasLimit": 154000,
            "gasPrice": "1",
            "gasUsed": 154000,
            "intTxnCount": 0,
            "internalRevert": false,
            "internalRevertMessage": "",
            "isContractCreation": false,
            "isFlashloan": false,
            "maxFee": "",
            "nonce": 65,
            "overwritedBlockNumber": -1,
            "priorityFee": "",
            "receiver": "0x5556d6a283fd18d71fd0c8b50d1211c5f842dbbc",
            "revertMessage": "",
            "sender": "0x741b5529db263c1b887df0a5a3e92dff20ebb687",
            "simulationEnable": true,
            "sourceTxnHash": "0xc2a3b1c63b7ae9b6ac5a59a7da8c44aa87daf743f42110084f889de782780d5c",
            "status": false,
            "timestamp": "2020-01-04T21:28:41Z",
            "transactionFee": "0.000154",
            "txnHash": "0xc2a3b1c63b7ae9b6ac5a59a7da8c44aa87daf743f42110084f889de782780d5c",
            "txnIndex": 64,
            "type": 0,
            "value": "0"
        },
        "fund_flow": [],
        "token_infos": [
            {
                "address": "0xc02aaa39b223fe8d0a0e5c4f27ead9083c756cc2",
                "decimals": 18
            },
            {
                "address": "0xeeeeeeeeeeeeeeeeeeeeeeeeeeeeeeeeeeeeeeee",
                "decimals": 18
            }
        ]
    },
    "address_label": {
        "labels": [
            {
                "address": "0xeeeeeeeeeeeeeeeeeeeeeeeeeeeeeeeeeeeeeeee",
                "label": "Ether"
            },
            {
                "address": "0x5556d6a283fd18d71fd0c8b50d1211c5f842dbbc",
                "label": "ButtCoin v2.0 (0xBUTT)"
            },
            {
                "address": "0x0000000000000000000000000000000000000001",
                "label": "Precompiled"
            },
            {
                "address": "0x0000000000000000000000000000000000000002",
                "label": "Precompiled"
            },
            {
                "address": "0x0000000000000000000000000000000000000003",
                "label": "Precompiled"
            },
            {
                "address": "0x0000000000000000000000000000000000000004",
                "label": "Precompiled"
            }
        ]
    },
    "trace": {
        "accountLabels": null,
        "dataMap": {
            "-1": {
                "invocation": {
                    "address": "0x741b5529db263c1b887df0a5a3e92dff20ebb687",
                    "callData": "",
                    "decodedMethod": null,
                    "errorInfo": "",
                    "fromAddress": "",
                    "gasUsed": 0,
                    "id": -1,
                    "methodDecoded": false,
                    "operation": "",
                    "output": "",
                    "revert": false,
                    "revertMessage": "",
                    "selector": "",
                    "status": false,
                    "value": ""
                },
                "nodeType": 0
            },
            "0": {
                "invocation": {
                    "address": "0x5556d6a283fd18d71fd0c8b50d1211c5f842dbbc",
                    "callData": "0x00c0e8a77028480f2500000000000000000000000000000000000000e185c50000000000001193e87df9d0860b29c4e330f19f28ca5421b32f4121a73c201651",
                    "decodedMethod": {
                        "callParams": [
                            {
                                "name": "nonce",
                                "type": "uint256",
                                "value": "340,840,355,712,546,123,290,090,701,775,233,632,574,461,339,546,219,854,286,764,288,068,467,148,032"
                            },
                            {
                                "name": "challenge_digest",
                                "type": "bytes32",
                                "value": "0x00000000001193e87df9d0860b29c4e330f19f28ca5421b32f4121a73c201651"
                            }
                        ],
                        "constructorArguments": "",
                        "name": "mint",
                        "returnParams": [],
                        "signature": "mint(uint256,bytes32)"
                    },
                    "errorInfo": "out of gas",
                    "fromAddress": "0x741b5529db263c1b887df0a5a3e92dff20ebb687",
                    "gasUsed": 154000,
                    "id": 0,
                    "methodDecoded": true,
                    "operation": "CALL",
                    "output": "",
                    "revert": true,
                    "revertMessage": "",
                    "selector": "0x1801fbe5",
                    "status": false,
                    "value": "0"
                },
                "nodeType": 0
            },
            "1": {
                "event": {
                    "contract": "0x5556d6a283fd18d71fd0c8b50d1211c5f842dbbc",
                    "decodedLog": {
                        "name": "Mint",
                        "params": [
                            {
                                "name": "from",
                                "type": "address",
                                "value": "0x741b5529db263c1b887df0a5a3e92dff20ebb687"
                            },
                            {
                                "name": "reward_amount",
                                "type": "uint256",
                                "value": "19,516,553,980,888"
                            },
                            {
                                "name": "epochCount",
                                "type": "uint256",
                                "value": "51"
                            },
                            {
                                "name": "newChallengeNumber",
                                "type": "bytes32",
                                "value": "0xda21d661cbfbd8448f7a9df7dc403fc00179a45ef09cdfe2cfdc432ccf16edb0"
                            }
                        ],
                        "signature": "Mint(address,uint256,uint256,bytes32)"
                    },
                    "id": 1,
                    "logData": "0x000000000000000000000000000000000000000000000000000011c00d446bd80000000000000000000000000000000000000000000000000000000000000033da21d661cbfbd8448f7a9df7dc403fc00179a45ef09cdfe2cfdc432ccf16edb0",
                    "logDecoded": true,
                    "operation": "EVENT",
                    "revert": true,
                    "status": false,
                    "topics": [
                        "0xcf6fbb9dcea7d07263ab4f5c3a92f53af33dffc421d9d121e1c74b307e68189d",
                        "0x000000000000000000000000741b5529db263c1b887df0a5a3e92dff20ebb687"
                    ]
                },
                "nodeType": 1
            }
        },
        "gasFlame": [
            {
                "children": [
                    {
                        "children": [
                            {
                                "children": [],
                                "depth": 0,
                                "name": "Initial Gas",
                                "value": 21776
                            },
                            {
                                "children": [],
                                "depth": 0,
                                "name": "Executed Gas",
                                "value": 132224
                            }
                        ],
                        "depth": -1,
                        "name": "Actual Gas Used",
                        "value": 154000
                    },
                    {
                        "children": [],
                        "depth": -1,
                        "name": "Refunded Gas",
                        "value": 0
                    }
                ],
                "depth": -2,
                "name": "Total Gas",
                "value": 154000
            }
        ],
        "isConfirmed": true,
        "mainTrace": [
            {
                "children": [
                    {
                        "children": [
                            {
                                "children": [],
                                "depth": 1,
                                "id": 1,
                                "order": 1
                            }
                        ],
                        "depth": 0,
                        "id": 0,
                        "order": 0
                    }
                ],
                "depth": -1,
                "id": -1,
                "order": -1
            }
        ],
        "mainTraceNodeCount": 2,
        "parentIdMap": {
            "0": -1,
            "1": 0
        },
        "tidyTrace": [
            {
                "children": [
                    {
                        "children": [
                            {
                                "children": [],
                                "depth": 1,
                                "id": 1,
                                "order": 1
                            }
                        ],
                        "depth": 0,
                        "id": 0,
                        "order": 0
                    }
                ],
                "depth": -1,
                "id": -1,
                "order": -1
            }
        ],
        "tidyTraceNodeCount": 2
    },
    "state_change": {
        "stateChanges": []
    }
}