{
    "balance_change": {
        "balanceChanges": [
            {
                "account": "0x078394713cbef8e1f3eb52bf51348087ea0e3a5e",
                "assets": [
                    {
                        "address": "0xb528edbef013aff855ac3c50b381f253af13b997",
                        "amount": "286.828809",
                        "iconUrl": "",
                        "isERC1155": false,
                        "isERC721": false,
                        "sign": true,
                        "value": "146.3974241135999899"
                    }
                ]
            },
            {
                "account": "0x38913051e01d4f6910cb66bb9ac3cb77d746ad81",
                "assets": [
                    {
                        "address": "0xb528edbef013aff855ac3c50b381f253af13b997",
                        "amount": "286.828809",
                        "iconUrl": "",
                        "isERC1155": false,
                        "isERC721": false,
                        "sign": false,
                        "value": "146.3974241135999899"
                    }
                ]
            }
        ]
    },
    "profile": {
        "basic_info": {
            "baseFee": "2.826478421",
            "blockNumber": 20224888,
            "callData": "0xe7b2509000000000000000000000000000000000000000000000000000000000000000010000000000000000000000000000000000000000000000000000000000000008",
            "debugEnable": true,
            "errorInfo": "",
            "eventCount": 2,
            "feeRecipient": "0x95222290dd7278aa3ddd389cc1e1d165cc4bafe5",
            "formatValue": "0",
            "gasLimit": 138443,
            "gasPrice": "3.810023981",
            "gasUsed": 86926,
            "intTxnCount": 1,
            "internalRevert": false,
            "internalRevertMessage": "",
            "isContractCreation": false,
            "isFlashloan": false,
            "maxFee": "5",
            "nonce": 114,
            "overwritedBlockNumber": -1,
            "priorityFee": "0.98354556",
            "receiver": "0x38913051e01d4f6910cb66bb9ac3cb77d746ad81",
            "revertMessage": "",
            "sender": "0x078394713cbef8e1f3eb52bf51348087ea0e3a5e",
            "simulationEnable": true,
            "sourceTxnHash": "0xc25f5847d167e2144259d1411e457214c83c65a6d43f40f60e1cb53a53732100",
            "status": true,
            "timestamp": "2024-07-03T08:47:47Z",
            "transactionFee": "0.000331190144572406",
            "txnHash": "0xc25f5847d167e2144259d1411e457214c83c65a6d43f40f60e1cb53a53732100",
            "txnIndex": 7,
            "type": 2,
            "value": "0"
        },
        "fund_flow": [
            {
                "amount": "286.828809",
                "from": "0x38913051e01d4f6910cb66bb9ac3cb77d746ad81",
                "id": 1,
                "isERC1155": false,
                "isERC721": false,
                "isReverted": false,
                "order": 1,
                "to": "0x078394713cbef8e1f3eb52bf51348087ea0e3a5e",
                "token": "0xb528edbef013aff855ac3c50b381f253af13b997"
            }
        ],
        "token_infos": [
            {
                "address": "0xb528edbef013aff855ac3c50b381f253af13b997",
                "decimals": 18
            },
            {
                "address": "0xc02aaa39b223fe8d0a0e5c4f27ead9083c756cc2",
                "decimals": 18
            },
            {
                "address": "0xeeeeeeeeeeeeeeeeeeeeeeeeeeeeeeeeeeeeeeee",
                "decimals": 18
            }
        ]
    },
    "address_label": {
        "labels": [
            {
                "address": "0xeeeeeeeeeeeeeeeeeeeeeeeeeeeeeeeeeeeeeeee",
                "label": "Ether"
            },
            {
                "address": "0xb528edbef013aff855ac3c50b381f253af13b997",
                "label": "Aevo: AEVO Token"
            },
            {
                "address": "0x38913051e01d4f6910cb66bb9ac3cb77d746ad81",
                "label": "Aevo: Staking"
            },
            {
                "address": "0x0000000000000000000000000000000000000001",
                "label": "Precompiled"
            },
            {
                "address": "0x0000000000000000000000000000000000000002",
                "label": "Precompiled"
            },
            {
                "address": "0x0000000000000000000000000000000000000003",
                "label": "Precompiled"
            },
            {
                "address": "0x0000000000000000000000000000000000000004",
                "label": "Precompiled"
            }
        ]
    },
    "trace": {
        "accountLabels": null,
        "dataMap": {
            "-1": {
                "invocation": {
                    "address": "0x078394713cbef8e1f3eb52bf51348087ea0e3a5e",
                    "callData": "",
                    "decodedMethod": null,
                    "errorInfo": "",
                    "fromAddress": "",
                    "gasUsed": 0,
                    "id": -1,
                    "methodDecoded": false,
                    "operation": "",
                    "output": "",
                    "revert": false,
                    "revertMessage": "",
                    "selector": "",
                    "status": false,
                    "value": ""
                },
                "nodeType": 0
            },
            "0": {
                "invocation": {
                    "address": "0x38913051e01d4f6910cb66bb9ac3cb77d746ad81",
                    "callData": "0x00000000000000000000000000000000000000000000000000000000000000010000000000000000000000000000000000000000000000000000000000000008",
                    "decodedMethod": {
                        "callParams": [
                            {
                                "name": "_start",
                                "type": "uint16",
                                "value": "1"
                            },
                            {
                                "name": "_end",
                                "type": "uint16",
                                "value": "8"
                            }
                        ],
                        "constructorArguments": "",
                        "name": "unstake",
                        "returnParams": [
                            {
                                "name": "",
                                "type": "uint256",
                                "value": "286,828,809,000,000,000,000"
                            }
                        ],
                        "signature": "unstake(uint16,uint16)"
                    },
                    "errorInfo": "",
                    "fromAddress": "0x078394713cbef8e1f3eb52bf51348087ea0e3a5e",
                    "gasUsed": 86926,
                    "id": 0,
                    "methodDecoded": true,
                    "operation": "CALL",
                    "output": "0x00000000000000000000000000000000000000000000000f8c8ca219f15d9000",
                    "revert": false,
                    "revertMessage": "",
                    "selector": "0xe7b25090",
                    "status": true,
                    "value": "0"
                },
                "nodeType": 0
            },
            "1": {
                "invocation": {
                    "address": "0xb528edbef013aff855ac3c50b381f253af13b997",
                    "callData": "0x000000000000000000000000078394713cbef8e1f3eb52bf51348087ea0e3a5e00000000000000000000000000000000000000000000000f8c8ca219f15d9000",
                    "decodedMethod": {
                        "callParams": [
                            {
                                "name": "to",
                                "type": "address",
                                "value": "0x078394713cbef8e1f3eb52bf51348087ea0e3a5e"
                            },
                            {
                                "decimalAvailable": true,
                                "name": "amount",
                                "type": "uint256",
                                "value": "286,828,809,000,000,000,000"
                            }
                        ],
                        "constructorArguments": "",
                        "name": "transfer",
                        "returnParams": [
                            {
                                "name": "",
                                "type": "bool",
                                "value": true
                            }
                        ],
                        "signature": "transfer(address,uint256)"
                    },
                    "errorInfo": "",
                    "fromAddress": "0x38913051e01d4f6910cb66bb9ac3cb77d746ad81",
                    "gasUsed": 29640,
                    "id": 1,
                    "methodDecoded": true,
                    "operation": "CALL",
                    "output": "0x0000000000000000000000000000000000000000000000000000000000000001",
                    "revert": false,
                    "revertMessage": "",
                    "selector": "0xa9059cbb",
                    "status": true,
                    "value": "0"
                },
                "nodeType": 0
            },
            "2": {
                "event": {
                    "contract": "0xb528edbef013aff855ac3c50b381f253af13b997",
                    "decodedLog": {
                        "name": "Transfer",
                        "params": [
                            {
                                "name": "from",
                                "type": "address",
                                "value": "0x38913051e01d4f6910cb66bb9ac3cb77d746ad81"
                            },
                            {
                                "name": "to",
                                "type": "address",
                                "value": "0x078394713cbef8e1f3eb52bf51348087ea0e3a5e"
                            },
                            {
                                "decimalAvailable": true,
                                "name": "amount",
                                "type": "uint256",
                                "value": "286,828,809,000,000,000,000"
                            }
                        ],
                        "signature": "Transfer(address,address,uint256)"
                    },
                    "id": 2,
                    "logData": "0x00000000000000000000000000000000000000000000000f8c8ca219f15d9000",
                    "logDecoded": true,
                    "operation": "EVENT",
                    "revert": false,
                    "status": true,
                    "topics": [
                        "0xddf252ad1be2c89b69c2b068fc378daa952ba7f163c4a11628f55a4df523b3ef",
                        "0x00000000000000000000000038913051e01d4f6910cb66bb9ac3cb77d746ad81",
                        "0x000000000000000000000000078394713cbef8e1f3eb52bf51348087ea0e3a5e"
                    ]
                },
                "nodeType": 1
            },
            "3": {
                "event": {
                    "contract": "0x38913051e01d4f6910cb66bb9ac3cb77d746ad81",
                    "decodedLog": {
                        "name": "Unstake",
                        "params": [
                            {
                                "name": "recipient",
                                "type": "address",
                                "value": "0x078394713cbef8e1f3eb52bf51348087ea0e3a5e"
                            },
                            {
                                "name": "startEpoch",
                                "type": "uint16",
                                "value": "1"
                            },
                            {
                                "name": "endEpoch",
                                "type": "uint16",
                                "value": "8"
                            },
                            {
                                "name": "amount",
                                "type": "uint256",
                                "value": "286,828,809,000,000,000,000"
                            }
                        ],
                        "signature": "Unstake(address,uint16,uint16,uint256)"
                    },
                    "id": 3,
                    "logData": "0x00000000000000000000000000000000000000000000000f8c8ca219f15d9000",
                    "logDecoded": true,
                    "operation": "EVENT",
                    "revert": false,
                    "status": true,
                    "topics": [
                        "0x5464cfcfbfe4df8b5921df805eda7849bc1fc09d9dc0f621c43074680de3aa09",
                        "0x000000000000000000000000078394713cbef8e1f3eb52bf51348087ea0e3a5e",
                        "0x0000000000000000000000000000000000000000000000000000000000000001",
                        "0x0000000000000000000000000000000000000000000000000000000000000008"
                    ]
                },
                "nodeType": 1
            }
        },
        "gasFlame": [
            {
                "children": [
                    {
                        "children": [
                            {
                                "children": [],
                                "depth": 0,
                                "name": "Initial Gas",
                                "value": 21344
                            },
                            {
                                "children": [
                                    {
                                        "children": [],
                                        "depth": 1,
                                        "name": "transfer",
                                        "value": 29640
                                    }
                                ],
                                "depth": 0,
                                "name": "Executed Gas",
                                "value": 70382
                            }
                        ],
                        "depth": -1,
                        "name": "Actual Gas Used",
                        "value": 86926
                    },
                    {
                        "children": [],
                        "depth": -1,
                        "name": "Refunded Gas",
                        "value": 4800
                    }
                ],
                "depth": -2,
                "name": "Total Gas",
                "value": 91726
            }
        ],
        "isConfirmed": true,
        "mainTrace": [
            {
                "children": [
                    {
                        "children": [
                            {
                                "children": [
                                    {
                                        "children": [],
                                        "depth": 2,
                                        "id": 2,
                                        "order": 2
                                    }
                                ],
                                "depth": 1,
                                "id": 1,
                                "order": 1
                            },
                            {
                                "children": [],
                                "depth": 1,
                                "id": 3,
                                "order": 3
                            }
                        ],
                        "depth": 0,
                        "id": 0,
                        "order": 0
                    }
                ],
                "depth": -1,
                "id": -1,
                "order": -1
            }
        ],
        "mainTraceNodeCount": 4,
        "parentIdMap": {
            "0": -1,
            "1": 0,
            "2": 1,
            "3": 0
        },
        "tidyTrace": [
            {
                "children": [
                    {
                        "children": [
                            {
                                "children": [
                                    {
                                        "children": [],
                                        "depth": 2,
                                        "id": 2,
                                        "order": 2
                                    }
                                ],
                                "depth": 1,
                                "id": 1,
                                "order": 1
                            },
                            {
                                "children": [],
                                "depth": 1,
                                "id": 3,
                                "order": 3
                            }
                        ],
                        "depth": 0,
                        "id": 0,
                        "order": 0
                    }
                ],
                "depth": -1,
                "id": -1,
                "order": -1
            }
        ],
        "tidyTraceNodeCount": 4
    },
    "state_change": {
        "stateChanges": [
            {
                "address": "0x38913051e01d4f6910cb66bb9ac3cb77d746ad81",
                "erc": "",
                "slots": [
                    {
                        "current": "0x0000000000000000000000000000000000000000000000000000000000000000",
                        "key": "0x65987a72ec15c2c44e5f50792e47dd14ad0428ac7f7fae1e4357c75f08b6fb41",
                        "prev": "0x00000000000000000000000000000000000000000000000f8c8ca219f15d9000"
                    }
                ],
                "storageVariables": [
                    {
                        "name": "balance",
                        "type": "mapping(address => mapping(uint16 => uint256))",
                        "value": {
                            "pairs": [
                                {
                                    "key": "0x078394713cbef8e1f3eb52bf51348087ea0e3a5e",
                                    "value": {
                                        "pairs": [
                                            {
                                                "key": "1",
                                                "value": {
                                                    "current": "0",
                                                    "prev": "286828809000000000000",
                                                    "typeTag": 1
                                                }
                                            }
                                        ],
                                        "typeTag": 4
                                    }
                                }
                            ],
                            "typeTag": 4
                        }
                    }
                ]
            },
            {
                "address": "0xb528edbef013aff855ac3c50b381f253af13b997",
                "erc": "ERC-20",
                "slots": [
                    {
                        "current": "0x000000000000000000000000000000000000000000a597d94192a7751cb75cf5",
                        "key": "0xd7d2af83de3f4c9a5c4aaf61c917cf2d1b11bc84d0eabf43385f9949c0f91c8e",
                        "prev": "0x000000000000000000000000000000000000000000a597e8ce1f498f0e14ecf5"
                    },
                    {
                        "current": "0x00000000000000000000000000000000000000000000000f8c8ca219f15d9000",
                        "key": "0x7bf58a24f3b59b5eaa71977982441f36faf832f9ca7d17b40f28d72f8008449f",
                        "prev": "0x0000000000000000000000000000000000000000000000000000000000000000"
                    }
                ],
                "storageVariables": [
                    {
                        "name": "balanceOf",
                        "type": "mapping(address => uint256)",
                        "value": {
                            "pairs": [
                                {
                                    "key": "0x078394713cbef8e1f3eb52bf51348087ea0e3a5e",
                                    "value": {
                                        "current": "286828809000000000000",
                                        "prev": "0",
                                        "typeTag": 1
                                    }
                                },
                                {
                                    "key": "0x38913051e01d4f6910cb66bb9ac3cb77d746ad81",
                                    "value": {
                                        "current": "200189845243814205726350581",
                                        "prev": "200190132072623205726350581",
                                        "typeTag": 1
                                    }
                                }
                            ],
                            "typeTag": 4
                        }
                    }
                ]
            }
        ]
    }
}