{
    "balance_change": {
        "balanceChanges": [
            {
                "account": "0xd6e8088c8ea62444c4747be3382f1c23f7d33c4a",
                "assets": [
                    {
                        "address": "0xeeeeeeeeeeeeeeeeeeeeeeeeeeeeeeeeeeeeeeee",
                        "amount": "0.048099924766530841",
                        "iconUrl": "https://assets.blocksec.com/image/1663669189317-3.png",
                        "isERC1155": false,
                        "isERC721": false,
                        "sign": false,
                        "value": "91.16763541056260525"
                    }
                ]
            },
            {
                "account": "0x99a2770b5c9337f44a00a7677471373c89bf0f36",
                "assets": [
                    {
                        "address": "0xeeeeeeeeeeeeeeeeeeeeeeeeeeeeeeeeeeeeeeee",
                        "amount": "0.048099924766530841",
                        "iconUrl": "https://assets.blocksec.com/image/1663669189317-3.png",
                        "isERC1155": false,
                        "isERC721": false,
                        "sign": true,
                        "value": "91.16763541056260525"
                    }
                ]
            }
        ]
    },
    "profile": {
        "basic_info": {
            "baseFee": "51.338096631",
            "blockNumber": 17161460,
            "callData": "0x7649b95700000000000000000000000000000000000000000000000000000000000994f1",
            "debugEnable": true,
            "errorInfo": "",
            "eventCount": 1,
            "feeRecipient": "0x690b9a9e9aa1c9db991c7721a92d351db4fac990",
            "formatValue": "0.048100000000000004",
            "gasLimit": 149586,
            "gasPrice": "51.432096631",
            "gasUsed": 142935,
            "intTxnCount": 5,
            "internalRevert": false,
            "internalRevertMessage": "",
            "isContractCreation": false,
            "isFlashloan": false,
            "maxFee": "61.548095702",
            "nonce": 0,
            "overwritedBlockNumber": -1,
            "priorityFee": "0.094",
            "receiver": "0x17b1e028a1837ff15ba9e7140add0d13790092a3",
            "revertMessage": "",
            "sender": "0xd6e8088c8ea62444c4747be3382f1c23f7d33c4a",
            "simulationEnable": true,
            "sourceTxnHash": "0xc23bb01da074524cd14477422838f25c328a85baf576d832ac34ca2bc99e5b01",
            "status": true,
            "timestamp": "2023-04-30T21:12:59Z",
            "transactionFee": "0.007351446731951985",
            "txnHash": "0xc23bb01da074524cd14477422838f25c328a85baf576d832ac34ca2bc99e5b01",
            "txnIndex": 120,
            "type": 2,
            "value": "48100000000000004"
        },
        "fund_flow": [
            {
                "amount": "0.048100000000000004",
                "from": "0xd6e8088c8ea62444c4747be3382f1c23f7d33c4a",
                "id": 1,
                "isERC1155": false,
                "isERC721": false,
                "isReverted": false,
                "order": 1,
                "to": "0x17b1e028a1837ff15ba9e7140add0d13790092a3",
                "token": "0xeeeeeeeeeeeeeeeeeeeeeeeeeeeeeeeeeeeeeeee"
            },
            {
                "amount": "0.048099924766530841",
                "from": "0x17b1e028a1837ff15ba9e7140add0d13790092a3",
                "id": 2,
                "isERC1155": false,
                "isERC721": false,
                "isReverted": false,
                "order": 2,
                "to": "0x99a2770b5c9337f44a00a7677471373c89bf0f36",
                "token": "0xeeeeeeeeeeeeeeeeeeeeeeeeeeeeeeeeeeeeeeee"
            },
            {
                "amount": "0.000000075233469163",
                "from": "0x17b1e028a1837ff15ba9e7140add0d13790092a3",
                "id": 3,
                "isERC1155": false,
                "isERC721": false,
                "isReverted": false,
                "order": 3,
                "to": "0xd6e8088c8ea62444c4747be3382f1c23f7d33c4a",
                "token": "0xeeeeeeeeeeeeeeeeeeeeeeeeeeeeeeeeeeeeeeee"
            }
        ],
        "token_infos": [
            {
                "address": "0xc02aaa39b223fe8d0a0e5c4f27ead9083c756cc2",
                "decimals": 18
            },
            {
                "address": "0xeeeeeeeeeeeeeeeeeeeeeeeeeeeeeeeeeeeeeeee",
                "decimals": 18
            }
        ]
    },
    "address_label": {
        "labels": [
            {
                "address": "0x490b9e771cfde4f6c48debcb5e1973ba6b1d8902",
                "label": "PresaleV4"
            },
            {
                "address": "0x0000000000000000000000000000000000000002",
                "label": "Precompiled"
            },
            {
                "address": "0x0000000000000000000000000000000000000003",
                "label": "Precompiled"
            },
            {
                "address": "0x0000000000000000000000000000000000000004",
                "label": "Precompiled"
            },
            {
                "address": "0xeeeeeeeeeeeeeeeeeeeeeeeeeeeeeeeeeeeeeeee",
                "label": "Ether"
            },
            {
                "address": "0x37bc7498f4ff12c19678ee8fe19d713b87f6a9e6",
                "label": "AccessControlledOffchainAggregator"
            },
            {
                "address": "0x17b1e028a1837ff15ba9e7140add0d13790092a3",
                "label": "TransparentUpgradeableProxy_17b1_92a3"
            },
            {
                "address": "0x5f4ec3df9cbd43714fe2740f5e3616155c5b8419",
                "label": "EACAggregatorProxy"
            },
            {
                "address": "0x0000000000000000000000000000000000000001",
                "label": "Precompiled"
            }
        ]
    },
    "trace": {
        "accountLabels": null,
        "dataMap": {
            "-1": {
                "invocation": {
                    "address": "0xd6e8088c8ea62444c4747be3382f1c23f7d33c4a",
                    "callData": "",
                    "decodedMethod": null,
                    "errorInfo": "",
                    "fromAddress": "",
                    "gasUsed": 0,
                    "id": -1,
                    "methodDecoded": false,
                    "operation": "",
                    "output": "",
                    "revert": false,
                    "revertMessage": "",
                    "selector": "",
                    "status": false,
                    "value": ""
                },
                "nodeType": 0
            },
            "0": {
                "invocation": {
                    "address": "0x17b1e028a1837ff15ba9e7140add0d13790092a3",
                    "callData": "0x00000000000000000000000000000000000000000000000000000000000994f1",
                    "decodedMethod": {
                        "callParams": [
                            {
                                "name": "amount",
                                "type": "uint256",
                                "value": "627,953"
                            }
                        ],
                        "constructorArguments": "",
                        "name": "buyWithEth",
                        "returnParams": [
                            {
                                "name": "",
                                "type": "bool",
                                "value": true
                            }
                        ],
                        "signature": "buyWithEth(uint256)"
                    },
                    "errorInfo": "",
                    "fromAddress": "0xd6e8088c8ea62444c4747be3382f1c23f7d33c4a",
                    "gasUsed": 142935,
                    "id": 0,
                    "methodDecoded": true,
                    "operation": "CALL",
                    "output": "0x0000000000000000000000000000000000000000000000000000000000000001",
                    "revert": false,
                    "revertMessage": "",
                    "selector": "0x7649b957",
                    "status": true,
                    "value": "0.048100000000000004"
                },
                "nodeType": 0
            },
            "1": {
                "invocation": {
                    "address": "0x490b9e771cfde4f6c48debcb5e1973ba6b1d8902",
                    "callData": "0x00000000000000000000000000000000000000000000000000000000000994f1",
                    "decodedMethod": {
                        "callParams": [
                            {
                                "name": "amount",
                                "type": "uint256",
                                "value": "627,953"
                            }
                        ],
                        "constructorArguments": "",
                        "name": "buyWithEth",
                        "returnParams": [
                            {
                                "name": "",
                                "type": "bool",
                                "value": true
                            }
                        ],
                        "signature": "buyWithEth(uint256)"
                    },
                    "errorInfo": "",
                    "fromAddress": "0x17b1e028a1837ff15ba9e7140add0d13790092a3",
                    "gasUsed": 117188,
                    "id": 1,
                    "methodDecoded": true,
                    "operation": "DELEGATECALL",
                    "output": "0x0000000000000000000000000000000000000000000000000000000000000001",
                    "revert": false,
                    "revertMessage": "",
                    "selector": "0x7649b957",
                    "status": true,
                    "value": "0.048100000000000004"
                },
                "nodeType": 0
            },
            "2": {
                "invocation": {
                    "address": "0x5f4ec3df9cbd43714fe2740f5e3616155c5b8419",
                    "callData": "0x",
                    "decodedMethod": {
                        "callParams": [],
                        "constructorArguments": "",
                        "name": "latestRoundData",
                        "returnParams": [
                            {
                                "name": "roundId",
                                "type": "uint80",
                                "value": "92,233,720,368,547,802,691"
                            },
                            {
                                "name": "answer",
                                "type": "int256",
                                "value": "189,300,057,000"
                            },
                            {
                                "name": "startedAt",
                                "type": "uint256",
                                "value": "1,682,888,123"
                            },
                            {
                                "name": "updatedAt",
                                "type": "uint256",
                                "value": "1,682,888,123"
                            },
                            {
                                "name": "answeredInRound",
                                "type": "uint80",
                                "value": "92,233,720,368,547,802,691"
                            }
                        ],
                        "signature": "latestRoundData()"
                    },
                    "errorInfo": "",
                    "fromAddress": "0x17b1e028a1837ff15ba9e7140add0d13790092a3",
                    "gasUsed": 15643,
                    "id": 2,
                    "methodDecoded": true,
                    "operation": "STATICCALL",
                    "output": "0x000000000000000000000000000000000000000000000005000000000000ae430000000000000000000000000000000000000000000000000000002c1329a3a800000000000000000000000000000000000000000000000000000000644ed5bb00000000000000000000000000000000000000000000000000000000644ed5bb000000000000000000000000000000000000000000000005000000000000ae43",
                    "revert": false,
                    "revertMessage": "",
                    "selector": "0xfeaf968c",
                    "status": true,
                    "value": "0"
                },
                "nodeType": 0
            },
            "3": {
                "invocation": {
                    "address": "0x37bc7498f4ff12c19678ee8fe19d713b87f6a9e6",
                    "callData": "0x",
                    "decodedMethod": {
                        "callParams": [],
                        "constructorArguments": "",
                        "name": "latestRoundData",
                        "returnParams": [
                            {
                                "name": "roundId",
                                "type": "uint80",
                                "value": "44,611"
                            },
                            {
                                "name": "answer",
                                "type": "int256",
                                "value": "189,300,057,000"
                            },
                            {
                                "name": "startedAt",
                                "type": "uint256",
                                "value": "1,682,888,123"
                            },
                            {
                                "name": "updatedAt",
                                "type": "uint256",
                                "value": "1,682,888,123"
                            },
                            {
                                "name": "answeredInRound",
                                "type": "uint80",
                                "value": "44,611"
                            }
                        ],
                        "signature": "latestRoundData()"
                    },
                    "errorInfo": "",
                    "fromAddress": "0x5f4ec3df9cbd43714fe2740f5e3616155c5b8419",
                    "gasUsed": 7410,
                    "id": 3,
                    "methodDecoded": true,
                    "operation": "STATICCALL",
                    "output": "0x000000000000000000000000000000000000000000000000000000000000ae430000000000000000000000000000000000000000000000000000002c1329a3a800000000000000000000000000000000000000000000000000000000644ed5bb00000000000000000000000000000000000000000000000000000000644ed5bb000000000000000000000000000000000000000000000000000000000000ae43",
                    "revert": false,
                    "revertMessage": "",
                    "selector": "0xfeaf968c",
                    "status": true,
                    "value": "0"
                },
                "nodeType": 0
            },
            "4": {
                "invocation": {
                    "address": "0x99a2770b5c9337f44a00a7677471373c89bf0f36",
                    "callData": "0x",
                    "decodedMethod": null,
                    "errorInfo": "",
                    "fromAddress": "0x17b1e028a1837ff15ba9e7140add0d13790092a3",
                    "gasUsed": 0,
                    "id": 4,
                    "methodDecoded": false,
                    "operation": "CALL",
                    "output": "",
                    "revert": false,
                    "revertMessage": "",
                    "selector": "fallback",
                    "status": true,
                    "value": "0.048099924766530841"
                },
                "nodeType": 0
            },
            "5": {
                "invocation": {
                    "address": "0xd6e8088c8ea62444c4747be3382f1c23f7d33c4a",
                    "callData": "0x",
                    "decodedMethod": null,
                    "errorInfo": "",
                    "fromAddress": "0x17b1e028a1837ff15ba9e7140add0d13790092a3",
                    "gasUsed": 0,
                    "id": 5,
                    "methodDecoded": false,
                    "operation": "CALL",
                    "output": "",
                    "revert": false,
                    "revertMessage": "",
                    "selector": "fallback",
                    "status": true,
                    "value": "0.000000075233469163"
                },
                "nodeType": 0
            },
            "6": {
                "event": {
                    "contract": "0x17b1e028a1837ff15ba9e7140add0d13790092a3",
                    "decodedLog": {
                        "name": "TokensBought",
                        "params": [
                            {
                                "name": "user",
                                "type": "address",
                                "value": "0xd6e8088c8ea62444c4747be3382f1c23f7d33c4a"
                            },
                            {
                                "name": "tokensBought",
                                "type": "uint256",
                                "value": "627,953"
                            },
                            {
                                "name": "purchaseToken",
                                "type": "address",
                                "value": "0x0000000000000000000000000000000000000000"
                            },
                            {
                                "name": "amountPaid",
                                "type": "uint256",
                                "value": "48,099,924,766,530,841"
                            },
                            {
                                "name": "usdEq",
                                "type": "uint256",
                                "value": "91,053,185,000,000,000,000"
                            },
                            {
                                "name": "timestamp",
                                "type": "uint256",
                                "value": "1,682,889,179"
                            }
                        ],
                        "signature": "TokensBought(address,uint256,address,uint256,uint256,uint256)"
                    },
                    "id": 6,
                    "logData": "0x00000000000000000000000000000000000000000000000000aae2a0716e9d19000000000000000000000000000000000000000000000004ef9de55648ed100000000000000000000000000000000000000000000000000000000000644ed9db",
                    "logDecoded": true,
                    "operation": "EVENT",
                    "revert": false,
                    "status": true,
                    "topics": [
                        "0x4d8aead3491b7eba4b5c7a65fc17e493b9e63f9e433522fc5f6a85a168fc9d36",
                        "0x000000000000000000000000d6e8088c8ea62444c4747be3382f1c23f7d33c4a",
                        "0x00000000000000000000000000000000000000000000000000000000000994f1",
                        "0x0000000000000000000000000000000000000000000000000000000000000000"
                    ]
                },
                "nodeType": 1
            }
        },
        "gasFlame": [
            {
                "children": [
                    {
                        "children": [
                            {
                                "children": [],
                                "depth": 0,
                                "name": "Initial Gas",
                                "value": 21228
                            },
                            {
                                "children": [
                                    {
                                        "children": [
                                            {
                                                "children": [
                                                    {
                                                        "children": [],
                                                        "depth": 3,
                                                        "name": "latestRoundData",
                                                        "value": 7410
                                                    }
                                                ],
                                                "depth": 2,
                                                "name": "latestRoundData",
                                                "value": 15643
                                            },
                                            {
                                                "children": [],
                                                "depth": 2,
                                                "name": "fallback",
                                                "value": 0
                                            },
                                            {
                                                "children": [],
                                                "depth": 2,
                                                "name": "fallback",
                                                "value": 0
                                            }
                                        ],
                                        "depth": 1,
                                        "name": "buyWithEth",
                                        "value": 117188
                                    }
                                ],
                                "depth": 0,
                                "name": "Executed Gas",
                                "value": 124507
                            }
                        ],
                        "depth": -1,
                        "name": "Actual Gas Used",
                        "value": 142935
                    },
                    {
                        "children": [],
                        "depth": -1,
                        "name": "Refunded Gas",
                        "value": 2800
                    }
                ],
                "depth": -2,
                "name": "Total Gas",
                "value": 145735
            }
        ],
        "isConfirmed": true,
        "mainTrace": [
            {
                "children": [
                    {
                        "children": [
                            {
                                "children": [
                                    {
                                        "children": [
                                            {
                                                "children": [],
                                                "depth": 3,
                                                "id": 3,
                                                "order": 3
                                            }
                                        ],
                                        "depth": 2,
                                        "id": 2,
                                        "order": 2
                                    },
                                    {
                                        "children": [],
                                        "depth": 2,
                                        "id": 4,
                                        "order": 4
                                    },
                                    {
                                        "children": [],
                                        "depth": 2,
                                        "id": 5,
                                        "order": 5
                                    },
                                    {
                                        "children": [],
                                        "depth": 2,
                                        "id": 6,
                                        "order": 6
                                    }
                                ],
                                "depth": 1,
                                "id": 1,
                                "order": 1
                            }
                        ],
                        "depth": 0,
                        "id": 0,
                        "order": 0
                    }
                ],
                "depth": -1,
                "id": -1,
                "order": -1
            }
        ],
        "mainTraceNodeCount": 7,
        "parentIdMap": {
            "0": -1,
            "1": 0,
            "2": 1,
            "3": 2,
            "4": 1,
            "5": 1,
            "6": 1
        },
        "tidyTrace": [
            {
                "children": [
                    {
                        "children": [
                            {
                                "children": [
                                    {
                                        "children": [],
                                        "depth": 2,
                                        "id": 4,
                                        "order": 4
                                    },
                                    {
                                        "children": [],
                                        "depth": 2,
                                        "id": 5,
                                        "order": 5
                                    },
                                    {
                                        "children": [],
                                        "depth": 2,
                                        "id": 6,
                                        "order": 6
                                    }
                                ],
                                "depth": 1,
                                "id": 1,
                                "order": 1
                            }
                        ],
                        "depth": 0,
                        "id": 0,
                        "order": 0
                    }
                ],
                "depth": -1,
                "id": -1,
                "order": -1
            }
        ],
        "tidyTraceNodeCount": 5
    },
    "state_change": {
        "stateChanges": [
            {
                "address": "0x17b1e028a1837ff15ba9e7140add0d13790092a3",
                "erc": "",
                "slots": [
                    {
                        "current": "0x0000000000000000000000000000000000000000000084f9667cbe6a65240000",
                        "key": "0x73d321a26de130b23673c5f6e3d0cf1208542e9b3f37ab41cf91c532588ce190",
                        "prev": "0x0000000000000000000000000000000000000000000000000000000000000000"
                    },
                    {
                        "current": "0x00000000000000000000000000000000000000000006578a6a4d38413299c000",
                        "key": "0x00000000000000000000000000000000000000000000000000000000000000d5",
                        "prev": "0x0000000000000000000000000000000000000000000657857aaf52eae9acb000"
                    },
                    {
                        "current": "0x0000000000000000000000000000000000000000000000000000001047e62132",
                        "key": "0x00000000000000000000000000000000000000000000000000000000000000c9",
                        "prev": "0x0000000000000000000000000000000000000000000000000000001047dc8c41"
                    },
                    {
                        "current": "0x000000000000000000000000000000000000000000000000000000135722e1ac",
                        "key": "0x00000000000000000000000000000000000000000000000000000000000000d4",
                        "prev": "0x0000000000000000000000000000000000000000000000000000001357194cbb"
                    }
                ],
                "storageVariables": [
                    {
                        "name": "userDeposits",
                        "type": "mapping(address => uint256)",
                        "value": {
                            "pairs": [
                                {
                                    "key": "0xd6e8088c8ea62444c4747be3382f1c23f7d33c4a",
                                    "value": {
                                        "current": "627953000000000000000000",
                                        "prev": "0",
                                        "typeTag": 1
                                    }
                                }
                            ],
                            "typeTag": 4
                        }
                    },
                    {
                        "name": "usdRaised",
                        "type": "uint256",
                        "value": {
                            "current": "7666954112220000000000000",
                            "prev": "7666863059035000000000000",
                            "typeTag": 1
                        }
                    },
                    {
                        "name": "totalTokensSold",
                        "type": "uint256",
                        "value": {
                            "current": "69925740850",
                            "prev": "69925112897",
                            "typeTag": 1
                        }
                    },
                    {
                        "name": "checkPoint",
                        "type": "uint256",
                        "value": {
                            "current": "83066282412",
                            "prev": "83065654459",
                            "typeTag": 1
                        }
                    }
                ]
            }
        ]
    }
}