{
    "balance_change": {
        "balanceChanges": [
            {
                "account": "0xf1918dacd73f86e720d780054ae98b7ffdf5db65",
                "assets": [
                    {
                        "address": "0x8e870d67f660d95d5be530380d0ec0bd388289e1",
                        "amount": "53",
                        "iconUrl": "https://assets.blocksec.com/icon/df4a16322c8ca2faeeb21a6d029f24de2efeb58e57edadd9ecbfa6a35afa986d.png",
                        "isERC1155": false,
                        "isERC721": false,
                        "sign": false,
                        "value": ""
                    }
                ]
            },
            {
                "account": "0x92e4ef47d5ffb276013127713634780a8e005ac5",
                "assets": [
                    {
                        "address": "0x8e870d67f660d95d5be530380d0ec0bd388289e1",
                        "amount": "53",
                        "iconUrl": "https://assets.blocksec.com/icon/df4a16322c8ca2faeeb21a6d029f24de2efeb58e57edadd9ecbfa6a35afa986d.png",
                        "isERC1155": false,
                        "isERC721": false,
                        "sign": true,
                        "value": ""
                    }
                ]
            }
        ]
    },
    "profile": {
        "basic_info": {
            "baseFee": "34.871656953",
            "blockNumber": 13223459,
            "callData": "0xa9059cbb00000000000000000000000092e4ef47d5ffb276013127713634780a8e005ac5000000000000000000000000000000000000000000000002df85d331a7b40000",
            "debugEnable": true,
            "errorInfo": "",
            "eventCount": 1,
            "feeRecipient": "0x5a0b54d5dc17e0aadc383d2db43b0a0d3e029c4c",
            "formatValue": "0",
            "gasLimit": 75000,
            "gasPrice": "39",
            "gasUsed": 66311,
            "intTxnCount": 1,
            "internalRevert": false,
            "internalRevertMessage": "",
            "isContractCreation": false,
            "isFlashloan": false,
            "maxFee": "",
            "nonce": 123,
            "overwritedBlockNumber": -1,
            "priorityFee": "",
            "receiver": "0x8e870d67f660d95d5be530380d0ec0bd388289e1",
            "revertMessage": "",
            "sender": "0xf1918dacd73f86e720d780054ae98b7ffdf5db65",
            "simulationEnable": true,
            "sourceTxnHash": "0xc3c00464b443aeba2543fe21bdadbf884db210a0843b7f94feda119127bef28e",
            "status": true,
            "timestamp": "2021-09-14T11:03:36Z",
            "transactionFee": "0.002586129",
            "txnHash": "0xc3c00464b443aeba2543fe21bdadbf884db210a0843b7f94feda119127bef28e",
            "txnIndex": 96,
            "type": 0,
            "value": "0"
        },
        "fund_flow": [
            {
                "amount": "53",
                "from": "0xf1918dacd73f86e720d780054ae98b7ffdf5db65",
                "id": 1,
                "isERC1155": false,
                "isERC721": false,
                "isReverted": false,
                "order": 1,
                "to": "0x92e4ef47d5ffb276013127713634780a8e005ac5",
                "token": "0x8e870d67f660d95d5be530380d0ec0bd388289e1"
            }
        ],
        "token_infos": [
            {
                "address": "0x8e870d67f660d95d5be530380d0ec0bd388289e1",
                "decimals": 18
            },
            {
                "address": "0xc02aaa39b223fe8d0a0e5c4f27ead9083c756cc2",
                "decimals": 18
            },
            {
                "address": "0xeeeeeeeeeeeeeeeeeeeeeeeeeeeeeeeeeeeeeeee",
                "decimals": 18
            }
        ]
    },
    "address_label": {
        "labels": [
            {
                "address": "0xb54d4e8bb827f99af764b37249990fa9d6840e20",
                "label": "Pax Dollar (USDP)"
            },
            {
                "address": "0x8e870d67f660d95d5be530380d0ec0bd388289e1",
                "label": "Paxos: USDP Token"
            },
            {
                "address": "0x0000000000000000000000000000000000000001",
                "label": "Precompiled"
            },
            {
                "address": "0x0000000000000000000000000000000000000002",
                "label": "Precompiled"
            },
            {
                "address": "0x0000000000000000000000000000000000000003",
                "label": "Precompiled"
            },
            {
                "address": "0x0000000000000000000000000000000000000004",
                "label": "Precompiled"
            },
            {
                "address": "0xeeeeeeeeeeeeeeeeeeeeeeeeeeeeeeeeeeeeeeee",
                "label": "Ether"
            }
        ]
    },
    "trace": {
        "accountLabels": null,
        "dataMap": {
            "-1": {
                "invocation": {
                    "address": "0xf1918dacd73f86e720d780054ae98b7ffdf5db65",
                    "callData": "",
                    "decodedMethod": null,
                    "errorInfo": "",
                    "fromAddress": "",
                    "gasUsed": 0,
                    "id": -1,
                    "methodDecoded": false,
                    "operation": "",
                    "output": "",
                    "revert": false,
                    "revertMessage": "",
                    "selector": "",
                    "status": false,
                    "value": ""
                },
                "nodeType": 0
            },
            "0": {
                "invocation": {
                    "address": "0x8e870d67f660d95d5be530380d0ec0bd388289e1",
                    "callData": "0x00000000000000000000000092e4ef47d5ffb276013127713634780a8e005ac5000000000000000000000000000000000000000000000002df85d331a7b40000",
                    "decodedMethod": {
                        "callParams": [
                            {
                                "name": "_to",
                                "type": "address",
                                "value": "0x92e4ef47d5ffb276013127713634780a8e005ac5"
                            },
                            {
                                "decimalAvailable": true,
                                "name": "_value",
                                "type": "uint256",
                                "value": "53,000,000,000,000,000,000"
                            }
                        ],
                        "constructorArguments": "",
                        "name": "transfer",
                        "returnParams": [
                            {
                                "name": "",
                                "type": "bool",
                                "value": true
                            }
                        ],
                        "signature": "transfer(address,uint256)"
                    },
                    "errorInfo": "",
                    "fromAddress": "0xf1918dacd73f86e720d780054ae98b7ffdf5db65",
                    "gasUsed": 66311,
                    "id": 0,
                    "methodDecoded": true,
                    "operation": "CALL",
                    "output": "0x0000000000000000000000000000000000000000000000000000000000000001",
                    "revert": false,
                    "revertMessage": "",
                    "selector": "0xa9059cbb",
                    "status": true,
                    "value": "0"
                },
                "nodeType": 0
            },
            "1": {
                "invocation": {
                    "address": "0xb54d4e8bb827f99af764b37249990fa9d6840e20",
                    "callData": "0x00000000000000000000000092e4ef47d5ffb276013127713634780a8e005ac5000000000000000000000000000000000000000000000002df85d331a7b40000",
                    "decodedMethod": {
                        "callParams": [
                            {
                                "name": "_to",
                                "type": "address",
                                "value": "0x92e4ef47d5ffb276013127713634780a8e005ac5"
                            },
                            {
                                "decimalAvailable": true,
                                "name": "_value",
                                "type": "uint256",
                                "value": "53,000,000,000,000,000,000"
                            }
                        ],
                        "constructorArguments": "",
                        "name": "transfer",
                        "returnParams": [
                            {
                                "name": "",
                                "type": "bool",
                                "value": true
                            }
                        ],
                        "signature": "transfer(address,uint256)"
                    },
                    "errorInfo": "",
                    "fromAddress": "0x8e870d67f660d95d5be530380d0ec0bd388289e1",
                    "gasUsed": 37397,
                    "id": 1,
                    "methodDecoded": true,
                    "operation": "DELEGATECALL",
                    "output": "0x0000000000000000000000000000000000000000000000000000000000000001",
                    "revert": false,
                    "revertMessage": "",
                    "selector": "0xa9059cbb",
                    "status": true,
                    "value": "0"
                },
                "nodeType": 0
            },
            "2": {
                "event": {
                    "contract": "0x8e870d67f660d95d5be530380d0ec0bd388289e1",
                    "decodedLog": {
                        "name": "Transfer",
                        "params": [
                            {
                                "name": "from",
                                "type": "address",
                                "value": "0xf1918dacd73f86e720d780054ae98b7ffdf5db65"
                            },
                            {
                                "name": "to",
                                "type": "address",
                                "value": "0x92e4ef47d5ffb276013127713634780a8e005ac5"
                            },
                            {
                                "decimalAvailable": true,
                                "name": "value",
                                "type": "uint256",
                                "value": "53,000,000,000,000,000,000"
                            }
                        ],
                        "signature": "Transfer(address,address,uint256)"
                    },
                    "id": 2,
                    "logData": "0x000000000000000000000000000000000000000000000002df85d331a7b40000",
                    "logDecoded": true,
                    "operation": "EVENT",
                    "revert": false,
                    "status": true,
                    "topics": [
                        "0xddf252ad1be2c89b69c2b068fc378daa952ba7f163c4a11628f55a4df523b3ef",
                        "0x000000000000000000000000f1918dacd73f86e720d780054ae98b7ffdf5db65",
                        "0x00000000000000000000000092e4ef47d5ffb276013127713634780a8e005ac5"
                    ]
                },
                "nodeType": 1
            }
        },
        "gasFlame": [
            {
                "children": [
                    {
                        "children": [
                            {
                                "children": [],
                                "depth": 0,
                                "name": "Initial Gas",
                                "value": 21632
                            },
                            {
                                "children": [
                                    {
                                        "children": [],
                                        "depth": 1,
                                        "name": "transfer",
                                        "value": 37397
                                    }
                                ],
                                "depth": 0,
                                "name": "Executed Gas",
                                "value": 44679
                            }
                        ],
                        "depth": -1,
                        "name": "Actual Gas Used",
                        "value": 66311
                    },
                    {
                        "children": [],
                        "depth": -1,
                        "name": "Refunded Gas",
                        "value": 0
                    }
                ],
                "depth": -2,
                "name": "Total Gas",
                "value": 66311
            }
        ],
        "isConfirmed": true,
        "mainTrace": [
            {
                "children": [
                    {
                        "children": [
                            {
                                "children": [
                                    {
                                        "children": [],
                                        "depth": 2,
                                        "id": 2,
                                        "order": 2
                                    }
                                ],
                                "depth": 1,
                                "id": 1,
                                "order": 1
                            }
                        ],
                        "depth": 0,
                        "id": 0,
                        "order": 0
                    }
                ],
                "depth": -1,
                "id": -1,
                "order": -1
            }
        ],
        "mainTraceNodeCount": 3,
        "parentIdMap": {
            "0": -1,
            "1": 0,
            "2": 1
        },
        "tidyTrace": [
            {
                "children": [
                    {
                        "children": [
                            {
                                "children": [
                                    {
                                        "children": [],
                                        "depth": 2,
                                        "id": 2,
                                        "order": 2
                                    }
                                ],
                                "depth": 1,
                                "id": 1,
                                "order": 1
                            }
                        ],
                        "depth": 0,
                        "id": 0,
                        "order": 0
                    }
                ],
                "depth": -1,
                "id": -1,
                "order": -1
            }
        ],
        "tidyTraceNodeCount": 3
    },
    "state_change": {
        "stateChanges": [
            {
                "address": "0x8e870d67f660d95d5be530380d0ec0bd388289e1",
                "erc": "ERC-20",
                "slots": [
                    {
                        "current": "0x000000000000000000000000000000000000000000000002df85d331a7b40000",
                        "key": "0xa7787250edbef0f0d1e9d2da398ffde8d84b79962870177b702988c30d18ef25",
                        "prev": "0x0000000000000000000000000000000000000000000000000000000000000000"
                    },
                    {
                        "current": "0x00000000000000000000000000000000000000000000001102b63075f0460400",
                        "key": "0x0666aff38ba5fafc04a4c63076bdf8499f6025a66b4d3dbc099690d95a8658b6",
                        "prev": "0x000000000000000000000000000000000000000000000013e23c03a797fa0400"
                    }
                ],
                "storageVariables": [
                    {
                        "name": "balances",
                        "type": "mapping(address => uint256)",
                        "value": {
                            "pairs": [
                                {
                                    "key": "0x92e4ef47d5ffb276013127713634780a8e005ac5",
                                    "value": {
                                        "current": "53000000000000000000",
                                        "prev": "0",
                                        "typeTag": 1
                                    }
                                },
                                {
                                    "key": "0xf1918dacd73f86e720d780054ae98b7ffdf5db65",
                                    "value": {
                                        "current": "313790046170000000000",
                                        "prev": "366790046170000000000",
                                        "typeTag": 1
                                    }
                                }
                            ],
                            "typeTag": 4
                        }
                    }
                ]
            }
        ]
    }
}