{
    "balance_change": {
        "balanceChanges": [
            {
                "account": "0xfd826529f6ac45d5fd89199a7a3b73f8592f3545",
                "assets": [
                    {
                        "address": "0xfc6d00cac2e91a116f0471d4ca3d6ac6828a4d36",
                        "amount": "60,000,000,000,000,000,000",
                        "iconUrl": "",
                        "isERC1155": false,
                        "isERC721": false,
                        "sign": false,
                        "value": ""
                    }
                ]
            },
            {
                "account": "0x31e2b672e23df0cacbe658ff137ff819f27b2846",
                "assets": [
                    {
                        "address": "0xfc6d00cac2e91a116f0471d4ca3d6ac6828a4d36",
                        "amount": "60,000,000,000,000,000,000",
                        "iconUrl": "",
                        "isERC1155": false,
                        "isERC721": false,
                        "sign": true,
                        "value": ""
                    }
                ]
            }
        ]
    },
    "profile": {
        "basic_info": {
            "baseFee": "",
            "blockNumber": 5733892,
            "callData": "0xa9059cbb00000000000000000000000031e2b672e23df0cacbe658ff137ff819f27b284600000000000000000000000000000000000000000000000340aad21b3b700000",
            "debugEnable": true,
            "errorInfo": "",
            "eventCount": 1,
            "feeRecipient": "0x5a0b54d5dc17e0aadc383d2db43b0a0d3e029c4c",
            "formatValue": "0",
            "gasLimit": 60000,
            "gasPrice": "10",
            "gasUsed": 36648,
            "intTxnCount": 0,
            "internalRevert": false,
            "internalRevertMessage": "",
            "isContractCreation": false,
            "isFlashloan": false,
            "maxFee": "",
            "nonce": 463,
            "overwritedBlockNumber": -1,
            "priorityFee": "",
            "receiver": "0xfc6d00cac2e91a116f0471d4ca3d6ac6828a4d36",
            "revertMessage": "",
            "sender": "0xfd826529f6ac45d5fd89199a7a3b73f8592f3545",
            "simulationEnable": true,
            "sourceTxnHash": "0xc3c52a26adc6a1d2ea37d536b926942dabc7220a6725120609e5d02a4c79f276",
            "status": true,
            "timestamp": "2018-06-05T01:35:11Z",
            "transactionFee": "0.00036648",
            "txnHash": "0xc3c52a26adc6a1d2ea37d536b926942dabc7220a6725120609e5d02a4c79f276",
            "txnIndex": 37,
            "type": 0,
            "value": "0"
        },
        "fund_flow": [
            {
                "amount": "60,000,000,000,000,000,000",
                "from": "0xfd826529f6ac45d5fd89199a7a3b73f8592f3545",
                "id": 1,
                "isERC1155": false,
                "isERC721": false,
                "isReverted": false,
                "order": 1,
                "to": "0x31e2b672e23df0cacbe658ff137ff819f27b2846",
                "token": "0xfc6d00cac2e91a116f0471d4ca3d6ac6828a4d36"
            }
        ],
        "token_infos": [
            {
                "address": "0xc02aaa39b223fe8d0a0e5c4f27ead9083c756cc2",
                "decimals": 18
            },
            {
                "address": "0xeeeeeeeeeeeeeeeeeeeeeeeeeeeeeeeeeeeeeeee",
                "decimals": 18
            }
        ]
    },
    "address_label": {
        "labels": [
            {
                "address": "0x0000000000000000000000000000000000000003",
                "label": "Precompiled"
            },
            {
                "address": "0x0000000000000000000000000000000000000004",
                "label": "Precompiled"
            },
            {
                "address": "0xeeeeeeeeeeeeeeeeeeeeeeeeeeeeeeeeeeeeeeee",
                "label": "Ether"
            },
            {
                "address": "0x0000000000000000000000000000000000000001",
                "label": "Precompiled"
            },
            {
                "address": "0x0000000000000000000000000000000000000002",
                "label": "Precompiled"
            }
        ]
    },
    "trace": {
        "accountLabels": null,
        "dataMap": {
            "-1": {
                "invocation": {
                    "address": "0xfd826529f6ac45d5fd89199a7a3b73f8592f3545",
                    "callData": "",
                    "decodedMethod": null,
                    "errorInfo": "",
                    "fromAddress": "",
                    "gasUsed": 0,
                    "id": -1,
                    "methodDecoded": false,
                    "operation": "",
                    "output": "",
                    "revert": false,
                    "revertMessage": "",
                    "selector": "",
                    "status": false,
                    "value": ""
                },
                "nodeType": 0
            },
            "0": {
                "invocation": {
                    "address": "0xfc6d00cac2e91a116f0471d4ca3d6ac6828a4d36",
                    "callData": "0x00000000000000000000000031e2b672e23df0cacbe658ff137ff819f27b284600000000000000000000000000000000000000000000000340aad21b3b700000",
                    "decodedMethod": {
                        "callParams": [
                            {
                                "name": "recipient",
                                "type": "address",
                                "value": "0x31e2b672e23df0cacbe658ff137ff819f27b2846"
                            },
                            {
                                "decimalAvailable": true,
                                "name": "amount",
                                "type": "uint256",
                                "value": "60,000,000,000,000,000,000"
                            }
                        ],
                        "constructorArguments": "",
                        "name": "transfer",
                        "returnParams": [
                            {
                                "name": "",
                                "type": "bool",
                                "value": true
                            }
                        ],
                        "signature": "transfer(address,uint256)"
                    },
                    "errorInfo": "",
                    "fromAddress": "0xfd826529f6ac45d5fd89199a7a3b73f8592f3545",
                    "gasUsed": 36648,
                    "id": 0,
                    "methodDecoded": true,
                    "operation": "CALL",
                    "output": "0x0000000000000000000000000000000000000000000000000000000000000001",
                    "revert": false,
                    "revertMessage": "",
                    "selector": "0xa9059cbb",
                    "status": true,
                    "value": "0"
                },
                "nodeType": 0
            },
            "1": {
                "event": {
                    "contract": "0xfc6d00cac2e91a116f0471d4ca3d6ac6828a4d36",
                    "decodedLog": {
                        "name": "Transfer",
                        "params": [
                            {
                                "name": "from",
                                "type": "address",
                                "value": "0xfd826529f6ac45d5fd89199a7a3b73f8592f3545"
                            },
                            {
                                "name": "to",
                                "type": "address",
                                "value": "0x31e2b672e23df0cacbe658ff137ff819f27b2846"
                            },
                            {
                                "decimalAvailable": true,
                                "name": "value",
                                "type": "uint256",
                                "value": "60,000,000,000,000,000,000"
                            }
                        ],
                        "signature": "Transfer(address,address,uint256)"
                    },
                    "id": 1,
                    "logData": "0x00000000000000000000000000000000000000000000000340aad21b3b700000",
                    "logDecoded": true,
                    "operation": "EVENT",
                    "revert": false,
                    "status": true,
                    "topics": [
                        "0xddf252ad1be2c89b69c2b068fc378daa952ba7f163c4a11628f55a4df523b3ef",
                        "0x000000000000000000000000fd826529f6ac45d5fd89199a7a3b73f8592f3545",
                        "0x00000000000000000000000031e2b672e23df0cacbe658ff137ff819f27b2846"
                    ]
                },
                "nodeType": 1
            }
        },
        "gasFlame": [
            {
                "children": [
                    {
                        "children": [
                            {
                                "children": [],
                                "depth": 0,
                                "name": "Initial Gas",
                                "value": 23256
                            },
                            {
                                "children": [],
                                "depth": 0,
                                "name": "Executed Gas",
                                "value": 13392
                            }
                        ],
                        "depth": -1,
                        "name": "Actual Gas Used",
                        "value": 36648
                    },
                    {
                        "children": [],
                        "depth": -1,
                        "name": "Refunded Gas",
                        "value": 0
                    }
                ],
                "depth": -2,
                "name": "Total Gas",
                "value": 36648
            }
        ],
        "isConfirmed": true,
        "mainTrace": [
            {
                "children": [
                    {
                        "children": [
                            {
                                "children": [],
                                "depth": 1,
                                "id": 1,
                                "order": 1
                            }
                        ],
                        "depth": 0,
                        "id": 0,
                        "order": 0
                    }
                ],
                "depth": -1,
                "id": -1,
                "order": -1
            }
        ],
        "mainTraceNodeCount": 2,
        "parentIdMap": {
            "0": -1,
            "1": 0
        },
        "tidyTrace": [
            {
                "children": [
                    {
                        "children": [
                            {
                                "children": [],
                                "depth": 1,
                                "id": 1,
                                "order": 1
                            }
                        ],
                        "depth": 0,
                        "id": 0,
                        "order": 0
                    }
                ],
                "depth": -1,
                "id": -1,
                "order": -1
            }
        ],
        "tidyTraceNodeCount": 2
    },
    "state_change": {
        "stateChanges": [
            {
                "address": "0xfc6d00cac2e91a116f0471d4ca3d6ac6828a4d36",
                "erc": "",
                "slots": [
                    {
                        "current": "0x00000000000000000000000000000000000000000000045c23e02b40090cc000",
                        "key": "0x3bf3c58d505c98384ba0267288f47d57db1e0ff1edd9f91e409e88fbf7bbdb39",
                        "prev": "0x00000000000000000000000000000000000000000000045f648afd5b447cc000"
                    },
                    {
                        "current": "0x000000000000000000000000000000000000000000000008cc92b884ad878000",
                        "key": "0x320fe7308dbdce89f1098b8c2d9413308953ec133098875a2508c79cedd47679",
                        "prev": "0x0000000000000000000000000000000000000000000000058be7e66972178000"
                    }
                ],
                "storageVariables": []
            }
        ]
    }
}