{
    "balance_change": {
        "balanceChanges": []
    },
    "profile": {
        "basic_info": {
            "baseFee": "",
            "blockNumber": 11586645,
            "callData": "0x68eec3f6000000000000000000000000000000000000000000000000000000000000004000000000000000000000000000000000000000000000000000000000000000c000000000000000000000000000000000000000000000000000000000000000030000000000000000000000008b546c091bdb06edf6bb93bceb7c1e60a11402930000000000000000000000008d884504cc530a0ee2f15da13d0dbf6bf8d81a37000000000000000000000000f809e07870dca762b9536d61a4fbef1a171780920000000000000000000000000000000000000000000000000000000000000002000000000000000000000000000000000000000000000000000000000000004000000000000000000000000000000000000000000000000000000000000002c0000000000000000000000000000000000000000000000000000000000000000200000000000000000000000000000000000000000000000000000000000000000000000000000000000000001d3ccceee6d9f9c3b79ed5fadd98e32b5d48b22e000000000000000000000000000000000000000000000000000000000000008000000000000000000000000000000000000000000000000000000000000001e0dc9089930149612d878696b2f5a4e70638fd949bd2168259cea1b156006e075100000000000000000000000000000000000000000000000000000002540be40000000000000000000000000000000000000000000000000000000000401f67c0000000000000000000000000000000000000000000000000000000000000000000000000000000000000000000000000000000000000000000fe8b06639ffa800000000000000000000000008b546c091bdb06edf6bb93bceb7c1e60a1140293000000000000000000000000f809e07870dca762b9536d61a4fbef1a17178092000000000000000000000000000000000000000000000000000000005ff2c81a00000000000000000000000000000000000000000000000000000002540be400000000000000000000000000000000000000000000000000000000003fd629c0000000000000000000000000000000000000000000000000005442b8ece8f64d00000000000000000000000000000000000000000000000000000000000000004259ccca6aab9ce8545ef6c7264b7a6ccc6f02642c6a647716f3fe41f3bc0f824909b6acb385a1b8a7cc35426bee37492dbf8bea8d6f0c0d71487261e66441ac1c00000000000000000000000000000000000000000000000000000000000000000000000000000000000000000000000000000000000000000000000000000200000000000000000000000000000000000000000000000000000000000000010000000000000000000000001d3ccceee6d9f9c3b79ed5fadd98e32b5d48b22e000000000000000000000000000000000000000000000000000000000000008000000000000000000000000000000000000000000000000000000000000001e00a3fbc1994a4ca1361c2eb9b88feaeeb913a5c7298d4ee43f60bc55b7758bb500000000000000000000000000000000000000000000000000000000353ad10a0000000000000000000000000000000000000000000000000000000003fd629c00000000000000000000000000000000000000000000000000000000000000000000000000000000000000000000000000000000000000000002386f26fc100000000000000000000000000008d884504cc530a0ee2f15da13d0dbf6bf8d81a37000000000000000000000000f809e07870dca762b9536d61a4fbef1a17178092000000000000000000000000000000000000000000000000000000006017ad6a00000000000000000000000000000000000000000000000000000002540be400000000000000000000000000000000000000000000000000000000003fd629c00000000000000000000000000000000000000000000000000001c6bf526340000000000000000000000000000000000000000000000000000000000000000001197b02139447dc303502d6f55f35d13c182def7784b0a90addb76d44b3b84b820491d35a919440867c4db12b3c7fc3cb2ab7fbfd9256c0798cab6a6c5db9ecb71c01000000000000000000000000000000000000000000000000000000000000",
            "debugEnable": true,
            "errorInfo": "",
            "eventCount": 7,
            "feeRecipient": "0x5a0b54d5dc17e0aadc383d2db43b0a0d3e029c4c",
            "formatValue": "0",
            "gasLimit": 340288,
            "gasPrice": "732.050001809",
            "gasUsed": 273538,
            "intTxnCount": 9,
            "internalRevert": false,
            "internalRevertMessage": "",
            "isContractCreation": false,
            "isFlashloan": false,
            "maxFee": "",
            "nonce": 287959,
            "overwritedBlockNumber": -1,
            "priorityFee": "",
            "receiver": "0x09403fd14510f8196f7879ef514827cd76960b5d",
            "revertMessage": "",
            "sender": "0xf809e07870dca762b9536d61a4fbef1a17178092",
            "simulationEnable": true,
            "sourceTxnHash": "0xc34225973e6d84aad93cad892a3a8218236d566c532e573a62b8ae6844da2e5a",
            "status": true,
            "timestamp": "2021-01-04T07:29:36Z",
            "transactionFee": "0.200243493394830242",
            "txnHash": "0xc34225973e6d84aad93cad892a3a8218236d566c532e573a62b8ae6844da2e5a",
            "txnIndex": 120,
            "type": 0,
            "value": "0"
        },
        "fund_flow": [],
        "token_infos": [
            {
                "address": "0xc02aaa39b223fe8d0a0e5c4f27ead9083c756cc2",
                "decimals": 18
            },
            {
                "address": "0xeeeeeeeeeeeeeeeeeeeeeeeeeeeeeeeeeeeeeeee",
                "decimals": 18
            }
        ]
    },
    "address_label": {
        "labels": [
            {
                "address": "0xeeeeeeeeeeeeeeeeeeeeeeeeeeeeeeeeeeeeeeee",
                "label": "Ether"
            },
            {
                "address": "0xcd37221c53b5208a2d7eabc7d5051b98d8030424",
                "label": "P1OracleInverter"
            },
            {
                "address": "0x0000000000000000000000000000000000000001",
                "label": "Precompiled"
            },
            {
                "address": "0x0000000000000000000000000000000000000004",
                "label": "Precompiled"
            },
            {
                "address": "0x538038e526517680735568f9c5342c6e68bbda12",
                "label": "P1MakerOracle"
            },
            {
                "address": "0x0000000000000000000000000000000000000002",
                "label": "Precompiled"
            },
            {
                "address": "0x0000000000000000000000000000000000000003",
                "label": "Precompiled"
            },
            {
                "address": "0x09403fd14510f8196f7879ef514827cd76960b5d",
                "label": "dYdX: Perpetual Proxy"
            },
            {
                "address": "0x64de91f5a373cd4c28de3600cb34c7c6ce410c85",
                "label": "MedianETHUSD"
            },
            {
                "address": "0xe883b3efdae637fc599b467478a23199778f2ccf",
                "label": "PerpetualV1"
            },
            {
                "address": "0x1d3ccceee6d9f9c3b79ed5fadd98e32b5d48b22e",
                "label": "P1InverseOrders"
            },
            {
                "address": "0x5ddc23dee470aec28d51721b4e3a25f9399166ec",
                "label": "P1InverseFundingOracle"
            }
        ]
    },
    "trace": {
        "accountLabels": null,
        "dataMap": {
            "-1": {
                "invocation": {
                    "address": "0xf809e07870dca762b9536d61a4fbef1a17178092",
                    "callData": "",
                    "decodedMethod": null,
                    "errorInfo": "",
                    "fromAddress": "",
                    "gasUsed": 0,
                    "id": -1,
                    "methodDecoded": false,
                    "operation": "",
                    "output": "",
                    "revert": false,
                    "revertMessage": "",
                    "selector": "",
                    "status": false,
                    "value": ""
                },
                "nodeType": 0
            },
            "0": {
                "invocation": {
                    "address": "0x09403fd14510f8196f7879ef514827cd76960b5d",
                    "callData": "0x000000000000000000000000000000000000000000000000000000000000004000000000000000000000000000000000000000000000000000000000000000c000000000000000000000000000000000000000000000000000000000000000030000000000000000000000008b546c091bdb06edf6bb93bceb7c1e60a11402930000000000000000000000008d884504cc530a0ee2f15da13d0dbf6bf8d81a37000000000000000000000000f809e07870dca762b9536d61a4fbef1a171780920000000000000000000000000000000000000000000000000000000000000002000000000000000000000000000000000000000000000000000000000000004000000000000000000000000000000000000000000000000000000000000002c0000000000000000000000000000000000000000000000000000000000000000200000000000000000000000000000000000000000000000000000000000000000000000000000000000000001d3ccceee6d9f9c3b79ed5fadd98e32b5d48b22e000000000000000000000000000000000000000000000000000000000000008000000000000000000000000000000000000000000000000000000000000001e0dc9089930149612d878696b2f5a4e70638fd949bd2168259cea1b156006e075100000000000000000000000000000000000000000000000000000002540be40000000000000000000000000000000000000000000000000000000000401f67c0000000000000000000000000000000000000000000000000000000000000000000000000000000000000000000000000000000000000000000fe8b06639ffa800000000000000000000000008b546c091bdb06edf6bb93bceb7c1e60a1140293000000000000000000000000f809e07870dca762b9536d61a4fbef1a17178092000000000000000000000000000000000000000000000000000000005ff2c81a00000000000000000000000000000000000000000000000000000002540be400000000000000000000000000000000000000000000000000000000003fd629c0000000000000000000000000000000000000000000000000005442b8ece8f64d00000000000000000000000000000000000000000000000000000000000000004259ccca6aab9ce8545ef6c7264b7a6ccc6f02642c6a647716f3fe41f3bc0f824909b6acb385a1b8a7cc35426bee37492dbf8bea8d6f0c0d71487261e66441ac1c00000000000000000000000000000000000000000000000000000000000000000000000000000000000000000000000000000000000000000000000000000200000000000000000000000000000000000000000000000000000000000000010000000000000000000000001d3ccceee6d9f9c3b79ed5fadd98e32b5d48b22e000000000000000000000000000000000000000000000000000000000000008000000000000000000000000000000000000000000000000000000000000001e00a3fbc1994a4ca1361c2eb9b88feaeeb913a5c7298d4ee43f60bc55b7758bb500000000000000000000000000000000000000000000000000000000353ad10a0000000000000000000000000000000000000000000000000000000003fd629c00000000000000000000000000000000000000000000000000000000000000000000000000000000000000000000000000000000000000000002386f26fc100000000000000000000000000008d884504cc530a0ee2f15da13d0dbf6bf8d81a37000000000000000000000000f809e07870dca762b9536d61a4fbef1a17178092000000000000000000000000000000000000000000000000000000006017ad6a00000000000000000000000000000000000000000000000000000002540be400000000000000000000000000000000000000000000000000000000003fd629c00000000000000000000000000000000000000000000000000001c6bf526340000000000000000000000000000000000000000000000000000000000000000001197b02139447dc303502d6f55f35d13c182def7784b0a90addb76d44b3b84b820491d35a919440867c4db12b3c7fc3cb2ab7fbfd9256c0798cab6a6c5db9ecb71c01000000000000000000000000000000000000000000000000000000000000",
                    "decodedMethod": {
                        "callParams": [
                            {
                                "name": "accounts",
                                "type": "address[]",
                                "value": [
                                    "0x8b546c091bdb06edf6bb93bceb7c1e60a1140293",
                                    "0x8d884504cc530a0ee2f15da13d0dbf6bf8d81a37",
                                    "0xf809e07870dca762b9536d61a4fbef1a17178092"
                                ]
                            },
                            {
                                "name": "trades",
                                "type": "(uint256,uint256,address,bytes)[]",
                                "value": [
                                    [
                                        {
                                            "name": "takerIndex",
                                            "type": "uint256",
                                            "value": "2"
                                        },
                                        {
                                            "name": "makerIndex",
                                            "type": "uint256",
                                            "value": "0"
                                        },
                                        {
                                            "name": "trader",
                                            "type": "address",
                                            "value": "0x1d3ccceee6d9f9c3b79ed5fadd98e32b5d48b22e"
                                        },
                                        {
                                            "name": "data",
                                            "type": "bytes",
                                            "value": "0xdc9089930149612d878696b2f5a4e70638fd949bd2168259cea1b156006e075100000000000000000000000000000000000000000000000000000002540be40000000000000000000000000000000000000000000000000000000000401f67c0000000000000000000000000000000000000000000000000000000000000000000000000000000000000000000000000000000000000000000fe8b06639ffa800000000000000000000000008b546c091bdb06edf6bb93bceb7c1e60a1140293000000000000000000000000f809e07870dca762b9536d61a4fbef1a17178092000000000000000000000000000000000000000000000000000000005ff2c81a00000000000000000000000000000000000000000000000000000002540be400000000000000000000000000000000000000000000000000000000003fd629c0000000000000000000000000000000000000000000000000005442b8ece8f64d00000000000000000000000000000000000000000000000000000000000000004259ccca6aab9ce8545ef6c7264b7a6ccc6f02642c6a647716f3fe41f3bc0f824909b6acb385a1b8a7cc35426bee37492dbf8bea8d6f0c0d71487261e66441ac1c00000000000000000000000000000000000000000000000000000000000000"
                                        }
                                    ],
                                    [
                                        {
                                            "name": "takerIndex",
                                            "type": "uint256",
                                            "value": "2"
                                        },
                                        {
                                            "name": "makerIndex",
                                            "type": "uint256",
                                            "value": "1"
                                        },
                                        {
                                            "name": "trader",
                                            "type": "address",
                                            "value": "0x1d3ccceee6d9f9c3b79ed5fadd98e32b5d48b22e"
                                        },
                                        {
                                            "name": "data",
                                            "type": "bytes",
                                            "value": "0x0a3fbc1994a4ca1361c2eb9b88feaeeb913a5c7298d4ee43f60bc55b7758bb500000000000000000000000000000000000000000000000000000000353ad10a0000000000000000000000000000000000000000000000000000000003fd629c00000000000000000000000000000000000000000000000000000000000000000000000000000000000000000000000000000000000000000002386f26fc100000000000000000000000000008d884504cc530a0ee2f15da13d0dbf6bf8d81a37000000000000000000000000f809e07870dca762b9536d61a4fbef1a17178092000000000000000000000000000000000000000000000000000000006017ad6a00000000000000000000000000000000000000000000000000000002540be400000000000000000000000000000000000000000000000000000000003fd629c00000000000000000000000000000000000000000000000000001c6bf526340000000000000000000000000000000000000000000000000000000000000000001197b02139447dc303502d6f55f35d13c182def7784b0a90addb76d44b3b84b820491d35a919440867c4db12b3c7fc3cb2ab7fbfd9256c0798cab6a6c5db9ecb71c01000000000000000000000000000000000000000000000000000000000000"
                                        }
                                    ]
                                ]
                            }
                        ],
                        "constructorArguments": "",
                        "name": "trade",
                        "returnParams": [],
                        "signature": "trade(address[],(uint256,uint256,address,bytes)[])"
                    },
                    "errorInfo": "",
                    "fromAddress": "0xf809e07870dca762b9536d61a4fbef1a17178092",
                    "gasUsed": 273538,
                    "id": 0,
                    "methodDecoded": true,
                    "operation": "CALL",
                    "output": "",
                    "revert": false,
                    "revertMessage": "",
                    "selector": "0x68eec3f6",
                    "status": true,
                    "value": "0"
                },
                "nodeType": 0
            },
            "1": {
                "invocation": {
                    "address": "0xe883b3efdae637fc599b467478a23199778f2ccf",
                    "callData": "0x000000000000000000000000000000000000000000000000000000000000004000000000000000000000000000000000000000000000000000000000000000c000000000000000000000000000000000000000000000000000000000000000030000000000000000000000008b546c091bdb06edf6bb93bceb7c1e60a11402930000000000000000000000008d884504cc530a0ee2f15da13d0dbf6bf8d81a37000000000000000000000000f809e07870dca762b9536d61a4fbef1a171780920000000000000000000000000000000000000000000000000000000000000002000000000000000000000000000000000000000000000000000000000000004000000000000000000000000000000000000000000000000000000000000002c0000000000000000000000000000000000000000000000000000000000000000200000000000000000000000000000000000000000000000000000000000000000000000000000000000000001d3ccceee6d9f9c3b79ed5fadd98e32b5d48b22e000000000000000000000000000000000000000000000000000000000000008000000000000000000000000000000000000000000000000000000000000001e0dc9089930149612d878696b2f5a4e70638fd949bd2168259cea1b156006e075100000000000000000000000000000000000000000000000000000002540be40000000000000000000000000000000000000000000000000000000000401f67c0000000000000000000000000000000000000000000000000000000000000000000000000000000000000000000000000000000000000000000fe8b06639ffa800000000000000000000000008b546c091bdb06edf6bb93bceb7c1e60a1140293000000000000000000000000f809e07870dca762b9536d61a4fbef1a17178092000000000000000000000000000000000000000000000000000000005ff2c81a00000000000000000000000000000000000000000000000000000002540be400000000000000000000000000000000000000000000000000000000003fd629c0000000000000000000000000000000000000000000000000005442b8ece8f64d00000000000000000000000000000000000000000000000000000000000000004259ccca6aab9ce8545ef6c7264b7a6ccc6f02642c6a647716f3fe41f3bc0f824909b6acb385a1b8a7cc35426bee37492dbf8bea8d6f0c0d71487261e66441ac1c00000000000000000000000000000000000000000000000000000000000000000000000000000000000000000000000000000000000000000000000000000200000000000000000000000000000000000000000000000000000000000000010000000000000000000000001d3ccceee6d9f9c3b79ed5fadd98e32b5d48b22e000000000000000000000000000000000000000000000000000000000000008000000000000000000000000000000000000000000000000000000000000001e00a3fbc1994a4ca1361c2eb9b88feaeeb913a5c7298d4ee43f60bc55b7758bb500000000000000000000000000000000000000000000000000000000353ad10a0000000000000000000000000000000000000000000000000000000003fd629c00000000000000000000000000000000000000000000000000000000000000000000000000000000000000000000000000000000000000000002386f26fc100000000000000000000000000008d884504cc530a0ee2f15da13d0dbf6bf8d81a37000000000000000000000000f809e07870dca762b9536d61a4fbef1a17178092000000000000000000000000000000000000000000000000000000006017ad6a00000000000000000000000000000000000000000000000000000002540be400000000000000000000000000000000000000000000000000000000003fd629c00000000000000000000000000000000000000000000000000001c6bf526340000000000000000000000000000000000000000000000000000000000000000001197b02139447dc303502d6f55f35d13c182def7784b0a90addb76d44b3b84b820491d35a919440867c4db12b3c7fc3cb2ab7fbfd9256c0798cab6a6c5db9ecb71c01000000000000000000000000000000000000000000000000000000000000",
                    "decodedMethod": {
                        "callParams": [
                            {
                                "name": "accounts",
                                "type": "address[]",
                                "value": [
                                    "0x8b546c091bdb06edf6bb93bceb7c1e60a1140293",
                                    "0x8d884504cc530a0ee2f15da13d0dbf6bf8d81a37",
                                    "0xf809e07870dca762b9536d61a4fbef1a17178092"
                                ]
                            },
                            {
                                "name": "trades",
                                "type": "(uint256,uint256,address,bytes)[]",
                                "value": [
                                    [
                                        {
                                            "name": "takerIndex",
                                            "type": "uint256",
                                            "value": "2"
                                        },
                                        {
                                            "name": "makerIndex",
                                            "type": "uint256",
                                            "value": "0"
                                        },
                                        {
                                            "name": "trader",
                                            "type": "address",
                                            "value": "0x1d3ccceee6d9f9c3b79ed5fadd98e32b5d48b22e"
                                        },
                                        {
                                            "name": "data",
                                            "type": "bytes",
                                            "value": "0xdc9089930149612d878696b2f5a4e70638fd949bd2168259cea1b156006e075100000000000000000000000000000000000000000000000000000002540be40000000000000000000000000000000000000000000000000000000000401f67c0000000000000000000000000000000000000000000000000000000000000000000000000000000000000000000000000000000000000000000fe8b06639ffa800000000000000000000000008b546c091bdb06edf6bb93bceb7c1e60a1140293000000000000000000000000f809e07870dca762b9536d61a4fbef1a17178092000000000000000000000000000000000000000000000000000000005ff2c81a00000000000000000000000000000000000000000000000000000002540be400000000000000000000000000000000000000000000000000000000003fd629c0000000000000000000000000000000000000000000000000005442b8ece8f64d00000000000000000000000000000000000000000000000000000000000000004259ccca6aab9ce8545ef6c7264b7a6ccc6f02642c6a647716f3fe41f3bc0f824909b6acb385a1b8a7cc35426bee37492dbf8bea8d6f0c0d71487261e66441ac1c00000000000000000000000000000000000000000000000000000000000000"
                                        }
                                    ],
                                    [
                                        {
                                            "name": "takerIndex",
                                            "type": "uint256",
                                            "value": "2"
                                        },
                                        {
                                            "name": "makerIndex",
                                            "type": "uint256",
                                            "value": "1"
                                        },
                                        {
                                            "name": "trader",
                                            "type": "address",
                                            "value": "0x1d3ccceee6d9f9c3b79ed5fadd98e32b5d48b22e"
                                        },
                                        {
                                            "name": "data",
                                            "type": "bytes",
                                            "value": "0x0a3fbc1994a4ca1361c2eb9b88feaeeb913a5c7298d4ee43f60bc55b7758bb500000000000000000000000000000000000000000000000000000000353ad10a0000000000000000000000000000000000000000000000000000000003fd629c00000000000000000000000000000000000000000000000000000000000000000000000000000000000000000000000000000000000000000002386f26fc100000000000000000000000000008d884504cc530a0ee2f15da13d0dbf6bf8d81a37000000000000000000000000f809e07870dca762b9536d61a4fbef1a17178092000000000000000000000000000000000000000000000000000000006017ad6a00000000000000000000000000000000000000000000000000000002540be400000000000000000000000000000000000000000000000000000000003fd629c00000000000000000000000000000000000000000000000000001c6bf526340000000000000000000000000000000000000000000000000000000000000000001197b02139447dc303502d6f55f35d13c182def7784b0a90addb76d44b3b84b820491d35a919440867c4db12b3c7fc3cb2ab7fbfd9256c0798cab6a6c5db9ecb71c01000000000000000000000000000000000000000000000000000000000000"
                                        }
                                    ]
                                ]
                            }
                        ],
                        "constructorArguments": "",
                        "name": "trade",
                        "returnParams": [],
                        "signature": "trade(address[],(uint256,uint256,address,bytes)[])"
                    },
                    "errorInfo": "",
                    "fromAddress": "0x09403fd14510f8196f7879ef514827cd76960b5d",
                    "gasUsed": 242823,
                    "id": 1,
                    "methodDecoded": true,
                    "operation": "DELEGATECALL",
                    "output": "",
                    "revert": false,
                    "revertMessage": "",
                    "selector": "0x68eec3f6",
                    "status": true,
                    "value": "0"
                },
                "nodeType": 0
            },
            "10": {
                "invocation": {
                    "address": "0x0000000000000000000000000000000000000001",
                    "callData": "0x8d7adc75705aa18895584d3448b234494c7b3856ea5bb8eb84232edd000000000000000000000000000000000000000000000000000000000000001c4259ccca6aab9ce8545ef6c7264b7a6ccc6f02642c6a647716f3fe41f3bc0f824909b6acb385a1b8a7cc35426bee37492dbf8bea8d6f0c0d71487261e66441ac",
                    "decodedMethod": {
                        "callParams": [
                            {
                                "name": "hash",
                                "type": "bytes32",
                                "value": "0xefc35c488d7adc75705aa18895584d3448b234494c7b3856ea5bb8eb84232edd"
                            },
                            {
                                "name": "v",
                                "type": "uint256",
                                "value": "28"
                            },
                            {
                                "name": "r",
                                "type": "bytes32",
                                "value": "0x4259ccca6aab9ce8545ef6c7264b7a6ccc6f02642c6a647716f3fe41f3bc0f82"
                            },
                            {
                                "name": "s",
                                "type": "bytes32",
                                "value": "0x4909b6acb385a1b8a7cc35426bee37492dbf8bea8d6f0c0d71487261e66441ac"
                            }
                        ],
                        "constructorArguments": "",
                        "name": "ecrecover",
                        "returnParams": [
                            {
                                "name": "",
                                "type": "address",
                                "value": "0x8b546c091bdb06edf6bb93bceb7c1e60a1140293"
                            }
                        ],
                        "signature": "ecrecover(bytes32,uint256,bytes32,bytes32)"
                    },
                    "errorInfo": "",
                    "fromAddress": "0x1d3ccceee6d9f9c3b79ed5fadd98e32b5d48b22e",
                    "gasUsed": 3000,
                    "id": 10,
                    "methodDecoded": true,
                    "operation": "STATICCALL",
                    "output": "0x0000000000000000000000008b546c091bdb06edf6bb93bceb7c1e60a1140293",
                    "revert": false,
                    "revertMessage": "",
                    "selector": "0xefc35c48",
                    "status": true,
                    "value": "0"
                },
                "nodeType": 0
            },
            "11": {
                "event": {
                    "contract": "0x1d3ccceee6d9f9c3b79ed5fadd98e32b5d48b22e",
                    "decodedLog": {
                        "name": "LogOrderFilled",
                        "params": [
                            {
                                "name": "orderHash",
                                "type": "bytes32",
                                "value": "0xefc35c488d7adc75705aa18895584d3448b234494c7b3856ea5bb8eb84232edd"
                            },
                            {
                                "name": "flags",
                                "type": "bytes32",
                                "value": "0xdc9089930149612d878696b2f5a4e70638fd949bd2168259cea1b156006e0751"
                            },
                            {
                                "name": "triggerPrice",
                                "type": "uint256",
                                "value": "0"
                            },
                            {
                                "name": "fill",
                                "type": "(uint256,uint256,uint256,bool)",
                                "value": [
                                    {
                                        "name": "amount",
                                        "type": "uint256",
                                        "value": "10,000,000,000"
                                    },
                                    {
                                        "name": "price",
                                        "type": "uint256",
                                        "value": "1,071,000,000"
                                    },
                                    {
                                        "name": "fee",
                                        "type": "uint256",
                                        "value": "23,717,260,059,801,165"
                                    },
                                    {
                                        "name": "isNegativeFee",
                                        "type": "bool",
                                        "value": false
                                    }
                                ]
                            }
                        ],
                        "signature": "LogOrderFilled(bytes32,bytes32,uint256,(uint256,uint256,uint256,bool))"
                    },
                    "id": 11,
                    "logData": "0xefc35c488d7adc75705aa18895584d3448b234494c7b3856ea5bb8eb84232edddc9089930149612d878696b2f5a4e70638fd949bd2168259cea1b156006e0751000000000000000000000000000000000000000000000000000000000000000000000000000000000000000000000000000000000000000000000002540be400000000000000000000000000000000000000000000000000000000003fd629c0000000000000000000000000000000000000000000000000005442b8ece8f64d0000000000000000000000000000000000000000000000000000000000000000",
                    "logDecoded": true,
                    "operation": "EVENT",
                    "revert": false,
                    "status": true,
                    "topics": [
                        "0x5760b5a80923536b02524ebe3b1f92cc973195ac25559c60564e8db9e02d15ad"
                    ]
                },
                "nodeType": 1
            },
            "12": {
                "event": {
                    "contract": "0x09403fd14510f8196f7879ef514827cd76960b5d",
                    "decodedLog": {
                        "name": "LogTrade",
                        "params": [
                            {
                                "name": "maker",
                                "type": "address",
                                "value": "0x8b546c091bdb06edf6bb93bceb7c1e60a1140293"
                            },
                            {
                                "name": "taker",
                                "type": "address",
                                "value": "0xf809e07870dca762b9536d61a4fbef1a17178092"
                            },
                            {
                                "name": "trader",
                                "type": "address",
                                "value": "0x1d3ccceee6d9f9c3b79ed5fadd98e32b5d48b22e"
                            },
                            {
                                "name": "marginAmount",
                                "type": "uint256",
                                "value": "9,115,618,486,836,590,429"
                            },
                            {
                                "name": "positionAmount",
                                "type": "uint256",
                                "value": "10,000,000,000"
                            },
                            {
                                "name": "isBuy",
                                "type": "bool",
                                "value": true
                            },
                            {
                                "name": "makerBalance",
                                "type": "bytes32",
                                "value": "0x010000000000000307d6e7f9258c9eb7000000000000000000000006fc23ac00"
                            },
                            {
                                "name": "takerBalance",
                                "type": "bytes32",
                                "value": "0x010000000000000154e4cd2a23dd49f3010000000000000000000002540be400"
                            }
                        ],
                        "signature": "LogTrade(address,address,address,uint256,uint256,bool,bytes32,bytes32)"
                    },
                    "id": 12,
                    "logData": "0x0000000000000000000000001d3ccceee6d9f9c3b79ed5fadd98e32b5d48b22e0000000000000000000000000000000000000000000000007e812eb797e0f75d00000000000000000000000000000000000000000000000000000002540be4000000000000000000000000000000000000000000000000000000000000000001010000000000000307d6e7f9258c9eb7000000000000000000000006fc23ac00010000000000000154e4cd2a23dd49f3010000000000000000000002540be400",
                    "logDecoded": true,
                    "operation": "EVENT",
                    "revert": false,
                    "status": true,
                    "topics": [
                        "0x5171a2ba3550a103fd09ca39b7dcfdf328a5acef18e290c7802d69c8ba73d8d9",
                        "0x0000000000000000000000008b546c091bdb06edf6bb93bceb7c1e60a1140293",
                        "0x000000000000000000000000f809e07870dca762b9536d61a4fbef1a17178092"
                    ]
                },
                "nodeType": 1
            },
            "13": {
                "invocation": {
                    "address": "0x1d3ccceee6d9f9c3b79ed5fadd98e32b5d48b22e",
                    "callData": "0x000000000000000000000000f809e07870dca762b9536d61a4fbef1a171780920000000000000000000000008d884504cc530a0ee2f15da13d0dbf6bf8d81a37000000000000000000000000f809e07870dca762b9536d61a4fbef1a1717809200000000000000000000000000000000000000000309a6e6cd735982759f700000000000000000000000000000000000000000000000000000000000000000c0000000000000000000000000000000000000000000000000000000000000000100000000000000000000000000000000000000000000000000000000000001e00a3fbc1994a4ca1361c2eb9b88feaeeb913a5c7298d4ee43f60bc55b7758bb500000000000000000000000000000000000000000000000000000000353ad10a0000000000000000000000000000000000000000000000000000000003fd629c00000000000000000000000000000000000000000000000000000000000000000000000000000000000000000000000000000000000000000002386f26fc100000000000000000000000000008d884504cc530a0ee2f15da13d0dbf6bf8d81a37000000000000000000000000f809e07870dca762b9536d61a4fbef1a17178092000000000000000000000000000000000000000000000000000000006017ad6a00000000000000000000000000000000000000000000000000000002540be400000000000000000000000000000000000000000000000000000000003fd629c00000000000000000000000000000000000000000000000000001c6bf526340000000000000000000000000000000000000000000000000000000000000000001197b02139447dc303502d6f55f35d13c182def7784b0a90addb76d44b3b84b820491d35a919440867c4db12b3c7fc3cb2ab7fbfd9256c0798cab6a6c5db9ecb71c01000000000000000000000000000000000000000000000000000000000000",
                    "decodedMethod": {
                        "callParams": [
                            {
                                "name": "sender",
                                "type": "address",
                                "value": "0xf809e07870dca762b9536d61a4fbef1a17178092"
                            },
                            {
                                "name": "maker",
                                "type": "address",
                                "value": "0x8d884504cc530a0ee2f15da13d0dbf6bf8d81a37"
                            },
                            {
                                "name": "taker",
                                "type": "address",
                                "value": "0xf809e07870dca762b9536d61a4fbef1a17178092"
                            },
                            {
                                "name": "price",
                                "type": "uint256",
                                "value": "940,123,532,232,135,000,000,000,000"
                            },
                            {
                                "name": "data",
                                "type": "bytes",
                                "value": "0x0a3fbc1994a4ca1361c2eb9b88feaeeb913a5c7298d4ee43f60bc55b7758bb500000000000000000000000000000000000000000000000000000000353ad10a0000000000000000000000000000000000000000000000000000000003fd629c00000000000000000000000000000000000000000000000000000000000000000000000000000000000000000000000000000000000000000002386f26fc100000000000000000000000000008d884504cc530a0ee2f15da13d0dbf6bf8d81a37000000000000000000000000f809e07870dca762b9536d61a4fbef1a17178092000000000000000000000000000000000000000000000000000000006017ad6a00000000000000000000000000000000000000000000000000000002540be400000000000000000000000000000000000000000000000000000000003fd629c00000000000000000000000000000000000000000000000000001c6bf526340000000000000000000000000000000000000000000000000000000000000000001197b02139447dc303502d6f55f35d13c182def7784b0a90addb76d44b3b84b820491d35a919440867c4db12b3c7fc3cb2ab7fbfd9256c0798cab6a6c5db9ecb71c01000000000000000000000000000000000000000000000000000000000000"
                            },
                            {
                                "name": "",
                                "type": "bytes32",
                                "value": "0x0000000000000000000000000000000000000000000000000000000000000001"
                            }
                        ],
                        "constructorArguments": "",
                        "name": "trade",
                        "returnParams": [
                            {
                                "name": "",
                                "type": "(uint256,uint256,bool,bytes32)",
                                "value": [
                                    {
                                        "name": "marginAmount",
                                        "type": "uint256",
                                        "value": "9,332,399,626,517,273,576"
                                    },
                                    {
                                        "name": "positionAmount",
                                        "type": "uint256",
                                        "value": "10,000,000,000"
                                    },
                                    {
                                        "name": "isBuy",
                                        "type": "bool",
                                        "value": false
                                    },
                                    {
                                        "name": "traderFlags",
                                        "type": "bytes32",
                                        "value": "0x0000000000000000000000000000000000000000000000000000000000000001"
                                    }
                                ]
                            }
                        ],
                        "signature": "trade(address,address,address,uint256,bytes,bytes32)"
                    },
                    "errorInfo": "",
                    "fromAddress": "0x09403fd14510f8196f7879ef514827cd76960b5d",
                    "gasUsed": 42852,
                    "id": 13,
                    "methodDecoded": true,
                    "operation": "CALL",
                    "output": "0x00000000000000000000000000000000000000000000000081835803e08cdbe800000000000000000000000000000000000000000000000000000002540be40000000000000000000000000000000000000000000000000000000000000000000000000000000000000000000000000000000000000000000000000000000001",
                    "revert": false,
                    "revertMessage": "",
                    "selector": "0x970c2ba1",
                    "status": true,
                    "value": "0"
                },
                "nodeType": 0
            },
            "14": {
                "invocation": {
                    "address": "0x0000000000000000000000000000000000000001",
                    "callData": "0x1a24bd481067051abfe22e7880bba7079fb146c58593472a2b166654000000000000000000000000000000000000000000000000000000000000001c197b02139447dc303502d6f55f35d13c182def7784b0a90addb76d44b3b84b820491d35a919440867c4db12b3c7fc3cb2ab7fbfd9256c0798cab6a6c5db9ecb7",
                    "decodedMethod": {
                        "callParams": [
                            {
                                "name": "hash",
                                "type": "bytes32",
                                "value": "0x1e7bc07a1a24bd481067051abfe22e7880bba7079fb146c58593472a2b166654"
                            },
                            {
                                "name": "v",
                                "type": "uint256",
                                "value": "28"
                            },
                            {
                                "name": "r",
                                "type": "bytes32",
                                "value": "0x197b02139447dc303502d6f55f35d13c182def7784b0a90addb76d44b3b84b82"
                            },
                            {
                                "name": "s",
                                "type": "bytes32",
                                "value": "0x0491d35a919440867c4db12b3c7fc3cb2ab7fbfd9256c0798cab6a6c5db9ecb7"
                            }
                        ],
                        "constructorArguments": "",
                        "name": "ecrecover",
                        "returnParams": [
                            {
                                "name": "",
                                "type": "address",
                                "value": "0x8d884504cc530a0ee2f15da13d0dbf6bf8d81a37"
                            }
                        ],
                        "signature": "ecrecover(bytes32,uint256,bytes32,bytes32)"
                    },
                    "errorInfo": "",
                    "fromAddress": "0x1d3ccceee6d9f9c3b79ed5fadd98e32b5d48b22e",
                    "gasUsed": 3000,
                    "id": 14,
                    "methodDecoded": true,
                    "operation": "STATICCALL",
                    "output": "0x0000000000000000000000008d884504cc530a0ee2f15da13d0dbf6bf8d81a37",
                    "revert": false,
                    "revertMessage": "",
                    "selector": "0x1e7bc07a",
                    "status": true,
                    "value": "0"
                },
                "nodeType": 0
            },
            "15": {
                "event": {
                    "contract": "0x1d3ccceee6d9f9c3b79ed5fadd98e32b5d48b22e",
                    "decodedLog": {
                        "name": "LogOrderFilled",
                        "params": [
                            {
                                "name": "orderHash",
                                "type": "bytes32",
                                "value": "0x047dd0ef01201de02286310542ceb0578fb18699f5d83959bf1a91a15363a4c6"
                            },
                            {
                                "name": "flags",
                                "type": "bytes32",
                                "value": "0x0a3fbc1994a4ca1361c2eb9b88feaeeb913a5c7298d4ee43f60bc55b7758bb50"
                            },
                            {
                                "name": "triggerPrice",
                                "type": "uint256",
                                "value": "0"
                            },
                            {
                                "name": "fill",
                                "type": "(uint256,uint256,uint256,bool)",
                                "value": [
                                    {
                                        "name": "amount",
                                        "type": "uint256",
                                        "value": "10,000,000,000"
                                    },
                                    {
                                        "name": "price",
                                        "type": "uint256",
                                        "value": "1,071,000,000"
                                    },
                                    {
                                        "name": "fee",
                                        "type": "uint256",
                                        "value": "500,000,000,000,000"
                                    },
                                    {
                                        "name": "isNegativeFee",
                                        "type": "bool",
                                        "value": true
                                    }
                                ]
                            }
                        ],
                        "signature": "LogOrderFilled(bytes32,bytes32,uint256,(uint256,uint256,uint256,bool))"
                    },
                    "id": 15,
                    "logData": "0x047dd0ef01201de02286310542ceb0578fb18699f5d83959bf1a91a15363a4c60a3fbc1994a4ca1361c2eb9b88feaeeb913a5c7298d4ee43f60bc55b7758bb50000000000000000000000000000000000000000000000000000000000000000000000000000000000000000000000000000000000000000000000002540be400000000000000000000000000000000000000000000000000000000003fd629c00000000000000000000000000000000000000000000000000001c6bf526340000000000000000000000000000000000000000000000000000000000000000001",
                    "logDecoded": true,
                    "operation": "EVENT",
                    "revert": false,
                    "status": true,
                    "topics": [
                        "0x5760b5a80923536b02524ebe3b1f92cc973195ac25559c60564e8db9e02d15ad"
                    ]
                },
                "nodeType": 1
            },
            "16": {
                "event": {
                    "contract": "0x09403fd14510f8196f7879ef514827cd76960b5d",
                    "decodedLog": {
                        "name": "LogTrade",
                        "params": [
                            {
                                "name": "maker",
                                "type": "address",
                                "value": "0x8d884504cc530a0ee2f15da13d0dbf6bf8d81a37"
                            },
                            {
                                "name": "taker",
                                "type": "address",
                                "value": "0xf809e07870dca762b9536d61a4fbef1a17178092"
                            },
                            {
                                "name": "trader",
                                "type": "address",
                                "value": "0x1d3ccceee6d9f9c3b79ed5fadd98e32b5d48b22e"
                            },
                            {
                                "name": "marginAmount",
                                "type": "uint256",
                                "value": "9,332,399,626,517,273,576"
                            },
                            {
                                "name": "positionAmount",
                                "type": "uint256",
                                "value": "10,000,000,000"
                            },
                            {
                                "name": "isBuy",
                                "type": "bool",
                                "value": false
                            },
                            {
                                "name": "makerBalance",
                                "type": "bytes32",
                                "value": "0x010000000000001241a0ffcb6ddad3b101000000000000000000001533a4820d"
                            },
                            {
                                "name": "takerBalance",
                                "type": "bytes32",
                                "value": "0x0100000000000001d668252e046a25db00000000000000000000000000000000"
                            }
                        ],
                        "signature": "LogTrade(address,address,address,uint256,uint256,bool,bytes32,bytes32)"
                    },
                    "id": 16,
                    "logData": "0x0000000000000000000000001d3ccceee6d9f9c3b79ed5fadd98e32b5d48b22e00000000000000000000000000000000000000000000000081835803e08cdbe800000000000000000000000000000000000000000000000000000002540be4000000000000000000000000000000000000000000000000000000000000000000010000000000001241a0ffcb6ddad3b101000000000000000000001533a4820d0100000000000001d668252e046a25db00000000000000000000000000000000",
                    "logDecoded": true,
                    "operation": "EVENT",
                    "revert": false,
                    "status": true,
                    "topics": [
                        "0x5171a2ba3550a103fd09ca39b7dcfdf328a5acef18e290c7802d69c8ba73d8d9",
                        "0x0000000000000000000000008d884504cc530a0ee2f15da13d0dbf6bf8d81a37",
                        "0x000000000000000000000000f809e07870dca762b9536d61a4fbef1a17178092"
                    ]
                },
                "nodeType": 1
            },
            "2": {
                "invocation": {
                    "address": "0xcd37221c53b5208a2d7eabc7d5051b98d8030424",
                    "callData": "0x",
                    "decodedMethod": {
                        "callParams": [],
                        "constructorArguments": "",
                        "name": "getPrice",
                        "returnParams": [
                            {
                                "name": "",
                                "type": "uint256",
                                "value": "940,123,532,232,135,000,000,000,000"
                            }
                        ],
                        "signature": "getPrice()"
                    },
                    "errorInfo": "",
                    "fromAddress": "0x09403fd14510f8196f7879ef514827cd76960b5d",
                    "gasUsed": 11171,
                    "id": 2,
                    "methodDecoded": true,
                    "operation": "STATICCALL",
                    "output": "0x00000000000000000000000000000000000000000309a6e6cd735982759f7000",
                    "revert": false,
                    "revertMessage": "",
                    "selector": "0x98d5fdca",
                    "status": true,
                    "value": "0"
                },
                "nodeType": 0
            },
            "3": {
                "invocation": {
                    "address": "0x538038e526517680735568f9c5342c6e68bbda12",
                    "callData": "0x",
                    "decodedMethod": {
                        "callParams": [],
                        "constructorArguments": "",
                        "name": "getPrice",
                        "returnParams": [
                            {
                                "name": "",
                                "type": "uint256",
                                "value": "1,063,690,000,000,000,000,000"
                            }
                        ],
                        "signature": "getPrice()"
                    },
                    "errorInfo": "",
                    "fromAddress": "0xcd37221c53b5208a2d7eabc7d5051b98d8030424",
                    "gasUsed": 7218,
                    "id": 3,
                    "methodDecoded": true,
                    "operation": "STATICCALL",
                    "output": "0x000000000000000000000000000000000000000000000039a9aa03542f410000",
                    "revert": false,
                    "revertMessage": "",
                    "selector": "0x98d5fdca",
                    "status": true,
                    "value": "0"
                },
                "nodeType": 0
            },
            "4": {
                "invocation": {
                    "address": "0x64de91f5a373cd4c28de3600cb34c7c6ce410c85",
                    "callData": "0x",
                    "decodedMethod": {
                        "callParams": [],
                        "constructorArguments": "",
                        "name": "read",
                        "returnParams": [
                            {
                                "name": "",
                                "type": "uint256",
                                "value": "1,063,690,000,000,000,000,000"
                            }
                        ],
                        "signature": "read()"
                    },
                    "errorInfo": "",
                    "fromAddress": "0x538038e526517680735568f9c5342c6e68bbda12",
                    "gasUsed": 2830,
                    "id": 4,
                    "methodDecoded": true,
                    "operation": "STATICCALL",
                    "output": "0x000000000000000000000000000000000000000000000039a9aa03542f410000",
                    "revert": false,
                    "revertMessage": "",
                    "selector": "0x57de26a4",
                    "status": true,
                    "value": "0"
                },
                "nodeType": 0
            },
            "5": {
                "invocation": {
                    "address": "0x5ddc23dee470aec28d51721b4e3a25f9399166ec",
                    "callData": "0x0000000000000000000000000000000000000000000000000000000000000058",
                    "decodedMethod": {
                        "callParams": [
                            {
                                "name": "timeDelta",
                                "type": "uint256",
                                "value": "88"
                            }
                        ],
                        "constructorArguments": "",
                        "name": "getFunding",
                        "returnParams": [
                            {
                                "name": "",
                                "type": "bool",
                                "value": true
                            },
                            {
                                "name": "",
                                "type": "uint256",
                                "value": "826,528,193,128"
                            }
                        ],
                        "signature": "getFunding(uint256)"
                    },
                    "errorInfo": "",
                    "fromAddress": "0x09403fd14510f8196f7879ef514827cd76960b5d",
                    "gasUsed": 1908,
                    "id": 5,
                    "methodDecoded": true,
                    "operation": "STATICCALL",
                    "output": "0x0000000000000000000000000000000000000000000000000000000000000001000000000000000000000000000000000000000000000000000000c070eb5a68",
                    "revert": false,
                    "revertMessage": "",
                    "selector": "0xebed4bd4",
                    "status": true,
                    "value": "0"
                },
                "nodeType": 0
            },
            "6": {
                "event": {
                    "contract": "0x09403fd14510f8196f7879ef514827cd76960b5d",
                    "decodedLog": {
                        "name": "LogIndex",
                        "params": [
                            {
                                "name": "index",
                                "type": "bytes32",
                                "value": "0x00000000000000000000005ff2c3e0000000000001456a86c63b412c52ae13f5"
                            }
                        ],
                        "signature": "LogIndex(bytes32)"
                    },
                    "id": 6,
                    "logData": "0x00000000000000000000005ff2c3e0000000000001456a86c63b412c52ae13f5",
                    "logDecoded": true,
                    "operation": "EVENT",
                    "revert": false,
                    "status": true,
                    "topics": [
                        "0x995e61c355733308eab39a59e1e1ac167274cdd1ad707fe4d13e127a01076428"
                    ]
                },
                "nodeType": 1
            },
            "7": {
                "event": {
                    "contract": "0x09403fd14510f8196f7879ef514827cd76960b5d",
                    "decodedLog": {
                        "name": "LogAccountSettled",
                        "params": [
                            {
                                "name": "account",
                                "type": "address",
                                "value": "0x8b546c091bdb06edf6bb93bceb7c1e60a1140293"
                            },
                            {
                                "name": "isPositive",
                                "type": "bool",
                                "value": true
                            },
                            {
                                "name": "amount",
                                "type": "uint256",
                                "value": "15,540,772,088,258"
                            },
                            {
                                "name": "balance",
                                "type": "bytes32",
                                "value": "0x01000000000000028955b9418daba75a000000000000000000000004a817c800"
                            }
                        ],
                        "signature": "LogAccountSettled(address,bool,uint256,bytes32)"
                    },
                    "id": 7,
                    "logData": "0x000000000000000000000000000000000000000000000000000000000000000100000000000000000000000000000000000000000000000000000e225e3329c201000000000000028955b9418daba75a000000000000000000000004a817c800",
                    "logDecoded": true,
                    "operation": "EVENT",
                    "revert": false,
                    "status": true,
                    "topics": [
                        "0x022694ffbbd957d26de6b85c040be68ec582d13d40114b29130581793a1bf31e",
                        "0x0000000000000000000000008b546c091bdb06edf6bb93bceb7c1e60a1140293"
                    ]
                },
                "nodeType": 1
            },
            "8": {
                "event": {
                    "contract": "0x09403fd14510f8196f7879ef514827cd76960b5d",
                    "decodedLog": {
                        "name": "LogAccountSettled",
                        "params": [
                            {
                                "name": "account",
                                "type": "address",
                                "value": "0x8d884504cc530a0ee2f15da13d0dbf6bf8d81a37"
                            },
                            {
                                "name": "isPositive",
                                "type": "bool",
                                "value": false
                            },
                            {
                                "name": "amount",
                                "type": "uint256",
                                "value": "62,987,318,399,321"
                            },
                            {
                                "name": "balance",
                                "type": "bytes32",
                                "value": "0x0100000000000012c32457cf4e67af99010000000000000000000012df989e0d"
                            }
                        ],
                        "signature": "LogAccountSettled(address,bool,uint256,bytes32)"
                    },
                    "id": 8,
                    "logData": "0x00000000000000000000000000000000000000000000000000000000000000000000000000000000000000000000000000000000000000000000394960bd11590100000000000012c32457cf4e67af99010000000000000000000012df989e0d",
                    "logDecoded": true,
                    "operation": "EVENT",
                    "revert": false,
                    "status": true,
                    "topics": [
                        "0x022694ffbbd957d26de6b85c040be68ec582d13d40114b29130581793a1bf31e",
                        "0x0000000000000000000000008d884504cc530a0ee2f15da13d0dbf6bf8d81a37"
                    ]
                },
                "nodeType": 1
            },
            "9": {
                "invocation": {
                    "address": "0x1d3ccceee6d9f9c3b79ed5fadd98e32b5d48b22e",
                    "callData": "0x000000000000000000000000f809e07870dca762b9536d61a4fbef1a171780920000000000000000000000008b546c091bdb06edf6bb93bceb7c1e60a1140293000000000000000000000000f809e07870dca762b9536d61a4fbef1a1717809200000000000000000000000000000000000000000309a6e6cd735982759f700000000000000000000000000000000000000000000000000000000000000000c0000000000000000000000000000000000000000000000000000000000000000000000000000000000000000000000000000000000000000000000000000001e0dc9089930149612d878696b2f5a4e70638fd949bd2168259cea1b156006e075100000000000000000000000000000000000000000000000000000002540be40000000000000000000000000000000000000000000000000000000000401f67c0000000000000000000000000000000000000000000000000000000000000000000000000000000000000000000000000000000000000000000fe8b06639ffa800000000000000000000000008b546c091bdb06edf6bb93bceb7c1e60a1140293000000000000000000000000f809e07870dca762b9536d61a4fbef1a17178092000000000000000000000000000000000000000000000000000000005ff2c81a00000000000000000000000000000000000000000000000000000002540be400000000000000000000000000000000000000000000000000000000003fd629c0000000000000000000000000000000000000000000000000005442b8ece8f64d00000000000000000000000000000000000000000000000000000000000000004259ccca6aab9ce8545ef6c7264b7a6ccc6f02642c6a647716f3fe41f3bc0f824909b6acb385a1b8a7cc35426bee37492dbf8bea8d6f0c0d71487261e66441ac1c00000000000000000000000000000000000000000000000000000000000000",
                    "decodedMethod": {
                        "callParams": [
                            {
                                "name": "sender",
                                "type": "address",
                                "value": "0xf809e07870dca762b9536d61a4fbef1a17178092"
                            },
                            {
                                "name": "maker",
                                "type": "address",
                                "value": "0x8b546c091bdb06edf6bb93bceb7c1e60a1140293"
                            },
                            {
                                "name": "taker",
                                "type": "address",
                                "value": "0xf809e07870dca762b9536d61a4fbef1a17178092"
                            },
                            {
                                "name": "price",
                                "type": "uint256",
                                "value": "940,123,532,232,135,000,000,000,000"
                            },
                            {
                                "name": "data",
                                "type": "bytes",
                                "value": "0xdc9089930149612d878696b2f5a4e70638fd949bd2168259cea1b156006e075100000000000000000000000000000000000000000000000000000002540be40000000000000000000000000000000000000000000000000000000000401f67c0000000000000000000000000000000000000000000000000000000000000000000000000000000000000000000000000000000000000000000fe8b06639ffa800000000000000000000000008b546c091bdb06edf6bb93bceb7c1e60a1140293000000000000000000000000f809e07870dca762b9536d61a4fbef1a17178092000000000000000000000000000000000000000000000000000000005ff2c81a00000000000000000000000000000000000000000000000000000002540be400000000000000000000000000000000000000000000000000000000003fd629c0000000000000000000000000000000000000000000000000005442b8ece8f64d00000000000000000000000000000000000000000000000000000000000000004259ccca6aab9ce8545ef6c7264b7a6ccc6f02642c6a647716f3fe41f3bc0f824909b6acb385a1b8a7cc35426bee37492dbf8bea8d6f0c0d71487261e66441ac1c00000000000000000000000000000000000000000000000000000000000000"
                            },
                            {
                                "name": "",
                                "type": "bytes32",
                                "value": "0x0000000000000000000000000000000000000000000000000000000000000000"
                            }
                        ],
                        "constructorArguments": "",
                        "name": "trade",
                        "returnParams": [
                            {
                                "name": "",
                                "type": "(uint256,uint256,bool,bytes32)",
                                "value": [
                                    {
                                        "name": "marginAmount",
                                        "type": "uint256",
                                        "value": "9,115,618,486,836,590,429"
                                    },
                                    {
                                        "name": "positionAmount",
                                        "type": "uint256",
                                        "value": "10,000,000,000"
                                    },
                                    {
                                        "name": "isBuy",
                                        "type": "bool",
                                        "value": true
                                    },
                                    {
                                        "name": "traderFlags",
                                        "type": "bytes32",
                                        "value": "0x0000000000000000000000000000000000000000000000000000000000000001"
                                    }
                                ]
                            }
                        ],
                        "signature": "trade(address,address,address,uint256,bytes,bytes32)"
                    },
                    "errorInfo": "",
                    "fromAddress": "0x09403fd14510f8196f7879ef514827cd76960b5d",
                    "gasUsed": 42195,
                    "id": 9,
                    "methodDecoded": true,
                    "operation": "CALL",
                    "output": "0x0000000000000000000000000000000000000000000000007e812eb797e0f75d00000000000000000000000000000000000000000000000000000002540be40000000000000000000000000000000000000000000000000000000000000000010000000000000000000000000000000000000000000000000000000000000001",
                    "revert": false,
                    "revertMessage": "",
                    "selector": "0x970c2ba1",
                    "status": true,
                    "value": "0"
                },
                "nodeType": 0
            }
        },
        "gasFlame": [
            {
                "children": [
                    {
                        "children": [
                            {
                                "children": [],
                                "depth": 0,
                                "name": "Initial Gas",
                                "value": 32820
                            },
                            {
                                "children": [
                                    {
                                        "children": [
                                            {
                                                "children": [
                                                    {
                                                        "children": [
                                                            {
                                                                "children": [],
                                                                "depth": 4,
                                                                "name": "read",
                                                                "value": 2830
                                                            }
                                                        ],
                                                        "depth": 3,
                                                        "name": "getPrice",
                                                        "value": 7218
                                                    }
                                                ],
                                                "depth": 2,
                                                "name": "getPrice",
                                                "value": 11171
                                            },
                                            {
                                                "children": [],
                                                "depth": 2,
                                                "name": "getFunding",
                                                "value": 1908
                                            },
                                            {
                                                "children": [
                                                    {
                                                        "children": [],
                                                        "depth": 3,
                                                        "name": "ecrecover",
                                                        "value": 3000
                                                    }
                                                ],
                                                "depth": 2,
                                                "name": "trade",
                                                "value": 42195
                                            },
                                            {
                                                "children": [
                                                    {
                                                        "children": [],
                                                        "depth": 3,
                                                        "name": "ecrecover",
                                                        "value": 3000
                                                    }
                                                ],
                                                "depth": 2,
                                                "name": "trade",
                                                "value": 42852
                                            }
                                        ],
                                        "depth": 1,
                                        "name": "trade",
                                        "value": 242823
                                    }
                                ],
                                "depth": 0,
                                "name": "Executed Gas",
                                "value": 244918
                            }
                        ],
                        "depth": -1,
                        "name": "Actual Gas Used",
                        "value": 273538
                    },
                    {
                        "children": [],
                        "depth": -1,
                        "name": "Refunded Gas",
                        "value": 4200
                    }
                ],
                "depth": -2,
                "name": "Total Gas",
                "value": 277738
            }
        ],
        "isConfirmed": true,
        "mainTrace": [
            {
                "children": [
                    {
                        "children": [
                            {
                                "children": [
                                    {
                                        "children": [
                                            {
                                                "children": [
                                                    {
                                                        "children": [],
                                                        "depth": 4,
                                                        "id": 4,
                                                        "order": 4
                                                    }
                                                ],
                                                "depth": 3,
                                                "id": 3,
                                                "order": 3
                                            }
                                        ],
                                        "depth": 2,
                                        "id": 2,
                                        "order": 2
                                    },
                                    {
                                        "children": [],
                                        "depth": 2,
                                        "id": 5,
                                        "order": 5
                                    },
                                    {
                                        "children": [],
                                        "depth": 2,
                                        "id": 6,
                                        "order": 6
                                    },
                                    {
                                        "children": [],
                                        "depth": 2,
                                        "id": 7,
                                        "order": 7
                                    },
                                    {
                                        "children": [],
                                        "depth": 2,
                                        "id": 8,
                                        "order": 8
                                    },
                                    {
                                        "children": [
                                            {
                                                "children": [],
                                                "depth": 3,
                                                "id": 10,
                                                "order": 10
                                            },
                                            {
                                                "children": [],
                                                "depth": 3,
                                                "id": 11,
                                                "order": 11
                                            }
                                        ],
                                        "depth": 2,
                                        "id": 9,
                                        "order": 9
                                    },
                                    {
                                        "children": [],
                                        "depth": 2,
                                        "id": 12,
                                        "order": 12
                                    },
                                    {
                                        "children": [
                                            {
                                                "children": [],
                                                "depth": 3,
                                                "id": 14,
                                                "order": 14
                                            },
                                            {
                                                "children": [],
                                                "depth": 3,
                                                "id": 15,
                                                "order": 15
                                            }
                                        ],
                                        "depth": 2,
                                        "id": 13,
                                        "order": 13
                                    },
                                    {
                                        "children": [],
                                        "depth": 2,
                                        "id": 16,
                                        "order": 16
                                    }
                                ],
                                "depth": 1,
                                "id": 1,
                                "order": 1
                            }
                        ],
                        "depth": 0,
                        "id": 0,
                        "order": 0
                    }
                ],
                "depth": -1,
                "id": -1,
                "order": -1
            }
        ],
        "mainTraceNodeCount": 17,
        "parentIdMap": {
            "0": -1,
            "1": 0,
            "10": 9,
            "11": 9,
            "12": 1,
            "13": 1,
            "14": 13,
            "15": 13,
            "16": 1,
            "2": 1,
            "3": 2,
            "4": 3,
            "5": 1,
            "6": 1,
            "7": 1,
            "8": 1,
            "9": 1
        },
        "tidyTrace": [
            {
                "children": [
                    {
                        "children": [
                            {
                                "children": [
                                    {
                                        "children": [],
                                        "depth": 2,
                                        "id": 6,
                                        "order": 6
                                    },
                                    {
                                        "children": [],
                                        "depth": 2,
                                        "id": 7,
                                        "order": 7
                                    },
                                    {
                                        "children": [],
                                        "depth": 2,
                                        "id": 8,
                                        "order": 8
                                    },
                                    {
                                        "children": [
                                            {
                                                "children": [],
                                                "depth": 3,
                                                "id": 11,
                                                "order": 11
                                            }
                                        ],
                                        "depth": 2,
                                        "id": 9,
                                        "order": 9
                                    },
                                    {
                                        "children": [],
                                        "depth": 2,
                                        "id": 12,
                                        "order": 12
                                    },
                                    {
                                        "children": [
                                            {
                                                "children": [],
                                                "depth": 3,
                                                "id": 15,
                                                "order": 15
                                            }
                                        ],
                                        "depth": 2,
                                        "id": 13,
                                        "order": 13
                                    },
                                    {
                                        "children": [],
                                        "depth": 2,
                                        "id": 16,
                                        "order": 16
                                    }
                                ],
                                "depth": 1,
                                "id": 1,
                                "order": 1
                            }
                        ],
                        "depth": 0,
                        "id": 0,
                        "order": 0
                    }
                ],
                "depth": -1,
                "id": -1,
                "order": -1
            }
        ],
        "tidyTraceNodeCount": 11
    },
    "state_change": {
        "stateChanges": [
            {
                "address": "0x09403fd14510f8196f7879ef514827cd76960b5d",
                "erc": "",
                "slots": [
                    {
                        "current": "0x00000000000000000000000000000001456a86c63b412c52ae13f5005ff2c3e0",
                        "key": "0xde48744a191e15faa66fc530ea8c538c3c8175637132934f62e387802f5fd4aa",
                        "prev": "0x00000000000000000000000000000001456ab0e5ceeef5b1393c54005ff2c388"
                    },
                    {
                        "current": "0x00000000000000000000000000000000000000000001d668252e046a25db0001",
                        "key": "0xbe03428c26654030c11dd26ac2a3ca5153bbd4c39d7241712f31b3de7ad97209",
                        "prev": "0x00000000000000000000000000000000000000000001d365fbe1bbbe41500001"
                    },
                    {
                        "current": "0x00000000000000000000000000000001456a86c63b412c52ae13f5005ff2c3e0",
                        "key": "0x0000000000000000000000000000000000000000000000000000000000000008",
                        "prev": "0x00000000000000000000000000000001456ab0e5ceeef5b1393c54005ff2c388"
                    },
                    {
                        "current": "0x00000000000000000000000000000001456a86c63b412c52ae13f5005ff2c3e0",
                        "key": "0x2cc84ca3b471c6df888733799d3a02333b8bce6e79f8450e88832815cdefa933",
                        "prev": "0x00000000000000000000000000000001456ab0e5ceeef5b1393c54005ff2c388"
                    },
                    {
                        "current": "0x0000000000000000000006fc23ac000000000000000307d6e7f9258c9eb70001",
                        "key": "0x6113025c266583478a5b5fed0433f2c7a05a022782e7e0e2a13685f8de4c1422",
                        "prev": "0x0000000000000000000004a817c800000000000000028955ab1f2f787d980001"
                    },
                    {
                        "current": "0x00000000000000000000000000000001456a86c63b412c52ae13f5005ff2c3e0",
                        "key": "0xb8fa69f12c067ea0376ca69584a9d4ea315a1378410bac66cc2efb56f96d3199",
                        "prev": "0x00000000000000000000000000000001456ab0e5ceeef5b1393c54005ff2c388"
                    },
                    {
                        "current": "0x000000000000000000001533a4820d0000000000001241a0ffcb6ddad3b10101",
                        "key": "0x89a24ec560ae49faa413b0ec9740ac0d85d3252c080db066f93581d6f7c8e185",
                        "prev": "0x0000000000000000000012df989e0d00000000000012c3249118af24c0f20101"
                    }
                ],
                "storageVariables": [
                    {
                        "name": "_LOCAL_INDEXES_",
                        "type": "mapping(address => struct P1Types.Index)",
                        "value": {
                            "pairs": [
                                {
                                    "key": "0x8b546c091bdb06edf6bb93bceb7c1e60a1140293",
                                    "value": {
                                        "fields": [
                                            {
                                                "name": "timestamp",
                                                "type": "uint32",
                                                "value": {
                                                    "current": "1609745376",
                                                    "prev": "1609745288",
                                                    "typeTag": 1
                                                }
                                            },
                                            {
                                                "name": "isPositive",
                                                "type": "bool",
                                                "value": {
                                                    "current": "false",
                                                    "prev": "false",
                                                    "typeTag": 1
                                                }
                                            },
                                            {
                                                "name": "value",
                                                "type": "uint128",
                                                "value": {
                                                    "current": "393403948369726843009242101",
                                                    "prev": "393404725408331255948852308",
                                                    "typeTag": 1
                                                }
                                            }
                                        ],
                                        "typeTag": 3
                                    }
                                },
                                {
                                    "key": "0x8d884504cc530a0ee2f15da13d0dbf6bf8d81a37",
                                    "value": {
                                        "fields": [
                                            {
                                                "name": "timestamp",
                                                "type": "uint32",
                                                "value": {
                                                    "current": "1609745376",
                                                    "prev": "1609745288",
                                                    "typeTag": 1
                                                }
                                            },
                                            {
                                                "name": "isPositive",
                                                "type": "bool",
                                                "value": {
                                                    "current": "false",
                                                    "prev": "false",
                                                    "typeTag": 1
                                                }
                                            },
                                            {
                                                "name": "value",
                                                "type": "uint128",
                                                "value": {
                                                    "current": "393403948369726843009242101",
                                                    "prev": "393404725408331255948852308",
                                                    "typeTag": 1
                                                }
                                            }
                                        ],
                                        "typeTag": 3
                                    }
                                },
                                {
                                    "key": "0xf809e07870dca762b9536d61a4fbef1a17178092",
                                    "value": {
                                        "fields": [
                                            {
                                                "name": "timestamp",
                                                "type": "uint32",
                                                "value": {
                                                    "current": "1609745376",
                                                    "prev": "1609745288",
                                                    "typeTag": 1
                                                }
                                            },
                                            {
                                                "name": "isPositive",
                                                "type": "bool",
                                                "value": {
                                                    "current": "false",
                                                    "prev": "false",
                                                    "typeTag": 1
                                                }
                                            },
                                            {
                                                "name": "value",
                                                "type": "uint128",
                                                "value": {
                                                    "current": "393403948369726843009242101",
                                                    "prev": "393404725408331255948852308",
                                                    "typeTag": 1
                                                }
                                            }
                                        ],
                                        "typeTag": 3
                                    }
                                }
                            ],
                            "typeTag": 4
                        }
                    },
                    {
                        "name": "_BALANCES_",
                        "type": "mapping(address => struct P1Types.Balance)",
                        "value": {
                            "pairs": [
                                {
                                    "key": "0x8b546c091bdb06edf6bb93bceb7c1e60a1140293",
                                    "value": {
                                        "fields": [
                                            {
                                                "name": "marginIsPositive",
                                                "type": "bool",
                                                "value": {
                                                    "current": "true",
                                                    "prev": "true",
                                                    "typeTag": 1
                                                }
                                            },
                                            {
                                                "name": "positionIsPositive",
                                                "type": "bool",
                                                "value": {
                                                    "current": "false",
                                                    "prev": "false",
                                                    "typeTag": 1
                                                }
                                            },
                                            {
                                                "name": "margin",
                                                "type": "uint120",
                                                "value": {
                                                    "current": "55905126081673076407",
                                                    "prev": "46789492054064397720",
                                                    "typeTag": 1
                                                }
                                            },
                                            {
                                                "name": "position",
                                                "type": "uint120",
                                                "value": {
                                                    "current": "30000000000",
                                                    "prev": "20000000000",
                                                    "typeTag": 1
                                                }
                                            }
                                        ],
                                        "typeTag": 3
                                    }
                                },
                                {
                                    "key": "0x8d884504cc530a0ee2f15da13d0dbf6bf8d81a37",
                                    "value": {
                                        "fields": [
                                            {
                                                "name": "marginIsPositive",
                                                "type": "bool",
                                                "value": {
                                                    "current": "true",
                                                    "prev": "true",
                                                    "typeTag": 1
                                                }
                                            },
                                            {
                                                "name": "positionIsPositive",
                                                "type": "bool",
                                                "value": {
                                                    "current": "true",
                                                    "prev": "true",
                                                    "typeTag": 1
                                                }
                                            },
                                            {
                                                "name": "margin",
                                                "type": "uint120",
                                                "value": {
                                                    "current": "336770454184697451441",
                                                    "prev": "346102916798533124338",
                                                    "typeTag": 1
                                                }
                                            },
                                            {
                                                "name": "position",
                                                "type": "uint120",
                                                "value": {
                                                    "current": "91060732429",
                                                    "prev": "81060732429",
                                                    "typeTag": 1
                                                }
                                            }
                                        ],
                                        "typeTag": 3
                                    }
                                },
                                {
                                    "key": "0xf809e07870dca762b9536d61a4fbef1a17178092",
                                    "value": {
                                        "fields": [
                                            {
                                                "name": "marginIsPositive",
                                                "type": "bool",
                                                "value": {
                                                    "current": "true",
                                                    "prev": "true",
                                                    "typeTag": 1
                                                }
                                            },
                                            {
                                                "name": "positionIsPositive",
                                                "type": "bool",
                                                "value": {
                                                    "current": "false",
                                                    "prev": "false",
                                                    "typeTag": 1
                                                }
                                            },
                                            {
                                                "name": "margin",
                                                "type": "uint120",
                                                "value": {
                                                    "current": "33896383474976826843",
                                                    "prev": "33679602335296143696",
                                                    "typeTag": 1
                                                }
                                            },
                                            {
                                                "name": "position",
                                                "type": "uint120",
                                                "value": {
                                                    "current": "0",
                                                    "prev": "0",
                                                    "typeTag": 1
                                                }
                                            }
                                        ],
                                        "typeTag": 3
                                    }
                                }
                            ],
                            "typeTag": 4
                        }
                    },
                    {
                        "name": "_GLOBAL_INDEX_",
                        "type": "struct P1Types.Index",
                        "value": {
                            "fields": [
                                {
                                    "name": "timestamp",
                                    "type": "uint32",
                                    "value": {
                                        "current": "1609745376",
                                        "prev": "1609745288",
                                        "typeTag": 1
                                    }
                                },
                                {
                                    "name": "isPositive",
                                    "type": "bool",
                                    "value": {
                                        "current": "false",
                                        "prev": "false",
                                        "typeTag": 1
                                    }
                                },
                                {
                                    "name": "value",
                                    "type": "uint128",
                                    "value": {
                                        "current": "393403948369726843009242101",
                                        "prev": "393404725408331255948852308",
                                        "typeTag": 1
                                    }
                                }
                            ],
                            "typeTag": 3
                        }
                    }
                ]
            },
            {
                "address": "0x1d3ccceee6d9f9c3b79ed5fadd98e32b5d48b22e",
                "erc": "",
                "slots": [
                    {
                        "current": "0x00000000000000000000000000000000000000000000000000000002540be400",
                        "key": "0x37edf419c5799feba37b222366d9e968a12d585fc48296fdda0b52e498780de1",
                        "prev": "0x0000000000000000000000000000000000000000000000000000000000000000"
                    },
                    {
                        "current": "0x00000000000000000000000000000000000000000000000000000002540be400",
                        "key": "0x80db2a387887779a746dfcfe9436925a9ed581506a3aaba13eb7831d435ae2cd",
                        "prev": "0x0000000000000000000000000000000000000000000000000000000000000000"
                    }
                ],
                "storageVariables": [
                    {
                        "name": "_FILLED_AMOUNT_",
                        "type": "mapping(bytes32 => uint256)",
                        "value": {
                            "pairs": [
                                {
                                    "key": "0x047dd0ef01201de02286310542ceb0578fb18699f5d83959bf1a91a15363a4c6",
                                    "value": {
                                        "current": "10000000000",
                                        "prev": "0",
                                        "typeTag": 1
                                    }
                                },
                                {
                                    "key": "0xefc35c488d7adc75705aa18895584d3448b234494c7b3856ea5bb8eb84232edd",
                                    "value": {
                                        "current": "10000000000",
                                        "prev": "0",
                                        "typeTag": 1
                                    }
                                }
                            ],
                            "typeTag": 4
                        }
                    }
                ]
            }
        ]
    }
}