{
    "balance_change": {
        "balanceChanges": [
            {
                "account": "0x272b5343a0bbebe621f2014f376049f28266fcf3",
                "assets": [
                    {
                        "address": "0x3845badade8e6dff049820680d1f14bd3903a5d0",
                        "amount": "31.5",
                        "iconUrl": "https://assets.blocksec.com/icon/7cbe910ee62b95d006cdf0f6bff21064470697470c1007c6bbb0744d19bfd504.png",
                        "isERC1155": false,
                        "isERC721": false,
                        "sign": false,
                        "value": "33.04794843"
                    },
                    {
                        "address": "0xa342f5d851e866e18ff98f351f2c6637f4478db5",
                        "amount": "10",
                        "iconUrl": "",
                        "isERC1155": true,
                        "isERC721": false,
                        "sign": true,
                        "tokenID": "86901659948570252904039139712966444380674537905050899489723982622615589122049",
                        "value": ""
                    }
                ]
            },
            {
                "account": "0x0eb04462d69b1d267d269377e34f60b9de1c8510",
                "assets": [
                    {
                        "address": "0x3845badade8e6dff049820680d1f14bd3903a5d0",
                        "amount": "1.5",
                        "iconUrl": "https://assets.blocksec.com/icon/7cbe910ee62b95d006cdf0f6bff21064470697470c1007c6bbb0744d19bfd504.png",
                        "isERC1155": false,
                        "isERC721": false,
                        "sign": true,
                        "value": "1.57371183"
                    }
                ]
            },
            {
                "account": "0xc02098b3dca13c3171522a9aefa1dc40f4aa1107",
                "assets": [
                    {
                        "address": "0x3845badade8e6dff049820680d1f14bd3903a5d0",
                        "amount": "30",
                        "iconUrl": "https://assets.blocksec.com/icon/7cbe910ee62b95d006cdf0f6bff21064470697470c1007c6bbb0744d19bfd504.png",
                        "isERC1155": false,
                        "isERC721": false,
                        "sign": true,
                        "value": "31.4742366"
                    },
                    {
                        "address": "0xa342f5d851e866e18ff98f351f2c6637f4478db5",
                        "amount": "10",
                        "iconUrl": "",
                        "isERC1155": true,
                        "isERC721": false,
                        "sign": false,
                        "tokenID": "86901659948570252904039139712966444380674537905050899489723982622615589122049",
                        "value": ""
                    }
                ]
            }
        ]
    },
    "profile": {
        "basic_info": {
            "baseFee": "5.583393297",
            "blockNumber": 15406048,
            "callData": "0x06244768000000000000000000000000272b5343a0bbebe621f2014f376049f28266fcf3000000000000000000000000c02098b3dca13c3171522a9aefa1dc40f4aa11070000000000000000000000003845badade8e6dff049820680d1f14bd3903a5d0000000000000000000000000000000000000000000000000000000000000010000000000000000000000000000000000000000000000000000000000000001600000000000000000000000000000000000000000000000000000000000000240000000000000000000000000000000000000000000000000000000000000028000000000000000000000000000000000000000000000000000000000000002c00000000000000000000000000000000000000000000000000000000000000002000000000000000000000000000000000000000000000000000000000000000a000000000000000000000000000000000000000000000001b5267b1b18ce00000000000000000000000000000000000000000000000000000000000000000006807f78a2088898560362085e23c35b9f7a4d360bad246145bd11dff744b5a18800000000000000000000000000000000000000000000000029a2241af62c000000000000000000000000000000000000000000000000000029a2241af62c000000000000000000000000000000000000000000000000000000000000628f4f640000000000000000000000000000000000000000000000000000000001e1338000000000000000000000000000000000000000000000000000000000000007d00000000000000000000000000000000000000000000000000000000000000001c02098b3dca13c3171522a9aefa1dc40f4aa11070000000000000000008070010000000000000000000000000000000000000000000000000000000000000001000000000000000000000000000000000000000000000000000000000000000100000000000000000000000000000000000000000000000000000000000000416721d9df666dec24835ad58a82ebf854a38d0bef10f949e08c7c31bb74dba704269b8452a4df9220b33fe4d0e147faf7ca77dc0b2917d49ee53bb73362568b411b00000000000000000000000000000000000000000000000000000000000000",
            "debugEnable": true,
            "errorInfo": "",
            "eventCount": 4,
            "feeRecipient": "0xea674fdde714fd979de3edf0f56aa9716b898ec8",
            "formatValue": "0",
            "gasLimit": 172503,
            "gasPrice": "7.083393297",
            "gasUsed": 115002,
            "intTxnCount": 5,
            "internalRevert": false,
            "internalRevertMessage": "",
            "isContractCreation": false,
            "isFlashloan": false,
            "maxFee": "7.456629336",
            "nonce": 10,
            "overwritedBlockNumber": -1,
            "priorityFee": "1.5",
            "receiver": "0x921fd42f147b26b51aa3c7fa3f2e2ce7704c2858",
            "revertMessage": "",
            "sender": "0x272b5343a0bbebe621f2014f376049f28266fcf3",
            "simulationEnable": true,
            "sourceTxnHash": "0xc37ad7767c4ee521ecd682af5c4cbf2b650f3f6d853ce0324177f370f43c3814",
            "status": true,
            "timestamp": "2022-08-25T00:31:57Z",
            "transactionFee": "0.000814604395941594",
            "txnHash": "0xc37ad7767c4ee521ecd682af5c4cbf2b650f3f6d853ce0324177f370f43c3814",
            "txnIndex": 36,
            "type": 2,
            "value": "0"
        },
        "fund_flow": [
            {
                "amount": "30",
                "from": "0x272b5343a0bbebe621f2014f376049f28266fcf3",
                "id": 1,
                "isERC1155": false,
                "isERC721": false,
                "isReverted": false,
                "order": 1,
                "to": "0xc02098b3dca13c3171522a9aefa1dc40f4aa1107",
                "token": "0x3845badade8e6dff049820680d1f14bd3903a5d0"
            },
            {
                "amount": "1.5",
                "from": "0x272b5343a0bbebe621f2014f376049f28266fcf3",
                "id": 2,
                "isERC1155": false,
                "isERC721": false,
                "isReverted": false,
                "order": 2,
                "to": "0x0eb04462d69b1d267d269377e34f60b9de1c8510",
                "token": "0x3845badade8e6dff049820680d1f14bd3903a5d0"
            },
            {
                "amount": "10",
                "from": "0xc02098b3dca13c3171522a9aefa1dc40f4aa1107",
                "id": 3,
                "isERC1155": true,
                "isERC721": false,
                "isReverted": false,
                "order": 3,
                "to": "0x272b5343a0bbebe621f2014f376049f28266fcf3",
                "token": "0xa342f5d851e866e18ff98f351f2c6637f4478db5",
                "tokenID": "86901659948570252904039139712966444380674537905050899489723982622615589122049"
            }
        ],
        "token_infos": [
            {
                "address": "0x3845badade8e6dff049820680d1f14bd3903a5d0",
                "decimals": 18
            },
            {
                "address": "0xc02aaa39b223fe8d0a0e5c4f27ead9083c756cc2",
                "decimals": 18
            },
            {
                "address": "0xeeeeeeeeeeeeeeeeeeeeeeeeeeeeeeeeeeeeeeee",
                "decimals": 18
            }
        ]
    },
    "address_label": {
        "labels": [
            {
                "address": "0xeeeeeeeeeeeeeeeeeeeeeeeeeeeeeeeeeeeeeeee",
                "label": "Ether"
            },
            {
                "address": "0x7fbf5c9af42a6d146dcc18762f515692cd5f853b",
                "label": "Sandbox&#39;s ASSETs (ASSET)"
            },
            {
                "address": "0xa342f5d851e866e18ff98f351f2c6637f4478db5",
                "label": "The Sandbox: ASSET Token"
            },
            {
                "address": "0x0eb04462d69b1d267d269377e34f60b9de1c8510",
                "label": "The Sandbox: Land Sale Fee Recipient Vault"
            },
            {
                "address": "0x0000000000000000000000000000000000000001",
                "label": "Precompiled"
            },
            {
                "address": "0x3845badade8e6dff049820680d1f14bd3903a5d0",
                "label": "The Sandbox: SAND Token"
            },
            {
                "address": "0x921fd42f147b26b51aa3c7fa3f2e2ce7704c2858",
                "label": "AssetSignedAuction"
            },
            {
                "address": "0x0000000000000000000000000000000000000002",
                "label": "Precompiled"
            },
            {
                "address": "0x0000000000000000000000000000000000000003",
                "label": "Precompiled"
            },
            {
                "address": "0x0000000000000000000000000000000000000004",
                "label": "Precompiled"
            }
        ]
    },
    "trace": {
        "accountLabels": null,
        "dataMap": {
            "-1": {
                "invocation": {
                    "address": "0x272b5343a0bbebe621f2014f376049f28266fcf3",
                    "callData": "",
                    "decodedMethod": null,
                    "errorInfo": "",
                    "fromAddress": "",
                    "gasUsed": 0,
                    "id": -1,
                    "methodDecoded": false,
                    "operation": "",
                    "output": "",
                    "revert": false,
                    "revertMessage": "",
                    "selector": "",
                    "status": false,
                    "value": ""
                },
                "nodeType": 0
            },
            "0": {
                "invocation": {
                    "address": "0x921fd42f147b26b51aa3c7fa3f2e2ce7704c2858",
                    "callData": "0x000000000000000000000000272b5343a0bbebe621f2014f376049f28266fcf3000000000000000000000000c02098b3dca13c3171522a9aefa1dc40f4aa11070000000000000000000000003845badade8e6dff049820680d1f14bd3903a5d0000000000000000000000000000000000000000000000000000000000000010000000000000000000000000000000000000000000000000000000000000001600000000000000000000000000000000000000000000000000000000000000240000000000000000000000000000000000000000000000000000000000000028000000000000000000000000000000000000000000000000000000000000002c00000000000000000000000000000000000000000000000000000000000000002000000000000000000000000000000000000000000000000000000000000000a000000000000000000000000000000000000000000000001b5267b1b18ce00000000000000000000000000000000000000000000000000000000000000000006807f78a2088898560362085e23c35b9f7a4d360bad246145bd11dff744b5a18800000000000000000000000000000000000000000000000029a2241af62c000000000000000000000000000000000000000000000000000029a2241af62c000000000000000000000000000000000000000000000000000000000000628f4f640000000000000000000000000000000000000000000000000000000001e1338000000000000000000000000000000000000000000000000000000000000007d00000000000000000000000000000000000000000000000000000000000000001c02098b3dca13c3171522a9aefa1dc40f4aa11070000000000000000008070010000000000000000000000000000000000000000000000000000000000000001000000000000000000000000000000000000000000000000000000000000000100000000000000000000000000000000000000000000000000000000000000416721d9df666dec24835ad58a82ebf854a38d0bef10f949e08c7c31bb74dba704269b8452a4df9220b33fe4d0e147faf7ca77dc0b2917d49ee53bb73362568b411b00000000000000000000000000000000000000000000000000000000000000",
                    "decodedMethod": {
                        "callParams": [
                            {
                                "name": "buyer",
                                "type": "address",
                                "value": "0x272b5343a0bbebe621f2014f376049f28266fcf3"
                            },
                            {
                                "name": "seller",
                                "type": "address",
                                "value": "0xc02098b3dca13c3171522a9aefa1dc40f4aa1107"
                            },
                            {
                                "name": "token",
                                "type": "address",
                                "value": "0x3845badade8e6dff049820680d1f14bd3903a5d0"
                            },
                            {
                                "name": "purchase",
                                "type": "uint256[]",
                                "value": [
                                    "10",
                                    "31,500,000,000,000,000,000"
                                ]
                            },
                            {
                                "name": "auctionData",
                                "type": "uint256[]",
                                "value": [
                                    "58,121,266,773,856,617,750,494,514,754,381,307,861,202,512,707,441,933,855,195,629,502,559,264,547,208",
                                    "3,000,000,000,000,000,000",
                                    "3,000,000,000,000,000,000",
                                    "1,653,559,140",
                                    "31,536,000",
                                    "2,000"
                                ]
                            },
                            {
                                "name": "ids",
                                "type": "uint256[]",
                                "value": [
                                    "86,901,659,948,570,252,904,039,139,712,966,444,380,674,537,905,050,899,489,723,982,622,615,589,122,049"
                                ]
                            },
                            {
                                "name": "amounts",
                                "type": "uint256[]",
                                "value": [
                                    "1"
                                ]
                            },
                            {
                                "name": "signature",
                                "type": "bytes",
                                "value": "0x6721d9df666dec24835ad58a82ebf854a38d0bef10f949e08c7c31bb74dba704269b8452a4df9220b33fe4d0e147faf7ca77dc0b2917d49ee53bb73362568b411b"
                            }
                        ],
                        "constructorArguments": "",
                        "name": "claimSellerOffer",
                        "returnParams": [],
                        "signature": "claimSellerOffer(address,address,address,uint256[],uint256[],uint256[],uint256[],bytes)"
                    },
                    "errorInfo": "",
                    "fromAddress": "0x272b5343a0bbebe621f2014f376049f28266fcf3",
                    "gasUsed": 115002,
                    "id": 0,
                    "methodDecoded": true,
                    "operation": "CALL",
                    "output": "",
                    "revert": false,
                    "revertMessage": "",
                    "selector": "0x06244768",
                    "status": true,
                    "value": "0"
                },
                "nodeType": 0
            },
            "1": {
                "invocation": {
                    "address": "0x0000000000000000000000000000000000000001",
                    "callData": "0xd309c2b8e301221711fdafb09575233bd6e3806b92c4d9c9ffa14265000000000000000000000000000000000000000000000000000000000000001b6721d9df666dec24835ad58a82ebf854a38d0bef10f949e08c7c31bb74dba704269b8452a4df9220b33fe4d0e147faf7ca77dc0b2917d49ee53bb73362568b41",
                    "decodedMethod": {
                        "callParams": [
                            {
                                "name": "hash",
                                "type": "bytes32",
                                "value": "0x7dee289ed309c2b8e301221711fdafb09575233bd6e3806b92c4d9c9ffa14265"
                            },
                            {
                                "name": "v",
                                "type": "uint256",
                                "value": "27"
                            },
                            {
                                "name": "r",
                                "type": "bytes32",
                                "value": "0x6721d9df666dec24835ad58a82ebf854a38d0bef10f949e08c7c31bb74dba704"
                            },
                            {
                                "name": "s",
                                "type": "bytes32",
                                "value": "0x269b8452a4df9220b33fe4d0e147faf7ca77dc0b2917d49ee53bb73362568b41"
                            }
                        ],
                        "constructorArguments": "",
                        "name": "ecrecover",
                        "returnParams": [
                            {
                                "name": "",
                                "type": "address",
                                "value": "0xc02098b3dca13c3171522a9aefa1dc40f4aa1107"
                            }
                        ],
                        "signature": "ecrecover(bytes32,uint256,bytes32,bytes32)"
                    },
                    "errorInfo": "",
                    "fromAddress": "0x921fd42f147b26b51aa3c7fa3f2e2ce7704c2858",
                    "gasUsed": 3000,
                    "id": 1,
                    "methodDecoded": true,
                    "operation": "STATICCALL",
                    "output": "0x000000000000000000000000c02098b3dca13c3171522a9aefa1dc40f4aa1107",
                    "revert": false,
                    "revertMessage": "",
                    "selector": "0x7dee289e",
                    "status": true,
                    "value": "0"
                },
                "nodeType": 0
            },
            "2": {
                "invocation": {
                    "address": "0x3845badade8e6dff049820680d1f14bd3903a5d0",
                    "callData": "0x000000000000000000000000272b5343a0bbebe621f2014f376049f28266fcf3000000000000000000000000c02098b3dca13c3171522a9aefa1dc40f4aa1107000000000000000000000000000000000000000000000001a055690d9db80000",
                    "decodedMethod": {
                        "callParams": [
                            {
                                "name": "from",
                                "type": "address",
                                "value": "0x272b5343a0bbebe621f2014f376049f28266fcf3"
                            },
                            {
                                "name": "to",
                                "type": "address",
                                "value": "0xc02098b3dca13c3171522a9aefa1dc40f4aa1107"
                            },
                            {
                                "decimalAvailable": true,
                                "name": "amount",
                                "type": "uint256",
                                "value": "30,000,000,000,000,000,000"
                            }
                        ],
                        "constructorArguments": "",
                        "name": "transferFrom",
                        "returnParams": [
                            {
                                "name": "success",
                                "type": "bool",
                                "value": true
                            }
                        ],
                        "signature": "transferFrom(address,address,uint256)"
                    },
                    "errorInfo": "",
                    "fromAddress": "0x921fd42f147b26b51aa3c7fa3f2e2ce7704c2858",
                    "gasUsed": 14858,
                    "id": 2,
                    "methodDecoded": true,
                    "operation": "CALL",
                    "output": "0x0000000000000000000000000000000000000000000000000000000000000001",
                    "revert": false,
                    "revertMessage": "",
                    "selector": "0x23b872dd",
                    "status": true,
                    "value": "0"
                },
                "nodeType": 0
            },
            "3": {
                "event": {
                    "contract": "0x3845badade8e6dff049820680d1f14bd3903a5d0",
                    "decodedLog": {
                        "name": "Transfer",
                        "params": [
                            {
                                "name": "from",
                                "type": "address",
                                "value": "0x272b5343a0bbebe621f2014f376049f28266fcf3"
                            },
                            {
                                "name": "to",
                                "type": "address",
                                "value": "0xc02098b3dca13c3171522a9aefa1dc40f4aa1107"
                            },
                            {
                                "decimalAvailable": true,
                                "name": "value",
                                "type": "uint256",
                                "value": "30,000,000,000,000,000,000"
                            }
                        ],
                        "signature": "Transfer(address,address,uint256)"
                    },
                    "id": 3,
                    "logData": "0x000000000000000000000000000000000000000000000001a055690d9db80000",
                    "logDecoded": true,
                    "operation": "EVENT",
                    "revert": false,
                    "status": true,
                    "topics": [
                        "0xddf252ad1be2c89b69c2b068fc378daa952ba7f163c4a11628f55a4df523b3ef",
                        "0x000000000000000000000000272b5343a0bbebe621f2014f376049f28266fcf3",
                        "0x000000000000000000000000c02098b3dca13c3171522a9aefa1dc40f4aa1107"
                    ]
                },
                "nodeType": 1
            },
            "4": {
                "invocation": {
                    "address": "0x3845badade8e6dff049820680d1f14bd3903a5d0",
                    "callData": "0x000000000000000000000000272b5343a0bbebe621f2014f376049f28266fcf30000000000000000000000000eb04462d69b1d267d269377e34f60b9de1c851000000000000000000000000000000000000000000000000014d1120d7b160000",
                    "decodedMethod": {
                        "callParams": [
                            {
                                "name": "from",
                                "type": "address",
                                "value": "0x272b5343a0bbebe621f2014f376049f28266fcf3"
                            },
                            {
                                "name": "to",
                                "type": "address",
                                "value": "0x0eb04462d69b1d267d269377e34f60b9de1c8510"
                            },
                            {
                                "decimalAvailable": true,
                                "name": "amount",
                                "type": "uint256",
                                "value": "1,500,000,000,000,000,000"
                            }
                        ],
                        "constructorArguments": "",
                        "name": "transferFrom",
                        "returnParams": [
                            {
                                "name": "success",
                                "type": "bool",
                                "value": true
                            }
                        ],
                        "signature": "transferFrom(address,address,uint256)"
                    },
                    "errorInfo": "",
                    "fromAddress": "0x921fd42f147b26b51aa3c7fa3f2e2ce7704c2858",
                    "gasUsed": 8058,
                    "id": 4,
                    "methodDecoded": true,
                    "operation": "CALL",
                    "output": "0x0000000000000000000000000000000000000000000000000000000000000001",
                    "revert": false,
                    "revertMessage": "",
                    "selector": "0x23b872dd",
                    "status": true,
                    "value": "0"
                },
                "nodeType": 0
            },
            "5": {
                "event": {
                    "contract": "0x3845badade8e6dff049820680d1f14bd3903a5d0",
                    "decodedLog": {
                        "name": "Transfer",
                        "params": [
                            {
                                "name": "from",
                                "type": "address",
                                "value": "0x272b5343a0bbebe621f2014f376049f28266fcf3"
                            },
                            {
                                "name": "to",
                                "type": "address",
                                "value": "0x0eb04462d69b1d267d269377e34f60b9de1c8510"
                            },
                            {
                                "decimalAvailable": true,
                                "name": "value",
                                "type": "uint256",
                                "value": "1,500,000,000,000,000,000"
                            }
                        ],
                        "signature": "Transfer(address,address,uint256)"
                    },
                    "id": 5,
                    "logData": "0x00000000000000000000000000000000000000000000000014d1120d7b160000",
                    "logDecoded": true,
                    "operation": "EVENT",
                    "revert": false,
                    "status": true,
                    "topics": [
                        "0xddf252ad1be2c89b69c2b068fc378daa952ba7f163c4a11628f55a4df523b3ef",
                        "0x000000000000000000000000272b5343a0bbebe621f2014f376049f28266fcf3",
                        "0x0000000000000000000000000eb04462d69b1d267d269377e34f60b9de1c8510"
                    ]
                },
                "nodeType": 1
            },
            "6": {
                "invocation": {
                    "address": "0xa342f5d851e866e18ff98f351f2c6637f4478db5",
                    "callData": "0x000000000000000000000000c02098b3dca13c3171522a9aefa1dc40f4aa1107000000000000000000000000272b5343a0bbebe621f2014f376049f28266fcf300000000000000000000000000000000000000000000000000000000000000a000000000000000000000000000000000000000000000000000000000000000e000000000000000000000000000000000000000000000000000000000000001200000000000000000000000000000000000000000000000000000000000000001c02098b3dca13c3171522a9aefa1dc40f4aa11070000000000000000008070010000000000000000000000000000000000000000000000000000000000000001000000000000000000000000000000000000000000000000000000000000000a00000000000000000000000000000000000000000000000000000000000000000000000000000000000000000000000000000000000000000000000000000000",
                    "decodedMethod": {
                        "callParams": [
                            {
                                "name": "from",
                                "type": "address",
                                "value": "0xc02098b3dca13c3171522a9aefa1dc40f4aa1107"
                            },
                            {
                                "name": "to",
                                "type": "address",
                                "value": "0x272b5343a0bbebe621f2014f376049f28266fcf3"
                            },
                            {
                                "name": "ids",
                                "type": "uint256[]",
                                "value": [
                                    "86,901,659,948,570,252,904,039,139,712,966,444,380,674,537,905,050,899,489,723,982,622,615,589,122,049"
                                ]
                            },
                            {
                                "name": "values",
                                "type": "uint256[]",
                                "value": [
                                    "10"
                                ]
                            },
                            {
                                "name": "data",
                                "type": "bytes",
                                "value": "0x"
                            }
                        ],
                        "constructorArguments": "",
                        "name": "safeBatchTransferFrom",
                        "returnParams": [],
                        "signature": "safeBatchTransferFrom(address,address,uint256[],uint256[],bytes)"
                    },
                    "errorInfo": "",
                    "fromAddress": "0x921fd42f147b26b51aa3c7fa3f2e2ce7704c2858",
                    "gasUsed": 29965,
                    "id": 6,
                    "methodDecoded": true,
                    "operation": "CALL",
                    "output": "",
                    "revert": false,
                    "revertMessage": "",
                    "selector": "0x2eb2c2d6",
                    "status": true,
                    "value": "0"
                },
                "nodeType": 0
            },
            "7": {
                "invocation": {
                    "address": "0x7fbf5c9af42a6d146dcc18762f515692cd5f853b",
                    "callData": "0x000000000000000000000000c02098b3dca13c3171522a9aefa1dc40f4aa1107000000000000000000000000272b5343a0bbebe621f2014f376049f28266fcf300000000000000000000000000000000000000000000000000000000000000a000000000000000000000000000000000000000000000000000000000000000e000000000000000000000000000000000000000000000000000000000000001200000000000000000000000000000000000000000000000000000000000000001c02098b3dca13c3171522a9aefa1dc40f4aa11070000000000000000008070010000000000000000000000000000000000000000000000000000000000000001000000000000000000000000000000000000000000000000000000000000000a00000000000000000000000000000000000000000000000000000000000000000000000000000000000000000000000000000000000000000000000000000000",
                    "decodedMethod": {
                        "callParams": [
                            {
                                "name": "from",
                                "type": "address",
                                "value": "0xc02098b3dca13c3171522a9aefa1dc40f4aa1107"
                            },
                            {
                                "name": "to",
                                "type": "address",
                                "value": "0x272b5343a0bbebe621f2014f376049f28266fcf3"
                            },
                            {
                                "name": "ids",
                                "type": "uint256[]",
                                "value": [
                                    "86,901,659,948,570,252,904,039,139,712,966,444,380,674,537,905,050,899,489,723,982,622,615,589,122,049"
                                ]
                            },
                            {
                                "name": "values",
                                "type": "uint256[]",
                                "value": [
                                    "10"
                                ]
                            },
                            {
                                "name": "data",
                                "type": "bytes",
                                "value": "0x"
                            }
                        ],
                        "constructorArguments": "",
                        "name": "safeBatchTransferFrom",
                        "returnParams": [],
                        "signature": "safeBatchTransferFrom(address,address,uint256[],uint256[],bytes)"
                    },
                    "errorInfo": "",
                    "fromAddress": "0xa342f5d851e866e18ff98f351f2c6637f4478db5",
                    "gasUsed": 22635,
                    "id": 7,
                    "methodDecoded": true,
                    "operation": "DELEGATECALL",
                    "output": "",
                    "revert": false,
                    "revertMessage": "",
                    "selector": "0x2eb2c2d6",
                    "status": true,
                    "value": "0"
                },
                "nodeType": 0
            },
            "8": {
                "event": {
                    "contract": "0xa342f5d851e866e18ff98f351f2c6637f4478db5",
                    "decodedLog": {
                        "name": "TransferBatch",
                        "params": [
                            {
                                "name": "operator",
                                "type": "address",
                                "value": "0x921fd42f147b26b51aa3c7fa3f2e2ce7704c2858"
                            },
                            {
                                "name": "from",
                                "type": "address",
                                "value": "0xc02098b3dca13c3171522a9aefa1dc40f4aa1107"
                            },
                            {
                                "name": "to",
                                "type": "address",
                                "value": "0x272b5343a0bbebe621f2014f376049f28266fcf3"
                            },
                            {
                                "name": "ids",
                                "type": "uint256[]",
                                "value": [
                                    "86,901,659,948,570,252,904,039,139,712,966,444,380,674,537,905,050,899,489,723,982,622,615,589,122,049"
                                ]
                            },
                            {
                                "name": "values",
                                "type": "uint256[]",
                                "value": [
                                    "10"
                                ]
                            }
                        ],
                        "signature": "TransferBatch(address,address,address,uint256[],uint256[])"
                    },
                    "id": 8,
                    "logData": "0x000000000000000000000000000000000000000000000000000000000000004000000000000000000000000000000000000000000000000000000000000000800000000000000000000000000000000000000000000000000000000000000001c02098b3dca13c3171522a9aefa1dc40f4aa11070000000000000000008070010000000000000000000000000000000000000000000000000000000000000001000000000000000000000000000000000000000000000000000000000000000a",
                    "logDecoded": true,
                    "operation": "EVENT",
                    "revert": false,
                    "status": true,
                    "topics": [
                        "0x4a39dc06d4c0dbc64b70af90fd698a233a518aa5d07e595d983b8c0526c8f7fb",
                        "0x000000000000000000000000921fd42f147b26b51aa3c7fa3f2e2ce7704c2858",
                        "0x000000000000000000000000c02098b3dca13c3171522a9aefa1dc40f4aa1107",
                        "0x000000000000000000000000272b5343a0bbebe621f2014f376049f28266fcf3"
                    ]
                },
                "nodeType": 1
            },
            "9": {
                "event": {
                    "contract": "0x921fd42f147b26b51aa3c7fa3f2e2ce7704c2858",
                    "decodedLog": {
                        "name": "OfferClaimed",
                        "params": [
                            {
                                "name": "seller",
                                "type": "address",
                                "value": "0xc02098b3dca13c3171522a9aefa1dc40f4aa1107"
                            },
                            {
                                "name": "buyer",
                                "type": "address",
                                "value": "0x272b5343a0bbebe621f2014f376049f28266fcf3"
                            },
                            {
                                "name": "offerId",
                                "type": "uint256",
                                "value": "58,121,266,773,856,617,750,494,514,754,381,307,861,202,512,707,441,933,855,195,629,502,559,264,547,208"
                            },
                            {
                                "name": "amount",
                                "type": "uint256",
                                "value": "10"
                            },
                            {
                                "name": "pricePaid",
                                "type": "uint256",
                                "value": "30,000,000,000,000,000,000"
                            },
                            {
                                "name": "feePaid",
                                "type": "uint256",
                                "value": "1,500,000,000,000,000,000"
                            }
                        ],
                        "signature": "OfferClaimed(address,address,uint256,uint256,uint256,uint256)"
                    },
                    "id": 9,
                    "logData": "0x000000000000000000000000000000000000000000000000000000000000000a000000000000000000000000000000000000000000000001a055690d9db8000000000000000000000000000000000000000000000000000014d1120d7b160000",
                    "logDecoded": true,
                    "operation": "EVENT",
                    "revert": false,
                    "status": true,
                    "topics": [
                        "0xb6ccdf0f604b7944dc67e7a20fcac8d00f86137f70b2cf577073372a54767847",
                        "0x000000000000000000000000c02098b3dca13c3171522a9aefa1dc40f4aa1107",
                        "0x000000000000000000000000272b5343a0bbebe621f2014f376049f28266fcf3",
                        "0x807f78a2088898560362085e23c35b9f7a4d360bad246145bd11dff744b5a188"
                    ]
                },
                "nodeType": 1
            }
        },
        "gasFlame": [
            {
                "children": [
                    {
                        "children": [
                            {
                                "children": [],
                                "depth": 0,
                                "name": "Initial Gas",
                                "value": 27092
                            },
                            {
                                "children": [
                                    {
                                        "children": [],
                                        "depth": 1,
                                        "name": "ecrecover",
                                        "value": 3000
                                    },
                                    {
                                        "children": [],
                                        "depth": 1,
                                        "name": "transferFrom",
                                        "value": 14858
                                    },
                                    {
                                        "children": [],
                                        "depth": 1,
                                        "name": "transferFrom",
                                        "value": 8058
                                    },
                                    {
                                        "children": [
                                            {
                                                "children": [],
                                                "depth": 2,
                                                "name": "safeBatchTransferFrom",
                                                "value": 22635
                                            }
                                        ],
                                        "depth": 1,
                                        "name": "safeBatchTransferFrom",
                                        "value": 29965
                                    }
                                ],
                                "depth": 0,
                                "name": "Executed Gas",
                                "value": 87910
                            }
                        ],
                        "depth": -1,
                        "name": "Actual Gas Used",
                        "value": 115002
                    },
                    {
                        "children": [],
                        "depth": -1,
                        "name": "Refunded Gas",
                        "value": 0
                    }
                ],
                "depth": -2,
                "name": "Total Gas",
                "value": 115002
            }
        ],
        "isConfirmed": true,
        "mainTrace": [
            {
                "children": [
                    {
                        "children": [
                            {
                                "children": [],
                                "depth": 1,
                                "id": 1,
                                "order": 1
                            },
                            {
                                "children": [
                                    {
                                        "children": [],
                                        "depth": 2,
                                        "id": 3,
                                        "order": 3
                                    }
                                ],
                                "depth": 1,
                                "id": 2,
                                "order": 2
                            },
                            {
                                "children": [
                                    {
                                        "children": [],
                                        "depth": 2,
                                        "id": 5,
                                        "order": 5
                                    }
                                ],
                                "depth": 1,
                                "id": 4,
                                "order": 4
                            },
                            {
                                "children": [
                                    {
                                        "children": [
                                            {
                                                "children": [],
                                                "depth": 3,
                                                "id": 8,
                                                "order": 8
                                            }
                                        ],
                                        "depth": 2,
                                        "id": 7,
                                        "order": 7
                                    }
                                ],
                                "depth": 1,
                                "id": 6,
                                "order": 6
                            },
                            {
                                "children": [],
                                "depth": 1,
                                "id": 9,
                                "order": 9
                            }
                        ],
                        "depth": 0,
                        "id": 0,
                        "order": 0
                    }
                ],
                "depth": -1,
                "id": -1,
                "order": -1
            }
        ],
        "mainTraceNodeCount": 10,
        "parentIdMap": {
            "0": -1,
            "1": 0,
            "2": 0,
            "3": 2,
            "4": 0,
            "5": 4,
            "6": 0,
            "7": 6,
            "8": 7,
            "9": 0
        },
        "tidyTrace": [
            {
                "children": [
                    {
                        "children": [
                            {
                                "children": [
                                    {
                                        "children": [],
                                        "depth": 2,
                                        "id": 3,
                                        "order": 3
                                    }
                                ],
                                "depth": 1,
                                "id": 2,
                                "order": 2
                            },
                            {
                                "children": [
                                    {
                                        "children": [],
                                        "depth": 2,
                                        "id": 5,
                                        "order": 5
                                    }
                                ],
                                "depth": 1,
                                "id": 4,
                                "order": 4
                            },
                            {
                                "children": [
                                    {
                                        "children": [
                                            {
                                                "children": [],
                                                "depth": 3,
                                                "id": 8,
                                                "order": 8
                                            }
                                        ],
                                        "depth": 2,
                                        "id": 7,
                                        "order": 7
                                    }
                                ],
                                "depth": 1,
                                "id": 6,
                                "order": 6
                            },
                            {
                                "children": [],
                                "depth": 1,
                                "id": 9,
                                "order": 9
                            }
                        ],
                        "depth": 0,
                        "id": 0,
                        "order": 0
                    }
                ],
                "depth": -1,
                "id": -1,
                "order": -1
            }
        ],
        "tidyTraceNodeCount": 9
    },
    "state_change": {
        "stateChanges": [
            {
                "address": "0x3845badade8e6dff049820680d1f14bd3903a5d0",
                "erc": "ERC-20",
                "slots": [
                    {
                        "current": "0x000000000000000000000000000000000000000000000373921040326bcc0000",
                        "key": "0x568b56ae7ea6675601e2842bcc5d46ac54e62f8c1a7d39dd6fd0399b1b15f8b4",
                        "prev": "0x000000000000000000000000000000000000000000000371f1bad724ce140000"
                    },
                    {
                        "current": "0x000000000000000000000000000000000000000000000007abb4fc4d05c60000",
                        "key": "0xefe8c4b39181096220b00c7c44cb715faa7e151dc861302142685642aed96ea7",
                        "prev": "0x00000000000000000000000000000000000000000000000960db77681e940000"
                    },
                    {
                        "current": "0x000000000000000000000000000000000000000000022fff255c189ccfbbfa80",
                        "key": "0x7653784039356768a8f81da57f26ce052245cfb18150c4689dca96bedc401134",
                        "prev": "0x000000000000000000000000000000000000000000022fff108b068f54a5fa80"
                    }
                ],
                "storageVariables": [
                    {
                        "name": "_balances",
                        "type": "mapping(address => uint256)",
                        "value": {
                            "pairs": [
                                {
                                    "key": "0x0eb04462d69b1d267d269377e34f60b9de1c8510",
                                    "value": {
                                        "current": "2644509475716666650000000",
                                        "prev": "2644507975716666650000000",
                                        "typeTag": 1
                                    }
                                },
                                {
                                    "key": "0x272b5343a0bbebe621f2014f376049f28266fcf3",
                                    "value": {
                                        "current": "141500000000000000000",
                                        "prev": "173000000000000000000",
                                        "typeTag": 1
                                    }
                                },
                                {
                                    "key": "0xc02098b3dca13c3171522a9aefa1dc40f4aa1107",
                                    "value": {
                                        "current": "16299000000000000000000",
                                        "prev": "16269000000000000000000",
                                        "typeTag": 1
                                    }
                                }
                            ],
                            "typeTag": 4
                        }
                    }
                ]
            },
            {
                "address": "0x921fd42f147b26b51aa3c7fa3f2e2ce7704c2858",
                "erc": "",
                "slots": [
                    {
                        "current": "0x00000000000000000000000000000000000000000000000000000000000000cd",
                        "key": "0x7f7770bc01f2e3a0e202b08989b369e010d2ccda3e3fa9bdada5e247c9790bb7",
                        "prev": "0x00000000000000000000000000000000000000000000000000000000000000c3"
                    }
                ],
                "storageVariables": [
                    {
                        "name": "claimed",
                        "type": "mapping(address => mapping(uint256 => uint256))",
                        "value": {
                            "pairs": [
                                {
                                    "key": "0xc02098b3dca13c3171522a9aefa1dc40f4aa1107",
                                    "value": {
                                        "pairs": [
                                            {
                                                "key": "58121266773856617750494514754381307861202512707441933855195629502559264547208",
                                                "value": {
                                                    "current": "205",
                                                    "prev": "195",
                                                    "typeTag": 1
                                                }
                                            }
                                        ],
                                        "typeTag": 4
                                    }
                                }
                            ],
                            "typeTag": 4
                        }
                    }
                ]
            },
            {
                "address": "0xa342f5d851e866e18ff98f351f2c6637f4478db5",
                "erc": "ERC-721",
                "slots": [
                    {
                        "current": "0x0000000a0000000a0000000a0000000000000000000000000000000000000000",
                        "key": "0xf58887b59e7875ccc2a9e28b4ba8e181b5afcfd29e39c7bc6557cc5defd48c46",
                        "prev": "0x0000000a000000000000000a0000000000000000000000000000000000000000"
                    },
                    {
                        "current": "0x000007670000076600000721000000ed000000ee000000e9000000ed00000034",
                        "key": "0xbf357e36ed9f3fd3bedbff195ae5131d44fa246b5db4852b8154f65c8592a024",
                        "prev": "0x000007670000077000000721000000ed000000ee000000e9000000ed00000034"
                    }
                ],
                "storageVariables": [
                    {
                        "name": "_packedTokenBalance",
                        "type": "mapping(address => mapping(uint256 => uint256))",
                        "value": {
                            "pairs": [
                                {
                                    "key": "0x272b5343a0bbebe621f2014f376049f28266fcf3",
                                    "value": {
                                        "pairs": [
                                            {
                                                "key": "7199127572888292045112619556314186340256175727559557516349327085092736512",
                                                "value": {
                                                    "current": "269599466734277415315151974881863230150484956713592109452235773050880",
                                                    "prev": "269599466671506397961285167243505335918408292552568555007595427921920",
                                                    "typeTag": 1
                                                }
                                            }
                                        ],
                                        "typeTag": 4
                                    }
                                },
                                {
                                    "key": "0xc02098b3dca13c3171522a9aefa1dc40f4aa1107",
                                    "value": {
                                        "pairs": [
                                            {
                                                "key": "7199127572888292045112619556314186340256175727559557516349327085092736512",
                                                "value": {
                                                    "current": "51089098946139293100383607444816730040798552411042975360057084439691316",
                                                    "prev": "51089098946202064117737474252455087935030629075203998914501724784820276",
                                                    "typeTag": 1
                                                }
                                            }
                                        ],
                                        "typeTag": 4
                                    }
                                }
                            ],
                            "typeTag": 4
                        }
                    }
                ]
            }
        ]
    }
}