{
    "balance_change": {
        "balanceChanges": [
            {
                "account": "0x3f2edd2aeaa3af225d23b225baf8cceb900af7d8",
                "assets": [
                    {
                        "address": "0x028171bca77440897b824ca71d1c56cac55b68a3",
                        "amount": "20",
                        "iconUrl": "",
                        "isERC1155": false,
                        "isERC721": false,
                        "sign": false,
                        "value": "20.02"
                    }
                ]
            },
            {
                "account": "0x8a1087e8583e7285d761a07a0b60440d34ef5237",
                "assets": [
                    {
                        "address": "0x028171bca77440897b824ca71d1c56cac55b68a3",
                        "amount": "20",
                        "iconUrl": "",
                        "isERC1155": false,
                        "isERC721": false,
                        "sign": true,
                        "value": "20.02"
                    }
                ]
            }
        ]
    },
    "profile": {
        "basic_info": {
            "baseFee": "",
            "blockNumber": 11674064,
            "callData": "0xa9059cbb0000000000000000000000008a1087e8583e7285d761a07a0b60440d34ef5237000000000000000000000000000000000000000000000001158e460913d00000",
            "debugEnable": true,
            "errorInfo": "",
            "eventCount": 3,
            "feeRecipient": "0x829bd824b016326a401d083b33d092293333a830",
            "formatValue": "0",
            "gasLimit": 208230,
            "gasPrice": "40",
            "gasUsed": 137060,
            "intTxnCount": 13,
            "internalRevert": false,
            "internalRevertMessage": "",
            "isContractCreation": false,
            "isFlashloan": false,
            "maxFee": "",
            "nonce": 14,
            "overwritedBlockNumber": -1,
            "priorityFee": "",
            "receiver": "0x028171bca77440897b824ca71d1c56cac55b68a3",
            "revertMessage": "",
            "sender": "0x3f2edd2aeaa3af225d23b225baf8cceb900af7d8",
            "simulationEnable": true,
            "sourceTxnHash": "0xc3211c721476379b1e0b22ad2a55b2423b106b4c9f2d1086bbaf276549eaf0ee",
            "status": true,
            "timestamp": "2021-01-17T17:29:14Z",
            "transactionFee": "0.0054824",
            "txnHash": "0xc3211c721476379b1e0b22ad2a55b2423b106b4c9f2d1086bbaf276549eaf0ee",
            "txnIndex": 111,
            "type": 0,
            "value": "0"
        },
        "fund_flow": [
            {
                "amount": "20",
                "from": "0x3f2edd2aeaa3af225d23b225baf8cceb900af7d8",
                "id": 1,
                "isERC1155": false,
                "isERC721": false,
                "isReverted": false,
                "order": 1,
                "to": "0x8a1087e8583e7285d761a07a0b60440d34ef5237",
                "token": "0x028171bca77440897b824ca71d1c56cac55b68a3"
            }
        ],
        "token_infos": [
            {
                "address": "0x028171bca77440897b824ca71d1c56cac55b68a3",
                "decimals": 18
            },
            {
                "address": "0xc02aaa39b223fe8d0a0e5c4f27ead9083c756cc2",
                "decimals": 18
            },
            {
                "address": "0xeeeeeeeeeeeeeeeeeeeeeeeeeeeeeeeeeeeeeeee",
                "decimals": 18
            }
        ]
    },
    "address_label": {
        "labels": [
            {
                "address": "0x0000000000000000000000000000000000000004",
                "label": "Precompiled"
            },
            {
                "address": "0x773616e4d11a78f511299002da57a0a94577f1f4",
                "label": "Chainlink: DAI/ETH Price Feed"
            },
            {
                "address": "0x7d2768de32b0b80b7a3454c06bdac94a69ddc7a9",
                "label": "Aave: Lending Pool V2"
            },
            {
                "address": "0x0000000000000000000000000000000000000001",
                "label": "Precompiled"
            },
            {
                "address": "0x0000000000000000000000000000000000000002",
                "label": "Precompiled"
            },
            {
                "address": "0xeeeeeeeeeeeeeeeeeeeeeeeeeeeeeeeeeeeeeeee",
                "label": "Ether"
            },
            {
                "address": "0x6b175474e89094c44da98b954eedeac495271d0f",
                "label": "Sky: Dai Stablecoin"
            },
            {
                "address": "0xb7bf8e4908ad1caf1a638b30ef80afc581fdc968",
                "label": "Aave interest bearing DAI (aDAI)"
            },
            {
                "address": "0xa50ba011c48153de246e5192c8f9258a2ba79ca9",
                "label": "Aave: Price Oracle V2"
            },
            {
                "address": "0x028171bca77440897b824ca71d1c56cac55b68a3",
                "label": "Aave: aDAI Token V2"
            },
            {
                "address": "0xc6845a5c768bf8d7681249f8927877efda425baf",
                "label": "LendingPool"
            },
            {
                "address": "0xb53c1a33016b2dc2ff3653530bff1848a515c8c5",
                "label": "Aave: Lending Pool Provider V2"
            },
            {
                "address": "0xd866a07dea5ee3c093e21d33660b5579c21f140b",
                "label": "AccessControlledAggregator"
            },
            {
                "address": "0x0000000000000000000000000000000000000003",
                "label": "Precompiled"
            }
        ]
    },
    "trace": {
        "accountLabels": null,
        "dataMap": {
            "-1": {
                "invocation": {
                    "address": "0x3f2edd2aeaa3af225d23b225baf8cceb900af7d8",
                    "callData": "",
                    "decodedMethod": null,
                    "errorInfo": "",
                    "fromAddress": "",
                    "gasUsed": 0,
                    "id": -1,
                    "methodDecoded": false,
                    "operation": "",
                    "output": "",
                    "revert": false,
                    "revertMessage": "",
                    "selector": "",
                    "status": false,
                    "value": ""
                },
                "nodeType": 0
            },
            "0": {
                "invocation": {
                    "address": "0x028171bca77440897b824ca71d1c56cac55b68a3",
                    "callData": "0x0000000000000000000000008a1087e8583e7285d761a07a0b60440d34ef5237000000000000000000000000000000000000000000000001158e460913d00000",
                    "decodedMethod": {
                        "callParams": [
                            {
                                "name": "recipient",
                                "type": "address",
                                "value": "0x8a1087e8583e7285d761a07a0b60440d34ef5237"
                            },
                            {
                                "decimalAvailable": true,
                                "name": "amount",
                                "type": "uint256",
                                "value": "20,000,000,000,000,000,000"
                            }
                        ],
                        "constructorArguments": "",
                        "name": "transfer",
                        "returnParams": [
                            {
                                "name": "",
                                "type": "bool",
                                "value": true
                            }
                        ],
                        "signature": "transfer(address,uint256)"
                    },
                    "errorInfo": "",
                    "fromAddress": "0x3f2edd2aeaa3af225d23b225baf8cceb900af7d8",
                    "gasUsed": 137060,
                    "id": 0,
                    "methodDecoded": true,
                    "operation": "CALL",
                    "output": "0x0000000000000000000000000000000000000000000000000000000000000001",
                    "revert": false,
                    "revertMessage": "",
                    "selector": "0xa9059cbb",
                    "status": true,
                    "value": "0"
                },
                "nodeType": 0
            },
            "1": {
                "invocation": {
                    "address": "0xb7bf8e4908ad1caf1a638b30ef80afc581fdc968",
                    "callData": "0x0000000000000000000000008a1087e8583e7285d761a07a0b60440d34ef5237000000000000000000000000000000000000000000000001158e460913d00000",
                    "decodedMethod": {
                        "callParams": [
                            {
                                "name": "recipient",
                                "type": "address",
                                "value": "0x8a1087e8583e7285d761a07a0b60440d34ef5237"
                            },
                            {
                                "decimalAvailable": true,
                                "name": "amount",
                                "type": "uint256",
                                "value": "20,000,000,000,000,000,000"
                            }
                        ],
                        "constructorArguments": "",
                        "name": "transfer",
                        "returnParams": [
                            {
                                "name": "",
                                "type": "bool",
                                "value": true
                            }
                        ],
                        "signature": "transfer(address,uint256)"
                    },
                    "errorInfo": "",
                    "fromAddress": "0x028171bca77440897b824ca71d1c56cac55b68a3",
                    "gasUsed": 113502,
                    "id": 1,
                    "methodDecoded": true,
                    "operation": "DELEGATECALL",
                    "output": "0x0000000000000000000000000000000000000000000000000000000000000001",
                    "revert": false,
                    "revertMessage": "",
                    "selector": "0xa9059cbb",
                    "status": true,
                    "value": "0"
                },
                "nodeType": 0
            },
            "10": {
                "invocation": {
                    "address": "0x028171bca77440897b824ca71d1c56cac55b68a3",
                    "callData": "0x0000000000000000000000003f2edd2aeaa3af225d23b225baf8cceb900af7d8",
                    "decodedMethod": {
                        "callParams": [
                            {
                                "name": "user",
                                "type": "address",
                                "value": "0x3f2edd2aeaa3af225d23b225baf8cceb900af7d8"
                            }
                        ],
                        "constructorArguments": "",
                        "name": "balanceOf",
                        "returnParams": [
                            {
                                "decimalAvailable": true,
                                "name": "",
                                "type": "uint256",
                                "value": "84,429,854,075,936,867,835"
                            }
                        ],
                        "signature": "balanceOf(address)"
                    },
                    "errorInfo": "",
                    "fromAddress": "0x7d2768de32b0b80b7a3454c06bdac94a69ddc7a9",
                    "gasUsed": 10813,
                    "id": 10,
                    "methodDecoded": true,
                    "operation": "STATICCALL",
                    "output": "0x00000000000000000000000000000000000000000000000493b318f41a4885fb",
                    "revert": false,
                    "revertMessage": "",
                    "selector": "0x70a08231",
                    "status": true,
                    "value": "0"
                },
                "nodeType": 0
            },
            "11": {
                "invocation": {
                    "address": "0xb7bf8e4908ad1caf1a638b30ef80afc581fdc968",
                    "callData": "0x0000000000000000000000003f2edd2aeaa3af225d23b225baf8cceb900af7d8",
                    "decodedMethod": {
                        "callParams": [
                            {
                                "name": "user",
                                "type": "address",
                                "value": "0x3f2edd2aeaa3af225d23b225baf8cceb900af7d8"
                            }
                        ],
                        "constructorArguments": "",
                        "name": "balanceOf",
                        "returnParams": [
                            {
                                "decimalAvailable": true,
                                "name": "",
                                "type": "uint256",
                                "value": "84,429,854,075,936,867,835"
                            }
                        ],
                        "signature": "balanceOf(address)"
                    },
                    "errorInfo": "",
                    "fromAddress": "0x028171bca77440897b824ca71d1c56cac55b68a3",
                    "gasUsed": 8902,
                    "id": 11,
                    "methodDecoded": true,
                    "operation": "DELEGATECALL",
                    "output": "0x00000000000000000000000000000000000000000000000493b318f41a4885fb",
                    "revert": false,
                    "revertMessage": "",
                    "selector": "0x70a08231",
                    "status": true,
                    "value": "0"
                },
                "nodeType": 0
            },
            "12": {
                "invocation": {
                    "address": "0x7d2768de32b0b80b7a3454c06bdac94a69ddc7a9",
                    "callData": "0x0000000000000000000000006b175474e89094c44da98b954eedeac495271d0f",
                    "decodedMethod": {
                        "callParams": [
                            {
                                "name": "asset",
                                "type": "address",
                                "value": "0x6b175474e89094c44da98b954eedeac495271d0f"
                            }
                        ],
                        "constructorArguments": "",
                        "name": "getReserveNormalizedIncome",
                        "returnParams": [
                            {
                                "name": "",
                                "type": "uint256",
                                "value": "1,010,375,509,612,445,197,385,934,323"
                            }
                        ],
                        "signature": "getReserveNormalizedIncome(address)"
                    },
                    "errorInfo": "",
                    "fromAddress": "0x028171bca77440897b824ca71d1c56cac55b68a3",
                    "gasUsed": 5756,
                    "id": 12,
                    "methodDecoded": true,
                    "operation": "STATICCALL",
                    "output": "0x00000000000000000000000000000000000000000343c356209d293ba2c925f3",
                    "revert": false,
                    "revertMessage": "",
                    "selector": "0xd15e0053",
                    "status": true,
                    "value": "0"
                },
                "nodeType": 0
            },
            "13": {
                "invocation": {
                    "address": "0xc6845a5c768bf8d7681249f8927877efda425baf",
                    "callData": "0x0000000000000000000000006b175474e89094c44da98b954eedeac495271d0f",
                    "decodedMethod": {
                        "callParams": [
                            {
                                "name": "asset",
                                "type": "address",
                                "value": "0x6b175474e89094c44da98b954eedeac495271d0f"
                            }
                        ],
                        "constructorArguments": "",
                        "name": "getReserveNormalizedIncome",
                        "returnParams": [
                            {
                                "name": "",
                                "type": "uint256",
                                "value": "1,010,375,509,612,445,197,385,934,323"
                            }
                        ],
                        "signature": "getReserveNormalizedIncome(address)"
                    },
                    "errorInfo": "",
                    "fromAddress": "0x7d2768de32b0b80b7a3454c06bdac94a69ddc7a9",
                    "gasUsed": 3845,
                    "id": 13,
                    "methodDecoded": true,
                    "operation": "DELEGATECALL",
                    "output": "0x00000000000000000000000000000000000000000343c356209d293ba2c925f3",
                    "revert": false,
                    "revertMessage": "",
                    "selector": "0xd15e0053",
                    "status": true,
                    "value": "0"
                },
                "nodeType": 0
            },
            "14": {
                "event": {
                    "contract": "0x7d2768de32b0b80b7a3454c06bdac94a69ddc7a9",
                    "decodedLog": {
                        "name": "ReserveUsedAsCollateralEnabled",
                        "params": [
                            {
                                "name": "reserve",
                                "type": "address",
                                "value": "0x6b175474e89094c44da98b954eedeac495271d0f"
                            },
                            {
                                "name": "user",
                                "type": "address",
                                "value": "0x8a1087e8583e7285d761a07a0b60440d34ef5237"
                            }
                        ],
                        "signature": "ReserveUsedAsCollateralEnabled(address,address)"
                    },
                    "id": 14,
                    "logData": "0x",
                    "logDecoded": true,
                    "operation": "EVENT",
                    "revert": false,
                    "status": true,
                    "topics": [
                        "0x00058a56ea94653cdf4f152d227ace22d4c00ad99e2a43f58cb7d9e3feb295f2",
                        "0x0000000000000000000000006b175474e89094c44da98b954eedeac495271d0f",
                        "0x0000000000000000000000008a1087e8583e7285d761a07a0b60440d34ef5237"
                    ]
                },
                "nodeType": 1
            },
            "15": {
                "event": {
                    "contract": "0x028171bca77440897b824ca71d1c56cac55b68a3",
                    "decodedLog": {
                        "name": "BalanceTransfer",
                        "params": [
                            {
                                "name": "from",
                                "type": "address",
                                "value": "0x3f2edd2aeaa3af225d23b225baf8cceb900af7d8"
                            },
                            {
                                "name": "to",
                                "type": "address",
                                "value": "0x8a1087e8583e7285d761a07a0b60440d34ef5237"
                            },
                            {
                                "name": "value",
                                "type": "uint256",
                                "value": "20,000,000,000,000,000,000"
                            },
                            {
                                "name": "index",
                                "type": "uint256",
                                "value": "1,010,375,509,612,445,197,385,934,323"
                            }
                        ],
                        "signature": "BalanceTransfer(address,address,uint256,uint256)"
                    },
                    "id": 15,
                    "logData": "0x000000000000000000000000000000000000000000000001158e460913d0000000000000000000000000000000000000000000000343c356209d293ba2c925f3",
                    "logDecoded": true,
                    "operation": "EVENT",
                    "revert": false,
                    "status": true,
                    "topics": [
                        "0x4beccb90f994c31aced7a23b5611020728a23d8ec5cddd1a3e9d97b96fda8666",
                        "0x0000000000000000000000003f2edd2aeaa3af225d23b225baf8cceb900af7d8",
                        "0x0000000000000000000000008a1087e8583e7285d761a07a0b60440d34ef5237"
                    ]
                },
                "nodeType": 1
            },
            "16": {
                "event": {
                    "contract": "0x028171bca77440897b824ca71d1c56cac55b68a3",
                    "decodedLog": {
                        "name": "Transfer",
                        "params": [
                            {
                                "name": "from",
                                "type": "address",
                                "value": "0x3f2edd2aeaa3af225d23b225baf8cceb900af7d8"
                            },
                            {
                                "name": "to",
                                "type": "address",
                                "value": "0x8a1087e8583e7285d761a07a0b60440d34ef5237"
                            },
                            {
                                "decimalAvailable": true,
                                "name": "value",
                                "type": "uint256",
                                "value": "20,000,000,000,000,000,000"
                            }
                        ],
                        "signature": "Transfer(address,address,uint256)"
                    },
                    "id": 16,
                    "logData": "0x000000000000000000000000000000000000000000000001158e460913d00000",
                    "logDecoded": true,
                    "operation": "EVENT",
                    "revert": false,
                    "status": true,
                    "topics": [
                        "0xddf252ad1be2c89b69c2b068fc378daa952ba7f163c4a11628f55a4df523b3ef",
                        "0x0000000000000000000000003f2edd2aeaa3af225d23b225baf8cceb900af7d8",
                        "0x0000000000000000000000008a1087e8583e7285d761a07a0b60440d34ef5237"
                    ]
                },
                "nodeType": 1
            },
            "2": {
                "invocation": {
                    "address": "0x7d2768de32b0b80b7a3454c06bdac94a69ddc7a9",
                    "callData": "0x0000000000000000000000006b175474e89094c44da98b954eedeac495271d0f",
                    "decodedMethod": {
                        "callParams": [
                            {
                                "name": "asset",
                                "type": "address",
                                "value": "0x6b175474e89094c44da98b954eedeac495271d0f"
                            }
                        ],
                        "constructorArguments": "",
                        "name": "getReserveNormalizedIncome",
                        "returnParams": [
                            {
                                "name": "",
                                "type": "uint256",
                                "value": "1,010,375,509,612,445,197,385,934,323"
                            }
                        ],
                        "signature": "getReserveNormalizedIncome(address)"
                    },
                    "errorInfo": "",
                    "fromAddress": "0x028171bca77440897b824ca71d1c56cac55b68a3",
                    "gasUsed": 5756,
                    "id": 2,
                    "methodDecoded": true,
                    "operation": "STATICCALL",
                    "output": "0x00000000000000000000000000000000000000000343c356209d293ba2c925f3",
                    "revert": false,
                    "revertMessage": "",
                    "selector": "0xd15e0053",
                    "status": true,
                    "value": "0"
                },
                "nodeType": 0
            },
            "3": {
                "invocation": {
                    "address": "0xc6845a5c768bf8d7681249f8927877efda425baf",
                    "callData": "0x0000000000000000000000006b175474e89094c44da98b954eedeac495271d0f",
                    "decodedMethod": {
                        "callParams": [
                            {
                                "name": "asset",
                                "type": "address",
                                "value": "0x6b175474e89094c44da98b954eedeac495271d0f"
                            }
                        ],
                        "constructorArguments": "",
                        "name": "getReserveNormalizedIncome",
                        "returnParams": [
                            {
                                "name": "",
                                "type": "uint256",
                                "value": "1,010,375,509,612,445,197,385,934,323"
                            }
                        ],
                        "signature": "getReserveNormalizedIncome(address)"
                    },
                    "errorInfo": "",
                    "fromAddress": "0x7d2768de32b0b80b7a3454c06bdac94a69ddc7a9",
                    "gasUsed": 3845,
                    "id": 3,
                    "methodDecoded": true,
                    "operation": "DELEGATECALL",
                    "output": "0x00000000000000000000000000000000000000000343c356209d293ba2c925f3",
                    "revert": false,
                    "revertMessage": "",
                    "selector": "0xd15e0053",
                    "status": true,
                    "value": "0"
                },
                "nodeType": 0
            },
            "4": {
                "invocation": {
                    "address": "0x7d2768de32b0b80b7a3454c06bdac94a69ddc7a9",
                    "callData": "0x0000000000000000000000006b175474e89094c44da98b954eedeac495271d0f0000000000000000000000003f2edd2aeaa3af225d23b225baf8cceb900af7d80000000000000000000000008a1087e8583e7285d761a07a0b60440d34ef5237000000000000000000000000000000000000000000000001158e460913d00000000000000000000000000000000000000000000000000005a9415efd2e1885fb0000000000000000000000000000000000000000000000000000000000000000",
                    "decodedMethod": {
                        "callParams": [
                            {
                                "name": "asset",
                                "type": "address",
                                "value": "0x6b175474e89094c44da98b954eedeac495271d0f"
                            },
                            {
                                "name": "from",
                                "type": "address",
                                "value": "0x3f2edd2aeaa3af225d23b225baf8cceb900af7d8"
                            },
                            {
                                "name": "to",
                                "type": "address",
                                "value": "0x8a1087e8583e7285d761a07a0b60440d34ef5237"
                            },
                            {
                                "name": "amount",
                                "type": "uint256",
                                "value": "20,000,000,000,000,000,000"
                            },
                            {
                                "name": "balanceFromBefore",
                                "type": "uint256",
                                "value": "104,429,854,075,936,867,835"
                            },
                            {
                                "name": "balanceToBefore",
                                "type": "uint256",
                                "value": "0"
                            }
                        ],
                        "constructorArguments": "",
                        "name": "finalizeTransfer",
                        "returnParams": [],
                        "signature": "finalizeTransfer(address,address,address,uint256,uint256,uint256)"
                    },
                    "errorInfo": "",
                    "fromAddress": "0x028171bca77440897b824ca71d1c56cac55b68a3",
                    "gasUsed": 69984,
                    "id": 4,
                    "methodDecoded": true,
                    "operation": "CALL",
                    "output": "",
                    "revert": false,
                    "revertMessage": "",
                    "selector": "0xd5ed3933",
                    "status": true,
                    "value": "0"
                },
                "nodeType": 0
            },
            "5": {
                "invocation": {
                    "address": "0xc6845a5c768bf8d7681249f8927877efda425baf",
                    "callData": "0x0000000000000000000000006b175474e89094c44da98b954eedeac495271d0f0000000000000000000000003f2edd2aeaa3af225d23b225baf8cceb900af7d80000000000000000000000008a1087e8583e7285d761a07a0b60440d34ef5237000000000000000000000000000000000000000000000001158e460913d00000000000000000000000000000000000000000000000000005a9415efd2e1885fb0000000000000000000000000000000000000000000000000000000000000000",
                    "decodedMethod": {
                        "callParams": [
                            {
                                "name": "asset",
                                "type": "address",
                                "value": "0x6b175474e89094c44da98b954eedeac495271d0f"
                            },
                            {
                                "name": "from",
                                "type": "address",
                                "value": "0x3f2edd2aeaa3af225d23b225baf8cceb900af7d8"
                            },
                            {
                                "name": "to",
                                "type": "address",
                                "value": "0x8a1087e8583e7285d761a07a0b60440d34ef5237"
                            },
                            {
                                "name": "amount",
                                "type": "uint256",
                                "value": "20,000,000,000,000,000,000"
                            },
                            {
                                "name": "balanceFromBefore",
                                "type": "uint256",
                                "value": "104,429,854,075,936,867,835"
                            },
                            {
                                "name": "balanceToBefore",
                                "type": "uint256",
                                "value": "0"
                            }
                        ],
                        "constructorArguments": "",
                        "name": "finalizeTransfer",
                        "returnParams": [],
                        "signature": "finalizeTransfer(address,address,address,uint256,uint256,uint256)"
                    },
                    "errorInfo": "",
                    "fromAddress": "0x7d2768de32b0b80b7a3454c06bdac94a69ddc7a9",
                    "gasUsed": 68049,
                    "id": 5,
                    "methodDecoded": true,
                    "operation": "DELEGATECALL",
                    "output": "",
                    "revert": false,
                    "revertMessage": "",
                    "selector": "0xd5ed3933",
                    "status": true,
                    "value": "0"
                },
                "nodeType": 0
            },
            "6": {
                "invocation": {
                    "address": "0xb53c1a33016b2dc2ff3653530bff1848a515c8c5",
                    "callData": "0x",
                    "decodedMethod": {
                        "callParams": [],
                        "constructorArguments": "",
                        "name": "getPriceOracle",
                        "returnParams": [
                            {
                                "name": "",
                                "type": "address",
                                "value": "0xa50ba011c48153de246e5192c8f9258a2ba79ca9"
                            }
                        ],
                        "signature": "getPriceOracle()"
                    },
                    "errorInfo": "",
                    "fromAddress": "0x7d2768de32b0b80b7a3454c06bdac94a69ddc7a9",
                    "gasUsed": 1279,
                    "id": 6,
                    "methodDecoded": true,
                    "operation": "STATICCALL",
                    "output": "0x000000000000000000000000a50ba011c48153de246e5192c8f9258a2ba79ca9",
                    "revert": false,
                    "revertMessage": "",
                    "selector": "0xfca513a8",
                    "status": true,
                    "value": "0"
                },
                "nodeType": 0
            },
            "7": {
                "invocation": {
                    "address": "0xa50ba011c48153de246e5192c8f9258a2ba79ca9",
                    "callData": "0x0000000000000000000000006b175474e89094c44da98b954eedeac495271d0f",
                    "decodedMethod": {
                        "callParams": [
                            {
                                "name": "asset",
                                "type": "address",
                                "value": "0x6b175474e89094c44da98b954eedeac495271d0f"
                            }
                        ],
                        "constructorArguments": "",
                        "name": "getAssetPrice",
                        "returnParams": [
                            {
                                "name": "",
                                "type": "uint256",
                                "value": "805,521,517,664,480"
                            }
                        ],
                        "signature": "getAssetPrice(address)"
                    },
                    "errorInfo": "",
                    "fromAddress": "0x7d2768de32b0b80b7a3454c06bdac94a69ddc7a9",
                    "gasUsed": 9698,
                    "id": 7,
                    "methodDecoded": true,
                    "operation": "STATICCALL",
                    "output": "0x0000000000000000000000000000000000000000000000000002dc9e17eb58e0",
                    "revert": false,
                    "revertMessage": "",
                    "selector": "0xb3596f07",
                    "status": true,
                    "value": "0"
                },
                "nodeType": 0
            },
            "8": {
                "invocation": {
                    "address": "0x773616e4d11a78f511299002da57a0a94577f1f4",
                    "callData": "0x",
                    "decodedMethod": {
                        "callParams": [],
                        "constructorArguments": "",
                        "name": "latestAnswer",
                        "returnParams": [
                            {
                                "name": "",
                                "type": "int256",
                                "value": "805,521,517,664,480"
                            }
                        ],
                        "signature": "latestAnswer()"
                    },
                    "errorInfo": "",
                    "fromAddress": "0xa50ba011c48153de246e5192c8f9258a2ba79ca9",
                    "gasUsed": 6758,
                    "id": 8,
                    "methodDecoded": true,
                    "operation": "STATICCALL",
                    "output": "0x0000000000000000000000000000000000000000000000000002dc9e17eb58e0",
                    "revert": false,
                    "revertMessage": "",
                    "selector": "0x50d25bcd",
                    "status": true,
                    "value": "0"
                },
                "nodeType": 0
            },
            "9": {
                "invocation": {
                    "address": "0xd866a07dea5ee3c093e21d33660b5579c21f140b",
                    "callData": "0x",
                    "decodedMethod": {
                        "callParams": [],
                        "constructorArguments": "",
                        "name": "latestAnswer",
                        "returnParams": [
                            {
                                "name": "",
                                "type": "int256",
                                "value": "805,521,517,664,480"
                            }
                        ],
                        "signature": "latestAnswer()"
                    },
                    "errorInfo": "",
                    "fromAddress": "0x773616e4d11a78f511299002da57a0a94577f1f4",
                    "gasUsed": 3162,
                    "id": 9,
                    "methodDecoded": true,
                    "operation": "STATICCALL",
                    "output": "0x0000000000000000000000000000000000000000000000000002dc9e17eb58e0",
                    "revert": false,
                    "revertMessage": "",
                    "selector": "0x50d25bcd",
                    "status": true,
                    "value": "0"
                },
                "nodeType": 0
            }
        },
        "gasFlame": [
            {
                "children": [
                    {
                        "children": [
                            {
                                "children": [],
                                "depth": 0,
                                "name": "Initial Gas",
                                "value": 21644
                            },
                            {
                                "children": [
                                    {
                                        "children": [
                                            {
                                                "children": [
                                                    {
                                                        "children": [],
                                                        "depth": 3,
                                                        "name": "getReserveNormalizedIncome",
                                                        "value": 3845
                                                    }
                                                ],
                                                "depth": 2,
                                                "name": "getReserveNormalizedIncome",
                                                "value": 5756
                                            },
                                            {
                                                "children": [
                                                    {
                                                        "children": [
                                                            {
                                                                "children": [],
                                                                "depth": 4,
                                                                "name": "getPriceOracle",
                                                                "value": 1279
                                                            },
                                                            {
                                                                "children": [
                                                                    {
                                                                        "children": [
                                                                            {
                                                                                "children": [],
                                                                                "depth": 6,
                                                                                "name": "latestAnswer",
                                                                                "value": 3162
                                                                            }
                                                                        ],
                                                                        "depth": 5,
                                                                        "name": "latestAnswer",
                                                                        "value": 6758
                                                                    }
                                                                ],
                                                                "depth": 4,
                                                                "name": "getAssetPrice",
                                                                "value": 9698
                                                            },
                                                            {
                                                                "children": [
                                                                    {
                                                                        "children": [
                                                                            {
                                                                                "children": [
                                                                                    {
                                                                                        "children": [],
                                                                                        "depth": 7,
                                                                                        "name": "getReserveNormalizedIncome",
                                                                                        "value": 3845
                                                                                    }
                                                                                ],
                                                                                "depth": 6,
                                                                                "name": "getReserveNormalizedIncome",
                                                                                "value": 5756
                                                                            }
                                                                        ],
                                                                        "depth": 5,
                                                                        "name": "balanceOf",
                                                                        "value": 8902
                                                                    }
                                                                ],
                                                                "depth": 4,
                                                                "name": "balanceOf",
                                                                "value": 10813
                                                            }
                                                        ],
                                                        "depth": 3,
                                                        "name": "finalizeTransfer",
                                                        "value": 68049
                                                    }
                                                ],
                                                "depth": 2,
                                                "name": "finalizeTransfer",
                                                "value": 69984
                                            }
                                        ],
                                        "depth": 1,
                                        "name": "transfer",
                                        "value": 113502
                                    }
                                ],
                                "depth": 0,
                                "name": "Executed Gas",
                                "value": 115416
                            }
                        ],
                        "depth": -1,
                        "name": "Actual Gas Used",
                        "value": 137060
                    },
                    {
                        "children": [],
                        "depth": -1,
                        "name": "Refunded Gas",
                        "value": 0
                    }
                ],
                "depth": -2,
                "name": "Total Gas",
                "value": 137060
            }
        ],
        "isConfirmed": true,
        "mainTrace": [
            {
                "children": [
                    {
                        "children": [
                            {
                                "children": [
                                    {
                                        "children": [
                                            {
                                                "children": [],
                                                "depth": 3,
                                                "id": 3,
                                                "order": 3
                                            }
                                        ],
                                        "depth": 2,
                                        "id": 2,
                                        "order": 2
                                    },
                                    {
                                        "children": [
                                            {
                                                "children": [
                                                    {
                                                        "children": [],
                                                        "depth": 4,
                                                        "id": 6,
                                                        "order": 6
                                                    },
                                                    {
                                                        "children": [
                                                            {
                                                                "children": [
                                                                    {
                                                                        "children": [],
                                                                        "depth": 6,
                                                                        "id": 9,
                                                                        "order": 9
                                                                    }
                                                                ],
                                                                "depth": 5,
                                                                "id": 8,
                                                                "order": 8
                                                            }
                                                        ],
                                                        "depth": 4,
                                                        "id": 7,
                                                        "order": 7
                                                    },
                                                    {
                                                        "children": [
                                                            {
                                                                "children": [
                                                                    {
                                                                        "children": [
                                                                            {
                                                                                "children": [],
                                                                                "depth": 7,
                                                                                "id": 13,
                                                                                "order": 13
                                                                            }
                                                                        ],
                                                                        "depth": 6,
                                                                        "id": 12,
                                                                        "order": 12
                                                                    }
                                                                ],
                                                                "depth": 5,
                                                                "id": 11,
                                                                "order": 11
                                                            }
                                                        ],
                                                        "depth": 4,
                                                        "id": 10,
                                                        "order": 10
                                                    },
                                                    {
                                                        "children": [],
                                                        "depth": 4,
                                                        "id": 14,
                                                        "order": 14
                                                    }
                                                ],
                                                "depth": 3,
                                                "id": 5,
                                                "order": 5
                                            }
                                        ],
                                        "depth": 2,
                                        "id": 4,
                                        "order": 4
                                    },
                                    {
                                        "children": [],
                                        "depth": 2,
                                        "id": 15,
                                        "order": 15
                                    },
                                    {
                                        "children": [],
                                        "depth": 2,
                                        "id": 16,
                                        "order": 16
                                    }
                                ],
                                "depth": 1,
                                "id": 1,
                                "order": 1
                            }
                        ],
                        "depth": 0,
                        "id": 0,
                        "order": 0
                    }
                ],
                "depth": -1,
                "id": -1,
                "order": -1
            }
        ],
        "mainTraceNodeCount": 17,
        "parentIdMap": {
            "0": -1,
            "1": 0,
            "10": 5,
            "11": 10,
            "12": 11,
            "13": 12,
            "14": 5,
            "15": 1,
            "16": 1,
            "2": 1,
            "3": 2,
            "4": 1,
            "5": 4,
            "6": 5,
            "7": 5,
            "8": 7,
            "9": 8
        },
        "tidyTrace": [
            {
                "children": [
                    {
                        "children": [
                            {
                                "children": [
                                    {
                                        "children": [
                                            {
                                                "children": [
                                                    {
                                                        "children": [],
                                                        "depth": 4,
                                                        "id": 14,
                                                        "order": 14
                                                    }
                                                ],
                                                "depth": 3,
                                                "id": 5,
                                                "order": 5
                                            }
                                        ],
                                        "depth": 2,
                                        "id": 4,
                                        "order": 4
                                    },
                                    {
                                        "children": [],
                                        "depth": 2,
                                        "id": 15,
                                        "order": 15
                                    },
                                    {
                                        "children": [],
                                        "depth": 2,
                                        "id": 16,
                                        "order": 16
                                    }
                                ],
                                "depth": 1,
                                "id": 1,
                                "order": 1
                            }
                        ],
                        "depth": 0,
                        "id": 0,
                        "order": 0
                    }
                ],
                "depth": -1,
                "id": -1,
                "order": -1
            }
        ],
        "tidyTraceNodeCount": 7
    },
    "state_change": {
        "stateChanges": [
            {
                "address": "0x028171bca77440897b824ca71d1c56cac55b68a3",
                "erc": "ERC-20",
                "slots": [
                    {
                        "current": "0x00000000000000000000000000000000000000000000000487aade91e0b87120",
                        "key": "0xea9bdc11352290b3b55e2262cee7a411c49b8890c6a60addbc2e1d381ff96999",
                        "prev": "0x0000000000000000000000000000000000000000000000059a5f7d3d9023ef34"
                    },
                    {
                        "current": "0x00000000000000000000000000000000000000000000000112b49eabaf6b7e14",
                        "key": "0xf1773ade7a82f966cad035f086ee328e89fe579d1f04665fa2f979a046c82267",
                        "prev": "0x0000000000000000000000000000000000000000000000000000000000000000"
                    }
                ],
                "storageVariables": [
                    {
                        "name": "_balances",
                        "type": "mapping(address => uint256)",
                        "value": {
                            "pairs": [
                                {
                                    "key": "0x3f2edd2aeaa3af225d23b225baf8cceb900af7d8",
                                    "value": {
                                        "current": "83562846954121097504",
                                        "prev": "103357467676540923700",
                                        "typeTag": 1
                                    }
                                },
                                {
                                    "key": "0x8a1087e8583e7285d761a07a0b60440d34ef5237",
                                    "value": {
                                        "current": "19794620722419826196",
                                        "prev": "0",
                                        "typeTag": 1
                                    }
                                }
                            ],
                            "typeTag": 4
                        }
                    }
                ]
            },
            {
                "address": "0x7d2768de32b0b80b7a3454c06bdac94a69ddc7a9",
                "erc": "",
                "slots": [
                    {
                        "current": "0x0000000000000000000000000000000000000000000000000000000000080000",
                        "key": "0x93a9cb463015fda51ba403afd632f98d764af1b9d4ef3ee50269b9faf1299e41",
                        "prev": "0x0000000000000000000000000000000000000000000000000000000000000000"
                    }
                ],
                "storageVariables": [
                    {
                        "name": "_usersConfig",
                        "type": "mapping(address => struct DataTypes.UserConfigurationMap)",
                        "value": {
                            "pairs": [
                                {
                                    "key": "0x8a1087e8583e7285d761a07a0b60440d34ef5237",
                                    "value": {
                                        "fields": [
                                            {
                                                "name": "data",
                                                "type": "uint256",
                                                "value": {
                                                    "current": "524288",
                                                    "prev": "0",
                                                    "typeTag": 1
                                                }
                                            }
                                        ],
                                        "typeTag": 3
                                    }
                                }
                            ],
                            "typeTag": 4
                        }
                    }
                ]
            }
        ]
    }
}