{
    "balance_change": {
        "balanceChanges": [
            {
                "account": "0xec910da2bdae8783c4884313c8543b871adbbcc5",
                "assets": [
                    {
                        "address": "0x7294f680748474d635f8bbb6b00be9b40db74429",
                        "amount": "1",
                        "iconUrl": "",
                        "isERC1155": false,
                        "isERC721": false,
                        "sign": false,
                        "value": ""
                    }
                ]
            },
            {
                "account": "0x12af4675299e0e72d12695fa9c7d9e3195d32380",
                "assets": [
                    {
                        "address": "0x7294f680748474d635f8bbb6b00be9b40db74429",
                        "amount": "1",
                        "iconUrl": "",
                        "isERC1155": false,
                        "isERC721": false,
                        "sign": true,
                        "value": ""
                    }
                ]
            }
        ]
    },
    "profile": {
        "basic_info": {
            "baseFee": "11.722280801",
            "blockNumber": 15986309,
            "callData": "0xa9059cbb00000000000000000000000012af4675299e0e72d12695fa9c7d9e3195d323800000000000000000000000000000000000000000000000000000000000000001",
            "debugEnable": true,
            "errorInfo": "",
            "eventCount": 1,
            "feeRecipient": "0xf2f5c73fa04406b1995e397b55c24ab1f3ea726c",
            "formatValue": "0",
            "gasLimit": 78661,
            "gasPrice": "12.722280801",
            "gasUsed": 52441,
            "intTxnCount": 0,
            "internalRevert": false,
            "internalRevertMessage": "",
            "isContractCreation": false,
            "isFlashloan": false,
            "maxFee": "25.19986938",
            "nonce": 52,
            "overwritedBlockNumber": -1,
            "priorityFee": "1",
            "receiver": "0x7294f680748474d635f8bbb6b00be9b40db74429",
            "revertMessage": "",
            "sender": "0xec910da2bdae8783c4884313c8543b871adbbcc5",
            "simulationEnable": true,
            "sourceTxnHash": "0xc30e0d1b935d041ed2dac3be87c264e6a475102791aff64811d984857787a3c6",
            "status": true,
            "timestamp": "2022-11-17T00:58:23Z",
            "transactionFee": "0.000667169127485241",
            "txnHash": "0xc30e0d1b935d041ed2dac3be87c264e6a475102791aff64811d984857787a3c6",
            "txnIndex": 93,
            "type": 2,
            "value": "0"
        },
        "fund_flow": [
            {
                "amount": "1",
                "from": "0xec910da2bdae8783c4884313c8543b871adbbcc5",
                "id": 1,
                "isERC1155": false,
                "isERC721": false,
                "isReverted": false,
                "order": 1,
                "to": "0x12af4675299e0e72d12695fa9c7d9e3195d32380",
                "token": "0x7294f680748474d635f8bbb6b00be9b40db74429"
            }
        ],
        "token_infos": [
            {
                "address": "0xc02aaa39b223fe8d0a0e5c4f27ead9083c756cc2",
                "decimals": 18
            },
            {
                "address": "0xeeeeeeeeeeeeeeeeeeeeeeeeeeeeeeeeeeeeeeee",
                "decimals": 18
            },
            {
                "address": "0x7294f680748474d635f8bbb6b00be9b40db74429",
                "decimals": 0
            }
        ]
    },
    "address_label": {
        "labels": [
            {
                "address": "0x7294f680748474d635f8bbb6b00be9b40db74429",
                "label": "RT"
            },
            {
                "address": "0x0000000000000000000000000000000000000001",
                "label": "Precompiled"
            },
            {
                "address": "0x0000000000000000000000000000000000000002",
                "label": "Precompiled"
            },
            {
                "address": "0x0000000000000000000000000000000000000003",
                "label": "Precompiled"
            },
            {
                "address": "0x0000000000000000000000000000000000000004",
                "label": "Precompiled"
            },
            {
                "address": "0xeeeeeeeeeeeeeeeeeeeeeeeeeeeeeeeeeeeeeeee",
                "label": "Ether"
            }
        ]
    },
    "trace": {
        "accountLabels": null,
        "dataMap": {
            "-1": {
                "invocation": {
                    "address": "0xec910da2bdae8783c4884313c8543b871adbbcc5",
                    "callData": "",
                    "decodedMethod": null,
                    "errorInfo": "",
                    "fromAddress": "",
                    "gasUsed": 0,
                    "id": -1,
                    "methodDecoded": false,
                    "operation": "",
                    "output": "",
                    "revert": false,
                    "revertMessage": "",
                    "selector": "",
                    "status": false,
                    "value": ""
                },
                "nodeType": 0
            },
            "0": {
                "invocation": {
                    "address": "0x7294f680748474d635f8bbb6b00be9b40db74429",
                    "callData": "0x00000000000000000000000012af4675299e0e72d12695fa9c7d9e3195d323800000000000000000000000000000000000000000000000000000000000000001",
                    "decodedMethod": {
                        "callParams": [
                            {
                                "name": "recipient",
                                "type": "address",
                                "value": "0x12af4675299e0e72d12695fa9c7d9e3195d32380"
                            },
                            {
                                "decimalAvailable": true,
                                "name": "amount",
                                "type": "uint256",
                                "value": "1"
                            }
                        ],
                        "constructorArguments": "",
                        "name": "transfer",
                        "returnParams": [
                            {
                                "name": "",
                                "type": "bool",
                                "value": true
                            }
                        ],
                        "signature": "transfer(address,uint256)"
                    },
                    "errorInfo": "",
                    "fromAddress": "0xec910da2bdae8783c4884313c8543b871adbbcc5",
                    "gasUsed": 52441,
                    "id": 0,
                    "methodDecoded": true,
                    "operation": "CALL",
                    "output": "0x0000000000000000000000000000000000000000000000000000000000000001",
                    "revert": false,
                    "revertMessage": "",
                    "selector": "0xa9059cbb",
                    "status": true,
                    "value": "0"
                },
                "nodeType": 0
            },
            "1": {
                "event": {
                    "contract": "0x7294f680748474d635f8bbb6b00be9b40db74429",
                    "decodedLog": {
                        "name": "Transfer",
                        "params": [
                            {
                                "name": "from",
                                "type": "address",
                                "value": "0xec910da2bdae8783c4884313c8543b871adbbcc5"
                            },
                            {
                                "name": "to",
                                "type": "address",
                                "value": "0x12af4675299e0e72d12695fa9c7d9e3195d32380"
                            },
                            {
                                "decimalAvailable": true,
                                "name": "value",
                                "type": "uint256",
                                "value": "1"
                            }
                        ],
                        "signature": "Transfer(address,address,uint256)"
                    },
                    "id": 1,
                    "logData": "0x0000000000000000000000000000000000000000000000000000000000000001",
                    "logDecoded": true,
                    "operation": "EVENT",
                    "revert": false,
                    "status": true,
                    "topics": [
                        "0xddf252ad1be2c89b69c2b068fc378daa952ba7f163c4a11628f55a4df523b3ef",
                        "0x000000000000000000000000ec910da2bdae8783c4884313c8543b871adbbcc5",
                        "0x00000000000000000000000012af4675299e0e72d12695fa9c7d9e3195d32380"
                    ]
                },
                "nodeType": 1
            }
        },
        "gasFlame": [
            {
                "children": [
                    {
                        "children": [
                            {
                                "children": [],
                                "depth": 0,
                                "name": "Initial Gas",
                                "value": 21572
                            },
                            {
                                "children": [],
                                "depth": 0,
                                "name": "Executed Gas",
                                "value": 30869
                            }
                        ],
                        "depth": -1,
                        "name": "Actual Gas Used",
                        "value": 52441
                    },
                    {
                        "children": [],
                        "depth": -1,
                        "name": "Refunded Gas",
                        "value": 0
                    }
                ],
                "depth": -2,
                "name": "Total Gas",
                "value": 52441
            }
        ],
        "isConfirmed": true,
        "mainTrace": [
            {
                "children": [
                    {
                        "children": [
                            {
                                "children": [],
                                "depth": 1,
                                "id": 1,
                                "order": 1
                            }
                        ],
                        "depth": 0,
                        "id": 0,
                        "order": 0
                    }
                ],
                "depth": -1,
                "id": -1,
                "order": -1
            }
        ],
        "mainTraceNodeCount": 2,
        "parentIdMap": {
            "0": -1,
            "1": 0
        },
        "tidyTrace": [
            {
                "children": [
                    {
                        "children": [
                            {
                                "children": [],
                                "depth": 1,
                                "id": 1,
                                "order": 1
                            }
                        ],
                        "depth": 0,
                        "id": 0,
                        "order": 0
                    }
                ],
                "depth": -1,
                "id": -1,
                "order": -1
            }
        ],
        "tidyTraceNodeCount": 2
    },
    "state_change": {
        "stateChanges": [
            {
                "address": "0x7294f680748474d635f8bbb6b00be9b40db74429",
                "erc": "ERC-20",
                "slots": [
                    {
                        "current": "0x0000000000000000000000000000000000000000000000000000000000000001",
                        "key": "0xdb5b75215e83172b174deab11be6b7e5a72ef8e1b2a21a12e0111d79850df722",
                        "prev": "0x0000000000000000000000000000000000000000000000000000000000000000"
                    },
                    {
                        "current": "0x0000000000000000000000000000000000000000000000000000000000000048",
                        "key": "0x0d845cb9045f823d5b0f384696788874a9eaead04de74a8cadea7a3bf49287eb",
                        "prev": "0x0000000000000000000000000000000000000000000000000000000000000049"
                    }
                ],
                "storageVariables": [
                    {
                        "name": "_balances",
                        "type": "mapping(address => uint256)",
                        "value": {
                            "pairs": [
                                {
                                    "key": "0x12af4675299e0e72d12695fa9c7d9e3195d32380",
                                    "value": {
                                        "current": "1",
                                        "prev": "0",
                                        "typeTag": 1
                                    }
                                },
                                {
                                    "key": "0xec910da2bdae8783c4884313c8543b871adbbcc5",
                                    "value": {
                                        "current": "72",
                                        "prev": "73",
                                        "typeTag": 1
                                    }
                                }
                            ],
                            "typeTag": 4
                        }
                    }
                ]
            }
        ]
    }
}