{
    "balance_change": {
        "balanceChanges": [
            {
                "account": "0xb0c38b43a286916b51b1b5ecb32c0b6416a093fd",
                "assets": [
                    {
                        "address": "0x5136c98a80811c3f46bdda8b5c4555cfd9f812f0",
                        "amount": "29,856.385791",
                        "iconUrl": "https://assets.blocksec.com/icon/7338a17579c78557391212b10c4dc5ecd02eb336ecf1994ca337884f47a7108b.png",
                        "isERC1155": false,
                        "isERC721": false,
                        "sign": false,
                        "value": ""
                    }
                ]
            },
            {
                "account": "0xf07232bc85d995c32c1edf1c985c84a8b7b0ded7",
                "assets": [
                    {
                        "address": "0x5136c98a80811c3f46bdda8b5c4555cfd9f812f0",
                        "amount": "29,856.385791",
                        "iconUrl": "https://assets.blocksec.com/icon/7338a17579c78557391212b10c4dc5ecd02eb336ecf1994ca337884f47a7108b.png",
                        "isERC1155": false,
                        "isERC721": false,
                        "sign": true,
                        "value": ""
                    }
                ]
            }
        ]
    },
    "profile": {
        "basic_info": {
            "baseFee": "",
            "blockNumber": 4991060,
            "callData": "0xa9059cbb000000000000000000000000f07232bc85d995c32c1edf1c985c84a8b7b0ded700000000000000000000000000000000000000000000000000000006f3944aff",
            "debugEnable": true,
            "errorInfo": "",
            "eventCount": 1,
            "feeRecipient": "0xea674fdde714fd979de3edf0f56aa9716b898ec8",
            "formatValue": "0",
            "gasLimit": 38679,
            "gasPrice": "30",
            "gasUsed": 23679,
            "intTxnCount": 0,
            "internalRevert": false,
            "internalRevertMessage": "",
            "isContractCreation": false,
            "isFlashloan": false,
            "maxFee": "",
            "nonce": 0,
            "overwritedBlockNumber": -1,
            "priorityFee": "",
            "receiver": "0x5136c98a80811c3f46bdda8b5c4555cfd9f812f0",
            "revertMessage": "",
            "sender": "0xb0c38b43a286916b51b1b5ecb32c0b6416a093fd",
            "simulationEnable": true,
            "sourceTxnHash": "0xc34f2a2575a824f120b1c95b45cc06c53cbc3f091724ff6be68c27cd0d9424b3",
            "status": true,
            "timestamp": "2018-01-29T01:14:46Z",
            "transactionFee": "0.00071037",
            "txnHash": "0xc34f2a2575a824f120b1c95b45cc06c53cbc3f091724ff6be68c27cd0d9424b3",
            "txnIndex": 10,
            "type": 0,
            "value": "0"
        },
        "fund_flow": [
            {
                "amount": "29,856.385791",
                "from": "0xb0c38b43a286916b51b1b5ecb32c0b6416a093fd",
                "id": 1,
                "isERC1155": false,
                "isERC721": false,
                "isReverted": false,
                "order": 1,
                "to": "0xf07232bc85d995c32c1edf1c985c84a8b7b0ded7",
                "token": "0x5136c98a80811c3f46bdda8b5c4555cfd9f812f0"
            }
        ],
        "token_infos": [
            {
                "address": "0x5136c98a80811c3f46bdda8b5c4555cfd9f812f0",
                "decimals": 6
            },
            {
                "address": "0xc02aaa39b223fe8d0a0e5c4f27ead9083c756cc2",
                "decimals": 18
            },
            {
                "address": "0xeeeeeeeeeeeeeeeeeeeeeeeeeeeeeeeeeeeeeeee",
                "decimals": 18
            }
        ]
    },
    "address_label": {
        "labels": [
            {
                "address": "0xeeeeeeeeeeeeeeeeeeeeeeeeeeeeeeeeeeeeeeee",
                "label": "Ether"
            },
            {
                "address": "0x5136c98a80811c3f46bdda8b5c4555cfd9f812f0",
                "label": "IndaHashToken"
            },
            {
                "address": "0xf07232bc85d995c32c1edf1c985c84a8b7b0ded7",
                "label": "HitBTC 10"
            },
            {
                "address": "0x0000000000000000000000000000000000000001",
                "label": "Precompiled"
            },
            {
                "address": "0x0000000000000000000000000000000000000002",
                "label": "Precompiled"
            },
            {
                "address": "0x0000000000000000000000000000000000000003",
                "label": "Precompiled"
            },
            {
                "address": "0x0000000000000000000000000000000000000004",
                "label": "Precompiled"
            }
        ]
    },
    "trace": {
        "accountLabels": null,
        "dataMap": {
            "-1": {
                "invocation": {
                    "address": "0xb0c38b43a286916b51b1b5ecb32c0b6416a093fd",
                    "callData": "",
                    "decodedMethod": null,
                    "errorInfo": "",
                    "fromAddress": "",
                    "gasUsed": 0,
                    "id": -1,
                    "methodDecoded": false,
                    "operation": "",
                    "output": "",
                    "revert": false,
                    "revertMessage": "",
                    "selector": "",
                    "status": false,
                    "value": ""
                },
                "nodeType": 0
            },
            "0": {
                "invocation": {
                    "address": "0x5136c98a80811c3f46bdda8b5c4555cfd9f812f0",
                    "callData": "0x000000000000000000000000f07232bc85d995c32c1edf1c985c84a8b7b0ded700000000000000000000000000000000000000000000000000000006f3944aff",
                    "decodedMethod": {
                        "callParams": [
                            {
                                "name": "_to",
                                "type": "address",
                                "value": "0xf07232bc85d995c32c1edf1c985c84a8b7b0ded7"
                            },
                            {
                                "decimalAvailable": true,
                                "name": "_amount",
                                "type": "uint256",
                                "value": "29,856,385,791"
                            }
                        ],
                        "constructorArguments": "",
                        "name": "transfer",
                        "returnParams": [
                            {
                                "name": "success",
                                "type": "bool",
                                "value": true
                            }
                        ],
                        "signature": "transfer(address,uint256)"
                    },
                    "errorInfo": "",
                    "fromAddress": "0xb0c38b43a286916b51b1b5ecb32c0b6416a093fd",
                    "gasUsed": 23679,
                    "id": 0,
                    "methodDecoded": true,
                    "operation": "CALL",
                    "output": "0x0000000000000000000000000000000000000000000000000000000000000001",
                    "revert": false,
                    "revertMessage": "",
                    "selector": "0xa9059cbb",
                    "status": true,
                    "value": "0"
                },
                "nodeType": 0
            },
            "1": {
                "event": {
                    "contract": "0x5136c98a80811c3f46bdda8b5c4555cfd9f812f0",
                    "decodedLog": {
                        "name": "Transfer",
                        "params": [
                            {
                                "name": "_from",
                                "type": "address",
                                "value": "0xb0c38b43a286916b51b1b5ecb32c0b6416a093fd"
                            },
                            {
                                "name": "_to",
                                "type": "address",
                                "value": "0xf07232bc85d995c32c1edf1c985c84a8b7b0ded7"
                            },
                            {
                                "decimalAvailable": true,
                                "name": "_value",
                                "type": "uint256",
                                "value": "29,856,385,791"
                            }
                        ],
                        "signature": "Transfer(address,address,uint256)"
                    },
                    "id": 1,
                    "logData": "0x00000000000000000000000000000000000000000000000000000006f3944aff",
                    "logDecoded": true,
                    "operation": "EVENT",
                    "revert": false,
                    "status": true,
                    "topics": [
                        "0xddf252ad1be2c89b69c2b068fc378daa952ba7f163c4a11628f55a4df523b3ef",
                        "0x000000000000000000000000b0c38b43a286916b51b1b5ecb32c0b6416a093fd",
                        "0x000000000000000000000000f07232bc85d995c32c1edf1c985c84a8b7b0ded7"
                    ]
                },
                "nodeType": 1
            }
        },
        "gasFlame": [
            {
                "children": [
                    {
                        "children": [
                            {
                                "children": [],
                                "depth": 0,
                                "name": "Initial Gas",
                                "value": 23128
                            },
                            {
                                "children": [],
                                "depth": 0,
                                "name": "Executed Gas",
                                "value": 15551
                            }
                        ],
                        "depth": -1,
                        "name": "Actual Gas Used",
                        "value": 23679
                    },
                    {
                        "children": [],
                        "depth": -1,
                        "name": "Refunded Gas",
                        "value": 15000
                    }
                ],
                "depth": -2,
                "name": "Total Gas",
                "value": 38679
            }
        ],
        "isConfirmed": true,
        "mainTrace": [
            {
                "children": [
                    {
                        "children": [
                            {
                                "children": [],
                                "depth": 1,
                                "id": 1,
                                "order": 1
                            }
                        ],
                        "depth": 0,
                        "id": 0,
                        "order": 0
                    }
                ],
                "depth": -1,
                "id": -1,
                "order": -1
            }
        ],
        "mainTraceNodeCount": 2,
        "parentIdMap": {
            "0": -1,
            "1": 0
        },
        "tidyTrace": [
            {
                "children": [
                    {
                        "children": [
                            {
                                "children": [],
                                "depth": 1,
                                "id": 1,
                                "order": 1
                            }
                        ],
                        "depth": 0,
                        "id": 0,
                        "order": 0
                    }
                ],
                "depth": -1,
                "id": -1,
                "order": -1
            }
        ],
        "tidyTraceNodeCount": 2
    },
    "state_change": {
        "stateChanges": [
            {
                "address": "0x5136c98a80811c3f46bdda8b5c4555cfd9f812f0",
                "erc": "ERC-20",
                "slots": [
                    {
                        "current": "0x0000000000000000000000000000000000000000000000000000000000000000",
                        "key": "0xd0f515527663628ddb227192a55d02d28d7c7e15646f2c97739474de74c3cf1d",
                        "prev": "0x00000000000000000000000000000000000000000000000000000006f3944aff"
                    },
                    {
                        "current": "0x000000000000000000000000000000000000000000000000000005f12e0f585c",
                        "key": "0x2ceb12940ab475386fc1a5baa04ce3ee4dbb673af6233c0a85f0ca9f73500fdb",
                        "prev": "0x000000000000000000000000000000000000000000000000000005ea3a7b0d5d"
                    }
                ],
                "storageVariables": [
                    {
                        "name": "balances",
                        "type": "mapping(address => uint256)",
                        "value": {
                            "pairs": [
                                {
                                    "key": "0xb0c38b43a286916b51b1b5ecb32c0b6416a093fd",
                                    "value": {
                                        "current": "0",
                                        "prev": "29856385791",
                                        "typeTag": 1
                                    }
                                },
                                {
                                    "key": "0xf07232bc85d995c32c1edf1c985c84a8b7b0ded7",
                                    "value": {
                                        "current": "6533418014812",
                                        "prev": "6503561629021",
                                        "typeTag": 1
                                    }
                                }
                            ],
                            "typeTag": 4
                        }
                    }
                ]
            }
        ]
    }
}