{
    "balance_change": {
        "balanceChanges": [
            {
                "account": "0x722df2cf991751a50efc15ff3a7427a50e564f87",
                "assets": [
                    {
                        "address": "0xa0b86991c6218b36c1d19d4a2e9eb0ce3606eb48",
                        "amount": "496.682663",
                        "iconUrl": "https://assets.blocksec.com/icon/0347a86cc07dbd03fdc5db01a4e5ac7e1217f90e0b6e4bb0f75cbcca09160989.png",
                        "isERC1155": false,
                        "isERC721": false,
                        "sign": true,
                        "value": "496.6781084"
                    },
                    {
                        "address": "0xf06017f8f268cffc9dc0fb7bcf0590b4fe7dd1d7",
                        "amount": "5,312,925.51746664",
                        "iconUrl": "",
                        "isERC1155": false,
                        "isERC721": false,
                        "sign": false,
                        "value": "500.3946029"
                    }
                ]
            },
            {
                "account": "0x88e6a0c2ddd26feeb64f039a2c41296fcb3f5640",
                "assets": [
                    {
                        "address": "0xa0b86991c6218b36c1d19d4a2e9eb0ce3606eb48",
                        "amount": "496.682663",
                        "iconUrl": "https://assets.blocksec.com/icon/0347a86cc07dbd03fdc5db01a4e5ac7e1217f90e0b6e4bb0f75cbcca09160989.png",
                        "isERC1155": false,
                        "isERC721": false,
                        "sign": false,
                        "value": "496.6781084"
                    },
                    {
                        "address": "0xc02aaa39b223fe8d0a0e5c4f27ead9083c756cc2",
                        "amount": "0.159414523224751988",
                        "iconUrl": "https://assets.blocksec.com/icon/f1cb2d02c471d545bbc7722daf3277fd852d98e63d118771af7047bd8256c516.png",
                        "isERC1155": false,
                        "isERC721": false,
                        "sign": true,
                        "value": "495.3908942"
                    }
                ]
            },
            {
                "account": "0xe8ffa425f9749a69536e784de9c2636568f4be9f",
                "assets": [
                    {
                        "address": "0xf06017f8f268cffc9dc0fb7bcf0590b4fe7dd1d7",
                        "amount": "5,312,925.51746664",
                        "iconUrl": "",
                        "isERC1155": false,
                        "isERC721": false,
                        "sign": true,
                        "value": "500.3946029"
                    },
                    {
                        "address": "0xc02aaa39b223fe8d0a0e5c4f27ead9083c756cc2",
                        "amount": "0.159414523224751988",
                        "iconUrl": "https://assets.blocksec.com/icon/f1cb2d02c471d545bbc7722daf3277fd852d98e63d118771af7047bd8256c516.png",
                        "isERC1155": false,
                        "isERC721": false,
                        "sign": false,
                        "value": "495.3908942"
                    }
                ]
            }
        ]
    },
    "profile": {
        "basic_info": {
            "baseFee": "4.87110381",
            "blockNumber": 20281889,
            "callData": "0xb80c2f09000000000000000000000000000000000000000000000000002ff37a722716c0000000000000000000000000f06017f8f268cffc9dc0fb7bcf0590b4fe7dd1d7000000000000000000000000a0b86991c6218b36c1d19d4a2e9eb0ce3606eb480000000000000000000000000000000000000000000000000012e013de2fcc10000000000000000000000000000000000000000000000000000000001d9ac5b100000000000000000000000000000000000000000000000000000000668f9d4f00000000000000000000000000000000000000000000000000000000000001200000000000000000000000000000000000000000000000000000000000000160000000000000000000000000000000000000000000000000000000000000066000000000000000000000000000000000000000000000000000000000000000010000000000000000000000000000000000000000000000000012e013de2fcc100000000000000000000000000000000000000000000000000000000000000001000000000000000000000000000000000000000000000000000000000000002000000000000000000000000000000000000000000000000000000000000000020000000000000000000000000000000000000000000000000000000000000040000000000000000000000000000000000000000000000000000000000000022000000000000000000000000000000000000000000000000000000000000000a000000000000000000000000000000000000000000000000000000000000000e000000000000000000000000000000000000000000000000000000000000001200000000000000000000000000000000000000000000000000000000000000160000000000000000000000000f06017f8f268cffc9dc0fb7bcf0590b4fe7dd1d70000000000000000000000000000000000000000000000000000000000000001000000000000000000000000031f1ad10547b8deb43a36e5491c06a93812023a0000000000000000000000000000000000000000000000000000000000000001000000000000000000000000e8ffa425f9749a69536e784de9c2636568f4be9f0000000000000000000000000000000000000000000000000000000000000001800000000000000000002710e8ffa425f9749a69536e784de9c2636568f4be9f000000000000000000000000000000000000000000000000000000000000000100000000000000000000000000000000000000000000000000000000000000200000000000000000000000000000000000000000000000000000000000000020000000000000000000000000000000000000000000000000000000000000001e00000000000000000000000000000000000000000000000000000000000000a000000000000000000000000000000000000000000000000000000000000000e000000000000000000000000000000000000000000000000000000000000001200000000000000000000000000000000000000000000000000000000000000160000000000000000000000000c02aaa39b223fe8d0a0e5c4f27ead9083c756cc2000000000000000000000000000000000000000000000000000000000000000100000000000000000000000003f911aedc25c770e701b8f563e8102cfacd62c0000000000000000000000000000000000000000000000000000000000000000100000000000000000000000003f911aedc25c770e701b8f563e8102cfacd62c0000000000000000000000000000000000000000000000000000000000000000180000000000000000000271088e6a0c2ddd26feeb64f039a2c41296fcb3f56400000000000000000000000000000000000000000000000000000000000000001000000000000000000000000000000000000000000000000000000000000002000000000000000000000000000000000000000000000000000000000000000c0000000000000000000000000000000000000000000000000000000000000000000000000000000000000000000000000000000000000000000000000000000400000000000000000000000000000000000000000000000000000000000000060000000000000000000000000c02aaa39b223fe8d0a0e5c4f27ead9083c756cc2000000000000000000000000a0b86991c6218b36c1d19d4a2e9eb0ce3606eb4800000000000000000000000000000000000000000000000000000000000001f40000000000000000000000000000000000000000000000000000000000000000",
            "debugEnable": true,
            "errorInfo": "",
            "eventCount": 10,
            "feeRecipient": "0x95222290dd7278aa3ddd389cc1e1d165cc4bafe5",
            "formatValue": "0",
            "gasLimit": 458920,
            "gasPrice": "5.465428201",
            "gasUsed": 262844,
            "intTxnCount": 27,
            "internalRevert": false,
            "internalRevertMessage": "",
            "isContractCreation": false,
            "isFlashloan": false,
            "maxFee": "6.707212243",
            "nonce": 14,
            "overwritedBlockNumber": -1,
            "priorityFee": "0.594324391",
            "receiver": "0xf3de3c0d654fda23dad170f0f320a92172509127",
            "revertMessage": "",
            "sender": "0x722df2cf991751a50efc15ff3a7427a50e564f87",
            "simulationEnable": true,
            "sourceTxnHash": "0xc4696c527d74aac0d101cf7ba7cb314649b6732b732adedaf477b4642ca4c94a",
            "status": true,
            "timestamp": "2024-07-11T07:52:35Z",
            "transactionFee": "0.001436555010063644",
            "txnHash": "0xc4696c527d74aac0d101cf7ba7cb314649b6732b732adedaf477b4642ca4c94a",
            "txnIndex": 8,
            "type": 2,
            "value": "0"
        },
        "fund_flow": [
            {
                "amount": "5,312,925.51746664",
                "from": "0x722df2cf991751a50efc15ff3a7427a50e564f87",
                "id": 1,
                "isERC1155": false,
                "isERC721": false,
                "isReverted": false,
                "order": 1,
                "to": "0xe8ffa425f9749a69536e784de9c2636568f4be9f",
                "token": "0xf06017f8f268cffc9dc0fb7bcf0590b4fe7dd1d7"
            },
            {
                "amount": "0.159414523224751988",
                "from": "0xe8ffa425f9749a69536e784de9c2636568f4be9f",
                "id": 2,
                "isERC1155": false,
                "isERC721": false,
                "isReverted": false,
                "order": 2,
                "to": "0x03f911aedc25c770e701b8f563e8102cfacd62c0",
                "token": "0xc02aaa39b223fe8d0a0e5c4f27ead9083c756cc2"
            },
            {
                "amount": "496.682663",
                "from": "0x88e6a0c2ddd26feeb64f039a2c41296fcb3f5640",
                "id": 3,
                "isERC1155": false,
                "isERC721": false,
                "isReverted": false,
                "order": 3,
                "to": "0x722df2cf991751a50efc15ff3a7427a50e564f87",
                "token": "0xa0b86991c6218b36c1d19d4a2e9eb0ce3606eb48"
            },
            {
                "amount": "0.159414523224751988",
                "from": "0x03f911aedc25c770e701b8f563e8102cfacd62c0",
                "id": 4,
                "isERC1155": false,
                "isERC721": false,
                "isReverted": false,
                "order": 4,
                "to": "0x88e6a0c2ddd26feeb64f039a2c41296fcb3f5640",
                "token": "0xc02aaa39b223fe8d0a0e5c4f27ead9083c756cc2"
            }
        ],
        "token_infos": [
            {
                "address": "0xc02aaa39b223fe8d0a0e5c4f27ead9083c756cc2",
                "decimals": 18
            },
            {
                "address": "0xf06017f8f268cffc9dc0fb7bcf0590b4fe7dd1d7",
                "decimals": 9
            },
            {
                "address": "0xeeeeeeeeeeeeeeeeeeeeeeeeeeeeeeeeeeeeeeee",
                "decimals": 18
            },
            {
                "address": "0xa0b86991c6218b36c1d19d4a2e9eb0ce3606eb48",
                "decimals": 6
            }
        ]
    },
    "address_label": {
        "labels": [
            {
                "address": "0xe8ffa425f9749a69536e784de9c2636568f4be9f",
                "label": "UNI-V2"
            },
            {
                "address": "0xf06017f8f268cffc9dc0fb7bcf0590b4fe7dd1d7",
                "label": "HODL"
            },
            {
                "address": "0x0000000000000000000000000000000000000002",
                "label": "Precompiled"
            },
            {
                "address": "0x0000000000000000000000000000000000000003",
                "label": "Precompiled"
            },
            {
                "address": "0x0000000000000000000000000000000000000004",
                "label": "Precompiled"
            },
            {
                "address": "0xc02aaa39b223fe8d0a0e5c4f27ead9083c756cc2",
                "label": "Wrapped Ether (WETH)"
            },
            {
                "address": "0xa0b86991c6218b36c1d19d4a2e9eb0ce3606eb48",
                "label": "Circle: USDC Token"
            },
            {
                "address": "0x40aa958dd87fc8305b97f2ba922cddca374bcd7f",
                "label": "OKX DEX: TokenApprove"
            },
            {
                "address": "0x43506849d7c04f9138d1a2050bbf3a0c054402dd",
                "label": "FiatTokenV2_2"
            },
            {
                "address": "0x0000000000000000000000000000000000000001",
                "label": "Precompiled"
            },
            {
                "address": "0xeeeeeeeeeeeeeeeeeeeeeeeeeeeeeeeeeeeeeeee",
                "label": "Ether"
            },
            {
                "address": "0x88e6a0c2ddd26feeb64f039a2c41296fcb3f5640",
                "label": "Uniswap V3: USDC 3"
            }
        ]
    },
    "trace": {
        "accountLabels": null,
        "dataMap": {
            "-1": {
                "invocation": {
                    "address": "0x722df2cf991751a50efc15ff3a7427a50e564f87",
                    "callData": "",
                    "decodedMethod": null,
                    "errorInfo": "",
                    "fromAddress": "",
                    "gasUsed": 0,
                    "id": -1,
                    "methodDecoded": false,
                    "operation": "",
                    "output": "",
                    "revert": false,
                    "revertMessage": "",
                    "selector": "",
                    "status": false,
                    "value": ""
                },
                "nodeType": 0
            },
            "0": {
                "invocation": {
                    "address": "0xf3de3c0d654fda23dad170f0f320a92172509127",
                    "callData": "0x000000000000000000000000000000000000000000000000002ff37a722716c0000000000000000000000000f06017f8f268cffc9dc0fb7bcf0590b4fe7dd1d7000000000000000000000000a0b86991c6218b36c1d19d4a2e9eb0ce3606eb480000000000000000000000000000000000000000000000000012e013de2fcc10000000000000000000000000000000000000000000000000000000001d9ac5b100000000000000000000000000000000000000000000000000000000668f9d4f00000000000000000000000000000000000000000000000000000000000001200000000000000000000000000000000000000000000000000000000000000160000000000000000000000000000000000000000000000000000000000000066000000000000000000000000000000000000000000000000000000000000000010000000000000000000000000000000000000000000000000012e013de2fcc100000000000000000000000000000000000000000000000000000000000000001000000000000000000000000000000000000000000000000000000000000002000000000000000000000000000000000000000000000000000000000000000020000000000000000000000000000000000000000000000000000000000000040000000000000000000000000000000000000000000000000000000000000022000000000000000000000000000000000000000000000000000000000000000a000000000000000000000000000000000000000000000000000000000000000e000000000000000000000000000000000000000000000000000000000000001200000000000000000000000000000000000000000000000000000000000000160000000000000000000000000f06017f8f268cffc9dc0fb7bcf0590b4fe7dd1d70000000000000000000000000000000000000000000000000000000000000001000000000000000000000000031f1ad10547b8deb43a36e5491c06a93812023a0000000000000000000000000000000000000000000000000000000000000001000000000000000000000000e8ffa425f9749a69536e784de9c2636568f4be9f0000000000000000000000000000000000000000000000000000000000000001800000000000000000002710e8ffa425f9749a69536e784de9c2636568f4be9f000000000000000000000000000000000000000000000000000000000000000100000000000000000000000000000000000000000000000000000000000000200000000000000000000000000000000000000000000000000000000000000020000000000000000000000000000000000000000000000000000000000000001e00000000000000000000000000000000000000000000000000000000000000a000000000000000000000000000000000000000000000000000000000000000e000000000000000000000000000000000000000000000000000000000000001200000000000000000000000000000000000000000000000000000000000000160000000000000000000000000c02aaa39b223fe8d0a0e5c4f27ead9083c756cc2000000000000000000000000000000000000000000000000000000000000000100000000000000000000000003f911aedc25c770e701b8f563e8102cfacd62c0000000000000000000000000000000000000000000000000000000000000000100000000000000000000000003f911aedc25c770e701b8f563e8102cfacd62c0000000000000000000000000000000000000000000000000000000000000000180000000000000000000271088e6a0c2ddd26feeb64f039a2c41296fcb3f56400000000000000000000000000000000000000000000000000000000000000001000000000000000000000000000000000000000000000000000000000000002000000000000000000000000000000000000000000000000000000000000000c0000000000000000000000000000000000000000000000000000000000000000000000000000000000000000000000000000000000000000000000000000000400000000000000000000000000000000000000000000000000000000000000060000000000000000000000000c02aaa39b223fe8d0a0e5c4f27ead9083c756cc2000000000000000000000000a0b86991c6218b36c1d19d4a2e9eb0ce3606eb4800000000000000000000000000000000000000000000000000000000000001f40000000000000000000000000000000000000000000000000000000000000000",
                    "decodedMethod": null,
                    "errorInfo": "",
                    "fromAddress": "0x722df2cf991751a50efc15ff3a7427a50e564f87",
                    "gasUsed": 262844,
                    "id": 0,
                    "methodDecoded": false,
                    "operation": "CALL",
                    "output": "0x000000000000000000000000000000000000000000000000000000001d9ac6a7",
                    "revert": false,
                    "revertMessage": "",
                    "selector": "0xb80c2f09",
                    "status": true,
                    "value": "0"
                },
                "nodeType": 0
            },
            "1": {
                "event": {
                    "contract": "0xf3de3c0d654fda23dad170f0f320a92172509127",
                    "decodedLog": null,
                    "id": 1,
                    "logData": "0x000000000000000000000000000000000000000000000000002ff37a722716c0",
                    "logDecoded": false,
                    "operation": "EVENT",
                    "revert": false,
                    "status": true,
                    "topics": [
                        "0x7724394874fdd8ad13292ec739b441f85c6559f10dc4141b8d4c0fa4cbf55bdb"
                    ]
                },
                "nodeType": 1
            },
            "10": {
                "invocation": {
                    "address": "0xe8ffa425f9749a69536e784de9c2636568f4be9f",
                    "callData": "0x",
                    "decodedMethod": {
                        "callParams": [],
                        "constructorArguments": "",
                        "name": "token1",
                        "returnParams": [
                            {
                                "name": "",
                                "type": "address",
                                "value": "0xf06017f8f268cffc9dc0fb7bcf0590b4fe7dd1d7"
                            }
                        ],
                        "signature": "token1()"
                    },
                    "errorInfo": "",
                    "fromAddress": "0x031f1ad10547b8deb43a36e5491c06a93812023a",
                    "gasUsed": 2357,
                    "id": 10,
                    "methodDecoded": true,
                    "operation": "STATICCALL",
                    "output": "0x000000000000000000000000f06017f8f268cffc9dc0fb7bcf0590b4fe7dd1d7",
                    "revert": false,
                    "revertMessage": "",
                    "selector": "0xd21220a7",
                    "status": true,
                    "value": "0"
                },
                "nodeType": 0
            },
            "11": {
                "invocation": {
                    "address": "0xe8ffa425f9749a69536e784de9c2636568f4be9f",
                    "callData": "0x",
                    "decodedMethod": {
                        "callParams": [],
                        "constructorArguments": "",
                        "name": "getReserves",
                        "returnParams": [
                            {
                                "name": "_reserve0",
                                "type": "uint112",
                                "value": "5,560,649,588,711,185,364"
                            },
                            {
                                "name": "_reserve1",
                                "type": "uint112",
                                "value": "179,470,916,122,907,130"
                            },
                            {
                                "name": "_blockTimestampLast",
                                "type": "uint32",
                                "value": "1,720,684,355"
                            }
                        ],
                        "signature": "getReserves()"
                    },
                    "errorInfo": "",
                    "fromAddress": "0x031f1ad10547b8deb43a36e5491c06a93812023a",
                    "gasUsed": 2504,
                    "id": 11,
                    "methodDecoded": true,
                    "operation": "STATICCALL",
                    "output": "0x0000000000000000000000000000000000000000000000004d2b6556df8d5bd4000000000000000000000000000000000000000000000000027d9bd8eb0511fa00000000000000000000000000000000000000000000000000000000668f8f43",
                    "revert": false,
                    "revertMessage": "",
                    "selector": "0x0902f1ac",
                    "status": true,
                    "value": "0"
                },
                "nodeType": 0
            },
            "12": {
                "invocation": {
                    "address": "0xf06017f8f268cffc9dc0fb7bcf0590b4fe7dd1d7",
                    "callData": "0x000000000000000000000000e8ffa425f9749a69536e784de9c2636568f4be9f",
                    "decodedMethod": {
                        "callParams": [
                            {
                                "name": "account",
                                "type": "address",
                                "value": "0xe8ffa425f9749a69536e784de9c2636568f4be9f"
                            }
                        ],
                        "constructorArguments": "",
                        "name": "balanceOf",
                        "returnParams": [
                            {
                                "decimalAvailable": true,
                                "name": "",
                                "type": "uint256",
                                "value": "184,783,841,640,373,770"
                            }
                        ],
                        "signature": "balanceOf(address)"
                    },
                    "errorInfo": "",
                    "fromAddress": "0x031f1ad10547b8deb43a36e5491c06a93812023a",
                    "gasUsed": 962,
                    "id": 12,
                    "methodDecoded": true,
                    "operation": "STATICCALL",
                    "output": "0x00000000000000000000000000000000000000000000000002907becc934de0a",
                    "revert": false,
                    "revertMessage": "",
                    "selector": "0x70a08231",
                    "status": true,
                    "value": "0"
                },
                "nodeType": 0
            },
            "13": {
                "invocation": {
                    "address": "0xe8ffa425f9749a69536e784de9c2636568f4be9f",
                    "callData": "0x00000000000000000000000000000000000000000000000002365aaa0cd97f74000000000000000000000000000000000000000000000000000000000000000000000000000000000000000003f911aedc25c770e701b8f563e8102cfacd62c000000000000000000000000000000000000000000000000000000000000000800000000000000000000000000000000000000000000000000000000000000000",
                    "decodedMethod": {
                        "callParams": [
                            {
                                "name": "amount0Out",
                                "type": "uint256",
                                "value": "159,414,523,224,751,988"
                            },
                            {
                                "name": "amount1Out",
                                "type": "uint256",
                                "value": "0"
                            },
                            {
                                "name": "to",
                                "type": "address",
                                "value": "0x03f911aedc25c770e701b8f563e8102cfacd62c0"
                            },
                            {
                                "name": "data",
                                "type": "bytes",
                                "value": "0x"
                            }
                        ],
                        "constructorArguments": "",
                        "name": "swap",
                        "returnParams": [],
                        "signature": "swap(uint256,uint256,address,bytes)"
                    },
                    "errorInfo": "",
                    "fromAddress": "0x031f1ad10547b8deb43a36e5491c06a93812023a",
                    "gasUsed": 52865,
                    "id": 13,
                    "methodDecoded": true,
                    "operation": "CALL",
                    "output": "",
                    "revert": false,
                    "revertMessage": "",
                    "selector": "0x022c0d9f",
                    "status": true,
                    "value": "0"
                },
                "nodeType": 0
            },
            "14": {
                "invocation": {
                    "address": "0xc02aaa39b223fe8d0a0e5c4f27ead9083c756cc2",
                    "callData": "0x00000000000000000000000003f911aedc25c770e701b8f563e8102cfacd62c000000000000000000000000000000000000000000000000002365aaa0cd97f74",
                    "decodedMethod": {
                        "callParams": [
                            {
                                "name": "dst",
                                "type": "address",
                                "value": "0x03f911aedc25c770e701b8f563e8102cfacd62c0"
                            },
                            {
                                "decimalAvailable": true,
                                "name": "wad",
                                "type": "uint256",
                                "value": "159,414,523,224,751,988"
                            }
                        ],
                        "constructorArguments": "",
                        "name": "transfer",
                        "returnParams": [
                            {
                                "name": "",
                                "type": "bool",
                                "value": true
                            }
                        ],
                        "signature": "transfer(address,uint256)"
                    },
                    "errorInfo": "",
                    "fromAddress": "0xe8ffa425f9749a69536e784de9c2636568f4be9f",
                    "gasUsed": 29962,
                    "id": 14,
                    "methodDecoded": true,
                    "operation": "CALL",
                    "output": "0x0000000000000000000000000000000000000000000000000000000000000001",
                    "revert": false,
                    "revertMessage": "",
                    "selector": "0xa9059cbb",
                    "status": true,
                    "value": "0"
                },
                "nodeType": 0
            },
            "15": {
                "event": {
                    "contract": "0xc02aaa39b223fe8d0a0e5c4f27ead9083c756cc2",
                    "decodedLog": {
                        "name": "Transfer",
                        "params": [
                            {
                                "name": "src",
                                "type": "address",
                                "value": "0xe8ffa425f9749a69536e784de9c2636568f4be9f"
                            },
                            {
                                "name": "dst",
                                "type": "address",
                                "value": "0x03f911aedc25c770e701b8f563e8102cfacd62c0"
                            },
                            {
                                "decimalAvailable": true,
                                "name": "wad",
                                "type": "uint256",
                                "value": "159,414,523,224,751,988"
                            }
                        ],
                        "signature": "Transfer(address,address,uint256)"
                    },
                    "id": 15,
                    "logData": "0x00000000000000000000000000000000000000000000000002365aaa0cd97f74",
                    "logDecoded": true,
                    "operation": "EVENT",
                    "revert": false,
                    "status": true,
                    "topics": [
                        "0xddf252ad1be2c89b69c2b068fc378daa952ba7f163c4a11628f55a4df523b3ef",
                        "0x000000000000000000000000e8ffa425f9749a69536e784de9c2636568f4be9f",
                        "0x00000000000000000000000003f911aedc25c770e701b8f563e8102cfacd62c0"
                    ]
                },
                "nodeType": 1
            },
            "16": {
                "invocation": {
                    "address": "0xc02aaa39b223fe8d0a0e5c4f27ead9083c756cc2",
                    "callData": "0x000000000000000000000000e8ffa425f9749a69536e784de9c2636568f4be9f",
                    "decodedMethod": {
                        "callParams": [
                            {
                                "name": "",
                                "type": "address",
                                "value": "0xe8ffa425f9749a69536e784de9c2636568f4be9f"
                            }
                        ],
                        "constructorArguments": "",
                        "name": "balanceOf",
                        "returnParams": [
                            {
                                "decimalAvailable": true,
                                "name": "",
                                "type": "uint256",
                                "value": "5,401,235,065,486,433,376"
                            }
                        ],
                        "signature": "balanceOf(address)"
                    },
                    "errorInfo": "",
                    "fromAddress": "0xe8ffa425f9749a69536e784de9c2636568f4be9f",
                    "gasUsed": 534,
                    "id": 16,
                    "methodDecoded": true,
                    "operation": "STATICCALL",
                    "output": "0x0000000000000000000000000000000000000000000000004af50aacd2b3dc60",
                    "revert": false,
                    "revertMessage": "",
                    "selector": "0x70a08231",
                    "status": true,
                    "value": "0"
                },
                "nodeType": 0
            },
            "17": {
                "invocation": {
                    "address": "0xf06017f8f268cffc9dc0fb7bcf0590b4fe7dd1d7",
                    "callData": "0x000000000000000000000000e8ffa425f9749a69536e784de9c2636568f4be9f",
                    "decodedMethod": {
                        "callParams": [
                            {
                                "name": "account",
                                "type": "address",
                                "value": "0xe8ffa425f9749a69536e784de9c2636568f4be9f"
                            }
                        ],
                        "constructorArguments": "",
                        "name": "balanceOf",
                        "returnParams": [
                            {
                                "decimalAvailable": true,
                                "name": "",
                                "type": "uint256",
                                "value": "184,783,841,640,373,770"
                            }
                        ],
                        "signature": "balanceOf(address)"
                    },
                    "errorInfo": "",
                    "fromAddress": "0xe8ffa425f9749a69536e784de9c2636568f4be9f",
                    "gasUsed": 962,
                    "id": 17,
                    "methodDecoded": true,
                    "operation": "STATICCALL",
                    "output": "0x00000000000000000000000000000000000000000000000002907becc934de0a",
                    "revert": false,
                    "revertMessage": "",
                    "selector": "0x70a08231",
                    "status": true,
                    "value": "0"
                },
                "nodeType": 0
            },
            "18": {
                "event": {
                    "contract": "0xe8ffa425f9749a69536e784de9c2636568f4be9f",
                    "decodedLog": {
                        "name": "Sync",
                        "params": [
                            {
                                "name": "reserve0",
                                "type": "uint112",
                                "value": "5,401,235,065,486,433,376"
                            },
                            {
                                "name": "reserve1",
                                "type": "uint112",
                                "value": "184,783,841,640,373,770"
                            }
                        ],
                        "signature": "Sync(uint112,uint112)"
                    },
                    "id": 18,
                    "logData": "0x0000000000000000000000000000000000000000000000004af50aacd2b3dc6000000000000000000000000000000000000000000000000002907becc934de0a",
                    "logDecoded": true,
                    "operation": "EVENT",
                    "revert": false,
                    "status": true,
                    "topics": [
                        "0x1c411e9a96e071241c2f21f7726b17ae89e3cab4c78be50e062b03a9fffbbad1"
                    ]
                },
                "nodeType": 1
            },
            "19": {
                "event": {
                    "contract": "0xe8ffa425f9749a69536e784de9c2636568f4be9f",
                    "decodedLog": {
                        "name": "Swap",
                        "params": [
                            {
                                "name": "sender",
                                "type": "address",
                                "value": "0x031f1ad10547b8deb43a36e5491c06a93812023a"
                            },
                            {
                                "name": "to",
                                "type": "address",
                                "value": "0x03f911aedc25c770e701b8f563e8102cfacd62c0"
                            },
                            {
                                "name": "amount0In",
                                "type": "uint256",
                                "value": "0"
                            },
                            {
                                "name": "amount1In",
                                "type": "uint256",
                                "value": "5,312,925,517,466,640"
                            },
                            {
                                "name": "amount0Out",
                                "type": "uint256",
                                "value": "159,414,523,224,751,988"
                            },
                            {
                                "name": "amount1Out",
                                "type": "uint256",
                                "value": "0"
                            }
                        ],
                        "signature": "Swap(address,uint256,uint256,uint256,uint256,address)"
                    },
                    "id": 19,
                    "logData": "0x00000000000000000000000000000000000000000000000000000000000000000000000000000000000000000000000000000000000000000012e013de2fcc1000000000000000000000000000000000000000000000000002365aaa0cd97f740000000000000000000000000000000000000000000000000000000000000000",
                    "logDecoded": true,
                    "operation": "EVENT",
                    "revert": false,
                    "status": true,
                    "topics": [
                        "0xd78ad95fa46c994b6551d0da85fc275fe613ce37657fb8d5e3d130840159d822",
                        "0x000000000000000000000000031f1ad10547b8deb43a36e5491c06a93812023a",
                        "0x00000000000000000000000003f911aedc25c770e701b8f563e8102cfacd62c0"
                    ]
                },
                "nodeType": 1
            },
            "2": {
                "invocation": {
                    "address": "0xa0b86991c6218b36c1d19d4a2e9eb0ce3606eb48",
                    "callData": "0x000000000000000000000000722df2cf991751a50efc15ff3a7427a50e564f87",
                    "decodedMethod": {
                        "callParams": [
                            {
                                "name": "account",
                                "type": "address",
                                "value": "0x722df2cf991751a50efc15ff3a7427a50e564f87"
                            }
                        ],
                        "constructorArguments": "",
                        "name": "balanceOf",
                        "returnParams": [
                            {
                                "decimalAvailable": true,
                                "name": "",
                                "type": "uint256",
                                "value": "0"
                            }
                        ],
                        "signature": "balanceOf(address)"
                    },
                    "errorInfo": "",
                    "fromAddress": "0xf3de3c0d654fda23dad170f0f320a92172509127",
                    "gasUsed": 9839,
                    "id": 2,
                    "methodDecoded": true,
                    "operation": "STATICCALL",
                    "output": "0x0000000000000000000000000000000000000000000000000000000000000000",
                    "revert": false,
                    "revertMessage": "",
                    "selector": "0x70a08231",
                    "status": true,
                    "value": "0"
                },
                "nodeType": 0
            },
            "20": {
                "invocation": {
                    "address": "0xc02aaa39b223fe8d0a0e5c4f27ead9083c756cc2",
                    "callData": "0x000000000000000000000000f3de3c0d654fda23dad170f0f320a92172509127",
                    "decodedMethod": {
                        "callParams": [
                            {
                                "name": "",
                                "type": "address",
                                "value": "0xf3de3c0d654fda23dad170f0f320a92172509127"
                            }
                        ],
                        "constructorArguments": "",
                        "name": "balanceOf",
                        "returnParams": [
                            {
                                "decimalAvailable": true,
                                "name": "",
                                "type": "uint256",
                                "value": "0"
                            }
                        ],
                        "signature": "balanceOf(address)"
                    },
                    "errorInfo": "",
                    "fromAddress": "0xf3de3c0d654fda23dad170f0f320a92172509127",
                    "gasUsed": 2534,
                    "id": 20,
                    "methodDecoded": true,
                    "operation": "STATICCALL",
                    "output": "0x0000000000000000000000000000000000000000000000000000000000000000",
                    "revert": false,
                    "revertMessage": "",
                    "selector": "0x70a08231",
                    "status": true,
                    "value": "0"
                },
                "nodeType": 0
            },
            "21": {
                "invocation": {
                    "address": "0x03f911aedc25c770e701b8f563e8102cfacd62c0",
                    "callData": "0x000000000000000000000000722df2cf991751a50efc15ff3a7427a50e564f8700000000000000000000000088e6a0c2ddd26feeb64f039a2c41296fcb3f5640000000000000000000000000000000000000000000000000000000000000006000000000000000000000000000000000000000000000000000000000000000c0000000000000000000000000000000000000000000000000000000000000000000000000000000000000000000000000000000000000000000000000000000400000000000000000000000000000000000000000000000000000000000000060000000000000000000000000c02aaa39b223fe8d0a0e5c4f27ead9083c756cc2000000000000000000000000a0b86991c6218b36c1d19d4a2e9eb0ce3606eb4800000000000000000000000000000000000000000000000000000000000001f4",
                    "decodedMethod": {
                        "callParams": [
                            {
                                "name": "to",
                                "type": "address",
                                "value": "0x722df2cf991751a50efc15ff3a7427a50e564f87"
                            },
                            {
                                "name": "pool",
                                "type": "address",
                                "value": "0x88e6a0c2ddd26feeb64f039a2c41296fcb3f5640"
                            },
                            {
                                "name": "moreInfo",
                                "type": "bytes",
                                "value": "0x000000000000000000000000000000000000000000000000000000000000000000000000000000000000000000000000000000000000000000000000000000400000000000000000000000000000000000000000000000000000000000000060000000000000000000000000c02aaa39b223fe8d0a0e5c4f27ead9083c756cc2000000000000000000000000a0b86991c6218b36c1d19d4a2e9eb0ce3606eb4800000000000000000000000000000000000000000000000000000000000001f4"
                            }
                        ],
                        "constructorArguments": "",
                        "name": "sellQuote",
                        "returnParams": [],
                        "signature": "sellQuote(address,address,bytes)"
                    },
                    "errorInfo": "",
                    "fromAddress": "0xf3de3c0d654fda23dad170f0f320a92172509127",
                    "gasUsed": 82941,
                    "id": 21,
                    "methodDecoded": true,
                    "operation": "CALL",
                    "output": "",
                    "revert": false,
                    "revertMessage": "",
                    "selector": "0x6f7929f2",
                    "status": true,
                    "value": "0"
                },
                "nodeType": 0
            },
            "22": {
                "invocation": {
                    "address": "0xc02aaa39b223fe8d0a0e5c4f27ead9083c756cc2",
                    "callData": "0x00000000000000000000000003f911aedc25c770e701b8f563e8102cfacd62c0",
                    "decodedMethod": {
                        "callParams": [
                            {
                                "name": "",
                                "type": "address",
                                "value": "0x03f911aedc25c770e701b8f563e8102cfacd62c0"
                            }
                        ],
                        "constructorArguments": "",
                        "name": "balanceOf",
                        "returnParams": [
                            {
                                "decimalAvailable": true,
                                "name": "",
                                "type": "uint256",
                                "value": "159,414,523,224,751,988"
                            }
                        ],
                        "signature": "balanceOf(address)"
                    },
                    "errorInfo": "",
                    "fromAddress": "0x03f911aedc25c770e701b8f563e8102cfacd62c0",
                    "gasUsed": 534,
                    "id": 22,
                    "methodDecoded": true,
                    "operation": "STATICCALL",
                    "output": "0x00000000000000000000000000000000000000000000000002365aaa0cd97f74",
                    "revert": false,
                    "revertMessage": "",
                    "selector": "0x70a08231",
                    "status": true,
                    "value": "0"
                },
                "nodeType": 0
            },
            "23": {
                "invocation": {
                    "address": "0x88e6a0c2ddd26feeb64f039a2c41296fcb3f5640",
                    "callData": "0x000000000000000000000000722df2cf991751a50efc15ff3a7427a50e564f87000000000000000000000000000000000000000000000000000000000000000000000000000000000000000000000000000000000000000002365aaa0cd97f74000000000000000000000000fffd8963efd1fc6a506488495d951d5263988d2500000000000000000000000000000000000000000000000000000000000000a00000000000000000000000000000000000000000000000000000000000000060000000000000000000000000c02aaa39b223fe8d0a0e5c4f27ead9083c756cc2000000000000000000000000a0b86991c6218b36c1d19d4a2e9eb0ce3606eb4800000000000000000000000000000000000000000000000000000000000001f4",
                    "decodedMethod": {
                        "callParams": [
                            {
                                "name": "recipient",
                                "type": "address",
                                "value": "0x722df2cf991751a50efc15ff3a7427a50e564f87"
                            },
                            {
                                "name": "zeroForOne",
                                "type": "bool",
                                "value": false
                            },
                            {
                                "name": "amountSpecified",
                                "type": "int256",
                                "value": "159,414,523,224,751,988"
                            },
                            {
                                "name": "sqrtPriceLimitX96",
                                "type": "uint160",
                                "value": "1,461,446,703,485,210,103,287,273,052,203,988,822,378,723,970,341"
                            },
                            {
                                "name": "data",
                                "type": "bytes",
                                "value": "0x000000000000000000000000c02aaa39b223fe8d0a0e5c4f27ead9083c756cc2000000000000000000000000a0b86991c6218b36c1d19d4a2e9eb0ce3606eb4800000000000000000000000000000000000000000000000000000000000001f4"
                            }
                        ],
                        "constructorArguments": "",
                        "name": "swap",
                        "returnParams": [
                            {
                                "name": "amount0",
                                "type": "int256",
                                "value": "-496,682,663"
                            },
                            {
                                "name": "amount1",
                                "type": "int256",
                                "value": "159,414,523,224,751,988"
                            }
                        ],
                        "signature": "swap(address,bool,int256,uint160,bytes)"
                    },
                    "errorInfo": "",
                    "fromAddress": "0x03f911aedc25c770e701b8f563e8102cfacd62c0",
                    "gasUsed": 75980,
                    "id": 23,
                    "methodDecoded": true,
                    "operation": "CALL",
                    "output": "0xffffffffffffffffffffffffffffffffffffffffffffffffffffffffe265395900000000000000000000000000000000000000000000000002365aaa0cd97f74",
                    "revert": false,
                    "revertMessage": "",
                    "selector": "0x128acb08",
                    "status": true,
                    "value": "0"
                },
                "nodeType": 0
            },
            "24": {
                "invocation": {
                    "address": "0xa0b86991c6218b36c1d19d4a2e9eb0ce3606eb48",
                    "callData": "0x000000000000000000000000722df2cf991751a50efc15ff3a7427a50e564f87000000000000000000000000000000000000000000000000000000001d9ac6a7",
                    "decodedMethod": {
                        "callParams": [
                            {
                                "name": "to",
                                "type": "address",
                                "value": "0x722df2cf991751a50efc15ff3a7427a50e564f87"
                            },
                            {
                                "decimalAvailable": true,
                                "name": "value",
                                "type": "uint256",
                                "value": "496,682,663"
                            }
                        ],
                        "constructorArguments": "",
                        "name": "transfer",
                        "returnParams": [
                            {
                                "name": "",
                                "type": "bool",
                                "value": true
                            }
                        ],
                        "signature": "transfer(address,uint256)"
                    },
                    "errorInfo": "",
                    "fromAddress": "0x88e6a0c2ddd26feeb64f039a2c41296fcb3f5640",
                    "gasUsed": 32152,
                    "id": 24,
                    "methodDecoded": true,
                    "operation": "CALL",
                    "output": "0x0000000000000000000000000000000000000000000000000000000000000001",
                    "revert": false,
                    "revertMessage": "",
                    "selector": "0xa9059cbb",
                    "status": true,
                    "value": "0"
                },
                "nodeType": 0
            },
            "25": {
                "invocation": {
                    "address": "0x43506849d7c04f9138d1a2050bbf3a0c054402dd",
                    "callData": "0x000000000000000000000000722df2cf991751a50efc15ff3a7427a50e564f87000000000000000000000000000000000000000000000000000000001d9ac6a7",
                    "decodedMethod": {
                        "callParams": [
                            {
                                "name": "to",
                                "type": "address",
                                "value": "0x722df2cf991751a50efc15ff3a7427a50e564f87"
                            },
                            {
                                "decimalAvailable": true,
                                "name": "value",
                                "type": "uint256",
                                "value": "496,682,663"
                            }
                        ],
                        "constructorArguments": "",
                        "name": "transfer",
                        "returnParams": [
                            {
                                "name": "",
                                "type": "bool",
                                "value": true
                            }
                        ],
                        "signature": "transfer(address,uint256)"
                    },
                    "errorInfo": "",
                    "fromAddress": "0xa0b86991c6218b36c1d19d4a2e9eb0ce3606eb48",
                    "gasUsed": 31363,
                    "id": 25,
                    "methodDecoded": true,
                    "operation": "DELEGATECALL",
                    "output": "0x0000000000000000000000000000000000000000000000000000000000000001",
                    "revert": false,
                    "revertMessage": "",
                    "selector": "0xa9059cbb",
                    "status": true,
                    "value": "0"
                },
                "nodeType": 0
            },
            "26": {
                "event": {
                    "contract": "0xa0b86991c6218b36c1d19d4a2e9eb0ce3606eb48",
                    "decodedLog": {
                        "name": "Transfer",
                        "params": [
                            {
                                "name": "from",
                                "type": "address",
                                "value": "0x88e6a0c2ddd26feeb64f039a2c41296fcb3f5640"
                            },
                            {
                                "name": "to",
                                "type": "address",
                                "value": "0x722df2cf991751a50efc15ff3a7427a50e564f87"
                            },
                            {
                                "decimalAvailable": true,
                                "name": "value",
                                "type": "uint256",
                                "value": "496,682,663"
                            }
                        ],
                        "signature": "Transfer(address,address,uint256)"
                    },
                    "id": 26,
                    "logData": "0x000000000000000000000000000000000000000000000000000000001d9ac6a7",
                    "logDecoded": true,
                    "operation": "EVENT",
                    "revert": false,
                    "status": true,
                    "topics": [
                        "0xddf252ad1be2c89b69c2b068fc378daa952ba7f163c4a11628f55a4df523b3ef",
                        "0x00000000000000000000000088e6a0c2ddd26feeb64f039a2c41296fcb3f5640",
                        "0x000000000000000000000000722df2cf991751a50efc15ff3a7427a50e564f87"
                    ]
                },
                "nodeType": 1
            },
            "27": {
                "invocation": {
                    "address": "0xc02aaa39b223fe8d0a0e5c4f27ead9083c756cc2",
                    "callData": "0x00000000000000000000000088e6a0c2ddd26feeb64f039a2c41296fcb3f5640",
                    "decodedMethod": {
                        "callParams": [
                            {
                                "name": "",
                                "type": "address",
                                "value": "0x88e6a0c2ddd26feeb64f039a2c41296fcb3f5640"
                            }
                        ],
                        "constructorArguments": "",
                        "name": "balanceOf",
                        "returnParams": [
                            {
                                "decimalAvailable": true,
                                "name": "",
                                "type": "uint256",
                                "value": "26,933,241,973,527,777,860,327"
                            }
                        ],
                        "signature": "balanceOf(address)"
                    },
                    "errorInfo": "",
                    "fromAddress": "0x88e6a0c2ddd26feeb64f039a2c41296fcb3f5640",
                    "gasUsed": 2534,
                    "id": 27,
                    "methodDecoded": true,
                    "operation": "STATICCALL",
                    "output": "0x0000000000000000000000000000000000000000000005b40dd12c7de3f35ae7",
                    "revert": false,
                    "revertMessage": "",
                    "selector": "0x70a08231",
                    "status": true,
                    "value": "0"
                },
                "nodeType": 0
            },
            "28": {
                "invocation": {
                    "address": "0x03f911aedc25c770e701b8f563e8102cfacd62c0",
                    "callData": "0xffffffffffffffffffffffffffffffffffffffffffffffffffffffffe265395900000000000000000000000000000000000000000000000002365aaa0cd97f7400000000000000000000000000000000000000000000000000000000000000600000000000000000000000000000000000000000000000000000000000000060000000000000000000000000c02aaa39b223fe8d0a0e5c4f27ead9083c756cc2000000000000000000000000a0b86991c6218b36c1d19d4a2e9eb0ce3606eb4800000000000000000000000000000000000000000000000000000000000001f4",
                    "decodedMethod": {
                        "callParams": [
                            {
                                "name": "amount0Delta",
                                "type": "int256",
                                "value": "-496,682,663"
                            },
                            {
                                "name": "amount1Delta",
                                "type": "int256",
                                "value": "159,414,523,224,751,988"
                            },
                            {
                                "name": "data",
                                "type": "bytes",
                                "value": "0x000000000000000000000000c02aaa39b223fe8d0a0e5c4f27ead9083c756cc2000000000000000000000000a0b86991c6218b36c1d19d4a2e9eb0ce3606eb4800000000000000000000000000000000000000000000000000000000000001f4"
                            }
                        ],
                        "constructorArguments": "",
                        "name": "uniswapV3SwapCallback",
                        "returnParams": [],
                        "signature": "uniswapV3SwapCallback(int256,int256,bytes)"
                    },
                    "errorInfo": "",
                    "fromAddress": "0x88e6a0c2ddd26feeb64f039a2c41296fcb3f5640",
                    "gasUsed": 8665,
                    "id": 28,
                    "methodDecoded": true,
                    "operation": "CALL",
                    "output": "",
                    "revert": false,
                    "revertMessage": "",
                    "selector": "0xfa461e33",
                    "status": true,
                    "value": "0"
                },
                "nodeType": 0
            },
            "29": {
                "invocation": {
                    "address": "0xc02aaa39b223fe8d0a0e5c4f27ead9083c756cc2",
                    "callData": "0x00000000000000000000000088e6a0c2ddd26feeb64f039a2c41296fcb3f564000000000000000000000000000000000000000000000000002365aaa0cd97f74",
                    "decodedMethod": {
                        "callParams": [
                            {
                                "name": "dst",
                                "type": "address",
                                "value": "0x88e6a0c2ddd26feeb64f039a2c41296fcb3f5640"
                            },
                            {
                                "decimalAvailable": true,
                                "name": "wad",
                                "type": "uint256",
                                "value": "159,414,523,224,751,988"
                            }
                        ],
                        "constructorArguments": "",
                        "name": "transfer",
                        "returnParams": [
                            {
                                "name": "",
                                "type": "bool",
                                "value": true
                            }
                        ],
                        "signature": "transfer(address,uint256)"
                    },
                    "errorInfo": "",
                    "fromAddress": "0x03f911aedc25c770e701b8f563e8102cfacd62c0",
                    "gasUsed": 6062,
                    "id": 29,
                    "methodDecoded": true,
                    "operation": "CALL",
                    "output": "0x0000000000000000000000000000000000000000000000000000000000000001",
                    "revert": false,
                    "revertMessage": "",
                    "selector": "0xa9059cbb",
                    "status": true,
                    "value": "0"
                },
                "nodeType": 0
            },
            "3": {
                "invocation": {
                    "address": "0x43506849d7c04f9138d1a2050bbf3a0c054402dd",
                    "callData": "0x000000000000000000000000722df2cf991751a50efc15ff3a7427a50e564f87",
                    "decodedMethod": {
                        "callParams": [
                            {
                                "name": "account",
                                "type": "address",
                                "value": "0x722df2cf991751a50efc15ff3a7427a50e564f87"
                            }
                        ],
                        "constructorArguments": "",
                        "name": "balanceOf",
                        "returnParams": [
                            {
                                "decimalAvailable": true,
                                "name": "",
                                "type": "uint256",
                                "value": "0"
                            }
                        ],
                        "signature": "balanceOf(address)"
                    },
                    "errorInfo": "",
                    "fromAddress": "0xa0b86991c6218b36c1d19d4a2e9eb0ce3606eb48",
                    "gasUsed": 2553,
                    "id": 3,
                    "methodDecoded": true,
                    "operation": "DELEGATECALL",
                    "output": "0x0000000000000000000000000000000000000000000000000000000000000000",
                    "revert": false,
                    "revertMessage": "",
                    "selector": "0x70a08231",
                    "status": true,
                    "value": "0"
                },
                "nodeType": 0
            },
            "30": {
                "event": {
                    "contract": "0xc02aaa39b223fe8d0a0e5c4f27ead9083c756cc2",
                    "decodedLog": {
                        "name": "Transfer",
                        "params": [
                            {
                                "name": "src",
                                "type": "address",
                                "value": "0x03f911aedc25c770e701b8f563e8102cfacd62c0"
                            },
                            {
                                "name": "dst",
                                "type": "address",
                                "value": "0x88e6a0c2ddd26feeb64f039a2c41296fcb3f5640"
                            },
                            {
                                "decimalAvailable": true,
                                "name": "wad",
                                "type": "uint256",
                                "value": "159,414,523,224,751,988"
                            }
                        ],
                        "signature": "Transfer(address,address,uint256)"
                    },
                    "id": 30,
                    "logData": "0x00000000000000000000000000000000000000000000000002365aaa0cd97f74",
                    "logDecoded": true,
                    "operation": "EVENT",
                    "revert": false,
                    "status": true,
                    "topics": [
                        "0xddf252ad1be2c89b69c2b068fc378daa952ba7f163c4a11628f55a4df523b3ef",
                        "0x00000000000000000000000003f911aedc25c770e701b8f563e8102cfacd62c0",
                        "0x00000000000000000000000088e6a0c2ddd26feeb64f039a2c41296fcb3f5640"
                    ]
                },
                "nodeType": 1
            },
            "31": {
                "invocation": {
                    "address": "0xc02aaa39b223fe8d0a0e5c4f27ead9083c756cc2",
                    "callData": "0x00000000000000000000000088e6a0c2ddd26feeb64f039a2c41296fcb3f5640",
                    "decodedMethod": {
                        "callParams": [
                            {
                                "name": "",
                                "type": "address",
                                "value": "0x88e6a0c2ddd26feeb64f039a2c41296fcb3f5640"
                            }
                        ],
                        "constructorArguments": "",
                        "name": "balanceOf",
                        "returnParams": [
                            {
                                "decimalAvailable": true,
                                "name": "",
                                "type": "uint256",
                                "value": "26,933,401,388,051,002,612,315"
                            }
                        ],
                        "signature": "balanceOf(address)"
                    },
                    "errorInfo": "",
                    "fromAddress": "0x88e6a0c2ddd26feeb64f039a2c41296fcb3f5640",
                    "gasUsed": 534,
                    "id": 31,
                    "methodDecoded": true,
                    "operation": "STATICCALL",
                    "output": "0x0000000000000000000000000000000000000000000005b410078727f0ccda5b",
                    "revert": false,
                    "revertMessage": "",
                    "selector": "0x70a08231",
                    "status": true,
                    "value": "0"
                },
                "nodeType": 0
            },
            "32": {
                "event": {
                    "contract": "0x88e6a0c2ddd26feeb64f039a2c41296fcb3f5640",
                    "decodedLog": {
                        "name": "Swap",
                        "params": [
                            {
                                "name": "sender",
                                "type": "address",
                                "value": "0x03f911aedc25c770e701b8f563e8102cfacd62c0"
                            },
                            {
                                "name": "recipient",
                                "type": "address",
                                "value": "0x722df2cf991751a50efc15ff3a7427a50e564f87"
                            },
                            {
                                "name": "amount0",
                                "type": "int256",
                                "value": "-496,682,663"
                            },
                            {
                                "name": "amount1",
                                "type": "int256",
                                "value": "159,414,523,224,751,988"
                            },
                            {
                                "name": "sqrtPriceX96",
                                "type": "uint160",
                                "value": "1,419,043,682,550,018,014,943,248,657,980,677"
                            },
                            {
                                "name": "liquidity",
                                "type": "uint128",
                                "value": "5,678,366,929,958,304,989"
                            },
                            {
                                "name": "tick",
                                "type": "int24",
                                "value": "195,873"
                            }
                        ],
                        "signature": "Swap(address,address,int256,int256,uint160,uint128,int24)"
                    },
                    "id": 32,
                    "logData": "0xffffffffffffffffffffffffffffffffffffffffffffffffffffffffe265395900000000000000000000000000000000000000000000000002365aaa0cd97f7400000000000000000000000000000000000045f6d96e923c00638346e6d49d050000000000000000000000000000000000000000000000004ecd9ca3347d7cdd000000000000000000000000000000000000000000000000000000000002fd21",
                    "logDecoded": true,
                    "operation": "EVENT",
                    "revert": false,
                    "status": true,
                    "topics": [
                        "0xc42079f94a6350d7e6235f29174924f928cc2ac818eb64fed8004e115fbcca67",
                        "0x00000000000000000000000003f911aedc25c770e701b8f563e8102cfacd62c0",
                        "0x000000000000000000000000722df2cf991751a50efc15ff3a7427a50e564f87"
                    ]
                },
                "nodeType": 1
            },
            "33": {
                "invocation": {
                    "address": "0xa0b86991c6218b36c1d19d4a2e9eb0ce3606eb48",
                    "callData": "0x000000000000000000000000f3de3c0d654fda23dad170f0f320a92172509127",
                    "decodedMethod": {
                        "callParams": [
                            {
                                "name": "account",
                                "type": "address",
                                "value": "0xf3de3c0d654fda23dad170f0f320a92172509127"
                            }
                        ],
                        "constructorArguments": "",
                        "name": "balanceOf",
                        "returnParams": [
                            {
                                "decimalAvailable": true,
                                "name": "",
                                "type": "uint256",
                                "value": "0"
                            }
                        ],
                        "signature": "balanceOf(address)"
                    },
                    "errorInfo": "",
                    "fromAddress": "0xf3de3c0d654fda23dad170f0f320a92172509127",
                    "gasUsed": 3339,
                    "id": 33,
                    "methodDecoded": true,
                    "operation": "STATICCALL",
                    "output": "0x0000000000000000000000000000000000000000000000000000000000000000",
                    "revert": false,
                    "revertMessage": "",
                    "selector": "0x70a08231",
                    "status": true,
                    "value": "0"
                },
                "nodeType": 0
            },
            "34": {
                "invocation": {
                    "address": "0x43506849d7c04f9138d1a2050bbf3a0c054402dd",
                    "callData": "0x000000000000000000000000f3de3c0d654fda23dad170f0f320a92172509127",
                    "decodedMethod": {
                        "callParams": [
                            {
                                "name": "account",
                                "type": "address",
                                "value": "0xf3de3c0d654fda23dad170f0f320a92172509127"
                            }
                        ],
                        "constructorArguments": "",
                        "name": "balanceOf",
                        "returnParams": [
                            {
                                "decimalAvailable": true,
                                "name": "",
                                "type": "uint256",
                                "value": "0"
                            }
                        ],
                        "signature": "balanceOf(address)"
                    },
                    "errorInfo": "",
                    "fromAddress": "0xa0b86991c6218b36c1d19d4a2e9eb0ce3606eb48",
                    "gasUsed": 2553,
                    "id": 34,
                    "methodDecoded": true,
                    "operation": "DELEGATECALL",
                    "output": "0x0000000000000000000000000000000000000000000000000000000000000000",
                    "revert": false,
                    "revertMessage": "",
                    "selector": "0x70a08231",
                    "status": true,
                    "value": "0"
                },
                "nodeType": 0
            },
            "35": {
                "invocation": {
                    "address": "0xa0b86991c6218b36c1d19d4a2e9eb0ce3606eb48",
                    "callData": "0x000000000000000000000000722df2cf991751a50efc15ff3a7427a50e564f87",
                    "decodedMethod": {
                        "callParams": [
                            {
                                "name": "account",
                                "type": "address",
                                "value": "0x722df2cf991751a50efc15ff3a7427a50e564f87"
                            }
                        ],
                        "constructorArguments": "",
                        "name": "balanceOf",
                        "returnParams": [
                            {
                                "decimalAvailable": true,
                                "name": "",
                                "type": "uint256",
                                "value": "496,682,663"
                            }
                        ],
                        "signature": "balanceOf(address)"
                    },
                    "errorInfo": "",
                    "fromAddress": "0xf3de3c0d654fda23dad170f0f320a92172509127",
                    "gasUsed": 1339,
                    "id": 35,
                    "methodDecoded": true,
                    "operation": "STATICCALL",
                    "output": "0x000000000000000000000000000000000000000000000000000000001d9ac6a7",
                    "revert": false,
                    "revertMessage": "",
                    "selector": "0x70a08231",
                    "status": true,
                    "value": "0"
                },
                "nodeType": 0
            },
            "36": {
                "invocation": {
                    "address": "0x43506849d7c04f9138d1a2050bbf3a0c054402dd",
                    "callData": "0x000000000000000000000000722df2cf991751a50efc15ff3a7427a50e564f87",
                    "decodedMethod": {
                        "callParams": [
                            {
                                "name": "account",
                                "type": "address",
                                "value": "0x722df2cf991751a50efc15ff3a7427a50e564f87"
                            }
                        ],
                        "constructorArguments": "",
                        "name": "balanceOf",
                        "returnParams": [
                            {
                                "decimalAvailable": true,
                                "name": "",
                                "type": "uint256",
                                "value": "496,682,663"
                            }
                        ],
                        "signature": "balanceOf(address)"
                    },
                    "errorInfo": "",
                    "fromAddress": "0xa0b86991c6218b36c1d19d4a2e9eb0ce3606eb48",
                    "gasUsed": 553,
                    "id": 36,
                    "methodDecoded": true,
                    "operation": "DELEGATECALL",
                    "output": "0x000000000000000000000000000000000000000000000000000000001d9ac6a7",
                    "revert": false,
                    "revertMessage": "",
                    "selector": "0x70a08231",
                    "status": true,
                    "value": "0"
                },
                "nodeType": 0
            },
            "37": {
                "event": {
                    "contract": "0xf3de3c0d654fda23dad170f0f320a92172509127",
                    "decodedLog": {
                        "name": "OrderRecord",
                        "params": [
                            {
                                "name": "fromToken",
                                "type": "address",
                                "value": "0xf06017f8f268cffc9dc0fb7bcf0590b4fe7dd1d7"
                            },
                            {
                                "name": "toToken",
                                "type": "address",
                                "value": "0xa0b86991c6218b36c1d19d4a2e9eb0ce3606eb48"
                            },
                            {
                                "name": "sender",
                                "type": "address",
                                "value": "0x722df2cf991751a50efc15ff3a7427a50e564f87"
                            },
                            {
                                "name": "fromAmount",
                                "type": "uint256",
                                "value": "5,312,925,517,466,640"
                            },
                            {
                                "name": "returnAmount",
                                "type": "uint256",
                                "value": "496,682,663"
                            }
                        ],
                        "signature": "OrderRecord(address,address,address,uint256,uint256)"
                    },
                    "id": 37,
                    "logData": "0x000000000000000000000000f06017f8f268cffc9dc0fb7bcf0590b4fe7dd1d7000000000000000000000000a0b86991c6218b36c1d19d4a2e9eb0ce3606eb48000000000000000000000000722df2cf991751a50efc15ff3a7427a50e564f870000000000000000000000000000000000000000000000000012e013de2fcc10000000000000000000000000000000000000000000000000000000001d9ac6a7",
                    "logDecoded": true,
                    "operation": "EVENT",
                    "revert": false,
                    "status": true,
                    "topics": [
                        "0x1bb43f2da90e35f7b0cf38521ca95a49e68eb42fac49924930a5bd73cdf7576c"
                    ]
                },
                "nodeType": 1
            },
            "4": {
                "invocation": {
                    "address": "0x70cbb871e8f30fc8ce23609e9e0ea87b6b222f58",
                    "callData": "0x000000000000000000000000f06017f8f268cffc9dc0fb7bcf0590b4fe7dd1d7000000000000000000000000722df2cf991751a50efc15ff3a7427a50e564f87000000000000000000000000e8ffa425f9749a69536e784de9c2636568f4be9f0000000000000000000000000000000000000000000000000012e013de2fcc10",
                    "decodedMethod": {
                        "callParams": [
                            {
                                "name": "token",
                                "type": "address",
                                "value": "0xf06017f8f268cffc9dc0fb7bcf0590b4fe7dd1d7"
                            },
                            {
                                "name": "who",
                                "type": "address",
                                "value": "0x722df2cf991751a50efc15ff3a7427a50e564f87"
                            },
                            {
                                "name": "dest",
                                "type": "address",
                                "value": "0xe8ffa425f9749a69536e784de9c2636568f4be9f"
                            },
                            {
                                "name": "amount",
                                "type": "uint256",
                                "value": "5,312,925,517,466,640"
                            }
                        ],
                        "constructorArguments": "",
                        "name": "claimTokens",
                        "returnParams": [],
                        "signature": "claimTokens(address,address,address,uint256)"
                    },
                    "errorInfo": "",
                    "fromAddress": "0xf3de3c0d654fda23dad170f0f320a92172509127",
                    "gasUsed": 64368,
                    "id": 4,
                    "methodDecoded": true,
                    "operation": "CALL",
                    "output": "",
                    "revert": false,
                    "revertMessage": "",
                    "selector": "0x0a5ea466",
                    "status": true,
                    "value": "0"
                },
                "nodeType": 0
            },
            "5": {
                "invocation": {
                    "address": "0x40aa958dd87fc8305b97f2ba922cddca374bcd7f",
                    "callData": "0x000000000000000000000000f06017f8f268cffc9dc0fb7bcf0590b4fe7dd1d7000000000000000000000000722df2cf991751a50efc15ff3a7427a50e564f87000000000000000000000000e8ffa425f9749a69536e784de9c2636568f4be9f0000000000000000000000000000000000000000000000000012e013de2fcc10",
                    "decodedMethod": {
                        "callParams": [
                            {
                                "name": "_token",
                                "type": "address",
                                "value": "0xf06017f8f268cffc9dc0fb7bcf0590b4fe7dd1d7"
                            },
                            {
                                "name": "_who",
                                "type": "address",
                                "value": "0x722df2cf991751a50efc15ff3a7427a50e564f87"
                            },
                            {
                                "name": "_dest",
                                "type": "address",
                                "value": "0xe8ffa425f9749a69536e784de9c2636568f4be9f"
                            },
                            {
                                "name": "_amount",
                                "type": "uint256",
                                "value": "5,312,925,517,466,640"
                            }
                        ],
                        "constructorArguments": "",
                        "name": "claimTokens",
                        "returnParams": [],
                        "signature": "claimTokens(address,address,address,uint256)"
                    },
                    "errorInfo": "",
                    "fromAddress": "0x70cbb871e8f30fc8ce23609e9e0ea87b6b222f58",
                    "gasUsed": 56597,
                    "id": 5,
                    "methodDecoded": true,
                    "operation": "CALL",
                    "output": "",
                    "revert": false,
                    "revertMessage": "",
                    "selector": "0x0a5ea466",
                    "status": true,
                    "value": "0"
                },
                "nodeType": 0
            },
            "6": {
                "invocation": {
                    "address": "0xf06017f8f268cffc9dc0fb7bcf0590b4fe7dd1d7",
                    "callData": "0x000000000000000000000000722df2cf991751a50efc15ff3a7427a50e564f87000000000000000000000000e8ffa425f9749a69536e784de9c2636568f4be9f0000000000000000000000000000000000000000000000000012e013de2fcc10",
                    "decodedMethod": {
                        "callParams": [
                            {
                                "name": "sender",
                                "type": "address",
                                "value": "0x722df2cf991751a50efc15ff3a7427a50e564f87"
                            },
                            {
                                "name": "recipient",
                                "type": "address",
                                "value": "0xe8ffa425f9749a69536e784de9c2636568f4be9f"
                            },
                            {
                                "decimalAvailable": true,
                                "name": "amount",
                                "type": "uint256",
                                "value": "5,312,925,517,466,640"
                            }
                        ],
                        "constructorArguments": "",
                        "name": "transferFrom",
                        "returnParams": [
                            {
                                "name": "",
                                "type": "bool",
                                "value": true
                            }
                        ],
                        "signature": "transferFrom(address,address,uint256)"
                    },
                    "errorInfo": "",
                    "fromAddress": "0x40aa958dd87fc8305b97f2ba922cddca374bcd7f",
                    "gasUsed": 49955,
                    "id": 6,
                    "methodDecoded": true,
                    "operation": "CALL",
                    "output": "0x0000000000000000000000000000000000000000000000000000000000000001",
                    "revert": false,
                    "revertMessage": "",
                    "selector": "0x23b872dd",
                    "status": true,
                    "value": "0"
                },
                "nodeType": 0
            },
            "7": {
                "event": {
                    "contract": "0xf06017f8f268cffc9dc0fb7bcf0590b4fe7dd1d7",
                    "decodedLog": {
                        "name": "Transfer",
                        "params": [
                            {
                                "name": "from",
                                "type": "address",
                                "value": "0x722df2cf991751a50efc15ff3a7427a50e564f87"
                            },
                            {
                                "name": "to",
                                "type": "address",
                                "value": "0xe8ffa425f9749a69536e784de9c2636568f4be9f"
                            },
                            {
                                "decimalAvailable": true,
                                "name": "value",
                                "type": "uint256",
                                "value": "5,312,925,517,466,640"
                            }
                        ],
                        "signature": "Transfer(address,address,uint256)"
                    },
                    "id": 7,
                    "logData": "0x0000000000000000000000000000000000000000000000000012e013de2fcc10",
                    "logDecoded": true,
                    "operation": "EVENT",
                    "revert": false,
                    "status": true,
                    "topics": [
                        "0xddf252ad1be2c89b69c2b068fc378daa952ba7f163c4a11628f55a4df523b3ef",
                        "0x000000000000000000000000722df2cf991751a50efc15ff3a7427a50e564f87",
                        "0x000000000000000000000000e8ffa425f9749a69536e784de9c2636568f4be9f"
                    ]
                },
                "nodeType": 1
            },
            "8": {
                "event": {
                    "contract": "0xf06017f8f268cffc9dc0fb7bcf0590b4fe7dd1d7",
                    "decodedLog": {
                        "name": "Approval",
                        "params": [
                            {
                                "name": "owner",
                                "type": "address",
                                "value": "0x722df2cf991751a50efc15ff3a7427a50e564f87"
                            },
                            {
                                "name": "spender",
                                "type": "address",
                                "value": "0x40aa958dd87fc8305b97f2ba922cddca374bcd7f"
                            },
                            {
                                "decimalAvailable": true,
                                "name": "value",
                                "type": "uint256",
                                "value": "115,792,089,237,316,195,423,570,985,008,687,907,853,269,984,665,640,564,039,457,578,694,987,612,173,295"
                            }
                        ],
                        "signature": "Approval(address,address,uint256)"
                    },
                    "id": 8,
                    "logData": "0xffffffffffffffffffffffffffffffffffffffffffffffffffed1fec21d033ef",
                    "logDecoded": true,
                    "operation": "EVENT",
                    "revert": false,
                    "status": true,
                    "topics": [
                        "0x8c5be1e5ebec7d5bd14f71427d1e84f3dd0314c0f7b2291e5b200ac8c7c3b925",
                        "0x000000000000000000000000722df2cf991751a50efc15ff3a7427a50e564f87",
                        "0x00000000000000000000000040aa958dd87fc8305b97f2ba922cddca374bcd7f"
                    ]
                },
                "nodeType": 1
            },
            "9": {
                "invocation": {
                    "address": "0x031f1ad10547b8deb43a36e5491c06a93812023a",
                    "callData": "0x00000000000000000000000003f911aedc25c770e701b8f563e8102cfacd62c0000000000000000000000000e8ffa425f9749a69536e784de9c2636568f4be9f00000000000000000000000000000000000000000000000000000000000000600000000000000000000000000000000000000000000000000000000000000020000000000000000000000000000000000000000000000000000000000000001e",
                    "decodedMethod": {
                        "callParams": [
                            {
                                "name": "to",
                                "type": "address",
                                "value": "0x03f911aedc25c770e701b8f563e8102cfacd62c0"
                            },
                            {
                                "name": "pool",
                                "type": "address",
                                "value": "0xe8ffa425f9749a69536e784de9c2636568f4be9f"
                            },
                            {
                                "name": "moreInfo",
                                "type": "bytes",
                                "value": "0x000000000000000000000000000000000000000000000000000000000000001e"
                            }
                        ],
                        "constructorArguments": "",
                        "name": "sellQuote",
                        "returnParams": [],
                        "signature": "sellQuote(address,address,bytes)"
                    },
                    "errorInfo": "",
                    "fromAddress": "0xf3de3c0d654fda23dad170f0f320a92172509127",
                    "gasUsed": 65319,
                    "id": 9,
                    "methodDecoded": true,
                    "operation": "CALL",
                    "output": "",
                    "revert": false,
                    "revertMessage": "",
                    "selector": "0x6f7929f2",
                    "status": true,
                    "value": "0"
                },
                "nodeType": 0
            }
        },
        "gasFlame": [
            {
                "children": [
                    {
                        "children": [
                            {
                                "children": [],
                                "depth": 0,
                                "name": "Initial Gas",
                                "value": 31524
                            },
                            {
                                "children": [
                                    {
                                        "children": [
                                            {
                                                "children": [],
                                                "depth": 2,
                                                "name": "balanceOf",
                                                "value": 2553
                                            }
                                        ],
                                        "depth": 1,
                                        "name": "balanceOf",
                                        "value": 9839
                                    },
                                    {
                                        "children": [
                                            {
                                                "children": [
                                                    {
                                                        "children": [],
                                                        "depth": 3,
                                                        "name": "transferFrom",
                                                        "value": 49955
                                                    }
                                                ],
                                                "depth": 2,
                                                "name": "claimTokens",
                                                "value": 56597
                                            }
                                        ],
                                        "depth": 1,
                                        "name": "claimTokens",
                                        "value": 64368
                                    },
                                    {
                                        "children": [
                                            {
                                                "children": [],
                                                "depth": 2,
                                                "name": "token1",
                                                "value": 2357
                                            },
                                            {
                                                "children": [],
                                                "depth": 2,
                                                "name": "getReserves",
                                                "value": 2504
                                            },
                                            {
                                                "children": [],
                                                "depth": 2,
                                                "name": "balanceOf",
                                                "value": 962
                                            },
                                            {
                                                "children": [
                                                    {
                                                        "children": [],
                                                        "depth": 3,
                                                        "name": "transfer",
                                                        "value": 29962
                                                    },
                                                    {
                                                        "children": [],
                                                        "depth": 3,
                                                        "name": "balanceOf",
                                                        "value": 534
                                                    },
                                                    {
                                                        "children": [],
                                                        "depth": 3,
                                                        "name": "balanceOf",
                                                        "value": 962
                                                    }
                                                ],
                                                "depth": 2,
                                                "name": "swap",
                                                "value": 52865
                                            }
                                        ],
                                        "depth": 1,
                                        "name": "sellQuote",
                                        "value": 65319
                                    },
                                    {
                                        "children": [],
                                        "depth": 1,
                                        "name": "balanceOf",
                                        "value": 2534
                                    },
                                    {
                                        "children": [
                                            {
                                                "children": [],
                                                "depth": 2,
                                                "name": "balanceOf",
                                                "value": 534
                                            },
                                            {
                                                "children": [
                                                    {
                                                        "children": [
                                                            {
                                                                "children": [],
                                                                "depth": 4,
                                                                "name": "transfer",
                                                                "value": 31363
                                                            }
                                                        ],
                                                        "depth": 3,
                                                        "name": "transfer",
                                                        "value": 32152
                                                    },
                                                    {
                                                        "children": [],
                                                        "depth": 3,
                                                        "name": "balanceOf",
                                                        "value": 2534
                                                    },
                                                    {
                                                        "children": [
                                                            {
                                                                "children": [],
                                                                "depth": 4,
                                                                "name": "transfer",
                                                                "value": 6062
                                                            }
                                                        ],
                                                        "depth": 3,
                                                        "name": "uniswapV3SwapCallback",
                                                        "value": 8665
                                                    },
                                                    {
                                                        "children": [],
                                                        "depth": 3,
                                                        "name": "balanceOf",
                                                        "value": 534
                                                    }
                                                ],
                                                "depth": 2,
                                                "name": "swap",
                                                "value": 75980
                                            }
                                        ],
                                        "depth": 1,
                                        "name": "sellQuote",
                                        "value": 82941
                                    },
                                    {
                                        "children": [
                                            {
                                                "children": [],
                                                "depth": 2,
                                                "name": "balanceOf",
                                                "value": 2553
                                            }
                                        ],
                                        "depth": 1,
                                        "name": "balanceOf",
                                        "value": 3339
                                    },
                                    {
                                        "children": [
                                            {
                                                "children": [],
                                                "depth": 2,
                                                "name": "balanceOf",
                                                "value": 553
                                            }
                                        ],
                                        "depth": 1,
                                        "name": "balanceOf",
                                        "value": 1339
                                    }
                                ],
                                "depth": 0,
                                "name": "Executed Gas",
                                "value": 261620
                            }
                        ],
                        "depth": -1,
                        "name": "Actual Gas Used",
                        "value": 262844
                    },
                    {
                        "children": [],
                        "depth": -1,
                        "name": "Refunded Gas",
                        "value": 30300
                    }
                ],
                "depth": -2,
                "name": "Total Gas",
                "value": 293144
            }
        ],
        "isConfirmed": true,
        "mainTrace": [
            {
                "children": [
                    {
                        "children": [
                            {
                                "children": [],
                                "depth": 1,
                                "id": 1,
                                "order": 1
                            },
                            {
                                "children": [
                                    {
                                        "children": [],
                                        "depth": 2,
                                        "id": 3,
                                        "order": 3
                                    }
                                ],
                                "depth": 1,
                                "id": 2,
                                "order": 2
                            },
                            {
                                "children": [
                                    {
                                        "children": [
                                            {
                                                "children": [
                                                    {
                                                        "children": [],
                                                        "depth": 4,
                                                        "id": 7,
                                                        "order": 7
                                                    },
                                                    {
                                                        "children": [],
                                                        "depth": 4,
                                                        "id": 8,
                                                        "order": 8
                                                    }
                                                ],
                                                "depth": 3,
                                                "id": 6,
                                                "order": 6
                                            }
                                        ],
                                        "depth": 2,
                                        "id": 5,
                                        "order": 5
                                    }
                                ],
                                "depth": 1,
                                "id": 4,
                                "order": 4
                            },
                            {
                                "children": [
                                    {
                                        "children": [],
                                        "depth": 2,
                                        "id": 10,
                                        "order": 10
                                    },
                                    {
                                        "children": [],
                                        "depth": 2,
                                        "id": 11,
                                        "order": 11
                                    },
                                    {
                                        "children": [],
                                        "depth": 2,
                                        "id": 12,
                                        "order": 12
                                    },
                                    {
                                        "children": [
                                            {
                                                "children": [
                                                    {
                                                        "children": [],
                                                        "depth": 4,
                                                        "id": 15,
                                                        "order": 15
                                                    }
                                                ],
                                                "depth": 3,
                                                "id": 14,
                                                "order": 14
                                            },
                                            {
                                                "children": [],
                                                "depth": 3,
                                                "id": 16,
                                                "order": 16
                                            },
                                            {
                                                "children": [],
                                                "depth": 3,
                                                "id": 17,
                                                "order": 17
                                            },
                                            {
                                                "children": [],
                                                "depth": 3,
                                                "id": 18,
                                                "order": 18
                                            },
                                            {
                                                "children": [],
                                                "depth": 3,
                                                "id": 19,
                                                "order": 19
                                            }
                                        ],
                                        "depth": 2,
                                        "id": 13,
                                        "order": 13
                                    }
                                ],
                                "depth": 1,
                                "id": 9,
                                "order": 9
                            },
                            {
                                "children": [],
                                "depth": 1,
                                "id": 20,
                                "order": 20
                            },
                            {
                                "children": [
                                    {
                                        "children": [],
                                        "depth": 2,
                                        "id": 22,
                                        "order": 22
                                    },
                                    {
                                        "children": [
                                            {
                                                "children": [
                                                    {
                                                        "children": [
                                                            {
                                                                "children": [],
                                                                "depth": 5,
                                                                "id": 26,
                                                                "order": 26
                                                            }
                                                        ],
                                                        "depth": 4,
                                                        "id": 25,
                                                        "order": 25
                                                    }
                                                ],
                                                "depth": 3,
                                                "id": 24,
                                                "order": 24
                                            },
                                            {
                                                "children": [],
                                                "depth": 3,
                                                "id": 27,
                                                "order": 27
                                            },
                                            {
                                                "children": [
                                                    {
                                                        "children": [
                                                            {
                                                                "children": [],
                                                                "depth": 5,
                                                                "id": 30,
                                                                "order": 30
                                                            }
                                                        ],
                                                        "depth": 4,
                                                        "id": 29,
                                                        "order": 29
                                                    }
                                                ],
                                                "depth": 3,
                                                "id": 28,
                                                "order": 28
                                            },
                                            {
                                                "children": [],
                                                "depth": 3,
                                                "id": 31,
                                                "order": 31
                                            },
                                            {
                                                "children": [],
                                                "depth": 3,
                                                "id": 32,
                                                "order": 32
                                            }
                                        ],
                                        "depth": 2,
                                        "id": 23,
                                        "order": 23
                                    }
                                ],
                                "depth": 1,
                                "id": 21,
                                "order": 21
                            },
                            {
                                "children": [
                                    {
                                        "children": [],
                                        "depth": 2,
                                        "id": 34,
                                        "order": 34
                                    }
                                ],
                                "depth": 1,
                                "id": 33,
                                "order": 33
                            },
                            {
                                "children": [
                                    {
                                        "children": [],
                                        "depth": 2,
                                        "id": 36,
                                        "order": 36
                                    }
                                ],
                                "depth": 1,
                                "id": 35,
                                "order": 35
                            },
                            {
                                "children": [],
                                "depth": 1,
                                "id": 37,
                                "order": 37
                            }
                        ],
                        "depth": 0,
                        "id": 0,
                        "order": 0
                    }
                ],
                "depth": -1,
                "id": -1,
                "order": -1
            }
        ],
        "mainTraceNodeCount": 38,
        "parentIdMap": {
            "0": -1,
            "1": 0,
            "10": 9,
            "11": 9,
            "12": 9,
            "13": 9,
            "14": 13,
            "15": 14,
            "16": 13,
            "17": 13,
            "18": 13,
            "19": 13,
            "2": 0,
            "20": 0,
            "21": 0,
            "22": 21,
            "23": 21,
            "24": 23,
            "25": 24,
            "26": 25,
            "27": 23,
            "28": 23,
            "29": 28,
            "3": 2,
            "30": 29,
            "31": 23,
            "32": 23,
            "33": 0,
            "34": 33,
            "35": 0,
            "36": 35,
            "37": 0,
            "4": 0,
            "5": 4,
            "6": 5,
            "7": 6,
            "8": 6,
            "9": 0
        },
        "tidyTrace": [
            {
                "children": [
                    {
                        "children": [
                            {
                                "children": [],
                                "depth": 1,
                                "id": 1,
                                "order": 1
                            },
                            {
                                "children": [
                                    {
                                        "children": [
                                            {
                                                "children": [
                                                    {
                                                        "children": [],
                                                        "depth": 4,
                                                        "id": 7,
                                                        "order": 7
                                                    },
                                                    {
                                                        "children": [],
                                                        "depth": 4,
                                                        "id": 8,
                                                        "order": 8
                                                    }
                                                ],
                                                "depth": 3,
                                                "id": 6,
                                                "order": 6
                                            }
                                        ],
                                        "depth": 2,
                                        "id": 5,
                                        "order": 5
                                    }
                                ],
                                "depth": 1,
                                "id": 4,
                                "order": 4
                            },
                            {
                                "children": [
                                    {
                                        "children": [
                                            {
                                                "children": [
                                                    {
                                                        "children": [],
                                                        "depth": 4,
                                                        "id": 15,
                                                        "order": 15
                                                    }
                                                ],
                                                "depth": 3,
                                                "id": 14,
                                                "order": 14
                                            },
                                            {
                                                "children": [],
                                                "depth": 3,
                                                "id": 18,
                                                "order": 18
                                            },
                                            {
                                                "children": [],
                                                "depth": 3,
                                                "id": 19,
                                                "order": 19
                                            }
                                        ],
                                        "depth": 2,
                                        "id": 13,
                                        "order": 13
                                    }
                                ],
                                "depth": 1,
                                "id": 9,
                                "order": 9
                            },
                            {
                                "children": [
                                    {
                                        "children": [
                                            {
                                                "children": [
                                                    {
                                                        "children": [
                                                            {
                                                                "children": [],
                                                                "depth": 5,
                                                                "id": 26,
                                                                "order": 26
                                                            }
                                                        ],
                                                        "depth": 4,
                                                        "id": 25,
                                                        "order": 25
                                                    }
                                                ],
                                                "depth": 3,
                                                "id": 24,
                                                "order": 24
                                            },
                                            {
                                                "children": [
                                                    {
                                                        "children": [
                                                            {
                                                                "children": [],
                                                                "depth": 5,
                                                                "id": 30,
                                                                "order": 30
                                                            }
                                                        ],
                                                        "depth": 4,
                                                        "id": 29,
                                                        "order": 29
                                                    }
                                                ],
                                                "depth": 3,
                                                "id": 28,
                                                "order": 28
                                            },
                                            {
                                                "children": [],
                                                "depth": 3,
                                                "id": 32,
                                                "order": 32
                                            }
                                        ],
                                        "depth": 2,
                                        "id": 23,
                                        "order": 23
                                    }
                                ],
                                "depth": 1,
                                "id": 21,
                                "order": 21
                            },
                            {
                                "children": [],
                                "depth": 1,
                                "id": 37,
                                "order": 37
                            }
                        ],
                        "depth": 0,
                        "id": 0,
                        "order": 0
                    }
                ],
                "depth": -1,
                "id": -1,
                "order": -1
            }
        ],
        "tidyTraceNodeCount": 23
    },
    "state_change": {
        "stateChanges": [
            {
                "address": "0x88e6a0c2ddd26feeb64f039a2c41296fcb3f5640",
                "erc": "",
                "slots": [
                    {
                        "current": "0x00010002d302d302bf02fd2100000000000045f6d96e923c00638346e6d49d05",
                        "key": "0x0000000000000000000000000000000000000000000000000000000000000000",
                        "prev": "0x00010002d302d302bf02fd2100000000000045f6d23fa206c3c68bec30a79d0f"
                    },
                    {
                        "current": "0x00000000000000000000000000000fcff4555ddd898d59061f4fc805a882bca1",
                        "key": "0x0000000000000000000000000000000000000000000000000000000000000002",
                        "prev": "0x00000000000000000000000000000fcff454725d0ffd327b1ba309f409d91062"
                    }
                ],
                "storageVariables": []
            },
            {
                "address": "0xa0b86991c6218b36c1d19d4a2e9eb0ce3606eb48",
                "erc": "ERC-20",
                "slots": [
                    {
                        "current": "0x000000000000000000000000000000000000000000000000000038ab9cb17b72",
                        "key": "0x1f21a62c4538bacf2aabeca410f0fe63151869f172e03c0e00357ba26a341eff",
                        "prev": "0x000000000000000000000000000000000000000000000000000038abba4c4219"
                    },
                    {
                        "current": "0x000000000000000000000000000000000000000000000000000000001d9ac6a7",
                        "key": "0x0ad77eddf1bf0d0f880af73eeadcaaa726572514352dc2c8225c0b339e3f6eca",
                        "prev": "0x0000000000000000000000000000000000000000000000000000000000000000"
                    }
                ],
                "storageVariables": [
                    {
                        "name": "balanceAndBlacklistStates",
                        "type": "mapping(address => uint256)",
                        "value": {
                            "pairs": [
                                {
                                    "key": "0x722df2cf991751a50efc15ff3a7427a50e564f87",
                                    "value": {
                                        "current": "496682663",
                                        "prev": "0",
                                        "typeTag": 1
                                    }
                                },
                                {
                                    "key": "0x88e6a0c2ddd26feeb64f039a2c41296fcb3f5640",
                                    "value": {
                                        "current": "62309719440242",
                                        "prev": "62310216122905",
                                        "typeTag": 1
                                    }
                                }
                            ],
                            "typeTag": 4
                        }
                    }
                ]
            },
            {
                "address": "0xc02aaa39b223fe8d0a0e5c4f27ead9083c756cc2",
                "erc": "ERC-20",
                "slots": [
                    {
                        "current": "0x0000000000000000000000000000000000000000000000004af50aacd2b3dc60",
                        "key": "0xf4cb006c76e1c806a39d8d53e87be6de92e6c88cc9e9d203e7b359db07737dc2",
                        "prev": "0x0000000000000000000000000000000000000000000000004d2b6556df8d5bd4"
                    },
                    {
                        "current": "0x0000000000000000000000000000000000000000000005b410078727f0ccda5b",
                        "key": "0x390f6178407c9b8e95802b8659e6df8e34c1e3d4f8d6a49e6132bbcdd937b63a",
                        "prev": "0x0000000000000000000000000000000000000000000005b40dd12c7de3f35ae7"
                    }
                ],
                "storageVariables": [
                    {
                        "name": "balanceOf",
                        "type": "mapping(address => uint256)",
                        "value": {
                            "pairs": [
                                {
                                    "key": "0x88e6a0c2ddd26feeb64f039a2c41296fcb3f5640",
                                    "value": {
                                        "current": "26933401388051002612315",
                                        "prev": "26933241973527777860327",
                                        "typeTag": 1
                                    }
                                },
                                {
                                    "key": "0xe8ffa425f9749a69536e784de9c2636568f4be9f",
                                    "value": {
                                        "current": "5401235065486433376",
                                        "prev": "5560649588711185364",
                                        "typeTag": 1
                                    }
                                }
                            ],
                            "typeTag": 4
                        }
                    }
                ]
            },
            {
                "address": "0xe8ffa425f9749a69536e784de9c2636568f4be9f",
                "erc": "ERC-20",
                "slots": [
                    {
                        "current": "0x668f8f4300000000000002907becc934de0a0000000000004af50aacd2b3dc60",
                        "key": "0x0000000000000000000000000000000000000000000000000000000000000008",
                        "prev": "0x668f8f43000000000000027d9bd8eb0511fa0000000000004d2b6556df8d5bd4"
                    }
                ],
                "storageVariables": [
                    {
                        "name": "reserve0",
                        "type": "uint112",
                        "value": {
                            "current": "5401235065486433376",
                            "prev": "5560649588711185364",
                            "typeTag": 1
                        }
                    },
                    {
                        "name": "reserve1",
                        "type": "uint112",
                        "value": {
                            "current": "184783841640373770",
                            "prev": "179470916122907130",
                            "typeTag": 1
                        }
                    },
                    {
                        "name": "blockTimestampLast",
                        "type": "uint32",
                        "value": {
                            "current": "1720684355",
                            "prev": "1720684355",
                            "typeTag": 1
                        }
                    }
                ]
            },
            {
                "address": "0xf06017f8f268cffc9dc0fb7bcf0590b4fe7dd1d7",
                "erc": "ERC-20",
                "slots": [
                    {
                        "current": "0x00000000000000000000000000000000000000000000000002907becc934de0a",
                        "key": "0x0cc407c34d86974ad911b3ebf3d0901b1c56197329e3630ddf653982172f7696",
                        "prev": "0x000000000000000000000000000000000000000000000000027d9bd8eb0511fa"
                    },
                    {
                        "current": "0xffffffffffffffffffffffffffffffffffffffffffffffffffed1fec21d033ef",
                        "key": "0xf9a9fc861d4b39d6dda2b9d945352b9b8bdff6b43c4b80aa599d8fd33f228509",
                        "prev": "0xffffffffffffffffffffffffffffffffffffffffffffffffffffffffffffffff"
                    },
                    {
                        "current": "0x0000000000000000000000000000000000000000000000000000000000000000",
                        "key": "0x36d9412afab08ec90e7a19df6b4834e134bdbaae25d0f301f3b7c3216dfaf951",
                        "prev": "0x0000000000000000000000000000000000000000000000000012e013de2fcc10"
                    }
                ],
                "storageVariables": [
                    {
                        "name": "_balances",
                        "type": "mapping(address => uint256)",
                        "value": {
                            "pairs": [
                                {
                                    "key": "0x722df2cf991751a50efc15ff3a7427a50e564f87",
                                    "value": {
                                        "current": "0",
                                        "prev": "5312925517466640",
                                        "typeTag": 1
                                    }
                                },
                                {
                                    "key": "0xe8ffa425f9749a69536e784de9c2636568f4be9f",
                                    "value": {
                                        "current": "184783841640373770",
                                        "prev": "179470916122907130",
                                        "typeTag": 1
                                    }
                                }
                            ],
                            "typeTag": 4
                        }
                    },
                    {
                        "name": "_allowances",
                        "type": "mapping(address => mapping(address => uint256))",
                        "value": {
                            "pairs": [
                                {
                                    "key": "0x722df2cf991751a50efc15ff3a7427a50e564f87",
                                    "value": {
                                        "pairs": [
                                            {
                                                "key": "0x40aa958dd87fc8305b97f2ba922cddca374bcd7f",
                                                "value": {
                                                    "current": "115792089237316195423570985008687907853269984665640564039457578694987612173295",
                                                    "prev": "115792089237316195423570985008687907853269984665640564039457584007913129639935",
                                                    "typeTag": 1
                                                }
                                            }
                                        ],
                                        "typeTag": 4
                                    }
                                }
                            ],
                            "typeTag": 4
                        }
                    }
                ]
            }
        ]
    }
}