{
    "balance_change": {
        "balanceChanges": [
            {
                "account": "0xcaa5f95602a70802d87e9b800886917b538a7e9c",
                "assets": [
                    {
                        "address": "0x0d8775f648430679a709e98d2b0cb6250d2887ef",
                        "amount": "36.64953",
                        "iconUrl": "https://assets.blocksec.com/icon/c5e7cd8dfdc41ede0b39a767b7a8b9ac3f98749148ad9c0ffe838d1ca4891ff1.png",
                        "isERC1155": false,
                        "isERC721": false,
                        "sign": false,
                        "value": "6.7398485670000002896"
                    }
                ]
            },
            {
                "account": "0xcffad3200574698b78f32232aa9d63eabd290703",
                "assets": [
                    {
                        "address": "0x0d8775f648430679a709e98d2b0cb6250d2887ef",
                        "amount": "36.64953",
                        "iconUrl": "https://assets.blocksec.com/icon/c5e7cd8dfdc41ede0b39a767b7a8b9ac3f98749148ad9c0ffe838d1ca4891ff1.png",
                        "isERC1155": false,
                        "isERC721": false,
                        "sign": true,
                        "value": "6.7398485670000002896"
                    }
                ]
            }
        ]
    },
    "profile": {
        "basic_info": {
            "baseFee": "22.165271932",
            "blockNumber": 17446896,
            "callData": "0xa9059cbb000000000000000000000000cffad3200574698b78f32232aa9d63eabd290703000000000000000000000000000000000000000000000001fc9d495b8305a000",
            "debugEnable": true,
            "errorInfo": "",
            "eventCount": 1,
            "feeRecipient": "0x690b9a9e9aa1c9db991c7721a92d351db4fac990",
            "formatValue": "0",
            "gasLimit": 41702,
            "gasPrice": "24.653224419",
            "gasUsed": 29952,
            "intTxnCount": 0,
            "internalRevert": false,
            "internalRevertMessage": "",
            "isContractCreation": false,
            "isFlashloan": false,
            "maxFee": "",
            "nonce": 2,
            "overwritedBlockNumber": -1,
            "priorityFee": "",
            "receiver": "0x0d8775f648430679a709e98d2b0cb6250d2887ef",
            "revertMessage": "",
            "sender": "0xcaa5f95602a70802d87e9b800886917b538a7e9c",
            "simulationEnable": true,
            "sourceTxnHash": "0xc42f4161e3b2e12626776ed955b4d425deca92f8ef28e7b5ffd63b3182459084",
            "status": true,
            "timestamp": "2023-06-10T02:45:23Z",
            "transactionFee": "0.000738413377797888",
            "txnHash": "0xc42f4161e3b2e12626776ed955b4d425deca92f8ef28e7b5ffd63b3182459084",
            "txnIndex": 91,
            "type": 0,
            "value": "0"
        },
        "fund_flow": [
            {
                "amount": "36.64953",
                "from": "0xcaa5f95602a70802d87e9b800886917b538a7e9c",
                "id": 1,
                "isERC1155": false,
                "isERC721": false,
                "isReverted": false,
                "order": 1,
                "to": "0xcffad3200574698b78f32232aa9d63eabd290703",
                "token": "0x0d8775f648430679a709e98d2b0cb6250d2887ef"
            }
        ],
        "token_infos": [
            {
                "address": "0x0d8775f648430679a709e98d2b0cb6250d2887ef",
                "decimals": 18
            },
            {
                "address": "0xc02aaa39b223fe8d0a0e5c4f27ead9083c756cc2",
                "decimals": 18
            },
            {
                "address": "0xeeeeeeeeeeeeeeeeeeeeeeeeeeeeeeeeeeeeeeee",
                "decimals": 18
            }
        ]
    },
    "address_label": {
        "labels": [
            {
                "address": "0x0000000000000000000000000000000000000004",
                "label": "Precompiled"
            },
            {
                "address": "0xeeeeeeeeeeeeeeeeeeeeeeeeeeeeeeeeeeeeeeee",
                "label": "Ether"
            },
            {
                "address": "0x0d8775f648430679a709e98d2b0cb6250d2887ef",
                "label": "Basic Attention: BAT Token"
            },
            {
                "address": "0xcffad3200574698b78f32232aa9d63eabd290703",
                "label": "Crypto.com 5"
            },
            {
                "address": "0xcaa5f95602a70802d87e9b800886917b538a7e9c",
                "label": "CRYPTO.COM"
            },
            {
                "address": "0x0000000000000000000000000000000000000001",
                "label": "Precompiled"
            },
            {
                "address": "0x0000000000000000000000000000000000000002",
                "label": "Precompiled"
            },
            {
                "address": "0x0000000000000000000000000000000000000003",
                "label": "Precompiled"
            }
        ]
    },
    "trace": {
        "accountLabels": null,
        "dataMap": {
            "-1": {
                "invocation": {
                    "address": "0xcaa5f95602a70802d87e9b800886917b538a7e9c",
                    "callData": "",
                    "decodedMethod": null,
                    "errorInfo": "",
                    "fromAddress": "",
                    "gasUsed": 0,
                    "id": -1,
                    "methodDecoded": false,
                    "operation": "",
                    "output": "",
                    "revert": false,
                    "revertMessage": "",
                    "selector": "",
                    "status": false,
                    "value": ""
                },
                "nodeType": 0
            },
            "0": {
                "invocation": {
                    "address": "0x0d8775f648430679a709e98d2b0cb6250d2887ef",
                    "callData": "0x000000000000000000000000cffad3200574698b78f32232aa9d63eabd290703000000000000000000000000000000000000000000000001fc9d495b8305a000",
                    "decodedMethod": {
                        "callParams": [
                            {
                                "name": "_to",
                                "type": "address",
                                "value": "0xcffad3200574698b78f32232aa9d63eabd290703"
                            },
                            {
                                "decimalAvailable": true,
                                "name": "_value",
                                "type": "uint256",
                                "value": "36,649,530,000,000,000,000"
                            }
                        ],
                        "constructorArguments": "",
                        "name": "transfer",
                        "returnParams": [
                            {
                                "name": "success",
                                "type": "bool",
                                "value": true
                            }
                        ],
                        "signature": "transfer(address,uint256)"
                    },
                    "errorInfo": "",
                    "fromAddress": "0xcaa5f95602a70802d87e9b800886917b538a7e9c",
                    "gasUsed": 29952,
                    "id": 0,
                    "methodDecoded": true,
                    "operation": "CALL",
                    "output": "0x0000000000000000000000000000000000000000000000000000000000000001",
                    "revert": false,
                    "revertMessage": "",
                    "selector": "0xa9059cbb",
                    "status": true,
                    "value": "0"
                },
                "nodeType": 0
            },
            "1": {
                "event": {
                    "contract": "0x0d8775f648430679a709e98d2b0cb6250d2887ef",
                    "decodedLog": {
                        "name": "Transfer",
                        "params": [
                            {
                                "name": "_from",
                                "type": "address",
                                "value": "0xcaa5f95602a70802d87e9b800886917b538a7e9c"
                            },
                            {
                                "name": "_to",
                                "type": "address",
                                "value": "0xcffad3200574698b78f32232aa9d63eabd290703"
                            },
                            {
                                "decimalAvailable": true,
                                "name": "_value",
                                "type": "uint256",
                                "value": "36,649,530,000,000,000,000"
                            }
                        ],
                        "signature": "Transfer(address,address,uint256)"
                    },
                    "id": 1,
                    "logData": "0x000000000000000000000000000000000000000000000001fc9d495b8305a000",
                    "logDecoded": true,
                    "operation": "EVENT",
                    "revert": false,
                    "status": true,
                    "topics": [
                        "0xddf252ad1be2c89b69c2b068fc378daa952ba7f163c4a11628f55a4df523b3ef",
                        "0x000000000000000000000000caa5f95602a70802d87e9b800886917b538a7e9c",
                        "0x000000000000000000000000cffad3200574698b78f32232aa9d63eabd290703"
                    ]
                },
                "nodeType": 1
            }
        },
        "gasFlame": [
            {
                "children": [
                    {
                        "children": [
                            {
                                "children": [],
                                "depth": 0,
                                "name": "Initial Gas",
                                "value": 21656
                            },
                            {
                                "children": [],
                                "depth": 0,
                                "name": "Executed Gas",
                                "value": 13096
                            }
                        ],
                        "depth": -1,
                        "name": "Actual Gas Used",
                        "value": 29952
                    },
                    {
                        "children": [],
                        "depth": -1,
                        "name": "Refunded Gas",
                        "value": 4800
                    }
                ],
                "depth": -2,
                "name": "Total Gas",
                "value": 34752
            }
        ],
        "isConfirmed": true,
        "mainTrace": [
            {
                "children": [
                    {
                        "children": [
                            {
                                "children": [],
                                "depth": 1,
                                "id": 1,
                                "order": 1
                            }
                        ],
                        "depth": 0,
                        "id": 0,
                        "order": 0
                    }
                ],
                "depth": -1,
                "id": -1,
                "order": -1
            }
        ],
        "mainTraceNodeCount": 2,
        "parentIdMap": {
            "0": -1,
            "1": 0
        },
        "tidyTrace": [
            {
                "children": [
                    {
                        "children": [
                            {
                                "children": [],
                                "depth": 1,
                                "id": 1,
                                "order": 1
                            }
                        ],
                        "depth": 0,
                        "id": 0,
                        "order": 0
                    }
                ],
                "depth": -1,
                "id": -1,
                "order": -1
            }
        ],
        "tidyTraceNodeCount": 2
    },
    "state_change": {
        "stateChanges": [
            {
                "address": "0x0d8775f648430679a709e98d2b0cb6250d2887ef",
                "erc": "ERC-20",
                "slots": [
                    {
                        "current": "0x0000000000000000000000000000000000000000000000000000000000000000",
                        "key": "0x2f891dbbd007eeebe1749496e3b91ffa418cf647d299b5ff9cfd76e52c3b79ed",
                        "prev": "0x000000000000000000000000000000000000000000000001fc9d495b8305a000"
                    },
                    {
                        "current": "0x00000000000000000000000000000000000000000001d0779326d73575935b87",
                        "key": "0x8e26670ca4e1dd0af1a7021aadd67acd19262a49b33755e2a79ba658400ab4d6",
                        "prev": "0x00000000000000000000000000000000000000000001d07596898dd9f28dbb87"
                    }
                ],
                "storageVariables": []
            }
        ]
    }
}