{
    "balance_change": {
        "balanceChanges": [
            {
                "account": "0xf0c6494e3165986111bd8ab9efa66c48d9f18bde",
                "assets": [
                    {
                        "address": "0xeeeeeeeeeeeeeeeeeeeeeeeeeeeeeeeeeeeeeeee",
                        "amount": "0.014894327160493828",
                        "iconUrl": "https://assets.blocksec.com/image/1663669189317-3.png",
                        "isERC1155": false,
                        "isERC721": false,
                        "sign": false,
                        "value": ""
                    },
                    {
                        "address": "0xf5b0a3efb8e8e4c201e2a935f110eaaf3ffecb8d",
                        "amount": "139,263",
                        "iconUrl": "",
                        "isERC1155": false,
                        "isERC721": false,
                        "sign": true,
                        "value": ""
                    }
                ]
            },
            {
                "account": "0xf4985070ce32b6b1994329df787d1acc9a2dd9e2",
                "assets": [
                    {
                        "address": "0xeeeeeeeeeeeeeeeeeeeeeeeeeeeeeeeeeeeeeeee",
                        "amount": "0.000633008904320987",
                        "iconUrl": "https://assets.blocksec.com/image/1663669189317-3.png",
                        "isERC1155": false,
                        "isERC721": false,
                        "sign": true,
                        "value": ""
                    },
                    {
                        "address": "0xf5b0a3efb8e8e4c201e2a935f110eaaf3ffecb8d",
                        "amount": "139,263",
                        "iconUrl": "",
                        "isERC1155": false,
                        "isERC721": false,
                        "sign": false,
                        "value": ""
                    }
                ]
            },
            {
                "account": "0x19445b292463fa2a4b9398908cf88825feaf15fc",
                "assets": [
                    {
                        "address": "0xeeeeeeeeeeeeeeeeeeeeeeeeeeeeeeeeeeeeeeee",
                        "amount": "0.014261318256172841",
                        "iconUrl": "https://assets.blocksec.com/image/1663669189317-3.png",
                        "isERC1155": false,
                        "isERC721": false,
                        "sign": true,
                        "value": ""
                    }
                ]
            }
        ]
    },
    "profile": {
        "basic_info": {
            "baseFee": "",
            "blockNumber": 9471598,
            "callData": "0x59d667a5000000000000000000000000f5b0a3efb8e8e4c201e2a935f110eaaf3ffecb8d0000000000000000000000000000000000000000000000000000000000021fff",
            "debugEnable": true,
            "errorInfo": "",
            "eventCount": 3,
            "feeRecipient": "0xea674fdde714fd979de3edf0f56aa9716b898ec8",
            "formatValue": "0.014898783950617283",
            "gasLimit": 205572,
            "gasPrice": "2.1",
            "gasUsed": 94222,
            "intTxnCount": 5,
            "internalRevert": false,
            "internalRevertMessage": "",
            "isContractCreation": false,
            "isFlashloan": false,
            "maxFee": "",
            "nonce": 37,
            "overwritedBlockNumber": -1,
            "priorityFee": "",
            "receiver": "0xf4985070ce32b6b1994329df787d1acc9a2dd9e2",
            "revertMessage": "",
            "sender": "0xf0c6494e3165986111bd8ab9efa66c48d9f18bde",
            "simulationEnable": true,
            "sourceTxnHash": "0xc4859202337b557f0fb481b3fbdcb967aa72a1024e5781c88258c467d425f673",
            "status": true,
            "timestamp": "2020-02-13T01:11:44Z",
            "transactionFee": "0.0001978662",
            "txnHash": "0xc4859202337b557f0fb481b3fbdcb967aa72a1024e5781c88258c467d425f673",
            "txnIndex": 65,
            "type": 0,
            "value": "14898783950617283"
        },
        "fund_flow": [
            {
                "amount": "0.014898783950617283",
                "from": "0xf0c6494e3165986111bd8ab9efa66c48d9f18bde",
                "id": 1,
                "isERC1155": false,
                "isERC721": false,
                "isReverted": false,
                "order": 1,
                "to": "0xf4985070ce32b6b1994329df787d1acc9a2dd9e2",
                "token": "0xeeeeeeeeeeeeeeeeeeeeeeeeeeeeeeeeeeeeeeee"
            },
            {
                "amount": "0.014261318256172841",
                "from": "0xf4985070ce32b6b1994329df787d1acc9a2dd9e2",
                "id": 2,
                "isERC1155": false,
                "isERC721": false,
                "isReverted": false,
                "order": 2,
                "to": "0x19445b292463fa2a4b9398908cf88825feaf15fc",
                "token": "0xeeeeeeeeeeeeeeeeeeeeeeeeeeeeeeeeeeeeeeee"
            },
            {
                "amount": "0.000004456790123455",
                "from": "0xf4985070ce32b6b1994329df787d1acc9a2dd9e2",
                "id": 3,
                "isERC1155": false,
                "isERC721": false,
                "isReverted": false,
                "order": 3,
                "to": "0xf0c6494e3165986111bd8ab9efa66c48d9f18bde",
                "token": "0xeeeeeeeeeeeeeeeeeeeeeeeeeeeeeeeeeeeeeeee"
            },
            {
                "amount": "139,263",
                "from": "0xf4985070ce32b6b1994329df787d1acc9a2dd9e2",
                "id": 4,
                "isERC1155": false,
                "isERC721": false,
                "isReverted": false,
                "order": 4,
                "to": "0xf0c6494e3165986111bd8ab9efa66c48d9f18bde",
                "token": "0xf5b0a3efb8e8e4c201e2a935f110eaaf3ffecb8d"
            }
        ],
        "token_infos": [
            {
                "address": "0xc02aaa39b223fe8d0a0e5c4f27ead9083c756cc2",
                "decimals": 18
            },
            {
                "address": "0xf5b0a3efb8e8e4c201e2a935f110eaaf3ffecb8d",
                "decimals": -1
            },
            {
                "address": "0xeeeeeeeeeeeeeeeeeeeeeeeeeeeeeeeeeeeeeeee",
                "decimals": 18
            }
        ]
    },
    "address_label": {
        "labels": [
            {
                "address": "0x0000000000000000000000000000000000000001",
                "label": "Precompiled"
            },
            {
                "address": "0x0000000000000000000000000000000000000002",
                "label": "Precompiled"
            },
            {
                "address": "0x0000000000000000000000000000000000000003",
                "label": "Precompiled"
            },
            {
                "address": "0x0000000000000000000000000000000000000004",
                "label": "Precompiled"
            },
            {
                "address": "0xeeeeeeeeeeeeeeeeeeeeeeeeeeeeeeeeeeeeeeee",
                "label": "Ether"
            },
            {
                "address": "0xf4985070ce32b6b1994329df787d1acc9a2dd9e2",
                "label": "Axie Infinity: Axie Clock Auction"
            },
            {
                "address": "0xf5b0a3efb8e8e4c201e2a935f110eaaf3ffecb8d",
                "label": "Axie Infinity: AXIE Token"
            }
        ]
    },
    "trace": {
        "accountLabels": null,
        "dataMap": {
            "-1": {
                "invocation": {
                    "address": "0xf0c6494e3165986111bd8ab9efa66c48d9f18bde",
                    "callData": "",
                    "decodedMethod": null,
                    "errorInfo": "",
                    "fromAddress": "",
                    "gasUsed": 0,
                    "id": -1,
                    "methodDecoded": false,
                    "operation": "",
                    "output": "",
                    "revert": false,
                    "revertMessage": "",
                    "selector": "",
                    "status": false,
                    "value": ""
                },
                "nodeType": 0
            },
            "0": {
                "invocation": {
                    "address": "0xf4985070ce32b6b1994329df787d1acc9a2dd9e2",
                    "callData": "0x000000000000000000000000f5b0a3efb8e8e4c201e2a935f110eaaf3ffecb8d0000000000000000000000000000000000000000000000000000000000021fff",
                    "decodedMethod": {
                        "callParams": [
                            {
                                "name": "_nftAddress",
                                "type": "address",
                                "value": "0xf5b0a3efb8e8e4c201e2a935f110eaaf3ffecb8d"
                            },
                            {
                                "name": "_tokenId",
                                "type": "uint256",
                                "value": "139,263"
                            }
                        ],
                        "constructorArguments": "",
                        "name": "bid",
                        "returnParams": [],
                        "signature": "bid(address,uint256)"
                    },
                    "errorInfo": "",
                    "fromAddress": "0xf0c6494e3165986111bd8ab9efa66c48d9f18bde",
                    "gasUsed": 94222,
                    "id": 0,
                    "methodDecoded": true,
                    "operation": "CALL",
                    "output": "",
                    "revert": false,
                    "revertMessage": "",
                    "selector": "0x59d667a5",
                    "status": true,
                    "value": "0.014898783950617283"
                },
                "nodeType": 0
            },
            "1": {
                "invocation": {
                    "address": "0x19445b292463fa2a4b9398908cf88825feaf15fc",
                    "callData": "0x",
                    "decodedMethod": null,
                    "errorInfo": "",
                    "fromAddress": "0xf4985070ce32b6b1994329df787d1acc9a2dd9e2",
                    "gasUsed": 0,
                    "id": 1,
                    "methodDecoded": false,
                    "operation": "CALL",
                    "output": "",
                    "revert": false,
                    "revertMessage": "",
                    "selector": "fallback",
                    "status": true,
                    "value": "0.014261318256172841"
                },
                "nodeType": 0
            },
            "2": {
                "invocation": {
                    "address": "0xf0c6494e3165986111bd8ab9efa66c48d9f18bde",
                    "callData": "0x",
                    "decodedMethod": null,
                    "errorInfo": "",
                    "fromAddress": "0xf4985070ce32b6b1994329df787d1acc9a2dd9e2",
                    "gasUsed": 0,
                    "id": 2,
                    "methodDecoded": false,
                    "operation": "CALL",
                    "output": "",
                    "revert": false,
                    "revertMessage": "",
                    "selector": "fallback",
                    "status": true,
                    "value": "0.000004456790123455"
                },
                "nodeType": 0
            },
            "3": {
                "event": {
                    "contract": "0xf4985070ce32b6b1994329df787d1acc9a2dd9e2",
                    "decodedLog": {
                        "name": "AuctionSuccessful",
                        "params": [
                            {
                                "name": "_nftAddress",
                                "type": "address",
                                "value": "0xf5b0a3efb8e8e4c201e2a935f110eaaf3ffecb8d"
                            },
                            {
                                "name": "_tokenId",
                                "type": "uint256",
                                "value": "139,263"
                            },
                            {
                                "name": "_totalPrice",
                                "type": "uint256",
                                "value": "14,894,327,160,493,828"
                            },
                            {
                                "name": "_winner",
                                "type": "address",
                                "value": "0xf0c6494e3165986111bd8ab9efa66c48d9f18bde"
                            }
                        ],
                        "signature": "AuctionSuccessful(address,uint256,uint256,address)"
                    },
                    "id": 3,
                    "logData": "0x0000000000000000000000000000000000000000000000000034ea4fc791d704000000000000000000000000f0c6494e3165986111bd8ab9efa66c48d9f18bde",
                    "logDecoded": true,
                    "operation": "EVENT",
                    "revert": false,
                    "status": true,
                    "topics": [
                        "0x6c00bb44a64da29b6a73920d50ff280237d277bda3e1f3cdf4e24392e6839efe",
                        "0x000000000000000000000000f5b0a3efb8e8e4c201e2a935f110eaaf3ffecb8d",
                        "0x0000000000000000000000000000000000000000000000000000000000021fff"
                    ]
                },
                "nodeType": 1
            },
            "4": {
                "invocation": {
                    "address": "0xf5b0a3efb8e8e4c201e2a935f110eaaf3ffecb8d",
                    "callData": "0x000000000000000000000000f4985070ce32b6b1994329df787d1acc9a2dd9e2000000000000000000000000f0c6494e3165986111bd8ab9efa66c48d9f18bde0000000000000000000000000000000000000000000000000000000000021fff",
                    "decodedMethod": {
                        "callParams": [
                            {
                                "name": "_from",
                                "type": "address",
                                "value": "0xf4985070ce32b6b1994329df787d1acc9a2dd9e2"
                            },
                            {
                                "name": "_to",
                                "type": "address",
                                "value": "0xf0c6494e3165986111bd8ab9efa66c48d9f18bde"
                            },
                            {
                                "decimalAvailable": true,
                                "name": "_tokenId",
                                "type": "uint256",
                                "value": "139,263"
                            }
                        ],
                        "constructorArguments": "",
                        "name": "transferFrom",
                        "returnParams": [],
                        "signature": "transferFrom(address,address,uint256)"
                    },
                    "errorInfo": "",
                    "fromAddress": "0xf4985070ce32b6b1994329df787d1acc9a2dd9e2",
                    "gasUsed": 88590,
                    "id": 4,
                    "methodDecoded": true,
                    "operation": "CALL",
                    "output": "",
                    "revert": false,
                    "revertMessage": "",
                    "selector": "0x23b872dd",
                    "status": true,
                    "value": "0"
                },
                "nodeType": 0
            },
            "5": {
                "invocation": {
                    "address": "0xe8bd438d0383cf4d19641eaa4793eddc6cebeaf1",
                    "callData": "0x000000000000000000000000f4985070ce32b6b1994329df787d1acc9a2dd9e2000000000000000000000000f0c6494e3165986111bd8ab9efa66c48d9f18bde0000000000000000000000000000000000000000000000000000000000021fff",
                    "decodedMethod": {
                        "callParams": [
                            {
                                "name": "",
                                "type": "address",
                                "value": "0xf4985070ce32b6b1994329df787d1acc9a2dd9e2"
                            },
                            {
                                "name": "",
                                "type": "address",
                                "value": "0xf0c6494e3165986111bd8ab9efa66c48d9f18bde"
                            },
                            {
                                "name": "",
                                "type": "uint256",
                                "value": "139,263"
                            }
                        ],
                        "constructorArguments": "",
                        "name": "isTransferAllowed",
                        "returnParams": [
                            {
                                "name": "",
                                "type": "bool",
                                "value": true
                            }
                        ],
                        "signature": "isTransferAllowed(address,address,uint256)"
                    },
                    "errorInfo": "",
                    "fromAddress": "0xf5b0a3efb8e8e4c201e2a935f110eaaf3ffecb8d",
                    "gasUsed": 4758,
                    "id": 5,
                    "methodDecoded": true,
                    "operation": "CALL",
                    "output": "0x0000000000000000000000000000000000000000000000000000000000000001",
                    "revert": false,
                    "revertMessage": "",
                    "selector": "0xf7ebc39a",
                    "status": true,
                    "value": "0"
                },
                "nodeType": 0
            },
            "6": {
                "invocation": {
                    "address": "0xf5b0a3efb8e8e4c201e2a935f110eaaf3ffecb8d",
                    "callData": "0x",
                    "decodedMethod": {
                        "callParams": [],
                        "constructorArguments": "",
                        "name": "paused",
                        "returnParams": [
                            {
                                "name": "",
                                "type": "bool",
                                "value": false
                            }
                        ],
                        "signature": "paused()"
                    },
                    "errorInfo": "",
                    "fromAddress": "0xe8bd438d0383cf4d19641eaa4793eddc6cebeaf1",
                    "gasUsed": 1628,
                    "id": 6,
                    "methodDecoded": true,
                    "operation": "CALL",
                    "output": "0x0000000000000000000000000000000000000000000000000000000000000000",
                    "revert": false,
                    "revertMessage": "",
                    "selector": "0x5c975abb",
                    "status": true,
                    "value": "0"
                },
                "nodeType": 0
            },
            "7": {
                "event": {
                    "contract": "0xf5b0a3efb8e8e4c201e2a935f110eaaf3ffecb8d",
                    "decodedLog": {
                        "name": "Approval",
                        "params": [
                            {
                                "name": "_owner",
                                "type": "address",
                                "value": "0xf4985070ce32b6b1994329df787d1acc9a2dd9e2"
                            },
                            {
                                "name": "_approved",
                                "type": "address",
                                "value": "0x0000000000000000000000000000000000000000"
                            },
                            {
                                "decimalAvailable": true,
                                "name": "_tokenId",
                                "type": "uint256",
                                "value": "139,263"
                            }
                        ],
                        "signature": "Approval(address,address,uint256)"
                    },
                    "id": 7,
                    "logData": "0x0000000000000000000000000000000000000000000000000000000000021fff",
                    "logDecoded": true,
                    "operation": "EVENT",
                    "revert": false,
                    "status": true,
                    "topics": [
                        "0x8c5be1e5ebec7d5bd14f71427d1e84f3dd0314c0f7b2291e5b200ac8c7c3b925",
                        "0x000000000000000000000000f4985070ce32b6b1994329df787d1acc9a2dd9e2",
                        "0x0000000000000000000000000000000000000000000000000000000000000000"
                    ]
                },
                "nodeType": 1
            },
            "8": {
                "event": {
                    "contract": "0xf5b0a3efb8e8e4c201e2a935f110eaaf3ffecb8d",
                    "decodedLog": {
                        "name": "Transfer",
                        "params": [
                            {
                                "name": "_from",
                                "type": "address",
                                "value": "0xf4985070ce32b6b1994329df787d1acc9a2dd9e2"
                            },
                            {
                                "name": "_to",
                                "type": "address",
                                "value": "0xf0c6494e3165986111bd8ab9efa66c48d9f18bde"
                            },
                            {
                                "decimalAvailable": true,
                                "name": "_tokenId",
                                "type": "uint256",
                                "value": "139,263"
                            }
                        ],
                        "signature": "Transfer(address,address,uint256)"
                    },
                    "id": 8,
                    "logData": "0x0000000000000000000000000000000000000000000000000000000000021fff",
                    "logDecoded": true,
                    "operation": "EVENT",
                    "revert": false,
                    "status": true,
                    "topics": [
                        "0xddf252ad1be2c89b69c2b068fc378daa952ba7f163c4a11628f55a4df523b3ef",
                        "0x000000000000000000000000f4985070ce32b6b1994329df787d1acc9a2dd9e2",
                        "0x000000000000000000000000f0c6494e3165986111bd8ab9efa66c48d9f18bde"
                    ]
                },
                "nodeType": 1
            }
        },
        "gasFlame": [
            {
                "children": [
                    {
                        "children": [
                            {
                                "children": [],
                                "depth": 0,
                                "name": "Initial Gas",
                                "value": 21596
                            },
                            {
                                "children": [
                                    {
                                        "children": [],
                                        "depth": 1,
                                        "name": "fallback",
                                        "value": 0
                                    },
                                    {
                                        "children": [],
                                        "depth": 1,
                                        "name": "fallback",
                                        "value": 0
                                    },
                                    {
                                        "children": [
                                            {
                                                "children": [
                                                    {
                                                        "children": [],
                                                        "depth": 3,
                                                        "name": "paused",
                                                        "value": 1628
                                                    }
                                                ],
                                                "depth": 2,
                                                "name": "isTransferAllowed",
                                                "value": 4758
                                            }
                                        ],
                                        "depth": 1,
                                        "name": "transferFrom",
                                        "value": 88590
                                    }
                                ],
                                "depth": 0,
                                "name": "Executed Gas",
                                "value": 132626
                            }
                        ],
                        "depth": -1,
                        "name": "Actual Gas Used",
                        "value": 94222
                    },
                    {
                        "children": [],
                        "depth": -1,
                        "name": "Refunded Gas",
                        "value": 60000
                    }
                ],
                "depth": -2,
                "name": "Total Gas",
                "value": 154222
            }
        ],
        "isConfirmed": true,
        "mainTrace": [
            {
                "children": [
                    {
                        "children": [
                            {
                                "children": [],
                                "depth": 1,
                                "id": 1,
                                "order": 1
                            },
                            {
                                "children": [],
                                "depth": 1,
                                "id": 2,
                                "order": 2
                            },
                            {
                                "children": [],
                                "depth": 1,
                                "id": 3,
                                "order": 3
                            },
                            {
                                "children": [
                                    {
                                        "children": [
                                            {
                                                "children": [],
                                                "depth": 3,
                                                "id": 6,
                                                "order": 6
                                            }
                                        ],
                                        "depth": 2,
                                        "id": 5,
                                        "order": 5
                                    },
                                    {
                                        "children": [],
                                        "depth": 2,
                                        "id": 7,
                                        "order": 7
                                    },
                                    {
                                        "children": [],
                                        "depth": 2,
                                        "id": 8,
                                        "order": 8
                                    }
                                ],
                                "depth": 1,
                                "id": 4,
                                "order": 4
                            }
                        ],
                        "depth": 0,
                        "id": 0,
                        "order": 0
                    }
                ],
                "depth": -1,
                "id": -1,
                "order": -1
            }
        ],
        "mainTraceNodeCount": 9,
        "parentIdMap": {
            "0": -1,
            "1": 0,
            "2": 0,
            "3": 0,
            "4": 0,
            "5": 4,
            "6": 5,
            "7": 4,
            "8": 4
        },
        "tidyTrace": [
            {
                "children": [
                    {
                        "children": [
                            {
                                "children": [],
                                "depth": 1,
                                "id": 1,
                                "order": 1
                            },
                            {
                                "children": [],
                                "depth": 1,
                                "id": 2,
                                "order": 2
                            },
                            {
                                "children": [],
                                "depth": 1,
                                "id": 3,
                                "order": 3
                            },
                            {
                                "children": [
                                    {
                                        "children": [
                                            {
                                                "children": [],
                                                "depth": 3,
                                                "id": 6,
                                                "order": 6
                                            }
                                        ],
                                        "depth": 2,
                                        "id": 5,
                                        "order": 5
                                    },
                                    {
                                        "children": [],
                                        "depth": 2,
                                        "id": 7,
                                        "order": 7
                                    },
                                    {
                                        "children": [],
                                        "depth": 2,
                                        "id": 8,
                                        "order": 8
                                    }
                                ],
                                "depth": 1,
                                "id": 4,
                                "order": 4
                            }
                        ],
                        "depth": 0,
                        "id": 0,
                        "order": 0
                    }
                ],
                "depth": -1,
                "id": -1,
                "order": -1
            }
        ],
        "tidyTraceNodeCount": 9
    },
    "state_change": {
        "stateChanges": [
            {
                "address": "0xf4985070ce32b6b1994329df787d1acc9a2dd9e2",
                "erc": "",
                "slots": [
                    {
                        "current": "0x0000000000000000000000000000000000000000000000000000000000000000",
                        "key": "0xe03f0c3bff1ba1e25ef8981caeb59ec407b502cdfb3324aaea229a4eb9ca93a9",
                        "prev": "0x00000000000000000000000019445b292463fa2a4b9398908cf88825feaf15fc"
                    },
                    {
                        "current": "0x0000000000000000000000000000000000000000000000000000000000000000",
                        "key": "0xe03f0c3bff1ba1e25ef8981caeb59ec407b502cdfb3324aaea229a4eb9ca93aa",
                        "prev": "0x0000000000000000002f9b3a9ffd8000000000000000000000354a6ba7a18000"
                    },
                    {
                        "current": "0x0000000000000000000000000000000000000000000000000000000000000000",
                        "key": "0xe03f0c3bff1ba1e25ef8981caeb59ec407b502cdfb3324aaea229a4eb9ca93ab",
                        "prev": "0x00000000000000000000000000000000000000005e445f71000000000003f480"
                    }
                ],
                "storageVariables": [
                    {
                        "name": "auctions",
                        "type": "mapping(address => mapping(uint256 => struct AxieClockAuction.Auction))",
                        "value": {
                            "pairs": [
                                {
                                    "key": "0xf5b0a3efb8e8e4c201e2a935f110eaaf3ffecb8d",
                                    "value": {
                                        "pairs": [
                                            {
                                                "key": "139263",
                                                "value": {
                                                    "fields": [
                                                        {
                                                            "name": "seller",
                                                            "type": "address",
                                                            "value": {
                                                                "current": "0x0000000000000000000000000000000000000000",
                                                                "prev": "0x19445b292463fa2a4b9398908cf88825feaf15fc",
                                                                "typeTag": 1
                                                            }
                                                        },
                                                        {
                                                            "name": "startingPrice",
                                                            "type": "uint128",
                                                            "value": {
                                                                "current": "0",
                                                                "prev": "15000000000000000",
                                                                "typeTag": 1
                                                            }
                                                        },
                                                        {
                                                            "name": "endingPrice",
                                                            "type": "uint128",
                                                            "value": {
                                                                "current": "0",
                                                                "prev": "13400000000000000",
                                                                "typeTag": 1
                                                            }
                                                        },
                                                        {
                                                            "name": "duration",
                                                            "type": "uint64",
                                                            "value": {
                                                                "current": "0",
                                                                "prev": "259200",
                                                                "typeTag": 1
                                                            }
                                                        },
                                                        {
                                                            "name": "startedAt",
                                                            "type": "uint64",
                                                            "value": {
                                                                "current": "0",
                                                                "prev": "1581539185",
                                                                "typeTag": 1
                                                            }
                                                        }
                                                    ],
                                                    "typeTag": 3
                                                }
                                            }
                                        ],
                                        "typeTag": 4
                                    }
                                }
                            ],
                            "typeTag": 4
                        }
                    }
                ]
            },
            {
                "address": "0xf5b0a3efb8e8e4c201e2a935f110eaaf3ffecb8d",
                "erc": "ERC-721",
                "slots": [
                    {
                        "current": "0x000000000000000000000000000000000000000000000000000000000000224e",
                        "key": "0x09d2873bc6683defe41f279252adb9a293ed5c41af2b1046520460819bbdcdf4",
                        "prev": "0x0000000000000000000000000000000000000000000000000000000000002269"
                    },
                    {
                        "current": "0x0000000000000000000000000000000000000000000000000000000000000000",
                        "key": "0xf977cc87cb9530b700142d22309e54b5022847fb0e1975303101c38e16b0e508",
                        "prev": "0x00000000000000000000000000000000000000000000000000000000000183b1"
                    },
                    {
                        "current": "0x0000000000000000000000000000000000000000000000000000000000002269",
                        "key": "0xda6130b50a42de694f5ea1ae82c75586f0831f0f41b8349336a692d06cf359d7",
                        "prev": "0x000000000000000000000000000000000000000000000000000000000000226a"
                    },
                    {
                        "current": "0x0000000000000000000000000000000000000000000000000000000000000002",
                        "key": "0x79b2a0f18f568df24f0ddbc585faf7df58873f7011ead5bbb47a2559d66cb038",
                        "prev": "0x000000000000000000000000000000000000000000000000000000000000224e"
                    },
                    {
                        "current": "0x0000000000000000000000000000000000000000000000000000000000000003",
                        "key": "0xf83a5c23931ec28c0e2cf18f78110a2e1d38aa77f795a59fc0258be80d32d113",
                        "prev": "0x0000000000000000000000000000000000000000000000000000000000000002"
                    },
                    {
                        "current": "0x0000000000000000000000000000000000000000000000000000000000021fff",
                        "key": "0x73d95ce2adc865349d5dee0f6c29cdf8bae890b565c357f2f23c586e3fb034c6",
                        "prev": "0x0000000000000000000000000000000000000000000000000000000000000000"
                    },
                    {
                        "current": "0x000000000000000000000000f0c6494e3165986111bd8ab9efa66c48d9f18bde",
                        "key": "0x8dcdf2c90e879f358a661d7e7bca2f06627f6023a9323e2958838da48f87bfc8",
                        "prev": "0x000000000000000000000000f4985070ce32b6b1994329df787d1acc9a2dd9e2"
                    },
                    {
                        "current": "0x00000000000000000000000000000000000000000000000000000000000183b1",
                        "key": "0xf977cc87cb9530b700142d22309e54b5022847fb0e1975303101c38e16b0e4ed",
                        "prev": "0x0000000000000000000000000000000000000000000000000000000000021fff"
                    }
                ],
                "storageVariables": [
                    {
                        "name": "_ownedTokens",
                        "type": "mapping(address => uint256[])",
                        "value": {
                            "pairs": [
                                {
                                    "key": "0xf0c6494e3165986111bd8ab9efa66c48d9f18bde",
                                    "value": {
                                        "elemType": "uint256",
                                        "elems": [
                                            {
                                                "index": 2,
                                                "value": {
                                                    "current": "139263",
                                                    "prev": "0",
                                                    "typeTag": 1
                                                }
                                            }
                                        ],
                                        "typeTag": 2
                                    }
                                },
                                {
                                    "key": "0xf4985070ce32b6b1994329df787d1acc9a2dd9e2",
                                    "value": {
                                        "elemType": "uint256",
                                        "elems": [
                                            {
                                                "index": 8782,
                                                "value": {
                                                    "current": "99249",
                                                    "prev": "139263",
                                                    "typeTag": 1
                                                }
                                            }
                                        ],
                                        "typeTag": 2
                                    }
                                }
                            ],
                            "typeTag": 4
                        }
                    },
                    {
                        "name": "_tokenOwner",
                        "type": "mapping(uint256 => address)",
                        "value": {
                            "pairs": [
                                {
                                    "key": "139263",
                                    "value": {
                                        "current": "0xf0c6494e3165986111bd8ab9efa66c48d9f18bde",
                                        "prev": "0xf4985070ce32b6b1994329df787d1acc9a2dd9e2",
                                        "typeTag": 1
                                    }
                                }
                            ],
                            "typeTag": 4
                        }
                    },
                    {
                        "name": "_ownedTokenIndex",
                        "type": "mapping(uint256 => uint256)",
                        "value": {
                            "pairs": [
                                {
                                    "key": "139263",
                                    "value": {
                                        "current": "2",
                                        "prev": "8782",
                                        "typeTag": 1
                                    }
                                },
                                {
                                    "key": "99249",
                                    "value": {
                                        "current": "8782",
                                        "prev": "8809",
                                        "typeTag": 1
                                    }
                                }
                            ],
                            "typeTag": 4
                        }
                    }
                ]
            }
        ]
    }
}