{
    "balance_change": {
        "balanceChanges": [
            {
                "account": "0x653cd961ed568b49dfd86048cf54cce163edb780",
                "assets": [
                    {
                        "address": "0xc6689eb9a6d724b8d7b1d923ffd65b7005da1b62",
                        "amount": "20",
                        "iconUrl": "",
                        "isERC1155": false,
                        "isERC721": false,
                        "sign": false,
                        "value": ""
                    }
                ]
            },
            {
                "account": "0xf885fedb5e94c45e6015ff2ab7adf66b89450d0f",
                "assets": [
                    {
                        "address": "0xc6689eb9a6d724b8d7b1d923ffd65b7005da1b62",
                        "amount": "20",
                        "iconUrl": "",
                        "isERC1155": false,
                        "isERC721": false,
                        "sign": true,
                        "value": ""
                    }
                ]
            }
        ]
    },
    "profile": {
        "basic_info": {
            "baseFee": "",
            "blockNumber": 5335435,
            "callData": "0xa9059cbb000000000000000000000000f885fedb5e94c45e6015ff2ab7adf66b89450d0f000000000000000000000000000000000000000000000001158e460913d00000",
            "debugEnable": true,
            "errorInfo": "",
            "eventCount": 1,
            "feeRecipient": "0x5a0b54d5dc17e0aadc383d2db43b0a0d3e029c4c",
            "formatValue": "0",
            "gasLimit": 100000,
            "gasPrice": "20",
            "gasUsed": 53325,
            "intTxnCount": 0,
            "internalRevert": false,
            "internalRevertMessage": "",
            "isContractCreation": false,
            "isFlashloan": false,
            "maxFee": "",
            "nonce": 9335,
            "overwritedBlockNumber": -1,
            "priorityFee": "",
            "receiver": "0xc6689eb9a6d724b8d7b1d923ffd65b7005da1b62",
            "revertMessage": "",
            "sender": "0x653cd961ed568b49dfd86048cf54cce163edb780",
            "simulationEnable": true,
            "sourceTxnHash": "0xc441cf54fa0a34a2a328821da224ae3ef0f021af42ea44d6b1e13c6032a314d3",
            "status": true,
            "timestamp": "2018-03-28T05:52:30Z",
            "transactionFee": "0.0010665",
            "txnHash": "0xc441cf54fa0a34a2a328821da224ae3ef0f021af42ea44d6b1e13c6032a314d3",
            "txnIndex": 8,
            "type": 0,
            "value": "0"
        },
        "fund_flow": [
            {
                "amount": "20",
                "from": "0x653cd961ed568b49dfd86048cf54cce163edb780",
                "id": 1,
                "isERC1155": false,
                "isERC721": false,
                "isReverted": false,
                "order": 1,
                "to": "0xf885fedb5e94c45e6015ff2ab7adf66b89450d0f",
                "token": "0xc6689eb9a6d724b8d7b1d923ffd65b7005da1b62"
            }
        ],
        "token_infos": [
            {
                "address": "0xeeeeeeeeeeeeeeeeeeeeeeeeeeeeeeeeeeeeeeee",
                "decimals": 18
            },
            {
                "address": "0xc02aaa39b223fe8d0a0e5c4f27ead9083c756cc2",
                "decimals": 18
            },
            {
                "address": "0xc6689eb9a6d724b8d7b1d923ffd65b7005da1b62",
                "decimals": 18
            }
        ]
    },
    "address_label": {
        "labels": [
            {
                "address": "0xc6689eb9a6d724b8d7b1d923ffd65b7005da1b62",
                "label": "SEC"
            },
            {
                "address": "0x0000000000000000000000000000000000000001",
                "label": "Precompiled"
            },
            {
                "address": "0x0000000000000000000000000000000000000002",
                "label": "Precompiled"
            },
            {
                "address": "0x0000000000000000000000000000000000000003",
                "label": "Precompiled"
            },
            {
                "address": "0x0000000000000000000000000000000000000004",
                "label": "Precompiled"
            },
            {
                "address": "0xeeeeeeeeeeeeeeeeeeeeeeeeeeeeeeeeeeeeeeee",
                "label": "Ether"
            }
        ]
    },
    "trace": {
        "accountLabels": null,
        "dataMap": {
            "-1": {
                "invocation": {
                    "address": "0x653cd961ed568b49dfd86048cf54cce163edb780",
                    "callData": "",
                    "decodedMethod": null,
                    "errorInfo": "",
                    "fromAddress": "",
                    "gasUsed": 0,
                    "id": -1,
                    "methodDecoded": false,
                    "operation": "",
                    "output": "",
                    "revert": false,
                    "revertMessage": "",
                    "selector": "",
                    "status": false,
                    "value": ""
                },
                "nodeType": 0
            },
            "0": {
                "invocation": {
                    "address": "0xc6689eb9a6d724b8d7b1d923ffd65b7005da1b62",
                    "callData": "0x000000000000000000000000f885fedb5e94c45e6015ff2ab7adf66b89450d0f000000000000000000000000000000000000000000000001158e460913d00000",
                    "decodedMethod": {
                        "callParams": [
                            {
                                "name": "_to",
                                "type": "address",
                                "value": "0xf885fedb5e94c45e6015ff2ab7adf66b89450d0f"
                            },
                            {
                                "decimalAvailable": true,
                                "name": "_value",
                                "type": "uint256",
                                "value": "20,000,000,000,000,000,000"
                            }
                        ],
                        "constructorArguments": "",
                        "name": "transfer",
                        "returnParams": [],
                        "signature": "transfer(address,uint256)"
                    },
                    "errorInfo": "",
                    "fromAddress": "0x653cd961ed568b49dfd86048cf54cce163edb780",
                    "gasUsed": 53325,
                    "id": 0,
                    "methodDecoded": true,
                    "operation": "CALL",
                    "output": "",
                    "revert": false,
                    "revertMessage": "",
                    "selector": "0xa9059cbb",
                    "status": true,
                    "value": "0"
                },
                "nodeType": 0
            },
            "1": {
                "event": {
                    "contract": "0xc6689eb9a6d724b8d7b1d923ffd65b7005da1b62",
                    "decodedLog": {
                        "name": "Transfer",
                        "params": [
                            {
                                "name": "from",
                                "type": "address",
                                "value": "0x653cd961ed568b49dfd86048cf54cce163edb780"
                            },
                            {
                                "name": "to",
                                "type": "address",
                                "value": "0xf885fedb5e94c45e6015ff2ab7adf66b89450d0f"
                            },
                            {
                                "decimalAvailable": true,
                                "name": "value",
                                "type": "uint256",
                                "value": "20,000,000,000,000,000,000"
                            }
                        ],
                        "signature": "Transfer(address,address,uint256)"
                    },
                    "id": 1,
                    "logData": "0x000000000000000000000000000000000000000000000001158e460913d00000",
                    "logDecoded": true,
                    "operation": "EVENT",
                    "revert": false,
                    "status": true,
                    "topics": [
                        "0xddf252ad1be2c89b69c2b068fc378daa952ba7f163c4a11628f55a4df523b3ef",
                        "0x000000000000000000000000653cd961ed568b49dfd86048cf54cce163edb780",
                        "0x000000000000000000000000f885fedb5e94c45e6015ff2ab7adf66b89450d0f"
                    ]
                },
                "nodeType": 1
            }
        },
        "gasFlame": [
            {
                "children": [
                    {
                        "children": [
                            {
                                "children": [],
                                "depth": 0,
                                "name": "Initial Gas",
                                "value": 23256
                            },
                            {
                                "children": [],
                                "depth": 0,
                                "name": "Executed Gas",
                                "value": 30069
                            }
                        ],
                        "depth": -1,
                        "name": "Actual Gas Used",
                        "value": 53325
                    },
                    {
                        "children": [],
                        "depth": -1,
                        "name": "Refunded Gas",
                        "value": 0
                    }
                ],
                "depth": -2,
                "name": "Total Gas",
                "value": 53325
            }
        ],
        "isConfirmed": true,
        "mainTrace": [
            {
                "children": [
                    {
                        "children": [
                            {
                                "children": [],
                                "depth": 1,
                                "id": 1,
                                "order": 1
                            }
                        ],
                        "depth": 0,
                        "id": 0,
                        "order": 0
                    }
                ],
                "depth": -1,
                "id": -1,
                "order": -1
            }
        ],
        "mainTraceNodeCount": 2,
        "parentIdMap": {
            "0": -1,
            "1": 0
        },
        "tidyTrace": [
            {
                "children": [
                    {
                        "children": [
                            {
                                "children": [],
                                "depth": 1,
                                "id": 1,
                                "order": 1
                            }
                        ],
                        "depth": 0,
                        "id": 0,
                        "order": 0
                    }
                ],
                "depth": -1,
                "id": -1,
                "order": -1
            }
        ],
        "tidyTraceNodeCount": 2
    },
    "state_change": {
        "stateChanges": [
            {
                "address": "0xc6689eb9a6d724b8d7b1d923ffd65b7005da1b62",
                "erc": "",
                "slots": [
                    {
                        "current": "0x00000000000000000000000000000000000000000000242355a248766de40000",
                        "key": "0x4b465aefc88fa44ca9be611f1144c00ad264824cedd8e521af21e60b9ae2a72e",
                        "prev": "0x0000000000000000000000000000000000000000000024246b308e7f81b40000"
                    },
                    {
                        "current": "0x000000000000000000000000000000000000000000000001158e460913d00000",
                        "key": "0x2a6758d89a406edef189cbb66895cd9d6b6428265145314664dffba2f7428b21",
                        "prev": "0x0000000000000000000000000000000000000000000000000000000000000000"
                    }
                ],
                "storageVariables": [
                    {
                        "name": "balanceOf",
                        "type": "mapping(address => uint256)",
                        "value": {
                            "pairs": [
                                {
                                    "key": "0x653cd961ed568b49dfd86048cf54cce163edb780",
                                    "value": {
                                        "current": "170657000000000000000000",
                                        "prev": "170677000000000000000000",
                                        "typeTag": 1
                                    }
                                },
                                {
                                    "key": "0xf885fedb5e94c45e6015ff2ab7adf66b89450d0f",
                                    "value": {
                                        "current": "20000000000000000000",
                                        "prev": "0",
                                        "typeTag": 1
                                    }
                                }
                            ],
                            "typeTag": 4
                        }
                    }
                ]
            }
        ]
    }
}