{
    "balance_change": {
        "balanceChanges": [
            {
                "account": "0x8e6fcb076b50ff2e9e3616b1e1bd13e1e0392fb9",
                "assets": [
                    {
                        "address": "0x5732046a883704404f284ce41ffadd5b007fd668",
                        "amount": "20,150",
                        "iconUrl": "https://assets.blocksec.com/icon/03c977a981767e3fdc889da56cd1f35a2142fff44291849b68fae540ce14430f.png",
                        "isERC1155": false,
                        "isERC721": false,
                        "sign": false,
                        "value": ""
                    }
                ]
            },
            {
                "account": "0x5089fd67882ab58a01b74713471918d2918dcea9",
                "assets": [
                    {
                        "address": "0x5732046a883704404f284ce41ffadd5b007fd668",
                        "amount": "20,150",
                        "iconUrl": "https://assets.blocksec.com/icon/03c977a981767e3fdc889da56cd1f35a2142fff44291849b68fae540ce14430f.png",
                        "isERC1155": false,
                        "isERC721": false,
                        "sign": true,
                        "value": ""
                    }
                ]
            }
        ]
    },
    "profile": {
        "basic_info": {
            "baseFee": "",
            "blockNumber": 5370499,
            "callData": "0xa9059cbb0000000000000000000000005089fd67882ab58a01b74713471918d2918dcea9000000000000000000000000000000000000000000000444556ca0b979180000",
            "debugEnable": true,
            "errorInfo": "",
            "eventCount": 1,
            "feeRecipient": "0x5a0b54d5dc17e0aadc383d2db43b0a0d3e029c4c",
            "formatValue": "0",
            "gasLimit": 60000,
            "gasPrice": "50.853572608",
            "gasUsed": 52412,
            "intTxnCount": 0,
            "internalRevert": false,
            "internalRevertMessage": "",
            "isContractCreation": false,
            "isFlashloan": false,
            "maxFee": "",
            "nonce": 68,
            "overwritedBlockNumber": -1,
            "priorityFee": "",
            "receiver": "0x5732046a883704404f284ce41ffadd5b007fd668",
            "revertMessage": "",
            "sender": "0x8e6fcb076b50ff2e9e3616b1e1bd13e1e0392fb9",
            "simulationEnable": true,
            "sourceTxnHash": "0xc56e3c114ecbb8f4ab215d563641d3f0dafe00d497298337437e757711395f7c",
            "status": true,
            "timestamp": "2018-04-03T02:24:14Z",
            "transactionFee": "0.002665337447530496",
            "txnHash": "0xc56e3c114ecbb8f4ab215d563641d3f0dafe00d497298337437e757711395f7c",
            "txnIndex": 1,
            "type": 0,
            "value": "0"
        },
        "fund_flow": [
            {
                "amount": "20,150",
                "from": "0x8e6fcb076b50ff2e9e3616b1e1bd13e1e0392fb9",
                "id": 1,
                "isERC1155": false,
                "isERC721": false,
                "isReverted": false,
                "order": 1,
                "to": "0x5089fd67882ab58a01b74713471918d2918dcea9",
                "token": "0x5732046a883704404f284ce41ffadd5b007fd668"
            }
        ],
        "token_infos": [
            {
                "address": "0x5732046a883704404f284ce41ffadd5b007fd668",
                "decimals": 18
            },
            {
                "address": "0xc02aaa39b223fe8d0a0e5c4f27ead9083c756cc2",
                "decimals": 18
            },
            {
                "address": "0xeeeeeeeeeeeeeeeeeeeeeeeeeeeeeeeeeeeeeeee",
                "decimals": 18
            }
        ]
    },
    "address_label": {
        "labels": [
            {
                "address": "0x0000000000000000000000000000000000000004",
                "label": "Precompiled"
            },
            {
                "address": "0xeeeeeeeeeeeeeeeeeeeeeeeeeeeeeeeeeeeeeeee",
                "label": "Ether"
            },
            {
                "address": "0x5732046a883704404f284ce41ffadd5b007fd668",
                "label": "Bluzelle (BLZ)"
            },
            {
                "address": "0x0000000000000000000000000000000000000001",
                "label": "Precompiled"
            },
            {
                "address": "0x0000000000000000000000000000000000000002",
                "label": "Precompiled"
            },
            {
                "address": "0x0000000000000000000000000000000000000003",
                "label": "Precompiled"
            }
        ]
    },
    "trace": {
        "accountLabels": null,
        "dataMap": {
            "-1": {
                "invocation": {
                    "address": "0x8e6fcb076b50ff2e9e3616b1e1bd13e1e0392fb9",
                    "callData": "",
                    "decodedMethod": null,
                    "errorInfo": "",
                    "fromAddress": "",
                    "gasUsed": 0,
                    "id": -1,
                    "methodDecoded": false,
                    "operation": "",
                    "output": "",
                    "revert": false,
                    "revertMessage": "",
                    "selector": "",
                    "status": false,
                    "value": ""
                },
                "nodeType": 0
            },
            "0": {
                "invocation": {
                    "address": "0x5732046a883704404f284ce41ffadd5b007fd668",
                    "callData": "0x0000000000000000000000005089fd67882ab58a01b74713471918d2918dcea9000000000000000000000000000000000000000000000444556ca0b979180000",
                    "decodedMethod": {
                        "callParams": [
                            {
                                "name": "_to",
                                "type": "address",
                                "value": "0x5089fd67882ab58a01b74713471918d2918dcea9"
                            },
                            {
                                "decimalAvailable": true,
                                "name": "_value",
                                "type": "uint256",
                                "value": "20,150,000,000,000,000,000,000"
                            }
                        ],
                        "constructorArguments": "",
                        "name": "transfer",
                        "returnParams": [
                            {
                                "name": "success",
                                "type": "bool",
                                "value": true
                            }
                        ],
                        "signature": "transfer(address,uint256)"
                    },
                    "errorInfo": "",
                    "fromAddress": "0x8e6fcb076b50ff2e9e3616b1e1bd13e1e0392fb9",
                    "gasUsed": 52412,
                    "id": 0,
                    "methodDecoded": true,
                    "operation": "CALL",
                    "output": "0x0000000000000000000000000000000000000000000000000000000000000001",
                    "revert": false,
                    "revertMessage": "",
                    "selector": "0xa9059cbb",
                    "status": true,
                    "value": "0"
                },
                "nodeType": 0
            },
            "1": {
                "event": {
                    "contract": "0x5732046a883704404f284ce41ffadd5b007fd668",
                    "decodedLog": {
                        "name": "Transfer",
                        "params": [
                            {
                                "name": "_from",
                                "type": "address",
                                "value": "0x8e6fcb076b50ff2e9e3616b1e1bd13e1e0392fb9"
                            },
                            {
                                "name": "_to",
                                "type": "address",
                                "value": "0x5089fd67882ab58a01b74713471918d2918dcea9"
                            },
                            {
                                "decimalAvailable": true,
                                "name": "_value",
                                "type": "uint256",
                                "value": "20,150,000,000,000,000,000,000"
                            }
                        ],
                        "signature": "Transfer(address,address,uint256)"
                    },
                    "id": 1,
                    "logData": "0x000000000000000000000000000000000000000000000444556ca0b979180000",
                    "logDecoded": true,
                    "operation": "EVENT",
                    "revert": false,
                    "status": true,
                    "topics": [
                        "0xddf252ad1be2c89b69c2b068fc378daa952ba7f163c4a11628f55a4df523b3ef",
                        "0x0000000000000000000000008e6fcb076b50ff2e9e3616b1e1bd13e1e0392fb9",
                        "0x0000000000000000000000005089fd67882ab58a01b74713471918d2918dcea9"
                    ]
                },
                "nodeType": 1
            }
        },
        "gasFlame": [
            {
                "children": [
                    {
                        "children": [
                            {
                                "children": [],
                                "depth": 0,
                                "name": "Initial Gas",
                                "value": 23320
                            },
                            {
                                "children": [],
                                "depth": 0,
                                "name": "Executed Gas",
                                "value": 29092
                            }
                        ],
                        "depth": -1,
                        "name": "Actual Gas Used",
                        "value": 52412
                    },
                    {
                        "children": [],
                        "depth": -1,
                        "name": "Refunded Gas",
                        "value": 0
                    }
                ],
                "depth": -2,
                "name": "Total Gas",
                "value": 52412
            }
        ],
        "isConfirmed": true,
        "mainTrace": [
            {
                "children": [
                    {
                        "children": [
                            {
                                "children": [],
                                "depth": 1,
                                "id": 1,
                                "order": 1
                            }
                        ],
                        "depth": 0,
                        "id": 0,
                        "order": 0
                    }
                ],
                "depth": -1,
                "id": -1,
                "order": -1
            }
        ],
        "mainTraceNodeCount": 2,
        "parentIdMap": {
            "0": -1,
            "1": 0
        },
        "tidyTrace": [
            {
                "children": [
                    {
                        "children": [
                            {
                                "children": [],
                                "depth": 1,
                                "id": 1,
                                "order": 1
                            }
                        ],
                        "depth": 0,
                        "id": 0,
                        "order": 0
                    }
                ],
                "depth": -1,
                "id": -1,
                "order": -1
            }
        ],
        "tidyTraceNodeCount": 2
    },
    "state_change": {
        "stateChanges": [
            {
                "address": "0x5732046a883704404f284ce41ffadd5b007fd668",
                "erc": "ERC-20",
                "slots": [
                    {
                        "current": "0x0000000000000000000000000000000000000000000004a6743862eefa200000",
                        "key": "0xa90e6c43c5255c251b66f35db7bc41240fc1e8d78a3eb12507e25b1543580f7a",
                        "prev": "0x0000000000000000000000000000000000000000000008eac9a503a873380000"
                    },
                    {
                        "current": "0x000000000000000000000000000000000000000000000444556ca0b979180000",
                        "key": "0xeb70c0c1e5036a253e029f68336171f90e0dc2d6959b63a2f5a81b9d9801ab98",
                        "prev": "0x0000000000000000000000000000000000000000000000000000000000000000"
                    }
                ],
                "storageVariables": [
                    {
                        "name": "balances",
                        "type": "mapping(address => uint256)",
                        "value": {
                            "pairs": [
                                {
                                    "key": "0x5089fd67882ab58a01b74713471918d2918dcea9",
                                    "value": {
                                        "current": "20150000000000000000000",
                                        "prev": "0",
                                        "typeTag": 1
                                    }
                                },
                                {
                                    "key": "0x8e6fcb076b50ff2e9e3616b1e1bd13e1e0392fb9",
                                    "value": {
                                        "current": "21960000000000000000000",
                                        "prev": "42110000000000000000000",
                                        "typeTag": 1
                                    }
                                }
                            ],
                            "typeTag": 4
                        }
                    }
                ]
            }
        ]
    }
}