{
    "balance_change": {
        "balanceChanges": [
            {
                "account": "0xf5213a6a2f0890321712520b8048d9886c1a9900",
                "assets": [
                    {
                        "address": "0xc02aaa39b223fe8d0a0e5c4f27ead9083c756cc2",
                        "amount": "2.5448",
                        "iconUrl": "https://assets.blocksec.com/icon/f1cb2d02c471d545bbc7722daf3277fd852d98e63d118771af7047bd8256c516.png",
                        "isERC1155": false,
                        "isERC721": false,
                        "sign": true,
                        "value": "6003.8194"
                    },
                    {
                        "address": "0xf4d2888d29d722226fafa5d9b24f9164c092421e",
                        "amount": "68,010.427214347247553769",
                        "iconUrl": "",
                        "isERC1155": false,
                        "isERC721": false,
                        "sign": false,
                        "value": "5957.7134235959998176"
                    }
                ]
            },
            {
                "account": "0x4b5ab61593a2401b1075b90c04cbcdd3f87ce011",
                "assets": [
                    {
                        "address": "0xc02aaa39b223fe8d0a0e5c4f27ead9083c756cc2",
                        "amount": "2.5448",
                        "iconUrl": "https://assets.blocksec.com/icon/f1cb2d02c471d545bbc7722daf3277fd852d98e63d118771af7047bd8256c516.png",
                        "isERC1155": false,
                        "isERC721": false,
                        "sign": false,
                        "value": "6003.8194"
                    },
                    {
                        "address": "0xf4d2888d29d722226fafa5d9b24f9164c092421e",
                        "amount": "68,010.427214347247553769",
                        "iconUrl": "",
                        "isERC1155": false,
                        "isERC721": false,
                        "sign": true,
                        "value": "5957.7134235959998176"
                    }
                ]
            }
        ]
    },
    "profile": {
        "basic_info": {
            "baseFee": "17.819162946",
            "blockNumber": 18922833,
            "callData": "0xdb3e2198000000000000000000000000f4d2888d29d722226fafa5d9b24f9164c092421e000000000000000000000000c02aaa39b223fe8d0a0e5c4f27ead9083c756cc20000000000000000000000000000000000000000000000000000000000000bb8000000000000000000000000f5213a6a2f0890321712520b8048d9886c1a990000000000000000000000000000000000000000000000000000000000659496510000000000000000000000000000000000000000000000002350f21df86a0000000000000000000000000000000000000000000000000e66da7a5817c80000000000000000000000000000000000000000000000000000000000000000000000",
            "debugEnable": true,
            "errorInfo": "",
            "eventCount": 4,
            "feeRecipient": "0x1f9090aae28b8a3dceadf281b0f12828e676c326",
            "formatValue": "0",
            "gasLimit": 500000,
            "gasPrice": "44.242111535",
            "gasUsed": 117045,
            "intTxnCount": 6,
            "internalRevert": false,
            "internalRevertMessage": "",
            "isContractCreation": false,
            "isFlashloan": false,
            "maxFee": "",
            "nonce": 7225,
            "overwritedBlockNumber": -1,
            "priorityFee": "",
            "receiver": "0xe592427a0aece92de3edee1f18e0157c05861564",
            "revertMessage": "",
            "sender": "0xf5213a6a2f0890321712520b8048d9886c1a9900",
            "simulationEnable": true,
            "sourceTxnHash": "0xc5937fa2982c944f95f3eb01f33b6ead594f094e766029fb1a1980aaf2a4d2a8",
            "status": true,
            "timestamp": "2024-01-02T23:01:47Z",
            "transactionFee": "0.005178317944614075",
            "txnHash": "0xc5937fa2982c944f95f3eb01f33b6ead594f094e766029fb1a1980aaf2a4d2a8",
            "txnIndex": 6,
            "type": 0,
            "value": "0"
        },
        "fund_flow": [
            {
                "amount": "2.5448",
                "from": "0x4b5ab61593a2401b1075b90c04cbcdd3f87ce011",
                "id": 1,
                "isERC1155": false,
                "isERC721": false,
                "isReverted": false,
                "order": 1,
                "to": "0xf5213a6a2f0890321712520b8048d9886c1a9900",
                "token": "0xc02aaa39b223fe8d0a0e5c4f27ead9083c756cc2"
            },
            {
                "amount": "68,010.427214347247553769",
                "from": "0xf5213a6a2f0890321712520b8048d9886c1a9900",
                "id": 2,
                "isERC1155": false,
                "isERC721": false,
                "isReverted": false,
                "order": 2,
                "to": "0x4b5ab61593a2401b1075b90c04cbcdd3f87ce011",
                "token": "0xf4d2888d29d722226fafa5d9b24f9164c092421e"
            }
        ],
        "token_infos": [
            {
                "address": "0xc02aaa39b223fe8d0a0e5c4f27ead9083c756cc2",
                "decimals": 18
            },
            {
                "address": "0xf4d2888d29d722226fafa5d9b24f9164c092421e",
                "decimals": 18
            },
            {
                "address": "0xeeeeeeeeeeeeeeeeeeeeeeeeeeeeeeeeeeeeeeee",
                "decimals": 18
            }
        ]
    },
    "address_label": {
        "labels": [
            {
                "address": "0xeeeeeeeeeeeeeeeeeeeeeeeeeeeeeeeeeeeeeeee",
                "label": "Ether"
            },
            {
                "address": "0xc02aaa39b223fe8d0a0e5c4f27ead9083c756cc2",
                "label": "Wrapped Ether (WETH)"
            },
            {
                "address": "0xf4d2888d29d722226fafa5d9b24f9164c092421e",
                "label": "LooksRare: LOOKS Token"
            },
            {
                "address": "0x0000000000000000000000000000000000000002",
                "label": "Precompiled"
            },
            {
                "address": "0x0000000000000000000000000000000000000003",
                "label": "Precompiled"
            },
            {
                "address": "0x0000000000000000000000000000000000000004",
                "label": "Precompiled"
            },
            {
                "address": "0xe592427a0aece92de3edee1f18e0157c05861564",
                "label": "Uniswap V3: Router"
            },
            {
                "address": "0x4b5ab61593a2401b1075b90c04cbcdd3f87ce011",
                "label": "Uniswap V3: LOOKS 2"
            },
            {
                "address": "0x0000000000000000000000000000000000000001",
                "label": "Precompiled"
            }
        ]
    },
    "trace": {
        "accountLabels": null,
        "dataMap": {
            "-1": {
                "invocation": {
                    "address": "0xf5213a6a2f0890321712520b8048d9886c1a9900",
                    "callData": "",
                    "decodedMethod": null,
                    "errorInfo": "",
                    "fromAddress": "",
                    "gasUsed": 0,
                    "id": -1,
                    "methodDecoded": false,
                    "operation": "",
                    "output": "",
                    "revert": false,
                    "revertMessage": "",
                    "selector": "",
                    "status": false,
                    "value": ""
                },
                "nodeType": 0
            },
            "0": {
                "invocation": {
                    "address": "0xe592427a0aece92de3edee1f18e0157c05861564",
                    "callData": "0x000000000000000000000000f4d2888d29d722226fafa5d9b24f9164c092421e000000000000000000000000c02aaa39b223fe8d0a0e5c4f27ead9083c756cc20000000000000000000000000000000000000000000000000000000000000bb8000000000000000000000000f5213a6a2f0890321712520b8048d9886c1a990000000000000000000000000000000000000000000000000000000000659496510000000000000000000000000000000000000000000000002350f21df86a0000000000000000000000000000000000000000000000000e66da7a5817c80000000000000000000000000000000000000000000000000000000000000000000000",
                    "decodedMethod": {
                        "callParams": [
                            {
                                "name": "params",
                                "type": "(address,address,uint24,address,uint256,uint256,uint256,uint160)",
                                "value": [
                                    {
                                        "name": "tokenIn",
                                        "type": "address",
                                        "value": "0xf4d2888d29d722226fafa5d9b24f9164c092421e"
                                    },
                                    {
                                        "name": "tokenOut",
                                        "type": "address",
                                        "value": "0xc02aaa39b223fe8d0a0e5c4f27ead9083c756cc2"
                                    },
                                    {
                                        "name": "fee",
                                        "type": "uint24",
                                        "value": "3,000"
                                    },
                                    {
                                        "name": "recipient",
                                        "type": "address",
                                        "value": "0xf5213a6a2f0890321712520b8048d9886c1a9900"
                                    },
                                    {
                                        "name": "deadline",
                                        "type": "uint256",
                                        "value": "1,704,236,625"
                                    },
                                    {
                                        "name": "amountOut",
                                        "type": "uint256",
                                        "value": "2,544,800,000,000,000,000"
                                    },
                                    {
                                        "name": "amountInMaximum",
                                        "type": "uint256",
                                        "value": "68,010,441,647,999,997,181,952"
                                    },
                                    {
                                        "name": "sqrtPriceLimitX96",
                                        "type": "uint160",
                                        "value": "0"
                                    }
                                ]
                            }
                        ],
                        "constructorArguments": "",
                        "name": "exactOutputSingle",
                        "returnParams": [
                            {
                                "name": "amountIn",
                                "type": "uint256",
                                "value": "68,010,427,214,347,247,553,769"
                            }
                        ],
                        "signature": "exactOutputSingle((address,address,uint24,address,uint256,uint256,uint256,uint160))"
                    },
                    "errorInfo": "",
                    "fromAddress": "0xf5213a6a2f0890321712520b8048d9886c1a9900",
                    "gasUsed": 117045,
                    "id": 0,
                    "methodDecoded": true,
                    "operation": "CALL",
                    "output": "0x000000000000000000000000000000000000000000000e66da4710c31f0c0ce9",
                    "revert": false,
                    "revertMessage": "",
                    "selector": "0xdb3e2198",
                    "status": true,
                    "value": "0"
                },
                "nodeType": 0
            },
            "1": {
                "invocation": {
                    "address": "0x4b5ab61593a2401b1075b90c04cbcdd3f87ce011",
                    "callData": "0x000000000000000000000000f5213a6a2f0890321712520b8048d9886c1a99000000000000000000000000000000000000000000000000000000000000000000ffffffffffffffffffffffffffffffffffffffffffffffffdcaf0de207960000000000000000000000000000fffd8963efd1fc6a506488495d951d5263988d2500000000000000000000000000000000000000000000000000000000000000a000000000000000000000000000000000000000000000000000000000000000c000000000000000000000000000000000000000000000000000000000000000200000000000000000000000000000000000000000000000000000000000000040000000000000000000000000f5213a6a2f0890321712520b8048d9886c1a9900000000000000000000000000000000000000000000000000000000000000002bc02aaa39b223fe8d0a0e5c4f27ead9083c756cc2000bb8f4d2888d29d722226fafa5d9b24f9164c092421e000000000000000000000000000000000000000000",
                    "decodedMethod": {
                        "callParams": [
                            {
                                "name": "recipient",
                                "type": "address",
                                "value": "0xf5213a6a2f0890321712520b8048d9886c1a9900"
                            },
                            {
                                "name": "zeroForOne",
                                "type": "bool",
                                "value": false
                            },
                            {
                                "name": "amountSpecified",
                                "type": "int256",
                                "value": "-2,544,800,000,000,000,000"
                            },
                            {
                                "name": "sqrtPriceLimitX96",
                                "type": "uint160",
                                "value": "1,461,446,703,485,210,103,287,273,052,203,988,822,378,723,970,341"
                            },
                            {
                                "name": "data",
                                "type": "bytes",
                                "value": "0x00000000000000000000000000000000000000000000000000000000000000200000000000000000000000000000000000000000000000000000000000000040000000000000000000000000f5213a6a2f0890321712520b8048d9886c1a9900000000000000000000000000000000000000000000000000000000000000002bc02aaa39b223fe8d0a0e5c4f27ead9083c756cc2000bb8f4d2888d29d722226fafa5d9b24f9164c092421e000000000000000000000000000000000000000000"
                            }
                        ],
                        "constructorArguments": "",
                        "name": "swap",
                        "returnParams": [
                            {
                                "name": "amount0",
                                "type": "int256",
                                "value": "-2,544,800,000,000,000,000"
                            },
                            {
                                "name": "amount1",
                                "type": "int256",
                                "value": "68,010,427,214,347,247,553,769"
                            }
                        ],
                        "signature": "swap(address,bool,int256,uint160,bytes)"
                    },
                    "errorInfo": "",
                    "fromAddress": "0xe592427a0aece92de3edee1f18e0157c05861564",
                    "gasUsed": 89138,
                    "id": 1,
                    "methodDecoded": true,
                    "operation": "CALL",
                    "output": "0xffffffffffffffffffffffffffffffffffffffffffffffffdcaf0de207960000000000000000000000000000000000000000000000000e66da4710c31f0c0ce9",
                    "revert": false,
                    "revertMessage": "",
                    "selector": "0x128acb08",
                    "status": true,
                    "value": "0"
                },
                "nodeType": 0
            },
            "10": {
                "event": {
                    "contract": "0x4b5ab61593a2401b1075b90c04cbcdd3f87ce011",
                    "decodedLog": {
                        "name": "Swap",
                        "params": [
                            {
                                "name": "sender",
                                "type": "address",
                                "value": "0xe592427a0aece92de3edee1f18e0157c05861564"
                            },
                            {
                                "name": "recipient",
                                "type": "address",
                                "value": "0xf5213a6a2f0890321712520b8048d9886c1a9900"
                            },
                            {
                                "name": "amount0",
                                "type": "int256",
                                "value": "-2,544,800,000,000,000,000"
                            },
                            {
                                "name": "amount1",
                                "type": "int256",
                                "value": "68,010,427,214,347,247,553,769"
                            },
                            {
                                "name": "sqrtPriceX96",
                                "type": "uint160",
                                "value": "12,948,266,825,705,004,420,146,249,429,817"
                            },
                            {
                                "name": "liquidity",
                                "type": "uint128",
                                "value": "172,287,928,043,372,397,469,159"
                            },
                            {
                                "name": "tick",
                                "type": "int24",
                                "value": "101,932"
                            }
                        ],
                        "signature": "Swap(address,address,int256,int256,uint160,uint128,int24)"
                    },
                    "id": 10,
                    "logData": "0xffffffffffffffffffffffffffffffffffffffffffffffffdcaf0de207960000000000000000000000000000000000000000000000000e66da4710c31f0c0ce900000000000000000000000000000000000000a36e1b48cd914ed2f35511733900000000000000000000000000000000000000000000247bbf4ea6e1f8841de70000000000000000000000000000000000000000000000000000000000018e2c",
                    "logDecoded": true,
                    "operation": "EVENT",
                    "revert": false,
                    "status": true,
                    "topics": [
                        "0xc42079f94a6350d7e6235f29174924f928cc2ac818eb64fed8004e115fbcca67",
                        "0x000000000000000000000000e592427a0aece92de3edee1f18e0157c05861564",
                        "0x000000000000000000000000f5213a6a2f0890321712520b8048d9886c1a9900"
                    ]
                },
                "nodeType": 1
            },
            "2": {
                "invocation": {
                    "address": "0xc02aaa39b223fe8d0a0e5c4f27ead9083c756cc2",
                    "callData": "0x000000000000000000000000f5213a6a2f0890321712520b8048d9886c1a99000000000000000000000000000000000000000000000000002350f21df86a0000",
                    "decodedMethod": {
                        "callParams": [
                            {
                                "name": "dst",
                                "type": "address",
                                "value": "0xf5213a6a2f0890321712520b8048d9886c1a9900"
                            },
                            {
                                "decimalAvailable": true,
                                "name": "wad",
                                "type": "uint256",
                                "value": "2,544,800,000,000,000,000"
                            }
                        ],
                        "constructorArguments": "",
                        "name": "transfer",
                        "returnParams": [
                            {
                                "name": "",
                                "type": "bool",
                                "value": true
                            }
                        ],
                        "signature": "transfer(address,uint256)"
                    },
                    "errorInfo": "",
                    "fromAddress": "0x4b5ab61593a2401b1075b90c04cbcdd3f87ce011",
                    "gasUsed": 12862,
                    "id": 2,
                    "methodDecoded": true,
                    "operation": "CALL",
                    "output": "0x0000000000000000000000000000000000000000000000000000000000000001",
                    "revert": false,
                    "revertMessage": "",
                    "selector": "0xa9059cbb",
                    "status": true,
                    "value": "0"
                },
                "nodeType": 0
            },
            "3": {
                "event": {
                    "contract": "0xc02aaa39b223fe8d0a0e5c4f27ead9083c756cc2",
                    "decodedLog": {
                        "name": "Transfer",
                        "params": [
                            {
                                "name": "src",
                                "type": "address",
                                "value": "0x4b5ab61593a2401b1075b90c04cbcdd3f87ce011"
                            },
                            {
                                "name": "dst",
                                "type": "address",
                                "value": "0xf5213a6a2f0890321712520b8048d9886c1a9900"
                            },
                            {
                                "decimalAvailable": true,
                                "name": "wad",
                                "type": "uint256",
                                "value": "2,544,800,000,000,000,000"
                            }
                        ],
                        "signature": "Transfer(address,address,uint256)"
                    },
                    "id": 3,
                    "logData": "0x0000000000000000000000000000000000000000000000002350f21df86a0000",
                    "logDecoded": true,
                    "operation": "EVENT",
                    "revert": false,
                    "status": true,
                    "topics": [
                        "0xddf252ad1be2c89b69c2b068fc378daa952ba7f163c4a11628f55a4df523b3ef",
                        "0x0000000000000000000000004b5ab61593a2401b1075b90c04cbcdd3f87ce011",
                        "0x000000000000000000000000f5213a6a2f0890321712520b8048d9886c1a9900"
                    ]
                },
                "nodeType": 1
            },
            "4": {
                "invocation": {
                    "address": "0xf4d2888d29d722226fafa5d9b24f9164c092421e",
                    "callData": "0x0000000000000000000000004b5ab61593a2401b1075b90c04cbcdd3f87ce011",
                    "decodedMethod": {
                        "callParams": [
                            {
                                "name": "account",
                                "type": "address",
                                "value": "0x4b5ab61593a2401b1075b90c04cbcdd3f87ce011"
                            }
                        ],
                        "constructorArguments": "",
                        "name": "balanceOf",
                        "returnParams": [
                            {
                                "decimalAvailable": true,
                                "name": "",
                                "type": "uint256",
                                "value": "13,103,212,556,031,812,173,921,443"
                            }
                        ],
                        "signature": "balanceOf(address)"
                    },
                    "errorInfo": "",
                    "fromAddress": "0x4b5ab61593a2401b1075b90c04cbcdd3f87ce011",
                    "gasUsed": 2539,
                    "id": 4,
                    "methodDecoded": true,
                    "operation": "STATICCALL",
                    "output": "0x0000000000000000000000000000000000000000000ad6b693740b7116a17ca3",
                    "revert": false,
                    "revertMessage": "",
                    "selector": "0x70a08231",
                    "status": true,
                    "value": "0"
                },
                "nodeType": 0
            },
            "5": {
                "invocation": {
                    "address": "0xe592427a0aece92de3edee1f18e0157c05861564",
                    "callData": "0xffffffffffffffffffffffffffffffffffffffffffffffffdcaf0de207960000000000000000000000000000000000000000000000000e66da4710c31f0c0ce9000000000000000000000000000000000000000000000000000000000000006000000000000000000000000000000000000000000000000000000000000000c000000000000000000000000000000000000000000000000000000000000000200000000000000000000000000000000000000000000000000000000000000040000000000000000000000000f5213a6a2f0890321712520b8048d9886c1a9900000000000000000000000000000000000000000000000000000000000000002bc02aaa39b223fe8d0a0e5c4f27ead9083c756cc2000bb8f4d2888d29d722226fafa5d9b24f9164c092421e000000000000000000000000000000000000000000",
                    "decodedMethod": {
                        "callParams": [
                            {
                                "name": "amount0Delta",
                                "type": "int256",
                                "value": "-2,544,800,000,000,000,000"
                            },
                            {
                                "name": "amount1Delta",
                                "type": "int256",
                                "value": "68,010,427,214,347,247,553,769"
                            },
                            {
                                "name": "_data",
                                "type": "bytes",
                                "value": "0x00000000000000000000000000000000000000000000000000000000000000200000000000000000000000000000000000000000000000000000000000000040000000000000000000000000f5213a6a2f0890321712520b8048d9886c1a9900000000000000000000000000000000000000000000000000000000000000002bc02aaa39b223fe8d0a0e5c4f27ead9083c756cc2000bb8f4d2888d29d722226fafa5d9b24f9164c092421e000000000000000000000000000000000000000000"
                            }
                        ],
                        "constructorArguments": "",
                        "name": "uniswapV3SwapCallback",
                        "returnParams": [],
                        "signature": "uniswapV3SwapCallback(int256,int256,bytes)"
                    },
                    "errorInfo": "",
                    "fromAddress": "0x4b5ab61593a2401b1075b90c04cbcdd3f87ce011",
                    "gasUsed": 27197,
                    "id": 5,
                    "methodDecoded": true,
                    "operation": "CALL",
                    "output": "",
                    "revert": false,
                    "revertMessage": "",
                    "selector": "0xfa461e33",
                    "status": true,
                    "value": "0"
                },
                "nodeType": 0
            },
            "6": {
                "invocation": {
                    "address": "0xf4d2888d29d722226fafa5d9b24f9164c092421e",
                    "callData": "0x000000000000000000000000f5213a6a2f0890321712520b8048d9886c1a99000000000000000000000000004b5ab61593a2401b1075b90c04cbcdd3f87ce011000000000000000000000000000000000000000000000e66da4710c31f0c0ce9",
                    "decodedMethod": {
                        "callParams": [
                            {
                                "name": "sender",
                                "type": "address",
                                "value": "0xf5213a6a2f0890321712520b8048d9886c1a9900"
                            },
                            {
                                "name": "recipient",
                                "type": "address",
                                "value": "0x4b5ab61593a2401b1075b90c04cbcdd3f87ce011"
                            },
                            {
                                "decimalAvailable": true,
                                "name": "amount",
                                "type": "uint256",
                                "value": "68,010,427,214,347,247,553,769"
                            }
                        ],
                        "constructorArguments": "",
                        "name": "transferFrom",
                        "returnParams": [
                            {
                                "name": "",
                                "type": "bool",
                                "value": true
                            }
                        ],
                        "signature": "transferFrom(address,address,uint256)"
                    },
                    "errorInfo": "",
                    "fromAddress": "0xe592427a0aece92de3edee1f18e0157c05861564",
                    "gasUsed": 18035,
                    "id": 6,
                    "methodDecoded": true,
                    "operation": "CALL",
                    "output": "0x0000000000000000000000000000000000000000000000000000000000000001",
                    "revert": false,
                    "revertMessage": "",
                    "selector": "0x23b872dd",
                    "status": true,
                    "value": "0"
                },
                "nodeType": 0
            },
            "7": {
                "event": {
                    "contract": "0xf4d2888d29d722226fafa5d9b24f9164c092421e",
                    "decodedLog": {
                        "name": "Transfer",
                        "params": [
                            {
                                "name": "from",
                                "type": "address",
                                "value": "0xf5213a6a2f0890321712520b8048d9886c1a9900"
                            },
                            {
                                "name": "to",
                                "type": "address",
                                "value": "0x4b5ab61593a2401b1075b90c04cbcdd3f87ce011"
                            },
                            {
                                "decimalAvailable": true,
                                "name": "value",
                                "type": "uint256",
                                "value": "68,010,427,214,347,247,553,769"
                            }
                        ],
                        "signature": "Transfer(address,address,uint256)"
                    },
                    "id": 7,
                    "logData": "0x000000000000000000000000000000000000000000000e66da4710c31f0c0ce9",
                    "logDecoded": true,
                    "operation": "EVENT",
                    "revert": false,
                    "status": true,
                    "topics": [
                        "0xddf252ad1be2c89b69c2b068fc378daa952ba7f163c4a11628f55a4df523b3ef",
                        "0x000000000000000000000000f5213a6a2f0890321712520b8048d9886c1a9900",
                        "0x0000000000000000000000004b5ab61593a2401b1075b90c04cbcdd3f87ce011"
                    ]
                },
                "nodeType": 1
            },
            "8": {
                "event": {
                    "contract": "0xf4d2888d29d722226fafa5d9b24f9164c092421e",
                    "decodedLog": {
                        "name": "Approval",
                        "params": [
                            {
                                "name": "owner",
                                "type": "address",
                                "value": "0xf5213a6a2f0890321712520b8048d9886c1a9900"
                            },
                            {
                                "name": "spender",
                                "type": "address",
                                "value": "0xe592427a0aece92de3edee1f18e0157c05861564"
                            },
                            {
                                "decimalAvailable": true,
                                "name": "value",
                                "type": "uint256",
                                "value": "40,320,705,628,714,606,553,869,585"
                            }
                        ],
                        "signature": "Approval(address,address,uint256)"
                    },
                    "id": 8,
                    "logData": "0x000000000000000000000000000000000000000000215a3dd4fa05d1ef222d11",
                    "logDecoded": true,
                    "operation": "EVENT",
                    "revert": false,
                    "status": true,
                    "topics": [
                        "0x8c5be1e5ebec7d5bd14f71427d1e84f3dd0314c0f7b2291e5b200ac8c7c3b925",
                        "0x000000000000000000000000f5213a6a2f0890321712520b8048d9886c1a9900",
                        "0x000000000000000000000000e592427a0aece92de3edee1f18e0157c05861564"
                    ]
                },
                "nodeType": 1
            },
            "9": {
                "invocation": {
                    "address": "0xf4d2888d29d722226fafa5d9b24f9164c092421e",
                    "callData": "0x0000000000000000000000004b5ab61593a2401b1075b90c04cbcdd3f87ce011",
                    "decodedMethod": {
                        "callParams": [
                            {
                                "name": "account",
                                "type": "address",
                                "value": "0x4b5ab61593a2401b1075b90c04cbcdd3f87ce011"
                            }
                        ],
                        "constructorArguments": "",
                        "name": "balanceOf",
                        "returnParams": [
                            {
                                "decimalAvailable": true,
                                "name": "",
                                "type": "uint256",
                                "value": "13,171,222,983,246,159,421,475,212"
                            }
                        ],
                        "signature": "balanceOf(address)"
                    },
                    "errorInfo": "",
                    "fromAddress": "0x4b5ab61593a2401b1075b90c04cbcdd3f87ce011",
                    "gasUsed": 539,
                    "id": 9,
                    "methodDecoded": true,
                    "operation": "STATICCALL",
                    "output": "0x0000000000000000000000000000000000000000000ae51d6dbb1c3435ad898c",
                    "revert": false,
                    "revertMessage": "",
                    "selector": "0x70a08231",
                    "status": true,
                    "value": "0"
                },
                "nodeType": 0
            }
        },
        "gasFlame": [
            {
                "children": [
                    {
                        "children": [
                            {
                                "children": [],
                                "depth": 0,
                                "name": "Initial Gas",
                                "value": 23024
                            },
                            {
                                "children": [
                                    {
                                        "children": [
                                            {
                                                "children": [],
                                                "depth": 2,
                                                "name": "transfer",
                                                "value": 12862
                                            },
                                            {
                                                "children": [],
                                                "depth": 2,
                                                "name": "balanceOf",
                                                "value": 2539
                                            },
                                            {
                                                "children": [
                                                    {
                                                        "children": [],
                                                        "depth": 3,
                                                        "name": "transferFrom",
                                                        "value": 18035
                                                    }
                                                ],
                                                "depth": 2,
                                                "name": "uniswapV3SwapCallback",
                                                "value": 27197
                                            },
                                            {
                                                "children": [],
                                                "depth": 2,
                                                "name": "balanceOf",
                                                "value": 539
                                            }
                                        ],
                                        "depth": 1,
                                        "name": "swap",
                                        "value": 89138
                                    }
                                ],
                                "depth": 0,
                                "name": "Executed Gas",
                                "value": 96821
                            }
                        ],
                        "depth": -1,
                        "name": "Actual Gas Used",
                        "value": 117045
                    },
                    {
                        "children": [],
                        "depth": -1,
                        "name": "Refunded Gas",
                        "value": 2800
                    }
                ],
                "depth": -2,
                "name": "Total Gas",
                "value": 119845
            }
        ],
        "isConfirmed": true,
        "mainTrace": [
            {
                "children": [
                    {
                        "children": [
                            {
                                "children": [
                                    {
                                        "children": [
                                            {
                                                "children": [],
                                                "depth": 3,
                                                "id": 3,
                                                "order": 3
                                            }
                                        ],
                                        "depth": 2,
                                        "id": 2,
                                        "order": 2
                                    },
                                    {
                                        "children": [],
                                        "depth": 2,
                                        "id": 4,
                                        "order": 4
                                    },
                                    {
                                        "children": [
                                            {
                                                "children": [
                                                    {
                                                        "children": [],
                                                        "depth": 4,
                                                        "id": 7,
                                                        "order": 7
                                                    },
                                                    {
                                                        "children": [],
                                                        "depth": 4,
                                                        "id": 8,
                                                        "order": 8
                                                    }
                                                ],
                                                "depth": 3,
                                                "id": 6,
                                                "order": 6
                                            }
                                        ],
                                        "depth": 2,
                                        "id": 5,
                                        "order": 5
                                    },
                                    {
                                        "children": [],
                                        "depth": 2,
                                        "id": 9,
                                        "order": 9
                                    },
                                    {
                                        "children": [],
                                        "depth": 2,
                                        "id": 10,
                                        "order": 10
                                    }
                                ],
                                "depth": 1,
                                "id": 1,
                                "order": 1
                            }
                        ],
                        "depth": 0,
                        "id": 0,
                        "order": 0
                    }
                ],
                "depth": -1,
                "id": -1,
                "order": -1
            }
        ],
        "mainTraceNodeCount": 11,
        "parentIdMap": {
            "0": -1,
            "1": 0,
            "10": 1,
            "2": 1,
            "3": 2,
            "4": 1,
            "5": 1,
            "6": 5,
            "7": 6,
            "8": 6,
            "9": 1
        },
        "tidyTrace": [
            {
                "children": [
                    {
                        "children": [
                            {
                                "children": [
                                    {
                                        "children": [
                                            {
                                                "children": [],
                                                "depth": 3,
                                                "id": 3,
                                                "order": 3
                                            }
                                        ],
                                        "depth": 2,
                                        "id": 2,
                                        "order": 2
                                    },
                                    {
                                        "children": [
                                            {
                                                "children": [
                                                    {
                                                        "children": [],
                                                        "depth": 4,
                                                        "id": 7,
                                                        "order": 7
                                                    },
                                                    {
                                                        "children": [],
                                                        "depth": 4,
                                                        "id": 8,
                                                        "order": 8
                                                    }
                                                ],
                                                "depth": 3,
                                                "id": 6,
                                                "order": 6
                                            }
                                        ],
                                        "depth": 2,
                                        "id": 5,
                                        "order": 5
                                    },
                                    {
                                        "children": [],
                                        "depth": 2,
                                        "id": 10,
                                        "order": 10
                                    }
                                ],
                                "depth": 1,
                                "id": 1,
                                "order": 1
                            }
                        ],
                        "depth": 0,
                        "id": 0,
                        "order": 0
                    }
                ],
                "depth": -1,
                "id": -1,
                "order": -1
            }
        ],
        "tidyTraceNodeCount": 9
    },
    "state_change": {
        "stateChanges": [
            {
                "address": "0x4b5ab61593a2401b1075b90c04cbcdd3f87ce011",
                "erc": "",
                "slots": [
                    {
                        "current": "0x000100012c012c0086018e2c00000000000000a36e1b48cd914ed2f355117339",
                        "key": "0x0000000000000000000000000000000000000000000000000000000000000000",
                        "prev": "0x000100012c012c0085018dfc00000000000000a3095aa5c4229dba33fe7fd314"
                    },
                    {
                        "current": "0x0100000000000000000000706b836f863d5568bff000051e35cfabc7659495db",
                        "key": "0x000000000000000000000000000000000000000000000000000000000000008e",
                        "prev": "0x01000000000000000000007056f5df497cd40ca041000519a2c63be76591a943"
                    },
                    {
                        "current": "0x0000000000000000000000000000009181c523582efa0a4ac1047b733427a05a",
                        "key": "0x0000000000000000000000000000000000000000000000000000000000000002",
                        "prev": "0x00000000000000000000000000000091817786fe8ad2fde47f42f12a91e4a1ec"
                    }
                ],
                "storageVariables": []
            },
            {
                "address": "0xc02aaa39b223fe8d0a0e5c4f27ead9083c756cc2",
                "erc": "ERC-20",
                "slots": [
                    {
                        "current": "0x000000000000000000000000000000000000000000000006b1134777d6d7f051",
                        "key": "0x98be5cb53bc8c144acf7451f10098b397ac1c9626286fa6ac9782d3ae4d7a49b",
                        "prev": "0x0000000000000000000000000000000000000000000000068dc25559de6df051"
                    },
                    {
                        "current": "0x00000000000000000000000000000000000000000000000eb583e3a7d55c0344",
                        "key": "0x52b7ea9479ce8c84ede63d305072922b62f50f29a7d38dc3d0ef8c96a79ef7f9",
                        "prev": "0x00000000000000000000000000000000000000000000000ed8d4d5c5cdc60344"
                    }
                ],
                "storageVariables": [
                    {
                        "name": "balanceOf",
                        "type": "mapping(address => uint256)",
                        "value": {
                            "pairs": [
                                {
                                    "key": "0x4b5ab61593a2401b1075b90c04cbcdd3f87ce011",
                                    "value": {
                                        "current": "271333965084726395716",
                                        "prev": "273878765084726395716",
                                        "typeTag": 1
                                    }
                                },
                                {
                                    "key": "0xf5213a6a2f0890321712520b8048d9886c1a9900",
                                    "value": {
                                        "current": "123440085191559213137",
                                        "prev": "120895285191559213137",
                                        "typeTag": 1
                                    }
                                }
                            ],
                            "typeTag": 4
                        }
                    }
                ]
            },
            {
                "address": "0xf4d2888d29d722226fafa5d9b24f9164c092421e",
                "erc": "ERC-20",
                "slots": [
                    {
                        "current": "0x000000000000000000000000000000000000000000008535469782c02fe226ed",
                        "key": "0xb87a7b07ebd6f984281b26cee7d769791cbfcab0a869865c98c0ca11e1050c6f",
                        "prev": "0x00000000000000000000000000000000000000000000939c20de93834eee33d6"
                    },
                    {
                        "current": "0x0000000000000000000000000000000000000000000ae51d6dbb1c3435ad898c",
                        "key": "0x7bdce474ea635d9e7ef759fddc0978d2c3d79e6777486ca13c0f727c67563c17",
                        "prev": "0x0000000000000000000000000000000000000000000ad6b693740b7116a17ca3"
                    },
                    {
                        "current": "0x000000000000000000000000000000000000000000215a3dd4fa05d1ef222d11",
                        "key": "0x8b262573ed5da106c0768324ae4b8841287e40293ee58662cbb1392464817103",
                        "prev": "0x0000000000000000000000000000000000000000002168a4af4116950e2e39fa"
                    }
                ],
                "storageVariables": [
                    {
                        "name": "_balances",
                        "type": "mapping(address => uint256)",
                        "value": {
                            "pairs": [
                                {
                                    "key": "0x4b5ab61593a2401b1075b90c04cbcdd3f87ce011",
                                    "value": {
                                        "current": "13171222983246159421475212",
                                        "prev": "13103212556031812173921443",
                                        "typeTag": 1
                                    }
                                },
                                {
                                    "key": "0xf5213a6a2f0890321712520b8048d9886c1a9900",
                                    "value": {
                                        "current": "629057506335635506603757",
                                        "prev": "697067933549982754157526",
                                        "typeTag": 1
                                    }
                                }
                            ],
                            "typeTag": 4
                        }
                    },
                    {
                        "name": "_allowances",
                        "type": "mapping(address => mapping(address => uint256))",
                        "value": {
                            "pairs": [
                                {
                                    "key": "0xf5213a6a2f0890321712520b8048d9886c1a9900",
                                    "value": {
                                        "pairs": [
                                            {
                                                "key": "0xe592427a0aece92de3edee1f18e0157c05861564",
                                                "value": {
                                                    "current": "40320705628714606553869585",
                                                    "prev": "40388716055928953801423354",
                                                    "typeTag": 1
                                                }
                                            }
                                        ],
                                        "typeTag": 4
                                    }
                                }
                            ],
                            "typeTag": 4
                        }
                    }
                ]
            }
        ]
    }
}