{
    "balance_change": {
        "balanceChanges": [
            {
                "account": "0xa77a779c03430ff392d98589e69a7e8b81ca252b",
                "assets": [
                    {
                        "address": "0x4d224452801aced8b2f0aebe155379bb5d594381",
                        "amount": "1",
                        "iconUrl": "https://assets.blocksec.com/icon/2edd169b33ddc44d0c2362c907ae50b3b0aed7e6e08bf6f72599647136aeddd0.png",
                        "isERC1155": false,
                        "isERC721": false,
                        "sign": false,
                        "value": "4.1143077190544685706"
                    }
                ]
            },
            {
                "account": "0x0e9e9eff515385d3b2756191ff90b6100dbe1ecd",
                "assets": [
                    {
                        "address": "0x4d224452801aced8b2f0aebe155379bb5d594381",
                        "amount": "1",
                        "iconUrl": "https://assets.blocksec.com/icon/2edd169b33ddc44d0c2362c907ae50b3b0aed7e6e08bf6f72599647136aeddd0.png",
                        "isERC1155": false,
                        "isERC721": false,
                        "sign": true,
                        "value": "4.1143077190544685706"
                    }
                ]
            }
        ]
    },
    "profile": {
        "basic_info": {
            "baseFee": "16.028176692",
            "blockNumber": 16843548,
            "callData": "0xa9059cbb0000000000000000000000000e9e9eff515385d3b2756191ff90b6100dbe1ecd0000000000000000000000000000000000000000000000000de0b6b3a7640000",
            "debugEnable": true,
            "errorInfo": "",
            "eventCount": 1,
            "feeRecipient": "0x690b9a9e9aa1c9db991c7721a92d351db4fac990",
            "formatValue": "0",
            "gasLimit": 52585,
            "gasPrice": "16.510368185",
            "gasUsed": 51585,
            "intTxnCount": 0,
            "internalRevert": false,
            "internalRevertMessage": "",
            "isContractCreation": false,
            "isFlashloan": false,
            "maxFee": "",
            "nonce": 870,
            "overwritedBlockNumber": -1,
            "priorityFee": "",
            "receiver": "0x4d224452801aced8b2f0aebe155379bb5d594381",
            "revertMessage": "",
            "sender": "0xa77a779c03430ff392d98589e69a7e8b81ca252b",
            "simulationEnable": true,
            "sourceTxnHash": "0xc5cdb1126424cc8442085dc2bb00bdc06ed3d262620d1e6fff226f9708e5466f",
            "status": true,
            "timestamp": "2023-03-16T23:03:47Z",
            "transactionFee": "0.000851687342823225",
            "txnHash": "0xc5cdb1126424cc8442085dc2bb00bdc06ed3d262620d1e6fff226f9708e5466f",
            "txnIndex": 59,
            "type": 0,
            "value": "0"
        },
        "fund_flow": [
            {
                "amount": "1",
                "from": "0xa77a779c03430ff392d98589e69a7e8b81ca252b",
                "id": 1,
                "isERC1155": false,
                "isERC721": false,
                "isReverted": false,
                "order": 1,
                "to": "0x0e9e9eff515385d3b2756191ff90b6100dbe1ecd",
                "token": "0x4d224452801aced8b2f0aebe155379bb5d594381"
            }
        ],
        "token_infos": [
            {
                "address": "0xeeeeeeeeeeeeeeeeeeeeeeeeeeeeeeeeeeeeeeee",
                "decimals": 18
            },
            {
                "address": "0x4d224452801aced8b2f0aebe155379bb5d594381",
                "decimals": 18
            },
            {
                "address": "0xc02aaa39b223fe8d0a0e5c4f27ead9083c756cc2",
                "decimals": 18
            }
        ]
    },
    "address_label": {
        "labels": [
            {
                "address": "0x4d224452801aced8b2f0aebe155379bb5d594381",
                "label": "Apecoin: APE Token"
            },
            {
                "address": "0x0000000000000000000000000000000000000001",
                "label": "Precompiled"
            },
            {
                "address": "0x0000000000000000000000000000000000000002",
                "label": "Precompiled"
            },
            {
                "address": "0x0000000000000000000000000000000000000003",
                "label": "Precompiled"
            },
            {
                "address": "0x0000000000000000000000000000000000000004",
                "label": "Precompiled"
            },
            {
                "address": "0xeeeeeeeeeeeeeeeeeeeeeeeeeeeeeeeeeeeeeeee",
                "label": "Ether"
            }
        ]
    },
    "trace": {
        "accountLabels": null,
        "dataMap": {
            "-1": {
                "invocation": {
                    "address": "0xa77a779c03430ff392d98589e69a7e8b81ca252b",
                    "callData": "",
                    "decodedMethod": null,
                    "errorInfo": "",
                    "fromAddress": "",
                    "gasUsed": 0,
                    "id": -1,
                    "methodDecoded": false,
                    "operation": "",
                    "output": "",
                    "revert": false,
                    "revertMessage": "",
                    "selector": "",
                    "status": false,
                    "value": ""
                },
                "nodeType": 0
            },
            "0": {
                "invocation": {
                    "address": "0x4d224452801aced8b2f0aebe155379bb5d594381",
                    "callData": "0x0000000000000000000000000e9e9eff515385d3b2756191ff90b6100dbe1ecd0000000000000000000000000000000000000000000000000de0b6b3a7640000",
                    "decodedMethod": {
                        "callParams": [
                            {
                                "name": "recipient",
                                "type": "address",
                                "value": "0x0e9e9eff515385d3b2756191ff90b6100dbe1ecd"
                            },
                            {
                                "decimalAvailable": true,
                                "name": "amount",
                                "type": "uint256",
                                "value": "1,000,000,000,000,000,000"
                            }
                        ],
                        "constructorArguments": "",
                        "name": "transfer",
                        "returnParams": [
                            {
                                "name": "",
                                "type": "bool",
                                "value": true
                            }
                        ],
                        "signature": "transfer(address,uint256)"
                    },
                    "errorInfo": "",
                    "fromAddress": "0xa77a779c03430ff392d98589e69a7e8b81ca252b",
                    "gasUsed": 51585,
                    "id": 0,
                    "methodDecoded": true,
                    "operation": "CALL",
                    "output": "0x0000000000000000000000000000000000000000000000000000000000000001",
                    "revert": false,
                    "revertMessage": "",
                    "selector": "0xa9059cbb",
                    "status": true,
                    "value": "0"
                },
                "nodeType": 0
            },
            "1": {
                "event": {
                    "contract": "0x4d224452801aced8b2f0aebe155379bb5d594381",
                    "decodedLog": {
                        "name": "Transfer",
                        "params": [
                            {
                                "name": "from",
                                "type": "address",
                                "value": "0xa77a779c03430ff392d98589e69a7e8b81ca252b"
                            },
                            {
                                "name": "to",
                                "type": "address",
                                "value": "0x0e9e9eff515385d3b2756191ff90b6100dbe1ecd"
                            },
                            {
                                "decimalAvailable": true,
                                "name": "value",
                                "type": "uint256",
                                "value": "1,000,000,000,000,000,000"
                            }
                        ],
                        "signature": "Transfer(address,address,uint256)"
                    },
                    "id": 1,
                    "logData": "0x0000000000000000000000000000000000000000000000000de0b6b3a7640000",
                    "logDecoded": true,
                    "operation": "EVENT",
                    "revert": false,
                    "status": true,
                    "topics": [
                        "0xddf252ad1be2c89b69c2b068fc378daa952ba7f163c4a11628f55a4df523b3ef",
                        "0x000000000000000000000000a77a779c03430ff392d98589e69a7e8b81ca252b",
                        "0x0000000000000000000000000e9e9eff515385d3b2756191ff90b6100dbe1ecd"
                    ]
                },
                "nodeType": 1
            }
        },
        "gasFlame": [
            {
                "children": [
                    {
                        "children": [
                            {
                                "children": [],
                                "depth": 0,
                                "name": "Initial Gas",
                                "value": 21632
                            },
                            {
                                "children": [],
                                "depth": 0,
                                "name": "Executed Gas",
                                "value": 29953
                            }
                        ],
                        "depth": -1,
                        "name": "Actual Gas Used",
                        "value": 51585
                    },
                    {
                        "children": [],
                        "depth": -1,
                        "name": "Refunded Gas",
                        "value": 0
                    }
                ],
                "depth": -2,
                "name": "Total Gas",
                "value": 51585
            }
        ],
        "isConfirmed": true,
        "mainTrace": [
            {
                "children": [
                    {
                        "children": [
                            {
                                "children": [],
                                "depth": 1,
                                "id": 1,
                                "order": 1
                            }
                        ],
                        "depth": 0,
                        "id": 0,
                        "order": 0
                    }
                ],
                "depth": -1,
                "id": -1,
                "order": -1
            }
        ],
        "mainTraceNodeCount": 2,
        "parentIdMap": {
            "0": -1,
            "1": 0
        },
        "tidyTrace": [
            {
                "children": [
                    {
                        "children": [
                            {
                                "children": [],
                                "depth": 1,
                                "id": 1,
                                "order": 1
                            }
                        ],
                        "depth": 0,
                        "id": 0,
                        "order": 0
                    }
                ],
                "depth": -1,
                "id": -1,
                "order": -1
            }
        ],
        "tidyTraceNodeCount": 2
    },
    "state_change": {
        "stateChanges": [
            {
                "address": "0x4d224452801aced8b2f0aebe155379bb5d594381",
                "erc": "ERC-20",
                "slots": [
                    {
                        "current": "0x000000000000000000000000000000000000000000000008db76663e88959c00",
                        "key": "0x7941fbd671ac2ca88327e598eaa32ac708b58dce879079c4c590427d8da0a85a",
                        "prev": "0x000000000000000000000000000000000000000000000008e9571cf22ff99c00"
                    },
                    {
                        "current": "0x0000000000000000000000000000000000000000000000000de0b6b3a7640000",
                        "key": "0x99f6465c217e76d8fa05e7925ed4fd4c3ddb7b1f87e5ff9f0940d2b1816c8241",
                        "prev": "0x0000000000000000000000000000000000000000000000000000000000000000"
                    }
                ],
                "storageVariables": [
                    {
                        "name": "_balances",
                        "type": "mapping(address => uint256)",
                        "value": {
                            "pairs": [
                                {
                                    "key": "0x0e9e9eff515385d3b2756191ff90b6100dbe1ecd",
                                    "value": {
                                        "current": "1000000000000000000",
                                        "prev": "0",
                                        "typeTag": 1
                                    }
                                },
                                {
                                    "key": "0xa77a779c03430ff392d98589e69a7e8b81ca252b",
                                    "value": {
                                        "current": "163387892150000000000",
                                        "prev": "164387892150000000000",
                                        "typeTag": 1
                                    }
                                }
                            ],
                            "typeTag": 4
                        }
                    }
                ]
            }
        ]
    }
}