{
    "balance_change": {
        "balanceChanges": [
            {
                "account": "0x6fc911d219895e4281b6d5743a539b73cbc9db78",
                "assets": [
                    {
                        "address": "0x763ac0a5a2fc863f2e73e2b6ecb0fd07f1357039",
                        "amount": "500",
                        "iconUrl": "",
                        "isERC1155": false,
                        "isERC721": false,
                        "sign": false,
                        "value": ""
                    }
                ]
            },
            {
                "account": "0x012efe704d9c189d4e27bf21c6c07e7a076efdcc",
                "assets": [
                    {
                        "address": "0x763ac0a5a2fc863f2e73e2b6ecb0fd07f1357039",
                        "amount": "500",
                        "iconUrl": "",
                        "isERC1155": false,
                        "isERC721": false,
                        "sign": true,
                        "value": ""
                    }
                ]
            }
        ]
    },
    "profile": {
        "basic_info": {
            "baseFee": "",
            "blockNumber": 5033702,
            "callData": "0xa9059cbb000000000000000000000000012efe704d9c189d4e27bf21c6c07e7a076efdcc00000000000000000000000000000000000000000000000000000000004c4b40",
            "debugEnable": true,
            "errorInfo": "",
            "eventCount": 1,
            "feeRecipient": "0xea674fdde714fd979de3edf0f56aa9716b898ec8",
            "formatValue": "0",
            "gasLimit": 60000,
            "gasPrice": "8",
            "gasUsed": 36252,
            "intTxnCount": 0,
            "internalRevert": false,
            "internalRevertMessage": "",
            "isContractCreation": false,
            "isFlashloan": false,
            "maxFee": "",
            "nonce": 1,
            "overwritedBlockNumber": -1,
            "priorityFee": "",
            "receiver": "0x763ac0a5a2fc863f2e73e2b6ecb0fd07f1357039",
            "revertMessage": "",
            "sender": "0x6fc911d219895e4281b6d5743a539b73cbc9db78",
            "simulationEnable": true,
            "sourceTxnHash": "0xc54ee38e6c92edbf4da63f77cf4a6d9e23a4fddb823de7999b0484766343aa3a",
            "status": true,
            "timestamp": "2018-02-05T06:38:36Z",
            "transactionFee": "0.000290016",
            "txnHash": "0xc54ee38e6c92edbf4da63f77cf4a6d9e23a4fddb823de7999b0484766343aa3a",
            "txnIndex": 210,
            "type": 0,
            "value": "0"
        },
        "fund_flow": [
            {
                "amount": "500",
                "from": "0x6fc911d219895e4281b6d5743a539b73cbc9db78",
                "id": 1,
                "isERC1155": false,
                "isERC721": false,
                "isReverted": false,
                "order": 1,
                "to": "0x012efe704d9c189d4e27bf21c6c07e7a076efdcc",
                "token": "0x763ac0a5a2fc863f2e73e2b6ecb0fd07f1357039"
            }
        ],
        "token_infos": [
            {
                "address": "0xeeeeeeeeeeeeeeeeeeeeeeeeeeeeeeeeeeeeeeee",
                "decimals": 18
            },
            {
                "address": "0x763ac0a5a2fc863f2e73e2b6ecb0fd07f1357039",
                "decimals": 4
            },
            {
                "address": "0xc02aaa39b223fe8d0a0e5c4f27ead9083c756cc2",
                "decimals": 18
            }
        ]
    },
    "address_label": {
        "labels": [
            {
                "address": "0x0000000000000000000000000000000000000001",
                "label": "Precompiled"
            },
            {
                "address": "0x0000000000000000000000000000000000000002",
                "label": "Precompiled"
            },
            {
                "address": "0x0000000000000000000000000000000000000003",
                "label": "Precompiled"
            },
            {
                "address": "0x0000000000000000000000000000000000000004",
                "label": "Precompiled"
            },
            {
                "address": "0xeeeeeeeeeeeeeeeeeeeeeeeeeeeeeeeeeeeeeeee",
                "label": "Ether"
            },
            {
                "address": "0x763ac0a5a2fc863f2e73e2b6ecb0fd07f1357039",
                "label": "SMZC"
            }
        ]
    },
    "trace": {
        "accountLabels": null,
        "dataMap": {
            "-1": {
                "invocation": {
                    "address": "0x6fc911d219895e4281b6d5743a539b73cbc9db78",
                    "callData": "",
                    "decodedMethod": null,
                    "errorInfo": "",
                    "fromAddress": "",
                    "gasUsed": 0,
                    "id": -1,
                    "methodDecoded": false,
                    "operation": "",
                    "output": "",
                    "revert": false,
                    "revertMessage": "",
                    "selector": "",
                    "status": false,
                    "value": ""
                },
                "nodeType": 0
            },
            "0": {
                "invocation": {
                    "address": "0x763ac0a5a2fc863f2e73e2b6ecb0fd07f1357039",
                    "callData": "0x000000000000000000000000012efe704d9c189d4e27bf21c6c07e7a076efdcc00000000000000000000000000000000000000000000000000000000004c4b40",
                    "decodedMethod": {
                        "callParams": [
                            {
                                "name": "recipient",
                                "type": "address",
                                "value": "0x012efe704d9c189d4e27bf21c6c07e7a076efdcc"
                            },
                            {
                                "decimalAvailable": true,
                                "name": "amount",
                                "type": "uint256",
                                "value": "5,000,000"
                            }
                        ],
                        "constructorArguments": "",
                        "name": "transfer",
                        "returnParams": [
                            {
                                "name": "",
                                "type": "bool",
                                "value": true
                            }
                        ],
                        "signature": "transfer(address,uint256)"
                    },
                    "errorInfo": "",
                    "fromAddress": "0x6fc911d219895e4281b6d5743a539b73cbc9db78",
                    "gasUsed": 36252,
                    "id": 0,
                    "methodDecoded": true,
                    "operation": "CALL",
                    "output": "0x0000000000000000000000000000000000000000000000000000000000000001",
                    "revert": false,
                    "revertMessage": "",
                    "selector": "0xa9059cbb",
                    "status": true,
                    "value": "0"
                },
                "nodeType": 0
            },
            "1": {
                "event": {
                    "contract": "0x763ac0a5a2fc863f2e73e2b6ecb0fd07f1357039",
                    "decodedLog": {
                        "name": "Transfer",
                        "params": [
                            {
                                "name": "from",
                                "type": "address",
                                "value": "0x6fc911d219895e4281b6d5743a539b73cbc9db78"
                            },
                            {
                                "name": "to",
                                "type": "address",
                                "value": "0x012efe704d9c189d4e27bf21c6c07e7a076efdcc"
                            },
                            {
                                "decimalAvailable": true,
                                "name": "value",
                                "type": "uint256",
                                "value": "5,000,000"
                            }
                        ],
                        "signature": "Transfer(address,address,uint256)"
                    },
                    "id": 1,
                    "logData": "0x00000000000000000000000000000000000000000000000000000000004c4b40",
                    "logDecoded": true,
                    "operation": "EVENT",
                    "revert": false,
                    "status": true,
                    "topics": [
                        "0xddf252ad1be2c89b69c2b068fc378daa952ba7f163c4a11628f55a4df523b3ef",
                        "0x0000000000000000000000006fc911d219895e4281b6d5743a539b73cbc9db78",
                        "0x000000000000000000000000012efe704d9c189d4e27bf21c6c07e7a076efdcc"
                    ]
                },
                "nodeType": 1
            }
        },
        "gasFlame": [
            {
                "children": [
                    {
                        "children": [
                            {
                                "children": [],
                                "depth": 0,
                                "name": "Initial Gas",
                                "value": 23000
                            },
                            {
                                "children": [],
                                "depth": 0,
                                "name": "Executed Gas",
                                "value": 13252
                            }
                        ],
                        "depth": -1,
                        "name": "Actual Gas Used",
                        "value": 36252
                    },
                    {
                        "children": [],
                        "depth": -1,
                        "name": "Refunded Gas",
                        "value": 0
                    }
                ],
                "depth": -2,
                "name": "Total Gas",
                "value": 36252
            }
        ],
        "isConfirmed": true,
        "mainTrace": [
            {
                "children": [
                    {
                        "children": [
                            {
                                "children": [],
                                "depth": 1,
                                "id": 1,
                                "order": 1
                            }
                        ],
                        "depth": 0,
                        "id": 0,
                        "order": 0
                    }
                ],
                "depth": -1,
                "id": -1,
                "order": -1
            }
        ],
        "mainTraceNodeCount": 2,
        "parentIdMap": {
            "0": -1,
            "1": 0
        },
        "tidyTrace": [
            {
                "children": [
                    {
                        "children": [
                            {
                                "children": [],
                                "depth": 1,
                                "id": 1,
                                "order": 1
                            }
                        ],
                        "depth": 0,
                        "id": 0,
                        "order": 0
                    }
                ],
                "depth": -1,
                "id": -1,
                "order": -1
            }
        ],
        "tidyTraceNodeCount": 2
    },
    "state_change": {
        "stateChanges": [
            {
                "address": "0x763ac0a5a2fc863f2e73e2b6ecb0fd07f1357039",
                "erc": "",
                "slots": [
                    {
                        "current": "0x00000000000000000000000000000000000000000000000000000000188724f0",
                        "key": "0x92b9ea59a0b0c34c65d29d275cca7e0d7979c4a4ce1fa3e76b5d0aafdb5eeb97",
                        "prev": "0x0000000000000000000000000000000000000000000000000000000018d37030"
                    },
                    {
                        "current": "0x00000000000000000000000000000000000000000000000000000000005b8d80",
                        "key": "0xc4433d3da7786516ac845390809f0473d30a7be15dcacb6771ecc888c878c218",
                        "prev": "0x00000000000000000000000000000000000000000000000000000000000f4240"
                    }
                ],
                "storageVariables": []
            }
        ]
    }
}