{
    "balance_change": {
        "balanceChanges": [
            {
                "account": "0x2e5a55d661d8fa14d6156df0dd86b48f01eefa44",
                "assets": [
                    {
                        "address": "0xedc502b12ced7e16ce21749e7161f9ed22bfca53",
                        "amount": "5",
                        "iconUrl": "",
                        "isERC1155": false,
                        "isERC721": false,
                        "sign": false,
                        "value": ""
                    }
                ]
            },
            {
                "account": "0x4356523e7a125ac9ad0f179aeba85e58d1644f4c",
                "assets": [
                    {
                        "address": "0xedc502b12ced7e16ce21749e7161f9ed22bfca53",
                        "amount": "5",
                        "iconUrl": "",
                        "isERC1155": false,
                        "isERC721": false,
                        "sign": true,
                        "value": ""
                    }
                ]
            }
        ]
    },
    "profile": {
        "basic_info": {
            "baseFee": "",
            "blockNumber": 5900982,
            "callData": "0xa9059cbb0000000000000000000000004356523e7a125ac9ad0f179aeba85e58d1644f4c000000000000000000000000000000000000000000000000000000000000c350",
            "debugEnable": true,
            "errorInfo": "",
            "eventCount": 1,
            "feeRecipient": "0xea674fdde714fd979de3edf0f56aa9716b898ec8",
            "formatValue": "0",
            "gasLimit": 80000,
            "gasPrice": "62",
            "gasUsed": 51225,
            "intTxnCount": 0,
            "internalRevert": false,
            "internalRevertMessage": "",
            "isContractCreation": false,
            "isFlashloan": false,
            "maxFee": "",
            "nonce": 916,
            "overwritedBlockNumber": -1,
            "priorityFee": "",
            "receiver": "0xedc502b12ced7e16ce21749e7161f9ed22bfca53",
            "revertMessage": "",
            "sender": "0x2e5a55d661d8fa14d6156df0dd86b48f01eefa44",
            "simulationEnable": true,
            "sourceTxnHash": "0xc53e81234fa44bbd0495df43eee496da9b81beb8b53375ab3df4dec2b50ab807",
            "status": true,
            "timestamp": "2018-07-03T23:36:15Z",
            "transactionFee": "0.00317595",
            "txnHash": "0xc53e81234fa44bbd0495df43eee496da9b81beb8b53375ab3df4dec2b50ab807",
            "txnIndex": 44,
            "type": 0,
            "value": "0"
        },
        "fund_flow": [
            {
                "amount": "5",
                "from": "0x2e5a55d661d8fa14d6156df0dd86b48f01eefa44",
                "id": 1,
                "isERC1155": false,
                "isERC721": false,
                "isReverted": false,
                "order": 1,
                "to": "0x4356523e7a125ac9ad0f179aeba85e58d1644f4c",
                "token": "0xedc502b12ced7e16ce21749e7161f9ed22bfca53"
            }
        ],
        "token_infos": [
            {
                "address": "0xc02aaa39b223fe8d0a0e5c4f27ead9083c756cc2",
                "decimals": 18
            },
            {
                "address": "0xedc502b12ced7e16ce21749e7161f9ed22bfca53",
                "decimals": 4
            },
            {
                "address": "0xeeeeeeeeeeeeeeeeeeeeeeeeeeeeeeeeeeeeeeee",
                "decimals": 18
            }
        ]
    },
    "address_label": {
        "labels": [
            {
                "address": "0xeeeeeeeeeeeeeeeeeeeeeeeeeeeeeeeeeeeeeeee",
                "label": "Ether"
            },
            {
                "address": "0xedc502b12ced7e16ce21749e7161f9ed22bfca53",
                "label": "Intelligent Commerce Chain (ICC)"
            },
            {
                "address": "0x0000000000000000000000000000000000000001",
                "label": "Precompiled"
            },
            {
                "address": "0x0000000000000000000000000000000000000002",
                "label": "Precompiled"
            },
            {
                "address": "0x0000000000000000000000000000000000000003",
                "label": "Precompiled"
            },
            {
                "address": "0x0000000000000000000000000000000000000004",
                "label": "Precompiled"
            }
        ]
    },
    "trace": {
        "accountLabels": null,
        "dataMap": {
            "-1": {
                "invocation": {
                    "address": "0x2e5a55d661d8fa14d6156df0dd86b48f01eefa44",
                    "callData": "",
                    "decodedMethod": null,
                    "errorInfo": "",
                    "fromAddress": "",
                    "gasUsed": 0,
                    "id": -1,
                    "methodDecoded": false,
                    "operation": "",
                    "output": "",
                    "revert": false,
                    "revertMessage": "",
                    "selector": "",
                    "status": false,
                    "value": ""
                },
                "nodeType": 0
            },
            "0": {
                "invocation": {
                    "address": "0xedc502b12ced7e16ce21749e7161f9ed22bfca53",
                    "callData": "0x0000000000000000000000004356523e7a125ac9ad0f179aeba85e58d1644f4c000000000000000000000000000000000000000000000000000000000000c350",
                    "decodedMethod": {
                        "callParams": [
                            {
                                "name": "_to",
                                "type": "address",
                                "value": "0x4356523e7a125ac9ad0f179aeba85e58d1644f4c"
                            },
                            {
                                "decimalAvailable": true,
                                "name": "_value",
                                "type": "uint256",
                                "value": "50,000"
                            }
                        ],
                        "constructorArguments": "",
                        "name": "transfer",
                        "returnParams": [
                            {
                                "name": "success",
                                "type": "bool",
                                "value": true
                            }
                        ],
                        "signature": "transfer(address,uint256)"
                    },
                    "errorInfo": "",
                    "fromAddress": "0x2e5a55d661d8fa14d6156df0dd86b48f01eefa44",
                    "gasUsed": 51225,
                    "id": 0,
                    "methodDecoded": true,
                    "operation": "CALL",
                    "output": "0x0000000000000000000000000000000000000000000000000000000000000001",
                    "revert": false,
                    "revertMessage": "",
                    "selector": "0xa9059cbb",
                    "status": true,
                    "value": "0"
                },
                "nodeType": 0
            },
            "1": {
                "event": {
                    "contract": "0xedc502b12ced7e16ce21749e7161f9ed22bfca53",
                    "decodedLog": {
                        "name": "Transfer",
                        "params": [
                            {
                                "name": "_from",
                                "type": "address",
                                "value": "0x2e5a55d661d8fa14d6156df0dd86b48f01eefa44"
                            },
                            {
                                "name": "_to",
                                "type": "address",
                                "value": "0x4356523e7a125ac9ad0f179aeba85e58d1644f4c"
                            },
                            {
                                "decimalAvailable": true,
                                "name": "_value",
                                "type": "uint256",
                                "value": "50,000"
                            }
                        ],
                        "signature": "Transfer(address,address,uint256)"
                    },
                    "id": 1,
                    "logData": "0x000000000000000000000000000000000000000000000000000000000000c350",
                    "logDecoded": true,
                    "operation": "EVENT",
                    "revert": false,
                    "status": true,
                    "topics": [
                        "0xddf252ad1be2c89b69c2b068fc378daa952ba7f163c4a11628f55a4df523b3ef",
                        "0x0000000000000000000000002e5a55d661d8fa14d6156df0dd86b48f01eefa44",
                        "0x0000000000000000000000004356523e7a125ac9ad0f179aeba85e58d1644f4c"
                    ]
                },
                "nodeType": 1
            }
        },
        "gasFlame": [
            {
                "children": [
                    {
                        "children": [
                            {
                                "children": [],
                                "depth": 0,
                                "name": "Initial Gas",
                                "value": 22936
                            },
                            {
                                "children": [],
                                "depth": 0,
                                "name": "Executed Gas",
                                "value": 28289
                            }
                        ],
                        "depth": -1,
                        "name": "Actual Gas Used",
                        "value": 51225
                    },
                    {
                        "children": [],
                        "depth": -1,
                        "name": "Refunded Gas",
                        "value": 0
                    }
                ],
                "depth": -2,
                "name": "Total Gas",
                "value": 51225
            }
        ],
        "isConfirmed": true,
        "mainTrace": [
            {
                "children": [
                    {
                        "children": [
                            {
                                "children": [],
                                "depth": 1,
                                "id": 1,
                                "order": 1
                            }
                        ],
                        "depth": 0,
                        "id": 0,
                        "order": 0
                    }
                ],
                "depth": -1,
                "id": -1,
                "order": -1
            }
        ],
        "mainTraceNodeCount": 2,
        "parentIdMap": {
            "0": -1,
            "1": 0
        },
        "tidyTrace": [
            {
                "children": [
                    {
                        "children": [
                            {
                                "children": [],
                                "depth": 1,
                                "id": 1,
                                "order": 1
                            }
                        ],
                        "depth": 0,
                        "id": 0,
                        "order": 0
                    }
                ],
                "depth": -1,
                "id": -1,
                "order": -1
            }
        ],
        "tidyTraceNodeCount": 2
    },
    "state_change": {
        "stateChanges": [
            {
                "address": "0xedc502b12ced7e16ce21749e7161f9ed22bfca53",
                "erc": "ERC-20",
                "slots": [
                    {
                        "current": "0x000000000000000000000000000000000000000000000000000000000000c350",
                        "key": "0xe61317cf1b78146600132f07f876a78cdf33b6568ec90c13ffe389e634c9abbf",
                        "prev": "0x0000000000000000000000000000000000000000000000000000000000000000"
                    },
                    {
                        "current": "0x0000000000000000000000000000000000000000000000000000000009302470",
                        "key": "0x8c1243f6f806d18d1fbb19abc55fd746d76a5a39c2a4689786724899e94ef99b",
                        "prev": "0x000000000000000000000000000000000000000000000000000000000930e7c0"
                    }
                ],
                "storageVariables": []
            }
        ]
    }
}