{
    "balance_change": {
        "balanceChanges": []
    },
    "profile": {
        "basic_info": {
            "baseFee": "",
            "blockNumber": 9255615,
            "callData": "0x68c180d50000000000000000000000000000000000000000000000000000000000000060000000000000000000000000000000000000000000000000000000000000003200000000000000000000000000000000000000000000000000000000002b55c000000000000000000000000000000000000000000000000000000000000000133737373439323135383338363238373231383200000000000000000000000000",
            "debugEnable": true,
            "errorInfo": "",
            "eventCount": 1,
            "feeRecipient": "0xea674fdde714fd979de3edf0f56aa9716b898ec8",
            "formatValue": "0",
            "gasLimit": 1500000,
            "gasPrice": "10",
            "gasUsed": 82056,
            "intTxnCount": 4,
            "internalRevert": false,
            "internalRevertMessage": "",
            "isContractCreation": false,
            "isFlashloan": false,
            "maxFee": "",
            "nonce": 3642,
            "overwritedBlockNumber": -1,
            "priorityFee": "",
            "receiver": "0x0ba45a8b5d5575935b8158a88c631e9f9c95a2e5",
            "revertMessage": "",
            "sender": "0x6e25dc3d3f87e9b35222313aff710784835b9d45",
            "simulationEnable": true,
            "sourceTxnHash": "0xc57640d5eb52d982de6dd52b64233d06d48fda9a45997a150693d9cc6b147d3a",
            "status": true,
            "timestamp": "2020-01-10T21:47:53Z",
            "transactionFee": "0.00082056",
            "txnHash": "0xc57640d5eb52d982de6dd52b64233d06d48fda9a45997a150693d9cc6b147d3a",
            "txnIndex": 44,
            "type": 0,
            "value": "0"
        },
        "fund_flow": [],
        "token_infos": [
            {
                "address": "0xc02aaa39b223fe8d0a0e5c4f27ead9083c756cc2",
                "decimals": 18
            },
            {
                "address": "0xeeeeeeeeeeeeeeeeeeeeeeeeeeeeeeeeeeeeeeee",
                "decimals": 18
            }
        ]
    },
    "address_label": {
        "labels": [
            {
                "address": "0xeeeeeeeeeeeeeeeeeeeeeeeeeeeeeeeeeeeeeeee",
                "label": "Ether"
            },
            {
                "address": "0x0000000000000000000000000000000000000002",
                "label": "Precompiled"
            },
            {
                "address": "0x0000000000000000000000000000000000000003",
                "label": "Precompiled"
            },
            {
                "address": "0x0ba45a8b5d5575935b8158a88c631e9f9c95a2e5",
                "label": "Tellor: TRB Token"
            },
            {
                "address": "0x981b73f65c5f9abb6da88ae2bb0a536d85c486b7",
                "label": "Tellor"
            },
            {
                "address": "0x0000000000000000000000000000000000000001",
                "label": "Precompiled"
            },
            {
                "address": "0x0000000000000000000000000000000000000004",
                "label": "Precompiled"
            }
        ]
    },
    "trace": {
        "accountLabels": null,
        "dataMap": {
            "-1": {
                "invocation": {
                    "address": "0x6e25dc3d3f87e9b35222313aff710784835b9d45",
                    "callData": "",
                    "decodedMethod": null,
                    "errorInfo": "",
                    "fromAddress": "",
                    "gasUsed": 0,
                    "id": -1,
                    "methodDecoded": false,
                    "operation": "",
                    "output": "",
                    "revert": false,
                    "revertMessage": "",
                    "selector": "",
                    "status": false,
                    "value": ""
                },
                "nodeType": 0
            },
            "0": {
                "invocation": {
                    "address": "0x0ba45a8b5d5575935b8158a88c631e9f9c95a2e5",
                    "callData": "0x0000000000000000000000000000000000000000000000000000000000000060000000000000000000000000000000000000000000000000000000000000003200000000000000000000000000000000000000000000000000000000002b55c000000000000000000000000000000000000000000000000000000000000000133737373439323135383338363238373231383200000000000000000000000000",
                    "decodedMethod": {
                        "callParams": [
                            {
                                "name": "_nonce",
                                "type": "string",
                                "value": "7774921583862872182"
                            },
                            {
                                "name": "_requestId",
                                "type": "uint256",
                                "value": "50"
                            },
                            {
                                "name": "_value",
                                "type": "uint256",
                                "value": "2,840,000"
                            }
                        ],
                        "constructorArguments": "",
                        "name": "submitMiningSolution",
                        "returnParams": [],
                        "signature": "submitMiningSolution(string,uint256,uint256)"
                    },
                    "errorInfo": "",
                    "fromAddress": "0x6e25dc3d3f87e9b35222313aff710784835b9d45",
                    "gasUsed": 82056,
                    "id": 0,
                    "methodDecoded": true,
                    "operation": "CALL",
                    "output": "",
                    "revert": false,
                    "revertMessage": "",
                    "selector": "0x68c180d5",
                    "status": true,
                    "value": "0"
                },
                "nodeType": 0
            },
            "1": {
                "invocation": {
                    "address": "0x981b73f65c5f9abb6da88ae2bb0a536d85c486b7",
                    "callData": "0x0000000000000000000000000000000000000000000000000000000000000060000000000000000000000000000000000000000000000000000000000000003200000000000000000000000000000000000000000000000000000000002b55c000000000000000000000000000000000000000000000000000000000000000133737373439323135383338363238373231383200000000000000000000000000",
                    "decodedMethod": {
                        "callParams": [
                            {
                                "name": "_nonce",
                                "type": "string",
                                "value": "7774921583862872182"
                            },
                            {
                                "name": "_requestId",
                                "type": "uint256",
                                "value": "50"
                            },
                            {
                                "name": "_value",
                                "type": "uint256",
                                "value": "2,840,000"
                            }
                        ],
                        "constructorArguments": "",
                        "name": "submitMiningSolution",
                        "returnParams": [],
                        "signature": "submitMiningSolution(string,uint256,uint256)"
                    },
                    "errorInfo": "",
                    "fromAddress": "0x0ba45a8b5d5575935b8158a88c631e9f9c95a2e5",
                    "gasUsed": 57787,
                    "id": 1,
                    "methodDecoded": true,
                    "operation": "DELEGATECALL",
                    "output": "",
                    "revert": false,
                    "revertMessage": "",
                    "selector": "0x68c180d5",
                    "status": true,
                    "value": "0"
                },
                "nodeType": 0
            },
            "2": {
                "invocation": {
                    "address": "0xc558386c58fefa0d1f1f7af2129b33ce05f001cd",
                    "callData": "0x00000000000000000000000000000000000000000000000000000000000000000000000000000000000000000000000000000000000000000000000000000080000000000000000000000000000000000000000000000000000000000000003200000000000000000000000000000000000000000000000000000000002b55c000000000000000000000000000000000000000000000000000000000000000133737373439323135383338363238373231383200000000000000000000000000",
                    "decodedMethod": null,
                    "errorInfo": "",
                    "fromAddress": "0x0ba45a8b5d5575935b8158a88c631e9f9c95a2e5",
                    "gasUsed": 55547,
                    "id": 2,
                    "methodDecoded": false,
                    "operation": "DELEGATECALL",
                    "output": "",
                    "revert": false,
                    "revertMessage": "",
                    "selector": "0xa098b5b4",
                    "status": true,
                    "value": "0"
                },
                "nodeType": 0
            },
            "3": {
                "invocation": {
                    "address": "0x0000000000000000000000000000000000000003",
                    "callData": "0xb58a4c9f974e2d10b96043f80d60dfeb8d6bd59d35d40e04864d77b1",
                    "decodedMethod": {
                        "callParams": [
                            {
                                "name": "data",
                                "type": "bytes",
                                "value": "0x28051691b58a4c9f974e2d10b96043f80d60dfeb8d6bd59d35d40e04864d77b1"
                            }
                        ],
                        "constructorArguments": "",
                        "name": "ripemd160hash()",
                        "returnParams": [
                            {
                                "name": "hash",
                                "type": "bytes32",
                                "value": "0x000000000000000000000000ddd43aca11ad2452c5396c709c9825f5336e4f88"
                            }
                        ],
                        "signature": "ripemd160hash(bytes)"
                    },
                    "errorInfo": "",
                    "fromAddress": "0x0ba45a8b5d5575935b8158a88c631e9f9c95a2e5",
                    "gasUsed": 720,
                    "id": 3,
                    "methodDecoded": true,
                    "operation": "STATICCALL",
                    "output": "0x000000000000000000000000ddd43aca11ad2452c5396c709c9825f5336e4f88",
                    "revert": false,
                    "revertMessage": "",
                    "selector": "0x28051691",
                    "status": true,
                    "value": "0"
                },
                "nodeType": 0
            },
            "4": {
                "invocation": {
                    "address": "0x0000000000000000000000000000000000000002",
                    "callData": "0x11ad2452c5396c709c9825f5336e4f88",
                    "decodedMethod": {
                        "callParams": [
                            {
                                "name": "data",
                                "type": "bytes",
                                "value": "0xddd43aca11ad2452c5396c709c9825f5336e4f88"
                            }
                        ],
                        "constructorArguments": "",
                        "name": "sha256hash",
                        "returnParams": [
                            {
                                "name": "hash",
                                "type": "bytes32",
                                "value": "0x60acdf7b74bfc53ff9609329331f9d4535baf859389657bf5db2f3a1069c20a8"
                            }
                        ],
                        "signature": "sha256hash(bytes)"
                    },
                    "errorInfo": "",
                    "fromAddress": "0x0ba45a8b5d5575935b8158a88c631e9f9c95a2e5",
                    "gasUsed": 72,
                    "id": 4,
                    "methodDecoded": true,
                    "operation": "STATICCALL",
                    "output": "0x60acdf7b74bfc53ff9609329331f9d4535baf859389657bf5db2f3a1069c20a8",
                    "revert": false,
                    "revertMessage": "",
                    "selector": "0xddd43aca",
                    "status": true,
                    "value": "0"
                },
                "nodeType": 0
            },
            "5": {
                "event": {
                    "contract": "0x0ba45a8b5d5575935b8158a88c631e9f9c95a2e5",
                    "decodedLog": null,
                    "id": 5,
                    "logData": "0x000000000000000000000000000000000000000000000000000000000000006000000000000000000000000000000000000000000000000000000000002b55c030a98fbf435bde407e437d30c29044fad5e987dd75791e74c4947fdb3224547300000000000000000000000000000000000000000000000000000000000000133737373439323135383338363238373231383200000000000000000000000000",
                    "logDecoded": false,
                    "operation": "EVENT",
                    "revert": false,
                    "status": true,
                    "topics": [
                        "0xe6d63a2aee0aaed2ab49702313ce54114f2145af219d7db30d6624af9e6dffc4",
                        "0x0000000000000000000000006e25dc3d3f87e9b35222313aff710784835b9d45",
                        "0x0000000000000000000000000000000000000000000000000000000000000032"
                    ]
                },
                "nodeType": 1
            }
        },
        "gasFlame": [
            {
                "children": [
                    {
                        "children": [
                            {
                                "children": [],
                                "depth": 0,
                                "name": "Initial Gas",
                                "value": 22004
                            },
                            {
                                "children": [
                                    {
                                        "children": [
                                            {
                                                "children": [
                                                    {
                                                        "children": [],
                                                        "depth": 3,
                                                        "name": "ripemd160hash()",
                                                        "value": 720
                                                    },
                                                    {
                                                        "children": [],
                                                        "depth": 3,
                                                        "name": "sha256hash",
                                                        "value": 72
                                                    }
                                                ],
                                                "depth": 2,
                                                "name": "0xa098b5b4",
                                                "value": 55547
                                            }
                                        ],
                                        "depth": 1,
                                        "name": "submitMiningSolution",
                                        "value": 57787
                                    }
                                ],
                                "depth": 0,
                                "name": "Executed Gas",
                                "value": 60052
                            }
                        ],
                        "depth": -1,
                        "name": "Actual Gas Used",
                        "value": 82056
                    },
                    {
                        "children": [],
                        "depth": -1,
                        "name": "Refunded Gas",
                        "value": 0
                    }
                ],
                "depth": -2,
                "name": "Total Gas",
                "value": 82056
            }
        ],
        "isConfirmed": true,
        "mainTrace": [
            {
                "children": [
                    {
                        "children": [
                            {
                                "children": [
                                    {
                                        "children": [
                                            {
                                                "children": [],
                                                "depth": 3,
                                                "id": 3,
                                                "order": 3
                                            },
                                            {
                                                "children": [],
                                                "depth": 3,
                                                "id": 4,
                                                "order": 4
                                            },
                                            {
                                                "children": [],
                                                "depth": 3,
                                                "id": 5,
                                                "order": 5
                                            }
                                        ],
                                        "depth": 2,
                                        "id": 2,
                                        "order": 2
                                    }
                                ],
                                "depth": 1,
                                "id": 1,
                                "order": 1
                            }
                        ],
                        "depth": 0,
                        "id": 0,
                        "order": 0
                    }
                ],
                "depth": -1,
                "id": -1,
                "order": -1
            }
        ],
        "mainTraceNodeCount": 6,
        "parentIdMap": {
            "0": -1,
            "1": 0,
            "2": 1,
            "3": 2,
            "4": 2,
            "5": 2
        },
        "tidyTrace": [
            {
                "children": [
                    {
                        "children": [
                            {
                                "children": [
                                    {
                                        "children": [
                                            {
                                                "children": [],
                                                "depth": 3,
                                                "id": 5,
                                                "order": 5
                                            }
                                        ],
                                        "depth": 2,
                                        "id": 2,
                                        "order": 2
                                    }
                                ],
                                "depth": 1,
                                "id": 1,
                                "order": 1
                            }
                        ],
                        "depth": 0,
                        "id": 0,
                        "order": 0
                    }
                ],
                "depth": -1,
                "id": -1,
                "order": -1
            }
        ],
        "tidyTraceNodeCount": 4
    },
    "state_change": {
        "stateChanges": [
            {
                "address": "0x0ba45a8b5d5575935b8158a88c631e9f9c95a2e5",
                "erc": "",
                "slots": [
                    {
                        "current": "0x0000000000000000000000006e25dc3d3f87e9b35222313aff710784835b9d45",
                        "key": "0x000000000000000000000000000000000000000000000000000000000000003a",
                        "prev": "0x000000000000000000000000b06377592fe3bf6fe97b355f2fea09593534f114"
                    },
                    {
                        "current": "0x0000000000000000000000000000000000000000000000000000000000000003",
                        "key": "0xae9d04a107842f0c88bef7042729e240fd970f1c3d65293b54b38a77c750269a",
                        "prev": "0x0000000000000000000000000000000000000000000000000000000000000002"
                    },
                    {
                        "current": "0x0000000000000000000000000000000000000000000000000000000000000001",
                        "key": "0x264f37c616c7b653c07228b675a97fdcb76ac5732a5a625e19aa83762d64f2ee",
                        "prev": "0x0000000000000000000000000000000000000000000000000000000000000000"
                    },
                    {
                        "current": "0x00000000000000000000000000000000000000000000000000000000002b55c0",
                        "key": "0x0000000000000000000000000000000000000000000000000000000000000039",
                        "prev": "0x00000000000000000000000000000000000000000000000000000000002bcaf0"
                    }
                ],
                "storageVariables": [
                    {
                        "name": "tellor",
                        "type": "struct TellorStorage.TellorStorageStruct",
                        "value": {
                            "fields": [
                                {
                                    "name": "currentMiners",
                                    "type": "struct TellorStorage.Details[5]",
                                    "value": {
                                        "elemType": "struct TellorStorage.Details",
                                        "elems": [
                                            {
                                                "index": 2,
                                                "value": {
                                                    "fields": [
                                                        {
                                                            "name": "value",
                                                            "type": "uint256",
                                                            "value": {
                                                                "current": "2840000",
                                                                "prev": "2870000",
                                                                "typeTag": 1
                                                            }
                                                        },
                                                        {
                                                            "name": "miner",
                                                            "type": "address",
                                                            "value": {
                                                                "current": "0x6e25dc3d3f87e9b35222313aff710784835b9d45",
                                                                "prev": "0xb06377592fe3bf6fe97b355f2fea09593534f114",
                                                                "typeTag": 1
                                                            }
                                                        }
                                                    ],
                                                    "typeTag": 3
                                                }
                                            }
                                        ],
                                        "typeTag": 2
                                    }
                                },
                                {
                                    "name": "uintVars",
                                    "type": "mapping(bytes32 => uint256)",
                                    "value": {
                                        "pairs": [
                                            {
                                                "key": "0x6c505cb2db6644f57b42d87bd9407b0f66788b07d0617a2bc1356a0e69e66f9a",
                                                "value": {
                                                    "current": "3",
                                                    "prev": "2",
                                                    "typeTag": 1
                                                }
                                            }
                                        ],
                                        "typeTag": 4
                                    }
                                },
                                {
                                    "name": "minersByChallenge",
                                    "type": "mapping(bytes32 => mapping(address => bool))",
                                    "value": {
                                        "pairs": [
                                            {
                                                "key": "0x30a98fbf435bde407e437d30c29044fad5e987dd75791e74c4947fdb32245473",
                                                "value": {
                                                    "pairs": [
                                                        {
                                                            "key": "0x6e25dc3d3f87e9b35222313aff710784835b9d45",
                                                            "value": {
                                                                "current": "true",
                                                                "prev": "false",
                                                                "typeTag": 1
                                                            }
                                                        }
                                                    ],
                                                    "typeTag": 4
                                                }
                                            }
                                        ],
                                        "typeTag": 4
                                    }
                                }
                            ],
                            "typeTag": 3
                        }
                    }
                ]
            }
        ]
    }
}