{
    "balance_change": {
        "balanceChanges": [
            {
                "account": "0x8f1f5966d29bcd43efdbdb859a22e7e4d9621f95",
                "assets": [
                    {
                        "address": "0xeeeeeeeeeeeeeeeeeeeeeeeeeeeeeeeeeeeeeeee",
                        "amount": "0.05",
                        "iconUrl": "https://assets.blocksec.com/image/1663669189317-3.png",
                        "isERC1155": false,
                        "isERC721": false,
                        "sign": false,
                        "value": ""
                    }
                ]
            },
            {
                "account": "0xd1ceeeeee83f8bcf3bedad437202b6154e9f5405",
                "assets": [
                    {
                        "address": "0xeeeeeeeeeeeeeeeeeeeeeeeeeeeeeeeeeeeeeeee",
                        "amount": "0.05",
                        "iconUrl": "https://assets.blocksec.com/image/1663669189317-3.png",
                        "isERC1155": false,
                        "isERC721": false,
                        "sign": true,
                        "value": ""
                    }
                ]
            }
        ]
    },
    "profile": {
        "basic_info": {
            "baseFee": "",
            "blockNumber": 8382229,
            "callData": "0x5e83b4630000000000000000000000000000000000000000000000000000000000000002000000000000000000000000000000000000000000000000000000000000000200000000000000000000000000000000000000000000000000000000007fe7dab732ace1934f9e858ffcd3ae088443fbdd6ee72c9e9d88fc53eedf3ee6f1f433b54b3c9610e5c7abef7de9bd20ff77d651a1e97c4cab31a7648ceaa44f10570a0e015c62757fa75ea5a3ff3b673ef1275527764c6541779afead4687e59992f2",
            "debugEnable": true,
            "errorInfo": "",
            "eventCount": 1,
            "feeRecipient": "0xb2930b35844a230f00e51431acae96fe543a0347",
            "formatValue": "0.05",
            "gasLimit": 150000,
            "gasPrice": "8",
            "gasUsed": 82142,
            "intTxnCount": 1,
            "internalRevert": false,
            "internalRevertMessage": "",
            "isContractCreation": false,
            "isFlashloan": false,
            "maxFee": "",
            "nonce": 512,
            "overwritedBlockNumber": -1,
            "priorityFee": "",
            "receiver": "0xd1ceeeeee83f8bcf3bedad437202b6154e9f5405",
            "revertMessage": "",
            "sender": "0x8f1f5966d29bcd43efdbdb859a22e7e4d9621f95",
            "simulationEnable": true,
            "sourceTxnHash": "0xc54c19440aae3258e768cab23856302f314f22348c120759cbffe89c554a637c",
            "status": true,
            "timestamp": "2019-08-19T17:42:40Z",
            "transactionFee": "0.000657136",
            "txnHash": "0xc54c19440aae3258e768cab23856302f314f22348c120759cbffe89c554a637c",
            "txnIndex": 10,
            "type": 0,
            "value": "50000000000000000"
        },
        "fund_flow": [
            {
                "amount": "0.05",
                "from": "0x8f1f5966d29bcd43efdbdb859a22e7e4d9621f95",
                "id": 1,
                "isERC1155": false,
                "isERC721": false,
                "isReverted": false,
                "order": 1,
                "to": "0xd1ceeeeee83f8bcf3bedad437202b6154e9f5405",
                "token": "0xeeeeeeeeeeeeeeeeeeeeeeeeeeeeeeeeeeeeeeee"
            }
        ],
        "token_infos": [
            {
                "address": "0xc02aaa39b223fe8d0a0e5c4f27ead9083c756cc2",
                "decimals": 18
            },
            {
                "address": "0xeeeeeeeeeeeeeeeeeeeeeeeeeeeeeeeeeeeeeeee",
                "decimals": 18
            }
        ]
    },
    "address_label": {
        "labels": [
            {
                "address": "0x0000000000000000000000000000000000000004",
                "label": "Precompiled"
            },
            {
                "address": "0xeeeeeeeeeeeeeeeeeeeeeeeeeeeeeeeeeeeeeeee",
                "label": "Ether"
            },
            {
                "address": "0xd1ceeeeee83f8bcf3bedad437202b6154e9f5405",
                "label": "Dice2Win"
            },
            {
                "address": "0x0000000000000000000000000000000000000001",
                "label": "Precompiled"
            },
            {
                "address": "0x0000000000000000000000000000000000000002",
                "label": "Precompiled"
            },
            {
                "address": "0x0000000000000000000000000000000000000003",
                "label": "Precompiled"
            }
        ]
    },
    "trace": {
        "accountLabels": null,
        "dataMap": {
            "-1": {
                "invocation": {
                    "address": "0x8f1f5966d29bcd43efdbdb859a22e7e4d9621f95",
                    "callData": "",
                    "decodedMethod": null,
                    "errorInfo": "",
                    "fromAddress": "",
                    "gasUsed": 0,
                    "id": -1,
                    "methodDecoded": false,
                    "operation": "",
                    "output": "",
                    "revert": false,
                    "revertMessage": "",
                    "selector": "",
                    "status": false,
                    "value": ""
                },
                "nodeType": 0
            },
            "0": {
                "invocation": {
                    "address": "0xd1ceeeeee83f8bcf3bedad437202b6154e9f5405",
                    "callData": "0x0000000000000000000000000000000000000000000000000000000000000002000000000000000000000000000000000000000000000000000000000000000200000000000000000000000000000000000000000000000000000000007fe7dab732ace1934f9e858ffcd3ae088443fbdd6ee72c9e9d88fc53eedf3ee6f1f433b54b3c9610e5c7abef7de9bd20ff77d651a1e97c4cab31a7648ceaa44f10570a0e015c62757fa75ea5a3ff3b673ef1275527764c6541779afead4687e59992f2",
                    "decodedMethod": {
                        "callParams": [
                            {
                                "name": "betMask",
                                "type": "uint256",
                                "value": "2"
                            },
                            {
                                "name": "modulo",
                                "type": "uint256",
                                "value": "2"
                            },
                            {
                                "name": "commitLastBlock",
                                "type": "uint256",
                                "value": "8,382,426"
                            },
                            {
                                "name": "commit",
                                "type": "uint256",
                                "value": "82,862,786,825,849,976,699,543,968,559,838,826,679,931,050,301,949,195,292,014,129,865,375,209,354,291"
                            },
                            {
                                "name": "r",
                                "type": "bytes32",
                                "value": "0xb54b3c9610e5c7abef7de9bd20ff77d651a1e97c4cab31a7648ceaa44f10570a"
                            },
                            {
                                "name": "s",
                                "type": "bytes32",
                                "value": "0x0e015c62757fa75ea5a3ff3b673ef1275527764c6541779afead4687e59992f2"
                            }
                        ],
                        "constructorArguments": "",
                        "name": "placeBet",
                        "returnParams": [],
                        "signature": "placeBet(uint256,uint256,uint256,uint256,bytes32,bytes32)"
                    },
                    "errorInfo": "",
                    "fromAddress": "0x8f1f5966d29bcd43efdbdb859a22e7e4d9621f95",
                    "gasUsed": 82142,
                    "id": 0,
                    "methodDecoded": true,
                    "operation": "CALL",
                    "output": "",
                    "revert": false,
                    "revertMessage": "",
                    "selector": "0x5e83b463",
                    "status": true,
                    "value": "0.05"
                },
                "nodeType": 0
            },
            "1": {
                "invocation": {
                    "address": "0x0000000000000000000000000000000000000001",
                    "callData": "0xb4a42a7adb9b5c56111f955af3a3bbc08c050e313261cb590f1534db000000000000000000000000000000000000000000000000000000000000001bb54b3c9610e5c7abef7de9bd20ff77d651a1e97c4cab31a7648ceaa44f10570a0e015c62757fa75ea5a3ff3b673ef1275527764c6541779afead4687e59992f2",
                    "decodedMethod": {
                        "callParams": [
                            {
                                "name": "hash",
                                "type": "bytes32",
                                "value": "0xfdb93babb4a42a7adb9b5c56111f955af3a3bbc08c050e313261cb590f1534db"
                            },
                            {
                                "name": "v",
                                "type": "uint256",
                                "value": "27"
                            },
                            {
                                "name": "r",
                                "type": "bytes32",
                                "value": "0xb54b3c9610e5c7abef7de9bd20ff77d651a1e97c4cab31a7648ceaa44f10570a"
                            },
                            {
                                "name": "s",
                                "type": "bytes32",
                                "value": "0x0e015c62757fa75ea5a3ff3b673ef1275527764c6541779afead4687e59992f2"
                            }
                        ],
                        "constructorArguments": "",
                        "name": "ecrecover",
                        "returnParams": [
                            {
                                "name": "",
                                "type": "address",
                                "value": "0xb00b5ca7ec0502f2f269e99b91ebbccbce9cccec"
                            }
                        ],
                        "signature": "ecrecover(bytes32,uint256,bytes32,bytes32)"
                    },
                    "errorInfo": "",
                    "fromAddress": "0xd1ceeeeee83f8bcf3bedad437202b6154e9f5405",
                    "gasUsed": 3000,
                    "id": 1,
                    "methodDecoded": true,
                    "operation": "CALL",
                    "output": "0x000000000000000000000000b00b5ca7ec0502f2f269e99b91ebbccbce9cccec",
                    "revert": false,
                    "revertMessage": "",
                    "selector": "0xfdb93bab",
                    "status": true,
                    "value": "0"
                },
                "nodeType": 0
            },
            "2": {
                "event": {
                    "contract": "0xd1ceeeeee83f8bcf3bedad437202b6154e9f5405",
                    "decodedLog": {
                        "name": "Commit",
                        "params": [
                            {
                                "name": "commit",
                                "type": "uint256",
                                "value": "82,862,786,825,849,976,699,543,968,559,838,826,679,931,050,301,949,195,292,014,129,865,375,209,354,291"
                            }
                        ],
                        "signature": "Commit(uint256)"
                    },
                    "id": 2,
                    "logData": "0xb732ace1934f9e858ffcd3ae088443fbdd6ee72c9e9d88fc53eedf3ee6f1f433",
                    "logDecoded": true,
                    "operation": "EVENT",
                    "revert": false,
                    "status": true,
                    "topics": [
                        "0x5bdd2fc99022530157777690475b670d3872f32262eb1d47d9ba8000dad58f87"
                    ]
                },
                "nodeType": 1
            }
        },
        "gasFlame": [
            {
                "children": [
                    {
                        "children": [
                            {
                                "children": [],
                                "depth": 0,
                                "name": "Initial Gas",
                                "value": 28504
                            },
                            {
                                "children": [
                                    {
                                        "children": [],
                                        "depth": 1,
                                        "name": "ecrecover",
                                        "value": 3000
                                    }
                                ],
                                "depth": 0,
                                "name": "Executed Gas",
                                "value": 53638
                            }
                        ],
                        "depth": -1,
                        "name": "Actual Gas Used",
                        "value": 82142
                    },
                    {
                        "children": [],
                        "depth": -1,
                        "name": "Refunded Gas",
                        "value": 0
                    }
                ],
                "depth": -2,
                "name": "Total Gas",
                "value": 82142
            }
        ],
        "isConfirmed": true,
        "mainTrace": [
            {
                "children": [
                    {
                        "children": [
                            {
                                "children": [],
                                "depth": 1,
                                "id": 1,
                                "order": 1
                            },
                            {
                                "children": [],
                                "depth": 1,
                                "id": 2,
                                "order": 2
                            }
                        ],
                        "depth": 0,
                        "id": 0,
                        "order": 0
                    }
                ],
                "depth": -1,
                "id": -1,
                "order": -1
            }
        ],
        "mainTraceNodeCount": 3,
        "parentIdMap": {
            "0": -1,
            "1": 0,
            "2": 0
        },
        "tidyTrace": [
            {
                "children": [
                    {
                        "children": [
                            {
                                "children": [],
                                "depth": 1,
                                "id": 1,
                                "order": 1
                            },
                            {
                                "children": [],
                                "depth": 1,
                                "id": 2,
                                "order": 2
                            }
                        ],
                        "depth": 0,
                        "id": 0,
                        "order": 0
                    }
                ],
                "depth": -1,
                "id": -1,
                "order": -1
            }
        ],
        "tidyTraceNodeCount": 3
    },
    "state_change": {
        "stateChanges": [
            {
                "address": "0xd1ceeeeee83f8bcf3bedad437202b6154e9f5405",
                "erc": "",
                "slots": [
                    {
                        "current": "0x000000000000000021e3a512c9b38ec400000000000000000d3d49f20bb90000",
                        "key": "0x0000000000000000000000000000000000000000000000000000000000000004",
                        "prev": "0x00000000000000002083ed1910f00ec400000000000000000d3d49f20bb90000"
                    },
                    {
                        "current": "0x00000000000000000000000000000000000000000000000000b1a2bc2ec50000",
                        "key": "0x1bfa0aad2d6f669e8084db2e9ecb1439c574ac319f69929b17f05a2b182a0b62",
                        "prev": "0x0000000000000000000000000000000000000000000000000000000000000000"
                    },
                    {
                        "current": "0x8f1f5966d29bcd43efdbdb859a22e7e4d9621f95000000000200007fe7150102",
                        "key": "0x1bfa0aad2d6f669e8084db2e9ecb1439c574ac319f69929b17f05a2b182a0b63",
                        "prev": "0x0000000000000000000000000000000000000000000000000000000000000000"
                    }
                ],
                "storageVariables": [
                    {
                        "name": "bets",
                        "type": "mapping(uint256 => struct Dice2Win.Bet)",
                        "value": {
                            "pairs": [
                                {
                                    "key": "82862786825849976699543968559838826679931050301949195292014129865375209354291",
                                    "value": {
                                        "fields": [
                                            {
                                                "name": "amount",
                                                "type": "uint256",
                                                "value": {
                                                    "current": "50000000000000000",
                                                    "prev": "0",
                                                    "typeTag": 1
                                                }
                                            },
                                            {
                                                "name": "modulo",
                                                "type": "uint8",
                                                "value": {
                                                    "current": "2",
                                                    "prev": "0",
                                                    "typeTag": 1
                                                }
                                            },
                                            {
                                                "name": "rollUnder",
                                                "type": "uint8",
                                                "value": {
                                                    "current": "1",
                                                    "prev": "0",
                                                    "typeTag": 1
                                                }
                                            },
                                            {
                                                "name": "placeBlockNumber",
                                                "type": "uint40",
                                                "value": {
                                                    "current": "8382229",
                                                    "prev": "0",
                                                    "typeTag": 1
                                                }
                                            },
                                            {
                                                "name": "mask",
                                                "type": "uint40",
                                                "value": {
                                                    "current": "2",
                                                    "prev": "0",
                                                    "typeTag": 1
                                                }
                                            },
                                            {
                                                "name": "gambler",
                                                "type": "address",
                                                "value": {
                                                    "current": "0x8f1f5966d29bcd43efdbdb859a22e7e4d9621f95",
                                                    "prev": "0x0000000000000000000000000000000000000000",
                                                    "typeTag": 1
                                                }
                                            }
                                        ],
                                        "typeTag": 3
                                    }
                                }
                            ],
                            "typeTag": 4
                        }
                    },
                    {
                        "name": "jackpotSize",
                        "type": "uint128",
                        "value": {
                            "current": "954000000000000000",
                            "prev": "954000000000000000",
                            "typeTag": 1
                        }
                    },
                    {
                        "name": "lockedInBets",
                        "type": "uint128",
                        "value": {
                            "current": "2441976923076923076",
                            "prev": "2342976923076923076",
                            "typeTag": 1
                        }
                    }
                ]
            }
        ]
    }
}