{
    "balance_change": {
        "balanceChanges": []
    },
    "profile": {
        "basic_info": {
            "baseFee": "42.240121709",
            "blockNumber": 18787015,
            "callData": "0x095ea7b30000000000000000000000000439e60f02a8900a951603950d8d4527f400c3f100000000000000000000000000000000000000000000000165a6567a14405000",
            "debugEnable": true,
            "errorInfo": "",
            "eventCount": 1,
            "feeRecipient": "0x4838b106fce9647bdf1e7877bf73ce8b0bad5f97",
            "formatValue": "0",
            "gasLimit": 46055,
            "gasPrice": "42.340121709",
            "gasUsed": 46055,
            "intTxnCount": 0,
            "internalRevert": false,
            "internalRevertMessage": "",
            "isContractCreation": false,
            "isFlashloan": false,
            "maxFee": "56.393164081",
            "nonce": 55,
            "overwritedBlockNumber": -1,
            "priorityFee": "0.1",
            "receiver": "0x455e53cbb86018ac2b8092fdcd39d8444affc3f6",
            "revertMessage": "",
            "sender": "0x9a76e43b062176d40fa6f3e4e7ec000e053412f5",
            "simulationEnable": true,
            "sourceTxnHash": "0xc516521beee3f79b7c3792034f9c4542008e43433ce6a8cbb8f44a0ab9708679",
            "status": true,
            "timestamp": "2023-12-14T21:20:23Z",
            "transactionFee": "0.001949974305307995",
            "txnHash": "0xc516521beee3f79b7c3792034f9c4542008e43433ce6a8cbb8f44a0ab9708679",
            "txnIndex": 215,
            "type": 2,
            "value": "0"
        },
        "fund_flow": [],
        "token_infos": [
            {
                "address": "0xc02aaa39b223fe8d0a0e5c4f27ead9083c756cc2",
                "decimals": 18
            },
            {
                "address": "0xeeeeeeeeeeeeeeeeeeeeeeeeeeeeeeeeeeeeeeee",
                "decimals": 18
            }
        ]
    },
    "address_label": {
        "labels": [
            {
                "address": "0x0000000000000000000000000000000000000002",
                "label": "Precompiled"
            },
            {
                "address": "0x0000000000000000000000000000000000000003",
                "label": "Precompiled"
            },
            {
                "address": "0x0000000000000000000000000000000000000004",
                "label": "Precompiled"
            },
            {
                "address": "0xeeeeeeeeeeeeeeeeeeeeeeeeeeeeeeeeeeeeeeee",
                "label": "Ether"
            },
            {
                "address": "0x455e53cbb86018ac2b8092fdcd39d8444affc3f6",
                "label": "Polygon: POL Token"
            },
            {
                "address": "0x0439e60f02a8900a951603950d8d4527f400c3f1",
                "label": "MetaMask: Meta Bridge"
            },
            {
                "address": "0x0000000000000000000000000000000000000001",
                "label": "Precompiled"
            }
        ]
    },
    "trace": {
        "accountLabels": null,
        "dataMap": {
            "-1": {
                "invocation": {
                    "address": "0x9a76e43b062176d40fa6f3e4e7ec000e053412f5",
                    "callData": "",
                    "decodedMethod": null,
                    "errorInfo": "",
                    "fromAddress": "",
                    "gasUsed": 0,
                    "id": -1,
                    "methodDecoded": false,
                    "operation": "",
                    "output": "",
                    "revert": false,
                    "revertMessage": "",
                    "selector": "",
                    "status": false,
                    "value": ""
                },
                "nodeType": 0
            },
            "0": {
                "invocation": {
                    "address": "0x455e53cbb86018ac2b8092fdcd39d8444affc3f6",
                    "callData": "0x0000000000000000000000000439e60f02a8900a951603950d8d4527f400c3f100000000000000000000000000000000000000000000000165a6567a14405000",
                    "decodedMethod": {
                        "callParams": [
                            {
                                "name": "spender",
                                "type": "address",
                                "value": "0x0439e60f02a8900a951603950d8d4527f400c3f1"
                            },
                            {
                                "decimalAvailable": true,
                                "name": "amount",
                                "type": "uint256",
                                "value": "25,771,381,000,000,000,000"
                            }
                        ],
                        "constructorArguments": "",
                        "name": "approve",
                        "returnParams": [
                            {
                                "name": "",
                                "type": "bool",
                                "value": true
                            }
                        ],
                        "signature": "approve(address,uint256)"
                    },
                    "errorInfo": "",
                    "fromAddress": "0x9a76e43b062176d40fa6f3e4e7ec000e053412f5",
                    "gasUsed": 46055,
                    "id": 0,
                    "methodDecoded": true,
                    "operation": "CALL",
                    "output": "0x0000000000000000000000000000000000000000000000000000000000000001",
                    "revert": false,
                    "revertMessage": "",
                    "selector": "0x095ea7b3",
                    "status": true,
                    "value": "0"
                },
                "nodeType": 0
            },
            "1": {
                "event": {
                    "contract": "0x455e53cbb86018ac2b8092fdcd39d8444affc3f6",
                    "decodedLog": {
                        "name": "Approval",
                        "params": [
                            {
                                "name": "owner",
                                "type": "address",
                                "value": "0x9a76e43b062176d40fa6f3e4e7ec000e053412f5"
                            },
                            {
                                "name": "spender",
                                "type": "address",
                                "value": "0x0439e60f02a8900a951603950d8d4527f400c3f1"
                            },
                            {
                                "decimalAvailable": true,
                                "name": "value",
                                "type": "uint256",
                                "value": "25,771,381,000,000,000,000"
                            }
                        ],
                        "signature": "Approval(address,address,uint256)"
                    },
                    "id": 1,
                    "logData": "0x00000000000000000000000000000000000000000000000165a6567a14405000",
                    "logDecoded": true,
                    "operation": "EVENT",
                    "revert": false,
                    "status": true,
                    "topics": [
                        "0x8c5be1e5ebec7d5bd14f71427d1e84f3dd0314c0f7b2291e5b200ac8c7c3b925",
                        "0x0000000000000000000000009a76e43b062176d40fa6f3e4e7ec000e053412f5",
                        "0x0000000000000000000000000439e60f02a8900a951603950d8d4527f400c3f1"
                    ]
                },
                "nodeType": 1
            }
        },
        "gasFlame": [
            {
                "children": [
                    {
                        "children": [
                            {
                                "children": [],
                                "depth": 0,
                                "name": "Initial Gas",
                                "value": 21644
                            },
                            {
                                "children": [],
                                "depth": 0,
                                "name": "Executed Gas",
                                "value": 24411
                            }
                        ],
                        "depth": -1,
                        "name": "Actual Gas Used",
                        "value": 46055
                    },
                    {
                        "children": [],
                        "depth": -1,
                        "name": "Refunded Gas",
                        "value": 0
                    }
                ],
                "depth": -2,
                "name": "Total Gas",
                "value": 46055
            }
        ],
        "isConfirmed": true,
        "mainTrace": [
            {
                "children": [
                    {
                        "children": [
                            {
                                "children": [],
                                "depth": 1,
                                "id": 1,
                                "order": 1
                            }
                        ],
                        "depth": 0,
                        "id": 0,
                        "order": 0
                    }
                ],
                "depth": -1,
                "id": -1,
                "order": -1
            }
        ],
        "mainTraceNodeCount": 2,
        "parentIdMap": {
            "0": -1,
            "1": 0
        },
        "tidyTrace": [
            {
                "children": [
                    {
                        "children": [
                            {
                                "children": [],
                                "depth": 1,
                                "id": 1,
                                "order": 1
                            }
                        ],
                        "depth": 0,
                        "id": 0,
                        "order": 0
                    }
                ],
                "depth": -1,
                "id": -1,
                "order": -1
            }
        ],
        "tidyTraceNodeCount": 2
    },
    "state_change": {
        "stateChanges": [
            {
                "address": "0x455e53cbb86018ac2b8092fdcd39d8444affc3f6",
                "erc": "ERC-20",
                "slots": [
                    {
                        "current": "0x00000000000000000000000000000000000000000000000165a6567a14405000",
                        "key": "0x14e29c19fe4b99e611777fa146b6861bce4c22e22a72b466c5b497fc5fc79e43",
                        "prev": "0x0000000000000000000000000000000000000000000000000000000000000000"
                    }
                ],
                "storageVariables": [
                    {
                        "name": "_allowances",
                        "type": "mapping(address => mapping(address => uint256))",
                        "value": {
                            "pairs": [
                                {
                                    "key": "0x9a76e43b062176d40fa6f3e4e7ec000e053412f5",
                                    "value": {
                                        "pairs": [
                                            {
                                                "key": "0x0439e60f02a8900a951603950d8d4527f400c3f1",
                                                "value": {
                                                    "current": "25771381000000000000",
                                                    "prev": "0",
                                                    "typeTag": 1
                                                }
                                            }
                                        ],
                                        "typeTag": 4
                                    }
                                }
                            ],
                            "typeTag": 4
                        }
                    }
                ]
            }
        ]
    }
}