{
    "balance_change": {
        "balanceChanges": [
            {
                "account": "0xa6c78da6642d25bdbbd1f5cb8a4693fe4fd51a9f",
                "assets": [
                    {
                        "address": "0x9469d013805bffb7d3debe5e7839237e535ec483",
                        "amount": "1,000",
                        "iconUrl": "https://assets.blocksec.com/icon/3ff90d30aedc8855a182c66195ffec7a8a3575f80556d5724897e6d5dad8cbd1.png",
                        "isERC1155": false,
                        "isERC721": false,
                        "sign": false,
                        "value": ""
                    }
                ]
            },
            {
                "account": "0xf3641443cad9e53ce9a3cb1908a839d360079bb2",
                "assets": [
                    {
                        "address": "0x9469d013805bffb7d3debe5e7839237e535ec483",
                        "amount": "1,000",
                        "iconUrl": "https://assets.blocksec.com/icon/3ff90d30aedc8855a182c66195ffec7a8a3575f80556d5724897e6d5dad8cbd1.png",
                        "isERC1155": false,
                        "isERC721": false,
                        "sign": true,
                        "value": ""
                    }
                ]
            }
        ]
    },
    "profile": {
        "basic_info": {
            "baseFee": "",
            "blockNumber": 6264192,
            "callData": "0xa9059cbb000000000000000000000000f3641443cad9e53ce9a3cb1908a839d360079bb200000000000000000000000000000000000000000000003635c9adc5dea00000",
            "debugEnable": true,
            "errorInfo": "",
            "eventCount": 1,
            "feeRecipient": "0x2a65aca4d5fc5b5c859090a6c34d164135398226",
            "formatValue": "0",
            "gasLimit": 100000,
            "gasPrice": "3",
            "gasUsed": 54028,
            "intTxnCount": 0,
            "internalRevert": false,
            "internalRevertMessage": "",
            "isContractCreation": false,
            "isFlashloan": false,
            "maxFee": "",
            "nonce": 243,
            "overwritedBlockNumber": -1,
            "priorityFee": "",
            "receiver": "0x9469d013805bffb7d3debe5e7839237e535ec483",
            "revertMessage": "",
            "sender": "0xa6c78da6642d25bdbbd1f5cb8a4693fe4fd51a9f",
            "simulationEnable": true,
            "sourceTxnHash": "0xc6ba3fd49887438d50419b05f4f5f2e07ccadc17cdf1e7d36f434c00a3205563",
            "status": true,
            "timestamp": "2018-09-03T11:49:35Z",
            "transactionFee": "0.000162084",
            "txnHash": "0xc6ba3fd49887438d50419b05f4f5f2e07ccadc17cdf1e7d36f434c00a3205563",
            "txnIndex": 30,
            "type": 0,
            "value": "0"
        },
        "fund_flow": [
            {
                "amount": "1,000",
                "from": "0xa6c78da6642d25bdbbd1f5cb8a4693fe4fd51a9f",
                "id": 1,
                "isERC1155": false,
                "isERC721": false,
                "isReverted": false,
                "order": 1,
                "to": "0xf3641443cad9e53ce9a3cb1908a839d360079bb2",
                "token": "0x9469d013805bffb7d3debe5e7839237e535ec483"
            }
        ],
        "token_infos": [
            {
                "address": "0x9469d013805bffb7d3debe5e7839237e535ec483",
                "decimals": 18
            },
            {
                "address": "0xc02aaa39b223fe8d0a0e5c4f27ead9083c756cc2",
                "decimals": 18
            },
            {
                "address": "0xeeeeeeeeeeeeeeeeeeeeeeeeeeeeeeeeeeeeeeee",
                "decimals": 18
            }
        ]
    },
    "address_label": {
        "labels": [
            {
                "address": "0x0000000000000000000000000000000000000003",
                "label": "Precompiled"
            },
            {
                "address": "0x0000000000000000000000000000000000000004",
                "label": "Precompiled"
            },
            {
                "address": "0xeeeeeeeeeeeeeeeeeeeeeeeeeeeeeeeeeeeeeeee",
                "label": "Ether"
            },
            {
                "address": "0x9469d013805bffb7d3debe5e7839237e535ec483",
                "label": "Darwinia Network Native: RING Token"
            },
            {
                "address": "0x0000000000000000000000000000000000000001",
                "label": "Precompiled"
            },
            {
                "address": "0x0000000000000000000000000000000000000002",
                "label": "Precompiled"
            }
        ]
    },
    "trace": {
        "accountLabels": null,
        "dataMap": {
            "-1": {
                "invocation": {
                    "address": "0xa6c78da6642d25bdbbd1f5cb8a4693fe4fd51a9f",
                    "callData": "",
                    "decodedMethod": null,
                    "errorInfo": "",
                    "fromAddress": "",
                    "gasUsed": 0,
                    "id": -1,
                    "methodDecoded": false,
                    "operation": "",
                    "output": "",
                    "revert": false,
                    "revertMessage": "",
                    "selector": "",
                    "status": false,
                    "value": ""
                },
                "nodeType": 0
            },
            "0": {
                "invocation": {
                    "address": "0x9469d013805bffb7d3debe5e7839237e535ec483",
                    "callData": "0x000000000000000000000000f3641443cad9e53ce9a3cb1908a839d360079bb200000000000000000000000000000000000000000000003635c9adc5dea00000",
                    "decodedMethod": {
                        "callParams": [
                            {
                                "name": "dst",
                                "type": "address",
                                "value": "0xf3641443cad9e53ce9a3cb1908a839d360079bb2"
                            },
                            {
                                "decimalAvailable": true,
                                "name": "wad",
                                "type": "uint256",
                                "value": "1,000,000,000,000,000,000,000"
                            }
                        ],
                        "constructorArguments": "",
                        "name": "transfer",
                        "returnParams": [
                            {
                                "name": "",
                                "type": "bool",
                                "value": true
                            }
                        ],
                        "signature": "transfer(address,uint256)"
                    },
                    "errorInfo": "",
                    "fromAddress": "0xa6c78da6642d25bdbbd1f5cb8a4693fe4fd51a9f",
                    "gasUsed": 54028,
                    "id": 0,
                    "methodDecoded": true,
                    "operation": "CALL",
                    "output": "0x0000000000000000000000000000000000000000000000000000000000000001",
                    "revert": false,
                    "revertMessage": "",
                    "selector": "0xa9059cbb",
                    "status": true,
                    "value": "0"
                },
                "nodeType": 0
            },
            "1": {
                "event": {
                    "contract": "0x9469d013805bffb7d3debe5e7839237e535ec483",
                    "decodedLog": {
                        "name": "Transfer",
                        "params": [
                            {
                                "name": "src",
                                "type": "address",
                                "value": "0xa6c78da6642d25bdbbd1f5cb8a4693fe4fd51a9f"
                            },
                            {
                                "name": "dst",
                                "type": "address",
                                "value": "0xf3641443cad9e53ce9a3cb1908a839d360079bb2"
                            },
                            {
                                "decimalAvailable": true,
                                "name": "wad",
                                "type": "uint256",
                                "value": "1,000,000,000,000,000,000,000"
                            }
                        ],
                        "signature": "Transfer(address,address,uint256)"
                    },
                    "id": 1,
                    "logData": "0x00000000000000000000000000000000000000000000003635c9adc5dea00000",
                    "logDecoded": true,
                    "operation": "EVENT",
                    "revert": false,
                    "status": true,
                    "topics": [
                        "0xddf252ad1be2c89b69c2b068fc378daa952ba7f163c4a11628f55a4df523b3ef",
                        "0x000000000000000000000000a6c78da6642d25bdbbd1f5cb8a4693fe4fd51a9f",
                        "0x000000000000000000000000f3641443cad9e53ce9a3cb1908a839d360079bb2"
                    ]
                },
                "nodeType": 1
            }
        },
        "gasFlame": [
            {
                "children": [
                    {
                        "children": [
                            {
                                "children": [],
                                "depth": 0,
                                "name": "Initial Gas",
                                "value": 23256
                            },
                            {
                                "children": [],
                                "depth": 0,
                                "name": "Executed Gas",
                                "value": 30772
                            }
                        ],
                        "depth": -1,
                        "name": "Actual Gas Used",
                        "value": 54028
                    },
                    {
                        "children": [],
                        "depth": -1,
                        "name": "Refunded Gas",
                        "value": 0
                    }
                ],
                "depth": -2,
                "name": "Total Gas",
                "value": 54028
            }
        ],
        "isConfirmed": true,
        "mainTrace": [
            {
                "children": [
                    {
                        "children": [
                            {
                                "children": [],
                                "depth": 1,
                                "id": 1,
                                "order": 1
                            }
                        ],
                        "depth": 0,
                        "id": 0,
                        "order": 0
                    }
                ],
                "depth": -1,
                "id": -1,
                "order": -1
            }
        ],
        "mainTraceNodeCount": 2,
        "parentIdMap": {
            "0": -1,
            "1": 0
        },
        "tidyTrace": [
            {
                "children": [
                    {
                        "children": [
                            {
                                "children": [],
                                "depth": 1,
                                "id": 1,
                                "order": 1
                            }
                        ],
                        "depth": 0,
                        "id": 0,
                        "order": 0
                    }
                ],
                "depth": -1,
                "id": -1,
                "order": -1
            }
        ],
        "tidyTraceNodeCount": 2
    },
    "state_change": {
        "stateChanges": [
            {
                "address": "0x9469d013805bffb7d3debe5e7839237e535ec483",
                "erc": "ERC-20",
                "slots": [
                    {
                        "current": "0x0000000000000000000000000000000000000000000039e4fd4f12044d7c0000",
                        "key": "0x219d7140d3611d10f92a7baa0edd03cb94ce39f8e245a2d677102f7c2590c23e",
                        "prev": "0x000000000000000000000000000000000000000000003a1b3318bfca2c1c0000"
                    },
                    {
                        "current": "0x00000000000000000000000000000000000000000000003635c9adc5dea00000",
                        "key": "0x5cc94dfc40b04a5d623d99c9e60f02b3b106ce8412762c0f39ad732e29bb31ee",
                        "prev": "0x0000000000000000000000000000000000000000000000000000000000000000"
                    }
                ],
                "storageVariables": [
                    {
                        "name": "_balances",
                        "type": "mapping(address => uint256)",
                        "value": {
                            "pairs": [
                                {
                                    "key": "0xa6c78da6642d25bdbbd1f5cb8a4693fe4fd51a9f",
                                    "value": {
                                        "current": "273399000000000000000000",
                                        "prev": "274399000000000000000000",
                                        "typeTag": 1
                                    }
                                },
                                {
                                    "key": "0xf3641443cad9e53ce9a3cb1908a839d360079bb2",
                                    "value": {
                                        "current": "1000000000000000000000",
                                        "prev": "0",
                                        "typeTag": 1
                                    }
                                }
                            ],
                            "typeTag": 4
                        }
                    }
                ]
            }
        ]
    }
}