{
    "balance_change": {
        "balanceChanges": [
            {
                "account": "0x6efb20f61b80f6a7ebe7a107bace58288a51fb34",
                "assets": [
                    {
                        "address": "0xe1ac9eb7cddabfd9e5ca49c23bd521afcdf8be49",
                        "amount": "128,500",
                        "iconUrl": "",
                        "isERC1155": false,
                        "isERC721": false,
                        "sign": false,
                        "value": ""
                    }
                ]
            },
            {
                "account": "0xabc0b5e7f34b68620ac0cf680734d2e9ae72f766",
                "assets": [
                    {
                        "address": "0xe1ac9eb7cddabfd9e5ca49c23bd521afcdf8be49",
                        "amount": "128,500",
                        "iconUrl": "",
                        "isERC1155": false,
                        "isERC721": false,
                        "sign": true,
                        "value": ""
                    }
                ]
            }
        ]
    },
    "profile": {
        "basic_info": {
            "baseFee": "",
            "blockNumber": 8288340,
            "callData": "0xa9059cbb000000000000000000000000abc0b5e7f34b68620ac0cf680734d2e9ae72f766000000000000000000000000000000000000000000001b35ffbbb9d23f500000",
            "debugEnable": true,
            "errorInfo": "",
            "eventCount": 1,
            "feeRecipient": "0x5a0b54d5dc17e0aadc383d2db43b0a0d3e029c4c",
            "formatValue": "0",
            "gasLimit": 90000,
            "gasPrice": "20",
            "gasUsed": 52317,
            "intTxnCount": 0,
            "internalRevert": false,
            "internalRevertMessage": "",
            "isContractCreation": false,
            "isFlashloan": false,
            "maxFee": "",
            "nonce": 88167,
            "overwritedBlockNumber": -1,
            "priorityFee": "",
            "receiver": "0xe1ac9eb7cddabfd9e5ca49c23bd521afcdf8be49",
            "revertMessage": "",
            "sender": "0x6efb20f61b80f6a7ebe7a107bace58288a51fb34",
            "simulationEnable": true,
            "sourceTxnHash": "0xc61779b6d5609520786fc15933996c14e798d4b6b855bdba1d3ea28558e57294",
            "status": true,
            "timestamp": "2019-08-05T03:59:05Z",
            "transactionFee": "0.00104634",
            "txnHash": "0xc61779b6d5609520786fc15933996c14e798d4b6b855bdba1d3ea28558e57294",
            "txnIndex": 16,
            "type": 0,
            "value": "0"
        },
        "fund_flow": [
            {
                "amount": "128,500",
                "from": "0x6efb20f61b80f6a7ebe7a107bace58288a51fb34",
                "id": 1,
                "isERC1155": false,
                "isERC721": false,
                "isReverted": false,
                "order": 1,
                "to": "0xabc0b5e7f34b68620ac0cf680734d2e9ae72f766",
                "token": "0xe1ac9eb7cddabfd9e5ca49c23bd521afcdf8be49"
            }
        ],
        "token_infos": [
            {
                "address": "0xc02aaa39b223fe8d0a0e5c4f27ead9083c756cc2",
                "decimals": 18
            },
            {
                "address": "0xe1ac9eb7cddabfd9e5ca49c23bd521afcdf8be49",
                "decimals": 18
            },
            {
                "address": "0xeeeeeeeeeeeeeeeeeeeeeeeeeeeeeeeeeeeeeeee",
                "decimals": 18
            }
        ]
    },
    "address_label": {
        "labels": [
            {
                "address": "0x0000000000000000000000000000000000000004",
                "label": "Precompiled"
            },
            {
                "address": "0xeeeeeeeeeeeeeeeeeeeeeeeeeeeeeeeeeeeeeeee",
                "label": "Ether"
            },
            {
                "address": "0xe1ac9eb7cddabfd9e5ca49c23bd521afcdf8be49",
                "label": "Mycion (MYC)"
            },
            {
                "address": "0x6efb20f61b80f6a7ebe7a107bace58288a51fb34",
                "label": "Biki.com: Old Address"
            },
            {
                "address": "0x0000000000000000000000000000000000000001",
                "label": "Precompiled"
            },
            {
                "address": "0x0000000000000000000000000000000000000002",
                "label": "Precompiled"
            },
            {
                "address": "0x0000000000000000000000000000000000000003",
                "label": "Precompiled"
            }
        ]
    },
    "trace": {
        "accountLabels": null,
        "dataMap": {
            "-1": {
                "invocation": {
                    "address": "0x6efb20f61b80f6a7ebe7a107bace58288a51fb34",
                    "callData": "",
                    "decodedMethod": null,
                    "errorInfo": "",
                    "fromAddress": "",
                    "gasUsed": 0,
                    "id": -1,
                    "methodDecoded": false,
                    "operation": "",
                    "output": "",
                    "revert": false,
                    "revertMessage": "",
                    "selector": "",
                    "status": false,
                    "value": ""
                },
                "nodeType": 0
            },
            "0": {
                "invocation": {
                    "address": "0xe1ac9eb7cddabfd9e5ca49c23bd521afcdf8be49",
                    "callData": "0x000000000000000000000000abc0b5e7f34b68620ac0cf680734d2e9ae72f766000000000000000000000000000000000000000000001b35ffbbb9d23f500000",
                    "decodedMethod": {
                        "callParams": [
                            {
                                "name": "recipient",
                                "type": "address",
                                "value": "0xabc0b5e7f34b68620ac0cf680734d2e9ae72f766"
                            },
                            {
                                "decimalAvailable": true,
                                "name": "amount",
                                "type": "uint256",
                                "value": "128,500,000,000,000,000,000,000"
                            }
                        ],
                        "constructorArguments": "",
                        "name": "transfer",
                        "returnParams": [
                            {
                                "name": "",
                                "type": "bool",
                                "value": true
                            }
                        ],
                        "signature": "transfer(address,uint256)"
                    },
                    "errorInfo": "",
                    "fromAddress": "0x6efb20f61b80f6a7ebe7a107bace58288a51fb34",
                    "gasUsed": 52317,
                    "id": 0,
                    "methodDecoded": true,
                    "operation": "CALL",
                    "output": "0x0000000000000000000000000000000000000000000000000000000000000001",
                    "revert": false,
                    "revertMessage": "",
                    "selector": "0xa9059cbb",
                    "status": true,
                    "value": "0"
                },
                "nodeType": 0
            },
            "1": {
                "event": {
                    "contract": "0xe1ac9eb7cddabfd9e5ca49c23bd521afcdf8be49",
                    "decodedLog": {
                        "name": "Transfer",
                        "params": [
                            {
                                "name": "from",
                                "type": "address",
                                "value": "0x6efb20f61b80f6a7ebe7a107bace58288a51fb34"
                            },
                            {
                                "name": "to",
                                "type": "address",
                                "value": "0xabc0b5e7f34b68620ac0cf680734d2e9ae72f766"
                            },
                            {
                                "decimalAvailable": true,
                                "name": "value",
                                "type": "uint256",
                                "value": "128,500,000,000,000,000,000,000"
                            }
                        ],
                        "signature": "Transfer(address,address,uint256)"
                    },
                    "id": 1,
                    "logData": "0x000000000000000000000000000000000000000000001b35ffbbb9d23f500000",
                    "logDecoded": true,
                    "operation": "EVENT",
                    "revert": false,
                    "status": true,
                    "topics": [
                        "0xddf252ad1be2c89b69c2b068fc378daa952ba7f163c4a11628f55a4df523b3ef",
                        "0x0000000000000000000000006efb20f61b80f6a7ebe7a107bace58288a51fb34",
                        "0x000000000000000000000000abc0b5e7f34b68620ac0cf680734d2e9ae72f766"
                    ]
                },
                "nodeType": 1
            }
        },
        "gasFlame": [
            {
                "children": [
                    {
                        "children": [
                            {
                                "children": [],
                                "depth": 0,
                                "name": "Initial Gas",
                                "value": 23320
                            },
                            {
                                "children": [],
                                "depth": 0,
                                "name": "Executed Gas",
                                "value": 28997
                            }
                        ],
                        "depth": -1,
                        "name": "Actual Gas Used",
                        "value": 52317
                    },
                    {
                        "children": [],
                        "depth": -1,
                        "name": "Refunded Gas",
                        "value": 0
                    }
                ],
                "depth": -2,
                "name": "Total Gas",
                "value": 52317
            }
        ],
        "isConfirmed": true,
        "mainTrace": [
            {
                "children": [
                    {
                        "children": [
                            {
                                "children": [],
                                "depth": 1,
                                "id": 1,
                                "order": 1
                            }
                        ],
                        "depth": 0,
                        "id": 0,
                        "order": 0
                    }
                ],
                "depth": -1,
                "id": -1,
                "order": -1
            }
        ],
        "mainTraceNodeCount": 2,
        "parentIdMap": {
            "0": -1,
            "1": 0
        },
        "tidyTrace": [
            {
                "children": [
                    {
                        "children": [
                            {
                                "children": [],
                                "depth": 1,
                                "id": 1,
                                "order": 1
                            }
                        ],
                        "depth": 0,
                        "id": 0,
                        "order": 0
                    }
                ],
                "depth": -1,
                "id": -1,
                "order": -1
            }
        ],
        "tidyTraceNodeCount": 2
    },
    "state_change": {
        "stateChanges": [
            {
                "address": "0xe1ac9eb7cddabfd9e5ca49c23bd521afcdf8be49",
                "erc": "",
                "slots": [
                    {
                        "current": "0x000000000000000000000000000000000000000000001b35ffbbb9d23f500000",
                        "key": "0xc68b1fbbc9d0bf33743a19a899c109dcb76b2e81aac55fead10da345e0236069",
                        "prev": "0x0000000000000000000000000000000000000000000000000000000000000000"
                    },
                    {
                        "current": "0x000000000000000000000000000000000000000001218c7afc1926f9a3ef8000",
                        "key": "0x8c1887f12a78079663b902bd82d9ad59d1d6e8a06dbd8d715f5ad57095016255",
                        "prev": "0x00000000000000000000000000000000000000000121a7b0fbd4e0cbe33f8000"
                    }
                ],
                "storageVariables": []
            }
        ]
    }
}