{
    "balance_change": {
        "balanceChanges": []
    },
    "profile": {
        "basic_info": {
            "baseFee": "",
            "blockNumber": 2644730,
            "callData": "0xa9059cbb000000000000000000000000f7c55b7db9a6f29c1099ba9f966c82c4ae9c81e4000000000000000000000000000000000000000000000000000c6f3b40b6c000",
            "debugEnable": true,
            "errorInfo": "",
            "eventCount": 1,
            "feeRecipient": "0x1e9939daaad6924ad004c2560e90804164900341",
            "formatValue": "0",
            "gasLimit": 135000,
            "gasPrice": "21.963999998",
            "gasUsed": 37134,
            "intTxnCount": 0,
            "internalRevert": false,
            "internalRevertMessage": "",
            "isContractCreation": false,
            "isFlashloan": false,
            "maxFee": "",
            "nonce": 43874,
            "overwritedBlockNumber": -1,
            "priorityFee": "",
            "receiver": "0x37a9679c41e99db270bda88de8ff50c0cd23f326",
            "revertMessage": "",
            "sender": "0x9e0b9ddba97dd4f7addab0b5f67036eebe687606",
            "simulationEnable": true,
            "sourceTxnHash": "0xc6084ba26afd5cdee5e2c6b57c6fdf09d60b12207e69c4213aa0bb0d3328c3f8",
            "status": true,
            "timestamp": "2016-11-17T17:48:20Z",
            "transactionFee": "0.000815611175925732",
            "txnHash": "0xc6084ba26afd5cdee5e2c6b57c6fdf09d60b12207e69c4213aa0bb0d3328c3f8",
            "txnIndex": 22,
            "type": 0,
            "value": "0"
        },
        "fund_flow": [],
        "token_infos": [
            {
                "address": "0xc02aaa39b223fe8d0a0e5c4f27ead9083c756cc2",
                "decimals": 18
            },
            {
                "address": "0xeeeeeeeeeeeeeeeeeeeeeeeeeeeeeeeeeeeeeeee",
                "decimals": 18
            }
        ]
    },
    "address_label": {
        "labels": [
            {
                "address": "0x0000000000000000000000000000000000000001",
                "label": "Precompiled"
            },
            {
                "address": "0x0000000000000000000000000000000000000002",
                "label": "Precompiled"
            },
            {
                "address": "0x0000000000000000000000000000000000000003",
                "label": "Precompiled"
            },
            {
                "address": "0x0000000000000000000000000000000000000004",
                "label": "Precompiled"
            },
            {
                "address": "0xeeeeeeeeeeeeeeeeeeeeeeeeeeeeeeeeeeeeeeee",
                "label": "Ether"
            },
            {
                "address": "0x37a9679c41e99db270bda88de8ff50c0cd23f326",
                "label": "YoCoin"
            }
        ]
    },
    "trace": {
        "accountLabels": null,
        "dataMap": {
            "-1": {
                "invocation": {
                    "address": "0x9e0b9ddba97dd4f7addab0b5f67036eebe687606",
                    "callData": "",
                    "decodedMethod": null,
                    "errorInfo": "",
                    "fromAddress": "",
                    "gasUsed": 0,
                    "id": -1,
                    "methodDecoded": false,
                    "operation": "",
                    "output": "",
                    "revert": false,
                    "revertMessage": "",
                    "selector": "",
                    "status": false,
                    "value": ""
                },
                "nodeType": 0
            },
            "0": {
                "invocation": {
                    "address": "0x37a9679c41e99db270bda88de8ff50c0cd23f326",
                    "callData": "0x000000000000000000000000f7c55b7db9a6f29c1099ba9f966c82c4ae9c81e4000000000000000000000000000000000000000000000000000c6f3b40b6c000",
                    "decodedMethod": {
                        "callParams": [
                            {
                                "name": "_to",
                                "type": "address",
                                "value": "0xf7c55b7db9a6f29c1099ba9f966c82c4ae9c81e4"
                            },
                            {
                                "decimalAvailable": true,
                                "name": "_value",
                                "type": "uint256",
                                "value": "3,500,000,000,000,000"
                            }
                        ],
                        "constructorArguments": "",
                        "name": "transfer",
                        "returnParams": [],
                        "signature": "transfer(address,uint256)"
                    },
                    "errorInfo": "",
                    "fromAddress": "0x9e0b9ddba97dd4f7addab0b5f67036eebe687606",
                    "gasUsed": 37134,
                    "id": 0,
                    "methodDecoded": true,
                    "operation": "CALL",
                    "output": "",
                    "revert": false,
                    "revertMessage": "",
                    "selector": "0xa9059cbb",
                    "status": true,
                    "value": "0"
                },
                "nodeType": 0
            },
            "1": {
                "event": {
                    "contract": "0x37a9679c41e99db270bda88de8ff50c0cd23f326",
                    "decodedLog": {
                        "name": "Transfer",
                        "params": [
                            {
                                "name": "from",
                                "type": "address",
                                "value": "0x9e0b9ddba97dd4f7addab0b5f67036eebe687606"
                            },
                            {
                                "name": "to",
                                "type": "address",
                                "value": "0xf7c55b7db9a6f29c1099ba9f966c82c4ae9c81e4"
                            },
                            {
                                "name": "value",
                                "type": "int256",
                                "value": "3,500,000,000,000,000"
                            }
                        ],
                        "signature": "Transfer(address,address,int256)"
                    },
                    "id": 1,
                    "logData": "0x000000000000000000000000000000000000000000000000000c6f3b40b6c000",
                    "logDecoded": true,
                    "operation": "EVENT",
                    "revert": false,
                    "status": true,
                    "topics": [
                        "0x8b0c34a52f9e28d78caaa7066cd047b398dae74941a208b77777420f492bd7e1",
                        "0x0000000000000000000000009e0b9ddba97dd4f7addab0b5f67036eebe687606",
                        "0x000000000000000000000000f7c55b7db9a6f29c1099ba9f966c82c4ae9c81e4"
                    ]
                },
                "nodeType": 1
            }
        },
        "gasFlame": [
            {
                "children": [
                    {
                        "children": [
                            {
                                "children": [],
                                "depth": 0,
                                "name": "Initial Gas",
                                "value": 23192
                            },
                            {
                                "children": [],
                                "depth": 0,
                                "name": "Executed Gas",
                                "value": 13942
                            }
                        ],
                        "depth": -1,
                        "name": "Actual Gas Used",
                        "value": 37134
                    },
                    {
                        "children": [],
                        "depth": -1,
                        "name": "Refunded Gas",
                        "value": 0
                    }
                ],
                "depth": -2,
                "name": "Total Gas",
                "value": 37134
            }
        ],
        "isConfirmed": true,
        "mainTrace": [
            {
                "children": [
                    {
                        "children": [
                            {
                                "children": [],
                                "depth": 1,
                                "id": 1,
                                "order": 1
                            }
                        ],
                        "depth": 0,
                        "id": 0,
                        "order": 0
                    }
                ],
                "depth": -1,
                "id": -1,
                "order": -1
            }
        ],
        "mainTraceNodeCount": 2,
        "parentIdMap": {
            "0": -1,
            "1": 0
        },
        "tidyTrace": [
            {
                "children": [
                    {
                        "children": [
                            {
                                "children": [],
                                "depth": 1,
                                "id": 1,
                                "order": 1
                            }
                        ],
                        "depth": 0,
                        "id": 0,
                        "order": 0
                    }
                ],
                "depth": -1,
                "id": -1,
                "order": -1
            }
        ],
        "tidyTraceNodeCount": 2
    },
    "state_change": {
        "stateChanges": [
            {
                "address": "0x37a9679c41e99db270bda88de8ff50c0cd23f326",
                "erc": "",
                "slots": [
                    {
                        "current": "0x0000000000000000000000000000000000000000000004e2a6fa3e370270de00",
                        "key": "0xde9e05d799821d025edb97284e7d7b6d2ce368ed5f0071af3b56e75c418aadd4",
                        "prev": "0x0000000000000000000000000000000000000000000004e2a706ad7243279e00"
                    },
                    {
                        "current": "0x00000000000000000000000000000000000000000000001effa14327b3540000",
                        "key": "0xbb4dee178e1cfe7730f0f2c72be2c4bc34bf3ba727401c349a9ae7d770e18235",
                        "prev": "0x00000000000000000000000000000000000000000000001eff94d3ec729d4000"
                    }
                ],
                "storageVariables": []
            }
        ]
    }
}