{
    "balance_change": {
        "balanceChanges": []
    },
    "profile": {
        "basic_info": {
            "baseFee": "",
            "blockNumber": 8598917,
            "callData": "0xab5898e80000000000000000000000000000000000000000000000000000000000000040000000000000000000000000000000000000000000000000000000000000000d0000000000000000000000000000000000000000000000000000000000000480db8587d50f1289b418931a11a3e029506d100184000000000000000000000000000000000000000000000000000000000000000000000000000000000000000000000000000000000000000000000000000000a4cf0b3890000000000000000000000000798abda6cc246d0edba912092a2a3dbd3d11191b0000000000000000000000000e0989b1f9b8a38983c2ba8053269ca62ec9b1950000000000000000000000000000000000000000000000000000000000000000000000000000000000000000000000000000000000000000000005043bb801e20000000000000000000000000000000000000000000000000000104d904e2e6edb8587d50f1289b418931a11a3e029506d10018400000000000000000000000000000000000000000000000000000000000000000000000000000000000000000000000000000000000000000000000000000084cf8ce8df0000000000000000000000008c2036ce61648fcddffb06d6d11fe0b479ed63fe0000000000000000000000000e0989b1f9b8a38983c2ba8053269ca62ec9b1950000000000000000000000000000000000000000000000000db89e26d209cbbb000000000000000000000000000000000000000000000000000004fd9cba3016cbc6a023eb975a1e2630223a7959988948e664f30000000000000000000000000000000000000000000000000db89e26d209cbbb0000000000000000000000000000000000000000000000000000000000000124f0843ba900000000000000000000000000000000000000000000000000000000000000600000000000000000000000000000000000000000000000000db89e26d209cbbb000000000000000000000000000000000000000000000000000004fd9cba30160000000000000000000000000000000000000000000000000000000000000005000000000000000000000000c0829421c1d260bd3cb3e0f06cfe2d52db2ce3150000000000000000000000001f573d6fb3f13d689ff844b4ce37794d79a7ff1c0000000000000000000000001f573d6fb3f13d689ff844b4ce37794d79a7ff1c000000000000000000000000a5f2a49aafa052e28a50a575cd9e7488fa598e780000000000000000000000000e0989b1f9b8a38983c2ba8053269ca62ec9b195818e6fecd516ecc3849daf6845e3ec868087b755000000000000000000000000000000000000000000000000000000000000000000000000000000000000000000000000000000000000000000000000000000e4cb3c28c70000000000000000000000000e0989b1f9b8a38983c2ba8053269ca62ec9b195000000000000000000000000000000000000000000000000000005043bb801e2000000000000000000000000eeeeeeeeeeeeeeeeeeeeeeeeeeeeeeeeeeeeeeee00000000000000000000000085c5c26dc2af5546341fc1988b9d178148b4838b80000000000000000000000000000000000000000000000000000000000000000000000000000000000000000000000000000000000000000000104d904e2e6e000000000000000000000000c9d81352fbdb0294b091e51d774a0652ef776d99",
            "debugEnable": true,
            "errorInfo": "execution reverted",
            "eventCount": 0,
            "feeRecipient": "0x52bc44d5378309ee2abf1539bf71de1b7d7be3b5",
            "formatValue": "0",
            "gasLimit": 799930,
            "gasPrice": "9.9",
            "gasUsed": 121170,
            "intTxnCount": 15,
            "internalRevert": true,
            "internalRevertMessage": "",
            "isContractCreation": false,
            "isFlashloan": false,
            "maxFee": "",
            "nonce": 34367,
            "overwritedBlockNumber": -1,
            "priorityFee": "",
            "receiver": "0x85c5c26dc2af5546341fc1988b9d178148b4838b",
            "revertMessage": "",
            "sender": "0xc533a4e3350deecaa0bf0fcba92d4a6138013b18",
            "simulationEnable": true,
            "sourceTxnHash": "0xc69afe10b86c8b0c7af8b7a6fa0fe83492798333f9bfb9d733d8a7999ace881e",
            "status": false,
            "timestamp": "2019-09-22T12:14:06Z",
            "transactionFee": "0.001199583",
            "txnHash": "0xc69afe10b86c8b0c7af8b7a6fa0fe83492798333f9bfb9d733d8a7999ace881e",
            "txnIndex": 10,
            "type": 0,
            "value": "0"
        },
        "fund_flow": [],
        "token_infos": [
            {
                "address": "0xc02aaa39b223fe8d0a0e5c4f27ead9083c756cc2",
                "decimals": 18
            },
            {
                "address": "0xeeeeeeeeeeeeeeeeeeeeeeeeeeeeeeeeeeeeeeee",
                "decimals": 18
            }
        ]
    },
    "address_label": {
        "labels": [
            {
                "address": "0xc0829421c1d260bd3cb3e0f06cfe2d52db2ce315",
                "label": "Bancor: ETH Token"
            },
            {
                "address": "0x0000000000000000000000000000000000000003",
                "label": "Precompiled"
            },
            {
                "address": "0x0000000000000000000000000000000000000004",
                "label": "Precompiled"
            },
            {
                "address": "0xeeeeeeeeeeeeeeeeeeeeeeeeeeeeeeeeeeeeeeee",
                "label": "Ether"
            },
            {
                "address": "0x0e0989b1f9b8a38983c2ba8053269ca62ec9b195",
                "label": "Po.et Token"
            },
            {
                "address": "0x0000000000000000000000000000000000000001",
                "label": "Precompiled"
            },
            {
                "address": "0x8c2036ce61648fcddffb06d6d11fe0b479ed63fe",
                "label": "Bancor: Converter #163"
            },
            {
                "address": "0xcbc6a023eb975a1e2630223a7959988948e664f3",
                "label": "BancorConverter"
            },
            {
                "address": "0x52ae12abe5d8bd778bd5397f99ca900624cfadd4",
                "label": "Bancor: Contract Registry"
            },
            {
                "address": "0x798abda6cc246d0edba912092a2a3dbd3d11191b",
                "label": "Kyber: Conversion Rates"
            },
            {
                "address": "0x1f573d6fb3f13d689ff844b4ce37794d79a7ff1c",
                "label": "Bancor: BNT Token"
            },
            {
                "address": "0xa5f2a49aafa052e28a50a575cd9e7488fa598e78",
                "label": "SmartToken"
            },
            {
                "address": "0x0000000000000000000000000000000000000002",
                "label": "Precompiled"
            },
            {
                "address": "0xffd2de852b694f88656e91d9defa6b425c454742",
                "label": "BancorFormula"
            },
            {
                "address": "0xd1997064f0fef8748c1de9b5ba53468c548738b3",
                "label": "ContractRegistry"
            }
        ]
    },
    "trace": {
        "accountLabels": null,
        "dataMap": {
            "-1": {
                "invocation": {
                    "address": "0xc533a4e3350deecaa0bf0fcba92d4a6138013b18",
                    "callData": "",
                    "decodedMethod": null,
                    "errorInfo": "",
                    "fromAddress": "",
                    "gasUsed": 0,
                    "id": -1,
                    "methodDecoded": false,
                    "operation": "",
                    "output": "",
                    "revert": false,
                    "revertMessage": "",
                    "selector": "",
                    "status": false,
                    "value": ""
                },
                "nodeType": 0
            },
            "0": {
                "invocation": {
                    "address": "0x85c5c26dc2af5546341fc1988b9d178148b4838b",
                    "callData": "0x0000000000000000000000000000000000000000000000000000000000000040000000000000000000000000000000000000000000000000000000000000000d0000000000000000000000000000000000000000000000000000000000000480db8587d50f1289b418931a11a3e029506d100184000000000000000000000000000000000000000000000000000000000000000000000000000000000000000000000000000000000000000000000000000000a4cf0b3890000000000000000000000000798abda6cc246d0edba912092a2a3dbd3d11191b0000000000000000000000000e0989b1f9b8a38983c2ba8053269ca62ec9b1950000000000000000000000000000000000000000000000000000000000000000000000000000000000000000000000000000000000000000000005043bb801e20000000000000000000000000000000000000000000000000000104d904e2e6edb8587d50f1289b418931a11a3e029506d10018400000000000000000000000000000000000000000000000000000000000000000000000000000000000000000000000000000000000000000000000000000084cf8ce8df0000000000000000000000008c2036ce61648fcddffb06d6d11fe0b479ed63fe0000000000000000000000000e0989b1f9b8a38983c2ba8053269ca62ec9b1950000000000000000000000000000000000000000000000000db89e26d209cbbb000000000000000000000000000000000000000000000000000004fd9cba3016cbc6a023eb975a1e2630223a7959988948e664f30000000000000000000000000000000000000000000000000db89e26d209cbbb0000000000000000000000000000000000000000000000000000000000000124f0843ba900000000000000000000000000000000000000000000000000000000000000600000000000000000000000000000000000000000000000000db89e26d209cbbb000000000000000000000000000000000000000000000000000004fd9cba30160000000000000000000000000000000000000000000000000000000000000005000000000000000000000000c0829421c1d260bd3cb3e0f06cfe2d52db2ce3150000000000000000000000001f573d6fb3f13d689ff844b4ce37794d79a7ff1c0000000000000000000000001f573d6fb3f13d689ff844b4ce37794d79a7ff1c000000000000000000000000a5f2a49aafa052e28a50a575cd9e7488fa598e780000000000000000000000000e0989b1f9b8a38983c2ba8053269ca62ec9b195818e6fecd516ecc3849daf6845e3ec868087b755000000000000000000000000000000000000000000000000000000000000000000000000000000000000000000000000000000000000000000000000000000e4cb3c28c70000000000000000000000000e0989b1f9b8a38983c2ba8053269ca62ec9b195000000000000000000000000000000000000000000000000000005043bb801e2000000000000000000000000eeeeeeeeeeeeeeeeeeeeeeeeeeeeeeeeeeeeeeee00000000000000000000000085c5c26dc2af5546341fc1988b9d178148b4838b80000000000000000000000000000000000000000000000000000000000000000000000000000000000000000000000000000000000000000000104d904e2e6e000000000000000000000000c9d81352fbdb0294b091e51d774a0652ef776d99",
                    "decodedMethod": {
                        "callParams": [
                            {
                                "name": "data",
                                "type": "bytes",
                                "value": "0xdb8587d50f1289b418931a11a3e029506d100184000000000000000000000000000000000000000000000000000000000000000000000000000000000000000000000000000000000000000000000000000000a4cf0b3890000000000000000000000000798abda6cc246d0edba912092a2a3dbd3d11191b0000000000000000000000000e0989b1f9b8a38983c2ba8053269ca62ec9b1950000000000000000000000000000000000000000000000000000000000000000000000000000000000000000000000000000000000000000000005043bb801e20000000000000000000000000000000000000000000000000000104d904e2e6edb8587d50f1289b418931a11a3e029506d10018400000000000000000000000000000000000000000000000000000000000000000000000000000000000000000000000000000000000000000000000000000084cf8ce8df0000000000000000000000008c2036ce61648fcddffb06d6d11fe0b479ed63fe0000000000000000000000000e0989b1f9b8a38983c2ba8053269ca62ec9b1950000000000000000000000000000000000000000000000000db89e26d209cbbb000000000000000000000000000000000000000000000000000004fd9cba3016cbc6a023eb975a1e2630223a7959988948e664f30000000000000000000000000000000000000000000000000db89e26d209cbbb0000000000000000000000000000000000000000000000000000000000000124f0843ba900000000000000000000000000000000000000000000000000000000000000600000000000000000000000000000000000000000000000000db89e26d209cbbb000000000000000000000000000000000000000000000000000004fd9cba30160000000000000000000000000000000000000000000000000000000000000005000000000000000000000000c0829421c1d260bd3cb3e0f06cfe2d52db2ce3150000000000000000000000001f573d6fb3f13d689ff844b4ce37794d79a7ff1c0000000000000000000000001f573d6fb3f13d689ff844b4ce37794d79a7ff1c000000000000000000000000a5f2a49aafa052e28a50a575cd9e7488fa598e780000000000000000000000000e0989b1f9b8a38983c2ba8053269ca62ec9b195818e6fecd516ecc3849daf6845e3ec868087b755000000000000000000000000000000000000000000000000000000000000000000000000000000000000000000000000000000000000000000000000000000e4cb3c28c70000000000000000000000000e0989b1f9b8a38983c2ba8053269ca62ec9b195000000000000000000000000000000000000000000000000000005043bb801e2000000000000000000000000eeeeeeeeeeeeeeeeeeeeeeeeeeeeeeeeeeeeeeee00000000000000000000000085c5c26dc2af5546341fc1988b9d178148b4838b80000000000000000000000000000000000000000000000000000000000000000000000000000000000000000000000000000000000000000000104d904e2e6e000000000000000000000000c9d81352fbdb0294b091e51d774a0652ef776d99"
                            },
                            {
                                "name": "indexInBatch",
                                "type": "uint256",
                                "value": "13"
                            }
                        ],
                        "constructorArguments": "",
                        "name": "execute",
                        "returnParams": [],
                        "signature": "execute(bytes,uint256)"
                    },
                    "errorInfo": "execution reverted",
                    "fromAddress": "0xc533a4e3350deecaa0bf0fcba92d4a6138013b18",
                    "gasUsed": 121170,
                    "id": 0,
                    "methodDecoded": true,
                    "operation": "CALL",
                    "output": "",
                    "revert": true,
                    "revertMessage": "",
                    "selector": "0xab5898e8",
                    "status": false,
                    "value": "0"
                },
                "nodeType": 0
            },
            "1": {
                "invocation": {
                    "address": "0xdb8587d50f1289b418931a11a3e029506d100184",
                    "callData": "0x000000000000000000000000798abda6cc246d0edba912092a2a3dbd3d11191b0000000000000000000000000e0989b1f9b8a38983c2ba8053269ca62ec9b1950000000000000000000000000000000000000000000000000000000000000000000000000000000000000000000000000000000000000000000005043bb801e20000000000000000000000000000000000000000000000000000104d904e2e6e",
                    "decodedMethod": null,
                    "errorInfo": "",
                    "fromAddress": "0x85c5c26dc2af5546341fc1988b9d178148b4838b",
                    "gasUsed": 21993,
                    "id": 1,
                    "methodDecoded": false,
                    "operation": "CALL",
                    "output": "0x0000000000000000000000000000000000000000000000000000000000000001",
                    "revert": true,
                    "revertMessage": "",
                    "selector": "0xcf0b3890",
                    "status": true,
                    "value": "0"
                },
                "nodeType": 0
            },
            "10": {
                "invocation": {
                    "address": "0x8c2036ce61648fcddffb06d6d11fe0b479ed63fe",
                    "callData": "0x0000000000000000000000001f573d6fb3f13d689ff844b4ce37794d79a7ff1c0000000000000000000000000e0989b1f9b8a38983c2ba8053269ca62ec9b19500000000000000000000000000000000000000000000001be69b5b35937115d9",
                    "decodedMethod": {
                        "callParams": [
                            {
                                "name": "_fromToken",
                                "type": "address",
                                "value": "0x1f573d6fb3f13d689ff844b4ce37794d79a7ff1c"
                            },
                            {
                                "name": "_toToken",
                                "type": "address",
                                "value": "0x0e0989b1f9b8a38983c2ba8053269ca62ec9b195"
                            },
                            {
                                "name": "_amount",
                                "type": "uint256",
                                "value": "514,679,065,525,936,526,809"
                            }
                        ],
                        "constructorArguments": "",
                        "name": "getReturn",
                        "returnParams": [
                            {
                                "name": "",
                                "type": "uint256",
                                "value": "5,434,152,237,949"
                            }
                        ],
                        "signature": "getReturn(address,address,uint256)"
                    },
                    "errorInfo": "",
                    "fromAddress": "0xdb8587d50f1289b418931a11a3e029506d100184",
                    "gasUsed": 18203,
                    "id": 10,
                    "methodDecoded": true,
                    "operation": "CALL",
                    "output": "0x000000000000000000000000000000000000000000000000000004f13cb6bb7d",
                    "revert": true,
                    "revertMessage": "",
                    "selector": "0x1e1401f8",
                    "status": true,
                    "value": "0"
                },
                "nodeType": 0
            },
            "11": {
                "invocation": {
                    "address": "0xa5f2a49aafa052e28a50a575cd9e7488fa598e78",
                    "callData": "0x",
                    "decodedMethod": {
                        "callParams": [],
                        "constructorArguments": "",
                        "name": "owner",
                        "returnParams": [
                            {
                                "name": "",
                                "type": "address",
                                "value": "0x8c2036ce61648fcddffb06d6d11fe0b479ed63fe"
                            }
                        ],
                        "signature": "owner()"
                    },
                    "errorInfo": "",
                    "fromAddress": "0x8c2036ce61648fcddffb06d6d11fe0b479ed63fe",
                    "gasUsed": 790,
                    "id": 11,
                    "methodDecoded": true,
                    "operation": "CALL",
                    "output": "0x0000000000000000000000008c2036ce61648fcddffb06d6d11fe0b479ed63fe",
                    "revert": true,
                    "revertMessage": "",
                    "selector": "0x8da5cb5b",
                    "status": true,
                    "value": "0"
                },
                "nodeType": 0
            },
            "12": {
                "invocation": {
                    "address": "0x1f573d6fb3f13d689ff844b4ce37794d79a7ff1c",
                    "callData": "0x0000000000000000000000008c2036ce61648fcddffb06d6d11fe0b479ed63fe",
                    "decodedMethod": {
                        "callParams": [
                            {
                                "name": "",
                                "type": "address",
                                "value": "0x8c2036ce61648fcddffb06d6d11fe0b479ed63fe"
                            }
                        ],
                        "constructorArguments": "",
                        "name": "balanceOf",
                        "returnParams": [
                            {
                                "decimalAvailable": true,
                                "name": "",
                                "type": "uint256",
                                "value": "211,441,528,664,943,511,043,974"
                            }
                        ],
                        "signature": "balanceOf(address)"
                    },
                    "errorInfo": "",
                    "fromAddress": "0x8c2036ce61648fcddffb06d6d11fe0b479ed63fe",
                    "gasUsed": 718,
                    "id": 12,
                    "methodDecoded": true,
                    "operation": "CALL",
                    "output": "0x000000000000000000000000000000000000000000002cc644ab2788ec517f86",
                    "revert": true,
                    "revertMessage": "",
                    "selector": "0x70a08231",
                    "status": true,
                    "value": "0"
                },
                "nodeType": 0
            },
            "13": {
                "invocation": {
                    "address": "0x0e0989b1f9b8a38983c2ba8053269ca62ec9b195",
                    "callData": "0x0000000000000000000000008c2036ce61648fcddffb06d6d11fe0b479ed63fe",
                    "decodedMethod": {
                        "callParams": [
                            {
                                "name": "_owner",
                                "type": "address",
                                "value": "0x8c2036ce61648fcddffb06d6d11fe0b479ed63fe"
                            }
                        ],
                        "constructorArguments": "",
                        "name": "balanceOf",
                        "returnParams": [
                            {
                                "decimalAvailable": true,
                                "name": "balance",
                                "type": "uint256",
                                "value": "2,242,386,454,999,003"
                            }
                        ],
                        "signature": "balanceOf(address)"
                    },
                    "errorInfo": "",
                    "fromAddress": "0x8c2036ce61648fcddffb06d6d11fe0b479ed63fe",
                    "gasUsed": 769,
                    "id": 13,
                    "methodDecoded": true,
                    "operation": "CALL",
                    "output": "0x0000000000000000000000000000000000000000000000000007f77048196fdb",
                    "revert": true,
                    "revertMessage": "",
                    "selector": "0x70a08231",
                    "status": true,
                    "value": "0"
                },
                "nodeType": 0
            },
            "14": {
                "invocation": {
                    "address": "0xd1997064f0fef8748c1de9b5ba53468c548738b3",
                    "callData": "0x42616e636f72466f726d756c6100000000000000000000000000000000000000",
                    "decodedMethod": {
                        "callParams": [
                            {
                                "name": "_contractName",
                                "type": "bytes32",
                                "value": "0x42616e636f72466f726d756c6100000000000000000000000000000000000000"
                            }
                        ],
                        "constructorArguments": "",
                        "name": "getAddress",
                        "returnParams": [
                            {
                                "name": "",
                                "type": "address",
                                "value": "0xffd2de852b694f88656e91d9defa6b425c454742"
                            }
                        ],
                        "signature": "getAddress(bytes32)"
                    },
                    "errorInfo": "",
                    "fromAddress": "0x8c2036ce61648fcddffb06d6d11fe0b479ed63fe",
                    "gasUsed": 460,
                    "id": 14,
                    "methodDecoded": true,
                    "operation": "CALL",
                    "output": "0x000000000000000000000000ffd2de852b694f88656e91d9defa6b425c454742",
                    "revert": true,
                    "revertMessage": "",
                    "selector": "0x21f8a721",
                    "status": true,
                    "value": "0"
                },
                "nodeType": 0
            },
            "15": {
                "invocation": {
                    "address": "0xffd2de852b694f88656e91d9defa6b425c454742",
                    "callData": "0x000000000000000000000000000000000000000000002cc644ab2788ec517f86000000000000000000000000000000000000000000000000000000000007a1200000000000000000000000000000000000000000000000000007f77048196fdb000000000000000000000000000000000000000000000000000000000007a12000000000000000000000000000000000000000000000001be69b5b35937115d9",
                    "decodedMethod": {
                        "callParams": [
                            {
                                "name": "_fromConnectorBalance",
                                "type": "uint256",
                                "value": "211,441,528,664,943,511,043,974"
                            },
                            {
                                "name": "_fromConnectorWeight",
                                "type": "uint32",
                                "value": "500,000"
                            },
                            {
                                "name": "_toConnectorBalance",
                                "type": "uint256",
                                "value": "2,242,386,454,999,003"
                            },
                            {
                                "name": "_toConnectorWeight",
                                "type": "uint32",
                                "value": "500,000"
                            },
                            {
                                "name": "_amount",
                                "type": "uint256",
                                "value": "514,679,065,525,936,526,809"
                            }
                        ],
                        "constructorArguments": "",
                        "name": "calculateCrossConnectorReturn",
                        "returnParams": [
                            {
                                "name": "",
                                "type": "uint256",
                                "value": "5,445,036,866,646"
                            }
                        ],
                        "signature": "calculateCrossConnectorReturn(uint256,uint32,uint256,uint32,uint256)"
                    },
                    "errorInfo": "",
                    "fromAddress": "0x8c2036ce61648fcddffb06d6d11fe0b479ed63fe",
                    "gasUsed": 842,
                    "id": 15,
                    "methodDecoded": true,
                    "operation": "CALL",
                    "output": "0x000000000000000000000000000000000000000000000000000004f3c57cfc56",
                    "revert": true,
                    "revertMessage": "",
                    "selector": "0x65098bb3",
                    "status": true,
                    "value": "0"
                },
                "nodeType": 0
            },
            "2": {
                "invocation": {
                    "address": "0x798abda6cc246d0edba912092a2a3dbd3d11191b",
                    "callData": "0x0000000000000000000000000e0989b1f9b8a38983c2ba8053269ca62ec9b19500000000000000000000000000000000000000000000000000000000008335850000000000000000000000000000000000000000000000000000000000000000000000000000000000000000000000000000000000000000000005043bb801e2",
                    "decodedMethod": {
                        "callParams": [
                            {
                                "name": "token",
                                "type": "address",
                                "value": "0x0e0989b1f9b8a38983c2ba8053269ca62ec9b195"
                            },
                            {
                                "name": "currentBlockNumber",
                                "type": "uint256",
                                "value": "8,598,917"
                            },
                            {
                                "name": "buy",
                                "type": "bool",
                                "value": false
                            },
                            {
                                "name": "qty",
                                "type": "uint256",
                                "value": "5,515,739,922,914"
                            }
                        ],
                        "constructorArguments": "",
                        "name": "getRate",
                        "returnParams": [
                            {
                                "name": "",
                                "type": "uint256",
                                "value": "18,072,450,595,037"
                            }
                        ],
                        "signature": "getRate(address,uint256,bool,uint256)"
                    },
                    "errorInfo": "",
                    "fromAddress": "0xdb8587d50f1289b418931a11a3e029506d100184",
                    "gasUsed": 19512,
                    "id": 2,
                    "methodDecoded": true,
                    "operation": "CALL",
                    "output": "0x0000000000000000000000000000000000000000000000000000106fd1ff78dd",
                    "revert": true,
                    "revertMessage": "",
                    "selector": "0xb8e9c22e",
                    "status": true,
                    "value": "0"
                },
                "nodeType": 0
            },
            "3": {
                "invocation": {
                    "address": "0xdb8587d50f1289b418931a11a3e029506d100184",
                    "callData": "0x0000000000000000000000008c2036ce61648fcddffb06d6d11fe0b479ed63fe0000000000000000000000000e0989b1f9b8a38983c2ba8053269ca62ec9b1950000000000000000000000000000000000000000000000000db89e26d209cbbb000000000000000000000000000000000000000000000000000004fd9cba3016",
                    "decodedMethod": null,
                    "errorInfo": "execution reverted",
                    "fromAddress": "0x85c5c26dc2af5546341fc1988b9d178148b4838b",
                    "gasUsed": 41907,
                    "id": 3,
                    "methodDecoded": false,
                    "operation": "CALL",
                    "output": "",
                    "revert": true,
                    "revertMessage": "",
                    "selector": "0xcf8ce8df",
                    "status": false,
                    "value": "0"
                },
                "nodeType": 0
            },
            "4": {
                "invocation": {
                    "address": "0xcbc6a023eb975a1e2630223a7959988948e664f3",
                    "callData": "0x000000000000000000000000c0829421c1d260bd3cb3e0f06cfe2d52db2ce3150000000000000000000000001f573d6fb3f13d689ff844b4ce37794d79a7ff1c0000000000000000000000000000000000000000000000000db89e26d209cbbb",
                    "decodedMethod": {
                        "callParams": [
                            {
                                "name": "_fromToken",
                                "type": "address",
                                "value": "0xc0829421c1d260bd3cb3e0f06cfe2d52db2ce315"
                            },
                            {
                                "name": "_toToken",
                                "type": "address",
                                "value": "0x1f573d6fb3f13d689ff844b4ce37794d79a7ff1c"
                            },
                            {
                                "name": "_amount",
                                "type": "uint256",
                                "value": "988,714,007,777,627,067"
                            }
                        ],
                        "constructorArguments": "",
                        "name": "getReturn",
                        "returnParams": [
                            {
                                "name": "",
                                "type": "uint256",
                                "value": "514,679,065,525,936,526,809"
                            },
                            {
                                "name": "",
                                "type": "uint256",
                                "value": "0"
                            }
                        ],
                        "signature": "getReturn(address,address,uint256)"
                    },
                    "errorInfo": "",
                    "fromAddress": "0xdb8587d50f1289b418931a11a3e029506d100184",
                    "gasUsed": 19511,
                    "id": 4,
                    "methodDecoded": true,
                    "operation": "CALL",
                    "output": "0x00000000000000000000000000000000000000000000001be69b5b35937115d90000000000000000000000000000000000000000000000000000000000000000",
                    "revert": true,
                    "revertMessage": "",
                    "selector": "0x1e1401f8",
                    "status": true,
                    "value": "0"
                },
                "nodeType": 0
            },
            "5": {
                "invocation": {
                    "address": "0x1f573d6fb3f13d689ff844b4ce37794d79a7ff1c",
                    "callData": "0x",
                    "decodedMethod": {
                        "callParams": [],
                        "constructorArguments": "",
                        "name": "owner",
                        "returnParams": [
                            {
                                "name": "",
                                "type": "address",
                                "value": "0xcbc6a023eb975a1e2630223a7959988948e664f3"
                            }
                        ],
                        "signature": "owner()"
                    },
                    "errorInfo": "",
                    "fromAddress": "0xcbc6a023eb975a1e2630223a7959988948e664f3",
                    "gasUsed": 790,
                    "id": 5,
                    "methodDecoded": true,
                    "operation": "CALL",
                    "output": "0x000000000000000000000000cbc6a023eb975a1e2630223a7959988948e664f3",
                    "revert": true,
                    "revertMessage": "",
                    "selector": "0x8da5cb5b",
                    "status": true,
                    "value": "0"
                },
                "nodeType": 0
            },
            "6": {
                "invocation": {
                    "address": "0x1f573d6fb3f13d689ff844b4ce37794d79a7ff1c",
                    "callData": "0x",
                    "decodedMethod": {
                        "callParams": [],
                        "constructorArguments": "",
                        "name": "totalSupply",
                        "returnParams": [
                            {
                                "name": "",
                                "type": "uint256",
                                "value": "68,410,181,954,392,596,800,253,157"
                            }
                        ],
                        "signature": "totalSupply()"
                    },
                    "errorInfo": "",
                    "fromAddress": "0xcbc6a023eb975a1e2630223a7959988948e664f3",
                    "gasUsed": 439,
                    "id": 6,
                    "methodDecoded": true,
                    "operation": "CALL",
                    "output": "0x00000000000000000000000000000000000000000038966b650e9a0d467eace5",
                    "revert": true,
                    "revertMessage": "",
                    "selector": "0x18160ddd",
                    "status": true,
                    "value": "0"
                },
                "nodeType": 0
            },
            "7": {
                "invocation": {
                    "address": "0xc0829421c1d260bd3cb3e0f06cfe2d52db2ce315",
                    "callData": "0x000000000000000000000000cbc6a023eb975a1e2630223a7959988948e664f3",
                    "decodedMethod": {
                        "callParams": [
                            {
                                "name": "",
                                "type": "address",
                                "value": "0xcbc6a023eb975a1e2630223a7959988948e664f3"
                            }
                        ],
                        "constructorArguments": "",
                        "name": "balanceOf",
                        "returnParams": [
                            {
                                "decimalAvailable": true,
                                "name": "",
                                "type": "uint256",
                                "value": "13,141,357,365,795,793,244,702"
                            }
                        ],
                        "signature": "balanceOf(address)"
                    },
                    "errorInfo": "",
                    "fromAddress": "0xcbc6a023eb975a1e2630223a7959988948e664f3",
                    "gasUsed": 715,
                    "id": 7,
                    "methodDecoded": true,
                    "operation": "CALL",
                    "output": "0x0000000000000000000000000000000000000000000002c864f8124bc155921e",
                    "revert": true,
                    "revertMessage": "",
                    "selector": "0x70a08231",
                    "status": true,
                    "value": "0"
                },
                "nodeType": 0
            },
            "8": {
                "invocation": {
                    "address": "0x52ae12abe5d8bd778bd5397f99ca900624cfadd4",
                    "callData": "0x42616e636f72466f726d756c6100000000000000000000000000000000000000",
                    "decodedMethod": {
                        "callParams": [
                            {
                                "name": "_contractName",
                                "type": "bytes32",
                                "value": "0x42616e636f72466f726d756c6100000000000000000000000000000000000000"
                            }
                        ],
                        "constructorArguments": "",
                        "name": "addressOf",
                        "returnParams": [
                            {
                                "name": "",
                                "type": "address",
                                "value": "0xffd2de852b694f88656e91d9defa6b425c454742"
                            }
                        ],
                        "signature": "addressOf(bytes32)"
                    },
                    "errorInfo": "",
                    "fromAddress": "0xcbc6a023eb975a1e2630223a7959988948e664f3",
                    "gasUsed": 961,
                    "id": 8,
                    "methodDecoded": true,
                    "operation": "CALL",
                    "output": "0x000000000000000000000000ffd2de852b694f88656e91d9defa6b425c454742",
                    "revert": true,
                    "revertMessage": "",
                    "selector": "0xbb34534c",
                    "status": true,
                    "value": "0"
                },
                "nodeType": 0
            },
            "9": {
                "invocation": {
                    "address": "0xffd2de852b694f88656e91d9defa6b425c454742",
                    "callData": "0x00000000000000000000000000000000000000000038966b650e9a0d467eace50000000000000000000000000000000000000000000002c864f8124bc155921e00000000000000000000000000000000000000000000000000000000000186a00000000000000000000000000000000000000000000000000db89e26d209cbbb",
                    "decodedMethod": {
                        "callParams": [
                            {
                                "name": "_supply",
                                "type": "uint256",
                                "value": "68,410,181,954,392,596,800,253,157"
                            },
                            {
                                "name": "_connectorBalance",
                                "type": "uint256",
                                "value": "13,141,357,365,795,793,244,702"
                            },
                            {
                                "name": "_connectorWeight",
                                "type": "uint32",
                                "value": "100,000"
                            },
                            {
                                "name": "_depositAmount",
                                "type": "uint256",
                                "value": "988,714,007,777,627,067"
                            }
                        ],
                        "constructorArguments": "",
                        "name": "calculatePurchaseReturn",
                        "returnParams": [
                            {
                                "name": "",
                                "type": "uint256",
                                "value": "514,679,065,525,936,526,809"
                            }
                        ],
                        "signature": "calculatePurchaseReturn(uint256,uint256,uint32,uint256)"
                    },
                    "errorInfo": "",
                    "fromAddress": "0xcbc6a023eb975a1e2630223a7959988948e664f3",
                    "gasUsed": 3323,
                    "id": 9,
                    "methodDecoded": true,
                    "operation": "CALL",
                    "output": "0x00000000000000000000000000000000000000000000001be69b5b35937115d9",
                    "revert": true,
                    "revertMessage": "",
                    "selector": "0x29a00e7c",
                    "status": true,
                    "value": "0"
                },
                "nodeType": 0
            }
        },
        "gasFlame": [
            {
                "children": [
                    {
                        "children": [
                            {
                                "children": [],
                                "depth": 0,
                                "name": "Initial Gas",
                                "value": 53656
                            },
                            {
                                "children": [
                                    {
                                        "children": [
                                            {
                                                "children": [],
                                                "depth": 2,
                                                "name": "getRate",
                                                "value": 19512
                                            }
                                        ],
                                        "depth": 1,
                                        "name": "0xcf0b3890",
                                        "value": 21993
                                    },
                                    {
                                        "children": [
                                            {
                                                "children": [
                                                    {
                                                        "children": [],
                                                        "depth": 3,
                                                        "name": "owner",
                                                        "value": 790
                                                    },
                                                    {
                                                        "children": [],
                                                        "depth": 3,
                                                        "name": "totalSupply",
                                                        "value": 439
                                                    },
                                                    {
                                                        "children": [],
                                                        "depth": 3,
                                                        "name": "balanceOf",
                                                        "value": 715
                                                    },
                                                    {
                                                        "children": [],
                                                        "depth": 3,
                                                        "name": "addressOf",
                                                        "value": 961
                                                    },
                                                    {
                                                        "children": [],
                                                        "depth": 3,
                                                        "name": "calculatePurchaseReturn",
                                                        "value": 3323
                                                    }
                                                ],
                                                "depth": 2,
                                                "name": "getReturn",
                                                "value": 19511
                                            },
                                            {
                                                "children": [
                                                    {
                                                        "children": [],
                                                        "depth": 3,
                                                        "name": "owner",
                                                        "value": 790
                                                    },
                                                    {
                                                        "children": [],
                                                        "depth": 3,
                                                        "name": "balanceOf",
                                                        "value": 718
                                                    },
                                                    {
                                                        "children": [],
                                                        "depth": 3,
                                                        "name": "balanceOf",
                                                        "value": 769
                                                    },
                                                    {
                                                        "children": [],
                                                        "depth": 3,
                                                        "name": "getAddress",
                                                        "value": 460
                                                    },
                                                    {
                                                        "children": [],
                                                        "depth": 3,
                                                        "name": "calculateCrossConnectorReturn",
                                                        "value": 842
                                                    }
                                                ],
                                                "depth": 2,
                                                "name": "getReturn",
                                                "value": 18203
                                            }
                                        ],
                                        "depth": 1,
                                        "name": "0xcf8ce8df",
                                        "value": 41907
                                    }
                                ],
                                "depth": 0,
                                "name": "Executed Gas",
                                "value": 67514
                            }
                        ],
                        "depth": -1,
                        "name": "Actual Gas Used",
                        "value": 121170
                    },
                    {
                        "children": [],
                        "depth": -1,
                        "name": "Refunded Gas",
                        "value": 0
                    }
                ],
                "depth": -2,
                "name": "Total Gas",
                "value": 121170
            }
        ],
        "isConfirmed": true,
        "mainTrace": [
            {
                "children": [
                    {
                        "children": [
                            {
                                "children": [
                                    {
                                        "children": [],
                                        "depth": 2,
                                        "id": 2,
                                        "order": 2
                                    }
                                ],
                                "depth": 1,
                                "id": 1,
                                "order": 1
                            },
                            {
                                "children": [
                                    {
                                        "children": [
                                            {
                                                "children": [],
                                                "depth": 3,
                                                "id": 5,
                                                "order": 5
                                            },
                                            {
                                                "children": [],
                                                "depth": 3,
                                                "id": 6,
                                                "order": 6
                                            },
                                            {
                                                "children": [],
                                                "depth": 3,
                                                "id": 7,
                                                "order": 7
                                            },
                                            {
                                                "children": [],
                                                "depth": 3,
                                                "id": 8,
                                                "order": 8
                                            },
                                            {
                                                "children": [],
                                                "depth": 3,
                                                "id": 9,
                                                "order": 9
                                            }
                                        ],
                                        "depth": 2,
                                        "id": 4,
                                        "order": 4
                                    },
                                    {
                                        "children": [
                                            {
                                                "children": [],
                                                "depth": 3,
                                                "id": 11,
                                                "order": 11
                                            },
                                            {
                                                "children": [],
                                                "depth": 3,
                                                "id": 12,
                                                "order": 12
                                            },
                                            {
                                                "children": [],
                                                "depth": 3,
                                                "id": 13,
                                                "order": 13
                                            },
                                            {
                                                "children": [],
                                                "depth": 3,
                                                "id": 14,
                                                "order": 14
                                            },
                                            {
                                                "children": [],
                                                "depth": 3,
                                                "id": 15,
                                                "order": 15
                                            }
                                        ],
                                        "depth": 2,
                                        "id": 10,
                                        "order": 10
                                    }
                                ],
                                "depth": 1,
                                "id": 3,
                                "order": 3
                            }
                        ],
                        "depth": 0,
                        "id": 0,
                        "order": 0
                    }
                ],
                "depth": -1,
                "id": -1,
                "order": -1
            }
        ],
        "mainTraceNodeCount": 16,
        "parentIdMap": {
            "0": -1,
            "1": 0,
            "10": 3,
            "11": 10,
            "12": 10,
            "13": 10,
            "14": 10,
            "15": 10,
            "2": 1,
            "3": 0,
            "4": 3,
            "5": 4,
            "6": 4,
            "7": 4,
            "8": 4,
            "9": 4
        },
        "tidyTrace": [
            {
                "children": [
                    {
                        "children": [
                            {
                                "children": [
                                    {
                                        "children": [],
                                        "depth": 2,
                                        "id": 2,
                                        "order": 2
                                    }
                                ],
                                "depth": 1,
                                "id": 1,
                                "order": 1
                            },
                            {
                                "children": [
                                    {
                                        "children": [
                                            {
                                                "children": [],
                                                "depth": 3,
                                                "id": 5,
                                                "order": 5
                                            },
                                            {
                                                "children": [],
                                                "depth": 3,
                                                "id": 6,
                                                "order": 6
                                            },
                                            {
                                                "children": [],
                                                "depth": 3,
                                                "id": 7,
                                                "order": 7
                                            },
                                            {
                                                "children": [],
                                                "depth": 3,
                                                "id": 8,
                                                "order": 8
                                            },
                                            {
                                                "children": [],
                                                "depth": 3,
                                                "id": 9,
                                                "order": 9
                                            }
                                        ],
                                        "depth": 2,
                                        "id": 4,
                                        "order": 4
                                    },
                                    {
                                        "children": [
                                            {
                                                "children": [],
                                                "depth": 3,
                                                "id": 11,
                                                "order": 11
                                            },
                                            {
                                                "children": [],
                                                "depth": 3,
                                                "id": 12,
                                                "order": 12
                                            },
                                            {
                                                "children": [],
                                                "depth": 3,
                                                "id": 13,
                                                "order": 13
                                            },
                                            {
                                                "children": [],
                                                "depth": 3,
                                                "id": 14,
                                                "order": 14
                                            },
                                            {
                                                "children": [],
                                                "depth": 3,
                                                "id": 15,
                                                "order": 15
                                            }
                                        ],
                                        "depth": 2,
                                        "id": 10,
                                        "order": 10
                                    }
                                ],
                                "depth": 1,
                                "id": 3,
                                "order": 3
                            }
                        ],
                        "depth": 0,
                        "id": 0,
                        "order": 0
                    }
                ],
                "depth": -1,
                "id": -1,
                "order": -1
            }
        ],
        "tidyTraceNodeCount": 16
    },
    "state_change": {
        "stateChanges": []
    }
}