{
    "balance_change": {
        "balanceChanges": []
    },
    "profile": {
        "basic_info": {
            "baseFee": "",
            "blockNumber": 4267718,
            "callData": "0x0a19b14a00000000000000000000000000000000000000000000000000000000000000000000000000000000000000000000000000000000000000002e2c4026c64fb000000000000000000000000000af4dce16da2877f8c9e00544c93b62ac40631f1600000000000000000000000000000000000000000000000000000000179bc2bc00000000000000000000000000000000000000000000000000000000004145a200000000000000000000000000000000000000000000000000000000b60a2941000000000000000000000000f9ee50869173885f21c1206ce16fbaa380a78a80000000000000000000000000000000000000000000000000000000000000001b9b3f777a0d7712224d97e6eea723f5e05db53c4f7b10b9a31c760f03e467463907e78eab4b77082e786d51e330293c4c3a659eb1bcfe93ead8dd5d7b14120a150000000000000000000000000000000000000000000000000ac1b9dabc718000",
            "debugEnable": true,
            "errorInfo": "invalid jump destination",
            "eventCount": 0,
            "feeRecipient": "0xb2930b35844a230f00e51431acae96fe543a0347",
            "formatValue": "0",
            "gasLimit": 250000,
            "gasPrice": "4",
            "gasUsed": 250000,
            "intTxnCount": 2,
            "internalRevert": true,
            "internalRevertMessage": "",
            "isContractCreation": false,
            "isFlashloan": false,
            "maxFee": "",
            "nonce": 86,
            "overwritedBlockNumber": -1,
            "priorityFee": "",
            "receiver": "0x8d12a197cb00d4747a1fe03395095ce2a5cc6819",
            "revertMessage": "",
            "sender": "0x0f7830971b2def5206466662d395285955ee9bf0",
            "simulationEnable": true,
            "sourceTxnHash": "0xc6be3b83a20fb5e2178347fd323b5353b0319ada0bc0611c395f0517dc9f3c9b",
            "status": false,
            "timestamp": "2017-09-13T00:25:49Z",
            "transactionFee": "0.001",
            "txnHash": "0xc6be3b83a20fb5e2178347fd323b5353b0319ada0bc0611c395f0517dc9f3c9b",
            "txnIndex": 46,
            "type": 0,
            "value": "0"
        },
        "fund_flow": [],
        "token_infos": [
            {
                "address": "0xc02aaa39b223fe8d0a0e5c4f27ead9083c756cc2",
                "decimals": 18
            },
            {
                "address": "0xeeeeeeeeeeeeeeeeeeeeeeeeeeeeeeeeeeeeeeee",
                "decimals": 18
            }
        ]
    },
    "address_label": {
        "labels": [
            {
                "address": "0x0000000000000000000000000000000000000001",
                "label": "Precompiled"
            },
            {
                "address": "0x0000000000000000000000000000000000000003",
                "label": "Precompiled"
            },
            {
                "address": "0x0000000000000000000000000000000000000004",
                "label": "Precompiled"
            },
            {
                "address": "0xeeeeeeeeeeeeeeeeeeeeeeeeeeeeeeeeeeeeeeee",
                "label": "Ether"
            },
            {
                "address": "0x8d12a197cb00d4747a1fe03395095ce2a5cc6819",
                "label": "EtherDelta"
            },
            {
                "address": "0xaf4dce16da2877f8c9e00544c93b62ac40631f16",
                "label": "Monetha Token"
            },
            {
                "address": "0x0000000000000000000000000000000000000002",
                "label": "Precompiled"
            },
            {
                "address": "0x0000000000000000000000000000000000000000",
                "label": "Null Address"
            }
        ]
    },
    "trace": {
        "accountLabels": null,
        "dataMap": {
            "-1": {
                "invocation": {
                    "address": "0x0f7830971b2def5206466662d395285955ee9bf0",
                    "callData": "",
                    "decodedMethod": null,
                    "errorInfo": "",
                    "fromAddress": "",
                    "gasUsed": 0,
                    "id": -1,
                    "methodDecoded": false,
                    "operation": "",
                    "output": "",
                    "revert": false,
                    "revertMessage": "",
                    "selector": "",
                    "status": false,
                    "value": ""
                },
                "nodeType": 0
            },
            "0": {
                "invocation": {
                    "address": "0x8d12a197cb00d4747a1fe03395095ce2a5cc6819",
                    "callData": "0x00000000000000000000000000000000000000000000000000000000000000000000000000000000000000000000000000000000000000002e2c4026c64fb000000000000000000000000000af4dce16da2877f8c9e00544c93b62ac40631f1600000000000000000000000000000000000000000000000000000000179bc2bc00000000000000000000000000000000000000000000000000000000004145a200000000000000000000000000000000000000000000000000000000b60a2941000000000000000000000000f9ee50869173885f21c1206ce16fbaa380a78a80000000000000000000000000000000000000000000000000000000000000001b9b3f777a0d7712224d97e6eea723f5e05db53c4f7b10b9a31c760f03e467463907e78eab4b77082e786d51e330293c4c3a659eb1bcfe93ead8dd5d7b14120a150000000000000000000000000000000000000000000000000ac1b9dabc718000",
                    "decodedMethod": {
                        "callParams": [
                            {
                                "name": "tokenGet",
                                "type": "address",
                                "value": "0x0000000000000000000000000000000000000000"
                            },
                            {
                                "name": "amountGet",
                                "type": "uint256",
                                "value": "3,327,104,760,000,000,000"
                            },
                            {
                                "name": "tokenGive",
                                "type": "address",
                                "value": "0xaf4dce16da2877f8c9e00544c93b62ac40631f16"
                            },
                            {
                                "name": "amountGive",
                                "type": "uint256",
                                "value": "396,083,900"
                            },
                            {
                                "name": "expires",
                                "type": "uint256",
                                "value": "4,277,666"
                            },
                            {
                                "name": "nonce",
                                "type": "uint256",
                                "value": "3,054,119,233"
                            },
                            {
                                "name": "user",
                                "type": "address",
                                "value": "0xf9ee50869173885f21c1206ce16fbaa380a78a80"
                            },
                            {
                                "name": "v",
                                "type": "uint8",
                                "value": "27"
                            },
                            {
                                "name": "r",
                                "type": "bytes32",
                                "value": "0x9b3f777a0d7712224d97e6eea723f5e05db53c4f7b10b9a31c760f03e4674639"
                            },
                            {
                                "name": "s",
                                "type": "bytes32",
                                "value": "0x07e78eab4b77082e786d51e330293c4c3a659eb1bcfe93ead8dd5d7b14120a15"
                            },
                            {
                                "name": "amount",
                                "type": "uint256",
                                "value": "775,104,960,000,000,000"
                            }
                        ],
                        "constructorArguments": "",
                        "name": "trade",
                        "returnParams": [],
                        "signature": "trade(address,uint256,address,uint256,uint256,uint256,address,uint8,bytes32,bytes32,uint256)"
                    },
                    "errorInfo": "invalid jump destination",
                    "fromAddress": "0x0f7830971b2def5206466662d395285955ee9bf0",
                    "gasUsed": 250000,
                    "id": 0,
                    "methodDecoded": true,
                    "operation": "CALL",
                    "output": "",
                    "revert": true,
                    "revertMessage": "",
                    "selector": "0x0a19b14a",
                    "status": false,
                    "value": "0"
                },
                "nodeType": 0
            },
            "1": {
                "invocation": {
                    "address": "0x0000000000000000000000000000000000000002",
                    "callData": "0xcb00d4747a1fe03395095ce2a5cc681900000000000000000000000000000000000000000000000000000000000000000000000000000000000000002e2c4026c64fb000af4dce16da2877f8c9e00544c93b62ac40631f1600000000000000000000000000000000000000000000000000000000179bc2bc00000000000000000000000000000000000000000000000000000000004145a200000000000000000000000000000000000000000000000000000000b60a2941",
                    "decodedMethod": {
                        "callParams": [
                            {
                                "name": "data",
                                "type": "bytes",
                                "value": "0x8d12a197cb00d4747a1fe03395095ce2a5cc681900000000000000000000000000000000000000000000000000000000000000000000000000000000000000002e2c4026c64fb000af4dce16da2877f8c9e00544c93b62ac40631f1600000000000000000000000000000000000000000000000000000000179bc2bc00000000000000000000000000000000000000000000000000000000004145a200000000000000000000000000000000000000000000000000000000b60a2941"
                            }
                        ],
                        "constructorArguments": "",
                        "name": "sha256hash",
                        "returnParams": [
                            {
                                "name": "hash",
                                "type": "bytes32",
                                "value": "0xc13556cbd9c2ff93683eab63f997d6f6e1850f9ce8fc0dc056fc665bc191e151"
                            }
                        ],
                        "signature": "sha256hash(bytes)"
                    },
                    "errorInfo": "",
                    "fromAddress": "0x8d12a197cb00d4747a1fe03395095ce2a5cc6819",
                    "gasUsed": 132,
                    "id": 1,
                    "methodDecoded": true,
                    "operation": "CALL",
                    "output": "0xc13556cbd9c2ff93683eab63f997d6f6e1850f9ce8fc0dc056fc665bc191e151",
                    "revert": true,
                    "revertMessage": "",
                    "selector": "0x8d12a197",
                    "status": true,
                    "value": "0"
                },
                "nodeType": 0
            },
            "2": {
                "invocation": {
                    "address": "0x0000000000000000000000000000000000000001",
                    "callData": "0x2b3912873ca7ed8da557877509ad822e89156ea400203e4431edbefa000000000000000000000000000000000000000000000000000000000000001b9b3f777a0d7712224d97e6eea723f5e05db53c4f7b10b9a31c760f03e467463907e78eab4b77082e786d51e330293c4c3a659eb1bcfe93ead8dd5d7b14120a15",
                    "decodedMethod": {
                        "callParams": [
                            {
                                "name": "hash",
                                "type": "bytes32",
                                "value": "0xc77968a32b3912873ca7ed8da557877509ad822e89156ea400203e4431edbefa"
                            },
                            {
                                "name": "v",
                                "type": "uint256",
                                "value": "27"
                            },
                            {
                                "name": "r",
                                "type": "bytes32",
                                "value": "0x9b3f777a0d7712224d97e6eea723f5e05db53c4f7b10b9a31c760f03e4674639"
                            },
                            {
                                "name": "s",
                                "type": "bytes32",
                                "value": "0x07e78eab4b77082e786d51e330293c4c3a659eb1bcfe93ead8dd5d7b14120a15"
                            }
                        ],
                        "constructorArguments": "",
                        "name": "ecrecover",
                        "returnParams": [
                            {
                                "name": "",
                                "type": "address",
                                "value": "0xf9ee50869173885f21c1206ce16fbaa380a78a80"
                            }
                        ],
                        "signature": "ecrecover(bytes32,uint256,bytes32,bytes32)"
                    },
                    "errorInfo": "",
                    "fromAddress": "0x8d12a197cb00d4747a1fe03395095ce2a5cc6819",
                    "gasUsed": 3000,
                    "id": 2,
                    "methodDecoded": true,
                    "operation": "CALL",
                    "output": "0x000000000000000000000000f9ee50869173885f21c1206ce16fbaa380a78a80",
                    "revert": true,
                    "revertMessage": "",
                    "selector": "0xc77968a3",
                    "status": true,
                    "value": "0"
                },
                "nodeType": 0
            }
        },
        "gasFlame": [
            {
                "children": [
                    {
                        "children": [
                            {
                                "children": [],
                                "depth": 0,
                                "name": "Initial Gas",
                                "value": 31000
                            },
                            {
                                "children": [
                                    {
                                        "children": [],
                                        "depth": 1,
                                        "name": "sha256hash",
                                        "value": 132
                                    },
                                    {
                                        "children": [],
                                        "depth": 1,
                                        "name": "ecrecover",
                                        "value": 3000
                                    }
                                ],
                                "depth": 0,
                                "name": "Executed Gas",
                                "value": 219000
                            }
                        ],
                        "depth": -1,
                        "name": "Actual Gas Used",
                        "value": 250000
                    },
                    {
                        "children": [],
                        "depth": -1,
                        "name": "Refunded Gas",
                        "value": 0
                    }
                ],
                "depth": -2,
                "name": "Total Gas",
                "value": 250000
            }
        ],
        "isConfirmed": true,
        "mainTrace": [
            {
                "children": [
                    {
                        "children": [
                            {
                                "children": [],
                                "depth": 1,
                                "id": 1,
                                "order": 1
                            },
                            {
                                "children": [],
                                "depth": 1,
                                "id": 2,
                                "order": 2
                            }
                        ],
                        "depth": 0,
                        "id": 0,
                        "order": 0
                    }
                ],
                "depth": -1,
                "id": -1,
                "order": -1
            }
        ],
        "mainTraceNodeCount": 3,
        "parentIdMap": {
            "0": -1,
            "1": 0,
            "2": 0
        },
        "tidyTrace": [
            {
                "children": [
                    {
                        "children": [
                            {
                                "children": [],
                                "depth": 1,
                                "id": 1,
                                "order": 1
                            },
                            {
                                "children": [],
                                "depth": 1,
                                "id": 2,
                                "order": 2
                            }
                        ],
                        "depth": 0,
                        "id": 0,
                        "order": 0
                    }
                ],
                "depth": -1,
                "id": -1,
                "order": -1
            }
        ],
        "tidyTraceNodeCount": 3
    },
    "state_change": {
        "stateChanges": []
    }
}