{
    "balance_change": {
        "balanceChanges": [
            {
                "account": "0x2420281153bbbc981b498bfa001e0cfac58d2f0a",
                "assets": [
                    {
                        "address": "0xdd974d5c2e2928dea5f71b9825b8b646686bd200",
                        "amount": "11,100",
                        "iconUrl": "https://assets.blocksec.com/icon/7af75e1543b2a7e424399ceec39d346a3492570fbcc8f496f1a4601b773a615d.png",
                        "isERC1155": false,
                        "isERC721": false,
                        "sign": false,
                        "value": "9787.490914"
                    }
                ]
            },
            {
                "account": "0x24434ebf296c2f9cd59b14412aae5c4ca1d5aad2",
                "assets": [
                    {
                        "address": "0xdd974d5c2e2928dea5f71b9825b8b646686bd200",
                        "amount": "11,100",
                        "iconUrl": "https://assets.blocksec.com/icon/7af75e1543b2a7e424399ceec39d346a3492570fbcc8f496f1a4601b773a615d.png",
                        "isERC1155": false,
                        "isERC721": false,
                        "sign": true,
                        "value": "9787.490914"
                    }
                ]
            }
        ]
    },
    "profile": {
        "basic_info": {
            "baseFee": "",
            "blockNumber": 11597787,
            "callData": "0xa9059cbb00000000000000000000000024434ebf296c2f9cd59b14412aae5c4ca1d5aad2000000000000000000000000000000000000000000000259bb71d5adf3f00000",
            "debugEnable": true,
            "errorInfo": "",
            "eventCount": 1,
            "feeRecipient": "0xea674fdde714fd979de3edf0f56aa9716b898ec8",
            "formatValue": "0",
            "gasLimit": 210000,
            "gasPrice": "132",
            "gasUsed": 22509,
            "intTxnCount": 0,
            "internalRevert": false,
            "internalRevertMessage": "",
            "isContractCreation": false,
            "isFlashloan": false,
            "maxFee": "",
            "nonce": 9017,
            "overwritedBlockNumber": -1,
            "priorityFee": "",
            "receiver": "0xdd974d5c2e2928dea5f71b9825b8b646686bd200",
            "revertMessage": "",
            "sender": "0x2420281153bbbc981b498bfa001e0cfac58d2f0a",
            "simulationEnable": true,
            "sourceTxnHash": "0xc626a75001b1bfda940e2faabf1c806f9dbc72cd4f08af4fe5cdd9060f304f04",
            "status": true,
            "timestamp": "2021-01-06T00:19:31Z",
            "transactionFee": "0.002971188",
            "txnHash": "0xc626a75001b1bfda940e2faabf1c806f9dbc72cd4f08af4fe5cdd9060f304f04",
            "txnIndex": 168,
            "type": 0,
            "value": "0"
        },
        "fund_flow": [
            {
                "amount": "11,100",
                "from": "0x2420281153bbbc981b498bfa001e0cfac58d2f0a",
                "id": 1,
                "isERC1155": false,
                "isERC721": false,
                "isReverted": false,
                "order": 1,
                "to": "0x24434ebf296c2f9cd59b14412aae5c4ca1d5aad2",
                "token": "0xdd974d5c2e2928dea5f71b9825b8b646686bd200"
            }
        ],
        "token_infos": [
            {
                "address": "0xc02aaa39b223fe8d0a0e5c4f27ead9083c756cc2",
                "decimals": 18
            },
            {
                "address": "0xdd974d5c2e2928dea5f71b9825b8b646686bd200",
                "decimals": 18
            },
            {
                "address": "0xeeeeeeeeeeeeeeeeeeeeeeeeeeeeeeeeeeeeeeee",
                "decimals": 18
            }
        ]
    },
    "address_label": {
        "labels": [
            {
                "address": "0x0000000000000000000000000000000000000004",
                "label": "Precompiled"
            },
            {
                "address": "0xeeeeeeeeeeeeeeeeeeeeeeeeeeeeeeeeeeeeeeee",
                "label": "Ether"
            },
            {
                "address": "0x24434ebf296c2f9cd59b14412aae5c4ca1d5aad2",
                "label": "BITHUMB"
            },
            {
                "address": "0xdd974d5c2e2928dea5f71b9825b8b646686bd200",
                "label": "Kyber: Old KNC Token"
            },
            {
                "address": "0x0000000000000000000000000000000000000001",
                "label": "Precompiled"
            },
            {
                "address": "0x0000000000000000000000000000000000000002",
                "label": "Precompiled"
            },
            {
                "address": "0x0000000000000000000000000000000000000003",
                "label": "Precompiled"
            }
        ]
    },
    "trace": {
        "accountLabels": null,
        "dataMap": {
            "-1": {
                "invocation": {
                    "address": "0x2420281153bbbc981b498bfa001e0cfac58d2f0a",
                    "callData": "",
                    "decodedMethod": null,
                    "errorInfo": "",
                    "fromAddress": "",
                    "gasUsed": 0,
                    "id": -1,
                    "methodDecoded": false,
                    "operation": "",
                    "output": "",
                    "revert": false,
                    "revertMessage": "",
                    "selector": "",
                    "status": false,
                    "value": ""
                },
                "nodeType": 0
            },
            "0": {
                "invocation": {
                    "address": "0xdd974d5c2e2928dea5f71b9825b8b646686bd200",
                    "callData": "0x00000000000000000000000024434ebf296c2f9cd59b14412aae5c4ca1d5aad2000000000000000000000000000000000000000000000259bb71d5adf3f00000",
                    "decodedMethod": {
                        "callParams": [
                            {
                                "name": "_to",
                                "type": "address",
                                "value": "0x24434ebf296c2f9cd59b14412aae5c4ca1d5aad2"
                            },
                            {
                                "decimalAvailable": true,
                                "name": "_value",
                                "type": "uint256",
                                "value": "11,100,000,000,000,000,000,000"
                            }
                        ],
                        "constructorArguments": "",
                        "name": "transfer",
                        "returnParams": [
                            {
                                "name": "",
                                "type": "bool",
                                "value": true
                            }
                        ],
                        "signature": "transfer(address,uint256)"
                    },
                    "errorInfo": "",
                    "fromAddress": "0x2420281153bbbc981b498bfa001e0cfac58d2f0a",
                    "gasUsed": 22509,
                    "id": 0,
                    "methodDecoded": true,
                    "operation": "CALL",
                    "output": "0x0000000000000000000000000000000000000000000000000000000000000001",
                    "revert": false,
                    "revertMessage": "",
                    "selector": "0xa9059cbb",
                    "status": true,
                    "value": "0"
                },
                "nodeType": 0
            },
            "1": {
                "event": {
                    "contract": "0xdd974d5c2e2928dea5f71b9825b8b646686bd200",
                    "decodedLog": {
                        "name": "Transfer",
                        "params": [
                            {
                                "name": "_from",
                                "type": "address",
                                "value": "0x2420281153bbbc981b498bfa001e0cfac58d2f0a"
                            },
                            {
                                "name": "_to",
                                "type": "address",
                                "value": "0x24434ebf296c2f9cd59b14412aae5c4ca1d5aad2"
                            },
                            {
                                "decimalAvailable": true,
                                "name": "_value",
                                "type": "uint256",
                                "value": "11,100,000,000,000,000,000,000"
                            }
                        ],
                        "signature": "Transfer(address,address,uint256)"
                    },
                    "id": 1,
                    "logData": "0x000000000000000000000000000000000000000000000259bb71d5adf3f00000",
                    "logDecoded": true,
                    "operation": "EVENT",
                    "revert": false,
                    "status": true,
                    "topics": [
                        "0xddf252ad1be2c89b69c2b068fc378daa952ba7f163c4a11628f55a4df523b3ef",
                        "0x0000000000000000000000002420281153bbbc981b498bfa001e0cfac58d2f0a",
                        "0x00000000000000000000000024434ebf296c2f9cd59b14412aae5c4ca1d5aad2"
                    ]
                },
                "nodeType": 1
            }
        },
        "gasFlame": [
            {
                "children": [
                    {
                        "children": [
                            {
                                "children": [],
                                "depth": 0,
                                "name": "Initial Gas",
                                "value": 21656
                            },
                            {
                                "children": [],
                                "depth": 0,
                                "name": "Executed Gas",
                                "value": 15853
                            }
                        ],
                        "depth": -1,
                        "name": "Actual Gas Used",
                        "value": 22509
                    },
                    {
                        "children": [],
                        "depth": -1,
                        "name": "Refunded Gas",
                        "value": 15000
                    }
                ],
                "depth": -2,
                "name": "Total Gas",
                "value": 37509
            }
        ],
        "isConfirmed": true,
        "mainTrace": [
            {
                "children": [
                    {
                        "children": [
                            {
                                "children": [],
                                "depth": 1,
                                "id": 1,
                                "order": 1
                            }
                        ],
                        "depth": 0,
                        "id": 0,
                        "order": 0
                    }
                ],
                "depth": -1,
                "id": -1,
                "order": -1
            }
        ],
        "mainTraceNodeCount": 2,
        "parentIdMap": {
            "0": -1,
            "1": 0
        },
        "tidyTrace": [
            {
                "children": [
                    {
                        "children": [
                            {
                                "children": [],
                                "depth": 1,
                                "id": 1,
                                "order": 1
                            }
                        ],
                        "depth": 0,
                        "id": 0,
                        "order": 0
                    }
                ],
                "depth": -1,
                "id": -1,
                "order": -1
            }
        ],
        "tidyTraceNodeCount": 2
    },
    "state_change": {
        "stateChanges": [
            {
                "address": "0xdd974d5c2e2928dea5f71b9825b8b646686bd200",
                "erc": "ERC-20",
                "slots": [
                    {
                        "current": "0x0000000000000000000000000000000000000000000000000000000000000000",
                        "key": "0x9539121c4aeaf55ed4361349d00b2f5b4e395a34cebb17f40c8fc536c3e47453",
                        "prev": "0x000000000000000000000000000000000000000000000259bb71d5adf3f00000"
                    },
                    {
                        "current": "0x0000000000000000000000000000000000000000000637cbacc8c457d3e770d7",
                        "key": "0x6602dc5f49259a8109369f1b264f6a4939b3c71a82063e3b1fe25c5f2e8f5848",
                        "prev": "0x000000000000000000000000000000000000000000063571f156eea9dff770d7"
                    }
                ],
                "storageVariables": [
                    {
                        "name": "balances",
                        "type": "mapping(address => uint256)",
                        "value": {
                            "pairs": [
                                {
                                    "key": "0x2420281153bbbc981b498bfa001e0cfac58d2f0a",
                                    "value": {
                                        "current": "0",
                                        "prev": "11100000000000000000000",
                                        "typeTag": 1
                                    }
                                },
                                {
                                    "key": "0x24434ebf296c2f9cd59b14412aae5c4ca1d5aad2",
                                    "value": {
                                        "current": "7517042213709619936063703",
                                        "prev": "7505942213709619936063703",
                                        "typeTag": 1
                                    }
                                }
                            ],
                            "typeTag": 4
                        }
                    }
                ]
            }
        ]
    }
}