{
    "balance_change": {
        "balanceChanges": [
            {
                "account": "0xef1851cf6e0495d95c77398cdfa50d801651a476",
                "assets": [
                    {
                        "address": "0x1e41a55030e0d0794abfb6dced22e6c7d18d8247",
                        "amount": "130.738",
                        "iconUrl": "",
                        "isERC1155": false,
                        "isERC721": false,
                        "sign": false,
                        "value": ""
                    }
                ]
            },
            {
                "account": "0x7e041d3e636da792dd1685481eae0a1d3cc2cd8b",
                "assets": [
                    {
                        "address": "0x1e41a55030e0d0794abfb6dced22e6c7d18d8247",
                        "amount": "130.738",
                        "iconUrl": "",
                        "isERC1155": false,
                        "isERC721": false,
                        "sign": true,
                        "value": ""
                    }
                ]
            }
        ]
    },
    "profile": {
        "basic_info": {
            "baseFee": "",
            "blockNumber": 7857390,
            "callData": "0xa9059cbb0000000000000000000000007e041d3e636da792dd1685481eae0a1d3cc2cd8b000000000000000000000000000000000000000000000007165aae5205050000",
            "debugEnable": true,
            "errorInfo": "",
            "eventCount": 1,
            "feeRecipient": "0x52bc44d5378309ee2abf1539bf71de1b7d7be3b5",
            "formatValue": "0",
            "gasLimit": 90000,
            "gasPrice": "3",
            "gasUsed": 36997,
            "intTxnCount": 0,
            "internalRevert": false,
            "internalRevertMessage": "",
            "isContractCreation": false,
            "isFlashloan": false,
            "maxFee": "",
            "nonce": 51883,
            "overwritedBlockNumber": -1,
            "priorityFee": "",
            "receiver": "0x1e41a55030e0d0794abfb6dced22e6c7d18d8247",
            "revertMessage": "",
            "sender": "0xef1851cf6e0495d95c77398cdfa50d801651a476",
            "simulationEnable": true,
            "sourceTxnHash": "0xc6b8213d159e8c9dcac62f37fe8e95a585330ea35fa24c352ceca9f5e0f6686a",
            "status": true,
            "timestamp": "2019-05-29T23:08:56Z",
            "transactionFee": "0.000110991",
            "txnHash": "0xc6b8213d159e8c9dcac62f37fe8e95a585330ea35fa24c352ceca9f5e0f6686a",
            "txnIndex": 91,
            "type": 0,
            "value": "0"
        },
        "fund_flow": [
            {
                "amount": "130.738",
                "from": "0xef1851cf6e0495d95c77398cdfa50d801651a476",
                "id": 1,
                "isERC1155": false,
                "isERC721": false,
                "isReverted": false,
                "order": 1,
                "to": "0x7e041d3e636da792dd1685481eae0a1d3cc2cd8b",
                "token": "0x1e41a55030e0d0794abfb6dced22e6c7d18d8247"
            }
        ],
        "token_infos": [
            {
                "address": "0x1e41a55030e0d0794abfb6dced22e6c7d18d8247",
                "decimals": 18
            },
            {
                "address": "0xc02aaa39b223fe8d0a0e5c4f27ead9083c756cc2",
                "decimals": 18
            },
            {
                "address": "0xeeeeeeeeeeeeeeeeeeeeeeeeeeeeeeeeeeeeeeee",
                "decimals": 18
            }
        ]
    },
    "address_label": {
        "labels": [
            {
                "address": "0x0000000000000000000000000000000000000004",
                "label": "Precompiled"
            },
            {
                "address": "0xeeeeeeeeeeeeeeeeeeeeeeeeeeeeeeeeeeeeeeee",
                "label": "Ether"
            },
            {
                "address": "0x1e41a55030e0d0794abfb6dced22e6c7d18d8247",
                "label": "Android chain (ADC)"
            },
            {
                "address": "0x0000000000000000000000000000000000000001",
                "label": "Precompiled"
            },
            {
                "address": "0x0000000000000000000000000000000000000002",
                "label": "Precompiled"
            },
            {
                "address": "0x0000000000000000000000000000000000000003",
                "label": "Precompiled"
            }
        ]
    },
    "trace": {
        "accountLabels": null,
        "dataMap": {
            "-1": {
                "invocation": {
                    "address": "0xef1851cf6e0495d95c77398cdfa50d801651a476",
                    "callData": "",
                    "decodedMethod": null,
                    "errorInfo": "",
                    "fromAddress": "",
                    "gasUsed": 0,
                    "id": -1,
                    "methodDecoded": false,
                    "operation": "",
                    "output": "",
                    "revert": false,
                    "revertMessage": "",
                    "selector": "",
                    "status": false,
                    "value": ""
                },
                "nodeType": 0
            },
            "0": {
                "invocation": {
                    "address": "0x1e41a55030e0d0794abfb6dced22e6c7d18d8247",
                    "callData": "0x0000000000000000000000007e041d3e636da792dd1685481eae0a1d3cc2cd8b000000000000000000000000000000000000000000000007165aae5205050000",
                    "decodedMethod": {
                        "callParams": [
                            {
                                "name": "_to",
                                "type": "address",
                                "value": "0x7e041d3e636da792dd1685481eae0a1d3cc2cd8b"
                            },
                            {
                                "decimalAvailable": true,
                                "name": "_value",
                                "type": "uint256",
                                "value": "130,738,000,000,000,000,000"
                            }
                        ],
                        "constructorArguments": "",
                        "name": "transfer",
                        "returnParams": [
                            {
                                "name": "success",
                                "type": "bool",
                                "value": true
                            }
                        ],
                        "signature": "transfer(address,uint256)"
                    },
                    "errorInfo": "",
                    "fromAddress": "0xef1851cf6e0495d95c77398cdfa50d801651a476",
                    "gasUsed": 36997,
                    "id": 0,
                    "methodDecoded": true,
                    "operation": "CALL",
                    "output": "0x0000000000000000000000000000000000000000000000000000000000000001",
                    "revert": false,
                    "revertMessage": "",
                    "selector": "0xa9059cbb",
                    "status": true,
                    "value": "0"
                },
                "nodeType": 0
            },
            "1": {
                "event": {
                    "contract": "0x1e41a55030e0d0794abfb6dced22e6c7d18d8247",
                    "decodedLog": {
                        "name": "Transfer",
                        "params": [
                            {
                                "name": "_from",
                                "type": "address",
                                "value": "0xef1851cf6e0495d95c77398cdfa50d801651a476"
                            },
                            {
                                "name": "_to",
                                "type": "address",
                                "value": "0x7e041d3e636da792dd1685481eae0a1d3cc2cd8b"
                            },
                            {
                                "decimalAvailable": true,
                                "name": "_value",
                                "type": "uint256",
                                "value": "130,738,000,000,000,000,000"
                            }
                        ],
                        "signature": "Transfer(address,address,uint256)"
                    },
                    "id": 1,
                    "logData": "0x000000000000000000000000000000000000000000000007165aae5205050000",
                    "logDecoded": true,
                    "operation": "EVENT",
                    "revert": false,
                    "status": true,
                    "topics": [
                        "0xddf252ad1be2c89b69c2b068fc378daa952ba7f163c4a11628f55a4df523b3ef",
                        "0x000000000000000000000000ef1851cf6e0495d95c77398cdfa50d801651a476",
                        "0x0000000000000000000000007e041d3e636da792dd1685481eae0a1d3cc2cd8b"
                    ]
                },
                "nodeType": 1
            }
        },
        "gasFlame": [
            {
                "children": [
                    {
                        "children": [
                            {
                                "children": [],
                                "depth": 0,
                                "name": "Initial Gas",
                                "value": 23256
                            },
                            {
                                "children": [],
                                "depth": 0,
                                "name": "Executed Gas",
                                "value": 13741
                            }
                        ],
                        "depth": -1,
                        "name": "Actual Gas Used",
                        "value": 36997
                    },
                    {
                        "children": [],
                        "depth": -1,
                        "name": "Refunded Gas",
                        "value": 0
                    }
                ],
                "depth": -2,
                "name": "Total Gas",
                "value": 36997
            }
        ],
        "isConfirmed": true,
        "mainTrace": [
            {
                "children": [
                    {
                        "children": [
                            {
                                "children": [],
                                "depth": 1,
                                "id": 1,
                                "order": 1
                            }
                        ],
                        "depth": 0,
                        "id": 0,
                        "order": 0
                    }
                ],
                "depth": -1,
                "id": -1,
                "order": -1
            }
        ],
        "mainTraceNodeCount": 2,
        "parentIdMap": {
            "0": -1,
            "1": 0
        },
        "tidyTrace": [
            {
                "children": [
                    {
                        "children": [
                            {
                                "children": [],
                                "depth": 1,
                                "id": 1,
                                "order": 1
                            }
                        ],
                        "depth": 0,
                        "id": 0,
                        "order": 0
                    }
                ],
                "depth": -1,
                "id": -1,
                "order": -1
            }
        ],
        "tidyTraceNodeCount": 2
    },
    "state_change": {
        "stateChanges": [
            {
                "address": "0x1e41a55030e0d0794abfb6dced22e6c7d18d8247",
                "erc": "ERC-20",
                "slots": [
                    {
                        "current": "0x0000000000000000000000000000000000000000001cbf213e0b84b2c5bbbc45",
                        "key": "0x965a4de95b0e93066bd211b6326c7fe41f3d7740d1801c76641211c510591e35",
                        "prev": "0x0000000000000000000000000000000000000000001cbf2854663304cac0bc45"
                    },
                    {
                        "current": "0x00000000000000000000000000000000000000000000003a36a27a826babc000",
                        "key": "0x1a3033316ca235d0f1ac7d6400a31f9952eb511ac42e57ac39798c96203d8666",
                        "prev": "0x0000000000000000000000000000000000000000000000332047cc3066a6c000"
                    }
                ],
                "storageVariables": [
                    {
                        "name": "balances",
                        "type": "mapping(address => uint256)",
                        "value": {
                            "pairs": [
                                {
                                    "key": "0x7e041d3e636da792dd1685481eae0a1d3cc2cd8b",
                                    "value": {
                                        "current": "1073847999999999983616",
                                        "prev": "943109999999999983616",
                                        "typeTag": 1
                                    }
                                },
                                {
                                    "key": "0xef1851cf6e0495d95c77398cdfa50d801651a476",
                                    "value": {
                                        "current": "34752508160805109994601541",
                                        "prev": "34752638898805109994601541",
                                        "typeTag": 1
                                    }
                                }
                            ],
                            "typeTag": 4
                        }
                    }
                ]
            }
        ]
    }
}