{
    "balance_change": {
        "balanceChanges": []
    },
    "profile": {
        "basic_info": {
            "baseFee": "",
            "blockNumber": 11142304,
            "callData": "0x4f9559b1000000000000000000000000000000000000000000000000000001756cf4103f",
            "debugEnable": true,
            "errorInfo": "",
            "eventCount": 1,
            "feeRecipient": "0xea674fdde714fd979de3edf0f56aa9716b898ec8",
            "formatValue": "0",
            "gasLimit": 41953,
            "gasPrice": "33.53513101",
            "gasUsed": 36272,
            "intTxnCount": 0,
            "internalRevert": false,
            "internalRevertMessage": "",
            "isContractCreation": false,
            "isFlashloan": false,
            "maxFee": "",
            "nonce": 2898,
            "overwritedBlockNumber": -1,
            "priorityFee": "",
            "receiver": "0x61935cbdd02287b511119ddb11aeb42f1593b7ef",
            "revertMessage": "",
            "sender": "0x0a0328f5e01af71f0effeb0f178fc0365c9c1d0a",
            "simulationEnable": true,
            "sourceTxnHash": "0xc6065dd057a7bb93509c31dd18e650fa59ec48c3c0fedb34d84d6926df9105be",
            "status": true,
            "timestamp": "2020-10-28T02:06:44Z",
            "transactionFee": "0.00121638627199472",
            "txnHash": "0xc6065dd057a7bb93509c31dd18e650fa59ec48c3c0fedb34d84d6926df9105be",
            "txnIndex": 108,
            "type": 0,
            "value": "0"
        },
        "fund_flow": [],
        "token_infos": [
            {
                "address": "0xc02aaa39b223fe8d0a0e5c4f27ead9083c756cc2",
                "decimals": 18
            },
            {
                "address": "0xeeeeeeeeeeeeeeeeeeeeeeeeeeeeeeeeeeeeeeee",
                "decimals": 18
            }
        ]
    },
    "address_label": {
        "labels": [
            {
                "address": "0xeeeeeeeeeeeeeeeeeeeeeeeeeeeeeeeeeeeeeeee",
                "label": "Ether"
            },
            {
                "address": "0x61935cbdd02287b511119ddb11aeb42f1593b7ef",
                "label": "0x: Exchange v3"
            },
            {
                "address": "0x0000000000000000000000000000000000000001",
                "label": "Precompiled"
            },
            {
                "address": "0x0000000000000000000000000000000000000002",
                "label": "Precompiled"
            },
            {
                "address": "0x0000000000000000000000000000000000000003",
                "label": "Precompiled"
            },
            {
                "address": "0x0000000000000000000000000000000000000004",
                "label": "Precompiled"
            }
        ]
    },
    "trace": {
        "accountLabels": null,
        "dataMap": {
            "-1": {
                "invocation": {
                    "address": "0x0a0328f5e01af71f0effeb0f178fc0365c9c1d0a",
                    "callData": "",
                    "decodedMethod": null,
                    "errorInfo": "",
                    "fromAddress": "",
                    "gasUsed": 0,
                    "id": -1,
                    "methodDecoded": false,
                    "operation": "",
                    "output": "",
                    "revert": false,
                    "revertMessage": "",
                    "selector": "",
                    "status": false,
                    "value": ""
                },
                "nodeType": 0
            },
            "0": {
                "invocation": {
                    "address": "0x61935cbdd02287b511119ddb11aeb42f1593b7ef",
                    "callData": "0x000000000000000000000000000000000000000000000000000001756cf4103f",
                    "decodedMethod": {
                        "callParams": [
                            {
                                "name": "targetOrderEpoch",
                                "type": "uint256",
                                "value": "1,603,850,735,679"
                            }
                        ],
                        "constructorArguments": "",
                        "name": "cancelOrdersUpTo",
                        "returnParams": [],
                        "signature": "cancelOrdersUpTo(uint256)"
                    },
                    "errorInfo": "",
                    "fromAddress": "0x0a0328f5e01af71f0effeb0f178fc0365c9c1d0a",
                    "gasUsed": 36272,
                    "id": 0,
                    "methodDecoded": true,
                    "operation": "CALL",
                    "output": "",
                    "revert": false,
                    "revertMessage": "",
                    "selector": "0x4f9559b1",
                    "status": true,
                    "value": "0"
                },
                "nodeType": 0
            },
            "1": {
                "event": {
                    "contract": "0x61935cbdd02287b511119ddb11aeb42f1593b7ef",
                    "decodedLog": {
                        "name": "CancelUpTo",
                        "params": [
                            {
                                "name": "makerAddress",
                                "type": "address",
                                "value": "0x0a0328f5e01af71f0effeb0f178fc0365c9c1d0a"
                            },
                            {
                                "name": "orderSenderAddress",
                                "type": "address",
                                "value": "0x0000000000000000000000000000000000000000"
                            },
                            {
                                "name": "orderEpoch",
                                "type": "uint256",
                                "value": "1,603,850,735,680"
                            }
                        ],
                        "signature": "CancelUpTo(address,address,uint256)"
                    },
                    "id": 1,
                    "logData": "0x000000000000000000000000000000000000000000000000000001756cf41040",
                    "logDecoded": true,
                    "operation": "EVENT",
                    "revert": false,
                    "status": true,
                    "topics": [
                        "0x82af639571738f4ebd4268fb0363d8957ebe1bbb9e78dba5ebd69eed39b154f0",
                        "0x0000000000000000000000000a0328f5e01af71f0effeb0f178fc0365c9c1d0a",
                        "0x0000000000000000000000000000000000000000000000000000000000000000"
                    ]
                },
                "nodeType": 1
            }
        },
        "gasFlame": [
            {
                "children": [
                    {
                        "children": [
                            {
                                "children": [],
                                "depth": 0,
                                "name": "Initial Gas",
                                "value": 21264
                            },
                            {
                                "children": [],
                                "depth": 0,
                                "name": "Executed Gas",
                                "value": 19208
                            }
                        ],
                        "depth": -1,
                        "name": "Actual Gas Used",
                        "value": 36272
                    },
                    {
                        "children": [],
                        "depth": -1,
                        "name": "Refunded Gas",
                        "value": 4200
                    }
                ],
                "depth": -2,
                "name": "Total Gas",
                "value": 40472
            }
        ],
        "isConfirmed": true,
        "mainTrace": [
            {
                "children": [
                    {
                        "children": [
                            {
                                "children": [],
                                "depth": 1,
                                "id": 1,
                                "order": 1
                            }
                        ],
                        "depth": 0,
                        "id": 0,
                        "order": 0
                    }
                ],
                "depth": -1,
                "id": -1,
                "order": -1
            }
        ],
        "mainTraceNodeCount": 2,
        "parentIdMap": {
            "0": -1,
            "1": 0
        },
        "tidyTrace": [
            {
                "children": [
                    {
                        "children": [
                            {
                                "children": [],
                                "depth": 1,
                                "id": 1,
                                "order": 1
                            }
                        ],
                        "depth": 0,
                        "id": 0,
                        "order": 0
                    }
                ],
                "depth": -1,
                "id": -1,
                "order": -1
            }
        ],
        "tidyTraceNodeCount": 2
    },
    "state_change": {
        "stateChanges": [
            {
                "address": "0x61935cbdd02287b511119ddb11aeb42f1593b7ef",
                "erc": "",
                "slots": [
                    {
                        "current": "0x000000000000000000000000000000000000000000000000000001756cf41040",
                        "key": "0x9f7b3a7db3651d131ecddc6c962c5d4dc88e2041d1f6a177fc50555507165133",
                        "prev": "0x000000000000000000000000000000000000000000000000000001756cf3f246"
                    }
                ],
                "storageVariables": [
                    {
                        "name": "orderEpoch",
                        "type": "mapping(address => mapping(address => uint256))",
                        "value": {
                            "pairs": [
                                {
                                    "key": "0x0a0328f5e01af71f0effeb0f178fc0365c9c1d0a",
                                    "value": {
                                        "pairs": [
                                            {
                                                "key": "0x0000000000000000000000000000000000000000",
                                                "value": {
                                                    "current": "1603850735680",
                                                    "prev": "1603850728006",
                                                    "typeTag": 1
                                                }
                                            }
                                        ],
                                        "typeTag": 4
                                    }
                                }
                            ],
                            "typeTag": 4
                        }
                    }
                ]
            }
        ]
    }
}