{
    "balance_change": {
        "balanceChanges": [
            {
                "account": "0x7b6e7bf11f35808c56b9d0d1a4c5135f19a71124",
                "assets": [
                    {
                        "address": "0x36a28c7c9b3dea22f07f4df67833cbe764feeeb4",
                        "amount": "344",
                        "iconUrl": "",
                        "isERC1155": false,
                        "isERC721": false,
                        "sign": false,
                        "value": "100.7097459"
                    }
                ]
            },
            {
                "account": "0x50c37233eef2872d0be36150033dfadcb3e58126",
                "assets": [
                    {
                        "address": "0x36a28c7c9b3dea22f07f4df67833cbe764feeeb4",
                        "amount": "344",
                        "iconUrl": "",
                        "isERC1155": false,
                        "isERC721": false,
                        "sign": true,
                        "value": "100.7097459"
                    }
                ]
            }
        ]
    },
    "profile": {
        "basic_info": {
            "baseFee": "",
            "blockNumber": 11384799,
            "callData": "0xa9059cbb00000000000000000000000050c37233eef2872d0be36150033dfadcb3e58126000000000000000000000000000000000000000000000012a5f58168ee600000",
            "debugEnable": true,
            "errorInfo": "",
            "eventCount": 1,
            "feeRecipient": "0x5a0b54d5dc17e0aadc383d2db43b0a0d3e029c4c",
            "formatValue": "0",
            "gasLimit": 77920,
            "gasPrice": "35",
            "gasUsed": 51947,
            "intTxnCount": 0,
            "internalRevert": false,
            "internalRevertMessage": "",
            "isContractCreation": false,
            "isFlashloan": false,
            "maxFee": "",
            "nonce": 2831,
            "overwritedBlockNumber": -1,
            "priorityFee": "",
            "receiver": "0x36a28c7c9b3dea22f07f4df67833cbe764feeeb4",
            "revertMessage": "",
            "sender": "0x7b6e7bf11f35808c56b9d0d1a4c5135f19a71124",
            "simulationEnable": true,
            "sourceTxnHash": "0xc65dbe4ce0afcab38b72c8c471c47efe3c6e6fe48de37cbd6858c0bc698366b4",
            "status": true,
            "timestamp": "2020-12-04T07:28:21Z",
            "transactionFee": "0.001818145",
            "txnHash": "0xc65dbe4ce0afcab38b72c8c471c47efe3c6e6fe48de37cbd6858c0bc698366b4",
            "txnIndex": 82,
            "type": 0,
            "value": "0"
        },
        "fund_flow": [
            {
                "amount": "344",
                "from": "0x7b6e7bf11f35808c56b9d0d1a4c5135f19a71124",
                "id": 1,
                "isERC1155": false,
                "isERC721": false,
                "isReverted": false,
                "order": 1,
                "to": "0x50c37233eef2872d0be36150033dfadcb3e58126",
                "token": "0x36a28c7c9b3dea22f07f4df67833cbe764feeeb4"
            }
        ],
        "token_infos": [
            {
                "address": "0x36a28c7c9b3dea22f07f4df67833cbe764feeeb4",
                "decimals": 18
            },
            {
                "address": "0xc02aaa39b223fe8d0a0e5c4f27ead9083c756cc2",
                "decimals": 18
            },
            {
                "address": "0xeeeeeeeeeeeeeeeeeeeeeeeeeeeeeeeeeeeeeeee",
                "decimals": 18
            }
        ]
    },
    "address_label": {
        "labels": [
            {
                "address": "0x0000000000000000000000000000000000000003",
                "label": "Precompiled"
            },
            {
                "address": "0x0000000000000000000000000000000000000004",
                "label": "Precompiled"
            },
            {
                "address": "0xeeeeeeeeeeeeeeeeeeeeeeeeeeeeeeeeeeeeeeee",
                "label": "Ether"
            },
            {
                "address": "0x7b6e7bf11f35808c56b9d0d1a4c5135f19a71124",
                "label": "Cryptonits Ltd.: Deployer"
            },
            {
                "address": "0x36a28c7c9b3dea22f07f4df67833cbe764feeeb4",
                "label": "Cryptonits Ltd.: CRT Token"
            },
            {
                "address": "0x50c37233eef2872d0be36150033dfadcb3e58126",
                "label": "WHITEBIT"
            },
            {
                "address": "0x0000000000000000000000000000000000000001",
                "label": "Precompiled"
            },
            {
                "address": "0x0000000000000000000000000000000000000002",
                "label": "Precompiled"
            }
        ]
    },
    "trace": {
        "accountLabels": null,
        "dataMap": {
            "-1": {
                "invocation": {
                    "address": "0x7b6e7bf11f35808c56b9d0d1a4c5135f19a71124",
                    "callData": "",
                    "decodedMethod": null,
                    "errorInfo": "",
                    "fromAddress": "",
                    "gasUsed": 0,
                    "id": -1,
                    "methodDecoded": false,
                    "operation": "",
                    "output": "",
                    "revert": false,
                    "revertMessage": "",
                    "selector": "",
                    "status": false,
                    "value": ""
                },
                "nodeType": 0
            },
            "0": {
                "invocation": {
                    "address": "0x36a28c7c9b3dea22f07f4df67833cbe764feeeb4",
                    "callData": "0x00000000000000000000000050c37233eef2872d0be36150033dfadcb3e58126000000000000000000000000000000000000000000000012a5f58168ee600000",
                    "decodedMethod": {
                        "callParams": [
                            {
                                "name": "to",
                                "type": "address",
                                "value": "0x50c37233eef2872d0be36150033dfadcb3e58126"
                            },
                            {
                                "decimalAvailable": true,
                                "name": "value",
                                "type": "uint256",
                                "value": "344,000,000,000,000,000,000"
                            }
                        ],
                        "constructorArguments": "",
                        "name": "transfer",
                        "returnParams": [
                            {
                                "name": "",
                                "type": "bool",
                                "value": true
                            }
                        ],
                        "signature": "transfer(address,uint256)"
                    },
                    "errorInfo": "",
                    "fromAddress": "0x7b6e7bf11f35808c56b9d0d1a4c5135f19a71124",
                    "gasUsed": 51947,
                    "id": 0,
                    "methodDecoded": true,
                    "operation": "CALL",
                    "output": "0x0000000000000000000000000000000000000000000000000000000000000001",
                    "revert": false,
                    "revertMessage": "",
                    "selector": "0xa9059cbb",
                    "status": true,
                    "value": "0"
                },
                "nodeType": 0
            },
            "1": {
                "event": {
                    "contract": "0x36a28c7c9b3dea22f07f4df67833cbe764feeeb4",
                    "decodedLog": {
                        "name": "Transfer",
                        "params": [
                            {
                                "name": "from",
                                "type": "address",
                                "value": "0x7b6e7bf11f35808c56b9d0d1a4c5135f19a71124"
                            },
                            {
                                "name": "to",
                                "type": "address",
                                "value": "0x50c37233eef2872d0be36150033dfadcb3e58126"
                            },
                            {
                                "decimalAvailable": true,
                                "name": "value",
                                "type": "uint256",
                                "value": "344,000,000,000,000,000,000"
                            }
                        ],
                        "signature": "Transfer(address,address,uint256)"
                    },
                    "id": 1,
                    "logData": "0x000000000000000000000000000000000000000000000012a5f58168ee600000",
                    "logDecoded": true,
                    "operation": "EVENT",
                    "revert": false,
                    "status": true,
                    "topics": [
                        "0xddf252ad1be2c89b69c2b068fc378daa952ba7f163c4a11628f55a4df523b3ef",
                        "0x0000000000000000000000007b6e7bf11f35808c56b9d0d1a4c5135f19a71124",
                        "0x00000000000000000000000050c37233eef2872d0be36150033dfadcb3e58126"
                    ]
                },
                "nodeType": 1
            }
        },
        "gasFlame": [
            {
                "children": [
                    {
                        "children": [
                            {
                                "children": [],
                                "depth": 0,
                                "name": "Initial Gas",
                                "value": 21644
                            },
                            {
                                "children": [],
                                "depth": 0,
                                "name": "Executed Gas",
                                "value": 30303
                            }
                        ],
                        "depth": -1,
                        "name": "Actual Gas Used",
                        "value": 51947
                    },
                    {
                        "children": [],
                        "depth": -1,
                        "name": "Refunded Gas",
                        "value": 0
                    }
                ],
                "depth": -2,
                "name": "Total Gas",
                "value": 51947
            }
        ],
        "isConfirmed": true,
        "mainTrace": [
            {
                "children": [
                    {
                        "children": [
                            {
                                "children": [],
                                "depth": 1,
                                "id": 1,
                                "order": 1
                            }
                        ],
                        "depth": 0,
                        "id": 0,
                        "order": 0
                    }
                ],
                "depth": -1,
                "id": -1,
                "order": -1
            }
        ],
        "mainTraceNodeCount": 2,
        "parentIdMap": {
            "0": -1,
            "1": 0
        },
        "tidyTrace": [
            {
                "children": [
                    {
                        "children": [
                            {
                                "children": [],
                                "depth": 1,
                                "id": 1,
                                "order": 1
                            }
                        ],
                        "depth": 0,
                        "id": 0,
                        "order": 0
                    }
                ],
                "depth": -1,
                "id": -1,
                "order": -1
            }
        ],
        "tidyTraceNodeCount": 2
    },
    "state_change": {
        "stateChanges": [
            {
                "address": "0x36a28c7c9b3dea22f07f4df67833cbe764feeeb4",
                "erc": "ERC-20",
                "slots": [
                    {
                        "current": "0x0000000000000000000000000000000000000000000e24da5754ef4e780f1800",
                        "key": "0x84b060710b4245034623a2455ae38a1585a5d10a7cbe8283a352c9c206b5e13d",
                        "prev": "0x0000000000000000000000000000000000000000000e24ecfd4a70b7666f1800"
                    },
                    {
                        "current": "0x000000000000000000000000000000000000000000000012a5f58168ee600000",
                        "key": "0xdda27585e5969c12d0490467bebec66aeacf5d69139e2132b3a249c56b577908",
                        "prev": "0x0000000000000000000000000000000000000000000000000000000000000000"
                    }
                ],
                "storageVariables": [
                    {
                        "name": "_balances",
                        "type": "mapping(address => uint256)",
                        "value": {
                            "pairs": [
                                {
                                    "key": "0x50c37233eef2872d0be36150033dfadcb3e58126",
                                    "value": {
                                        "current": "344000000000000000000",
                                        "prev": "0",
                                        "typeTag": 1
                                    }
                                },
                                {
                                    "key": "0x7b6e7bf11f35808c56b9d0d1a4c5135f19a71124",
                                    "value": {
                                        "current": "17098994351113884000000000",
                                        "prev": "17099338351113884000000000",
                                        "typeTag": 1
                                    }
                                }
                            ],
                            "typeTag": 4
                        }
                    }
                ]
            }
        ]
    }
}