{
    "balance_change": {
        "balanceChanges": [
            {
                "account": "0x5f0c8c95011f9e700877db89fb6d2dd1959eb6f6",
                "assets": [
                    {
                        "address": "0xc02aaa39b223fe8d0a0e5c4f27ead9083c756cc2",
                        "amount": "0.009051140558341341",
                        "iconUrl": "https://assets.blocksec.com/icon/f1cb2d02c471d545bbc7722daf3277fd852d98e63d118771af7047bd8256c516.png",
                        "isERC1155": false,
                        "isERC721": false,
                        "sign": true,
                        "value": "22.19185988"
                    },
                    {
                        "address": "0xeeeeeeeeeeeeeeeeeeeeeeeeeeeeeeeeeeeeeeee",
                        "amount": "0.00731686794626102",
                        "iconUrl": "https://assets.blocksec.com/image/1663669189317-3.png",
                        "isERC1155": false,
                        "isERC721": false,
                        "sign": false,
                        "value": "17.93971789"
                    }
                ]
            },
            {
                "account": "0x9866772a9bdb4dc9d2c5a4753e8658b8b0ca1fc3",
                "assets": [
                    {
                        "address": "0xc02aaa39b223fe8d0a0e5c4f27ead9083c756cc2",
                        "amount": "0.896455168882385",
                        "iconUrl": "https://assets.blocksec.com/icon/f1cb2d02c471d545bbc7722daf3277fd852d98e63d118771af7047bd8256c516.png",
                        "isERC1155": false,
                        "isERC721": false,
                        "sign": true,
                        "value": "2197.955868"
                    },
                    {
                        "address": "0x9f8f72aa9304c8b593d555f12ef6589cc3a579a2",
                        "amount": "0.689054369221434283",
                        "iconUrl": "https://assets.blocksec.com/icon/9361536498fbf76e6152f13d41df201aae3e94cf23c8459569e7c47c22f44dc1.png",
                        "isERC1155": false,
                        "isERC721": false,
                        "sign": false,
                        "value": "2201.002632"
                    }
                ]
            },
            {
                "account": "0xa478c2975ab1ea89e8196811f51a7b7ade33eb11",
                "assets": [
                    {
                        "address": "0x6b175474e89094c44da98b954eedeac495271d0f",
                        "amount": "2,219.596344050840298947",
                        "iconUrl": "https://assets.blocksec.com/icon/39aead569b9c011cb6f69734d9abbc9ab6a80049fe93bbd12bb473a3e0e859a3.png",
                        "isERC1155": false,
                        "isERC721": false,
                        "sign": true,
                        "value": "2223.638873"
                    },
                    {
                        "address": "0xc02aaa39b223fe8d0a0e5c4f27ead9083c756cc2",
                        "amount": "0.905506309440726341",
                        "iconUrl": "https://assets.blocksec.com/icon/f1cb2d02c471d545bbc7722daf3277fd852d98e63d118771af7047bd8256c516.png",
                        "isERC1155": false,
                        "isERC721": false,
                        "sign": false,
                        "value": "2220.147728"
                    }
                ]
            },
            {
                "account": "0xb3b7874f13387d44a3398d298b075b7a3505d8d4",
                "assets": [
                    {
                        "address": "0xeeeeeeeeeeeeeeeeeeeeeeeeeeeeeeeeeeeeeeee",
                        "amount": "0.00731686794626102",
                        "iconUrl": "https://assets.blocksec.com/image/1663669189317-3.png",
                        "isERC1155": false,
                        "isERC721": false,
                        "sign": true,
                        "value": "17.93971789"
                    }
                ]
            },
            {
                "account": "0xe5d1fab0c5596ef846dcc0958d6d0b20e1ec4498",
                "assets": [
                    {
                        "address": "0x9f8f72aa9304c8b593d555f12ef6589cc3a579a2",
                        "amount": "0.689054369221434283",
                        "iconUrl": "https://assets.blocksec.com/icon/9361536498fbf76e6152f13d41df201aae3e94cf23c8459569e7c47c22f44dc1.png",
                        "isERC1155": false,
                        "isERC721": false,
                        "sign": true,
                        "value": "2201.002632"
                    },
                    {
                        "address": "0x6b175474e89094c44da98b954eedeac495271d0f",
                        "amount": "2,219.596344050840298947",
                        "iconUrl": "https://assets.blocksec.com/icon/39aead569b9c011cb6f69734d9abbc9ab6a80049fe93bbd12bb473a3e0e859a3.png",
                        "isERC1155": false,
                        "isERC721": false,
                        "sign": false,
                        "value": "2223.638873"
                    }
                ]
            }
        ]
    },
    "profile": {
        "basic_info": {
            "baseFee": "",
            "blockNumber": 12594307,
            "callData": "0xb2b492950000000000000000000000000000000000000000000000000019fea712ce2a1c000000000000000000000000000000000000000000000000000000000000006000000000000000000000000000000000000000000000000000000000000001200000000000000000000000000000000000000000000000000000000000000005000000000000000000000000c02aaa39b223fe8d0a0e5c4f27ead9083c756cc20000000000000000000000009866772a9bdb4dc9d2c5a4753e8658b8b0ca1fc3000000000000000000000000e5d1fab0c5596ef846dcc0958d6d0b20e1ec44980000000000000000000000006b175474e89094c44da98b954eedeac495271d0f000000000000000000000000a478c2975ab1ea89e8196811f51a7b7ade33eb11000000000000000000000000000000000000000000000000000000000000000500000000000000000000000000000000000000000000000000000000000000a00000000000000000000000000000000000000000000000000000000000000120000000000000000000000000000000000000000000000000000000000000020000000000000000000000000000000000000000000000000000000000000002e000000000000000000000000000000000000000000000000000000000000003600000000000000000000000000000000000000000000000000000000000000044095ea7b30000000000000000000000009866772a9bdb4dc9d2c5a4753e8658b8b0ca1fc30000000000000000000000000000000000000000000000000c70d939fa4c20680000000000000000000000000000000000000000000000000000000000000000000000000000000000000000000000000000000000000000000000a48201aa3f000000000000000000000000c02aaa39b223fe8d0a0e5c4f27ead9083c756cc20000000000000000000000000000000000000000000000000c70d939fa4c20680000000000000000000000009f8f72aa9304c8b593d555f12ef6589cc3a579a20000000000000000000000000000000000000000000000000990034c4c5fdbab000000000000000000000000000000000000000000000000120efd4ec30f64730000000000000000000000000000000000000000000000000000000000000000000000000000000000000000000000000000000000000000000000a48201aa3f0000000000000000000000009f8f72aa9304c8b593d555f12ef6589cc3a579a20000000000000000000000000000000000000000000000000990034c4c5fdbab0000000000000000000000006b175474e89094c44da98b954eedeac495271d0f00000000000000000000000000000000000000000000007853164afd220ce5c300000000000000000000000000000000000000000000000000011d1df9682c8d000000000000000000000000000000000000000000000000000000000000000000000000000000000000000000000000000000000000000000000044a9059cbb000000000000000000000000a478c2975ab1ea89e8196811f51a7b7ade33eb1100000000000000000000000000000000000000000000007853164afd220ce5c30000000000000000000000000000000000000000000000000000000000000000000000000000000000000000000000000000000000000000000000a4022c0d9f00000000000000000000000000000000000000000000000000000000000000000000000000000000000000000000000000000000000000000c910130dc16e5450000000000000000000000005f0c8c95011f9e700877db89fb6d2dd1959eb6f60000000000000000000000000000000000000000000000000000000000000080000000000000000000000000000000000000000000000000000000000000000000000000000000000000000000000000000000000000000000000000",
            "debugEnable": true,
            "errorInfo": "",
            "eventCount": 13,
            "feeRecipient": "0xb3b7874f13387d44a3398d298b075b7a3505d8d4",
            "formatValue": "0",
            "gasLimit": 952500,
            "gasPrice": "0",
            "gasUsed": 248652,
            "intTxnCount": 15,
            "internalRevert": false,
            "internalRevertMessage": "",
            "isContractCreation": false,
            "isFlashloan": false,
            "maxFee": "",
            "nonce": 1891,
            "overwritedBlockNumber": -1,
            "priorityFee": "",
            "receiver": "0x5f0c8c95011f9e700877db89fb6d2dd1959eb6f6",
            "revertMessage": "",
            "sender": "0x1fd34033240c95aabf73e186a94b9576c6dab81b",
            "simulationEnable": true,
            "sourceTxnHash": "0xc6872d9d3bf751cdd7a819e3eecba9521d930ab38bfb08841b1648db899cfd3d",
            "status": true,
            "timestamp": "2021-06-08T14:01:01Z",
            "transactionFee": "0",
            "txnHash": "0xc6872d9d3bf751cdd7a819e3eecba9521d930ab38bfb08841b1648db899cfd3d",
            "txnIndex": 3,
            "type": 1,
            "value": "0"
        },
        "fund_flow": [
            {
                "amount": "0.896455168882385",
                "from": "0x5f0c8c95011f9e700877db89fb6d2dd1959eb6f6",
                "id": 1,
                "isERC1155": false,
                "isERC721": false,
                "isReverted": false,
                "order": 1,
                "to": "0x9866772a9bdb4dc9d2c5a4753e8658b8b0ca1fc3",
                "token": "0xc02aaa39b223fe8d0a0e5c4f27ead9083c756cc2"
            },
            {
                "amount": "0.689054369221434283",
                "from": "0x9866772a9bdb4dc9d2c5a4753e8658b8b0ca1fc3",
                "id": 2,
                "isERC1155": false,
                "isERC721": false,
                "isReverted": false,
                "order": 2,
                "to": "0x5f0c8c95011f9e700877db89fb6d2dd1959eb6f6",
                "token": "0x9f8f72aa9304c8b593d555f12ef6589cc3a579a2"
            },
            {
                "amount": "0.689054369221434283",
                "from": "0x5f0c8c95011f9e700877db89fb6d2dd1959eb6f6",
                "id": 3,
                "isERC1155": false,
                "isERC721": false,
                "isReverted": false,
                "order": 3,
                "to": "0xe5d1fab0c5596ef846dcc0958d6d0b20e1ec4498",
                "token": "0x9f8f72aa9304c8b593d555f12ef6589cc3a579a2"
            },
            {
                "amount": "2,219.596344050840298947",
                "from": "0xe5d1fab0c5596ef846dcc0958d6d0b20e1ec4498",
                "id": 4,
                "isERC1155": false,
                "isERC721": false,
                "isReverted": false,
                "order": 4,
                "to": "0x5f0c8c95011f9e700877db89fb6d2dd1959eb6f6",
                "token": "0x6b175474e89094c44da98b954eedeac495271d0f"
            },
            {
                "amount": "2,219.596344050840298947",
                "from": "0x5f0c8c95011f9e700877db89fb6d2dd1959eb6f6",
                "id": 5,
                "isERC1155": false,
                "isERC721": false,
                "isReverted": false,
                "order": 5,
                "to": "0xa478c2975ab1ea89e8196811f51a7b7ade33eb11",
                "token": "0x6b175474e89094c44da98b954eedeac495271d0f"
            },
            {
                "amount": "0.905506309440726341",
                "from": "0xa478c2975ab1ea89e8196811f51a7b7ade33eb11",
                "id": 6,
                "isERC1155": false,
                "isERC721": false,
                "isReverted": false,
                "order": 6,
                "to": "0x5f0c8c95011f9e700877db89fb6d2dd1959eb6f6",
                "token": "0xc02aaa39b223fe8d0a0e5c4f27ead9083c756cc2"
            },
            {
                "amount": "0.00731686794626102",
                "from": "0x5f0c8c95011f9e700877db89fb6d2dd1959eb6f6",
                "id": 7,
                "isERC1155": false,
                "isERC721": false,
                "isReverted": false,
                "order": 7,
                "to": "0xb3b7874f13387d44a3398d298b075b7a3505d8d4",
                "token": "0xeeeeeeeeeeeeeeeeeeeeeeeeeeeeeeeeeeeeeeee"
            }
        ],
        "token_infos": [
            {
                "address": "0x6b175474e89094c44da98b954eedeac495271d0f",
                "decimals": 18
            },
            {
                "address": "0x9f8f72aa9304c8b593d555f12ef6589cc3a579a2",
                "decimals": 18
            },
            {
                "address": "0xc02aaa39b223fe8d0a0e5c4f27ead9083c756cc2",
                "decimals": 18
            },
            {
                "address": "0xeeeeeeeeeeeeeeeeeeeeeeeeeeeeeeeeeeeeeeee",
                "decimals": 18
            }
        ]
    },
    "address_label": {
        "labels": [
            {
                "address": "0x6b175474e89094c44da98b954eedeac495271d0f",
                "label": "Sky: Dai Stablecoin"
            },
            {
                "address": "0xc02aaa39b223fe8d0a0e5c4f27ead9083c756cc2",
                "label": "Wrapped Ether (WETH)"
            },
            {
                "address": "0x9f8f72aa9304c8b593d555f12ef6589cc3a579a2",
                "label": "Sky: MKR Token"
            },
            {
                "address": "0x0000000000000000000000000000000000000001",
                "label": "Precompiled"
            },
            {
                "address": "0x0000000000000000000000000000000000000003",
                "label": "Precompiled"
            },
            {
                "address": "0x0000000000000000000000000000000000000004",
                "label": "Precompiled"
            },
            {
                "address": "0xeeeeeeeeeeeeeeeeeeeeeeeeeeeeeeeeeeeeeeee",
                "label": "Ether"
            },
            {
                "address": "0x9866772a9bdb4dc9d2c5a4753e8658b8b0ca1fc3",
                "label": "Balancer: MKR/ETH 60/40 #2"
            },
            {
                "address": "0xe5d1fab0c5596ef846dcc0958d6d0b20e1ec4498",
                "label": "Balancer: ETH/MKR/DAI 33.33/33.33/33.33 #2"
            },
            {
                "address": "0xa478c2975ab1ea89e8196811f51a7b7ade33eb11",
                "label": "Uniswap V2: DAI"
            },
            {
                "address": "0x0000000000000000000000000000000000000002",
                "label": "Precompiled"
            },
            {
                "address": "0xb3b7874f13387d44a3398d298b075b7a3505d8d4",
                "label": "Babel Pool"
            }
        ]
    },
    "trace": {
        "accountLabels": null,
        "dataMap": {
            "-1": {
                "invocation": {
                    "address": "0x1fd34033240c95aabf73e186a94b9576c6dab81b",
                    "callData": "",
                    "decodedMethod": null,
                    "errorInfo": "",
                    "fromAddress": "",
                    "gasUsed": 0,
                    "id": -1,
                    "methodDecoded": false,
                    "operation": "",
                    "output": "",
                    "revert": false,
                    "revertMessage": "",
                    "selector": "",
                    "status": false,
                    "value": ""
                },
                "nodeType": 0
            },
            "0": {
                "invocation": {
                    "address": "0x5f0c8c95011f9e700877db89fb6d2dd1959eb6f6",
                    "callData": "0x0000000000000000000000000000000000000000000000000019fea712ce2a1c000000000000000000000000000000000000000000000000000000000000006000000000000000000000000000000000000000000000000000000000000001200000000000000000000000000000000000000000000000000000000000000005000000000000000000000000c02aaa39b223fe8d0a0e5c4f27ead9083c756cc20000000000000000000000009866772a9bdb4dc9d2c5a4753e8658b8b0ca1fc3000000000000000000000000e5d1fab0c5596ef846dcc0958d6d0b20e1ec44980000000000000000000000006b175474e89094c44da98b954eedeac495271d0f000000000000000000000000a478c2975ab1ea89e8196811f51a7b7ade33eb11000000000000000000000000000000000000000000000000000000000000000500000000000000000000000000000000000000000000000000000000000000a00000000000000000000000000000000000000000000000000000000000000120000000000000000000000000000000000000000000000000000000000000020000000000000000000000000000000000000000000000000000000000000002e000000000000000000000000000000000000000000000000000000000000003600000000000000000000000000000000000000000000000000000000000000044095ea7b30000000000000000000000009866772a9bdb4dc9d2c5a4753e8658b8b0ca1fc30000000000000000000000000000000000000000000000000c70d939fa4c20680000000000000000000000000000000000000000000000000000000000000000000000000000000000000000000000000000000000000000000000a48201aa3f000000000000000000000000c02aaa39b223fe8d0a0e5c4f27ead9083c756cc20000000000000000000000000000000000000000000000000c70d939fa4c20680000000000000000000000009f8f72aa9304c8b593d555f12ef6589cc3a579a20000000000000000000000000000000000000000000000000990034c4c5fdbab000000000000000000000000000000000000000000000000120efd4ec30f64730000000000000000000000000000000000000000000000000000000000000000000000000000000000000000000000000000000000000000000000a48201aa3f0000000000000000000000009f8f72aa9304c8b593d555f12ef6589cc3a579a20000000000000000000000000000000000000000000000000990034c4c5fdbab0000000000000000000000006b175474e89094c44da98b954eedeac495271d0f00000000000000000000000000000000000000000000007853164afd220ce5c300000000000000000000000000000000000000000000000000011d1df9682c8d000000000000000000000000000000000000000000000000000000000000000000000000000000000000000000000000000000000000000000000044a9059cbb000000000000000000000000a478c2975ab1ea89e8196811f51a7b7ade33eb1100000000000000000000000000000000000000000000007853164afd220ce5c30000000000000000000000000000000000000000000000000000000000000000000000000000000000000000000000000000000000000000000000a4022c0d9f00000000000000000000000000000000000000000000000000000000000000000000000000000000000000000000000000000000000000000c910130dc16e5450000000000000000000000005f0c8c95011f9e700877db89fb6d2dd1959eb6f60000000000000000000000000000000000000000000000000000000000000080000000000000000000000000000000000000000000000000000000000000000000000000000000000000000000000000000000000000000000000000",
                    "decodedMethod": null,
                    "errorInfo": "",
                    "fromAddress": "0x1fd34033240c95aabf73e186a94b9576c6dab81b",
                    "gasUsed": 248652,
                    "id": 0,
                    "methodDecoded": false,
                    "operation": "CALL",
                    "output": "",
                    "revert": false,
                    "revertMessage": "",
                    "selector": "0xb2b49295",
                    "status": true,
                    "value": "0"
                },
                "nodeType": 0
            },
            "1": {
                "invocation": {
                    "address": "0xc02aaa39b223fe8d0a0e5c4f27ead9083c756cc2",
                    "callData": "0x0000000000000000000000005f0c8c95011f9e700877db89fb6d2dd1959eb6f6",
                    "decodedMethod": {
                        "callParams": [
                            {
                                "name": "",
                                "type": "address",
                                "value": "0x5f0c8c95011f9e700877db89fb6d2dd1959eb6f6"
                            }
                        ],
                        "constructorArguments": "",
                        "name": "balanceOf",
                        "returnParams": [
                            {
                                "decimalAvailable": true,
                                "name": "",
                                "type": "uint256",
                                "value": "13,092,260,927,685,835,404"
                            }
                        ],
                        "signature": "balanceOf(address)"
                    },
                    "errorInfo": "",
                    "fromAddress": "0x5f0c8c95011f9e700877db89fb6d2dd1959eb6f6",
                    "gasUsed": 534,
                    "id": 1,
                    "methodDecoded": true,
                    "operation": "STATICCALL",
                    "output": "0x000000000000000000000000000000000000000000000000b5b10df2ad70ba8c",
                    "revert": false,
                    "revertMessage": "",
                    "selector": "0x70a08231",
                    "status": true,
                    "value": "0"
                },
                "nodeType": 0
            },
            "10": {
                "event": {
                    "contract": "0x9f8f72aa9304c8b593d555f12ef6589cc3a579a2",
                    "decodedLog": {
                        "name": "Transfer",
                        "params": [
                            {
                                "name": "from",
                                "type": "address",
                                "value": "0x9866772a9bdb4dc9d2c5a4753e8658b8b0ca1fc3"
                            },
                            {
                                "name": "to",
                                "type": "address",
                                "value": "0x5f0c8c95011f9e700877db89fb6d2dd1959eb6f6"
                            },
                            {
                                "decimalAvailable": true,
                                "name": "value",
                                "type": "uint256",
                                "value": "689,054,369,221,434,283"
                            }
                        ],
                        "signature": "Transfer(address,address,uint256)"
                    },
                    "id": 10,
                    "logData": "0x0000000000000000000000000000000000000000000000000990034c4c5fdbab",
                    "logDecoded": true,
                    "operation": "EVENT",
                    "revert": false,
                    "status": true,
                    "topics": [
                        "0xddf252ad1be2c89b69c2b068fc378daa952ba7f163c4a11628f55a4df523b3ef",
                        "0x0000000000000000000000009866772a9bdb4dc9d2c5a4753e8658b8b0ca1fc3",
                        "0x0000000000000000000000005f0c8c95011f9e700877db89fb6d2dd1959eb6f6"
                    ]
                },
                "nodeType": 1
            },
            "11": {
                "invocation": {
                    "address": "0xe5d1fab0c5596ef846dcc0958d6d0b20e1ec4498",
                    "callData": "0x0000000000000000000000009f8f72aa9304c8b593d555f12ef6589cc3a579a20000000000000000000000000000000000000000000000000990034c4c5fdbab0000000000000000000000006b175474e89094c44da98b954eedeac495271d0f00000000000000000000000000000000000000000000007853164afd220ce5c300000000000000000000000000000000000000000000000000011d1df9682c8d",
                    "decodedMethod": {
                        "callParams": [
                            {
                                "name": "tokenIn",
                                "type": "address",
                                "value": "0x9f8f72aa9304c8b593d555f12ef6589cc3a579a2"
                            },
                            {
                                "name": "tokenAmountIn",
                                "type": "uint256",
                                "value": "689,054,369,221,434,283"
                            },
                            {
                                "name": "tokenOut",
                                "type": "address",
                                "value": "0x6b175474e89094c44da98b954eedeac495271d0f"
                            },
                            {
                                "name": "minAmountOut",
                                "type": "uint256",
                                "value": "2,219,596,344,050,840,298,947"
                            },
                            {
                                "name": "maxPrice",
                                "type": "uint256",
                                "value": "313,489,552,321,677"
                            }
                        ],
                        "constructorArguments": "",
                        "name": "swapExactAmountIn",
                        "returnParams": [
                            {
                                "name": "tokenAmountOut",
                                "type": "uint256",
                                "value": "2,219,596,344,050,840,298,947"
                            },
                            {
                                "name": "spotPriceAfter",
                                "type": "uint256",
                                "value": "313,489,552,321,677"
                            }
                        ],
                        "signature": "swapExactAmountIn(address,uint256,address,uint256,uint256)"
                    },
                    "errorInfo": "",
                    "fromAddress": "0x5f0c8c95011f9e700877db89fb6d2dd1959eb6f6",
                    "gasUsed": 61299,
                    "id": 11,
                    "methodDecoded": true,
                    "operation": "CALL",
                    "output": "0x00000000000000000000000000000000000000000000007853164afd220ce5c300000000000000000000000000000000000000000000000000011d1df9682c8d",
                    "revert": false,
                    "revertMessage": "",
                    "selector": "0x8201aa3f",
                    "status": true,
                    "value": "0"
                },
                "nodeType": 0
            },
            "12": {
                "event": {
                    "contract": "0xe5d1fab0c5596ef846dcc0958d6d0b20e1ec4498",
                    "decodedLog": null,
                    "id": 12,
                    "logData": "0x000000000000000000000000000000000000000000000000000000000000002000000000000000000000000000000000000000000000000000000000000000a48201aa3f0000000000000000000000009f8f72aa9304c8b593d555f12ef6589cc3a579a20000000000000000000000000000000000000000000000000990034c4c5fdbab0000000000000000000000006b175474e89094c44da98b954eedeac495271d0f00000000000000000000000000000000000000000000007853164afd220ce5c300000000000000000000000000000000000000000000000000011d1df9682c8d00000000000000000000000000000000000000000000000000000000",
                    "logDecoded": false,
                    "operation": "EVENT",
                    "revert": false,
                    "status": true,
                    "topics": [
                        "0x8201aa3f00000000000000000000000000000000000000000000000000000000",
                        "0x0000000000000000000000005f0c8c95011f9e700877db89fb6d2dd1959eb6f6"
                    ]
                },
                "nodeType": 1
            },
            "13": {
                "event": {
                    "contract": "0xe5d1fab0c5596ef846dcc0958d6d0b20e1ec4498",
                    "decodedLog": {
                        "name": "LOG_SWAP",
                        "params": [
                            {
                                "name": "caller",
                                "type": "address",
                                "value": "0x5f0c8c95011f9e700877db89fb6d2dd1959eb6f6"
                            },
                            {
                                "name": "tokenIn",
                                "type": "address",
                                "value": "0x9f8f72aa9304c8b593d555f12ef6589cc3a579a2"
                            },
                            {
                                "name": "tokenOut",
                                "type": "address",
                                "value": "0x6b175474e89094c44da98b954eedeac495271d0f"
                            },
                            {
                                "name": "tokenAmountIn",
                                "type": "uint256",
                                "value": "689,054,369,221,434,283"
                            },
                            {
                                "name": "tokenAmountOut",
                                "type": "uint256",
                                "value": "2,219,596,344,050,840,298,947"
                            }
                        ],
                        "signature": "LOG_SWAP(address,address,address,uint256,uint256)"
                    },
                    "id": 13,
                    "logData": "0x0000000000000000000000000000000000000000000000000990034c4c5fdbab00000000000000000000000000000000000000000000007853164afd220ce5c3",
                    "logDecoded": true,
                    "operation": "EVENT",
                    "revert": false,
                    "status": true,
                    "topics": [
                        "0x908fb5ee8f16c6bc9bc3690973819f32a4d4b10188134543c88706e0e1d43378",
                        "0x0000000000000000000000005f0c8c95011f9e700877db89fb6d2dd1959eb6f6",
                        "0x0000000000000000000000009f8f72aa9304c8b593d555f12ef6589cc3a579a2",
                        "0x0000000000000000000000006b175474e89094c44da98b954eedeac495271d0f"
                    ]
                },
                "nodeType": 1
            },
            "14": {
                "invocation": {
                    "address": "0x9f8f72aa9304c8b593d555f12ef6589cc3a579a2",
                    "callData": "0x0000000000000000000000005f0c8c95011f9e700877db89fb6d2dd1959eb6f6000000000000000000000000e5d1fab0c5596ef846dcc0958d6d0b20e1ec44980000000000000000000000000000000000000000000000000990034c4c5fdbab",
                    "decodedMethod": {
                        "callParams": [
                            {
                                "name": "src",
                                "type": "address",
                                "value": "0x5f0c8c95011f9e700877db89fb6d2dd1959eb6f6"
                            },
                            {
                                "name": "dst",
                                "type": "address",
                                "value": "0xe5d1fab0c5596ef846dcc0958d6d0b20e1ec4498"
                            },
                            {
                                "decimalAvailable": true,
                                "name": "wad",
                                "type": "uint256",
                                "value": "689,054,369,221,434,283"
                            }
                        ],
                        "constructorArguments": "",
                        "name": "transferFrom",
                        "returnParams": [
                            {
                                "name": "",
                                "type": "bool",
                                "value": true
                            }
                        ],
                        "signature": "transferFrom(address,address,uint256)"
                    },
                    "errorInfo": "",
                    "fromAddress": "0xe5d1fab0c5596ef846dcc0958d6d0b20e1ec4498",
                    "gasUsed": 10376,
                    "id": 14,
                    "methodDecoded": true,
                    "operation": "CALL",
                    "output": "0x0000000000000000000000000000000000000000000000000000000000000001",
                    "revert": false,
                    "revertMessage": "",
                    "selector": "0x23b872dd",
                    "status": true,
                    "value": "0"
                },
                "nodeType": 0
            },
            "15": {
                "event": {
                    "contract": "0x9f8f72aa9304c8b593d555f12ef6589cc3a579a2",
                    "decodedLog": {
                        "name": "Transfer",
                        "params": [
                            {
                                "name": "from",
                                "type": "address",
                                "value": "0x5f0c8c95011f9e700877db89fb6d2dd1959eb6f6"
                            },
                            {
                                "name": "to",
                                "type": "address",
                                "value": "0xe5d1fab0c5596ef846dcc0958d6d0b20e1ec4498"
                            },
                            {
                                "decimalAvailable": true,
                                "name": "value",
                                "type": "uint256",
                                "value": "689,054,369,221,434,283"
                            }
                        ],
                        "signature": "Transfer(address,address,uint256)"
                    },
                    "id": 15,
                    "logData": "0x0000000000000000000000000000000000000000000000000990034c4c5fdbab",
                    "logDecoded": true,
                    "operation": "EVENT",
                    "revert": false,
                    "status": true,
                    "topics": [
                        "0xddf252ad1be2c89b69c2b068fc378daa952ba7f163c4a11628f55a4df523b3ef",
                        "0x0000000000000000000000005f0c8c95011f9e700877db89fb6d2dd1959eb6f6",
                        "0x000000000000000000000000e5d1fab0c5596ef846dcc0958d6d0b20e1ec4498"
                    ]
                },
                "nodeType": 1
            },
            "16": {
                "invocation": {
                    "address": "0x6b175474e89094c44da98b954eedeac495271d0f",
                    "callData": "0x0000000000000000000000005f0c8c95011f9e700877db89fb6d2dd1959eb6f600000000000000000000000000000000000000000000007853164afd220ce5c3",
                    "decodedMethod": {
                        "callParams": [
                            {
                                "name": "dst",
                                "type": "address",
                                "value": "0x5f0c8c95011f9e700877db89fb6d2dd1959eb6f6"
                            },
                            {
                                "decimalAvailable": true,
                                "name": "wad",
                                "type": "uint256",
                                "value": "2,219,596,344,050,840,298,947"
                            }
                        ],
                        "constructorArguments": "",
                        "name": "transfer",
                        "returnParams": [
                            {
                                "name": "",
                                "type": "bool",
                                "value": true
                            }
                        ],
                        "signature": "transfer(address,uint256)"
                    },
                    "errorInfo": "",
                    "fromAddress": "0xe5d1fab0c5596ef846dcc0958d6d0b20e1ec4498",
                    "gasUsed": 26174,
                    "id": 16,
                    "methodDecoded": true,
                    "operation": "CALL",
                    "output": "0x0000000000000000000000000000000000000000000000000000000000000001",
                    "revert": false,
                    "revertMessage": "",
                    "selector": "0xa9059cbb",
                    "status": true,
                    "value": "0"
                },
                "nodeType": 0
            },
            "17": {
                "event": {
                    "contract": "0x6b175474e89094c44da98b954eedeac495271d0f",
                    "decodedLog": {
                        "name": "Transfer",
                        "params": [
                            {
                                "name": "src",
                                "type": "address",
                                "value": "0xe5d1fab0c5596ef846dcc0958d6d0b20e1ec4498"
                            },
                            {
                                "name": "dst",
                                "type": "address",
                                "value": "0x5f0c8c95011f9e700877db89fb6d2dd1959eb6f6"
                            },
                            {
                                "decimalAvailable": true,
                                "name": "wad",
                                "type": "uint256",
                                "value": "2,219,596,344,050,840,298,947"
                            }
                        ],
                        "signature": "Transfer(address,address,uint256)"
                    },
                    "id": 17,
                    "logData": "0x00000000000000000000000000000000000000000000007853164afd220ce5c3",
                    "logDecoded": true,
                    "operation": "EVENT",
                    "revert": false,
                    "status": true,
                    "topics": [
                        "0xddf252ad1be2c89b69c2b068fc378daa952ba7f163c4a11628f55a4df523b3ef",
                        "0x000000000000000000000000e5d1fab0c5596ef846dcc0958d6d0b20e1ec4498",
                        "0x0000000000000000000000005f0c8c95011f9e700877db89fb6d2dd1959eb6f6"
                    ]
                },
                "nodeType": 1
            },
            "18": {
                "invocation": {
                    "address": "0x6b175474e89094c44da98b954eedeac495271d0f",
                    "callData": "0x000000000000000000000000a478c2975ab1ea89e8196811f51a7b7ade33eb1100000000000000000000000000000000000000000000007853164afd220ce5c3",
                    "decodedMethod": {
                        "callParams": [
                            {
                                "name": "dst",
                                "type": "address",
                                "value": "0xa478c2975ab1ea89e8196811f51a7b7ade33eb11"
                            },
                            {
                                "decimalAvailable": true,
                                "name": "wad",
                                "type": "uint256",
                                "value": "2,219,596,344,050,840,298,947"
                            }
                        ],
                        "constructorArguments": "",
                        "name": "transfer",
                        "returnParams": [
                            {
                                "name": "",
                                "type": "bool",
                                "value": true
                            }
                        ],
                        "signature": "transfer(address,uint256)"
                    },
                    "errorInfo": "",
                    "fromAddress": "0x5f0c8c95011f9e700877db89fb6d2dd1959eb6f6",
                    "gasUsed": 6274,
                    "id": 18,
                    "methodDecoded": true,
                    "operation": "CALL",
                    "output": "0x0000000000000000000000000000000000000000000000000000000000000001",
                    "revert": false,
                    "revertMessage": "",
                    "selector": "0xa9059cbb",
                    "status": true,
                    "value": "0"
                },
                "nodeType": 0
            },
            "19": {
                "event": {
                    "contract": "0x6b175474e89094c44da98b954eedeac495271d0f",
                    "decodedLog": {
                        "name": "Transfer",
                        "params": [
                            {
                                "name": "src",
                                "type": "address",
                                "value": "0x5f0c8c95011f9e700877db89fb6d2dd1959eb6f6"
                            },
                            {
                                "name": "dst",
                                "type": "address",
                                "value": "0xa478c2975ab1ea89e8196811f51a7b7ade33eb11"
                            },
                            {
                                "decimalAvailable": true,
                                "name": "wad",
                                "type": "uint256",
                                "value": "2,219,596,344,050,840,298,947"
                            }
                        ],
                        "signature": "Transfer(address,address,uint256)"
                    },
                    "id": 19,
                    "logData": "0x00000000000000000000000000000000000000000000007853164afd220ce5c3",
                    "logDecoded": true,
                    "operation": "EVENT",
                    "revert": false,
                    "status": true,
                    "topics": [
                        "0xddf252ad1be2c89b69c2b068fc378daa952ba7f163c4a11628f55a4df523b3ef",
                        "0x0000000000000000000000005f0c8c95011f9e700877db89fb6d2dd1959eb6f6",
                        "0x000000000000000000000000a478c2975ab1ea89e8196811f51a7b7ade33eb11"
                    ]
                },
                "nodeType": 1
            },
            "2": {
                "invocation": {
                    "address": "0xc02aaa39b223fe8d0a0e5c4f27ead9083c756cc2",
                    "callData": "0x0000000000000000000000009866772a9bdb4dc9d2c5a4753e8658b8b0ca1fc30000000000000000000000000000000000000000000000000c70d939fa4c2068",
                    "decodedMethod": {
                        "callParams": [
                            {
                                "name": "guy",
                                "type": "address",
                                "value": "0x9866772a9bdb4dc9d2c5a4753e8658b8b0ca1fc3"
                            },
                            {
                                "decimalAvailable": true,
                                "name": "wad",
                                "type": "uint256",
                                "value": "896,455,168,882,385,000"
                            }
                        ],
                        "constructorArguments": "",
                        "name": "approve",
                        "returnParams": [
                            {
                                "name": "",
                                "type": "bool",
                                "value": true
                            }
                        ],
                        "signature": "approve(address,uint256)"
                    },
                    "errorInfo": "",
                    "fromAddress": "0x5f0c8c95011f9e700877db89fb6d2dd1959eb6f6",
                    "gasUsed": 22320,
                    "id": 2,
                    "methodDecoded": true,
                    "operation": "CALL",
                    "output": "0x0000000000000000000000000000000000000000000000000000000000000001",
                    "revert": false,
                    "revertMessage": "",
                    "selector": "0x095ea7b3",
                    "status": true,
                    "value": "0"
                },
                "nodeType": 0
            },
            "20": {
                "invocation": {
                    "address": "0xa478c2975ab1ea89e8196811f51a7b7ade33eb11",
                    "callData": "0x00000000000000000000000000000000000000000000000000000000000000000000000000000000000000000000000000000000000000000c910130dc16e5450000000000000000000000005f0c8c95011f9e700877db89fb6d2dd1959eb6f600000000000000000000000000000000000000000000000000000000000000800000000000000000000000000000000000000000000000000000000000000000",
                    "decodedMethod": {
                        "callParams": [
                            {
                                "name": "amount0Out",
                                "type": "uint256",
                                "value": "0"
                            },
                            {
                                "name": "amount1Out",
                                "type": "uint256",
                                "value": "905,506,309,440,726,341"
                            },
                            {
                                "name": "to",
                                "type": "address",
                                "value": "0x5f0c8c95011f9e700877db89fb6d2dd1959eb6f6"
                            },
                            {
                                "name": "data",
                                "type": "bytes",
                                "value": "0x"
                            }
                        ],
                        "constructorArguments": "",
                        "name": "swap",
                        "returnParams": [],
                        "signature": "swap(uint256,uint256,address,bytes)"
                    },
                    "errorInfo": "",
                    "fromAddress": "0x5f0c8c95011f9e700877db89fb6d2dd1959eb6f6",
                    "gasUsed": 28521,
                    "id": 20,
                    "methodDecoded": true,
                    "operation": "CALL",
                    "output": "",
                    "revert": false,
                    "revertMessage": "",
                    "selector": "0x022c0d9f",
                    "status": true,
                    "value": "0"
                },
                "nodeType": 0
            },
            "21": {
                "invocation": {
                    "address": "0xc02aaa39b223fe8d0a0e5c4f27ead9083c756cc2",
                    "callData": "0x0000000000000000000000005f0c8c95011f9e700877db89fb6d2dd1959eb6f60000000000000000000000000000000000000000000000000c910130dc16e545",
                    "decodedMethod": {
                        "callParams": [
                            {
                                "name": "dst",
                                "type": "address",
                                "value": "0x5f0c8c95011f9e700877db89fb6d2dd1959eb6f6"
                            },
                            {
                                "decimalAvailable": true,
                                "name": "wad",
                                "type": "uint256",
                                "value": "905,506,309,440,726,341"
                            }
                        ],
                        "constructorArguments": "",
                        "name": "transfer",
                        "returnParams": [
                            {
                                "name": "",
                                "type": "bool",
                                "value": true
                            }
                        ],
                        "signature": "transfer(address,uint256)"
                    },
                    "errorInfo": "",
                    "fromAddress": "0xa478c2975ab1ea89e8196811f51a7b7ade33eb11",
                    "gasUsed": 6062,
                    "id": 21,
                    "methodDecoded": true,
                    "operation": "CALL",
                    "output": "0x0000000000000000000000000000000000000000000000000000000000000001",
                    "revert": false,
                    "revertMessage": "",
                    "selector": "0xa9059cbb",
                    "status": true,
                    "value": "0"
                },
                "nodeType": 0
            },
            "22": {
                "event": {
                    "contract": "0xc02aaa39b223fe8d0a0e5c4f27ead9083c756cc2",
                    "decodedLog": {
                        "name": "Transfer",
                        "params": [
                            {
                                "name": "src",
                                "type": "address",
                                "value": "0xa478c2975ab1ea89e8196811f51a7b7ade33eb11"
                            },
                            {
                                "name": "dst",
                                "type": "address",
                                "value": "0x5f0c8c95011f9e700877db89fb6d2dd1959eb6f6"
                            },
                            {
                                "decimalAvailable": true,
                                "name": "wad",
                                "type": "uint256",
                                "value": "905,506,309,440,726,341"
                            }
                        ],
                        "signature": "Transfer(address,address,uint256)"
                    },
                    "id": 22,
                    "logData": "0x0000000000000000000000000000000000000000000000000c910130dc16e545",
                    "logDecoded": true,
                    "operation": "EVENT",
                    "revert": false,
                    "status": true,
                    "topics": [
                        "0xddf252ad1be2c89b69c2b068fc378daa952ba7f163c4a11628f55a4df523b3ef",
                        "0x000000000000000000000000a478c2975ab1ea89e8196811f51a7b7ade33eb11",
                        "0x0000000000000000000000005f0c8c95011f9e700877db89fb6d2dd1959eb6f6"
                    ]
                },
                "nodeType": 1
            },
            "23": {
                "invocation": {
                    "address": "0x6b175474e89094c44da98b954eedeac495271d0f",
                    "callData": "0x000000000000000000000000a478c2975ab1ea89e8196811f51a7b7ade33eb11",
                    "decodedMethod": {
                        "callParams": [
                            {
                                "name": "",
                                "type": "address",
                                "value": "0xa478c2975ab1ea89e8196811f51a7b7ade33eb11"
                            }
                        ],
                        "constructorArguments": "",
                        "name": "balanceOf",
                        "returnParams": [
                            {
                                "decimalAvailable": true,
                                "name": "",
                                "type": "uint256",
                                "value": "41,606,861,490,315,558,831,348,151"
                            }
                        ],
                        "signature": "balanceOf(address)"
                    },
                    "errorInfo": "",
                    "fromAddress": "0xa478c2975ab1ea89e8196811f51a7b7ade33eb11",
                    "gasUsed": 602,
                    "id": 23,
                    "methodDecoded": true,
                    "operation": "STATICCALL",
                    "output": "0x000000000000000000000000000000000000000000226a987b1c9a14eb1159b7",
                    "revert": false,
                    "revertMessage": "",
                    "selector": "0x70a08231",
                    "status": true,
                    "value": "0"
                },
                "nodeType": 0
            },
            "24": {
                "invocation": {
                    "address": "0xc02aaa39b223fe8d0a0e5c4f27ead9083c756cc2",
                    "callData": "0x000000000000000000000000a478c2975ab1ea89e8196811f51a7b7ade33eb11",
                    "decodedMethod": {
                        "callParams": [
                            {
                                "name": "",
                                "type": "address",
                                "value": "0xa478c2975ab1ea89e8196811f51a7b7ade33eb11"
                            }
                        ],
                        "constructorArguments": "",
                        "name": "balanceOf",
                        "returnParams": [
                            {
                                "decimalAvailable": true,
                                "name": "",
                                "type": "uint256",
                                "value": "17,024,097,969,495,134,983,981"
                            }
                        ],
                        "signature": "balanceOf(address)"
                    },
                    "errorInfo": "",
                    "fromAddress": "0xa478c2975ab1ea89e8196811f51a7b7ade33eb11",
                    "gasUsed": 534,
                    "id": 24,
                    "methodDecoded": true,
                    "operation": "STATICCALL",
                    "output": "0x00000000000000000000000000000000000000000000039ae0d1b9b81658572d",
                    "revert": false,
                    "revertMessage": "",
                    "selector": "0x70a08231",
                    "status": true,
                    "value": "0"
                },
                "nodeType": 0
            },
            "25": {
                "event": {
                    "contract": "0xa478c2975ab1ea89e8196811f51a7b7ade33eb11",
                    "decodedLog": {
                        "name": "Sync",
                        "params": [
                            {
                                "name": "reserve0",
                                "type": "uint112",
                                "value": "41,606,861,490,315,558,831,348,151"
                            },
                            {
                                "name": "reserve1",
                                "type": "uint112",
                                "value": "17,024,097,969,495,134,983,981"
                            }
                        ],
                        "signature": "Sync(uint112,uint112)"
                    },
                    "id": 25,
                    "logData": "0x000000000000000000000000000000000000000000226a987b1c9a14eb1159b700000000000000000000000000000000000000000000039ae0d1b9b81658572d",
                    "logDecoded": true,
                    "operation": "EVENT",
                    "revert": false,
                    "status": true,
                    "topics": [
                        "0x1c411e9a96e071241c2f21f7726b17ae89e3cab4c78be50e062b03a9fffbbad1"
                    ]
                },
                "nodeType": 1
            },
            "26": {
                "event": {
                    "contract": "0xa478c2975ab1ea89e8196811f51a7b7ade33eb11",
                    "decodedLog": {
                        "name": "Swap",
                        "params": [
                            {
                                "name": "sender",
                                "type": "address",
                                "value": "0x5f0c8c95011f9e700877db89fb6d2dd1959eb6f6"
                            },
                            {
                                "name": "to",
                                "type": "address",
                                "value": "0x5f0c8c95011f9e700877db89fb6d2dd1959eb6f6"
                            },
                            {
                                "name": "amount0In",
                                "type": "uint256",
                                "value": "2,219,596,344,050,840,298,947"
                            },
                            {
                                "name": "amount1In",
                                "type": "uint256",
                                "value": "0"
                            },
                            {
                                "name": "amount0Out",
                                "type": "uint256",
                                "value": "0"
                            },
                            {
                                "name": "amount1Out",
                                "type": "uint256",
                                "value": "905,506,309,440,726,341"
                            }
                        ],
                        "signature": "Swap(address,uint256,uint256,uint256,uint256,address)"
                    },
                    "id": 26,
                    "logData": "0x00000000000000000000000000000000000000000000007853164afd220ce5c3000000000000000000000000000000000000000000000000000000000000000000000000000000000000000000000000000000000000000000000000000000000000000000000000000000000000000000000000000000000c910130dc16e545",
                    "logDecoded": true,
                    "operation": "EVENT",
                    "revert": false,
                    "status": true,
                    "topics": [
                        "0xd78ad95fa46c994b6551d0da85fc275fe613ce37657fb8d5e3d130840159d822",
                        "0x0000000000000000000000005f0c8c95011f9e700877db89fb6d2dd1959eb6f6",
                        "0x0000000000000000000000005f0c8c95011f9e700877db89fb6d2dd1959eb6f6"
                    ]
                },
                "nodeType": 1
            },
            "27": {
                "invocation": {
                    "address": "0xc02aaa39b223fe8d0a0e5c4f27ead9083c756cc2",
                    "callData": "0x0000000000000000000000005f0c8c95011f9e700877db89fb6d2dd1959eb6f6",
                    "decodedMethod": {
                        "callParams": [
                            {
                                "name": "",
                                "type": "address",
                                "value": "0x5f0c8c95011f9e700877db89fb6d2dd1959eb6f6"
                            }
                        ],
                        "constructorArguments": "",
                        "name": "balanceOf",
                        "returnParams": [
                            {
                                "decimalAvailable": true,
                                "name": "",
                                "type": "uint256",
                                "value": "13,101,312,068,244,176,745"
                            }
                        ],
                        "signature": "balanceOf(address)"
                    },
                    "errorInfo": "",
                    "fromAddress": "0x5f0c8c95011f9e700877db89fb6d2dd1959eb6f6",
                    "gasUsed": 534,
                    "id": 27,
                    "methodDecoded": true,
                    "operation": "STATICCALL",
                    "output": "0x000000000000000000000000000000000000000000000000b5d135e98f3b7f69",
                    "revert": false,
                    "revertMessage": "",
                    "selector": "0x70a08231",
                    "status": true,
                    "value": "0"
                },
                "nodeType": 0
            },
            "28": {
                "invocation": {
                    "address": "0xb3b7874f13387d44a3398d298b075b7a3505d8d4",
                    "callData": "0x",
                    "decodedMethod": null,
                    "errorInfo": "",
                    "fromAddress": "0x5f0c8c95011f9e700877db89fb6d2dd1959eb6f6",
                    "gasUsed": 0,
                    "id": 28,
                    "methodDecoded": false,
                    "operation": "CALL",
                    "output": "",
                    "revert": false,
                    "revertMessage": "",
                    "selector": "fallback",
                    "status": true,
                    "value": "0.00731686794626102"
                },
                "nodeType": 0
            },
            "3": {
                "event": {
                    "contract": "0xc02aaa39b223fe8d0a0e5c4f27ead9083c756cc2",
                    "decodedLog": {
                        "name": "Approval",
                        "params": [
                            {
                                "name": "src",
                                "type": "address",
                                "value": "0x5f0c8c95011f9e700877db89fb6d2dd1959eb6f6"
                            },
                            {
                                "name": "guy",
                                "type": "address",
                                "value": "0x9866772a9bdb4dc9d2c5a4753e8658b8b0ca1fc3"
                            },
                            {
                                "decimalAvailable": true,
                                "name": "wad",
                                "type": "uint256",
                                "value": "896,455,168,882,385,000"
                            }
                        ],
                        "signature": "Approval(address,address,uint256)"
                    },
                    "id": 3,
                    "logData": "0x0000000000000000000000000000000000000000000000000c70d939fa4c2068",
                    "logDecoded": true,
                    "operation": "EVENT",
                    "revert": false,
                    "status": true,
                    "topics": [
                        "0x8c5be1e5ebec7d5bd14f71427d1e84f3dd0314c0f7b2291e5b200ac8c7c3b925",
                        "0x0000000000000000000000005f0c8c95011f9e700877db89fb6d2dd1959eb6f6",
                        "0x0000000000000000000000009866772a9bdb4dc9d2c5a4753e8658b8b0ca1fc3"
                    ]
                },
                "nodeType": 1
            },
            "4": {
                "invocation": {
                    "address": "0x9866772a9bdb4dc9d2c5a4753e8658b8b0ca1fc3",
                    "callData": "0x000000000000000000000000c02aaa39b223fe8d0a0e5c4f27ead9083c756cc20000000000000000000000000000000000000000000000000c70d939fa4c20680000000000000000000000009f8f72aa9304c8b593d555f12ef6589cc3a579a20000000000000000000000000000000000000000000000000990034c4c5fdbab000000000000000000000000000000000000000000000000120efd4ec30f6473",
                    "decodedMethod": {
                        "callParams": [
                            {
                                "name": "tokenIn",
                                "type": "address",
                                "value": "0xc02aaa39b223fe8d0a0e5c4f27ead9083c756cc2"
                            },
                            {
                                "name": "tokenAmountIn",
                                "type": "uint256",
                                "value": "896,455,168,882,385,000"
                            },
                            {
                                "name": "tokenOut",
                                "type": "address",
                                "value": "0x9f8f72aa9304c8b593d555f12ef6589cc3a579a2"
                            },
                            {
                                "name": "minAmountOut",
                                "type": "uint256",
                                "value": "689,054,369,221,434,283"
                            },
                            {
                                "name": "maxPrice",
                                "type": "uint256",
                                "value": "1,301,255,857,078,494,323"
                            }
                        ],
                        "constructorArguments": "",
                        "name": "swapExactAmountIn",
                        "returnParams": [
                            {
                                "name": "tokenAmountOut",
                                "type": "uint256",
                                "value": "689,054,369,221,434,283"
                            },
                            {
                                "name": "spotPriceAfter",
                                "type": "uint256",
                                "value": "1,301,255,857,078,494,323"
                            }
                        ],
                        "signature": "swapExactAmountIn(address,uint256,address,uint256,uint256)"
                    },
                    "errorInfo": "",
                    "fromAddress": "0x5f0c8c95011f9e700877db89fb6d2dd1959eb6f6",
                    "gasUsed": 65341,
                    "id": 4,
                    "methodDecoded": true,
                    "operation": "CALL",
                    "output": "0x0000000000000000000000000000000000000000000000000990034c4c5fdbab000000000000000000000000000000000000000000000000120efd4ec30f6473",
                    "revert": false,
                    "revertMessage": "",
                    "selector": "0x8201aa3f",
                    "status": true,
                    "value": "0"
                },
                "nodeType": 0
            },
            "5": {
                "event": {
                    "contract": "0x9866772a9bdb4dc9d2c5a4753e8658b8b0ca1fc3",
                    "decodedLog": null,
                    "id": 5,
                    "logData": "0x000000000000000000000000000000000000000000000000000000000000002000000000000000000000000000000000000000000000000000000000000000a48201aa3f000000000000000000000000c02aaa39b223fe8d0a0e5c4f27ead9083c756cc20000000000000000000000000000000000000000000000000c70d939fa4c20680000000000000000000000009f8f72aa9304c8b593d555f12ef6589cc3a579a20000000000000000000000000000000000000000000000000990034c4c5fdbab000000000000000000000000000000000000000000000000120efd4ec30f647300000000000000000000000000000000000000000000000000000000",
                    "logDecoded": false,
                    "operation": "EVENT",
                    "revert": false,
                    "status": true,
                    "topics": [
                        "0x8201aa3f00000000000000000000000000000000000000000000000000000000",
                        "0x0000000000000000000000005f0c8c95011f9e700877db89fb6d2dd1959eb6f6"
                    ]
                },
                "nodeType": 1
            },
            "6": {
                "event": {
                    "contract": "0x9866772a9bdb4dc9d2c5a4753e8658b8b0ca1fc3",
                    "decodedLog": {
                        "name": "LOG_SWAP",
                        "params": [
                            {
                                "name": "caller",
                                "type": "address",
                                "value": "0x5f0c8c95011f9e700877db89fb6d2dd1959eb6f6"
                            },
                            {
                                "name": "tokenIn",
                                "type": "address",
                                "value": "0xc02aaa39b223fe8d0a0e5c4f27ead9083c756cc2"
                            },
                            {
                                "name": "tokenOut",
                                "type": "address",
                                "value": "0x9f8f72aa9304c8b593d555f12ef6589cc3a579a2"
                            },
                            {
                                "name": "tokenAmountIn",
                                "type": "uint256",
                                "value": "896,455,168,882,385,000"
                            },
                            {
                                "name": "tokenAmountOut",
                                "type": "uint256",
                                "value": "689,054,369,221,434,283"
                            }
                        ],
                        "signature": "LOG_SWAP(address,address,address,uint256,uint256)"
                    },
                    "id": 6,
                    "logData": "0x0000000000000000000000000000000000000000000000000c70d939fa4c20680000000000000000000000000000000000000000000000000990034c4c5fdbab",
                    "logDecoded": true,
                    "operation": "EVENT",
                    "revert": false,
                    "status": true,
                    "topics": [
                        "0x908fb5ee8f16c6bc9bc3690973819f32a4d4b10188134543c88706e0e1d43378",
                        "0x0000000000000000000000005f0c8c95011f9e700877db89fb6d2dd1959eb6f6",
                        "0x000000000000000000000000c02aaa39b223fe8d0a0e5c4f27ead9083c756cc2",
                        "0x0000000000000000000000009f8f72aa9304c8b593d555f12ef6589cc3a579a2"
                    ]
                },
                "nodeType": 1
            },
            "7": {
                "invocation": {
                    "address": "0xc02aaa39b223fe8d0a0e5c4f27ead9083c756cc2",
                    "callData": "0x0000000000000000000000005f0c8c95011f9e700877db89fb6d2dd1959eb6f60000000000000000000000009866772a9bdb4dc9d2c5a4753e8658b8b0ca1fc30000000000000000000000000000000000000000000000000c70d939fa4c2068",
                    "decodedMethod": {
                        "callParams": [
                            {
                                "name": "src",
                                "type": "address",
                                "value": "0x5f0c8c95011f9e700877db89fb6d2dd1959eb6f6"
                            },
                            {
                                "name": "dst",
                                "type": "address",
                                "value": "0x9866772a9bdb4dc9d2c5a4753e8658b8b0ca1fc3"
                            },
                            {
                                "decimalAvailable": true,
                                "name": "wad",
                                "type": "uint256",
                                "value": "896,455,168,882,385,000"
                            }
                        ],
                        "constructorArguments": "",
                        "name": "transferFrom",
                        "returnParams": [
                            {
                                "name": "",
                                "type": "bool",
                                "value": true
                            }
                        ],
                        "signature": "transferFrom(address,address,uint256)"
                    },
                    "errorInfo": "",
                    "fromAddress": "0x9866772a9bdb4dc9d2c5a4753e8658b8b0ca1fc3",
                    "gasUsed": 9748,
                    "id": 7,
                    "methodDecoded": true,
                    "operation": "CALL",
                    "output": "0x0000000000000000000000000000000000000000000000000000000000000001",
                    "revert": false,
                    "revertMessage": "",
                    "selector": "0x23b872dd",
                    "status": true,
                    "value": "0"
                },
                "nodeType": 0
            },
            "8": {
                "event": {
                    "contract": "0xc02aaa39b223fe8d0a0e5c4f27ead9083c756cc2",
                    "decodedLog": {
                        "name": "Transfer",
                        "params": [
                            {
                                "name": "src",
                                "type": "address",
                                "value": "0x5f0c8c95011f9e700877db89fb6d2dd1959eb6f6"
                            },
                            {
                                "name": "dst",
                                "type": "address",
                                "value": "0x9866772a9bdb4dc9d2c5a4753e8658b8b0ca1fc3"
                            },
                            {
                                "decimalAvailable": true,
                                "name": "wad",
                                "type": "uint256",
                                "value": "896,455,168,882,385,000"
                            }
                        ],
                        "signature": "Transfer(address,address,uint256)"
                    },
                    "id": 8,
                    "logData": "0x0000000000000000000000000000000000000000000000000c70d939fa4c2068",
                    "logDecoded": true,
                    "operation": "EVENT",
                    "revert": false,
                    "status": true,
                    "topics": [
                        "0xddf252ad1be2c89b69c2b068fc378daa952ba7f163c4a11628f55a4df523b3ef",
                        "0x0000000000000000000000005f0c8c95011f9e700877db89fb6d2dd1959eb6f6",
                        "0x0000000000000000000000009866772a9bdb4dc9d2c5a4753e8658b8b0ca1fc3"
                    ]
                },
                "nodeType": 1
            },
            "9": {
                "invocation": {
                    "address": "0x9f8f72aa9304c8b593d555f12ef6589cc3a579a2",
                    "callData": "0x0000000000000000000000005f0c8c95011f9e700877db89fb6d2dd1959eb6f60000000000000000000000000000000000000000000000000990034c4c5fdbab",
                    "decodedMethod": {
                        "callParams": [
                            {
                                "name": "dst",
                                "type": "address",
                                "value": "0x5f0c8c95011f9e700877db89fb6d2dd1959eb6f6"
                            },
                            {
                                "decimalAvailable": true,
                                "name": "wad",
                                "type": "uint256",
                                "value": "689,054,369,221,434,283"
                            }
                        ],
                        "constructorArguments": "",
                        "name": "transfer",
                        "returnParams": [
                            {
                                "name": "",
                                "type": "bool",
                                "value": true
                            }
                        ],
                        "signature": "transfer(address,uint256)"
                    },
                    "errorInfo": "",
                    "fromAddress": "0x9866772a9bdb4dc9d2c5a4753e8658b8b0ca1fc3",
                    "gasUsed": 26706,
                    "id": 9,
                    "methodDecoded": true,
                    "operation": "CALL",
                    "output": "0x0000000000000000000000000000000000000000000000000000000000000001",
                    "revert": false,
                    "revertMessage": "",
                    "selector": "0xa9059cbb",
                    "status": true,
                    "value": "0"
                },
                "nodeType": 0
            }
        },
        "gasFlame": [
            {
                "children": [
                    {
                        "children": [
                            {
                                "children": [],
                                "depth": 0,
                                "name": "Initial Gas",
                                "value": 116204
                            },
                            {
                                "children": [
                                    {
                                        "children": [],
                                        "depth": 1,
                                        "name": "balanceOf",
                                        "value": 534
                                    },
                                    {
                                        "children": [],
                                        "depth": 1,
                                        "name": "approve",
                                        "value": 22320
                                    },
                                    {
                                        "children": [
                                            {
                                                "children": [],
                                                "depth": 2,
                                                "name": "transferFrom",
                                                "value": 9748
                                            },
                                            {
                                                "children": [],
                                                "depth": 2,
                                                "name": "transfer",
                                                "value": 26706
                                            }
                                        ],
                                        "depth": 1,
                                        "name": "swapExactAmountIn",
                                        "value": 65341
                                    },
                                    {
                                        "children": [
                                            {
                                                "children": [],
                                                "depth": 2,
                                                "name": "transferFrom",
                                                "value": 10376
                                            },
                                            {
                                                "children": [],
                                                "depth": 2,
                                                "name": "transfer",
                                                "value": 26174
                                            }
                                        ],
                                        "depth": 1,
                                        "name": "swapExactAmountIn",
                                        "value": 61299
                                    },
                                    {
                                        "children": [],
                                        "depth": 1,
                                        "name": "transfer",
                                        "value": 6274
                                    },
                                    {
                                        "children": [
                                            {
                                                "children": [],
                                                "depth": 2,
                                                "name": "transfer",
                                                "value": 6062
                                            },
                                            {
                                                "children": [],
                                                "depth": 2,
                                                "name": "balanceOf",
                                                "value": 602
                                            },
                                            {
                                                "children": [],
                                                "depth": 2,
                                                "name": "balanceOf",
                                                "value": 534
                                            }
                                        ],
                                        "depth": 1,
                                        "name": "swap",
                                        "value": 28521
                                    },
                                    {
                                        "children": [],
                                        "depth": 1,
                                        "name": "balanceOf",
                                        "value": 534
                                    },
                                    {
                                        "children": [],
                                        "depth": 1,
                                        "name": "fallback",
                                        "value": 0
                                    }
                                ],
                                "depth": 0,
                                "name": "Executed Gas",
                                "value": 200548
                            }
                        ],
                        "depth": -1,
                        "name": "Actual Gas Used",
                        "value": 248652
                    },
                    {
                        "children": [],
                        "depth": -1,
                        "name": "Refunded Gas",
                        "value": 68100
                    }
                ],
                "depth": -2,
                "name": "Total Gas",
                "value": 316752
            }
        ],
        "isConfirmed": true,
        "mainTrace": [
            {
                "children": [
                    {
                        "children": [
                            {
                                "children": [],
                                "depth": 1,
                                "id": 1,
                                "order": 1
                            },
                            {
                                "children": [
                                    {
                                        "children": [],
                                        "depth": 2,
                                        "id": 3,
                                        "order": 3
                                    }
                                ],
                                "depth": 1,
                                "id": 2,
                                "order": 2
                            },
                            {
                                "children": [
                                    {
                                        "children": [],
                                        "depth": 2,
                                        "id": 5,
                                        "order": 5
                                    },
                                    {
                                        "children": [],
                                        "depth": 2,
                                        "id": 6,
                                        "order": 6
                                    },
                                    {
                                        "children": [
                                            {
                                                "children": [],
                                                "depth": 3,
                                                "id": 8,
                                                "order": 8
                                            }
                                        ],
                                        "depth": 2,
                                        "id": 7,
                                        "order": 7
                                    },
                                    {
                                        "children": [
                                            {
                                                "children": [],
                                                "depth": 3,
                                                "id": 10,
                                                "order": 10
                                            }
                                        ],
                                        "depth": 2,
                                        "id": 9,
                                        "order": 9
                                    }
                                ],
                                "depth": 1,
                                "id": 4,
                                "order": 4
                            },
                            {
                                "children": [
                                    {
                                        "children": [],
                                        "depth": 2,
                                        "id": 12,
                                        "order": 12
                                    },
                                    {
                                        "children": [],
                                        "depth": 2,
                                        "id": 13,
                                        "order": 13
                                    },
                                    {
                                        "children": [
                                            {
                                                "children": [],
                                                "depth": 3,
                                                "id": 15,
                                                "order": 15
                                            }
                                        ],
                                        "depth": 2,
                                        "id": 14,
                                        "order": 14
                                    },
                                    {
                                        "children": [
                                            {
                                                "children": [],
                                                "depth": 3,
                                                "id": 17,
                                                "order": 17
                                            }
                                        ],
                                        "depth": 2,
                                        "id": 16,
                                        "order": 16
                                    }
                                ],
                                "depth": 1,
                                "id": 11,
                                "order": 11
                            },
                            {
                                "children": [
                                    {
                                        "children": [],
                                        "depth": 2,
                                        "id": 19,
                                        "order": 19
                                    }
                                ],
                                "depth": 1,
                                "id": 18,
                                "order": 18
                            },
                            {
                                "children": [
                                    {
                                        "children": [
                                            {
                                                "children": [],
                                                "depth": 3,
                                                "id": 22,
                                                "order": 22
                                            }
                                        ],
                                        "depth": 2,
                                        "id": 21,
                                        "order": 21
                                    },
                                    {
                                        "children": [],
                                        "depth": 2,
                                        "id": 23,
                                        "order": 23
                                    },
                                    {
                                        "children": [],
                                        "depth": 2,
                                        "id": 24,
                                        "order": 24
                                    },
                                    {
                                        "children": [],
                                        "depth": 2,
                                        "id": 25,
                                        "order": 25
                                    },
                                    {
                                        "children": [],
                                        "depth": 2,
                                        "id": 26,
                                        "order": 26
                                    }
                                ],
                                "depth": 1,
                                "id": 20,
                                "order": 20
                            },
                            {
                                "children": [],
                                "depth": 1,
                                "id": 27,
                                "order": 27
                            },
                            {
                                "children": [],
                                "depth": 1,
                                "id": 28,
                                "order": 28
                            }
                        ],
                        "depth": 0,
                        "id": 0,
                        "order": 0
                    }
                ],
                "depth": -1,
                "id": -1,
                "order": -1
            }
        ],
        "mainTraceNodeCount": 29,
        "parentIdMap": {
            "0": -1,
            "1": 0,
            "10": 9,
            "11": 0,
            "12": 11,
            "13": 11,
            "14": 11,
            "15": 14,
            "16": 11,
            "17": 16,
            "18": 0,
            "19": 18,
            "2": 0,
            "20": 0,
            "21": 20,
            "22": 21,
            "23": 20,
            "24": 20,
            "25": 20,
            "26": 20,
            "27": 0,
            "28": 0,
            "3": 2,
            "4": 0,
            "5": 4,
            "6": 4,
            "7": 4,
            "8": 7,
            "9": 4
        },
        "tidyTrace": [
            {
                "children": [
                    {
                        "children": [
                            {
                                "children": [
                                    {
                                        "children": [],
                                        "depth": 2,
                                        "id": 3,
                                        "order": 3
                                    }
                                ],
                                "depth": 1,
                                "id": 2,
                                "order": 2
                            },
                            {
                                "children": [
                                    {
                                        "children": [],
                                        "depth": 2,
                                        "id": 5,
                                        "order": 5
                                    },
                                    {
                                        "children": [],
                                        "depth": 2,
                                        "id": 6,
                                        "order": 6
                                    },
                                    {
                                        "children": [
                                            {
                                                "children": [],
                                                "depth": 3,
                                                "id": 8,
                                                "order": 8
                                            }
                                        ],
                                        "depth": 2,
                                        "id": 7,
                                        "order": 7
                                    },
                                    {
                                        "children": [
                                            {
                                                "children": [],
                                                "depth": 3,
                                                "id": 10,
                                                "order": 10
                                            }
                                        ],
                                        "depth": 2,
                                        "id": 9,
                                        "order": 9
                                    }
                                ],
                                "depth": 1,
                                "id": 4,
                                "order": 4
                            },
                            {
                                "children": [
                                    {
                                        "children": [],
                                        "depth": 2,
                                        "id": 12,
                                        "order": 12
                                    },
                                    {
                                        "children": [],
                                        "depth": 2,
                                        "id": 13,
                                        "order": 13
                                    },
                                    {
                                        "children": [
                                            {
                                                "children": [],
                                                "depth": 3,
                                                "id": 15,
                                                "order": 15
                                            }
                                        ],
                                        "depth": 2,
                                        "id": 14,
                                        "order": 14
                                    },
                                    {
                                        "children": [
                                            {
                                                "children": [],
                                                "depth": 3,
                                                "id": 17,
                                                "order": 17
                                            }
                                        ],
                                        "depth": 2,
                                        "id": 16,
                                        "order": 16
                                    }
                                ],
                                "depth": 1,
                                "id": 11,
                                "order": 11
                            },
                            {
                                "children": [
                                    {
                                        "children": [],
                                        "depth": 2,
                                        "id": 19,
                                        "order": 19
                                    }
                                ],
                                "depth": 1,
                                "id": 18,
                                "order": 18
                            },
                            {
                                "children": [
                                    {
                                        "children": [
                                            {
                                                "children": [],
                                                "depth": 3,
                                                "id": 22,
                                                "order": 22
                                            }
                                        ],
                                        "depth": 2,
                                        "id": 21,
                                        "order": 21
                                    },
                                    {
                                        "children": [],
                                        "depth": 2,
                                        "id": 25,
                                        "order": 25
                                    },
                                    {
                                        "children": [],
                                        "depth": 2,
                                        "id": 26,
                                        "order": 26
                                    }
                                ],
                                "depth": 1,
                                "id": 20,
                                "order": 20
                            },
                            {
                                "children": [],
                                "depth": 1,
                                "id": 28,
                                "order": 28
                            }
                        ],
                        "depth": 0,
                        "id": 0,
                        "order": 0
                    }
                ],
                "depth": -1,
                "id": -1,
                "order": -1
            }
        ],
        "tidyTraceNodeCount": 25
    },
    "state_change": {
        "stateChanges": [
            {
                "address": "0x6b175474e89094c44da98b954eedeac495271d0f",
                "erc": "ERC-20",
                "slots": [
                    {
                        "current": "0x000000000000000000000000000000000000000000226a987b1c9a14eb1159b7",
                        "key": "0xd86cc1e239204d48eb0055f151744c4bb3d2337612287be803ae8247e95a67d2",
                        "prev": "0x000000000000000000000000000000000000000000226a2028064f17c90473f4"
                    },
                    {
                        "current": "0x000000000000000000000000000000000000000000002ff6b032474bab19da85",
                        "key": "0x7a90a473191b5669f3a704b7c38cf1996b8d7795f7d91ff4061878672b5069da",
                        "prev": "0x00000000000000000000000000000000000000000000306f03489248cd26c048"
                    }
                ],
                "storageVariables": [
                    {
                        "name": "balanceOf",
                        "type": "mapping(address => uint256)",
                        "value": {
                            "pairs": [
                                {
                                    "key": "0xa478c2975ab1ea89e8196811f51a7b7ade33eb11",
                                    "value": {
                                        "current": "41606861490315558831348151",
                                        "prev": "41604641893971507991049204",
                                        "typeTag": 1
                                    }
                                },
                                {
                                    "key": "0xe5d1fab0c5596ef846dcc0958d6d0b20e1ec4498",
                                    "value": {
                                        "current": "226501820025695704308357",
                                        "prev": "228721416369746544607304",
                                        "typeTag": 1
                                    }
                                }
                            ],
                            "typeTag": 4
                        }
                    }
                ]
            },
            {
                "address": "0x9866772a9bdb4dc9d2c5a4753e8658b8b0ca1fc3",
                "erc": "ERC-20",
                "slots": [
                    {
                        "current": "0x0000000000000000000000000000000000000000000000e7fd20eb716ef2c863",
                        "key": "0x49e1bf85038c490726bebc8a57c28978456dd8fd7b6448ae247cb4b66910e159",
                        "prev": "0x0000000000000000000000000000000000000000000000e806b0eebdbb52a40e"
                    },
                    {
                        "current": "0x0000000000000000000000000000000000000000000000c8d942a64c6fa952b4",
                        "key": "0xd0bcf4df132c65dad73803c5e5e1c826f151a3342680034a8a4c8e5f8eb0c13f",
                        "prev": "0x0000000000000000000000000000000000000000000000c8ccd1cd12755d324c"
                    }
                ],
                "storageVariables": [
                    {
                        "name": "_records",
                        "type": "mapping(address => struct BPool.Record)",
                        "value": {
                            "pairs": [
                                {
                                    "key": "0x9f8f72aa9304c8b593d555f12ef6589cc3a579a2",
                                    "value": {
                                        "fields": [
                                            {
                                                "name": "balance",
                                                "type": "uint256",
                                                "value": {
                                                    "current": "4279437718390182168675",
                                                    "prev": "4280126772759403602958",
                                                    "typeTag": 1
                                                }
                                            }
                                        ],
                                        "typeTag": 3
                                    }
                                },
                                {
                                    "key": "0xc02aaa39b223fe8d0a0e5c4f27ead9083c756cc2",
                                    "value": {
                                        "fields": [
                                            {
                                                "name": "balance",
                                                "type": "uint256",
                                                "value": {
                                                    "current": "3705004072843824681652",
                                                    "prev": "3704107617674942296652",
                                                    "typeTag": 1
                                                }
                                            }
                                        ],
                                        "typeTag": 3
                                    }
                                }
                            ],
                            "typeTag": 4
                        }
                    }
                ]
            },
            {
                "address": "0x9f8f72aa9304c8b593d555f12ef6589cc3a579a2",
                "erc": "ERC-20",
                "slots": [
                    {
                        "current": "0x000000000000000000000000000000000000000c9f2c9cd0369f33f368bf1b55",
                        "key": "0xb774d71fc61a01ae3d83a0d11cae82b952595cebaa5a57b57a673439286b5369",
                        "prev": "0x000000000000000000000000000000000000000c9f2c9cd0402f373fb51ef700"
                    },
                    {
                        "current": "0x0000000000000000000000000000000000000000000000e7fd20eb716ef2c863",
                        "key": "0x46d7e7e70dab22cebeb787a3de18bfec1048ac9fd90f5eca6d060b9d02a9b6cb",
                        "prev": "0x0000000000000000000000000000000000000000000000e806b0eebdbb52a40e"
                    },
                    {
                        "current": "0x000000000000000000000000000000000000000000000003d76f4c0649414893",
                        "key": "0x67041484cd71b88dac9a649734f45be7ec323f28abfae0a4e15d9e960fb5dabe",
                        "prev": "0x000000000000000000000000000000000000000000000003cddf48b9fce16ce8"
                    }
                ],
                "storageVariables": [
                    {
                        "name": "_balances",
                        "type": "mapping(address => uint256)",
                        "value": {
                            "pairs": [
                                {
                                    "key": "0x9866772a9bdb4dc9d2c5a4753e8658b8b0ca1fc3",
                                    "value": {
                                        "current": "4279437718390182168675",
                                        "prev": "4280126772759403602958",
                                        "typeTag": 1
                                    }
                                },
                                {
                                    "key": "0xe5d1fab0c5596ef846dcc0958d6d0b20e1ec4498",
                                    "value": {
                                        "current": "70863942251580573843",
                                        "prev": "70174887882359139560",
                                        "typeTag": 1
                                    }
                                }
                            ],
                            "typeTag": 4
                        }
                    },
                    {
                        "name": "_approvals",
                        "type": "mapping(address => mapping(address => uint256))",
                        "value": {
                            "pairs": [
                                {
                                    "key": "0x5f0c8c95011f9e700877db89fb6d2dd1959eb6f6",
                                    "value": {
                                        "pairs": [
                                            {
                                                "key": "0xe5d1fab0c5596ef846dcc0958d6d0b20e1ec4498",
                                                "value": {
                                                    "current": "999999999998858977449567263573",
                                                    "prev": "999999999999548031818788697856",
                                                    "typeTag": 1
                                                }
                                            }
                                        ],
                                        "typeTag": 4
                                    }
                                }
                            ],
                            "typeTag": 4
                        }
                    }
                ]
            },
            {
                "address": "0xa478c2975ab1ea89e8196811f51a7b7ade33eb11",
                "erc": "ERC-20",
                "slots": [
                    {
                        "current": "0x60bf781d00000000039ae0d1b9b81658572d000000226a987b1c9a14eb1159b7",
                        "key": "0x0000000000000000000000000000000000000000000000000000000000000008",
                        "prev": "0x60bf77f400000000039aed62bae8f26f3c72000000226a2028064f17c90473f4"
                    },
                    {
                        "current": "0x0000000000000000000000000000000109bad6dbfce46926c7c00a8ac2f76ce0",
                        "key": "0x0000000000000000000000000000000000000000000000000000000000000009",
                        "prev": "0x0000000000000000000000000000000109bad29073d5bd5553b8ea8abfedfc3b"
                    },
                    {
                        "current": "0x000000000000000000000000000840d1752556d619590d3513e8d5e387ad1e52",
                        "key": "0x000000000000000000000000000000000000000000000000000000000000000a",
                        "prev": "0x000000000000000000000000000840cfedc41884a6c7f846c68cecc9f9d54d1e"
                    }
                ],
                "storageVariables": [
                    {
                        "name": "price0CumulativeLast",
                        "type": "uint256",
                        "value": {
                            "current": "353215543963579310465477785873783680224",
                            "prev": "353215456849411524593573122812953885755",
                            "typeTag": 1
                        }
                    },
                    {
                        "name": "price1CumulativeLast",
                        "type": "uint256",
                        "value": {
                            "current": "184052422616115857554953382623734702168415826",
                            "prev": "184051902383052748041694531583574921480326430",
                            "typeTag": 1
                        }
                    },
                    {
                        "name": "reserve0",
                        "type": "uint112",
                        "value": {
                            "current": "41606861490315558831348151",
                            "prev": "41604641893971507991049204",
                            "typeTag": 1
                        }
                    },
                    {
                        "name": "reserve1",
                        "type": "uint112",
                        "value": {
                            "current": "17024097969495134983981",
                            "prev": "17025003475804575710322",
                            "typeTag": 1
                        }
                    },
                    {
                        "name": "blockTimestampLast",
                        "type": "uint32",
                        "value": {
                            "current": "1623160861",
                            "prev": "1623160820",
                            "typeTag": 1
                        }
                    }
                ]
            },
            {
                "address": "0xc02aaa39b223fe8d0a0e5c4f27ead9083c756cc2",
                "erc": "ERC-20",
                "slots": [
                    {
                        "current": "0x0000000000000000000000000000000000000000000000c8d942a64c6fa952b4",
                        "key": "0xbf8dc4852d4d38c90f1549c390bfdf71291aef9b73e492dc217ec87ac37c47df",
                        "prev": "0x0000000000000000000000000000000000000000000000c8ccd1cd12755d324c"
                    },
                    {
                        "current": "0x000000000000000000000000000000000000000000000000b5d135e98f3b7f69",
                        "key": "0x839f66cf4b16a86fbdfea37be89cf62c595ece692b49a0255ebfa1df351a4bc8",
                        "prev": "0x000000000000000000000000000000000000000000000000b5b10df2ad70ba8c"
                    },
                    {
                        "current": "0x00000000000000000000000000000000000000000000039ae0d1b9b81658572d",
                        "key": "0xa535fbd0ab3e0ad4ee444570368f3d474545b71fcc49228fe96a6406676fc126",
                        "prev": "0x00000000000000000000000000000000000000000000039aed62bae8f26f3c72"
                    }
                ],
                "storageVariables": [
                    {
                        "name": "balanceOf",
                        "type": "mapping(address => uint256)",
                        "value": {
                            "pairs": [
                                {
                                    "key": "0x5f0c8c95011f9e700877db89fb6d2dd1959eb6f6",
                                    "value": {
                                        "current": "13101312068244176745",
                                        "prev": "13092260927685835404",
                                        "typeTag": 1
                                    }
                                },
                                {
                                    "key": "0x9866772a9bdb4dc9d2c5a4753e8658b8b0ca1fc3",
                                    "value": {
                                        "current": "3705004072843824681652",
                                        "prev": "3704107617674942296652",
                                        "typeTag": 1
                                    }
                                },
                                {
                                    "key": "0xa478c2975ab1ea89e8196811f51a7b7ade33eb11",
                                    "value": {
                                        "current": "17024097969495134983981",
                                        "prev": "17025003475804575710322",
                                        "typeTag": 1
                                    }
                                }
                            ],
                            "typeTag": 4
                        }
                    }
                ]
            },
            {
                "address": "0xe5d1fab0c5596ef846dcc0958d6d0b20e1ec4498",
                "erc": "ERC-20",
                "slots": [
                    {
                        "current": "0x000000000000000000000000000000000000000000000003d76f4c0649414893",
                        "key": "0x49e1bf85038c490726bebc8a57c28978456dd8fd7b6448ae247cb4b66910e159",
                        "prev": "0x000000000000000000000000000000000000000000000003cddf48b9fce16ce8"
                    },
                    {
                        "current": "0x000000000000000000000000000000000000000000002ff6b032474bab19da85",
                        "key": "0x1744df35f6dfbadec8ef70bd98fb2002381c7094845739bd9f9ceb00529672c5",
                        "prev": "0x00000000000000000000000000000000000000000000306f03489248cd26c048"
                    }
                ],
                "storageVariables": [
                    {
                        "name": "_records",
                        "type": "mapping(address => struct BPool.Record)",
                        "value": {
                            "pairs": [
                                {
                                    "key": "0x6b175474e89094c44da98b954eedeac495271d0f",
                                    "value": {
                                        "fields": [
                                            {
                                                "name": "balance",
                                                "type": "uint256",
                                                "value": {
                                                    "current": "226501820025695704308357",
                                                    "prev": "228721416369746544607304",
                                                    "typeTag": 1
                                                }
                                            }
                                        ],
                                        "typeTag": 3
                                    }
                                },
                                {
                                    "key": "0x9f8f72aa9304c8b593d555f12ef6589cc3a579a2",
                                    "value": {
                                        "fields": [
                                            {
                                                "name": "balance",
                                                "type": "uint256",
                                                "value": {
                                                    "current": "70863942251580573843",
                                                    "prev": "70174887882359139560",
                                                    "typeTag": 1
                                                }
                                            }
                                        ],
                                        "typeTag": 3
                                    }
                                }
                            ],
                            "typeTag": 4
                        }
                    }
                ]
            }
        ]
    }
}