{
    "balance_change": {
        "balanceChanges": [
            {
                "account": "0x0000000000000000000000000000000000000000",
                "assets": [
                    {
                        "address": "0x91d1afc7e5496d8833b09a285e02fec31e9831cd",
                        "amount": "1",
                        "iconUrl": "",
                        "isERC1155": false,
                        "isERC721": true,
                        "sign": false,
                        "tokenID": "3978",
                        "value": ""
                    },
                    {
                        "address": "0x91d1afc7e5496d8833b09a285e02fec31e9831cd",
                        "amount": "1",
                        "iconUrl": "",
                        "isERC1155": false,
                        "isERC721": true,
                        "sign": false,
                        "tokenID": "3979",
                        "value": ""
                    }
                ]
            },
            {
                "account": "0x4359b3f3564583bf14a2a7bde7b1eab8b272c1f5",
                "assets": [
                    {
                        "address": "0x91d1afc7e5496d8833b09a285e02fec31e9831cd",
                        "amount": "1",
                        "iconUrl": "",
                        "isERC1155": false,
                        "isERC721": true,
                        "sign": true,
                        "tokenID": "3978",
                        "value": ""
                    },
                    {
                        "address": "0x91d1afc7e5496d8833b09a285e02fec31e9831cd",
                        "amount": "1",
                        "iconUrl": "",
                        "isERC1155": false,
                        "isERC721": true,
                        "sign": true,
                        "tokenID": "3979",
                        "value": ""
                    }
                ]
            }
        ]
    },
    "profile": {
        "basic_info": {
            "baseFee": "12.623425382",
            "blockNumber": 15477806,
            "callData": "0xa0712d680000000000000000000000000000000000000000000000000000000000000002",
            "debugEnable": true,
            "errorInfo": "",
            "eventCount": 2,
            "feeRecipient": "0xea674fdde714fd979de3edf0f56aa9716b898ec8",
            "formatValue": "0",
            "gasLimit": 117379,
            "gasPrice": "14.623425382",
            "gasUsed": 112391,
            "intTxnCount": 0,
            "internalRevert": false,
            "internalRevertMessage": "",
            "isContractCreation": false,
            "isFlashloan": false,
            "maxFee": "26.633510405",
            "nonce": 109,
            "overwritedBlockNumber": -1,
            "priorityFee": "2",
            "receiver": "0x91d1afc7e5496d8833b09a285e02fec31e9831cd",
            "revertMessage": "",
            "sender": "0x4359b3f3564583bf14a2a7bde7b1eab8b272c1f5",
            "simulationEnable": true,
            "sourceTxnHash": "0xc735459a68fd55ed624d5baa5636a6125d97f6d3e6484b698c50f5b1b0376e99",
            "status": true,
            "timestamp": "2022-09-05T12:12:19Z",
            "transactionFee": "0.001643541402108362",
            "txnHash": "0xc735459a68fd55ed624d5baa5636a6125d97f6d3e6484b698c50f5b1b0376e99",
            "txnIndex": 112,
            "type": 2,
            "value": "0"
        },
        "fund_flow": [
            {
                "amount": "1",
                "from": "0x0000000000000000000000000000000000000000",
                "id": 1,
                "isERC1155": false,
                "isERC721": true,
                "isReverted": false,
                "order": 1,
                "to": "0x4359b3f3564583bf14a2a7bde7b1eab8b272c1f5",
                "token": "0x91d1afc7e5496d8833b09a285e02fec31e9831cd",
                "tokenID": "3978"
            },
            {
                "amount": "1",
                "from": "0x0000000000000000000000000000000000000000",
                "id": 2,
                "isERC1155": false,
                "isERC721": true,
                "isReverted": false,
                "order": 2,
                "to": "0x4359b3f3564583bf14a2a7bde7b1eab8b272c1f5",
                "token": "0x91d1afc7e5496d8833b09a285e02fec31e9831cd",
                "tokenID": "3979"
            }
        ],
        "token_infos": [
            {
                "address": "0xc02aaa39b223fe8d0a0e5c4f27ead9083c756cc2",
                "decimals": 18
            },
            {
                "address": "0xeeeeeeeeeeeeeeeeeeeeeeeeeeeeeeeeeeeeeeee",
                "decimals": 18
            }
        ]
    },
    "address_label": {
        "labels": [
            {
                "address": "0x0000000000000000000000000000000000000004",
                "label": "Precompiled"
            },
            {
                "address": "0xeeeeeeeeeeeeeeeeeeeeeeeeeeeeeeeeeeeeeeee",
                "label": "Ether"
            },
            {
                "address": "0x91d1afc7e5496d8833b09a285e02fec31e9831cd",
                "label": "RowdyKids"
            },
            {
                "address": "0x0000000000000000000000000000000000000001",
                "label": "Precompiled"
            },
            {
                "address": "0x0000000000000000000000000000000000000002",
                "label": "Precompiled"
            },
            {
                "address": "0x0000000000000000000000000000000000000003",
                "label": "Precompiled"
            }
        ]
    },
    "trace": {
        "accountLabels": null,
        "dataMap": {
            "-1": {
                "invocation": {
                    "address": "0x4359b3f3564583bf14a2a7bde7b1eab8b272c1f5",
                    "callData": "",
                    "decodedMethod": null,
                    "errorInfo": "",
                    "fromAddress": "",
                    "gasUsed": 0,
                    "id": -1,
                    "methodDecoded": false,
                    "operation": "",
                    "output": "",
                    "revert": false,
                    "revertMessage": "",
                    "selector": "",
                    "status": false,
                    "value": ""
                },
                "nodeType": 0
            },
            "0": {
                "invocation": {
                    "address": "0x91d1afc7e5496d8833b09a285e02fec31e9831cd",
                    "callData": "0x0000000000000000000000000000000000000000000000000000000000000002",
                    "decodedMethod": {
                        "callParams": [
                            {
                                "name": "_numberOfTokens",
                                "type": "uint256",
                                "value": "2"
                            }
                        ],
                        "constructorArguments": "",
                        "name": "mint",
                        "returnParams": [],
                        "signature": "mint(uint256)"
                    },
                    "errorInfo": "",
                    "fromAddress": "0x4359b3f3564583bf14a2a7bde7b1eab8b272c1f5",
                    "gasUsed": 112391,
                    "id": 0,
                    "methodDecoded": true,
                    "operation": "CALL",
                    "output": "",
                    "revert": false,
                    "revertMessage": "",
                    "selector": "0xa0712d68",
                    "status": true,
                    "value": "0"
                },
                "nodeType": 0
            },
            "1": {
                "event": {
                    "contract": "0x91d1afc7e5496d8833b09a285e02fec31e9831cd",
                    "decodedLog": {
                        "name": "Transfer",
                        "params": [
                            {
                                "name": "from",
                                "type": "address",
                                "value": "0x0000000000000000000000000000000000000000"
                            },
                            {
                                "name": "to",
                                "type": "address",
                                "value": "0x4359b3f3564583bf14a2a7bde7b1eab8b272c1f5"
                            },
                            {
                                "decimalAvailable": true,
                                "name": "tokenId",
                                "type": "uint256",
                                "value": "3,978"
                            }
                        ],
                        "signature": "Transfer(address,address,uint256)"
                    },
                    "id": 1,
                    "logData": "0x",
                    "logDecoded": true,
                    "operation": "EVENT",
                    "revert": false,
                    "status": true,
                    "topics": [
                        "0xddf252ad1be2c89b69c2b068fc378daa952ba7f163c4a11628f55a4df523b3ef",
                        "0x0000000000000000000000000000000000000000000000000000000000000000",
                        "0x0000000000000000000000004359b3f3564583bf14a2a7bde7b1eab8b272c1f5",
                        "0x0000000000000000000000000000000000000000000000000000000000000f8a"
                    ]
                },
                "nodeType": 1
            },
            "2": {
                "event": {
                    "contract": "0x91d1afc7e5496d8833b09a285e02fec31e9831cd",
                    "decodedLog": {
                        "name": "Transfer",
                        "params": [
                            {
                                "name": "from",
                                "type": "address",
                                "value": "0x0000000000000000000000000000000000000000"
                            },
                            {
                                "name": "to",
                                "type": "address",
                                "value": "0x4359b3f3564583bf14a2a7bde7b1eab8b272c1f5"
                            },
                            {
                                "decimalAvailable": true,
                                "name": "tokenId",
                                "type": "uint256",
                                "value": "3,979"
                            }
                        ],
                        "signature": "Transfer(address,address,uint256)"
                    },
                    "id": 2,
                    "logData": "0x",
                    "logDecoded": true,
                    "operation": "EVENT",
                    "revert": false,
                    "status": true,
                    "topics": [
                        "0xddf252ad1be2c89b69c2b068fc378daa952ba7f163c4a11628f55a4df523b3ef",
                        "0x0000000000000000000000000000000000000000000000000000000000000000",
                        "0x0000000000000000000000004359b3f3564583bf14a2a7bde7b1eab8b272c1f5",
                        "0x0000000000000000000000000000000000000000000000000000000000000f8b"
                    ]
                },
                "nodeType": 1
            }
        },
        "gasFlame": [
            {
                "children": [
                    {
                        "children": [
                            {
                                "children": [],
                                "depth": 0,
                                "name": "Initial Gas",
                                "value": 21204
                            },
                            {
                                "children": [],
                                "depth": 0,
                                "name": "Executed Gas",
                                "value": 93987
                            }
                        ],
                        "depth": -1,
                        "name": "Actual Gas Used",
                        "value": 112391
                    },
                    {
                        "children": [],
                        "depth": -1,
                        "name": "Refunded Gas",
                        "value": 2800
                    }
                ],
                "depth": -2,
                "name": "Total Gas",
                "value": 115191
            }
        ],
        "isConfirmed": true,
        "mainTrace": [
            {
                "children": [
                    {
                        "children": [
                            {
                                "children": [],
                                "depth": 1,
                                "id": 1,
                                "order": 1
                            },
                            {
                                "children": [],
                                "depth": 1,
                                "id": 2,
                                "order": 2
                            }
                        ],
                        "depth": 0,
                        "id": 0,
                        "order": 0
                    }
                ],
                "depth": -1,
                "id": -1,
                "order": -1
            }
        ],
        "mainTraceNodeCount": 3,
        "parentIdMap": {
            "0": -1,
            "1": 0,
            "2": 0
        },
        "tidyTrace": [
            {
                "children": [
                    {
                        "children": [
                            {
                                "children": [],
                                "depth": 1,
                                "id": 1,
                                "order": 1
                            },
                            {
                                "children": [],
                                "depth": 1,
                                "id": 2,
                                "order": 2
                            }
                        ],
                        "depth": 0,
                        "id": 0,
                        "order": 0
                    }
                ],
                "depth": -1,
                "id": -1,
                "order": -1
            }
        ],
        "tidyTraceNodeCount": 3
    },
    "state_change": {
        "stateChanges": [
            {
                "address": "0x91d1afc7e5496d8833b09a285e02fec31e9831cd",
                "erc": "ERC-721",
                "slots": [
                    {
                        "current": "0x0000000000000000000000000000000000000000000000000000000000000002",
                        "key": "0x0d246986076a94df4f288f9ec17d9cb316323af99e7a5f82d8ee06e6518021ae",
                        "prev": "0x0000000000000000000000000000000000000000000000000000000000000000"
                    },
                    {
                        "current": "0x0000000000000000000000000000000000000000000000020000000000000002",
                        "key": "0xbdd57b1f7ab32133e51a1e6bfb0665c74660668cae091a713525bda2ee3b6f74",
                        "prev": "0x0000000000000000000000000000000000000000000000000000000000000000"
                    },
                    {
                        "current": "0x00000000000000006315e7a34359b3f3564583bf14a2a7bde7b1eab8b272c1f5",
                        "key": "0x72c4e887562766998d140d5a7e1adbc8746585eecce40244df5b14c43c05857f",
                        "prev": "0x0000000000000000000000000000000000000000000000000000000000000000"
                    },
                    {
                        "current": "0x0000000000000000000000000000000000000000000000000000000000000f8c",
                        "key": "0x0000000000000000000000000000000000000000000000000000000000000000",
                        "prev": "0x0000000000000000000000000000000000000000000000000000000000000f8a"
                    }
                ],
                "storageVariables": [
                    {
                        "name": "_freeMinted",
                        "type": "mapping(address => uint256)",
                        "value": {
                            "pairs": [
                                {
                                    "key": "0x4359b3f3564583bf14a2a7bde7b1eab8b272c1f5",
                                    "value": {
                                        "current": "2",
                                        "prev": "0",
                                        "typeTag": 1
                                    }
                                }
                            ],
                            "typeTag": 4
                        }
                    },
                    {
                        "name": "_packedAddressData",
                        "type": "mapping(address => uint256)",
                        "value": {
                            "pairs": [
                                {
                                    "key": "0x4359b3f3564583bf14a2a7bde7b1eab8b272c1f5",
                                    "value": {
                                        "current": "36893488147419103234",
                                        "prev": "0",
                                        "typeTag": 1
                                    }
                                }
                            ],
                            "typeTag": 4
                        }
                    },
                    {
                        "name": "_packedOwnerships",
                        "type": "mapping(uint256 => uint256)",
                        "value": {
                            "pairs": [
                                {
                                    "key": "3978",
                                    "value": {
                                        "current": "2429571003099049339848701550496898581626083054494283907573",
                                        "prev": "0",
                                        "typeTag": 1
                                    }
                                }
                            ],
                            "typeTag": 4
                        }
                    },
                    {
                        "name": "_currentIndex",
                        "type": "uint256",
                        "value": {
                            "current": "3980",
                            "prev": "3978",
                            "typeTag": 1
                        }
                    }
                ]
            }
        ]
    }
}