{
    "balance_change": {
        "balanceChanges": [
            {
                "account": "0xcc0d1900cbec7af7db09c1c177eda477641f37a7",
                "assets": [
                    {
                        "address": "0x7d3e7d41da367b4fdce7cbe06502b13294deb758",
                        "amount": "120,152",
                        "iconUrl": "",
                        "isERC1155": false,
                        "isERC721": false,
                        "sign": false,
                        "value": ""
                    }
                ]
            },
            {
                "account": "0xba8e88385e5c90b7ee1f32c80fa56407763bd275",
                "assets": [
                    {
                        "address": "0x7d3e7d41da367b4fdce7cbe06502b13294deb758",
                        "amount": "120,152",
                        "iconUrl": "",
                        "isERC1155": false,
                        "isERC721": false,
                        "sign": true,
                        "value": ""
                    }
                ]
            }
        ]
    },
    "profile": {
        "basic_info": {
            "baseFee": "",
            "blockNumber": 4906530,
            "callData": "0xa9059cbb000000000000000000000000ba8e88385e5c90b7ee1f32c80fa56407763bd27500000000000000000000000000000000000000000000000000000aed81ba5800",
            "debugEnable": true,
            "errorInfo": "",
            "eventCount": 1,
            "feeRecipient": "0xb2930b35844a230f00e51431acae96fe543a0347",
            "formatValue": "0",
            "gasLimit": 300000,
            "gasPrice": "21",
            "gasUsed": 21467,
            "intTxnCount": 0,
            "internalRevert": false,
            "internalRevertMessage": "",
            "isContractCreation": false,
            "isFlashloan": false,
            "maxFee": "",
            "nonce": 3,
            "overwritedBlockNumber": -1,
            "priorityFee": "",
            "receiver": "0x7d3e7d41da367b4fdce7cbe06502b13294deb758",
            "revertMessage": "",
            "sender": "0xcc0d1900cbec7af7db09c1c177eda477641f37a7",
            "simulationEnable": true,
            "sourceTxnHash": "0xc751d3c8575a3bf3cb3d170ae177ca17f9a87280976378898fa82cf7e899205e",
            "status": true,
            "timestamp": "2018-01-14T10:18:29Z",
            "transactionFee": "0.000450807",
            "txnHash": "0xc751d3c8575a3bf3cb3d170ae177ca17f9a87280976378898fa82cf7e899205e",
            "txnIndex": 49,
            "type": 0,
            "value": "0"
        },
        "fund_flow": [
            {
                "amount": "120,152",
                "from": "0xcc0d1900cbec7af7db09c1c177eda477641f37a7",
                "id": 1,
                "isERC1155": false,
                "isERC721": false,
                "isReverted": false,
                "order": 1,
                "to": "0xba8e88385e5c90b7ee1f32c80fa56407763bd275",
                "token": "0x7d3e7d41da367b4fdce7cbe06502b13294deb758"
            }
        ],
        "token_infos": [
            {
                "address": "0x7d3e7d41da367b4fdce7cbe06502b13294deb758",
                "decimals": 8
            },
            {
                "address": "0xc02aaa39b223fe8d0a0e5c4f27ead9083c756cc2",
                "decimals": 18
            },
            {
                "address": "0xeeeeeeeeeeeeeeeeeeeeeeeeeeeeeeeeeeeeeeee",
                "decimals": 18
            }
        ]
    },
    "address_label": {
        "labels": [
            {
                "address": "0xeeeeeeeeeeeeeeeeeeeeeeeeeeeeeeeeeeeeeeee",
                "label": "Ether"
            },
            {
                "address": "0x7d3e7d41da367b4fdce7cbe06502b13294deb758",
                "label": "SSS (SSS)"
            },
            {
                "address": "0x0000000000000000000000000000000000000001",
                "label": "Precompiled"
            },
            {
                "address": "0x0000000000000000000000000000000000000002",
                "label": "Precompiled"
            },
            {
                "address": "0x0000000000000000000000000000000000000003",
                "label": "Precompiled"
            },
            {
                "address": "0x0000000000000000000000000000000000000004",
                "label": "Precompiled"
            }
        ]
    },
    "trace": {
        "accountLabels": null,
        "dataMap": {
            "-1": {
                "invocation": {
                    "address": "0xcc0d1900cbec7af7db09c1c177eda477641f37a7",
                    "callData": "",
                    "decodedMethod": null,
                    "errorInfo": "",
                    "fromAddress": "",
                    "gasUsed": 0,
                    "id": -1,
                    "methodDecoded": false,
                    "operation": "",
                    "output": "",
                    "revert": false,
                    "revertMessage": "",
                    "selector": "",
                    "status": false,
                    "value": ""
                },
                "nodeType": 0
            },
            "0": {
                "invocation": {
                    "address": "0x7d3e7d41da367b4fdce7cbe06502b13294deb758",
                    "callData": "0x000000000000000000000000ba8e88385e5c90b7ee1f32c80fa56407763bd27500000000000000000000000000000000000000000000000000000aed81ba5800",
                    "decodedMethod": {
                        "callParams": [
                            {
                                "name": "_to",
                                "type": "address",
                                "value": "0xba8e88385e5c90b7ee1f32c80fa56407763bd275"
                            },
                            {
                                "decimalAvailable": true,
                                "name": "_value",
                                "type": "uint256",
                                "value": "12,015,200,000,000"
                            }
                        ],
                        "constructorArguments": "",
                        "name": "transfer",
                        "returnParams": [
                            {
                                "name": "success",
                                "type": "bool",
                                "value": true
                            }
                        ],
                        "signature": "transfer(address,uint256)"
                    },
                    "errorInfo": "",
                    "fromAddress": "0xcc0d1900cbec7af7db09c1c177eda477641f37a7",
                    "gasUsed": 21467,
                    "id": 0,
                    "methodDecoded": true,
                    "operation": "CALL",
                    "output": "0x0000000000000000000000000000000000000000000000000000000000000001",
                    "revert": false,
                    "revertMessage": "",
                    "selector": "0xa9059cbb",
                    "status": true,
                    "value": "0"
                },
                "nodeType": 0
            },
            "1": {
                "event": {
                    "contract": "0x7d3e7d41da367b4fdce7cbe06502b13294deb758",
                    "decodedLog": {
                        "name": "Transfer",
                        "params": [
                            {
                                "name": "_from",
                                "type": "address",
                                "value": "0xcc0d1900cbec7af7db09c1c177eda477641f37a7"
                            },
                            {
                                "name": "_to",
                                "type": "address",
                                "value": "0xba8e88385e5c90b7ee1f32c80fa56407763bd275"
                            },
                            {
                                "decimalAvailable": true,
                                "name": "_value",
                                "type": "uint256",
                                "value": "12,015,200,000,000"
                            }
                        ],
                        "signature": "Transfer(address,address,uint256)"
                    },
                    "id": 1,
                    "logData": "0x00000000000000000000000000000000000000000000000000000aed81ba5800",
                    "logDecoded": true,
                    "operation": "EVENT",
                    "revert": false,
                    "status": true,
                    "topics": [
                        "0xddf252ad1be2c89b69c2b068fc378daa952ba7f163c4a11628f55a4df523b3ef",
                        "0x000000000000000000000000cc0d1900cbec7af7db09c1c177eda477641f37a7",
                        "0x000000000000000000000000ba8e88385e5c90b7ee1f32c80fa56407763bd275"
                    ]
                },
                "nodeType": 1
            }
        },
        "gasFlame": [
            {
                "children": [
                    {
                        "children": [
                            {
                                "children": [],
                                "depth": 0,
                                "name": "Initial Gas",
                                "value": 23128
                            },
                            {
                                "children": [],
                                "depth": 0,
                                "name": "Executed Gas",
                                "value": 13339
                            }
                        ],
                        "depth": -1,
                        "name": "Actual Gas Used",
                        "value": 21467
                    },
                    {
                        "children": [],
                        "depth": -1,
                        "name": "Refunded Gas",
                        "value": 15000
                    }
                ],
                "depth": -2,
                "name": "Total Gas",
                "value": 36467
            }
        ],
        "isConfirmed": true,
        "mainTrace": [
            {
                "children": [
                    {
                        "children": [
                            {
                                "children": [],
                                "depth": 1,
                                "id": 1,
                                "order": 1
                            }
                        ],
                        "depth": 0,
                        "id": 0,
                        "order": 0
                    }
                ],
                "depth": -1,
                "id": -1,
                "order": -1
            }
        ],
        "mainTraceNodeCount": 2,
        "parentIdMap": {
            "0": -1,
            "1": 0
        },
        "tidyTrace": [
            {
                "children": [
                    {
                        "children": [
                            {
                                "children": [],
                                "depth": 1,
                                "id": 1,
                                "order": 1
                            }
                        ],
                        "depth": 0,
                        "id": 0,
                        "order": 0
                    }
                ],
                "depth": -1,
                "id": -1,
                "order": -1
            }
        ],
        "tidyTraceNodeCount": 2
    },
    "state_change": {
        "stateChanges": [
            {
                "address": "0x7d3e7d41da367b4fdce7cbe06502b13294deb758",
                "erc": "ERC-20",
                "slots": [
                    {
                        "current": "0x0000000000000000000000000000000000000000000000000000000000000000",
                        "key": "0xfb6219129f20a374efc2a2ada1be7b0892f78dc7f71ad4a46a3dc9bee4068d12",
                        "prev": "0x00000000000000000000000000000000000000000000000000000aed81ba5800"
                    },
                    {
                        "current": "0x00000000000000000000000000000000000000000000000000015dbe654e1097",
                        "key": "0x3aa816a01cdb64171177a83e083f1b39776a692ef213c37f374756474ceb45dd",
                        "prev": "0x000000000000000000000000000000000000000000000000000152d0e393b897"
                    }
                ],
                "storageVariables": [
                    {
                        "name": "balances",
                        "type": "mapping(address => uint256)",
                        "value": {
                            "pairs": [
                                {
                                    "key": "0xba8e88385e5c90b7ee1f32c80fa56407763bd275",
                                    "value": {
                                        "current": "384547301494935",
                                        "prev": "372532101494935",
                                        "typeTag": 1
                                    }
                                },
                                {
                                    "key": "0xcc0d1900cbec7af7db09c1c177eda477641f37a7",
                                    "value": {
                                        "current": "0",
                                        "prev": "12015200000000",
                                        "typeTag": 1
                                    }
                                }
                            ],
                            "typeTag": 4
                        }
                    }
                ]
            }
        ]
    }
}