{
    "balance_change": {
        "balanceChanges": [
            {
                "account": "0x000000000005af2ddc1a93a03e9b7014064d3b8d",
                "assets": [
                    {
                        "address": "0xc02aaa39b223fe8d0a0e5c4f27ead9083c756cc2",
                        "amount": "4.611220604620203686",
                        "iconUrl": "https://assets.blocksec.com/icon/f1cb2d02c471d545bbc7722daf3277fd852d98e63d118771af7047bd8256c516.png",
                        "isERC1155": false,
                        "isERC721": false,
                        "sign": true,
                        "value": "8461.451473556850126"
                    },
                    {
                        "address": "0xb53917d6f10e4b45f8379e240118b4c05ca1bda8",
                        "amount": "2,043,517.041483817823414146",
                        "iconUrl": "",
                        "isERC1155": false,
                        "isERC721": false,
                        "sign": false,
                        "value": "879.5592535"
                    }
                ]
            },
            {
                "account": "0x641471153f199c0dabe412d42b514f398c279050",
                "assets": [
                    {
                        "address": "0xc02aaa39b223fe8d0a0e5c4f27ead9083c756cc2",
                        "amount": "7.01122618081423941",
                        "iconUrl": "https://assets.blocksec.com/icon/f1cb2d02c471d545bbc7722daf3277fd852d98e63d118771af7047bd8256c516.png",
                        "isERC1155": false,
                        "isERC721": false,
                        "sign": false,
                        "value": "12865.389705349570192"
                    },
                    {
                        "address": "0x1c824d563dcad3d3bf4d85be8560f74725ea7769",
                        "amount": "15,712,513.251557847191142795",
                        "iconUrl": "",
                        "isERC1155": false,
                        "isERC721": false,
                        "sign": true,
                        "value": "5526.25294"
                    }
                ]
            },
            {
                "account": "0x75c51e30b684fee4241ce7d8d0784303367d1fe2",
                "assets": [
                    {
                        "address": "0xc02aaa39b223fe8d0a0e5c4f27ead9083c756cc2",
                        "amount": "2.920625",
                        "iconUrl": "https://assets.blocksec.com/icon/f1cb2d02c471d545bbc7722daf3277fd852d98e63d118771af7047bd8256c516.png",
                        "isERC1155": false,
                        "isERC721": false,
                        "sign": true,
                        "value": "5359.2592562500000795"
                    },
                    {
                        "address": "0x1c824d563dcad3d3bf4d85be8560f74725ea7769",
                        "amount": "15,712,513.251557847191142795",
                        "iconUrl": "",
                        "isERC1155": false,
                        "isERC721": false,
                        "sign": false,
                        "value": "5526.25294"
                    }
                ]
            },
            {
                "account": "0xd8963d93b96f4af6a300e10afe4b103ec2773063",
                "assets": [
                    {
                        "address": "0xb53917d6f10e4b45f8379e240118b4c05ca1bda8",
                        "amount": "2,043,517.041483817823414146",
                        "iconUrl": "",
                        "isERC1155": false,
                        "isERC721": false,
                        "sign": true,
                        "value": "879.5592535"
                    },
                    {
                        "address": "0xc02aaa39b223fe8d0a0e5c4f27ead9083c756cc2",
                        "amount": "0.520619423805964276",
                        "iconUrl": "https://assets.blocksec.com/icon/f1cb2d02c471d545bbc7722daf3277fd852d98e63d118771af7047bd8256c516.png",
                        "isERC1155": false,
                        "isERC721": false,
                        "sign": false,
                        "value": "955.3210240902860142"
                    }
                ]
            }
        ]
    },
    "profile": {
        "basic_info": {
            "baseFee": "24.022059463",
            "blockNumber": 17347554,
            "callData": "0xb8c063d900000000000000000000000000000000000000000000000000000000000000a00000000000000000000000000000000000000000000000000000000000000000000000000000000000000000000000000000000000000000000000000000046000000000000000000000000000000000000000000000000000000000000004c000000000000000000000000000000000000000000000000000000000000005a0000000000000000000000000000000000000000000000000000000000000000200000000000000000000000000000000000000000000000000000000000000400000000000000000000000000000000000000000000000000000000000000220000000000000000000000000000000000000000000000000000000000000008000000000000000000000000000000000000000000000000000000000000001400000000000000000000000000000000000000000000000024a71d74752abf80500000000000000000000000000000000000000000000000000000000000001c00000000000000000000000000000000000000000000000000000000000000005000000000000000000000000c02aaa39b223fe8d0a0e5c4f27ead9083c756cc200000000000000000000000075c51e30b684fee4241ce7d8d0784303367d1fe20000000000000000000000001c824d563dcad3d3bf4d85be8560f74725ea7769c0002ee00000000000000000641471153f199c0dabe412d42b514f398c279050000000000000000000000000c02aaa39b223fe8d0a0e5c4f27ead9083c756cc20000000000000000000000000000000000000000000000000000000000000003000000000000000000000000000000000000000000000000288824f69f20100000000000000000000000000000000000000000000000000000000000000000000000000000000000000000000000000000000000000000000000000000000000000000000000000000000000000000000000000000000000000000000000000000000000000000000000000000000000000000000000000000000000000000800000000000000000000000000000000000000000000000000000000000000100000000000000000000000000000000000000000000000000000000000000000100000000000000000000000000000000000000000000000000000000000001600000000000000000000000000000000000000000000000000000000000000003000000000000000000000000b53917d6f10e4b45f8379e240118b4c05ca1bda8800000000000000000000000d8963d93b96f4af6a300e10afe4b103ec2773063000000000000000000000000c02aaa39b223fe8d0a0e5c4f27ead9083c756cc2000000000000000000000000000000000000000000000000000000000000000200000000000000000000000000000000000000000001b0bb47e22438b51ea782000000000000000000000000000000000000000000000000000000000000000000000000000000000000000000000000000000000000000000000000000000000000000000000000000000000000000000000000000000000000000000000040000000000000000000000000000000000000000000000000000000000108b3e2000000000000000000000000000000000000000000000000000000006471710300000000000000000000000000000000000000000000000000000000000000c0000000000000000000000000c02aaa39b223fe8d0a0e5c4f27ead9083c756cc20000000000000000000000000000000000000000000000024bf424b08d535294000000000000000000000000a0b86991c6218b36c1d19d4a2e9eb0ce3606eb4800000000000000000000000000000000000000000000000000000007e5145f04000000000000000000000000dac17f958d2ee523a2206206994597c13d831ec70000000000000000000000000000000000000000000000000000000397334c2e0000000000000000000000000000000000000000000000000000000000000000",
            "debugEnable": true,
            "errorInfo": "",
            "eventCount": 10,
            "feeRecipient": "0x95222290dd7278aa3ddd389cc1e1d165cc4bafe5",
            "formatValue": "0",
            "gasLimit": 288825,
            "gasPrice": "421.526391162",
            "gasUsed": 240688,
            "intTxnCount": 23,
            "internalRevert": false,
            "internalRevertMessage": "",
            "isContractCreation": false,
            "isFlashloan": false,
            "maxFee": "",
            "nonce": 50441,
            "overwritedBlockNumber": -1,
            "priorityFee": "",
            "receiver": "0x000000000005af2ddc1a93a03e9b7014064d3b8d",
            "revertMessage": "",
            "sender": "0x758e8229dd38cf11fa9e7c0d5f790b4ca16b3b16",
            "simulationEnable": true,
            "sourceTxnHash": "0xc7b9e0c399abf05206db5630bd971ea6ab6c657b08d8efb7506de2cd4dcc5076",
            "status": true,
            "timestamp": "2023-05-27T02:54:59Z",
            "transactionFee": "0.101456344035999456",
            "txnHash": "0xc7b9e0c399abf05206db5630bd971ea6ab6c657b08d8efb7506de2cd4dcc5076",
            "txnIndex": 7,
            "type": 0,
            "value": "0"
        },
        "fund_flow": [
            {
                "amount": "7.01122618081423941",
                "from": "0x641471153f199c0dabe412d42b514f398c279050",
                "id": 1,
                "isERC1155": false,
                "isERC721": false,
                "isReverted": false,
                "order": 1,
                "to": "0x000000000005af2ddc1a93a03e9b7014064d3b8d",
                "token": "0xc02aaa39b223fe8d0a0e5c4f27ead9083c756cc2"
            },
            {
                "amount": "2.920625",
                "from": "0x000000000005af2ddc1a93a03e9b7014064d3b8d",
                "id": 2,
                "isERC1155": false,
                "isERC721": false,
                "isReverted": false,
                "order": 2,
                "to": "0x75c51e30b684fee4241ce7d8d0784303367d1fe2",
                "token": "0xc02aaa39b223fe8d0a0e5c4f27ead9083c756cc2"
            },
            {
                "amount": "15,712,513.251557847191142795",
                "from": "0x75c51e30b684fee4241ce7d8d0784303367d1fe2",
                "id": 3,
                "isERC1155": false,
                "isERC721": false,
                "isReverted": false,
                "order": 3,
                "to": "0x641471153f199c0dabe412d42b514f398c279050",
                "token": "0x1c824d563dcad3d3bf4d85be8560f74725ea7769"
            },
            {
                "amount": "2,043,517.041483817823414146",
                "from": "0x000000000005af2ddc1a93a03e9b7014064d3b8d",
                "id": 4,
                "isERC1155": false,
                "isERC721": false,
                "isReverted": false,
                "order": 4,
                "to": "0xd8963d93b96f4af6a300e10afe4b103ec2773063",
                "token": "0xb53917d6f10e4b45f8379e240118b4c05ca1bda8"
            },
            {
                "amount": "0.520619423805964276",
                "from": "0xd8963d93b96f4af6a300e10afe4b103ec2773063",
                "id": 5,
                "isERC1155": false,
                "isERC721": false,
                "isReverted": false,
                "order": 5,
                "to": "0x000000000005af2ddc1a93a03e9b7014064d3b8d",
                "token": "0xc02aaa39b223fe8d0a0e5c4f27ead9083c756cc2"
            }
        ],
        "token_infos": [
            {
                "address": "0x1c824d563dcad3d3bf4d85be8560f74725ea7769",
                "decimals": 18
            },
            {
                "address": "0xb53917d6f10e4b45f8379e240118b4c05ca1bda8",
                "decimals": 18
            },
            {
                "address": "0xc02aaa39b223fe8d0a0e5c4f27ead9083c756cc2",
                "decimals": 18
            },
            {
                "address": "0xeeeeeeeeeeeeeeeeeeeeeeeeeeeeeeeeeeeeeeee",
                "decimals": 18
            }
        ]
    },
    "address_label": {
        "labels": [
            {
                "address": "0xc02aaa39b223fe8d0a0e5c4f27ead9083c756cc2",
                "label": "Wrapped Ether (WETH)"
            },
            {
                "address": "0x641471153f199c0dabe412d42b514f398c279050",
                "label": "Uniswap V3: FKBLUR 2"
            },
            {
                "address": "0x0000000000000000000000000000000000000002",
                "label": "Precompiled"
            },
            {
                "address": "0xa2327a938febf5fec13bacfb16ae10ecbc4cbdcf",
                "label": "FiatTokenV2_1"
            },
            {
                "address": "0xd8963d93b96f4af6a300e10afe4b103ec2773063",
                "label": "Uniswap V2: DOG1"
            },
            {
                "address": "0xa0b86991c6218b36c1d19d4a2e9eb0ce3606eb48",
                "label": "Circle: USDC Token"
            },
            {
                "address": "0x0000000000000000000000000000000000000001",
                "label": "Precompiled"
            },
            {
                "address": "0x0000000000000000000000000000000000000003",
                "label": "Precompiled"
            },
            {
                "address": "0x1c824d563dcad3d3bf4d85be8560f74725ea7769",
                "label": "FkBlur (FKBLUR)"
            },
            {
                "address": "0x000000000005af2ddc1a93a03e9b7014064d3b8d",
                "label": "MEV Bot: 0x00...b8D"
            },
            {
                "address": "0x75c51e30b684fee4241ce7d8d0784303367d1fe2",
                "label": "Uniswap V2: FKBLUR 2"
            },
            {
                "address": "0xb53917d6f10e4b45f8379e240118b4c05ca1bda8",
                "label": "Dog1 (DOG1)"
            },
            {
                "address": "0xeeeeeeeeeeeeeeeeeeeeeeeeeeeeeeeeeeeeeeee",
                "label": "Ether"
            },
            {
                "address": "0x0000000000000000000000000000000000000004",
                "label": "Precompiled"
            },
            {
                "address": "0xdac17f958d2ee523a2206206994597c13d831ec7",
                "label": "Tether: USDT Stablecoin"
            }
        ]
    },
    "trace": {
        "accountLabels": null,
        "dataMap": {
            "-1": {
                "invocation": {
                    "address": "0x758e8229dd38cf11fa9e7c0d5f790b4ca16b3b16",
                    "callData": "",
                    "decodedMethod": null,
                    "errorInfo": "",
                    "fromAddress": "",
                    "gasUsed": 0,
                    "id": -1,
                    "methodDecoded": false,
                    "operation": "",
                    "output": "",
                    "revert": false,
                    "revertMessage": "",
                    "selector": "",
                    "status": false,
                    "value": ""
                },
                "nodeType": 0
            },
            "0": {
                "invocation": {
                    "address": "0x000000000005af2ddc1a93a03e9b7014064d3b8d",
                    "callData": "0x00000000000000000000000000000000000000000000000000000000000000a00000000000000000000000000000000000000000000000000000000000000000000000000000000000000000000000000000000000000000000000000000046000000000000000000000000000000000000000000000000000000000000004c000000000000000000000000000000000000000000000000000000000000005a0000000000000000000000000000000000000000000000000000000000000000200000000000000000000000000000000000000000000000000000000000000400000000000000000000000000000000000000000000000000000000000000220000000000000000000000000000000000000000000000000000000000000008000000000000000000000000000000000000000000000000000000000000001400000000000000000000000000000000000000000000000024a71d74752abf80500000000000000000000000000000000000000000000000000000000000001c00000000000000000000000000000000000000000000000000000000000000005000000000000000000000000c02aaa39b223fe8d0a0e5c4f27ead9083c756cc200000000000000000000000075c51e30b684fee4241ce7d8d0784303367d1fe20000000000000000000000001c824d563dcad3d3bf4d85be8560f74725ea7769c0002ee00000000000000000641471153f199c0dabe412d42b514f398c279050000000000000000000000000c02aaa39b223fe8d0a0e5c4f27ead9083c756cc20000000000000000000000000000000000000000000000000000000000000003000000000000000000000000000000000000000000000000288824f69f20100000000000000000000000000000000000000000000000000000000000000000000000000000000000000000000000000000000000000000000000000000000000000000000000000000000000000000000000000000000000000000000000000000000000000000000000000000000000000000000000000000000000000000800000000000000000000000000000000000000000000000000000000000000100000000000000000000000000000000000000000000000000000000000000000100000000000000000000000000000000000000000000000000000000000001600000000000000000000000000000000000000000000000000000000000000003000000000000000000000000b53917d6f10e4b45f8379e240118b4c05ca1bda8800000000000000000000000d8963d93b96f4af6a300e10afe4b103ec2773063000000000000000000000000c02aaa39b223fe8d0a0e5c4f27ead9083c756cc2000000000000000000000000000000000000000000000000000000000000000200000000000000000000000000000000000000000001b0bb47e22438b51ea782000000000000000000000000000000000000000000000000000000000000000000000000000000000000000000000000000000000000000000000000000000000000000000000000000000000000000000000000000000000000000000000040000000000000000000000000000000000000000000000000000000000108b3e2000000000000000000000000000000000000000000000000000000006471710300000000000000000000000000000000000000000000000000000000000000c0000000000000000000000000c02aaa39b223fe8d0a0e5c4f27ead9083c756cc20000000000000000000000000000000000000000000000024bf424b08d535294000000000000000000000000a0b86991c6218b36c1d19d4a2e9eb0ce3606eb4800000000000000000000000000000000000000000000000000000007e5145f04000000000000000000000000dac17f958d2ee523a2206206994597c13d831ec70000000000000000000000000000000000000000000000000000000397334c2e0000000000000000000000000000000000000000000000000000000000000000",
                    "decodedMethod": null,
                    "errorInfo": "",
                    "fromAddress": "0x758e8229dd38cf11fa9e7c0d5f790b4ca16b3b16",
                    "gasUsed": 240688,
                    "id": 0,
                    "methodDecoded": false,
                    "operation": "CALL",
                    "output": "0x000000000000000000000000000000000000000000000000000000000000006000000000000000000000000000000000000000000000000000000000000000c000000000000000000000000000000000000000000000000000000000000001200000000000000000000000000000000000000000000000000000000000000002000000000000000000000000000000000000000000000000000000000000000000000000000000000000000000000000000000000000000000000000000000000000000000000000000000000000000000000000000000000000000000000002000000000000000000000000000000000000000000000000614ce1107b59f6b200000000000000000000000000000000000000000000000007399c9b8b1f7ff40000000000000000000000000000000000000000000000000000000000000002000000000000000000000000000000000000000000000000000000000001f67b000000000000000000000000000000000000000000000000000000000000d4a0",
                    "revert": false,
                    "revertMessage": "",
                    "selector": "0xb8c063d9",
                    "status": true,
                    "value": "0"
                },
                "nodeType": 0
            },
            "1": {
                "invocation": {
                    "address": "0xa4e65210fd5b1f73fc6dcec2374adec7c22a77b7",
                    "callData": "0x00000000000000000000000000000000000000000000000000000000000000a00000000000000000000000000000000000000000000000000000000000000000000000000000000000000000000000000000000000000000000000000000046000000000000000000000000000000000000000000000000000000000000004c000000000000000000000000000000000000000000000000000000000000005a0000000000000000000000000000000000000000000000000000000000000000200000000000000000000000000000000000000000000000000000000000000400000000000000000000000000000000000000000000000000000000000000220000000000000000000000000000000000000000000000000000000000000008000000000000000000000000000000000000000000000000000000000000001400000000000000000000000000000000000000000000000024a71d74752abf80500000000000000000000000000000000000000000000000000000000000001c00000000000000000000000000000000000000000000000000000000000000005000000000000000000000000c02aaa39b223fe8d0a0e5c4f27ead9083c756cc200000000000000000000000075c51e30b684fee4241ce7d8d0784303367d1fe20000000000000000000000001c824d563dcad3d3bf4d85be8560f74725ea7769c0002ee00000000000000000641471153f199c0dabe412d42b514f398c279050000000000000000000000000c02aaa39b223fe8d0a0e5c4f27ead9083c756cc20000000000000000000000000000000000000000000000000000000000000003000000000000000000000000000000000000000000000000288824f69f20100000000000000000000000000000000000000000000000000000000000000000000000000000000000000000000000000000000000000000000000000000000000000000000000000000000000000000000000000000000000000000000000000000000000000000000000000000000000000000000000000000000000000000800000000000000000000000000000000000000000000000000000000000000100000000000000000000000000000000000000000000000000000000000000000100000000000000000000000000000000000000000000000000000000000001600000000000000000000000000000000000000000000000000000000000000003000000000000000000000000b53917d6f10e4b45f8379e240118b4c05ca1bda8800000000000000000000000d8963d93b96f4af6a300e10afe4b103ec2773063000000000000000000000000c02aaa39b223fe8d0a0e5c4f27ead9083c756cc2000000000000000000000000000000000000000000000000000000000000000200000000000000000000000000000000000000000001b0bb47e22438b51ea782000000000000000000000000000000000000000000000000000000000000000000000000000000000000000000000000000000000000000000000000000000000000000000000000000000000000000000000000000000000000000000000040000000000000000000000000000000000000000000000000000000000108b3e2000000000000000000000000000000000000000000000000000000006471710300000000000000000000000000000000000000000000000000000000000000c0000000000000000000000000c02aaa39b223fe8d0a0e5c4f27ead9083c756cc20000000000000000000000000000000000000000000000024bf424b08d535294000000000000000000000000a0b86991c6218b36c1d19d4a2e9eb0ce3606eb4800000000000000000000000000000000000000000000000000000007e5145f04000000000000000000000000dac17f958d2ee523a2206206994597c13d831ec70000000000000000000000000000000000000000000000000000000397334c2e0000000000000000000000000000000000000000000000000000000000000000",
                    "decodedMethod": null,
                    "errorInfo": "",
                    "fromAddress": "0x000000000005af2ddc1a93a03e9b7014064d3b8d",
                    "gasUsed": 212509,
                    "id": 1,
                    "methodDecoded": false,
                    "operation": "DELEGATECALL",
                    "output": "0x000000000000000000000000000000000000000000000000000000000000006000000000000000000000000000000000000000000000000000000000000000c000000000000000000000000000000000000000000000000000000000000001200000000000000000000000000000000000000000000000000000000000000002000000000000000000000000000000000000000000000000000000000000000000000000000000000000000000000000000000000000000000000000000000000000000000000000000000000000000000000000000000000000000000000002000000000000000000000000000000000000000000000000614ce1107b59f6b200000000000000000000000000000000000000000000000007399c9b8b1f7ff40000000000000000000000000000000000000000000000000000000000000002000000000000000000000000000000000000000000000000000000000001f67b000000000000000000000000000000000000000000000000000000000000d4a0",
                    "revert": false,
                    "revertMessage": "",
                    "selector": "0xb8c063d9",
                    "status": true,
                    "value": "0"
                },
                "nodeType": 0
            },
            "10": {
                "event": {
                    "contract": "0xc02aaa39b223fe8d0a0e5c4f27ead9083c756cc2",
                    "decodedLog": {
                        "name": "Transfer",
                        "params": [
                            {
                                "name": "src",
                                "type": "address",
                                "value": "0x000000000005af2ddc1a93a03e9b7014064d3b8d"
                            },
                            {
                                "name": "dst",
                                "type": "address",
                                "value": "0x75c51e30b684fee4241ce7d8d0784303367d1fe2"
                            },
                            {
                                "decimalAvailable": true,
                                "name": "wad",
                                "type": "uint256",
                                "value": "2,920,625,000,000,000,000"
                            }
                        ],
                        "signature": "Transfer(address,address,uint256)"
                    },
                    "id": 10,
                    "logData": "0x000000000000000000000000000000000000000000000000288824f69f201000",
                    "logDecoded": true,
                    "operation": "EVENT",
                    "revert": false,
                    "status": true,
                    "topics": [
                        "0xddf252ad1be2c89b69c2b068fc378daa952ba7f163c4a11628f55a4df523b3ef",
                        "0x000000000000000000000000000000000005af2ddc1a93a03e9b7014064d3b8d",
                        "0x00000000000000000000000075c51e30b684fee4241ce7d8d0784303367d1fe2"
                    ]
                },
                "nodeType": 1
            },
            "11": {
                "invocation": {
                    "address": "0x75c51e30b684fee4241ce7d8d0784303367d1fe2",
                    "callData": "0x0000000000000000000000000000000000000000000cff410cd524c985ae418b0000000000000000000000000000000000000000000000000000000000000000000000000000000000000000641471153f199c0dabe412d42b514f398c27905000000000000000000000000000000000000000000000000000000000000000800000000000000000000000000000000000000000000000000000000000000000",
                    "decodedMethod": {
                        "callParams": [
                            {
                                "name": "amount0Out",
                                "type": "uint256",
                                "value": "15,712,513,251,557,847,191,142,795"
                            },
                            {
                                "name": "amount1Out",
                                "type": "uint256",
                                "value": "0"
                            },
                            {
                                "name": "to",
                                "type": "address",
                                "value": "0x641471153f199c0dabe412d42b514f398c279050"
                            },
                            {
                                "name": "data",
                                "type": "bytes",
                                "value": "0x"
                            }
                        ],
                        "constructorArguments": "",
                        "name": "swap",
                        "returnParams": [],
                        "signature": "swap(uint256,uint256,address,bytes)"
                    },
                    "errorInfo": "",
                    "fromAddress": "0x000000000005af2ddc1a93a03e9b7014064d3b8d",
                    "gasUsed": 33975,
                    "id": 11,
                    "methodDecoded": true,
                    "operation": "CALL",
                    "output": "",
                    "revert": false,
                    "revertMessage": "",
                    "selector": "0x022c0d9f",
                    "status": true,
                    "value": "0"
                },
                "nodeType": 0
            },
            "12": {
                "invocation": {
                    "address": "0x1c824d563dcad3d3bf4d85be8560f74725ea7769",
                    "callData": "0x000000000000000000000000641471153f199c0dabe412d42b514f398c2790500000000000000000000000000000000000000000000cff410cd524c985ae418b",
                    "decodedMethod": {
                        "callParams": [
                            {
                                "name": "recipient",
                                "type": "address",
                                "value": "0x641471153f199c0dabe412d42b514f398c279050"
                            },
                            {
                                "decimalAvailable": true,
                                "name": "amount",
                                "type": "uint256",
                                "value": "15,712,513,251,557,847,191,142,795"
                            }
                        ],
                        "constructorArguments": "",
                        "name": "transfer",
                        "returnParams": [
                            {
                                "name": "",
                                "type": "bool",
                                "value": true
                            }
                        ],
                        "signature": "transfer(address,uint256)"
                    },
                    "errorInfo": "",
                    "fromAddress": "0x75c51e30b684fee4241ce7d8d0784303367d1fe2",
                    "gasUsed": 11604,
                    "id": 12,
                    "methodDecoded": true,
                    "operation": "CALL",
                    "output": "0x0000000000000000000000000000000000000000000000000000000000000001",
                    "revert": false,
                    "revertMessage": "",
                    "selector": "0xa9059cbb",
                    "status": true,
                    "value": "0"
                },
                "nodeType": 0
            },
            "13": {
                "event": {
                    "contract": "0x1c824d563dcad3d3bf4d85be8560f74725ea7769",
                    "decodedLog": {
                        "name": "Transfer",
                        "params": [
                            {
                                "name": "from",
                                "type": "address",
                                "value": "0x75c51e30b684fee4241ce7d8d0784303367d1fe2"
                            },
                            {
                                "name": "to",
                                "type": "address",
                                "value": "0x641471153f199c0dabe412d42b514f398c279050"
                            },
                            {
                                "decimalAvailable": true,
                                "name": "value",
                                "type": "uint256",
                                "value": "15,712,513,251,557,847,191,142,795"
                            }
                        ],
                        "signature": "Transfer(address,address,uint256)"
                    },
                    "id": 13,
                    "logData": "0x0000000000000000000000000000000000000000000cff410cd524c985ae418b",
                    "logDecoded": true,
                    "operation": "EVENT",
                    "revert": false,
                    "status": true,
                    "topics": [
                        "0xddf252ad1be2c89b69c2b068fc378daa952ba7f163c4a11628f55a4df523b3ef",
                        "0x00000000000000000000000075c51e30b684fee4241ce7d8d0784303367d1fe2",
                        "0x000000000000000000000000641471153f199c0dabe412d42b514f398c279050"
                    ]
                },
                "nodeType": 1
            },
            "14": {
                "invocation": {
                    "address": "0x1c824d563dcad3d3bf4d85be8560f74725ea7769",
                    "callData": "0x00000000000000000000000075c51e30b684fee4241ce7d8d0784303367d1fe2",
                    "decodedMethod": {
                        "callParams": [
                            {
                                "name": "account",
                                "type": "address",
                                "value": "0x75c51e30b684fee4241ce7d8d0784303367d1fe2"
                            }
                        ],
                        "constructorArguments": "",
                        "name": "balanceOf",
                        "returnParams": [
                            {
                                "decimalAvailable": true,
                                "name": "",
                                "type": "uint256",
                                "value": "797,072,175,332,250,768,747,304,382"
                            }
                        ],
                        "signature": "balanceOf(address)"
                    },
                    "errorInfo": "",
                    "fromAddress": "0x75c51e30b684fee4241ce7d8d0784303367d1fe2",
                    "gasUsed": 930,
                    "id": 14,
                    "methodDecoded": true,
                    "operation": "STATICCALL",
                    "output": "0x00000000000000000000000000000000000000000293529934c628949ee495be",
                    "revert": false,
                    "revertMessage": "",
                    "selector": "0x70a08231",
                    "status": true,
                    "value": "0"
                },
                "nodeType": 0
            },
            "15": {
                "invocation": {
                    "address": "0xc02aaa39b223fe8d0a0e5c4f27ead9083c756cc2",
                    "callData": "0x00000000000000000000000075c51e30b684fee4241ce7d8d0784303367d1fe2",
                    "decodedMethod": {
                        "callParams": [
                            {
                                "name": "",
                                "type": "address",
                                "value": "0x75c51e30b684fee4241ce7d8d0784303367d1fe2"
                            }
                        ],
                        "constructorArguments": "",
                        "name": "balanceOf",
                        "returnParams": [
                            {
                                "decimalAvailable": true,
                                "name": "",
                                "type": "uint256",
                                "value": "150,635,063,686,847,192,531"
                            }
                        ],
                        "signature": "balanceOf(address)"
                    },
                    "errorInfo": "",
                    "fromAddress": "0x75c51e30b684fee4241ce7d8d0784303367d1fe2",
                    "gasUsed": 534,
                    "id": 15,
                    "methodDecoded": true,
                    "operation": "STATICCALL",
                    "output": "0x0000000000000000000000000000000000000000000000082a7b40530cdeddd3",
                    "revert": false,
                    "revertMessage": "",
                    "selector": "0x70a08231",
                    "status": true,
                    "value": "0"
                },
                "nodeType": 0
            },
            "16": {
                "event": {
                    "contract": "0x75c51e30b684fee4241ce7d8d0784303367d1fe2",
                    "decodedLog": {
                        "name": "Sync",
                        "params": [
                            {
                                "name": "reserve0",
                                "type": "uint112",
                                "value": "797,072,175,332,250,768,747,304,382"
                            },
                            {
                                "name": "reserve1",
                                "type": "uint112",
                                "value": "150,635,063,686,847,192,531"
                            }
                        ],
                        "signature": "Sync(uint112,uint112)"
                    },
                    "id": 16,
                    "logData": "0x00000000000000000000000000000000000000000293529934c628949ee495be0000000000000000000000000000000000000000000000082a7b40530cdeddd3",
                    "logDecoded": true,
                    "operation": "EVENT",
                    "revert": false,
                    "status": true,
                    "topics": [
                        "0x1c411e9a96e071241c2f21f7726b17ae89e3cab4c78be50e062b03a9fffbbad1"
                    ]
                },
                "nodeType": 1
            },
            "17": {
                "event": {
                    "contract": "0x75c51e30b684fee4241ce7d8d0784303367d1fe2",
                    "decodedLog": {
                        "name": "Swap",
                        "params": [
                            {
                                "name": "sender",
                                "type": "address",
                                "value": "0x000000000005af2ddc1a93a03e9b7014064d3b8d"
                            },
                            {
                                "name": "to",
                                "type": "address",
                                "value": "0x641471153f199c0dabe412d42b514f398c279050"
                            },
                            {
                                "name": "amount0In",
                                "type": "uint256",
                                "value": "0"
                            },
                            {
                                "name": "amount1In",
                                "type": "uint256",
                                "value": "2,920,625,000,000,000,000"
                            },
                            {
                                "name": "amount0Out",
                                "type": "uint256",
                                "value": "15,712,513,251,557,847,191,142,795"
                            },
                            {
                                "name": "amount1Out",
                                "type": "uint256",
                                "value": "0"
                            }
                        ],
                        "signature": "Swap(address,uint256,uint256,uint256,uint256,address)"
                    },
                    "id": 17,
                    "logData": "0x0000000000000000000000000000000000000000000000000000000000000000000000000000000000000000000000000000000000000000288824f69f2010000000000000000000000000000000000000000000000cff410cd524c985ae418b0000000000000000000000000000000000000000000000000000000000000000",
                    "logDecoded": true,
                    "operation": "EVENT",
                    "revert": false,
                    "status": true,
                    "topics": [
                        "0xd78ad95fa46c994b6551d0da85fc275fe613ce37657fb8d5e3d130840159d822",
                        "0x000000000000000000000000000000000005af2ddc1a93a03e9b7014064d3b8d",
                        "0x000000000000000000000000641471153f199c0dabe412d42b514f398c279050"
                    ]
                },
                "nodeType": 1
            },
            "18": {
                "invocation": {
                    "address": "0x1c824d563dcad3d3bf4d85be8560f74725ea7769",
                    "callData": "0x000000000000000000000000641471153f199c0dabe412d42b514f398c279050",
                    "decodedMethod": {
                        "callParams": [
                            {
                                "name": "account",
                                "type": "address",
                                "value": "0x641471153f199c0dabe412d42b514f398c279050"
                            }
                        ],
                        "constructorArguments": "",
                        "name": "balanceOf",
                        "returnParams": [
                            {
                                "decimalAvailable": true,
                                "name": "",
                                "type": "uint256",
                                "value": "24,581,713,077,439,454,253,482,707"
                            }
                        ],
                        "signature": "balanceOf(address)"
                    },
                    "errorInfo": "",
                    "fromAddress": "0x641471153f199c0dabe412d42b514f398c279050",
                    "gasUsed": 930,
                    "id": 18,
                    "methodDecoded": true,
                    "operation": "STATICCALL",
                    "output": "0x000000000000000000000000000000000000000000145561560a917c890502d3",
                    "revert": false,
                    "revertMessage": "",
                    "selector": "0x70a08231",
                    "status": true,
                    "value": "0"
                },
                "nodeType": 0
            },
            "19": {
                "event": {
                    "contract": "0x641471153f199c0dabe412d42b514f398c279050",
                    "decodedLog": {
                        "name": "Swap",
                        "params": [
                            {
                                "name": "sender",
                                "type": "address",
                                "value": "0x000000000005af2ddc1a93a03e9b7014064d3b8d"
                            },
                            {
                                "name": "recipient",
                                "type": "address",
                                "value": "0x000000000005af2ddc1a93a03e9b7014064d3b8d"
                            },
                            {
                                "name": "amount0",
                                "type": "int256",
                                "value": "15,712,513,251,557,847,191,142,795"
                            },
                            {
                                "name": "amount1",
                                "type": "int256",
                                "value": "-7,011,226,180,814,239,410"
                            },
                            {
                                "name": "sqrtPriceX96",
                                "type": "uint160",
                                "value": "34,545,375,699,105,988,920,852,236"
                            },
                            {
                                "name": "liquidity",
                                "type": "uint128",
                                "value": "11,874,620,030,951,014,249,448"
                            },
                            {
                                "name": "tick",
                                "type": "int24",
                                "value": "-154,765"
                            }
                        ],
                        "signature": "Swap(address,address,int256,int256,uint160,uint128,int24)"
                    },
                    "id": 19,
                    "logData": "0x0000000000000000000000000000000000000000000cff410cd524c985ae418bffffffffffffffffffffffffffffffffffffffffffffffff9eb31eef84a6094e0000000000000000000000000000000000000000001c934491b18429ea15bf0c000000000000000000000000000000000000000000000283b97503b7753bb3e8fffffffffffffffffffffffffffffffffffffffffffffffffffffffffffda373",
                    "logDecoded": true,
                    "operation": "EVENT",
                    "revert": false,
                    "status": true,
                    "topics": [
                        "0xc42079f94a6350d7e6235f29174924f928cc2ac818eb64fed8004e115fbcca67",
                        "0x000000000000000000000000000000000005af2ddc1a93a03e9b7014064d3b8d",
                        "0x000000000000000000000000000000000005af2ddc1a93a03e9b7014064d3b8d"
                    ]
                },
                "nodeType": 1
            },
            "2": {
                "invocation": {
                    "address": "0x75c51e30b684fee4241ce7d8d0784303367d1fe2",
                    "callData": "0x",
                    "decodedMethod": {
                        "callParams": [],
                        "constructorArguments": "",
                        "name": "getReserves",
                        "returnParams": [
                            {
                                "name": "_reserve0",
                                "type": "uint112",
                                "value": "812,784,688,583,808,615,938,447,177"
                            },
                            {
                                "name": "_reserve1",
                                "type": "uint112",
                                "value": "147,714,438,686,847,192,531"
                            },
                            {
                                "name": "_blockTimestampLast",
                                "type": "uint32",
                                "value": "1,685,156,099"
                            }
                        ],
                        "signature": "getReserves()"
                    },
                    "errorInfo": "",
                    "fromAddress": "0x000000000005af2ddc1a93a03e9b7014064d3b8d",
                    "gasUsed": 2504,
                    "id": 2,
                    "methodDecoded": true,
                    "operation": "STATICCALL",
                    "output": "0x000000000000000000000000000000000000000002a051da419b4d5e2492d74900000000000000000000000000000000000000000000000801f31b5c6dbecdd30000000000000000000000000000000000000000000000000000000064717103",
                    "revert": false,
                    "revertMessage": "",
                    "selector": "0x0902f1ac",
                    "status": true,
                    "value": "0"
                },
                "nodeType": 0
            },
            "20": {
                "invocation": {
                    "address": "0xb53917d6f10e4b45f8379e240118b4c05ca1bda8",
                    "callData": "0x000000000000000000000000d8963d93b96f4af6a300e10afe4b103ec277306300000000000000000000000000000000000000000001b0bb47e22438b51ea782",
                    "decodedMethod": {
                        "callParams": [
                            {
                                "name": "to",
                                "type": "address",
                                "value": "0xd8963d93b96f4af6a300e10afe4b103ec2773063"
                            },
                            {
                                "decimalAvailable": true,
                                "name": "amount",
                                "type": "uint256",
                                "value": "2,043,517,041,483,817,823,414,146"
                            }
                        ],
                        "constructorArguments": "",
                        "name": "transfer",
                        "returnParams": [
                            {
                                "name": "",
                                "type": "bool",
                                "value": true
                            }
                        ],
                        "signature": "transfer(address,uint256)"
                    },
                    "errorInfo": "",
                    "fromAddress": "0x000000000005af2ddc1a93a03e9b7014064d3b8d",
                    "gasUsed": 13467,
                    "id": 20,
                    "methodDecoded": true,
                    "operation": "CALL",
                    "output": "0x0000000000000000000000000000000000000000000000000000000000000001",
                    "revert": false,
                    "revertMessage": "",
                    "selector": "0xa9059cbb",
                    "status": true,
                    "value": "0"
                },
                "nodeType": 0
            },
            "21": {
                "event": {
                    "contract": "0xb53917d6f10e4b45f8379e240118b4c05ca1bda8",
                    "decodedLog": {
                        "name": "Transfer",
                        "params": [
                            {
                                "name": "from",
                                "type": "address",
                                "value": "0x000000000005af2ddc1a93a03e9b7014064d3b8d"
                            },
                            {
                                "name": "to",
                                "type": "address",
                                "value": "0xd8963d93b96f4af6a300e10afe4b103ec2773063"
                            },
                            {
                                "decimalAvailable": true,
                                "name": "value",
                                "type": "uint256",
                                "value": "2,043,517,041,483,817,823,414,146"
                            }
                        ],
                        "signature": "Transfer(address,address,uint256)"
                    },
                    "id": 21,
                    "logData": "0x00000000000000000000000000000000000000000001b0bb47e22438b51ea782",
                    "logDecoded": true,
                    "operation": "EVENT",
                    "revert": false,
                    "status": true,
                    "topics": [
                        "0xddf252ad1be2c89b69c2b068fc378daa952ba7f163c4a11628f55a4df523b3ef",
                        "0x000000000000000000000000000000000005af2ddc1a93a03e9b7014064d3b8d",
                        "0x000000000000000000000000d8963d93b96f4af6a300e10afe4b103ec2773063"
                    ]
                },
                "nodeType": 1
            },
            "22": {
                "invocation": {
                    "address": "0xd8963d93b96f4af6a300e10afe4b103ec2773063",
                    "callData": "0x",
                    "decodedMethod": {
                        "callParams": [],
                        "constructorArguments": "",
                        "name": "getReserves",
                        "returnParams": [
                            {
                                "name": "_reserve0",
                                "type": "uint112",
                                "value": "67,848,505,259,861,539,037,983,958"
                            },
                            {
                                "name": "_reserve1",
                                "type": "uint112",
                                "value": "17,858,149,579,046,429,078"
                            },
                            {
                                "name": "_blockTimestampLast",
                                "type": "uint32",
                                "value": "1,685,156,099"
                            }
                        ],
                        "signature": "getReserves()"
                    },
                    "errorInfo": "",
                    "fromAddress": "0x000000000005af2ddc1a93a03e9b7014064d3b8d",
                    "gasUsed": 2504,
                    "id": 22,
                    "methodDecoded": true,
                    "operation": "STATICCALL",
                    "output": "0x000000000000000000000000000000000000000000381f7ad712e0b92e6934d6000000000000000000000000000000000000000000000000f7d4e46cf4daa1960000000000000000000000000000000000000000000000000000000064717103",
                    "revert": false,
                    "revertMessage": "",
                    "selector": "0x0902f1ac",
                    "status": true,
                    "value": "0"
                },
                "nodeType": 0
            },
            "23": {
                "invocation": {
                    "address": "0xd8963d93b96f4af6a300e10afe4b103ec2773063",
                    "callData": "0x000000000000000000000000000000000000000000000000000000000000000000000000000000000000000000000000000000000000000007399c9b8b1f7ff4000000000000000000000000000000000005af2ddc1a93a03e9b7014064d3b8d00000000000000000000000000000000000000000000000000000000000000800000000000000000000000000000000000000000000000000000000000000000",
                    "decodedMethod": {
                        "callParams": [
                            {
                                "name": "amount0Out",
                                "type": "uint256",
                                "value": "0"
                            },
                            {
                                "name": "amount1Out",
                                "type": "uint256",
                                "value": "520,619,423,805,964,276"
                            },
                            {
                                "name": "to",
                                "type": "address",
                                "value": "0x000000000005af2ddc1a93a03e9b7014064d3b8d"
                            },
                            {
                                "name": "data",
                                "type": "bytes",
                                "value": "0x"
                            }
                        ],
                        "constructorArguments": "",
                        "name": "swap",
                        "returnParams": [],
                        "signature": "swap(uint256,uint256,address,bytes)"
                    },
                    "errorInfo": "",
                    "fromAddress": "0x000000000005af2ddc1a93a03e9b7014064d3b8d",
                    "gasUsed": 30366,
                    "id": 23,
                    "methodDecoded": true,
                    "operation": "CALL",
                    "output": "",
                    "revert": false,
                    "revertMessage": "",
                    "selector": "0x022c0d9f",
                    "status": true,
                    "value": "0"
                },
                "nodeType": 0
            },
            "24": {
                "invocation": {
                    "address": "0xc02aaa39b223fe8d0a0e5c4f27ead9083c756cc2",
                    "callData": "0x000000000000000000000000000000000005af2ddc1a93a03e9b7014064d3b8d00000000000000000000000000000000000000000000000007399c9b8b1f7ff4",
                    "decodedMethod": {
                        "callParams": [
                            {
                                "name": "dst",
                                "type": "address",
                                "value": "0x000000000005af2ddc1a93a03e9b7014064d3b8d"
                            },
                            {
                                "decimalAvailable": true,
                                "name": "wad",
                                "type": "uint256",
                                "value": "520,619,423,805,964,276"
                            }
                        ],
                        "constructorArguments": "",
                        "name": "transfer",
                        "returnParams": [
                            {
                                "name": "",
                                "type": "bool",
                                "value": true
                            }
                        ],
                        "signature": "transfer(address,uint256)"
                    },
                    "errorInfo": "",
                    "fromAddress": "0xd8963d93b96f4af6a300e10afe4b103ec2773063",
                    "gasUsed": 8062,
                    "id": 24,
                    "methodDecoded": true,
                    "operation": "CALL",
                    "output": "0x0000000000000000000000000000000000000000000000000000000000000001",
                    "revert": false,
                    "revertMessage": "",
                    "selector": "0xa9059cbb",
                    "status": true,
                    "value": "0"
                },
                "nodeType": 0
            },
            "25": {
                "event": {
                    "contract": "0xc02aaa39b223fe8d0a0e5c4f27ead9083c756cc2",
                    "decodedLog": {
                        "name": "Transfer",
                        "params": [
                            {
                                "name": "src",
                                "type": "address",
                                "value": "0xd8963d93b96f4af6a300e10afe4b103ec2773063"
                            },
                            {
                                "name": "dst",
                                "type": "address",
                                "value": "0x000000000005af2ddc1a93a03e9b7014064d3b8d"
                            },
                            {
                                "decimalAvailable": true,
                                "name": "wad",
                                "type": "uint256",
                                "value": "520,619,423,805,964,276"
                            }
                        ],
                        "signature": "Transfer(address,address,uint256)"
                    },
                    "id": 25,
                    "logData": "0x00000000000000000000000000000000000000000000000007399c9b8b1f7ff4",
                    "logDecoded": true,
                    "operation": "EVENT",
                    "revert": false,
                    "status": true,
                    "topics": [
                        "0xddf252ad1be2c89b69c2b068fc378daa952ba7f163c4a11628f55a4df523b3ef",
                        "0x000000000000000000000000d8963d93b96f4af6a300e10afe4b103ec2773063",
                        "0x000000000000000000000000000000000005af2ddc1a93a03e9b7014064d3b8d"
                    ]
                },
                "nodeType": 1
            },
            "26": {
                "invocation": {
                    "address": "0xb53917d6f10e4b45f8379e240118b4c05ca1bda8",
                    "callData": "0x000000000000000000000000d8963d93b96f4af6a300e10afe4b103ec2773063",
                    "decodedMethod": {
                        "callParams": [
                            {
                                "name": "account",
                                "type": "address",
                                "value": "0xd8963d93b96f4af6a300e10afe4b103ec2773063"
                            }
                        ],
                        "constructorArguments": "",
                        "name": "balanceOf",
                        "returnParams": [
                            {
                                "decimalAvailable": true,
                                "name": "",
                                "type": "uint256",
                                "value": "69,892,022,301,345,356,861,398,104"
                            }
                        ],
                        "signature": "balanceOf(address)"
                    },
                    "errorInfo": "",
                    "fromAddress": "0xd8963d93b96f4af6a300e10afe4b103ec2773063",
                    "gasUsed": 863,
                    "id": 26,
                    "methodDecoded": true,
                    "operation": "STATICCALL",
                    "output": "0x00000000000000000000000000000000000000000039d0361ef504f1e387dc58",
                    "revert": false,
                    "revertMessage": "",
                    "selector": "0x70a08231",
                    "status": true,
                    "value": "0"
                },
                "nodeType": 0
            },
            "27": {
                "invocation": {
                    "address": "0xc02aaa39b223fe8d0a0e5c4f27ead9083c756cc2",
                    "callData": "0x000000000000000000000000d8963d93b96f4af6a300e10afe4b103ec2773063",
                    "decodedMethod": {
                        "callParams": [
                            {
                                "name": "",
                                "type": "address",
                                "value": "0xd8963d93b96f4af6a300e10afe4b103ec2773063"
                            }
                        ],
                        "constructorArguments": "",
                        "name": "balanceOf",
                        "returnParams": [
                            {
                                "decimalAvailable": true,
                                "name": "",
                                "type": "uint256",
                                "value": "17,337,530,155,240,464,802"
                            }
                        ],
                        "signature": "balanceOf(address)"
                    },
                    "errorInfo": "",
                    "fromAddress": "0xd8963d93b96f4af6a300e10afe4b103ec2773063",
                    "gasUsed": 534,
                    "id": 27,
                    "methodDecoded": true,
                    "operation": "STATICCALL",
                    "output": "0x000000000000000000000000000000000000000000000000f09b47d169bb21a2",
                    "revert": false,
                    "revertMessage": "",
                    "selector": "0x70a08231",
                    "status": true,
                    "value": "0"
                },
                "nodeType": 0
            },
            "28": {
                "event": {
                    "contract": "0xd8963d93b96f4af6a300e10afe4b103ec2773063",
                    "decodedLog": {
                        "name": "Sync",
                        "params": [
                            {
                                "name": "reserve0",
                                "type": "uint112",
                                "value": "69,892,022,301,345,356,861,398,104"
                            },
                            {
                                "name": "reserve1",
                                "type": "uint112",
                                "value": "17,337,530,155,240,464,802"
                            }
                        ],
                        "signature": "Sync(uint112,uint112)"
                    },
                    "id": 28,
                    "logData": "0x00000000000000000000000000000000000000000039d0361ef504f1e387dc58000000000000000000000000000000000000000000000000f09b47d169bb21a2",
                    "logDecoded": true,
                    "operation": "EVENT",
                    "revert": false,
                    "status": true,
                    "topics": [
                        "0x1c411e9a96e071241c2f21f7726b17ae89e3cab4c78be50e062b03a9fffbbad1"
                    ]
                },
                "nodeType": 1
            },
            "29": {
                "event": {
                    "contract": "0xd8963d93b96f4af6a300e10afe4b103ec2773063",
                    "decodedLog": {
                        "name": "Swap",
                        "params": [
                            {
                                "name": "sender",
                                "type": "address",
                                "value": "0x000000000005af2ddc1a93a03e9b7014064d3b8d"
                            },
                            {
                                "name": "to",
                                "type": "address",
                                "value": "0x000000000005af2ddc1a93a03e9b7014064d3b8d"
                            },
                            {
                                "name": "amount0In",
                                "type": "uint256",
                                "value": "2,043,517,041,483,817,823,414,146"
                            },
                            {
                                "name": "amount1In",
                                "type": "uint256",
                                "value": "0"
                            },
                            {
                                "name": "amount0Out",
                                "type": "uint256",
                                "value": "0"
                            },
                            {
                                "name": "amount1Out",
                                "type": "uint256",
                                "value": "520,619,423,805,964,276"
                            }
                        ],
                        "signature": "Swap(address,uint256,uint256,uint256,uint256,address)"
                    },
                    "id": 29,
                    "logData": "0x00000000000000000000000000000000000000000001b0bb47e22438b51ea7820000000000000000000000000000000000000000000000000000000000000000000000000000000000000000000000000000000000000000000000000000000000000000000000000000000000000000000000000000000007399c9b8b1f7ff4",
                    "logDecoded": true,
                    "operation": "EVENT",
                    "revert": false,
                    "status": true,
                    "topics": [
                        "0xd78ad95fa46c994b6551d0da85fc275fe613ce37657fb8d5e3d130840159d822",
                        "0x000000000000000000000000000000000005af2ddc1a93a03e9b7014064d3b8d",
                        "0x000000000000000000000000000000000005af2ddc1a93a03e9b7014064d3b8d"
                    ]
                },
                "nodeType": 1
            },
            "3": {
                "invocation": {
                    "address": "0x641471153f199c0dabe412d42b514f398c279050",
                    "callData": "0x000000000000000000000000000000000005af2ddc1a93a03e9b7014064d3b8d00000000000000000000000000000000000000000000000000000000000000010000000000000000000000000000000000000000000cff410cd524c985ae418b00000000000000000000000000000000000000000000000000000001000276a400000000000000000000000000000000000000000000000000000000000000a0000000000000000000000000000000000000000000000000000000000000010000000000000000000000000000000000000000000000000000000000000000010000000000000000000000001c824d563dcad3d3bf4d85be8560f74725ea7769000000000000000000000000c02aaa39b223fe8d0a0e5c4f27ead9083c756cc20000000000000000000000000000000000000000000000000000000000000bb8000000000000000000000000c02aaa39b223fe8d0a0e5c4f27ead9083c756cc20000000000000000000000001c824d563dcad3d3bf4d85be8560f74725ea776900000000000000000000000075c51e30b684fee4241ce7d8d0784303367d1fe2000000000000000000000000000000000000000000000000288824f69f201000",
                    "decodedMethod": {
                        "callParams": [
                            {
                                "name": "recipient",
                                "type": "address",
                                "value": "0x000000000005af2ddc1a93a03e9b7014064d3b8d"
                            },
                            {
                                "name": "zeroForOne",
                                "type": "bool",
                                "value": true
                            },
                            {
                                "name": "amountSpecified",
                                "type": "int256",
                                "value": "15,712,513,251,557,847,191,142,795"
                            },
                            {
                                "name": "sqrtPriceLimitX96",
                                "type": "uint160",
                                "value": "4,295,128,740"
                            },
                            {
                                "name": "data",
                                "type": "bytes",
                                "value": "0x00000000000000000000000000000000000000000000000000000000000000010000000000000000000000001c824d563dcad3d3bf4d85be8560f74725ea7769000000000000000000000000c02aaa39b223fe8d0a0e5c4f27ead9083c756cc20000000000000000000000000000000000000000000000000000000000000bb8000000000000000000000000c02aaa39b223fe8d0a0e5c4f27ead9083c756cc20000000000000000000000001c824d563dcad3d3bf4d85be8560f74725ea776900000000000000000000000075c51e30b684fee4241ce7d8d0784303367d1fe2000000000000000000000000000000000000000000000000288824f69f201000"
                            }
                        ],
                        "constructorArguments": "",
                        "name": "swap",
                        "returnParams": [
                            {
                                "name": "amount0",
                                "type": "int256",
                                "value": "15,712,513,251,557,847,191,142,795"
                            },
                            {
                                "name": "amount1",
                                "type": "int256",
                                "value": "-7,011,226,180,814,239,410"
                            }
                        ],
                        "signature": "swap(address,bool,int256,uint160,bytes)"
                    },
                    "errorInfo": "",
                    "fromAddress": "0x000000000005af2ddc1a93a03e9b7014064d3b8d",
                    "gasUsed": 116507,
                    "id": 3,
                    "methodDecoded": true,
                    "operation": "CALL",
                    "output": "0x0000000000000000000000000000000000000000000cff410cd524c985ae418bffffffffffffffffffffffffffffffffffffffffffffffff9eb31eef84a6094e",
                    "revert": false,
                    "revertMessage": "",
                    "selector": "0x128acb08",
                    "status": true,
                    "value": "0"
                },
                "nodeType": 0
            },
            "30": {
                "invocation": {
                    "address": "0xc02aaa39b223fe8d0a0e5c4f27ead9083c756cc2",
                    "callData": "0x000000000000000000000000000000000005af2ddc1a93a03e9b7014064d3b8d",
                    "decodedMethod": {
                        "callParams": [
                            {
                                "name": "",
                                "type": "address",
                                "value": "0x000000000005af2ddc1a93a03e9b7014064d3b8d"
                            }
                        ],
                        "constructorArguments": "",
                        "name": "balanceOf",
                        "returnParams": [
                            {
                                "decimalAvailable": true,
                                "name": "",
                                "type": "uint256",
                                "value": "42,366,527,935,284,990,612"
                            }
                        ],
                        "signature": "balanceOf(address)"
                    },
                    "errorInfo": "",
                    "fromAddress": "0x000000000005af2ddc1a93a03e9b7014064d3b8d",
                    "gasUsed": 534,
                    "id": 30,
                    "methodDecoded": true,
                    "operation": "STATICCALL",
                    "output": "0x0000000000000000000000000000000000000000000000024bf424b08d535294",
                    "revert": false,
                    "revertMessage": "",
                    "selector": "0x70a08231",
                    "status": true,
                    "value": "0"
                },
                "nodeType": 0
            },
            "31": {
                "invocation": {
                    "address": "0xa0b86991c6218b36c1d19d4a2e9eb0ce3606eb48",
                    "callData": "0x000000000000000000000000000000000005af2ddc1a93a03e9b7014064d3b8d",
                    "decodedMethod": {
                        "callParams": [
                            {
                                "name": "account",
                                "type": "address",
                                "value": "0x000000000005af2ddc1a93a03e9b7014064d3b8d"
                            }
                        ],
                        "constructorArguments": "",
                        "name": "balanceOf",
                        "returnParams": [
                            {
                                "decimalAvailable": true,
                                "name": "",
                                "type": "uint256",
                                "value": "33,908,088,580"
                            }
                        ],
                        "signature": "balanceOf(address)"
                    },
                    "errorInfo": "",
                    "fromAddress": "0x000000000005af2ddc1a93a03e9b7014064d3b8d",
                    "gasUsed": 9815,
                    "id": 31,
                    "methodDecoded": true,
                    "operation": "STATICCALL",
                    "output": "0x00000000000000000000000000000000000000000000000000000007e5145f04",
                    "revert": false,
                    "revertMessage": "",
                    "selector": "0x70a08231",
                    "status": true,
                    "value": "0"
                },
                "nodeType": 0
            },
            "32": {
                "invocation": {
                    "address": "0xa2327a938febf5fec13bacfb16ae10ecbc4cbdcf",
                    "callData": "0x000000000000000000000000000000000005af2ddc1a93a03e9b7014064d3b8d",
                    "decodedMethod": {
                        "callParams": [
                            {
                                "name": "account",
                                "type": "address",
                                "value": "0x000000000005af2ddc1a93a03e9b7014064d3b8d"
                            }
                        ],
                        "constructorArguments": "",
                        "name": "balanceOf",
                        "returnParams": [
                            {
                                "decimalAvailable": true,
                                "name": "",
                                "type": "uint256",
                                "value": "33,908,088,580"
                            }
                        ],
                        "signature": "balanceOf(address)"
                    },
                    "errorInfo": "",
                    "fromAddress": "0xa0b86991c6218b36c1d19d4a2e9eb0ce3606eb48",
                    "gasUsed": 2529,
                    "id": 32,
                    "methodDecoded": true,
                    "operation": "DELEGATECALL",
                    "output": "0x00000000000000000000000000000000000000000000000000000007e5145f04",
                    "revert": false,
                    "revertMessage": "",
                    "selector": "0x70a08231",
                    "status": true,
                    "value": "0"
                },
                "nodeType": 0
            },
            "33": {
                "invocation": {
                    "address": "0xdac17f958d2ee523a2206206994597c13d831ec7",
                    "callData": "0x000000000000000000000000000000000005af2ddc1a93a03e9b7014064d3b8d",
                    "decodedMethod": {
                        "callParams": [
                            {
                                "name": "who",
                                "type": "address",
                                "value": "0x000000000005af2ddc1a93a03e9b7014064d3b8d"
                            }
                        ],
                        "constructorArguments": "",
                        "name": "balanceOf",
                        "returnParams": [
                            {
                                "decimalAvailable": true,
                                "name": "",
                                "type": "uint256",
                                "value": "15,421,623,342"
                            }
                        ],
                        "signature": "balanceOf(address)"
                    },
                    "errorInfo": "",
                    "fromAddress": "0x000000000005af2ddc1a93a03e9b7014064d3b8d",
                    "gasUsed": 5031,
                    "id": 33,
                    "methodDecoded": true,
                    "operation": "STATICCALL",
                    "output": "0x0000000000000000000000000000000000000000000000000000000397334c2e",
                    "revert": false,
                    "revertMessage": "",
                    "selector": "0x70a08231",
                    "status": true,
                    "value": "0"
                },
                "nodeType": 0
            },
            "4": {
                "invocation": {
                    "address": "0xc02aaa39b223fe8d0a0e5c4f27ead9083c756cc2",
                    "callData": "0x000000000000000000000000000000000005af2ddc1a93a03e9b7014064d3b8d000000000000000000000000000000000000000000000000614ce1107b59f6b2",
                    "decodedMethod": {
                        "callParams": [
                            {
                                "name": "dst",
                                "type": "address",
                                "value": "0x000000000005af2ddc1a93a03e9b7014064d3b8d"
                            },
                            {
                                "decimalAvailable": true,
                                "name": "wad",
                                "type": "uint256",
                                "value": "7,011,226,180,814,239,410"
                            }
                        ],
                        "constructorArguments": "",
                        "name": "transfer",
                        "returnParams": [
                            {
                                "name": "",
                                "type": "bool",
                                "value": true
                            }
                        ],
                        "signature": "transfer(address,uint256)"
                    },
                    "errorInfo": "",
                    "fromAddress": "0x641471153f199c0dabe412d42b514f398c279050",
                    "gasUsed": 12862,
                    "id": 4,
                    "methodDecoded": true,
                    "operation": "CALL",
                    "output": "0x0000000000000000000000000000000000000000000000000000000000000001",
                    "revert": false,
                    "revertMessage": "",
                    "selector": "0xa9059cbb",
                    "status": true,
                    "value": "0"
                },
                "nodeType": 0
            },
            "5": {
                "event": {
                    "contract": "0xc02aaa39b223fe8d0a0e5c4f27ead9083c756cc2",
                    "decodedLog": {
                        "name": "Transfer",
                        "params": [
                            {
                                "name": "src",
                                "type": "address",
                                "value": "0x641471153f199c0dabe412d42b514f398c279050"
                            },
                            {
                                "name": "dst",
                                "type": "address",
                                "value": "0x000000000005af2ddc1a93a03e9b7014064d3b8d"
                            },
                            {
                                "decimalAvailable": true,
                                "name": "wad",
                                "type": "uint256",
                                "value": "7,011,226,180,814,239,410"
                            }
                        ],
                        "signature": "Transfer(address,address,uint256)"
                    },
                    "id": 5,
                    "logData": "0x000000000000000000000000000000000000000000000000614ce1107b59f6b2",
                    "logDecoded": true,
                    "operation": "EVENT",
                    "revert": false,
                    "status": true,
                    "topics": [
                        "0xddf252ad1be2c89b69c2b068fc378daa952ba7f163c4a11628f55a4df523b3ef",
                        "0x000000000000000000000000641471153f199c0dabe412d42b514f398c279050",
                        "0x000000000000000000000000000000000005af2ddc1a93a03e9b7014064d3b8d"
                    ]
                },
                "nodeType": 1
            },
            "6": {
                "invocation": {
                    "address": "0x1c824d563dcad3d3bf4d85be8560f74725ea7769",
                    "callData": "0x000000000000000000000000641471153f199c0dabe412d42b514f398c279050",
                    "decodedMethod": {
                        "callParams": [
                            {
                                "name": "account",
                                "type": "address",
                                "value": "0x641471153f199c0dabe412d42b514f398c279050"
                            }
                        ],
                        "constructorArguments": "",
                        "name": "balanceOf",
                        "returnParams": [
                            {
                                "decimalAvailable": true,
                                "name": "",
                                "type": "uint256",
                                "value": "8,869,199,825,881,607,062,339,912"
                            }
                        ],
                        "signature": "balanceOf(address)"
                    },
                    "errorInfo": "",
                    "fromAddress": "0x641471153f199c0dabe412d42b514f398c279050",
                    "gasUsed": 2930,
                    "id": 6,
                    "methodDecoded": true,
                    "operation": "STATICCALL",
                    "output": "0x00000000000000000000000000000000000000000007562049356cb30356c148",
                    "revert": false,
                    "revertMessage": "",
                    "selector": "0x70a08231",
                    "status": true,
                    "value": "0"
                },
                "nodeType": 0
            },
            "7": {
                "invocation": {
                    "address": "0x000000000005af2ddc1a93a03e9b7014064d3b8d",
                    "callData": "0x0000000000000000000000000000000000000000000cff410cd524c985ae418bffffffffffffffffffffffffffffffffffffffffffffffff9eb31eef84a6094e0000000000000000000000000000000000000000000000000000000000000060000000000000000000000000000000000000000000000000000000000000010000000000000000000000000000000000000000000000000000000000000000010000000000000000000000001c824d563dcad3d3bf4d85be8560f74725ea7769000000000000000000000000c02aaa39b223fe8d0a0e5c4f27ead9083c756cc20000000000000000000000000000000000000000000000000000000000000bb8000000000000000000000000c02aaa39b223fe8d0a0e5c4f27ead9083c756cc20000000000000000000000001c824d563dcad3d3bf4d85be8560f74725ea776900000000000000000000000075c51e30b684fee4241ce7d8d0784303367d1fe2000000000000000000000000000000000000000000000000288824f69f201000",
                    "decodedMethod": {
                        "callParams": [
                            {
                                "name": "amount0Delta",
                                "type": "int256",
                                "value": "15,712,513,251,557,847,191,142,795"
                            },
                            {
                                "name": "amount1Delta",
                                "type": "int256",
                                "value": "-7,011,226,180,814,239,410"
                            },
                            {
                                "name": "data",
                                "type": "bytes",
                                "value": "0x00000000000000000000000000000000000000000000000000000000000000010000000000000000000000001c824d563dcad3d3bf4d85be8560f74725ea7769000000000000000000000000c02aaa39b223fe8d0a0e5c4f27ead9083c756cc20000000000000000000000000000000000000000000000000000000000000bb8000000000000000000000000c02aaa39b223fe8d0a0e5c4f27ead9083c756cc20000000000000000000000001c824d563dcad3d3bf4d85be8560f74725ea776900000000000000000000000075c51e30b684fee4241ce7d8d0784303367d1fe2000000000000000000000000000000000000000000000000288824f69f201000"
                            }
                        ],
                        "constructorArguments": "",
                        "name": "uniswapV3SwapCallback",
                        "returnParams": [],
                        "signature": "uniswapV3SwapCallback(int256,int256,bytes)"
                    },
                    "errorInfo": "",
                    "fromAddress": "0x641471153f199c0dabe412d42b514f398c279050",
                    "gasUsed": 45234,
                    "id": 7,
                    "methodDecoded": true,
                    "operation": "CALL",
                    "output": "",
                    "revert": false,
                    "revertMessage": "",
                    "selector": "0xfa461e33",
                    "status": true,
                    "value": "0"
                },
                "nodeType": 0
            },
            "8": {
                "invocation": {
                    "address": "0xa4e65210fd5b1f73fc6dcec2374adec7c22a77b7",
                    "callData": "0x0000000000000000000000000000000000000000000cff410cd524c985ae418bffffffffffffffffffffffffffffffffffffffffffffffff9eb31eef84a6094e0000000000000000000000000000000000000000000000000000000000000060000000000000000000000000000000000000000000000000000000000000010000000000000000000000000000000000000000000000000000000000000000010000000000000000000000001c824d563dcad3d3bf4d85be8560f74725ea7769000000000000000000000000c02aaa39b223fe8d0a0e5c4f27ead9083c756cc20000000000000000000000000000000000000000000000000000000000000bb8000000000000000000000000c02aaa39b223fe8d0a0e5c4f27ead9083c756cc20000000000000000000000001c824d563dcad3d3bf4d85be8560f74725ea776900000000000000000000000075c51e30b684fee4241ce7d8d0784303367d1fe2000000000000000000000000000000000000000000000000288824f69f201000",
                    "decodedMethod": {
                        "callParams": [
                            {
                                "name": "amount0Delta",
                                "type": "int256",
                                "value": "15,712,513,251,557,847,191,142,795"
                            },
                            {
                                "name": "amount1Delta",
                                "type": "int256",
                                "value": "-7,011,226,180,814,239,410"
                            },
                            {
                                "name": "data",
                                "type": "bytes",
                                "value": "0x00000000000000000000000000000000000000000000000000000000000000010000000000000000000000001c824d563dcad3d3bf4d85be8560f74725ea7769000000000000000000000000c02aaa39b223fe8d0a0e5c4f27ead9083c756cc20000000000000000000000000000000000000000000000000000000000000bb8000000000000000000000000c02aaa39b223fe8d0a0e5c4f27ead9083c756cc20000000000000000000000001c824d563dcad3d3bf4d85be8560f74725ea776900000000000000000000000075c51e30b684fee4241ce7d8d0784303367d1fe2000000000000000000000000000000000000000000000000288824f69f201000"
                            }
                        ],
                        "constructorArguments": "",
                        "name": "uniswapV3SwapCallback",
                        "returnParams": [],
                        "signature": "uniswapV3SwapCallback(int256,int256,bytes)"
                    },
                    "errorInfo": "",
                    "fromAddress": "0x000000000005af2ddc1a93a03e9b7014064d3b8d",
                    "gasUsed": 44799,
                    "id": 8,
                    "methodDecoded": true,
                    "operation": "DELEGATECALL",
                    "output": "",
                    "revert": false,
                    "revertMessage": "",
                    "selector": "0xfa461e33",
                    "status": true,
                    "value": "0"
                },
                "nodeType": 0
            },
            "9": {
                "invocation": {
                    "address": "0xc02aaa39b223fe8d0a0e5c4f27ead9083c756cc2",
                    "callData": "0x00000000000000000000000075c51e30b684fee4241ce7d8d0784303367d1fe2000000000000000000000000000000000000000000000000288824f69f201000",
                    "decodedMethod": {
                        "callParams": [
                            {
                                "name": "dst",
                                "type": "address",
                                "value": "0x75c51e30b684fee4241ce7d8d0784303367d1fe2"
                            },
                            {
                                "decimalAvailable": true,
                                "name": "wad",
                                "type": "uint256",
                                "value": "2,920,625,000,000,000,000"
                            }
                        ],
                        "constructorArguments": "",
                        "name": "transfer",
                        "returnParams": [
                            {
                                "name": "",
                                "type": "bool",
                                "value": true
                            }
                        ],
                        "signature": "transfer(address,uint256)"
                    },
                    "errorInfo": "",
                    "fromAddress": "0x000000000005af2ddc1a93a03e9b7014064d3b8d",
                    "gasUsed": 8062,
                    "id": 9,
                    "methodDecoded": true,
                    "operation": "CALL",
                    "output": "0x0000000000000000000000000000000000000000000000000000000000000001",
                    "revert": false,
                    "revertMessage": "",
                    "selector": "0xa9059cbb",
                    "status": true,
                    "value": "0"
                },
                "nodeType": 0
            }
        },
        "gasFlame": [
            {
                "children": [
                    {
                        "children": [
                            {
                                "children": [],
                                "depth": 0,
                                "name": "Initial Gas",
                                "value": 30600
                            },
                            {
                                "children": [
                                    {
                                        "children": [
                                            {
                                                "children": [],
                                                "depth": 2,
                                                "name": "getReserves",
                                                "value": 2504
                                            },
                                            {
                                                "children": [
                                                    {
                                                        "children": [],
                                                        "depth": 3,
                                                        "name": "transfer",
                                                        "value": 12862
                                                    },
                                                    {
                                                        "children": [],
                                                        "depth": 3,
                                                        "name": "balanceOf",
                                                        "value": 2930
                                                    },
                                                    {
                                                        "children": [
                                                            {
                                                                "children": [
                                                                    {
                                                                        "children": [],
                                                                        "depth": 5,
                                                                        "name": "transfer",
                                                                        "value": 8062
                                                                    },
                                                                    {
                                                                        "children": [
                                                                            {
                                                                                "children": [],
                                                                                "depth": 6,
                                                                                "name": "transfer",
                                                                                "value": 11604
                                                                            },
                                                                            {
                                                                                "children": [],
                                                                                "depth": 6,
                                                                                "name": "balanceOf",
                                                                                "value": 930
                                                                            },
                                                                            {
                                                                                "children": [],
                                                                                "depth": 6,
                                                                                "name": "balanceOf",
                                                                                "value": 534
                                                                            }
                                                                        ],
                                                                        "depth": 5,
                                                                        "name": "swap",
                                                                        "value": 33975
                                                                    }
                                                                ],
                                                                "depth": 4,
                                                                "name": "uniswapV3SwapCallback",
                                                                "value": 44799
                                                            }
                                                        ],
                                                        "depth": 3,
                                                        "name": "uniswapV3SwapCallback",
                                                        "value": 45234
                                                    },
                                                    {
                                                        "children": [],
                                                        "depth": 3,
                                                        "name": "balanceOf",
                                                        "value": 930
                                                    }
                                                ],
                                                "depth": 2,
                                                "name": "swap",
                                                "value": 116507
                                            },
                                            {
                                                "children": [],
                                                "depth": 2,
                                                "name": "transfer",
                                                "value": 13467
                                            },
                                            {
                                                "children": [],
                                                "depth": 2,
                                                "name": "getReserves",
                                                "value": 2504
                                            },
                                            {
                                                "children": [
                                                    {
                                                        "children": [],
                                                        "depth": 3,
                                                        "name": "transfer",
                                                        "value": 8062
                                                    },
                                                    {
                                                        "children": [],
                                                        "depth": 3,
                                                        "name": "balanceOf",
                                                        "value": 863
                                                    },
                                                    {
                                                        "children": [],
                                                        "depth": 3,
                                                        "name": "balanceOf",
                                                        "value": 534
                                                    }
                                                ],
                                                "depth": 2,
                                                "name": "swap",
                                                "value": 30366
                                            },
                                            {
                                                "children": [],
                                                "depth": 2,
                                                "name": "balanceOf",
                                                "value": 534
                                            },
                                            {
                                                "children": [
                                                    {
                                                        "children": [],
                                                        "depth": 3,
                                                        "name": "balanceOf",
                                                        "value": 2529
                                                    }
                                                ],
                                                "depth": 2,
                                                "name": "balanceOf",
                                                "value": 9815
                                            },
                                            {
                                                "children": [],
                                                "depth": 2,
                                                "name": "balanceOf",
                                                "value": 5031
                                            }
                                        ],
                                        "depth": 1,
                                        "name": "0xb8c063d9",
                                        "value": 212509
                                    }
                                ],
                                "depth": 0,
                                "name": "Executed Gas",
                                "value": 215688
                            }
                        ],
                        "depth": -1,
                        "name": "Actual Gas Used",
                        "value": 240688
                    },
                    {
                        "children": [],
                        "depth": -1,
                        "name": "Refunded Gas",
                        "value": 5600
                    }
                ],
                "depth": -2,
                "name": "Total Gas",
                "value": 246288
            }
        ],
        "isConfirmed": true,
        "mainTrace": [
            {
                "children": [
                    {
                        "children": [
                            {
                                "children": [
                                    {
                                        "children": [],
                                        "depth": 2,
                                        "id": 2,
                                        "order": 2
                                    },
                                    {
                                        "children": [
                                            {
                                                "children": [
                                                    {
                                                        "children": [],
                                                        "depth": 4,
                                                        "id": 5,
                                                        "order": 5
                                                    }
                                                ],
                                                "depth": 3,
                                                "id": 4,
                                                "order": 4
                                            },
                                            {
                                                "children": [],
                                                "depth": 3,
                                                "id": 6,
                                                "order": 6
                                            },
                                            {
                                                "children": [
                                                    {
                                                        "children": [
                                                            {
                                                                "children": [
                                                                    {
                                                                        "children": [],
                                                                        "depth": 6,
                                                                        "id": 10,
                                                                        "order": 10
                                                                    }
                                                                ],
                                                                "depth": 5,
                                                                "id": 9,
                                                                "order": 9
                                                            },
                                                            {
                                                                "children": [
                                                                    {
                                                                        "children": [
                                                                            {
                                                                                "children": [],
                                                                                "depth": 7,
                                                                                "id": 13,
                                                                                "order": 13
                                                                            }
                                                                        ],
                                                                        "depth": 6,
                                                                        "id": 12,
                                                                        "order": 12
                                                                    },
                                                                    {
                                                                        "children": [],
                                                                        "depth": 6,
                                                                        "id": 14,
                                                                        "order": 14
                                                                    },
                                                                    {
                                                                        "children": [],
                                                                        "depth": 6,
                                                                        "id": 15,
                                                                        "order": 15
                                                                    },
                                                                    {
                                                                        "children": [],
                                                                        "depth": 6,
                                                                        "id": 16,
                                                                        "order": 16
                                                                    },
                                                                    {
                                                                        "children": [],
                                                                        "depth": 6,
                                                                        "id": 17,
                                                                        "order": 17
                                                                    }
                                                                ],
                                                                "depth": 5,
                                                                "id": 11,
                                                                "order": 11
                                                            }
                                                        ],
                                                        "depth": 4,
                                                        "id": 8,
                                                        "order": 8
                                                    }
                                                ],
                                                "depth": 3,
                                                "id": 7,
                                                "order": 7
                                            },
                                            {
                                                "children": [],
                                                "depth": 3,
                                                "id": 18,
                                                "order": 18
                                            },
                                            {
                                                "children": [],
                                                "depth": 3,
                                                "id": 19,
                                                "order": 19
                                            }
                                        ],
                                        "depth": 2,
                                        "id": 3,
                                        "order": 3
                                    },
                                    {
                                        "children": [
                                            {
                                                "children": [],
                                                "depth": 3,
                                                "id": 21,
                                                "order": 21
                                            }
                                        ],
                                        "depth": 2,
                                        "id": 20,
                                        "order": 20
                                    },
                                    {
                                        "children": [],
                                        "depth": 2,
                                        "id": 22,
                                        "order": 22
                                    },
                                    {
                                        "children": [
                                            {
                                                "children": [
                                                    {
                                                        "children": [],
                                                        "depth": 4,
                                                        "id": 25,
                                                        "order": 25
                                                    }
                                                ],
                                                "depth": 3,
                                                "id": 24,
                                                "order": 24
                                            },
                                            {
                                                "children": [],
                                                "depth": 3,
                                                "id": 26,
                                                "order": 26
                                            },
                                            {
                                                "children": [],
                                                "depth": 3,
                                                "id": 27,
                                                "order": 27
                                            },
                                            {
                                                "children": [],
                                                "depth": 3,
                                                "id": 28,
                                                "order": 28
                                            },
                                            {
                                                "children": [],
                                                "depth": 3,
                                                "id": 29,
                                                "order": 29
                                            }
                                        ],
                                        "depth": 2,
                                        "id": 23,
                                        "order": 23
                                    },
                                    {
                                        "children": [],
                                        "depth": 2,
                                        "id": 30,
                                        "order": 30
                                    },
                                    {
                                        "children": [
                                            {
                                                "children": [],
                                                "depth": 3,
                                                "id": 32,
                                                "order": 32
                                            }
                                        ],
                                        "depth": 2,
                                        "id": 31,
                                        "order": 31
                                    },
                                    {
                                        "children": [],
                                        "depth": 2,
                                        "id": 33,
                                        "order": 33
                                    }
                                ],
                                "depth": 1,
                                "id": 1,
                                "order": 1
                            }
                        ],
                        "depth": 0,
                        "id": 0,
                        "order": 0
                    }
                ],
                "depth": -1,
                "id": -1,
                "order": -1
            }
        ],
        "mainTraceNodeCount": 34,
        "parentIdMap": {
            "0": -1,
            "1": 0,
            "10": 9,
            "11": 8,
            "12": 11,
            "13": 12,
            "14": 11,
            "15": 11,
            "16": 11,
            "17": 11,
            "18": 3,
            "19": 3,
            "2": 1,
            "20": 1,
            "21": 20,
            "22": 1,
            "23": 1,
            "24": 23,
            "25": 24,
            "26": 23,
            "27": 23,
            "28": 23,
            "29": 23,
            "3": 1,
            "30": 1,
            "31": 1,
            "32": 31,
            "33": 1,
            "4": 3,
            "5": 4,
            "6": 3,
            "7": 3,
            "8": 7,
            "9": 8
        },
        "tidyTrace": [
            {
                "children": [
                    {
                        "children": [
                            {
                                "children": [
                                    {
                                        "children": [
                                            {
                                                "children": [
                                                    {
                                                        "children": [],
                                                        "depth": 4,
                                                        "id": 5,
                                                        "order": 5
                                                    }
                                                ],
                                                "depth": 3,
                                                "id": 4,
                                                "order": 4
                                            },
                                            {
                                                "children": [
                                                    {
                                                        "children": [
                                                            {
                                                                "children": [
                                                                    {
                                                                        "children": [],
                                                                        "depth": 6,
                                                                        "id": 10,
                                                                        "order": 10
                                                                    }
                                                                ],
                                                                "depth": 5,
                                                                "id": 9,
                                                                "order": 9
                                                            },
                                                            {
                                                                "children": [
                                                                    {
                                                                        "children": [
                                                                            {
                                                                                "children": [],
                                                                                "depth": 7,
                                                                                "id": 13,
                                                                                "order": 13
                                                                            }
                                                                        ],
                                                                        "depth": 6,
                                                                        "id": 12,
                                                                        "order": 12
                                                                    },
                                                                    {
                                                                        "children": [],
                                                                        "depth": 6,
                                                                        "id": 16,
                                                                        "order": 16
                                                                    },
                                                                    {
                                                                        "children": [],
                                                                        "depth": 6,
                                                                        "id": 17,
                                                                        "order": 17
                                                                    }
                                                                ],
                                                                "depth": 5,
                                                                "id": 11,
                                                                "order": 11
                                                            }
                                                        ],
                                                        "depth": 4,
                                                        "id": 8,
                                                        "order": 8
                                                    }
                                                ],
                                                "depth": 3,
                                                "id": 7,
                                                "order": 7
                                            },
                                            {
                                                "children": [],
                                                "depth": 3,
                                                "id": 19,
                                                "order": 19
                                            }
                                        ],
                                        "depth": 2,
                                        "id": 3,
                                        "order": 3
                                    },
                                    {
                                        "children": [
                                            {
                                                "children": [],
                                                "depth": 3,
                                                "id": 21,
                                                "order": 21
                                            }
                                        ],
                                        "depth": 2,
                                        "id": 20,
                                        "order": 20
                                    },
                                    {
                                        "children": [
                                            {
                                                "children": [
                                                    {
                                                        "children": [],
                                                        "depth": 4,
                                                        "id": 25,
                                                        "order": 25
                                                    }
                                                ],
                                                "depth": 3,
                                                "id": 24,
                                                "order": 24
                                            },
                                            {
                                                "children": [],
                                                "depth": 3,
                                                "id": 28,
                                                "order": 28
                                            },
                                            {
                                                "children": [],
                                                "depth": 3,
                                                "id": 29,
                                                "order": 29
                                            }
                                        ],
                                        "depth": 2,
                                        "id": 23,
                                        "order": 23
                                    }
                                ],
                                "depth": 1,
                                "id": 1,
                                "order": 1
                            }
                        ],
                        "depth": 0,
                        "id": 0,
                        "order": 0
                    }
                ],
                "depth": -1,
                "id": -1,
                "order": -1
            }
        ],
        "tidyTraceNodeCount": 22
    },
    "state_change": {
        "stateChanges": [
            {
                "address": "0x1c824d563dcad3d3bf4d85be8560f74725ea7769",
                "erc": "ERC-20",
                "slots": [
                    {
                        "current": "0x00000000000000000000000000000000000000000293529934c628949ee495be",
                        "key": "0x20b7a1ccd592e622e8452c8a21f81552c65a4f5b058b29230697b3ea1e7a2955",
                        "prev": "0x000000000000000000000000000000000000000002a051da419b4d5e2492d749"
                    },
                    {
                        "current": "0x000000000000000000000000000000000000000000145561560a917c890502d3",
                        "key": "0xd9018b355610df37c0255e8f1f78fd7b1bba968dc57ba250e1858c4318529fd5",
                        "prev": "0x00000000000000000000000000000000000000000007562049356cb30356c148"
                    }
                ],
                "storageVariables": [
                    {
                        "name": "_balances",
                        "type": "mapping(address => uint256)",
                        "value": {
                            "pairs": [
                                {
                                    "key": "0x641471153f199c0dabe412d42b514f398c279050",
                                    "value": {
                                        "current": "24581713077439454253482707",
                                        "prev": "8869199825881607062339912",
                                        "typeTag": 1
                                    }
                                },
                                {
                                    "key": "0x75c51e30b684fee4241ce7d8d0784303367d1fe2",
                                    "value": {
                                        "current": "797072175332250768747304382",
                                        "prev": "812784688583808615938447177",
                                        "typeTag": 1
                                    }
                                }
                            ],
                            "typeTag": 4
                        }
                    }
                ]
            },
            {
                "address": "0x641471153f199c0dabe412d42b514f398c279050",
                "erc": "",
                "slots": [
                    {
                        "current": "0x00000000000000000000000000000004bd91c00c8ba5eea92d76c6418d0783e1",
                        "key": "0x0000000000000000000000000000000000000000000000000000000000000001",
                        "prev": "0x00000000000000000000000000000000c559c77c362c099bfbbb1c950e9b8329"
                    },
                    {
                        "current": "0x000100000100010000fda3730000000000000000001c934491b18429ea15bf0c",
                        "key": "0x0000000000000000000000000000000000000000000000000000000000000000",
                        "prev": "0x000100000100010000fde65800000000000000000043452c356998ab45b4ab58"
                    }
                ],
                "storageVariables": []
            },
            {
                "address": "0x75c51e30b684fee4241ce7d8d0784303367d1fe2",
                "erc": "ERC-20",
                "slots": [
                    {
                        "current": "0x647171030000000000082a7b40530cdeddd300000293529934c628949ee495be",
                        "key": "0x0000000000000000000000000000000000000000000000000000000000000008",
                        "prev": "0x6471710300000000000801f31b5c6dbecdd3000002a051da419b4d5e2492d749"
                    }
                ],
                "storageVariables": [
                    {
                        "name": "reserve0",
                        "type": "uint112",
                        "value": {
                            "current": "797072175332250768747304382",
                            "prev": "812784688583808615938447177",
                            "typeTag": 1
                        }
                    },
                    {
                        "name": "reserve1",
                        "type": "uint112",
                        "value": {
                            "current": "150635063686847192531",
                            "prev": "147714438686847192531",
                            "typeTag": 1
                        }
                    },
                    {
                        "name": "blockTimestampLast",
                        "type": "uint32",
                        "value": {
                            "current": "1685156099",
                            "prev": "1685156099",
                            "typeTag": 1
                        }
                    }
                ]
            },
            {
                "address": "0xb53917d6f10e4b45f8379e240118b4c05ca1bda8",
                "erc": "ERC-20",
                "slots": [
                    {
                        "current": "0x00000000000000000000000000000000000000000039d0361ef504f1e387dc58",
                        "key": "0xeb6590908eedf0d5ecfc0cb52183ac239da9909928fae5124c34d61b634f80f1",
                        "prev": "0x000000000000000000000000000000000000000000381f7ad712e0b92e6934d6"
                    },
                    {
                        "current": "0x0000000000000000000000000000000000000000000000000000000000000001",
                        "key": "0x7ff566b26ff1d80ac560a135ef8883f51d44f263448a1e722c87be90d5cc9e31",
                        "prev": "0x00000000000000000000000000000000000000000001b0bb47e22438b51ea783"
                    }
                ],
                "storageVariables": [
                    {
                        "name": "_balances",
                        "type": "mapping(address => uint256)",
                        "value": {
                            "pairs": [
                                {
                                    "key": "0x000000000005af2ddc1a93a03e9b7014064d3b8d",
                                    "value": {
                                        "current": "1",
                                        "prev": "2043517041483817823414147",
                                        "typeTag": 1
                                    }
                                },
                                {
                                    "key": "0xd8963d93b96f4af6a300e10afe4b103ec2773063",
                                    "value": {
                                        "current": "69892022301345356861398104",
                                        "prev": "67848505259861539037983958",
                                        "typeTag": 1
                                    }
                                }
                            ],
                            "typeTag": 4
                        }
                    }
                ]
            },
            {
                "address": "0xc02aaa39b223fe8d0a0e5c4f27ead9083c756cc2",
                "erc": "ERC-20",
                "slots": [
                    {
                        "current": "0x0000000000000000000000000000000000000000000000024bf424b08d535294",
                        "key": "0x2b402f3351a867cd701d4467f558174b538c6dcf1b0402cd26ecfc32cc63e4e5",
                        "prev": "0x0000000000000000000000000000000000000000000000020bf5cbfb25f9ebee"
                    },
                    {
                        "current": "0x0000000000000000000000000000000000000000000000000571a62e21183266",
                        "key": "0xfb87146f828470e0dbe209a2958784cf0e0e9099aa26551f87a7badcd7907c15",
                        "prev": "0x00000000000000000000000000000000000000000000000066be873e9c722918"
                    },
                    {
                        "current": "0x0000000000000000000000000000000000000000000000082a7b40530cdeddd3",
                        "key": "0xfcd6d31f9989cbfdad49cb526acea133df26e8c0cdbb6d74ed2e7168c01d0d45",
                        "prev": "0x00000000000000000000000000000000000000000000000801f31b5c6dbecdd3"
                    },
                    {
                        "current": "0x000000000000000000000000000000000000000000000000f09b47d169bb21a2",
                        "key": "0x62a60e7e68ef0c785b8b8434a09460a057f1d3f3f6389e1c23993bd403c24b07",
                        "prev": "0x000000000000000000000000000000000000000000000000f7d4e46cf4daa196"
                    }
                ],
                "storageVariables": [
                    {
                        "name": "balanceOf",
                        "type": "mapping(address => uint256)",
                        "value": {
                            "pairs": [
                                {
                                    "key": "0x000000000005af2ddc1a93a03e9b7014064d3b8d",
                                    "value": {
                                        "current": "42366527935284990612",
                                        "prev": "37755307330664786926",
                                        "typeTag": 1
                                    }
                                },
                                {
                                    "key": "0x641471153f199c0dabe412d42b514f398c279050",
                                    "value": {
                                        "current": "392277359611884134",
                                        "prev": "7403503540426123544",
                                        "typeTag": 1
                                    }
                                },
                                {
                                    "key": "0x75c51e30b684fee4241ce7d8d0784303367d1fe2",
                                    "value": {
                                        "current": "150635063686847192531",
                                        "prev": "147714438686847192531",
                                        "typeTag": 1
                                    }
                                },
                                {
                                    "key": "0xd8963d93b96f4af6a300e10afe4b103ec2773063",
                                    "value": {
                                        "current": "17337530155240464802",
                                        "prev": "17858149579046429078",
                                        "typeTag": 1
                                    }
                                }
                            ],
                            "typeTag": 4
                        }
                    }
                ]
            },
            {
                "address": "0xd8963d93b96f4af6a300e10afe4b103ec2773063",
                "erc": "ERC-20",
                "slots": [
                    {
                        "current": "0x64717103000000000000f09b47d169bb21a200000039d0361ef504f1e387dc58",
                        "key": "0x0000000000000000000000000000000000000000000000000000000000000008",
                        "prev": "0x64717103000000000000f7d4e46cf4daa196000000381f7ad712e0b92e6934d6"
                    }
                ],
                "storageVariables": [
                    {
                        "name": "reserve0",
                        "type": "uint112",
                        "value": {
                            "current": "69892022301345356861398104",
                            "prev": "67848505259861539037983958",
                            "typeTag": 1
                        }
                    },
                    {
                        "name": "reserve1",
                        "type": "uint112",
                        "value": {
                            "current": "17337530155240464802",
                            "prev": "17858149579046429078",
                            "typeTag": 1
                        }
                    },
                    {
                        "name": "blockTimestampLast",
                        "type": "uint32",
                        "value": {
                            "current": "1685156099",
                            "prev": "1685156099",
                            "typeTag": 1
                        }
                    }
                ]
            }
        ]
    }
}