{
    "balance_change": {
        "balanceChanges": []
    },
    "profile": {
        "basic_info": {
            "baseFee": "14.67128895",
            "blockNumber": 15735439,
            "callData": "0xa22cb465000000000000000000000000f849de01b080adc3a814fabe1e2087475cf2e3540000000000000000000000000000000000000000000000000000000000000001",
            "debugEnable": true,
            "errorInfo": "",
            "eventCount": 1,
            "feeRecipient": "0xd1a0b5843f384f92a6759015c742fc12d1d579a1",
            "formatValue": "0",
            "gasLimit": 46213,
            "gasPrice": "16.17128895",
            "gasUsed": 46213,
            "intTxnCount": 0,
            "internalRevert": false,
            "internalRevertMessage": "",
            "isContractCreation": false,
            "isFlashloan": false,
            "maxFee": "23.765686666",
            "nonce": 649,
            "overwritedBlockNumber": -1,
            "priorityFee": "1.5",
            "receiver": "0x2a2ce8ebc5af38a2c0ab7667a24b6db05f285fba",
            "revertMessage": "",
            "sender": "0xf22b63bfaf049c9a91e9933b962131dbddafc838",
            "simulationEnable": true,
            "sourceTxnHash": "0xc71135ac2a8785d859f72b3afa13d983b7b2ec63021be9d66bfef9f14e21b549",
            "status": true,
            "timestamp": "2022-10-12T23:53:47Z",
            "transactionFee": "0.00074732377624635",
            "txnHash": "0xc71135ac2a8785d859f72b3afa13d983b7b2ec63021be9d66bfef9f14e21b549",
            "txnIndex": 182,
            "type": 2,
            "value": "0"
        },
        "fund_flow": [],
        "token_infos": [
            {
                "address": "0xc02aaa39b223fe8d0a0e5c4f27ead9083c756cc2",
                "decimals": 18
            },
            {
                "address": "0xeeeeeeeeeeeeeeeeeeeeeeeeeeeeeeeeeeeeeeee",
                "decimals": 18
            }
        ]
    },
    "address_label": {
        "labels": [
            {
                "address": "0x0000000000000000000000000000000000000002",
                "label": "Precompiled"
            },
            {
                "address": "0x0000000000000000000000000000000000000003",
                "label": "Precompiled"
            },
            {
                "address": "0x0000000000000000000000000000000000000004",
                "label": "Precompiled"
            },
            {
                "address": "0xeeeeeeeeeeeeeeeeeeeeeeeeeeeeeeeeeeeeeeee",
                "label": "Ether"
            },
            {
                "address": "0xf849de01b080adc3a814fabe1e2087475cf2e354",
                "label": "X2Y2: ERC721 Delegate"
            },
            {
                "address": "0x2a2ce8ebc5af38a2c0ab7667a24b6db05f285fba",
                "label": "ThisIsMurica"
            },
            {
                "address": "0x0000000000000000000000000000000000000001",
                "label": "Precompiled"
            }
        ]
    },
    "trace": {
        "accountLabels": null,
        "dataMap": {
            "-1": {
                "invocation": {
                    "address": "0xf22b63bfaf049c9a91e9933b962131dbddafc838",
                    "callData": "",
                    "decodedMethod": null,
                    "errorInfo": "",
                    "fromAddress": "",
                    "gasUsed": 0,
                    "id": -1,
                    "methodDecoded": false,
                    "operation": "",
                    "output": "",
                    "revert": false,
                    "revertMessage": "",
                    "selector": "",
                    "status": false,
                    "value": ""
                },
                "nodeType": 0
            },
            "0": {
                "invocation": {
                    "address": "0x2a2ce8ebc5af38a2c0ab7667a24b6db05f285fba",
                    "callData": "0x000000000000000000000000f849de01b080adc3a814fabe1e2087475cf2e3540000000000000000000000000000000000000000000000000000000000000001",
                    "decodedMethod": {
                        "callParams": [
                            {
                                "name": "operator",
                                "type": "address",
                                "value": "0xf849de01b080adc3a814fabe1e2087475cf2e354"
                            },
                            {
                                "name": "approved",
                                "type": "bool",
                                "value": true
                            }
                        ],
                        "constructorArguments": "",
                        "name": "setApprovalForAll",
                        "returnParams": [],
                        "signature": "setApprovalForAll(address,bool)"
                    },
                    "errorInfo": "",
                    "fromAddress": "0xf22b63bfaf049c9a91e9933b962131dbddafc838",
                    "gasUsed": 46213,
                    "id": 0,
                    "methodDecoded": true,
                    "operation": "CALL",
                    "output": "",
                    "revert": false,
                    "revertMessage": "",
                    "selector": "0xa22cb465",
                    "status": true,
                    "value": "0"
                },
                "nodeType": 0
            },
            "1": {
                "event": {
                    "contract": "0x2a2ce8ebc5af38a2c0ab7667a24b6db05f285fba",
                    "decodedLog": {
                        "name": "ApprovalForAll",
                        "params": [
                            {
                                "name": "owner",
                                "type": "address",
                                "value": "0xf22b63bfaf049c9a91e9933b962131dbddafc838"
                            },
                            {
                                "name": "operator",
                                "type": "address",
                                "value": "0xf849de01b080adc3a814fabe1e2087475cf2e354"
                            },
                            {
                                "name": "approved",
                                "type": "bool",
                                "value": true
                            }
                        ],
                        "signature": "ApprovalForAll(address,address,bool)"
                    },
                    "id": 1,
                    "logData": "0x0000000000000000000000000000000000000000000000000000000000000001",
                    "logDecoded": true,
                    "operation": "EVENT",
                    "revert": false,
                    "status": true,
                    "topics": [
                        "0x17307eab39ab6107e8899845ad3d59bd9653f200f220920489ca2b5937696c31",
                        "0x000000000000000000000000f22b63bfaf049c9a91e9933b962131dbddafc838",
                        "0x000000000000000000000000f849de01b080adc3a814fabe1e2087475cf2e354"
                    ]
                },
                "nodeType": 1
            }
        },
        "gasFlame": [
            {
                "children": [
                    {
                        "children": [
                            {
                                "children": [],
                                "depth": 0,
                                "name": "Initial Gas",
                                "value": 21572
                            },
                            {
                                "children": [],
                                "depth": 0,
                                "name": "Executed Gas",
                                "value": 24641
                            }
                        ],
                        "depth": -1,
                        "name": "Actual Gas Used",
                        "value": 46213
                    },
                    {
                        "children": [],
                        "depth": -1,
                        "name": "Refunded Gas",
                        "value": 0
                    }
                ],
                "depth": -2,
                "name": "Total Gas",
                "value": 46213
            }
        ],
        "isConfirmed": true,
        "mainTrace": [
            {
                "children": [
                    {
                        "children": [
                            {
                                "children": [],
                                "depth": 1,
                                "id": 1,
                                "order": 1
                            }
                        ],
                        "depth": 0,
                        "id": 0,
                        "order": 0
                    }
                ],
                "depth": -1,
                "id": -1,
                "order": -1
            }
        ],
        "mainTraceNodeCount": 2,
        "parentIdMap": {
            "0": -1,
            "1": 0
        },
        "tidyTrace": [
            {
                "children": [
                    {
                        "children": [
                            {
                                "children": [],
                                "depth": 1,
                                "id": 1,
                                "order": 1
                            }
                        ],
                        "depth": 0,
                        "id": 0,
                        "order": 0
                    }
                ],
                "depth": -1,
                "id": -1,
                "order": -1
            }
        ],
        "tidyTraceNodeCount": 2
    },
    "state_change": {
        "stateChanges": [
            {
                "address": "0x2a2ce8ebc5af38a2c0ab7667a24b6db05f285fba",
                "erc": "ERC-721",
                "slots": [
                    {
                        "current": "0x0000000000000000000000000000000000000000000000000000000000000001",
                        "key": "0x28a9e856d0783972e9fad6b0f0b263040327ea8d1c7262d3ac4353516b72811b",
                        "prev": "0x0000000000000000000000000000000000000000000000000000000000000000"
                    }
                ],
                "storageVariables": [
                    {
                        "name": "_operatorApprovals",
                        "type": "mapping(address => mapping(address => bool))",
                        "value": {
                            "pairs": [
                                {
                                    "key": "0xf22b63bfaf049c9a91e9933b962131dbddafc838",
                                    "value": {
                                        "pairs": [
                                            {
                                                "key": "0xf849de01b080adc3a814fabe1e2087475cf2e354",
                                                "value": {
                                                    "current": "true",
                                                    "prev": "false",
                                                    "typeTag": 1
                                                }
                                            }
                                        ],
                                        "typeTag": 4
                                    }
                                }
                            ],
                            "typeTag": 4
                        }
                    }
                ]
            }
        ]
    }
}