{
    "balance_change": {
        "balanceChanges": []
    },
    "profile": {
        "basic_info": {
            "baseFee": "29.579974384",
            "blockNumber": 18948955,
            "callData": "0x095ea7b30000000000000000000000005954ab967bc958940b7eb73ee84797dc8a2afbb900000000000000000000000000000000000000000000000d8d726b7177a80000",
            "debugEnable": true,
            "errorInfo": "",
            "eventCount": 1,
            "feeRecipient": "0x7e2a2fa2a064f693f0a55c5639476d913ff12d05",
            "formatValue": "0",
            "gasLimit": 46263,
            "gasPrice": "29.679974384",
            "gasUsed": 46263,
            "intTxnCount": 0,
            "internalRevert": false,
            "internalRevertMessage": "",
            "isContractCreation": false,
            "isFlashloan": false,
            "maxFee": "41.368171471",
            "nonce": 33,
            "overwritedBlockNumber": -1,
            "priorityFee": "0.1",
            "receiver": "0x4d224452801aced8b2f0aebe155379bb5d594381",
            "revertMessage": "",
            "sender": "0x07625a6fa1604daf7acf7e95029f62debf6a616f",
            "simulationEnable": true,
            "sourceTxnHash": "0xc78d9d37f4110407fe2166a55e3eb2f3d6067b1b4604a3213fc832487ece6580",
            "status": true,
            "timestamp": "2024-01-06T15:09:47Z",
            "transactionFee": "0.001373084654926992",
            "txnHash": "0xc78d9d37f4110407fe2166a55e3eb2f3d6067b1b4604a3213fc832487ece6580",
            "txnIndex": 61,
            "type": 2,
            "value": "0"
        },
        "fund_flow": [],
        "token_infos": [
            {
                "address": "0xc02aaa39b223fe8d0a0e5c4f27ead9083c756cc2",
                "decimals": 18
            },
            {
                "address": "0xeeeeeeeeeeeeeeeeeeeeeeeeeeeeeeeeeeeeeeee",
                "decimals": 18
            }
        ]
    },
    "address_label": {
        "labels": [
            {
                "address": "0x4d224452801aced8b2f0aebe155379bb5d594381",
                "label": "Apecoin: APE Token"
            },
            {
                "address": "0x5954ab967bc958940b7eb73ee84797dc8a2afbb9",
                "label": "ApeCoinStaking"
            },
            {
                "address": "0x0000000000000000000000000000000000000001",
                "label": "Precompiled"
            },
            {
                "address": "0x0000000000000000000000000000000000000002",
                "label": "Precompiled"
            },
            {
                "address": "0x0000000000000000000000000000000000000003",
                "label": "Precompiled"
            },
            {
                "address": "0x0000000000000000000000000000000000000004",
                "label": "Precompiled"
            },
            {
                "address": "0xeeeeeeeeeeeeeeeeeeeeeeeeeeeeeeeeeeeeeeee",
                "label": "Ether"
            }
        ]
    },
    "trace": {
        "accountLabels": null,
        "dataMap": {
            "-1": {
                "invocation": {
                    "address": "0x07625a6fa1604daf7acf7e95029f62debf6a616f",
                    "callData": "",
                    "decodedMethod": null,
                    "errorInfo": "",
                    "fromAddress": "",
                    "gasUsed": 0,
                    "id": -1,
                    "methodDecoded": false,
                    "operation": "",
                    "output": "",
                    "revert": false,
                    "revertMessage": "",
                    "selector": "",
                    "status": false,
                    "value": ""
                },
                "nodeType": 0
            },
            "0": {
                "invocation": {
                    "address": "0x4d224452801aced8b2f0aebe155379bb5d594381",
                    "callData": "0x0000000000000000000000005954ab967bc958940b7eb73ee84797dc8a2afbb900000000000000000000000000000000000000000000000d8d726b7177a80000",
                    "decodedMethod": {
                        "callParams": [
                            {
                                "name": "spender",
                                "type": "address",
                                "value": "0x5954ab967bc958940b7eb73ee84797dc8a2afbb9"
                            },
                            {
                                "decimalAvailable": true,
                                "name": "amount",
                                "type": "uint256",
                                "value": "250,000,000,000,000,000,000"
                            }
                        ],
                        "constructorArguments": "",
                        "name": "approve",
                        "returnParams": [
                            {
                                "name": "",
                                "type": "bool",
                                "value": true
                            }
                        ],
                        "signature": "approve(address,uint256)"
                    },
                    "errorInfo": "",
                    "fromAddress": "0x07625a6fa1604daf7acf7e95029f62debf6a616f",
                    "gasUsed": 46263,
                    "id": 0,
                    "methodDecoded": true,
                    "operation": "CALL",
                    "output": "0x0000000000000000000000000000000000000000000000000000000000000001",
                    "revert": false,
                    "revertMessage": "",
                    "selector": "0x095ea7b3",
                    "status": true,
                    "value": "0"
                },
                "nodeType": 0
            },
            "1": {
                "event": {
                    "contract": "0x4d224452801aced8b2f0aebe155379bb5d594381",
                    "decodedLog": {
                        "name": "Approval",
                        "params": [
                            {
                                "name": "owner",
                                "type": "address",
                                "value": "0x07625a6fa1604daf7acf7e95029f62debf6a616f"
                            },
                            {
                                "name": "spender",
                                "type": "address",
                                "value": "0x5954ab967bc958940b7eb73ee84797dc8a2afbb9"
                            },
                            {
                                "decimalAvailable": true,
                                "name": "value",
                                "type": "uint256",
                                "value": "250,000,000,000,000,000,000"
                            }
                        ],
                        "signature": "Approval(address,address,uint256)"
                    },
                    "id": 1,
                    "logData": "0x00000000000000000000000000000000000000000000000d8d726b7177a80000",
                    "logDecoded": true,
                    "operation": "EVENT",
                    "revert": false,
                    "status": true,
                    "topics": [
                        "0x8c5be1e5ebec7d5bd14f71427d1e84f3dd0314c0f7b2291e5b200ac8c7c3b925",
                        "0x00000000000000000000000007625a6fa1604daf7acf7e95029f62debf6a616f",
                        "0x0000000000000000000000005954ab967bc958940b7eb73ee84797dc8a2afbb9"
                    ]
                },
                "nodeType": 1
            }
        },
        "gasFlame": [
            {
                "children": [
                    {
                        "children": [
                            {
                                "children": [],
                                "depth": 0,
                                "name": "Initial Gas",
                                "value": 21644
                            },
                            {
                                "children": [],
                                "depth": 0,
                                "name": "Executed Gas",
                                "value": 24619
                            }
                        ],
                        "depth": -1,
                        "name": "Actual Gas Used",
                        "value": 46263
                    },
                    {
                        "children": [],
                        "depth": -1,
                        "name": "Refunded Gas",
                        "value": 0
                    }
                ],
                "depth": -2,
                "name": "Total Gas",
                "value": 46263
            }
        ],
        "isConfirmed": true,
        "mainTrace": [
            {
                "children": [
                    {
                        "children": [
                            {
                                "children": [],
                                "depth": 1,
                                "id": 1,
                                "order": 1
                            }
                        ],
                        "depth": 0,
                        "id": 0,
                        "order": 0
                    }
                ],
                "depth": -1,
                "id": -1,
                "order": -1
            }
        ],
        "mainTraceNodeCount": 2,
        "parentIdMap": {
            "0": -1,
            "1": 0
        },
        "tidyTrace": [
            {
                "children": [
                    {
                        "children": [
                            {
                                "children": [],
                                "depth": 1,
                                "id": 1,
                                "order": 1
                            }
                        ],
                        "depth": 0,
                        "id": 0,
                        "order": 0
                    }
                ],
                "depth": -1,
                "id": -1,
                "order": -1
            }
        ],
        "tidyTraceNodeCount": 2
    },
    "state_change": {
        "stateChanges": [
            {
                "address": "0x4d224452801aced8b2f0aebe155379bb5d594381",
                "erc": "ERC-20",
                "slots": [
                    {
                        "current": "0x00000000000000000000000000000000000000000000000d8d726b7177a80000",
                        "key": "0x773b93add5092fd57999e1af51ee694cfd4958468eef1d60813ed4c0f6a7af75",
                        "prev": "0x0000000000000000000000000000000000000000000000000000000000000000"
                    }
                ],
                "storageVariables": [
                    {
                        "name": "_allowances",
                        "type": "mapping(address => mapping(address => uint256))",
                        "value": {
                            "pairs": [
                                {
                                    "key": "0x07625a6fa1604daf7acf7e95029f62debf6a616f",
                                    "value": {
                                        "pairs": [
                                            {
                                                "key": "0x5954ab967bc958940b7eb73ee84797dc8a2afbb9",
                                                "value": {
                                                    "current": "250000000000000000000",
                                                    "prev": "0",
                                                    "typeTag": 1
                                                }
                                            }
                                        ],
                                        "typeTag": 4
                                    }
                                }
                            ],
                            "typeTag": 4
                        }
                    }
                ]
            }
        ]
    }
}