{
    "balance_change": {
        "balanceChanges": [
            {
                "account": "0xd1669ac6044269b59fa12c5822439f609ca54f41",
                "assets": [
                    {
                        "address": "0xccc8cb5229b0ac8069c51fd58367fd1e622afd97",
                        "amount": "674.438667279115883638",
                        "iconUrl": "",
                        "isERC1155": false,
                        "isERC721": false,
                        "sign": false,
                        "value": "178.4940381"
                    }
                ]
            },
            {
                "account": "0x7a1f83f105d90acfcb209d79b107f550eb7b58d0",
                "assets": [
                    {
                        "address": "0xccc8cb5229b0ac8069c51fd58367fd1e622afd97",
                        "amount": "674.438667279115883638",
                        "iconUrl": "",
                        "isERC1155": false,
                        "isERC721": false,
                        "sign": true,
                        "value": "178.4940381"
                    }
                ]
            }
        ]
    },
    "profile": {
        "basic_info": {
            "baseFee": "28.836200244",
            "blockNumber": 15941990,
            "callData": "0x0dcd7a6c0000000000000000000000007a1f83f105d90acfcb209d79b107f550eb7b58d00000000000000000000000000000000000000000000000248fb77a8fa7921476000000000000000000000000ccc8cb5229b0ac8069c51fd58367fd1e622afd9700000000000000000000000000000000000000000000000000000000637698a9000000000000000000000000000000000000000000000000000000000026650e00000000000000000000000000000000000000000000000000000000000000c00000000000000000000000000000000000000000000000000000000000000041b191e7c02091b79b74bc12a50282f6e2a6b5b160df1c6c622dabdf9f6346cce535137ad840f4613e62945b9c454df255b87d48ee0c8e83d1b9ba4c42a3deacb91b00000000000000000000000000000000000000000000000000000000000000",
            "debugEnable": true,
            "errorInfo": "",
            "eventCount": 1,
            "feeRecipient": "0x690b9a9e9aa1c9db991c7721a92d351db4fac990",
            "formatValue": "0",
            "gasLimit": 188700,
            "gasPrice": "30.336200244",
            "gasUsed": 88181,
            "intTxnCount": 2,
            "internalRevert": false,
            "internalRevertMessage": "",
            "isContractCreation": false,
            "isFlashloan": false,
            "maxFee": "54.49266667",
            "nonce": 1919914,
            "overwritedBlockNumber": -1,
            "priorityFee": "1.5",
            "receiver": "0xd1669ac6044269b59fa12c5822439f609ca54f41",
            "revertMessage": "",
            "sender": "0xd2c82f2e5fa236e114a81173e375a73664610998",
            "simulationEnable": true,
            "sourceTxnHash": "0xc7d8dcc40132743e791c4aa3d54301c6f704ce2c259e22245c21ac03b4e22e9a",
            "status": true,
            "timestamp": "2022-11-10T20:25:35Z",
            "transactionFee": "0.002675076473716164",
            "txnHash": "0xc7d8dcc40132743e791c4aa3d54301c6f704ce2c259e22245c21ac03b4e22e9a",
            "txnIndex": 205,
            "type": 2,
            "value": "0"
        },
        "fund_flow": [
            {
                "amount": "674.438667279115883638",
                "from": "0xd1669ac6044269b59fa12c5822439f609ca54f41",
                "id": 1,
                "isERC1155": false,
                "isERC721": false,
                "isReverted": false,
                "order": 1,
                "to": "0x7a1f83f105d90acfcb209d79b107f550eb7b58d0",
                "token": "0xccc8cb5229b0ac8069c51fd58367fd1e622afd97"
            }
        ],
        "token_infos": [
            {
                "address": "0xc02aaa39b223fe8d0a0e5c4f27ead9083c756cc2",
                "decimals": 18
            },
            {
                "address": "0xccc8cb5229b0ac8069c51fd58367fd1e622afd97",
                "decimals": 18
            },
            {
                "address": "0xeeeeeeeeeeeeeeeeeeeeeeeeeeeeeeeeeeeeeeee",
                "decimals": 18
            }
        ]
    },
    "address_label": {
        "labels": [
            {
                "address": "0xccc8cb5229b0ac8069c51fd58367fd1e622afd97",
                "label": "Gods Unchained: GODS Token"
            },
            {
                "address": "0x0000000000000000000000000000000000000002",
                "label": "Precompiled"
            },
            {
                "address": "0x0000000000000000000000000000000000000003",
                "label": "Precompiled"
            },
            {
                "address": "0x0000000000000000000000000000000000000004",
                "label": "Precompiled"
            },
            {
                "address": "0xeeeeeeeeeeeeeeeeeeeeeeeeeeeeeeeeeeeeeeee",
                "label": "Ether"
            },
            {
                "address": "0xd2c82f2e5fa236e114a81173e375a73664610998",
                "label": "CoinList 3"
            },
            {
                "address": "0x0000000000000000000000000000000000000001",
                "label": "Precompiled"
            },
            {
                "address": "0xd1669ac6044269b59fa12c5822439f609ca54f41",
                "label": "CoinList 1"
            },
            {
                "address": "0x7a1f83f105d90acfcb209d79b107f550eb7b58d0",
                "label": "HUOBI"
            }
        ]
    },
    "trace": {
        "accountLabels": null,
        "dataMap": {
            "-1": {
                "invocation": {
                    "address": "0xd2c82f2e5fa236e114a81173e375a73664610998",
                    "callData": "",
                    "decodedMethod": null,
                    "errorInfo": "",
                    "fromAddress": "",
                    "gasUsed": 0,
                    "id": -1,
                    "methodDecoded": false,
                    "operation": "",
                    "output": "",
                    "revert": false,
                    "revertMessage": "",
                    "selector": "",
                    "status": false,
                    "value": ""
                },
                "nodeType": 0
            },
            "0": {
                "invocation": {
                    "address": "0xd1669ac6044269b59fa12c5822439f609ca54f41",
                    "callData": "0x0000000000000000000000007a1f83f105d90acfcb209d79b107f550eb7b58d00000000000000000000000000000000000000000000000248fb77a8fa7921476000000000000000000000000ccc8cb5229b0ac8069c51fd58367fd1e622afd9700000000000000000000000000000000000000000000000000000000637698a9000000000000000000000000000000000000000000000000000000000026650e00000000000000000000000000000000000000000000000000000000000000c00000000000000000000000000000000000000000000000000000000000000041b191e7c02091b79b74bc12a50282f6e2a6b5b160df1c6c622dabdf9f6346cce535137ad840f4613e62945b9c454df255b87d48ee0c8e83d1b9ba4c42a3deacb91b00000000000000000000000000000000000000000000000000000000000000",
                    "decodedMethod": {
                        "callParams": [
                            {
                                "name": "toAddress",
                                "type": "address",
                                "value": "0x7a1f83f105d90acfcb209d79b107f550eb7b58d0"
                            },
                            {
                                "name": "value",
                                "type": "uint256",
                                "value": "674,438,667,279,115,883,638"
                            },
                            {
                                "name": "tokenContractAddress",
                                "type": "address",
                                "value": "0xccc8cb5229b0ac8069c51fd58367fd1e622afd97"
                            },
                            {
                                "name": "expireTime",
                                "type": "uint256",
                                "value": "1,668,716,713"
                            },
                            {
                                "name": "sequenceId",
                                "type": "uint256",
                                "value": "2,516,238"
                            },
                            {
                                "name": "signature",
                                "type": "bytes",
                                "value": "0xb191e7c02091b79b74bc12a50282f6e2a6b5b160df1c6c622dabdf9f6346cce535137ad840f4613e62945b9c454df255b87d48ee0c8e83d1b9ba4c42a3deacb91b"
                            }
                        ],
                        "constructorArguments": "",
                        "name": "sendMultiSigToken",
                        "returnParams": [],
                        "signature": "sendMultiSigToken(address,uint256,address,uint256,uint256,bytes)"
                    },
                    "errorInfo": "",
                    "fromAddress": "0xd2c82f2e5fa236e114a81173e375a73664610998",
                    "gasUsed": 88181,
                    "id": 0,
                    "methodDecoded": true,
                    "operation": "CALL",
                    "output": "",
                    "revert": false,
                    "revertMessage": "",
                    "selector": "0x0dcd7a6c",
                    "status": true,
                    "value": "0"
                },
                "nodeType": 0
            },
            "1": {
                "invocation": {
                    "address": "0x0000000000000000000000000000000000000001",
                    "callData": "0xb49e978045da83f8ae6d14245aa911cf98f7bb9727df50d7ad31f53a000000000000000000000000000000000000000000000000000000000000001bb191e7c02091b79b74bc12a50282f6e2a6b5b160df1c6c622dabdf9f6346cce535137ad840f4613e62945b9c454df255b87d48ee0c8e83d1b9ba4c42a3deacb9",
                    "decodedMethod": {
                        "callParams": [
                            {
                                "name": "hash",
                                "type": "bytes32",
                                "value": "0xb617c566b49e978045da83f8ae6d14245aa911cf98f7bb9727df50d7ad31f53a"
                            },
                            {
                                "name": "v",
                                "type": "uint256",
                                "value": "27"
                            },
                            {
                                "name": "r",
                                "type": "bytes32",
                                "value": "0xb191e7c02091b79b74bc12a50282f6e2a6b5b160df1c6c622dabdf9f6346cce5"
                            },
                            {
                                "name": "s",
                                "type": "bytes32",
                                "value": "0x35137ad840f4613e62945b9c454df255b87d48ee0c8e83d1b9ba4c42a3deacb9"
                            }
                        ],
                        "constructorArguments": "",
                        "name": "ecrecover",
                        "returnParams": [
                            {
                                "name": "",
                                "type": "address",
                                "value": "0xb067fee58723af1d5fc03e63ae8c278717f2c83d"
                            }
                        ],
                        "signature": "ecrecover(bytes32,uint256,bytes32,bytes32)"
                    },
                    "errorInfo": "",
                    "fromAddress": "0xd1669ac6044269b59fa12c5822439f609ca54f41",
                    "gasUsed": 3000,
                    "id": 1,
                    "methodDecoded": true,
                    "operation": "CALL",
                    "output": "0x000000000000000000000000b067fee58723af1d5fc03e63ae8c278717f2c83d",
                    "revert": false,
                    "revertMessage": "",
                    "selector": "0xb617c566",
                    "status": true,
                    "value": "0"
                },
                "nodeType": 0
            },
            "2": {
                "invocation": {
                    "address": "0xccc8cb5229b0ac8069c51fd58367fd1e622afd97",
                    "callData": "0x0000000000000000000000007a1f83f105d90acfcb209d79b107f550eb7b58d00000000000000000000000000000000000000000000000248fb77a8fa7921476",
                    "decodedMethod": {
                        "callParams": [
                            {
                                "name": "recipient",
                                "type": "address",
                                "value": "0x7a1f83f105d90acfcb209d79b107f550eb7b58d0"
                            },
                            {
                                "decimalAvailable": true,
                                "name": "amount",
                                "type": "uint256",
                                "value": "674,438,667,279,115,883,638"
                            }
                        ],
                        "constructorArguments": "",
                        "name": "transfer",
                        "returnParams": [
                            {
                                "name": "",
                                "type": "bool",
                                "value": true
                            }
                        ],
                        "signature": "transfer(address,uint256)"
                    },
                    "errorInfo": "",
                    "fromAddress": "0xd1669ac6044269b59fa12c5822439f609ca54f41",
                    "gasUsed": 13769,
                    "id": 2,
                    "methodDecoded": true,
                    "operation": "CALL",
                    "output": "0x0000000000000000000000000000000000000000000000000000000000000001",
                    "revert": false,
                    "revertMessage": "",
                    "selector": "0xa9059cbb",
                    "status": true,
                    "value": "0"
                },
                "nodeType": 0
            },
            "3": {
                "event": {
                    "contract": "0xccc8cb5229b0ac8069c51fd58367fd1e622afd97",
                    "decodedLog": {
                        "name": "Transfer",
                        "params": [
                            {
                                "name": "from",
                                "type": "address",
                                "value": "0xd1669ac6044269b59fa12c5822439f609ca54f41"
                            },
                            {
                                "name": "to",
                                "type": "address",
                                "value": "0x7a1f83f105d90acfcb209d79b107f550eb7b58d0"
                            },
                            {
                                "decimalAvailable": true,
                                "name": "value",
                                "type": "uint256",
                                "value": "674,438,667,279,115,883,638"
                            }
                        ],
                        "signature": "Transfer(address,address,uint256)"
                    },
                    "id": 3,
                    "logData": "0x0000000000000000000000000000000000000000000000248fb77a8fa7921476",
                    "logDecoded": true,
                    "operation": "EVENT",
                    "revert": false,
                    "status": true,
                    "topics": [
                        "0xddf252ad1be2c89b69c2b068fc378daa952ba7f163c4a11628f55a4df523b3ef",
                        "0x000000000000000000000000d1669ac6044269b59fa12c5822439f609ca54f41",
                        "0x0000000000000000000000007a1f83f105d90acfcb209d79b107f550eb7b58d0"
                    ]
                },
                "nodeType": 1
            }
        },
        "gasFlame": [
            {
                "children": [
                    {
                        "children": [
                            {
                                "children": [],
                                "depth": 0,
                                "name": "Initial Gas",
                                "value": 23820
                            },
                            {
                                "children": [
                                    {
                                        "children": [],
                                        "depth": 1,
                                        "name": "ecrecover",
                                        "value": 3000
                                    },
                                    {
                                        "children": [],
                                        "depth": 1,
                                        "name": "transfer",
                                        "value": 13769
                                    }
                                ],
                                "depth": 0,
                                "name": "Executed Gas",
                                "value": 64361
                            }
                        ],
                        "depth": -1,
                        "name": "Actual Gas Used",
                        "value": 88181
                    },
                    {
                        "children": [],
                        "depth": -1,
                        "name": "Refunded Gas",
                        "value": 0
                    }
                ],
                "depth": -2,
                "name": "Total Gas",
                "value": 88181
            }
        ],
        "isConfirmed": true,
        "mainTrace": [
            {
                "children": [
                    {
                        "children": [
                            {
                                "children": [],
                                "depth": 1,
                                "id": 1,
                                "order": 1
                            },
                            {
                                "children": [
                                    {
                                        "children": [],
                                        "depth": 2,
                                        "id": 3,
                                        "order": 3
                                    }
                                ],
                                "depth": 1,
                                "id": 2,
                                "order": 2
                            }
                        ],
                        "depth": 0,
                        "id": 0,
                        "order": 0
                    }
                ],
                "depth": -1,
                "id": -1,
                "order": -1
            }
        ],
        "mainTraceNodeCount": 4,
        "parentIdMap": {
            "0": -1,
            "1": 0,
            "2": 0,
            "3": 2
        },
        "tidyTrace": [
            {
                "children": [
                    {
                        "children": [
                            {
                                "children": [],
                                "depth": 1,
                                "id": 1,
                                "order": 1
                            },
                            {
                                "children": [
                                    {
                                        "children": [],
                                        "depth": 2,
                                        "id": 3,
                                        "order": 3
                                    }
                                ],
                                "depth": 1,
                                "id": 2,
                                "order": 2
                            }
                        ],
                        "depth": 0,
                        "id": 0,
                        "order": 0
                    }
                ],
                "depth": -1,
                "id": -1,
                "order": -1
            }
        ],
        "tidyTraceNodeCount": 4
    },
    "state_change": {
        "stateChanges": [
            {
                "address": "0xccc8cb5229b0ac8069c51fd58367fd1e622afd97",
                "erc": "ERC-20",
                "slots": [
                    {
                        "current": "0x000000000000000000000000000000000000000000011688a3bbb5157abae8ec",
                        "key": "0x94352d7b9410c74d4c744b9bc8623cf8436cc17a590059f089f5b816127abb42",
                        "prev": "0x0000000000000000000000000000000000000000000116ad33732fa5224cfd62"
                    },
                    {
                        "current": "0x0000000000000000000000000000000000000000000000248fb77a8ffca9daa3",
                        "key": "0x3ee0e4394f1b2981bde7709006c3b131dc7b9271c81a8a477d229999acac2535",
                        "prev": "0x000000000000000000000000000000000000000000000000000000005517c62d"
                    }
                ],
                "storageVariables": [
                    {
                        "name": "_balances",
                        "type": "mapping(address => uint256)",
                        "value": {
                            "pairs": [
                                {
                                    "key": "0x7a1f83f105d90acfcb209d79b107f550eb7b58d0",
                                    "value": {
                                        "current": "674438667280543505059",
                                        "prev": "1427621421",
                                        "typeTag": 1
                                    }
                                },
                                {
                                    "key": "0xd1669ac6044269b59fa12c5822439f609ca54f41",
                                    "value": {
                                        "current": "1315338437654538553583852",
                                        "prev": "1316012876321817669467490",
                                        "typeTag": 1
                                    }
                                }
                            ],
                            "typeTag": 4
                        }
                    }
                ]
            },
            {
                "address": "0xd1669ac6044269b59fa12c5822439f609ca54f41",
                "erc": "",
                "slots": [
                    {
                        "current": "0x000000000000000000000000000000000000000000000000000000000026650e",
                        "key": "0x000000000000000000000000000000000000000000000000000000000000000b",
                        "prev": "0x00000000000000000000000000000000000000000000000000000000002664d0"
                    }
                ],
                "storageVariables": []
            }
        ]
    }
}