{
    "balance_change": {
        "balanceChanges": [
            {
                "account": "0x0000000000000000000000000000000000000000",
                "assets": [
                    {
                        "address": "0xab5a32dd899a404a7d9fb34caa40a22aa73fb75c",
                        "amount": "1",
                        "iconUrl": "",
                        "isERC1155": true,
                        "isERC721": false,
                        "sign": false,
                        "tokenID": "3",
                        "value": ""
                    }
                ]
            },
            {
                "account": "0xbd0282ff7b18237baf5fe69d1689a1ff15fe3b71",
                "assets": [
                    {
                        "address": "0xab5a32dd899a404a7d9fb34caa40a22aa73fb75c",
                        "amount": "1",
                        "iconUrl": "",
                        "isERC1155": true,
                        "isERC721": false,
                        "sign": true,
                        "tokenID": "3",
                        "value": ""
                    }
                ]
            }
        ]
    },
    "profile": {
        "basic_info": {
            "baseFee": "11.523697592",
            "blockNumber": 16255807,
            "callData": "0xfa2b068f000000000000000000000000ab5a32dd899a404a7d9fb34caa40a22aa73fb75c0000000000000000000000000000000000000000000000000000000073d3c8f0000000000000000000000000000000000000000000000000000000000000000000000000000000000000000000000000000000000000000000000000000000a0000000000000000000000000bd0282ff7b18237baf5fe69d1689a1ff15fe3b710000000000000000000000000000000000000000000000000000000000000000",
            "debugEnable": true,
            "errorInfo": "",
            "eventCount": 2,
            "feeRecipient": "0x95222290dd7278aa3ddd389cc1e1d165cc4bafe5",
            "formatValue": "0",
            "gasLimit": 133764,
            "gasPrice": "13.023697592",
            "gasUsed": 125988,
            "intTxnCount": 3,
            "internalRevert": false,
            "internalRevertMessage": "",
            "isContractCreation": false,
            "isFlashloan": false,
            "maxFee": "17.466440145",
            "nonce": 107,
            "overwritedBlockNumber": -1,
            "priorityFee": "1.5",
            "receiver": "0x44e94034afce2dd3cd5eb62528f239686fc8f162",
            "revertMessage": "",
            "sender": "0xbd0282ff7b18237baf5fe69d1689a1ff15fe3b71",
            "simulationEnable": true,
            "sourceTxnHash": "0xc84c5b767b2790a2f822f54866ca536bf07eeabbd9d5e9b6f519a32052007659",
            "status": true,
            "timestamp": "2022-12-24T16:32:11Z",
            "transactionFee": "0.001640829612220896",
            "txnHash": "0xc84c5b767b2790a2f822f54866ca536bf07eeabbd9d5e9b6f519a32052007659",
            "txnIndex": 111,
            "type": 2,
            "value": "0"
        },
        "fund_flow": [
            {
                "amount": "1",
                "from": "0x0000000000000000000000000000000000000000",
                "id": 1,
                "isERC1155": true,
                "isERC721": false,
                "isReverted": false,
                "order": 1,
                "to": "0xbd0282ff7b18237baf5fe69d1689a1ff15fe3b71",
                "token": "0xab5a32dd899a404a7d9fb34caa40a22aa73fb75c",
                "tokenID": "3"
            }
        ],
        "token_infos": [
            {
                "address": "0xeeeeeeeeeeeeeeeeeeeeeeeeeeeeeeeeeeeeeeee",
                "decimals": 18
            },
            {
                "address": "0xc02aaa39b223fe8d0a0e5c4f27ead9083c756cc2",
                "decimals": 18
            }
        ]
    },
    "address_label": {
        "labels": [
            {
                "address": "0xab5a32dd899a404a7d9fb34caa40a22aa73fb75c",
                "label": "UMIQ"
            },
            {
                "address": "0x0000000000000000000000000000000000000001",
                "label": "Precompiled"
            },
            {
                "address": "0x0000000000000000000000000000000000000002",
                "label": "Precompiled"
            },
            {
                "address": "0x0000000000000000000000000000000000000003",
                "label": "Precompiled"
            },
            {
                "address": "0x0000000000000000000000000000000000000004",
                "label": "Precompiled"
            },
            {
                "address": "0xeeeeeeeeeeeeeeeeeeeeeeeeeeeeeeeeeeeeeeee",
                "label": "Ether"
            },
            {
                "address": "0x44e94034afce2dd3cd5eb62528f239686fc8f162",
                "label": "Manifold: Lazy Claim"
            },
            {
                "address": "0x6bf5ed59de0e19999d264746843ff931c0133090",
                "label": "Manifold ERC1155 Creator (M1155)"
            }
        ]
    },
    "trace": {
        "accountLabels": null,
        "dataMap": {
            "-1": {
                "invocation": {
                    "address": "0xbd0282ff7b18237baf5fe69d1689a1ff15fe3b71",
                    "callData": "",
                    "decodedMethod": null,
                    "errorInfo": "",
                    "fromAddress": "",
                    "gasUsed": 0,
                    "id": -1,
                    "methodDecoded": false,
                    "operation": "",
                    "output": "",
                    "revert": false,
                    "revertMessage": "",
                    "selector": "",
                    "status": false,
                    "value": ""
                },
                "nodeType": 0
            },
            "0": {
                "invocation": {
                    "address": "0x44e94034afce2dd3cd5eb62528f239686fc8f162",
                    "callData": "0x000000000000000000000000ab5a32dd899a404a7d9fb34caa40a22aa73fb75c0000000000000000000000000000000000000000000000000000000073d3c8f0000000000000000000000000000000000000000000000000000000000000000000000000000000000000000000000000000000000000000000000000000000a0000000000000000000000000bd0282ff7b18237baf5fe69d1689a1ff15fe3b710000000000000000000000000000000000000000000000000000000000000000",
                    "decodedMethod": {
                        "callParams": [
                            {
                                "name": "creatorContractAddress",
                                "type": "address",
                                "value": "0xab5a32dd899a404a7d9fb34caa40a22aa73fb75c"
                            },
                            {
                                "name": "claimIndex",
                                "type": "uint256",
                                "value": "1,943,259,376"
                            },
                            {
                                "name": "mintIndex",
                                "type": "uint32",
                                "value": "0"
                            },
                            {
                                "name": "merkleProof",
                                "type": "bytes32[]",
                                "value": []
                            },
                            {
                                "name": "mintFor",
                                "type": "address",
                                "value": "0xbd0282ff7b18237baf5fe69d1689a1ff15fe3b71"
                            }
                        ],
                        "constructorArguments": "",
                        "name": "mint",
                        "returnParams": [],
                        "signature": "mint(address,uint256,uint32,bytes32[],address)"
                    },
                    "errorInfo": "",
                    "fromAddress": "0xbd0282ff7b18237baf5fe69d1689a1ff15fe3b71",
                    "gasUsed": 125988,
                    "id": 0,
                    "methodDecoded": true,
                    "operation": "CALL",
                    "output": "",
                    "revert": false,
                    "revertMessage": "",
                    "selector": "0xfa2b068f",
                    "status": true,
                    "value": "0"
                },
                "nodeType": 0
            },
            "1": {
                "invocation": {
                    "address": "0xab5a32dd899a404a7d9fb34caa40a22aa73fb75c",
                    "callData": "0x000000000000000000000000000000000000000000000000000000000000006000000000000000000000000000000000000000000000000000000000000000a000000000000000000000000000000000000000000000000000000000000000e00000000000000000000000000000000000000000000000000000000000000001000000000000000000000000bd0282ff7b18237baf5fe69d1689a1ff15fe3b710000000000000000000000000000000000000000000000000000000000000001000000000000000000000000000000000000000000000000000000000000000300000000000000000000000000000000000000000000000000000000000000010000000000000000000000000000000000000000000000000000000000000001",
                    "decodedMethod": {
                        "callParams": [
                            {
                                "name": "to",
                                "type": "address[]",
                                "value": [
                                    "0xbd0282ff7b18237baf5fe69d1689a1ff15fe3b71"
                                ]
                            },
                            {
                                "name": "tokenIds",
                                "type": "uint256[]",
                                "value": [
                                    "3"
                                ]
                            },
                            {
                                "name": "amounts",
                                "type": "uint256[]",
                                "value": [
                                    "1"
                                ]
                            }
                        ],
                        "constructorArguments": "",
                        "name": "mintExtensionExisting",
                        "returnParams": [],
                        "signature": "mintExtensionExisting(address[],uint256[],uint256[])"
                    },
                    "errorInfo": "",
                    "fromAddress": "0x44e94034afce2dd3cd5eb62528f239686fc8f162",
                    "gasUsed": 54988,
                    "id": 1,
                    "methodDecoded": true,
                    "operation": "CALL",
                    "output": "",
                    "revert": false,
                    "revertMessage": "",
                    "selector": "0xe6c884dc",
                    "status": true,
                    "value": "0"
                },
                "nodeType": 0
            },
            "2": {
                "invocation": {
                    "address": "0x6bf5ed59de0e19999d264746843ff931c0133090",
                    "callData": "0x000000000000000000000000000000000000000000000000000000000000006000000000000000000000000000000000000000000000000000000000000000a000000000000000000000000000000000000000000000000000000000000000e00000000000000000000000000000000000000000000000000000000000000001000000000000000000000000bd0282ff7b18237baf5fe69d1689a1ff15fe3b710000000000000000000000000000000000000000000000000000000000000001000000000000000000000000000000000000000000000000000000000000000300000000000000000000000000000000000000000000000000000000000000010000000000000000000000000000000000000000000000000000000000000001",
                    "decodedMethod": {
                        "callParams": [
                            {
                                "name": "to",
                                "type": "address[]",
                                "value": [
                                    "0xbd0282ff7b18237baf5fe69d1689a1ff15fe3b71"
                                ]
                            },
                            {
                                "name": "tokenIds",
                                "type": "uint256[]",
                                "value": [
                                    "3"
                                ]
                            },
                            {
                                "name": "amounts",
                                "type": "uint256[]",
                                "value": [
                                    "1"
                                ]
                            }
                        ],
                        "constructorArguments": "",
                        "name": "mintExtensionExisting",
                        "returnParams": [],
                        "signature": "mintExtensionExisting(address[],uint256[],uint256[])"
                    },
                    "errorInfo": "",
                    "fromAddress": "0xab5a32dd899a404a7d9fb34caa40a22aa73fb75c",
                    "gasUsed": 50021,
                    "id": 2,
                    "methodDecoded": true,
                    "operation": "DELEGATECALL",
                    "output": "",
                    "revert": false,
                    "revertMessage": "",
                    "selector": "0xe6c884dc",
                    "status": true,
                    "value": "0"
                },
                "nodeType": 0
            },
            "3": {
                "event": {
                    "contract": "0xab5a32dd899a404a7d9fb34caa40a22aa73fb75c",
                    "decodedLog": {
                        "name": "TransferSingle",
                        "params": [
                            {
                                "name": "operator",
                                "type": "address",
                                "value": "0x44e94034afce2dd3cd5eb62528f239686fc8f162"
                            },
                            {
                                "name": "from",
                                "type": "address",
                                "value": "0x0000000000000000000000000000000000000000"
                            },
                            {
                                "name": "to",
                                "type": "address",
                                "value": "0xbd0282ff7b18237baf5fe69d1689a1ff15fe3b71"
                            },
                            {
                                "name": "id",
                                "type": "uint256",
                                "value": "3"
                            },
                            {
                                "name": "value",
                                "type": "uint256",
                                "value": "1"
                            }
                        ],
                        "signature": "TransferSingle(address,address,address,uint256,uint256)"
                    },
                    "id": 3,
                    "logData": "0x00000000000000000000000000000000000000000000000000000000000000030000000000000000000000000000000000000000000000000000000000000001",
                    "logDecoded": true,
                    "operation": "EVENT",
                    "revert": false,
                    "status": true,
                    "topics": [
                        "0xc3d58168c5ae7397731d063d5bbf3d657854427343f4c083240f7aacaa2d0f62",
                        "0x00000000000000000000000044e94034afce2dd3cd5eb62528f239686fc8f162",
                        "0x0000000000000000000000000000000000000000000000000000000000000000",
                        "0x000000000000000000000000bd0282ff7b18237baf5fe69d1689a1ff15fe3b71"
                    ]
                },
                "nodeType": 1
            },
            "4": {
                "invocation": {
                    "address": "0xe27bb8726e762c09c4c322df90e75b2fca51b642",
                    "callData": "0x",
                    "decodedMethod": null,
                    "errorInfo": "",
                    "fromAddress": "0x44e94034afce2dd3cd5eb62528f239686fc8f162",
                    "gasUsed": 0,
                    "id": 4,
                    "methodDecoded": false,
                    "operation": "CALL",
                    "output": "",
                    "revert": false,
                    "revertMessage": "",
                    "selector": "fallback",
                    "status": true,
                    "value": "0"
                },
                "nodeType": 0
            },
            "5": {
                "event": {
                    "contract": "0x44e94034afce2dd3cd5eb62528f239686fc8f162",
                    "decodedLog": {
                        "name": "ClaimMint",
                        "params": [
                            {
                                "name": "creatorContract",
                                "type": "address",
                                "value": "0xab5a32dd899a404a7d9fb34caa40a22aa73fb75c"
                            },
                            {
                                "name": "claimIndex",
                                "type": "uint256",
                                "value": "0"
                            }
                        ],
                        "signature": "ClaimMint(address,uint256)"
                    },
                    "id": 5,
                    "logData": "0x",
                    "logDecoded": true,
                    "operation": "EVENT",
                    "revert": false,
                    "status": true,
                    "topics": [
                        "0x5d404f369772cfab2b65717fca9bc2077efeab89a0dbec036bf0c13783154eb1",
                        "0x000000000000000000000000ab5a32dd899a404a7d9fb34caa40a22aa73fb75c",
                        "0x0000000000000000000000000000000000000000000000000000000000000000"
                    ]
                },
                "nodeType": 1
            }
        },
        "gasFlame": [
            {
                "children": [
                    {
                        "children": [
                            {
                                "children": [],
                                "depth": 0,
                                "name": "Initial Gas",
                                "value": 22372
                            },
                            {
                                "children": [
                                    {
                                        "children": [
                                            {
                                                "children": [],
                                                "depth": 2,
                                                "name": "mintExtensionExisting",
                                                "value": 50021
                                            }
                                        ],
                                        "depth": 1,
                                        "name": "mintExtensionExisting",
                                        "value": 54988
                                    },
                                    {
                                        "children": [],
                                        "depth": 1,
                                        "name": "fallback",
                                        "value": 0
                                    }
                                ],
                                "depth": 0,
                                "name": "Executed Gas",
                                "value": 109216
                            }
                        ],
                        "depth": -1,
                        "name": "Actual Gas Used",
                        "value": 125988
                    },
                    {
                        "children": [],
                        "depth": -1,
                        "name": "Refunded Gas",
                        "value": 5600
                    }
                ],
                "depth": -2,
                "name": "Total Gas",
                "value": 131588
            }
        ],
        "isConfirmed": true,
        "mainTrace": [
            {
                "children": [
                    {
                        "children": [
                            {
                                "children": [
                                    {
                                        "children": [
                                            {
                                                "children": [],
                                                "depth": 3,
                                                "id": 3,
                                                "order": 3
                                            }
                                        ],
                                        "depth": 2,
                                        "id": 2,
                                        "order": 2
                                    }
                                ],
                                "depth": 1,
                                "id": 1,
                                "order": 1
                            },
                            {
                                "children": [],
                                "depth": 1,
                                "id": 4,
                                "order": 4
                            },
                            {
                                "children": [],
                                "depth": 1,
                                "id": 5,
                                "order": 5
                            }
                        ],
                        "depth": 0,
                        "id": 0,
                        "order": 0
                    }
                ],
                "depth": -1,
                "id": -1,
                "order": -1
            }
        ],
        "mainTraceNodeCount": 6,
        "parentIdMap": {
            "0": -1,
            "1": 0,
            "2": 1,
            "3": 2,
            "4": 0,
            "5": 0
        },
        "tidyTrace": [
            {
                "children": [
                    {
                        "children": [
                            {
                                "children": [
                                    {
                                        "children": [
                                            {
                                                "children": [],
                                                "depth": 3,
                                                "id": 3,
                                                "order": 3
                                            }
                                        ],
                                        "depth": 2,
                                        "id": 2,
                                        "order": 2
                                    }
                                ],
                                "depth": 1,
                                "id": 1,
                                "order": 1
                            },
                            {
                                "children": [],
                                "depth": 1,
                                "id": 4,
                                "order": 4
                            },
                            {
                                "children": [],
                                "depth": 1,
                                "id": 5,
                                "order": 5
                            }
                        ],
                        "depth": 0,
                        "id": 0,
                        "order": 0
                    }
                ],
                "depth": -1,
                "id": -1,
                "order": -1
            }
        ],
        "tidyTraceNodeCount": 6
    },
    "state_change": {
        "stateChanges": [
            {
                "address": "0x44e94034afce2dd3cd5eb62528f239686fc8f162",
                "erc": "",
                "slots": [
                    {
                        "current": "0x0000000000000000000000000000000000000000000000000000000000000001",
                        "key": "0xdbd05a236fc70fcd3f3e92c85ffc88cdf94c758acc48a8585ab7f401982bd9ce",
                        "prev": "0x0000000000000000000000000000000000000000000000000000000000000000"
                    },
                    {
                        "current": "0x0000000000000002000063a86570000000000000000000010000000000000018",
                        "key": "0xdb2ffd28aadbafddc75c37453163e6bd7a1aea57592fd76ebd6c2fad008c0fd4",
                        "prev": "0x0000000000000002000063a86570000000000000000000010000000000000017"
                    }
                ],
                "storageVariables": [
                    {
                        "name": "_mintsPerWallet",
                        "type": "mapping(address => mapping(uint256 => mapping(address => uint256)))",
                        "value": {
                            "pairs": [
                                {
                                    "key": "0xab5a32dd899a404a7d9fb34caa40a22aa73fb75c",
                                    "value": {
                                        "pairs": [
                                            {
                                                "key": "1943259376",
                                                "value": {
                                                    "pairs": [
                                                        {
                                                            "key": "0xbd0282ff7b18237baf5fe69d1689a1ff15fe3b71",
                                                            "value": {
                                                                "current": "1",
                                                                "prev": "0",
                                                                "typeTag": 1
                                                            }
                                                        }
                                                    ],
                                                    "typeTag": 4
                                                }
                                            }
                                        ],
                                        "typeTag": 4
                                    }
                                }
                            ],
                            "typeTag": 4
                        }
                    },
                    {
                        "name": "_claims",
                        "type": "mapping(address => mapping(uint256 => struct IERC1155LazyPayableClaim.Claim))",
                        "value": {
                            "pairs": [
                                {
                                    "key": "0xab5a32dd899a404a7d9fb34caa40a22aa73fb75c",
                                    "value": {
                                        "pairs": [
                                            {
                                                "key": "1943259376",
                                                "value": {
                                                    "fields": [
                                                        {
                                                            "name": "total",
                                                            "type": "uint32",
                                                            "value": {
                                                                "current": "24",
                                                                "prev": "23",
                                                                "typeTag": 1
                                                            }
                                                        },
                                                        {
                                                            "name": "totalMax",
                                                            "type": "uint32",
                                                            "value": {
                                                                "current": "0",
                                                                "prev": "0",
                                                                "typeTag": 1
                                                            }
                                                        },
                                                        {
                                                            "name": "walletMax",
                                                            "type": "uint32",
                                                            "value": {
                                                                "current": "1",
                                                                "prev": "1",
                                                                "typeTag": 1
                                                            }
                                                        },
                                                        {
                                                            "name": "startDate",
                                                            "type": "uint48",
                                                            "value": {
                                                                "current": "0",
                                                                "prev": "0",
                                                                "typeTag": 1
                                                            }
                                                        },
                                                        {
                                                            "name": "endDate",
                                                            "type": "uint48",
                                                            "value": {
                                                                "current": "1671980400",
                                                                "prev": "1671980400",
                                                                "typeTag": 1
                                                            }
                                                        },
                                                        {
                                                            "name": "storageProtocol",
                                                            "type": "enum IERC1155LazyPayableClaim.StorageProtocol",
                                                            "value": {
                                                                "current": "2",
                                                                "prev": "2",
                                                                "typeTag": 1
                                                            }
                                                        },
                                                        {
                                                            "name": "location",
                                                            "type": "string",
                                                            "value": {
                                                                "current": "grLOEUKD3kHKM7UyjyZqvnhNqj9LB-ZpQuwaBwG1j9c",
                                                                "prev": "grLOEUKD3kHKM7UyjyZqvnhNqj9LB-ZpQuwaBwG1j9c",
                                                                "typeTag": 1
                                                            }
                                                        }
                                                    ],
                                                    "typeTag": 3
                                                }
                                            }
                                        ],
                                        "typeTag": 4
                                    }
                                }
                            ],
                            "typeTag": 4
                        }
                    }
                ]
            },
            {
                "address": "0xab5a32dd899a404a7d9fb34caa40a22aa73fb75c",
                "erc": "ERC-1155",
                "slots": [
                    {
                        "current": "0x0000000000000000000000000000000000000000000000000000000000000001",
                        "key": "0x83109cf22e5812281f1bb8b89e53bfd17af9307d94736eb4dd31c4001b4478f1",
                        "prev": "0x0000000000000000000000000000000000000000000000000000000000000000"
                    },
                    {
                        "current": "0x0000000000000000000000000000000000000000000000000000000000000018",
                        "key": "0x40c033d3f3bb942d5588baa100acb5603ebf5d4c6286a5ee5d58d5c885a31af7",
                        "prev": "0x0000000000000000000000000000000000000000000000000000000000000017"
                    }
                ],
                "storageVariables": [
                    {
                        "name": "_balances",
                        "type": "mapping(uint256 => mapping(address => uint256))",
                        "value": {
                            "pairs": [
                                {
                                    "key": "3",
                                    "value": {
                                        "pairs": [
                                            {
                                                "key": "0xbd0282ff7b18237baf5fe69d1689a1ff15fe3b71",
                                                "value": {
                                                    "current": "1",
                                                    "prev": "0",
                                                    "typeTag": 1
                                                }
                                            }
                                        ],
                                        "typeTag": 4
                                    }
                                }
                            ],
                            "typeTag": 4
                        }
                    },
                    {
                        "name": "_totalSupply",
                        "type": "mapping(uint256 => uint256)",
                        "value": {
                            "pairs": [
                                {
                                    "key": "3",
                                    "value": {
                                        "current": "24",
                                        "prev": "23",
                                        "typeTag": 1
                                    }
                                }
                            ],
                            "typeTag": 4
                        }
                    }
                ]
            }
        ]
    }
}