{
    "balance_change": {
        "balanceChanges": [
            {
                "account": "0x785393bfe358db33ac3f28290274478a6c0ca8f9",
                "assets": [
                    {
                        "address": "0xc005204856ee7035a13d8d7cdbbdc13027afff90",
                        "amount": "441,246",
                        "iconUrl": "",
                        "isERC1155": false,
                        "isERC721": false,
                        "sign": false,
                        "value": "11.65088144"
                    }
                ]
            },
            {
                "account": "0xc2bb8ca165858c63cb33715010333e391b08d1ea",
                "assets": [
                    {
                        "address": "0xc005204856ee7035a13d8d7cdbbdc13027afff90",
                        "amount": "441,246",
                        "iconUrl": "",
                        "isERC1155": false,
                        "isERC721": false,
                        "sign": true,
                        "value": "11.65088144"
                    }
                ]
            }
        ]
    },
    "profile": {
        "basic_info": {
            "baseFee": "",
            "blockNumber": 11423871,
            "callData": "0xa9059cbb000000000000000000000000c2bb8ca165858c63cb33715010333e391b08d1ea000000000000000000000000000000000000000000000000000000000006bb9e",
            "debugEnable": true,
            "errorInfo": "",
            "eventCount": 1,
            "feeRecipient": "0xea674fdde714fd979de3edf0f56aa9716b898ec8",
            "formatValue": "0",
            "gasLimit": 138098,
            "gasPrice": "32",
            "gasUsed": 23098,
            "intTxnCount": 0,
            "internalRevert": false,
            "internalRevertMessage": "",
            "isContractCreation": false,
            "isFlashloan": false,
            "maxFee": "",
            "nonce": 4,
            "overwritedBlockNumber": -1,
            "priorityFee": "",
            "receiver": "0xc005204856ee7035a13d8d7cdbbdc13027afff90",
            "revertMessage": "",
            "sender": "0x785393bfe358db33ac3f28290274478a6c0ca8f9",
            "simulationEnable": true,
            "sourceTxnHash": "0xc8e7823c232302460565d72aefeb52ab63b7d1cbd5d08fd1a13be76e279cb543",
            "status": true,
            "timestamp": "2020-12-10T07:28:59Z",
            "transactionFee": "0.000739136",
            "txnHash": "0xc8e7823c232302460565d72aefeb52ab63b7d1cbd5d08fd1a13be76e279cb543",
            "txnIndex": 134,
            "type": 0,
            "value": "0"
        },
        "fund_flow": [
            {
                "amount": "441,246",
                "from": "0x785393bfe358db33ac3f28290274478a6c0ca8f9",
                "id": 1,
                "isERC1155": false,
                "isERC721": false,
                "isReverted": false,
                "order": 1,
                "to": "0xc2bb8ca165858c63cb33715010333e391b08d1ea",
                "token": "0xc005204856ee7035a13d8d7cdbbdc13027afff90"
            }
        ],
        "token_infos": [
            {
                "address": "0xc005204856ee7035a13d8d7cdbbdc13027afff90",
                "decimals": 0
            },
            {
                "address": "0xc02aaa39b223fe8d0a0e5c4f27ead9083c756cc2",
                "decimals": 18
            },
            {
                "address": "0xeeeeeeeeeeeeeeeeeeeeeeeeeeeeeeeeeeeeeeee",
                "decimals": 18
            }
        ]
    },
    "address_label": {
        "labels": [
            {
                "address": "0xeeeeeeeeeeeeeeeeeeeeeeeeeeeeeeeeeeeeeeee",
                "label": "Ether"
            },
            {
                "address": "0xc005204856ee7035a13d8d7cdbbdc13027afff90",
                "label": "MoneySwap: MSWAP Token"
            },
            {
                "address": "0x0000000000000000000000000000000000000001",
                "label": "Precompiled"
            },
            {
                "address": "0x0000000000000000000000000000000000000002",
                "label": "Precompiled"
            },
            {
                "address": "0x0000000000000000000000000000000000000003",
                "label": "Precompiled"
            },
            {
                "address": "0x0000000000000000000000000000000000000004",
                "label": "Precompiled"
            }
        ]
    },
    "trace": {
        "accountLabels": null,
        "dataMap": {
            "-1": {
                "invocation": {
                    "address": "0x785393bfe358db33ac3f28290274478a6c0ca8f9",
                    "callData": "",
                    "decodedMethod": null,
                    "errorInfo": "",
                    "fromAddress": "",
                    "gasUsed": 0,
                    "id": -1,
                    "methodDecoded": false,
                    "operation": "",
                    "output": "",
                    "revert": false,
                    "revertMessage": "",
                    "selector": "",
                    "status": false,
                    "value": ""
                },
                "nodeType": 0
            },
            "0": {
                "invocation": {
                    "address": "0xc005204856ee7035a13d8d7cdbbdc13027afff90",
                    "callData": "0x000000000000000000000000c2bb8ca165858c63cb33715010333e391b08d1ea000000000000000000000000000000000000000000000000000000000006bb9e",
                    "decodedMethod": {
                        "callParams": [
                            {
                                "name": "_to",
                                "type": "address",
                                "value": "0xc2bb8ca165858c63cb33715010333e391b08d1ea"
                            },
                            {
                                "decimalAvailable": true,
                                "name": "_value",
                                "type": "uint256",
                                "value": "441,246"
                            }
                        ],
                        "constructorArguments": "",
                        "name": "transfer",
                        "returnParams": [
                            {
                                "name": "",
                                "type": "bool",
                                "value": true
                            }
                        ],
                        "signature": "transfer(address,uint256)"
                    },
                    "errorInfo": "",
                    "fromAddress": "0x785393bfe358db33ac3f28290274478a6c0ca8f9",
                    "gasUsed": 23098,
                    "id": 0,
                    "methodDecoded": true,
                    "operation": "CALL",
                    "output": "0x0000000000000000000000000000000000000000000000000000000000000001",
                    "revert": false,
                    "revertMessage": "",
                    "selector": "0xa9059cbb",
                    "status": true,
                    "value": "0"
                },
                "nodeType": 0
            },
            "1": {
                "event": {
                    "contract": "0xc005204856ee7035a13d8d7cdbbdc13027afff90",
                    "decodedLog": {
                        "name": "Transfer",
                        "params": [
                            {
                                "name": "from",
                                "type": "address",
                                "value": "0x785393bfe358db33ac3f28290274478a6c0ca8f9"
                            },
                            {
                                "name": "to",
                                "type": "address",
                                "value": "0xc2bb8ca165858c63cb33715010333e391b08d1ea"
                            },
                            {
                                "decimalAvailable": true,
                                "name": "value",
                                "type": "uint256",
                                "value": "441,246"
                            }
                        ],
                        "signature": "Transfer(address,address,uint256)"
                    },
                    "id": 1,
                    "logData": "0x000000000000000000000000000000000000000000000000000000000006bb9e",
                    "logDecoded": true,
                    "operation": "EVENT",
                    "revert": false,
                    "status": true,
                    "topics": [
                        "0xddf252ad1be2c89b69c2b068fc378daa952ba7f163c4a11628f55a4df523b3ef",
                        "0x000000000000000000000000785393bfe358db33ac3f28290274478a6c0ca8f9",
                        "0x000000000000000000000000c2bb8ca165858c63cb33715010333e391b08d1ea"
                    ]
                },
                "nodeType": 1
            }
        },
        "gasFlame": [
            {
                "children": [
                    {
                        "children": [
                            {
                                "children": [],
                                "depth": 0,
                                "name": "Initial Gas",
                                "value": 21596
                            },
                            {
                                "children": [],
                                "depth": 0,
                                "name": "Executed Gas",
                                "value": 16502
                            }
                        ],
                        "depth": -1,
                        "name": "Actual Gas Used",
                        "value": 23098
                    },
                    {
                        "children": [],
                        "depth": -1,
                        "name": "Refunded Gas",
                        "value": 15000
                    }
                ],
                "depth": -2,
                "name": "Total Gas",
                "value": 38098
            }
        ],
        "isConfirmed": true,
        "mainTrace": [
            {
                "children": [
                    {
                        "children": [
                            {
                                "children": [],
                                "depth": 1,
                                "id": 1,
                                "order": 1
                            }
                        ],
                        "depth": 0,
                        "id": 0,
                        "order": 0
                    }
                ],
                "depth": -1,
                "id": -1,
                "order": -1
            }
        ],
        "mainTraceNodeCount": 2,
        "parentIdMap": {
            "0": -1,
            "1": 0
        },
        "tidyTrace": [
            {
                "children": [
                    {
                        "children": [
                            {
                                "children": [],
                                "depth": 1,
                                "id": 1,
                                "order": 1
                            }
                        ],
                        "depth": 0,
                        "id": 0,
                        "order": 0
                    }
                ],
                "depth": -1,
                "id": -1,
                "order": -1
            }
        ],
        "tidyTraceNodeCount": 2
    },
    "state_change": {
        "stateChanges": [
            {
                "address": "0xc005204856ee7035a13d8d7cdbbdc13027afff90",
                "erc": "ERC-20",
                "slots": [
                    {
                        "current": "0x0000000000000000000000000000000000000000000000000000000003e4cd71",
                        "key": "0x60f5ba6164f3fa82844f3db9dd880eb7ff09d8351cce1a099779dd5a59a48f9a",
                        "prev": "0x0000000000000000000000000000000000000000000000000000000003de11d3"
                    },
                    {
                        "current": "0x0000000000000000000000000000000000000000000000000000000000000000",
                        "key": "0x0275a4b1d3805d5600ddb577f20b8094df7c0a5f628392ab93029f4ef5273aa0",
                        "prev": "0x000000000000000000000000000000000000000000000000000000000006bb9e"
                    }
                ],
                "storageVariables": [
                    {
                        "name": "balances",
                        "type": "mapping(address => uint256)",
                        "value": {
                            "pairs": [
                                {
                                    "key": "0x785393bfe358db33ac3f28290274478a6c0ca8f9",
                                    "value": {
                                        "current": "0",
                                        "prev": "441246",
                                        "typeTag": 1
                                    }
                                },
                                {
                                    "key": "0xc2bb8ca165858c63cb33715010333e391b08d1ea",
                                    "value": {
                                        "current": "65326449",
                                        "prev": "64885203",
                                        "typeTag": 1
                                    }
                                }
                            ],
                            "typeTag": 4
                        }
                    }
                ]
            }
        ]
    }
}