{
    "balance_change": {
        "balanceChanges": [
            {
                "account": "0xbedc8ebe6d6bc82af5f1accf1e6128fae12e98fa",
                "assets": [
                    {
                        "address": "0x9ab165d795019b6d8b3e971dda91071421305e5a",
                        "amount": "5",
                        "iconUrl": "https://assets.blocksec.com/icon/e3499d92ccdb76289106ac0a0ffbbd25c6f091fcd6556e05575f26b304b331ef.png",
                        "isERC1155": false,
                        "isERC721": false,
                        "sign": false,
                        "value": ""
                    }
                ]
            },
            {
                "account": "0x840fe07c1e470c6cbdb57322b28f196812c4bef3",
                "assets": [
                    {
                        "address": "0x9ab165d795019b6d8b3e971dda91071421305e5a",
                        "amount": "5",
                        "iconUrl": "https://assets.blocksec.com/icon/e3499d92ccdb76289106ac0a0ffbbd25c6f091fcd6556e05575f26b304b331ef.png",
                        "isERC1155": false,
                        "isERC721": false,
                        "sign": true,
                        "value": ""
                    }
                ]
            }
        ]
    },
    "profile": {
        "basic_info": {
            "baseFee": "",
            "blockNumber": 7689233,
            "callData": "0xa9059cbb000000000000000000000000840fe07c1e470c6cbdb57322b28f196812c4bef30000000000000000000000000000000000000000000000004563918244f40000",
            "debugEnable": true,
            "errorInfo": "",
            "eventCount": 1,
            "feeRecipient": "0xea674fdde714fd979de3edf0f56aa9716b898ec8",
            "formatValue": "0",
            "gasLimit": 60000,
            "gasPrice": "1",
            "gasUsed": 51456,
            "intTxnCount": 0,
            "internalRevert": false,
            "internalRevertMessage": "",
            "isContractCreation": false,
            "isFlashloan": false,
            "maxFee": "",
            "nonce": 18589,
            "overwritedBlockNumber": -1,
            "priorityFee": "",
            "receiver": "0x9ab165d795019b6d8b3e971dda91071421305e5a",
            "revertMessage": "",
            "sender": "0xbedc8ebe6d6bc82af5f1accf1e6128fae12e98fa",
            "simulationEnable": true,
            "sourceTxnHash": "0xc80f3539f90b71de3ffecc70732f15ceb7c4c428bd0266561472b52f0ebbe036",
            "status": true,
            "timestamp": "2019-05-03T17:01:21Z",
            "transactionFee": "0.000051456",
            "txnHash": "0xc80f3539f90b71de3ffecc70732f15ceb7c4c428bd0266561472b52f0ebbe036",
            "txnIndex": 88,
            "type": 0,
            "value": "0"
        },
        "fund_flow": [
            {
                "amount": "5",
                "from": "0xbedc8ebe6d6bc82af5f1accf1e6128fae12e98fa",
                "id": 1,
                "isERC1155": false,
                "isERC721": false,
                "isReverted": false,
                "order": 1,
                "to": "0x840fe07c1e470c6cbdb57322b28f196812c4bef3",
                "token": "0x9ab165d795019b6d8b3e971dda91071421305e5a"
            }
        ],
        "token_infos": [
            {
                "address": "0x9ab165d795019b6d8b3e971dda91071421305e5a",
                "decimals": 18
            },
            {
                "address": "0xc02aaa39b223fe8d0a0e5c4f27ead9083c756cc2",
                "decimals": 18
            },
            {
                "address": "0xeeeeeeeeeeeeeeeeeeeeeeeeeeeeeeeeeeeeeeee",
                "decimals": 18
            }
        ]
    },
    "address_label": {
        "labels": [
            {
                "address": "0x0000000000000000000000000000000000000003",
                "label": "Precompiled"
            },
            {
                "address": "0x0000000000000000000000000000000000000004",
                "label": "Precompiled"
            },
            {
                "address": "0xeeeeeeeeeeeeeeeeeeeeeeeeeeeeeeeeeeeeeeee",
                "label": "Ether"
            },
            {
                "address": "0x9ab165d795019b6d8b3e971dda91071421305e5a",
                "label": "Aurora: AOA Token"
            },
            {
                "address": "0x0000000000000000000000000000000000000001",
                "label": "Precompiled"
            },
            {
                "address": "0x0000000000000000000000000000000000000002",
                "label": "Precompiled"
            }
        ]
    },
    "trace": {
        "accountLabels": null,
        "dataMap": {
            "-1": {
                "invocation": {
                    "address": "0xbedc8ebe6d6bc82af5f1accf1e6128fae12e98fa",
                    "callData": "",
                    "decodedMethod": null,
                    "errorInfo": "",
                    "fromAddress": "",
                    "gasUsed": 0,
                    "id": -1,
                    "methodDecoded": false,
                    "operation": "",
                    "output": "",
                    "revert": false,
                    "revertMessage": "",
                    "selector": "",
                    "status": false,
                    "value": ""
                },
                "nodeType": 0
            },
            "0": {
                "invocation": {
                    "address": "0x9ab165d795019b6d8b3e971dda91071421305e5a",
                    "callData": "0x000000000000000000000000840fe07c1e470c6cbdb57322b28f196812c4bef30000000000000000000000000000000000000000000000004563918244f40000",
                    "decodedMethod": {
                        "callParams": [
                            {
                                "name": "_to",
                                "type": "address",
                                "value": "0x840fe07c1e470c6cbdb57322b28f196812c4bef3"
                            },
                            {
                                "decimalAvailable": true,
                                "name": "_value",
                                "type": "uint256",
                                "value": "5,000,000,000,000,000,000"
                            }
                        ],
                        "constructorArguments": "",
                        "name": "transfer",
                        "returnParams": [
                            {
                                "name": "success",
                                "type": "bool",
                                "value": true
                            }
                        ],
                        "signature": "transfer(address,uint256)"
                    },
                    "errorInfo": "",
                    "fromAddress": "0xbedc8ebe6d6bc82af5f1accf1e6128fae12e98fa",
                    "gasUsed": 51456,
                    "id": 0,
                    "methodDecoded": true,
                    "operation": "CALL",
                    "output": "0x0000000000000000000000000000000000000000000000000000000000000001",
                    "revert": false,
                    "revertMessage": "",
                    "selector": "0xa9059cbb",
                    "status": true,
                    "value": "0"
                },
                "nodeType": 0
            },
            "1": {
                "event": {
                    "contract": "0x9ab165d795019b6d8b3e971dda91071421305e5a",
                    "decodedLog": {
                        "name": "Transfer",
                        "params": [
                            {
                                "name": "_from",
                                "type": "address",
                                "value": "0xbedc8ebe6d6bc82af5f1accf1e6128fae12e98fa"
                            },
                            {
                                "name": "_to",
                                "type": "address",
                                "value": "0x840fe07c1e470c6cbdb57322b28f196812c4bef3"
                            },
                            {
                                "decimalAvailable": true,
                                "name": "_value",
                                "type": "uint256",
                                "value": "5,000,000,000,000,000,000"
                            }
                        ],
                        "signature": "Transfer(address,address,uint256)"
                    },
                    "id": 1,
                    "logData": "0x0000000000000000000000000000000000000000000000004563918244f40000",
                    "logDecoded": true,
                    "operation": "EVENT",
                    "revert": false,
                    "status": true,
                    "topics": [
                        "0xddf252ad1be2c89b69c2b068fc378daa952ba7f163c4a11628f55a4df523b3ef",
                        "0x000000000000000000000000bedc8ebe6d6bc82af5f1accf1e6128fae12e98fa",
                        "0x000000000000000000000000840fe07c1e470c6cbdb57322b28f196812c4bef3"
                    ]
                },
                "nodeType": 1
            }
        },
        "gasFlame": [
            {
                "children": [
                    {
                        "children": [
                            {
                                "children": [],
                                "depth": 0,
                                "name": "Initial Gas",
                                "value": 23192
                            },
                            {
                                "children": [],
                                "depth": 0,
                                "name": "Executed Gas",
                                "value": 28264
                            }
                        ],
                        "depth": -1,
                        "name": "Actual Gas Used",
                        "value": 51456
                    },
                    {
                        "children": [],
                        "depth": -1,
                        "name": "Refunded Gas",
                        "value": 0
                    }
                ],
                "depth": -2,
                "name": "Total Gas",
                "value": 51456
            }
        ],
        "isConfirmed": true,
        "mainTrace": [
            {
                "children": [
                    {
                        "children": [
                            {
                                "children": [],
                                "depth": 1,
                                "id": 1,
                                "order": 1
                            }
                        ],
                        "depth": 0,
                        "id": 0,
                        "order": 0
                    }
                ],
                "depth": -1,
                "id": -1,
                "order": -1
            }
        ],
        "mainTraceNodeCount": 2,
        "parentIdMap": {
            "0": -1,
            "1": 0
        },
        "tidyTrace": [
            {
                "children": [
                    {
                        "children": [
                            {
                                "children": [],
                                "depth": 1,
                                "id": 1,
                                "order": 1
                            }
                        ],
                        "depth": 0,
                        "id": 0,
                        "order": 0
                    }
                ],
                "depth": -1,
                "id": -1,
                "order": -1
            }
        ],
        "tidyTraceNodeCount": 2
    },
    "state_change": {
        "stateChanges": [
            {
                "address": "0x9ab165d795019b6d8b3e971dda91071421305e5a",
                "erc": "ERC-20",
                "slots": [
                    {
                        "current": "0x0000000000000000000000000000000000000000000000004563918244f40000",
                        "key": "0x25595ea7b2dd62220daf50da279d758a02f4b703c0982afb2160a618a983bc12",
                        "prev": "0x0000000000000000000000000000000000000000000000000000000000000000"
                    },
                    {
                        "current": "0x000000000000000000000000000000000000000000001b04202b2430aff00000",
                        "key": "0x54bf16b587059689c5accd0659dedccbbcd1945cf167fef4620f87b02d969ac2",
                        "prev": "0x000000000000000000000000000000000000000000001b04658eb5b2f4e40000"
                    }
                ],
                "storageVariables": [
                    {
                        "name": "balances",
                        "type": "mapping(address => uint256)",
                        "value": {
                            "pairs": [
                                {
                                    "key": "0x840fe07c1e470c6cbdb57322b28f196812c4bef3",
                                    "value": {
                                        "current": "5000000000000000000",
                                        "prev": "0",
                                        "typeTag": 1
                                    }
                                },
                                {
                                    "key": "0xbedc8ebe6d6bc82af5f1accf1e6128fae12e98fa",
                                    "value": {
                                        "current": "127580000000000000000000",
                                        "prev": "127585000000000000000000",
                                        "typeTag": 1
                                    }
                                }
                            ],
                            "typeTag": 4
                        }
                    }
                ]
            }
        ]
    }
}