{
    "balance_change": {
        "balanceChanges": [
            {
                "account": "0x576cebf30af0713d56d03d04cc15fc98ec81c480",
                "assets": [
                    {
                        "address": "0x8971f9fd7196e5cee2c1032b50f656855af7dd26",
                        "amount": "177.4954",
                        "iconUrl": "https://assets.blocksec.com/icon/29f3265b2d0e13db60fa97039d9e45fe85188e768407b0a2712abf1c39825af4.png",
                        "isERC1155": false,
                        "isERC721": false,
                        "sign": false,
                        "value": ""
                    }
                ]
            },
            {
                "account": "0x4ca9319220a6531f4e0c560b42f557efde558669",
                "assets": [
                    {
                        "address": "0x8971f9fd7196e5cee2c1032b50f656855af7dd26",
                        "amount": "177.4954",
                        "iconUrl": "https://assets.blocksec.com/icon/29f3265b2d0e13db60fa97039d9e45fe85188e768407b0a2712abf1c39825af4.png",
                        "isERC1155": false,
                        "isERC721": false,
                        "sign": true,
                        "value": ""
                    }
                ]
            }
        ]
    },
    "profile": {
        "basic_info": {
            "baseFee": "",
            "blockNumber": 8295787,
            "callData": "0xa9059cbb0000000000000000000000004ca9319220a6531f4e0c560b42f557efde5586690000000000000000000000000000000000000000000000099f3e55e399de8000",
            "debugEnable": true,
            "errorInfo": "",
            "eventCount": 1,
            "feeRecipient": "0x464b0b37db1ee1b5fbe27300acfbf172fd5e4f53",
            "formatValue": "0",
            "gasLimit": 90000,
            "gasPrice": "10",
            "gasUsed": 37395,
            "intTxnCount": 0,
            "internalRevert": false,
            "internalRevertMessage": "",
            "isContractCreation": false,
            "isFlashloan": false,
            "maxFee": "",
            "nonce": 23954,
            "overwritedBlockNumber": -1,
            "priorityFee": "",
            "receiver": "0x8971f9fd7196e5cee2c1032b50f656855af7dd26",
            "revertMessage": "",
            "sender": "0x576cebf30af0713d56d03d04cc15fc98ec81c480",
            "simulationEnable": true,
            "sourceTxnHash": "0xc8c06fcce8b0491fd368ee158bce8aa0f281e79d74ba58f276180aba2c2d9185",
            "status": true,
            "timestamp": "2019-08-06T07:37:25Z",
            "transactionFee": "0.00037395",
            "txnHash": "0xc8c06fcce8b0491fd368ee158bce8aa0f281e79d74ba58f276180aba2c2d9185",
            "txnIndex": 20,
            "type": 0,
            "value": "0"
        },
        "fund_flow": [
            {
                "amount": "177.4954",
                "from": "0x576cebf30af0713d56d03d04cc15fc98ec81c480",
                "id": 1,
                "isERC1155": false,
                "isERC721": false,
                "isReverted": false,
                "order": 1,
                "to": "0x4ca9319220a6531f4e0c560b42f557efde558669",
                "token": "0x8971f9fd7196e5cee2c1032b50f656855af7dd26"
            }
        ],
        "token_infos": [
            {
                "address": "0xc02aaa39b223fe8d0a0e5c4f27ead9083c756cc2",
                "decimals": 18
            },
            {
                "address": "0xeeeeeeeeeeeeeeeeeeeeeeeeeeeeeeeeeeeeeeee",
                "decimals": 18
            },
            {
                "address": "0x8971f9fd7196e5cee2c1032b50f656855af7dd26",
                "decimals": 18
            }
        ]
    },
    "address_label": {
        "labels": [
            {
                "address": "0xeeeeeeeeeeeeeeeeeeeeeeeeeeeeeeeeeeeeeeee",
                "label": "Ether"
            },
            {
                "address": "0x4ca9319220a6531f4e0c560b42f557efde558669",
                "label": "HUOBI"
            },
            {
                "address": "0x8971f9fd7196e5cee2c1032b50f656855af7dd26",
                "label": "Lambda: LAMB Token"
            },
            {
                "address": "0x0000000000000000000000000000000000000001",
                "label": "Precompiled"
            },
            {
                "address": "0x0000000000000000000000000000000000000002",
                "label": "Precompiled"
            },
            {
                "address": "0x0000000000000000000000000000000000000003",
                "label": "Precompiled"
            },
            {
                "address": "0x0000000000000000000000000000000000000004",
                "label": "Precompiled"
            }
        ]
    },
    "trace": {
        "accountLabels": null,
        "dataMap": {
            "-1": {
                "invocation": {
                    "address": "0x576cebf30af0713d56d03d04cc15fc98ec81c480",
                    "callData": "",
                    "decodedMethod": null,
                    "errorInfo": "",
                    "fromAddress": "",
                    "gasUsed": 0,
                    "id": -1,
                    "methodDecoded": false,
                    "operation": "",
                    "output": "",
                    "revert": false,
                    "revertMessage": "",
                    "selector": "",
                    "status": false,
                    "value": ""
                },
                "nodeType": 0
            },
            "0": {
                "invocation": {
                    "address": "0x8971f9fd7196e5cee2c1032b50f656855af7dd26",
                    "callData": "0x0000000000000000000000004ca9319220a6531f4e0c560b42f557efde5586690000000000000000000000000000000000000000000000099f3e55e399de8000",
                    "decodedMethod": {
                        "callParams": [
                            {
                                "name": "_to",
                                "type": "address",
                                "value": "0x4ca9319220a6531f4e0c560b42f557efde558669"
                            },
                            {
                                "decimalAvailable": true,
                                "name": "_value",
                                "type": "uint256",
                                "value": "177,495,400,000,000,000,000"
                            }
                        ],
                        "constructorArguments": "",
                        "name": "transfer",
                        "returnParams": [
                            {
                                "name": "",
                                "type": "bool",
                                "value": true
                            }
                        ],
                        "signature": "transfer(address,uint256)"
                    },
                    "errorInfo": "",
                    "fromAddress": "0x576cebf30af0713d56d03d04cc15fc98ec81c480",
                    "gasUsed": 37395,
                    "id": 0,
                    "methodDecoded": true,
                    "operation": "CALL",
                    "output": "0x0000000000000000000000000000000000000000000000000000000000000001",
                    "revert": false,
                    "revertMessage": "",
                    "selector": "0xa9059cbb",
                    "status": true,
                    "value": "0"
                },
                "nodeType": 0
            },
            "1": {
                "event": {
                    "contract": "0x8971f9fd7196e5cee2c1032b50f656855af7dd26",
                    "decodedLog": {
                        "name": "Transfer",
                        "params": [
                            {
                                "name": "from",
                                "type": "address",
                                "value": "0x576cebf30af0713d56d03d04cc15fc98ec81c480"
                            },
                            {
                                "name": "to",
                                "type": "address",
                                "value": "0x4ca9319220a6531f4e0c560b42f557efde558669"
                            },
                            {
                                "decimalAvailable": true,
                                "name": "value",
                                "type": "uint256",
                                "value": "177,495,400,000,000,000,000"
                            }
                        ],
                        "signature": "Transfer(address,address,uint256)"
                    },
                    "id": 1,
                    "logData": "0x0000000000000000000000000000000000000000000000099f3e55e399de8000",
                    "logDecoded": true,
                    "operation": "EVENT",
                    "revert": false,
                    "status": true,
                    "topics": [
                        "0xddf252ad1be2c89b69c2b068fc378daa952ba7f163c4a11628f55a4df523b3ef",
                        "0x000000000000000000000000576cebf30af0713d56d03d04cc15fc98ec81c480",
                        "0x0000000000000000000000004ca9319220a6531f4e0c560b42f557efde558669"
                    ]
                },
                "nodeType": 1
            }
        },
        "gasFlame": [
            {
                "children": [
                    {
                        "children": [
                            {
                                "children": [],
                                "depth": 0,
                                "name": "Initial Gas",
                                "value": 23320
                            },
                            {
                                "children": [],
                                "depth": 0,
                                "name": "Executed Gas",
                                "value": 14075
                            }
                        ],
                        "depth": -1,
                        "name": "Actual Gas Used",
                        "value": 37395
                    },
                    {
                        "children": [],
                        "depth": -1,
                        "name": "Refunded Gas",
                        "value": 0
                    }
                ],
                "depth": -2,
                "name": "Total Gas",
                "value": 37395
            }
        ],
        "isConfirmed": true,
        "mainTrace": [
            {
                "children": [
                    {
                        "children": [
                            {
                                "children": [],
                                "depth": 1,
                                "id": 1,
                                "order": 1
                            }
                        ],
                        "depth": 0,
                        "id": 0,
                        "order": 0
                    }
                ],
                "depth": -1,
                "id": -1,
                "order": -1
            }
        ],
        "mainTraceNodeCount": 2,
        "parentIdMap": {
            "0": -1,
            "1": 0
        },
        "tidyTrace": [
            {
                "children": [
                    {
                        "children": [
                            {
                                "children": [],
                                "depth": 1,
                                "id": 1,
                                "order": 1
                            }
                        ],
                        "depth": 0,
                        "id": 0,
                        "order": 0
                    }
                ],
                "depth": -1,
                "id": -1,
                "order": -1
            }
        ],
        "tidyTraceNodeCount": 2
    },
    "state_change": {
        "stateChanges": [
            {
                "address": "0x8971f9fd7196e5cee2c1032b50f656855af7dd26",
                "erc": "",
                "slots": [
                    {
                        "current": "0x00000000000000000000000000000000000000000000208da8b564f654f1c000",
                        "key": "0xbd684be1f797d36a623adfaecfe60efc19b5bcb0de122451c9e2542bffd3b718",
                        "prev": "0x00000000000000000000000000000000000000000000209747f3bad9eed04000"
                    },
                    {
                        "current": "0x000000000000000000000000000000000000000000000032bb96ba6e4e540000",
                        "key": "0x4da86362f17643dcfe3e71beeaadf933523d2ec3f57ec3554fb1bf59221c87e3",
                        "prev": "0x0000000000000000000000000000000000000000000000291c58648ab4758000"
                    }
                ],
                "storageVariables": [
                    {
                        "name": "balances",
                        "type": "mapping(address => uint256)",
                        "value": {
                            "pairs": [
                                {
                                    "key": "0x4ca9319220a6531f4e0c560b42f557efde558669",
                                    "value": {
                                        "current": "935854400000000000000",
                                        "prev": "758359000000000000000",
                                        "typeTag": 1
                                    }
                                },
                                {
                                    "key": "0x576cebf30af0713d56d03d04cc15fc98ec81c480",
                                    "value": {
                                        "current": "153728875100000000000000",
                                        "prev": "153906370500000000000000",
                                        "typeTag": 1
                                    }
                                }
                            ],
                            "typeTag": 4
                        }
                    }
                ]
            }
        ]
    }
}