{
    "balance_change": {
        "balanceChanges": [
            {
                "account": "0xbd7fc7a2bb536f6bbaafcab08df61446f36f521e",
                "assets": [
                    {
                        "address": "0xeeeeeeeeeeeeeeeeeeeeeeeeeeeeeeeeeeeeeeee",
                        "amount": "0.162",
                        "iconUrl": "https://assets.blocksec.com/image/1663669189317-3.png",
                        "isERC1155": false,
                        "isERC721": false,
                        "sign": false,
                        "value": "596.2262183099999884"
                    },
                    {
                        "address": "0x8b3192f5eebd8579568a2ed41e6feb402f93f73f",
                        "amount": "13,763,736,141.893769862",
                        "iconUrl": "",
                        "isERC1155": false,
                        "isERC721": false,
                        "sign": true,
                        "value": ""
                    }
                ]
            },
            {
                "account": "0x9cbfb60a09a9a33a10312da0f39977cbdb7fde23",
                "assets": [
                    {
                        "address": "0xc02aaa39b223fe8d0a0e5c4f27ead9083c756cc2",
                        "amount": "0.162",
                        "iconUrl": "https://assets.blocksec.com/icon/f1cb2d02c471d545bbc7722daf3277fd852d98e63d118771af7047bd8256c516.png",
                        "isERC1155": false,
                        "isERC721": false,
                        "sign": true,
                        "value": "596.2262183099999884"
                    },
                    {
                        "address": "0x8b3192f5eebd8579568a2ed41e6feb402f93f73f",
                        "amount": "13,763,736,141.893769862",
                        "iconUrl": "",
                        "isERC1155": false,
                        "isERC721": false,
                        "sign": false,
                        "value": ""
                    }
                ]
            },
            {
                "account": "0xc02aaa39b223fe8d0a0e5c4f27ead9083c756cc2",
                "assets": [
                    {
                        "address": "0xeeeeeeeeeeeeeeeeeeeeeeeeeeeeeeeeeeeeeeee",
                        "amount": "0.162",
                        "iconUrl": "https://assets.blocksec.com/image/1663669189317-3.png",
                        "isERC1155": false,
                        "isERC721": false,
                        "sign": true,
                        "value": "596.2262183099999884"
                    },
                    {
                        "address": "0xc02aaa39b223fe8d0a0e5c4f27ead9083c756cc2",
                        "amount": "0.162",
                        "iconUrl": "https://assets.blocksec.com/icon/f1cb2d02c471d545bbc7722daf3277fd852d98e63d118771af7047bd8256c516.png",
                        "isERC1155": false,
                        "isERC721": false,
                        "sign": false,
                        "value": "596.2262183099999884"
                    }
                ]
            }
        ]
    },
    "profile": {
        "basic_info": {
            "baseFee": "76.688943291",
            "blockNumber": 14016715,
            "callData": "0x5ae401dc0000000000000000000000000000000000000000000000000000000061e41f8000000000000000000000000000000000000000000000000000000000000000400000000000000000000000000000000000000000000000000000000000000001000000000000000000000000000000000000000000000000000000000000002000000000000000000000000000000000000000000000000000000000000000e4472b43f3000000000000000000000000000000000000000000000000023f8a24459d0000000000000000000000000000000000000000000000000000b129f01773347cd90000000000000000000000000000000000000000000000000000000000000080000000000000000000000000bd7fc7a2bb536f6bbaafcab08df61446f36f521e0000000000000000000000000000000000000000000000000000000000000002000000000000000000000000c02aaa39b223fe8d0a0e5c4f27ead9083c756cc20000000000000000000000008b3192f5eebd8579568a2ed41e6feb402f93f73f00000000000000000000000000000000000000000000000000000000",
            "debugEnable": true,
            "errorInfo": "",
            "eventCount": 5,
            "feeRecipient": "0x7f101fe45e6649a6fb8f3f8b43ed03d353f2b90c",
            "formatValue": "0.162",
            "gasLimit": 194306,
            "gasPrice": "81.4",
            "gasUsed": 137955,
            "intTxnCount": 11,
            "internalRevert": false,
            "internalRevertMessage": "",
            "isContractCreation": false,
            "isFlashloan": false,
            "maxFee": "",
            "nonce": 61,
            "overwritedBlockNumber": -1,
            "priorityFee": "",
            "receiver": "0x68b3465833fb72a70ecdf485e0e4c7bd8665fc45",
            "revertMessage": "",
            "sender": "0xbd7fc7a2bb536f6bbaafcab08df61446f36f521e",
            "simulationEnable": true,
            "sourceTxnHash": "0xc83e5a5e7f48d653c29424eb88715cd00674ac53e98c539327b239e39e4f1811",
            "status": true,
            "timestamp": "2022-01-16T13:10:19Z",
            "transactionFee": "0.011229537",
            "txnHash": "0xc83e5a5e7f48d653c29424eb88715cd00674ac53e98c539327b239e39e4f1811",
            "txnIndex": 27,
            "type": 0,
            "value": "162000000000000000"
        },
        "fund_flow": [
            {
                "amount": "0.162",
                "from": "0xbd7fc7a2bb536f6bbaafcab08df61446f36f521e",
                "id": 1,
                "isERC1155": false,
                "isERC721": false,
                "isReverted": false,
                "order": 1,
                "to": "0x68b3465833fb72a70ecdf485e0e4c7bd8665fc45",
                "token": "0xeeeeeeeeeeeeeeeeeeeeeeeeeeeeeeeeeeeeeeee"
            },
            {
                "amount": "0.162",
                "from": "0x68b3465833fb72a70ecdf485e0e4c7bd8665fc45",
                "id": 2,
                "isERC1155": false,
                "isERC721": false,
                "isReverted": false,
                "order": 2,
                "to": "0xc02aaa39b223fe8d0a0e5c4f27ead9083c756cc2",
                "token": "0xeeeeeeeeeeeeeeeeeeeeeeeeeeeeeeeeeeeeeeee"
            },
            {
                "amount": "0.162",
                "from": "0xc02aaa39b223fe8d0a0e5c4f27ead9083c756cc2",
                "id": 3,
                "isERC1155": false,
                "isERC721": false,
                "isReverted": false,
                "order": 3,
                "to": "0x68b3465833fb72a70ecdf485e0e4c7bd8665fc45",
                "token": "0xc02aaa39b223fe8d0a0e5c4f27ead9083c756cc2"
            },
            {
                "amount": "0.162",
                "from": "0x68b3465833fb72a70ecdf485e0e4c7bd8665fc45",
                "id": 4,
                "isERC1155": false,
                "isERC721": false,
                "isReverted": false,
                "order": 4,
                "to": "0x9cbfb60a09a9a33a10312da0f39977cbdb7fde23",
                "token": "0xc02aaa39b223fe8d0a0e5c4f27ead9083c756cc2"
            },
            {
                "amount": "13,763,736,141.893769862",
                "from": "0x9cbfb60a09a9a33a10312da0f39977cbdb7fde23",
                "id": 5,
                "isERC1155": false,
                "isERC721": false,
                "isReverted": false,
                "order": 5,
                "to": "0xbd7fc7a2bb536f6bbaafcab08df61446f36f521e",
                "token": "0x8b3192f5eebd8579568a2ed41e6feb402f93f73f"
            }
        ],
        "token_infos": [
            {
                "address": "0x8b3192f5eebd8579568a2ed41e6feb402f93f73f",
                "decimals": 9
            },
            {
                "address": "0xc02aaa39b223fe8d0a0e5c4f27ead9083c756cc2",
                "decimals": 18
            },
            {
                "address": "0xeeeeeeeeeeeeeeeeeeeeeeeeeeeeeeeeeeeeeeee",
                "decimals": 18
            }
        ]
    },
    "address_label": {
        "labels": [
            {
                "address": "0xeeeeeeeeeeeeeeeeeeeeeeeeeeeeeeeeeeeeeeee",
                "label": "Ether"
            },
            {
                "address": "0x68b3465833fb72a70ecdf485e0e4c7bd8665fc45",
                "label": "Uniswap V3: Router 2"
            },
            {
                "address": "0x0000000000000000000000000000000000000003",
                "label": "Precompiled"
            },
            {
                "address": "0x0000000000000000000000000000000000000004",
                "label": "Precompiled"
            },
            {
                "address": "0x0000000000000000000000000000000000000002",
                "label": "Precompiled"
            },
            {
                "address": "0xc02aaa39b223fe8d0a0e5c4f27ead9083c756cc2",
                "label": "Wrapped Ether (WETH)"
            },
            {
                "address": "0x8b3192f5eebd8579568a2ed41e6feb402f93f73f",
                "label": "Saitama Inu: Old SAITAMA Token"
            },
            {
                "address": "0x9cbfb60a09a9a33a10312da0f39977cbdb7fde23",
                "label": "Uniswap V2: SAITAMA"
            },
            {
                "address": "0x0000000000000000000000000000000000000001",
                "label": "Precompiled"
            }
        ]
    },
    "trace": {
        "accountLabels": null,
        "dataMap": {
            "-1": {
                "invocation": {
                    "address": "0xbd7fc7a2bb536f6bbaafcab08df61446f36f521e",
                    "callData": "",
                    "decodedMethod": null,
                    "errorInfo": "",
                    "fromAddress": "",
                    "gasUsed": 0,
                    "id": -1,
                    "methodDecoded": false,
                    "operation": "",
                    "output": "",
                    "revert": false,
                    "revertMessage": "",
                    "selector": "",
                    "status": false,
                    "value": ""
                },
                "nodeType": 0
            },
            "0": {
                "invocation": {
                    "address": "0x68b3465833fb72a70ecdf485e0e4c7bd8665fc45",
                    "callData": "0x0000000000000000000000000000000000000000000000000000000061e41f8000000000000000000000000000000000000000000000000000000000000000400000000000000000000000000000000000000000000000000000000000000001000000000000000000000000000000000000000000000000000000000000002000000000000000000000000000000000000000000000000000000000000000e4472b43f3000000000000000000000000000000000000000000000000023f8a24459d0000000000000000000000000000000000000000000000000000b129f01773347cd90000000000000000000000000000000000000000000000000000000000000080000000000000000000000000bd7fc7a2bb536f6bbaafcab08df61446f36f521e0000000000000000000000000000000000000000000000000000000000000002000000000000000000000000c02aaa39b223fe8d0a0e5c4f27ead9083c756cc20000000000000000000000008b3192f5eebd8579568a2ed41e6feb402f93f73f00000000000000000000000000000000000000000000000000000000",
                    "decodedMethod": {
                        "callParams": [
                            {
                                "name": "deadline",
                                "type": "uint256",
                                "value": "1,642,340,224"
                            },
                            {
                                "name": "data",
                                "type": "bytes[]",
                                "value": [
                                    "0x472b43f3000000000000000000000000000000000000000000000000023f8a24459d0000000000000000000000000000000000000000000000000000b129f01773347cd90000000000000000000000000000000000000000000000000000000000000080000000000000000000000000bd7fc7a2bb536f6bbaafcab08df61446f36f521e0000000000000000000000000000000000000000000000000000000000000002000000000000000000000000c02aaa39b223fe8d0a0e5c4f27ead9083c756cc20000000000000000000000008b3192f5eebd8579568a2ed41e6feb402f93f73f"
                                ]
                            }
                        ],
                        "constructorArguments": "",
                        "name": "multicall",
                        "returnParams": [
                            {
                                "name": "",
                                "type": "bytes[]",
                                "value": [
                                    "0x000000000000000000000000000000000000000000000000bf029d7b210f1026"
                                ]
                            }
                        ],
                        "signature": "multicall(uint256,bytes[])"
                    },
                    "errorInfo": "",
                    "fromAddress": "0xbd7fc7a2bb536f6bbaafcab08df61446f36f521e",
                    "gasUsed": 137955,
                    "id": 0,
                    "methodDecoded": true,
                    "operation": "CALL",
                    "output": "0x0000000000000000000000000000000000000000000000000000000000000020000000000000000000000000000000000000000000000000000000000000000100000000000000000000000000000000000000000000000000000000000000200000000000000000000000000000000000000000000000000000000000000020000000000000000000000000000000000000000000000000bf029d7b210f1026",
                    "revert": false,
                    "revertMessage": "",
                    "selector": "0x5ae401dc",
                    "status": true,
                    "value": "0.162"
                },
                "nodeType": 0
            },
            "1": {
                "invocation": {
                    "address": "0x68b3465833fb72a70ecdf485e0e4c7bd8665fc45",
                    "callData": "0x000000000000000000000000000000000000000000000000023f8a24459d0000000000000000000000000000000000000000000000000000b129f01773347cd90000000000000000000000000000000000000000000000000000000000000080000000000000000000000000bd7fc7a2bb536f6bbaafcab08df61446f36f521e0000000000000000000000000000000000000000000000000000000000000002000000000000000000000000c02aaa39b223fe8d0a0e5c4f27ead9083c756cc20000000000000000000000008b3192f5eebd8579568a2ed41e6feb402f93f73f",
                    "decodedMethod": {
                        "callParams": [
                            {
                                "name": "amountIn",
                                "type": "uint256",
                                "value": "162,000,000,000,000,000"
                            },
                            {
                                "name": "amountOutMin",
                                "type": "uint256",
                                "value": "12,765,998,602,266,115,289"
                            },
                            {
                                "name": "path",
                                "type": "address[]",
                                "value": [
                                    "0xc02aaa39b223fe8d0a0e5c4f27ead9083c756cc2",
                                    "0x8b3192f5eebd8579568a2ed41e6feb402f93f73f"
                                ]
                            },
                            {
                                "name": "to",
                                "type": "address",
                                "value": "0xbd7fc7a2bb536f6bbaafcab08df61446f36f521e"
                            }
                        ],
                        "constructorArguments": "",
                        "name": "swapExactTokensForTokens",
                        "returnParams": [
                            {
                                "name": "amountOut",
                                "type": "uint256",
                                "value": "13,763,736,563,358,830,630"
                            }
                        ],
                        "signature": "swapExactTokensForTokens(uint256,uint256,address[],address)"
                    },
                    "errorInfo": "",
                    "fromAddress": "0x68b3465833fb72a70ecdf485e0e4c7bd8665fc45",
                    "gasUsed": 134693,
                    "id": 1,
                    "methodDecoded": true,
                    "operation": "DELEGATECALL",
                    "output": "0x000000000000000000000000000000000000000000000000bf029d7b210f1026",
                    "revert": false,
                    "revertMessage": "",
                    "selector": "0x472b43f3",
                    "status": true,
                    "value": "0.162"
                },
                "nodeType": 0
            },
            "10": {
                "invocation": {
                    "address": "0x8b3192f5eebd8579568a2ed41e6feb402f93f73f",
                    "callData": "0x000000000000000000000000bd7fc7a2bb536f6bbaafcab08df61446f36f521e000000000000000000000000000000000000000000000000c2e88b67e06ea820",
                    "decodedMethod": {
                        "callParams": [
                            {
                                "name": "recipient",
                                "type": "address",
                                "value": "0xbd7fc7a2bb536f6bbaafcab08df61446f36f521e"
                            },
                            {
                                "decimalAvailable": true,
                                "name": "amount",
                                "type": "uint256",
                                "value": "14,044,628,716,218,132,512"
                            }
                        ],
                        "constructorArguments": "",
                        "name": "transfer",
                        "returnParams": [
                            {
                                "name": "",
                                "type": "bool",
                                "value": true
                            }
                        ],
                        "signature": "transfer(address,uint256)"
                    },
                    "errorInfo": "",
                    "fromAddress": "0x9cbfb60a09a9a33a10312da0f39977cbdb7fde23",
                    "gasUsed": 30017,
                    "id": 10,
                    "methodDecoded": true,
                    "operation": "CALL",
                    "output": "0x0000000000000000000000000000000000000000000000000000000000000001",
                    "revert": false,
                    "revertMessage": "",
                    "selector": "0xa9059cbb",
                    "status": true,
                    "value": "0"
                },
                "nodeType": 0
            },
            "11": {
                "event": {
                    "contract": "0x8b3192f5eebd8579568a2ed41e6feb402f93f73f",
                    "decodedLog": {
                        "name": "Transfer",
                        "params": [
                            {
                                "name": "from",
                                "type": "address",
                                "value": "0x9cbfb60a09a9a33a10312da0f39977cbdb7fde23"
                            },
                            {
                                "name": "to",
                                "type": "address",
                                "value": "0xbd7fc7a2bb536f6bbaafcab08df61446f36f521e"
                            },
                            {
                                "decimalAvailable": true,
                                "name": "value",
                                "type": "uint256",
                                "value": "13,763,736,141,893,769,862"
                            }
                        ],
                        "signature": "Transfer(address,address,uint256)"
                    },
                    "id": 11,
                    "logData": "0x000000000000000000000000000000000000000000000000bf029d18ffc89a86",
                    "logDecoded": true,
                    "operation": "EVENT",
                    "revert": false,
                    "status": true,
                    "topics": [
                        "0xddf252ad1be2c89b69c2b068fc378daa952ba7f163c4a11628f55a4df523b3ef",
                        "0x0000000000000000000000009cbfb60a09a9a33a10312da0f39977cbdb7fde23",
                        "0x000000000000000000000000bd7fc7a2bb536f6bbaafcab08df61446f36f521e"
                    ]
                },
                "nodeType": 1
            },
            "12": {
                "invocation": {
                    "address": "0x8b3192f5eebd8579568a2ed41e6feb402f93f73f",
                    "callData": "0x0000000000000000000000009cbfb60a09a9a33a10312da0f39977cbdb7fde23",
                    "decodedMethod": {
                        "callParams": [
                            {
                                "name": "account",
                                "type": "address",
                                "value": "0x9cbfb60a09a9a33a10312da0f39977cbdb7fde23"
                            }
                        ],
                        "constructorArguments": "",
                        "name": "balanceOf",
                        "returnParams": [
                            {
                                "decimalAvailable": true,
                                "name": "",
                                "type": "uint256",
                                "value": "280,832,045,906,175,835,909,123"
                            }
                        ],
                        "signature": "balanceOf(address)"
                    },
                    "errorInfo": "",
                    "fromAddress": "0x9cbfb60a09a9a33a10312da0f39977cbdb7fde23",
                    "gasUsed": 2272,
                    "id": 12,
                    "methodDecoded": true,
                    "operation": "STATICCALL",
                    "output": "0x000000000000000000000000000000000000000000003b77ef8aefb7fbb22c03",
                    "revert": false,
                    "revertMessage": "",
                    "selector": "0x70a08231",
                    "status": true,
                    "value": "0"
                },
                "nodeType": 0
            },
            "13": {
                "invocation": {
                    "address": "0xc02aaa39b223fe8d0a0e5c4f27ead9083c756cc2",
                    "callData": "0x0000000000000000000000009cbfb60a09a9a33a10312da0f39977cbdb7fde23",
                    "decodedMethod": {
                        "callParams": [
                            {
                                "name": "",
                                "type": "address",
                                "value": "0x9cbfb60a09a9a33a10312da0f39977cbdb7fde23"
                            }
                        ],
                        "constructorArguments": "",
                        "name": "balanceOf",
                        "returnParams": [
                            {
                                "decimalAvailable": true,
                                "name": "",
                                "type": "uint256",
                                "value": "3,229,745,910,646,752,829,044"
                            }
                        ],
                        "signature": "balanceOf(address)"
                    },
                    "errorInfo": "",
                    "fromAddress": "0x9cbfb60a09a9a33a10312da0f39977cbdb7fde23",
                    "gasUsed": 534,
                    "id": 13,
                    "methodDecoded": true,
                    "operation": "STATICCALL",
                    "output": "0x0000000000000000000000000000000000000000000000af15ba79ce56365e74",
                    "revert": false,
                    "revertMessage": "",
                    "selector": "0x70a08231",
                    "status": true,
                    "value": "0"
                },
                "nodeType": 0
            },
            "14": {
                "event": {
                    "contract": "0x9cbfb60a09a9a33a10312da0f39977cbdb7fde23",
                    "decodedLog": {
                        "name": "Sync",
                        "params": [
                            {
                                "name": "reserve0",
                                "type": "uint112",
                                "value": "280,832,045,906,175,835,909,123"
                            },
                            {
                                "name": "reserve1",
                                "type": "uint112",
                                "value": "3,229,745,910,646,752,829,044"
                            }
                        ],
                        "signature": "Sync(uint112,uint112)"
                    },
                    "id": 14,
                    "logData": "0x000000000000000000000000000000000000000000003b77ef8aefb7fbb22c030000000000000000000000000000000000000000000000af15ba79ce56365e74",
                    "logDecoded": true,
                    "operation": "EVENT",
                    "revert": false,
                    "status": true,
                    "topics": [
                        "0x1c411e9a96e071241c2f21f7726b17ae89e3cab4c78be50e062b03a9fffbbad1"
                    ]
                },
                "nodeType": 1
            },
            "15": {
                "event": {
                    "contract": "0x9cbfb60a09a9a33a10312da0f39977cbdb7fde23",
                    "decodedLog": {
                        "name": "Swap",
                        "params": [
                            {
                                "name": "sender",
                                "type": "address",
                                "value": "0x68b3465833fb72a70ecdf485e0e4c7bd8665fc45"
                            },
                            {
                                "name": "to",
                                "type": "address",
                                "value": "0xbd7fc7a2bb536f6bbaafcab08df61446f36f521e"
                            },
                            {
                                "name": "amount0In",
                                "type": "uint256",
                                "value": "802,312,145,028,701"
                            },
                            {
                                "name": "amount1In",
                                "type": "uint256",
                                "value": "162,000,000,000,000,000"
                            },
                            {
                                "name": "amount0Out",
                                "type": "uint256",
                                "value": "14,044,628,716,218,132,512"
                            },
                            {
                                "name": "amount1Out",
                                "type": "uint256",
                                "value": "0"
                            }
                        ],
                        "signature": "Swap(address,uint256,uint256,uint256,uint256,address)"
                    },
                    "id": 15,
                    "logData": "0x0000000000000000000000000000000000000000000000000002d9b2da67465d000000000000000000000000000000000000000000000000023f8a24459d0000000000000000000000000000000000000000000000000000c2e88b67e06ea8200000000000000000000000000000000000000000000000000000000000000000",
                    "logDecoded": true,
                    "operation": "EVENT",
                    "revert": false,
                    "status": true,
                    "topics": [
                        "0xd78ad95fa46c994b6551d0da85fc275fe613ce37657fb8d5e3d130840159d822",
                        "0x00000000000000000000000068b3465833fb72a70ecdf485e0e4c7bd8665fc45",
                        "0x000000000000000000000000bd7fc7a2bb536f6bbaafcab08df61446f36f521e"
                    ]
                },
                "nodeType": 1
            },
            "16": {
                "invocation": {
                    "address": "0x8b3192f5eebd8579568a2ed41e6feb402f93f73f",
                    "callData": "0x000000000000000000000000bd7fc7a2bb536f6bbaafcab08df61446f36f521e",
                    "decodedMethod": {
                        "callParams": [
                            {
                                "name": "account",
                                "type": "address",
                                "value": "0xbd7fc7a2bb536f6bbaafcab08df61446f36f521e"
                            }
                        ],
                        "constructorArguments": "",
                        "name": "balanceOf",
                        "returnParams": [
                            {
                                "decimalAvailable": true,
                                "name": "",
                                "type": "uint256",
                                "value": "150,044,927,952,048,136,323"
                            }
                        ],
                        "signature": "balanceOf(address)"
                    },
                    "errorInfo": "",
                    "fromAddress": "0x68b3465833fb72a70ecdf485e0e4c7bd8665fc45",
                    "gasUsed": 2272,
                    "id": 16,
                    "methodDecoded": true,
                    "operation": "STATICCALL",
                    "output": "0x000000000000000000000000000000000000000000000008224aab0012e8a083",
                    "revert": false,
                    "revertMessage": "",
                    "selector": "0x70a08231",
                    "status": true,
                    "value": "0"
                },
                "nodeType": 0
            },
            "2": {
                "invocation": {
                    "address": "0xc02aaa39b223fe8d0a0e5c4f27ead9083c756cc2",
                    "callData": "0x",
                    "decodedMethod": {
                        "callParams": [],
                        "constructorArguments": "",
                        "name": "deposit",
                        "returnParams": [],
                        "signature": "deposit()"
                    },
                    "errorInfo": "",
                    "fromAddress": "0x68b3465833fb72a70ecdf485e0e4c7bd8665fc45",
                    "gasUsed": 23974,
                    "id": 2,
                    "methodDecoded": true,
                    "operation": "CALL",
                    "output": "",
                    "revert": false,
                    "revertMessage": "",
                    "selector": "0xd0e30db0",
                    "status": true,
                    "value": "0.162"
                },
                "nodeType": 0
            },
            "3": {
                "event": {
                    "contract": "0xc02aaa39b223fe8d0a0e5c4f27ead9083c756cc2",
                    "decodedLog": {
                        "name": "Deposit",
                        "params": [
                            {
                                "name": "dst",
                                "type": "address",
                                "value": "0x68b3465833fb72a70ecdf485e0e4c7bd8665fc45"
                            },
                            {
                                "name": "wad",
                                "type": "uint256",
                                "value": "162,000,000,000,000,000"
                            }
                        ],
                        "signature": "Deposit(address,uint256)"
                    },
                    "id": 3,
                    "logData": "0x000000000000000000000000000000000000000000000000023f8a24459d0000",
                    "logDecoded": true,
                    "operation": "EVENT",
                    "revert": false,
                    "status": true,
                    "topics": [
                        "0xe1fffcc4923d04b559f4d29a8bfc6cda04eb5b0d3c460751c2402c5c5cc9109c",
                        "0x00000000000000000000000068b3465833fb72a70ecdf485e0e4c7bd8665fc45"
                    ]
                },
                "nodeType": 1
            },
            "4": {
                "invocation": {
                    "address": "0xc02aaa39b223fe8d0a0e5c4f27ead9083c756cc2",
                    "callData": "0x0000000000000000000000009cbfb60a09a9a33a10312da0f39977cbdb7fde23000000000000000000000000000000000000000000000000023f8a24459d0000",
                    "decodedMethod": {
                        "callParams": [
                            {
                                "name": "dst",
                                "type": "address",
                                "value": "0x9cbfb60a09a9a33a10312da0f39977cbdb7fde23"
                            },
                            {
                                "decimalAvailable": true,
                                "name": "wad",
                                "type": "uint256",
                                "value": "162,000,000,000,000,000"
                            }
                        ],
                        "constructorArguments": "",
                        "name": "transfer",
                        "returnParams": [
                            {
                                "name": "",
                                "type": "bool",
                                "value": true
                            }
                        ],
                        "signature": "transfer(address,uint256)"
                    },
                    "errorInfo": "",
                    "fromAddress": "0x68b3465833fb72a70ecdf485e0e4c7bd8665fc45",
                    "gasUsed": 8062,
                    "id": 4,
                    "methodDecoded": true,
                    "operation": "CALL",
                    "output": "0x0000000000000000000000000000000000000000000000000000000000000001",
                    "revert": false,
                    "revertMessage": "",
                    "selector": "0xa9059cbb",
                    "status": true,
                    "value": "0"
                },
                "nodeType": 0
            },
            "5": {
                "event": {
                    "contract": "0xc02aaa39b223fe8d0a0e5c4f27ead9083c756cc2",
                    "decodedLog": {
                        "name": "Transfer",
                        "params": [
                            {
                                "name": "src",
                                "type": "address",
                                "value": "0x68b3465833fb72a70ecdf485e0e4c7bd8665fc45"
                            },
                            {
                                "name": "dst",
                                "type": "address",
                                "value": "0x9cbfb60a09a9a33a10312da0f39977cbdb7fde23"
                            },
                            {
                                "decimalAvailable": true,
                                "name": "wad",
                                "type": "uint256",
                                "value": "162,000,000,000,000,000"
                            }
                        ],
                        "signature": "Transfer(address,address,uint256)"
                    },
                    "id": 5,
                    "logData": "0x000000000000000000000000000000000000000000000000023f8a24459d0000",
                    "logDecoded": true,
                    "operation": "EVENT",
                    "revert": false,
                    "status": true,
                    "topics": [
                        "0xddf252ad1be2c89b69c2b068fc378daa952ba7f163c4a11628f55a4df523b3ef",
                        "0x00000000000000000000000068b3465833fb72a70ecdf485e0e4c7bd8665fc45",
                        "0x0000000000000000000000009cbfb60a09a9a33a10312da0f39977cbdb7fde23"
                    ]
                },
                "nodeType": 1
            },
            "6": {
                "invocation": {
                    "address": "0x8b3192f5eebd8579568a2ed41e6feb402f93f73f",
                    "callData": "0x000000000000000000000000bd7fc7a2bb536f6bbaafcab08df61446f36f521e",
                    "decodedMethod": {
                        "callParams": [
                            {
                                "name": "account",
                                "type": "address",
                                "value": "0xbd7fc7a2bb536f6bbaafcab08df61446f36f521e"
                            }
                        ],
                        "constructorArguments": "",
                        "name": "balanceOf",
                        "returnParams": [
                            {
                                "decimalAvailable": true,
                                "name": "",
                                "type": "uint256",
                                "value": "136,281,191,388,689,305,693"
                            }
                        ],
                        "signature": "balanceOf(address)"
                    },
                    "errorInfo": "",
                    "fromAddress": "0x68b3465833fb72a70ecdf485e0e4c7bd8665fc45",
                    "gasUsed": 10272,
                    "id": 6,
                    "methodDecoded": true,
                    "operation": "STATICCALL",
                    "output": "0x00000000000000000000000000000000000000000000000763480d84f1d9905d",
                    "revert": false,
                    "revertMessage": "",
                    "selector": "0x70a08231",
                    "status": true,
                    "value": "0"
                },
                "nodeType": 0
            },
            "7": {
                "invocation": {
                    "address": "0x9cbfb60a09a9a33a10312da0f39977cbdb7fde23",
                    "callData": "0x",
                    "decodedMethod": {
                        "callParams": [],
                        "constructorArguments": "",
                        "name": "getReserves",
                        "returnParams": [
                            {
                                "name": "_reserve0",
                                "type": "uint112",
                                "value": "280,846,089,732,579,909,012,934"
                            },
                            {
                                "name": "_reserve1",
                                "type": "uint112",
                                "value": "3,229,583,910,646,752,829,044"
                            },
                            {
                                "name": "_blockTimestampLast",
                                "type": "uint32",
                                "value": "1,642,338,591"
                            }
                        ],
                        "signature": "getReserves()"
                    },
                    "errorInfo": "",
                    "fromAddress": "0x68b3465833fb72a70ecdf485e0e4c7bd8665fc45",
                    "gasUsed": 2504,
                    "id": 7,
                    "methodDecoded": true,
                    "operation": "STATICCALL",
                    "output": "0x000000000000000000000000000000000000000000003b78b270a16d01b98dc60000000000000000000000000000000000000000000000af137aefaa10995e740000000000000000000000000000000000000000000000000000000061e4191f",
                    "revert": false,
                    "revertMessage": "",
                    "selector": "0x0902f1ac",
                    "status": true,
                    "value": "0"
                },
                "nodeType": 0
            },
            "8": {
                "invocation": {
                    "address": "0xc02aaa39b223fe8d0a0e5c4f27ead9083c756cc2",
                    "callData": "0x0000000000000000000000009cbfb60a09a9a33a10312da0f39977cbdb7fde23",
                    "decodedMethod": {
                        "callParams": [
                            {
                                "name": "",
                                "type": "address",
                                "value": "0x9cbfb60a09a9a33a10312da0f39977cbdb7fde23"
                            }
                        ],
                        "constructorArguments": "",
                        "name": "balanceOf",
                        "returnParams": [
                            {
                                "decimalAvailable": true,
                                "name": "",
                                "type": "uint256",
                                "value": "3,229,745,910,646,752,829,044"
                            }
                        ],
                        "signature": "balanceOf(address)"
                    },
                    "errorInfo": "",
                    "fromAddress": "0x68b3465833fb72a70ecdf485e0e4c7bd8665fc45",
                    "gasUsed": 534,
                    "id": 8,
                    "methodDecoded": true,
                    "operation": "STATICCALL",
                    "output": "0x0000000000000000000000000000000000000000000000af15ba79ce56365e74",
                    "revert": false,
                    "revertMessage": "",
                    "selector": "0x70a08231",
                    "status": true,
                    "value": "0"
                },
                "nodeType": 0
            },
            "9": {
                "invocation": {
                    "address": "0x9cbfb60a09a9a33a10312da0f39977cbdb7fde23",
                    "callData": "0x000000000000000000000000000000000000000000000000c2e88b67e06ea8200000000000000000000000000000000000000000000000000000000000000000000000000000000000000000bd7fc7a2bb536f6bbaafcab08df61446f36f521e00000000000000000000000000000000000000000000000000000000000000800000000000000000000000000000000000000000000000000000000000000000",
                    "decodedMethod": {
                        "callParams": [
                            {
                                "name": "amount0Out",
                                "type": "uint256",
                                "value": "14,044,628,716,218,132,512"
                            },
                            {
                                "name": "amount1Out",
                                "type": "uint256",
                                "value": "0"
                            },
                            {
                                "name": "to",
                                "type": "address",
                                "value": "0xbd7fc7a2bb536f6bbaafcab08df61446f36f521e"
                            },
                            {
                                "name": "data",
                                "type": "bytes",
                                "value": "0x"
                            }
                        ],
                        "constructorArguments": "",
                        "name": "swap",
                        "returnParams": [],
                        "signature": "swap(uint256,uint256,address,bytes)"
                    },
                    "errorInfo": "",
                    "fromAddress": "0x68b3465833fb72a70ecdf485e0e4c7bd8665fc45",
                    "gasUsed": 64143,
                    "id": 9,
                    "methodDecoded": true,
                    "operation": "CALL",
                    "output": "",
                    "revert": false,
                    "revertMessage": "",
                    "selector": "0x022c0d9f",
                    "status": true,
                    "value": "0"
                },
                "nodeType": 0
            }
        },
        "gasFlame": [
            {
                "children": [
                    {
                        "children": [
                            {
                                "children": [],
                                "depth": 0,
                                "name": "Initial Gas",
                                "value": 23784
                            },
                            {
                                "children": [
                                    {
                                        "children": [
                                            {
                                                "children": [],
                                                "depth": 2,
                                                "name": "deposit",
                                                "value": 23974
                                            },
                                            {
                                                "children": [],
                                                "depth": 2,
                                                "name": "transfer",
                                                "value": 8062
                                            },
                                            {
                                                "children": [],
                                                "depth": 2,
                                                "name": "balanceOf",
                                                "value": 10272
                                            },
                                            {
                                                "children": [],
                                                "depth": 2,
                                                "name": "getReserves",
                                                "value": 2504
                                            },
                                            {
                                                "children": [],
                                                "depth": 2,
                                                "name": "balanceOf",
                                                "value": 534
                                            },
                                            {
                                                "children": [
                                                    {
                                                        "children": [],
                                                        "depth": 3,
                                                        "name": "transfer",
                                                        "value": 30017
                                                    },
                                                    {
                                                        "children": [],
                                                        "depth": 3,
                                                        "name": "balanceOf",
                                                        "value": 2272
                                                    },
                                                    {
                                                        "children": [],
                                                        "depth": 3,
                                                        "name": "balanceOf",
                                                        "value": 534
                                                    }
                                                ],
                                                "depth": 2,
                                                "name": "swap",
                                                "value": 64143
                                            },
                                            {
                                                "children": [],
                                                "depth": 2,
                                                "name": "balanceOf",
                                                "value": 2272
                                            }
                                        ],
                                        "depth": 1,
                                        "name": "swapExactTokensForTokens",
                                        "value": 134693
                                    }
                                ],
                                "depth": 0,
                                "name": "Executed Gas",
                                "value": 136871
                            }
                        ],
                        "depth": -1,
                        "name": "Actual Gas Used",
                        "value": 137955
                    },
                    {
                        "children": [],
                        "depth": -1,
                        "name": "Refunded Gas",
                        "value": 22700
                    }
                ],
                "depth": -2,
                "name": "Total Gas",
                "value": 160655
            }
        ],
        "isConfirmed": true,
        "mainTrace": [
            {
                "children": [
                    {
                        "children": [
                            {
                                "children": [
                                    {
                                        "children": [
                                            {
                                                "children": [],
                                                "depth": 3,
                                                "id": 3,
                                                "order": 3
                                            }
                                        ],
                                        "depth": 2,
                                        "id": 2,
                                        "order": 2
                                    },
                                    {
                                        "children": [
                                            {
                                                "children": [],
                                                "depth": 3,
                                                "id": 5,
                                                "order": 5
                                            }
                                        ],
                                        "depth": 2,
                                        "id": 4,
                                        "order": 4
                                    },
                                    {
                                        "children": [],
                                        "depth": 2,
                                        "id": 6,
                                        "order": 6
                                    },
                                    {
                                        "children": [],
                                        "depth": 2,
                                        "id": 7,
                                        "order": 7
                                    },
                                    {
                                        "children": [],
                                        "depth": 2,
                                        "id": 8,
                                        "order": 8
                                    },
                                    {
                                        "children": [
                                            {
                                                "children": [
                                                    {
                                                        "children": [],
                                                        "depth": 4,
                                                        "id": 11,
                                                        "order": 11
                                                    }
                                                ],
                                                "depth": 3,
                                                "id": 10,
                                                "order": 10
                                            },
                                            {
                                                "children": [],
                                                "depth": 3,
                                                "id": 12,
                                                "order": 12
                                            },
                                            {
                                                "children": [],
                                                "depth": 3,
                                                "id": 13,
                                                "order": 13
                                            },
                                            {
                                                "children": [],
                                                "depth": 3,
                                                "id": 14,
                                                "order": 14
                                            },
                                            {
                                                "children": [],
                                                "depth": 3,
                                                "id": 15,
                                                "order": 15
                                            }
                                        ],
                                        "depth": 2,
                                        "id": 9,
                                        "order": 9
                                    },
                                    {
                                        "children": [],
                                        "depth": 2,
                                        "id": 16,
                                        "order": 16
                                    }
                                ],
                                "depth": 1,
                                "id": 1,
                                "order": 1
                            }
                        ],
                        "depth": 0,
                        "id": 0,
                        "order": 0
                    }
                ],
                "depth": -1,
                "id": -1,
                "order": -1
            }
        ],
        "mainTraceNodeCount": 17,
        "parentIdMap": {
            "0": -1,
            "1": 0,
            "10": 9,
            "11": 10,
            "12": 9,
            "13": 9,
            "14": 9,
            "15": 9,
            "16": 1,
            "2": 1,
            "3": 2,
            "4": 1,
            "5": 4,
            "6": 1,
            "7": 1,
            "8": 1,
            "9": 1
        },
        "tidyTrace": [
            {
                "children": [
                    {
                        "children": [
                            {
                                "children": [
                                    {
                                        "children": [
                                            {
                                                "children": [],
                                                "depth": 3,
                                                "id": 3,
                                                "order": 3
                                            }
                                        ],
                                        "depth": 2,
                                        "id": 2,
                                        "order": 2
                                    },
                                    {
                                        "children": [
                                            {
                                                "children": [],
                                                "depth": 3,
                                                "id": 5,
                                                "order": 5
                                            }
                                        ],
                                        "depth": 2,
                                        "id": 4,
                                        "order": 4
                                    },
                                    {
                                        "children": [
                                            {
                                                "children": [
                                                    {
                                                        "children": [],
                                                        "depth": 4,
                                                        "id": 11,
                                                        "order": 11
                                                    }
                                                ],
                                                "depth": 3,
                                                "id": 10,
                                                "order": 10
                                            },
                                            {
                                                "children": [],
                                                "depth": 3,
                                                "id": 14,
                                                "order": 14
                                            },
                                            {
                                                "children": [],
                                                "depth": 3,
                                                "id": 15,
                                                "order": 15
                                            }
                                        ],
                                        "depth": 2,
                                        "id": 9,
                                        "order": 9
                                    }
                                ],
                                "depth": 1,
                                "id": 1,
                                "order": 1
                            }
                        ],
                        "depth": 0,
                        "id": 0,
                        "order": 0
                    }
                ],
                "depth": -1,
                "id": -1,
                "order": -1
            }
        ],
        "tidyTraceNodeCount": 11
    },
    "state_change": {
        "stateChanges": [
            {
                "address": "0x8b3192f5eebd8579568a2ed41e6feb402f93f73f",
                "erc": "ERC-20",
                "slots": [
                    {
                        "current": "0x0000000000000000000000000000000000000000000ea482bc5220ac012fdf66",
                        "key": "0x0000000000000000000000000000000000000000000000000000000000000007",
                        "prev": "0x0000000000000000000000000000000000000000000ea482b86c325d2089d1cc"
                    },
                    {
                        "current": "0x009a2beb696b38b5c5026974707bd5ece50ade0b9c0f76c88a3d9d6b8372a5c4",
                        "key": "0x38402a1112572b94f3ae0210c4d91db96dd5779e685b8af0cb890333acd7b505",
                        "prev": "0x009a2de4b5c5c5f6f58e76d01923ae8306a0cd30fdfa54c073def5900b27d6c4"
                    },
                    {
                        "current": "0x0000151652a730414fe7fee6e81dcecb88ea7ba29aabe3539881e0f401c15c91",
                        "key": "0xd9b6019d6521a5ce129a0b537ac9933b667da1a171e36ad50a721ce99b485986",
                        "prev": "0x00001327216d2af210f85796c2271cb11054963ff837d96744ce123fcfbe0b61"
                    },
                    {
                        "current": "0xd6722307debfb13ebbadad25f26b6f72003d79695b38fc0f31c56d8fc57429d8",
                        "key": "0x0000000000000000000000000000000000000000000000000000000000000006",
                        "prev": "0xd6722311f9e03930ad4a1331751c95eda93d832c1aafd01ac7b2f7001b2609a8"
                    }
                ],
                "storageVariables": [
                    {
                        "name": "_tFeeTotal",
                        "type": "uint256",
                        "value": {
                            "current": "17701841224469562849746790",
                            "prev": "17701840943576988525384140",
                            "typeTag": 1
                        }
                    },
                    {
                        "name": "_rOwned",
                        "type": "mapping(address => uint256)",
                        "value": {
                            "pairs": [
                                {
                                    "key": "0x9cbfb60a09a9a33a10312da0f39977cbdb7fde23",
                                    "value": {
                                        "current": "272397569758148963022435691810979645946622886603741400519980366453200299460",
                                        "prev": "272411192572200880911829550611487313782181299162846991950497196995340916420",
                                        "typeTag": 1
                                    }
                                },
                                {
                                    "key": "0xbd7fc7a2bb536f6bbaafcab08df61446f36f521e",
                                    "value": {
                                        "current": "145538496494554240493643882891401834492849879174476167595743427141131409",
                                        "prev": "132188138723674708887429466524588251706281275702263572300565922193476449",
                                        "typeTag": 1
                                    }
                                }
                            ],
                            "typeTag": 4
                        }
                    },
                    {
                        "name": "_rTotal",
                        "type": "uint256",
                        "value": {
                            "current": "96996611935503693680098690994363104430569582260352414980486543720360002726360",
                            "prev": "96996612207959974718456478638747245284822354104308048359321765373397195688360",
                            "typeTag": 1
                        }
                    }
                ]
            },
            {
                "address": "0x9cbfb60a09a9a33a10312da0f39977cbdb7fde23",
                "erc": "ERC-20",
                "slots": [
                    {
                        "current": "0x00000000000000000000000000000001e7478d5552bc22d4a06efa1fad7bb06e",
                        "key": "0x0000000000000000000000000000000000000000000000000000000000000009",
                        "prev": "0x00000000000000000000000000000001e7473ae7af985d9799bfef47cf304d32"
                    },
                    {
                        "current": "0x000000000000000000000000006d8c8d27ca59efd4d3303112bd6bbda9d6e2ab",
                        "key": "0x000000000000000000000000000000000000000000000000000000000000000a",
                        "prev": "0x000000000000000000000000006d8c8d1e4775634a29debc67672aeb5a866487"
                    },
                    {
                        "current": "0x61e4193b0000000000af15ba79ce56365e74000000003b77ef8aefb7fbb22c03",
                        "key": "0x0000000000000000000000000000000000000000000000000000000000000008",
                        "prev": "0x61e4191f0000000000af137aefaa10995e74000000003b78b270a16d01b98dc6"
                    }
                ],
                "storageVariables": [
                    {
                        "name": "price0CumulativeLast",
                        "type": "uint256",
                        "value": {
                            "current": "647705553603963144805946635031676694638",
                            "prev": "647703881760016630877663186013721218354",
                            "typeTag": 1
                        }
                    },
                    {
                        "name": "price1CumulativeLast",
                        "type": "uint256",
                        "value": {
                            "current": "2443024979374580146168722114420558233851060907",
                            "prev": "2443024966731894068248942605999363592466883719",
                            "typeTag": 1
                        }
                    },
                    {
                        "name": "reserve0",
                        "type": "uint112",
                        "value": {
                            "current": "280832045906175835909123",
                            "prev": "280846089732579909012934",
                            "typeTag": 1
                        }
                    },
                    {
                        "name": "reserve1",
                        "type": "uint112",
                        "value": {
                            "current": "3229745910646752829044",
                            "prev": "3229583910646752829044",
                            "typeTag": 1
                        }
                    },
                    {
                        "name": "blockTimestampLast",
                        "type": "uint32",
                        "value": {
                            "current": "1642338619",
                            "prev": "1642338591",
                            "typeTag": 1
                        }
                    }
                ]
            },
            {
                "address": "0xc02aaa39b223fe8d0a0e5c4f27ead9083c756cc2",
                "erc": "ERC-20",
                "slots": [
                    {
                        "current": "0x0000000000000000000000000000000000000000000000af15ba79ce56365e74",
                        "key": "0xdf29a6c4d759a2eb5672c49e042e19a1c09dda4c923ce4e135a3d384e03afd61",
                        "prev": "0x0000000000000000000000000000000000000000000000af137aefaa10995e74"
                    }
                ],
                "storageVariables": [
                    {
                        "name": "balanceOf",
                        "type": "mapping(address => uint256)",
                        "value": {
                            "pairs": [
                                {
                                    "key": "0x9cbfb60a09a9a33a10312da0f39977cbdb7fde23",
                                    "value": {
                                        "current": "3229745910646752829044",
                                        "prev": "3229583910646752829044",
                                        "typeTag": 1
                                    }
                                }
                            ],
                            "typeTag": 4
                        }
                    }
                ]
            }
        ]
    }
}