{
    "balance_change": {
        "balanceChanges": [
            {
                "account": "0x9aab3f81604c683a1a0d14019fbfe15bef7aa1ee",
                "assets": [
                    {
                        "address": "0xeeeeeeeeeeeeeeeeeeeeeeeeeeeeeeeeeeeeeeee",
                        "amount": "0.000000000000054276",
                        "iconUrl": "https://assets.blocksec.com/image/1663669189317-3.png",
                        "isERC1155": false,
                        "isERC721": false,
                        "sign": false,
                        "value": "0.000000000085264882200000002467"
                    }
                ]
            },
            {
                "account": "0xa69babef1ca67a37ffaf7a485dfff3382056e78c",
                "assets": [
                    {
                        "address": "0xeeeeeeeeeeeeeeeeeeeeeeeeeeeeeeeeeeeeeeee",
                        "amount": "0.000000000000054276",
                        "iconUrl": "https://assets.blocksec.com/image/1663669189317-3.png",
                        "isERC1155": false,
                        "isERC721": false,
                        "sign": true,
                        "value": "0.000000000085264882200000002467"
                    }
                ]
            },
            {
                "account": "0x56178a0d5f301baf6cf3e1cd53d9863437345bf9",
                "assets": [
                    {
                        "address": "0xc02aaa39b223fe8d0a0e5c4f27ead9083c756cc2",
                        "amount": "13.628371785624313224",
                        "iconUrl": "https://assets.blocksec.com/icon/f1cb2d02c471d545bbc7722daf3277fd852d98e63d118771af7047bd8256c516.png",
                        "isERC1155": false,
                        "isERC721": false,
                        "sign": true,
                        "value": "21409.49066350050062"
                    },
                    {
                        "address": "0x5a98fcbea516cf06857215779fd812ca3bef1b32",
                        "amount": "7,768.085283059586688002",
                        "iconUrl": "https://assets.blocksec.com/icon/3878691d1a2d54915a451767a8b7abce85c16fd7fc528d5b81becb8ae316240e.png",
                        "isERC1155": false,
                        "isERC721": false,
                        "sign": false,
                        "value": "21129.191969760001518"
                    }
                ]
            },
            {
                "account": "0xa3f558aebaecaf0e11ca4b2199cc5ed341edfd74",
                "assets": [
                    {
                        "address": "0x5a98fcbea516cf06857215779fd812ca3bef1b32",
                        "amount": "7,768.085283059586688002",
                        "iconUrl": "https://assets.blocksec.com/icon/3878691d1a2d54915a451767a8b7abce85c16fd7fc528d5b81becb8ae316240e.png",
                        "isERC1155": false,
                        "isERC721": false,
                        "sign": true,
                        "value": "21129.191969760001518"
                    },
                    {
                        "address": "0xc02aaa39b223fe8d0a0e5c4f27ead9083c756cc2",
                        "amount": "13.628371785624313224",
                        "iconUrl": "https://assets.blocksec.com/icon/f1cb2d02c471d545bbc7722daf3277fd852d98e63d118771af7047bd8256c516.png",
                        "isERC1155": false,
                        "isERC721": false,
                        "sign": false,
                        "value": "21409.49066350050062"
                    }
                ]
            }
        ]
    },
    "profile": {
        "basic_info": {
            "baseFee": "16.861145363",
            "blockNumber": 16752800,
            "callData": "0x78e111f6000000000000000000000000d6419f809083615b03f4f6e5f58c067c969bee59000000000000000000000000000000000000000000000000000000000000004000000000000000000000000000000000000000000000000000000000000000c402d489830000000000000000000000000000000000000000000001a51bd6d7dcea65e402000000000000000000000000000000000000000000017282a2a20ab89000000000000000000000000000000000000000000000000ab971405fb989d9310f5b1f000000000000000000000000000000000000000000000000000637546065da9f000000000000000000000000000000000000000000000000000000006402cd4c00000000000000000000000000000000000000000abb7291d0b76c1515e80aed00000000000000000000000000000000000000000000000000000000",
            "debugEnable": true,
            "errorInfo": "",
            "eventCount": 3,
            "feeRecipient": "0x95222290dd7278aa3ddd389cc1e1d165cc4bafe5",
            "formatValue": "0.000000000000054276",
            "gasLimit": 421304,
            "gasPrice": "16.885865102",
            "gasUsed": 210728,
            "intTxnCount": 14,
            "internalRevert": false,
            "internalRevertMessage": "",
            "isContractCreation": false,
            "isFlashloan": false,
            "maxFee": "25.316437783",
            "nonce": 144468,
            "overwritedBlockNumber": -1,
            "priorityFee": "0.024719739",
            "receiver": "0xa69babef1ca67a37ffaf7a485dfff3382056e78c",
            "revertMessage": "",
            "sender": "0x9aab3f81604c683a1a0d14019fbfe15bef7aa1ee",
            "simulationEnable": true,
            "sourceTxnHash": "0xc8aa43b660b8ca4d02176c8960ff9acaba76036070fb3bf8a3aa84726ca48b13",
            "status": true,
            "timestamp": "2023-03-04T04:46:11Z",
            "transactionFee": "0.003558324581214256",
            "txnHash": "0xc8aa43b660b8ca4d02176c8960ff9acaba76036070fb3bf8a3aa84726ca48b13",
            "txnIndex": 3,
            "type": 2,
            "value": "54276"
        },
        "fund_flow": [
            {
                "amount": "0.000000000000054276",
                "from": "0x9aab3f81604c683a1a0d14019fbfe15bef7aa1ee",
                "id": 1,
                "isERC1155": false,
                "isERC721": false,
                "isReverted": false,
                "order": 1,
                "to": "0xa69babef1ca67a37ffaf7a485dfff3382056e78c",
                "token": "0xeeeeeeeeeeeeeeeeeeeeeeeeeeeeeeeeeeeeeeee"
            },
            {
                "amount": "13.628371785624313224",
                "from": "0xa3f558aebaecaf0e11ca4b2199cc5ed341edfd74",
                "id": 2,
                "isERC1155": false,
                "isERC721": false,
                "isReverted": false,
                "order": 2,
                "to": "0x56178a0d5f301baf6cf3e1cd53d9863437345bf9",
                "token": "0xc02aaa39b223fe8d0a0e5c4f27ead9083c756cc2"
            },
            {
                "amount": "7,768.085283059586688002",
                "from": "0x56178a0d5f301baf6cf3e1cd53d9863437345bf9",
                "id": 3,
                "isERC1155": false,
                "isERC721": false,
                "isReverted": false,
                "order": 3,
                "to": "0xa3f558aebaecaf0e11ca4b2199cc5ed341edfd74",
                "token": "0x5a98fcbea516cf06857215779fd812ca3bef1b32"
            }
        ],
        "token_infos": [
            {
                "address": "0x5a98fcbea516cf06857215779fd812ca3bef1b32",
                "decimals": 18
            },
            {
                "address": "0xc02aaa39b223fe8d0a0e5c4f27ead9083c756cc2",
                "decimals": 18
            },
            {
                "address": "0xeeeeeeeeeeeeeeeeeeeeeeeeeeeeeeeeeeeeeeee",
                "decimals": 18
            }
        ]
    },
    "address_label": {
        "labels": [
            {
                "address": "0x0000000000000000000000000000000000000004",
                "label": "Precompiled"
            },
            {
                "address": "0xa69babef1ca67a37ffaf7a485dfff3382056e78c",
                "label": "MEV Bot: 0xA69...78C"
            },
            {
                "address": "0xc02aaa39b223fe8d0a0e5c4f27ead9083c756cc2",
                "label": "Wrapped Ether (WETH)"
            },
            {
                "address": "0xa3f558aebaecaf0e11ca4b2199cc5ed341edfd74",
                "label": "Uniswap V3: LDO 2"
            },
            {
                "address": "0x5a98fcbea516cf06857215779fd812ca3bef1b32",
                "label": "Lido: LDO Token"
            },
            {
                "address": "0x0000000000000000000000000000000000000001",
                "label": "Precompiled"
            },
            {
                "address": "0x0000000000000000000000000000000000000002",
                "label": "Precompiled"
            },
            {
                "address": "0xeeeeeeeeeeeeeeeeeeeeeeeeeeeeeeeeeeeeeeee",
                "label": "Ether"
            },
            {
                "address": "0x2b33cf282f867a7ff693a66e11b0fcc5552e4425",
                "label": "Lido: DAO Impl 1.0.0"
            },
            {
                "address": "0xde3a93028f2283cc28756b3674bd657eafb992f4",
                "label": "Lido: Aragon Token Manager Impl"
            },
            {
                "address": "0x0000000000000000000000000000000000000003",
                "label": "Precompiled"
            },
            {
                "address": "0xb8ffc3cd6e7cf5a098a1c92f48009765b24088dc",
                "label": "Lido: DAO"
            },
            {
                "address": "0xf73a1260d222f447210581ddf212d915c09a3249",
                "label": "Lido: Aragon Token Manager"
            }
        ]
    },
    "trace": {
        "accountLabels": null,
        "dataMap": {
            "-1": {
                "invocation": {
                    "address": "0x9aab3f81604c683a1a0d14019fbfe15bef7aa1ee",
                    "callData": "",
                    "decodedMethod": null,
                    "errorInfo": "",
                    "fromAddress": "",
                    "gasUsed": 0,
                    "id": -1,
                    "methodDecoded": false,
                    "operation": "",
                    "output": "",
                    "revert": false,
                    "revertMessage": "",
                    "selector": "",
                    "status": false,
                    "value": ""
                },
                "nodeType": 0
            },
            "0": {
                "invocation": {
                    "address": "0xa69babef1ca67a37ffaf7a485dfff3382056e78c",
                    "callData": "0x000000000000000000000000d6419f809083615b03f4f6e5f58c067c969bee59000000000000000000000000000000000000000000000000000000000000004000000000000000000000000000000000000000000000000000000000000000c402d489830000000000000000000000000000000000000000000001a51bd6d7dcea65e402000000000000000000000000000000000000000000017282a2a20ab89000000000000000000000000000000000000000000000000ab971405fb989d9310f5b1f000000000000000000000000000000000000000000000000000637546065da9f000000000000000000000000000000000000000000000000000000006402cd4c00000000000000000000000000000000000000000abb7291d0b76c1515e80aed00000000000000000000000000000000000000000000000000000000",
                    "decodedMethod": {
                        "callParams": [
                            {
                                "name": "_address",
                                "type": "address",
                                "value": "0xd6419f809083615b03f4f6e5f58c067c969bee59"
                            },
                            {
                                "name": "_bytes",
                                "type": "bytes",
                                "value": "0x02d489830000000000000000000000000000000000000000000001a51bd6d7dcea65e402000000000000000000000000000000000000000000017282a2a20ab89000000000000000000000000000000000000000000000000ab971405fb989d9310f5b1f000000000000000000000000000000000000000000000000000637546065da9f000000000000000000000000000000000000000000000000000000006402cd4c00000000000000000000000000000000000000000abb7291d0b76c1515e80aed"
                            }
                        ],
                        "constructorArguments": "",
                        "name": "executeFFsYo",
                        "returnParams": [],
                        "signature": "executeFFsYo(address,bytes)"
                    },
                    "errorInfo": "",
                    "fromAddress": "0x9aab3f81604c683a1a0d14019fbfe15bef7aa1ee",
                    "gasUsed": 210728,
                    "id": 0,
                    "methodDecoded": true,
                    "operation": "CALL",
                    "output": "0x000000000000000000000000000000000000000000000000000000000000002000000000000000000000000000000000000000000000000000000000000000400000000000000000000000000000000000000000000001a51bd6d7dcea65e402000000000000000000000000000000000000000000000000008243eb155c0e0b",
                    "revert": false,
                    "revertMessage": "",
                    "selector": "0x78e111f6",
                    "status": true,
                    "value": "0.000000000000054276"
                },
                "nodeType": 0
            },
            "1": {
                "invocation": {
                    "address": "0xd6419f809083615b03f4f6e5f58c067c969bee59",
                    "callData": "0x0000000000000000000000000000000000000000000001a51bd6d7dcea65e402000000000000000000000000000000000000000000017282a2a20ab89000000000000000000000000000000000000000000000000ab971405fb989d9310f5b1f000000000000000000000000000000000000000000000000000637546065da9f000000000000000000000000000000000000000000000000000000006402cd4c00000000000000000000000000000000000000000abb7291d0b76c1515e80aed",
                    "decodedMethod": null,
                    "errorInfo": "",
                    "fromAddress": "0xa69babef1ca67a37ffaf7a485dfff3382056e78c",
                    "gasUsed": 183086,
                    "id": 1,
                    "methodDecoded": false,
                    "operation": "DELEGATECALL",
                    "output": "0x0000000000000000000000000000000000000000000001a51bd6d7dcea65e402000000000000000000000000000000000000000000000000008243eb155c0e0b",
                    "revert": false,
                    "revertMessage": "",
                    "selector": "0x02d48983",
                    "status": true,
                    "value": "0.000000000000054276"
                },
                "nodeType": 0
            },
            "10": {
                "invocation": {
                    "address": "0xb8ffc3cd6e7cf5a098a1c92f48009765b24088dc",
                    "callData": "0xf1f3eb40f5bc1ad1344716ced8b8a0431d840b5783aea1fd01786bc26f35ac0fcd567bdf93dd0f6acc3bc7f2155f83244d56a65abbfbefb763e015420102c67b",
                    "decodedMethod": {
                        "callParams": [
                            {
                                "name": "_namespace",
                                "type": "bytes32",
                                "value": "0xf1f3eb40f5bc1ad1344716ced8b8a0431d840b5783aea1fd01786bc26f35ac0f"
                            },
                            {
                                "name": "_appId",
                                "type": "bytes32",
                                "value": "0xcd567bdf93dd0f6acc3bc7f2155f83244d56a65abbfbefb763e015420102c67b"
                            }
                        ],
                        "constructorArguments": "",
                        "name": "getApp",
                        "returnParams": [
                            {
                                "name": "",
                                "type": "address",
                                "value": "0xde3a93028f2283cc28756b3674bd657eafb992f4"
                            }
                        ],
                        "signature": "getApp(bytes32,bytes32)"
                    },
                    "errorInfo": "",
                    "fromAddress": "0xf73a1260d222f447210581ddf212d915c09a3249",
                    "gasUsed": 8263,
                    "id": 10,
                    "methodDecoded": true,
                    "operation": "CALL",
                    "output": "0x000000000000000000000000de3a93028f2283cc28756b3674bd657eafb992f4",
                    "revert": false,
                    "revertMessage": "",
                    "selector": "0xbe00bbd8",
                    "status": true,
                    "value": "0"
                },
                "nodeType": 0
            },
            "11": {
                "invocation": {
                    "address": "0x2b33cf282f867a7ff693a66e11b0fcc5552e4425",
                    "callData": "0xf1f3eb40f5bc1ad1344716ced8b8a0431d840b5783aea1fd01786bc26f35ac0fcd567bdf93dd0f6acc3bc7f2155f83244d56a65abbfbefb763e015420102c67b",
                    "decodedMethod": {
                        "callParams": [
                            {
                                "name": "_namespace",
                                "type": "bytes32",
                                "value": "0xf1f3eb40f5bc1ad1344716ced8b8a0431d840b5783aea1fd01786bc26f35ac0f"
                            },
                            {
                                "name": "_appId",
                                "type": "bytes32",
                                "value": "0xcd567bdf93dd0f6acc3bc7f2155f83244d56a65abbfbefb763e015420102c67b"
                            }
                        ],
                        "constructorArguments": "",
                        "name": "getApp",
                        "returnParams": [
                            {
                                "name": "",
                                "type": "address",
                                "value": "0xde3a93028f2283cc28756b3674bd657eafb992f4"
                            }
                        ],
                        "signature": "getApp(bytes32,bytes32)"
                    },
                    "errorInfo": "",
                    "fromAddress": "0xb8ffc3cd6e7cf5a098a1c92f48009765b24088dc",
                    "gasUsed": 2820,
                    "id": 11,
                    "methodDecoded": true,
                    "operation": "DELEGATECALL",
                    "output": "0x000000000000000000000000de3a93028f2283cc28756b3674bd657eafb992f4",
                    "revert": false,
                    "revertMessage": "",
                    "selector": "0xbe00bbd8",
                    "status": true,
                    "value": "0"
                },
                "nodeType": 0
            },
            "12": {
                "invocation": {
                    "address": "0xde3a93028f2283cc28756b3674bd657eafb992f4",
                    "callData": "0x00000000000000000000000056178a0d5f301baf6cf3e1cd53d9863437345bf9000000000000000000000000a3f558aebaecaf0e11ca4b2199cc5ed341edfd740000000000000000000000000000000000000000000001a51bd6d7dcea65e402",
                    "decodedMethod": {
                        "callParams": [
                            {
                                "name": "_from",
                                "type": "address",
                                "value": "0x56178a0d5f301baf6cf3e1cd53d9863437345bf9"
                            },
                            {
                                "name": "_to",
                                "type": "address",
                                "value": "0xa3f558aebaecaf0e11ca4b2199cc5ed341edfd74"
                            },
                            {
                                "name": "_amount",
                                "type": "uint256",
                                "value": "7,768,085,283,059,586,688,002"
                            }
                        ],
                        "constructorArguments": "",
                        "name": "onTransfer",
                        "returnParams": [
                            {
                                "name": "",
                                "type": "bool",
                                "value": true
                            }
                        ],
                        "signature": "onTransfer(address,address,uint256)"
                    },
                    "errorInfo": "",
                    "fromAddress": "0xf73a1260d222f447210581ddf212d915c09a3249",
                    "gasUsed": 12422,
                    "id": 12,
                    "methodDecoded": true,
                    "operation": "DELEGATECALL",
                    "output": "0x0000000000000000000000000000000000000000000000000000000000000001",
                    "revert": false,
                    "revertMessage": "",
                    "selector": "0x4a393149",
                    "status": true,
                    "value": "0"
                },
                "nodeType": 0
            },
            "13": {
                "invocation": {
                    "address": "0x5a98fcbea516cf06857215779fd812ca3bef1b32",
                    "callData": "0x000000000000000000000000a3f558aebaecaf0e11ca4b2199cc5ed341edfd74",
                    "decodedMethod": {
                        "callParams": [
                            {
                                "name": "_owner",
                                "type": "address",
                                "value": "0xa3f558aebaecaf0e11ca4b2199cc5ed341edfd74"
                            }
                        ],
                        "constructorArguments": "",
                        "name": "balanceOf",
                        "returnParams": [
                            {
                                "decimalAvailable": true,
                                "name": "balance",
                                "type": "uint256",
                                "value": "5,153,808,408,193,130,265,955,908"
                            }
                        ],
                        "signature": "balanceOf(address)"
                    },
                    "errorInfo": "",
                    "fromAddress": "0xf73a1260d222f447210581ddf212d915c09a3249",
                    "gasUsed": 2016,
                    "id": 13,
                    "methodDecoded": true,
                    "operation": "CALL",
                    "output": "0x00000000000000000000000000000000000000000004435c837db46bc781ce44",
                    "revert": false,
                    "revertMessage": "",
                    "selector": "0x70a08231",
                    "status": true,
                    "value": "0"
                },
                "nodeType": 0
            },
            "14": {
                "invocation": {
                    "address": "0x5a98fcbea516cf06857215779fd812ca3bef1b32",
                    "callData": "0x00000000000000000000000056178a0d5f301baf6cf3e1cd53d9863437345bf9",
                    "decodedMethod": {
                        "callParams": [
                            {
                                "name": "_owner",
                                "type": "address",
                                "value": "0x56178a0d5f301baf6cf3e1cd53d9863437345bf9"
                            }
                        ],
                        "constructorArguments": "",
                        "name": "balanceOf",
                        "returnParams": [
                            {
                                "decimalAvailable": true,
                                "name": "balance",
                                "type": "uint256",
                                "value": "204,298,359,587,885,619,968,758"
                            }
                        ],
                        "signature": "balanceOf(address)"
                    },
                    "errorInfo": "",
                    "fromAddress": "0xf73a1260d222f447210581ddf212d915c09a3249",
                    "gasUsed": 2016,
                    "id": 14,
                    "methodDecoded": true,
                    "operation": "CALL",
                    "output": "0x000000000000000000000000000000000000000000002b430948aa151dd17af6",
                    "revert": false,
                    "revertMessage": "",
                    "selector": "0x70a08231",
                    "status": true,
                    "value": "0"
                },
                "nodeType": 0
            },
            "15": {
                "event": {
                    "contract": "0x5a98fcbea516cf06857215779fd812ca3bef1b32",
                    "decodedLog": {
                        "name": "Transfer",
                        "params": [
                            {
                                "name": "_from",
                                "type": "address",
                                "value": "0x56178a0d5f301baf6cf3e1cd53d9863437345bf9"
                            },
                            {
                                "name": "_to",
                                "type": "address",
                                "value": "0xa3f558aebaecaf0e11ca4b2199cc5ed341edfd74"
                            },
                            {
                                "decimalAvailable": true,
                                "name": "_amount",
                                "type": "uint256",
                                "value": "7,768,085,283,059,586,688,002"
                            }
                        ],
                        "signature": "Transfer(address,address,uint256)"
                    },
                    "id": 15,
                    "logData": "0x0000000000000000000000000000000000000000000001a51bd6d7dcea65e402",
                    "logDecoded": true,
                    "operation": "EVENT",
                    "revert": false,
                    "status": true,
                    "topics": [
                        "0xddf252ad1be2c89b69c2b068fc378daa952ba7f163c4a11628f55a4df523b3ef",
                        "0x00000000000000000000000056178a0d5f301baf6cf3e1cd53d9863437345bf9",
                        "0x000000000000000000000000a3f558aebaecaf0e11ca4b2199cc5ed341edfd74"
                    ]
                },
                "nodeType": 1
            },
            "16": {
                "invocation": {
                    "address": "0x5a98fcbea516cf06857215779fd812ca3bef1b32",
                    "callData": "0x000000000000000000000000a3f558aebaecaf0e11ca4b2199cc5ed341edfd74",
                    "decodedMethod": {
                        "callParams": [
                            {
                                "name": "_owner",
                                "type": "address",
                                "value": "0xa3f558aebaecaf0e11ca4b2199cc5ed341edfd74"
                            }
                        ],
                        "constructorArguments": "",
                        "name": "balanceOf",
                        "returnParams": [
                            {
                                "decimalAvailable": true,
                                "name": "balance",
                                "type": "uint256",
                                "value": "5,161,576,493,476,189,852,643,910"
                            }
                        ],
                        "signature": "balanceOf(address)"
                    },
                    "errorInfo": "",
                    "fromAddress": "0xa3f558aebaecaf0e11ca4b2199cc5ed341edfd74",
                    "gasUsed": 2016,
                    "id": 16,
                    "methodDecoded": true,
                    "operation": "STATICCALL",
                    "output": "0x0000000000000000000000000000000000000000000445019f548c48b1e7b246",
                    "revert": false,
                    "revertMessage": "",
                    "selector": "0x70a08231",
                    "status": true,
                    "value": "0"
                },
                "nodeType": 0
            },
            "17": {
                "event": {
                    "contract": "0xa3f558aebaecaf0e11ca4b2199cc5ed341edfd74",
                    "decodedLog": {
                        "name": "Swap",
                        "params": [
                            {
                                "name": "sender",
                                "type": "address",
                                "value": "0xa69babef1ca67a37ffaf7a485dfff3382056e78c"
                            },
                            {
                                "name": "recipient",
                                "type": "address",
                                "value": "0x56178a0d5f301baf6cf3e1cd53d9863437345bf9"
                            },
                            {
                                "name": "amount0",
                                "type": "int256",
                                "value": "7,768,085,283,059,586,688,002"
                            },
                            {
                                "name": "amount1",
                                "type": "int256",
                                "value": "-13,628,371,785,624,313,224"
                            },
                            {
                                "name": "sqrtPriceX96",
                                "type": "uint160",
                                "value": "3,323,135,832,239,146,571,220,220,582"
                            },
                            {
                                "name": "liquidity",
                                "type": "uint128",
                                "value": "1,442,533,306,888,267,065,095,243"
                            },
                            {
                                "name": "tick",
                                "type": "int24",
                                "value": "-63,432"
                            }
                        ],
                        "signature": "Swap(address,address,int256,int256,uint160,uint128,int24)"
                    },
                    "id": 17,
                    "logData": "0x0000000000000000000000000000000000000000000001a51bd6d7dcea65e402ffffffffffffffffffffffffffffffffffffffffffffffff42de4c1132e8227800000000000000000000000000000000000000000abcd562705c1a4b61357aa6000000000000000000000000000000000000000000013177e32381dc449a744bffffffffffffffffffffffffffffffffffffffffffffffffffffffffffff0838",
                    "logDecoded": true,
                    "operation": "EVENT",
                    "revert": false,
                    "status": true,
                    "topics": [
                        "0xc42079f94a6350d7e6235f29174924f928cc2ac818eb64fed8004e115fbcca67",
                        "0x000000000000000000000000a69babef1ca67a37ffaf7a485dfff3382056e78c",
                        "0x00000000000000000000000056178a0d5f301baf6cf3e1cd53d9863437345bf9"
                    ]
                },
                "nodeType": 1
            },
            "2": {
                "invocation": {
                    "address": "0xa3f558aebaecaf0e11ca4b2199cc5ed341edfd74",
                    "callData": "0x",
                    "decodedMethod": {
                        "callParams": [],
                        "constructorArguments": "",
                        "name": "slot0",
                        "returnParams": [
                            {
                                "name": "sqrtPriceX96",
                                "type": "uint160",
                                "value": "3,323,884,342,411,827,035,496,299,195"
                            },
                            {
                                "name": "tick",
                                "type": "int24",
                                "value": "-63,428"
                            },
                            {
                                "name": "observationIndex",
                                "type": "uint16",
                                "value": "0"
                            },
                            {
                                "name": "observationCardinality",
                                "type": "uint16",
                                "value": "1"
                            },
                            {
                                "name": "observationCardinalityNext",
                                "type": "uint16",
                                "value": "1"
                            },
                            {
                                "name": "feeProtocol",
                                "type": "uint8",
                                "value": "0"
                            },
                            {
                                "name": "unlocked",
                                "type": "bool",
                                "value": true
                            }
                        ],
                        "signature": "slot0()"
                    },
                    "errorInfo": "",
                    "fromAddress": "0xa69babef1ca67a37ffaf7a485dfff3382056e78c",
                    "gasUsed": 2696,
                    "id": 2,
                    "methodDecoded": true,
                    "operation": "CALL",
                    "output": "0x00000000000000000000000000000000000000000abd73e341b54e50fac0babbffffffffffffffffffffffffffffffffffffffffffffffffffffffffffff083c00000000000000000000000000000000000000000000000000000000000000000000000000000000000000000000000000000000000000000000000000000001000000000000000000000000000000000000000000000000000000000000000100000000000000000000000000000000000000000000000000000000000000000000000000000000000000000000000000000000000000000000000000000001",
                    "revert": false,
                    "revertMessage": "",
                    "selector": "0x3850c7bd",
                    "status": true,
                    "value": "0"
                },
                "nodeType": 0
            },
            "3": {
                "invocation": {
                    "address": "0xa3f558aebaecaf0e11ca4b2199cc5ed341edfd74",
                    "callData": "0x00000000000000000000000056178a0d5f301baf6cf3e1cd53d9863437345bf900000000000000000000000000000000000000000000000000000000000000010000000000000000000000000000000000000000000001a51bd6d7dcea65e40200000000000000000000000000000000000000000ab971405fb989d9310f5b1f00000000000000000000000000000000000000000000000000000000000000a00000000000000000000000000000000000000000000000000000000000000060bf2553255b38d60ddc9f2d687cd496f4875745be69bb57958349bbd716bd11f500000000000000000000000056178a0d5f301baf6cf3e1cd53d9863437345bf90000000000000000000000005a98fcbea516cf06857215779fd812ca3bef1b32",
                    "decodedMethod": {
                        "callParams": [
                            {
                                "name": "recipient",
                                "type": "address",
                                "value": "0x56178a0d5f301baf6cf3e1cd53d9863437345bf9"
                            },
                            {
                                "name": "zeroForOne",
                                "type": "bool",
                                "value": true
                            },
                            {
                                "name": "amountSpecified",
                                "type": "int256",
                                "value": "7,768,085,283,059,586,688,002"
                            },
                            {
                                "name": "sqrtPriceLimitX96",
                                "type": "uint160",
                                "value": "3,319,036,189,744,037,942,107,527,967"
                            },
                            {
                                "name": "data",
                                "type": "bytes",
                                "value": "0xbf2553255b38d60ddc9f2d687cd496f4875745be69bb57958349bbd716bd11f500000000000000000000000056178a0d5f301baf6cf3e1cd53d9863437345bf90000000000000000000000005a98fcbea516cf06857215779fd812ca3bef1b32"
                            }
                        ],
                        "constructorArguments": "",
                        "name": "swap",
                        "returnParams": [
                            {
                                "name": "amount0",
                                "type": "int256",
                                "value": "7,768,085,283,059,586,688,002"
                            },
                            {
                                "name": "amount1",
                                "type": "int256",
                                "value": "-13,628,371,785,624,313,224"
                            }
                        ],
                        "signature": "swap(address,bool,int256,uint160,bytes)"
                    },
                    "errorInfo": "",
                    "fromAddress": "0xa69babef1ca67a37ffaf7a485dfff3382056e78c",
                    "gasUsed": 176584,
                    "id": 3,
                    "methodDecoded": true,
                    "operation": "CALL",
                    "output": "0x0000000000000000000000000000000000000000000001a51bd6d7dcea65e402ffffffffffffffffffffffffffffffffffffffffffffffff42de4c1132e82278",
                    "revert": false,
                    "revertMessage": "",
                    "selector": "0x128acb08",
                    "status": true,
                    "value": "0"
                },
                "nodeType": 0
            },
            "4": {
                "invocation": {
                    "address": "0xc02aaa39b223fe8d0a0e5c4f27ead9083c756cc2",
                    "callData": "0x00000000000000000000000056178a0d5f301baf6cf3e1cd53d9863437345bf9000000000000000000000000000000000000000000000000bd21b3eecd17dd88",
                    "decodedMethod": {
                        "callParams": [
                            {
                                "name": "dst",
                                "type": "address",
                                "value": "0x56178a0d5f301baf6cf3e1cd53d9863437345bf9"
                            },
                            {
                                "decimalAvailable": true,
                                "name": "wad",
                                "type": "uint256",
                                "value": "13,628,371,785,624,313,224"
                            }
                        ],
                        "constructorArguments": "",
                        "name": "transfer",
                        "returnParams": [
                            {
                                "name": "",
                                "type": "bool",
                                "value": true
                            }
                        ],
                        "signature": "transfer(address,uint256)"
                    },
                    "errorInfo": "",
                    "fromAddress": "0xa3f558aebaecaf0e11ca4b2199cc5ed341edfd74",
                    "gasUsed": 12862,
                    "id": 4,
                    "methodDecoded": true,
                    "operation": "CALL",
                    "output": "0x0000000000000000000000000000000000000000000000000000000000000001",
                    "revert": false,
                    "revertMessage": "",
                    "selector": "0xa9059cbb",
                    "status": true,
                    "value": "0"
                },
                "nodeType": 0
            },
            "5": {
                "event": {
                    "contract": "0xc02aaa39b223fe8d0a0e5c4f27ead9083c756cc2",
                    "decodedLog": {
                        "name": "Transfer",
                        "params": [
                            {
                                "name": "src",
                                "type": "address",
                                "value": "0xa3f558aebaecaf0e11ca4b2199cc5ed341edfd74"
                            },
                            {
                                "name": "dst",
                                "type": "address",
                                "value": "0x56178a0d5f301baf6cf3e1cd53d9863437345bf9"
                            },
                            {
                                "decimalAvailable": true,
                                "name": "wad",
                                "type": "uint256",
                                "value": "13,628,371,785,624,313,224"
                            }
                        ],
                        "signature": "Transfer(address,address,uint256)"
                    },
                    "id": 5,
                    "logData": "0x000000000000000000000000000000000000000000000000bd21b3eecd17dd88",
                    "logDecoded": true,
                    "operation": "EVENT",
                    "revert": false,
                    "status": true,
                    "topics": [
                        "0xddf252ad1be2c89b69c2b068fc378daa952ba7f163c4a11628f55a4df523b3ef",
                        "0x000000000000000000000000a3f558aebaecaf0e11ca4b2199cc5ed341edfd74",
                        "0x00000000000000000000000056178a0d5f301baf6cf3e1cd53d9863437345bf9"
                    ]
                },
                "nodeType": 1
            },
            "6": {
                "invocation": {
                    "address": "0x5a98fcbea516cf06857215779fd812ca3bef1b32",
                    "callData": "0x000000000000000000000000a3f558aebaecaf0e11ca4b2199cc5ed341edfd74",
                    "decodedMethod": {
                        "callParams": [
                            {
                                "name": "_owner",
                                "type": "address",
                                "value": "0xa3f558aebaecaf0e11ca4b2199cc5ed341edfd74"
                            }
                        ],
                        "constructorArguments": "",
                        "name": "balanceOf",
                        "returnParams": [
                            {
                                "decimalAvailable": true,
                                "name": "balance",
                                "type": "uint256",
                                "value": "5,153,808,408,193,130,265,955,908"
                            }
                        ],
                        "signature": "balanceOf(address)"
                    },
                    "errorInfo": "",
                    "fromAddress": "0xa3f558aebaecaf0e11ca4b2199cc5ed341edfd74",
                    "gasUsed": 8016,
                    "id": 6,
                    "methodDecoded": true,
                    "operation": "STATICCALL",
                    "output": "0x00000000000000000000000000000000000000000004435c837db46bc781ce44",
                    "revert": false,
                    "revertMessage": "",
                    "selector": "0x70a08231",
                    "status": true,
                    "value": "0"
                },
                "nodeType": 0
            },
            "7": {
                "invocation": {
                    "address": "0xa69babef1ca67a37ffaf7a485dfff3382056e78c",
                    "callData": "0x0000000000000000000000000000000000000000000001a51bd6d7dcea65e402ffffffffffffffffffffffffffffffffffffffffffffffff42de4c1132e8227800000000000000000000000000000000000000000000000000000000000000600000000000000000000000000000000000000000000000000000000000000060bf2553255b38d60ddc9f2d687cd496f4875745be69bb57958349bbd716bd11f500000000000000000000000056178a0d5f301baf6cf3e1cd53d9863437345bf90000000000000000000000005a98fcbea516cf06857215779fd812ca3bef1b32",
                    "decodedMethod": {
                        "callParams": [
                            {
                                "name": "amount0Delta",
                                "type": "int256",
                                "value": "7,768,085,283,059,586,688,002"
                            },
                            {
                                "name": "amount1Delta",
                                "type": "int256",
                                "value": "-13,628,371,785,624,313,224"
                            },
                            {
                                "name": "data",
                                "type": "bytes",
                                "value": "0xbf2553255b38d60ddc9f2d687cd496f4875745be69bb57958349bbd716bd11f500000000000000000000000056178a0d5f301baf6cf3e1cd53d9863437345bf90000000000000000000000005a98fcbea516cf06857215779fd812ca3bef1b32"
                            }
                        ],
                        "constructorArguments": "",
                        "name": "uniswapV3SwapCallback",
                        "returnParams": [],
                        "signature": "uniswapV3SwapCallback(int256,int256,bytes)"
                    },
                    "errorInfo": "",
                    "fromAddress": "0xa3f558aebaecaf0e11ca4b2199cc5ed341edfd74",
                    "gasUsed": 111015,
                    "id": 7,
                    "methodDecoded": true,
                    "operation": "CALL",
                    "output": "",
                    "revert": false,
                    "revertMessage": "",
                    "selector": "0xfa461e33",
                    "status": true,
                    "value": "0"
                },
                "nodeType": 0
            },
            "8": {
                "invocation": {
                    "address": "0x5a98fcbea516cf06857215779fd812ca3bef1b32",
                    "callData": "0x00000000000000000000000056178a0d5f301baf6cf3e1cd53d9863437345bf9000000000000000000000000a3f558aebaecaf0e11ca4b2199cc5ed341edfd740000000000000000000000000000000000000000000001a51bd6d7dcea65e402",
                    "decodedMethod": {
                        "callParams": [
                            {
                                "name": "_from",
                                "type": "address",
                                "value": "0x56178a0d5f301baf6cf3e1cd53d9863437345bf9"
                            },
                            {
                                "name": "_to",
                                "type": "address",
                                "value": "0xa3f558aebaecaf0e11ca4b2199cc5ed341edfd74"
                            },
                            {
                                "decimalAvailable": true,
                                "name": "_amount",
                                "type": "uint256",
                                "value": "7,768,085,283,059,586,688,002"
                            }
                        ],
                        "constructorArguments": "",
                        "name": "transferFrom",
                        "returnParams": [
                            {
                                "name": "success",
                                "type": "bool",
                                "value": true
                            }
                        ],
                        "signature": "transferFrom(address,address,uint256)"
                    },
                    "errorInfo": "",
                    "fromAddress": "0xa69babef1ca67a37ffaf7a485dfff3382056e78c",
                    "gasUsed": 110406,
                    "id": 8,
                    "methodDecoded": true,
                    "operation": "CALL",
                    "output": "0x0000000000000000000000000000000000000000000000000000000000000001",
                    "revert": false,
                    "revertMessage": "",
                    "selector": "0x23b872dd",
                    "status": true,
                    "value": "0"
                },
                "nodeType": 0
            },
            "9": {
                "invocation": {
                    "address": "0xf73a1260d222f447210581ddf212d915c09a3249",
                    "callData": "0x00000000000000000000000056178a0d5f301baf6cf3e1cd53d9863437345bf9000000000000000000000000a3f558aebaecaf0e11ca4b2199cc5ed341edfd740000000000000000000000000000000000000000000001a51bd6d7dcea65e402",
                    "decodedMethod": {
                        "callParams": [
                            {
                                "name": "_from",
                                "type": "address",
                                "value": "0x56178a0d5f301baf6cf3e1cd53d9863437345bf9"
                            },
                            {
                                "name": "_to",
                                "type": "address",
                                "value": "0xa3f558aebaecaf0e11ca4b2199cc5ed341edfd74"
                            },
                            {
                                "name": "_amount",
                                "type": "uint256",
                                "value": "7,768,085,283,059,586,688,002"
                            }
                        ],
                        "constructorArguments": "",
                        "name": "onTransfer",
                        "returnParams": [
                            {
                                "name": "",
                                "type": "bool",
                                "value": true
                            }
                        ],
                        "signature": "onTransfer(address,address,uint256)"
                    },
                    "errorInfo": "",
                    "fromAddress": "0x5a98fcbea516cf06857215779fd812ca3bef1b32",
                    "gasUsed": 31314,
                    "id": 9,
                    "methodDecoded": true,
                    "operation": "CALL",
                    "output": "0x0000000000000000000000000000000000000000000000000000000000000001",
                    "revert": false,
                    "revertMessage": "",
                    "selector": "0x4a393149",
                    "status": true,
                    "value": "0"
                },
                "nodeType": 0
            }
        },
        "gasFlame": [
            {
                "children": [
                    {
                        "children": [
                            {
                                "children": [],
                                "depth": 0,
                                "name": "Initial Gas",
                                "value": 23292
                            },
                            {
                                "children": [
                                    {
                                        "children": [
                                            {
                                                "children": [],
                                                "depth": 2,
                                                "name": "slot0",
                                                "value": 2696
                                            },
                                            {
                                                "children": [
                                                    {
                                                        "children": [],
                                                        "depth": 3,
                                                        "name": "transfer",
                                                        "value": 12862
                                                    },
                                                    {
                                                        "children": [],
                                                        "depth": 3,
                                                        "name": "balanceOf",
                                                        "value": 8016
                                                    },
                                                    {
                                                        "children": [
                                                            {
                                                                "children": [
                                                                    {
                                                                        "children": [
                                                                            {
                                                                                "children": [
                                                                                    {
                                                                                        "children": [],
                                                                                        "depth": 7,
                                                                                        "name": "getApp",
                                                                                        "value": 2820
                                                                                    }
                                                                                ],
                                                                                "depth": 6,
                                                                                "name": "getApp",
                                                                                "value": 8263
                                                                            },
                                                                            {
                                                                                "children": [
                                                                                    {
                                                                                        "children": [],
                                                                                        "depth": 7,
                                                                                        "name": "balanceOf",
                                                                                        "value": 2016
                                                                                    },
                                                                                    {
                                                                                        "children": [],
                                                                                        "depth": 7,
                                                                                        "name": "balanceOf",
                                                                                        "value": 2016
                                                                                    }
                                                                                ],
                                                                                "depth": 6,
                                                                                "name": "onTransfer",
                                                                                "value": 12422
                                                                            }
                                                                        ],
                                                                        "depth": 5,
                                                                        "name": "onTransfer",
                                                                        "value": 31314
                                                                    }
                                                                ],
                                                                "depth": 4,
                                                                "name": "transferFrom",
                                                                "value": 110406
                                                            }
                                                        ],
                                                        "depth": 3,
                                                        "name": "uniswapV3SwapCallback",
                                                        "value": 111015
                                                    },
                                                    {
                                                        "children": [],
                                                        "depth": 3,
                                                        "name": "balanceOf",
                                                        "value": 2016
                                                    }
                                                ],
                                                "depth": 2,
                                                "name": "swap",
                                                "value": 176584
                                            }
                                        ],
                                        "depth": 1,
                                        "name": "0x02d48983",
                                        "value": 183086
                                    }
                                ],
                                "depth": 0,
                                "name": "Executed Gas",
                                "value": 187436
                            }
                        ],
                        "depth": -1,
                        "name": "Actual Gas Used",
                        "value": 210728
                    },
                    {
                        "children": [],
                        "depth": -1,
                        "name": "Refunded Gas",
                        "value": 0
                    }
                ],
                "depth": -2,
                "name": "Total Gas",
                "value": 210728
            }
        ],
        "isConfirmed": true,
        "mainTrace": [
            {
                "children": [
                    {
                        "children": [
                            {
                                "children": [
                                    {
                                        "children": [],
                                        "depth": 2,
                                        "id": 2,
                                        "order": 2
                                    },
                                    {
                                        "children": [
                                            {
                                                "children": [
                                                    {
                                                        "children": [],
                                                        "depth": 4,
                                                        "id": 5,
                                                        "order": 5
                                                    }
                                                ],
                                                "depth": 3,
                                                "id": 4,
                                                "order": 4
                                            },
                                            {
                                                "children": [],
                                                "depth": 3,
                                                "id": 6,
                                                "order": 6
                                            },
                                            {
                                                "children": [
                                                    {
                                                        "children": [
                                                            {
                                                                "children": [
                                                                    {
                                                                        "children": [
                                                                            {
                                                                                "children": [],
                                                                                "depth": 7,
                                                                                "id": 11,
                                                                                "order": 11
                                                                            }
                                                                        ],
                                                                        "depth": 6,
                                                                        "id": 10,
                                                                        "order": 10
                                                                    },
                                                                    {
                                                                        "children": [
                                                                            {
                                                                                "children": [],
                                                                                "depth": 7,
                                                                                "id": 13,
                                                                                "order": 13
                                                                            },
                                                                            {
                                                                                "children": [],
                                                                                "depth": 7,
                                                                                "id": 14,
                                                                                "order": 14
                                                                            }
                                                                        ],
                                                                        "depth": 6,
                                                                        "id": 12,
                                                                        "order": 12
                                                                    }
                                                                ],
                                                                "depth": 5,
                                                                "id": 9,
                                                                "order": 9
                                                            },
                                                            {
                                                                "children": [],
                                                                "depth": 5,
                                                                "id": 15,
                                                                "order": 15
                                                            }
                                                        ],
                                                        "depth": 4,
                                                        "id": 8,
                                                        "order": 8
                                                    }
                                                ],
                                                "depth": 3,
                                                "id": 7,
                                                "order": 7
                                            },
                                            {
                                                "children": [],
                                                "depth": 3,
                                                "id": 16,
                                                "order": 16
                                            },
                                            {
                                                "children": [],
                                                "depth": 3,
                                                "id": 17,
                                                "order": 17
                                            }
                                        ],
                                        "depth": 2,
                                        "id": 3,
                                        "order": 3
                                    }
                                ],
                                "depth": 1,
                                "id": 1,
                                "order": 1
                            }
                        ],
                        "depth": 0,
                        "id": 0,
                        "order": 0
                    }
                ],
                "depth": -1,
                "id": -1,
                "order": -1
            }
        ],
        "mainTraceNodeCount": 18,
        "parentIdMap": {
            "0": -1,
            "1": 0,
            "10": 9,
            "11": 10,
            "12": 9,
            "13": 12,
            "14": 12,
            "15": 8,
            "16": 3,
            "17": 3,
            "2": 1,
            "3": 1,
            "4": 3,
            "5": 4,
            "6": 3,
            "7": 3,
            "8": 7,
            "9": 8
        },
        "tidyTrace": [
            {
                "children": [
                    {
                        "children": [
                            {
                                "children": [
                                    {
                                        "children": [],
                                        "depth": 2,
                                        "id": 2,
                                        "order": 2
                                    },
                                    {
                                        "children": [
                                            {
                                                "children": [
                                                    {
                                                        "children": [],
                                                        "depth": 4,
                                                        "id": 5,
                                                        "order": 5
                                                    }
                                                ],
                                                "depth": 3,
                                                "id": 4,
                                                "order": 4
                                            },
                                            {
                                                "children": [
                                                    {
                                                        "children": [
                                                            {
                                                                "children": [
                                                                    {
                                                                        "children": [
                                                                            {
                                                                                "children": [],
                                                                                "depth": 7,
                                                                                "id": 11,
                                                                                "order": 11
                                                                            }
                                                                        ],
                                                                        "depth": 6,
                                                                        "id": 10,
                                                                        "order": 10
                                                                    },
                                                                    {
                                                                        "children": [
                                                                            {
                                                                                "children": [],
                                                                                "depth": 7,
                                                                                "id": 13,
                                                                                "order": 13
                                                                            },
                                                                            {
                                                                                "children": [],
                                                                                "depth": 7,
                                                                                "id": 14,
                                                                                "order": 14
                                                                            }
                                                                        ],
                                                                        "depth": 6,
                                                                        "id": 12,
                                                                        "order": 12
                                                                    }
                                                                ],
                                                                "depth": 5,
                                                                "id": 9,
                                                                "order": 9
                                                            },
                                                            {
                                                                "children": [],
                                                                "depth": 5,
                                                                "id": 15,
                                                                "order": 15
                                                            }
                                                        ],
                                                        "depth": 4,
                                                        "id": 8,
                                                        "order": 8
                                                    }
                                                ],
                                                "depth": 3,
                                                "id": 7,
                                                "order": 7
                                            },
                                            {
                                                "children": [],
                                                "depth": 3,
                                                "id": 17,
                                                "order": 17
                                            }
                                        ],
                                        "depth": 2,
                                        "id": 3,
                                        "order": 3
                                    }
                                ],
                                "depth": 1,
                                "id": 1,
                                "order": 1
                            }
                        ],
                        "depth": 0,
                        "id": 0,
                        "order": 0
                    }
                ],
                "depth": -1,
                "id": -1,
                "order": -1
            }
        ],
        "tidyTraceNodeCount": 16
    },
    "state_change": {
        "stateChanges": [
            {
                "address": "0x5a98fcbea516cf06857215779fd812ca3bef1b32",
                "erc": "ERC-20",
                "slots": [
                    {
                        "current": "0xffffffffffffffffffffffffffffffffffffffffffa6a81112bd5462271cab82",
                        "key": "0x528b1c814cd7fcb5f59fc38f1d5490c1c235052c3bcb218092329f7856a8398f",
                        "prev": "0xffffffffffffffffffffffffffffffffffffffffffa6a9b62e942c3f11828f84"
                    },
                    {
                        "current": "0x000000000000000000000000000000000000000000000000000000000000bb21",
                        "key": "0x0b3a2a646a6a5c2e222d82217b1825f02a45a0bb2b6345ce398da0e6851c5b12",
                        "prev": "0x000000000000000000000000000000000000000000000000000000000000bb20"
                    },
                    {
                        "current": "0x000000000000299ded71d238336b96f400000000000000000000000000ffa0a0",
                        "key": "0x17113ccbdc48b23be4793ab48ffe5a0dbb0772a92351bc7869c6a1f0355627eb",
                        "prev": "0x0000000000000000000000000000000000000000000000000000000000000000"
                    },
                    {
                        "current": "0x0000000000000000000000000000000000000000000000000000000000012832",
                        "key": "0x974019d82871bd8eeb55804078d1c10d12aff8cca749b8becba9a1b7259737d7",
                        "prev": "0x0000000000000000000000000000000000000000000000000000000000012831"
                    },
                    {
                        "current": "0x00000000000445019f548c48b1e7b24600000000000000000000000000ffa0a0",
                        "key": "0x2bb02f7a911f7acc2d4ffd7f0be24de813ba275e8846b6fbda9d9bf613b9798b",
                        "prev": "0x0000000000000000000000000000000000000000000000000000000000000000"
                    }
                ],
                "storageVariables": [
                    {
                        "name": "allowed",
                        "type": "mapping(address => mapping(address => uint256))",
                        "value": {
                            "pairs": [
                                {
                                    "key": "0x56178a0d5f301baf6cf3e1cd53d9863437345bf9",
                                    "value": {
                                        "pairs": [
                                            {
                                                "key": "0xa69babef1ca67a37ffaf7a485dfff3382056e78c",
                                                "value": {
                                                    "current": "115792089237316195423570985008687907853269984665640456029806332790884685097858",
                                                    "prev": "115792089237316195423570985008687907853269984665640456037574418073944271785860",
                                                    "typeTag": 1
                                                }
                                            }
                                        ],
                                        "typeTag": 4
                                    }
                                }
                            ],
                            "typeTag": 4
                        }
                    },
                    {
                        "name": "balances",
                        "type": "mapping(address => struct MiniMeToken.Checkpoint[])",
                        "value": {
                            "pairs": [
                                {
                                    "key": "0x56178a0d5f301baf6cf3e1cd53d9863437345bf9",
                                    "value": {
                                        "elemType": "struct MiniMeToken.Checkpoint",
                                        "elems": [
                                            {
                                                "index": 47904,
                                                "value": {
                                                    "fields": [
                                                        {
                                                            "name": "fromBlock",
                                                            "type": "uint128",
                                                            "value": {
                                                                "current": "16752800",
                                                                "prev": "0",
                                                                "typeTag": 1
                                                            }
                                                        },
                                                        {
                                                            "name": "value",
                                                            "type": "uint128",
                                                            "value": {
                                                                "current": "196530274304826033280756",
                                                                "prev": "0",
                                                                "typeTag": 1
                                                            }
                                                        }
                                                    ],
                                                    "typeTag": 3
                                                }
                                            }
                                        ],
                                        "typeTag": 2
                                    }
                                },
                                {
                                    "key": "0xa3f558aebaecaf0e11ca4b2199cc5ed341edfd74",
                                    "value": {
                                        "elemType": "struct MiniMeToken.Checkpoint",
                                        "elems": [
                                            {
                                                "index": 75825,
                                                "value": {
                                                    "fields": [
                                                        {
                                                            "name": "fromBlock",
                                                            "type": "uint128",
                                                            "value": {
                                                                "current": "16752800",
                                                                "prev": "0",
                                                                "typeTag": 1
                                                            }
                                                        },
                                                        {
                                                            "name": "value",
                                                            "type": "uint128",
                                                            "value": {
                                                                "current": "5161576493476189852643910",
                                                                "prev": "0",
                                                                "typeTag": 1
                                                            }
                                                        }
                                                    ],
                                                    "typeTag": 3
                                                }
                                            }
                                        ],
                                        "typeTag": 2
                                    }
                                }
                            ],
                            "typeTag": 4
                        }
                    }
                ]
            },
            {
                "address": "0xa3f558aebaecaf0e11ca4b2199cc5ed341edfd74",
                "erc": "",
                "slots": [
                    {
                        "current": "0x000100000100010000ff083800000000000000000abcd562705c1a4b61357aa6",
                        "key": "0x0000000000000000000000000000000000000000000000000000000000000000",
                        "prev": "0x000100000100010000ff083c00000000000000000abd73e341b54e50fac0babb"
                    },
                    {
                        "current": "0x01019f7e98000000000020c6ccd2efdf745e96c7b4fffc73935495bb6402cd13",
                        "key": "0x0000000000000000000000000000000000000000000000000000000000000008",
                        "prev": "0x01019f7e98000000000020c6ccd2e5d0f12768b06cfffc73936032eb6402cd07"
                    },
                    {
                        "current": "0x000000000000000000000000000000040ea0c1a95221ba29a489c7d0de1104e2",
                        "key": "0x0000000000000000000000000000000000000000000000000000000000000001",
                        "prev": "0x000000000000000000000000000000040e9fb29fbc7cb9626daa9503cd205bb6"
                    }
                ],
                "storageVariables": []
            },
            {
                "address": "0xc02aaa39b223fe8d0a0e5c4f27ead9083c756cc2",
                "erc": "ERC-20",
                "slots": [
                    {
                        "current": "0x00000000000000000000000000000000000000000000014342689bd9d2dceb93",
                        "key": "0x12ed0242e5b5478e54852c950fa127e3775ded1c7ac3b6fd822a07e2da20af2e",
                        "prev": "0x000000000000000000000000000000000000000000000143ff8a4fc89ff4c91b"
                    },
                    {
                        "current": "0x0000000000000000000000000000000000000000000002742ed388dc2defe6ec",
                        "key": "0x30bd84b96629f958113934633d3bd1b64c3d259a85c57ceac65da8c5ec9bf3a7",
                        "prev": "0x00000000000000000000000000000000000000000000027371b1d4ed60d80964"
                    }
                ],
                "storageVariables": [
                    {
                        "name": "balanceOf",
                        "type": "mapping(address => uint256)",
                        "value": {
                            "pairs": [
                                {
                                    "key": "0x56178a0d5f301baf6cf3e1cd53d9863437345bf9",
                                    "value": {
                                        "current": "11587929469314673927916",
                                        "prev": "11574301097529049614692",
                                        "typeTag": 1
                                    }
                                },
                                {
                                    "key": "0xa3f558aebaecaf0e11ca4b2199cc5ed341edfd74",
                                    "value": {
                                        "current": "5963083581772114226067",
                                        "prev": "5976711953557738539291",
                                        "typeTag": 1
                                    }
                                }
                            ],
                            "typeTag": 4
                        }
                    }
                ]
            }
        ]
    }
}