{
    "balance_change": {
        "balanceChanges": [
            {
                "account": "0xf89d7b9c864f589bbf53a82105107622b35eaa40",
                "assets": [
                    {
                        "address": "0xed04915c23f00a313a544955524eb7dbd823143d",
                        "amount": "645,360",
                        "iconUrl": "https://assets.blocksec.com/icon/adfcd068718fba6dc62933ae543324fc0ccb2ca20aededc5c80f3f0fec04ece1.png",
                        "isERC1155": false,
                        "isERC721": false,
                        "sign": false,
                        "value": "24846.359999999999678"
                    }
                ]
            },
            {
                "account": "0x4a2bfa4666e979656cba134312e90ad86a83d52b",
                "assets": [
                    {
                        "address": "0xed04915c23f00a313a544955524eb7dbd823143d",
                        "amount": "645,360",
                        "iconUrl": "https://assets.blocksec.com/icon/adfcd068718fba6dc62933ae543324fc0ccb2ca20aededc5c80f3f0fec04ece1.png",
                        "isERC1155": false,
                        "isERC721": false,
                        "sign": true,
                        "value": "24846.359999999999678"
                    }
                ]
            }
        ]
    },
    "profile": {
        "basic_info": {
            "baseFee": "52.237422681",
            "blockNumber": 19430667,
            "callData": "0xa9059cbb0000000000000000000000004a2bfa4666e979656cba134312e90ad86a83d52b00000000000000000000000000000000000000000000000000003ab1f55af000",
            "debugEnable": true,
            "errorInfo": "",
            "eventCount": 1,
            "feeRecipient": "0x95222290dd7278aa3ddd389cc1e1d165cc4bafe5",
            "formatValue": "0",
            "gasLimit": 90000,
            "gasPrice": "54.237422681",
            "gasUsed": 36892,
            "intTxnCount": 0,
            "internalRevert": false,
            "internalRevertMessage": "",
            "isContractCreation": false,
            "isFlashloan": false,
            "maxFee": "250",
            "nonce": 2664681,
            "overwritedBlockNumber": -1,
            "priorityFee": "2",
            "receiver": "0xed04915c23f00a313a544955524eb7dbd823143d",
            "revertMessage": "",
            "sender": "0xf89d7b9c864f589bbf53a82105107622b35eaa40",
            "simulationEnable": true,
            "sourceTxnHash": "0xc9d873513996f9abd519e532a3cf7e410eaa070ec8393a6b5e3351eca467e272",
            "status": true,
            "timestamp": "2024-03-14T03:45:47Z",
            "transactionFee": "0.002000926997547452",
            "txnHash": "0xc9d873513996f9abd519e532a3cf7e410eaa070ec8393a6b5e3351eca467e272",
            "txnIndex": 46,
            "type": 2,
            "value": "0"
        },
        "fund_flow": [
            {
                "amount": "645,360",
                "from": "0xf89d7b9c864f589bbf53a82105107622b35eaa40",
                "id": 1,
                "isERC1155": false,
                "isERC721": false,
                "isReverted": false,
                "order": 1,
                "to": "0x4a2bfa4666e979656cba134312e90ad86a83d52b",
                "token": "0xed04915c23f00a313a544955524eb7dbd823143d"
            }
        ],
        "token_infos": [
            {
                "address": "0xc02aaa39b223fe8d0a0e5c4f27ead9083c756cc2",
                "decimals": 18
            },
            {
                "address": "0xed04915c23f00a313a544955524eb7dbd823143d",
                "decimals": 8
            },
            {
                "address": "0xeeeeeeeeeeeeeeeeeeeeeeeeeeeeeeeeeeeeeeee",
                "decimals": 18
            }
        ]
    },
    "address_label": {
        "labels": [
            {
                "address": "0xeeeeeeeeeeeeeeeeeeeeeeeeeeeeeeeeeeeeeeee",
                "label": "Ether"
            },
            {
                "address": "0xed04915c23f00a313a544955524eb7dbd823143d",
                "label": "Alchemy Pay: ACH Token"
            },
            {
                "address": "0x4a2bfa4666e979656cba134312e90ad86a83d52b",
                "label": "KUCOIN"
            },
            {
                "address": "0xf89d7b9c864f589bbf53a82105107622b35eaa40",
                "label": "Bybit: Hot Wallet"
            },
            {
                "address": "0x0000000000000000000000000000000000000001",
                "label": "Precompiled"
            },
            {
                "address": "0x0000000000000000000000000000000000000002",
                "label": "Precompiled"
            },
            {
                "address": "0x0000000000000000000000000000000000000003",
                "label": "Precompiled"
            },
            {
                "address": "0x0000000000000000000000000000000000000004",
                "label": "Precompiled"
            }
        ]
    },
    "trace": {
        "accountLabels": null,
        "dataMap": {
            "-1": {
                "invocation": {
                    "address": "0xf89d7b9c864f589bbf53a82105107622b35eaa40",
                    "callData": "",
                    "decodedMethod": null,
                    "errorInfo": "",
                    "fromAddress": "",
                    "gasUsed": 0,
                    "id": -1,
                    "methodDecoded": false,
                    "operation": "",
                    "output": "",
                    "revert": false,
                    "revertMessage": "",
                    "selector": "",
                    "status": false,
                    "value": ""
                },
                "nodeType": 0
            },
            "0": {
                "invocation": {
                    "address": "0xed04915c23f00a313a544955524eb7dbd823143d",
                    "callData": "0x0000000000000000000000004a2bfa4666e979656cba134312e90ad86a83d52b00000000000000000000000000000000000000000000000000003ab1f55af000",
                    "decodedMethod": {
                        "callParams": [
                            {
                                "name": "to",
                                "type": "address",
                                "value": "0x4a2bfa4666e979656cba134312e90ad86a83d52b"
                            },
                            {
                                "decimalAvailable": true,
                                "name": "value",
                                "type": "uint256",
                                "value": "64,536,000,000,000"
                            }
                        ],
                        "constructorArguments": "",
                        "name": "transfer",
                        "returnParams": [
                            {
                                "name": "",
                                "type": "bool",
                                "value": true
                            }
                        ],
                        "signature": "transfer(address,uint256)"
                    },
                    "errorInfo": "",
                    "fromAddress": "0xf89d7b9c864f589bbf53a82105107622b35eaa40",
                    "gasUsed": 36892,
                    "id": 0,
                    "methodDecoded": true,
                    "operation": "CALL",
                    "output": "0x0000000000000000000000000000000000000000000000000000000000000001",
                    "revert": false,
                    "revertMessage": "",
                    "selector": "0xa9059cbb",
                    "status": true,
                    "value": "0"
                },
                "nodeType": 0
            },
            "1": {
                "event": {
                    "contract": "0xed04915c23f00a313a544955524eb7dbd823143d",
                    "decodedLog": {
                        "name": "Transfer",
                        "params": [
                            {
                                "name": "from",
                                "type": "address",
                                "value": "0xf89d7b9c864f589bbf53a82105107622b35eaa40"
                            },
                            {
                                "name": "to",
                                "type": "address",
                                "value": "0x4a2bfa4666e979656cba134312e90ad86a83d52b"
                            },
                            {
                                "decimalAvailable": true,
                                "name": "value",
                                "type": "uint256",
                                "value": "64,536,000,000,000"
                            }
                        ],
                        "signature": "Transfer(address,address,uint256)"
                    },
                    "id": 1,
                    "logData": "0x00000000000000000000000000000000000000000000000000003ab1f55af000",
                    "logDecoded": true,
                    "operation": "EVENT",
                    "revert": false,
                    "status": true,
                    "topics": [
                        "0xddf252ad1be2c89b69c2b068fc378daa952ba7f163c4a11628f55a4df523b3ef",
                        "0x000000000000000000000000f89d7b9c864f589bbf53a82105107622b35eaa40",
                        "0x0000000000000000000000004a2bfa4666e979656cba134312e90ad86a83d52b"
                    ]
                },
                "nodeType": 1
            }
        },
        "gasFlame": [
            {
                "children": [
                    {
                        "children": [
                            {
                                "children": [],
                                "depth": 0,
                                "name": "Initial Gas",
                                "value": 21620
                            },
                            {
                                "children": [],
                                "depth": 0,
                                "name": "Executed Gas",
                                "value": 15272
                            }
                        ],
                        "depth": -1,
                        "name": "Actual Gas Used",
                        "value": 36892
                    },
                    {
                        "children": [],
                        "depth": -1,
                        "name": "Refunded Gas",
                        "value": 0
                    }
                ],
                "depth": -2,
                "name": "Total Gas",
                "value": 36892
            }
        ],
        "isConfirmed": true,
        "mainTrace": [
            {
                "children": [
                    {
                        "children": [
                            {
                                "children": [],
                                "depth": 1,
                                "id": 1,
                                "order": 1
                            }
                        ],
                        "depth": 0,
                        "id": 0,
                        "order": 0
                    }
                ],
                "depth": -1,
                "id": -1,
                "order": -1
            }
        ],
        "mainTraceNodeCount": 2,
        "parentIdMap": {
            "0": -1,
            "1": 0
        },
        "tidyTrace": [
            {
                "children": [
                    {
                        "children": [
                            {
                                "children": [],
                                "depth": 1,
                                "id": 1,
                                "order": 1
                            }
                        ],
                        "depth": 0,
                        "id": 0,
                        "order": 0
                    }
                ],
                "depth": -1,
                "id": -1,
                "order": -1
            }
        ],
        "tidyTraceNodeCount": 2
    },
    "state_change": {
        "stateChanges": [
            {
                "address": "0xed04915c23f00a313a544955524eb7dbd823143d",
                "erc": "ERC-20",
                "slots": [
                    {
                        "current": "0x000000000000000000000000000000000000000000000000000f73acfcc2d4ae",
                        "key": "0x164c0d431a999b5e9f4dfeeb03c48841235e3d171aa85ecb5a0f46085a773b96",
                        "prev": "0x000000000000000000000000000000000000000000000000000fae5ef21dc4ae"
                    },
                    {
                        "current": "0x00000000000000000000000000000000000000000000000000009a4963f09000",
                        "key": "0x719628549280317c5e2bc4ce90763eb8bd9e122e02c0f26c847a40ad7e209b98",
                        "prev": "0x00000000000000000000000000000000000000000000000000005f976e95a000"
                    }
                ],
                "storageVariables": [
                    {
                        "name": "_balances",
                        "type": "mapping(address => uint256)",
                        "value": {
                            "pairs": [
                                {
                                    "key": "0x4a2bfa4666e979656cba134312e90ad86a83d52b",
                                    "value": {
                                        "current": "169640000000000",
                                        "prev": "105104000000000",
                                        "typeTag": 1
                                    }
                                },
                                {
                                    "key": "0xf89d7b9c864f589bbf53a82105107622b35eaa40",
                                    "value": {
                                        "current": "4349311462855854",
                                        "prev": "4413847462855854",
                                        "typeTag": 1
                                    }
                                }
                            ],
                            "typeTag": 4
                        }
                    }
                ]
            }
        ]
    }
}