{
    "balance_change": {
        "balanceChanges": [
            {
                "account": "0x44dd177818a0bd2dad9b0b103736b8edf53e29f4",
                "assets": [
                    {
                        "address": "0x3893b9422cd5d70a81edeffe3d5a1c6a978310bb",
                        "amount": "39,275.219",
                        "iconUrl": "",
                        "isERC1155": false,
                        "isERC721": false,
                        "sign": false,
                        "value": ""
                    }
                ]
            },
            {
                "account": "0xc97a4ed29f03fd549c4ae79086673523122d2bc5",
                "assets": [
                    {
                        "address": "0x3893b9422cd5d70a81edeffe3d5a1c6a978310bb",
                        "amount": "39,275.219",
                        "iconUrl": "",
                        "isERC1155": false,
                        "isERC721": false,
                        "sign": true,
                        "value": ""
                    }
                ]
            }
        ]
    },
    "profile": {
        "basic_info": {
            "baseFee": "",
            "blockNumber": 8173624,
            "callData": "0xa9059cbb000000000000000000000000c97a4ed29f03fd549c4ae79086673523122d2bc50000000000000000000000000000000000000000000008511d27c778b09b8000",
            "debugEnable": true,
            "errorInfo": "",
            "eventCount": 1,
            "feeRecipient": "0x5a0b54d5dc17e0aadc383d2db43b0a0d3e029c4c",
            "formatValue": "0",
            "gasLimit": 39040,
            "gasPrice": "4.4",
            "gasUsed": 24040,
            "intTxnCount": 0,
            "internalRevert": false,
            "internalRevertMessage": "",
            "isContractCreation": false,
            "isFlashloan": false,
            "maxFee": "",
            "nonce": 281,
            "overwritedBlockNumber": -1,
            "priorityFee": "",
            "receiver": "0x3893b9422cd5d70a81edeffe3d5a1c6a978310bb",
            "revertMessage": "",
            "sender": "0x44dd177818a0bd2dad9b0b103736b8edf53e29f4",
            "simulationEnable": true,
            "sourceTxnHash": "0xc988d98f9128bb80070eda765a988a602af2817e381e1d6b8701acb65699cc18",
            "status": true,
            "timestamp": "2019-07-18T08:35:33Z",
            "transactionFee": "0.000105776",
            "txnHash": "0xc988d98f9128bb80070eda765a988a602af2817e381e1d6b8701acb65699cc18",
            "txnIndex": 53,
            "type": 0,
            "value": "0"
        },
        "fund_flow": [
            {
                "amount": "39,275.219",
                "from": "0x44dd177818a0bd2dad9b0b103736b8edf53e29f4",
                "id": 1,
                "isERC1155": false,
                "isERC721": false,
                "isReverted": false,
                "order": 1,
                "to": "0xc97a4ed29f03fd549c4ae79086673523122d2bc5",
                "token": "0x3893b9422cd5d70a81edeffe3d5a1c6a978310bb"
            }
        ],
        "token_infos": [
            {
                "address": "0x3893b9422cd5d70a81edeffe3d5a1c6a978310bb",
                "decimals": 18
            },
            {
                "address": "0xc02aaa39b223fe8d0a0e5c4f27ead9083c756cc2",
                "decimals": 18
            },
            {
                "address": "0xeeeeeeeeeeeeeeeeeeeeeeeeeeeeeeeeeeeeeeee",
                "decimals": 18
            }
        ]
    },
    "address_label": {
        "labels": [
            {
                "address": "0x0000000000000000000000000000000000000003",
                "label": "Precompiled"
            },
            {
                "address": "0x0000000000000000000000000000000000000004",
                "label": "Precompiled"
            },
            {
                "address": "0xeeeeeeeeeeeeeeeeeeeeeeeeeeeeeeeeeeeeeeee",
                "label": "Ether"
            },
            {
                "address": "0xc97a4ed29f03fd549c4ae79086673523122d2bc5",
                "label": "ZB.COM"
            },
            {
                "address": "0x3893b9422cd5d70a81edeffe3d5a1c6a978310bb",
                "label": "Mithril: MITH Token"
            },
            {
                "address": "0x0000000000000000000000000000000000000001",
                "label": "Precompiled"
            },
            {
                "address": "0x0000000000000000000000000000000000000002",
                "label": "Precompiled"
            }
        ]
    },
    "trace": {
        "accountLabels": null,
        "dataMap": {
            "-1": {
                "invocation": {
                    "address": "0x44dd177818a0bd2dad9b0b103736b8edf53e29f4",
                    "callData": "",
                    "decodedMethod": null,
                    "errorInfo": "",
                    "fromAddress": "",
                    "gasUsed": 0,
                    "id": -1,
                    "methodDecoded": false,
                    "operation": "",
                    "output": "",
                    "revert": false,
                    "revertMessage": "",
                    "selector": "",
                    "status": false,
                    "value": ""
                },
                "nodeType": 0
            },
            "0": {
                "invocation": {
                    "address": "0x3893b9422cd5d70a81edeffe3d5a1c6a978310bb",
                    "callData": "0x000000000000000000000000c97a4ed29f03fd549c4ae79086673523122d2bc50000000000000000000000000000000000000000000008511d27c778b09b8000",
                    "decodedMethod": {
                        "callParams": [
                            {
                                "name": "to",
                                "type": "address",
                                "value": "0xc97a4ed29f03fd549c4ae79086673523122d2bc5"
                            },
                            {
                                "decimalAvailable": true,
                                "name": "value",
                                "type": "uint256",
                                "value": "39,275,219,000,000,000,000,000"
                            }
                        ],
                        "constructorArguments": "",
                        "name": "transfer",
                        "returnParams": [],
                        "signature": "transfer(address,uint256)"
                    },
                    "errorInfo": "",
                    "fromAddress": "0x44dd177818a0bd2dad9b0b103736b8edf53e29f4",
                    "gasUsed": 24040,
                    "id": 0,
                    "methodDecoded": true,
                    "operation": "CALL",
                    "output": "",
                    "revert": false,
                    "revertMessage": "",
                    "selector": "0xa9059cbb",
                    "status": true,
                    "value": "0"
                },
                "nodeType": 0
            },
            "1": {
                "event": {
                    "contract": "0x3893b9422cd5d70a81edeffe3d5a1c6a978310bb",
                    "decodedLog": {
                        "name": "Transfer",
                        "params": [
                            {
                                "name": "from",
                                "type": "address",
                                "value": "0x44dd177818a0bd2dad9b0b103736b8edf53e29f4"
                            },
                            {
                                "name": "to",
                                "type": "address",
                                "value": "0xc97a4ed29f03fd549c4ae79086673523122d2bc5"
                            },
                            {
                                "decimalAvailable": true,
                                "name": "value",
                                "type": "uint256",
                                "value": "39,275,219,000,000,000,000,000"
                            }
                        ],
                        "signature": "Transfer(address,address,uint256)"
                    },
                    "id": 1,
                    "logData": "0x0000000000000000000000000000000000000000000008511d27c778b09b8000",
                    "logDecoded": true,
                    "operation": "EVENT",
                    "revert": false,
                    "status": true,
                    "topics": [
                        "0xddf252ad1be2c89b69c2b068fc378daa952ba7f163c4a11628f55a4df523b3ef",
                        "0x00000000000000000000000044dd177818a0bd2dad9b0b103736b8edf53e29f4",
                        "0x000000000000000000000000c97a4ed29f03fd549c4ae79086673523122d2bc5"
                    ]
                },
                "nodeType": 1
            }
        },
        "gasFlame": [
            {
                "children": [
                    {
                        "children": [
                            {
                                "children": [],
                                "depth": 0,
                                "name": "Initial Gas",
                                "value": 23384
                            },
                            {
                                "children": [],
                                "depth": 0,
                                "name": "Executed Gas",
                                "value": 15656
                            }
                        ],
                        "depth": -1,
                        "name": "Actual Gas Used",
                        "value": 24040
                    },
                    {
                        "children": [],
                        "depth": -1,
                        "name": "Refunded Gas",
                        "value": 15000
                    }
                ],
                "depth": -2,
                "name": "Total Gas",
                "value": 39040
            }
        ],
        "isConfirmed": true,
        "mainTrace": [
            {
                "children": [
                    {
                        "children": [
                            {
                                "children": [],
                                "depth": 1,
                                "id": 1,
                                "order": 1
                            }
                        ],
                        "depth": 0,
                        "id": 0,
                        "order": 0
                    }
                ],
                "depth": -1,
                "id": -1,
                "order": -1
            }
        ],
        "mainTraceNodeCount": 2,
        "parentIdMap": {
            "0": -1,
            "1": 0
        },
        "tidyTrace": [
            {
                "children": [
                    {
                        "children": [
                            {
                                "children": [],
                                "depth": 1,
                                "id": 1,
                                "order": 1
                            }
                        ],
                        "depth": 0,
                        "id": 0,
                        "order": 0
                    }
                ],
                "depth": -1,
                "id": -1,
                "order": -1
            }
        ],
        "tidyTraceNodeCount": 2
    },
    "state_change": {
        "stateChanges": [
            {
                "address": "0x3893b9422cd5d70a81edeffe3d5a1c6a978310bb",
                "erc": "",
                "slots": [
                    {
                        "current": "0x0000000000000000000000000000000000000000000000000000000000000000",
                        "key": "0x203b2788618737bd29965b3c5d640c3dbbb8fee6d8562b09db24968f2f958c77",
                        "prev": "0x0000000000000000000000000000000000000000000008511d27c778b09b8000"
                    },
                    {
                        "current": "0x00000000000000000000000000000000000000000000d860e06be38cb7778000",
                        "key": "0x3c2ee91dc7ad20885cfdf61596bccd62edf1a86874d18bca0efa6c4397727d1d",
                        "prev": "0x00000000000000000000000000000000000000000000d00fc3441c1406dc0000"
                    }
                ],
                "storageVariables": [
                    {
                        "name": "balanceOf",
                        "type": "mapping(address => uint256)",
                        "value": {
                            "pairs": [
                                {
                                    "key": "0x44dd177818a0bd2dad9b0b103736b8edf53e29f4",
                                    "value": {
                                        "current": "0",
                                        "prev": "39275219000000000000000",
                                        "typeTag": 1
                                    }
                                },
                                {
                                    "key": "0xc97a4ed29f03fd549c4ae79086673523122d2bc5",
                                    "value": {
                                        "current": "1021818219000000000000000",
                                        "prev": "982543000000000000000000",
                                        "typeTag": 1
                                    }
                                }
                            ],
                            "typeTag": 4
                        }
                    }
                ]
            }
        ]
    }
}