{
    "balance_change": {
        "balanceChanges": [
            {
                "account": "0x0cac3d1a887206e0f6169222c4504301a8b4b993",
                "assets": [
                    {
                        "address": "0xeeeeeeeeeeeeeeeeeeeeeeeeeeeeeeeeeeeeeeee",
                        "amount": "0.000000000000053767",
                        "iconUrl": "https://assets.blocksec.com/image/1663669189317-3.png",
                        "isERC1155": false,
                        "isERC721": false,
                        "sign": false,
                        "value": "0.0000000000714746237799999956"
                    }
                ]
            },
            {
                "account": "0xa69babef1ca67a37ffaf7a485dfff3382056e78c",
                "assets": [
                    {
                        "address": "0xeeeeeeeeeeeeeeeeeeeeeeeeeeeeeeeeeeeeeeee",
                        "amount": "0.000000000000053767",
                        "iconUrl": "https://assets.blocksec.com/image/1663669189317-3.png",
                        "isERC1155": false,
                        "isERC721": false,
                        "sign": true,
                        "value": "0.0000000000714746237799999956"
                    }
                ]
            },
            {
                "account": "0x56178a0d5f301baf6cf3e1cd53d9863437345bf9",
                "assets": [
                    {
                        "address": "0x5a98fcbea516cf06857215779fd812ca3bef1b32",
                        "amount": "2,984.999825865108370522",
                        "iconUrl": "https://assets.blocksec.com/icon/3878691d1a2d54915a451767a8b7abce85c16fd7fc528d5b81becb8ae316240e.png",
                        "isERC1155": false,
                        "isERC721": false,
                        "sign": true,
                        "value": "4029.7497651000002652"
                    },
                    {
                        "address": "0xc02aaa39b223fe8d0a0e5c4f27ead9083c756cc2",
                        "amount": "3.027203554362598242",
                        "iconUrl": "https://assets.blocksec.com/icon/f1cb2d02c471d545bbc7722daf3277fd852d98e63d118771af7047bd8256c516.png",
                        "isERC1155": false,
                        "isERC721": false,
                        "sign": false,
                        "value": "4024.1827724743597523"
                    }
                ]
            },
            {
                "account": "0xa3f558aebaecaf0e11ca4b2199cc5ed341edfd74",
                "assets": [
                    {
                        "address": "0x5a98fcbea516cf06857215779fd812ca3bef1b32",
                        "amount": "2,984.999825865108370522",
                        "iconUrl": "https://assets.blocksec.com/icon/3878691d1a2d54915a451767a8b7abce85c16fd7fc528d5b81becb8ae316240e.png",
                        "isERC1155": false,
                        "isERC721": false,
                        "sign": false,
                        "value": "4029.7497651000002652"
                    },
                    {
                        "address": "0xc02aaa39b223fe8d0a0e5c4f27ead9083c756cc2",
                        "amount": "3.027203554362598242",
                        "iconUrl": "https://assets.blocksec.com/icon/f1cb2d02c471d545bbc7722daf3277fd852d98e63d118771af7047bd8256c516.png",
                        "isERC1155": false,
                        "isERC721": false,
                        "sign": true,
                        "value": "4024.1827724743597523"
                    }
                ]
            }
        ]
    },
    "profile": {
        "basic_info": {
            "baseFee": "15.35766951",
            "blockNumber": 15743677,
            "callData": "0x1cff79cd000000000000000000000000d6419f809083615b03f4f6e5f58c067c969bee59000000000000000000000000000000000000000000000000000000000000004000000000000000000000000000000000000000000000000000000000000000c41f3cc1fe0000000000000000000000000000000000000000000000002a02c9980895236200000000000000000000000000000000000000000000d7706c2a94e4e8000000000000000000000000000000000000000000000008273a177de2841416d3831000000000000000000000000000000000000000000000000000039d4dd9ddb045000000000000000000000000000000000000000000000000000000006348d81900000000000000000000000000000000000000000824a445349cfa2d77937c8600000000000000000000000000000000000000000000000000000000",
            "debugEnable": true,
            "errorInfo": "",
            "eventCount": 3,
            "feeRecipient": "0x4675c7e5baafbffbca748158becba61ef3b0a263",
            "formatValue": "0.000000000000053767",
            "gasLimit": 444304,
            "gasPrice": "19.357669511",
            "gasUsed": 176939,
            "intTxnCount": 14,
            "internalRevert": false,
            "internalRevertMessage": "",
            "isContractCreation": false,
            "isFlashloan": false,
            "maxFee": "27.036504266",
            "nonce": 125104,
            "overwritedBlockNumber": -1,
            "priorityFee": "4.000000001",
            "receiver": "0xa69babef1ca67a37ffaf7a485dfff3382056e78c",
            "revertMessage": "",
            "sender": "0x0cac3d1a887206e0f6169222c4504301a8b4b993",
            "simulationEnable": true,
            "sourceTxnHash": "0xc9cbbd277765fc570f15f7d3c01dd017c3345a0bf95c49b30a76069325e6fe19",
            "status": true,
            "timestamp": "2022-10-14T03:30:47Z",
            "transactionFee": "0.003425126685606829",
            "txnHash": "0xc9cbbd277765fc570f15f7d3c01dd017c3345a0bf95c49b30a76069325e6fe19",
            "txnIndex": 24,
            "type": 2,
            "value": "53767"
        },
        "fund_flow": [
            {
                "amount": "0.000000000000053767",
                "from": "0x0cac3d1a887206e0f6169222c4504301a8b4b993",
                "id": 1,
                "isERC1155": false,
                "isERC721": false,
                "isReverted": false,
                "order": 1,
                "to": "0xa69babef1ca67a37ffaf7a485dfff3382056e78c",
                "token": "0xeeeeeeeeeeeeeeeeeeeeeeeeeeeeeeeeeeeeeeee"
            },
            {
                "amount": "2,984.999825865108370522",
                "from": "0xa3f558aebaecaf0e11ca4b2199cc5ed341edfd74",
                "id": 2,
                "isERC1155": false,
                "isERC721": false,
                "isReverted": false,
                "order": 2,
                "to": "0x56178a0d5f301baf6cf3e1cd53d9863437345bf9",
                "token": "0x5a98fcbea516cf06857215779fd812ca3bef1b32"
            },
            {
                "amount": "3.027203554362598242",
                "from": "0x56178a0d5f301baf6cf3e1cd53d9863437345bf9",
                "id": 3,
                "isERC1155": false,
                "isERC721": false,
                "isReverted": false,
                "order": 3,
                "to": "0xa3f558aebaecaf0e11ca4b2199cc5ed341edfd74",
                "token": "0xc02aaa39b223fe8d0a0e5c4f27ead9083c756cc2"
            }
        ],
        "token_infos": [
            {
                "address": "0xc02aaa39b223fe8d0a0e5c4f27ead9083c756cc2",
                "decimals": 18
            },
            {
                "address": "0xeeeeeeeeeeeeeeeeeeeeeeeeeeeeeeeeeeeeeeee",
                "decimals": 18
            },
            {
                "address": "0x5a98fcbea516cf06857215779fd812ca3bef1b32",
                "decimals": 18
            }
        ]
    },
    "address_label": {
        "labels": [
            {
                "address": "0xa3f558aebaecaf0e11ca4b2199cc5ed341edfd74",
                "label": "Uniswap V3: LDO 2"
            },
            {
                "address": "0x0000000000000000000000000000000000000003",
                "label": "Precompiled"
            },
            {
                "address": "0x2b33cf282f867a7ff693a66e11b0fcc5552e4425",
                "label": "Lido: DAO Impl 1.0.0"
            },
            {
                "address": "0xc02aaa39b223fe8d0a0e5c4f27ead9083c756cc2",
                "label": "Wrapped Ether (WETH)"
            },
            {
                "address": "0x0000000000000000000000000000000000000001",
                "label": "Precompiled"
            },
            {
                "address": "0x0000000000000000000000000000000000000004",
                "label": "Precompiled"
            },
            {
                "address": "0xeeeeeeeeeeeeeeeeeeeeeeeeeeeeeeeeeeeeeeee",
                "label": "Ether"
            },
            {
                "address": "0xf73a1260d222f447210581ddf212d915c09a3249",
                "label": "Lido: Aragon Token Manager"
            },
            {
                "address": "0xde3a93028f2283cc28756b3674bd657eafb992f4",
                "label": "Lido: Aragon Token Manager Impl"
            },
            {
                "address": "0x0000000000000000000000000000000000000002",
                "label": "Precompiled"
            },
            {
                "address": "0xb8ffc3cd6e7cf5a098a1c92f48009765b24088dc",
                "label": "Lido: DAO"
            },
            {
                "address": "0xa69babef1ca67a37ffaf7a485dfff3382056e78c",
                "label": "MEV Bot: 0xA69...78C"
            },
            {
                "address": "0x5a98fcbea516cf06857215779fd812ca3bef1b32",
                "label": "Lido: LDO Token"
            }
        ]
    },
    "trace": {
        "accountLabels": null,
        "dataMap": {
            "-1": {
                "invocation": {
                    "address": "0x0cac3d1a887206e0f6169222c4504301a8b4b993",
                    "callData": "",
                    "decodedMethod": null,
                    "errorInfo": "",
                    "fromAddress": "",
                    "gasUsed": 0,
                    "id": -1,
                    "methodDecoded": false,
                    "operation": "",
                    "output": "",
                    "revert": false,
                    "revertMessage": "",
                    "selector": "",
                    "status": false,
                    "value": ""
                },
                "nodeType": 0
            },
            "0": {
                "invocation": {
                    "address": "0xa69babef1ca67a37ffaf7a485dfff3382056e78c",
                    "callData": "0x000000000000000000000000d6419f809083615b03f4f6e5f58c067c969bee59000000000000000000000000000000000000000000000000000000000000004000000000000000000000000000000000000000000000000000000000000000c41f3cc1fe0000000000000000000000000000000000000000000000002a02c9980895236200000000000000000000000000000000000000000000d7706c2a94e4e8000000000000000000000000000000000000000000000008273a177de2841416d3831000000000000000000000000000000000000000000000000000039d4dd9ddb045000000000000000000000000000000000000000000000000000000006348d81900000000000000000000000000000000000000000824a445349cfa2d77937c8600000000000000000000000000000000000000000000000000000000",
                    "decodedMethod": {
                        "callParams": [
                            {
                                "name": "_target",
                                "type": "address",
                                "value": "0xd6419f809083615b03f4f6e5f58c067c969bee59"
                            },
                            {
                                "name": "_data",
                                "type": "bytes",
                                "value": "0x1f3cc1fe0000000000000000000000000000000000000000000000002a02c9980895236200000000000000000000000000000000000000000000d7706c2a94e4e8000000000000000000000000000000000000000000000008273a177de2841416d3831000000000000000000000000000000000000000000000000000039d4dd9ddb045000000000000000000000000000000000000000000000000000000006348d81900000000000000000000000000000000000000000824a445349cfa2d77937c86"
                            }
                        ],
                        "constructorArguments": "",
                        "name": "execute",
                        "returnParams": [],
                        "signature": "execute(address,bytes)"
                    },
                    "errorInfo": "",
                    "fromAddress": "0x0cac3d1a887206e0f6169222c4504301a8b4b993",
                    "gasUsed": 176939,
                    "id": 0,
                    "methodDecoded": true,
                    "operation": "CALL",
                    "output": "",
                    "revert": false,
                    "revertMessage": "",
                    "selector": "0x1cff79cd",
                    "status": true,
                    "value": "0.000000000000053767"
                },
                "nodeType": 0
            },
            "1": {
                "invocation": {
                    "address": "0xd6419f809083615b03f4f6e5f58c067c969bee59",
                    "callData": "0x0000000000000000000000000000000000000000000000002a02c9980895236200000000000000000000000000000000000000000000d7706c2a94e4e8000000000000000000000000000000000000000000000008273a177de2841416d3831000000000000000000000000000000000000000000000000000039d4dd9ddb045000000000000000000000000000000000000000000000000000000006348d81900000000000000000000000000000000000000000824a445349cfa2d77937c86",
                    "decodedMethod": null,
                    "errorInfo": "",
                    "fromAddress": "0xa69babef1ca67a37ffaf7a485dfff3382056e78c",
                    "gasUsed": 149851,
                    "id": 1,
                    "methodDecoded": false,
                    "operation": "DELEGATECALL",
                    "output": "0x0000000000000000000000000000000000000000000000002a02c998089523620000000000000000000000000000000000000000000000000022670011ac77b2",
                    "revert": false,
                    "revertMessage": "",
                    "selector": "0x1f3cc1fe",
                    "status": true,
                    "value": "0.000000000000053767"
                },
                "nodeType": 0
            },
            "10": {
                "invocation": {
                    "address": "0x5a98fcbea516cf06857215779fd812ca3bef1b32",
                    "callData": "0x000000000000000000000000a3f558aebaecaf0e11ca4b2199cc5ed341edfd74",
                    "decodedMethod": {
                        "callParams": [
                            {
                                "name": "_owner",
                                "type": "address",
                                "value": "0xa3f558aebaecaf0e11ca4b2199cc5ed341edfd74"
                            }
                        ],
                        "constructorArguments": "",
                        "name": "balanceOf",
                        "returnParams": [
                            {
                                "decimalAvailable": true,
                                "name": "balance",
                                "type": "uint256",
                                "value": "2,011,789,050,154,942,296,180,588"
                            }
                        ],
                        "signature": "balanceOf(address)"
                    },
                    "errorInfo": "",
                    "fromAddress": "0xf73a1260d222f447210581ddf212d915c09a3249",
                    "gasUsed": 2016,
                    "id": 10,
                    "methodDecoded": true,
                    "operation": "CALL",
                    "output": "0x00000000000000000000000000000000000000000001aa034d8d58b6395f476c",
                    "revert": false,
                    "revertMessage": "",
                    "selector": "0x70a08231",
                    "status": true,
                    "value": "0"
                },
                "nodeType": 0
            },
            "11": {
                "event": {
                    "contract": "0x5a98fcbea516cf06857215779fd812ca3bef1b32",
                    "decodedLog": {
                        "name": "Transfer",
                        "params": [
                            {
                                "name": "_from",
                                "type": "address",
                                "value": "0xa3f558aebaecaf0e11ca4b2199cc5ed341edfd74"
                            },
                            {
                                "name": "_to",
                                "type": "address",
                                "value": "0x56178a0d5f301baf6cf3e1cd53d9863437345bf9"
                            },
                            {
                                "decimalAvailable": true,
                                "name": "_amount",
                                "type": "uint256",
                                "value": "2,984,999,825,865,108,370,522"
                            }
                        ],
                        "signature": "Transfer(address,address,uint256)"
                    },
                    "id": 11,
                    "logData": "0x0000000000000000000000000000000000000000000000a1d131b66adca8345a",
                    "logDecoded": true,
                    "operation": "EVENT",
                    "revert": false,
                    "status": true,
                    "topics": [
                        "0xddf252ad1be2c89b69c2b068fc378daa952ba7f163c4a11628f55a4df523b3ef",
                        "0x000000000000000000000000a3f558aebaecaf0e11ca4b2199cc5ed341edfd74",
                        "0x00000000000000000000000056178a0d5f301baf6cf3e1cd53d9863437345bf9"
                    ]
                },
                "nodeType": 1
            },
            "12": {
                "invocation": {
                    "address": "0xc02aaa39b223fe8d0a0e5c4f27ead9083c756cc2",
                    "callData": "0x000000000000000000000000a3f558aebaecaf0e11ca4b2199cc5ed341edfd74",
                    "decodedMethod": {
                        "callParams": [
                            {
                                "name": "",
                                "type": "address",
                                "value": "0xa3f558aebaecaf0e11ca4b2199cc5ed341edfd74"
                            }
                        ],
                        "constructorArguments": "",
                        "name": "balanceOf",
                        "returnParams": [
                            {
                                "decimalAvailable": true,
                                "name": "",
                                "type": "uint256",
                                "value": "163,299,501,942,511,452,678"
                            }
                        ],
                        "signature": "balanceOf(address)"
                    },
                    "errorInfo": "",
                    "fromAddress": "0xa3f558aebaecaf0e11ca4b2199cc5ed341edfd74",
                    "gasUsed": 2534,
                    "id": 12,
                    "methodDecoded": true,
                    "operation": "STATICCALL",
                    "output": "0x000000000000000000000000000000000000000000000008da3c5fd1a19b4206",
                    "revert": false,
                    "revertMessage": "",
                    "selector": "0x70a08231",
                    "status": true,
                    "value": "0"
                },
                "nodeType": 0
            },
            "13": {
                "invocation": {
                    "address": "0xa69babef1ca67a37ffaf7a485dfff3382056e78c",
                    "callData": "0xffffffffffffffffffffffffffffffffffffffffffffff5e2ece49952357cba60000000000000000000000000000000000000000000000002a02c9980895236200000000000000000000000000000000000000000000000000000000000000600000000000000000000000000000000000000000000000000000000000000060bf2553255b38d60ddc9f2d687cd496f4875745be69bb57958349bbd716bd11f500000000000000000000000056178a0d5f301baf6cf3e1cd53d9863437345bf9000000000000000000000000c02aaa39b223fe8d0a0e5c4f27ead9083c756cc2",
                    "decodedMethod": {
                        "callParams": [
                            {
                                "name": "amount0Delta",
                                "type": "int256",
                                "value": "-2,984,999,825,865,108,370,522"
                            },
                            {
                                "name": "amount1Delta",
                                "type": "int256",
                                "value": "3,027,203,554,362,598,242"
                            },
                            {
                                "name": "data",
                                "type": "bytes",
                                "value": "0xbf2553255b38d60ddc9f2d687cd496f4875745be69bb57958349bbd716bd11f500000000000000000000000056178a0d5f301baf6cf3e1cd53d9863437345bf9000000000000000000000000c02aaa39b223fe8d0a0e5c4f27ead9083c756cc2"
                            }
                        ],
                        "constructorArguments": "",
                        "name": "uniswapV3SwapCallback",
                        "returnParams": [],
                        "signature": "uniswapV3SwapCallback(int256,int256,bytes)"
                    },
                    "errorInfo": "",
                    "fromAddress": "0xa3f558aebaecaf0e11ca4b2199cc5ed341edfd74",
                    "gasUsed": 13664,
                    "id": 13,
                    "methodDecoded": true,
                    "operation": "CALL",
                    "output": "",
                    "revert": false,
                    "revertMessage": "",
                    "selector": "0xfa461e33",
                    "status": true,
                    "value": "0"
                },
                "nodeType": 0
            },
            "14": {
                "invocation": {
                    "address": "0xc02aaa39b223fe8d0a0e5c4f27ead9083c756cc2",
                    "callData": "0x00000000000000000000000056178a0d5f301baf6cf3e1cd53d9863437345bf9000000000000000000000000a3f558aebaecaf0e11ca4b2199cc5ed341edfd740000000000000000000000000000000000000000000000002a02c99808952362",
                    "decodedMethod": {
                        "callParams": [
                            {
                                "name": "src",
                                "type": "address",
                                "value": "0x56178a0d5f301baf6cf3e1cd53d9863437345bf9"
                            },
                            {
                                "name": "dst",
                                "type": "address",
                                "value": "0xa3f558aebaecaf0e11ca4b2199cc5ed341edfd74"
                            },
                            {
                                "decimalAvailable": true,
                                "name": "wad",
                                "type": "uint256",
                                "value": "3,027,203,554,362,598,242"
                            }
                        ],
                        "constructorArguments": "",
                        "name": "transferFrom",
                        "returnParams": [
                            {
                                "name": "",
                                "type": "bool",
                                "value": true
                            }
                        ],
                        "signature": "transferFrom(address,address,uint256)"
                    },
                    "errorInfo": "",
                    "fromAddress": "0xa69babef1ca67a37ffaf7a485dfff3382056e78c",
                    "gasUsed": 13025,
                    "id": 14,
                    "methodDecoded": true,
                    "operation": "CALL",
                    "output": "0x0000000000000000000000000000000000000000000000000000000000000001",
                    "revert": false,
                    "revertMessage": "",
                    "selector": "0x23b872dd",
                    "status": true,
                    "value": "0"
                },
                "nodeType": 0
            },
            "15": {
                "event": {
                    "contract": "0xc02aaa39b223fe8d0a0e5c4f27ead9083c756cc2",
                    "decodedLog": {
                        "name": "Transfer",
                        "params": [
                            {
                                "name": "src",
                                "type": "address",
                                "value": "0x56178a0d5f301baf6cf3e1cd53d9863437345bf9"
                            },
                            {
                                "name": "dst",
                                "type": "address",
                                "value": "0xa3f558aebaecaf0e11ca4b2199cc5ed341edfd74"
                            },
                            {
                                "decimalAvailable": true,
                                "name": "wad",
                                "type": "uint256",
                                "value": "3,027,203,554,362,598,242"
                            }
                        ],
                        "signature": "Transfer(address,address,uint256)"
                    },
                    "id": 15,
                    "logData": "0x0000000000000000000000000000000000000000000000002a02c99808952362",
                    "logDecoded": true,
                    "operation": "EVENT",
                    "revert": false,
                    "status": true,
                    "topics": [
                        "0xddf252ad1be2c89b69c2b068fc378daa952ba7f163c4a11628f55a4df523b3ef",
                        "0x00000000000000000000000056178a0d5f301baf6cf3e1cd53d9863437345bf9",
                        "0x000000000000000000000000a3f558aebaecaf0e11ca4b2199cc5ed341edfd74"
                    ]
                },
                "nodeType": 1
            },
            "16": {
                "invocation": {
                    "address": "0xc02aaa39b223fe8d0a0e5c4f27ead9083c756cc2",
                    "callData": "0x000000000000000000000000a3f558aebaecaf0e11ca4b2199cc5ed341edfd74",
                    "decodedMethod": {
                        "callParams": [
                            {
                                "name": "",
                                "type": "address",
                                "value": "0xa3f558aebaecaf0e11ca4b2199cc5ed341edfd74"
                            }
                        ],
                        "constructorArguments": "",
                        "name": "balanceOf",
                        "returnParams": [
                            {
                                "decimalAvailable": true,
                                "name": "",
                                "type": "uint256",
                                "value": "166,326,705,496,874,050,920"
                            }
                        ],
                        "signature": "balanceOf(address)"
                    },
                    "errorInfo": "",
                    "fromAddress": "0xa3f558aebaecaf0e11ca4b2199cc5ed341edfd74",
                    "gasUsed": 534,
                    "id": 16,
                    "methodDecoded": true,
                    "operation": "STATICCALL",
                    "output": "0x000000000000000000000000000000000000000000000009043f2969aa306568",
                    "revert": false,
                    "revertMessage": "",
                    "selector": "0x70a08231",
                    "status": true,
                    "value": "0"
                },
                "nodeType": 0
            },
            "17": {
                "event": {
                    "contract": "0xa3f558aebaecaf0e11ca4b2199cc5ed341edfd74",
                    "decodedLog": {
                        "name": "Swap",
                        "params": [
                            {
                                "name": "sender",
                                "type": "address",
                                "value": "0xa69babef1ca67a37ffaf7a485dfff3382056e78c"
                            },
                            {
                                "name": "recipient",
                                "type": "address",
                                "value": "0x56178a0d5f301baf6cf3e1cd53d9863437345bf9"
                            },
                            {
                                "name": "amount0",
                                "type": "int256",
                                "value": "-2,984,999,825,865,108,370,522"
                            },
                            {
                                "name": "amount1",
                                "type": "int256",
                                "value": "3,027,203,554,362,598,242"
                            },
                            {
                                "name": "sqrtPriceX96",
                                "type": "uint160",
                                "value": "2,519,916,636,036,532,368,609,974,625"
                            },
                            {
                                "name": "liquidity",
                                "type": "uint128",
                                "value": "186,770,666,168,577,555,686,109"
                            },
                            {
                                "name": "tick",
                                "type": "int24",
                                "value": "-68,966"
                            }
                        ],
                        "signature": "Swap(address,address,int256,int256,uint160,uint128,int24)"
                    },
                    "id": 17,
                    "logData": "0xffffffffffffffffffffffffffffffffffffffffffffff5e2ece49952357cba60000000000000000000000000000000000000000000000002a02c99808952362000000000000000000000000000000000000000008246d1a904bee8e8dbd196100000000000000000000000000000000000000000000278cdbac7eebecc3e2ddfffffffffffffffffffffffffffffffffffffffffffffffffffffffffffef29a",
                    "logDecoded": true,
                    "operation": "EVENT",
                    "revert": false,
                    "status": true,
                    "topics": [
                        "0xc42079f94a6350d7e6235f29174924f928cc2ac818eb64fed8004e115fbcca67",
                        "0x000000000000000000000000a69babef1ca67a37ffaf7a485dfff3382056e78c",
                        "0x00000000000000000000000056178a0d5f301baf6cf3e1cd53d9863437345bf9"
                    ]
                },
                "nodeType": 1
            },
            "2": {
                "invocation": {
                    "address": "0xa3f558aebaecaf0e11ca4b2199cc5ed341edfd74",
                    "callData": "0x",
                    "decodedMethod": {
                        "callParams": [],
                        "constructorArguments": "",
                        "name": "slot0",
                        "returnParams": [
                            {
                                "name": "sqrtPriceX96",
                                "type": "uint160",
                                "value": "2,518,636,347,965,880,715,305,679,847"
                            },
                            {
                                "name": "tick",
                                "type": "int24",
                                "value": "-68,976"
                            },
                            {
                                "name": "observationIndex",
                                "type": "uint16",
                                "value": "0"
                            },
                            {
                                "name": "observationCardinality",
                                "type": "uint16",
                                "value": "1"
                            },
                            {
                                "name": "observationCardinalityNext",
                                "type": "uint16",
                                "value": "1"
                            },
                            {
                                "name": "feeProtocol",
                                "type": "uint8",
                                "value": "0"
                            },
                            {
                                "name": "unlocked",
                                "type": "bool",
                                "value": true
                            }
                        ],
                        "signature": "slot0()"
                    },
                    "errorInfo": "",
                    "fromAddress": "0xa69babef1ca67a37ffaf7a485dfff3382056e78c",
                    "gasUsed": 2696,
                    "id": 2,
                    "methodDecoded": true,
                    "operation": "CALL",
                    "output": "0x000000000000000000000000000000000000000008235dfe021e85cb333dfbe7fffffffffffffffffffffffffffffffffffffffffffffffffffffffffffef29000000000000000000000000000000000000000000000000000000000000000000000000000000000000000000000000000000000000000000000000000000001000000000000000000000000000000000000000000000000000000000000000100000000000000000000000000000000000000000000000000000000000000000000000000000000000000000000000000000000000000000000000000000001",
                    "revert": false,
                    "revertMessage": "",
                    "selector": "0x3850c7bd",
                    "status": true,
                    "value": "0"
                },
                "nodeType": 0
            },
            "3": {
                "invocation": {
                    "address": "0xa3f558aebaecaf0e11ca4b2199cc5ed341edfd74",
                    "callData": "0x00000000000000000000000056178a0d5f301baf6cf3e1cd53d9863437345bf900000000000000000000000000000000000000000000000000000000000000000000000000000000000000000000000000000000000000002a02c99808952362000000000000000000000000000000000000000008273a177de2841416d3831000000000000000000000000000000000000000000000000000000000000000a00000000000000000000000000000000000000000000000000000000000000060bf2553255b38d60ddc9f2d687cd496f4875745be69bb57958349bbd716bd11f500000000000000000000000056178a0d5f301baf6cf3e1cd53d9863437345bf9000000000000000000000000c02aaa39b223fe8d0a0e5c4f27ead9083c756cc2",
                    "decodedMethod": {
                        "callParams": [
                            {
                                "name": "recipient",
                                "type": "address",
                                "value": "0x56178a0d5f301baf6cf3e1cd53d9863437345bf9"
                            },
                            {
                                "name": "zeroForOne",
                                "type": "bool",
                                "value": false
                            },
                            {
                                "name": "amountSpecified",
                                "type": "int256",
                                "value": "3,027,203,554,362,598,242"
                            },
                            {
                                "name": "sqrtPriceLimitX96",
                                "type": "uint160",
                                "value": "2,523,302,516,137,809,043,648,643,856"
                            },
                            {
                                "name": "data",
                                "type": "bytes",
                                "value": "0xbf2553255b38d60ddc9f2d687cd496f4875745be69bb57958349bbd716bd11f500000000000000000000000056178a0d5f301baf6cf3e1cd53d9863437345bf9000000000000000000000000c02aaa39b223fe8d0a0e5c4f27ead9083c756cc2"
                            }
                        ],
                        "constructorArguments": "",
                        "name": "swap",
                        "returnParams": [
                            {
                                "name": "amount0",
                                "type": "int256",
                                "value": "-2,984,999,825,865,108,370,522"
                            },
                            {
                                "name": "amount1",
                                "type": "int256",
                                "value": "3,027,203,554,362,598,242"
                            }
                        ],
                        "signature": "swap(address,bool,int256,uint160,bytes)"
                    },
                    "errorInfo": "",
                    "fromAddress": "0xa69babef1ca67a37ffaf7a485dfff3382056e78c",
                    "gasUsed": 143276,
                    "id": 3,
                    "methodDecoded": true,
                    "operation": "CALL",
                    "output": "0xffffffffffffffffffffffffffffffffffffffffffffff5e2ece49952357cba60000000000000000000000000000000000000000000000002a02c99808952362",
                    "revert": false,
                    "revertMessage": "",
                    "selector": "0x128acb08",
                    "status": true,
                    "value": "0"
                },
                "nodeType": 0
            },
            "4": {
                "invocation": {
                    "address": "0x5a98fcbea516cf06857215779fd812ca3bef1b32",
                    "callData": "0x00000000000000000000000056178a0d5f301baf6cf3e1cd53d9863437345bf90000000000000000000000000000000000000000000000a1d131b66adca8345a",
                    "decodedMethod": {
                        "callParams": [
                            {
                                "name": "_to",
                                "type": "address",
                                "value": "0x56178a0d5f301baf6cf3e1cd53d9863437345bf9"
                            },
                            {
                                "decimalAvailable": true,
                                "name": "_amount",
                                "type": "uint256",
                                "value": "2,984,999,825,865,108,370,522"
                            }
                        ],
                        "constructorArguments": "",
                        "name": "transfer",
                        "returnParams": [
                            {
                                "name": "success",
                                "type": "bool",
                                "value": true
                            }
                        ],
                        "signature": "transfer(address,uint256)"
                    },
                    "errorInfo": "",
                    "fromAddress": "0xa3f558aebaecaf0e11ca4b2199cc5ed341edfd74",
                    "gasUsed": 88761,
                    "id": 4,
                    "methodDecoded": true,
                    "operation": "CALL",
                    "output": "0x0000000000000000000000000000000000000000000000000000000000000001",
                    "revert": false,
                    "revertMessage": "",
                    "selector": "0xa9059cbb",
                    "status": true,
                    "value": "0"
                },
                "nodeType": 0
            },
            "5": {
                "invocation": {
                    "address": "0xf73a1260d222f447210581ddf212d915c09a3249",
                    "callData": "0x000000000000000000000000a3f558aebaecaf0e11ca4b2199cc5ed341edfd7400000000000000000000000056178a0d5f301baf6cf3e1cd53d9863437345bf90000000000000000000000000000000000000000000000a1d131b66adca8345a",
                    "decodedMethod": {
                        "callParams": [
                            {
                                "name": "_from",
                                "type": "address",
                                "value": "0xa3f558aebaecaf0e11ca4b2199cc5ed341edfd74"
                            },
                            {
                                "name": "_to",
                                "type": "address",
                                "value": "0x56178a0d5f301baf6cf3e1cd53d9863437345bf9"
                            },
                            {
                                "name": "_amount",
                                "type": "uint256",
                                "value": "2,984,999,825,865,108,370,522"
                            }
                        ],
                        "constructorArguments": "",
                        "name": "onTransfer",
                        "returnParams": [
                            {
                                "name": "",
                                "type": "bool",
                                "value": true
                            }
                        ],
                        "signature": "onTransfer(address,address,uint256)"
                    },
                    "errorInfo": "",
                    "fromAddress": "0x5a98fcbea516cf06857215779fd812ca3bef1b32",
                    "gasUsed": 37314,
                    "id": 5,
                    "methodDecoded": true,
                    "operation": "CALL",
                    "output": "0x0000000000000000000000000000000000000000000000000000000000000001",
                    "revert": false,
                    "revertMessage": "",
                    "selector": "0x4a393149",
                    "status": true,
                    "value": "0"
                },
                "nodeType": 0
            },
            "6": {
                "invocation": {
                    "address": "0xb8ffc3cd6e7cf5a098a1c92f48009765b24088dc",
                    "callData": "0xf1f3eb40f5bc1ad1344716ced8b8a0431d840b5783aea1fd01786bc26f35ac0fcd567bdf93dd0f6acc3bc7f2155f83244d56a65abbfbefb763e015420102c67b",
                    "decodedMethod": {
                        "callParams": [
                            {
                                "name": "_namespace",
                                "type": "bytes32",
                                "value": "0xf1f3eb40f5bc1ad1344716ced8b8a0431d840b5783aea1fd01786bc26f35ac0f"
                            },
                            {
                                "name": "_appId",
                                "type": "bytes32",
                                "value": "0xcd567bdf93dd0f6acc3bc7f2155f83244d56a65abbfbefb763e015420102c67b"
                            }
                        ],
                        "constructorArguments": "",
                        "name": "getApp",
                        "returnParams": [
                            {
                                "name": "",
                                "type": "address",
                                "value": "0xde3a93028f2283cc28756b3674bd657eafb992f4"
                            }
                        ],
                        "signature": "getApp(bytes32,bytes32)"
                    },
                    "errorInfo": "",
                    "fromAddress": "0xf73a1260d222f447210581ddf212d915c09a3249",
                    "gasUsed": 8263,
                    "id": 6,
                    "methodDecoded": true,
                    "operation": "CALL",
                    "output": "0x000000000000000000000000de3a93028f2283cc28756b3674bd657eafb992f4",
                    "revert": false,
                    "revertMessage": "",
                    "selector": "0xbe00bbd8",
                    "status": true,
                    "value": "0"
                },
                "nodeType": 0
            },
            "7": {
                "invocation": {
                    "address": "0x2b33cf282f867a7ff693a66e11b0fcc5552e4425",
                    "callData": "0xf1f3eb40f5bc1ad1344716ced8b8a0431d840b5783aea1fd01786bc26f35ac0fcd567bdf93dd0f6acc3bc7f2155f83244d56a65abbfbefb763e015420102c67b",
                    "decodedMethod": {
                        "callParams": [
                            {
                                "name": "_namespace",
                                "type": "bytes32",
                                "value": "0xf1f3eb40f5bc1ad1344716ced8b8a0431d840b5783aea1fd01786bc26f35ac0f"
                            },
                            {
                                "name": "_appId",
                                "type": "bytes32",
                                "value": "0xcd567bdf93dd0f6acc3bc7f2155f83244d56a65abbfbefb763e015420102c67b"
                            }
                        ],
                        "constructorArguments": "",
                        "name": "getApp",
                        "returnParams": [
                            {
                                "name": "",
                                "type": "address",
                                "value": "0xde3a93028f2283cc28756b3674bd657eafb992f4"
                            }
                        ],
                        "signature": "getApp(bytes32,bytes32)"
                    },
                    "errorInfo": "",
                    "fromAddress": "0xb8ffc3cd6e7cf5a098a1c92f48009765b24088dc",
                    "gasUsed": 2820,
                    "id": 7,
                    "methodDecoded": true,
                    "operation": "DELEGATECALL",
                    "output": "0x000000000000000000000000de3a93028f2283cc28756b3674bd657eafb992f4",
                    "revert": false,
                    "revertMessage": "",
                    "selector": "0xbe00bbd8",
                    "status": true,
                    "value": "0"
                },
                "nodeType": 0
            },
            "8": {
                "invocation": {
                    "address": "0xde3a93028f2283cc28756b3674bd657eafb992f4",
                    "callData": "0x000000000000000000000000a3f558aebaecaf0e11ca4b2199cc5ed341edfd7400000000000000000000000056178a0d5f301baf6cf3e1cd53d9863437345bf90000000000000000000000000000000000000000000000a1d131b66adca8345a",
                    "decodedMethod": {
                        "callParams": [
                            {
                                "name": "_from",
                                "type": "address",
                                "value": "0xa3f558aebaecaf0e11ca4b2199cc5ed341edfd74"
                            },
                            {
                                "name": "_to",
                                "type": "address",
                                "value": "0x56178a0d5f301baf6cf3e1cd53d9863437345bf9"
                            },
                            {
                                "name": "_amount",
                                "type": "uint256",
                                "value": "2,984,999,825,865,108,370,522"
                            }
                        ],
                        "constructorArguments": "",
                        "name": "onTransfer",
                        "returnParams": [
                            {
                                "name": "",
                                "type": "bool",
                                "value": true
                            }
                        ],
                        "signature": "onTransfer(address,address,uint256)"
                    },
                    "errorInfo": "",
                    "fromAddress": "0xf73a1260d222f447210581ddf212d915c09a3249",
                    "gasUsed": 18422,
                    "id": 8,
                    "methodDecoded": true,
                    "operation": "DELEGATECALL",
                    "output": "0x0000000000000000000000000000000000000000000000000000000000000001",
                    "revert": false,
                    "revertMessage": "",
                    "selector": "0x4a393149",
                    "status": true,
                    "value": "0"
                },
                "nodeType": 0
            },
            "9": {
                "invocation": {
                    "address": "0x5a98fcbea516cf06857215779fd812ca3bef1b32",
                    "callData": "0x00000000000000000000000056178a0d5f301baf6cf3e1cd53d9863437345bf9",
                    "decodedMethod": {
                        "callParams": [
                            {
                                "name": "_owner",
                                "type": "address",
                                "value": "0x56178a0d5f301baf6cf3e1cd53d9863437345bf9"
                            }
                        ],
                        "constructorArguments": "",
                        "name": "balanceOf",
                        "returnParams": [
                            {
                                "decimalAvailable": true,
                                "name": "balance",
                                "type": "uint256",
                                "value": "56,475,819,872,558,855,166,677"
                            }
                        ],
                        "signature": "balanceOf(address)"
                    },
                    "errorInfo": "",
                    "fromAddress": "0xf73a1260d222f447210581ddf212d915c09a3249",
                    "gasUsed": 8016,
                    "id": 9,
                    "methodDecoded": true,
                    "operation": "CALL",
                    "output": "0x000000000000000000000000000000000000000000000bf58f71c85fe1331ad5",
                    "revert": false,
                    "revertMessage": "",
                    "selector": "0x70a08231",
                    "status": true,
                    "value": "0"
                },
                "nodeType": 0
            }
        },
        "gasFlame": [
            {
                "children": [
                    {
                        "children": [
                            {
                                "children": [],
                                "depth": 0,
                                "name": "Initial Gas",
                                "value": 23256
                            },
                            {
                                "children": [
                                    {
                                        "children": [
                                            {
                                                "children": [],
                                                "depth": 2,
                                                "name": "slot0",
                                                "value": 2696
                                            },
                                            {
                                                "children": [
                                                    {
                                                        "children": [
                                                            {
                                                                "children": [
                                                                    {
                                                                        "children": [
                                                                            {
                                                                                "children": [],
                                                                                "depth": 6,
                                                                                "name": "getApp",
                                                                                "value": 2820
                                                                            }
                                                                        ],
                                                                        "depth": 5,
                                                                        "name": "getApp",
                                                                        "value": 8263
                                                                    },
                                                                    {
                                                                        "children": [
                                                                            {
                                                                                "children": [],
                                                                                "depth": 6,
                                                                                "name": "balanceOf",
                                                                                "value": 8016
                                                                            },
                                                                            {
                                                                                "children": [],
                                                                                "depth": 6,
                                                                                "name": "balanceOf",
                                                                                "value": 2016
                                                                            }
                                                                        ],
                                                                        "depth": 5,
                                                                        "name": "onTransfer",
                                                                        "value": 18422
                                                                    }
                                                                ],
                                                                "depth": 4,
                                                                "name": "onTransfer",
                                                                "value": 37314
                                                            }
                                                        ],
                                                        "depth": 3,
                                                        "name": "transfer",
                                                        "value": 88761
                                                    },
                                                    {
                                                        "children": [],
                                                        "depth": 3,
                                                        "name": "balanceOf",
                                                        "value": 2534
                                                    },
                                                    {
                                                        "children": [
                                                            {
                                                                "children": [],
                                                                "depth": 4,
                                                                "name": "transferFrom",
                                                                "value": 13025
                                                            }
                                                        ],
                                                        "depth": 3,
                                                        "name": "uniswapV3SwapCallback",
                                                        "value": 13664
                                                    },
                                                    {
                                                        "children": [],
                                                        "depth": 3,
                                                        "name": "balanceOf",
                                                        "value": 534
                                                    }
                                                ],
                                                "depth": 2,
                                                "name": "swap",
                                                "value": 143276
                                            }
                                        ],
                                        "depth": 1,
                                        "name": "0x1f3cc1fe",
                                        "value": 149851
                                    }
                                ],
                                "depth": 0,
                                "name": "Executed Gas",
                                "value": 153683
                            }
                        ],
                        "depth": -1,
                        "name": "Actual Gas Used",
                        "value": 176939
                    },
                    {
                        "children": [],
                        "depth": -1,
                        "name": "Refunded Gas",
                        "value": 0
                    }
                ],
                "depth": -2,
                "name": "Total Gas",
                "value": 176939
            }
        ],
        "isConfirmed": true,
        "mainTrace": [
            {
                "children": [
                    {
                        "children": [
                            {
                                "children": [
                                    {
                                        "children": [],
                                        "depth": 2,
                                        "id": 2,
                                        "order": 2
                                    },
                                    {
                                        "children": [
                                            {
                                                "children": [
                                                    {
                                                        "children": [
                                                            {
                                                                "children": [
                                                                    {
                                                                        "children": [],
                                                                        "depth": 6,
                                                                        "id": 7,
                                                                        "order": 7
                                                                    }
                                                                ],
                                                                "depth": 5,
                                                                "id": 6,
                                                                "order": 6
                                                            },
                                                            {
                                                                "children": [
                                                                    {
                                                                        "children": [],
                                                                        "depth": 6,
                                                                        "id": 9,
                                                                        "order": 9
                                                                    },
                                                                    {
                                                                        "children": [],
                                                                        "depth": 6,
                                                                        "id": 10,
                                                                        "order": 10
                                                                    }
                                                                ],
                                                                "depth": 5,
                                                                "id": 8,
                                                                "order": 8
                                                            }
                                                        ],
                                                        "depth": 4,
                                                        "id": 5,
                                                        "order": 5
                                                    },
                                                    {
                                                        "children": [],
                                                        "depth": 4,
                                                        "id": 11,
                                                        "order": 11
                                                    }
                                                ],
                                                "depth": 3,
                                                "id": 4,
                                                "order": 4
                                            },
                                            {
                                                "children": [],
                                                "depth": 3,
                                                "id": 12,
                                                "order": 12
                                            },
                                            {
                                                "children": [
                                                    {
                                                        "children": [
                                                            {
                                                                "children": [],
                                                                "depth": 5,
                                                                "id": 15,
                                                                "order": 15
                                                            }
                                                        ],
                                                        "depth": 4,
                                                        "id": 14,
                                                        "order": 14
                                                    }
                                                ],
                                                "depth": 3,
                                                "id": 13,
                                                "order": 13
                                            },
                                            {
                                                "children": [],
                                                "depth": 3,
                                                "id": 16,
                                                "order": 16
                                            },
                                            {
                                                "children": [],
                                                "depth": 3,
                                                "id": 17,
                                                "order": 17
                                            }
                                        ],
                                        "depth": 2,
                                        "id": 3,
                                        "order": 3
                                    }
                                ],
                                "depth": 1,
                                "id": 1,
                                "order": 1
                            }
                        ],
                        "depth": 0,
                        "id": 0,
                        "order": 0
                    }
                ],
                "depth": -1,
                "id": -1,
                "order": -1
            }
        ],
        "mainTraceNodeCount": 18,
        "parentIdMap": {
            "0": -1,
            "1": 0,
            "10": 8,
            "11": 4,
            "12": 3,
            "13": 3,
            "14": 13,
            "15": 14,
            "16": 3,
            "17": 3,
            "2": 1,
            "3": 1,
            "4": 3,
            "5": 4,
            "6": 5,
            "7": 6,
            "8": 5,
            "9": 8
        },
        "tidyTrace": [
            {
                "children": [
                    {
                        "children": [
                            {
                                "children": [
                                    {
                                        "children": [],
                                        "depth": 2,
                                        "id": 2,
                                        "order": 2
                                    },
                                    {
                                        "children": [
                                            {
                                                "children": [
                                                    {
                                                        "children": [
                                                            {
                                                                "children": [
                                                                    {
                                                                        "children": [],
                                                                        "depth": 6,
                                                                        "id": 7,
                                                                        "order": 7
                                                                    }
                                                                ],
                                                                "depth": 5,
                                                                "id": 6,
                                                                "order": 6
                                                            },
                                                            {
                                                                "children": [
                                                                    {
                                                                        "children": [],
                                                                        "depth": 6,
                                                                        "id": 9,
                                                                        "order": 9
                                                                    },
                                                                    {
                                                                        "children": [],
                                                                        "depth": 6,
                                                                        "id": 10,
                                                                        "order": 10
                                                                    }
                                                                ],
                                                                "depth": 5,
                                                                "id": 8,
                                                                "order": 8
                                                            }
                                                        ],
                                                        "depth": 4,
                                                        "id": 5,
                                                        "order": 5
                                                    },
                                                    {
                                                        "children": [],
                                                        "depth": 4,
                                                        "id": 11,
                                                        "order": 11
                                                    }
                                                ],
                                                "depth": 3,
                                                "id": 4,
                                                "order": 4
                                            },
                                            {
                                                "children": [
                                                    {
                                                        "children": [
                                                            {
                                                                "children": [],
                                                                "depth": 5,
                                                                "id": 15,
                                                                "order": 15
                                                            }
                                                        ],
                                                        "depth": 4,
                                                        "id": 14,
                                                        "order": 14
                                                    }
                                                ],
                                                "depth": 3,
                                                "id": 13,
                                                "order": 13
                                            },
                                            {
                                                "children": [],
                                                "depth": 3,
                                                "id": 17,
                                                "order": 17
                                            }
                                        ],
                                        "depth": 2,
                                        "id": 3,
                                        "order": 3
                                    }
                                ],
                                "depth": 1,
                                "id": 1,
                                "order": 1
                            }
                        ],
                        "depth": 0,
                        "id": 0,
                        "order": 0
                    }
                ],
                "depth": -1,
                "id": -1,
                "order": -1
            }
        ],
        "tidyTraceNodeCount": 16
    },
    "state_change": {
        "stateChanges": [
            {
                "address": "0x5a98fcbea516cf06857215779fd812ca3bef1b32",
                "erc": "ERC-20",
                "slots": [
                    {
                        "current": "0x000000000001a9617c5ba24b5cb7131200000000000000000000000000f03abd",
                        "key": "0x2bb02f7a911f7acc2d4ffd7f0be24de813ba275e8846b6fbda9d9bf613b8a1ff",
                        "prev": "0x000000000001aa034d8d58b6395f476c00000000000000000000000000f03abd"
                    },
                    {
                        "current": "0x0000000000000000000000000000000000000000000000000000000000003c62",
                        "key": "0x0b3a2a646a6a5c2e222d82217b1825f02a45a0bb2b6345ce398da0e6851c5b12",
                        "prev": "0x0000000000000000000000000000000000000000000000000000000000003c61"
                    },
                    {
                        "current": "0x0000000000000c9760a37ecabddb4f2f00000000000000000000000000f03abd",
                        "key": "0x17113ccbdc48b23be4793ab48ffe5a0dbb0772a92351bc7869c6a1f03555a92c",
                        "prev": "0x0000000000000000000000000000000000000000000000000000000000000000"
                    }
                ],
                "storageVariables": [
                    {
                        "name": "balances",
                        "type": "mapping(address => struct MiniMeToken.Checkpoint[])",
                        "value": {
                            "pairs": [
                                {
                                    "key": "0x56178a0d5f301baf6cf3e1cd53d9863437345bf9",
                                    "value": {
                                        "elemType": "struct MiniMeToken.Checkpoint",
                                        "elems": [
                                            {
                                                "index": 15457,
                                                "value": {
                                                    "fields": [
                                                        {
                                                            "name": "fromBlock",
                                                            "type": "uint128",
                                                            "value": {
                                                                "current": "15743677",
                                                                "prev": "0",
                                                                "typeTag": 1
                                                            }
                                                        },
                                                        {
                                                            "name": "value",
                                                            "type": "uint128",
                                                            "value": {
                                                                "current": "59460819698423963537199",
                                                                "prev": "0",
                                                                "typeTag": 1
                                                            }
                                                        }
                                                    ],
                                                    "typeTag": 3
                                                }
                                            }
                                        ],
                                        "typeTag": 2
                                    }
                                },
                                {
                                    "key": "0xa3f558aebaecaf0e11ca4b2199cc5ed341edfd74",
                                    "value": {
                                        "elemType": "struct MiniMeToken.Checkpoint",
                                        "elems": [
                                            {
                                                "index": 20645,
                                                "value": {
                                                    "fields": [
                                                        {
                                                            "name": "fromBlock",
                                                            "type": "uint128",
                                                            "value": {
                                                                "current": "15743677",
                                                                "prev": "15743677",
                                                                "typeTag": 1
                                                            }
                                                        },
                                                        {
                                                            "name": "value",
                                                            "type": "uint128",
                                                            "value": {
                                                                "current": "2008804050329077187810066",
                                                                "prev": "2011789050154942296180588",
                                                                "typeTag": 1
                                                            }
                                                        }
                                                    ],
                                                    "typeTag": 3
                                                }
                                            }
                                        ],
                                        "typeTag": 2
                                    }
                                }
                            ],
                            "typeTag": 4
                        }
                    }
                ]
            },
            {
                "address": "0xa3f558aebaecaf0e11ca4b2199cc5ed341edfd74",
                "erc": "",
                "slots": [
                    {
                        "current": "0x000100000100010000fef29a000000000000000008246d1a904bee8e8dbd1961",
                        "key": "0x0000000000000000000000000000000000000000000000000000000000000000",
                        "prev": "0x000100000100010000fef290000000000000000008235dfe021e85cb333dfbe7"
                    },
                    {
                        "current": "0x0000000000000000000000000000000000d939cdea0dc1f5588bf6587e298f10",
                        "key": "0x0000000000000000000000000000000000000000000000000000000000000002",
                        "prev": "0x0000000000000000000000000000000000d938fd12f74830d7a023d2a64fd1e3"
                    }
                ],
                "storageVariables": []
            },
            {
                "address": "0xc02aaa39b223fe8d0a0e5c4f27ead9083c756cc2",
                "erc": "ERC-20",
                "slots": [
                    {
                        "current": "0x000000000000000000000000000000000000000000000313307db8ef753db6b3",
                        "key": "0x30bd84b96629f958113934633d3bd1b64c3d259a85c57ceac65da8c5ec9bf3a7",
                        "prev": "0x0000000000000000000000000000000000000000000003135a8082877dd2da15"
                    },
                    {
                        "current": "0x000000000000000000000000000000000000000000000009043f2969aa306568",
                        "key": "0x12ed0242e5b5478e54852c950fa127e3775ded1c7ac3b6fd822a07e2da20af2e",
                        "prev": "0x000000000000000000000000000000000000000000000008da3c5fd1a19b4206"
                    }
                ],
                "storageVariables": [
                    {
                        "name": "balanceOf",
                        "type": "mapping(address => uint256)",
                        "value": {
                            "pairs": [
                                {
                                    "key": "0x56178a0d5f301baf6cf3e1cd53d9863437345bf9",
                                    "value": {
                                        "current": "14521081738233930167987",
                                        "prev": "14524108941788292766229",
                                        "typeTag": 1
                                    }
                                },
                                {
                                    "key": "0xa3f558aebaecaf0e11ca4b2199cc5ed341edfd74",
                                    "value": {
                                        "current": "166326705496874050920",
                                        "prev": "163299501942511452678",
                                        "typeTag": 1
                                    }
                                }
                            ],
                            "typeTag": 4
                        }
                    }
                ]
            }
        ]
    }
}