{
    "balance_change": {
        "balanceChanges": [
            {
                "account": "0x0d0707963952f2fba59dd06f2b425ace40b492fe",
                "assets": [
                    {
                        "address": "0x0f5d2fb29fb7d3cfee444a200298f468908cc942",
                        "amount": "75.290518",
                        "iconUrl": "https://assets.blocksec.com/icon/54d64db7c4b21ad51c32e15fe06a87bf31831382d6c6aa49b4adb5dfaa42993c.png",
                        "isERC1155": false,
                        "isERC721": false,
                        "sign": false,
                        "value": "42.177748183600002354"
                    }
                ]
            },
            {
                "account": "0x6a6bf86d8c465d9180e1a35523a977cd3d637c09",
                "assets": [
                    {
                        "address": "0x0f5d2fb29fb7d3cfee444a200298f468908cc942",
                        "amount": "75.290518",
                        "iconUrl": "https://assets.blocksec.com/icon/54d64db7c4b21ad51c32e15fe06a87bf31831382d6c6aa49b4adb5dfaa42993c.png",
                        "isERC1155": false,
                        "isERC721": false,
                        "sign": true,
                        "value": "42.177748183600002354"
                    }
                ]
            }
        ]
    },
    "profile": {
        "basic_info": {
            "baseFee": "90.296006914",
            "blockNumber": 18862947,
            "callData": "0xa9059cbb0000000000000000000000006a6bf86d8c465d9180e1a35523a977cd3d637c0900000000000000000000000000000000000000000000000414dda736f9276000",
            "debugEnable": true,
            "errorInfo": "",
            "eventCount": 1,
            "feeRecipient": "0x95222290dd7278aa3ddd389cc1e1d165cc4bafe5",
            "formatValue": "0",
            "gasLimit": 1000000,
            "gasPrice": "100.296006914",
            "gasUsed": 54249,
            "intTxnCount": 0,
            "internalRevert": false,
            "internalRevertMessage": "",
            "isContractCreation": false,
            "isFlashloan": false,
            "maxFee": "190.410852768",
            "nonce": 5190105,
            "overwritedBlockNumber": -1,
            "priorityFee": "10",
            "receiver": "0x0f5d2fb29fb7d3cfee444a200298f468908cc942",
            "revertMessage": "",
            "sender": "0x0d0707963952f2fba59dd06f2b425ace40b492fe",
            "simulationEnable": true,
            "sourceTxnHash": "0xc9c02bd48c2f6d81363a610b2688cc81e35b66babdf05a2bad7185723bce2c57",
            "status": true,
            "timestamp": "2023-12-25T13:09:35Z",
            "transactionFee": "0.005440958079077586",
            "txnHash": "0xc9c02bd48c2f6d81363a610b2688cc81e35b66babdf05a2bad7185723bce2c57",
            "txnIndex": 33,
            "type": 2,
            "value": "0"
        },
        "fund_flow": [
            {
                "amount": "75.290518",
                "from": "0x0d0707963952f2fba59dd06f2b425ace40b492fe",
                "id": 1,
                "isERC1155": false,
                "isERC721": false,
                "isReverted": false,
                "order": 1,
                "to": "0x6a6bf86d8c465d9180e1a35523a977cd3d637c09",
                "token": "0x0f5d2fb29fb7d3cfee444a200298f468908cc942"
            }
        ],
        "token_infos": [
            {
                "address": "0xc02aaa39b223fe8d0a0e5c4f27ead9083c756cc2",
                "decimals": 18
            },
            {
                "address": "0xeeeeeeeeeeeeeeeeeeeeeeeeeeeeeeeeeeeeeeee",
                "decimals": 18
            },
            {
                "address": "0x0f5d2fb29fb7d3cfee444a200298f468908cc942",
                "decimals": 18
            }
        ]
    },
    "address_label": {
        "labels": [
            {
                "address": "0x0000000000000000000000000000000000000004",
                "label": "Precompiled"
            },
            {
                "address": "0xeeeeeeeeeeeeeeeeeeeeeeeeeeeeeeeeeeeeeeee",
                "label": "Ether"
            },
            {
                "address": "0x0f5d2fb29fb7d3cfee444a200298f468908cc942",
                "label": "Decentraland: MANA Token"
            },
            {
                "address": "0x0d0707963952f2fba59dd06f2b425ace40b492fe",
                "label": "Gate.io"
            },
            {
                "address": "0x0000000000000000000000000000000000000001",
                "label": "Precompiled"
            },
            {
                "address": "0x0000000000000000000000000000000000000002",
                "label": "Precompiled"
            },
            {
                "address": "0x0000000000000000000000000000000000000003",
                "label": "Precompiled"
            }
        ]
    },
    "trace": {
        "accountLabels": null,
        "dataMap": {
            "-1": {
                "invocation": {
                    "address": "0x0d0707963952f2fba59dd06f2b425ace40b492fe",
                    "callData": "",
                    "decodedMethod": null,
                    "errorInfo": "",
                    "fromAddress": "",
                    "gasUsed": 0,
                    "id": -1,
                    "methodDecoded": false,
                    "operation": "",
                    "output": "",
                    "revert": false,
                    "revertMessage": "",
                    "selector": "",
                    "status": false,
                    "value": ""
                },
                "nodeType": 0
            },
            "0": {
                "invocation": {
                    "address": "0x0f5d2fb29fb7d3cfee444a200298f468908cc942",
                    "callData": "0x0000000000000000000000006a6bf86d8c465d9180e1a35523a977cd3d637c0900000000000000000000000000000000000000000000000414dda736f9276000",
                    "decodedMethod": {
                        "callParams": [
                            {
                                "name": "_to",
                                "type": "address",
                                "value": "0x6a6bf86d8c465d9180e1a35523a977cd3d637c09"
                            },
                            {
                                "decimalAvailable": true,
                                "name": "_value",
                                "type": "uint256",
                                "value": "75,290,518,000,000,000,000"
                            }
                        ],
                        "constructorArguments": "",
                        "name": "transfer",
                        "returnParams": [
                            {
                                "name": "",
                                "type": "bool",
                                "value": true
                            }
                        ],
                        "signature": "transfer(address,uint256)"
                    },
                    "errorInfo": "",
                    "fromAddress": "0x0d0707963952f2fba59dd06f2b425ace40b492fe",
                    "gasUsed": 54249,
                    "id": 0,
                    "methodDecoded": true,
                    "operation": "CALL",
                    "output": "0x0000000000000000000000000000000000000000000000000000000000000001",
                    "revert": false,
                    "revertMessage": "",
                    "selector": "0xa9059cbb",
                    "status": true,
                    "value": "0"
                },
                "nodeType": 0
            },
            "1": {
                "event": {
                    "contract": "0x0f5d2fb29fb7d3cfee444a200298f468908cc942",
                    "decodedLog": {
                        "name": "Transfer",
                        "params": [
                            {
                                "name": "from",
                                "type": "address",
                                "value": "0x0d0707963952f2fba59dd06f2b425ace40b492fe"
                            },
                            {
                                "name": "to",
                                "type": "address",
                                "value": "0x6a6bf86d8c465d9180e1a35523a977cd3d637c09"
                            },
                            {
                                "decimalAvailable": true,
                                "name": "value",
                                "type": "uint256",
                                "value": "75,290,518,000,000,000,000"
                            }
                        ],
                        "signature": "Transfer(address,address,uint256)"
                    },
                    "id": 1,
                    "logData": "0x00000000000000000000000000000000000000000000000414dda736f9276000",
                    "logDecoded": true,
                    "operation": "EVENT",
                    "revert": false,
                    "status": true,
                    "topics": [
                        "0xddf252ad1be2c89b69c2b068fc378daa952ba7f163c4a11628f55a4df523b3ef",
                        "0x0000000000000000000000000d0707963952f2fba59dd06f2b425ace40b492fe",
                        "0x0000000000000000000000006a6bf86d8c465d9180e1a35523a977cd3d637c09"
                    ]
                },
                "nodeType": 1
            }
        },
        "gasFlame": [
            {
                "children": [
                    {
                        "children": [
                            {
                                "children": [],
                                "depth": 0,
                                "name": "Initial Gas",
                                "value": 21656
                            },
                            {
                                "children": [],
                                "depth": 0,
                                "name": "Executed Gas",
                                "value": 32593
                            }
                        ],
                        "depth": -1,
                        "name": "Actual Gas Used",
                        "value": 54249
                    },
                    {
                        "children": [],
                        "depth": -1,
                        "name": "Refunded Gas",
                        "value": 0
                    }
                ],
                "depth": -2,
                "name": "Total Gas",
                "value": 54249
            }
        ],
        "isConfirmed": true,
        "mainTrace": [
            {
                "children": [
                    {
                        "children": [
                            {
                                "children": [],
                                "depth": 1,
                                "id": 1,
                                "order": 1
                            }
                        ],
                        "depth": 0,
                        "id": 0,
                        "order": 0
                    }
                ],
                "depth": -1,
                "id": -1,
                "order": -1
            }
        ],
        "mainTraceNodeCount": 2,
        "parentIdMap": {
            "0": -1,
            "1": 0
        },
        "tidyTrace": [
            {
                "children": [
                    {
                        "children": [
                            {
                                "children": [],
                                "depth": 1,
                                "id": 1,
                                "order": 1
                            }
                        ],
                        "depth": 0,
                        "id": 0,
                        "order": 0
                    }
                ],
                "depth": -1,
                "id": -1,
                "order": -1
            }
        ],
        "tidyTraceNodeCount": 2
    },
    "state_change": {
        "stateChanges": [
            {
                "address": "0x0f5d2fb29fb7d3cfee444a200298f468908cc942",
                "erc": "ERC-20",
                "slots": [
                    {
                        "current": "0x00000000000000000000000000000000000000000000000414dda736f9276000",
                        "key": "0xfc271845a95c5dadbae5d1a9edb9499809f448688077f3428e3880d0a8220e8f",
                        "prev": "0x0000000000000000000000000000000000000000000000000000000000000000"
                    },
                    {
                        "current": "0x00000000000000000000000000000000000000000001ae5c68d8f007412ee563",
                        "key": "0x8f3fcd8a87d8a8259bebf9cb6e7e851eb52ed472d13c686b03ef031d54fecb85",
                        "prev": "0x00000000000000000000000000000000000000000001ae607db6973e3a564563"
                    }
                ],
                "storageVariables": []
            }
        ]
    }
}