{
    "balance_change": {
        "balanceChanges": [
            {
                "account": "0xd106b4573b4f11030b54fee580404c7dda206ab5",
                "assets": [
                    {
                        "address": "0xeeeeeeeeeeeeeeeeeeeeeeeeeeeeeeeeeeeeeeee",
                        "amount": "0.3",
                        "iconUrl": "https://assets.blocksec.com/image/1663669189317-3.png",
                        "isERC1155": false,
                        "isERC721": false,
                        "sign": false,
                        "value": ""
                    }
                ]
            },
            {
                "account": "0x83e82cea898b1ed1785bc3beac86034913831e60",
                "assets": [
                    {
                        "address": "0xeeeeeeeeeeeeeeeeeeeeeeeeeeeeeeeeeeeeeeee",
                        "amount": "0.3",
                        "iconUrl": "https://assets.blocksec.com/image/1663669189317-3.png",
                        "isERC1155": false,
                        "isERC721": false,
                        "sign": true,
                        "value": ""
                    }
                ]
            }
        ]
    },
    "profile": {
        "basic_info": {
            "baseFee": "",
            "blockNumber": 4602588,
            "callData": "0x274465b40000000000000000000000000000000012f4ce26ebe043ac8549868a2a65b541",
            "debugEnable": true,
            "errorInfo": "",
            "eventCount": 2,
            "feeRecipient": "0x52bc44d5378309ee2abf1539bf71de1b7d7be3b5",
            "formatValue": "0.3",
            "gasLimit": 260300,
            "gasPrice": "22",
            "gasUsed": 85467,
            "intTxnCount": 1,
            "internalRevert": false,
            "internalRevertMessage": "",
            "isContractCreation": false,
            "isFlashloan": false,
            "maxFee": "",
            "nonce": 5,
            "overwritedBlockNumber": -1,
            "priorityFee": "",
            "receiver": "0x0b0dd5737eb7432c7c7054ef156628c6d7b9d2f4",
            "revertMessage": "",
            "sender": "0xd106b4573b4f11030b54fee580404c7dda206ab5",
            "simulationEnable": true,
            "sourceTxnHash": "0xc922077c485492f734cab8ac830ab109f3c3b1afbf1c93dfcea877aed511ca74",
            "status": true,
            "timestamp": "2017-11-22T19:46:58Z",
            "transactionFee": "0.001880274",
            "txnHash": "0xc922077c485492f734cab8ac830ab109f3c3b1afbf1c93dfcea877aed511ca74",
            "txnIndex": 19,
            "type": 0,
            "value": "300000000000000000"
        },
        "fund_flow": [
            {
                "amount": "0.3",
                "from": "0xd106b4573b4f11030b54fee580404c7dda206ab5",
                "id": 1,
                "isERC1155": false,
                "isERC721": false,
                "isReverted": false,
                "order": 1,
                "to": "0x0b0dd5737eb7432c7c7054ef156628c6d7b9d2f4",
                "token": "0xeeeeeeeeeeeeeeeeeeeeeeeeeeeeeeeeeeeeeeee"
            },
            {
                "amount": "0.3",
                "from": "0x0b0dd5737eb7432c7c7054ef156628c6d7b9d2f4",
                "id": 2,
                "isERC1155": false,
                "isERC721": false,
                "isReverted": false,
                "order": 2,
                "to": "0x83e82cea898b1ed1785bc3beac86034913831e60",
                "token": "0xeeeeeeeeeeeeeeeeeeeeeeeeeeeeeeeeeeeeeeee"
            }
        ],
        "token_infos": [
            {
                "address": "0xc02aaa39b223fe8d0a0e5c4f27ead9083c756cc2",
                "decimals": 18
            },
            {
                "address": "0xeeeeeeeeeeeeeeeeeeeeeeeeeeeeeeeeeeeeeeee",
                "decimals": 18
            }
        ]
    },
    "address_label": {
        "labels": [
            {
                "address": "0x0000000000000000000000000000000000000003",
                "label": "Precompiled"
            },
            {
                "address": "0x0000000000000000000000000000000000000004",
                "label": "Precompiled"
            },
            {
                "address": "0xeeeeeeeeeeeeeeeeeeeeeeeeeeeeeeeeeeeeeeee",
                "label": "Ether"
            },
            {
                "address": "0x83e82cea898b1ed1785bc3beac86034913831e60",
                "label": "MultiSigWallet"
            },
            {
                "address": "0x0b0dd5737eb7432c7c7054ef156628c6d7b9d2f4",
                "label": "PaymentForwarder"
            },
            {
                "address": "0x0000000000000000000000000000000000000001",
                "label": "Precompiled"
            },
            {
                "address": "0x0000000000000000000000000000000000000002",
                "label": "Precompiled"
            }
        ]
    },
    "trace": {
        "accountLabels": null,
        "dataMap": {
            "-1": {
                "invocation": {
                    "address": "0xd106b4573b4f11030b54fee580404c7dda206ab5",
                    "callData": "",
                    "decodedMethod": null,
                    "errorInfo": "",
                    "fromAddress": "",
                    "gasUsed": 0,
                    "id": -1,
                    "methodDecoded": false,
                    "operation": "",
                    "output": "",
                    "revert": false,
                    "revertMessage": "",
                    "selector": "",
                    "status": false,
                    "value": ""
                },
                "nodeType": 0
            },
            "0": {
                "invocation": {
                    "address": "0x0b0dd5737eb7432c7c7054ef156628c6d7b9d2f4",
                    "callData": "0x0000000000000000000000000000000012f4ce26ebe043ac8549868a2a65b541",
                    "decodedMethod": {
                        "callParams": [
                            {
                                "name": "customerId",
                                "type": "uint128",
                                "value": "25,197,205,617,659,607,712,390,586,515,860,075,841"
                            }
                        ],
                        "constructorArguments": "",
                        "name": "payForMyself",
                        "returnParams": [],
                        "signature": "payForMyself(uint128)"
                    },
                    "errorInfo": "",
                    "fromAddress": "0xd106b4573b4f11030b54fee580404c7dda206ab5",
                    "gasUsed": 85467,
                    "id": 0,
                    "methodDecoded": true,
                    "operation": "CALL",
                    "output": "",
                    "revert": false,
                    "revertMessage": "",
                    "selector": "0x274465b4",
                    "status": true,
                    "value": "0.3"
                },
                "nodeType": 0
            },
            "1": {
                "event": {
                    "contract": "0x0b0dd5737eb7432c7c7054ef156628c6d7b9d2f4",
                    "decodedLog": {
                        "name": "PaymentForwarded",
                        "params": [
                            {
                                "name": "source",
                                "type": "address",
                                "value": "0xd106b4573b4f11030b54fee580404c7dda206ab5"
                            },
                            {
                                "name": "amount",
                                "type": "uint256",
                                "value": "300,000,000,000,000,000"
                            },
                            {
                                "name": "customerId",
                                "type": "uint128",
                                "value": "25,197,205,617,659,607,712,390,586,515,860,075,841"
                            },
                            {
                                "name": "benefactor",
                                "type": "address",
                                "value": "0xd106b4573b4f11030b54fee580404c7dda206ab5"
                            }
                        ],
                        "signature": "PaymentForwarded(address,uint256,uint128,address)"
                    },
                    "id": 1,
                    "logData": "0x000000000000000000000000d106b4573b4f11030b54fee580404c7dda206ab50000000000000000000000000000000000000000000000000429d069189e00000000000000000000000000000000000012f4ce26ebe043ac8549868a2a65b541000000000000000000000000d106b4573b4f11030b54fee580404c7dda206ab5",
                    "logDecoded": true,
                    "operation": "EVENT",
                    "revert": false,
                    "status": true,
                    "topics": [
                        "0x4e4e2d6da11427f2d85d47e2bced64efa9ccd9694ae97786772a22d465bc80a4"
                    ]
                },
                "nodeType": 1
            },
            "2": {
                "invocation": {
                    "address": "0x83e82cea898b1ed1785bc3beac86034913831e60",
                    "callData": "0x",
                    "decodedMethod": null,
                    "errorInfo": "",
                    "fromAddress": "0x0b0dd5737eb7432c7c7054ef156628c6d7b9d2f4",
                    "gasUsed": 1567,
                    "id": 2,
                    "methodDecoded": false,
                    "operation": "CALL",
                    "output": "",
                    "revert": false,
                    "revertMessage": "",
                    "selector": "fallback",
                    "status": true,
                    "value": "0.3"
                },
                "nodeType": 0
            },
            "3": {
                "event": {
                    "contract": "0x83e82cea898b1ed1785bc3beac86034913831e60",
                    "decodedLog": {
                        "name": "Deposit",
                        "params": [
                            {
                                "name": "sender",
                                "type": "address",
                                "value": "0x0b0dd5737eb7432c7c7054ef156628c6d7b9d2f4"
                            },
                            {
                                "name": "value",
                                "type": "uint256",
                                "value": "300,000,000,000,000,000"
                            }
                        ],
                        "signature": "Deposit(address,uint256)"
                    },
                    "id": 3,
                    "logData": "0x0000000000000000000000000000000000000000000000000429d069189e0000",
                    "logDecoded": true,
                    "operation": "EVENT",
                    "revert": false,
                    "status": true,
                    "topics": [
                        "0xe1fffcc4923d04b559f4d29a8bfc6cda04eb5b0d3c460751c2402c5c5cc9109c",
                        "0x0000000000000000000000000b0dd5737eb7432c7c7054ef156628c6d7b9d2f4"
                    ]
                },
                "nodeType": 1
            }
        },
        "gasFlame": [
            {
                "children": [
                    {
                        "children": [
                            {
                                "children": [],
                                "depth": 0,
                                "name": "Initial Gas",
                                "value": 22424
                            },
                            {
                                "children": [
                                    {
                                        "children": [],
                                        "depth": 1,
                                        "name": "fallback",
                                        "value": 1567
                                    }
                                ],
                                "depth": 0,
                                "name": "Executed Gas",
                                "value": 63043
                            }
                        ],
                        "depth": -1,
                        "name": "Actual Gas Used",
                        "value": 85467
                    },
                    {
                        "children": [],
                        "depth": -1,
                        "name": "Refunded Gas",
                        "value": 0
                    }
                ],
                "depth": -2,
                "name": "Total Gas",
                "value": 85467
            }
        ],
        "isConfirmed": true,
        "mainTrace": [
            {
                "children": [
                    {
                        "children": [
                            {
                                "children": [],
                                "depth": 1,
                                "id": 1,
                                "order": 1
                            },
                            {
                                "children": [
                                    {
                                        "children": [],
                                        "depth": 2,
                                        "id": 3,
                                        "order": 3
                                    }
                                ],
                                "depth": 1,
                                "id": 2,
                                "order": 2
                            }
                        ],
                        "depth": 0,
                        "id": 0,
                        "order": 0
                    }
                ],
                "depth": -1,
                "id": -1,
                "order": -1
            }
        ],
        "mainTraceNodeCount": 4,
        "parentIdMap": {
            "0": -1,
            "1": 0,
            "2": 0,
            "3": 2
        },
        "tidyTrace": [
            {
                "children": [
                    {
                        "children": [
                            {
                                "children": [],
                                "depth": 1,
                                "id": 1,
                                "order": 1
                            },
                            {
                                "children": [
                                    {
                                        "children": [],
                                        "depth": 2,
                                        "id": 3,
                                        "order": 3
                                    }
                                ],
                                "depth": 1,
                                "id": 2,
                                "order": 2
                            }
                        ],
                        "depth": 0,
                        "id": 0,
                        "order": 0
                    }
                ],
                "depth": -1,
                "id": -1,
                "order": -1
            }
        ],
        "tidyTraceNodeCount": 4
    },
    "state_change": {
        "stateChanges": [
            {
                "address": "0x0b0dd5737eb7432c7c7054ef156628c6d7b9d2f4",
                "erc": "",
                "slots": [
                    {
                        "current": "0x0000000000000000000000000000000000000000000000000429d069189e0000",
                        "key": "0x827776ed755237fb0c25f2c66cb9351eaae35a12f48109cd69792278525c5b62",
                        "prev": "0x0000000000000000000000000000000000000000000000000000000000000000"
                    },
                    {
                        "current": "0x0000000000000000000000000000000000000000000000000429d069189e0000",
                        "key": "0x0ac3302c3f7ea23e23ef170475b9a30eee729712d5c7b021f8c686c556be6589",
                        "prev": "0x0000000000000000000000000000000000000000000000000000000000000000"
                    },
                    {
                        "current": "0x00000000000000000000000000000000000000000000010becfecf27006b4a72",
                        "key": "0x0000000000000000000000000000000000000000000000000000000000000002",
                        "prev": "0x00000000000000000000000000000000000000000000010be8d4febde7cd4a72"
                    },
                    {
                        "current": "0x0000000000000000000000000000000000000000000000000000000000000602",
                        "key": "0x0000000000000000000000000000000000000000000000000000000000000003",
                        "prev": "0x0000000000000000000000000000000000000000000000000000000000000601"
                    }
                ],
                "storageVariables": [
                    {
                        "name": "paymentsByCustomer",
                        "type": "mapping(uint128 => uint256)",
                        "value": {
                            "pairs": [
                                {
                                    "key": "25197205617659607712390586515860075841",
                                    "value": {
                                        "current": "300000000000000000",
                                        "prev": "0",
                                        "typeTag": 1
                                    }
                                }
                            ],
                            "typeTag": 4
                        }
                    },
                    {
                        "name": "paymentsByBenefactor",
                        "type": "mapping(address => uint256)",
                        "value": {
                            "pairs": [
                                {
                                    "key": "0xd106b4573b4f11030b54fee580404c7dda206ab5",
                                    "value": {
                                        "current": "300000000000000000",
                                        "prev": "0",
                                        "typeTag": 1
                                    }
                                }
                            ],
                            "typeTag": 4
                        }
                    },
                    {
                        "name": "totalTransferred",
                        "type": "uint256",
                        "value": {
                            "current": "4942357982283903486578",
                            "prev": "4942057982283903486578",
                            "typeTag": 1
                        }
                    },
                    {
                        "name": "customerCount",
                        "type": "uint256",
                        "value": {
                            "current": "1538",
                            "prev": "1537",
                            "typeTag": 1
                        }
                    }
                ]
            }
        ]
    }
}