{
    "balance_change": {
        "balanceChanges": []
    },
    "profile": {
        "basic_info": {
            "baseFee": "",
            "blockNumber": 12273230,
            "callData": "0xc98075390000000000000000000000000000000000000000000000000000000000000080000000000000000000000000000000000000000000000000000000000000032000000000000000000000000000000000000000000000000000000000000004000000010001010000000000000000000000000000000000000000000000000000000000000000000000000000000000000000000000000000000000000000028000000000000000000000003417b1d3c19fa2c2c41cff6804ca0fcf00002302020b0d02010c0a0700040f0e090608030500000000000000000000000000000000000000000000000000000000000000000000000000000000000000000000006000000000000000000000000000000000000000000000000000000000000000100000000000000000000000000000000000000000000000000000000000ec90c10000000000000000000000000000000000000000000000000000000000ecb4a70000000000000000000000000000000000000000000000000000000000ecf8100000000000000000000000000000000000000000000000000000000000ed07560000000000000000000000000000000000000000000000000000000000ed46300000000000000000000000000000000000000000000000000000000000ed46300000000000000000000000000000000000000000000000000000000000ed46300000000000000000000000000000000000000000000000000000000000ed46300000000000000000000000000000000000000000000000000000000000ed49a00000000000000000000000000000000000000000000000000000000000f4f57c0000000000000000000000000000000000000000000000000000000000f511aa0000000000000000000000000000000000000000000000000000000000f65f7c0000000000000000000000000000000000000000000000000000000000f65f7c0000000000000000000000000000000000000000000000000000000000f65f7c0000000000000000000000000000000000000000000000000000000000fa4b680000000000000000000000000000000000000000000000000000000000fce45100000000000000000000000000000000000000000000000000000000000000069cc3b4c0197c16e559615a84979da4b35a78ff35ed23efff882d1523bd51c461cb5775fa683f4a6c8e08701d9a4670ca63ed0ca218ee4f784a4ebf355021dc6b94515cddb1c6344d113f9ff2dcbca0bf498394ea53569a75197c6e22ab383495d8116deee1fcc75d841e002685099db2f75d0ce415f2f22a40ae60d0e027f4e6d559ea8fd4500e1892e91def13ed93ce3355d178693013622326a73d334a7c56a03afb319f4d47ad7522e985d3c3b061aa4e878830cb50279c017d2b51c617e400000000000000000000000000000000000000000000000000000000000000066456a987f686953f5c27d6d53ce2ebbb58aeea452cd4e03e3df854c34086e0b27a5cc747e1d9f02ad4489a0760fb324d8881baf2e16e8d150f29c4732161bcfc0face7073265e007f3c3dafddc5e49d692eb350b16e8927fc9ee5e259b54802459687ef2209191256cb62b40fdd8cf04c8bccd5699d9a5d75c6362c73921a47227572a74544a44b305dc1ce3a6ecbe5276ab44e2538b1e67e1e9e6173f10ab981d09753e7d8c13ae6ac7ef82e21d69c8132b9459fc47171e1c61c5fa0535ca09",
            "debugEnable": true,
            "errorInfo": "execution reverted",
            "eventCount": 0,
            "feeRecipient": "0x5a0b54d5dc17e0aadc383d2db43b0a0d3e029c4c",
            "formatValue": "0",
            "gasLimit": 500000,
            "gasPrice": "269.5",
            "gasUsed": 35967,
            "intTxnCount": 0,
            "internalRevert": false,
            "internalRevertMessage": "",
            "isContractCreation": false,
            "isFlashloan": false,
            "maxFee": "",
            "nonce": 5086,
            "overwritedBlockNumber": -1,
            "priorityFee": "",
            "receiver": "0xbbc9ab3f66d0b934089fdcceda3615a6bb879633",
            "revertMessage": "stale report",
            "sender": "0xddeb598fe902a13cc523aaff5240e9988edce170",
            "simulationEnable": true,
            "sourceTxnHash": "0xc9113c02d0263c6e93272dd9218101c0b8277d7b7af32cd4afff27dfc11c30fe",
            "status": false,
            "timestamp": "2021-04-19T22:35:44Z",
            "transactionFee": "0.0096931065",
            "txnHash": "0xc9113c02d0263c6e93272dd9218101c0b8277d7b7af32cd4afff27dfc11c30fe",
            "txnIndex": 169,
            "type": 0,
            "value": "0"
        },
        "fund_flow": [],
        "token_infos": [
            {
                "address": "0xc02aaa39b223fe8d0a0e5c4f27ead9083c756cc2",
                "decimals": 18
            },
            {
                "address": "0xeeeeeeeeeeeeeeeeeeeeeeeeeeeeeeeeeeeeeeee",
                "decimals": 18
            }
        ]
    },
    "address_label": {
        "labels": [
            {
                "address": "0x0000000000000000000000000000000000000001",
                "label": "Precompiled"
            },
            {
                "address": "0x0000000000000000000000000000000000000002",
                "label": "Precompiled"
            },
            {
                "address": "0x0000000000000000000000000000000000000003",
                "label": "Precompiled"
            },
            {
                "address": "0x0000000000000000000000000000000000000004",
                "label": "Precompiled"
            },
            {
                "address": "0xeeeeeeeeeeeeeeeeeeeeeeeeeeeeeeeeeeeeeeee",
                "label": "Ether"
            },
            {
                "address": "0xbbc9ab3f66d0b934089fdcceda3615a6bb879633",
                "label": "AccessControlledOffchainAggregator"
            }
        ]
    },
    "trace": {
        "accountLabels": null,
        "dataMap": {
            "-1": {
                "invocation": {
                    "address": "0xddeb598fe902a13cc523aaff5240e9988edce170",
                    "callData": "",
                    "decodedMethod": null,
                    "errorInfo": "",
                    "fromAddress": "",
                    "gasUsed": 0,
                    "id": -1,
                    "methodDecoded": false,
                    "operation": "",
                    "output": "",
                    "revert": false,
                    "revertMessage": "",
                    "selector": "",
                    "status": false,
                    "value": ""
                },
                "nodeType": 0
            },
            "0": {
                "invocation": {
                    "address": "0xbbc9ab3f66d0b934089fdcceda3615a6bb879633",
                    "callData": "0x0000000000000000000000000000000000000000000000000000000000000080000000000000000000000000000000000000000000000000000000000000032000000000000000000000000000000000000000000000000000000000000004000000010001010000000000000000000000000000000000000000000000000000000000000000000000000000000000000000000000000000000000000000028000000000000000000000003417b1d3c19fa2c2c41cff6804ca0fcf00002302020b0d02010c0a0700040f0e090608030500000000000000000000000000000000000000000000000000000000000000000000000000000000000000000000006000000000000000000000000000000000000000000000000000000000000000100000000000000000000000000000000000000000000000000000000000ec90c10000000000000000000000000000000000000000000000000000000000ecb4a70000000000000000000000000000000000000000000000000000000000ecf8100000000000000000000000000000000000000000000000000000000000ed07560000000000000000000000000000000000000000000000000000000000ed46300000000000000000000000000000000000000000000000000000000000ed46300000000000000000000000000000000000000000000000000000000000ed46300000000000000000000000000000000000000000000000000000000000ed46300000000000000000000000000000000000000000000000000000000000ed49a00000000000000000000000000000000000000000000000000000000000f4f57c0000000000000000000000000000000000000000000000000000000000f511aa0000000000000000000000000000000000000000000000000000000000f65f7c0000000000000000000000000000000000000000000000000000000000f65f7c0000000000000000000000000000000000000000000000000000000000f65f7c0000000000000000000000000000000000000000000000000000000000fa4b680000000000000000000000000000000000000000000000000000000000fce45100000000000000000000000000000000000000000000000000000000000000069cc3b4c0197c16e559615a84979da4b35a78ff35ed23efff882d1523bd51c461cb5775fa683f4a6c8e08701d9a4670ca63ed0ca218ee4f784a4ebf355021dc6b94515cddb1c6344d113f9ff2dcbca0bf498394ea53569a75197c6e22ab383495d8116deee1fcc75d841e002685099db2f75d0ce415f2f22a40ae60d0e027f4e6d559ea8fd4500e1892e91def13ed93ce3355d178693013622326a73d334a7c56a03afb319f4d47ad7522e985d3c3b061aa4e878830cb50279c017d2b51c617e400000000000000000000000000000000000000000000000000000000000000066456a987f686953f5c27d6d53ce2ebbb58aeea452cd4e03e3df854c34086e0b27a5cc747e1d9f02ad4489a0760fb324d8881baf2e16e8d150f29c4732161bcfc0face7073265e007f3c3dafddc5e49d692eb350b16e8927fc9ee5e259b54802459687ef2209191256cb62b40fdd8cf04c8bccd5699d9a5d75c6362c73921a47227572a74544a44b305dc1ce3a6ecbe5276ab44e2538b1e67e1e9e6173f10ab981d09753e7d8c13ae6ac7ef82e21d69c8132b9459fc47171e1c61c5fa0535ca09",
                    "decodedMethod": {
                        "callParams": [
                            {
                                "name": "_report",
                                "type": "bytes",
                                "value": "0x00000000000000000000003417b1d3c19fa2c2c41cff6804ca0fcf00002302020b0d02010c0a0700040f0e090608030500000000000000000000000000000000000000000000000000000000000000000000000000000000000000000000006000000000000000000000000000000000000000000000000000000000000000100000000000000000000000000000000000000000000000000000000000ec90c10000000000000000000000000000000000000000000000000000000000ecb4a70000000000000000000000000000000000000000000000000000000000ecf8100000000000000000000000000000000000000000000000000000000000ed07560000000000000000000000000000000000000000000000000000000000ed46300000000000000000000000000000000000000000000000000000000000ed46300000000000000000000000000000000000000000000000000000000000ed46300000000000000000000000000000000000000000000000000000000000ed46300000000000000000000000000000000000000000000000000000000000ed49a00000000000000000000000000000000000000000000000000000000000f4f57c0000000000000000000000000000000000000000000000000000000000f511aa0000000000000000000000000000000000000000000000000000000000f65f7c0000000000000000000000000000000000000000000000000000000000f65f7c0000000000000000000000000000000000000000000000000000000000f65f7c0000000000000000000000000000000000000000000000000000000000fa4b680000000000000000000000000000000000000000000000000000000000fce451"
                            },
                            {
                                "name": "_rs",
                                "type": "bytes32[]",
                                "value": [
                                    "0x9cc3b4c0197c16e559615a84979da4b35a78ff35ed23efff882d1523bd51c461",
                                    "0xcb5775fa683f4a6c8e08701d9a4670ca63ed0ca218ee4f784a4ebf355021dc6b",
                                    "0x94515cddb1c6344d113f9ff2dcbca0bf498394ea53569a75197c6e22ab383495",
                                    "0xd8116deee1fcc75d841e002685099db2f75d0ce415f2f22a40ae60d0e027f4e6",
                                    "0xd559ea8fd4500e1892e91def13ed93ce3355d178693013622326a73d334a7c56",
                                    "0xa03afb319f4d47ad7522e985d3c3b061aa4e878830cb50279c017d2b51c617e4"
                                ]
                            },
                            {
                                "name": "_ss",
                                "type": "bytes32[]",
                                "value": [
                                    "0x6456a987f686953f5c27d6d53ce2ebbb58aeea452cd4e03e3df854c34086e0b2",
                                    "0x7a5cc747e1d9f02ad4489a0760fb324d8881baf2e16e8d150f29c4732161bcfc",
                                    "0x0face7073265e007f3c3dafddc5e49d692eb350b16e8927fc9ee5e259b548024",
                                    "0x59687ef2209191256cb62b40fdd8cf04c8bccd5699d9a5d75c6362c73921a472",
                                    "0x27572a74544a44b305dc1ce3a6ecbe5276ab44e2538b1e67e1e9e6173f10ab98",
                                    "0x1d09753e7d8c13ae6ac7ef82e21d69c8132b9459fc47171e1c61c5fa0535ca09"
                                ]
                            },
                            {
                                "name": "_rawVs",
                                "type": "bytes32",
                                "value": "0x0000010001010000000000000000000000000000000000000000000000000000"
                            }
                        ],
                        "constructorArguments": "",
                        "name": "transmit",
                        "returnParams": [],
                        "signature": "transmit(bytes,bytes32[],bytes32[],bytes32)"
                    },
                    "errorInfo": "execution reverted",
                    "fromAddress": "0xddeb598fe902a13cc523aaff5240e9988edce170",
                    "gasUsed": 35967,
                    "id": 0,
                    "methodDecoded": true,
                    "operation": "CALL",
                    "output": "0x08c379a00000000000000000000000000000000000000000000000000000000000000020000000000000000000000000000000000000000000000000000000000000000c7374616c65207265706f72740000000000000000000000000000000000000000",
                    "revert": true,
                    "revertMessage": "stale report",
                    "selector": "0xc9807539",
                    "status": false,
                    "value": "0"
                },
                "nodeType": 0
            }
        },
        "gasFlame": [
            {
                "children": [
                    {
                        "children": [
                            {
                                "children": [],
                                "depth": 0,
                                "name": "Initial Gas",
                                "value": 31792
                            },
                            {
                                "children": [],
                                "depth": 0,
                                "name": "Executed Gas",
                                "value": 4175
                            }
                        ],
                        "depth": -1,
                        "name": "Actual Gas Used",
                        "value": 35967
                    },
                    {
                        "children": [],
                        "depth": -1,
                        "name": "Refunded Gas",
                        "value": 0
                    }
                ],
                "depth": -2,
                "name": "Total Gas",
                "value": 35967
            }
        ],
        "isConfirmed": true,
        "mainTrace": [
            {
                "children": [
                    {
                        "children": [],
                        "depth": 0,
                        "id": 0,
                        "order": 0
                    }
                ],
                "depth": -1,
                "id": -1,
                "order": -1
            }
        ],
        "mainTraceNodeCount": 1,
        "parentIdMap": {
            "0": -1
        },
        "tidyTrace": [
            {
                "children": [
                    {
                        "children": [],
                        "depth": 0,
                        "id": 0,
                        "order": 0
                    }
                ],
                "depth": -1,
                "id": -1,
                "order": -1
            }
        ],
        "tidyTraceNodeCount": 1
    },
    "state_change": {
        "stateChanges": []
    }
}