{
    "balance_change": {
        "balanceChanges": [
            {
                "account": "0x503828976d22510aad0201ac7ec88293211d23da",
                "assets": [
                    {
                        "address": "0x4a220e6096b25eadb88358cb44068a3248254675",
                        "amount": "2.54",
                        "iconUrl": "https://assets.blocksec.com/icon/2517ae4798f8af07582abbcc7e22fbabe148d0b4c36e1004952431a198138ad8.png",
                        "isERC1155": false,
                        "isERC721": false,
                        "sign": false,
                        "value": "293.7950425"
                    }
                ]
            },
            {
                "account": "0x7c89fa305e737b6b5cc7b68080194504003ed451",
                "assets": [
                    {
                        "address": "0x4a220e6096b25eadb88358cb44068a3248254675",
                        "amount": "2.54",
                        "iconUrl": "https://assets.blocksec.com/icon/2517ae4798f8af07582abbcc7e22fbabe148d0b4c36e1004952431a198138ad8.png",
                        "isERC1155": false,
                        "isERC721": false,
                        "sign": true,
                        "value": "293.7950425"
                    }
                ]
            }
        ]
    },
    "profile": {
        "basic_info": {
            "baseFee": "39.340352703",
            "blockNumber": 14619200,
            "callData": "0xa9059cbb0000000000000000000000007c89fa305e737b6b5cc7b68080194504003ed451000000000000000000000000000000000000000000000000233fe48ae17e0000",
            "debugEnable": true,
            "errorInfo": "",
            "eventCount": 1,
            "feeRecipient": "0x2a20380dca5bc24d052acfbf79ba23e988ad0050",
            "formatValue": "0",
            "gasLimit": 250000,
            "gasPrice": "41.340352703",
            "gasUsed": 51933,
            "intTxnCount": 0,
            "internalRevert": false,
            "internalRevertMessage": "",
            "isContractCreation": false,
            "isFlashloan": false,
            "maxFee": "76",
            "nonce": 1483376,
            "overwritedBlockNumber": -1,
            "priorityFee": "2",
            "receiver": "0x4a220e6096b25eadb88358cb44068a3248254675",
            "revertMessage": "",
            "sender": "0x503828976d22510aad0201ac7ec88293211d23da",
            "simulationEnable": true,
            "sourceTxnHash": "0xc957963bd51c19f0e67703021d37ab16b777d74dd6f8e9fadf19f1dcec8c8f02",
            "status": true,
            "timestamp": "2022-04-20T02:11:24Z",
            "transactionFee": "0.002146928536924899",
            "txnHash": "0xc957963bd51c19f0e67703021d37ab16b777d74dd6f8e9fadf19f1dcec8c8f02",
            "txnIndex": 96,
            "type": 2,
            "value": "0"
        },
        "fund_flow": [
            {
                "amount": "2.54",
                "from": "0x503828976d22510aad0201ac7ec88293211d23da",
                "id": 1,
                "isERC1155": false,
                "isERC721": false,
                "isReverted": false,
                "order": 1,
                "to": "0x7c89fa305e737b6b5cc7b68080194504003ed451",
                "token": "0x4a220e6096b25eadb88358cb44068a3248254675"
            }
        ],
        "token_infos": [
            {
                "address": "0x4a220e6096b25eadb88358cb44068a3248254675",
                "decimals": 18
            },
            {
                "address": "0xc02aaa39b223fe8d0a0e5c4f27ead9083c756cc2",
                "decimals": 18
            },
            {
                "address": "0xeeeeeeeeeeeeeeeeeeeeeeeeeeeeeeeeeeeeeeee",
                "decimals": 18
            }
        ]
    },
    "address_label": {
        "labels": [
            {
                "address": "0x4a220e6096b25eadb88358cb44068a3248254675",
                "label": "Quant: QNT Token"
            },
            {
                "address": "0x503828976d22510aad0201ac7ec88293211d23da",
                "label": "Coinbase 2"
            },
            {
                "address": "0x0000000000000000000000000000000000000001",
                "label": "Precompiled"
            },
            {
                "address": "0x0000000000000000000000000000000000000002",
                "label": "Precompiled"
            },
            {
                "address": "0x0000000000000000000000000000000000000003",
                "label": "Precompiled"
            },
            {
                "address": "0x0000000000000000000000000000000000000004",
                "label": "Precompiled"
            },
            {
                "address": "0xeeeeeeeeeeeeeeeeeeeeeeeeeeeeeeeeeeeeeeee",
                "label": "Ether"
            }
        ]
    },
    "trace": {
        "accountLabels": null,
        "dataMap": {
            "-1": {
                "invocation": {
                    "address": "0x503828976d22510aad0201ac7ec88293211d23da",
                    "callData": "",
                    "decodedMethod": null,
                    "errorInfo": "",
                    "fromAddress": "",
                    "gasUsed": 0,
                    "id": -1,
                    "methodDecoded": false,
                    "operation": "",
                    "output": "",
                    "revert": false,
                    "revertMessage": "",
                    "selector": "",
                    "status": false,
                    "value": ""
                },
                "nodeType": 0
            },
            "0": {
                "invocation": {
                    "address": "0x4a220e6096b25eadb88358cb44068a3248254675",
                    "callData": "0x0000000000000000000000007c89fa305e737b6b5cc7b68080194504003ed451000000000000000000000000000000000000000000000000233fe48ae17e0000",
                    "decodedMethod": {
                        "callParams": [
                            {
                                "name": "_to",
                                "type": "address",
                                "value": "0x7c89fa305e737b6b5cc7b68080194504003ed451"
                            },
                            {
                                "decimalAvailable": true,
                                "name": "_value",
                                "type": "uint256",
                                "value": "2,540,000,000,000,000,000"
                            }
                        ],
                        "constructorArguments": "",
                        "name": "transfer",
                        "returnParams": [
                            {
                                "name": "",
                                "type": "bool",
                                "value": true
                            }
                        ],
                        "signature": "transfer(address,uint256)"
                    },
                    "errorInfo": "",
                    "fromAddress": "0x503828976d22510aad0201ac7ec88293211d23da",
                    "gasUsed": 51933,
                    "id": 0,
                    "methodDecoded": true,
                    "operation": "CALL",
                    "output": "0x0000000000000000000000000000000000000000000000000000000000000001",
                    "revert": false,
                    "revertMessage": "",
                    "selector": "0xa9059cbb",
                    "status": true,
                    "value": "0"
                },
                "nodeType": 0
            },
            "1": {
                "event": {
                    "contract": "0x4a220e6096b25eadb88358cb44068a3248254675",
                    "decodedLog": {
                        "name": "Transfer",
                        "params": [
                            {
                                "name": "from",
                                "type": "address",
                                "value": "0x503828976d22510aad0201ac7ec88293211d23da"
                            },
                            {
                                "name": "to",
                                "type": "address",
                                "value": "0x7c89fa305e737b6b5cc7b68080194504003ed451"
                            },
                            {
                                "decimalAvailable": true,
                                "name": "value",
                                "type": "uint256",
                                "value": "2,540,000,000,000,000,000"
                            }
                        ],
                        "signature": "Transfer(address,address,uint256)"
                    },
                    "id": 1,
                    "logData": "0x000000000000000000000000000000000000000000000000233fe48ae17e0000",
                    "logDecoded": true,
                    "operation": "EVENT",
                    "revert": false,
                    "status": true,
                    "topics": [
                        "0xddf252ad1be2c89b69c2b068fc378daa952ba7f163c4a11628f55a4df523b3ef",
                        "0x000000000000000000000000503828976d22510aad0201ac7ec88293211d23da",
                        "0x0000000000000000000000007c89fa305e737b6b5cc7b68080194504003ed451"
                    ]
                },
                "nodeType": 1
            }
        },
        "gasFlame": [
            {
                "children": [
                    {
                        "children": [
                            {
                                "children": [],
                                "depth": 0,
                                "name": "Initial Gas",
                                "value": 21620
                            },
                            {
                                "children": [],
                                "depth": 0,
                                "name": "Executed Gas",
                                "value": 30313
                            }
                        ],
                        "depth": -1,
                        "name": "Actual Gas Used",
                        "value": 51933
                    },
                    {
                        "children": [],
                        "depth": -1,
                        "name": "Refunded Gas",
                        "value": 0
                    }
                ],
                "depth": -2,
                "name": "Total Gas",
                "value": 51933
            }
        ],
        "isConfirmed": true,
        "mainTrace": [
            {
                "children": [
                    {
                        "children": [
                            {
                                "children": [],
                                "depth": 1,
                                "id": 1,
                                "order": 1
                            }
                        ],
                        "depth": 0,
                        "id": 0,
                        "order": 0
                    }
                ],
                "depth": -1,
                "id": -1,
                "order": -1
            }
        ],
        "mainTraceNodeCount": 2,
        "parentIdMap": {
            "0": -1,
            "1": 0
        },
        "tidyTrace": [
            {
                "children": [
                    {
                        "children": [
                            {
                                "children": [],
                                "depth": 1,
                                "id": 1,
                                "order": 1
                            }
                        ],
                        "depth": 0,
                        "id": 0,
                        "order": 0
                    }
                ],
                "depth": -1,
                "id": -1,
                "order": -1
            }
        ],
        "tidyTraceNodeCount": 2
    },
    "state_change": {
        "stateChanges": [
            {
                "address": "0x4a220e6096b25eadb88358cb44068a3248254675",
                "erc": "ERC-20",
                "slots": [
                    {
                        "current": "0x00000000000000000000000000000000000000000000014ef1e3449173a91573",
                        "key": "0x49ce6c78636d7c64e68ff0eed88b8587dccff68bab28389ef667983774cd7b8d",
                        "prev": "0x00000000000000000000000000000000000000000000014f1523291c55271573"
                    },
                    {
                        "current": "0x000000000000000000000000000000000000000000000000233fe48ae17e0000",
                        "key": "0x1248a91e63223cca33f2da18c5605adcf511c57e8730f6541755915934701979",
                        "prev": "0x0000000000000000000000000000000000000000000000000000000000000000"
                    }
                ],
                "storageVariables": [
                    {
                        "name": "balances",
                        "type": "mapping(address => uint256)",
                        "value": {
                            "pairs": [
                                {
                                    "key": "0x503828976d22510aad0201ac7ec88293211d23da",
                                    "value": {
                                        "current": "6178642370993345598835",
                                        "prev": "6181182370993345598835",
                                        "typeTag": 1
                                    }
                                },
                                {
                                    "key": "0x7c89fa305e737b6b5cc7b68080194504003ed451",
                                    "value": {
                                        "current": "2540000000000000000",
                                        "prev": "0",
                                        "typeTag": 1
                                    }
                                }
                            ],
                            "typeTag": 4
                        }
                    }
                ]
            }
        ]
    }
}