{
    "balance_change": {
        "balanceChanges": [
            {
                "account": "0x21dd5c13925407e5bcec3f27ab11a355a9dafbe3",
                "assets": [
                    {
                        "address": "0xa0f5505dc06ebe8ee8cbdc2059eade0b9f35cbc2",
                        "amount": "470",
                        "iconUrl": "",
                        "isERC1155": false,
                        "isERC721": false,
                        "sign": false,
                        "value": ""
                    }
                ]
            },
            {
                "account": "0xd242a4614c5d9bab0676212dc63857aea8611d4d",
                "assets": [
                    {
                        "address": "0xa0f5505dc06ebe8ee8cbdc2059eade0b9f35cbc2",
                        "amount": "470",
                        "iconUrl": "",
                        "isERC1155": false,
                        "isERC721": false,
                        "sign": true,
                        "value": ""
                    }
                ]
            }
        ]
    },
    "profile": {
        "basic_info": {
            "baseFee": "",
            "blockNumber": 12645534,
            "callData": "0xa9059cbb000000000000000000000000d242a4614c5d9bab0676212dc63857aea8611d4d0000000000000000000000000000000000000000000000197a8f6dd551980000",
            "debugEnable": true,
            "errorInfo": "",
            "eventCount": 1,
            "feeRecipient": "0x002e08000acbbae2155fab7ac01929564949070d",
            "formatValue": "0",
            "gasLimit": 300000,
            "gasPrice": "12.1",
            "gasUsed": 51678,
            "intTxnCount": 0,
            "internalRevert": false,
            "internalRevertMessage": "",
            "isContractCreation": false,
            "isFlashloan": false,
            "maxFee": "",
            "nonce": 39069,
            "overwritedBlockNumber": -1,
            "priorityFee": "",
            "receiver": "0xa0f5505dc06ebe8ee8cbdc2059eade0b9f35cbc2",
            "revertMessage": "",
            "sender": "0x21dd5c13925407e5bcec3f27ab11a355a9dafbe3",
            "simulationEnable": true,
            "sourceTxnHash": "0xc9c300fc87fc9a390d1bd71f2c0c615cd4195ab316a0e7161476262079519fd8",
            "status": true,
            "timestamp": "2021-06-16T12:37:04Z",
            "transactionFee": "0.0006253038",
            "txnHash": "0xc9c300fc87fc9a390d1bd71f2c0c615cd4195ab316a0e7161476262079519fd8",
            "txnIndex": 19,
            "type": 0,
            "value": "0"
        },
        "fund_flow": [
            {
                "amount": "470",
                "from": "0x21dd5c13925407e5bcec3f27ab11a355a9dafbe3",
                "id": 1,
                "isERC1155": false,
                "isERC721": false,
                "isReverted": false,
                "order": 1,
                "to": "0xd242a4614c5d9bab0676212dc63857aea8611d4d",
                "token": "0xa0f5505dc06ebe8ee8cbdc2059eade0b9f35cbc2"
            }
        ],
        "token_infos": [
            {
                "address": "0xa0f5505dc06ebe8ee8cbdc2059eade0b9f35cbc2",
                "decimals": 18
            },
            {
                "address": "0xc02aaa39b223fe8d0a0e5c4f27ead9083c756cc2",
                "decimals": 18
            },
            {
                "address": "0xeeeeeeeeeeeeeeeeeeeeeeeeeeeeeeeeeeeeeeee",
                "decimals": 18
            }
        ]
    },
    "address_label": {
        "labels": [
            {
                "address": "0xa0f5505dc06ebe8ee8cbdc2059eade0b9f35cbc2",
                "label": "BXMI Exchange: Bxmi Token"
            },
            {
                "address": "0x0000000000000000000000000000000000000001",
                "label": "Precompiled"
            },
            {
                "address": "0x0000000000000000000000000000000000000002",
                "label": "Precompiled"
            },
            {
                "address": "0x0000000000000000000000000000000000000003",
                "label": "Precompiled"
            },
            {
                "address": "0x0000000000000000000000000000000000000004",
                "label": "Precompiled"
            },
            {
                "address": "0xeeeeeeeeeeeeeeeeeeeeeeeeeeeeeeeeeeeeeeee",
                "label": "Ether"
            },
            {
                "address": "0x21dd5c13925407e5bcec3f27ab11a355a9dafbe3",
                "label": "Coinsbit 2"
            }
        ]
    },
    "trace": {
        "accountLabels": null,
        "dataMap": {
            "-1": {
                "invocation": {
                    "address": "0x21dd5c13925407e5bcec3f27ab11a355a9dafbe3",
                    "callData": "",
                    "decodedMethod": null,
                    "errorInfo": "",
                    "fromAddress": "",
                    "gasUsed": 0,
                    "id": -1,
                    "methodDecoded": false,
                    "operation": "",
                    "output": "",
                    "revert": false,
                    "revertMessage": "",
                    "selector": "",
                    "status": false,
                    "value": ""
                },
                "nodeType": 0
            },
            "0": {
                "invocation": {
                    "address": "0xa0f5505dc06ebe8ee8cbdc2059eade0b9f35cbc2",
                    "callData": "0x000000000000000000000000d242a4614c5d9bab0676212dc63857aea8611d4d0000000000000000000000000000000000000000000000197a8f6dd551980000",
                    "decodedMethod": {
                        "callParams": [
                            {
                                "name": "recipient",
                                "type": "address",
                                "value": "0xd242a4614c5d9bab0676212dc63857aea8611d4d"
                            },
                            {
                                "decimalAvailable": true,
                                "name": "amount",
                                "type": "uint256",
                                "value": "470,000,000,000,000,000,000"
                            }
                        ],
                        "constructorArguments": "",
                        "name": "transfer",
                        "returnParams": [
                            {
                                "name": "",
                                "type": "bool",
                                "value": true
                            }
                        ],
                        "signature": "transfer(address,uint256)"
                    },
                    "errorInfo": "",
                    "fromAddress": "0x21dd5c13925407e5bcec3f27ab11a355a9dafbe3",
                    "gasUsed": 51678,
                    "id": 0,
                    "methodDecoded": true,
                    "operation": "CALL",
                    "output": "0x0000000000000000000000000000000000000000000000000000000000000001",
                    "revert": false,
                    "revertMessage": "",
                    "selector": "0xa9059cbb",
                    "status": true,
                    "value": "0"
                },
                "nodeType": 0
            },
            "1": {
                "event": {
                    "contract": "0xa0f5505dc06ebe8ee8cbdc2059eade0b9f35cbc2",
                    "decodedLog": {
                        "name": "Transfer",
                        "params": [
                            {
                                "name": "from",
                                "type": "address",
                                "value": "0x21dd5c13925407e5bcec3f27ab11a355a9dafbe3"
                            },
                            {
                                "name": "to",
                                "type": "address",
                                "value": "0xd242a4614c5d9bab0676212dc63857aea8611d4d"
                            },
                            {
                                "decimalAvailable": true,
                                "name": "value",
                                "type": "uint256",
                                "value": "470,000,000,000,000,000,000"
                            }
                        ],
                        "signature": "Transfer(address,address,uint256)"
                    },
                    "id": 1,
                    "logData": "0x0000000000000000000000000000000000000000000000197a8f6dd551980000",
                    "logDecoded": true,
                    "operation": "EVENT",
                    "revert": false,
                    "status": true,
                    "topics": [
                        "0xddf252ad1be2c89b69c2b068fc378daa952ba7f163c4a11628f55a4df523b3ef",
                        "0x00000000000000000000000021dd5c13925407e5bcec3f27ab11a355a9dafbe3",
                        "0x000000000000000000000000d242a4614c5d9bab0676212dc63857aea8611d4d"
                    ]
                },
                "nodeType": 1
            }
        },
        "gasFlame": [
            {
                "children": [
                    {
                        "children": [
                            {
                                "children": [],
                                "depth": 0,
                                "name": "Initial Gas",
                                "value": 21644
                            },
                            {
                                "children": [],
                                "depth": 0,
                                "name": "Executed Gas",
                                "value": 30034
                            }
                        ],
                        "depth": -1,
                        "name": "Actual Gas Used",
                        "value": 51678
                    },
                    {
                        "children": [],
                        "depth": -1,
                        "name": "Refunded Gas",
                        "value": 0
                    }
                ],
                "depth": -2,
                "name": "Total Gas",
                "value": 51678
            }
        ],
        "isConfirmed": true,
        "mainTrace": [
            {
                "children": [
                    {
                        "children": [
                            {
                                "children": [],
                                "depth": 1,
                                "id": 1,
                                "order": 1
                            }
                        ],
                        "depth": 0,
                        "id": 0,
                        "order": 0
                    }
                ],
                "depth": -1,
                "id": -1,
                "order": -1
            }
        ],
        "mainTraceNodeCount": 2,
        "parentIdMap": {
            "0": -1,
            "1": 0
        },
        "tidyTrace": [
            {
                "children": [
                    {
                        "children": [
                            {
                                "children": [],
                                "depth": 1,
                                "id": 1,
                                "order": 1
                            }
                        ],
                        "depth": 0,
                        "id": 0,
                        "order": 0
                    }
                ],
                "depth": -1,
                "id": -1,
                "order": -1
            }
        ],
        "tidyTraceNodeCount": 2
    },
    "state_change": {
        "stateChanges": [
            {
                "address": "0xa0f5505dc06ebe8ee8cbdc2059eade0b9f35cbc2",
                "erc": "ERC-20",
                "slots": [
                    {
                        "current": "0x000000000000000000000000000000000000000000002df8cdc2ddc9413be915",
                        "key": "0x36ec208294e9b5cf27e3606e7cf9603e26e038b292d9575c94ea79f4b6fba33e",
                        "prev": "0x000000000000000000000000000000000000000000002e1248524b9e92d3e915"
                    },
                    {
                        "current": "0x0000000000000000000000000000000000000000000000197a8f6dd551980000",
                        "key": "0xa64515440304ac583a5daa2e03ce4a1bcb4b6778d1934fbb8352c171eab076f9",
                        "prev": "0x0000000000000000000000000000000000000000000000000000000000000000"
                    }
                ],
                "storageVariables": [
                    {
                        "name": "_balances",
                        "type": "mapping(address => uint256)",
                        "value": {
                            "pairs": [
                                {
                                    "key": "0x21dd5c13925407e5bcec3f27ab11a355a9dafbe3",
                                    "value": {
                                        "current": "217096110916193713121557",
                                        "prev": "217566110916193713121557",
                                        "typeTag": 1
                                    }
                                },
                                {
                                    "key": "0xd242a4614c5d9bab0676212dc63857aea8611d4d",
                                    "value": {
                                        "current": "470000000000000000000",
                                        "prev": "0",
                                        "typeTag": 1
                                    }
                                }
                            ],
                            "typeTag": 4
                        }
                    }
                ]
            }
        ]
    }
}