{
    "balance_change": {
        "balanceChanges": [
            {
                "account": "0x05ee546c1a62f90d7acbffd6d846c9c54c7cf94c",
                "assets": [
                    {
                        "address": "0x8f8221afbb33998d8584a2b05749ba73c37a938a",
                        "amount": "26,350",
                        "iconUrl": "https://assets.blocksec.com/icon/5593aec1d288984db2a091ec16712e503c51595ab67b3e158a30474e2a81123c.png",
                        "isERC1155": false,
                        "isERC721": false,
                        "sign": false,
                        "value": ""
                    }
                ]
            },
            {
                "account": "0x5702098b864c4bb47375fdc390c4b747fbfa4e71",
                "assets": [
                    {
                        "address": "0x8f8221afbb33998d8584a2b05749ba73c37a938a",
                        "amount": "26,350",
                        "iconUrl": "https://assets.blocksec.com/icon/5593aec1d288984db2a091ec16712e503c51595ab67b3e158a30474e2a81123c.png",
                        "isERC1155": false,
                        "isERC721": false,
                        "sign": true,
                        "value": ""
                    }
                ]
            }
        ]
    },
    "profile": {
        "basic_info": {
            "baseFee": "",
            "blockNumber": 4550808,
            "callData": "0xa9059cbb0000000000000000000000005702098b864c4bb47375fdc390c4b747fbfa4e710000000000000000000000000000000000000000000005946fb56fb776f80000",
            "debugEnable": true,
            "errorInfo": "",
            "eventCount": 1,
            "feeRecipient": "0xbcdfc35b86bedf72f0cda046a3c16829a2ef41d1",
            "formatValue": "0",
            "gasLimit": 150000,
            "gasPrice": "30",
            "gasUsed": 52372,
            "intTxnCount": 0,
            "internalRevert": false,
            "internalRevertMessage": "",
            "isContractCreation": false,
            "isFlashloan": false,
            "maxFee": "",
            "nonce": 28395,
            "overwritedBlockNumber": -1,
            "priorityFee": "",
            "receiver": "0x8f8221afbb33998d8584a2b05749ba73c37a938a",
            "revertMessage": "",
            "sender": "0x05ee546c1a62f90d7acbffd6d846c9c54c7cf94c",
            "simulationEnable": true,
            "sourceTxnHash": "0xc9726cc38d8adf29fd50d834b24ca13bf73d55d2689da7d3f86f2dd2bb302f94",
            "status": true,
            "timestamp": "2017-11-14T11:26:44Z",
            "transactionFee": "0.00157116",
            "txnHash": "0xc9726cc38d8adf29fd50d834b24ca13bf73d55d2689da7d3f86f2dd2bb302f94",
            "txnIndex": 16,
            "type": 0,
            "value": "0"
        },
        "fund_flow": [
            {
                "amount": "26,350",
                "from": "0x05ee546c1a62f90d7acbffd6d846c9c54c7cf94c",
                "id": 1,
                "isERC1155": false,
                "isERC721": false,
                "isReverted": false,
                "order": 1,
                "to": "0x5702098b864c4bb47375fdc390c4b747fbfa4e71",
                "token": "0x8f8221afbb33998d8584a2b05749ba73c37a938a"
            }
        ],
        "token_infos": [
            {
                "address": "0x8f8221afbb33998d8584a2b05749ba73c37a938a",
                "decimals": 18
            },
            {
                "address": "0xc02aaa39b223fe8d0a0e5c4f27ead9083c756cc2",
                "decimals": 18
            },
            {
                "address": "0xeeeeeeeeeeeeeeeeeeeeeeeeeeeeeeeeeeeeeeee",
                "decimals": 18
            }
        ]
    },
    "address_label": {
        "labels": [
            {
                "address": "0xeeeeeeeeeeeeeeeeeeeeeeeeeeeeeeeeeeeeeeee",
                "label": "Ether"
            },
            {
                "address": "0x5702098b864c4bb47375fdc390c4b747fbfa4e71",
                "label": "BINANCE"
            },
            {
                "address": "0x8f8221afbb33998d8584a2b05749ba73c37a938a",
                "label": "Request: REQ Token"
            },
            {
                "address": "0x05ee546c1a62f90d7acbffd6d846c9c54c7cf94c",
                "label": "Gate.io 6"
            },
            {
                "address": "0x0000000000000000000000000000000000000001",
                "label": "Precompiled"
            },
            {
                "address": "0x0000000000000000000000000000000000000002",
                "label": "Precompiled"
            },
            {
                "address": "0x0000000000000000000000000000000000000003",
                "label": "Precompiled"
            },
            {
                "address": "0x0000000000000000000000000000000000000004",
                "label": "Precompiled"
            }
        ]
    },
    "trace": {
        "accountLabels": null,
        "dataMap": {
            "-1": {
                "invocation": {
                    "address": "0x05ee546c1a62f90d7acbffd6d846c9c54c7cf94c",
                    "callData": "",
                    "decodedMethod": null,
                    "errorInfo": "",
                    "fromAddress": "",
                    "gasUsed": 0,
                    "id": -1,
                    "methodDecoded": false,
                    "operation": "",
                    "output": "",
                    "revert": false,
                    "revertMessage": "",
                    "selector": "",
                    "status": false,
                    "value": ""
                },
                "nodeType": 0
            },
            "0": {
                "invocation": {
                    "address": "0x8f8221afbb33998d8584a2b05749ba73c37a938a",
                    "callData": "0x0000000000000000000000005702098b864c4bb47375fdc390c4b747fbfa4e710000000000000000000000000000000000000000000005946fb56fb776f80000",
                    "decodedMethod": {
                        "callParams": [
                            {
                                "name": "_to",
                                "type": "address",
                                "value": "0x5702098b864c4bb47375fdc390c4b747fbfa4e71"
                            },
                            {
                                "decimalAvailable": true,
                                "name": "_value",
                                "type": "uint256",
                                "value": "26,350,000,000,000,000,000,000"
                            }
                        ],
                        "constructorArguments": "",
                        "name": "transfer",
                        "returnParams": [
                            {
                                "name": "",
                                "type": "bool",
                                "value": true
                            }
                        ],
                        "signature": "transfer(address,uint256)"
                    },
                    "errorInfo": "",
                    "fromAddress": "0x05ee546c1a62f90d7acbffd6d846c9c54c7cf94c",
                    "gasUsed": 52372,
                    "id": 0,
                    "methodDecoded": true,
                    "operation": "CALL",
                    "output": "0x0000000000000000000000000000000000000000000000000000000000000001",
                    "revert": false,
                    "revertMessage": "",
                    "selector": "0xa9059cbb",
                    "status": true,
                    "value": "0"
                },
                "nodeType": 0
            },
            "1": {
                "event": {
                    "contract": "0x8f8221afbb33998d8584a2b05749ba73c37a938a",
                    "decodedLog": {
                        "name": "Transfer",
                        "params": [
                            {
                                "name": "from",
                                "type": "address",
                                "value": "0x05ee546c1a62f90d7acbffd6d846c9c54c7cf94c"
                            },
                            {
                                "name": "to",
                                "type": "address",
                                "value": "0x5702098b864c4bb47375fdc390c4b747fbfa4e71"
                            },
                            {
                                "decimalAvailable": true,
                                "name": "value",
                                "type": "uint256",
                                "value": "26,350,000,000,000,000,000,000"
                            }
                        ],
                        "signature": "Transfer(address,address,uint256)"
                    },
                    "id": 1,
                    "logData": "0x0000000000000000000000000000000000000000000005946fb56fb776f80000",
                    "logDecoded": true,
                    "operation": "EVENT",
                    "revert": false,
                    "status": true,
                    "topics": [
                        "0xddf252ad1be2c89b69c2b068fc378daa952ba7f163c4a11628f55a4df523b3ef",
                        "0x00000000000000000000000005ee546c1a62f90d7acbffd6d846c9c54c7cf94c",
                        "0x0000000000000000000000005702098b864c4bb47375fdc390c4b747fbfa4e71"
                    ]
                },
                "nodeType": 1
            }
        },
        "gasFlame": [
            {
                "children": [
                    {
                        "children": [
                            {
                                "children": [],
                                "depth": 0,
                                "name": "Initial Gas",
                                "value": 23320
                            },
                            {
                                "children": [],
                                "depth": 0,
                                "name": "Executed Gas",
                                "value": 29052
                            }
                        ],
                        "depth": -1,
                        "name": "Actual Gas Used",
                        "value": 52372
                    },
                    {
                        "children": [],
                        "depth": -1,
                        "name": "Refunded Gas",
                        "value": 0
                    }
                ],
                "depth": -2,
                "name": "Total Gas",
                "value": 52372
            }
        ],
        "isConfirmed": true,
        "mainTrace": [
            {
                "children": [
                    {
                        "children": [
                            {
                                "children": [],
                                "depth": 1,
                                "id": 1,
                                "order": 1
                            }
                        ],
                        "depth": 0,
                        "id": 0,
                        "order": 0
                    }
                ],
                "depth": -1,
                "id": -1,
                "order": -1
            }
        ],
        "mainTraceNodeCount": 2,
        "parentIdMap": {
            "0": -1,
            "1": 0
        },
        "tidyTrace": [
            {
                "children": [
                    {
                        "children": [
                            {
                                "children": [],
                                "depth": 1,
                                "id": 1,
                                "order": 1
                            }
                        ],
                        "depth": 0,
                        "id": 0,
                        "order": 0
                    }
                ],
                "depth": -1,
                "id": -1,
                "order": -1
            }
        ],
        "tidyTraceNodeCount": 2
    },
    "state_change": {
        "stateChanges": [
            {
                "address": "0x8f8221afbb33998d8584a2b05749ba73c37a938a",
                "erc": "ERC-20",
                "slots": [
                    {
                        "current": "0x00000000000000000000000000000000000000000004a411986058f990812000",
                        "key": "0x14208c414e9bc9ac02ede2795f073c9302fbbdd4a991869b659d0a258a8ace4c",
                        "prev": "0x00000000000000000000000000000000000000000004a9a60815c8b107792000"
                    },
                    {
                        "current": "0x0000000000000000000000000000000000000000000005946fb56fb776f80000",
                        "key": "0x99fd4fa78abe514a6c2252b66c94725158714a309fd88ac247eac02b5e9757e7",
                        "prev": "0x0000000000000000000000000000000000000000000000000000000000000000"
                    }
                ],
                "storageVariables": [
                    {
                        "name": "balances",
                        "type": "mapping(address => uint256)",
                        "value": {
                            "pairs": [
                                {
                                    "key": "0x05ee546c1a62f90d7acbffd6d846c9c54c7cf94c",
                                    "value": {
                                        "current": "5610495956172112000000000",
                                        "prev": "5636845956172112000000000",
                                        "typeTag": 1
                                    }
                                },
                                {
                                    "key": "0x5702098b864c4bb47375fdc390c4b747fbfa4e71",
                                    "value": {
                                        "current": "26350000000000000000000",
                                        "prev": "0",
                                        "typeTag": 1
                                    }
                                }
                            ],
                            "typeTag": 4
                        }
                    }
                ]
            }
        ]
    }
}