{
    "balance_change": {
        "balanceChanges": [
            {
                "account": "0x2984581ece53a4390d1f568673cf693139c97049",
                "assets": [
                    {
                        "address": "0x1844b21593262668b7248d0f57a220caaba46ab9",
                        "amount": "402.29347314",
                        "iconUrl": "",
                        "isERC1155": false,
                        "isERC721": false,
                        "sign": false,
                        "value": ""
                    }
                ]
            },
            {
                "account": "0xb3e22246def05b3a4c9994f3919809f4703400a5",
                "assets": [
                    {
                        "address": "0x1844b21593262668b7248d0f57a220caaba46ab9",
                        "amount": "402.29347314",
                        "iconUrl": "",
                        "isERC1155": false,
                        "isERC721": false,
                        "sign": true,
                        "value": ""
                    }
                ]
            }
        ]
    },
    "profile": {
        "basic_info": {
            "baseFee": "",
            "blockNumber": 5198143,
            "callData": "0xa9059cbb000000000000000000000000b3e22246def05b3a4c9994f3919809f4703400a5000000000000000000000000000000000000000000000015cef18660efd98800",
            "debugEnable": true,
            "errorInfo": "",
            "eventCount": 1,
            "feeRecipient": "0x5a0b54d5dc17e0aadc383d2db43b0a0d3e029c4c",
            "formatValue": "0",
            "gasLimit": 250000,
            "gasPrice": "30",
            "gasUsed": 53962,
            "intTxnCount": 0,
            "internalRevert": false,
            "internalRevertMessage": "",
            "isContractCreation": false,
            "isFlashloan": false,
            "maxFee": "",
            "nonce": 207381,
            "overwritedBlockNumber": -1,
            "priorityFee": "",
            "receiver": "0x1844b21593262668b7248d0f57a220caaba46ab9",
            "revertMessage": "",
            "sender": "0x2984581ece53a4390d1f568673cf693139c97049",
            "simulationEnable": true,
            "sourceTxnHash": "0xc9139b0e6ce4eda0722c83074664257f0aa543469502742e8fd5cc984725f560",
            "status": true,
            "timestamp": "2018-03-05T01:38:33Z",
            "transactionFee": "0.00161886",
            "txnHash": "0xc9139b0e6ce4eda0722c83074664257f0aa543469502742e8fd5cc984725f560",
            "txnIndex": 8,
            "type": 0,
            "value": "0"
        },
        "fund_flow": [
            {
                "amount": "402.29347314",
                "from": "0x2984581ece53a4390d1f568673cf693139c97049",
                "id": 1,
                "isERC1155": false,
                "isERC721": false,
                "isReverted": false,
                "order": 1,
                "to": "0xb3e22246def05b3a4c9994f3919809f4703400a5",
                "token": "0x1844b21593262668b7248d0f57a220caaba46ab9"
            }
        ],
        "token_infos": [
            {
                "address": "0xeeeeeeeeeeeeeeeeeeeeeeeeeeeeeeeeeeeeeeee",
                "decimals": 18
            },
            {
                "address": "0x1844b21593262668b7248d0f57a220caaba46ab9",
                "decimals": 18
            },
            {
                "address": "0xc02aaa39b223fe8d0a0e5c4f27ead9083c756cc2",
                "decimals": 18
            }
        ]
    },
    "address_label": {
        "labels": [
            {
                "address": "0x0000000000000000000000000000000000000003",
                "label": "Precompiled"
            },
            {
                "address": "0x0000000000000000000000000000000000000004",
                "label": "Precompiled"
            },
            {
                "address": "0xeeeeeeeeeeeeeeeeeeeeeeeeeeeeeeeeeeeeeeee",
                "label": "Ether"
            },
            {
                "address": "0x2984581ece53a4390d1f568673cf693139c97049",
                "label": "Cryptopia 2"
            },
            {
                "address": "0x1844b21593262668b7248d0f57a220caaba46ab9",
                "label": "Oyster Pearl Token"
            },
            {
                "address": "0x0000000000000000000000000000000000000001",
                "label": "Precompiled"
            },
            {
                "address": "0x0000000000000000000000000000000000000002",
                "label": "Precompiled"
            }
        ]
    },
    "trace": {
        "accountLabels": null,
        "dataMap": {
            "-1": {
                "invocation": {
                    "address": "0x2984581ece53a4390d1f568673cf693139c97049",
                    "callData": "",
                    "decodedMethod": null,
                    "errorInfo": "",
                    "fromAddress": "",
                    "gasUsed": 0,
                    "id": -1,
                    "methodDecoded": false,
                    "operation": "",
                    "output": "",
                    "revert": false,
                    "revertMessage": "",
                    "selector": "",
                    "status": false,
                    "value": ""
                },
                "nodeType": 0
            },
            "0": {
                "invocation": {
                    "address": "0x1844b21593262668b7248d0f57a220caaba46ab9",
                    "callData": "0x000000000000000000000000b3e22246def05b3a4c9994f3919809f4703400a5000000000000000000000000000000000000000000000015cef18660efd98800",
                    "decodedMethod": {
                        "callParams": [
                            {
                                "name": "_to",
                                "type": "address",
                                "value": "0xb3e22246def05b3a4c9994f3919809f4703400a5"
                            },
                            {
                                "decimalAvailable": true,
                                "name": "_value",
                                "type": "uint256",
                                "value": "402,293,473,140,000,000,000"
                            }
                        ],
                        "constructorArguments": "",
                        "name": "transfer",
                        "returnParams": [],
                        "signature": "transfer(address,uint256)"
                    },
                    "errorInfo": "",
                    "fromAddress": "0x2984581ece53a4390d1f568673cf693139c97049",
                    "gasUsed": 53962,
                    "id": 0,
                    "methodDecoded": true,
                    "operation": "CALL",
                    "output": "",
                    "revert": false,
                    "revertMessage": "",
                    "selector": "0xa9059cbb",
                    "status": true,
                    "value": "0"
                },
                "nodeType": 0
            },
            "1": {
                "event": {
                    "contract": "0x1844b21593262668b7248d0f57a220caaba46ab9",
                    "decodedLog": {
                        "name": "Transfer",
                        "params": [
                            {
                                "name": "_from",
                                "type": "address",
                                "value": "0x2984581ece53a4390d1f568673cf693139c97049"
                            },
                            {
                                "name": "_to",
                                "type": "address",
                                "value": "0xb3e22246def05b3a4c9994f3919809f4703400a5"
                            },
                            {
                                "decimalAvailable": true,
                                "name": "_value",
                                "type": "uint256",
                                "value": "402,293,473,140,000,000,000"
                            }
                        ],
                        "signature": "Transfer(address,address,uint256)"
                    },
                    "id": 1,
                    "logData": "0x000000000000000000000000000000000000000000000015cef18660efd98800",
                    "logDecoded": true,
                    "operation": "EVENT",
                    "revert": false,
                    "status": true,
                    "topics": [
                        "0xddf252ad1be2c89b69c2b068fc378daa952ba7f163c4a11628f55a4df523b3ef",
                        "0x0000000000000000000000002984581ece53a4390d1f568673cf693139c97049",
                        "0x000000000000000000000000b3e22246def05b3a4c9994f3919809f4703400a5"
                    ]
                },
                "nodeType": 1
            }
        },
        "gasFlame": [
            {
                "children": [
                    {
                        "children": [
                            {
                                "children": [],
                                "depth": 0,
                                "name": "Initial Gas",
                                "value": 23256
                            },
                            {
                                "children": [],
                                "depth": 0,
                                "name": "Executed Gas",
                                "value": 30706
                            }
                        ],
                        "depth": -1,
                        "name": "Actual Gas Used",
                        "value": 53962
                    },
                    {
                        "children": [],
                        "depth": -1,
                        "name": "Refunded Gas",
                        "value": 0
                    }
                ],
                "depth": -2,
                "name": "Total Gas",
                "value": 53962
            }
        ],
        "isConfirmed": true,
        "mainTrace": [
            {
                "children": [
                    {
                        "children": [
                            {
                                "children": [],
                                "depth": 1,
                                "id": 1,
                                "order": 1
                            }
                        ],
                        "depth": 0,
                        "id": 0,
                        "order": 0
                    }
                ],
                "depth": -1,
                "id": -1,
                "order": -1
            }
        ],
        "mainTraceNodeCount": 2,
        "parentIdMap": {
            "0": -1,
            "1": 0
        },
        "tidyTrace": [
            {
                "children": [
                    {
                        "children": [
                            {
                                "children": [],
                                "depth": 1,
                                "id": 1,
                                "order": 1
                            }
                        ],
                        "depth": 0,
                        "id": 0,
                        "order": 0
                    }
                ],
                "depth": -1,
                "id": -1,
                "order": -1
            }
        ],
        "tidyTraceNodeCount": 2
    },
    "state_change": {
        "stateChanges": [
            {
                "address": "0x1844b21593262668b7248d0f57a220caaba46ab9",
                "erc": "ERC-20",
                "slots": [
                    {
                        "current": "0x000000000000000000000000000000000000000000000015cef18660efd98800",
                        "key": "0x2eac7caa17da7209b56f51c820ef92c94198cad28b181ee6a5ceae94a7adff50",
                        "prev": "0x0000000000000000000000000000000000000000000000000000000000000000"
                    },
                    {
                        "current": "0x000000000000000000000000000000000000000000026d5c7a0a46719b8a595d",
                        "key": "0x4c43e62b87250e63100bbe86b0775f09f7ece65166effbc2ecadb257d5fa733f",
                        "prev": "0x000000000000000000000000000000000000000000026d7248fbccd28b63e15d"
                    }
                ],
                "storageVariables": [
                    {
                        "name": "balances",
                        "type": "mapping(address => uint256)",
                        "value": {
                            "pairs": [
                                {
                                    "key": "0x2984581ece53a4390d1f568673cf693139c97049",
                                    "value": {
                                        "current": "2934295480235507105552733",
                                        "prev": "2934697773708647105552733",
                                        "typeTag": 1
                                    }
                                },
                                {
                                    "key": "0xb3e22246def05b3a4c9994f3919809f4703400a5",
                                    "value": {
                                        "current": "402293473140000000000",
                                        "prev": "0",
                                        "typeTag": 1
                                    }
                                }
                            ],
                            "typeTag": 4
                        }
                    }
                ]
            }
        ]
    }
}