{
    "balance_change": {
        "balanceChanges": [
            {
                "account": "0x270223c703d869b59ebc253c7f7f3e30d4a2acce",
                "assets": [
                    {
                        "address": "0xeeeeeeeeeeeeeeeeeeeeeeeeeeeeeeeeeeeeeeee",
                        "amount": "0.1025",
                        "iconUrl": "https://assets.blocksec.com/image/1663669189317-3.png",
                        "isERC1155": false,
                        "isERC721": false,
                        "sign": false,
                        "value": "39.3396762"
                    },
                    {
                        "address": "0xd07dc4262bcdbf85190c01c996b4c06a461d2430",
                        "amount": "1",
                        "iconUrl": "",
                        "isERC1155": true,
                        "isERC721": false,
                        "sign": true,
                        "tokenID": "64819",
                        "value": ""
                    }
                ]
            },
            {
                "account": "0xb3dc72ada453547a3dec51867f4e1cce24d5d597",
                "assets": [
                    {
                        "address": "0xeeeeeeeeeeeeeeeeeeeeeeeeeeeeeeeeeeeeeeee",
                        "amount": "0.005",
                        "iconUrl": "https://assets.blocksec.com/image/1663669189317-3.png",
                        "isERC1155": false,
                        "isERC721": false,
                        "sign": true,
                        "value": "1.91900859"
                    }
                ]
            },
            {
                "account": "0xb5f869331da2a1c93a5a7d7cef46f430f2a2f8e0",
                "assets": [
                    {
                        "address": "0xd07dc4262bcdbf85190c01c996b4c06a461d2430",
                        "amount": "1",
                        "iconUrl": "",
                        "isERC1155": true,
                        "isERC721": false,
                        "sign": false,
                        "tokenID": "64819",
                        "value": ""
                    },
                    {
                        "address": "0xeeeeeeeeeeeeeeeeeeeeeeeeeeeeeeeeeeeeeeee",
                        "amount": "0.0975",
                        "iconUrl": "https://assets.blocksec.com/image/1663669189317-3.png",
                        "isERC1155": false,
                        "isERC721": false,
                        "sign": true,
                        "value": "37.42066761"
                    }
                ]
            }
        ]
    },
    "profile": {
        "basic_info": {
            "baseFee": "",
            "blockNumber": 11147631,
            "callData": "0xfd453a85000000000000000000000000d07dc4262bcdbf85190c01c996b4c06a461d2430000000000000000000000000000000000000000000000000000000000000fd33000000000000000000000000b5f869331da2a1c93a5a7d7cef46f430f2a2f8e0000000000000000000000000000000000000000000000000000000000000001e0000000000000000000000000000000000000000000000000000000000000001000000000000000000000000000000000000000000000000016345785d8a000000000000000000000000000000000000000000000000000000000000000000fa000000000000000000000000000000000000000000000000000000000000001b8723ffce5c0cc1012e57e53ff21e9c9fcb1c28fb825b07f00497fdf44905c55c5640074360ad896d8d25ff7cc6920fe83f0f9234bb7cccfd0f6d892bcafd69b3",
            "debugEnable": true,
            "errorInfo": "",
            "eventCount": 2,
            "feeRecipient": "0x5a0b54d5dc17e0aadc383d2db43b0a0d3e029c4c",
            "formatValue": "0.1025",
            "gasLimit": 275886,
            "gasPrice": "20.9",
            "gasUsed": 250806,
            "intTxnCount": 12,
            "internalRevert": false,
            "internalRevertMessage": "",
            "isContractCreation": false,
            "isFlashloan": false,
            "maxFee": "",
            "nonce": 15,
            "overwritedBlockNumber": -1,
            "priorityFee": "",
            "receiver": "0x93f2a75d771628856f37f256da95e99ea28aafbe",
            "revertMessage": "",
            "sender": "0x270223c703d869b59ebc253c7f7f3e30d4a2acce",
            "simulationEnable": true,
            "sourceTxnHash": "0xcab5ab0ee5c632897ff48f69a8339d1b8dc9a00ea5dc5739308caa8e4945d1fe",
            "status": true,
            "timestamp": "2020-10-28T21:33:57Z",
            "transactionFee": "0.0052418454",
            "txnHash": "0xcab5ab0ee5c632897ff48f69a8339d1b8dc9a00ea5dc5739308caa8e4945d1fe",
            "txnIndex": 113,
            "type": 0,
            "value": "102500000000000000"
        },
        "fund_flow": [
            {
                "amount": "0.1025",
                "from": "0x270223c703d869b59ebc253c7f7f3e30d4a2acce",
                "id": 1,
                "isERC1155": false,
                "isERC721": false,
                "isReverted": false,
                "order": 1,
                "to": "0x93f2a75d771628856f37f256da95e99ea28aafbe",
                "token": "0xeeeeeeeeeeeeeeeeeeeeeeeeeeeeeeeeeeeeeeee"
            },
            {
                "amount": "1",
                "from": "0xb5f869331da2a1c93a5a7d7cef46f430f2a2f8e0",
                "id": 2,
                "isERC1155": true,
                "isERC721": false,
                "isReverted": false,
                "order": 2,
                "to": "0x270223c703d869b59ebc253c7f7f3e30d4a2acce",
                "token": "0xd07dc4262bcdbf85190c01c996b4c06a461d2430",
                "tokenID": "64819"
            },
            {
                "amount": "0.005",
                "from": "0x93f2a75d771628856f37f256da95e99ea28aafbe",
                "id": 3,
                "isERC1155": false,
                "isERC721": false,
                "isReverted": false,
                "order": 3,
                "to": "0xb3dc72ada453547a3dec51867f4e1cce24d5d597",
                "token": "0xeeeeeeeeeeeeeeeeeeeeeeeeeeeeeeeeeeeeeeee"
            },
            {
                "amount": "0.0975",
                "from": "0x93f2a75d771628856f37f256da95e99ea28aafbe",
                "id": 4,
                "isERC1155": false,
                "isERC721": false,
                "isReverted": false,
                "order": 4,
                "to": "0xb5f869331da2a1c93a5a7d7cef46f430f2a2f8e0",
                "token": "0xeeeeeeeeeeeeeeeeeeeeeeeeeeeeeeeeeeeeeeee"
            }
        ],
        "token_infos": [
            {
                "address": "0xc02aaa39b223fe8d0a0e5c4f27ead9083c756cc2",
                "decimals": 18
            },
            {
                "address": "0xeeeeeeeeeeeeeeeeeeeeeeeeeeeeeeeeeeeeeeee",
                "decimals": 18
            }
        ]
    },
    "address_label": {
        "labels": [
            {
                "address": "0x295fe6bc5ad4bdb770d416c066626e4207e10339",
                "label": "ERC1155SaleNonceHolder"
            },
            {
                "address": "0x0000000000000000000000000000000000000001",
                "label": "Precompiled"
            },
            {
                "address": "0x0000000000000000000000000000000000000002",
                "label": "Precompiled"
            },
            {
                "address": "0x0000000000000000000000000000000000000003",
                "label": "Precompiled"
            },
            {
                "address": "0xeeeeeeeeeeeeeeeeeeeeeeeeeeeeeeeeeeeeeeee",
                "label": "Ether"
            },
            {
                "address": "0xd07dc4262bcdbf85190c01c996b4c06a461d2430",
                "label": "Rarible: RARI Token 3"
            },
            {
                "address": "0x0000000000000000000000000000000000000004",
                "label": "Precompiled"
            },
            {
                "address": "0x4fee7b061c97c9c496b01dbce9cdb10c02f0a0be",
                "label": "Rarible:Transfer Proxy"
            },
            {
                "address": "0x93f2a75d771628856f37f256da95e99ea28aafbe",
                "label": "ERC1155Sale"
            }
        ]
    },
    "trace": {
        "accountLabels": null,
        "dataMap": {
            "-1": {
                "invocation": {
                    "address": "0x270223c703d869b59ebc253c7f7f3e30d4a2acce",
                    "callData": "",
                    "decodedMethod": null,
                    "errorInfo": "",
                    "fromAddress": "",
                    "gasUsed": 0,
                    "id": -1,
                    "methodDecoded": false,
                    "operation": "",
                    "output": "",
                    "revert": false,
                    "revertMessage": "",
                    "selector": "",
                    "status": false,
                    "value": ""
                },
                "nodeType": 0
            },
            "0": {
                "invocation": {
                    "address": "0x93f2a75d771628856f37f256da95e99ea28aafbe",
                    "callData": "0x000000000000000000000000d07dc4262bcdbf85190c01c996b4c06a461d2430000000000000000000000000000000000000000000000000000000000000fd33000000000000000000000000b5f869331da2a1c93a5a7d7cef46f430f2a2f8e0000000000000000000000000000000000000000000000000000000000000001e0000000000000000000000000000000000000000000000000000000000000001000000000000000000000000000000000000000000000000016345785d8a000000000000000000000000000000000000000000000000000000000000000000fa000000000000000000000000000000000000000000000000000000000000001b8723ffce5c0cc1012e57e53ff21e9c9fcb1c28fb825b07f00497fdf44905c55c5640074360ad896d8d25ff7cc6920fe83f0f9234bb7cccfd0f6d892bcafd69b3",
                    "decodedMethod": {
                        "callParams": [
                            {
                                "name": "token",
                                "type": "address",
                                "value": "0xd07dc4262bcdbf85190c01c996b4c06a461d2430"
                            },
                            {
                                "name": "tokenId",
                                "type": "uint256",
                                "value": "64,819"
                            },
                            {
                                "name": "owner",
                                "type": "address",
                                "value": "0xb5f869331da2a1c93a5a7d7cef46f430f2a2f8e0"
                            },
                            {
                                "name": "selling",
                                "type": "uint256",
                                "value": "30"
                            },
                            {
                                "name": "buying",
                                "type": "uint256",
                                "value": "1"
                            },
                            {
                                "name": "price",
                                "type": "uint256",
                                "value": "100,000,000,000,000,000"
                            },
                            {
                                "name": "sellerFee",
                                "type": "uint256",
                                "value": "250"
                            },
                            {
                                "name": "signature",
                                "type": "(uint8,bytes32,bytes32)",
                                "value": [
                                    {
                                        "name": "v",
                                        "type": "uint8",
                                        "value": "27"
                                    },
                                    {
                                        "name": "r",
                                        "type": "bytes32",
                                        "value": "0x8723ffce5c0cc1012e57e53ff21e9c9fcb1c28fb825b07f00497fdf44905c55c"
                                    },
                                    {
                                        "name": "s",
                                        "type": "bytes32",
                                        "value": "0x5640074360ad896d8d25ff7cc6920fe83f0f9234bb7cccfd0f6d892bcafd69b3"
                                    }
                                ]
                            }
                        ],
                        "constructorArguments": "",
                        "name": "buy",
                        "returnParams": [],
                        "signature": "buy(address,uint256,address,uint256,uint256,uint256,uint256,(uint8,bytes32,bytes32))"
                    },
                    "errorInfo": "",
                    "fromAddress": "0x270223c703d869b59ebc253c7f7f3e30d4a2acce",
                    "gasUsed": 250806,
                    "id": 0,
                    "methodDecoded": true,
                    "operation": "CALL",
                    "output": "",
                    "revert": false,
                    "revertMessage": "",
                    "selector": "0xfd453a85",
                    "status": true,
                    "value": "0.1025"
                },
                "nodeType": 0
            },
            "1": {
                "invocation": {
                    "address": "0x295fe6bc5ad4bdb770d416c066626e4207e10339",
                    "callData": "0x000000000000000000000000d07dc4262bcdbf85190c01c996b4c06a461d2430000000000000000000000000000000000000000000000000000000000000fd33000000000000000000000000b5f869331da2a1c93a5a7d7cef46f430f2a2f8e0",
                    "decodedMethod": {
                        "callParams": [
                            {
                                "name": "token",
                                "type": "address",
                                "value": "0xd07dc4262bcdbf85190c01c996b4c06a461d2430"
                            },
                            {
                                "name": "tokenId",
                                "type": "uint256",
                                "value": "64,819"
                            },
                            {
                                "name": "owner",
                                "type": "address",
                                "value": "0xb5f869331da2a1c93a5a7d7cef46f430f2a2f8e0"
                            }
                        ],
                        "constructorArguments": "",
                        "name": "getNonce",
                        "returnParams": [
                            {
                                "name": "",
                                "type": "uint256",
                                "value": "0"
                            }
                        ],
                        "signature": "getNonce(address,uint256,address)"
                    },
                    "errorInfo": "",
                    "fromAddress": "0x93f2a75d771628856f37f256da95e99ea28aafbe",
                    "gasUsed": 1524,
                    "id": 1,
                    "methodDecoded": true,
                    "operation": "STATICCALL",
                    "output": "0x0000000000000000000000000000000000000000000000000000000000000000",
                    "revert": false,
                    "revertMessage": "",
                    "selector": "0x4a15b662",
                    "status": true,
                    "value": "0"
                },
                "nodeType": 0
            },
            "10": {
                "invocation": {
                    "address": "0xd07dc4262bcdbf85190c01c996b4c06a461d2430",
                    "callData": "0x000000000000000000000000000000000000000000000000000000000000fd33",
                    "decodedMethod": {
                        "callParams": [
                            {
                                "name": "id",
                                "type": "uint256",
                                "value": "64,819"
                            }
                        ],
                        "constructorArguments": "",
                        "name": "getFeeRecipients",
                        "returnParams": [
                            {
                                "name": "",
                                "type": "address[]",
                                "value": [
                                    "0xb5f869331da2a1c93a5a7d7cef46f430f2a2f8e0"
                                ]
                            }
                        ],
                        "signature": "getFeeRecipients(uint256)"
                    },
                    "errorInfo": "",
                    "fromAddress": "0x93f2a75d771628856f37f256da95e99ea28aafbe",
                    "gasUsed": 4167,
                    "id": 10,
                    "methodDecoded": true,
                    "operation": "STATICCALL",
                    "output": "0x00000000000000000000000000000000000000000000000000000000000000200000000000000000000000000000000000000000000000000000000000000001000000000000000000000000b5f869331da2a1c93a5a7d7cef46f430f2a2f8e0",
                    "revert": false,
                    "revertMessage": "",
                    "selector": "0xb9c4d9fb",
                    "status": true,
                    "value": "0"
                },
                "nodeType": 0
            },
            "11": {
                "invocation": {
                    "address": "0xd07dc4262bcdbf85190c01c996b4c06a461d2430",
                    "callData": "0x000000000000000000000000000000000000000000000000000000000000fd33",
                    "decodedMethod": {
                        "callParams": [
                            {
                                "name": "id",
                                "type": "uint256",
                                "value": "64,819"
                            }
                        ],
                        "constructorArguments": "",
                        "name": "getFeeBps",
                        "returnParams": [
                            {
                                "name": "",
                                "type": "uint256[]",
                                "value": [
                                    "1,000"
                                ]
                            }
                        ],
                        "signature": "getFeeBps(uint256)"
                    },
                    "errorInfo": "",
                    "fromAddress": "0x93f2a75d771628856f37f256da95e99ea28aafbe",
                    "gasUsed": 4124,
                    "id": 11,
                    "methodDecoded": true,
                    "operation": "STATICCALL",
                    "output": "0x0000000000000000000000000000000000000000000000000000000000000020000000000000000000000000000000000000000000000000000000000000000100000000000000000000000000000000000000000000000000000000000003e8",
                    "revert": false,
                    "revertMessage": "",
                    "selector": "0x0ebd4c7f",
                    "status": true,
                    "value": "0"
                },
                "nodeType": 0
            },
            "12": {
                "invocation": {
                    "address": "0xb5f869331da2a1c93a5a7d7cef46f430f2a2f8e0",
                    "callData": "0x",
                    "decodedMethod": null,
                    "errorInfo": "",
                    "fromAddress": "0x93f2a75d771628856f37f256da95e99ea28aafbe",
                    "gasUsed": 0,
                    "id": 12,
                    "methodDecoded": false,
                    "operation": "CALL",
                    "output": "",
                    "revert": false,
                    "revertMessage": "",
                    "selector": "fallback",
                    "status": true,
                    "value": "0.01"
                },
                "nodeType": 0
            },
            "13": {
                "invocation": {
                    "address": "0xb5f869331da2a1c93a5a7d7cef46f430f2a2f8e0",
                    "callData": "0x",
                    "decodedMethod": null,
                    "errorInfo": "",
                    "fromAddress": "0x93f2a75d771628856f37f256da95e99ea28aafbe",
                    "gasUsed": 0,
                    "id": 13,
                    "methodDecoded": false,
                    "operation": "CALL",
                    "output": "",
                    "revert": false,
                    "revertMessage": "",
                    "selector": "fallback",
                    "status": true,
                    "value": "0.0875"
                },
                "nodeType": 0
            },
            "14": {
                "event": {
                    "contract": "0x93f2a75d771628856f37f256da95e99ea28aafbe",
                    "decodedLog": {
                        "name": "Buy",
                        "params": [
                            {
                                "name": "token",
                                "type": "address",
                                "value": "0xd07dc4262bcdbf85190c01c996b4c06a461d2430"
                            },
                            {
                                "name": "tokenId",
                                "type": "uint256",
                                "value": "64,819"
                            },
                            {
                                "name": "owner",
                                "type": "address",
                                "value": "0xb5f869331da2a1c93a5a7d7cef46f430f2a2f8e0"
                            },
                            {
                                "name": "price",
                                "type": "uint256",
                                "value": "100,000,000,000,000,000"
                            },
                            {
                                "name": "buyer",
                                "type": "address",
                                "value": "0x270223c703d869b59ebc253c7f7f3e30d4a2acce"
                            },
                            {
                                "name": "value",
                                "type": "uint256",
                                "value": "1"
                            }
                        ],
                        "signature": "Buy(address,uint256,address,uint256,address,uint256)"
                    },
                    "id": 14,
                    "logData": "0x000000000000000000000000b5f869331da2a1c93a5a7d7cef46f430f2a2f8e0000000000000000000000000000000000000000000000000016345785d8a0000000000000000000000000000270223c703d869b59ebc253c7f7f3e30d4a2acce0000000000000000000000000000000000000000000000000000000000000001",
                    "logDecoded": true,
                    "operation": "EVENT",
                    "revert": false,
                    "status": true,
                    "topics": [
                        "0x710791c544fdcb0c8c5b17f5bfa5b6721dfff68224047778e2d64e426ded61c6",
                        "0x000000000000000000000000d07dc4262bcdbf85190c01c996b4c06a461d2430",
                        "0x000000000000000000000000000000000000000000000000000000000000fd33"
                    ]
                },
                "nodeType": 1
            },
            "2": {
                "invocation": {
                    "address": "0x0000000000000000000000000000000000000001",
                    "callData": "0x65fd2a4630014a53aafe59dfa92b6b92116b7cd2734d20180c19cf14000000000000000000000000000000000000000000000000000000000000001b8723ffce5c0cc1012e57e53ff21e9c9fcb1c28fb825b07f00497fdf44905c55c5640074360ad896d8d25ff7cc6920fe83f0f9234bb7cccfd0f6d892bcafd69b3",
                    "decodedMethod": {
                        "callParams": [
                            {
                                "name": "hash",
                                "type": "bytes32",
                                "value": "0x143d7af465fd2a4630014a53aafe59dfa92b6b92116b7cd2734d20180c19cf14"
                            },
                            {
                                "name": "v",
                                "type": "uint256",
                                "value": "27"
                            },
                            {
                                "name": "r",
                                "type": "bytes32",
                                "value": "0x8723ffce5c0cc1012e57e53ff21e9c9fcb1c28fb825b07f00497fdf44905c55c"
                            },
                            {
                                "name": "s",
                                "type": "bytes32",
                                "value": "0x5640074360ad896d8d25ff7cc6920fe83f0f9234bb7cccfd0f6d892bcafd69b3"
                            }
                        ],
                        "constructorArguments": "",
                        "name": "ecrecover",
                        "returnParams": [
                            {
                                "name": "",
                                "type": "address",
                                "value": "0xb5f869331da2a1c93a5a7d7cef46f430f2a2f8e0"
                            }
                        ],
                        "signature": "ecrecover(bytes32,uint256,bytes32,bytes32)"
                    },
                    "errorInfo": "",
                    "fromAddress": "0x93f2a75d771628856f37f256da95e99ea28aafbe",
                    "gasUsed": 3000,
                    "id": 2,
                    "methodDecoded": true,
                    "operation": "STATICCALL",
                    "output": "0x000000000000000000000000b5f869331da2a1c93a5a7d7cef46f430f2a2f8e0",
                    "revert": false,
                    "revertMessage": "",
                    "selector": "0x143d7af4",
                    "status": true,
                    "value": "0"
                },
                "nodeType": 0
            },
            "3": {
                "invocation": {
                    "address": "0x295fe6bc5ad4bdb770d416c066626e4207e10339",
                    "callData": "0x000000000000000000000000d07dc4262bcdbf85190c01c996b4c06a461d2430000000000000000000000000000000000000000000000000000000000000fd33000000000000000000000000b5f869331da2a1c93a5a7d7cef46f430f2a2f8e00000000000000000000000000000000000000000000000000000000000000000",
                    "decodedMethod": {
                        "callParams": [
                            {
                                "name": "token",
                                "type": "address",
                                "value": "0xd07dc4262bcdbf85190c01c996b4c06a461d2430"
                            },
                            {
                                "name": "tokenId",
                                "type": "uint256",
                                "value": "64,819"
                            },
                            {
                                "name": "owner",
                                "type": "address",
                                "value": "0xb5f869331da2a1c93a5a7d7cef46f430f2a2f8e0"
                            },
                            {
                                "name": "nonce",
                                "type": "uint256",
                                "value": "0"
                            }
                        ],
                        "constructorArguments": "",
                        "name": "getCompleted",
                        "returnParams": [
                            {
                                "name": "",
                                "type": "uint256",
                                "value": "7"
                            }
                        ],
                        "signature": "getCompleted(address,uint256,address,uint256)"
                    },
                    "errorInfo": "",
                    "fromAddress": "0x93f2a75d771628856f37f256da95e99ea28aafbe",
                    "gasUsed": 1595,
                    "id": 3,
                    "methodDecoded": true,
                    "operation": "STATICCALL",
                    "output": "0x0000000000000000000000000000000000000000000000000000000000000007",
                    "revert": false,
                    "revertMessage": "",
                    "selector": "0x7ad2ec85",
                    "status": true,
                    "value": "0"
                },
                "nodeType": 0
            },
            "4": {
                "invocation": {
                    "address": "0x295fe6bc5ad4bdb770d416c066626e4207e10339",
                    "callData": "0x000000000000000000000000d07dc4262bcdbf85190c01c996b4c06a461d2430000000000000000000000000000000000000000000000000000000000000fd33000000000000000000000000b5f869331da2a1c93a5a7d7cef46f430f2a2f8e000000000000000000000000000000000000000000000000000000000000000000000000000000000000000000000000000000000000000000000000000000008",
                    "decodedMethod": {
                        "callParams": [
                            {
                                "name": "token",
                                "type": "address",
                                "value": "0xd07dc4262bcdbf85190c01c996b4c06a461d2430"
                            },
                            {
                                "name": "tokenId",
                                "type": "uint256",
                                "value": "64,819"
                            },
                            {
                                "name": "owner",
                                "type": "address",
                                "value": "0xb5f869331da2a1c93a5a7d7cef46f430f2a2f8e0"
                            },
                            {
                                "name": "nonce",
                                "type": "uint256",
                                "value": "0"
                            },
                            {
                                "name": "_completed",
                                "type": "uint256",
                                "value": "8"
                            }
                        ],
                        "constructorArguments": "",
                        "name": "setCompleted",
                        "returnParams": [],
                        "signature": "setCompleted(address,uint256,address,uint256,uint256)"
                    },
                    "errorInfo": "",
                    "fromAddress": "0x93f2a75d771628856f37f256da95e99ea28aafbe",
                    "gasUsed": 6754,
                    "id": 4,
                    "methodDecoded": true,
                    "operation": "CALL",
                    "output": "",
                    "revert": false,
                    "revertMessage": "",
                    "selector": "0x4bd49ccb",
                    "status": true,
                    "value": "0"
                },
                "nodeType": 0
            },
            "5": {
                "invocation": {
                    "address": "0x4fee7b061c97c9c496b01dbce9cdb10c02f0a0be",
                    "callData": "0x000000000000000000000000d07dc4262bcdbf85190c01c996b4c06a461d2430000000000000000000000000b5f869331da2a1c93a5a7d7cef46f430f2a2f8e0000000000000000000000000270223c703d869b59ebc253c7f7f3e30d4a2acce000000000000000000000000000000000000000000000000000000000000fd33000000000000000000000000000000000000000000000000000000000000000100000000000000000000000000000000000000000000000000000000000000c00000000000000000000000000000000000000000000000000000000000000000",
                    "decodedMethod": {
                        "callParams": [
                            {
                                "name": "token",
                                "type": "address",
                                "value": "0xd07dc4262bcdbf85190c01c996b4c06a461d2430"
                            },
                            {
                                "name": "from",
                                "type": "address",
                                "value": "0xb5f869331da2a1c93a5a7d7cef46f430f2a2f8e0"
                            },
                            {
                                "name": "to",
                                "type": "address",
                                "value": "0x270223c703d869b59ebc253c7f7f3e30d4a2acce"
                            },
                            {
                                "name": "id",
                                "type": "uint256",
                                "value": "64,819"
                            },
                            {
                                "name": "value",
                                "type": "uint256",
                                "value": "1"
                            },
                            {
                                "name": "data",
                                "type": "bytes",
                                "value": "0x"
                            }
                        ],
                        "constructorArguments": "",
                        "name": "erc1155safeTransferFrom",
                        "returnParams": [],
                        "signature": "erc1155safeTransferFrom(address,address,address,uint256,uint256,bytes)"
                    },
                    "errorInfo": "",
                    "fromAddress": "0x93f2a75d771628856f37f256da95e99ea28aafbe",
                    "gasUsed": 36530,
                    "id": 5,
                    "methodDecoded": true,
                    "operation": "CALL",
                    "output": "",
                    "revert": false,
                    "revertMessage": "",
                    "selector": "0x9c1c2ee9",
                    "status": true,
                    "value": "0"
                },
                "nodeType": 0
            },
            "6": {
                "invocation": {
                    "address": "0xd07dc4262bcdbf85190c01c996b4c06a461d2430",
                    "callData": "0x000000000000000000000000b5f869331da2a1c93a5a7d7cef46f430f2a2f8e0000000000000000000000000270223c703d869b59ebc253c7f7f3e30d4a2acce000000000000000000000000000000000000000000000000000000000000fd33000000000000000000000000000000000000000000000000000000000000000100000000000000000000000000000000000000000000000000000000000000a00000000000000000000000000000000000000000000000000000000000000000",
                    "decodedMethod": {
                        "callParams": [
                            {
                                "name": "_from",
                                "type": "address",
                                "value": "0xb5f869331da2a1c93a5a7d7cef46f430f2a2f8e0"
                            },
                            {
                                "name": "_to",
                                "type": "address",
                                "value": "0x270223c703d869b59ebc253c7f7f3e30d4a2acce"
                            },
                            {
                                "name": "_id",
                                "type": "uint256",
                                "value": "64,819"
                            },
                            {
                                "name": "_value",
                                "type": "uint256",
                                "value": "1"
                            },
                            {
                                "name": "_data",
                                "type": "bytes",
                                "value": "0x"
                            }
                        ],
                        "constructorArguments": "",
                        "name": "safeTransferFrom",
                        "returnParams": [],
                        "signature": "safeTransferFrom(address,address,uint256,uint256,bytes)"
                    },
                    "errorInfo": "",
                    "fromAddress": "0x4fee7b061c97c9c496b01dbce9cdb10c02f0a0be",
                    "gasUsed": 33106,
                    "id": 6,
                    "methodDecoded": true,
                    "operation": "CALL",
                    "output": "",
                    "revert": false,
                    "revertMessage": "",
                    "selector": "0xf242432a",
                    "status": true,
                    "value": "0"
                },
                "nodeType": 0
            },
            "7": {
                "event": {
                    "contract": "0xd07dc4262bcdbf85190c01c996b4c06a461d2430",
                    "decodedLog": {
                        "name": "TransferSingle",
                        "params": [
                            {
                                "name": "_operator",
                                "type": "address",
                                "value": "0x4fee7b061c97c9c496b01dbce9cdb10c02f0a0be"
                            },
                            {
                                "name": "_from",
                                "type": "address",
                                "value": "0xb5f869331da2a1c93a5a7d7cef46f430f2a2f8e0"
                            },
                            {
                                "name": "_to",
                                "type": "address",
                                "value": "0x270223c703d869b59ebc253c7f7f3e30d4a2acce"
                            },
                            {
                                "name": "_id",
                                "type": "uint256",
                                "value": "64,819"
                            },
                            {
                                "name": "_value",
                                "type": "uint256",
                                "value": "1"
                            }
                        ],
                        "signature": "TransferSingle(address,address,address,uint256,uint256)"
                    },
                    "id": 7,
                    "logData": "0x000000000000000000000000000000000000000000000000000000000000fd330000000000000000000000000000000000000000000000000000000000000001",
                    "logDecoded": true,
                    "operation": "EVENT",
                    "revert": false,
                    "status": true,
                    "topics": [
                        "0xc3d58168c5ae7397731d063d5bbf3d657854427343f4c083240f7aacaa2d0f62",
                        "0x0000000000000000000000004fee7b061c97c9c496b01dbce9cdb10c02f0a0be",
                        "0x000000000000000000000000b5f869331da2a1c93a5a7d7cef46f430f2a2f8e0",
                        "0x000000000000000000000000270223c703d869b59ebc253c7f7f3e30d4a2acce"
                    ]
                },
                "nodeType": 1
            },
            "8": {
                "invocation": {
                    "address": "0xb3dc72ada453547a3dec51867f4e1cce24d5d597",
                    "callData": "0x",
                    "decodedMethod": null,
                    "errorInfo": "",
                    "fromAddress": "0x93f2a75d771628856f37f256da95e99ea28aafbe",
                    "gasUsed": 0,
                    "id": 8,
                    "methodDecoded": false,
                    "operation": "CALL",
                    "output": "",
                    "revert": false,
                    "revertMessage": "",
                    "selector": "fallback",
                    "status": true,
                    "value": "0.005"
                },
                "nodeType": 0
            },
            "9": {
                "invocation": {
                    "address": "0xd07dc4262bcdbf85190c01c996b4c06a461d2430",
                    "callData": "0xb779958400000000000000000000000000000000000000000000000000000000",
                    "decodedMethod": {
                        "callParams": [
                            {
                                "name": "interfaceId",
                                "type": "bytes4",
                                "value": "0xb7799584"
                            }
                        ],
                        "constructorArguments": "",
                        "name": "supportsInterface",
                        "returnParams": [
                            {
                                "name": "",
                                "type": "bool",
                                "value": true
                            }
                        ],
                        "signature": "supportsInterface(bytes4)"
                    },
                    "errorInfo": "",
                    "fromAddress": "0x93f2a75d771628856f37f256da95e99ea28aafbe",
                    "gasUsed": 1497,
                    "id": 9,
                    "methodDecoded": true,
                    "operation": "STATICCALL",
                    "output": "0x0000000000000000000000000000000000000000000000000000000000000001",
                    "revert": false,
                    "revertMessage": "",
                    "selector": "0x01ffc9a7",
                    "status": true,
                    "value": "0"
                },
                "nodeType": 0
            }
        },
        "gasFlame": [
            {
                "children": [
                    {
                        "children": [
                            {
                                "children": [],
                                "depth": 0,
                                "name": "Initial Gas",
                                "value": 23736
                            },
                            {
                                "children": [
                                    {
                                        "children": [],
                                        "depth": 1,
                                        "name": "getNonce",
                                        "value": 1524
                                    },
                                    {
                                        "children": [],
                                        "depth": 1,
                                        "name": "ecrecover",
                                        "value": 3000
                                    },
                                    {
                                        "children": [],
                                        "depth": 1,
                                        "name": "getCompleted",
                                        "value": 1595
                                    },
                                    {
                                        "children": [],
                                        "depth": 1,
                                        "name": "setCompleted",
                                        "value": 6754
                                    },
                                    {
                                        "children": [
                                            {
                                                "children": [],
                                                "depth": 2,
                                                "name": "safeTransferFrom",
                                                "value": 33106
                                            }
                                        ],
                                        "depth": 1,
                                        "name": "erc1155safeTransferFrom",
                                        "value": 36530
                                    },
                                    {
                                        "children": [],
                                        "depth": 1,
                                        "name": "fallback",
                                        "value": 0
                                    },
                                    {
                                        "children": [],
                                        "depth": 1,
                                        "name": "supportsInterface",
                                        "value": 1497
                                    },
                                    {
                                        "children": [],
                                        "depth": 1,
                                        "name": "getFeeRecipients",
                                        "value": 4167
                                    },
                                    {
                                        "children": [],
                                        "depth": 1,
                                        "name": "getFeeBps",
                                        "value": 4124
                                    },
                                    {
                                        "children": [],
                                        "depth": 1,
                                        "name": "fallback",
                                        "value": 0
                                    },
                                    {
                                        "children": [],
                                        "depth": 1,
                                        "name": "fallback",
                                        "value": 0
                                    }
                                ],
                                "depth": 0,
                                "name": "Executed Gas",
                                "value": 227070
                            }
                        ],
                        "depth": -1,
                        "name": "Actual Gas Used",
                        "value": 250806
                    },
                    {
                        "children": [],
                        "depth": -1,
                        "name": "Refunded Gas",
                        "value": 0
                    }
                ],
                "depth": -2,
                "name": "Total Gas",
                "value": 250806
            }
        ],
        "isConfirmed": true,
        "mainTrace": [
            {
                "children": [
                    {
                        "children": [
                            {
                                "children": [],
                                "depth": 1,
                                "id": 1,
                                "order": 1
                            },
                            {
                                "children": [],
                                "depth": 1,
                                "id": 2,
                                "order": 2
                            },
                            {
                                "children": [],
                                "depth": 1,
                                "id": 3,
                                "order": 3
                            },
                            {
                                "children": [],
                                "depth": 1,
                                "id": 4,
                                "order": 4
                            },
                            {
                                "children": [
                                    {
                                        "children": [
                                            {
                                                "children": [],
                                                "depth": 3,
                                                "id": 7,
                                                "order": 7
                                            }
                                        ],
                                        "depth": 2,
                                        "id": 6,
                                        "order": 6
                                    }
                                ],
                                "depth": 1,
                                "id": 5,
                                "order": 5
                            },
                            {
                                "children": [],
                                "depth": 1,
                                "id": 8,
                                "order": 8
                            },
                            {
                                "children": [],
                                "depth": 1,
                                "id": 9,
                                "order": 9
                            },
                            {
                                "children": [],
                                "depth": 1,
                                "id": 10,
                                "order": 10
                            },
                            {
                                "children": [],
                                "depth": 1,
                                "id": 11,
                                "order": 11
                            },
                            {
                                "children": [],
                                "depth": 1,
                                "id": 12,
                                "order": 12
                            },
                            {
                                "children": [],
                                "depth": 1,
                                "id": 13,
                                "order": 13
                            },
                            {
                                "children": [],
                                "depth": 1,
                                "id": 14,
                                "order": 14
                            }
                        ],
                        "depth": 0,
                        "id": 0,
                        "order": 0
                    }
                ],
                "depth": -1,
                "id": -1,
                "order": -1
            }
        ],
        "mainTraceNodeCount": 15,
        "parentIdMap": {
            "0": -1,
            "1": 0,
            "10": 0,
            "11": 0,
            "12": 0,
            "13": 0,
            "14": 0,
            "2": 0,
            "3": 0,
            "4": 0,
            "5": 0,
            "6": 5,
            "7": 6,
            "8": 0,
            "9": 0
        },
        "tidyTrace": [
            {
                "children": [
                    {
                        "children": [
                            {
                                "children": [],
                                "depth": 1,
                                "id": 4,
                                "order": 4
                            },
                            {
                                "children": [
                                    {
                                        "children": [
                                            {
                                                "children": [],
                                                "depth": 3,
                                                "id": 7,
                                                "order": 7
                                            }
                                        ],
                                        "depth": 2,
                                        "id": 6,
                                        "order": 6
                                    }
                                ],
                                "depth": 1,
                                "id": 5,
                                "order": 5
                            },
                            {
                                "children": [],
                                "depth": 1,
                                "id": 8,
                                "order": 8
                            },
                            {
                                "children": [],
                                "depth": 1,
                                "id": 12,
                                "order": 12
                            },
                            {
                                "children": [],
                                "depth": 1,
                                "id": 13,
                                "order": 13
                            },
                            {
                                "children": [],
                                "depth": 1,
                                "id": 14,
                                "order": 14
                            }
                        ],
                        "depth": 0,
                        "id": 0,
                        "order": 0
                    }
                ],
                "depth": -1,
                "id": -1,
                "order": -1
            }
        ],
        "tidyTraceNodeCount": 9
    },
    "state_change": {
        "stateChanges": [
            {
                "address": "0x295fe6bc5ad4bdb770d416c066626e4207e10339",
                "erc": "",
                "slots": [
                    {
                        "current": "0x0000000000000000000000000000000000000000000000000000000000000008",
                        "key": "0xbfd6a9bbc5a34303fa7bad981909c1792a442e8d589803207e32da76e4ab8343",
                        "prev": "0x0000000000000000000000000000000000000000000000000000000000000007"
                    }
                ],
                "storageVariables": [
                    {
                        "name": "completed",
                        "type": "mapping(bytes32 => uint256)",
                        "value": {
                            "pairs": [
                                {
                                    "key": "0x36c9fcc14d09b47d7bc80c94deefea8b5072af3f604b7ff5e181235007602225",
                                    "value": {
                                        "current": "8",
                                        "prev": "7",
                                        "typeTag": 1
                                    }
                                }
                            ],
                            "typeTag": 4
                        }
                    }
                ]
            },
            {
                "address": "0xd07dc4262bcdbf85190c01c996b4c06a461d2430",
                "erc": "ERC-1155",
                "slots": [
                    {
                        "current": "0x0000000000000000000000000000000000000000000000000000000000000016",
                        "key": "0x27e6442280761b2721e865e478e192a82bc4d8cedbb5367fa8f27610453cf230",
                        "prev": "0x0000000000000000000000000000000000000000000000000000000000000017"
                    },
                    {
                        "current": "0x0000000000000000000000000000000000000000000000000000000000000001",
                        "key": "0xcc8f66cb18c7f8e3be8bd99a9dfad0a950ec801636ab66fc6bb1779d2dd3fcb1",
                        "prev": "0x0000000000000000000000000000000000000000000000000000000000000000"
                    }
                ],
                "storageVariables": [
                    {
                        "name": "balances",
                        "type": "mapping(uint256 => mapping(address => uint256))",
                        "value": {
                            "pairs": [
                                {
                                    "key": "64819",
                                    "value": {
                                        "pairs": [
                                            {
                                                "key": "0x270223c703d869b59ebc253c7f7f3e30d4a2acce",
                                                "value": {
                                                    "current": "1",
                                                    "prev": "0",
                                                    "typeTag": 1
                                                }
                                            },
                                            {
                                                "key": "0xb5f869331da2a1c93a5a7d7cef46f430f2a2f8e0",
                                                "value": {
                                                    "current": "22",
                                                    "prev": "23",
                                                    "typeTag": 1
                                                }
                                            }
                                        ],
                                        "typeTag": 4
                                    }
                                }
                            ],
                            "typeTag": 4
                        }
                    }
                ]
            }
        ]
    }
}