{
    "balance_change": {
        "balanceChanges": [
            {
                "account": "0xb295d7fae27adfb7c79cf5282e3e328c684b02c2",
                "assets": [
                    {
                        "address": "0xbc4162d53f945266684f4e5e48d545f206bc1ca5",
                        "amount": "13.04",
                        "iconUrl": "",
                        "isERC1155": false,
                        "isERC721": false,
                        "sign": false,
                        "value": ""
                    }
                ]
            },
            {
                "account": "0xe0829fc6945f77a50fa0cf595a5d6ea44e0a6dda",
                "assets": [
                    {
                        "address": "0xbc4162d53f945266684f4e5e48d545f206bc1ca5",
                        "amount": "13.04",
                        "iconUrl": "",
                        "isERC1155": false,
                        "isERC721": false,
                        "sign": true,
                        "value": ""
                    }
                ]
            }
        ]
    },
    "profile": {
        "basic_info": {
            "baseFee": "",
            "blockNumber": 8757972,
            "callData": "0xa9059cbb000000000000000000000000e0829fc6945f77a50fa0cf595a5d6ea44e0a6dda000000000000000000000000000000000000000000000000b4f762e93f180000",
            "debugEnable": true,
            "errorInfo": "",
            "eventCount": 1,
            "feeRecipient": "0xeea5b82b61424df8020f5fedd81767f2d0d25bfb",
            "formatValue": "0",
            "gasLimit": 100000,
            "gasPrice": "35",
            "gasUsed": 37070,
            "intTxnCount": 0,
            "internalRevert": false,
            "internalRevertMessage": "",
            "isContractCreation": false,
            "isFlashloan": false,
            "maxFee": "",
            "nonce": 6,
            "overwritedBlockNumber": -1,
            "priorityFee": "",
            "receiver": "0xbc4162d53f945266684f4e5e48d545f206bc1ca5",
            "revertMessage": "",
            "sender": "0xb295d7fae27adfb7c79cf5282e3e328c684b02c2",
            "simulationEnable": true,
            "sourceTxnHash": "0xcac07ead96cb1cb72cc980a592e2d9381068fe672b5fbb7a75fe7b9575451eb0",
            "status": true,
            "timestamp": "2019-10-17T10:16:55Z",
            "transactionFee": "0.00129745",
            "txnHash": "0xcac07ead96cb1cb72cc980a592e2d9381068fe672b5fbb7a75fe7b9575451eb0",
            "txnIndex": 56,
            "type": 0,
            "value": "0"
        },
        "fund_flow": [
            {
                "amount": "13.04",
                "from": "0xb295d7fae27adfb7c79cf5282e3e328c684b02c2",
                "id": 1,
                "isERC1155": false,
                "isERC721": false,
                "isReverted": false,
                "order": 1,
                "to": "0xe0829fc6945f77a50fa0cf595a5d6ea44e0a6dda",
                "token": "0xbc4162d53f945266684f4e5e48d545f206bc1ca5"
            }
        ],
        "token_infos": [
            {
                "address": "0xeeeeeeeeeeeeeeeeeeeeeeeeeeeeeeeeeeeeeeee",
                "decimals": 18
            },
            {
                "address": "0xbc4162d53f945266684f4e5e48d545f206bc1ca5",
                "decimals": 18
            },
            {
                "address": "0xc02aaa39b223fe8d0a0e5c4f27ead9083c756cc2",
                "decimals": 18
            }
        ]
    },
    "address_label": {
        "labels": [
            {
                "address": "0x0000000000000000000000000000000000000004",
                "label": "Precompiled"
            },
            {
                "address": "0xeeeeeeeeeeeeeeeeeeeeeeeeeeeeeeeeeeeeeeee",
                "label": "Ether"
            },
            {
                "address": "0xbc4162d53f945266684f4e5e48d545f206bc1ca5",
                "label": "ATB Banknote (ATB)"
            },
            {
                "address": "0x0000000000000000000000000000000000000001",
                "label": "Precompiled"
            },
            {
                "address": "0x0000000000000000000000000000000000000002",
                "label": "Precompiled"
            },
            {
                "address": "0x0000000000000000000000000000000000000003",
                "label": "Precompiled"
            }
        ]
    },
    "trace": {
        "accountLabels": null,
        "dataMap": {
            "-1": {
                "invocation": {
                    "address": "0xb295d7fae27adfb7c79cf5282e3e328c684b02c2",
                    "callData": "",
                    "decodedMethod": null,
                    "errorInfo": "",
                    "fromAddress": "",
                    "gasUsed": 0,
                    "id": -1,
                    "methodDecoded": false,
                    "operation": "",
                    "output": "",
                    "revert": false,
                    "revertMessage": "",
                    "selector": "",
                    "status": false,
                    "value": ""
                },
                "nodeType": 0
            },
            "0": {
                "invocation": {
                    "address": "0xbc4162d53f945266684f4e5e48d545f206bc1ca5",
                    "callData": "0x000000000000000000000000e0829fc6945f77a50fa0cf595a5d6ea44e0a6dda000000000000000000000000000000000000000000000000b4f762e93f180000",
                    "decodedMethod": {
                        "callParams": [
                            {
                                "name": "recipient",
                                "type": "address",
                                "value": "0xe0829fc6945f77a50fa0cf595a5d6ea44e0a6dda"
                            },
                            {
                                "decimalAvailable": true,
                                "name": "amount",
                                "type": "uint256",
                                "value": "13,040,000,000,000,000,000"
                            }
                        ],
                        "constructorArguments": "",
                        "name": "transfer",
                        "returnParams": [
                            {
                                "name": "",
                                "type": "bool",
                                "value": true
                            }
                        ],
                        "signature": "transfer(address,uint256)"
                    },
                    "errorInfo": "",
                    "fromAddress": "0xb295d7fae27adfb7c79cf5282e3e328c684b02c2",
                    "gasUsed": 37070,
                    "id": 0,
                    "methodDecoded": true,
                    "operation": "CALL",
                    "output": "0x0000000000000000000000000000000000000000000000000000000000000001",
                    "revert": false,
                    "revertMessage": "",
                    "selector": "0xa9059cbb",
                    "status": true,
                    "value": "0"
                },
                "nodeType": 0
            },
            "1": {
                "event": {
                    "contract": "0xbc4162d53f945266684f4e5e48d545f206bc1ca5",
                    "decodedLog": {
                        "name": "Transfer",
                        "params": [
                            {
                                "name": "from",
                                "type": "address",
                                "value": "0xb295d7fae27adfb7c79cf5282e3e328c684b02c2"
                            },
                            {
                                "name": "to",
                                "type": "address",
                                "value": "0xe0829fc6945f77a50fa0cf595a5d6ea44e0a6dda"
                            },
                            {
                                "decimalAvailable": true,
                                "name": "value",
                                "type": "uint256",
                                "value": "13,040,000,000,000,000,000"
                            }
                        ],
                        "signature": "Transfer(address,address,uint256)"
                    },
                    "id": 1,
                    "logData": "0x000000000000000000000000000000000000000000000000b4f762e93f180000",
                    "logDecoded": true,
                    "operation": "EVENT",
                    "revert": false,
                    "status": true,
                    "topics": [
                        "0xddf252ad1be2c89b69c2b068fc378daa952ba7f163c4a11628f55a4df523b3ef",
                        "0x000000000000000000000000b295d7fae27adfb7c79cf5282e3e328c684b02c2",
                        "0x000000000000000000000000e0829fc6945f77a50fa0cf595a5d6ea44e0a6dda"
                    ]
                },
                "nodeType": 1
            }
        },
        "gasFlame": [
            {
                "children": [
                    {
                        "children": [
                            {
                                "children": [],
                                "depth": 0,
                                "name": "Initial Gas",
                                "value": 23192
                            },
                            {
                                "children": [],
                                "depth": 0,
                                "name": "Executed Gas",
                                "value": 13878
                            }
                        ],
                        "depth": -1,
                        "name": "Actual Gas Used",
                        "value": 37070
                    },
                    {
                        "children": [],
                        "depth": -1,
                        "name": "Refunded Gas",
                        "value": 0
                    }
                ],
                "depth": -2,
                "name": "Total Gas",
                "value": 37070
            }
        ],
        "isConfirmed": true,
        "mainTrace": [
            {
                "children": [
                    {
                        "children": [
                            {
                                "children": [],
                                "depth": 1,
                                "id": 1,
                                "order": 1
                            }
                        ],
                        "depth": 0,
                        "id": 0,
                        "order": 0
                    }
                ],
                "depth": -1,
                "id": -1,
                "order": -1
            }
        ],
        "mainTraceNodeCount": 2,
        "parentIdMap": {
            "0": -1,
            "1": 0
        },
        "tidyTrace": [
            {
                "children": [
                    {
                        "children": [
                            {
                                "children": [],
                                "depth": 1,
                                "id": 1,
                                "order": 1
                            }
                        ],
                        "depth": 0,
                        "id": 0,
                        "order": 0
                    }
                ],
                "depth": -1,
                "id": -1,
                "order": -1
            }
        ],
        "tidyTraceNodeCount": 2
    },
    "state_change": {
        "stateChanges": [
            {
                "address": "0xbc4162d53f945266684f4e5e48d545f206bc1ca5",
                "erc": "",
                "slots": [
                    {
                        "current": "0x00000000000000000000000000000000000000000000000009fdf42f6e480000",
                        "key": "0x9b37ca01c31860f0f853fb806082de0be9fb036ac41b493b119c446c494d51c3",
                        "prev": "0x000000000000000000000000000000000000000000000000bef55718ad600000"
                    },
                    {
                        "current": "0x0000000000000000000000000000000000000000000028c0d8fd6c3fa8000000",
                        "key": "0xe38ee3c64a79834ce943a90d13fa4a0fec8656804dc646ec0fc00580dc952564",
                        "prev": "0x0000000000000000000000000000000000000000000028c02406095668e80000"
                    }
                ],
                "storageVariables": []
            }
        ]
    }
}