{
    "balance_change": {
        "balanceChanges": [
            {
                "account": "0x72a916702bd97923e55d78ea5a3f413dec7f7f85",
                "assets": [
                    {
                        "address": "0x000000007a58f5f58e697e51ab0357bc9e260a04",
                        "amount": "226.425410749999998444",
                        "iconUrl": "",
                        "isERC1155": false,
                        "isERC721": false,
                        "sign": true,
                        "value": ""
                    }
                ]
            },
            {
                "account": "0xc3cbd1e850d431adc583f14f03b9b8b651e62a61",
                "assets": [
                    {
                        "address": "0x000000007a58f5f58e697e51ab0357bc9e260a04",
                        "amount": "226.425410749999998444",
                        "iconUrl": "",
                        "isERC1155": false,
                        "isERC721": false,
                        "sign": false,
                        "value": ""
                    }
                ]
            }
        ]
    },
    "profile": {
        "basic_info": {
            "baseFee": "15.364660027",
            "blockNumber": 16348169,
            "callData": "0x5236be4000000000000000000000000000000000000000000000000c4638896ce59620a400000000000000000000000072a916702bd97923e55d78ea5a3f413dec7f7f850000000000000000000000000000000000000000000000000000000000000001",
            "debugEnable": true,
            "errorInfo": "",
            "eventCount": 2,
            "feeRecipient": "0x95222290dd7278aa3ddd389cc1e1d165cc4bafe5",
            "formatValue": "0",
            "gasLimit": 76380,
            "gasPrice": "16.864660027",
            "gasUsed": 76380,
            "intTxnCount": 3,
            "internalRevert": false,
            "internalRevertMessage": "",
            "isContractCreation": false,
            "isFlashloan": false,
            "maxFee": "23.159840138",
            "nonce": 4458,
            "overwritedBlockNumber": -1,
            "priorityFee": "1.5",
            "receiver": "0xc3cbd1e850d431adc583f14f03b9b8b651e62a61",
            "revertMessage": "",
            "sender": "0x72a916702bd97923e55d78ea5a3f413dec7f7f85",
            "simulationEnable": true,
            "sourceTxnHash": "0xca278ec0310f52c37d1a41b2ff7b19fa22e1b4438c944a566528fdea6329b709",
            "status": true,
            "timestamp": "2023-01-06T13:53:59Z",
            "transactionFee": "0.00128812273286226",
            "txnHash": "0xca278ec0310f52c37d1a41b2ff7b19fa22e1b4438c944a566528fdea6329b709",
            "txnIndex": 83,
            "type": 2,
            "value": "0"
        },
        "fund_flow": [
            {
                "amount": "226.425410749999998444",
                "from": "0xc3cbd1e850d431adc583f14f03b9b8b651e62a61",
                "id": 1,
                "isERC1155": false,
                "isERC721": false,
                "isReverted": false,
                "order": 1,
                "to": "0x72a916702bd97923e55d78ea5a3f413dec7f7f85",
                "token": "0x000000007a58f5f58e697e51ab0357bc9e260a04"
            }
        ],
        "token_infos": [
            {
                "address": "0x000000007a58f5f58e697e51ab0357bc9e260a04",
                "decimals": 18
            },
            {
                "address": "0xc02aaa39b223fe8d0a0e5c4f27ead9083c756cc2",
                "decimals": 18
            },
            {
                "address": "0xeeeeeeeeeeeeeeeeeeeeeeeeeeeeeeeeeeeeeeee",
                "decimals": 18
            }
        ]
    },
    "address_label": {
        "labels": [
            {
                "address": "0xc3cbd1e850d431adc583f14f03b9b8b651e62a61",
                "label": "RedeemBBTV2"
            },
            {
                "address": "0x0000000000000000000000000000000000000001",
                "label": "Precompiled"
            },
            {
                "address": "0x0000000000000000000000000000000000000002",
                "label": "Precompiled"
            },
            {
                "address": "0x0000000000000000000000000000000000000003",
                "label": "Precompiled"
            },
            {
                "address": "0x0000000000000000000000000000000000000004",
                "label": "Precompiled"
            },
            {
                "address": "0xeeeeeeeeeeeeeeeeeeeeeeeeeeeeeeeeeeeeeeee",
                "label": "Ether"
            },
            {
                "address": "0x0000000012a0592c154d552c410030e724b2ea00",
                "label": "Concave Presale Token (BBT) (bbtCNV)"
            },
            {
                "address": "0x000000007a58f5f58e697e51ab0357bc9e260a04",
                "label": "Concave: CNV Token"
            }
        ]
    },
    "trace": {
        "accountLabels": null,
        "dataMap": {
            "-1": {
                "invocation": {
                    "address": "0x72a916702bd97923e55d78ea5a3f413dec7f7f85",
                    "callData": "",
                    "decodedMethod": null,
                    "errorInfo": "",
                    "fromAddress": "",
                    "gasUsed": 0,
                    "id": -1,
                    "methodDecoded": false,
                    "operation": "",
                    "output": "",
                    "revert": false,
                    "revertMessage": "",
                    "selector": "",
                    "status": false,
                    "value": ""
                },
                "nodeType": 0
            },
            "0": {
                "invocation": {
                    "address": "0xc3cbd1e850d431adc583f14f03b9b8b651e62a61",
                    "callData": "0x00000000000000000000000000000000000000000000000c4638896ce59620a400000000000000000000000072a916702bd97923e55d78ea5a3f413dec7f7f850000000000000000000000000000000000000000000000000000000000000001",
                    "decodedMethod": {
                        "callParams": [
                            {
                                "name": "_amount",
                                "type": "uint256",
                                "value": "226,420,874,166,666,666,148"
                            },
                            {
                                "name": "_to",
                                "type": "address",
                                "value": "0x72a916702bd97923e55d78ea5a3f413dec7f7f85"
                            },
                            {
                                "name": "_max",
                                "type": "bool",
                                "value": true
                            }
                        ],
                        "constructorArguments": "",
                        "name": "redeem",
                        "returnParams": [
                            {
                                "name": "amountOut",
                                "type": "uint256",
                                "value": "226,425,410,749,999,998,444"
                            }
                        ],
                        "signature": "redeem(uint256,address,bool)"
                    },
                    "errorInfo": "",
                    "fromAddress": "0x72a916702bd97923e55d78ea5a3f413dec7f7f85",
                    "gasUsed": 76380,
                    "id": 0,
                    "methodDecoded": true,
                    "operation": "CALL",
                    "output": "0x00000000000000000000000000000000000000000000000c4648a76c83a9e5ec",
                    "revert": false,
                    "revertMessage": "",
                    "selector": "0x5236be40",
                    "status": true,
                    "value": "0"
                },
                "nodeType": 0
            },
            "1": {
                "invocation": {
                    "address": "0x0000000012a0592c154d552c410030e724b2ea00",
                    "callData": "0x00000000000000000000000072a916702bd97923e55d78ea5a3f413dec7f7f85",
                    "decodedMethod": {
                        "callParams": [
                            {
                                "name": "",
                                "type": "address",
                                "value": "0x72a916702bd97923e55d78ea5a3f413dec7f7f85"
                            }
                        ],
                        "constructorArguments": "",
                        "name": "balanceOf",
                        "returnParams": [
                            {
                                "decimalAvailable": true,
                                "name": "",
                                "type": "uint256",
                                "value": "1,999,800,000,000,000,000,000"
                            }
                        ],
                        "signature": "balanceOf(address)"
                    },
                    "errorInfo": "",
                    "fromAddress": "0xc3cbd1e850d431adc583f14f03b9b8b651e62a61",
                    "gasUsed": 2882,
                    "id": 1,
                    "methodDecoded": true,
                    "operation": "STATICCALL",
                    "output": "0x00000000000000000000000000000000000000000000006c68ccd09b022c0000",
                    "revert": false,
                    "revertMessage": "",
                    "selector": "0x70a08231",
                    "status": true,
                    "value": "0"
                },
                "nodeType": 0
            },
            "2": {
                "invocation": {
                    "address": "0x7fcc30e97d718864d46a84f13e3ba111a56123d3",
                    "callData": "0x00000000000000000000000072a916702bd97923e55d78ea5a3f413dec7f7f85",
                    "decodedMethod": {
                        "callParams": [
                            {
                                "name": "",
                                "type": "address",
                                "value": "0x72a916702bd97923e55d78ea5a3f413dec7f7f85"
                            }
                        ],
                        "constructorArguments": "",
                        "name": "redeemed",
                        "returnParams": [
                            {
                                "name": "",
                                "type": "uint256",
                                "value": "0"
                            }
                        ],
                        "signature": "redeemed(address)"
                    },
                    "errorInfo": "",
                    "fromAddress": "0xc3cbd1e850d431adc583f14f03b9b8b651e62a61",
                    "gasUsed": 2508,
                    "id": 2,
                    "methodDecoded": true,
                    "operation": "STATICCALL",
                    "output": "0x0000000000000000000000000000000000000000000000000000000000000000",
                    "revert": false,
                    "revertMessage": "",
                    "selector": "0x9f4568ef",
                    "status": true,
                    "value": "0"
                },
                "nodeType": 0
            },
            "3": {
                "invocation": {
                    "address": "0x000000007a58f5f58e697e51ab0357bc9e260a04",
                    "callData": "0x00000000000000000000000072a916702bd97923e55d78ea5a3f413dec7f7f8500000000000000000000000000000000000000000000000c4648a76c83a9e5ec",
                    "decodedMethod": {
                        "callParams": [
                            {
                                "name": "to",
                                "type": "address",
                                "value": "0x72a916702bd97923e55d78ea5a3f413dec7f7f85"
                            },
                            {
                                "decimalAvailable": true,
                                "name": "amount",
                                "type": "uint256",
                                "value": "226,425,410,749,999,998,444"
                            }
                        ],
                        "constructorArguments": "",
                        "name": "transfer",
                        "returnParams": [
                            {
                                "name": "",
                                "type": "bool",
                                "value": true
                            }
                        ],
                        "signature": "transfer(address,uint256)"
                    },
                    "errorInfo": "",
                    "fromAddress": "0xc3cbd1e850d431adc583f14f03b9b8b651e62a61",
                    "gasUsed": 29743,
                    "id": 3,
                    "methodDecoded": true,
                    "operation": "CALL",
                    "output": "0x0000000000000000000000000000000000000000000000000000000000000001",
                    "revert": false,
                    "revertMessage": "",
                    "selector": "0xa9059cbb",
                    "status": true,
                    "value": "0"
                },
                "nodeType": 0
            },
            "4": {
                "event": {
                    "contract": "0x000000007a58f5f58e697e51ab0357bc9e260a04",
                    "decodedLog": {
                        "name": "Transfer",
                        "params": [
                            {
                                "name": "from",
                                "type": "address",
                                "value": "0xc3cbd1e850d431adc583f14f03b9b8b651e62a61"
                            },
                            {
                                "name": "to",
                                "type": "address",
                                "value": "0x72a916702bd97923e55d78ea5a3f413dec7f7f85"
                            },
                            {
                                "decimalAvailable": true,
                                "name": "amount",
                                "type": "uint256",
                                "value": "226,425,410,749,999,998,444"
                            }
                        ],
                        "signature": "Transfer(address,address,uint256)"
                    },
                    "id": 4,
                    "logData": "0x00000000000000000000000000000000000000000000000c4648a76c83a9e5ec",
                    "logDecoded": true,
                    "operation": "EVENT",
                    "revert": false,
                    "status": true,
                    "topics": [
                        "0xddf252ad1be2c89b69c2b068fc378daa952ba7f163c4a11628f55a4df523b3ef",
                        "0x000000000000000000000000c3cbd1e850d431adc583f14f03b9b8b651e62a61",
                        "0x00000000000000000000000072a916702bd97923e55d78ea5a3f413dec7f7f85"
                    ]
                },
                "nodeType": 1
            },
            "5": {
                "event": {
                    "contract": "0xc3cbd1e850d431adc583f14f03b9b8b651e62a61",
                    "decodedLog": {
                        "name": "Redemption",
                        "params": [
                            {
                                "name": "_from",
                                "type": "address",
                                "value": "0x72a916702bd97923e55d78ea5a3f413dec7f7f85"
                            },
                            {
                                "name": "_amount",
                                "type": "uint256",
                                "value": "226,425,410,749,999,998,444"
                            }
                        ],
                        "signature": "Redemption(address,uint256)"
                    },
                    "id": 5,
                    "logData": "0x",
                    "logDecoded": true,
                    "operation": "EVENT",
                    "revert": false,
                    "status": true,
                    "topics": [
                        "0xe6c82503aaaa3db78b70f183901ae8668918f895b3982b2c851cf2ffe0c6c639",
                        "0x00000000000000000000000072a916702bd97923e55d78ea5a3f413dec7f7f85",
                        "0x00000000000000000000000000000000000000000000000c4648a76c83a9e5ec"
                    ]
                },
                "nodeType": 1
            }
        },
        "gasFlame": [
            {
                "children": [
                    {
                        "children": [
                            {
                                "children": [],
                                "depth": 0,
                                "name": "Initial Gas",
                                "value": 21808
                            },
                            {
                                "children": [
                                    {
                                        "children": [],
                                        "depth": 1,
                                        "name": "balanceOf",
                                        "value": 2882
                                    },
                                    {
                                        "children": [],
                                        "depth": 1,
                                        "name": "redeemed",
                                        "value": 2508
                                    },
                                    {
                                        "children": [],
                                        "depth": 1,
                                        "name": "transfer",
                                        "value": 29743
                                    }
                                ],
                                "depth": 0,
                                "name": "Executed Gas",
                                "value": 54572
                            }
                        ],
                        "depth": -1,
                        "name": "Actual Gas Used",
                        "value": 76380
                    },
                    {
                        "children": [],
                        "depth": -1,
                        "name": "Refunded Gas",
                        "value": 0
                    }
                ],
                "depth": -2,
                "name": "Total Gas",
                "value": 76380
            }
        ],
        "isConfirmed": true,
        "mainTrace": [
            {
                "children": [
                    {
                        "children": [
                            {
                                "children": [],
                                "depth": 1,
                                "id": 1,
                                "order": 1
                            },
                            {
                                "children": [],
                                "depth": 1,
                                "id": 2,
                                "order": 2
                            },
                            {
                                "children": [
                                    {
                                        "children": [],
                                        "depth": 2,
                                        "id": 4,
                                        "order": 4
                                    }
                                ],
                                "depth": 1,
                                "id": 3,
                                "order": 3
                            },
                            {
                                "children": [],
                                "depth": 1,
                                "id": 5,
                                "order": 5
                            }
                        ],
                        "depth": 0,
                        "id": 0,
                        "order": 0
                    }
                ],
                "depth": -1,
                "id": -1,
                "order": -1
            }
        ],
        "mainTraceNodeCount": 6,
        "parentIdMap": {
            "0": -1,
            "1": 0,
            "2": 0,
            "3": 0,
            "4": 3,
            "5": 0
        },
        "tidyTrace": [
            {
                "children": [
                    {
                        "children": [
                            {
                                "children": [
                                    {
                                        "children": [],
                                        "depth": 2,
                                        "id": 4,
                                        "order": 4
                                    }
                                ],
                                "depth": 1,
                                "id": 3,
                                "order": 3
                            },
                            {
                                "children": [],
                                "depth": 1,
                                "id": 5,
                                "order": 5
                            }
                        ],
                        "depth": 0,
                        "id": 0,
                        "order": 0
                    }
                ],
                "depth": -1,
                "id": -1,
                "order": -1
            }
        ],
        "tidyTraceNodeCount": 4
    },
    "state_change": {
        "stateChanges": [
            {
                "address": "0x000000007a58f5f58e697e51ab0357bc9e260a04",
                "erc": "ERC-20",
                "slots": [
                    {
                        "current": "0x000000000000000000000000000000000000000000003c3dbbd7d2e8472639ab",
                        "key": "0x6a2d5ea271b5f2556b202b56ac2b2a02f6535ccf43d6056e3f55e0a518b70142",
                        "prev": "0x000000000000000000000000000000000000000000003c4a02207a54cad01f97"
                    },
                    {
                        "current": "0x00000000000000000000000000000000000000000000000c4648a76c83a9e5ec",
                        "key": "0x222d544574a82e40b4bed2eb975ddebc5bba98f0829f2a98c0ba1e2ccbcdb041",
                        "prev": "0x0000000000000000000000000000000000000000000000000000000000000000"
                    }
                ],
                "storageVariables": [
                    {
                        "name": "balanceOf",
                        "type": "mapping(address => uint256)",
                        "value": {
                            "pairs": [
                                {
                                    "key": "0x72a916702bd97923e55d78ea5a3f413dec7f7f85",
                                    "value": {
                                        "current": "226425410749999998444",
                                        "prev": "0",
                                        "typeTag": 1
                                    }
                                },
                                {
                                    "key": "0xc3cbd1e850d431adc583f14f03b9b8b651e62a61",
                                    "value": {
                                        "current": "284480775879775148718507",
                                        "prev": "284707201290525148716951",
                                        "typeTag": 1
                                    }
                                }
                            ],
                            "typeTag": 4
                        }
                    }
                ]
            },
            {
                "address": "0xc3cbd1e850d431adc583f14f03b9b8b651e62a61",
                "erc": "",
                "slots": [
                    {
                        "current": "0x00000000000000000000000000000000000000000000004e83473d7b0798e5f7",
                        "key": "0x2df7a4efadb2eac7eca5bc0173e07e4a6dd7420bfb13c8db69400cdadec9667c",
                        "prev": "0x0000000000000000000000000000000000000000000000423cfe960e83ef000b"
                    }
                ],
                "storageVariables": [
                    {
                        "name": "redeemed",
                        "type": "mapping(address => uint256)",
                        "value": {
                            "pairs": [
                                {
                                    "key": "0x72a916702bd97923e55d78ea5a3f413dec7f7f85",
                                    "value": {
                                        "current": "1448305634890277774839",
                                        "prev": "1221880224140277776395",
                                        "typeTag": 1
                                    }
                                }
                            ],
                            "typeTag": 4
                        }
                    }
                ]
            }
        ]
    }
}