{
    "balance_change": {
        "balanceChanges": []
    },
    "profile": {
        "basic_info": {
            "baseFee": "",
            "blockNumber": 12685233,
            "callData": "0x095ea7b3000000000000000000000000d9e1ce17f2641f24ae83637ab66a2cca9c378b9fffffffffffffffffffffffffffffffffffffffffffffffffffffffffffffffff",
            "debugEnable": true,
            "errorInfo": "",
            "eventCount": 1,
            "feeRecipient": "0xd224ca0c819e8e97ba0136b3b95ceff503b79f53",
            "formatValue": "0",
            "gasLimit": 51217,
            "gasPrice": "53",
            "gasUsed": 46561,
            "intTxnCount": 0,
            "internalRevert": false,
            "internalRevertMessage": "",
            "isContractCreation": false,
            "isFlashloan": false,
            "maxFee": "",
            "nonce": 14,
            "overwritedBlockNumber": -1,
            "priorityFee": "",
            "receiver": "0xd23ac27148af6a2f339bd82d0e3cff380b5093de",
            "revertMessage": "",
            "sender": "0x45980811ba84a43b1628cdaba748e610bc137b0d",
            "simulationEnable": true,
            "sourceTxnHash": "0xcae1e32fde77d5e25c90742524140576bc0f8701186c87e997f37ee9b651c79d",
            "status": true,
            "timestamp": "2021-06-22T17:00:06Z",
            "transactionFee": "0.002467733",
            "txnHash": "0xcae1e32fde77d5e25c90742524140576bc0f8701186c87e997f37ee9b651c79d",
            "txnIndex": 126,
            "type": 0,
            "value": "0"
        },
        "fund_flow": [],
        "token_infos": [
            {
                "address": "0xc02aaa39b223fe8d0a0e5c4f27ead9083c756cc2",
                "decimals": 18
            },
            {
                "address": "0xeeeeeeeeeeeeeeeeeeeeeeeeeeeeeeeeeeeeeeee",
                "decimals": 18
            }
        ]
    },
    "address_label": {
        "labels": [
            {
                "address": "0xeeeeeeeeeeeeeeeeeeeeeeeeeeeeeeeeeeeeeeee",
                "label": "Ether"
            },
            {
                "address": "0xd9e1ce17f2641f24ae83637ab66a2cca9c378b9f",
                "label": "SushiSwap: Router"
            },
            {
                "address": "0xd23ac27148af6a2f339bd82d0e3cff380b5093de",
                "label": "Siren: SI Token"
            },
            {
                "address": "0x0000000000000000000000000000000000000001",
                "label": "Precompiled"
            },
            {
                "address": "0x0000000000000000000000000000000000000002",
                "label": "Precompiled"
            },
            {
                "address": "0x0000000000000000000000000000000000000003",
                "label": "Precompiled"
            },
            {
                "address": "0x0000000000000000000000000000000000000004",
                "label": "Precompiled"
            }
        ]
    },
    "trace": {
        "accountLabels": null,
        "dataMap": {
            "-1": {
                "invocation": {
                    "address": "0x45980811ba84a43b1628cdaba748e610bc137b0d",
                    "callData": "",
                    "decodedMethod": null,
                    "errorInfo": "",
                    "fromAddress": "",
                    "gasUsed": 0,
                    "id": -1,
                    "methodDecoded": false,
                    "operation": "",
                    "output": "",
                    "revert": false,
                    "revertMessage": "",
                    "selector": "",
                    "status": false,
                    "value": ""
                },
                "nodeType": 0
            },
            "0": {
                "invocation": {
                    "address": "0xd23ac27148af6a2f339bd82d0e3cff380b5093de",
                    "callData": "0x000000000000000000000000d9e1ce17f2641f24ae83637ab66a2cca9c378b9fffffffffffffffffffffffffffffffffffffffffffffffffffffffffffffffff",
                    "decodedMethod": {
                        "callParams": [
                            {
                                "name": "spender",
                                "type": "address",
                                "value": "0xd9e1ce17f2641f24ae83637ab66a2cca9c378b9f"
                            },
                            {
                                "decimalAvailable": true,
                                "name": "rawAmount",
                                "type": "uint256",
                                "value": "115,792,089,237,316,195,423,570,985,008,687,907,853,269,984,665,640,564,039,457,584,007,913,129,639,935"
                            }
                        ],
                        "constructorArguments": "",
                        "name": "approve",
                        "returnParams": [
                            {
                                "name": "",
                                "type": "bool",
                                "value": true
                            }
                        ],
                        "signature": "approve(address,uint256)"
                    },
                    "errorInfo": "",
                    "fromAddress": "0x45980811ba84a43b1628cdaba748e610bc137b0d",
                    "gasUsed": 46561,
                    "id": 0,
                    "methodDecoded": true,
                    "operation": "CALL",
                    "output": "0x0000000000000000000000000000000000000000000000000000000000000001",
                    "revert": false,
                    "revertMessage": "",
                    "selector": "0x095ea7b3",
                    "status": true,
                    "value": "0"
                },
                "nodeType": 0
            },
            "1": {
                "event": {
                    "contract": "0xd23ac27148af6a2f339bd82d0e3cff380b5093de",
                    "decodedLog": {
                        "name": "Approval",
                        "params": [
                            {
                                "name": "owner",
                                "type": "address",
                                "value": "0x45980811ba84a43b1628cdaba748e610bc137b0d"
                            },
                            {
                                "name": "spender",
                                "type": "address",
                                "value": "0xd9e1ce17f2641f24ae83637ab66a2cca9c378b9f"
                            },
                            {
                                "decimalAvailable": true,
                                "name": "amount",
                                "type": "uint256",
                                "value": "79,228,162,514,264,337,593,543,950,335"
                            }
                        ],
                        "signature": "Approval(address,address,uint256)"
                    },
                    "id": 1,
                    "logData": "0x0000000000000000000000000000000000000000ffffffffffffffffffffffff",
                    "logDecoded": true,
                    "operation": "EVENT",
                    "revert": false,
                    "status": true,
                    "topics": [
                        "0x8c5be1e5ebec7d5bd14f71427d1e84f3dd0314c0f7b2291e5b200ac8c7c3b925",
                        "0x00000000000000000000000045980811ba84a43b1628cdaba748e610bc137b0d",
                        "0x000000000000000000000000d9e1ce17f2641f24ae83637ab66a2cca9c378b9f"
                    ]
                },
                "nodeType": 1
            }
        },
        "gasFlame": [
            {
                "children": [
                    {
                        "children": [
                            {
                                "children": [],
                                "depth": 0,
                                "name": "Initial Gas",
                                "value": 21944
                            },
                            {
                                "children": [],
                                "depth": 0,
                                "name": "Executed Gas",
                                "value": 24617
                            }
                        ],
                        "depth": -1,
                        "name": "Actual Gas Used",
                        "value": 46561
                    },
                    {
                        "children": [],
                        "depth": -1,
                        "name": "Refunded Gas",
                        "value": 0
                    }
                ],
                "depth": -2,
                "name": "Total Gas",
                "value": 46561
            }
        ],
        "isConfirmed": true,
        "mainTrace": [
            {
                "children": [
                    {
                        "children": [
                            {
                                "children": [],
                                "depth": 1,
                                "id": 1,
                                "order": 1
                            }
                        ],
                        "depth": 0,
                        "id": 0,
                        "order": 0
                    }
                ],
                "depth": -1,
                "id": -1,
                "order": -1
            }
        ],
        "mainTraceNodeCount": 2,
        "parentIdMap": {
            "0": -1,
            "1": 0
        },
        "tidyTrace": [
            {
                "children": [
                    {
                        "children": [
                            {
                                "children": [],
                                "depth": 1,
                                "id": 1,
                                "order": 1
                            }
                        ],
                        "depth": 0,
                        "id": 0,
                        "order": 0
                    }
                ],
                "depth": -1,
                "id": -1,
                "order": -1
            }
        ],
        "tidyTraceNodeCount": 2
    },
    "state_change": {
        "stateChanges": [
            {
                "address": "0xd23ac27148af6a2f339bd82d0e3cff380b5093de",
                "erc": "ERC-20",
                "slots": [
                    {
                        "current": "0x0000000000000000000000000000000000000000ffffffffffffffffffffffff",
                        "key": "0x46b120feda2fafaa015e6eff3fdd24648e59faf455ff45e7bda42c1e33f7c37e",
                        "prev": "0x0000000000000000000000000000000000000000000000000000000000000000"
                    }
                ],
                "storageVariables": [
                    {
                        "name": "allowances",
                        "type": "mapping(address => mapping(address => uint96))",
                        "value": {
                            "pairs": [
                                {
                                    "key": "0x45980811ba84a43b1628cdaba748e610bc137b0d",
                                    "value": {
                                        "pairs": [
                                            {
                                                "key": "0xd9e1ce17f2641f24ae83637ab66a2cca9c378b9f",
                                                "value": {
                                                    "current": "79228162514264337593543950335",
                                                    "prev": "0",
                                                    "typeTag": 1
                                                }
                                            }
                                        ],
                                        "typeTag": 4
                                    }
                                }
                            ],
                            "typeTag": 4
                        }
                    }
                ]
            }
        ]
    }
}