{
    "balance_change": {
        "balanceChanges": [
            {
                "account": "0x4904053d3bf96ca7128b7d930dd0299b16b0b994",
                "assets": [
                    {
                        "address": "0x65c0469fa7a3ceb8130598e90f5f76c11b7e51aa",
                        "amount": "800",
                        "iconUrl": "",
                        "isERC1155": false,
                        "isERC721": false,
                        "sign": false,
                        "value": ""
                    }
                ]
            },
            {
                "account": "0x049259a6166859856b75ebfd036d1a9a05eb3224",
                "assets": [
                    {
                        "address": "0x65c0469fa7a3ceb8130598e90f5f76c11b7e51aa",
                        "amount": "800",
                        "iconUrl": "",
                        "isERC1155": false,
                        "isERC721": false,
                        "sign": true,
                        "value": ""
                    }
                ]
            }
        ]
    },
    "profile": {
        "basic_info": {
            "baseFee": "",
            "blockNumber": 10124451,
            "callData": "0xa9059cbb000000000000000000000000049259a6166859856b75ebfd036d1a9a05eb322400000000000000000000000000000000000000000000002b5e3af16b18800000",
            "debugEnable": true,
            "errorInfo": "",
            "eventCount": 1,
            "feeRecipient": "0x5a0b54d5dc17e0aadc383d2db43b0a0d3e029c4c",
            "formatValue": "0",
            "gasLimit": 100000,
            "gasPrice": "13.2",
            "gasUsed": 36204,
            "intTxnCount": 0,
            "internalRevert": false,
            "internalRevertMessage": "",
            "isContractCreation": false,
            "isFlashloan": false,
            "maxFee": "",
            "nonce": 3676,
            "overwritedBlockNumber": -1,
            "priorityFee": "",
            "receiver": "0x65c0469fa7a3ceb8130598e90f5f76c11b7e51aa",
            "revertMessage": "",
            "sender": "0x4904053d3bf96ca7128b7d930dd0299b16b0b994",
            "simulationEnable": true,
            "sourceTxnHash": "0xcbc7eea56f6aa917ddab4cccea72f8535d431477052bb09bf45a2acd8d8e381e",
            "status": true,
            "timestamp": "2020-05-23T21:04:23Z",
            "transactionFee": "0.0004778928",
            "txnHash": "0xcbc7eea56f6aa917ddab4cccea72f8535d431477052bb09bf45a2acd8d8e381e",
            "txnIndex": 18,
            "type": 0,
            "value": "0"
        },
        "fund_flow": [
            {
                "amount": "800",
                "from": "0x4904053d3bf96ca7128b7d930dd0299b16b0b994",
                "id": 1,
                "isERC1155": false,
                "isERC721": false,
                "isReverted": false,
                "order": 1,
                "to": "0x049259a6166859856b75ebfd036d1a9a05eb3224",
                "token": "0x65c0469fa7a3ceb8130598e90f5f76c11b7e51aa"
            }
        ],
        "token_infos": [
            {
                "address": "0xc02aaa39b223fe8d0a0e5c4f27ead9083c756cc2",
                "decimals": 18
            },
            {
                "address": "0xeeeeeeeeeeeeeeeeeeeeeeeeeeeeeeeeeeeeeeee",
                "decimals": 18
            },
            {
                "address": "0x65c0469fa7a3ceb8130598e90f5f76c11b7e51aa",
                "decimals": 18
            }
        ]
    },
    "address_label": {
        "labels": [
            {
                "address": "0xeeeeeeeeeeeeeeeeeeeeeeeeeeeeeeeeeeeeeeee",
                "label": "Ether"
            },
            {
                "address": "0x65c0469fa7a3ceb8130598e90f5f76c11b7e51aa",
                "label": "WinCoin (WIN)"
            },
            {
                "address": "0x0000000000000000000000000000000000000001",
                "label": "Precompiled"
            },
            {
                "address": "0x0000000000000000000000000000000000000002",
                "label": "Precompiled"
            },
            {
                "address": "0x0000000000000000000000000000000000000003",
                "label": "Precompiled"
            },
            {
                "address": "0x0000000000000000000000000000000000000004",
                "label": "Precompiled"
            }
        ]
    },
    "trace": {
        "accountLabels": null,
        "dataMap": {
            "-1": {
                "invocation": {
                    "address": "0x4904053d3bf96ca7128b7d930dd0299b16b0b994",
                    "callData": "",
                    "decodedMethod": null,
                    "errorInfo": "",
                    "fromAddress": "",
                    "gasUsed": 0,
                    "id": -1,
                    "methodDecoded": false,
                    "operation": "",
                    "output": "",
                    "revert": false,
                    "revertMessage": "",
                    "selector": "",
                    "status": false,
                    "value": ""
                },
                "nodeType": 0
            },
            "0": {
                "invocation": {
                    "address": "0x65c0469fa7a3ceb8130598e90f5f76c11b7e51aa",
                    "callData": "0x000000000000000000000000049259a6166859856b75ebfd036d1a9a05eb322400000000000000000000000000000000000000000000002b5e3af16b18800000",
                    "decodedMethod": {
                        "callParams": [
                            {
                                "name": "to",
                                "type": "address",
                                "value": "0x049259a6166859856b75ebfd036d1a9a05eb3224"
                            },
                            {
                                "decimalAvailable": true,
                                "name": "tokens",
                                "type": "uint256",
                                "value": "800,000,000,000,000,000,000"
                            }
                        ],
                        "constructorArguments": "",
                        "name": "transfer",
                        "returnParams": [
                            {
                                "name": "success",
                                "type": "bool",
                                "value": true
                            }
                        ],
                        "signature": "transfer(address,uint256)"
                    },
                    "errorInfo": "",
                    "fromAddress": "0x4904053d3bf96ca7128b7d930dd0299b16b0b994",
                    "gasUsed": 36204,
                    "id": 0,
                    "methodDecoded": true,
                    "operation": "CALL",
                    "output": "0x0000000000000000000000000000000000000000000000000000000000000001",
                    "revert": false,
                    "revertMessage": "",
                    "selector": "0xa9059cbb",
                    "status": true,
                    "value": "0"
                },
                "nodeType": 0
            },
            "1": {
                "event": {
                    "contract": "0x65c0469fa7a3ceb8130598e90f5f76c11b7e51aa",
                    "decodedLog": {
                        "name": "Transfer",
                        "params": [
                            {
                                "name": "from",
                                "type": "address",
                                "value": "0x4904053d3bf96ca7128b7d930dd0299b16b0b994"
                            },
                            {
                                "name": "to",
                                "type": "address",
                                "value": "0x049259a6166859856b75ebfd036d1a9a05eb3224"
                            },
                            {
                                "decimalAvailable": true,
                                "name": "tokens",
                                "type": "uint256",
                                "value": "800,000,000,000,000,000,000"
                            }
                        ],
                        "signature": "Transfer(address,address,uint256)"
                    },
                    "id": 1,
                    "logData": "0x00000000000000000000000000000000000000000000002b5e3af16b18800000",
                    "logDecoded": true,
                    "operation": "EVENT",
                    "revert": false,
                    "status": true,
                    "topics": [
                        "0xddf252ad1be2c89b69c2b068fc378daa952ba7f163c4a11628f55a4df523b3ef",
                        "0x0000000000000000000000004904053d3bf96ca7128b7d930dd0299b16b0b994",
                        "0x000000000000000000000000049259a6166859856b75ebfd036d1a9a05eb3224"
                    ]
                },
                "nodeType": 1
            }
        },
        "gasFlame": [
            {
                "children": [
                    {
                        "children": [
                            {
                                "children": [],
                                "depth": 0,
                                "name": "Initial Gas",
                                "value": 21644
                            },
                            {
                                "children": [],
                                "depth": 0,
                                "name": "Executed Gas",
                                "value": 14560
                            }
                        ],
                        "depth": -1,
                        "name": "Actual Gas Used",
                        "value": 36204
                    },
                    {
                        "children": [],
                        "depth": -1,
                        "name": "Refunded Gas",
                        "value": 0
                    }
                ],
                "depth": -2,
                "name": "Total Gas",
                "value": 36204
            }
        ],
        "isConfirmed": true,
        "mainTrace": [
            {
                "children": [
                    {
                        "children": [
                            {
                                "children": [],
                                "depth": 1,
                                "id": 1,
                                "order": 1
                            }
                        ],
                        "depth": 0,
                        "id": 0,
                        "order": 0
                    }
                ],
                "depth": -1,
                "id": -1,
                "order": -1
            }
        ],
        "mainTraceNodeCount": 2,
        "parentIdMap": {
            "0": -1,
            "1": 0
        },
        "tidyTrace": [
            {
                "children": [
                    {
                        "children": [
                            {
                                "children": [],
                                "depth": 1,
                                "id": 1,
                                "order": 1
                            }
                        ],
                        "depth": 0,
                        "id": 0,
                        "order": 0
                    }
                ],
                "depth": -1,
                "id": -1,
                "order": -1
            }
        ],
        "tidyTraceNodeCount": 2
    },
    "state_change": {
        "stateChanges": [
            {
                "address": "0x65c0469fa7a3ceb8130598e90f5f76c11b7e51aa",
                "erc": "ERC-20",
                "slots": [
                    {
                        "current": "0x0000000000000000000000000000000000000000000059e104802c6c52bcc000",
                        "key": "0x1bae665b0da7c3db3c1fbcae0142bbd3ffc6629b99fc565c4579a0462ba520e8",
                        "prev": "0x000000000000000000000000000000000000000000005a0c62bb1dd76b3cc000"
                    },
                    {
                        "current": "0x000000000000000000000000000000000000000000000046791fc84e07d00000",
                        "key": "0x6263c6f4cf0240829b64ceda6db37879f3d25890b93560136229aeb451b05148",
                        "prev": "0x00000000000000000000000000000000000000000000001b1ae4d6e2ef500000"
                    }
                ],
                "storageVariables": [
                    {
                        "name": "balances",
                        "type": "mapping(address => uint256)",
                        "value": {
                            "pairs": [
                                {
                                    "key": "0x049259a6166859856b75ebfd036d1a9a05eb3224",
                                    "value": {
                                        "current": "1300000000000000000000",
                                        "prev": "500000000000000000000",
                                        "typeTag": 1
                                    }
                                },
                                {
                                    "key": "0x4904053d3bf96ca7128b7d930dd0299b16b0b994",
                                    "value": {
                                        "current": "424441458700000000000000",
                                        "prev": "425241458700000000000000",
                                        "typeTag": 1
                                    }
                                }
                            ],
                            "typeTag": 4
                        }
                    }
                ]
            }
        ]
    }
}