{
    "balance_change": {
        "balanceChanges": []
    },
    "profile": {
        "basic_info": {
            "baseFee": "",
            "blockNumber": 6407110,
            "callData": "0xfd01249c00000000000000ee30630744115510060030000000008d8000e67531106110400000000000000000000000000000000000000000000000000000000000000000",
            "debugEnable": true,
            "errorInfo": "",
            "eventCount": 4,
            "feeRecipient": "0x5a0b54d5dc17e0aadc383d2db43b0a0d3e029c4c",
            "formatValue": "0",
            "gasLimit": 2000000,
            "gasPrice": "10",
            "gasUsed": 285003,
            "intTxnCount": 5,
            "internalRevert": false,
            "internalRevertMessage": "",
            "isContractCreation": false,
            "isFlashloan": false,
            "maxFee": "",
            "nonce": 35114,
            "overwritedBlockNumber": -1,
            "priorityFee": "",
            "receiver": "0x7fdcd2a1e52f10c28cb7732f46393e297ecadda1",
            "revertMessage": "",
            "sender": "0xa16176f987e3f5388ca8696ca2dcc5c778ab6a19",
            "simulationEnable": true,
            "sourceTxnHash": "0xcba1a0db7910e1fb3c9c87b3aca299d64568bde9b1d315b04568b1d3257fd373",
            "status": true,
            "timestamp": "2018-09-27T04:45:24Z",
            "transactionFee": "0.00285003",
            "txnHash": "0xcba1a0db7910e1fb3c9c87b3aca299d64568bde9b1d315b04568b1d3257fd373",
            "txnIndex": 31,
            "type": 0,
            "value": "0"
        },
        "fund_flow": [],
        "token_infos": [
            {
                "address": "0xc02aaa39b223fe8d0a0e5c4f27ead9083c756cc2",
                "decimals": 18
            },
            {
                "address": "0xeeeeeeeeeeeeeeeeeeeeeeeeeeeeeeeeeeeeeeee",
                "decimals": 18
            }
        ]
    },
    "address_label": {
        "labels": [
            {
                "address": "0xeeeeeeeeeeeeeeeeeeeeeeeeeeeeeeeeeeeeeeee",
                "label": "Ether"
            },
            {
                "address": "0x67a5de922c1f4d1a4dbd848466b86b5455fb6a3b",
                "label": "HyperDragons: Contract 1"
            },
            {
                "address": "0x7fdcd2a1e52f10c28cb7732f46393e297ecadda1",
                "label": "HyperDragons Token"
            },
            {
                "address": "0x0000000000000000000000000000000000000001",
                "label": "Precompiled"
            },
            {
                "address": "0x0000000000000000000000000000000000000002",
                "label": "Precompiled"
            },
            {
                "address": "0x0000000000000000000000000000000000000003",
                "label": "Precompiled"
            },
            {
                "address": "0x0000000000000000000000000000000000000004",
                "label": "Precompiled"
            }
        ]
    },
    "trace": {
        "accountLabels": null,
        "dataMap": {
            "-1": {
                "invocation": {
                    "address": "0xa16176f987e3f5388ca8696ca2dcc5c778ab6a19",
                    "callData": "",
                    "decodedMethod": null,
                    "errorInfo": "",
                    "fromAddress": "",
                    "gasUsed": 0,
                    "id": -1,
                    "methodDecoded": false,
                    "operation": "",
                    "output": "",
                    "revert": false,
                    "revertMessage": "",
                    "selector": "",
                    "status": false,
                    "value": ""
                },
                "nodeType": 0
            },
            "0": {
                "invocation": {
                    "address": "0x7fdcd2a1e52f10c28cb7732f46393e297ecadda1",
                    "callData": "0x00000000000000ee30630744115510060030000000008d8000e67531106110400000000000000000000000000000000000000000000000000000000000000000",
                    "decodedMethod": {
                        "callParams": [
                            {
                                "name": "_mId",
                                "type": "uint256",
                                "value": "1,495,136,654,632,066,127,361,212,012,086,178,107,324,419,317,059,722,332,409,920"
                            },
                            {
                                "name": "price",
                                "type": "uint256",
                                "value": "0"
                            }
                        ],
                        "constructorArguments": "",
                        "name": "createGen0Auction",
                        "returnParams": [],
                        "signature": "createGen0Auction(uint256,uint256)"
                    },
                    "errorInfo": "",
                    "fromAddress": "0xa16176f987e3f5388ca8696ca2dcc5c778ab6a19",
                    "gasUsed": 285003,
                    "id": 0,
                    "methodDecoded": true,
                    "operation": "CALL",
                    "output": "",
                    "revert": false,
                    "revertMessage": "",
                    "selector": "0xfd01249c",
                    "status": true,
                    "value": "0"
                },
                "nodeType": 0
            },
            "1": {
                "invocation": {
                    "address": "0xb0970f61b66f86f2169b4eb3d97da065327633e9",
                    "callData": "0x00000000000000ee30630744115510060030000000008d8000e6753110611040",
                    "decodedMethod": null,
                    "errorInfo": "",
                    "fromAddress": "0x7fdcd2a1e52f10c28cb7732f46393e297ecadda1",
                    "gasUsed": 2939,
                    "id": 1,
                    "methodDecoded": false,
                    "operation": "CALL",
                    "output": "0x00000000000000ee3063074411551006200006e000008d8000e6753110611040",
                    "revert": false,
                    "revertMessage": "",
                    "selector": "0xfb795752",
                    "status": true,
                    "value": "0"
                },
                "nodeType": 0
            },
            "2": {
                "invocation": {
                    "address": "0xb0970f61b66f86f2169b4eb3d97da065327633e9",
                    "callData": "0x00000000000000ee3063074411551006200006e000008d8000e6753110611040",
                    "decodedMethod": null,
                    "errorInfo": "",
                    "fromAddress": "0x7fdcd2a1e52f10c28cb7732f46393e297ecadda1",
                    "gasUsed": 833,
                    "id": 2,
                    "methodDecoded": false,
                    "operation": "CALL",
                    "output": "0x00000000000000ee3063074411551006200006e000008d8000e6753110611040",
                    "revert": false,
                    "revertMessage": "",
                    "selector": "0xfcac8f36",
                    "status": true,
                    "value": "0"
                },
                "nodeType": 0
            },
            "3": {
                "event": {
                    "contract": "0x7fdcd2a1e52f10c28cb7732f46393e297ecadda1",
                    "decodedLog": {
                        "name": "Birth",
                        "params": [
                            {
                                "name": "owner",
                                "type": "address",
                                "value": "0x7fdcd2a1e52f10c28cb7732f46393e297ecadda1"
                            },
                            {
                                "name": "kittyId",
                                "type": "uint256",
                                "value": "17,374"
                            },
                            {
                                "name": "mumId",
                                "type": "uint256",
                                "value": "0"
                            },
                            {
                                "name": "dadId",
                                "type": "uint256",
                                "value": "0"
                            },
                            {
                                "name": "genes",
                                "type": "uint256",
                                "value": "1,495,136,654,632,066,127,361,254,298,291,235,580,985,731,303,586,464,853,463,104"
                            }
                        ],
                        "signature": "Birth(address,uint256,uint256,uint256,uint256)"
                    },
                    "id": 3,
                    "logData": "0x0000000000000000000000007fdcd2a1e52f10c28cb7732f46393e297ecadda100000000000000000000000000000000000000000000000000000000000043de0000000000000000000000000000000000000000000000000000000000000000000000000000000000000000000000000000000000000000000000000000000000000000000000ee3063074411551006200006e000008d8000e6753110611040",
                    "logDecoded": true,
                    "operation": "EVENT",
                    "revert": false,
                    "status": true,
                    "topics": [
                        "0x0a5311bd2a6608f08a180df2ee7c5946819a649b204b554bb8e39825b2c50ad5"
                    ]
                },
                "nodeType": 1
            },
            "4": {
                "event": {
                    "contract": "0x7fdcd2a1e52f10c28cb7732f46393e297ecadda1",
                    "decodedLog": {
                        "name": "Transfer",
                        "params": [
                            {
                                "name": "from",
                                "type": "address",
                                "value": "0x0000000000000000000000000000000000000000"
                            },
                            {
                                "name": "to",
                                "type": "address",
                                "value": "0x7fdcd2a1e52f10c28cb7732f46393e297ecadda1"
                            },
                            {
                                "decimalAvailable": true,
                                "name": "tokenId",
                                "type": "uint256",
                                "value": "17,374"
                            }
                        ],
                        "signature": "Transfer(address,address,uint256)"
                    },
                    "id": 4,
                    "logData": "0x00000000000000000000000000000000000000000000000000000000000000000000000000000000000000007fdcd2a1e52f10c28cb7732f46393e297ecadda100000000000000000000000000000000000000000000000000000000000043de",
                    "logDecoded": true,
                    "operation": "EVENT",
                    "revert": false,
                    "status": true,
                    "topics": [
                        "0xddf252ad1be2c89b69c2b068fc378daa952ba7f163c4a11628f55a4df523b3ef"
                    ]
                },
                "nodeType": 1
            },
            "5": {
                "invocation": {
                    "address": "0x67a5de922c1f4d1a4dbd848466b86b5455fb6a3b",
                    "callData": "0x",
                    "decodedMethod": {
                        "callParams": [],
                        "constructorArguments": "",
                        "name": "averageGen0SalePrice",
                        "returnParams": [
                            {
                                "name": "",
                                "type": "uint256",
                                "value": "2,443,148,148,148,148"
                            }
                        ],
                        "signature": "averageGen0SalePrice()"
                    },
                    "errorInfo": "",
                    "fromAddress": "0x7fdcd2a1e52f10c28cb7732f46393e297ecadda1",
                    "gasUsed": 2155,
                    "id": 5,
                    "methodDecoded": true,
                    "operation": "CALL",
                    "output": "0x0000000000000000000000000000000000000000000000000008ae07c18107b4",
                    "revert": false,
                    "revertMessage": "",
                    "selector": "0xeac9d94c",
                    "status": true,
                    "value": "0"
                },
                "nodeType": 0
            },
            "6": {
                "invocation": {
                    "address": "0x67a5de922c1f4d1a4dbd848466b86b5455fb6a3b",
                    "callData": "0x00000000000000000000000000000000000000000000000000000000000043de000000000000000000000000000000000000000000000000011c37937e080000000000000000000000000000000000000000000000000000000000000000000000000000000000000000000000000000000000000000000000000000000151800000000000000000000000007fdcd2a1e52f10c28cb7732f46393e297ecadda1",
                    "decodedMethod": {
                        "callParams": [
                            {
                                "name": "_tokenId",
                                "type": "uint256",
                                "value": "17,374"
                            },
                            {
                                "name": "_startingPrice",
                                "type": "uint256",
                                "value": "80,000,000,000,000,000"
                            },
                            {
                                "name": "_endingPrice",
                                "type": "uint256",
                                "value": "0"
                            },
                            {
                                "name": "_duration",
                                "type": "uint256",
                                "value": "86,400"
                            },
                            {
                                "name": "_seller",
                                "type": "address",
                                "value": "0x7fdcd2a1e52f10c28cb7732f46393e297ecadda1"
                            }
                        ],
                        "constructorArguments": "",
                        "name": "createAuction",
                        "returnParams": [],
                        "signature": "createAuction(uint256,uint256,uint256,uint256,address)"
                    },
                    "errorInfo": "",
                    "fromAddress": "0x7fdcd2a1e52f10c28cb7732f46393e297ecadda1",
                    "gasUsed": 106596,
                    "id": 6,
                    "methodDecoded": true,
                    "operation": "CALL",
                    "output": "",
                    "revert": false,
                    "revertMessage": "",
                    "selector": "0x27ebe40a",
                    "status": true,
                    "value": "0"
                },
                "nodeType": 0
            },
            "7": {
                "invocation": {
                    "address": "0x7fdcd2a1e52f10c28cb7732f46393e297ecadda1",
                    "callData": "0x0000000000000000000000007fdcd2a1e52f10c28cb7732f46393e297ecadda100000000000000000000000067a5de922c1f4d1a4dbd848466b86b5455fb6a3b00000000000000000000000000000000000000000000000000000000000043de",
                    "decodedMethod": {
                        "callParams": [
                            {
                                "name": "from",
                                "type": "address",
                                "value": "0x7fdcd2a1e52f10c28cb7732f46393e297ecadda1"
                            },
                            {
                                "name": "to",
                                "type": "address",
                                "value": "0x67a5de922c1f4d1a4dbd848466b86b5455fb6a3b"
                            },
                            {
                                "decimalAvailable": true,
                                "name": "tokenId",
                                "type": "uint256",
                                "value": "17,374"
                            }
                        ],
                        "constructorArguments": "",
                        "name": "transferFrom",
                        "returnParams": [],
                        "signature": "transferFrom(address,address,uint256)"
                    },
                    "errorInfo": "",
                    "fromAddress": "0x67a5de922c1f4d1a4dbd848466b86b5455fb6a3b",
                    "gasUsed": 30108,
                    "id": 7,
                    "methodDecoded": true,
                    "operation": "CALL",
                    "output": "",
                    "revert": false,
                    "revertMessage": "",
                    "selector": "0x23b872dd",
                    "status": true,
                    "value": "0"
                },
                "nodeType": 0
            },
            "8": {
                "event": {
                    "contract": "0x7fdcd2a1e52f10c28cb7732f46393e297ecadda1",
                    "decodedLog": {
                        "name": "Transfer",
                        "params": [
                            {
                                "name": "from",
                                "type": "address",
                                "value": "0x7fdcd2a1e52f10c28cb7732f46393e297ecadda1"
                            },
                            {
                                "name": "to",
                                "type": "address",
                                "value": "0x67a5de922c1f4d1a4dbd848466b86b5455fb6a3b"
                            },
                            {
                                "decimalAvailable": true,
                                "name": "tokenId",
                                "type": "uint256",
                                "value": "17,374"
                            }
                        ],
                        "signature": "Transfer(address,address,uint256)"
                    },
                    "id": 8,
                    "logData": "0x0000000000000000000000007fdcd2a1e52f10c28cb7732f46393e297ecadda100000000000000000000000067a5de922c1f4d1a4dbd848466b86b5455fb6a3b00000000000000000000000000000000000000000000000000000000000043de",
                    "logDecoded": true,
                    "operation": "EVENT",
                    "revert": false,
                    "status": true,
                    "topics": [
                        "0xddf252ad1be2c89b69c2b068fc378daa952ba7f163c4a11628f55a4df523b3ef"
                    ]
                },
                "nodeType": 1
            },
            "9": {
                "event": {
                    "contract": "0x67a5de922c1f4d1a4dbd848466b86b5455fb6a3b",
                    "decodedLog": {
                        "name": "AuctionCreated",
                        "params": [
                            {
                                "name": "tokenId",
                                "type": "uint256",
                                "value": "17,374"
                            },
                            {
                                "name": "startingPrice",
                                "type": "uint256",
                                "value": "80,000,000,000,000,000"
                            },
                            {
                                "name": "endingPrice",
                                "type": "uint256",
                                "value": "0"
                            },
                            {
                                "name": "duration",
                                "type": "uint256",
                                "value": "86,400"
                            }
                        ],
                        "signature": "AuctionCreated(uint256,uint256,uint256,uint256)"
                    },
                    "id": 9,
                    "logData": "0x00000000000000000000000000000000000000000000000000000000000043de000000000000000000000000000000000000000000000000011c37937e08000000000000000000000000000000000000000000000000000000000000000000000000000000000000000000000000000000000000000000000000000000015180",
                    "logDecoded": true,
                    "operation": "EVENT",
                    "revert": false,
                    "status": true,
                    "topics": [
                        "0xa9c8dfcda5664a5a124c713e386da27de87432d5b668e79458501eb296389ba7"
                    ]
                },
                "nodeType": 1
            }
        },
        "gasFlame": [
            {
                "children": [
                    {
                        "children": [
                            {
                                "children": [],
                                "depth": 0,
                                "name": "Initial Gas",
                                "value": 22744
                            },
                            {
                                "children": [
                                    {
                                        "children": [],
                                        "depth": 1,
                                        "name": "0xfb795752",
                                        "value": 2939
                                    },
                                    {
                                        "children": [],
                                        "depth": 1,
                                        "name": "0xfcac8f36",
                                        "value": 833
                                    },
                                    {
                                        "children": [],
                                        "depth": 1,
                                        "name": "averageGen0SalePrice",
                                        "value": 2155
                                    },
                                    {
                                        "children": [
                                            {
                                                "children": [],
                                                "depth": 2,
                                                "name": "transferFrom",
                                                "value": 30108
                                            }
                                        ],
                                        "depth": 1,
                                        "name": "createAuction",
                                        "value": 106596
                                    }
                                ],
                                "depth": 0,
                                "name": "Executed Gas",
                                "value": 292259
                            }
                        ],
                        "depth": -1,
                        "name": "Actual Gas Used",
                        "value": 285003
                    },
                    {
                        "children": [],
                        "depth": -1,
                        "name": "Refunded Gas",
                        "value": 30000
                    }
                ],
                "depth": -2,
                "name": "Total Gas",
                "value": 315003
            }
        ],
        "isConfirmed": true,
        "mainTrace": [
            {
                "children": [
                    {
                        "children": [
                            {
                                "children": [],
                                "depth": 1,
                                "id": 1,
                                "order": 1
                            },
                            {
                                "children": [],
                                "depth": 1,
                                "id": 2,
                                "order": 2
                            },
                            {
                                "children": [],
                                "depth": 1,
                                "id": 3,
                                "order": 3
                            },
                            {
                                "children": [],
                                "depth": 1,
                                "id": 4,
                                "order": 4
                            },
                            {
                                "children": [],
                                "depth": 1,
                                "id": 5,
                                "order": 5
                            },
                            {
                                "children": [
                                    {
                                        "children": [
                                            {
                                                "children": [],
                                                "depth": 3,
                                                "id": 8,
                                                "order": 8
                                            }
                                        ],
                                        "depth": 2,
                                        "id": 7,
                                        "order": 7
                                    },
                                    {
                                        "children": [],
                                        "depth": 2,
                                        "id": 9,
                                        "order": 9
                                    }
                                ],
                                "depth": 1,
                                "id": 6,
                                "order": 6
                            }
                        ],
                        "depth": 0,
                        "id": 0,
                        "order": 0
                    }
                ],
                "depth": -1,
                "id": -1,
                "order": -1
            }
        ],
        "mainTraceNodeCount": 10,
        "parentIdMap": {
            "0": -1,
            "1": 0,
            "2": 0,
            "3": 0,
            "4": 0,
            "5": 0,
            "6": 0,
            "7": 6,
            "8": 7,
            "9": 6
        },
        "tidyTrace": [
            {
                "children": [
                    {
                        "children": [
                            {
                                "children": [],
                                "depth": 1,
                                "id": 1,
                                "order": 1
                            },
                            {
                                "children": [],
                                "depth": 1,
                                "id": 2,
                                "order": 2
                            },
                            {
                                "children": [],
                                "depth": 1,
                                "id": 3,
                                "order": 3
                            },
                            {
                                "children": [],
                                "depth": 1,
                                "id": 4,
                                "order": 4
                            },
                            {
                                "children": [],
                                "depth": 1,
                                "id": 5,
                                "order": 5
                            },
                            {
                                "children": [
                                    {
                                        "children": [
                                            {
                                                "children": [],
                                                "depth": 3,
                                                "id": 8,
                                                "order": 8
                                            }
                                        ],
                                        "depth": 2,
                                        "id": 7,
                                        "order": 7
                                    },
                                    {
                                        "children": [],
                                        "depth": 2,
                                        "id": 9,
                                        "order": 9
                                    }
                                ],
                                "depth": 1,
                                "id": 6,
                                "order": 6
                            }
                        ],
                        "depth": 0,
                        "id": 0,
                        "order": 0
                    }
                ],
                "depth": -1,
                "id": -1,
                "order": -1
            }
        ],
        "tidyTraceNodeCount": 10
    },
    "state_change": {
        "stateChanges": [
            {
                "address": "0x67a5de922c1f4d1a4dbd848466b86b5455fb6a3b",
                "erc": "",
                "slots": [
                    {
                        "current": "0x000000000000000000000000000000000000000000000000011c37937e080000",
                        "key": "0x17a9da74cb2bbe742d3b75228a187566ab285414460e3d947b528eb527ddcc93",
                        "prev": "0x0000000000000000000000000000000000000000000000000000000000000000"
                    },
                    {
                        "current": "0x00000000000000000000000000000000000000005bac60640000000000015180",
                        "key": "0x17a9da74cb2bbe742d3b75228a187566ab285414460e3d947b528eb527ddcc94",
                        "prev": "0x0000000000000000000000000000000000000000000000000000000000000000"
                    },
                    {
                        "current": "0x0000000000000000000000007fdcd2a1e52f10c28cb7732f46393e297ecadda1",
                        "key": "0x17a9da74cb2bbe742d3b75228a187566ab285414460e3d947b528eb527ddcc92",
                        "prev": "0x0000000000000000000000000000000000000000000000000000000000000000"
                    }
                ],
                "storageVariables": []
            },
            {
                "address": "0x7fdcd2a1e52f10c28cb7732f46393e297ecadda1",
                "erc": "",
                "slots": [
                    {
                        "current": "0x000000000000000000000000000000000000000000000000000000000000056f",
                        "key": "0x2b016e19182b99c1760e65f95ae14205bcada12107d619db8836002a1b0f062a",
                        "prev": "0x000000000000000000000000000000000000000000000000000000000000056e"
                    },
                    {
                        "current": "0x000000000000000000000000000000000000000000000000000000000000196c",
                        "key": "0x0000000000000000000000000000000000000000000000000000000000000013",
                        "prev": "0x000000000000000000000000000000000000000000000000000000000000196b"
                    },
                    {
                        "current": "0x00000000000000000000000000000000000000000000000000000000000043df",
                        "key": "0x0000000000000000000000000000000000000000000000000000000000000006",
                        "prev": "0x00000000000000000000000000000000000000000000000000000000000043de"
                    },
                    {
                        "current": "0x00000000000000ee3063074411551006200006e000008d8000e6753110611040",
                        "key": "0xf652222313e28459528d920b65115c16c04f3efc82aaedc97be59f3f377d6095",
                        "prev": "0x0000000000000000000000000000000000000000000000000000000000000000"
                    },
                    {
                        "current": "0x000000000000000000000000000000000000000000000000000000005bac6064",
                        "key": "0xf652222313e28459528d920b65115c16c04f3efc82aaedc97be59f3f377d6096",
                        "prev": "0x0000000000000000000000000000000000000000000000000000000000000000"
                    },
                    {
                        "current": "0x00000000000000000000000067a5de922c1f4d1a4dbd848466b86b5455fb6a3b",
                        "key": "0x295ad4f039f9cbcda61518a8c85c40366e2f849e8ac3be99c42fafa835c26832",
                        "prev": "0x0000000000000000000000000000000000000000000000000000000000000000"
                    }
                ],
                "storageVariables": []
            }
        ]
    }
}