{
    "balance_change": {
        "balanceChanges": [
            {
                "account": "0xa54b75455c488b32bf65fc0f983d01133ae86e59",
                "assets": [
                    {
                        "address": "0x1530df3e1c69501d4ecb7e58eb045b90de158873",
                        "amount": "820",
                        "iconUrl": "",
                        "isERC1155": false,
                        "isERC721": false,
                        "sign": false,
                        "value": ""
                    }
                ]
            },
            {
                "account": "0xc29113ad7de7e5966c7433c4aa8c67c1cb62f741",
                "assets": [
                    {
                        "address": "0x1530df3e1c69501d4ecb7e58eb045b90de158873",
                        "amount": "820",
                        "iconUrl": "",
                        "isERC1155": false,
                        "isERC721": false,
                        "sign": true,
                        "value": ""
                    }
                ]
            }
        ]
    },
    "profile": {
        "basic_info": {
            "baseFee": "",
            "blockNumber": 5276548,
            "callData": "0xa9059cbb000000000000000000000000c29113ad7de7e5966c7433c4aa8c67c1cb62f741000000000000000000000000000000000000000000000000000000131794b400",
            "debugEnable": true,
            "errorInfo": "",
            "eventCount": 1,
            "feeRecipient": "0x5a0b54d5dc17e0aadc383d2db43b0a0d3e029c4c",
            "formatValue": "0",
            "gasLimit": 36915,
            "gasPrice": "1",
            "gasUsed": 36915,
            "intTxnCount": 0,
            "internalRevert": false,
            "internalRevertMessage": "",
            "isContractCreation": false,
            "isFlashloan": false,
            "maxFee": "",
            "nonce": 3,
            "overwritedBlockNumber": -1,
            "priorityFee": "",
            "receiver": "0x1530df3e1c69501d4ecb7e58eb045b90de158873",
            "revertMessage": "",
            "sender": "0xa54b75455c488b32bf65fc0f983d01133ae86e59",
            "simulationEnable": true,
            "sourceTxnHash": "0xcbf40db1c45ec7717d9385b345e69e4db6c3711c465f62a2287342f3aa327c49",
            "status": true,
            "timestamp": "2018-03-18T09:31:17Z",
            "transactionFee": "0.000036915",
            "txnHash": "0xcbf40db1c45ec7717d9385b345e69e4db6c3711c465f62a2287342f3aa327c49",
            "txnIndex": 148,
            "type": 0,
            "value": "0"
        },
        "fund_flow": [
            {
                "amount": "820",
                "from": "0xa54b75455c488b32bf65fc0f983d01133ae86e59",
                "id": 1,
                "isERC1155": false,
                "isERC721": false,
                "isReverted": false,
                "order": 1,
                "to": "0xc29113ad7de7e5966c7433c4aa8c67c1cb62f741",
                "token": "0x1530df3e1c69501d4ecb7e58eb045b90de158873"
            }
        ],
        "token_infos": [
            {
                "address": "0x1530df3e1c69501d4ecb7e58eb045b90de158873",
                "decimals": 8
            },
            {
                "address": "0xc02aaa39b223fe8d0a0e5c4f27ead9083c756cc2",
                "decimals": 18
            },
            {
                "address": "0xeeeeeeeeeeeeeeeeeeeeeeeeeeeeeeeeeeeeeeee",
                "decimals": 18
            }
        ]
    },
    "address_label": {
        "labels": [
            {
                "address": "0x0000000000000000000000000000000000000004",
                "label": "Precompiled"
            },
            {
                "address": "0xeeeeeeeeeeeeeeeeeeeeeeeeeeeeeeeeeeeeeeee",
                "label": "Ether"
            },
            {
                "address": "0x1530df3e1c69501d4ecb7e58eb045b90de158873",
                "label": "Bitcoin EOS (BITE)"
            },
            {
                "address": "0x0000000000000000000000000000000000000001",
                "label": "Precompiled"
            },
            {
                "address": "0x0000000000000000000000000000000000000002",
                "label": "Precompiled"
            },
            {
                "address": "0x0000000000000000000000000000000000000003",
                "label": "Precompiled"
            }
        ]
    },
    "trace": {
        "accountLabels": null,
        "dataMap": {
            "-1": {
                "invocation": {
                    "address": "0xa54b75455c488b32bf65fc0f983d01133ae86e59",
                    "callData": "",
                    "decodedMethod": null,
                    "errorInfo": "",
                    "fromAddress": "",
                    "gasUsed": 0,
                    "id": -1,
                    "methodDecoded": false,
                    "operation": "",
                    "output": "",
                    "revert": false,
                    "revertMessage": "",
                    "selector": "",
                    "status": false,
                    "value": ""
                },
                "nodeType": 0
            },
            "0": {
                "invocation": {
                    "address": "0x1530df3e1c69501d4ecb7e58eb045b90de158873",
                    "callData": "0x000000000000000000000000c29113ad7de7e5966c7433c4aa8c67c1cb62f741000000000000000000000000000000000000000000000000000000131794b400",
                    "decodedMethod": {
                        "callParams": [
                            {
                                "name": "_to",
                                "type": "address",
                                "value": "0xc29113ad7de7e5966c7433c4aa8c67c1cb62f741"
                            },
                            {
                                "decimalAvailable": true,
                                "name": "_amount",
                                "type": "uint256",
                                "value": "82,000,000,000"
                            }
                        ],
                        "constructorArguments": "",
                        "name": "transfer",
                        "returnParams": [
                            {
                                "name": "success",
                                "type": "bool",
                                "value": true
                            }
                        ],
                        "signature": "transfer(address,uint256)"
                    },
                    "errorInfo": "",
                    "fromAddress": "0xa54b75455c488b32bf65fc0f983d01133ae86e59",
                    "gasUsed": 36915,
                    "id": 0,
                    "methodDecoded": true,
                    "operation": "CALL",
                    "output": "0x0000000000000000000000000000000000000000000000000000000000000001",
                    "revert": false,
                    "revertMessage": "",
                    "selector": "0xa9059cbb",
                    "status": true,
                    "value": "0"
                },
                "nodeType": 0
            },
            "1": {
                "event": {
                    "contract": "0x1530df3e1c69501d4ecb7e58eb045b90de158873",
                    "decodedLog": {
                        "name": "Transfer",
                        "params": [
                            {
                                "name": "_from",
                                "type": "address",
                                "value": "0xa54b75455c488b32bf65fc0f983d01133ae86e59"
                            },
                            {
                                "name": "_to",
                                "type": "address",
                                "value": "0xc29113ad7de7e5966c7433c4aa8c67c1cb62f741"
                            },
                            {
                                "decimalAvailable": true,
                                "name": "_value",
                                "type": "uint256",
                                "value": "82,000,000,000"
                            }
                        ],
                        "signature": "Transfer(address,address,uint256)"
                    },
                    "id": 1,
                    "logData": "0x000000000000000000000000000000000000000000000000000000131794b400",
                    "logDecoded": true,
                    "operation": "EVENT",
                    "revert": false,
                    "status": true,
                    "topics": [
                        "0xddf252ad1be2c89b69c2b068fc378daa952ba7f163c4a11628f55a4df523b3ef",
                        "0x000000000000000000000000a54b75455c488b32bf65fc0f983d01133ae86e59",
                        "0x000000000000000000000000c29113ad7de7e5966c7433c4aa8c67c1cb62f741"
                    ]
                },
                "nodeType": 1
            }
        },
        "gasFlame": [
            {
                "children": [
                    {
                        "children": [
                            {
                                "children": [],
                                "depth": 0,
                                "name": "Initial Gas",
                                "value": 23064
                            },
                            {
                                "children": [],
                                "depth": 0,
                                "name": "Executed Gas",
                                "value": 13851
                            }
                        ],
                        "depth": -1,
                        "name": "Actual Gas Used",
                        "value": 36915
                    },
                    {
                        "children": [],
                        "depth": -1,
                        "name": "Refunded Gas",
                        "value": 0
                    }
                ],
                "depth": -2,
                "name": "Total Gas",
                "value": 36915
            }
        ],
        "isConfirmed": true,
        "mainTrace": [
            {
                "children": [
                    {
                        "children": [
                            {
                                "children": [],
                                "depth": 1,
                                "id": 1,
                                "order": 1
                            }
                        ],
                        "depth": 0,
                        "id": 0,
                        "order": 0
                    }
                ],
                "depth": -1,
                "id": -1,
                "order": -1
            }
        ],
        "mainTraceNodeCount": 2,
        "parentIdMap": {
            "0": -1,
            "1": 0
        },
        "tidyTrace": [
            {
                "children": [
                    {
                        "children": [
                            {
                                "children": [],
                                "depth": 1,
                                "id": 1,
                                "order": 1
                            }
                        ],
                        "depth": 0,
                        "id": 0,
                        "order": 0
                    }
                ],
                "depth": -1,
                "id": -1,
                "order": -1
            }
        ],
        "tidyTraceNodeCount": 2
    },
    "state_change": {
        "stateChanges": [
            {
                "address": "0x1530df3e1c69501d4ecb7e58eb045b90de158873",
                "erc": "ERC-20",
                "slots": [
                    {
                        "current": "0x0000000000000000000000000000000000000000000000000000000083a264b3",
                        "key": "0x20546911abea6a91d551d090036efc7983ba51c42666ff5b44fadca183e04501",
                        "prev": "0x000000000000000000000000000000000000000000000000000000139b3718b3"
                    },
                    {
                        "current": "0x00000000000000000000000000000000000000000000000000000a08d2bd9c84",
                        "key": "0xa25d057e56d705464a3c46e305903ef31cdbaec41a6197cb62de264a31715d92",
                        "prev": "0x000000000000000000000000000000000000000000000000000009f5bb28e884"
                    }
                ],
                "storageVariables": [
                    {
                        "name": "balances",
                        "type": "mapping(address => uint256)",
                        "value": {
                            "pairs": [
                                {
                                    "key": "0xa54b75455c488b32bf65fc0f983d01133ae86e59",
                                    "value": {
                                        "current": "2208457907",
                                        "prev": "84208457907",
                                        "typeTag": 1
                                    }
                                },
                                {
                                    "key": "0xc29113ad7de7e5966c7433c4aa8c67c1cb62f741",
                                    "value": {
                                        "current": "11033011657860",
                                        "prev": "10951011657860",
                                        "typeTag": 1
                                    }
                                }
                            ],
                            "typeTag": 4
                        }
                    }
                ]
            }
        ]
    }
}