{
    "balance_change": {
        "balanceChanges": [
            {
                "account": "0x92f8f26402d490355f7566d172690d5c44fa2e33",
                "assets": [
                    {
                        "address": "0x44a46fc706798e203c405667e70802e5b18a2867",
                        "amount": "1",
                        "iconUrl": "",
                        "isERC1155": false,
                        "isERC721": true,
                        "sign": false,
                        "tokenID": "145",
                        "value": ""
                    }
                ]
            },
            {
                "account": "0xbacdee2c1165210111854c1a07f339b14d9010e1",
                "assets": [
                    {
                        "address": "0x44a46fc706798e203c405667e70802e5b18a2867",
                        "amount": "1",
                        "iconUrl": "",
                        "isERC1155": false,
                        "isERC721": true,
                        "sign": true,
                        "tokenID": "145",
                        "value": ""
                    }
                ]
            }
        ]
    },
    "profile": {
        "basic_info": {
            "baseFee": "6.842009249",
            "blockNumber": 15201924,
            "callData": "0x23b872dd00000000000000000000000092f8f26402d490355f7566d172690d5c44fa2e33000000000000000000000000bacdee2c1165210111854c1a07f339b14d9010e10000000000000000000000000000000000000000000000000000000000000091",
            "debugEnable": true,
            "errorInfo": "",
            "eventCount": 2,
            "feeRecipient": "0x829bd824b016326a401d083b33d092293333a830",
            "formatValue": "0",
            "gasLimit": 71098,
            "gasPrice": "8.342009249",
            "gasUsed": 47399,
            "intTxnCount": 0,
            "internalRevert": false,
            "internalRevertMessage": "",
            "isContractCreation": false,
            "isFlashloan": false,
            "maxFee": "10.647667122",
            "nonce": 37,
            "overwritedBlockNumber": -1,
            "priorityFee": "1.5",
            "receiver": "0x44a46fc706798e203c405667e70802e5b18a2867",
            "revertMessage": "",
            "sender": "0x92f8f26402d490355f7566d172690d5c44fa2e33",
            "simulationEnable": true,
            "sourceTxnHash": "0xcb42743147481a3e9db4412829908597849f88263772dde6656b54c9f315bec0",
            "status": true,
            "timestamp": "2022-07-23T23:39:14Z",
            "transactionFee": "0.000395402896393351",
            "txnHash": "0xcb42743147481a3e9db4412829908597849f88263772dde6656b54c9f315bec0",
            "txnIndex": 10,
            "type": 2,
            "value": "0"
        },
        "fund_flow": [
            {
                "amount": "1",
                "from": "0x92f8f26402d490355f7566d172690d5c44fa2e33",
                "id": 1,
                "isERC1155": false,
                "isERC721": true,
                "isReverted": false,
                "order": 1,
                "to": "0xbacdee2c1165210111854c1a07f339b14d9010e1",
                "token": "0x44a46fc706798e203c405667e70802e5b18a2867",
                "tokenID": "145"
            }
        ],
        "token_infos": [
            {
                "address": "0xc02aaa39b223fe8d0a0e5c4f27ead9083c756cc2",
                "decimals": 18
            },
            {
                "address": "0xeeeeeeeeeeeeeeeeeeeeeeeeeeeeeeeeeeeeeeee",
                "decimals": 18
            }
        ]
    },
    "address_label": {
        "labels": [
            {
                "address": "0x0000000000000000000000000000000000000002",
                "label": "Precompiled"
            },
            {
                "address": "0x0000000000000000000000000000000000000003",
                "label": "Precompiled"
            },
            {
                "address": "0x0000000000000000000000000000000000000004",
                "label": "Precompiled"
            },
            {
                "address": "0xeeeeeeeeeeeeeeeeeeeeeeeeeeeeeeeeeeeeeeee",
                "label": "Ether"
            },
            {
                "address": "0x44a46fc706798e203c405667e70802e5b18a2867",
                "label": "MetaZoo: MZG Token"
            },
            {
                "address": "0x0000000000000000000000000000000000000001",
                "label": "Precompiled"
            }
        ]
    },
    "trace": {
        "accountLabels": null,
        "dataMap": {
            "-1": {
                "invocation": {
                    "address": "0x92f8f26402d490355f7566d172690d5c44fa2e33",
                    "callData": "",
                    "decodedMethod": null,
                    "errorInfo": "",
                    "fromAddress": "",
                    "gasUsed": 0,
                    "id": -1,
                    "methodDecoded": false,
                    "operation": "",
                    "output": "",
                    "revert": false,
                    "revertMessage": "",
                    "selector": "",
                    "status": false,
                    "value": ""
                },
                "nodeType": 0
            },
            "0": {
                "invocation": {
                    "address": "0x44a46fc706798e203c405667e70802e5b18a2867",
                    "callData": "0x00000000000000000000000092f8f26402d490355f7566d172690d5c44fa2e33000000000000000000000000bacdee2c1165210111854c1a07f339b14d9010e10000000000000000000000000000000000000000000000000000000000000091",
                    "decodedMethod": {
                        "callParams": [
                            {
                                "name": "from",
                                "type": "address",
                                "value": "0x92f8f26402d490355f7566d172690d5c44fa2e33"
                            },
                            {
                                "name": "to",
                                "type": "address",
                                "value": "0xbacdee2c1165210111854c1a07f339b14d9010e1"
                            },
                            {
                                "decimalAvailable": true,
                                "name": "tokenId",
                                "type": "uint256",
                                "value": "145"
                            }
                        ],
                        "constructorArguments": "",
                        "name": "transferFrom",
                        "returnParams": [],
                        "signature": "transferFrom(address,address,uint256)"
                    },
                    "errorInfo": "",
                    "fromAddress": "0x92f8f26402d490355f7566d172690d5c44fa2e33",
                    "gasUsed": 47399,
                    "id": 0,
                    "methodDecoded": true,
                    "operation": "CALL",
                    "output": "",
                    "revert": false,
                    "revertMessage": "",
                    "selector": "0x23b872dd",
                    "status": true,
                    "value": "0"
                },
                "nodeType": 0
            },
            "1": {
                "event": {
                    "contract": "0x44a46fc706798e203c405667e70802e5b18a2867",
                    "decodedLog": {
                        "name": "Approval",
                        "params": [
                            {
                                "name": "owner",
                                "type": "address",
                                "value": "0x92f8f26402d490355f7566d172690d5c44fa2e33"
                            },
                            {
                                "name": "approved",
                                "type": "address",
                                "value": "0x0000000000000000000000000000000000000000"
                            },
                            {
                                "decimalAvailable": true,
                                "name": "tokenId",
                                "type": "uint256",
                                "value": "145"
                            }
                        ],
                        "signature": "Approval(address,address,uint256)"
                    },
                    "id": 1,
                    "logData": "0x",
                    "logDecoded": true,
                    "operation": "EVENT",
                    "revert": false,
                    "status": true,
                    "topics": [
                        "0x8c5be1e5ebec7d5bd14f71427d1e84f3dd0314c0f7b2291e5b200ac8c7c3b925",
                        "0x00000000000000000000000092f8f26402d490355f7566d172690d5c44fa2e33",
                        "0x0000000000000000000000000000000000000000000000000000000000000000",
                        "0x0000000000000000000000000000000000000000000000000000000000000091"
                    ]
                },
                "nodeType": 1
            },
            "2": {
                "event": {
                    "contract": "0x44a46fc706798e203c405667e70802e5b18a2867",
                    "decodedLog": {
                        "name": "Transfer",
                        "params": [
                            {
                                "name": "from",
                                "type": "address",
                                "value": "0x92f8f26402d490355f7566d172690d5c44fa2e33"
                            },
                            {
                                "name": "to",
                                "type": "address",
                                "value": "0xbacdee2c1165210111854c1a07f339b14d9010e1"
                            },
                            {
                                "decimalAvailable": true,
                                "name": "tokenId",
                                "type": "uint256",
                                "value": "145"
                            }
                        ],
                        "signature": "Transfer(address,address,uint256)"
                    },
                    "id": 2,
                    "logData": "0x",
                    "logDecoded": true,
                    "operation": "EVENT",
                    "revert": false,
                    "status": true,
                    "topics": [
                        "0xddf252ad1be2c89b69c2b068fc378daa952ba7f163c4a11628f55a4df523b3ef",
                        "0x00000000000000000000000092f8f26402d490355f7566d172690d5c44fa2e33",
                        "0x000000000000000000000000bacdee2c1165210111854c1a07f339b14d9010e1",
                        "0x0000000000000000000000000000000000000000000000000000000000000091"
                    ]
                },
                "nodeType": 1
            }
        },
        "gasFlame": [
            {
                "children": [
                    {
                        "children": [
                            {
                                "children": [],
                                "depth": 0,
                                "name": "Initial Gas",
                                "value": 21940
                            },
                            {
                                "children": [],
                                "depth": 0,
                                "name": "Executed Gas",
                                "value": 25459
                            }
                        ],
                        "depth": -1,
                        "name": "Actual Gas Used",
                        "value": 47399
                    },
                    {
                        "children": [],
                        "depth": -1,
                        "name": "Refunded Gas",
                        "value": 0
                    }
                ],
                "depth": -2,
                "name": "Total Gas",
                "value": 47399
            }
        ],
        "isConfirmed": true,
        "mainTrace": [
            {
                "children": [
                    {
                        "children": [
                            {
                                "children": [],
                                "depth": 1,
                                "id": 1,
                                "order": 1
                            },
                            {
                                "children": [],
                                "depth": 1,
                                "id": 2,
                                "order": 2
                            }
                        ],
                        "depth": 0,
                        "id": 0,
                        "order": 0
                    }
                ],
                "depth": -1,
                "id": -1,
                "order": -1
            }
        ],
        "mainTraceNodeCount": 3,
        "parentIdMap": {
            "0": -1,
            "1": 0,
            "2": 0
        },
        "tidyTrace": [
            {
                "children": [
                    {
                        "children": [
                            {
                                "children": [],
                                "depth": 1,
                                "id": 1,
                                "order": 1
                            },
                            {
                                "children": [],
                                "depth": 1,
                                "id": 2,
                                "order": 2
                            }
                        ],
                        "depth": 0,
                        "id": 0,
                        "order": 0
                    }
                ],
                "depth": -1,
                "id": -1,
                "order": -1
            }
        ],
        "tidyTraceNodeCount": 3
    },
    "state_change": {
        "stateChanges": [
            {
                "address": "0x44a46fc706798e203c405667e70802e5b18a2867",
                "erc": "ERC-721",
                "slots": [
                    {
                        "current": "0x0000000000000000000000000000000000000000000000000000000000000001",
                        "key": "0x554b2b06e30607b01cea2b75d3b08fc90c90dbd924a3ae40e3859ebf91a75a8f",
                        "prev": "0x0000000000000000000000000000000000000000000000000000000000000002"
                    },
                    {
                        "current": "0x0000000000000000000000000000000000000000000000000000000000000017",
                        "key": "0x353af00bd61ad67cc435e4e71654e840bf2a353dcd9cd1ced553afa073544f9b",
                        "prev": "0x0000000000000000000000000000000000000000000000000000000000000016"
                    },
                    {
                        "current": "0x000000000000000000000000bacdee2c1165210111854c1a07f339b14d9010e1",
                        "key": "0x47b280be4cbe3279fdcabdbd006e544ff3f56a5f2bc38b62f463f9983a48d82c",
                        "prev": "0x00000000000000000000000092f8f26402d490355f7566d172690d5c44fa2e33"
                    }
                ],
                "storageVariables": [
                    {
                        "name": "_balances",
                        "type": "mapping(address => uint256)",
                        "value": {
                            "pairs": [
                                {
                                    "key": "0x92f8f26402d490355f7566d172690d5c44fa2e33",
                                    "value": {
                                        "current": "1",
                                        "prev": "2",
                                        "typeTag": 1
                                    }
                                },
                                {
                                    "key": "0xbacdee2c1165210111854c1a07f339b14d9010e1",
                                    "value": {
                                        "current": "23",
                                        "prev": "22",
                                        "typeTag": 1
                                    }
                                }
                            ],
                            "typeTag": 4
                        }
                    },
                    {
                        "name": "_owners",
                        "type": "mapping(uint256 => address)",
                        "value": {
                            "pairs": [
                                {
                                    "key": "145",
                                    "value": {
                                        "current": "0xbacdee2c1165210111854c1a07f339b14d9010e1",
                                        "prev": "0x92f8f26402d490355f7566d172690d5c44fa2e33",
                                        "typeTag": 1
                                    }
                                }
                            ],
                            "typeTag": 4
                        }
                    }
                ]
            }
        ]
    }
}