{
    "balance_change": {
        "balanceChanges": []
    },
    "profile": {
        "basic_info": {
            "baseFee": "",
            "blockNumber": 1581855,
            "callData": "0x76d438b000000000000000000000000000000000000000000000000000000000000000100000000000000000000000000000000000000000000000000000000000000138",
            "debugEnable": true,
            "errorInfo": "",
            "eventCount": 2,
            "feeRecipient": "0x2a65aca4d5fc5b5c859090a6c34d164135398226",
            "formatValue": "0",
            "gasLimit": 300000,
            "gasPrice": "20",
            "gasUsed": 51630,
            "intTxnCount": 5,
            "internalRevert": false,
            "internalRevertMessage": "",
            "isContractCreation": false,
            "isFlashloan": false,
            "maxFee": "",
            "nonce": 517,
            "overwritedBlockNumber": -1,
            "priorityFee": "",
            "receiver": "0xa00fa22499478cc37beb45021a1f1c9f826f72e1",
            "revertMessage": "",
            "sender": "0x52216101ed8f70b3474adb875bc03567b0ed3d4f",
            "simulationEnable": true,
            "sourceTxnHash": "0xcbc4462a2f3b8e1238ca5aa9c14868425fc229ba2baa2b648dabbaa6b83d4a74",
            "status": true,
            "timestamp": "2016-05-25T11:50:55Z",
            "transactionFee": "0.0010326",
            "txnHash": "0xcbc4462a2f3b8e1238ca5aa9c14868425fc229ba2baa2b648dabbaa6b83d4a74",
            "txnIndex": 38,
            "type": 0,
            "value": "0"
        },
        "fund_flow": [],
        "token_infos": [
            {
                "address": "0xc02aaa39b223fe8d0a0e5c4f27ead9083c756cc2",
                "decimals": 18
            },
            {
                "address": "0xeeeeeeeeeeeeeeeeeeeeeeeeeeeeeeeeeeeeeeee",
                "decimals": 18
            }
        ]
    },
    "address_label": {
        "labels": [
            {
                "address": "0x0000000000000000000000000000000000000004",
                "label": "Precompiled"
            },
            {
                "address": "0xeeeeeeeeeeeeeeeeeeeeeeeeeeeeeeeeeeeeeeee",
                "label": "Ether"
            },
            {
                "address": "0x57d90b64a1a57749b0f932f1a3395792e12e7055",
                "label": "Fake_Phishing293178"
            },
            {
                "address": "0xa00fa22499478cc37beb45021a1f1c9f826f72e1",
                "label": "PosRewards"
            },
            {
                "address": "0x276c5c6ca8507ed7bac085fc9b9521f4f54b58d3",
                "label": "ElcoinDb"
            },
            {
                "address": "0x0000000000000000000000000000000000000001",
                "label": "Precompiled"
            },
            {
                "address": "0x0000000000000000000000000000000000000002",
                "label": "Precompiled"
            },
            {
                "address": "0x0000000000000000000000000000000000000003",
                "label": "Precompiled"
            }
        ]
    },
    "trace": {
        "accountLabels": null,
        "dataMap": {
            "-1": {
                "invocation": {
                    "address": "0x52216101ed8f70b3474adb875bc03567b0ed3d4f",
                    "callData": "",
                    "decodedMethod": null,
                    "errorInfo": "",
                    "fromAddress": "",
                    "gasUsed": 0,
                    "id": -1,
                    "methodDecoded": false,
                    "operation": "",
                    "output": "",
                    "revert": false,
                    "revertMessage": "",
                    "selector": "",
                    "status": false,
                    "value": ""
                },
                "nodeType": 0
            },
            "0": {
                "invocation": {
                    "address": "0xa00fa22499478cc37beb45021a1f1c9f826f72e1",
                    "callData": "0x00000000000000000000000000000000000000000000000000000000000000100000000000000000000000000000000000000000000000000000000000000138",
                    "decodedMethod": {
                        "callParams": [
                            {
                                "name": "_cycle",
                                "type": "uint256",
                                "value": "16"
                            },
                            {
                                "name": "_position",
                                "type": "uint256",
                                "value": "312"
                            }
                        ],
                        "constructorArguments": "",
                        "name": "sendReward",
                        "returnParams": [
                            {
                                "name": "",
                                "type": "bool",
                                "value": true
                            }
                        ],
                        "signature": "sendReward(uint256,uint256)"
                    },
                    "errorInfo": "",
                    "fromAddress": "0x52216101ed8f70b3474adb875bc03567b0ed3d4f",
                    "gasUsed": 51630,
                    "id": 0,
                    "methodDecoded": true,
                    "operation": "CALL",
                    "output": "0x0000000000000000000000000000000000000000000000000000000000000001",
                    "revert": false,
                    "revertMessage": "",
                    "selector": "0x76d438b0",
                    "status": true,
                    "value": "0"
                },
                "nodeType": 0
            },
            "1": {
                "invocation": {
                    "address": "0xce81bc335ec2818b5926299ab65b7f2a7d882208",
                    "callData": "0x656c636f696e0000000000000000000000000000000000000000000000000000",
                    "decodedMethod": null,
                    "errorInfo": "",
                    "fromAddress": "0xa00fa22499478cc37beb45021a1f1c9f826f72e1",
                    "gasUsed": 736,
                    "id": 1,
                    "methodDecoded": false,
                    "operation": "CALL",
                    "output": "0x00000000000000000000000057d90b64a1a57749b0f932f1a3395792e12e7055",
                    "revert": false,
                    "revertMessage": "",
                    "selector": "0x2ade6c36",
                    "status": true,
                    "value": "0"
                },
                "nodeType": 0
            },
            "2": {
                "invocation": {
                    "address": "0x57d90b64a1a57749b0f932f1a3395792e12e7055",
                    "callData": "0x000000000000000000000000cb61dd41c300a8fd1e3d7e98cebae82d0cbdd9d500000000000000000000000000000000000000000000000000000000000844e3",
                    "decodedMethod": {
                        "callParams": [
                            {
                                "name": "_to",
                                "type": "address",
                                "value": "0xcb61dd41c300a8fd1e3d7e98cebae82d0cbdd9d5"
                            },
                            {
                                "name": "_amount",
                                "type": "uint256",
                                "value": "541,923"
                            }
                        ],
                        "constructorArguments": "",
                        "name": "rewardTo",
                        "returnParams": [
                            {
                                "name": "",
                                "type": "bool",
                                "value": true
                            }
                        ],
                        "signature": "rewardTo(address,uint256)"
                    },
                    "errorInfo": "",
                    "fromAddress": "0xa00fa22499478cc37beb45021a1f1c9f826f72e1",
                    "gasUsed": 18989,
                    "id": 2,
                    "methodDecoded": true,
                    "operation": "CALL",
                    "output": "0x0000000000000000000000000000000000000000000000000000000000000001",
                    "revert": false,
                    "revertMessage": "",
                    "selector": "0xf8b71c64",
                    "status": true,
                    "value": "0"
                },
                "nodeType": 0
            },
            "3": {
                "invocation": {
                    "address": "0xce81bc335ec2818b5926299ab65b7f2a7d882208",
                    "callData": "0x656c636f696e00000000000000000000000000000000000000000000000000007265776172640000000000000000000000000000000000000000000000000000000000000000000000000000a00fa22499478cc37beb45021a1f1c9f826f72e1",
                    "decodedMethod": null,
                    "errorInfo": "",
                    "fromAddress": "0x57d90b64a1a57749b0f932f1a3395792e12e7055",
                    "gasUsed": 3034,
                    "id": 3,
                    "methodDecoded": false,
                    "operation": "CALL",
                    "output": "0x0000000000000000000000000000000000000000000000000000000000000001",
                    "revert": false,
                    "revertMessage": "",
                    "selector": "0xa1add510",
                    "status": true,
                    "value": "0"
                },
                "nodeType": 0
            },
            "4": {
                "invocation": {
                    "address": "0xce81bc335ec2818b5926299ab65b7f2a7d882208",
                    "callData": "0x656c636f696e4462000000000000000000000000000000000000000000000000",
                    "decodedMethod": null,
                    "errorInfo": "",
                    "fromAddress": "0x57d90b64a1a57749b0f932f1a3395792e12e7055",
                    "gasUsed": 736,
                    "id": 4,
                    "methodDecoded": false,
                    "operation": "CALL",
                    "output": "0x000000000000000000000000276c5c6ca8507ed7bac085fc9b9521f4f54b58d3",
                    "revert": false,
                    "revertMessage": "",
                    "selector": "0x2ade6c36",
                    "status": true,
                    "value": "0"
                },
                "nodeType": 0
            },
            "5": {
                "invocation": {
                    "address": "0x276c5c6ca8507ed7bac085fc9b9521f4f54b58d3",
                    "callData": "0x000000000000000000000000cb61dd41c300a8fd1e3d7e98cebae82d0cbdd9d500000000000000000000000000000000000000000000000000000000000844e300000000000000000000000000000000000000000000000000000000000000000000000000000000000000000000000000000000000000000000000000000000",
                    "decodedMethod": {
                        "callParams": [
                            {
                                "name": "addr",
                                "type": "address",
                                "value": "0xcb61dd41c300a8fd1e3d7e98cebae82d0cbdd9d5"
                            },
                            {
                                "name": "amount",
                                "type": "uint256",
                                "value": "541,923"
                            },
                            {
                                "name": "hash",
                                "type": "bytes32",
                                "value": "0x0000000000000000000000000000000000000000000000000000000000000000"
                            },
                            {
                                "name": "time",
                                "type": "uint256",
                                "value": "0"
                            }
                        ],
                        "constructorArguments": "",
                        "name": "deposit",
                        "returnParams": [
                            {
                                "name": "res",
                                "type": "bool",
                                "value": true
                            }
                        ],
                        "signature": "deposit(address,uint256,bytes32,uint256)"
                    },
                    "errorInfo": "",
                    "fromAddress": "0x57d90b64a1a57749b0f932f1a3395792e12e7055",
                    "gasUsed": 8060,
                    "id": 5,
                    "methodDecoded": true,
                    "operation": "CALL",
                    "output": "0x0000000000000000000000000000000000000000000000000000000000000001",
                    "revert": false,
                    "revertMessage": "",
                    "selector": "0xec2ac54e",
                    "status": true,
                    "value": "0"
                },
                "nodeType": 0
            },
            "6": {
                "event": {
                    "contract": "0x276c5c6ca8507ed7bac085fc9b9521f4f54b58d3",
                    "decodedLog": {
                        "name": "Transaction",
                        "params": [
                            {
                                "name": "hash",
                                "type": "bytes32",
                                "value": "0x0000000000000000000000000000000000000000000000000000000000000000"
                            },
                            {
                                "name": "from",
                                "type": "address",
                                "value": "0x0000000000000000000000000000000000000000"
                            },
                            {
                                "name": "to",
                                "type": "address",
                                "value": "0xcb61dd41c300a8fd1e3d7e98cebae82d0cbdd9d5"
                            },
                            {
                                "name": "time",
                                "type": "uint256",
                                "value": "0"
                            },
                            {
                                "name": "amount",
                                "type": "uint256",
                                "value": "541,923"
                            }
                        ],
                        "signature": "Transaction(bytes32,address,address,uint256,uint256)"
                    },
                    "id": 6,
                    "logData": "0x000000000000000000000000000000000000000000000000000000000000000000000000000000000000000000000000000000000000000000000000000844e3",
                    "logDecoded": true,
                    "operation": "EVENT",
                    "revert": false,
                    "status": true,
                    "topics": [
                        "0xea0f544916910bb1ff33390cbe54a3f5d36d298328578399311cde3c9a750686",
                        "0x0000000000000000000000000000000000000000000000000000000000000000",
                        "0x0000000000000000000000000000000000000000000000000000000000000000",
                        "0x000000000000000000000000cb61dd41c300a8fd1e3d7e98cebae82d0cbdd9d5"
                    ]
                },
                "nodeType": 1
            },
            "7": {
                "event": {
                    "contract": "0xa00fa22499478cc37beb45021a1f1c9f826f72e1",
                    "decodedLog": {
                        "name": "Reward",
                        "params": [
                            {
                                "name": "beneficiary",
                                "type": "address",
                                "value": "0xcb61dd41c300a8fd1e3d7e98cebae82d0cbdd9d5"
                            },
                            {
                                "name": "cycle",
                                "type": "uint256",
                                "value": "16"
                            },
                            {
                                "name": "value",
                                "type": "uint256",
                                "value": "541,923"
                            },
                            {
                                "name": "position",
                                "type": "uint256",
                                "value": "312"
                            }
                        ],
                        "signature": "Reward(address,uint256,uint256,uint256)"
                    },
                    "id": 7,
                    "logData": "0x00000000000000000000000000000000000000000000000000000000000844e30000000000000000000000000000000000000000000000000000000000000138",
                    "logDecoded": true,
                    "operation": "EVENT",
                    "revert": false,
                    "status": true,
                    "topics": [
                        "0xe417c38cb96e748006d0ef1a56fec0de428abac103b6644bc30c745f54f54345",
                        "0x000000000000000000000000cb61dd41c300a8fd1e3d7e98cebae82d0cbdd9d5",
                        "0x0000000000000000000000000000000000000000000000000000000000000010"
                    ]
                },
                "nodeType": 1
            }
        },
        "gasFlame": [
            {
                "children": [
                    {
                        "children": [
                            {
                                "children": [],
                                "depth": 0,
                                "name": "Initial Gas",
                                "value": 21720
                            },
                            {
                                "children": [
                                    {
                                        "children": [],
                                        "depth": 1,
                                        "name": "0x2ade6c36",
                                        "value": 736
                                    },
                                    {
                                        "children": [
                                            {
                                                "children": [],
                                                "depth": 2,
                                                "name": "0xa1add510",
                                                "value": 3034
                                            },
                                            {
                                                "children": [],
                                                "depth": 2,
                                                "name": "0x2ade6c36",
                                                "value": 736
                                            },
                                            {
                                                "children": [],
                                                "depth": 2,
                                                "name": "deposit",
                                                "value": 8060
                                            }
                                        ],
                                        "depth": 1,
                                        "name": "rewardTo",
                                        "value": 18989
                                    }
                                ],
                                "depth": 0,
                                "name": "Executed Gas",
                                "value": 29910
                            }
                        ],
                        "depth": -1,
                        "name": "Actual Gas Used",
                        "value": 51630
                    },
                    {
                        "children": [],
                        "depth": -1,
                        "name": "Refunded Gas",
                        "value": 0
                    }
                ],
                "depth": -2,
                "name": "Total Gas",
                "value": 51630
            }
        ],
        "isConfirmed": true,
        "mainTrace": [
            {
                "children": [
                    {
                        "children": [
                            {
                                "children": [],
                                "depth": 1,
                                "id": 1,
                                "order": 1
                            },
                            {
                                "children": [
                                    {
                                        "children": [],
                                        "depth": 2,
                                        "id": 3,
                                        "order": 3
                                    },
                                    {
                                        "children": [],
                                        "depth": 2,
                                        "id": 4,
                                        "order": 4
                                    },
                                    {
                                        "children": [
                                            {
                                                "children": [],
                                                "depth": 3,
                                                "id": 6,
                                                "order": 6
                                            }
                                        ],
                                        "depth": 2,
                                        "id": 5,
                                        "order": 5
                                    }
                                ],
                                "depth": 1,
                                "id": 2,
                                "order": 2
                            },
                            {
                                "children": [],
                                "depth": 1,
                                "id": 7,
                                "order": 7
                            }
                        ],
                        "depth": 0,
                        "id": 0,
                        "order": 0
                    }
                ],
                "depth": -1,
                "id": -1,
                "order": -1
            }
        ],
        "mainTraceNodeCount": 8,
        "parentIdMap": {
            "0": -1,
            "1": 0,
            "2": 0,
            "3": 2,
            "4": 2,
            "5": 2,
            "6": 5,
            "7": 0
        },
        "tidyTrace": [
            {
                "children": [
                    {
                        "children": [
                            {
                                "children": [],
                                "depth": 1,
                                "id": 1,
                                "order": 1
                            },
                            {
                                "children": [
                                    {
                                        "children": [],
                                        "depth": 2,
                                        "id": 3,
                                        "order": 3
                                    },
                                    {
                                        "children": [],
                                        "depth": 2,
                                        "id": 4,
                                        "order": 4
                                    },
                                    {
                                        "children": [
                                            {
                                                "children": [],
                                                "depth": 3,
                                                "id": 6,
                                                "order": 6
                                            }
                                        ],
                                        "depth": 2,
                                        "id": 5,
                                        "order": 5
                                    }
                                ],
                                "depth": 1,
                                "id": 2,
                                "order": 2
                            },
                            {
                                "children": [],
                                "depth": 1,
                                "id": 7,
                                "order": 7
                            }
                        ],
                        "depth": 0,
                        "id": 0,
                        "order": 0
                    }
                ],
                "depth": -1,
                "id": -1,
                "order": -1
            }
        ],
        "tidyTraceNodeCount": 8
    },
    "state_change": {
        "stateChanges": [
            {
                "address": "0x276c5c6ca8507ed7bac085fc9b9521f4f54b58d3",
                "erc": "",
                "slots": [
                    {
                        "current": "0x0000000000000000000000000000000000000000000000000000000002fad2e7",
                        "key": "0xde6c7f1c7c841a641875e56fdcef1cc1a09bf41cadeea2a9c1de84154583d575",
                        "prev": "0x0000000000000000000000000000000000000000000000000000000002f28e04"
                    }
                ],
                "storageVariables": []
            },
            {
                "address": "0x57d90b64a1a57749b0f932f1a3395792e12e7055",
                "erc": "",
                "slots": [
                    {
                        "current": "0x000000000000000000000000000000000000000000000000000012add8bbd97b",
                        "key": "0x0000000000000000000000000000000000000000000000000000000000000004",
                        "prev": "0x000000000000000000000000000000000000000000000000000012add8b39498"
                    }
                ],
                "storageVariables": []
            },
            {
                "address": "0xa00fa22499478cc37beb45021a1f1c9f826f72e1",
                "erc": "",
                "slots": [
                    {
                        "current": "0x000000000000000000000001cb61dd41c300a8fd1e3d7e98cebae82d0cbdd9d5",
                        "key": "0xe9ff4213f4ac73703aeb969f0cb771f6ded6bcbb44c63d297994c7e697ce2741",
                        "prev": "0x000000000000000000000000cb61dd41c300a8fd1e3d7e98cebae82d0cbdd9d5"
                    }
                ],
                "storageVariables": []
            }
        ]
    }
}