{
    "balance_change": {
        "balanceChanges": []
    },
    "profile": {
        "basic_info": {
            "baseFee": "",
            "blockNumber": 2181440,
            "callData": "0x90fa337d000000000000000000000000000000000000000000000000000000000000006000000000000000000000000000000000000000000000000000038d7ea4c6800000000000000000000000000001a23fd30aabf5ad53bab3093dcd4948e15cec80000000000000000000000000000000000000000000000000000000000000005000000020d93eb5f30e7e11cd88b923eba14fd713040759f6c2a07e0400000000000000001f3ae3dcef25bc6978ad166f660f03bae015ebccbed50cf7c38d9e54828a29805398c85708fb041852c01dcb00000000000000000000000000000000",
            "debugEnable": true,
            "errorInfo": "",
            "eventCount": 1,
            "feeRecipient": "0x1a060b0604883a99809eb3f798df71bef6c358f1",
            "formatValue": "0",
            "gasLimit": 1200000,
            "gasPrice": "20",
            "gasUsed": 39724,
            "intTxnCount": 5,
            "internalRevert": false,
            "internalRevertMessage": "",
            "isContractCreation": false,
            "isFlashloan": false,
            "maxFee": "",
            "nonce": 21571,
            "overwritedBlockNumber": -1,
            "priorityFee": "",
            "receiver": "0x41f274c0023f83391de4e0733c609df5a124c3d4",
            "revertMessage": "",
            "sender": "0xac4361f56c82ed59d533d45129f407015d84702a",
            "simulationEnable": true,
            "sourceTxnHash": "0xcbebfb831037a97cb17125e6330412016f930d447732040badf45c6d4262d878",
            "status": true,
            "timestamp": "2016-09-01T21:10:16Z",
            "transactionFee": "0.00079448",
            "txnHash": "0xcbebfb831037a97cb17125e6330412016f930d447732040badf45c6d4262d878",
            "txnIndex": 4,
            "type": 0,
            "value": "0"
        },
        "fund_flow": [],
        "token_infos": [
            {
                "address": "0xc02aaa39b223fe8d0a0e5c4f27ead9083c756cc2",
                "decimals": 18
            },
            {
                "address": "0xeeeeeeeeeeeeeeeeeeeeeeeeeeeeeeeeeeeeeeee",
                "decimals": 18
            }
        ]
    },
    "address_label": {
        "labels": [
            {
                "address": "0x0000000000000000000000000000000000000003",
                "label": "Precompiled"
            },
            {
                "address": "0xeeeeeeeeeeeeeeeeeeeeeeeeeeeeeeeeeeeeeeee",
                "label": "Ether"
            },
            {
                "address": "0x41f274c0023f83391de4e0733c609df5a124c3d4",
                "label": "BTCRelay"
            },
            {
                "address": "0x0000000000000000000000000000000000000002",
                "label": "Precompiled"
            },
            {
                "address": "0x0000000000000000000000000000000000000004",
                "label": "Precompiled"
            },
            {
                "address": "0x0000000000000000000000000000000000000001",
                "label": "Precompiled"
            }
        ]
    },
    "trace": {
        "accountLabels": null,
        "dataMap": {
            "-1": {
                "invocation": {
                    "address": "0xac4361f56c82ed59d533d45129f407015d84702a",
                    "callData": "",
                    "decodedMethod": null,
                    "errorInfo": "",
                    "fromAddress": "",
                    "gasUsed": 0,
                    "id": -1,
                    "methodDecoded": false,
                    "operation": "",
                    "output": "",
                    "revert": false,
                    "revertMessage": "",
                    "selector": "",
                    "status": false,
                    "value": ""
                },
                "nodeType": 0
            },
            "0": {
                "invocation": {
                    "address": "0x41f274c0023f83391de4e0733c609df5a124c3d4",
                    "callData": "0x000000000000000000000000000000000000000000000000000000000000006000000000000000000000000000000000000000000000000000038d7ea4c6800000000000000000000000000001a23fd30aabf5ad53bab3093dcd4948e15cec80000000000000000000000000000000000000000000000000000000000000005000000020d93eb5f30e7e11cd88b923eba14fd713040759f6c2a07e0400000000000000001f3ae3dcef25bc6978ad166f660f03bae015ebccbed50cf7c38d9e54828a29805398c85708fb041852c01dcb00000000000000000000000000000000",
                    "decodedMethod": null,
                    "errorInfo": "",
                    "fromAddress": "0xac4361f56c82ed59d533d45129f407015d84702a",
                    "gasUsed": 39724,
                    "id": 0,
                    "methodDecoded": false,
                    "operation": "CALL",
                    "output": "",
                    "revert": false,
                    "revertMessage": "",
                    "selector": "0x90fa337d",
                    "status": true,
                    "value": "0"
                },
                "nodeType": 0
            },
            "1": {
                "invocation": {
                    "address": "0x0000000000000000000000000000000000000004",
                    "callData": "0x0000000000000000000000000000000000000000000000000000000000000020",
                    "decodedMethod": {
                        "callParams": [
                            {
                                "name": "data",
                                "type": "bytes",
                                "value": "0x2b8616290000000000000000000000000000000000000000000000000000000000000020"
                            }
                        ],
                        "constructorArguments": "",
                        "name": "dataCopy()",
                        "returnParams": [
                            {
                                "name": "data",
                                "type": "bytes",
                                "value": "0x2b8616290000000000000000000000000000000000000000000000000000000000000020"
                            }
                        ],
                        "signature": "dataCopy(bytes)"
                    },
                    "errorInfo": "",
                    "fromAddress": "0x41f274c0023f83391de4e0733c609df5a124c3d4",
                    "gasUsed": 21,
                    "id": 1,
                    "methodDecoded": true,
                    "operation": "CALL",
                    "output": "0x2b8616290000000000000000000000000000000000000000000000000000000000000020",
                    "revert": false,
                    "revertMessage": "",
                    "selector": "0x2b861629",
                    "status": true,
                    "value": "0"
                },
                "nodeType": 0
            },
            "2": {
                "invocation": {
                    "address": "0x0000000000000000000000000000000000000004",
                    "callData": "0x0000000000000000000000000000000000000000000000000000005000000020d93eb5f30e7e11cd88b923eba14fd713040759f6c2a07e0400000000000000001f3ae3dcef25bc6978ad166f660f03bae015ebccbed50cf7c38d9e54828a29805398c85708fb041852c01dcb00000000000000000000000000000000",
                    "decodedMethod": {
                        "callParams": [
                            {
                                "name": "data",
                                "type": "bytes",
                                "value": "0x000000000000000000000000000000000000000000000000000000000000005000000020d93eb5f30e7e11cd88b923eba14fd713040759f6c2a07e0400000000000000001f3ae3dcef25bc6978ad166f660f03bae015ebccbed50cf7c38d9e54828a29805398c85708fb041852c01dcb00000000000000000000000000000000"
                            }
                        ],
                        "constructorArguments": "",
                        "name": "dataCopy()",
                        "returnParams": [
                            {
                                "name": "data",
                                "type": "bytes",
                                "value": "0x000000000000000000000000000000000000000000000000000000000000005000000020d93eb5f30e7e11cd88b923eba14fd713040759f6c2a07e0400000000000000001f3ae3dcef25bc6978ad166f660f03bae015ebccbed50cf7c38d9e54828a29805398c85708fb041852c01dcb00000000000000000000000000000000"
                            }
                        ],
                        "signature": "dataCopy(bytes)"
                    },
                    "errorInfo": "",
                    "fromAddress": "0x41f274c0023f83391de4e0733c609df5a124c3d4",
                    "gasUsed": 27,
                    "id": 2,
                    "methodDecoded": true,
                    "operation": "CALL",
                    "output": "0x000000000000000000000000000000000000000000000000000000000000005000000020d93eb5f30e7e11cd88b923eba14fd713040759f6c2a07e0400000000000000001f3ae3dcef25bc6978ad166f660f03bae015ebccbed50cf7c38d9e54828a29805398c85708fb041852c01dcb00000000000000000000000000000000",
                    "revert": false,
                    "revertMessage": "",
                    "selector": "0x00000000",
                    "status": true,
                    "value": "0"
                },
                "nodeType": 0
            },
            "3": {
                "invocation": {
                    "address": "0x41f274c0023f83391de4e0733c609df5a124c3d4",
                    "callData": "0x0000000000000000000000000000000000000000000000000000000000000020000000000000000000000000000000000000000000000000000000000000005000000020d93eb5f30e7e11cd88b923eba14fd713040759f6c2a07e0400000000000000001f3ae3dcef25bc6978ad166f660f03bae015ebccbed50cf7c38d9e54828a29805398c85708fb041852c01dcb00000000000000000000000000000000",
                    "decodedMethod": {
                        "callParams": [
                            {
                                "name": "header",
                                "type": "bytes",
                                "value": "0x00000020d93eb5f30e7e11cd88b923eba14fd713040759f6c2a07e0400000000000000001f3ae3dcef25bc6978ad166f660f03bae015ebccbed50cf7c38d9e54828a29805398c85708fb041852c01dcb"
                            }
                        ],
                        "constructorArguments": "",
                        "name": "storeBlockHeader",
                        "returnParams": [
                            {
                                "name": "",
                                "type": "uint256",
                                "value": "0"
                            }
                        ],
                        "signature": "storeBlockHeader(bytes)"
                    },
                    "errorInfo": "",
                    "fromAddress": "0x41f274c0023f83391de4e0733c609df5a124c3d4",
                    "gasUsed": 8964,
                    "id": 3,
                    "methodDecoded": true,
                    "operation": "CALL",
                    "output": "0x0000000000000000000000000000000000000000000000000000000000000000",
                    "revert": false,
                    "revertMessage": "",
                    "selector": "0x2b861629",
                    "status": true,
                    "value": "0"
                },
                "nodeType": 0
            },
            "4": {
                "invocation": {
                    "address": "0x0000000000000000000000000000000000000002",
                    "callData": "0xd93eb5f30e7e11cd88b923eba14fd713040759f6c2a07e0400000000000000001f3ae3dcef25bc6978ad166f660f03bae015ebccbed50cf7c38d9e54828a29805398c85708fb041852c01dcb",
                    "decodedMethod": {
                        "callParams": [
                            {
                                "name": "data",
                                "type": "bytes",
                                "value": "0x00000020d93eb5f30e7e11cd88b923eba14fd713040759f6c2a07e0400000000000000001f3ae3dcef25bc6978ad166f660f03bae015ebccbed50cf7c38d9e54828a29805398c85708fb041852c01dcb"
                            }
                        ],
                        "constructorArguments": "",
                        "name": "sha256hash",
                        "returnParams": [
                            {
                                "name": "hash",
                                "type": "bytes32",
                                "value": "0xe1cb5d37507b69cde59b43faacec0562431b4c0aa919800d68223c2db5667378"
                            }
                        ],
                        "signature": "sha256hash(bytes)"
                    },
                    "errorInfo": "",
                    "fromAddress": "0x41f274c0023f83391de4e0733c609df5a124c3d4",
                    "gasUsed": 96,
                    "id": 4,
                    "methodDecoded": true,
                    "operation": "CALL",
                    "output": "0xe1cb5d37507b69cde59b43faacec0562431b4c0aa919800d68223c2db5667378",
                    "revert": false,
                    "revertMessage": "",
                    "selector": "0x00000020",
                    "status": true,
                    "value": "0"
                },
                "nodeType": 0
            },
            "5": {
                "invocation": {
                    "address": "0x0000000000000000000000000000000000000002",
                    "callData": "0x507b69cde59b43faacec0562431b4c0aa919800d68223c2db5667378",
                    "decodedMethod": {
                        "callParams": [
                            {
                                "name": "data",
                                "type": "bytes",
                                "value": "0xe1cb5d37507b69cde59b43faacec0562431b4c0aa919800d68223c2db5667378"
                            }
                        ],
                        "constructorArguments": "",
                        "name": "sha256hash",
                        "returnParams": [
                            {
                                "name": "hash",
                                "type": "bytes32",
                                "value": "0xa39894bb94704de67fe6a6db91d202c2be366ba19d049d020000000000000000"
                            }
                        ],
                        "signature": "sha256hash(bytes)"
                    },
                    "errorInfo": "",
                    "fromAddress": "0x41f274c0023f83391de4e0733c609df5a124c3d4",
                    "gasUsed": 72,
                    "id": 5,
                    "methodDecoded": true,
                    "operation": "CALL",
                    "output": "0xa39894bb94704de67fe6a6db91d202c2be366ba19d049d020000000000000000",
                    "revert": false,
                    "revertMessage": "",
                    "selector": "0xe1cb5d37",
                    "status": true,
                    "value": "0"
                },
                "nodeType": 0
            },
            "6": {
                "event": {
                    "contract": "0x41f274c0023f83391de4e0733c609df5a124c3d4",
                    "decodedLog": null,
                    "id": 6,
                    "logData": "0x",
                    "logDecoded": false,
                    "operation": "EVENT",
                    "revert": false,
                    "status": true,
                    "topics": [
                        "0x055e4f8dd3a534789b3feb8e0681afa2aee8713fdd6472f25b2c30dc7bf4e0f4",
                        "0x0000000000000000029d049da16b36bec202d291dba6e67fe64d7094bb9498a3",
                        "0x0000000000000000000000000000000000000000000000000000000000002738"
                    ]
                },
                "nodeType": 1
            }
        },
        "gasFlame": [
            {
                "children": [
                    {
                        "children": [
                            {
                                "children": [],
                                "depth": 0,
                                "name": "Initial Gas",
                                "value": 28376
                            },
                            {
                                "children": [
                                    {
                                        "children": [],
                                        "depth": 1,
                                        "name": "dataCopy()",
                                        "value": 21
                                    },
                                    {
                                        "children": [],
                                        "depth": 1,
                                        "name": "dataCopy()",
                                        "value": 27
                                    },
                                    {
                                        "children": [
                                            {
                                                "children": [],
                                                "depth": 2,
                                                "name": "sha256hash",
                                                "value": 96
                                            },
                                            {
                                                "children": [],
                                                "depth": 2,
                                                "name": "sha256hash",
                                                "value": 72
                                            }
                                        ],
                                        "depth": 1,
                                        "name": "storeBlockHeader",
                                        "value": 8964
                                    }
                                ],
                                "depth": 0,
                                "name": "Executed Gas",
                                "value": 11348
                            }
                        ],
                        "depth": -1,
                        "name": "Actual Gas Used",
                        "value": 39724
                    },
                    {
                        "children": [],
                        "depth": -1,
                        "name": "Refunded Gas",
                        "value": 0
                    }
                ],
                "depth": -2,
                "name": "Total Gas",
                "value": 39724
            }
        ],
        "isConfirmed": true,
        "mainTrace": [
            {
                "children": [
                    {
                        "children": [
                            {
                                "children": [],
                                "depth": 1,
                                "id": 1,
                                "order": 1
                            },
                            {
                                "children": [],
                                "depth": 1,
                                "id": 2,
                                "order": 2
                            },
                            {
                                "children": [
                                    {
                                        "children": [],
                                        "depth": 2,
                                        "id": 4,
                                        "order": 4
                                    },
                                    {
                                        "children": [],
                                        "depth": 2,
                                        "id": 5,
                                        "order": 5
                                    },
                                    {
                                        "children": [],
                                        "depth": 2,
                                        "id": 6,
                                        "order": 6
                                    }
                                ],
                                "depth": 1,
                                "id": 3,
                                "order": 3
                            }
                        ],
                        "depth": 0,
                        "id": 0,
                        "order": 0
                    }
                ],
                "depth": -1,
                "id": -1,
                "order": -1
            }
        ],
        "mainTraceNodeCount": 7,
        "parentIdMap": {
            "0": -1,
            "1": 0,
            "2": 0,
            "3": 0,
            "4": 3,
            "5": 3,
            "6": 3
        },
        "tidyTrace": [
            {
                "children": [
                    {
                        "children": [
                            {
                                "children": [],
                                "depth": 1,
                                "id": 1,
                                "order": 1
                            },
                            {
                                "children": [],
                                "depth": 1,
                                "id": 2,
                                "order": 2
                            },
                            {
                                "children": [
                                    {
                                        "children": [],
                                        "depth": 2,
                                        "id": 4,
                                        "order": 4
                                    },
                                    {
                                        "children": [],
                                        "depth": 2,
                                        "id": 5,
                                        "order": 5
                                    },
                                    {
                                        "children": [],
                                        "depth": 2,
                                        "id": 6,
                                        "order": 6
                                    }
                                ],
                                "depth": 1,
                                "id": 3,
                                "order": 3
                            }
                        ],
                        "depth": 0,
                        "id": 0,
                        "order": 0
                    }
                ],
                "depth": -1,
                "id": -1,
                "order": -1
            }
        ],
        "tidyTraceNodeCount": 7
    },
    "state_change": {
        "stateChanges": []
    }
}