{
    "balance_change": {
        "balanceChanges": [
            {
                "account": "0xd4315668aa1d88b4c581ec6fa902e131286dd0ab",
                "assets": [
                    {
                        "address": "0xab306326bc72c2335bd08f42cbec383691ef8446",
                        "amount": "445,677,471.07907994559257142",
                        "iconUrl": "",
                        "isERC1155": false,
                        "isERC721": false,
                        "sign": false,
                        "value": "5477.085835"
                    },
                    {
                        "address": "0xc02aaa39b223fe8d0a0e5c4f27ead9083c756cc2",
                        "amount": "2.97006707096780319",
                        "iconUrl": "https://assets.blocksec.com/icon/f1cb2d02c471d545bbc7722daf3277fd852d98e63d118771af7047bd8256c516.png",
                        "isERC1155": false,
                        "isERC721": false,
                        "sign": true,
                        "value": "5449.508762541509838"
                    }
                ]
            },
            {
                "account": "0xcd665315a324b27870f008b7918bff98bd6b2361",
                "assets": [
                    {
                        "address": "0xab306326bc72c2335bd08f42cbec383691ef8446",
                        "amount": "445,677,471.07907994559257142",
                        "iconUrl": "",
                        "isERC1155": false,
                        "isERC721": false,
                        "sign": true,
                        "value": "5477.085835"
                    },
                    {
                        "address": "0xc02aaa39b223fe8d0a0e5c4f27ead9083c756cc2",
                        "amount": "2.97006707096780319",
                        "iconUrl": "https://assets.blocksec.com/icon/f1cb2d02c471d545bbc7722daf3277fd852d98e63d118771af7047bd8256c516.png",
                        "isERC1155": false,
                        "isERC721": false,
                        "sign": false,
                        "value": "5449.508762541509838"
                    }
                ]
            }
        ]
    },
    "profile": {
        "basic_info": {
            "baseFee": "99.379168113",
            "blockNumber": 17233430,
            "callData": "0xa1fe036200000000000000000000000000000000000000000170a7e01e5bdcaa3503061c0000000000000000000000000000000000000000000000002937cc43d41eed36000000000000000000000000ab306326bc72c2335bd08f42cbec383691ef8446",
            "debugEnable": true,
            "errorInfo": "",
            "eventCount": 4,
            "feeRecipient": "0x1f9090aae28b8a3dceadf281b0f12828e676c326",
            "formatValue": "0",
            "gasLimit": 300000,
            "gasPrice": "147.712825875",
            "gasUsed": 92784,
            "intTxnCount": 6,
            "internalRevert": false,
            "internalRevertMessage": "",
            "isContractCreation": false,
            "isFlashloan": false,
            "maxFee": "172.286104247",
            "nonce": 15100,
            "overwritedBlockNumber": -1,
            "priorityFee": "48.333657762",
            "receiver": "0xd4315668aa1d88b4c581ec6fa902e131286dd0ab",
            "revertMessage": "",
            "sender": "0x8095b77c87e3e983eeea94411325e371bb0ce087",
            "simulationEnable": true,
            "sourceTxnHash": "0xcb94585c7f3797ec929ef8b429697dae4ff2469097e92320508fe9d9e229f210",
            "status": true,
            "timestamp": "2023-05-11T00:03:23Z",
            "transactionFee": "0.013705386835986",
            "txnHash": "0xcb94585c7f3797ec929ef8b429697dae4ff2469097e92320508fe9d9e229f210",
            "txnIndex": 7,
            "type": 2,
            "value": "0"
        },
        "fund_flow": [
            {
                "amount": "445,677,471.07907994559257142",
                "from": "0xd4315668aa1d88b4c581ec6fa902e131286dd0ab",
                "id": 1,
                "isERC1155": false,
                "isERC721": false,
                "isReverted": false,
                "order": 1,
                "to": "0xcd665315a324b27870f008b7918bff98bd6b2361",
                "token": "0xab306326bc72c2335bd08f42cbec383691ef8446"
            },
            {
                "amount": "2.97006707096780319",
                "from": "0xcd665315a324b27870f008b7918bff98bd6b2361",
                "id": 2,
                "isERC1155": false,
                "isERC721": false,
                "isReverted": false,
                "order": 2,
                "to": "0xd4315668aa1d88b4c581ec6fa902e131286dd0ab",
                "token": "0xc02aaa39b223fe8d0a0e5c4f27ead9083c756cc2"
            }
        ],
        "token_infos": [
            {
                "address": "0xab306326bc72c2335bd08f42cbec383691ef8446",
                "decimals": 18
            },
            {
                "address": "0xc02aaa39b223fe8d0a0e5c4f27ead9083c756cc2",
                "decimals": 18
            },
            {
                "address": "0xeeeeeeeeeeeeeeeeeeeeeeeeeeeeeeeeeeeeeeee",
                "decimals": 18
            }
        ]
    },
    "address_label": {
        "labels": [
            {
                "address": "0x0000000000000000000000000000000000000001",
                "label": "Precompiled"
            },
            {
                "address": "0x0000000000000000000000000000000000000002",
                "label": "Precompiled"
            },
            {
                "address": "0x0000000000000000000000000000000000000003",
                "label": "Precompiled"
            },
            {
                "address": "0x0000000000000000000000000000000000000004",
                "label": "Precompiled"
            },
            {
                "address": "0xeeeeeeeeeeeeeeeeeeeeeeeeeeeeeeeeeeeeeeee",
                "label": "Ether"
            },
            {
                "address": "0xc02aaa39b223fe8d0a0e5c4f27ead9083c756cc2",
                "label": "Wrapped Ether (WETH)"
            },
            {
                "address": "0xcd665315a324b27870f008b7918bff98bd6b2361",
                "label": "Uniswap V2: PPIZZA 2"
            },
            {
                "address": "0xab306326bc72c2335bd08f42cbec383691ef8446",
                "label": "P Pizza (PPIZZA)"
            }
        ]
    },
    "trace": {
        "accountLabels": null,
        "dataMap": {
            "-1": {
                "invocation": {
                    "address": "0x8095b77c87e3e983eeea94411325e371bb0ce087",
                    "callData": "",
                    "decodedMethod": null,
                    "errorInfo": "",
                    "fromAddress": "",
                    "gasUsed": 0,
                    "id": -1,
                    "methodDecoded": false,
                    "operation": "",
                    "output": "",
                    "revert": false,
                    "revertMessage": "",
                    "selector": "",
                    "status": false,
                    "value": ""
                },
                "nodeType": 0
            },
            "0": {
                "invocation": {
                    "address": "0xd4315668aa1d88b4c581ec6fa902e131286dd0ab",
                    "callData": "0x00000000000000000000000000000000000000000170a7e01e5bdcaa3503061c0000000000000000000000000000000000000000000000002937cc43d41eed36000000000000000000000000ab306326bc72c2335bd08f42cbec383691ef8446",
                    "decodedMethod": {
                        "callParams": [
                            {
                                "name": "pongFee",
                                "type": "uint256",
                                "value": "445,677,471,079,079,945,592,571,420"
                            },
                            {
                                "name": "amountIn",
                                "type": "uint256",
                                "value": "2,970,067,070,967,803,190"
                            },
                            {
                                "name": "to",
                                "type": "address",
                                "value": "0xab306326bc72c2335bd08f42cbec383691ef8446"
                            }
                        ],
                        "constructorArguments": "",
                        "name": "swapExactTokensForETH",
                        "returnParams": [],
                        "signature": "swapExactTokensForETH(uint256,uint256,address)"
                    },
                    "errorInfo": "",
                    "fromAddress": "0x8095b77c87e3e983eeea94411325e371bb0ce087",
                    "gasUsed": 92784,
                    "id": 0,
                    "methodDecoded": true,
                    "operation": "CALL",
                    "output": "",
                    "revert": false,
                    "revertMessage": "",
                    "selector": "0xa1fe0362",
                    "status": true,
                    "value": "0"
                },
                "nodeType": 0
            },
            "1": {
                "invocation": {
                    "address": "0xcd665315a324b27870f008b7918bff98bd6b2361",
                    "callData": "0x",
                    "decodedMethod": {
                        "callParams": [],
                        "constructorArguments": "",
                        "name": "getReserves",
                        "returnParams": [
                            {
                                "name": "_reserve0",
                                "type": "uint112",
                                "value": "12,195,589,969,181,459,876,229,972,466"
                            },
                            {
                                "name": "_reserve1",
                                "type": "uint112",
                                "value": "84,488,013,731,975,887,149"
                            },
                            {
                                "name": "_blockTimestampLast",
                                "type": "uint32",
                                "value": "1,683,763,163"
                            }
                        ],
                        "signature": "getReserves()"
                    },
                    "errorInfo": "",
                    "fromAddress": "0xd4315668aa1d88b4c581ec6fa902e131286dd0ab",
                    "gasUsed": 2504,
                    "id": 1,
                    "methodDecoded": true,
                    "operation": "STATICCALL",
                    "output": "0x00000000000000000000000000000000000000002767f4a0f76926ee1a5081f20000000000000000000000000000000000000000000000049481b8da40bf792d00000000000000000000000000000000000000000000000000000000645c2fdb",
                    "revert": false,
                    "revertMessage": "",
                    "selector": "0x0902f1ac",
                    "status": true,
                    "value": "0"
                },
                "nodeType": 0
            },
            "10": {
                "event": {
                    "contract": "0xcd665315a324b27870f008b7918bff98bd6b2361",
                    "decodedLog": {
                        "name": "Swap",
                        "params": [
                            {
                                "name": "sender",
                                "type": "address",
                                "value": "0xd4315668aa1d88b4c581ec6fa902e131286dd0ab"
                            },
                            {
                                "name": "to",
                                "type": "address",
                                "value": "0xd4315668aa1d88b4c581ec6fa902e131286dd0ab"
                            },
                            {
                                "name": "amount0In",
                                "type": "uint256",
                                "value": "445,677,471,079,079,945,592,571,420"
                            },
                            {
                                "name": "amount1In",
                                "type": "uint256",
                                "value": "0"
                            },
                            {
                                "name": "amount0Out",
                                "type": "uint256",
                                "value": "0"
                            },
                            {
                                "name": "amount1Out",
                                "type": "uint256",
                                "value": "2,970,067,070,967,803,190"
                            }
                        ],
                        "signature": "Swap(address,uint256,uint256,uint256,uint256,address)"
                    },
                    "id": 10,
                    "logData": "0x00000000000000000000000000000000000000000170a7e01e5bdcaa3503061c000000000000000000000000000000000000000000000000000000000000000000000000000000000000000000000000000000000000000000000000000000000000000000000000000000000000000000000000000000002937cc43d41eed36",
                    "logDecoded": true,
                    "operation": "EVENT",
                    "revert": false,
                    "status": true,
                    "topics": [
                        "0xd78ad95fa46c994b6551d0da85fc275fe613ce37657fb8d5e3d130840159d822",
                        "0x000000000000000000000000d4315668aa1d88b4c581ec6fa902e131286dd0ab",
                        "0x000000000000000000000000d4315668aa1d88b4c581ec6fa902e131286dd0ab"
                    ]
                },
                "nodeType": 1
            },
            "2": {
                "invocation": {
                    "address": "0xab306326bc72c2335bd08f42cbec383691ef8446",
                    "callData": "0x000000000000000000000000cd665315a324b27870f008b7918bff98bd6b236100000000000000000000000000000000000000000170a7e01e5bdcaa3503061c",
                    "decodedMethod": {
                        "callParams": [
                            {
                                "name": "recipient",
                                "type": "address",
                                "value": "0xcd665315a324b27870f008b7918bff98bd6b2361"
                            },
                            {
                                "decimalAvailable": true,
                                "name": "amount",
                                "type": "uint256",
                                "value": "445,677,471,079,079,945,592,571,420"
                            }
                        ],
                        "constructorArguments": "",
                        "name": "transfer",
                        "returnParams": [
                            {
                                "name": "",
                                "type": "bool",
                                "value": true
                            }
                        ],
                        "signature": "transfer(address,uint256)"
                    },
                    "errorInfo": "",
                    "fromAddress": "0xd4315668aa1d88b4c581ec6fa902e131286dd0ab",
                    "gasUsed": 13592,
                    "id": 2,
                    "methodDecoded": true,
                    "operation": "CALL",
                    "output": "0x0000000000000000000000000000000000000000000000000000000000000001",
                    "revert": false,
                    "revertMessage": "",
                    "selector": "0xa9059cbb",
                    "status": true,
                    "value": "0"
                },
                "nodeType": 0
            },
            "3": {
                "event": {
                    "contract": "0xab306326bc72c2335bd08f42cbec383691ef8446",
                    "decodedLog": {
                        "name": "Transfer",
                        "params": [
                            {
                                "name": "from",
                                "type": "address",
                                "value": "0xd4315668aa1d88b4c581ec6fa902e131286dd0ab"
                            },
                            {
                                "name": "to",
                                "type": "address",
                                "value": "0xcd665315a324b27870f008b7918bff98bd6b2361"
                            },
                            {
                                "decimalAvailable": true,
                                "name": "value",
                                "type": "uint256",
                                "value": "445,677,471,079,079,945,592,571,420"
                            }
                        ],
                        "signature": "Transfer(address,address,uint256)"
                    },
                    "id": 3,
                    "logData": "0x00000000000000000000000000000000000000000170a7e01e5bdcaa3503061c",
                    "logDecoded": true,
                    "operation": "EVENT",
                    "revert": false,
                    "status": true,
                    "topics": [
                        "0xddf252ad1be2c89b69c2b068fc378daa952ba7f163c4a11628f55a4df523b3ef",
                        "0x000000000000000000000000d4315668aa1d88b4c581ec6fa902e131286dd0ab",
                        "0x000000000000000000000000cd665315a324b27870f008b7918bff98bd6b2361"
                    ]
                },
                "nodeType": 1
            },
            "4": {
                "invocation": {
                    "address": "0xcd665315a324b27870f008b7918bff98bd6b2361",
                    "callData": "0x00000000000000000000000000000000000000000000000000000000000000000000000000000000000000000000000000000000000000002937cc43d41eed36000000000000000000000000d4315668aa1d88b4c581ec6fa902e131286dd0ab00000000000000000000000000000000000000000000000000000000000000800000000000000000000000000000000000000000000000000000000000000000",
                    "decodedMethod": {
                        "callParams": [
                            {
                                "name": "amount0Out",
                                "type": "uint256",
                                "value": "0"
                            },
                            {
                                "name": "amount1Out",
                                "type": "uint256",
                                "value": "2,970,067,070,967,803,190"
                            },
                            {
                                "name": "to",
                                "type": "address",
                                "value": "0xd4315668aa1d88b4c581ec6fa902e131286dd0ab"
                            },
                            {
                                "name": "data",
                                "type": "bytes",
                                "value": "0x"
                            }
                        ],
                        "constructorArguments": "",
                        "name": "swap",
                        "returnParams": [],
                        "signature": "swap(uint256,uint256,address,bytes)"
                    },
                    "errorInfo": "",
                    "fromAddress": "0xd4315668aa1d88b4c581ec6fa902e131286dd0ab",
                    "gasUsed": 48083,
                    "id": 4,
                    "methodDecoded": true,
                    "operation": "CALL",
                    "output": "",
                    "revert": false,
                    "revertMessage": "",
                    "selector": "0x022c0d9f",
                    "status": true,
                    "value": "0"
                },
                "nodeType": 0
            },
            "5": {
                "invocation": {
                    "address": "0xc02aaa39b223fe8d0a0e5c4f27ead9083c756cc2",
                    "callData": "0x000000000000000000000000d4315668aa1d88b4c581ec6fa902e131286dd0ab0000000000000000000000000000000000000000000000002937cc43d41eed36",
                    "decodedMethod": {
                        "callParams": [
                            {
                                "name": "dst",
                                "type": "address",
                                "value": "0xd4315668aa1d88b4c581ec6fa902e131286dd0ab"
                            },
                            {
                                "decimalAvailable": true,
                                "name": "wad",
                                "type": "uint256",
                                "value": "2,970,067,070,967,803,190"
                            }
                        ],
                        "constructorArguments": "",
                        "name": "transfer",
                        "returnParams": [
                            {
                                "name": "",
                                "type": "bool",
                                "value": true
                            }
                        ],
                        "signature": "transfer(address,uint256)"
                    },
                    "errorInfo": "",
                    "fromAddress": "0xcd665315a324b27870f008b7918bff98bd6b2361",
                    "gasUsed": 12862,
                    "id": 5,
                    "methodDecoded": true,
                    "operation": "CALL",
                    "output": "0x0000000000000000000000000000000000000000000000000000000000000001",
                    "revert": false,
                    "revertMessage": "",
                    "selector": "0xa9059cbb",
                    "status": true,
                    "value": "0"
                },
                "nodeType": 0
            },
            "6": {
                "event": {
                    "contract": "0xc02aaa39b223fe8d0a0e5c4f27ead9083c756cc2",
                    "decodedLog": {
                        "name": "Transfer",
                        "params": [
                            {
                                "name": "src",
                                "type": "address",
                                "value": "0xcd665315a324b27870f008b7918bff98bd6b2361"
                            },
                            {
                                "name": "dst",
                                "type": "address",
                                "value": "0xd4315668aa1d88b4c581ec6fa902e131286dd0ab"
                            },
                            {
                                "decimalAvailable": true,
                                "name": "wad",
                                "type": "uint256",
                                "value": "2,970,067,070,967,803,190"
                            }
                        ],
                        "signature": "Transfer(address,address,uint256)"
                    },
                    "id": 6,
                    "logData": "0x0000000000000000000000000000000000000000000000002937cc43d41eed36",
                    "logDecoded": true,
                    "operation": "EVENT",
                    "revert": false,
                    "status": true,
                    "topics": [
                        "0xddf252ad1be2c89b69c2b068fc378daa952ba7f163c4a11628f55a4df523b3ef",
                        "0x000000000000000000000000cd665315a324b27870f008b7918bff98bd6b2361",
                        "0x000000000000000000000000d4315668aa1d88b4c581ec6fa902e131286dd0ab"
                    ]
                },
                "nodeType": 1
            },
            "7": {
                "invocation": {
                    "address": "0xab306326bc72c2335bd08f42cbec383691ef8446",
                    "callData": "0x000000000000000000000000cd665315a324b27870f008b7918bff98bd6b2361",
                    "decodedMethod": {
                        "callParams": [
                            {
                                "name": "account",
                                "type": "address",
                                "value": "0xcd665315a324b27870f008b7918bff98bd6b2361"
                            }
                        ],
                        "constructorArguments": "",
                        "name": "balanceOf",
                        "returnParams": [
                            {
                                "decimalAvailable": true,
                                "name": "",
                                "type": "uint256",
                                "value": "12,641,267,440,260,539,821,822,543,886"
                            }
                        ],
                        "signature": "balanceOf(address)"
                    },
                    "errorInfo": "",
                    "fromAddress": "0xcd665315a324b27870f008b7918bff98bd6b2361",
                    "gasUsed": 864,
                    "id": 7,
                    "methodDecoded": true,
                    "operation": "STATICCALL",
                    "output": "0x000000000000000000000000000000000000000028d89c8115c503984f53880e",
                    "revert": false,
                    "revertMessage": "",
                    "selector": "0x70a08231",
                    "status": true,
                    "value": "0"
                },
                "nodeType": 0
            },
            "8": {
                "invocation": {
                    "address": "0xc02aaa39b223fe8d0a0e5c4f27ead9083c756cc2",
                    "callData": "0x000000000000000000000000cd665315a324b27870f008b7918bff98bd6b2361",
                    "decodedMethod": {
                        "callParams": [
                            {
                                "name": "",
                                "type": "address",
                                "value": "0xcd665315a324b27870f008b7918bff98bd6b2361"
                            }
                        ],
                        "constructorArguments": "",
                        "name": "balanceOf",
                        "returnParams": [
                            {
                                "decimalAvailable": true,
                                "name": "",
                                "type": "uint256",
                                "value": "81,517,946,661,008,083,959"
                            }
                        ],
                        "signature": "balanceOf(address)"
                    },
                    "errorInfo": "",
                    "fromAddress": "0xcd665315a324b27870f008b7918bff98bd6b2361",
                    "gasUsed": 534,
                    "id": 8,
                    "methodDecoded": true,
                    "operation": "STATICCALL",
                    "output": "0x0000000000000000000000000000000000000000000000046b49ec966ca08bf7",
                    "revert": false,
                    "revertMessage": "",
                    "selector": "0x70a08231",
                    "status": true,
                    "value": "0"
                },
                "nodeType": 0
            },
            "9": {
                "event": {
                    "contract": "0xcd665315a324b27870f008b7918bff98bd6b2361",
                    "decodedLog": {
                        "name": "Sync",
                        "params": [
                            {
                                "name": "reserve0",
                                "type": "uint112",
                                "value": "12,641,267,440,260,539,821,822,543,886"
                            },
                            {
                                "name": "reserve1",
                                "type": "uint112",
                                "value": "81,517,946,661,008,083,959"
                            }
                        ],
                        "signature": "Sync(uint112,uint112)"
                    },
                    "id": 9,
                    "logData": "0x000000000000000000000000000000000000000028d89c8115c503984f53880e0000000000000000000000000000000000000000000000046b49ec966ca08bf7",
                    "logDecoded": true,
                    "operation": "EVENT",
                    "revert": false,
                    "status": true,
                    "topics": [
                        "0x1c411e9a96e071241c2f21f7726b17ae89e3cab4c78be50e062b03a9fffbbad1"
                    ]
                },
                "nodeType": 1
            }
        },
        "gasFlame": [
            {
                "children": [
                    {
                        "children": [
                            {
                                "children": [],
                                "depth": 0,
                                "name": "Initial Gas",
                                "value": 21928
                            },
                            {
                                "children": [
                                    {
                                        "children": [],
                                        "depth": 1,
                                        "name": "getReserves",
                                        "value": 2504
                                    },
                                    {
                                        "children": [],
                                        "depth": 1,
                                        "name": "transfer",
                                        "value": 13592
                                    },
                                    {
                                        "children": [
                                            {
                                                "children": [],
                                                "depth": 2,
                                                "name": "transfer",
                                                "value": 12862
                                            },
                                            {
                                                "children": [],
                                                "depth": 2,
                                                "name": "balanceOf",
                                                "value": 864
                                            },
                                            {
                                                "children": [],
                                                "depth": 2,
                                                "name": "balanceOf",
                                                "value": 534
                                            }
                                        ],
                                        "depth": 1,
                                        "name": "swap",
                                        "value": 48083
                                    }
                                ],
                                "depth": 0,
                                "name": "Executed Gas",
                                "value": 83256
                            }
                        ],
                        "depth": -1,
                        "name": "Actual Gas Used",
                        "value": 92784
                    },
                    {
                        "children": [],
                        "depth": -1,
                        "name": "Refunded Gas",
                        "value": 12400
                    }
                ],
                "depth": -2,
                "name": "Total Gas",
                "value": 105184
            }
        ],
        "isConfirmed": true,
        "mainTrace": [
            {
                "children": [
                    {
                        "children": [
                            {
                                "children": [],
                                "depth": 1,
                                "id": 1,
                                "order": 1
                            },
                            {
                                "children": [
                                    {
                                        "children": [],
                                        "depth": 2,
                                        "id": 3,
                                        "order": 3
                                    }
                                ],
                                "depth": 1,
                                "id": 2,
                                "order": 2
                            },
                            {
                                "children": [
                                    {
                                        "children": [
                                            {
                                                "children": [],
                                                "depth": 3,
                                                "id": 6,
                                                "order": 6
                                            }
                                        ],
                                        "depth": 2,
                                        "id": 5,
                                        "order": 5
                                    },
                                    {
                                        "children": [],
                                        "depth": 2,
                                        "id": 7,
                                        "order": 7
                                    },
                                    {
                                        "children": [],
                                        "depth": 2,
                                        "id": 8,
                                        "order": 8
                                    },
                                    {
                                        "children": [],
                                        "depth": 2,
                                        "id": 9,
                                        "order": 9
                                    },
                                    {
                                        "children": [],
                                        "depth": 2,
                                        "id": 10,
                                        "order": 10
                                    }
                                ],
                                "depth": 1,
                                "id": 4,
                                "order": 4
                            }
                        ],
                        "depth": 0,
                        "id": 0,
                        "order": 0
                    }
                ],
                "depth": -1,
                "id": -1,
                "order": -1
            }
        ],
        "mainTraceNodeCount": 11,
        "parentIdMap": {
            "0": -1,
            "1": 0,
            "10": 4,
            "2": 0,
            "3": 2,
            "4": 0,
            "5": 4,
            "6": 5,
            "7": 4,
            "8": 4,
            "9": 4
        },
        "tidyTrace": [
            {
                "children": [
                    {
                        "children": [
                            {
                                "children": [
                                    {
                                        "children": [],
                                        "depth": 2,
                                        "id": 3,
                                        "order": 3
                                    }
                                ],
                                "depth": 1,
                                "id": 2,
                                "order": 2
                            },
                            {
                                "children": [
                                    {
                                        "children": [
                                            {
                                                "children": [],
                                                "depth": 3,
                                                "id": 6,
                                                "order": 6
                                            }
                                        ],
                                        "depth": 2,
                                        "id": 5,
                                        "order": 5
                                    },
                                    {
                                        "children": [],
                                        "depth": 2,
                                        "id": 9,
                                        "order": 9
                                    },
                                    {
                                        "children": [],
                                        "depth": 2,
                                        "id": 10,
                                        "order": 10
                                    }
                                ],
                                "depth": 1,
                                "id": 4,
                                "order": 4
                            }
                        ],
                        "depth": 0,
                        "id": 0,
                        "order": 0
                    }
                ],
                "depth": -1,
                "id": -1,
                "order": -1
            }
        ],
        "tidyTraceNodeCount": 8
    },
    "state_change": {
        "stateChanges": [
            {
                "address": "0xab306326bc72c2335bd08f42cbec383691ef8446",
                "erc": "ERC-20",
                "slots": [
                    {
                        "current": "0x0000000000000000000000000000000000000000000000000000000000000000",
                        "key": "0x1f762df30f34cdd85ebecc27b04394369c27dd870ff221ba61a3f989a05bc571",
                        "prev": "0x00000000000000000000000000000000000000000170a7e01e5bdcaa3503061c"
                    },
                    {
                        "current": "0x000000000000000000000000000000000000000028d89c8115c503984f53880e",
                        "key": "0xf7cfa6eda3b69c18f4f521f34cb77369a9d3449b2eaa8fb407f68cefcecf8090",
                        "prev": "0x00000000000000000000000000000000000000002767f4a0f76926ee1a5081f2"
                    }
                ],
                "storageVariables": [
                    {
                        "name": "_balances",
                        "type": "mapping(address => uint256)",
                        "value": {
                            "pairs": [
                                {
                                    "key": "0xcd665315a324b27870f008b7918bff98bd6b2361",
                                    "value": {
                                        "current": "12641267440260539821822543886",
                                        "prev": "12195589969181459876229972466",
                                        "typeTag": 1
                                    }
                                },
                                {
                                    "key": "0xd4315668aa1d88b4c581ec6fa902e131286dd0ab",
                                    "value": {
                                        "current": "0",
                                        "prev": "445677471079079945592571420",
                                        "typeTag": 1
                                    }
                                }
                            ],
                            "typeTag": 4
                        }
                    }
                ]
            },
            {
                "address": "0xc02aaa39b223fe8d0a0e5c4f27ead9083c756cc2",
                "erc": "ERC-20",
                "slots": [
                    {
                        "current": "0x000000000000000000000000000000000000000000000000572dc2f7fb9ea26b",
                        "key": "0x004663a9afff6f256fca337601aa7f689bceee457d72b5f0ccabc41203dceb45",
                        "prev": "0x0000000000000000000000000000000000000000000000002df5f6b4277fb535"
                    },
                    {
                        "current": "0x0000000000000000000000000000000000000000000000046b49ec966ca08bf7",
                        "key": "0x3d2c470bf4d836e6b79d57d9563efeb666afbd783fc4c0cdc5114252c567dfc2",
                        "prev": "0x0000000000000000000000000000000000000000000000049481b8da40bf792d"
                    }
                ],
                "storageVariables": [
                    {
                        "name": "balanceOf",
                        "type": "mapping(address => uint256)",
                        "value": {
                            "pairs": [
                                {
                                    "key": "0xcd665315a324b27870f008b7918bff98bd6b2361",
                                    "value": {
                                        "current": "81517946661008083959",
                                        "prev": "84488013731975887149",
                                        "typeTag": 1
                                    }
                                },
                                {
                                    "key": "0xd4315668aa1d88b4c581ec6fa902e131286dd0ab",
                                    "value": {
                                        "current": "6281891425585898091",
                                        "prev": "3311824354618094901",
                                        "typeTag": 1
                                    }
                                }
                            ],
                            "typeTag": 4
                        }
                    }
                ]
            },
            {
                "address": "0xcd665315a324b27870f008b7918bff98bd6b2361",
                "erc": "ERC-20",
                "slots": [
                    {
                        "current": "0x645c30cb0000000000046b49ec966ca08bf7000028d89c8115c503984f53880e",
                        "key": "0x0000000000000000000000000000000000000000000000000000000000000008",
                        "prev": "0x645c2fdb0000000000049481b8da40bf792d00002767f4a0f76926ee1a5081f2"
                    },
                    {
                        "current": "0x00000000000000000000000000000000000001abea07733f2dead6c8fb314848",
                        "key": "0x0000000000000000000000000000000000000000000000000000000000000009",
                        "prev": "0x00000000000000000000000000000000000001abce2260e9863bd7c08c759358"
                    },
                    {
                        "current": "0x000000000000000000000002c93a45d3a02dc55f222a703464803494a790131c",
                        "key": "0x000000000000000000000000000000000000000000000000000000000000000a",
                        "prev": "0x000000000000000000000002c93234ed2ea5c28b203d978ddb2f8bff56e61f9c"
                    }
                ],
                "storageVariables": [
                    {
                        "name": "reserve0",
                        "type": "uint112",
                        "value": {
                            "current": "12641267440260539821822543886",
                            "prev": "12195589969181459876229972466",
                            "typeTag": 1
                        }
                    },
                    {
                        "name": "reserve1",
                        "type": "uint112",
                        "value": {
                            "current": "81517946661008083959",
                            "prev": "84488013731975887149",
                            "typeTag": 1
                        }
                    },
                    {
                        "name": "blockTimestampLast",
                        "type": "uint32",
                        "value": {
                            "current": "1683763403",
                            "prev": "1683763163",
                            "typeTag": 1
                        }
                    },
                    {
                        "name": "price0CumulativeLast",
                        "type": "uint256",
                        "value": {
                            "current": "33902853892607403300616942995528",
                            "prev": "33894220866746882420499476222808",
                            "typeTag": 1
                        }
                    },
                    {
                        "name": "price1CumulativeLast",
                        "type": "uint256",
                        "value": {
                            "current": "4071809945579135204551636824582828333771592307484",
                            "prev": "4071630067405118686328469891148639826638291738524",
                            "typeTag": 1
                        }
                    }
                ]
            },
            {
                "address": "0xd4315668aa1d88b4c581ec6fa902e131286dd0ab",
                "erc": "",
                "slots": [
                    {
                        "current": "0x0000000000000000000000000000000000000000000000000000000000000000",
                        "key": "0xac2441b9071ca27b8e7c126cf87539419ffef9e4d1381c5e45ac9f4703213a3b",
                        "prev": "0x00000000000000000000000000000000000000000000000029a2241af62c0000"
                    }
                ],
                "storageVariables": []
            }
        ]
    }
}