{
    "balance_change": {
        "balanceChanges": []
    },
    "profile": {
        "basic_info": {
            "baseFee": "67.549325593",
            "blockNumber": 14209999,
            "callData": "0x6a7612020000000000000000000000004570bd4f3575b8ab21dc10cf313e8c22b437c6170000000000000000000000000000000000000000000000000000000000000000000000000000000000000000000000000000000000000000000000000000014000000000000000000000000000000000000000000000000000000000000000000000000000000000000000000000000000000000000000000000000000000000000000000000000000000000000000000000000000000000000000000000000000000000000000000000000000000000000000000000000000000000000000000000000000000000000000000000000000000000000000000000000000000000000000000000000000000000000000000000000000000000000000000000000000000000000000000000000000000000000000000000000000000000000001c000000000000000000000000000000000000000000000000000000000000000440d582f13000000000000000000000000ac3203d77823496e421aa7e88cdc2f6c387d618200000000000000000000000000000000000000000000000000000000000000010000000000000000000000000000000000000000000000000000000000000000000000000000000000000000000000000000000000000000000000410000000000000000000000005a850815a33b5d8e7da589d3d3c9b45e3272169e00000000000000000000000000000000000000000000000000000000000000000100000000000000000000000000000000000000000000000000000000000000",
            "debugEnable": true,
            "errorInfo": "",
            "eventCount": 2,
            "feeRecipient": "0x00192fb10df37c9fb26829eb2cc623cd1bf599e8",
            "formatValue": "0",
            "gasLimit": 83130,
            "gasPrice": "70.227854029",
            "gasUsed": 81292,
            "intTxnCount": 3,
            "internalRevert": false,
            "internalRevertMessage": "",
            "isContractCreation": false,
            "isFlashloan": false,
            "maxFee": "70.227854029",
            "nonce": 6,
            "overwritedBlockNumber": -1,
            "priorityFee": "2.75",
            "receiver": "0x4570bd4f3575b8ab21dc10cf313e8c22b437c617",
            "revertMessage": "",
            "sender": "0x5a850815a33b5d8e7da589d3d3c9b45e3272169e",
            "simulationEnable": true,
            "sourceTxnHash": "0xcb6134f938fb837a9cd16a58a959f65604e8e99bd408a4a148f9cb39413416f8",
            "status": true,
            "timestamp": "2022-02-15T09:55:19Z",
            "transactionFee": "0.005708962709725468",
            "txnHash": "0xcb6134f938fb837a9cd16a58a959f65604e8e99bd408a4a148f9cb39413416f8",
            "txnIndex": 15,
            "type": 2,
            "value": "0"
        },
        "fund_flow": [],
        "token_infos": [
            {
                "address": "0xc02aaa39b223fe8d0a0e5c4f27ead9083c756cc2",
                "decimals": 18
            },
            {
                "address": "0xeeeeeeeeeeeeeeeeeeeeeeeeeeeeeeeeeeeeeeee",
                "decimals": 18
            }
        ]
    },
    "address_label": {
        "labels": [
            {
                "address": "0xd9db270c1b5e3bd161e8c8503c55ceabee709552",
                "label": "Safe: Singleton 1.3.0"
            },
            {
                "address": "0x0000000000000000000000000000000000000000",
                "label": "Null Address"
            },
            {
                "address": "0x0000000000000000000000000000000000000001",
                "label": "Precompiled"
            },
            {
                "address": "0x0000000000000000000000000000000000000002",
                "label": "Precompiled"
            },
            {
                "address": "0x0000000000000000000000000000000000000003",
                "label": "Precompiled"
            },
            {
                "address": "0x0000000000000000000000000000000000000004",
                "label": "Precompiled"
            },
            {
                "address": "0xeeeeeeeeeeeeeeeeeeeeeeeeeeeeeeeeeeeeeeee",
                "label": "Ether"
            },
            {
                "address": "0x4570bd4f3575b8ab21dc10cf313e8c22b437c617",
                "label": "GnosisSafeProxy_4570_c617"
            }
        ]
    },
    "trace": {
        "accountLabels": null,
        "dataMap": {
            "-1": {
                "invocation": {
                    "address": "0x5a850815a33b5d8e7da589d3d3c9b45e3272169e",
                    "callData": "",
                    "decodedMethod": null,
                    "errorInfo": "",
                    "fromAddress": "",
                    "gasUsed": 0,
                    "id": -1,
                    "methodDecoded": false,
                    "operation": "",
                    "output": "",
                    "revert": false,
                    "revertMessage": "",
                    "selector": "",
                    "status": false,
                    "value": ""
                },
                "nodeType": 0
            },
            "0": {
                "invocation": {
                    "address": "0x4570bd4f3575b8ab21dc10cf313e8c22b437c617",
                    "callData": "0x0000000000000000000000004570bd4f3575b8ab21dc10cf313e8c22b437c6170000000000000000000000000000000000000000000000000000000000000000000000000000000000000000000000000000000000000000000000000000014000000000000000000000000000000000000000000000000000000000000000000000000000000000000000000000000000000000000000000000000000000000000000000000000000000000000000000000000000000000000000000000000000000000000000000000000000000000000000000000000000000000000000000000000000000000000000000000000000000000000000000000000000000000000000000000000000000000000000000000000000000000000000000000000000000000000000000000000000000000000000000000000000000000000001c000000000000000000000000000000000000000000000000000000000000000440d582f13000000000000000000000000ac3203d77823496e421aa7e88cdc2f6c387d618200000000000000000000000000000000000000000000000000000000000000010000000000000000000000000000000000000000000000000000000000000000000000000000000000000000000000000000000000000000000000410000000000000000000000005a850815a33b5d8e7da589d3d3c9b45e3272169e00000000000000000000000000000000000000000000000000000000000000000100000000000000000000000000000000000000000000000000000000000000",
                    "decodedMethod": {
                        "callParams": [
                            {
                                "name": "to",
                                "type": "address",
                                "value": "0x4570bd4f3575b8ab21dc10cf313e8c22b437c617"
                            },
                            {
                                "name": "value",
                                "type": "uint256",
                                "value": "0"
                            },
                            {
                                "name": "data",
                                "type": "bytes",
                                "value": "0x0d582f13000000000000000000000000ac3203d77823496e421aa7e88cdc2f6c387d61820000000000000000000000000000000000000000000000000000000000000001"
                            },
                            {
                                "name": "operation",
                                "type": "uint8",
                                "value": "0"
                            },
                            {
                                "name": "safeTxGas",
                                "type": "uint256",
                                "value": "0"
                            },
                            {
                                "name": "baseGas",
                                "type": "uint256",
                                "value": "0"
                            },
                            {
                                "name": "gasPrice",
                                "type": "uint256",
                                "value": "0"
                            },
                            {
                                "name": "gasToken",
                                "type": "address",
                                "value": "0x0000000000000000000000000000000000000000"
                            },
                            {
                                "name": "refundReceiver",
                                "type": "address",
                                "value": "0x0000000000000000000000000000000000000000"
                            },
                            {
                                "name": "signatures",
                                "type": "bytes",
                                "value": "0x0000000000000000000000005a850815a33b5d8e7da589d3d3c9b45e3272169e000000000000000000000000000000000000000000000000000000000000000001"
                            }
                        ],
                        "constructorArguments": "",
                        "name": "execTransaction",
                        "returnParams": [
                            {
                                "name": "success",
                                "type": "bool",
                                "value": true
                            }
                        ],
                        "signature": "execTransaction(address,uint256,bytes,uint8,uint256,uint256,uint256,address,address,bytes)"
                    },
                    "errorInfo": "",
                    "fromAddress": "0x5a850815a33b5d8e7da589d3d3c9b45e3272169e",
                    "gasUsed": 81292,
                    "id": 0,
                    "methodDecoded": true,
                    "operation": "CALL",
                    "output": "0x0000000000000000000000000000000000000000000000000000000000000001",
                    "revert": false,
                    "revertMessage": "",
                    "selector": "0x6a761202",
                    "status": true,
                    "value": "0"
                },
                "nodeType": 0
            },
            "1": {
                "invocation": {
                    "address": "0xd9db270c1b5e3bd161e8c8503c55ceabee709552",
                    "callData": "0x0000000000000000000000004570bd4f3575b8ab21dc10cf313e8c22b437c6170000000000000000000000000000000000000000000000000000000000000000000000000000000000000000000000000000000000000000000000000000014000000000000000000000000000000000000000000000000000000000000000000000000000000000000000000000000000000000000000000000000000000000000000000000000000000000000000000000000000000000000000000000000000000000000000000000000000000000000000000000000000000000000000000000000000000000000000000000000000000000000000000000000000000000000000000000000000000000000000000000000000000000000000000000000000000000000000000000000000000000000000000000000000000000000001c000000000000000000000000000000000000000000000000000000000000000440d582f13000000000000000000000000ac3203d77823496e421aa7e88cdc2f6c387d618200000000000000000000000000000000000000000000000000000000000000010000000000000000000000000000000000000000000000000000000000000000000000000000000000000000000000000000000000000000000000410000000000000000000000005a850815a33b5d8e7da589d3d3c9b45e3272169e00000000000000000000000000000000000000000000000000000000000000000100000000000000000000000000000000000000000000000000000000000000",
                    "decodedMethod": {
                        "callParams": [
                            {
                                "name": "to",
                                "type": "address",
                                "value": "0x4570bd4f3575b8ab21dc10cf313e8c22b437c617"
                            },
                            {
                                "name": "value",
                                "type": "uint256",
                                "value": "0"
                            },
                            {
                                "name": "data",
                                "type": "bytes",
                                "value": "0x0d582f13000000000000000000000000ac3203d77823496e421aa7e88cdc2f6c387d61820000000000000000000000000000000000000000000000000000000000000001"
                            },
                            {
                                "name": "operation",
                                "type": "uint8",
                                "value": "0"
                            },
                            {
                                "name": "safeTxGas",
                                "type": "uint256",
                                "value": "0"
                            },
                            {
                                "name": "baseGas",
                                "type": "uint256",
                                "value": "0"
                            },
                            {
                                "name": "gasPrice",
                                "type": "uint256",
                                "value": "0"
                            },
                            {
                                "name": "gasToken",
                                "type": "address",
                                "value": "0x0000000000000000000000000000000000000000"
                            },
                            {
                                "name": "refundReceiver",
                                "type": "address",
                                "value": "0x0000000000000000000000000000000000000000"
                            },
                            {
                                "name": "signatures",
                                "type": "bytes",
                                "value": "0x0000000000000000000000005a850815a33b5d8e7da589d3d3c9b45e3272169e000000000000000000000000000000000000000000000000000000000000000001"
                            }
                        ],
                        "constructorArguments": "",
                        "name": "execTransaction",
                        "returnParams": [
                            {
                                "name": "success",
                                "type": "bool",
                                "value": true
                            }
                        ],
                        "signature": "execTransaction(address,uint256,bytes,uint8,uint256,uint256,uint256,address,address,bytes)"
                    },
                    "errorInfo": "",
                    "fromAddress": "0x4570bd4f3575b8ab21dc10cf313e8c22b437c617",
                    "gasUsed": 52127,
                    "id": 1,
                    "methodDecoded": true,
                    "operation": "DELEGATECALL",
                    "output": "0x0000000000000000000000000000000000000000000000000000000000000001",
                    "revert": false,
                    "revertMessage": "",
                    "selector": "0x6a761202",
                    "status": true,
                    "value": "0"
                },
                "nodeType": 0
            },
            "2": {
                "invocation": {
                    "address": "0x4570bd4f3575b8ab21dc10cf313e8c22b437c617",
                    "callData": "0x000000000000000000000000ac3203d77823496e421aa7e88cdc2f6c387d61820000000000000000000000000000000000000000000000000000000000000001",
                    "decodedMethod": {
                        "callParams": [
                            {
                                "name": "owner",
                                "type": "address",
                                "value": "0xac3203d77823496e421aa7e88cdc2f6c387d6182"
                            },
                            {
                                "name": "_threshold",
                                "type": "uint256",
                                "value": "1"
                            }
                        ],
                        "constructorArguments": "",
                        "name": "addOwnerWithThreshold",
                        "returnParams": [],
                        "signature": "addOwnerWithThreshold(address,uint256)"
                    },
                    "errorInfo": "",
                    "fromAddress": "0x4570bd4f3575b8ab21dc10cf313e8c22b437c617",
                    "gasUsed": 34964,
                    "id": 2,
                    "methodDecoded": true,
                    "operation": "CALL",
                    "output": "",
                    "revert": false,
                    "revertMessage": "",
                    "selector": "0x0d582f13",
                    "status": true,
                    "value": "0"
                },
                "nodeType": 0
            },
            "3": {
                "invocation": {
                    "address": "0xd9db270c1b5e3bd161e8c8503c55ceabee709552",
                    "callData": "0x000000000000000000000000ac3203d77823496e421aa7e88cdc2f6c387d61820000000000000000000000000000000000000000000000000000000000000001",
                    "decodedMethod": {
                        "callParams": [
                            {
                                "name": "owner",
                                "type": "address",
                                "value": "0xac3203d77823496e421aa7e88cdc2f6c387d6182"
                            },
                            {
                                "name": "_threshold",
                                "type": "uint256",
                                "value": "1"
                            }
                        ],
                        "constructorArguments": "",
                        "name": "addOwnerWithThreshold",
                        "returnParams": [],
                        "signature": "addOwnerWithThreshold(address,uint256)"
                    },
                    "errorInfo": "",
                    "fromAddress": "0x4570bd4f3575b8ab21dc10cf313e8c22b437c617",
                    "gasUsed": 34630,
                    "id": 3,
                    "methodDecoded": true,
                    "operation": "DELEGATECALL",
                    "output": "",
                    "revert": false,
                    "revertMessage": "",
                    "selector": "0x0d582f13",
                    "status": true,
                    "value": "0"
                },
                "nodeType": 0
            },
            "4": {
                "event": {
                    "contract": "0x4570bd4f3575b8ab21dc10cf313e8c22b437c617",
                    "decodedLog": {
                        "name": "AddedOwner",
                        "params": [
                            {
                                "name": "owner",
                                "type": "address",
                                "value": "0xac3203d77823496e421aa7e88cdc2f6c387d6182"
                            }
                        ],
                        "signature": "AddedOwner(address)"
                    },
                    "id": 4,
                    "logData": "0x000000000000000000000000ac3203d77823496e421aa7e88cdc2f6c387d6182",
                    "logDecoded": true,
                    "operation": "EVENT",
                    "revert": false,
                    "status": true,
                    "topics": [
                        "0x9465fa0c962cc76958e6373a993326400c1c94f8be2fe3a952adfa7f60b2ea26"
                    ]
                },
                "nodeType": 1
            },
            "5": {
                "event": {
                    "contract": "0x4570bd4f3575b8ab21dc10cf313e8c22b437c617",
                    "decodedLog": {
                        "name": "ExecutionSuccess",
                        "params": [
                            {
                                "name": "txHash",
                                "type": "bytes32",
                                "value": "0x86a6a61b1ab4eaa0774d0b255ea16e509d2bb7409aa038c9144d3c11222ae8b5"
                            },
                            {
                                "name": "payment",
                                "type": "uint256",
                                "value": "0"
                            }
                        ],
                        "signature": "ExecutionSuccess(bytes32,uint256)"
                    },
                    "id": 5,
                    "logData": "0x86a6a61b1ab4eaa0774d0b255ea16e509d2bb7409aa038c9144d3c11222ae8b50000000000000000000000000000000000000000000000000000000000000000",
                    "logDecoded": true,
                    "operation": "EVENT",
                    "revert": false,
                    "status": true,
                    "topics": [
                        "0x442e715f626346e8c54381002da614f62bee8d27386535b2521ec8540898556e"
                    ]
                },
                "nodeType": 1
            }
        },
        "gasFlame": [
            {
                "children": [
                    {
                        "children": [
                            {
                                "children": [],
                                "depth": 0,
                                "name": "Initial Gas",
                                "value": 24232
                            },
                            {
                                "children": [
                                    {
                                        "children": [
                                            {
                                                "children": [
                                                    {
                                                        "children": [],
                                                        "depth": 3,
                                                        "name": "addOwnerWithThreshold",
                                                        "value": 34630
                                                    }
                                                ],
                                                "depth": 2,
                                                "name": "addOwnerWithThreshold",
                                                "value": 34964
                                            }
                                        ],
                                        "depth": 1,
                                        "name": "execTransaction",
                                        "value": 52127
                                    }
                                ],
                                "depth": 0,
                                "name": "Executed Gas",
                                "value": 57060
                            }
                        ],
                        "depth": -1,
                        "name": "Actual Gas Used",
                        "value": 81292
                    },
                    {
                        "children": [],
                        "depth": -1,
                        "name": "Refunded Gas",
                        "value": 0
                    }
                ],
                "depth": -2,
                "name": "Total Gas",
                "value": 81292
            }
        ],
        "isConfirmed": true,
        "mainTrace": [
            {
                "children": [
                    {
                        "children": [
                            {
                                "children": [
                                    {
                                        "children": [
                                            {
                                                "children": [
                                                    {
                                                        "children": [],
                                                        "depth": 4,
                                                        "id": 4,
                                                        "order": 4
                                                    }
                                                ],
                                                "depth": 3,
                                                "id": 3,
                                                "order": 3
                                            }
                                        ],
                                        "depth": 2,
                                        "id": 2,
                                        "order": 2
                                    },
                                    {
                                        "children": [],
                                        "depth": 2,
                                        "id": 5,
                                        "order": 5
                                    }
                                ],
                                "depth": 1,
                                "id": 1,
                                "order": 1
                            }
                        ],
                        "depth": 0,
                        "id": 0,
                        "order": 0
                    }
                ],
                "depth": -1,
                "id": -1,
                "order": -1
            }
        ],
        "mainTraceNodeCount": 6,
        "parentIdMap": {
            "0": -1,
            "1": 0,
            "2": 1,
            "3": 2,
            "4": 3,
            "5": 1
        },
        "tidyTrace": [
            {
                "children": [
                    {
                        "children": [
                            {
                                "children": [
                                    {
                                        "children": [
                                            {
                                                "children": [
                                                    {
                                                        "children": [],
                                                        "depth": 4,
                                                        "id": 4,
                                                        "order": 4
                                                    }
                                                ],
                                                "depth": 3,
                                                "id": 3,
                                                "order": 3
                                            }
                                        ],
                                        "depth": 2,
                                        "id": 2,
                                        "order": 2
                                    },
                                    {
                                        "children": [],
                                        "depth": 2,
                                        "id": 5,
                                        "order": 5
                                    }
                                ],
                                "depth": 1,
                                "id": 1,
                                "order": 1
                            }
                        ],
                        "depth": 0,
                        "id": 0,
                        "order": 0
                    }
                ],
                "depth": -1,
                "id": -1,
                "order": -1
            }
        ],
        "tidyTraceNodeCount": 6
    },
    "state_change": {
        "stateChanges": [
            {
                "address": "0x4570bd4f3575b8ab21dc10cf313e8c22b437c617",
                "erc": "",
                "slots": [
                    {
                        "current": "0x0000000000000000000000000000000000000000000000000000000000000004",
                        "key": "0x0000000000000000000000000000000000000000000000000000000000000003",
                        "prev": "0x0000000000000000000000000000000000000000000000000000000000000003"
                    },
                    {
                        "current": "0x000000000000000000000000afb96afae3f780565406e42ac4a20165ecf99883",
                        "key": "0x51ff5110c9d7def8bcbad2095174c6659f54ffe7574ea2991d66a9e3c0f85bbb",
                        "prev": "0x0000000000000000000000000000000000000000000000000000000000000000"
                    },
                    {
                        "current": "0x0000000000000000000000000000000000000000000000000000000000000003",
                        "key": "0x0000000000000000000000000000000000000000000000000000000000000005",
                        "prev": "0x0000000000000000000000000000000000000000000000000000000000000002"
                    },
                    {
                        "current": "0x000000000000000000000000ac3203d77823496e421aa7e88cdc2f6c387d6182",
                        "key": "0xe90b7bceb6e7df5418fb78d8ee546e97c83a08bbccc01a0644d599ccd2a7c2e0",
                        "prev": "0x000000000000000000000000afb96afae3f780565406e42ac4a20165ecf99883"
                    }
                ],
                "storageVariables": [
                    {
                        "name": "ownerCount",
                        "type": "uint256",
                        "value": {
                            "current": "4",
                            "prev": "3",
                            "typeTag": 1
                        }
                    },
                    {
                        "name": "owners",
                        "type": "mapping(address => address)",
                        "value": {
                            "pairs": [
                                {
                                    "key": "0x0000000000000000000000000000000000000001",
                                    "value": {
                                        "current": "0xac3203d77823496e421aa7e88cdc2f6c387d6182",
                                        "prev": "0xafb96afae3f780565406e42ac4a20165ecf99883",
                                        "typeTag": 1
                                    }
                                },
                                {
                                    "key": "0xac3203d77823496e421aa7e88cdc2f6c387d6182",
                                    "value": {
                                        "current": "0xafb96afae3f780565406e42ac4a20165ecf99883",
                                        "prev": "0x0000000000000000000000000000000000000000",
                                        "typeTag": 1
                                    }
                                }
                            ],
                            "typeTag": 4
                        }
                    },
                    {
                        "name": "nonce",
                        "type": "uint256",
                        "value": {
                            "current": "3",
                            "prev": "2",
                            "typeTag": 1
                        }
                    }
                ]
            }
        ]
    }
}