{
    "balance_change": {
        "balanceChanges": [
            {
                "account": "0x5b97fedfc8d593782ab59be2483990f0dd15e52a",
                "assets": [
                    {
                        "address": "0xdac17f958d2ee523a2206206994597c13d831ec7",
                        "amount": "2,050,714.974",
                        "iconUrl": "https://assets.blocksec.com/icon/fcea71f3193ce895be44bfdf941f7e4c9381dd587f273c2d1a27f1263d84e4ea.png",
                        "isERC1155": false,
                        "isERC721": false,
                        "sign": true,
                        "value": ""
                    }
                ]
            },
            {
                "account": "0x477e9882977697768aa9237e140e67258fd19e49",
                "assets": [
                    {
                        "address": "0xdac17f958d2ee523a2206206994597c13d831ec7",
                        "amount": "2,050,714.974",
                        "iconUrl": "https://assets.blocksec.com/icon/fcea71f3193ce895be44bfdf941f7e4c9381dd587f273c2d1a27f1263d84e4ea.png",
                        "isERC1155": false,
                        "isERC721": false,
                        "sign": false,
                        "value": ""
                    }
                ]
            }
        ]
    },
    "profile": {
        "basic_info": {
            "baseFee": "",
            "blockNumber": 11621794,
            "callData": "0x2da03409000000000000000000000000477e9882977697768aa9237e140e67258fd19e49000000000000000000000000dac17f958d2ee523a2206206994597c13d831ec7",
            "debugEnable": true,
            "errorInfo": "",
            "eventCount": 2,
            "feeRecipient": "0xea674fdde714fd979de3edf0f56aa9716b898ec8",
            "formatValue": "0",
            "gasLimit": 500000,
            "gasPrice": "161.2",
            "gasUsed": 46262,
            "intTxnCount": 3,
            "internalRevert": false,
            "internalRevertMessage": "",
            "isContractCreation": false,
            "isFlashloan": false,
            "maxFee": "",
            "nonce": 7634,
            "overwritedBlockNumber": -1,
            "priorityFee": "",
            "receiver": "0x5b97fedfc8d593782ab59be2483990f0dd15e52a",
            "revertMessage": "",
            "sender": "0xc83ac2e9854bdc0f40f11b01df1421f3b877401b",
            "simulationEnable": true,
            "sourceTxnHash": "0xcbdbf1101f0164e6bc02783dc333acf6c0122064582949820faedf1999f59af8",
            "status": true,
            "timestamp": "2021-01-09T17:02:34Z",
            "transactionFee": "0.0074574344",
            "txnHash": "0xcbdbf1101f0164e6bc02783dc333acf6c0122064582949820faedf1999f59af8",
            "txnIndex": 44,
            "type": 0,
            "value": "0"
        },
        "fund_flow": [
            {
                "amount": "2,050,714.974",
                "from": "0x477e9882977697768aa9237e140e67258fd19e49",
                "id": 1,
                "isERC1155": false,
                "isERC721": false,
                "isReverted": false,
                "order": 1,
                "to": "0x5b97fedfc8d593782ab59be2483990f0dd15e52a",
                "token": "0xdac17f958d2ee523a2206206994597c13d831ec7"
            }
        ],
        "token_infos": [
            {
                "address": "0xeeeeeeeeeeeeeeeeeeeeeeeeeeeeeeeeeeeeeeee",
                "decimals": 18
            },
            {
                "address": "0xc02aaa39b223fe8d0a0e5c4f27ead9083c756cc2",
                "decimals": 18
            },
            {
                "address": "0xdac17f958d2ee523a2206206994597c13d831ec7",
                "decimals": 6
            }
        ]
    },
    "address_label": {
        "labels": [
            {
                "address": "0xeeeeeeeeeeeeeeeeeeeeeeeeeeeeeeeeeeeeeeee",
                "label": "Ether"
            },
            {
                "address": "0xdac17f958d2ee523a2206206994597c13d831ec7",
                "label": "Tether: USDT Stablecoin"
            },
            {
                "address": "0x0000000000000000000000000000000000000001",
                "label": "Precompiled"
            },
            {
                "address": "0x0000000000000000000000000000000000000002",
                "label": "Precompiled"
            },
            {
                "address": "0x0000000000000000000000000000000000000003",
                "label": "Precompiled"
            },
            {
                "address": "0x0000000000000000000000000000000000000004",
                "label": "Precompiled"
            }
        ]
    },
    "trace": {
        "accountLabels": null,
        "dataMap": {
            "-1": {
                "invocation": {
                    "address": "0xc83ac2e9854bdc0f40f11b01df1421f3b877401b",
                    "callData": "",
                    "decodedMethod": null,
                    "errorInfo": "",
                    "fromAddress": "",
                    "gasUsed": 0,
                    "id": -1,
                    "methodDecoded": false,
                    "operation": "",
                    "output": "",
                    "revert": false,
                    "revertMessage": "",
                    "selector": "",
                    "status": false,
                    "value": ""
                },
                "nodeType": 0
            },
            "0": {
                "invocation": {
                    "address": "0x5b97fedfc8d593782ab59be2483990f0dd15e52a",
                    "callData": "0x000000000000000000000000477e9882977697768aa9237e140e67258fd19e49000000000000000000000000dac17f958d2ee523a2206206994597c13d831ec7",
                    "decodedMethod": {
                        "callParams": [
                            {
                                "name": "forwarderAddress",
                                "type": "address",
                                "value": "0x477e9882977697768aa9237e140e67258fd19e49"
                            },
                            {
                                "name": "tokenContractAddress",
                                "type": "address",
                                "value": "0xdac17f958d2ee523a2206206994597c13d831ec7"
                            }
                        ],
                        "constructorArguments": "",
                        "name": "flushForwarderTokens",
                        "returnParams": [],
                        "signature": "flushForwarderTokens(address,address)"
                    },
                    "errorInfo": "",
                    "fromAddress": "0xc83ac2e9854bdc0f40f11b01df1421f3b877401b",
                    "gasUsed": 46262,
                    "id": 0,
                    "methodDecoded": true,
                    "operation": "CALL",
                    "output": "",
                    "revert": false,
                    "revertMessage": "",
                    "selector": "0x2da03409",
                    "status": true,
                    "value": "0"
                },
                "nodeType": 0
            },
            "1": {
                "invocation": {
                    "address": "0x477e9882977697768aa9237e140e67258fd19e49",
                    "callData": "0x000000000000000000000000dac17f958d2ee523a2206206994597c13d831ec7",
                    "decodedMethod": {
                        "callParams": [
                            {
                                "name": "tokenContractAddress",
                                "type": "address",
                                "value": "0xdac17f958d2ee523a2206206994597c13d831ec7"
                            }
                        ],
                        "constructorArguments": "",
                        "name": "flushTokens",
                        "returnParams": [],
                        "signature": "flushTokens(address)"
                    },
                    "errorInfo": "",
                    "fromAddress": "0x5b97fedfc8d593782ab59be2483990f0dd15e52a",
                    "gasUsed": 29158,
                    "id": 1,
                    "methodDecoded": true,
                    "operation": "CALL",
                    "output": "",
                    "revert": false,
                    "revertMessage": "",
                    "selector": "0x3ef13367",
                    "status": true,
                    "value": "0"
                },
                "nodeType": 0
            },
            "2": {
                "invocation": {
                    "address": "0xdac17f958d2ee523a2206206994597c13d831ec7",
                    "callData": "0x000000000000000000000000477e9882977697768aa9237e140e67258fd19e49",
                    "decodedMethod": {
                        "callParams": [
                            {
                                "name": "who",
                                "type": "address",
                                "value": "0x477e9882977697768aa9237e140e67258fd19e49"
                            }
                        ],
                        "constructorArguments": "",
                        "name": "balanceOf",
                        "returnParams": [
                            {
                                "decimalAvailable": true,
                                "name": "",
                                "type": "uint256",
                                "value": "2,050,714,974,000"
                            }
                        ],
                        "signature": "balanceOf(address)"
                    },
                    "errorInfo": "",
                    "fromAddress": "0x477e9882977697768aa9237e140e67258fd19e49",
                    "gasUsed": 2431,
                    "id": 2,
                    "methodDecoded": true,
                    "operation": "CALL",
                    "output": "0x000000000000000000000000000000000000000000000000000001dd78233730",
                    "revert": false,
                    "revertMessage": "",
                    "selector": "0x70a08231",
                    "status": true,
                    "value": "0"
                },
                "nodeType": 0
            },
            "3": {
                "invocation": {
                    "address": "0xdac17f958d2ee523a2206206994597c13d831ec7",
                    "callData": "0x0000000000000000000000005b97fedfc8d593782ab59be2483990f0dd15e52a000000000000000000000000000000000000000000000000000001dd78233730",
                    "decodedMethod": {
                        "callParams": [
                            {
                                "name": "_to",
                                "type": "address",
                                "value": "0x5b97fedfc8d593782ab59be2483990f0dd15e52a"
                            },
                            {
                                "decimalAvailable": true,
                                "name": "_value",
                                "type": "uint256",
                                "value": "2,050,714,974,000"
                            }
                        ],
                        "constructorArguments": "",
                        "name": "transfer",
                        "returnParams": [],
                        "signature": "transfer(address,uint256)"
                    },
                    "errorInfo": "",
                    "fromAddress": "0x477e9882977697768aa9237e140e67258fd19e49",
                    "gasUsed": 19601,
                    "id": 3,
                    "methodDecoded": true,
                    "operation": "CALL",
                    "output": "",
                    "revert": false,
                    "revertMessage": "",
                    "selector": "0xa9059cbb",
                    "status": true,
                    "value": "0"
                },
                "nodeType": 0
            },
            "4": {
                "event": {
                    "contract": "0xdac17f958d2ee523a2206206994597c13d831ec7",
                    "decodedLog": {
                        "name": "Transfer",
                        "params": [
                            {
                                "name": "from",
                                "type": "address",
                                "value": "0x477e9882977697768aa9237e140e67258fd19e49"
                            },
                            {
                                "name": "to",
                                "type": "address",
                                "value": "0x5b97fedfc8d593782ab59be2483990f0dd15e52a"
                            },
                            {
                                "decimalAvailable": true,
                                "name": "value",
                                "type": "uint256",
                                "value": "2,050,714,974,000"
                            }
                        ],
                        "signature": "Transfer(address,address,uint256)"
                    },
                    "id": 4,
                    "logData": "0x000000000000000000000000000000000000000000000000000001dd78233730",
                    "logDecoded": true,
                    "operation": "EVENT",
                    "revert": false,
                    "status": true,
                    "topics": [
                        "0xddf252ad1be2c89b69c2b068fc378daa952ba7f163c4a11628f55a4df523b3ef",
                        "0x000000000000000000000000477e9882977697768aa9237e140e67258fd19e49",
                        "0x0000000000000000000000005b97fedfc8d593782ab59be2483990f0dd15e52a"
                    ]
                },
                "nodeType": 1
            },
            "5": {
                "event": {
                    "contract": "0x477e9882977697768aa9237e140e67258fd19e49",
                    "decodedLog": {
                        "name": "TokensFlushed",
                        "params": [
                            {
                                "name": "tokenContractAddress",
                                "type": "address",
                                "value": "0xdac17f958d2ee523a2206206994597c13d831ec7"
                            },
                            {
                                "name": "value",
                                "type": "uint256",
                                "value": "2,050,714,974,000"
                            }
                        ],
                        "signature": "TokensFlushed(address,uint256)"
                    },
                    "id": 5,
                    "logData": "0x000000000000000000000000dac17f958d2ee523a2206206994597c13d831ec7000000000000000000000000000000000000000000000000000001dd78233730",
                    "logDecoded": true,
                    "operation": "EVENT",
                    "revert": false,
                    "status": true,
                    "topics": [
                        "0x9401e4e79c19cbe2bd774cb70a94ba660e6718be1bac1298ab3b07f454a60821"
                    ]
                },
                "nodeType": 1
            }
        },
        "gasFlame": [
            {
                "children": [
                    {
                        "children": [
                            {
                                "children": [],
                                "depth": 0,
                                "name": "Initial Gas",
                                "value": 21800
                            },
                            {
                                "children": [
                                    {
                                        "children": [
                                            {
                                                "children": [],
                                                "depth": 2,
                                                "name": "balanceOf",
                                                "value": 2431
                                            },
                                            {
                                                "children": [],
                                                "depth": 2,
                                                "name": "transfer",
                                                "value": 19601
                                            }
                                        ],
                                        "depth": 1,
                                        "name": "flushTokens",
                                        "value": 29158
                                    }
                                ],
                                "depth": 0,
                                "name": "Executed Gas",
                                "value": 39462
                            }
                        ],
                        "depth": -1,
                        "name": "Actual Gas Used",
                        "value": 46262
                    },
                    {
                        "children": [],
                        "depth": -1,
                        "name": "Refunded Gas",
                        "value": 15000
                    }
                ],
                "depth": -2,
                "name": "Total Gas",
                "value": 61262
            }
        ],
        "isConfirmed": true,
        "mainTrace": [
            {
                "children": [
                    {
                        "children": [
                            {
                                "children": [
                                    {
                                        "children": [],
                                        "depth": 2,
                                        "id": 2,
                                        "order": 2
                                    },
                                    {
                                        "children": [
                                            {
                                                "children": [],
                                                "depth": 3,
                                                "id": 4,
                                                "order": 4
                                            }
                                        ],
                                        "depth": 2,
                                        "id": 3,
                                        "order": 3
                                    },
                                    {
                                        "children": [],
                                        "depth": 2,
                                        "id": 5,
                                        "order": 5
                                    }
                                ],
                                "depth": 1,
                                "id": 1,
                                "order": 1
                            }
                        ],
                        "depth": 0,
                        "id": 0,
                        "order": 0
                    }
                ],
                "depth": -1,
                "id": -1,
                "order": -1
            }
        ],
        "mainTraceNodeCount": 6,
        "parentIdMap": {
            "0": -1,
            "1": 0,
            "2": 1,
            "3": 1,
            "4": 3,
            "5": 1
        },
        "tidyTrace": [
            {
                "children": [
                    {
                        "children": [
                            {
                                "children": [
                                    {
                                        "children": [],
                                        "depth": 2,
                                        "id": 2,
                                        "order": 2
                                    },
                                    {
                                        "children": [
                                            {
                                                "children": [],
                                                "depth": 3,
                                                "id": 4,
                                                "order": 4
                                            }
                                        ],
                                        "depth": 2,
                                        "id": 3,
                                        "order": 3
                                    },
                                    {
                                        "children": [],
                                        "depth": 2,
                                        "id": 5,
                                        "order": 5
                                    }
                                ],
                                "depth": 1,
                                "id": 1,
                                "order": 1
                            }
                        ],
                        "depth": 0,
                        "id": 0,
                        "order": 0
                    }
                ],
                "depth": -1,
                "id": -1,
                "order": -1
            }
        ],
        "tidyTraceNodeCount": 6
    },
    "state_change": {
        "stateChanges": [
            {
                "address": "0xdac17f958d2ee523a2206206994597c13d831ec7",
                "erc": "ERC-20",
                "slots": [
                    {
                        "current": "0x0000000000000000000000000000000000000000000000000000000000000000",
                        "key": "0xe9adad87cf9f2d0d82e4e01fb49a664511c5dd16bdfdb86e1dccc05de49ed038",
                        "prev": "0x000000000000000000000000000000000000000000000000000001dd78233730"
                    },
                    {
                        "current": "0x000000000000000000000000000000000000000000000000000001f26a6909ba",
                        "key": "0x38c2761fbbbee3e43e7820ba4511e7e2863dc69db11721c33c84144c53f818bf",
                        "prev": "0x00000000000000000000000000000000000000000000000000000014f245d28a"
                    }
                ],
                "storageVariables": [
                    {
                        "name": "balances",
                        "type": "mapping(address => uint256)",
                        "value": {
                            "pairs": [
                                {
                                    "key": "0x477e9882977697768aa9237e140e67258fd19e49",
                                    "value": {
                                        "current": "0",
                                        "prev": "2050714974000",
                                        "typeTag": 1
                                    }
                                },
                                {
                                    "key": "0x5b97fedfc8d593782ab59be2483990f0dd15e52a",
                                    "value": {
                                        "current": "2140678982074",
                                        "prev": "89964008074",
                                        "typeTag": 1
                                    }
                                }
                            ],
                            "typeTag": 4
                        }
                    }
                ]
            }
        ]
    }
}