{
    "balance_change": {
        "balanceChanges": [
            {
                "account": "0xe2b3f5b351992d5ade3cf406e9b93c944d7406b7",
                "assets": [
                    {
                        "address": "0xc71a7ecd96fef6e34a5c296bee9533f1deb0e3c1",
                        "amount": "10",
                        "iconUrl": "",
                        "isERC1155": false,
                        "isERC721": false,
                        "sign": true,
                        "value": ""
                    }
                ]
            },
            {
                "account": "0x5e21cd190d418c9051a0bf6c1ab423e0edd96319",
                "assets": [
                    {
                        "address": "0xc71a7ecd96fef6e34a5c296bee9533f1deb0e3c1",
                        "amount": "40",
                        "iconUrl": "",
                        "isERC1155": false,
                        "isERC721": false,
                        "sign": true,
                        "value": ""
                    }
                ]
            },
            {
                "account": "0xc71a7ecd96fef6e34a5c296bee9533f1deb0e3c1",
                "assets": [
                    {
                        "address": "0xc71a7ecd96fef6e34a5c296bee9533f1deb0e3c1",
                        "amount": "50",
                        "iconUrl": "",
                        "isERC1155": false,
                        "isERC721": false,
                        "sign": false,
                        "value": ""
                    }
                ]
            }
        ]
    },
    "profile": {
        "basic_info": {
            "baseFee": "",
            "blockNumber": 7792488,
            "callData": "0x1801fbe5aa2a4713eb8e897094bff930e8ebd08fc72671ce51be6b5f00000aaf0102a2b7000000000002eee8beab9b68775f043f10912144e72cd9ce4e1dbed65ba94d95",
            "debugEnable": true,
            "errorInfo": "",
            "eventCount": 4,
            "feeRecipient": "0x5a0b54d5dc17e0aadc383d2db43b0a0d3e029c4c",
            "formatValue": "0",
            "gasLimit": 176776,
            "gasPrice": "5",
            "gasUsed": 176776,
            "intTxnCount": 13,
            "internalRevert": false,
            "internalRevertMessage": "",
            "isContractCreation": false,
            "isFlashloan": false,
            "maxFee": "",
            "nonce": 3030,
            "overwritedBlockNumber": -1,
            "priorityFee": "",
            "receiver": "0xa38fcedd23de2191dc27f9a0240ac170be0a14fe",
            "revertMessage": "",
            "sender": "0xe2b3f5b351992d5ade3cf406e9b93c944d7406b7",
            "simulationEnable": true,
            "sourceTxnHash": "0xcb383d15fc98d32f72af9582f438dabdeee88164ca0143755a21a1d102d25f3e",
            "status": true,
            "timestamp": "2019-05-19T19:49:41Z",
            "transactionFee": "0.00088388",
            "txnHash": "0xcb383d15fc98d32f72af9582f438dabdeee88164ca0143755a21a1d102d25f3e",
            "txnIndex": 12,
            "type": 0,
            "value": "0"
        },
        "fund_flow": [
            {
                "amount": "10",
                "from": "0xc71a7ecd96fef6e34a5c296bee9533f1deb0e3c1",
                "id": 1,
                "isERC1155": false,
                "isERC721": false,
                "isReverted": false,
                "order": 1,
                "to": "0xe2b3f5b351992d5ade3cf406e9b93c944d7406b7",
                "token": "0xc71a7ecd96fef6e34a5c296bee9533f1deb0e3c1"
            },
            {
                "amount": "40",
                "from": "0xc71a7ecd96fef6e34a5c296bee9533f1deb0e3c1",
                "id": 2,
                "isERC1155": false,
                "isERC721": false,
                "isReverted": false,
                "order": 2,
                "to": "0x5e21cd190d418c9051a0bf6c1ab423e0edd96319",
                "token": "0xc71a7ecd96fef6e34a5c296bee9533f1deb0e3c1"
            }
        ],
        "token_infos": [
            {
                "address": "0xc02aaa39b223fe8d0a0e5c4f27ead9083c756cc2",
                "decimals": 18
            },
            {
                "address": "0xc71a7ecd96fef6e34a5c296bee9533f1deb0e3c1",
                "decimals": 8
            },
            {
                "address": "0xeeeeeeeeeeeeeeeeeeeeeeeeeeeeeeeeeeeeeeee",
                "decimals": 18
            }
        ]
    },
    "address_label": {
        "labels": [
            {
                "address": "0x0000000000000000000000000000000000000002",
                "label": "Precompiled"
            },
            {
                "address": "0x0000000000000000000000000000000000000003",
                "label": "Precompiled"
            },
            {
                "address": "0x0000000000000000000000000000000000000004",
                "label": "Precompiled"
            },
            {
                "address": "0xeeeeeeeeeeeeeeeeeeeeeeeeeeeeeeeeeeeeeeee",
                "label": "Ether"
            },
            {
                "address": "0xc71a7ecd96fef6e34a5c296bee9533f1deb0e3c1",
                "label": "Caelum: CLM Token"
            },
            {
                "address": "0xa38fcedd23de2191dc27f9a0240ac170be0a14fe",
                "label": "CaelumMiner"
            },
            {
                "address": "0x3b1b3f92d85ef134fb253c1e976346430eab6b37",
                "label": "CaelumMasternode"
            },
            {
                "address": "0x0000000000000000000000000000000000000001",
                "label": "Precompiled"
            }
        ]
    },
    "trace": {
        "accountLabels": null,
        "dataMap": {
            "-1": {
                "invocation": {
                    "address": "0xe2b3f5b351992d5ade3cf406e9b93c944d7406b7",
                    "callData": "",
                    "decodedMethod": null,
                    "errorInfo": "",
                    "fromAddress": "",
                    "gasUsed": 0,
                    "id": -1,
                    "methodDecoded": false,
                    "operation": "",
                    "output": "",
                    "revert": false,
                    "revertMessage": "",
                    "selector": "",
                    "status": false,
                    "value": ""
                },
                "nodeType": 0
            },
            "0": {
                "invocation": {
                    "address": "0xa38fcedd23de2191dc27f9a0240ac170be0a14fe",
                    "callData": "0xaa2a4713eb8e897094bff930e8ebd08fc72671ce51be6b5f00000aaf0102a2b7000000000002eee8beab9b68775f043f10912144e72cd9ce4e1dbed65ba94d95",
                    "decodedMethod": {
                        "callParams": [
                            {
                                "name": "nonce",
                                "type": "uint256",
                                "value": "76,967,882,396,912,611,782,289,306,066,917,462,098,746,894,325,918,548,274,816,439,655,380,981,818,039"
                            },
                            {
                                "name": "challenge_digest",
                                "type": "bytes32",
                                "value": "0x000000000002eee8beab9b68775f043f10912144e72cd9ce4e1dbed65ba94d95"
                            }
                        ],
                        "constructorArguments": "",
                        "name": "mint",
                        "returnParams": [
                            {
                                "name": "success",
                                "type": "bool",
                                "value": true
                            }
                        ],
                        "signature": "mint(uint256,bytes32)"
                    },
                    "errorInfo": "",
                    "fromAddress": "0xe2b3f5b351992d5ade3cf406e9b93c944d7406b7",
                    "gasUsed": 176776,
                    "id": 0,
                    "methodDecoded": true,
                    "operation": "CALL",
                    "output": "0x0000000000000000000000000000000000000000000000000000000000000001",
                    "revert": false,
                    "revertMessage": "",
                    "selector": "0x1801fbe5",
                    "status": true,
                    "value": "0"
                },
                "nodeType": 0
            },
            "1": {
                "invocation": {
                    "address": "0x3b1b3f92d85ef134fb253c1e976346430eab6b37",
                    "callData": "0x",
                    "decodedMethod": {
                        "callParams": [],
                        "constructorArguments": "",
                        "name": "_externalArrangeFlow",
                        "returnParams": [],
                        "signature": "_externalArrangeFlow()"
                    },
                    "errorInfo": "",
                    "fromAddress": "0xa38fcedd23de2191dc27f9a0240ac170be0a14fe",
                    "gasUsed": 41194,
                    "id": 1,
                    "methodDecoded": true,
                    "operation": "CALL",
                    "output": "",
                    "revert": false,
                    "revertMessage": "",
                    "selector": "0xa042d43e",
                    "status": true,
                    "value": "0"
                },
                "nodeType": 0
            },
            "10": {
                "invocation": {
                    "address": "0x3b1b3f92d85ef134fb253c1e976346430eab6b37",
                    "callData": "0x",
                    "decodedMethod": {
                        "callParams": [],
                        "constructorArguments": "",
                        "name": "masternodeIDcounter",
                        "returnParams": [
                            {
                                "name": "",
                                "type": "uint256",
                                "value": "416"
                            }
                        ],
                        "signature": "masternodeIDcounter()"
                    },
                    "errorInfo": "",
                    "fromAddress": "0xa38fcedd23de2191dc27f9a0240ac170be0a14fe",
                    "gasUsed": 1151,
                    "id": 10,
                    "methodDecoded": true,
                    "operation": "CALL",
                    "output": "0x00000000000000000000000000000000000000000000000000000000000001a0",
                    "revert": false,
                    "revertMessage": "",
                    "selector": "0xe6f76fe8",
                    "status": true,
                    "value": "0"
                },
                "nodeType": 0
            },
            "11": {
                "invocation": {
                    "address": "0x3b1b3f92d85ef134fb253c1e976346430eab6b37",
                    "callData": "0x",
                    "decodedMethod": {
                        "callParams": [],
                        "constructorArguments": "",
                        "name": "masternodeCandidate",
                        "returnParams": [
                            {
                                "name": "",
                                "type": "uint256",
                                "value": "296"
                            }
                        ],
                        "signature": "masternodeCandidate()"
                    },
                    "errorInfo": "",
                    "fromAddress": "0xa38fcedd23de2191dc27f9a0240ac170be0a14fe",
                    "gasUsed": 579,
                    "id": 11,
                    "methodDecoded": true,
                    "operation": "CALL",
                    "output": "0x0000000000000000000000000000000000000000000000000000000000000128",
                    "revert": false,
                    "revertMessage": "",
                    "selector": "0x448a0017",
                    "status": true,
                    "value": "0"
                },
                "nodeType": 0
            },
            "12": {
                "invocation": {
                    "address": "0x3b1b3f92d85ef134fb253c1e976346430eab6b37",
                    "callData": "0x0000000000000000000000000000000000000000000000000000000000000128",
                    "decodedMethod": {
                        "callParams": [
                            {
                                "name": "_index",
                                "type": "uint256",
                                "value": "296"
                            }
                        ],
                        "constructorArguments": "",
                        "name": "getUserFromID",
                        "returnParams": [
                            {
                                "name": "",
                                "type": "address",
                                "value": "0x5e21cd190d418c9051a0bf6c1ab423e0edd96319"
                            }
                        ],
                        "signature": "getUserFromID(uint256)"
                    },
                    "errorInfo": "",
                    "fromAddress": "0xa38fcedd23de2191dc27f9a0240ac170be0a14fe",
                    "gasUsed": 788,
                    "id": 12,
                    "methodDecoded": true,
                    "operation": "CALL",
                    "output": "0x0000000000000000000000005e21cd190d418c9051a0bf6c1ab423e0edd96319",
                    "revert": false,
                    "revertMessage": "",
                    "selector": "0x2debc549",
                    "status": true,
                    "value": "0"
                },
                "nodeType": 0
            },
            "13": {
                "invocation": {
                    "address": "0xc71a7ecd96fef6e34a5c296bee9533f1deb0e3c1",
                    "callData": "0x0000000000000000000000005e21cd190d418c9051a0bf6c1ab423e0edd9631900000000000000000000000000000000000000000000000000000000ee6b2800",
                    "decodedMethod": {
                        "callParams": [
                            {
                                "name": "_receiver",
                                "type": "address",
                                "value": "0x5e21cd190d418c9051a0bf6c1ab423e0edd96319"
                            },
                            {
                                "name": "_amount",
                                "type": "uint256",
                                "value": "4,000,000,000"
                            }
                        ],
                        "constructorArguments": "",
                        "name": "rewardExternal",
                        "returnParams": [],
                        "signature": "rewardExternal(address,uint256)"
                    },
                    "errorInfo": "",
                    "fromAddress": "0xa38fcedd23de2191dc27f9a0240ac170be0a14fe",
                    "gasUsed": 10777,
                    "id": 13,
                    "methodDecoded": true,
                    "operation": "CALL",
                    "output": "",
                    "revert": false,
                    "revertMessage": "",
                    "selector": "0x680d5762",
                    "status": true,
                    "value": "0"
                },
                "nodeType": 0
            },
            "14": {
                "invocation": {
                    "address": "0xdf33254137ec363f6e0076ff6eac58ca1ecb409e",
                    "callData": "0x",
                    "decodedMethod": {
                        "callParams": [],
                        "constructorArguments": "",
                        "name": "_contract_miner",
                        "returnParams": [
                            {
                                "name": "",
                                "type": "address",
                                "value": "0xa38fcedd23de2191dc27f9a0240ac170be0a14fe"
                            }
                        ],
                        "signature": "_contract_miner()"
                    },
                    "errorInfo": "",
                    "fromAddress": "0xc71a7ecd96fef6e34a5c296bee9533f1deb0e3c1",
                    "gasUsed": 559,
                    "id": 14,
                    "methodDecoded": true,
                    "operation": "CALL",
                    "output": "0x000000000000000000000000a38fcedd23de2191dc27f9a0240ac170be0a14fe",
                    "revert": false,
                    "revertMessage": "",
                    "selector": "0x0de33210",
                    "status": true,
                    "value": "0"
                },
                "nodeType": 0
            },
            "15": {
                "event": {
                    "contract": "0xc71a7ecd96fef6e34a5c296bee9533f1deb0e3c1",
                    "decodedLog": {
                        "name": "Transfer",
                        "params": [
                            {
                                "name": "from",
                                "type": "address",
                                "value": "0xc71a7ecd96fef6e34a5c296bee9533f1deb0e3c1"
                            },
                            {
                                "name": "to",
                                "type": "address",
                                "value": "0x5e21cd190d418c9051a0bf6c1ab423e0edd96319"
                            },
                            {
                                "decimalAvailable": true,
                                "name": "value",
                                "type": "uint256",
                                "value": "4,000,000,000"
                            }
                        ],
                        "signature": "Transfer(address,address,uint256)"
                    },
                    "id": 15,
                    "logData": "0x00000000000000000000000000000000000000000000000000000000ee6b2800",
                    "logDecoded": true,
                    "operation": "EVENT",
                    "revert": false,
                    "status": true,
                    "topics": [
                        "0xddf252ad1be2c89b69c2b068fc378daa952ba7f163c4a11628f55a4df523b3ef",
                        "0x000000000000000000000000c71a7ecd96fef6e34a5c296bee9533f1deb0e3c1",
                        "0x0000000000000000000000005e21cd190d418c9051a0bf6c1ab423e0edd96319"
                    ]
                },
                "nodeType": 1
            },
            "16": {
                "event": {
                    "contract": "0xa38fcedd23de2191dc27f9a0240ac170be0a14fe",
                    "decodedLog": {
                        "name": "RewardMasternode",
                        "params": [
                            {
                                "name": "candidate",
                                "type": "address",
                                "value": "0x5e21cd190d418c9051a0bf6c1ab423e0edd96319"
                            },
                            {
                                "name": "amount",
                                "type": "uint256",
                                "value": "4,000,000,000"
                            }
                        ],
                        "signature": "RewardMasternode(address,uint256)"
                    },
                    "id": 16,
                    "logData": "0x0000000000000000000000005e21cd190d418c9051a0bf6c1ab423e0edd9631900000000000000000000000000000000000000000000000000000000ee6b2800",
                    "logDecoded": true,
                    "operation": "EVENT",
                    "revert": false,
                    "status": true,
                    "topics": [
                        "0x8f9a423c71e43ad001bebf147d969f424a8fac4e5970a367c5e53abb17cbe710"
                    ]
                },
                "nodeType": 1
            },
            "17": {
                "event": {
                    "contract": "0xa38fcedd23de2191dc27f9a0240ac170be0a14fe",
                    "decodedLog": {
                        "name": "Mint",
                        "params": [
                            {
                                "name": "from",
                                "type": "address",
                                "value": "0xe2b3f5b351992d5ade3cf406e9b93c944d7406b7"
                            },
                            {
                                "name": "reward_amount",
                                "type": "uint256",
                                "value": "1,000,000,000"
                            },
                            {
                                "name": "epochCount",
                                "type": "uint256",
                                "value": "37,326"
                            },
                            {
                                "name": "newChallengeNumber",
                                "type": "bytes32",
                                "value": "0x354aa2290f1dd026ffb403863c412c8b0d2e7c7bf065425216b8a9709610a6d9"
                            }
                        ],
                        "signature": "Mint(address,uint256,uint256,bytes32)"
                    },
                    "id": 17,
                    "logData": "0x000000000000000000000000000000000000000000000000000000003b9aca0000000000000000000000000000000000000000000000000000000000000091ce354aa2290f1dd026ffb403863c412c8b0d2e7c7bf065425216b8a9709610a6d9",
                    "logDecoded": true,
                    "operation": "EVENT",
                    "revert": false,
                    "status": true,
                    "topics": [
                        "0xcf6fbb9dcea7d07263ab4f5c3a92f53af33dffc421d9d121e1c74b307e68189d",
                        "0x000000000000000000000000e2b3f5b351992d5ade3cf406e9b93c944d7406b7"
                    ]
                },
                "nodeType": 1
            },
            "2": {
                "invocation": {
                    "address": "0xdf33254137ec363f6e0076ff6eac58ca1ecb409e",
                    "callData": "0x",
                    "decodedMethod": {
                        "callParams": [],
                        "constructorArguments": "",
                        "name": "_contract_miner",
                        "returnParams": [
                            {
                                "name": "",
                                "type": "address",
                                "value": "0xa38fcedd23de2191dc27f9a0240ac170be0a14fe"
                            }
                        ],
                        "signature": "_contract_miner()"
                    },
                    "errorInfo": "",
                    "fromAddress": "0x3b1b3f92d85ef134fb253c1e976346430eab6b37",
                    "gasUsed": 559,
                    "id": 2,
                    "methodDecoded": true,
                    "operation": "CALL",
                    "output": "0x000000000000000000000000a38fcedd23de2191dc27f9a0240ac170be0a14fe",
                    "revert": false,
                    "revertMessage": "",
                    "selector": "0x0de33210",
                    "status": true,
                    "value": "0"
                },
                "nodeType": 0
            },
            "3": {
                "invocation": {
                    "address": "0xdf33254137ec363f6e0076ff6eac58ca1ecb409e",
                    "callData": "0x",
                    "decodedMethod": {
                        "callParams": [],
                        "constructorArguments": "",
                        "name": "_contract_miner",
                        "returnParams": [
                            {
                                "name": "",
                                "type": "address",
                                "value": "0xa38fcedd23de2191dc27f9a0240ac170be0a14fe"
                            }
                        ],
                        "signature": "_contract_miner()"
                    },
                    "errorInfo": "",
                    "fromAddress": "0x3b1b3f92d85ef134fb253c1e976346430eab6b37",
                    "gasUsed": 559,
                    "id": 3,
                    "methodDecoded": true,
                    "operation": "CALL",
                    "output": "0x000000000000000000000000a38fcedd23de2191dc27f9a0240ac170be0a14fe",
                    "revert": false,
                    "revertMessage": "",
                    "selector": "0x0de33210",
                    "status": true,
                    "value": "0"
                },
                "nodeType": 0
            },
            "4": {
                "invocation": {
                    "address": "0xa38fcedd23de2191dc27f9a0240ac170be0a14fe",
                    "callData": "0x",
                    "decodedMethod": {
                        "callParams": [],
                        "constructorArguments": "",
                        "name": "getMiningReward",
                        "returnParams": [
                            {
                                "name": "",
                                "type": "uint256",
                                "value": "5,000,000,000"
                            }
                        ],
                        "signature": "getMiningReward()"
                    },
                    "errorInfo": "",
                    "fromAddress": "0x3b1b3f92d85ef134fb253c1e976346430eab6b37",
                    "gasUsed": 1159,
                    "id": 4,
                    "methodDecoded": true,
                    "operation": "CALL",
                    "output": "0x000000000000000000000000000000000000000000000000000000012a05f200",
                    "revert": false,
                    "revertMessage": "",
                    "selector": "0x490203a7",
                    "status": true,
                    "value": "0"
                },
                "nodeType": 0
            },
            "5": {
                "invocation": {
                    "address": "0x3b1b3f92d85ef134fb253c1e976346430eab6b37",
                    "callData": "0x",
                    "decodedMethod": {
                        "callParams": [],
                        "constructorArguments": "",
                        "name": "rewardsProofOfWork",
                        "returnParams": [
                            {
                                "name": "",
                                "type": "uint256",
                                "value": "1,000,000,000"
                            }
                        ],
                        "signature": "rewardsProofOfWork()"
                    },
                    "errorInfo": "",
                    "fromAddress": "0xa38fcedd23de2191dc27f9a0240ac170be0a14fe",
                    "gasUsed": 491,
                    "id": 5,
                    "methodDecoded": true,
                    "operation": "CALL",
                    "output": "0x000000000000000000000000000000000000000000000000000000003b9aca00",
                    "revert": false,
                    "revertMessage": "",
                    "selector": "0x1ad93a9b",
                    "status": true,
                    "value": "0"
                },
                "nodeType": 0
            },
            "6": {
                "invocation": {
                    "address": "0xc71a7ecd96fef6e34a5c296bee9533f1deb0e3c1",
                    "callData": "0x000000000000000000000000e2b3f5b351992d5ade3cf406e9b93c944d7406b7000000000000000000000000000000000000000000000000000000003b9aca00",
                    "decodedMethod": {
                        "callParams": [
                            {
                                "name": "_receiver",
                                "type": "address",
                                "value": "0xe2b3f5b351992d5ade3cf406e9b93c944d7406b7"
                            },
                            {
                                "name": "_amount",
                                "type": "uint256",
                                "value": "1,000,000,000"
                            }
                        ],
                        "constructorArguments": "",
                        "name": "rewardExternal",
                        "returnParams": [],
                        "signature": "rewardExternal(address,uint256)"
                    },
                    "errorInfo": "",
                    "fromAddress": "0xa38fcedd23de2191dc27f9a0240ac170be0a14fe",
                    "gasUsed": 10777,
                    "id": 6,
                    "methodDecoded": true,
                    "operation": "CALL",
                    "output": "",
                    "revert": false,
                    "revertMessage": "",
                    "selector": "0x680d5762",
                    "status": true,
                    "value": "0"
                },
                "nodeType": 0
            },
            "7": {
                "invocation": {
                    "address": "0xdf33254137ec363f6e0076ff6eac58ca1ecb409e",
                    "callData": "0x",
                    "decodedMethod": {
                        "callParams": [],
                        "constructorArguments": "",
                        "name": "_contract_miner",
                        "returnParams": [
                            {
                                "name": "",
                                "type": "address",
                                "value": "0xa38fcedd23de2191dc27f9a0240ac170be0a14fe"
                            }
                        ],
                        "signature": "_contract_miner()"
                    },
                    "errorInfo": "",
                    "fromAddress": "0xc71a7ecd96fef6e34a5c296bee9533f1deb0e3c1",
                    "gasUsed": 559,
                    "id": 7,
                    "methodDecoded": true,
                    "operation": "CALL",
                    "output": "0x000000000000000000000000a38fcedd23de2191dc27f9a0240ac170be0a14fe",
                    "revert": false,
                    "revertMessage": "",
                    "selector": "0x0de33210",
                    "status": true,
                    "value": "0"
                },
                "nodeType": 0
            },
            "8": {
                "event": {
                    "contract": "0xc71a7ecd96fef6e34a5c296bee9533f1deb0e3c1",
                    "decodedLog": {
                        "name": "Transfer",
                        "params": [
                            {
                                "name": "from",
                                "type": "address",
                                "value": "0xc71a7ecd96fef6e34a5c296bee9533f1deb0e3c1"
                            },
                            {
                                "name": "to",
                                "type": "address",
                                "value": "0xe2b3f5b351992d5ade3cf406e9b93c944d7406b7"
                            },
                            {
                                "decimalAvailable": true,
                                "name": "value",
                                "type": "uint256",
                                "value": "1,000,000,000"
                            }
                        ],
                        "signature": "Transfer(address,address,uint256)"
                    },
                    "id": 8,
                    "logData": "0x000000000000000000000000000000000000000000000000000000003b9aca00",
                    "logDecoded": true,
                    "operation": "EVENT",
                    "revert": false,
                    "status": true,
                    "topics": [
                        "0xddf252ad1be2c89b69c2b068fc378daa952ba7f163c4a11628f55a4df523b3ef",
                        "0x000000000000000000000000c71a7ecd96fef6e34a5c296bee9533f1deb0e3c1",
                        "0x000000000000000000000000e2b3f5b351992d5ade3cf406e9b93c944d7406b7"
                    ]
                },
                "nodeType": 1
            },
            "9": {
                "invocation": {
                    "address": "0x3b1b3f92d85ef134fb253c1e976346430eab6b37",
                    "callData": "0x",
                    "decodedMethod": {
                        "callParams": [],
                        "constructorArguments": "",
                        "name": "rewardsMasternode",
                        "returnParams": [
                            {
                                "name": "",
                                "type": "uint256",
                                "value": "4,000,000,000"
                            }
                        ],
                        "signature": "rewardsMasternode()"
                    },
                    "errorInfo": "",
                    "fromAddress": "0xa38fcedd23de2191dc27f9a0240ac170be0a14fe",
                    "gasUsed": 1129,
                    "id": 9,
                    "methodDecoded": true,
                    "operation": "CALL",
                    "output": "0x00000000000000000000000000000000000000000000000000000000ee6b2800",
                    "revert": false,
                    "revertMessage": "",
                    "selector": "0xe1eca327",
                    "status": true,
                    "value": "0"
                },
                "nodeType": 0
            }
        },
        "gasFlame": [
            {
                "children": [
                    {
                        "children": [
                            {
                                "children": [],
                                "depth": 0,
                                "name": "Initial Gas",
                                "value": 25176
                            },
                            {
                                "children": [
                                    {
                                        "children": [
                                            {
                                                "children": [],
                                                "depth": 2,
                                                "name": "_contract_miner",
                                                "value": 559
                                            },
                                            {
                                                "children": [],
                                                "depth": 2,
                                                "name": "_contract_miner",
                                                "value": 559
                                            },
                                            {
                                                "children": [],
                                                "depth": 2,
                                                "name": "getMiningReward",
                                                "value": 1159
                                            }
                                        ],
                                        "depth": 1,
                                        "name": "_externalArrangeFlow",
                                        "value": 41194
                                    },
                                    {
                                        "children": [],
                                        "depth": 1,
                                        "name": "rewardsProofOfWork",
                                        "value": 491
                                    },
                                    {
                                        "children": [
                                            {
                                                "children": [],
                                                "depth": 2,
                                                "name": "_contract_miner",
                                                "value": 559
                                            }
                                        ],
                                        "depth": 1,
                                        "name": "rewardExternal",
                                        "value": 10777
                                    },
                                    {
                                        "children": [],
                                        "depth": 1,
                                        "name": "rewardsMasternode",
                                        "value": 1129
                                    },
                                    {
                                        "children": [],
                                        "depth": 1,
                                        "name": "masternodeIDcounter",
                                        "value": 1151
                                    },
                                    {
                                        "children": [],
                                        "depth": 1,
                                        "name": "masternodeCandidate",
                                        "value": 579
                                    },
                                    {
                                        "children": [],
                                        "depth": 1,
                                        "name": "getUserFromID",
                                        "value": 788
                                    },
                                    {
                                        "children": [
                                            {
                                                "children": [],
                                                "depth": 2,
                                                "name": "_contract_miner",
                                                "value": 559
                                            }
                                        ],
                                        "depth": 1,
                                        "name": "rewardExternal",
                                        "value": 10777
                                    }
                                ],
                                "depth": 0,
                                "name": "Executed Gas",
                                "value": 151600
                            }
                        ],
                        "depth": -1,
                        "name": "Actual Gas Used",
                        "value": 176776
                    },
                    {
                        "children": [],
                        "depth": -1,
                        "name": "Refunded Gas",
                        "value": 0
                    }
                ],
                "depth": -2,
                "name": "Total Gas",
                "value": 176776
            }
        ],
        "isConfirmed": true,
        "mainTrace": [
            {
                "children": [
                    {
                        "children": [
                            {
                                "children": [
                                    {
                                        "children": [],
                                        "depth": 2,
                                        "id": 2,
                                        "order": 2
                                    },
                                    {
                                        "children": [],
                                        "depth": 2,
                                        "id": 3,
                                        "order": 3
                                    },
                                    {
                                        "children": [],
                                        "depth": 2,
                                        "id": 4,
                                        "order": 4
                                    }
                                ],
                                "depth": 1,
                                "id": 1,
                                "order": 1
                            },
                            {
                                "children": [],
                                "depth": 1,
                                "id": 5,
                                "order": 5
                            },
                            {
                                "children": [
                                    {
                                        "children": [],
                                        "depth": 2,
                                        "id": 7,
                                        "order": 7
                                    },
                                    {
                                        "children": [],
                                        "depth": 2,
                                        "id": 8,
                                        "order": 8
                                    }
                                ],
                                "depth": 1,
                                "id": 6,
                                "order": 6
                            },
                            {
                                "children": [],
                                "depth": 1,
                                "id": 9,
                                "order": 9
                            },
                            {
                                "children": [],
                                "depth": 1,
                                "id": 10,
                                "order": 10
                            },
                            {
                                "children": [],
                                "depth": 1,
                                "id": 11,
                                "order": 11
                            },
                            {
                                "children": [],
                                "depth": 1,
                                "id": 12,
                                "order": 12
                            },
                            {
                                "children": [
                                    {
                                        "children": [],
                                        "depth": 2,
                                        "id": 14,
                                        "order": 14
                                    },
                                    {
                                        "children": [],
                                        "depth": 2,
                                        "id": 15,
                                        "order": 15
                                    }
                                ],
                                "depth": 1,
                                "id": 13,
                                "order": 13
                            },
                            {
                                "children": [],
                                "depth": 1,
                                "id": 16,
                                "order": 16
                            },
                            {
                                "children": [],
                                "depth": 1,
                                "id": 17,
                                "order": 17
                            }
                        ],
                        "depth": 0,
                        "id": 0,
                        "order": 0
                    }
                ],
                "depth": -1,
                "id": -1,
                "order": -1
            }
        ],
        "mainTraceNodeCount": 18,
        "parentIdMap": {
            "0": -1,
            "1": 0,
            "10": 0,
            "11": 0,
            "12": 0,
            "13": 0,
            "14": 13,
            "15": 13,
            "16": 0,
            "17": 0,
            "2": 1,
            "3": 1,
            "4": 1,
            "5": 0,
            "6": 0,
            "7": 6,
            "8": 6,
            "9": 0
        },
        "tidyTrace": [
            {
                "children": [
                    {
                        "children": [
                            {
                                "children": [
                                    {
                                        "children": [],
                                        "depth": 2,
                                        "id": 2,
                                        "order": 2
                                    },
                                    {
                                        "children": [],
                                        "depth": 2,
                                        "id": 3,
                                        "order": 3
                                    },
                                    {
                                        "children": [],
                                        "depth": 2,
                                        "id": 4,
                                        "order": 4
                                    }
                                ],
                                "depth": 1,
                                "id": 1,
                                "order": 1
                            },
                            {
                                "children": [],
                                "depth": 1,
                                "id": 5,
                                "order": 5
                            },
                            {
                                "children": [
                                    {
                                        "children": [],
                                        "depth": 2,
                                        "id": 7,
                                        "order": 7
                                    },
                                    {
                                        "children": [],
                                        "depth": 2,
                                        "id": 8,
                                        "order": 8
                                    }
                                ],
                                "depth": 1,
                                "id": 6,
                                "order": 6
                            },
                            {
                                "children": [],
                                "depth": 1,
                                "id": 9,
                                "order": 9
                            },
                            {
                                "children": [],
                                "depth": 1,
                                "id": 10,
                                "order": 10
                            },
                            {
                                "children": [],
                                "depth": 1,
                                "id": 11,
                                "order": 11
                            },
                            {
                                "children": [],
                                "depth": 1,
                                "id": 12,
                                "order": 12
                            },
                            {
                                "children": [
                                    {
                                        "children": [],
                                        "depth": 2,
                                        "id": 14,
                                        "order": 14
                                    },
                                    {
                                        "children": [],
                                        "depth": 2,
                                        "id": 15,
                                        "order": 15
                                    }
                                ],
                                "depth": 1,
                                "id": 13,
                                "order": 13
                            },
                            {
                                "children": [],
                                "depth": 1,
                                "id": 16,
                                "order": 16
                            },
                            {
                                "children": [],
                                "depth": 1,
                                "id": 17,
                                "order": 17
                            }
                        ],
                        "depth": 0,
                        "id": 0,
                        "order": 0
                    }
                ],
                "depth": -1,
                "id": -1,
                "order": -1
            }
        ],
        "tidyTraceNodeCount": 18
    },
    "state_change": {
        "stateChanges": [
            {
                "address": "0x3b1b3f92d85ef134fb253c1e976346430eab6b37",
                "erc": "",
                "slots": [
                    {
                        "current": "0x00000000000000000000000000000000000000000000000000000000000003ca",
                        "key": "0xf3e9bdb17e809d40894019e71fc3cd1caab638876c2f7e53420abc45924bfed7",
                        "prev": "0x00000000000000000000000000000000000000000000000000000000000003c9"
                    },
                    {
                        "current": "0x0000000000000000000000000000000000000000000000000000000000000128",
                        "key": "0x0000000000000000000000000000000000000000000000000000000000000007",
                        "prev": "0x0000000000000000000000000000000000000000000000000000000000000127"
                    },
                    {
                        "current": "0x00000000000000000000000000000000000000000000000000000000000091cc",
                        "key": "0x0000000000000000000000000000000000000000000000000000000000000009",
                        "prev": "0x00000000000000000000000000000000000000000000000000000000000091cb"
                    }
                ],
                "storageVariables": [
                    {
                        "name": "masternodeByIndex",
                        "type": "mapping(uint256 => struct CaelumAbstractMasternode.MasterNode)",
                        "value": {
                            "pairs": [
                                {
                                    "key": "296",
                                    "value": {
                                        "fields": [
                                            {
                                                "name": "startingRound",
                                                "type": "uint256",
                                                "value": {
                                                    "current": "970",
                                                    "prev": "969",
                                                    "typeTag": 1
                                                }
                                            }
                                        ],
                                        "typeTag": 3
                                    }
                                }
                            ],
                            "typeTag": 4
                        }
                    },
                    {
                        "name": "masternodeCandidate",
                        "type": "uint256",
                        "value": {
                            "current": "296",
                            "prev": "295",
                            "typeTag": 1
                        }
                    },
                    {
                        "name": "miningEpoch",
                        "type": "uint256",
                        "value": {
                            "current": "37324",
                            "prev": "37323",
                            "typeTag": 1
                        }
                    }
                ]
            },
            {
                "address": "0xa38fcedd23de2191dc27f9a0240ac170be0a14fe",
                "erc": "",
                "slots": [
                    {
                        "current": "0x000000000000000000000000000000000000000000000000000000000076e768",
                        "key": "0x000000000000000000000000000000000000000000000000000000000000001e",
                        "prev": "0x000000000000000000000000000000000000000000000000000000000076e754"
                    },
                    {
                        "current": "0x000000000000000000000000000000000000000000000000000000005ce1b355",
                        "key": "0x000000000000000000000000000000000000000000000000000000000000001f",
                        "prev": "0x000000000000000000000000000000000000000000000000000000005ce1b22a"
                    },
                    {
                        "current": "0x000000000002eee8beab9b68775f043f10912144e72cd9ce4e1dbed65ba94d95",
                        "key": "0x5823697ebcad4c37381a6676d9dc2fdaf1abf75dd1096f61ff9017eb850c23ec",
                        "prev": "0x0000000000000000000000000000000000000000000000000000000000000000"
                    },
                    {
                        "current": "0x0000000000000000000000000000000000000000000000000000964b438c9400",
                        "key": "0x000000000000000000000000000000000000000000000000000000000000001b",
                        "prev": "0x0000000000000000000000000000000000000000000000000000964a1986a200"
                    },
                    {
                        "current": "0x00000000000000000000000000000000000000000000000000000000000091ce",
                        "key": "0x000000000000000000000000000000000000000000000000000000000000000b",
                        "prev": "0x00000000000000000000000000000000000000000000000000000000000091cd"
                    },
                    {
                        "current": "0x354aa2290f1dd026ffb403863c412c8b0d2e7c7bf065425216b8a9709610a6d9",
                        "key": "0x0000000000000000000000000000000000000000000000000000000000000019",
                        "prev": "0x42921746d1b82a3a4a549bb75f545f0223dae0a773da68bc1b242c7776cd31db"
                    }
                ],
                "storageVariables": [
                    {
                        "name": "solutionForChallenge",
                        "type": "mapping(bytes32 => bytes32)",
                        "value": {
                            "pairs": [
                                {
                                    "key": "0x42921746d1b82a3a4a549bb75f545f0223dae0a773da68bc1b242c7776cd31db",
                                    "value": {
                                        "current": "0x000000000002eee8beab9b68775f043f10912144e72cd9ce4e1dbed65ba94d95",
                                        "prev": "0x0000000000000000000000000000000000000000000000000000000000000000",
                                        "typeTag": 1
                                    }
                                }
                            ],
                            "typeTag": 4
                        }
                    },
                    {
                        "name": "tokensMinted",
                        "type": "uint256",
                        "value": {
                            "current": "165250000000000",
                            "prev": "165245000000000",
                            "typeTag": 1
                        }
                    },
                    {
                        "name": "epochCount",
                        "type": "uint256",
                        "value": {
                            "current": "37326",
                            "prev": "37325",
                            "typeTag": 1
                        }
                    },
                    {
                        "name": "challengeNumber",
                        "type": "bytes32",
                        "value": {
                            "current": "0x354aa2290f1dd026ffb403863c412c8b0d2e7c7bf065425216b8a9709610a6d9",
                            "prev": "0x42921746d1b82a3a4a549bb75f545f0223dae0a773da68bc1b242c7776cd31db",
                            "typeTag": 1
                        }
                    }
                ]
            },
            {
                "address": "0xc71a7ecd96fef6e34a5c296bee9533f1deb0e3c1",
                "erc": "ERC-20",
                "slots": [
                    {
                        "current": "0x000000000000000000000000000000000000000000000000000000054310a200",
                        "key": "0xb23b4f7032e5d487ffb78a31ef55263fae08067cde147399b9869a6bb8c031e8",
                        "prev": "0x0000000000000000000000000000000000000000000000000000000454a57a00"
                    },
                    {
                        "current": "0x0000000000000000000000000000000000000000000000000000000e6f7cec00",
                        "key": "0x489e3c538d7024fc715c0eb560264f36e34657c58b167badb03ad54b4416bd7a",
                        "prev": "0x0000000000000000000000000000000000000000000000000000000e33e22200"
                    }
                ],
                "storageVariables": [
                    {
                        "name": "balances",
                        "type": "mapping(address => uint256)",
                        "value": {
                            "pairs": [
                                {
                                    "key": "0x5e21cd190d418c9051a0bf6c1ab423e0edd96319",
                                    "value": {
                                        "current": "22600000000",
                                        "prev": "18600000000",
                                        "typeTag": 1
                                    }
                                },
                                {
                                    "key": "0xe2b3f5b351992d5ade3cf406e9b93c944d7406b7",
                                    "value": {
                                        "current": "62000000000",
                                        "prev": "61000000000",
                                        "typeTag": 1
                                    }
                                }
                            ],
                            "typeTag": 4
                        }
                    }
                ]
            }
        ]
    }
}