{
    "balance_change": {
        "balanceChanges": [
            {
                "account": "0x5d3266e87e5818a3ea2994d6917dcda0443e12c3",
                "assets": [
                    {
                        "address": "0x30cdac3871c41a63767247c8d1a2de59f5714e78",
                        "amount": "1",
                        "iconUrl": "",
                        "isERC1155": false,
                        "isERC721": true,
                        "sign": true,
                        "tokenID": "6050",
                        "value": ""
                    },
                    {
                        "address": "0xeeeeeeeeeeeeeeeeeeeeeeeeeeeeeeeeeeeeeeee",
                        "amount": "0.1888",
                        "iconUrl": "https://assets.blocksec.com/image/1663669189317-3.png",
                        "isERC1155": false,
                        "isERC721": false,
                        "sign": false,
                        "value": "560.21302400000000343"
                    }
                ]
            },
            {
                "account": "0x5b3256965e7c3cf26e11fcaf296dfc8807c01073",
                "assets": [
                    {
                        "address": "0xeeeeeeeeeeeeeeeeeeeeeeeeeeeeeeeeeeeeeeee",
                        "amount": "0.012272",
                        "iconUrl": "https://assets.blocksec.com/image/1663669189317-3.png",
                        "isERC1155": false,
                        "isERC721": false,
                        "sign": true,
                        "value": "36.413846560000000224"
                    }
                ]
            },
            {
                "account": "0xd6a49e83d27f19c24a82bdb808439dd84146bfac",
                "assets": [
                    {
                        "address": "0xeeeeeeeeeeeeeeeeeeeeeeeeeeeeeeeeeeeeeeee",
                        "amount": "0.176528",
                        "iconUrl": "https://assets.blocksec.com/image/1663669189317-3.png",
                        "isERC1155": false,
                        "isERC721": false,
                        "sign": true,
                        "value": "523.79917744000000324"
                    },
                    {
                        "address": "0x30cdac3871c41a63767247c8d1a2de59f5714e78",
                        "amount": "1",
                        "iconUrl": "",
                        "isERC1155": false,
                        "isERC721": true,
                        "sign": false,
                        "tokenID": "6050",
                        "value": ""
                    }
                ]
            }
        ]
    },
    "profile": {
        "basic_info": {
            "baseFee": "42.015658896",
            "blockNumber": 13325660,
            "callData": "0xab834bab0000000000000000000000007be8076f4ea4a4ad08075c2508e481d6c946d12b0000000000000000000000005d3266e87e5818a3ea2994d6917dcda0443e12c3000000000000000000000000d6a49e83d27f19c24a82bdb808439dd84146bfac000000000000000000000000000000000000000000000000000000000000000000000000000000000000000030cdac3871c41a63767247c8d1a2de59f5714e78000000000000000000000000000000000000000000000000000000000000000000000000000000000000000000000000000000000000000000000000000000000000000000000000000000007be8076f4ea4a4ad08075c2508e481d6c946d12b000000000000000000000000d6a49e83d27f19c24a82bdb808439dd84146bfac00000000000000000000000000000000000000000000000000000000000000000000000000000000000000005b3256965e7c3cf26e11fcaf296dfc8807c0107300000000000000000000000030cdac3871c41a63767247c8d1a2de59f5714e7800000000000000000000000000000000000000000000000000000000000000000000000000000000000000000000000000000000000000000000000000000000000000000000000000000000000000000000000000000000000000000000028a000000000000000000000000000000000000000000000000000000000000000000000000000000000000000000000000000000000000000000000000000000000000000000000000000000000000000000000000000000000000000000000000000000000000000000000000000000000000000000000000029ec0998598000000000000000000000000000000000000000000000000000000000000000000000000000000000000000000000000000000000000000000000000000061555f6800000000000000000000000000000000000000000000000000000000000000006f05852a93b80538c7db753d2523fd37a21fc7f42a46d4e79336db9eb1a91711000000000000000000000000000000000000000000000000000000000000028a000000000000000000000000000000000000000000000000000000000000000000000000000000000000000000000000000000000000000000000000000000000000000000000000000000000000000000000000000000000000000000000000000000000000000000000000000000000000000000000000029ec0998598000000000000000000000000000000000000000000000000000000000000000000000000000000000000000000000000000000000000000000000000000061555cf7000000000000000000000000000000000000000000000000000000006243fca90a792ce03224e084209b2608ace92d21a33e0b68a8e89b44d85d5b918e2c4ab50000000000000000000000000000000000000000000000000000000000000001000000000000000000000000000000000000000000000000000000000000000000000000000000000000000000000000000000000000000000000000000000000000000000000000000000000000000000000000000000000000000000000000000000000000000000000000000000000000000000000000000000000000000100000000000000000000000000000000000000000000000000000000000000010000000000000000000000000000000000000000000000000000000000000000000000000000000000000000000000000000000000000000000000000000000000000000000000000000000000000000000000000000000000000000000006a0000000000000000000000000000000000000000000000000000000000000074000000000000000000000000000000000000000000000000000000000000007e0000000000000000000000000000000000000000000000000000000000000088000000000000000000000000000000000000000000000000000000000000009200000000000000000000000000000000000000000000000000000000000000940000000000000000000000000000000000000000000000000000000000000001b000000000000000000000000000000000000000000000000000000000000001b89e7c63e9fe54a0a063e58ebc626cf49366aaedbefe15285c7fea6ed3e075fea28f63170009bde8ad02b5ddf1dbd94bcfaf9e199d54b6de7d2af73fc3960e76489e7c63e9fe54a0a063e58ebc626cf49366aaedbefe15285c7fea6ed3e075fea28f63170009bde8ad02b5ddf1dbd94bcfaf9e199d54b6de7d2af73fc3960e7640000000000000000000000000000000000000000000000000000000000000000000000000000000000000000000000000000000000000000000000000000006423b872dd00000000000000000000000000000000000000000000000000000000000000000000000000000000000000005d3266e87e5818a3ea2994d6917dcda0443e12c300000000000000000000000000000000000000000000000000000000000017a200000000000000000000000000000000000000000000000000000000000000000000000000000000000000000000000000000000000000000000006423b872dd000000000000000000000000d6a49e83d27f19c24a82bdb808439dd84146bfac000000000000000000000000000000000000000000000000000000000000000000000000000000000000000000000000000000000000000000000000000017a200000000000000000000000000000000000000000000000000000000000000000000000000000000000000000000000000000000000000000000006400000000ffffffffffffffffffffffffffffffffffffffffffffffffffffffffffffffff00000000000000000000000000000000000000000000000000000000000000000000000000000000000000000000000000000000000000000000000000000000000000000000000000000000000000000000000000000000000000000000000000000000000000000000000000000000000000000000000000000064000000000000000000000000000000000000000000000000000000000000000000000000ffffffffffffffffffffffffffffffffffffffffffffffffffffffffffffffff00000000000000000000000000000000000000000000000000000000000000000000000000000000000000000000000000000000000000000000000000000000000000000000000000000000000000000000000000000000000000000000000000000000000000000000000000000000000000000000000000000000",
            "debugEnable": true,
            "errorInfo": "",
            "eventCount": 3,
            "feeRecipient": "0xea674fdde714fd979de3edf0f56aa9716b898ec8",
            "formatValue": "0.1888",
            "gasLimit": 281046,
            "gasPrice": "43.515658896",
            "gasUsed": 216903,
            "intTxnCount": 10,
            "internalRevert": false,
            "internalRevertMessage": "",
            "isContractCreation": false,
            "isFlashloan": false,
            "maxFee": "73.950401146",
            "nonce": 269,
            "overwritedBlockNumber": -1,
            "priorityFee": "1.5",
            "receiver": "0x7be8076f4ea4a4ad08075c2508e481d6c946d12b",
            "revertMessage": "",
            "sender": "0x5d3266e87e5818a3ea2994d6917dcda0443e12c3",
            "simulationEnable": true,
            "sourceTxnHash": "0xcc04f1dd95f6137bec594e7ce15f4eab055c259468490bcb057d6eb5f08a3486",
            "status": true,
            "timestamp": "2021-09-30T07:02:15Z",
            "transactionFee": "0.009438676961519088",
            "txnHash": "0xcc04f1dd95f6137bec594e7ce15f4eab055c259468490bcb057d6eb5f08a3486",
            "txnIndex": 371,
            "type": 2,
            "value": "188800000000000000"
        },
        "fund_flow": [
            {
                "amount": "0.1888",
                "from": "0x5d3266e87e5818a3ea2994d6917dcda0443e12c3",
                "id": 1,
                "isERC1155": false,
                "isERC721": false,
                "isReverted": false,
                "order": 1,
                "to": "0x7be8076f4ea4a4ad08075c2508e481d6c946d12b",
                "token": "0xeeeeeeeeeeeeeeeeeeeeeeeeeeeeeeeeeeeeeeee"
            },
            {
                "amount": "0.012272",
                "from": "0x7be8076f4ea4a4ad08075c2508e481d6c946d12b",
                "id": 2,
                "isERC1155": false,
                "isERC721": false,
                "isReverted": false,
                "order": 2,
                "to": "0x5b3256965e7c3cf26e11fcaf296dfc8807c01073",
                "token": "0xeeeeeeeeeeeeeeeeeeeeeeeeeeeeeeeeeeeeeeee"
            },
            {
                "amount": "0.176528",
                "from": "0x7be8076f4ea4a4ad08075c2508e481d6c946d12b",
                "id": 3,
                "isERC1155": false,
                "isERC721": false,
                "isReverted": false,
                "order": 3,
                "to": "0xd6a49e83d27f19c24a82bdb808439dd84146bfac",
                "token": "0xeeeeeeeeeeeeeeeeeeeeeeeeeeeeeeeeeeeeeeee"
            },
            {
                "amount": "1",
                "from": "0xd6a49e83d27f19c24a82bdb808439dd84146bfac",
                "id": 4,
                "isERC1155": false,
                "isERC721": true,
                "isReverted": false,
                "order": 4,
                "to": "0x5d3266e87e5818a3ea2994d6917dcda0443e12c3",
                "token": "0x30cdac3871c41a63767247c8d1a2de59f5714e78",
                "tokenID": "6050"
            }
        ],
        "token_infos": [
            {
                "address": "0xc02aaa39b223fe8d0a0e5c4f27ead9083c756cc2",
                "decimals": 18
            },
            {
                "address": "0xeeeeeeeeeeeeeeeeeeeeeeeeeeeeeeeeeeeeeeee",
                "decimals": 18
            }
        ]
    },
    "address_label": {
        "labels": [
            {
                "address": "0xf9e266af4bca5890e2781812cc6a6e89495a79f2",
                "label": "AuthenticatedProxy"
            },
            {
                "address": "0x0000000000000000000000000000000000000000",
                "label": "Null Address"
            },
            {
                "address": "0x0000000000000000000000000000000000000001",
                "label": "Precompiled"
            },
            {
                "address": "0x0000000000000000000000000000000000000002",
                "label": "Precompiled"
            },
            {
                "address": "0xa5409ec958c83c3f309868babaca7c86dcb077c1",
                "label": "OpenSea: Registry"
            },
            {
                "address": "0x5b3256965e7c3cf26e11fcaf296dfc8807c01073",
                "label": "OpenSea: Wallet"
            },
            {
                "address": "0x7be8076f4ea4a4ad08075c2508e481d6c946d12b",
                "label": "OpenSea: Wyvern Exchange v1"
            },
            {
                "address": "0x30cdac3871c41a63767247c8d1a2de59f5714e78",
                "label": "0bits: 0bits Token"
            },
            {
                "address": "0xeeeeeeeeeeeeeeeeeeeeeeeeeeeeeeeeeeeeeeee",
                "label": "Ether"
            },
            {
                "address": "0x7851fd9a90a0159397abd1c2f919ed0f07ba28ba",
                "label": "OwnableDelegateProxy"
            },
            {
                "address": "0x0000000000000000000000000000000000000003",
                "label": "Precompiled"
            },
            {
                "address": "0x0000000000000000000000000000000000000004",
                "label": "Precompiled"
            }
        ]
    },
    "trace": {
        "accountLabels": null,
        "dataMap": {
            "-1": {
                "invocation": {
                    "address": "0x5d3266e87e5818a3ea2994d6917dcda0443e12c3",
                    "callData": "",
                    "decodedMethod": null,
                    "errorInfo": "",
                    "fromAddress": "",
                    "gasUsed": 0,
                    "id": -1,
                    "methodDecoded": false,
                    "operation": "",
                    "output": "",
                    "revert": false,
                    "revertMessage": "",
                    "selector": "",
                    "status": false,
                    "value": ""
                },
                "nodeType": 0
            },
            "0": {
                "invocation": {
                    "address": "0x7be8076f4ea4a4ad08075c2508e481d6c946d12b",
                    "callData": "0x0000000000000000000000007be8076f4ea4a4ad08075c2508e481d6c946d12b0000000000000000000000005d3266e87e5818a3ea2994d6917dcda0443e12c3000000000000000000000000d6a49e83d27f19c24a82bdb808439dd84146bfac000000000000000000000000000000000000000000000000000000000000000000000000000000000000000030cdac3871c41a63767247c8d1a2de59f5714e78000000000000000000000000000000000000000000000000000000000000000000000000000000000000000000000000000000000000000000000000000000000000000000000000000000007be8076f4ea4a4ad08075c2508e481d6c946d12b000000000000000000000000d6a49e83d27f19c24a82bdb808439dd84146bfac00000000000000000000000000000000000000000000000000000000000000000000000000000000000000005b3256965e7c3cf26e11fcaf296dfc8807c0107300000000000000000000000030cdac3871c41a63767247c8d1a2de59f5714e7800000000000000000000000000000000000000000000000000000000000000000000000000000000000000000000000000000000000000000000000000000000000000000000000000000000000000000000000000000000000000000000028a000000000000000000000000000000000000000000000000000000000000000000000000000000000000000000000000000000000000000000000000000000000000000000000000000000000000000000000000000000000000000000000000000000000000000000000000000000000000000000000000029ec0998598000000000000000000000000000000000000000000000000000000000000000000000000000000000000000000000000000000000000000000000000000061555f6800000000000000000000000000000000000000000000000000000000000000006f05852a93b80538c7db753d2523fd37a21fc7f42a46d4e79336db9eb1a91711000000000000000000000000000000000000000000000000000000000000028a000000000000000000000000000000000000000000000000000000000000000000000000000000000000000000000000000000000000000000000000000000000000000000000000000000000000000000000000000000000000000000000000000000000000000000000000000000000000000000000000029ec0998598000000000000000000000000000000000000000000000000000000000000000000000000000000000000000000000000000000000000000000000000000061555cf7000000000000000000000000000000000000000000000000000000006243fca90a792ce03224e084209b2608ace92d21a33e0b68a8e89b44d85d5b918e2c4ab50000000000000000000000000000000000000000000000000000000000000001000000000000000000000000000000000000000000000000000000000000000000000000000000000000000000000000000000000000000000000000000000000000000000000000000000000000000000000000000000000000000000000000000000000000000000000000000000000000000000000000000000000000000100000000000000000000000000000000000000000000000000000000000000010000000000000000000000000000000000000000000000000000000000000000000000000000000000000000000000000000000000000000000000000000000000000000000000000000000000000000000000000000000000000000000006a0000000000000000000000000000000000000000000000000000000000000074000000000000000000000000000000000000000000000000000000000000007e0000000000000000000000000000000000000000000000000000000000000088000000000000000000000000000000000000000000000000000000000000009200000000000000000000000000000000000000000000000000000000000000940000000000000000000000000000000000000000000000000000000000000001b000000000000000000000000000000000000000000000000000000000000001b89e7c63e9fe54a0a063e58ebc626cf49366aaedbefe15285c7fea6ed3e075fea28f63170009bde8ad02b5ddf1dbd94bcfaf9e199d54b6de7d2af73fc3960e76489e7c63e9fe54a0a063e58ebc626cf49366aaedbefe15285c7fea6ed3e075fea28f63170009bde8ad02b5ddf1dbd94bcfaf9e199d54b6de7d2af73fc3960e7640000000000000000000000000000000000000000000000000000000000000000000000000000000000000000000000000000000000000000000000000000006423b872dd00000000000000000000000000000000000000000000000000000000000000000000000000000000000000005d3266e87e5818a3ea2994d6917dcda0443e12c300000000000000000000000000000000000000000000000000000000000017a200000000000000000000000000000000000000000000000000000000000000000000000000000000000000000000000000000000000000000000006423b872dd000000000000000000000000d6a49e83d27f19c24a82bdb808439dd84146bfac000000000000000000000000000000000000000000000000000000000000000000000000000000000000000000000000000000000000000000000000000017a200000000000000000000000000000000000000000000000000000000000000000000000000000000000000000000000000000000000000000000006400000000ffffffffffffffffffffffffffffffffffffffffffffffffffffffffffffffff00000000000000000000000000000000000000000000000000000000000000000000000000000000000000000000000000000000000000000000000000000000000000000000000000000000000000000000000000000000000000000000000000000000000000000000000000000000000000000000000000000064000000000000000000000000000000000000000000000000000000000000000000000000ffffffffffffffffffffffffffffffffffffffffffffffffffffffffffffffff00000000000000000000000000000000000000000000000000000000000000000000000000000000000000000000000000000000000000000000000000000000000000000000000000000000000000000000000000000000000000000000000000000000000000000000000000000000000000000000000000000000",
                    "decodedMethod": {
                        "callParams": [
                            {
                                "name": "addrs",
                                "type": "address[14]",
                                "value": [
                                    "0x7be8076f4ea4a4ad08075c2508e481d6c946d12b",
                                    "0x5d3266e87e5818a3ea2994d6917dcda0443e12c3",
                                    "0xd6a49e83d27f19c24a82bdb808439dd84146bfac",
                                    "0x0000000000000000000000000000000000000000",
                                    "0x30cdac3871c41a63767247c8d1a2de59f5714e78",
                                    "0x0000000000000000000000000000000000000000",
                                    "0x0000000000000000000000000000000000000000",
                                    "0x7be8076f4ea4a4ad08075c2508e481d6c946d12b",
                                    "0xd6a49e83d27f19c24a82bdb808439dd84146bfac",
                                    "0x0000000000000000000000000000000000000000",
                                    "0x5b3256965e7c3cf26e11fcaf296dfc8807c01073",
                                    "0x30cdac3871c41a63767247c8d1a2de59f5714e78",
                                    "0x0000000000000000000000000000000000000000",
                                    "0x0000000000000000000000000000000000000000"
                                ]
                            },
                            {
                                "name": "uints",
                                "type": "uint256[18]",
                                "value": [
                                    "650",
                                    "0",
                                    "0",
                                    "0",
                                    "188,800,000,000,000,000",
                                    "0",
                                    "1,632,984,936",
                                    "0",
                                    "50,216,479,508,204,952,672,420,584,565,390,651,208,147,287,561,742,671,106,545,333,414,924,481,271,569",
                                    "650",
                                    "0",
                                    "0",
                                    "0",
                                    "188,800,000,000,000,000",
                                    "0",
                                    "1,632,984,311",
                                    "1,648,622,761",
                                    "4,737,226,701,818,945,522,105,373,005,942,523,420,287,850,309,244,026,748,211,638,597,750,908,275,381"
                                ]
                            },
                            {
                                "name": "feeMethodsSidesKindsHowToCalls",
                                "type": "uint8[8]",
                                "value": [
                                    "1",
                                    "0",
                                    "0",
                                    "0",
                                    "1",
                                    "1",
                                    "0",
                                    "0"
                                ]
                            },
                            {
                                "name": "calldataBuy",
                                "type": "bytes",
                                "value": "0x23b872dd00000000000000000000000000000000000000000000000000000000000000000000000000000000000000005d3266e87e5818a3ea2994d6917dcda0443e12c300000000000000000000000000000000000000000000000000000000000017a2"
                            },
                            {
                                "name": "calldataSell",
                                "type": "bytes",
                                "value": "0x23b872dd000000000000000000000000d6a49e83d27f19c24a82bdb808439dd84146bfac000000000000000000000000000000000000000000000000000000000000000000000000000000000000000000000000000000000000000000000000000017a2"
                            },
                            {
                                "name": "replacementPatternBuy",
                                "type": "bytes",
                                "value": "0x00000000ffffffffffffffffffffffffffffffffffffffffffffffffffffffffffffffff00000000000000000000000000000000000000000000000000000000000000000000000000000000000000000000000000000000000000000000000000000000"
                            },
                            {
                                "name": "replacementPatternSell",
                                "type": "bytes",
                                "value": "0x000000000000000000000000000000000000000000000000000000000000000000000000ffffffffffffffffffffffffffffffffffffffffffffffffffffffffffffffff0000000000000000000000000000000000000000000000000000000000000000"
                            },
                            {
                                "name": "staticExtradataBuy",
                                "type": "bytes",
                                "value": "0x"
                            },
                            {
                                "name": "staticExtradataSell",
                                "type": "bytes",
                                "value": "0x"
                            },
                            {
                                "name": "vs",
                                "type": "uint8[2]",
                                "value": [
                                    "27",
                                    "27"
                                ]
                            },
                            {
                                "name": "rssMetadata",
                                "type": "bytes32[5]",
                                "value": [
                                    "0x89e7c63e9fe54a0a063e58ebc626cf49366aaedbefe15285c7fea6ed3e075fea",
                                    "0x28f63170009bde8ad02b5ddf1dbd94bcfaf9e199d54b6de7d2af73fc3960e764",
                                    "0x89e7c63e9fe54a0a063e58ebc626cf49366aaedbefe15285c7fea6ed3e075fea",
                                    "0x28f63170009bde8ad02b5ddf1dbd94bcfaf9e199d54b6de7d2af73fc3960e764",
                                    "0x0000000000000000000000000000000000000000000000000000000000000000"
                                ]
                            }
                        ],
                        "constructorArguments": "",
                        "name": "atomicMatch_",
                        "returnParams": [],
                        "signature": "atomicMatch_(address[14],uint256[18],uint8[8],bytes,bytes,bytes,bytes,bytes,bytes,uint8[2],bytes32[5])"
                    },
                    "errorInfo": "",
                    "fromAddress": "0x5d3266e87e5818a3ea2994d6917dcda0443e12c3",
                    "gasUsed": 216903,
                    "id": 0,
                    "methodDecoded": true,
                    "operation": "CALL",
                    "output": "",
                    "revert": false,
                    "revertMessage": "",
                    "selector": "0xab834bab",
                    "status": true,
                    "value": "0.1888"
                },
                "nodeType": 0
            },
            "1": {
                "invocation": {
                    "address": "0x0000000000000000000000000000000000000001",
                    "callData": "0xc91c0a695bc77771a85c32afec4d755acde9db567453c7e21ab624a8000000000000000000000000000000000000000000000000000000000000001b89e7c63e9fe54a0a063e58ebc626cf49366aaedbefe15285c7fea6ed3e075fea28f63170009bde8ad02b5ddf1dbd94bcfaf9e199d54b6de7d2af73fc3960e764",
                    "decodedMethod": {
                        "callParams": [
                            {
                                "name": "hash",
                                "type": "bytes32",
                                "value": "0x55c6f893c91c0a695bc77771a85c32afec4d755acde9db567453c7e21ab624a8"
                            },
                            {
                                "name": "v",
                                "type": "uint256",
                                "value": "27"
                            },
                            {
                                "name": "r",
                                "type": "bytes32",
                                "value": "0x89e7c63e9fe54a0a063e58ebc626cf49366aaedbefe15285c7fea6ed3e075fea"
                            },
                            {
                                "name": "s",
                                "type": "bytes32",
                                "value": "0x28f63170009bde8ad02b5ddf1dbd94bcfaf9e199d54b6de7d2af73fc3960e764"
                            }
                        ],
                        "constructorArguments": "",
                        "name": "ecrecover",
                        "returnParams": [
                            {
                                "name": "",
                                "type": "address",
                                "value": "0xd6a49e83d27f19c24a82bdb808439dd84146bfac"
                            }
                        ],
                        "signature": "ecrecover(bytes32,uint256,bytes32,bytes32)"
                    },
                    "errorInfo": "",
                    "fromAddress": "0x7be8076f4ea4a4ad08075c2508e481d6c946d12b",
                    "gasUsed": 3000,
                    "id": 1,
                    "methodDecoded": true,
                    "operation": "CALL",
                    "output": "0x000000000000000000000000d6a49e83d27f19c24a82bdb808439dd84146bfac",
                    "revert": false,
                    "revertMessage": "",
                    "selector": "0x55c6f893",
                    "status": true,
                    "value": "0"
                },
                "nodeType": 0
            },
            "10": {
                "invocation": {
                    "address": "0x30cdac3871c41a63767247c8d1a2de59f5714e78",
                    "callData": "0x000000000000000000000000d6a49e83d27f19c24a82bdb808439dd84146bfac0000000000000000000000005d3266e87e5818a3ea2994d6917dcda0443e12c300000000000000000000000000000000000000000000000000000000000017a200000000000000000000000000000000000000000000000000000000",
                    "decodedMethod": {
                        "callParams": [
                            {
                                "name": "from",
                                "type": "address",
                                "value": "0xd6a49e83d27f19c24a82bdb808439dd84146bfac"
                            },
                            {
                                "name": "to",
                                "type": "address",
                                "value": "0x5d3266e87e5818a3ea2994d6917dcda0443e12c3"
                            },
                            {
                                "decimalAvailable": true,
                                "name": "tokenId",
                                "type": "uint256",
                                "value": "6,050"
                            }
                        ],
                        "constructorArguments": "",
                        "name": "transferFrom",
                        "returnParams": [],
                        "signature": "transferFrom(address,address,uint256)"
                    },
                    "errorInfo": "",
                    "fromAddress": "0x7851fd9a90a0159397abd1c2f919ed0f07ba28ba",
                    "gasUsed": 71780,
                    "id": 10,
                    "methodDecoded": true,
                    "operation": "CALL",
                    "output": "",
                    "revert": false,
                    "revertMessage": "",
                    "selector": "0x23b872dd",
                    "status": true,
                    "value": "0"
                },
                "nodeType": 0
            },
            "11": {
                "event": {
                    "contract": "0x30cdac3871c41a63767247c8d1a2de59f5714e78",
                    "decodedLog": {
                        "name": "Approval",
                        "params": [
                            {
                                "name": "owner",
                                "type": "address",
                                "value": "0xd6a49e83d27f19c24a82bdb808439dd84146bfac"
                            },
                            {
                                "name": "approved",
                                "type": "address",
                                "value": "0x0000000000000000000000000000000000000000"
                            },
                            {
                                "decimalAvailable": true,
                                "name": "tokenId",
                                "type": "uint256",
                                "value": "6,050"
                            }
                        ],
                        "signature": "Approval(address,address,uint256)"
                    },
                    "id": 11,
                    "logData": "0x",
                    "logDecoded": true,
                    "operation": "EVENT",
                    "revert": false,
                    "status": true,
                    "topics": [
                        "0x8c5be1e5ebec7d5bd14f71427d1e84f3dd0314c0f7b2291e5b200ac8c7c3b925",
                        "0x000000000000000000000000d6a49e83d27f19c24a82bdb808439dd84146bfac",
                        "0x0000000000000000000000000000000000000000000000000000000000000000",
                        "0x00000000000000000000000000000000000000000000000000000000000017a2"
                    ]
                },
                "nodeType": 1
            },
            "12": {
                "event": {
                    "contract": "0x30cdac3871c41a63767247c8d1a2de59f5714e78",
                    "decodedLog": {
                        "name": "Transfer",
                        "params": [
                            {
                                "name": "from",
                                "type": "address",
                                "value": "0xd6a49e83d27f19c24a82bdb808439dd84146bfac"
                            },
                            {
                                "name": "to",
                                "type": "address",
                                "value": "0x5d3266e87e5818a3ea2994d6917dcda0443e12c3"
                            },
                            {
                                "decimalAvailable": true,
                                "name": "tokenId",
                                "type": "uint256",
                                "value": "6,050"
                            }
                        ],
                        "signature": "Transfer(address,address,uint256)"
                    },
                    "id": 12,
                    "logData": "0x",
                    "logDecoded": true,
                    "operation": "EVENT",
                    "revert": false,
                    "status": true,
                    "topics": [
                        "0xddf252ad1be2c89b69c2b068fc378daa952ba7f163c4a11628f55a4df523b3ef",
                        "0x000000000000000000000000d6a49e83d27f19c24a82bdb808439dd84146bfac",
                        "0x0000000000000000000000005d3266e87e5818a3ea2994d6917dcda0443e12c3",
                        "0x00000000000000000000000000000000000000000000000000000000000017a2"
                    ]
                },
                "nodeType": 1
            },
            "13": {
                "event": {
                    "contract": "0x7be8076f4ea4a4ad08075c2508e481d6c946d12b",
                    "decodedLog": {
                        "name": "OrdersMatched",
                        "params": [
                            {
                                "name": "maker",
                                "type": "address",
                                "value": "0xd6a49e83d27f19c24a82bdb808439dd84146bfac"
                            },
                            {
                                "name": "taker",
                                "type": "address",
                                "value": "0x5d3266e87e5818a3ea2994d6917dcda0443e12c3"
                            },
                            {
                                "name": "metadata",
                                "type": "bytes32",
                                "value": "0x0000000000000000000000000000000000000000000000000000000000000000"
                            },
                            {
                                "name": "buyHash",
                                "type": "bytes32",
                                "value": "0x0000000000000000000000000000000000000000000000000000000000000000"
                            },
                            {
                                "name": "sellHash",
                                "type": "bytes32",
                                "value": "0x55c6f893c91c0a695bc77771a85c32afec4d755acde9db567453c7e21ab624a8"
                            },
                            {
                                "name": "price",
                                "type": "uint256",
                                "value": "188,800,000,000,000,000"
                            }
                        ],
                        "signature": "OrdersMatched(bytes32,bytes32,address,address,uint256,bytes32)"
                    },
                    "id": 13,
                    "logData": "0x000000000000000000000000000000000000000000000000000000000000000055c6f893c91c0a695bc77771a85c32afec4d755acde9db567453c7e21ab624a8000000000000000000000000000000000000000000000000029ec09985980000",
                    "logDecoded": true,
                    "operation": "EVENT",
                    "revert": false,
                    "status": true,
                    "topics": [
                        "0xc4109843e0b7d514e4c093114b863f8e7d8d9a458c372cd51bfe526b588006c9",
                        "0x000000000000000000000000d6a49e83d27f19c24a82bdb808439dd84146bfac",
                        "0x0000000000000000000000005d3266e87e5818a3ea2994d6917dcda0443e12c3",
                        "0x0000000000000000000000000000000000000000000000000000000000000000"
                    ]
                },
                "nodeType": 1
            },
            "2": {
                "invocation": {
                    "address": "0xa5409ec958c83c3f309868babaca7c86dcb077c1",
                    "callData": "0x000000000000000000000000d6a49e83d27f19c24a82bdb808439dd84146bfac",
                    "decodedMethod": {
                        "callParams": [
                            {
                                "name": "",
                                "type": "address",
                                "value": "0xd6a49e83d27f19c24a82bdb808439dd84146bfac"
                            }
                        ],
                        "constructorArguments": "",
                        "name": "proxies",
                        "returnParams": [
                            {
                                "name": "",
                                "type": "address",
                                "value": "0x7851fd9a90a0159397abd1c2f919ed0f07ba28ba"
                            }
                        ],
                        "signature": "proxies(address)"
                    },
                    "errorInfo": "",
                    "fromAddress": "0x7be8076f4ea4a4ad08075c2508e481d6c946d12b",
                    "gasUsed": 2782,
                    "id": 2,
                    "methodDecoded": true,
                    "operation": "CALL",
                    "output": "0x0000000000000000000000007851fd9a90a0159397abd1c2f919ed0f07ba28ba",
                    "revert": false,
                    "revertMessage": "",
                    "selector": "0xc4552791",
                    "status": true,
                    "value": "0"
                },
                "nodeType": 0
            },
            "3": {
                "invocation": {
                    "address": "0xa5409ec958c83c3f309868babaca7c86dcb077c1",
                    "callData": "0x",
                    "decodedMethod": {
                        "callParams": [],
                        "constructorArguments": "",
                        "name": "delegateProxyImplementation",
                        "returnParams": [
                            {
                                "name": "",
                                "type": "address",
                                "value": "0xf9e266af4bca5890e2781812cc6a6e89495a79f2"
                            }
                        ],
                        "signature": "delegateProxyImplementation()"
                    },
                    "errorInfo": "",
                    "fromAddress": "0x7be8076f4ea4a4ad08075c2508e481d6c946d12b",
                    "gasUsed": 2613,
                    "id": 3,
                    "methodDecoded": true,
                    "operation": "CALL",
                    "output": "0x000000000000000000000000f9e266af4bca5890e2781812cc6a6e89495a79f2",
                    "revert": false,
                    "revertMessage": "",
                    "selector": "0x97204d8e",
                    "status": true,
                    "value": "0"
                },
                "nodeType": 0
            },
            "4": {
                "invocation": {
                    "address": "0x7851fd9a90a0159397abd1c2f919ed0f07ba28ba",
                    "callData": "0x",
                    "decodedMethod": {
                        "callParams": [],
                        "constructorArguments": "",
                        "name": "implementation",
                        "returnParams": [
                            {
                                "name": "",
                                "type": "address",
                                "value": "0xf9e266af4bca5890e2781812cc6a6e89495a79f2"
                            }
                        ],
                        "signature": "implementation()"
                    },
                    "errorInfo": "",
                    "fromAddress": "0x7be8076f4ea4a4ad08075c2508e481d6c946d12b",
                    "gasUsed": 2525,
                    "id": 4,
                    "methodDecoded": true,
                    "operation": "CALL",
                    "output": "0x000000000000000000000000f9e266af4bca5890e2781812cc6a6e89495a79f2",
                    "revert": false,
                    "revertMessage": "",
                    "selector": "0x5c60da1b",
                    "status": true,
                    "value": "0"
                },
                "nodeType": 0
            },
            "5": {
                "invocation": {
                    "address": "0x5b3256965e7c3cf26e11fcaf296dfc8807c01073",
                    "callData": "0x",
                    "decodedMethod": null,
                    "errorInfo": "",
                    "fromAddress": "0x7be8076f4ea4a4ad08075c2508e481d6c946d12b",
                    "gasUsed": 0,
                    "id": 5,
                    "methodDecoded": false,
                    "operation": "CALL",
                    "output": "",
                    "revert": false,
                    "revertMessage": "",
                    "selector": "fallback",
                    "status": true,
                    "value": "0.012272"
                },
                "nodeType": 0
            },
            "6": {
                "invocation": {
                    "address": "0xd6a49e83d27f19c24a82bdb808439dd84146bfac",
                    "callData": "0x",
                    "decodedMethod": null,
                    "errorInfo": "",
                    "fromAddress": "0x7be8076f4ea4a4ad08075c2508e481d6c946d12b",
                    "gasUsed": 0,
                    "id": 6,
                    "methodDecoded": false,
                    "operation": "CALL",
                    "output": "",
                    "revert": false,
                    "revertMessage": "",
                    "selector": "fallback",
                    "status": true,
                    "value": "0.176528"
                },
                "nodeType": 0
            },
            "7": {
                "invocation": {
                    "address": "0x7851fd9a90a0159397abd1c2f919ed0f07ba28ba",
                    "callData": "0x00000000000000000000000030cdac3871c41a63767247c8d1a2de59f5714e7800000000000000000000000000000000000000000000000000000000000000000000000000000000000000000000000000000000000000000000000000000060000000000000000000000000000000000000000000000000000000000000006423b872dd000000000000000000000000d6a49e83d27f19c24a82bdb808439dd84146bfac0000000000000000000000005d3266e87e5818a3ea2994d6917dcda0443e12c300000000000000000000000000000000000000000000000000000000000017a200000000000000000000000000000000000000000000000000000000",
                    "decodedMethod": {
                        "callParams": [
                            {
                                "name": "dest",
                                "type": "address",
                                "value": "0x30cdac3871c41a63767247c8d1a2de59f5714e78"
                            },
                            {
                                "name": "howToCall",
                                "type": "uint8",
                                "value": "0"
                            },
                            {
                                "name": "calldata",
                                "type": "bytes",
                                "value": "0x23b872dd000000000000000000000000d6a49e83d27f19c24a82bdb808439dd84146bfac0000000000000000000000005d3266e87e5818a3ea2994d6917dcda0443e12c300000000000000000000000000000000000000000000000000000000000017a2"
                            }
                        ],
                        "constructorArguments": "",
                        "name": "proxy",
                        "returnParams": [
                            {
                                "name": "result",
                                "type": "bool",
                                "value": true
                            }
                        ],
                        "signature": "proxy(address,uint8,bytes)"
                    },
                    "errorInfo": "",
                    "fromAddress": "0x7be8076f4ea4a4ad08075c2508e481d6c946d12b",
                    "gasUsed": 83937,
                    "id": 7,
                    "methodDecoded": true,
                    "operation": "CALL",
                    "output": "0x0000000000000000000000000000000000000000000000000000000000000001",
                    "revert": false,
                    "revertMessage": "",
                    "selector": "0x1b0f7ba9",
                    "status": true,
                    "value": "0"
                },
                "nodeType": 0
            },
            "8": {
                "invocation": {
                    "address": "0xf9e266af4bca5890e2781812cc6a6e89495a79f2",
                    "callData": "0x00000000000000000000000030cdac3871c41a63767247c8d1a2de59f5714e7800000000000000000000000000000000000000000000000000000000000000000000000000000000000000000000000000000000000000000000000000000060000000000000000000000000000000000000000000000000000000000000006423b872dd000000000000000000000000d6a49e83d27f19c24a82bdb808439dd84146bfac0000000000000000000000005d3266e87e5818a3ea2994d6917dcda0443e12c300000000000000000000000000000000000000000000000000000000000017a200000000000000000000000000000000000000000000000000000000",
                    "decodedMethod": {
                        "callParams": [
                            {
                                "name": "dest",
                                "type": "address",
                                "value": "0x30cdac3871c41a63767247c8d1a2de59f5714e78"
                            },
                            {
                                "name": "howToCall",
                                "type": "uint8",
                                "value": "0"
                            },
                            {
                                "name": "calldata",
                                "type": "bytes",
                                "value": "0x23b872dd000000000000000000000000d6a49e83d27f19c24a82bdb808439dd84146bfac0000000000000000000000005d3266e87e5818a3ea2994d6917dcda0443e12c300000000000000000000000000000000000000000000000000000000000017a2"
                            }
                        ],
                        "constructorArguments": "",
                        "name": "proxy",
                        "returnParams": [
                            {
                                "name": "result",
                                "type": "bool",
                                "value": true
                            }
                        ],
                        "signature": "proxy(address,uint8,bytes)"
                    },
                    "errorInfo": "",
                    "fromAddress": "0x7851fd9a90a0159397abd1c2f919ed0f07ba28ba",
                    "gasUsed": 80677,
                    "id": 8,
                    "methodDecoded": true,
                    "operation": "DELEGATECALL",
                    "output": "0x0000000000000000000000000000000000000000000000000000000000000001",
                    "revert": false,
                    "revertMessage": "",
                    "selector": "0x1b0f7ba9",
                    "status": true,
                    "value": "0"
                },
                "nodeType": 0
            },
            "9": {
                "invocation": {
                    "address": "0xa5409ec958c83c3f309868babaca7c86dcb077c1",
                    "callData": "0x0000000000000000000000007be8076f4ea4a4ad08075c2508e481d6c946d12b",
                    "decodedMethod": {
                        "callParams": [
                            {
                                "name": "",
                                "type": "address",
                                "value": "0x7be8076f4ea4a4ad08075c2508e481d6c946d12b"
                            }
                        ],
                        "constructorArguments": "",
                        "name": "contracts",
                        "returnParams": [
                            {
                                "name": "",
                                "type": "bool",
                                "value": true
                            }
                        ],
                        "signature": "contracts(address)"
                    },
                    "errorInfo": "",
                    "fromAddress": "0x7851fd9a90a0159397abd1c2f919ed0f07ba28ba",
                    "gasUsed": 2553,
                    "id": 9,
                    "methodDecoded": true,
                    "operation": "CALL",
                    "output": "0x0000000000000000000000000000000000000000000000000000000000000001",
                    "revert": false,
                    "revertMessage": "",
                    "selector": "0x69dc9ff3",
                    "status": true,
                    "value": "0"
                },
                "nodeType": 0
            }
        },
        "gasFlame": [
            {
                "children": [
                    {
                        "children": [
                            {
                                "children": [],
                                "depth": 0,
                                "name": "Initial Gas",
                                "value": 36844
                            },
                            {
                                "children": [
                                    {
                                        "children": [],
                                        "depth": 1,
                                        "name": "ecrecover",
                                        "value": 3000
                                    },
                                    {
                                        "children": [],
                                        "depth": 1,
                                        "name": "proxies",
                                        "value": 2782
                                    },
                                    {
                                        "children": [],
                                        "depth": 1,
                                        "name": "delegateProxyImplementation",
                                        "value": 2613
                                    },
                                    {
                                        "children": [],
                                        "depth": 1,
                                        "name": "implementation",
                                        "value": 2525
                                    },
                                    {
                                        "children": [],
                                        "depth": 1,
                                        "name": "fallback",
                                        "value": 0
                                    },
                                    {
                                        "children": [],
                                        "depth": 1,
                                        "name": "fallback",
                                        "value": 0
                                    },
                                    {
                                        "children": [
                                            {
                                                "children": [
                                                    {
                                                        "children": [],
                                                        "depth": 3,
                                                        "name": "contracts",
                                                        "value": 2553
                                                    },
                                                    {
                                                        "children": [],
                                                        "depth": 3,
                                                        "name": "transferFrom",
                                                        "value": 71780
                                                    }
                                                ],
                                                "depth": 2,
                                                "name": "proxy",
                                                "value": 80677
                                            }
                                        ],
                                        "depth": 1,
                                        "name": "proxy",
                                        "value": 83937
                                    }
                                ],
                                "depth": 0,
                                "name": "Executed Gas",
                                "value": 187659
                            }
                        ],
                        "depth": -1,
                        "name": "Actual Gas Used",
                        "value": 216903
                    },
                    {
                        "children": [],
                        "depth": -1,
                        "name": "Refunded Gas",
                        "value": 7600
                    }
                ],
                "depth": -2,
                "name": "Total Gas",
                "value": 224503
            }
        ],
        "isConfirmed": true,
        "mainTrace": [
            {
                "children": [
                    {
                        "children": [
                            {
                                "children": [],
                                "depth": 1,
                                "id": 1,
                                "order": 1
                            },
                            {
                                "children": [],
                                "depth": 1,
                                "id": 2,
                                "order": 2
                            },
                            {
                                "children": [],
                                "depth": 1,
                                "id": 3,
                                "order": 3
                            },
                            {
                                "children": [],
                                "depth": 1,
                                "id": 4,
                                "order": 4
                            },
                            {
                                "children": [],
                                "depth": 1,
                                "id": 5,
                                "order": 5
                            },
                            {
                                "children": [],
                                "depth": 1,
                                "id": 6,
                                "order": 6
                            },
                            {
                                "children": [
                                    {
                                        "children": [
                                            {
                                                "children": [],
                                                "depth": 3,
                                                "id": 9,
                                                "order": 9
                                            },
                                            {
                                                "children": [
                                                    {
                                                        "children": [],
                                                        "depth": 4,
                                                        "id": 11,
                                                        "order": 11
                                                    },
                                                    {
                                                        "children": [],
                                                        "depth": 4,
                                                        "id": 12,
                                                        "order": 12
                                                    }
                                                ],
                                                "depth": 3,
                                                "id": 10,
                                                "order": 10
                                            }
                                        ],
                                        "depth": 2,
                                        "id": 8,
                                        "order": 8
                                    }
                                ],
                                "depth": 1,
                                "id": 7,
                                "order": 7
                            },
                            {
                                "children": [],
                                "depth": 1,
                                "id": 13,
                                "order": 13
                            }
                        ],
                        "depth": 0,
                        "id": 0,
                        "order": 0
                    }
                ],
                "depth": -1,
                "id": -1,
                "order": -1
            }
        ],
        "mainTraceNodeCount": 14,
        "parentIdMap": {
            "0": -1,
            "1": 0,
            "10": 8,
            "11": 10,
            "12": 10,
            "13": 0,
            "2": 0,
            "3": 0,
            "4": 0,
            "5": 0,
            "6": 0,
            "7": 0,
            "8": 7,
            "9": 8
        },
        "tidyTrace": [
            {
                "children": [
                    {
                        "children": [
                            {
                                "children": [],
                                "depth": 1,
                                "id": 1,
                                "order": 1
                            },
                            {
                                "children": [],
                                "depth": 1,
                                "id": 2,
                                "order": 2
                            },
                            {
                                "children": [],
                                "depth": 1,
                                "id": 3,
                                "order": 3
                            },
                            {
                                "children": [],
                                "depth": 1,
                                "id": 4,
                                "order": 4
                            },
                            {
                                "children": [],
                                "depth": 1,
                                "id": 5,
                                "order": 5
                            },
                            {
                                "children": [],
                                "depth": 1,
                                "id": 6,
                                "order": 6
                            },
                            {
                                "children": [
                                    {
                                        "children": [
                                            {
                                                "children": [],
                                                "depth": 3,
                                                "id": 9,
                                                "order": 9
                                            },
                                            {
                                                "children": [
                                                    {
                                                        "children": [],
                                                        "depth": 4,
                                                        "id": 11,
                                                        "order": 11
                                                    },
                                                    {
                                                        "children": [],
                                                        "depth": 4,
                                                        "id": 12,
                                                        "order": 12
                                                    }
                                                ],
                                                "depth": 3,
                                                "id": 10,
                                                "order": 10
                                            }
                                        ],
                                        "depth": 2,
                                        "id": 8,
                                        "order": 8
                                    }
                                ],
                                "depth": 1,
                                "id": 7,
                                "order": 7
                            },
                            {
                                "children": [],
                                "depth": 1,
                                "id": 13,
                                "order": 13
                            }
                        ],
                        "depth": 0,
                        "id": 0,
                        "order": 0
                    }
                ],
                "depth": -1,
                "id": -1,
                "order": -1
            }
        ],
        "tidyTraceNodeCount": 14
    },
    "state_change": {
        "stateChanges": [
            {
                "address": "0x30cdac3871c41a63767247c8d1a2de59f5714e78",
                "erc": "ERC-721",
                "slots": [
                    {
                        "current": "0x00000000000000000000000000000000000000000000000000000000000017a2",
                        "key": "0x3eab2c9f67e4552e7926325376f704d24994719528b6064538aef86210f65590",
                        "prev": "0x0000000000000000000000000000000000000000000000000000000000000000"
                    },
                    {
                        "current": "0x0000000000000000000000000000000000000000000000000000000000000022",
                        "key": "0x8ac63cd8dcd3682a5c27c467c7344c10cbc1bc409ac75de57a9f048d0582a6fa",
                        "prev": "0x0000000000000000000000000000000000000000000000000000000000000023"
                    },
                    {
                        "current": "0x0000000000000000000000000000000000000000000000000000000000000004",
                        "key": "0x721d471381f32808772eb8793d668cddcd0c147bb5f7e71554e3cc193675deb3",
                        "prev": "0x0000000000000000000000000000000000000000000000000000000000000003"
                    },
                    {
                        "current": "0x0000000000000000000000005d3266e87e5818a3ea2994d6917dcda0443e12c3",
                        "key": "0xb94b9a29ff009aa26055d8e5ddd398cad06d7c86eca3f7a5e06c029bee17658d",
                        "prev": "0x000000000000000000000000d6a49e83d27f19c24a82bdb808439dd84146bfac"
                    },
                    {
                        "current": "0x00000000000000000000000000000000000000000000000000000000000017a1",
                        "key": "0x62143b7f12059f53acdf8648ccda860e691bed772684e2df8eb676396977df16",
                        "prev": "0x00000000000000000000000000000000000000000000000000000000000017a2"
                    },
                    {
                        "current": "0x000000000000000000000000000000000000000000000000000000000000001d",
                        "key": "0x6971aedab59087793b7b619727961bf26ce046f5037bd4ce832c788cc9b6ea48",
                        "prev": "0x0000000000000000000000000000000000000000000000000000000000000022"
                    },
                    {
                        "current": "0x0000000000000000000000000000000000000000000000000000000000000003",
                        "key": "0x6cdff912f2adf724a25f6a4f64a2cd8546ed28b10d0d946bdc3a17567646a491",
                        "prev": "0x000000000000000000000000000000000000000000000000000000000000001d"
                    },
                    {
                        "current": "0x0000000000000000000000000000000000000000000000000000000000000000",
                        "key": "0x86158581d55985749c528b7221d3b9570c71c9e8a60a19546aeb71d029859db1",
                        "prev": "0x00000000000000000000000000000000000000000000000000000000000017a1"
                    }
                ],
                "storageVariables": [
                    {
                        "name": "_owners",
                        "type": "mapping(uint256 => address)",
                        "value": {
                            "pairs": [
                                {
                                    "key": "6050",
                                    "value": {
                                        "current": "0x5d3266e87e5818a3ea2994d6917dcda0443e12c3",
                                        "prev": "0xd6a49e83d27f19c24a82bdb808439dd84146bfac",
                                        "typeTag": 1
                                    }
                                }
                            ],
                            "typeTag": 4
                        }
                    },
                    {
                        "name": "_ownedTokensIndex",
                        "type": "mapping(uint256 => uint256)",
                        "value": {
                            "pairs": [
                                {
                                    "key": "6049",
                                    "value": {
                                        "current": "29",
                                        "prev": "34",
                                        "typeTag": 1
                                    }
                                },
                                {
                                    "key": "6050",
                                    "value": {
                                        "current": "3",
                                        "prev": "29",
                                        "typeTag": 1
                                    }
                                }
                            ],
                            "typeTag": 4
                        }
                    },
                    {
                        "name": "_ownedTokens",
                        "type": "mapping(address => mapping(uint256 => uint256))",
                        "value": {
                            "pairs": [
                                {
                                    "key": "0x5d3266e87e5818a3ea2994d6917dcda0443e12c3",
                                    "value": {
                                        "pairs": [
                                            {
                                                "key": "3",
                                                "value": {
                                                    "current": "6050",
                                                    "prev": "0",
                                                    "typeTag": 1
                                                }
                                            }
                                        ],
                                        "typeTag": 4
                                    }
                                },
                                {
                                    "key": "0xd6a49e83d27f19c24a82bdb808439dd84146bfac",
                                    "value": {
                                        "pairs": [
                                            {
                                                "key": "29",
                                                "value": {
                                                    "current": "6049",
                                                    "prev": "6050",
                                                    "typeTag": 1
                                                }
                                            },
                                            {
                                                "key": "34",
                                                "value": {
                                                    "current": "0",
                                                    "prev": "6049",
                                                    "typeTag": 1
                                                }
                                            }
                                        ],
                                        "typeTag": 4
                                    }
                                }
                            ],
                            "typeTag": 4
                        }
                    },
                    {
                        "name": "_balances",
                        "type": "mapping(address => uint256)",
                        "value": {
                            "pairs": [
                                {
                                    "key": "0x5d3266e87e5818a3ea2994d6917dcda0443e12c3",
                                    "value": {
                                        "current": "4",
                                        "prev": "3",
                                        "typeTag": 1
                                    }
                                },
                                {
                                    "key": "0xd6a49e83d27f19c24a82bdb808439dd84146bfac",
                                    "value": {
                                        "current": "34",
                                        "prev": "35",
                                        "typeTag": 1
                                    }
                                }
                            ],
                            "typeTag": 4
                        }
                    }
                ]
            },
            {
                "address": "0x7be8076f4ea4a4ad08075c2508e481d6c946d12b",
                "erc": "",
                "slots": [
                    {
                        "current": "0x0000000000000000000000000000000000000000000000000000000000000001",
                        "key": "0xdd3506cab556a7ff4452828f275bfaa7f755ab5ffd31b6cc50f46734a09d2815",
                        "prev": "0x0000000000000000000000000000000000000000000000000000000000000000"
                    }
                ],
                "storageVariables": [
                    {
                        "name": "cancelledOrFinalized",
                        "type": "mapping(bytes32 => bool)",
                        "value": {
                            "pairs": [
                                {
                                    "key": "0x55c6f893c91c0a695bc77771a85c32afec4d755acde9db567453c7e21ab624a8",
                                    "value": {
                                        "current": "true",
                                        "prev": "false",
                                        "typeTag": 1
                                    }
                                }
                            ],
                            "typeTag": 4
                        }
                    }
                ]
            }
        ]
    }
}