{
    "balance_change": {
        "balanceChanges": [
            {
                "account": "0x79a666ab05291b497828530593440e783f8967a6",
                "assets": [
                    {
                        "address": "0xe41d2489571d322189246dafa5ebde1f4699f498",
                        "amount": "299.34699999999997",
                        "iconUrl": "https://assets.blocksec.com/icon/6c4cfed2c799afeb85b9e6ad087e66bdd588f8169e94dcf9e90f3048ceb6c6f3.png",
                        "isERC1155": false,
                        "isERC721": false,
                        "sign": false,
                        "value": ""
                    },
                    {
                        "address": "0xeeeeeeeeeeeeeeeeeeeeeeeeeeeeeeeeeeeeeeee",
                        "amount": "0.540478829427117957",
                        "iconUrl": "https://assets.blocksec.com/image/1663669189317-3.png",
                        "isERC1155": false,
                        "isERC721": false,
                        "sign": true,
                        "value": ""
                    }
                ]
            },
            {
                "account": "0x63825c174ab367968ec60f061753d3bbd36a0d8f",
                "assets": [
                    {
                        "address": "0xe41d2489571d322189246dafa5ebde1f4699f498",
                        "amount": "299.34699999999997",
                        "iconUrl": "https://assets.blocksec.com/icon/6c4cfed2c799afeb85b9e6ad087e66bdd588f8169e94dcf9e90f3048ceb6c6f3.png",
                        "isERC1155": false,
                        "isERC721": false,
                        "sign": true,
                        "value": ""
                    },
                    {
                        "address": "0xeeeeeeeeeeeeeeeeeeeeeeeeeeeeeeeeeeeeeeee",
                        "amount": "0.540478829427117957",
                        "iconUrl": "https://assets.blocksec.com/image/1663669189317-3.png",
                        "isERC1155": false,
                        "isERC721": false,
                        "sign": false,
                        "value": ""
                    }
                ]
            }
        ]
    },
    "profile": {
        "basic_info": {
            "baseFee": "",
            "blockNumber": 8746154,
            "callData": "0xf3541901000000000000000000000000750f4cbdeb98049c3dc3492b729b66f0fa56bcbf000000000000000000000000000000000000000000000000000000000000008000000000000000000000000000000000000000000000000000000000000000010000000000000000000000000000000000000000000000000000016dcf9e5b0f000000000000000000000000000000000000000000000000000000000000008431de7d15000000000000000000000000e41d2489571d322189246dafa5ebde1f4699f498000000000000000000000000eeeeeeeeeeeeeeeeeeeeeeeeeeeeeeeeeeeeeeee0000000000000000000000000000000000000000000000103a462e7ddadb0ad00000000000000000000000000000000000000000000000000006582d6763c8c200000000000000000000000000000000000000000000000000000000",
            "debugEnable": true,
            "errorInfo": "",
            "eventCount": 13,
            "feeRecipient": "0x04668ec2f57cc15c381b461b9fedab5d451c8f7f",
            "formatValue": "0",
            "gasLimit": 378676,
            "gasPrice": "1",
            "gasUsed": 271812,
            "intTxnCount": 21,
            "internalRevert": false,
            "internalRevertMessage": "",
            "isContractCreation": false,
            "isFlashloan": false,
            "maxFee": "",
            "nonce": 100,
            "overwritedBlockNumber": -1,
            "priorityFee": "",
            "receiver": "0x23b8cca9b21c884a7ea65b527e88378643712acb",
            "revertMessage": "",
            "sender": "0x79a666ab05291b497828530593440e783f8967a6",
            "simulationEnable": true,
            "sourceTxnHash": "0xcc9bbedc55702d34d92c270f0618accf411d227f79c258e64f68a42733bd5541",
            "status": true,
            "timestamp": "2019-10-15T13:32:13Z",
            "transactionFee": "0.000271812",
            "txnHash": "0xcc9bbedc55702d34d92c270f0618accf411d227f79c258e64f68a42733bd5541",
            "txnIndex": 165,
            "type": 0,
            "value": "0"
        },
        "fund_flow": [
            {
                "amount": "299.34699999999997",
                "from": "0x79a666ab05291b497828530593440e783f8967a6",
                "id": 1,
                "isERC1155": false,
                "isERC721": false,
                "isReverted": false,
                "order": 1,
                "to": "0x23b8cca9b21c884a7ea65b527e88378643712acb",
                "token": "0xe41d2489571d322189246dafa5ebde1f4699f498"
            },
            {
                "amount": "299.34699999999997",
                "from": "0x23b8cca9b21c884a7ea65b527e88378643712acb",
                "id": 2,
                "isERC1155": false,
                "isERC721": false,
                "isReverted": false,
                "order": 2,
                "to": "0x9ae49c0d7f8f9ef4b864e004fe86ac8294e20950",
                "token": "0xe41d2489571d322189246dafa5ebde1f4699f498"
            },
            {
                "amount": "299.34699999999997",
                "from": "0x9ae49c0d7f8f9ef4b864e004fe86ac8294e20950",
                "id": 3,
                "isERC1155": false,
                "isERC721": false,
                "isReverted": false,
                "order": 3,
                "to": "0x63825c174ab367968ec60f061753d3bbd36a0d8f",
                "token": "0xe41d2489571d322189246dafa5ebde1f4699f498"
            },
            {
                "amount": "0.540478829427117957",
                "from": "0x63825c174ab367968ec60f061753d3bbd36a0d8f",
                "id": 4,
                "isERC1155": false,
                "isERC721": false,
                "isReverted": false,
                "order": 4,
                "to": "0x9ae49c0d7f8f9ef4b864e004fe86ac8294e20950",
                "token": "0xeeeeeeeeeeeeeeeeeeeeeeeeeeeeeeeeeeeeeeee"
            },
            {
                "amount": "0.540478829427117957",
                "from": "0x9ae49c0d7f8f9ef4b864e004fe86ac8294e20950",
                "id": 5,
                "isERC1155": false,
                "isERC721": false,
                "isReverted": false,
                "order": 5,
                "to": "0x79a666ab05291b497828530593440e783f8967a6",
                "token": "0xeeeeeeeeeeeeeeeeeeeeeeeeeeeeeeeeeeeeeeee"
            }
        ],
        "token_infos": [
            {
                "address": "0xe41d2489571d322189246dafa5ebde1f4699f498",
                "decimals": 18
            },
            {
                "address": "0xeeeeeeeeeeeeeeeeeeeeeeeeeeeeeeeeeeeeeeee",
                "decimals": 18
            },
            {
                "address": "0xc02aaa39b223fe8d0a0e5c4f27ead9083c756cc2",
                "decimals": 18
            }
        ]
    },
    "address_label": {
        "labels": [
            {
                "address": "0xdfc85c08d5e5924ab49750e006cf8a826ffb7b13",
                "label": "SanityRates"
            },
            {
                "address": "0x750f4cbdeb98049c3dc3492b729b66f0fa56bcbf",
                "label": "InstaTrade"
            },
            {
                "address": "0x0000000000000000000000000000000000000001",
                "label": "Precompiled"
            },
            {
                "address": "0xdd974d5c2e2928dea5f71b9825b8b646686bd200",
                "label": "Kyber: Old KNC Token"
            },
            {
                "address": "0x23b8cca9b21c884a7ea65b527e88378643712acb",
                "label": "UserWallet"
            },
            {
                "address": "0x0000000000000000000000000000000000000002",
                "label": "Precompiled"
            },
            {
                "address": "0x818e6fecd516ecc3849daf6845e3ec868087b755",
                "label": "Kyber: Proxy"
            },
            {
                "address": "0x498b3bfabe9f73db90d252bcd4fa9548cd0fd981",
                "label": "InstaDApp: Registry"
            },
            {
                "address": "0xe41d2489571d322189246dafa5ebde1f4699f498",
                "label": "0x: ZRX Token"
            },
            {
                "address": "0x9ae49c0d7f8f9ef4b864e004fe86ac8294e20950",
                "label": "Kyber: Old Contract"
            },
            {
                "address": "0x63825c174ab367968ec60f061753d3bbd36a0d8f",
                "label": "Kyber: Reserve"
            },
            {
                "address": "0x0000000000000000000000000000000000000003",
                "label": "Precompiled"
            },
            {
                "address": "0x0000000000000000000000000000000000000004",
                "label": "Precompiled"
            },
            {
                "address": "0xeeeeeeeeeeeeeeeeeeeeeeeeeeeeeeeeeeeeeeee",
                "label": "Ether"
            },
            {
                "address": "0x52166528fcc12681af996e409ee3a421a4e128a3",
                "label": "FeeBurner"
            },
            {
                "address": "0x798abda6cc246d0edba912092a2a3dbd3d11191b",
                "label": "Kyber: Conversion Rates"
            }
        ]
    },
    "trace": {
        "accountLabels": null,
        "dataMap": {
            "-1": {
                "invocation": {
                    "address": "0x79a666ab05291b497828530593440e783f8967a6",
                    "callData": "",
                    "decodedMethod": null,
                    "errorInfo": "",
                    "fromAddress": "",
                    "gasUsed": 0,
                    "id": -1,
                    "methodDecoded": false,
                    "operation": "",
                    "output": "",
                    "revert": false,
                    "revertMessage": "",
                    "selector": "",
                    "status": false,
                    "value": ""
                },
                "nodeType": 0
            },
            "0": {
                "invocation": {
                    "address": "0x23b8cca9b21c884a7ea65b527e88378643712acb",
                    "callData": "0x000000000000000000000000750f4cbdeb98049c3dc3492b729b66f0fa56bcbf000000000000000000000000000000000000000000000000000000000000008000000000000000000000000000000000000000000000000000000000000000010000000000000000000000000000000000000000000000000000016dcf9e5b0f000000000000000000000000000000000000000000000000000000000000008431de7d15000000000000000000000000e41d2489571d322189246dafa5ebde1f4699f498000000000000000000000000eeeeeeeeeeeeeeeeeeeeeeeeeeeeeeeeeeeeeeee0000000000000000000000000000000000000000000000103a462e7ddadb0ad00000000000000000000000000000000000000000000000000006582d6763c8c200000000000000000000000000000000000000000000000000000000",
                    "decodedMethod": {
                        "callParams": [
                            {
                                "name": "_target",
                                "type": "address",
                                "value": "0x750f4cbdeb98049c3dc3492b729b66f0fa56bcbf"
                            },
                            {
                                "name": "_data",
                                "type": "bytes",
                                "value": "0x31de7d15000000000000000000000000e41d2489571d322189246dafa5ebde1f4699f498000000000000000000000000eeeeeeeeeeeeeeeeeeeeeeeeeeeeeeeeeeeeeeee0000000000000000000000000000000000000000000000103a462e7ddadb0ad00000000000000000000000000000000000000000000000000006582d6763c8c2"
                            },
                            {
                                "name": "_src",
                                "type": "uint256",
                                "value": "1"
                            },
                            {
                                "name": "_session",
                                "type": "uint256",
                                "value": "1,571,146,324,751"
                            }
                        ],
                        "constructorArguments": "",
                        "name": "execute",
                        "returnParams": [
                            {
                                "name": "response",
                                "type": "bytes",
                                "value": "0x00000000000000000000000000000000000000000000000007802aa1bc9f4f85"
                            }
                        ],
                        "signature": "execute(address,bytes,uint256,uint256)"
                    },
                    "errorInfo": "",
                    "fromAddress": "0x79a666ab05291b497828530593440e783f8967a6",
                    "gasUsed": 271812,
                    "id": 0,
                    "methodDecoded": true,
                    "operation": "CALL",
                    "output": "0x0000000000000000000000000000000000000000000000000000000000000020000000000000000000000000000000000000000000000000000000000000002000000000000000000000000000000000000000000000000007802aa1bc9f4f85",
                    "revert": false,
                    "revertMessage": "",
                    "selector": "0xf3541901",
                    "status": true,
                    "value": "0"
                },
                "nodeType": 0
            },
            "1": {
                "event": {
                    "contract": "0x23b8cca9b21c884a7ea65b527e88378643712acb",
                    "decodedLog": {
                        "name": "LogNote",
                        "params": [
                            {
                                "name": "sig",
                                "type": "bytes4",
                                "value": "0xf3541901"
                            },
                            {
                                "name": "guy",
                                "type": "address",
                                "value": "0x79a666ab05291b497828530593440e783f8967a6"
                            },
                            {
                                "name": "foo",
                                "type": "bytes32",
                                "value": "0x000000000000000000000000750f4cbdeb98049c3dc3492b729b66f0fa56bcbf"
                            },
                            {
                                "name": "bar",
                                "type": "bytes32",
                                "value": "0x0000000000000000000000000000000000000000000000000000000000000080"
                            },
                            {
                                "name": "wad",
                                "type": "uint256",
                                "value": "0"
                            },
                            {
                                "name": "fax",
                                "type": "bytes",
                                "value": "0xf3541901000000000000000000000000750f4cbdeb98049c3dc3492b729b66f0fa56bcbf000000000000000000000000000000000000000000000000000000000000008000000000000000000000000000000000000000000000000000000000000000010000000000000000000000000000000000000000000000000000016dcf9e5b0f000000000000000000000000000000000000000000000000000000000000008431de7d15000000000000000000000000e41d2489571d322189246dafa5ebde1f4699f498000000000000000000000000eeeeeeeeeeeeeeeeeeeeeeeeeeeeeeeeeeeeeeee0000000000000000000000000000000000000000000000103a462e7ddadb0ad00000000000000000000000000000000000000000000000000006582d6763c8c200000000000000000000000000000000000000000000000000000000"
                            }
                        ],
                        "signature": "LogNote(bytes4,address,bytes32,bytes32,uint256,bytes)"
                    },
                    "id": 1,
                    "logData": "0x0000000000000000000000000000000000000000000000000000000000000080000000000000000000000000000000000000000000000000000000000000000000000000000000000000000000000000000000000000000000000000000000600000000000000000000000000000000000000000000000000000000000000144f3541901000000000000000000000000750f4cbdeb98049c3dc3492b729b66f0fa56bcbf000000000000000000000000000000000000000000000000000000000000008000000000000000000000000000000000000000000000000000000000000000010000000000000000000000000000000000000000000000000000016dcf9e5b0f000000000000000000000000000000000000000000000000000000000000008431de7d15000000000000000000000000e41d2489571d322189246dafa5ebde1f4699f498000000000000000000000000eeeeeeeeeeeeeeeeeeeeeeeeeeeeeeeeeeeeeeee0000000000000000000000000000000000000000000000103a462e7ddadb0ad00000000000000000000000000000000000000000000000000006582d6763c8c20000000000000000000000000000000000000000000000000000000000000000000000000000000000000000000000000000000000000000",
                    "logDecoded": true,
                    "operation": "EVENT",
                    "revert": false,
                    "status": true,
                    "topics": [
                        "0x644843f351d3fba4abcd60109eaff9f54bac8fb8ccf0bab941009c21df21cf31",
                        "0xf354190100000000000000000000000000000000000000000000000000000000",
                        "0x00000000000000000000000079a666ab05291b497828530593440e783f8967a6",
                        "0x000000000000000000000000750f4cbdeb98049c3dc3492b729b66f0fa56bcbf"
                    ]
                },
                "nodeType": 1
            },
            "10": {
                "invocation": {
                    "address": "0x818e6fecd516ecc3849daf6845e3ec868087b755",
                    "callData": "0x000000000000000000000000e41d2489571d322189246dafa5ebde1f4699f4980000000000000000000000000000000000000000000000103a462e7ddadb0ad0000000000000000000000000eeeeeeeeeeeeeeeeeeeeeeeeeeeeeeeeeeeeeeee00000000000000000000000079a666ab05291b497828530593440e783f8967a680000000000000000000000000000000000000000000000000000000000000000000000000000000000000000000000000000000000000000006582d6763c8c20000000000000000000000007284a8451d9a0e7dc62b3a71c0593ea2ec5c5638",
                    "decodedMethod": {
                        "callParams": [
                            {
                                "name": "src",
                                "type": "address",
                                "value": "0xe41d2489571d322189246dafa5ebde1f4699f498"
                            },
                            {
                                "name": "srcAmount",
                                "type": "uint256",
                                "value": "299,346,999,999,999,970,000"
                            },
                            {
                                "name": "dest",
                                "type": "address",
                                "value": "0xeeeeeeeeeeeeeeeeeeeeeeeeeeeeeeeeeeeeeeee"
                            },
                            {
                                "name": "destAddress",
                                "type": "address",
                                "value": "0x79a666ab05291b497828530593440e783f8967a6"
                            },
                            {
                                "name": "maxDestAmount",
                                "type": "uint256",
                                "value": "57,896,044,618,658,097,711,785,492,504,343,953,926,634,992,332,820,282,019,728,792,003,956,564,819,968"
                            },
                            {
                                "name": "minConversionRate",
                                "type": "uint256",
                                "value": "1,785,801,891,629,250"
                            },
                            {
                                "name": "walletId",
                                "type": "address",
                                "value": "0x7284a8451d9a0e7dc62b3a71c0593ea2ec5c5638"
                            }
                        ],
                        "constructorArguments": "",
                        "name": "trade",
                        "returnParams": [
                            {
                                "name": "",
                                "type": "uint256",
                                "value": "540,478,829,427,117,957"
                            }
                        ],
                        "signature": "trade(address,uint256,address,address,uint256,uint256,address)"
                    },
                    "errorInfo": "",
                    "fromAddress": "0x23b8cca9b21c884a7ea65b527e88378643712acb",
                    "gasUsed": 177145,
                    "id": 10,
                    "methodDecoded": true,
                    "operation": "CALL",
                    "output": "0x00000000000000000000000000000000000000000000000007802aa1bc9f4f85",
                    "revert": false,
                    "revertMessage": "",
                    "selector": "0xcb3c28c7",
                    "status": true,
                    "value": "0"
                },
                "nodeType": 0
            },
            "11": {
                "invocation": {
                    "address": "0xe41d2489571d322189246dafa5ebde1f4699f498",
                    "callData": "0x00000000000000000000000023b8cca9b21c884a7ea65b527e88378643712acb",
                    "decodedMethod": {
                        "callParams": [
                            {
                                "name": "_owner",
                                "type": "address",
                                "value": "0x23b8cca9b21c884a7ea65b527e88378643712acb"
                            }
                        ],
                        "constructorArguments": "",
                        "name": "balanceOf",
                        "returnParams": [
                            {
                                "decimalAvailable": true,
                                "name": "",
                                "type": "uint256",
                                "value": "299,346,999,999,999,970,000"
                            }
                        ],
                        "signature": "balanceOf(address)"
                    },
                    "errorInfo": "",
                    "fromAddress": "0x818e6fecd516ecc3849daf6845e3ec868087b755",
                    "gasUsed": 637,
                    "id": 11,
                    "methodDecoded": true,
                    "operation": "CALL",
                    "output": "0x0000000000000000000000000000000000000000000000103a462e7ddadb0ad0",
                    "revert": false,
                    "revertMessage": "",
                    "selector": "0x70a08231",
                    "status": true,
                    "value": "0"
                },
                "nodeType": 0
            },
            "12": {
                "invocation": {
                    "address": "0xe41d2489571d322189246dafa5ebde1f4699f498",
                    "callData": "0x00000000000000000000000023b8cca9b21c884a7ea65b527e88378643712acb0000000000000000000000009ae49c0d7f8f9ef4b864e004fe86ac8294e209500000000000000000000000000000000000000000000000103a462e7ddadb0ad0",
                    "decodedMethod": {
                        "callParams": [
                            {
                                "name": "_from",
                                "type": "address",
                                "value": "0x23b8cca9b21c884a7ea65b527e88378643712acb"
                            },
                            {
                                "name": "_to",
                                "type": "address",
                                "value": "0x9ae49c0d7f8f9ef4b864e004fe86ac8294e20950"
                            },
                            {
                                "decimalAvailable": true,
                                "name": "_value",
                                "type": "uint256",
                                "value": "299,346,999,999,999,970,000"
                            }
                        ],
                        "constructorArguments": "",
                        "name": "transferFrom",
                        "returnParams": [
                            {
                                "name": "",
                                "type": "bool",
                                "value": true
                            }
                        ],
                        "signature": "transferFrom(address,address,uint256)"
                    },
                    "errorInfo": "",
                    "fromAddress": "0x818e6fecd516ecc3849daf6845e3ec868087b755",
                    "gasUsed": 19661,
                    "id": 12,
                    "methodDecoded": true,
                    "operation": "CALL",
                    "output": "0x0000000000000000000000000000000000000000000000000000000000000001",
                    "revert": false,
                    "revertMessage": "",
                    "selector": "0x23b872dd",
                    "status": true,
                    "value": "0"
                },
                "nodeType": 0
            },
            "13": {
                "event": {
                    "contract": "0xe41d2489571d322189246dafa5ebde1f4699f498",
                    "decodedLog": {
                        "name": "Transfer",
                        "params": [
                            {
                                "name": "_from",
                                "type": "address",
                                "value": "0x23b8cca9b21c884a7ea65b527e88378643712acb"
                            },
                            {
                                "name": "_to",
                                "type": "address",
                                "value": "0x9ae49c0d7f8f9ef4b864e004fe86ac8294e20950"
                            },
                            {
                                "decimalAvailable": true,
                                "name": "_value",
                                "type": "uint256",
                                "value": "299,346,999,999,999,970,000"
                            }
                        ],
                        "signature": "Transfer(address,address,uint256)"
                    },
                    "id": 13,
                    "logData": "0x0000000000000000000000000000000000000000000000103a462e7ddadb0ad0",
                    "logDecoded": true,
                    "operation": "EVENT",
                    "revert": false,
                    "status": true,
                    "topics": [
                        "0xddf252ad1be2c89b69c2b068fc378daa952ba7f163c4a11628f55a4df523b3ef",
                        "0x00000000000000000000000023b8cca9b21c884a7ea65b527e88378643712acb",
                        "0x0000000000000000000000009ae49c0d7f8f9ef4b864e004fe86ac8294e20950"
                    ]
                },
                "nodeType": 1
            },
            "14": {
                "invocation": {
                    "address": "0x9ae49c0d7f8f9ef4b864e004fe86ac8294e20950",
                    "callData": "0x00000000000000000000000023b8cca9b21c884a7ea65b527e88378643712acb000000000000000000000000e41d2489571d322189246dafa5ebde1f4699f4980000000000000000000000000000000000000000000000103a462e7ddadb0ad0000000000000000000000000eeeeeeeeeeeeeeeeeeeeeeeeeeeeeeeeeeeeeeee00000000000000000000000079a666ab05291b497828530593440e783f8967a680000000000000000000000000000000000000000000000000000000000000000000000000000000000000000000000000000000000000000006582d6763c8c20000000000000000000000007284a8451d9a0e7dc62b3a71c0593ea2ec5c563800000000000000000000000000000000000000000000000000000000000001200000000000000000000000000000000000000000000000000000000000000000",
                    "decodedMethod": {
                        "callParams": [
                            {
                                "name": "trader",
                                "type": "address",
                                "value": "0x23b8cca9b21c884a7ea65b527e88378643712acb"
                            },
                            {
                                "name": "src",
                                "type": "address",
                                "value": "0xe41d2489571d322189246dafa5ebde1f4699f498"
                            },
                            {
                                "name": "srcAmount",
                                "type": "uint256",
                                "value": "299,346,999,999,999,970,000"
                            },
                            {
                                "name": "dest",
                                "type": "address",
                                "value": "0xeeeeeeeeeeeeeeeeeeeeeeeeeeeeeeeeeeeeeeee"
                            },
                            {
                                "name": "destAddress",
                                "type": "address",
                                "value": "0x79a666ab05291b497828530593440e783f8967a6"
                            },
                            {
                                "name": "maxDestAmount",
                                "type": "uint256",
                                "value": "57,896,044,618,658,097,711,785,492,504,343,953,926,634,992,332,820,282,019,728,792,003,956,564,819,968"
                            },
                            {
                                "name": "minConversionRate",
                                "type": "uint256",
                                "value": "1,785,801,891,629,250"
                            },
                            {
                                "name": "walletId",
                                "type": "address",
                                "value": "0x7284a8451d9a0e7dc62b3a71c0593ea2ec5c5638"
                            },
                            {
                                "name": "hint",
                                "type": "bytes",
                                "value": "0x"
                            }
                        ],
                        "constructorArguments": "",
                        "name": "tradeWithHint",
                        "returnParams": [
                            {
                                "name": "",
                                "type": "uint256",
                                "value": "540,478,829,427,117,957"
                            }
                        ],
                        "signature": "tradeWithHint(address,address,uint256,address,address,uint256,uint256,address,bytes)"
                    },
                    "errorInfo": "",
                    "fromAddress": "0x818e6fecd516ecc3849daf6845e3ec868087b755",
                    "gasUsed": 140512,
                    "id": 14,
                    "methodDecoded": true,
                    "operation": "CALL",
                    "output": "0x00000000000000000000000000000000000000000000000007802aa1bc9f4f85",
                    "revert": false,
                    "revertMessage": "",
                    "selector": "0x088322ef",
                    "status": true,
                    "value": "0"
                },
                "nodeType": 0
            },
            "15": {
                "invocation": {
                    "address": "0xe41d2489571d322189246dafa5ebde1f4699f498",
                    "callData": "0x0000000000000000000000009ae49c0d7f8f9ef4b864e004fe86ac8294e20950",
                    "decodedMethod": {
                        "callParams": [
                            {
                                "name": "_owner",
                                "type": "address",
                                "value": "0x9ae49c0d7f8f9ef4b864e004fe86ac8294e20950"
                            }
                        ],
                        "constructorArguments": "",
                        "name": "balanceOf",
                        "returnParams": [
                            {
                                "decimalAvailable": true,
                                "name": "",
                                "type": "uint256",
                                "value": "299,347,000,000,000,045,705"
                            }
                        ],
                        "signature": "balanceOf(address)"
                    },
                    "errorInfo": "",
                    "fromAddress": "0x9ae49c0d7f8f9ef4b864e004fe86ac8294e20950",
                    "gasUsed": 637,
                    "id": 15,
                    "methodDecoded": true,
                    "operation": "CALL",
                    "output": "0x0000000000000000000000000000000000000000000000103a462e7ddadc3289",
                    "revert": false,
                    "revertMessage": "",
                    "selector": "0x70a08231",
                    "status": true,
                    "value": "0"
                },
                "nodeType": 0
            },
            "16": {
                "invocation": {
                    "address": "0x63825c174ab367968ec60f061753d3bbd36a0d8f",
                    "callData": "0x000000000000000000000000e41d2489571d322189246dafa5ebde1f4699f498000000000000000000000000eeeeeeeeeeeeeeeeeeeeeeeeeeeeeeeeeeeeeeee0000000000000000000000000000000000000000000000103a462e7ddadb0ad000000000000000000000000000000000000000000000000000000000008574aa",
                    "decodedMethod": {
                        "callParams": [
                            {
                                "name": "src",
                                "type": "address",
                                "value": "0xe41d2489571d322189246dafa5ebde1f4699f498"
                            },
                            {
                                "name": "dest",
                                "type": "address",
                                "value": "0xeeeeeeeeeeeeeeeeeeeeeeeeeeeeeeeeeeeeeeee"
                            },
                            {
                                "name": "srcQty",
                                "type": "uint256",
                                "value": "299,346,999,999,999,970,000"
                            },
                            {
                                "name": "blockNumber",
                                "type": "uint256",
                                "value": "8,746,154"
                            }
                        ],
                        "constructorArguments": "",
                        "name": "getConversionRate",
                        "returnParams": [
                            {
                                "name": "",
                                "type": "uint256",
                                "value": "1,805,526,126,626,016"
                            }
                        ],
                        "signature": "getConversionRate(address,address,uint256,uint256)"
                    },
                    "errorInfo": "",
                    "fromAddress": "0x9ae49c0d7f8f9ef4b864e004fe86ac8294e20950",
                    "gasUsed": 28582,
                    "id": 16,
                    "methodDecoded": true,
                    "operation": "CALL",
                    "output": "0x00000000000000000000000000000000000000000000000000066a1dcf6904e0",
                    "revert": false,
                    "revertMessage": "",
                    "selector": "0x7cd44272",
                    "status": true,
                    "value": "0"
                },
                "nodeType": 0
            },
            "17": {
                "invocation": {
                    "address": "0x798abda6cc246d0edba912092a2a3dbd3d11191b",
                    "callData": "0x000000000000000000000000e41d2489571d322189246dafa5ebde1f4699f49800000000000000000000000000000000000000000000000000000000008574aa00000000000000000000000000000000000000000000000000000000000000000000000000000000000000000000000000000000000000103a462e7ddadb0ad0",
                    "decodedMethod": {
                        "callParams": [
                            {
                                "name": "token",
                                "type": "address",
                                "value": "0xe41d2489571d322189246dafa5ebde1f4699f498"
                            },
                            {
                                "name": "currentBlockNumber",
                                "type": "uint256",
                                "value": "8,746,154"
                            },
                            {
                                "name": "buy",
                                "type": "bool",
                                "value": false
                            },
                            {
                                "name": "qty",
                                "type": "uint256",
                                "value": "299,346,999,999,999,970,000"
                            }
                        ],
                        "constructorArguments": "",
                        "name": "getRate",
                        "returnParams": [
                            {
                                "name": "",
                                "type": "uint256",
                                "value": "1,805,526,126,626,016"
                            }
                        ],
                        "signature": "getRate(address,uint256,bool,uint256)"
                    },
                    "errorInfo": "",
                    "fromAddress": "0x63825c174ab367968ec60f061753d3bbd36a0d8f",
                    "gasUsed": 19512,
                    "id": 17,
                    "methodDecoded": true,
                    "operation": "CALL",
                    "output": "0x00000000000000000000000000000000000000000000000000066a1dcf6904e0",
                    "revert": false,
                    "revertMessage": "",
                    "selector": "0xb8e9c22e",
                    "status": true,
                    "value": "0"
                },
                "nodeType": 0
            },
            "18": {
                "invocation": {
                    "address": "0xdfc85c08d5e5924ab49750e006cf8a826ffb7b13",
                    "callData": "0x000000000000000000000000e41d2489571d322189246dafa5ebde1f4699f498000000000000000000000000eeeeeeeeeeeeeeeeeeeeeeeeeeeeeeeeeeeeeeee",
                    "decodedMethod": {
                        "callParams": [
                            {
                                "name": "src",
                                "type": "address",
                                "value": "0xe41d2489571d322189246dafa5ebde1f4699f498"
                            },
                            {
                                "name": "dest",
                                "type": "address",
                                "value": "0xeeeeeeeeeeeeeeeeeeeeeeeeeeeeeeeeeeeeeeee"
                            }
                        ],
                        "constructorArguments": "",
                        "name": "getSanityRate",
                        "returnParams": [
                            {
                                "name": "",
                                "type": "uint256",
                                "value": "1,939,336,666,666,666"
                            }
                        ],
                        "signature": "getSanityRate(address,address)"
                    },
                    "errorInfo": "",
                    "fromAddress": "0x63825c174ab367968ec60f061753d3bbd36a0d8f",
                    "gasUsed": 1597,
                    "id": 18,
                    "methodDecoded": true,
                    "operation": "CALL",
                    "output": "0x0000000000000000000000000000000000000000000000000006e3d1011dd6aa",
                    "revert": false,
                    "revertMessage": "",
                    "selector": "0xa58092b7",
                    "status": true,
                    "value": "0"
                },
                "nodeType": 0
            },
            "19": {
                "invocation": {
                    "address": "0x63825c174ab367968ec60f061753d3bbd36a0d8f",
                    "callData": "0x000000000000000000000000e41d2489571d322189246dafa5ebde1f4699f4980000000000000000000000000000000000000000000000103a462e7ddadb0ad0000000000000000000000000eeeeeeeeeeeeeeeeeeeeeeeeeeeeeeeeeeeeeeee0000000000000000000000009ae49c0d7f8f9ef4b864e004fe86ac8294e2095000000000000000000000000000000000000000000000000000066a1dcf6904e00000000000000000000000000000000000000000000000000000000000000001",
                    "decodedMethod": {
                        "callParams": [
                            {
                                "name": "srcToken",
                                "type": "address",
                                "value": "0xe41d2489571d322189246dafa5ebde1f4699f498"
                            },
                            {
                                "name": "srcAmount",
                                "type": "uint256",
                                "value": "299,346,999,999,999,970,000"
                            },
                            {
                                "name": "destToken",
                                "type": "address",
                                "value": "0xeeeeeeeeeeeeeeeeeeeeeeeeeeeeeeeeeeeeeeee"
                            },
                            {
                                "name": "destAddress",
                                "type": "address",
                                "value": "0x9ae49c0d7f8f9ef4b864e004fe86ac8294e20950"
                            },
                            {
                                "name": "conversionRate",
                                "type": "uint256",
                                "value": "1,805,526,126,626,016"
                            },
                            {
                                "name": "validate",
                                "type": "bool",
                                "value": true
                            }
                        ],
                        "constructorArguments": "",
                        "name": "trade",
                        "returnParams": [
                            {
                                "name": "",
                                "type": "bool",
                                "value": true
                            }
                        ],
                        "signature": "trade(address,uint256,address,address,uint256,bool)"
                    },
                    "errorInfo": "",
                    "fromAddress": "0x9ae49c0d7f8f9ef4b864e004fe86ac8294e20950",
                    "gasUsed": 53487,
                    "id": 19,
                    "methodDecoded": true,
                    "operation": "CALL",
                    "output": "0x0000000000000000000000000000000000000000000000000000000000000001",
                    "revert": false,
                    "revertMessage": "",
                    "selector": "0x6cf69811",
                    "status": true,
                    "value": "0"
                },
                "nodeType": 0
            },
            "2": {
                "invocation": {
                    "address": "0x498b3bfabe9f73db90d252bcd4fa9548cd0fd981",
                    "callData": "0x000000000000000000000000750f4cbdeb98049c3dc3492b729b66f0fa56bcbf",
                    "decodedMethod": {
                        "callParams": [
                            {
                                "name": "_logicAddress",
                                "type": "address",
                                "value": "0x750f4cbdeb98049c3dc3492b729b66f0fa56bcbf"
                            }
                        ],
                        "constructorArguments": "",
                        "name": "logic",
                        "returnParams": [
                            {
                                "name": "",
                                "type": "bool",
                                "value": true
                            }
                        ],
                        "signature": "logic(address)"
                    },
                    "errorInfo": "",
                    "fromAddress": "0x23b8cca9b21c884a7ea65b527e88378643712acb",
                    "gasUsed": 1029,
                    "id": 2,
                    "methodDecoded": true,
                    "operation": "STATICCALL",
                    "output": "0x0000000000000000000000000000000000000000000000000000000000000001",
                    "revert": false,
                    "revertMessage": "",
                    "selector": "0x11390441",
                    "status": true,
                    "value": "0"
                },
                "nodeType": 0
            },
            "20": {
                "invocation": {
                    "address": "0x798abda6cc246d0edba912092a2a3dbd3d11191b",
                    "callData": "0x000000000000000000000000e41d2489571d322189246dafa5ebde1f4699f498ffffffffffffffffffffffffffffffffffffffffffffffefc5b9d1822524f530000000000000000000000000000000000000000000000000000000000000000000000000000000000000000000000000000000000000000000000000008574aa",
                    "decodedMethod": {
                        "callParams": [
                            {
                                "name": "token",
                                "type": "address",
                                "value": "0xe41d2489571d322189246dafa5ebde1f4699f498"
                            },
                            {
                                "name": "buyAmount",
                                "type": "int256",
                                "value": "-299,346,999,999,999,970,000"
                            },
                            {
                                "name": "rateUpdateBlock",
                                "type": "uint256",
                                "value": "0"
                            },
                            {
                                "name": "currentBlock",
                                "type": "uint256",
                                "value": "8,746,154"
                            }
                        ],
                        "constructorArguments": "",
                        "name": "recordImbalance",
                        "returnParams": [],
                        "signature": "recordImbalance(address,int256,uint256,uint256)"
                    },
                    "errorInfo": "",
                    "fromAddress": "0x63825c174ab367968ec60f061753d3bbd36a0d8f",
                    "gasUsed": 14759,
                    "id": 20,
                    "methodDecoded": true,
                    "operation": "CALL",
                    "output": "",
                    "revert": false,
                    "revertMessage": "",
                    "selector": "0xc6fd2103",
                    "status": true,
                    "value": "0"
                },
                "nodeType": 0
            },
            "21": {
                "invocation": {
                    "address": "0xe41d2489571d322189246dafa5ebde1f4699f498",
                    "callData": "0x0000000000000000000000009ae49c0d7f8f9ef4b864e004fe86ac8294e2095000000000000000000000000063825c174ab367968ec60f061753d3bbd36a0d8f0000000000000000000000000000000000000000000000103a462e7ddadb0ad0",
                    "decodedMethod": {
                        "callParams": [
                            {
                                "name": "_from",
                                "type": "address",
                                "value": "0x9ae49c0d7f8f9ef4b864e004fe86ac8294e20950"
                            },
                            {
                                "name": "_to",
                                "type": "address",
                                "value": "0x63825c174ab367968ec60f061753d3bbd36a0d8f"
                            },
                            {
                                "decimalAvailable": true,
                                "name": "_value",
                                "type": "uint256",
                                "value": "299,346,999,999,999,970,000"
                            }
                        ],
                        "constructorArguments": "",
                        "name": "transferFrom",
                        "returnParams": [
                            {
                                "name": "",
                                "type": "bool",
                                "value": true
                            }
                        ],
                        "signature": "transferFrom(address,address,uint256)"
                    },
                    "errorInfo": "",
                    "fromAddress": "0x63825c174ab367968ec60f061753d3bbd36a0d8f",
                    "gasUsed": 19661,
                    "id": 21,
                    "methodDecoded": true,
                    "operation": "CALL",
                    "output": "0x0000000000000000000000000000000000000000000000000000000000000001",
                    "revert": false,
                    "revertMessage": "",
                    "selector": "0x23b872dd",
                    "status": true,
                    "value": "0"
                },
                "nodeType": 0
            },
            "22": {
                "event": {
                    "contract": "0xe41d2489571d322189246dafa5ebde1f4699f498",
                    "decodedLog": {
                        "name": "Transfer",
                        "params": [
                            {
                                "name": "_from",
                                "type": "address",
                                "value": "0x9ae49c0d7f8f9ef4b864e004fe86ac8294e20950"
                            },
                            {
                                "name": "_to",
                                "type": "address",
                                "value": "0x63825c174ab367968ec60f061753d3bbd36a0d8f"
                            },
                            {
                                "decimalAvailable": true,
                                "name": "_value",
                                "type": "uint256",
                                "value": "299,346,999,999,999,970,000"
                            }
                        ],
                        "signature": "Transfer(address,address,uint256)"
                    },
                    "id": 22,
                    "logData": "0x0000000000000000000000000000000000000000000000103a462e7ddadb0ad0",
                    "logDecoded": true,
                    "operation": "EVENT",
                    "revert": false,
                    "status": true,
                    "topics": [
                        "0xddf252ad1be2c89b69c2b068fc378daa952ba7f163c4a11628f55a4df523b3ef",
                        "0x0000000000000000000000009ae49c0d7f8f9ef4b864e004fe86ac8294e20950",
                        "0x00000000000000000000000063825c174ab367968ec60f061753d3bbd36a0d8f"
                    ]
                },
                "nodeType": 1
            },
            "23": {
                "invocation": {
                    "address": "0x9ae49c0d7f8f9ef4b864e004fe86ac8294e20950",
                    "callData": "0x",
                    "decodedMethod": null,
                    "errorInfo": "",
                    "fromAddress": "0x63825c174ab367968ec60f061753d3bbd36a0d8f",
                    "gasUsed": 1943,
                    "id": 23,
                    "methodDecoded": false,
                    "operation": "CALL",
                    "output": "",
                    "revert": false,
                    "revertMessage": "",
                    "selector": "fallback",
                    "status": true,
                    "value": "0.540478829427117957"
                },
                "nodeType": 0
            },
            "24": {
                "event": {
                    "contract": "0x9ae49c0d7f8f9ef4b864e004fe86ac8294e20950",
                    "decodedLog": {
                        "name": "EtherReceival",
                        "params": [
                            {
                                "name": "sender",
                                "type": "address",
                                "value": "0x63825c174ab367968ec60f061753d3bbd36a0d8f"
                            },
                            {
                                "name": "amount",
                                "type": "uint256",
                                "value": "540,478,829,427,117,957"
                            }
                        ],
                        "signature": "EtherReceival(address,uint256)"
                    },
                    "id": 24,
                    "logData": "0x00000000000000000000000000000000000000000000000007802aa1bc9f4f85",
                    "logDecoded": true,
                    "operation": "EVENT",
                    "revert": false,
                    "status": true,
                    "topics": [
                        "0x75f33ed68675112c77094e7c5b073890598be1d23e27cd7f6907b4a7d98ac619",
                        "0x00000000000000000000000063825c174ab367968ec60f061753d3bbd36a0d8f"
                    ]
                },
                "nodeType": 1
            },
            "25": {
                "event": {
                    "contract": "0x63825c174ab367968ec60f061753d3bbd36a0d8f",
                    "decodedLog": {
                        "name": "TradeExecute",
                        "params": [
                            {
                                "name": "origin",
                                "type": "address",
                                "value": "0x9ae49c0d7f8f9ef4b864e004fe86ac8294e20950"
                            },
                            {
                                "name": "src",
                                "type": "address",
                                "value": "0xe41d2489571d322189246dafa5ebde1f4699f498"
                            },
                            {
                                "name": "srcAmount",
                                "type": "uint256",
                                "value": "299,346,999,999,999,970,000"
                            },
                            {
                                "name": "destToken",
                                "type": "address",
                                "value": "0xeeeeeeeeeeeeeeeeeeeeeeeeeeeeeeeeeeeeeeee"
                            },
                            {
                                "name": "destAmount",
                                "type": "uint256",
                                "value": "540,478,829,427,117,957"
                            },
                            {
                                "name": "destAddress",
                                "type": "address",
                                "value": "0x9ae49c0d7f8f9ef4b864e004fe86ac8294e20950"
                            }
                        ],
                        "signature": "TradeExecute(address,address,uint256,address,uint256,address)"
                    },
                    "id": 25,
                    "logData": "0x000000000000000000000000e41d2489571d322189246dafa5ebde1f4699f4980000000000000000000000000000000000000000000000103a462e7ddadb0ad0000000000000000000000000eeeeeeeeeeeeeeeeeeeeeeeeeeeeeeeeeeeeeeee00000000000000000000000000000000000000000000000007802aa1bc9f4f850000000000000000000000009ae49c0d7f8f9ef4b864e004fe86ac8294e20950",
                    "logDecoded": true,
                    "operation": "EVENT",
                    "revert": false,
                    "status": true,
                    "topics": [
                        "0xea9415385bae08fe9f6dc457b02577166790cde83bb18cc340aac6cb81b824de",
                        "0x0000000000000000000000009ae49c0d7f8f9ef4b864e004fe86ac8294e20950"
                    ]
                },
                "nodeType": 1
            },
            "26": {
                "invocation": {
                    "address": "0x79a666ab05291b497828530593440e783f8967a6",
                    "callData": "0x",
                    "decodedMethod": null,
                    "errorInfo": "",
                    "fromAddress": "0x9ae49c0d7f8f9ef4b864e004fe86ac8294e20950",
                    "gasUsed": 0,
                    "id": 26,
                    "methodDecoded": false,
                    "operation": "CALL",
                    "output": "",
                    "revert": false,
                    "revertMessage": "",
                    "selector": "fallback",
                    "status": true,
                    "value": "0.540478829427117957"
                },
                "nodeType": 0
            },
            "27": {
                "invocation": {
                    "address": "0x52166528fcc12681af996e409ee3a421a4e128a3",
                    "callData": "0x00000000000000000000000000000000000000000000000007802aa1bc9f4f8500000000000000000000000063825c174ab367968ec60f061753d3bbd36a0d8f0000000000000000000000007284a8451d9a0e7dc62b3a71c0593ea2ec5c5638",
                    "decodedMethod": {
                        "callParams": [
                            {
                                "name": "tradeWeiAmount",
                                "type": "uint256",
                                "value": "540,478,829,427,117,957"
                            },
                            {
                                "name": "reserve",
                                "type": "address",
                                "value": "0x63825c174ab367968ec60f061753d3bbd36a0d8f"
                            },
                            {
                                "name": "wallet",
                                "type": "address",
                                "value": "0x7284a8451d9a0e7dc62b3a71c0593ea2ec5c5638"
                            }
                        ],
                        "constructorArguments": "",
                        "name": "handleFees",
                        "returnParams": [
                            {
                                "name": "",
                                "type": "bool",
                                "value": true
                            }
                        ],
                        "signature": "handleFees(uint256,address,address)"
                    },
                    "errorInfo": "",
                    "fromAddress": "0x9ae49c0d7f8f9ef4b864e004fe86ac8294e20950",
                    "gasUsed": 19637,
                    "id": 27,
                    "methodDecoded": true,
                    "operation": "CALL",
                    "output": "0x0000000000000000000000000000000000000000000000000000000000000001",
                    "revert": false,
                    "revertMessage": "",
                    "selector": "0xfd062d3b",
                    "status": true,
                    "value": "0"
                },
                "nodeType": 0
            },
            "28": {
                "invocation": {
                    "address": "0xdd974d5c2e2928dea5f71b9825b8b646686bd200",
                    "callData": "0x",
                    "decodedMethod": {
                        "callParams": [],
                        "constructorArguments": "",
                        "name": "decimals",
                        "returnParams": [
                            {
                                "name": "",
                                "type": "uint256",
                                "value": "18"
                            }
                        ],
                        "signature": "decimals()"
                    },
                    "errorInfo": "",
                    "fromAddress": "0x52166528fcc12681af996e409ee3a421a4e128a3",
                    "gasUsed": 280,
                    "id": 28,
                    "methodDecoded": true,
                    "operation": "CALL",
                    "output": "0x0000000000000000000000000000000000000000000000000000000000000012",
                    "revert": false,
                    "revertMessage": "",
                    "selector": "0x313ce567",
                    "status": true,
                    "value": "0"
                },
                "nodeType": 0
            },
            "29": {
                "event": {
                    "contract": "0x52166528fcc12681af996e409ee3a421a4e128a3",
                    "decodedLog": {
                        "name": "AssignFeeToWallet",
                        "params": [
                            {
                                "name": "reserve",
                                "type": "address",
                                "value": "0x63825c174ab367968ec60f061753d3bbd36a0d8f"
                            },
                            {
                                "name": "wallet",
                                "type": "address",
                                "value": "0x7284a8451d9a0e7dc62b3a71c0593ea2ec5c5638"
                            },
                            {
                                "name": "walletFee",
                                "type": "uint256",
                                "value": "416,803,003,678,762,993"
                            }
                        ],
                        "signature": "AssignFeeToWallet(address,address,uint256)"
                    },
                    "id": 29,
                    "logData": "0x00000000000000000000000063825c174ab367968ec60f061753d3bbd36a0d8f0000000000000000000000007284a8451d9a0e7dc62b3a71c0593ea2ec5c563800000000000000000000000000000000000000000000000005c8c81f9f96a7f1",
                    "logDecoded": true,
                    "operation": "EVENT",
                    "revert": false,
                    "status": true,
                    "topics": [
                        "0x366bc34352215bf0bd3b527cfd6718605e1f5938777e42bcd8ed92f578368f52"
                    ]
                },
                "nodeType": 1
            },
            "3": {
                "event": {
                    "contract": "0x23b8cca9b21c884a7ea65b527e88378643712acb",
                    "decodedLog": {
                        "name": "LogExecute",
                        "params": [
                            {
                                "name": "target",
                                "type": "address",
                                "value": "0x750f4cbdeb98049c3dc3492b729b66f0fa56bcbf"
                            },
                            {
                                "name": "srcNum",
                                "type": "uint256",
                                "value": "1"
                            },
                            {
                                "name": "sessionNum",
                                "type": "uint256",
                                "value": "1,571,146,324,751"
                            }
                        ],
                        "signature": "LogExecute(address,uint256,uint256)"
                    },
                    "id": 3,
                    "logData": "0x000000000000000000000000750f4cbdeb98049c3dc3492b729b66f0fa56bcbf00000000000000000000000000000000000000000000000000000000000000010000000000000000000000000000000000000000000000000000016dcf9e5b0f",
                    "logDecoded": true,
                    "operation": "EVENT",
                    "revert": false,
                    "status": true,
                    "topics": [
                        "0xbd37415aaf130f9a169d66bc22d669b6a5aa55f384e7b41d105714eb8277b341"
                    ]
                },
                "nodeType": 1
            },
            "30": {
                "event": {
                    "contract": "0x52166528fcc12681af996e409ee3a421a4e128a3",
                    "decodedLog": {
                        "name": "AssignBurnFees",
                        "params": [
                            {
                                "name": "reserve",
                                "type": "address",
                                "value": "0x63825c174ab367968ec60f061753d3bbd36a0d8f"
                            },
                            {
                                "name": "burnFee",
                                "type": "uint256",
                                "value": "972,540,341,917,113,651"
                            }
                        ],
                        "signature": "AssignBurnFees(address,uint256)"
                    },
                    "id": 30,
                    "logData": "0x00000000000000000000000063825c174ab367968ec60f061753d3bbd36a0d8f0000000000000000000000000000000000000000000000000d7f2849c9b4dd33",
                    "logDecoded": true,
                    "operation": "EVENT",
                    "revert": false,
                    "status": true,
                    "topics": [
                        "0xf838f6ddc89706878e3c3e698e9b5cbfbf2c0e3d3dcd0bd2e00f1ccf313e0185"
                    ]
                },
                "nodeType": 1
            },
            "31": {
                "event": {
                    "contract": "0x9ae49c0d7f8f9ef4b864e004fe86ac8294e20950",
                    "decodedLog": {
                        "name": "KyberTrade",
                        "params": [
                            {
                                "name": "trader",
                                "type": "address",
                                "value": "0x23b8cca9b21c884a7ea65b527e88378643712acb"
                            },
                            {
                                "name": "src",
                                "type": "address",
                                "value": "0xe41d2489571d322189246dafa5ebde1f4699f498"
                            },
                            {
                                "name": "dest",
                                "type": "address",
                                "value": "0xeeeeeeeeeeeeeeeeeeeeeeeeeeeeeeeeeeeeeeee"
                            },
                            {
                                "name": "srcAmount",
                                "type": "uint256",
                                "value": "299,346,999,999,999,970,000"
                            },
                            {
                                "name": "dstAmount",
                                "type": "uint256",
                                "value": "540,478,829,427,117,957"
                            },
                            {
                                "name": "destAddress",
                                "type": "address",
                                "value": "0x79a666ab05291b497828530593440e783f8967a6"
                            },
                            {
                                "name": "ethWeiValue",
                                "type": "uint256",
                                "value": "540,478,829,427,117,957"
                            },
                            {
                                "name": "reserve1",
                                "type": "address",
                                "value": "0x63825c174ab367968ec60f061753d3bbd36a0d8f"
                            },
                            {
                                "name": "reserve2",
                                "type": "address",
                                "value": "0x0000000000000000000000000000000000000000"
                            },
                            {
                                "name": "hint",
                                "type": "bytes",
                                "value": "0x"
                            }
                        ],
                        "signature": "KyberTrade(address,address,address,uint256,uint256,address,uint256,address,address,bytes)"
                    },
                    "id": 31,
                    "logData": "0x000000000000000000000000e41d2489571d322189246dafa5ebde1f4699f498000000000000000000000000eeeeeeeeeeeeeeeeeeeeeeeeeeeeeeeeeeeeeeee0000000000000000000000000000000000000000000000103a462e7ddadb0ad000000000000000000000000000000000000000000000000007802aa1bc9f4f8500000000000000000000000079a666ab05291b497828530593440e783f8967a600000000000000000000000000000000000000000000000007802aa1bc9f4f8500000000000000000000000063825c174ab367968ec60f061753d3bbd36a0d8f000000000000000000000000000000000000000000000000000000000000000000000000000000000000000000000000000000000000000000000000000001200000000000000000000000000000000000000000000000000000000000000000",
                    "logDecoded": true,
                    "operation": "EVENT",
                    "revert": false,
                    "status": true,
                    "topics": [
                        "0xd30ca399cb43507ecec6a629a35cf45eb98cda550c27696dcb0d8c4a3873ce6c",
                        "0x00000000000000000000000023b8cca9b21c884a7ea65b527e88378643712acb"
                    ]
                },
                "nodeType": 1
            },
            "32": {
                "invocation": {
                    "address": "0xe41d2489571d322189246dafa5ebde1f4699f498",
                    "callData": "0x00000000000000000000000023b8cca9b21c884a7ea65b527e88378643712acb",
                    "decodedMethod": {
                        "callParams": [
                            {
                                "name": "_owner",
                                "type": "address",
                                "value": "0x23b8cca9b21c884a7ea65b527e88378643712acb"
                            }
                        ],
                        "constructorArguments": "",
                        "name": "balanceOf",
                        "returnParams": [
                            {
                                "decimalAvailable": true,
                                "name": "",
                                "type": "uint256",
                                "value": "0"
                            }
                        ],
                        "signature": "balanceOf(address)"
                    },
                    "errorInfo": "",
                    "fromAddress": "0x818e6fecd516ecc3849daf6845e3ec868087b755",
                    "gasUsed": 637,
                    "id": 32,
                    "methodDecoded": true,
                    "operation": "CALL",
                    "output": "0x0000000000000000000000000000000000000000000000000000000000000000",
                    "revert": false,
                    "revertMessage": "",
                    "selector": "0x70a08231",
                    "status": true,
                    "value": "0"
                },
                "nodeType": 0
            },
            "33": {
                "event": {
                    "contract": "0x818e6fecd516ecc3849daf6845e3ec868087b755",
                    "decodedLog": {
                        "name": "ExecuteTrade",
                        "params": [
                            {
                                "name": "trader",
                                "type": "address",
                                "value": "0x23b8cca9b21c884a7ea65b527e88378643712acb"
                            },
                            {
                                "name": "src",
                                "type": "address",
                                "value": "0xe41d2489571d322189246dafa5ebde1f4699f498"
                            },
                            {
                                "name": "dest",
                                "type": "address",
                                "value": "0xeeeeeeeeeeeeeeeeeeeeeeeeeeeeeeeeeeeeeeee"
                            },
                            {
                                "name": "actualSrcAmount",
                                "type": "uint256",
                                "value": "299,346,999,999,999,970,000"
                            },
                            {
                                "name": "actualDestAmount",
                                "type": "uint256",
                                "value": "540,478,829,427,117,957"
                            }
                        ],
                        "signature": "ExecuteTrade(address,address,address,uint256,uint256)"
                    },
                    "id": 33,
                    "logData": "0x000000000000000000000000e41d2489571d322189246dafa5ebde1f4699f498000000000000000000000000eeeeeeeeeeeeeeeeeeeeeeeeeeeeeeeeeeeeeeee0000000000000000000000000000000000000000000000103a462e7ddadb0ad000000000000000000000000000000000000000000000000007802aa1bc9f4f85",
                    "logDecoded": true,
                    "operation": "EVENT",
                    "revert": false,
                    "status": true,
                    "topics": [
                        "0x1849bd6a030a1bca28b83437fd3de96f3d27a5d172fa7e9c78e7b61468928a39",
                        "0x00000000000000000000000023b8cca9b21c884a7ea65b527e88378643712acb"
                    ]
                },
                "nodeType": 1
            },
            "34": {
                "event": {
                    "contract": "0x23b8cca9b21c884a7ea65b527e88378643712acb",
                    "decodedLog": {
                        "name": "LogTrade",
                        "params": [
                            {
                                "name": "what",
                                "type": "uint256",
                                "value": "1"
                            },
                            {
                                "name": "src",
                                "type": "address",
                                "value": "0xe41d2489571d322189246dafa5ebde1f4699f498"
                            },
                            {
                                "name": "srcAmt",
                                "type": "uint256",
                                "value": "299,346,999,999,999,970,000"
                            },
                            {
                                "name": "dest",
                                "type": "address",
                                "value": "0xeeeeeeeeeeeeeeeeeeeeeeeeeeeeeeeeeeeeeeee"
                            },
                            {
                                "name": "destAmt",
                                "type": "uint256",
                                "value": "540,478,829,427,117,957"
                            },
                            {
                                "name": "beneficiary",
                                "type": "address",
                                "value": "0x79a666ab05291b497828530593440e783f8967a6"
                            },
                            {
                                "name": "minConversionRate",
                                "type": "uint256",
                                "value": "1,785,801,891,629,250"
                            },
                            {
                                "name": "affiliate",
                                "type": "address",
                                "value": "0x7284a8451d9a0e7dc62b3a71c0593ea2ec5c5638"
                            }
                        ],
                        "signature": "LogTrade(uint256,address,uint256,address,uint256,address,uint256,address)"
                    },
                    "id": 34,
                    "logData": "0x0000000000000000000000000000000000000000000000000000000000000001000000000000000000000000e41d2489571d322189246dafa5ebde1f4699f4980000000000000000000000000000000000000000000000103a462e7ddadb0ad0000000000000000000000000eeeeeeeeeeeeeeeeeeeeeeeeeeeeeeeeeeeeeeee00000000000000000000000000000000000000000000000007802aa1bc9f4f8500000000000000000000000079a666ab05291b497828530593440e783f8967a60000000000000000000000000000000000000000000000000006582d6763c8c20000000000000000000000007284a8451d9a0e7dc62b3a71c0593ea2ec5c5638",
                    "logDecoded": true,
                    "operation": "EVENT",
                    "revert": false,
                    "status": true,
                    "topics": [
                        "0x11e25872c1ff01460756fe30988d586790d81915aa1ed26f716b966a0fcc196c"
                    ]
                },
                "nodeType": 1
            },
            "4": {
                "invocation": {
                    "address": "0x750f4cbdeb98049c3dc3492b729b66f0fa56bcbf",
                    "callData": "0x000000000000000000000000e41d2489571d322189246dafa5ebde1f4699f498000000000000000000000000eeeeeeeeeeeeeeeeeeeeeeeeeeeeeeeeeeeeeeee0000000000000000000000000000000000000000000000103a462e7ddadb0ad00000000000000000000000000000000000000000000000000006582d6763c8c2",
                    "decodedMethod": {
                        "callParams": [
                            {
                                "name": "src",
                                "type": "address",
                                "value": "0xe41d2489571d322189246dafa5ebde1f4699f498"
                            },
                            {
                                "name": "dest",
                                "type": "address",
                                "value": "0xeeeeeeeeeeeeeeeeeeeeeeeeeeeeeeeeeeeeeeee"
                            },
                            {
                                "name": "srcAmt",
                                "type": "uint256",
                                "value": "299,346,999,999,999,970,000"
                            },
                            {
                                "name": "slippageRate",
                                "type": "uint256",
                                "value": "1,785,801,891,629,250"
                            }
                        ],
                        "constructorArguments": "",
                        "name": "sell",
                        "returnParams": [
                            {
                                "name": "destAmt",
                                "type": "uint256",
                                "value": "540,478,829,427,117,957"
                            }
                        ],
                        "signature": "sell(address,address,uint256,uint256)"
                    },
                    "errorInfo": "",
                    "fromAddress": "0x23b8cca9b21c884a7ea65b527e88378643712acb",
                    "gasUsed": 245677,
                    "id": 4,
                    "methodDecoded": true,
                    "operation": "DELEGATECALL",
                    "output": "0x00000000000000000000000000000000000000000000000007802aa1bc9f4f85",
                    "revert": false,
                    "revertMessage": "",
                    "selector": "0x31de7d15",
                    "status": true,
                    "value": "0"
                },
                "nodeType": 0
            },
            "5": {
                "invocation": {
                    "address": "0xe41d2489571d322189246dafa5ebde1f4699f498",
                    "callData": "0x00000000000000000000000023b8cca9b21c884a7ea65b527e88378643712acb000000000000000000000000818e6fecd516ecc3849daf6845e3ec868087b755",
                    "decodedMethod": {
                        "callParams": [
                            {
                                "name": "_owner",
                                "type": "address",
                                "value": "0x23b8cca9b21c884a7ea65b527e88378643712acb"
                            },
                            {
                                "name": "_spender",
                                "type": "address",
                                "value": "0x818e6fecd516ecc3849daf6845e3ec868087b755"
                            }
                        ],
                        "constructorArguments": "",
                        "name": "allowance",
                        "returnParams": [
                            {
                                "decimalAvailable": true,
                                "name": "",
                                "type": "uint256",
                                "value": "0"
                            }
                        ],
                        "signature": "allowance(address,address)"
                    },
                    "errorInfo": "",
                    "fromAddress": "0x23b8cca9b21c884a7ea65b527e88378643712acb",
                    "gasUsed": 825,
                    "id": 5,
                    "methodDecoded": true,
                    "operation": "STATICCALL",
                    "output": "0x0000000000000000000000000000000000000000000000000000000000000000",
                    "revert": false,
                    "revertMessage": "",
                    "selector": "0xdd62ed3e",
                    "status": true,
                    "value": "0"
                },
                "nodeType": 0
            },
            "6": {
                "invocation": {
                    "address": "0xe41d2489571d322189246dafa5ebde1f4699f498",
                    "callData": "0x000000000000000000000000818e6fecd516ecc3849daf6845e3ec868087b7558000000000000000000000000000000000000000000000000000000000000000",
                    "decodedMethod": {
                        "callParams": [
                            {
                                "name": "_spender",
                                "type": "address",
                                "value": "0x818e6fecd516ecc3849daf6845e3ec868087b755"
                            },
                            {
                                "decimalAvailable": true,
                                "name": "_value",
                                "type": "uint256",
                                "value": "57,896,044,618,658,097,711,785,492,504,343,953,926,634,992,332,820,282,019,728,792,003,956,564,819,968"
                            }
                        ],
                        "constructorArguments": "",
                        "name": "approve",
                        "returnParams": [
                            {
                                "name": "",
                                "type": "bool",
                                "value": true
                            }
                        ],
                        "signature": "approve(address,uint256)"
                    },
                    "errorInfo": "",
                    "fromAddress": "0x23b8cca9b21c884a7ea65b527e88378643712acb",
                    "gasUsed": 22318,
                    "id": 6,
                    "methodDecoded": true,
                    "operation": "CALL",
                    "output": "0x0000000000000000000000000000000000000000000000000000000000000001",
                    "revert": false,
                    "revertMessage": "",
                    "selector": "0x095ea7b3",
                    "status": true,
                    "value": "0"
                },
                "nodeType": 0
            },
            "7": {
                "event": {
                    "contract": "0xe41d2489571d322189246dafa5ebde1f4699f498",
                    "decodedLog": {
                        "name": "Approval",
                        "params": [
                            {
                                "name": "_owner",
                                "type": "address",
                                "value": "0x23b8cca9b21c884a7ea65b527e88378643712acb"
                            },
                            {
                                "name": "_spender",
                                "type": "address",
                                "value": "0x818e6fecd516ecc3849daf6845e3ec868087b755"
                            },
                            {
                                "decimalAvailable": true,
                                "name": "_value",
                                "type": "uint256",
                                "value": "57,896,044,618,658,097,711,785,492,504,343,953,926,634,992,332,820,282,019,728,792,003,956,564,819,968"
                            }
                        ],
                        "signature": "Approval(address,address,uint256)"
                    },
                    "id": 7,
                    "logData": "0x8000000000000000000000000000000000000000000000000000000000000000",
                    "logDecoded": true,
                    "operation": "EVENT",
                    "revert": false,
                    "status": true,
                    "topics": [
                        "0x8c5be1e5ebec7d5bd14f71427d1e84f3dd0314c0f7b2291e5b200ac8c7c3b925",
                        "0x00000000000000000000000023b8cca9b21c884a7ea65b527e88378643712acb",
                        "0x000000000000000000000000818e6fecd516ecc3849daf6845e3ec868087b755"
                    ]
                },
                "nodeType": 1
            },
            "8": {
                "invocation": {
                    "address": "0xe41d2489571d322189246dafa5ebde1f4699f498",
                    "callData": "0x00000000000000000000000079a666ab05291b497828530593440e783f8967a600000000000000000000000023b8cca9b21c884a7ea65b527e88378643712acb0000000000000000000000000000000000000000000000103a462e7ddadb0ad0",
                    "decodedMethod": {
                        "callParams": [
                            {
                                "name": "_from",
                                "type": "address",
                                "value": "0x79a666ab05291b497828530593440e783f8967a6"
                            },
                            {
                                "name": "_to",
                                "type": "address",
                                "value": "0x23b8cca9b21c884a7ea65b527e88378643712acb"
                            },
                            {
                                "decimalAvailable": true,
                                "name": "_value",
                                "type": "uint256",
                                "value": "299,346,999,999,999,970,000"
                            }
                        ],
                        "constructorArguments": "",
                        "name": "transferFrom",
                        "returnParams": [
                            {
                                "name": "",
                                "type": "bool",
                                "value": true
                            }
                        ],
                        "signature": "transferFrom(address,address,uint256)"
                    },
                    "errorInfo": "",
                    "fromAddress": "0x23b8cca9b21c884a7ea65b527e88378643712acb",
                    "gasUsed": 34661,
                    "id": 8,
                    "methodDecoded": true,
                    "operation": "CALL",
                    "output": "0x0000000000000000000000000000000000000000000000000000000000000001",
                    "revert": false,
                    "revertMessage": "",
                    "selector": "0x23b872dd",
                    "status": true,
                    "value": "0"
                },
                "nodeType": 0
            },
            "9": {
                "event": {
                    "contract": "0xe41d2489571d322189246dafa5ebde1f4699f498",
                    "decodedLog": {
                        "name": "Transfer",
                        "params": [
                            {
                                "name": "_from",
                                "type": "address",
                                "value": "0x79a666ab05291b497828530593440e783f8967a6"
                            },
                            {
                                "name": "_to",
                                "type": "address",
                                "value": "0x23b8cca9b21c884a7ea65b527e88378643712acb"
                            },
                            {
                                "decimalAvailable": true,
                                "name": "_value",
                                "type": "uint256",
                                "value": "299,346,999,999,999,970,000"
                            }
                        ],
                        "signature": "Transfer(address,address,uint256)"
                    },
                    "id": 9,
                    "logData": "0x0000000000000000000000000000000000000000000000103a462e7ddadb0ad0",
                    "logDecoded": true,
                    "operation": "EVENT",
                    "revert": false,
                    "status": true,
                    "topics": [
                        "0xddf252ad1be2c89b69c2b068fc378daa952ba7f163c4a11628f55a4df523b3ef",
                        "0x00000000000000000000000079a666ab05291b497828530593440e783f8967a6",
                        "0x00000000000000000000000023b8cca9b21c884a7ea65b527e88378643712acb"
                    ]
                },
                "nodeType": 1
            }
        },
        "gasFlame": [
            {
                "children": [
                    {
                        "children": [
                            {
                                "children": [],
                                "depth": 0,
                                "name": "Initial Gas",
                                "value": 28248
                            },
                            {
                                "children": [
                                    {
                                        "children": [],
                                        "depth": 1,
                                        "name": "logic",
                                        "value": 1029
                                    },
                                    {
                                        "children": [
                                            {
                                                "children": [],
                                                "depth": 2,
                                                "name": "allowance",
                                                "value": 825
                                            },
                                            {
                                                "children": [],
                                                "depth": 2,
                                                "name": "approve",
                                                "value": 22318
                                            },
                                            {
                                                "children": [],
                                                "depth": 2,
                                                "name": "transferFrom",
                                                "value": 34661
                                            },
                                            {
                                                "children": [
                                                    {
                                                        "children": [],
                                                        "depth": 3,
                                                        "name": "balanceOf",
                                                        "value": 637
                                                    },
                                                    {
                                                        "children": [],
                                                        "depth": 3,
                                                        "name": "transferFrom",
                                                        "value": 19661
                                                    },
                                                    {
                                                        "children": [
                                                            {
                                                                "children": [],
                                                                "depth": 4,
                                                                "name": "balanceOf",
                                                                "value": 637
                                                            },
                                                            {
                                                                "children": [
                                                                    {
                                                                        "children": [],
                                                                        "depth": 5,
                                                                        "name": "getRate",
                                                                        "value": 19512
                                                                    },
                                                                    {
                                                                        "children": [],
                                                                        "depth": 5,
                                                                        "name": "getSanityRate",
                                                                        "value": 1597
                                                                    }
                                                                ],
                                                                "depth": 4,
                                                                "name": "getConversionRate",
                                                                "value": 28582
                                                            },
                                                            {
                                                                "children": [
                                                                    {
                                                                        "children": [],
                                                                        "depth": 5,
                                                                        "name": "recordImbalance",
                                                                        "value": 14759
                                                                    },
                                                                    {
                                                                        "children": [],
                                                                        "depth": 5,
                                                                        "name": "transferFrom",
                                                                        "value": 19661
                                                                    },
                                                                    {
                                                                        "children": [],
                                                                        "depth": 5,
                                                                        "name": "fallback",
                                                                        "value": 1943
                                                                    }
                                                                ],
                                                                "depth": 4,
                                                                "name": "trade",
                                                                "value": 53487
                                                            },
                                                            {
                                                                "children": [],
                                                                "depth": 4,
                                                                "name": "fallback",
                                                                "value": 0
                                                            },
                                                            {
                                                                "children": [
                                                                    {
                                                                        "children": [],
                                                                        "depth": 5,
                                                                        "name": "decimals",
                                                                        "value": 280
                                                                    }
                                                                ],
                                                                "depth": 4,
                                                                "name": "handleFees",
                                                                "value": 19637
                                                            }
                                                        ],
                                                        "depth": 3,
                                                        "name": "tradeWithHint",
                                                        "value": 140512
                                                    },
                                                    {
                                                        "children": [],
                                                        "depth": 3,
                                                        "name": "balanceOf",
                                                        "value": 637
                                                    }
                                                ],
                                                "depth": 2,
                                                "name": "trade",
                                                "value": 177145
                                            }
                                        ],
                                        "depth": 1,
                                        "name": "sell",
                                        "value": 245677
                                    }
                                ],
                                "depth": 0,
                                "name": "Executed Gas",
                                "value": 258564
                            }
                        ],
                        "depth": -1,
                        "name": "Actual Gas Used",
                        "value": 271812
                    },
                    {
                        "children": [],
                        "depth": -1,
                        "name": "Refunded Gas",
                        "value": 15000
                    }
                ],
                "depth": -2,
                "name": "Total Gas",
                "value": 286812
            }
        ],
        "isConfirmed": true,
        "mainTrace": [
            {
                "children": [
                    {
                        "children": [
                            {
                                "children": [],
                                "depth": 1,
                                "id": 1,
                                "order": 1
                            },
                            {
                                "children": [],
                                "depth": 1,
                                "id": 2,
                                "order": 2
                            },
                            {
                                "children": [],
                                "depth": 1,
                                "id": 3,
                                "order": 3
                            },
                            {
                                "children": [
                                    {
                                        "children": [],
                                        "depth": 2,
                                        "id": 5,
                                        "order": 5
                                    },
                                    {
                                        "children": [
                                            {
                                                "children": [],
                                                "depth": 3,
                                                "id": 7,
                                                "order": 7
                                            }
                                        ],
                                        "depth": 2,
                                        "id": 6,
                                        "order": 6
                                    },
                                    {
                                        "children": [
                                            {
                                                "children": [],
                                                "depth": 3,
                                                "id": 9,
                                                "order": 9
                                            }
                                        ],
                                        "depth": 2,
                                        "id": 8,
                                        "order": 8
                                    },
                                    {
                                        "children": [
                                            {
                                                "children": [],
                                                "depth": 3,
                                                "id": 11,
                                                "order": 11
                                            },
                                            {
                                                "children": [
                                                    {
                                                        "children": [],
                                                        "depth": 4,
                                                        "id": 13,
                                                        "order": 13
                                                    }
                                                ],
                                                "depth": 3,
                                                "id": 12,
                                                "order": 12
                                            },
                                            {
                                                "children": [
                                                    {
                                                        "children": [],
                                                        "depth": 4,
                                                        "id": 15,
                                                        "order": 15
                                                    },
                                                    {
                                                        "children": [
                                                            {
                                                                "children": [],
                                                                "depth": 5,
                                                                "id": 17,
                                                                "order": 17
                                                            },
                                                            {
                                                                "children": [],
                                                                "depth": 5,
                                                                "id": 18,
                                                                "order": 18
                                                            }
                                                        ],
                                                        "depth": 4,
                                                        "id": 16,
                                                        "order": 16
                                                    },
                                                    {
                                                        "children": [
                                                            {
                                                                "children": [],
                                                                "depth": 5,
                                                                "id": 20,
                                                                "order": 20
                                                            },
                                                            {
                                                                "children": [
                                                                    {
                                                                        "children": [],
                                                                        "depth": 6,
                                                                        "id": 22,
                                                                        "order": 22
                                                                    }
                                                                ],
                                                                "depth": 5,
                                                                "id": 21,
                                                                "order": 21
                                                            },
                                                            {
                                                                "children": [
                                                                    {
                                                                        "children": [],
                                                                        "depth": 6,
                                                                        "id": 24,
                                                                        "order": 24
                                                                    }
                                                                ],
                                                                "depth": 5,
                                                                "id": 23,
                                                                "order": 23
                                                            },
                                                            {
                                                                "children": [],
                                                                "depth": 5,
                                                                "id": 25,
                                                                "order": 25
                                                            }
                                                        ],
                                                        "depth": 4,
                                                        "id": 19,
                                                        "order": 19
                                                    },
                                                    {
                                                        "children": [],
                                                        "depth": 4,
                                                        "id": 26,
                                                        "order": 26
                                                    },
                                                    {
                                                        "children": [
                                                            {
                                                                "children": [],
                                                                "depth": 5,
                                                                "id": 28,
                                                                "order": 28
                                                            },
                                                            {
                                                                "children": [],
                                                                "depth": 5,
                                                                "id": 29,
                                                                "order": 29
                                                            },
                                                            {
                                                                "children": [],
                                                                "depth": 5,
                                                                "id": 30,
                                                                "order": 30
                                                            }
                                                        ],
                                                        "depth": 4,
                                                        "id": 27,
                                                        "order": 27
                                                    },
                                                    {
                                                        "children": [],
                                                        "depth": 4,
                                                        "id": 31,
                                                        "order": 31
                                                    }
                                                ],
                                                "depth": 3,
                                                "id": 14,
                                                "order": 14
                                            },
                                            {
                                                "children": [],
                                                "depth": 3,
                                                "id": 32,
                                                "order": 32
                                            },
                                            {
                                                "children": [],
                                                "depth": 3,
                                                "id": 33,
                                                "order": 33
                                            }
                                        ],
                                        "depth": 2,
                                        "id": 10,
                                        "order": 10
                                    },
                                    {
                                        "children": [],
                                        "depth": 2,
                                        "id": 34,
                                        "order": 34
                                    }
                                ],
                                "depth": 1,
                                "id": 4,
                                "order": 4
                            }
                        ],
                        "depth": 0,
                        "id": 0,
                        "order": 0
                    }
                ],
                "depth": -1,
                "id": -1,
                "order": -1
            }
        ],
        "mainTraceNodeCount": 35,
        "parentIdMap": {
            "0": -1,
            "1": 0,
            "10": 4,
            "11": 10,
            "12": 10,
            "13": 12,
            "14": 10,
            "15": 14,
            "16": 14,
            "17": 16,
            "18": 16,
            "19": 14,
            "2": 0,
            "20": 19,
            "21": 19,
            "22": 21,
            "23": 19,
            "24": 23,
            "25": 19,
            "26": 14,
            "27": 14,
            "28": 27,
            "29": 27,
            "3": 0,
            "30": 27,
            "31": 14,
            "32": 10,
            "33": 10,
            "34": 4,
            "4": 0,
            "5": 4,
            "6": 4,
            "7": 6,
            "8": 4,
            "9": 8
        },
        "tidyTrace": [
            {
                "children": [
                    {
                        "children": [
                            {
                                "children": [],
                                "depth": 1,
                                "id": 1,
                                "order": 1
                            },
                            {
                                "children": [],
                                "depth": 1,
                                "id": 3,
                                "order": 3
                            },
                            {
                                "children": [
                                    {
                                        "children": [
                                            {
                                                "children": [],
                                                "depth": 3,
                                                "id": 7,
                                                "order": 7
                                            }
                                        ],
                                        "depth": 2,
                                        "id": 6,
                                        "order": 6
                                    },
                                    {
                                        "children": [
                                            {
                                                "children": [],
                                                "depth": 3,
                                                "id": 9,
                                                "order": 9
                                            }
                                        ],
                                        "depth": 2,
                                        "id": 8,
                                        "order": 8
                                    },
                                    {
                                        "children": [
                                            {
                                                "children": [],
                                                "depth": 3,
                                                "id": 11,
                                                "order": 11
                                            },
                                            {
                                                "children": [
                                                    {
                                                        "children": [],
                                                        "depth": 4,
                                                        "id": 13,
                                                        "order": 13
                                                    }
                                                ],
                                                "depth": 3,
                                                "id": 12,
                                                "order": 12
                                            },
                                            {
                                                "children": [
                                                    {
                                                        "children": [],
                                                        "depth": 4,
                                                        "id": 15,
                                                        "order": 15
                                                    },
                                                    {
                                                        "children": [
                                                            {
                                                                "children": [],
                                                                "depth": 5,
                                                                "id": 17,
                                                                "order": 17
                                                            },
                                                            {
                                                                "children": [],
                                                                "depth": 5,
                                                                "id": 18,
                                                                "order": 18
                                                            }
                                                        ],
                                                        "depth": 4,
                                                        "id": 16,
                                                        "order": 16
                                                    },
                                                    {
                                                        "children": [
                                                            {
                                                                "children": [],
                                                                "depth": 5,
                                                                "id": 20,
                                                                "order": 20
                                                            },
                                                            {
                                                                "children": [
                                                                    {
                                                                        "children": [],
                                                                        "depth": 6,
                                                                        "id": 22,
                                                                        "order": 22
                                                                    }
                                                                ],
                                                                "depth": 5,
                                                                "id": 21,
                                                                "order": 21
                                                            },
                                                            {
                                                                "children": [
                                                                    {
                                                                        "children": [],
                                                                        "depth": 6,
                                                                        "id": 24,
                                                                        "order": 24
                                                                    }
                                                                ],
                                                                "depth": 5,
                                                                "id": 23,
                                                                "order": 23
                                                            },
                                                            {
                                                                "children": [],
                                                                "depth": 5,
                                                                "id": 25,
                                                                "order": 25
                                                            }
                                                        ],
                                                        "depth": 4,
                                                        "id": 19,
                                                        "order": 19
                                                    },
                                                    {
                                                        "children": [],
                                                        "depth": 4,
                                                        "id": 26,
                                                        "order": 26
                                                    },
                                                    {
                                                        "children": [
                                                            {
                                                                "children": [],
                                                                "depth": 5,
                                                                "id": 28,
                                                                "order": 28
                                                            },
                                                            {
                                                                "children": [],
                                                                "depth": 5,
                                                                "id": 29,
                                                                "order": 29
                                                            },
                                                            {
                                                                "children": [],
                                                                "depth": 5,
                                                                "id": 30,
                                                                "order": 30
                                                            }
                                                        ],
                                                        "depth": 4,
                                                        "id": 27,
                                                        "order": 27
                                                    },
                                                    {
                                                        "children": [],
                                                        "depth": 4,
                                                        "id": 31,
                                                        "order": 31
                                                    }
                                                ],
                                                "depth": 3,
                                                "id": 14,
                                                "order": 14
                                            },
                                            {
                                                "children": [],
                                                "depth": 3,
                                                "id": 32,
                                                "order": 32
                                            },
                                            {
                                                "children": [],
                                                "depth": 3,
                                                "id": 33,
                                                "order": 33
                                            }
                                        ],
                                        "depth": 2,
                                        "id": 10,
                                        "order": 10
                                    },
                                    {
                                        "children": [],
                                        "depth": 2,
                                        "id": 34,
                                        "order": 34
                                    }
                                ],
                                "depth": 1,
                                "id": 4,
                                "order": 4
                            }
                        ],
                        "depth": 0,
                        "id": 0,
                        "order": 0
                    }
                ],
                "depth": -1,
                "id": -1,
                "order": -1
            }
        ],
        "tidyTraceNodeCount": 33
    },
    "state_change": {
        "stateChanges": [
            {
                "address": "0x52166528fcc12681af996e409ee3a421a4e128a3",
                "erc": "",
                "slots": [
                    {
                        "current": "0x00000000000000000000000000000000000000000000000006fc178fca7bea8e",
                        "key": "0x965b673c2c8b2fb328c46ed782721a3ca6487cd98c11e53db95e8eaf439e77b2",
                        "prev": "0x00000000000000000000000000000000000000000000000001334f702ae5429d"
                    },
                    {
                        "current": "0x000000000000000000000000000000000000000000000055e65954e4d88326e4",
                        "key": "0x72db188ceebccdd3fc827b6a1006c44a2e7fa96be0a79f4f332160aa0473dbe3",
                        "prev": "0x000000000000000000000000000000000000000000000055d8da2c9b0ece49b1"
                    }
                ],
                "storageVariables": [
                    {
                        "name": "reserveFeeToBurn",
                        "type": "mapping(address => uint256)",
                        "value": {
                            "pairs": [
                                {
                                    "key": "0x63825c174ab367968ec60f061753d3bbd36a0d8f",
                                    "value": {
                                        "current": "1584571637508824311524",
                                        "prev": "1583599097166907197873",
                                        "typeTag": 1
                                    }
                                }
                            ],
                            "typeTag": 4
                        }
                    },
                    {
                        "name": "reserveFeeToWallet",
                        "type": "mapping(address => mapping(address => uint256))",
                        "value": {
                            "pairs": [
                                {
                                    "key": "0x63825c174ab367968ec60f061753d3bbd36a0d8f",
                                    "value": {
                                        "pairs": [
                                            {
                                                "key": "0x7284a8451d9a0e7dc62b3a71c0593ea2ec5c5638",
                                                "value": {
                                                    "current": "503303164703533710",
                                                    "prev": "86500161024770717",
                                                    "typeTag": 1
                                                }
                                            }
                                        ],
                                        "typeTag": 4
                                    }
                                }
                            ],
                            "typeTag": 4
                        }
                    }
                ]
            },
            {
                "address": "0x798abda6cc246d0edba912092a2a3dbd3d11191b",
                "erc": "",
                "slots": [
                    {
                        "current": "0x00000000008574a8ffffffffffff8b1200000000008574aaffffffffffff8b12",
                        "key": "0x5e7f3f02c4e757912ee1162f2358c36301961fc8c62d6955ea89ff2e123207b8",
                        "prev": "0x00000000008572c5ffffffffffff750c00000000008572caffffffffffff750c"
                    }
                ],
                "storageVariables": [
                    {
                        "name": "tokenImbalanceData",
                        "type": "mapping(address => mapping(uint256 => uint256))",
                        "value": {
                            "pairs": [
                                {
                                    "key": "0xe41d2489571d322189246dafa5ebde1f4699f498",
                                    "value": {
                                        "pairs": [
                                            {
                                                "key": "4",
                                                "value": {
                                                    "current": "54900492174257424122654495158784589876388889805080581460841171730",
                                                    "prev": "54897460334119232355843643960508480322452897006927049642410472716",
                                                    "typeTag": 1
                                                }
                                            }
                                        ],
                                        "typeTag": 4
                                    }
                                }
                            ],
                            "typeTag": 4
                        }
                    }
                ]
            },
            {
                "address": "0x9ae49c0d7f8f9ef4b864e004fe86ac8294e20950",
                "erc": "",
                "slots": [
                    {
                        "current": "0x000000000000000000000000000000000000000000000000000000000004ddea",
                        "key": "0x0000000000000000000000000000000000000000000000000000000000000007",
                        "prev": "0x000000000000000000000000000000000000000000000000000000000004dde9"
                    }
                ],
                "storageVariables": [
                    {
                        "name": "guardCounter",
                        "type": "uint256",
                        "value": {
                            "current": "318954",
                            "prev": "318953",
                            "typeTag": 1
                        }
                    }
                ]
            },
            {
                "address": "0xe41d2489571d322189246dafa5ebde1f4699f498",
                "erc": "ERC-20",
                "slots": [
                    {
                        "current": "0x0000000000000000000000000000000000000000000000000001805c8eee2930",
                        "key": "0xe9609825162ddb6ac435096e009852a5d7bdda4da59c1797b0d112a4dcbc1619",
                        "prev": "0x0000000000000000000000000000000000000000000000103a47aeda69c93400"
                    },
                    {
                        "current": "0x000000000000000000000000000000000000000c9f2c9cc00c2ebf6c6524f530",
                        "key": "0x0efc96a12a7bbdc1ab95d88eb9480eb0caa523fbda19950bb467b2d83f3ab03e",
                        "prev": "0x000000000000000000000000000000000000000c9f2c9cd04674edea40000000"
                    },
                    {
                        "current": "0x000000000000000000000000000000000000000000000445cd9db885114833c3",
                        "key": "0x019c7256272716f09fbbb25bb850233f4655716514b6a00ffc9b71d4d41c3b97",
                        "prev": "0x00000000000000000000000000000000000000000000043593578a07366d28f3"
                    },
                    {
                        "current": "0x7ffffffffffffffffffffffffffffffffffffffffffc0be067e4d10daad2716a",
                        "key": "0xff946baae9525b1c34e25629bc95ca0c11133fa98d1ca176e060f0a1a53f5bc5",
                        "prev": "0x7ffffffffffffffffffffffffffffffffffffffffffc0bf0a22aff8b85ad7c3a"
                    },
                    {
                        "current": "0x7fffffffffffffffffffffffffffffffffffffffffffffefc5b9d1822524f530",
                        "key": "0x9e38160adb75ae0e7597b7f5ea35054fc2cab297ba9a5ddc38dec669e63edb20",
                        "prev": "0x0000000000000000000000000000000000000000000000000000000000000000"
                    }
                ],
                "storageVariables": []
            }
        ]
    }
}