{
    "balance_change": {
        "balanceChanges": [
            {
                "account": "0x3e9f115a0137ded847d3204912bf2aa71e8d8ded",
                "assets": [
                    {
                        "address": "0x473037de59cf9484632f4a27b509cfe8d4a31404",
                        "amount": "95.89",
                        "iconUrl": "",
                        "isERC1155": false,
                        "isERC721": false,
                        "sign": false,
                        "value": "29.04479062"
                    }
                ]
            },
            {
                "account": "0x43c68d3cc74a1162b55c54f6ea451ab5196e4693",
                "assets": [
                    {
                        "address": "0x473037de59cf9484632f4a27b509cfe8d4a31404",
                        "amount": "95.89",
                        "iconUrl": "",
                        "isERC1155": false,
                        "isERC721": false,
                        "sign": true,
                        "value": "29.04479062"
                    }
                ]
            }
        ]
    },
    "profile": {
        "basic_info": {
            "baseFee": "11.122313116",
            "blockNumber": 15765655,
            "callData": "0xa9059cbb00000000000000000000000043c68d3cc74a1162b55c54f6ea451ab5196e4693000000000000000000000000000000000000000000000000000000023b8c8740",
            "debugEnable": true,
            "errorInfo": "",
            "eventCount": 1,
            "feeRecipient": "0xfda3368e9aa37d3104bb38e46e9e7e856147ab7c",
            "formatValue": "0",
            "gasLimit": 52888,
            "gasPrice": "12.622313116",
            "gasUsed": 30459,
            "intTxnCount": 0,
            "internalRevert": false,
            "internalRevertMessage": "",
            "isContractCreation": false,
            "isFlashloan": false,
            "maxFee": "16.856008631",
            "nonce": 28,
            "overwritedBlockNumber": -1,
            "priorityFee": "1.5",
            "receiver": "0x473037de59cf9484632f4a27b509cfe8d4a31404",
            "revertMessage": "",
            "sender": "0x3e9f115a0137ded847d3204912bf2aa71e8d8ded",
            "simulationEnable": true,
            "sourceTxnHash": "0xcde9c4fb6479b1e0871f5002012ff94599b18a023b9e2197e7e75515255bbaf2",
            "status": true,
            "timestamp": "2022-10-17T05:10:11Z",
            "transactionFee": "0.000384463035200244",
            "txnHash": "0xcde9c4fb6479b1e0871f5002012ff94599b18a023b9e2197e7e75515255bbaf2",
            "txnIndex": 58,
            "type": 2,
            "value": "0"
        },
        "fund_flow": [
            {
                "amount": "95.89",
                "from": "0x3e9f115a0137ded847d3204912bf2aa71e8d8ded",
                "id": 1,
                "isERC1155": false,
                "isERC721": false,
                "isReverted": false,
                "order": 1,
                "to": "0x43c68d3cc74a1162b55c54f6ea451ab5196e4693",
                "token": "0x473037de59cf9484632f4a27b509cfe8d4a31404"
            }
        ],
        "token_infos": [
            {
                "address": "0x473037de59cf9484632f4a27b509cfe8d4a31404",
                "decimals": 8
            },
            {
                "address": "0xc02aaa39b223fe8d0a0e5c4f27ead9083c756cc2",
                "decimals": 18
            },
            {
                "address": "0xeeeeeeeeeeeeeeeeeeeeeeeeeeeeeeeeeeeeeeee",
                "decimals": 18
            }
        ]
    },
    "address_label": {
        "labels": [
            {
                "address": "0x0000000000000000000000000000000000000002",
                "label": "Precompiled"
            },
            {
                "address": "0x0000000000000000000000000000000000000003",
                "label": "Precompiled"
            },
            {
                "address": "0x0000000000000000000000000000000000000004",
                "label": "Precompiled"
            },
            {
                "address": "0xeeeeeeeeeeeeeeeeeeeeeeeeeeeeeeeeeeeeeeee",
                "label": "Ether"
            },
            {
                "address": "0x473037de59cf9484632f4a27b509cfe8d4a31404",
                "label": "GreenSatoshiToken (GST)"
            },
            {
                "address": "0x0000000000000000000000000000000000000001",
                "label": "Precompiled"
            }
        ]
    },
    "trace": {
        "accountLabels": null,
        "dataMap": {
            "-1": {
                "invocation": {
                    "address": "0x3e9f115a0137ded847d3204912bf2aa71e8d8ded",
                    "callData": "",
                    "decodedMethod": null,
                    "errorInfo": "",
                    "fromAddress": "",
                    "gasUsed": 0,
                    "id": -1,
                    "methodDecoded": false,
                    "operation": "",
                    "output": "",
                    "revert": false,
                    "revertMessage": "",
                    "selector": "",
                    "status": false,
                    "value": ""
                },
                "nodeType": 0
            },
            "0": {
                "invocation": {
                    "address": "0x473037de59cf9484632f4a27b509cfe8d4a31404",
                    "callData": "0x00000000000000000000000043c68d3cc74a1162b55c54f6ea451ab5196e4693000000000000000000000000000000000000000000000000000000023b8c8740",
                    "decodedMethod": {
                        "callParams": [
                            {
                                "name": "to",
                                "type": "address",
                                "value": "0x43c68d3cc74a1162b55c54f6ea451ab5196e4693"
                            },
                            {
                                "decimalAvailable": true,
                                "name": "amount",
                                "type": "uint256",
                                "value": "9,589,000,000"
                            }
                        ],
                        "constructorArguments": "",
                        "name": "transfer",
                        "returnParams": [
                            {
                                "name": "",
                                "type": "bool",
                                "value": true
                            }
                        ],
                        "signature": "transfer(address,uint256)"
                    },
                    "errorInfo": "",
                    "fromAddress": "0x3e9f115a0137ded847d3204912bf2aa71e8d8ded",
                    "gasUsed": 30459,
                    "id": 0,
                    "methodDecoded": true,
                    "operation": "CALL",
                    "output": "0x0000000000000000000000000000000000000000000000000000000000000001",
                    "revert": false,
                    "revertMessage": "",
                    "selector": "0xa9059cbb",
                    "status": true,
                    "value": "0"
                },
                "nodeType": 0
            },
            "1": {
                "event": {
                    "contract": "0x473037de59cf9484632f4a27b509cfe8d4a31404",
                    "decodedLog": {
                        "name": "Transfer",
                        "params": [
                            {
                                "name": "from",
                                "type": "address",
                                "value": "0x3e9f115a0137ded847d3204912bf2aa71e8d8ded"
                            },
                            {
                                "name": "to",
                                "type": "address",
                                "value": "0x43c68d3cc74a1162b55c54f6ea451ab5196e4693"
                            },
                            {
                                "decimalAvailable": true,
                                "name": "value",
                                "type": "uint256",
                                "value": "9,589,000,000"
                            }
                        ],
                        "signature": "Transfer(address,address,uint256)"
                    },
                    "id": 1,
                    "logData": "0x000000000000000000000000000000000000000000000000000000023b8c8740",
                    "logDecoded": true,
                    "operation": "EVENT",
                    "revert": false,
                    "status": true,
                    "topics": [
                        "0xddf252ad1be2c89b69c2b068fc378daa952ba7f163c4a11628f55a4df523b3ef",
                        "0x0000000000000000000000003e9f115a0137ded847d3204912bf2aa71e8d8ded",
                        "0x00000000000000000000000043c68d3cc74a1162b55c54f6ea451ab5196e4693"
                    ]
                },
                "nodeType": 1
            }
        },
        "gasFlame": [
            {
                "children": [
                    {
                        "children": [
                            {
                                "children": [],
                                "depth": 0,
                                "name": "Initial Gas",
                                "value": 21620
                            },
                            {
                                "children": [],
                                "depth": 0,
                                "name": "Executed Gas",
                                "value": 13639
                            }
                        ],
                        "depth": -1,
                        "name": "Actual Gas Used",
                        "value": 30459
                    },
                    {
                        "children": [],
                        "depth": -1,
                        "name": "Refunded Gas",
                        "value": 4800
                    }
                ],
                "depth": -2,
                "name": "Total Gas",
                "value": 35259
            }
        ],
        "isConfirmed": true,
        "mainTrace": [
            {
                "children": [
                    {
                        "children": [
                            {
                                "children": [],
                                "depth": 1,
                                "id": 1,
                                "order": 1
                            }
                        ],
                        "depth": 0,
                        "id": 0,
                        "order": 0
                    }
                ],
                "depth": -1,
                "id": -1,
                "order": -1
            }
        ],
        "mainTraceNodeCount": 2,
        "parentIdMap": {
            "0": -1,
            "1": 0
        },
        "tidyTrace": [
            {
                "children": [
                    {
                        "children": [
                            {
                                "children": [],
                                "depth": 1,
                                "id": 1,
                                "order": 1
                            }
                        ],
                        "depth": 0,
                        "id": 0,
                        "order": 0
                    }
                ],
                "depth": -1,
                "id": -1,
                "order": -1
            }
        ],
        "tidyTraceNodeCount": 2
    },
    "state_change": {
        "stateChanges": [
            {
                "address": "0x473037de59cf9484632f4a27b509cfe8d4a31404",
                "erc": "ERC-20",
                "slots": [
                    {
                        "current": "0x000000000000000000000000000000000000000000000000000000058436939b",
                        "key": "0x77a9fa0d7c3369cdbdd596fb53013b0bb900e1bddbb8a29dada2fc9a7fd2d64a",
                        "prev": "0x0000000000000000000000000000000000000000000000000000000348aa0c5b"
                    },
                    {
                        "current": "0x0000000000000000000000000000000000000000000000000000000000000000",
                        "key": "0x0ea8c3c81b97f49a3f824920ac54692773b86452550347741789835af1ee7b72",
                        "prev": "0x000000000000000000000000000000000000000000000000000000023b8c8740"
                    }
                ],
                "storageVariables": [
                    {
                        "name": "_balances",
                        "type": "mapping(address => uint256)",
                        "value": {
                            "pairs": [
                                {
                                    "key": "0x3e9f115a0137ded847d3204912bf2aa71e8d8ded",
                                    "value": {
                                        "current": "0",
                                        "prev": "9589000000",
                                        "typeTag": 1
                                    }
                                },
                                {
                                    "key": "0x43c68d3cc74a1162b55c54f6ea451ab5196e4693",
                                    "value": {
                                        "current": "23693005723",
                                        "prev": "14104005723",
                                        "typeTag": 1
                                    }
                                }
                            ],
                            "typeTag": 4
                        }
                    }
                ]
            }
        ]
    }
}