{
    "balance_change": {
        "balanceChanges": [
            {
                "account": "0x518dcd35f21444f6d1c366fa52ff5b5cc1858fb6",
                "assets": [
                    {
                        "address": "0x76e222b07c53d28b89b0bac18602810fc22b49a8",
                        "amount": "25,000",
                        "iconUrl": "",
                        "isERC1155": false,
                        "isERC721": false,
                        "sign": false,
                        "value": "533.0985258"
                    },
                    {
                        "address": "0xeeeeeeeeeeeeeeeeeeeeeeeeeeeeeeeeeeeeeeee",
                        "amount": "0.291570563233689738",
                        "iconUrl": "https://assets.blocksec.com/image/1663669189317-3.png",
                        "isERC1155": false,
                        "isERC721": false,
                        "sign": true,
                        "value": "532.09586790057601857"
                    }
                ]
            },
            {
                "account": "0x704ad8d95c12d7fea531738faa94402725acb035",
                "assets": [
                    {
                        "address": "0x76e222b07c53d28b89b0bac18602810fc22b49a8",
                        "amount": "25,000",
                        "iconUrl": "",
                        "isERC1155": false,
                        "isERC721": false,
                        "sign": true,
                        "value": "533.0985258"
                    },
                    {
                        "address": "0xc02aaa39b223fe8d0a0e5c4f27ead9083c756cc2",
                        "amount": "0.292447906954553399",
                        "iconUrl": "https://assets.blocksec.com/icon/f1cb2d02c471d545bbc7722daf3277fd852d98e63d118771af7047bd8256c516.png",
                        "isERC1155": false,
                        "isERC721": false,
                        "sign": false,
                        "value": "533.6969589215100186"
                    }
                ]
            },
            {
                "account": "0x96c195f6643a3d797cb90cb6ba0ae2776d51b5f3",
                "assets": [
                    {
                        "address": "0xeeeeeeeeeeeeeeeeeeeeeeeeeeeeeeeeeeeeeeee",
                        "amount": "0.00087734372086366",
                        "iconUrl": "https://assets.blocksec.com/image/1663669189317-3.png",
                        "isERC1155": false,
                        "isERC721": false,
                        "sign": true,
                        "value": "1.6010908765820370559"
                    }
                ]
            },
            {
                "account": "0xc02aaa39b223fe8d0a0e5c4f27ead9083c756cc2",
                "assets": [
                    {
                        "address": "0xeeeeeeeeeeeeeeeeeeeeeeeeeeeeeeeeeeeeeeee",
                        "amount": "0.292447906954553399",
                        "iconUrl": "https://assets.blocksec.com/image/1663669189317-3.png",
                        "isERC1155": false,
                        "isERC721": false,
                        "sign": false,
                        "value": "533.6969589215100186"
                    },
                    {
                        "address": "0xc02aaa39b223fe8d0a0e5c4f27ead9083c756cc2",
                        "amount": "0.292447906954553399",
                        "iconUrl": "https://assets.blocksec.com/icon/f1cb2d02c471d545bbc7722daf3277fd852d98e63d118771af7047bd8256c516.png",
                        "isERC1155": false,
                        "isERC721": false,
                        "sign": true,
                        "value": "533.6969589215100186"
                    }
                ]
            },
            {
                "account": "0xf081470f5c6fbccf48cc4e5b82dd926409dcdd67",
                "assets": [
                    {
                        "address": "0xeeeeeeeeeeeeeeeeeeeeeeeeeeeeeeeeeeeeeeee",
                        "amount": "0.000000000000000001",
                        "iconUrl": "https://assets.blocksec.com/image/1663669189317-3.png",
                        "isERC1155": false,
                        "isERC721": false,
                        "sign": true,
                        "value": "0.0000000000000018249300000000000635"
                    }
                ]
            }
        ]
    },
    "profile": {
        "basic_info": {
            "baseFee": "18.826973654",
            "blockNumber": 18463081,
            "callData": "0x8af033fb000000000000000000000000f081470f5c6fbccf48cc4e5b82dd926409dcdd67000000000000000000000000000000000000000000000000000000000000008000000000000000000000000000000000000000000000000000000000000002c0000000000000000000000000000000000000000000000000000000000000068000000000000000000000000076e222b07c53d28b89b0bac18602810fc22b49a8000000000000000000000000eeeeeeeeeeeeeeeeeeeeeeeeeeeeeeeeeeeeeeee0000000000000000000000000000000000000000000000000000000000000160000000000000000000000000000000000000000000000000000000000000018000000000000000000000000000000000000000000000000000000000000001a000000000000000000000000000000000000000000000000000000000000001e0000000000000000000000000518dcd35f21444f6d1c366fa52ff5b5cc1858fb600000000000000000000000000000000000000000000054b40b1f852bda0000000000000000000000000000000000000000000000000000003bb11b214523fb300000000000000000000000000000000000000000000000000000000000000e0000000000000000000000000000000000000000000000000000000000000022000000000000000000000000000000000000000000000000000000000000000000000000000000000000000000000000000000000000000000000000000000000000000000000000000000000000000000000000000000000000000000000000100000000000000000000000096c195f6643a3d797cb90cb6ba0ae2776d51b5f30000000000000000000000000000000000000000000000000000000000000001000000000000000000000000000000000000000000000000000000000000001e000000000000000000000000000000000000000000000000000000000000000000000000000000000000000000000000000000000000000000000000000003a0000000000000000000000000000000000000000000000000000000000000002000000000000000000000000000000000000000000000000000000000000000a000000000000000000000000000000000000000000000000000000000000000e0000000000000000000000000000000000000000000000000000000000000012000000000000000000000000000000000000000000000000000000000653faaf800000000000000000000000000000000000000000000000000000000000003400000000000000000000000000000000000000000000000000000000000000001000000000000000000000000704ad8d95c12d7fea531738faa94402725acb035000000000000000000000000000000000000000000000000000000000000000100000000000000000000000000000000000000000000054b40b1f852bda000000000000000000000000000000000000000000000000000000000000000000001000000000000000000000000000000000000000000000000000000000000002000000000000000000000000000000000000000000000000000000000000001c0000000000000000000000000000000000000000000000000000000000000002000000000000000000000000000000000000000000000000000000000000000010000000000000000000000000000000000000000000000000000000000000020000000000000000000000000000000000000000000000000000000000000004059361199000000000000000000000000000000000000000000000000000000020000000000000000000000000000000000000000000000000000000000000100000000000000000000000000704ad8d95c12d7fea531738faa94402725acb03500000000000000000000000076e222b07c53d28b89b0bac18602810fc22b49a8000000000000000000000000c02aaa39b223fe8d0a0e5c4f27ead9083c756cc2000000000000000000000000f081470f5c6fbccf48cc4e5b82dd926409dcdd670000000000000000000000000000000000000000000000000000000000000000000000000000000000000000000000000000000000000000000000000000001e0000000000000000000000000000000000000000000000000000000000002710000000000000000000000000000000000000000000000000000000000000003200000000000000000000000000000000000000000000000000000000000000200000000000000000000000441740ec8a0000000000000000040efbd26955283700000000000000000000000000000000000000000000000000000000000001ef7b22536f75726365223a22646578746f6f6c73222c22416d6f756e74496e555344223a223534382e3134323735222c22416d6f756e744f7574555344223a223532392e34373137333238393239353433222c22526566657272616c223a22222c22466c616773223a332c22496e74656772697479496e666f223a7b224b65794944223a2231222c225369676e6174757265223a22625556456351534f47425039577a617276446f525a47436e396e30536975504655643333594d4c4b486b493462797567617679662b4e637141476d6835796b4a6a6c594a4b444442486d6e4f71592f2b556e765449665257315837456377757a675476397a457a64773430306f664542482b7a307636552b496d39573564424b4d6b305a5437723236446155444b6437484b51454a4c5579684765667630625a303032692f726666694f63346934444f744963327430385272756b68414353434150317872615969356a4133767a736867527a746f5869494b4a354f34594a7945674b427546632f7441767879767164324f76342b7a455a50524e2b63637a767357457955647453777463423154575842774133586e4a5a4c53743976424d72736179524452486f4d6a3246394a327a7a664c714d3571597a7a316243554d734f416658322f35684e4d705442303079586f78686d673d3d227d7d0000000000000000000000000000000000",
            "debugEnable": true,
            "errorInfo": "",
            "eventCount": 11,
            "feeRecipient": "0x690b9a9e9aa1c9db991c7721a92d351db4fac990",
            "formatValue": "0",
            "gasLimit": 258977,
            "gasPrice": "19.927642901",
            "gasUsed": 229834,
            "intTxnCount": 22,
            "internalRevert": false,
            "internalRevertMessage": "",
            "isContractCreation": false,
            "isFlashloan": false,
            "maxFee": "19.927642901",
            "nonce": 128,
            "overwritedBlockNumber": -1,
            "priorityFee": "19.927642901",
            "receiver": "0x6131b5fae19ea4f9d964eac0408e4408b66337b5",
            "revertMessage": "",
            "sender": "0x518dcd35f21444f6d1c366fa52ff5b5cc1858fb6",
            "simulationEnable": true,
            "sourceTxnHash": "0xcd6a32a899f87a682058ed5d643fafedf0d27561211a8c7902c03ea9c021c0ce",
            "status": true,
            "timestamp": "2023-10-30T12:49:35Z",
            "transactionFee": "0.004580049878508434",
            "txnHash": "0xcd6a32a899f87a682058ed5d643fafedf0d27561211a8c7902c03ea9c021c0ce",
            "txnIndex": 86,
            "type": 2,
            "value": "0"
        },
        "fund_flow": [
            {
                "amount": "25,000",
                "from": "0x518dcd35f21444f6d1c366fa52ff5b5cc1858fb6",
                "id": 1,
                "isERC1155": false,
                "isERC721": false,
                "isReverted": false,
                "order": 1,
                "to": "0x704ad8d95c12d7fea531738faa94402725acb035",
                "token": "0x76e222b07c53d28b89b0bac18602810fc22b49a8"
            },
            {
                "amount": "0.292447906954553399",
                "from": "0x704ad8d95c12d7fea531738faa94402725acb035",
                "id": 2,
                "isERC1155": false,
                "isERC721": false,
                "isReverted": false,
                "order": 2,
                "to": "0xf081470f5c6fbccf48cc4e5b82dd926409dcdd67",
                "token": "0xc02aaa39b223fe8d0a0e5c4f27ead9083c756cc2"
            },
            {
                "amount": "0.292447906954553399",
                "from": "0xc02aaa39b223fe8d0a0e5c4f27ead9083c756cc2",
                "id": 3,
                "isERC1155": false,
                "isERC721": false,
                "isReverted": false,
                "order": 3,
                "to": "0xf081470f5c6fbccf48cc4e5b82dd926409dcdd67",
                "token": "0xeeeeeeeeeeeeeeeeeeeeeeeeeeeeeeeeeeeeeeee"
            },
            {
                "amount": "0.292447906954553399",
                "from": "0xf081470f5c6fbccf48cc4e5b82dd926409dcdd67",
                "id": 4,
                "isERC1155": false,
                "isERC721": false,
                "isReverted": false,
                "order": 4,
                "to": "0xc02aaa39b223fe8d0a0e5c4f27ead9083c756cc2",
                "token": "0xc02aaa39b223fe8d0a0e5c4f27ead9083c756cc2"
            },
            {
                "amount": "0.292447906954553398",
                "from": "0xf081470f5c6fbccf48cc4e5b82dd926409dcdd67",
                "id": 5,
                "isERC1155": false,
                "isERC721": false,
                "isReverted": false,
                "order": 5,
                "to": "0x6131b5fae19ea4f9d964eac0408e4408b66337b5",
                "token": "0xeeeeeeeeeeeeeeeeeeeeeeeeeeeeeeeeeeeeeeee"
            },
            {
                "amount": "0.00087734372086366",
                "from": "0x6131b5fae19ea4f9d964eac0408e4408b66337b5",
                "id": 6,
                "isERC1155": false,
                "isERC721": false,
                "isReverted": false,
                "order": 6,
                "to": "0x96c195f6643a3d797cb90cb6ba0ae2776d51b5f3",
                "token": "0xeeeeeeeeeeeeeeeeeeeeeeeeeeeeeeeeeeeeeeee"
            },
            {
                "amount": "0.291570563233689738",
                "from": "0x6131b5fae19ea4f9d964eac0408e4408b66337b5",
                "id": 7,
                "isERC1155": false,
                "isERC721": false,
                "isReverted": false,
                "order": 7,
                "to": "0x518dcd35f21444f6d1c366fa52ff5b5cc1858fb6",
                "token": "0xeeeeeeeeeeeeeeeeeeeeeeeeeeeeeeeeeeeeeeee"
            }
        ],
        "token_infos": [
            {
                "address": "0x76e222b07c53d28b89b0bac18602810fc22b49a8",
                "decimals": 18
            },
            {
                "address": "0xc02aaa39b223fe8d0a0e5c4f27ead9083c756cc2",
                "decimals": 18
            },
            {
                "address": "0xeeeeeeeeeeeeeeeeeeeeeeeeeeeeeeeeeeeeeeee",
                "decimals": 18
            }
        ]
    },
    "address_label": {
        "labels": [
            {
                "address": "0x704ad8d95c12d7fea531738faa94402725acb035",
                "label": "Uniswap V2: JOE 25"
            },
            {
                "address": "0xc02aaa39b223fe8d0a0e5c4f27ead9083c756cc2",
                "label": "Wrapped Ether (WETH)"
            },
            {
                "address": "0xf081470f5c6fbccf48cc4e5b82dd926409dcdd67",
                "label": "Kyber Network 0xf08147"
            },
            {
                "address": "0x76e222b07c53d28b89b0bac18602810fc22b49a8",
                "label": "Joe Coin: JOE Token"
            },
            {
                "address": "0x0000000000000000000000000000000000000002",
                "label": "Precompiled"
            },
            {
                "address": "0x0000000000000000000000000000000000000003",
                "label": "Precompiled"
            },
            {
                "address": "0xeeeeeeeeeeeeeeeeeeeeeeeeeeeeeeeeeeeeeeee",
                "label": "Ether"
            },
            {
                "address": "0x0000000000000000000000000000000000000001",
                "label": "Precompiled"
            },
            {
                "address": "0x0000000000000000000000000000000000000004",
                "label": "Precompiled"
            },
            {
                "address": "0x6131b5fae19ea4f9d964eac0408e4408b66337b5",
                "label": "KyberSwap: Meta Aggregation Router v2"
            }
        ]
    },
    "trace": {
        "accountLabels": null,
        "dataMap": {
            "-1": {
                "invocation": {
                    "address": "0x518dcd35f21444f6d1c366fa52ff5b5cc1858fb6",
                    "callData": "",
                    "decodedMethod": null,
                    "errorInfo": "",
                    "fromAddress": "",
                    "gasUsed": 0,
                    "id": -1,
                    "methodDecoded": false,
                    "operation": "",
                    "output": "",
                    "revert": false,
                    "revertMessage": "",
                    "selector": "",
                    "status": false,
                    "value": ""
                },
                "nodeType": 0
            },
            "0": {
                "invocation": {
                    "address": "0x6131b5fae19ea4f9d964eac0408e4408b66337b5",
                    "callData": "0x000000000000000000000000f081470f5c6fbccf48cc4e5b82dd926409dcdd67000000000000000000000000000000000000000000000000000000000000008000000000000000000000000000000000000000000000000000000000000002c0000000000000000000000000000000000000000000000000000000000000068000000000000000000000000076e222b07c53d28b89b0bac18602810fc22b49a8000000000000000000000000eeeeeeeeeeeeeeeeeeeeeeeeeeeeeeeeeeeeeeee0000000000000000000000000000000000000000000000000000000000000160000000000000000000000000000000000000000000000000000000000000018000000000000000000000000000000000000000000000000000000000000001a000000000000000000000000000000000000000000000000000000000000001e0000000000000000000000000518dcd35f21444f6d1c366fa52ff5b5cc1858fb600000000000000000000000000000000000000000000054b40b1f852bda0000000000000000000000000000000000000000000000000000003bb11b214523fb300000000000000000000000000000000000000000000000000000000000000e0000000000000000000000000000000000000000000000000000000000000022000000000000000000000000000000000000000000000000000000000000000000000000000000000000000000000000000000000000000000000000000000000000000000000000000000000000000000000000000000000000000000000000100000000000000000000000096c195f6643a3d797cb90cb6ba0ae2776d51b5f30000000000000000000000000000000000000000000000000000000000000001000000000000000000000000000000000000000000000000000000000000001e000000000000000000000000000000000000000000000000000000000000000000000000000000000000000000000000000000000000000000000000000003a0000000000000000000000000000000000000000000000000000000000000002000000000000000000000000000000000000000000000000000000000000000a000000000000000000000000000000000000000000000000000000000000000e0000000000000000000000000000000000000000000000000000000000000012000000000000000000000000000000000000000000000000000000000653faaf800000000000000000000000000000000000000000000000000000000000003400000000000000000000000000000000000000000000000000000000000000001000000000000000000000000704ad8d95c12d7fea531738faa94402725acb035000000000000000000000000000000000000000000000000000000000000000100000000000000000000000000000000000000000000054b40b1f852bda000000000000000000000000000000000000000000000000000000000000000000001000000000000000000000000000000000000000000000000000000000000002000000000000000000000000000000000000000000000000000000000000001c0000000000000000000000000000000000000000000000000000000000000002000000000000000000000000000000000000000000000000000000000000000010000000000000000000000000000000000000000000000000000000000000020000000000000000000000000000000000000000000000000000000000000004059361199000000000000000000000000000000000000000000000000000000020000000000000000000000000000000000000000000000000000000000000100000000000000000000000000704ad8d95c12d7fea531738faa94402725acb03500000000000000000000000076e222b07c53d28b89b0bac18602810fc22b49a8000000000000000000000000c02aaa39b223fe8d0a0e5c4f27ead9083c756cc2000000000000000000000000f081470f5c6fbccf48cc4e5b82dd926409dcdd670000000000000000000000000000000000000000000000000000000000000000000000000000000000000000000000000000000000000000000000000000001e0000000000000000000000000000000000000000000000000000000000002710000000000000000000000000000000000000000000000000000000000000003200000000000000000000000000000000000000000000000000000000000000200000000000000000000000441740ec8a0000000000000000040efbd26955283700000000000000000000000000000000000000000000000000000000000001ef7b22536f75726365223a22646578746f6f6c73222c22416d6f756e74496e555344223a223534382e3134323735222c22416d6f756e744f7574555344223a223532392e34373137333238393239353433222c22526566657272616c223a22222c22466c616773223a332c22496e74656772697479496e666f223a7b224b65794944223a2231222c225369676e6174757265223a22625556456351534f47425039577a617276446f525a47436e396e30536975504655643333594d4c4b486b493462797567617679662b4e637141476d6835796b4a6a6c594a4b444442486d6e4f71592f2b556e765449665257315837456377757a675476397a457a64773430306f664542482b7a307636552b496d39573564424b4d6b305a5437723236446155444b6437484b51454a4c5579684765667630625a303032692f726666694f63346934444f744963327430385272756b68414353434150317872615969356a4133767a736867527a746f5869494b4a354f34594a7945674b427546632f7441767879767164324f76342b7a455a50524e2b63637a767357457955647453777463423154575842774133586e4a5a4c53743976424d72736179524452486f4d6a3246394a327a7a664c714d3571597a7a316243554d734f416658322f35684e4d705442303079586f78686d673d3d227d7d0000000000000000000000000000000000",
                    "decodedMethod": {
                        "callParams": [
                            {
                                "name": "caller",
                                "type": "address",
                                "value": "0xf081470f5c6fbccf48cc4e5b82dd926409dcdd67"
                            },
                            {
                                "name": "desc",
                                "type": "(address,address,address[],uint256[],address[],uint256[],address,uint256,uint256,uint256,bytes)",
                                "value": [
                                    {
                                        "name": "srcToken",
                                        "type": "address",
                                        "value": "0x76e222b07c53d28b89b0bac18602810fc22b49a8"
                                    },
                                    {
                                        "name": "dstToken",
                                        "type": "address",
                                        "value": "0xeeeeeeeeeeeeeeeeeeeeeeeeeeeeeeeeeeeeeeee"
                                    },
                                    {
                                        "name": "srcReceivers",
                                        "type": "address[]",
                                        "value": []
                                    },
                                    {
                                        "name": "srcAmounts",
                                        "type": "uint256[]",
                                        "value": []
                                    },
                                    {
                                        "name": "feeReceivers",
                                        "type": "address[]",
                                        "value": [
                                            "0x96c195f6643a3d797cb90cb6ba0ae2776d51b5f3"
                                        ]
                                    },
                                    {
                                        "name": "feeAmounts",
                                        "type": "uint256[]",
                                        "value": [
                                            "30"
                                        ]
                                    },
                                    {
                                        "name": "dstReceiver",
                                        "type": "address",
                                        "value": "0x518dcd35f21444f6d1c366fa52ff5b5cc1858fb6"
                                    },
                                    {
                                        "name": "amount",
                                        "type": "uint256",
                                        "value": "25,000,000,000,000,000,000,000"
                                    },
                                    {
                                        "name": "minReturnAmount",
                                        "type": "uint256",
                                        "value": "268,828,059,301,461,939"
                                    },
                                    {
                                        "name": "flags",
                                        "type": "uint256",
                                        "value": "224"
                                    },
                                    {
                                        "name": "permit",
                                        "type": "bytes",
                                        "value": "0x"
                                    }
                                ]
                            },
                            {
                                "name": "executorData",
                                "type": "bytes",
                                "value": "0x000000000000000000000000000000000000000000000000000000000000002000000000000000000000000000000000000000000000000000000000000000a000000000000000000000000000000000000000000000000000000000000000e0000000000000000000000000000000000000000000000000000000000000012000000000000000000000000000000000000000000000000000000000653faaf800000000000000000000000000000000000000000000000000000000000003400000000000000000000000000000000000000000000000000000000000000001000000000000000000000000704ad8d95c12d7fea531738faa94402725acb035000000000000000000000000000000000000000000000000000000000000000100000000000000000000000000000000000000000000054b40b1f852bda000000000000000000000000000000000000000000000000000000000000000000001000000000000000000000000000000000000000000000000000000000000002000000000000000000000000000000000000000000000000000000000000001c0000000000000000000000000000000000000000000000000000000000000002000000000000000000000000000000000000000000000000000000000000000010000000000000000000000000000000000000000000000000000000000000020000000000000000000000000000000000000000000000000000000000000004059361199000000000000000000000000000000000000000000000000000000020000000000000000000000000000000000000000000000000000000000000100000000000000000000000000704ad8d95c12d7fea531738faa94402725acb03500000000000000000000000076e222b07c53d28b89b0bac18602810fc22b49a8000000000000000000000000c02aaa39b223fe8d0a0e5c4f27ead9083c756cc2000000000000000000000000f081470f5c6fbccf48cc4e5b82dd926409dcdd670000000000000000000000000000000000000000000000000000000000000000000000000000000000000000000000000000000000000000000000000000001e0000000000000000000000000000000000000000000000000000000000002710000000000000000000000000000000000000000000000000000000000000003200000000000000000000000000000000000000000000000000000000000000200000000000000000000000441740ec8a0000000000000000040efbd269552837"
                            },
                            {
                                "name": "clientData",
                                "type": "bytes",
                                "value": "0x7b22536f75726365223a22646578746f6f6c73222c22416d6f756e74496e555344223a223534382e3134323735222c22416d6f756e744f7574555344223a223532392e34373137333238393239353433222c22526566657272616c223a22222c22466c616773223a332c22496e74656772697479496e666f223a7b224b65794944223a2231222c225369676e6174757265223a22625556456351534f47425039577a617276446f525a47436e396e30536975504655643333594d4c4b486b493462797567617679662b4e637141476d6835796b4a6a6c594a4b444442486d6e4f71592f2b556e765449665257315837456377757a675476397a457a64773430306f664542482b7a307636552b496d39573564424b4d6b305a5437723236446155444b6437484b51454a4c5579684765667630625a303032692f726666694f63346934444f744963327430385272756b68414353434150317872615969356a4133767a736867527a746f5869494b4a354f34594a7945674b427546632f7441767879767164324f76342b7a455a50524e2b63637a767357457955647453777463423154575842774133586e4a5a4c53743976424d72736179524452486f4d6a3246394a327a7a664c714d3571597a7a316243554d734f416658322f35684e4d705442303079586f78686d673d3d227d7d"
                            }
                        ],
                        "constructorArguments": "",
                        "name": "swapSimpleMode",
                        "returnParams": [
                            {
                                "name": "returnAmount",
                                "type": "uint256",
                                "value": "291,570,563,233,689,738"
                            },
                            {
                                "name": "gasUsed",
                                "type": "uint256",
                                "value": "192,083"
                            }
                        ],
                        "signature": "swapSimpleMode(address,(address,address,address[],uint256[],address[],uint256[],address,uint256,uint256,uint256,bytes),bytes,bytes)"
                    },
                    "errorInfo": "",
                    "fromAddress": "0x518dcd35f21444f6d1c366fa52ff5b5cc1858fb6",
                    "gasUsed": 229834,
                    "id": 0,
                    "methodDecoded": true,
                    "operation": "CALL",
                    "output": "0x000000000000000000000000000000000000000000000000040bdde1e881308a000000000000000000000000000000000000000000000000000000000002ee53",
                    "revert": false,
                    "revertMessage": "",
                    "selector": "0x8af033fb",
                    "status": true,
                    "value": "0"
                },
                "nodeType": 0
            },
            "1": {
                "invocation": {
                    "address": "0x76e222b07c53d28b89b0bac18602810fc22b49a8",
                    "callData": "0x000000000000000000000000518dcd35f21444f6d1c366fa52ff5b5cc1858fb6",
                    "decodedMethod": {
                        "callParams": [
                            {
                                "name": "account",
                                "type": "address",
                                "value": "0x518dcd35f21444f6d1c366fa52ff5b5cc1858fb6"
                            }
                        ],
                        "constructorArguments": "",
                        "name": "balanceOf",
                        "returnParams": [
                            {
                                "decimalAvailable": true,
                                "name": "",
                                "type": "uint256",
                                "value": "50,000,000,000,000,000,000,000"
                            }
                        ],
                        "signature": "balanceOf(address)"
                    },
                    "errorInfo": "",
                    "fromAddress": "0x6131b5fae19ea4f9d964eac0408e4408b66337b5",
                    "gasUsed": 2610,
                    "id": 1,
                    "methodDecoded": true,
                    "operation": "STATICCALL",
                    "output": "0x000000000000000000000000000000000000000000000a968163f0a57b400000",
                    "revert": false,
                    "revertMessage": "",
                    "selector": "0x70a08231",
                    "status": true,
                    "value": "0"
                },
                "nodeType": 0
            },
            "10": {
                "invocation": {
                    "address": "0x76e222b07c53d28b89b0bac18602810fc22b49a8",
                    "callData": "0x000000000000000000000000704ad8d95c12d7fea531738faa94402725acb035",
                    "decodedMethod": {
                        "callParams": [
                            {
                                "name": "account",
                                "type": "address",
                                "value": "0x704ad8d95c12d7fea531738faa94402725acb035"
                            }
                        ],
                        "constructorArguments": "",
                        "name": "balanceOf",
                        "returnParams": [
                            {
                                "decimalAvailable": true,
                                "name": "",
                                "type": "uint256",
                                "value": "19,410,731,027,061,939,272,667,493"
                            }
                        ],
                        "signature": "balanceOf(address)"
                    },
                    "errorInfo": "",
                    "fromAddress": "0xf081470f5c6fbccf48cc4e5b82dd926409dcdd67",
                    "gasUsed": 610,
                    "id": 10,
                    "methodDecoded": true,
                    "operation": "STATICCALL",
                    "output": "0x000000000000000000000000000000000000000000100e61d6635c393713d165",
                    "revert": false,
                    "revertMessage": "",
                    "selector": "0x70a08231",
                    "status": true,
                    "value": "0"
                },
                "nodeType": 0
            },
            "11": {
                "invocation": {
                    "address": "0xcde3eb49d53d932c605efbc1bc425c6affa5eac2",
                    "callData": "0x00000000000000000000000000000000000000000000054b40b1f852bda0000000000000000000000000000000000000000000000010091695b163e67973d16500000000000000000000000000000000000000000000000c58a18eb1698310ed00000000000000000000000000000000000000000000000000000000000000320000000000000000000000000000000000000000000000000000000000000032000000000000000000000000000000000000000000000000000000000000001e0000000000000000000000000000000000000000000000000000000000002710",
                    "decodedMethod": null,
                    "errorInfo": "",
                    "fromAddress": "0xf081470f5c6fbccf48cc4e5b82dd926409dcdd67",
                    "gasUsed": 1515,
                    "id": 11,
                    "methodDecoded": false,
                    "operation": "STATICCALL",
                    "output": "0x000000000000000000000000000000000000000000000000040efbd269552837",
                    "revert": false,
                    "revertMessage": "",
                    "selector": "0xf87576e8",
                    "status": true,
                    "value": "0"
                },
                "nodeType": 0
            },
            "12": {
                "invocation": {
                    "address": "0x704ad8d95c12d7fea531738faa94402725acb035",
                    "callData": "0x0000000000000000000000000000000000000000000000000000000000000000000000000000000000000000000000000000000000000000040efbd269552837000000000000000000000000f081470f5c6fbccf48cc4e5b82dd926409dcdd6700000000000000000000000000000000000000000000000000000000000000800000000000000000000000000000000000000000000000000000000000000000",
                    "decodedMethod": {
                        "callParams": [
                            {
                                "name": "amount0Out",
                                "type": "uint256",
                                "value": "0"
                            },
                            {
                                "name": "amount1Out",
                                "type": "uint256",
                                "value": "292,447,906,954,553,399"
                            },
                            {
                                "name": "to",
                                "type": "address",
                                "value": "0xf081470f5c6fbccf48cc4e5b82dd926409dcdd67"
                            },
                            {
                                "name": "data",
                                "type": "bytes",
                                "value": "0x"
                            }
                        ],
                        "constructorArguments": "",
                        "name": "swap",
                        "returnParams": [],
                        "signature": "swap(uint256,uint256,address,bytes)"
                    },
                    "errorInfo": "",
                    "fromAddress": "0xf081470f5c6fbccf48cc4e5b82dd926409dcdd67",
                    "gasUsed": 47829,
                    "id": 12,
                    "methodDecoded": true,
                    "operation": "CALL",
                    "output": "",
                    "revert": false,
                    "revertMessage": "",
                    "selector": "0x022c0d9f",
                    "status": true,
                    "value": "0"
                },
                "nodeType": 0
            },
            "13": {
                "invocation": {
                    "address": "0xc02aaa39b223fe8d0a0e5c4f27ead9083c756cc2",
                    "callData": "0x000000000000000000000000f081470f5c6fbccf48cc4e5b82dd926409dcdd67000000000000000000000000000000000000000000000000040efbd269552837",
                    "decodedMethod": {
                        "callParams": [
                            {
                                "name": "dst",
                                "type": "address",
                                "value": "0xf081470f5c6fbccf48cc4e5b82dd926409dcdd67"
                            },
                            {
                                "decimalAvailable": true,
                                "name": "wad",
                                "type": "uint256",
                                "value": "292,447,906,954,553,399"
                            }
                        ],
                        "constructorArguments": "",
                        "name": "transfer",
                        "returnParams": [
                            {
                                "name": "",
                                "type": "bool",
                                "value": true
                            }
                        ],
                        "signature": "transfer(address,uint256)"
                    },
                    "errorInfo": "",
                    "fromAddress": "0x704ad8d95c12d7fea531738faa94402725acb035",
                    "gasUsed": 12862,
                    "id": 13,
                    "methodDecoded": true,
                    "operation": "CALL",
                    "output": "0x0000000000000000000000000000000000000000000000000000000000000001",
                    "revert": false,
                    "revertMessage": "",
                    "selector": "0xa9059cbb",
                    "status": true,
                    "value": "0"
                },
                "nodeType": 0
            },
            "14": {
                "event": {
                    "contract": "0xc02aaa39b223fe8d0a0e5c4f27ead9083c756cc2",
                    "decodedLog": {
                        "name": "Transfer",
                        "params": [
                            {
                                "name": "src",
                                "type": "address",
                                "value": "0x704ad8d95c12d7fea531738faa94402725acb035"
                            },
                            {
                                "name": "dst",
                                "type": "address",
                                "value": "0xf081470f5c6fbccf48cc4e5b82dd926409dcdd67"
                            },
                            {
                                "decimalAvailable": true,
                                "name": "wad",
                                "type": "uint256",
                                "value": "292,447,906,954,553,399"
                            }
                        ],
                        "signature": "Transfer(address,address,uint256)"
                    },
                    "id": 14,
                    "logData": "0x000000000000000000000000000000000000000000000000040efbd269552837",
                    "logDecoded": true,
                    "operation": "EVENT",
                    "revert": false,
                    "status": true,
                    "topics": [
                        "0xddf252ad1be2c89b69c2b068fc378daa952ba7f163c4a11628f55a4df523b3ef",
                        "0x000000000000000000000000704ad8d95c12d7fea531738faa94402725acb035",
                        "0x000000000000000000000000f081470f5c6fbccf48cc4e5b82dd926409dcdd67"
                    ]
                },
                "nodeType": 1
            },
            "15": {
                "invocation": {
                    "address": "0x76e222b07c53d28b89b0bac18602810fc22b49a8",
                    "callData": "0x000000000000000000000000704ad8d95c12d7fea531738faa94402725acb035",
                    "decodedMethod": {
                        "callParams": [
                            {
                                "name": "account",
                                "type": "address",
                                "value": "0x704ad8d95c12d7fea531738faa94402725acb035"
                            }
                        ],
                        "constructorArguments": "",
                        "name": "balanceOf",
                        "returnParams": [
                            {
                                "decimalAvailable": true,
                                "name": "",
                                "type": "uint256",
                                "value": "19,410,731,027,061,939,272,667,493"
                            }
                        ],
                        "signature": "balanceOf(address)"
                    },
                    "errorInfo": "",
                    "fromAddress": "0x704ad8d95c12d7fea531738faa94402725acb035",
                    "gasUsed": 610,
                    "id": 15,
                    "methodDecoded": true,
                    "operation": "STATICCALL",
                    "output": "0x000000000000000000000000000000000000000000100e61d6635c393713d165",
                    "revert": false,
                    "revertMessage": "",
                    "selector": "0x70a08231",
                    "status": true,
                    "value": "0"
                },
                "nodeType": 0
            },
            "16": {
                "invocation": {
                    "address": "0xc02aaa39b223fe8d0a0e5c4f27ead9083c756cc2",
                    "callData": "0x000000000000000000000000704ad8d95c12d7fea531738faa94402725acb035",
                    "decodedMethod": {
                        "callParams": [
                            {
                                "name": "",
                                "type": "address",
                                "value": "0x704ad8d95c12d7fea531738faa94402725acb035"
                            }
                        ],
                        "constructorArguments": "",
                        "name": "balanceOf",
                        "returnParams": [
                            {
                                "decimalAvailable": true,
                                "name": "",
                                "type": "uint256",
                                "value": "227,455,023,616,778,692,790"
                            }
                        ],
                        "signature": "balanceOf(address)"
                    },
                    "errorInfo": "",
                    "fromAddress": "0x704ad8d95c12d7fea531738faa94402725acb035",
                    "gasUsed": 534,
                    "id": 16,
                    "methodDecoded": true,
                    "operation": "STATICCALL",
                    "output": "0x00000000000000000000000000000000000000000000000c549292df002de8b6",
                    "revert": false,
                    "revertMessage": "",
                    "selector": "0x70a08231",
                    "status": true,
                    "value": "0"
                },
                "nodeType": 0
            },
            "17": {
                "event": {
                    "contract": "0x704ad8d95c12d7fea531738faa94402725acb035",
                    "decodedLog": {
                        "name": "Sync",
                        "params": [
                            {
                                "name": "reserve0",
                                "type": "uint112",
                                "value": "19,410,731,027,061,939,272,667,493"
                            },
                            {
                                "name": "reserve1",
                                "type": "uint112",
                                "value": "227,455,023,616,778,692,790"
                            }
                        ],
                        "signature": "Sync(uint112,uint112)"
                    },
                    "id": 17,
                    "logData": "0x000000000000000000000000000000000000000000100e61d6635c393713d16500000000000000000000000000000000000000000000000c549292df002de8b6",
                    "logDecoded": true,
                    "operation": "EVENT",
                    "revert": false,
                    "status": true,
                    "topics": [
                        "0x1c411e9a96e071241c2f21f7726b17ae89e3cab4c78be50e062b03a9fffbbad1"
                    ]
                },
                "nodeType": 1
            },
            "18": {
                "event": {
                    "contract": "0x704ad8d95c12d7fea531738faa94402725acb035",
                    "decodedLog": {
                        "name": "Swap",
                        "params": [
                            {
                                "name": "sender",
                                "type": "address",
                                "value": "0xf081470f5c6fbccf48cc4e5b82dd926409dcdd67"
                            },
                            {
                                "name": "to",
                                "type": "address",
                                "value": "0xf081470f5c6fbccf48cc4e5b82dd926409dcdd67"
                            },
                            {
                                "name": "amount0In",
                                "type": "uint256",
                                "value": "25,000,000,000,000,000,000,000"
                            },
                            {
                                "name": "amount1In",
                                "type": "uint256",
                                "value": "0"
                            },
                            {
                                "name": "amount0Out",
                                "type": "uint256",
                                "value": "0"
                            },
                            {
                                "name": "amount1Out",
                                "type": "uint256",
                                "value": "292,447,906,954,553,399"
                            }
                        ],
                        "signature": "Swap(address,uint256,uint256,uint256,uint256,address)"
                    },
                    "id": 18,
                    "logData": "0x00000000000000000000000000000000000000000000054b40b1f852bda0000000000000000000000000000000000000000000000000000000000000000000000000000000000000000000000000000000000000000000000000000000000000000000000000000000000000000000000000000000000000040efbd269552837",
                    "logDecoded": true,
                    "operation": "EVENT",
                    "revert": false,
                    "status": true,
                    "topics": [
                        "0xd78ad95fa46c994b6551d0da85fc275fe613ce37657fb8d5e3d130840159d822",
                        "0x000000000000000000000000f081470f5c6fbccf48cc4e5b82dd926409dcdd67",
                        "0x000000000000000000000000f081470f5c6fbccf48cc4e5b82dd926409dcdd67"
                    ]
                },
                "nodeType": 1
            },
            "19": {
                "event": {
                    "contract": "0xf081470f5c6fbccf48cc4e5b82dd926409dcdd67",
                    "decodedLog": {
                        "name": "Exchange",
                        "params": [
                            {
                                "name": "pair",
                                "type": "address",
                                "value": "0x704ad8d95c12d7fea531738faa94402725acb035"
                            },
                            {
                                "name": "amountOut",
                                "type": "uint256",
                                "value": "292,447,906,954,553,399"
                            },
                            {
                                "name": "output",
                                "type": "address",
                                "value": "0xc02aaa39b223fe8d0a0e5c4f27ead9083c756cc2"
                            }
                        ],
                        "signature": "Exchange(address,uint256,address)"
                    },
                    "id": 19,
                    "logData": "0x000000000000000000000000704ad8d95c12d7fea531738faa94402725acb035000000000000000000000000000000000000000000000000040efbd269552837000000000000000000000000c02aaa39b223fe8d0a0e5c4f27ead9083c756cc2",
                    "logDecoded": true,
                    "operation": "EVENT",
                    "revert": false,
                    "status": true,
                    "topics": [
                        "0xddac40937f35385a34f721af292e5a83fc5b840f722bff57c2fc71adba708c48"
                    ]
                },
                "nodeType": 1
            },
            "2": {
                "invocation": {
                    "address": "0x76e222b07c53d28b89b0bac18602810fc22b49a8",
                    "callData": "0x000000000000000000000000518dcd35f21444f6d1c366fa52ff5b5cc1858fb6",
                    "decodedMethod": {
                        "callParams": [
                            {
                                "name": "account",
                                "type": "address",
                                "value": "0x518dcd35f21444f6d1c366fa52ff5b5cc1858fb6"
                            }
                        ],
                        "constructorArguments": "",
                        "name": "balanceOf",
                        "returnParams": [
                            {
                                "decimalAvailable": true,
                                "name": "",
                                "type": "uint256",
                                "value": "50,000,000,000,000,000,000,000"
                            }
                        ],
                        "signature": "balanceOf(address)"
                    },
                    "errorInfo": "",
                    "fromAddress": "0x6131b5fae19ea4f9d964eac0408e4408b66337b5",
                    "gasUsed": 610,
                    "id": 2,
                    "methodDecoded": true,
                    "operation": "STATICCALL",
                    "output": "0x000000000000000000000000000000000000000000000a968163f0a57b400000",
                    "revert": false,
                    "revertMessage": "",
                    "selector": "0x70a08231",
                    "status": true,
                    "value": "0"
                },
                "nodeType": 0
            },
            "20": {
                "invocation": {
                    "address": "0xf081470f5c6fbccf48cc4e5b82dd926409dcdd67",
                    "callData": "0x00000000000000000000000076e222b07c53d28b89b0bac18602810fc22b49a8000000000000000000000000eeeeeeeeeeeeeeeeeeeeeeeeeeeeeeeeeeeeeeee0000000000000000000000006131b5fae19ea4f9d964eac0408e4408b66337b5000000000000000000000000000000000000000000000000000000000000008000000000000000000000000000000000000000000000000000000000000000200000000000000000000000441740ec8a0000000000000000040efbd269552837",
                    "decodedMethod": null,
                    "errorInfo": "",
                    "fromAddress": "0x6131b5fae19ea4f9d964eac0408e4408b66337b5",
                    "gasUsed": 22929,
                    "id": 20,
                    "methodDecoded": false,
                    "operation": "CALL",
                    "output": "",
                    "revert": false,
                    "revertMessage": "",
                    "selector": "0x774b6b7e",
                    "status": true,
                    "value": "0"
                },
                "nodeType": 0
            },
            "21": {
                "invocation": {
                    "address": "0xc02aaa39b223fe8d0a0e5c4f27ead9083c756cc2",
                    "callData": "0x000000000000000000000000f081470f5c6fbccf48cc4e5b82dd926409dcdd67",
                    "decodedMethod": {
                        "callParams": [
                            {
                                "name": "",
                                "type": "address",
                                "value": "0xf081470f5c6fbccf48cc4e5b82dd926409dcdd67"
                            }
                        ],
                        "constructorArguments": "",
                        "name": "balanceOf",
                        "returnParams": [
                            {
                                "decimalAvailable": true,
                                "name": "",
                                "type": "uint256",
                                "value": "292,447,906,954,553,400"
                            }
                        ],
                        "signature": "balanceOf(address)"
                    },
                    "errorInfo": "",
                    "fromAddress": "0xf081470f5c6fbccf48cc4e5b82dd926409dcdd67",
                    "gasUsed": 534,
                    "id": 21,
                    "methodDecoded": true,
                    "operation": "STATICCALL",
                    "output": "0x000000000000000000000000000000000000000000000000040efbd269552838",
                    "revert": false,
                    "revertMessage": "",
                    "selector": "0x70a08231",
                    "status": true,
                    "value": "0"
                },
                "nodeType": 0
            },
            "22": {
                "invocation": {
                    "address": "0xc02aaa39b223fe8d0a0e5c4f27ead9083c756cc2",
                    "callData": "0x000000000000000000000000000000000000000000000000040efbd269552837",
                    "decodedMethod": {
                        "callParams": [
                            {
                                "name": "wad",
                                "type": "uint256",
                                "value": "292,447,906,954,553,399"
                            }
                        ],
                        "constructorArguments": "",
                        "name": "withdraw",
                        "returnParams": [],
                        "signature": "withdraw(uint256)"
                    },
                    "errorInfo": "",
                    "fromAddress": "0xf081470f5c6fbccf48cc4e5b82dd926409dcdd67",
                    "gasUsed": 9195,
                    "id": 22,
                    "methodDecoded": true,
                    "operation": "CALL",
                    "output": "",
                    "revert": false,
                    "revertMessage": "",
                    "selector": "0x2e1a7d4d",
                    "status": true,
                    "value": "0"
                },
                "nodeType": 0
            },
            "23": {
                "invocation": {
                    "address": "0xf081470f5c6fbccf48cc4e5b82dd926409dcdd67",
                    "callData": "0x",
                    "decodedMethod": null,
                    "errorInfo": "",
                    "fromAddress": "0xc02aaa39b223fe8d0a0e5c4f27ead9083c756cc2",
                    "gasUsed": 55,
                    "id": 23,
                    "methodDecoded": false,
                    "operation": "CALL",
                    "output": "",
                    "revert": false,
                    "revertMessage": "",
                    "selector": "fallback",
                    "status": true,
                    "value": "0.292447906954553399"
                },
                "nodeType": 0
            },
            "24": {
                "event": {
                    "contract": "0xc02aaa39b223fe8d0a0e5c4f27ead9083c756cc2",
                    "decodedLog": {
                        "name": "Withdrawal",
                        "params": [
                            {
                                "name": "src",
                                "type": "address",
                                "value": "0xf081470f5c6fbccf48cc4e5b82dd926409dcdd67"
                            },
                            {
                                "name": "wad",
                                "type": "uint256",
                                "value": "292,447,906,954,553,399"
                            }
                        ],
                        "signature": "Withdrawal(address,uint256)"
                    },
                    "id": 24,
                    "logData": "0x000000000000000000000000000000000000000000000000040efbd269552837",
                    "logDecoded": true,
                    "operation": "EVENT",
                    "revert": false,
                    "status": true,
                    "topics": [
                        "0x7fcf532c15f0a6db0bd6d0e038bea71d30d808c7d98cb3bf7268a95bf5081b65",
                        "0x000000000000000000000000f081470f5c6fbccf48cc4e5b82dd926409dcdd67"
                    ]
                },
                "nodeType": 1
            },
            "25": {
                "invocation": {
                    "address": "0x76e222b07c53d28b89b0bac18602810fc22b49a8",
                    "callData": "0x000000000000000000000000f081470f5c6fbccf48cc4e5b82dd926409dcdd67",
                    "decodedMethod": {
                        "callParams": [
                            {
                                "name": "account",
                                "type": "address",
                                "value": "0xf081470f5c6fbccf48cc4e5b82dd926409dcdd67"
                            }
                        ],
                        "constructorArguments": "",
                        "name": "balanceOf",
                        "returnParams": [
                            {
                                "decimalAvailable": true,
                                "name": "",
                                "type": "uint256",
                                "value": "1"
                            }
                        ],
                        "signature": "balanceOf(address)"
                    },
                    "errorInfo": "",
                    "fromAddress": "0xf081470f5c6fbccf48cc4e5b82dd926409dcdd67",
                    "gasUsed": 2610,
                    "id": 25,
                    "methodDecoded": true,
                    "operation": "STATICCALL",
                    "output": "0x0000000000000000000000000000000000000000000000000000000000000001",
                    "revert": false,
                    "revertMessage": "",
                    "selector": "0x70a08231",
                    "status": true,
                    "value": "0"
                },
                "nodeType": 0
            },
            "26": {
                "invocation": {
                    "address": "0x6131b5fae19ea4f9d964eac0408e4408b66337b5",
                    "callData": "0x",
                    "decodedMethod": null,
                    "errorInfo": "",
                    "fromAddress": "0xf081470f5c6fbccf48cc4e5b82dd926409dcdd67",
                    "gasUsed": 55,
                    "id": 26,
                    "methodDecoded": false,
                    "operation": "CALL",
                    "output": "",
                    "revert": false,
                    "revertMessage": "",
                    "selector": "fallback",
                    "status": true,
                    "value": "0.292447906954553398"
                },
                "nodeType": 0
            },
            "27": {
                "invocation": {
                    "address": "0x96c195f6643a3d797cb90cb6ba0ae2776d51b5f3",
                    "callData": "0x",
                    "decodedMethod": null,
                    "errorInfo": "",
                    "fromAddress": "0x6131b5fae19ea4f9d964eac0408e4408b66337b5",
                    "gasUsed": 0,
                    "id": 27,
                    "methodDecoded": false,
                    "operation": "CALL",
                    "output": "",
                    "revert": false,
                    "revertMessage": "",
                    "selector": "fallback",
                    "status": true,
                    "value": "0.00087734372086366"
                },
                "nodeType": 0
            },
            "28": {
                "event": {
                    "contract": "0x6131b5fae19ea4f9d964eac0408e4408b66337b5",
                    "decodedLog": {
                        "name": "Fee",
                        "params": [
                            {
                                "name": "token",
                                "type": "address",
                                "value": "0xeeeeeeeeeeeeeeeeeeeeeeeeeeeeeeeeeeeeeeee"
                            },
                            {
                                "name": "totalAmount",
                                "type": "uint256",
                                "value": "292,447,906,954,553,398"
                            },
                            {
                                "name": "totalFee",
                                "type": "uint256",
                                "value": "877,343,720,863,660"
                            },
                            {
                                "name": "recipients",
                                "type": "address[]",
                                "value": [
                                    "0x96c195f6643a3d797cb90cb6ba0ae2776d51b5f3"
                                ]
                            },
                            {
                                "name": "amounts",
                                "type": "uint256[]",
                                "value": [
                                    "30"
                                ]
                            },
                            {
                                "name": "isBps",
                                "type": "bool",
                                "value": true
                            }
                        ],
                        "signature": "Fee(address,uint256,uint256,address[],uint256[],bool)"
                    },
                    "id": 28,
                    "logData": "0x000000000000000000000000eeeeeeeeeeeeeeeeeeeeeeeeeeeeeeeeeeeeeeee000000000000000000000000000000000000000000000000040efbd26955283600000000000000000000000000000000000000000000000000031df080d3f7ac00000000000000000000000000000000000000000000000000000000000000c000000000000000000000000000000000000000000000000000000000000001000000000000000000000000000000000000000000000000000000000000000001000000000000000000000000000000000000000000000000000000000000000100000000000000000000000096c195f6643a3d797cb90cb6ba0ae2776d51b5f30000000000000000000000000000000000000000000000000000000000000001000000000000000000000000000000000000000000000000000000000000001e",
                    "logDecoded": true,
                    "operation": "EVENT",
                    "revert": false,
                    "status": true,
                    "topics": [
                        "0x4c39b7ce5f4f514f45cb6f82b171b8b0b7f2cbf488ad28e4eff451588e2f014b"
                    ]
                },
                "nodeType": 1
            },
            "29": {
                "invocation": {
                    "address": "0x518dcd35f21444f6d1c366fa52ff5b5cc1858fb6",
                    "callData": "0x",
                    "decodedMethod": null,
                    "errorInfo": "",
                    "fromAddress": "0x6131b5fae19ea4f9d964eac0408e4408b66337b5",
                    "gasUsed": 0,
                    "id": 29,
                    "methodDecoded": false,
                    "operation": "CALL",
                    "output": "",
                    "revert": false,
                    "revertMessage": "",
                    "selector": "fallback",
                    "status": true,
                    "value": "0.291570563233689738"
                },
                "nodeType": 0
            },
            "3": {
                "invocation": {
                    "address": "0x76e222b07c53d28b89b0bac18602810fc22b49a8",
                    "callData": "0x000000000000000000000000518dcd35f21444f6d1c366fa52ff5b5cc1858fb6000000000000000000000000704ad8d95c12d7fea531738faa94402725acb03500000000000000000000000000000000000000000000054b40b1f852bda00000",
                    "decodedMethod": {
                        "callParams": [
                            {
                                "name": "sender",
                                "type": "address",
                                "value": "0x518dcd35f21444f6d1c366fa52ff5b5cc1858fb6"
                            },
                            {
                                "name": "recipient",
                                "type": "address",
                                "value": "0x704ad8d95c12d7fea531738faa94402725acb035"
                            },
                            {
                                "decimalAvailable": true,
                                "name": "amount",
                                "type": "uint256",
                                "value": "25,000,000,000,000,000,000,000"
                            }
                        ],
                        "constructorArguments": "",
                        "name": "transferFrom",
                        "returnParams": [
                            {
                                "name": "",
                                "type": "bool",
                                "value": true
                            }
                        ],
                        "signature": "transferFrom(address,address,uint256)"
                    },
                    "errorInfo": "",
                    "fromAddress": "0x6131b5fae19ea4f9d964eac0408e4408b66337b5",
                    "gasUsed": 38220,
                    "id": 3,
                    "methodDecoded": true,
                    "operation": "CALL",
                    "output": "0x0000000000000000000000000000000000000000000000000000000000000001",
                    "revert": false,
                    "revertMessage": "",
                    "selector": "0x23b872dd",
                    "status": true,
                    "value": "0"
                },
                "nodeType": 0
            },
            "30": {
                "invocation": {
                    "address": "0x76e222b07c53d28b89b0bac18602810fc22b49a8",
                    "callData": "0x000000000000000000000000518dcd35f21444f6d1c366fa52ff5b5cc1858fb6",
                    "decodedMethod": {
                        "callParams": [
                            {
                                "name": "account",
                                "type": "address",
                                "value": "0x518dcd35f21444f6d1c366fa52ff5b5cc1858fb6"
                            }
                        ],
                        "constructorArguments": "",
                        "name": "balanceOf",
                        "returnParams": [
                            {
                                "decimalAvailable": true,
                                "name": "",
                                "type": "uint256",
                                "value": "25,000,000,000,000,000,000,000"
                            }
                        ],
                        "signature": "balanceOf(address)"
                    },
                    "errorInfo": "",
                    "fromAddress": "0x6131b5fae19ea4f9d964eac0408e4408b66337b5",
                    "gasUsed": 610,
                    "id": 30,
                    "methodDecoded": true,
                    "operation": "STATICCALL",
                    "output": "0x00000000000000000000000000000000000000000000054b40b1f852bda00000",
                    "revert": false,
                    "revertMessage": "",
                    "selector": "0x70a08231",
                    "status": true,
                    "value": "0"
                },
                "nodeType": 0
            },
            "31": {
                "event": {
                    "contract": "0x6131b5fae19ea4f9d964eac0408e4408b66337b5",
                    "decodedLog": {
                        "name": "Swapped",
                        "params": [
                            {
                                "name": "sender",
                                "type": "address",
                                "value": "0x518dcd35f21444f6d1c366fa52ff5b5cc1858fb6"
                            },
                            {
                                "name": "srcToken",
                                "type": "address",
                                "value": "0x76e222b07c53d28b89b0bac18602810fc22b49a8"
                            },
                            {
                                "name": "dstToken",
                                "type": "address",
                                "value": "0xeeeeeeeeeeeeeeeeeeeeeeeeeeeeeeeeeeeeeeee"
                            },
                            {
                                "name": "dstReceiver",
                                "type": "address",
                                "value": "0x518dcd35f21444f6d1c366fa52ff5b5cc1858fb6"
                            },
                            {
                                "name": "spentAmount",
                                "type": "uint256",
                                "value": "25,000,000,000,000,000,000,000"
                            },
                            {
                                "name": "returnAmount",
                                "type": "uint256",
                                "value": "291,570,563,233,689,738"
                            }
                        ],
                        "signature": "Swapped(address,address,address,address,uint256,uint256)"
                    },
                    "id": 31,
                    "logData": "0x000000000000000000000000518dcd35f21444f6d1c366fa52ff5b5cc1858fb600000000000000000000000076e222b07c53d28b89b0bac18602810fc22b49a8000000000000000000000000eeeeeeeeeeeeeeeeeeeeeeeeeeeeeeeeeeeeeeee000000000000000000000000518dcd35f21444f6d1c366fa52ff5b5cc1858fb600000000000000000000000000000000000000000000054b40b1f852bda00000000000000000000000000000000000000000000000000000040bdde1e881308a",
                    "logDecoded": true,
                    "operation": "EVENT",
                    "revert": false,
                    "status": true,
                    "topics": [
                        "0xd6d4f5681c246c9f42c203e287975af1601f8df8035a9251f79aab5c8f09e2f8"
                    ]
                },
                "nodeType": 1
            },
            "32": {
                "event": {
                    "contract": "0x6131b5fae19ea4f9d964eac0408e4408b66337b5",
                    "decodedLog": {
                        "name": "Exchange",
                        "params": [
                            {
                                "name": "pair",
                                "type": "address",
                                "value": "0xf081470f5c6fbccf48cc4e5b82dd926409dcdd67"
                            },
                            {
                                "name": "amountOut",
                                "type": "uint256",
                                "value": "291,570,563,233,689,738"
                            },
                            {
                                "name": "output",
                                "type": "address",
                                "value": "0xc02aaa39b223fe8d0a0e5c4f27ead9083c756cc2"
                            }
                        ],
                        "signature": "Exchange(address,uint256,address)"
                    },
                    "id": 32,
                    "logData": "0x000000000000000000000000f081470f5c6fbccf48cc4e5b82dd926409dcdd67000000000000000000000000000000000000000000000000040bdde1e881308a000000000000000000000000c02aaa39b223fe8d0a0e5c4f27ead9083c756cc2",
                    "logDecoded": true,
                    "operation": "EVENT",
                    "revert": false,
                    "status": true,
                    "topics": [
                        "0xddac40937f35385a34f721af292e5a83fc5b840f722bff57c2fc71adba708c48"
                    ]
                },
                "nodeType": 1
            },
            "33": {
                "event": {
                    "contract": "0x6131b5fae19ea4f9d964eac0408e4408b66337b5",
                    "decodedLog": {
                        "name": "ClientData",
                        "params": [
                            {
                                "name": "clientData",
                                "type": "bytes",
                                "value": "0x7b22536f75726365223a22646578746f6f6c73222c22416d6f756e74496e555344223a223534382e3134323735222c22416d6f756e744f7574555344223a223532392e34373137333238393239353433222c22526566657272616c223a22222c22466c616773223a332c22496e74656772697479496e666f223a7b224b65794944223a2231222c225369676e6174757265223a22625556456351534f47425039577a617276446f525a47436e396e30536975504655643333594d4c4b486b493462797567617679662b4e637141476d6835796b4a6a6c594a4b444442486d6e4f71592f2b556e765449665257315837456377757a675476397a457a64773430306f664542482b7a307636552b496d39573564424b4d6b305a5437723236446155444b6437484b51454a4c5579684765667630625a303032692f726666694f63346934444f744963327430385272756b68414353434150317872615969356a4133767a736867527a746f5869494b4a354f34594a7945674b427546632f7441767879767164324f76342b7a455a50524e2b63637a767357457955647453777463423154575842774133586e4a5a4c53743976424d72736179524452486f4d6a3246394a327a7a664c714d3571597a7a316243554d734f416658322f35684e4d705442303079586f78686d673d3d227d7d"
                            }
                        ],
                        "signature": "ClientData(bytes)"
                    },
                    "id": 33,
                    "logData": "0x000000000000000000000000000000000000000000000000000000000000002000000000000000000000000000000000000000000000000000000000000001ef7b22536f75726365223a22646578746f6f6c73222c22416d6f756e74496e555344223a223534382e3134323735222c22416d6f756e744f7574555344223a223532392e34373137333238393239353433222c22526566657272616c223a22222c22466c616773223a332c22496e74656772697479496e666f223a7b224b65794944223a2231222c225369676e6174757265223a22625556456351534f47425039577a617276446f525a47436e396e30536975504655643333594d4c4b486b493462797567617679662b4e637141476d6835796b4a6a6c594a4b444442486d6e4f71592f2b556e765449665257315837456377757a675476397a457a64773430306f664542482b7a307636552b496d39573564424b4d6b305a5437723236446155444b6437484b51454a4c5579684765667630625a303032692f726666694f63346934444f744963327430385272756b68414353434150317872615969356a4133767a736867527a746f5869494b4a354f34594a7945674b427546632f7441767879767164324f76342b7a455a50524e2b63637a767357457955647453777463423154575842774133586e4a5a4c53743976424d72736179524452486f4d6a3246394a327a7a664c714d3571597a7a316243554d734f416658322f35684e4d705442303079586f78686d673d3d227d7d0000000000000000000000000000000000",
                    "logDecoded": true,
                    "operation": "EVENT",
                    "revert": false,
                    "status": true,
                    "topics": [
                        "0x095e66fa4dd6a6f7b43fb8444a7bd0edb870508c7abf639bc216efb0bcff9779"
                    ]
                },
                "nodeType": 1
            },
            "4": {
                "event": {
                    "contract": "0x76e222b07c53d28b89b0bac18602810fc22b49a8",
                    "decodedLog": {
                        "name": "Transfer",
                        "params": [
                            {
                                "name": "from",
                                "type": "address",
                                "value": "0x518dcd35f21444f6d1c366fa52ff5b5cc1858fb6"
                            },
                            {
                                "name": "to",
                                "type": "address",
                                "value": "0x704ad8d95c12d7fea531738faa94402725acb035"
                            },
                            {
                                "decimalAvailable": true,
                                "name": "value",
                                "type": "uint256",
                                "value": "25,000,000,000,000,000,000,000"
                            }
                        ],
                        "signature": "Transfer(address,address,uint256)"
                    },
                    "id": 4,
                    "logData": "0x00000000000000000000000000000000000000000000054b40b1f852bda00000",
                    "logDecoded": true,
                    "operation": "EVENT",
                    "revert": false,
                    "status": true,
                    "topics": [
                        "0xddf252ad1be2c89b69c2b068fc378daa952ba7f163c4a11628f55a4df523b3ef",
                        "0x000000000000000000000000518dcd35f21444f6d1c366fa52ff5b5cc1858fb6",
                        "0x000000000000000000000000704ad8d95c12d7fea531738faa94402725acb035"
                    ]
                },
                "nodeType": 1
            },
            "5": {
                "event": {
                    "contract": "0x76e222b07c53d28b89b0bac18602810fc22b49a8",
                    "decodedLog": {
                        "name": "Approval",
                        "params": [
                            {
                                "name": "owner",
                                "type": "address",
                                "value": "0x518dcd35f21444f6d1c366fa52ff5b5cc1858fb6"
                            },
                            {
                                "name": "spender",
                                "type": "address",
                                "value": "0x6131b5fae19ea4f9d964eac0408e4408b66337b5"
                            },
                            {
                                "decimalAvailable": true,
                                "name": "value",
                                "type": "uint256",
                                "value": "453,947,325,820,340,111,886,572"
                            }
                        ],
                        "signature": "Approval(address,address,uint256)"
                    },
                    "id": 5,
                    "logData": "0x00000000000000000000000000000000000000000000602088a9e596a90348ec",
                    "logDecoded": true,
                    "operation": "EVENT",
                    "revert": false,
                    "status": true,
                    "topics": [
                        "0x8c5be1e5ebec7d5bd14f71427d1e84f3dd0314c0f7b2291e5b200ac8c7c3b925",
                        "0x000000000000000000000000518dcd35f21444f6d1c366fa52ff5b5cc1858fb6",
                        "0x0000000000000000000000006131b5fae19ea4f9d964eac0408e4408b66337b5"
                    ]
                },
                "nodeType": 1
            },
            "6": {
                "invocation": {
                    "address": "0x76e222b07c53d28b89b0bac18602810fc22b49a8",
                    "callData": "0x000000000000000000000000518dcd35f21444f6d1c366fa52ff5b5cc1858fb6",
                    "decodedMethod": {
                        "callParams": [
                            {
                                "name": "account",
                                "type": "address",
                                "value": "0x518dcd35f21444f6d1c366fa52ff5b5cc1858fb6"
                            }
                        ],
                        "constructorArguments": "",
                        "name": "balanceOf",
                        "returnParams": [
                            {
                                "decimalAvailable": true,
                                "name": "",
                                "type": "uint256",
                                "value": "25,000,000,000,000,000,000,000"
                            }
                        ],
                        "signature": "balanceOf(address)"
                    },
                    "errorInfo": "",
                    "fromAddress": "0x6131b5fae19ea4f9d964eac0408e4408b66337b5",
                    "gasUsed": 610,
                    "id": 6,
                    "methodDecoded": true,
                    "operation": "STATICCALL",
                    "output": "0x00000000000000000000000000000000000000000000054b40b1f852bda00000",
                    "revert": false,
                    "revertMessage": "",
                    "selector": "0x70a08231",
                    "status": true,
                    "value": "0"
                },
                "nodeType": 0
            },
            "7": {
                "invocation": {
                    "address": "0xf081470f5c6fbccf48cc4e5b82dd926409dcdd67",
                    "callData": "0x000000000000000000000000000000000000000000000000000000000000002000000000000000000000000000000000000000000000000000000000000001c0000000000000000000000000000000000000000000000000000000000000002000000000000000000000000000000000000000000000000000000000000000010000000000000000000000000000000000000000000000000000000000000020000000000000000000000000000000000000000000000000000000000000004059361199000000000000000000000000000000000000000000000000000000020000000000000000000000000000000000000000000000000000000000000100000000000000000000000000704ad8d95c12d7fea531738faa94402725acb03500000000000000000000000076e222b07c53d28b89b0bac18602810fc22b49a8000000000000000000000000c02aaa39b223fe8d0a0e5c4f27ead9083c756cc2000000000000000000000000f081470f5c6fbccf48cc4e5b82dd926409dcdd670000000000000000000000000000000000000000000000000000000000000000000000000000000000000000000000000000000000000000000000000000001e00000000000000000000000000000000000000000000000000000000000027100000000000000000000000000000000000000000000000000000000000000032",
                    "decodedMethod": null,
                    "errorInfo": "",
                    "fromAddress": "0x6131b5fae19ea4f9d964eac0408e4408b66337b5",
                    "gasUsed": 76073,
                    "id": 7,
                    "methodDecoded": false,
                    "operation": "CALL",
                    "output": "",
                    "revert": false,
                    "revertMessage": "",
                    "selector": "0x8b674f5d",
                    "status": true,
                    "value": "0"
                },
                "nodeType": 0
            },
            "8": {
                "invocation": {
                    "address": "0x9f52c30f29bfc5514d79a587d61ace79ebde82da",
                    "callData": "0x000000000000000000000000000000000000000000000000000000000000004000000002000000000000000000000000000000000000000000000000000000000000000000000000000000000000000000000000000000000000000000000100000000000000000000000000704ad8d95c12d7fea531738faa94402725acb03500000000000000000000000076e222b07c53d28b89b0bac18602810fc22b49a8000000000000000000000000c02aaa39b223fe8d0a0e5c4f27ead9083c756cc2000000000000000000000000f081470f5c6fbccf48cc4e5b82dd926409dcdd670000000000000000000000000000000000000000000000000000000000000000000000000000000000000000000000000000000000000000000000000000001e00000000000000000000000000000000000000000000000000000000000027100000000000000000000000000000000000000000000000000000000000000032",
                    "decodedMethod": null,
                    "errorInfo": "",
                    "fromAddress": "0xf081470f5c6fbccf48cc4e5b82dd926409dcdd67",
                    "gasUsed": 63846,
                    "id": 8,
                    "methodDecoded": false,
                    "operation": "DELEGATECALL",
                    "output": "0x000000000000000000000000000000000000000000000000040efbd269552836",
                    "revert": false,
                    "revertMessage": "",
                    "selector": "0x59361199",
                    "status": true,
                    "value": "0"
                },
                "nodeType": 0
            },
            "9": {
                "invocation": {
                    "address": "0x704ad8d95c12d7fea531738faa94402725acb035",
                    "callData": "0x",
                    "decodedMethod": {
                        "callParams": [],
                        "constructorArguments": "",
                        "name": "getReserves",
                        "returnParams": [
                            {
                                "name": "_reserve0",
                                "type": "uint112",
                                "value": "19,385,731,027,061,939,272,667,493"
                            },
                            {
                                "name": "_reserve1",
                                "type": "uint112",
                                "value": "227,747,471,523,733,246,189"
                            },
                            {
                                "name": "_blockTimestampLast",
                                "type": "uint32",
                                "value": "1,698,670,127"
                            }
                        ],
                        "signature": "getReserves()"
                    },
                    "errorInfo": "",
                    "fromAddress": "0xf081470f5c6fbccf48cc4e5b82dd926409dcdd67",
                    "gasUsed": 2504,
                    "id": 9,
                    "methodDecoded": true,
                    "operation": "STATICCALL",
                    "output": "0x00000000000000000000000000000000000000000010091695b163e67973d16500000000000000000000000000000000000000000000000c58a18eb1698310ed00000000000000000000000000000000000000000000000000000000653fa62f",
                    "revert": false,
                    "revertMessage": "",
                    "selector": "0x0902f1ac",
                    "status": true,
                    "value": "0"
                },
                "nodeType": 0
            }
        },
        "gasFlame": [
            {
                "children": [
                    {
                        "children": [
                            {
                                "children": [],
                                "depth": 0,
                                "name": "Initial Gas",
                                "value": 39340
                            },
                            {
                                "children": [
                                    {
                                        "children": [],
                                        "depth": 1,
                                        "name": "balanceOf",
                                        "value": 2610
                                    },
                                    {
                                        "children": [],
                                        "depth": 1,
                                        "name": "balanceOf",
                                        "value": 610
                                    },
                                    {
                                        "children": [],
                                        "depth": 1,
                                        "name": "transferFrom",
                                        "value": 38220
                                    },
                                    {
                                        "children": [],
                                        "depth": 1,
                                        "name": "balanceOf",
                                        "value": 610
                                    },
                                    {
                                        "children": [
                                            {
                                                "children": [
                                                    {
                                                        "children": [],
                                                        "depth": 3,
                                                        "name": "getReserves",
                                                        "value": 2504
                                                    },
                                                    {
                                                        "children": [],
                                                        "depth": 3,
                                                        "name": "balanceOf",
                                                        "value": 610
                                                    },
                                                    {
                                                        "children": [],
                                                        "depth": 3,
                                                        "name": "0xf87576e8",
                                                        "value": 1515
                                                    },
                                                    {
                                                        "children": [
                                                            {
                                                                "children": [],
                                                                "depth": 4,
                                                                "name": "transfer",
                                                                "value": 12862
                                                            },
                                                            {
                                                                "children": [],
                                                                "depth": 4,
                                                                "name": "balanceOf",
                                                                "value": 610
                                                            },
                                                            {
                                                                "children": [],
                                                                "depth": 4,
                                                                "name": "balanceOf",
                                                                "value": 534
                                                            }
                                                        ],
                                                        "depth": 3,
                                                        "name": "swap",
                                                        "value": 47829
                                                    }
                                                ],
                                                "depth": 2,
                                                "name": "0x59361199",
                                                "value": 63846
                                            }
                                        ],
                                        "depth": 1,
                                        "name": "0x8b674f5d",
                                        "value": 76073
                                    },
                                    {
                                        "children": [
                                            {
                                                "children": [],
                                                "depth": 2,
                                                "name": "balanceOf",
                                                "value": 534
                                            },
                                            {
                                                "children": [
                                                    {
                                                        "children": [],
                                                        "depth": 3,
                                                        "name": "fallback",
                                                        "value": 55
                                                    }
                                                ],
                                                "depth": 2,
                                                "name": "withdraw",
                                                "value": 9195
                                            },
                                            {
                                                "children": [],
                                                "depth": 2,
                                                "name": "balanceOf",
                                                "value": 2610
                                            },
                                            {
                                                "children": [],
                                                "depth": 2,
                                                "name": "fallback",
                                                "value": 55
                                            }
                                        ],
                                        "depth": 1,
                                        "name": "0x774b6b7e",
                                        "value": 22929
                                    },
                                    {
                                        "children": [],
                                        "depth": 1,
                                        "name": "fallback",
                                        "value": 0
                                    },
                                    {
                                        "children": [],
                                        "depth": 1,
                                        "name": "fallback",
                                        "value": 0
                                    },
                                    {
                                        "children": [],
                                        "depth": 1,
                                        "name": "balanceOf",
                                        "value": 610
                                    }
                                ],
                                "depth": 0,
                                "name": "Executed Gas",
                                "value": 196094
                            }
                        ],
                        "depth": -1,
                        "name": "Actual Gas Used",
                        "value": 229834
                    },
                    {
                        "children": [],
                        "depth": -1,
                        "name": "Refunded Gas",
                        "value": 5600
                    }
                ],
                "depth": -2,
                "name": "Total Gas",
                "value": 235434
            }
        ],
        "isConfirmed": true,
        "mainTrace": [
            {
                "children": [
                    {
                        "children": [
                            {
                                "children": [],
                                "depth": 1,
                                "id": 1,
                                "order": 1
                            },
                            {
                                "children": [],
                                "depth": 1,
                                "id": 2,
                                "order": 2
                            },
                            {
                                "children": [
                                    {
                                        "children": [],
                                        "depth": 2,
                                        "id": 4,
                                        "order": 4
                                    },
                                    {
                                        "children": [],
                                        "depth": 2,
                                        "id": 5,
                                        "order": 5
                                    }
                                ],
                                "depth": 1,
                                "id": 3,
                                "order": 3
                            },
                            {
                                "children": [],
                                "depth": 1,
                                "id": 6,
                                "order": 6
                            },
                            {
                                "children": [
                                    {
                                        "children": [
                                            {
                                                "children": [],
                                                "depth": 3,
                                                "id": 9,
                                                "order": 9
                                            },
                                            {
                                                "children": [],
                                                "depth": 3,
                                                "id": 10,
                                                "order": 10
                                            },
                                            {
                                                "children": [],
                                                "depth": 3,
                                                "id": 11,
                                                "order": 11
                                            },
                                            {
                                                "children": [
                                                    {
                                                        "children": [
                                                            {
                                                                "children": [],
                                                                "depth": 5,
                                                                "id": 14,
                                                                "order": 14
                                                            }
                                                        ],
                                                        "depth": 4,
                                                        "id": 13,
                                                        "order": 13
                                                    },
                                                    {
                                                        "children": [],
                                                        "depth": 4,
                                                        "id": 15,
                                                        "order": 15
                                                    },
                                                    {
                                                        "children": [],
                                                        "depth": 4,
                                                        "id": 16,
                                                        "order": 16
                                                    },
                                                    {
                                                        "children": [],
                                                        "depth": 4,
                                                        "id": 17,
                                                        "order": 17
                                                    },
                                                    {
                                                        "children": [],
                                                        "depth": 4,
                                                        "id": 18,
                                                        "order": 18
                                                    }
                                                ],
                                                "depth": 3,
                                                "id": 12,
                                                "order": 12
                                            },
                                            {
                                                "children": [],
                                                "depth": 3,
                                                "id": 19,
                                                "order": 19
                                            }
                                        ],
                                        "depth": 2,
                                        "id": 8,
                                        "order": 8
                                    }
                                ],
                                "depth": 1,
                                "id": 7,
                                "order": 7
                            },
                            {
                                "children": [
                                    {
                                        "children": [],
                                        "depth": 2,
                                        "id": 21,
                                        "order": 21
                                    },
                                    {
                                        "children": [
                                            {
                                                "children": [],
                                                "depth": 3,
                                                "id": 23,
                                                "order": 23
                                            },
                                            {
                                                "children": [],
                                                "depth": 3,
                                                "id": 24,
                                                "order": 24
                                            }
                                        ],
                                        "depth": 2,
                                        "id": 22,
                                        "order": 22
                                    },
                                    {
                                        "children": [],
                                        "depth": 2,
                                        "id": 25,
                                        "order": 25
                                    },
                                    {
                                        "children": [],
                                        "depth": 2,
                                        "id": 26,
                                        "order": 26
                                    }
                                ],
                                "depth": 1,
                                "id": 20,
                                "order": 20
                            },
                            {
                                "children": [],
                                "depth": 1,
                                "id": 27,
                                "order": 27
                            },
                            {
                                "children": [],
                                "depth": 1,
                                "id": 28,
                                "order": 28
                            },
                            {
                                "children": [],
                                "depth": 1,
                                "id": 29,
                                "order": 29
                            },
                            {
                                "children": [],
                                "depth": 1,
                                "id": 30,
                                "order": 30
                            },
                            {
                                "children": [],
                                "depth": 1,
                                "id": 31,
                                "order": 31
                            },
                            {
                                "children": [],
                                "depth": 1,
                                "id": 32,
                                "order": 32
                            },
                            {
                                "children": [],
                                "depth": 1,
                                "id": 33,
                                "order": 33
                            }
                        ],
                        "depth": 0,
                        "id": 0,
                        "order": 0
                    }
                ],
                "depth": -1,
                "id": -1,
                "order": -1
            }
        ],
        "mainTraceNodeCount": 34,
        "parentIdMap": {
            "0": -1,
            "1": 0,
            "10": 8,
            "11": 8,
            "12": 8,
            "13": 12,
            "14": 13,
            "15": 12,
            "16": 12,
            "17": 12,
            "18": 12,
            "19": 8,
            "2": 0,
            "20": 0,
            "21": 20,
            "22": 20,
            "23": 22,
            "24": 22,
            "25": 20,
            "26": 20,
            "27": 0,
            "28": 0,
            "29": 0,
            "3": 0,
            "30": 0,
            "31": 0,
            "32": 0,
            "33": 0,
            "4": 3,
            "5": 3,
            "6": 0,
            "7": 0,
            "8": 7,
            "9": 8
        },
        "tidyTrace": [
            {
                "children": [
                    {
                        "children": [
                            {
                                "children": [
                                    {
                                        "children": [],
                                        "depth": 2,
                                        "id": 4,
                                        "order": 4
                                    },
                                    {
                                        "children": [],
                                        "depth": 2,
                                        "id": 5,
                                        "order": 5
                                    }
                                ],
                                "depth": 1,
                                "id": 3,
                                "order": 3
                            },
                            {
                                "children": [
                                    {
                                        "children": [
                                            {
                                                "children": [
                                                    {
                                                        "children": [
                                                            {
                                                                "children": [],
                                                                "depth": 5,
                                                                "id": 14,
                                                                "order": 14
                                                            }
                                                        ],
                                                        "depth": 4,
                                                        "id": 13,
                                                        "order": 13
                                                    },
                                                    {
                                                        "children": [],
                                                        "depth": 4,
                                                        "id": 17,
                                                        "order": 17
                                                    },
                                                    {
                                                        "children": [],
                                                        "depth": 4,
                                                        "id": 18,
                                                        "order": 18
                                                    }
                                                ],
                                                "depth": 3,
                                                "id": 12,
                                                "order": 12
                                            },
                                            {
                                                "children": [],
                                                "depth": 3,
                                                "id": 19,
                                                "order": 19
                                            }
                                        ],
                                        "depth": 2,
                                        "id": 8,
                                        "order": 8
                                    }
                                ],
                                "depth": 1,
                                "id": 7,
                                "order": 7
                            },
                            {
                                "children": [
                                    {
                                        "children": [
                                            {
                                                "children": [],
                                                "depth": 3,
                                                "id": 23,
                                                "order": 23
                                            },
                                            {
                                                "children": [],
                                                "depth": 3,
                                                "id": 24,
                                                "order": 24
                                            }
                                        ],
                                        "depth": 2,
                                        "id": 22,
                                        "order": 22
                                    },
                                    {
                                        "children": [],
                                        "depth": 2,
                                        "id": 26,
                                        "order": 26
                                    }
                                ],
                                "depth": 1,
                                "id": 20,
                                "order": 20
                            },
                            {
                                "children": [],
                                "depth": 1,
                                "id": 27,
                                "order": 27
                            },
                            {
                                "children": [],
                                "depth": 1,
                                "id": 28,
                                "order": 28
                            },
                            {
                                "children": [],
                                "depth": 1,
                                "id": 29,
                                "order": 29
                            },
                            {
                                "children": [],
                                "depth": 1,
                                "id": 31,
                                "order": 31
                            },
                            {
                                "children": [],
                                "depth": 1,
                                "id": 32,
                                "order": 32
                            },
                            {
                                "children": [],
                                "depth": 1,
                                "id": 33,
                                "order": 33
                            }
                        ],
                        "depth": 0,
                        "id": 0,
                        "order": 0
                    }
                ],
                "depth": -1,
                "id": -1,
                "order": -1
            }
        ],
        "tidyTraceNodeCount": 23
    },
    "state_change": {
        "stateChanges": [
            {
                "address": "0x704ad8d95c12d7fea531738faa94402725acb035",
                "erc": "ERC-20",
                "slots": [
                    {
                        "current": "0x00000000000000000000000003445071d23beabb0114fd3e8415f53b692affc8",
                        "key": "0x000000000000000000000000000000000000000000000000000000000000000a",
                        "prev": "0x000000000000000000000000034450337a581b17a824c69b7e53f4e9196c9088"
                    },
                    {
                        "current": "0x653fa65f00000000000c549292df002de8b6000000100e61d6635c393713d165",
                        "key": "0x0000000000000000000000000000000000000000000000000000000000000008",
                        "prev": "0x653fa62f00000000000c58a18eb1698310ed00000010091695b163e67973d165"
                    },
                    {
                        "current": "0x0000000000000000000000000000000000066fa5f7f2f3e1a830298ba8bfa0d8",
                        "key": "0x0000000000000000000000000000000000000000000000000000000000000009",
                        "prev": "0x0000000000000000000000000000000000066f81030c3418f5120164401ac298"
                    }
                ],
                "storageVariables": [
                    {
                        "name": "price1CumulativeLast",
                        "type": "uint256",
                        "value": {
                            "current": "18650430700202589361436353985567707479078010824",
                            "prev": "18650409485870141842573005645159494475240476808",
                            "typeTag": 1
                        }
                    },
                    {
                        "name": "reserve0",
                        "type": "uint112",
                        "value": {
                            "current": "19410731027061939272667493",
                            "prev": "19385731027061939272667493",
                            "typeTag": 1
                        }
                    },
                    {
                        "name": "reserve1",
                        "type": "uint112",
                        "value": {
                            "current": "227455023616778692790",
                            "prev": "227747471523733246189",
                            "typeTag": 1
                        }
                    },
                    {
                        "name": "blockTimestampLast",
                        "type": "uint32",
                        "value": {
                            "current": "1698670175",
                            "prev": "1698670127",
                            "typeTag": 1
                        }
                    },
                    {
                        "name": "price0CumulativeLast",
                        "type": "uint256",
                        "value": {
                            "current": "33418278000538326714902478418059480",
                            "prev": "33415349993386804025347055845819032",
                            "typeTag": 1
                        }
                    }
                ]
            },
            {
                "address": "0x76e222b07c53d28b89b0bac18602810fc22b49a8",
                "erc": "ERC-20",
                "slots": [
                    {
                        "current": "0x00000000000000000000000000000000000000000000054b40b1f852bda00000",
                        "key": "0x526753279c1d241e8455e38bf6295ff74ed121a53d9e45e65cdd01e5cec22249",
                        "prev": "0x000000000000000000000000000000000000000000000a968163f0a57b400000"
                    },
                    {
                        "current": "0x000000000000000000000000000000000000000000100e61d6635c393713d165",
                        "key": "0x0588d0c3a76602a35b103254e95b5b0d99294eb2f4ddee93696edcaa2e07f1ad",
                        "prev": "0x00000000000000000000000000000000000000000010091695b163e67973d165"
                    },
                    {
                        "current": "0x00000000000000000000000000000000000000000000602088a9e596a90348ec",
                        "key": "0x969666b5edd96bcff6338e52ea435ec859280295ebf85cdec12d9fdf5111d441",
                        "prev": "0x00000000000000000000000000000000000000000000656bc95bdde966a348ec"
                    }
                ],
                "storageVariables": [
                    {
                        "name": "_balances",
                        "type": "mapping(address => uint256)",
                        "value": {
                            "pairs": [
                                {
                                    "key": "0x518dcd35f21444f6d1c366fa52ff5b5cc1858fb6",
                                    "value": {
                                        "current": "25000000000000000000000",
                                        "prev": "50000000000000000000000",
                                        "typeTag": 1
                                    }
                                },
                                {
                                    "key": "0x704ad8d95c12d7fea531738faa94402725acb035",
                                    "value": {
                                        "current": "19410731027061939272667493",
                                        "prev": "19385731027061939272667493",
                                        "typeTag": 1
                                    }
                                }
                            ],
                            "typeTag": 4
                        }
                    },
                    {
                        "name": "_allowances",
                        "type": "mapping(address => mapping(address => uint256))",
                        "value": {
                            "pairs": [
                                {
                                    "key": "0x518dcd35f21444f6d1c366fa52ff5b5cc1858fb6",
                                    "value": {
                                        "pairs": [
                                            {
                                                "key": "0x6131b5fae19ea4f9d964eac0408e4408b66337b5",
                                                "value": {
                                                    "current": "453947325820340111886572",
                                                    "prev": "478947325820340111886572",
                                                    "typeTag": 1
                                                }
                                            }
                                        ],
                                        "typeTag": 4
                                    }
                                }
                            ],
                            "typeTag": 4
                        }
                    }
                ]
            },
            {
                "address": "0xc02aaa39b223fe8d0a0e5c4f27ead9083c756cc2",
                "erc": "ERC-20",
                "slots": [
                    {
                        "current": "0x00000000000000000000000000000000000000000000000c549292df002de8b6",
                        "key": "0xee882cb0e61efbe2f7edd0fe7a9feef75c17c350fbb5f6e38a0a447346552280",
                        "prev": "0x00000000000000000000000000000000000000000000000c58a18eb1698310ed"
                    }
                ],
                "storageVariables": [
                    {
                        "name": "balanceOf",
                        "type": "mapping(address => uint256)",
                        "value": {
                            "pairs": [
                                {
                                    "key": "0x704ad8d95c12d7fea531738faa94402725acb035",
                                    "value": {
                                        "current": "227455023616778692790",
                                        "prev": "227747471523733246189",
                                        "typeTag": 1
                                    }
                                }
                            ],
                            "typeTag": 4
                        }
                    }
                ]
            }
        ]
    }
}