{
    "balance_change": {
        "balanceChanges": []
    },
    "profile": {
        "basic_info": {
            "baseFee": "",
            "blockNumber": 11526795,
            "callData": "0x202ee0ed00000000000000000000000000000000000000000000000000000000000005240000000000000000000000000000000000000000000000000000000014bfa1f8",
            "debugEnable": true,
            "errorInfo": "",
            "eventCount": 3,
            "feeRecipient": "0x5a0b54d5dc17e0aadc383d2db43b0a0d3e029c4c",
            "formatValue": "0",
            "gasLimit": 500000,
            "gasPrice": "52.794901488",
            "gasUsed": 110165,
            "intTxnCount": 0,
            "internalRevert": false,
            "internalRevertMessage": "",
            "isContractCreation": false,
            "isFlashloan": false,
            "maxFee": "",
            "nonce": 146754,
            "overwritedBlockNumber": -1,
            "priorityFee": "",
            "receiver": "0x5b0e9ff11aae806067787d380967900551919c0d",
            "revertMessage": "",
            "sender": "0x98db8c499016aa9d860fcd1a9b75a1d7ef3fc3b0",
            "simulationEnable": true,
            "sourceTxnHash": "0xcd7d85e890972c2a5a05309937420fcbc2104afcbef3c176bcc3ff53a2a11945",
            "status": true,
            "timestamp": "2020-12-26T03:20:20Z",
            "transactionFee": "0.00581615032242552",
            "txnHash": "0xcd7d85e890972c2a5a05309937420fcbc2104afcbef3c176bcc3ff53a2a11945",
            "txnIndex": 65,
            "type": 0,
            "value": "0"
        },
        "fund_flow": [],
        "token_infos": [
            {
                "address": "0xc02aaa39b223fe8d0a0e5c4f27ead9083c756cc2",
                "decimals": 18
            },
            {
                "address": "0xeeeeeeeeeeeeeeeeeeeeeeeeeeeeeeeeeeeeeeee",
                "decimals": 18
            }
        ]
    },
    "address_label": {
        "labels": [
            {
                "address": "0xeeeeeeeeeeeeeeeeeeeeeeeeeeeeeeeeeeeeeeee",
                "label": "Ether"
            },
            {
                "address": "0x5b0e9ff11aae806067787d380967900551919c0d",
                "label": "AccessControlledAggregator"
            },
            {
                "address": "0x0000000000000000000000000000000000000001",
                "label": "Precompiled"
            },
            {
                "address": "0x0000000000000000000000000000000000000002",
                "label": "Precompiled"
            },
            {
                "address": "0x0000000000000000000000000000000000000003",
                "label": "Precompiled"
            },
            {
                "address": "0x0000000000000000000000000000000000000004",
                "label": "Precompiled"
            }
        ]
    },
    "trace": {
        "accountLabels": null,
        "dataMap": {
            "-1": {
                "invocation": {
                    "address": "0x98db8c499016aa9d860fcd1a9b75a1d7ef3fc3b0",
                    "callData": "",
                    "decodedMethod": null,
                    "errorInfo": "",
                    "fromAddress": "",
                    "gasUsed": 0,
                    "id": -1,
                    "methodDecoded": false,
                    "operation": "",
                    "output": "",
                    "revert": false,
                    "revertMessage": "",
                    "selector": "",
                    "status": false,
                    "value": ""
                },
                "nodeType": 0
            },
            "0": {
                "invocation": {
                    "address": "0x5b0e9ff11aae806067787d380967900551919c0d",
                    "callData": "0x00000000000000000000000000000000000000000000000000000000000005240000000000000000000000000000000000000000000000000000000014bfa1f8",
                    "decodedMethod": {
                        "callParams": [
                            {
                                "name": "_roundId",
                                "type": "uint256",
                                "value": "1,316"
                            },
                            {
                                "name": "_submission",
                                "type": "int256",
                                "value": "348,103,160"
                            }
                        ],
                        "constructorArguments": "",
                        "name": "submit",
                        "returnParams": [],
                        "signature": "submit(uint256,int256)"
                    },
                    "errorInfo": "",
                    "fromAddress": "0x98db8c499016aa9d860fcd1a9b75a1d7ef3fc3b0",
                    "gasUsed": 110165,
                    "id": 0,
                    "methodDecoded": true,
                    "operation": "CALL",
                    "output": "",
                    "revert": false,
                    "revertMessage": "",
                    "selector": "0x202ee0ed",
                    "status": true,
                    "value": "0"
                },
                "nodeType": 0
            },
            "1": {
                "event": {
                    "contract": "0x5b0e9ff11aae806067787d380967900551919c0d",
                    "decodedLog": {
                        "name": "SubmissionReceived",
                        "params": [
                            {
                                "name": "submission",
                                "type": "int256",
                                "value": "348,103,160"
                            },
                            {
                                "name": "round",
                                "type": "uint32",
                                "value": "1,316"
                            },
                            {
                                "name": "oracle",
                                "type": "address",
                                "value": "0x98db8c499016aa9d860fcd1a9b75a1d7ef3fc3b0"
                            }
                        ],
                        "signature": "SubmissionReceived(int256,uint32,address)"
                    },
                    "id": 1,
                    "logData": "0x",
                    "logDecoded": true,
                    "operation": "EVENT",
                    "revert": false,
                    "status": true,
                    "topics": [
                        "0x92e98423f8adac6e64d0608e519fd1cefb861498385c6dee70d58fc926ddc68c",
                        "0x0000000000000000000000000000000000000000000000000000000014bfa1f8",
                        "0x0000000000000000000000000000000000000000000000000000000000000524",
                        "0x00000000000000000000000098db8c499016aa9d860fcd1a9b75a1d7ef3fc3b0"
                    ]
                },
                "nodeType": 1
            },
            "2": {
                "event": {
                    "contract": "0x5b0e9ff11aae806067787d380967900551919c0d",
                    "decodedLog": {
                        "name": "AnswerUpdated",
                        "params": [
                            {
                                "name": "current",
                                "type": "int256",
                                "value": "348,052,885"
                            },
                            {
                                "name": "roundId",
                                "type": "uint256",
                                "value": "1,316"
                            },
                            {
                                "name": "updatedAt",
                                "type": "uint256",
                                "value": "1,608,952,820"
                            }
                        ],
                        "signature": "AnswerUpdated(int256,uint256,uint256)"
                    },
                    "id": 2,
                    "logData": "0x000000000000000000000000000000000000000000000000000000005fe6abf4",
                    "logDecoded": true,
                    "operation": "EVENT",
                    "revert": false,
                    "status": true,
                    "topics": [
                        "0x0559884fd3a460db3073b7fc896cc77986f16e378210ded43186175bf646fc5f",
                        "0x0000000000000000000000000000000000000000000000000000000014bedd95",
                        "0x0000000000000000000000000000000000000000000000000000000000000524"
                    ]
                },
                "nodeType": 1
            },
            "3": {
                "event": {
                    "contract": "0x5b0e9ff11aae806067787d380967900551919c0d",
                    "decodedLog": {
                        "name": "AvailableFundsUpdated",
                        "params": [
                            {
                                "name": "amount",
                                "type": "uint256",
                                "value": "12,533,930,000,000,000,000,000"
                            }
                        ],
                        "signature": "AvailableFundsUpdated(uint256)"
                    },
                    "id": 3,
                    "logData": "0x",
                    "logDecoded": true,
                    "operation": "EVENT",
                    "revert": false,
                    "status": true,
                    "topics": [
                        "0xfe25c73e3b9089fac37d55c4c7efcba6f04af04cebd2fc4d6d7dbb07e1e5234f",
                        "0x0000000000000000000000000000000000000000000002a777388f648bd10000"
                    ]
                },
                "nodeType": 1
            }
        },
        "gasFlame": [
            {
                "children": [
                    {
                        "children": [
                            {
                                "children": [],
                                "depth": 0,
                                "name": "Initial Gas",
                                "value": 21392
                            },
                            {
                                "children": [],
                                "depth": 0,
                                "name": "Executed Gas",
                                "value": 88773
                            }
                        ],
                        "depth": -1,
                        "name": "Actual Gas Used",
                        "value": 110165
                    },
                    {
                        "children": [],
                        "depth": -1,
                        "name": "Refunded Gas",
                        "value": 0
                    }
                ],
                "depth": -2,
                "name": "Total Gas",
                "value": 110165
            }
        ],
        "isConfirmed": true,
        "mainTrace": [
            {
                "children": [
                    {
                        "children": [
                            {
                                "children": [],
                                "depth": 1,
                                "id": 1,
                                "order": 1
                            },
                            {
                                "children": [],
                                "depth": 1,
                                "id": 2,
                                "order": 2
                            },
                            {
                                "children": [],
                                "depth": 1,
                                "id": 3,
                                "order": 3
                            }
                        ],
                        "depth": 0,
                        "id": 0,
                        "order": 0
                    }
                ],
                "depth": -1,
                "id": -1,
                "order": -1
            }
        ],
        "mainTraceNodeCount": 4,
        "parentIdMap": {
            "0": -1,
            "1": 0,
            "2": 0,
            "3": 0
        },
        "tidyTrace": [
            {
                "children": [
                    {
                        "children": [
                            {
                                "children": [],
                                "depth": 1,
                                "id": 1,
                                "order": 1
                            },
                            {
                                "children": [],
                                "depth": 1,
                                "id": 2,
                                "order": 2
                            },
                            {
                                "children": [],
                                "depth": 1,
                                "id": 3,
                                "order": 3
                            }
                        ],
                        "depth": 0,
                        "id": 0,
                        "order": 0
                    }
                ],
                "depth": -1,
                "id": -1,
                "order": -1
            }
        ],
        "tidyTraceNodeCount": 4
    },
    "state_change": {
        "stateChanges": [
            {
                "address": "0x5b0e9ff11aae806067787d380967900551919c0d",
                "erc": "",
                "slots": [
                    {
                        "current": "0x0000000000000000000000000000000000000000000000000000000000000008",
                        "key": "0x460d387c6854997d0d8fbefb7c875309af47f4a74b3f20700177938072317019",
                        "prev": "0x0000000000000000000000000000000000000000000000000000000000000007"
                    },
                    {
                        "current": "0x0000000000000000000000000000000000000000000000000000000014bfa1f8",
                        "key": "0xde35fc9ab598c4ffa4384bcd7d280ba7e05951299380f3bc3f5d147564c0a8dd",
                        "prev": "0x0000000000000000000000000000000000000000000000000000000000000000"
                    },
                    {
                        "current": "0x0000051a00000524ffffffff000000010000000000000001660c034e45140000",
                        "key": "0x2267ff12ab32cb415e6b3e2cdbd3e250ac6047dd69a55b0e1876c2dec38b2511",
                        "prev": "0x0000051a00000523ffffffff000000010000000000000001601458957fa90000"
                    },
                    {
                        "current": "0x0000000000000000000000000000000000000000000000000000000014bfa1f8",
                        "key": "0x2267ff12ab32cb415e6b3e2cdbd3e250ac6047dd69a55b0e1876c2dec38b2512",
                        "prev": "0x00000000000000000000000000000000000000000000000000000000149662c0"
                    },
                    {
                        "current": "0x0000000000000000000000000000000000000000000000000000000014bedd95",
                        "key": "0xb56197ecae42469b1f9a5280ba3549888738025fca51592992121f251df1eb36",
                        "prev": "0x0000000000000000000000000000000000000000000000000000000014be1932"
                    },
                    {
                        "current": "0x00000000000000000000000000000524000000005fe6abf4000000005fe6abe1",
                        "key": "0xb56197ecae42469b1f9a5280ba3549888738025fca51592992121f251df1eb37",
                        "prev": "0x00000000000000000000000000000524000000005fe6abeb000000005fe6abe1"
                    },
                    {
                        "current": "0x000000000000003a1cd9895a82ff000000000000000002a777388f648bd10000",
                        "key": "0x000000000000000000000000000000000000000000000000000000000000000d",
                        "prev": "0x000000000000003a16e1dea1bd94000000000000000002a77d303a1d513c0000"
                    }
                ],
                "storageVariables": [
                    {
                        "name": "details",
                        "type": "mapping(uint32 => struct FluxAggregator.RoundDetails)",
                        "value": {
                            "pairs": [
                                {
                                    "key": "1316",
                                    "value": {
                                        "fields": [
                                            {
                                                "name": "submissions",
                                                "type": "int256[]",
                                                "value": {
                                                    "elemType": "int256",
                                                    "elems": [
                                                        {
                                                            "index": 7,
                                                            "value": {
                                                                "current": "348103160",
                                                                "prev": "0",
                                                                "typeTag": 1
                                                            }
                                                        }
                                                    ],
                                                    "typeTag": 2
                                                }
                                            }
                                        ],
                                        "typeTag": 3
                                    }
                                }
                            ],
                            "typeTag": 4
                        }
                    },
                    {
                        "name": "oracles",
                        "type": "mapping(address => struct FluxAggregator.OracleStatus)",
                        "value": {
                            "pairs": [
                                {
                                    "key": "0x98db8c499016aa9d860fcd1a9b75a1d7ef3fc3b0",
                                    "value": {
                                        "fields": [
                                            {
                                                "name": "withdrawable",
                                                "type": "uint128",
                                                "value": {
                                                    "current": "25800000000000000000",
                                                    "prev": "25370000000000000000",
                                                    "typeTag": 1
                                                }
                                            },
                                            {
                                                "name": "startingRound",
                                                "type": "uint32",
                                                "value": {
                                                    "current": "1",
                                                    "prev": "1",
                                                    "typeTag": 1
                                                }
                                            },
                                            {
                                                "name": "endingRound",
                                                "type": "uint32",
                                                "value": {
                                                    "current": "4294967295",
                                                    "prev": "4294967295",
                                                    "typeTag": 1
                                                }
                                            },
                                            {
                                                "name": "lastReportedRound",
                                                "type": "uint32",
                                                "value": {
                                                    "current": "1316",
                                                    "prev": "1315",
                                                    "typeTag": 1
                                                }
                                            },
                                            {
                                                "name": "lastStartedRound",
                                                "type": "uint32",
                                                "value": {
                                                    "current": "1306",
                                                    "prev": "1306",
                                                    "typeTag": 1
                                                }
                                            },
                                            {
                                                "name": "latestSubmission",
                                                "type": "int256",
                                                "value": {
                                                    "current": "348103160",
                                                    "prev": "345400000",
                                                    "typeTag": 1
                                                }
                                            }
                                        ],
                                        "typeTag": 3
                                    }
                                }
                            ],
                            "typeTag": 4
                        }
                    },
                    {
                        "name": "rounds",
                        "type": "mapping(uint32 => struct FluxAggregator.Round)",
                        "value": {
                            "pairs": [
                                {
                                    "key": "1316",
                                    "value": {
                                        "fields": [
                                            {
                                                "name": "answer",
                                                "type": "int256",
                                                "value": {
                                                    "current": "348052885",
                                                    "prev": "348002610",
                                                    "typeTag": 1
                                                }
                                            },
                                            {
                                                "name": "startedAt",
                                                "type": "uint64",
                                                "value": {
                                                    "current": "1608952801",
                                                    "prev": "1608952801",
                                                    "typeTag": 1
                                                }
                                            },
                                            {
                                                "name": "updatedAt",
                                                "type": "uint64",
                                                "value": {
                                                    "current": "1608952820",
                                                    "prev": "1608952811",
                                                    "typeTag": 1
                                                }
                                            },
                                            {
                                                "name": "answeredInRound",
                                                "type": "uint32",
                                                "value": {
                                                    "current": "1316",
                                                    "prev": "1316",
                                                    "typeTag": 1
                                                }
                                            }
                                        ],
                                        "typeTag": 3
                                    }
                                }
                            ],
                            "typeTag": 4
                        }
                    },
                    {
                        "name": "recordedFunds",
                        "type": "struct FluxAggregator.Funds",
                        "value": {
                            "fields": [
                                {
                                    "name": "available",
                                    "type": "uint128",
                                    "value": {
                                        "current": "12533930000000000000000",
                                        "prev": "12534360000000000000000",
                                        "typeTag": 1
                                    }
                                },
                                {
                                    "name": "allocated",
                                    "type": "uint128",
                                    "value": {
                                        "current": "1071990000000000000000",
                                        "prev": "1071560000000000000000",
                                        "typeTag": 1
                                    }
                                }
                            ],
                            "typeTag": 3
                        }
                    }
                ]
            }
        ]
    }
}