{
    "balance_change": {
        "balanceChanges": []
    },
    "profile": {
        "basic_info": {
            "baseFee": "",
            "blockNumber": 4431244,
            "callData": "0x278b8c0e0000000000000000000000000000000000000000000000000000000000000000000000000000000000000000000000000000000000000000001a4a4f9197e600000000000000000000000000006bea43baa3f7a6f765f14f10a1a1b08334ef450000000000000000000000000000000000000000000000004563918244f40000000000000000000000000000000000000000000000000000000000000043c476000000000000000000000000000000000000000000000000000000004e8a5af0000000000000000000000000000000000000000000000000000000000000001c800721f59d6d6d6996f667821dc2335c0f9cc1f578a9db064c9531131e77a64f50a2c2d91088ebef70d1cd6904e09db0ba7036dffe44b67a212b01a494bc9e0a",
            "debugEnable": true,
            "errorInfo": "",
            "eventCount": 1,
            "feeRecipient": "0x73b8865eda227d6fffabc83c78124dea8c347fea",
            "formatValue": "0",
            "gasLimit": 250000,
            "gasPrice": "25",
            "gasUsed": 59162,
            "intTxnCount": 2,
            "internalRevert": false,
            "internalRevertMessage": "",
            "isContractCreation": false,
            "isFlashloan": false,
            "maxFee": "",
            "nonce": 3,
            "overwritedBlockNumber": -1,
            "priorityFee": "",
            "receiver": "0x8d12a197cb00d4747a1fe03395095ce2a5cc6819",
            "revertMessage": "",
            "sender": "0x333eede1d8891bddeb6e3797f81bf8283397cd4c",
            "simulationEnable": true,
            "sourceTxnHash": "0xcd554c719fd4bfbf32e9d7e87cdd35db3e18f8bae3c5e209a9538be3839c8b1f",
            "status": true,
            "timestamp": "2017-10-26T05:31:12Z",
            "transactionFee": "0.00147905",
            "txnHash": "0xcd554c719fd4bfbf32e9d7e87cdd35db3e18f8bae3c5e209a9538be3839c8b1f",
            "txnIndex": 2,
            "type": 0,
            "value": "0"
        },
        "fund_flow": [],
        "token_infos": [
            {
                "address": "0xc02aaa39b223fe8d0a0e5c4f27ead9083c756cc2",
                "decimals": 18
            },
            {
                "address": "0xeeeeeeeeeeeeeeeeeeeeeeeeeeeeeeeeeeeeeeee",
                "decimals": 18
            }
        ]
    },
    "address_label": {
        "labels": [
            {
                "address": "0x0000000000000000000000000000000000000002",
                "label": "Precompiled"
            },
            {
                "address": "0x0000000000000000000000000000000000000000",
                "label": "Null Address"
            },
            {
                "address": "0x006bea43baa3f7a6f765f14f10a1a1b08334ef45",
                "label": "Stox Token"
            },
            {
                "address": "0x0000000000000000000000000000000000000001",
                "label": "Precompiled"
            },
            {
                "address": "0x0000000000000000000000000000000000000003",
                "label": "Precompiled"
            },
            {
                "address": "0x0000000000000000000000000000000000000004",
                "label": "Precompiled"
            },
            {
                "address": "0xeeeeeeeeeeeeeeeeeeeeeeeeeeeeeeeeeeeeeeee",
                "label": "Ether"
            },
            {
                "address": "0x8d12a197cb00d4747a1fe03395095ce2a5cc6819",
                "label": "EtherDelta"
            }
        ]
    },
    "trace": {
        "accountLabels": null,
        "dataMap": {
            "-1": {
                "invocation": {
                    "address": "0x333eede1d8891bddeb6e3797f81bf8283397cd4c",
                    "callData": "",
                    "decodedMethod": null,
                    "errorInfo": "",
                    "fromAddress": "",
                    "gasUsed": 0,
                    "id": -1,
                    "methodDecoded": false,
                    "operation": "",
                    "output": "",
                    "revert": false,
                    "revertMessage": "",
                    "selector": "",
                    "status": false,
                    "value": ""
                },
                "nodeType": 0
            },
            "0": {
                "invocation": {
                    "address": "0x8d12a197cb00d4747a1fe03395095ce2a5cc6819",
                    "callData": "0x0000000000000000000000000000000000000000000000000000000000000000000000000000000000000000000000000000000000000000001a4a4f9197e600000000000000000000000000006bea43baa3f7a6f765f14f10a1a1b08334ef450000000000000000000000000000000000000000000000004563918244f40000000000000000000000000000000000000000000000000000000000000043c476000000000000000000000000000000000000000000000000000000004e8a5af0000000000000000000000000000000000000000000000000000000000000001c800721f59d6d6d6996f667821dc2335c0f9cc1f578a9db064c9531131e77a64f50a2c2d91088ebef70d1cd6904e09db0ba7036dffe44b67a212b01a494bc9e0a",
                    "decodedMethod": {
                        "callParams": [
                            {
                                "name": "tokenGet",
                                "type": "address",
                                "value": "0x0000000000000000000000000000000000000000"
                            },
                            {
                                "name": "amountGet",
                                "type": "uint256",
                                "value": "7,400,055,000,000,000"
                            },
                            {
                                "name": "tokenGive",
                                "type": "address",
                                "value": "0x006bea43baa3f7a6f765f14f10a1a1b08334ef45"
                            },
                            {
                                "name": "amountGive",
                                "type": "uint256",
                                "value": "5,000,000,000,000,000,000"
                            },
                            {
                                "name": "expires",
                                "type": "uint256",
                                "value": "4,441,206"
                            },
                            {
                                "name": "nonce",
                                "type": "uint256",
                                "value": "1,317,690,096"
                            },
                            {
                                "name": "v",
                                "type": "uint8",
                                "value": "28"
                            },
                            {
                                "name": "r",
                                "type": "bytes32",
                                "value": "0x800721f59d6d6d6996f667821dc2335c0f9cc1f578a9db064c9531131e77a64f"
                            },
                            {
                                "name": "s",
                                "type": "bytes32",
                                "value": "0x50a2c2d91088ebef70d1cd6904e09db0ba7036dffe44b67a212b01a494bc9e0a"
                            }
                        ],
                        "constructorArguments": "",
                        "name": "cancelOrder",
                        "returnParams": [],
                        "signature": "cancelOrder(address,uint256,address,uint256,uint256,uint256,uint8,bytes32,bytes32)"
                    },
                    "errorInfo": "",
                    "fromAddress": "0x333eede1d8891bddeb6e3797f81bf8283397cd4c",
                    "gasUsed": 59162,
                    "id": 0,
                    "methodDecoded": true,
                    "operation": "CALL",
                    "output": "",
                    "revert": false,
                    "revertMessage": "",
                    "selector": "0x278b8c0e",
                    "status": true,
                    "value": "0"
                },
                "nodeType": 0
            },
            "1": {
                "invocation": {
                    "address": "0x0000000000000000000000000000000000000002",
                    "callData": "0xcb00d4747a1fe03395095ce2a5cc68190000000000000000000000000000000000000000000000000000000000000000000000000000000000000000001a4a4f9197e600006bea43baa3f7a6f765f14f10a1a1b08334ef450000000000000000000000000000000000000000000000004563918244f40000000000000000000000000000000000000000000000000000000000000043c476000000000000000000000000000000000000000000000000000000004e8a5af0",
                    "decodedMethod": {
                        "callParams": [
                            {
                                "name": "data",
                                "type": "bytes",
                                "value": "0x8d12a197cb00d4747a1fe03395095ce2a5cc68190000000000000000000000000000000000000000000000000000000000000000000000000000000000000000001a4a4f9197e600006bea43baa3f7a6f765f14f10a1a1b08334ef450000000000000000000000000000000000000000000000004563918244f40000000000000000000000000000000000000000000000000000000000000043c476000000000000000000000000000000000000000000000000000000004e8a5af0"
                            }
                        ],
                        "constructorArguments": "",
                        "name": "sha256hash",
                        "returnParams": [
                            {
                                "name": "hash",
                                "type": "bytes32",
                                "value": "0x4c62193b9bc66ae4cbba5a8ed9aaa868452ea4d348ccb1c024f1420c67266518"
                            }
                        ],
                        "signature": "sha256hash(bytes)"
                    },
                    "errorInfo": "",
                    "fromAddress": "0x8d12a197cb00d4747a1fe03395095ce2a5cc6819",
                    "gasUsed": 132,
                    "id": 1,
                    "methodDecoded": true,
                    "operation": "CALL",
                    "output": "0x4c62193b9bc66ae4cbba5a8ed9aaa868452ea4d348ccb1c024f1420c67266518",
                    "revert": false,
                    "revertMessage": "",
                    "selector": "0x8d12a197",
                    "status": true,
                    "value": "0"
                },
                "nodeType": 0
            },
            "2": {
                "invocation": {
                    "address": "0x0000000000000000000000000000000000000001",
                    "callData": "0x08af6b464c0cbed775c992b660023d1f0cdb07742700a03c0903cd9e000000000000000000000000000000000000000000000000000000000000001c800721f59d6d6d6996f667821dc2335c0f9cc1f578a9db064c9531131e77a64f50a2c2d91088ebef70d1cd6904e09db0ba7036dffe44b67a212b01a494bc9e0a",
                    "decodedMethod": {
                        "callParams": [
                            {
                                "name": "hash",
                                "type": "bytes32",
                                "value": "0xd9aceb0c08af6b464c0cbed775c992b660023d1f0cdb07742700a03c0903cd9e"
                            },
                            {
                                "name": "v",
                                "type": "uint256",
                                "value": "28"
                            },
                            {
                                "name": "r",
                                "type": "bytes32",
                                "value": "0x800721f59d6d6d6996f667821dc2335c0f9cc1f578a9db064c9531131e77a64f"
                            },
                            {
                                "name": "s",
                                "type": "bytes32",
                                "value": "0x50a2c2d91088ebef70d1cd6904e09db0ba7036dffe44b67a212b01a494bc9e0a"
                            }
                        ],
                        "constructorArguments": "",
                        "name": "ecrecover",
                        "returnParams": [
                            {
                                "name": "",
                                "type": "address",
                                "value": "0x333eede1d8891bddeb6e3797f81bf8283397cd4c"
                            }
                        ],
                        "signature": "ecrecover(bytes32,uint256,bytes32,bytes32)"
                    },
                    "errorInfo": "",
                    "fromAddress": "0x8d12a197cb00d4747a1fe03395095ce2a5cc6819",
                    "gasUsed": 3000,
                    "id": 2,
                    "methodDecoded": true,
                    "operation": "CALL",
                    "output": "0x000000000000000000000000333eede1d8891bddeb6e3797f81bf8283397cd4c",
                    "revert": false,
                    "revertMessage": "",
                    "selector": "0xd9aceb0c",
                    "status": true,
                    "value": "0"
                },
                "nodeType": 0
            },
            "3": {
                "event": {
                    "contract": "0x8d12a197cb00d4747a1fe03395095ce2a5cc6819",
                    "decodedLog": {
                        "name": "Cancel",
                        "params": [
                            {
                                "name": "tokenGet",
                                "type": "address",
                                "value": "0x0000000000000000000000000000000000000000"
                            },
                            {
                                "name": "amountGet",
                                "type": "uint256",
                                "value": "7,400,055,000,000,000"
                            },
                            {
                                "name": "tokenGive",
                                "type": "address",
                                "value": "0x006bea43baa3f7a6f765f14f10a1a1b08334ef45"
                            },
                            {
                                "name": "amountGive",
                                "type": "uint256",
                                "value": "5,000,000,000,000,000,000"
                            },
                            {
                                "name": "expires",
                                "type": "uint256",
                                "value": "4,441,206"
                            },
                            {
                                "name": "nonce",
                                "type": "uint256",
                                "value": "1,317,690,096"
                            },
                            {
                                "name": "user",
                                "type": "address",
                                "value": "0x333eede1d8891bddeb6e3797f81bf8283397cd4c"
                            },
                            {
                                "name": "v",
                                "type": "uint8",
                                "value": "28"
                            },
                            {
                                "name": "r",
                                "type": "bytes32",
                                "value": "0x800721f59d6d6d6996f667821dc2335c0f9cc1f578a9db064c9531131e77a64f"
                            },
                            {
                                "name": "s",
                                "type": "bytes32",
                                "value": "0x50a2c2d91088ebef70d1cd6904e09db0ba7036dffe44b67a212b01a494bc9e0a"
                            }
                        ],
                        "signature": "Cancel(address,uint256,address,uint256,uint256,uint256,address,uint8,bytes32,bytes32)"
                    },
                    "id": 3,
                    "logData": "0x0000000000000000000000000000000000000000000000000000000000000000000000000000000000000000000000000000000000000000001a4a4f9197e600000000000000000000000000006bea43baa3f7a6f765f14f10a1a1b08334ef450000000000000000000000000000000000000000000000004563918244f40000000000000000000000000000000000000000000000000000000000000043c476000000000000000000000000000000000000000000000000000000004e8a5af0000000000000000000000000333eede1d8891bddeb6e3797f81bf8283397cd4c000000000000000000000000000000000000000000000000000000000000001c800721f59d6d6d6996f667821dc2335c0f9cc1f578a9db064c9531131e77a64f50a2c2d91088ebef70d1cd6904e09db0ba7036dffe44b67a212b01a494bc9e0a",
                    "logDecoded": true,
                    "operation": "EVENT",
                    "revert": false,
                    "status": true,
                    "topics": [
                        "0x1e0b760c386003e9cb9bcf4fcf3997886042859d9b6ed6320e804597fcdb28b0"
                    ]
                },
                "nodeType": 1
            }
        },
        "gasFlame": [
            {
                "children": [
                    {
                        "children": [
                            {
                                "children": [],
                                "depth": 0,
                                "name": "Initial Gas",
                                "value": 29016
                            },
                            {
                                "children": [
                                    {
                                        "children": [],
                                        "depth": 1,
                                        "name": "sha256hash",
                                        "value": 132
                                    },
                                    {
                                        "children": [],
                                        "depth": 1,
                                        "name": "ecrecover",
                                        "value": 3000
                                    }
                                ],
                                "depth": 0,
                                "name": "Executed Gas",
                                "value": 30146
                            }
                        ],
                        "depth": -1,
                        "name": "Actual Gas Used",
                        "value": 59162
                    },
                    {
                        "children": [],
                        "depth": -1,
                        "name": "Refunded Gas",
                        "value": 0
                    }
                ],
                "depth": -2,
                "name": "Total Gas",
                "value": 59162
            }
        ],
        "isConfirmed": true,
        "mainTrace": [
            {
                "children": [
                    {
                        "children": [
                            {
                                "children": [],
                                "depth": 1,
                                "id": 1,
                                "order": 1
                            },
                            {
                                "children": [],
                                "depth": 1,
                                "id": 2,
                                "order": 2
                            },
                            {
                                "children": [],
                                "depth": 1,
                                "id": 3,
                                "order": 3
                            }
                        ],
                        "depth": 0,
                        "id": 0,
                        "order": 0
                    }
                ],
                "depth": -1,
                "id": -1,
                "order": -1
            }
        ],
        "mainTraceNodeCount": 4,
        "parentIdMap": {
            "0": -1,
            "1": 0,
            "2": 0,
            "3": 0
        },
        "tidyTrace": [
            {
                "children": [
                    {
                        "children": [
                            {
                                "children": [],
                                "depth": 1,
                                "id": 1,
                                "order": 1
                            },
                            {
                                "children": [],
                                "depth": 1,
                                "id": 2,
                                "order": 2
                            },
                            {
                                "children": [],
                                "depth": 1,
                                "id": 3,
                                "order": 3
                            }
                        ],
                        "depth": 0,
                        "id": 0,
                        "order": 0
                    }
                ],
                "depth": -1,
                "id": -1,
                "order": -1
            }
        ],
        "tidyTraceNodeCount": 4
    },
    "state_change": {
        "stateChanges": [
            {
                "address": "0x8d12a197cb00d4747a1fe03395095ce2a5cc6819",
                "erc": "",
                "slots": [
                    {
                        "current": "0x000000000000000000000000000000000000000000000000001a4a4f9197e600",
                        "key": "0x6939b9318a7dddea4501d52d2f3386122ca37f311986873d6d5c6942e7b25073",
                        "prev": "0x0000000000000000000000000000000000000000000000000000000000000000"
                    }
                ],
                "storageVariables": []
            }
        ]
    }
}