{
    "balance_change": {
        "balanceChanges": [
            {
                "account": "0x10ec0ee6e2e8c5c9c0d456bb4e600b278014a6fc",
                "assets": [
                    {
                        "address": "0xb64ef51c888972c908cfacf59b47c1afbc0ab8ac",
                        "amount": "7.8581249",
                        "iconUrl": "https://assets.blocksec.com/icon/adb507b7df0c119aef80ed36afeebbe0220982ead2feb7b77ef22bb1559b7c3a.png",
                        "isERC1155": false,
                        "isERC721": false,
                        "sign": false,
                        "value": ""
                    }
                ]
            },
            {
                "account": "0x916b13449085cfb363f40a11acbded9bc4b72ab0",
                "assets": [
                    {
                        "address": "0xb64ef51c888972c908cfacf59b47c1afbc0ab8ac",
                        "amount": "7.8581249",
                        "iconUrl": "https://assets.blocksec.com/icon/adb507b7df0c119aef80ed36afeebbe0220982ead2feb7b77ef22bb1559b7c3a.png",
                        "isERC1155": false,
                        "isERC721": false,
                        "sign": true,
                        "value": ""
                    }
                ]
            }
        ]
    },
    "profile": {
        "basic_info": {
            "baseFee": "",
            "blockNumber": 6855312,
            "callData": "0xa9059cbb000000000000000000000000916b13449085cfb363f40a11acbded9bc4b72ab0000000000000000000000000000000000000000000000000000000002ed68c0a",
            "debugEnable": true,
            "errorInfo": "",
            "eventCount": 1,
            "feeRecipient": "0xea674fdde714fd979de3edf0f56aa9716b898ec8",
            "formatValue": "0",
            "gasLimit": 36752,
            "gasPrice": "2.200000002",
            "gasUsed": 21752,
            "intTxnCount": 0,
            "internalRevert": false,
            "internalRevertMessage": "",
            "isContractCreation": false,
            "isFlashloan": false,
            "maxFee": "",
            "nonce": 0,
            "overwritedBlockNumber": -1,
            "priorityFee": "",
            "receiver": "0xb64ef51c888972c908cfacf59b47c1afbc0ab8ac",
            "revertMessage": "",
            "sender": "0x10ec0ee6e2e8c5c9c0d456bb4e600b278014a6fc",
            "simulationEnable": true,
            "sourceTxnHash": "0xcd403b9f977fd72111b72891886635607ad5e864d0207047caed08b457a43e32",
            "status": true,
            "timestamp": "2018-12-09T14:57:50Z",
            "transactionFee": "0.000047854400043504",
            "txnHash": "0xcd403b9f977fd72111b72891886635607ad5e864d0207047caed08b457a43e32",
            "txnIndex": 49,
            "type": 0,
            "value": "0"
        },
        "fund_flow": [
            {
                "amount": "7.8581249",
                "from": "0x10ec0ee6e2e8c5c9c0d456bb4e600b278014a6fc",
                "id": 1,
                "isERC1155": false,
                "isERC721": false,
                "isReverted": false,
                "order": 1,
                "to": "0x916b13449085cfb363f40a11acbded9bc4b72ab0",
                "token": "0xb64ef51c888972c908cfacf59b47c1afbc0ab8ac"
            }
        ],
        "token_infos": [
            {
                "address": "0xb64ef51c888972c908cfacf59b47c1afbc0ab8ac",
                "decimals": 8
            },
            {
                "address": "0xc02aaa39b223fe8d0a0e5c4f27ead9083c756cc2",
                "decimals": 18
            },
            {
                "address": "0xeeeeeeeeeeeeeeeeeeeeeeeeeeeeeeeeeeeeeeee",
                "decimals": 18
            }
        ]
    },
    "address_label": {
        "labels": [
            {
                "address": "0x0000000000000000000000000000000000000003",
                "label": "Precompiled"
            },
            {
                "address": "0x0000000000000000000000000000000000000004",
                "label": "Precompiled"
            },
            {
                "address": "0xeeeeeeeeeeeeeeeeeeeeeeeeeeeeeeeeeeeeeeee",
                "label": "Ether"
            },
            {
                "address": "0xb64ef51c888972c908cfacf59b47c1afbc0ab8ac",
                "label": "Storj (STORJ)"
            },
            {
                "address": "0x0000000000000000000000000000000000000001",
                "label": "Precompiled"
            },
            {
                "address": "0x0000000000000000000000000000000000000002",
                "label": "Precompiled"
            }
        ]
    },
    "trace": {
        "accountLabels": null,
        "dataMap": {
            "-1": {
                "invocation": {
                    "address": "0x10ec0ee6e2e8c5c9c0d456bb4e600b278014a6fc",
                    "callData": "",
                    "decodedMethod": null,
                    "errorInfo": "",
                    "fromAddress": "",
                    "gasUsed": 0,
                    "id": -1,
                    "methodDecoded": false,
                    "operation": "",
                    "output": "",
                    "revert": false,
                    "revertMessage": "",
                    "selector": "",
                    "status": false,
                    "value": ""
                },
                "nodeType": 0
            },
            "0": {
                "invocation": {
                    "address": "0xb64ef51c888972c908cfacf59b47c1afbc0ab8ac",
                    "callData": "0x000000000000000000000000916b13449085cfb363f40a11acbded9bc4b72ab0000000000000000000000000000000000000000000000000000000002ed68c0a",
                    "decodedMethod": {
                        "callParams": [
                            {
                                "name": "_to",
                                "type": "address",
                                "value": "0x916b13449085cfb363f40a11acbded9bc4b72ab0"
                            },
                            {
                                "decimalAvailable": true,
                                "name": "_value",
                                "type": "uint256",
                                "value": "785,812,490"
                            }
                        ],
                        "constructorArguments": "",
                        "name": "transfer",
                        "returnParams": [
                            {
                                "name": "success",
                                "type": "bool",
                                "value": true
                            }
                        ],
                        "signature": "transfer(address,uint256)"
                    },
                    "errorInfo": "",
                    "fromAddress": "0x10ec0ee6e2e8c5c9c0d456bb4e600b278014a6fc",
                    "gasUsed": 21752,
                    "id": 0,
                    "methodDecoded": true,
                    "operation": "CALL",
                    "output": "0x0000000000000000000000000000000000000000000000000000000000000001",
                    "revert": false,
                    "revertMessage": "",
                    "selector": "0xa9059cbb",
                    "status": true,
                    "value": "0"
                },
                "nodeType": 0
            },
            "1": {
                "event": {
                    "contract": "0xb64ef51c888972c908cfacf59b47c1afbc0ab8ac",
                    "decodedLog": {
                        "name": "Transfer",
                        "params": [
                            {
                                "name": "from",
                                "type": "address",
                                "value": "0x10ec0ee6e2e8c5c9c0d456bb4e600b278014a6fc"
                            },
                            {
                                "name": "to",
                                "type": "address",
                                "value": "0x916b13449085cfb363f40a11acbded9bc4b72ab0"
                            },
                            {
                                "decimalAvailable": true,
                                "name": "value",
                                "type": "uint256",
                                "value": "785,812,490"
                            }
                        ],
                        "signature": "Transfer(address,address,uint256)"
                    },
                    "id": 1,
                    "logData": "0x000000000000000000000000000000000000000000000000000000002ed68c0a",
                    "logDecoded": true,
                    "operation": "EVENT",
                    "revert": false,
                    "status": true,
                    "topics": [
                        "0xddf252ad1be2c89b69c2b068fc378daa952ba7f163c4a11628f55a4df523b3ef",
                        "0x00000000000000000000000010ec0ee6e2e8c5c9c0d456bb4e600b278014a6fc",
                        "0x000000000000000000000000916b13449085cfb363f40a11acbded9bc4b72ab0"
                    ]
                },
                "nodeType": 1
            }
        },
        "gasFlame": [
            {
                "children": [
                    {
                        "children": [
                            {
                                "children": [],
                                "depth": 0,
                                "name": "Initial Gas",
                                "value": 23064
                            },
                            {
                                "children": [],
                                "depth": 0,
                                "name": "Executed Gas",
                                "value": 13688
                            }
                        ],
                        "depth": -1,
                        "name": "Actual Gas Used",
                        "value": 21752
                    },
                    {
                        "children": [],
                        "depth": -1,
                        "name": "Refunded Gas",
                        "value": 15000
                    }
                ],
                "depth": -2,
                "name": "Total Gas",
                "value": 36752
            }
        ],
        "isConfirmed": true,
        "mainTrace": [
            {
                "children": [
                    {
                        "children": [
                            {
                                "children": [],
                                "depth": 1,
                                "id": 1,
                                "order": 1
                            }
                        ],
                        "depth": 0,
                        "id": 0,
                        "order": 0
                    }
                ],
                "depth": -1,
                "id": -1,
                "order": -1
            }
        ],
        "mainTraceNodeCount": 2,
        "parentIdMap": {
            "0": -1,
            "1": 0
        },
        "tidyTrace": [
            {
                "children": [
                    {
                        "children": [
                            {
                                "children": [],
                                "depth": 1,
                                "id": 1,
                                "order": 1
                            }
                        ],
                        "depth": 0,
                        "id": 0,
                        "order": 0
                    }
                ],
                "depth": -1,
                "id": -1,
                "order": -1
            }
        ],
        "tidyTraceNodeCount": 2
    },
    "state_change": {
        "stateChanges": [
            {
                "address": "0xb64ef51c888972c908cfacf59b47c1afbc0ab8ac",
                "erc": "ERC-20",
                "slots": [
                    {
                        "current": "0x0000000000000000000000000000000000000000000000000000000000000000",
                        "key": "0x4a0f062ee556a8cfda315679f39c3d025e3287a72f32072aaf1f3c3412ccf16b",
                        "prev": "0x000000000000000000000000000000000000000000000000000000002ed68c0a"
                    },
                    {
                        "current": "0x00000000000000000000000000000000000000000000000000000000576a481d",
                        "key": "0x08a994a6d5374bb998f030f7934cb887a05f5bc0f107ba34970fabebd2e821ff",
                        "prev": "0x000000000000000000000000000000000000000000000000000000002893bc13"
                    }
                ],
                "storageVariables": []
            }
        ]
    }
}