{
    "balance_change": {
        "balanceChanges": [
            {
                "account": "0xa6574239397cf5545f6d7f7d84c2c52a407123f6",
                "assets": [
                    {
                        "address": "0x9b9647431632af44be02ddd22477ed94d14aacaa",
                        "amount": "232.9832754711",
                        "iconUrl": "",
                        "isERC1155": false,
                        "isERC721": false,
                        "sign": false,
                        "value": ""
                    }
                ]
            },
            {
                "account": "0xa1d8d972560c2f8144af871db508f0b0b10a3fbf",
                "assets": [
                    {
                        "address": "0x9b9647431632af44be02ddd22477ed94d14aacaa",
                        "amount": "232.9832754711",
                        "iconUrl": "",
                        "isERC1155": false,
                        "isERC721": false,
                        "sign": true,
                        "value": ""
                    }
                ]
            }
        ]
    },
    "profile": {
        "basic_info": {
            "baseFee": "88.973593984",
            "blockNumber": 13475918,
            "callData": "0xa9059cbb000000000000000000000000a1d8d972560c2f8144af871db508f0b0b10a3fbf00000000000000000000000000000000000000000000000ca14adea485e53700",
            "debugEnable": true,
            "errorInfo": "",
            "eventCount": 1,
            "feeRecipient": "0x829bd824b016326a401d083b33d092293333a830",
            "formatValue": "0",
            "gasLimit": 111972,
            "gasPrice": "92.197823009",
            "gasUsed": 36515,
            "intTxnCount": 0,
            "internalRevert": false,
            "internalRevertMessage": "",
            "isContractCreation": false,
            "isFlashloan": false,
            "maxFee": "",
            "nonce": 14,
            "overwritedBlockNumber": -1,
            "priorityFee": "",
            "receiver": "0x9b9647431632af44be02ddd22477ed94d14aacaa",
            "revertMessage": "",
            "sender": "0xa6574239397cf5545f6d7f7d84c2c52a407123f6",
            "simulationEnable": true,
            "sourceTxnHash": "0xcd0b059518503583da1a6773b026854d771291e9c185d8c3458095f8dc628632",
            "status": true,
            "timestamp": "2021-10-23T20:18:11Z",
            "transactionFee": "0.003366603507173635",
            "txnHash": "0xcd0b059518503583da1a6773b026854d771291e9c185d8c3458095f8dc628632",
            "txnIndex": 14,
            "type": 0,
            "value": "0"
        },
        "fund_flow": [
            {
                "amount": "232.9832754711",
                "from": "0xa6574239397cf5545f6d7f7d84c2c52a407123f6",
                "id": 1,
                "isERC1155": false,
                "isERC721": false,
                "isReverted": false,
                "order": 1,
                "to": "0xa1d8d972560c2f8144af871db508f0b0b10a3fbf",
                "token": "0x9b9647431632af44be02ddd22477ed94d14aacaa"
            }
        ],
        "token_infos": [
            {
                "address": "0x9b9647431632af44be02ddd22477ed94d14aacaa",
                "decimals": 18
            },
            {
                "address": "0xc02aaa39b223fe8d0a0e5c4f27ead9083c756cc2",
                "decimals": 18
            },
            {
                "address": "0xeeeeeeeeeeeeeeeeeeeeeeeeeeeeeeeeeeeeeeee",
                "decimals": 18
            }
        ]
    },
    "address_label": {
        "labels": [
            {
                "address": "0xeeeeeeeeeeeeeeeeeeeeeeeeeeeeeeeeeeeeeeee",
                "label": "Ether"
            },
            {
                "address": "0xa6574239397cf5545f6d7f7d84c2c52a407123f6",
                "label": "KUCOIN"
            },
            {
                "address": "0xa1d8d972560c2f8144af871db508f0b0b10a3fbf",
                "label": "KuCoin 3"
            },
            {
                "address": "0x9b9647431632af44be02ddd22477ed94d14aacaa",
                "label": "KOK PLAY: KOK Token"
            },
            {
                "address": "0x0000000000000000000000000000000000000001",
                "label": "Precompiled"
            },
            {
                "address": "0x0000000000000000000000000000000000000002",
                "label": "Precompiled"
            },
            {
                "address": "0x0000000000000000000000000000000000000003",
                "label": "Precompiled"
            },
            {
                "address": "0x0000000000000000000000000000000000000004",
                "label": "Precompiled"
            }
        ]
    },
    "trace": {
        "accountLabels": null,
        "dataMap": {
            "-1": {
                "invocation": {
                    "address": "0xa6574239397cf5545f6d7f7d84c2c52a407123f6",
                    "callData": "",
                    "decodedMethod": null,
                    "errorInfo": "",
                    "fromAddress": "",
                    "gasUsed": 0,
                    "id": -1,
                    "methodDecoded": false,
                    "operation": "",
                    "output": "",
                    "revert": false,
                    "revertMessage": "",
                    "selector": "",
                    "status": false,
                    "value": ""
                },
                "nodeType": 0
            },
            "0": {
                "invocation": {
                    "address": "0x9b9647431632af44be02ddd22477ed94d14aacaa",
                    "callData": "0x000000000000000000000000a1d8d972560c2f8144af871db508f0b0b10a3fbf00000000000000000000000000000000000000000000000ca14adea485e53700",
                    "decodedMethod": {
                        "callParams": [
                            {
                                "name": "_to",
                                "type": "address",
                                "value": "0xa1d8d972560c2f8144af871db508f0b0b10a3fbf"
                            },
                            {
                                "decimalAvailable": true,
                                "name": "_value",
                                "type": "uint256",
                                "value": "232,983,275,471,100,000,000"
                            }
                        ],
                        "constructorArguments": "",
                        "name": "transfer",
                        "returnParams": [
                            {
                                "name": "success",
                                "type": "bool",
                                "value": true
                            }
                        ],
                        "signature": "transfer(address,uint256)"
                    },
                    "errorInfo": "",
                    "fromAddress": "0xa6574239397cf5545f6d7f7d84c2c52a407123f6",
                    "gasUsed": 36515,
                    "id": 0,
                    "methodDecoded": true,
                    "operation": "CALL",
                    "output": "0x0000000000000000000000000000000000000000000000000000000000000001",
                    "revert": false,
                    "revertMessage": "",
                    "selector": "0xa9059cbb",
                    "status": true,
                    "value": "0"
                },
                "nodeType": 0
            },
            "1": {
                "event": {
                    "contract": "0x9b9647431632af44be02ddd22477ed94d14aacaa",
                    "decodedLog": {
                        "name": "Transfer",
                        "params": [
                            {
                                "name": "_from",
                                "type": "address",
                                "value": "0xa6574239397cf5545f6d7f7d84c2c52a407123f6"
                            },
                            {
                                "name": "_to",
                                "type": "address",
                                "value": "0xa1d8d972560c2f8144af871db508f0b0b10a3fbf"
                            },
                            {
                                "decimalAvailable": true,
                                "name": "_value",
                                "type": "uint256",
                                "value": "232,983,275,471,100,000,000"
                            }
                        ],
                        "signature": "Transfer(address,address,uint256)"
                    },
                    "id": 1,
                    "logData": "0x00000000000000000000000000000000000000000000000ca14adea485e53700",
                    "logDecoded": true,
                    "operation": "EVENT",
                    "revert": false,
                    "status": true,
                    "topics": [
                        "0xddf252ad1be2c89b69c2b068fc378daa952ba7f163c4a11628f55a4df523b3ef",
                        "0x000000000000000000000000a6574239397cf5545f6d7f7d84c2c52a407123f6",
                        "0x000000000000000000000000a1d8d972560c2f8144af871db508f0b0b10a3fbf"
                    ]
                },
                "nodeType": 1
            }
        },
        "gasFlame": [
            {
                "children": [
                    {
                        "children": [
                            {
                                "children": [],
                                "depth": 0,
                                "name": "Initial Gas",
                                "value": 21656
                            },
                            {
                                "children": [],
                                "depth": 0,
                                "name": "Executed Gas",
                                "value": 19659
                            }
                        ],
                        "depth": -1,
                        "name": "Actual Gas Used",
                        "value": 36515
                    },
                    {
                        "children": [],
                        "depth": -1,
                        "name": "Refunded Gas",
                        "value": 4800
                    }
                ],
                "depth": -2,
                "name": "Total Gas",
                "value": 41315
            }
        ],
        "isConfirmed": true,
        "mainTrace": [
            {
                "children": [
                    {
                        "children": [
                            {
                                "children": [],
                                "depth": 1,
                                "id": 1,
                                "order": 1
                            }
                        ],
                        "depth": 0,
                        "id": 0,
                        "order": 0
                    }
                ],
                "depth": -1,
                "id": -1,
                "order": -1
            }
        ],
        "mainTraceNodeCount": 2,
        "parentIdMap": {
            "0": -1,
            "1": 0
        },
        "tidyTrace": [
            {
                "children": [
                    {
                        "children": [
                            {
                                "children": [],
                                "depth": 1,
                                "id": 1,
                                "order": 1
                            }
                        ],
                        "depth": 0,
                        "id": 0,
                        "order": 0
                    }
                ],
                "depth": -1,
                "id": -1,
                "order": -1
            }
        ],
        "tidyTraceNodeCount": 2
    },
    "state_change": {
        "stateChanges": [
            {
                "address": "0x9b9647431632af44be02ddd22477ed94d14aacaa",
                "erc": "ERC-20",
                "slots": [
                    {
                        "current": "0x00000000000000000000000000000000000000000000a91650a31ee7e79defc3",
                        "key": "0x993efcb2b2f56d51dfad07a0ac109d62704385e3ec772f6fcaff3e2a082b062f",
                        "prev": "0x00000000000000000000000000000000000000000000a909af58404361b8b8c3"
                    },
                    {
                        "current": "0x0000000000000000000000000000000000000000000000000000000000000000",
                        "key": "0x5c4a946a84dd6c0be9486f4c8ac5654154dceb84e33810e7a5d177ead844e6f4",
                        "prev": "0x00000000000000000000000000000000000000000000000ca14adea485e53700"
                    }
                ],
                "storageVariables": [
                    {
                        "name": "balances",
                        "type": "mapping(address => uint256)",
                        "value": {
                            "pairs": [
                                {
                                    "key": "0xa1d8d972560c2f8144af871db508f0b0b10a3fbf",
                                    "value": {
                                        "current": "798491574496517261488067",
                                        "prev": "798258591221046161488067",
                                        "typeTag": 1
                                    }
                                },
                                {
                                    "key": "0xa6574239397cf5545f6d7f7d84c2c52a407123f6",
                                    "value": {
                                        "current": "0",
                                        "prev": "232983275471100000000",
                                        "typeTag": 1
                                    }
                                }
                            ],
                            "typeTag": 4
                        }
                    }
                ]
            }
        ]
    }
}