{
    "balance_change": {
        "balanceChanges": [
            {
                "account": "0x0ec80e120d0ad3e98931163d70ecde95fdee4a7f",
                "assets": [
                    {
                        "address": "0xeeeeeeeeeeeeeeeeeeeeeeeeeeeeeeeeeeeeeeee",
                        "amount": "20.999",
                        "iconUrl": "https://assets.blocksec.com/image/1663669189317-3.png",
                        "isERC1155": false,
                        "isERC721": false,
                        "sign": false,
                        "value": ""
                    }
                ]
            },
            {
                "account": "0x273930d21e01ee25e4c219b63259d214872220a2",
                "assets": [
                    {
                        "address": "0xeeeeeeeeeeeeeeeeeeeeeeeeeeeeeeeeeeeeeeee",
                        "amount": "20.999",
                        "iconUrl": "https://assets.blocksec.com/image/1663669189317-3.png",
                        "isERC1155": false,
                        "isERC721": false,
                        "sign": true,
                        "value": ""
                    }
                ]
            }
        ]
    },
    "profile": {
        "basic_info": {
            "baseFee": "",
            "blockNumber": 1143374,
            "callData": "0xb61d27f60000000000000000000000003eea1f45214aac30d97cadbb8277503fcd0aa4c4000000000000000000000000000000000000000000000001236b6f3e166d8000000000000000000000000000000000000000000000000000000000000000006000000000000000000000000000000000000000000000000000000000000000000000000000000000000000000000000000000000000000000000000000000000",
            "debugEnable": true,
            "errorInfo": "",
            "eventCount": 2,
            "feeRecipient": "0x2a65aca4d5fc5b5c859090a6c34d164135398226",
            "formatValue": "0",
            "gasLimit": 172716,
            "gasPrice": "18.181818181",
            "gasUsed": 72716,
            "intTxnCount": 3,
            "internalRevert": false,
            "internalRevertMessage": "",
            "isContractCreation": false,
            "isFlashloan": false,
            "maxFee": "",
            "nonce": 4,
            "overwritedBlockNumber": -1,
            "priorityFee": "",
            "receiver": "0x0ec80e120d0ad3e98931163d70ecde95fdee4a7f",
            "revertMessage": "",
            "sender": "0x799e779234b42a85347b5e3dbbe934e5a0ba2cef",
            "simulationEnable": true,
            "sourceTxnHash": "0xce73ab51187a782d1d965df7dd12f8328ab4a6d271c513b91e7f00e4628e5af3",
            "status": true,
            "timestamp": "2016-03-13T11:58:55Z",
            "transactionFee": "0.001322109090849596",
            "txnHash": "0xce73ab51187a782d1d965df7dd12f8328ab4a6d271c513b91e7f00e4628e5af3",
            "txnIndex": 0,
            "type": 0,
            "value": "0"
        },
        "fund_flow": [
            {
                "amount": "20.999",
                "from": "0x0ec80e120d0ad3e98931163d70ecde95fdee4a7f",
                "id": 1,
                "isERC1155": false,
                "isERC721": false,
                "isReverted": false,
                "order": 1,
                "to": "0x3eea1f45214aac30d97cadbb8277503fcd0aa4c4",
                "token": "0xeeeeeeeeeeeeeeeeeeeeeeeeeeeeeeeeeeeeeeee"
            },
            {
                "amount": "20.999",
                "from": "0x3eea1f45214aac30d97cadbb8277503fcd0aa4c4",
                "id": 2,
                "isERC1155": false,
                "isERC721": false,
                "isReverted": false,
                "order": 2,
                "to": "0x273930d21e01ee25e4c219b63259d214872220a2",
                "token": "0xeeeeeeeeeeeeeeeeeeeeeeeeeeeeeeeeeeeeeeee"
            }
        ],
        "token_infos": [
            {
                "address": "0xc02aaa39b223fe8d0a0e5c4f27ead9083c756cc2",
                "decimals": 18
            },
            {
                "address": "0xeeeeeeeeeeeeeeeeeeeeeeeeeeeeeeeeeeeeeeee",
                "decimals": 18
            }
        ]
    },
    "address_label": {
        "labels": [
            {
                "address": "0xeeeeeeeeeeeeeeeeeeeeeeeeeeeeeeeeeeeeeeee",
                "label": "Ether"
            },
            {
                "address": "0x273930d21e01ee25e4c219b63259d214872220a2",
                "label": "Wallet"
            },
            {
                "address": "0x0000000000000000000000000000000000000001",
                "label": "Precompiled"
            },
            {
                "address": "0x0000000000000000000000000000000000000002",
                "label": "Precompiled"
            },
            {
                "address": "0x0000000000000000000000000000000000000003",
                "label": "Precompiled"
            },
            {
                "address": "0x0000000000000000000000000000000000000004",
                "label": "Precompiled"
            }
        ]
    },
    "trace": {
        "accountLabels": null,
        "dataMap": {
            "-1": {
                "invocation": {
                    "address": "0x799e779234b42a85347b5e3dbbe934e5a0ba2cef",
                    "callData": "",
                    "decodedMethod": null,
                    "errorInfo": "",
                    "fromAddress": "",
                    "gasUsed": 0,
                    "id": -1,
                    "methodDecoded": false,
                    "operation": "",
                    "output": "",
                    "revert": false,
                    "revertMessage": "",
                    "selector": "",
                    "status": false,
                    "value": ""
                },
                "nodeType": 0
            },
            "0": {
                "invocation": {
                    "address": "0x0ec80e120d0ad3e98931163d70ecde95fdee4a7f",
                    "callData": "0x0000000000000000000000003eea1f45214aac30d97cadbb8277503fcd0aa4c4000000000000000000000000000000000000000000000001236b6f3e166d8000000000000000000000000000000000000000000000000000000000000000006000000000000000000000000000000000000000000000000000000000000000000000000000000000000000000000000000000000000000000000000000000000",
                    "decodedMethod": {
                        "callParams": [
                            {
                                "name": "dest",
                                "type": "address",
                                "value": "0x3eea1f45214aac30d97cadbb8277503fcd0aa4c4"
                            },
                            {
                                "name": "value",
                                "type": "uint256",
                                "value": "20,999,000,000,000,000,000"
                            },
                            {
                                "name": "func",
                                "type": "bytes",
                                "value": "0x"
                            }
                        ],
                        "constructorArguments": "",
                        "name": "execute",
                        "returnParams": [],
                        "signature": "execute(address,uint256,bytes)"
                    },
                    "errorInfo": "",
                    "fromAddress": "0x799e779234b42a85347b5e3dbbe934e5a0ba2cef",
                    "gasUsed": 72716,
                    "id": 0,
                    "methodDecoded": true,
                    "operation": "CALL",
                    "output": "0x0000000000000000000000000000000000000000000000000000000000000000",
                    "revert": false,
                    "revertMessage": "",
                    "selector": "0xb61d27f6",
                    "status": true,
                    "value": "0"
                },
                "nodeType": 0
            },
            "1": {
                "invocation": {
                    "address": "0x273930d21e01ee25e4c219b63259d214872220a2",
                    "callData": "0x0000000000000000000000003eea1f45214aac30d97cadbb8277503fcd0aa4c4000000000000000000000000000000000000000000000001236b6f3e166d8000000000000000000000000000000000000000000000000000000000000000006000000000000000000000000000000000000000000000000000000000000000000000000000000000000000000000000000000000000000000000000000000000",
                    "decodedMethod": {
                        "callParams": [
                            {
                                "name": "_to",
                                "type": "address",
                                "value": "0x3eea1f45214aac30d97cadbb8277503fcd0aa4c4"
                            },
                            {
                                "name": "_value",
                                "type": "uint256",
                                "value": "20,999,000,000,000,000,000"
                            },
                            {
                                "name": "_data",
                                "type": "bytes",
                                "value": "0x"
                            }
                        ],
                        "constructorArguments": "",
                        "name": "execute",
                        "returnParams": [
                            {
                                "name": "_r",
                                "type": "bytes32",
                                "value": "0x0000000000000000000000000000000000000000000000000000000000000000"
                            }
                        ],
                        "signature": "execute(address,uint256,bytes)"
                    },
                    "errorInfo": "",
                    "fromAddress": "0x0ec80e120d0ad3e98931163d70ecde95fdee4a7f",
                    "gasUsed": 48815,
                    "id": 1,
                    "methodDecoded": true,
                    "operation": "CALLCODE",
                    "output": "0x0000000000000000000000000000000000000000000000000000000000000000",
                    "revert": false,
                    "revertMessage": "",
                    "selector": "0xb61d27f6",
                    "status": true,
                    "value": "0"
                },
                "nodeType": 0
            },
            "2": {
                "event": {
                    "contract": "0x0ec80e120d0ad3e98931163d70ecde95fdee4a7f",
                    "decodedLog": {
                        "name": "SingleTransact",
                        "params": [
                            {
                                "name": "owner",
                                "type": "address",
                                "value": "0x799e779234b42a85347b5e3dbbe934e5a0ba2cef"
                            },
                            {
                                "name": "value",
                                "type": "uint256",
                                "value": "20,999,000,000,000,000,000"
                            },
                            {
                                "name": "to",
                                "type": "address",
                                "value": "0x3eea1f45214aac30d97cadbb8277503fcd0aa4c4"
                            },
                            {
                                "name": "data",
                                "type": "bytes",
                                "value": "0x"
                            }
                        ],
                        "signature": "SingleTransact(address,uint256,address,bytes)"
                    },
                    "id": 2,
                    "logData": "0x000000000000000000000000799e779234b42a85347b5e3dbbe934e5a0ba2cef000000000000000000000000000000000000000000000001236b6f3e166d80000000000000000000000000003eea1f45214aac30d97cadbb8277503fcd0aa4c400000000000000000000000000000000000000000000000000000000000000800000000000000000000000000000000000000000000000000000000000000000",
                    "logDecoded": true,
                    "operation": "EVENT",
                    "revert": false,
                    "status": true,
                    "topics": [
                        "0x92ca3a80853e6663fa31fa10b99225f18d4902939b4c53a9caae9043f6efd004"
                    ]
                },
                "nodeType": 1
            },
            "3": {
                "invocation": {
                    "address": "0x3eea1f45214aac30d97cadbb8277503fcd0aa4c4",
                    "callData": "0x",
                    "decodedMethod": null,
                    "errorInfo": "",
                    "fromAddress": "0x0ec80e120d0ad3e98931163d70ecde95fdee4a7f",
                    "gasUsed": 8244,
                    "id": 3,
                    "methodDecoded": false,
                    "operation": "CALL",
                    "output": "0x0000000000000000000000000000000000000000000000000000000000000000",
                    "revert": false,
                    "revertMessage": "",
                    "selector": "fallback",
                    "status": true,
                    "value": "20.999"
                },
                "nodeType": 0
            },
            "4": {
                "invocation": {
                    "address": "0x273930d21e01ee25e4c219b63259d214872220a2",
                    "callData": "0x",
                    "decodedMethod": null,
                    "errorInfo": "",
                    "fromAddress": "0x3eea1f45214aac30d97cadbb8277503fcd0aa4c4",
                    "gasUsed": 1444,
                    "id": 4,
                    "methodDecoded": false,
                    "operation": "CALLCODE",
                    "output": "",
                    "revert": false,
                    "revertMessage": "",
                    "selector": "fallback",
                    "status": true,
                    "value": "20.999"
                },
                "nodeType": 0
            },
            "5": {
                "event": {
                    "contract": "0x3eea1f45214aac30d97cadbb8277503fcd0aa4c4",
                    "decodedLog": {
                        "name": "Deposit",
                        "params": [
                            {
                                "name": "user",
                                "type": "address",
                                "value": "0x799e779234b42a85347b5e3dbbe934e5a0ba2cef"
                            },
                            {
                                "name": "amount",
                                "type": "uint256",
                                "value": "20,999,000,000,000,000,000"
                            }
                        ],
                        "signature": "Deposit(address,uint256)"
                    },
                    "id": 5,
                    "logData": "0x000000000000000000000000799e779234b42a85347b5e3dbbe934e5a0ba2cef000000000000000000000000000000000000000000000001236b6f3e166d8000",
                    "logDecoded": true,
                    "operation": "EVENT",
                    "revert": false,
                    "status": true,
                    "topics": [
                        "0xe1fffcc4923d04b559f4d29a8bfc6cda04eb5b0d3c460751c2402c5c5cc9109c"
                    ]
                },
                "nodeType": 1
            }
        },
        "gasFlame": [
            {
                "children": [
                    {
                        "children": [
                            {
                                "children": [],
                                "depth": 0,
                                "name": "Initial Gas",
                                "value": 23768
                            },
                            {
                                "children": [
                                    {
                                        "children": [
                                            {
                                                "children": [
                                                    {
                                                        "children": [],
                                                        "depth": 3,
                                                        "name": "fallback",
                                                        "value": 1444
                                                    }
                                                ],
                                                "depth": 2,
                                                "name": "fallback",
                                                "value": 8244
                                            }
                                        ],
                                        "depth": 1,
                                        "name": "execute",
                                        "value": 48815
                                    }
                                ],
                                "depth": 0,
                                "name": "Executed Gas",
                                "value": 48948
                            }
                        ],
                        "depth": -1,
                        "name": "Actual Gas Used",
                        "value": 72716
                    },
                    {
                        "children": [],
                        "depth": -1,
                        "name": "Refunded Gas",
                        "value": 0
                    }
                ],
                "depth": -2,
                "name": "Total Gas",
                "value": 72716
            }
        ],
        "isConfirmed": true,
        "mainTrace": [
            {
                "children": [
                    {
                        "children": [
                            {
                                "children": [
                                    {
                                        "children": [],
                                        "depth": 2,
                                        "id": 2,
                                        "order": 2
                                    },
                                    {
                                        "children": [
                                            {
                                                "children": [
                                                    {
                                                        "children": [],
                                                        "depth": 4,
                                                        "id": 5,
                                                        "order": 5
                                                    }
                                                ],
                                                "depth": 3,
                                                "id": 4,
                                                "order": 4
                                            }
                                        ],
                                        "depth": 2,
                                        "id": 3,
                                        "order": 3
                                    }
                                ],
                                "depth": 1,
                                "id": 1,
                                "order": 1
                            }
                        ],
                        "depth": 0,
                        "id": 0,
                        "order": 0
                    }
                ],
                "depth": -1,
                "id": -1,
                "order": -1
            }
        ],
        "mainTraceNodeCount": 6,
        "parentIdMap": {
            "0": -1,
            "1": 0,
            "2": 1,
            "3": 1,
            "4": 3,
            "5": 4
        },
        "tidyTrace": [
            {
                "children": [
                    {
                        "children": [
                            {
                                "children": [
                                    {
                                        "children": [],
                                        "depth": 2,
                                        "id": 2,
                                        "order": 2
                                    },
                                    {
                                        "children": [
                                            {
                                                "children": [
                                                    {
                                                        "children": [],
                                                        "depth": 4,
                                                        "id": 5,
                                                        "order": 5
                                                    }
                                                ],
                                                "depth": 3,
                                                "id": 4,
                                                "order": 4
                                            }
                                        ],
                                        "depth": 2,
                                        "id": 3,
                                        "order": 3
                                    }
                                ],
                                "depth": 1,
                                "id": 1,
                                "order": 1
                            }
                        ],
                        "depth": 0,
                        "id": 0,
                        "order": 0
                    }
                ],
                "depth": -1,
                "id": -1,
                "order": -1
            }
        ],
        "tidyTraceNodeCount": 6
    },
    "state_change": {
        "stateChanges": [
            {
                "address": "0x0ec80e120d0ad3e98931163d70ecde95fdee4a7f",
                "erc": "",
                "slots": [
                    {
                        "current": "0x000000000000000000000000000000000000000000000001236b6f3e166d8000",
                        "key": "0x0000000000000000000000000000000000000000000000000000000000000106",
                        "prev": "0x0000000000000000000000000000000000000000000000000000000000000000"
                    },
                    {
                        "current": "0x00000000000000000000000000000000000000000000000000000000000041e9",
                        "key": "0x0000000000000000000000000000000000000000000000000000000000000107",
                        "prev": "0x00000000000000000000000000000000000000000000000000000000000041da"
                    }
                ],
                "storageVariables": []
            }
        ]
    }
}