{
    "balance_change": {
        "balanceChanges": [
            {
                "account": "0x4812505f744b14813d27d641c8af4d74f13c92bf",
                "assets": [
                    {
                        "address": "0xeeeeeeeeeeeeeeeeeeeeeeeeeeeeeeeeeeeeeeee",
                        "amount": "0.013333333333333334",
                        "iconUrl": "https://assets.blocksec.com/image/1663669189317-3.png",
                        "isERC1155": false,
                        "isERC721": false,
                        "sign": false,
                        "value": ""
                    }
                ]
            },
            {
                "account": "0x5f742383b6d1298980030d6af943b76cdd902143",
                "assets": [
                    {
                        "address": "0xeeeeeeeeeeeeeeeeeeeeeeeeeeeeeeeeeeeeeeee",
                        "amount": "0.013333333333333334",
                        "iconUrl": "https://assets.blocksec.com/image/1663669189317-3.png",
                        "isERC1155": false,
                        "isERC721": false,
                        "sign": true,
                        "value": ""
                    }
                ]
            }
        ]
    },
    "profile": {
        "basic_info": {
            "baseFee": "",
            "blockNumber": 2934088,
            "callData": "0x70de8c6e000000000000000000000000000000000000000000000000000000000000008000000000000000000000000000000000000000000000000000000000002cc54300000000000000000000000000000000000000000000000000000000000000010000000000000000000000000000000000000000000000000000000000000017000000000000000000000000000000000000000000000000000000000000000a6574686572737061636500000000000000000000000000000000000000000000",
            "debugEnable": true,
            "errorInfo": "",
            "eventCount": 0,
            "feeRecipient": "0x2a65aca4d5fc5b5c859090a6c34d164135398226",
            "formatValue": "0.013333333333333334",
            "gasLimit": 65000,
            "gasPrice": "20",
            "gasUsed": 38320,
            "intTxnCount": 1,
            "internalRevert": false,
            "internalRevertMessage": "",
            "isContractCreation": false,
            "isFlashloan": false,
            "maxFee": "",
            "nonce": 28,
            "overwritedBlockNumber": -1,
            "priorityFee": "",
            "receiver": "0x5f742383b6d1298980030d6af943b76cdd902143",
            "revertMessage": "",
            "sender": "0x4812505f744b14813d27d641c8af4d74f13c92bf",
            "simulationEnable": true,
            "sourceTxnHash": "0xce5f984c36d2f5ca904bfa5404ccab77086f3a1a54c4904b7f5b93f50ad77779",
            "status": true,
            "timestamp": "2017-01-04T13:21:12Z",
            "transactionFee": "0.0007664",
            "txnHash": "0xce5f984c36d2f5ca904bfa5404ccab77086f3a1a54c4904b7f5b93f50ad77779",
            "txnIndex": 10,
            "type": 0,
            "value": "13333333333333334"
        },
        "fund_flow": [
            {
                "amount": "0.013333333333333334",
                "from": "0x4812505f744b14813d27d641c8af4d74f13c92bf",
                "id": 1,
                "isERC1155": false,
                "isERC721": false,
                "isReverted": false,
                "order": 1,
                "to": "0x5f742383b6d1298980030d6af943b76cdd902143",
                "token": "0xeeeeeeeeeeeeeeeeeeeeeeeeeeeeeeeeeeeeeeee"
            }
        ],
        "token_infos": [
            {
                "address": "0xc02aaa39b223fe8d0a0e5c4f27ead9083c756cc2",
                "decimals": 18
            },
            {
                "address": "0xeeeeeeeeeeeeeeeeeeeeeeeeeeeeeeeeeeeeeeee",
                "decimals": 18
            }
        ]
    },
    "address_label": {
        "labels": [
            {
                "address": "0x0000000000000000000000000000000000000004",
                "label": "Precompiled"
            },
            {
                "address": "0x5f742383b6d1298980030d6af943b76cdd902143",
                "label": "CompetitionStore"
            },
            {
                "address": "0x0000000000000000000000000000000000000001",
                "label": "Precompiled"
            },
            {
                "address": "0x0000000000000000000000000000000000000002",
                "label": "Precompiled"
            },
            {
                "address": "0x0000000000000000000000000000000000000003",
                "label": "Precompiled"
            },
            {
                "address": "0xeeeeeeeeeeeeeeeeeeeeeeeeeeeeeeeeeeeeeeee",
                "label": "Ether"
            }
        ]
    },
    "trace": {
        "accountLabels": null,
        "dataMap": {
            "-1": {
                "invocation": {
                    "address": "0x4812505f744b14813d27d641c8af4d74f13c92bf",
                    "callData": "",
                    "decodedMethod": null,
                    "errorInfo": "",
                    "fromAddress": "",
                    "gasUsed": 0,
                    "id": -1,
                    "methodDecoded": false,
                    "operation": "",
                    "output": "",
                    "revert": false,
                    "revertMessage": "",
                    "selector": "",
                    "status": false,
                    "value": ""
                },
                "nodeType": 0
            },
            "0": {
                "invocation": {
                    "address": "0x5f742383b6d1298980030d6af943b76cdd902143",
                    "callData": "0x000000000000000000000000000000000000000000000000000000000000008000000000000000000000000000000000000000000000000000000000002cc54300000000000000000000000000000000000000000000000000000000000000010000000000000000000000000000000000000000000000000000000000000017000000000000000000000000000000000000000000000000000000000000000a6574686572737061636500000000000000000000000000000000000000000000",
                    "decodedMethod": {
                        "callParams": [
                            {
                                "name": "gameID",
                                "type": "string",
                                "value": "etherspace"
                            },
                            {
                                "name": "blockNumber",
                                "type": "uint64",
                                "value": "2,934,083"
                            },
                            {
                                "name": "competitionIndex",
                                "type": "uint8",
                                "value": "1"
                            },
                            {
                                "name": "version",
                                "type": "uint32",
                                "value": "23"
                            }
                        ],
                        "constructorArguments": "",
                        "name": "start",
                        "returnParams": [],
                        "signature": "start(string,uint64,uint8,uint32)"
                    },
                    "errorInfo": "",
                    "fromAddress": "0x4812505f744b14813d27d641c8af4d74f13c92bf",
                    "gasUsed": 38320,
                    "id": 0,
                    "methodDecoded": true,
                    "operation": "CALL",
                    "output": "",
                    "revert": false,
                    "revertMessage": "",
                    "selector": "0x70de8c6e",
                    "status": true,
                    "value": "0.013333333333333334"
                },
                "nodeType": 0
            },
            "1": {
                "invocation": {
                    "address": "0x0000000000000000000000000000000000000004",
                    "callData": "0x727370616365",
                    "decodedMethod": {
                        "callParams": [
                            {
                                "name": "data",
                                "type": "bytes",
                                "value": "0x65746865727370616365"
                            }
                        ],
                        "constructorArguments": "",
                        "name": "dataCopy()",
                        "returnParams": [
                            {
                                "name": "data",
                                "type": "bytes",
                                "value": "0x65746865727370616365"
                            }
                        ],
                        "signature": "dataCopy(bytes)"
                    },
                    "errorInfo": "",
                    "fromAddress": "0x5f742383b6d1298980030d6af943b76cdd902143",
                    "gasUsed": 18,
                    "id": 1,
                    "methodDecoded": true,
                    "operation": "CALL",
                    "output": "0x65746865727370616365",
                    "revert": false,
                    "revertMessage": "",
                    "selector": "0x65746865",
                    "status": true,
                    "value": "0"
                },
                "nodeType": 0
            }
        },
        "gasFlame": [
            {
                "children": [
                    {
                        "children": [
                            {
                                "children": [],
                                "depth": 0,
                                "name": "Initial Gas",
                                "value": 23128
                            },
                            {
                                "children": [
                                    {
                                        "children": [],
                                        "depth": 1,
                                        "name": "dataCopy()",
                                        "value": 18
                                    }
                                ],
                                "depth": 0,
                                "name": "Executed Gas",
                                "value": 15192
                            }
                        ],
                        "depth": -1,
                        "name": "Actual Gas Used",
                        "value": 38320
                    },
                    {
                        "children": [],
                        "depth": -1,
                        "name": "Refunded Gas",
                        "value": 0
                    }
                ],
                "depth": -2,
                "name": "Total Gas",
                "value": 38320
            }
        ],
        "isConfirmed": true,
        "mainTrace": [
            {
                "children": [
                    {
                        "children": [
                            {
                                "children": [],
                                "depth": 1,
                                "id": 1,
                                "order": 1
                            }
                        ],
                        "depth": 0,
                        "id": 0,
                        "order": 0
                    }
                ],
                "depth": -1,
                "id": -1,
                "order": -1
            }
        ],
        "mainTraceNodeCount": 2,
        "parentIdMap": {
            "0": -1,
            "1": 0
        },
        "tidyTrace": [
            {
                "children": [
                    {
                        "children": [
                            {
                                "children": [],
                                "depth": 1,
                                "id": 1,
                                "order": 1
                            }
                        ],
                        "depth": 0,
                        "id": 0,
                        "order": 0
                    }
                ],
                "depth": -1,
                "id": -1,
                "order": -1
            }
        ],
        "tidyTraceNodeCount": 2
    },
    "state_change": {
        "stateChanges": [
            {
                "address": "0x5f742383b6d1298980030d6af943b76cdd902143",
                "erc": "",
                "slots": [
                    {
                        "current": "0x000000000000000000000000000000000000000000000000635d6e108fcc0160",
                        "key": "0xf63304bc4b1e47907c72a6d3d3ea8920dfd723773ff077b643d242f4e3ce11d0",
                        "prev": "0x000000000000000000000000000000000000000000000000632e0f77facaac0a"
                    },
                    {
                        "current": "0x000000000000000000000000000000586cf6c842e2855aaa60ea900000001701",
                        "key": "0x02f11f7654a7f0cdd882741d214891ddb1e31ac0815df12e4a6ae30f2284307f",
                        "prev": "0x000000000000000000000000000000586cba1951483366f34c5bd30000001701"
                    }
                ],
                "storageVariables": []
            }
        ]
    }
}