{
    "balance_change": {
        "balanceChanges": []
    },
    "profile": {
        "basic_info": {
            "baseFee": "",
            "blockNumber": 5906093,
            "callData": "0x0a19b14a0000000000000000000000008fc01e6cbdffaf09b54f423f9bb1f856b22e47b200000000000000000000000000000000000000000000000000000bd2cc61d0000000000000000000000000000000000000000000000000000000000000000000000000000000000000000000000000000000000000000000000b159f9bb3000000000000000000000000000000000000000000000000000000000000005a235600000000000000000000000000000000000000000000000000000000478d12a3000000000000000000000000c53cfa092ab72c506573f3f92ae7703ba2568658000000000000000000000000000000000000000000000000000000000000001ce6117ff86f331b9d72ce11210a1fc8a8f589a248e4ceae7684a467971c397822245973cc50b43492ef173a64bf0e62614c6e146f5d2d9b957982ad992b6095ad00000000000000000000000000000000000000000000000000000bd2cc61d000",
            "debugEnable": true,
            "errorInfo": "",
            "eventCount": 1,
            "feeRecipient": "0x5a0b54d5dc17e0aadc383d2db43b0a0d3e029c4c",
            "formatValue": "0",
            "gasLimit": 250001,
            "gasPrice": "35",
            "gasUsed": 122794,
            "intTxnCount": 2,
            "internalRevert": false,
            "internalRevertMessage": "",
            "isContractCreation": false,
            "isFlashloan": false,
            "maxFee": "",
            "nonce": 2712,
            "overwritedBlockNumber": -1,
            "priorityFee": "",
            "receiver": "0x8d12a197cb00d4747a1fe03395095ce2a5cc6819",
            "revertMessage": "",
            "sender": "0xe33f1860eb6b335f0f961c95952e29941d09b5f7",
            "simulationEnable": true,
            "sourceTxnHash": "0xce2667387339a246d4e5bee84dd8f3f4156535771c28ede48435e1c76b129153",
            "status": true,
            "timestamp": "2018-07-04T20:36:05Z",
            "transactionFee": "0.00429779",
            "txnHash": "0xce2667387339a246d4e5bee84dd8f3f4156535771c28ede48435e1c76b129153",
            "txnIndex": 23,
            "type": 0,
            "value": "0"
        },
        "fund_flow": [],
        "token_infos": [
            {
                "address": "0xc02aaa39b223fe8d0a0e5c4f27ead9083c756cc2",
                "decimals": 18
            },
            {
                "address": "0xeeeeeeeeeeeeeeeeeeeeeeeeeeeeeeeeeeeeeeee",
                "decimals": 18
            }
        ]
    },
    "address_label": {
        "labels": [
            {
                "address": "0x8d12a197cb00d4747a1fe03395095ce2a5cc6819",
                "label": "EtherDelta"
            },
            {
                "address": "0x0000000000000000000000000000000000000002",
                "label": "Precompiled"
            },
            {
                "address": "0x8fc01e6cbdffaf09b54f423f9bb1f856b22e47b2",
                "label": "OBTC Token"
            },
            {
                "address": "0x0000000000000000000000000000000000000000",
                "label": "Null Address"
            },
            {
                "address": "0x0000000000000000000000000000000000000001",
                "label": "Precompiled"
            },
            {
                "address": "0x0000000000000000000000000000000000000003",
                "label": "Precompiled"
            },
            {
                "address": "0x0000000000000000000000000000000000000004",
                "label": "Precompiled"
            },
            {
                "address": "0xeeeeeeeeeeeeeeeeeeeeeeeeeeeeeeeeeeeeeeee",
                "label": "Ether"
            }
        ]
    },
    "trace": {
        "accountLabels": null,
        "dataMap": {
            "-1": {
                "invocation": {
                    "address": "0xe33f1860eb6b335f0f961c95952e29941d09b5f7",
                    "callData": "",
                    "decodedMethod": null,
                    "errorInfo": "",
                    "fromAddress": "",
                    "gasUsed": 0,
                    "id": -1,
                    "methodDecoded": false,
                    "operation": "",
                    "output": "",
                    "revert": false,
                    "revertMessage": "",
                    "selector": "",
                    "status": false,
                    "value": ""
                },
                "nodeType": 0
            },
            "0": {
                "invocation": {
                    "address": "0x8d12a197cb00d4747a1fe03395095ce2a5cc6819",
                    "callData": "0x0000000000000000000000008fc01e6cbdffaf09b54f423f9bb1f856b22e47b200000000000000000000000000000000000000000000000000000bd2cc61d0000000000000000000000000000000000000000000000000000000000000000000000000000000000000000000000000000000000000000000000b159f9bb3000000000000000000000000000000000000000000000000000000000000005a235600000000000000000000000000000000000000000000000000000000478d12a3000000000000000000000000c53cfa092ab72c506573f3f92ae7703ba2568658000000000000000000000000000000000000000000000000000000000000001ce6117ff86f331b9d72ce11210a1fc8a8f589a248e4ceae7684a467971c397822245973cc50b43492ef173a64bf0e62614c6e146f5d2d9b957982ad992b6095ad00000000000000000000000000000000000000000000000000000bd2cc61d000",
                    "decodedMethod": {
                        "callParams": [
                            {
                                "name": "tokenGet",
                                "type": "address",
                                "value": "0x8fc01e6cbdffaf09b54f423f9bb1f856b22e47b2"
                            },
                            {
                                "name": "amountGet",
                                "type": "uint256",
                                "value": "13,000,000,000,000"
                            },
                            {
                                "name": "tokenGive",
                                "type": "address",
                                "value": "0x0000000000000000000000000000000000000000"
                            },
                            {
                                "name": "amountGive",
                                "type": "uint256",
                                "value": "3,120,000,000,000,000"
                            },
                            {
                                "name": "expires",
                                "type": "uint256",
                                "value": "5,907,286"
                            },
                            {
                                "name": "nonce",
                                "type": "uint256",
                                "value": "1,200,427,683"
                            },
                            {
                                "name": "user",
                                "type": "address",
                                "value": "0xc53cfa092ab72c506573f3f92ae7703ba2568658"
                            },
                            {
                                "name": "v",
                                "type": "uint8",
                                "value": "28"
                            },
                            {
                                "name": "r",
                                "type": "bytes32",
                                "value": "0xe6117ff86f331b9d72ce11210a1fc8a8f589a248e4ceae7684a467971c397822"
                            },
                            {
                                "name": "s",
                                "type": "bytes32",
                                "value": "0x245973cc50b43492ef173a64bf0e62614c6e146f5d2d9b957982ad992b6095ad"
                            },
                            {
                                "name": "amount",
                                "type": "uint256",
                                "value": "13,000,000,000,000"
                            }
                        ],
                        "constructorArguments": "",
                        "name": "trade",
                        "returnParams": [],
                        "signature": "trade(address,uint256,address,uint256,uint256,uint256,address,uint8,bytes32,bytes32,uint256)"
                    },
                    "errorInfo": "",
                    "fromAddress": "0xe33f1860eb6b335f0f961c95952e29941d09b5f7",
                    "gasUsed": 122794,
                    "id": 0,
                    "methodDecoded": true,
                    "operation": "CALL",
                    "output": "",
                    "revert": false,
                    "revertMessage": "",
                    "selector": "0x0a19b14a",
                    "status": true,
                    "value": "0"
                },
                "nodeType": 0
            },
            "1": {
                "invocation": {
                    "address": "0x0000000000000000000000000000000000000002",
                    "callData": "0xcb00d4747a1fe03395095ce2a5cc68198fc01e6cbdffaf09b54f423f9bb1f856b22e47b200000000000000000000000000000000000000000000000000000bd2cc61d0000000000000000000000000000000000000000000000000000000000000000000000000000000000000000000000b159f9bb3000000000000000000000000000000000000000000000000000000000000005a235600000000000000000000000000000000000000000000000000000000478d12a3",
                    "decodedMethod": {
                        "callParams": [
                            {
                                "name": "data",
                                "type": "bytes",
                                "value": "0x8d12a197cb00d4747a1fe03395095ce2a5cc68198fc01e6cbdffaf09b54f423f9bb1f856b22e47b200000000000000000000000000000000000000000000000000000bd2cc61d0000000000000000000000000000000000000000000000000000000000000000000000000000000000000000000000b159f9bb3000000000000000000000000000000000000000000000000000000000000005a235600000000000000000000000000000000000000000000000000000000478d12a3"
                            }
                        ],
                        "constructorArguments": "",
                        "name": "sha256hash",
                        "returnParams": [
                            {
                                "name": "hash",
                                "type": "bytes32",
                                "value": "0x6398c5da57cf9d1f61fbf1f88cdd62649a11b536580d5c9847f1e288db6a4081"
                            }
                        ],
                        "signature": "sha256hash(bytes)"
                    },
                    "errorInfo": "",
                    "fromAddress": "0x8d12a197cb00d4747a1fe03395095ce2a5cc6819",
                    "gasUsed": 132,
                    "id": 1,
                    "methodDecoded": true,
                    "operation": "CALL",
                    "output": "0x6398c5da57cf9d1f61fbf1f88cdd62649a11b536580d5c9847f1e288db6a4081",
                    "revert": false,
                    "revertMessage": "",
                    "selector": "0x8d12a197",
                    "status": true,
                    "value": "0"
                },
                "nodeType": 0
            },
            "2": {
                "invocation": {
                    "address": "0x0000000000000000000000000000000000000001",
                    "callData": "0xeba749d86551fedd0e2b9194bd9f64c09b55b284d5682b983a6b8ebf000000000000000000000000000000000000000000000000000000000000001ce6117ff86f331b9d72ce11210a1fc8a8f589a248e4ceae7684a467971c397822245973cc50b43492ef173a64bf0e62614c6e146f5d2d9b957982ad992b6095ad",
                    "decodedMethod": {
                        "callParams": [
                            {
                                "name": "hash",
                                "type": "bytes32",
                                "value": "0x52df0e82eba749d86551fedd0e2b9194bd9f64c09b55b284d5682b983a6b8ebf"
                            },
                            {
                                "name": "v",
                                "type": "uint256",
                                "value": "28"
                            },
                            {
                                "name": "r",
                                "type": "bytes32",
                                "value": "0xe6117ff86f331b9d72ce11210a1fc8a8f589a248e4ceae7684a467971c397822"
                            },
                            {
                                "name": "s",
                                "type": "bytes32",
                                "value": "0x245973cc50b43492ef173a64bf0e62614c6e146f5d2d9b957982ad992b6095ad"
                            }
                        ],
                        "constructorArguments": "",
                        "name": "ecrecover",
                        "returnParams": [
                            {
                                "name": "",
                                "type": "address",
                                "value": "0xc53cfa092ab72c506573f3f92ae7703ba2568658"
                            }
                        ],
                        "signature": "ecrecover(bytes32,uint256,bytes32,bytes32)"
                    },
                    "errorInfo": "",
                    "fromAddress": "0x8d12a197cb00d4747a1fe03395095ce2a5cc6819",
                    "gasUsed": 3000,
                    "id": 2,
                    "methodDecoded": true,
                    "operation": "CALL",
                    "output": "0x000000000000000000000000c53cfa092ab72c506573f3f92ae7703ba2568658",
                    "revert": false,
                    "revertMessage": "",
                    "selector": "0x52df0e82",
                    "status": true,
                    "value": "0"
                },
                "nodeType": 0
            },
            "3": {
                "event": {
                    "contract": "0x8d12a197cb00d4747a1fe03395095ce2a5cc6819",
                    "decodedLog": {
                        "name": "Trade",
                        "params": [
                            {
                                "name": "tokenGet",
                                "type": "address",
                                "value": "0x8fc01e6cbdffaf09b54f423f9bb1f856b22e47b2"
                            },
                            {
                                "name": "amountGet",
                                "type": "uint256",
                                "value": "13,000,000,000,000"
                            },
                            {
                                "name": "tokenGive",
                                "type": "address",
                                "value": "0x0000000000000000000000000000000000000000"
                            },
                            {
                                "name": "amountGive",
                                "type": "uint256",
                                "value": "3,120,000,000,000,000"
                            },
                            {
                                "name": "get",
                                "type": "address",
                                "value": "0xc53cfa092ab72c506573f3f92ae7703ba2568658"
                            },
                            {
                                "name": "give",
                                "type": "address",
                                "value": "0xe33f1860eb6b335f0f961c95952e29941d09b5f7"
                            }
                        ],
                        "signature": "Trade(address,uint256,address,uint256,address,address)"
                    },
                    "id": 3,
                    "logData": "0x0000000000000000000000008fc01e6cbdffaf09b54f423f9bb1f856b22e47b200000000000000000000000000000000000000000000000000000bd2cc61d0000000000000000000000000000000000000000000000000000000000000000000000000000000000000000000000000000000000000000000000b159f9bb30000000000000000000000000000c53cfa092ab72c506573f3f92ae7703ba2568658000000000000000000000000e33f1860eb6b335f0f961c95952e29941d09b5f7",
                    "logDecoded": true,
                    "operation": "EVENT",
                    "revert": false,
                    "status": true,
                    "topics": [
                        "0x6effdda786735d5033bfad5f53e5131abcced9e52be6c507b62d639685fbed6d"
                    ]
                },
                "nodeType": 1
            }
        },
        "gasFlame": [
            {
                "children": [
                    {
                        "children": [
                            {
                                "children": [],
                                "depth": 0,
                                "name": "Initial Gas",
                                "value": 30808
                            },
                            {
                                "children": [
                                    {
                                        "children": [],
                                        "depth": 1,
                                        "name": "sha256hash",
                                        "value": 132
                                    },
                                    {
                                        "children": [],
                                        "depth": 1,
                                        "name": "ecrecover",
                                        "value": 3000
                                    }
                                ],
                                "depth": 0,
                                "name": "Executed Gas",
                                "value": 91986
                            }
                        ],
                        "depth": -1,
                        "name": "Actual Gas Used",
                        "value": 122794
                    },
                    {
                        "children": [],
                        "depth": -1,
                        "name": "Refunded Gas",
                        "value": 0
                    }
                ],
                "depth": -2,
                "name": "Total Gas",
                "value": 122794
            }
        ],
        "isConfirmed": true,
        "mainTrace": [
            {
                "children": [
                    {
                        "children": [
                            {
                                "children": [],
                                "depth": 1,
                                "id": 1,
                                "order": 1
                            },
                            {
                                "children": [],
                                "depth": 1,
                                "id": 2,
                                "order": 2
                            },
                            {
                                "children": [],
                                "depth": 1,
                                "id": 3,
                                "order": 3
                            }
                        ],
                        "depth": 0,
                        "id": 0,
                        "order": 0
                    }
                ],
                "depth": -1,
                "id": -1,
                "order": -1
            }
        ],
        "mainTraceNodeCount": 4,
        "parentIdMap": {
            "0": -1,
            "1": 0,
            "2": 0,
            "3": 0
        },
        "tidyTrace": [
            {
                "children": [
                    {
                        "children": [
                            {
                                "children": [],
                                "depth": 1,
                                "id": 1,
                                "order": 1
                            },
                            {
                                "children": [],
                                "depth": 1,
                                "id": 2,
                                "order": 2
                            },
                            {
                                "children": [],
                                "depth": 1,
                                "id": 3,
                                "order": 3
                            }
                        ],
                        "depth": 0,
                        "id": 0,
                        "order": 0
                    }
                ],
                "depth": -1,
                "id": -1,
                "order": -1
            }
        ],
        "tidyTraceNodeCount": 4
    },
    "state_change": {
        "stateChanges": [
            {
                "address": "0x8d12a197cb00d4747a1fe03395095ce2a5cc6819",
                "erc": "",
                "slots": [
                    {
                        "current": "0x0000000000000000000000000000000000000000000000000001599ba503c000",
                        "key": "0x91093efb4d83deebd067f3ec089a5e7fffa864f38d65cce2e1c0af3d8f7fcd31",
                        "prev": "0x000000000000000000000000000000000000000000000000000c6f3b40b6c000"
                    },
                    {
                        "current": "0x000000000000000000000000000000000000000000000000000b159f9bb30000",
                        "key": "0x614d5a7669767bbcdb4ca484681df3df01a332bc585dc6aab732c0b3eafb658f",
                        "prev": "0x0000000000000000000000000000000000000000000000000000000000000000"
                    },
                    {
                        "current": "0x00000000000000000000000000000000000000000000000000000bd2cc61d000",
                        "key": "0x1dc679526d2c9ffe14f1e576605269b42d0aaca5028f98ee4d5714715bf04403",
                        "prev": "0x0000000000000000000000000000000000000000000000000000000000000000"
                    },
                    {
                        "current": "0x00000000000000000000000000000000000000000000000000058988495efb6f",
                        "key": "0x3aec8533d9b31d6af5cacc264da944bfd2654fc36e5522cfec56267b162aefb2",
                        "prev": "0x000000000000000000000000000000000000000000000000000595642a55916f"
                    },
                    {
                        "current": "0x00000000000000000000000000000000000000000000000000000bd2cc61d000",
                        "key": "0xa3eb99ab16bb3550a1f242adfb43fb0752fa0eeca63909f82c74b6db81fefe20",
                        "prev": "0x0000000000000000000000000000000000000000000000000000000000000000"
                    },
                    {
                        "current": "0x00000000000000000000000000000000000000000000000000002dc6838c5dfc",
                        "key": "0x94c085f1e96651af762a7d0b0cf69e36ae55c3dabc38c17be6d1781e1b54f701",
                        "prev": "0x00000000000000000000000000000000000000000000000000002dbd6ef797fc"
                    }
                ],
                "storageVariables": []
            }
        ]
    }
}