{
    "balance_change": {
        "balanceChanges": [
            {
                "account": "0xc5399cfc64433b67edf0145fc82823e5798168ef",
                "assets": [
                    {
                        "address": "0xeeeeeeeeeeeeeeeeeeeeeeeeeeeeeeeeeeeeeeee",
                        "amount": "0.013",
                        "iconUrl": "https://assets.blocksec.com/image/1663669189317-3.png",
                        "isERC1155": false,
                        "isERC721": false,
                        "sign": false,
                        "value": "20.703409999999999173"
                    },
                    {
                        "address": "0x7a2631aa3590fd6361d2d7afb51d5fe9d33ab2ec",
                        "amount": "80,453.016641319",
                        "iconUrl": "",
                        "isERC1155": false,
                        "isERC721": false,
                        "sign": true,
                        "value": "19.69591536"
                    }
                ]
            },
            {
                "account": "0x7a2631aa3590fd6361d2d7afb51d5fe9d33ab2ec",
                "assets": [
                    {
                        "address": "0x7a2631aa3590fd6361d2d7afb51d5fe9d33ab2ec",
                        "amount": "1,641.8982986",
                        "iconUrl": "",
                        "isERC1155": false,
                        "isERC721": false,
                        "sign": true,
                        "value": "0.40231002"
                    }
                ]
            },
            {
                "account": "0xc02aaa39b223fe8d0a0e5c4f27ead9083c756cc2",
                "assets": [
                    {
                        "address": "0xeeeeeeeeeeeeeeeeeeeeeeeeeeeeeeeeeeeeeeee",
                        "amount": "0.01288625",
                        "iconUrl": "https://assets.blocksec.com/image/1663669189317-3.png",
                        "isERC1155": false,
                        "isERC721": false,
                        "sign": true,
                        "value": "20.52225516249999918"
                    },
                    {
                        "address": "0xc02aaa39b223fe8d0a0e5c4f27ead9083c756cc2",
                        "amount": "0.01288625",
                        "iconUrl": "https://assets.blocksec.com/icon/f1cb2d02c471d545bbc7722daf3277fd852d98e63d118771af7047bd8256c516.png",
                        "isERC1155": false,
                        "isERC721": false,
                        "sign": false,
                        "value": "20.52225516249999918"
                    }
                ]
            },
            {
                "account": "0xcdb8cf0d65cbdc55e8bc2fd16ceaf72111d19d2a",
                "assets": [
                    {
                        "address": "0x7a2631aa3590fd6361d2d7afb51d5fe9d33ab2ec",
                        "amount": "82,094.914939919",
                        "iconUrl": "",
                        "isERC1155": false,
                        "isERC721": false,
                        "sign": false,
                        "value": "20.13356636"
                    },
                    {
                        "address": "0xc02aaa39b223fe8d0a0e5c4f27ead9083c756cc2",
                        "amount": "0.01288625",
                        "iconUrl": "https://assets.blocksec.com/icon/f1cb2d02c471d545bbc7722daf3277fd852d98e63d118771af7047bd8256c516.png",
                        "isERC1155": false,
                        "isERC721": false,
                        "sign": true,
                        "value": "20.52225516249999918"
                    }
                ]
            },
            {
                "account": "0xdc838074d95c89a5c2cbf26984fedc9160b61620",
                "assets": [
                    {
                        "address": "0xeeeeeeeeeeeeeeeeeeeeeeeeeeeeeeeeeeeeeeee",
                        "amount": "0.00011375",
                        "iconUrl": "https://assets.blocksec.com/image/1663669189317-3.png",
                        "isERC1155": false,
                        "isERC721": false,
                        "sign": true,
                        "value": "0.18115483749999999277"
                    }
                ]
            }
        ]
    },
    "profile": {
        "basic_info": {
            "baseFee": "17.278079652",
            "blockNumber": 18213546,
            "callData": "0x5f57552900000000000000000000000000000000000000000000000000000000000000800000000000000000000000000000000000000000000000000000000000000000000000000000000000000000000000000000000000000000002e2f6e5e14800000000000000000000000000000000000000000000000000000000000000000c000000000000000000000000000000000000000000000000000000000000000147061726173776170563546656544796e616d6963000000000000000000000000000000000000000000000000000000000000000000000000000000000000022000000000000000000000000000000000000000000000000000000000000000000000000000000000000000007a2631aa3590fd6361d2d7afb51d5fe9d33ab2ec000000000000000000000000000000000000000000000000002dc7f9e1bca4000000000000000000000000000000000000000000000000000000492bed7a5e610000000000000000000000000000000000000000000000000000000000000120000000000000000000000000000000000000000000000000000067747c57dc00000000000000000000000000dc838074d95c89a5c2cbf26984fedc9160b61620000000000000000000000000000000000000000000000000000000000000000000000000000000000000000000000000000000000000000000000000000000e40b86a4c1000000000000000000000000eeeeeeeeeeeeeeeeeeeeeeeeeeeeeeeeeeeeeeee000000000000000000000000000000000000000000000000002dc7f9e1bca4000000000000000000000000000000000000000000000000000000492bed7a5e61000000000000000000000000c02aaa39b223fe8d0a0e5c4f27ead9083c756cc200000000000000000000000000000000000000000000000000000000000000a00000000000000000000000000000000000000000000000000000000000000001000000000000000000004de5cdb8cf0d65cbdc55e8bc2fd16ceaf72111d19d2a00000000000000000000000000000000000000000000000000000000002e",
            "debugEnable": true,
            "errorInfo": "",
            "eventCount": 8,
            "feeRecipient": "0x95222290dd7278aa3ddd389cc1e1d165cc4bafe5",
            "formatValue": "0.013",
            "gasLimit": 300057,
            "gasPrice": "17.578079652",
            "gasUsed": 234953,
            "intTxnCount": 14,
            "internalRevert": false,
            "internalRevertMessage": "",
            "isContractCreation": false,
            "isFlashloan": false,
            "maxFee": "30.420861144",
            "nonce": 1806,
            "overwritedBlockNumber": -1,
            "priorityFee": "0.3",
            "receiver": "0x881d40237659c251811cec9c364ef91dc08d300c",
            "revertMessage": "",
            "sender": "0xc5399cfc64433b67edf0145fc82823e5798168ef",
            "simulationEnable": true,
            "sourceTxnHash": "0xced1cc0326012acda2d59696294039a817a17340f6e4c7c5524b89f2e659b6f1",
            "status": true,
            "timestamp": "2023-09-25T14:58:47Z",
            "transactionFee": "0.004130022548476356",
            "txnHash": "0xced1cc0326012acda2d59696294039a817a17340f6e4c7c5524b89f2e659b6f1",
            "txnIndex": 100,
            "type": 2,
            "value": "13000000000000000"
        },
        "fund_flow": [
            {
                "amount": "0.013",
                "from": "0xc5399cfc64433b67edf0145fc82823e5798168ef",
                "id": 1,
                "isERC1155": false,
                "isERC721": false,
                "isReverted": false,
                "order": 1,
                "to": "0x881d40237659c251811cec9c364ef91dc08d300c",
                "token": "0xeeeeeeeeeeeeeeeeeeeeeeeeeeeeeeeeeeeeeeee"
            },
            {
                "amount": "0.013",
                "from": "0x881d40237659c251811cec9c364ef91dc08d300c",
                "id": 2,
                "isERC1155": false,
                "isERC721": false,
                "isReverted": false,
                "order": 2,
                "to": "0x74de5d4fcbf63e00296fd95d33236b9794016631",
                "token": "0xeeeeeeeeeeeeeeeeeeeeeeeeeeeeeeeeeeeeeeee"
            },
            {
                "amount": "0.01288625",
                "from": "0x74de5d4fcbf63e00296fd95d33236b9794016631",
                "id": 3,
                "isERC1155": false,
                "isERC721": false,
                "isReverted": false,
                "order": 3,
                "to": "0xdef171fe48cf0115b1d80b88dc8eab59176fee57",
                "token": "0xeeeeeeeeeeeeeeeeeeeeeeeeeeeeeeeeeeeeeeee"
            },
            {
                "amount": "0.01288625",
                "from": "0xdef171fe48cf0115b1d80b88dc8eab59176fee57",
                "id": 4,
                "isERC1155": false,
                "isERC721": false,
                "isReverted": false,
                "order": 4,
                "to": "0xc02aaa39b223fe8d0a0e5c4f27ead9083c756cc2",
                "token": "0xeeeeeeeeeeeeeeeeeeeeeeeeeeeeeeeeeeeeeeee"
            },
            {
                "amount": "0.01288625",
                "from": "0xc02aaa39b223fe8d0a0e5c4f27ead9083c756cc2",
                "id": 5,
                "isERC1155": false,
                "isERC721": false,
                "isReverted": false,
                "order": 5,
                "to": "0xdef171fe48cf0115b1d80b88dc8eab59176fee57",
                "token": "0xc02aaa39b223fe8d0a0e5c4f27ead9083c756cc2"
            },
            {
                "amount": "0.01288625",
                "from": "0xdef171fe48cf0115b1d80b88dc8eab59176fee57",
                "id": 6,
                "isERC1155": false,
                "isERC721": false,
                "isReverted": false,
                "order": 6,
                "to": "0xcdb8cf0d65cbdc55e8bc2fd16ceaf72111d19d2a",
                "token": "0xc02aaa39b223fe8d0a0e5c4f27ead9083c756cc2"
            },
            {
                "amount": "1,641.8982986",
                "from": "0xcdb8cf0d65cbdc55e8bc2fd16ceaf72111d19d2a",
                "id": 7,
                "isERC1155": false,
                "isERC721": false,
                "isReverted": false,
                "order": 7,
                "to": "0x7a2631aa3590fd6361d2d7afb51d5fe9d33ab2ec",
                "token": "0x7a2631aa3590fd6361d2d7afb51d5fe9d33ab2ec"
            },
            {
                "amount": "80,453.016641319",
                "from": "0xcdb8cf0d65cbdc55e8bc2fd16ceaf72111d19d2a",
                "id": 8,
                "isERC1155": false,
                "isERC721": false,
                "isReverted": false,
                "order": 8,
                "to": "0x74de5d4fcbf63e00296fd95d33236b9794016631",
                "token": "0x7a2631aa3590fd6361d2d7afb51d5fe9d33ab2ec"
            },
            {
                "amount": "0.00011375",
                "from": "0x74de5d4fcbf63e00296fd95d33236b9794016631",
                "id": 9,
                "isERC1155": false,
                "isERC721": false,
                "isReverted": false,
                "order": 9,
                "to": "0xdc838074d95c89a5c2cbf26984fedc9160b61620",
                "token": "0xeeeeeeeeeeeeeeeeeeeeeeeeeeeeeeeeeeeeeeee"
            },
            {
                "amount": "80,453.016641319",
                "from": "0x74de5d4fcbf63e00296fd95d33236b9794016631",
                "id": 10,
                "isERC1155": false,
                "isERC721": false,
                "isReverted": false,
                "order": 10,
                "to": "0xc5399cfc64433b67edf0145fc82823e5798168ef",
                "token": "0x7a2631aa3590fd6361d2d7afb51d5fe9d33ab2ec"
            }
        ],
        "token_infos": [
            {
                "address": "0x7a2631aa3590fd6361d2d7afb51d5fe9d33ab2ec",
                "decimals": 9
            },
            {
                "address": "0xc02aaa39b223fe8d0a0e5c4f27ead9083c756cc2",
                "decimals": 18
            },
            {
                "address": "0xeeeeeeeeeeeeeeeeeeeeeeeeeeeeeeeeeeeeeeee",
                "decimals": 18
            }
        ]
    },
    "address_label": {
        "labels": [
            {
                "address": "0x74de5d4fcbf63e00296fd95d33236b9794016631",
                "label": "MetaMask: Swaps Spender"
            },
            {
                "address": "0x881d40237659c251811cec9c364ef91dc08d300c",
                "label": "Metamask: Swap Router"
            },
            {
                "address": "0xc02aaa39b223fe8d0a0e5c4f27ead9083c756cc2",
                "label": "Wrapped Ether (WETH)"
            },
            {
                "address": "0xeeeeeeeeeeeeeeeeeeeeeeeeeeeeeeeeeeeeeeee",
                "label": "Ether"
            },
            {
                "address": "0xcdb8cf0d65cbdc55e8bc2fd16ceaf72111d19d2a",
                "label": "Uniswap V2: CHECKDM"
            },
            {
                "address": "0xdc838074d95c89a5c2cbf26984fedc9160b61620",
                "label": "FeeDistributor"
            },
            {
                "address": "0x4ff0dec5f9a763aa1e5c2a962aa6f4edfee4f9ea",
                "label": "NewUniswapV2Router"
            },
            {
                "address": "0x0000000000000000000000000000000000000001",
                "label": "Precompiled"
            },
            {
                "address": "0x0000000000000000000000000000000000000002",
                "label": "Precompiled"
            },
            {
                "address": "0xdef171fe48cf0115b1d80b88dc8eab59176fee57",
                "label": "Paraswap v5: Augustus Swapper Mainnet"
            },
            {
                "address": "0x0000000000000000000000000000000000000000",
                "label": "Null Address"
            },
            {
                "address": "0x0000000000000000000000000000000000000003",
                "label": "Precompiled"
            },
            {
                "address": "0x0000000000000000000000000000000000000004",
                "label": "Precompiled"
            },
            {
                "address": "0x7a2631aa3590fd6361d2d7afb51d5fe9d33ab2ec",
                "label": "CHECK DM SER (CHECKDM)"
            }
        ]
    },
    "trace": {
        "accountLabels": null,
        "dataMap": {
            "-1": {
                "invocation": {
                    "address": "0xc5399cfc64433b67edf0145fc82823e5798168ef",
                    "callData": "",
                    "decodedMethod": null,
                    "errorInfo": "",
                    "fromAddress": "",
                    "gasUsed": 0,
                    "id": -1,
                    "methodDecoded": false,
                    "operation": "",
                    "output": "",
                    "revert": false,
                    "revertMessage": "",
                    "selector": "",
                    "status": false,
                    "value": ""
                },
                "nodeType": 0
            },
            "0": {
                "invocation": {
                    "address": "0x881d40237659c251811cec9c364ef91dc08d300c",
                    "callData": "0x00000000000000000000000000000000000000000000000000000000000000800000000000000000000000000000000000000000000000000000000000000000000000000000000000000000000000000000000000000000002e2f6e5e14800000000000000000000000000000000000000000000000000000000000000000c000000000000000000000000000000000000000000000000000000000000000147061726173776170563546656544796e616d6963000000000000000000000000000000000000000000000000000000000000000000000000000000000000022000000000000000000000000000000000000000000000000000000000000000000000000000000000000000007a2631aa3590fd6361d2d7afb51d5fe9d33ab2ec000000000000000000000000000000000000000000000000002dc7f9e1bca4000000000000000000000000000000000000000000000000000000492bed7a5e610000000000000000000000000000000000000000000000000000000000000120000000000000000000000000000000000000000000000000000067747c57dc00000000000000000000000000dc838074d95c89a5c2cbf26984fedc9160b61620000000000000000000000000000000000000000000000000000000000000000000000000000000000000000000000000000000000000000000000000000000e40b86a4c1000000000000000000000000eeeeeeeeeeeeeeeeeeeeeeeeeeeeeeeeeeeeeeee000000000000000000000000000000000000000000000000002dc7f9e1bca4000000000000000000000000000000000000000000000000000000492bed7a5e61000000000000000000000000c02aaa39b223fe8d0a0e5c4f27ead9083c756cc200000000000000000000000000000000000000000000000000000000000000a00000000000000000000000000000000000000000000000000000000000000001000000000000000000004de5cdb8cf0d65cbdc55e8bc2fd16ceaf72111d19d2a00000000000000000000000000000000000000000000000000000000002e",
                    "decodedMethod": {
                        "callParams": [
                            {
                                "name": "aggregatorId",
                                "type": "string",
                                "value": "paraswapV5FeeDynamic"
                            },
                            {
                                "name": "tokenFrom",
                                "type": "address",
                                "value": "0x0000000000000000000000000000000000000000"
                            },
                            {
                                "name": "amount",
                                "type": "uint256",
                                "value": "13,000,000,000,000,000"
                            },
                            {
                                "name": "data",
                                "type": "bytes",
                                "value": "0x00000000000000000000000000000000000000000000000000000000000000000000000000000000000000007a2631aa3590fd6361d2d7afb51d5fe9d33ab2ec000000000000000000000000000000000000000000000000002dc7f9e1bca4000000000000000000000000000000000000000000000000000000492bed7a5e610000000000000000000000000000000000000000000000000000000000000120000000000000000000000000000000000000000000000000000067747c57dc00000000000000000000000000dc838074d95c89a5c2cbf26984fedc9160b61620000000000000000000000000000000000000000000000000000000000000000000000000000000000000000000000000000000000000000000000000000000e40b86a4c1000000000000000000000000eeeeeeeeeeeeeeeeeeeeeeeeeeeeeeeeeeeeeeee000000000000000000000000000000000000000000000000002dc7f9e1bca4000000000000000000000000000000000000000000000000000000492bed7a5e61000000000000000000000000c02aaa39b223fe8d0a0e5c4f27ead9083c756cc200000000000000000000000000000000000000000000000000000000000000a00000000000000000000000000000000000000000000000000000000000000001000000000000000000004de5cdb8cf0d65cbdc55e8bc2fd16ceaf72111d19d2a00000000000000000000000000000000000000000000000000000000"
                            }
                        ],
                        "constructorArguments": "",
                        "name": "swap",
                        "returnParams": [],
                        "signature": "swap(string,address,uint256,bytes)"
                    },
                    "errorInfo": "",
                    "fromAddress": "0xc5399cfc64433b67edf0145fc82823e5798168ef",
                    "gasUsed": 234953,
                    "id": 0,
                    "methodDecoded": true,
                    "operation": "CALL",
                    "output": "",
                    "revert": false,
                    "revertMessage": "",
                    "selector": "0x5f575529",
                    "status": true,
                    "value": "0.013"
                },
                "nodeType": 0
            },
            "1": {
                "invocation": {
                    "address": "0x74de5d4fcbf63e00296fd95d33236b9794016631",
                    "callData": "0x000000000000000000000000da6f9b1feded6a2f26a7869b06254adfe7e207cd0000000000000000000000000000000000000000000000000000000000000040000000000000000000000000000000000000000000000000000000000000024492f5f037000000000000000000000000c5399cfc64433b67edf0145fc82823e5798168ef00000000000000000000000000000000000000000000000000000000000000000000000000000000000000007a2631aa3590fd6361d2d7afb51d5fe9d33ab2ec000000000000000000000000000000000000000000000000002dc7f9e1bca4000000000000000000000000000000000000000000000000000000492bed7a5e610000000000000000000000000000000000000000000000000000000000000120000000000000000000000000000000000000000000000000000067747c57dc00000000000000000000000000dc838074d95c89a5c2cbf26984fedc9160b61620000000000000000000000000000000000000000000000000000000000000000000000000000000000000000000000000000000000000000000000000000000e40b86a4c1000000000000000000000000eeeeeeeeeeeeeeeeeeeeeeeeeeeeeeeeeeeeeeee000000000000000000000000000000000000000000000000002dc7f9e1bca4000000000000000000000000000000000000000000000000000000492bed7a5e61000000000000000000000000c02aaa39b223fe8d0a0e5c4f27ead9083c756cc200000000000000000000000000000000000000000000000000000000000000a00000000000000000000000000000000000000000000000000000000000000001000000000000000000004de5cdb8cf0d65cbdc55e8bc2fd16ceaf72111d19d2a0000000000000000000000000000000000000000000000000000000000000000000000000000000000000000000000000000000000000000",
                    "decodedMethod": {
                        "callParams": [
                            {
                                "name": "adapter",
                                "type": "address",
                                "value": "0xda6f9b1feded6a2f26a7869b06254adfe7e207cd"
                            },
                            {
                                "name": "data",
                                "type": "bytes",
                                "value": "0x92f5f037000000000000000000000000c5399cfc64433b67edf0145fc82823e5798168ef00000000000000000000000000000000000000000000000000000000000000000000000000000000000000007a2631aa3590fd6361d2d7afb51d5fe9d33ab2ec000000000000000000000000000000000000000000000000002dc7f9e1bca4000000000000000000000000000000000000000000000000000000492bed7a5e610000000000000000000000000000000000000000000000000000000000000120000000000000000000000000000000000000000000000000000067747c57dc00000000000000000000000000dc838074d95c89a5c2cbf26984fedc9160b61620000000000000000000000000000000000000000000000000000000000000000000000000000000000000000000000000000000000000000000000000000000e40b86a4c1000000000000000000000000eeeeeeeeeeeeeeeeeeeeeeeeeeeeeeeeeeeeeeee000000000000000000000000000000000000000000000000002dc7f9e1bca4000000000000000000000000000000000000000000000000000000492bed7a5e61000000000000000000000000c02aaa39b223fe8d0a0e5c4f27ead9083c756cc200000000000000000000000000000000000000000000000000000000000000a00000000000000000000000000000000000000000000000000000000000000001000000000000000000004de5cdb8cf0d65cbdc55e8bc2fd16ceaf72111d19d2a00000000000000000000000000000000000000000000000000000000"
                            }
                        ],
                        "constructorArguments": "",
                        "name": "swap",
                        "returnParams": [],
                        "signature": "swap(address,bytes)"
                    },
                    "errorInfo": "",
                    "fromAddress": "0x881d40237659c251811cec9c364ef91dc08d300c",
                    "gasUsed": 228286,
                    "id": 1,
                    "methodDecoded": true,
                    "operation": "CALL",
                    "output": "",
                    "revert": false,
                    "revertMessage": "",
                    "selector": "0xe3547335",
                    "status": true,
                    "value": "0.013"
                },
                "nodeType": 0
            },
            "10": {
                "invocation": {
                    "address": "0xcdb8cf0d65cbdc55e8bc2fd16ceaf72111d19d2a",
                    "callData": "0x00000000000000000000000000000000000000000000000000004aaa363e2c0f000000000000000000000000000000000000000000000000000000000000000000000000000000000000000074de5d4fcbf63e00296fd95d33236b979401663100000000000000000000000000000000000000000000000000000000000000800000000000000000000000000000000000000000000000000000000000000000",
                    "decodedMethod": {
                        "callParams": [
                            {
                                "name": "amount0Out",
                                "type": "uint256",
                                "value": "82,094,914,939,919"
                            },
                            {
                                "name": "amount1Out",
                                "type": "uint256",
                                "value": "0"
                            },
                            {
                                "name": "to",
                                "type": "address",
                                "value": "0x74de5d4fcbf63e00296fd95d33236b9794016631"
                            },
                            {
                                "name": "data",
                                "type": "bytes",
                                "value": "0x"
                            }
                        ],
                        "constructorArguments": "",
                        "name": "swap",
                        "returnParams": [],
                        "signature": "swap(uint256,uint256,address,bytes)"
                    },
                    "errorInfo": "",
                    "fromAddress": "0xdef171fe48cf0115b1d80b88dc8eab59176fee57",
                    "gasUsed": 104854,
                    "id": 10,
                    "methodDecoded": true,
                    "operation": "CALL",
                    "output": "",
                    "revert": false,
                    "revertMessage": "",
                    "selector": "0x022c0d9f",
                    "status": true,
                    "value": "0"
                },
                "nodeType": 0
            },
            "11": {
                "invocation": {
                    "address": "0x7a2631aa3590fd6361d2d7afb51d5fe9d33ab2ec",
                    "callData": "0x00000000000000000000000074de5d4fcbf63e00296fd95d33236b979401663100000000000000000000000000000000000000000000000000004aaa363e2c0f",
                    "decodedMethod": {
                        "callParams": [
                            {
                                "name": "recipient",
                                "type": "address",
                                "value": "0x74de5d4fcbf63e00296fd95d33236b9794016631"
                            },
                            {
                                "decimalAvailable": true,
                                "name": "amount",
                                "type": "uint256",
                                "value": "82,094,914,939,919"
                            }
                        ],
                        "constructorArguments": "",
                        "name": "transfer",
                        "returnParams": [
                            {
                                "name": "",
                                "type": "bool",
                                "value": true
                            }
                        ],
                        "signature": "transfer(address,uint256)"
                    },
                    "errorInfo": "",
                    "fromAddress": "0xcdb8cf0d65cbdc55e8bc2fd16ceaf72111d19d2a",
                    "gasUsed": 69877,
                    "id": 11,
                    "methodDecoded": true,
                    "operation": "CALL",
                    "output": "0x0000000000000000000000000000000000000000000000000000000000000001",
                    "revert": false,
                    "revertMessage": "",
                    "selector": "0xa9059cbb",
                    "status": true,
                    "value": "0"
                },
                "nodeType": 0
            },
            "12": {
                "event": {
                    "contract": "0x7a2631aa3590fd6361d2d7afb51d5fe9d33ab2ec",
                    "decodedLog": {
                        "name": "Transfer",
                        "params": [
                            {
                                "name": "from",
                                "type": "address",
                                "value": "0xcdb8cf0d65cbdc55e8bc2fd16ceaf72111d19d2a"
                            },
                            {
                                "name": "to",
                                "type": "address",
                                "value": "0x7a2631aa3590fd6361d2d7afb51d5fe9d33ab2ec"
                            },
                            {
                                "decimalAvailable": true,
                                "name": "value",
                                "type": "uint256",
                                "value": "1,641,898,298,600"
                            }
                        ],
                        "signature": "Transfer(address,address,uint256)"
                    },
                    "id": 12,
                    "logData": "0x0000000000000000000000000000000000000000000000000000017e48c3cce8",
                    "logDecoded": true,
                    "operation": "EVENT",
                    "revert": false,
                    "status": true,
                    "topics": [
                        "0xddf252ad1be2c89b69c2b068fc378daa952ba7f163c4a11628f55a4df523b3ef",
                        "0x000000000000000000000000cdb8cf0d65cbdc55e8bc2fd16ceaf72111d19d2a",
                        "0x0000000000000000000000007a2631aa3590fd6361d2d7afb51d5fe9d33ab2ec"
                    ]
                },
                "nodeType": 1
            },
            "13": {
                "event": {
                    "contract": "0x7a2631aa3590fd6361d2d7afb51d5fe9d33ab2ec",
                    "decodedLog": {
                        "name": "Transfer",
                        "params": [
                            {
                                "name": "from",
                                "type": "address",
                                "value": "0xcdb8cf0d65cbdc55e8bc2fd16ceaf72111d19d2a"
                            },
                            {
                                "name": "to",
                                "type": "address",
                                "value": "0x74de5d4fcbf63e00296fd95d33236b9794016631"
                            },
                            {
                                "decimalAvailable": true,
                                "name": "value",
                                "type": "uint256",
                                "value": "80,453,016,641,319"
                            }
                        ],
                        "signature": "Transfer(address,address,uint256)"
                    },
                    "id": 13,
                    "logData": "0x0000000000000000000000000000000000000000000000000000492bed7a5f27",
                    "logDecoded": true,
                    "operation": "EVENT",
                    "revert": false,
                    "status": true,
                    "topics": [
                        "0xddf252ad1be2c89b69c2b068fc378daa952ba7f163c4a11628f55a4df523b3ef",
                        "0x000000000000000000000000cdb8cf0d65cbdc55e8bc2fd16ceaf72111d19d2a",
                        "0x00000000000000000000000074de5d4fcbf63e00296fd95d33236b9794016631"
                    ]
                },
                "nodeType": 1
            },
            "14": {
                "invocation": {
                    "address": "0x7a2631aa3590fd6361d2d7afb51d5fe9d33ab2ec",
                    "callData": "0x000000000000000000000000cdb8cf0d65cbdc55e8bc2fd16ceaf72111d19d2a",
                    "decodedMethod": {
                        "callParams": [
                            {
                                "name": "account",
                                "type": "address",
                                "value": "0xcdb8cf0d65cbdc55e8bc2fd16ceaf72111d19d2a"
                            }
                        ],
                        "constructorArguments": "",
                        "name": "balanceOf",
                        "returnParams": [
                            {
                                "decimalAvailable": true,
                                "name": "",
                                "type": "uint256",
                                "value": "93,154,481,849,973,575"
                            }
                        ],
                        "signature": "balanceOf(address)"
                    },
                    "errorInfo": "",
                    "fromAddress": "0xcdb8cf0d65cbdc55e8bc2fd16ceaf72111d19d2a",
                    "gasUsed": 620,
                    "id": 14,
                    "methodDecoded": true,
                    "operation": "STATICCALL",
                    "output": "0x000000000000000000000000000000000000000000000000014af381f7e73b47",
                    "revert": false,
                    "revertMessage": "",
                    "selector": "0x70a08231",
                    "status": true,
                    "value": "0"
                },
                "nodeType": 0
            },
            "15": {
                "invocation": {
                    "address": "0xc02aaa39b223fe8d0a0e5c4f27ead9083c756cc2",
                    "callData": "0x000000000000000000000000cdb8cf0d65cbdc55e8bc2fd16ceaf72111d19d2a",
                    "decodedMethod": {
                        "callParams": [
                            {
                                "name": "",
                                "type": "address",
                                "value": "0xcdb8cf0d65cbdc55e8bc2fd16ceaf72111d19d2a"
                            }
                        ],
                        "constructorArguments": "",
                        "name": "balanceOf",
                        "returnParams": [
                            {
                                "decimalAvailable": true,
                                "name": "",
                                "type": "uint256",
                                "value": "14,591,264,299,235,824,497"
                            }
                        ],
                        "signature": "balanceOf(address)"
                    },
                    "errorInfo": "",
                    "fromAddress": "0xcdb8cf0d65cbdc55e8bc2fd16ceaf72111d19d2a",
                    "gasUsed": 534,
                    "id": 15,
                    "methodDecoded": true,
                    "operation": "STATICCALL",
                    "output": "0x000000000000000000000000000000000000000000000000ca7e959283ca5371",
                    "revert": false,
                    "revertMessage": "",
                    "selector": "0x70a08231",
                    "status": true,
                    "value": "0"
                },
                "nodeType": 0
            },
            "16": {
                "event": {
                    "contract": "0xcdb8cf0d65cbdc55e8bc2fd16ceaf72111d19d2a",
                    "decodedLog": {
                        "name": "Sync",
                        "params": [
                            {
                                "name": "reserve0",
                                "type": "uint112",
                                "value": "93,154,481,849,973,575"
                            },
                            {
                                "name": "reserve1",
                                "type": "uint112",
                                "value": "14,591,264,299,235,824,497"
                            }
                        ],
                        "signature": "Sync(uint112,uint112)"
                    },
                    "id": 16,
                    "logData": "0x000000000000000000000000000000000000000000000000014af381f7e73b47000000000000000000000000000000000000000000000000ca7e959283ca5371",
                    "logDecoded": true,
                    "operation": "EVENT",
                    "revert": false,
                    "status": true,
                    "topics": [
                        "0x1c411e9a96e071241c2f21f7726b17ae89e3cab4c78be50e062b03a9fffbbad1"
                    ]
                },
                "nodeType": 1
            },
            "17": {
                "event": {
                    "contract": "0xcdb8cf0d65cbdc55e8bc2fd16ceaf72111d19d2a",
                    "decodedLog": {
                        "name": "Swap",
                        "params": [
                            {
                                "name": "sender",
                                "type": "address",
                                "value": "0xdef171fe48cf0115b1d80b88dc8eab59176fee57"
                            },
                            {
                                "name": "to",
                                "type": "address",
                                "value": "0x74de5d4fcbf63e00296fd95d33236b9794016631"
                            },
                            {
                                "name": "amount0In",
                                "type": "uint256",
                                "value": "0"
                            },
                            {
                                "name": "amount1In",
                                "type": "uint256",
                                "value": "12,886,250,000,000,000"
                            },
                            {
                                "name": "amount0Out",
                                "type": "uint256",
                                "value": "82,094,914,939,919"
                            },
                            {
                                "name": "amount1Out",
                                "type": "uint256",
                                "value": "0"
                            }
                        ],
                        "signature": "Swap(address,uint256,uint256,uint256,uint256,address)"
                    },
                    "id": 17,
                    "logData": "0x0000000000000000000000000000000000000000000000000000000000000000000000000000000000000000000000000000000000000000002dc7f9e1bca40000000000000000000000000000000000000000000000000000004aaa363e2c0f0000000000000000000000000000000000000000000000000000000000000000",
                    "logDecoded": true,
                    "operation": "EVENT",
                    "revert": false,
                    "status": true,
                    "topics": [
                        "0xd78ad95fa46c994b6551d0da85fc275fe613ce37657fb8d5e3d130840159d822",
                        "0x000000000000000000000000def171fe48cf0115b1d80b88dc8eab59176fee57",
                        "0x00000000000000000000000074de5d4fcbf63e00296fd95d33236b9794016631"
                    ]
                },
                "nodeType": 1
            },
            "18": {
                "invocation": {
                    "address": "0xdc838074d95c89a5c2cbf26984fedc9160b61620",
                    "callData": "0x",
                    "decodedMethod": null,
                    "errorInfo": "",
                    "fromAddress": "0x74de5d4fcbf63e00296fd95d33236b9794016631",
                    "gasUsed": 40,
                    "id": 18,
                    "methodDecoded": false,
                    "operation": "CALL",
                    "output": "",
                    "revert": false,
                    "revertMessage": "",
                    "selector": "fallback",
                    "status": true,
                    "value": "0.00011375"
                },
                "nodeType": 0
            },
            "19": {
                "invocation": {
                    "address": "0x7a2631aa3590fd6361d2d7afb51d5fe9d33ab2ec",
                    "callData": "0x00000000000000000000000074de5d4fcbf63e00296fd95d33236b9794016631",
                    "decodedMethod": {
                        "callParams": [
                            {
                                "name": "account",
                                "type": "address",
                                "value": "0x74de5d4fcbf63e00296fd95d33236b9794016631"
                            }
                        ],
                        "constructorArguments": "",
                        "name": "balanceOf",
                        "returnParams": [
                            {
                                "decimalAvailable": true,
                                "name": "",
                                "type": "uint256",
                                "value": "80,453,016,641,319"
                            }
                        ],
                        "signature": "balanceOf(address)"
                    },
                    "errorInfo": "",
                    "fromAddress": "0x74de5d4fcbf63e00296fd95d33236b9794016631",
                    "gasUsed": 620,
                    "id": 19,
                    "methodDecoded": true,
                    "operation": "STATICCALL",
                    "output": "0x0000000000000000000000000000000000000000000000000000492bed7a5f27",
                    "revert": false,
                    "revertMessage": "",
                    "selector": "0x70a08231",
                    "status": true,
                    "value": "0"
                },
                "nodeType": 0
            },
            "2": {
                "invocation": {
                    "address": "0xda6f9b1feded6a2f26a7869b06254adfe7e207cd",
                    "callData": "0x000000000000000000000000c5399cfc64433b67edf0145fc82823e5798168ef00000000000000000000000000000000000000000000000000000000000000000000000000000000000000007a2631aa3590fd6361d2d7afb51d5fe9d33ab2ec000000000000000000000000000000000000000000000000002dc7f9e1bca4000000000000000000000000000000000000000000000000000000492bed7a5e610000000000000000000000000000000000000000000000000000000000000120000000000000000000000000000000000000000000000000000067747c57dc00000000000000000000000000dc838074d95c89a5c2cbf26984fedc9160b61620000000000000000000000000000000000000000000000000000000000000000000000000000000000000000000000000000000000000000000000000000000e40b86a4c1000000000000000000000000eeeeeeeeeeeeeeeeeeeeeeeeeeeeeeeeeeeeeeee000000000000000000000000000000000000000000000000002dc7f9e1bca4000000000000000000000000000000000000000000000000000000492bed7a5e61000000000000000000000000c02aaa39b223fe8d0a0e5c4f27ead9083c756cc200000000000000000000000000000000000000000000000000000000000000a00000000000000000000000000000000000000000000000000000000000000001000000000000000000004de5cdb8cf0d65cbdc55e8bc2fd16ceaf72111d19d2a00000000000000000000000000000000000000000000000000000000",
                    "decodedMethod": null,
                    "errorInfo": "",
                    "fromAddress": "0x74de5d4fcbf63e00296fd95d33236b9794016631",
                    "gasUsed": 223074,
                    "id": 2,
                    "methodDecoded": false,
                    "operation": "DELEGATECALL",
                    "output": "",
                    "revert": false,
                    "revertMessage": "",
                    "selector": "0x92f5f037",
                    "status": true,
                    "value": "0.013"
                },
                "nodeType": 0
            },
            "20": {
                "invocation": {
                    "address": "0x7a2631aa3590fd6361d2d7afb51d5fe9d33ab2ec",
                    "callData": "0x000000000000000000000000c5399cfc64433b67edf0145fc82823e5798168ef0000000000000000000000000000000000000000000000000000492bed7a5f27",
                    "decodedMethod": {
                        "callParams": [
                            {
                                "name": "recipient",
                                "type": "address",
                                "value": "0xc5399cfc64433b67edf0145fc82823e5798168ef"
                            },
                            {
                                "decimalAvailable": true,
                                "name": "amount",
                                "type": "uint256",
                                "value": "80,453,016,641,319"
                            }
                        ],
                        "constructorArguments": "",
                        "name": "transfer",
                        "returnParams": [
                            {
                                "name": "",
                                "type": "bool",
                                "value": true
                            }
                        ],
                        "signature": "transfer(address,uint256)"
                    },
                    "errorInfo": "",
                    "fromAddress": "0x74de5d4fcbf63e00296fd95d33236b9794016631",
                    "gasUsed": 38576,
                    "id": 20,
                    "methodDecoded": true,
                    "operation": "CALL",
                    "output": "0x0000000000000000000000000000000000000000000000000000000000000001",
                    "revert": false,
                    "revertMessage": "",
                    "selector": "0xa9059cbb",
                    "status": true,
                    "value": "0"
                },
                "nodeType": 0
            },
            "21": {
                "event": {
                    "contract": "0x7a2631aa3590fd6361d2d7afb51d5fe9d33ab2ec",
                    "decodedLog": {
                        "name": "Transfer",
                        "params": [
                            {
                                "name": "from",
                                "type": "address",
                                "value": "0x74de5d4fcbf63e00296fd95d33236b9794016631"
                            },
                            {
                                "name": "to",
                                "type": "address",
                                "value": "0xc5399cfc64433b67edf0145fc82823e5798168ef"
                            },
                            {
                                "decimalAvailable": true,
                                "name": "value",
                                "type": "uint256",
                                "value": "80,453,016,641,319"
                            }
                        ],
                        "signature": "Transfer(address,address,uint256)"
                    },
                    "id": 21,
                    "logData": "0x0000000000000000000000000000000000000000000000000000492bed7a5f27",
                    "logDecoded": true,
                    "operation": "EVENT",
                    "revert": false,
                    "status": true,
                    "topics": [
                        "0xddf252ad1be2c89b69c2b068fc378daa952ba7f163c4a11628f55a4df523b3ef",
                        "0x00000000000000000000000074de5d4fcbf63e00296fd95d33236b9794016631",
                        "0x000000000000000000000000c5399cfc64433b67edf0145fc82823e5798168ef"
                    ]
                },
                "nodeType": 1
            },
            "22": {
                "event": {
                    "contract": "0x881d40237659c251811cec9c364ef91dc08d300c",
                    "decodedLog": {
                        "name": "Swap",
                        "params": [
                            {
                                "name": "aggregatorId",
                                "type": "string",
                                "value": "0x9e4182a38ef65fd4828a1563124c6ada8e2cd461a1a638cbc46803f0cd3e7f48"
                            },
                            {
                                "name": "sender",
                                "type": "address",
                                "value": "0xc5399cfc64433b67edf0145fc82823e5798168ef"
                            }
                        ],
                        "signature": "Swap(string,address)"
                    },
                    "id": 22,
                    "logData": "0x",
                    "logDecoded": true,
                    "operation": "EVENT",
                    "revert": false,
                    "status": true,
                    "topics": [
                        "0xbeee1e6e7fe307ddcf84b0a16137a4430ad5e2480fc4f4a8e250ab56ccd7630d",
                        "0x9e4182a38ef65fd4828a1563124c6ada8e2cd461a1a638cbc46803f0cd3e7f48",
                        "0x000000000000000000000000c5399cfc64433b67edf0145fc82823e5798168ef"
                    ]
                },
                "nodeType": 1
            },
            "3": {
                "invocation": {
                    "address": "0xdef171fe48cf0115b1d80b88dc8eab59176fee57",
                    "callData": "0x000000000000000000000000eeeeeeeeeeeeeeeeeeeeeeeeeeeeeeeeeeeeeeee000000000000000000000000000000000000000000000000002dc7f9e1bca4000000000000000000000000000000000000000000000000000000492bed7a5e61000000000000000000000000c02aaa39b223fe8d0a0e5c4f27ead9083c756cc200000000000000000000000000000000000000000000000000000000000000a00000000000000000000000000000000000000000000000000000000000000001000000000000000000004de5cdb8cf0d65cbdc55e8bc2fd16ceaf72111d19d2a",
                    "decodedMethod": {
                        "callParams": [
                            {
                                "name": "tokenIn",
                                "type": "address",
                                "value": "0xeeeeeeeeeeeeeeeeeeeeeeeeeeeeeeeeeeeeeeee"
                            },
                            {
                                "name": "amountIn",
                                "type": "uint256",
                                "value": "12,886,250,000,000,000"
                            },
                            {
                                "name": "amountOutMin",
                                "type": "uint256",
                                "value": "80,453,016,641,121"
                            },
                            {
                                "name": "weth",
                                "type": "address",
                                "value": "0xc02aaa39b223fe8d0a0e5c4f27ead9083c756cc2"
                            },
                            {
                                "name": "pools",
                                "type": "uint256[]",
                                "value": [
                                    "29,144,978,614,497,472,677,813,921,435,855,080,435,527,395,172,261,162"
                                ]
                            }
                        ],
                        "constructorArguments": "",
                        "name": "swapOnUniswapV2Fork",
                        "returnParams": [],
                        "signature": "swapOnUniswapV2Fork(address,uint256,uint256,address,uint256[])"
                    },
                    "errorInfo": "",
                    "fromAddress": "0x74de5d4fcbf63e00296fd95d33236b9794016631",
                    "gasUsed": 160663,
                    "id": 3,
                    "methodDecoded": true,
                    "operation": "CALL",
                    "output": "",
                    "revert": false,
                    "revertMessage": "",
                    "selector": "0x0b86a4c1",
                    "status": true,
                    "value": "0.01288625"
                },
                "nodeType": 0
            },
            "4": {
                "invocation": {
                    "address": "0x4ff0dec5f9a763aa1e5c2a962aa6f4edfee4f9ea",
                    "callData": "0x000000000000000000000000eeeeeeeeeeeeeeeeeeeeeeeeeeeeeeeeeeeeeeee000000000000000000000000000000000000000000000000002dc7f9e1bca4000000000000000000000000000000000000000000000000000000492bed7a5e61000000000000000000000000c02aaa39b223fe8d0a0e5c4f27ead9083c756cc200000000000000000000000000000000000000000000000000000000000000a00000000000000000000000000000000000000000000000000000000000000001000000000000000000004de5cdb8cf0d65cbdc55e8bc2fd16ceaf72111d19d2a",
                    "decodedMethod": {
                        "callParams": [
                            {
                                "name": "tokenIn",
                                "type": "address",
                                "value": "0xeeeeeeeeeeeeeeeeeeeeeeeeeeeeeeeeeeeeeeee"
                            },
                            {
                                "name": "amountIn",
                                "type": "uint256",
                                "value": "12,886,250,000,000,000"
                            },
                            {
                                "name": "amountOutMin",
                                "type": "uint256",
                                "value": "80,453,016,641,121"
                            },
                            {
                                "name": "weth",
                                "type": "address",
                                "value": "0xc02aaa39b223fe8d0a0e5c4f27ead9083c756cc2"
                            },
                            {
                                "name": "pools",
                                "type": "uint256[]",
                                "value": [
                                    "29,144,978,614,497,472,677,813,921,435,855,080,435,527,395,172,261,162"
                                ]
                            }
                        ],
                        "constructorArguments": "",
                        "name": "swapOnUniswapV2Fork",
                        "returnParams": [],
                        "signature": "swapOnUniswapV2Fork(address,uint256,uint256,address,uint256[])"
                    },
                    "errorInfo": "",
                    "fromAddress": "0xdef171fe48cf0115b1d80b88dc8eab59176fee57",
                    "gasUsed": 155311,
                    "id": 4,
                    "methodDecoded": true,
                    "operation": "DELEGATECALL",
                    "output": "",
                    "revert": false,
                    "revertMessage": "",
                    "selector": "0x0b86a4c1",
                    "status": true,
                    "value": "0.01288625"
                },
                "nodeType": 0
            },
            "5": {
                "invocation": {
                    "address": "0xc02aaa39b223fe8d0a0e5c4f27ead9083c756cc2",
                    "callData": "0x",
                    "decodedMethod": {
                        "callParams": [],
                        "constructorArguments": "",
                        "name": "deposit",
                        "returnParams": [],
                        "signature": "deposit()"
                    },
                    "errorInfo": "",
                    "fromAddress": "0xdef171fe48cf0115b1d80b88dc8eab59176fee57",
                    "gasUsed": 23974,
                    "id": 5,
                    "methodDecoded": true,
                    "operation": "CALL",
                    "output": "",
                    "revert": false,
                    "revertMessage": "",
                    "selector": "0xd0e30db0",
                    "status": true,
                    "value": "0.01288625"
                },
                "nodeType": 0
            },
            "6": {
                "event": {
                    "contract": "0xc02aaa39b223fe8d0a0e5c4f27ead9083c756cc2",
                    "decodedLog": {
                        "name": "Deposit",
                        "params": [
                            {
                                "name": "dst",
                                "type": "address",
                                "value": "0xdef171fe48cf0115b1d80b88dc8eab59176fee57"
                            },
                            {
                                "name": "wad",
                                "type": "uint256",
                                "value": "12,886,250,000,000,000"
                            }
                        ],
                        "signature": "Deposit(address,uint256)"
                    },
                    "id": 6,
                    "logData": "0x000000000000000000000000000000000000000000000000002dc7f9e1bca400",
                    "logDecoded": true,
                    "operation": "EVENT",
                    "revert": false,
                    "status": true,
                    "topics": [
                        "0xe1fffcc4923d04b559f4d29a8bfc6cda04eb5b0d3c460751c2402c5c5cc9109c",
                        "0x000000000000000000000000def171fe48cf0115b1d80b88dc8eab59176fee57"
                    ]
                },
                "nodeType": 1
            },
            "7": {
                "invocation": {
                    "address": "0xc02aaa39b223fe8d0a0e5c4f27ead9083c756cc2",
                    "callData": "0x000000000000000000000000cdb8cf0d65cbdc55e8bc2fd16ceaf72111d19d2a000000000000000000000000000000000000000000000000002dc7f9e1bca400",
                    "decodedMethod": {
                        "callParams": [
                            {
                                "name": "dst",
                                "type": "address",
                                "value": "0xcdb8cf0d65cbdc55e8bc2fd16ceaf72111d19d2a"
                            },
                            {
                                "decimalAvailable": true,
                                "name": "wad",
                                "type": "uint256",
                                "value": "12,886,250,000,000,000"
                            }
                        ],
                        "constructorArguments": "",
                        "name": "transfer",
                        "returnParams": [
                            {
                                "name": "",
                                "type": "bool",
                                "value": true
                            }
                        ],
                        "signature": "transfer(address,uint256)"
                    },
                    "errorInfo": "",
                    "fromAddress": "0xdef171fe48cf0115b1d80b88dc8eab59176fee57",
                    "gasUsed": 8062,
                    "id": 7,
                    "methodDecoded": true,
                    "operation": "CALL",
                    "output": "0x0000000000000000000000000000000000000000000000000000000000000001",
                    "revert": false,
                    "revertMessage": "",
                    "selector": "0xa9059cbb",
                    "status": true,
                    "value": "0"
                },
                "nodeType": 0
            },
            "8": {
                "event": {
                    "contract": "0xc02aaa39b223fe8d0a0e5c4f27ead9083c756cc2",
                    "decodedLog": {
                        "name": "Transfer",
                        "params": [
                            {
                                "name": "src",
                                "type": "address",
                                "value": "0xdef171fe48cf0115b1d80b88dc8eab59176fee57"
                            },
                            {
                                "name": "dst",
                                "type": "address",
                                "value": "0xcdb8cf0d65cbdc55e8bc2fd16ceaf72111d19d2a"
                            },
                            {
                                "decimalAvailable": true,
                                "name": "wad",
                                "type": "uint256",
                                "value": "12,886,250,000,000,000"
                            }
                        ],
                        "signature": "Transfer(address,address,uint256)"
                    },
                    "id": 8,
                    "logData": "0x000000000000000000000000000000000000000000000000002dc7f9e1bca400",
                    "logDecoded": true,
                    "operation": "EVENT",
                    "revert": false,
                    "status": true,
                    "topics": [
                        "0xddf252ad1be2c89b69c2b068fc378daa952ba7f163c4a11628f55a4df523b3ef",
                        "0x000000000000000000000000def171fe48cf0115b1d80b88dc8eab59176fee57",
                        "0x000000000000000000000000cdb8cf0d65cbdc55e8bc2fd16ceaf72111d19d2a"
                    ]
                },
                "nodeType": 1
            },
            "9": {
                "invocation": {
                    "address": "0xcdb8cf0d65cbdc55e8bc2fd16ceaf72111d19d2a",
                    "callData": "0x",
                    "decodedMethod": {
                        "callParams": [],
                        "constructorArguments": "",
                        "name": "getReserves",
                        "returnParams": [
                            {
                                "name": "_reserve0",
                                "type": "uint112",
                                "value": "93,236,576,764,913,494"
                            },
                            {
                                "name": "_reserve1",
                                "type": "uint112",
                                "value": "14,578,378,049,235,824,497"
                            },
                            {
                                "name": "_blockTimestampLast",
                                "type": "uint32",
                                "value": "1,695,653,399"
                            }
                        ],
                        "signature": "getReserves()"
                    },
                    "errorInfo": "",
                    "fromAddress": "0xdef171fe48cf0115b1d80b88dc8eab59176fee57",
                    "gasUsed": 2504,
                    "id": 9,
                    "methodDecoded": true,
                    "operation": "STATICCALL",
                    "output": "0x000000000000000000000000000000000000000000000000014b3e2c2e256756000000000000000000000000000000000000000000000000ca50cd98a20daf710000000000000000000000000000000000000000000000000000000065119e17",
                    "revert": false,
                    "revertMessage": "",
                    "selector": "0x0902f1ac",
                    "status": true,
                    "value": "0"
                },
                "nodeType": 0
            }
        },
        "gasFlame": [
            {
                "children": [
                    {
                        "children": [
                            {
                                "children": [],
                                "depth": 0,
                                "name": "Initial Gas",
                                "value": 26208
                            },
                            {
                                "children": [
                                    {
                                        "children": [
                                            {
                                                "children": [
                                                    {
                                                        "children": [
                                                            {
                                                                "children": [
                                                                    {
                                                                        "children": [],
                                                                        "depth": 5,
                                                                        "name": "deposit",
                                                                        "value": 23974
                                                                    },
                                                                    {
                                                                        "children": [],
                                                                        "depth": 5,
                                                                        "name": "transfer",
                                                                        "value": 8062
                                                                    },
                                                                    {
                                                                        "children": [],
                                                                        "depth": 5,
                                                                        "name": "getReserves",
                                                                        "value": 2504
                                                                    },
                                                                    {
                                                                        "children": [
                                                                            {
                                                                                "children": [],
                                                                                "depth": 6,
                                                                                "name": "transfer",
                                                                                "value": 69877
                                                                            },
                                                                            {
                                                                                "children": [],
                                                                                "depth": 6,
                                                                                "name": "balanceOf",
                                                                                "value": 620
                                                                            },
                                                                            {
                                                                                "children": [],
                                                                                "depth": 6,
                                                                                "name": "balanceOf",
                                                                                "value": 534
                                                                            }
                                                                        ],
                                                                        "depth": 5,
                                                                        "name": "swap",
                                                                        "value": 104854
                                                                    }
                                                                ],
                                                                "depth": 4,
                                                                "name": "swapOnUniswapV2Fork",
                                                                "value": 155311
                                                            }
                                                        ],
                                                        "depth": 3,
                                                        "name": "swapOnUniswapV2Fork",
                                                        "value": 160663
                                                    },
                                                    {
                                                        "children": [],
                                                        "depth": 3,
                                                        "name": "fallback",
                                                        "value": 40
                                                    },
                                                    {
                                                        "children": [],
                                                        "depth": 3,
                                                        "name": "balanceOf",
                                                        "value": 620
                                                    },
                                                    {
                                                        "children": [],
                                                        "depth": 3,
                                                        "name": "transfer",
                                                        "value": 38576
                                                    }
                                                ],
                                                "depth": 2,
                                                "name": "0x92f5f037",
                                                "value": 223074
                                            }
                                        ],
                                        "depth": 1,
                                        "name": "swap",
                                        "value": 228286
                                    }
                                ],
                                "depth": 0,
                                "name": "Executed Gas",
                                "value": 254145
                            }
                        ],
                        "depth": -1,
                        "name": "Actual Gas Used",
                        "value": 234953
                    },
                    {
                        "children": [],
                        "depth": -1,
                        "name": "Refunded Gas",
                        "value": 45400
                    }
                ],
                "depth": -2,
                "name": "Total Gas",
                "value": 280353
            }
        ],
        "isConfirmed": true,
        "mainTrace": [
            {
                "children": [
                    {
                        "children": [
                            {
                                "children": [
                                    {
                                        "children": [
                                            {
                                                "children": [
                                                    {
                                                        "children": [
                                                            {
                                                                "children": [
                                                                    {
                                                                        "children": [],
                                                                        "depth": 6,
                                                                        "id": 6,
                                                                        "order": 6
                                                                    }
                                                                ],
                                                                "depth": 5,
                                                                "id": 5,
                                                                "order": 5
                                                            },
                                                            {
                                                                "children": [
                                                                    {
                                                                        "children": [],
                                                                        "depth": 6,
                                                                        "id": 8,
                                                                        "order": 8
                                                                    }
                                                                ],
                                                                "depth": 5,
                                                                "id": 7,
                                                                "order": 7
                                                            },
                                                            {
                                                                "children": [],
                                                                "depth": 5,
                                                                "id": 9,
                                                                "order": 9
                                                            },
                                                            {
                                                                "children": [
                                                                    {
                                                                        "children": [
                                                                            {
                                                                                "children": [],
                                                                                "depth": 7,
                                                                                "id": 12,
                                                                                "order": 12
                                                                            },
                                                                            {
                                                                                "children": [],
                                                                                "depth": 7,
                                                                                "id": 13,
                                                                                "order": 13
                                                                            }
                                                                        ],
                                                                        "depth": 6,
                                                                        "id": 11,
                                                                        "order": 11
                                                                    },
                                                                    {
                                                                        "children": [],
                                                                        "depth": 6,
                                                                        "id": 14,
                                                                        "order": 14
                                                                    },
                                                                    {
                                                                        "children": [],
                                                                        "depth": 6,
                                                                        "id": 15,
                                                                        "order": 15
                                                                    },
                                                                    {
                                                                        "children": [],
                                                                        "depth": 6,
                                                                        "id": 16,
                                                                        "order": 16
                                                                    },
                                                                    {
                                                                        "children": [],
                                                                        "depth": 6,
                                                                        "id": 17,
                                                                        "order": 17
                                                                    }
                                                                ],
                                                                "depth": 5,
                                                                "id": 10,
                                                                "order": 10
                                                            }
                                                        ],
                                                        "depth": 4,
                                                        "id": 4,
                                                        "order": 4
                                                    }
                                                ],
                                                "depth": 3,
                                                "id": 3,
                                                "order": 3
                                            },
                                            {
                                                "children": [],
                                                "depth": 3,
                                                "id": 18,
                                                "order": 18
                                            },
                                            {
                                                "children": [],
                                                "depth": 3,
                                                "id": 19,
                                                "order": 19
                                            },
                                            {
                                                "children": [
                                                    {
                                                        "children": [],
                                                        "depth": 4,
                                                        "id": 21,
                                                        "order": 21
                                                    }
                                                ],
                                                "depth": 3,
                                                "id": 20,
                                                "order": 20
                                            }
                                        ],
                                        "depth": 2,
                                        "id": 2,
                                        "order": 2
                                    }
                                ],
                                "depth": 1,
                                "id": 1,
                                "order": 1
                            },
                            {
                                "children": [],
                                "depth": 1,
                                "id": 22,
                                "order": 22
                            }
                        ],
                        "depth": 0,
                        "id": 0,
                        "order": 0
                    }
                ],
                "depth": -1,
                "id": -1,
                "order": -1
            }
        ],
        "mainTraceNodeCount": 23,
        "parentIdMap": {
            "0": -1,
            "1": 0,
            "10": 4,
            "11": 10,
            "12": 11,
            "13": 11,
            "14": 10,
            "15": 10,
            "16": 10,
            "17": 10,
            "18": 2,
            "19": 2,
            "2": 1,
            "20": 2,
            "21": 20,
            "22": 0,
            "3": 2,
            "4": 3,
            "5": 4,
            "6": 5,
            "7": 4,
            "8": 7,
            "9": 4
        },
        "tidyTrace": [
            {
                "children": [
                    {
                        "children": [
                            {
                                "children": [
                                    {
                                        "children": [
                                            {
                                                "children": [
                                                    {
                                                        "children": [
                                                            {
                                                                "children": [
                                                                    {
                                                                        "children": [],
                                                                        "depth": 6,
                                                                        "id": 6,
                                                                        "order": 6
                                                                    }
                                                                ],
                                                                "depth": 5,
                                                                "id": 5,
                                                                "order": 5
                                                            },
                                                            {
                                                                "children": [
                                                                    {
                                                                        "children": [],
                                                                        "depth": 6,
                                                                        "id": 8,
                                                                        "order": 8
                                                                    }
                                                                ],
                                                                "depth": 5,
                                                                "id": 7,
                                                                "order": 7
                                                            },
                                                            {
                                                                "children": [
                                                                    {
                                                                        "children": [
                                                                            {
                                                                                "children": [],
                                                                                "depth": 7,
                                                                                "id": 12,
                                                                                "order": 12
                                                                            },
                                                                            {
                                                                                "children": [],
                                                                                "depth": 7,
                                                                                "id": 13,
                                                                                "order": 13
                                                                            }
                                                                        ],
                                                                        "depth": 6,
                                                                        "id": 11,
                                                                        "order": 11
                                                                    },
                                                                    {
                                                                        "children": [],
                                                                        "depth": 6,
                                                                        "id": 16,
                                                                        "order": 16
                                                                    },
                                                                    {
                                                                        "children": [],
                                                                        "depth": 6,
                                                                        "id": 17,
                                                                        "order": 17
                                                                    }
                                                                ],
                                                                "depth": 5,
                                                                "id": 10,
                                                                "order": 10
                                                            }
                                                        ],
                                                        "depth": 4,
                                                        "id": 4,
                                                        "order": 4
                                                    }
                                                ],
                                                "depth": 3,
                                                "id": 3,
                                                "order": 3
                                            },
                                            {
                                                "children": [],
                                                "depth": 3,
                                                "id": 18,
                                                "order": 18
                                            },
                                            {
                                                "children": [
                                                    {
                                                        "children": [],
                                                        "depth": 4,
                                                        "id": 21,
                                                        "order": 21
                                                    }
                                                ],
                                                "depth": 3,
                                                "id": 20,
                                                "order": 20
                                            }
                                        ],
                                        "depth": 2,
                                        "id": 2,
                                        "order": 2
                                    }
                                ],
                                "depth": 1,
                                "id": 1,
                                "order": 1
                            },
                            {
                                "children": [],
                                "depth": 1,
                                "id": 22,
                                "order": 22
                            }
                        ],
                        "depth": 0,
                        "id": 0,
                        "order": 0
                    }
                ],
                "depth": -1,
                "id": -1,
                "order": -1
            }
        ],
        "tidyTraceNodeCount": 19
    },
    "state_change": {
        "stateChanges": [
            {
                "address": "0x7a2631aa3590fd6361d2d7afb51d5fe9d33ab2ec",
                "erc": "ERC-20",
                "slots": [
                    {
                        "current": "0x000000000000000000000000000000000000000000000000014af381f7e73b47",
                        "key": "0xa4a8608f150a2761680dea83853e5d48cc6db271fb7e0c6d9e8a31bd4306ecd2",
                        "prev": "0x000000000000000000000000000000000000000000000000014b3e2c2e256756"
                    },
                    {
                        "current": "0x0000000000000000000000000000000000000000000000000003bde4a49d78b8",
                        "key": "0xb192f04f2f6d03fa9fd846d7ac0573ca680833b06bd4ed5d6d9e2b7e524cd354",
                        "prev": "0x0000000000000000000000000000000000000000000000000003bc665bd9abd0"
                    },
                    {
                        "current": "0x0000000000000000000000000000000000000000000000000000492bed7a5f27",
                        "key": "0x5441499fa8884199176aa1c1eca27eaf507caee293f658c6b21560812249012c",
                        "prev": "0x0000000000000000000000000000000000000000000000000000000000000000"
                    }
                ],
                "storageVariables": [
                    {
                        "name": "_balances",
                        "type": "mapping(address => uint256)",
                        "value": {
                            "pairs": [
                                {
                                    "key": "0x7a2631aa3590fd6361d2d7afb51d5fe9d33ab2ec",
                                    "value": {
                                        "current": "1053214642108600",
                                        "prev": "1051572743810000",
                                        "typeTag": 1
                                    }
                                },
                                {
                                    "key": "0xc5399cfc64433b67edf0145fc82823e5798168ef",
                                    "value": {
                                        "current": "80453016641319",
                                        "prev": "0",
                                        "typeTag": 1
                                    }
                                },
                                {
                                    "key": "0xcdb8cf0d65cbdc55e8bc2fd16ceaf72111d19d2a",
                                    "value": {
                                        "current": "93154481849973575",
                                        "prev": "93236576764913494",
                                        "typeTag": 1
                                    }
                                }
                            ],
                            "typeTag": 4
                        }
                    }
                ]
            },
            {
                "address": "0xc02aaa39b223fe8d0a0e5c4f27ead9083c756cc2",
                "erc": "ERC-20",
                "slots": [
                    {
                        "current": "0x000000000000000000000000000000000000000000000000ca7e959283ca5371",
                        "key": "0xc5be8ddb890f88f3d55232183e79326dfc2a4c319333b45cf88120203b1753dc",
                        "prev": "0x000000000000000000000000000000000000000000000000ca50cd98a20daf71"
                    }
                ],
                "storageVariables": [
                    {
                        "name": "balanceOf",
                        "type": "mapping(address => uint256)",
                        "value": {
                            "pairs": [
                                {
                                    "key": "0xcdb8cf0d65cbdc55e8bc2fd16ceaf72111d19d2a",
                                    "value": {
                                        "current": "14591264299235824497",
                                        "prev": "14578378049235824497",
                                        "typeTag": 1
                                    }
                                }
                            ],
                            "typeTag": 4
                        }
                    }
                ]
            },
            {
                "address": "0xcdb8cf0d65cbdc55e8bc2fd16ceaf72111d19d2a",
                "erc": "ERC-20",
                "slots": [
                    {
                        "current": "0x0000000000000000000000000000000009177be02e486536631c63bc19a6ecdc",
                        "key": "0x000000000000000000000000000000000000000000000000000000000000000a",
                        "prev": "0x0000000000000000000000000000000009141b675064bec7a71ea3bbfb9c7d8c"
                    },
                    {
                        "current": "0x6511a027000000000000ca7e959283ca5371000000000000014af381f7e73b47",
                        "key": "0x0000000000000000000000000000000000000000000000000000000000000008",
                        "prev": "0x65119e17000000000000ca50cd98a20daf71000000000000014b3e2c2e256756"
                    },
                    {
                        "current": "0x00000000000000000000000000000576a21148aabd7cfc52b52824abe5703500",
                        "key": "0x0000000000000000000000000000000000000000000000000000000000000009",
                        "prev": "0x000000000000000000000000000005755f93bb25da110d00721fba867dcc9230"
                    }
                ],
                "storageVariables": [
                    {
                        "name": "price1CumulativeLast",
                        "type": "uint256",
                        "value": {
                            "current": "12084987287624027315339000468887497948",
                            "prev": "12067453709675571273278218977574419852",
                            "typeTag": 1
                        }
                    },
                    {
                        "name": "reserve0",
                        "type": "uint112",
                        "value": {
                            "current": "93154481849973575",
                            "prev": "93236576764913494",
                            "typeTag": 1
                        }
                    },
                    {
                        "name": "reserve1",
                        "type": "uint112",
                        "value": {
                            "current": "14591264299235824497",
                            "prev": "14578378049235824497",
                            "typeTag": 1
                        }
                    },
                    {
                        "name": "blockTimestampLast",
                        "type": "uint32",
                        "value": {
                            "current": "1695653927",
                            "prev": "1695653399",
                            "typeTag": 1
                        }
                    },
                    {
                        "name": "price0CumulativeLast",
                        "type": "uint256",
                        "value": {
                            "current": "475930173633696646240842917719961601324288",
                            "prev": "475501510311598331327090706452479096951344",
                            "typeTag": 1
                        }
                    }
                ]
            }
        ]
    }
}