{
    "balance_change": {
        "balanceChanges": [
            {
                "account": "0xf52145a07f238892426c4bb6a4fa58d2b7a4b57e",
                "assets": [
                    {
                        "address": "0x74fd51a98a4a1ecbef8cc43be801cce630e260bd",
                        "amount": "15,458.730610041543664674",
                        "iconUrl": "",
                        "isERC1155": false,
                        "isERC721": false,
                        "sign": false,
                        "value": ""
                    }
                ]
            },
            {
                "account": "0x416e4335fb034d62bac5bd5a0017fa6867a526a8",
                "assets": [
                    {
                        "address": "0x74fd51a98a4a1ecbef8cc43be801cce630e260bd",
                        "amount": "15,458.730610041543664674",
                        "iconUrl": "",
                        "isERC1155": false,
                        "isERC721": false,
                        "sign": true,
                        "value": ""
                    }
                ]
            }
        ]
    },
    "profile": {
        "basic_info": {
            "baseFee": "",
            "blockNumber": 6041880,
            "callData": "0xa9059cbb000000000000000000000000416e4335fb034d62bac5bd5a0017fa6867a526a800000000000000000000000000000000000000000000034604fbb1f7bfd32422",
            "debugEnable": true,
            "errorInfo": "",
            "eventCount": 1,
            "feeRecipient": "0xea674fdde714fd979de3edf0f56aa9716b898ec8",
            "formatValue": "0",
            "gasLimit": 40000,
            "gasPrice": "1.11",
            "gasUsed": 22162,
            "intTxnCount": 0,
            "internalRevert": false,
            "internalRevertMessage": "",
            "isContractCreation": false,
            "isFlashloan": false,
            "maxFee": "",
            "nonce": 4,
            "overwritedBlockNumber": -1,
            "priorityFee": "",
            "receiver": "0x74fd51a98a4a1ecbef8cc43be801cce630e260bd",
            "revertMessage": "",
            "sender": "0xf52145a07f238892426c4bb6a4fa58d2b7a4b57e",
            "simulationEnable": true,
            "sourceTxnHash": "0xce771946bf6b95a478c34439e61d531985279c5b9787be237c14f91bb14e9265",
            "status": true,
            "timestamp": "2018-07-27T23:12:11Z",
            "transactionFee": "0.00002459982",
            "txnHash": "0xce771946bf6b95a478c34439e61d531985279c5b9787be237c14f91bb14e9265",
            "txnIndex": 221,
            "type": 0,
            "value": "0"
        },
        "fund_flow": [
            {
                "amount": "15,458.730610041543664674",
                "from": "0xf52145a07f238892426c4bb6a4fa58d2b7a4b57e",
                "id": 1,
                "isERC1155": false,
                "isERC721": false,
                "isReverted": false,
                "order": 1,
                "to": "0x416e4335fb034d62bac5bd5a0017fa6867a526a8",
                "token": "0x74fd51a98a4a1ecbef8cc43be801cce630e260bd"
            }
        ],
        "token_infos": [
            {
                "address": "0x74fd51a98a4a1ecbef8cc43be801cce630e260bd",
                "decimals": 18
            },
            {
                "address": "0xc02aaa39b223fe8d0a0e5c4f27ead9083c756cc2",
                "decimals": 18
            },
            {
                "address": "0xeeeeeeeeeeeeeeeeeeeeeeeeeeeeeeeeeeeeeeee",
                "decimals": 18
            }
        ]
    },
    "address_label": {
        "labels": [
            {
                "address": "0xeeeeeeeeeeeeeeeeeeeeeeeeeeeeeeeeeeeeeeee",
                "label": "Ether"
            },
            {
                "address": "0x74fd51a98a4a1ecbef8cc43be801cce630e260bd",
                "label": "SiaCashCoin: Old SCC Token"
            },
            {
                "address": "0x0000000000000000000000000000000000000001",
                "label": "Precompiled"
            },
            {
                "address": "0x0000000000000000000000000000000000000002",
                "label": "Precompiled"
            },
            {
                "address": "0x0000000000000000000000000000000000000003",
                "label": "Precompiled"
            },
            {
                "address": "0x0000000000000000000000000000000000000004",
                "label": "Precompiled"
            }
        ]
    },
    "trace": {
        "accountLabels": null,
        "dataMap": {
            "-1": {
                "invocation": {
                    "address": "0xf52145a07f238892426c4bb6a4fa58d2b7a4b57e",
                    "callData": "",
                    "decodedMethod": null,
                    "errorInfo": "",
                    "fromAddress": "",
                    "gasUsed": 0,
                    "id": -1,
                    "methodDecoded": false,
                    "operation": "",
                    "output": "",
                    "revert": false,
                    "revertMessage": "",
                    "selector": "",
                    "status": false,
                    "value": ""
                },
                "nodeType": 0
            },
            "0": {
                "invocation": {
                    "address": "0x74fd51a98a4a1ecbef8cc43be801cce630e260bd",
                    "callData": "0x000000000000000000000000416e4335fb034d62bac5bd5a0017fa6867a526a800000000000000000000000000000000000000000000034604fbb1f7bfd32422",
                    "decodedMethod": {
                        "callParams": [
                            {
                                "name": "_to",
                                "type": "address",
                                "value": "0x416e4335fb034d62bac5bd5a0017fa6867a526a8"
                            },
                            {
                                "decimalAvailable": true,
                                "name": "_amount",
                                "type": "uint256",
                                "value": "15,458,730,610,041,543,664,674"
                            }
                        ],
                        "constructorArguments": "",
                        "name": "transfer",
                        "returnParams": [
                            {
                                "name": "success",
                                "type": "bool",
                                "value": true
                            }
                        ],
                        "signature": "transfer(address,uint256)"
                    },
                    "errorInfo": "",
                    "fromAddress": "0xf52145a07f238892426c4bb6a4fa58d2b7a4b57e",
                    "gasUsed": 22162,
                    "id": 0,
                    "methodDecoded": true,
                    "operation": "CALL",
                    "output": "0x0000000000000000000000000000000000000000000000000000000000000001",
                    "revert": false,
                    "revertMessage": "",
                    "selector": "0xa9059cbb",
                    "status": true,
                    "value": "0"
                },
                "nodeType": 0
            },
            "1": {
                "event": {
                    "contract": "0x74fd51a98a4a1ecbef8cc43be801cce630e260bd",
                    "decodedLog": {
                        "name": "Transfer",
                        "params": [
                            {
                                "name": "_from",
                                "type": "address",
                                "value": "0xf52145a07f238892426c4bb6a4fa58d2b7a4b57e"
                            },
                            {
                                "name": "_to",
                                "type": "address",
                                "value": "0x416e4335fb034d62bac5bd5a0017fa6867a526a8"
                            },
                            {
                                "decimalAvailable": true,
                                "name": "_value",
                                "type": "uint256",
                                "value": "15,458,730,610,041,543,664,674"
                            }
                        ],
                        "signature": "Transfer(address,address,uint256)"
                    },
                    "id": 1,
                    "logData": "0x00000000000000000000000000000000000000000000034604fbb1f7bfd32422",
                    "logDecoded": true,
                    "operation": "EVENT",
                    "revert": false,
                    "status": true,
                    "topics": [
                        "0xddf252ad1be2c89b69c2b068fc378daa952ba7f163c4a11628f55a4df523b3ef",
                        "0x000000000000000000000000f52145a07f238892426c4bb6a4fa58d2b7a4b57e",
                        "0x000000000000000000000000416e4335fb034d62bac5bd5a0017fa6867a526a8"
                    ]
                },
                "nodeType": 1
            }
        },
        "gasFlame": [
            {
                "children": [
                    {
                        "children": [
                            {
                                "children": [],
                                "depth": 0,
                                "name": "Initial Gas",
                                "value": 23384
                            },
                            {
                                "children": [],
                                "depth": 0,
                                "name": "Executed Gas",
                                "value": 13778
                            }
                        ],
                        "depth": -1,
                        "name": "Actual Gas Used",
                        "value": 22162
                    },
                    {
                        "children": [],
                        "depth": -1,
                        "name": "Refunded Gas",
                        "value": 15000
                    }
                ],
                "depth": -2,
                "name": "Total Gas",
                "value": 37162
            }
        ],
        "isConfirmed": true,
        "mainTrace": [
            {
                "children": [
                    {
                        "children": [
                            {
                                "children": [],
                                "depth": 1,
                                "id": 1,
                                "order": 1
                            }
                        ],
                        "depth": 0,
                        "id": 0,
                        "order": 0
                    }
                ],
                "depth": -1,
                "id": -1,
                "order": -1
            }
        ],
        "mainTraceNodeCount": 2,
        "parentIdMap": {
            "0": -1,
            "1": 0
        },
        "tidyTrace": [
            {
                "children": [
                    {
                        "children": [
                            {
                                "children": [],
                                "depth": 1,
                                "id": 1,
                                "order": 1
                            }
                        ],
                        "depth": 0,
                        "id": 0,
                        "order": 0
                    }
                ],
                "depth": -1,
                "id": -1,
                "order": -1
            }
        ],
        "tidyTraceNodeCount": 2
    },
    "state_change": {
        "stateChanges": [
            {
                "address": "0x74fd51a98a4a1ecbef8cc43be801cce630e260bd",
                "erc": "ERC-20",
                "slots": [
                    {
                        "current": "0x0000000000000000000000000000000000000000000000000000000000000000",
                        "key": "0x5215f225026c05a01909da8f9b20b3297ba72295cfd43c2bf4214f870da2df65",
                        "prev": "0x00000000000000000000000000000000000000000000034604fbb1f7bfd32422"
                    },
                    {
                        "current": "0x00000000000000000000000000000000000000000094bc07f9506680c284afa8",
                        "key": "0xae772a46325aaee6eabb80f6ebdca3e95d296722b047a96b8be0b1294b11017b",
                        "prev": "0x00000000000000000000000000000000000000000094b8c1f454b48902b18b86"
                    }
                ],
                "storageVariables": [
                    {
                        "name": "balances",
                        "type": "mapping(address => uint256)",
                        "value": {
                            "pairs": [
                                {
                                    "key": "0x416e4335fb034d62bac5bd5a0017fa6867a526a8",
                                    "value": {
                                        "current": "179808973293924743909781416",
                                        "prev": "179793514563314702366116742",
                                        "typeTag": 1
                                    }
                                },
                                {
                                    "key": "0xf52145a07f238892426c4bb6a4fa58d2b7a4b57e",
                                    "value": {
                                        "current": "0",
                                        "prev": "15458730610041543664674",
                                        "typeTag": 1
                                    }
                                }
                            ],
                            "typeTag": 4
                        }
                    }
                ]
            }
        ]
    }
}