{
    "balance_change": {
        "balanceChanges": []
    },
    "profile": {
        "basic_info": {
            "baseFee": "109.683462401",
            "blockNumber": 13553924,
            "callData": "0x00e05147921005000000000000000000000064c02aaa39b223fe8d0a0e5c4f27ead9083c756cc20000000000000000000023b872dd000000000000000000000000dfee68a9adb981cd08699891a11cabe10f25ec4400000000000000000000000018a797c7c70c1bf22fdee1c09062aba709cacf040000000000000000000000000000000000000000000000002da091b644836800008418a797c7c70c1bf22fdee1c09062aba709cacf0400000000000000000000022c0d9f000000000000000000000000000000000000000000000000000000000000000000000000000000000000000000000000000000000000000c73ade4aa162acd4f0000000000000000000000000000000000007f150bd6f54c40a34d7c3d5e9f56000000000000000000000000000000000000000000000000000000000000000000a4126c121f99e1e211df2e5f8de2d96fa36647c855000000000000000000008201aa3f000000000000000000000000d291e7a03283640fdc51b121ac401383a46cc62300000000000000000000000000000000000000000000000c73ade4aa162acd4f0000000000000000000000004691937a7508860f876c9c0a2a617e7d9e945d4b0000000000000000000000000000000000000000000000000000000000000000000000000000001000000000000000000000000000000000000000000000000000444691937a7508860f876c9c0a2a617e7d9e945d4b00000000000000000000a9059cbb0000000000000000000000006ada49aeccf6e556bb7a35ef0119cc8ca795294a0000000000000000000000000000000000000000000002767a33102b724d9fee00846ada49aeccf6e556bb7a35ef0119cc8ca795294a00000000000000000000022c0d9f00000000000000000000000000000000000000000000000000000000000000000000000000000000000000000000000000000000000000002e36bd2c06fd5f7f000000000000000000000000dfee68a9adb981cd08699891a11cabe10f25ec440000000000000000000000000000000000000000000000000000000000000000",
            "debugEnable": true,
            "errorInfo": "execution reverted",
            "eventCount": 2,
            "feeRecipient": "0x829bd824b016326a401d083b33d092293333a830",
            "formatValue": "0",
            "gasLimit": 359505,
            "gasPrice": "111.683462401",
            "gasUsed": 100165,
            "intTxnCount": 9,
            "internalRevert": true,
            "internalRevertMessage": "",
            "isContractCreation": false,
            "isFlashloan": false,
            "maxFee": "134.715791755",
            "nonce": 452,
            "overwritedBlockNumber": -1,
            "priorityFee": "2",
            "receiver": "0x70526cc7a6d6320b44122ea9d2d07670accc85a1",
            "revertMessage": "",
            "sender": "0xe31af5ba3a4422c0fb5867c8f776f3d225d5f31c",
            "simulationEnable": true,
            "sourceTxnHash": "0xce0f60560f7372fd20af7e9a4555d216c0fc17b2ea3dd3ffbe29539b7b8b38bd",
            "status": false,
            "timestamp": "2021-11-05T02:30:26Z",
            "transactionFee": "0.011186774011396165",
            "txnHash": "0xce0f60560f7372fd20af7e9a4555d216c0fc17b2ea3dd3ffbe29539b7b8b38bd",
            "txnIndex": 5,
            "type": 2,
            "value": "0"
        },
        "fund_flow": [],
        "token_infos": [
            {
                "address": "0xeeeeeeeeeeeeeeeeeeeeeeeeeeeeeeeeeeeeeeee",
                "decimals": 18
            },
            {
                "address": "0xc02aaa39b223fe8d0a0e5c4f27ead9083c756cc2",
                "decimals": 18
            },
            {
                "address": "0xd291e7a03283640fdc51b121ac401383a46cc623",
                "decimals": 18
            }
        ]
    },
    "address_label": {
        "labels": [
            {
                "address": "0xd291e7a03283640fdc51b121ac401383a46cc623",
                "label": "Rari Capital: RGT Token"
            },
            {
                "address": "0x18a797c7c70c1bf22fdee1c09062aba709cacf04",
                "label": "SushiSwap: RGT"
            },
            {
                "address": "0xb528e8bb2dcb99cfdea4c28bf44925ef58ab1520",
                "label": "RariGovernanceToken"
            },
            {
                "address": "0x0000000000007f150bd6f54c40a34d7c3d5e9f56",
                "label": "MEV Bot: 0x000...f56"
            },
            {
                "address": "0x0000000000000000000000000000000000000002",
                "label": "Precompiled"
            },
            {
                "address": "0xeeeeeeeeeeeeeeeeeeeeeeeeeeeeeeeeeeeeeeee",
                "label": "Ether"
            },
            {
                "address": "0xc02aaa39b223fe8d0a0e5c4f27ead9083c756cc2",
                "label": "Wrapped Ether (WETH)"
            },
            {
                "address": "0xdfee68a9adb981cd08699891a11cabe10f25ec44",
                "label": "MEV Bot: 0xDFe...c44"
            },
            {
                "address": "0x0000000000000000000000000000000000000001",
                "label": "Precompiled"
            },
            {
                "address": "0x0000000000000000000000000000000000000003",
                "label": "Precompiled"
            },
            {
                "address": "0x0000000000000000000000000000000000000004",
                "label": "Precompiled"
            }
        ]
    },
    "trace": {
        "accountLabels": null,
        "dataMap": {
            "-1": {
                "invocation": {
                    "address": "0xe31af5ba3a4422c0fb5867c8f776f3d225d5f31c",
                    "callData": "",
                    "decodedMethod": null,
                    "errorInfo": "",
                    "fromAddress": "",
                    "gasUsed": 0,
                    "id": -1,
                    "methodDecoded": false,
                    "operation": "",
                    "output": "",
                    "revert": false,
                    "revertMessage": "",
                    "selector": "",
                    "status": false,
                    "value": ""
                },
                "nodeType": 0
            },
            "0": {
                "invocation": {
                    "address": "0x70526cc7a6d6320b44122ea9d2d07670accc85a1",
                    "callData": "0x921005000000000000000000000064c02aaa39b223fe8d0a0e5c4f27ead9083c756cc20000000000000000000023b872dd000000000000000000000000dfee68a9adb981cd08699891a11cabe10f25ec4400000000000000000000000018a797c7c70c1bf22fdee1c09062aba709cacf040000000000000000000000000000000000000000000000002da091b644836800008418a797c7c70c1bf22fdee1c09062aba709cacf0400000000000000000000022c0d9f000000000000000000000000000000000000000000000000000000000000000000000000000000000000000000000000000000000000000c73ade4aa162acd4f0000000000000000000000000000000000007f150bd6f54c40a34d7c3d5e9f56000000000000000000000000000000000000000000000000000000000000000000a4126c121f99e1e211df2e5f8de2d96fa36647c855000000000000000000008201aa3f000000000000000000000000d291e7a03283640fdc51b121ac401383a46cc62300000000000000000000000000000000000000000000000c73ade4aa162acd4f0000000000000000000000004691937a7508860f876c9c0a2a617e7d9e945d4b0000000000000000000000000000000000000000000000000000000000000000000000000000001000000000000000000000000000000000000000000000000000444691937a7508860f876c9c0a2a617e7d9e945d4b00000000000000000000a9059cbb0000000000000000000000006ada49aeccf6e556bb7a35ef0119cc8ca795294a0000000000000000000000000000000000000000000002767a33102b724d9fee00846ada49aeccf6e556bb7a35ef0119cc8ca795294a00000000000000000000022c0d9f00000000000000000000000000000000000000000000000000000000000000000000000000000000000000000000000000000000000000002e36bd2c06fd5f7f000000000000000000000000dfee68a9adb981cd08699891a11cabe10f25ec440000000000000000000000000000000000000000000000000000000000000000",
                    "decodedMethod": null,
                    "errorInfo": "execution reverted",
                    "fromAddress": "0xe31af5ba3a4422c0fb5867c8f776f3d225d5f31c",
                    "gasUsed": 100165,
                    "id": 0,
                    "methodDecoded": false,
                    "operation": "CALL",
                    "output": "",
                    "revert": true,
                    "revertMessage": "",
                    "selector": "0x00e05147",
                    "status": false,
                    "value": "0"
                },
                "nodeType": 0
            },
            "1": {
                "invocation": {
                    "address": "0x0000000000007f150bd6f54c40a34d7c3d5e9f56",
                    "callData": "0x1005000000000000000000000064c02aaa39b223fe8d0a0e5c4f27ead9083c756cc20000000000000000000023b872dd000000000000000000000000dfee68a9adb981cd08699891a11cabe10f25ec4400000000000000000000000018a797c7c70c1bf22fdee1c09062aba709cacf040000000000000000000000000000000000000000000000002da091b644836800008418a797c7c70c1bf22fdee1c09062aba709cacf0400000000000000000000022c0d9f000000000000000000000000000000000000000000000000000000000000000000000000000000000000000000000000000000000000000c73ade4aa162acd4f0000000000000000000000000000000000007f150bd6f54c40a34d7c3d5e9f56000000000000000000000000000000000000000000000000000000000000000000a4126c121f99e1e211df2e5f8de2d96fa36647c855000000000000000000008201aa3f000000000000000000000000d291e7a03283640fdc51b121ac401383a46cc62300000000000000000000000000000000000000000000000c73ade4aa162acd4f0000000000000000000000004691937a7508860f876c9c0a2a617e7d9e945d4b0000000000000000000000000000000000000000000000000000000000000000000000000000001000000000000000000000000000000000000000000000000000444691937a7508860f876c9c0a2a617e7d9e945d4b00000000000000000000a9059cbb0000000000000000000000006ada49aeccf6e556bb7a35ef0119cc8ca795294a0000000000000000000000000000000000000000000002767a33102b724d9fee00846ada49aeccf6e556bb7a35ef0119cc8ca795294a00000000000000000000022c0d9f00000000000000000000000000000000000000000000000000000000000000000000000000000000000000000000000000000000000000002e36bd2c06fd5f7f000000000000000000000000dfee68a9adb981cd08699891a11cabe10f25ec440000000000000000000000000000000000000000000000000000000000000000",
                    "decodedMethod": null,
                    "errorInfo": "execution reverted",
                    "fromAddress": "0x70526cc7a6d6320b44122ea9d2d07670accc85a1",
                    "gasUsed": 68898,
                    "id": 1,
                    "methodDecoded": false,
                    "operation": "CALL",
                    "output": "",
                    "revert": true,
                    "revertMessage": "",
                    "selector": "0xe0514792",
                    "status": false,
                    "value": "0"
                },
                "nodeType": 0
            },
            "10": {
                "invocation": {
                    "address": "0xd291e7a03283640fdc51b121ac401383a46cc623",
                    "callData": "0x00000000000000000000000018a797c7c70c1bf22fdee1c09062aba709cacf04",
                    "decodedMethod": {
                        "callParams": [
                            {
                                "name": "account",
                                "type": "address",
                                "value": "0x18a797c7c70c1bf22fdee1c09062aba709cacf04"
                            }
                        ],
                        "constructorArguments": "",
                        "name": "balanceOf",
                        "returnParams": [
                            {
                                "decimalAvailable": true,
                                "name": "",
                                "type": "uint256",
                                "value": "347,901,833,821,227,979,151,803"
                            }
                        ],
                        "signature": "balanceOf(address)"
                    },
                    "errorInfo": "",
                    "fromAddress": "0x18a797c7c70c1bf22fdee1c09062aba709cacf04",
                    "gasUsed": 1308,
                    "id": 10,
                    "methodDecoded": true,
                    "operation": "STATICCALL",
                    "output": "0x0000000000000000000000000000000000000000000049abcbd3e57e19b499bb",
                    "revert": true,
                    "revertMessage": "",
                    "selector": "0x70a08231",
                    "status": true,
                    "value": "0"
                },
                "nodeType": 0
            },
            "11": {
                "invocation": {
                    "address": "0xb528e8bb2dcb99cfdea4c28bf44925ef58ab1520",
                    "callData": "0x00000000000000000000000018a797c7c70c1bf22fdee1c09062aba709cacf04",
                    "decodedMethod": {
                        "callParams": [
                            {
                                "name": "account",
                                "type": "address",
                                "value": "0x18a797c7c70c1bf22fdee1c09062aba709cacf04"
                            }
                        ],
                        "constructorArguments": "",
                        "name": "balanceOf",
                        "returnParams": [
                            {
                                "decimalAvailable": true,
                                "name": "",
                                "type": "uint256",
                                "value": "347,901,833,821,227,979,151,803"
                            }
                        ],
                        "signature": "balanceOf(address)"
                    },
                    "errorInfo": "",
                    "fromAddress": "0xd291e7a03283640fdc51b121ac401383a46cc623",
                    "gasUsed": 532,
                    "id": 11,
                    "methodDecoded": true,
                    "operation": "DELEGATECALL",
                    "output": "0x0000000000000000000000000000000000000000000049abcbd3e57e19b499bb",
                    "revert": true,
                    "revertMessage": "",
                    "selector": "0x70a08231",
                    "status": true,
                    "value": "0"
                },
                "nodeType": 0
            },
            "2": {
                "invocation": {
                    "address": "0xc02aaa39b223fe8d0a0e5c4f27ead9083c756cc2",
                    "callData": "0x000000000000000000000000dfee68a9adb981cd08699891a11cabe10f25ec44",
                    "decodedMethod": {
                        "callParams": [
                            {
                                "name": "",
                                "type": "address",
                                "value": "0xdfee68a9adb981cd08699891a11cabe10f25ec44"
                            }
                        ],
                        "constructorArguments": "",
                        "name": "balanceOf",
                        "returnParams": [
                            {
                                "decimalAvailable": true,
                                "name": "",
                                "type": "uint256",
                                "value": "376,708,991,730,417,880,458"
                            }
                        ],
                        "signature": "balanceOf(address)"
                    },
                    "errorInfo": "",
                    "fromAddress": "0x0000000000007f150bd6f54c40a34d7c3d5e9f56",
                    "gasUsed": 2534,
                    "id": 2,
                    "methodDecoded": true,
                    "operation": "STATICCALL",
                    "output": "0x0000000000000000000000000000000000000000000000146be33016cb1f4d8a",
                    "revert": true,
                    "revertMessage": "",
                    "selector": "0x70a08231",
                    "status": true,
                    "value": "0"
                },
                "nodeType": 0
            },
            "3": {
                "invocation": {
                    "address": "0xc02aaa39b223fe8d0a0e5c4f27ead9083c756cc2",
                    "callData": "0x000000000000000000000000dfee68a9adb981cd08699891a11cabe10f25ec4400000000000000000000000018a797c7c70c1bf22fdee1c09062aba709cacf040000000000000000000000000000000000000000000000002da091b644836800",
                    "decodedMethod": {
                        "callParams": [
                            {
                                "name": "src",
                                "type": "address",
                                "value": "0xdfee68a9adb981cd08699891a11cabe10f25ec44"
                            },
                            {
                                "name": "dst",
                                "type": "address",
                                "value": "0x18a797c7c70c1bf22fdee1c09062aba709cacf04"
                            },
                            {
                                "decimalAvailable": true,
                                "name": "wad",
                                "type": "uint256",
                                "value": "3,287,787,940,000,000,000"
                            }
                        ],
                        "constructorArguments": "",
                        "name": "transferFrom",
                        "returnParams": [
                            {
                                "name": "",
                                "type": "bool",
                                "value": true
                            }
                        ],
                        "signature": "transferFrom(address,address,uint256)"
                    },
                    "errorInfo": "",
                    "fromAddress": "0x0000000000007f150bd6f54c40a34d7c3d5e9f56",
                    "gasUsed": 13025,
                    "id": 3,
                    "methodDecoded": true,
                    "operation": "CALL",
                    "output": "0x0000000000000000000000000000000000000000000000000000000000000001",
                    "revert": true,
                    "revertMessage": "",
                    "selector": "0x23b872dd",
                    "status": true,
                    "value": "0"
                },
                "nodeType": 0
            },
            "4": {
                "event": {
                    "contract": "0xc02aaa39b223fe8d0a0e5c4f27ead9083c756cc2",
                    "decodedLog": {
                        "name": "Transfer",
                        "params": [
                            {
                                "name": "src",
                                "type": "address",
                                "value": "0xdfee68a9adb981cd08699891a11cabe10f25ec44"
                            },
                            {
                                "name": "dst",
                                "type": "address",
                                "value": "0x18a797c7c70c1bf22fdee1c09062aba709cacf04"
                            },
                            {
                                "decimalAvailable": true,
                                "name": "wad",
                                "type": "uint256",
                                "value": "3,287,787,940,000,000,000"
                            }
                        ],
                        "signature": "Transfer(address,address,uint256)"
                    },
                    "id": 4,
                    "logData": "0x0000000000000000000000000000000000000000000000002da091b644836800",
                    "logDecoded": true,
                    "operation": "EVENT",
                    "revert": true,
                    "status": false,
                    "topics": [
                        "0xddf252ad1be2c89b69c2b068fc378daa952ba7f163c4a11628f55a4df523b3ef",
                        "0x000000000000000000000000dfee68a9adb981cd08699891a11cabe10f25ec44",
                        "0x00000000000000000000000018a797c7c70c1bf22fdee1c09062aba709cacf04"
                    ]
                },
                "nodeType": 1
            },
            "5": {
                "invocation": {
                    "address": "0x18a797c7c70c1bf22fdee1c09062aba709cacf04",
                    "callData": "0x000000000000000000000000000000000000000000000000000000000000000000000000000000000000000000000000000000000000000c73ade4aa162acd4f0000000000000000000000000000000000007f150bd6f54c40a34d7c3d5e9f560000000000000000000000000000000000000000000000000000000000000000",
                    "decodedMethod": {
                        "callParams": [
                            {
                                "name": "amount0Out",
                                "type": "uint256",
                                "value": "0"
                            },
                            {
                                "name": "amount1Out",
                                "type": "uint256",
                                "value": "229,696,498,789,014,752,591"
                            },
                            {
                                "name": "to",
                                "type": "address",
                                "value": "0x0000000000007f150bd6f54c40a34d7c3d5e9f56"
                            },
                            {
                                "name": "data",
                                "type": "bytes",
                                "value": "0x"
                            }
                        ],
                        "constructorArguments": "",
                        "name": "swap",
                        "returnParams": [],
                        "signature": "swap(uint256,uint256,address,bytes)"
                    },
                    "errorInfo": "execution reverted",
                    "fromAddress": "0x0000000000007f150bd6f54c40a34d7c3d5e9f56",
                    "gasUsed": 44852,
                    "id": 5,
                    "methodDecoded": true,
                    "operation": "CALL",
                    "output": "0x08c379a00000000000000000000000000000000000000000000000000000000000000020000000000000000000000000000000000000000000000000000000000000000c556e697377617056323a204b0000000000000000000000000000000000000000",
                    "revert": true,
                    "revertMessage": "UniswapV2: K",
                    "selector": "0x022c0d9f",
                    "status": false,
                    "value": "0"
                },
                "nodeType": 0
            },
            "6": {
                "invocation": {
                    "address": "0xd291e7a03283640fdc51b121ac401383a46cc623",
                    "callData": "0x0000000000000000000000000000000000007f150bd6f54c40a34d7c3d5e9f5600000000000000000000000000000000000000000000000c73ade4aa162acd4f",
                    "decodedMethod": {
                        "callParams": [
                            {
                                "name": "recipient",
                                "type": "address",
                                "value": "0x0000000000007f150bd6f54c40a34d7c3d5e9f56"
                            },
                            {
                                "decimalAvailable": true,
                                "name": "amount",
                                "type": "uint256",
                                "value": "229,696,498,789,014,752,591"
                            }
                        ],
                        "constructorArguments": "",
                        "name": "transfer",
                        "returnParams": [
                            {
                                "name": "",
                                "type": "bool",
                                "value": true
                            }
                        ],
                        "signature": "transfer(address,uint256)"
                    },
                    "errorInfo": "",
                    "fromAddress": "0x18a797c7c70c1bf22fdee1c09062aba709cacf04",
                    "gasUsed": 24936,
                    "id": 6,
                    "methodDecoded": true,
                    "operation": "CALL",
                    "output": "0x0000000000000000000000000000000000000000000000000000000000000001",
                    "revert": true,
                    "revertMessage": "",
                    "selector": "0xa9059cbb",
                    "status": true,
                    "value": "0"
                },
                "nodeType": 0
            },
            "7": {
                "invocation": {
                    "address": "0xb528e8bb2dcb99cfdea4c28bf44925ef58ab1520",
                    "callData": "0x0000000000000000000000000000000000007f150bd6f54c40a34d7c3d5e9f5600000000000000000000000000000000000000000000000c73ade4aa162acd4f",
                    "decodedMethod": {
                        "callParams": [
                            {
                                "name": "recipient",
                                "type": "address",
                                "value": "0x0000000000007f150bd6f54c40a34d7c3d5e9f56"
                            },
                            {
                                "decimalAvailable": true,
                                "name": "amount",
                                "type": "uint256",
                                "value": "229,696,498,789,014,752,591"
                            }
                        ],
                        "constructorArguments": "",
                        "name": "transfer",
                        "returnParams": [
                            {
                                "name": "",
                                "type": "bool",
                                "value": true
                            }
                        ],
                        "signature": "transfer(address,uint256)"
                    },
                    "errorInfo": "",
                    "fromAddress": "0xd291e7a03283640fdc51b121ac401383a46cc623",
                    "gasUsed": 17657,
                    "id": 7,
                    "methodDecoded": true,
                    "operation": "DELEGATECALL",
                    "output": "0x0000000000000000000000000000000000000000000000000000000000000001",
                    "revert": true,
                    "revertMessage": "",
                    "selector": "0xa9059cbb",
                    "status": true,
                    "value": "0"
                },
                "nodeType": 0
            },
            "8": {
                "event": {
                    "contract": "0xd291e7a03283640fdc51b121ac401383a46cc623",
                    "decodedLog": {
                        "name": "Transfer",
                        "params": [
                            {
                                "name": "from",
                                "type": "address",
                                "value": "0x18a797c7c70c1bf22fdee1c09062aba709cacf04"
                            },
                            {
                                "name": "to",
                                "type": "address",
                                "value": "0x0000000000007f150bd6f54c40a34d7c3d5e9f56"
                            },
                            {
                                "decimalAvailable": true,
                                "name": "value",
                                "type": "uint256",
                                "value": "229,696,498,789,014,752,591"
                            }
                        ],
                        "signature": "Transfer(address,address,uint256)"
                    },
                    "id": 8,
                    "logData": "0x00000000000000000000000000000000000000000000000c73ade4aa162acd4f",
                    "logDecoded": true,
                    "operation": "EVENT",
                    "revert": true,
                    "status": false,
                    "topics": [
                        "0xddf252ad1be2c89b69c2b068fc378daa952ba7f163c4a11628f55a4df523b3ef",
                        "0x00000000000000000000000018a797c7c70c1bf22fdee1c09062aba709cacf04",
                        "0x0000000000000000000000000000000000007f150bd6f54c40a34d7c3d5e9f56"
                    ]
                },
                "nodeType": 1
            },
            "9": {
                "invocation": {
                    "address": "0xc02aaa39b223fe8d0a0e5c4f27ead9083c756cc2",
                    "callData": "0x00000000000000000000000018a797c7c70c1bf22fdee1c09062aba709cacf04",
                    "decodedMethod": {
                        "callParams": [
                            {
                                "name": "",
                                "type": "address",
                                "value": "0x18a797c7c70c1bf22fdee1c09062aba709cacf04"
                            }
                        ],
                        "constructorArguments": "",
                        "name": "balanceOf",
                        "returnParams": [
                            {
                                "decimalAvailable": true,
                                "name": "",
                                "type": "uint256",
                                "value": "4,989,736,869,973,111,608,043"
                            }
                        ],
                        "signature": "balanceOf(address)"
                    },
                    "errorInfo": "",
                    "fromAddress": "0x18a797c7c70c1bf22fdee1c09062aba709cacf04",
                    "gasUsed": 534,
                    "id": 9,
                    "methodDecoded": true,
                    "operation": "STATICCALL",
                    "output": "0x00000000000000000000000000000000000000000000010e7e826e7b48cc12eb",
                    "revert": true,
                    "revertMessage": "",
                    "selector": "0x70a08231",
                    "status": true,
                    "value": "0"
                },
                "nodeType": 0
            }
        },
        "gasFlame": [
            {
                "children": [
                    {
                        "children": [
                            {
                                "children": [],
                                "depth": 0,
                                "name": "Initial Gas",
                                "value": 27800
                            },
                            {
                                "children": [
                                    {
                                        "children": [
                                            {
                                                "children": [],
                                                "depth": 2,
                                                "name": "balanceOf",
                                                "value": 2534
                                            },
                                            {
                                                "children": [],
                                                "depth": 2,
                                                "name": "transferFrom",
                                                "value": 13025
                                            },
                                            {
                                                "children": [
                                                    {
                                                        "children": [
                                                            {
                                                                "children": [],
                                                                "depth": 4,
                                                                "name": "transfer",
                                                                "value": 17657
                                                            }
                                                        ],
                                                        "depth": 3,
                                                        "name": "transfer",
                                                        "value": 24936
                                                    },
                                                    {
                                                        "children": [],
                                                        "depth": 3,
                                                        "name": "balanceOf",
                                                        "value": 534
                                                    },
                                                    {
                                                        "children": [
                                                            {
                                                                "children": [],
                                                                "depth": 4,
                                                                "name": "balanceOf",
                                                                "value": 532
                                                            }
                                                        ],
                                                        "depth": 3,
                                                        "name": "balanceOf",
                                                        "value": 1308
                                                    }
                                                ],
                                                "depth": 2,
                                                "name": "swap",
                                                "value": 44852
                                            }
                                        ],
                                        "depth": 1,
                                        "name": "0xe0514792",
                                        "value": 68898
                                    }
                                ],
                                "depth": 0,
                                "name": "Executed Gas",
                                "value": 72365
                            }
                        ],
                        "depth": -1,
                        "name": "Actual Gas Used",
                        "value": 100165
                    },
                    {
                        "children": [],
                        "depth": -1,
                        "name": "Refunded Gas",
                        "value": 0
                    }
                ],
                "depth": -2,
                "name": "Total Gas",
                "value": 100165
            }
        ],
        "isConfirmed": true,
        "mainTrace": [
            {
                "children": [
                    {
                        "children": [
                            {
                                "children": [
                                    {
                                        "children": [],
                                        "depth": 2,
                                        "id": 2,
                                        "order": 2
                                    },
                                    {
                                        "children": [
                                            {
                                                "children": [],
                                                "depth": 3,
                                                "id": 4,
                                                "order": 4
                                            }
                                        ],
                                        "depth": 2,
                                        "id": 3,
                                        "order": 3
                                    },
                                    {
                                        "children": [
                                            {
                                                "children": [
                                                    {
                                                        "children": [
                                                            {
                                                                "children": [],
                                                                "depth": 5,
                                                                "id": 8,
                                                                "order": 8
                                                            }
                                                        ],
                                                        "depth": 4,
                                                        "id": 7,
                                                        "order": 7
                                                    }
                                                ],
                                                "depth": 3,
                                                "id": 6,
                                                "order": 6
                                            },
                                            {
                                                "children": [],
                                                "depth": 3,
                                                "id": 9,
                                                "order": 9
                                            },
                                            {
                                                "children": [
                                                    {
                                                        "children": [],
                                                        "depth": 4,
                                                        "id": 11,
                                                        "order": 11
                                                    }
                                                ],
                                                "depth": 3,
                                                "id": 10,
                                                "order": 10
                                            }
                                        ],
                                        "depth": 2,
                                        "id": 5,
                                        "order": 5
                                    }
                                ],
                                "depth": 1,
                                "id": 1,
                                "order": 1
                            }
                        ],
                        "depth": 0,
                        "id": 0,
                        "order": 0
                    }
                ],
                "depth": -1,
                "id": -1,
                "order": -1
            }
        ],
        "mainTraceNodeCount": 12,
        "parentIdMap": {
            "0": -1,
            "1": 0,
            "10": 5,
            "11": 10,
            "2": 1,
            "3": 1,
            "4": 3,
            "5": 1,
            "6": 5,
            "7": 6,
            "8": 7,
            "9": 5
        },
        "tidyTrace": [
            {
                "children": [
                    {
                        "children": [
                            {
                                "children": [
                                    {
                                        "children": [
                                            {
                                                "children": [],
                                                "depth": 3,
                                                "id": 4,
                                                "order": 4
                                            }
                                        ],
                                        "depth": 2,
                                        "id": 3,
                                        "order": 3
                                    },
                                    {
                                        "children": [
                                            {
                                                "children": [
                                                    {
                                                        "children": [
                                                            {
                                                                "children": [],
                                                                "depth": 5,
                                                                "id": 8,
                                                                "order": 8
                                                            }
                                                        ],
                                                        "depth": 4,
                                                        "id": 7,
                                                        "order": 7
                                                    }
                                                ],
                                                "depth": 3,
                                                "id": 6,
                                                "order": 6
                                            }
                                        ],
                                        "depth": 2,
                                        "id": 5,
                                        "order": 5
                                    }
                                ],
                                "depth": 1,
                                "id": 1,
                                "order": 1
                            }
                        ],
                        "depth": 0,
                        "id": 0,
                        "order": 0
                    }
                ],
                "depth": -1,
                "id": -1,
                "order": -1
            }
        ],
        "tidyTraceNodeCount": 8
    },
    "state_change": {
        "stateChanges": []
    }
}