{
    "balance_change": {
        "balanceChanges": [
            {
                "account": "0xfbb1b73c4f0bda4f67dca266ce6ef42f520fbb98",
                "assets": [
                    {
                        "address": "0xb63b606ac810a52cca15e44bb630fd42d8d1d83d",
                        "amount": "1,776.851",
                        "iconUrl": "https://assets.blocksec.com/icon/5f418bbb243e368e479f81f2bee268b531b75df187a1b2270081a374b11e5e08.png",
                        "isERC1155": false,
                        "isERC721": false,
                        "sign": true,
                        "value": ""
                    }
                ]
            },
            {
                "account": "0x444a26b5ab3edb28be8cd462c48b922594f8e175",
                "assets": [
                    {
                        "address": "0xb63b606ac810a52cca15e44bb630fd42d8d1d83d",
                        "amount": "1,776.851",
                        "iconUrl": "https://assets.blocksec.com/icon/5f418bbb243e368e479f81f2bee268b531b75df187a1b2270081a374b11e5e08.png",
                        "isERC1155": false,
                        "isERC721": false,
                        "sign": false,
                        "value": ""
                    }
                ]
            }
        ]
    },
    "profile": {
        "basic_info": {
            "baseFee": "",
            "blockNumber": 6912941,
            "callData": "0x6ea056a9000000000000000000000000b63b606ac810a52cca15e44bb630fd42d8d1d83d000000000000000000000000000000000000000000000000000000295edb75e0",
            "debugEnable": true,
            "errorInfo": "",
            "eventCount": 2,
            "feeRecipient": "0x52bc44d5378309ee2abf1539bf71de1b7d7be3b5",
            "formatValue": "0",
            "gasLimit": 150000,
            "gasPrice": "50",
            "gasUsed": 47262,
            "intTxnCount": 9,
            "internalRevert": false,
            "internalRevertMessage": "",
            "isContractCreation": false,
            "isFlashloan": false,
            "maxFee": "",
            "nonce": 7009690,
            "overwritedBlockNumber": -1,
            "priorityFee": "",
            "receiver": "0x444a26b5ab3edb28be8cd462c48b922594f8e175",
            "revertMessage": "",
            "sender": "0xfbb1b73c4f0bda4f67dca266ce6ef42f520fbb98",
            "simulationEnable": true,
            "sourceTxnHash": "0xcf76771ca36cf90fad161a7010a8d9dafa38b4b7140a0abe462bffaec08c5bd7",
            "status": true,
            "timestamp": "2018-12-19T04:19:07Z",
            "transactionFee": "0.0023631",
            "txnHash": "0xcf76771ca36cf90fad161a7010a8d9dafa38b4b7140a0abe462bffaec08c5bd7",
            "txnIndex": 90,
            "type": 0,
            "value": "0"
        },
        "fund_flow": [
            {
                "amount": "1,776.851",
                "from": "0x444a26b5ab3edb28be8cd462c48b922594f8e175",
                "id": 1,
                "isERC1155": false,
                "isERC721": false,
                "isReverted": false,
                "order": 1,
                "to": "0xfbb1b73c4f0bda4f67dca266ce6ef42f520fbb98",
                "token": "0xb63b606ac810a52cca15e44bb630fd42d8d1d83d"
            }
        ],
        "token_infos": [
            {
                "address": "0xeeeeeeeeeeeeeeeeeeeeeeeeeeeeeeeeeeeeeeee",
                "decimals": 18
            },
            {
                "address": "0xb63b606ac810a52cca15e44bb630fd42d8d1d83d",
                "decimals": 8
            },
            {
                "address": "0xc02aaa39b223fe8d0a0e5c4f27ead9083c756cc2",
                "decimals": 18
            }
        ]
    },
    "address_label": {
        "labels": [
            {
                "address": "0x0000000000000000000000000000000000000004",
                "label": "Precompiled"
            },
            {
                "address": "0xfbb1b73c4f0bda4f67dca266ce6ef42f520fbb98",
                "label": "Bittrex"
            },
            {
                "address": "0x444a26b5ab3edb28be8cd462c48b922594f8e175",
                "label": "BITTREX"
            },
            {
                "address": "0x6cace0528324a8afc2b157ceba3cdd2a27c4e21f",
                "label": "Bittrex: Wallet Maker"
            },
            {
                "address": "0xb2233fcec42c588ee71a594d9a25aa695345426c",
                "label": "DefaultSweeper"
            },
            {
                "address": "0x0000000000000000000000000000000000000001",
                "label": "Precompiled"
            },
            {
                "address": "0xeeeeeeeeeeeeeeeeeeeeeeeeeeeeeeeeeeeeeeee",
                "label": "Ether"
            },
            {
                "address": "0xb63b606ac810a52cca15e44bb630fd42d8d1d83d",
                "label": "Crypto.com: MCO Token"
            },
            {
                "address": "0xa3c1e324ca1ce40db73ed6026c4a177f099b5770",
                "label": "Bittrex: Controller"
            },
            {
                "address": "0x0000000000000000000000000000000000000002",
                "label": "Precompiled"
            },
            {
                "address": "0x0000000000000000000000000000000000000003",
                "label": "Precompiled"
            }
        ]
    },
    "trace": {
        "accountLabels": null,
        "dataMap": {
            "-1": {
                "invocation": {
                    "address": "0xfbb1b73c4f0bda4f67dca266ce6ef42f520fbb98",
                    "callData": "",
                    "decodedMethod": null,
                    "errorInfo": "",
                    "fromAddress": "",
                    "gasUsed": 0,
                    "id": -1,
                    "methodDecoded": false,
                    "operation": "",
                    "output": "",
                    "revert": false,
                    "revertMessage": "",
                    "selector": "",
                    "status": false,
                    "value": ""
                },
                "nodeType": 0
            },
            "0": {
                "invocation": {
                    "address": "0x444a26b5ab3edb28be8cd462c48b922594f8e175",
                    "callData": "0x000000000000000000000000b63b606ac810a52cca15e44bb630fd42d8d1d83d000000000000000000000000000000000000000000000000000000295edb75e0",
                    "decodedMethod": {
                        "callParams": [
                            {
                                "name": "_token",
                                "type": "address",
                                "value": "0xb63b606ac810a52cca15e44bb630fd42d8d1d83d"
                            },
                            {
                                "name": "_amount",
                                "type": "uint256",
                                "value": "177,685,100,000"
                            }
                        ],
                        "constructorArguments": "",
                        "name": "sweep",
                        "returnParams": [
                            {
                                "name": "",
                                "type": "bool",
                                "value": true
                            }
                        ],
                        "signature": "sweep(address,uint256)"
                    },
                    "errorInfo": "",
                    "fromAddress": "0xfbb1b73c4f0bda4f67dca266ce6ef42f520fbb98",
                    "gasUsed": 47262,
                    "id": 0,
                    "methodDecoded": true,
                    "operation": "CALL",
                    "output": "0x0000000000000000000000000000000000000000000000000000000000000001",
                    "revert": false,
                    "revertMessage": "",
                    "selector": "0x6ea056a9",
                    "status": true,
                    "value": "0"
                },
                "nodeType": 0
            },
            "1": {
                "invocation": {
                    "address": "0xa3c1e324ca1ce40db73ed6026c4a177f099b5770",
                    "callData": "0x000000000000000000000000b63b606ac810a52cca15e44bb630fd42d8d1d83d",
                    "decodedMethod": {
                        "callParams": [
                            {
                                "name": "_token",
                                "type": "address",
                                "value": "0xb63b606ac810a52cca15e44bb630fd42d8d1d83d"
                            }
                        ],
                        "constructorArguments": "",
                        "name": "sweeperOf",
                        "returnParams": [
                            {
                                "name": "",
                                "type": "address",
                                "value": "0xb2233fcec42c588ee71a594d9a25aa695345426c"
                            }
                        ],
                        "signature": "sweeperOf(address)"
                    },
                    "errorInfo": "",
                    "fromAddress": "0x444a26b5ab3edb28be8cd462c48b922594f8e175",
                    "gasUsed": 1051,
                    "id": 1,
                    "methodDecoded": true,
                    "operation": "CALL",
                    "output": "0x000000000000000000000000b2233fcec42c588ee71a594d9a25aa695345426c",
                    "revert": false,
                    "revertMessage": "",
                    "selector": "0x3c18d318",
                    "status": true,
                    "value": "0"
                },
                "nodeType": 0
            },
            "10": {
                "invocation": {
                    "address": "0xa3c1e324ca1ce40db73ed6026c4a177f099b5770",
                    "callData": "0x000000000000000000000000444a26b5ab3edb28be8cd462c48b922594f8e175000000000000000000000000fbb1b73c4f0bda4f67dca266ce6ef42f520fbb98000000000000000000000000b63b606ac810a52cca15e44bb630fd42d8d1d83d000000000000000000000000000000000000000000000000000000295edb75e0",
                    "decodedMethod": {
                        "callParams": [
                            {
                                "name": "from",
                                "type": "address",
                                "value": "0x444a26b5ab3edb28be8cd462c48b922594f8e175"
                            },
                            {
                                "name": "to",
                                "type": "address",
                                "value": "0xfbb1b73c4f0bda4f67dca266ce6ef42f520fbb98"
                            },
                            {
                                "name": "token",
                                "type": "address",
                                "value": "0xb63b606ac810a52cca15e44bb630fd42d8d1d83d"
                            },
                            {
                                "name": "amount",
                                "type": "uint256",
                                "value": "177,685,100,000"
                            }
                        ],
                        "constructorArguments": "",
                        "name": "logSweep",
                        "returnParams": [],
                        "signature": "logSweep(address,address,address,uint256)"
                    },
                    "errorInfo": "",
                    "fromAddress": "0x444a26b5ab3edb28be8cd462c48b922594f8e175",
                    "gasUsed": 2693,
                    "id": 10,
                    "methodDecoded": true,
                    "operation": "CALL",
                    "output": "",
                    "revert": false,
                    "revertMessage": "",
                    "selector": "0x28090abb",
                    "status": true,
                    "value": "0"
                },
                "nodeType": 0
            },
            "11": {
                "event": {
                    "contract": "0xa3c1e324ca1ce40db73ed6026c4a177f099b5770",
                    "decodedLog": {
                        "name": "LogSweep",
                        "params": [
                            {
                                "name": "from",
                                "type": "address",
                                "value": "0x444a26b5ab3edb28be8cd462c48b922594f8e175"
                            },
                            {
                                "name": "to",
                                "type": "address",
                                "value": "0xfbb1b73c4f0bda4f67dca266ce6ef42f520fbb98"
                            },
                            {
                                "name": "token",
                                "type": "address",
                                "value": "0xb63b606ac810a52cca15e44bb630fd42d8d1d83d"
                            },
                            {
                                "name": "amount",
                                "type": "uint256",
                                "value": "177,685,100,000"
                            }
                        ],
                        "signature": "LogSweep(address,address,address,uint256)"
                    },
                    "id": 11,
                    "logData": "0x000000000000000000000000000000000000000000000000000000295edb75e0",
                    "logDecoded": true,
                    "operation": "EVENT",
                    "revert": false,
                    "status": true,
                    "topics": [
                        "0xa64da754fccf55aa65a1f0128a648633fade3884b236e879ee9f64c78df5d5d7",
                        "0x000000000000000000000000444a26b5ab3edb28be8cd462c48b922594f8e175",
                        "0x000000000000000000000000fbb1b73c4f0bda4f67dca266ce6ef42f520fbb98",
                        "0x000000000000000000000000b63b606ac810a52cca15e44bb630fd42d8d1d83d"
                    ]
                },
                "nodeType": 1
            },
            "2": {
                "invocation": {
                    "address": "0xb2233fcec42c588ee71a594d9a25aa695345426c",
                    "callData": "0x000000000000000000000000b63b606ac810a52cca15e44bb630fd42d8d1d83d000000000000000000000000000000000000000000000000000000295edb75e0",
                    "decodedMethod": {
                        "callParams": [
                            {
                                "name": "_token",
                                "type": "address",
                                "value": "0xb63b606ac810a52cca15e44bb630fd42d8d1d83d"
                            },
                            {
                                "name": "_amount",
                                "type": "uint256",
                                "value": "177,685,100,000"
                            }
                        ],
                        "constructorArguments": "",
                        "name": "sweep",
                        "returnParams": [
                            {
                                "name": "",
                                "type": "bool",
                                "value": true
                            }
                        ],
                        "signature": "sweep(address,uint256)"
                    },
                    "errorInfo": "",
                    "fromAddress": "0x444a26b5ab3edb28be8cd462c48b922594f8e175",
                    "gasUsed": 35203,
                    "id": 2,
                    "methodDecoded": true,
                    "operation": "DELEGATECALL",
                    "output": "0x0000000000000000000000000000000000000000000000000000000000000001",
                    "revert": false,
                    "revertMessage": "",
                    "selector": "0x6ea056a9",
                    "status": true,
                    "value": "0"
                },
                "nodeType": 0
            },
            "3": {
                "invocation": {
                    "address": "0xa3c1e324ca1ce40db73ed6026c4a177f099b5770",
                    "callData": "0x",
                    "decodedMethod": {
                        "callParams": [],
                        "constructorArguments": "",
                        "name": "authorizedCaller",
                        "returnParams": [
                            {
                                "name": "",
                                "type": "address",
                                "value": "0x6cace0528324a8afc2b157ceba3cdd2a27c4e21f"
                            }
                        ],
                        "signature": "authorizedCaller()"
                    },
                    "errorInfo": "",
                    "fromAddress": "0x444a26b5ab3edb28be8cd462c48b922594f8e175",
                    "gasUsed": 702,
                    "id": 3,
                    "methodDecoded": true,
                    "operation": "CALL",
                    "output": "0x0000000000000000000000006cace0528324a8afc2b157ceba3cdd2a27c4e21f",
                    "revert": false,
                    "revertMessage": "",
                    "selector": "0x97dc97cb",
                    "status": true,
                    "value": "0"
                },
                "nodeType": 0
            },
            "4": {
                "invocation": {
                    "address": "0xa3c1e324ca1ce40db73ed6026c4a177f099b5770",
                    "callData": "0x",
                    "decodedMethod": {
                        "callParams": [],
                        "constructorArguments": "",
                        "name": "owner",
                        "returnParams": [
                            {
                                "name": "",
                                "type": "address",
                                "value": "0xfbb1b73c4f0bda4f67dca266ce6ef42f520fbb98"
                            }
                        ],
                        "signature": "owner()"
                    },
                    "errorInfo": "",
                    "fromAddress": "0x444a26b5ab3edb28be8cd462c48b922594f8e175",
                    "gasUsed": 680,
                    "id": 4,
                    "methodDecoded": true,
                    "operation": "CALL",
                    "output": "0x000000000000000000000000fbb1b73c4f0bda4f67dca266ce6ef42f520fbb98",
                    "revert": false,
                    "revertMessage": "",
                    "selector": "0x8da5cb5b",
                    "status": true,
                    "value": "0"
                },
                "nodeType": 0
            },
            "5": {
                "invocation": {
                    "address": "0xa3c1e324ca1ce40db73ed6026c4a177f099b5770",
                    "callData": "0x",
                    "decodedMethod": {
                        "callParams": [],
                        "constructorArguments": "",
                        "name": "halted",
                        "returnParams": [
                            {
                                "name": "",
                                "type": "bool",
                                "value": false
                            }
                        ],
                        "signature": "halted()"
                    },
                    "errorInfo": "",
                    "fromAddress": "0x444a26b5ab3edb28be8cd462c48b922594f8e175",
                    "gasUsed": 660,
                    "id": 5,
                    "methodDecoded": true,
                    "operation": "CALL",
                    "output": "0x0000000000000000000000000000000000000000000000000000000000000000",
                    "revert": false,
                    "revertMessage": "",
                    "selector": "0xb9b8af0b",
                    "status": true,
                    "value": "0"
                },
                "nodeType": 0
            },
            "6": {
                "invocation": {
                    "address": "0xa3c1e324ca1ce40db73ed6026c4a177f099b5770",
                    "callData": "0x",
                    "decodedMethod": {
                        "callParams": [],
                        "constructorArguments": "",
                        "name": "destination",
                        "returnParams": [
                            {
                                "name": "",
                                "type": "address",
                                "value": "0xfbb1b73c4f0bda4f67dca266ce6ef42f520fbb98"
                            }
                        ],
                        "signature": "destination()"
                    },
                    "errorInfo": "",
                    "fromAddress": "0x444a26b5ab3edb28be8cd462c48b922594f8e175",
                    "gasUsed": 768,
                    "id": 6,
                    "methodDecoded": true,
                    "operation": "CALL",
                    "output": "0x000000000000000000000000fbb1b73c4f0bda4f67dca266ce6ef42f520fbb98",
                    "revert": false,
                    "revertMessage": "",
                    "selector": "0xb269681d",
                    "status": true,
                    "value": "0"
                },
                "nodeType": 0
            },
            "7": {
                "invocation": {
                    "address": "0xb63b606ac810a52cca15e44bb630fd42d8d1d83d",
                    "callData": "0x000000000000000000000000444a26b5ab3edb28be8cd462c48b922594f8e175",
                    "decodedMethod": {
                        "callParams": [
                            {
                                "name": "_owner",
                                "type": "address",
                                "value": "0x444a26b5ab3edb28be8cd462c48b922594f8e175"
                            }
                        ],
                        "constructorArguments": "",
                        "name": "balanceOf",
                        "returnParams": [
                            {
                                "decimalAvailable": true,
                                "name": "balance",
                                "type": "uint256",
                                "value": "177,685,100,000"
                            }
                        ],
                        "signature": "balanceOf(address)"
                    },
                    "errorInfo": "",
                    "fromAddress": "0x444a26b5ab3edb28be8cd462c48b922594f8e175",
                    "gasUsed": 1015,
                    "id": 7,
                    "methodDecoded": true,
                    "operation": "CALL",
                    "output": "0x000000000000000000000000000000000000000000000000000000295edb75e0",
                    "revert": false,
                    "revertMessage": "",
                    "selector": "0x70a08231",
                    "status": true,
                    "value": "0"
                },
                "nodeType": 0
            },
            "8": {
                "invocation": {
                    "address": "0xb63b606ac810a52cca15e44bb630fd42d8d1d83d",
                    "callData": "0x000000000000000000000000fbb1b73c4f0bda4f67dca266ce6ef42f520fbb98000000000000000000000000000000000000000000000000000000295edb75e0",
                    "decodedMethod": {
                        "callParams": [
                            {
                                "name": "_to",
                                "type": "address",
                                "value": "0xfbb1b73c4f0bda4f67dca266ce6ef42f520fbb98"
                            },
                            {
                                "decimalAvailable": true,
                                "name": "_value",
                                "type": "uint256",
                                "value": "177,685,100,000"
                            }
                        ],
                        "constructorArguments": "",
                        "name": "transfer",
                        "returnParams": [
                            {
                                "name": "success",
                                "type": "bool",
                                "value": true
                            }
                        ],
                        "signature": "transfer(address,uint256)"
                    },
                    "errorInfo": "",
                    "fromAddress": "0x444a26b5ab3edb28be8cd462c48b922594f8e175",
                    "gasUsed": 14272,
                    "id": 8,
                    "methodDecoded": true,
                    "operation": "CALL",
                    "output": "0x0000000000000000000000000000000000000000000000000000000000000001",
                    "revert": false,
                    "revertMessage": "",
                    "selector": "0xa9059cbb",
                    "status": true,
                    "value": "0"
                },
                "nodeType": 0
            },
            "9": {
                "event": {
                    "contract": "0xb63b606ac810a52cca15e44bb630fd42d8d1d83d",
                    "decodedLog": {
                        "name": "Transfer",
                        "params": [
                            {
                                "name": "from",
                                "type": "address",
                                "value": "0x444a26b5ab3edb28be8cd462c48b922594f8e175"
                            },
                            {
                                "name": "to",
                                "type": "address",
                                "value": "0xfbb1b73c4f0bda4f67dca266ce6ef42f520fbb98"
                            },
                            {
                                "decimalAvailable": true,
                                "name": "value",
                                "type": "uint256",
                                "value": "177,685,100,000"
                            }
                        ],
                        "signature": "Transfer(address,address,uint256)"
                    },
                    "id": 9,
                    "logData": "0x000000000000000000000000000000000000000000000000000000295edb75e0",
                    "logDecoded": true,
                    "operation": "EVENT",
                    "revert": false,
                    "status": true,
                    "topics": [
                        "0xddf252ad1be2c89b69c2b068fc378daa952ba7f163c4a11628f55a4df523b3ef",
                        "0x000000000000000000000000444a26b5ab3edb28be8cd462c48b922594f8e175",
                        "0x000000000000000000000000fbb1b73c4f0bda4f67dca266ce6ef42f520fbb98"
                    ]
                },
                "nodeType": 1
            }
        },
        "gasFlame": [
            {
                "children": [
                    {
                        "children": [
                            {
                                "children": [],
                                "depth": 0,
                                "name": "Initial Gas",
                                "value": 23128
                            },
                            {
                                "children": [
                                    {
                                        "children": [],
                                        "depth": 1,
                                        "name": "sweeperOf",
                                        "value": 1051
                                    },
                                    {
                                        "children": [
                                            {
                                                "children": [],
                                                "depth": 2,
                                                "name": "authorizedCaller",
                                                "value": 702
                                            },
                                            {
                                                "children": [],
                                                "depth": 2,
                                                "name": "owner",
                                                "value": 680
                                            },
                                            {
                                                "children": [],
                                                "depth": 2,
                                                "name": "halted",
                                                "value": 660
                                            },
                                            {
                                                "children": [],
                                                "depth": 2,
                                                "name": "destination",
                                                "value": 768
                                            },
                                            {
                                                "children": [],
                                                "depth": 2,
                                                "name": "balanceOf",
                                                "value": 1015
                                            },
                                            {
                                                "children": [],
                                                "depth": 2,
                                                "name": "transfer",
                                                "value": 14272
                                            },
                                            {
                                                "children": [],
                                                "depth": 2,
                                                "name": "logSweep",
                                                "value": 2693
                                            }
                                        ],
                                        "depth": 1,
                                        "name": "sweep",
                                        "value": 35203
                                    }
                                ],
                                "depth": 0,
                                "name": "Executed Gas",
                                "value": 39134
                            }
                        ],
                        "depth": -1,
                        "name": "Actual Gas Used",
                        "value": 47262
                    },
                    {
                        "children": [],
                        "depth": -1,
                        "name": "Refunded Gas",
                        "value": 15000
                    }
                ],
                "depth": -2,
                "name": "Total Gas",
                "value": 62262
            }
        ],
        "isConfirmed": true,
        "mainTrace": [
            {
                "children": [
                    {
                        "children": [
                            {
                                "children": [],
                                "depth": 1,
                                "id": 1,
                                "order": 1
                            },
                            {
                                "children": [
                                    {
                                        "children": [],
                                        "depth": 2,
                                        "id": 3,
                                        "order": 3
                                    },
                                    {
                                        "children": [],
                                        "depth": 2,
                                        "id": 4,
                                        "order": 4
                                    },
                                    {
                                        "children": [],
                                        "depth": 2,
                                        "id": 5,
                                        "order": 5
                                    },
                                    {
                                        "children": [],
                                        "depth": 2,
                                        "id": 6,
                                        "order": 6
                                    },
                                    {
                                        "children": [],
                                        "depth": 2,
                                        "id": 7,
                                        "order": 7
                                    },
                                    {
                                        "children": [
                                            {
                                                "children": [],
                                                "depth": 3,
                                                "id": 9,
                                                "order": 9
                                            }
                                        ],
                                        "depth": 2,
                                        "id": 8,
                                        "order": 8
                                    },
                                    {
                                        "children": [
                                            {
                                                "children": [],
                                                "depth": 3,
                                                "id": 11,
                                                "order": 11
                                            }
                                        ],
                                        "depth": 2,
                                        "id": 10,
                                        "order": 10
                                    }
                                ],
                                "depth": 1,
                                "id": 2,
                                "order": 2
                            }
                        ],
                        "depth": 0,
                        "id": 0,
                        "order": 0
                    }
                ],
                "depth": -1,
                "id": -1,
                "order": -1
            }
        ],
        "mainTraceNodeCount": 12,
        "parentIdMap": {
            "0": -1,
            "1": 0,
            "10": 2,
            "11": 10,
            "2": 0,
            "3": 2,
            "4": 2,
            "5": 2,
            "6": 2,
            "7": 2,
            "8": 2,
            "9": 8
        },
        "tidyTrace": [
            {
                "children": [
                    {
                        "children": [
                            {
                                "children": [],
                                "depth": 1,
                                "id": 1,
                                "order": 1
                            },
                            {
                                "children": [
                                    {
                                        "children": [],
                                        "depth": 2,
                                        "id": 3,
                                        "order": 3
                                    },
                                    {
                                        "children": [],
                                        "depth": 2,
                                        "id": 4,
                                        "order": 4
                                    },
                                    {
                                        "children": [],
                                        "depth": 2,
                                        "id": 5,
                                        "order": 5
                                    },
                                    {
                                        "children": [],
                                        "depth": 2,
                                        "id": 6,
                                        "order": 6
                                    },
                                    {
                                        "children": [],
                                        "depth": 2,
                                        "id": 7,
                                        "order": 7
                                    },
                                    {
                                        "children": [
                                            {
                                                "children": [],
                                                "depth": 3,
                                                "id": 9,
                                                "order": 9
                                            }
                                        ],
                                        "depth": 2,
                                        "id": 8,
                                        "order": 8
                                    },
                                    {
                                        "children": [
                                            {
                                                "children": [],
                                                "depth": 3,
                                                "id": 11,
                                                "order": 11
                                            }
                                        ],
                                        "depth": 2,
                                        "id": 10,
                                        "order": 10
                                    }
                                ],
                                "depth": 1,
                                "id": 2,
                                "order": 2
                            }
                        ],
                        "depth": 0,
                        "id": 0,
                        "order": 0
                    }
                ],
                "depth": -1,
                "id": -1,
                "order": -1
            }
        ],
        "tidyTraceNodeCount": 12
    },
    "state_change": {
        "stateChanges": [
            {
                "address": "0xb63b606ac810a52cca15e44bb630fd42d8d1d83d",
                "erc": "ERC-20",
                "slots": [
                    {
                        "current": "0x0000000000000000000000000000000000000000000000000000000000000000",
                        "key": "0x080ac1f8111797fd934d92678bd92102e4a1de6a1c0295f9eace24fbddca910b",
                        "prev": "0x000000000000000000000000000000000000000000000000000000295edb75e0"
                    },
                    {
                        "current": "0x0000000000000000000000000000000000000000000000000000c224dbd807f6",
                        "key": "0xc39fa2f9f6840acacbf351eafb282414a00c711119269d645c4d10c2b8bca396",
                        "prev": "0x0000000000000000000000000000000000000000000000000000c1fb7cfc9216"
                    }
                ],
                "storageVariables": []
            }
        ]
    }
}