{
    "balance_change": {
        "balanceChanges": []
    },
    "profile": {
        "basic_info": {
            "baseFee": "",
            "blockNumber": 5478430,
            "callData": "0x0a19b14a00000000000000000000000000000000000000000000000000000000000000000000000000000000000000000000000000000000000000000038a5e49cf19000000000000000000000000000e7d7b37e72510309db27c460378f957b1b04bd5d0000000000000000000000000000000000000000000000004563918244f40000000000000000000000000000000000000000000000000000000000000053bf2700000000000000000000000000000000000000000000000000000000b1d3b8d70000000000000000000000008f46afc4c5f77e4ba555f98155c413a57ed55d39000000000000000000000000000000000000000000000000000000000000001b97b4ca14eae1e7ab6fc5186412d0c32ec14eac4184a3ccef5b8bb8408a95bc2d1a4f546e72f96541e470cb3c9930ef2322f429261844b3dd323e48d12e302e11000000000000000000000000000000000000000000000000000261145a8f4400",
            "debugEnable": true,
            "errorInfo": "",
            "eventCount": 1,
            "feeRecipient": "0xea674fdde714fd979de3edf0f56aa9716b898ec8",
            "formatValue": "0",
            "gasLimit": 250000,
            "gasPrice": "2",
            "gasUsed": 96574,
            "intTxnCount": 3,
            "internalRevert": false,
            "internalRevertMessage": "",
            "isContractCreation": false,
            "isFlashloan": false,
            "maxFee": "",
            "nonce": 16,
            "overwritedBlockNumber": -1,
            "priorityFee": "",
            "receiver": "0x1ce7ae555139c5ef5a57cc8d814a867ee6ee33d8",
            "revertMessage": "",
            "sender": "0xb3485bbe589d9685a1ac2231a5cd3cdd5bcea2e0",
            "simulationEnable": true,
            "sourceTxnHash": "0xcfff7714ba5850da4ebd49659ae3c708e2ee7115f90ac4f80cd77570ed47a3bb",
            "status": true,
            "timestamp": "2018-04-21T06:08:36Z",
            "transactionFee": "0.000193148",
            "txnHash": "0xcfff7714ba5850da4ebd49659ae3c708e2ee7115f90ac4f80cd77570ed47a3bb",
            "txnIndex": 113,
            "type": 0,
            "value": "0"
        },
        "fund_flow": [],
        "token_infos": [
            {
                "address": "0xc02aaa39b223fe8d0a0e5c4f27ead9083c756cc2",
                "decimals": 18
            },
            {
                "address": "0xeeeeeeeeeeeeeeeeeeeeeeeeeeeeeeeeeeeeeeee",
                "decimals": 18
            }
        ]
    },
    "address_label": {
        "labels": [
            {
                "address": "0xeeeeeeeeeeeeeeeeeeeeeeeeeeeeeeeeeeeeeeee",
                "label": "Ether"
            },
            {
                "address": "0x1ce7ae555139c5ef5a57cc8d814a867ee6ee33d8",
                "label": "Token.Store"
            },
            {
                "address": "0x0000000000000000000000000000000000000002",
                "label": "Precompiled"
            },
            {
                "address": "0x0000000000000000000000000000000000000000",
                "label": "Null Address"
            },
            {
                "address": "0xe7d7b37e72510309db27c460378f957b1b04bd5d",
                "label": "empowr (EMPR)"
            },
            {
                "address": "0x0000000000000000000000000000000000000003",
                "label": "Precompiled"
            },
            {
                "address": "0x0000000000000000000000000000000000000004",
                "label": "Precompiled"
            },
            {
                "address": "0x6927d2026befaad51eb6cf48a0c612453f46ec09",
                "label": "AccountModifiers"
            },
            {
                "address": "0x0000000000000000000000000000000000000001",
                "label": "Precompiled"
            }
        ]
    },
    "trace": {
        "accountLabels": null,
        "dataMap": {
            "-1": {
                "invocation": {
                    "address": "0xb3485bbe589d9685a1ac2231a5cd3cdd5bcea2e0",
                    "callData": "",
                    "decodedMethod": null,
                    "errorInfo": "",
                    "fromAddress": "",
                    "gasUsed": 0,
                    "id": -1,
                    "methodDecoded": false,
                    "operation": "",
                    "output": "",
                    "revert": false,
                    "revertMessage": "",
                    "selector": "",
                    "status": false,
                    "value": ""
                },
                "nodeType": 0
            },
            "0": {
                "invocation": {
                    "address": "0x1ce7ae555139c5ef5a57cc8d814a867ee6ee33d8",
                    "callData": "0x00000000000000000000000000000000000000000000000000000000000000000000000000000000000000000000000000000000000000000038a5e49cf19000000000000000000000000000e7d7b37e72510309db27c460378f957b1b04bd5d0000000000000000000000000000000000000000000000004563918244f40000000000000000000000000000000000000000000000000000000000000053bf2700000000000000000000000000000000000000000000000000000000b1d3b8d70000000000000000000000008f46afc4c5f77e4ba555f98155c413a57ed55d39000000000000000000000000000000000000000000000000000000000000001b97b4ca14eae1e7ab6fc5186412d0c32ec14eac4184a3ccef5b8bb8408a95bc2d1a4f546e72f96541e470cb3c9930ef2322f429261844b3dd323e48d12e302e11000000000000000000000000000000000000000000000000000261145a8f4400",
                    "decodedMethod": {
                        "callParams": [
                            {
                                "name": "_tokenGet",
                                "type": "address",
                                "value": "0x0000000000000000000000000000000000000000"
                            },
                            {
                                "name": "_amountGet",
                                "type": "uint256",
                                "value": "15,945,000,000,000,000"
                            },
                            {
                                "name": "_tokenGive",
                                "type": "address",
                                "value": "0xe7d7b37e72510309db27c460378f957b1b04bd5d"
                            },
                            {
                                "name": "_amountGive",
                                "type": "uint256",
                                "value": "5,000,000,000,000,000,000"
                            },
                            {
                                "name": "_expires",
                                "type": "uint256",
                                "value": "5,488,423"
                            },
                            {
                                "name": "_nonce",
                                "type": "uint256",
                                "value": "2,983,442,647"
                            },
                            {
                                "name": "_user",
                                "type": "address",
                                "value": "0x8f46afc4c5f77e4ba555f98155c413a57ed55d39"
                            },
                            {
                                "name": "_v",
                                "type": "uint8",
                                "value": "27"
                            },
                            {
                                "name": "_r",
                                "type": "bytes32",
                                "value": "0x97b4ca14eae1e7ab6fc5186412d0c32ec14eac4184a3ccef5b8bb8408a95bc2d"
                            },
                            {
                                "name": "_s",
                                "type": "bytes32",
                                "value": "0x1a4f546e72f96541e470cb3c9930ef2322f429261844b3dd323e48d12e302e11"
                            },
                            {
                                "name": "_amount",
                                "type": "uint256",
                                "value": "669,690,000,000,000"
                            }
                        ],
                        "constructorArguments": "",
                        "name": "trade",
                        "returnParams": [],
                        "signature": "trade(address,uint256,address,uint256,uint256,uint256,address,uint8,bytes32,bytes32,uint256)"
                    },
                    "errorInfo": "",
                    "fromAddress": "0xb3485bbe589d9685a1ac2231a5cd3cdd5bcea2e0",
                    "gasUsed": 96574,
                    "id": 0,
                    "methodDecoded": true,
                    "operation": "CALL",
                    "output": "",
                    "revert": false,
                    "revertMessage": "",
                    "selector": "0x0a19b14a",
                    "status": true,
                    "value": "0"
                },
                "nodeType": 0
            },
            "1": {
                "invocation": {
                    "address": "0x0000000000000000000000000000000000000002",
                    "callData": "0x5139c5ef5a57cc8d814a867ee6ee33d800000000000000000000000000000000000000000000000000000000000000000000000000000000000000000038a5e49cf19000e7d7b37e72510309db27c460378f957b1b04bd5d0000000000000000000000000000000000000000000000004563918244f40000000000000000000000000000000000000000000000000000000000000053bf2700000000000000000000000000000000000000000000000000000000b1d3b8d7",
                    "decodedMethod": {
                        "callParams": [
                            {
                                "name": "data",
                                "type": "bytes",
                                "value": "0x1ce7ae555139c5ef5a57cc8d814a867ee6ee33d800000000000000000000000000000000000000000000000000000000000000000000000000000000000000000038a5e49cf19000e7d7b37e72510309db27c460378f957b1b04bd5d0000000000000000000000000000000000000000000000004563918244f40000000000000000000000000000000000000000000000000000000000000053bf2700000000000000000000000000000000000000000000000000000000b1d3b8d7"
                            }
                        ],
                        "constructorArguments": "",
                        "name": "sha256hash",
                        "returnParams": [
                            {
                                "name": "hash",
                                "type": "bytes32",
                                "value": "0xd76187c10f94c6bdb1bc9d8f9b3e9b8b1e6d43ac58eacf56b1b7ba7223eba56d"
                            }
                        ],
                        "signature": "sha256hash(bytes)"
                    },
                    "errorInfo": "",
                    "fromAddress": "0x1ce7ae555139c5ef5a57cc8d814a867ee6ee33d8",
                    "gasUsed": 132,
                    "id": 1,
                    "methodDecoded": true,
                    "operation": "CALL",
                    "output": "0xd76187c10f94c6bdb1bc9d8f9b3e9b8b1e6d43ac58eacf56b1b7ba7223eba56d",
                    "revert": false,
                    "revertMessage": "",
                    "selector": "0x1ce7ae55",
                    "status": true,
                    "value": "0"
                },
                "nodeType": 0
            },
            "2": {
                "invocation": {
                    "address": "0x0000000000000000000000000000000000000001",
                    "callData": "0x322618d893266f0232b997875407d6bff2990170c0fea5622e55771d000000000000000000000000000000000000000000000000000000000000001b97b4ca14eae1e7ab6fc5186412d0c32ec14eac4184a3ccef5b8bb8408a95bc2d1a4f546e72f96541e470cb3c9930ef2322f429261844b3dd323e48d12e302e11",
                    "decodedMethod": {
                        "callParams": [
                            {
                                "name": "hash",
                                "type": "bytes32",
                                "value": "0x651eac42322618d893266f0232b997875407d6bff2990170c0fea5622e55771d"
                            },
                            {
                                "name": "v",
                                "type": "uint256",
                                "value": "27"
                            },
                            {
                                "name": "r",
                                "type": "bytes32",
                                "value": "0x97b4ca14eae1e7ab6fc5186412d0c32ec14eac4184a3ccef5b8bb8408a95bc2d"
                            },
                            {
                                "name": "s",
                                "type": "bytes32",
                                "value": "0x1a4f546e72f96541e470cb3c9930ef2322f429261844b3dd323e48d12e302e11"
                            }
                        ],
                        "constructorArguments": "",
                        "name": "ecrecover",
                        "returnParams": [
                            {
                                "name": "",
                                "type": "address",
                                "value": "0x8f46afc4c5f77e4ba555f98155c413a57ed55d39"
                            }
                        ],
                        "signature": "ecrecover(bytes32,uint256,bytes32,bytes32)"
                    },
                    "errorInfo": "",
                    "fromAddress": "0x1ce7ae555139c5ef5a57cc8d814a867ee6ee33d8",
                    "gasUsed": 3000,
                    "id": 2,
                    "methodDecoded": true,
                    "operation": "CALL",
                    "output": "0x0000000000000000000000008f46afc4c5f77e4ba555f98155c413a57ed55d39",
                    "revert": false,
                    "revertMessage": "",
                    "selector": "0x651eac42",
                    "status": true,
                    "value": "0"
                },
                "nodeType": 0
            },
            "3": {
                "invocation": {
                    "address": "0x6927d2026befaad51eb6cf48a0c612453f46ec09",
                    "callData": "0x0000000000000000000000008f46afc4c5f77e4ba555f98155c413a57ed55d39000000000000000000000000b3485bbe589d9685a1ac2231a5cd3cdd5bcea2e0",
                    "decodedMethod": {
                        "callParams": [
                            {
                                "name": "_maker",
                                "type": "address",
                                "value": "0x8f46afc4c5f77e4ba555f98155c413a57ed55d39"
                            },
                            {
                                "name": "_taker",
                                "type": "address",
                                "value": "0xb3485bbe589d9685a1ac2231a5cd3cdd5bcea2e0"
                            }
                        ],
                        "constructorArguments": "",
                        "name": "tradeModifiers",
                        "returnParams": [
                            {
                                "name": "",
                                "type": "uint256",
                                "value": "90"
                            },
                            {
                                "name": "",
                                "type": "uint256",
                                "value": "0"
                            }
                        ],
                        "signature": "tradeModifiers(address,address)"
                    },
                    "errorInfo": "",
                    "fromAddress": "0x1ce7ae555139c5ef5a57cc8d814a867ee6ee33d8",
                    "gasUsed": 2155,
                    "id": 3,
                    "methodDecoded": true,
                    "operation": "CALL",
                    "output": "0x000000000000000000000000000000000000000000000000000000000000005a0000000000000000000000000000000000000000000000000000000000000000",
                    "revert": false,
                    "revertMessage": "",
                    "selector": "0xe97fe114",
                    "status": true,
                    "value": "0"
                },
                "nodeType": 0
            },
            "4": {
                "event": {
                    "contract": "0x1ce7ae555139c5ef5a57cc8d814a867ee6ee33d8",
                    "decodedLog": {
                        "name": "Trade",
                        "params": [
                            {
                                "name": "tokenGet",
                                "type": "address",
                                "value": "0x0000000000000000000000000000000000000000"
                            },
                            {
                                "name": "amountGet",
                                "type": "uint256",
                                "value": "669,690,000,000,000"
                            },
                            {
                                "name": "tokenGive",
                                "type": "address",
                                "value": "0xe7d7b37e72510309db27c460378f957b1b04bd5d"
                            },
                            {
                                "name": "amountGive",
                                "type": "uint256",
                                "value": "210,000,000,000,000,000"
                            },
                            {
                                "name": "get",
                                "type": "address",
                                "value": "0x8f46afc4c5f77e4ba555f98155c413a57ed55d39"
                            },
                            {
                                "name": "give",
                                "type": "address",
                                "value": "0xb3485bbe589d9685a1ac2231a5cd3cdd5bcea2e0"
                            },
                            {
                                "name": "nonce",
                                "type": "uint256",
                                "value": "2,983,442,647"
                            }
                        ],
                        "signature": "Trade(address,uint256,address,uint256,address,address,uint256)"
                    },
                    "id": 4,
                    "logData": "0x0000000000000000000000000000000000000000000000000000000000000000000000000000000000000000000000000000000000000000000261145a8f4400000000000000000000000000e7d7b37e72510309db27c460378f957b1b04bd5d00000000000000000000000000000000000000000000000002ea11e32ad500000000000000000000000000008f46afc4c5f77e4ba555f98155c413a57ed55d39000000000000000000000000b3485bbe589d9685a1ac2231a5cd3cdd5bcea2e000000000000000000000000000000000000000000000000000000000b1d3b8d7",
                    "logDecoded": true,
                    "operation": "EVENT",
                    "revert": false,
                    "status": true,
                    "topics": [
                        "0x3314c351c2a2a45771640a1442b843167a4da29bd543612311c031bbfb4ffa98"
                    ]
                },
                "nodeType": 1
            }
        },
        "gasFlame": [
            {
                "children": [
                    {
                        "children": [
                            {
                                "children": [],
                                "depth": 0,
                                "name": "Initial Gas",
                                "value": 31000
                            },
                            {
                                "children": [
                                    {
                                        "children": [],
                                        "depth": 1,
                                        "name": "sha256hash",
                                        "value": 132
                                    },
                                    {
                                        "children": [],
                                        "depth": 1,
                                        "name": "ecrecover",
                                        "value": 3000
                                    },
                                    {
                                        "children": [],
                                        "depth": 1,
                                        "name": "tradeModifiers",
                                        "value": 2155
                                    }
                                ],
                                "depth": 0,
                                "name": "Executed Gas",
                                "value": 65574
                            }
                        ],
                        "depth": -1,
                        "name": "Actual Gas Used",
                        "value": 96574
                    },
                    {
                        "children": [],
                        "depth": -1,
                        "name": "Refunded Gas",
                        "value": 0
                    }
                ],
                "depth": -2,
                "name": "Total Gas",
                "value": 96574
            }
        ],
        "isConfirmed": true,
        "mainTrace": [
            {
                "children": [
                    {
                        "children": [
                            {
                                "children": [],
                                "depth": 1,
                                "id": 1,
                                "order": 1
                            },
                            {
                                "children": [],
                                "depth": 1,
                                "id": 2,
                                "order": 2
                            },
                            {
                                "children": [],
                                "depth": 1,
                                "id": 3,
                                "order": 3
                            },
                            {
                                "children": [],
                                "depth": 1,
                                "id": 4,
                                "order": 4
                            }
                        ],
                        "depth": 0,
                        "id": 0,
                        "order": 0
                    }
                ],
                "depth": -1,
                "id": -1,
                "order": -1
            }
        ],
        "mainTraceNodeCount": 5,
        "parentIdMap": {
            "0": -1,
            "1": 0,
            "2": 0,
            "3": 0,
            "4": 0
        },
        "tidyTrace": [
            {
                "children": [
                    {
                        "children": [
                            {
                                "children": [],
                                "depth": 1,
                                "id": 1,
                                "order": 1
                            },
                            {
                                "children": [],
                                "depth": 1,
                                "id": 2,
                                "order": 2
                            },
                            {
                                "children": [],
                                "depth": 1,
                                "id": 3,
                                "order": 3
                            },
                            {
                                "children": [],
                                "depth": 1,
                                "id": 4,
                                "order": 4
                            }
                        ],
                        "depth": 0,
                        "id": 0,
                        "order": 0
                    }
                ],
                "depth": -1,
                "id": -1,
                "order": -1
            }
        ],
        "tidyTraceNodeCount": 5
    },
    "state_change": {
        "stateChanges": [
            {
                "address": "0x1ce7ae555139c5ef5a57cc8d814a867ee6ee33d8",
                "erc": "",
                "slots": [
                    {
                        "current": "0x000000000000000000000000000000000000000000000000000261145a8f4400",
                        "key": "0x17dfe1cad12ab4f4781cb725dc4f00e197039a184f5f0fcec38a2738a8f681b5",
                        "prev": "0x0000000000000000000000000000000000000000000000000000000000000000"
                    },
                    {
                        "current": "0x000000000000000000000000000000000000000000000000123ed8a60ce93db6",
                        "key": "0x28acb948584a42b867340120bec894a687774a2fc21c584322198a2137becf75",
                        "prev": "0x000000000000000000000000000000000000000000000000123c7791b259f9b6"
                    },
                    {
                        "current": "0x000000000000000000000000000000000000000000000000000004ecbefc51c0",
                        "key": "0xd79964e7763e4c85783554c98d4e0e74d894de6a396dd749a1a923a5bbc4d538",
                        "prev": "0x0000000000000000000000000000000000000000000000000002662fe0891e80"
                    },
                    {
                        "current": "0x000000000000000000000000000000000000000000000004d36280d08ddad23f",
                        "key": "0x7ba2f99d324c5e003a0cdcbcba0535a3a9b7d539185041a2e261450f98993fe8",
                        "prev": "0x000000000000000000000000000000000000000000000004d64c92b3b8afd23f"
                    },
                    {
                        "current": "0x00000000000000000000000000000000000000000000000421a3dcb7814b8000",
                        "key": "0x45fe01328bdce1bd4bb1c9b8e36c0b4ca19404075fbaed30dfda97da2ef9e16c",
                        "prev": "0x0000000000000000000000000000000000000000000000041eb9cad456768000"
                    },
                    {
                        "current": "0x000000000000000000000000000000000000000000000000a070d7aed2732938",
                        "key": "0xe0554e997229a4475dbfdc2f6138b5ddb09d85567b5bf8eed2737759b576d059",
                        "prev": "0x000000000000000000000000000000000000000000000000a070d7800b75a078"
                    }
                ],
                "storageVariables": [
                    {
                        "name": "orderFills",
                        "type": "mapping(address => mapping(bytes32 => uint256))",
                        "value": {
                            "pairs": [
                                {
                                    "key": "0x8f46afc4c5f77e4ba555f98155c413a57ed55d39",
                                    "value": {
                                        "pairs": [
                                            {
                                                "key": "0xd76187c10f94c6bdb1bc9d8f9b3e9b8b1e6d43ac58eacf56b1b7ba7223eba56d",
                                                "value": {
                                                    "current": "669690000000000",
                                                    "prev": "0",
                                                    "typeTag": 1
                                                }
                                            }
                                        ],
                                        "typeTag": 4
                                    }
                                }
                            ],
                            "typeTag": 4
                        }
                    },
                    {
                        "name": "tokens",
                        "type": "mapping(address => mapping(address => uint256))",
                        "value": {
                            "pairs": [
                                {
                                    "key": "0x0000000000000000000000000000000000000000",
                                    "value": {
                                        "pairs": [
                                            {
                                                "key": "0x8f46afc4c5f77e4ba555f98155c413a57ed55d39",
                                                "value": {
                                                    "current": "1314726348931546550",
                                                    "prev": "1314056658931546550",
                                                    "typeTag": 1
                                                }
                                            },
                                            {
                                                "key": "0x9824b0029d3e13fba957d26f97fb7b1904c874aa",
                                                "value": {
                                                    "current": "11560977389315107128",
                                                    "prev": "11560977188408107128",
                                                    "typeTag": 1
                                                }
                                            },
                                            {
                                                "key": "0xb3485bbe589d9685a1ac2231a5cd3cdd5bcea2e0",
                                                "value": {
                                                    "current": "5414863000000",
                                                    "prev": "675305770000000",
                                                    "typeTag": 1
                                                }
                                            }
                                        ],
                                        "typeTag": 4
                                    }
                                },
                                {
                                    "key": "0xe7d7b37e72510309db27c460378f957b1b04bd5d",
                                    "value": {
                                        "pairs": [
                                            {
                                                "key": "0x8f46afc4c5f77e4ba555f98155c413a57ed55d39",
                                                "value": {
                                                    "current": "89018854817780126271",
                                                    "prev": "89228854817780126271",
                                                    "typeTag": 1
                                                }
                                            },
                                            {
                                                "key": "0xb3485bbe589d9685a1ac2231a5cd3cdd5bcea2e0",
                                                "value": {
                                                    "current": "76211000000000000000",
                                                    "prev": "76001000000000000000",
                                                    "typeTag": 1
                                                }
                                            }
                                        ],
                                        "typeTag": 4
                                    }
                                }
                            ],
                            "typeTag": 4
                        }
                    }
                ]
            }
        ]
    }
}