{
    "balance_change": {
        "balanceChanges": []
    },
    "profile": {
        "basic_info": {
            "baseFee": "",
            "blockNumber": 4358701,
            "callData": "0x278b8c0e0000000000000000000000000abdace70d3790235af448c88547603b945604ea00000000000000000000000000000000000000000000021e19e0c9bab24000000000000000000000000000000000000000000000000000000000000000000000000000000000000000000000000000000000000000000000106097cae1e2e0000000000000000000000000000000000000000000000000000000000006385c4e00000000000000000000000000000000000000000000000000000000f2f230aa000000000000000000000000000000000000000000000000000000000000001b3fd17fcfa648d137ff2fdb7d0e4888cf57b08fed7ff42fae12c0dd2c282fbd672f3b82b1dd8a00acedc8dce508020834fa5d2297159735390047d1d48eee7889",
            "debugEnable": true,
            "errorInfo": "",
            "eventCount": 1,
            "feeRecipient": "0xf3b9d2c81f2b24b0fa0acaaa865b7d9ced5fc2fb",
            "formatValue": "0",
            "gasLimit": 250000,
            "gasPrice": "12",
            "gasUsed": 59354,
            "intTxnCount": 2,
            "internalRevert": false,
            "internalRevertMessage": "",
            "isContractCreation": false,
            "isFlashloan": false,
            "maxFee": "",
            "nonce": 99,
            "overwritedBlockNumber": -1,
            "priorityFee": "",
            "receiver": "0x8d12a197cb00d4747a1fe03395095ce2a5cc6819",
            "revertMessage": "",
            "sender": "0xbc0945c667fadc26b9bf39e586b15eeb901e7d1c",
            "simulationEnable": true,
            "sourceTxnHash": "0xcf774d8f3b88184678980395cd82526b6e00629cddae6c30c82a5f8e3d53ab49",
            "status": true,
            "timestamp": "2017-10-12T08:21:56Z",
            "transactionFee": "0.000712248",
            "txnHash": "0xcf774d8f3b88184678980395cd82526b6e00629cddae6c30c82a5f8e3d53ab49",
            "txnIndex": 75,
            "type": 0,
            "value": "0"
        },
        "fund_flow": [],
        "token_infos": [
            {
                "address": "0xc02aaa39b223fe8d0a0e5c4f27ead9083c756cc2",
                "decimals": 18
            },
            {
                "address": "0xeeeeeeeeeeeeeeeeeeeeeeeeeeeeeeeeeeeeeeee",
                "decimals": 18
            }
        ]
    },
    "address_label": {
        "labels": [
            {
                "address": "0x0000000000000000000000000000000000000004",
                "label": "Precompiled"
            },
            {
                "address": "0xeeeeeeeeeeeeeeeeeeeeeeeeeeeeeeeeeeeeeeee",
                "label": "Ether"
            },
            {
                "address": "0x8d12a197cb00d4747a1fe03395095ce2a5cc6819",
                "label": "EtherDelta"
            },
            {
                "address": "0x0000000000000000000000000000000000000002",
                "label": "Precompiled"
            },
            {
                "address": "0x0000000000000000000000000000000000000000",
                "label": "Null Address"
            },
            {
                "address": "0x0abdace70d3790235af448c88547603b945604ea",
                "label": "District0x: DNT Token"
            },
            {
                "address": "0x0000000000000000000000000000000000000001",
                "label": "Precompiled"
            },
            {
                "address": "0x0000000000000000000000000000000000000003",
                "label": "Precompiled"
            }
        ]
    },
    "trace": {
        "accountLabels": null,
        "dataMap": {
            "-1": {
                "invocation": {
                    "address": "0xbc0945c667fadc26b9bf39e586b15eeb901e7d1c",
                    "callData": "",
                    "decodedMethod": null,
                    "errorInfo": "",
                    "fromAddress": "",
                    "gasUsed": 0,
                    "id": -1,
                    "methodDecoded": false,
                    "operation": "",
                    "output": "",
                    "revert": false,
                    "revertMessage": "",
                    "selector": "",
                    "status": false,
                    "value": ""
                },
                "nodeType": 0
            },
            "0": {
                "invocation": {
                    "address": "0x8d12a197cb00d4747a1fe03395095ce2a5cc6819",
                    "callData": "0x0000000000000000000000000abdace70d3790235af448c88547603b945604ea00000000000000000000000000000000000000000000021e19e0c9bab24000000000000000000000000000000000000000000000000000000000000000000000000000000000000000000000000000000000000000000000106097cae1e2e0000000000000000000000000000000000000000000000000000000000006385c4e00000000000000000000000000000000000000000000000000000000f2f230aa000000000000000000000000000000000000000000000000000000000000001b3fd17fcfa648d137ff2fdb7d0e4888cf57b08fed7ff42fae12c0dd2c282fbd672f3b82b1dd8a00acedc8dce508020834fa5d2297159735390047d1d48eee7889",
                    "decodedMethod": {
                        "callParams": [
                            {
                                "name": "tokenGet",
                                "type": "address",
                                "value": "0x0abdace70d3790235af448c88547603b945604ea"
                            },
                            {
                                "name": "amountGet",
                                "type": "uint256",
                                "value": "10,000,000,000,000,000,000,000"
                            },
                            {
                                "name": "tokenGive",
                                "type": "address",
                                "value": "0x0000000000000000000000000000000000000000"
                            },
                            {
                                "name": "amountGive",
                                "type": "uint256",
                                "value": "1,180,110,000,000,000,000"
                            },
                            {
                                "name": "expires",
                                "type": "uint256",
                                "value": "104,356,942"
                            },
                            {
                                "name": "nonce",
                                "type": "uint256",
                                "value": "4,075,958,442"
                            },
                            {
                                "name": "v",
                                "type": "uint8",
                                "value": "27"
                            },
                            {
                                "name": "r",
                                "type": "bytes32",
                                "value": "0x3fd17fcfa648d137ff2fdb7d0e4888cf57b08fed7ff42fae12c0dd2c282fbd67"
                            },
                            {
                                "name": "s",
                                "type": "bytes32",
                                "value": "0x2f3b82b1dd8a00acedc8dce508020834fa5d2297159735390047d1d48eee7889"
                            }
                        ],
                        "constructorArguments": "",
                        "name": "cancelOrder",
                        "returnParams": [],
                        "signature": "cancelOrder(address,uint256,address,uint256,uint256,uint256,uint8,bytes32,bytes32)"
                    },
                    "errorInfo": "",
                    "fromAddress": "0xbc0945c667fadc26b9bf39e586b15eeb901e7d1c",
                    "gasUsed": 59354,
                    "id": 0,
                    "methodDecoded": true,
                    "operation": "CALL",
                    "output": "",
                    "revert": false,
                    "revertMessage": "",
                    "selector": "0x278b8c0e",
                    "status": true,
                    "value": "0"
                },
                "nodeType": 0
            },
            "1": {
                "invocation": {
                    "address": "0x0000000000000000000000000000000000000002",
                    "callData": "0xcb00d4747a1fe03395095ce2a5cc68190abdace70d3790235af448c88547603b945604ea00000000000000000000000000000000000000000000021e19e0c9bab24000000000000000000000000000000000000000000000000000000000000000000000000000000000000000000000106097cae1e2e0000000000000000000000000000000000000000000000000000000000006385c4e00000000000000000000000000000000000000000000000000000000f2f230aa",
                    "decodedMethod": {
                        "callParams": [
                            {
                                "name": "data",
                                "type": "bytes",
                                "value": "0x8d12a197cb00d4747a1fe03395095ce2a5cc68190abdace70d3790235af448c88547603b945604ea00000000000000000000000000000000000000000000021e19e0c9bab24000000000000000000000000000000000000000000000000000000000000000000000000000000000000000000000106097cae1e2e0000000000000000000000000000000000000000000000000000000000006385c4e00000000000000000000000000000000000000000000000000000000f2f230aa"
                            }
                        ],
                        "constructorArguments": "",
                        "name": "sha256hash",
                        "returnParams": [
                            {
                                "name": "hash",
                                "type": "bytes32",
                                "value": "0xe522f412dfc419f5de4a9dd8513d6cc8f1be883ed25ea65c73669cd00c984aaf"
                            }
                        ],
                        "signature": "sha256hash(bytes)"
                    },
                    "errorInfo": "",
                    "fromAddress": "0x8d12a197cb00d4747a1fe03395095ce2a5cc6819",
                    "gasUsed": 132,
                    "id": 1,
                    "methodDecoded": true,
                    "operation": "CALL",
                    "output": "0xe522f412dfc419f5de4a9dd8513d6cc8f1be883ed25ea65c73669cd00c984aaf",
                    "revert": false,
                    "revertMessage": "",
                    "selector": "0x8d12a197",
                    "status": true,
                    "value": "0"
                },
                "nodeType": 0
            },
            "2": {
                "invocation": {
                    "address": "0x0000000000000000000000000000000000000001",
                    "callData": "0x21276b54469bf3fa3b4788f41f6c794e3b38e7e35f39d19957776de3000000000000000000000000000000000000000000000000000000000000001b3fd17fcfa648d137ff2fdb7d0e4888cf57b08fed7ff42fae12c0dd2c282fbd672f3b82b1dd8a00acedc8dce508020834fa5d2297159735390047d1d48eee7889",
                    "decodedMethod": {
                        "callParams": [
                            {
                                "name": "hash",
                                "type": "bytes32",
                                "value": "0xeef6ec6a21276b54469bf3fa3b4788f41f6c794e3b38e7e35f39d19957776de3"
                            },
                            {
                                "name": "v",
                                "type": "uint256",
                                "value": "27"
                            },
                            {
                                "name": "r",
                                "type": "bytes32",
                                "value": "0x3fd17fcfa648d137ff2fdb7d0e4888cf57b08fed7ff42fae12c0dd2c282fbd67"
                            },
                            {
                                "name": "s",
                                "type": "bytes32",
                                "value": "0x2f3b82b1dd8a00acedc8dce508020834fa5d2297159735390047d1d48eee7889"
                            }
                        ],
                        "constructorArguments": "",
                        "name": "ecrecover",
                        "returnParams": [
                            {
                                "name": "",
                                "type": "address",
                                "value": "0xbc0945c667fadc26b9bf39e586b15eeb901e7d1c"
                            }
                        ],
                        "signature": "ecrecover(bytes32,uint256,bytes32,bytes32)"
                    },
                    "errorInfo": "",
                    "fromAddress": "0x8d12a197cb00d4747a1fe03395095ce2a5cc6819",
                    "gasUsed": 3000,
                    "id": 2,
                    "methodDecoded": true,
                    "operation": "CALL",
                    "output": "0x000000000000000000000000bc0945c667fadc26b9bf39e586b15eeb901e7d1c",
                    "revert": false,
                    "revertMessage": "",
                    "selector": "0xeef6ec6a",
                    "status": true,
                    "value": "0"
                },
                "nodeType": 0
            },
            "3": {
                "event": {
                    "contract": "0x8d12a197cb00d4747a1fe03395095ce2a5cc6819",
                    "decodedLog": {
                        "name": "Cancel",
                        "params": [
                            {
                                "name": "tokenGet",
                                "type": "address",
                                "value": "0x0abdace70d3790235af448c88547603b945604ea"
                            },
                            {
                                "name": "amountGet",
                                "type": "uint256",
                                "value": "10,000,000,000,000,000,000,000"
                            },
                            {
                                "name": "tokenGive",
                                "type": "address",
                                "value": "0x0000000000000000000000000000000000000000"
                            },
                            {
                                "name": "amountGive",
                                "type": "uint256",
                                "value": "1,180,110,000,000,000,000"
                            },
                            {
                                "name": "expires",
                                "type": "uint256",
                                "value": "104,356,942"
                            },
                            {
                                "name": "nonce",
                                "type": "uint256",
                                "value": "4,075,958,442"
                            },
                            {
                                "name": "user",
                                "type": "address",
                                "value": "0xbc0945c667fadc26b9bf39e586b15eeb901e7d1c"
                            },
                            {
                                "name": "v",
                                "type": "uint8",
                                "value": "27"
                            },
                            {
                                "name": "r",
                                "type": "bytes32",
                                "value": "0x3fd17fcfa648d137ff2fdb7d0e4888cf57b08fed7ff42fae12c0dd2c282fbd67"
                            },
                            {
                                "name": "s",
                                "type": "bytes32",
                                "value": "0x2f3b82b1dd8a00acedc8dce508020834fa5d2297159735390047d1d48eee7889"
                            }
                        ],
                        "signature": "Cancel(address,uint256,address,uint256,uint256,uint256,address,uint8,bytes32,bytes32)"
                    },
                    "id": 3,
                    "logData": "0x0000000000000000000000000abdace70d3790235af448c88547603b945604ea00000000000000000000000000000000000000000000021e19e0c9bab24000000000000000000000000000000000000000000000000000000000000000000000000000000000000000000000000000000000000000000000106097cae1e2e0000000000000000000000000000000000000000000000000000000000006385c4e00000000000000000000000000000000000000000000000000000000f2f230aa000000000000000000000000bc0945c667fadc26b9bf39e586b15eeb901e7d1c000000000000000000000000000000000000000000000000000000000000001b3fd17fcfa648d137ff2fdb7d0e4888cf57b08fed7ff42fae12c0dd2c282fbd672f3b82b1dd8a00acedc8dce508020834fa5d2297159735390047d1d48eee7889",
                    "logDecoded": true,
                    "operation": "EVENT",
                    "revert": false,
                    "status": true,
                    "topics": [
                        "0x1e0b760c386003e9cb9bcf4fcf3997886042859d9b6ed6320e804597fcdb28b0"
                    ]
                },
                "nodeType": 1
            }
        },
        "gasFlame": [
            {
                "children": [
                    {
                        "children": [
                            {
                                "children": [],
                                "depth": 0,
                                "name": "Initial Gas",
                                "value": 29208
                            },
                            {
                                "children": [
                                    {
                                        "children": [],
                                        "depth": 1,
                                        "name": "sha256hash",
                                        "value": 132
                                    },
                                    {
                                        "children": [],
                                        "depth": 1,
                                        "name": "ecrecover",
                                        "value": 3000
                                    }
                                ],
                                "depth": 0,
                                "name": "Executed Gas",
                                "value": 30146
                            }
                        ],
                        "depth": -1,
                        "name": "Actual Gas Used",
                        "value": 59354
                    },
                    {
                        "children": [],
                        "depth": -1,
                        "name": "Refunded Gas",
                        "value": 0
                    }
                ],
                "depth": -2,
                "name": "Total Gas",
                "value": 59354
            }
        ],
        "isConfirmed": true,
        "mainTrace": [
            {
                "children": [
                    {
                        "children": [
                            {
                                "children": [],
                                "depth": 1,
                                "id": 1,
                                "order": 1
                            },
                            {
                                "children": [],
                                "depth": 1,
                                "id": 2,
                                "order": 2
                            },
                            {
                                "children": [],
                                "depth": 1,
                                "id": 3,
                                "order": 3
                            }
                        ],
                        "depth": 0,
                        "id": 0,
                        "order": 0
                    }
                ],
                "depth": -1,
                "id": -1,
                "order": -1
            }
        ],
        "mainTraceNodeCount": 4,
        "parentIdMap": {
            "0": -1,
            "1": 0,
            "2": 0,
            "3": 0
        },
        "tidyTrace": [
            {
                "children": [
                    {
                        "children": [
                            {
                                "children": [],
                                "depth": 1,
                                "id": 1,
                                "order": 1
                            },
                            {
                                "children": [],
                                "depth": 1,
                                "id": 2,
                                "order": 2
                            },
                            {
                                "children": [],
                                "depth": 1,
                                "id": 3,
                                "order": 3
                            }
                        ],
                        "depth": 0,
                        "id": 0,
                        "order": 0
                    }
                ],
                "depth": -1,
                "id": -1,
                "order": -1
            }
        ],
        "tidyTraceNodeCount": 4
    },
    "state_change": {
        "stateChanges": [
            {
                "address": "0x8d12a197cb00d4747a1fe03395095ce2a5cc6819",
                "erc": "",
                "slots": [
                    {
                        "current": "0x00000000000000000000000000000000000000000000021e19e0c9bab2400000",
                        "key": "0xeedac4a0c554cf6dbdcc575799479b68baeccded0ff51d7f34849129e0807662",
                        "prev": "0x0000000000000000000000000000000000000000000000000000000000000000"
                    }
                ],
                "storageVariables": []
            }
        ]
    }
}