{
    "balance_change": {
        "balanceChanges": [
            {
                "account": "0x2e4d5cfa94a7a766d4a2647203a242311f08e213",
                "assets": [
                    {
                        "address": "0x2e071d2966aa7d8decb1005885ba1977d6038a65",
                        "amount": "4,000",
                        "iconUrl": "",
                        "isERC1155": false,
                        "isERC721": false,
                        "sign": false,
                        "value": ""
                    }
                ]
            },
            {
                "account": "0x9cc466bcd5ff6eef3ae30366ed93c46cf1f5a9ce",
                "assets": [
                    {
                        "address": "0x2e071d2966aa7d8decb1005885ba1977d6038a65",
                        "amount": "4,000",
                        "iconUrl": "",
                        "isERC1155": false,
                        "isERC721": false,
                        "sign": true,
                        "value": ""
                    }
                ]
            }
        ]
    },
    "profile": {
        "basic_info": {
            "baseFee": "",
            "blockNumber": 3893765,
            "callData": "0xa9059cbb0000000000000000000000009cc466bcd5ff6eef3ae30366ed93c46cf1f5a9ce0000000000000000000000000000000000000000000000022b1c8c1227a00000",
            "debugEnable": true,
            "errorInfo": "",
            "eventCount": 1,
            "feeRecipient": "0x52bc44d5378309ee2abf1539bf71de1b7d7be3b5",
            "formatValue": "0",
            "gasLimit": 52529,
            "gasPrice": "21",
            "gasUsed": 52528,
            "intTxnCount": 0,
            "internalRevert": false,
            "internalRevertMessage": "",
            "isContractCreation": false,
            "isFlashloan": false,
            "maxFee": "",
            "nonce": 44,
            "overwritedBlockNumber": -1,
            "priorityFee": "",
            "receiver": "0x2e071d2966aa7d8decb1005885ba1977d6038a65",
            "revertMessage": "",
            "sender": "0x2e4d5cfa94a7a766d4a2647203a242311f08e213",
            "simulationEnable": true,
            "sourceTxnHash": "0xcfe0c132595db19624f08111fad26b47ce72c424b99a0bf3fe4ae60564636144",
            "status": true,
            "timestamp": "2017-06-18T16:54:47Z",
            "transactionFee": "0.001103088",
            "txnHash": "0xcfe0c132595db19624f08111fad26b47ce72c424b99a0bf3fe4ae60564636144",
            "txnIndex": 54,
            "type": 0,
            "value": "0"
        },
        "fund_flow": [
            {
                "amount": "4,000",
                "from": "0x2e4d5cfa94a7a766d4a2647203a242311f08e213",
                "id": 1,
                "isERC1155": false,
                "isERC721": false,
                "isReverted": false,
                "order": 1,
                "to": "0x9cc466bcd5ff6eef3ae30366ed93c46cf1f5a9ce",
                "token": "0x2e071d2966aa7d8decb1005885ba1977d6038a65"
            }
        ],
        "token_infos": [
            {
                "address": "0x2e071d2966aa7d8decb1005885ba1977d6038a65",
                "decimals": 16
            },
            {
                "address": "0xc02aaa39b223fe8d0a0e5c4f27ead9083c756cc2",
                "decimals": 18
            },
            {
                "address": "0xeeeeeeeeeeeeeeeeeeeeeeeeeeeeeeeeeeeeeeee",
                "decimals": 18
            }
        ]
    },
    "address_label": {
        "labels": [
            {
                "address": "0xeeeeeeeeeeeeeeeeeeeeeeeeeeeeeeeeeeeeeeee",
                "label": "Ether"
            },
            {
                "address": "0x2e071d2966aa7d8decb1005885ba1977d6038a65",
                "label": "Etheroll Token"
            },
            {
                "address": "0x0000000000000000000000000000000000000001",
                "label": "Precompiled"
            },
            {
                "address": "0x0000000000000000000000000000000000000002",
                "label": "Precompiled"
            },
            {
                "address": "0x0000000000000000000000000000000000000003",
                "label": "Precompiled"
            },
            {
                "address": "0x0000000000000000000000000000000000000004",
                "label": "Precompiled"
            }
        ]
    },
    "trace": {
        "accountLabels": null,
        "dataMap": {
            "-1": {
                "invocation": {
                    "address": "0x2e4d5cfa94a7a766d4a2647203a242311f08e213",
                    "callData": "",
                    "decodedMethod": null,
                    "errorInfo": "",
                    "fromAddress": "",
                    "gasUsed": 0,
                    "id": -1,
                    "methodDecoded": false,
                    "operation": "",
                    "output": "",
                    "revert": false,
                    "revertMessage": "",
                    "selector": "",
                    "status": false,
                    "value": ""
                },
                "nodeType": 0
            },
            "0": {
                "invocation": {
                    "address": "0x2e071d2966aa7d8decb1005885ba1977d6038a65",
                    "callData": "0x0000000000000000000000009cc466bcd5ff6eef3ae30366ed93c46cf1f5a9ce0000000000000000000000000000000000000000000000022b1c8c1227a00000",
                    "decodedMethod": {
                        "callParams": [
                            {
                                "name": "_to",
                                "type": "address",
                                "value": "0x9cc466bcd5ff6eef3ae30366ed93c46cf1f5a9ce"
                            },
                            {
                                "decimalAvailable": true,
                                "name": "_value",
                                "type": "uint256",
                                "value": "40,000,000,000,000,000,000"
                            }
                        ],
                        "constructorArguments": "",
                        "name": "transfer",
                        "returnParams": [
                            {
                                "name": "success",
                                "type": "bool",
                                "value": true
                            }
                        ],
                        "signature": "transfer(address,uint256)"
                    },
                    "errorInfo": "",
                    "fromAddress": "0x2e4d5cfa94a7a766d4a2647203a242311f08e213",
                    "gasUsed": 52528,
                    "id": 0,
                    "methodDecoded": true,
                    "operation": "CALL",
                    "output": "0x0000000000000000000000000000000000000000000000000000000000000001",
                    "revert": false,
                    "revertMessage": "",
                    "selector": "0xa9059cbb",
                    "status": true,
                    "value": "0"
                },
                "nodeType": 0
            },
            "1": {
                "event": {
                    "contract": "0x2e071d2966aa7d8decb1005885ba1977d6038a65",
                    "decodedLog": {
                        "name": "Transfer",
                        "params": [
                            {
                                "name": "_from",
                                "type": "address",
                                "value": "0x2e4d5cfa94a7a766d4a2647203a242311f08e213"
                            },
                            {
                                "name": "_to",
                                "type": "address",
                                "value": "0x9cc466bcd5ff6eef3ae30366ed93c46cf1f5a9ce"
                            },
                            {
                                "decimalAvailable": true,
                                "name": "_value",
                                "type": "uint256",
                                "value": "40,000,000,000,000,000,000"
                            }
                        ],
                        "signature": "Transfer(address,address,uint256)"
                    },
                    "id": 1,
                    "logData": "0x0000000000000000000000000000000000000000000000022b1c8c1227a00000",
                    "logDecoded": true,
                    "operation": "EVENT",
                    "revert": false,
                    "status": true,
                    "topics": [
                        "0xddf252ad1be2c89b69c2b068fc378daa952ba7f163c4a11628f55a4df523b3ef",
                        "0x0000000000000000000000002e4d5cfa94a7a766d4a2647203a242311f08e213",
                        "0x0000000000000000000000009cc466bcd5ff6eef3ae30366ed93c46cf1f5a9ce"
                    ]
                },
                "nodeType": 1
            }
        },
        "gasFlame": [
            {
                "children": [
                    {
                        "children": [
                            {
                                "children": [],
                                "depth": 0,
                                "name": "Initial Gas",
                                "value": 23256
                            },
                            {
                                "children": [],
                                "depth": 0,
                                "name": "Executed Gas",
                                "value": 29272
                            }
                        ],
                        "depth": -1,
                        "name": "Actual Gas Used",
                        "value": 52528
                    },
                    {
                        "children": [],
                        "depth": -1,
                        "name": "Refunded Gas",
                        "value": 0
                    }
                ],
                "depth": -2,
                "name": "Total Gas",
                "value": 52528
            }
        ],
        "isConfirmed": true,
        "mainTrace": [
            {
                "children": [
                    {
                        "children": [
                            {
                                "children": [],
                                "depth": 1,
                                "id": 1,
                                "order": 1
                            }
                        ],
                        "depth": 0,
                        "id": 0,
                        "order": 0
                    }
                ],
                "depth": -1,
                "id": -1,
                "order": -1
            }
        ],
        "mainTraceNodeCount": 2,
        "parentIdMap": {
            "0": -1,
            "1": 0
        },
        "tidyTrace": [
            {
                "children": [
                    {
                        "children": [
                            {
                                "children": [],
                                "depth": 1,
                                "id": 1,
                                "order": 1
                            }
                        ],
                        "depth": 0,
                        "id": 0,
                        "order": 0
                    }
                ],
                "depth": -1,
                "id": -1,
                "order": -1
            }
        ],
        "tidyTraceNodeCount": 2
    },
    "state_change": {
        "stateChanges": [
            {
                "address": "0x2e071d2966aa7d8decb1005885ba1977d6038a65",
                "erc": "ERC-20",
                "slots": [
                    {
                        "current": "0x0000000000000000000000000000000000000000000000022b1c8c1227a00000",
                        "key": "0x64ffd7e8862e6b39e8111ceb443241ec6e0d7431633f6774f6f712ecfb3a9fec",
                        "prev": "0x0000000000000000000000000000000000000000000000000000000000000000"
                    },
                    {
                        "current": "0x0000000000000000000000000000000000000000000000056bc75e2d63100000",
                        "key": "0x7cba07e4f634ac19cbd0a317bb51e57e2799e1439aa18c00df4c8c98c3947fde",
                        "prev": "0x00000000000000000000000000000000000000000000000796e3ea3f8ab00000"
                    }
                ],
                "storageVariables": []
            }
        ]
    }
}