{
    "balance_change": {
        "balanceChanges": [
            {
                "account": "0xecfb822acfbcd952b49ba49b84cbb175cc77ca88",
                "assets": [
                    {
                        "address": "0x55652ce84d686177c8946e8c78078c0d6cfa4b30",
                        "amount": "45",
                        "iconUrl": "",
                        "isERC1155": false,
                        "isERC721": false,
                        "sign": false,
                        "value": ""
                    }
                ]
            },
            {
                "account": "0xac747fcabda08bbc83d58d26420cd74154a6c376",
                "assets": [
                    {
                        "address": "0x55652ce84d686177c8946e8c78078c0d6cfa4b30",
                        "amount": "45",
                        "iconUrl": "",
                        "isERC1155": false,
                        "isERC721": false,
                        "sign": true,
                        "value": ""
                    }
                ]
            }
        ]
    },
    "profile": {
        "basic_info": {
            "baseFee": "",
            "blockNumber": 11922316,
            "callData": "0xa9059cbb000000000000000000000000ac747fcabda08bbc83d58d26420cd74154a6c37600000000000000000000000000000000000000000000000270801d946c940000",
            "debugEnable": true,
            "errorInfo": "",
            "eventCount": 1,
            "feeRecipient": "0xea674fdde714fd979de3edf0f56aa9716b898ec8",
            "formatValue": "0",
            "gasLimit": 60000,
            "gasPrice": "194",
            "gasUsed": 51371,
            "intTxnCount": 0,
            "internalRevert": false,
            "internalRevertMessage": "",
            "isContractCreation": false,
            "isFlashloan": false,
            "maxFee": "",
            "nonce": 21164,
            "overwritedBlockNumber": -1,
            "priorityFee": "",
            "receiver": "0x55652ce84d686177c8946e8c78078c0d6cfa4b30",
            "revertMessage": "",
            "sender": "0xecfb822acfbcd952b49ba49b84cbb175cc77ca88",
            "simulationEnable": true,
            "sourceTxnHash": "0xcfef5679cfec5207409b45c19e3f9dabf21a5df1bc2dac2837ecedfedecb3266",
            "status": true,
            "timestamp": "2021-02-24T21:45:05Z",
            "transactionFee": "0.009965974",
            "txnHash": "0xcfef5679cfec5207409b45c19e3f9dabf21a5df1bc2dac2837ecedfedecb3266",
            "txnIndex": 5,
            "type": 0,
            "value": "0"
        },
        "fund_flow": [
            {
                "amount": "45",
                "from": "0xecfb822acfbcd952b49ba49b84cbb175cc77ca88",
                "id": 1,
                "isERC1155": false,
                "isERC721": false,
                "isReverted": false,
                "order": 1,
                "to": "0xac747fcabda08bbc83d58d26420cd74154a6c376",
                "token": "0x55652ce84d686177c8946e8c78078c0d6cfa4b30"
            }
        ],
        "token_infos": [
            {
                "address": "0x55652ce84d686177c8946e8c78078c0d6cfa4b30",
                "decimals": 18
            },
            {
                "address": "0xc02aaa39b223fe8d0a0e5c4f27ead9083c756cc2",
                "decimals": 18
            },
            {
                "address": "0xeeeeeeeeeeeeeeeeeeeeeeeeeeeeeeeeeeeeeeee",
                "decimals": 18
            }
        ]
    },
    "address_label": {
        "labels": [
            {
                "address": "0x0000000000000000000000000000000000000003",
                "label": "Precompiled"
            },
            {
                "address": "0x0000000000000000000000000000000000000004",
                "label": "Precompiled"
            },
            {
                "address": "0xeeeeeeeeeeeeeeeeeeeeeeeeeeeeeeeeeeeeeeee",
                "label": "Ether"
            },
            {
                "address": "0x55652ce84d686177c8946e8c78078c0d6cfa4b30",
                "label": "AQUANITE (AQN)"
            },
            {
                "address": "0x0000000000000000000000000000000000000001",
                "label": "Precompiled"
            },
            {
                "address": "0x0000000000000000000000000000000000000002",
                "label": "Precompiled"
            }
        ]
    },
    "trace": {
        "accountLabels": null,
        "dataMap": {
            "-1": {
                "invocation": {
                    "address": "0xecfb822acfbcd952b49ba49b84cbb175cc77ca88",
                    "callData": "",
                    "decodedMethod": null,
                    "errorInfo": "",
                    "fromAddress": "",
                    "gasUsed": 0,
                    "id": -1,
                    "methodDecoded": false,
                    "operation": "",
                    "output": "",
                    "revert": false,
                    "revertMessage": "",
                    "selector": "",
                    "status": false,
                    "value": ""
                },
                "nodeType": 0
            },
            "0": {
                "invocation": {
                    "address": "0x55652ce84d686177c8946e8c78078c0d6cfa4b30",
                    "callData": "0x000000000000000000000000ac747fcabda08bbc83d58d26420cd74154a6c37600000000000000000000000000000000000000000000000270801d946c940000",
                    "decodedMethod": {
                        "callParams": [
                            {
                                "name": "recipient",
                                "type": "address",
                                "value": "0xac747fcabda08bbc83d58d26420cd74154a6c376"
                            },
                            {
                                "decimalAvailable": true,
                                "name": "amount",
                                "type": "uint256",
                                "value": "45,000,000,000,000,000,000"
                            }
                        ],
                        "constructorArguments": "",
                        "name": "transfer",
                        "returnParams": [
                            {
                                "name": "",
                                "type": "bool",
                                "value": true
                            }
                        ],
                        "signature": "transfer(address,uint256)"
                    },
                    "errorInfo": "",
                    "fromAddress": "0xecfb822acfbcd952b49ba49b84cbb175cc77ca88",
                    "gasUsed": 51371,
                    "id": 0,
                    "methodDecoded": true,
                    "operation": "CALL",
                    "output": "0x0000000000000000000000000000000000000000000000000000000000000001",
                    "revert": false,
                    "revertMessage": "",
                    "selector": "0xa9059cbb",
                    "status": true,
                    "value": "0"
                },
                "nodeType": 0
            },
            "1": {
                "event": {
                    "contract": "0x55652ce84d686177c8946e8c78078c0d6cfa4b30",
                    "decodedLog": {
                        "name": "Transfer",
                        "params": [
                            {
                                "name": "from",
                                "type": "address",
                                "value": "0xecfb822acfbcd952b49ba49b84cbb175cc77ca88"
                            },
                            {
                                "name": "to",
                                "type": "address",
                                "value": "0xac747fcabda08bbc83d58d26420cd74154a6c376"
                            },
                            {
                                "decimalAvailable": true,
                                "name": "value",
                                "type": "uint256",
                                "value": "45,000,000,000,000,000,000"
                            }
                        ],
                        "signature": "Transfer(address,address,uint256)"
                    },
                    "id": 1,
                    "logData": "0x00000000000000000000000000000000000000000000000270801d946c940000",
                    "logDecoded": true,
                    "operation": "EVENT",
                    "revert": false,
                    "status": true,
                    "topics": [
                        "0xddf252ad1be2c89b69c2b068fc378daa952ba7f163c4a11628f55a4df523b3ef",
                        "0x000000000000000000000000ecfb822acfbcd952b49ba49b84cbb175cc77ca88",
                        "0x000000000000000000000000ac747fcabda08bbc83d58d26420cd74154a6c376"
                    ]
                },
                "nodeType": 1
            }
        },
        "gasFlame": [
            {
                "children": [
                    {
                        "children": [
                            {
                                "children": [],
                                "depth": 0,
                                "name": "Initial Gas",
                                "value": 21644
                            },
                            {
                                "children": [],
                                "depth": 0,
                                "name": "Executed Gas",
                                "value": 29727
                            }
                        ],
                        "depth": -1,
                        "name": "Actual Gas Used",
                        "value": 51371
                    },
                    {
                        "children": [],
                        "depth": -1,
                        "name": "Refunded Gas",
                        "value": 0
                    }
                ],
                "depth": -2,
                "name": "Total Gas",
                "value": 51371
            }
        ],
        "isConfirmed": true,
        "mainTrace": [
            {
                "children": [
                    {
                        "children": [
                            {
                                "children": [],
                                "depth": 1,
                                "id": 1,
                                "order": 1
                            }
                        ],
                        "depth": 0,
                        "id": 0,
                        "order": 0
                    }
                ],
                "depth": -1,
                "id": -1,
                "order": -1
            }
        ],
        "mainTraceNodeCount": 2,
        "parentIdMap": {
            "0": -1,
            "1": 0
        },
        "tidyTrace": [
            {
                "children": [
                    {
                        "children": [
                            {
                                "children": [],
                                "depth": 1,
                                "id": 1,
                                "order": 1
                            }
                        ],
                        "depth": 0,
                        "id": 0,
                        "order": 0
                    }
                ],
                "depth": -1,
                "id": -1,
                "order": -1
            }
        ],
        "tidyTraceNodeCount": 2
    },
    "state_change": {
        "stateChanges": [
            {
                "address": "0x55652ce84d686177c8946e8c78078c0d6cfa4b30",
                "erc": "ERC-20",
                "slots": [
                    {
                        "current": "0x0000000000000000000000000000000000000000012cb013f8481643a6f60400",
                        "key": "0x942dad526070c407649d01c79a9dcf42b9eb43be9766deda5960e0c86c2eacff",
                        "prev": "0x0000000000000000000000000000000000000000012cb01668c833d8138a0400"
                    },
                    {
                        "current": "0x00000000000000000000000000000000000000000000000270801d946c940000",
                        "key": "0x8c8f0fbd4f93e85a85937d744b6c228e9b371b49375a00188d9d558fcd94f09f",
                        "prev": "0x0000000000000000000000000000000000000000000000000000000000000000"
                    }
                ],
                "storageVariables": [
                    {
                        "name": "_balances",
                        "type": "mapping(address => uint256)",
                        "value": {
                            "pairs": [
                                {
                                    "key": "0xac747fcabda08bbc83d58d26420cd74154a6c376",
                                    "value": {
                                        "current": "45000000000000000000",
                                        "prev": "0",
                                        "typeTag": 1
                                    }
                                },
                                {
                                    "key": "0xecfb822acfbcd952b49ba49b84cbb175cc77ca88",
                                    "value": {
                                        "current": "363509250764085210000000000",
                                        "prev": "363509295764085210000000000",
                                        "typeTag": 1
                                    }
                                }
                            ],
                            "typeTag": 4
                        }
                    }
                ]
            }
        ]
    }
}