{
    "balance_change": {
        "balanceChanges": [
            {
                "account": "0x309b69e5d0c5abdb5618b8676750973d99d2c1db",
                "assets": [
                    {
                        "address": "0x931abd3732f7eada74190c8f89b46f8ba7103d54",
                        "amount": "200",
                        "iconUrl": "",
                        "isERC1155": false,
                        "isERC721": false,
                        "sign": false,
                        "value": ""
                    }
                ]
            },
            {
                "account": "0x5ee7e98c1ff3d9f9b21169ef8d069976481f594e",
                "assets": [
                    {
                        "address": "0x931abd3732f7eada74190c8f89b46f8ba7103d54",
                        "amount": "200",
                        "iconUrl": "",
                        "isERC1155": false,
                        "isERC721": false,
                        "sign": true,
                        "value": ""
                    }
                ]
            }
        ]
    },
    "profile": {
        "basic_info": {
            "baseFee": "",
            "blockNumber": 7635543,
            "callData": "0xa9059cbb0000000000000000000000005ee7e98c1ff3d9f9b21169ef8d069976481f594e00000000000000000000000000000000000000000000000ad78ebc5ac6200000",
            "debugEnable": true,
            "errorInfo": "",
            "eventCount": 1,
            "feeRecipient": "0x4c549990a7ef3fea8784406c1eecc98bf4211fa5",
            "formatValue": "0",
            "gasLimit": 70000,
            "gasPrice": "3",
            "gasUsed": 51905,
            "intTxnCount": 0,
            "internalRevert": false,
            "internalRevertMessage": "",
            "isContractCreation": false,
            "isFlashloan": false,
            "maxFee": "",
            "nonce": 3357,
            "overwritedBlockNumber": -1,
            "priorityFee": "",
            "receiver": "0x931abd3732f7eada74190c8f89b46f8ba7103d54",
            "revertMessage": "",
            "sender": "0x309b69e5d0c5abdb5618b8676750973d99d2c1db",
            "simulationEnable": true,
            "sourceTxnHash": "0xcf13d4d24928089b877aa7cd3eec44f66e6a24ea0a81ee807fa19c97c5d26f6d",
            "status": true,
            "timestamp": "2019-04-25T08:35:02Z",
            "transactionFee": "0.000155715",
            "txnHash": "0xcf13d4d24928089b877aa7cd3eec44f66e6a24ea0a81ee807fa19c97c5d26f6d",
            "txnIndex": 115,
            "type": 0,
            "value": "0"
        },
        "fund_flow": [
            {
                "amount": "200",
                "from": "0x309b69e5d0c5abdb5618b8676750973d99d2c1db",
                "id": 1,
                "isERC1155": false,
                "isERC721": false,
                "isReverted": false,
                "order": 1,
                "to": "0x5ee7e98c1ff3d9f9b21169ef8d069976481f594e",
                "token": "0x931abd3732f7eada74190c8f89b46f8ba7103d54"
            }
        ],
        "token_infos": [
            {
                "address": "0xeeeeeeeeeeeeeeeeeeeeeeeeeeeeeeeeeeeeeeee",
                "decimals": 18
            },
            {
                "address": "0x931abd3732f7eada74190c8f89b46f8ba7103d54",
                "decimals": 18
            },
            {
                "address": "0xc02aaa39b223fe8d0a0e5c4f27ead9083c756cc2",
                "decimals": 18
            }
        ]
    },
    "address_label": {
        "labels": [
            {
                "address": "0x0000000000000000000000000000000000000004",
                "label": "Precompiled"
            },
            {
                "address": "0xeeeeeeeeeeeeeeeeeeeeeeeeeeeeeeeeeeeeeeee",
                "label": "Ether"
            },
            {
                "address": "0x931abd3732f7eada74190c8f89b46f8ba7103d54",
                "label": "FairDollars (FDS)"
            },
            {
                "address": "0x0000000000000000000000000000000000000001",
                "label": "Precompiled"
            },
            {
                "address": "0x0000000000000000000000000000000000000002",
                "label": "Precompiled"
            },
            {
                "address": "0x0000000000000000000000000000000000000003",
                "label": "Precompiled"
            }
        ]
    },
    "trace": {
        "accountLabels": null,
        "dataMap": {
            "-1": {
                "invocation": {
                    "address": "0x309b69e5d0c5abdb5618b8676750973d99d2c1db",
                    "callData": "",
                    "decodedMethod": null,
                    "errorInfo": "",
                    "fromAddress": "",
                    "gasUsed": 0,
                    "id": -1,
                    "methodDecoded": false,
                    "operation": "",
                    "output": "",
                    "revert": false,
                    "revertMessage": "",
                    "selector": "",
                    "status": false,
                    "value": ""
                },
                "nodeType": 0
            },
            "0": {
                "invocation": {
                    "address": "0x931abd3732f7eada74190c8f89b46f8ba7103d54",
                    "callData": "0x0000000000000000000000005ee7e98c1ff3d9f9b21169ef8d069976481f594e00000000000000000000000000000000000000000000000ad78ebc5ac6200000",
                    "decodedMethod": {
                        "callParams": [
                            {
                                "name": "to",
                                "type": "address",
                                "value": "0x5ee7e98c1ff3d9f9b21169ef8d069976481f594e"
                            },
                            {
                                "decimalAvailable": true,
                                "name": "value",
                                "type": "uint256",
                                "value": "200,000,000,000,000,000,000"
                            }
                        ],
                        "constructorArguments": "",
                        "name": "transfer",
                        "returnParams": [
                            {
                                "name": "",
                                "type": "bool",
                                "value": true
                            }
                        ],
                        "signature": "transfer(address,uint256)"
                    },
                    "errorInfo": "",
                    "fromAddress": "0x309b69e5d0c5abdb5618b8676750973d99d2c1db",
                    "gasUsed": 51905,
                    "id": 0,
                    "methodDecoded": true,
                    "operation": "CALL",
                    "output": "0x0000000000000000000000000000000000000000000000000000000000000001",
                    "revert": false,
                    "revertMessage": "",
                    "selector": "0xa9059cbb",
                    "status": true,
                    "value": "0"
                },
                "nodeType": 0
            },
            "1": {
                "event": {
                    "contract": "0x931abd3732f7eada74190c8f89b46f8ba7103d54",
                    "decodedLog": {
                        "name": "Transfer",
                        "params": [
                            {
                                "name": "from",
                                "type": "address",
                                "value": "0x309b69e5d0c5abdb5618b8676750973d99d2c1db"
                            },
                            {
                                "name": "to",
                                "type": "address",
                                "value": "0x5ee7e98c1ff3d9f9b21169ef8d069976481f594e"
                            },
                            {
                                "decimalAvailable": true,
                                "name": "value",
                                "type": "uint256",
                                "value": "200,000,000,000,000,000,000"
                            }
                        ],
                        "signature": "Transfer(address,address,uint256)"
                    },
                    "id": 1,
                    "logData": "0x00000000000000000000000000000000000000000000000ad78ebc5ac6200000",
                    "logDecoded": true,
                    "operation": "EVENT",
                    "revert": false,
                    "status": true,
                    "topics": [
                        "0xddf252ad1be2c89b69c2b068fc378daa952ba7f163c4a11628f55a4df523b3ef",
                        "0x000000000000000000000000309b69e5d0c5abdb5618b8676750973d99d2c1db",
                        "0x0000000000000000000000005ee7e98c1ff3d9f9b21169ef8d069976481f594e"
                    ]
                },
                "nodeType": 1
            }
        },
        "gasFlame": [
            {
                "children": [
                    {
                        "children": [
                            {
                                "children": [],
                                "depth": 0,
                                "name": "Initial Gas",
                                "value": 23256
                            },
                            {
                                "children": [],
                                "depth": 0,
                                "name": "Executed Gas",
                                "value": 28649
                            }
                        ],
                        "depth": -1,
                        "name": "Actual Gas Used",
                        "value": 51905
                    },
                    {
                        "children": [],
                        "depth": -1,
                        "name": "Refunded Gas",
                        "value": 0
                    }
                ],
                "depth": -2,
                "name": "Total Gas",
                "value": 51905
            }
        ],
        "isConfirmed": true,
        "mainTrace": [
            {
                "children": [
                    {
                        "children": [
                            {
                                "children": [],
                                "depth": 1,
                                "id": 1,
                                "order": 1
                            }
                        ],
                        "depth": 0,
                        "id": 0,
                        "order": 0
                    }
                ],
                "depth": -1,
                "id": -1,
                "order": -1
            }
        ],
        "mainTraceNodeCount": 2,
        "parentIdMap": {
            "0": -1,
            "1": 0
        },
        "tidyTrace": [
            {
                "children": [
                    {
                        "children": [
                            {
                                "children": [],
                                "depth": 1,
                                "id": 1,
                                "order": 1
                            }
                        ],
                        "depth": 0,
                        "id": 0,
                        "order": 0
                    }
                ],
                "depth": -1,
                "id": -1,
                "order": -1
            }
        ],
        "tidyTraceNodeCount": 2
    },
    "state_change": {
        "stateChanges": [
            {
                "address": "0x931abd3732f7eada74190c8f89b46f8ba7103d54",
                "erc": "ERC-20",
                "slots": [
                    {
                        "current": "0x00000000000000000000000000000000000000000000000ad78ebc5ac6200000",
                        "key": "0x229a1bc895e4e5e8187bd2a83ecd3587faa84d06f35df5a7e0769a95ba3ee0de",
                        "prev": "0x0000000000000000000000000000000000000000000000000000000000000000"
                    },
                    {
                        "current": "0x000000000000000000000000000000000000000000003c9dd71dd4fd5fd8567b",
                        "key": "0x72d37973a2e585461a4840ec0f5c1a782d4adc8eb81603f92fe4456aa934e918",
                        "prev": "0x000000000000000000000000000000000000000000003ca8aeac915825f8567b"
                    }
                ],
                "storageVariables": [
                    {
                        "name": "_balances",
                        "type": "mapping(address => uint256)",
                        "value": {
                            "pairs": [
                                {
                                    "key": "0x309b69e5d0c5abdb5618b8676750973d99d2c1db",
                                    "value": {
                                        "current": "286253628571428291368571",
                                        "prev": "286453628571428291368571",
                                        "typeTag": 1
                                    }
                                },
                                {
                                    "key": "0x5ee7e98c1ff3d9f9b21169ef8d069976481f594e",
                                    "value": {
                                        "current": "200000000000000000000",
                                        "prev": "0",
                                        "typeTag": 1
                                    }
                                }
                            ],
                            "typeTag": 4
                        }
                    }
                ]
            }
        ]
    }
}