{
    "balance_change": {
        "balanceChanges": [
            {
                "account": "0xeb016edbc513cae51e32d9d8deab0bee7b16f819",
                "assets": [
                    {
                        "address": "0xdac17f958d2ee523a2206206994597c13d831ec7",
                        "amount": "980.19",
                        "iconUrl": "https://assets.blocksec.com/icon/fcea71f3193ce895be44bfdf941f7e4c9381dd587f273c2d1a27f1263d84e4ea.png",
                        "isERC1155": false,
                        "isERC721": false,
                        "sign": false,
                        "value": "980.19"
                    }
                ]
            },
            {
                "account": "0xf89d7b9c864f589bbf53a82105107622b35eaa40",
                "assets": [
                    {
                        "address": "0xdac17f958d2ee523a2206206994597c13d831ec7",
                        "amount": "980.19",
                        "iconUrl": "https://assets.blocksec.com/icon/fcea71f3193ce895be44bfdf941f7e4c9381dd587f273c2d1a27f1263d84e4ea.png",
                        "isERC1155": false,
                        "isERC721": false,
                        "sign": true,
                        "value": "980.19"
                    }
                ]
            }
        ]
    },
    "profile": {
        "basic_info": {
            "baseFee": "7.75309553",
            "blockNumber": 18201333,
            "callData": "0xa9059cbb000000000000000000000000f89d7b9c864f589bbf53a82105107622b35eaa40000000000000000000000000000000000000000000000000000000003a6c8330",
            "debugEnable": true,
            "errorInfo": "",
            "eventCount": 1,
            "feeRecipient": "0x1f9090aae28b8a3dceadf281b0f12828e676c326",
            "formatValue": "0",
            "gasLimit": 90000,
            "gasPrice": "9.75309553",
            "gasUsed": 41309,
            "intTxnCount": 0,
            "internalRevert": false,
            "internalRevertMessage": "",
            "isContractCreation": false,
            "isFlashloan": false,
            "maxFee": "250",
            "nonce": 1538,
            "overwritedBlockNumber": -1,
            "priorityFee": "2",
            "receiver": "0xdac17f958d2ee523a2206206994597c13d831ec7",
            "revertMessage": "",
            "sender": "0xeb016edbc513cae51e32d9d8deab0bee7b16f819",
            "simulationEnable": true,
            "sourceTxnHash": "0xcf65c3471fea0b1527b34fbf5b3ff97d6b08ef7b5ca0e09ba6cff90acdff99eb",
            "status": true,
            "timestamp": "2023-09-23T21:55:47Z",
            "transactionFee": "0.00040289062324877",
            "txnHash": "0xcf65c3471fea0b1527b34fbf5b3ff97d6b08ef7b5ca0e09ba6cff90acdff99eb",
            "txnIndex": 24,
            "type": 2,
            "value": "0"
        },
        "fund_flow": [
            {
                "amount": "980.19",
                "from": "0xeb016edbc513cae51e32d9d8deab0bee7b16f819",
                "id": 1,
                "isERC1155": false,
                "isERC721": false,
                "isReverted": false,
                "order": 1,
                "to": "0xf89d7b9c864f589bbf53a82105107622b35eaa40",
                "token": "0xdac17f958d2ee523a2206206994597c13d831ec7"
            }
        ],
        "token_infos": [
            {
                "address": "0xeeeeeeeeeeeeeeeeeeeeeeeeeeeeeeeeeeeeeeee",
                "decimals": 18
            },
            {
                "address": "0xc02aaa39b223fe8d0a0e5c4f27ead9083c756cc2",
                "decimals": 18
            },
            {
                "address": "0xdac17f958d2ee523a2206206994597c13d831ec7",
                "decimals": 6
            }
        ]
    },
    "address_label": {
        "labels": [
            {
                "address": "0xeeeeeeeeeeeeeeeeeeeeeeeeeeeeeeeeeeeeeeee",
                "label": "Ether"
            },
            {
                "address": "0xdac17f958d2ee523a2206206994597c13d831ec7",
                "label": "Tether: USDT Stablecoin"
            },
            {
                "address": "0xf89d7b9c864f589bbf53a82105107622b35eaa40",
                "label": "Bybit: Hot Wallet"
            },
            {
                "address": "0x0000000000000000000000000000000000000001",
                "label": "Precompiled"
            },
            {
                "address": "0x0000000000000000000000000000000000000002",
                "label": "Precompiled"
            },
            {
                "address": "0x0000000000000000000000000000000000000003",
                "label": "Precompiled"
            },
            {
                "address": "0x0000000000000000000000000000000000000004",
                "label": "Precompiled"
            }
        ]
    },
    "trace": {
        "accountLabels": null,
        "dataMap": {
            "-1": {
                "invocation": {
                    "address": "0xeb016edbc513cae51e32d9d8deab0bee7b16f819",
                    "callData": "",
                    "decodedMethod": null,
                    "errorInfo": "",
                    "fromAddress": "",
                    "gasUsed": 0,
                    "id": -1,
                    "methodDecoded": false,
                    "operation": "",
                    "output": "",
                    "revert": false,
                    "revertMessage": "",
                    "selector": "",
                    "status": false,
                    "value": ""
                },
                "nodeType": 0
            },
            "0": {
                "invocation": {
                    "address": "0xdac17f958d2ee523a2206206994597c13d831ec7",
                    "callData": "0x000000000000000000000000f89d7b9c864f589bbf53a82105107622b35eaa40000000000000000000000000000000000000000000000000000000003a6c8330",
                    "decodedMethod": {
                        "callParams": [
                            {
                                "name": "_to",
                                "type": "address",
                                "value": "0xf89d7b9c864f589bbf53a82105107622b35eaa40"
                            },
                            {
                                "decimalAvailable": true,
                                "name": "_value",
                                "type": "uint256",
                                "value": "980,190,000"
                            }
                        ],
                        "constructorArguments": "",
                        "name": "transfer",
                        "returnParams": [],
                        "signature": "transfer(address,uint256)"
                    },
                    "errorInfo": "",
                    "fromAddress": "0xeb016edbc513cae51e32d9d8deab0bee7b16f819",
                    "gasUsed": 41309,
                    "id": 0,
                    "methodDecoded": true,
                    "operation": "CALL",
                    "output": "",
                    "revert": false,
                    "revertMessage": "",
                    "selector": "0xa9059cbb",
                    "status": true,
                    "value": "0"
                },
                "nodeType": 0
            },
            "1": {
                "event": {
                    "contract": "0xdac17f958d2ee523a2206206994597c13d831ec7",
                    "decodedLog": {
                        "name": "Transfer",
                        "params": [
                            {
                                "name": "from",
                                "type": "address",
                                "value": "0xeb016edbc513cae51e32d9d8deab0bee7b16f819"
                            },
                            {
                                "name": "to",
                                "type": "address",
                                "value": "0xf89d7b9c864f589bbf53a82105107622b35eaa40"
                            },
                            {
                                "decimalAvailable": true,
                                "name": "value",
                                "type": "uint256",
                                "value": "980,190,000"
                            }
                        ],
                        "signature": "Transfer(address,address,uint256)"
                    },
                    "id": 1,
                    "logData": "0x000000000000000000000000000000000000000000000000000000003a6c8330",
                    "logDecoded": true,
                    "operation": "EVENT",
                    "revert": false,
                    "status": true,
                    "topics": [
                        "0xddf252ad1be2c89b69c2b068fc378daa952ba7f163c4a11628f55a4df523b3ef",
                        "0x000000000000000000000000eb016edbc513cae51e32d9d8deab0bee7b16f819",
                        "0x000000000000000000000000f89d7b9c864f589bbf53a82105107622b35eaa40"
                    ]
                },
                "nodeType": 1
            }
        },
        "gasFlame": [
            {
                "children": [
                    {
                        "children": [
                            {
                                "children": [],
                                "depth": 0,
                                "name": "Initial Gas",
                                "value": 21608
                            },
                            {
                                "children": [],
                                "depth": 0,
                                "name": "Executed Gas",
                                "value": 24501
                            }
                        ],
                        "depth": -1,
                        "name": "Actual Gas Used",
                        "value": 41309
                    },
                    {
                        "children": [],
                        "depth": -1,
                        "name": "Refunded Gas",
                        "value": 4800
                    }
                ],
                "depth": -2,
                "name": "Total Gas",
                "value": 46109
            }
        ],
        "isConfirmed": true,
        "mainTrace": [
            {
                "children": [
                    {
                        "children": [
                            {
                                "children": [],
                                "depth": 1,
                                "id": 1,
                                "order": 1
                            }
                        ],
                        "depth": 0,
                        "id": 0,
                        "order": 0
                    }
                ],
                "depth": -1,
                "id": -1,
                "order": -1
            }
        ],
        "mainTraceNodeCount": 2,
        "parentIdMap": {
            "0": -1,
            "1": 0
        },
        "tidyTrace": [
            {
                "children": [
                    {
                        "children": [
                            {
                                "children": [],
                                "depth": 1,
                                "id": 1,
                                "order": 1
                            }
                        ],
                        "depth": 0,
                        "id": 0,
                        "order": 0
                    }
                ],
                "depth": -1,
                "id": -1,
                "order": -1
            }
        ],
        "tidyTraceNodeCount": 2
    },
    "state_change": {
        "stateChanges": [
            {
                "address": "0xdac17f958d2ee523a2206206994597c13d831ec7",
                "erc": "ERC-20",
                "slots": [
                    {
                        "current": "0x0000000000000000000000000000000000000000000000000000000000000000",
                        "key": "0x76a84390feb258ad1efce3995ea4afeb7dec956a35f891651df272a2ec58debc",
                        "prev": "0x000000000000000000000000000000000000000000000000000000003a6c8330"
                    },
                    {
                        "current": "0x0000000000000000000000000000000000000000000000000000251a21494a57",
                        "key": "0x8032bbaad8dc69cb68b83388864605a6aa8ca1caae933b253bd93051aa37ad0b",
                        "prev": "0x00000000000000000000000000000000000000000000000000002519e6dcc727"
                    }
                ],
                "storageVariables": [
                    {
                        "name": "balances",
                        "type": "mapping(address => uint256)",
                        "value": {
                            "pairs": [
                                {
                                    "key": "0xeb016edbc513cae51e32d9d8deab0bee7b16f819",
                                    "value": {
                                        "current": "0",
                                        "prev": "980190000",
                                        "typeTag": 1
                                    }
                                },
                                {
                                    "key": "0xf89d7b9c864f589bbf53a82105107622b35eaa40",
                                    "value": {
                                        "current": "40794157828695",
                                        "prev": "40793177638695",
                                        "typeTag": 1
                                    }
                                }
                            ],
                            "typeTag": 4
                        }
                    }
                ]
            }
        ]
    }
}