{
    "balance_change": {
        "balanceChanges": [
            {
                "account": "0x89e51fa8ca5d66cd220baed62ed01e8951aa7c40",
                "assets": [
                    {
                        "address": "0xdac17f958d2ee523a2206206994597c13d831ec7",
                        "amount": "2,448,413.5",
                        "iconUrl": "https://assets.blocksec.com/icon/fcea71f3193ce895be44bfdf941f7e4c9381dd587f273c2d1a27f1263d84e4ea.png",
                        "isERC1155": false,
                        "isERC721": false,
                        "sign": false,
                        "value": "2472897.635"
                    }
                ]
            },
            {
                "account": "0xb3f923eabaf178fc1bd8e13902fc5c61d3ddef5b",
                "assets": [
                    {
                        "address": "0xdac17f958d2ee523a2206206994597c13d831ec7",
                        "amount": "2,448,413.5",
                        "iconUrl": "https://assets.blocksec.com/icon/fcea71f3193ce895be44bfdf941f7e4c9381dd587f273c2d1a27f1263d84e4ea.png",
                        "isERC1155": false,
                        "isERC721": false,
                        "sign": true,
                        "value": "2472897.635"
                    }
                ]
            }
        ]
    },
    "profile": {
        "basic_info": {
            "baseFee": "",
            "blockNumber": 12261931,
            "callData": "0xa9059cbb000000000000000000000000b3f923eabaf178fc1bd8e13902fc5c61d3ddef5b0000000000000000000000000000000000000000000000000000023a10d12260",
            "debugEnable": true,
            "errorInfo": "",
            "eventCount": 1,
            "feeRecipient": "0x5a0b54d5dc17e0aadc383d2db43b0a0d3e029c4c",
            "formatValue": "0",
            "gasLimit": 500000,
            "gasPrice": "547.452",
            "gasUsed": 46133,
            "intTxnCount": 0,
            "internalRevert": false,
            "internalRevertMessage": "",
            "isContractCreation": false,
            "isFlashloan": false,
            "maxFee": "",
            "nonce": 500706,
            "overwritedBlockNumber": -1,
            "priorityFee": "",
            "receiver": "0xdac17f958d2ee523a2206206994597c13d831ec7",
            "revertMessage": "",
            "sender": "0x89e51fa8ca5d66cd220baed62ed01e8951aa7c40",
            "simulationEnable": true,
            "sourceTxnHash": "0xcf872b3e3f912451903e1344691c2ee56a1268553007d9b3e7b2c47aa9d3dac4",
            "status": true,
            "timestamp": "2021-04-18T04:17:50Z",
            "transactionFee": "0.025255603116",
            "txnHash": "0xcf872b3e3f912451903e1344691c2ee56a1268553007d9b3e7b2c47aa9d3dac4",
            "txnIndex": 54,
            "type": 0,
            "value": "0"
        },
        "fund_flow": [
            {
                "amount": "2,448,413.5",
                "from": "0x89e51fa8ca5d66cd220baed62ed01e8951aa7c40",
                "id": 1,
                "isERC1155": false,
                "isERC721": false,
                "isReverted": false,
                "order": 1,
                "to": "0xb3f923eabaf178fc1bd8e13902fc5c61d3ddef5b",
                "token": "0xdac17f958d2ee523a2206206994597c13d831ec7"
            }
        ],
        "token_infos": [
            {
                "address": "0xc02aaa39b223fe8d0a0e5c4f27ead9083c756cc2",
                "decimals": 18
            },
            {
                "address": "0xdac17f958d2ee523a2206206994597c13d831ec7",
                "decimals": 6
            },
            {
                "address": "0xeeeeeeeeeeeeeeeeeeeeeeeeeeeeeeeeeeeeeeee",
                "decimals": 18
            }
        ]
    },
    "address_label": {
        "labels": [
            {
                "address": "0x0000000000000000000000000000000000000002",
                "label": "Precompiled"
            },
            {
                "address": "0x0000000000000000000000000000000000000003",
                "label": "Precompiled"
            },
            {
                "address": "0x0000000000000000000000000000000000000004",
                "label": "Precompiled"
            },
            {
                "address": "0xeeeeeeeeeeeeeeeeeeeeeeeeeeeeeeeeeeeeeeee",
                "label": "Ether"
            },
            {
                "address": "0xb3f923eabaf178fc1bd8e13902fc5c61d3ddef5b",
                "label": "Binance"
            },
            {
                "address": "0x89e51fa8ca5d66cd220baed62ed01e8951aa7c40",
                "label": "Kraken 7"
            },
            {
                "address": "0xdac17f958d2ee523a2206206994597c13d831ec7",
                "label": "Tether: USDT Stablecoin"
            },
            {
                "address": "0x0000000000000000000000000000000000000001",
                "label": "Precompiled"
            }
        ]
    },
    "trace": {
        "accountLabels": null,
        "dataMap": {
            "-1": {
                "invocation": {
                    "address": "0x89e51fa8ca5d66cd220baed62ed01e8951aa7c40",
                    "callData": "",
                    "decodedMethod": null,
                    "errorInfo": "",
                    "fromAddress": "",
                    "gasUsed": 0,
                    "id": -1,
                    "methodDecoded": false,
                    "operation": "",
                    "output": "",
                    "revert": false,
                    "revertMessage": "",
                    "selector": "",
                    "status": false,
                    "value": ""
                },
                "nodeType": 0
            },
            "0": {
                "invocation": {
                    "address": "0xdac17f958d2ee523a2206206994597c13d831ec7",
                    "callData": "0x000000000000000000000000b3f923eabaf178fc1bd8e13902fc5c61d3ddef5b0000000000000000000000000000000000000000000000000000023a10d12260",
                    "decodedMethod": {
                        "callParams": [
                            {
                                "name": "_to",
                                "type": "address",
                                "value": "0xb3f923eabaf178fc1bd8e13902fc5c61d3ddef5b"
                            },
                            {
                                "decimalAvailable": true,
                                "name": "_value",
                                "type": "uint256",
                                "value": "2,448,413,500,000"
                            }
                        ],
                        "constructorArguments": "",
                        "name": "transfer",
                        "returnParams": [],
                        "signature": "transfer(address,uint256)"
                    },
                    "errorInfo": "",
                    "fromAddress": "0x89e51fa8ca5d66cd220baed62ed01e8951aa7c40",
                    "gasUsed": 46133,
                    "id": 0,
                    "methodDecoded": true,
                    "operation": "CALL",
                    "output": "",
                    "revert": false,
                    "revertMessage": "",
                    "selector": "0xa9059cbb",
                    "status": true,
                    "value": "0"
                },
                "nodeType": 0
            },
            "1": {
                "event": {
                    "contract": "0xdac17f958d2ee523a2206206994597c13d831ec7",
                    "decodedLog": {
                        "name": "Transfer",
                        "params": [
                            {
                                "name": "from",
                                "type": "address",
                                "value": "0x89e51fa8ca5d66cd220baed62ed01e8951aa7c40"
                            },
                            {
                                "name": "to",
                                "type": "address",
                                "value": "0xb3f923eabaf178fc1bd8e13902fc5c61d3ddef5b"
                            },
                            {
                                "decimalAvailable": true,
                                "name": "value",
                                "type": "uint256",
                                "value": "2,448,413,500,000"
                            }
                        ],
                        "signature": "Transfer(address,address,uint256)"
                    },
                    "id": 1,
                    "logData": "0x0000000000000000000000000000000000000000000000000000023a10d12260",
                    "logDecoded": true,
                    "operation": "EVENT",
                    "revert": false,
                    "status": true,
                    "topics": [
                        "0xddf252ad1be2c89b69c2b068fc378daa952ba7f163c4a11628f55a4df523b3ef",
                        "0x00000000000000000000000089e51fa8ca5d66cd220baed62ed01e8951aa7c40",
                        "0x000000000000000000000000b3f923eabaf178fc1bd8e13902fc5c61d3ddef5b"
                    ]
                },
                "nodeType": 1
            }
        },
        "gasFlame": [
            {
                "children": [
                    {
                        "children": [
                            {
                                "children": [],
                                "depth": 0,
                                "name": "Initial Gas",
                                "value": 21632
                            },
                            {
                                "children": [],
                                "depth": 0,
                                "name": "Executed Gas",
                                "value": 24501
                            }
                        ],
                        "depth": -1,
                        "name": "Actual Gas Used",
                        "value": 46133
                    },
                    {
                        "children": [],
                        "depth": -1,
                        "name": "Refunded Gas",
                        "value": 0
                    }
                ],
                "depth": -2,
                "name": "Total Gas",
                "value": 46133
            }
        ],
        "isConfirmed": true,
        "mainTrace": [
            {
                "children": [
                    {
                        "children": [
                            {
                                "children": [],
                                "depth": 1,
                                "id": 1,
                                "order": 1
                            }
                        ],
                        "depth": 0,
                        "id": 0,
                        "order": 0
                    }
                ],
                "depth": -1,
                "id": -1,
                "order": -1
            }
        ],
        "mainTraceNodeCount": 2,
        "parentIdMap": {
            "0": -1,
            "1": 0
        },
        "tidyTrace": [
            {
                "children": [
                    {
                        "children": [
                            {
                                "children": [],
                                "depth": 1,
                                "id": 1,
                                "order": 1
                            }
                        ],
                        "depth": 0,
                        "id": 0,
                        "order": 0
                    }
                ],
                "depth": -1,
                "id": -1,
                "order": -1
            }
        ],
        "tidyTraceNodeCount": 2
    },
    "state_change": {
        "stateChanges": [
            {
                "address": "0xdac17f958d2ee523a2206206994597c13d831ec7",
                "erc": "ERC-20",
                "slots": [
                    {
                        "current": "0x0000000000000000000000000000000000000000000000000000dfe008899b72",
                        "key": "0xf94b05ba7d0a6aa6692eecf3cf30c6ca5d527c3e5fd03d7081ff14e4910ec033",
                        "prev": "0x0000000000000000000000000000000000000000000000000000e21a195abdd2"
                    },
                    {
                        "current": "0x000000000000000000000000000000000000000000000000000078a37d9127fa",
                        "key": "0x26d79bd5b8b76658f3e7072f2953a08913841bc91ebac4597de162c7dae48b80",
                        "prev": "0x000000000000000000000000000000000000000000000000000076696cc0059a"
                    }
                ],
                "storageVariables": [
                    {
                        "name": "balances",
                        "type": "mapping(address => uint256)",
                        "value": {
                            "pairs": [
                                {
                                    "key": "0x89e51fa8ca5d66cd220baed62ed01e8951aa7c40",
                                    "value": {
                                        "current": "246153308904306",
                                        "prev": "248601722404306",
                                        "typeTag": 1
                                    }
                                },
                                {
                                    "key": "0xb3f923eabaf178fc1bd8e13902fc5c61d3ddef5b",
                                    "value": {
                                        "current": "132643581667322",
                                        "prev": "130195168167322",
                                        "typeTag": 1
                                    }
                                }
                            ],
                            "typeTag": 4
                        }
                    }
                ]
            }
        ]
    }
}