{
    "balance_change": {
        "balanceChanges": [
            {
                "account": "0x117c701e3a8d570ee1d33b1d0c3f8084561e2e28",
                "assets": [
                    {
                        "address": "0xdac17f958d2ee523a2206206994597c13d831ec7",
                        "amount": "64.99976",
                        "iconUrl": "https://assets.blocksec.com/icon/fcea71f3193ce895be44bfdf941f7e4c9381dd587f273c2d1a27f1263d84e4ea.png",
                        "isERC1155": false,
                        "isERC721": false,
                        "sign": false,
                        "value": "65.064759759999992846"
                    }
                ]
            },
            {
                "account": "0x505fedb20789614d21ed9d454e5146a5f61845f2",
                "assets": [
                    {
                        "address": "0xdac17f958d2ee523a2206206994597c13d831ec7",
                        "amount": "3.249988",
                        "iconUrl": "https://assets.blocksec.com/icon/fcea71f3193ce895be44bfdf941f7e4c9381dd587f273c2d1a27f1263d84e4ea.png",
                        "isERC1155": false,
                        "isERC721": false,
                        "sign": true,
                        "value": "3.253237987999999642"
                    }
                ]
            },
            {
                "account": "0xa06b98121de22c16ebfcd41de99471ff8daadecf",
                "assets": [
                    {
                        "address": "0xdac17f958d2ee523a2206206994597c13d831ec7",
                        "amount": "61.749772",
                        "iconUrl": "https://assets.blocksec.com/icon/fcea71f3193ce895be44bfdf941f7e4c9381dd587f273c2d1a27f1263d84e4ea.png",
                        "isERC1155": false,
                        "isERC721": false,
                        "sign": true,
                        "value": "61.8115217719999932"
                    }
                ]
            }
        ]
    },
    "profile": {
        "basic_info": {
            "baseFee": "49.509819713",
            "blockNumber": 19359852,
            "callData": "0x136021d900000000000000000000000000000000000000000000000000000000000374b00000000000000000000000000000000000000000000000000000000000000000",
            "debugEnable": true,
            "errorInfo": "",
            "eventCount": 3,
            "feeRecipient": "0x95222290dd7278aa3ddd389cc1e1d165cc4bafe5",
            "formatValue": "0",
            "gasLimit": 243939,
            "gasPrice": "49.585926528",
            "gasUsed": 160187,
            "intTxnCount": 4,
            "internalRevert": false,
            "internalRevertMessage": "",
            "isContractCreation": false,
            "isFlashloan": false,
            "maxFee": "56.788416437",
            "nonce": 1,
            "overwritedBlockNumber": -1,
            "priorityFee": "0.076106815",
            "receiver": "0x521ad3b153a7900fce488a1f6baab45b05ef86b8",
            "revertMessage": "",
            "sender": "0x117c701e3a8d570ee1d33b1d0c3f8084561e2e28",
            "simulationEnable": true,
            "sourceTxnHash": "0xd0cc1204633c03c9660ae8a446b42526bf22b1211b281c66eec4893fca2df080",
            "status": true,
            "timestamp": "2024-03-04T05:56:47Z",
            "transactionFee": "0.007943020812740736",
            "txnHash": "0xd0cc1204633c03c9660ae8a446b42526bf22b1211b281c66eec4893fca2df080",
            "txnIndex": 107,
            "type": 2,
            "value": "0"
        },
        "fund_flow": [
            {
                "amount": "61.749772",
                "from": "0x117c701e3a8d570ee1d33b1d0c3f8084561e2e28",
                "id": 1,
                "isERC1155": false,
                "isERC721": false,
                "isReverted": false,
                "order": 1,
                "to": "0xa06b98121de22c16ebfcd41de99471ff8daadecf",
                "token": "0xdac17f958d2ee523a2206206994597c13d831ec7"
            },
            {
                "amount": "3.249988",
                "from": "0x117c701e3a8d570ee1d33b1d0c3f8084561e2e28",
                "id": 2,
                "isERC1155": false,
                "isERC721": false,
                "isReverted": false,
                "order": 2,
                "to": "0x505fedb20789614d21ed9d454e5146a5f61845f2",
                "token": "0xdac17f958d2ee523a2206206994597c13d831ec7"
            }
        ],
        "token_infos": [
            {
                "address": "0xc02aaa39b223fe8d0a0e5c4f27ead9083c756cc2",
                "decimals": 18
            },
            {
                "address": "0xdac17f958d2ee523a2206206994597c13d831ec7",
                "decimals": 6
            },
            {
                "address": "0xeeeeeeeeeeeeeeeeeeeeeeeeeeeeeeeeeeeeeeee",
                "decimals": 18
            }
        ]
    },
    "address_label": {
        "labels": [
            {
                "address": "0x0000000000000000000000000000000000000001",
                "label": "Precompiled"
            },
            {
                "address": "0x0000000000000000000000000000000000000002",
                "label": "Precompiled"
            },
            {
                "address": "0x0000000000000000000000000000000000000003",
                "label": "Precompiled"
            },
            {
                "address": "0x0000000000000000000000000000000000000004",
                "label": "Precompiled"
            },
            {
                "address": "0xeeeeeeeeeeeeeeeeeeeeeeeeeeeeeeeeeeeeeeee",
                "label": "Ether"
            },
            {
                "address": "0xdac17f958d2ee523a2206206994597c13d831ec7",
                "label": "Tether: USDT Stablecoin"
            },
            {
                "address": "0x521ad3b153a7900fce488a1f6baab45b05ef86b8",
                "label": "TransparentUpgradeableProxy"
            },
            {
                "address": "0xb2b30b1ea854e55c4bbe16edba0fde8b230c6176",
                "label": "PresaleV1"
            }
        ]
    },
    "trace": {
        "accountLabels": null,
        "dataMap": {
            "-1": {
                "invocation": {
                    "address": "0x117c701e3a8d570ee1d33b1d0c3f8084561e2e28",
                    "callData": "",
                    "decodedMethod": null,
                    "errorInfo": "",
                    "fromAddress": "",
                    "gasUsed": 0,
                    "id": -1,
                    "methodDecoded": false,
                    "operation": "",
                    "output": "",
                    "revert": false,
                    "revertMessage": "",
                    "selector": "",
                    "status": false,
                    "value": ""
                },
                "nodeType": 0
            },
            "0": {
                "invocation": {
                    "address": "0x521ad3b153a7900fce488a1f6baab45b05ef86b8",
                    "callData": "0x00000000000000000000000000000000000000000000000000000000000374b00000000000000000000000000000000000000000000000000000000000000000",
                    "decodedMethod": {
                        "callParams": [
                            {
                                "name": "amount",
                                "type": "uint256",
                                "value": "226,480"
                            },
                            {
                                "name": "stake",
                                "type": "bool",
                                "value": false
                            }
                        ],
                        "constructorArguments": "",
                        "name": "buyWithUSDT",
                        "returnParams": [
                            {
                                "name": "",
                                "type": "bool",
                                "value": true
                            }
                        ],
                        "signature": "buyWithUSDT(uint256,bool)"
                    },
                    "errorInfo": "",
                    "fromAddress": "0x117c701e3a8d570ee1d33b1d0c3f8084561e2e28",
                    "gasUsed": 160187,
                    "id": 0,
                    "methodDecoded": true,
                    "operation": "CALL",
                    "output": "0x0000000000000000000000000000000000000000000000000000000000000001",
                    "revert": false,
                    "revertMessage": "",
                    "selector": "0x136021d9",
                    "status": true,
                    "value": "0"
                },
                "nodeType": 0
            },
            "1": {
                "invocation": {
                    "address": "0xb2b30b1ea854e55c4bbe16edba0fde8b230c6176",
                    "callData": "0x00000000000000000000000000000000000000000000000000000000000374b00000000000000000000000000000000000000000000000000000000000000000",
                    "decodedMethod": {
                        "callParams": [
                            {
                                "name": "amount",
                                "type": "uint256",
                                "value": "226,480"
                            },
                            {
                                "name": "stake",
                                "type": "bool",
                                "value": false
                            }
                        ],
                        "constructorArguments": "",
                        "name": "buyWithUSDT",
                        "returnParams": [
                            {
                                "name": "",
                                "type": "bool",
                                "value": true
                            }
                        ],
                        "signature": "buyWithUSDT(uint256,bool)"
                    },
                    "errorInfo": "",
                    "fromAddress": "0x521ad3b153a7900fce488a1f6baab45b05ef86b8",
                    "gasUsed": 131509,
                    "id": 1,
                    "methodDecoded": true,
                    "operation": "DELEGATECALL",
                    "output": "0x0000000000000000000000000000000000000000000000000000000000000001",
                    "revert": false,
                    "revertMessage": "",
                    "selector": "0x136021d9",
                    "status": true,
                    "value": "0"
                },
                "nodeType": 0
            },
            "2": {
                "event": {
                    "contract": "0x521ad3b153a7900fce488a1f6baab45b05ef86b8",
                    "decodedLog": {
                        "name": "TokensBought",
                        "params": [
                            {
                                "name": "user",
                                "type": "address",
                                "value": "0x117c701e3a8d570ee1d33b1d0c3f8084561e2e28"
                            },
                            {
                                "name": "tokensBought",
                                "type": "uint256",
                                "value": "226,480"
                            },
                            {
                                "name": "purchaseToken",
                                "type": "address",
                                "value": "0xdac17f958d2ee523a2206206994597c13d831ec7"
                            },
                            {
                                "name": "amountPaid",
                                "type": "uint256",
                                "value": "64,999,760"
                            },
                            {
                                "name": "usdEq",
                                "type": "uint256",
                                "value": "64,999,760,000,000,000,000"
                            },
                            {
                                "name": "timestamp",
                                "type": "uint256",
                                "value": "1,709,531,807"
                            }
                        ],
                        "signature": "TokensBought(address,uint256,address,uint256,uint256,uint256)"
                    },
                    "id": 2,
                    "logData": "0x0000000000000000000000000000000000000000000000000000000003dfd150000000000000000000000000000000000000000000000003860d895625a500000000000000000000000000000000000000000000000000000000000065e5629f",
                    "logDecoded": true,
                    "operation": "EVENT",
                    "revert": false,
                    "status": true,
                    "topics": [
                        "0x4d8aead3491b7eba4b5c7a65fc17e493b9e63f9e433522fc5f6a85a168fc9d36",
                        "0x000000000000000000000000117c701e3a8d570ee1d33b1d0c3f8084561e2e28",
                        "0x00000000000000000000000000000000000000000000000000000000000374b0",
                        "0x000000000000000000000000dac17f958d2ee523a2206206994597c13d831ec7"
                    ]
                },
                "nodeType": 1
            },
            "3": {
                "invocation": {
                    "address": "0xdac17f958d2ee523a2206206994597c13d831ec7",
                    "callData": "0x000000000000000000000000117c701e3a8d570ee1d33b1d0c3f8084561e2e28000000000000000000000000521ad3b153a7900fce488a1f6baab45b05ef86b8",
                    "decodedMethod": {
                        "callParams": [
                            {
                                "name": "_owner",
                                "type": "address",
                                "value": "0x117c701e3a8d570ee1d33b1d0c3f8084561e2e28"
                            },
                            {
                                "name": "_spender",
                                "type": "address",
                                "value": "0x521ad3b153a7900fce488a1f6baab45b05ef86b8"
                            }
                        ],
                        "constructorArguments": "",
                        "name": "allowance",
                        "returnParams": [
                            {
                                "decimalAvailable": true,
                                "name": "remaining",
                                "type": "uint256",
                                "value": "100,000,000,000,000,000,000,000,000"
                            }
                        ],
                        "signature": "allowance(address,address)"
                    },
                    "errorInfo": "",
                    "fromAddress": "0x521ad3b153a7900fce488a1f6baab45b05ef86b8",
                    "gasUsed": 5356,
                    "id": 3,
                    "methodDecoded": true,
                    "operation": "STATICCALL",
                    "output": "0x00000000000000000000000000000000000000000052b7d2dcc80cd2e4000000",
                    "revert": false,
                    "revertMessage": "",
                    "selector": "0xdd62ed3e",
                    "status": true,
                    "value": "0"
                },
                "nodeType": 0
            },
            "4": {
                "invocation": {
                    "address": "0xdac17f958d2ee523a2206206994597c13d831ec7",
                    "callData": "0x000000000000000000000000117c701e3a8d570ee1d33b1d0c3f8084561e2e28000000000000000000000000a06b98121de22c16ebfcd41de99471ff8daadecf0000000000000000000000000000000000000000000000000000000003ae3a0c",
                    "decodedMethod": {
                        "callParams": [
                            {
                                "name": "_from",
                                "type": "address",
                                "value": "0x117c701e3a8d570ee1d33b1d0c3f8084561e2e28"
                            },
                            {
                                "name": "_to",
                                "type": "address",
                                "value": "0xa06b98121de22c16ebfcd41de99471ff8daadecf"
                            },
                            {
                                "decimalAvailable": true,
                                "name": "_value",
                                "type": "uint256",
                                "value": "61,749,772"
                            }
                        ],
                        "constructorArguments": "",
                        "name": "transferFrom",
                        "returnParams": [],
                        "signature": "transferFrom(address,address,uint256)"
                    },
                    "errorInfo": "",
                    "fromAddress": "0x521ad3b153a7900fce488a1f6baab45b05ef86b8",
                    "gasUsed": 25724,
                    "id": 4,
                    "methodDecoded": true,
                    "operation": "CALL",
                    "output": "",
                    "revert": false,
                    "revertMessage": "",
                    "selector": "0x23b872dd",
                    "status": true,
                    "value": "0"
                },
                "nodeType": 0
            },
            "5": {
                "event": {
                    "contract": "0xdac17f958d2ee523a2206206994597c13d831ec7",
                    "decodedLog": {
                        "name": "Transfer",
                        "params": [
                            {
                                "name": "from",
                                "type": "address",
                                "value": "0x117c701e3a8d570ee1d33b1d0c3f8084561e2e28"
                            },
                            {
                                "name": "to",
                                "type": "address",
                                "value": "0xa06b98121de22c16ebfcd41de99471ff8daadecf"
                            },
                            {
                                "decimalAvailable": true,
                                "name": "value",
                                "type": "uint256",
                                "value": "61,749,772"
                            }
                        ],
                        "signature": "Transfer(address,address,uint256)"
                    },
                    "id": 5,
                    "logData": "0x0000000000000000000000000000000000000000000000000000000003ae3a0c",
                    "logDecoded": true,
                    "operation": "EVENT",
                    "revert": false,
                    "status": true,
                    "topics": [
                        "0xddf252ad1be2c89b69c2b068fc378daa952ba7f163c4a11628f55a4df523b3ef",
                        "0x000000000000000000000000117c701e3a8d570ee1d33b1d0c3f8084561e2e28",
                        "0x000000000000000000000000a06b98121de22c16ebfcd41de99471ff8daadecf"
                    ]
                },
                "nodeType": 1
            },
            "6": {
                "invocation": {
                    "address": "0xdac17f958d2ee523a2206206994597c13d831ec7",
                    "callData": "0x000000000000000000000000117c701e3a8d570ee1d33b1d0c3f8084561e2e28000000000000000000000000505fedb20789614d21ed9d454e5146a5f61845f20000000000000000000000000000000000000000000000000000000000319744",
                    "decodedMethod": {
                        "callParams": [
                            {
                                "name": "_from",
                                "type": "address",
                                "value": "0x117c701e3a8d570ee1d33b1d0c3f8084561e2e28"
                            },
                            {
                                "name": "_to",
                                "type": "address",
                                "value": "0x505fedb20789614d21ed9d454e5146a5f61845f2"
                            },
                            {
                                "decimalAvailable": true,
                                "name": "_value",
                                "type": "uint256",
                                "value": "3,249,988"
                            }
                        ],
                        "constructorArguments": "",
                        "name": "transferFrom",
                        "returnParams": [],
                        "signature": "transferFrom(address,address,uint256)"
                    },
                    "errorInfo": "",
                    "fromAddress": "0x521ad3b153a7900fce488a1f6baab45b05ef86b8",
                    "gasUsed": 10124,
                    "id": 6,
                    "methodDecoded": true,
                    "operation": "CALL",
                    "output": "",
                    "revert": false,
                    "revertMessage": "",
                    "selector": "0x23b872dd",
                    "status": true,
                    "value": "0"
                },
                "nodeType": 0
            },
            "7": {
                "event": {
                    "contract": "0xdac17f958d2ee523a2206206994597c13d831ec7",
                    "decodedLog": {
                        "name": "Transfer",
                        "params": [
                            {
                                "name": "from",
                                "type": "address",
                                "value": "0x117c701e3a8d570ee1d33b1d0c3f8084561e2e28"
                            },
                            {
                                "name": "to",
                                "type": "address",
                                "value": "0x505fedb20789614d21ed9d454e5146a5f61845f2"
                            },
                            {
                                "decimalAvailable": true,
                                "name": "value",
                                "type": "uint256",
                                "value": "3,249,988"
                            }
                        ],
                        "signature": "Transfer(address,address,uint256)"
                    },
                    "id": 7,
                    "logData": "0x0000000000000000000000000000000000000000000000000000000000319744",
                    "logDecoded": true,
                    "operation": "EVENT",
                    "revert": false,
                    "status": true,
                    "topics": [
                        "0xddf252ad1be2c89b69c2b068fc378daa952ba7f163c4a11628f55a4df523b3ef",
                        "0x000000000000000000000000117c701e3a8d570ee1d33b1d0c3f8084561e2e28",
                        "0x000000000000000000000000505fedb20789614d21ed9d454e5146a5f61845f2"
                    ]
                },
                "nodeType": 1
            }
        },
        "gasFlame": [
            {
                "children": [
                    {
                        "children": [
                            {
                                "children": [],
                                "depth": 0,
                                "name": "Initial Gas",
                                "value": 21356
                            },
                            {
                                "children": [
                                    {
                                        "children": [
                                            {
                                                "children": [],
                                                "depth": 2,
                                                "name": "allowance",
                                                "value": 5356
                                            },
                                            {
                                                "children": [],
                                                "depth": 2,
                                                "name": "transferFrom",
                                                "value": 25724
                                            },
                                            {
                                                "children": [],
                                                "depth": 2,
                                                "name": "transferFrom",
                                                "value": 10124
                                            }
                                        ],
                                        "depth": 1,
                                        "name": "buyWithUSDT",
                                        "value": 131509
                                    }
                                ],
                                "depth": 0,
                                "name": "Executed Gas",
                                "value": 138831
                            }
                        ],
                        "depth": -1,
                        "name": "Actual Gas Used",
                        "value": 160187
                    },
                    {
                        "children": [],
                        "depth": -1,
                        "name": "Refunded Gas",
                        "value": 0
                    }
                ],
                "depth": -2,
                "name": "Total Gas",
                "value": 160187
            }
        ],
        "isConfirmed": true,
        "mainTrace": [
            {
                "children": [
                    {
                        "children": [
                            {
                                "children": [
                                    {
                                        "children": [],
                                        "depth": 2,
                                        "id": 2,
                                        "order": 2
                                    },
                                    {
                                        "children": [],
                                        "depth": 2,
                                        "id": 3,
                                        "order": 3
                                    },
                                    {
                                        "children": [
                                            {
                                                "children": [],
                                                "depth": 3,
                                                "id": 5,
                                                "order": 5
                                            }
                                        ],
                                        "depth": 2,
                                        "id": 4,
                                        "order": 4
                                    },
                                    {
                                        "children": [
                                            {
                                                "children": [],
                                                "depth": 3,
                                                "id": 7,
                                                "order": 7
                                            }
                                        ],
                                        "depth": 2,
                                        "id": 6,
                                        "order": 6
                                    }
                                ],
                                "depth": 1,
                                "id": 1,
                                "order": 1
                            }
                        ],
                        "depth": 0,
                        "id": 0,
                        "order": 0
                    }
                ],
                "depth": -1,
                "id": -1,
                "order": -1
            }
        ],
        "mainTraceNodeCount": 8,
        "parentIdMap": {
            "0": -1,
            "1": 0,
            "2": 1,
            "3": 1,
            "4": 1,
            "5": 4,
            "6": 1,
            "7": 6
        },
        "tidyTrace": [
            {
                "children": [
                    {
                        "children": [
                            {
                                "children": [
                                    {
                                        "children": [],
                                        "depth": 2,
                                        "id": 2,
                                        "order": 2
                                    },
                                    {
                                        "children": [
                                            {
                                                "children": [],
                                                "depth": 3,
                                                "id": 5,
                                                "order": 5
                                            }
                                        ],
                                        "depth": 2,
                                        "id": 4,
                                        "order": 4
                                    },
                                    {
                                        "children": [
                                            {
                                                "children": [],
                                                "depth": 3,
                                                "id": 7,
                                                "order": 7
                                            }
                                        ],
                                        "depth": 2,
                                        "id": 6,
                                        "order": 6
                                    }
                                ],
                                "depth": 1,
                                "id": 1,
                                "order": 1
                            }
                        ],
                        "depth": 0,
                        "id": 0,
                        "order": 0
                    }
                ],
                "depth": -1,
                "id": -1,
                "order": -1
            }
        ],
        "tidyTraceNodeCount": 7
    },
    "state_change": {
        "stateChanges": [
            {
                "address": "0x521ad3b153a7900fce488a1f6baab45b05ef86b8",
                "erc": "",
                "slots": [
                    {
                        "current": "0x0000000000000000000000000000000000000000000000000000000026d061a7",
                        "key": "0x00000000000000000000000000000000000000000000000000000000000000c9",
                        "prev": "0x0000000000000000000000000000000000000000000000000000000026ccecf7"
                    },
                    {
                        "current": "0x000000000000000000000000000000000000000000000000000000003c0c812a",
                        "key": "0x00000000000000000000000000000000000000000000000000000000000000d1",
                        "prev": "0x000000000000000000000000000000000000000000000000000000003c090c7a"
                    },
                    {
                        "current": "0x000000000000000000000000000000000000000000002ff58161f98864c00000",
                        "key": "0x27dbc14b8d204849390b0b7b912fb85bd2eb74932c74140dd5e34ced0b3f9c6b",
                        "prev": "0x0000000000000000000000000000000000000000000000000000000000000000"
                    },
                    {
                        "current": "0x0000000000000000000000000000000000000000000020b5cba2f403106f8000",
                        "key": "0x00000000000000000000000000000000000000000000000000000000000000d2",
                        "prev": "0x0000000000000000000000000000000000000000000020b245956aaceaca8000"
                    }
                ],
                "storageVariables": [
                    {
                        "name": "totalTokensSold",
                        "type": "uint256",
                        "value": {
                            "current": "651190695",
                            "prev": "650964215",
                            "typeTag": 1
                        }
                    },
                    {
                        "name": "checkPoint",
                        "type": "uint256",
                        "value": {
                            "current": "1007452458",
                            "prev": "1007225978",
                            "typeTag": 1
                        }
                    },
                    {
                        "name": "userDeposits",
                        "type": "mapping(address => uint256)",
                        "value": {
                            "pairs": [
                                {
                                    "key": "0x117c701e3a8d570ee1d33b1d0c3f8084561e2e28",
                                    "value": {
                                        "current": "226480000000000000000000",
                                        "prev": "0",
                                        "typeTag": 1
                                    }
                                }
                            ],
                            "typeTag": 4
                        }
                    },
                    {
                        "name": "usdRaised",
                        "type": "uint256",
                        "value": {
                            "current": "154469261688000000000000",
                            "prev": "154404261928000000000000",
                            "typeTag": 1
                        }
                    }
                ]
            },
            {
                "address": "0xdac17f958d2ee523a2206206994597c13d831ec7",
                "erc": "ERC-20",
                "slots": [
                    {
                        "current": "0x0000000000000000000000000000000000000000000000000000001fe938f596",
                        "key": "0xe114529dd75f8afa0ebfd2194bd1be811cf9735cabfedd856a8ed7b3ffc3e784",
                        "prev": "0x0000000000000000000000000000000000000000000000000000001fe9075e52"
                    },
                    {
                        "current": "0x00000000000000000000000000000000000000000052b7d2dcc80cd2e0202eb0",
                        "key": "0x2396f942cee8b28665803e228f1b6c95960e10478bdbc231bba0a756a5cb3950",
                        "prev": "0x00000000000000000000000000000000000000000052b7d2dcc80cd2e4000000"
                    },
                    {
                        "current": "0x00000000000000000000000000000000000000000000000000000000000000f0",
                        "key": "0x1fcf2990cdc5f34f7ebfdc3f5189f048fe7e79eb40dde002ee40297eecef669f",
                        "prev": "0x0000000000000000000000000000000000000000000000000000000003dfd240"
                    },
                    {
                        "current": "0x00000000000000000000000000000000000000000000000000000002ae4264a9",
                        "key": "0xa574cc03995cbc2a639bfc07de54a5d54df6dae1a372bf074e998d1fbcdf69c1",
                        "prev": "0x00000000000000000000000000000000000000000000000000000002aa942a9d"
                    }
                ],
                "storageVariables": [
                    {
                        "name": "balances",
                        "type": "mapping(address => uint256)",
                        "value": {
                            "pairs": [
                                {
                                    "key": "0x117c701e3a8d570ee1d33b1d0c3f8084561e2e28",
                                    "value": {
                                        "current": "240",
                                        "prev": "65000000",
                                        "typeTag": 1
                                    }
                                },
                                {
                                    "key": "0x505fedb20789614d21ed9d454e5146a5f61845f2",
                                    "value": {
                                        "current": "137056810390",
                                        "prev": "137053560402",
                                        "typeTag": 1
                                    }
                                },
                                {
                                    "key": "0xa06b98121de22c16ebfcd41de99471ff8daadecf",
                                    "value": {
                                        "current": "11513521321",
                                        "prev": "11451771549",
                                        "typeTag": 1
                                    }
                                }
                            ],
                            "typeTag": 4
                        }
                    },
                    {
                        "name": "allowed",
                        "type": "mapping(address => mapping(address => uint256))",
                        "value": {
                            "pairs": [
                                {
                                    "key": "0x117c701e3a8d570ee1d33b1d0c3f8084561e2e28",
                                    "value": {
                                        "pairs": [
                                            {
                                                "key": "0x521ad3b153a7900fce488a1f6baab45b05ef86b8",
                                                "value": {
                                                    "current": "99999999999999999935000240",
                                                    "prev": "100000000000000000000000000",
                                                    "typeTag": 1
                                                }
                                            }
                                        ],
                                        "typeTag": 4
                                    }
                                }
                            ],
                            "typeTag": 4
                        }
                    }
                ]
            }
        ]
    }
}