{
    "balance_change": {
        "balanceChanges": [
            {
                "account": "0xf73fd42d383d4a4c172523e261fc3c2dccbd566a",
                "assets": [
                    {
                        "address": "0xd0929d411954c47438dc1d871dd6081f5c5e149c",
                        "amount": "101,572.2812",
                        "iconUrl": "https://assets.blocksec.com/icon/8ce11cca9d1c59a019979a2db4db39a294313dfcbf50aca4281b83f46766b465.png",
                        "isERC1155": false,
                        "isERC721": false,
                        "sign": false,
                        "value": "10.1572281200000004864"
                    }
                ]
            },
            {
                "account": "0xb4e2040b8a2753e325cc3cd2754ae90ad59a726d",
                "assets": [
                    {
                        "address": "0xd0929d411954c47438dc1d871dd6081f5c5e149c",
                        "amount": "101,572.2812",
                        "iconUrl": "https://assets.blocksec.com/icon/8ce11cca9d1c59a019979a2db4db39a294313dfcbf50aca4281b83f46766b465.png",
                        "isERC1155": false,
                        "isERC721": false,
                        "sign": true,
                        "value": "10.1572281200000004864"
                    }
                ]
            }
        ]
    },
    "profile": {
        "basic_info": {
            "baseFee": "6.328449612",
            "blockNumber": 18319080,
            "callData": "0xa9059cbb000000000000000000000000b4e2040b8a2753e325cc3cd2754ae90ad59a726d000000000000000000000000000000000000000000000000000000003c8ab33c",
            "debugEnable": true,
            "errorInfo": "",
            "eventCount": 2,
            "feeRecipient": "0x1f9090aae28b8a3dceadf281b0f12828e676c326",
            "formatValue": "0",
            "gasLimit": 200000,
            "gasPrice": "8.328449612",
            "gasUsed": 166832,
            "intTxnCount": 10,
            "internalRevert": false,
            "internalRevertMessage": "",
            "isContractCreation": false,
            "isFlashloan": false,
            "maxFee": "13.025807888",
            "nonce": 624,
            "overwritedBlockNumber": -1,
            "priorityFee": "2",
            "receiver": "0xd0929d411954c47438dc1d871dd6081f5c5e149c",
            "revertMessage": "",
            "sender": "0xf73fd42d383d4a4c172523e261fc3c2dccbd566a",
            "simulationEnable": true,
            "sourceTxnHash": "0xd03f64bbdf61acb89c0c8f23b3b48252db5ec25c32de80a8d8bb6fffe866c39f",
            "status": true,
            "timestamp": "2023-10-10T09:11:59Z",
            "transactionFee": "0.001389451905669184",
            "txnHash": "0xd03f64bbdf61acb89c0c8f23b3b48252db5ec25c32de80a8d8bb6fffe866c39f",
            "txnIndex": 140,
            "type": 2,
            "value": "0"
        },
        "fund_flow": [
            {
                "amount": "101,572.2812",
                "from": "0xf73fd42d383d4a4c172523e261fc3c2dccbd566a",
                "id": 1,
                "isERC1155": false,
                "isERC721": false,
                "isReverted": false,
                "order": 1,
                "to": "0xb4e2040b8a2753e325cc3cd2754ae90ad59a726d",
                "token": "0xd0929d411954c47438dc1d871dd6081f5c5e149c"
            }
        ],
        "token_infos": [
            {
                "address": "0xd0929d411954c47438dc1d871dd6081f5c5e149c",
                "decimals": 4
            },
            {
                "address": "0xeeeeeeeeeeeeeeeeeeeeeeeeeeeeeeeeeeeeeeee",
                "decimals": 18
            },
            {
                "address": "0xc02aaa39b223fe8d0a0e5c4f27ead9083c756cc2",
                "decimals": 18
            }
        ]
    },
    "address_label": {
        "labels": [
            {
                "address": "0x60bf91ac87fee5a78c28f7b67701fbcfa79c18ec",
                "label": "historyEToken"
            },
            {
                "address": "0xd0929d411954c47438dc1d871dd6081f5c5e149c",
                "label": "Refereum"
            },
            {
                "address": "0x331d077518216c07c87f4f18ba64cd384c411f84",
                "label": "EToken2"
            },
            {
                "address": "0x0000000000000000000000000000000000000001",
                "label": "Precompiled"
            },
            {
                "address": "0x0000000000000000000000000000000000000002",
                "label": "Precompiled"
            },
            {
                "address": "0x0000000000000000000000000000000000000003",
                "label": "Precompiled"
            },
            {
                "address": "0x0000000000000000000000000000000000000004",
                "label": "Precompiled"
            },
            {
                "address": "0xeeeeeeeeeeeeeeeeeeeeeeeeeeeeeeeeeeeeeeee",
                "label": "Ether"
            }
        ]
    },
    "trace": {
        "accountLabels": null,
        "dataMap": {
            "-1": {
                "invocation": {
                    "address": "0xf73fd42d383d4a4c172523e261fc3c2dccbd566a",
                    "callData": "",
                    "decodedMethod": null,
                    "errorInfo": "",
                    "fromAddress": "",
                    "gasUsed": 0,
                    "id": -1,
                    "methodDecoded": false,
                    "operation": "",
                    "output": "",
                    "revert": false,
                    "revertMessage": "",
                    "selector": "",
                    "status": false,
                    "value": ""
                },
                "nodeType": 0
            },
            "0": {
                "invocation": {
                    "address": "0xd0929d411954c47438dc1d871dd6081f5c5e149c",
                    "callData": "0x000000000000000000000000b4e2040b8a2753e325cc3cd2754ae90ad59a726d000000000000000000000000000000000000000000000000000000003c8ab33c",
                    "decodedMethod": {
                        "callParams": [
                            {
                                "name": "_to",
                                "type": "address",
                                "value": "0xb4e2040b8a2753e325cc3cd2754ae90ad59a726d"
                            },
                            {
                                "decimalAvailable": true,
                                "name": "_value",
                                "type": "uint256",
                                "value": "1,015,722,812"
                            }
                        ],
                        "constructorArguments": "",
                        "name": "transfer",
                        "returnParams": [
                            {
                                "name": "",
                                "type": "bool",
                                "value": true
                            }
                        ],
                        "signature": "transfer(address,uint256)"
                    },
                    "errorInfo": "",
                    "fromAddress": "0xf73fd42d383d4a4c172523e261fc3c2dccbd566a",
                    "gasUsed": 166832,
                    "id": 0,
                    "methodDecoded": true,
                    "operation": "CALL",
                    "output": "0x0000000000000000000000000000000000000000000000000000000000000001",
                    "revert": false,
                    "revertMessage": "",
                    "selector": "0xa9059cbb",
                    "status": true,
                    "value": "0"
                },
                "nodeType": 0
            },
            "1": {
                "invocation": {
                    "address": "0xdfb0acd77b0a9538d2d1b05399a1f254a541076f",
                    "callData": "0x000000000000000000000000b4e2040b8a2753e325cc3cd2754ae90ad59a726d000000000000000000000000000000000000000000000000000000003c8ab33c0000000000000000000000000000000000000000000000000000000000000080000000000000000000000000f73fd42d383d4a4c172523e261fc3c2dccbd566a0000000000000000000000000000000000000000000000000000000000000000",
                    "decodedMethod": {
                        "callParams": [
                            {
                                "name": "_to",
                                "type": "address",
                                "value": "0xb4e2040b8a2753e325cc3cd2754ae90ad59a726d"
                            },
                            {
                                "name": "_value",
                                "type": "uint256",
                                "value": "1,015,722,812"
                            },
                            {
                                "name": "_reference",
                                "type": "string",
                                "value": ""
                            },
                            {
                                "name": "_sender",
                                "type": "address",
                                "value": "0xf73fd42d383d4a4c172523e261fc3c2dccbd566a"
                            }
                        ],
                        "constructorArguments": "",
                        "name": "_performTransferWithReference",
                        "returnParams": [
                            {
                                "name": "",
                                "type": "bool",
                                "value": true
                            }
                        ],
                        "signature": "_performTransferWithReference(address,uint256,string,address)"
                    },
                    "errorInfo": "",
                    "fromAddress": "0xd0929d411954c47438dc1d871dd6081f5c5e149c",
                    "gasUsed": 136813,
                    "id": 1,
                    "methodDecoded": true,
                    "operation": "CALL",
                    "output": "0x0000000000000000000000000000000000000000000000000000000000000001",
                    "revert": false,
                    "revertMessage": "",
                    "selector": "0x1962df71",
                    "status": true,
                    "value": "0"
                },
                "nodeType": 0
            },
            "10": {
                "event": {
                    "contract": "0x60bf91ac87fee5a78c28f7b67701fbcfa79c18ec",
                    "decodedLog": {
                        "name": "Transfer",
                        "params": [
                            {
                                "name": "from",
                                "type": "address",
                                "value": "0xf73fd42d383d4a4c172523e261fc3c2dccbd566a"
                            },
                            {
                                "name": "to",
                                "type": "address",
                                "value": "0xb4e2040b8a2753e325cc3cd2754ae90ad59a726d"
                            },
                            {
                                "name": "symbol",
                                "type": "bytes32",
                                "value": "0x5246520000000000000000000000000000000000000000000000000000000000"
                            },
                            {
                                "name": "value",
                                "type": "uint256",
                                "value": "1,015,722,812"
                            },
                            {
                                "name": "reference",
                                "type": "string",
                                "value": ""
                            },
                            {
                                "name": "version",
                                "type": "uint256",
                                "value": "2"
                            }
                        ],
                        "signature": "Transfer(address,address,bytes32,uint256,string,uint256)"
                    },
                    "id": 10,
                    "logData": "0x000000000000000000000000000000000000000000000000000000003c8ab33c000000000000000000000000000000000000000000000000000000000000006000000000000000000000000000000000000000000000000000000000000000020000000000000000000000000000000000000000000000000000000000000000",
                    "logDecoded": true,
                    "operation": "EVENT",
                    "revert": false,
                    "status": true,
                    "topics": [
                        "0x940c4b3549ef0aaff95807dc27f62d88ca15532d1bf535d7d63800f40395d16c",
                        "0x000000000000000000000000f73fd42d383d4a4c172523e261fc3c2dccbd566a",
                        "0x000000000000000000000000b4e2040b8a2753e325cc3cd2754ae90ad59a726d",
                        "0x5246520000000000000000000000000000000000000000000000000000000000"
                    ]
                },
                "nodeType": 1
            },
            "11": {
                "invocation": {
                    "address": "0xd0929d411954c47438dc1d871dd6081f5c5e149c",
                    "callData": "0x000000000000000000000000f73fd42d383d4a4c172523e261fc3c2dccbd566a000000000000000000000000b4e2040b8a2753e325cc3cd2754ae90ad59a726d000000000000000000000000000000000000000000000000000000003c8ab33c",
                    "decodedMethod": {
                        "callParams": [
                            {
                                "name": "_from",
                                "type": "address",
                                "value": "0xf73fd42d383d4a4c172523e261fc3c2dccbd566a"
                            },
                            {
                                "name": "_to",
                                "type": "address",
                                "value": "0xb4e2040b8a2753e325cc3cd2754ae90ad59a726d"
                            },
                            {
                                "name": "_value",
                                "type": "uint256",
                                "value": "1,015,722,812"
                            }
                        ],
                        "constructorArguments": "",
                        "name": "emitTransfer",
                        "returnParams": [],
                        "signature": "emitTransfer(address,address,uint256)"
                    },
                    "errorInfo": "",
                    "fromAddress": "0x331d077518216c07c87f4f18ba64cd384c411f84",
                    "gasUsed": 2336,
                    "id": 11,
                    "methodDecoded": true,
                    "operation": "CALL",
                    "output": "",
                    "revert": false,
                    "revertMessage": "",
                    "selector": "0x23de6651",
                    "status": true,
                    "value": "0"
                },
                "nodeType": 0
            },
            "12": {
                "event": {
                    "contract": "0xd0929d411954c47438dc1d871dd6081f5c5e149c",
                    "decodedLog": {
                        "name": "Transfer",
                        "params": [
                            {
                                "name": "from",
                                "type": "address",
                                "value": "0xf73fd42d383d4a4c172523e261fc3c2dccbd566a"
                            },
                            {
                                "name": "to",
                                "type": "address",
                                "value": "0xb4e2040b8a2753e325cc3cd2754ae90ad59a726d"
                            },
                            {
                                "decimalAvailable": true,
                                "name": "value",
                                "type": "uint256",
                                "value": "1,015,722,812"
                            }
                        ],
                        "signature": "Transfer(address,address,uint256)"
                    },
                    "id": 12,
                    "logData": "0x000000000000000000000000000000000000000000000000000000003c8ab33c",
                    "logDecoded": true,
                    "operation": "EVENT",
                    "revert": false,
                    "status": true,
                    "topics": [
                        "0xddf252ad1be2c89b69c2b068fc378daa952ba7f163c4a11628f55a4df523b3ef",
                        "0x000000000000000000000000f73fd42d383d4a4c172523e261fc3c2dccbd566a",
                        "0x000000000000000000000000b4e2040b8a2753e325cc3cd2754ae90ad59a726d"
                    ]
                },
                "nodeType": 1
            },
            "2": {
                "invocation": {
                    "address": "0x79f8818d98e6f6eb33aa3468091281c2576e969d",
                    "callData": "0x000000000000000000000000f73fd42d383d4a4c172523e261fc3c2dccbd566a000000000000000000000000b4e2040b8a2753e325cc3cd2754ae90ad59a726d000000000000000000000000000000000000000000000000000000003c8ab33c",
                    "decodedMethod": {
                        "callParams": [
                            {
                                "name": "",
                                "type": "address",
                                "value": "0xf73fd42d383d4a4c172523e261fc3c2dccbd566a"
                            },
                            {
                                "name": "",
                                "type": "address",
                                "value": "0xb4e2040b8a2753e325cc3cd2754ae90ad59a726d"
                            },
                            {
                                "name": "",
                                "type": "uint256",
                                "value": "1,015,722,812"
                            }
                        ],
                        "constructorArguments": "",
                        "name": "isTransferAllowed",
                        "returnParams": [
                            {
                                "name": "",
                                "type": "bool",
                                "value": true
                            }
                        ],
                        "signature": "isTransferAllowed(address,address,uint256)"
                    },
                    "errorInfo": "",
                    "fromAddress": "0xdfb0acd77b0a9538d2d1b05399a1f254a541076f",
                    "gasUsed": 2598,
                    "id": 2,
                    "methodDecoded": true,
                    "operation": "CALL",
                    "output": "0x0000000000000000000000000000000000000000000000000000000000000001",
                    "revert": false,
                    "revertMessage": "",
                    "selector": "0xf7ebc39a",
                    "status": true,
                    "value": "0"
                },
                "nodeType": 0
            },
            "3": {
                "invocation": {
                    "address": "0xd0929d411954c47438dc1d871dd6081f5c5e149c",
                    "callData": "0x000000000000000000000000f73fd42d383d4a4c172523e261fc3c2dccbd566a000000000000000000000000b4e2040b8a2753e325cc3cd2754ae90ad59a726d000000000000000000000000000000000000000000000000000000003c8ab33c00000000000000000000000000000000000000000000000000000000000000a0000000000000000000000000f73fd42d383d4a4c172523e261fc3c2dccbd566a0000000000000000000000000000000000000000000000000000000000000000",
                    "decodedMethod": {
                        "callParams": [
                            {
                                "name": "_from",
                                "type": "address",
                                "value": "0xf73fd42d383d4a4c172523e261fc3c2dccbd566a"
                            },
                            {
                                "name": "_to",
                                "type": "address",
                                "value": "0xb4e2040b8a2753e325cc3cd2754ae90ad59a726d"
                            },
                            {
                                "name": "_value",
                                "type": "uint256",
                                "value": "1,015,722,812"
                            },
                            {
                                "name": "_reference",
                                "type": "string",
                                "value": ""
                            },
                            {
                                "name": "_sender",
                                "type": "address",
                                "value": "0xf73fd42d383d4a4c172523e261fc3c2dccbd566a"
                            }
                        ],
                        "constructorArguments": "",
                        "name": "_forwardTransferFromWithReference",
                        "returnParams": [
                            {
                                "name": "",
                                "type": "bool",
                                "value": true
                            }
                        ],
                        "signature": "_forwardTransferFromWithReference(address,address,uint256,string,address)"
                    },
                    "errorInfo": "",
                    "fromAddress": "0xdfb0acd77b0a9538d2d1b05399a1f254a541076f",
                    "gasUsed": 125530,
                    "id": 3,
                    "methodDecoded": true,
                    "operation": "CALL",
                    "output": "0x0000000000000000000000000000000000000000000000000000000000000001",
                    "revert": false,
                    "revertMessage": "",
                    "selector": "0x14cba002",
                    "status": true,
                    "value": "0"
                },
                "nodeType": 0
            },
            "4": {
                "invocation": {
                    "address": "0x331d077518216c07c87f4f18ba64cd384c411f84",
                    "callData": "0x000000000000000000000000f73fd42d383d4a4c172523e261fc3c2dccbd566a000000000000000000000000b4e2040b8a2753e325cc3cd2754ae90ad59a726d000000000000000000000000000000000000000000000000000000003c8ab33c524652000000000000000000000000000000000000000000000000000000000000000000000000000000000000000000000000000000000000000000000000c0000000000000000000000000f73fd42d383d4a4c172523e261fc3c2dccbd566a0000000000000000000000000000000000000000000000000000000000000000",
                    "decodedMethod": {
                        "callParams": [
                            {
                                "name": "_from",
                                "type": "address",
                                "value": "0xf73fd42d383d4a4c172523e261fc3c2dccbd566a"
                            },
                            {
                                "name": "_to",
                                "type": "address",
                                "value": "0xb4e2040b8a2753e325cc3cd2754ae90ad59a726d"
                            },
                            {
                                "name": "_value",
                                "type": "uint256",
                                "value": "1,015,722,812"
                            },
                            {
                                "name": "_symbol",
                                "type": "bytes32",
                                "value": "0x5246520000000000000000000000000000000000000000000000000000000000"
                            },
                            {
                                "name": "_reference",
                                "type": "string",
                                "value": ""
                            },
                            {
                                "name": "_sender",
                                "type": "address",
                                "value": "0xf73fd42d383d4a4c172523e261fc3c2dccbd566a"
                            }
                        ],
                        "constructorArguments": "",
                        "name": "proxyTransferFromWithReference",
                        "returnParams": [
                            {
                                "name": "",
                                "type": "bool",
                                "value": true
                            }
                        ],
                        "signature": "proxyTransferFromWithReference(address,address,uint256,bytes32,string,address)"
                    },
                    "errorInfo": "",
                    "fromAddress": "0xd0929d411954c47438dc1d871dd6081f5c5e149c",
                    "gasUsed": 117174,
                    "id": 4,
                    "methodDecoded": true,
                    "operation": "CALL",
                    "output": "0x0000000000000000000000000000000000000000000000000000000000000001",
                    "revert": false,
                    "revertMessage": "",
                    "selector": "0x161ff662",
                    "status": true,
                    "value": "0"
                },
                "nodeType": 0
            },
            "5": {
                "invocation": {
                    "address": "0x60bf91ac87fee5a78c28f7b67701fbcfa79c18ec",
                    "callData": "0x000000000000000000000000f73fd42d383d4a4c172523e261fc3c2dccbd566a000000000000000000000000b4e2040b8a2753e325cc3cd2754ae90ad59a726d5246520000000000000000000000000000000000000000000000000000000000000000000000000000000000000000000000000000000000000000003c8ab33c00000000000000000000000000000000000000000000000000000000000000a00000000000000000000000000000000000000000000000000000000000000000",
                    "decodedMethod": {
                        "callParams": [
                            {
                                "name": "_from",
                                "type": "address",
                                "value": "0xf73fd42d383d4a4c172523e261fc3c2dccbd566a"
                            },
                            {
                                "name": "_to",
                                "type": "address",
                                "value": "0xb4e2040b8a2753e325cc3cd2754ae90ad59a726d"
                            },
                            {
                                "name": "_symbol",
                                "type": "bytes32",
                                "value": "0x5246520000000000000000000000000000000000000000000000000000000000"
                            },
                            {
                                "name": "_value",
                                "type": "uint256",
                                "value": "1,015,722,812"
                            },
                            {
                                "name": "_reference",
                                "type": "string",
                                "value": ""
                            }
                        ],
                        "constructorArguments": "",
                        "name": "emitTransfer",
                        "returnParams": [],
                        "signature": "emitTransfer(address,address,bytes32,uint256,string)"
                    },
                    "errorInfo": "",
                    "fromAddress": "0x331d077518216c07c87f4f18ba64cd384c411f84",
                    "gasUsed": 19294,
                    "id": 5,
                    "methodDecoded": true,
                    "operation": "CALL",
                    "output": "",
                    "revert": false,
                    "revertMessage": "",
                    "selector": "0x515c1457",
                    "status": true,
                    "value": "0"
                },
                "nodeType": 0
            },
            "6": {
                "invocation": {
                    "address": "0xa7f00a55324c13a880f60dee8a4a5447099e5e44",
                    "callData": "0x000000000000000000000000f73fd42d383d4a4c172523e261fc3c2dccbd566a000000000000000000000000b4e2040b8a2753e325cc3cd2754ae90ad59a726d5246520000000000000000000000000000000000000000000000000000000000000000000000000000000000000000000000000000000000000000003c8ab33c00000000000000000000000000000000000000000000000000000000000000a00000000000000000000000000000000000000000000000000000000000000000",
                    "decodedMethod": {
                        "callParams": [
                            {
                                "name": "_from",
                                "type": "address",
                                "value": "0xf73fd42d383d4a4c172523e261fc3c2dccbd566a"
                            },
                            {
                                "name": "_to",
                                "type": "address",
                                "value": "0xb4e2040b8a2753e325cc3cd2754ae90ad59a726d"
                            },
                            {
                                "name": "_symbol",
                                "type": "bytes32",
                                "value": "0x5246520000000000000000000000000000000000000000000000000000000000"
                            },
                            {
                                "name": "_value",
                                "type": "uint256",
                                "value": "1,015,722,812"
                            },
                            {
                                "name": "_reference",
                                "type": "string",
                                "value": ""
                            }
                        ],
                        "constructorArguments": "",
                        "name": "emitTransfer",
                        "returnParams": [],
                        "signature": "emitTransfer(address,address,bytes32,uint256,string)"
                    },
                    "errorInfo": "",
                    "fromAddress": "0x60bf91ac87fee5a78c28f7b67701fbcfa79c18ec",
                    "gasUsed": 11440,
                    "id": 6,
                    "methodDecoded": true,
                    "operation": "DELEGATECALL",
                    "output": "",
                    "revert": false,
                    "revertMessage": "",
                    "selector": "0x515c1457",
                    "status": true,
                    "value": "0"
                },
                "nodeType": 0
            },
            "7": {
                "invocation": {
                    "address": "0x331d077518216c07c87f4f18ba64cd384c411f84",
                    "callData": "0x5246520000000000000000000000000000000000000000000000000000000000",
                    "decodedMethod": {
                        "callParams": [
                            {
                                "name": "",
                                "type": "bytes32",
                                "value": "0x5246520000000000000000000000000000000000000000000000000000000000"
                            }
                        ],
                        "constructorArguments": "",
                        "name": "proxies",
                        "returnParams": [
                            {
                                "name": "",
                                "type": "address",
                                "value": "0xd0929d411954c47438dc1d871dd6081f5c5e149c"
                            }
                        ],
                        "signature": "proxies(bytes32)"
                    },
                    "errorInfo": "",
                    "fromAddress": "0x60bf91ac87fee5a78c28f7b67701fbcfa79c18ec",
                    "gasUsed": 975,
                    "id": 7,
                    "methodDecoded": true,
                    "operation": "STATICCALL",
                    "output": "0x000000000000000000000000d0929d411954c47438dc1d871dd6081f5c5e149c",
                    "revert": false,
                    "revertMessage": "",
                    "selector": "0x6932af36",
                    "status": true,
                    "value": "0"
                },
                "nodeType": 0
            },
            "8": {
                "invocation": {
                    "address": "0x987b842235b0e73a80948296837de09f8eab1765",
                    "callData": "0x000000000000000000000000d0929d411954c47438dc1d871dd6081f5c5e149c",
                    "decodedMethod": null,
                    "errorInfo": "",
                    "fromAddress": "0x60bf91ac87fee5a78c28f7b67701fbcfa79c18ec",
                    "gasUsed": 2428,
                    "id": 8,
                    "methodDecoded": false,
                    "operation": "STATICCALL",
                    "output": "0x5246520000000000000000000000000000000000000000000000000000000000",
                    "revert": false,
                    "revertMessage": "",
                    "selector": "0x50695a02",
                    "status": true,
                    "value": "0"
                },
                "nodeType": 0
            },
            "9": {
                "invocation": {
                    "address": "0x60bf91ac87fee5a78c28f7b67701fbcfa79c18ec",
                    "callData": "0x000000000000000000000000331d077518216c07c87f4f18ba64cd384c411f84",
                    "decodedMethod": {
                        "callParams": [
                            {
                                "name": "",
                                "type": "address",
                                "value": "0x331d077518216c07c87f4f18ba64cd384c411f84"
                            }
                        ],
                        "constructorArguments": "",
                        "name": "versions",
                        "returnParams": [
                            {
                                "name": "",
                                "type": "uint256",
                                "value": "2"
                            }
                        ],
                        "signature": "versions(address)"
                    },
                    "errorInfo": "",
                    "fromAddress": "0x60bf91ac87fee5a78c28f7b67701fbcfa79c18ec",
                    "gasUsed": 459,
                    "id": 9,
                    "methodDecoded": true,
                    "operation": "STATICCALL",
                    "output": "0x0000000000000000000000000000000000000000000000000000000000000002",
                    "revert": false,
                    "revertMessage": "",
                    "selector": "0x488725a0",
                    "status": true,
                    "value": "0"
                },
                "nodeType": 0
            }
        },
        "gasFlame": [
            {
                "children": [
                    {
                        "children": [
                            {
                                "children": [],
                                "depth": 0,
                                "name": "Initial Gas",
                                "value": 21608
                            },
                            {
                                "children": [
                                    {
                                        "children": [
                                            {
                                                "children": [],
                                                "depth": 2,
                                                "name": "isTransferAllowed",
                                                "value": 2598
                                            },
                                            {
                                                "children": [
                                                    {
                                                        "children": [
                                                            {
                                                                "children": [
                                                                    {
                                                                        "children": [
                                                                            {
                                                                                "children": [],
                                                                                "depth": 6,
                                                                                "name": "proxies",
                                                                                "value": 975
                                                                            },
                                                                            {
                                                                                "children": [],
                                                                                "depth": 6,
                                                                                "name": "0x50695a02",
                                                                                "value": 2428
                                                                            },
                                                                            {
                                                                                "children": [],
                                                                                "depth": 6,
                                                                                "name": "versions",
                                                                                "value": 459
                                                                            }
                                                                        ],
                                                                        "depth": 5,
                                                                        "name": "emitTransfer",
                                                                        "value": 11440
                                                                    }
                                                                ],
                                                                "depth": 4,
                                                                "name": "emitTransfer",
                                                                "value": 19294
                                                            },
                                                            {
                                                                "children": [],
                                                                "depth": 4,
                                                                "name": "emitTransfer",
                                                                "value": 2336
                                                            }
                                                        ],
                                                        "depth": 3,
                                                        "name": "proxyTransferFromWithReference",
                                                        "value": 117174
                                                    }
                                                ],
                                                "depth": 2,
                                                "name": "_forwardTransferFromWithReference",
                                                "value": 125530
                                            }
                                        ],
                                        "depth": 1,
                                        "name": "_performTransferWithReference",
                                        "value": 136813
                                    }
                                ],
                                "depth": 0,
                                "name": "Executed Gas",
                                "value": 145224
                            }
                        ],
                        "depth": -1,
                        "name": "Actual Gas Used",
                        "value": 166832
                    },
                    {
                        "children": [],
                        "depth": -1,
                        "name": "Refunded Gas",
                        "value": 0
                    }
                ],
                "depth": -2,
                "name": "Total Gas",
                "value": 166832
            }
        ],
        "isConfirmed": true,
        "mainTrace": [
            {
                "children": [
                    {
                        "children": [
                            {
                                "children": [
                                    {
                                        "children": [],
                                        "depth": 2,
                                        "id": 2,
                                        "order": 2
                                    },
                                    {
                                        "children": [
                                            {
                                                "children": [
                                                    {
                                                        "children": [
                                                            {
                                                                "children": [
                                                                    {
                                                                        "children": [],
                                                                        "depth": 6,
                                                                        "id": 7,
                                                                        "order": 7
                                                                    },
                                                                    {
                                                                        "children": [],
                                                                        "depth": 6,
                                                                        "id": 8,
                                                                        "order": 8
                                                                    },
                                                                    {
                                                                        "children": [],
                                                                        "depth": 6,
                                                                        "id": 9,
                                                                        "order": 9
                                                                    },
                                                                    {
                                                                        "children": [],
                                                                        "depth": 6,
                                                                        "id": 10,
                                                                        "order": 10
                                                                    }
                                                                ],
                                                                "depth": 5,
                                                                "id": 6,
                                                                "order": 6
                                                            }
                                                        ],
                                                        "depth": 4,
                                                        "id": 5,
                                                        "order": 5
                                                    },
                                                    {
                                                        "children": [
                                                            {
                                                                "children": [],
                                                                "depth": 5,
                                                                "id": 12,
                                                                "order": 12
                                                            }
                                                        ],
                                                        "depth": 4,
                                                        "id": 11,
                                                        "order": 11
                                                    }
                                                ],
                                                "depth": 3,
                                                "id": 4,
                                                "order": 4
                                            }
                                        ],
                                        "depth": 2,
                                        "id": 3,
                                        "order": 3
                                    }
                                ],
                                "depth": 1,
                                "id": 1,
                                "order": 1
                            }
                        ],
                        "depth": 0,
                        "id": 0,
                        "order": 0
                    }
                ],
                "depth": -1,
                "id": -1,
                "order": -1
            }
        ],
        "mainTraceNodeCount": 13,
        "parentIdMap": {
            "0": -1,
            "1": 0,
            "10": 6,
            "11": 4,
            "12": 11,
            "2": 1,
            "3": 1,
            "4": 3,
            "5": 4,
            "6": 5,
            "7": 6,
            "8": 6,
            "9": 6
        },
        "tidyTrace": [
            {
                "children": [
                    {
                        "children": [
                            {
                                "children": [
                                    {
                                        "children": [],
                                        "depth": 2,
                                        "id": 2,
                                        "order": 2
                                    },
                                    {
                                        "children": [
                                            {
                                                "children": [
                                                    {
                                                        "children": [
                                                            {
                                                                "children": [
                                                                    {
                                                                        "children": [],
                                                                        "depth": 6,
                                                                        "id": 10,
                                                                        "order": 10
                                                                    }
                                                                ],
                                                                "depth": 5,
                                                                "id": 6,
                                                                "order": 6
                                                            }
                                                        ],
                                                        "depth": 4,
                                                        "id": 5,
                                                        "order": 5
                                                    },
                                                    {
                                                        "children": [
                                                            {
                                                                "children": [],
                                                                "depth": 5,
                                                                "id": 12,
                                                                "order": 12
                                                            }
                                                        ],
                                                        "depth": 4,
                                                        "id": 11,
                                                        "order": 11
                                                    }
                                                ],
                                                "depth": 3,
                                                "id": 4,
                                                "order": 4
                                            }
                                        ],
                                        "depth": 2,
                                        "id": 3,
                                        "order": 3
                                    }
                                ],
                                "depth": 1,
                                "id": 1,
                                "order": 1
                            }
                        ],
                        "depth": 0,
                        "id": 0,
                        "order": 0
                    }
                ],
                "depth": -1,
                "id": -1,
                "order": -1
            }
        ],
        "tidyTraceNodeCount": 10
    },
    "state_change": {
        "stateChanges": [
            {
                "address": "0x331d077518216c07c87f4f18ba64cd384c411f84",
                "erc": "",
                "slots": [
                    {
                        "current": "0x0000000000000000000000000000000000000000000000000000023688bd86d9",
                        "key": "0x4136cf4c62d1eb708253de329b512a1fd42220fe713569dbbd72fd2005bbc036",
                        "prev": "0x00000000000000000000000000000000000000000000000000000236c5483a15"
                    },
                    {
                        "current": "0x000000000000000000000000000000000000000000000000000000003c8ab33c",
                        "key": "0x1b08ece3f3ce1dbc2bd3a2dc6597ebf8677074879dc8fe819fdce761aa4188e0",
                        "prev": "0x0000000000000000000000000000000000000000000000000000000000000000"
                    },
                    {
                        "current": "0x00000000000000000000000000000000000000000000000000000000000b177b",
                        "key": "0x0000000000000000000000000000000000000000000000000000000000000002",
                        "prev": "0x00000000000000000000000000000000000000000000000000000000000b177a"
                    },
                    {
                        "current": "0x000000000000000000000000b4e2040b8a2753e325cc3cd2754ae90ad59a726d",
                        "key": "0x838ac86a49a6607a2dcd8186f13d727d577e0955f1319adb74549c38deee46ee",
                        "prev": "0x0000000000000000000000000000000000000000000000000000000000000000"
                    },
                    {
                        "current": "0x00000000000000000000000000000000000000000000000000000000000b177b",
                        "key": "0x2a8a3ca1ae8015ec9419980723e9c9189c1da3a84d8b56f59c13df15736bb78f",
                        "prev": "0x0000000000000000000000000000000000000000000000000000000000000000"
                    }
                ],
                "storageVariables": []
            }
        ]
    }
}