{
    "balance_change": {
        "balanceChanges": [
            {
                "account": "0xf5beb1a9cd101809ba0027436aae19d48b02d8a7",
                "assets": [
                    {
                        "address": "0xd5b0f341cb6db2a8022e1e1c13dc4404870a510c",
                        "amount": "1",
                        "iconUrl": "",
                        "isERC1155": false,
                        "isERC721": true,
                        "sign": false,
                        "tokenID": "77509846668058089409667668375181438186706790214804145883172879481854",
                        "value": ""
                    }
                ]
            },
            {
                "account": "0xfb6d1e425b9ed657567d79197b392679e32d5e61",
                "assets": [
                    {
                        "address": "0xd5b0f341cb6db2a8022e1e1c13dc4404870a510c",
                        "amount": "1",
                        "iconUrl": "",
                        "isERC1155": false,
                        "isERC721": true,
                        "sign": true,
                        "tokenID": "77509846668058089409667668375181438186706790214804145883172879481854",
                        "value": ""
                    }
                ]
            }
        ]
    },
    "profile": {
        "basic_info": {
            "baseFee": "21.702375197",
            "blockNumber": 19460164,
            "callData": "0x6b1cc751000000000000000000000000d5b0f341cb6db2a8022e1e1c13dc4404870a510c0000000000000000000000000000000000000000000000000000000000001d27000000000000000000000000fb6d1e425b9ed657567d79197b392679e32d5e6100000002e0000000000000000000000000000000000000000000000000003bfe",
            "debugEnable": true,
            "errorInfo": "",
            "eventCount": 1,
            "feeRecipient": "0x95222290dd7278aa3ddd389cc1e1d165cc4bafe5",
            "formatValue": "0",
            "gasLimit": 117414,
            "gasPrice": "23.202375197",
            "gasUsed": 109582,
            "intTxnCount": 3,
            "internalRevert": false,
            "internalRevertMessage": "",
            "isContractCreation": false,
            "isFlashloan": false,
            "maxFee": "45.580998832",
            "nonce": 192012,
            "overwritedBlockNumber": -1,
            "priorityFee": "1.5",
            "receiver": "0x46950ba8946d7be4594399bcf203fb53e1fd7d37",
            "revertMessage": "",
            "sender": "0xddb3cc4dc30ce0fcd9bbfc2a5f389b8c40aa023a",
            "simulationEnable": true,
            "sourceTxnHash": "0xd083695bb46d21ff1fde99d7b63eaa8a28058bf2d73bfc3bf197816a34427dae",
            "status": true,
            "timestamp": "2024-03-18T07:21:35Z",
            "transactionFee": "0.002542562678837654",
            "txnHash": "0xd083695bb46d21ff1fde99d7b63eaa8a28058bf2d73bfc3bf197816a34427dae",
            "txnIndex": 104,
            "type": 2,
            "value": "0"
        },
        "fund_flow": [
            {
                "amount": "1",
                "from": "0xf5beb1a9cd101809ba0027436aae19d48b02d8a7",
                "id": 1,
                "isERC1155": false,
                "isERC721": true,
                "isReverted": false,
                "order": 1,
                "to": "0xfb6d1e425b9ed657567d79197b392679e32d5e61",
                "token": "0xd5b0f341cb6db2a8022e1e1c13dc4404870a510c",
                "tokenID": "77509846668058089409667668375181438186706790214804145883172879481854"
            }
        ],
        "token_infos": [
            {
                "address": "0xc02aaa39b223fe8d0a0e5c4f27ead9083c756cc2",
                "decimals": 18
            },
            {
                "address": "0xeeeeeeeeeeeeeeeeeeeeeeeeeeeeeeeeeeeeeeee",
                "decimals": 18
            }
        ]
    },
    "address_label": {
        "labels": [
            {
                "address": "0xd5b0f341cb6db2a8022e1e1c13dc4404870a510c",
                "label": "Big Time Collection 0 (BT0)"
            },
            {
                "address": "0x46950ba8946d7be4594399bcf203fb53e1fd7d37",
                "label": "Vault"
            },
            {
                "address": "0x0000000000000000000000000000000000000001",
                "label": "Precompiled"
            },
            {
                "address": "0x0000000000000000000000000000000000000002",
                "label": "Precompiled"
            },
            {
                "address": "0x0000000000000000000000000000000000000003",
                "label": "Precompiled"
            },
            {
                "address": "0x0000000000000000000000000000000000000004",
                "label": "Precompiled"
            },
            {
                "address": "0xeeeeeeeeeeeeeeeeeeeeeeeeeeeeeeeeeeeeeeee",
                "label": "Ether"
            }
        ]
    },
    "trace": {
        "accountLabels": null,
        "dataMap": {
            "-1": {
                "invocation": {
                    "address": "0xddb3cc4dc30ce0fcd9bbfc2a5f389b8c40aa023a",
                    "callData": "",
                    "decodedMethod": null,
                    "errorInfo": "",
                    "fromAddress": "",
                    "gasUsed": 0,
                    "id": -1,
                    "methodDecoded": false,
                    "operation": "",
                    "output": "",
                    "revert": false,
                    "revertMessage": "",
                    "selector": "",
                    "status": false,
                    "value": ""
                },
                "nodeType": 0
            },
            "0": {
                "invocation": {
                    "address": "0x46950ba8946d7be4594399bcf203fb53e1fd7d37",
                    "callData": "0x000000000000000000000000d5b0f341cb6db2a8022e1e1c13dc4404870a510c0000000000000000000000000000000000000000000000000000000000001d27000000000000000000000000fb6d1e425b9ed657567d79197b392679e32d5e6100000002e0000000000000000000000000000000000000000000000000003bfe",
                    "decodedMethod": {
                        "callParams": [
                            {
                                "name": "_token",
                                "type": "address",
                                "value": "0xd5b0f341cb6db2a8022e1e1c13dc4404870a510c"
                            },
                            {
                                "name": "_from",
                                "type": "uint256",
                                "value": "7,463"
                            },
                            {
                                "name": "_to",
                                "type": "address",
                                "value": "0xfb6d1e425b9ed657567d79197b392679e32d5e61"
                            },
                            {
                                "name": "_id",
                                "type": "uint256",
                                "value": "77,509,846,668,058,089,409,667,668,375,181,438,186,706,790,214,804,145,883,172,879,481,854"
                            }
                        ],
                        "constructorArguments": "",
                        "name": "sendERC721",
                        "returnParams": [],
                        "signature": "sendERC721(address,uint256,address,uint256)"
                    },
                    "errorInfo": "",
                    "fromAddress": "0xddb3cc4dc30ce0fcd9bbfc2a5f389b8c40aa023a",
                    "gasUsed": 109582,
                    "id": 0,
                    "methodDecoded": true,
                    "operation": "CALL",
                    "output": "",
                    "revert": false,
                    "revertMessage": "",
                    "selector": "0x6b1cc751",
                    "status": true,
                    "value": "0"
                },
                "nodeType": 0
            },
            "1": {
                "invocation": {
                    "address": "0xf5beb1a9cd101809ba0027436aae19d48b02d8a7",
                    "callData": "0x000000000000000000000000d5b0f341cb6db2a8022e1e1c13dc4404870a510c00000000000000000000000000000000000000000000000000000000000000000000000000000000000000000000000000000000000000000000000000000060000000000000000000000000000000000000000000000000000000000000006423b872dd000000000000000000000000f5beb1a9cd101809ba0027436aae19d48b02d8a7000000000000000000000000fb6d1e425b9ed657567d79197b392679e32d5e6100000002e0000000000000000000000000000000000000000000000000003bfe00000000000000000000000000000000000000000000000000000000",
                    "decodedMethod": {
                        "callParams": [
                            {
                                "name": "dest",
                                "type": "address",
                                "value": "0xd5b0f341cb6db2a8022e1e1c13dc4404870a510c"
                            },
                            {
                                "name": "value",
                                "type": "uint256",
                                "value": "0"
                            },
                            {
                                "name": "func",
                                "type": "bytes",
                                "value": "0x23b872dd000000000000000000000000f5beb1a9cd101809ba0027436aae19d48b02d8a7000000000000000000000000fb6d1e425b9ed657567d79197b392679e32d5e6100000002e0000000000000000000000000000000000000000000000000003bfe"
                            }
                        ],
                        "constructorArguments": "",
                        "name": "execute",
                        "returnParams": [],
                        "signature": "execute(address,uint256,bytes)"
                    },
                    "errorInfo": "",
                    "fromAddress": "0x46950ba8946d7be4594399bcf203fb53e1fd7d37",
                    "gasUsed": 82013,
                    "id": 1,
                    "methodDecoded": true,
                    "operation": "CALL",
                    "output": "0x000000000000000000000000000000000000000000000000000000000000000100000000000000000000000000000000000000000000000000000000000000400000000000000000000000000000000000000000000000000000000000000000",
                    "revert": false,
                    "revertMessage": "",
                    "selector": "0xb61d27f6",
                    "status": true,
                    "value": "0"
                },
                "nodeType": 0
            },
            "2": {
                "invocation": {
                    "address": "0xbfac0f451e63d2d639b05bbea3e72318ac5abc09",
                    "callData": "0x000000000000000000000000d5b0f341cb6db2a8022e1e1c13dc4404870a510c00000000000000000000000000000000000000000000000000000000000000000000000000000000000000000000000000000000000000000000000000000060000000000000000000000000000000000000000000000000000000000000006423b872dd000000000000000000000000f5beb1a9cd101809ba0027436aae19d48b02d8a7000000000000000000000000fb6d1e425b9ed657567d79197b392679e32d5e6100000002e0000000000000000000000000000000000000000000000000003bfe00000000000000000000000000000000000000000000000000000000",
                    "decodedMethod": {
                        "callParams": [
                            {
                                "name": "dest",
                                "type": "address",
                                "value": "0xd5b0f341cb6db2a8022e1e1c13dc4404870a510c"
                            },
                            {
                                "name": "value",
                                "type": "uint256",
                                "value": "0"
                            },
                            {
                                "name": "func",
                                "type": "bytes",
                                "value": "0x23b872dd000000000000000000000000f5beb1a9cd101809ba0027436aae19d48b02d8a7000000000000000000000000fb6d1e425b9ed657567d79197b392679e32d5e6100000002e0000000000000000000000000000000000000000000000000003bfe"
                            }
                        ],
                        "constructorArguments": "",
                        "name": "execute",
                        "returnParams": [],
                        "signature": "execute(address,uint256,bytes)"
                    },
                    "errorInfo": "",
                    "fromAddress": "0xf5beb1a9cd101809ba0027436aae19d48b02d8a7",
                    "gasUsed": 79293,
                    "id": 2,
                    "methodDecoded": true,
                    "operation": "DELEGATECALL",
                    "output": "0x000000000000000000000000000000000000000000000000000000000000000100000000000000000000000000000000000000000000000000000000000000400000000000000000000000000000000000000000000000000000000000000000",
                    "revert": false,
                    "revertMessage": "",
                    "selector": "0xb61d27f6",
                    "status": true,
                    "value": "0"
                },
                "nodeType": 0
            },
            "3": {
                "invocation": {
                    "address": "0xd5b0f341cb6db2a8022e1e1c13dc4404870a510c",
                    "callData": "0x000000000000000000000000f5beb1a9cd101809ba0027436aae19d48b02d8a7000000000000000000000000fb6d1e425b9ed657567d79197b392679e32d5e6100000002e0000000000000000000000000000000000000000000000000003bfe",
                    "decodedMethod": {
                        "callParams": [
                            {
                                "name": "from",
                                "type": "address",
                                "value": "0xf5beb1a9cd101809ba0027436aae19d48b02d8a7"
                            },
                            {
                                "name": "to",
                                "type": "address",
                                "value": "0xfb6d1e425b9ed657567d79197b392679e32d5e61"
                            },
                            {
                                "decimalAvailable": true,
                                "name": "tokenId",
                                "type": "uint256",
                                "value": "77,509,846,668,058,089,409,667,668,375,181,438,186,706,790,214,804,145,883,172,879,481,854"
                            }
                        ],
                        "constructorArguments": "",
                        "name": "transferFrom",
                        "returnParams": [],
                        "signature": "transferFrom(address,address,uint256)"
                    },
                    "errorInfo": "",
                    "fromAddress": "0xf5beb1a9cd101809ba0027436aae19d48b02d8a7",
                    "gasUsed": 75616,
                    "id": 3,
                    "methodDecoded": true,
                    "operation": "CALL",
                    "output": "",
                    "revert": false,
                    "revertMessage": "",
                    "selector": "0x23b872dd",
                    "status": true,
                    "value": "0"
                },
                "nodeType": 0
            },
            "4": {
                "event": {
                    "contract": "0xd5b0f341cb6db2a8022e1e1c13dc4404870a510c",
                    "decodedLog": {
                        "name": "Transfer",
                        "params": [
                            {
                                "name": "from",
                                "type": "address",
                                "value": "0xf5beb1a9cd101809ba0027436aae19d48b02d8a7"
                            },
                            {
                                "name": "to",
                                "type": "address",
                                "value": "0xfb6d1e425b9ed657567d79197b392679e32d5e61"
                            },
                            {
                                "decimalAvailable": true,
                                "name": "tokenId",
                                "type": "uint256",
                                "value": "77,509,846,668,058,089,409,667,668,375,181,438,186,706,790,214,804,145,883,172,879,481,854"
                            }
                        ],
                        "signature": "Transfer(address,address,uint256)"
                    },
                    "id": 4,
                    "logData": "0x",
                    "logDecoded": true,
                    "operation": "EVENT",
                    "revert": false,
                    "status": true,
                    "topics": [
                        "0xddf252ad1be2c89b69c2b068fc378daa952ba7f163c4a11628f55a4df523b3ef",
                        "0x000000000000000000000000f5beb1a9cd101809ba0027436aae19d48b02d8a7",
                        "0x000000000000000000000000fb6d1e425b9ed657567d79197b392679e32d5e61",
                        "0x00000002e0000000000000000000000000000000000000000000000000003bfe"
                    ]
                },
                "nodeType": 1
            }
        },
        "gasFlame": [
            {
                "children": [
                    {
                        "children": [
                            {
                                "children": [],
                                "depth": 0,
                                "name": "Initial Gas",
                                "value": 22128
                            },
                            {
                                "children": [
                                    {
                                        "children": [
                                            {
                                                "children": [
                                                    {
                                                        "children": [],
                                                        "depth": 3,
                                                        "name": "transferFrom",
                                                        "value": 75616
                                                    }
                                                ],
                                                "depth": 2,
                                                "name": "execute",
                                                "value": 79293
                                            }
                                        ],
                                        "depth": 1,
                                        "name": "execute",
                                        "value": 82013
                                    }
                                ],
                                "depth": 0,
                                "name": "Executed Gas",
                                "value": 92254
                            }
                        ],
                        "depth": -1,
                        "name": "Actual Gas Used",
                        "value": 109582
                    },
                    {
                        "children": [],
                        "depth": -1,
                        "name": "Refunded Gas",
                        "value": 4800
                    }
                ],
                "depth": -2,
                "name": "Total Gas",
                "value": 114382
            }
        ],
        "isConfirmed": true,
        "mainTrace": [
            {
                "children": [
                    {
                        "children": [
                            {
                                "children": [
                                    {
                                        "children": [
                                            {
                                                "children": [
                                                    {
                                                        "children": [],
                                                        "depth": 4,
                                                        "id": 4,
                                                        "order": 4
                                                    }
                                                ],
                                                "depth": 3,
                                                "id": 3,
                                                "order": 3
                                            }
                                        ],
                                        "depth": 2,
                                        "id": 2,
                                        "order": 2
                                    }
                                ],
                                "depth": 1,
                                "id": 1,
                                "order": 1
                            }
                        ],
                        "depth": 0,
                        "id": 0,
                        "order": 0
                    }
                ],
                "depth": -1,
                "id": -1,
                "order": -1
            }
        ],
        "mainTraceNodeCount": 5,
        "parentIdMap": {
            "0": -1,
            "1": 0,
            "2": 1,
            "3": 2,
            "4": 3
        },
        "tidyTrace": [
            {
                "children": [
                    {
                        "children": [
                            {
                                "children": [
                                    {
                                        "children": [
                                            {
                                                "children": [
                                                    {
                                                        "children": [],
                                                        "depth": 4,
                                                        "id": 4,
                                                        "order": 4
                                                    }
                                                ],
                                                "depth": 3,
                                                "id": 3,
                                                "order": 3
                                            }
                                        ],
                                        "depth": 2,
                                        "id": 2,
                                        "order": 2
                                    }
                                ],
                                "depth": 1,
                                "id": 1,
                                "order": 1
                            }
                        ],
                        "depth": 0,
                        "id": 0,
                        "order": 0
                    }
                ],
                "depth": -1,
                "id": -1,
                "order": -1
            }
        ],
        "tidyTraceNodeCount": 5
    },
    "state_change": {
        "stateChanges": [
            {
                "address": "0xd5b0f341cb6db2a8022e1e1c13dc4404870a510c",
                "erc": "ERC-721",
                "slots": [
                    {
                        "current": "0x000000000000000000000000fb6d1e425b9ed657567d79197b392679e32d5e61",
                        "key": "0xda754237e7091b78204badce7813ac3873f7c091c0734580fa2ba91ba84907d8",
                        "prev": "0x000000000000000000000000f5beb1a9cd101809ba0027436aae19d48b02d8a7"
                    },
                    {
                        "current": "0x0000000000000000000000000000000000000000000000000000000000000005",
                        "key": "0x4b9b70fabbe896c1dc6288af2f72acc7e95a3cce1ab0f475e45635674484bfb1",
                        "prev": "0x0000000000000000000000000000000000000000000000000000000000000167"
                    },
                    {
                        "current": "0x00000000000000000000000000000000000000000000000000000000000001d7",
                        "key": "0x5e321e7c0ebb5343285f25fc46697f0f5fab39bd8e7a53f97d200f813803d954",
                        "prev": "0x00000000000000000000000000000000000000000000000000000000000001d8"
                    },
                    {
                        "current": "0x00000000000000000000000000000000000000000000000000000000000001d7",
                        "key": "0xdd9cdfcd3a8538bbbdb834f616e4c4cefe4db774116e3ac5a34f982deef949ee",
                        "prev": "0x00000000000000000000000000000000000000000000000000000000000001d8"
                    },
                    {
                        "current": "0x00000002e0000000000000000000000000000000000000000000000000003bfe",
                        "key": "0x36f375ee548e82072f44fa658a35f95596fbacb0bd8a23faa14501891102850d",
                        "prev": "0x0000000000000000000000000000000000000000000000000000000000000000"
                    },
                    {
                        "current": "0x0000000000000000000000000000000000000000000000000000000000000006",
                        "key": "0x58afe9d821777ea85e891698e563238b091003d1f6c4cacf4b16642ed990349e",
                        "prev": "0x0000000000000000000000000000000000000000000000000000000000000005"
                    },
                    {
                        "current": "0x00000002e000000000000000000000000000000000000000000000000000268f",
                        "key": "0x021ff9a8b52c4a3ca08b7e67479b524ab02b97219dc2916f96ee305a8677f36e",
                        "prev": "0x00000002e0000000000000000000000000000000000000000000000000003bfe"
                    },
                    {
                        "current": "0x0000000000000000000000000000000000000000000000000000000000000006",
                        "key": "0x4781a2f0b7f333ca47e08a32a87ab60e3d2ded9313b63594d73347859ae6373d",
                        "prev": "0x0000000000000000000000000000000000000000000000000000000000000005"
                    },
                    {
                        "current": "0x0000000000000000000000000000000000000000000000000000000000000167",
                        "key": "0x87a531e6cc10eb1a054b541edc2d02710f38666fa155f77a5ace2a1272131c07",
                        "prev": "0x00000000000000000000000000000000000000000000000000000000000001d7"
                    },
                    {
                        "current": "0x0000000000000000000000000000000000000000000000000000000000000000",
                        "key": "0x021ff9a8b52c4a3ca08b7e67479b524ab02b97219dc2916f96ee305a8677f3de",
                        "prev": "0x00000002e000000000000000000000000000000000000000000000000000268f"
                    }
                ],
                "storageVariables": [
                    {
                        "name": "_tokenOwner",
                        "type": "mapping(uint256 => address)",
                        "value": {
                            "pairs": [
                                {
                                    "key": "77509846668058089409667668375181438186706790214804145883172879481854",
                                    "value": {
                                        "current": "0xfb6d1e425b9ed657567d79197b392679e32d5e61",
                                        "prev": "0xf5beb1a9cd101809ba0027436aae19d48b02d8a7",
                                        "typeTag": 1
                                    }
                                }
                            ],
                            "typeTag": 4
                        }
                    },
                    {
                        "name": "_ownedTokensCount",
                        "type": "mapping(address => struct Counters.Counter)",
                        "value": {
                            "pairs": [
                                {
                                    "key": "0xf5beb1a9cd101809ba0027436aae19d48b02d8a7",
                                    "value": {
                                        "fields": [
                                            {
                                                "name": "_value",
                                                "type": "uint256",
                                                "value": {
                                                    "current": "471",
                                                    "prev": "472",
                                                    "typeTag": 1
                                                }
                                            }
                                        ],
                                        "typeTag": 3
                                    }
                                },
                                {
                                    "key": "0xfb6d1e425b9ed657567d79197b392679e32d5e61",
                                    "value": {
                                        "fields": [
                                            {
                                                "name": "_value",
                                                "type": "uint256",
                                                "value": {
                                                    "current": "6",
                                                    "prev": "5",
                                                    "typeTag": 1
                                                }
                                            }
                                        ],
                                        "typeTag": 3
                                    }
                                }
                            ],
                            "typeTag": 4
                        }
                    },
                    {
                        "name": "_ownedTokens",
                        "type": "mapping(address => uint256[])",
                        "value": {
                            "pairs": [
                                {
                                    "key": "0xf5beb1a9cd101809ba0027436aae19d48b02d8a7",
                                    "value": {
                                        "elemType": "uint256",
                                        "elems": [
                                            {
                                                "index": 359,
                                                "value": {
                                                    "current": "77509846668058089409667668375181438186706790214804145883172879476367",
                                                    "prev": "77509846668058089409667668375181438186706790214804145883172879481854",
                                                    "typeTag": 1
                                                }
                                            }
                                        ],
                                        "typeTag": 2
                                    }
                                },
                                {
                                    "key": "0xfb6d1e425b9ed657567d79197b392679e32d5e61",
                                    "value": {
                                        "elemType": "uint256",
                                        "elems": [
                                            {
                                                "index": 5,
                                                "value": {
                                                    "current": "77509846668058089409667668375181438186706790214804145883172879481854",
                                                    "prev": "0",
                                                    "typeTag": 1
                                                }
                                            }
                                        ],
                                        "typeTag": 2
                                    }
                                }
                            ],
                            "typeTag": 4
                        }
                    },
                    {
                        "name": "_ownedTokensIndex",
                        "type": "mapping(uint256 => uint256)",
                        "value": {
                            "pairs": [
                                {
                                    "key": "77509846668058089409667668375181438186706790214804145883172879476367",
                                    "value": {
                                        "current": "359",
                                        "prev": "471",
                                        "typeTag": 1
                                    }
                                },
                                {
                                    "key": "77509846668058089409667668375181438186706790214804145883172879481854",
                                    "value": {
                                        "current": "5",
                                        "prev": "359",
                                        "typeTag": 1
                                    }
                                }
                            ],
                            "typeTag": 4
                        }
                    }
                ]
            }
        ]
    }
}