{
    "balance_change": {
        "balanceChanges": []
    },
    "profile": {
        "basic_info": {
            "baseFee": "89.685849884",
            "blockNumber": 13890824,
            "callData": "0x18cbafe50000000000000000000000000000000000000000000000d05fd0c3081f70000000000000000000000000000000000000000000000000000079904d7ea9ab300000000000000000000000000000000000000000000000000000000000000000a0000000000000000000000000ac844b604d6c600fbe55c4383a6d87920b46a1600000000000000000000000000000000000000000000000000000000061ca6ae300000000000000000000000000000000000000000000000000000000000000020000000000000000000000006b3595068778dd592e39a122f4f5a5cf09c90fe2000000000000000000000000c02aaa39b223fe8d0a0e5c4f27ead9083c756cc2",
            "debugEnable": true,
            "errorInfo": "execution reverted",
            "eventCount": 0,
            "feeRecipient": "0xea674fdde714fd979de3edf0f56aa9716b898ec8",
            "formatValue": "0",
            "gasLimit": 500003,
            "gasPrice": "99.722571947",
            "gasUsed": 31899,
            "intTxnCount": 1,
            "internalRevert": true,
            "internalRevertMessage": "",
            "isContractCreation": false,
            "isFlashloan": false,
            "maxFee": "",
            "nonce": 69183,
            "overwritedBlockNumber": -1,
            "priorityFee": "",
            "receiver": "0xd9e1ce17f2641f24ae83637ab66a2cca9c378b9f",
            "revertMessage": "+UniswapV2Router: INSUFFICIENT_OUTPUT_AMOUNT",
            "sender": "0xac844b604d6c600fbe55c4383a6d87920b46a160",
            "simulationEnable": true,
            "sourceTxnHash": "0xd074dfb5b52b3320b8c1efb8ea98af674d61e57ef11bd4f82206e3ced8e5fa6c",
            "status": false,
            "timestamp": "2021-12-28T01:37:52Z",
            "transactionFee": "0.003181050322537353",
            "txnHash": "0xd074dfb5b52b3320b8c1efb8ea98af674d61e57ef11bd4f82206e3ced8e5fa6c",
            "txnIndex": 28,
            "type": 0,
            "value": "0"
        },
        "fund_flow": [],
        "token_infos": [
            {
                "address": "0xc02aaa39b223fe8d0a0e5c4f27ead9083c756cc2",
                "decimals": 18
            },
            {
                "address": "0xeeeeeeeeeeeeeeeeeeeeeeeeeeeeeeeeeeeeeeee",
                "decimals": 18
            }
        ]
    },
    "address_label": {
        "labels": [
            {
                "address": "0x0000000000000000000000000000000000000004",
                "label": "Precompiled"
            },
            {
                "address": "0xeeeeeeeeeeeeeeeeeeeeeeeeeeeeeeeeeeeeeeee",
                "label": "Ether"
            },
            {
                "address": "0xc02aaa39b223fe8d0a0e5c4f27ead9083c756cc2",
                "label": "Wrapped Ether (WETH)"
            },
            {
                "address": "0x6b3595068778dd592e39a122f4f5a5cf09c90fe2",
                "label": "SushiSwap: SUSHI Token"
            },
            {
                "address": "0x0000000000000000000000000000000000000002",
                "label": "Precompiled"
            },
            {
                "address": "0xd9e1ce17f2641f24ae83637ab66a2cca9c378b9f",
                "label": "SushiSwap: Router"
            },
            {
                "address": "0x795065dcc9f64b5614c407a6efdc400da6221fb0",
                "label": "SushiSwap: SUSHI"
            },
            {
                "address": "0x0000000000000000000000000000000000000001",
                "label": "Precompiled"
            },
            {
                "address": "0x0000000000000000000000000000000000000003",
                "label": "Precompiled"
            }
        ]
    },
    "trace": {
        "accountLabels": null,
        "dataMap": {
            "-1": {
                "invocation": {
                    "address": "0xac844b604d6c600fbe55c4383a6d87920b46a160",
                    "callData": "",
                    "decodedMethod": null,
                    "errorInfo": "",
                    "fromAddress": "",
                    "gasUsed": 0,
                    "id": -1,
                    "methodDecoded": false,
                    "operation": "",
                    "output": "",
                    "revert": false,
                    "revertMessage": "",
                    "selector": "",
                    "status": false,
                    "value": ""
                },
                "nodeType": 0
            },
            "0": {
                "invocation": {
                    "address": "0xd9e1ce17f2641f24ae83637ab66a2cca9c378b9f",
                    "callData": "0x0000000000000000000000000000000000000000000000d05fd0c3081f70000000000000000000000000000000000000000000000000000079904d7ea9ab300000000000000000000000000000000000000000000000000000000000000000a0000000000000000000000000ac844b604d6c600fbe55c4383a6d87920b46a1600000000000000000000000000000000000000000000000000000000061ca6ae300000000000000000000000000000000000000000000000000000000000000020000000000000000000000006b3595068778dd592e39a122f4f5a5cf09c90fe2000000000000000000000000c02aaa39b223fe8d0a0e5c4f27ead9083c756cc2",
                    "decodedMethod": {
                        "callParams": [
                            {
                                "name": "amountIn",
                                "type": "uint256",
                                "value": "3,843,827,000,000,000,294,912"
                            },
                            {
                                "name": "amountOutMin",
                                "type": "uint256",
                                "value": "8,759,586,481,643,401,216"
                            },
                            {
                                "name": "path",
                                "type": "address[]",
                                "value": [
                                    "0x6b3595068778dd592e39a122f4f5a5cf09c90fe2",
                                    "0xc02aaa39b223fe8d0a0e5c4f27ead9083c756cc2"
                                ]
                            },
                            {
                                "name": "to",
                                "type": "address",
                                "value": "0xac844b604d6c600fbe55c4383a6d87920b46a160"
                            },
                            {
                                "name": "deadline",
                                "type": "uint256",
                                "value": "1,640,655,587"
                            }
                        ],
                        "constructorArguments": "",
                        "name": "swapExactTokensForETH",
                        "returnParams": [],
                        "signature": "swapExactTokensForETH(uint256,uint256,address[],address,uint256)"
                    },
                    "errorInfo": "execution reverted",
                    "fromAddress": "0xac844b604d6c600fbe55c4383a6d87920b46a160",
                    "gasUsed": 31899,
                    "id": 0,
                    "methodDecoded": true,
                    "operation": "CALL",
                    "output": "0x08c379a00000000000000000000000000000000000000000000000000000000000000020000000000000000000000000000000000000000000000000000000000000002b556e69737761705632526f757465723a20494e53554646494349454e545f4f55545055545f414d4f554e54000000000000000000000000000000000000000000",
                    "revert": true,
                    "revertMessage": "+UniswapV2Router: INSUFFICIENT_OUTPUT_AMOUNT",
                    "selector": "0x18cbafe5",
                    "status": false,
                    "value": "0"
                },
                "nodeType": 0
            },
            "1": {
                "invocation": {
                    "address": "0x795065dcc9f64b5614c407a6efdc400da6221fb0",
                    "callData": "0x",
                    "decodedMethod": {
                        "callParams": [],
                        "constructorArguments": "",
                        "name": "getReserves",
                        "returnParams": [
                            {
                                "name": "_reserve0",
                                "type": "uint112",
                                "value": "3,521,971,676,267,196,866,774,574"
                            },
                            {
                                "name": "_reserve1",
                                "type": "uint112",
                                "value": "8,046,897,869,080,070,676,868"
                            },
                            {
                                "name": "_blockTimestampLast",
                                "type": "uint32",
                                "value": "1,640,655,434"
                            }
                        ],
                        "signature": "getReserves()"
                    },
                    "errorInfo": "",
                    "fromAddress": "0xd9e1ce17f2641f24ae83637ab66a2cca9c378b9f",
                    "gasUsed": 2517,
                    "id": 1,
                    "methodDecoded": true,
                    "operation": "STATICCALL",
                    "output": "0x00000000000000000000000000000000000000000002e9ce77969f55996a462e0000000000000000000000000000000000000000000001b4392421a2dd6361840000000000000000000000000000000000000000000000000000000061ca6a4a",
                    "revert": true,
                    "revertMessage": "",
                    "selector": "0x0902f1ac",
                    "status": true,
                    "value": "0"
                },
                "nodeType": 0
            }
        },
        "gasFlame": [
            {
                "children": [
                    {
                        "children": [
                            {
                                "children": [],
                                "depth": 0,
                                "name": "Initial Gas",
                                "value": 23048
                            },
                            {
                                "children": [
                                    {
                                        "children": [],
                                        "depth": 1,
                                        "name": "getReserves",
                                        "value": 2517
                                    }
                                ],
                                "depth": 0,
                                "name": "Executed Gas",
                                "value": 8851
                            }
                        ],
                        "depth": -1,
                        "name": "Actual Gas Used",
                        "value": 31899
                    },
                    {
                        "children": [],
                        "depth": -1,
                        "name": "Refunded Gas",
                        "value": 0
                    }
                ],
                "depth": -2,
                "name": "Total Gas",
                "value": 31899
            }
        ],
        "isConfirmed": true,
        "mainTrace": [
            {
                "children": [
                    {
                        "children": [
                            {
                                "children": [],
                                "depth": 1,
                                "id": 1,
                                "order": 1
                            }
                        ],
                        "depth": 0,
                        "id": 0,
                        "order": 0
                    }
                ],
                "depth": -1,
                "id": -1,
                "order": -1
            }
        ],
        "mainTraceNodeCount": 2,
        "parentIdMap": {
            "0": -1,
            "1": 0
        },
        "tidyTrace": [
            {
                "children": [
                    {
                        "children": [],
                        "depth": 0,
                        "id": 0,
                        "order": 0
                    }
                ],
                "depth": -1,
                "id": -1,
                "order": -1
            }
        ],
        "tidyTraceNodeCount": 1
    },
    "state_change": {
        "stateChanges": []
    }
}