{
    "balance_change": {
        "balanceChanges": [
            {
                "account": "0x79672062c5a45e3808d6b784129cf3ecf59d4224",
                "assets": [
                    {
                        "address": "0xdac17f958d2ee523a2206206994597c13d831ec7",
                        "amount": "60.02",
                        "iconUrl": "https://assets.blocksec.com/icon/fcea71f3193ce895be44bfdf941f7e4c9381dd587f273c2d1a27f1263d84e4ea.png",
                        "isERC1155": false,
                        "isERC721": false,
                        "sign": false,
                        "value": "60.0257241"
                    }
                ]
            },
            {
                "account": "0xc4a7ff60d8a6c5ddc9bc3506f01c6e90c15383eb",
                "assets": [
                    {
                        "address": "0xdac17f958d2ee523a2206206994597c13d831ec7",
                        "amount": "60.02",
                        "iconUrl": "https://assets.blocksec.com/icon/fcea71f3193ce895be44bfdf941f7e4c9381dd587f273c2d1a27f1263d84e4ea.png",
                        "isERC1155": false,
                        "isERC721": false,
                        "sign": true,
                        "value": "60.0257241"
                    }
                ]
            }
        ]
    },
    "profile": {
        "basic_info": {
            "baseFee": "6.486899979",
            "blockNumber": 15224616,
            "callData": "0xa9059cbb000000000000000000000000c4a7ff60d8a6c5ddc9bc3506f01c6e90c15383eb000000000000000000000000000000000000000000000000000000000393d520",
            "debugEnable": true,
            "errorInfo": "",
            "eventCount": 1,
            "feeRecipient": "0x1ad91ee08f21be3de0ba2ba6918e714da6b45836",
            "formatValue": "0",
            "gasLimit": 125000,
            "gasPrice": "8.48689998",
            "gasUsed": 46109,
            "intTxnCount": 0,
            "internalRevert": false,
            "internalRevertMessage": "",
            "isContractCreation": false,
            "isFlashloan": false,
            "maxFee": "48.48689998",
            "nonce": 15391,
            "overwritedBlockNumber": -1,
            "priorityFee": "2.000000001",
            "receiver": "0xdac17f958d2ee523a2206206994597c13d831ec7",
            "revertMessage": "",
            "sender": "0x79672062c5a45e3808d6b784129cf3ecf59d4224",
            "simulationEnable": true,
            "sourceTxnHash": "0xd0bce256e8937a1b126e5626ebeaae2cf3533c0a8a9bf6d2dc8471d690e5d1d4",
            "status": true,
            "timestamp": "2022-07-27T12:43:58Z",
            "transactionFee": "0.00039132247117782",
            "txnHash": "0xd0bce256e8937a1b126e5626ebeaae2cf3533c0a8a9bf6d2dc8471d690e5d1d4",
            "txnIndex": 31,
            "type": 2,
            "value": "0"
        },
        "fund_flow": [
            {
                "amount": "60.02",
                "from": "0x79672062c5a45e3808d6b784129cf3ecf59d4224",
                "id": 1,
                "isERC1155": false,
                "isERC721": false,
                "isReverted": false,
                "order": 1,
                "to": "0xc4a7ff60d8a6c5ddc9bc3506f01c6e90c15383eb",
                "token": "0xdac17f958d2ee523a2206206994597c13d831ec7"
            }
        ],
        "token_infos": [
            {
                "address": "0xc02aaa39b223fe8d0a0e5c4f27ead9083c756cc2",
                "decimals": 18
            },
            {
                "address": "0xdac17f958d2ee523a2206206994597c13d831ec7",
                "decimals": 6
            },
            {
                "address": "0xeeeeeeeeeeeeeeeeeeeeeeeeeeeeeeeeeeeeeeee",
                "decimals": 18
            }
        ]
    },
    "address_label": {
        "labels": [
            {
                "address": "0xc4a7ff60d8a6c5ddc9bc3506f01c6e90c15383eb",
                "label": "BINANCE"
            },
            {
                "address": "0xdac17f958d2ee523a2206206994597c13d831ec7",
                "label": "Tether: USDT Stablecoin"
            },
            {
                "address": "0x0000000000000000000000000000000000000001",
                "label": "Precompiled"
            },
            {
                "address": "0x0000000000000000000000000000000000000002",
                "label": "Precompiled"
            },
            {
                "address": "0x0000000000000000000000000000000000000003",
                "label": "Precompiled"
            },
            {
                "address": "0x0000000000000000000000000000000000000004",
                "label": "Precompiled"
            },
            {
                "address": "0xeeeeeeeeeeeeeeeeeeeeeeeeeeeeeeeeeeeeeeee",
                "label": "Ether"
            }
        ]
    },
    "trace": {
        "accountLabels": null,
        "dataMap": {
            "-1": {
                "invocation": {
                    "address": "0x79672062c5a45e3808d6b784129cf3ecf59d4224",
                    "callData": "",
                    "decodedMethod": null,
                    "errorInfo": "",
                    "fromAddress": "",
                    "gasUsed": 0,
                    "id": -1,
                    "methodDecoded": false,
                    "operation": "",
                    "output": "",
                    "revert": false,
                    "revertMessage": "",
                    "selector": "",
                    "status": false,
                    "value": ""
                },
                "nodeType": 0
            },
            "0": {
                "invocation": {
                    "address": "0xdac17f958d2ee523a2206206994597c13d831ec7",
                    "callData": "0x000000000000000000000000c4a7ff60d8a6c5ddc9bc3506f01c6e90c15383eb000000000000000000000000000000000000000000000000000000000393d520",
                    "decodedMethod": {
                        "callParams": [
                            {
                                "name": "_to",
                                "type": "address",
                                "value": "0xc4a7ff60d8a6c5ddc9bc3506f01c6e90c15383eb"
                            },
                            {
                                "decimalAvailable": true,
                                "name": "_value",
                                "type": "uint256",
                                "value": "60,020,000"
                            }
                        ],
                        "constructorArguments": "",
                        "name": "transfer",
                        "returnParams": [],
                        "signature": "transfer(address,uint256)"
                    },
                    "errorInfo": "",
                    "fromAddress": "0x79672062c5a45e3808d6b784129cf3ecf59d4224",
                    "gasUsed": 46109,
                    "id": 0,
                    "methodDecoded": true,
                    "operation": "CALL",
                    "output": "",
                    "revert": false,
                    "revertMessage": "",
                    "selector": "0xa9059cbb",
                    "status": true,
                    "value": "0"
                },
                "nodeType": 0
            },
            "1": {
                "event": {
                    "contract": "0xdac17f958d2ee523a2206206994597c13d831ec7",
                    "decodedLog": {
                        "name": "Transfer",
                        "params": [
                            {
                                "name": "from",
                                "type": "address",
                                "value": "0x79672062c5a45e3808d6b784129cf3ecf59d4224"
                            },
                            {
                                "name": "to",
                                "type": "address",
                                "value": "0xc4a7ff60d8a6c5ddc9bc3506f01c6e90c15383eb"
                            },
                            {
                                "decimalAvailable": true,
                                "name": "value",
                                "type": "uint256",
                                "value": "60,020,000"
                            }
                        ],
                        "signature": "Transfer(address,address,uint256)"
                    },
                    "id": 1,
                    "logData": "0x000000000000000000000000000000000000000000000000000000000393d520",
                    "logDecoded": true,
                    "operation": "EVENT",
                    "revert": false,
                    "status": true,
                    "topics": [
                        "0xddf252ad1be2c89b69c2b068fc378daa952ba7f163c4a11628f55a4df523b3ef",
                        "0x00000000000000000000000079672062c5a45e3808d6b784129cf3ecf59d4224",
                        "0x000000000000000000000000c4a7ff60d8a6c5ddc9bc3506f01c6e90c15383eb"
                    ]
                },
                "nodeType": 1
            }
        },
        "gasFlame": [
            {
                "children": [
                    {
                        "children": [
                            {
                                "children": [],
                                "depth": 0,
                                "name": "Initial Gas",
                                "value": 21608
                            },
                            {
                                "children": [],
                                "depth": 0,
                                "name": "Executed Gas",
                                "value": 24501
                            }
                        ],
                        "depth": -1,
                        "name": "Actual Gas Used",
                        "value": 46109
                    },
                    {
                        "children": [],
                        "depth": -1,
                        "name": "Refunded Gas",
                        "value": 0
                    }
                ],
                "depth": -2,
                "name": "Total Gas",
                "value": 46109
            }
        ],
        "isConfirmed": true,
        "mainTrace": [
            {
                "children": [
                    {
                        "children": [
                            {
                                "children": [],
                                "depth": 1,
                                "id": 1,
                                "order": 1
                            }
                        ],
                        "depth": 0,
                        "id": 0,
                        "order": 0
                    }
                ],
                "depth": -1,
                "id": -1,
                "order": -1
            }
        ],
        "mainTraceNodeCount": 2,
        "parentIdMap": {
            "0": -1,
            "1": 0
        },
        "tidyTrace": [
            {
                "children": [
                    {
                        "children": [
                            {
                                "children": [],
                                "depth": 1,
                                "id": 1,
                                "order": 1
                            }
                        ],
                        "depth": 0,
                        "id": 0,
                        "order": 0
                    }
                ],
                "depth": -1,
                "id": -1,
                "order": -1
            }
        ],
        "tidyTraceNodeCount": 2
    },
    "state_change": {
        "stateChanges": [
            {
                "address": "0xdac17f958d2ee523a2206206994597c13d831ec7",
                "erc": "ERC-20",
                "slots": [
                    {
                        "current": "0x000000000000000000000000000000000000000000000000000001243d57e90d",
                        "key": "0xf04fb60cd16c0f358850562b32413aab034db2a82cc44a3f7c9fa7ce614982b2",
                        "prev": "0x0000000000000000000000000000000000000000000000000000012440ebbe2d"
                    },
                    {
                        "current": "0x0000000000000000000000000000000000000000000000000000000037dadbd0",
                        "key": "0xc07a527b802cbd5b880c2944dba1287f57b31ab0d6a75dd0ff5715eec282d778",
                        "prev": "0x00000000000000000000000000000000000000000000000000000000344706b0"
                    }
                ],
                "storageVariables": [
                    {
                        "name": "balances",
                        "type": "mapping(address => uint256)",
                        "value": {
                            "pairs": [
                                {
                                    "key": "0x79672062c5a45e3808d6b784129cf3ecf59d4224",
                                    "value": {
                                        "current": "1255159621901",
                                        "prev": "1255219641901",
                                        "typeTag": 1
                                    }
                                },
                                {
                                    "key": "0xc4a7ff60d8a6c5ddc9bc3506f01c6e90c15383eb",
                                    "value": {
                                        "current": "937090000",
                                        "prev": "877070000",
                                        "typeTag": 1
                                    }
                                }
                            ],
                            "typeTag": 4
                        }
                    }
                ]
            }
        ]
    }
}