{
    "balance_change": {
        "balanceChanges": [
            {
                "account": "0x0000000000000000000000000000000000000000",
                "assets": [
                    {
                        "address": "0x7ffbfe8aea982403ee41439e873e5dd2543a44be",
                        "amount": "1",
                        "iconUrl": "",
                        "isERC1155": false,
                        "isERC721": true,
                        "sign": false,
                        "tokenID": "2272",
                        "value": ""
                    },
                    {
                        "address": "0x7ffbfe8aea982403ee41439e873e5dd2543a44be",
                        "amount": "1",
                        "iconUrl": "",
                        "isERC1155": false,
                        "isERC721": true,
                        "sign": false,
                        "tokenID": "2273",
                        "value": ""
                    },
                    {
                        "address": "0x7ffbfe8aea982403ee41439e873e5dd2543a44be",
                        "amount": "1",
                        "iconUrl": "",
                        "isERC1155": false,
                        "isERC721": true,
                        "sign": false,
                        "tokenID": "2274",
                        "value": ""
                    },
                    {
                        "address": "0x7ffbfe8aea982403ee41439e873e5dd2543a44be",
                        "amount": "1",
                        "iconUrl": "",
                        "isERC1155": false,
                        "isERC721": true,
                        "sign": false,
                        "tokenID": "2275",
                        "value": ""
                    }
                ]
            },
            {
                "account": "0xa41f00c14f94b6de3e7f07487f6a701a0847b658",
                "assets": [
                    {
                        "address": "0x7ffbfe8aea982403ee41439e873e5dd2543a44be",
                        "amount": "1",
                        "iconUrl": "",
                        "isERC1155": false,
                        "isERC721": true,
                        "sign": true,
                        "tokenID": "2273",
                        "value": ""
                    },
                    {
                        "address": "0x7ffbfe8aea982403ee41439e873e5dd2543a44be",
                        "amount": "1",
                        "iconUrl": "",
                        "isERC1155": false,
                        "isERC721": true,
                        "sign": true,
                        "tokenID": "2274",
                        "value": ""
                    },
                    {
                        "address": "0x7ffbfe8aea982403ee41439e873e5dd2543a44be",
                        "amount": "1",
                        "iconUrl": "",
                        "isERC1155": false,
                        "isERC721": true,
                        "sign": true,
                        "tokenID": "2275",
                        "value": ""
                    },
                    {
                        "address": "0x7ffbfe8aea982403ee41439e873e5dd2543a44be",
                        "amount": "1",
                        "iconUrl": "",
                        "isERC1155": false,
                        "isERC721": true,
                        "sign": true,
                        "tokenID": "2272",
                        "value": ""
                    }
                ]
            }
        ]
    },
    "profile": {
        "basic_info": {
            "baseFee": "6.998707157",
            "blockNumber": 15252581,
            "callData": "0xbdfaa0840000000000000000000000000000000000000000000000000000000000000004",
            "debugEnable": true,
            "errorInfo": "",
            "eventCount": 4,
            "feeRecipient": "0xea674fdde714fd979de3edf0f56aa9716b898ec8",
            "formatValue": "0",
            "gasLimit": 119558,
            "gasPrice": "9.998707157",
            "gasUsed": 66421,
            "intTxnCount": 0,
            "internalRevert": false,
            "internalRevertMessage": "",
            "isContractCreation": false,
            "isFlashloan": false,
            "maxFee": "20.4",
            "nonce": 436,
            "overwritedBlockNumber": -1,
            "priorityFee": "3",
            "receiver": "0x7ffbfe8aea982403ee41439e873e5dd2543a44be",
            "revertMessage": "",
            "sender": "0xa41f00c14f94b6de3e7f07487f6a701a0847b658",
            "simulationEnable": true,
            "sourceTxnHash": "0xd01c32e5ea64e67417b419ef4a185a16783f5792ed81773886026b490be04083",
            "status": true,
            "timestamp": "2022-07-31T21:11:18Z",
            "transactionFee": "0.000664124128075097",
            "txnHash": "0xd01c32e5ea64e67417b419ef4a185a16783f5792ed81773886026b490be04083",
            "txnIndex": 32,
            "type": 2,
            "value": "0"
        },
        "fund_flow": [
            {
                "amount": "1",
                "from": "0x0000000000000000000000000000000000000000",
                "id": 1,
                "isERC1155": false,
                "isERC721": true,
                "isReverted": false,
                "order": 1,
                "to": "0xa41f00c14f94b6de3e7f07487f6a701a0847b658",
                "token": "0x7ffbfe8aea982403ee41439e873e5dd2543a44be",
                "tokenID": "2272"
            },
            {
                "amount": "1",
                "from": "0x0000000000000000000000000000000000000000",
                "id": 2,
                "isERC1155": false,
                "isERC721": true,
                "isReverted": false,
                "order": 2,
                "to": "0xa41f00c14f94b6de3e7f07487f6a701a0847b658",
                "token": "0x7ffbfe8aea982403ee41439e873e5dd2543a44be",
                "tokenID": "2273"
            },
            {
                "amount": "1",
                "from": "0x0000000000000000000000000000000000000000",
                "id": 3,
                "isERC1155": false,
                "isERC721": true,
                "isReverted": false,
                "order": 3,
                "to": "0xa41f00c14f94b6de3e7f07487f6a701a0847b658",
                "token": "0x7ffbfe8aea982403ee41439e873e5dd2543a44be",
                "tokenID": "2274"
            },
            {
                "amount": "1",
                "from": "0x0000000000000000000000000000000000000000",
                "id": 4,
                "isERC1155": false,
                "isERC721": true,
                "isReverted": false,
                "order": 4,
                "to": "0xa41f00c14f94b6de3e7f07487f6a701a0847b658",
                "token": "0x7ffbfe8aea982403ee41439e873e5dd2543a44be",
                "tokenID": "2275"
            }
        ],
        "token_infos": [
            {
                "address": "0xc02aaa39b223fe8d0a0e5c4f27ead9083c756cc2",
                "decimals": 18
            },
            {
                "address": "0xeeeeeeeeeeeeeeeeeeeeeeeeeeeeeeeeeeeeeeee",
                "decimals": 18
            }
        ]
    },
    "address_label": {
        "labels": [
            {
                "address": "0x0000000000000000000000000000000000000001",
                "label": "Precompiled"
            },
            {
                "address": "0x0000000000000000000000000000000000000002",
                "label": "Precompiled"
            },
            {
                "address": "0x0000000000000000000000000000000000000003",
                "label": "Precompiled"
            },
            {
                "address": "0x0000000000000000000000000000000000000004",
                "label": "Precompiled"
            },
            {
                "address": "0xeeeeeeeeeeeeeeeeeeeeeeeeeeeeeeeeeeeeeeee",
                "label": "Ether"
            },
            {
                "address": "0x7ffbfe8aea982403ee41439e873e5dd2543a44be",
                "label": "ApesArt"
            }
        ]
    },
    "trace": {
        "accountLabels": null,
        "dataMap": {
            "-1": {
                "invocation": {
                    "address": "0xa41f00c14f94b6de3e7f07487f6a701a0847b658",
                    "callData": "",
                    "decodedMethod": null,
                    "errorInfo": "",
                    "fromAddress": "",
                    "gasUsed": 0,
                    "id": -1,
                    "methodDecoded": false,
                    "operation": "",
                    "output": "",
                    "revert": false,
                    "revertMessage": "",
                    "selector": "",
                    "status": false,
                    "value": ""
                },
                "nodeType": 0
            },
            "0": {
                "invocation": {
                    "address": "0x7ffbfe8aea982403ee41439e873e5dd2543a44be",
                    "callData": "0x0000000000000000000000000000000000000000000000000000000000000004",
                    "decodedMethod": {
                        "callParams": [
                            {
                                "name": "numTokens",
                                "type": "uint256",
                                "value": "4"
                            }
                        ],
                        "constructorArguments": "",
                        "name": "FreeMint",
                        "returnParams": [],
                        "signature": "FreeMint(uint256)"
                    },
                    "errorInfo": "",
                    "fromAddress": "0xa41f00c14f94b6de3e7f07487f6a701a0847b658",
                    "gasUsed": 66421,
                    "id": 0,
                    "methodDecoded": true,
                    "operation": "CALL",
                    "output": "",
                    "revert": false,
                    "revertMessage": "",
                    "selector": "0xbdfaa084",
                    "status": true,
                    "value": "0"
                },
                "nodeType": 0
            },
            "1": {
                "event": {
                    "contract": "0x7ffbfe8aea982403ee41439e873e5dd2543a44be",
                    "decodedLog": {
                        "name": "Transfer",
                        "params": [
                            {
                                "name": "from",
                                "type": "address",
                                "value": "0x0000000000000000000000000000000000000000"
                            },
                            {
                                "name": "to",
                                "type": "address",
                                "value": "0xa41f00c14f94b6de3e7f07487f6a701a0847b658"
                            },
                            {
                                "decimalAvailable": true,
                                "name": "tokenId",
                                "type": "uint256",
                                "value": "2,272"
                            }
                        ],
                        "signature": "Transfer(address,address,uint256)"
                    },
                    "id": 1,
                    "logData": "0x",
                    "logDecoded": true,
                    "operation": "EVENT",
                    "revert": false,
                    "status": true,
                    "topics": [
                        "0xddf252ad1be2c89b69c2b068fc378daa952ba7f163c4a11628f55a4df523b3ef",
                        "0x0000000000000000000000000000000000000000000000000000000000000000",
                        "0x000000000000000000000000a41f00c14f94b6de3e7f07487f6a701a0847b658",
                        "0x00000000000000000000000000000000000000000000000000000000000008e0"
                    ]
                },
                "nodeType": 1
            },
            "2": {
                "event": {
                    "contract": "0x7ffbfe8aea982403ee41439e873e5dd2543a44be",
                    "decodedLog": {
                        "name": "Transfer",
                        "params": [
                            {
                                "name": "from",
                                "type": "address",
                                "value": "0x0000000000000000000000000000000000000000"
                            },
                            {
                                "name": "to",
                                "type": "address",
                                "value": "0xa41f00c14f94b6de3e7f07487f6a701a0847b658"
                            },
                            {
                                "decimalAvailable": true,
                                "name": "tokenId",
                                "type": "uint256",
                                "value": "2,273"
                            }
                        ],
                        "signature": "Transfer(address,address,uint256)"
                    },
                    "id": 2,
                    "logData": "0x",
                    "logDecoded": true,
                    "operation": "EVENT",
                    "revert": false,
                    "status": true,
                    "topics": [
                        "0xddf252ad1be2c89b69c2b068fc378daa952ba7f163c4a11628f55a4df523b3ef",
                        "0x0000000000000000000000000000000000000000000000000000000000000000",
                        "0x000000000000000000000000a41f00c14f94b6de3e7f07487f6a701a0847b658",
                        "0x00000000000000000000000000000000000000000000000000000000000008e1"
                    ]
                },
                "nodeType": 1
            },
            "3": {
                "event": {
                    "contract": "0x7ffbfe8aea982403ee41439e873e5dd2543a44be",
                    "decodedLog": {
                        "name": "Transfer",
                        "params": [
                            {
                                "name": "from",
                                "type": "address",
                                "value": "0x0000000000000000000000000000000000000000"
                            },
                            {
                                "name": "to",
                                "type": "address",
                                "value": "0xa41f00c14f94b6de3e7f07487f6a701a0847b658"
                            },
                            {
                                "decimalAvailable": true,
                                "name": "tokenId",
                                "type": "uint256",
                                "value": "2,274"
                            }
                        ],
                        "signature": "Transfer(address,address,uint256)"
                    },
                    "id": 3,
                    "logData": "0x",
                    "logDecoded": true,
                    "operation": "EVENT",
                    "revert": false,
                    "status": true,
                    "topics": [
                        "0xddf252ad1be2c89b69c2b068fc378daa952ba7f163c4a11628f55a4df523b3ef",
                        "0x0000000000000000000000000000000000000000000000000000000000000000",
                        "0x000000000000000000000000a41f00c14f94b6de3e7f07487f6a701a0847b658",
                        "0x00000000000000000000000000000000000000000000000000000000000008e2"
                    ]
                },
                "nodeType": 1
            },
            "4": {
                "event": {
                    "contract": "0x7ffbfe8aea982403ee41439e873e5dd2543a44be",
                    "decodedLog": {
                        "name": "Transfer",
                        "params": [
                            {
                                "name": "from",
                                "type": "address",
                                "value": "0x0000000000000000000000000000000000000000"
                            },
                            {
                                "name": "to",
                                "type": "address",
                                "value": "0xa41f00c14f94b6de3e7f07487f6a701a0847b658"
                            },
                            {
                                "decimalAvailable": true,
                                "name": "tokenId",
                                "type": "uint256",
                                "value": "2,275"
                            }
                        ],
                        "signature": "Transfer(address,address,uint256)"
                    },
                    "id": 4,
                    "logData": "0x",
                    "logDecoded": true,
                    "operation": "EVENT",
                    "revert": false,
                    "status": true,
                    "topics": [
                        "0xddf252ad1be2c89b69c2b068fc378daa952ba7f163c4a11628f55a4df523b3ef",
                        "0x0000000000000000000000000000000000000000000000000000000000000000",
                        "0x000000000000000000000000a41f00c14f94b6de3e7f07487f6a701a0847b658",
                        "0x00000000000000000000000000000000000000000000000000000000000008e3"
                    ]
                },
                "nodeType": 1
            }
        },
        "gasFlame": [
            {
                "children": [
                    {
                        "children": [
                            {
                                "children": [],
                                "depth": 0,
                                "name": "Initial Gas",
                                "value": 21204
                            },
                            {
                                "children": [],
                                "depth": 0,
                                "name": "Executed Gas",
                                "value": 45217
                            }
                        ],
                        "depth": -1,
                        "name": "Actual Gas Used",
                        "value": 66421
                    },
                    {
                        "children": [],
                        "depth": -1,
                        "name": "Refunded Gas",
                        "value": 0
                    }
                ],
                "depth": -2,
                "name": "Total Gas",
                "value": 66421
            }
        ],
        "isConfirmed": true,
        "mainTrace": [
            {
                "children": [
                    {
                        "children": [
                            {
                                "children": [],
                                "depth": 1,
                                "id": 1,
                                "order": 1
                            },
                            {
                                "children": [],
                                "depth": 1,
                                "id": 2,
                                "order": 2
                            },
                            {
                                "children": [],
                                "depth": 1,
                                "id": 3,
                                "order": 3
                            },
                            {
                                "children": [],
                                "depth": 1,
                                "id": 4,
                                "order": 4
                            }
                        ],
                        "depth": 0,
                        "id": 0,
                        "order": 0
                    }
                ],
                "depth": -1,
                "id": -1,
                "order": -1
            }
        ],
        "mainTraceNodeCount": 5,
        "parentIdMap": {
            "0": -1,
            "1": 0,
            "2": 0,
            "3": 0,
            "4": 0
        },
        "tidyTrace": [
            {
                "children": [
                    {
                        "children": [
                            {
                                "children": [],
                                "depth": 1,
                                "id": 1,
                                "order": 1
                            },
                            {
                                "children": [],
                                "depth": 1,
                                "id": 2,
                                "order": 2
                            },
                            {
                                "children": [],
                                "depth": 1,
                                "id": 3,
                                "order": 3
                            },
                            {
                                "children": [],
                                "depth": 1,
                                "id": 4,
                                "order": 4
                            }
                        ],
                        "depth": 0,
                        "id": 0,
                        "order": 0
                    }
                ],
                "depth": -1,
                "id": -1,
                "order": -1
            }
        ],
        "tidyTraceNodeCount": 5
    },
    "state_change": {
        "stateChanges": [
            {
                "address": "0x7ffbfe8aea982403ee41439e873e5dd2543a44be",
                "erc": "ERC-721",
                "slots": [
                    {
                        "current": "0x0000000000000000000000000000000c0000000000000000000000000000000c",
                        "key": "0xb8a3c4dda1dccea283e7a30242c45c1ed9442144d8fe8b723c5cceef33bd76db",
                        "prev": "0x0000000000000000000000000000000800000000000000000000000000000008"
                    },
                    {
                        "current": "0x000000000000000062e6eff6a41f00c14f94b6de3e7f07487f6a701a0847b658",
                        "key": "0x6156f5ac15692ec0b533a3367a0f092b5a016a7c686b7fb53fb14280fc3f57b3",
                        "prev": "0x0000000000000000000000000000000000000000000000000000000000000000"
                    },
                    {
                        "current": "0x00000000000000000000000000000000000000000000000000000000000008e4",
                        "key": "0x0000000000000000000000000000000000000000000000000000000000000000",
                        "prev": "0x00000000000000000000000000000000000000000000000000000000000008e0"
                    }
                ],
                "storageVariables": [
                    {
                        "name": "_addressData",
                        "type": "mapping(address => struct ERC721A.AddressData)",
                        "value": {
                            "pairs": [
                                {
                                    "key": "0xa41f00c14f94b6de3e7f07487f6a701a0847b658",
                                    "value": {
                                        "fields": [
                                            {
                                                "name": "balance",
                                                "type": "uint128",
                                                "value": {
                                                    "current": "12",
                                                    "prev": "8",
                                                    "typeTag": 1
                                                }
                                            },
                                            {
                                                "name": "numberMinted",
                                                "type": "uint128",
                                                "value": {
                                                    "current": "12",
                                                    "prev": "8",
                                                    "typeTag": 1
                                                }
                                            }
                                        ],
                                        "typeTag": 3
                                    }
                                }
                            ],
                            "typeTag": 4
                        }
                    },
                    {
                        "name": "_ownerships",
                        "type": "mapping(uint256 => struct ERC721A.TokenOwnership)",
                        "value": {
                            "pairs": [
                                {
                                    "key": "2272",
                                    "value": {
                                        "fields": [
                                            {
                                                "name": "addr",
                                                "type": "address",
                                                "value": {
                                                    "current": "0xa41f00c14f94b6de3e7f07487f6a701a0847b658",
                                                    "prev": "0x0000000000000000000000000000000000000000",
                                                    "typeTag": 1
                                                }
                                            },
                                            {
                                                "name": "startTimestamp",
                                                "type": "uint64",
                                                "value": {
                                                    "current": "1659301878",
                                                    "prev": "0",
                                                    "typeTag": 1
                                                }
                                            }
                                        ],
                                        "typeTag": 3
                                    }
                                }
                            ],
                            "typeTag": 4
                        }
                    },
                    {
                        "name": "currentIndex",
                        "type": "uint256",
                        "value": {
                            "current": "2276",
                            "prev": "2272",
                            "typeTag": 1
                        }
                    }
                ]
            }
        ]
    }
}