{
    "balance_change": {
        "balanceChanges": [
            {
                "account": "0xfcd9fe391a60ace61a7e101bf3d07ca2da83be3c",
                "assets": [
                    {
                        "address": "0x68e54af74b22acaccffa04ccaad13be16ed14eac",
                        "amount": "5,468",
                        "iconUrl": "",
                        "isERC1155": false,
                        "isERC721": false,
                        "sign": false,
                        "value": ""
                    }
                ]
            },
            {
                "account": "0xd39c072573581b8224755bc8d7cf0bfcecadf823",
                "assets": [
                    {
                        "address": "0x68e54af74b22acaccffa04ccaad13be16ed14eac",
                        "amount": "5,468",
                        "iconUrl": "",
                        "isERC1155": false,
                        "isERC721": false,
                        "sign": true,
                        "value": ""
                    }
                ]
            }
        ]
    },
    "profile": {
        "basic_info": {
            "baseFee": "",
            "blockNumber": 9462321,
            "callData": "0xa9059cbb000000000000000000000000d39c072573581b8224755bc8d7cf0bfcecadf8230000000000000000000000000000000000000000000000000000007f4fd1dc00",
            "debugEnable": true,
            "errorInfo": "",
            "eventCount": 1,
            "feeRecipient": "0x829bd824b016326a401d083b33d092293333a830",
            "formatValue": "0",
            "gasLimit": 36911,
            "gasPrice": "6",
            "gasUsed": 21911,
            "intTxnCount": 0,
            "internalRevert": false,
            "internalRevertMessage": "",
            "isContractCreation": false,
            "isFlashloan": false,
            "maxFee": "",
            "nonce": 25,
            "overwritedBlockNumber": -1,
            "priorityFee": "",
            "receiver": "0x68e54af74b22acaccffa04ccaad13be16ed14eac",
            "revertMessage": "",
            "sender": "0xfcd9fe391a60ace61a7e101bf3d07ca2da83be3c",
            "simulationEnable": true,
            "sourceTxnHash": "0xd06f223cfbcd1fa196c8504124f07712bcfadff9158952624b277a4f34d14160",
            "status": true,
            "timestamp": "2020-02-11T14:53:22Z",
            "transactionFee": "0.000131466",
            "txnHash": "0xd06f223cfbcd1fa196c8504124f07712bcfadff9158952624b277a4f34d14160",
            "txnIndex": 72,
            "type": 0,
            "value": "0"
        },
        "fund_flow": [
            {
                "amount": "5,468",
                "from": "0xfcd9fe391a60ace61a7e101bf3d07ca2da83be3c",
                "id": 1,
                "isERC1155": false,
                "isERC721": false,
                "isReverted": false,
                "order": 1,
                "to": "0xd39c072573581b8224755bc8d7cf0bfcecadf823",
                "token": "0x68e54af74b22acaccffa04ccaad13be16ed14eac"
            }
        ],
        "token_infos": [
            {
                "address": "0xc02aaa39b223fe8d0a0e5c4f27ead9083c756cc2",
                "decimals": 18
            },
            {
                "address": "0xeeeeeeeeeeeeeeeeeeeeeeeeeeeeeeeeeeeeeeee",
                "decimals": 18
            },
            {
                "address": "0x68e54af74b22acaccffa04ccaad13be16ed14eac",
                "decimals": 8
            }
        ]
    },
    "address_label": {
        "labels": [
            {
                "address": "0x68e54af74b22acaccffa04ccaad13be16ed14eac",
                "label": "WENI (WENI)"
            },
            {
                "address": "0x0000000000000000000000000000000000000001",
                "label": "Precompiled"
            },
            {
                "address": "0x0000000000000000000000000000000000000002",
                "label": "Precompiled"
            },
            {
                "address": "0x0000000000000000000000000000000000000003",
                "label": "Precompiled"
            },
            {
                "address": "0x0000000000000000000000000000000000000004",
                "label": "Precompiled"
            },
            {
                "address": "0xeeeeeeeeeeeeeeeeeeeeeeeeeeeeeeeeeeeeeeee",
                "label": "Ether"
            }
        ]
    },
    "trace": {
        "accountLabels": null,
        "dataMap": {
            "-1": {
                "invocation": {
                    "address": "0xfcd9fe391a60ace61a7e101bf3d07ca2da83be3c",
                    "callData": "",
                    "decodedMethod": null,
                    "errorInfo": "",
                    "fromAddress": "",
                    "gasUsed": 0,
                    "id": -1,
                    "methodDecoded": false,
                    "operation": "",
                    "output": "",
                    "revert": false,
                    "revertMessage": "",
                    "selector": "",
                    "status": false,
                    "value": ""
                },
                "nodeType": 0
            },
            "0": {
                "invocation": {
                    "address": "0x68e54af74b22acaccffa04ccaad13be16ed14eac",
                    "callData": "0x000000000000000000000000d39c072573581b8224755bc8d7cf0bfcecadf8230000000000000000000000000000000000000000000000000000007f4fd1dc00",
                    "decodedMethod": {
                        "callParams": [
                            {
                                "name": "to",
                                "type": "address",
                                "value": "0xd39c072573581b8224755bc8d7cf0bfcecadf823"
                            },
                            {
                                "decimalAvailable": true,
                                "name": "value",
                                "type": "uint256",
                                "value": "546,800,000,000"
                            }
                        ],
                        "constructorArguments": "",
                        "name": "transfer",
                        "returnParams": [
                            {
                                "name": "",
                                "type": "bool",
                                "value": true
                            }
                        ],
                        "signature": "transfer(address,uint256)"
                    },
                    "errorInfo": "",
                    "fromAddress": "0xfcd9fe391a60ace61a7e101bf3d07ca2da83be3c",
                    "gasUsed": 21911,
                    "id": 0,
                    "methodDecoded": true,
                    "operation": "CALL",
                    "output": "0x0000000000000000000000000000000000000000000000000000000000000001",
                    "revert": false,
                    "revertMessage": "",
                    "selector": "0xa9059cbb",
                    "status": true,
                    "value": "0"
                },
                "nodeType": 0
            },
            "1": {
                "event": {
                    "contract": "0x68e54af74b22acaccffa04ccaad13be16ed14eac",
                    "decodedLog": {
                        "name": "Transfer",
                        "params": [
                            {
                                "name": "from",
                                "type": "address",
                                "value": "0xfcd9fe391a60ace61a7e101bf3d07ca2da83be3c"
                            },
                            {
                                "name": "to",
                                "type": "address",
                                "value": "0xd39c072573581b8224755bc8d7cf0bfcecadf823"
                            },
                            {
                                "decimalAvailable": true,
                                "name": "value",
                                "type": "uint256",
                                "value": "546,800,000,000"
                            }
                        ],
                        "signature": "Transfer(address,address,uint256)"
                    },
                    "id": 1,
                    "logData": "0x0000000000000000000000000000000000000000000000000000007f4fd1dc00",
                    "logDecoded": true,
                    "operation": "EVENT",
                    "revert": false,
                    "status": true,
                    "topics": [
                        "0xddf252ad1be2c89b69c2b068fc378daa952ba7f163c4a11628f55a4df523b3ef",
                        "0x000000000000000000000000fcd9fe391a60ace61a7e101bf3d07ca2da83be3c",
                        "0x000000000000000000000000d39c072573581b8224755bc8d7cf0bfcecadf823"
                    ]
                },
                "nodeType": 1
            }
        },
        "gasFlame": [
            {
                "children": [
                    {
                        "children": [
                            {
                                "children": [],
                                "depth": 0,
                                "name": "Initial Gas",
                                "value": 21608
                            },
                            {
                                "children": [],
                                "depth": 0,
                                "name": "Executed Gas",
                                "value": 15303
                            }
                        ],
                        "depth": -1,
                        "name": "Actual Gas Used",
                        "value": 21911
                    },
                    {
                        "children": [],
                        "depth": -1,
                        "name": "Refunded Gas",
                        "value": 15000
                    }
                ],
                "depth": -2,
                "name": "Total Gas",
                "value": 36911
            }
        ],
        "isConfirmed": true,
        "mainTrace": [
            {
                "children": [
                    {
                        "children": [
                            {
                                "children": [],
                                "depth": 1,
                                "id": 1,
                                "order": 1
                            }
                        ],
                        "depth": 0,
                        "id": 0,
                        "order": 0
                    }
                ],
                "depth": -1,
                "id": -1,
                "order": -1
            }
        ],
        "mainTraceNodeCount": 2,
        "parentIdMap": {
            "0": -1,
            "1": 0
        },
        "tidyTrace": [
            {
                "children": [
                    {
                        "children": [
                            {
                                "children": [],
                                "depth": 1,
                                "id": 1,
                                "order": 1
                            }
                        ],
                        "depth": 0,
                        "id": 0,
                        "order": 0
                    }
                ],
                "depth": -1,
                "id": -1,
                "order": -1
            }
        ],
        "tidyTraceNodeCount": 2
    },
    "state_change": {
        "stateChanges": [
            {
                "address": "0x68e54af74b22acaccffa04ccaad13be16ed14eac",
                "erc": "ERC-20",
                "slots": [
                    {
                        "current": "0x0000000000000000000000000000000000000000000000000000000000000000",
                        "key": "0xafec420ea5fee1635235090c099813991967d55ba7147c25856f0dd5a5c6a216",
                        "prev": "0x0000000000000000000000000000000000000000000000000000007f4fd1dc00"
                    },
                    {
                        "current": "0x0000000000000000000000000000000000000000000000000002bf46851212ab",
                        "key": "0xe038e5f97fa3deb4a07aa55576a0fc0575b39afd0a339e5b6ac3883e59fac40f",
                        "prev": "0x0000000000000000000000000000000000000000000000000002bec7354036ab"
                    }
                ],
                "storageVariables": [
                    {
                        "name": "_balances",
                        "type": "mapping(address => uint256)",
                        "value": {
                            "pairs": [
                                {
                                    "key": "0xd39c072573581b8224755bc8d7cf0bfcecadf823",
                                    "value": {
                                        "current": "773259554591403",
                                        "prev": "772712754591403",
                                        "typeTag": 1
                                    }
                                },
                                {
                                    "key": "0xfcd9fe391a60ace61a7e101bf3d07ca2da83be3c",
                                    "value": {
                                        "current": "0",
                                        "prev": "546800000000",
                                        "typeTag": 1
                                    }
                                }
                            ],
                            "typeTag": 4
                        }
                    }
                ]
            }
        ]
    }
}