{
    "balance_change": {
        "balanceChanges": []
    },
    "profile": {
        "basic_info": {
            "baseFee": "",
            "blockNumber": 9544539,
            "callData": "0xa72f8a700000000000000000000000000000000000000000000000000000000000000060c9608bd11ff715217831bc462a8c31a4efbdd9c9dc88a0a8d4b2908c3151c7f0000000000000000000000000000000000000000000000000000000005e536d3a0000000000000000000000000000000000000000000000000000000000000041c782a19ba9afcd331241a577caf26e5e0af2a80e913a418d51a6783bbc44979178519236bbb80ff7014a3daf058bba83610038dae7a13523d0d5ea60138d30e21c00000000000000000000000000000000000000000000000000000000000000",
            "debugEnable": true,
            "errorInfo": "",
            "eventCount": 1,
            "feeRecipient": "0xea674fdde714fd979de3edf0f56aa9716b898ec8",
            "formatValue": "0",
            "gasLimit": 55693,
            "gasPrice": "1",
            "gasUsed": 46411,
            "intTxnCount": 1,
            "internalRevert": false,
            "internalRevertMessage": "",
            "isContractCreation": false,
            "isFlashloan": false,
            "maxFee": "",
            "nonce": 13,
            "overwritedBlockNumber": -1,
            "priorityFee": "",
            "receiver": "0x604652c6a6e606669bdccde15519644b869a97a9",
            "revertMessage": "",
            "sender": "0x42d66ebe734bc7533ed4737bdf6787498db1a8d8",
            "simulationEnable": true,
            "sourceTxnHash": "0xd1d4728e4e756a104eb39b4d719c3c13f39a41ce9120db87024e9c3d5fa62815",
            "status": true,
            "timestamp": "2020-02-24T06:29:42Z",
            "transactionFee": "0.000046411",
            "txnHash": "0xd1d4728e4e756a104eb39b4d719c3c13f39a41ce9120db87024e9c3d5fa62815",
            "txnIndex": 44,
            "type": 0,
            "value": "0"
        },
        "fund_flow": [],
        "token_infos": [
            {
                "address": "0xc02aaa39b223fe8d0a0e5c4f27ead9083c756cc2",
                "decimals": 18
            },
            {
                "address": "0xeeeeeeeeeeeeeeeeeeeeeeeeeeeeeeeeeeeeeeee",
                "decimals": 18
            }
        ]
    },
    "address_label": {
        "labels": [
            {
                "address": "0x0000000000000000000000000000000000000003",
                "label": "Precompiled"
            },
            {
                "address": "0x0000000000000000000000000000000000000004",
                "label": "Precompiled"
            },
            {
                "address": "0xeeeeeeeeeeeeeeeeeeeeeeeeeeeeeeeeeeeeeeee",
                "label": "Ether"
            },
            {
                "address": "0x604652c6a6e606669bdccde15519644b869a97a9",
                "label": "BFH: Daily Action V1"
            },
            {
                "address": "0x0000000000000000000000000000000000000001",
                "label": "Precompiled"
            },
            {
                "address": "0x0000000000000000000000000000000000000002",
                "label": "Precompiled"
            }
        ]
    },
    "trace": {
        "accountLabels": null,
        "dataMap": {
            "-1": {
                "invocation": {
                    "address": "0x42d66ebe734bc7533ed4737bdf6787498db1a8d8",
                    "callData": "",
                    "decodedMethod": null,
                    "errorInfo": "",
                    "fromAddress": "",
                    "gasUsed": 0,
                    "id": -1,
                    "methodDecoded": false,
                    "operation": "",
                    "output": "",
                    "revert": false,
                    "revertMessage": "",
                    "selector": "",
                    "status": false,
                    "value": ""
                },
                "nodeType": 0
            },
            "0": {
                "invocation": {
                    "address": "0x604652c6a6e606669bdccde15519644b869a97a9",
                    "callData": "0x0000000000000000000000000000000000000000000000000000000000000060c9608bd11ff715217831bc462a8c31a4efbdd9c9dc88a0a8d4b2908c3151c7f0000000000000000000000000000000000000000000000000000000005e536d3a0000000000000000000000000000000000000000000000000000000000000041c782a19ba9afcd331241a577caf26e5e0af2a80e913a418d51a6783bbc44979178519236bbb80ff7014a3daf058bba83610038dae7a13523d0d5ea60138d30e21c00000000000000000000000000000000000000000000000000000000000000",
                    "decodedMethod": {
                        "callParams": [
                            {
                                "name": "_signature",
                                "type": "bytes",
                                "value": "0xc782a19ba9afcd331241a577caf26e5e0af2a80e913a418d51a6783bbc44979178519236bbb80ff7014a3daf058bba83610038dae7a13523d0d5ea60138d30e21c"
                            },
                            {
                                "name": "_hash",
                                "type": "bytes32",
                                "value": "0xc9608bd11ff715217831bc462a8c31a4efbdd9c9dc88a0a8d4b2908c3151c7f0"
                            },
                            {
                                "name": "_time",
                                "type": "int64",
                                "value": "1,582,525,754"
                            }
                        ],
                        "constructorArguments": "",
                        "name": "action",
                        "returnParams": [],
                        "signature": "action(bytes,bytes32,int64)"
                    },
                    "errorInfo": "",
                    "fromAddress": "0x42d66ebe734bc7533ed4737bdf6787498db1a8d8",
                    "gasUsed": 46411,
                    "id": 0,
                    "methodDecoded": true,
                    "operation": "CALL",
                    "output": "",
                    "revert": false,
                    "revertMessage": "",
                    "selector": "0xa72f8a70",
                    "status": true,
                    "value": "0"
                },
                "nodeType": 0
            },
            "1": {
                "invocation": {
                    "address": "0x0000000000000000000000000000000000000001",
                    "callData": "0x4fe4b5e9ddc673f537b7bffa9c7b9cac38a754d1ff8e31b33eb76853000000000000000000000000000000000000000000000000000000000000001cc782a19ba9afcd331241a577caf26e5e0af2a80e913a418d51a6783bbc44979178519236bbb80ff7014a3daf058bba83610038dae7a13523d0d5ea60138d30e2",
                    "decodedMethod": {
                        "callParams": [
                            {
                                "name": "hash",
                                "type": "bytes32",
                                "value": "0xfe0b03874fe4b5e9ddc673f537b7bffa9c7b9cac38a754d1ff8e31b33eb76853"
                            },
                            {
                                "name": "v",
                                "type": "uint256",
                                "value": "28"
                            },
                            {
                                "name": "r",
                                "type": "bytes32",
                                "value": "0xc782a19ba9afcd331241a577caf26e5e0af2a80e913a418d51a6783bbc449791"
                            },
                            {
                                "name": "s",
                                "type": "bytes32",
                                "value": "0x78519236bbb80ff7014a3daf058bba83610038dae7a13523d0d5ea60138d30e2"
                            }
                        ],
                        "constructorArguments": "",
                        "name": "ecrecover",
                        "returnParams": [
                            {
                                "name": "",
                                "type": "address",
                                "value": "0xa3833d8bf7f7b7166c07f3309f70459477a1a746"
                            }
                        ],
                        "signature": "ecrecover(bytes32,uint256,bytes32,bytes32)"
                    },
                    "errorInfo": "",
                    "fromAddress": "0x604652c6a6e606669bdccde15519644b869a97a9",
                    "gasUsed": 3000,
                    "id": 1,
                    "methodDecoded": true,
                    "operation": "STATICCALL",
                    "output": "0x000000000000000000000000a3833d8bf7f7b7166c07f3309f70459477a1a746",
                    "revert": false,
                    "revertMessage": "",
                    "selector": "0xfe0b0387",
                    "status": true,
                    "value": "0"
                },
                "nodeType": 0
            },
            "2": {
                "event": {
                    "contract": "0x604652c6a6e606669bdccde15519644b869a97a9",
                    "decodedLog": {
                        "name": "Action",
                        "params": [
                            {
                                "name": "user",
                                "type": "address",
                                "value": "0x42d66ebe734bc7533ed4737bdf6787498db1a8d8"
                            },
                            {
                                "name": "at",
                                "type": "int64",
                                "value": "1,582,525,754"
                            }
                        ],
                        "signature": "Action(address,int64)"
                    },
                    "id": 2,
                    "logData": "0x000000000000000000000000000000000000000000000000000000005e536d3a",
                    "logDecoded": true,
                    "operation": "EVENT",
                    "revert": false,
                    "status": true,
                    "topics": [
                        "0x708861da4aa6afa7c59ec1b6595bfacef3b852515c06faafba359c70bc640e8c",
                        "0x00000000000000000000000042d66ebe734bc7533ed4737bdf6787498db1a8d8"
                    ]
                },
                "nodeType": 1
            }
        },
        "gasFlame": [
            {
                "children": [
                    {
                        "children": [
                            {
                                "children": [],
                                "depth": 0,
                                "name": "Initial Gas",
                                "value": 23184
                            },
                            {
                                "children": [
                                    {
                                        "children": [],
                                        "depth": 1,
                                        "name": "ecrecover",
                                        "value": 3000
                                    }
                                ],
                                "depth": 0,
                                "name": "Executed Gas",
                                "value": 23227
                            }
                        ],
                        "depth": -1,
                        "name": "Actual Gas Used",
                        "value": 46411
                    },
                    {
                        "children": [],
                        "depth": -1,
                        "name": "Refunded Gas",
                        "value": 0
                    }
                ],
                "depth": -2,
                "name": "Total Gas",
                "value": 46411
            }
        ],
        "isConfirmed": true,
        "mainTrace": [
            {
                "children": [
                    {
                        "children": [
                            {
                                "children": [],
                                "depth": 1,
                                "id": 1,
                                "order": 1
                            },
                            {
                                "children": [],
                                "depth": 1,
                                "id": 2,
                                "order": 2
                            }
                        ],
                        "depth": 0,
                        "id": 0,
                        "order": 0
                    }
                ],
                "depth": -1,
                "id": -1,
                "order": -1
            }
        ],
        "mainTraceNodeCount": 3,
        "parentIdMap": {
            "0": -1,
            "1": 0,
            "2": 0
        },
        "tidyTrace": [
            {
                "children": [
                    {
                        "children": [
                            {
                                "children": [],
                                "depth": 1,
                                "id": 2,
                                "order": 2
                            }
                        ],
                        "depth": 0,
                        "id": 0,
                        "order": 0
                    }
                ],
                "depth": -1,
                "id": -1,
                "order": -1
            }
        ],
        "tidyTraceNodeCount": 2
    },
    "state_change": {
        "stateChanges": [
            {
                "address": "0x604652c6a6e606669bdccde15519644b869a97a9",
                "erc": "",
                "slots": [
                    {
                        "current": "0x000000000000000000000000000000000000000000000000000000000000478c",
                        "key": "0xec1d06bc3bd6c50d5c4f3df57700fbd3c3e856a1e612e0de13ab38704cccc144",
                        "prev": "0x000000000000000000000000000000000000000000000000000000000000478b"
                    },
                    {
                        "current": "0x000000000000000000000000000000000000000000000000000000000000478c",
                        "key": "0x41cbca96362bcebd18f47a08ab014cceef23eb15f25519de35a267e3428c9567",
                        "prev": "0x000000000000000000000000000000000000000000000000000000000000478b"
                    }
                ],
                "storageVariables": [
                    {
                        "name": "lastActionDateHash",
                        "type": "mapping(bytes32 => int64)",
                        "value": {
                            "pairs": [
                                {
                                    "key": "0xc9608bd11ff715217831bc462a8c31a4efbdd9c9dc88a0a8d4b2908c3151c7f0",
                                    "value": {
                                        "current": "18316",
                                        "prev": "18315",
                                        "typeTag": 1
                                    }
                                }
                            ],
                            "typeTag": 4
                        }
                    },
                    {
                        "name": "lastActionDateAddress",
                        "type": "mapping(address => int64)",
                        "value": {
                            "pairs": [
                                {
                                    "key": "0x42d66ebe734bc7533ed4737bdf6787498db1a8d8",
                                    "value": {
                                        "current": "18316",
                                        "prev": "18315",
                                        "typeTag": 1
                                    }
                                }
                            ],
                            "typeTag": 4
                        }
                    }
                ]
            }
        ]
    }
}