{
    "balance_change": {
        "balanceChanges": [
            {
                "account": "0x05c4c65873473c13741c31de2d74005832a0a3d8",
                "assets": [
                    {
                        "address": "0x2e9d63788249371f1dfc918a52f8d799f4a38c94",
                        "amount": "18.972454478733729915",
                        "iconUrl": "",
                        "isERC1155": false,
                        "isERC721": false,
                        "sign": false,
                        "value": "696.3629889"
                    },
                    {
                        "address": "0x0ab87046fbb341d058f17cbc4c1133f25a20a52f",
                        "amount": "0.044537063233516973",
                        "iconUrl": "",
                        "isERC1155": false,
                        "isERC721": false,
                        "sign": true,
                        "value": "671.3361475"
                    }
                ]
            },
            {
                "account": "0x500cb7defd8302f1f97e38ac628e8c2eaf7307b6",
                "assets": [
                    {
                        "address": "0xc02aaa39b223fe8d0a0e5c4f27ead9083c756cc2",
                        "amount": "0.171939344963867805",
                        "iconUrl": "https://assets.blocksec.com/icon/f1cb2d02c471d545bbc7722daf3277fd852d98e63d118771af7047bd8256c516.png",
                        "isERC1155": false,
                        "isERC721": false,
                        "sign": false,
                        "value": "680.7851676"
                    },
                    {
                        "address": "0x2e9d63788249371f1dfc918a52f8d799f4a38c94",
                        "amount": "18.972454478733729915",
                        "iconUrl": "",
                        "isERC1155": false,
                        "isERC721": false,
                        "sign": true,
                        "value": "696.3629889"
                    }
                ]
            },
            {
                "account": "0xcf7e21b96a7dae8e1663b5a266fd812cbe973e70",
                "assets": [
                    {
                        "address": "0x0ab87046fbb341d058f17cbc4c1133f25a20a52f",
                        "amount": "0.044537063233516973",
                        "iconUrl": "",
                        "isERC1155": false,
                        "isERC721": false,
                        "sign": false,
                        "value": "671.3361475"
                    },
                    {
                        "address": "0xc02aaa39b223fe8d0a0e5c4f27ead9083c756cc2",
                        "amount": "0.171939344963867805",
                        "iconUrl": "https://assets.blocksec.com/icon/f1cb2d02c471d545bbc7722daf3277fd852d98e63d118771af7047bd8256c516.png",
                        "isERC1155": false,
                        "isERC721": false,
                        "sign": true,
                        "value": "680.7851676"
                    }
                ]
            }
        ]
    },
    "profile": {
        "basic_info": {
            "baseFee": "61.98804931",
            "blockNumber": 13829173,
            "callData": "0x5f57552900000000000000000000000000000000000000000000000000000000000000800000000000000000000000002e9d63788249371f1dfc918a52f8d799f4a38c94000000000000000000000000000000000000000000000001074bb2d3fa31607b00000000000000000000000000000000000000000000000000000000000000c0000000000000000000000000000000000000000000000000000000000000000c307846656544796e616d6963000000000000000000000000000000000000000000000000000000000000000000000000000000000000000000000000000002800000000000000000000000002e9d63788249371f1dfc918a52f8d799f4a38c940000000000000000000000000ab87046fbb341d058f17cbc4c1133f25a20a52f000000000000000000000000000000000000000000000001074bb2d3fa31607b000000000000000000000000000000000000000000000000009b15567c9b6f33000000000000000000000000000000000000000000000000000000000000012000000000000000000000000000000000000000000000000000000000000000000000000000000000000000002acf35c9a3f4c5c3f4c78ef5fb64c3ee82f07c45000000000000000000000000000000000000000000000000000000000000000000000000000000000000000000000000000000000000000000000000000001486af479b20000000000000000000000000000000000000000000000000000000000000080000000000000000000000000000000000000000000000001074bb2d3fa31607b000000000000000000000000000000000000000000000000009b15567c9b6f33000000000000000000000000000000000000000000000000000000000000000000000000000000000000000000000000000000000000000000000000000000422e9d63788249371f1dfc918a52f8d799f4a38c94002710c02aaa39b223fe8d0a0e5c4f27ead9083c756cc20027100ab87046fbb341d058f17cbc4c1133f25a20a52f000000000000000000000000000000000000000000000000000000000000869584cd00000000000000000000000011ededebf63bef0ea2d2d071bdf88f71543ec6fb000000000000000000000000000000000000000000000049cc957cd161bdd6420000000000000000000000000000000000000000000000005c",
            "debugEnable": true,
            "errorInfo": "",
            "eventCount": 11,
            "feeRecipient": "0xea674fdde714fd979de3edf0f56aa9716b898ec8",
            "formatValue": "0",
            "gasLimit": 360645,
            "gasPrice": "63.31344931",
            "gasUsed": 245801,
            "intTxnCount": 23,
            "internalRevert": false,
            "internalRevertMessage": "",
            "isContractCreation": false,
            "isFlashloan": false,
            "maxFee": "72.242967269",
            "nonce": 70,
            "overwritedBlockNumber": -1,
            "priorityFee": "1.3254",
            "receiver": "0x881d40237659c251811cec9c364ef91dc08d300c",
            "revertMessage": "",
            "sender": "0x05c4c65873473c13741c31de2d74005832a0a3d8",
            "simulationEnable": true,
            "sourceTxnHash": "0xd1307b8906bd290f55dbf424ec429294e7b15f8d16788c12371c5e4056126db1",
            "status": true,
            "timestamp": "2021-12-18T12:38:44Z",
            "transactionFee": "0.01556250915384731",
            "txnHash": "0xd1307b8906bd290f55dbf424ec429294e7b15f8d16788c12371c5e4056126db1",
            "txnIndex": 118,
            "type": 2,
            "value": "0"
        },
        "fund_flow": [
            {
                "amount": "18.972454478733729915",
                "from": "0x05c4c65873473c13741c31de2d74005832a0a3d8",
                "id": 1,
                "isERC1155": false,
                "isERC721": false,
                "isReverted": false,
                "order": 1,
                "to": "0x74de5d4fcbf63e00296fd95d33236b9794016631",
                "token": "0x2e9d63788249371f1dfc918a52f8d799f4a38c94"
            },
            {
                "amount": "0.171939344963867805",
                "from": "0x500cb7defd8302f1f97e38ac628e8c2eaf7307b6",
                "id": 2,
                "isERC1155": false,
                "isERC721": false,
                "isReverted": false,
                "order": 2,
                "to": "0xdef1c0ded9bec7f1a1670819833240f027b25eff",
                "token": "0xc02aaa39b223fe8d0a0e5c4f27ead9083c756cc2"
            },
            {
                "amount": "18.972454478733729915",
                "from": "0x74de5d4fcbf63e00296fd95d33236b9794016631",
                "id": 3,
                "isERC1155": false,
                "isERC721": false,
                "isReverted": false,
                "order": 3,
                "to": "0x500cb7defd8302f1f97e38ac628e8c2eaf7307b6",
                "token": "0x2e9d63788249371f1dfc918a52f8d799f4a38c94"
            },
            {
                "amount": "0.044537063233516973",
                "from": "0xcf7e21b96a7dae8e1663b5a266fd812cbe973e70",
                "id": 4,
                "isERC1155": false,
                "isERC721": false,
                "isReverted": false,
                "order": 4,
                "to": "0x74de5d4fcbf63e00296fd95d33236b9794016631",
                "token": "0x0ab87046fbb341d058f17cbc4c1133f25a20a52f"
            },
            {
                "amount": "0.171939344963867805",
                "from": "0xdef1c0ded9bec7f1a1670819833240f027b25eff",
                "id": 5,
                "isERC1155": false,
                "isERC721": false,
                "isReverted": false,
                "order": 5,
                "to": "0xcf7e21b96a7dae8e1663b5a266fd812cbe973e70",
                "token": "0xc02aaa39b223fe8d0a0e5c4f27ead9083c756cc2"
            },
            {
                "amount": "0.044537063233516973",
                "from": "0x74de5d4fcbf63e00296fd95d33236b9794016631",
                "id": 6,
                "isERC1155": false,
                "isERC721": false,
                "isReverted": false,
                "order": 6,
                "to": "0x05c4c65873473c13741c31de2d74005832a0a3d8",
                "token": "0x0ab87046fbb341d058f17cbc4c1133f25a20a52f"
            }
        ],
        "token_infos": [
            {
                "address": "0x0ab87046fbb341d058f17cbc4c1133f25a20a52f",
                "decimals": 18
            },
            {
                "address": "0x2e9d63788249371f1dfc918a52f8d799f4a38c94",
                "decimals": 18
            },
            {
                "address": "0xc02aaa39b223fe8d0a0e5c4f27ead9083c756cc2",
                "decimals": 18
            },
            {
                "address": "0xeeeeeeeeeeeeeeeeeeeeeeeeeeeeeeeeeeeeeeee",
                "decimals": 18
            }
        ]
    },
    "address_label": {
        "labels": [
            {
                "address": "0x0000000000000000000000000000000000000004",
                "label": "Precompiled"
            },
            {
                "address": "0x0ab87046fbb341d058f17cbc4c1133f25a20a52f",
                "label": "OlympusDAO: gOHM Token"
            },
            {
                "address": "0x500cb7defd8302f1f97e38ac628e8c2eaf7307b6",
                "label": "Uniswap V3: TOKE"
            },
            {
                "address": "0x0000000000000000000000000000000000000001",
                "label": "Precompiled"
            },
            {
                "address": "0x881d40237659c251811cec9c364ef91dc08d300c",
                "label": "Metamask: Swap Router"
            },
            {
                "address": "0xdef1c0ded9bec7f1a1670819833240f027b25eff",
                "label": "0x: Exchange Proxy"
            },
            {
                "address": "0x0000000000000000000000000000000000000003",
                "label": "Precompiled"
            },
            {
                "address": "0xeeeeeeeeeeeeeeeeeeeeeeeeeeeeeeeeeeeeeeee",
                "label": "Ether"
            },
            {
                "address": "0xcf7e21b96a7dae8e1663b5a266fd812cbe973e70",
                "label": "Uniswap V3: gOHM"
            },
            {
                "address": "0x74de5d4fcbf63e00296fd95d33236b9794016631",
                "label": "MetaMask: Swaps Spender"
            },
            {
                "address": "0x0000000000000000000000000000000000000002",
                "label": "Precompiled"
            },
            {
                "address": "0x2e9d63788249371f1dfc918a52f8d799f4a38c94",
                "label": "Tokemak: TOKE Token"
            },
            {
                "address": "0xc02aaa39b223fe8d0a0e5c4f27ead9083c756cc2",
                "label": "Wrapped Ether (WETH)"
            },
            {
                "address": "0x0000000000000000000000000000000000000000",
                "label": "Null Address"
            },
            {
                "address": "0x0d53497746e70c8cc2e5e8d2ac5f0a33f93c9353",
                "label": "UniswapV3Feature"
            }
        ]
    },
    "trace": {
        "accountLabels": null,
        "dataMap": {
            "-1": {
                "invocation": {
                    "address": "0x05c4c65873473c13741c31de2d74005832a0a3d8",
                    "callData": "",
                    "decodedMethod": null,
                    "errorInfo": "",
                    "fromAddress": "",
                    "gasUsed": 0,
                    "id": -1,
                    "methodDecoded": false,
                    "operation": "",
                    "output": "",
                    "revert": false,
                    "revertMessage": "",
                    "selector": "",
                    "status": false,
                    "value": ""
                },
                "nodeType": 0
            },
            "0": {
                "invocation": {
                    "address": "0x881d40237659c251811cec9c364ef91dc08d300c",
                    "callData": "0x00000000000000000000000000000000000000000000000000000000000000800000000000000000000000002e9d63788249371f1dfc918a52f8d799f4a38c94000000000000000000000000000000000000000000000001074bb2d3fa31607b00000000000000000000000000000000000000000000000000000000000000c0000000000000000000000000000000000000000000000000000000000000000c307846656544796e616d6963000000000000000000000000000000000000000000000000000000000000000000000000000000000000000000000000000002800000000000000000000000002e9d63788249371f1dfc918a52f8d799f4a38c940000000000000000000000000ab87046fbb341d058f17cbc4c1133f25a20a52f000000000000000000000000000000000000000000000001074bb2d3fa31607b000000000000000000000000000000000000000000000000009b15567c9b6f33000000000000000000000000000000000000000000000000000000000000012000000000000000000000000000000000000000000000000000000000000000000000000000000000000000002acf35c9a3f4c5c3f4c78ef5fb64c3ee82f07c45000000000000000000000000000000000000000000000000000000000000000000000000000000000000000000000000000000000000000000000000000001486af479b20000000000000000000000000000000000000000000000000000000000000080000000000000000000000000000000000000000000000001074bb2d3fa31607b000000000000000000000000000000000000000000000000009b15567c9b6f33000000000000000000000000000000000000000000000000000000000000000000000000000000000000000000000000000000000000000000000000000000422e9d63788249371f1dfc918a52f8d799f4a38c94002710c02aaa39b223fe8d0a0e5c4f27ead9083c756cc20027100ab87046fbb341d058f17cbc4c1133f25a20a52f000000000000000000000000000000000000000000000000000000000000869584cd00000000000000000000000011ededebf63bef0ea2d2d071bdf88f71543ec6fb000000000000000000000000000000000000000000000049cc957cd161bdd6420000000000000000000000000000000000000000000000005c",
                    "decodedMethod": {
                        "callParams": [
                            {
                                "name": "aggregatorId",
                                "type": "string",
                                "value": "0xFeeDynamic"
                            },
                            {
                                "name": "tokenFrom",
                                "type": "address",
                                "value": "0x2e9d63788249371f1dfc918a52f8d799f4a38c94"
                            },
                            {
                                "name": "amount",
                                "type": "uint256",
                                "value": "18,972,454,478,733,729,915"
                            },
                            {
                                "name": "data",
                                "type": "bytes",
                                "value": "0x0000000000000000000000002e9d63788249371f1dfc918a52f8d799f4a38c940000000000000000000000000ab87046fbb341d058f17cbc4c1133f25a20a52f000000000000000000000000000000000000000000000001074bb2d3fa31607b000000000000000000000000000000000000000000000000009b15567c9b6f33000000000000000000000000000000000000000000000000000000000000012000000000000000000000000000000000000000000000000000000000000000000000000000000000000000002acf35c9a3f4c5c3f4c78ef5fb64c3ee82f07c45000000000000000000000000000000000000000000000000000000000000000000000000000000000000000000000000000000000000000000000000000001486af479b20000000000000000000000000000000000000000000000000000000000000080000000000000000000000000000000000000000000000001074bb2d3fa31607b000000000000000000000000000000000000000000000000009b15567c9b6f33000000000000000000000000000000000000000000000000000000000000000000000000000000000000000000000000000000000000000000000000000000422e9d63788249371f1dfc918a52f8d799f4a38c94002710c02aaa39b223fe8d0a0e5c4f27ead9083c756cc20027100ab87046fbb341d058f17cbc4c1133f25a20a52f000000000000000000000000000000000000000000000000000000000000869584cd00000000000000000000000011ededebf63bef0ea2d2d071bdf88f71543ec6fb000000000000000000000000000000000000000000000049cc957cd161bdd642000000000000000000000000000000000000000000000000"
                            }
                        ],
                        "constructorArguments": "",
                        "name": "swap",
                        "returnParams": [],
                        "signature": "swap(string,address,uint256,bytes)"
                    },
                    "errorInfo": "",
                    "fromAddress": "0x05c4c65873473c13741c31de2d74005832a0a3d8",
                    "gasUsed": 245801,
                    "id": 0,
                    "methodDecoded": true,
                    "operation": "CALL",
                    "output": "",
                    "revert": false,
                    "revertMessage": "",
                    "selector": "0x5f575529",
                    "status": true,
                    "value": "0"
                },
                "nodeType": 0
            },
            "1": {
                "invocation": {
                    "address": "0x2e9d63788249371f1dfc918a52f8d799f4a38c94",
                    "callData": "0x00000000000000000000000005c4c65873473c13741c31de2d74005832a0a3d800000000000000000000000074de5d4fcbf63e00296fd95d33236b9794016631000000000000000000000000000000000000000000000001074bb2d3fa31607b",
                    "decodedMethod": {
                        "callParams": [
                            {
                                "name": "sender",
                                "type": "address",
                                "value": "0x05c4c65873473c13741c31de2d74005832a0a3d8"
                            },
                            {
                                "name": "recipient",
                                "type": "address",
                                "value": "0x74de5d4fcbf63e00296fd95d33236b9794016631"
                            },
                            {
                                "decimalAvailable": true,
                                "name": "amount",
                                "type": "uint256",
                                "value": "18,972,454,478,733,729,915"
                            }
                        ],
                        "constructorArguments": "",
                        "name": "transferFrom",
                        "returnParams": [
                            {
                                "name": "",
                                "type": "bool",
                                "value": true
                            }
                        ],
                        "signature": "transferFrom(address,address,uint256)"
                    },
                    "errorInfo": "",
                    "fromAddress": "0x881d40237659c251811cec9c364ef91dc08d300c",
                    "gasUsed": 39647,
                    "id": 1,
                    "methodDecoded": true,
                    "operation": "CALL",
                    "output": "0x0000000000000000000000000000000000000000000000000000000000000001",
                    "revert": false,
                    "revertMessage": "",
                    "selector": "0x23b872dd",
                    "status": true,
                    "value": "0"
                },
                "nodeType": 0
            },
            "10": {
                "invocation": {
                    "address": "0xc02aaa39b223fe8d0a0e5c4f27ead9083c756cc2",
                    "callData": "0x000000000000000000000000def1c0ded9bec7f1a1670819833240f027b25eff0000000000000000000000000000000000000000000000000262d9ec5b7c149d",
                    "decodedMethod": {
                        "callParams": [
                            {
                                "name": "dst",
                                "type": "address",
                                "value": "0xdef1c0ded9bec7f1a1670819833240f027b25eff"
                            },
                            {
                                "decimalAvailable": true,
                                "name": "wad",
                                "type": "uint256",
                                "value": "171,939,344,963,867,805"
                            }
                        ],
                        "constructorArguments": "",
                        "name": "transfer",
                        "returnParams": [
                            {
                                "name": "",
                                "type": "bool",
                                "value": true
                            }
                        ],
                        "signature": "transfer(address,uint256)"
                    },
                    "errorInfo": "",
                    "fromAddress": "0x500cb7defd8302f1f97e38ac628e8c2eaf7307b6",
                    "gasUsed": 12862,
                    "id": 10,
                    "methodDecoded": true,
                    "operation": "CALL",
                    "output": "0x0000000000000000000000000000000000000000000000000000000000000001",
                    "revert": false,
                    "revertMessage": "",
                    "selector": "0xa9059cbb",
                    "status": true,
                    "value": "0"
                },
                "nodeType": 0
            },
            "11": {
                "event": {
                    "contract": "0xc02aaa39b223fe8d0a0e5c4f27ead9083c756cc2",
                    "decodedLog": {
                        "name": "Transfer",
                        "params": [
                            {
                                "name": "src",
                                "type": "address",
                                "value": "0x500cb7defd8302f1f97e38ac628e8c2eaf7307b6"
                            },
                            {
                                "name": "dst",
                                "type": "address",
                                "value": "0xdef1c0ded9bec7f1a1670819833240f027b25eff"
                            },
                            {
                                "decimalAvailable": true,
                                "name": "wad",
                                "type": "uint256",
                                "value": "171,939,344,963,867,805"
                            }
                        ],
                        "signature": "Transfer(address,address,uint256)"
                    },
                    "id": 11,
                    "logData": "0x0000000000000000000000000000000000000000000000000262d9ec5b7c149d",
                    "logDecoded": true,
                    "operation": "EVENT",
                    "revert": false,
                    "status": true,
                    "topics": [
                        "0xddf252ad1be2c89b69c2b068fc378daa952ba7f163c4a11628f55a4df523b3ef",
                        "0x000000000000000000000000500cb7defd8302f1f97e38ac628e8c2eaf7307b6",
                        "0x000000000000000000000000def1c0ded9bec7f1a1670819833240f027b25eff"
                    ]
                },
                "nodeType": 1
            },
            "12": {
                "invocation": {
                    "address": "0x2e9d63788249371f1dfc918a52f8d799f4a38c94",
                    "callData": "0x000000000000000000000000500cb7defd8302f1f97e38ac628e8c2eaf7307b6",
                    "decodedMethod": {
                        "callParams": [
                            {
                                "name": "account",
                                "type": "address",
                                "value": "0x500cb7defd8302f1f97e38ac628e8c2eaf7307b6"
                            }
                        ],
                        "constructorArguments": "",
                        "name": "balanceOf",
                        "returnParams": [
                            {
                                "decimalAvailable": true,
                                "name": "",
                                "type": "uint256",
                                "value": "501,868,856,969,939,695,520"
                            }
                        ],
                        "signature": "balanceOf(address)"
                    },
                    "errorInfo": "",
                    "fromAddress": "0x500cb7defd8302f1f97e38ac628e8c2eaf7307b6",
                    "gasUsed": 2444,
                    "id": 12,
                    "methodDecoded": true,
                    "operation": "STATICCALL",
                    "output": "0x00000000000000000000000000000000000000000000001b34d45a662494b7a0",
                    "revert": false,
                    "revertMessage": "",
                    "selector": "0x70a08231",
                    "status": true,
                    "value": "0"
                },
                "nodeType": 0
            },
            "13": {
                "invocation": {
                    "address": "0xdef1c0ded9bec7f1a1670819833240f027b25eff",
                    "callData": "0x000000000000000000000000000000000000000000000001074bb2d3fa31607bfffffffffffffffffffffffffffffffffffffffffffffffffd9d2613a483eb63000000000000000000000000000000000000000000000000000000000000006000000000000000000000000000000000000000000000000000000000000000800000000000000000000000002e9d63788249371f1dfc918a52f8d799f4a38c94000000000000000000000000c02aaa39b223fe8d0a0e5c4f27ead9083c756cc2000000000000000000000000000000000000000000000000000000000000271000000000000000000000000074de5d4fcbf63e00296fd95d33236b9794016631",
                    "decodedMethod": {
                        "callParams": [
                            {
                                "name": "amount0Delta",
                                "type": "int256",
                                "value": "18,972,454,478,733,729,915"
                            },
                            {
                                "name": "amount1Delta",
                                "type": "int256",
                                "value": "-171,939,344,963,867,805"
                            },
                            {
                                "name": "data",
                                "type": "bytes",
                                "value": "0x0000000000000000000000002e9d63788249371f1dfc918a52f8d799f4a38c94000000000000000000000000c02aaa39b223fe8d0a0e5c4f27ead9083c756cc2000000000000000000000000000000000000000000000000000000000000271000000000000000000000000074de5d4fcbf63e00296fd95d33236b9794016631"
                            }
                        ],
                        "constructorArguments": "",
                        "name": "uniswapV3SwapCallback",
                        "returnParams": [],
                        "signature": "uniswapV3SwapCallback(int256,int256,bytes)"
                    },
                    "errorInfo": "",
                    "fromAddress": "0x500cb7defd8302f1f97e38ac628e8c2eaf7307b6",
                    "gasUsed": 16430,
                    "id": 13,
                    "methodDecoded": true,
                    "operation": "CALL",
                    "output": "",
                    "revert": false,
                    "revertMessage": "",
                    "selector": "0xfa461e33",
                    "status": true,
                    "value": "0"
                },
                "nodeType": 0
            },
            "14": {
                "invocation": {
                    "address": "0x0d53497746e70c8cc2e5e8d2ac5f0a33f93c9353",
                    "callData": "0x000000000000000000000000000000000000000000000001074bb2d3fa31607bfffffffffffffffffffffffffffffffffffffffffffffffffd9d2613a483eb63000000000000000000000000000000000000000000000000000000000000006000000000000000000000000000000000000000000000000000000000000000800000000000000000000000002e9d63788249371f1dfc918a52f8d799f4a38c94000000000000000000000000c02aaa39b223fe8d0a0e5c4f27ead9083c756cc2000000000000000000000000000000000000000000000000000000000000271000000000000000000000000074de5d4fcbf63e00296fd95d33236b9794016631",
                    "decodedMethod": {
                        "callParams": [
                            {
                                "name": "amount0Delta",
                                "type": "int256",
                                "value": "18,972,454,478,733,729,915"
                            },
                            {
                                "name": "amount1Delta",
                                "type": "int256",
                                "value": "-171,939,344,963,867,805"
                            },
                            {
                                "name": "data",
                                "type": "bytes",
                                "value": "0x0000000000000000000000002e9d63788249371f1dfc918a52f8d799f4a38c94000000000000000000000000c02aaa39b223fe8d0a0e5c4f27ead9083c756cc2000000000000000000000000000000000000000000000000000000000000271000000000000000000000000074de5d4fcbf63e00296fd95d33236b9794016631"
                            }
                        ],
                        "constructorArguments": "",
                        "name": "uniswapV3SwapCallback",
                        "returnParams": [],
                        "signature": "uniswapV3SwapCallback(int256,int256,bytes)"
                    },
                    "errorInfo": "",
                    "fromAddress": "0xdef1c0ded9bec7f1a1670819833240f027b25eff",
                    "gasUsed": 13258,
                    "id": 14,
                    "methodDecoded": true,
                    "operation": "DELEGATECALL",
                    "output": "",
                    "revert": false,
                    "revertMessage": "",
                    "selector": "0xfa461e33",
                    "status": true,
                    "value": "0"
                },
                "nodeType": 0
            },
            "15": {
                "invocation": {
                    "address": "0x2e9d63788249371f1dfc918a52f8d799f4a38c94",
                    "callData": "0x00000000000000000000000074de5d4fcbf63e00296fd95d33236b9794016631000000000000000000000000500cb7defd8302f1f97e38ac628e8c2eaf7307b6000000000000000000000000000000000000000000000001074bb2d3fa31607b",
                    "decodedMethod": {
                        "callParams": [
                            {
                                "name": "sender",
                                "type": "address",
                                "value": "0x74de5d4fcbf63e00296fd95d33236b9794016631"
                            },
                            {
                                "name": "recipient",
                                "type": "address",
                                "value": "0x500cb7defd8302f1f97e38ac628e8c2eaf7307b6"
                            },
                            {
                                "decimalAvailable": true,
                                "name": "amount",
                                "type": "uint256",
                                "value": "18,972,454,478,733,729,915"
                            }
                        ],
                        "constructorArguments": "",
                        "name": "transferFrom",
                        "returnParams": [
                            {
                                "name": "",
                                "type": "bool",
                                "value": true
                            }
                        ],
                        "signature": "transferFrom(address,address,uint256)"
                    },
                    "errorInfo": "",
                    "fromAddress": "0xdef1c0ded9bec7f1a1670819833240f027b25eff",
                    "gasUsed": 11747,
                    "id": 15,
                    "methodDecoded": true,
                    "operation": "CALL",
                    "output": "0x0000000000000000000000000000000000000000000000000000000000000001",
                    "revert": false,
                    "revertMessage": "",
                    "selector": "0x23b872dd",
                    "status": true,
                    "value": "0"
                },
                "nodeType": 0
            },
            "16": {
                "event": {
                    "contract": "0x2e9d63788249371f1dfc918a52f8d799f4a38c94",
                    "decodedLog": {
                        "name": "Transfer",
                        "params": [
                            {
                                "name": "from",
                                "type": "address",
                                "value": "0x74de5d4fcbf63e00296fd95d33236b9794016631"
                            },
                            {
                                "name": "to",
                                "type": "address",
                                "value": "0x500cb7defd8302f1f97e38ac628e8c2eaf7307b6"
                            },
                            {
                                "decimalAvailable": true,
                                "name": "value",
                                "type": "uint256",
                                "value": "18,972,454,478,733,729,915"
                            }
                        ],
                        "signature": "Transfer(address,address,uint256)"
                    },
                    "id": 16,
                    "logData": "0x000000000000000000000000000000000000000000000001074bb2d3fa31607b",
                    "logDecoded": true,
                    "operation": "EVENT",
                    "revert": false,
                    "status": true,
                    "topics": [
                        "0xddf252ad1be2c89b69c2b068fc378daa952ba7f163c4a11628f55a4df523b3ef",
                        "0x00000000000000000000000074de5d4fcbf63e00296fd95d33236b9794016631",
                        "0x000000000000000000000000500cb7defd8302f1f97e38ac628e8c2eaf7307b6"
                    ]
                },
                "nodeType": 1
            },
            "17": {
                "event": {
                    "contract": "0x2e9d63788249371f1dfc918a52f8d799f4a38c94",
                    "decodedLog": {
                        "name": "Approval",
                        "params": [
                            {
                                "name": "owner",
                                "type": "address",
                                "value": "0x74de5d4fcbf63e00296fd95d33236b9794016631"
                            },
                            {
                                "name": "spender",
                                "type": "address",
                                "value": "0xdef1c0ded9bec7f1a1670819833240f027b25eff"
                            },
                            {
                                "decimalAvailable": true,
                                "name": "value",
                                "type": "uint256",
                                "value": "115,792,089,237,316,195,423,570,985,008,687,907,853,269,984,665,640,563,979,149,253,704,034,716,895,927"
                            }
                        ],
                        "signature": "Approval(address,address,uint256)"
                    },
                    "id": 17,
                    "logData": "0xfffffffffffffffffffffffffffffffffffffffffffff33aadc9fbd9d1764ab7",
                    "logDecoded": true,
                    "operation": "EVENT",
                    "revert": false,
                    "status": true,
                    "topics": [
                        "0x8c5be1e5ebec7d5bd14f71427d1e84f3dd0314c0f7b2291e5b200ac8c7c3b925",
                        "0x00000000000000000000000074de5d4fcbf63e00296fd95d33236b9794016631",
                        "0x000000000000000000000000def1c0ded9bec7f1a1670819833240f027b25eff"
                    ]
                },
                "nodeType": 1
            },
            "18": {
                "invocation": {
                    "address": "0x2e9d63788249371f1dfc918a52f8d799f4a38c94",
                    "callData": "0x000000000000000000000000500cb7defd8302f1f97e38ac628e8c2eaf7307b6",
                    "decodedMethod": {
                        "callParams": [
                            {
                                "name": "account",
                                "type": "address",
                                "value": "0x500cb7defd8302f1f97e38ac628e8c2eaf7307b6"
                            }
                        ],
                        "constructorArguments": "",
                        "name": "balanceOf",
                        "returnParams": [
                            {
                                "decimalAvailable": true,
                                "name": "",
                                "type": "uint256",
                                "value": "520,841,311,448,673,425,435"
                            }
                        ],
                        "signature": "balanceOf(address)"
                    },
                    "errorInfo": "",
                    "fromAddress": "0x500cb7defd8302f1f97e38ac628e8c2eaf7307b6",
                    "gasUsed": 444,
                    "id": 18,
                    "methodDecoded": true,
                    "operation": "STATICCALL",
                    "output": "0x00000000000000000000000000000000000000000000001c3c200d3a1ec6181b",
                    "revert": false,
                    "revertMessage": "",
                    "selector": "0x70a08231",
                    "status": true,
                    "value": "0"
                },
                "nodeType": 0
            },
            "19": {
                "event": {
                    "contract": "0x500cb7defd8302f1f97e38ac628e8c2eaf7307b6",
                    "decodedLog": {
                        "name": "Swap",
                        "params": [
                            {
                                "name": "sender",
                                "type": "address",
                                "value": "0xdef1c0ded9bec7f1a1670819833240f027b25eff"
                            },
                            {
                                "name": "recipient",
                                "type": "address",
                                "value": "0xdef1c0ded9bec7f1a1670819833240f027b25eff"
                            },
                            {
                                "name": "amount0",
                                "type": "int256",
                                "value": "18,972,454,478,733,729,915"
                            },
                            {
                                "name": "amount1",
                                "type": "int256",
                                "value": "-171,939,344,963,867,805"
                            },
                            {
                                "name": "sqrtPriceX96",
                                "type": "uint160",
                                "value": "7,518,373,793,318,743,552,365,775,201"
                            },
                            {
                                "name": "liquidity",
                                "type": "uint128",
                                "value": "109,492,714,529,367,570,883"
                            },
                            {
                                "name": "tick",
                                "type": "int24",
                                "value": "-47,102"
                            }
                        ],
                        "signature": "Swap(address,address,int256,int256,uint160,uint128,int24)"
                    },
                    "id": 19,
                    "logData": "0x000000000000000000000000000000000000000000000001074bb2d3fa31607bfffffffffffffffffffffffffffffffffffffffffffffffffd9d2613a483eb630000000000000000000000000000000000000000184b0d940382b5df77194961000000000000000000000000000000000000000000000005ef8443bf4834b9c3ffffffffffffffffffffffffffffffffffffffffffffffffffffffffffff4802",
                    "logDecoded": true,
                    "operation": "EVENT",
                    "revert": false,
                    "status": true,
                    "topics": [
                        "0xc42079f94a6350d7e6235f29174924f928cc2ac818eb64fed8004e115fbcca67",
                        "0x000000000000000000000000def1c0ded9bec7f1a1670819833240f027b25eff",
                        "0x000000000000000000000000def1c0ded9bec7f1a1670819833240f027b25eff"
                    ]
                },
                "nodeType": 1
            },
            "2": {
                "event": {
                    "contract": "0x2e9d63788249371f1dfc918a52f8d799f4a38c94",
                    "decodedLog": {
                        "name": "Transfer",
                        "params": [
                            {
                                "name": "from",
                                "type": "address",
                                "value": "0x05c4c65873473c13741c31de2d74005832a0a3d8"
                            },
                            {
                                "name": "to",
                                "type": "address",
                                "value": "0x74de5d4fcbf63e00296fd95d33236b9794016631"
                            },
                            {
                                "decimalAvailable": true,
                                "name": "value",
                                "type": "uint256",
                                "value": "18,972,454,478,733,729,915"
                            }
                        ],
                        "signature": "Transfer(address,address,uint256)"
                    },
                    "id": 2,
                    "logData": "0x000000000000000000000000000000000000000000000001074bb2d3fa31607b",
                    "logDecoded": true,
                    "operation": "EVENT",
                    "revert": false,
                    "status": true,
                    "topics": [
                        "0xddf252ad1be2c89b69c2b068fc378daa952ba7f163c4a11628f55a4df523b3ef",
                        "0x00000000000000000000000005c4c65873473c13741c31de2d74005832a0a3d8",
                        "0x00000000000000000000000074de5d4fcbf63e00296fd95d33236b9794016631"
                    ]
                },
                "nodeType": 1
            },
            "20": {
                "invocation": {
                    "address": "0xcf7e21b96a7dae8e1663b5a266fd812cbe973e70",
                    "callData": "0x00000000000000000000000074de5d4fcbf63e00296fd95d33236b979401663100000000000000000000000000000000000000000000000000000000000000000000000000000000000000000000000000000000000000000262d9ec5b7c149d000000000000000000000000fffd8963efd1fc6a506488495d951d5263988d2500000000000000000000000000000000000000000000000000000000000000a00000000000000000000000000000000000000000000000000000000000000080000000000000000000000000c02aaa39b223fe8d0a0e5c4f27ead9083c756cc20000000000000000000000000ab87046fbb341d058f17cbc4c1133f25a20a52f0000000000000000000000000000000000000000000000000000000000002710000000000000000000000000def1c0ded9bec7f1a1670819833240f027b25eff",
                    "decodedMethod": {
                        "callParams": [
                            {
                                "name": "recipient",
                                "type": "address",
                                "value": "0x74de5d4fcbf63e00296fd95d33236b9794016631"
                            },
                            {
                                "name": "zeroForOne",
                                "type": "bool",
                                "value": false
                            },
                            {
                                "name": "amountSpecified",
                                "type": "int256",
                                "value": "171,939,344,963,867,805"
                            },
                            {
                                "name": "sqrtPriceLimitX96",
                                "type": "uint160",
                                "value": "1,461,446,703,485,210,103,287,273,052,203,988,822,378,723,970,341"
                            },
                            {
                                "name": "data",
                                "type": "bytes",
                                "value": "0x000000000000000000000000c02aaa39b223fe8d0a0e5c4f27ead9083c756cc20000000000000000000000000ab87046fbb341d058f17cbc4c1133f25a20a52f0000000000000000000000000000000000000000000000000000000000002710000000000000000000000000def1c0ded9bec7f1a1670819833240f027b25eff"
                            }
                        ],
                        "constructorArguments": "",
                        "name": "swap",
                        "returnParams": [
                            {
                                "name": "amount0",
                                "type": "int256",
                                "value": "-44,537,063,233,516,973"
                            },
                            {
                                "name": "amount1",
                                "type": "int256",
                                "value": "171,939,344,963,867,805"
                            }
                        ],
                        "signature": "swap(address,bool,int256,uint160,bytes)"
                    },
                    "errorInfo": "",
                    "fromAddress": "0xdef1c0ded9bec7f1a1670819833240f027b25eff",
                    "gasUsed": 87690,
                    "id": 20,
                    "methodDecoded": true,
                    "operation": "CALL",
                    "output": "0xffffffffffffffffffffffffffffffffffffffffffffffffff61c5c6e6a08a530000000000000000000000000000000000000000000000000262d9ec5b7c149d",
                    "revert": false,
                    "revertMessage": "",
                    "selector": "0x128acb08",
                    "status": true,
                    "value": "0"
                },
                "nodeType": 0
            },
            "21": {
                "invocation": {
                    "address": "0x0ab87046fbb341d058f17cbc4c1133f25a20a52f",
                    "callData": "0x00000000000000000000000074de5d4fcbf63e00296fd95d33236b9794016631000000000000000000000000000000000000000000000000009e3a39195f75ad",
                    "decodedMethod": {
                        "callParams": [
                            {
                                "name": "recipient",
                                "type": "address",
                                "value": "0x74de5d4fcbf63e00296fd95d33236b9794016631"
                            },
                            {
                                "decimalAvailable": true,
                                "name": "amount",
                                "type": "uint256",
                                "value": "44,537,063,233,516,973"
                            }
                        ],
                        "constructorArguments": "",
                        "name": "transfer",
                        "returnParams": [
                            {
                                "name": "",
                                "type": "bool",
                                "value": true
                            }
                        ],
                        "signature": "transfer(address,uint256)"
                    },
                    "errorInfo": "",
                    "fromAddress": "0xcf7e21b96a7dae8e1663b5a266fd812cbe973e70",
                    "gasUsed": 34724,
                    "id": 21,
                    "methodDecoded": true,
                    "operation": "CALL",
                    "output": "0x0000000000000000000000000000000000000000000000000000000000000001",
                    "revert": false,
                    "revertMessage": "",
                    "selector": "0xa9059cbb",
                    "status": true,
                    "value": "0"
                },
                "nodeType": 0
            },
            "22": {
                "event": {
                    "contract": "0x0ab87046fbb341d058f17cbc4c1133f25a20a52f",
                    "decodedLog": {
                        "name": "Transfer",
                        "params": [
                            {
                                "name": "from",
                                "type": "address",
                                "value": "0xcf7e21b96a7dae8e1663b5a266fd812cbe973e70"
                            },
                            {
                                "name": "to",
                                "type": "address",
                                "value": "0x74de5d4fcbf63e00296fd95d33236b9794016631"
                            },
                            {
                                "decimalAvailable": true,
                                "name": "value",
                                "type": "uint256",
                                "value": "44,537,063,233,516,973"
                            }
                        ],
                        "signature": "Transfer(address,address,uint256)"
                    },
                    "id": 22,
                    "logData": "0x000000000000000000000000000000000000000000000000009e3a39195f75ad",
                    "logDecoded": true,
                    "operation": "EVENT",
                    "revert": false,
                    "status": true,
                    "topics": [
                        "0xddf252ad1be2c89b69c2b068fc378daa952ba7f163c4a11628f55a4df523b3ef",
                        "0x000000000000000000000000cf7e21b96a7dae8e1663b5a266fd812cbe973e70",
                        "0x00000000000000000000000074de5d4fcbf63e00296fd95d33236b9794016631"
                    ]
                },
                "nodeType": 1
            },
            "23": {
                "invocation": {
                    "address": "0xc02aaa39b223fe8d0a0e5c4f27ead9083c756cc2",
                    "callData": "0x000000000000000000000000cf7e21b96a7dae8e1663b5a266fd812cbe973e70",
                    "decodedMethod": {
                        "callParams": [
                            {
                                "name": "",
                                "type": "address",
                                "value": "0xcf7e21b96a7dae8e1663b5a266fd812cbe973e70"
                            }
                        ],
                        "constructorArguments": "",
                        "name": "balanceOf",
                        "returnParams": [
                            {
                                "decimalAvailable": true,
                                "name": "",
                                "type": "uint256",
                                "value": "196,045,106,807,904,958,352"
                            }
                        ],
                        "signature": "balanceOf(address)"
                    },
                    "errorInfo": "",
                    "fromAddress": "0xcf7e21b96a7dae8e1663b5a266fd812cbe973e70",
                    "gasUsed": 2534,
                    "id": 23,
                    "methodDecoded": true,
                    "operation": "STATICCALL",
                    "output": "0x00000000000000000000000000000000000000000000000aa0ac21f346b07790",
                    "revert": false,
                    "revertMessage": "",
                    "selector": "0x70a08231",
                    "status": true,
                    "value": "0"
                },
                "nodeType": 0
            },
            "24": {
                "invocation": {
                    "address": "0xdef1c0ded9bec7f1a1670819833240f027b25eff",
                    "callData": "0xffffffffffffffffffffffffffffffffffffffffffffffffff61c5c6e6a08a530000000000000000000000000000000000000000000000000262d9ec5b7c149d00000000000000000000000000000000000000000000000000000000000000600000000000000000000000000000000000000000000000000000000000000080000000000000000000000000c02aaa39b223fe8d0a0e5c4f27ead9083c756cc20000000000000000000000000ab87046fbb341d058f17cbc4c1133f25a20a52f0000000000000000000000000000000000000000000000000000000000002710000000000000000000000000def1c0ded9bec7f1a1670819833240f027b25eff",
                    "decodedMethod": {
                        "callParams": [
                            {
                                "name": "amount0Delta",
                                "type": "int256",
                                "value": "-44,537,063,233,516,973"
                            },
                            {
                                "name": "amount1Delta",
                                "type": "int256",
                                "value": "171,939,344,963,867,805"
                            },
                            {
                                "name": "data",
                                "type": "bytes",
                                "value": "0x000000000000000000000000c02aaa39b223fe8d0a0e5c4f27ead9083c756cc20000000000000000000000000ab87046fbb341d058f17cbc4c1133f25a20a52f0000000000000000000000000000000000000000000000000000000000002710000000000000000000000000def1c0ded9bec7f1a1670819833240f027b25eff"
                            }
                        ],
                        "constructorArguments": "",
                        "name": "uniswapV3SwapCallback",
                        "returnParams": [],
                        "signature": "uniswapV3SwapCallback(int256,int256,bytes)"
                    },
                    "errorInfo": "",
                    "fromAddress": "0xcf7e21b96a7dae8e1663b5a266fd812cbe973e70",
                    "gasUsed": 8744,
                    "id": 24,
                    "methodDecoded": true,
                    "operation": "CALL",
                    "output": "",
                    "revert": false,
                    "revertMessage": "",
                    "selector": "0xfa461e33",
                    "status": true,
                    "value": "0"
                },
                "nodeType": 0
            },
            "25": {
                "invocation": {
                    "address": "0x0d53497746e70c8cc2e5e8d2ac5f0a33f93c9353",
                    "callData": "0xffffffffffffffffffffffffffffffffffffffffffffffffff61c5c6e6a08a530000000000000000000000000000000000000000000000000262d9ec5b7c149d00000000000000000000000000000000000000000000000000000000000000600000000000000000000000000000000000000000000000000000000000000080000000000000000000000000c02aaa39b223fe8d0a0e5c4f27ead9083c756cc20000000000000000000000000ab87046fbb341d058f17cbc4c1133f25a20a52f0000000000000000000000000000000000000000000000000000000000002710000000000000000000000000def1c0ded9bec7f1a1670819833240f027b25eff",
                    "decodedMethod": {
                        "callParams": [
                            {
                                "name": "amount0Delta",
                                "type": "int256",
                                "value": "-44,537,063,233,516,973"
                            },
                            {
                                "name": "amount1Delta",
                                "type": "int256",
                                "value": "171,939,344,963,867,805"
                            },
                            {
                                "name": "data",
                                "type": "bytes",
                                "value": "0x000000000000000000000000c02aaa39b223fe8d0a0e5c4f27ead9083c756cc20000000000000000000000000ab87046fbb341d058f17cbc4c1133f25a20a52f0000000000000000000000000000000000000000000000000000000000002710000000000000000000000000def1c0ded9bec7f1a1670819833240f027b25eff"
                            }
                        ],
                        "constructorArguments": "",
                        "name": "uniswapV3SwapCallback",
                        "returnParams": [],
                        "signature": "uniswapV3SwapCallback(int256,int256,bytes)"
                    },
                    "errorInfo": "",
                    "fromAddress": "0xdef1c0ded9bec7f1a1670819833240f027b25eff",
                    "gasUsed": 7572,
                    "id": 25,
                    "methodDecoded": true,
                    "operation": "DELEGATECALL",
                    "output": "",
                    "revert": false,
                    "revertMessage": "",
                    "selector": "0xfa461e33",
                    "status": true,
                    "value": "0"
                },
                "nodeType": 0
            },
            "26": {
                "invocation": {
                    "address": "0xc02aaa39b223fe8d0a0e5c4f27ead9083c756cc2",
                    "callData": "0x000000000000000000000000cf7e21b96a7dae8e1663b5a266fd812cbe973e700000000000000000000000000000000000000000000000000262d9ec5b7c149d",
                    "decodedMethod": {
                        "callParams": [
                            {
                                "name": "dst",
                                "type": "address",
                                "value": "0xcf7e21b96a7dae8e1663b5a266fd812cbe973e70"
                            },
                            {
                                "decimalAvailable": true,
                                "name": "wad",
                                "type": "uint256",
                                "value": "171,939,344,963,867,805"
                            }
                        ],
                        "constructorArguments": "",
                        "name": "transfer",
                        "returnParams": [
                            {
                                "name": "",
                                "type": "bool",
                                "value": true
                            }
                        ],
                        "signature": "transfer(address,uint256)"
                    },
                    "errorInfo": "",
                    "fromAddress": "0xdef1c0ded9bec7f1a1670819833240f027b25eff",
                    "gasUsed": 6062,
                    "id": 26,
                    "methodDecoded": true,
                    "operation": "CALL",
                    "output": "0x0000000000000000000000000000000000000000000000000000000000000001",
                    "revert": false,
                    "revertMessage": "",
                    "selector": "0xa9059cbb",
                    "status": true,
                    "value": "0"
                },
                "nodeType": 0
            },
            "27": {
                "event": {
                    "contract": "0xc02aaa39b223fe8d0a0e5c4f27ead9083c756cc2",
                    "decodedLog": {
                        "name": "Transfer",
                        "params": [
                            {
                                "name": "src",
                                "type": "address",
                                "value": "0xdef1c0ded9bec7f1a1670819833240f027b25eff"
                            },
                            {
                                "name": "dst",
                                "type": "address",
                                "value": "0xcf7e21b96a7dae8e1663b5a266fd812cbe973e70"
                            },
                            {
                                "decimalAvailable": true,
                                "name": "wad",
                                "type": "uint256",
                                "value": "171,939,344,963,867,805"
                            }
                        ],
                        "signature": "Transfer(address,address,uint256)"
                    },
                    "id": 27,
                    "logData": "0x0000000000000000000000000000000000000000000000000262d9ec5b7c149d",
                    "logDecoded": true,
                    "operation": "EVENT",
                    "revert": false,
                    "status": true,
                    "topics": [
                        "0xddf252ad1be2c89b69c2b068fc378daa952ba7f163c4a11628f55a4df523b3ef",
                        "0x000000000000000000000000def1c0ded9bec7f1a1670819833240f027b25eff",
                        "0x000000000000000000000000cf7e21b96a7dae8e1663b5a266fd812cbe973e70"
                    ]
                },
                "nodeType": 1
            },
            "28": {
                "invocation": {
                    "address": "0xc02aaa39b223fe8d0a0e5c4f27ead9083c756cc2",
                    "callData": "0x000000000000000000000000cf7e21b96a7dae8e1663b5a266fd812cbe973e70",
                    "decodedMethod": {
                        "callParams": [
                            {
                                "name": "",
                                "type": "address",
                                "value": "0xcf7e21b96a7dae8e1663b5a266fd812cbe973e70"
                            }
                        ],
                        "constructorArguments": "",
                        "name": "balanceOf",
                        "returnParams": [
                            {
                                "decimalAvailable": true,
                                "name": "",
                                "type": "uint256",
                                "value": "196,217,046,152,868,826,157"
                            }
                        ],
                        "signature": "balanceOf(address)"
                    },
                    "errorInfo": "",
                    "fromAddress": "0xcf7e21b96a7dae8e1663b5a266fd812cbe973e70",
                    "gasUsed": 534,
                    "id": 28,
                    "methodDecoded": true,
                    "operation": "STATICCALL",
                    "output": "0x00000000000000000000000000000000000000000000000aa30efbdfa22c8c2d",
                    "revert": false,
                    "revertMessage": "",
                    "selector": "0x70a08231",
                    "status": true,
                    "value": "0"
                },
                "nodeType": 0
            },
            "29": {
                "event": {
                    "contract": "0xcf7e21b96a7dae8e1663b5a266fd812cbe973e70",
                    "decodedLog": {
                        "name": "Swap",
                        "params": [
                            {
                                "name": "sender",
                                "type": "address",
                                "value": "0xdef1c0ded9bec7f1a1670819833240f027b25eff"
                            },
                            {
                                "name": "recipient",
                                "type": "address",
                                "value": "0x74de5d4fcbf63e00296fd95d33236b9794016631"
                            },
                            {
                                "name": "amount0",
                                "type": "int256",
                                "value": "-44,537,063,233,516,973"
                            },
                            {
                                "name": "amount1",
                                "type": "int256",
                                "value": "171,939,344,963,867,805"
                            },
                            {
                                "name": "sqrtPriceX96",
                                "type": "uint160",
                                "value": "154,894,624,101,531,175,726,146,996,059"
                            },
                            {
                                "name": "liquidity",
                                "type": "uint128",
                                "value": "1,534,871,105,874,116,024,578"
                            },
                            {
                                "name": "tick",
                                "type": "int24",
                                "value": "13,408"
                            }
                        ],
                        "signature": "Swap(address,address,int256,int256,uint160,uint128,int24)"
                    },
                    "id": 29,
                    "logData": "0xffffffffffffffffffffffffffffffffffffffffffffffffff61c5c6e6a08a530000000000000000000000000000000000000000000000000262d9ec5b7c149d0000000000000000000000000000000000000001f47dd47ddc3b8f2db4c1475b000000000000000000000000000000000000000000000053349d92b265a919020000000000000000000000000000000000000000000000000000000000003460",
                    "logDecoded": true,
                    "operation": "EVENT",
                    "revert": false,
                    "status": true,
                    "topics": [
                        "0xc42079f94a6350d7e6235f29174924f928cc2ac818eb64fed8004e115fbcca67",
                        "0x000000000000000000000000def1c0ded9bec7f1a1670819833240f027b25eff",
                        "0x00000000000000000000000074de5d4fcbf63e00296fd95d33236b9794016631"
                    ]
                },
                "nodeType": 1
            },
            "3": {
                "event": {
                    "contract": "0x2e9d63788249371f1dfc918a52f8d799f4a38c94",
                    "decodedLog": {
                        "name": "Approval",
                        "params": [
                            {
                                "name": "owner",
                                "type": "address",
                                "value": "0x05c4c65873473c13741c31de2d74005832a0a3d8"
                            },
                            {
                                "name": "spender",
                                "type": "address",
                                "value": "0x881d40237659c251811cec9c364ef91dc08d300c"
                            },
                            {
                                "decimalAvailable": true,
                                "name": "value",
                                "type": "uint256",
                                "value": "115,792,089,237,316,195,423,570,985,008,687,907,853,269,984,665,640,564,039,343,360,790,877,225,967,199"
                            }
                        ],
                        "signature": "Approval(address,address,uint256)"
                    },
                    "id": 3,
                    "logData": "0xfffffffffffffffffffffffffffffffffffffffffffffff9ced59d49509d5e5f",
                    "logDecoded": true,
                    "operation": "EVENT",
                    "revert": false,
                    "status": true,
                    "topics": [
                        "0x8c5be1e5ebec7d5bd14f71427d1e84f3dd0314c0f7b2291e5b200ac8c7c3b925",
                        "0x00000000000000000000000005c4c65873473c13741c31de2d74005832a0a3d8",
                        "0x000000000000000000000000881d40237659c251811cec9c364ef91dc08d300c"
                    ]
                },
                "nodeType": 1
            },
            "30": {
                "invocation": {
                    "address": "0x2e9d63788249371f1dfc918a52f8d799f4a38c94",
                    "callData": "0x00000000000000000000000074de5d4fcbf63e00296fd95d33236b9794016631",
                    "decodedMethod": {
                        "callParams": [
                            {
                                "name": "account",
                                "type": "address",
                                "value": "0x74de5d4fcbf63e00296fd95d33236b9794016631"
                            }
                        ],
                        "constructorArguments": "",
                        "name": "balanceOf",
                        "returnParams": [
                            {
                                "decimalAvailable": true,
                                "name": "",
                                "type": "uint256",
                                "value": "0"
                            }
                        ],
                        "signature": "balanceOf(address)"
                    },
                    "errorInfo": "",
                    "fromAddress": "0x74de5d4fcbf63e00296fd95d33236b9794016631",
                    "gasUsed": 444,
                    "id": 30,
                    "methodDecoded": true,
                    "operation": "STATICCALL",
                    "output": "0x0000000000000000000000000000000000000000000000000000000000000000",
                    "revert": false,
                    "revertMessage": "",
                    "selector": "0x70a08231",
                    "status": true,
                    "value": "0"
                },
                "nodeType": 0
            },
            "31": {
                "invocation": {
                    "address": "0x0ab87046fbb341d058f17cbc4c1133f25a20a52f",
                    "callData": "0x00000000000000000000000074de5d4fcbf63e00296fd95d33236b9794016631",
                    "decodedMethod": {
                        "callParams": [
                            {
                                "name": "account",
                                "type": "address",
                                "value": "0x74de5d4fcbf63e00296fd95d33236b9794016631"
                            }
                        ],
                        "constructorArguments": "",
                        "name": "balanceOf",
                        "returnParams": [
                            {
                                "decimalAvailable": true,
                                "name": "",
                                "type": "uint256",
                                "value": "44,537,063,233,516,973"
                            }
                        ],
                        "signature": "balanceOf(address)"
                    },
                    "errorInfo": "",
                    "fromAddress": "0x74de5d4fcbf63e00296fd95d33236b9794016631",
                    "gasUsed": 607,
                    "id": 31,
                    "methodDecoded": true,
                    "operation": "STATICCALL",
                    "output": "0x000000000000000000000000000000000000000000000000009e3a39195f75ad",
                    "revert": false,
                    "revertMessage": "",
                    "selector": "0x70a08231",
                    "status": true,
                    "value": "0"
                },
                "nodeType": 0
            },
            "32": {
                "invocation": {
                    "address": "0x0ab87046fbb341d058f17cbc4c1133f25a20a52f",
                    "callData": "0x00000000000000000000000005c4c65873473c13741c31de2d74005832a0a3d8000000000000000000000000000000000000000000000000009e3a39195f75ad",
                    "decodedMethod": {
                        "callParams": [
                            {
                                "name": "recipient",
                                "type": "address",
                                "value": "0x05c4c65873473c13741c31de2d74005832a0a3d8"
                            },
                            {
                                "decimalAvailable": true,
                                "name": "amount",
                                "type": "uint256",
                                "value": "44,537,063,233,516,973"
                            }
                        ],
                        "constructorArguments": "",
                        "name": "transfer",
                        "returnParams": [
                            {
                                "name": "",
                                "type": "bool",
                                "value": true
                            }
                        ],
                        "signature": "transfer(address,uint256)"
                    },
                    "errorInfo": "",
                    "fromAddress": "0x74de5d4fcbf63e00296fd95d33236b9794016631",
                    "gasUsed": 10824,
                    "id": 32,
                    "methodDecoded": true,
                    "operation": "CALL",
                    "output": "0x0000000000000000000000000000000000000000000000000000000000000001",
                    "revert": false,
                    "revertMessage": "",
                    "selector": "0xa9059cbb",
                    "status": true,
                    "value": "0"
                },
                "nodeType": 0
            },
            "33": {
                "event": {
                    "contract": "0x0ab87046fbb341d058f17cbc4c1133f25a20a52f",
                    "decodedLog": {
                        "name": "Transfer",
                        "params": [
                            {
                                "name": "from",
                                "type": "address",
                                "value": "0x74de5d4fcbf63e00296fd95d33236b9794016631"
                            },
                            {
                                "name": "to",
                                "type": "address",
                                "value": "0x05c4c65873473c13741c31de2d74005832a0a3d8"
                            },
                            {
                                "decimalAvailable": true,
                                "name": "value",
                                "type": "uint256",
                                "value": "44,537,063,233,516,973"
                            }
                        ],
                        "signature": "Transfer(address,address,uint256)"
                    },
                    "id": 33,
                    "logData": "0x000000000000000000000000000000000000000000000000009e3a39195f75ad",
                    "logDecoded": true,
                    "operation": "EVENT",
                    "revert": false,
                    "status": true,
                    "topics": [
                        "0xddf252ad1be2c89b69c2b068fc378daa952ba7f163c4a11628f55a4df523b3ef",
                        "0x00000000000000000000000074de5d4fcbf63e00296fd95d33236b9794016631",
                        "0x00000000000000000000000005c4c65873473c13741c31de2d74005832a0a3d8"
                    ]
                },
                "nodeType": 1
            },
            "34": {
                "event": {
                    "contract": "0x881d40237659c251811cec9c364ef91dc08d300c",
                    "decodedLog": {
                        "name": "Swap",
                        "params": [
                            {
                                "name": "aggregatorId",
                                "type": "string",
                                "value": "0xa8dc30b66c6d4a8aac3d15925bfca09e42cac4a00c50f9949154b045088e2ac2"
                            },
                            {
                                "name": "sender",
                                "type": "address",
                                "value": "0x05c4c65873473c13741c31de2d74005832a0a3d8"
                            }
                        ],
                        "signature": "Swap(string,address)"
                    },
                    "id": 34,
                    "logData": "0x",
                    "logDecoded": true,
                    "operation": "EVENT",
                    "revert": false,
                    "status": true,
                    "topics": [
                        "0xbeee1e6e7fe307ddcf84b0a16137a4430ad5e2480fc4f4a8e250ab56ccd7630d",
                        "0xa8dc30b66c6d4a8aac3d15925bfca09e42cac4a00c50f9949154b045088e2ac2",
                        "0x00000000000000000000000005c4c65873473c13741c31de2d74005832a0a3d8"
                    ]
                },
                "nodeType": 1
            },
            "4": {
                "invocation": {
                    "address": "0x74de5d4fcbf63e00296fd95d33236b9794016631",
                    "callData": "0x0000000000000000000000003d1d55c23dfc759c5ae48500ca88ddf477b3c9e5000000000000000000000000000000000000000000000000000000000000004000000000000000000000000000000000000000000000000000000000000002a492f5f03700000000000000000000000005c4c65873473c13741c31de2d74005832a0a3d80000000000000000000000002e9d63788249371f1dfc918a52f8d799f4a38c940000000000000000000000000ab87046fbb341d058f17cbc4c1133f25a20a52f000000000000000000000000000000000000000000000001074bb2d3fa31607b000000000000000000000000000000000000000000000000009b15567c9b6f33000000000000000000000000000000000000000000000000000000000000012000000000000000000000000000000000000000000000000000000000000000000000000000000000000000002acf35c9a3f4c5c3f4c78ef5fb64c3ee82f07c45000000000000000000000000000000000000000000000000000000000000000000000000000000000000000000000000000000000000000000000000000001486af479b20000000000000000000000000000000000000000000000000000000000000080000000000000000000000000000000000000000000000001074bb2d3fa31607b000000000000000000000000000000000000000000000000009b15567c9b6f33000000000000000000000000000000000000000000000000000000000000000000000000000000000000000000000000000000000000000000000000000000422e9d63788249371f1dfc918a52f8d799f4a38c94002710c02aaa39b223fe8d0a0e5c4f27ead9083c756cc20027100ab87046fbb341d058f17cbc4c1133f25a20a52f000000000000000000000000000000000000000000000000000000000000869584cd00000000000000000000000011ededebf63bef0ea2d2d071bdf88f71543ec6fb000000000000000000000000000000000000000000000049cc957cd161bdd64200000000000000000000000000000000000000000000000000000000000000000000000000000000000000000000000000000000",
                    "decodedMethod": {
                        "callParams": [
                            {
                                "name": "adapter",
                                "type": "address",
                                "value": "0x3d1d55c23dfc759c5ae48500ca88ddf477b3c9e5"
                            },
                            {
                                "name": "data",
                                "type": "bytes",
                                "value": "0x92f5f03700000000000000000000000005c4c65873473c13741c31de2d74005832a0a3d80000000000000000000000002e9d63788249371f1dfc918a52f8d799f4a38c940000000000000000000000000ab87046fbb341d058f17cbc4c1133f25a20a52f000000000000000000000000000000000000000000000001074bb2d3fa31607b000000000000000000000000000000000000000000000000009b15567c9b6f33000000000000000000000000000000000000000000000000000000000000012000000000000000000000000000000000000000000000000000000000000000000000000000000000000000002acf35c9a3f4c5c3f4c78ef5fb64c3ee82f07c45000000000000000000000000000000000000000000000000000000000000000000000000000000000000000000000000000000000000000000000000000001486af479b20000000000000000000000000000000000000000000000000000000000000080000000000000000000000000000000000000000000000001074bb2d3fa31607b000000000000000000000000000000000000000000000000009b15567c9b6f33000000000000000000000000000000000000000000000000000000000000000000000000000000000000000000000000000000000000000000000000000000422e9d63788249371f1dfc918a52f8d799f4a38c94002710c02aaa39b223fe8d0a0e5c4f27ead9083c756cc20027100ab87046fbb341d058f17cbc4c1133f25a20a52f000000000000000000000000000000000000000000000000000000000000869584cd00000000000000000000000011ededebf63bef0ea2d2d071bdf88f71543ec6fb000000000000000000000000000000000000000000000049cc957cd161bdd642000000000000000000000000000000000000000000000000"
                            }
                        ],
                        "constructorArguments": "",
                        "name": "swap",
                        "returnParams": [],
                        "signature": "swap(address,bytes)"
                    },
                    "errorInfo": "",
                    "fromAddress": "0x881d40237659c251811cec9c364ef91dc08d300c",
                    "gasUsed": 205535,
                    "id": 4,
                    "methodDecoded": true,
                    "operation": "CALL",
                    "output": "",
                    "revert": false,
                    "revertMessage": "",
                    "selector": "0xe3547335",
                    "status": true,
                    "value": "0"
                },
                "nodeType": 0
            },
            "5": {
                "invocation": {
                    "address": "0x3d1d55c23dfc759c5ae48500ca88ddf477b3c9e5",
                    "callData": "0x00000000000000000000000005c4c65873473c13741c31de2d74005832a0a3d80000000000000000000000002e9d63788249371f1dfc918a52f8d799f4a38c940000000000000000000000000ab87046fbb341d058f17cbc4c1133f25a20a52f000000000000000000000000000000000000000000000001074bb2d3fa31607b000000000000000000000000000000000000000000000000009b15567c9b6f33000000000000000000000000000000000000000000000000000000000000012000000000000000000000000000000000000000000000000000000000000000000000000000000000000000002acf35c9a3f4c5c3f4c78ef5fb64c3ee82f07c45000000000000000000000000000000000000000000000000000000000000000000000000000000000000000000000000000000000000000000000000000001486af479b20000000000000000000000000000000000000000000000000000000000000080000000000000000000000000000000000000000000000001074bb2d3fa31607b000000000000000000000000000000000000000000000000009b15567c9b6f33000000000000000000000000000000000000000000000000000000000000000000000000000000000000000000000000000000000000000000000000000000422e9d63788249371f1dfc918a52f8d799f4a38c94002710c02aaa39b223fe8d0a0e5c4f27ead9083c756cc20027100ab87046fbb341d058f17cbc4c1133f25a20a52f000000000000000000000000000000000000000000000000000000000000869584cd00000000000000000000000011ededebf63bef0ea2d2d071bdf88f71543ec6fb000000000000000000000000000000000000000000000049cc957cd161bdd642000000000000000000000000000000000000000000000000",
                    "decodedMethod": null,
                    "errorInfo": "",
                    "fromAddress": "0x74de5d4fcbf63e00296fd95d33236b9794016631",
                    "gasUsed": 200057,
                    "id": 5,
                    "methodDecoded": false,
                    "operation": "DELEGATECALL",
                    "output": "",
                    "revert": false,
                    "revertMessage": "",
                    "selector": "0x92f5f037",
                    "status": true,
                    "value": "0"
                },
                "nodeType": 0
            },
            "6": {
                "invocation": {
                    "address": "0x2e9d63788249371f1dfc918a52f8d799f4a38c94",
                    "callData": "0x00000000000000000000000074de5d4fcbf63e00296fd95d33236b9794016631000000000000000000000000def1c0ded9bec7f1a1670819833240f027b25eff",
                    "decodedMethod": {
                        "callParams": [
                            {
                                "name": "owner",
                                "type": "address",
                                "value": "0x74de5d4fcbf63e00296fd95d33236b9794016631"
                            },
                            {
                                "name": "spender",
                                "type": "address",
                                "value": "0xdef1c0ded9bec7f1a1670819833240f027b25eff"
                            }
                        ],
                        "constructorArguments": "",
                        "name": "allowance",
                        "returnParams": [
                            {
                                "decimalAvailable": true,
                                "name": "",
                                "type": "uint256",
                                "value": "115,792,089,237,316,195,423,570,985,008,687,907,853,269,984,665,640,563,979,168,226,158,513,450,625,842"
                            }
                        ],
                        "signature": "allowance(address,address)"
                    },
                    "errorInfo": "",
                    "fromAddress": "0x74de5d4fcbf63e00296fd95d33236b9794016631",
                    "gasUsed": 2592,
                    "id": 6,
                    "methodDecoded": true,
                    "operation": "STATICCALL",
                    "output": "0xfffffffffffffffffffffffffffffffffffffffffffff33bb515aeadcba7ab32",
                    "revert": false,
                    "revertMessage": "",
                    "selector": "0xdd62ed3e",
                    "status": true,
                    "value": "0"
                },
                "nodeType": 0
            },
            "7": {
                "invocation": {
                    "address": "0xdef1c0ded9bec7f1a1670819833240f027b25eff",
                    "callData": "0x0000000000000000000000000000000000000000000000000000000000000080000000000000000000000000000000000000000000000001074bb2d3fa31607b000000000000000000000000000000000000000000000000009b15567c9b6f33000000000000000000000000000000000000000000000000000000000000000000000000000000000000000000000000000000000000000000000000000000422e9d63788249371f1dfc918a52f8d799f4a38c94002710c02aaa39b223fe8d0a0e5c4f27ead9083c756cc20027100ab87046fbb341d058f17cbc4c1133f25a20a52f000000000000000000000000000000000000000000000000000000000000869584cd00000000000000000000000011ededebf63bef0ea2d2d071bdf88f71543ec6fb000000000000000000000000000000000000000000000049cc957cd161bdd642",
                    "decodedMethod": {
                        "callParams": [
                            {
                                "name": "encodedPath",
                                "type": "bytes",
                                "value": "0x2e9d63788249371f1dfc918a52f8d799f4a38c94002710c02aaa39b223fe8d0a0e5c4f27ead9083c756cc20027100ab87046fbb341d058f17cbc4c1133f25a20a52f"
                            },
                            {
                                "name": "sellAmount",
                                "type": "uint256",
                                "value": "18,972,454,478,733,729,915"
                            },
                            {
                                "name": "minBuyAmount",
                                "type": "uint256",
                                "value": "43,652,082,592,083,763"
                            },
                            {
                                "name": "recipient",
                                "type": "address",
                                "value": "0x0000000000000000000000000000000000000000"
                            }
                        ],
                        "constructorArguments": "",
                        "name": "sellTokenForTokenToUniswapV3",
                        "returnParams": [
                            {
                                "name": "buyAmount",
                                "type": "uint256",
                                "value": "44,537,063,233,516,973"
                            }
                        ],
                        "signature": "sellTokenForTokenToUniswapV3(bytes,uint256,uint256,address)"
                    },
                    "errorInfo": "",
                    "fromAddress": "0x74de5d4fcbf63e00296fd95d33236b9794016631",
                    "gasUsed": 177401,
                    "id": 7,
                    "methodDecoded": true,
                    "operation": "CALL",
                    "output": "0x000000000000000000000000000000000000000000000000009e3a39195f75ad",
                    "revert": false,
                    "revertMessage": "",
                    "selector": "0x6af479b2",
                    "status": true,
                    "value": "0"
                },
                "nodeType": 0
            },
            "8": {
                "invocation": {
                    "address": "0x0d53497746e70c8cc2e5e8d2ac5f0a33f93c9353",
                    "callData": "0x0000000000000000000000000000000000000000000000000000000000000080000000000000000000000000000000000000000000000001074bb2d3fa31607b000000000000000000000000000000000000000000000000009b15567c9b6f33000000000000000000000000000000000000000000000000000000000000000000000000000000000000000000000000000000000000000000000000000000422e9d63788249371f1dfc918a52f8d799f4a38c94002710c02aaa39b223fe8d0a0e5c4f27ead9083c756cc20027100ab87046fbb341d058f17cbc4c1133f25a20a52f000000000000000000000000000000000000000000000000000000000000869584cd00000000000000000000000011ededebf63bef0ea2d2d071bdf88f71543ec6fb000000000000000000000000000000000000000000000049cc957cd161bdd642",
                    "decodedMethod": {
                        "callParams": [
                            {
                                "name": "encodedPath",
                                "type": "bytes",
                                "value": "0x2e9d63788249371f1dfc918a52f8d799f4a38c94002710c02aaa39b223fe8d0a0e5c4f27ead9083c756cc20027100ab87046fbb341d058f17cbc4c1133f25a20a52f"
                            },
                            {
                                "name": "sellAmount",
                                "type": "uint256",
                                "value": "18,972,454,478,733,729,915"
                            },
                            {
                                "name": "minBuyAmount",
                                "type": "uint256",
                                "value": "43,652,082,592,083,763"
                            },
                            {
                                "name": "recipient",
                                "type": "address",
                                "value": "0x0000000000000000000000000000000000000000"
                            }
                        ],
                        "constructorArguments": "",
                        "name": "sellTokenForTokenToUniswapV3",
                        "returnParams": [
                            {
                                "name": "buyAmount",
                                "type": "uint256",
                                "value": "44,537,063,233,516,973"
                            }
                        ],
                        "signature": "sellTokenForTokenToUniswapV3(bytes,uint256,uint256,address)"
                    },
                    "errorInfo": "",
                    "fromAddress": "0xdef1c0ded9bec7f1a1670819833240f027b25eff",
                    "gasUsed": 171635,
                    "id": 8,
                    "methodDecoded": true,
                    "operation": "DELEGATECALL",
                    "output": "0x000000000000000000000000000000000000000000000000009e3a39195f75ad",
                    "revert": false,
                    "revertMessage": "",
                    "selector": "0x6af479b2",
                    "status": true,
                    "value": "0"
                },
                "nodeType": 0
            },
            "9": {
                "invocation": {
                    "address": "0x500cb7defd8302f1f97e38ac628e8c2eaf7307b6",
                    "callData": "0x000000000000000000000000def1c0ded9bec7f1a1670819833240f027b25eff0000000000000000000000000000000000000000000000000000000000000001000000000000000000000000000000000000000000000001074bb2d3fa31607b00000000000000000000000000000000000000000000000000000001000276a400000000000000000000000000000000000000000000000000000000000000a000000000000000000000000000000000000000000000000000000000000000800000000000000000000000002e9d63788249371f1dfc918a52f8d799f4a38c94000000000000000000000000c02aaa39b223fe8d0a0e5c4f27ead9083c756cc2000000000000000000000000000000000000000000000000000000000000271000000000000000000000000074de5d4fcbf63e00296fd95d33236b9794016631",
                    "decodedMethod": {
                        "callParams": [
                            {
                                "name": "recipient",
                                "type": "address",
                                "value": "0xdef1c0ded9bec7f1a1670819833240f027b25eff"
                            },
                            {
                                "name": "zeroForOne",
                                "type": "bool",
                                "value": true
                            },
                            {
                                "name": "amountSpecified",
                                "type": "int256",
                                "value": "18,972,454,478,733,729,915"
                            },
                            {
                                "name": "sqrtPriceLimitX96",
                                "type": "uint160",
                                "value": "4,295,128,740"
                            },
                            {
                                "name": "data",
                                "type": "bytes",
                                "value": "0x0000000000000000000000002e9d63788249371f1dfc918a52f8d799f4a38c94000000000000000000000000c02aaa39b223fe8d0a0e5c4f27ead9083c756cc2000000000000000000000000000000000000000000000000000000000000271000000000000000000000000074de5d4fcbf63e00296fd95d33236b9794016631"
                            }
                        ],
                        "constructorArguments": "",
                        "name": "swap",
                        "returnParams": [
                            {
                                "name": "amount0",
                                "type": "int256",
                                "value": "18,972,454,478,733,729,915"
                            },
                            {
                                "name": "amount1",
                                "type": "int256",
                                "value": "-171,939,344,963,867,805"
                            }
                        ],
                        "signature": "swap(address,bool,int256,uint160,bytes)"
                    },
                    "errorInfo": "",
                    "fromAddress": "0xdef1c0ded9bec7f1a1670819833240f027b25eff",
                    "gasUsed": 73641,
                    "id": 9,
                    "methodDecoded": true,
                    "operation": "CALL",
                    "output": "0x000000000000000000000000000000000000000000000001074bb2d3fa31607bfffffffffffffffffffffffffffffffffffffffffffffffffd9d2613a483eb63",
                    "revert": false,
                    "revertMessage": "",
                    "selector": "0x128acb08",
                    "status": true,
                    "value": "0"
                },
                "nodeType": 0
            }
        },
        "gasFlame": [
            {
                "children": [
                    {
                        "children": [
                            {
                                "children": [],
                                "depth": 0,
                                "name": "Initial Gas",
                                "value": 27476
                            },
                            {
                                "children": [
                                    {
                                        "children": [],
                                        "depth": 1,
                                        "name": "transferFrom",
                                        "value": 39647
                                    },
                                    {
                                        "children": [
                                            {
                                                "children": [
                                                    {
                                                        "children": [],
                                                        "depth": 3,
                                                        "name": "allowance",
                                                        "value": 2592
                                                    },
                                                    {
                                                        "children": [
                                                            {
                                                                "children": [
                                                                    {
                                                                        "children": [
                                                                            {
                                                                                "children": [],
                                                                                "depth": 6,
                                                                                "name": "transfer",
                                                                                "value": 12862
                                                                            },
                                                                            {
                                                                                "children": [],
                                                                                "depth": 6,
                                                                                "name": "balanceOf",
                                                                                "value": 2444
                                                                            },
                                                                            {
                                                                                "children": [
                                                                                    {
                                                                                        "children": [
                                                                                            {
                                                                                                "children": [],
                                                                                                "depth": 8,
                                                                                                "name": "transferFrom",
                                                                                                "value": 11747
                                                                                            }
                                                                                        ],
                                                                                        "depth": 7,
                                                                                        "name": "uniswapV3SwapCallback",
                                                                                        "value": 13258
                                                                                    }
                                                                                ],
                                                                                "depth": 6,
                                                                                "name": "uniswapV3SwapCallback",
                                                                                "value": 16430
                                                                            },
                                                                            {
                                                                                "children": [],
                                                                                "depth": 6,
                                                                                "name": "balanceOf",
                                                                                "value": 444
                                                                            }
                                                                        ],
                                                                        "depth": 5,
                                                                        "name": "swap",
                                                                        "value": 73641
                                                                    },
                                                                    {
                                                                        "children": [
                                                                            {
                                                                                "children": [],
                                                                                "depth": 6,
                                                                                "name": "transfer",
                                                                                "value": 34724
                                                                            },
                                                                            {
                                                                                "children": [],
                                                                                "depth": 6,
                                                                                "name": "balanceOf",
                                                                                "value": 2534
                                                                            },
                                                                            {
                                                                                "children": [
                                                                                    {
                                                                                        "children": [
                                                                                            {
                                                                                                "children": [],
                                                                                                "depth": 8,
                                                                                                "name": "transfer",
                                                                                                "value": 6062
                                                                                            }
                                                                                        ],
                                                                                        "depth": 7,
                                                                                        "name": "uniswapV3SwapCallback",
                                                                                        "value": 7572
                                                                                    }
                                                                                ],
                                                                                "depth": 6,
                                                                                "name": "uniswapV3SwapCallback",
                                                                                "value": 8744
                                                                            },
                                                                            {
                                                                                "children": [],
                                                                                "depth": 6,
                                                                                "name": "balanceOf",
                                                                                "value": 534
                                                                            }
                                                                        ],
                                                                        "depth": 5,
                                                                        "name": "swap",
                                                                        "value": 87690
                                                                    }
                                                                ],
                                                                "depth": 4,
                                                                "name": "sellTokenForTokenToUniswapV3",
                                                                "value": 171635
                                                            }
                                                        ],
                                                        "depth": 3,
                                                        "name": "sellTokenForTokenToUniswapV3",
                                                        "value": 177401
                                                    },
                                                    {
                                                        "children": [],
                                                        "depth": 3,
                                                        "name": "balanceOf",
                                                        "value": 444
                                                    },
                                                    {
                                                        "children": [],
                                                        "depth": 3,
                                                        "name": "balanceOf",
                                                        "value": 607
                                                    },
                                                    {
                                                        "children": [],
                                                        "depth": 3,
                                                        "name": "transfer",
                                                        "value": 10824
                                                    }
                                                ],
                                                "depth": 2,
                                                "name": "0x92f5f037",
                                                "value": 200057
                                            }
                                        ],
                                        "depth": 1,
                                        "name": "swap",
                                        "value": 205535
                                    }
                                ],
                                "depth": 0,
                                "name": "Executed Gas",
                                "value": 268525
                            }
                        ],
                        "depth": -1,
                        "name": "Actual Gas Used",
                        "value": 245801
                    },
                    {
                        "children": [],
                        "depth": -1,
                        "name": "Refunded Gas",
                        "value": 50200
                    }
                ],
                "depth": -2,
                "name": "Total Gas",
                "value": 296001
            }
        ],
        "isConfirmed": true,
        "mainTrace": [
            {
                "children": [
                    {
                        "children": [
                            {
                                "children": [
                                    {
                                        "children": [],
                                        "depth": 2,
                                        "id": 2,
                                        "order": 2
                                    },
                                    {
                                        "children": [],
                                        "depth": 2,
                                        "id": 3,
                                        "order": 3
                                    }
                                ],
                                "depth": 1,
                                "id": 1,
                                "order": 1
                            },
                            {
                                "children": [
                                    {
                                        "children": [
                                            {
                                                "children": [],
                                                "depth": 3,
                                                "id": 6,
                                                "order": 6
                                            },
                                            {
                                                "children": [
                                                    {
                                                        "children": [
                                                            {
                                                                "children": [
                                                                    {
                                                                        "children": [
                                                                            {
                                                                                "children": [],
                                                                                "depth": 7,
                                                                                "id": 11,
                                                                                "order": 11
                                                                            }
                                                                        ],
                                                                        "depth": 6,
                                                                        "id": 10,
                                                                        "order": 10
                                                                    },
                                                                    {
                                                                        "children": [],
                                                                        "depth": 6,
                                                                        "id": 12,
                                                                        "order": 12
                                                                    },
                                                                    {
                                                                        "children": [
                                                                            {
                                                                                "children": [
                                                                                    {
                                                                                        "children": [
                                                                                            {
                                                                                                "children": [],
                                                                                                "depth": 9,
                                                                                                "id": 16,
                                                                                                "order": 16
                                                                                            },
                                                                                            {
                                                                                                "children": [],
                                                                                                "depth": 9,
                                                                                                "id": 17,
                                                                                                "order": 17
                                                                                            }
                                                                                        ],
                                                                                        "depth": 8,
                                                                                        "id": 15,
                                                                                        "order": 15
                                                                                    }
                                                                                ],
                                                                                "depth": 7,
                                                                                "id": 14,
                                                                                "order": 14
                                                                            }
                                                                        ],
                                                                        "depth": 6,
                                                                        "id": 13,
                                                                        "order": 13
                                                                    },
                                                                    {
                                                                        "children": [],
                                                                        "depth": 6,
                                                                        "id": 18,
                                                                        "order": 18
                                                                    },
                                                                    {
                                                                        "children": [],
                                                                        "depth": 6,
                                                                        "id": 19,
                                                                        "order": 19
                                                                    }
                                                                ],
                                                                "depth": 5,
                                                                "id": 9,
                                                                "order": 9
                                                            },
                                                            {
                                                                "children": [
                                                                    {
                                                                        "children": [
                                                                            {
                                                                                "children": [],
                                                                                "depth": 7,
                                                                                "id": 22,
                                                                                "order": 22
                                                                            }
                                                                        ],
                                                                        "depth": 6,
                                                                        "id": 21,
                                                                        "order": 21
                                                                    },
                                                                    {
                                                                        "children": [],
                                                                        "depth": 6,
                                                                        "id": 23,
                                                                        "order": 23
                                                                    },
                                                                    {
                                                                        "children": [
                                                                            {
                                                                                "children": [
                                                                                    {
                                                                                        "children": [
                                                                                            {
                                                                                                "children": [],
                                                                                                "depth": 9,
                                                                                                "id": 27,
                                                                                                "order": 27
                                                                                            }
                                                                                        ],
                                                                                        "depth": 8,
                                                                                        "id": 26,
                                                                                        "order": 26
                                                                                    }
                                                                                ],
                                                                                "depth": 7,
                                                                                "id": 25,
                                                                                "order": 25
                                                                            }
                                                                        ],
                                                                        "depth": 6,
                                                                        "id": 24,
                                                                        "order": 24
                                                                    },
                                                                    {
                                                                        "children": [],
                                                                        "depth": 6,
                                                                        "id": 28,
                                                                        "order": 28
                                                                    },
                                                                    {
                                                                        "children": [],
                                                                        "depth": 6,
                                                                        "id": 29,
                                                                        "order": 29
                                                                    }
                                                                ],
                                                                "depth": 5,
                                                                "id": 20,
                                                                "order": 20
                                                            }
                                                        ],
                                                        "depth": 4,
                                                        "id": 8,
                                                        "order": 8
                                                    }
                                                ],
                                                "depth": 3,
                                                "id": 7,
                                                "order": 7
                                            },
                                            {
                                                "children": [],
                                                "depth": 3,
                                                "id": 30,
                                                "order": 30
                                            },
                                            {
                                                "children": [],
                                                "depth": 3,
                                                "id": 31,
                                                "order": 31
                                            },
                                            {
                                                "children": [
                                                    {
                                                        "children": [],
                                                        "depth": 4,
                                                        "id": 33,
                                                        "order": 33
                                                    }
                                                ],
                                                "depth": 3,
                                                "id": 32,
                                                "order": 32
                                            }
                                        ],
                                        "depth": 2,
                                        "id": 5,
                                        "order": 5
                                    }
                                ],
                                "depth": 1,
                                "id": 4,
                                "order": 4
                            },
                            {
                                "children": [],
                                "depth": 1,
                                "id": 34,
                                "order": 34
                            }
                        ],
                        "depth": 0,
                        "id": 0,
                        "order": 0
                    }
                ],
                "depth": -1,
                "id": -1,
                "order": -1
            }
        ],
        "mainTraceNodeCount": 35,
        "parentIdMap": {
            "0": -1,
            "1": 0,
            "10": 9,
            "11": 10,
            "12": 9,
            "13": 9,
            "14": 13,
            "15": 14,
            "16": 15,
            "17": 15,
            "18": 9,
            "19": 9,
            "2": 1,
            "20": 8,
            "21": 20,
            "22": 21,
            "23": 20,
            "24": 20,
            "25": 24,
            "26": 25,
            "27": 26,
            "28": 20,
            "29": 20,
            "3": 1,
            "30": 5,
            "31": 5,
            "32": 5,
            "33": 32,
            "34": 0,
            "4": 0,
            "5": 4,
            "6": 5,
            "7": 5,
            "8": 7,
            "9": 8
        },
        "tidyTrace": [
            {
                "children": [
                    {
                        "children": [
                            {
                                "children": [
                                    {
                                        "children": [],
                                        "depth": 2,
                                        "id": 2,
                                        "order": 2
                                    },
                                    {
                                        "children": [],
                                        "depth": 2,
                                        "id": 3,
                                        "order": 3
                                    }
                                ],
                                "depth": 1,
                                "id": 1,
                                "order": 1
                            },
                            {
                                "children": [
                                    {
                                        "children": [
                                            {
                                                "children": [
                                                    {
                                                        "children": [
                                                            {
                                                                "children": [
                                                                    {
                                                                        "children": [
                                                                            {
                                                                                "children": [],
                                                                                "depth": 7,
                                                                                "id": 11,
                                                                                "order": 11
                                                                            }
                                                                        ],
                                                                        "depth": 6,
                                                                        "id": 10,
                                                                        "order": 10
                                                                    },
                                                                    {
                                                                        "children": [
                                                                            {
                                                                                "children": [
                                                                                    {
                                                                                        "children": [
                                                                                            {
                                                                                                "children": [],
                                                                                                "depth": 9,
                                                                                                "id": 16,
                                                                                                "order": 16
                                                                                            },
                                                                                            {
                                                                                                "children": [],
                                                                                                "depth": 9,
                                                                                                "id": 17,
                                                                                                "order": 17
                                                                                            }
                                                                                        ],
                                                                                        "depth": 8,
                                                                                        "id": 15,
                                                                                        "order": 15
                                                                                    }
                                                                                ],
                                                                                "depth": 7,
                                                                                "id": 14,
                                                                                "order": 14
                                                                            }
                                                                        ],
                                                                        "depth": 6,
                                                                        "id": 13,
                                                                        "order": 13
                                                                    },
                                                                    {
                                                                        "children": [],
                                                                        "depth": 6,
                                                                        "id": 19,
                                                                        "order": 19
                                                                    }
                                                                ],
                                                                "depth": 5,
                                                                "id": 9,
                                                                "order": 9
                                                            },
                                                            {
                                                                "children": [
                                                                    {
                                                                        "children": [
                                                                            {
                                                                                "children": [],
                                                                                "depth": 7,
                                                                                "id": 22,
                                                                                "order": 22
                                                                            }
                                                                        ],
                                                                        "depth": 6,
                                                                        "id": 21,
                                                                        "order": 21
                                                                    },
                                                                    {
                                                                        "children": [
                                                                            {
                                                                                "children": [
                                                                                    {
                                                                                        "children": [
                                                                                            {
                                                                                                "children": [],
                                                                                                "depth": 9,
                                                                                                "id": 27,
                                                                                                "order": 27
                                                                                            }
                                                                                        ],
                                                                                        "depth": 8,
                                                                                        "id": 26,
                                                                                        "order": 26
                                                                                    }
                                                                                ],
                                                                                "depth": 7,
                                                                                "id": 25,
                                                                                "order": 25
                                                                            }
                                                                        ],
                                                                        "depth": 6,
                                                                        "id": 24,
                                                                        "order": 24
                                                                    },
                                                                    {
                                                                        "children": [],
                                                                        "depth": 6,
                                                                        "id": 29,
                                                                        "order": 29
                                                                    }
                                                                ],
                                                                "depth": 5,
                                                                "id": 20,
                                                                "order": 20
                                                            }
                                                        ],
                                                        "depth": 4,
                                                        "id": 8,
                                                        "order": 8
                                                    }
                                                ],
                                                "depth": 3,
                                                "id": 7,
                                                "order": 7
                                            },
                                            {
                                                "children": [
                                                    {
                                                        "children": [],
                                                        "depth": 4,
                                                        "id": 33,
                                                        "order": 33
                                                    }
                                                ],
                                                "depth": 3,
                                                "id": 32,
                                                "order": 32
                                            }
                                        ],
                                        "depth": 2,
                                        "id": 5,
                                        "order": 5
                                    }
                                ],
                                "depth": 1,
                                "id": 4,
                                "order": 4
                            },
                            {
                                "children": [],
                                "depth": 1,
                                "id": 34,
                                "order": 34
                            }
                        ],
                        "depth": 0,
                        "id": 0,
                        "order": 0
                    }
                ],
                "depth": -1,
                "id": -1,
                "order": -1
            }
        ],
        "tidyTraceNodeCount": 28
    },
    "state_change": {
        "stateChanges": [
            {
                "address": "0x0ab87046fbb341d058f17cbc4c1133f25a20a52f",
                "erc": "ERC-20",
                "slots": [
                    {
                        "current": "0x00000000000000000000000000000000000000000000000005d24d4863b423bf",
                        "key": "0xfef54c98792850f172637f0528a682810c6fc2871bcd9832d8ed8f474ab7f616",
                        "prev": "0x0000000000000000000000000000000000000000000000000534130f4a54ae12"
                    },
                    {
                        "current": "0x0000000000000000000000000000000000000000000000047e7a39f315e15640",
                        "key": "0xc255d4eef6e5ee4ebab14e1d63571e6ade4e5b3cfee629956d15fabbade83518",
                        "prev": "0x0000000000000000000000000000000000000000000000047f18742c2f40cbed"
                    }
                ],
                "storageVariables": [
                    {
                        "name": "_balances",
                        "type": "mapping(address => uint256)",
                        "value": {
                            "pairs": [
                                {
                                    "key": "0x05c4c65873473c13741c31de2d74005832a0a3d8",
                                    "value": {
                                        "current": "419482688604611519",
                                        "prev": "374945625371094546",
                                        "typeTag": 1
                                    }
                                },
                                {
                                    "key": "0xcf7e21b96a7dae8e1663b5a266fd812cbe973e70",
                                    "value": {
                                        "current": "82900636806982751808",
                                        "prev": "82945173870216268781",
                                        "typeTag": 1
                                    }
                                }
                            ],
                            "typeTag": 4
                        }
                    }
                ]
            },
            {
                "address": "0x2e9d63788249371f1dfc918a52f8d799f4a38c94",
                "erc": "ERC-20",
                "slots": [
                    {
                        "current": "0xfffffffffffffffffffffffffffffffffffffffffffffff9ced59d49509d5e5f",
                        "key": "0xa05ffddf335cac2e99efb4d22d3d03979bbe5f600983bcccd2bff6e48cfa2f5c",
                        "prev": "0xfffffffffffffffffffffffffffffffffffffffffffffffad621501d4acebeda"
                    },
                    {
                        "current": "0x0000000000000000000000000000000000000000000000000000000000000000",
                        "key": "0xfef54c98792850f172637f0528a682810c6fc2871bcd9832d8ed8f474ab7f616",
                        "prev": "0x000000000000000000000000000000000000000000000001074bb2d3fa31607b"
                    },
                    {
                        "current": "0x00000000000000000000000000000000000000000000001c3c200d3a1ec6181b",
                        "key": "0xa9cc1f083883e66b0b379ce1ad3b1071d769ddbc1832d0ecf477b9b70db74396",
                        "prev": "0x00000000000000000000000000000000000000000000001b34d45a662494b7a0"
                    },
                    {
                        "current": "0xfffffffffffffffffffffffffffffffffffffffffffff33aadc9fbd9d1764ab7",
                        "key": "0x9ccd4257ce838a4d1834d8f2a2e350d9422b0863510923e9a8f80a1ab6144e5c",
                        "prev": "0xfffffffffffffffffffffffffffffffffffffffffffff33bb515aeadcba7ab32"
                    }
                ],
                "storageVariables": [
                    {
                        "name": "_balances",
                        "type": "mapping(address => uint256)",
                        "value": {
                            "pairs": [
                                {
                                    "key": "0x05c4c65873473c13741c31de2d74005832a0a3d8",
                                    "value": {
                                        "current": "0",
                                        "prev": "18972454478733729915",
                                        "typeTag": 1
                                    }
                                },
                                {
                                    "key": "0x500cb7defd8302f1f97e38ac628e8c2eaf7307b6",
                                    "value": {
                                        "current": "520841311448673425435",
                                        "prev": "501868856969939695520",
                                        "typeTag": 1
                                    }
                                }
                            ],
                            "typeTag": 4
                        }
                    },
                    {
                        "name": "_allowances",
                        "type": "mapping(address => mapping(address => uint256))",
                        "value": {
                            "pairs": [
                                {
                                    "key": "0x05c4c65873473c13741c31de2d74005832a0a3d8",
                                    "value": {
                                        "pairs": [
                                            {
                                                "key": "0x881d40237659c251811cec9c364ef91dc08d300c",
                                                "value": {
                                                    "current": "115792089237316195423570985008687907853269984665640564039343360790877225967199",
                                                    "prev": "115792089237316195423570985008687907853269984665640564039362333245355959697114",
                                                    "typeTag": 1
                                                }
                                            }
                                        ],
                                        "typeTag": 4
                                    }
                                },
                                {
                                    "key": "0x74de5d4fcbf63e00296fd95d33236b9794016631",
                                    "value": {
                                        "pairs": [
                                            {
                                                "key": "0xdef1c0ded9bec7f1a1670819833240f027b25eff",
                                                "value": {
                                                    "current": "115792089237316195423570985008687907853269984665640563979149253704034716895927",
                                                    "prev": "115792089237316195423570985008687907853269984665640563979168226158513450625842",
                                                    "typeTag": 1
                                                }
                                            }
                                        ],
                                        "typeTag": 4
                                    }
                                }
                            ],
                            "typeTag": 4
                        }
                    }
                ]
            },
            {
                "address": "0x500cb7defd8302f1f97e38ac628e8c2eaf7307b6",
                "erc": "",
                "slots": [
                    {
                        "current": "0x000100000100010000ff48020000000000000000184b0d940382b5df77194961",
                        "key": "0x0000000000000000000000000000000000000000000000000000000000000000",
                        "prev": "0x000100000100010000ff494a000000000000000018b1f74a4ce4fccaca05e05d"
                    },
                    {
                        "current": "0x01000738660000000000366742b155a88f2160b1cbffff8e29eb6b3c61bdd654",
                        "key": "0x0000000000000000000000000000000000000000000000000000000000000008",
                        "prev": "0x01000738660000000000365f46c230c90e2c49437effff8e4bbe345461bda6f0"
                    },
                    {
                        "current": "0x0000000000000000000000000000000115a9f26785dc59637f9a2627bbfed105",
                        "key": "0x0000000000000000000000000000000000000000000000000000000000000001",
                        "prev": "0x000000000000000000000000000000011538638600444986a3445c255fad2a21"
                    }
                ],
                "storageVariables": []
            },
            {
                "address": "0xc02aaa39b223fe8d0a0e5c4f27ead9083c756cc2",
                "erc": "ERC-20",
                "slots": [
                    {
                        "current": "0x0000000000000000000000000000000000000000000000001f9cd9e0bd40c5c9",
                        "key": "0x6fd9d59d08db62c92962776042d0b2c71d0d4b5d824428b10e2535df3d21d8aa",
                        "prev": "0x00000000000000000000000000000000000000000000000021ffb3cd18bcda66"
                    },
                    {
                        "current": "0x00000000000000000000000000000000000000000000000aa30efbdfa22c8c2d",
                        "key": "0xfef4a7f95b1928bb7a6bd51aff388c89950d1186a35b23b41a34a0391bd7af23",
                        "prev": "0x00000000000000000000000000000000000000000000000aa0ac21f346b07790"
                    }
                ],
                "storageVariables": [
                    {
                        "name": "balanceOf",
                        "type": "mapping(address => uint256)",
                        "value": {
                            "pairs": [
                                {
                                    "key": "0x500cb7defd8302f1f97e38ac628e8c2eaf7307b6",
                                    "value": {
                                        "current": "2277935070813668809",
                                        "prev": "2449874415777536614",
                                        "typeTag": 1
                                    }
                                },
                                {
                                    "key": "0xcf7e21b96a7dae8e1663b5a266fd812cbe973e70",
                                    "value": {
                                        "current": "196217046152868826157",
                                        "prev": "196045106807904958352",
                                        "typeTag": 1
                                    }
                                }
                            ],
                            "typeTag": 4
                        }
                    }
                ]
            },
            {
                "address": "0xcf7e21b96a7dae8e1663b5a266fd812cbe973e70",
                "erc": "",
                "slots": [
                    {
                        "current": "0x0000000000000000000000000000000010e43bbd201014e0d3018305061e5c03",
                        "key": "0x0000000000000000000000000000000000000000000000000000000000000002",
                        "prev": "0x0000000000000000000000000000000010e428f1d10c1a87a94e5fe7a3c60fcc"
                    },
                    {
                        "current": "0x0001000001000100000034600000000000000001f47dd47ddc3b8f2db4c1475b",
                        "key": "0x0000000000000000000000000000000000000000000000000000000000000000",
                        "prev": "0x00010000010001000000345f0000000000000001f4768fde4db1beb3b8c47edf"
                    },
                    {
                        "current": "0x01000004270000000000013f3854288fc98d1f51f9000001c796e30561bdd654",
                        "key": "0x0000000000000000000000000000000000000000000000000000000000000008",
                        "prev": "0x01000004270000000000013f37738ed82d16970ef8000001c787f3ee61bdd60b"
                    }
                ],
                "storageVariables": []
            }
        ]
    }
}