{
    "balance_change": {
        "balanceChanges": [
            {
                "account": "0x6bbece9c8d6453d0557de7544850b415b463ba8e",
                "assets": [
                    {
                        "address": "0x92133c6e952dd4cbf20be02c34cab2724c4fe274",
                        "amount": "7,284,720,000,000,000,000,000",
                        "iconUrl": "",
                        "isERC1155": false,
                        "isERC721": false,
                        "sign": false,
                        "value": ""
                    }
                ]
            },
            {
                "account": "0xe1355a269ef62d51d180ac9ce14127a4f1e54595",
                "assets": [
                    {
                        "address": "0x92133c6e952dd4cbf20be02c34cab2724c4fe274",
                        "amount": "7,284,720,000,000,000,000,000",
                        "iconUrl": "",
                        "isERC1155": false,
                        "isERC721": false,
                        "sign": true,
                        "value": ""
                    }
                ]
            }
        ]
    },
    "profile": {
        "basic_info": {
            "baseFee": "",
            "blockNumber": 9351720,
            "callData": "0xa9059cbb000000000000000000000000e1355a269ef62d51d180ac9ce14127a4f1e5459500000000000000000000000000000000000000000000018ae7cc63e637980000",
            "debugEnable": true,
            "errorInfo": "",
            "eventCount": 1,
            "feeRecipient": "0x829bd824b016326a401d083b33d092293333a830",
            "formatValue": "0",
            "gasLimit": 80000,
            "gasPrice": "20",
            "gasUsed": 51725,
            "intTxnCount": 0,
            "internalRevert": false,
            "internalRevertMessage": "",
            "isContractCreation": false,
            "isFlashloan": false,
            "maxFee": "",
            "nonce": 6215,
            "overwritedBlockNumber": -1,
            "priorityFee": "",
            "receiver": "0x92133c6e952dd4cbf20be02c34cab2724c4fe274",
            "revertMessage": "",
            "sender": "0x6bbece9c8d6453d0557de7544850b415b463ba8e",
            "simulationEnable": true,
            "sourceTxnHash": "0xd12665689477441f53c9d8bc9ec059872a8b79c0c92584c4ebbcc0daa0a1da66",
            "status": true,
            "timestamp": "2020-01-25T15:20:55Z",
            "transactionFee": "0.0010345",
            "txnHash": "0xd12665689477441f53c9d8bc9ec059872a8b79c0c92584c4ebbcc0daa0a1da66",
            "txnIndex": 5,
            "type": 0,
            "value": "0"
        },
        "fund_flow": [
            {
                "amount": "7,284,720,000,000,000,000,000",
                "from": "0x6bbece9c8d6453d0557de7544850b415b463ba8e",
                "id": 1,
                "isERC1155": false,
                "isERC721": false,
                "isReverted": false,
                "order": 1,
                "to": "0xe1355a269ef62d51d180ac9ce14127a4f1e54595",
                "token": "0x92133c6e952dd4cbf20be02c34cab2724c4fe274"
            }
        ],
        "token_infos": [
            {
                "address": "0xc02aaa39b223fe8d0a0e5c4f27ead9083c756cc2",
                "decimals": 18
            },
            {
                "address": "0xeeeeeeeeeeeeeeeeeeeeeeeeeeeeeeeeeeeeeeee",
                "decimals": 18
            }
        ]
    },
    "address_label": {
        "labels": [
            {
                "address": "0x0000000000000000000000000000000000000003",
                "label": "Precompiled"
            },
            {
                "address": "0x0000000000000000000000000000000000000004",
                "label": "Precompiled"
            },
            {
                "address": "0xeeeeeeeeeeeeeeeeeeeeeeeeeeeeeeeeeeeeeeee",
                "label": "Ether"
            },
            {
                "address": "0x0000000000000000000000000000000000000001",
                "label": "Precompiled"
            },
            {
                "address": "0x0000000000000000000000000000000000000002",
                "label": "Precompiled"
            }
        ]
    },
    "trace": {
        "accountLabels": null,
        "dataMap": {
            "-1": {
                "invocation": {
                    "address": "0x6bbece9c8d6453d0557de7544850b415b463ba8e",
                    "callData": "",
                    "decodedMethod": null,
                    "errorInfo": "",
                    "fromAddress": "",
                    "gasUsed": 0,
                    "id": -1,
                    "methodDecoded": false,
                    "operation": "",
                    "output": "",
                    "revert": false,
                    "revertMessage": "",
                    "selector": "",
                    "status": false,
                    "value": ""
                },
                "nodeType": 0
            },
            "0": {
                "invocation": {
                    "address": "0x92133c6e952dd4cbf20be02c34cab2724c4fe274",
                    "callData": "0x000000000000000000000000e1355a269ef62d51d180ac9ce14127a4f1e5459500000000000000000000000000000000000000000000018ae7cc63e637980000",
                    "decodedMethod": {
                        "callParams": [
                            {
                                "name": "recipient",
                                "type": "address",
                                "value": "0xe1355a269ef62d51d180ac9ce14127a4f1e54595"
                            },
                            {
                                "decimalAvailable": true,
                                "name": "amount",
                                "type": "uint256",
                                "value": "7,284,720,000,000,000,000,000"
                            }
                        ],
                        "constructorArguments": "",
                        "name": "transfer",
                        "returnParams": [
                            {
                                "name": "",
                                "type": "bool",
                                "value": true
                            }
                        ],
                        "signature": "transfer(address,uint256)"
                    },
                    "errorInfo": "",
                    "fromAddress": "0x6bbece9c8d6453d0557de7544850b415b463ba8e",
                    "gasUsed": 51725,
                    "id": 0,
                    "methodDecoded": true,
                    "operation": "CALL",
                    "output": "0x0000000000000000000000000000000000000000000000000000000000000001",
                    "revert": false,
                    "revertMessage": "",
                    "selector": "0xa9059cbb",
                    "status": true,
                    "value": "0"
                },
                "nodeType": 0
            },
            "1": {
                "event": {
                    "contract": "0x92133c6e952dd4cbf20be02c34cab2724c4fe274",
                    "decodedLog": {
                        "name": "Transfer",
                        "params": [
                            {
                                "name": "from",
                                "type": "address",
                                "value": "0x6bbece9c8d6453d0557de7544850b415b463ba8e"
                            },
                            {
                                "name": "to",
                                "type": "address",
                                "value": "0xe1355a269ef62d51d180ac9ce14127a4f1e54595"
                            },
                            {
                                "decimalAvailable": true,
                                "name": "value",
                                "type": "uint256",
                                "value": "7,284,720,000,000,000,000,000"
                            }
                        ],
                        "signature": "Transfer(address,address,uint256)"
                    },
                    "id": 1,
                    "logData": "0x00000000000000000000000000000000000000000000018ae7cc63e637980000",
                    "logDecoded": true,
                    "operation": "EVENT",
                    "revert": false,
                    "status": true,
                    "topics": [
                        "0xddf252ad1be2c89b69c2b068fc378daa952ba7f163c4a11628f55a4df523b3ef",
                        "0x0000000000000000000000006bbece9c8d6453d0557de7544850b415b463ba8e",
                        "0x000000000000000000000000e1355a269ef62d51d180ac9ce14127a4f1e54595"
                    ]
                },
                "nodeType": 1
            }
        },
        "gasFlame": [
            {
                "children": [
                    {
                        "children": [
                            {
                                "children": [],
                                "depth": 0,
                                "name": "Initial Gas",
                                "value": 21656
                            },
                            {
                                "children": [],
                                "depth": 0,
                                "name": "Executed Gas",
                                "value": 30069
                            }
                        ],
                        "depth": -1,
                        "name": "Actual Gas Used",
                        "value": 51725
                    },
                    {
                        "children": [],
                        "depth": -1,
                        "name": "Refunded Gas",
                        "value": 0
                    }
                ],
                "depth": -2,
                "name": "Total Gas",
                "value": 51725
            }
        ],
        "isConfirmed": true,
        "mainTrace": [
            {
                "children": [
                    {
                        "children": [
                            {
                                "children": [],
                                "depth": 1,
                                "id": 1,
                                "order": 1
                            }
                        ],
                        "depth": 0,
                        "id": 0,
                        "order": 0
                    }
                ],
                "depth": -1,
                "id": -1,
                "order": -1
            }
        ],
        "mainTraceNodeCount": 2,
        "parentIdMap": {
            "0": -1,
            "1": 0
        },
        "tidyTrace": [
            {
                "children": [
                    {
                        "children": [
                            {
                                "children": [],
                                "depth": 1,
                                "id": 1,
                                "order": 1
                            }
                        ],
                        "depth": 0,
                        "id": 0,
                        "order": 0
                    }
                ],
                "depth": -1,
                "id": -1,
                "order": -1
            }
        ],
        "tidyTraceNodeCount": 2
    },
    "state_change": {
        "stateChanges": [
            {
                "address": "0x92133c6e952dd4cbf20be02c34cab2724c4fe274",
                "erc": "",
                "slots": [
                    {
                        "current": "0x00000000000000000000000000000000000000000000018ae7cc63e637980000",
                        "key": "0x6f7882e947451728613983de78d367d76f2e9609bd5b479691d0dec51a44f9cd",
                        "prev": "0x0000000000000000000000000000000000000000000000000000000000000000"
                    },
                    {
                        "current": "0x000000000000000000000000000000000000000000002c928963eecde7dac000",
                        "key": "0x2e308588f0d0f428a976d43ed963b721978919fb4d206ff5573e739dfe508059",
                        "prev": "0x000000000000000000000000000000000000000000002e1d713052b41f72c000"
                    }
                ],
                "storageVariables": []
            }
        ]
    }
}