{
    "balance_change": {
        "balanceChanges": [
            {
                "account": "0x8f80c66c70cbc52009babb04c1cadf9b40109289",
                "assets": [
                    {
                        "address": "0xeeeeeeeeeeeeeeeeeeeeeeeeeeeeeeeeeeeeeeee",
                        "amount": "0.037",
                        "iconUrl": "https://assets.blocksec.com/image/1663669189317-3.png",
                        "isERC1155": false,
                        "isERC721": false,
                        "sign": false,
                        "value": "131.9161055"
                    }
                ]
            },
            {
                "account": "0xaf25d64ad00f0f751cb9b08be9858d1ab5ed2768",
                "assets": [
                    {
                        "address": "0xeeeeeeeeeeeeeeeeeeeeeeeeeeeeeeeeeeeeeeee",
                        "amount": "0.037",
                        "iconUrl": "https://assets.blocksec.com/image/1663669189317-3.png",
                        "isERC1155": false,
                        "isERC721": false,
                        "sign": true,
                        "value": "131.9161055"
                    }
                ]
            }
        ]
    },
    "profile": {
        "basic_info": {
            "baseFee": "85.663371639",
            "blockNumber": 13233012,
            "callData": "0x1a695230000000000000000000000000af25d64ad00f0f751cb9b08be9858d1ab5ed2768",
            "debugEnable": true,
            "errorInfo": "",
            "eventCount": 0,
            "feeRecipient": "0x1ad91ee08f21be3de0ba2ba6918e714da6b45836",
            "formatValue": "0.037",
            "gasLimit": 116472,
            "gasPrice": "107",
            "gasUsed": 55979,
            "intTxnCount": 1,
            "internalRevert": false,
            "internalRevertMessage": "",
            "isContractCreation": false,
            "isFlashloan": false,
            "maxFee": "",
            "nonce": 68002,
            "overwritedBlockNumber": -1,
            "priorityFee": "",
            "receiver": "0x0b95993a39a363d99280ac950f5e4536ab5c5566",
            "revertMessage": "",
            "sender": "0x8f80c66c70cbc52009babb04c1cadf9b40109289",
            "simulationEnable": true,
            "sourceTxnHash": "0xd16e979cefb878b57e064ff3fbfac04a89f8aeb6bf3fb69cb47505509bcfe3f5",
            "status": true,
            "timestamp": "2021-09-15T22:30:09Z",
            "transactionFee": "0.005989753",
            "txnHash": "0xd16e979cefb878b57e064ff3fbfac04a89f8aeb6bf3fb69cb47505509bcfe3f5",
            "txnIndex": 25,
            "type": 0,
            "value": "37000000000000000"
        },
        "fund_flow": [
            {
                "amount": "0.037",
                "from": "0x8f80c66c70cbc52009babb04c1cadf9b40109289",
                "id": 1,
                "isERC1155": false,
                "isERC721": false,
                "isReverted": false,
                "order": 1,
                "to": "0x0b95993a39a363d99280ac950f5e4536ab5c5566",
                "token": "0xeeeeeeeeeeeeeeeeeeeeeeeeeeeeeeeeeeeeeeee"
            },
            {
                "amount": "0.037",
                "from": "0x0b95993a39a363d99280ac950f5e4536ab5c5566",
                "id": 2,
                "isERC1155": false,
                "isERC721": false,
                "isReverted": false,
                "order": 2,
                "to": "0xaf25d64ad00f0f751cb9b08be9858d1ab5ed2768",
                "token": "0xeeeeeeeeeeeeeeeeeeeeeeeeeeeeeeeeeeeeeeee"
            }
        ],
        "token_infos": [
            {
                "address": "0xc02aaa39b223fe8d0a0e5c4f27ead9083c756cc2",
                "decimals": 18
            },
            {
                "address": "0xeeeeeeeeeeeeeeeeeeeeeeeeeeeeeeeeeeeeeeee",
                "decimals": 18
            }
        ]
    },
    "address_label": {
        "labels": [
            {
                "address": "0x0000000000000000000000000000000000000003",
                "label": "Precompiled"
            },
            {
                "address": "0x0000000000000000000000000000000000000004",
                "label": "Precompiled"
            },
            {
                "address": "0xeeeeeeeeeeeeeeeeeeeeeeeeeeeeeeeeeeeeeeee",
                "label": "Ether"
            },
            {
                "address": "0x8f80c66c70cbc52009babb04c1cadf9b40109289",
                "label": "Binance: Deposit Funder 2"
            },
            {
                "address": "0x0b95993a39a363d99280ac950f5e4536ab5c5566",
                "label": "Binance: Contract"
            },
            {
                "address": "0xaf25d64ad00f0f751cb9b08be9858d1ab5ed2768",
                "label": "BINANCE US"
            },
            {
                "address": "0x0000000000000000000000000000000000000001",
                "label": "Precompiled"
            },
            {
                "address": "0x0000000000000000000000000000000000000002",
                "label": "Precompiled"
            }
        ]
    },
    "trace": {
        "accountLabels": null,
        "dataMap": {
            "-1": {
                "invocation": {
                    "address": "0x8f80c66c70cbc52009babb04c1cadf9b40109289",
                    "callData": "",
                    "decodedMethod": null,
                    "errorInfo": "",
                    "fromAddress": "",
                    "gasUsed": 0,
                    "id": -1,
                    "methodDecoded": false,
                    "operation": "",
                    "output": "",
                    "revert": false,
                    "revertMessage": "",
                    "selector": "",
                    "status": false,
                    "value": ""
                },
                "nodeType": 0
            },
            "0": {
                "invocation": {
                    "address": "0x0b95993a39a363d99280ac950f5e4536ab5c5566",
                    "callData": "0x000000000000000000000000af25d64ad00f0f751cb9b08be9858d1ab5ed2768",
                    "decodedMethod": {
                        "callParams": [
                            {
                                "name": "wallet",
                                "type": "address",
                                "value": "0xaf25d64ad00f0f751cb9b08be9858d1ab5ed2768"
                            }
                        ],
                        "constructorArguments": "",
                        "name": "transfer",
                        "returnParams": [],
                        "signature": "transfer(address)"
                    },
                    "errorInfo": "",
                    "fromAddress": "0x8f80c66c70cbc52009babb04c1cadf9b40109289",
                    "gasUsed": 55979,
                    "id": 0,
                    "methodDecoded": true,
                    "operation": "CALL",
                    "output": "",
                    "revert": false,
                    "revertMessage": "",
                    "selector": "0x1a695230",
                    "status": true,
                    "value": "0.037"
                },
                "nodeType": 0
            },
            "1": {
                "invocation": {
                    "address": "0xaf25d64ad00f0f751cb9b08be9858d1ab5ed2768",
                    "callData": "0x",
                    "decodedMethod": null,
                    "errorInfo": "",
                    "fromAddress": "0x0b95993a39a363d99280ac950f5e4536ab5c5566",
                    "gasUsed": 0,
                    "id": 1,
                    "methodDecoded": false,
                    "operation": "CALL",
                    "output": "",
                    "revert": false,
                    "revertMessage": "",
                    "selector": "fallback",
                    "status": true,
                    "value": "0.037"
                },
                "nodeType": 0
            }
        },
        "gasFlame": [
            {
                "children": [
                    {
                        "children": [
                            {
                                "children": [],
                                "depth": 0,
                                "name": "Initial Gas",
                                "value": 21432
                            },
                            {
                                "children": [
                                    {
                                        "children": [],
                                        "depth": 1,
                                        "name": "fallback",
                                        "value": 0
                                    }
                                ],
                                "depth": 0,
                                "name": "Executed Gas",
                                "value": 34547
                            }
                        ],
                        "depth": -1,
                        "name": "Actual Gas Used",
                        "value": 55979
                    },
                    {
                        "children": [],
                        "depth": -1,
                        "name": "Refunded Gas",
                        "value": 0
                    }
                ],
                "depth": -2,
                "name": "Total Gas",
                "value": 55979
            }
        ],
        "isConfirmed": true,
        "mainTrace": [
            {
                "children": [
                    {
                        "children": [
                            {
                                "children": [],
                                "depth": 1,
                                "id": 1,
                                "order": 1
                            }
                        ],
                        "depth": 0,
                        "id": 0,
                        "order": 0
                    }
                ],
                "depth": -1,
                "id": -1,
                "order": -1
            }
        ],
        "mainTraceNodeCount": 2,
        "parentIdMap": {
            "0": -1,
            "1": 0
        },
        "tidyTrace": [
            {
                "children": [
                    {
                        "children": [
                            {
                                "children": [],
                                "depth": 1,
                                "id": 1,
                                "order": 1
                            }
                        ],
                        "depth": 0,
                        "id": 0,
                        "order": 0
                    }
                ],
                "depth": -1,
                "id": -1,
                "order": -1
            }
        ],
        "tidyTraceNodeCount": 2
    },
    "state_change": {
        "stateChanges": []
    }
}