{
    "balance_change": {
        "balanceChanges": []
    },
    "profile": {
        "basic_info": {
            "baseFee": "7.651302871",
            "blockNumber": 20002620,
            "callData": "0x095ea7b3000000000000000000000000953be9c1adb9c651bbec52e614c06eee7ff9aa270000000000000000000000000000000000000001431e0fae6d7217ca9fffffff",
            "debugEnable": true,
            "errorInfo": "",
            "eventCount": 1,
            "feeRecipient": "0x4838b106fce9647bdf1e7877bf73ce8b0bad5f97",
            "formatValue": "0",
            "gasLimit": 70218,
            "gasPrice": "8.420058014",
            "gasUsed": 46429,
            "intTxnCount": 0,
            "internalRevert": false,
            "internalRevertMessage": "",
            "isContractCreation": false,
            "isFlashloan": false,
            "maxFee": "11.30422651",
            "nonce": 24,
            "overwritedBlockNumber": -1,
            "priorityFee": "0.768755143",
            "receiver": "0x97a9a15168c22b3c137e6381037e1499c8ad0978",
            "revertMessage": "",
            "sender": "0x123063afaeaa096ffbb2168615738654cf09bf81",
            "simulationEnable": true,
            "sourceTxnHash": "0xd2ff8ac87a451858b37bc29341b53e91272e0590ba96899d8ce920ac4eb34de9",
            "status": true,
            "timestamp": "2024-06-02T07:23:35Z",
            "transactionFee": "0.000390934873532006",
            "txnHash": "0xd2ff8ac87a451858b37bc29341b53e91272e0590ba96899d8ce920ac4eb34de9",
            "txnIndex": 70,
            "type": 2,
            "value": "0"
        },
        "fund_flow": [],
        "token_infos": [
            {
                "address": "0xc02aaa39b223fe8d0a0e5c4f27ead9083c756cc2",
                "decimals": 18
            },
            {
                "address": "0xeeeeeeeeeeeeeeeeeeeeeeeeeeeeeeeeeeeeeeee",
                "decimals": 18
            }
        ]
    },
    "address_label": {
        "labels": [
            {
                "address": "0xeeeeeeeeeeeeeeeeeeeeeeeeeeeeeeeeeeeeeeee",
                "label": "Ether"
            },
            {
                "address": "0x97a9a15168c22b3c137e6381037e1499c8ad0978",
                "label": "Data Ownership Protocol: DOP Token"
            },
            {
                "address": "0x0000000000000000000000000000000000000001",
                "label": "Precompiled"
            },
            {
                "address": "0x0000000000000000000000000000000000000002",
                "label": "Precompiled"
            },
            {
                "address": "0x0000000000000000000000000000000000000003",
                "label": "Precompiled"
            },
            {
                "address": "0x0000000000000000000000000000000000000004",
                "label": "Precompiled"
            }
        ]
    },
    "trace": {
        "accountLabels": null,
        "dataMap": {
            "-1": {
                "invocation": {
                    "address": "0x123063afaeaa096ffbb2168615738654cf09bf81",
                    "callData": "",
                    "decodedMethod": null,
                    "errorInfo": "",
                    "fromAddress": "",
                    "gasUsed": 0,
                    "id": -1,
                    "methodDecoded": false,
                    "operation": "",
                    "output": "",
                    "revert": false,
                    "revertMessage": "",
                    "selector": "",
                    "status": false,
                    "value": ""
                },
                "nodeType": 0
            },
            "0": {
                "invocation": {
                    "address": "0x97a9a15168c22b3c137e6381037e1499c8ad0978",
                    "callData": "0x000000000000000000000000953be9c1adb9c651bbec52e614c06eee7ff9aa270000000000000000000000000000000000000001431e0fae6d7217ca9fffffff",
                    "decodedMethod": {
                        "callParams": [
                            {
                                "name": "spender",
                                "type": "address",
                                "value": "0x953be9c1adb9c651bbec52e614c06eee7ff9aa27"
                            },
                            {
                                "decimalAvailable": true,
                                "name": "value",
                                "type": "uint256",
                                "value": "99,999,999,999,999,999,999,999,999,999"
                            }
                        ],
                        "constructorArguments": "",
                        "name": "approve",
                        "returnParams": [
                            {
                                "name": "",
                                "type": "bool",
                                "value": true
                            }
                        ],
                        "signature": "approve(address,uint256)"
                    },
                    "errorInfo": "",
                    "fromAddress": "0x123063afaeaa096ffbb2168615738654cf09bf81",
                    "gasUsed": 46429,
                    "id": 0,
                    "methodDecoded": true,
                    "operation": "CALL",
                    "output": "0x0000000000000000000000000000000000000000000000000000000000000001",
                    "revert": false,
                    "revertMessage": "",
                    "selector": "0x095ea7b3",
                    "status": true,
                    "value": "0"
                },
                "nodeType": 0
            },
            "1": {
                "event": {
                    "contract": "0x97a9a15168c22b3c137e6381037e1499c8ad0978",
                    "decodedLog": {
                        "name": "Approval",
                        "params": [
                            {
                                "name": "owner",
                                "type": "address",
                                "value": "0x123063afaeaa096ffbb2168615738654cf09bf81"
                            },
                            {
                                "name": "spender",
                                "type": "address",
                                "value": "0x953be9c1adb9c651bbec52e614c06eee7ff9aa27"
                            },
                            {
                                "decimalAvailable": true,
                                "name": "value",
                                "type": "uint256",
                                "value": "99,999,999,999,999,999,999,999,999,999"
                            }
                        ],
                        "signature": "Approval(address,address,uint256)"
                    },
                    "id": 1,
                    "logData": "0x0000000000000000000000000000000000000001431e0fae6d7217ca9fffffff",
                    "logDecoded": true,
                    "operation": "EVENT",
                    "revert": false,
                    "status": true,
                    "topics": [
                        "0x8c5be1e5ebec7d5bd14f71427d1e84f3dd0314c0f7b2291e5b200ac8c7c3b925",
                        "0x000000000000000000000000123063afaeaa096ffbb2168615738654cf09bf81",
                        "0x000000000000000000000000953be9c1adb9c651bbec52e614c06eee7ff9aa27"
                    ]
                },
                "nodeType": 1
            }
        },
        "gasFlame": [
            {
                "children": [
                    {
                        "children": [
                            {
                                "children": [],
                                "depth": 0,
                                "name": "Initial Gas",
                                "value": 21716
                            },
                            {
                                "children": [],
                                "depth": 0,
                                "name": "Executed Gas",
                                "value": 24713
                            }
                        ],
                        "depth": -1,
                        "name": "Actual Gas Used",
                        "value": 46429
                    },
                    {
                        "children": [],
                        "depth": -1,
                        "name": "Refunded Gas",
                        "value": 0
                    }
                ],
                "depth": -2,
                "name": "Total Gas",
                "value": 46429
            }
        ],
        "isConfirmed": true,
        "mainTrace": [
            {
                "children": [
                    {
                        "children": [
                            {
                                "children": [],
                                "depth": 1,
                                "id": 1,
                                "order": 1
                            }
                        ],
                        "depth": 0,
                        "id": 0,
                        "order": 0
                    }
                ],
                "depth": -1,
                "id": -1,
                "order": -1
            }
        ],
        "mainTraceNodeCount": 2,
        "parentIdMap": {
            "0": -1,
            "1": 0
        },
        "tidyTrace": [
            {
                "children": [
                    {
                        "children": [
                            {
                                "children": [],
                                "depth": 1,
                                "id": 1,
                                "order": 1
                            }
                        ],
                        "depth": 0,
                        "id": 0,
                        "order": 0
                    }
                ],
                "depth": -1,
                "id": -1,
                "order": -1
            }
        ],
        "tidyTraceNodeCount": 2
    },
    "state_change": {
        "stateChanges": [
            {
                "address": "0x97a9a15168c22b3c137e6381037e1499c8ad0978",
                "erc": "ERC-20",
                "slots": [
                    {
                        "current": "0x0000000000000000000000000000000000000001431e0fae6d7217ca9fffffff",
                        "key": "0xde55f2abc08c8d9de4d65847773179766218651b3765218b57b3b48d90ce4196",
                        "prev": "0x0000000000000000000000000000000000000000000000000000000000000000"
                    }
                ],
                "storageVariables": [
                    {
                        "name": "_allowances",
                        "type": "mapping(address => mapping(address => uint256))",
                        "value": {
                            "pairs": [
                                {
                                    "key": "0x123063afaeaa096ffbb2168615738654cf09bf81",
                                    "value": {
                                        "pairs": [
                                            {
                                                "key": "0x953be9c1adb9c651bbec52e614c06eee7ff9aa27",
                                                "value": {
                                                    "current": "99999999999999999999999999999",
                                                    "prev": "0",
                                                    "typeTag": 1
                                                }
                                            }
                                        ],
                                        "typeTag": 4
                                    }
                                }
                            ],
                            "typeTag": 4
                        }
                    }
                ]
            }
        ]
    }
}