{
    "balance_change": {
        "balanceChanges": [
            {
                "account": "0x010c030a708779781206800520fcd595c8f70f70",
                "assets": [
                    {
                        "address": "0xe41d2489571d322189246dafa5ebde1f4699f498",
                        "amount": "2.38",
                        "iconUrl": "https://assets.blocksec.com/icon/6c4cfed2c799afeb85b9e6ad087e66bdd588f8169e94dcf9e90f3048ceb6c6f3.png",
                        "isERC1155": false,
                        "isERC721": false,
                        "sign": false,
                        "value": ""
                    }
                ]
            },
            {
                "account": "0xc15b75984948569288ab4892295f82dc084cbfde",
                "assets": [
                    {
                        "address": "0xe41d2489571d322189246dafa5ebde1f4699f498",
                        "amount": "2.38",
                        "iconUrl": "https://assets.blocksec.com/icon/6c4cfed2c799afeb85b9e6ad087e66bdd588f8169e94dcf9e90f3048ceb6c6f3.png",
                        "isERC1155": false,
                        "isERC721": false,
                        "sign": true,
                        "value": ""
                    }
                ]
            }
        ]
    },
    "profile": {
        "basic_info": {
            "baseFee": "",
            "blockNumber": 6809410,
            "callData": "0xa9059cbb000000000000000000000000c15b75984948569288ab4892295f82dc084cbfde00000000000000000000000000000000000000000000000021077563e56e0000",
            "debugEnable": true,
            "errorInfo": "",
            "eventCount": 1,
            "feeRecipient": "0xea674fdde714fd979de3edf0f56aa9716b898ec8",
            "formatValue": "0",
            "gasLimit": 60000,
            "gasPrice": "10",
            "gasUsed": 52042,
            "intTxnCount": 0,
            "internalRevert": false,
            "internalRevertMessage": "",
            "isContractCreation": false,
            "isFlashloan": false,
            "maxFee": "",
            "nonce": 1,
            "overwritedBlockNumber": -1,
            "priorityFee": "",
            "receiver": "0xe41d2489571d322189246dafa5ebde1f4699f498",
            "revertMessage": "",
            "sender": "0x010c030a708779781206800520fcd595c8f70f70",
            "simulationEnable": true,
            "sourceTxnHash": "0xd2cbbd021402b47e5aa60e72adda51d81346f0d3356c1423be94c60d637d7677",
            "status": true,
            "timestamp": "2018-12-02T00:24:41Z",
            "transactionFee": "0.00052042",
            "txnHash": "0xd2cbbd021402b47e5aa60e72adda51d81346f0d3356c1423be94c60d637d7677",
            "txnIndex": 87,
            "type": 0,
            "value": "0"
        },
        "fund_flow": [
            {
                "amount": "2.38",
                "from": "0x010c030a708779781206800520fcd595c8f70f70",
                "id": 1,
                "isERC1155": false,
                "isERC721": false,
                "isReverted": false,
                "order": 1,
                "to": "0xc15b75984948569288ab4892295f82dc084cbfde",
                "token": "0xe41d2489571d322189246dafa5ebde1f4699f498"
            }
        ],
        "token_infos": [
            {
                "address": "0xc02aaa39b223fe8d0a0e5c4f27ead9083c756cc2",
                "decimals": 18
            },
            {
                "address": "0xe41d2489571d322189246dafa5ebde1f4699f498",
                "decimals": 18
            },
            {
                "address": "0xeeeeeeeeeeeeeeeeeeeeeeeeeeeeeeeeeeeeeeee",
                "decimals": 18
            }
        ]
    },
    "address_label": {
        "labels": [
            {
                "address": "0x0000000000000000000000000000000000000001",
                "label": "Precompiled"
            },
            {
                "address": "0x0000000000000000000000000000000000000002",
                "label": "Precompiled"
            },
            {
                "address": "0x0000000000000000000000000000000000000003",
                "label": "Precompiled"
            },
            {
                "address": "0x0000000000000000000000000000000000000004",
                "label": "Precompiled"
            },
            {
                "address": "0xeeeeeeeeeeeeeeeeeeeeeeeeeeeeeeeeeeeeeeee",
                "label": "Ether"
            },
            {
                "address": "0xe41d2489571d322189246dafa5ebde1f4699f498",
                "label": "0x: ZRX Token"
            }
        ]
    },
    "trace": {
        "accountLabels": null,
        "dataMap": {
            "-1": {
                "invocation": {
                    "address": "0x010c030a708779781206800520fcd595c8f70f70",
                    "callData": "",
                    "decodedMethod": null,
                    "errorInfo": "",
                    "fromAddress": "",
                    "gasUsed": 0,
                    "id": -1,
                    "methodDecoded": false,
                    "operation": "",
                    "output": "",
                    "revert": false,
                    "revertMessage": "",
                    "selector": "",
                    "status": false,
                    "value": ""
                },
                "nodeType": 0
            },
            "0": {
                "invocation": {
                    "address": "0xe41d2489571d322189246dafa5ebde1f4699f498",
                    "callData": "0x000000000000000000000000c15b75984948569288ab4892295f82dc084cbfde00000000000000000000000000000000000000000000000021077563e56e0000",
                    "decodedMethod": {
                        "callParams": [
                            {
                                "name": "_to",
                                "type": "address",
                                "value": "0xc15b75984948569288ab4892295f82dc084cbfde"
                            },
                            {
                                "decimalAvailable": true,
                                "name": "_value",
                                "type": "uint256",
                                "value": "2,380,000,000,000,000,000"
                            }
                        ],
                        "constructorArguments": "",
                        "name": "transfer",
                        "returnParams": [
                            {
                                "name": "",
                                "type": "bool",
                                "value": true
                            }
                        ],
                        "signature": "transfer(address,uint256)"
                    },
                    "errorInfo": "",
                    "fromAddress": "0x010c030a708779781206800520fcd595c8f70f70",
                    "gasUsed": 52042,
                    "id": 0,
                    "methodDecoded": true,
                    "operation": "CALL",
                    "output": "0x0000000000000000000000000000000000000000000000000000000000000001",
                    "revert": false,
                    "revertMessage": "",
                    "selector": "0xa9059cbb",
                    "status": true,
                    "value": "0"
                },
                "nodeType": 0
            },
            "1": {
                "event": {
                    "contract": "0xe41d2489571d322189246dafa5ebde1f4699f498",
                    "decodedLog": {
                        "name": "Transfer",
                        "params": [
                            {
                                "name": "_from",
                                "type": "address",
                                "value": "0x010c030a708779781206800520fcd595c8f70f70"
                            },
                            {
                                "name": "_to",
                                "type": "address",
                                "value": "0xc15b75984948569288ab4892295f82dc084cbfde"
                            },
                            {
                                "decimalAvailable": true,
                                "name": "_value",
                                "type": "uint256",
                                "value": "2,380,000,000,000,000,000"
                            }
                        ],
                        "signature": "Transfer(address,address,uint256)"
                    },
                    "id": 1,
                    "logData": "0x00000000000000000000000000000000000000000000000021077563e56e0000",
                    "logDecoded": true,
                    "operation": "EVENT",
                    "revert": false,
                    "status": true,
                    "topics": [
                        "0xddf252ad1be2c89b69c2b068fc378daa952ba7f163c4a11628f55a4df523b3ef",
                        "0x000000000000000000000000010c030a708779781206800520fcd595c8f70f70",
                        "0x000000000000000000000000c15b75984948569288ab4892295f82dc084cbfde"
                    ]
                },
                "nodeType": 1
            }
        },
        "gasFlame": [
            {
                "children": [
                    {
                        "children": [
                            {
                                "children": [],
                                "depth": 0,
                                "name": "Initial Gas",
                                "value": 23192
                            },
                            {
                                "children": [],
                                "depth": 0,
                                "name": "Executed Gas",
                                "value": 28850
                            }
                        ],
                        "depth": -1,
                        "name": "Actual Gas Used",
                        "value": 52042
                    },
                    {
                        "children": [],
                        "depth": -1,
                        "name": "Refunded Gas",
                        "value": 0
                    }
                ],
                "depth": -2,
                "name": "Total Gas",
                "value": 52042
            }
        ],
        "isConfirmed": true,
        "mainTrace": [
            {
                "children": [
                    {
                        "children": [
                            {
                                "children": [],
                                "depth": 1,
                                "id": 1,
                                "order": 1
                            }
                        ],
                        "depth": 0,
                        "id": 0,
                        "order": 0
                    }
                ],
                "depth": -1,
                "id": -1,
                "order": -1
            }
        ],
        "mainTraceNodeCount": 2,
        "parentIdMap": {
            "0": -1,
            "1": 0
        },
        "tidyTrace": [
            {
                "children": [
                    {
                        "children": [
                            {
                                "children": [],
                                "depth": 1,
                                "id": 1,
                                "order": 1
                            }
                        ],
                        "depth": 0,
                        "id": 0,
                        "order": 0
                    }
                ],
                "depth": -1,
                "id": -1,
                "order": -1
            }
        ],
        "tidyTraceNodeCount": 2
    },
    "state_change": {
        "stateChanges": [
            {
                "address": "0xe41d2489571d322189246dafa5ebde1f4699f498",
                "erc": "ERC-20",
                "slots": [
                    {
                        "current": "0x0000000000000000000000000000000000000000000000000007b5181c8fc000",
                        "key": "0xdd6748f8d01be35cbfdf5c2e9b047a7d90ef64937bdc5d9fef53d563d12dad49",
                        "prev": "0x000000000000000000000000000000000000000000000000210f2a7c01fdc000"
                    },
                    {
                        "current": "0x00000000000000000000000000000000000000000000000021077563e56e0000",
                        "key": "0x3fd9d46366a4da2d85ef502d32f24dd0c2c71b13ecb345e897be7b661e7d61c1",
                        "prev": "0x0000000000000000000000000000000000000000000000000000000000000000"
                    }
                ],
                "storageVariables": []
            }
        ]
    }
}