{
    "balance_change": {
        "balanceChanges": []
    },
    "profile": {
        "basic_info": {
            "baseFee": "",
            "blockNumber": 3834730,
            "callData": "0xe27fe50f0000000000000000000000000000000000000000000000000000000000000020000000000000000000000000000000000000000000000000000000000000000466b27cc1f06caa1a4e9c1216e238e0da635d91a48be05fab6920122b4553edb102085981f7cd0eae3fc7a94597e624ef8e3d4f0b347d91c523d00f67be7d5f534aed74951fbea1350f6484ddfab4411a306392294a1e64a8155d860f8975106076383c523d0068763d75ae2654d1e3d7a5d91fc679be8acd5beef9b0ad8bb200",
            "debugEnable": true,
            "errorInfo": "",
            "eventCount": 4,
            "feeRecipient": "0x73b8865eda227d6fffabc83c78124dea8c347fea",
            "formatValue": "0",
            "gasLimit": 300000,
            "gasPrice": "22.074227857",
            "gasUsed": 174713,
            "intTxnCount": 4,
            "internalRevert": false,
            "internalRevertMessage": "",
            "isContractCreation": false,
            "isFlashloan": false,
            "maxFee": "",
            "nonce": 2,
            "overwritedBlockNumber": -1,
            "priorityFee": "",
            "receiver": "0x6090a6e47849629b7245dfa1ca21d94cd15878ef",
            "revertMessage": "",
            "sender": "0x792e40d7143bc6de4f5b8574ea2c81811ed91fd1",
            "simulationEnable": true,
            "sourceTxnHash": "0xd2cfdda1100134a4bdb706b36824549aa2b8818b1a0740eb48e048571e94276c",
            "status": true,
            "timestamp": "2017-06-07T12:45:06Z",
            "transactionFee": "0.003856654571580041",
            "txnHash": "0xd2cfdda1100134a4bdb706b36824549aa2b8818b1a0740eb48e048571e94276c",
            "txnIndex": 5,
            "type": 0,
            "value": "0"
        },
        "fund_flow": [],
        "token_infos": [
            {
                "address": "0xc02aaa39b223fe8d0a0e5c4f27ead9083c756cc2",
                "decimals": 18
            },
            {
                "address": "0xeeeeeeeeeeeeeeeeeeeeeeeeeeeeeeeeeeeeeeee",
                "decimals": 18
            }
        ]
    },
    "address_label": {
        "labels": [
            {
                "address": "0x6090a6e47849629b7245dfa1ca21d94cd15878ef",
                "label": "ENS: Old Registrar"
            },
            {
                "address": "0x314159265dd8dbb310642f98f50c066173c1259b",
                "label": "ENS: Eth Name Service"
            },
            {
                "address": "0x0000000000000000000000000000000000000001",
                "label": "Precompiled"
            },
            {
                "address": "0x0000000000000000000000000000000000000002",
                "label": "Precompiled"
            },
            {
                "address": "0x0000000000000000000000000000000000000003",
                "label": "Precompiled"
            },
            {
                "address": "0x0000000000000000000000000000000000000004",
                "label": "Precompiled"
            },
            {
                "address": "0xeeeeeeeeeeeeeeeeeeeeeeeeeeeeeeeeeeeeeeee",
                "label": "Ether"
            }
        ]
    },
    "trace": {
        "accountLabels": null,
        "dataMap": {
            "-1": {
                "invocation": {
                    "address": "0x792e40d7143bc6de4f5b8574ea2c81811ed91fd1",
                    "callData": "",
                    "decodedMethod": null,
                    "errorInfo": "",
                    "fromAddress": "",
                    "gasUsed": 0,
                    "id": -1,
                    "methodDecoded": false,
                    "operation": "",
                    "output": "",
                    "revert": false,
                    "revertMessage": "",
                    "selector": "",
                    "status": false,
                    "value": ""
                },
                "nodeType": 0
            },
            "0": {
                "invocation": {
                    "address": "0x6090a6e47849629b7245dfa1ca21d94cd15878ef",
                    "callData": "0x0000000000000000000000000000000000000000000000000000000000000020000000000000000000000000000000000000000000000000000000000000000466b27cc1f06caa1a4e9c1216e238e0da635d91a48be05fab6920122b4553edb102085981f7cd0eae3fc7a94597e624ef8e3d4f0b347d91c523d00f67be7d5f534aed74951fbea1350f6484ddfab4411a306392294a1e64a8155d860f8975106076383c523d0068763d75ae2654d1e3d7a5d91fc679be8acd5beef9b0ad8bb200",
                    "decodedMethod": {
                        "callParams": [
                            {
                                "name": "_hashes",
                                "type": "bytes32[]",
                                "value": [
                                    "0x66b27cc1f06caa1a4e9c1216e238e0da635d91a48be05fab6920122b4553edb1",
                                    "0x02085981f7cd0eae3fc7a94597e624ef8e3d4f0b347d91c523d00f67be7d5f53",
                                    "0x4aed74951fbea1350f6484ddfab4411a306392294a1e64a8155d860f89751060",
                                    "0x76383c523d0068763d75ae2654d1e3d7a5d91fc679be8acd5beef9b0ad8bb200"
                                ]
                            }
                        ],
                        "constructorArguments": "",
                        "name": "startAuctions",
                        "returnParams": [],
                        "signature": "startAuctions(bytes32[])"
                    },
                    "errorInfo": "",
                    "fromAddress": "0x792e40d7143bc6de4f5b8574ea2c81811ed91fd1",
                    "gasUsed": 174713,
                    "id": 0,
                    "methodDecoded": true,
                    "operation": "CALL",
                    "output": "",
                    "revert": false,
                    "revertMessage": "",
                    "selector": "0xe27fe50f",
                    "status": true,
                    "value": "0"
                },
                "nodeType": 0
            },
            "1": {
                "invocation": {
                    "address": "0x314159265dd8dbb310642f98f50c066173c1259b",
                    "callData": "0x93cdeb708b7545dc668eb9280176169d1c33cfd8ed6f04690a0bcc88a93fc4ae",
                    "decodedMethod": {
                        "callParams": [
                            {
                                "name": "node",
                                "type": "bytes32",
                                "value": "0x93cdeb708b7545dc668eb9280176169d1c33cfd8ed6f04690a0bcc88a93fc4ae"
                            }
                        ],
                        "constructorArguments": "",
                        "name": "owner",
                        "returnParams": [
                            {
                                "name": "",
                                "type": "address",
                                "value": "0x6090a6e47849629b7245dfa1ca21d94cd15878ef"
                            }
                        ],
                        "signature": "owner(bytes32)"
                    },
                    "errorInfo": "",
                    "fromAddress": "0x6090a6e47849629b7245dfa1ca21d94cd15878ef",
                    "gasUsed": 432,
                    "id": 1,
                    "methodDecoded": true,
                    "operation": "CALL",
                    "output": "0x0000000000000000000000006090a6e47849629b7245dfa1ca21d94cd15878ef",
                    "revert": false,
                    "revertMessage": "",
                    "selector": "0x02571be3",
                    "status": true,
                    "value": "0"
                },
                "nodeType": 0
            },
            "2": {
                "event": {
                    "contract": "0x6090a6e47849629b7245dfa1ca21d94cd15878ef",
                    "decodedLog": {
                        "name": "AuctionStarted",
                        "params": [
                            {
                                "name": "hash",
                                "type": "bytes32",
                                "value": "0x66b27cc1f06caa1a4e9c1216e238e0da635d91a48be05fab6920122b4553edb1"
                            },
                            {
                                "name": "registrationDate",
                                "type": "uint256",
                                "value": "1,497,271,506"
                            }
                        ],
                        "signature": "AuctionStarted(bytes32,uint256)"
                    },
                    "id": 2,
                    "logData": "0x00000000000000000000000000000000000000000000000000000000593e8cd2",
                    "logDecoded": true,
                    "operation": "EVENT",
                    "revert": false,
                    "status": true,
                    "topics": [
                        "0x87e97e825a1d1fa0c54e1d36c7506c1dea8b1efd451fe68b000cf96f7cf40003",
                        "0x66b27cc1f06caa1a4e9c1216e238e0da635d91a48be05fab6920122b4553edb1"
                    ]
                },
                "nodeType": 1
            },
            "3": {
                "invocation": {
                    "address": "0x314159265dd8dbb310642f98f50c066173c1259b",
                    "callData": "0x93cdeb708b7545dc668eb9280176169d1c33cfd8ed6f04690a0bcc88a93fc4ae",
                    "decodedMethod": {
                        "callParams": [
                            {
                                "name": "node",
                                "type": "bytes32",
                                "value": "0x93cdeb708b7545dc668eb9280176169d1c33cfd8ed6f04690a0bcc88a93fc4ae"
                            }
                        ],
                        "constructorArguments": "",
                        "name": "owner",
                        "returnParams": [
                            {
                                "name": "",
                                "type": "address",
                                "value": "0x6090a6e47849629b7245dfa1ca21d94cd15878ef"
                            }
                        ],
                        "signature": "owner(bytes32)"
                    },
                    "errorInfo": "",
                    "fromAddress": "0x6090a6e47849629b7245dfa1ca21d94cd15878ef",
                    "gasUsed": 432,
                    "id": 3,
                    "methodDecoded": true,
                    "operation": "CALL",
                    "output": "0x0000000000000000000000006090a6e47849629b7245dfa1ca21d94cd15878ef",
                    "revert": false,
                    "revertMessage": "",
                    "selector": "0x02571be3",
                    "status": true,
                    "value": "0"
                },
                "nodeType": 0
            },
            "4": {
                "event": {
                    "contract": "0x6090a6e47849629b7245dfa1ca21d94cd15878ef",
                    "decodedLog": {
                        "name": "AuctionStarted",
                        "params": [
                            {
                                "name": "hash",
                                "type": "bytes32",
                                "value": "0x02085981f7cd0eae3fc7a94597e624ef8e3d4f0b347d91c523d00f67be7d5f53"
                            },
                            {
                                "name": "registrationDate",
                                "type": "uint256",
                                "value": "1,497,271,506"
                            }
                        ],
                        "signature": "AuctionStarted(bytes32,uint256)"
                    },
                    "id": 4,
                    "logData": "0x00000000000000000000000000000000000000000000000000000000593e8cd2",
                    "logDecoded": true,
                    "operation": "EVENT",
                    "revert": false,
                    "status": true,
                    "topics": [
                        "0x87e97e825a1d1fa0c54e1d36c7506c1dea8b1efd451fe68b000cf96f7cf40003",
                        "0x02085981f7cd0eae3fc7a94597e624ef8e3d4f0b347d91c523d00f67be7d5f53"
                    ]
                },
                "nodeType": 1
            },
            "5": {
                "invocation": {
                    "address": "0x314159265dd8dbb310642f98f50c066173c1259b",
                    "callData": "0x93cdeb708b7545dc668eb9280176169d1c33cfd8ed6f04690a0bcc88a93fc4ae",
                    "decodedMethod": {
                        "callParams": [
                            {
                                "name": "node",
                                "type": "bytes32",
                                "value": "0x93cdeb708b7545dc668eb9280176169d1c33cfd8ed6f04690a0bcc88a93fc4ae"
                            }
                        ],
                        "constructorArguments": "",
                        "name": "owner",
                        "returnParams": [
                            {
                                "name": "",
                                "type": "address",
                                "value": "0x6090a6e47849629b7245dfa1ca21d94cd15878ef"
                            }
                        ],
                        "signature": "owner(bytes32)"
                    },
                    "errorInfo": "",
                    "fromAddress": "0x6090a6e47849629b7245dfa1ca21d94cd15878ef",
                    "gasUsed": 432,
                    "id": 5,
                    "methodDecoded": true,
                    "operation": "CALL",
                    "output": "0x0000000000000000000000006090a6e47849629b7245dfa1ca21d94cd15878ef",
                    "revert": false,
                    "revertMessage": "",
                    "selector": "0x02571be3",
                    "status": true,
                    "value": "0"
                },
                "nodeType": 0
            },
            "6": {
                "event": {
                    "contract": "0x6090a6e47849629b7245dfa1ca21d94cd15878ef",
                    "decodedLog": {
                        "name": "AuctionStarted",
                        "params": [
                            {
                                "name": "hash",
                                "type": "bytes32",
                                "value": "0x4aed74951fbea1350f6484ddfab4411a306392294a1e64a8155d860f89751060"
                            },
                            {
                                "name": "registrationDate",
                                "type": "uint256",
                                "value": "1,497,271,506"
                            }
                        ],
                        "signature": "AuctionStarted(bytes32,uint256)"
                    },
                    "id": 6,
                    "logData": "0x00000000000000000000000000000000000000000000000000000000593e8cd2",
                    "logDecoded": true,
                    "operation": "EVENT",
                    "revert": false,
                    "status": true,
                    "topics": [
                        "0x87e97e825a1d1fa0c54e1d36c7506c1dea8b1efd451fe68b000cf96f7cf40003",
                        "0x4aed74951fbea1350f6484ddfab4411a306392294a1e64a8155d860f89751060"
                    ]
                },
                "nodeType": 1
            },
            "7": {
                "invocation": {
                    "address": "0x314159265dd8dbb310642f98f50c066173c1259b",
                    "callData": "0x93cdeb708b7545dc668eb9280176169d1c33cfd8ed6f04690a0bcc88a93fc4ae",
                    "decodedMethod": {
                        "callParams": [
                            {
                                "name": "node",
                                "type": "bytes32",
                                "value": "0x93cdeb708b7545dc668eb9280176169d1c33cfd8ed6f04690a0bcc88a93fc4ae"
                            }
                        ],
                        "constructorArguments": "",
                        "name": "owner",
                        "returnParams": [
                            {
                                "name": "",
                                "type": "address",
                                "value": "0x6090a6e47849629b7245dfa1ca21d94cd15878ef"
                            }
                        ],
                        "signature": "owner(bytes32)"
                    },
                    "errorInfo": "",
                    "fromAddress": "0x6090a6e47849629b7245dfa1ca21d94cd15878ef",
                    "gasUsed": 432,
                    "id": 7,
                    "methodDecoded": true,
                    "operation": "CALL",
                    "output": "0x0000000000000000000000006090a6e47849629b7245dfa1ca21d94cd15878ef",
                    "revert": false,
                    "revertMessage": "",
                    "selector": "0x02571be3",
                    "status": true,
                    "value": "0"
                },
                "nodeType": 0
            },
            "8": {
                "event": {
                    "contract": "0x6090a6e47849629b7245dfa1ca21d94cd15878ef",
                    "decodedLog": {
                        "name": "AuctionStarted",
                        "params": [
                            {
                                "name": "hash",
                                "type": "bytes32",
                                "value": "0x76383c523d0068763d75ae2654d1e3d7a5d91fc679be8acd5beef9b0ad8bb200"
                            },
                            {
                                "name": "registrationDate",
                                "type": "uint256",
                                "value": "1,497,271,506"
                            }
                        ],
                        "signature": "AuctionStarted(bytes32,uint256)"
                    },
                    "id": 8,
                    "logData": "0x00000000000000000000000000000000000000000000000000000000593e8cd2",
                    "logDecoded": true,
                    "operation": "EVENT",
                    "revert": false,
                    "status": true,
                    "topics": [
                        "0x87e97e825a1d1fa0c54e1d36c7506c1dea8b1efd451fe68b000cf96f7cf40003",
                        "0x76383c523d0068763d75ae2654d1e3d7a5d91fc679be8acd5beef9b0ad8bb200"
                    ]
                },
                "nodeType": 1
            }
        },
        "gasFlame": [
            {
                "children": [
                    {
                        "children": [
                            {
                                "children": [],
                                "depth": 0,
                                "name": "Initial Gas",
                                "value": 30232
                            },
                            {
                                "children": [
                                    {
                                        "children": [],
                                        "depth": 1,
                                        "name": "owner",
                                        "value": 432
                                    },
                                    {
                                        "children": [],
                                        "depth": 1,
                                        "name": "owner",
                                        "value": 432
                                    },
                                    {
                                        "children": [],
                                        "depth": 1,
                                        "name": "owner",
                                        "value": 432
                                    },
                                    {
                                        "children": [],
                                        "depth": 1,
                                        "name": "owner",
                                        "value": 432
                                    }
                                ],
                                "depth": 0,
                                "name": "Executed Gas",
                                "value": 144481
                            }
                        ],
                        "depth": -1,
                        "name": "Actual Gas Used",
                        "value": 174713
                    },
                    {
                        "children": [],
                        "depth": -1,
                        "name": "Refunded Gas",
                        "value": 0
                    }
                ],
                "depth": -2,
                "name": "Total Gas",
                "value": 174713
            }
        ],
        "isConfirmed": true,
        "mainTrace": [
            {
                "children": [
                    {
                        "children": [
                            {
                                "children": [],
                                "depth": 1,
                                "id": 1,
                                "order": 1
                            },
                            {
                                "children": [],
                                "depth": 1,
                                "id": 2,
                                "order": 2
                            },
                            {
                                "children": [],
                                "depth": 1,
                                "id": 3,
                                "order": 3
                            },
                            {
                                "children": [],
                                "depth": 1,
                                "id": 4,
                                "order": 4
                            },
                            {
                                "children": [],
                                "depth": 1,
                                "id": 5,
                                "order": 5
                            },
                            {
                                "children": [],
                                "depth": 1,
                                "id": 6,
                                "order": 6
                            },
                            {
                                "children": [],
                                "depth": 1,
                                "id": 7,
                                "order": 7
                            },
                            {
                                "children": [],
                                "depth": 1,
                                "id": 8,
                                "order": 8
                            }
                        ],
                        "depth": 0,
                        "id": 0,
                        "order": 0
                    }
                ],
                "depth": -1,
                "id": -1,
                "order": -1
            }
        ],
        "mainTraceNodeCount": 9,
        "parentIdMap": {
            "0": -1,
            "1": 0,
            "2": 0,
            "3": 0,
            "4": 0,
            "5": 0,
            "6": 0,
            "7": 0,
            "8": 0
        },
        "tidyTrace": [
            {
                "children": [
                    {
                        "children": [
                            {
                                "children": [],
                                "depth": 1,
                                "id": 1,
                                "order": 1
                            },
                            {
                                "children": [],
                                "depth": 1,
                                "id": 2,
                                "order": 2
                            },
                            {
                                "children": [],
                                "depth": 1,
                                "id": 3,
                                "order": 3
                            },
                            {
                                "children": [],
                                "depth": 1,
                                "id": 4,
                                "order": 4
                            },
                            {
                                "children": [],
                                "depth": 1,
                                "id": 5,
                                "order": 5
                            },
                            {
                                "children": [],
                                "depth": 1,
                                "id": 6,
                                "order": 6
                            },
                            {
                                "children": [],
                                "depth": 1,
                                "id": 7,
                                "order": 7
                            },
                            {
                                "children": [],
                                "depth": 1,
                                "id": 8,
                                "order": 8
                            }
                        ],
                        "depth": 0,
                        "id": 0,
                        "order": 0
                    }
                ],
                "depth": -1,
                "id": -1,
                "order": -1
            }
        ],
        "tidyTraceNodeCount": 9
    },
    "state_change": {
        "stateChanges": [
            {
                "address": "0x6090a6e47849629b7245dfa1ca21d94cd15878ef",
                "erc": "",
                "slots": [
                    {
                        "current": "0x00000000000000000000000000000000000000000000000000000000593e8cd2",
                        "key": "0x0a53e2d1bd87491d360aa810020c86ac217a174b07fc136ca6342a897d7f917a",
                        "prev": "0x0000000000000000000000000000000000000000000000000000000000000000"
                    },
                    {
                        "current": "0x00000000000000000000000000000000000000000000000000000000593e8cd2",
                        "key": "0x510e80c0a0a59cbd894794fd3a0ea9217875ff6ce45d2e22acd4489d082c4884",
                        "prev": "0x0000000000000000000000000000000000000000000000000000000000000000"
                    },
                    {
                        "current": "0x00000000000000000000000000000000000000000000000000000000593e8cd2",
                        "key": "0x0ebc71c5310b691c8e922ecb4f4ceb36a4190179171d17da435d9a74224f254d",
                        "prev": "0x0000000000000000000000000000000000000000000000000000000000000000"
                    },
                    {
                        "current": "0x00000000000000000000000000000000000000000000000000000000593e8cd2",
                        "key": "0x70afbf8a64a5618bd218189645371d79f454d234477e4ec573b8b29893dc0cca",
                        "prev": "0x0000000000000000000000000000000000000000000000000000000000000000"
                    }
                ],
                "storageVariables": []
            }
        ]
    }
}