{
    "balance_change": {
        "balanceChanges": [
            {
                "account": "0xddfabcdc4d8ffc6d5beaf154f18b778f892a0740",
                "assets": [
                    {
                        "address": "0x7d1afa7b718fb893db30a3abc0cfc608aacfebb0",
                        "amount": "2.27308824",
                        "iconUrl": "https://assets.blocksec.com/icon/5dc5187d80083e1e6ca5ca29581f660fdc3ebdf47eef117c3dfa3a0c07ab7d33.png",
                        "isERC1155": false,
                        "isERC721": false,
                        "sign": false,
                        "value": "4.97435013"
                    }
                ]
            },
            {
                "account": "0x95247041ca0e1220afd1a2beac6ee87fb4a3a2a6",
                "assets": [
                    {
                        "address": "0x7d1afa7b718fb893db30a3abc0cfc608aacfebb0",
                        "amount": "2.27308824",
                        "iconUrl": "https://assets.blocksec.com/icon/5dc5187d80083e1e6ca5ca29581f660fdc3ebdf47eef117c3dfa3a0c07ab7d33.png",
                        "isERC1155": false,
                        "isERC721": false,
                        "sign": true,
                        "value": "4.97435013"
                    }
                ]
            }
        ]
    },
    "profile": {
        "basic_info": {
            "baseFee": "76.898290606",
            "blockNumber": 13831122,
            "callData": "0xa9059cbb00000000000000000000000095247041ca0e1220afd1a2beac6ee87fb4a3a2a60000000000000000000000000000000000000000000000001f8ba1b600516000",
            "debugEnable": true,
            "errorInfo": "",
            "eventCount": 1,
            "feeRecipient": "0xc365c3315cf926351ccaf13fa7d19c8c4058c8e1",
            "formatValue": "0",
            "gasLimit": 250000,
            "gasPrice": "78.898290606",
            "gasUsed": 36904,
            "intTxnCount": 0,
            "internalRevert": false,
            "internalRevertMessage": "",
            "isContractCreation": false,
            "isFlashloan": false,
            "maxFee": "120",
            "nonce": 3837939,
            "overwritedBlockNumber": -1,
            "priorityFee": "2",
            "receiver": "0x7d1afa7b718fb893db30a3abc0cfc608aacfebb0",
            "revertMessage": "",
            "sender": "0xddfabcdc4d8ffc6d5beaf154f18b778f892a0740",
            "simulationEnable": true,
            "sourceTxnHash": "0xd26c09d254fbb04cb90adfe6dc4a0d8a13c9579a648f1bd6110f7333f7cb2e55",
            "status": true,
            "timestamp": "2021-12-18T19:51:31Z",
            "transactionFee": "0.002911662516523824",
            "txnHash": "0xd26c09d254fbb04cb90adfe6dc4a0d8a13c9579a648f1bd6110f7333f7cb2e55",
            "txnIndex": 23,
            "type": 2,
            "value": "0"
        },
        "fund_flow": [
            {
                "amount": "2.27308824",
                "from": "0xddfabcdc4d8ffc6d5beaf154f18b778f892a0740",
                "id": 1,
                "isERC1155": false,
                "isERC721": false,
                "isReverted": false,
                "order": 1,
                "to": "0x95247041ca0e1220afd1a2beac6ee87fb4a3a2a6",
                "token": "0x7d1afa7b718fb893db30a3abc0cfc608aacfebb0"
            }
        ],
        "token_infos": [
            {
                "address": "0xc02aaa39b223fe8d0a0e5c4f27ead9083c756cc2",
                "decimals": 18
            },
            {
                "address": "0xeeeeeeeeeeeeeeeeeeeeeeeeeeeeeeeeeeeeeeee",
                "decimals": 18
            },
            {
                "address": "0x7d1afa7b718fb893db30a3abc0cfc608aacfebb0",
                "decimals": 18
            }
        ]
    },
    "address_label": {
        "labels": [
            {
                "address": "0xeeeeeeeeeeeeeeeeeeeeeeeeeeeeeeeeeeeeeeee",
                "label": "Ether"
            },
            {
                "address": "0xddfabcdc4d8ffc6d5beaf154f18b778f892a0740",
                "label": "Coinbase 3"
            },
            {
                "address": "0x7d1afa7b718fb893db30a3abc0cfc608aacfebb0",
                "label": "Polygon (Matic): Old Matic Token"
            },
            {
                "address": "0x0000000000000000000000000000000000000001",
                "label": "Precompiled"
            },
            {
                "address": "0x0000000000000000000000000000000000000002",
                "label": "Precompiled"
            },
            {
                "address": "0x0000000000000000000000000000000000000003",
                "label": "Precompiled"
            },
            {
                "address": "0x0000000000000000000000000000000000000004",
                "label": "Precompiled"
            }
        ]
    },
    "trace": {
        "accountLabels": null,
        "dataMap": {
            "-1": {
                "invocation": {
                    "address": "0xddfabcdc4d8ffc6d5beaf154f18b778f892a0740",
                    "callData": "",
                    "decodedMethod": null,
                    "errorInfo": "",
                    "fromAddress": "",
                    "gasUsed": 0,
                    "id": -1,
                    "methodDecoded": false,
                    "operation": "",
                    "output": "",
                    "revert": false,
                    "revertMessage": "",
                    "selector": "",
                    "status": false,
                    "value": ""
                },
                "nodeType": 0
            },
            "0": {
                "invocation": {
                    "address": "0x7d1afa7b718fb893db30a3abc0cfc608aacfebb0",
                    "callData": "0x00000000000000000000000095247041ca0e1220afd1a2beac6ee87fb4a3a2a60000000000000000000000000000000000000000000000001f8ba1b600516000",
                    "decodedMethod": {
                        "callParams": [
                            {
                                "name": "to",
                                "type": "address",
                                "value": "0x95247041ca0e1220afd1a2beac6ee87fb4a3a2a6"
                            },
                            {
                                "decimalAvailable": true,
                                "name": "value",
                                "type": "uint256",
                                "value": "2,273,088,240,000,000,000"
                            }
                        ],
                        "constructorArguments": "",
                        "name": "transfer",
                        "returnParams": [
                            {
                                "name": "",
                                "type": "bool",
                                "value": true
                            }
                        ],
                        "signature": "transfer(address,uint256)"
                    },
                    "errorInfo": "",
                    "fromAddress": "0xddfabcdc4d8ffc6d5beaf154f18b778f892a0740",
                    "gasUsed": 36904,
                    "id": 0,
                    "methodDecoded": true,
                    "operation": "CALL",
                    "output": "0x0000000000000000000000000000000000000000000000000000000000000001",
                    "revert": false,
                    "revertMessage": "",
                    "selector": "0xa9059cbb",
                    "status": true,
                    "value": "0"
                },
                "nodeType": 0
            },
            "1": {
                "event": {
                    "contract": "0x7d1afa7b718fb893db30a3abc0cfc608aacfebb0",
                    "decodedLog": {
                        "name": "Transfer",
                        "params": [
                            {
                                "name": "from",
                                "type": "address",
                                "value": "0xddfabcdc4d8ffc6d5beaf154f18b778f892a0740"
                            },
                            {
                                "name": "to",
                                "type": "address",
                                "value": "0x95247041ca0e1220afd1a2beac6ee87fb4a3a2a6"
                            },
                            {
                                "decimalAvailable": true,
                                "name": "value",
                                "type": "uint256",
                                "value": "2,273,088,240,000,000,000"
                            }
                        ],
                        "signature": "Transfer(address,address,uint256)"
                    },
                    "id": 1,
                    "logData": "0x0000000000000000000000000000000000000000000000001f8ba1b600516000",
                    "logDecoded": true,
                    "operation": "EVENT",
                    "revert": false,
                    "status": true,
                    "topics": [
                        "0xddf252ad1be2c89b69c2b068fc378daa952ba7f163c4a11628f55a4df523b3ef",
                        "0x000000000000000000000000ddfabcdc4d8ffc6d5beaf154f18b778f892a0740",
                        "0x00000000000000000000000095247041ca0e1220afd1a2beac6ee87fb4a3a2a6"
                    ]
                },
                "nodeType": 1
            }
        },
        "gasFlame": [
            {
                "children": [
                    {
                        "children": [
                            {
                                "children": [],
                                "depth": 0,
                                "name": "Initial Gas",
                                "value": 21632
                            },
                            {
                                "children": [],
                                "depth": 0,
                                "name": "Executed Gas",
                                "value": 15272
                            }
                        ],
                        "depth": -1,
                        "name": "Actual Gas Used",
                        "value": 36904
                    },
                    {
                        "children": [],
                        "depth": -1,
                        "name": "Refunded Gas",
                        "value": 0
                    }
                ],
                "depth": -2,
                "name": "Total Gas",
                "value": 36904
            }
        ],
        "isConfirmed": true,
        "mainTrace": [
            {
                "children": [
                    {
                        "children": [
                            {
                                "children": [],
                                "depth": 1,
                                "id": 1,
                                "order": 1
                            }
                        ],
                        "depth": 0,
                        "id": 0,
                        "order": 0
                    }
                ],
                "depth": -1,
                "id": -1,
                "order": -1
            }
        ],
        "mainTraceNodeCount": 2,
        "parentIdMap": {
            "0": -1,
            "1": 0
        },
        "tidyTrace": [
            {
                "children": [
                    {
                        "children": [
                            {
                                "children": [],
                                "depth": 1,
                                "id": 1,
                                "order": 1
                            }
                        ],
                        "depth": 0,
                        "id": 0,
                        "order": 0
                    }
                ],
                "depth": -1,
                "id": -1,
                "order": -1
            }
        ],
        "tidyTraceNodeCount": 2
    },
    "state_change": {
        "stateChanges": [
            {
                "address": "0x7d1afa7b718fb893db30a3abc0cfc608aacfebb0",
                "erc": "ERC-20",
                "slots": [
                    {
                        "current": "0x0000000000000000000000000000000000000000000000002bed6eeda112e000",
                        "key": "0xb073d3bda7d3917f986149f556372ee6cf4020abc44cb2ec725b4092cadcbe42",
                        "prev": "0x0000000000000000000000000000000000000000000000000c61cd37a0c18000"
                    },
                    {
                        "current": "0x00000000000000000000000000000000000000000002375ce34f5f9952d5038e",
                        "key": "0x550d497e9a49678318c33bf5f550f601692f2a4ec016706efedc3e586254f326",
                        "prev": "0x00000000000000000000000000000000000000000002375d02db014f5326638e"
                    }
                ],
                "storageVariables": [
                    {
                        "name": "_balances",
                        "type": "mapping(address => uint256)",
                        "value": {
                            "pairs": [
                                {
                                    "key": "0x95247041ca0e1220afd1a2beac6ee87fb4a3a2a6",
                                    "value": {
                                        "current": "3165308080000000000",
                                        "prev": "892219840000000000",
                                        "typeTag": 1
                                    }
                                },
                                {
                                    "key": "0xddfabcdc4d8ffc6d5beaf154f18b778f892a0740",
                                    "value": {
                                        "current": "2679295275657352009024398",
                                        "prev": "2679297548745592009024398",
                                        "typeTag": 1
                                    }
                                }
                            ],
                            "typeTag": 4
                        }
                    }
                ]
            }
        ]
    }
}