{
    "balance_change": {
        "balanceChanges": [
            {
                "account": "0x24c7fc3c10c8d4ab5c9fe36be9a0abc8119c3a78",
                "assets": [
                    {
                        "address": "0xeeeeeeeeeeeeeeeeeeeeeeeeeeeeeeeeeeeeeeee",
                        "amount": "0.41398",
                        "iconUrl": "https://assets.blocksec.com/image/1663669189317-3.png",
                        "isERC1155": false,
                        "isERC721": false,
                        "sign": true,
                        "value": "1064.2204558999999698"
                    },
                    {
                        "address": "0x0000000000a39bb272e79075ade125fd351887ac",
                        "amount": "0.41398",
                        "iconUrl": "",
                        "isERC1155": false,
                        "isERC721": false,
                        "sign": false,
                        "value": "1063.9989766000000301"
                    }
                ]
            },
            {
                "account": "0x0000000000a39bb272e79075ade125fd351887ac",
                "assets": [
                    {
                        "address": "0xeeeeeeeeeeeeeeeeeeeeeeeeeeeeeeeeeeeeeeee",
                        "amount": "0.41398",
                        "iconUrl": "https://assets.blocksec.com/image/1663669189317-3.png",
                        "isERC1155": false,
                        "isERC721": false,
                        "sign": false,
                        "value": "1064.2204558999999698"
                    }
                ]
            },
            {
                "account": "0x0000000000000000000000000000000000000000",
                "assets": [
                    {
                        "address": "0x0000000000a39bb272e79075ade125fd351887ac",
                        "amount": "0.41398",
                        "iconUrl": "",
                        "isERC1155": false,
                        "isERC721": false,
                        "sign": true,
                        "value": "1063.9989766000000301"
                    }
                ]
            }
        ]
    },
    "profile": {
        "basic_info": {
            "baseFee": "26.509640452",
            "blockNumber": 20807793,
            "callData": "0x2e1a7d4d00000000000000000000000000000000000000000000000005bec09ddc1dc000",
            "debugEnable": true,
            "errorInfo": "",
            "eventCount": 1,
            "feeRecipient": "0x95222290dd7278aa3ddd389cc1e1d165cc4bafe5",
            "formatValue": "0",
            "gasLimit": 52061,
            "gasPrice": "29.419640452",
            "gasUsed": 40387,
            "intTxnCount": 2,
            "internalRevert": false,
            "internalRevertMessage": "",
            "isContractCreation": false,
            "isFlashloan": false,
            "maxFee": "44.411822621",
            "nonce": 1945,
            "overwritedBlockNumber": -1,
            "priorityFee": "2.91",
            "receiver": "0x0000000000a39bb272e79075ade125fd351887ac",
            "revertMessage": "",
            "sender": "0x24c7fc3c10c8d4ab5c9fe36be9a0abc8119c3a78",
            "simulationEnable": true,
            "sourceTxnHash": "0xd21f38529c29776e6f6226c861c4da9edfed67e0f002af4680535588234e3d5b",
            "status": true,
            "timestamp": "2024-09-22T18:04:35Z",
            "transactionFee": "0.001188171018934924",
            "txnHash": "0xd21f38529c29776e6f6226c861c4da9edfed67e0f002af4680535588234e3d5b",
            "txnIndex": 47,
            "type": 2,
            "value": "0"
        },
        "fund_flow": [
            {
                "amount": "0.41398",
                "from": "0x0000000000a39bb272e79075ade125fd351887ac",
                "id": 1,
                "isERC1155": false,
                "isERC721": false,
                "isReverted": false,
                "order": 1,
                "to": "0x24c7fc3c10c8d4ab5c9fe36be9a0abc8119c3a78",
                "token": "0xeeeeeeeeeeeeeeeeeeeeeeeeeeeeeeeeeeeeeeee"
            },
            {
                "amount": "0.41398",
                "from": "0x24c7fc3c10c8d4ab5c9fe36be9a0abc8119c3a78",
                "id": 2,
                "isERC1155": false,
                "isERC721": false,
                "isReverted": false,
                "order": 2,
                "to": "0x0000000000000000000000000000000000000000",
                "token": "0x0000000000a39bb272e79075ade125fd351887ac"
            }
        ],
        "token_infos": [
            {
                "address": "0x0000000000a39bb272e79075ade125fd351887ac",
                "decimals": 18
            },
            {
                "address": "0xc02aaa39b223fe8d0a0e5c4f27ead9083c756cc2",
                "decimals": 18
            },
            {
                "address": "0xeeeeeeeeeeeeeeeeeeeeeeeeeeeeeeeeeeeeeeee",
                "decimals": 18
            }
        ]
    },
    "address_label": {
        "labels": [
            {
                "address": "0xeeeeeeeeeeeeeeeeeeeeeeeeeeeeeeeeeeeeeeee",
                "label": "Ether"
            },
            {
                "address": "0x0000000000a39bb272e79075ade125fd351887ac",
                "label": "Blur: Bidding"
            },
            {
                "address": "0x01a656024de4b89e2d0198bf4d468e8fd2358b17",
                "label": "Blur Pool"
            },
            {
                "address": "0x0000000000000000000000000000000000000001",
                "label": "Precompiled"
            },
            {
                "address": "0x0000000000000000000000000000000000000002",
                "label": "Precompiled"
            },
            {
                "address": "0x0000000000000000000000000000000000000003",
                "label": "Precompiled"
            },
            {
                "address": "0x0000000000000000000000000000000000000004",
                "label": "Precompiled"
            }
        ]
    },
    "trace": {
        "accountLabels": null,
        "dataMap": {
            "-1": {
                "invocation": {
                    "address": "0x24c7fc3c10c8d4ab5c9fe36be9a0abc8119c3a78",
                    "callData": "",
                    "decodedMethod": null,
                    "errorInfo": "",
                    "fromAddress": "",
                    "gasUsed": 0,
                    "id": -1,
                    "methodDecoded": false,
                    "operation": "",
                    "output": "",
                    "revert": false,
                    "revertMessage": "",
                    "selector": "",
                    "status": false,
                    "value": ""
                },
                "nodeType": 0
            },
            "0": {
                "invocation": {
                    "address": "0x0000000000a39bb272e79075ade125fd351887ac",
                    "callData": "0x00000000000000000000000000000000000000000000000005bec09ddc1dc000",
                    "decodedMethod": {
                        "callParams": [
                            {
                                "name": "amount",
                                "type": "uint256",
                                "value": "413,980,000,000,000,000"
                            }
                        ],
                        "constructorArguments": "",
                        "name": "withdraw",
                        "returnParams": [],
                        "signature": "withdraw(uint256)"
                    },
                    "errorInfo": "",
                    "fromAddress": "0x24c7fc3c10c8d4ab5c9fe36be9a0abc8119c3a78",
                    "gasUsed": 40387,
                    "id": 0,
                    "methodDecoded": true,
                    "operation": "CALL",
                    "output": "",
                    "revert": false,
                    "revertMessage": "",
                    "selector": "0x2e1a7d4d",
                    "status": true,
                    "value": "0"
                },
                "nodeType": 0
            },
            "1": {
                "invocation": {
                    "address": "0x01a656024de4b89e2d0198bf4d468e8fd2358b17",
                    "callData": "0x00000000000000000000000000000000000000000000000005bec09ddc1dc000",
                    "decodedMethod": {
                        "callParams": [
                            {
                                "name": "amount",
                                "type": "uint256",
                                "value": "413,980,000,000,000,000"
                            }
                        ],
                        "constructorArguments": "",
                        "name": "withdraw",
                        "returnParams": [],
                        "signature": "withdraw(uint256)"
                    },
                    "errorInfo": "",
                    "fromAddress": "0x0000000000a39bb272e79075ade125fd351887ac",
                    "gasUsed": 14228,
                    "id": 1,
                    "methodDecoded": true,
                    "operation": "DELEGATECALL",
                    "output": "",
                    "revert": false,
                    "revertMessage": "",
                    "selector": "0x2e1a7d4d",
                    "status": true,
                    "value": "0"
                },
                "nodeType": 0
            },
            "2": {
                "invocation": {
                    "address": "0x24c7fc3c10c8d4ab5c9fe36be9a0abc8119c3a78",
                    "callData": "0x",
                    "decodedMethod": null,
                    "errorInfo": "",
                    "fromAddress": "0x0000000000a39bb272e79075ade125fd351887ac",
                    "gasUsed": 0,
                    "id": 2,
                    "methodDecoded": false,
                    "operation": "CALL",
                    "output": "",
                    "revert": false,
                    "revertMessage": "",
                    "selector": "fallback",
                    "status": true,
                    "value": "0.41398"
                },
                "nodeType": 0
            },
            "3": {
                "event": {
                    "contract": "0x0000000000a39bb272e79075ade125fd351887ac",
                    "decodedLog": {
                        "name": "Transfer",
                        "params": [
                            {
                                "name": "from",
                                "type": "address",
                                "value": "0x24c7fc3c10c8d4ab5c9fe36be9a0abc8119c3a78"
                            },
                            {
                                "name": "to",
                                "type": "address",
                                "value": "0x0000000000000000000000000000000000000000"
                            },
                            {
                                "decimalAvailable": true,
                                "name": "value",
                                "type": "uint256",
                                "value": "413,980,000,000,000,000"
                            }
                        ],
                        "signature": "Transfer(address,address,uint256)"
                    },
                    "id": 3,
                    "logData": "0x00000000000000000000000000000000000000000000000005bec09ddc1dc000",
                    "logDecoded": true,
                    "operation": "EVENT",
                    "revert": false,
                    "status": true,
                    "topics": [
                        "0xddf252ad1be2c89b69c2b068fc378daa952ba7f163c4a11628f55a4df523b3ef",
                        "0x00000000000000000000000024c7fc3c10c8d4ab5c9fe36be9a0abc8119c3a78",
                        "0x0000000000000000000000000000000000000000000000000000000000000000"
                    ]
                },
                "nodeType": 1
            }
        },
        "gasFlame": [
            {
                "children": [
                    {
                        "children": [
                            {
                                "children": [],
                                "depth": 0,
                                "name": "Initial Gas",
                                "value": 21276
                            },
                            {
                                "children": [
                                    {
                                        "children": [
                                            {
                                                "children": [],
                                                "depth": 2,
                                                "name": "fallback",
                                                "value": 0
                                            }
                                        ],
                                        "depth": 1,
                                        "name": "withdraw",
                                        "value": 14228
                                    }
                                ],
                                "depth": 0,
                                "name": "Executed Gas",
                                "value": 19111
                            }
                        ],
                        "depth": -1,
                        "name": "Actual Gas Used",
                        "value": 40387
                    },
                    {
                        "children": [],
                        "depth": -1,
                        "name": "Refunded Gas",
                        "value": 0
                    }
                ],
                "depth": -2,
                "name": "Total Gas",
                "value": 40387
            }
        ],
        "isConfirmed": true,
        "mainTrace": [
            {
                "children": [
                    {
                        "children": [
                            {
                                "children": [
                                    {
                                        "children": [],
                                        "depth": 2,
                                        "id": 2,
                                        "order": 2
                                    },
                                    {
                                        "children": [],
                                        "depth": 2,
                                        "id": 3,
                                        "order": 3
                                    }
                                ],
                                "depth": 1,
                                "id": 1,
                                "order": 1
                            }
                        ],
                        "depth": 0,
                        "id": 0,
                        "order": 0
                    }
                ],
                "depth": -1,
                "id": -1,
                "order": -1
            }
        ],
        "mainTraceNodeCount": 4,
        "parentIdMap": {
            "0": -1,
            "1": 0,
            "2": 1,
            "3": 1
        },
        "tidyTrace": [
            {
                "children": [
                    {
                        "children": [
                            {
                                "children": [
                                    {
                                        "children": [],
                                        "depth": 2,
                                        "id": 2,
                                        "order": 2
                                    },
                                    {
                                        "children": [],
                                        "depth": 2,
                                        "id": 3,
                                        "order": 3
                                    }
                                ],
                                "depth": 1,
                                "id": 1,
                                "order": 1
                            }
                        ],
                        "depth": 0,
                        "id": 0,
                        "order": 0
                    }
                ],
                "depth": -1,
                "id": -1,
                "order": -1
            }
        ],
        "tidyTraceNodeCount": 4
    },
    "state_change": {
        "stateChanges": [
            {
                "address": "0x0000000000a39bb272e79075ade125fd351887ac",
                "erc": "",
                "slots": [
                    {
                        "current": "0x0000000000000000000000000000000000000000000000000000007a8b2842dd",
                        "key": "0x9394b1a178c99e67bc4baf069c01992bef04b43ec90f26c4646e799fdd364fc7",
                        "prev": "0x00000000000000000000000000000000000000000000000005bec118674602dd"
                    }
                ],
                "storageVariables": [
                    {
                        "name": "_balances",
                        "type": "mapping(address => uint256)",
                        "value": {
                            "pairs": [
                                {
                                    "key": "0x24c7fc3c10c8d4ab5c9fe36be9a0abc8119c3a78",
                                    "value": {
                                        "current": "526320681693",
                                        "prev": "413980526320681693",
                                        "typeTag": 1
                                    }
                                }
                            ],
                            "typeTag": 4
                        }
                    }
                ]
            }
        ]
    }
}