{
    "balance_change": {
        "balanceChanges": [
            {
                "account": "0x87c574fb2df0eaa2daf5fc4a8a16dd3ce39011b1",
                "assets": [
                    {
                        "address": "0x9dffe202df7f82ba57a7f8d571628805eff7fed9",
                        "amount": "1,595",
                        "iconUrl": "",
                        "isERC1155": false,
                        "isERC721": false,
                        "sign": false,
                        "value": ""
                    }
                ]
            },
            {
                "account": "0xb48fede4c9442862b7379afa902110b64cecb296",
                "assets": [
                    {
                        "address": "0x9dffe202df7f82ba57a7f8d571628805eff7fed9",
                        "amount": "1,595",
                        "iconUrl": "",
                        "isERC1155": false,
                        "isERC721": false,
                        "sign": true,
                        "value": ""
                    }
                ]
            }
        ]
    },
    "profile": {
        "basic_info": {
            "baseFee": "",
            "blockNumber": 9902719,
            "callData": "0xa9059cbb000000000000000000000000b48fede4c9442862b7379afa902110b64cecb29600000000000000000000000000000000000000000000005677125153ec0c0000",
            "debugEnable": true,
            "errorInfo": "",
            "eventCount": 1,
            "feeRecipient": "0xd7a15baeb7ea05c9660cbe03fb7999c2c2e57625",
            "formatValue": "0",
            "gasLimit": 100000,
            "gasPrice": "20",
            "gasUsed": 40588,
            "intTxnCount": 0,
            "internalRevert": false,
            "internalRevertMessage": "",
            "isContractCreation": false,
            "isFlashloan": false,
            "maxFee": "",
            "nonce": 122449,
            "overwritedBlockNumber": -1,
            "priorityFee": "",
            "receiver": "0x9dffe202df7f82ba57a7f8d571628805eff7fed9",
            "revertMessage": "",
            "sender": "0x87c574fb2df0eaa2daf5fc4a8a16dd3ce39011b1",
            "simulationEnable": true,
            "sourceTxnHash": "0xd2443fb6e088d6387d848c0049bc09b5f02fcda6eaced5e9e8e96363c640c697",
            "status": true,
            "timestamp": "2020-04-19T11:54:05Z",
            "transactionFee": "0.00081176",
            "txnHash": "0xd2443fb6e088d6387d848c0049bc09b5f02fcda6eaced5e9e8e96363c640c697",
            "txnIndex": 19,
            "type": 0,
            "value": "0"
        },
        "fund_flow": [
            {
                "amount": "1,595",
                "from": "0x87c574fb2df0eaa2daf5fc4a8a16dd3ce39011b1",
                "id": 1,
                "isERC1155": false,
                "isERC721": false,
                "isReverted": false,
                "order": 1,
                "to": "0xb48fede4c9442862b7379afa902110b64cecb296",
                "token": "0x9dffe202df7f82ba57a7f8d571628805eff7fed9"
            }
        ],
        "token_infos": [
            {
                "address": "0x9dffe202df7f82ba57a7f8d571628805eff7fed9",
                "decimals": 18
            },
            {
                "address": "0xc02aaa39b223fe8d0a0e5c4f27ead9083c756cc2",
                "decimals": 18
            },
            {
                "address": "0xeeeeeeeeeeeeeeeeeeeeeeeeeeeeeeeeeeeeeeee",
                "decimals": 18
            }
        ]
    },
    "address_label": {
        "labels": [
            {
                "address": "0xeeeeeeeeeeeeeeeeeeeeeeeeeeeeeeeeeeeeeeee",
                "label": "Ether"
            },
            {
                "address": "0x9dffe202df7f82ba57a7f8d571628805eff7fed9",
                "label": "Green&nbsp;(China)&nbsp;ec... (GEC)"
            },
            {
                "address": "0x0000000000000000000000000000000000000001",
                "label": "Precompiled"
            },
            {
                "address": "0x0000000000000000000000000000000000000002",
                "label": "Precompiled"
            },
            {
                "address": "0x0000000000000000000000000000000000000003",
                "label": "Precompiled"
            },
            {
                "address": "0x0000000000000000000000000000000000000004",
                "label": "Precompiled"
            }
        ]
    },
    "trace": {
        "accountLabels": null,
        "dataMap": {
            "-1": {
                "invocation": {
                    "address": "0x87c574fb2df0eaa2daf5fc4a8a16dd3ce39011b1",
                    "callData": "",
                    "decodedMethod": null,
                    "errorInfo": "",
                    "fromAddress": "",
                    "gasUsed": 0,
                    "id": -1,
                    "methodDecoded": false,
                    "operation": "",
                    "output": "",
                    "revert": false,
                    "revertMessage": "",
                    "selector": "",
                    "status": false,
                    "value": ""
                },
                "nodeType": 0
            },
            "0": {
                "invocation": {
                    "address": "0x9dffe202df7f82ba57a7f8d571628805eff7fed9",
                    "callData": "0x000000000000000000000000b48fede4c9442862b7379afa902110b64cecb29600000000000000000000000000000000000000000000005677125153ec0c0000",
                    "decodedMethod": {
                        "callParams": [
                            {
                                "name": "_to",
                                "type": "address",
                                "value": "0xb48fede4c9442862b7379afa902110b64cecb296"
                            },
                            {
                                "decimalAvailable": true,
                                "name": "_value",
                                "type": "uint256",
                                "value": "1,595,000,000,000,000,000,000"
                            }
                        ],
                        "constructorArguments": "",
                        "name": "transfer",
                        "returnParams": [
                            {
                                "name": "success",
                                "type": "bool",
                                "value": true
                            }
                        ],
                        "signature": "transfer(address,uint256)"
                    },
                    "errorInfo": "",
                    "fromAddress": "0x87c574fb2df0eaa2daf5fc4a8a16dd3ce39011b1",
                    "gasUsed": 40588,
                    "id": 0,
                    "methodDecoded": true,
                    "operation": "CALL",
                    "output": "0x0000000000000000000000000000000000000000000000000000000000000001",
                    "revert": false,
                    "revertMessage": "",
                    "selector": "0xa9059cbb",
                    "status": true,
                    "value": "0"
                },
                "nodeType": 0
            },
            "1": {
                "event": {
                    "contract": "0x9dffe202df7f82ba57a7f8d571628805eff7fed9",
                    "decodedLog": {
                        "name": "Transfer",
                        "params": [
                            {
                                "name": "from",
                                "type": "address",
                                "value": "0x87c574fb2df0eaa2daf5fc4a8a16dd3ce39011b1"
                            },
                            {
                                "name": "to",
                                "type": "address",
                                "value": "0xb48fede4c9442862b7379afa902110b64cecb296"
                            },
                            {
                                "decimalAvailable": true,
                                "name": "value",
                                "type": "uint256",
                                "value": "1,595,000,000,000,000,000,000"
                            }
                        ],
                        "signature": "Transfer(address,address,uint256)"
                    },
                    "id": 1,
                    "logData": "0x00000000000000000000000000000000000000000000005677125153ec0c0000",
                    "logDecoded": true,
                    "operation": "EVENT",
                    "revert": false,
                    "status": true,
                    "topics": [
                        "0xddf252ad1be2c89b69c2b068fc378daa952ba7f163c4a11628f55a4df523b3ef",
                        "0x00000000000000000000000087c574fb2df0eaa2daf5fc4a8a16dd3ce39011b1",
                        "0x000000000000000000000000b48fede4c9442862b7379afa902110b64cecb296"
                    ]
                },
                "nodeType": 1
            }
        },
        "gasFlame": [
            {
                "children": [
                    {
                        "children": [
                            {
                                "children": [],
                                "depth": 0,
                                "name": "Initial Gas",
                                "value": 21644
                            },
                            {
                                "children": [],
                                "depth": 0,
                                "name": "Executed Gas",
                                "value": 18944
                            }
                        ],
                        "depth": -1,
                        "name": "Actual Gas Used",
                        "value": 40588
                    },
                    {
                        "children": [],
                        "depth": -1,
                        "name": "Refunded Gas",
                        "value": 0
                    }
                ],
                "depth": -2,
                "name": "Total Gas",
                "value": 40588
            }
        ],
        "isConfirmed": true,
        "mainTrace": [
            {
                "children": [
                    {
                        "children": [
                            {
                                "children": [],
                                "depth": 1,
                                "id": 1,
                                "order": 1
                            }
                        ],
                        "depth": 0,
                        "id": 0,
                        "order": 0
                    }
                ],
                "depth": -1,
                "id": -1,
                "order": -1
            }
        ],
        "mainTraceNodeCount": 2,
        "parentIdMap": {
            "0": -1,
            "1": 0
        },
        "tidyTrace": [
            {
                "children": [
                    {
                        "children": [
                            {
                                "children": [],
                                "depth": 1,
                                "id": 1,
                                "order": 1
                            }
                        ],
                        "depth": 0,
                        "id": 0,
                        "order": 0
                    }
                ],
                "depth": -1,
                "id": -1,
                "order": -1
            }
        ],
        "tidyTraceNodeCount": 2
    },
    "state_change": {
        "stateChanges": [
            {
                "address": "0x9dffe202df7f82ba57a7f8d571628805eff7fed9",
                "erc": "ERC-20",
                "slots": [
                    {
                        "current": "0x000000000000000000000000000000000000000000000159c614edc9d7900000",
                        "key": "0x2ec54f4d04160639914cc2c9b47045facb9fe612440686cf7f81b986c3704444",
                        "prev": "0x0000000000000000000000000000000000000000000001034f029c75eb840000"
                    },
                    {
                        "current": "0x00000000000000000000000000000000000000000001adb114df655bd27a3400",
                        "key": "0x26e2f8566ce246173225fc88b9df9dbf0e64562c9b218cf64d2ad638f2c0b31e",
                        "prev": "0x00000000000000000000000000000000000000000001ae078bf1b6afbe863400"
                    }
                ],
                "storageVariables": [
                    {
                        "name": "balanceOf",
                        "type": "mapping(address => uint256)",
                        "value": {
                            "pairs": [
                                {
                                    "key": "0x87c574fb2df0eaa2daf5fc4a8a16dd3ce39011b1",
                                    "value": {
                                        "current": "2029161798884370000000000",
                                        "prev": "2030756798884370000000000",
                                        "typeTag": 1
                                    }
                                },
                                {
                                    "key": "0xb48fede4c9442862b7379afa902110b64cecb296",
                                    "value": {
                                        "current": "6378400000000000000000",
                                        "prev": "4783400000000000000000",
                                        "typeTag": 1
                                    }
                                }
                            ],
                            "typeTag": 4
                        }
                    }
                ]
            }
        ]
    }
}