{
    "balance_change": {
        "balanceChanges": [
            {
                "account": "0xd9d6a1a59eb13ddf0f6e4d17e6080b003dd0f8a6",
                "assets": [
                    {
                        "address": "0xca95a6b21a8101d8e34c153d31dc563ff897ebef",
                        "amount": "183,953,500,000,000,000,000,000",
                        "iconUrl": "",
                        "isERC1155": false,
                        "isERC721": false,
                        "sign": false,
                        "value": ""
                    }
                ]
            },
            {
                "account": "0xb3a0a56dc8cab1605efc6887907a637c72a40ac4",
                "assets": [
                    {
                        "address": "0xca95a6b21a8101d8e34c153d31dc563ff897ebef",
                        "amount": "183,953,500,000,000,000,000,000",
                        "iconUrl": "",
                        "isERC1155": false,
                        "isERC721": false,
                        "sign": true,
                        "value": ""
                    }
                ]
            }
        ]
    },
    "profile": {
        "basic_info": {
            "baseFee": "30.079897351",
            "blockNumber": 19574911,
            "callData": "0xa9059cbb000000000000000000000000b3a0a56dc8cab1605efc6887907a637c72a40ac40000000000000000000000000000000000000000000026f423a3b6961b560000",
            "debugEnable": true,
            "errorInfo": "",
            "eventCount": 1,
            "feeRecipient": "0x95222290dd7278aa3ddd389cc1e1d165cc4bafe5",
            "formatValue": "0",
            "gasLimit": 81870,
            "gasPrice": "30.096928561",
            "gasUsed": 53784,
            "intTxnCount": 0,
            "internalRevert": false,
            "internalRevertMessage": "",
            "isContractCreation": false,
            "isFlashloan": false,
            "maxFee": "50.666166597",
            "nonce": 447,
            "overwritedBlockNumber": -1,
            "priorityFee": "0.01703121",
            "receiver": "0xca95a6b21a8101d8e34c153d31dc563ff897ebef",
            "revertMessage": "",
            "sender": "0xd9d6a1a59eb13ddf0f6e4d17e6080b003dd0f8a6",
            "simulationEnable": true,
            "sourceTxnHash": "0xd254c3b254cd696643f1089bfd69d395b48b1fe29ff97112ef2ddeadc0694bb1",
            "status": true,
            "timestamp": "2024-04-03T11:21:35Z",
            "transactionFee": "0.001618733205724824",
            "txnHash": "0xd254c3b254cd696643f1089bfd69d395b48b1fe29ff97112ef2ddeadc0694bb1",
            "txnIndex": 124,
            "type": 2,
            "value": "0"
        },
        "fund_flow": [
            {
                "amount": "183,953,500,000,000,000,000,000",
                "from": "0xd9d6a1a59eb13ddf0f6e4d17e6080b003dd0f8a6",
                "id": 1,
                "isERC1155": false,
                "isERC721": false,
                "isReverted": false,
                "order": 1,
                "to": "0xb3a0a56dc8cab1605efc6887907a637c72a40ac4",
                "token": "0xca95a6b21a8101d8e34c153d31dc563ff897ebef"
            }
        ],
        "token_infos": [
            {
                "address": "0xc02aaa39b223fe8d0a0e5c4f27ead9083c756cc2",
                "decimals": 18
            },
            {
                "address": "0xca95a6b21a8101d8e34c153d31dc563ff897ebef",
                "decimals": 0
            },
            {
                "address": "0xeeeeeeeeeeeeeeeeeeeeeeeeeeeeeeeeeeeeeeee",
                "decimals": 18
            }
        ]
    },
    "address_label": {
        "labels": [
            {
                "address": "0x0000000000000000000000000000000000000003",
                "label": "Precompiled"
            },
            {
                "address": "0x0000000000000000000000000000000000000004",
                "label": "Precompiled"
            },
            {
                "address": "0xeeeeeeeeeeeeeeeeeeeeeeeeeeeeeeeeeeeeeeee",
                "label": "Ether"
            },
            {
                "address": "0xca95a6b21a8101d8e34c153d31dc563ff897ebef",
                "label": "Flash Protocol: FLASH Token"
            },
            {
                "address": "0xb3a0a56dc8cab1605efc6887907a637c72a40ac4",
                "label": "GATE.IO"
            },
            {
                "address": "0x0000000000000000000000000000000000000001",
                "label": "Precompiled"
            },
            {
                "address": "0x0000000000000000000000000000000000000002",
                "label": "Precompiled"
            }
        ]
    },
    "trace": {
        "accountLabels": null,
        "dataMap": {
            "-1": {
                "invocation": {
                    "address": "0xd9d6a1a59eb13ddf0f6e4d17e6080b003dd0f8a6",
                    "callData": "",
                    "decodedMethod": null,
                    "errorInfo": "",
                    "fromAddress": "",
                    "gasUsed": 0,
                    "id": -1,
                    "methodDecoded": false,
                    "operation": "",
                    "output": "",
                    "revert": false,
                    "revertMessage": "",
                    "selector": "",
                    "status": false,
                    "value": ""
                },
                "nodeType": 0
            },
            "0": {
                "invocation": {
                    "address": "0xca95a6b21a8101d8e34c153d31dc563ff897ebef",
                    "callData": "0x000000000000000000000000b3a0a56dc8cab1605efc6887907a637c72a40ac40000000000000000000000000000000000000000000026f423a3b6961b560000",
                    "decodedMethod": {
                        "callParams": [
                            {
                                "name": "to",
                                "type": "address",
                                "value": "0xb3a0a56dc8cab1605efc6887907a637c72a40ac4"
                            },
                            {
                                "decimalAvailable": true,
                                "name": "value",
                                "type": "uint256",
                                "value": "183,953,500,000,000,000,000,000"
                            }
                        ],
                        "constructorArguments": "",
                        "name": "transfer",
                        "returnParams": [
                            {
                                "name": "",
                                "type": "bool",
                                "value": true
                            }
                        ],
                        "signature": "transfer(address,uint256)"
                    },
                    "errorInfo": "",
                    "fromAddress": "0xd9d6a1a59eb13ddf0f6e4d17e6080b003dd0f8a6",
                    "gasUsed": 53784,
                    "id": 0,
                    "methodDecoded": true,
                    "operation": "CALL",
                    "output": "0x0000000000000000000000000000000000000000000000000000000000000001",
                    "revert": false,
                    "revertMessage": "",
                    "selector": "0xa9059cbb",
                    "status": true,
                    "value": "0"
                },
                "nodeType": 0
            },
            "1": {
                "event": {
                    "contract": "0xca95a6b21a8101d8e34c153d31dc563ff897ebef",
                    "decodedLog": {
                        "name": "Transfer",
                        "params": [
                            {
                                "name": "from",
                                "type": "address",
                                "value": "0xd9d6a1a59eb13ddf0f6e4d17e6080b003dd0f8a6"
                            },
                            {
                                "name": "to",
                                "type": "address",
                                "value": "0xb3a0a56dc8cab1605efc6887907a637c72a40ac4"
                            },
                            {
                                "decimalAvailable": true,
                                "name": "value",
                                "type": "uint256",
                                "value": "183,953,500,000,000,000,000,000"
                            }
                        ],
                        "signature": "Transfer(address,address,uint256)"
                    },
                    "id": 1,
                    "logData": "0x0000000000000000000000000000000000000000000026f423a3b6961b560000",
                    "logDecoded": true,
                    "operation": "EVENT",
                    "revert": false,
                    "status": true,
                    "topics": [
                        "0xddf252ad1be2c89b69c2b068fc378daa952ba7f163c4a11628f55a4df523b3ef",
                        "0x000000000000000000000000d9d6a1a59eb13ddf0f6e4d17e6080b003dd0f8a6",
                        "0x000000000000000000000000b3a0a56dc8cab1605efc6887907a637c72a40ac4"
                    ]
                },
                "nodeType": 1
            }
        },
        "gasFlame": [
            {
                "children": [
                    {
                        "children": [
                            {
                                "children": [],
                                "depth": 0,
                                "name": "Initial Gas",
                                "value": 21656
                            },
                            {
                                "children": [],
                                "depth": 0,
                                "name": "Executed Gas",
                                "value": 32128
                            }
                        ],
                        "depth": -1,
                        "name": "Actual Gas Used",
                        "value": 53784
                    },
                    {
                        "children": [],
                        "depth": -1,
                        "name": "Refunded Gas",
                        "value": 0
                    }
                ],
                "depth": -2,
                "name": "Total Gas",
                "value": 53784
            }
        ],
        "isConfirmed": true,
        "mainTrace": [
            {
                "children": [
                    {
                        "children": [
                            {
                                "children": [],
                                "depth": 1,
                                "id": 1,
                                "order": 1
                            }
                        ],
                        "depth": 0,
                        "id": 0,
                        "order": 0
                    }
                ],
                "depth": -1,
                "id": -1,
                "order": -1
            }
        ],
        "mainTraceNodeCount": 2,
        "parentIdMap": {
            "0": -1,
            "1": 0
        },
        "tidyTrace": [
            {
                "children": [
                    {
                        "children": [
                            {
                                "children": [],
                                "depth": 1,
                                "id": 1,
                                "order": 1
                            }
                        ],
                        "depth": 0,
                        "id": 0,
                        "order": 0
                    }
                ],
                "depth": -1,
                "id": -1,
                "order": -1
            }
        ],
        "tidyTraceNodeCount": 2
    },
    "state_change": {
        "stateChanges": [
            {
                "address": "0xca95a6b21a8101d8e34c153d31dc563ff897ebef",
                "erc": "ERC-20",
                "slots": [
                    {
                        "current": "0x000000000000000000000000000000000000000000002a5a058fc295ed000000",
                        "key": "0xa4b90911c21a4377241cca0b4f645105db292fe326eec60b7dd3416680141565",
                        "prev": "0x00000000000000000000000000000000000000000000514e2933792c08560000"
                    },
                    {
                        "current": "0x0000000000000000000000000000000000000000000026f423a3b6961b560000",
                        "key": "0xa28c5293be598155b7f4c28e1d9a3cb12e5f48b13e284460c2ca6f1bc91e98e4",
                        "prev": "0x0000000000000000000000000000000000000000000000000000000000000000"
                    }
                ],
                "storageVariables": [
                    {
                        "name": "_balances",
                        "type": "mapping(address => uint256)",
                        "value": {
                            "pairs": [
                                {
                                    "key": "0xb3a0a56dc8cab1605efc6887907a637c72a40ac4",
                                    "value": {
                                        "current": "183953500000000000000000",
                                        "prev": "0",
                                        "typeTag": 1
                                    }
                                },
                                {
                                    "key": "0xd9d6a1a59eb13ddf0f6e4d17e6080b003dd0f8a6",
                                    "value": {
                                        "current": "200000000000000000000000",
                                        "prev": "383953500000000000000000",
                                        "typeTag": 1
                                    }
                                }
                            ],
                            "typeTag": 4
                        }
                    }
                ]
            }
        ]
    }
}