{
    "balance_change": {
        "balanceChanges": []
    },
    "profile": {
        "basic_info": {
            "baseFee": "",
            "blockNumber": 12533827,
            "callData": "0x627dd56a00000000000000000000000000000000000000000000000000000000000000200000000000000000000000000000000000000000000000000000000000000111000001000000000000257853b1dd8e00000205007b01aac98ee71d4f8a156b6abaa6844cdb7789d086ce00020000000000000000001b010000000000001debb7eeacad7e000000000000001a62387c3f8f5b0000c02aaa39b223fe8d0a0e5c4f27ead9083c756cc29f8f72aa9304c8b593d555f12ef6589cc3a579a2000000000000000000000000000000000000000000007e01c2adda861f89bbb333c90c492cb837741916a2250000000000000000000000000000000000000000000000015d08b67a33115000000000000000000000000000000000000000000000000001d2341e02b230b000009f8f72aa9304c8b593d555f12ef6589cc3a579a20000000000000000000000000000000000000000000000000000000000000000000000",
            "debugEnable": true,
            "errorInfo": "",
            "eventCount": 0,
            "feeRecipient": "0x09ab1303d3ccaf5f018cd511146b07a240c70294",
            "formatValue": "0",
            "gasLimit": 390188,
            "gasPrice": "31.545000001",
            "gasUsed": 53350,
            "intTxnCount": 2,
            "internalRevert": false,
            "internalRevertMessage": "",
            "isContractCreation": false,
            "isFlashloan": false,
            "maxFee": "",
            "nonce": 3217,
            "overwritedBlockNumber": -1,
            "priorityFee": "",
            "receiver": "0x0000000089341e263b85d84a0eea39f47c37a9d2",
            "revertMessage": "",
            "sender": "0x5093852b185c1bdf2a87cb76824ca43611400a02",
            "simulationEnable": true,
            "sourceTxnHash": "0xd21457d7bd0a9fea53fa75a6e8f6ae0003119b3c40c9ccf6c7458b563bdf8d0f",
            "status": true,
            "timestamp": "2021-05-30T05:23:49Z",
            "transactionFee": "0.00168292575005335",
            "txnHash": "0xd21457d7bd0a9fea53fa75a6e8f6ae0003119b3c40c9ccf6c7458b563bdf8d0f",
            "txnIndex": 29,
            "type": 0,
            "value": "0"
        },
        "fund_flow": [],
        "token_infos": [
            {
                "address": "0xc02aaa39b223fe8d0a0e5c4f27ead9083c756cc2",
                "decimals": 18
            },
            {
                "address": "0xeeeeeeeeeeeeeeeeeeeeeeeeeeeeeeeeeeeeeeee",
                "decimals": 18
            }
        ]
    },
    "address_label": {
        "labels": [
            {
                "address": "0x0000000000000000000000000000000000000004",
                "label": "Precompiled"
            },
            {
                "address": "0x0000000000000000000000000000000000000001",
                "label": "Precompiled"
            },
            {
                "address": "0x0000000000000000000000000000000000000002",
                "label": "Precompiled"
            },
            {
                "address": "0xc02aaa39b223fe8d0a0e5c4f27ead9083c756cc2",
                "label": "Wrapped Ether (WETH)"
            },
            {
                "address": "0x0000000089341e263b85d84a0eea39f47c37a9d2",
                "label": "MEV Bot: 0x000...9d2"
            },
            {
                "address": "0x9f8f72aa9304c8b593d555f12ef6589cc3a579a2",
                "label": "Sky: MKR Token"
            },
            {
                "address": "0x0000000000000000000000000000000000000003",
                "label": "Precompiled"
            },
            {
                "address": "0xeeeeeeeeeeeeeeeeeeeeeeeeeeeeeeeeeeeeeeee",
                "label": "Ether"
            },
            {
                "address": "0xba12222222228d8ba445958a75a0704d566bf2c8",
                "label": "Balancer: Vault"
            }
        ]
    },
    "trace": {
        "accountLabels": null,
        "dataMap": {
            "-1": {
                "invocation": {
                    "address": "0x5093852b185c1bdf2a87cb76824ca43611400a02",
                    "callData": "",
                    "decodedMethod": null,
                    "errorInfo": "",
                    "fromAddress": "",
                    "gasUsed": 0,
                    "id": -1,
                    "methodDecoded": false,
                    "operation": "",
                    "output": "",
                    "revert": false,
                    "revertMessage": "",
                    "selector": "",
                    "status": false,
                    "value": ""
                },
                "nodeType": 0
            },
            "0": {
                "invocation": {
                    "address": "0x0000000089341e263b85d84a0eea39f47c37a9d2",
                    "callData": "0x00000000000000000000000000000000000000000000000000000000000000200000000000000000000000000000000000000000000000000000000000000111000001000000000000257853b1dd8e00000205007b01aac98ee71d4f8a156b6abaa6844cdb7789d086ce00020000000000000000001b010000000000001debb7eeacad7e000000000000001a62387c3f8f5b0000c02aaa39b223fe8d0a0e5c4f27ead9083c756cc29f8f72aa9304c8b593d555f12ef6589cc3a579a2000000000000000000000000000000000000000000007e01c2adda861f89bbb333c90c492cb837741916a2250000000000000000000000000000000000000000000000015d08b67a33115000000000000000000000000000000000000000000000000001d2341e02b230b000009f8f72aa9304c8b593d555f12ef6589cc3a579a20000000000000000000000000000000000000000000000000000000000000000000000",
                    "decodedMethod": {
                        "callParams": [
                            {
                                "name": "_data",
                                "type": "bytes",
                                "value": "0x000001000000000000257853b1dd8e00000205007b01aac98ee71d4f8a156b6abaa6844cdb7789d086ce00020000000000000000001b010000000000001debb7eeacad7e000000000000001a62387c3f8f5b0000c02aaa39b223fe8d0a0e5c4f27ead9083c756cc29f8f72aa9304c8b593d555f12ef6589cc3a579a2000000000000000000000000000000000000000000007e01c2adda861f89bbb333c90c492cb837741916a2250000000000000000000000000000000000000000000000015d08b67a33115000000000000000000000000000000000000000000000000001d2341e02b230b000009f8f72aa9304c8b593d555f12ef6589cc3a579a20000000000000000000000000000000000000000"
                            }
                        ],
                        "constructorArguments": "",
                        "name": "swap",
                        "returnParams": [],
                        "signature": "swap(bytes)"
                    },
                    "errorInfo": "",
                    "fromAddress": "0x5093852b185c1bdf2a87cb76824ca43611400a02",
                    "gasUsed": 53350,
                    "id": 0,
                    "methodDecoded": true,
                    "operation": "CALL",
                    "output": "",
                    "revert": false,
                    "revertMessage": "",
                    "selector": "0x627dd56a",
                    "status": true,
                    "value": "0"
                },
                "nodeType": 0
            },
            "1": {
                "invocation": {
                    "address": "0xe38c9c070374ddc66d453bbd5600376bbe13e2dd",
                    "callData": "0x0000000000000000000000000000000000000000000000000000000000000020000000000000000000000000000000000000000000000000000000000000007b01aac98ee71d4f8a156b6abaa6844cdb7789d086ce00020000000000000000001b010000000000001debb7eeacad7e000000000000001a62387c3f8f5b0000c02aaa39b223fe8d0a0e5c4f27ead9083c756cc29f8f72aa9304c8b593d555f12ef6589cc3a579a200000000000000000000000000000000000000000000000000",
                    "decodedMethod": {
                        "callParams": [
                            {
                                "name": "_params",
                                "type": "bytes",
                                "value": "0x01aac98ee71d4f8a156b6abaa6844cdb7789d086ce00020000000000000000001b010000000000001debb7eeacad7e000000000000001a62387c3f8f5b0000c02aaa39b223fe8d0a0e5c4f27ead9083c756cc29f8f72aa9304c8b593d555f12ef6589cc3a579a20000000000000000000000000000000000000000"
                            }
                        ],
                        "constructorArguments": "",
                        "name": "check",
                        "returnParams": [
                            {
                                "name": "",
                                "type": "bool",
                                "value": false
                            }
                        ],
                        "signature": "check(bytes)"
                    },
                    "errorInfo": "",
                    "fromAddress": "0x0000000089341e263b85d84a0eea39f47c37a9d2",
                    "gasUsed": 20353,
                    "id": 1,
                    "methodDecoded": true,
                    "operation": "DELEGATECALL",
                    "output": "0x0000000000000000000000000000000000000000000000000000000000000000",
                    "revert": false,
                    "revertMessage": "",
                    "selector": "0xc64b3bb5",
                    "status": true,
                    "value": "0"
                },
                "nodeType": 0
            },
            "2": {
                "invocation": {
                    "address": "0xba12222222228d8ba445958a75a0704d566bf2c8",
                    "callData": "0xaac98ee71d4f8a156b6abaa6844cdb7789d086ce00020000000000000000001b",
                    "decodedMethod": {
                        "callParams": [
                            {
                                "name": "poolId",
                                "type": "bytes32",
                                "value": "0xaac98ee71d4f8a156b6abaa6844cdb7789d086ce00020000000000000000001b"
                            }
                        ],
                        "constructorArguments": "",
                        "name": "getPoolTokens",
                        "returnParams": [
                            {
                                "name": "tokens",
                                "type": "address[]",
                                "value": [
                                    "0x9f8f72aa9304c8b593d555f12ef6589cc3a579a2",
                                    "0xc02aaa39b223fe8d0a0e5c4f27ead9083c756cc2"
                                ]
                            },
                            {
                                "name": "balances",
                                "type": "uint256[]",
                                "value": [
                                    "550,314,585,652,036,270,547",
                                    "489,035,529,253,903,035,492"
                                ]
                            },
                            {
                                "name": "lastChangeBlock",
                                "type": "uint256",
                                "value": "12,533,827"
                            }
                        ],
                        "signature": "getPoolTokens(bytes32)"
                    },
                    "errorInfo": "",
                    "fromAddress": "0x0000000089341e263b85d84a0eea39f47c37a9d2",
                    "gasUsed": 15081,
                    "id": 2,
                    "methodDecoded": true,
                    "operation": "STATICCALL",
                    "output": "0x000000000000000000000000000000000000000000000000000000000000006000000000000000000000000000000000000000000000000000000000000000c00000000000000000000000000000000000000000000000000000000000bf404300000000000000000000000000000000000000000000000000000000000000020000000000000000000000009f8f72aa9304c8b593d555f12ef6589cc3a579a2000000000000000000000000c02aaa39b223fe8d0a0e5c4f27ead9083c756cc2000000000000000000000000000000000000000000000000000000000000000200000000000000000000000000000000000000000000001dd52627f579e679d300000000000000000000000000000000000000000000001a82bb36d5cc0a6c64",
                    "revert": false,
                    "revertMessage": "",
                    "selector": "0xf94d4668",
                    "status": true,
                    "value": "0"
                },
                "nodeType": 0
            }
        },
        "gasFlame": [
            {
                "children": [
                    {
                        "children": [
                            {
                                "children": [],
                                "depth": 0,
                                "name": "Initial Gas",
                                "value": 24260
                            },
                            {
                                "children": [
                                    {
                                        "children": [
                                            {
                                                "children": [],
                                                "depth": 2,
                                                "name": "getPoolTokens",
                                                "value": 15081
                                            }
                                        ],
                                        "depth": 1,
                                        "name": "check",
                                        "value": 20353
                                    }
                                ],
                                "depth": 0,
                                "name": "Executed Gas",
                                "value": 29090
                            }
                        ],
                        "depth": -1,
                        "name": "Actual Gas Used",
                        "value": 53350
                    },
                    {
                        "children": [],
                        "depth": -1,
                        "name": "Refunded Gas",
                        "value": 0
                    }
                ],
                "depth": -2,
                "name": "Total Gas",
                "value": 53350
            }
        ],
        "isConfirmed": true,
        "mainTrace": [
            {
                "children": [
                    {
                        "children": [
                            {
                                "children": [
                                    {
                                        "children": [],
                                        "depth": 2,
                                        "id": 2,
                                        "order": 2
                                    }
                                ],
                                "depth": 1,
                                "id": 1,
                                "order": 1
                            }
                        ],
                        "depth": 0,
                        "id": 0,
                        "order": 0
                    }
                ],
                "depth": -1,
                "id": -1,
                "order": -1
            }
        ],
        "mainTraceNodeCount": 3,
        "parentIdMap": {
            "0": -1,
            "1": 0,
            "2": 1
        },
        "tidyTrace": [
            {
                "children": [
                    {
                        "children": [
                            {
                                "children": [],
                                "depth": 1,
                                "id": 1,
                                "order": 1
                            }
                        ],
                        "depth": 0,
                        "id": 0,
                        "order": 0
                    }
                ],
                "depth": -1,
                "id": -1,
                "order": -1
            }
        ],
        "tidyTraceNodeCount": 2
    },
    "state_change": {
        "stateChanges": []
    }
}