{
    "balance_change": {
        "balanceChanges": [
            {
                "account": "0xfe5326002453523ee5717fc5de20c1659df67245",
                "assets": [
                    {
                        "address": "0xeeeeeeeeeeeeeeeeeeeeeeeeeeeeeeeeeeeeeeee",
                        "amount": "0.22",
                        "iconUrl": "https://assets.blocksec.com/image/1663669189317-3.png",
                        "isERC1155": false,
                        "isERC721": false,
                        "sign": false,
                        "value": ""
                    }
                ]
            },
            {
                "account": "0x8a60806f05876f4d6db00c877b0558dbcad30682",
                "assets": [
                    {
                        "address": "0xeeeeeeeeeeeeeeeeeeeeeeeeeeeeeeeeeeeeeeee",
                        "amount": "0.22",
                        "iconUrl": "https://assets.blocksec.com/image/1663669189317-3.png",
                        "isERC1155": false,
                        "isERC721": false,
                        "sign": true,
                        "value": ""
                    }
                ]
            }
        ]
    },
    "profile": {
        "basic_info": {
            "baseFee": "",
            "blockNumber": 4772056,
            "callData": "0x681551d10000000000000000000000000000000000000000000000000000000000000016000000000000000000000000000000000000000000000000000000000000004000000000000000000000000000000000000000000000000000000000000000045669626500000000000000000000000000000000000000000000000000000000",
            "debugEnable": true,
            "errorInfo": "",
            "eventCount": 1,
            "feeRecipient": "0xb2930b35844a230f00e51431acae96fe543a0347",
            "formatValue": "0.22",
            "gasLimit": 600000,
            "gasPrice": "48",
            "gasUsed": 374062,
            "intTxnCount": 17,
            "internalRevert": false,
            "internalRevertMessage": "",
            "isContractCreation": false,
            "isFlashloan": false,
            "maxFee": "",
            "nonce": 17,
            "overwritedBlockNumber": -1,
            "priorityFee": "",
            "receiver": "0x8a60806f05876f4d6db00c877b0558dbcad30682",
            "revertMessage": "",
            "sender": "0xfe5326002453523ee5717fc5de20c1659df67245",
            "simulationEnable": true,
            "sourceTxnHash": "0xd2850681a8f4ddcbed30de7097eacd28e5755e358f49881d667a0d2456d7b6ab",
            "status": true,
            "timestamp": "2017-12-21T16:31:44Z",
            "transactionFee": "0.017954976",
            "txnHash": "0xd2850681a8f4ddcbed30de7097eacd28e5755e358f49881d667a0d2456d7b6ab",
            "txnIndex": 96,
            "type": 0,
            "value": "220000000000000000"
        },
        "fund_flow": [
            {
                "amount": "0.22",
                "from": "0xfe5326002453523ee5717fc5de20c1659df67245",
                "id": 1,
                "isERC1155": false,
                "isERC721": false,
                "isReverted": false,
                "order": 1,
                "to": "0x8a60806f05876f4d6db00c877b0558dbcad30682",
                "token": "0xeeeeeeeeeeeeeeeeeeeeeeeeeeeeeeeeeeeeeeee"
            }
        ],
        "token_infos": [
            {
                "address": "0xc02aaa39b223fe8d0a0e5c4f27ead9083c756cc2",
                "decimals": 18
            },
            {
                "address": "0xeeeeeeeeeeeeeeeeeeeeeeeeeeeeeeeeeeeeeeee",
                "decimals": 18
            }
        ]
    },
    "address_label": {
        "labels": [
            {
                "address": "0xeeeeeeeeeeeeeeeeeeeeeeeeeeeeeeeeeeeeeeee",
                "label": "Ether"
            },
            {
                "address": "0xabc1c404424bdf24c19a5cc5ef8f47781d18eb3e",
                "label": "Etheremon: Data"
            },
            {
                "address": "0x8a60806f05876f4d6db00c877b0558dbcad30682",
                "label": "Etheremon: Processor"
            },
            {
                "address": "0x0000000000000000000000000000000000000001",
                "label": "Precompiled"
            },
            {
                "address": "0x0000000000000000000000000000000000000002",
                "label": "Precompiled"
            },
            {
                "address": "0x0000000000000000000000000000000000000003",
                "label": "Precompiled"
            },
            {
                "address": "0x0000000000000000000000000000000000000004",
                "label": "Precompiled"
            }
        ]
    },
    "trace": {
        "accountLabels": null,
        "dataMap": {
            "-1": {
                "invocation": {
                    "address": "0xfe5326002453523ee5717fc5de20c1659df67245",
                    "callData": "",
                    "decodedMethod": null,
                    "errorInfo": "",
                    "fromAddress": "",
                    "gasUsed": 0,
                    "id": -1,
                    "methodDecoded": false,
                    "operation": "",
                    "output": "",
                    "revert": false,
                    "revertMessage": "",
                    "selector": "",
                    "status": false,
                    "value": ""
                },
                "nodeType": 0
            },
            "0": {
                "invocation": {
                    "address": "0x8a60806f05876f4d6db00c877b0558dbcad30682",
                    "callData": "0x0000000000000000000000000000000000000000000000000000000000000016000000000000000000000000000000000000000000000000000000000000004000000000000000000000000000000000000000000000000000000000000000045669626500000000000000000000000000000000000000000000000000000000",
                    "decodedMethod": {
                        "callParams": [
                            {
                                "name": "_classId",
                                "type": "uint32",
                                "value": "22"
                            },
                            {
                                "name": "_name",
                                "type": "string",
                                "value": "Vibe"
                            }
                        ],
                        "constructorArguments": "",
                        "name": "catchMonster",
                        "returnParams": [
                            {
                                "name": "",
                                "type": "uint8",
                                "value": "0"
                            }
                        ],
                        "signature": "catchMonster(uint32,string)"
                    },
                    "errorInfo": "",
                    "fromAddress": "0xfe5326002453523ee5717fc5de20c1659df67245",
                    "gasUsed": 374062,
                    "id": 0,
                    "methodDecoded": true,
                    "operation": "CALL",
                    "output": "0x0000000000000000000000000000000000000000000000000000000000000000",
                    "revert": false,
                    "revertMessage": "",
                    "selector": "0x681551d1",
                    "status": true,
                    "value": "0.22"
                },
                "nodeType": 0
            },
            "1": {
                "invocation": {
                    "address": "0xabc1c404424bdf24c19a5cc5ef8f47781d18eb3e",
                    "callData": "0x0000000000000000000000000000000000000000000000000000000000000016",
                    "decodedMethod": {
                        "callParams": [
                            {
                                "name": "_classId",
                                "type": "uint32",
                                "value": "22"
                            }
                        ],
                        "constructorArguments": "",
                        "name": "getMonsterClass",
                        "returnParams": [
                            {
                                "name": "classId",
                                "type": "uint32",
                                "value": "22"
                            },
                            {
                                "name": "price",
                                "type": "uint256",
                                "value": "212,000,000,000,000,000"
                            },
                            {
                                "name": "returnPrice",
                                "type": "uint256",
                                "value": "1,000,000,000,000,000"
                            },
                            {
                                "name": "total",
                                "type": "uint32",
                                "value": "211"
                            },
                            {
                                "name": "catchable",
                                "type": "bool",
                                "value": true
                            }
                        ],
                        "signature": "getMonsterClass(uint32)"
                    },
                    "errorInfo": "",
                    "fromAddress": "0x8a60806f05876f4d6db00c877b0558dbcad30682",
                    "gasUsed": 2252,
                    "id": 1,
                    "methodDecoded": true,
                    "operation": "CALL",
                    "output": "0x000000000000000000000000000000000000000000000000000000000000001600000000000000000000000000000000000000000000000002f12ce07462000000000000000000000000000000000000000000000000000000038d7ea4c6800000000000000000000000000000000000000000000000000000000000000000d30000000000000000000000000000000000000000000000000000000000000001",
                    "revert": false,
                    "revertMessage": "",
                    "selector": "0x9d29cac4",
                    "status": true,
                    "value": "0"
                },
                "nodeType": 0
            },
            "10": {
                "invocation": {
                    "address": "0xabc1c404424bdf24c19a5cc5ef8f47781d18eb3e",
                    "callData": "0x00000000000000000000000000000000000000000000000000000000000000030000000000000000000000000000000000000000000000000000000000001e600000000000000000000000000000000000000000000000000000000000000070",
                    "decodedMethod": {
                        "callParams": [
                            {
                                "name": "_type",
                                "type": "uint8",
                                "value": "3"
                            },
                            {
                                "name": "_id",
                                "type": "uint64",
                                "value": "7,776"
                            },
                            {
                                "name": "_value",
                                "type": "uint8",
                                "value": "112"
                            }
                        ],
                        "constructorArguments": "",
                        "name": "addElementToArrayType",
                        "returnParams": [
                            {
                                "name": "",
                                "type": "uint256",
                                "value": "3"
                            }
                        ],
                        "signature": "addElementToArrayType(uint8,uint64,uint8)"
                    },
                    "errorInfo": "",
                    "fromAddress": "0x8a60806f05876f4d6db00c877b0558dbcad30682",
                    "gasUsed": 13229,
                    "id": 10,
                    "methodDecoded": true,
                    "operation": "CALL",
                    "output": "0x0000000000000000000000000000000000000000000000000000000000000003",
                    "revert": false,
                    "revertMessage": "",
                    "selector": "0x26bda739",
                    "status": true,
                    "value": "0"
                },
                "nodeType": 0
            },
            "11": {
                "invocation": {
                    "address": "0xabc1c404424bdf24c19a5cc5ef8f47781d18eb3e",
                    "callData": "0x000000000000000000000000000000000000000000000000000000000000000200000000000000000000000000000000000000000000000000000000000000160000000000000000000000000000000000000000000000000000000000000003",
                    "decodedMethod": {
                        "callParams": [
                            {
                                "name": "_type",
                                "type": "uint8",
                                "value": "2"
                            },
                            {
                                "name": "_id",
                                "type": "uint64",
                                "value": "22"
                            },
                            {
                                "name": "_index",
                                "type": "uint256",
                                "value": "3"
                            }
                        ],
                        "constructorArguments": "",
                        "name": "getElementInArrayType",
                        "returnParams": [
                            {
                                "name": "",
                                "type": "uint8",
                                "value": "5"
                            }
                        ],
                        "signature": "getElementInArrayType(uint8,uint64,uint256)"
                    },
                    "errorInfo": "",
                    "fromAddress": "0x8a60806f05876f4d6db00c877b0558dbcad30682",
                    "gasUsed": 1915,
                    "id": 11,
                    "methodDecoded": true,
                    "operation": "CALL",
                    "output": "0x0000000000000000000000000000000000000000000000000000000000000005",
                    "revert": false,
                    "revertMessage": "",
                    "selector": "0x62b21ad7",
                    "status": true,
                    "value": "0"
                },
                "nodeType": 0
            },
            "12": {
                "invocation": {
                    "address": "0xabc1c404424bdf24c19a5cc5ef8f47781d18eb3e",
                    "callData": "0x00000000000000000000000000000000000000000000000000000000000000030000000000000000000000000000000000000000000000000000000000001e60000000000000000000000000000000000000000000000000000000000000001f",
                    "decodedMethod": {
                        "callParams": [
                            {
                                "name": "_type",
                                "type": "uint8",
                                "value": "3"
                            },
                            {
                                "name": "_id",
                                "type": "uint64",
                                "value": "7,776"
                            },
                            {
                                "name": "_value",
                                "type": "uint8",
                                "value": "31"
                            }
                        ],
                        "constructorArguments": "",
                        "name": "addElementToArrayType",
                        "returnParams": [
                            {
                                "name": "",
                                "type": "uint256",
                                "value": "4"
                            }
                        ],
                        "signature": "addElementToArrayType(uint8,uint64,uint8)"
                    },
                    "errorInfo": "",
                    "fromAddress": "0x8a60806f05876f4d6db00c877b0558dbcad30682",
                    "gasUsed": 13229,
                    "id": 12,
                    "methodDecoded": true,
                    "operation": "CALL",
                    "output": "0x0000000000000000000000000000000000000000000000000000000000000004",
                    "revert": false,
                    "revertMessage": "",
                    "selector": "0x26bda739",
                    "status": true,
                    "value": "0"
                },
                "nodeType": 0
            },
            "13": {
                "invocation": {
                    "address": "0xabc1c404424bdf24c19a5cc5ef8f47781d18eb3e",
                    "callData": "0x000000000000000000000000000000000000000000000000000000000000000200000000000000000000000000000000000000000000000000000000000000160000000000000000000000000000000000000000000000000000000000000004",
                    "decodedMethod": {
                        "callParams": [
                            {
                                "name": "_type",
                                "type": "uint8",
                                "value": "2"
                            },
                            {
                                "name": "_id",
                                "type": "uint64",
                                "value": "22"
                            },
                            {
                                "name": "_index",
                                "type": "uint256",
                                "value": "4"
                            }
                        ],
                        "constructorArguments": "",
                        "name": "getElementInArrayType",
                        "returnParams": [
                            {
                                "name": "",
                                "type": "uint8",
                                "value": "89"
                            }
                        ],
                        "signature": "getElementInArrayType(uint8,uint64,uint256)"
                    },
                    "errorInfo": "",
                    "fromAddress": "0x8a60806f05876f4d6db00c877b0558dbcad30682",
                    "gasUsed": 1915,
                    "id": 13,
                    "methodDecoded": true,
                    "operation": "CALL",
                    "output": "0x0000000000000000000000000000000000000000000000000000000000000059",
                    "revert": false,
                    "revertMessage": "",
                    "selector": "0x62b21ad7",
                    "status": true,
                    "value": "0"
                },
                "nodeType": 0
            },
            "14": {
                "invocation": {
                    "address": "0xabc1c404424bdf24c19a5cc5ef8f47781d18eb3e",
                    "callData": "0x00000000000000000000000000000000000000000000000000000000000000030000000000000000000000000000000000000000000000000000000000001e600000000000000000000000000000000000000000000000000000000000000076",
                    "decodedMethod": {
                        "callParams": [
                            {
                                "name": "_type",
                                "type": "uint8",
                                "value": "3"
                            },
                            {
                                "name": "_id",
                                "type": "uint64",
                                "value": "7,776"
                            },
                            {
                                "name": "_value",
                                "type": "uint8",
                                "value": "118"
                            }
                        ],
                        "constructorArguments": "",
                        "name": "addElementToArrayType",
                        "returnParams": [
                            {
                                "name": "",
                                "type": "uint256",
                                "value": "5"
                            }
                        ],
                        "signature": "addElementToArrayType(uint8,uint64,uint8)"
                    },
                    "errorInfo": "",
                    "fromAddress": "0x8a60806f05876f4d6db00c877b0558dbcad30682",
                    "gasUsed": 13229,
                    "id": 14,
                    "methodDecoded": true,
                    "operation": "CALL",
                    "output": "0x0000000000000000000000000000000000000000000000000000000000000005",
                    "revert": false,
                    "revertMessage": "",
                    "selector": "0x26bda739",
                    "status": true,
                    "value": "0"
                },
                "nodeType": 0
            },
            "15": {
                "invocation": {
                    "address": "0xabc1c404424bdf24c19a5cc5ef8f47781d18eb3e",
                    "callData": "0x000000000000000000000000000000000000000000000000000000000000000200000000000000000000000000000000000000000000000000000000000000160000000000000000000000000000000000000000000000000000000000000005",
                    "decodedMethod": {
                        "callParams": [
                            {
                                "name": "_type",
                                "type": "uint8",
                                "value": "2"
                            },
                            {
                                "name": "_id",
                                "type": "uint64",
                                "value": "22"
                            },
                            {
                                "name": "_index",
                                "type": "uint256",
                                "value": "5"
                            }
                        ],
                        "constructorArguments": "",
                        "name": "getElementInArrayType",
                        "returnParams": [
                            {
                                "name": "",
                                "type": "uint8",
                                "value": "60"
                            }
                        ],
                        "signature": "getElementInArrayType(uint8,uint64,uint256)"
                    },
                    "errorInfo": "",
                    "fromAddress": "0x8a60806f05876f4d6db00c877b0558dbcad30682",
                    "gasUsed": 1915,
                    "id": 15,
                    "methodDecoded": true,
                    "operation": "CALL",
                    "output": "0x000000000000000000000000000000000000000000000000000000000000003c",
                    "revert": false,
                    "revertMessage": "",
                    "selector": "0x62b21ad7",
                    "status": true,
                    "value": "0"
                },
                "nodeType": 0
            },
            "16": {
                "invocation": {
                    "address": "0xabc1c404424bdf24c19a5cc5ef8f47781d18eb3e",
                    "callData": "0x00000000000000000000000000000000000000000000000000000000000000030000000000000000000000000000000000000000000000000000000000001e600000000000000000000000000000000000000000000000000000000000000048",
                    "decodedMethod": {
                        "callParams": [
                            {
                                "name": "_type",
                                "type": "uint8",
                                "value": "3"
                            },
                            {
                                "name": "_id",
                                "type": "uint64",
                                "value": "7,776"
                            },
                            {
                                "name": "_value",
                                "type": "uint8",
                                "value": "72"
                            }
                        ],
                        "constructorArguments": "",
                        "name": "addElementToArrayType",
                        "returnParams": [
                            {
                                "name": "",
                                "type": "uint256",
                                "value": "6"
                            }
                        ],
                        "signature": "addElementToArrayType(uint8,uint64,uint8)"
                    },
                    "errorInfo": "",
                    "fromAddress": "0x8a60806f05876f4d6db00c877b0558dbcad30682",
                    "gasUsed": 13229,
                    "id": 16,
                    "methodDecoded": true,
                    "operation": "CALL",
                    "output": "0x0000000000000000000000000000000000000000000000000000000000000006",
                    "revert": false,
                    "revertMessage": "",
                    "selector": "0x26bda739",
                    "status": true,
                    "value": "0"
                },
                "nodeType": 0
            },
            "17": {
                "invocation": {
                    "address": "0xabc1c404424bdf24c19a5cc5ef8f47781d18eb3e",
                    "callData": "0x000000000000000000000000000000000000000000000000000000000000001600000000000000000000000000000000000000000000000002f4ba5f1928800000000000000000000000000000000000000000000000000000038d7ea4c680000000000000000000000000000000000000000000000000000000000000000001",
                    "decodedMethod": {
                        "callParams": [
                            {
                                "name": "_classId",
                                "type": "uint32",
                                "value": "22"
                            },
                            {
                                "name": "_price",
                                "type": "uint256",
                                "value": "213,000,000,000,000,000"
                            },
                            {
                                "name": "_returnPrice",
                                "type": "uint256",
                                "value": "1,000,000,000,000,000"
                            },
                            {
                                "name": "_catchable",
                                "type": "bool",
                                "value": true
                            }
                        ],
                        "constructorArguments": "",
                        "name": "setMonsterClass",
                        "returnParams": [
                            {
                                "name": "",
                                "type": "uint32",
                                "value": "24"
                            }
                        ],
                        "signature": "setMonsterClass(uint32,uint256,uint256,bool)"
                    },
                    "errorInfo": "",
                    "fromAddress": "0x8a60806f05876f4d6db00c877b0558dbcad30682",
                    "gasUsed": 23478,
                    "id": 17,
                    "methodDecoded": true,
                    "operation": "CALL",
                    "output": "0x0000000000000000000000000000000000000000000000000000000000000018",
                    "revert": false,
                    "revertMessage": "",
                    "selector": "0xc8ff80a1",
                    "status": true,
                    "value": "0"
                },
                "nodeType": 0
            },
            "18": {
                "event": {
                    "contract": "0x8a60806f05876f4d6db00c877b0558dbcad30682",
                    "decodedLog": {
                        "name": "EventCatchMonster",
                        "params": [
                            {
                                "name": "trainer",
                                "type": "address",
                                "value": "0xfe5326002453523ee5717fc5de20c1659df67245"
                            },
                            {
                                "name": "result",
                                "type": "uint8",
                                "value": "0"
                            },
                            {
                                "name": "objId",
                                "type": "uint64",
                                "value": "7,776"
                            }
                        ],
                        "signature": "EventCatchMonster(address,uint8,uint64)"
                    },
                    "id": 18,
                    "logData": "0x00000000000000000000000000000000000000000000000000000000000000000000000000000000000000000000000000000000000000000000000000001e60",
                    "logDecoded": true,
                    "operation": "EVENT",
                    "revert": false,
                    "status": true,
                    "topics": [
                        "0xd4dbc469e8003779eebd03c6dee8d6e19684f9d3e63e4ed2dcb9090231e8e1ae",
                        "0x000000000000000000000000fe5326002453523ee5717fc5de20c1659df67245"
                    ]
                },
                "nodeType": 1
            },
            "2": {
                "invocation": {
                    "address": "0xabc1c404424bdf24c19a5cc5ef8f47781d18eb3e",
                    "callData": "0x000000000000000000000000fe5326002453523ee5717fc5de20c1659df67245",
                    "decodedMethod": {
                        "callParams": [
                            {
                                "name": "_trainer",
                                "type": "address",
                                "value": "0xfe5326002453523ee5717fc5de20c1659df67245"
                            }
                        ],
                        "constructorArguments": "",
                        "name": "getExtraBalance",
                        "returnParams": [
                            {
                                "name": "",
                                "type": "uint256",
                                "value": "90,000,000,000,000,000"
                            }
                        ],
                        "signature": "getExtraBalance(address)"
                    },
                    "errorInfo": "",
                    "fromAddress": "0x8a60806f05876f4d6db00c877b0558dbcad30682",
                    "gasUsed": 1211,
                    "id": 2,
                    "methodDecoded": true,
                    "operation": "CALL",
                    "output": "0x000000000000000000000000000000000000000000000000013fbe85edc90000",
                    "revert": false,
                    "revertMessage": "",
                    "selector": "0xc782fc60",
                    "status": true,
                    "value": "0"
                },
                "nodeType": 0
            },
            "3": {
                "invocation": {
                    "address": "0xabc1c404424bdf24c19a5cc5ef8f47781d18eb3e",
                    "callData": "0x000000000000000000000000fe5326002453523ee5717fc5de20c1659df67245000000000000000000000000000000000000000000000000015c2a7b13fd0000",
                    "decodedMethod": {
                        "callParams": [
                            {
                                "name": "_trainer",
                                "type": "address",
                                "value": "0xfe5326002453523ee5717fc5de20c1659df67245"
                            },
                            {
                                "name": "_amount",
                                "type": "uint256",
                                "value": "98,000,000,000,000,000"
                            }
                        ],
                        "constructorArguments": "",
                        "name": "setExtraBalance",
                        "returnParams": [],
                        "signature": "setExtraBalance(address,uint256)"
                    },
                    "errorInfo": "",
                    "fromAddress": "0x8a60806f05876f4d6db00c877b0558dbcad30682",
                    "gasUsed": 7034,
                    "id": 3,
                    "methodDecoded": true,
                    "operation": "CALL",
                    "output": "",
                    "revert": false,
                    "revertMessage": "",
                    "selector": "0xb55cdbf9",
                    "status": true,
                    "value": "0"
                },
                "nodeType": 0
            },
            "4": {
                "invocation": {
                    "address": "0xabc1c404424bdf24c19a5cc5ef8f47781d18eb3e",
                    "callData": "0x0000000000000000000000000000000000000000000000000000000000000016000000000000000000000000fe5326002453523ee5717fc5de20c1659df67245000000000000000000000000000000000000000000000000000000000000006000000000000000000000000000000000000000000000000000000000000000045669626500000000000000000000000000000000000000000000000000000000",
                    "decodedMethod": {
                        "callParams": [
                            {
                                "name": "_classId",
                                "type": "uint32",
                                "value": "22"
                            },
                            {
                                "name": "_trainer",
                                "type": "address",
                                "value": "0xfe5326002453523ee5717fc5de20c1659df67245"
                            },
                            {
                                "name": "_name",
                                "type": "string",
                                "value": "Vibe"
                            }
                        ],
                        "constructorArguments": "",
                        "name": "addMonsterObj",
                        "returnParams": [
                            {
                                "name": "",
                                "type": "uint64",
                                "value": "7,776"
                            }
                        ],
                        "signature": "addMonsterObj(uint32,address,string)"
                    },
                    "errorInfo": "",
                    "fromAddress": "0x8a60806f05876f4d6db00c877b0558dbcad30682",
                    "gasUsed": 157140,
                    "id": 4,
                    "methodDecoded": true,
                    "operation": "CALL",
                    "output": "0x0000000000000000000000000000000000000000000000000000000000001e60",
                    "revert": false,
                    "revertMessage": "",
                    "selector": "0xfc4d20f5",
                    "status": true,
                    "value": "0"
                },
                "nodeType": 0
            },
            "5": {
                "invocation": {
                    "address": "0xabc1c404424bdf24c19a5cc5ef8f47781d18eb3e",
                    "callData": "0x000000000000000000000000000000000000000000000000000000000000000200000000000000000000000000000000000000000000000000000000000000160000000000000000000000000000000000000000000000000000000000000000",
                    "decodedMethod": {
                        "callParams": [
                            {
                                "name": "_type",
                                "type": "uint8",
                                "value": "2"
                            },
                            {
                                "name": "_id",
                                "type": "uint64",
                                "value": "22"
                            },
                            {
                                "name": "_index",
                                "type": "uint256",
                                "value": "0"
                            }
                        ],
                        "constructorArguments": "",
                        "name": "getElementInArrayType",
                        "returnParams": [
                            {
                                "name": "",
                                "type": "uint8",
                                "value": "55"
                            }
                        ],
                        "signature": "getElementInArrayType(uint8,uint64,uint256)"
                    },
                    "errorInfo": "",
                    "fromAddress": "0x8a60806f05876f4d6db00c877b0558dbcad30682",
                    "gasUsed": 1865,
                    "id": 5,
                    "methodDecoded": true,
                    "operation": "CALL",
                    "output": "0x0000000000000000000000000000000000000000000000000000000000000037",
                    "revert": false,
                    "revertMessage": "",
                    "selector": "0x62b21ad7",
                    "status": true,
                    "value": "0"
                },
                "nodeType": 0
            },
            "6": {
                "invocation": {
                    "address": "0xabc1c404424bdf24c19a5cc5ef8f47781d18eb3e",
                    "callData": "0x00000000000000000000000000000000000000000000000000000000000000030000000000000000000000000000000000000000000000000000000000001e600000000000000000000000000000000000000000000000000000000000000041",
                    "decodedMethod": {
                        "callParams": [
                            {
                                "name": "_type",
                                "type": "uint8",
                                "value": "3"
                            },
                            {
                                "name": "_id",
                                "type": "uint64",
                                "value": "7,776"
                            },
                            {
                                "name": "_value",
                                "type": "uint8",
                                "value": "65"
                            }
                        ],
                        "constructorArguments": "",
                        "name": "addElementToArrayType",
                        "returnParams": [
                            {
                                "name": "",
                                "type": "uint256",
                                "value": "1"
                            }
                        ],
                        "signature": "addElementToArrayType(uint8,uint64,uint8)"
                    },
                    "errorInfo": "",
                    "fromAddress": "0x8a60806f05876f4d6db00c877b0558dbcad30682",
                    "gasUsed": 43179,
                    "id": 6,
                    "methodDecoded": true,
                    "operation": "CALL",
                    "output": "0x0000000000000000000000000000000000000000000000000000000000000001",
                    "revert": false,
                    "revertMessage": "",
                    "selector": "0x26bda739",
                    "status": true,
                    "value": "0"
                },
                "nodeType": 0
            },
            "7": {
                "invocation": {
                    "address": "0xabc1c404424bdf24c19a5cc5ef8f47781d18eb3e",
                    "callData": "0x000000000000000000000000000000000000000000000000000000000000000200000000000000000000000000000000000000000000000000000000000000160000000000000000000000000000000000000000000000000000000000000001",
                    "decodedMethod": {
                        "callParams": [
                            {
                                "name": "_type",
                                "type": "uint8",
                                "value": "2"
                            },
                            {
                                "name": "_id",
                                "type": "uint64",
                                "value": "22"
                            },
                            {
                                "name": "_index",
                                "type": "uint256",
                                "value": "1"
                            }
                        ],
                        "constructorArguments": "",
                        "name": "getElementInArrayType",
                        "returnParams": [
                            {
                                "name": "",
                                "type": "uint8",
                                "value": "3"
                            }
                        ],
                        "signature": "getElementInArrayType(uint8,uint64,uint256)"
                    },
                    "errorInfo": "",
                    "fromAddress": "0x8a60806f05876f4d6db00c877b0558dbcad30682",
                    "gasUsed": 1915,
                    "id": 7,
                    "methodDecoded": true,
                    "operation": "CALL",
                    "output": "0x0000000000000000000000000000000000000000000000000000000000000003",
                    "revert": false,
                    "revertMessage": "",
                    "selector": "0x62b21ad7",
                    "status": true,
                    "value": "0"
                },
                "nodeType": 0
            },
            "8": {
                "invocation": {
                    "address": "0xabc1c404424bdf24c19a5cc5ef8f47781d18eb3e",
                    "callData": "0x00000000000000000000000000000000000000000000000000000000000000030000000000000000000000000000000000000000000000000000000000001e600000000000000000000000000000000000000000000000000000000000000004",
                    "decodedMethod": {
                        "callParams": [
                            {
                                "name": "_type",
                                "type": "uint8",
                                "value": "3"
                            },
                            {
                                "name": "_id",
                                "type": "uint64",
                                "value": "7,776"
                            },
                            {
                                "name": "_value",
                                "type": "uint8",
                                "value": "4"
                            }
                        ],
                        "constructorArguments": "",
                        "name": "addElementToArrayType",
                        "returnParams": [
                            {
                                "name": "",
                                "type": "uint256",
                                "value": "2"
                            }
                        ],
                        "signature": "addElementToArrayType(uint8,uint64,uint8)"
                    },
                    "errorInfo": "",
                    "fromAddress": "0x8a60806f05876f4d6db00c877b0558dbcad30682",
                    "gasUsed": 13229,
                    "id": 8,
                    "methodDecoded": true,
                    "operation": "CALL",
                    "output": "0x0000000000000000000000000000000000000000000000000000000000000002",
                    "revert": false,
                    "revertMessage": "",
                    "selector": "0x26bda739",
                    "status": true,
                    "value": "0"
                },
                "nodeType": 0
            },
            "9": {
                "invocation": {
                    "address": "0xabc1c404424bdf24c19a5cc5ef8f47781d18eb3e",
                    "callData": "0x000000000000000000000000000000000000000000000000000000000000000200000000000000000000000000000000000000000000000000000000000000160000000000000000000000000000000000000000000000000000000000000002",
                    "decodedMethod": {
                        "callParams": [
                            {
                                "name": "_type",
                                "type": "uint8",
                                "value": "2"
                            },
                            {
                                "name": "_id",
                                "type": "uint64",
                                "value": "22"
                            },
                            {
                                "name": "_index",
                                "type": "uint256",
                                "value": "2"
                            }
                        ],
                        "constructorArguments": "",
                        "name": "getElementInArrayType",
                        "returnParams": [
                            {
                                "name": "",
                                "type": "uint8",
                                "value": "87"
                            }
                        ],
                        "signature": "getElementInArrayType(uint8,uint64,uint256)"
                    },
                    "errorInfo": "",
                    "fromAddress": "0x8a60806f05876f4d6db00c877b0558dbcad30682",
                    "gasUsed": 1915,
                    "id": 9,
                    "methodDecoded": true,
                    "operation": "CALL",
                    "output": "0x0000000000000000000000000000000000000000000000000000000000000057",
                    "revert": false,
                    "revertMessage": "",
                    "selector": "0x62b21ad7",
                    "status": true,
                    "value": "0"
                },
                "nodeType": 0
            }
        },
        "gasFlame": [
            {
                "children": [
                    {
                        "children": [
                            {
                                "children": [],
                                "depth": 0,
                                "name": "Initial Gas",
                                "value": 22232
                            },
                            {
                                "children": [
                                    {
                                        "children": [],
                                        "depth": 1,
                                        "name": "getMonsterClass",
                                        "value": 2252
                                    },
                                    {
                                        "children": [],
                                        "depth": 1,
                                        "name": "getExtraBalance",
                                        "value": 1211
                                    },
                                    {
                                        "children": [],
                                        "depth": 1,
                                        "name": "setExtraBalance",
                                        "value": 7034
                                    },
                                    {
                                        "children": [],
                                        "depth": 1,
                                        "name": "addMonsterObj",
                                        "value": 157140
                                    },
                                    {
                                        "children": [],
                                        "depth": 1,
                                        "name": "getElementInArrayType",
                                        "value": 1865
                                    },
                                    {
                                        "children": [],
                                        "depth": 1,
                                        "name": "addElementToArrayType",
                                        "value": 43179
                                    },
                                    {
                                        "children": [],
                                        "depth": 1,
                                        "name": "getElementInArrayType",
                                        "value": 1915
                                    },
                                    {
                                        "children": [],
                                        "depth": 1,
                                        "name": "addElementToArrayType",
                                        "value": 13229
                                    },
                                    {
                                        "children": [],
                                        "depth": 1,
                                        "name": "getElementInArrayType",
                                        "value": 1915
                                    },
                                    {
                                        "children": [],
                                        "depth": 1,
                                        "name": "addElementToArrayType",
                                        "value": 13229
                                    },
                                    {
                                        "children": [],
                                        "depth": 1,
                                        "name": "getElementInArrayType",
                                        "value": 1915
                                    },
                                    {
                                        "children": [],
                                        "depth": 1,
                                        "name": "addElementToArrayType",
                                        "value": 13229
                                    },
                                    {
                                        "children": [],
                                        "depth": 1,
                                        "name": "getElementInArrayType",
                                        "value": 1915
                                    },
                                    {
                                        "children": [],
                                        "depth": 1,
                                        "name": "addElementToArrayType",
                                        "value": 13229
                                    },
                                    {
                                        "children": [],
                                        "depth": 1,
                                        "name": "getElementInArrayType",
                                        "value": 1915
                                    },
                                    {
                                        "children": [],
                                        "depth": 1,
                                        "name": "addElementToArrayType",
                                        "value": 13229
                                    },
                                    {
                                        "children": [],
                                        "depth": 1,
                                        "name": "setMonsterClass",
                                        "value": 23478
                                    }
                                ],
                                "depth": 0,
                                "name": "Executed Gas",
                                "value": 351830
                            }
                        ],
                        "depth": -1,
                        "name": "Actual Gas Used",
                        "value": 374062
                    },
                    {
                        "children": [],
                        "depth": -1,
                        "name": "Refunded Gas",
                        "value": 0
                    }
                ],
                "depth": -2,
                "name": "Total Gas",
                "value": 374062
            }
        ],
        "isConfirmed": true,
        "mainTrace": [
            {
                "children": [
                    {
                        "children": [
                            {
                                "children": [],
                                "depth": 1,
                                "id": 1,
                                "order": 1
                            },
                            {
                                "children": [],
                                "depth": 1,
                                "id": 2,
                                "order": 2
                            },
                            {
                                "children": [],
                                "depth": 1,
                                "id": 3,
                                "order": 3
                            },
                            {
                                "children": [],
                                "depth": 1,
                                "id": 4,
                                "order": 4
                            },
                            {
                                "children": [],
                                "depth": 1,
                                "id": 5,
                                "order": 5
                            },
                            {
                                "children": [],
                                "depth": 1,
                                "id": 6,
                                "order": 6
                            },
                            {
                                "children": [],
                                "depth": 1,
                                "id": 7,
                                "order": 7
                            },
                            {
                                "children": [],
                                "depth": 1,
                                "id": 8,
                                "order": 8
                            },
                            {
                                "children": [],
                                "depth": 1,
                                "id": 9,
                                "order": 9
                            },
                            {
                                "children": [],
                                "depth": 1,
                                "id": 10,
                                "order": 10
                            },
                            {
                                "children": [],
                                "depth": 1,
                                "id": 11,
                                "order": 11
                            },
                            {
                                "children": [],
                                "depth": 1,
                                "id": 12,
                                "order": 12
                            },
                            {
                                "children": [],
                                "depth": 1,
                                "id": 13,
                                "order": 13
                            },
                            {
                                "children": [],
                                "depth": 1,
                                "id": 14,
                                "order": 14
                            },
                            {
                                "children": [],
                                "depth": 1,
                                "id": 15,
                                "order": 15
                            },
                            {
                                "children": [],
                                "depth": 1,
                                "id": 16,
                                "order": 16
                            },
                            {
                                "children": [],
                                "depth": 1,
                                "id": 17,
                                "order": 17
                            },
                            {
                                "children": [],
                                "depth": 1,
                                "id": 18,
                                "order": 18
                            }
                        ],
                        "depth": 0,
                        "id": 0,
                        "order": 0
                    }
                ],
                "depth": -1,
                "id": -1,
                "order": -1
            }
        ],
        "mainTraceNodeCount": 19,
        "parentIdMap": {
            "0": -1,
            "1": 0,
            "10": 0,
            "11": 0,
            "12": 0,
            "13": 0,
            "14": 0,
            "15": 0,
            "16": 0,
            "17": 0,
            "18": 0,
            "2": 0,
            "3": 0,
            "4": 0,
            "5": 0,
            "6": 0,
            "7": 0,
            "8": 0,
            "9": 0
        },
        "tidyTrace": [
            {
                "children": [
                    {
                        "children": [
                            {
                                "children": [],
                                "depth": 1,
                                "id": 1,
                                "order": 1
                            },
                            {
                                "children": [],
                                "depth": 1,
                                "id": 2,
                                "order": 2
                            },
                            {
                                "children": [],
                                "depth": 1,
                                "id": 3,
                                "order": 3
                            },
                            {
                                "children": [],
                                "depth": 1,
                                "id": 4,
                                "order": 4
                            },
                            {
                                "children": [],
                                "depth": 1,
                                "id": 5,
                                "order": 5
                            },
                            {
                                "children": [],
                                "depth": 1,
                                "id": 6,
                                "order": 6
                            },
                            {
                                "children": [],
                                "depth": 1,
                                "id": 7,
                                "order": 7
                            },
                            {
                                "children": [],
                                "depth": 1,
                                "id": 8,
                                "order": 8
                            },
                            {
                                "children": [],
                                "depth": 1,
                                "id": 9,
                                "order": 9
                            },
                            {
                                "children": [],
                                "depth": 1,
                                "id": 10,
                                "order": 10
                            },
                            {
                                "children": [],
                                "depth": 1,
                                "id": 11,
                                "order": 11
                            },
                            {
                                "children": [],
                                "depth": 1,
                                "id": 12,
                                "order": 12
                            },
                            {
                                "children": [],
                                "depth": 1,
                                "id": 13,
                                "order": 13
                            },
                            {
                                "children": [],
                                "depth": 1,
                                "id": 14,
                                "order": 14
                            },
                            {
                                "children": [],
                                "depth": 1,
                                "id": 15,
                                "order": 15
                            },
                            {
                                "children": [],
                                "depth": 1,
                                "id": 16,
                                "order": 16
                            },
                            {
                                "children": [],
                                "depth": 1,
                                "id": 17,
                                "order": 17
                            },
                            {
                                "children": [],
                                "depth": 1,
                                "id": 18,
                                "order": 18
                            }
                        ],
                        "depth": 0,
                        "id": 0,
                        "order": 0
                    }
                ],
                "depth": -1,
                "id": -1,
                "order": -1
            }
        ],
        "tidyTraceNodeCount": 19
    },
    "state_change": {
        "stateChanges": [
            {
                "address": "0xabc1c404424bdf24c19a5cc5ef8f47781d18eb3e",
                "erc": "",
                "slots": [
                    {
                        "current": "0x00000000000000000000000000000000000000000000000000000001000000d4",
                        "key": "0x370c8c7c6215b209793aa720f65163fbeecd5f5114008532ba0649ee23405408",
                        "prev": "0x00000000000000000000000000000000000000000000000000000001000000d3"
                    },
                    {
                        "current": "0x0000000000000000000000000000000000000000000000000000000000000001",
                        "key": "0xe03184a99046383c43bb261ab9325273b2d8926a02421a8d5e5672d2b54f0e7b",
                        "prev": "0x0000000000000000000000000000000000000000000000000000000000000000"
                    },
                    {
                        "current": "0x000000000000000000000000000000000000000000000000015c2a7b13fd0000",
                        "key": "0x6879921ea7c3f3c045720e32104b1f609c75c2bb1e753bfd7c96e90599d91e3e",
                        "prev": "0x000000000000000000000000000000000000000000000000013fbe85edc90000"
                    },
                    {
                        "current": "0x0000000000000000000000000000000000000000000000000000000000000008",
                        "key": "0xef7c84f83297977674435b7601b73551630c6a110ba45e1fcb222e1941a20cda",
                        "prev": "0x0000000000000000000000000000000000000000000000000000000000000007"
                    },
                    {
                        "current": "0x000000000000000000000000000000000000000000000000000000005a3be1f0",
                        "key": "0xe03184a99046383c43bb261ab9325273b2d8926a02421a8d5e5672d2b54f0e7f",
                        "prev": "0x0000000000000000000000000000000000000000000000000000000000000000"
                    },
                    {
                        "current": "0x0000000000001e600000000000001e310000000000001e1c0000000000001dd6",
                        "key": "0x17431d322393425baaea2eb0688ba0404d415dc30faeb47e8699b7642124fc5b",
                        "prev": "0x00000000000000000000000000001e310000000000001e1c0000000000001dd6"
                    },
                    {
                        "current": "0x000000000000000000000000000000000000000000000000000000d4000000d4",
                        "key": "0xe03184a99046383c43bb261ab9325273b2d8926a02421a8d5e5672d2b54f0e7e",
                        "prev": "0x0000000000000000000000000000000000000000000000000000000000000000"
                    },
                    {
                        "current": "0x0000000000000000000000000000000000000000000000000000000000000006",
                        "key": "0xe03184a99046383c43bb261ab9325273b2d8926a02421a8d5e5672d2b54f0e7c",
                        "prev": "0x0000000000000000000000000000000000000000000000000000000000000000"
                    },
                    {
                        "current": "0xfe5326002453523ee5717fc5de20c1659df67245000000160000000000001e60",
                        "key": "0xe03184a99046383c43bb261ab9325273b2d8926a02421a8d5e5672d2b54f0e79",
                        "prev": "0x0000000000000000000000000000000000000000000000000000000000000000"
                    },
                    {
                        "current": "0x0000000000000000000000000000000000000000000000180000000000001e60",
                        "key": "0x0000000000000000000000000000000000000000000000000000000000000002",
                        "prev": "0x0000000000000000000000000000000000000000000000180000000000001e5f"
                    },
                    {
                        "current": "0x5669626500000000000000000000000000000000000000000000000000000008",
                        "key": "0xe03184a99046383c43bb261ab9325273b2d8926a02421a8d5e5672d2b54f0e7a",
                        "prev": "0x0000000000000000000000000000000000000000000000000000000000000000"
                    },
                    {
                        "current": "0x000000000000000000000000000000000000000000000000000048761f700441",
                        "key": "0xc33aec271241e5c1ca9f901f3f13416bc459e464f19867500b39c9788bba9c20",
                        "prev": "0x0000000000000000000000000000000000000000000000000000000000000000"
                    },
                    {
                        "current": "0x00000000000000000000000000000000000000000000000002f4ba5f19288000",
                        "key": "0x370c8c7c6215b209793aa720f65163fbeecd5f5114008532ba0649ee23405406",
                        "prev": "0x00000000000000000000000000000000000000000000000002f12ce074620000"
                    }
                ],
                "storageVariables": [
                    {
                        "name": "totalMonster",
                        "type": "uint64",
                        "value": {
                            "current": "7776",
                            "prev": "7775",
                            "typeTag": 1
                        }
                    },
                    {
                        "name": "totalClass",
                        "type": "uint32",
                        "value": {
                            "current": "24",
                            "prev": "24",
                            "typeTag": 1
                        }
                    },
                    {
                        "name": "trainerExtraBalance",
                        "type": "mapping(address => uint256)",
                        "value": {
                            "pairs": [
                                {
                                    "key": "0xfe5326002453523ee5717fc5de20c1659df67245",
                                    "value": {
                                        "current": "98000000000000000",
                                        "prev": "90000000000000000",
                                        "typeTag": 1
                                    }
                                }
                            ],
                            "typeTag": 4
                        }
                    },
                    {
                        "name": "monsterWorld",
                        "type": "mapping(uint64 => struct EtheremonData.MonsterObj)",
                        "value": {
                            "pairs": [
                                {
                                    "key": "7776",
                                    "value": {
                                        "fields": [
                                            {
                                                "name": "monsterId",
                                                "type": "uint64",
                                                "value": {
                                                    "current": "7776",
                                                    "prev": "0",
                                                    "typeTag": 1
                                                }
                                            },
                                            {
                                                "name": "classId",
                                                "type": "uint32",
                                                "value": {
                                                    "current": "22",
                                                    "prev": "0",
                                                    "typeTag": 1
                                                }
                                            },
                                            {
                                                "name": "trainer",
                                                "type": "address",
                                                "value": {
                                                    "current": "0xfe5326002453523ee5717fc5de20c1659df67245",
                                                    "prev": "0x0000000000000000000000000000000000000000",
                                                    "typeTag": 1
                                                }
                                            },
                                            {
                                                "name": "name",
                                                "type": "string",
                                                "value": {
                                                    "current": "Vibe",
                                                    "prev": "",
                                                    "typeTag": 1
                                                }
                                            },
                                            {
                                                "name": "exp",
                                                "type": "uint32",
                                                "value": {
                                                    "current": "1",
                                                    "prev": "0",
                                                    "typeTag": 1
                                                }
                                            },
                                            {
                                                "name": "statBases",
                                                "type": "uint8[]",
                                                "value": {
                                                    "elemType": "uint8",
                                                    "elems": [
                                                        {
                                                            "index": 0,
                                                            "value": {
                                                                "current": "65",
                                                                "prev": "0",
                                                                "typeTag": 1
                                                            }
                                                        },
                                                        {
                                                            "index": 1,
                                                            "value": {
                                                                "current": "4",
                                                                "prev": "0",
                                                                "typeTag": 1
                                                            }
                                                        },
                                                        {
                                                            "index": 2,
                                                            "value": {
                                                                "current": "112",
                                                                "prev": "0",
                                                                "typeTag": 1
                                                            }
                                                        },
                                                        {
                                                            "index": 3,
                                                            "value": {
                                                                "current": "31",
                                                                "prev": "0",
                                                                "typeTag": 1
                                                            }
                                                        },
                                                        {
                                                            "index": 4,
                                                            "value": {
                                                                "current": "118",
                                                                "prev": "0",
                                                                "typeTag": 1
                                                            }
                                                        },
                                                        {
                                                            "index": 5,
                                                            "value": {
                                                                "current": "72",
                                                                "prev": "0",
                                                                "typeTag": 1
                                                            }
                                                        }
                                                    ],
                                                    "typeTag": 2
                                                }
                                            },
                                            {
                                                "name": "createIndex",
                                                "type": "uint32",
                                                "value": {
                                                    "current": "212",
                                                    "prev": "0",
                                                    "typeTag": 1
                                                }
                                            },
                                            {
                                                "name": "lastClaimIndex",
                                                "type": "uint32",
                                                "value": {
                                                    "current": "212",
                                                    "prev": "0",
                                                    "typeTag": 1
                                                }
                                            },
                                            {
                                                "name": "createTime",
                                                "type": "uint256",
                                                "value": {
                                                    "current": "1513873904",
                                                    "prev": "0",
                                                    "typeTag": 1
                                                }
                                            }
                                        ],
                                        "typeTag": 3
                                    }
                                }
                            ],
                            "typeTag": 4
                        }
                    },
                    {
                        "name": "monsterClass",
                        "type": "mapping(uint32 => struct EtheremonData.MonsterClass)",
                        "value": {
                            "pairs": [
                                {
                                    "key": "22",
                                    "value": {
                                        "fields": [
                                            {
                                                "name": "price",
                                                "type": "uint256",
                                                "value": {
                                                    "current": "213000000000000000",
                                                    "prev": "212000000000000000",
                                                    "typeTag": 1
                                                }
                                            },
                                            {
                                                "name": "total",
                                                "type": "uint32",
                                                "value": {
                                                    "current": "212",
                                                    "prev": "211",
                                                    "typeTag": 1
                                                }
                                            },
                                            {
                                                "name": "catchable",
                                                "type": "bool",
                                                "value": {
                                                    "current": "true",
                                                    "prev": "true",
                                                    "typeTag": 1
                                                }
                                            }
                                        ],
                                        "typeTag": 3
                                    }
                                }
                            ],
                            "typeTag": 4
                        }
                    },
                    {
                        "name": "trainerDex",
                        "type": "mapping(address => uint64[])",
                        "value": {
                            "pairs": [
                                {
                                    "key": "0xfe5326002453523ee5717fc5de20c1659df67245",
                                    "value": {
                                        "elemType": "uint64",
                                        "elems": [
                                            {
                                                "index": 3,
                                                "value": {
                                                    "current": "7776",
                                                    "prev": "0",
                                                    "typeTag": 1
                                                }
                                            },
                                            {
                                                "index": 4,
                                                "value": {
                                                    "current": "7638",
                                                    "prev": "7638",
                                                    "typeTag": 1
                                                }
                                            },
                                            {
                                                "index": 5,
                                                "value": {
                                                    "current": "7708",
                                                    "prev": "7708",
                                                    "typeTag": 1
                                                }
                                            },
                                            {
                                                "index": 6,
                                                "value": {
                                                    "current": "7729",
                                                    "prev": "7729",
                                                    "typeTag": 1
                                                }
                                            }
                                        ],
                                        "typeTag": 2
                                    }
                                }
                            ],
                            "typeTag": 4
                        }
                    }
                ]
            }
        ]
    }
}