{
    "balance_change": {
        "balanceChanges": [
            {
                "account": "0x1b4aaf0c0f9df952d557946a1a76759bf65cabd3",
                "assets": [
                    {
                        "address": "0xdac17f958d2ee523a2206206994597c13d831ec7",
                        "amount": "3.398895",
                        "iconUrl": "https://assets.blocksec.com/icon/fcea71f3193ce895be44bfdf941f7e4c9381dd587f273c2d1a27f1263d84e4ea.png",
                        "isERC1155": false,
                        "isERC721": false,
                        "sign": false,
                        "value": "3.398895"
                    }
                ]
            },
            {
                "account": "0x90e18a6920985dbacc3d76cf27a3f2131923c720",
                "assets": [
                    {
                        "address": "0xdac17f958d2ee523a2206206994597c13d831ec7",
                        "amount": "0.033988",
                        "iconUrl": "https://assets.blocksec.com/icon/fcea71f3193ce895be44bfdf941f7e4c9381dd587f273c2d1a27f1263d84e4ea.png",
                        "isERC1155": false,
                        "isERC721": false,
                        "sign": true,
                        "value": "0.033988"
                    }
                ]
            },
            {
                "account": "0xf2cc09627cbb0b2b3496baec91be9cdaa3bf9fb9",
                "assets": [
                    {
                        "address": "0xdac17f958d2ee523a2206206994597c13d831ec7",
                        "amount": "3.364907",
                        "iconUrl": "https://assets.blocksec.com/icon/fcea71f3193ce895be44bfdf941f7e4c9381dd587f273c2d1a27f1263d84e4ea.png",
                        "isERC1155": false,
                        "isERC721": false,
                        "sign": true,
                        "value": "3.364907"
                    }
                ]
            }
        ]
    },
    "profile": {
        "basic_info": {
            "baseFee": "22.935190394",
            "blockNumber": 18625273,
            "callData": "0xd29dff12000000000000000000000000dff3de11361cd5117fa829d9e4aea4b43c303e40000000000000000000000000000000000000000000000000000000000000a988000000000000000000000000dac17f958d2ee523a2206206994597c13d831ec7",
            "debugEnable": true,
            "errorInfo": "",
            "eventCount": 2,
            "feeRecipient": "0x1f9090aae28b8a3dceadf281b0f12828e676c326",
            "formatValue": "0",
            "gasLimit": 250000,
            "gasPrice": "23.935190394",
            "gasUsed": 157362,
            "intTxnCount": 11,
            "internalRevert": false,
            "internalRevertMessage": "",
            "isContractCreation": false,
            "isFlashloan": false,
            "maxFee": "45",
            "nonce": 0,
            "overwritedBlockNumber": -1,
            "priorityFee": "1",
            "receiver": "0x881d4032abe4188e2237efcd27ab435e81fc6bb1",
            "revertMessage": "",
            "sender": "0xb1e8e9deb7140857486fa9a1266b1b270b5df330",
            "simulationEnable": true,
            "sourceTxnHash": "0xd372af0f878e480d62370258bf5ea95e67b873560bd02364c31af9eb58b76fa9",
            "status": true,
            "timestamp": "2023-11-22T05:43:11Z",
            "transactionFee": "0.003766489430780628",
            "txnHash": "0xd372af0f878e480d62370258bf5ea95e67b873560bd02364c31af9eb58b76fa9",
            "txnIndex": 112,
            "type": 2,
            "value": "0"
        },
        "fund_flow": [
            {
                "amount": "3.364907",
                "from": "0x1b4aaf0c0f9df952d557946a1a76759bf65cabd3",
                "id": 1,
                "isERC1155": false,
                "isERC721": false,
                "isReverted": false,
                "order": 1,
                "to": "0xf2cc09627cbb0b2b3496baec91be9cdaa3bf9fb9",
                "token": "0xdac17f958d2ee523a2206206994597c13d831ec7"
            },
            {
                "amount": "0.033988",
                "from": "0x1b4aaf0c0f9df952d557946a1a76759bf65cabd3",
                "id": 2,
                "isERC1155": false,
                "isERC721": false,
                "isReverted": false,
                "order": 2,
                "to": "0x90e18a6920985dbacc3d76cf27a3f2131923c720",
                "token": "0xdac17f958d2ee523a2206206994597c13d831ec7"
            }
        ],
        "token_infos": [
            {
                "address": "0xc02aaa39b223fe8d0a0e5c4f27ead9083c756cc2",
                "decimals": 18
            },
            {
                "address": "0xdac17f958d2ee523a2206206994597c13d831ec7",
                "decimals": 6
            },
            {
                "address": "0xeeeeeeeeeeeeeeeeeeeeeeeeeeeeeeeeeeeeeeee",
                "decimals": 18
            }
        ]
    },
    "address_label": {
        "labels": [
            {
                "address": "0x0000000000000000000000000000000000000001",
                "label": "Precompiled"
            },
            {
                "address": "0x0000000000000000000000000000000000000002",
                "label": "Precompiled"
            },
            {
                "address": "0x0000000000000000000000000000000000000003",
                "label": "Precompiled"
            },
            {
                "address": "0x0000000000000000000000000000000000000004",
                "label": "Precompiled"
            },
            {
                "address": "0xeeeeeeeeeeeeeeeeeeeeeeeeeeeeeeeeeeeeeeee",
                "label": "Ether"
            },
            {
                "address": "0x881d4032abe4188e2237efcd27ab435e81fc6bb1",
                "label": "Coinbase: Commerce"
            },
            {
                "address": "0x90e18a6920985dbacc3d76cf27a3f2131923c720",
                "label": "Coinbase: Commerce Fee 5"
            },
            {
                "address": "0xdac17f958d2ee523a2206206994597c13d831ec7",
                "label": "Tether: USDT Stablecoin"
            }
        ]
    },
    "trace": {
        "accountLabels": null,
        "dataMap": {
            "-1": {
                "invocation": {
                    "address": "0xb1e8e9deb7140857486fa9a1266b1b270b5df330",
                    "callData": "",
                    "decodedMethod": null,
                    "errorInfo": "",
                    "fromAddress": "",
                    "gasUsed": 0,
                    "id": -1,
                    "methodDecoded": false,
                    "operation": "",
                    "output": "",
                    "revert": false,
                    "revertMessage": "",
                    "selector": "",
                    "status": false,
                    "value": ""
                },
                "nodeType": 0
            },
            "0": {
                "invocation": {
                    "address": "0x881d4032abe4188e2237efcd27ab435e81fc6bb1",
                    "callData": "0x000000000000000000000000dff3de11361cd5117fa829d9e4aea4b43c303e40000000000000000000000000000000000000000000000000000000000000a988000000000000000000000000dac17f958d2ee523a2206206994597c13d831ec7",
                    "decodedMethod": null,
                    "errorInfo": "",
                    "fromAddress": "0xb1e8e9deb7140857486fa9a1266b1b270b5df330",
                    "gasUsed": 157362,
                    "id": 0,
                    "methodDecoded": false,
                    "operation": "CALL",
                    "output": "0x0000000000000000000000001b4aaf0c0f9df952d557946a1a76759bf65cabd3",
                    "revert": false,
                    "revertMessage": "",
                    "selector": "0xd29dff12",
                    "status": true,
                    "value": "0"
                },
                "nodeType": 0
            },
            "1": {
                "invocation": {
                    "address": "0x1b4aaf0c0f9df952d557946a1a76759bf65cabd3",
                    "callData": "0x3d602d80600a3d3981f3363d3d373d3d3d363d73dff3de11361cd5117fa829d9e4aea4b43c303e405af43d82803e903d91602b57fd5bf3",
                    "decodedMethod": null,
                    "errorInfo": "",
                    "fromAddress": "0x881d4032abe4188e2237efcd27ab435e81fc6bb1",
                    "gasUsed": 9031,
                    "id": 1,
                    "methodDecoded": false,
                    "operation": "CREATE2",
                    "output": "0x363d3d373d3d3d363d73dff3de11361cd5117fa829d9e4aea4b43c303e405af43d82803e903d91602b57fd5bf3",
                    "revert": false,
                    "revertMessage": "",
                    "selector": "",
                    "status": true,
                    "value": "0"
                },
                "nodeType": 0
            },
            "10": {
                "invocation": {
                    "address": "0xdac17f958d2ee523a2206206994597c13d831ec7",
                    "callData": "0x000000000000000000000000f2cc09627cbb0b2b3496baec91be9cdaa3bf9fb9000000000000000000000000000000000000000000000000000000000033582b",
                    "decodedMethod": {
                        "callParams": [
                            {
                                "name": "_to",
                                "type": "address",
                                "value": "0xf2cc09627cbb0b2b3496baec91be9cdaa3bf9fb9"
                            },
                            {
                                "decimalAvailable": true,
                                "name": "_value",
                                "type": "uint256",
                                "value": "3,364,907"
                            }
                        ],
                        "constructorArguments": "",
                        "name": "transfer",
                        "returnParams": [],
                        "signature": "transfer(address,uint256)"
                    },
                    "errorInfo": "",
                    "fromAddress": "0x1b4aaf0c0f9df952d557946a1a76759bf65cabd3",
                    "gasUsed": 20501,
                    "id": 10,
                    "methodDecoded": true,
                    "operation": "CALL",
                    "output": "",
                    "revert": false,
                    "revertMessage": "",
                    "selector": "0xa9059cbb",
                    "status": true,
                    "value": "0"
                },
                "nodeType": 0
            },
            "11": {
                "event": {
                    "contract": "0xdac17f958d2ee523a2206206994597c13d831ec7",
                    "decodedLog": {
                        "name": "Transfer",
                        "params": [
                            {
                                "name": "from",
                                "type": "address",
                                "value": "0x1b4aaf0c0f9df952d557946a1a76759bf65cabd3"
                            },
                            {
                                "name": "to",
                                "type": "address",
                                "value": "0xf2cc09627cbb0b2b3496baec91be9cdaa3bf9fb9"
                            },
                            {
                                "decimalAvailable": true,
                                "name": "value",
                                "type": "uint256",
                                "value": "3,364,907"
                            }
                        ],
                        "signature": "Transfer(address,address,uint256)"
                    },
                    "id": 11,
                    "logData": "0x000000000000000000000000000000000000000000000000000000000033582b",
                    "logDecoded": true,
                    "operation": "EVENT",
                    "revert": false,
                    "status": true,
                    "topics": [
                        "0xddf252ad1be2c89b69c2b068fc378daa952ba7f163c4a11628f55a4df523b3ef",
                        "0x0000000000000000000000001b4aaf0c0f9df952d557946a1a76759bf65cabd3",
                        "0x000000000000000000000000f2cc09627cbb0b2b3496baec91be9cdaa3bf9fb9"
                    ]
                },
                "nodeType": 1
            },
            "12": {
                "invocation": {
                    "address": "0xdac17f958d2ee523a2206206994597c13d831ec7",
                    "callData": "0x00000000000000000000000090e18a6920985dbacc3d76cf27a3f2131923c72000000000000000000000000000000000000000000000000000000000000084c4",
                    "decodedMethod": {
                        "callParams": [
                            {
                                "name": "_to",
                                "type": "address",
                                "value": "0x90e18a6920985dbacc3d76cf27a3f2131923c720"
                            },
                            {
                                "decimalAvailable": true,
                                "name": "_value",
                                "type": "uint256",
                                "value": "33,988"
                            }
                        ],
                        "constructorArguments": "",
                        "name": "transfer",
                        "returnParams": [],
                        "signature": "transfer(address,uint256)"
                    },
                    "errorInfo": "",
                    "fromAddress": "0x1b4aaf0c0f9df952d557946a1a76759bf65cabd3",
                    "gasUsed": 9701,
                    "id": 12,
                    "methodDecoded": true,
                    "operation": "CALL",
                    "output": "",
                    "revert": false,
                    "revertMessage": "",
                    "selector": "0xa9059cbb",
                    "status": true,
                    "value": "0"
                },
                "nodeType": 0
            },
            "13": {
                "event": {
                    "contract": "0xdac17f958d2ee523a2206206994597c13d831ec7",
                    "decodedLog": {
                        "name": "Transfer",
                        "params": [
                            {
                                "name": "from",
                                "type": "address",
                                "value": "0x1b4aaf0c0f9df952d557946a1a76759bf65cabd3"
                            },
                            {
                                "name": "to",
                                "type": "address",
                                "value": "0x90e18a6920985dbacc3d76cf27a3f2131923c720"
                            },
                            {
                                "decimalAvailable": true,
                                "name": "value",
                                "type": "uint256",
                                "value": "33,988"
                            }
                        ],
                        "signature": "Transfer(address,address,uint256)"
                    },
                    "id": 13,
                    "logData": "0x00000000000000000000000000000000000000000000000000000000000084c4",
                    "logDecoded": true,
                    "operation": "EVENT",
                    "revert": false,
                    "status": true,
                    "topics": [
                        "0xddf252ad1be2c89b69c2b068fc378daa952ba7f163c4a11628f55a4df523b3ef",
                        "0x0000000000000000000000001b4aaf0c0f9df952d557946a1a76759bf65cabd3",
                        "0x00000000000000000000000090e18a6920985dbacc3d76cf27a3f2131923c720"
                    ]
                },
                "nodeType": 1
            },
            "2": {
                "invocation": {
                    "address": "0xdff3de11361cd5117fa829d9e4aea4b43c303e40",
                    "callData": "0x",
                    "decodedMethod": {
                        "callParams": [],
                        "constructorArguments": "",
                        "name": "destination",
                        "returnParams": [
                            {
                                "name": "",
                                "type": "address",
                                "value": "0xf2cc09627cbb0b2b3496baec91be9cdaa3bf9fb9"
                            }
                        ],
                        "signature": "destination()"
                    },
                    "errorInfo": "",
                    "fromAddress": "0x881d4032abe4188e2237efcd27ab435e81fc6bb1",
                    "gasUsed": 2359,
                    "id": 2,
                    "methodDecoded": true,
                    "operation": "STATICCALL",
                    "output": "0x000000000000000000000000f2cc09627cbb0b2b3496baec91be9cdaa3bf9fb9",
                    "revert": false,
                    "revertMessage": "",
                    "selector": "0xb269681d",
                    "status": true,
                    "value": "0"
                },
                "nodeType": 0
            },
            "3": {
                "invocation": {
                    "address": "0xdff3de11361cd5117fa829d9e4aea4b43c303e40",
                    "callData": "0x",
                    "decodedMethod": {
                        "callParams": [],
                        "constructorArguments": "",
                        "name": "feeDestination",
                        "returnParams": [
                            {
                                "name": "",
                                "type": "address",
                                "value": "0x90e18a6920985dbacc3d76cf27a3f2131923c720"
                            }
                        ],
                        "signature": "feeDestination()"
                    },
                    "errorInfo": "",
                    "fromAddress": "0x881d4032abe4188e2237efcd27ab435e81fc6bb1",
                    "gasUsed": 2381,
                    "id": 3,
                    "methodDecoded": true,
                    "operation": "STATICCALL",
                    "output": "0x00000000000000000000000090e18a6920985dbacc3d76cf27a3f2131923c720",
                    "revert": false,
                    "revertMessage": "",
                    "selector": "0xde53fcd5",
                    "status": true,
                    "value": "0"
                },
                "nodeType": 0
            },
            "4": {
                "invocation": {
                    "address": "0x1b4aaf0c0f9df952d557946a1a76759bf65cabd3",
                    "callData": "0x000000000000000000000000f2cc09627cbb0b2b3496baec91be9cdaa3bf9fb900000000000000000000000090e18a6920985dbacc3d76cf27a3f2131923c720",
                    "decodedMethod": {
                        "callParams": [
                            {
                                "name": "owner",
                                "type": "address",
                                "value": "0xf2cc09627cbb0b2b3496baec91be9cdaa3bf9fb9"
                            },
                            {
                                "name": "regCenter",
                                "type": "address",
                                "value": "0x90e18a6920985dbacc3d76cf27a3f2131923c720"
                            }
                        ],
                        "constructorArguments": "",
                        "name": "init",
                        "returnParams": [],
                        "signature": "init(address,address)"
                    },
                    "errorInfo": "",
                    "fromAddress": "0x881d4032abe4188e2237efcd27ab435e81fc6bb1",
                    "gasUsed": 45046,
                    "id": 4,
                    "methodDecoded": true,
                    "operation": "CALL",
                    "output": "",
                    "revert": false,
                    "revertMessage": "",
                    "selector": "0xf09a4016",
                    "status": true,
                    "value": "0"
                },
                "nodeType": 0
            },
            "5": {
                "invocation": {
                    "address": "0xdff3de11361cd5117fa829d9e4aea4b43c303e40",
                    "callData": "0x000000000000000000000000f2cc09627cbb0b2b3496baec91be9cdaa3bf9fb900000000000000000000000090e18a6920985dbacc3d76cf27a3f2131923c720",
                    "decodedMethod": {
                        "callParams": [
                            {
                                "name": "owner",
                                "type": "address",
                                "value": "0xf2cc09627cbb0b2b3496baec91be9cdaa3bf9fb9"
                            },
                            {
                                "name": "regCenter",
                                "type": "address",
                                "value": "0x90e18a6920985dbacc3d76cf27a3f2131923c720"
                            }
                        ],
                        "constructorArguments": "",
                        "name": "init",
                        "returnParams": [],
                        "signature": "init(address,address)"
                    },
                    "errorInfo": "",
                    "fromAddress": "0x1b4aaf0c0f9df952d557946a1a76759bf65cabd3",
                    "gasUsed": 44871,
                    "id": 5,
                    "methodDecoded": true,
                    "operation": "DELEGATECALL",
                    "output": "",
                    "revert": false,
                    "revertMessage": "",
                    "selector": "0xf09a4016",
                    "status": true,
                    "value": "0"
                },
                "nodeType": 0
            },
            "6": {
                "invocation": {
                    "address": "0x1b4aaf0c0f9df952d557946a1a76759bf65cabd3",
                    "callData": "0x000000000000000000000000dac17f958d2ee523a2206206994597c13d831ec7",
                    "decodedMethod": {
                        "callParams": [
                            {
                                "name": "tokenContract",
                                "type": "address",
                                "value": "0xdac17f958d2ee523a2206206994597c13d831ec7"
                            }
                        ],
                        "constructorArguments": "",
                        "name": "flushERC20",
                        "returnParams": [],
                        "signature": "flushERC20(address)"
                    },
                    "errorInfo": "",
                    "fromAddress": "0x881d4032abe4188e2237efcd27ab435e81fc6bb1",
                    "gasUsed": 44546,
                    "id": 6,
                    "methodDecoded": true,
                    "operation": "CALL",
                    "output": "",
                    "revert": false,
                    "revertMessage": "",
                    "selector": "0x477523c2",
                    "status": true,
                    "value": "0"
                },
                "nodeType": 0
            },
            "7": {
                "invocation": {
                    "address": "0xdff3de11361cd5117fa829d9e4aea4b43c303e40",
                    "callData": "0x000000000000000000000000dac17f958d2ee523a2206206994597c13d831ec7",
                    "decodedMethod": {
                        "callParams": [
                            {
                                "name": "tokenContract",
                                "type": "address",
                                "value": "0xdac17f958d2ee523a2206206994597c13d831ec7"
                            }
                        ],
                        "constructorArguments": "",
                        "name": "flushERC20",
                        "returnParams": [],
                        "signature": "flushERC20(address)"
                    },
                    "errorInfo": "",
                    "fromAddress": "0x1b4aaf0c0f9df952d557946a1a76759bf65cabd3",
                    "gasUsed": 44377,
                    "id": 7,
                    "methodDecoded": true,
                    "operation": "DELEGATECALL",
                    "output": "",
                    "revert": false,
                    "revertMessage": "",
                    "selector": "0x477523c2",
                    "status": true,
                    "value": "0"
                },
                "nodeType": 0
            },
            "8": {
                "invocation": {
                    "address": "0xb15f3d0f1a61b7a09f51237aa1b82aee9dafce97",
                    "callData": "0x000000000000000000000000f2cc09627cbb0b2b3496baec91be9cdaa3bf9fb9000000000000000000000000dac17f958d2ee523a2206206994597c13d831ec700000000000000000000000090e18a6920985dbacc3d76cf27a3f2131923c720",
                    "decodedMethod": null,
                    "errorInfo": "",
                    "fromAddress": "0x1b4aaf0c0f9df952d557946a1a76759bf65cabd3",
                    "gasUsed": 41052,
                    "id": 8,
                    "methodDecoded": false,
                    "operation": "DELEGATECALL",
                    "output": "",
                    "revert": false,
                    "revertMessage": "",
                    "selector": "0xd0080559",
                    "status": true,
                    "value": "0"
                },
                "nodeType": 0
            },
            "9": {
                "invocation": {
                    "address": "0xdac17f958d2ee523a2206206994597c13d831ec7",
                    "callData": "0x0000000000000000000000001b4aaf0c0f9df952d557946a1a76759bf65cabd3",
                    "decodedMethod": {
                        "callParams": [
                            {
                                "name": "who",
                                "type": "address",
                                "value": "0x1b4aaf0c0f9df952d557946a1a76759bf65cabd3"
                            }
                        ],
                        "constructorArguments": "",
                        "name": "balanceOf",
                        "returnParams": [
                            {
                                "decimalAvailable": true,
                                "name": "",
                                "type": "uint256",
                                "value": "3,398,895"
                            }
                        ],
                        "signature": "balanceOf(address)"
                    },
                    "errorInfo": "",
                    "fromAddress": "0x1b4aaf0c0f9df952d557946a1a76759bf65cabd3",
                    "gasUsed": 5031,
                    "id": 9,
                    "methodDecoded": true,
                    "operation": "STATICCALL",
                    "output": "0x000000000000000000000000000000000000000000000000000000000033dcef",
                    "revert": false,
                    "revertMessage": "",
                    "selector": "0x70a08231",
                    "status": true,
                    "value": "0"
                },
                "nodeType": 0
            }
        },
        "gasFlame": [
            {
                "children": [
                    {
                        "children": [
                            {
                                "children": [],
                                "depth": 0,
                                "name": "Initial Gas",
                                "value": 21952
                            },
                            {
                                "children": [
                                    {
                                        "children": [],
                                        "depth": 1,
                                        "name": "contract creation",
                                        "value": 9031
                                    },
                                    {
                                        "children": [],
                                        "depth": 1,
                                        "name": "destination",
                                        "value": 2359
                                    },
                                    {
                                        "children": [],
                                        "depth": 1,
                                        "name": "feeDestination",
                                        "value": 2381
                                    },
                                    {
                                        "children": [
                                            {
                                                "children": [],
                                                "depth": 2,
                                                "name": "init",
                                                "value": 44871
                                            }
                                        ],
                                        "depth": 1,
                                        "name": "init",
                                        "value": 45046
                                    },
                                    {
                                        "children": [
                                            {
                                                "children": [
                                                    {
                                                        "children": [
                                                            {
                                                                "children": [],
                                                                "depth": 4,
                                                                "name": "balanceOf",
                                                                "value": 5031
                                                            },
                                                            {
                                                                "children": [],
                                                                "depth": 4,
                                                                "name": "transfer",
                                                                "value": 20501
                                                            },
                                                            {
                                                                "children": [],
                                                                "depth": 4,
                                                                "name": "transfer",
                                                                "value": 9701
                                                            }
                                                        ],
                                                        "depth": 3,
                                                        "name": "0xd0080559",
                                                        "value": 41052
                                                    }
                                                ],
                                                "depth": 2,
                                                "name": "flushERC20",
                                                "value": 44377
                                            }
                                        ],
                                        "depth": 1,
                                        "name": "flushERC20",
                                        "value": 44546
                                    }
                                ],
                                "depth": 0,
                                "name": "Executed Gas",
                                "value": 140210
                            }
                        ],
                        "depth": -1,
                        "name": "Actual Gas Used",
                        "value": 157362
                    },
                    {
                        "children": [],
                        "depth": -1,
                        "name": "Refunded Gas",
                        "value": 4800
                    }
                ],
                "depth": -2,
                "name": "Total Gas",
                "value": 162162
            }
        ],
        "isConfirmed": true,
        "mainTrace": [
            {
                "children": [
                    {
                        "children": [
                            {
                                "children": [],
                                "depth": 1,
                                "id": 1,
                                "order": 1
                            },
                            {
                                "children": [],
                                "depth": 1,
                                "id": 2,
                                "order": 2
                            },
                            {
                                "children": [],
                                "depth": 1,
                                "id": 3,
                                "order": 3
                            },
                            {
                                "children": [
                                    {
                                        "children": [],
                                        "depth": 2,
                                        "id": 5,
                                        "order": 5
                                    }
                                ],
                                "depth": 1,
                                "id": 4,
                                "order": 4
                            },
                            {
                                "children": [
                                    {
                                        "children": [
                                            {
                                                "children": [
                                                    {
                                                        "children": [],
                                                        "depth": 4,
                                                        "id": 9,
                                                        "order": 9
                                                    },
                                                    {
                                                        "children": [
                                                            {
                                                                "children": [],
                                                                "depth": 5,
                                                                "id": 11,
                                                                "order": 11
                                                            }
                                                        ],
                                                        "depth": 4,
                                                        "id": 10,
                                                        "order": 10
                                                    },
                                                    {
                                                        "children": [
                                                            {
                                                                "children": [],
                                                                "depth": 5,
                                                                "id": 13,
                                                                "order": 13
                                                            }
                                                        ],
                                                        "depth": 4,
                                                        "id": 12,
                                                        "order": 12
                                                    }
                                                ],
                                                "depth": 3,
                                                "id": 8,
                                                "order": 8
                                            }
                                        ],
                                        "depth": 2,
                                        "id": 7,
                                        "order": 7
                                    }
                                ],
                                "depth": 1,
                                "id": 6,
                                "order": 6
                            }
                        ],
                        "depth": 0,
                        "id": 0,
                        "order": 0
                    }
                ],
                "depth": -1,
                "id": -1,
                "order": -1
            }
        ],
        "mainTraceNodeCount": 14,
        "parentIdMap": {
            "0": -1,
            "1": 0,
            "10": 8,
            "11": 10,
            "12": 8,
            "13": 12,
            "2": 0,
            "3": 0,
            "4": 0,
            "5": 4,
            "6": 0,
            "7": 6,
            "8": 7,
            "9": 8
        },
        "tidyTrace": [
            {
                "children": [
                    {
                        "children": [
                            {
                                "children": [],
                                "depth": 1,
                                "id": 1,
                                "order": 1
                            },
                            {
                                "children": [
                                    {
                                        "children": [],
                                        "depth": 2,
                                        "id": 5,
                                        "order": 5
                                    }
                                ],
                                "depth": 1,
                                "id": 4,
                                "order": 4
                            },
                            {
                                "children": [
                                    {
                                        "children": [
                                            {
                                                "children": [
                                                    {
                                                        "children": [
                                                            {
                                                                "children": [],
                                                                "depth": 5,
                                                                "id": 11,
                                                                "order": 11
                                                            }
                                                        ],
                                                        "depth": 4,
                                                        "id": 10,
                                                        "order": 10
                                                    },
                                                    {
                                                        "children": [
                                                            {
                                                                "children": [],
                                                                "depth": 5,
                                                                "id": 13,
                                                                "order": 13
                                                            }
                                                        ],
                                                        "depth": 4,
                                                        "id": 12,
                                                        "order": 12
                                                    }
                                                ],
                                                "depth": 3,
                                                "id": 8,
                                                "order": 8
                                            }
                                        ],
                                        "depth": 2,
                                        "id": 7,
                                        "order": 7
                                    }
                                ],
                                "depth": 1,
                                "id": 6,
                                "order": 6
                            }
                        ],
                        "depth": 0,
                        "id": 0,
                        "order": 0
                    }
                ],
                "depth": -1,
                "id": -1,
                "order": -1
            }
        ],
        "tidyTraceNodeCount": 11
    },
    "state_change": {
        "stateChanges": [
            {
                "address": "0x1b4aaf0c0f9df952d557946a1a76759bf65cabd3",
                "erc": "",
                "slots": [
                    {
                        "current": "0x000000000000000000000000f2cc09627cbb0b2b3496baec91be9cdaa3bf9fb9",
                        "key": "0x0000000000000000000000000000000000000000000000000000000000000000",
                        "prev": "0x0000000000000000000000000000000000000000000000000000000000000000"
                    },
                    {
                        "current": "0x00000000000000000000000090e18a6920985dbacc3d76cf27a3f2131923c720",
                        "key": "0x0000000000000000000000000000000000000000000000000000000000000001",
                        "prev": "0x0000000000000000000000000000000000000000000000000000000000000000"
                    }
                ],
                "storageVariables": []
            },
            {
                "address": "0xdac17f958d2ee523a2206206994597c13d831ec7",
                "erc": "ERC-20",
                "slots": [
                    {
                        "current": "0x000000000000000000000000000000000000000000000000000000004d81eac2",
                        "key": "0xffdf269027ef0fe486527148754cf3068e4e14154743006d274b2d7747018266",
                        "prev": "0x000000000000000000000000000000000000000000000000000000004d4e9297"
                    },
                    {
                        "current": "0x0000000000000000000000000000000000000000000000000000000000000000",
                        "key": "0x260b400fc8cb138da8f5ada90e23cc4e0dd26bdc49e35de022134b90a09350a9",
                        "prev": "0x000000000000000000000000000000000000000000000000000000000033dcef"
                    },
                    {
                        "current": "0x000000000000000000000000000000000000000000000000000000000455f6bb",
                        "key": "0xb9e2818f8a4d95cf3101be2b2787b334ed0635190d0a04fe824aa4d875d234f3",
                        "prev": "0x00000000000000000000000000000000000000000000000000000000045571f7"
                    }
                ],
                "storageVariables": [
                    {
                        "name": "balances",
                        "type": "mapping(address => uint256)",
                        "value": {
                            "pairs": [
                                {
                                    "key": "0x1b4aaf0c0f9df952d557946a1a76759bf65cabd3",
                                    "value": {
                                        "current": "0",
                                        "prev": "3398895",
                                        "typeTag": 1
                                    }
                                },
                                {
                                    "key": "0x90e18a6920985dbacc3d76cf27a3f2131923c720",
                                    "value": {
                                        "current": "72742587",
                                        "prev": "72708599",
                                        "typeTag": 1
                                    }
                                },
                                {
                                    "key": "0xf2cc09627cbb0b2b3496baec91be9cdaa3bf9fb9",
                                    "value": {
                                        "current": "1300359874",
                                        "prev": "1296994967",
                                        "typeTag": 1
                                    }
                                }
                            ],
                            "typeTag": 4
                        }
                    }
                ]
            }
        ]
    }
}