{
    "balance_change": {
        "balanceChanges": [
            {
                "account": "0xda43c54ce5083885f561e05fd6220b7096be246c",
                "assets": [
                    {
                        "address": "0x0f5d2fb29fb7d3cfee444a200298f468908cc942",
                        "amount": "1.095",
                        "iconUrl": "https://assets.blocksec.com/icon/54d64db7c4b21ad51c32e15fe06a87bf31831382d6c6aa49b4adb5dfaa42993c.png",
                        "isERC1155": false,
                        "isERC721": false,
                        "sign": false,
                        "value": "0.7161300000000000282"
                    }
                ]
            },
            {
                "account": "0xe243b38eeb1ed9f767608b851fca7ee68af286cc",
                "assets": [
                    {
                        "address": "0x0f5d2fb29fb7d3cfee444a200298f468908cc942",
                        "amount": "1.095",
                        "iconUrl": "https://assets.blocksec.com/icon/54d64db7c4b21ad51c32e15fe06a87bf31831382d6c6aa49b4adb5dfaa42993c.png",
                        "isERC1155": false,
                        "isERC721": false,
                        "sign": true,
                        "value": "0.7161300000000000282"
                    }
                ]
            }
        ]
    },
    "profile": {
        "basic_info": {
            "baseFee": "52.328622984",
            "blockNumber": 19340278,
            "callData": "0xa9059cbb000000000000000000000000e243b38eeb1ed9f767608b851fca7ee68af286cc0000000000000000000000000000000000000000000000000f3238b2cd0d8000",
            "debugEnable": true,
            "errorInfo": "",
            "eventCount": 1,
            "feeRecipient": "0xdafea492d9c6733ae3d56b7ed1adb60692c98bc5",
            "formatValue": "0",
            "gasLimit": 90000,
            "gasPrice": "62.086581544",
            "gasUsed": 54237,
            "intTxnCount": 0,
            "internalRevert": false,
            "internalRevertMessage": "",
            "isContractCreation": false,
            "isFlashloan": false,
            "maxFee": "",
            "nonce": 5477,
            "overwritedBlockNumber": -1,
            "priorityFee": "",
            "receiver": "0x0f5d2fb29fb7d3cfee444a200298f468908cc942",
            "revertMessage": "",
            "sender": "0xda43c54ce5083885f561e05fd6220b7096be246c",
            "simulationEnable": true,
            "sourceTxnHash": "0xd3d3fafe4c4287053fa98999168ffb4b55d83c2c260f3dc10c76362f80173d3f",
            "status": true,
            "timestamp": "2024-03-01T12:19:11Z",
            "transactionFee": "0.003367389923201928",
            "txnHash": "0xd3d3fafe4c4287053fa98999168ffb4b55d83c2c260f3dc10c76362f80173d3f",
            "txnIndex": 19,
            "type": 0,
            "value": "0"
        },
        "fund_flow": [
            {
                "amount": "1.095",
                "from": "0xda43c54ce5083885f561e05fd6220b7096be246c",
                "id": 1,
                "isERC1155": false,
                "isERC721": false,
                "isReverted": false,
                "order": 1,
                "to": "0xe243b38eeb1ed9f767608b851fca7ee68af286cc",
                "token": "0x0f5d2fb29fb7d3cfee444a200298f468908cc942"
            }
        ],
        "token_infos": [
            {
                "address": "0x0f5d2fb29fb7d3cfee444a200298f468908cc942",
                "decimals": 18
            },
            {
                "address": "0xc02aaa39b223fe8d0a0e5c4f27ead9083c756cc2",
                "decimals": 18
            },
            {
                "address": "0xeeeeeeeeeeeeeeeeeeeeeeeeeeeeeeeeeeeeeeee",
                "decimals": 18
            }
        ]
    },
    "address_label": {
        "labels": [
            {
                "address": "0x0000000000000000000000000000000000000001",
                "label": "Precompiled"
            },
            {
                "address": "0x0000000000000000000000000000000000000002",
                "label": "Precompiled"
            },
            {
                "address": "0x0000000000000000000000000000000000000003",
                "label": "Precompiled"
            },
            {
                "address": "0x0000000000000000000000000000000000000004",
                "label": "Precompiled"
            },
            {
                "address": "0xeeeeeeeeeeeeeeeeeeeeeeeeeeeeeeeeeeeeeeee",
                "label": "Ether"
            },
            {
                "address": "0x0f5d2fb29fb7d3cfee444a200298f468908cc942",
                "label": "Decentraland: MANA Token"
            },
            {
                "address": "0xda43c54ce5083885f561e05fd6220b7096be246c",
                "label": "BingX 2"
            }
        ]
    },
    "trace": {
        "accountLabels": null,
        "dataMap": {
            "-1": {
                "invocation": {
                    "address": "0xda43c54ce5083885f561e05fd6220b7096be246c",
                    "callData": "",
                    "decodedMethod": null,
                    "errorInfo": "",
                    "fromAddress": "",
                    "gasUsed": 0,
                    "id": -1,
                    "methodDecoded": false,
                    "operation": "",
                    "output": "",
                    "revert": false,
                    "revertMessage": "",
                    "selector": "",
                    "status": false,
                    "value": ""
                },
                "nodeType": 0
            },
            "0": {
                "invocation": {
                    "address": "0x0f5d2fb29fb7d3cfee444a200298f468908cc942",
                    "callData": "0x000000000000000000000000e243b38eeb1ed9f767608b851fca7ee68af286cc0000000000000000000000000000000000000000000000000f3238b2cd0d8000",
                    "decodedMethod": {
                        "callParams": [
                            {
                                "name": "_to",
                                "type": "address",
                                "value": "0xe243b38eeb1ed9f767608b851fca7ee68af286cc"
                            },
                            {
                                "decimalAvailable": true,
                                "name": "_value",
                                "type": "uint256",
                                "value": "1,095,000,000,000,000,000"
                            }
                        ],
                        "constructorArguments": "",
                        "name": "transfer",
                        "returnParams": [
                            {
                                "name": "",
                                "type": "bool",
                                "value": true
                            }
                        ],
                        "signature": "transfer(address,uint256)"
                    },
                    "errorInfo": "",
                    "fromAddress": "0xda43c54ce5083885f561e05fd6220b7096be246c",
                    "gasUsed": 54237,
                    "id": 0,
                    "methodDecoded": true,
                    "operation": "CALL",
                    "output": "0x0000000000000000000000000000000000000000000000000000000000000001",
                    "revert": false,
                    "revertMessage": "",
                    "selector": "0xa9059cbb",
                    "status": true,
                    "value": "0"
                },
                "nodeType": 0
            },
            "1": {
                "event": {
                    "contract": "0x0f5d2fb29fb7d3cfee444a200298f468908cc942",
                    "decodedLog": {
                        "name": "Transfer",
                        "params": [
                            {
                                "name": "from",
                                "type": "address",
                                "value": "0xda43c54ce5083885f561e05fd6220b7096be246c"
                            },
                            {
                                "name": "to",
                                "type": "address",
                                "value": "0xe243b38eeb1ed9f767608b851fca7ee68af286cc"
                            },
                            {
                                "decimalAvailable": true,
                                "name": "value",
                                "type": "uint256",
                                "value": "1,095,000,000,000,000,000"
                            }
                        ],
                        "signature": "Transfer(address,address,uint256)"
                    },
                    "id": 1,
                    "logData": "0x0000000000000000000000000000000000000000000000000f3238b2cd0d8000",
                    "logDecoded": true,
                    "operation": "EVENT",
                    "revert": false,
                    "status": true,
                    "topics": [
                        "0xddf252ad1be2c89b69c2b068fc378daa952ba7f163c4a11628f55a4df523b3ef",
                        "0x000000000000000000000000da43c54ce5083885f561e05fd6220b7096be246c",
                        "0x000000000000000000000000e243b38eeb1ed9f767608b851fca7ee68af286cc"
                    ]
                },
                "nodeType": 1
            }
        },
        "gasFlame": [
            {
                "children": [
                    {
                        "children": [
                            {
                                "children": [],
                                "depth": 0,
                                "name": "Initial Gas",
                                "value": 21644
                            },
                            {
                                "children": [],
                                "depth": 0,
                                "name": "Executed Gas",
                                "value": 32593
                            }
                        ],
                        "depth": -1,
                        "name": "Actual Gas Used",
                        "value": 54237
                    },
                    {
                        "children": [],
                        "depth": -1,
                        "name": "Refunded Gas",
                        "value": 0
                    }
                ],
                "depth": -2,
                "name": "Total Gas",
                "value": 54237
            }
        ],
        "isConfirmed": true,
        "mainTrace": [
            {
                "children": [
                    {
                        "children": [
                            {
                                "children": [],
                                "depth": 1,
                                "id": 1,
                                "order": 1
                            }
                        ],
                        "depth": 0,
                        "id": 0,
                        "order": 0
                    }
                ],
                "depth": -1,
                "id": -1,
                "order": -1
            }
        ],
        "mainTraceNodeCount": 2,
        "parentIdMap": {
            "0": -1,
            "1": 0
        },
        "tidyTrace": [
            {
                "children": [
                    {
                        "children": [
                            {
                                "children": [],
                                "depth": 1,
                                "id": 1,
                                "order": 1
                            }
                        ],
                        "depth": 0,
                        "id": 0,
                        "order": 0
                    }
                ],
                "depth": -1,
                "id": -1,
                "order": -1
            }
        ],
        "tidyTraceNodeCount": 2
    },
    "state_change": {
        "stateChanges": [
            {
                "address": "0x0f5d2fb29fb7d3cfee444a200298f468908cc942",
                "erc": "ERC-20",
                "slots": [
                    {
                        "current": "0x00000000000000000000000000000000000000000000000026654bbd2853141a",
                        "key": "0x96a90b0acad35d3e28f1a59ca70f45658d53a066441908a5090b0c79383d127a",
                        "prev": "0x0000000000000000000000000000000000000000000000003597846ff560941a"
                    },
                    {
                        "current": "0x0000000000000000000000000000000000000000000000000f3238b2cd0d8000",
                        "key": "0x99e9d4820e5b430b0991347de7e66c4dbe9a7de90deb1490817cb287eb15921c",
                        "prev": "0x0000000000000000000000000000000000000000000000000000000000000000"
                    }
                ],
                "storageVariables": []
            }
        ]
    }
}