{
    "balance_change": {
        "balanceChanges": [
            {
                "account": "0xe063618a1cb2e88e2a6673849c46b5970466809b",
                "assets": [
                    {
                        "address": "0xeeeeeeeeeeeeeeeeeeeeeeeeeeeeeeeeeeeeeeee",
                        "amount": "0.129343344907407406",
                        "iconUrl": "https://assets.blocksec.com/image/1663669189317-3.png",
                        "isERC1155": false,
                        "isERC721": false,
                        "sign": true,
                        "value": ""
                    }
                ]
            },
            {
                "account": "0x1a2a1c938ce3ec39b6d47113c7955baa9dd454f2",
                "assets": [
                    {
                        "address": "0xc02aaa39b223fe8d0a0e5c4f27ead9083c756cc2",
                        "amount": "0.129343344907407406",
                        "iconUrl": "https://assets.blocksec.com/icon/f1cb2d02c471d545bbc7722daf3277fd852d98e63d118771af7047bd8256c516.png",
                        "isERC1155": false,
                        "isERC721": false,
                        "sign": false,
                        "value": "426.2355519"
                    }
                ]
            },
            {
                "account": "0xc02aaa39b223fe8d0a0e5c4f27ead9083c756cc2",
                "assets": [
                    {
                        "address": "0xeeeeeeeeeeeeeeeeeeeeeeeeeeeeeeeeeeeeeeee",
                        "amount": "0.129343344907407406",
                        "iconUrl": "https://assets.blocksec.com/image/1663669189317-3.png",
                        "isERC1155": false,
                        "isERC721": false,
                        "sign": false,
                        "value": ""
                    },
                    {
                        "address": "0xc02aaa39b223fe8d0a0e5c4f27ead9083c756cc2",
                        "amount": "0.129343344907407406",
                        "iconUrl": "https://assets.blocksec.com/icon/f1cb2d02c471d545bbc7722daf3277fd852d98e63d118771af7047bd8256c516.png",
                        "isERC1155": false,
                        "isERC721": false,
                        "sign": true,
                        "value": "426.2355519"
                    }
                ]
            }
        ]
    },
    "profile": {
        "basic_info": {
            "baseFee": "51.237087581",
            "blockNumber": 13088289,
            "callData": "0x993e1c4200000000000000000000000000000000000000000000000000000000000b7c2b000000000000000000000000e063618a1cb2e88e2a6673849c46b5970466809b000000000000000000000000c02aaa39b223fe8d0a0e5c4f27ead9083c756cc200000000000000000000000000000000000000000000000001cb85163f44502e00000000000000000000000000000000000000000000000000000000000000a000000000000000000000000000000000000000000000000000000000000001ce01a1af0353d128aaf7a0354a94437c49a114d731d71b3476e154c0e579d876183578eb01e8c0e2793de61082c0d0e52ae950db38dadde535b9092e885b551b20571b01497dec328111a115300f439de111e08c9291e010f25b54c4f002b8b1e86b0c81538ccad264928f81c1a82e28a517fba03f1fe5d901b615a22c76cfacf286902d1b01486a685da39341e41b685450d7fd7298afaa859c4da50e4700f11271ca2abebb33bc6c322c1537b8fe9683aced2a298955d98f97f278a8dd7104db22c127b9cb1b011a2bd614b44eba0b5df915afcdaef1668a68d3bb080562df7f4044f38acf1ed81755e1f4d7a5b088df85fd0385b93bba76b0a1320b5e3e96b5c8671f1645a9541b01636a78134da15c6d5342dca461e1953c44d827f306d1f57875c6707d8be9b23b7ee62b5bb2c8415b4ce303a5373ae0868db336e8b73fa5c0067b478cb8f245ad1c01f182f8025c1f616b4df06b9ccffd31b028cba5a8a90c173d6d5cda524f2332a03dc986c065eb987b43b05e8e633f85e6ea6e9b213ba7b8e9f45fe2f2a7b3366c1b01c37b11516033dd9a375167a5554f1915e244c2df80d6be38edffc12ee7f932af4f64a156c45d25479a62a81cf07bdf028a583a23f83d6a81d93a4079498e20901c000000000000000000000000000000000000",
            "debugEnable": true,
            "errorInfo": "",
            "eventCount": 2,
            "feeRecipient": "0xe206e3dca498258f1b7eec1c640b5aee7bb88fd0",
            "formatValue": "0",
            "gasLimit": 268224,
            "gasPrice": "52.737087581",
            "gasUsed": 215405,
            "intTxnCount": 27,
            "internalRevert": false,
            "internalRevertMessage": "",
            "isContractCreation": false,
            "isFlashloan": false,
            "maxFee": "53.530046406",
            "nonce": 10,
            "overwritedBlockNumber": -1,
            "priorityFee": "1.5",
            "receiver": "0x1a2a1c938ce3ec39b6d47113c7955baa9dd454f2",
            "revertMessage": "",
            "sender": "0xe063618a1cb2e88e2a6673849c46b5970466809b",
            "simulationEnable": true,
            "sourceTxnHash": "0xd344d3a54936861696ad4191f375b01a38fb815c32ae905829ab39c6b30d9ce5",
            "status": true,
            "timestamp": "2021-08-24T13:27:26Z",
            "transactionFee": "0.011359832350385305",
            "txnHash": "0xd344d3a54936861696ad4191f375b01a38fb815c32ae905829ab39c6b30d9ce5",
            "txnIndex": 141,
            "type": 2,
            "value": "0"
        },
        "fund_flow": [
            {
                "amount": "0.129343344907407406",
                "from": "0xc02aaa39b223fe8d0a0e5c4f27ead9083c756cc2",
                "id": 1,
                "isERC1155": false,
                "isERC721": false,
                "isReverted": false,
                "order": 1,
                "to": "0x1a2a1c938ce3ec39b6d47113c7955baa9dd454f2",
                "token": "0xeeeeeeeeeeeeeeeeeeeeeeeeeeeeeeeeeeeeeeee"
            },
            {
                "amount": "0.129343344907407406",
                "from": "0x1a2a1c938ce3ec39b6d47113c7955baa9dd454f2",
                "id": 2,
                "isERC1155": false,
                "isERC721": false,
                "isReverted": false,
                "order": 2,
                "to": "0xc02aaa39b223fe8d0a0e5c4f27ead9083c756cc2",
                "token": "0xc02aaa39b223fe8d0a0e5c4f27ead9083c756cc2"
            },
            {
                "amount": "0.129343344907407406",
                "from": "0x1a2a1c938ce3ec39b6d47113c7955baa9dd454f2",
                "id": 3,
                "isERC1155": false,
                "isERC721": false,
                "isReverted": false,
                "order": 3,
                "to": "0xe063618a1cb2e88e2a6673849c46b5970466809b",
                "token": "0xeeeeeeeeeeeeeeeeeeeeeeeeeeeeeeeeeeeeeeee"
            }
        ],
        "token_infos": [
            {
                "address": "0xc02aaa39b223fe8d0a0e5c4f27ead9083c756cc2",
                "decimals": 18
            },
            {
                "address": "0xeeeeeeeeeeeeeeeeeeeeeeeeeeeeeeeeeeeeeeee",
                "decimals": 18
            }
        ]
    },
    "address_label": {
        "labels": [
            {
                "address": "0x33e71e649abdc09f650ad44139674828a2075ad2",
                "label": "Registry"
            },
            {
                "address": "0x42b19dca30fd612b1757682c074497847f2b57e0",
                "label": "MainchainValidator"
            },
            {
                "address": "0x0000000000000000000000000000000000000003",
                "label": "Precompiled"
            },
            {
                "address": "0xeeeeeeeeeeeeeeeeeeeeeeeeeeeeeeeeeeeeeeee",
                "label": "Ether"
            },
            {
                "address": "0xc02aaa39b223fe8d0a0e5c4f27ead9083c756cc2",
                "label": "Wrapped Ether (WETH)"
            },
            {
                "address": "0x1a2a1c938ce3ec39b6d47113c7955baa9dd454f2",
                "label": "Axie Infinity: Ronin Bridge"
            },
            {
                "address": "0x8407dc57739bcda7aa53ca6f12f82f9d51c2f21e",
                "label": "MainchainGatewayManager"
            },
            {
                "address": "0x0000000000000000000000000000000000000001",
                "label": "Precompiled"
            },
            {
                "address": "0x0000000000000000000000000000000000000002",
                "label": "Precompiled"
            },
            {
                "address": "0x0000000000000000000000000000000000000004",
                "label": "Precompiled"
            }
        ]
    },
    "trace": {
        "accountLabels": null,
        "dataMap": {
            "-1": {
                "invocation": {
                    "address": "0xe063618a1cb2e88e2a6673849c46b5970466809b",
                    "callData": "",
                    "decodedMethod": null,
                    "errorInfo": "",
                    "fromAddress": "",
                    "gasUsed": 0,
                    "id": -1,
                    "methodDecoded": false,
                    "operation": "",
                    "output": "",
                    "revert": false,
                    "revertMessage": "",
                    "selector": "",
                    "status": false,
                    "value": ""
                },
                "nodeType": 0
            },
            "0": {
                "invocation": {
                    "address": "0x1a2a1c938ce3ec39b6d47113c7955baa9dd454f2",
                    "callData": "0x00000000000000000000000000000000000000000000000000000000000b7c2b000000000000000000000000e063618a1cb2e88e2a6673849c46b5970466809b000000000000000000000000c02aaa39b223fe8d0a0e5c4f27ead9083c756cc200000000000000000000000000000000000000000000000001cb85163f44502e00000000000000000000000000000000000000000000000000000000000000a000000000000000000000000000000000000000000000000000000000000001ce01a1af0353d128aaf7a0354a94437c49a114d731d71b3476e154c0e579d876183578eb01e8c0e2793de61082c0d0e52ae950db38dadde535b9092e885b551b20571b01497dec328111a115300f439de111e08c9291e010f25b54c4f002b8b1e86b0c81538ccad264928f81c1a82e28a517fba03f1fe5d901b615a22c76cfacf286902d1b01486a685da39341e41b685450d7fd7298afaa859c4da50e4700f11271ca2abebb33bc6c322c1537b8fe9683aced2a298955d98f97f278a8dd7104db22c127b9cb1b011a2bd614b44eba0b5df915afcdaef1668a68d3bb080562df7f4044f38acf1ed81755e1f4d7a5b088df85fd0385b93bba76b0a1320b5e3e96b5c8671f1645a9541b01636a78134da15c6d5342dca461e1953c44d827f306d1f57875c6707d8be9b23b7ee62b5bb2c8415b4ce303a5373ae0868db336e8b73fa5c0067b478cb8f245ad1c01f182f8025c1f616b4df06b9ccffd31b028cba5a8a90c173d6d5cda524f2332a03dc986c065eb987b43b05e8e633f85e6ea6e9b213ba7b8e9f45fe2f2a7b3366c1b01c37b11516033dd9a375167a5554f1915e244c2df80d6be38edffc12ee7f932af4f64a156c45d25479a62a81cf07bdf028a583a23f83d6a81d93a4079498e20901c000000000000000000000000000000000000",
                    "decodedMethod": {
                        "callParams": [
                            {
                                "name": "_withdrawalId",
                                "type": "uint256",
                                "value": "752,683"
                            },
                            {
                                "name": "_user",
                                "type": "address",
                                "value": "0xe063618a1cb2e88e2a6673849c46b5970466809b"
                            },
                            {
                                "name": "_token",
                                "type": "address",
                                "value": "0xc02aaa39b223fe8d0a0e5c4f27ead9083c756cc2"
                            },
                            {
                                "name": "_amount",
                                "type": "uint256",
                                "value": "129,343,344,907,407,406"
                            },
                            {
                                "name": "_signatures",
                                "type": "bytes",
                                "value": "0x01a1af0353d128aaf7a0354a94437c49a114d731d71b3476e154c0e579d876183578eb01e8c0e2793de61082c0d0e52ae950db38dadde535b9092e885b551b20571b01497dec328111a115300f439de111e08c9291e010f25b54c4f002b8b1e86b0c81538ccad264928f81c1a82e28a517fba03f1fe5d901b615a22c76cfacf286902d1b01486a685da39341e41b685450d7fd7298afaa859c4da50e4700f11271ca2abebb33bc6c322c1537b8fe9683aced2a298955d98f97f278a8dd7104db22c127b9cb1b011a2bd614b44eba0b5df915afcdaef1668a68d3bb080562df7f4044f38acf1ed81755e1f4d7a5b088df85fd0385b93bba76b0a1320b5e3e96b5c8671f1645a9541b01636a78134da15c6d5342dca461e1953c44d827f306d1f57875c6707d8be9b23b7ee62b5bb2c8415b4ce303a5373ae0868db336e8b73fa5c0067b478cb8f245ad1c01f182f8025c1f616b4df06b9ccffd31b028cba5a8a90c173d6d5cda524f2332a03dc986c065eb987b43b05e8e633f85e6ea6e9b213ba7b8e9f45fe2f2a7b3366c1b01c37b11516033dd9a375167a5554f1915e244c2df80d6be38edffc12ee7f932af4f64a156c45d25479a62a81cf07bdf028a583a23f83d6a81d93a4079498e20901c"
                            }
                        ],
                        "constructorArguments": "",
                        "name": "withdrawERC20For",
                        "returnParams": [],
                        "signature": "withdrawERC20For(uint256,address,address,uint256,bytes)"
                    },
                    "errorInfo": "",
                    "fromAddress": "0xe063618a1cb2e88e2a6673849c46b5970466809b",
                    "gasUsed": 215405,
                    "id": 0,
                    "methodDecoded": true,
                    "operation": "CALL",
                    "output": "",
                    "revert": false,
                    "revertMessage": "",
                    "selector": "0x993e1c42",
                    "status": true,
                    "value": "0"
                },
                "nodeType": 0
            },
            "1": {
                "invocation": {
                    "address": "0x8407dc57739bcda7aa53ca6f12f82f9d51c2f21e",
                    "callData": "0x00000000000000000000000000000000000000000000000000000000000b7c2b000000000000000000000000e063618a1cb2e88e2a6673849c46b5970466809b000000000000000000000000c02aaa39b223fe8d0a0e5c4f27ead9083c756cc200000000000000000000000000000000000000000000000001cb85163f44502e00000000000000000000000000000000000000000000000000000000000000a000000000000000000000000000000000000000000000000000000000000001ce01a1af0353d128aaf7a0354a94437c49a114d731d71b3476e154c0e579d876183578eb01e8c0e2793de61082c0d0e52ae950db38dadde535b9092e885b551b20571b01497dec328111a115300f439de111e08c9291e010f25b54c4f002b8b1e86b0c81538ccad264928f81c1a82e28a517fba03f1fe5d901b615a22c76cfacf286902d1b01486a685da39341e41b685450d7fd7298afaa859c4da50e4700f11271ca2abebb33bc6c322c1537b8fe9683aced2a298955d98f97f278a8dd7104db22c127b9cb1b011a2bd614b44eba0b5df915afcdaef1668a68d3bb080562df7f4044f38acf1ed81755e1f4d7a5b088df85fd0385b93bba76b0a1320b5e3e96b5c8671f1645a9541b01636a78134da15c6d5342dca461e1953c44d827f306d1f57875c6707d8be9b23b7ee62b5bb2c8415b4ce303a5373ae0868db336e8b73fa5c0067b478cb8f245ad1c01f182f8025c1f616b4df06b9ccffd31b028cba5a8a90c173d6d5cda524f2332a03dc986c065eb987b43b05e8e633f85e6ea6e9b213ba7b8e9f45fe2f2a7b3366c1b01c37b11516033dd9a375167a5554f1915e244c2df80d6be38edffc12ee7f932af4f64a156c45d25479a62a81cf07bdf028a583a23f83d6a81d93a4079498e20901c000000000000000000000000000000000000",
                    "decodedMethod": {
                        "callParams": [
                            {
                                "name": "_withdrawalId",
                                "type": "uint256",
                                "value": "752,683"
                            },
                            {
                                "name": "_user",
                                "type": "address",
                                "value": "0xe063618a1cb2e88e2a6673849c46b5970466809b"
                            },
                            {
                                "name": "_token",
                                "type": "address",
                                "value": "0xc02aaa39b223fe8d0a0e5c4f27ead9083c756cc2"
                            },
                            {
                                "name": "_amount",
                                "type": "uint256",
                                "value": "129,343,344,907,407,406"
                            },
                            {
                                "name": "_signatures",
                                "type": "bytes",
                                "value": "0x01a1af0353d128aaf7a0354a94437c49a114d731d71b3476e154c0e579d876183578eb01e8c0e2793de61082c0d0e52ae950db38dadde535b9092e885b551b20571b01497dec328111a115300f439de111e08c9291e010f25b54c4f002b8b1e86b0c81538ccad264928f81c1a82e28a517fba03f1fe5d901b615a22c76cfacf286902d1b01486a685da39341e41b685450d7fd7298afaa859c4da50e4700f11271ca2abebb33bc6c322c1537b8fe9683aced2a298955d98f97f278a8dd7104db22c127b9cb1b011a2bd614b44eba0b5df915afcdaef1668a68d3bb080562df7f4044f38acf1ed81755e1f4d7a5b088df85fd0385b93bba76b0a1320b5e3e96b5c8671f1645a9541b01636a78134da15c6d5342dca461e1953c44d827f306d1f57875c6707d8be9b23b7ee62b5bb2c8415b4ce303a5373ae0868db336e8b73fa5c0067b478cb8f245ad1c01f182f8025c1f616b4df06b9ccffd31b028cba5a8a90c173d6d5cda524f2332a03dc986c065eb987b43b05e8e633f85e6ea6e9b213ba7b8e9f45fe2f2a7b3366c1b01c37b11516033dd9a375167a5554f1915e244c2df80d6be38edffc12ee7f932af4f64a156c45d25479a62a81cf07bdf028a583a23f83d6a81d93a4079498e20901c"
                            }
                        ],
                        "constructorArguments": "",
                        "name": "withdrawERC20For",
                        "returnParams": [],
                        "signature": "withdrawERC20For(uint256,address,address,uint256,bytes)"
                    },
                    "errorInfo": "",
                    "fromAddress": "0x1a2a1c938ce3ec39b6d47113c7955baa9dd454f2",
                    "gasUsed": 180297,
                    "id": 1,
                    "methodDecoded": true,
                    "operation": "DELEGATECALL",
                    "output": "",
                    "revert": false,
                    "revertMessage": "",
                    "selector": "0x993e1c42",
                    "status": true,
                    "value": "0"
                },
                "nodeType": 0
            },
            "10": {
                "invocation": {
                    "address": "0x42b19dca30fd612b1757682c074497847f2b57e0",
                    "callData": "0x0000000000000000000000009d5d175c7d7dfdc7038420eb2725d4601a41b751",
                    "decodedMethod": {
                        "callParams": [
                            {
                                "name": "_addr",
                                "type": "address",
                                "value": "0x9d5d175c7d7dfdc7038420eb2725d4601a41b751"
                            }
                        ],
                        "constructorArguments": "",
                        "name": "isValidator",
                        "returnParams": [
                            {
                                "name": "",
                                "type": "bool",
                                "value": true
                            }
                        ],
                        "signature": "isValidator(address)"
                    },
                    "errorInfo": "",
                    "fromAddress": "0x1a2a1c938ce3ec39b6d47113c7955baa9dd454f2",
                    "gasUsed": 2545,
                    "id": 10,
                    "methodDecoded": true,
                    "operation": "STATICCALL",
                    "output": "0x0000000000000000000000000000000000000000000000000000000000000001",
                    "revert": false,
                    "revertMessage": "",
                    "selector": "0xfacd743b",
                    "status": true,
                    "value": "0"
                },
                "nodeType": 0
            },
            "11": {
                "invocation": {
                    "address": "0x0000000000000000000000000000000000000001",
                    "callData": "0x9fcd9419396c221d6c5247a9c2be6a2d50f62ebbb1730c28116c0eee000000000000000000000000000000000000000000000000000000000000001b1a2bd614b44eba0b5df915afcdaef1668a68d3bb080562df7f4044f38acf1ed81755e1f4d7a5b088df85fd0385b93bba76b0a1320b5e3e96b5c8671f1645a954",
                    "decodedMethod": {
                        "callParams": [
                            {
                                "name": "hash",
                                "type": "bytes32",
                                "value": "0xe05471e99fcd9419396c221d6c5247a9c2be6a2d50f62ebbb1730c28116c0eee"
                            },
                            {
                                "name": "v",
                                "type": "uint256",
                                "value": "27"
                            },
                            {
                                "name": "r",
                                "type": "bytes32",
                                "value": "0x1a2bd614b44eba0b5df915afcdaef1668a68d3bb080562df7f4044f38acf1ed8"
                            },
                            {
                                "name": "s",
                                "type": "bytes32",
                                "value": "0x1755e1f4d7a5b088df85fd0385b93bba76b0a1320b5e3e96b5c8671f1645a954"
                            }
                        ],
                        "constructorArguments": "",
                        "name": "ecrecover",
                        "returnParams": [
                            {
                                "name": "",
                                "type": "address",
                                "value": "0x9edeb211cde35d6e8a0c732f9e0c786725e72fe9"
                            }
                        ],
                        "signature": "ecrecover(bytes32,uint256,bytes32,bytes32)"
                    },
                    "errorInfo": "",
                    "fromAddress": "0x1a2a1c938ce3ec39b6d47113c7955baa9dd454f2",
                    "gasUsed": 3000,
                    "id": 11,
                    "methodDecoded": true,
                    "operation": "STATICCALL",
                    "output": "0x0000000000000000000000009edeb211cde35d6e8a0c732f9e0c786725e72fe9",
                    "revert": false,
                    "revertMessage": "",
                    "selector": "0xe05471e9",
                    "status": true,
                    "value": "0"
                },
                "nodeType": 0
            },
            "12": {
                "invocation": {
                    "address": "0x42b19dca30fd612b1757682c074497847f2b57e0",
                    "callData": "0x0000000000000000000000009edeb211cde35d6e8a0c732f9e0c786725e72fe9",
                    "decodedMethod": {
                        "callParams": [
                            {
                                "name": "_addr",
                                "type": "address",
                                "value": "0x9edeb211cde35d6e8a0c732f9e0c786725e72fe9"
                            }
                        ],
                        "constructorArguments": "",
                        "name": "isValidator",
                        "returnParams": [
                            {
                                "name": "",
                                "type": "bool",
                                "value": true
                            }
                        ],
                        "signature": "isValidator(address)"
                    },
                    "errorInfo": "",
                    "fromAddress": "0x1a2a1c938ce3ec39b6d47113c7955baa9dd454f2",
                    "gasUsed": 2545,
                    "id": 12,
                    "methodDecoded": true,
                    "operation": "STATICCALL",
                    "output": "0x0000000000000000000000000000000000000000000000000000000000000001",
                    "revert": false,
                    "revertMessage": "",
                    "selector": "0xfacd743b",
                    "status": true,
                    "value": "0"
                },
                "nodeType": 0
            },
            "13": {
                "invocation": {
                    "address": "0x0000000000000000000000000000000000000001",
                    "callData": "0x9fcd9419396c221d6c5247a9c2be6a2d50f62ebbb1730c28116c0eee000000000000000000000000000000000000000000000000000000000000001c636a78134da15c6d5342dca461e1953c44d827f306d1f57875c6707d8be9b23b7ee62b5bb2c8415b4ce303a5373ae0868db336e8b73fa5c0067b478cb8f245ad",
                    "decodedMethod": {
                        "callParams": [
                            {
                                "name": "hash",
                                "type": "bytes32",
                                "value": "0xe05471e99fcd9419396c221d6c5247a9c2be6a2d50f62ebbb1730c28116c0eee"
                            },
                            {
                                "name": "v",
                                "type": "uint256",
                                "value": "28"
                            },
                            {
                                "name": "r",
                                "type": "bytes32",
                                "value": "0x636a78134da15c6d5342dca461e1953c44d827f306d1f57875c6707d8be9b23b"
                            },
                            {
                                "name": "s",
                                "type": "bytes32",
                                "value": "0x7ee62b5bb2c8415b4ce303a5373ae0868db336e8b73fa5c0067b478cb8f245ad"
                            }
                        ],
                        "constructorArguments": "",
                        "name": "ecrecover",
                        "returnParams": [
                            {
                                "name": "",
                                "type": "address",
                                "value": "0xe70cbf18114822c0e32c6b35d2478f02a8ac78a9"
                            }
                        ],
                        "signature": "ecrecover(bytes32,uint256,bytes32,bytes32)"
                    },
                    "errorInfo": "",
                    "fromAddress": "0x1a2a1c938ce3ec39b6d47113c7955baa9dd454f2",
                    "gasUsed": 3000,
                    "id": 13,
                    "methodDecoded": true,
                    "operation": "STATICCALL",
                    "output": "0x000000000000000000000000e70cbf18114822c0e32c6b35d2478f02a8ac78a9",
                    "revert": false,
                    "revertMessage": "",
                    "selector": "0xe05471e9",
                    "status": true,
                    "value": "0"
                },
                "nodeType": 0
            },
            "14": {
                "invocation": {
                    "address": "0x42b19dca30fd612b1757682c074497847f2b57e0",
                    "callData": "0x000000000000000000000000e70cbf18114822c0e32c6b35d2478f02a8ac78a9",
                    "decodedMethod": {
                        "callParams": [
                            {
                                "name": "_addr",
                                "type": "address",
                                "value": "0xe70cbf18114822c0e32c6b35d2478f02a8ac78a9"
                            }
                        ],
                        "constructorArguments": "",
                        "name": "isValidator",
                        "returnParams": [
                            {
                                "name": "",
                                "type": "bool",
                                "value": true
                            }
                        ],
                        "signature": "isValidator(address)"
                    },
                    "errorInfo": "",
                    "fromAddress": "0x1a2a1c938ce3ec39b6d47113c7955baa9dd454f2",
                    "gasUsed": 2545,
                    "id": 14,
                    "methodDecoded": true,
                    "operation": "STATICCALL",
                    "output": "0x0000000000000000000000000000000000000000000000000000000000000001",
                    "revert": false,
                    "revertMessage": "",
                    "selector": "0xfacd743b",
                    "status": true,
                    "value": "0"
                },
                "nodeType": 0
            },
            "15": {
                "invocation": {
                    "address": "0x0000000000000000000000000000000000000001",
                    "callData": "0x9fcd9419396c221d6c5247a9c2be6a2d50f62ebbb1730c28116c0eee000000000000000000000000000000000000000000000000000000000000001bf182f8025c1f616b4df06b9ccffd31b028cba5a8a90c173d6d5cda524f2332a03dc986c065eb987b43b05e8e633f85e6ea6e9b213ba7b8e9f45fe2f2a7b3366c",
                    "decodedMethod": {
                        "callParams": [
                            {
                                "name": "hash",
                                "type": "bytes32",
                                "value": "0xe05471e99fcd9419396c221d6c5247a9c2be6a2d50f62ebbb1730c28116c0eee"
                            },
                            {
                                "name": "v",
                                "type": "uint256",
                                "value": "27"
                            },
                            {
                                "name": "r",
                                "type": "bytes32",
                                "value": "0xf182f8025c1f616b4df06b9ccffd31b028cba5a8a90c173d6d5cda524f2332a0"
                            },
                            {
                                "name": "s",
                                "type": "bytes32",
                                "value": "0x3dc986c065eb987b43b05e8e633f85e6ea6e9b213ba7b8e9f45fe2f2a7b3366c"
                            }
                        ],
                        "constructorArguments": "",
                        "name": "ecrecover",
                        "returnParams": [
                            {
                                "name": "",
                                "type": "address",
                                "value": "0xee11d2016e9f2fae606b2f12986811f4abbe6215"
                            }
                        ],
                        "signature": "ecrecover(bytes32,uint256,bytes32,bytes32)"
                    },
                    "errorInfo": "",
                    "fromAddress": "0x1a2a1c938ce3ec39b6d47113c7955baa9dd454f2",
                    "gasUsed": 3000,
                    "id": 15,
                    "methodDecoded": true,
                    "operation": "STATICCALL",
                    "output": "0x000000000000000000000000ee11d2016e9f2fae606b2f12986811f4abbe6215",
                    "revert": false,
                    "revertMessage": "",
                    "selector": "0xe05471e9",
                    "status": true,
                    "value": "0"
                },
                "nodeType": 0
            },
            "16": {
                "invocation": {
                    "address": "0x42b19dca30fd612b1757682c074497847f2b57e0",
                    "callData": "0x000000000000000000000000ee11d2016e9f2fae606b2f12986811f4abbe6215",
                    "decodedMethod": {
                        "callParams": [
                            {
                                "name": "_addr",
                                "type": "address",
                                "value": "0xee11d2016e9f2fae606b2f12986811f4abbe6215"
                            }
                        ],
                        "constructorArguments": "",
                        "name": "isValidator",
                        "returnParams": [
                            {
                                "name": "",
                                "type": "bool",
                                "value": true
                            }
                        ],
                        "signature": "isValidator(address)"
                    },
                    "errorInfo": "",
                    "fromAddress": "0x1a2a1c938ce3ec39b6d47113c7955baa9dd454f2",
                    "gasUsed": 2545,
                    "id": 16,
                    "methodDecoded": true,
                    "operation": "STATICCALL",
                    "output": "0x0000000000000000000000000000000000000000000000000000000000000001",
                    "revert": false,
                    "revertMessage": "",
                    "selector": "0xfacd743b",
                    "status": true,
                    "value": "0"
                },
                "nodeType": 0
            },
            "17": {
                "invocation": {
                    "address": "0x0000000000000000000000000000000000000001",
                    "callData": "0x9fcd9419396c221d6c5247a9c2be6a2d50f62ebbb1730c28116c0eee000000000000000000000000000000000000000000000000000000000000001cc37b11516033dd9a375167a5554f1915e244c2df80d6be38edffc12ee7f932af4f64a156c45d25479a62a81cf07bdf028a583a23f83d6a81d93a4079498e2090",
                    "decodedMethod": {
                        "callParams": [
                            {
                                "name": "hash",
                                "type": "bytes32",
                                "value": "0xe05471e99fcd9419396c221d6c5247a9c2be6a2d50f62ebbb1730c28116c0eee"
                            },
                            {
                                "name": "v",
                                "type": "uint256",
                                "value": "28"
                            },
                            {
                                "name": "r",
                                "type": "bytes32",
                                "value": "0xc37b11516033dd9a375167a5554f1915e244c2df80d6be38edffc12ee7f932af"
                            },
                            {
                                "name": "s",
                                "type": "bytes32",
                                "value": "0x4f64a156c45d25479a62a81cf07bdf028a583a23f83d6a81d93a4079498e2090"
                            }
                        ],
                        "constructorArguments": "",
                        "name": "ecrecover",
                        "returnParams": [
                            {
                                "name": "",
                                "type": "address",
                                "value": "0xf224beff587362a88d859e899d0d80c080e1e812"
                            }
                        ],
                        "signature": "ecrecover(bytes32,uint256,bytes32,bytes32)"
                    },
                    "errorInfo": "",
                    "fromAddress": "0x1a2a1c938ce3ec39b6d47113c7955baa9dd454f2",
                    "gasUsed": 3000,
                    "id": 17,
                    "methodDecoded": true,
                    "operation": "STATICCALL",
                    "output": "0x000000000000000000000000f224beff587362a88d859e899d0d80c080e1e812",
                    "revert": false,
                    "revertMessage": "",
                    "selector": "0xe05471e9",
                    "status": true,
                    "value": "0"
                },
                "nodeType": 0
            },
            "18": {
                "invocation": {
                    "address": "0x42b19dca30fd612b1757682c074497847f2b57e0",
                    "callData": "0x000000000000000000000000f224beff587362a88d859e899d0d80c080e1e812",
                    "decodedMethod": {
                        "callParams": [
                            {
                                "name": "_addr",
                                "type": "address",
                                "value": "0xf224beff587362a88d859e899d0d80c080e1e812"
                            }
                        ],
                        "constructorArguments": "",
                        "name": "isValidator",
                        "returnParams": [
                            {
                                "name": "",
                                "type": "bool",
                                "value": true
                            }
                        ],
                        "signature": "isValidator(address)"
                    },
                    "errorInfo": "",
                    "fromAddress": "0x1a2a1c938ce3ec39b6d47113c7955baa9dd454f2",
                    "gasUsed": 2545,
                    "id": 18,
                    "methodDecoded": true,
                    "operation": "STATICCALL",
                    "output": "0x0000000000000000000000000000000000000000000000000000000000000001",
                    "revert": false,
                    "revertMessage": "",
                    "selector": "0xfacd743b",
                    "status": true,
                    "value": "0"
                },
                "nodeType": 0
            },
            "19": {
                "invocation": {
                    "address": "0x42b19dca30fd612b1757682c074497847f2b57e0",
                    "callData": "0x0000000000000000000000000000000000000000000000000000000000000007",
                    "decodedMethod": {
                        "callParams": [
                            {
                                "name": "_voteCount",
                                "type": "uint256",
                                "value": "7"
                            }
                        ],
                        "constructorArguments": "",
                        "name": "checkThreshold",
                        "returnParams": [
                            {
                                "name": "",
                                "type": "bool",
                                "value": true
                            }
                        ],
                        "signature": "checkThreshold(uint256)"
                    },
                    "errorInfo": "",
                    "fromAddress": "0x1a2a1c938ce3ec39b6d47113c7955baa9dd454f2",
                    "gasUsed": 6872,
                    "id": 19,
                    "methodDecoded": true,
                    "operation": "STATICCALL",
                    "output": "0x0000000000000000000000000000000000000000000000000000000000000001",
                    "revert": false,
                    "revertMessage": "",
                    "selector": "0xdafae408",
                    "status": true,
                    "value": "0"
                },
                "nodeType": 0
            },
            "2": {
                "invocation": {
                    "address": "0x33e71e649abdc09f650ad44139674828a2075ad2",
                    "callData": "0x000000000000000000000000c02aaa39b223fe8d0a0e5c4f27ead9083c756cc200000000000000000000000000000000000000000000000000000000000000140000000000000000000000000000000000000000000000000000000000000001",
                    "decodedMethod": {
                        "callParams": [
                            {
                                "name": "_token",
                                "type": "address",
                                "value": "0xc02aaa39b223fe8d0a0e5c4f27ead9083c756cc2"
                            },
                            {
                                "name": "_standard",
                                "type": "uint32",
                                "value": "20"
                            },
                            {
                                "name": "_isMainchain",
                                "type": "bool",
                                "value": true
                            }
                        ],
                        "constructorArguments": "",
                        "name": "isTokenMapped",
                        "returnParams": [
                            {
                                "name": "",
                                "type": "bool",
                                "value": true
                            }
                        ],
                        "signature": "isTokenMapped(address,uint32,bool)"
                    },
                    "errorInfo": "",
                    "fromAddress": "0x1a2a1c938ce3ec39b6d47113c7955baa9dd454f2",
                    "gasUsed": 5215,
                    "id": 2,
                    "methodDecoded": true,
                    "operation": "STATICCALL",
                    "output": "0x0000000000000000000000000000000000000000000000000000000000000001",
                    "revert": false,
                    "revertMessage": "",
                    "selector": "0x3579e67a",
                    "status": true,
                    "value": "0"
                },
                "nodeType": 0
            },
            "20": {
                "invocation": {
                    "address": "0x33e71e649abdc09f650ad44139674828a2075ad2",
                    "callData": "0x",
                    "decodedMethod": {
                        "callParams": [],
                        "constructorArguments": "",
                        "name": "WETH_TOKEN",
                        "returnParams": [
                            {
                                "name": "",
                                "type": "string",
                                "value": "WETH_TOKEN"
                            }
                        ],
                        "signature": "WETH_TOKEN()"
                    },
                    "errorInfo": "",
                    "fromAddress": "0x1a2a1c938ce3ec39b6d47113c7955baa9dd454f2",
                    "gasUsed": 668,
                    "id": 20,
                    "methodDecoded": true,
                    "operation": "STATICCALL",
                    "output": "0x0000000000000000000000000000000000000000000000000000000000000020000000000000000000000000000000000000000000000000000000000000000a574554485f544f4b454e00000000000000000000000000000000000000000000",
                    "revert": false,
                    "revertMessage": "",
                    "selector": "0x37d277d4",
                    "status": true,
                    "value": "0"
                },
                "nodeType": 0
            },
            "21": {
                "invocation": {
                    "address": "0x33e71e649abdc09f650ad44139674828a2075ad2",
                    "callData": "0x0000000000000000000000000000000000000000000000000000000000000020000000000000000000000000000000000000000000000000000000000000000a574554485f544f4b454e00000000000000000000000000000000000000000000",
                    "decodedMethod": {
                        "callParams": [
                            {
                                "name": "_name",
                                "type": "string",
                                "value": "WETH_TOKEN"
                            }
                        ],
                        "constructorArguments": "",
                        "name": "getContract",
                        "returnParams": [
                            {
                                "name": "_address",
                                "type": "address",
                                "value": "0xc02aaa39b223fe8d0a0e5c4f27ead9083c756cc2"
                            }
                        ],
                        "signature": "getContract(string)"
                    },
                    "errorInfo": "",
                    "fromAddress": "0x1a2a1c938ce3ec39b6d47113c7955baa9dd454f2",
                    "gasUsed": 3205,
                    "id": 21,
                    "methodDecoded": true,
                    "operation": "STATICCALL",
                    "output": "0x000000000000000000000000c02aaa39b223fe8d0a0e5c4f27ead9083c756cc2",
                    "revert": false,
                    "revertMessage": "",
                    "selector": "0x35817773",
                    "status": true,
                    "value": "0"
                },
                "nodeType": 0
            },
            "22": {
                "invocation": {
                    "address": "0x33e71e649abdc09f650ad44139674828a2075ad2",
                    "callData": "0x",
                    "decodedMethod": {
                        "callParams": [],
                        "constructorArguments": "",
                        "name": "WETH_TOKEN",
                        "returnParams": [
                            {
                                "name": "",
                                "type": "string",
                                "value": "WETH_TOKEN"
                            }
                        ],
                        "signature": "WETH_TOKEN()"
                    },
                    "errorInfo": "",
                    "fromAddress": "0x1a2a1c938ce3ec39b6d47113c7955baa9dd454f2",
                    "gasUsed": 668,
                    "id": 22,
                    "methodDecoded": true,
                    "operation": "STATICCALL",
                    "output": "0x0000000000000000000000000000000000000000000000000000000000000020000000000000000000000000000000000000000000000000000000000000000a574554485f544f4b454e00000000000000000000000000000000000000000000",
                    "revert": false,
                    "revertMessage": "",
                    "selector": "0x37d277d4",
                    "status": true,
                    "value": "0"
                },
                "nodeType": 0
            },
            "23": {
                "invocation": {
                    "address": "0x33e71e649abdc09f650ad44139674828a2075ad2",
                    "callData": "0x0000000000000000000000000000000000000000000000000000000000000020000000000000000000000000000000000000000000000000000000000000000a574554485f544f4b454e00000000000000000000000000000000000000000000",
                    "decodedMethod": {
                        "callParams": [
                            {
                                "name": "_name",
                                "type": "string",
                                "value": "WETH_TOKEN"
                            }
                        ],
                        "constructorArguments": "",
                        "name": "getContract",
                        "returnParams": [
                            {
                                "name": "_address",
                                "type": "address",
                                "value": "0xc02aaa39b223fe8d0a0e5c4f27ead9083c756cc2"
                            }
                        ],
                        "signature": "getContract(string)"
                    },
                    "errorInfo": "",
                    "fromAddress": "0x1a2a1c938ce3ec39b6d47113c7955baa9dd454f2",
                    "gasUsed": 1205,
                    "id": 23,
                    "methodDecoded": true,
                    "operation": "STATICCALL",
                    "output": "0x000000000000000000000000c02aaa39b223fe8d0a0e5c4f27ead9083c756cc2",
                    "revert": false,
                    "revertMessage": "",
                    "selector": "0x35817773",
                    "status": true,
                    "value": "0"
                },
                "nodeType": 0
            },
            "24": {
                "invocation": {
                    "address": "0xc02aaa39b223fe8d0a0e5c4f27ead9083c756cc2",
                    "callData": "0x00000000000000000000000000000000000000000000000001cb85163f44502e",
                    "decodedMethod": {
                        "callParams": [
                            {
                                "name": "wad",
                                "type": "uint256",
                                "value": "129,343,344,907,407,406"
                            }
                        ],
                        "constructorArguments": "",
                        "name": "withdraw",
                        "returnParams": [],
                        "signature": "withdraw(uint256)"
                    },
                    "errorInfo": "",
                    "fromAddress": "0x1a2a1c938ce3ec39b6d47113c7955baa9dd454f2",
                    "gasUsed": 14386,
                    "id": 24,
                    "methodDecoded": true,
                    "operation": "CALL",
                    "output": "",
                    "revert": false,
                    "revertMessage": "",
                    "selector": "0x2e1a7d4d",
                    "status": true,
                    "value": "0"
                },
                "nodeType": 0
            },
            "25": {
                "invocation": {
                    "address": "0x1a2a1c938ce3ec39b6d47113c7955baa9dd454f2",
                    "callData": "0x",
                    "decodedMethod": null,
                    "errorInfo": "",
                    "fromAddress": "0xc02aaa39b223fe8d0a0e5c4f27ead9083c756cc2",
                    "gasUsed": 446,
                    "id": 25,
                    "methodDecoded": false,
                    "operation": "CALL",
                    "output": "",
                    "revert": false,
                    "revertMessage": "",
                    "selector": "fallback",
                    "status": true,
                    "value": "0.129343344907407406"
                },
                "nodeType": 0
            },
            "26": {
                "invocation": {
                    "address": "0x8407dc57739bcda7aa53ca6f12f82f9d51c2f21e",
                    "callData": "0x",
                    "decodedMethod": null,
                    "errorInfo": "",
                    "fromAddress": "0x1a2a1c938ce3ec39b6d47113c7955baa9dd454f2",
                    "gasUsed": 40,
                    "id": 26,
                    "methodDecoded": false,
                    "operation": "DELEGATECALL",
                    "output": "",
                    "revert": false,
                    "revertMessage": "",
                    "selector": "fallback",
                    "status": true,
                    "value": "0.129343344907407406"
                },
                "nodeType": 0
            },
            "27": {
                "event": {
                    "contract": "0xc02aaa39b223fe8d0a0e5c4f27ead9083c756cc2",
                    "decodedLog": {
                        "name": "Withdrawal",
                        "params": [
                            {
                                "name": "src",
                                "type": "address",
                                "value": "0x1a2a1c938ce3ec39b6d47113c7955baa9dd454f2"
                            },
                            {
                                "name": "wad",
                                "type": "uint256",
                                "value": "129,343,344,907,407,406"
                            }
                        ],
                        "signature": "Withdrawal(address,uint256)"
                    },
                    "id": 27,
                    "logData": "0x00000000000000000000000000000000000000000000000001cb85163f44502e",
                    "logDecoded": true,
                    "operation": "EVENT",
                    "revert": false,
                    "status": true,
                    "topics": [
                        "0x7fcf532c15f0a6db0bd6d0e038bea71d30d808c7d98cb3bf7268a95bf5081b65",
                        "0x0000000000000000000000001a2a1c938ce3ec39b6d47113c7955baa9dd454f2"
                    ]
                },
                "nodeType": 1
            },
            "28": {
                "invocation": {
                    "address": "0xe063618a1cb2e88e2a6673849c46b5970466809b",
                    "callData": "0x",
                    "decodedMethod": null,
                    "errorInfo": "",
                    "fromAddress": "0x1a2a1c938ce3ec39b6d47113c7955baa9dd454f2",
                    "gasUsed": 0,
                    "id": 28,
                    "methodDecoded": false,
                    "operation": "CALL",
                    "output": "",
                    "revert": false,
                    "revertMessage": "",
                    "selector": "fallback",
                    "status": true,
                    "value": "0.129343344907407406"
                },
                "nodeType": 0
            },
            "29": {
                "event": {
                    "contract": "0x1a2a1c938ce3ec39b6d47113c7955baa9dd454f2",
                    "decodedLog": {
                        "name": "TokenWithdrew",
                        "params": [
                            {
                                "name": "_withdrawId",
                                "type": "uint256",
                                "value": "752,683"
                            },
                            {
                                "name": "_owner",
                                "type": "address",
                                "value": "0xe063618a1cb2e88e2a6673849c46b5970466809b"
                            },
                            {
                                "name": "_tokenAddress",
                                "type": "address",
                                "value": "0xc02aaa39b223fe8d0a0e5c4f27ead9083c756cc2"
                            },
                            {
                                "name": "_tokenNumber",
                                "type": "uint256",
                                "value": "129,343,344,907,407,406"
                            }
                        ],
                        "signature": "TokenWithdrew(uint256,address,address,uint256)"
                    },
                    "id": 29,
                    "logData": "0x00000000000000000000000000000000000000000000000001cb85163f44502e",
                    "logDecoded": true,
                    "operation": "EVENT",
                    "revert": false,
                    "status": true,
                    "topics": [
                        "0x86174ea401f083b9bb1bdebca3068f27fb023c7091365ed2a8a02b8d75cf0e52",
                        "0x00000000000000000000000000000000000000000000000000000000000b7c2b",
                        "0x000000000000000000000000e063618a1cb2e88e2a6673849c46b5970466809b",
                        "0x000000000000000000000000c02aaa39b223fe8d0a0e5c4f27ead9083c756cc2"
                    ]
                },
                "nodeType": 1
            },
            "3": {
                "invocation": {
                    "address": "0x33e71e649abdc09f650ad44139674828a2075ad2",
                    "callData": "0x",
                    "decodedMethod": {
                        "callParams": [],
                        "constructorArguments": "",
                        "name": "VALIDATOR",
                        "returnParams": [
                            {
                                "name": "",
                                "type": "string",
                                "value": "VALIDATOR"
                            }
                        ],
                        "signature": "VALIDATOR()"
                    },
                    "errorInfo": "",
                    "fromAddress": "0x1a2a1c938ce3ec39b6d47113c7955baa9dd454f2",
                    "gasUsed": 690,
                    "id": 3,
                    "methodDecoded": true,
                    "operation": "STATICCALL",
                    "output": "0x0000000000000000000000000000000000000000000000000000000000000020000000000000000000000000000000000000000000000000000000000000000956414c494441544f520000000000000000000000000000000000000000000000",
                    "revert": false,
                    "revertMessage": "",
                    "selector": "0x393df8cb",
                    "status": true,
                    "value": "0"
                },
                "nodeType": 0
            },
            "4": {
                "invocation": {
                    "address": "0x33e71e649abdc09f650ad44139674828a2075ad2",
                    "callData": "0x0000000000000000000000000000000000000000000000000000000000000020000000000000000000000000000000000000000000000000000000000000000956414c494441544f520000000000000000000000000000000000000000000000",
                    "decodedMethod": {
                        "callParams": [
                            {
                                "name": "_name",
                                "type": "string",
                                "value": "VALIDATOR"
                            }
                        ],
                        "constructorArguments": "",
                        "name": "getContract",
                        "returnParams": [
                            {
                                "name": "_address",
                                "type": "address",
                                "value": "0x42b19dca30fd612b1757682c074497847f2b57e0"
                            }
                        ],
                        "signature": "getContract(string)"
                    },
                    "errorInfo": "",
                    "fromAddress": "0x1a2a1c938ce3ec39b6d47113c7955baa9dd454f2",
                    "gasUsed": 3205,
                    "id": 4,
                    "methodDecoded": true,
                    "operation": "STATICCALL",
                    "output": "0x00000000000000000000000042b19dca30fd612b1757682c074497847f2b57e0",
                    "revert": false,
                    "revertMessage": "",
                    "selector": "0x35817773",
                    "status": true,
                    "value": "0"
                },
                "nodeType": 0
            },
            "5": {
                "invocation": {
                    "address": "0x0000000000000000000000000000000000000001",
                    "callData": "0x9fcd9419396c221d6c5247a9c2be6a2d50f62ebbb1730c28116c0eee000000000000000000000000000000000000000000000000000000000000001ba1af0353d128aaf7a0354a94437c49a114d731d71b3476e154c0e579d876183578eb01e8c0e2793de61082c0d0e52ae950db38dadde535b9092e885b551b2057",
                    "decodedMethod": {
                        "callParams": [
                            {
                                "name": "hash",
                                "type": "bytes32",
                                "value": "0xe05471e99fcd9419396c221d6c5247a9c2be6a2d50f62ebbb1730c28116c0eee"
                            },
                            {
                                "name": "v",
                                "type": "uint256",
                                "value": "27"
                            },
                            {
                                "name": "r",
                                "type": "bytes32",
                                "value": "0xa1af0353d128aaf7a0354a94437c49a114d731d71b3476e154c0e579d8761835"
                            },
                            {
                                "name": "s",
                                "type": "bytes32",
                                "value": "0x78eb01e8c0e2793de61082c0d0e52ae950db38dadde535b9092e885b551b2057"
                            }
                        ],
                        "constructorArguments": "",
                        "name": "ecrecover",
                        "returnParams": [
                            {
                                "name": "",
                                "type": "address",
                                "value": "0x1a15a5e25811fe1349d636a5053a0e59d53961c9"
                            }
                        ],
                        "signature": "ecrecover(bytes32,uint256,bytes32,bytes32)"
                    },
                    "errorInfo": "",
                    "fromAddress": "0x1a2a1c938ce3ec39b6d47113c7955baa9dd454f2",
                    "gasUsed": 3000,
                    "id": 5,
                    "methodDecoded": true,
                    "operation": "STATICCALL",
                    "output": "0x0000000000000000000000001a15a5e25811fe1349d636a5053a0e59d53961c9",
                    "revert": false,
                    "revertMessage": "",
                    "selector": "0xe05471e9",
                    "status": true,
                    "value": "0"
                },
                "nodeType": 0
            },
            "6": {
                "invocation": {
                    "address": "0x42b19dca30fd612b1757682c074497847f2b57e0",
                    "callData": "0x0000000000000000000000001a15a5e25811fe1349d636a5053a0e59d53961c9",
                    "decodedMethod": {
                        "callParams": [
                            {
                                "name": "_addr",
                                "type": "address",
                                "value": "0x1a15a5e25811fe1349d636a5053a0e59d53961c9"
                            }
                        ],
                        "constructorArguments": "",
                        "name": "isValidator",
                        "returnParams": [
                            {
                                "name": "",
                                "type": "bool",
                                "value": true
                            }
                        ],
                        "signature": "isValidator(address)"
                    },
                    "errorInfo": "",
                    "fromAddress": "0x1a2a1c938ce3ec39b6d47113c7955baa9dd454f2",
                    "gasUsed": 2545,
                    "id": 6,
                    "methodDecoded": true,
                    "operation": "STATICCALL",
                    "output": "0x0000000000000000000000000000000000000000000000000000000000000001",
                    "revert": false,
                    "revertMessage": "",
                    "selector": "0xfacd743b",
                    "status": true,
                    "value": "0"
                },
                "nodeType": 0
            },
            "7": {
                "invocation": {
                    "address": "0x0000000000000000000000000000000000000001",
                    "callData": "0x9fcd9419396c221d6c5247a9c2be6a2d50f62ebbb1730c28116c0eee000000000000000000000000000000000000000000000000000000000000001b497dec328111a115300f439de111e08c9291e010f25b54c4f002b8b1e86b0c81538ccad264928f81c1a82e28a517fba03f1fe5d901b615a22c76cfacf286902d",
                    "decodedMethod": {
                        "callParams": [
                            {
                                "name": "hash",
                                "type": "bytes32",
                                "value": "0xe05471e99fcd9419396c221d6c5247a9c2be6a2d50f62ebbb1730c28116c0eee"
                            },
                            {
                                "name": "v",
                                "type": "uint256",
                                "value": "27"
                            },
                            {
                                "name": "r",
                                "type": "bytes32",
                                "value": "0x497dec328111a115300f439de111e08c9291e010f25b54c4f002b8b1e86b0c81"
                            },
                            {
                                "name": "s",
                                "type": "bytes32",
                                "value": "0x538ccad264928f81c1a82e28a517fba03f1fe5d901b615a22c76cfacf286902d"
                            }
                        ],
                        "constructorArguments": "",
                        "name": "ecrecover",
                        "returnParams": [
                            {
                                "name": "",
                                "type": "address",
                                "value": "0x70bb1fb41c8c42f6ddd53a708e2b82209495e455"
                            }
                        ],
                        "signature": "ecrecover(bytes32,uint256,bytes32,bytes32)"
                    },
                    "errorInfo": "",
                    "fromAddress": "0x1a2a1c938ce3ec39b6d47113c7955baa9dd454f2",
                    "gasUsed": 3000,
                    "id": 7,
                    "methodDecoded": true,
                    "operation": "STATICCALL",
                    "output": "0x00000000000000000000000070bb1fb41c8c42f6ddd53a708e2b82209495e455",
                    "revert": false,
                    "revertMessage": "",
                    "selector": "0xe05471e9",
                    "status": true,
                    "value": "0"
                },
                "nodeType": 0
            },
            "8": {
                "invocation": {
                    "address": "0x42b19dca30fd612b1757682c074497847f2b57e0",
                    "callData": "0x00000000000000000000000070bb1fb41c8c42f6ddd53a708e2b82209495e455",
                    "decodedMethod": {
                        "callParams": [
                            {
                                "name": "_addr",
                                "type": "address",
                                "value": "0x70bb1fb41c8c42f6ddd53a708e2b82209495e455"
                            }
                        ],
                        "constructorArguments": "",
                        "name": "isValidator",
                        "returnParams": [
                            {
                                "name": "",
                                "type": "bool",
                                "value": true
                            }
                        ],
                        "signature": "isValidator(address)"
                    },
                    "errorInfo": "",
                    "fromAddress": "0x1a2a1c938ce3ec39b6d47113c7955baa9dd454f2",
                    "gasUsed": 2545,
                    "id": 8,
                    "methodDecoded": true,
                    "operation": "STATICCALL",
                    "output": "0x0000000000000000000000000000000000000000000000000000000000000001",
                    "revert": false,
                    "revertMessage": "",
                    "selector": "0xfacd743b",
                    "status": true,
                    "value": "0"
                },
                "nodeType": 0
            },
            "9": {
                "invocation": {
                    "address": "0x0000000000000000000000000000000000000001",
                    "callData": "0x9fcd9419396c221d6c5247a9c2be6a2d50f62ebbb1730c28116c0eee000000000000000000000000000000000000000000000000000000000000001b486a685da39341e41b685450d7fd7298afaa859c4da50e4700f11271ca2abebb33bc6c322c1537b8fe9683aced2a298955d98f97f278a8dd7104db22c127b9cb",
                    "decodedMethod": {
                        "callParams": [
                            {
                                "name": "hash",
                                "type": "bytes32",
                                "value": "0xe05471e99fcd9419396c221d6c5247a9c2be6a2d50f62ebbb1730c28116c0eee"
                            },
                            {
                                "name": "v",
                                "type": "uint256",
                                "value": "27"
                            },
                            {
                                "name": "r",
                                "type": "bytes32",
                                "value": "0x486a685da39341e41b685450d7fd7298afaa859c4da50e4700f11271ca2abebb"
                            },
                            {
                                "name": "s",
                                "type": "bytes32",
                                "value": "0x33bc6c322c1537b8fe9683aced2a298955d98f97f278a8dd7104db22c127b9cb"
                            }
                        ],
                        "constructorArguments": "",
                        "name": "ecrecover",
                        "returnParams": [
                            {
                                "name": "",
                                "type": "address",
                                "value": "0x9d5d175c7d7dfdc7038420eb2725d4601a41b751"
                            }
                        ],
                        "signature": "ecrecover(bytes32,uint256,bytes32,bytes32)"
                    },
                    "errorInfo": "",
                    "fromAddress": "0x1a2a1c938ce3ec39b6d47113c7955baa9dd454f2",
                    "gasUsed": 3000,
                    "id": 9,
                    "methodDecoded": true,
                    "operation": "STATICCALL",
                    "output": "0x0000000000000000000000009d5d175c7d7dfdc7038420eb2725d4601a41b751",
                    "revert": false,
                    "revertMessage": "",
                    "selector": "0xe05471e9",
                    "status": true,
                    "value": "0"
                },
                "nodeType": 0
            }
        },
        "gasFlame": [
            {
                "children": [
                    {
                        "children": [
                            {
                                "children": [],
                                "depth": 0,
                                "name": "Initial Gas",
                                "value": 29932
                            },
                            {
                                "children": [
                                    {
                                        "children": [
                                            {
                                                "children": [],
                                                "depth": 2,
                                                "name": "isTokenMapped",
                                                "value": 5215
                                            },
                                            {
                                                "children": [],
                                                "depth": 2,
                                                "name": "VALIDATOR",
                                                "value": 690
                                            },
                                            {
                                                "children": [],
                                                "depth": 2,
                                                "name": "getContract",
                                                "value": 3205
                                            },
                                            {
                                                "children": [],
                                                "depth": 2,
                                                "name": "ecrecover",
                                                "value": 3000
                                            },
                                            {
                                                "children": [],
                                                "depth": 2,
                                                "name": "isValidator",
                                                "value": 2545
                                            },
                                            {
                                                "children": [],
                                                "depth": 2,
                                                "name": "ecrecover",
                                                "value": 3000
                                            },
                                            {
                                                "children": [],
                                                "depth": 2,
                                                "name": "isValidator",
                                                "value": 2545
                                            },
                                            {
                                                "children": [],
                                                "depth": 2,
                                                "name": "ecrecover",
                                                "value": 3000
                                            },
                                            {
                                                "children": [],
                                                "depth": 2,
                                                "name": "isValidator",
                                                "value": 2545
                                            },
                                            {
                                                "children": [],
                                                "depth": 2,
                                                "name": "ecrecover",
                                                "value": 3000
                                            },
                                            {
                                                "children": [],
                                                "depth": 2,
                                                "name": "isValidator",
                                                "value": 2545
                                            },
                                            {
                                                "children": [],
                                                "depth": 2,
                                                "name": "ecrecover",
                                                "value": 3000
                                            },
                                            {
                                                "children": [],
                                                "depth": 2,
                                                "name": "isValidator",
                                                "value": 2545
                                            },
                                            {
                                                "children": [],
                                                "depth": 2,
                                                "name": "ecrecover",
                                                "value": 3000
                                            },
                                            {
                                                "children": [],
                                                "depth": 2,
                                                "name": "isValidator",
                                                "value": 2545
                                            },
                                            {
                                                "children": [],
                                                "depth": 2,
                                                "name": "ecrecover",
                                                "value": 3000
                                            },
                                            {
                                                "children": [],
                                                "depth": 2,
                                                "name": "isValidator",
                                                "value": 2545
                                            },
                                            {
                                                "children": [],
                                                "depth": 2,
                                                "name": "checkThreshold",
                                                "value": 6872
                                            },
                                            {
                                                "children": [],
                                                "depth": 2,
                                                "name": "WETH_TOKEN",
                                                "value": 668
                                            },
                                            {
                                                "children": [],
                                                "depth": 2,
                                                "name": "getContract",
                                                "value": 3205
                                            },
                                            {
                                                "children": [],
                                                "depth": 2,
                                                "name": "WETH_TOKEN",
                                                "value": 668
                                            },
                                            {
                                                "children": [],
                                                "depth": 2,
                                                "name": "getContract",
                                                "value": 1205
                                            },
                                            {
                                                "children": [
                                                    {
                                                        "children": [
                                                            {
                                                                "children": [],
                                                                "depth": 4,
                                                                "name": "fallback",
                                                                "value": 40
                                                            }
                                                        ],
                                                        "depth": 3,
                                                        "name": "fallback",
                                                        "value": 446
                                                    }
                                                ],
                                                "depth": 2,
                                                "name": "withdraw",
                                                "value": 14386
                                            },
                                            {
                                                "children": [],
                                                "depth": 2,
                                                "name": "fallback",
                                                "value": 0
                                            }
                                        ],
                                        "depth": 1,
                                        "name": "withdrawERC20For",
                                        "value": 180297
                                    }
                                ],
                                "depth": 0,
                                "name": "Executed Gas",
                                "value": 185473
                            }
                        ],
                        "depth": -1,
                        "name": "Actual Gas Used",
                        "value": 215405
                    },
                    {
                        "children": [],
                        "depth": -1,
                        "name": "Refunded Gas",
                        "value": 0
                    }
                ],
                "depth": -2,
                "name": "Total Gas",
                "value": 215405
            }
        ],
        "isConfirmed": true,
        "mainTrace": [
            {
                "children": [
                    {
                        "children": [
                            {
                                "children": [
                                    {
                                        "children": [],
                                        "depth": 2,
                                        "id": 2,
                                        "order": 2
                                    },
                                    {
                                        "children": [],
                                        "depth": 2,
                                        "id": 3,
                                        "order": 3
                                    },
                                    {
                                        "children": [],
                                        "depth": 2,
                                        "id": 4,
                                        "order": 4
                                    },
                                    {
                                        "children": [],
                                        "depth": 2,
                                        "id": 5,
                                        "order": 5
                                    },
                                    {
                                        "children": [],
                                        "depth": 2,
                                        "id": 6,
                                        "order": 6
                                    },
                                    {
                                        "children": [],
                                        "depth": 2,
                                        "id": 7,
                                        "order": 7
                                    },
                                    {
                                        "children": [],
                                        "depth": 2,
                                        "id": 8,
                                        "order": 8
                                    },
                                    {
                                        "children": [],
                                        "depth": 2,
                                        "id": 9,
                                        "order": 9
                                    },
                                    {
                                        "children": [],
                                        "depth": 2,
                                        "id": 10,
                                        "order": 10
                                    },
                                    {
                                        "children": [],
                                        "depth": 2,
                                        "id": 11,
                                        "order": 11
                                    },
                                    {
                                        "children": [],
                                        "depth": 2,
                                        "id": 12,
                                        "order": 12
                                    },
                                    {
                                        "children": [],
                                        "depth": 2,
                                        "id": 13,
                                        "order": 13
                                    },
                                    {
                                        "children": [],
                                        "depth": 2,
                                        "id": 14,
                                        "order": 14
                                    },
                                    {
                                        "children": [],
                                        "depth": 2,
                                        "id": 15,
                                        "order": 15
                                    },
                                    {
                                        "children": [],
                                        "depth": 2,
                                        "id": 16,
                                        "order": 16
                                    },
                                    {
                                        "children": [],
                                        "depth": 2,
                                        "id": 17,
                                        "order": 17
                                    },
                                    {
                                        "children": [],
                                        "depth": 2,
                                        "id": 18,
                                        "order": 18
                                    },
                                    {
                                        "children": [],
                                        "depth": 2,
                                        "id": 19,
                                        "order": 19
                                    },
                                    {
                                        "children": [],
                                        "depth": 2,
                                        "id": 20,
                                        "order": 20
                                    },
                                    {
                                        "children": [],
                                        "depth": 2,
                                        "id": 21,
                                        "order": 21
                                    },
                                    {
                                        "children": [],
                                        "depth": 2,
                                        "id": 22,
                                        "order": 22
                                    },
                                    {
                                        "children": [],
                                        "depth": 2,
                                        "id": 23,
                                        "order": 23
                                    },
                                    {
                                        "children": [
                                            {
                                                "children": [
                                                    {
                                                        "children": [],
                                                        "depth": 4,
                                                        "id": 26,
                                                        "order": 26
                                                    }
                                                ],
                                                "depth": 3,
                                                "id": 25,
                                                "order": 25
                                            },
                                            {
                                                "children": [],
                                                "depth": 3,
                                                "id": 27,
                                                "order": 27
                                            }
                                        ],
                                        "depth": 2,
                                        "id": 24,
                                        "order": 24
                                    },
                                    {
                                        "children": [],
                                        "depth": 2,
                                        "id": 28,
                                        "order": 28
                                    },
                                    {
                                        "children": [],
                                        "depth": 2,
                                        "id": 29,
                                        "order": 29
                                    }
                                ],
                                "depth": 1,
                                "id": 1,
                                "order": 1
                            }
                        ],
                        "depth": 0,
                        "id": 0,
                        "order": 0
                    }
                ],
                "depth": -1,
                "id": -1,
                "order": -1
            }
        ],
        "mainTraceNodeCount": 30,
        "parentIdMap": {
            "0": -1,
            "1": 0,
            "10": 1,
            "11": 1,
            "12": 1,
            "13": 1,
            "14": 1,
            "15": 1,
            "16": 1,
            "17": 1,
            "18": 1,
            "19": 1,
            "2": 1,
            "20": 1,
            "21": 1,
            "22": 1,
            "23": 1,
            "24": 1,
            "25": 24,
            "26": 25,
            "27": 24,
            "28": 1,
            "29": 1,
            "3": 1,
            "4": 1,
            "5": 1,
            "6": 1,
            "7": 1,
            "8": 1,
            "9": 1
        },
        "tidyTrace": [
            {
                "children": [
                    {
                        "children": [
                            {
                                "children": [
                                    {
                                        "children": [
                                            {
                                                "children": [
                                                    {
                                                        "children": [],
                                                        "depth": 4,
                                                        "id": 26,
                                                        "order": 26
                                                    }
                                                ],
                                                "depth": 3,
                                                "id": 25,
                                                "order": 25
                                            },
                                            {
                                                "children": [],
                                                "depth": 3,
                                                "id": 27,
                                                "order": 27
                                            }
                                        ],
                                        "depth": 2,
                                        "id": 24,
                                        "order": 24
                                    },
                                    {
                                        "children": [],
                                        "depth": 2,
                                        "id": 28,
                                        "order": 28
                                    },
                                    {
                                        "children": [],
                                        "depth": 2,
                                        "id": 29,
                                        "order": 29
                                    }
                                ],
                                "depth": 1,
                                "id": 1,
                                "order": 1
                            }
                        ],
                        "depth": 0,
                        "id": 0,
                        "order": 0
                    }
                ],
                "depth": -1,
                "id": -1,
                "order": -1
            }
        ],
        "tidyTraceNodeCount": 8
    },
    "state_change": {
        "stateChanges": [
            {
                "address": "0x1a2a1c938ce3ec39b6d47113c7955baa9dd454f2",
                "erc": "",
                "slots": [
                    {
                        "current": "0x00000000000000000000000000000000000000000000000001cb85163f44502e",
                        "key": "0x0b6fcd59240ab0e17b2bb2800a2526781df5ee8263998eb513cc3d5e2de72711",
                        "prev": "0x0000000000000000000000000000000000000000000000000000000000000000"
                    },
                    {
                        "current": "0x000000000000000000000000e063618a1cb2e88e2a6673849c46b5970466809b",
                        "key": "0x0b6fcd59240ab0e17b2bb2800a2526781df5ee8263998eb513cc3d5e2de7270f",
                        "prev": "0x0000000000000000000000000000000000000000000000000000000000000000"
                    },
                    {
                        "current": "0x000000000000000000000000c02aaa39b223fe8d0a0e5c4f27ead9083c756cc2",
                        "key": "0x0b6fcd59240ab0e17b2bb2800a2526781df5ee8263998eb513cc3d5e2de72710",
                        "prev": "0x0000000000000000000000000000000000000000000000000000000000000000"
                    }
                ],
                "storageVariables": [
                    {
                        "name": "withdrawals",
                        "type": "mapping(uint256 => struct MainchainGatewayStorage.WithdrawalEntry)",
                        "value": {
                            "pairs": [
                                {
                                    "key": "752683",
                                    "value": {
                                        "fields": [
                                            {
                                                "name": "owner",
                                                "type": "address",
                                                "value": {
                                                    "current": "0xe063618a1cb2e88e2a6673849c46b5970466809b",
                                                    "prev": "0x0000000000000000000000000000000000000000",
                                                    "typeTag": 1
                                                }
                                            },
                                            {
                                                "name": "tokenAddress",
                                                "type": "address",
                                                "value": {
                                                    "current": "0xc02aaa39b223fe8d0a0e5c4f27ead9083c756cc2",
                                                    "prev": "0x0000000000000000000000000000000000000000",
                                                    "typeTag": 1
                                                }
                                            },
                                            {
                                                "name": "tokenNumber",
                                                "type": "uint256",
                                                "value": {
                                                    "current": "129343344907407406",
                                                    "prev": "0",
                                                    "typeTag": 1
                                                }
                                            }
                                        ],
                                        "typeTag": 3
                                    }
                                }
                            ],
                            "typeTag": 4
                        }
                    }
                ]
            },
            {
                "address": "0xc02aaa39b223fe8d0a0e5c4f27ead9083c756cc2",
                "erc": "ERC-20",
                "slots": [
                    {
                        "current": "0x000000000000000000000000000000000000000000000d5453ca1f7e7d33677f",
                        "key": "0xfffe533f47dff0c7bddbf8eb07fd3eb369bfaaaa3aabb548e96fc6b3744837b6",
                        "prev": "0x000000000000000000000000000000000000000000000d545595a494bc77b7ad"
                    }
                ],
                "storageVariables": [
                    {
                        "name": "balanceOf",
                        "type": "mapping(address => uint256)",
                        "value": {
                            "pairs": [
                                {
                                    "key": "0x1a2a1c938ce3ec39b6d47113c7955baa9dd454f2",
                                    "value": {
                                        "current": "62946328452375560546175",
                                        "prev": "62946457795720467953581",
                                        "typeTag": 1
                                    }
                                }
                            ],
                            "typeTag": 4
                        }
                    }
                ]
            }
        ]
    }
}