{
    "balance_change": {
        "balanceChanges": [
            {
                "account": "0xb6f3e83dabfe761261b0995892d91d2d461d979c",
                "assets": [
                    {
                        "address": "0xb45cdea39c4b0dfa85ab9855f8eb515bcf28474d",
                        "amount": "152,000,000,000,000,000,000",
                        "iconUrl": "",
                        "isERC1155": false,
                        "isERC721": false,
                        "sign": false,
                        "value": ""
                    }
                ]
            },
            {
                "account": "0xf73f3e97f3450e3fffb44f3bb297ca757a3239e9",
                "assets": [
                    {
                        "address": "0xb45cdea39c4b0dfa85ab9855f8eb515bcf28474d",
                        "amount": "152,000,000,000,000,000,000",
                        "iconUrl": "",
                        "isERC1155": false,
                        "isERC721": false,
                        "sign": true,
                        "value": ""
                    }
                ]
            }
        ]
    },
    "profile": {
        "basic_info": {
            "baseFee": "",
            "blockNumber": 8353237,
            "callData": "0xa9059cbb000000000000000000000000f73f3e97f3450e3fffb44f3bb297ca757a3239e90000000000000000000000000000000000000000000000083d6c7aab63600000",
            "debugEnable": true,
            "errorInfo": "",
            "eventCount": 1,
            "feeRecipient": "0x8fce1ef27f3add1411c7a99be402de598ad38389",
            "formatValue": "0",
            "gasLimit": 99999,
            "gasPrice": "10",
            "gasUsed": 38391,
            "intTxnCount": 0,
            "internalRevert": false,
            "internalRevertMessage": "",
            "isContractCreation": false,
            "isFlashloan": false,
            "maxFee": "",
            "nonce": 857,
            "overwritedBlockNumber": -1,
            "priorityFee": "",
            "receiver": "0xb45cdea39c4b0dfa85ab9855f8eb515bcf28474d",
            "revertMessage": "",
            "sender": "0xb6f3e83dabfe761261b0995892d91d2d461d979c",
            "simulationEnable": true,
            "sourceTxnHash": "0xd317f46b1dd2e5cf17a86103d71a76c80c501c2c8420bcdb40cff7d5e6382241",
            "status": true,
            "timestamp": "2019-08-15T05:27:57Z",
            "transactionFee": "0.00038391",
            "txnHash": "0xd317f46b1dd2e5cf17a86103d71a76c80c501c2c8420bcdb40cff7d5e6382241",
            "txnIndex": 48,
            "type": 0,
            "value": "0"
        },
        "fund_flow": [
            {
                "amount": "152,000,000,000,000,000,000",
                "from": "0xb6f3e83dabfe761261b0995892d91d2d461d979c",
                "id": 1,
                "isERC1155": false,
                "isERC721": false,
                "isReverted": false,
                "order": 1,
                "to": "0xf73f3e97f3450e3fffb44f3bb297ca757a3239e9",
                "token": "0xb45cdea39c4b0dfa85ab9855f8eb515bcf28474d"
            }
        ],
        "token_infos": [
            {
                "address": "0xc02aaa39b223fe8d0a0e5c4f27ead9083c756cc2",
                "decimals": 18
            },
            {
                "address": "0xeeeeeeeeeeeeeeeeeeeeeeeeeeeeeeeeeeeeeeee",
                "decimals": 18
            }
        ]
    },
    "address_label": {
        "labels": [
            {
                "address": "0x0000000000000000000000000000000000000001",
                "label": "Precompiled"
            },
            {
                "address": "0x0000000000000000000000000000000000000002",
                "label": "Precompiled"
            },
            {
                "address": "0x0000000000000000000000000000000000000003",
                "label": "Precompiled"
            },
            {
                "address": "0x0000000000000000000000000000000000000004",
                "label": "Precompiled"
            },
            {
                "address": "0xeeeeeeeeeeeeeeeeeeeeeeeeeeeeeeeeeeeeeeee",
                "label": "Ether"
            }
        ]
    },
    "trace": {
        "accountLabels": null,
        "dataMap": {
            "-1": {
                "invocation": {
                    "address": "0xb6f3e83dabfe761261b0995892d91d2d461d979c",
                    "callData": "",
                    "decodedMethod": null,
                    "errorInfo": "",
                    "fromAddress": "",
                    "gasUsed": 0,
                    "id": -1,
                    "methodDecoded": false,
                    "operation": "",
                    "output": "",
                    "revert": false,
                    "revertMessage": "",
                    "selector": "",
                    "status": false,
                    "value": ""
                },
                "nodeType": 0
            },
            "0": {
                "invocation": {
                    "address": "0xb45cdea39c4b0dfa85ab9855f8eb515bcf28474d",
                    "callData": "0x000000000000000000000000f73f3e97f3450e3fffb44f3bb297ca757a3239e90000000000000000000000000000000000000000000000083d6c7aab63600000",
                    "decodedMethod": {
                        "callParams": [
                            {
                                "name": "_to",
                                "type": "address",
                                "value": "0xf73f3e97f3450e3fffb44f3bb297ca757a3239e9"
                            },
                            {
                                "decimalAvailable": true,
                                "name": "_value",
                                "type": "uint256",
                                "value": "152,000,000,000,000,000,000"
                            }
                        ],
                        "constructorArguments": "",
                        "name": "transfer",
                        "returnParams": [],
                        "signature": "transfer(address,uint256)"
                    },
                    "errorInfo": "",
                    "fromAddress": "0xb6f3e83dabfe761261b0995892d91d2d461d979c",
                    "gasUsed": 38391,
                    "id": 0,
                    "methodDecoded": true,
                    "operation": "CALL",
                    "output": "",
                    "revert": false,
                    "revertMessage": "",
                    "selector": "0xa9059cbb",
                    "status": true,
                    "value": "0"
                },
                "nodeType": 0
            },
            "1": {
                "event": {
                    "contract": "0xb45cdea39c4b0dfa85ab9855f8eb515bcf28474d",
                    "decodedLog": {
                        "name": "Transfer",
                        "params": [
                            {
                                "name": "from",
                                "type": "address",
                                "value": "0xb6f3e83dabfe761261b0995892d91d2d461d979c"
                            },
                            {
                                "name": "to",
                                "type": "address",
                                "value": "0xf73f3e97f3450e3fffb44f3bb297ca757a3239e9"
                            },
                            {
                                "decimalAvailable": true,
                                "name": "value",
                                "type": "uint256",
                                "value": "152,000,000,000,000,000,000"
                            }
                        ],
                        "signature": "Transfer(address,address,uint256)"
                    },
                    "id": 1,
                    "logData": "0x0000000000000000000000000000000000000000000000083d6c7aab63600000",
                    "logDecoded": true,
                    "operation": "EVENT",
                    "revert": false,
                    "status": true,
                    "topics": [
                        "0xddf252ad1be2c89b69c2b068fc378daa952ba7f163c4a11628f55a4df523b3ef",
                        "0x000000000000000000000000b6f3e83dabfe761261b0995892d91d2d461d979c",
                        "0x000000000000000000000000f73f3e97f3450e3fffb44f3bb297ca757a3239e9"
                    ]
                },
                "nodeType": 1
            }
        },
        "gasFlame": [
            {
                "children": [
                    {
                        "children": [
                            {
                                "children": [],
                                "depth": 0,
                                "name": "Initial Gas",
                                "value": 23256
                            },
                            {
                                "children": [],
                                "depth": 0,
                                "name": "Executed Gas",
                                "value": 15135
                            }
                        ],
                        "depth": -1,
                        "name": "Actual Gas Used",
                        "value": 38391
                    },
                    {
                        "children": [],
                        "depth": -1,
                        "name": "Refunded Gas",
                        "value": 0
                    }
                ],
                "depth": -2,
                "name": "Total Gas",
                "value": 38391
            }
        ],
        "isConfirmed": true,
        "mainTrace": [
            {
                "children": [
                    {
                        "children": [
                            {
                                "children": [],
                                "depth": 1,
                                "id": 1,
                                "order": 1
                            }
                        ],
                        "depth": 0,
                        "id": 0,
                        "order": 0
                    }
                ],
                "depth": -1,
                "id": -1,
                "order": -1
            }
        ],
        "mainTraceNodeCount": 2,
        "parentIdMap": {
            "0": -1,
            "1": 0
        },
        "tidyTrace": [
            {
                "children": [
                    {
                        "children": [
                            {
                                "children": [],
                                "depth": 1,
                                "id": 1,
                                "order": 1
                            }
                        ],
                        "depth": 0,
                        "id": 0,
                        "order": 0
                    }
                ],
                "depth": -1,
                "id": -1,
                "order": -1
            }
        ],
        "tidyTraceNodeCount": 2
    },
    "state_change": {
        "stateChanges": [
            {
                "address": "0xb45cdea39c4b0dfa85ab9855f8eb515bcf28474d",
                "erc": "",
                "slots": [
                    {
                        "current": "0x000000000000000000000000000000000000000000002511ce05c18fcd400000",
                        "key": "0xee795409571239278fa5cc1eb371390f768473074bc398223ede2242f68f74a7",
                        "prev": "0x00000000000000000000000000000000000000000000251a0b723c3b30a00000"
                    },
                    {
                        "current": "0x0000000000000000000000000000000000000000000001190673b5fda9000000",
                        "key": "0x237200372ea2400a51addfa07c89cd8262f0df066d71ecf4bceaa355f132fc67",
                        "prev": "0x000000000000000000000000000000000000000000000110c9073b5245a00000"
                    }
                ],
                "storageVariables": []
            }
        ]
    }
}