{
    "balance_change": {
        "balanceChanges": []
    },
    "profile": {
        "basic_info": {
            "baseFee": "28.773311661",
            "blockNumber": 13015313,
            "callData": "0xdd2414d4000000000000000000000000187d3c1b58a88ef8374bff28c99893ab35a1169002714e857a2486538609aee39ab6405a7e59ed8b96e38a2318d86573b9e9df89000000000000000000000000000000000000000000000000000000000000006000000000000000000000000000000000000000000000000000000000000000414e2ee8379e64f84db67e14b2f4fd9468047c598629bf984546891f2c953eebf912af637dec64dca354409d157d291ead6adf492225ee3409b7304793b57dfb031b00000000000000000000000000000000000000000000000000000000000000",
            "debugEnable": true,
            "errorInfo": "",
            "eventCount": 1,
            "feeRecipient": "0x3ecef08d0e2dad803847e052249bb4f8bff2d5bb",
            "formatValue": "0",
            "gasLimit": 300000,
            "gasPrice": "31",
            "gasUsed": 67722,
            "intTxnCount": 4,
            "internalRevert": false,
            "internalRevertMessage": "",
            "isContractCreation": false,
            "isFlashloan": false,
            "maxFee": "",
            "nonce": 3443,
            "overwritedBlockNumber": -1,
            "priorityFee": "",
            "receiver": "0x5fdcca53617f4d2b9134b29090c87d01058e27e9",
            "revertMessage": "",
            "sender": "0x8ba3bfbd68f4fc28876c388b8ff99dcdeb7ce110",
            "simulationEnable": true,
            "sourceTxnHash": "0xd37392fb61536ce7b4fc299d3dae6db7d346337a5d76da375c6b7199ad010622",
            "status": true,
            "timestamp": "2021-08-13T06:57:39Z",
            "transactionFee": "0.002099382",
            "txnHash": "0xd37392fb61536ce7b4fc299d3dae6db7d346337a5d76da375c6b7199ad010622",
            "txnIndex": 265,
            "type": 0,
            "value": "0"
        },
        "fund_flow": [],
        "token_infos": [
            {
                "address": "0xc02aaa39b223fe8d0a0e5c4f27ead9083c756cc2",
                "decimals": 18
            },
            {
                "address": "0xeeeeeeeeeeeeeeeeeeeeeeeeeeeeeeeeeeeeeeee",
                "decimals": 18
            }
        ]
    },
    "address_label": {
        "labels": [
            {
                "address": "0x0000000000000000000000000000000000000005",
                "label": "Null: 0x000...005"
            },
            {
                "address": "0x49401ddc4e0a858b5b4cf3d6de38393b7fac7378",
                "label": "StarkExchange"
            },
            {
                "address": "0xa4e9524efba0cb6bd7474a48c14582deb300469e",
                "label": "TokensAndRamping"
            },
            {
                "address": "0x0000000000000000000000000000000000000001",
                "label": "Precompiled"
            },
            {
                "address": "0x0000000000000000000000000000000000000004",
                "label": "Precompiled"
            },
            {
                "address": "0xeeeeeeeeeeeeeeeeeeeeeeeeeeeeeeeeeeeeeeee",
                "label": "Ether"
            },
            {
                "address": "0x5fdcca53617f4d2b9134b29090c87d01058e27e9",
                "label": "Immutable X: Bridge"
            },
            {
                "address": "0x0000000000000000000000000000000000000002",
                "label": "Precompiled"
            },
            {
                "address": "0x0000000000000000000000000000000000000003",
                "label": "Precompiled"
            }
        ]
    },
    "trace": {
        "accountLabels": null,
        "dataMap": {
            "-1": {
                "invocation": {
                    "address": "0x8ba3bfbd68f4fc28876c388b8ff99dcdeb7ce110",
                    "callData": "",
                    "decodedMethod": null,
                    "errorInfo": "",
                    "fromAddress": "",
                    "gasUsed": 0,
                    "id": -1,
                    "methodDecoded": false,
                    "operation": "",
                    "output": "",
                    "revert": false,
                    "revertMessage": "",
                    "selector": "",
                    "status": false,
                    "value": ""
                },
                "nodeType": 0
            },
            "0": {
                "invocation": {
                    "address": "0x5fdcca53617f4d2b9134b29090c87d01058e27e9",
                    "callData": "0x000000000000000000000000187d3c1b58a88ef8374bff28c99893ab35a1169002714e857a2486538609aee39ab6405a7e59ed8b96e38a2318d86573b9e9df89000000000000000000000000000000000000000000000000000000000000006000000000000000000000000000000000000000000000000000000000000000414e2ee8379e64f84db67e14b2f4fd9468047c598629bf984546891f2c953eebf912af637dec64dca354409d157d291ead6adf492225ee3409b7304793b57dfb031b00000000000000000000000000000000000000000000000000000000000000",
                    "decodedMethod": {
                        "callParams": [
                            {
                                "name": "ethKey",
                                "type": "address",
                                "value": "0x187d3c1b58a88ef8374bff28c99893ab35a11690"
                            },
                            {
                                "name": "starkKey",
                                "type": "uint256",
                                "value": "1,104,821,350,237,571,579,563,913,815,082,665,012,300,392,624,412,784,827,610,745,744,149,139,021,705"
                            },
                            {
                                "name": "signature",
                                "type": "bytes",
                                "value": "0x4e2ee8379e64f84db67e14b2f4fd9468047c598629bf984546891f2c953eebf912af637dec64dca354409d157d291ead6adf492225ee3409b7304793b57dfb031b"
                            }
                        ],
                        "constructorArguments": "",
                        "name": "registerUser",
                        "returnParams": [],
                        "signature": "registerUser(address,uint256,bytes)"
                    },
                    "errorInfo": "",
                    "fromAddress": "0x8ba3bfbd68f4fc28876c388b8ff99dcdeb7ce110",
                    "gasUsed": 67722,
                    "id": 0,
                    "methodDecoded": true,
                    "operation": "CALL",
                    "output": "",
                    "revert": false,
                    "revertMessage": "",
                    "selector": "0xdd2414d4",
                    "status": true,
                    "value": "0"
                },
                "nodeType": 0
            },
            "1": {
                "invocation": {
                    "address": "0x49401ddc4e0a858b5b4cf3d6de38393b7fac7378",
                    "callData": "0x000000000000000000000000187d3c1b58a88ef8374bff28c99893ab35a1169002714e857a2486538609aee39ab6405a7e59ed8b96e38a2318d86573b9e9df89000000000000000000000000000000000000000000000000000000000000006000000000000000000000000000000000000000000000000000000000000000414e2ee8379e64f84db67e14b2f4fd9468047c598629bf984546891f2c953eebf912af637dec64dca354409d157d291ead6adf492225ee3409b7304793b57dfb031b00000000000000000000000000000000000000000000000000000000000000",
                    "decodedMethod": {
                        "callParams": [
                            {
                                "name": "ethKey",
                                "type": "address",
                                "value": "0x187d3c1b58a88ef8374bff28c99893ab35a11690"
                            },
                            {
                                "name": "starkKey",
                                "type": "uint256",
                                "value": "1,104,821,350,237,571,579,563,913,815,082,665,012,300,392,624,412,784,827,610,745,744,149,139,021,705"
                            },
                            {
                                "name": "signature",
                                "type": "bytes",
                                "value": "0x4e2ee8379e64f84db67e14b2f4fd9468047c598629bf984546891f2c953eebf912af637dec64dca354409d157d291ead6adf492225ee3409b7304793b57dfb031b"
                            }
                        ],
                        "constructorArguments": "",
                        "name": "registerUser",
                        "returnParams": [],
                        "signature": "registerUser(address,uint256,bytes)"
                    },
                    "errorInfo": "",
                    "fromAddress": "0x5fdcca53617f4d2b9134b29090c87d01058e27e9",
                    "gasUsed": 39218,
                    "id": 1,
                    "methodDecoded": true,
                    "operation": "DELEGATECALL",
                    "output": "",
                    "revert": false,
                    "revertMessage": "",
                    "selector": "0xdd2414d4",
                    "status": true,
                    "value": "0"
                },
                "nodeType": 0
            },
            "2": {
                "invocation": {
                    "address": "0xa4e9524efba0cb6bd7474a48c14582deb300469e",
                    "callData": "0x000000000000000000000000187d3c1b58a88ef8374bff28c99893ab35a1169002714e857a2486538609aee39ab6405a7e59ed8b96e38a2318d86573b9e9df89000000000000000000000000000000000000000000000000000000000000006000000000000000000000000000000000000000000000000000000000000000414e2ee8379e64f84db67e14b2f4fd9468047c598629bf984546891f2c953eebf912af637dec64dca354409d157d291ead6adf492225ee3409b7304793b57dfb031b00000000000000000000000000000000000000000000000000000000000000",
                    "decodedMethod": {
                        "callParams": [
                            {
                                "name": "ethKey",
                                "type": "address",
                                "value": "0x187d3c1b58a88ef8374bff28c99893ab35a11690"
                            },
                            {
                                "name": "starkKey",
                                "type": "uint256",
                                "value": "1,104,821,350,237,571,579,563,913,815,082,665,012,300,392,624,412,784,827,610,745,744,149,139,021,705"
                            },
                            {
                                "name": "signature",
                                "type": "bytes",
                                "value": "0x4e2ee8379e64f84db67e14b2f4fd9468047c598629bf984546891f2c953eebf912af637dec64dca354409d157d291ead6adf492225ee3409b7304793b57dfb031b"
                            }
                        ],
                        "constructorArguments": "",
                        "name": "registerUser",
                        "returnParams": [],
                        "signature": "registerUser(address,uint256,bytes)"
                    },
                    "errorInfo": "",
                    "fromAddress": "0x5fdcca53617f4d2b9134b29090c87d01058e27e9",
                    "gasUsed": 33787,
                    "id": 2,
                    "methodDecoded": true,
                    "operation": "DELEGATECALL",
                    "output": "",
                    "revert": false,
                    "revertMessage": "",
                    "selector": "0xdd2414d4",
                    "status": true,
                    "value": "0"
                },
                "nodeType": 0
            },
            "3": {
                "invocation": {
                    "address": "0x0000000000000000000000000000000000000005",
                    "callData": "0x000000000000000000000000000000000000000000000000000000200000000000000000000000000000000000000000000000000000000000000020000000000000000000000000000000000000000000000000000000000000002000eeecd02244b701744f2e49918a9f0248688115b82c339a6f327e0afee1b66004000000000000088000000000000000000000000000000000000000000000000800000000000011000000000000000000000000000000000000000000000001",
                    "decodedMethod": {
                        "callParams": [],
                        "constructorArguments": "",
                        "name": "ROOT4146650865",
                        "returnParams": [
                            {
                                "name": "",
                                "type": "bytes4",
                                "value": "0x00000000"
                            }
                        ],
                        "signature": "ROOT4146650865()"
                    },
                    "errorInfo": "",
                    "fromAddress": "0x5fdcca53617f4d2b9134b29090c87d01058e27e9",
                    "gasUsed": 1333,
                    "id": 3,
                    "methodDecoded": true,
                    "operation": "STATICCALL",
                    "output": "0x0000000000000000000000000000000000000000000000000000000000000001",
                    "revert": false,
                    "revertMessage": "",
                    "selector": "0x00000000",
                    "status": true,
                    "value": "0"
                },
                "nodeType": 0
            },
            "4": {
                "invocation": {
                    "address": "0x0000000000000000000000000000000000000001",
                    "callData": "0xddc15b6ffaf17e36161ec117c7c6dd1815a232de9f73a01cd4fe47bd000000000000000000000000000000000000000000000000000000000000001b4e2ee8379e64f84db67e14b2f4fd9468047c598629bf984546891f2c953eebf912af637dec64dca354409d157d291ead6adf492225ee3409b7304793b57dfb03",
                    "decodedMethod": {
                        "callParams": [
                            {
                                "name": "hash",
                                "type": "bytes32",
                                "value": "0x1ddb6764ddc15b6ffaf17e36161ec117c7c6dd1815a232de9f73a01cd4fe47bd"
                            },
                            {
                                "name": "v",
                                "type": "uint256",
                                "value": "27"
                            },
                            {
                                "name": "r",
                                "type": "bytes32",
                                "value": "0x4e2ee8379e64f84db67e14b2f4fd9468047c598629bf984546891f2c953eebf9"
                            },
                            {
                                "name": "s",
                                "type": "bytes32",
                                "value": "0x12af637dec64dca354409d157d291ead6adf492225ee3409b7304793b57dfb03"
                            }
                        ],
                        "constructorArguments": "",
                        "name": "ecrecover",
                        "returnParams": [
                            {
                                "name": "",
                                "type": "address",
                                "value": "0xf613ba58aedbcdf846eb4cdfebced0848f95d3d2"
                            }
                        ],
                        "signature": "ecrecover(bytes32,uint256,bytes32,bytes32)"
                    },
                    "errorInfo": "",
                    "fromAddress": "0x5fdcca53617f4d2b9134b29090c87d01058e27e9",
                    "gasUsed": 3000,
                    "id": 4,
                    "methodDecoded": true,
                    "operation": "STATICCALL",
                    "output": "0x000000000000000000000000f613ba58aedbcdf846eb4cdfebced0848f95d3d2",
                    "revert": false,
                    "revertMessage": "",
                    "selector": "0x1ddb6764",
                    "status": true,
                    "value": "0"
                },
                "nodeType": 0
            },
            "5": {
                "event": {
                    "contract": "0x5fdcca53617f4d2b9134b29090c87d01058e27e9",
                    "decodedLog": {
                        "name": "LogUserRegistered",
                        "params": [
                            {
                                "name": "ethKey",
                                "type": "address",
                                "value": "0x187d3c1b58a88ef8374bff28c99893ab35a11690"
                            },
                            {
                                "name": "starkKey",
                                "type": "uint256",
                                "value": "1,104,821,350,237,571,579,563,913,815,082,665,012,300,392,624,412,784,827,610,745,744,149,139,021,705"
                            },
                            {
                                "name": "sender",
                                "type": "address",
                                "value": "0x8ba3bfbd68f4fc28876c388b8ff99dcdeb7ce110"
                            }
                        ],
                        "signature": "LogUserRegistered(address,uint256,address)"
                    },
                    "id": 5,
                    "logData": "0x000000000000000000000000187d3c1b58a88ef8374bff28c99893ab35a1169002714e857a2486538609aee39ab6405a7e59ed8b96e38a2318d86573b9e9df890000000000000000000000008ba3bfbd68f4fc28876c388b8ff99dcdeb7ce110",
                    "logDecoded": true,
                    "operation": "EVENT",
                    "revert": false,
                    "status": true,
                    "topics": [
                        "0xcab1cf17c190e4e2195a7b8f7b362023246fa774390432b4704ab6b29d56b07b"
                    ]
                },
                "nodeType": 1
            }
        },
        "gasFlame": [
            {
                "children": [
                    {
                        "children": [
                            {
                                "children": [],
                                "depth": 0,
                                "name": "Initial Gas",
                                "value": 23388
                            },
                            {
                                "children": [
                                    {
                                        "children": [
                                            {
                                                "children": [
                                                    {
                                                        "children": [],
                                                        "depth": 3,
                                                        "name": "ROOT4146650865",
                                                        "value": 1333
                                                    },
                                                    {
                                                        "children": [],
                                                        "depth": 3,
                                                        "name": "ecrecover",
                                                        "value": 3000
                                                    }
                                                ],
                                                "depth": 2,
                                                "name": "registerUser",
                                                "value": 33787
                                            }
                                        ],
                                        "depth": 1,
                                        "name": "registerUser",
                                        "value": 39218
                                    }
                                ],
                                "depth": 0,
                                "name": "Executed Gas",
                                "value": 44334
                            }
                        ],
                        "depth": -1,
                        "name": "Actual Gas Used",
                        "value": 67722
                    },
                    {
                        "children": [],
                        "depth": -1,
                        "name": "Refunded Gas",
                        "value": 0
                    }
                ],
                "depth": -2,
                "name": "Total Gas",
                "value": 67722
            }
        ],
        "isConfirmed": true,
        "mainTrace": [
            {
                "children": [
                    {
                        "children": [
                            {
                                "children": [
                                    {
                                        "children": [
                                            {
                                                "children": [],
                                                "depth": 3,
                                                "id": 3,
                                                "order": 3
                                            },
                                            {
                                                "children": [],
                                                "depth": 3,
                                                "id": 4,
                                                "order": 4
                                            },
                                            {
                                                "children": [],
                                                "depth": 3,
                                                "id": 5,
                                                "order": 5
                                            }
                                        ],
                                        "depth": 2,
                                        "id": 2,
                                        "order": 2
                                    }
                                ],
                                "depth": 1,
                                "id": 1,
                                "order": 1
                            }
                        ],
                        "depth": 0,
                        "id": 0,
                        "order": 0
                    }
                ],
                "depth": -1,
                "id": -1,
                "order": -1
            }
        ],
        "mainTraceNodeCount": 6,
        "parentIdMap": {
            "0": -1,
            "1": 0,
            "2": 1,
            "3": 2,
            "4": 2,
            "5": 2
        },
        "tidyTrace": [
            {
                "children": [
                    {
                        "children": [
                            {
                                "children": [
                                    {
                                        "children": [
                                            {
                                                "children": [],
                                                "depth": 3,
                                                "id": 5,
                                                "order": 5
                                            }
                                        ],
                                        "depth": 2,
                                        "id": 2,
                                        "order": 2
                                    }
                                ],
                                "depth": 1,
                                "id": 1,
                                "order": 1
                            }
                        ],
                        "depth": 0,
                        "id": 0,
                        "order": 0
                    }
                ],
                "depth": -1,
                "id": -1,
                "order": -1
            }
        ],
        "tidyTraceNodeCount": 4
    },
    "state_change": {
        "stateChanges": [
            {
                "address": "0x5fdcca53617f4d2b9134b29090c87d01058e27e9",
                "erc": "",
                "slots": [
                    {
                        "current": "0x000000000000000000000000187d3c1b58a88ef8374bff28c99893ab35a11690",
                        "key": "0x476683b5c38f36f184717c8e68b61474c9e66bb11a32e41ba3e87b752de68a3b",
                        "prev": "0x0000000000000000000000000000000000000000000000000000000000000000"
                    }
                ],
                "storageVariables": [
                    {
                        "name": "ethKeys",
                        "type": "mapping(uint256 => address)",
                        "value": {
                            "pairs": [
                                {
                                    "key": "1104821350237571579563913815082665012300392624412784827610745744149139021705",
                                    "value": {
                                        "current": "0x187d3c1b58a88ef8374bff28c99893ab35a11690",
                                        "prev": "0x0000000000000000000000000000000000000000",
                                        "typeTag": 1
                                    }
                                }
                            ],
                            "typeTag": 4
                        }
                    }
                ]
            }
        ]
    }
}