{
    "balance_change": {
        "balanceChanges": [
            {
                "account": "0x694d69bfefc77c3fd03115c776c021c4af057202",
                "assets": [
                    {
                        "address": "0x3c76ea51027ee2cf782ecfe5675fb4cded8c30b1",
                        "amount": "4,999,999.99999999",
                        "iconUrl": "",
                        "isERC1155": false,
                        "isERC721": false,
                        "sign": false,
                        "value": "734.2636348"
                    },
                    {
                        "address": "0xeeeeeeeeeeeeeeeeeeeeeeeeeeeeeeeeeeeeeeee",
                        "amount": "0.167035027365303226",
                        "iconUrl": "https://assets.blocksec.com/image/1663669189317-3.png",
                        "isERC1155": false,
                        "isERC721": false,
                        "sign": true,
                        "value": "615.3002490322839757"
                    }
                ]
            },
            {
                "account": "0x1d6bd2e156b52ec2e013c855e446e18df2f6e8d7",
                "assets": [
                    {
                        "address": "0x3c76ea51027ee2cf782ecfe5675fb4cded8c30b1",
                        "amount": "4,999,999.99999999",
                        "iconUrl": "",
                        "isERC1155": false,
                        "isERC721": false,
                        "sign": true,
                        "value": "734.2636348"
                    },
                    {
                        "address": "0xc02aaa39b223fe8d0a0e5c4f27ead9083c756cc2",
                        "amount": "0.167035027365303226",
                        "iconUrl": "https://assets.blocksec.com/icon/f1cb2d02c471d545bbc7722daf3277fd852d98e63d118771af7047bd8256c516.png",
                        "isERC1155": false,
                        "isERC721": false,
                        "sign": false,
                        "value": "615.3002490322839757"
                    }
                ]
            },
            {
                "account": "0xc02aaa39b223fe8d0a0e5c4f27ead9083c756cc2",
                "assets": [
                    {
                        "address": "0xeeeeeeeeeeeeeeeeeeeeeeeeeeeeeeeeeeeeeeee",
                        "amount": "0.167035027365303226",
                        "iconUrl": "https://assets.blocksec.com/image/1663669189317-3.png",
                        "isERC1155": false,
                        "isERC721": false,
                        "sign": false,
                        "value": "615.3002490322839757"
                    },
                    {
                        "address": "0xc02aaa39b223fe8d0a0e5c4f27ead9083c756cc2",
                        "amount": "0.167035027365303226",
                        "iconUrl": "https://assets.blocksec.com/icon/f1cb2d02c471d545bbc7722daf3277fd852d98e63d118771af7047bd8256c516.png",
                        "isERC1155": false,
                        "isERC721": false,
                        "sign": true,
                        "value": "615.3002490322839757"
                    }
                ]
            }
        ]
    },
    "profile": {
        "basic_info": {
            "baseFee": "13.27248034",
            "blockNumber": 19934421,
            "callData": "0x3d0e3ec50000000000000000000000000000000000000000000000000001c6bf52633fff000000000000000000000000000000000000000000000000000000000000000000000000000000000000000000000000000000000000000000000000000000c0000000000000000000000000694d69bfefc77c3fd03115c776c021c4af05720200000000000000000000000000000000000000000000000000000000664f8d200000000000000000000000005c69bee701ef814a2b6a3edd4b1652cb9cc5aa6f00000000000000000000000000000000000000000000000000000000000000020000000000000000000000003c76ea51027ee2cf782ecfe5675fb4cded8c30b1000000000000000000000000c02aaa39b223fe8d0a0e5c4f27ead9083c756cc2",
            "debugEnable": true,
            "errorInfo": "",
            "eventCount": 6,
            "feeRecipient": "0x95222290dd7278aa3ddd389cc1e1d165cc4bafe5",
            "formatValue": "0",
            "gasLimit": 301446,
            "gasPrice": "16.27248034",
            "gasUsed": 149551,
            "intTxnCount": 13,
            "internalRevert": false,
            "internalRevertMessage": "",
            "isContractCreation": false,
            "isFlashloan": false,
            "maxFee": "20.237796541",
            "nonce": 134,
            "overwritedBlockNumber": -1,
            "priorityFee": "3",
            "receiver": "0x80a64c6d7f12c47b7c66c5b4e20e72bc1fcd5d9e",
            "revertMessage": "",
            "sender": "0x694d69bfefc77c3fd03115c776c021c4af057202",
            "simulationEnable": true,
            "sourceTxnHash": "0xd480cba517871dd9f4bb3498beb0e467fcd09e7e61a0845d429c3298ae0eba34",
            "status": true,
            "timestamp": "2024-05-23T18:38:23Z",
            "transactionFee": "0.00243356570732734",
            "txnHash": "0xd480cba517871dd9f4bb3498beb0e467fcd09e7e61a0845d429c3298ae0eba34",
            "txnIndex": 28,
            "type": 2,
            "value": "0"
        },
        "fund_flow": [
            {
                "amount": "4,999,999.99999999",
                "from": "0x694d69bfefc77c3fd03115c776c021c4af057202",
                "id": 1,
                "isERC1155": false,
                "isERC721": false,
                "isReverted": false,
                "order": 1,
                "to": "0x1d6bd2e156b52ec2e013c855e446e18df2f6e8d7",
                "token": "0x3c76ea51027ee2cf782ecfe5675fb4cded8c30b1"
            },
            {
                "amount": "0.167035027365303226",
                "from": "0x1d6bd2e156b52ec2e013c855e446e18df2f6e8d7",
                "id": 2,
                "isERC1155": false,
                "isERC721": false,
                "isReverted": false,
                "order": 2,
                "to": "0x80a64c6d7f12c47b7c66c5b4e20e72bc1fcd5d9e",
                "token": "0xc02aaa39b223fe8d0a0e5c4f27ead9083c756cc2"
            },
            {
                "amount": "0.167035027365303226",
                "from": "0xc02aaa39b223fe8d0a0e5c4f27ead9083c756cc2",
                "id": 3,
                "isERC1155": false,
                "isERC721": false,
                "isReverted": false,
                "order": 3,
                "to": "0x80a64c6d7f12c47b7c66c5b4e20e72bc1fcd5d9e",
                "token": "0xeeeeeeeeeeeeeeeeeeeeeeeeeeeeeeeeeeeeeeee"
            },
            {
                "amount": "0.167035027365303226",
                "from": "0x80a64c6d7f12c47b7c66c5b4e20e72bc1fcd5d9e",
                "id": 4,
                "isERC1155": false,
                "isERC721": false,
                "isReverted": false,
                "order": 4,
                "to": "0xc02aaa39b223fe8d0a0e5c4f27ead9083c756cc2",
                "token": "0xc02aaa39b223fe8d0a0e5c4f27ead9083c756cc2"
            },
            {
                "amount": "0.167035027365303226",
                "from": "0x80a64c6d7f12c47b7c66c5b4e20e72bc1fcd5d9e",
                "id": 5,
                "isERC1155": false,
                "isERC721": false,
                "isReverted": false,
                "order": 5,
                "to": "0x694d69bfefc77c3fd03115c776c021c4af057202",
                "token": "0xeeeeeeeeeeeeeeeeeeeeeeeeeeeeeeeeeeeeeeee"
            }
        ],
        "token_infos": [
            {
                "address": "0xc02aaa39b223fe8d0a0e5c4f27ead9083c756cc2",
                "decimals": 18
            },
            {
                "address": "0xeeeeeeeeeeeeeeeeeeeeeeeeeeeeeeeeeeeeeeee",
                "decimals": 18
            },
            {
                "address": "0x3c76ea51027ee2cf782ecfe5675fb4cded8c30b1",
                "decimals": 8
            }
        ]
    },
    "address_label": {
        "labels": [
            {
                "address": "0xeeeeeeeeeeeeeeeeeeeeeeeeeeeeeeeeeeeeeeee",
                "label": "Ether"
            },
            {
                "address": "0x5c69bee701ef814a2b6a3edd4b1652cb9cc5aa6f",
                "label": "Uniswap V2: Factory Contract"
            },
            {
                "address": "0x1d6bd2e156b52ec2e013c855e446e18df2f6e8d7",
                "label": "UNI-V2"
            },
            {
                "address": "0x0000000000000000000000000000000000000001",
                "label": "Precompiled"
            },
            {
                "address": "0x0000000000000000000000000000000000000004",
                "label": "Precompiled"
            },
            {
                "address": "0xc02aaa39b223fe8d0a0e5c4f27ead9083c756cc2",
                "label": "Wrapped Ether (WETH)"
            },
            {
                "address": "0x80a64c6d7f12c47b7c66c5b4e20e72bc1fcd5d9e",
                "label": "Maestro: Router 2"
            },
            {
                "address": "0x3c76ea51027ee2cf782ecfe5675fb4cded8c30b1",
                "label": "BGC"
            },
            {
                "address": "0x0000000000000000000000000000000000000002",
                "label": "Precompiled"
            },
            {
                "address": "0x0000000000000000000000000000000000000003",
                "label": "Precompiled"
            }
        ]
    },
    "trace": {
        "accountLabels": null,
        "dataMap": {
            "-1": {
                "invocation": {
                    "address": "0x694d69bfefc77c3fd03115c776c021c4af057202",
                    "callData": "",
                    "decodedMethod": null,
                    "errorInfo": "",
                    "fromAddress": "",
                    "gasUsed": 0,
                    "id": -1,
                    "methodDecoded": false,
                    "operation": "",
                    "output": "",
                    "revert": false,
                    "revertMessage": "",
                    "selector": "",
                    "status": false,
                    "value": ""
                },
                "nodeType": 0
            },
            "0": {
                "invocation": {
                    "address": "0x80a64c6d7f12c47b7c66c5b4e20e72bc1fcd5d9e",
                    "callData": "0x0000000000000000000000000000000000000000000000000001c6bf52633fff000000000000000000000000000000000000000000000000000000000000000000000000000000000000000000000000000000000000000000000000000000c0000000000000000000000000694d69bfefc77c3fd03115c776c021c4af05720200000000000000000000000000000000000000000000000000000000664f8d200000000000000000000000005c69bee701ef814a2b6a3edd4b1652cb9cc5aa6f00000000000000000000000000000000000000000000000000000000000000020000000000000000000000003c76ea51027ee2cf782ecfe5675fb4cded8c30b1000000000000000000000000c02aaa39b223fe8d0a0e5c4f27ead9083c756cc2",
                    "decodedMethod": {
                        "callParams": [
                            {
                                "name": "amountIn",
                                "type": "uint256",
                                "value": "499,999,999,999,999"
                            },
                            {
                                "name": "amountOutMin",
                                "type": "uint256",
                                "value": "0"
                            },
                            {
                                "name": "path",
                                "type": "address[]",
                                "value": [
                                    "0x3c76ea51027ee2cf782ecfe5675fb4cded8c30b1",
                                    "0xc02aaa39b223fe8d0a0e5c4f27ead9083c756cc2"
                                ]
                            },
                            {
                                "name": "to",
                                "type": "address",
                                "value": "0x694d69bfefc77c3fd03115c776c021c4af057202"
                            },
                            {
                                "name": "deadline",
                                "type": "uint256",
                                "value": "1,716,489,504"
                            },
                            {
                                "name": "referral",
                                "type": "address",
                                "value": "0x5c69bee701ef814a2b6a3edd4b1652cb9cc5aa6f"
                            }
                        ],
                        "constructorArguments": "",
                        "name": "swapExactTokensForETHSupportingFeeOnTransferTokens",
                        "returnParams": [],
                        "signature": "swapExactTokensForETHSupportingFeeOnTransferTokens(uint256,uint256,address[],address,uint256,address)"
                    },
                    "errorInfo": "",
                    "fromAddress": "0x694d69bfefc77c3fd03115c776c021c4af057202",
                    "gasUsed": 149551,
                    "id": 0,
                    "methodDecoded": true,
                    "operation": "CALL",
                    "output": "",
                    "revert": false,
                    "revertMessage": "",
                    "selector": "0x3d0e3ec5",
                    "status": true,
                    "value": "0"
                },
                "nodeType": 0
            },
            "1": {
                "invocation": {
                    "address": "0x46affe1b4f3fc41581fd20fbaf055daeab80a8b5",
                    "callData": "0x0000000000000000000000000000000000000000000000000001c6bf52633fff000000000000000000000000000000000000000000000000000000000000000000000000000000000000000000000000000000000000000000000000000000c0000000000000000000000000694d69bfefc77c3fd03115c776c021c4af05720200000000000000000000000000000000000000000000000000000000664f8d200000000000000000000000005c69bee701ef814a2b6a3edd4b1652cb9cc5aa6f00000000000000000000000000000000000000000000000000000000000000020000000000000000000000003c76ea51027ee2cf782ecfe5675fb4cded8c30b1000000000000000000000000c02aaa39b223fe8d0a0e5c4f27ead9083c756cc2",
                    "decodedMethod": {
                        "callParams": [
                            {
                                "name": "amountIn",
                                "type": "uint256",
                                "value": "499,999,999,999,999"
                            },
                            {
                                "name": "amountOutMin",
                                "type": "uint256",
                                "value": "0"
                            },
                            {
                                "name": "path",
                                "type": "address[]",
                                "value": [
                                    "0x3c76ea51027ee2cf782ecfe5675fb4cded8c30b1",
                                    "0xc02aaa39b223fe8d0a0e5c4f27ead9083c756cc2"
                                ]
                            },
                            {
                                "name": "to",
                                "type": "address",
                                "value": "0x694d69bfefc77c3fd03115c776c021c4af057202"
                            },
                            {
                                "name": "deadline",
                                "type": "uint256",
                                "value": "1,716,489,504"
                            },
                            {
                                "name": "referral",
                                "type": "address",
                                "value": "0x5c69bee701ef814a2b6a3edd4b1652cb9cc5aa6f"
                            }
                        ],
                        "constructorArguments": "",
                        "name": "swapExactTokensForETHSupportingFeeOnTransferTokens",
                        "returnParams": [],
                        "signature": "swapExactTokensForETHSupportingFeeOnTransferTokens(uint256,uint256,address[],address,uint256,address)"
                    },
                    "errorInfo": "",
                    "fromAddress": "0x80a64c6d7f12c47b7c66c5b4e20e72bc1fcd5d9e",
                    "gasUsed": 144037,
                    "id": 1,
                    "methodDecoded": true,
                    "operation": "DELEGATECALL",
                    "output": "",
                    "revert": false,
                    "revertMessage": "",
                    "selector": "0x3d0e3ec5",
                    "status": true,
                    "value": "0"
                },
                "nodeType": 0
            },
            "10": {
                "invocation": {
                    "address": "0x3c76ea51027ee2cf782ecfe5675fb4cded8c30b1",
                    "callData": "0x0000000000000000000000001d6bd2e156b52ec2e013c855e446e18df2f6e8d7",
                    "decodedMethod": {
                        "callParams": [
                            {
                                "name": "account",
                                "type": "address",
                                "value": "0x1d6bd2e156b52ec2e013c855e446e18df2f6e8d7"
                            }
                        ],
                        "constructorArguments": "",
                        "name": "balanceOf",
                        "returnParams": [
                            {
                                "decimalAvailable": true,
                                "name": "",
                                "type": "uint256",
                                "value": "17,449,667,580,267,260"
                            }
                        ],
                        "signature": "balanceOf(address)"
                    },
                    "errorInfo": "",
                    "fromAddress": "0x1d6bd2e156b52ec2e013c855e446e18df2f6e8d7",
                    "gasUsed": 918,
                    "id": 10,
                    "methodDecoded": true,
                    "operation": "STATICCALL",
                    "output": "0x000000000000000000000000000000000000000000000000003dfe6155920afc",
                    "revert": false,
                    "revertMessage": "",
                    "selector": "0x70a08231",
                    "status": true,
                    "value": "0"
                },
                "nodeType": 0
            },
            "11": {
                "invocation": {
                    "address": "0xc02aaa39b223fe8d0a0e5c4f27ead9083c756cc2",
                    "callData": "0x0000000000000000000000001d6bd2e156b52ec2e013c855e446e18df2f6e8d7",
                    "decodedMethod": {
                        "callParams": [
                            {
                                "name": "",
                                "type": "address",
                                "value": "0x1d6bd2e156b52ec2e013c855e446e18df2f6e8d7"
                            }
                        ],
                        "constructorArguments": "",
                        "name": "balanceOf",
                        "returnParams": [
                            {
                                "decimalAvailable": true,
                                "name": "",
                                "type": "uint256",
                                "value": "5,679,414,620,065,678,074"
                            }
                        ],
                        "signature": "balanceOf(address)"
                    },
                    "errorInfo": "",
                    "fromAddress": "0x1d6bd2e156b52ec2e013c855e446e18df2f6e8d7",
                    "gasUsed": 534,
                    "id": 11,
                    "methodDecoded": true,
                    "operation": "STATICCALL",
                    "output": "0x0000000000000000000000000000000000000000000000004ed15581912cc2fa",
                    "revert": false,
                    "revertMessage": "",
                    "selector": "0x70a08231",
                    "status": true,
                    "value": "0"
                },
                "nodeType": 0
            },
            "12": {
                "event": {
                    "contract": "0x1d6bd2e156b52ec2e013c855e446e18df2f6e8d7",
                    "decodedLog": {
                        "name": "Sync",
                        "params": [
                            {
                                "name": "reserve0",
                                "type": "uint112",
                                "value": "17,449,667,580,267,260"
                            },
                            {
                                "name": "reserve1",
                                "type": "uint112",
                                "value": "5,679,414,620,065,678,074"
                            }
                        ],
                        "signature": "Sync(uint112,uint112)"
                    },
                    "id": 12,
                    "logData": "0x000000000000000000000000000000000000000000000000003dfe6155920afc0000000000000000000000000000000000000000000000004ed15581912cc2fa",
                    "logDecoded": true,
                    "operation": "EVENT",
                    "revert": false,
                    "status": true,
                    "topics": [
                        "0x1c411e9a96e071241c2f21f7726b17ae89e3cab4c78be50e062b03a9fffbbad1"
                    ]
                },
                "nodeType": 1
            },
            "13": {
                "event": {
                    "contract": "0x1d6bd2e156b52ec2e013c855e446e18df2f6e8d7",
                    "decodedLog": {
                        "name": "Swap",
                        "params": [
                            {
                                "name": "sender",
                                "type": "address",
                                "value": "0x80a64c6d7f12c47b7c66c5b4e20e72bc1fcd5d9e"
                            },
                            {
                                "name": "to",
                                "type": "address",
                                "value": "0x80a64c6d7f12c47b7c66c5b4e20e72bc1fcd5d9e"
                            },
                            {
                                "name": "amount0In",
                                "type": "uint256",
                                "value": "499,999,999,999,999"
                            },
                            {
                                "name": "amount1In",
                                "type": "uint256",
                                "value": "0"
                            },
                            {
                                "name": "amount0Out",
                                "type": "uint256",
                                "value": "0"
                            },
                            {
                                "name": "amount1Out",
                                "type": "uint256",
                                "value": "167,035,027,365,303,226"
                            }
                        ],
                        "signature": "Swap(address,uint256,uint256,uint256,uint256,address)"
                    },
                    "id": 13,
                    "logData": "0x0000000000000000000000000000000000000000000000000001c6bf52633fff0000000000000000000000000000000000000000000000000000000000000000000000000000000000000000000000000000000000000000000000000000000000000000000000000000000000000000000000000000000002516d78ef2813ba",
                    "logDecoded": true,
                    "operation": "EVENT",
                    "revert": false,
                    "status": true,
                    "topics": [
                        "0xd78ad95fa46c994b6551d0da85fc275fe613ce37657fb8d5e3d130840159d822",
                        "0x00000000000000000000000080a64c6d7f12c47b7c66c5b4e20e72bc1fcd5d9e",
                        "0x00000000000000000000000080a64c6d7f12c47b7c66c5b4e20e72bc1fcd5d9e"
                    ]
                },
                "nodeType": 1
            },
            "14": {
                "invocation": {
                    "address": "0xc02aaa39b223fe8d0a0e5c4f27ead9083c756cc2",
                    "callData": "0x00000000000000000000000080a64c6d7f12c47b7c66c5b4e20e72bc1fcd5d9e",
                    "decodedMethod": {
                        "callParams": [
                            {
                                "name": "",
                                "type": "address",
                                "value": "0x80a64c6d7f12c47b7c66c5b4e20e72bc1fcd5d9e"
                            }
                        ],
                        "constructorArguments": "",
                        "name": "balanceOf",
                        "returnParams": [
                            {
                                "decimalAvailable": true,
                                "name": "",
                                "type": "uint256",
                                "value": "167,035,027,365,303,226"
                            }
                        ],
                        "signature": "balanceOf(address)"
                    },
                    "errorInfo": "",
                    "fromAddress": "0x80a64c6d7f12c47b7c66c5b4e20e72bc1fcd5d9e",
                    "gasUsed": 534,
                    "id": 14,
                    "methodDecoded": true,
                    "operation": "STATICCALL",
                    "output": "0x00000000000000000000000000000000000000000000000002516d78ef2813ba",
                    "revert": false,
                    "revertMessage": "",
                    "selector": "0x70a08231",
                    "status": true,
                    "value": "0"
                },
                "nodeType": 0
            },
            "15": {
                "invocation": {
                    "address": "0xc02aaa39b223fe8d0a0e5c4f27ead9083c756cc2",
                    "callData": "0x00000000000000000000000000000000000000000000000002516d78ef2813ba",
                    "decodedMethod": {
                        "callParams": [
                            {
                                "name": "wad",
                                "type": "uint256",
                                "value": "167,035,027,365,303,226"
                            }
                        ],
                        "constructorArguments": "",
                        "name": "withdraw",
                        "returnParams": [],
                        "signature": "withdraw(uint256)"
                    },
                    "errorInfo": "",
                    "fromAddress": "0x80a64c6d7f12c47b7c66c5b4e20e72bc1fcd5d9e",
                    "gasUsed": 9533,
                    "id": 15,
                    "methodDecoded": true,
                    "operation": "CALL",
                    "output": "",
                    "revert": false,
                    "revertMessage": "",
                    "selector": "0x2e1a7d4d",
                    "status": true,
                    "value": "0"
                },
                "nodeType": 0
            },
            "16": {
                "invocation": {
                    "address": "0x80a64c6d7f12c47b7c66c5b4e20e72bc1fcd5d9e",
                    "callData": "0x",
                    "decodedMethod": null,
                    "errorInfo": "",
                    "fromAddress": "0xc02aaa39b223fe8d0a0e5c4f27ead9083c756cc2",
                    "gasUsed": 393,
                    "id": 16,
                    "methodDecoded": false,
                    "operation": "CALL",
                    "output": "",
                    "revert": false,
                    "revertMessage": "",
                    "selector": "fallback",
                    "status": true,
                    "value": "0.167035027365303226"
                },
                "nodeType": 0
            },
            "17": {
                "invocation": {
                    "address": "0x46affe1b4f3fc41581fd20fbaf055daeab80a8b5",
                    "callData": "0x",
                    "decodedMethod": null,
                    "errorInfo": "",
                    "fromAddress": "0x80a64c6d7f12c47b7c66c5b4e20e72bc1fcd5d9e",
                    "gasUsed": 62,
                    "id": 17,
                    "methodDecoded": false,
                    "operation": "DELEGATECALL",
                    "output": "",
                    "revert": false,
                    "revertMessage": "",
                    "selector": "fallback",
                    "status": true,
                    "value": "0.167035027365303226"
                },
                "nodeType": 0
            },
            "18": {
                "event": {
                    "contract": "0xc02aaa39b223fe8d0a0e5c4f27ead9083c756cc2",
                    "decodedLog": {
                        "name": "Withdrawal",
                        "params": [
                            {
                                "name": "src",
                                "type": "address",
                                "value": "0x80a64c6d7f12c47b7c66c5b4e20e72bc1fcd5d9e"
                            },
                            {
                                "name": "wad",
                                "type": "uint256",
                                "value": "167,035,027,365,303,226"
                            }
                        ],
                        "signature": "Withdrawal(address,uint256)"
                    },
                    "id": 18,
                    "logData": "0x00000000000000000000000000000000000000000000000002516d78ef2813ba",
                    "logDecoded": true,
                    "operation": "EVENT",
                    "revert": false,
                    "status": true,
                    "topics": [
                        "0x7fcf532c15f0a6db0bd6d0e038bea71d30d808c7d98cb3bf7268a95bf5081b65",
                        "0x00000000000000000000000080a64c6d7f12c47b7c66c5b4e20e72bc1fcd5d9e"
                    ]
                },
                "nodeType": 1
            },
            "19": {
                "invocation": {
                    "address": "0x694d69bfefc77c3fd03115c776c021c4af057202",
                    "callData": "0x",
                    "decodedMethod": null,
                    "errorInfo": "",
                    "fromAddress": "0x80a64c6d7f12c47b7c66c5b4e20e72bc1fcd5d9e",
                    "gasUsed": 0,
                    "id": 19,
                    "methodDecoded": false,
                    "operation": "CALL",
                    "output": "",
                    "revert": false,
                    "revertMessage": "",
                    "selector": "fallback",
                    "status": true,
                    "value": "0.167035027365303226"
                },
                "nodeType": 0
            },
            "2": {
                "invocation": {
                    "address": "0x3c76ea51027ee2cf782ecfe5675fb4cded8c30b1",
                    "callData": "0x000000000000000000000000694d69bfefc77c3fd03115c776c021c4af0572020000000000000000000000001d6bd2e156b52ec2e013c855e446e18df2f6e8d70000000000000000000000000000000000000000000000000001c6bf52633fff",
                    "decodedMethod": {
                        "callParams": [
                            {
                                "name": "sender",
                                "type": "address",
                                "value": "0x694d69bfefc77c3fd03115c776c021c4af057202"
                            },
                            {
                                "name": "recipient",
                                "type": "address",
                                "value": "0x1d6bd2e156b52ec2e013c855e446e18df2f6e8d7"
                            },
                            {
                                "decimalAvailable": true,
                                "name": "amount",
                                "type": "uint256",
                                "value": "499,999,999,999,999"
                            }
                        ],
                        "constructorArguments": "",
                        "name": "transferFrom",
                        "returnParams": [
                            {
                                "name": "",
                                "type": "bool",
                                "value": true
                            }
                        ],
                        "signature": "transferFrom(address,address,uint256)"
                    },
                    "errorInfo": "",
                    "fromAddress": "0x80a64c6d7f12c47b7c66c5b4e20e72bc1fcd5d9e",
                    "gasUsed": 49644,
                    "id": 2,
                    "methodDecoded": true,
                    "operation": "CALL",
                    "output": "0x0000000000000000000000000000000000000000000000000000000000000001",
                    "revert": false,
                    "revertMessage": "",
                    "selector": "0x23b872dd",
                    "status": true,
                    "value": "0"
                },
                "nodeType": 0
            },
            "3": {
                "event": {
                    "contract": "0x3c76ea51027ee2cf782ecfe5675fb4cded8c30b1",
                    "decodedLog": {
                        "name": "Transfer",
                        "params": [
                            {
                                "name": "from",
                                "type": "address",
                                "value": "0x694d69bfefc77c3fd03115c776c021c4af057202"
                            },
                            {
                                "name": "to",
                                "type": "address",
                                "value": "0x1d6bd2e156b52ec2e013c855e446e18df2f6e8d7"
                            },
                            {
                                "decimalAvailable": true,
                                "name": "value",
                                "type": "uint256",
                                "value": "499,999,999,999,999"
                            }
                        ],
                        "signature": "Transfer(address,address,uint256)"
                    },
                    "id": 3,
                    "logData": "0x0000000000000000000000000000000000000000000000000001c6bf52633fff",
                    "logDecoded": true,
                    "operation": "EVENT",
                    "revert": false,
                    "status": true,
                    "topics": [
                        "0xddf252ad1be2c89b69c2b068fc378daa952ba7f163c4a11628f55a4df523b3ef",
                        "0x000000000000000000000000694d69bfefc77c3fd03115c776c021c4af057202",
                        "0x0000000000000000000000001d6bd2e156b52ec2e013c855e446e18df2f6e8d7"
                    ]
                },
                "nodeType": 1
            },
            "4": {
                "event": {
                    "contract": "0x3c76ea51027ee2cf782ecfe5675fb4cded8c30b1",
                    "decodedLog": {
                        "name": "Approval",
                        "params": [
                            {
                                "name": "owner",
                                "type": "address",
                                "value": "0x694d69bfefc77c3fd03115c776c021c4af057202"
                            },
                            {
                                "name": "spender",
                                "type": "address",
                                "value": "0x80a64c6d7f12c47b7c66c5b4e20e72bc1fcd5d9e"
                            },
                            {
                                "decimalAvailable": true,
                                "name": "value",
                                "type": "uint256",
                                "value": "115,792,089,237,316,195,423,570,985,008,687,907,853,269,984,665,640,564,039,457,583,007,913,129,639,936"
                            }
                        ],
                        "signature": "Approval(address,address,uint256)"
                    },
                    "id": 4,
                    "logData": "0xfffffffffffffffffffffffffffffffffffffffffffffffffffc72815b398000",
                    "logDecoded": true,
                    "operation": "EVENT",
                    "revert": false,
                    "status": true,
                    "topics": [
                        "0x8c5be1e5ebec7d5bd14f71427d1e84f3dd0314c0f7b2291e5b200ac8c7c3b925",
                        "0x000000000000000000000000694d69bfefc77c3fd03115c776c021c4af057202",
                        "0x00000000000000000000000080a64c6d7f12c47b7c66c5b4e20e72bc1fcd5d9e"
                    ]
                },
                "nodeType": 1
            },
            "5": {
                "invocation": {
                    "address": "0x1d6bd2e156b52ec2e013c855e446e18df2f6e8d7",
                    "callData": "0x",
                    "decodedMethod": {
                        "callParams": [],
                        "constructorArguments": "",
                        "name": "getReserves",
                        "returnParams": [
                            {
                                "name": "_reserve0",
                                "type": "uint112",
                                "value": "16,949,667,580,267,261"
                            },
                            {
                                "name": "_reserve1",
                                "type": "uint112",
                                "value": "5,846,449,647,430,981,300"
                            },
                            {
                                "name": "_blockTimestampLast",
                                "type": "uint32",
                                "value": "1,716,489,503"
                            }
                        ],
                        "signature": "getReserves()"
                    },
                    "errorInfo": "",
                    "fromAddress": "0x80a64c6d7f12c47b7c66c5b4e20e72bc1fcd5d9e",
                    "gasUsed": 2504,
                    "id": 5,
                    "methodDecoded": true,
                    "operation": "STATICCALL",
                    "output": "0x000000000000000000000000000000000000000000000000003c37a2032ecafd0000000000000000000000000000000000000000000000005122c2fa8054d6b400000000000000000000000000000000000000000000000000000000664f8d1f",
                    "revert": false,
                    "revertMessage": "",
                    "selector": "0x0902f1ac",
                    "status": true,
                    "value": "0"
                },
                "nodeType": 0
            },
            "6": {
                "invocation": {
                    "address": "0x3c76ea51027ee2cf782ecfe5675fb4cded8c30b1",
                    "callData": "0x0000000000000000000000001d6bd2e156b52ec2e013c855e446e18df2f6e8d7",
                    "decodedMethod": {
                        "callParams": [
                            {
                                "name": "account",
                                "type": "address",
                                "value": "0x1d6bd2e156b52ec2e013c855e446e18df2f6e8d7"
                            }
                        ],
                        "constructorArguments": "",
                        "name": "balanceOf",
                        "returnParams": [
                            {
                                "decimalAvailable": true,
                                "name": "",
                                "type": "uint256",
                                "value": "17,449,667,580,267,260"
                            }
                        ],
                        "signature": "balanceOf(address)"
                    },
                    "errorInfo": "",
                    "fromAddress": "0x80a64c6d7f12c47b7c66c5b4e20e72bc1fcd5d9e",
                    "gasUsed": 918,
                    "id": 6,
                    "methodDecoded": true,
                    "operation": "STATICCALL",
                    "output": "0x000000000000000000000000000000000000000000000000003dfe6155920afc",
                    "revert": false,
                    "revertMessage": "",
                    "selector": "0x70a08231",
                    "status": true,
                    "value": "0"
                },
                "nodeType": 0
            },
            "7": {
                "invocation": {
                    "address": "0x1d6bd2e156b52ec2e013c855e446e18df2f6e8d7",
                    "callData": "0x000000000000000000000000000000000000000000000000000000000000000000000000000000000000000000000000000000000000000002516d78ef2813ba00000000000000000000000080a64c6d7f12c47b7c66c5b4e20e72bc1fcd5d9e00000000000000000000000000000000000000000000000000000000000000800000000000000000000000000000000000000000000000000000000000000000",
                    "decodedMethod": {
                        "callParams": [
                            {
                                "name": "amount0Out",
                                "type": "uint256",
                                "value": "0"
                            },
                            {
                                "name": "amount1Out",
                                "type": "uint256",
                                "value": "167,035,027,365,303,226"
                            },
                            {
                                "name": "to",
                                "type": "address",
                                "value": "0x80a64c6d7f12c47b7c66c5b4e20e72bc1fcd5d9e"
                            },
                            {
                                "name": "data",
                                "type": "bytes",
                                "value": "0x"
                            }
                        ],
                        "constructorArguments": "",
                        "name": "swap",
                        "returnParams": [],
                        "signature": "swap(uint256,uint256,address,bytes)"
                    },
                    "errorInfo": "",
                    "fromAddress": "0x80a64c6d7f12c47b7c66c5b4e20e72bc1fcd5d9e",
                    "gasUsed": 54821,
                    "id": 7,
                    "methodDecoded": true,
                    "operation": "CALL",
                    "output": "",
                    "revert": false,
                    "revertMessage": "",
                    "selector": "0x022c0d9f",
                    "status": true,
                    "value": "0"
                },
                "nodeType": 0
            },
            "8": {
                "invocation": {
                    "address": "0xc02aaa39b223fe8d0a0e5c4f27ead9083c756cc2",
                    "callData": "0x00000000000000000000000080a64c6d7f12c47b7c66c5b4e20e72bc1fcd5d9e00000000000000000000000000000000000000000000000002516d78ef2813ba",
                    "decodedMethod": {
                        "callParams": [
                            {
                                "name": "dst",
                                "type": "address",
                                "value": "0x80a64c6d7f12c47b7c66c5b4e20e72bc1fcd5d9e"
                            },
                            {
                                "decimalAvailable": true,
                                "name": "wad",
                                "type": "uint256",
                                "value": "167,035,027,365,303,226"
                            }
                        ],
                        "constructorArguments": "",
                        "name": "transfer",
                        "returnParams": [
                            {
                                "name": "",
                                "type": "bool",
                                "value": true
                            }
                        ],
                        "signature": "transfer(address,uint256)"
                    },
                    "errorInfo": "",
                    "fromAddress": "0x1d6bd2e156b52ec2e013c855e446e18df2f6e8d7",
                    "gasUsed": 29962,
                    "id": 8,
                    "methodDecoded": true,
                    "operation": "CALL",
                    "output": "0x0000000000000000000000000000000000000000000000000000000000000001",
                    "revert": false,
                    "revertMessage": "",
                    "selector": "0xa9059cbb",
                    "status": true,
                    "value": "0"
                },
                "nodeType": 0
            },
            "9": {
                "event": {
                    "contract": "0xc02aaa39b223fe8d0a0e5c4f27ead9083c756cc2",
                    "decodedLog": {
                        "name": "Transfer",
                        "params": [
                            {
                                "name": "src",
                                "type": "address",
                                "value": "0x1d6bd2e156b52ec2e013c855e446e18df2f6e8d7"
                            },
                            {
                                "name": "dst",
                                "type": "address",
                                "value": "0x80a64c6d7f12c47b7c66c5b4e20e72bc1fcd5d9e"
                            },
                            {
                                "decimalAvailable": true,
                                "name": "wad",
                                "type": "uint256",
                                "value": "167,035,027,365,303,226"
                            }
                        ],
                        "signature": "Transfer(address,address,uint256)"
                    },
                    "id": 9,
                    "logData": "0x00000000000000000000000000000000000000000000000002516d78ef2813ba",
                    "logDecoded": true,
                    "operation": "EVENT",
                    "revert": false,
                    "status": true,
                    "topics": [
                        "0xddf252ad1be2c89b69c2b068fc378daa952ba7f163c4a11628f55a4df523b3ef",
                        "0x0000000000000000000000001d6bd2e156b52ec2e013c855e446e18df2f6e8d7",
                        "0x00000000000000000000000080a64c6d7f12c47b7c66c5b4e20e72bc1fcd5d9e"
                    ]
                },
                "nodeType": 1
            }
        },
        "gasFlame": [
            {
                "children": [
                    {
                        "children": [
                            {
                                "children": [],
                                "depth": 0,
                                "name": "Initial Gas",
                                "value": 23332
                            },
                            {
                                "children": [
                                    {
                                        "children": [
                                            {
                                                "children": [],
                                                "depth": 2,
                                                "name": "transferFrom",
                                                "value": 49644
                                            },
                                            {
                                                "children": [],
                                                "depth": 2,
                                                "name": "getReserves",
                                                "value": 2504
                                            },
                                            {
                                                "children": [],
                                                "depth": 2,
                                                "name": "balanceOf",
                                                "value": 918
                                            },
                                            {
                                                "children": [
                                                    {
                                                        "children": [],
                                                        "depth": 3,
                                                        "name": "transfer",
                                                        "value": 29962
                                                    },
                                                    {
                                                        "children": [],
                                                        "depth": 3,
                                                        "name": "balanceOf",
                                                        "value": 918
                                                    },
                                                    {
                                                        "children": [],
                                                        "depth": 3,
                                                        "name": "balanceOf",
                                                        "value": 534
                                                    }
                                                ],
                                                "depth": 2,
                                                "name": "swap",
                                                "value": 54821
                                            },
                                            {
                                                "children": [],
                                                "depth": 2,
                                                "name": "balanceOf",
                                                "value": 534
                                            },
                                            {
                                                "children": [
                                                    {
                                                        "children": [
                                                            {
                                                                "children": [],
                                                                "depth": 4,
                                                                "name": "fallback",
                                                                "value": 62
                                                            }
                                                        ],
                                                        "depth": 3,
                                                        "name": "fallback",
                                                        "value": 393
                                                    }
                                                ],
                                                "depth": 2,
                                                "name": "withdraw",
                                                "value": 9533
                                            },
                                            {
                                                "children": [],
                                                "depth": 2,
                                                "name": "fallback",
                                                "value": 0
                                            }
                                        ],
                                        "depth": 1,
                                        "name": "swapExactTokensForETHSupportingFeeOnTransferTokens",
                                        "value": 144037
                                    }
                                ],
                                "depth": 0,
                                "name": "Executed Gas",
                                "value": 148919
                            }
                        ],
                        "depth": -1,
                        "name": "Actual Gas Used",
                        "value": 149551
                    },
                    {
                        "children": [],
                        "depth": -1,
                        "name": "Refunded Gas",
                        "value": 22700
                    }
                ],
                "depth": -2,
                "name": "Total Gas",
                "value": 172251
            }
        ],
        "isConfirmed": true,
        "mainTrace": [
            {
                "children": [
                    {
                        "children": [
                            {
                                "children": [
                                    {
                                        "children": [
                                            {
                                                "children": [],
                                                "depth": 3,
                                                "id": 3,
                                                "order": 3
                                            },
                                            {
                                                "children": [],
                                                "depth": 3,
                                                "id": 4,
                                                "order": 4
                                            }
                                        ],
                                        "depth": 2,
                                        "id": 2,
                                        "order": 2
                                    },
                                    {
                                        "children": [],
                                        "depth": 2,
                                        "id": 5,
                                        "order": 5
                                    },
                                    {
                                        "children": [],
                                        "depth": 2,
                                        "id": 6,
                                        "order": 6
                                    },
                                    {
                                        "children": [
                                            {
                                                "children": [
                                                    {
                                                        "children": [],
                                                        "depth": 4,
                                                        "id": 9,
                                                        "order": 9
                                                    }
                                                ],
                                                "depth": 3,
                                                "id": 8,
                                                "order": 8
                                            },
                                            {
                                                "children": [],
                                                "depth": 3,
                                                "id": 10,
                                                "order": 10
                                            },
                                            {
                                                "children": [],
                                                "depth": 3,
                                                "id": 11,
                                                "order": 11
                                            },
                                            {
                                                "children": [],
                                                "depth": 3,
                                                "id": 12,
                                                "order": 12
                                            },
                                            {
                                                "children": [],
                                                "depth": 3,
                                                "id": 13,
                                                "order": 13
                                            }
                                        ],
                                        "depth": 2,
                                        "id": 7,
                                        "order": 7
                                    },
                                    {
                                        "children": [],
                                        "depth": 2,
                                        "id": 14,
                                        "order": 14
                                    },
                                    {
                                        "children": [
                                            {
                                                "children": [
                                                    {
                                                        "children": [],
                                                        "depth": 4,
                                                        "id": 17,
                                                        "order": 17
                                                    }
                                                ],
                                                "depth": 3,
                                                "id": 16,
                                                "order": 16
                                            },
                                            {
                                                "children": [],
                                                "depth": 3,
                                                "id": 18,
                                                "order": 18
                                            }
                                        ],
                                        "depth": 2,
                                        "id": 15,
                                        "order": 15
                                    },
                                    {
                                        "children": [],
                                        "depth": 2,
                                        "id": 19,
                                        "order": 19
                                    }
                                ],
                                "depth": 1,
                                "id": 1,
                                "order": 1
                            }
                        ],
                        "depth": 0,
                        "id": 0,
                        "order": 0
                    }
                ],
                "depth": -1,
                "id": -1,
                "order": -1
            }
        ],
        "mainTraceNodeCount": 20,
        "parentIdMap": {
            "0": -1,
            "1": 0,
            "10": 7,
            "11": 7,
            "12": 7,
            "13": 7,
            "14": 1,
            "15": 1,
            "16": 15,
            "17": 16,
            "18": 15,
            "19": 1,
            "2": 1,
            "3": 2,
            "4": 2,
            "5": 1,
            "6": 1,
            "7": 1,
            "8": 7,
            "9": 8
        },
        "tidyTrace": [
            {
                "children": [
                    {
                        "children": [
                            {
                                "children": [
                                    {
                                        "children": [
                                            {
                                                "children": [],
                                                "depth": 3,
                                                "id": 3,
                                                "order": 3
                                            },
                                            {
                                                "children": [],
                                                "depth": 3,
                                                "id": 4,
                                                "order": 4
                                            }
                                        ],
                                        "depth": 2,
                                        "id": 2,
                                        "order": 2
                                    },
                                    {
                                        "children": [
                                            {
                                                "children": [
                                                    {
                                                        "children": [],
                                                        "depth": 4,
                                                        "id": 9,
                                                        "order": 9
                                                    }
                                                ],
                                                "depth": 3,
                                                "id": 8,
                                                "order": 8
                                            },
                                            {
                                                "children": [],
                                                "depth": 3,
                                                "id": 12,
                                                "order": 12
                                            },
                                            {
                                                "children": [],
                                                "depth": 3,
                                                "id": 13,
                                                "order": 13
                                            }
                                        ],
                                        "depth": 2,
                                        "id": 7,
                                        "order": 7
                                    },
                                    {
                                        "children": [
                                            {
                                                "children": [
                                                    {
                                                        "children": [],
                                                        "depth": 4,
                                                        "id": 17,
                                                        "order": 17
                                                    }
                                                ],
                                                "depth": 3,
                                                "id": 16,
                                                "order": 16
                                            },
                                            {
                                                "children": [],
                                                "depth": 3,
                                                "id": 18,
                                                "order": 18
                                            }
                                        ],
                                        "depth": 2,
                                        "id": 15,
                                        "order": 15
                                    },
                                    {
                                        "children": [],
                                        "depth": 2,
                                        "id": 19,
                                        "order": 19
                                    }
                                ],
                                "depth": 1,
                                "id": 1,
                                "order": 1
                            }
                        ],
                        "depth": 0,
                        "id": 0,
                        "order": 0
                    }
                ],
                "depth": -1,
                "id": -1,
                "order": -1
            }
        ],
        "tidyTraceNodeCount": 15
    },
    "state_change": {
        "stateChanges": [
            {
                "address": "0x1d6bd2e156b52ec2e013c855e446e18df2f6e8d7",
                "erc": "ERC-20",
                "slots": [
                    {
                        "current": "0x664f8d1f0000000000004ed15581912cc2fa000000000000003dfe6155920afc",
                        "key": "0x0000000000000000000000000000000000000000000000000000000000000008",
                        "prev": "0x664f8d1f0000000000005122c2fa8054d6b4000000000000003c37a2032ecafd"
                    }
                ],
                "storageVariables": [
                    {
                        "name": "reserve0",
                        "type": "uint112",
                        "value": {
                            "current": "17449667580267260",
                            "prev": "16949667580267261",
                            "typeTag": 1
                        }
                    },
                    {
                        "name": "reserve1",
                        "type": "uint112",
                        "value": {
                            "current": "5679414620065678074",
                            "prev": "5846449647430981300",
                            "typeTag": 1
                        }
                    },
                    {
                        "name": "blockTimestampLast",
                        "type": "uint32",
                        "value": {
                            "current": "1716489503",
                            "prev": "1716489503",
                            "typeTag": 1
                        }
                    }
                ]
            },
            {
                "address": "0x3c76ea51027ee2cf782ecfe5675fb4cded8c30b1",
                "erc": "ERC-20",
                "slots": [
                    {
                        "current": "0xfffffffffffffffffffffffffffffffffffffffffffffffffffc72815b398000",
                        "key": "0x52b3ba3188f2250dea3df2c6bf2d5b865b15241eb88587cafc23de220de74e31",
                        "prev": "0xfffffffffffffffffffffffffffffffffffffffffffffffffffe3940ad9cbfff"
                    },
                    {
                        "current": "0x0000000000000000000000000000000000000000000000000000000000000001",
                        "key": "0x580d6614aa7eed5913a961a453485bc567c4c8e05c37c614da8bf55e0c146814",
                        "prev": "0x0000000000000000000000000000000000000000000000000001c6bf52634000"
                    },
                    {
                        "current": "0x000000000000000000000000000000000000000000000000003dfe6155920afc",
                        "key": "0x116e8d8d507958400fe1d853451f492e5490e375dac462a130caf13d0f50e14d",
                        "prev": "0x000000000000000000000000000000000000000000000000003c37a2032ecafd"
                    }
                ],
                "storageVariables": [
                    {
                        "name": "_balances",
                        "type": "mapping(address => uint256)",
                        "value": {
                            "pairs": [
                                {
                                    "key": "0x1d6bd2e156b52ec2e013c855e446e18df2f6e8d7",
                                    "value": {
                                        "current": "17449667580267260",
                                        "prev": "16949667580267261",
                                        "typeTag": 1
                                    }
                                },
                                {
                                    "key": "0x694d69bfefc77c3fd03115c776c021c4af057202",
                                    "value": {
                                        "current": "1",
                                        "prev": "500000000000000",
                                        "typeTag": 1
                                    }
                                }
                            ],
                            "typeTag": 4
                        }
                    },
                    {
                        "name": "_allowances",
                        "type": "mapping(address => mapping(address => uint256))",
                        "value": {
                            "pairs": [
                                {
                                    "key": "0x694d69bfefc77c3fd03115c776c021c4af057202",
                                    "value": {
                                        "pairs": [
                                            {
                                                "key": "0x80a64c6d7f12c47b7c66c5b4e20e72bc1fcd5d9e",
                                                "value": {
                                                    "current": "115792089237316195423570985008687907853269984665640564039457583007913129639936",
                                                    "prev": "115792089237316195423570985008687907853269984665640564039457583507913129639935",
                                                    "typeTag": 1
                                                }
                                            }
                                        ],
                                        "typeTag": 4
                                    }
                                }
                            ],
                            "typeTag": 4
                        }
                    }
                ]
            },
            {
                "address": "0xc02aaa39b223fe8d0a0e5c4f27ead9083c756cc2",
                "erc": "ERC-20",
                "slots": [
                    {
                        "current": "0x0000000000000000000000000000000000000000000000004ed15581912cc2fa",
                        "key": "0x4b1aa1ce1ea77aea52d24e23fd01b76cf00320dfa81dd4e09118e4132bc16f0a",
                        "prev": "0x0000000000000000000000000000000000000000000000005122c2fa8054d6b4"
                    }
                ],
                "storageVariables": [
                    {
                        "name": "balanceOf",
                        "type": "mapping(address => uint256)",
                        "value": {
                            "pairs": [
                                {
                                    "key": "0x1d6bd2e156b52ec2e013c855e446e18df2f6e8d7",
                                    "value": {
                                        "current": "5679414620065678074",
                                        "prev": "5846449647430981300",
                                        "typeTag": 1
                                    }
                                }
                            ],
                            "typeTag": 4
                        }
                    }
                ]
            }
        ]
    }
}