{
    "balance_change": {
        "balanceChanges": [
            {
                "account": "0x766f90177e7002392b9a91bdc06244d0290dae25",
                "assets": [
                    {
                        "address": "0x03dde9e5bb31ee40a471476e2fccf75c67921062",
                        "amount": "7,493.495",
                        "iconUrl": "",
                        "isERC1155": false,
                        "isERC721": false,
                        "sign": false,
                        "value": ""
                    }
                ]
            },
            {
                "account": "0xf2067abfab8bc621211935431519d41825d2f344",
                "assets": [
                    {
                        "address": "0x03dde9e5bb31ee40a471476e2fccf75c67921062",
                        "amount": "7,493.495",
                        "iconUrl": "",
                        "isERC1155": false,
                        "isERC721": false,
                        "sign": true,
                        "value": ""
                    }
                ]
            }
        ]
    },
    "profile": {
        "basic_info": {
            "baseFee": "18.596021488",
            "blockNumber": 17676467,
            "callData": "0xa9059cbb000000000000000000000000f2067abfab8bc621211935431519d41825d2f344000000000000000000000000000000000000000000000196392230430dc58000",
            "debugEnable": true,
            "errorInfo": "",
            "eventCount": 1,
            "feeRecipient": "0x690b9a9e9aa1c9db991c7721a92d351db4fac990",
            "formatValue": "0",
            "gasLimit": 120000,
            "gasPrice": "25.2",
            "gasUsed": 44226,
            "intTxnCount": 1,
            "internalRevert": false,
            "internalRevertMessage": "",
            "isContractCreation": false,
            "isFlashloan": false,
            "maxFee": "25.2",
            "nonce": 55,
            "overwritedBlockNumber": -1,
            "priorityFee": "25.2",
            "receiver": "0x03dde9e5bb31ee40a471476e2fccf75c67921062",
            "revertMessage": "",
            "sender": "0x766f90177e7002392b9a91bdc06244d0290dae25",
            "simulationEnable": true,
            "sourceTxnHash": "0xd48ca5a73b37711ad6e448d4ecbd2985da191df411bdd7b66051e93e83b6f0ff",
            "status": true,
            "timestamp": "2023-07-12T09:03:35Z",
            "transactionFee": "0.0011144952",
            "txnHash": "0xd48ca5a73b37711ad6e448d4ecbd2985da191df411bdd7b66051e93e83b6f0ff",
            "txnIndex": 14,
            "type": 2,
            "value": "0"
        },
        "fund_flow": [
            {
                "amount": "7,493.495",
                "from": "0x766f90177e7002392b9a91bdc06244d0290dae25",
                "id": 1,
                "isERC1155": false,
                "isERC721": false,
                "isReverted": false,
                "order": 1,
                "to": "0xf2067abfab8bc621211935431519d41825d2f344",
                "token": "0x03dde9e5bb31ee40a471476e2fccf75c67921062"
            }
        ],
        "token_infos": [
            {
                "address": "0x03dde9e5bb31ee40a471476e2fccf75c67921062",
                "decimals": 18
            },
            {
                "address": "0xc02aaa39b223fe8d0a0e5c4f27ead9083c756cc2",
                "decimals": 18
            },
            {
                "address": "0xeeeeeeeeeeeeeeeeeeeeeeeeeeeeeeeeeeeeeeee",
                "decimals": 18
            }
        ]
    },
    "address_label": {
        "labels": [
            {
                "address": "0x0000000000000000000000000000000000000004",
                "label": "Precompiled"
            },
            {
                "address": "0xeeeeeeeeeeeeeeeeeeeeeeeeeeeeeeeeeeeeeeee",
                "label": "Ether"
            },
            {
                "address": "0xf2067abfab8bc621211935431519d41825d2f344",
                "label": "Coinstore 3"
            },
            {
                "address": "0x03dde9e5bb31ee40a471476e2fccf75c67921062",
                "label": "EMLprotocol: EML Token"
            },
            {
                "address": "0x61985f8d774d15f53fa62aa733db49fa8457f982",
                "label": "TokenImplementation"
            },
            {
                "address": "0x0000000000000000000000000000000000000001",
                "label": "Precompiled"
            },
            {
                "address": "0x0000000000000000000000000000000000000002",
                "label": "Precompiled"
            },
            {
                "address": "0x0000000000000000000000000000000000000003",
                "label": "Precompiled"
            }
        ]
    },
    "trace": {
        "accountLabels": null,
        "dataMap": {
            "-1": {
                "invocation": {
                    "address": "0x766f90177e7002392b9a91bdc06244d0290dae25",
                    "callData": "",
                    "decodedMethod": null,
                    "errorInfo": "",
                    "fromAddress": "",
                    "gasUsed": 0,
                    "id": -1,
                    "methodDecoded": false,
                    "operation": "",
                    "output": "",
                    "revert": false,
                    "revertMessage": "",
                    "selector": "",
                    "status": false,
                    "value": ""
                },
                "nodeType": 0
            },
            "0": {
                "invocation": {
                    "address": "0x03dde9e5bb31ee40a471476e2fccf75c67921062",
                    "callData": "0x000000000000000000000000f2067abfab8bc621211935431519d41825d2f344000000000000000000000000000000000000000000000196392230430dc58000",
                    "decodedMethod": {
                        "callParams": [
                            {
                                "name": "to",
                                "type": "address",
                                "value": "0xf2067abfab8bc621211935431519d41825d2f344"
                            },
                            {
                                "decimalAvailable": true,
                                "name": "amount",
                                "type": "uint256",
                                "value": "7,493,495,000,000,000,000,000"
                            }
                        ],
                        "constructorArguments": "",
                        "name": "transfer",
                        "returnParams": [
                            {
                                "name": "",
                                "type": "bool",
                                "value": true
                            }
                        ],
                        "signature": "transfer(address,uint256)"
                    },
                    "errorInfo": "",
                    "fromAddress": "0x766f90177e7002392b9a91bdc06244d0290dae25",
                    "gasUsed": 44226,
                    "id": 0,
                    "methodDecoded": true,
                    "operation": "CALL",
                    "output": "0x0000000000000000000000000000000000000000000000000000000000000001",
                    "revert": false,
                    "revertMessage": "",
                    "selector": "0xa9059cbb",
                    "status": true,
                    "value": "0"
                },
                "nodeType": 0
            },
            "1": {
                "invocation": {
                    "address": "0x61985f8d774d15f53fa62aa733db49fa8457f982",
                    "callData": "0x000000000000000000000000f2067abfab8bc621211935431519d41825d2f344000000000000000000000000000000000000000000000196392230430dc58000",
                    "decodedMethod": {
                        "callParams": [
                            {
                                "name": "to",
                                "type": "address",
                                "value": "0xf2067abfab8bc621211935431519d41825d2f344"
                            },
                            {
                                "decimalAvailable": true,
                                "name": "amount",
                                "type": "uint256",
                                "value": "7,493,495,000,000,000,000,000"
                            }
                        ],
                        "constructorArguments": "",
                        "name": "transfer",
                        "returnParams": [
                            {
                                "name": "",
                                "type": "bool",
                                "value": true
                            }
                        ],
                        "signature": "transfer(address,uint256)"
                    },
                    "errorInfo": "",
                    "fromAddress": "0x03dde9e5bb31ee40a471476e2fccf75c67921062",
                    "gasUsed": 24680,
                    "id": 1,
                    "methodDecoded": true,
                    "operation": "DELEGATECALL",
                    "output": "0x0000000000000000000000000000000000000000000000000000000000000001",
                    "revert": false,
                    "revertMessage": "",
                    "selector": "0xa9059cbb",
                    "status": true,
                    "value": "0"
                },
                "nodeType": 0
            },
            "2": {
                "event": {
                    "contract": "0x03dde9e5bb31ee40a471476e2fccf75c67921062",
                    "decodedLog": {
                        "name": "Transfer",
                        "params": [
                            {
                                "name": "from",
                                "type": "address",
                                "value": "0x766f90177e7002392b9a91bdc06244d0290dae25"
                            },
                            {
                                "name": "to",
                                "type": "address",
                                "value": "0xf2067abfab8bc621211935431519d41825d2f344"
                            },
                            {
                                "decimalAvailable": true,
                                "name": "value",
                                "type": "uint256",
                                "value": "7,493,495,000,000,000,000,000"
                            }
                        ],
                        "signature": "Transfer(address,address,uint256)"
                    },
                    "id": 2,
                    "logData": "0x000000000000000000000000000000000000000000000196392230430dc58000",
                    "logDecoded": true,
                    "operation": "EVENT",
                    "revert": false,
                    "status": true,
                    "topics": [
                        "0xddf252ad1be2c89b69c2b068fc378daa952ba7f163c4a11628f55a4df523b3ef",
                        "0x000000000000000000000000766f90177e7002392b9a91bdc06244d0290dae25",
                        "0x000000000000000000000000f2067abfab8bc621211935431519d41825d2f344"
                    ]
                },
                "nodeType": 1
            }
        },
        "gasFlame": [
            {
                "children": [
                    {
                        "children": [
                            {
                                "children": [],
                                "depth": 0,
                                "name": "Initial Gas",
                                "value": 21668
                            },
                            {
                                "children": [
                                    {
                                        "children": [],
                                        "depth": 1,
                                        "name": "transfer",
                                        "value": 24680
                                    }
                                ],
                                "depth": 0,
                                "name": "Executed Gas",
                                "value": 27358
                            }
                        ],
                        "depth": -1,
                        "name": "Actual Gas Used",
                        "value": 44226
                    },
                    {
                        "children": [],
                        "depth": -1,
                        "name": "Refunded Gas",
                        "value": 4800
                    }
                ],
                "depth": -2,
                "name": "Total Gas",
                "value": 49026
            }
        ],
        "isConfirmed": true,
        "mainTrace": [
            {
                "children": [
                    {
                        "children": [
                            {
                                "children": [
                                    {
                                        "children": [],
                                        "depth": 2,
                                        "id": 2,
                                        "order": 2
                                    }
                                ],
                                "depth": 1,
                                "id": 1,
                                "order": 1
                            }
                        ],
                        "depth": 0,
                        "id": 0,
                        "order": 0
                    }
                ],
                "depth": -1,
                "id": -1,
                "order": -1
            }
        ],
        "mainTraceNodeCount": 3,
        "parentIdMap": {
            "0": -1,
            "1": 0,
            "2": 1
        },
        "tidyTrace": [
            {
                "children": [
                    {
                        "children": [
                            {
                                "children": [
                                    {
                                        "children": [],
                                        "depth": 2,
                                        "id": 2,
                                        "order": 2
                                    }
                                ],
                                "depth": 1,
                                "id": 1,
                                "order": 1
                            }
                        ],
                        "depth": 0,
                        "id": 0,
                        "order": 0
                    }
                ],
                "depth": -1,
                "id": -1,
                "order": -1
            }
        ],
        "tidyTraceNodeCount": 3
    },
    "state_change": {
        "stateChanges": [
            {
                "address": "0x03dde9e5bb31ee40a471476e2fccf75c67921062",
                "erc": "ERC-20",
                "slots": [
                    {
                        "current": "0x0000000000000000000000000000000000000000000000000000000000000000",
                        "key": "0xa2d332131fdca474aa4d385f71e8a3bfc7cef7440f7a69186d12a87f415954ce",
                        "prev": "0x000000000000000000000000000000000000000000000196392230430dc58000"
                    },
                    {
                        "current": "0x00000000000000000000000000000000000000000001855593205ae068590000",
                        "key": "0x82620bfd20d37793296237d961ce479949d083bb65aa0f275674895026e81756",
                        "prev": "0x0000000000000000000000000000000000000000000183bf59fe2a9d5a938000"
                    }
                ],
                "storageVariables": [
                    {
                        "name": "_balances",
                        "type": "mapping(address => uint256)",
                        "value": {
                            "pairs": [
                                {
                                    "key": "0x766f90177e7002392b9a91bdc06244d0290dae25",
                                    "value": {
                                        "current": "0",
                                        "prev": "7493495000000000000000",
                                        "typeTag": 1
                                    }
                                },
                                {
                                    "key": "0xf2067abfab8bc621211935431519d41825d2f344",
                                    "value": {
                                        "current": "1838579136656000000000000",
                                        "prev": "1831085641656000000000000",
                                        "typeTag": 1
                                    }
                                }
                            ],
                            "typeTag": 4
                        }
                    }
                ]
            }
        ]
    }
}