{
    "balance_change": {
        "balanceChanges": [
            {
                "account": "0x89e51fa8ca5d66cd220baed62ed01e8951aa7c40",
                "assets": [
                    {
                        "address": "0xdac17f958d2ee523a2206206994597c13d831ec7",
                        "amount": "1,748,538",
                        "iconUrl": "https://assets.blocksec.com/icon/fcea71f3193ce895be44bfdf941f7e4c9381dd587f273c2d1a27f1263d84e4ea.png",
                        "isERC1155": false,
                        "isERC721": false,
                        "sign": false,
                        "value": "1747663.7310000000963"
                    }
                ]
            },
            {
                "account": "0xeae7380dd4cef6fbd1144f49e4d1e6964258a4f4",
                "assets": [
                    {
                        "address": "0xdac17f958d2ee523a2206206994597c13d831ec7",
                        "amount": "1,748,538",
                        "iconUrl": "https://assets.blocksec.com/icon/fcea71f3193ce895be44bfdf941f7e4c9381dd587f273c2d1a27f1263d84e4ea.png",
                        "isERC1155": false,
                        "isERC721": false,
                        "sign": true,
                        "value": "1747663.7310000000963"
                    }
                ]
            }
        ]
    },
    "profile": {
        "basic_info": {
            "baseFee": "7.277884014",
            "blockNumber": 20132244,
            "callData": "0xa9059cbb000000000000000000000000eae7380dd4cef6fbd1144f49e4d1e6964258a4f4000000000000000000000000000000000000000000000000000001971cfc8280",
            "debugEnable": true,
            "errorInfo": "",
            "eventCount": 1,
            "feeRecipient": "0x1d18ae45bdf6fd0c6aa06be8cdfbc7214b071ebd",
            "formatValue": "0",
            "gasLimit": 500000,
            "gasPrice": "9.277884014",
            "gasUsed": 46133,
            "intTxnCount": 0,
            "internalRevert": false,
            "internalRevertMessage": "",
            "isContractCreation": false,
            "isFlashloan": false,
            "maxFee": "30.299146299",
            "nonce": 2288751,
            "overwritedBlockNumber": -1,
            "priorityFee": "2",
            "receiver": "0xdac17f958d2ee523a2206206994597c13d831ec7",
            "revertMessage": "",
            "sender": "0x89e51fa8ca5d66cd220baed62ed01e8951aa7c40",
            "simulationEnable": true,
            "sourceTxnHash": "0xd4b674c3ca102bdccb4ca137dd13a74cd96026f49225a1ca191e27afd50aff5e",
            "status": true,
            "timestamp": "2024-06-20T10:08:35Z",
            "transactionFee": "0.000428016623217862",
            "txnHash": "0xd4b674c3ca102bdccb4ca137dd13a74cd96026f49225a1ca191e27afd50aff5e",
            "txnIndex": 44,
            "type": 2,
            "value": "0"
        },
        "fund_flow": [
            {
                "amount": "1,748,538",
                "from": "0x89e51fa8ca5d66cd220baed62ed01e8951aa7c40",
                "id": 1,
                "isERC1155": false,
                "isERC721": false,
                "isReverted": false,
                "order": 1,
                "to": "0xeae7380dd4cef6fbd1144f49e4d1e6964258a4f4",
                "token": "0xdac17f958d2ee523a2206206994597c13d831ec7"
            }
        ],
        "token_infos": [
            {
                "address": "0xc02aaa39b223fe8d0a0e5c4f27ead9083c756cc2",
                "decimals": 18
            },
            {
                "address": "0xdac17f958d2ee523a2206206994597c13d831ec7",
                "decimals": 6
            },
            {
                "address": "0xeeeeeeeeeeeeeeeeeeeeeeeeeeeeeeeeeeeeeeee",
                "decimals": 18
            }
        ]
    },
    "address_label": {
        "labels": [
            {
                "address": "0xeae7380dd4cef6fbd1144f49e4d1e6964258a4f4",
                "label": "BINANCE"
            },
            {
                "address": "0x89e51fa8ca5d66cd220baed62ed01e8951aa7c40",
                "label": "Kraken 7"
            },
            {
                "address": "0xdac17f958d2ee523a2206206994597c13d831ec7",
                "label": "Tether: USDT Stablecoin"
            },
            {
                "address": "0x0000000000000000000000000000000000000001",
                "label": "Precompiled"
            },
            {
                "address": "0x0000000000000000000000000000000000000002",
                "label": "Precompiled"
            },
            {
                "address": "0x0000000000000000000000000000000000000003",
                "label": "Precompiled"
            },
            {
                "address": "0x0000000000000000000000000000000000000004",
                "label": "Precompiled"
            },
            {
                "address": "0xeeeeeeeeeeeeeeeeeeeeeeeeeeeeeeeeeeeeeeee",
                "label": "Ether"
            }
        ]
    },
    "trace": {
        "accountLabels": null,
        "dataMap": {
            "-1": {
                "invocation": {
                    "address": "0x89e51fa8ca5d66cd220baed62ed01e8951aa7c40",
                    "callData": "",
                    "decodedMethod": null,
                    "errorInfo": "",
                    "fromAddress": "",
                    "gasUsed": 0,
                    "id": -1,
                    "methodDecoded": false,
                    "operation": "",
                    "output": "",
                    "revert": false,
                    "revertMessage": "",
                    "selector": "",
                    "status": false,
                    "value": ""
                },
                "nodeType": 0
            },
            "0": {
                "invocation": {
                    "address": "0xdac17f958d2ee523a2206206994597c13d831ec7",
                    "callData": "0x000000000000000000000000eae7380dd4cef6fbd1144f49e4d1e6964258a4f4000000000000000000000000000000000000000000000000000001971cfc8280",
                    "decodedMethod": {
                        "callParams": [
                            {
                                "name": "_to",
                                "type": "address",
                                "value": "0xeae7380dd4cef6fbd1144f49e4d1e6964258a4f4"
                            },
                            {
                                "decimalAvailable": true,
                                "name": "_value",
                                "type": "uint256",
                                "value": "1,748,538,000,000"
                            }
                        ],
                        "constructorArguments": "",
                        "name": "transfer",
                        "returnParams": [],
                        "signature": "transfer(address,uint256)"
                    },
                    "errorInfo": "",
                    "fromAddress": "0x89e51fa8ca5d66cd220baed62ed01e8951aa7c40",
                    "gasUsed": 46133,
                    "id": 0,
                    "methodDecoded": true,
                    "operation": "CALL",
                    "output": "",
                    "revert": false,
                    "revertMessage": "",
                    "selector": "0xa9059cbb",
                    "status": true,
                    "value": "0"
                },
                "nodeType": 0
            },
            "1": {
                "event": {
                    "contract": "0xdac17f958d2ee523a2206206994597c13d831ec7",
                    "decodedLog": {
                        "name": "Transfer",
                        "params": [
                            {
                                "name": "from",
                                "type": "address",
                                "value": "0x89e51fa8ca5d66cd220baed62ed01e8951aa7c40"
                            },
                            {
                                "name": "to",
                                "type": "address",
                                "value": "0xeae7380dd4cef6fbd1144f49e4d1e6964258a4f4"
                            },
                            {
                                "decimalAvailable": true,
                                "name": "value",
                                "type": "uint256",
                                "value": "1,748,538,000,000"
                            }
                        ],
                        "signature": "Transfer(address,address,uint256)"
                    },
                    "id": 1,
                    "logData": "0x000000000000000000000000000000000000000000000000000001971cfc8280",
                    "logDecoded": true,
                    "operation": "EVENT",
                    "revert": false,
                    "status": true,
                    "topics": [
                        "0xddf252ad1be2c89b69c2b068fc378daa952ba7f163c4a11628f55a4df523b3ef",
                        "0x00000000000000000000000089e51fa8ca5d66cd220baed62ed01e8951aa7c40",
                        "0x000000000000000000000000eae7380dd4cef6fbd1144f49e4d1e6964258a4f4"
                    ]
                },
                "nodeType": 1
            }
        },
        "gasFlame": [
            {
                "children": [
                    {
                        "children": [
                            {
                                "children": [],
                                "depth": 0,
                                "name": "Initial Gas",
                                "value": 21632
                            },
                            {
                                "children": [],
                                "depth": 0,
                                "name": "Executed Gas",
                                "value": 24501
                            }
                        ],
                        "depth": -1,
                        "name": "Actual Gas Used",
                        "value": 46133
                    },
                    {
                        "children": [],
                        "depth": -1,
                        "name": "Refunded Gas",
                        "value": 0
                    }
                ],
                "depth": -2,
                "name": "Total Gas",
                "value": 46133
            }
        ],
        "isConfirmed": true,
        "mainTrace": [
            {
                "children": [
                    {
                        "children": [
                            {
                                "children": [],
                                "depth": 1,
                                "id": 1,
                                "order": 1
                            }
                        ],
                        "depth": 0,
                        "id": 0,
                        "order": 0
                    }
                ],
                "depth": -1,
                "id": -1,
                "order": -1
            }
        ],
        "mainTraceNodeCount": 2,
        "parentIdMap": {
            "0": -1,
            "1": 0
        },
        "tidyTrace": [
            {
                "children": [
                    {
                        "children": [
                            {
                                "children": [],
                                "depth": 1,
                                "id": 1,
                                "order": 1
                            }
                        ],
                        "depth": 0,
                        "id": 0,
                        "order": 0
                    }
                ],
                "depth": -1,
                "id": -1,
                "order": -1
            }
        ],
        "tidyTraceNodeCount": 2
    },
    "state_change": {
        "stateChanges": [
            {
                "address": "0xdac17f958d2ee523a2206206994597c13d831ec7",
                "erc": "ERC-20",
                "slots": [
                    {
                        "current": "0x00000000000000000000000000000000000000000000000000010fedac6f7a08",
                        "key": "0xf94b05ba7d0a6aa6692eecf3cf30c6ca5d527c3e5fd03d7081ff14e4910ec033",
                        "prev": "0x00000000000000000000000000000000000000000000000000011184c96bfc88"
                    },
                    {
                        "current": "0x00000000000000000000000000000000000000000000000000001498c3966d40",
                        "key": "0x22bd6307f4084b530771b371cf022fb728245dffd6a828da8a73979e913aec10",
                        "prev": "0x00000000000000000000000000000000000000000000000000001301a699eac0"
                    }
                ],
                "storageVariables": [
                    {
                        "name": "balances",
                        "type": "mapping(address => uint256)",
                        "value": {
                            "pairs": [
                                {
                                    "key": "0x89e51fa8ca5d66cd220baed62ed01e8951aa7c40",
                                    "value": {
                                        "current": "298988451363336",
                                        "prev": "300736989363336",
                                        "typeTag": 1
                                    }
                                },
                                {
                                    "key": "0xeae7380dd4cef6fbd1144f49e4d1e6964258a4f4",
                                    "value": {
                                        "current": "22646349000000",
                                        "prev": "20897811000000",
                                        "typeTag": 1
                                    }
                                }
                            ],
                            "typeTag": 4
                        }
                    }
                ]
            }
        ]
    }
}