{
    "balance_change": {
        "balanceChanges": [
            {
                "account": "0xf4c6dd29dbc806325fa65da4be9503e000af4a9e",
                "assets": [
                    {
                        "address": "0x3506424f91fd33084466f402d5d97f05f8e3b4af",
                        "amount": "270,000",
                        "iconUrl": "https://assets.blocksec.com/icon/206fcc9fb6f1bc7fad1ab78e1cd3e44539d71743a172be83828afbe05b6ada6c.png",
                        "isERC1155": false,
                        "isERC721": false,
                        "sign": false,
                        "value": "139421.8249"
                    }
                ]
            },
            {
                "account": "0x7d9d6ee6f1c65ed911e7b6bf37b1dc1ebe0293f6",
                "assets": [
                    {
                        "address": "0x3506424f91fd33084466f402d5d97f05f8e3b4af",
                        "amount": "270,000",
                        "iconUrl": "https://assets.blocksec.com/icon/206fcc9fb6f1bc7fad1ab78e1cd3e44539d71743a172be83828afbe05b6ada6c.png",
                        "isERC1155": false,
                        "isERC721": false,
                        "sign": true,
                        "value": "139421.8249"
                    }
                ]
            }
        ]
    },
    "profile": {
        "basic_info": {
            "baseFee": "",
            "blockNumber": 12333691,
            "callData": "0xa9059cbb0000000000000000000000007d9d6ee6f1c65ed911e7b6bf37b1dc1ebe0293f600000000000000000000000000000000000000000000392cbab546b0ccc00000",
            "debugEnable": true,
            "errorInfo": "",
            "eventCount": 1,
            "feeRecipient": "0x1ad91ee08f21be3de0ba2ba6918e714da6b45836",
            "formatValue": "0",
            "gasLimit": 150000,
            "gasPrice": "99",
            "gasUsed": 37255,
            "intTxnCount": 0,
            "internalRevert": false,
            "internalRevertMessage": "",
            "isContractCreation": false,
            "isFlashloan": false,
            "maxFee": "",
            "nonce": 32,
            "overwritedBlockNumber": -1,
            "priorityFee": "",
            "receiver": "0x3506424f91fd33084466f402d5d97f05f8e3b4af",
            "revertMessage": "",
            "sender": "0xf4c6dd29dbc806325fa65da4be9503e000af4a9e",
            "simulationEnable": true,
            "sourceTxnHash": "0xd4e206a561053dffb7ceaf7b5cc7930cf96e53b53bcb5452523093bd9f3ec316",
            "status": true,
            "timestamp": "2021-04-29T06:16:07Z",
            "transactionFee": "0.003688245",
            "txnHash": "0xd4e206a561053dffb7ceaf7b5cc7930cf96e53b53bcb5452523093bd9f3ec316",
            "txnIndex": 7,
            "type": 0,
            "value": "0"
        },
        "fund_flow": [
            {
                "amount": "270,000",
                "from": "0xf4c6dd29dbc806325fa65da4be9503e000af4a9e",
                "id": 1,
                "isERC1155": false,
                "isERC721": false,
                "isReverted": false,
                "order": 1,
                "to": "0x7d9d6ee6f1c65ed911e7b6bf37b1dc1ebe0293f6",
                "token": "0x3506424f91fd33084466f402d5d97f05f8e3b4af"
            }
        ],
        "token_infos": [
            {
                "address": "0x3506424f91fd33084466f402d5d97f05f8e3b4af",
                "decimals": 18
            },
            {
                "address": "0xc02aaa39b223fe8d0a0e5c4f27ead9083c756cc2",
                "decimals": 18
            },
            {
                "address": "0xeeeeeeeeeeeeeeeeeeeeeeeeeeeeeeeeeeeeeeee",
                "decimals": 18
            }
        ]
    },
    "address_label": {
        "labels": [
            {
                "address": "0x0000000000000000000000000000000000000001",
                "label": "Precompiled"
            },
            {
                "address": "0x0000000000000000000000000000000000000002",
                "label": "Precompiled"
            },
            {
                "address": "0x0000000000000000000000000000000000000003",
                "label": "Precompiled"
            },
            {
                "address": "0x0000000000000000000000000000000000000004",
                "label": "Precompiled"
            },
            {
                "address": "0xeeeeeeeeeeeeeeeeeeeeeeeeeeeeeeeeeeeeeeee",
                "label": "Ether"
            },
            {
                "address": "0x7d9d6ee6f1c65ed911e7b6bf37b1dc1ebe0293f6",
                "label": "BINANCE"
            },
            {
                "address": "0x3506424f91fd33084466f402d5d97f05f8e3b4af",
                "label": "Chiliz: CHZ Token"
            }
        ]
    },
    "trace": {
        "accountLabels": null,
        "dataMap": {
            "-1": {
                "invocation": {
                    "address": "0xf4c6dd29dbc806325fa65da4be9503e000af4a9e",
                    "callData": "",
                    "decodedMethod": null,
                    "errorInfo": "",
                    "fromAddress": "",
                    "gasUsed": 0,
                    "id": -1,
                    "methodDecoded": false,
                    "operation": "",
                    "output": "",
                    "revert": false,
                    "revertMessage": "",
                    "selector": "",
                    "status": false,
                    "value": ""
                },
                "nodeType": 0
            },
            "0": {
                "invocation": {
                    "address": "0x3506424f91fd33084466f402d5d97f05f8e3b4af",
                    "callData": "0x0000000000000000000000007d9d6ee6f1c65ed911e7b6bf37b1dc1ebe0293f600000000000000000000000000000000000000000000392cbab546b0ccc00000",
                    "decodedMethod": {
                        "callParams": [
                            {
                                "name": "to",
                                "type": "address",
                                "value": "0x7d9d6ee6f1c65ed911e7b6bf37b1dc1ebe0293f6"
                            },
                            {
                                "decimalAvailable": true,
                                "name": "value",
                                "type": "uint256",
                                "value": "270,000,000,000,000,000,000,000"
                            }
                        ],
                        "constructorArguments": "",
                        "name": "transfer",
                        "returnParams": [
                            {
                                "name": "",
                                "type": "bool",
                                "value": true
                            }
                        ],
                        "signature": "transfer(address,uint256)"
                    },
                    "errorInfo": "",
                    "fromAddress": "0xf4c6dd29dbc806325fa65da4be9503e000af4a9e",
                    "gasUsed": 37255,
                    "id": 0,
                    "methodDecoded": true,
                    "operation": "CALL",
                    "output": "0x0000000000000000000000000000000000000000000000000000000000000001",
                    "revert": false,
                    "revertMessage": "",
                    "selector": "0xa9059cbb",
                    "status": true,
                    "value": "0"
                },
                "nodeType": 0
            },
            "1": {
                "event": {
                    "contract": "0x3506424f91fd33084466f402d5d97f05f8e3b4af",
                    "decodedLog": {
                        "name": "Transfer",
                        "params": [
                            {
                                "name": "from",
                                "type": "address",
                                "value": "0xf4c6dd29dbc806325fa65da4be9503e000af4a9e"
                            },
                            {
                                "name": "to",
                                "type": "address",
                                "value": "0x7d9d6ee6f1c65ed911e7b6bf37b1dc1ebe0293f6"
                            },
                            {
                                "decimalAvailable": true,
                                "name": "value",
                                "type": "uint256",
                                "value": "270,000,000,000,000,000,000,000"
                            }
                        ],
                        "signature": "Transfer(address,address,uint256)"
                    },
                    "id": 1,
                    "logData": "0x00000000000000000000000000000000000000000000392cbab546b0ccc00000",
                    "logDecoded": true,
                    "operation": "EVENT",
                    "revert": false,
                    "status": true,
                    "topics": [
                        "0xddf252ad1be2c89b69c2b068fc378daa952ba7f163c4a11628f55a4df523b3ef",
                        "0x000000000000000000000000f4c6dd29dbc806325fa65da4be9503e000af4a9e",
                        "0x0000000000000000000000007d9d6ee6f1c65ed911e7b6bf37b1dc1ebe0293f6"
                    ]
                },
                "nodeType": 1
            }
        },
        "gasFlame": [
            {
                "children": [
                    {
                        "children": [
                            {
                                "children": [],
                                "depth": 0,
                                "name": "Initial Gas",
                                "value": 21656
                            },
                            {
                                "children": [],
                                "depth": 0,
                                "name": "Executed Gas",
                                "value": 15599
                            }
                        ],
                        "depth": -1,
                        "name": "Actual Gas Used",
                        "value": 37255
                    },
                    {
                        "children": [],
                        "depth": -1,
                        "name": "Refunded Gas",
                        "value": 0
                    }
                ],
                "depth": -2,
                "name": "Total Gas",
                "value": 37255
            }
        ],
        "isConfirmed": true,
        "mainTrace": [
            {
                "children": [
                    {
                        "children": [
                            {
                                "children": [],
                                "depth": 1,
                                "id": 1,
                                "order": 1
                            }
                        ],
                        "depth": 0,
                        "id": 0,
                        "order": 0
                    }
                ],
                "depth": -1,
                "id": -1,
                "order": -1
            }
        ],
        "mainTraceNodeCount": 2,
        "parentIdMap": {
            "0": -1,
            "1": 0
        },
        "tidyTrace": [
            {
                "children": [
                    {
                        "children": [
                            {
                                "children": [],
                                "depth": 1,
                                "id": 1,
                                "order": 1
                            }
                        ],
                        "depth": 0,
                        "id": 0,
                        "order": 0
                    }
                ],
                "depth": -1,
                "id": -1,
                "order": -1
            }
        ],
        "tidyTraceNodeCount": 2
    },
    "state_change": {
        "stateChanges": [
            {
                "address": "0x3506424f91fd33084466f402d5d97f05f8e3b4af",
                "erc": "ERC-20",
                "slots": [
                    {
                        "current": "0x000000000000000000000000000000000000000000007259756a8d6199800000",
                        "key": "0xebc2b16cf70760b9f9945370c6b05f1f02ec65aaa452d333349800729c9c7278",
                        "prev": "0x00000000000000000000000000000000000000000000392cbab546b0ccc00000"
                    },
                    {
                        "current": "0x0000000000000000000000000000000000000000000e66e6d0ef7b0d630e73f5",
                        "key": "0x7ef574032dcc6b9e46b11f63d4739c42cecb45fd9f3299edf8c248a55742fa91",
                        "prev": "0x0000000000000000000000000000000000000000000ea0138ba4c1be2fce73f5"
                    }
                ],
                "storageVariables": [
                    {
                        "name": "_balances",
                        "type": "mapping(address => uint256)",
                        "value": {
                            "pairs": [
                                {
                                    "key": "0x7d9d6ee6f1c65ed911e7b6bf37b1dc1ebe0293f6",
                                    "value": {
                                        "current": "540000000000000000000000",
                                        "prev": "270000000000000000000000",
                                        "typeTag": 1
                                    }
                                },
                                {
                                    "key": "0xf4c6dd29dbc806325fa65da4be9503e000af4a9e",
                                    "value": {
                                        "current": "17410900662381842204095477",
                                        "prev": "17680900662381842204095477",
                                        "typeTag": 1
                                    }
                                }
                            ],
                            "typeTag": 4
                        }
                    }
                ]
            }
        ]
    }
}