{
    "balance_change": {
        "balanceChanges": [
            {
                "account": "0x571f71b591f99d15c1041d4ba1e7abc9c9b94f49",
                "assets": [
                    {
                        "address": "0xbf5f8bfcee9502a30018d91c63eca66980e6e9bb",
                        "amount": "100.9988",
                        "iconUrl": "",
                        "isERC1155": false,
                        "isERC721": false,
                        "sign": false,
                        "value": ""
                    }
                ]
            },
            {
                "account": "0x34b1f087593065ba4e13c57504ab00058e92415b",
                "assets": [
                    {
                        "address": "0xbf5f8bfcee9502a30018d91c63eca66980e6e9bb",
                        "amount": "100.9988",
                        "iconUrl": "",
                        "isERC1155": false,
                        "isERC721": false,
                        "sign": true,
                        "value": ""
                    }
                ]
            }
        ]
    },
    "profile": {
        "basic_info": {
            "baseFee": "",
            "blockNumber": 8462444,
            "callData": "0xa9059cbb00000000000000000000000034b1f087593065ba4e13c57504ab00058e92415b00000000000000000000000000000000000000000000000579a3d17c44b90000",
            "debugEnable": true,
            "errorInfo": "",
            "eventCount": 1,
            "feeRecipient": "0x829bd824b016326a401d083b33d092293333a830",
            "formatValue": "0",
            "gasLimit": 105018,
            "gasPrice": "20",
            "gasUsed": 52509,
            "intTxnCount": 0,
            "internalRevert": false,
            "internalRevertMessage": "",
            "isContractCreation": false,
            "isFlashloan": false,
            "maxFee": "",
            "nonce": 73405,
            "overwritedBlockNumber": -1,
            "priorityFee": "",
            "receiver": "0xbf5f8bfcee9502a30018d91c63eca66980e6e9bb",
            "revertMessage": "",
            "sender": "0x571f71b591f99d15c1041d4ba1e7abc9c9b94f49",
            "simulationEnable": true,
            "sourceTxnHash": "0xd475b43aa996251da7fe7f2ba69554312c64cb44f5c1dbaee0e373d28d3660b2",
            "status": true,
            "timestamp": "2019-09-01T05:10:13Z",
            "transactionFee": "0.00105018",
            "txnHash": "0xd475b43aa996251da7fe7f2ba69554312c64cb44f5c1dbaee0e373d28d3660b2",
            "txnIndex": 46,
            "type": 0,
            "value": "0"
        },
        "fund_flow": [
            {
                "amount": "100.9988",
                "from": "0x571f71b591f99d15c1041d4ba1e7abc9c9b94f49",
                "id": 1,
                "isERC1155": false,
                "isERC721": false,
                "isReverted": false,
                "order": 1,
                "to": "0x34b1f087593065ba4e13c57504ab00058e92415b",
                "token": "0xbf5f8bfcee9502a30018d91c63eca66980e6e9bb"
            }
        ],
        "token_infos": [
            {
                "address": "0xeeeeeeeeeeeeeeeeeeeeeeeeeeeeeeeeeeeeeeee",
                "decimals": 18
            },
            {
                "address": "0xbf5f8bfcee9502a30018d91c63eca66980e6e9bb",
                "decimals": 18
            },
            {
                "address": "0xc02aaa39b223fe8d0a0e5c4f27ead9083c756cc2",
                "decimals": 18
            }
        ]
    },
    "address_label": {
        "labels": [
            {
                "address": "0xbf5f8bfcee9502a30018d91c63eca66980e6e9bb",
                "label": "IDAX Token (IT)"
            },
            {
                "address": "0x0000000000000000000000000000000000000001",
                "label": "Precompiled"
            },
            {
                "address": "0x0000000000000000000000000000000000000002",
                "label": "Precompiled"
            },
            {
                "address": "0x0000000000000000000000000000000000000003",
                "label": "Precompiled"
            },
            {
                "address": "0x0000000000000000000000000000000000000004",
                "label": "Precompiled"
            },
            {
                "address": "0xeeeeeeeeeeeeeeeeeeeeeeeeeeeeeeeeeeeeeeee",
                "label": "Ether"
            }
        ]
    },
    "trace": {
        "accountLabels": null,
        "dataMap": {
            "-1": {
                "invocation": {
                    "address": "0x571f71b591f99d15c1041d4ba1e7abc9c9b94f49",
                    "callData": "",
                    "decodedMethod": null,
                    "errorInfo": "",
                    "fromAddress": "",
                    "gasUsed": 0,
                    "id": -1,
                    "methodDecoded": false,
                    "operation": "",
                    "output": "",
                    "revert": false,
                    "revertMessage": "",
                    "selector": "",
                    "status": false,
                    "value": ""
                },
                "nodeType": 0
            },
            "0": {
                "invocation": {
                    "address": "0xbf5f8bfcee9502a30018d91c63eca66980e6e9bb",
                    "callData": "0x00000000000000000000000034b1f087593065ba4e13c57504ab00058e92415b00000000000000000000000000000000000000000000000579a3d17c44b90000",
                    "decodedMethod": {
                        "callParams": [
                            {
                                "name": "_to",
                                "type": "address",
                                "value": "0x34b1f087593065ba4e13c57504ab00058e92415b"
                            },
                            {
                                "decimalAvailable": true,
                                "name": "_value",
                                "type": "uint256",
                                "value": "100,998,800,000,000,000,000"
                            }
                        ],
                        "constructorArguments": "",
                        "name": "transfer",
                        "returnParams": [
                            {
                                "name": "success",
                                "type": "bool",
                                "value": true
                            }
                        ],
                        "signature": "transfer(address,uint256)"
                    },
                    "errorInfo": "",
                    "fromAddress": "0x571f71b591f99d15c1041d4ba1e7abc9c9b94f49",
                    "gasUsed": 52509,
                    "id": 0,
                    "methodDecoded": true,
                    "operation": "CALL",
                    "output": "0x0000000000000000000000000000000000000000000000000000000000000001",
                    "revert": false,
                    "revertMessage": "",
                    "selector": "0xa9059cbb",
                    "status": true,
                    "value": "0"
                },
                "nodeType": 0
            },
            "1": {
                "event": {
                    "contract": "0xbf5f8bfcee9502a30018d91c63eca66980e6e9bb",
                    "decodedLog": {
                        "name": "Transfer",
                        "params": [
                            {
                                "name": "from",
                                "type": "address",
                                "value": "0x571f71b591f99d15c1041d4ba1e7abc9c9b94f49"
                            },
                            {
                                "name": "to",
                                "type": "address",
                                "value": "0x34b1f087593065ba4e13c57504ab00058e92415b"
                            },
                            {
                                "decimalAvailable": true,
                                "name": "value",
                                "type": "uint256",
                                "value": "100,998,800,000,000,000,000"
                            }
                        ],
                        "signature": "Transfer(address,address,uint256)"
                    },
                    "id": 1,
                    "logData": "0x00000000000000000000000000000000000000000000000579a3d17c44b90000",
                    "logDecoded": true,
                    "operation": "EVENT",
                    "revert": false,
                    "status": true,
                    "topics": [
                        "0xddf252ad1be2c89b69c2b068fc378daa952ba7f163c4a11628f55a4df523b3ef",
                        "0x000000000000000000000000571f71b591f99d15c1041d4ba1e7abc9c9b94f49",
                        "0x00000000000000000000000034b1f087593065ba4e13c57504ab00058e92415b"
                    ]
                },
                "nodeType": 1
            }
        },
        "gasFlame": [
            {
                "children": [
                    {
                        "children": [
                            {
                                "children": [],
                                "depth": 0,
                                "name": "Initial Gas",
                                "value": 23192
                            },
                            {
                                "children": [],
                                "depth": 0,
                                "name": "Executed Gas",
                                "value": 29317
                            }
                        ],
                        "depth": -1,
                        "name": "Actual Gas Used",
                        "value": 52509
                    },
                    {
                        "children": [],
                        "depth": -1,
                        "name": "Refunded Gas",
                        "value": 0
                    }
                ],
                "depth": -2,
                "name": "Total Gas",
                "value": 52509
            }
        ],
        "isConfirmed": true,
        "mainTrace": [
            {
                "children": [
                    {
                        "children": [
                            {
                                "children": [],
                                "depth": 1,
                                "id": 1,
                                "order": 1
                            }
                        ],
                        "depth": 0,
                        "id": 0,
                        "order": 0
                    }
                ],
                "depth": -1,
                "id": -1,
                "order": -1
            }
        ],
        "mainTraceNodeCount": 2,
        "parentIdMap": {
            "0": -1,
            "1": 0
        },
        "tidyTrace": [
            {
                "children": [
                    {
                        "children": [
                            {
                                "children": [],
                                "depth": 1,
                                "id": 1,
                                "order": 1
                            }
                        ],
                        "depth": 0,
                        "id": 0,
                        "order": 0
                    }
                ],
                "depth": -1,
                "id": -1,
                "order": -1
            }
        ],
        "tidyTraceNodeCount": 2
    },
    "state_change": {
        "stateChanges": [
            {
                "address": "0xbf5f8bfcee9502a30018d91c63eca66980e6e9bb",
                "erc": "ERC-20",
                "slots": [
                    {
                        "current": "0x00000000000000000000000000000000000000000001ee8f1ac7c6fa8f391400",
                        "key": "0x6a164fb734e432e36252054abb249ba4caceec2e2eb4e58ae3e5d030cb2a8420",
                        "prev": "0x00000000000000000000000000000000000000000001ee94946b9876d3f21400"
                    },
                    {
                        "current": "0x00000000000000000000000000000000000000000000000579a3d17c44b90000",
                        "key": "0xedc29e083e686dad4cec48300dd4c2363d151e1459d741792be103947d431584",
                        "prev": "0x0000000000000000000000000000000000000000000000000000000000000000"
                    }
                ],
                "storageVariables": [
                    {
                        "name": "balanceOf",
                        "type": "mapping(address => uint256)",
                        "value": {
                            "pairs": [
                                {
                                    "key": "0x34b1f087593065ba4e13c57504ab00058e92415b",
                                    "value": {
                                        "current": "100998800000000000000",
                                        "prev": "0",
                                        "typeTag": 1
                                    }
                                },
                                {
                                    "key": "0x571f71b591f99d15c1041d4ba1e7abc9c9b94f49",
                                    "value": {
                                        "current": "2335488856669890000000000",
                                        "prev": "2335589855469890000000000",
                                        "typeTag": 1
                                    }
                                }
                            ],
                            "typeTag": 4
                        }
                    }
                ]
            }
        ]
    }
}