{
    "balance_change": {
        "balanceChanges": [
            {
                "account": "0xd4dcd2459bb78d7a645aa7e196857d421b10d93f",
                "assets": [
                    {
                        "address": "0x02c4c78c462e32cca4a90bc499bf411fb7bc6afb",
                        "amount": "27,853.986",
                        "iconUrl": "",
                        "isERC1155": false,
                        "isERC721": false,
                        "sign": false,
                        "value": ""
                    }
                ]
            },
            {
                "account": "0x7341a6d0c4dde99b61b774d12936bd4d9aa1454e",
                "assets": [
                    {
                        "address": "0x02c4c78c462e32cca4a90bc499bf411fb7bc6afb",
                        "amount": "27,853.986",
                        "iconUrl": "",
                        "isERC1155": false,
                        "isERC721": false,
                        "sign": true,
                        "value": ""
                    }
                ]
            }
        ]
    },
    "profile": {
        "basic_info": {
            "baseFee": "",
            "blockNumber": 12190183,
            "callData": "0xa9059cbb0000000000000000000000007341a6d0c4dde99b61b774d12936bd4d9aa1454e0000000000000000000000000000000000000000000005e5f7b51241df9d0000",
            "debugEnable": true,
            "errorInfo": "",
            "eventCount": 1,
            "feeRecipient": "0x99c85bb64564d9ef9a99621301f22c9993cb89e3",
            "formatValue": "0",
            "gasLimit": 250000,
            "gasPrice": "116.6",
            "gasUsed": 53675,
            "intTxnCount": 0,
            "internalRevert": false,
            "internalRevertMessage": "",
            "isContractCreation": false,
            "isFlashloan": false,
            "maxFee": "",
            "nonce": 108492,
            "overwritedBlockNumber": -1,
            "priorityFee": "",
            "receiver": "0x02c4c78c462e32cca4a90bc499bf411fb7bc6afb",
            "revertMessage": "",
            "sender": "0xd4dcd2459bb78d7a645aa7e196857d421b10d93f",
            "simulationEnable": true,
            "sourceTxnHash": "0xd5dcdd8777a977f0a6cb51ef4bc9daae9a24ff3bf00146edcc4f621f7ad4180d",
            "status": true,
            "timestamp": "2021-04-07T03:10:18Z",
            "transactionFee": "0.006258505",
            "txnHash": "0xd5dcdd8777a977f0a6cb51ef4bc9daae9a24ff3bf00146edcc4f621f7ad4180d",
            "txnIndex": 332,
            "type": 0,
            "value": "0"
        },
        "fund_flow": [
            {
                "amount": "27,853.986",
                "from": "0xd4dcd2459bb78d7a645aa7e196857d421b10d93f",
                "id": 1,
                "isERC1155": false,
                "isERC721": false,
                "isReverted": false,
                "order": 1,
                "to": "0x7341a6d0c4dde99b61b774d12936bd4d9aa1454e",
                "token": "0x02c4c78c462e32cca4a90bc499bf411fb7bc6afb"
            }
        ],
        "token_infos": [
            {
                "address": "0x02c4c78c462e32cca4a90bc499bf411fb7bc6afb",
                "decimals": 18
            },
            {
                "address": "0xc02aaa39b223fe8d0a0e5c4f27ead9083c756cc2",
                "decimals": 18
            },
            {
                "address": "0xeeeeeeeeeeeeeeeeeeeeeeeeeeeeeeeeeeeeeeee",
                "decimals": 18
            }
        ]
    },
    "address_label": {
        "labels": [
            {
                "address": "0x0000000000000000000000000000000000000004",
                "label": "Precompiled"
            },
            {
                "address": "0xeeeeeeeeeeeeeeeeeeeeeeeeeeeeeeeeeeeeeeee",
                "label": "Ether"
            },
            {
                "address": "0xd4dcd2459bb78d7a645aa7e196857d421b10d93f",
                "label": "PEATIO"
            },
            {
                "address": "0x02c4c78c462e32cca4a90bc499bf411fb7bc6afb",
                "label": "InvestDigital (IDT)"
            },
            {
                "address": "0x7341a6d0c4dde99b61b774d12936bd4d9aa1454e",
                "label": "HUOBI"
            },
            {
                "address": "0x0000000000000000000000000000000000000001",
                "label": "Precompiled"
            },
            {
                "address": "0x0000000000000000000000000000000000000002",
                "label": "Precompiled"
            },
            {
                "address": "0x0000000000000000000000000000000000000003",
                "label": "Precompiled"
            }
        ]
    },
    "trace": {
        "accountLabels": null,
        "dataMap": {
            "-1": {
                "invocation": {
                    "address": "0xd4dcd2459bb78d7a645aa7e196857d421b10d93f",
                    "callData": "",
                    "decodedMethod": null,
                    "errorInfo": "",
                    "fromAddress": "",
                    "gasUsed": 0,
                    "id": -1,
                    "methodDecoded": false,
                    "operation": "",
                    "output": "",
                    "revert": false,
                    "revertMessage": "",
                    "selector": "",
                    "status": false,
                    "value": ""
                },
                "nodeType": 0
            },
            "0": {
                "invocation": {
                    "address": "0x02c4c78c462e32cca4a90bc499bf411fb7bc6afb",
                    "callData": "0x0000000000000000000000007341a6d0c4dde99b61b774d12936bd4d9aa1454e0000000000000000000000000000000000000000000005e5f7b51241df9d0000",
                    "decodedMethod": {
                        "callParams": [
                            {
                                "name": "_to",
                                "type": "address",
                                "value": "0x7341a6d0c4dde99b61b774d12936bd4d9aa1454e"
                            },
                            {
                                "decimalAvailable": true,
                                "name": "_value",
                                "type": "uint256",
                                "value": "27,853,986,000,000,000,000,000"
                            }
                        ],
                        "constructorArguments": "",
                        "name": "transfer",
                        "returnParams": [
                            {
                                "name": "",
                                "type": "bool",
                                "value": true
                            }
                        ],
                        "signature": "transfer(address,uint256)"
                    },
                    "errorInfo": "",
                    "fromAddress": "0xd4dcd2459bb78d7a645aa7e196857d421b10d93f",
                    "gasUsed": 53675,
                    "id": 0,
                    "methodDecoded": true,
                    "operation": "CALL",
                    "output": "0x0000000000000000000000000000000000000000000000000000000000000001",
                    "revert": false,
                    "revertMessage": "",
                    "selector": "0xa9059cbb",
                    "status": true,
                    "value": "0"
                },
                "nodeType": 0
            },
            "1": {
                "event": {
                    "contract": "0x02c4c78c462e32cca4a90bc499bf411fb7bc6afb",
                    "decodedLog": {
                        "name": "Transfer",
                        "params": [
                            {
                                "name": "from",
                                "type": "address",
                                "value": "0xd4dcd2459bb78d7a645aa7e196857d421b10d93f"
                            },
                            {
                                "name": "to",
                                "type": "address",
                                "value": "0x7341a6d0c4dde99b61b774d12936bd4d9aa1454e"
                            },
                            {
                                "decimalAvailable": true,
                                "name": "value",
                                "type": "uint256",
                                "value": "27,853,986,000,000,000,000,000"
                            }
                        ],
                        "signature": "Transfer(address,address,uint256)"
                    },
                    "id": 1,
                    "logData": "0x0000000000000000000000000000000000000000000005e5f7b51241df9d0000",
                    "logDecoded": true,
                    "operation": "EVENT",
                    "revert": false,
                    "status": true,
                    "topics": [
                        "0xddf252ad1be2c89b69c2b068fc378daa952ba7f163c4a11628f55a4df523b3ef",
                        "0x000000000000000000000000d4dcd2459bb78d7a645aa7e196857d421b10d93f",
                        "0x0000000000000000000000007341a6d0c4dde99b61b774d12936bd4d9aa1454e"
                    ]
                },
                "nodeType": 1
            }
        },
        "gasFlame": [
            {
                "children": [
                    {
                        "children": [
                            {
                                "children": [],
                                "depth": 0,
                                "name": "Initial Gas",
                                "value": 21656
                            },
                            {
                                "children": [],
                                "depth": 0,
                                "name": "Executed Gas",
                                "value": 32019
                            }
                        ],
                        "depth": -1,
                        "name": "Actual Gas Used",
                        "value": 53675
                    },
                    {
                        "children": [],
                        "depth": -1,
                        "name": "Refunded Gas",
                        "value": 0
                    }
                ],
                "depth": -2,
                "name": "Total Gas",
                "value": 53675
            }
        ],
        "isConfirmed": true,
        "mainTrace": [
            {
                "children": [
                    {
                        "children": [
                            {
                                "children": [],
                                "depth": 1,
                                "id": 1,
                                "order": 1
                            }
                        ],
                        "depth": 0,
                        "id": 0,
                        "order": 0
                    }
                ],
                "depth": -1,
                "id": -1,
                "order": -1
            }
        ],
        "mainTraceNodeCount": 2,
        "parentIdMap": {
            "0": -1,
            "1": 0
        },
        "tidyTrace": [
            {
                "children": [
                    {
                        "children": [
                            {
                                "children": [],
                                "depth": 1,
                                "id": 1,
                                "order": 1
                            }
                        ],
                        "depth": 0,
                        "id": 0,
                        "order": 0
                    }
                ],
                "depth": -1,
                "id": -1,
                "order": -1
            }
        ],
        "tidyTraceNodeCount": 2
    },
    "state_change": {
        "stateChanges": [
            {
                "address": "0x02c4c78c462e32cca4a90bc499bf411fb7bc6afb",
                "erc": "ERC-20",
                "slots": [
                    {
                        "current": "0x0000000000000000000000000000000000000000001188bc8d9ec877a652c600",
                        "key": "0xdf4fd71c3bb8921aebe7047587cb198efb33726278541fecb00ac1900d072ff9",
                        "prev": "0x000000000000000000000000000000000000000000118ea28553dab985efc600"
                    },
                    {
                        "current": "0x0000000000000000000000000000000000000000000005e5f7b51241df9d0000",
                        "key": "0x98ad68fe5c5ff97d06bd28a7ff3965add098d792ffb359f12e3d9d3cb389f1eb",
                        "prev": "0x0000000000000000000000000000000000000000000000000000000000000000"
                    }
                ],
                "storageVariables": [
                    {
                        "name": "balances",
                        "type": "mapping(address => uint256)",
                        "value": {
                            "pairs": [
                                {
                                    "key": "0x7341a6d0c4dde99b61b774d12936bd4d9aa1454e",
                                    "value": {
                                        "current": "27853986000000000000000",
                                        "prev": "0",
                                        "typeTag": 1
                                    }
                                },
                                {
                                    "key": "0xd4dcd2459bb78d7a645aa7e196857d421b10d93f",
                                    "value": {
                                        "current": "21197458967819047000000000",
                                        "prev": "21225312953819047000000000",
                                        "typeTag": 1
                                    }
                                }
                            ],
                            "typeTag": 4
                        }
                    }
                ]
            }
        ]
    }
}