{
    "balance_change": {
        "balanceChanges": [
            {
                "account": "0x85796c7241a4704e5bef96b9eec8f5c76fa59d19",
                "assets": [
                    {
                        "address": "0x298d492e8c1d909d3f63bc4a36c66c64acb3d695",
                        "amount": "5,043.11",
                        "iconUrl": "https://assets.blocksec.com/icon/e671a0d5571b57532a8202c67ceae0e15ef687197ee6459da9f1536552c7a3c8.png",
                        "isERC1155": false,
                        "isERC721": false,
                        "sign": false,
                        "value": "1230.278698"
                    }
                ]
            },
            {
                "account": "0x0000000000000000000000000000000000000000",
                "assets": [
                    {
                        "address": "0x298d492e8c1d909d3f63bc4a36c66c64acb3d695",
                        "amount": "2.521555",
                        "iconUrl": "https://assets.blocksec.com/icon/e671a0d5571b57532a8202c67ceae0e15ef687197ee6459da9f1536552c7a3c8.png",
                        "isERC1155": false,
                        "isERC721": false,
                        "sign": true,
                        "value": "0.62069291"
                    }
                ]
            },
            {
                "account": "0x75b8c48bdb04d426aed57b36bb835ad2dc321c30",
                "assets": [
                    {
                        "address": "0x298d492e8c1d909d3f63bc4a36c66c64acb3d695",
                        "amount": "22.693995",
                        "iconUrl": "https://assets.blocksec.com/icon/e671a0d5571b57532a8202c67ceae0e15ef687197ee6459da9f1536552c7a3c8.png",
                        "isERC1155": false,
                        "isERC721": false,
                        "sign": true,
                        "value": "5.51956617"
                    }
                ]
            },
            {
                "account": "0x7909c2f46829acc8a8930336c613d68e7a3a7c0b",
                "assets": [
                    {
                        "address": "0x298d492e8c1d909d3f63bc4a36c66c64acb3d695",
                        "amount": "5,017.89445",
                        "iconUrl": "https://assets.blocksec.com/icon/e671a0d5571b57532a8202c67ceae0e15ef687197ee6459da9f1536552c7a3c8.png",
                        "isERC1155": false,
                        "isERC721": false,
                        "sign": true,
                        "value": "1231.488913"
                    }
                ]
            }
        ]
    },
    "profile": {
        "basic_info": {
            "baseFee": "",
            "blockNumber": 12146705,
            "callData": "0xa9059cbb0000000000000000000000007909c2f46829acc8a8930336c613d68e7a3a7c0b0000000000000000000000000000000000000000000001116335e17544370000",
            "debugEnable": true,
            "errorInfo": "",
            "eventCount": 3,
            "feeRecipient": "0x5a0b54d5dc17e0aadc383d2db43b0a0d3e029c4c",
            "formatValue": "0",
            "gasLimit": 139312,
            "gasPrice": "166",
            "gasUsed": 73675,
            "intTxnCount": 0,
            "internalRevert": false,
            "internalRevertMessage": "",
            "isContractCreation": false,
            "isFlashloan": false,
            "maxFee": "",
            "nonce": 268,
            "overwritedBlockNumber": -1,
            "priorityFee": "",
            "receiver": "0x298d492e8c1d909d3f63bc4a36c66c64acb3d695",
            "revertMessage": "",
            "sender": "0x85796c7241a4704e5bef96b9eec8f5c76fa59d19",
            "simulationEnable": true,
            "sourceTxnHash": "0xd523490bab0a5a8390c61200b71509a60e68e0f0f8f06d223305a42632d38aa0",
            "status": true,
            "timestamp": "2021-03-31T11:01:52Z",
            "transactionFee": "0.01223005",
            "txnHash": "0xd523490bab0a5a8390c61200b71509a60e68e0f0f8f06d223305a42632d38aa0",
            "txnIndex": 98,
            "type": 0,
            "value": "0"
        },
        "fund_flow": [
            {
                "amount": "22.693995",
                "from": "0x85796c7241a4704e5bef96b9eec8f5c76fa59d19",
                "id": 1,
                "isERC1155": false,
                "isERC721": false,
                "isReverted": false,
                "order": 1,
                "to": "0x75b8c48bdb04d426aed57b36bb835ad2dc321c30",
                "token": "0x298d492e8c1d909d3f63bc4a36c66c64acb3d695"
            },
            {
                "amount": "2.521555",
                "from": "0x85796c7241a4704e5bef96b9eec8f5c76fa59d19",
                "id": 2,
                "isERC1155": false,
                "isERC721": false,
                "isReverted": false,
                "order": 2,
                "to": "0x0000000000000000000000000000000000000000",
                "token": "0x298d492e8c1d909d3f63bc4a36c66c64acb3d695"
            },
            {
                "amount": "5,017.89445",
                "from": "0x85796c7241a4704e5bef96b9eec8f5c76fa59d19",
                "id": 3,
                "isERC1155": false,
                "isERC721": false,
                "isReverted": false,
                "order": 3,
                "to": "0x7909c2f46829acc8a8930336c613d68e7a3a7c0b",
                "token": "0x298d492e8c1d909d3f63bc4a36c66c64acb3d695"
            }
        ],
        "token_infos": [
            {
                "address": "0x298d492e8c1d909d3f63bc4a36c66c64acb3d695",
                "decimals": 18
            },
            {
                "address": "0xc02aaa39b223fe8d0a0e5c4f27ead9083c756cc2",
                "decimals": 18
            },
            {
                "address": "0xeeeeeeeeeeeeeeeeeeeeeeeeeeeeeeeeeeeeeeee",
                "decimals": 18
            }
        ]
    },
    "address_label": {
        "labels": [
            {
                "address": "0x0000000000000000000000000000000000000001",
                "label": "Precompiled"
            },
            {
                "address": "0x0000000000000000000000000000000000000002",
                "label": "Precompiled"
            },
            {
                "address": "0x0000000000000000000000000000000000000003",
                "label": "Precompiled"
            },
            {
                "address": "0x0000000000000000000000000000000000000004",
                "label": "Precompiled"
            },
            {
                "address": "0xeeeeeeeeeeeeeeeeeeeeeeeeeeeeeeeeeeeeeeee",
                "label": "Ether"
            },
            {
                "address": "0x7909c2f46829acc8a8930336c613d68e7a3a7c0b",
                "label": "MEXC"
            },
            {
                "address": "0x298d492e8c1d909d3f63bc4a36c66c64acb3d695",
                "label": "PolkaBridge: PBR Token"
            }
        ]
    },
    "trace": {
        "accountLabels": null,
        "dataMap": {
            "-1": {
                "invocation": {
                    "address": "0x85796c7241a4704e5bef96b9eec8f5c76fa59d19",
                    "callData": "",
                    "decodedMethod": null,
                    "errorInfo": "",
                    "fromAddress": "",
                    "gasUsed": 0,
                    "id": -1,
                    "methodDecoded": false,
                    "operation": "",
                    "output": "",
                    "revert": false,
                    "revertMessage": "",
                    "selector": "",
                    "status": false,
                    "value": ""
                },
                "nodeType": 0
            },
            "0": {
                "invocation": {
                    "address": "0x298d492e8c1d909d3f63bc4a36c66c64acb3d695",
                    "callData": "0x0000000000000000000000007909c2f46829acc8a8930336c613d68e7a3a7c0b0000000000000000000000000000000000000000000001116335e17544370000",
                    "decodedMethod": {
                        "callParams": [
                            {
                                "name": "recipient",
                                "type": "address",
                                "value": "0x7909c2f46829acc8a8930336c613d68e7a3a7c0b"
                            },
                            {
                                "decimalAvailable": true,
                                "name": "amount",
                                "type": "uint256",
                                "value": "5,043,110,000,000,000,000,000"
                            }
                        ],
                        "constructorArguments": "",
                        "name": "transfer",
                        "returnParams": [
                            {
                                "name": "",
                                "type": "bool",
                                "value": true
                            }
                        ],
                        "signature": "transfer(address,uint256)"
                    },
                    "errorInfo": "",
                    "fromAddress": "0x85796c7241a4704e5bef96b9eec8f5c76fa59d19",
                    "gasUsed": 73675,
                    "id": 0,
                    "methodDecoded": true,
                    "operation": "CALL",
                    "output": "0x0000000000000000000000000000000000000000000000000000000000000001",
                    "revert": false,
                    "revertMessage": "",
                    "selector": "0xa9059cbb",
                    "status": true,
                    "value": "0"
                },
                "nodeType": 0
            },
            "1": {
                "event": {
                    "contract": "0x298d492e8c1d909d3f63bc4a36c66c64acb3d695",
                    "decodedLog": {
                        "name": "Transfer",
                        "params": [
                            {
                                "name": "from",
                                "type": "address",
                                "value": "0x85796c7241a4704e5bef96b9eec8f5c76fa59d19"
                            },
                            {
                                "name": "to",
                                "type": "address",
                                "value": "0x75b8c48bdb04d426aed57b36bb835ad2dc321c30"
                            },
                            {
                                "decimalAvailable": true,
                                "name": "value",
                                "type": "uint256",
                                "value": "22,693,995,000,000,000,000"
                            }
                        ],
                        "signature": "Transfer(address,address,uint256)"
                    },
                    "id": 1,
                    "logData": "0x0000000000000000000000000000000000000000000000013af14436ed7db000",
                    "logDecoded": true,
                    "operation": "EVENT",
                    "revert": false,
                    "status": true,
                    "topics": [
                        "0xddf252ad1be2c89b69c2b068fc378daa952ba7f163c4a11628f55a4df523b3ef",
                        "0x00000000000000000000000085796c7241a4704e5bef96b9eec8f5c76fa59d19",
                        "0x00000000000000000000000075b8c48bdb04d426aed57b36bb835ad2dc321c30"
                    ]
                },
                "nodeType": 1
            },
            "2": {
                "event": {
                    "contract": "0x298d492e8c1d909d3f63bc4a36c66c64acb3d695",
                    "decodedLog": {
                        "name": "Transfer",
                        "params": [
                            {
                                "name": "from",
                                "type": "address",
                                "value": "0x85796c7241a4704e5bef96b9eec8f5c76fa59d19"
                            },
                            {
                                "name": "to",
                                "type": "address",
                                "value": "0x0000000000000000000000000000000000000000"
                            },
                            {
                                "decimalAvailable": true,
                                "name": "value",
                                "type": "uint256",
                                "value": "2,521,555,000,000,000,000"
                            }
                        ],
                        "signature": "Transfer(address,address,uint256)"
                    },
                    "id": 2,
                    "logData": "0x00000000000000000000000000000000000000000000000022fe5ce9a89c3000",
                    "logDecoded": true,
                    "operation": "EVENT",
                    "revert": false,
                    "status": true,
                    "topics": [
                        "0xddf252ad1be2c89b69c2b068fc378daa952ba7f163c4a11628f55a4df523b3ef",
                        "0x00000000000000000000000085796c7241a4704e5bef96b9eec8f5c76fa59d19",
                        "0x0000000000000000000000000000000000000000000000000000000000000000"
                    ]
                },
                "nodeType": 1
            },
            "3": {
                "event": {
                    "contract": "0x298d492e8c1d909d3f63bc4a36c66c64acb3d695",
                    "decodedLog": {
                        "name": "Transfer",
                        "params": [
                            {
                                "name": "from",
                                "type": "address",
                                "value": "0x85796c7241a4704e5bef96b9eec8f5c76fa59d19"
                            },
                            {
                                "name": "to",
                                "type": "address",
                                "value": "0x7909c2f46829acc8a8930336c613d68e7a3a7c0b"
                            },
                            {
                                "decimalAvailable": true,
                                "name": "value",
                                "type": "uint256",
                                "value": "5,017,894,450,000,000,000,000"
                            }
                        ],
                        "signature": "Transfer(address,address,uint256)"
                    },
                    "id": 3,
                    "logData": "0x00000000000000000000000000000000000000000000011005464054ae1d2000",
                    "logDecoded": true,
                    "operation": "EVENT",
                    "revert": false,
                    "status": true,
                    "topics": [
                        "0xddf252ad1be2c89b69c2b068fc378daa952ba7f163c4a11628f55a4df523b3ef",
                        "0x00000000000000000000000085796c7241a4704e5bef96b9eec8f5c76fa59d19",
                        "0x0000000000000000000000007909c2f46829acc8a8930336c613d68e7a3a7c0b"
                    ]
                },
                "nodeType": 1
            }
        },
        "gasFlame": [
            {
                "children": [
                    {
                        "children": [
                            {
                                "children": [],
                                "depth": 0,
                                "name": "Initial Gas",
                                "value": 21656
                            },
                            {
                                "children": [],
                                "depth": 0,
                                "name": "Executed Gas",
                                "value": 71219
                            }
                        ],
                        "depth": -1,
                        "name": "Actual Gas Used",
                        "value": 73675
                    },
                    {
                        "children": [],
                        "depth": -1,
                        "name": "Refunded Gas",
                        "value": 19200
                    }
                ],
                "depth": -2,
                "name": "Total Gas",
                "value": 92875
            }
        ],
        "isConfirmed": true,
        "mainTrace": [
            {
                "children": [
                    {
                        "children": [
                            {
                                "children": [],
                                "depth": 1,
                                "id": 1,
                                "order": 1
                            },
                            {
                                "children": [],
                                "depth": 1,
                                "id": 2,
                                "order": 2
                            },
                            {
                                "children": [],
                                "depth": 1,
                                "id": 3,
                                "order": 3
                            }
                        ],
                        "depth": 0,
                        "id": 0,
                        "order": 0
                    }
                ],
                "depth": -1,
                "id": -1,
                "order": -1
            }
        ],
        "mainTraceNodeCount": 4,
        "parentIdMap": {
            "0": -1,
            "1": 0,
            "2": 0,
            "3": 0
        },
        "tidyTrace": [
            {
                "children": [
                    {
                        "children": [
                            {
                                "children": [],
                                "depth": 1,
                                "id": 1,
                                "order": 1
                            },
                            {
                                "children": [],
                                "depth": 1,
                                "id": 2,
                                "order": 2
                            },
                            {
                                "children": [],
                                "depth": 1,
                                "id": 3,
                                "order": 3
                            }
                        ],
                        "depth": 0,
                        "id": 0,
                        "order": 0
                    }
                ],
                "depth": -1,
                "id": -1,
                "order": -1
            }
        ],
        "tidyTraceNodeCount": 4
    },
    "state_change": {
        "stateChanges": [
            {
                "address": "0x298d492e8c1d909d3f63bc4a36c66c64acb3d695",
                "erc": "ERC-20",
                "slots": [
                    {
                        "current": "0x0000000000000000000000000000000000000000000000000000000000000000",
                        "key": "0xa4f731ab93ad9ed7ff3dd9530b10ef2ffbb1859f3a4ab497efe16be4e27af9fe",
                        "prev": "0x0000000000000000000000000000000000000000000001116335e17544370000"
                    },
                    {
                        "current": "0x00000000000000000000000000000000000000000052b646838e8f9c406e277f",
                        "key": "0x0000000000000000000000000000000000000000000000000000000000000003",
                        "prev": "0x00000000000000000000000000000000000000000052b646a68cec85e90a577f"
                    },
                    {
                        "current": "0x00000000000000000000000000000000000000000000011005464054ae1d2000",
                        "key": "0xe3d61094b17c467cf87de6ea50d5cba8f912ada3424369db2c1ff117d8196d7d",
                        "prev": "0x0000000000000000000000000000000000000000000000000000000000000000"
                    },
                    {
                        "current": "0x000000000000000000000000000000000000000000000ad6badfd15426abbe55",
                        "key": "0x40a0b1e3c04f048f08b37631a4dc4f9c8a67461cfea8ea8a272ad82fa8319c83",
                        "prev": "0x000000000000000000000000000000000000000000000ad57fee8d1d392e0e55"
                    }
                ],
                "storageVariables": [
                    {
                        "name": "_balances",
                        "type": "mapping(address => uint256)",
                        "value": {
                            "pairs": [
                                {
                                    "key": "0x75b8c48bdb04d426aed57b36bb835ad2dc321c30",
                                    "value": {
                                        "current": "51184733772040513502805",
                                        "prev": "51162039777040513502805",
                                        "typeTag": 1
                                    }
                                },
                                {
                                    "key": "0x7909c2f46829acc8a8930336c613d68e7a3a7c0b",
                                    "value": {
                                        "current": "5017894450000000000000",
                                        "prev": "0",
                                        "typeTag": 1
                                    }
                                },
                                {
                                    "key": "0x85796c7241a4704e5bef96b9eec8f5c76fa59d19",
                                    "value": {
                                        "current": "0",
                                        "prev": "5043110000000000000000",
                                        "typeTag": 1
                                    }
                                }
                            ],
                            "typeTag": 4
                        }
                    },
                    {
                        "name": "_totalSupply",
                        "type": "uint256",
                        "value": {
                            "current": "99992688660039194343516031",
                            "prev": "99992691181594194343516031",
                            "typeTag": 1
                        }
                    }
                ]
            }
        ]
    }
}