{
    "balance_change": {
        "balanceChanges": [
            {
                "account": "0x20a26e3d154a17e7d50da26cd0d49183880246e3",
                "assets": [
                    {
                        "address": "0xdb25f211ab05b1c97d595516f45794528a807ad8",
                        "amount": "20.5",
                        "iconUrl": "https://assets.blocksec.com/icon/ceac6ad6e2c5874e5d661f30197908af830bff45855ca9bb825238a85cd2ffb0.png",
                        "isERC1155": false,
                        "isERC721": false,
                        "sign": false,
                        "value": ""
                    }
                ]
            },
            {
                "account": "0x5a392540b2016c6d8edd0afd3c162315e73de957",
                "assets": [
                    {
                        "address": "0xdb25f211ab05b1c97d595516f45794528a807ad8",
                        "amount": "20",
                        "iconUrl": "https://assets.blocksec.com/icon/ceac6ad6e2c5874e5d661f30197908af830bff45855ca9bb825238a85cd2ffb0.png",
                        "isERC1155": false,
                        "isERC721": false,
                        "sign": true,
                        "value": ""
                    }
                ]
            },
            {
                "account": "0x70250fcfef983c9b912c8eefb7021b4b7bae836e",
                "assets": [
                    {
                        "address": "0xdb25f211ab05b1c97d595516f45794528a807ad8",
                        "amount": "0.5",
                        "iconUrl": "https://assets.blocksec.com/icon/ceac6ad6e2c5874e5d661f30197908af830bff45855ca9bb825238a85cd2ffb0.png",
                        "isERC1155": false,
                        "isERC721": false,
                        "sign": true,
                        "value": ""
                    }
                ]
            }
        ]
    },
    "profile": {
        "basic_info": {
            "baseFee": "",
            "blockNumber": 6794406,
            "callData": "0xc97e84800000000000000000000000005a392540b2016c6d8edd0afd3c162315e73de95700000000000000000000000000000000000000000000000000000000000007d000000000000000000000000000000000000000000000000000000000000000000000000000000000000000000000000000000000000000000000000000000008000000000000000000000000000000000000000000000000000000000000001bdc4f1c1f90ca6c20e51a52693464d5973a59146ecb2e213f3720c8a7f63107ec73fbcc790cc5047b215c44e6574ad2c25004ef260661d7847acdc6faadee67d9",
            "debugEnable": true,
            "errorInfo": "",
            "eventCount": 3,
            "feeRecipient": "0xcc16e3c00dbbe76603fa833ec20a48f786dfe610",
            "formatValue": "0",
            "gasLimit": 500000,
            "gasPrice": "14.3",
            "gasUsed": 85532,
            "intTxnCount": 1,
            "internalRevert": false,
            "internalRevertMessage": "",
            "isContractCreation": false,
            "isFlashloan": false,
            "maxFee": "",
            "nonce": 4617,
            "overwritedBlockNumber": -1,
            "priorityFee": "",
            "receiver": "0xdb25f211ab05b1c97d595516f45794528a807ad8",
            "revertMessage": "",
            "sender": "0x001c356c0be5dd6c91ca24ef04d9e10081510682",
            "simulationEnable": true,
            "sourceTxnHash": "0xd5c255e255fa07cab97719d9832e88a0eeedc144f57ceb2c8d46c50afe570a4b",
            "status": true,
            "timestamp": "2018-11-29T12:54:48Z",
            "transactionFee": "0.0012231076",
            "txnHash": "0xd5c255e255fa07cab97719d9832e88a0eeedc144f57ceb2c8d46c50afe570a4b",
            "txnIndex": 60,
            "type": 0,
            "value": "0"
        },
        "fund_flow": [
            {
                "amount": "20",
                "from": "0x20a26e3d154a17e7d50da26cd0d49183880246e3",
                "id": 1,
                "isERC1155": false,
                "isERC721": false,
                "isReverted": false,
                "order": 1,
                "to": "0x5a392540b2016c6d8edd0afd3c162315e73de957",
                "token": "0xdb25f211ab05b1c97d595516f45794528a807ad8"
            },
            {
                "amount": "0.5",
                "from": "0x20a26e3d154a17e7d50da26cd0d49183880246e3",
                "id": 2,
                "isERC1155": false,
                "isERC721": false,
                "isReverted": false,
                "order": 2,
                "to": "0x70250fcfef983c9b912c8eefb7021b4b7bae836e",
                "token": "0xdb25f211ab05b1c97d595516f45794528a807ad8"
            },
            {
                "amount": "0",
                "from": "0x20a26e3d154a17e7d50da26cd0d49183880246e3",
                "id": 3,
                "isERC1155": false,
                "isERC721": false,
                "isReverted": false,
                "order": 3,
                "to": "0x001c356c0be5dd6c91ca24ef04d9e10081510682",
                "token": "0xdb25f211ab05b1c97d595516f45794528a807ad8"
            }
        ],
        "token_infos": [
            {
                "address": "0xc02aaa39b223fe8d0a0e5c4f27ead9083c756cc2",
                "decimals": 18
            },
            {
                "address": "0xdb25f211ab05b1c97d595516f45794528a807ad8",
                "decimals": 2
            },
            {
                "address": "0xeeeeeeeeeeeeeeeeeeeeeeeeeeeeeeeeeeeeeeee",
                "decimals": 18
            }
        ]
    },
    "address_label": {
        "labels": [
            {
                "address": "0xeeeeeeeeeeeeeeeeeeeeeeeeeeeeeeeeeeeeeeee",
                "label": "Ether"
            },
            {
                "address": "0xdb25f211ab05b1c97d595516f45794528a807ad8",
                "label": "Stasis: EURS Token"
            },
            {
                "address": "0x0000000000000000000000000000000000000001",
                "label": "Precompiled"
            },
            {
                "address": "0x0000000000000000000000000000000000000002",
                "label": "Precompiled"
            },
            {
                "address": "0x0000000000000000000000000000000000000003",
                "label": "Precompiled"
            },
            {
                "address": "0x0000000000000000000000000000000000000004",
                "label": "Precompiled"
            }
        ]
    },
    "trace": {
        "accountLabels": null,
        "dataMap": {
            "-1": {
                "invocation": {
                    "address": "0x001c356c0be5dd6c91ca24ef04d9e10081510682",
                    "callData": "",
                    "decodedMethod": null,
                    "errorInfo": "",
                    "fromAddress": "",
                    "gasUsed": 0,
                    "id": -1,
                    "methodDecoded": false,
                    "operation": "",
                    "output": "",
                    "revert": false,
                    "revertMessage": "",
                    "selector": "",
                    "status": false,
                    "value": ""
                },
                "nodeType": 0
            },
            "0": {
                "invocation": {
                    "address": "0xdb25f211ab05b1c97d595516f45794528a807ad8",
                    "callData": "0x0000000000000000000000005a392540b2016c6d8edd0afd3c162315e73de95700000000000000000000000000000000000000000000000000000000000007d000000000000000000000000000000000000000000000000000000000000000000000000000000000000000000000000000000000000000000000000000000008000000000000000000000000000000000000000000000000000000000000001bdc4f1c1f90ca6c20e51a52693464d5973a59146ecb2e213f3720c8a7f63107ec73fbcc790cc5047b215c44e6574ad2c25004ef260661d7847acdc6faadee67d9",
                    "decodedMethod": {
                        "callParams": [
                            {
                                "name": "_to",
                                "type": "address",
                                "value": "0x5a392540b2016c6d8edd0afd3c162315e73de957"
                            },
                            {
                                "name": "_value",
                                "type": "uint256",
                                "value": "2,000"
                            },
                            {
                                "name": "_fee",
                                "type": "uint256",
                                "value": "0"
                            },
                            {
                                "name": "_nonce",
                                "type": "uint256",
                                "value": "8"
                            },
                            {
                                "name": "_v",
                                "type": "uint8",
                                "value": "27"
                            },
                            {
                                "name": "_r",
                                "type": "bytes32",
                                "value": "0xdc4f1c1f90ca6c20e51a52693464d5973a59146ecb2e213f3720c8a7f63107ec"
                            },
                            {
                                "name": "_s",
                                "type": "bytes32",
                                "value": "0x73fbcc790cc5047b215c44e6574ad2c25004ef260661d7847acdc6faadee67d9"
                            }
                        ],
                        "constructorArguments": "",
                        "name": "delegatedTransfer",
                        "returnParams": [
                            {
                                "name": "",
                                "type": "bool",
                                "value": true
                            }
                        ],
                        "signature": "delegatedTransfer(address,uint256,uint256,uint256,uint8,bytes32,bytes32)"
                    },
                    "errorInfo": "",
                    "fromAddress": "0x001c356c0be5dd6c91ca24ef04d9e10081510682",
                    "gasUsed": 85532,
                    "id": 0,
                    "methodDecoded": true,
                    "operation": "CALL",
                    "output": "0x0000000000000000000000000000000000000000000000000000000000000001",
                    "revert": false,
                    "revertMessage": "",
                    "selector": "0xc97e8480",
                    "status": true,
                    "value": "0"
                },
                "nodeType": 0
            },
            "1": {
                "invocation": {
                    "address": "0x0000000000000000000000000000000000000001",
                    "callData": "0x46891f22624cca6782ab5e064ccdd403783988db94029986e8354df4000000000000000000000000000000000000000000000000000000000000001bdc4f1c1f90ca6c20e51a52693464d5973a59146ecb2e213f3720c8a7f63107ec73fbcc790cc5047b215c44e6574ad2c25004ef260661d7847acdc6faadee67d9",
                    "decodedMethod": {
                        "callParams": [
                            {
                                "name": "hash",
                                "type": "bytes32",
                                "value": "0xfd14e55446891f22624cca6782ab5e064ccdd403783988db94029986e8354df4"
                            },
                            {
                                "name": "v",
                                "type": "uint256",
                                "value": "27"
                            },
                            {
                                "name": "r",
                                "type": "bytes32",
                                "value": "0xdc4f1c1f90ca6c20e51a52693464d5973a59146ecb2e213f3720c8a7f63107ec"
                            },
                            {
                                "name": "s",
                                "type": "bytes32",
                                "value": "0x73fbcc790cc5047b215c44e6574ad2c25004ef260661d7847acdc6faadee67d9"
                            }
                        ],
                        "constructorArguments": "",
                        "name": "ecrecover",
                        "returnParams": [
                            {
                                "name": "",
                                "type": "address",
                                "value": "0x20a26e3d154a17e7d50da26cd0d49183880246e3"
                            }
                        ],
                        "signature": "ecrecover(bytes32,uint256,bytes32,bytes32)"
                    },
                    "errorInfo": "",
                    "fromAddress": "0xdb25f211ab05b1c97d595516f45794528a807ad8",
                    "gasUsed": 3000,
                    "id": 1,
                    "methodDecoded": true,
                    "operation": "CALL",
                    "output": "0x00000000000000000000000020a26e3d154a17e7d50da26cd0d49183880246e3",
                    "revert": false,
                    "revertMessage": "",
                    "selector": "0xfd14e554",
                    "status": true,
                    "value": "0"
                },
                "nodeType": 0
            },
            "2": {
                "event": {
                    "contract": "0xdb25f211ab05b1c97d595516f45794528a807ad8",
                    "decodedLog": {
                        "name": "Transfer",
                        "params": [
                            {
                                "name": "_from",
                                "type": "address",
                                "value": "0x20a26e3d154a17e7d50da26cd0d49183880246e3"
                            },
                            {
                                "name": "_to",
                                "type": "address",
                                "value": "0x5a392540b2016c6d8edd0afd3c162315e73de957"
                            },
                            {
                                "decimalAvailable": true,
                                "name": "_value",
                                "type": "uint256",
                                "value": "2,000"
                            }
                        ],
                        "signature": "Transfer(address,address,uint256)"
                    },
                    "id": 2,
                    "logData": "0x00000000000000000000000000000000000000000000000000000000000007d0",
                    "logDecoded": true,
                    "operation": "EVENT",
                    "revert": false,
                    "status": true,
                    "topics": [
                        "0xddf252ad1be2c89b69c2b068fc378daa952ba7f163c4a11628f55a4df523b3ef",
                        "0x00000000000000000000000020a26e3d154a17e7d50da26cd0d49183880246e3",
                        "0x0000000000000000000000005a392540b2016c6d8edd0afd3c162315e73de957"
                    ]
                },
                "nodeType": 1
            },
            "3": {
                "event": {
                    "contract": "0xdb25f211ab05b1c97d595516f45794528a807ad8",
                    "decodedLog": {
                        "name": "Transfer",
                        "params": [
                            {
                                "name": "_from",
                                "type": "address",
                                "value": "0x20a26e3d154a17e7d50da26cd0d49183880246e3"
                            },
                            {
                                "name": "_to",
                                "type": "address",
                                "value": "0x70250fcfef983c9b912c8eefb7021b4b7bae836e"
                            },
                            {
                                "decimalAvailable": true,
                                "name": "_value",
                                "type": "uint256",
                                "value": "50"
                            }
                        ],
                        "signature": "Transfer(address,address,uint256)"
                    },
                    "id": 3,
                    "logData": "0x0000000000000000000000000000000000000000000000000000000000000032",
                    "logDecoded": true,
                    "operation": "EVENT",
                    "revert": false,
                    "status": true,
                    "topics": [
                        "0xddf252ad1be2c89b69c2b068fc378daa952ba7f163c4a11628f55a4df523b3ef",
                        "0x00000000000000000000000020a26e3d154a17e7d50da26cd0d49183880246e3",
                        "0x00000000000000000000000070250fcfef983c9b912c8eefb7021b4b7bae836e"
                    ]
                },
                "nodeType": 1
            },
            "4": {
                "event": {
                    "contract": "0xdb25f211ab05b1c97d595516f45794528a807ad8",
                    "decodedLog": {
                        "name": "Transfer",
                        "params": [
                            {
                                "name": "_from",
                                "type": "address",
                                "value": "0x20a26e3d154a17e7d50da26cd0d49183880246e3"
                            },
                            {
                                "name": "_to",
                                "type": "address",
                                "value": "0x001c356c0be5dd6c91ca24ef04d9e10081510682"
                            },
                            {
                                "decimalAvailable": true,
                                "name": "_value",
                                "type": "uint256",
                                "value": "0"
                            }
                        ],
                        "signature": "Transfer(address,address,uint256)"
                    },
                    "id": 4,
                    "logData": "0x0000000000000000000000000000000000000000000000000000000000000000",
                    "logDecoded": true,
                    "operation": "EVENT",
                    "revert": false,
                    "status": true,
                    "topics": [
                        "0xddf252ad1be2c89b69c2b068fc378daa952ba7f163c4a11628f55a4df523b3ef",
                        "0x00000000000000000000000020a26e3d154a17e7d50da26cd0d49183880246e3",
                        "0x000000000000000000000000001c356c0be5dd6c91ca24ef04d9e10081510682"
                    ]
                },
                "nodeType": 1
            }
        },
        "gasFlame": [
            {
                "children": [
                    {
                        "children": [
                            {
                                "children": [],
                                "depth": 0,
                                "name": "Initial Gas",
                                "value": 27800
                            },
                            {
                                "children": [
                                    {
                                        "children": [],
                                        "depth": 1,
                                        "name": "ecrecover",
                                        "value": 3000
                                    }
                                ],
                                "depth": 0,
                                "name": "Executed Gas",
                                "value": 57732
                            }
                        ],
                        "depth": -1,
                        "name": "Actual Gas Used",
                        "value": 85532
                    },
                    {
                        "children": [],
                        "depth": -1,
                        "name": "Refunded Gas",
                        "value": 0
                    }
                ],
                "depth": -2,
                "name": "Total Gas",
                "value": 85532
            }
        ],
        "isConfirmed": true,
        "mainTrace": [
            {
                "children": [
                    {
                        "children": [
                            {
                                "children": [],
                                "depth": 1,
                                "id": 1,
                                "order": 1
                            },
                            {
                                "children": [],
                                "depth": 1,
                                "id": 2,
                                "order": 2
                            },
                            {
                                "children": [],
                                "depth": 1,
                                "id": 3,
                                "order": 3
                            },
                            {
                                "children": [],
                                "depth": 1,
                                "id": 4,
                                "order": 4
                            }
                        ],
                        "depth": 0,
                        "id": 0,
                        "order": 0
                    }
                ],
                "depth": -1,
                "id": -1,
                "order": -1
            }
        ],
        "mainTraceNodeCount": 5,
        "parentIdMap": {
            "0": -1,
            "1": 0,
            "2": 0,
            "3": 0,
            "4": 0
        },
        "tidyTrace": [
            {
                "children": [
                    {
                        "children": [
                            {
                                "children": [],
                                "depth": 1,
                                "id": 1,
                                "order": 1
                            },
                            {
                                "children": [],
                                "depth": 1,
                                "id": 2,
                                "order": 2
                            },
                            {
                                "children": [],
                                "depth": 1,
                                "id": 3,
                                "order": 3
                            },
                            {
                                "children": [],
                                "depth": 1,
                                "id": 4,
                                "order": 4
                            }
                        ],
                        "depth": 0,
                        "id": 0,
                        "order": 0
                    }
                ],
                "depth": -1,
                "id": -1,
                "order": -1
            }
        ],
        "tidyTraceNodeCount": 5
    },
    "state_change": {
        "stateChanges": [
            {
                "address": "0xdb25f211ab05b1c97d595516f45794528a807ad8",
                "erc": "ERC-20",
                "slots": [
                    {
                        "current": "0x000000000000000000000000000000000000000000000000000000000003a5fc",
                        "key": "0xddc8ddd0fcf5bd6fa3004133fdeca002ad35098f18b31e032b8766aa6cc10944",
                        "prev": "0x000000000000000000000000000000000000000000000000000000000003a5ca"
                    },
                    {
                        "current": "0x0000000000000000000000000000000000000000000000000000000000000009",
                        "key": "0x03116889bc154d2ac55359245d33748fa7eb684954d2451ee19b64c72d4e5046",
                        "prev": "0x0000000000000000000000000000000000000000000000000000000000000008"
                    },
                    {
                        "current": "0x0000000000000000000000000000000000000000000000000000000000007f26",
                        "key": "0xba5d9ad893078fc3755ce28354dc9c7f002ec385498bf2a2f4862958584ac7ed",
                        "prev": "0x0000000000000000000000000000000000000000000000000000000000008728"
                    },
                    {
                        "current": "0x00000000000000000000000000000000000000000000000000000000000007d0",
                        "key": "0xc8c1fd4d157ae33251f37583db00116af3eebc01237e2d60b41053eb6e3ad678",
                        "prev": "0x0000000000000000000000000000000000000000000000000000000000000000"
                    }
                ],
                "storageVariables": [
                    {
                        "name": "accounts",
                        "type": "mapping(address => uint256)",
                        "value": {
                            "pairs": [
                                {
                                    "key": "0x20a26e3d154a17e7d50da26cd0d49183880246e3",
                                    "value": {
                                        "current": "32550",
                                        "prev": "34600",
                                        "typeTag": 1
                                    }
                                },
                                {
                                    "key": "0x5a392540b2016c6d8edd0afd3c162315e73de957",
                                    "value": {
                                        "current": "2000",
                                        "prev": "0",
                                        "typeTag": 1
                                    }
                                },
                                {
                                    "key": "0x70250fcfef983c9b912c8eefb7021b4b7bae836e",
                                    "value": {
                                        "current": "239100",
                                        "prev": "239050",
                                        "typeTag": 1
                                    }
                                }
                            ],
                            "typeTag": 4
                        }
                    },
                    {
                        "name": "nonces",
                        "type": "mapping(address => uint256)",
                        "value": {
                            "pairs": [
                                {
                                    "key": "0x20a26e3d154a17e7d50da26cd0d49183880246e3",
                                    "value": {
                                        "current": "9",
                                        "prev": "8",
                                        "typeTag": 1
                                    }
                                }
                            ],
                            "typeTag": 4
                        }
                    }
                ]
            }
        ]
    }
}