{
    "balance_change": {
        "balanceChanges": [
            {
                "account": "0x516a1b1d5e8b1d7090a09aeabae7e3a05120256b",
                "assets": [
                    {
                        "address": "0x686b30a80826340a59afa564c2a01b79128eb7dd",
                        "amount": "10,040.9712",
                        "iconUrl": "",
                        "isERC1155": false,
                        "isERC721": false,
                        "sign": false,
                        "value": ""
                    }
                ]
            },
            {
                "account": "0x915d7915f2b469bb654a7d903a5d4417cb8ea7df",
                "assets": [
                    {
                        "address": "0x686b30a80826340a59afa564c2a01b79128eb7dd",
                        "amount": "10,040.9712",
                        "iconUrl": "",
                        "isERC1155": false,
                        "isERC721": false,
                        "sign": true,
                        "value": ""
                    }
                ]
            }
        ]
    },
    "profile": {
        "basic_info": {
            "baseFee": "",
            "blockNumber": 8185881,
            "callData": "0xa9059cbb000000000000000000000000915d7915f2b469bb654a7d903a5d4417cb8ea7df0000000000000000000000000000000000000000000002205277bb0df7bc0000",
            "debugEnable": true,
            "errorInfo": "",
            "eventCount": 1,
            "feeRecipient": "0xea674fdde714fd979de3edf0f56aa9716b898ec8",
            "formatValue": "0",
            "gasLimit": 100000,
            "gasPrice": "2",
            "gasUsed": 38452,
            "intTxnCount": 0,
            "internalRevert": false,
            "internalRevertMessage": "",
            "isContractCreation": false,
            "isFlashloan": false,
            "maxFee": "",
            "nonce": 1,
            "overwritedBlockNumber": -1,
            "priorityFee": "",
            "receiver": "0x686b30a80826340a59afa564c2a01b79128eb7dd",
            "revertMessage": "",
            "sender": "0x516a1b1d5e8b1d7090a09aeabae7e3a05120256b",
            "simulationEnable": true,
            "sourceTxnHash": "0xd5c0df437309f73335db3b83d4db56bfb6614386cdde402e6f07b3c158e22482",
            "status": true,
            "timestamp": "2019-07-20T06:15:51Z",
            "transactionFee": "0.000076904",
            "txnHash": "0xd5c0df437309f73335db3b83d4db56bfb6614386cdde402e6f07b3c158e22482",
            "txnIndex": 64,
            "type": 0,
            "value": "0"
        },
        "fund_flow": [
            {
                "amount": "10,040.9712",
                "from": "0x516a1b1d5e8b1d7090a09aeabae7e3a05120256b",
                "id": 1,
                "isERC1155": false,
                "isERC721": false,
                "isReverted": false,
                "order": 1,
                "to": "0x915d7915f2b469bb654a7d903a5d4417cb8ea7df",
                "token": "0x686b30a80826340a59afa564c2a01b79128eb7dd"
            }
        ],
        "token_infos": [
            {
                "address": "0xeeeeeeeeeeeeeeeeeeeeeeeeeeeeeeeeeeeeeeee",
                "decimals": 18
            },
            {
                "address": "0x686b30a80826340a59afa564c2a01b79128eb7dd",
                "decimals": 18
            },
            {
                "address": "0xc02aaa39b223fe8d0a0e5c4f27ead9083c756cc2",
                "decimals": 18
            }
        ]
    },
    "address_label": {
        "labels": [
            {
                "address": "0x0000000000000000000000000000000000000002",
                "label": "Precompiled"
            },
            {
                "address": "0x0000000000000000000000000000000000000003",
                "label": "Precompiled"
            },
            {
                "address": "0x0000000000000000000000000000000000000004",
                "label": "Precompiled"
            },
            {
                "address": "0xeeeeeeeeeeeeeeeeeeeeeeeeeeeeeeeeeeeeeeee",
                "label": "Ether"
            },
            {
                "address": "0x915d7915f2b469bb654a7d903a5d4417cb8ea7df",
                "label": "FCoin"
            },
            {
                "address": "0x686b30a80826340a59afa564c2a01b79128eb7dd",
                "label": "Healthy Happy Harmony (HHH)"
            },
            {
                "address": "0x0000000000000000000000000000000000000001",
                "label": "Precompiled"
            }
        ]
    },
    "trace": {
        "accountLabels": null,
        "dataMap": {
            "-1": {
                "invocation": {
                    "address": "0x516a1b1d5e8b1d7090a09aeabae7e3a05120256b",
                    "callData": "",
                    "decodedMethod": null,
                    "errorInfo": "",
                    "fromAddress": "",
                    "gasUsed": 0,
                    "id": -1,
                    "methodDecoded": false,
                    "operation": "",
                    "output": "",
                    "revert": false,
                    "revertMessage": "",
                    "selector": "",
                    "status": false,
                    "value": ""
                },
                "nodeType": 0
            },
            "0": {
                "invocation": {
                    "address": "0x686b30a80826340a59afa564c2a01b79128eb7dd",
                    "callData": "0x000000000000000000000000915d7915f2b469bb654a7d903a5d4417cb8ea7df0000000000000000000000000000000000000000000002205277bb0df7bc0000",
                    "decodedMethod": {
                        "callParams": [
                            {
                                "name": "_to",
                                "type": "address",
                                "value": "0x915d7915f2b469bb654a7d903a5d4417cb8ea7df"
                            },
                            {
                                "decimalAvailable": true,
                                "name": "_value",
                                "type": "uint256",
                                "value": "10,040,971,200,000,000,000,000"
                            }
                        ],
                        "constructorArguments": "",
                        "name": "transfer",
                        "returnParams": [],
                        "signature": "transfer(address,uint256)"
                    },
                    "errorInfo": "",
                    "fromAddress": "0x516a1b1d5e8b1d7090a09aeabae7e3a05120256b",
                    "gasUsed": 38452,
                    "id": 0,
                    "methodDecoded": true,
                    "operation": "CALL",
                    "output": "",
                    "revert": false,
                    "revertMessage": "",
                    "selector": "0xa9059cbb",
                    "status": true,
                    "value": "0"
                },
                "nodeType": 0
            },
            "1": {
                "event": {
                    "contract": "0x686b30a80826340a59afa564c2a01b79128eb7dd",
                    "decodedLog": {
                        "name": "Transfer",
                        "params": [
                            {
                                "name": "from",
                                "type": "address",
                                "value": "0x516a1b1d5e8b1d7090a09aeabae7e3a05120256b"
                            },
                            {
                                "name": "to",
                                "type": "address",
                                "value": "0x915d7915f2b469bb654a7d903a5d4417cb8ea7df"
                            },
                            {
                                "decimalAvailable": true,
                                "name": "value",
                                "type": "uint256",
                                "value": "10,040,971,200,000,000,000,000"
                            }
                        ],
                        "signature": "Transfer(address,address,uint256)"
                    },
                    "id": 1,
                    "logData": "0x0000000000000000000000000000000000000000000002205277bb0df7bc0000",
                    "logDecoded": true,
                    "operation": "EVENT",
                    "revert": false,
                    "status": true,
                    "topics": [
                        "0xddf252ad1be2c89b69c2b068fc378daa952ba7f163c4a11628f55a4df523b3ef",
                        "0x000000000000000000000000516a1b1d5e8b1d7090a09aeabae7e3a05120256b",
                        "0x000000000000000000000000915d7915f2b469bb654a7d903a5d4417cb8ea7df"
                    ]
                },
                "nodeType": 1
            }
        },
        "gasFlame": [
            {
                "children": [
                    {
                        "children": [
                            {
                                "children": [],
                                "depth": 0,
                                "name": "Initial Gas",
                                "value": 23320
                            },
                            {
                                "children": [],
                                "depth": 0,
                                "name": "Executed Gas",
                                "value": 15132
                            }
                        ],
                        "depth": -1,
                        "name": "Actual Gas Used",
                        "value": 38452
                    },
                    {
                        "children": [],
                        "depth": -1,
                        "name": "Refunded Gas",
                        "value": 0
                    }
                ],
                "depth": -2,
                "name": "Total Gas",
                "value": 38452
            }
        ],
        "isConfirmed": true,
        "mainTrace": [
            {
                "children": [
                    {
                        "children": [
                            {
                                "children": [],
                                "depth": 1,
                                "id": 1,
                                "order": 1
                            }
                        ],
                        "depth": 0,
                        "id": 0,
                        "order": 0
                    }
                ],
                "depth": -1,
                "id": -1,
                "order": -1
            }
        ],
        "mainTraceNodeCount": 2,
        "parentIdMap": {
            "0": -1,
            "1": 0
        },
        "tidyTrace": [
            {
                "children": [
                    {
                        "children": [
                            {
                                "children": [],
                                "depth": 1,
                                "id": 1,
                                "order": 1
                            }
                        ],
                        "depth": 0,
                        "id": 0,
                        "order": 0
                    }
                ],
                "depth": -1,
                "id": -1,
                "order": -1
            }
        ],
        "tidyTraceNodeCount": 2
    },
    "state_change": {
        "stateChanges": [
            {
                "address": "0x686b30a80826340a59afa564c2a01b79128eb7dd",
                "erc": "",
                "slots": [
                    {
                        "current": "0x000000000000000000000000000000000000000000079cd126943170de23ea00",
                        "key": "0xeb9d435340ad1a9b6e03b90108afa51bf42259b04335b6e0356e9d5a0f1b1c6e",
                        "prev": "0x000000000000000000000000000000000000000000079ab0d41c7662e667ea00"
                    },
                    {
                        "current": "0x000000000000000000000000000000000000000000000003d952abd36cbc0000",
                        "key": "0x252dea3221701cd305e7c3a8e87b11e979eb6309d3944f785881a07ac45bc6a5",
                        "prev": "0x0000000000000000000000000000000000000000000002242bca66e164780000"
                    }
                ],
                "storageVariables": [
                    {
                        "name": "balanceOf",
                        "type": "mapping(address => uint256)",
                        "value": {
                            "pairs": [
                                {
                                    "key": "0x516a1b1d5e8b1d7090a09aeabae7e3a05120256b",
                                    "value": {
                                        "current": "71000000000000000000",
                                        "prev": "10111971200000000000000",
                                        "typeTag": 1
                                    }
                                },
                                {
                                    "key": "0x915d7915f2b469bb654a7d903a5d4417cb8ea7df",
                                    "value": {
                                        "current": "9203028058042705000000000",
                                        "prev": "9192987086842705000000000",
                                        "typeTag": 1
                                    }
                                }
                            ],
                            "typeTag": 4
                        }
                    }
                ]
            }
        ]
    }
}