{
    "balance_change": {
        "balanceChanges": [
            {
                "account": "0xf88955c9e03c18b4b403ab3f9c9a88e2592d122f",
                "assets": [
                    {
                        "address": "0x68d57c9a1c35f63e2c83ee8e49a64e9d70528d25",
                        "amount": "484.5",
                        "iconUrl": "https://assets.blocksec.com/icon/677a6bf41033cc6a5fbbc2e80c49b7147d87b17efcf04e01199522b316136007.png",
                        "isERC1155": false,
                        "isERC721": false,
                        "sign": false,
                        "value": ""
                    }
                ]
            },
            {
                "account": "0x45b23212efde70167427d7cc852ab8ed0decfd81",
                "assets": [
                    {
                        "address": "0x68d57c9a1c35f63e2c83ee8e49a64e9d70528d25",
                        "amount": "484.5",
                        "iconUrl": "https://assets.blocksec.com/icon/677a6bf41033cc6a5fbbc2e80c49b7147d87b17efcf04e01199522b316136007.png",
                        "isERC1155": false,
                        "isERC721": false,
                        "sign": true,
                        "value": ""
                    }
                ]
            }
        ]
    },
    "profile": {
        "basic_info": {
            "baseFee": "",
            "blockNumber": 5142057,
            "callData": "0xa9059cbb00000000000000000000000045b23212efde70167427d7cc852ab8ed0decfd8100000000000000000000000000000000000000000000001a43c9c7024cc20000",
            "debugEnable": true,
            "errorInfo": "",
            "eventCount": 1,
            "feeRecipient": "0xb75d1e62b10e4ba91315c4aa3facc536f8a922f5",
            "formatValue": "0",
            "gasLimit": 53103,
            "gasPrice": "99",
            "gasUsed": 38103,
            "intTxnCount": 0,
            "internalRevert": false,
            "internalRevertMessage": "",
            "isContractCreation": false,
            "isFlashloan": false,
            "maxFee": "",
            "nonce": 7,
            "overwritedBlockNumber": -1,
            "priorityFee": "",
            "receiver": "0x68d57c9a1c35f63e2c83ee8e49a64e9d70528d25",
            "revertMessage": "",
            "sender": "0xf88955c9e03c18b4b403ab3f9c9a88e2592d122f",
            "simulationEnable": true,
            "sourceTxnHash": "0xd57bbaeb9a05fe58b5b3cf802e0bff36de3b268e83e72227ecadab8382522389",
            "status": true,
            "timestamp": "2018-02-23T12:45:41Z",
            "transactionFee": "0.003772197",
            "txnHash": "0xd57bbaeb9a05fe58b5b3cf802e0bff36de3b268e83e72227ecadab8382522389",
            "txnIndex": 3,
            "type": 0,
            "value": "0"
        },
        "fund_flow": [
            {
                "amount": "484.5",
                "from": "0xf88955c9e03c18b4b403ab3f9c9a88e2592d122f",
                "id": 1,
                "isERC1155": false,
                "isERC721": false,
                "isReverted": false,
                "order": 1,
                "to": "0x45b23212efde70167427d7cc852ab8ed0decfd81",
                "token": "0x68d57c9a1c35f63e2c83ee8e49a64e9d70528d25"
            }
        ],
        "token_infos": [
            {
                "address": "0xc02aaa39b223fe8d0a0e5c4f27ead9083c756cc2",
                "decimals": 18
            },
            {
                "address": "0xeeeeeeeeeeeeeeeeeeeeeeeeeeeeeeeeeeeeeeee",
                "decimals": 18
            },
            {
                "address": "0x68d57c9a1c35f63e2c83ee8e49a64e9d70528d25",
                "decimals": 18
            }
        ]
    },
    "address_label": {
        "labels": [
            {
                "address": "0x0000000000000000000000000000000000000004",
                "label": "Precompiled"
            },
            {
                "address": "0xeeeeeeeeeeeeeeeeeeeeeeeeeeeeeeeeeeeeeeee",
                "label": "Ether"
            },
            {
                "address": "0x45b23212efde70167427d7cc852ab8ed0decfd81",
                "label": "BITTREX"
            },
            {
                "address": "0x68d57c9a1c35f63e2c83ee8e49a64e9d70528d25",
                "label": "Sirin Labs Token"
            },
            {
                "address": "0x0000000000000000000000000000000000000001",
                "label": "Precompiled"
            },
            {
                "address": "0x0000000000000000000000000000000000000002",
                "label": "Precompiled"
            },
            {
                "address": "0x0000000000000000000000000000000000000003",
                "label": "Precompiled"
            }
        ]
    },
    "trace": {
        "accountLabels": null,
        "dataMap": {
            "-1": {
                "invocation": {
                    "address": "0xf88955c9e03c18b4b403ab3f9c9a88e2592d122f",
                    "callData": "",
                    "decodedMethod": null,
                    "errorInfo": "",
                    "fromAddress": "",
                    "gasUsed": 0,
                    "id": -1,
                    "methodDecoded": false,
                    "operation": "",
                    "output": "",
                    "revert": false,
                    "revertMessage": "",
                    "selector": "",
                    "status": false,
                    "value": ""
                },
                "nodeType": 0
            },
            "0": {
                "invocation": {
                    "address": "0x68d57c9a1c35f63e2c83ee8e49a64e9d70528d25",
                    "callData": "0x00000000000000000000000045b23212efde70167427d7cc852ab8ed0decfd8100000000000000000000000000000000000000000000001a43c9c7024cc20000",
                    "decodedMethod": {
                        "callParams": [
                            {
                                "name": "_to",
                                "type": "address",
                                "value": "0x45b23212efde70167427d7cc852ab8ed0decfd81"
                            },
                            {
                                "decimalAvailable": true,
                                "name": "_value",
                                "type": "uint256",
                                "value": "484,500,000,000,000,000,000"
                            }
                        ],
                        "constructorArguments": "",
                        "name": "transfer",
                        "returnParams": [
                            {
                                "name": "",
                                "type": "bool",
                                "value": true
                            }
                        ],
                        "signature": "transfer(address,uint256)"
                    },
                    "errorInfo": "",
                    "fromAddress": "0xf88955c9e03c18b4b403ab3f9c9a88e2592d122f",
                    "gasUsed": 38103,
                    "id": 0,
                    "methodDecoded": true,
                    "operation": "CALL",
                    "output": "0x0000000000000000000000000000000000000000000000000000000000000001",
                    "revert": false,
                    "revertMessage": "",
                    "selector": "0xa9059cbb",
                    "status": true,
                    "value": "0"
                },
                "nodeType": 0
            },
            "1": {
                "event": {
                    "contract": "0x68d57c9a1c35f63e2c83ee8e49a64e9d70528d25",
                    "decodedLog": {
                        "name": "Transfer",
                        "params": [
                            {
                                "name": "from",
                                "type": "address",
                                "value": "0xf88955c9e03c18b4b403ab3f9c9a88e2592d122f"
                            },
                            {
                                "name": "to",
                                "type": "address",
                                "value": "0x45b23212efde70167427d7cc852ab8ed0decfd81"
                            },
                            {
                                "decimalAvailable": true,
                                "name": "value",
                                "type": "uint256",
                                "value": "484,500,000,000,000,000,000"
                            }
                        ],
                        "signature": "Transfer(address,address,uint256)"
                    },
                    "id": 1,
                    "logData": "0x00000000000000000000000000000000000000000000001a43c9c7024cc20000",
                    "logDecoded": true,
                    "operation": "EVENT",
                    "revert": false,
                    "status": true,
                    "topics": [
                        "0xddf252ad1be2c89b69c2b068fc378daa952ba7f163c4a11628f55a4df523b3ef",
                        "0x000000000000000000000000f88955c9e03c18b4b403ab3f9c9a88e2592d122f",
                        "0x00000000000000000000000045b23212efde70167427d7cc852ab8ed0decfd81"
                    ]
                },
                "nodeType": 1
            }
        },
        "gasFlame": [
            {
                "children": [
                    {
                        "children": [
                            {
                                "children": [],
                                "depth": 0,
                                "name": "Initial Gas",
                                "value": 23256
                            },
                            {
                                "children": [],
                                "depth": 0,
                                "name": "Executed Gas",
                                "value": 29847
                            }
                        ],
                        "depth": -1,
                        "name": "Actual Gas Used",
                        "value": 38103
                    },
                    {
                        "children": [],
                        "depth": -1,
                        "name": "Refunded Gas",
                        "value": 15000
                    }
                ],
                "depth": -2,
                "name": "Total Gas",
                "value": 53103
            }
        ],
        "isConfirmed": true,
        "mainTrace": [
            {
                "children": [
                    {
                        "children": [
                            {
                                "children": [],
                                "depth": 1,
                                "id": 1,
                                "order": 1
                            }
                        ],
                        "depth": 0,
                        "id": 0,
                        "order": 0
                    }
                ],
                "depth": -1,
                "id": -1,
                "order": -1
            }
        ],
        "mainTraceNodeCount": 2,
        "parentIdMap": {
            "0": -1,
            "1": 0
        },
        "tidyTrace": [
            {
                "children": [
                    {
                        "children": [
                            {
                                "children": [],
                                "depth": 1,
                                "id": 1,
                                "order": 1
                            }
                        ],
                        "depth": 0,
                        "id": 0,
                        "order": 0
                    }
                ],
                "depth": -1,
                "id": -1,
                "order": -1
            }
        ],
        "tidyTraceNodeCount": 2
    },
    "state_change": {
        "stateChanges": [
            {
                "address": "0x68d57c9a1c35f63e2c83ee8e49a64e9d70528d25",
                "erc": "ERC-20",
                "slots": [
                    {
                        "current": "0x0000000000000000000000000000000000000000000000000000000000000000",
                        "key": "0xc3b6472ab1d46a04cfa90c67539e1cdb81897aa1a6fbb737ea355417b08345f5",
                        "prev": "0x00000000000000000000000000000000000000000000001a43c9c7024cc20000"
                    },
                    {
                        "current": "0x00000000000000000000000000000000000000000000001a43c9c7024cc20000",
                        "key": "0x5999f5c10651a17ce38a5726e4c55806b3e29430f591e74dd9efbfb4b04a936f",
                        "prev": "0x0000000000000000000000000000000000000000000000000000000000000000"
                    }
                ],
                "storageVariables": [
                    {
                        "name": "balances",
                        "type": "mapping(address => uint256)",
                        "value": {
                            "pairs": [
                                {
                                    "key": "0x45b23212efde70167427d7cc852ab8ed0decfd81",
                                    "value": {
                                        "current": "484500000000000000000",
                                        "prev": "0",
                                        "typeTag": 1
                                    }
                                },
                                {
                                    "key": "0xf88955c9e03c18b4b403ab3f9c9a88e2592d122f",
                                    "value": {
                                        "current": "0",
                                        "prev": "484500000000000000000",
                                        "typeTag": 1
                                    }
                                }
                            ],
                            "typeTag": 4
                        }
                    }
                ]
            }
        ]
    }
}