{
    "balance_change": {
        "balanceChanges": [
            {
                "account": "0x23d8646672cdca0b3261adc46aa2d5a44b0a56eb",
                "assets": [
                    {
                        "address": "0x823556202e86763853b40e9cde725f412e294689",
                        "amount": "2,288.66",
                        "iconUrl": "",
                        "isERC1155": false,
                        "isERC721": false,
                        "sign": false,
                        "value": "102.9510629"
                    }
                ]
            },
            {
                "account": "0x16d297c661540d6a15f4cb561ea58315fcba7b19",
                "assets": [
                    {
                        "address": "0x823556202e86763853b40e9cde725f412e294689",
                        "amount": "2,288.66",
                        "iconUrl": "",
                        "isERC1155": false,
                        "isERC721": false,
                        "sign": true,
                        "value": "102.9510629"
                    }
                ]
            }
        ]
    },
    "profile": {
        "basic_info": {
            "baseFee": "13.413245824",
            "blockNumber": 16137486,
            "callData": "0x7b97008d00000000000000000000000000000000000000000000007c1189b028dd820000",
            "debugEnable": true,
            "errorInfo": "",
            "eventCount": 3,
            "feeRecipient": "0x690b9a9e9aa1c9db991c7721a92d351db4fac990",
            "formatValue": "0",
            "gasLimit": 73493,
            "gasPrice": "14.913245824",
            "gasUsed": 73493,
            "intTxnCount": 4,
            "internalRevert": false,
            "internalRevertMessage": "",
            "isContractCreation": false,
            "isFlashloan": false,
            "maxFee": "20.672637265",
            "nonce": 441,
            "overwritedBlockNumber": -1,
            "priorityFee": "1.5",
            "receiver": "0x16d297c661540d6a15f4cb561ea58315fcba7b19",
            "revertMessage": "",
            "sender": "0x23d8646672cdca0b3261adc46aa2d5a44b0a56eb",
            "simulationEnable": true,
            "sourceTxnHash": "0xd639cf96855bb2fb4041a86e4399a71ffda8986a3e7efc50752ee98836965882",
            "status": true,
            "timestamp": "2022-12-08T04:04:23Z",
            "transactionFee": "0.001096019175343232",
            "txnHash": "0xd639cf96855bb2fb4041a86e4399a71ffda8986a3e7efc50752ee98836965882",
            "txnIndex": 50,
            "type": 2,
            "value": "0"
        },
        "fund_flow": [
            {
                "amount": "2,288.66",
                "from": "0x23d8646672cdca0b3261adc46aa2d5a44b0a56eb",
                "id": 1,
                "isERC1155": false,
                "isERC721": false,
                "isReverted": false,
                "order": 1,
                "to": "0x16d297c661540d6a15f4cb561ea58315fcba7b19",
                "token": "0x823556202e86763853b40e9cde725f412e294689"
            }
        ],
        "token_infos": [
            {
                "address": "0x823556202e86763853b40e9cde725f412e294689",
                "decimals": 18
            },
            {
                "address": "0xc02aaa39b223fe8d0a0e5c4f27ead9083c756cc2",
                "decimals": 18
            },
            {
                "address": "0xeeeeeeeeeeeeeeeeeeeeeeeeeeeeeeeeeeeeeeee",
                "decimals": 18
            }
        ]
    },
    "address_label": {
        "labels": [
            {
                "address": "0x0000000000000000000000000000000000000002",
                "label": "Precompiled"
            },
            {
                "address": "0x0000000000000000000000000000000000000004",
                "label": "Precompiled"
            },
            {
                "address": "0xeeeeeeeeeeeeeeeeeeeeeeeeeeeeeeeeeeeeeeee",
                "label": "Ether"
            },
            {
                "address": "0x7a250d5630b4cf539739df2c5dacb4c659f2488d",
                "label": "Uniswap V2: Router 2"
            },
            {
                "address": "0xa0b86991c6218b36c1d19d4a2e9eb0ce3606eb48",
                "label": "Circle: USDC Token"
            },
            {
                "address": "0x0000000000000000000000000000000000000001",
                "label": "Precompiled"
            },
            {
                "address": "0x0000000000000000000000000000000000000003",
                "label": "Precompiled"
            },
            {
                "address": "0x11181bd3baf5ce2a478e98361985d42625de35d1",
                "label": "Uniswap V2: ASTO-USDC"
            },
            {
                "address": "0x16d297c661540d6a15f4cb561ea58315fcba7b19",
                "label": "NFLCreditsPurchase"
            },
            {
                "address": "0x823556202e86763853b40e9cde725f412e294689",
                "label": "Altered State Machine: ASTO Token"
            }
        ]
    },
    "trace": {
        "accountLabels": null,
        "dataMap": {
            "-1": {
                "invocation": {
                    "address": "0x23d8646672cdca0b3261adc46aa2d5a44b0a56eb",
                    "callData": "",
                    "decodedMethod": null,
                    "errorInfo": "",
                    "fromAddress": "",
                    "gasUsed": 0,
                    "id": -1,
                    "methodDecoded": false,
                    "operation": "",
                    "output": "",
                    "revert": false,
                    "revertMessage": "",
                    "selector": "",
                    "status": false,
                    "value": ""
                },
                "nodeType": 0
            },
            "0": {
                "invocation": {
                    "address": "0x16d297c661540d6a15f4cb561ea58315fcba7b19",
                    "callData": "0x00000000000000000000000000000000000000000000007c1189b028dd820000",
                    "decodedMethod": {
                        "callParams": [
                            {
                                "name": "astoAmount",
                                "type": "uint256",
                                "value": "2,288,660,000,000,000,000,000"
                            }
                        ],
                        "constructorArguments": "",
                        "name": "purchaseTokens",
                        "returnParams": [],
                        "signature": "purchaseTokens(uint256)"
                    },
                    "errorInfo": "",
                    "fromAddress": "0x23d8646672cdca0b3261adc46aa2d5a44b0a56eb",
                    "gasUsed": 73493,
                    "id": 0,
                    "methodDecoded": true,
                    "operation": "CALL",
                    "output": "",
                    "revert": false,
                    "revertMessage": "",
                    "selector": "0x7b97008d",
                    "status": true,
                    "value": "0"
                },
                "nodeType": 0
            },
            "1": {
                "invocation": {
                    "address": "0x823556202e86763853b40e9cde725f412e294689",
                    "callData": "0x00000000000000000000000023d8646672cdca0b3261adc46aa2d5a44b0a56eb00000000000000000000000016d297c661540d6a15f4cb561ea58315fcba7b19",
                    "decodedMethod": {
                        "callParams": [
                            {
                                "name": "owner",
                                "type": "address",
                                "value": "0x23d8646672cdca0b3261adc46aa2d5a44b0a56eb"
                            },
                            {
                                "name": "spender",
                                "type": "address",
                                "value": "0x16d297c661540d6a15f4cb561ea58315fcba7b19"
                            }
                        ],
                        "constructorArguments": "",
                        "name": "allowance",
                        "returnParams": [
                            {
                                "decimalAvailable": true,
                                "name": "",
                                "type": "uint256",
                                "value": "8,157,330,000,000,000,000,000"
                            }
                        ],
                        "signature": "allowance(address,address)"
                    },
                    "errorInfo": "",
                    "fromAddress": "0x16d297c661540d6a15f4cb561ea58315fcba7b19",
                    "gasUsed": 3241,
                    "id": 1,
                    "methodDecoded": true,
                    "operation": "STATICCALL",
                    "output": "0x0000000000000000000000000000000000000000000001ba35b1df9d05350000",
                    "revert": false,
                    "revertMessage": "",
                    "selector": "0xdd62ed3e",
                    "status": true,
                    "value": "0"
                },
                "nodeType": 0
            },
            "2": {
                "invocation": {
                    "address": "0x823556202e86763853b40e9cde725f412e294689",
                    "callData": "0x00000000000000000000000023d8646672cdca0b3261adc46aa2d5a44b0a56eb00000000000000000000000016d297c661540d6a15f4cb561ea58315fcba7b1900000000000000000000000000000000000000000000007c1189b028dd820000",
                    "decodedMethod": {
                        "callParams": [
                            {
                                "name": "from",
                                "type": "address",
                                "value": "0x23d8646672cdca0b3261adc46aa2d5a44b0a56eb"
                            },
                            {
                                "name": "to",
                                "type": "address",
                                "value": "0x16d297c661540d6a15f4cb561ea58315fcba7b19"
                            },
                            {
                                "decimalAvailable": true,
                                "name": "amount",
                                "type": "uint256",
                                "value": "2,288,660,000,000,000,000,000"
                            }
                        ],
                        "constructorArguments": "",
                        "name": "transferFrom",
                        "returnParams": [
                            {
                                "name": "",
                                "type": "bool",
                                "value": true
                            }
                        ],
                        "signature": "transferFrom(address,address,uint256)"
                    },
                    "errorInfo": "",
                    "fromAddress": "0x16d297c661540d6a15f4cb561ea58315fcba7b19",
                    "gasUsed": 19479,
                    "id": 2,
                    "methodDecoded": true,
                    "operation": "CALL",
                    "output": "0x0000000000000000000000000000000000000000000000000000000000000001",
                    "revert": false,
                    "revertMessage": "",
                    "selector": "0x23b872dd",
                    "status": true,
                    "value": "0"
                },
                "nodeType": 0
            },
            "3": {
                "event": {
                    "contract": "0x823556202e86763853b40e9cde725f412e294689",
                    "decodedLog": {
                        "name": "Approval",
                        "params": [
                            {
                                "name": "owner",
                                "type": "address",
                                "value": "0x23d8646672cdca0b3261adc46aa2d5a44b0a56eb"
                            },
                            {
                                "name": "spender",
                                "type": "address",
                                "value": "0x16d297c661540d6a15f4cb561ea58315fcba7b19"
                            },
                            {
                                "decimalAvailable": true,
                                "name": "value",
                                "type": "uint256",
                                "value": "5,868,670,000,000,000,000,000"
                            }
                        ],
                        "signature": "Approval(address,address,uint256)"
                    },
                    "id": 3,
                    "logData": "0x00000000000000000000000000000000000000000000013e24282f7427b30000",
                    "logDecoded": true,
                    "operation": "EVENT",
                    "revert": false,
                    "status": true,
                    "topics": [
                        "0x8c5be1e5ebec7d5bd14f71427d1e84f3dd0314c0f7b2291e5b200ac8c7c3b925",
                        "0x00000000000000000000000023d8646672cdca0b3261adc46aa2d5a44b0a56eb",
                        "0x00000000000000000000000016d297c661540d6a15f4cb561ea58315fcba7b19"
                    ]
                },
                "nodeType": 1
            },
            "4": {
                "event": {
                    "contract": "0x823556202e86763853b40e9cde725f412e294689",
                    "decodedLog": {
                        "name": "Transfer",
                        "params": [
                            {
                                "name": "from",
                                "type": "address",
                                "value": "0x23d8646672cdca0b3261adc46aa2d5a44b0a56eb"
                            },
                            {
                                "name": "to",
                                "type": "address",
                                "value": "0x16d297c661540d6a15f4cb561ea58315fcba7b19"
                            },
                            {
                                "decimalAvailable": true,
                                "name": "value",
                                "type": "uint256",
                                "value": "2,288,660,000,000,000,000,000"
                            }
                        ],
                        "signature": "Transfer(address,address,uint256)"
                    },
                    "id": 4,
                    "logData": "0x00000000000000000000000000000000000000000000007c1189b028dd820000",
                    "logDecoded": true,
                    "operation": "EVENT",
                    "revert": false,
                    "status": true,
                    "topics": [
                        "0xddf252ad1be2c89b69c2b068fc378daa952ba7f163c4a11628f55a4df523b3ef",
                        "0x00000000000000000000000023d8646672cdca0b3261adc46aa2d5a44b0a56eb",
                        "0x00000000000000000000000016d297c661540d6a15f4cb561ea58315fcba7b19"
                    ]
                },
                "nodeType": 1
            },
            "5": {
                "invocation": {
                    "address": "0x7a250d5630b4cf539739df2c5dacb4c659f2488d",
                    "callData": "0x00000000000000000000000000000000000000000000007c1189b028dd82000000000000000000000000000000000000000000000000000000000000000000400000000000000000000000000000000000000000000000000000000000000002000000000000000000000000823556202e86763853b40e9cde725f412e294689000000000000000000000000a0b86991c6218b36c1d19d4a2e9eb0ce3606eb48",
                    "decodedMethod": {
                        "callParams": [
                            {
                                "name": "amountIn",
                                "type": "uint256",
                                "value": "2,288,660,000,000,000,000,000"
                            },
                            {
                                "name": "path",
                                "type": "address[]",
                                "value": [
                                    "0x823556202e86763853b40e9cde725f412e294689",
                                    "0xa0b86991c6218b36c1d19d4a2e9eb0ce3606eb48"
                                ]
                            }
                        ],
                        "constructorArguments": "",
                        "name": "getAmountsOut",
                        "returnParams": [
                            {
                                "name": "amounts",
                                "type": "uint256[]",
                                "value": [
                                    "2,288,660,000,000,000,000,000",
                                    "102,952,915"
                                ]
                            }
                        ],
                        "signature": "getAmountsOut(uint256,address[])"
                    },
                    "errorInfo": "",
                    "fromAddress": "0x16d297c661540d6a15f4cb561ea58315fcba7b19",
                    "gasUsed": 8582,
                    "id": 5,
                    "methodDecoded": true,
                    "operation": "STATICCALL",
                    "output": "0x0000000000000000000000000000000000000000000000000000000000000020000000000000000000000000000000000000000000000000000000000000000200000000000000000000000000000000000000000000007c1189b028dd820000000000000000000000000000000000000000000000000000000000000622efd3",
                    "revert": false,
                    "revertMessage": "",
                    "selector": "0xd06ca61f",
                    "status": true,
                    "value": "0"
                },
                "nodeType": 0
            },
            "6": {
                "invocation": {
                    "address": "0x11181bd3baf5ce2a478e98361985d42625de35d1",
                    "callData": "0x",
                    "decodedMethod": {
                        "callParams": [],
                        "constructorArguments": "",
                        "name": "getReserves",
                        "returnParams": [
                            {
                                "name": "_reserve0",
                                "type": "uint112",
                                "value": "50,832,991,548,502,648,947,975,682"
                            },
                            {
                                "name": "_reserve1",
                                "type": "uint112",
                                "value": "2,293,651,200,105"
                            },
                            {
                                "name": "_blockTimestampLast",
                                "type": "uint32",
                                "value": "1,670,471,759"
                            }
                        ],
                        "signature": "getReserves()"
                    },
                    "errorInfo": "",
                    "fromAddress": "0x7a250d5630b4cf539739df2c5dacb4c659f2488d",
                    "gasUsed": 2504,
                    "id": 6,
                    "methodDecoded": true,
                    "operation": "STATICCALL",
                    "output": "0x0000000000000000000000000000000000000000002a0c4dfe58b732c303a602000000000000000000000000000000000000000000000000000002160843d869000000000000000000000000000000000000000000000000000000006391604f",
                    "revert": false,
                    "revertMessage": "",
                    "selector": "0x0902f1ac",
                    "status": true,
                    "value": "0"
                },
                "nodeType": 0
            },
            "7": {
                "event": {
                    "contract": "0x16d297c661540d6a15f4cb561ea58315fcba7b19",
                    "decodedLog": {
                        "name": "PurchaseCredits",
                        "params": [
                            {
                                "name": "from",
                                "type": "address",
                                "value": "0x23d8646672cdca0b3261adc46aa2d5a44b0a56eb"
                            },
                            {
                                "name": "astoAmount",
                                "type": "uint256",
                                "value": "2,288,660,000,000,000,000,000"
                            },
                            {
                                "name": "creditsAmount",
                                "type": "uint256",
                                "value": "51,475,000,000,000,000,000"
                            }
                        ],
                        "signature": "PurchaseCredits(address,uint256,uint256)"
                    },
                    "id": 7,
                    "logData": "0x",
                    "logDecoded": true,
                    "operation": "EVENT",
                    "revert": false,
                    "status": true,
                    "topics": [
                        "0x1eb29005fa909c1ac3a0eb91cab59973a4c6a0d0e1726d3cce8cf855010302eb",
                        "0x00000000000000000000000023d8646672cdca0b3261adc46aa2d5a44b0a56eb",
                        "0x00000000000000000000000000000000000000000000007c1189b028dd820000",
                        "0x000000000000000000000000000000000000000000000002ca5befc6153b8000"
                    ]
                },
                "nodeType": 1
            }
        },
        "gasFlame": [
            {
                "children": [
                    {
                        "children": [
                            {
                                "children": [],
                                "depth": 0,
                                "name": "Initial Gas",
                                "value": 21264
                            },
                            {
                                "children": [
                                    {
                                        "children": [],
                                        "depth": 1,
                                        "name": "allowance",
                                        "value": 3241
                                    },
                                    {
                                        "children": [],
                                        "depth": 1,
                                        "name": "transferFrom",
                                        "value": 19479
                                    },
                                    {
                                        "children": [
                                            {
                                                "children": [],
                                                "depth": 2,
                                                "name": "getReserves",
                                                "value": 2504
                                            }
                                        ],
                                        "depth": 1,
                                        "name": "getAmountsOut",
                                        "value": 8582
                                    }
                                ],
                                "depth": 0,
                                "name": "Executed Gas",
                                "value": 52229
                            }
                        ],
                        "depth": -1,
                        "name": "Actual Gas Used",
                        "value": 73493
                    },
                    {
                        "children": [],
                        "depth": -1,
                        "name": "Refunded Gas",
                        "value": 0
                    }
                ],
                "depth": -2,
                "name": "Total Gas",
                "value": 73493
            }
        ],
        "isConfirmed": true,
        "mainTrace": [
            {
                "children": [
                    {
                        "children": [
                            {
                                "children": [],
                                "depth": 1,
                                "id": 1,
                                "order": 1
                            },
                            {
                                "children": [
                                    {
                                        "children": [],
                                        "depth": 2,
                                        "id": 3,
                                        "order": 3
                                    },
                                    {
                                        "children": [],
                                        "depth": 2,
                                        "id": 4,
                                        "order": 4
                                    }
                                ],
                                "depth": 1,
                                "id": 2,
                                "order": 2
                            },
                            {
                                "children": [
                                    {
                                        "children": [],
                                        "depth": 2,
                                        "id": 6,
                                        "order": 6
                                    }
                                ],
                                "depth": 1,
                                "id": 5,
                                "order": 5
                            },
                            {
                                "children": [],
                                "depth": 1,
                                "id": 7,
                                "order": 7
                            }
                        ],
                        "depth": 0,
                        "id": 0,
                        "order": 0
                    }
                ],
                "depth": -1,
                "id": -1,
                "order": -1
            }
        ],
        "mainTraceNodeCount": 8,
        "parentIdMap": {
            "0": -1,
            "1": 0,
            "2": 0,
            "3": 2,
            "4": 2,
            "5": 0,
            "6": 5,
            "7": 0
        },
        "tidyTrace": [
            {
                "children": [
                    {
                        "children": [
                            {
                                "children": [
                                    {
                                        "children": [],
                                        "depth": 2,
                                        "id": 3,
                                        "order": 3
                                    },
                                    {
                                        "children": [],
                                        "depth": 2,
                                        "id": 4,
                                        "order": 4
                                    }
                                ],
                                "depth": 1,
                                "id": 2,
                                "order": 2
                            },
                            {
                                "children": [],
                                "depth": 1,
                                "id": 7,
                                "order": 7
                            }
                        ],
                        "depth": 0,
                        "id": 0,
                        "order": 0
                    }
                ],
                "depth": -1,
                "id": -1,
                "order": -1
            }
        ],
        "tidyTraceNodeCount": 5
    },
    "state_change": {
        "stateChanges": [
            {
                "address": "0x823556202e86763853b40e9cde725f412e294689",
                "erc": "ERC-20",
                "slots": [
                    {
                        "current": "0x00000000000000000000000000000000000000000000cb8884aeb9e197f90000",
                        "key": "0xbcde0a85cf221c51e860b8f7c6b3cef63224c2f940002d5015f62ae9945d29c9",
                        "prev": "0x00000000000000000000000000000000000000000000cb0c732509b8ba770000"
                    },
                    {
                        "current": "0x00000000000000000000000000000000000000000000013e24282f7427b30000",
                        "key": "0x8d94d36d9f12dca62bd532c866598a8d1c19bf07db20ef3aaaebd583eea794c0",
                        "prev": "0x0000000000000000000000000000000000000000000001ba35b1df9d05350000"
                    },
                    {
                        "current": "0x0000000000000000000000000000000000000000000000079a0d91d34963ed76",
                        "key": "0xb8a645c021796376238cea5d3e449903955f49e9da06528332a87ff56a8bb235",
                        "prev": "0x000000000000000000000000000000000000000000000083ab9741fc26e5ed76"
                    }
                ],
                "storageVariables": [
                    {
                        "name": "_balances",
                        "type": "mapping(address => uint256)",
                        "value": {
                            "pairs": [
                                {
                                    "key": "0x16d297c661540d6a15f4cb561ea58315fcba7b19",
                                    "value": {
                                        "current": "961158714000000000000000",
                                        "prev": "958870054000000000000000",
                                        "typeTag": 1
                                    }
                                },
                                {
                                    "key": "0x23d8646672cdca0b3261adc46aa2d5a44b0a56eb",
                                    "value": {
                                        "current": "140227897509160414582",
                                        "prev": "2428887897509160414582",
                                        "typeTag": 1
                                    }
                                }
                            ],
                            "typeTag": 4
                        }
                    },
                    {
                        "name": "_allowances",
                        "type": "mapping(address => mapping(address => uint256))",
                        "value": {
                            "pairs": [
                                {
                                    "key": "0x23d8646672cdca0b3261adc46aa2d5a44b0a56eb",
                                    "value": {
                                        "pairs": [
                                            {
                                                "key": "0x16d297c661540d6a15f4cb561ea58315fcba7b19",
                                                "value": {
                                                    "current": "5868670000000000000000",
                                                    "prev": "8157330000000000000000",
                                                    "typeTag": 1
                                                }
                                            }
                                        ],
                                        "typeTag": 4
                                    }
                                }
                            ],
                            "typeTag": 4
                        }
                    }
                ]
            }
        ]
    }
}