{
    "balance_change": {
        "balanceChanges": [
            {
                "account": "0x6fc18ba7fa9f51eda17719bd92b2fb7619d889ec",
                "assets": [
                    {
                        "address": "0xc54083e77f913a4f99e1232ae80c318ff03c9d17",
                        "amount": "1",
                        "iconUrl": "",
                        "isERC1155": false,
                        "isERC721": false,
                        "sign": false,
                        "value": ""
                    }
                ]
            },
            {
                "account": "0x1b2ae520f69e8c457f95834d9e3c74d94e6ce601",
                "assets": [
                    {
                        "address": "0xc54083e77f913a4f99e1232ae80c318ff03c9d17",
                        "amount": "1",
                        "iconUrl": "",
                        "isERC1155": false,
                        "isERC721": false,
                        "sign": true,
                        "value": ""
                    }
                ]
            }
        ]
    },
    "profile": {
        "basic_info": {
            "baseFee": "",
            "blockNumber": 5899051,
            "callData": "0xa9059cbb0000000000000000000000001b2ae520f69e8c457f95834d9e3c74d94e6ce6010000000000000000000000000000000000000000000000000de0b6b3a7640000",
            "debugEnable": true,
            "errorInfo": "",
            "eventCount": 1,
            "feeRecipient": "0xb2930b35844a230f00e51431acae96fe543a0347",
            "formatValue": "0",
            "gasLimit": 90000,
            "gasPrice": "150",
            "gasUsed": 52820,
            "intTxnCount": 0,
            "internalRevert": false,
            "internalRevertMessage": "",
            "isContractCreation": false,
            "isFlashloan": false,
            "maxFee": "",
            "nonce": 9678,
            "overwritedBlockNumber": -1,
            "priorityFee": "",
            "receiver": "0xc54083e77f913a4f99e1232ae80c318ff03c9d17",
            "revertMessage": "",
            "sender": "0x6fc18ba7fa9f51eda17719bd92b2fb7619d889ec",
            "simulationEnable": true,
            "sourceTxnHash": "0xd6b77603f957d38818567fce57e6b1d00ca29f95b6770bfe712cea83f6373a55",
            "status": true,
            "timestamp": "2018-07-03T15:42:21Z",
            "transactionFee": "0.007923",
            "txnHash": "0xd6b77603f957d38818567fce57e6b1d00ca29f95b6770bfe712cea83f6373a55",
            "txnIndex": 65,
            "type": 0,
            "value": "0"
        },
        "fund_flow": [
            {
                "amount": "1",
                "from": "0x6fc18ba7fa9f51eda17719bd92b2fb7619d889ec",
                "id": 1,
                "isERC1155": false,
                "isERC721": false,
                "isReverted": false,
                "order": 1,
                "to": "0x1b2ae520f69e8c457f95834d9e3c74d94e6ce601",
                "token": "0xc54083e77f913a4f99e1232ae80c318ff03c9d17"
            }
        ],
        "token_infos": [
            {
                "address": "0xeeeeeeeeeeeeeeeeeeeeeeeeeeeeeeeeeeeeeeee",
                "decimals": 18
            },
            {
                "address": "0xc02aaa39b223fe8d0a0e5c4f27ead9083c756cc2",
                "decimals": 18
            },
            {
                "address": "0xc54083e77f913a4f99e1232ae80c318ff03c9d17",
                "decimals": 18
            }
        ]
    },
    "address_label": {
        "labels": [
            {
                "address": "0xeeeeeeeeeeeeeeeeeeeeeeeeeeeeeeeeeeeeeeee",
                "label": "Ether"
            },
            {
                "address": "0xc54083e77f913a4f99e1232ae80c318ff03c9d17",
                "label": "CariNet Token (CIT)"
            },
            {
                "address": "0x0000000000000000000000000000000000000001",
                "label": "Precompiled"
            },
            {
                "address": "0x0000000000000000000000000000000000000002",
                "label": "Precompiled"
            },
            {
                "address": "0x0000000000000000000000000000000000000003",
                "label": "Precompiled"
            },
            {
                "address": "0x0000000000000000000000000000000000000004",
                "label": "Precompiled"
            }
        ]
    },
    "trace": {
        "accountLabels": null,
        "dataMap": {
            "-1": {
                "invocation": {
                    "address": "0x6fc18ba7fa9f51eda17719bd92b2fb7619d889ec",
                    "callData": "",
                    "decodedMethod": null,
                    "errorInfo": "",
                    "fromAddress": "",
                    "gasUsed": 0,
                    "id": -1,
                    "methodDecoded": false,
                    "operation": "",
                    "output": "",
                    "revert": false,
                    "revertMessage": "",
                    "selector": "",
                    "status": false,
                    "value": ""
                },
                "nodeType": 0
            },
            "0": {
                "invocation": {
                    "address": "0xc54083e77f913a4f99e1232ae80c318ff03c9d17",
                    "callData": "0x0000000000000000000000001b2ae520f69e8c457f95834d9e3c74d94e6ce6010000000000000000000000000000000000000000000000000de0b6b3a7640000",
                    "decodedMethod": {
                        "callParams": [
                            {
                                "name": "_to",
                                "type": "address",
                                "value": "0x1b2ae520f69e8c457f95834d9e3c74d94e6ce601"
                            },
                            {
                                "decimalAvailable": true,
                                "name": "_value",
                                "type": "uint256",
                                "value": "1,000,000,000,000,000,000"
                            }
                        ],
                        "constructorArguments": "",
                        "name": "transfer",
                        "returnParams": [],
                        "signature": "transfer(address,uint256)"
                    },
                    "errorInfo": "",
                    "fromAddress": "0x6fc18ba7fa9f51eda17719bd92b2fb7619d889ec",
                    "gasUsed": 52820,
                    "id": 0,
                    "methodDecoded": true,
                    "operation": "CALL",
                    "output": "",
                    "revert": false,
                    "revertMessage": "",
                    "selector": "0xa9059cbb",
                    "status": true,
                    "value": "0"
                },
                "nodeType": 0
            },
            "1": {
                "event": {
                    "contract": "0xc54083e77f913a4f99e1232ae80c318ff03c9d17",
                    "decodedLog": {
                        "name": "Transfer",
                        "params": [
                            {
                                "name": "from",
                                "type": "address",
                                "value": "0x6fc18ba7fa9f51eda17719bd92b2fb7619d889ec"
                            },
                            {
                                "name": "to",
                                "type": "address",
                                "value": "0x1b2ae520f69e8c457f95834d9e3c74d94e6ce601"
                            },
                            {
                                "decimalAvailable": true,
                                "name": "value",
                                "type": "uint256",
                                "value": "1,000,000,000,000,000,000"
                            }
                        ],
                        "signature": "Transfer(address,address,uint256)"
                    },
                    "id": 1,
                    "logData": "0x0000000000000000000000000000000000000000000000000de0b6b3a7640000",
                    "logDecoded": true,
                    "operation": "EVENT",
                    "revert": false,
                    "status": true,
                    "topics": [
                        "0xddf252ad1be2c89b69c2b068fc378daa952ba7f163c4a11628f55a4df523b3ef",
                        "0x0000000000000000000000006fc18ba7fa9f51eda17719bd92b2fb7619d889ec",
                        "0x0000000000000000000000001b2ae520f69e8c457f95834d9e3c74d94e6ce601"
                    ]
                },
                "nodeType": 1
            }
        },
        "gasFlame": [
            {
                "children": [
                    {
                        "children": [
                            {
                                "children": [],
                                "depth": 0,
                                "name": "Initial Gas",
                                "value": 23192
                            },
                            {
                                "children": [],
                                "depth": 0,
                                "name": "Executed Gas",
                                "value": 29628
                            }
                        ],
                        "depth": -1,
                        "name": "Actual Gas Used",
                        "value": 52820
                    },
                    {
                        "children": [],
                        "depth": -1,
                        "name": "Refunded Gas",
                        "value": 0
                    }
                ],
                "depth": -2,
                "name": "Total Gas",
                "value": 52820
            }
        ],
        "isConfirmed": true,
        "mainTrace": [
            {
                "children": [
                    {
                        "children": [
                            {
                                "children": [],
                                "depth": 1,
                                "id": 1,
                                "order": 1
                            }
                        ],
                        "depth": 0,
                        "id": 0,
                        "order": 0
                    }
                ],
                "depth": -1,
                "id": -1,
                "order": -1
            }
        ],
        "mainTraceNodeCount": 2,
        "parentIdMap": {
            "0": -1,
            "1": 0
        },
        "tidyTrace": [
            {
                "children": [
                    {
                        "children": [
                            {
                                "children": [],
                                "depth": 1,
                                "id": 1,
                                "order": 1
                            }
                        ],
                        "depth": 0,
                        "id": 0,
                        "order": 0
                    }
                ],
                "depth": -1,
                "id": -1,
                "order": -1
            }
        ],
        "tidyTraceNodeCount": 2
    },
    "state_change": {
        "stateChanges": [
            {
                "address": "0xc54083e77f913a4f99e1232ae80c318ff03c9d17",
                "erc": "",
                "slots": [
                    {
                        "current": "0x0000000000000000000000000000000000000000000002326e0c6ae4e5bc0000",
                        "key": "0xe43e72bab2ac08605063f89a08f02d621f96f3edd1542a22c0f209c92f06a1ae",
                        "prev": "0x0000000000000000000000000000000000000000000002327bed21988d200000"
                    },
                    {
                        "current": "0x0000000000000000000000000000000000000000000000000de0b6b3a7640000",
                        "key": "0x2c351768a817e7eb152ae17afb2ffb0717cec0a065400a146461dd136cb81642",
                        "prev": "0x0000000000000000000000000000000000000000000000000000000000000000"
                    }
                ],
                "storageVariables": [
                    {
                        "name": "balanceOf",
                        "type": "mapping(address => uint256)",
                        "value": {
                            "pairs": [
                                {
                                    "key": "0x1b2ae520f69e8c457f95834d9e3c74d94e6ce601",
                                    "value": {
                                        "current": "1000000000000000000",
                                        "prev": "0",
                                        "typeTag": 1
                                    }
                                },
                                {
                                    "key": "0x6fc18ba7fa9f51eda17719bd92b2fb7619d889ec",
                                    "value": {
                                        "current": "10375000000000000000000",
                                        "prev": "10376000000000000000000",
                                        "typeTag": 1
                                    }
                                }
                            ],
                            "typeTag": 4
                        }
                    }
                ]
            }
        ]
    }
}