{
    "balance_change": {
        "balanceChanges": [
            {
                "account": "0x1522900b6dafac587d499a862861c0869be6e428",
                "assets": [
                    {
                        "address": "0x6982508145454ce325ddbe47a25d4ec3d2311933",
                        "amount": "105,580,602.05594641",
                        "iconUrl": "https://assets.blocksec.com/icon/99f1a626358e559d9a9d6dc4254c663e595a9ebcd362efa2d4cd902a8d75ea2c.png",
                        "isERC1155": false,
                        "isERC721": false,
                        "sign": false,
                        "value": ""
                    }
                ]
            },
            {
                "account": "0x48ec5560bfd59b95859965cce48cc244cfdf6b0c",
                "assets": [
                    {
                        "address": "0x6982508145454ce325ddbe47a25d4ec3d2311933",
                        "amount": "105,580,602.05594641",
                        "iconUrl": "https://assets.blocksec.com/icon/99f1a626358e559d9a9d6dc4254c663e595a9ebcd362efa2d4cd902a8d75ea2c.png",
                        "isERC1155": false,
                        "isERC721": false,
                        "sign": true,
                        "value": ""
                    }
                ]
            }
        ]
    },
    "profile": {
        "basic_info": {
            "baseFee": "7.792647585",
            "blockNumber": 20328703,
            "callData": "0x0dcd7a6c00000000000000000000000048ec5560bfd59b95859965cce48cc244cfdf6b0c00000000000000000000000000000000000000000057558fe7f42731b32a24000000000000000000000000006982508145454ce325ddbe47a25d4ec3d23119330000000000000000000000000000000000000000000000000000000066a166e9000000000000000000000000000000000000000000000000000000000010c22e00000000000000000000000000000000000000000000000000000000000000c00000000000000000000000000000000000000000000000000000000000000041ee5ded9fc8a1826b046d47edf9f0a29b4549ca0b7c695c8574ed5efbeb7a678e1bb7a1795036309955bc0de32511e55e99ff08c079b29e6421afb2b941b554d31c00000000000000000000000000000000000000000000000000000000000000",
            "debugEnable": true,
            "errorInfo": "",
            "eventCount": 2,
            "feeRecipient": "0x95222290dd7278aa3ddd389cc1e1d165cc4bafe5",
            "formatValue": "0",
            "gasLimit": 204310,
            "gasPrice": "9.908259785",
            "gasUsed": 102331,
            "intTxnCount": 3,
            "internalRevert": false,
            "internalRevertMessage": "",
            "isContractCreation": false,
            "isFlashloan": false,
            "maxFee": "17.214881878",
            "nonce": 1902221,
            "overwritedBlockNumber": -1,
            "priorityFee": "2.1156122",
            "receiver": "0x1522900b6dafac587d499a862861c0869be6e428",
            "revertMessage": "",
            "sender": "0x00bdb5699745f5b860228c8f939abf1b9ae374ed",
            "simulationEnable": true,
            "sourceTxnHash": "0xd6ed1cefb0c0dec3b68d6fed3d9f465891387666ac1a8ebb1778733d3ad2fce4",
            "status": true,
            "timestamp": "2024-07-17T20:41:35Z",
            "transactionFee": "0.001013922132058835",
            "txnHash": "0xd6ed1cefb0c0dec3b68d6fed3d9f465891387666ac1a8ebb1778733d3ad2fce4",
            "txnIndex": 50,
            "type": 2,
            "value": "0"
        },
        "fund_flow": [
            {
                "amount": "105,580,602.05594641",
                "from": "0x1522900b6dafac587d499a862861c0869be6e428",
                "id": 1,
                "isERC1155": false,
                "isERC721": false,
                "isReverted": false,
                "order": 1,
                "to": "0x48ec5560bfd59b95859965cce48cc244cfdf6b0c",
                "token": "0x6982508145454ce325ddbe47a25d4ec3d2311933"
            }
        ],
        "token_infos": [
            {
                "address": "0xc02aaa39b223fe8d0a0e5c4f27ead9083c756cc2",
                "decimals": 18
            },
            {
                "address": "0xeeeeeeeeeeeeeeeeeeeeeeeeeeeeeeeeeeeeeeee",
                "decimals": 18
            },
            {
                "address": "0x6982508145454ce325ddbe47a25d4ec3d2311933",
                "decimals": 18
            }
        ]
    },
    "address_label": {
        "labels": [
            {
                "address": "0x48ec5560bfd59b95859965cce48cc244cfdf6b0c",
                "label": "Bitstamp: Wallet"
            },
            {
                "address": "0x1522900b6dafac587d499a862861c0869be6e428",
                "label": "Bitstamp 2"
            },
            {
                "address": "0x6982508145454ce325ddbe47a25d4ec3d2311933",
                "label": "Pepe: PEPE Token"
            },
            {
                "address": "0x0000000000000000000000000000000000000002",
                "label": "Precompiled"
            },
            {
                "address": "0x0000000000000000000000000000000000000004",
                "label": "Precompiled"
            },
            {
                "address": "0xeeeeeeeeeeeeeeeeeeeeeeeeeeeeeeeeeeeeeeee",
                "label": "Ether"
            },
            {
                "address": "0x00bdb5699745f5b860228c8f939abf1b9ae374ed",
                "label": "Bitstamp 1"
            },
            {
                "address": "0x5b9e8728e316bbeb692d22daaab74f6cbf2c4691",
                "label": "WalletSimple"
            },
            {
                "address": "0x0000000000000000000000000000000000000001",
                "label": "Precompiled"
            },
            {
                "address": "0x0000000000000000000000000000000000000003",
                "label": "Precompiled"
            }
        ]
    },
    "trace": {
        "accountLabels": null,
        "dataMap": {
            "-1": {
                "invocation": {
                    "address": "0x00bdb5699745f5b860228c8f939abf1b9ae374ed",
                    "callData": "",
                    "decodedMethod": null,
                    "errorInfo": "",
                    "fromAddress": "",
                    "gasUsed": 0,
                    "id": -1,
                    "methodDecoded": false,
                    "operation": "",
                    "output": "",
                    "revert": false,
                    "revertMessage": "",
                    "selector": "",
                    "status": false,
                    "value": ""
                },
                "nodeType": 0
            },
            "0": {
                "invocation": {
                    "address": "0x1522900b6dafac587d499a862861c0869be6e428",
                    "callData": "0x00000000000000000000000048ec5560bfd59b95859965cce48cc244cfdf6b0c00000000000000000000000000000000000000000057558fe7f42731b32a24000000000000000000000000006982508145454ce325ddbe47a25d4ec3d23119330000000000000000000000000000000000000000000000000000000066a166e9000000000000000000000000000000000000000000000000000000000010c22e00000000000000000000000000000000000000000000000000000000000000c00000000000000000000000000000000000000000000000000000000000000041ee5ded9fc8a1826b046d47edf9f0a29b4549ca0b7c695c8574ed5efbeb7a678e1bb7a1795036309955bc0de32511e55e99ff08c079b29e6421afb2b941b554d31c00000000000000000000000000000000000000000000000000000000000000",
                    "decodedMethod": {
                        "callParams": [
                            {
                                "name": "toAddress",
                                "type": "address",
                                "value": "0x48ec5560bfd59b95859965cce48cc244cfdf6b0c"
                            },
                            {
                                "name": "value",
                                "type": "uint256",
                                "value": "105,580,602,055,946,410,000,000,000"
                            },
                            {
                                "name": "tokenContractAddress",
                                "type": "address",
                                "value": "0x6982508145454ce325ddbe47a25d4ec3d2311933"
                            },
                            {
                                "name": "expireTime",
                                "type": "uint256",
                                "value": "1,721,853,673"
                            },
                            {
                                "name": "sequenceId",
                                "type": "uint256",
                                "value": "1,098,286"
                            },
                            {
                                "name": "signature",
                                "type": "bytes",
                                "value": "0xee5ded9fc8a1826b046d47edf9f0a29b4549ca0b7c695c8574ed5efbeb7a678e1bb7a1795036309955bc0de32511e55e99ff08c079b29e6421afb2b941b554d31c"
                            }
                        ],
                        "constructorArguments": "",
                        "name": "sendMultiSigToken",
                        "returnParams": [],
                        "signature": "sendMultiSigToken(address,uint256,address,uint256,uint256,bytes)"
                    },
                    "errorInfo": "",
                    "fromAddress": "0x00bdb5699745f5b860228c8f939abf1b9ae374ed",
                    "gasUsed": 102331,
                    "id": 0,
                    "methodDecoded": true,
                    "operation": "CALL",
                    "output": "0x0dcd7a6c00000000000000000000000048ec5560bfd59b95859965cce48cc244",
                    "revert": false,
                    "revertMessage": "",
                    "selector": "0x0dcd7a6c",
                    "status": true,
                    "value": "0"
                },
                "nodeType": 0
            },
            "1": {
                "invocation": {
                    "address": "0x5b9e8728e316bbeb692d22daaab74f6cbf2c4691",
                    "callData": "0x00000000000000000000000048ec5560bfd59b95859965cce48cc244cfdf6b0c00000000000000000000000000000000000000000057558fe7f42731b32a24000000000000000000000000006982508145454ce325ddbe47a25d4ec3d23119330000000000000000000000000000000000000000000000000000000066a166e9000000000000000000000000000000000000000000000000000000000010c22e00000000000000000000000000000000000000000000000000000000000000c00000000000000000000000000000000000000000000000000000000000000041ee5ded9fc8a1826b046d47edf9f0a29b4549ca0b7c695c8574ed5efbeb7a678e1bb7a1795036309955bc0de32511e55e99ff08c079b29e6421afb2b941b554d31c00000000000000000000000000000000000000000000000000000000000000",
                    "decodedMethod": {
                        "callParams": [
                            {
                                "name": "toAddress",
                                "type": "address",
                                "value": "0x48ec5560bfd59b95859965cce48cc244cfdf6b0c"
                            },
                            {
                                "name": "value",
                                "type": "uint256",
                                "value": "105,580,602,055,946,410,000,000,000"
                            },
                            {
                                "name": "tokenContractAddress",
                                "type": "address",
                                "value": "0x6982508145454ce325ddbe47a25d4ec3d2311933"
                            },
                            {
                                "name": "expireTime",
                                "type": "uint256",
                                "value": "1,721,853,673"
                            },
                            {
                                "name": "sequenceId",
                                "type": "uint256",
                                "value": "1,098,286"
                            },
                            {
                                "name": "signature",
                                "type": "bytes",
                                "value": "0xee5ded9fc8a1826b046d47edf9f0a29b4549ca0b7c695c8574ed5efbeb7a678e1bb7a1795036309955bc0de32511e55e99ff08c079b29e6421afb2b941b554d31c"
                            }
                        ],
                        "constructorArguments": "",
                        "name": "sendMultiSigToken",
                        "returnParams": [],
                        "signature": "sendMultiSigToken(address,uint256,address,uint256,uint256,bytes)"
                    },
                    "errorInfo": "",
                    "fromAddress": "0x1522900b6dafac587d499a862861c0869be6e428",
                    "gasUsed": 75774,
                    "id": 1,
                    "methodDecoded": true,
                    "operation": "DELEGATECALL",
                    "output": "",
                    "revert": false,
                    "revertMessage": "",
                    "selector": "0x0dcd7a6c",
                    "status": true,
                    "value": "0"
                },
                "nodeType": 0
            },
            "2": {
                "invocation": {
                    "address": "0x0000000000000000000000000000000000000001",
                    "callData": "0x0782c9535c2769319a67903cec9d87eed04d736f3335d4d4706845c5000000000000000000000000000000000000000000000000000000000000001cee5ded9fc8a1826b046d47edf9f0a29b4549ca0b7c695c8574ed5efbeb7a678e1bb7a1795036309955bc0de32511e55e99ff08c079b29e6421afb2b941b554d3",
                    "decodedMethod": {
                        "callParams": [
                            {
                                "name": "hash",
                                "type": "bytes32",
                                "value": "0x593e62690782c9535c2769319a67903cec9d87eed04d736f3335d4d4706845c5"
                            },
                            {
                                "name": "v",
                                "type": "uint256",
                                "value": "28"
                            },
                            {
                                "name": "r",
                                "type": "bytes32",
                                "value": "0xee5ded9fc8a1826b046d47edf9f0a29b4549ca0b7c695c8574ed5efbeb7a678e"
                            },
                            {
                                "name": "s",
                                "type": "bytes32",
                                "value": "0x1bb7a1795036309955bc0de32511e55e99ff08c079b29e6421afb2b941b554d3"
                            }
                        ],
                        "constructorArguments": "",
                        "name": "ecrecover",
                        "returnParams": [
                            {
                                "name": "",
                                "type": "address",
                                "value": "0x3e071255695b527e6e85f5e367b1c173bcea5b0f"
                            }
                        ],
                        "signature": "ecrecover(bytes32,uint256,bytes32,bytes32)"
                    },
                    "errorInfo": "",
                    "fromAddress": "0x1522900b6dafac587d499a862861c0869be6e428",
                    "gasUsed": 3000,
                    "id": 2,
                    "methodDecoded": true,
                    "operation": "CALL",
                    "output": "0x0000000000000000000000003e071255695b527e6e85f5e367b1c173bcea5b0f",
                    "revert": false,
                    "revertMessage": "",
                    "selector": "0x593e6269",
                    "status": true,
                    "value": "0"
                },
                "nodeType": 0
            },
            "3": {
                "invocation": {
                    "address": "0x6982508145454ce325ddbe47a25d4ec3d2311933",
                    "callData": "0x00000000000000000000000048ec5560bfd59b95859965cce48cc244cfdf6b0c00000000000000000000000000000000000000000057558fe7f42731b32a2400",
                    "decodedMethod": {
                        "callParams": [
                            {
                                "name": "recipient",
                                "type": "address",
                                "value": "0x48ec5560bfd59b95859965cce48cc244cfdf6b0c"
                            },
                            {
                                "decimalAvailable": true,
                                "name": "amount",
                                "type": "uint256",
                                "value": "105,580,602,055,946,410,000,000,000"
                            }
                        ],
                        "constructorArguments": "",
                        "name": "transfer",
                        "returnParams": [
                            {
                                "name": "",
                                "type": "bool",
                                "value": true
                            }
                        ],
                        "signature": "transfer(address,uint256)"
                    },
                    "errorInfo": "",
                    "fromAddress": "0x1522900b6dafac587d499a862861c0869be6e428",
                    "gasUsed": 21706,
                    "id": 3,
                    "methodDecoded": true,
                    "operation": "CALL",
                    "output": "0x0000000000000000000000000000000000000000000000000000000000000001",
                    "revert": false,
                    "revertMessage": "",
                    "selector": "0xa9059cbb",
                    "status": true,
                    "value": "0"
                },
                "nodeType": 0
            },
            "4": {
                "event": {
                    "contract": "0x6982508145454ce325ddbe47a25d4ec3d2311933",
                    "decodedLog": {
                        "name": "Transfer",
                        "params": [
                            {
                                "name": "from",
                                "type": "address",
                                "value": "0x1522900b6dafac587d499a862861c0869be6e428"
                            },
                            {
                                "name": "to",
                                "type": "address",
                                "value": "0x48ec5560bfd59b95859965cce48cc244cfdf6b0c"
                            },
                            {
                                "decimalAvailable": true,
                                "name": "value",
                                "type": "uint256",
                                "value": "105,580,602,055,946,410,000,000,000"
                            }
                        ],
                        "signature": "Transfer(address,address,uint256)"
                    },
                    "id": 4,
                    "logData": "0x00000000000000000000000000000000000000000057558fe7f42731b32a2400",
                    "logDecoded": true,
                    "operation": "EVENT",
                    "revert": false,
                    "status": true,
                    "topics": [
                        "0xddf252ad1be2c89b69c2b068fc378daa952ba7f163c4a11628f55a4df523b3ef",
                        "0x0000000000000000000000001522900b6dafac587d499a862861c0869be6e428",
                        "0x00000000000000000000000048ec5560bfd59b95859965cce48cc244cfdf6b0c"
                    ]
                },
                "nodeType": 1
            },
            "5": {
                "event": {
                    "contract": "0x1522900b6dafac587d499a862861c0869be6e428",
                    "decodedLog": {
                        "name": "TokenTransacted",
                        "params": [
                            {
                                "name": "msgSender",
                                "type": "address",
                                "value": "0x00bdb5699745f5b860228c8f939abf1b9ae374ed"
                            },
                            {
                                "name": "otherSigner",
                                "type": "address",
                                "value": "0x3e071255695b527e6e85f5e367b1c173bcea5b0f"
                            },
                            {
                                "name": "operation",
                                "type": "bytes32",
                                "value": "0x593e62690782c9535c2769319a67903cec9d87eed04d736f3335d4d4706845c5"
                            },
                            {
                                "name": "toAddress",
                                "type": "address",
                                "value": "0x48ec5560bfd59b95859965cce48cc244cfdf6b0c"
                            },
                            {
                                "name": "value",
                                "type": "uint256",
                                "value": "105,580,602,055,946,410,000,000,000"
                            },
                            {
                                "name": "tokenContractAddress",
                                "type": "address",
                                "value": "0x6982508145454ce325ddbe47a25d4ec3d2311933"
                            }
                        ],
                        "signature": "TokenTransacted(address,address,bytes32,address,uint256,address)"
                    },
                    "id": 5,
                    "logData": "0x00000000000000000000000000bdb5699745f5b860228c8f939abf1b9ae374ed0000000000000000000000003e071255695b527e6e85f5e367b1c173bcea5b0f593e62690782c9535c2769319a67903cec9d87eed04d736f3335d4d4706845c500000000000000000000000048ec5560bfd59b95859965cce48cc244cfdf6b0c00000000000000000000000000000000000000000057558fe7f42731b32a24000000000000000000000000006982508145454ce325ddbe47a25d4ec3d2311933",
                    "logDecoded": true,
                    "operation": "EVENT",
                    "revert": false,
                    "status": true,
                    "topics": [
                        "0xf3574a20a6defd7fc26917e8013cdd578db5eaa4d9a3eb54f2bb0983ad8ab40d"
                    ]
                },
                "nodeType": 1
            }
        },
        "gasFlame": [
            {
                "children": [
                    {
                        "children": [
                            {
                                "children": [],
                                "depth": 0,
                                "name": "Initial Gas",
                                "value": 23832
                            },
                            {
                                "children": [
                                    {
                                        "children": [
                                            {
                                                "children": [],
                                                "depth": 2,
                                                "name": "ecrecover",
                                                "value": 3000
                                            },
                                            {
                                                "children": [],
                                                "depth": 2,
                                                "name": "transfer",
                                                "value": 21706
                                            }
                                        ],
                                        "depth": 1,
                                        "name": "sendMultiSigToken",
                                        "value": 75774
                                    }
                                ],
                                "depth": 0,
                                "name": "Executed Gas",
                                "value": 78499
                            }
                        ],
                        "depth": -1,
                        "name": "Actual Gas Used",
                        "value": 102331
                    },
                    {
                        "children": [],
                        "depth": -1,
                        "name": "Refunded Gas",
                        "value": 0
                    }
                ],
                "depth": -2,
                "name": "Total Gas",
                "value": 102331
            }
        ],
        "isConfirmed": true,
        "mainTrace": [
            {
                "children": [
                    {
                        "children": [
                            {
                                "children": [
                                    {
                                        "children": [],
                                        "depth": 2,
                                        "id": 2,
                                        "order": 2
                                    },
                                    {
                                        "children": [
                                            {
                                                "children": [],
                                                "depth": 3,
                                                "id": 4,
                                                "order": 4
                                            }
                                        ],
                                        "depth": 2,
                                        "id": 3,
                                        "order": 3
                                    },
                                    {
                                        "children": [],
                                        "depth": 2,
                                        "id": 5,
                                        "order": 5
                                    }
                                ],
                                "depth": 1,
                                "id": 1,
                                "order": 1
                            }
                        ],
                        "depth": 0,
                        "id": 0,
                        "order": 0
                    }
                ],
                "depth": -1,
                "id": -1,
                "order": -1
            }
        ],
        "mainTraceNodeCount": 6,
        "parentIdMap": {
            "0": -1,
            "1": 0,
            "2": 1,
            "3": 1,
            "4": 3,
            "5": 1
        },
        "tidyTrace": [
            {
                "children": [
                    {
                        "children": [
                            {
                                "children": [
                                    {
                                        "children": [],
                                        "depth": 2,
                                        "id": 2,
                                        "order": 2
                                    },
                                    {
                                        "children": [
                                            {
                                                "children": [],
                                                "depth": 3,
                                                "id": 4,
                                                "order": 4
                                            }
                                        ],
                                        "depth": 2,
                                        "id": 3,
                                        "order": 3
                                    },
                                    {
                                        "children": [],
                                        "depth": 2,
                                        "id": 5,
                                        "order": 5
                                    }
                                ],
                                "depth": 1,
                                "id": 1,
                                "order": 1
                            }
                        ],
                        "depth": 0,
                        "id": 0,
                        "order": 0
                    }
                ],
                "depth": -1,
                "id": -1,
                "order": -1
            }
        ],
        "tidyTraceNodeCount": 6
    },
    "state_change": {
        "stateChanges": [
            {
                "address": "0x1522900b6dafac587d499a862861c0869be6e428",
                "erc": "",
                "slots": [
                    {
                        "current": "0x000000000000000000000000000000000000000000000000000000000010c22e",
                        "key": "0x0000000000000000000000000000000000000000000000000000000000000006",
                        "prev": "0x000000000000000000000000000000000000000000000000000000000010c224"
                    }
                ],
                "storageVariables": []
            },
            {
                "address": "0x6982508145454ce325ddbe47a25d4ec3d2311933",
                "erc": "ERC-20",
                "slots": [
                    {
                        "current": "0x00000000000000000000000000000000000000000001c846daf015b4898e140d",
                        "key": "0x1b806574aafd70c854794c4e34fa70362565ab823a9faceb6a8b5de82608b9e4",
                        "prev": "0x000000000000000000000000000000000000000000591dd6c2e43ce63cb8380d"
                    },
                    {
                        "current": "0x000000000000000000000000000000000000000079072e5d8b636d53fa00f800",
                        "key": "0xf4071ecaa66e1291711023e83940e78389fd5cd97031783bf64d88ea71894dd3",
                        "prev": "0x000000000000000000000000000000000000000078afd8cda36f462246d6d400"
                    }
                ],
                "storageVariables": [
                    {
                        "name": "_balances",
                        "type": "mapping(address => uint256)",
                        "value": {
                            "pairs": [
                                {
                                    "key": "0x1522900b6dafac587d499a862861c0869be6e428",
                                    "value": {
                                        "current": "2154706164407077710992397",
                                        "prev": "107735308220353487710992397",
                                        "typeTag": 1
                                    }
                                },
                                {
                                    "key": "0x48ec5560bfd59b95859965cce48cc244cfdf6b0c",
                                    "value": {
                                        "current": "37456367623569458380000000000",
                                        "prev": "37350787021513511970000000000",
                                        "typeTag": 1
                                    }
                                }
                            ],
                            "typeTag": 4
                        }
                    }
                ]
            }
        ]
    }
}