{
    "balance_change": {
        "balanceChanges": [
            {
                "account": "0xad9eb619ce1033cc710d9f9806a2330f85875f22",
                "assets": [
                    {
                        "address": "0xc02aaa39b223fe8d0a0e5c4f27ead9083c756cc2",
                        "amount": "31.459247338527279165",
                        "iconUrl": "https://assets.blocksec.com/icon/f1cb2d02c471d545bbc7722daf3277fd852d98e63d118771af7047bd8256c516.png",
                        "isERC1155": false,
                        "isERC721": false,
                        "sign": false,
                        "value": ""
                    }
                ]
            },
            {
                "account": "0x39755357759ce0d7f32dc8dc45414cca409ae24e",
                "assets": [
                    {
                        "address": "0xc02aaa39b223fe8d0a0e5c4f27ead9083c756cc2",
                        "amount": "31.459247338527279165",
                        "iconUrl": "https://assets.blocksec.com/icon/f1cb2d02c471d545bbc7722daf3277fd852d98e63d118771af7047bd8256c516.png",
                        "isERC1155": false,
                        "isERC721": false,
                        "sign": true,
                        "value": ""
                    }
                ]
            }
        ]
    },
    "profile": {
        "basic_info": {
            "baseFee": "",
            "blockNumber": 7992083,
            "callData": "0x1cff79cd0000000000000000000000002812bc7c99d157f9735192078841e96336bbd708000000000000000000000000000000000000000000000000000000000000004000000000000000000000000000000000000000000000000000000000000000d8000000000000000000000000000000000000000000000000000000000000000639755357759ce0d7f32dc8dc45414cca409ae24e1b33d412000000000000000000000000000000000000000000000001b495b2c6b212483d000000000000000000000000c02aaa39b223fe8d0a0e5c4f27ead9083c756cc20000000000000000000000000000000000000000000001d1141626b18af45d0b00000000000000000000000089d24a6b4ccb1b6faa2625fe562bdd9a23260359000000000000000000000000000000000000000000000000000000000003652f0000000000000000",
            "debugEnable": true,
            "errorInfo": "",
            "eventCount": 4,
            "feeRecipient": "0x9d6d492bd500da5b33cf95a5d610a73360fcaaa0",
            "formatValue": "0",
            "gasLimit": 600000,
            "gasPrice": "4.0004",
            "gasUsed": 147760,
            "intTxnCount": 16,
            "internalRevert": false,
            "internalRevertMessage": "",
            "isContractCreation": false,
            "isFlashloan": false,
            "maxFee": "",
            "nonce": 6508,
            "overwritedBlockNumber": -1,
            "priorityFee": "",
            "receiver": "0xad9eb619ce1033cc710d9f9806a2330f85875f22",
            "revertMessage": "",
            "sender": "0x080d92b3422db6a1a4ebe7e20ed55469edbe6f98",
            "simulationEnable": true,
            "sourceTxnHash": "0xd6e790e7ad7f88ce8fc104a03909d3fe5e9d68477f95f64dd1c06a9f5e5f1518",
            "status": true,
            "timestamp": "2019-06-20T01:04:10Z",
            "transactionFee": "0.000591099104",
            "txnHash": "0xd6e790e7ad7f88ce8fc104a03909d3fe5e9d68477f95f64dd1c06a9f5e5f1518",
            "txnIndex": 75,
            "type": 0,
            "value": "0"
        },
        "fund_flow": [
            {
                "amount": "31.459247338527279165",
                "from": "0xad9eb619ce1033cc710d9f9806a2330f85875f22",
                "id": 1,
                "isERC1155": false,
                "isERC721": false,
                "isReverted": false,
                "order": 1,
                "to": "0x39755357759ce0d7f32dc8dc45414cca409ae24e",
                "token": "0xc02aaa39b223fe8d0a0e5c4f27ead9083c756cc2"
            }
        ],
        "token_infos": [
            {
                "address": "0xc02aaa39b223fe8d0a0e5c4f27ead9083c756cc2",
                "decimals": 18
            },
            {
                "address": "0xeeeeeeeeeeeeeeeeeeeeeeeeeeeeeeeeeeeeeeee",
                "decimals": 18
            }
        ]
    },
    "address_label": {
        "labels": [
            {
                "address": "0x0000000000000000000000000000000000000002",
                "label": "Precompiled"
            },
            {
                "address": "0xeeeeeeeeeeeeeeeeeeeeeeeeeeeeeeeeeeeeeeee",
                "label": "Ether"
            },
            {
                "address": "0x39755357759ce0d7f32dc8dc45414cca409ae24e",
                "label": "Eth2Dai: Old Contract"
            },
            {
                "address": "0x0000000000b3f879cb30fe243b4dfee438691c04",
                "label": "GasToken.io: GST2 Token"
            },
            {
                "address": "0x0000000000000000000000000000000000000001",
                "label": "Precompiled"
            },
            {
                "address": "0x0000000000000000000000000000000000000003",
                "label": "Precompiled"
            },
            {
                "address": "0x0000000000000000000000000000000000000004",
                "label": "Precompiled"
            },
            {
                "address": "0xc02aaa39b223fe8d0a0e5c4f27ead9083c756cc2",
                "label": "Wrapped Ether (WETH)"
            },
            {
                "address": "0x89d24a6b4ccb1b6faa2625fe562bdd9a23260359",
                "label": "Sai Stablecoin"
            }
        ]
    },
    "trace": {
        "accountLabels": null,
        "dataMap": {
            "-1": {
                "invocation": {
                    "address": "0x080d92b3422db6a1a4ebe7e20ed55469edbe6f98",
                    "callData": "",
                    "decodedMethod": null,
                    "errorInfo": "",
                    "fromAddress": "",
                    "gasUsed": 0,
                    "id": -1,
                    "methodDecoded": false,
                    "operation": "",
                    "output": "",
                    "revert": false,
                    "revertMessage": "",
                    "selector": "",
                    "status": false,
                    "value": ""
                },
                "nodeType": 0
            },
            "0": {
                "invocation": {
                    "address": "0xad9eb619ce1033cc710d9f9806a2330f85875f22",
                    "callData": "0x0000000000000000000000002812bc7c99d157f9735192078841e96336bbd708000000000000000000000000000000000000000000000000000000000000004000000000000000000000000000000000000000000000000000000000000000d8000000000000000000000000000000000000000000000000000000000000000639755357759ce0d7f32dc8dc45414cca409ae24e1b33d412000000000000000000000000000000000000000000000001b495b2c6b212483d000000000000000000000000c02aaa39b223fe8d0a0e5c4f27ead9083c756cc20000000000000000000000000000000000000000000001d1141626b18af45d0b00000000000000000000000089d24a6b4ccb1b6faa2625fe562bdd9a23260359000000000000000000000000000000000000000000000000000000000003652f0000000000000000",
                    "decodedMethod": {
                        "callParams": [
                            {
                                "name": "_target",
                                "type": "address",
                                "value": "0x2812bc7c99d157f9735192078841e96336bbd708"
                            },
                            {
                                "name": "_data",
                                "type": "bytes",
                                "value": "0x000000000000000000000000000000000000000000000000000000000000000639755357759ce0d7f32dc8dc45414cca409ae24e1b33d412000000000000000000000000000000000000000000000001b495b2c6b212483d000000000000000000000000c02aaa39b223fe8d0a0e5c4f27ead9083c756cc20000000000000000000000000000000000000000000001d1141626b18af45d0b00000000000000000000000089d24a6b4ccb1b6faa2625fe562bdd9a23260359000000000000000000000000000000000000000000000000000000000003652f"
                            }
                        ],
                        "constructorArguments": "",
                        "name": "execute",
                        "returnParams": [],
                        "signature": "execute(address,bytes)"
                    },
                    "errorInfo": "",
                    "fromAddress": "0x080d92b3422db6a1a4ebe7e20ed55469edbe6f98",
                    "gasUsed": 147760,
                    "id": 0,
                    "methodDecoded": true,
                    "operation": "CALL",
                    "output": "",
                    "revert": false,
                    "revertMessage": "",
                    "selector": "0x1cff79cd",
                    "status": true,
                    "value": "0"
                },
                "nodeType": 0
            },
            "1": {
                "invocation": {
                    "address": "0x2812bc7c99d157f9735192078841e96336bbd708",
                    "callData": "0x0000000000000000000000000000000000000000000000000000000639755357759ce0d7f32dc8dc45414cca409ae24e1b33d412000000000000000000000000000000000000000000000001b495b2c6b212483d000000000000000000000000c02aaa39b223fe8d0a0e5c4f27ead9083c756cc20000000000000000000000000000000000000000000001d1141626b18af45d0b00000000000000000000000089d24a6b4ccb1b6faa2625fe562bdd9a23260359000000000000000000000000000000000000000000000000000000000003652f",
                    "decodedMethod": {
                        "callParams": [],
                        "constructorArguments": "",
                        "name": "execute_44g58pv",
                        "returnParams": [],
                        "signature": "execute_44g58pv()"
                    },
                    "errorInfo": "",
                    "fromAddress": "0xad9eb619ce1033cc710d9f9806a2330f85875f22",
                    "gasUsed": 260537,
                    "id": 1,
                    "methodDecoded": true,
                    "operation": "DELEGATECALL",
                    "output": "",
                    "revert": false,
                    "revertMessage": "",
                    "selector": "0x00000000",
                    "status": true,
                    "value": "0"
                },
                "nodeType": 0
            },
            "10": {
                "invocation": {
                    "address": "0x0000000000b3f879cb30fe243b4dfee438691c04",
                    "callData": "",
                    "decodedMethod": null,
                    "errorInfo": "",
                    "fromAddress": "0x5fca3134d6b8f93accda6577137efe1c0152190a",
                    "gasUsed": 0,
                    "id": 10,
                    "methodDecoded": false,
                    "operation": "SELFDESTRUCT",
                    "output": "",
                    "revert": false,
                    "revertMessage": "",
                    "selector": "",
                    "status": true,
                    "value": "0"
                },
                "nodeType": 0
            },
            "11": {
                "invocation": {
                    "address": "0x968644c64c4e0e039086fb4f41407470c78a478a",
                    "callData": "0x",
                    "decodedMethod": null,
                    "errorInfo": "",
                    "fromAddress": "0x0000000000b3f879cb30fe243b4dfee438691c04",
                    "gasUsed": 5022,
                    "id": 11,
                    "methodDecoded": false,
                    "operation": "CALL",
                    "output": "",
                    "revert": false,
                    "revertMessage": "",
                    "selector": "fallback",
                    "status": true,
                    "value": "0"
                },
                "nodeType": 0
            },
            "12": {
                "invocation": {
                    "address": "0x0000000000b3f879cb30fe243b4dfee438691c04",
                    "callData": "",
                    "decodedMethod": null,
                    "errorInfo": "",
                    "fromAddress": "0x968644c64c4e0e039086fb4f41407470c78a478a",
                    "gasUsed": 0,
                    "id": 12,
                    "methodDecoded": false,
                    "operation": "SELFDESTRUCT",
                    "output": "",
                    "revert": false,
                    "revertMessage": "",
                    "selector": "",
                    "status": true,
                    "value": "0"
                },
                "nodeType": 0
            },
            "13": {
                "invocation": {
                    "address": "0xc94d935043171ae456e228c8b5ffd25ae54c6d50",
                    "callData": "0x",
                    "decodedMethod": null,
                    "errorInfo": "",
                    "fromAddress": "0x0000000000b3f879cb30fe243b4dfee438691c04",
                    "gasUsed": 5022,
                    "id": 13,
                    "methodDecoded": false,
                    "operation": "CALL",
                    "output": "",
                    "revert": false,
                    "revertMessage": "",
                    "selector": "fallback",
                    "status": true,
                    "value": "0"
                },
                "nodeType": 0
            },
            "14": {
                "invocation": {
                    "address": "0x0000000000b3f879cb30fe243b4dfee438691c04",
                    "callData": "",
                    "decodedMethod": null,
                    "errorInfo": "",
                    "fromAddress": "0xc94d935043171ae456e228c8b5ffd25ae54c6d50",
                    "gasUsed": 0,
                    "id": 14,
                    "methodDecoded": false,
                    "operation": "SELFDESTRUCT",
                    "output": "",
                    "revert": false,
                    "revertMessage": "",
                    "selector": "",
                    "status": true,
                    "value": "0"
                },
                "nodeType": 0
            },
            "15": {
                "invocation": {
                    "address": "0x39755357759ce0d7f32dc8dc45414cca409ae24e",
                    "callData": "0x000000000000000000000000000000000000000000000001b495b2c6b212483d000000000000000000000000c02aaa39b223fe8d0a0e5c4f27ead9083c756cc20000000000000000000000000000000000000000000001d1141626b18af45d0b00000000000000000000000089d24a6b4ccb1b6faa2625fe562bdd9a23260359000000000000000000000000000000000000000000000000000000000003652f",
                    "decodedMethod": {
                        "callParams": [
                            {
                                "name": "pay_amt",
                                "type": "uint256",
                                "value": "31,459,247,338,527,279,165"
                            },
                            {
                                "name": "pay_gem",
                                "type": "address",
                                "value": "0xc02aaa39b223fe8d0a0e5c4f27ead9083c756cc2"
                            },
                            {
                                "name": "buy_amt",
                                "type": "uint256",
                                "value": "8,579,183,381,149,170,031,883"
                            },
                            {
                                "name": "buy_gem",
                                "type": "address",
                                "value": "0x89d24a6b4ccb1b6faa2625fe562bdd9a23260359"
                            },
                            {
                                "name": "pos",
                                "type": "uint256",
                                "value": "222,511"
                            }
                        ],
                        "constructorArguments": "",
                        "name": "offer",
                        "returnParams": [
                            {
                                "name": "",
                                "type": "uint256",
                                "value": "222,545"
                            }
                        ],
                        "signature": "offer(uint256,address,uint256,address,uint256)"
                    },
                    "errorInfo": "",
                    "fromAddress": "0xad9eb619ce1033cc710d9f9806a2330f85875f22",
                    "gasUsed": 207578,
                    "id": 15,
                    "methodDecoded": true,
                    "operation": "CALL",
                    "output": "0x0000000000000000000000000000000000000000000000000000000000036551",
                    "revert": false,
                    "revertMessage": "",
                    "selector": "0x1b33d412",
                    "status": true,
                    "value": "0"
                },
                "nodeType": 0
            },
            "16": {
                "invocation": {
                    "address": "0xc02aaa39b223fe8d0a0e5c4f27ead9083c756cc2",
                    "callData": "0x000000000000000000000000ad9eb619ce1033cc710d9f9806a2330f85875f2200000000000000000000000039755357759ce0d7f32dc8dc45414cca409ae24e000000000000000000000000000000000000000000000001b495b2c6b212483d",
                    "decodedMethod": {
                        "callParams": [
                            {
                                "name": "src",
                                "type": "address",
                                "value": "0xad9eb619ce1033cc710d9f9806a2330f85875f22"
                            },
                            {
                                "name": "dst",
                                "type": "address",
                                "value": "0x39755357759ce0d7f32dc8dc45414cca409ae24e"
                            },
                            {
                                "decimalAvailable": true,
                                "name": "wad",
                                "type": "uint256",
                                "value": "31,459,247,338,527,279,165"
                            }
                        ],
                        "constructorArguments": "",
                        "name": "transferFrom",
                        "returnParams": [
                            {
                                "name": "",
                                "type": "bool",
                                "value": true
                            }
                        ],
                        "signature": "transferFrom(address,address,uint256)"
                    },
                    "errorInfo": "",
                    "fromAddress": "0x39755357759ce0d7f32dc8dc45414cca409ae24e",
                    "gasUsed": 13625,
                    "id": 16,
                    "methodDecoded": true,
                    "operation": "CALL",
                    "output": "0x0000000000000000000000000000000000000000000000000000000000000001",
                    "revert": false,
                    "revertMessage": "",
                    "selector": "0x23b872dd",
                    "status": true,
                    "value": "0"
                },
                "nodeType": 0
            },
            "17": {
                "event": {
                    "contract": "0xc02aaa39b223fe8d0a0e5c4f27ead9083c756cc2",
                    "decodedLog": {
                        "name": "Transfer",
                        "params": [
                            {
                                "name": "src",
                                "type": "address",
                                "value": "0xad9eb619ce1033cc710d9f9806a2330f85875f22"
                            },
                            {
                                "name": "dst",
                                "type": "address",
                                "value": "0x39755357759ce0d7f32dc8dc45414cca409ae24e"
                            },
                            {
                                "decimalAvailable": true,
                                "name": "wad",
                                "type": "uint256",
                                "value": "31,459,247,338,527,279,165"
                            }
                        ],
                        "signature": "Transfer(address,address,uint256)"
                    },
                    "id": 17,
                    "logData": "0x000000000000000000000000000000000000000000000001b495b2c6b212483d",
                    "logDecoded": true,
                    "operation": "EVENT",
                    "revert": false,
                    "status": true,
                    "topics": [
                        "0xddf252ad1be2c89b69c2b068fc378daa952ba7f163c4a11628f55a4df523b3ef",
                        "0x000000000000000000000000ad9eb619ce1033cc710d9f9806a2330f85875f22",
                        "0x00000000000000000000000039755357759ce0d7f32dc8dc45414cca409ae24e"
                    ]
                },
                "nodeType": 1
            },
            "18": {
                "event": {
                    "contract": "0x39755357759ce0d7f32dc8dc45414cca409ae24e",
                    "decodedLog": {
                        "name": "LogItemUpdate",
                        "params": [
                            {
                                "name": "id",
                                "type": "uint256",
                                "value": "222,545"
                            }
                        ],
                        "signature": "LogItemUpdate(uint256)"
                    },
                    "id": 18,
                    "logData": "0x0000000000000000000000000000000000000000000000000000000000036551",
                    "logDecoded": true,
                    "operation": "EVENT",
                    "revert": false,
                    "status": true,
                    "topics": [
                        "0xa2c251311b1a7a475913900a2a73dc9789a21b04bc737e050bbc506dd4eb3488"
                    ]
                },
                "nodeType": 1
            },
            "19": {
                "event": {
                    "contract": "0x39755357759ce0d7f32dc8dc45414cca409ae24e",
                    "decodedLog": {
                        "name": "LogMake",
                        "params": [
                            {
                                "name": "id",
                                "type": "bytes32",
                                "value": "0x0000000000000000000000000000000000000000000000000000000000036551"
                            },
                            {
                                "name": "pair",
                                "type": "bytes32",
                                "value": "0x9dd48110dcc444fdc242510c09bbbbe21a5975cac061d82f7b843bce061ba391"
                            },
                            {
                                "name": "maker",
                                "type": "address",
                                "value": "0xad9eb619ce1033cc710d9f9806a2330f85875f22"
                            },
                            {
                                "name": "pay_gem",
                                "type": "address",
                                "value": "0xc02aaa39b223fe8d0a0e5c4f27ead9083c756cc2"
                            },
                            {
                                "name": "buy_gem",
                                "type": "address",
                                "value": "0x89d24a6b4ccb1b6faa2625fe562bdd9a23260359"
                            },
                            {
                                "name": "pay_amt",
                                "type": "uint128",
                                "value": "31,459,247,338,527,279,165"
                            },
                            {
                                "name": "buy_amt",
                                "type": "uint128",
                                "value": "8,579,183,381,149,170,031,883"
                            },
                            {
                                "name": "timestamp",
                                "type": "uint64",
                                "value": "1,560,992,650"
                            }
                        ],
                        "signature": "LogMake(bytes32,bytes32,address,address,address,uint128,uint128,uint64)"
                    },
                    "id": 19,
                    "logData": "0x000000000000000000000000c02aaa39b223fe8d0a0e5c4f27ead9083c756cc200000000000000000000000089d24a6b4ccb1b6faa2625fe562bdd9a23260359000000000000000000000000000000000000000000000001b495b2c6b212483d0000000000000000000000000000000000000000000001d1141626b18af45d0b000000000000000000000000000000000000000000000000000000005d0adb8a",
                    "logDecoded": true,
                    "operation": "EVENT",
                    "revert": false,
                    "status": true,
                    "topics": [
                        "0x773ff502687307abfa024ac9f62f9752a0d210dac2ffd9a29e38e12e2ea82c82",
                        "0x0000000000000000000000000000000000000000000000000000000000036551",
                        "0x9dd48110dcc444fdc242510c09bbbbe21a5975cac061d82f7b843bce061ba391",
                        "0x000000000000000000000000ad9eb619ce1033cc710d9f9806a2330f85875f22"
                    ]
                },
                "nodeType": 1
            },
            "2": {
                "invocation": {
                    "address": "0x0000000000b3f879cb30fe243b4dfee438691c04",
                    "callData": "0x0000000000000000000000000000000000000000000000000000000000000006",
                    "decodedMethod": {
                        "callParams": [
                            {
                                "name": "value",
                                "type": "uint256",
                                "value": "6"
                            }
                        ],
                        "constructorArguments": "",
                        "name": "freeUpTo",
                        "returnParams": [
                            {
                                "name": "freed",
                                "type": "uint256",
                                "value": "6"
                            }
                        ],
                        "signature": "freeUpTo(uint256)"
                    },
                    "errorInfo": "",
                    "fromAddress": "0xad9eb619ce1033cc710d9f9806a2330f85875f22",
                    "gasUsed": 51274,
                    "id": 2,
                    "methodDecoded": true,
                    "operation": "CALL",
                    "output": "0x0000000000000000000000000000000000000000000000000000000000000006",
                    "revert": false,
                    "revertMessage": "",
                    "selector": "0x6366b936",
                    "status": true,
                    "value": "0"
                },
                "nodeType": 0
            },
            "20": {
                "event": {
                    "contract": "0x39755357759ce0d7f32dc8dc45414cca409ae24e",
                    "decodedLog": {
                        "name": "LogSortedOffer",
                        "params": [
                            {
                                "name": "id",
                                "type": "uint256",
                                "value": "222,545"
                            }
                        ],
                        "signature": "LogSortedOffer(uint256)"
                    },
                    "id": 20,
                    "logData": "0x0000000000000000000000000000000000000000000000000000000000036551",
                    "logDecoded": true,
                    "operation": "EVENT",
                    "revert": false,
                    "status": true,
                    "topics": [
                        "0x20fb9bad86c18f7e22e8065258790d9416a7d2df8ff05f80f82c46d38b925acd"
                    ]
                },
                "nodeType": 1
            },
            "3": {
                "invocation": {
                    "address": "0x80a61eeef0352a1629843875e24fc4a393bd21ff",
                    "callData": "0x",
                    "decodedMethod": null,
                    "errorInfo": "",
                    "fromAddress": "0x0000000000b3f879cb30fe243b4dfee438691c04",
                    "gasUsed": 5022,
                    "id": 3,
                    "methodDecoded": false,
                    "operation": "CALL",
                    "output": "",
                    "revert": false,
                    "revertMessage": "",
                    "selector": "fallback",
                    "status": true,
                    "value": "0"
                },
                "nodeType": 0
            },
            "4": {
                "invocation": {
                    "address": "0x0000000000b3f879cb30fe243b4dfee438691c04",
                    "callData": "",
                    "decodedMethod": null,
                    "errorInfo": "",
                    "fromAddress": "0x80a61eeef0352a1629843875e24fc4a393bd21ff",
                    "gasUsed": 0,
                    "id": 4,
                    "methodDecoded": false,
                    "operation": "SELFDESTRUCT",
                    "output": "",
                    "revert": false,
                    "revertMessage": "",
                    "selector": "",
                    "status": true,
                    "value": "0"
                },
                "nodeType": 0
            },
            "5": {
                "invocation": {
                    "address": "0x0f53ed3f0cf4d9dc81ad4b13c1925b40b7008f40",
                    "callData": "0x",
                    "decodedMethod": null,
                    "errorInfo": "",
                    "fromAddress": "0x0000000000b3f879cb30fe243b4dfee438691c04",
                    "gasUsed": 5022,
                    "id": 5,
                    "methodDecoded": false,
                    "operation": "CALL",
                    "output": "",
                    "revert": false,
                    "revertMessage": "",
                    "selector": "fallback",
                    "status": true,
                    "value": "0"
                },
                "nodeType": 0
            },
            "6": {
                "invocation": {
                    "address": "0x0000000000b3f879cb30fe243b4dfee438691c04",
                    "callData": "",
                    "decodedMethod": null,
                    "errorInfo": "",
                    "fromAddress": "0x0f53ed3f0cf4d9dc81ad4b13c1925b40b7008f40",
                    "gasUsed": 0,
                    "id": 6,
                    "methodDecoded": false,
                    "operation": "SELFDESTRUCT",
                    "output": "",
                    "revert": false,
                    "revertMessage": "",
                    "selector": "",
                    "status": true,
                    "value": "0"
                },
                "nodeType": 0
            },
            "7": {
                "invocation": {
                    "address": "0xf129398b01cd87663ac71931a07fad50795f5441",
                    "callData": "0x",
                    "decodedMethod": null,
                    "errorInfo": "",
                    "fromAddress": "0x0000000000b3f879cb30fe243b4dfee438691c04",
                    "gasUsed": 5022,
                    "id": 7,
                    "methodDecoded": false,
                    "operation": "CALL",
                    "output": "",
                    "revert": false,
                    "revertMessage": "",
                    "selector": "fallback",
                    "status": true,
                    "value": "0"
                },
                "nodeType": 0
            },
            "8": {
                "invocation": {
                    "address": "0x0000000000b3f879cb30fe243b4dfee438691c04",
                    "callData": "",
                    "decodedMethod": null,
                    "errorInfo": "",
                    "fromAddress": "0xf129398b01cd87663ac71931a07fad50795f5441",
                    "gasUsed": 0,
                    "id": 8,
                    "methodDecoded": false,
                    "operation": "SELFDESTRUCT",
                    "output": "",
                    "revert": false,
                    "revertMessage": "",
                    "selector": "",
                    "status": true,
                    "value": "0"
                },
                "nodeType": 0
            },
            "9": {
                "invocation": {
                    "address": "0x5fca3134d6b8f93accda6577137efe1c0152190a",
                    "callData": "0x",
                    "decodedMethod": null,
                    "errorInfo": "",
                    "fromAddress": "0x0000000000b3f879cb30fe243b4dfee438691c04",
                    "gasUsed": 5022,
                    "id": 9,
                    "methodDecoded": false,
                    "operation": "CALL",
                    "output": "",
                    "revert": false,
                    "revertMessage": "",
                    "selector": "fallback",
                    "status": true,
                    "value": "0"
                },
                "nodeType": 0
            }
        },
        "gasFlame": [
            {
                "children": [
                    {
                        "children": [
                            {
                                "children": [],
                                "depth": 0,
                                "name": "Initial Gas",
                                "value": 29528
                            },
                            {
                                "children": [
                                    {
                                        "children": [
                                            {
                                                "children": [
                                                    {
                                                        "children": [
                                                            {
                                                                "children": [],
                                                                "depth": 4,
                                                                "name": "",
                                                                "value": 0
                                                            }
                                                        ],
                                                        "depth": 3,
                                                        "name": "fallback",
                                                        "value": 5022
                                                    },
                                                    {
                                                        "children": [
                                                            {
                                                                "children": [],
                                                                "depth": 4,
                                                                "name": "",
                                                                "value": 0
                                                            }
                                                        ],
                                                        "depth": 3,
                                                        "name": "fallback",
                                                        "value": 5022
                                                    },
                                                    {
                                                        "children": [
                                                            {
                                                                "children": [],
                                                                "depth": 4,
                                                                "name": "",
                                                                "value": 0
                                                            }
                                                        ],
                                                        "depth": 3,
                                                        "name": "fallback",
                                                        "value": 5022
                                                    },
                                                    {
                                                        "children": [
                                                            {
                                                                "children": [],
                                                                "depth": 4,
                                                                "name": "",
                                                                "value": 0
                                                            }
                                                        ],
                                                        "depth": 3,
                                                        "name": "fallback",
                                                        "value": 5022
                                                    },
                                                    {
                                                        "children": [
                                                            {
                                                                "children": [],
                                                                "depth": 4,
                                                                "name": "",
                                                                "value": 0
                                                            }
                                                        ],
                                                        "depth": 3,
                                                        "name": "fallback",
                                                        "value": 5022
                                                    },
                                                    {
                                                        "children": [
                                                            {
                                                                "children": [],
                                                                "depth": 4,
                                                                "name": "",
                                                                "value": 0
                                                            }
                                                        ],
                                                        "depth": 3,
                                                        "name": "fallback",
                                                        "value": 5022
                                                    }
                                                ],
                                                "depth": 2,
                                                "name": "freeUpTo",
                                                "value": 51274
                                            },
                                            {
                                                "children": [
                                                    {
                                                        "children": [],
                                                        "depth": 3,
                                                        "name": "transferFrom",
                                                        "value": 13625
                                                    }
                                                ],
                                                "depth": 2,
                                                "name": "offer",
                                                "value": 207578
                                            }
                                        ],
                                        "depth": 1,
                                        "name": "execute_44g58pv",
                                        "value": 260537
                                    }
                                ],
                                "depth": 0,
                                "name": "Executed Gas",
                                "value": 262232
                            }
                        ],
                        "depth": -1,
                        "name": "Actual Gas Used",
                        "value": 147760
                    },
                    {
                        "children": [],
                        "depth": -1,
                        "name": "Refunded Gas",
                        "value": 144000
                    }
                ],
                "depth": -2,
                "name": "Total Gas",
                "value": 291760
            }
        ],
        "isConfirmed": true,
        "mainTrace": [
            {
                "children": [
                    {
                        "children": [
                            {
                                "children": [
                                    {
                                        "children": [
                                            {
                                                "children": [
                                                    {
                                                        "children": [],
                                                        "depth": 4,
                                                        "id": 4,
                                                        "order": 4
                                                    }
                                                ],
                                                "depth": 3,
                                                "id": 3,
                                                "order": 3
                                            },
                                            {
                                                "children": [
                                                    {
                                                        "children": [],
                                                        "depth": 4,
                                                        "id": 6,
                                                        "order": 6
                                                    }
                                                ],
                                                "depth": 3,
                                                "id": 5,
                                                "order": 5
                                            },
                                            {
                                                "children": [
                                                    {
                                                        "children": [],
                                                        "depth": 4,
                                                        "id": 8,
                                                        "order": 8
                                                    }
                                                ],
                                                "depth": 3,
                                                "id": 7,
                                                "order": 7
                                            },
                                            {
                                                "children": [
                                                    {
                                                        "children": [],
                                                        "depth": 4,
                                                        "id": 10,
                                                        "order": 10
                                                    }
                                                ],
                                                "depth": 3,
                                                "id": 9,
                                                "order": 9
                                            },
                                            {
                                                "children": [
                                                    {
                                                        "children": [],
                                                        "depth": 4,
                                                        "id": 12,
                                                        "order": 12
                                                    }
                                                ],
                                                "depth": 3,
                                                "id": 11,
                                                "order": 11
                                            },
                                            {
                                                "children": [
                                                    {
                                                        "children": [],
                                                        "depth": 4,
                                                        "id": 14,
                                                        "order": 14
                                                    }
                                                ],
                                                "depth": 3,
                                                "id": 13,
                                                "order": 13
                                            }
                                        ],
                                        "depth": 2,
                                        "id": 2,
                                        "order": 2
                                    },
                                    {
                                        "children": [
                                            {
                                                "children": [
                                                    {
                                                        "children": [],
                                                        "depth": 4,
                                                        "id": 17,
                                                        "order": 17
                                                    }
                                                ],
                                                "depth": 3,
                                                "id": 16,
                                                "order": 16
                                            },
                                            {
                                                "children": [],
                                                "depth": 3,
                                                "id": 18,
                                                "order": 18
                                            },
                                            {
                                                "children": [],
                                                "depth": 3,
                                                "id": 19,
                                                "order": 19
                                            },
                                            {
                                                "children": [],
                                                "depth": 3,
                                                "id": 20,
                                                "order": 20
                                            }
                                        ],
                                        "depth": 2,
                                        "id": 15,
                                        "order": 15
                                    }
                                ],
                                "depth": 1,
                                "id": 1,
                                "order": 1
                            }
                        ],
                        "depth": 0,
                        "id": 0,
                        "order": 0
                    }
                ],
                "depth": -1,
                "id": -1,
                "order": -1
            }
        ],
        "mainTraceNodeCount": 21,
        "parentIdMap": {
            "0": -1,
            "1": 0,
            "10": 9,
            "11": 2,
            "12": 11,
            "13": 2,
            "14": 13,
            "15": 1,
            "16": 15,
            "17": 16,
            "18": 15,
            "19": 15,
            "2": 1,
            "20": 15,
            "3": 2,
            "4": 3,
            "5": 2,
            "6": 5,
            "7": 2,
            "8": 7,
            "9": 2
        },
        "tidyTrace": [
            {
                "children": [
                    {
                        "children": [
                            {
                                "children": [
                                    {
                                        "children": [
                                            {
                                                "children": [
                                                    {
                                                        "children": [],
                                                        "depth": 4,
                                                        "id": 4,
                                                        "order": 4
                                                    }
                                                ],
                                                "depth": 3,
                                                "id": 3,
                                                "order": 3
                                            },
                                            {
                                                "children": [
                                                    {
                                                        "children": [],
                                                        "depth": 4,
                                                        "id": 6,
                                                        "order": 6
                                                    }
                                                ],
                                                "depth": 3,
                                                "id": 5,
                                                "order": 5
                                            },
                                            {
                                                "children": [
                                                    {
                                                        "children": [],
                                                        "depth": 4,
                                                        "id": 8,
                                                        "order": 8
                                                    }
                                                ],
                                                "depth": 3,
                                                "id": 7,
                                                "order": 7
                                            },
                                            {
                                                "children": [
                                                    {
                                                        "children": [],
                                                        "depth": 4,
                                                        "id": 10,
                                                        "order": 10
                                                    }
                                                ],
                                                "depth": 3,
                                                "id": 9,
                                                "order": 9
                                            },
                                            {
                                                "children": [
                                                    {
                                                        "children": [],
                                                        "depth": 4,
                                                        "id": 12,
                                                        "order": 12
                                                    }
                                                ],
                                                "depth": 3,
                                                "id": 11,
                                                "order": 11
                                            },
                                            {
                                                "children": [
                                                    {
                                                        "children": [],
                                                        "depth": 4,
                                                        "id": 14,
                                                        "order": 14
                                                    }
                                                ],
                                                "depth": 3,
                                                "id": 13,
                                                "order": 13
                                            }
                                        ],
                                        "depth": 2,
                                        "id": 2,
                                        "order": 2
                                    },
                                    {
                                        "children": [
                                            {
                                                "children": [
                                                    {
                                                        "children": [],
                                                        "depth": 4,
                                                        "id": 17,
                                                        "order": 17
                                                    }
                                                ],
                                                "depth": 3,
                                                "id": 16,
                                                "order": 16
                                            },
                                            {
                                                "children": [],
                                                "depth": 3,
                                                "id": 18,
                                                "order": 18
                                            },
                                            {
                                                "children": [],
                                                "depth": 3,
                                                "id": 19,
                                                "order": 19
                                            },
                                            {
                                                "children": [],
                                                "depth": 3,
                                                "id": 20,
                                                "order": 20
                                            }
                                        ],
                                        "depth": 2,
                                        "id": 15,
                                        "order": 15
                                    }
                                ],
                                "depth": 1,
                                "id": 1,
                                "order": 1
                            }
                        ],
                        "depth": 0,
                        "id": 0,
                        "order": 0
                    }
                ],
                "depth": -1,
                "id": -1,
                "order": -1
            }
        ],
        "tidyTraceNodeCount": 21
    },
    "state_change": {
        "stateChanges": [
            {
                "address": "0x0000000000b3f879cb30fe243b4dfee438691c04",
                "erc": "ERC-20",
                "slots": [
                    {
                        "current": "0x00000000000000000000000000000000000000000000000000000000000547db",
                        "key": "0x0000000000000000000000000000000000000000000000000000000000000003",
                        "prev": "0x00000000000000000000000000000000000000000000000000000000000547d5"
                    },
                    {
                        "current": "0x0000000000000000000000000000000000000000000000000000000000000d89",
                        "key": "0x2297f505dac0b8016545d6a8b5b672f02a9f2404a6624b9a37540fcfaba40887",
                        "prev": "0x0000000000000000000000000000000000000000000000000000000000000d8f"
                    }
                ],
                "storageVariables": [
                    {
                        "name": "s_tail",
                        "type": "uint256",
                        "value": {
                            "current": "346075",
                            "prev": "346069",
                            "typeTag": 1
                        }
                    },
                    {
                        "name": "s_balances",
                        "type": "mapping(address => uint256)",
                        "value": {
                            "pairs": [
                                {
                                    "key": "0xad9eb619ce1033cc710d9f9806a2330f85875f22",
                                    "value": {
                                        "current": "3465",
                                        "prev": "3471",
                                        "typeTag": 1
                                    }
                                }
                            ],
                            "typeTag": 4
                        }
                    }
                ]
            },
            {
                "address": "0x39755357759ce0d7f32dc8dc45414cca409ae24e",
                "erc": "",
                "slots": [
                    {
                        "current": "0x0000000000000000000000000000000000000000000000000000000000036551",
                        "key": "0x0000000000000000000000000000000000000000000000000000000000000002",
                        "prev": "0x0000000000000000000000000000000000000000000000000000000000036550"
                    },
                    {
                        "current": "0x000000000000000000000000000000000000000000000000000000000003654f",
                        "key": "0x91813b26792dc2a6d370f311c50aaf45917fe50af60d65983d57bad4c201a027",
                        "prev": "0x0000000000000000000000000000000000000000000000000000000000000000"
                    },
                    {
                        "current": "0x000000000000000000000000c02aaa39b223fe8d0a0e5c4f27ead9083c756cc2",
                        "key": "0x17d87689cb95edd7c18fc1b680f6f064be711468a0e356aef60fe01f84644bc1",
                        "prev": "0x0000000000000000000000000000000000000000000000000000000000000000"
                    },
                    {
                        "current": "0x00000000000000000000000089d24a6b4ccb1b6faa2625fe562bdd9a23260359",
                        "key": "0x17d87689cb95edd7c18fc1b680f6f064be711468a0e356aef60fe01f84644bc3",
                        "prev": "0x0000000000000000000000000000000000000000000000000000000000000000"
                    },
                    {
                        "current": "0x00000000000000005d0adb8aad9eb619ce1033cc710d9f9806a2330f85875f22",
                        "key": "0x17d87689cb95edd7c18fc1b680f6f064be711468a0e356aef60fe01f84644bc4",
                        "prev": "0x0000000000000000000000000000000000000000000000000000000000000000"
                    },
                    {
                        "current": "0x0000000000000000000000000000000000000000000000000000000000000067",
                        "key": "0xcc9bd740ec949c1c5f14f207591d901e2f99f59fc9709ff11e2a59fbbccfa000",
                        "prev": "0x0000000000000000000000000000000000000000000000000000000000000066"
                    },
                    {
                        "current": "0x0000000000000000000000000000000000000000000000000000000000036551",
                        "key": "0x9d3d80f76100e4b31793d3caadbd627384ce0ef2ae4b6d313b6ca253cb3a1a23",
                        "prev": "0x000000000000000000000000000000000000000000000000000000000003654f"
                    },
                    {
                        "current": "0x000000000000000000000000000000000000000000000000000000000003652f",
                        "key": "0x91813b26792dc2a6d370f311c50aaf45917fe50af60d65983d57bad4c201a026",
                        "prev": "0x0000000000000000000000000000000000000000000000000000000000000000"
                    },
                    {
                        "current": "0x0000000000000000000000000000000000000000000000000000000000036551",
                        "key": "0xb8c223f8806fd221d349cd828ff605b90f756e3152b16d6427a64a0f32d84a93",
                        "prev": "0x000000000000000000000000000000000000000000000000000000000003652f"
                    },
                    {
                        "current": "0x000000000000000000000000000000000000000000000001b495b2c6b212483d",
                        "key": "0x17d87689cb95edd7c18fc1b680f6f064be711468a0e356aef60fe01f84644bc0",
                        "prev": "0x0000000000000000000000000000000000000000000000000000000000000000"
                    },
                    {
                        "current": "0x0000000000000000000000000000000000000000000001d1141626b18af45d0b",
                        "key": "0x17d87689cb95edd7c18fc1b680f6f064be711468a0e356aef60fe01f84644bc2",
                        "prev": "0x0000000000000000000000000000000000000000000000000000000000000000"
                    }
                ],
                "storageVariables": [
                    {
                        "name": "last_offer_id",
                        "type": "uint256",
                        "value": {
                            "current": "222545",
                            "prev": "222544",
                            "typeTag": 1
                        }
                    },
                    {
                        "name": "_rank",
                        "type": "mapping(uint256 => struct MatchingMarket.sortInfo)",
                        "value": {
                            "pairs": [
                                {
                                    "key": "222511",
                                    "value": {
                                        "fields": [
                                            {
                                                "name": "prev",
                                                "type": "uint256",
                                                "value": {
                                                    "current": "222545",
                                                    "prev": "222543",
                                                    "typeTag": 1
                                                }
                                            }
                                        ],
                                        "typeTag": 3
                                    }
                                },
                                {
                                    "key": "222543",
                                    "value": {
                                        "fields": [
                                            {
                                                "name": "next",
                                                "type": "uint256",
                                                "value": {
                                                    "current": "222545",
                                                    "prev": "222511",
                                                    "typeTag": 1
                                                }
                                            }
                                        ],
                                        "typeTag": 3
                                    }
                                },
                                {
                                    "key": "222545",
                                    "value": {
                                        "fields": [
                                            {
                                                "name": "next",
                                                "type": "uint256",
                                                "value": {
                                                    "current": "222511",
                                                    "prev": "0",
                                                    "typeTag": 1
                                                }
                                            },
                                            {
                                                "name": "prev",
                                                "type": "uint256",
                                                "value": {
                                                    "current": "222543",
                                                    "prev": "0",
                                                    "typeTag": 1
                                                }
                                            }
                                        ],
                                        "typeTag": 3
                                    }
                                }
                            ],
                            "typeTag": 4
                        }
                    },
                    {
                        "name": "offers",
                        "type": "mapping(uint256 => struct SimpleMarket.OfferInfo)",
                        "value": {
                            "pairs": [
                                {
                                    "key": "222545",
                                    "value": {
                                        "fields": [
                                            {
                                                "name": "pay_amt",
                                                "type": "uint256",
                                                "value": {
                                                    "current": "31459247338527279165",
                                                    "prev": "0",
                                                    "typeTag": 1
                                                }
                                            },
                                            {
                                                "name": "pay_gem",
                                                "type": "contract ERC20",
                                                "value": {
                                                    "current": "0xc02aaa39b223fe8d0a0e5c4f27ead9083c756cc2",
                                                    "prev": "0x0000000000000000000000000000000000000000",
                                                    "typeTag": 1
                                                }
                                            },
                                            {
                                                "name": "buy_amt",
                                                "type": "uint256",
                                                "value": {
                                                    "current": "8579183381149170031883",
                                                    "prev": "0",
                                                    "typeTag": 1
                                                }
                                            },
                                            {
                                                "name": "buy_gem",
                                                "type": "contract ERC20",
                                                "value": {
                                                    "current": "0x89d24a6b4ccb1b6faa2625fe562bdd9a23260359",
                                                    "prev": "0x0000000000000000000000000000000000000000",
                                                    "typeTag": 1
                                                }
                                            },
                                            {
                                                "name": "owner",
                                                "type": "address",
                                                "value": {
                                                    "current": "0xad9eb619ce1033cc710d9f9806a2330f85875f22",
                                                    "prev": "0x0000000000000000000000000000000000000000",
                                                    "typeTag": 1
                                                }
                                            },
                                            {
                                                "name": "timestamp",
                                                "type": "uint64",
                                                "value": {
                                                    "current": "1560992650",
                                                    "prev": "0",
                                                    "typeTag": 1
                                                }
                                            }
                                        ],
                                        "typeTag": 3
                                    }
                                }
                            ],
                            "typeTag": 4
                        }
                    },
                    {
                        "name": "_span",
                        "type": "mapping(address => mapping(address => uint256))",
                        "value": {
                            "pairs": [
                                {
                                    "key": "0xc02aaa39b223fe8d0a0e5c4f27ead9083c756cc2",
                                    "value": {
                                        "pairs": [
                                            {
                                                "key": "0x89d24a6b4ccb1b6faa2625fe562bdd9a23260359",
                                                "value": {
                                                    "current": "103",
                                                    "prev": "102",
                                                    "typeTag": 1
                                                }
                                            }
                                        ],
                                        "typeTag": 4
                                    }
                                }
                            ],
                            "typeTag": 4
                        }
                    }
                ]
            },
            {
                "address": "0xc02aaa39b223fe8d0a0e5c4f27ead9083c756cc2",
                "erc": "ERC-20",
                "slots": [
                    {
                        "current": "0x00000000000000000000000000000000000000000000001fd3647e999fc36f86",
                        "key": "0xf357e887b871a045a06c5656b2cdf7c45762792b9e62062eb6520f329f1c2f73",
                        "prev": "0x00000000000000000000000000000000000000000000002187fa316051d5b7c3"
                    },
                    {
                        "current": "0x0000000000000000000000000000000000000000000001f5f569352affc5fdc4",
                        "key": "0xecced9b33d22c9f8431bf329c5851168432be8f905355b0611c764c4e584c0f3",
                        "prev": "0x0000000000000000000000000000000000000000000001f440d382644db3b587"
                    }
                ],
                "storageVariables": [
                    {
                        "name": "balanceOf",
                        "type": "mapping(address => uint256)",
                        "value": {
                            "pairs": [
                                {
                                    "key": "0x39755357759ce0d7f32dc8dc45414cca409ae24e",
                                    "value": {
                                        "current": "9259502504799128387012",
                                        "prev": "9228043257460601107847",
                                        "typeTag": 1
                                    }
                                },
                                {
                                    "key": "0xad9eb619ce1033cc710d9f9806a2330f85875f22",
                                    "value": {
                                        "current": "587081505322945441670",
                                        "prev": "618540752661472720835",
                                        "typeTag": 1
                                    }
                                }
                            ],
                            "typeTag": 4
                        }
                    }
                ]
            }
        ]
    }
}