{
    "balance_change": {
        "balanceChanges": [
            {
                "account": "0x2b5634c42055806a59e9107ed44d43c426e58258",
                "assets": [
                    {
                        "address": "0x4270bb238f6dd8b1c3ca01f96ca65b2647c06d3c",
                        "amount": "106,142.9544",
                        "iconUrl": "https://assets.blocksec.com/icon/2e377797ec5e958ce7119427c86d6201b13c443318cb4aba98a9824db73c9d11.png",
                        "isERC1155": false,
                        "isERC721": false,
                        "sign": false,
                        "value": ""
                    }
                ]
            },
            {
                "account": "0x170e35fdcdc2d4a8330e4d0beed7449b166705fb",
                "assets": [
                    {
                        "address": "0x4270bb238f6dd8b1c3ca01f96ca65b2647c06d3c",
                        "amount": "106,142.9544",
                        "iconUrl": "https://assets.blocksec.com/icon/2e377797ec5e958ce7119427c86d6201b13c443318cb4aba98a9824db73c9d11.png",
                        "isERC1155": false,
                        "isERC721": false,
                        "sign": true,
                        "value": ""
                    }
                ]
            }
        ]
    },
    "profile": {
        "basic_info": {
            "baseFee": "",
            "blockNumber": 8515124,
            "callData": "0xa9059cbb000000000000000000000000170e35fdcdc2d4a8330e4d0beed7449b166705fb00000000000000000000000000000000000000000000167a05660153555a0000",
            "debugEnable": true,
            "errorInfo": "",
            "eventCount": 1,
            "feeRecipient": "0x52bc44d5378309ee2abf1539bf71de1b7d7be3b5",
            "formatValue": "0",
            "gasLimit": 131208,
            "gasPrice": "27",
            "gasUsed": 54139,
            "intTxnCount": 0,
            "internalRevert": false,
            "internalRevertMessage": "",
            "isContractCreation": false,
            "isFlashloan": false,
            "maxFee": "",
            "nonce": 1600768,
            "overwritedBlockNumber": -1,
            "priorityFee": "",
            "receiver": "0x4270bb238f6dd8b1c3ca01f96ca65b2647c06d3c",
            "revertMessage": "",
            "sender": "0x2b5634c42055806a59e9107ed44d43c426e58258",
            "simulationEnable": true,
            "sourceTxnHash": "0xd6566c8e039d1e508c2da35c02e476dfc8b743c47973c17318a255567fb95912",
            "status": true,
            "timestamp": "2019-09-09T10:23:13Z",
            "transactionFee": "0.001461753",
            "txnHash": "0xd6566c8e039d1e508c2da35c02e476dfc8b743c47973c17318a255567fb95912",
            "txnIndex": 25,
            "type": 0,
            "value": "0"
        },
        "fund_flow": [
            {
                "amount": "106,142.9544",
                "from": "0x2b5634c42055806a59e9107ed44d43c426e58258",
                "id": 1,
                "isERC1155": false,
                "isERC721": false,
                "isReverted": false,
                "order": 1,
                "to": "0x170e35fdcdc2d4a8330e4d0beed7449b166705fb",
                "token": "0x4270bb238f6dd8b1c3ca01f96ca65b2647c06d3c"
            }
        ],
        "token_infos": [
            {
                "address": "0x4270bb238f6dd8b1c3ca01f96ca65b2647c06d3c",
                "decimals": 18
            },
            {
                "address": "0xc02aaa39b223fe8d0a0e5c4f27ead9083c756cc2",
                "decimals": 18
            },
            {
                "address": "0xeeeeeeeeeeeeeeeeeeeeeeeeeeeeeeeeeeeeeeee",
                "decimals": 18
            }
        ]
    },
    "address_label": {
        "labels": [
            {
                "address": "0x4270bb238f6dd8b1c3ca01f96ca65b2647c06d3c",
                "label": "FOTA (FOTA)"
            },
            {
                "address": "0x0000000000000000000000000000000000000001",
                "label": "Precompiled"
            },
            {
                "address": "0x0000000000000000000000000000000000000002",
                "label": "Precompiled"
            },
            {
                "address": "0x0000000000000000000000000000000000000003",
                "label": "Precompiled"
            },
            {
                "address": "0x0000000000000000000000000000000000000004",
                "label": "Precompiled"
            },
            {
                "address": "0xeeeeeeeeeeeeeeeeeeeeeeeeeeeeeeeeeeeeeeee",
                "label": "Ether"
            },
            {
                "address": "0x2b5634c42055806a59e9107ed44d43c426e58258",
                "label": "KuCoin"
            }
        ]
    },
    "trace": {
        "accountLabels": null,
        "dataMap": {
            "-1": {
                "invocation": {
                    "address": "0x2b5634c42055806a59e9107ed44d43c426e58258",
                    "callData": "",
                    "decodedMethod": null,
                    "errorInfo": "",
                    "fromAddress": "",
                    "gasUsed": 0,
                    "id": -1,
                    "methodDecoded": false,
                    "operation": "",
                    "output": "",
                    "revert": false,
                    "revertMessage": "",
                    "selector": "",
                    "status": false,
                    "value": ""
                },
                "nodeType": 0
            },
            "0": {
                "invocation": {
                    "address": "0x4270bb238f6dd8b1c3ca01f96ca65b2647c06d3c",
                    "callData": "0x000000000000000000000000170e35fdcdc2d4a8330e4d0beed7449b166705fb00000000000000000000000000000000000000000000167a05660153555a0000",
                    "decodedMethod": {
                        "callParams": [
                            {
                                "name": "_to",
                                "type": "address",
                                "value": "0x170e35fdcdc2d4a8330e4d0beed7449b166705fb"
                            },
                            {
                                "decimalAvailable": true,
                                "name": "_value",
                                "type": "uint256",
                                "value": "106,142,954,400,000,000,000,000"
                            }
                        ],
                        "constructorArguments": "",
                        "name": "transfer",
                        "returnParams": [
                            {
                                "name": "success",
                                "type": "bool",
                                "value": true
                            }
                        ],
                        "signature": "transfer(address,uint256)"
                    },
                    "errorInfo": "",
                    "fromAddress": "0x2b5634c42055806a59e9107ed44d43c426e58258",
                    "gasUsed": 54139,
                    "id": 0,
                    "methodDecoded": true,
                    "operation": "CALL",
                    "output": "0x0000000000000000000000000000000000000000000000000000000000000001",
                    "revert": false,
                    "revertMessage": "",
                    "selector": "0xa9059cbb",
                    "status": true,
                    "value": "0"
                },
                "nodeType": 0
            },
            "1": {
                "event": {
                    "contract": "0x4270bb238f6dd8b1c3ca01f96ca65b2647c06d3c",
                    "decodedLog": {
                        "name": "Transfer",
                        "params": [
                            {
                                "name": "from",
                                "type": "address",
                                "value": "0x2b5634c42055806a59e9107ed44d43c426e58258"
                            },
                            {
                                "name": "to",
                                "type": "address",
                                "value": "0x170e35fdcdc2d4a8330e4d0beed7449b166705fb"
                            },
                            {
                                "decimalAvailable": true,
                                "name": "value",
                                "type": "uint256",
                                "value": "106,142,954,400,000,000,000,000"
                            }
                        ],
                        "signature": "Transfer(address,address,uint256)"
                    },
                    "id": 1,
                    "logData": "0x00000000000000000000000000000000000000000000167a05660153555a0000",
                    "logDecoded": true,
                    "operation": "EVENT",
                    "revert": false,
                    "status": true,
                    "topics": [
                        "0xddf252ad1be2c89b69c2b068fc378daa952ba7f163c4a11628f55a4df523b3ef",
                        "0x0000000000000000000000002b5634c42055806a59e9107ed44d43c426e58258",
                        "0x000000000000000000000000170e35fdcdc2d4a8330e4d0beed7449b166705fb"
                    ]
                },
                "nodeType": 1
            }
        },
        "gasFlame": [
            {
                "children": [
                    {
                        "children": [
                            {
                                "children": [],
                                "depth": 0,
                                "name": "Initial Gas",
                                "value": 23320
                            },
                            {
                                "children": [],
                                "depth": 0,
                                "name": "Executed Gas",
                                "value": 30819
                            }
                        ],
                        "depth": -1,
                        "name": "Actual Gas Used",
                        "value": 54139
                    },
                    {
                        "children": [],
                        "depth": -1,
                        "name": "Refunded Gas",
                        "value": 0
                    }
                ],
                "depth": -2,
                "name": "Total Gas",
                "value": 54139
            }
        ],
        "isConfirmed": true,
        "mainTrace": [
            {
                "children": [
                    {
                        "children": [
                            {
                                "children": [],
                                "depth": 1,
                                "id": 1,
                                "order": 1
                            }
                        ],
                        "depth": 0,
                        "id": 0,
                        "order": 0
                    }
                ],
                "depth": -1,
                "id": -1,
                "order": -1
            }
        ],
        "mainTraceNodeCount": 2,
        "parentIdMap": {
            "0": -1,
            "1": 0
        },
        "tidyTrace": [
            {
                "children": [
                    {
                        "children": [
                            {
                                "children": [],
                                "depth": 1,
                                "id": 1,
                                "order": 1
                            }
                        ],
                        "depth": 0,
                        "id": 0,
                        "order": 0
                    }
                ],
                "depth": -1,
                "id": -1,
                "order": -1
            }
        ],
        "tidyTraceNodeCount": 2
    },
    "state_change": {
        "stateChanges": [
            {
                "address": "0x4270bb238f6dd8b1c3ca01f96ca65b2647c06d3c",
                "erc": "",
                "slots": [
                    {
                        "current": "0x000000000000000000000000000000000000000000082c3114c8e2f46f678cbb",
                        "key": "0x632f4916dfe480eb5a7cd178893fc26b7ea83b678643cac6372a1e1c2b2b9e31",
                        "prev": "0x0000000000000000000000000000000000000000000842ab1a2ee447c4c18cbb"
                    },
                    {
                        "current": "0x00000000000000000000000000000000000000000000167a05660153555a0000",
                        "key": "0x968f024b8be1d5392f425a0be481946eac6dcb1ebd6b1bdcfaac6108df96793a",
                        "prev": "0x0000000000000000000000000000000000000000000000000000000000000000"
                    }
                ],
                "storageVariables": [
                    {
                        "name": "balanceOf",
                        "type": "mapping(address => uint256)",
                        "value": {
                            "pairs": [
                                {
                                    "key": "0x170e35fdcdc2d4a8330e4d0beed7449b166705fb",
                                    "value": {
                                        "current": "106142954400000000000000",
                                        "prev": "0",
                                        "typeTag": 1
                                    }
                                },
                                {
                                    "key": "0x2b5634c42055806a59e9107ed44d43c426e58258",
                                    "value": {
                                        "current": "9880096070319325124725947",
                                        "prev": "9986239024719325124725947",
                                        "typeTag": 1
                                    }
                                }
                            ],
                            "typeTag": 4
                        }
                    }
                ]
            }
        ]
    }
}