{
    "balance_change": {
        "balanceChanges": [
            {
                "account": "0x29e99546993af110c5bfb60ed01da4428989269c",
                "assets": [
                    {
                        "address": "0xcc8fa225d80b9c7d42f96e9570156c65d6caaa25",
                        "amount": "4,538",
                        "iconUrl": "https://assets.blocksec.com/icon/fc2a01d842c57a6a1fac3bd31569aeef596b047fed4623ea8486a1bc2aefb50d.png",
                        "isERC1155": false,
                        "isERC721": false,
                        "sign": true,
                        "value": "1.0617822"
                    }
                ]
            },
            {
                "account": "0x1a2a1c938ce3ec39b6d47113c7955baa9dd454f2",
                "assets": [
                    {
                        "address": "0xcc8fa225d80b9c7d42f96e9570156c65d6caaa25",
                        "amount": "4,538",
                        "iconUrl": "https://assets.blocksec.com/icon/fc2a01d842c57a6a1fac3bd31569aeef596b047fed4623ea8486a1bc2aefb50d.png",
                        "isERC1155": false,
                        "isERC721": false,
                        "sign": false,
                        "value": "1.0617822"
                    }
                ]
            }
        ]
    },
    "profile": {
        "basic_info": {
            "baseFee": "",
            "blockNumber": 12808263,
            "callData": "0x993e1c420000000000000000000000000000000000000000000000000000000000025bf400000000000000000000000029e99546993af110c5bfb60ed01da4428989269c000000000000000000000000cc8fa225d80b9c7d42f96e9570156c65d6caaa2500000000000000000000000000000000000000000000000000000000000011ba00000000000000000000000000000000000000000000000000000000000000a000000000000000000000000000000000000000000000000000000000000000c601c725c0ab8e4bdf616b431286a68f0b15b007f151894a17b9a18f83f283f5edbd6af19ebc48d291ec3214f2fac08803f9ed0d77298e19cf33688b0d1f27bfc1691c01c2630e4ee64219a4c8d75bf628d6df7d19ac3cad4b1783f2e7daddcc9bfece1b46093004dbd2a6ad545ff3012dbcbd9f3453ddba3dd216bc19c6ad44c87a07961c01d72d6043cccf7fff792745a0cac8fc4e35b8bfba2117cdce53015e2699c27d5c51c087883db18a66bd5142c156508766a7623fe6e06348a7a3b7e7004b1f34f81b0000000000000000000000000000000000000000000000000000",
            "debugEnable": true,
            "errorInfo": "",
            "eventCount": 2,
            "feeRecipient": "0x829bd824b016326a401d083b33d092293333a830",
            "formatValue": "0",
            "gasLimit": 240796,
            "gasPrice": "11",
            "gasUsed": 188338,
            "intTxnCount": 15,
            "internalRevert": false,
            "internalRevertMessage": "",
            "isContractCreation": false,
            "isFlashloan": false,
            "maxFee": "",
            "nonce": 39,
            "overwritedBlockNumber": -1,
            "priorityFee": "",
            "receiver": "0x1a2a1c938ce3ec39b6d47113c7955baa9dd454f2",
            "revertMessage": "",
            "sender": "0x29e99546993af110c5bfb60ed01da4428989269c",
            "simulationEnable": true,
            "sourceTxnHash": "0xd7c1926b84d106792a21a32be3234501dd0b635da9fe9e164e4a29cae8795abf",
            "status": true,
            "timestamp": "2021-07-11T20:47:18Z",
            "transactionFee": "0.002071718",
            "txnHash": "0xd7c1926b84d106792a21a32be3234501dd0b635da9fe9e164e4a29cae8795abf",
            "txnIndex": 36,
            "type": 0,
            "value": "0"
        },
        "fund_flow": [
            {
                "amount": "4,538",
                "from": "0x1a2a1c938ce3ec39b6d47113c7955baa9dd454f2",
                "id": 1,
                "isERC1155": false,
                "isERC721": false,
                "isReverted": false,
                "order": 1,
                "to": "0x29e99546993af110c5bfb60ed01da4428989269c",
                "token": "0xcc8fa225d80b9c7d42f96e9570156c65d6caaa25"
            }
        ],
        "token_infos": [
            {
                "address": "0xc02aaa39b223fe8d0a0e5c4f27ead9083c756cc2",
                "decimals": 18
            },
            {
                "address": "0xcc8fa225d80b9c7d42f96e9570156c65d6caaa25",
                "decimals": 0
            },
            {
                "address": "0xeeeeeeeeeeeeeeeeeeeeeeeeeeeeeeeeeeeeeeee",
                "decimals": 18
            }
        ]
    },
    "address_label": {
        "labels": [
            {
                "address": "0xeeeeeeeeeeeeeeeeeeeeeeeeeeeeeeeeeeeeeeee",
                "label": "Ether"
            },
            {
                "address": "0x33e71e649abdc09f650ad44139674828a2075ad2",
                "label": "Registry"
            },
            {
                "address": "0x42b19dca30fd612b1757682c074497847f2b57e0",
                "label": "MainchainValidator"
            },
            {
                "address": "0x0000000000000000000000000000000000000002",
                "label": "Precompiled"
            },
            {
                "address": "0x0000000000000000000000000000000000000003",
                "label": "Precompiled"
            },
            {
                "address": "0x0000000000000000000000000000000000000004",
                "label": "Precompiled"
            },
            {
                "address": "0xcc8fa225d80b9c7d42f96e9570156c65d6caaa25",
                "label": "Axie Infinity: SLP Token"
            },
            {
                "address": "0xc02aaa39b223fe8d0a0e5c4f27ead9083c756cc2",
                "label": "Wrapped Ether (WETH)"
            },
            {
                "address": "0x1a2a1c938ce3ec39b6d47113c7955baa9dd454f2",
                "label": "Axie Infinity: Ronin Bridge"
            },
            {
                "address": "0x8407dc57739bcda7aa53ca6f12f82f9d51c2f21e",
                "label": "MainchainGatewayManager"
            },
            {
                "address": "0x0000000000000000000000000000000000000001",
                "label": "Precompiled"
            }
        ]
    },
    "trace": {
        "accountLabels": null,
        "dataMap": {
            "-1": {
                "invocation": {
                    "address": "0x29e99546993af110c5bfb60ed01da4428989269c",
                    "callData": "",
                    "decodedMethod": null,
                    "errorInfo": "",
                    "fromAddress": "",
                    "gasUsed": 0,
                    "id": -1,
                    "methodDecoded": false,
                    "operation": "",
                    "output": "",
                    "revert": false,
                    "revertMessage": "",
                    "selector": "",
                    "status": false,
                    "value": ""
                },
                "nodeType": 0
            },
            "0": {
                "invocation": {
                    "address": "0x1a2a1c938ce3ec39b6d47113c7955baa9dd454f2",
                    "callData": "0x0000000000000000000000000000000000000000000000000000000000025bf400000000000000000000000029e99546993af110c5bfb60ed01da4428989269c000000000000000000000000cc8fa225d80b9c7d42f96e9570156c65d6caaa2500000000000000000000000000000000000000000000000000000000000011ba00000000000000000000000000000000000000000000000000000000000000a000000000000000000000000000000000000000000000000000000000000000c601c725c0ab8e4bdf616b431286a68f0b15b007f151894a17b9a18f83f283f5edbd6af19ebc48d291ec3214f2fac08803f9ed0d77298e19cf33688b0d1f27bfc1691c01c2630e4ee64219a4c8d75bf628d6df7d19ac3cad4b1783f2e7daddcc9bfece1b46093004dbd2a6ad545ff3012dbcbd9f3453ddba3dd216bc19c6ad44c87a07961c01d72d6043cccf7fff792745a0cac8fc4e35b8bfba2117cdce53015e2699c27d5c51c087883db18a66bd5142c156508766a7623fe6e06348a7a3b7e7004b1f34f81b0000000000000000000000000000000000000000000000000000",
                    "decodedMethod": {
                        "callParams": [
                            {
                                "name": "_withdrawalId",
                                "type": "uint256",
                                "value": "154,612"
                            },
                            {
                                "name": "_user",
                                "type": "address",
                                "value": "0x29e99546993af110c5bfb60ed01da4428989269c"
                            },
                            {
                                "name": "_token",
                                "type": "address",
                                "value": "0xcc8fa225d80b9c7d42f96e9570156c65d6caaa25"
                            },
                            {
                                "name": "_amount",
                                "type": "uint256",
                                "value": "4,538"
                            },
                            {
                                "name": "_signatures",
                                "type": "bytes",
                                "value": "0x01c725c0ab8e4bdf616b431286a68f0b15b007f151894a17b9a18f83f283f5edbd6af19ebc48d291ec3214f2fac08803f9ed0d77298e19cf33688b0d1f27bfc1691c01c2630e4ee64219a4c8d75bf628d6df7d19ac3cad4b1783f2e7daddcc9bfece1b46093004dbd2a6ad545ff3012dbcbd9f3453ddba3dd216bc19c6ad44c87a07961c01d72d6043cccf7fff792745a0cac8fc4e35b8bfba2117cdce53015e2699c27d5c51c087883db18a66bd5142c156508766a7623fe6e06348a7a3b7e7004b1f34f81b"
                            }
                        ],
                        "constructorArguments": "",
                        "name": "withdrawERC20For",
                        "returnParams": [],
                        "signature": "withdrawERC20For(uint256,address,address,uint256,bytes)"
                    },
                    "errorInfo": "",
                    "fromAddress": "0x29e99546993af110c5bfb60ed01da4428989269c",
                    "gasUsed": 188338,
                    "id": 0,
                    "methodDecoded": true,
                    "operation": "CALL",
                    "output": "",
                    "revert": false,
                    "revertMessage": "",
                    "selector": "0x993e1c42",
                    "status": true,
                    "value": "0"
                },
                "nodeType": 0
            },
            "1": {
                "invocation": {
                    "address": "0x8407dc57739bcda7aa53ca6f12f82f9d51c2f21e",
                    "callData": "0x0000000000000000000000000000000000000000000000000000000000025bf400000000000000000000000029e99546993af110c5bfb60ed01da4428989269c000000000000000000000000cc8fa225d80b9c7d42f96e9570156c65d6caaa2500000000000000000000000000000000000000000000000000000000000011ba00000000000000000000000000000000000000000000000000000000000000a000000000000000000000000000000000000000000000000000000000000000c601c725c0ab8e4bdf616b431286a68f0b15b007f151894a17b9a18f83f283f5edbd6af19ebc48d291ec3214f2fac08803f9ed0d77298e19cf33688b0d1f27bfc1691c01c2630e4ee64219a4c8d75bf628d6df7d19ac3cad4b1783f2e7daddcc9bfece1b46093004dbd2a6ad545ff3012dbcbd9f3453ddba3dd216bc19c6ad44c87a07961c01d72d6043cccf7fff792745a0cac8fc4e35b8bfba2117cdce53015e2699c27d5c51c087883db18a66bd5142c156508766a7623fe6e06348a7a3b7e7004b1f34f81b0000000000000000000000000000000000000000000000000000",
                    "decodedMethod": {
                        "callParams": [
                            {
                                "name": "_withdrawalId",
                                "type": "uint256",
                                "value": "154,612"
                            },
                            {
                                "name": "_user",
                                "type": "address",
                                "value": "0x29e99546993af110c5bfb60ed01da4428989269c"
                            },
                            {
                                "name": "_token",
                                "type": "address",
                                "value": "0xcc8fa225d80b9c7d42f96e9570156c65d6caaa25"
                            },
                            {
                                "name": "_amount",
                                "type": "uint256",
                                "value": "4,538"
                            },
                            {
                                "name": "_signatures",
                                "type": "bytes",
                                "value": "0x01c725c0ab8e4bdf616b431286a68f0b15b007f151894a17b9a18f83f283f5edbd6af19ebc48d291ec3214f2fac08803f9ed0d77298e19cf33688b0d1f27bfc1691c01c2630e4ee64219a4c8d75bf628d6df7d19ac3cad4b1783f2e7daddcc9bfece1b46093004dbd2a6ad545ff3012dbcbd9f3453ddba3dd216bc19c6ad44c87a07961c01d72d6043cccf7fff792745a0cac8fc4e35b8bfba2117cdce53015e2699c27d5c51c087883db18a66bd5142c156508766a7623fe6e06348a7a3b7e7004b1f34f81b"
                            }
                        ],
                        "constructorArguments": "",
                        "name": "withdrawERC20For",
                        "returnParams": [],
                        "signature": "withdrawERC20For(uint256,address,address,uint256,bytes)"
                    },
                    "errorInfo": "",
                    "fromAddress": "0x1a2a1c938ce3ec39b6d47113c7955baa9dd454f2",
                    "gasUsed": 157555,
                    "id": 1,
                    "methodDecoded": true,
                    "operation": "DELEGATECALL",
                    "output": "",
                    "revert": false,
                    "revertMessage": "",
                    "selector": "0x993e1c42",
                    "status": true,
                    "value": "0"
                },
                "nodeType": 0
            },
            "10": {
                "invocation": {
                    "address": "0x42b19dca30fd612b1757682c074497847f2b57e0",
                    "callData": "0x000000000000000000000000f224beff587362a88d859e899d0d80c080e1e812",
                    "decodedMethod": {
                        "callParams": [
                            {
                                "name": "_addr",
                                "type": "address",
                                "value": "0xf224beff587362a88d859e899d0d80c080e1e812"
                            }
                        ],
                        "constructorArguments": "",
                        "name": "isValidator",
                        "returnParams": [
                            {
                                "name": "",
                                "type": "bool",
                                "value": true
                            }
                        ],
                        "signature": "isValidator(address)"
                    },
                    "errorInfo": "",
                    "fromAddress": "0x1a2a1c938ce3ec39b6d47113c7955baa9dd454f2",
                    "gasUsed": 2545,
                    "id": 10,
                    "methodDecoded": true,
                    "operation": "STATICCALL",
                    "output": "0x0000000000000000000000000000000000000000000000000000000000000001",
                    "revert": false,
                    "revertMessage": "",
                    "selector": "0xfacd743b",
                    "status": true,
                    "value": "0"
                },
                "nodeType": 0
            },
            "11": {
                "invocation": {
                    "address": "0x42b19dca30fd612b1757682c074497847f2b57e0",
                    "callData": "0x0000000000000000000000000000000000000000000000000000000000000003",
                    "decodedMethod": {
                        "callParams": [
                            {
                                "name": "_voteCount",
                                "type": "uint256",
                                "value": "3"
                            }
                        ],
                        "constructorArguments": "",
                        "name": "checkThreshold",
                        "returnParams": [
                            {
                                "name": "",
                                "type": "bool",
                                "value": true
                            }
                        ],
                        "signature": "checkThreshold(uint256)"
                    },
                    "errorInfo": "",
                    "fromAddress": "0x1a2a1c938ce3ec39b6d47113c7955baa9dd454f2",
                    "gasUsed": 6872,
                    "id": 11,
                    "methodDecoded": true,
                    "operation": "STATICCALL",
                    "output": "0x0000000000000000000000000000000000000000000000000000000000000001",
                    "revert": false,
                    "revertMessage": "",
                    "selector": "0xdafae408",
                    "status": true,
                    "value": "0"
                },
                "nodeType": 0
            },
            "12": {
                "invocation": {
                    "address": "0x33e71e649abdc09f650ad44139674828a2075ad2",
                    "callData": "0x",
                    "decodedMethod": {
                        "callParams": [],
                        "constructorArguments": "",
                        "name": "WETH_TOKEN",
                        "returnParams": [
                            {
                                "name": "",
                                "type": "string",
                                "value": "WETH_TOKEN"
                            }
                        ],
                        "signature": "WETH_TOKEN()"
                    },
                    "errorInfo": "",
                    "fromAddress": "0x1a2a1c938ce3ec39b6d47113c7955baa9dd454f2",
                    "gasUsed": 668,
                    "id": 12,
                    "methodDecoded": true,
                    "operation": "STATICCALL",
                    "output": "0x0000000000000000000000000000000000000000000000000000000000000020000000000000000000000000000000000000000000000000000000000000000a574554485f544f4b454e00000000000000000000000000000000000000000000",
                    "revert": false,
                    "revertMessage": "",
                    "selector": "0x37d277d4",
                    "status": true,
                    "value": "0"
                },
                "nodeType": 0
            },
            "13": {
                "invocation": {
                    "address": "0x33e71e649abdc09f650ad44139674828a2075ad2",
                    "callData": "0x0000000000000000000000000000000000000000000000000000000000000020000000000000000000000000000000000000000000000000000000000000000a574554485f544f4b454e00000000000000000000000000000000000000000000",
                    "decodedMethod": {
                        "callParams": [
                            {
                                "name": "_name",
                                "type": "string",
                                "value": "WETH_TOKEN"
                            }
                        ],
                        "constructorArguments": "",
                        "name": "getContract",
                        "returnParams": [
                            {
                                "name": "_address",
                                "type": "address",
                                "value": "0xc02aaa39b223fe8d0a0e5c4f27ead9083c756cc2"
                            }
                        ],
                        "signature": "getContract(string)"
                    },
                    "errorInfo": "",
                    "fromAddress": "0x1a2a1c938ce3ec39b6d47113c7955baa9dd454f2",
                    "gasUsed": 3205,
                    "id": 13,
                    "methodDecoded": true,
                    "operation": "STATICCALL",
                    "output": "0x000000000000000000000000c02aaa39b223fe8d0a0e5c4f27ead9083c756cc2",
                    "revert": false,
                    "revertMessage": "",
                    "selector": "0x35817773",
                    "status": true,
                    "value": "0"
                },
                "nodeType": 0
            },
            "14": {
                "invocation": {
                    "address": "0xcc8fa225d80b9c7d42f96e9570156c65d6caaa25",
                    "callData": "0x0000000000000000000000001a2a1c938ce3ec39b6d47113c7955baa9dd454f2",
                    "decodedMethod": {
                        "callParams": [
                            {
                                "name": "",
                                "type": "address",
                                "value": "0x1a2a1c938ce3ec39b6d47113c7955baa9dd454f2"
                            }
                        ],
                        "constructorArguments": "",
                        "name": "balanceOf",
                        "returnParams": [
                            {
                                "decimalAvailable": true,
                                "name": "",
                                "type": "uint256",
                                "value": "220,665,309"
                            }
                        ],
                        "signature": "balanceOf(address)"
                    },
                    "errorInfo": "",
                    "fromAddress": "0x1a2a1c938ce3ec39b6d47113c7955baa9dd454f2",
                    "gasUsed": 2447,
                    "id": 14,
                    "methodDecoded": true,
                    "operation": "STATICCALL",
                    "output": "0x000000000000000000000000000000000000000000000000000000000d2715dd",
                    "revert": false,
                    "revertMessage": "",
                    "selector": "0x70a08231",
                    "status": true,
                    "value": "0"
                },
                "nodeType": 0
            },
            "15": {
                "invocation": {
                    "address": "0xcc8fa225d80b9c7d42f96e9570156c65d6caaa25",
                    "callData": "0x00000000000000000000000029e99546993af110c5bfb60ed01da4428989269c00000000000000000000000000000000000000000000000000000000000011ba",
                    "decodedMethod": {
                        "callParams": [
                            {
                                "name": "_to",
                                "type": "address",
                                "value": "0x29e99546993af110c5bfb60ed01da4428989269c"
                            },
                            {
                                "decimalAvailable": true,
                                "name": "_value",
                                "type": "uint256",
                                "value": "4,538"
                            }
                        ],
                        "constructorArguments": "",
                        "name": "transfer",
                        "returnParams": [
                            {
                                "name": "_success",
                                "type": "bool",
                                "value": true
                            }
                        ],
                        "signature": "transfer(address,uint256)"
                    },
                    "errorInfo": "",
                    "fromAddress": "0x1a2a1c938ce3ec39b6d47113c7955baa9dd454f2",
                    "gasUsed": 27951,
                    "id": 15,
                    "methodDecoded": true,
                    "operation": "CALL",
                    "output": "0x0000000000000000000000000000000000000000000000000000000000000001",
                    "revert": false,
                    "revertMessage": "",
                    "selector": "0xa9059cbb",
                    "status": true,
                    "value": "0"
                },
                "nodeType": 0
            },
            "16": {
                "event": {
                    "contract": "0xcc8fa225d80b9c7d42f96e9570156c65d6caaa25",
                    "decodedLog": {
                        "name": "Transfer",
                        "params": [
                            {
                                "name": "_from",
                                "type": "address",
                                "value": "0x1a2a1c938ce3ec39b6d47113c7955baa9dd454f2"
                            },
                            {
                                "name": "_to",
                                "type": "address",
                                "value": "0x29e99546993af110c5bfb60ed01da4428989269c"
                            },
                            {
                                "decimalAvailable": true,
                                "name": "_value",
                                "type": "uint256",
                                "value": "4,538"
                            }
                        ],
                        "signature": "Transfer(address,address,uint256)"
                    },
                    "id": 16,
                    "logData": "0x00000000000000000000000000000000000000000000000000000000000011ba",
                    "logDecoded": true,
                    "operation": "EVENT",
                    "revert": false,
                    "status": true,
                    "topics": [
                        "0xddf252ad1be2c89b69c2b068fc378daa952ba7f163c4a11628f55a4df523b3ef",
                        "0x0000000000000000000000001a2a1c938ce3ec39b6d47113c7955baa9dd454f2",
                        "0x00000000000000000000000029e99546993af110c5bfb60ed01da4428989269c"
                    ]
                },
                "nodeType": 1
            },
            "17": {
                "event": {
                    "contract": "0x1a2a1c938ce3ec39b6d47113c7955baa9dd454f2",
                    "decodedLog": {
                        "name": "TokenWithdrew",
                        "params": [
                            {
                                "name": "_withdrawId",
                                "type": "uint256",
                                "value": "154,612"
                            },
                            {
                                "name": "_owner",
                                "type": "address",
                                "value": "0x29e99546993af110c5bfb60ed01da4428989269c"
                            },
                            {
                                "name": "_tokenAddress",
                                "type": "address",
                                "value": "0xcc8fa225d80b9c7d42f96e9570156c65d6caaa25"
                            },
                            {
                                "name": "_tokenNumber",
                                "type": "uint256",
                                "value": "4,538"
                            }
                        ],
                        "signature": "TokenWithdrew(uint256,address,address,uint256)"
                    },
                    "id": 17,
                    "logData": "0x00000000000000000000000000000000000000000000000000000000000011ba",
                    "logDecoded": true,
                    "operation": "EVENT",
                    "revert": false,
                    "status": true,
                    "topics": [
                        "0x86174ea401f083b9bb1bdebca3068f27fb023c7091365ed2a8a02b8d75cf0e52",
                        "0x0000000000000000000000000000000000000000000000000000000000025bf4",
                        "0x00000000000000000000000029e99546993af110c5bfb60ed01da4428989269c",
                        "0x000000000000000000000000cc8fa225d80b9c7d42f96e9570156c65d6caaa25"
                    ]
                },
                "nodeType": 1
            },
            "2": {
                "invocation": {
                    "address": "0x33e71e649abdc09f650ad44139674828a2075ad2",
                    "callData": "0x000000000000000000000000cc8fa225d80b9c7d42f96e9570156c65d6caaa2500000000000000000000000000000000000000000000000000000000000000140000000000000000000000000000000000000000000000000000000000000001",
                    "decodedMethod": {
                        "callParams": [
                            {
                                "name": "_token",
                                "type": "address",
                                "value": "0xcc8fa225d80b9c7d42f96e9570156c65d6caaa25"
                            },
                            {
                                "name": "_standard",
                                "type": "uint32",
                                "value": "20"
                            },
                            {
                                "name": "_isMainchain",
                                "type": "bool",
                                "value": true
                            }
                        ],
                        "constructorArguments": "",
                        "name": "isTokenMapped",
                        "returnParams": [
                            {
                                "name": "",
                                "type": "bool",
                                "value": true
                            }
                        ],
                        "signature": "isTokenMapped(address,uint32,bool)"
                    },
                    "errorInfo": "",
                    "fromAddress": "0x1a2a1c938ce3ec39b6d47113c7955baa9dd454f2",
                    "gasUsed": 5215,
                    "id": 2,
                    "methodDecoded": true,
                    "operation": "STATICCALL",
                    "output": "0x0000000000000000000000000000000000000000000000000000000000000001",
                    "revert": false,
                    "revertMessage": "",
                    "selector": "0x3579e67a",
                    "status": true,
                    "value": "0"
                },
                "nodeType": 0
            },
            "3": {
                "invocation": {
                    "address": "0x33e71e649abdc09f650ad44139674828a2075ad2",
                    "callData": "0x",
                    "decodedMethod": {
                        "callParams": [],
                        "constructorArguments": "",
                        "name": "VALIDATOR",
                        "returnParams": [
                            {
                                "name": "",
                                "type": "string",
                                "value": "VALIDATOR"
                            }
                        ],
                        "signature": "VALIDATOR()"
                    },
                    "errorInfo": "",
                    "fromAddress": "0x1a2a1c938ce3ec39b6d47113c7955baa9dd454f2",
                    "gasUsed": 690,
                    "id": 3,
                    "methodDecoded": true,
                    "operation": "STATICCALL",
                    "output": "0x0000000000000000000000000000000000000000000000000000000000000020000000000000000000000000000000000000000000000000000000000000000956414c494441544f520000000000000000000000000000000000000000000000",
                    "revert": false,
                    "revertMessage": "",
                    "selector": "0x393df8cb",
                    "status": true,
                    "value": "0"
                },
                "nodeType": 0
            },
            "4": {
                "invocation": {
                    "address": "0x33e71e649abdc09f650ad44139674828a2075ad2",
                    "callData": "0x0000000000000000000000000000000000000000000000000000000000000020000000000000000000000000000000000000000000000000000000000000000956414c494441544f520000000000000000000000000000000000000000000000",
                    "decodedMethod": {
                        "callParams": [
                            {
                                "name": "_name",
                                "type": "string",
                                "value": "VALIDATOR"
                            }
                        ],
                        "constructorArguments": "",
                        "name": "getContract",
                        "returnParams": [
                            {
                                "name": "_address",
                                "type": "address",
                                "value": "0x42b19dca30fd612b1757682c074497847f2b57e0"
                            }
                        ],
                        "signature": "getContract(string)"
                    },
                    "errorInfo": "",
                    "fromAddress": "0x1a2a1c938ce3ec39b6d47113c7955baa9dd454f2",
                    "gasUsed": 3205,
                    "id": 4,
                    "methodDecoded": true,
                    "operation": "STATICCALL",
                    "output": "0x00000000000000000000000042b19dca30fd612b1757682c074497847f2b57e0",
                    "revert": false,
                    "revertMessage": "",
                    "selector": "0x35817773",
                    "status": true,
                    "value": "0"
                },
                "nodeType": 0
            },
            "5": {
                "invocation": {
                    "address": "0x0000000000000000000000000000000000000001",
                    "callData": "0x5165bab82425f4ae9bd6a19cda5d13d5a9005cd536b0b82cf856ae8f000000000000000000000000000000000000000000000000000000000000001cc725c0ab8e4bdf616b431286a68f0b15b007f151894a17b9a18f83f283f5edbd6af19ebc48d291ec3214f2fac08803f9ed0d77298e19cf33688b0d1f27bfc169",
                    "decodedMethod": {
                        "callParams": [
                            {
                                "name": "hash",
                                "type": "bytes32",
                                "value": "0xae2bd6985165bab82425f4ae9bd6a19cda5d13d5a9005cd536b0b82cf856ae8f"
                            },
                            {
                                "name": "v",
                                "type": "uint256",
                                "value": "28"
                            },
                            {
                                "name": "r",
                                "type": "bytes32",
                                "value": "0xc725c0ab8e4bdf616b431286a68f0b15b007f151894a17b9a18f83f283f5edbd"
                            },
                            {
                                "name": "s",
                                "type": "bytes32",
                                "value": "0x6af19ebc48d291ec3214f2fac08803f9ed0d77298e19cf33688b0d1f27bfc169"
                            }
                        ],
                        "constructorArguments": "",
                        "name": "ecrecover",
                        "returnParams": [
                            {
                                "name": "",
                                "type": "address",
                                "value": "0x1a15a5e25811fe1349d636a5053a0e59d53961c9"
                            }
                        ],
                        "signature": "ecrecover(bytes32,uint256,bytes32,bytes32)"
                    },
                    "errorInfo": "",
                    "fromAddress": "0x1a2a1c938ce3ec39b6d47113c7955baa9dd454f2",
                    "gasUsed": 3000,
                    "id": 5,
                    "methodDecoded": true,
                    "operation": "STATICCALL",
                    "output": "0x0000000000000000000000001a15a5e25811fe1349d636a5053a0e59d53961c9",
                    "revert": false,
                    "revertMessage": "",
                    "selector": "0xae2bd698",
                    "status": true,
                    "value": "0"
                },
                "nodeType": 0
            },
            "6": {
                "invocation": {
                    "address": "0x42b19dca30fd612b1757682c074497847f2b57e0",
                    "callData": "0x0000000000000000000000001a15a5e25811fe1349d636a5053a0e59d53961c9",
                    "decodedMethod": {
                        "callParams": [
                            {
                                "name": "_addr",
                                "type": "address",
                                "value": "0x1a15a5e25811fe1349d636a5053a0e59d53961c9"
                            }
                        ],
                        "constructorArguments": "",
                        "name": "isValidator",
                        "returnParams": [
                            {
                                "name": "",
                                "type": "bool",
                                "value": true
                            }
                        ],
                        "signature": "isValidator(address)"
                    },
                    "errorInfo": "",
                    "fromAddress": "0x1a2a1c938ce3ec39b6d47113c7955baa9dd454f2",
                    "gasUsed": 2545,
                    "id": 6,
                    "methodDecoded": true,
                    "operation": "STATICCALL",
                    "output": "0x0000000000000000000000000000000000000000000000000000000000000001",
                    "revert": false,
                    "revertMessage": "",
                    "selector": "0xfacd743b",
                    "status": true,
                    "value": "0"
                },
                "nodeType": 0
            },
            "7": {
                "invocation": {
                    "address": "0x0000000000000000000000000000000000000001",
                    "callData": "0x5165bab82425f4ae9bd6a19cda5d13d5a9005cd536b0b82cf856ae8f000000000000000000000000000000000000000000000000000000000000001cc2630e4ee64219a4c8d75bf628d6df7d19ac3cad4b1783f2e7daddcc9bfece1b46093004dbd2a6ad545ff3012dbcbd9f3453ddba3dd216bc19c6ad44c87a0796",
                    "decodedMethod": {
                        "callParams": [
                            {
                                "name": "hash",
                                "type": "bytes32",
                                "value": "0xae2bd6985165bab82425f4ae9bd6a19cda5d13d5a9005cd536b0b82cf856ae8f"
                            },
                            {
                                "name": "v",
                                "type": "uint256",
                                "value": "28"
                            },
                            {
                                "name": "r",
                                "type": "bytes32",
                                "value": "0xc2630e4ee64219a4c8d75bf628d6df7d19ac3cad4b1783f2e7daddcc9bfece1b"
                            },
                            {
                                "name": "s",
                                "type": "bytes32",
                                "value": "0x46093004dbd2a6ad545ff3012dbcbd9f3453ddba3dd216bc19c6ad44c87a0796"
                            }
                        ],
                        "constructorArguments": "",
                        "name": "ecrecover",
                        "returnParams": [
                            {
                                "name": "",
                                "type": "address",
                                "value": "0x70bb1fb41c8c42f6ddd53a708e2b82209495e455"
                            }
                        ],
                        "signature": "ecrecover(bytes32,uint256,bytes32,bytes32)"
                    },
                    "errorInfo": "",
                    "fromAddress": "0x1a2a1c938ce3ec39b6d47113c7955baa9dd454f2",
                    "gasUsed": 3000,
                    "id": 7,
                    "methodDecoded": true,
                    "operation": "STATICCALL",
                    "output": "0x00000000000000000000000070bb1fb41c8c42f6ddd53a708e2b82209495e455",
                    "revert": false,
                    "revertMessage": "",
                    "selector": "0xae2bd698",
                    "status": true,
                    "value": "0"
                },
                "nodeType": 0
            },
            "8": {
                "invocation": {
                    "address": "0x42b19dca30fd612b1757682c074497847f2b57e0",
                    "callData": "0x00000000000000000000000070bb1fb41c8c42f6ddd53a708e2b82209495e455",
                    "decodedMethod": {
                        "callParams": [
                            {
                                "name": "_addr",
                                "type": "address",
                                "value": "0x70bb1fb41c8c42f6ddd53a708e2b82209495e455"
                            }
                        ],
                        "constructorArguments": "",
                        "name": "isValidator",
                        "returnParams": [
                            {
                                "name": "",
                                "type": "bool",
                                "value": true
                            }
                        ],
                        "signature": "isValidator(address)"
                    },
                    "errorInfo": "",
                    "fromAddress": "0x1a2a1c938ce3ec39b6d47113c7955baa9dd454f2",
                    "gasUsed": 2545,
                    "id": 8,
                    "methodDecoded": true,
                    "operation": "STATICCALL",
                    "output": "0x0000000000000000000000000000000000000000000000000000000000000001",
                    "revert": false,
                    "revertMessage": "",
                    "selector": "0xfacd743b",
                    "status": true,
                    "value": "0"
                },
                "nodeType": 0
            },
            "9": {
                "invocation": {
                    "address": "0x0000000000000000000000000000000000000001",
                    "callData": "0x5165bab82425f4ae9bd6a19cda5d13d5a9005cd536b0b82cf856ae8f000000000000000000000000000000000000000000000000000000000000001bd72d6043cccf7fff792745a0cac8fc4e35b8bfba2117cdce53015e2699c27d5c51c087883db18a66bd5142c156508766a7623fe6e06348a7a3b7e7004b1f34f8",
                    "decodedMethod": {
                        "callParams": [
                            {
                                "name": "hash",
                                "type": "bytes32",
                                "value": "0xae2bd6985165bab82425f4ae9bd6a19cda5d13d5a9005cd536b0b82cf856ae8f"
                            },
                            {
                                "name": "v",
                                "type": "uint256",
                                "value": "27"
                            },
                            {
                                "name": "r",
                                "type": "bytes32",
                                "value": "0xd72d6043cccf7fff792745a0cac8fc4e35b8bfba2117cdce53015e2699c27d5c"
                            },
                            {
                                "name": "s",
                                "type": "bytes32",
                                "value": "0x51c087883db18a66bd5142c156508766a7623fe6e06348a7a3b7e7004b1f34f8"
                            }
                        ],
                        "constructorArguments": "",
                        "name": "ecrecover",
                        "returnParams": [
                            {
                                "name": "",
                                "type": "address",
                                "value": "0xf224beff587362a88d859e899d0d80c080e1e812"
                            }
                        ],
                        "signature": "ecrecover(bytes32,uint256,bytes32,bytes32)"
                    },
                    "errorInfo": "",
                    "fromAddress": "0x1a2a1c938ce3ec39b6d47113c7955baa9dd454f2",
                    "gasUsed": 3000,
                    "id": 9,
                    "methodDecoded": true,
                    "operation": "STATICCALL",
                    "output": "0x000000000000000000000000f224beff587362a88d859e899d0d80c080e1e812",
                    "revert": false,
                    "revertMessage": "",
                    "selector": "0xae2bd698",
                    "status": true,
                    "value": "0"
                },
                "nodeType": 0
            }
        },
        "gasFlame": [
            {
                "children": [
                    {
                        "children": [
                            {
                                "children": [],
                                "depth": 0,
                                "name": "Initial Gas",
                                "value": 25656
                            },
                            {
                                "children": [
                                    {
                                        "children": [
                                            {
                                                "children": [],
                                                "depth": 2,
                                                "name": "isTokenMapped",
                                                "value": 5215
                                            },
                                            {
                                                "children": [],
                                                "depth": 2,
                                                "name": "VALIDATOR",
                                                "value": 690
                                            },
                                            {
                                                "children": [],
                                                "depth": 2,
                                                "name": "getContract",
                                                "value": 3205
                                            },
                                            {
                                                "children": [],
                                                "depth": 2,
                                                "name": "ecrecover",
                                                "value": 3000
                                            },
                                            {
                                                "children": [],
                                                "depth": 2,
                                                "name": "isValidator",
                                                "value": 2545
                                            },
                                            {
                                                "children": [],
                                                "depth": 2,
                                                "name": "ecrecover",
                                                "value": 3000
                                            },
                                            {
                                                "children": [],
                                                "depth": 2,
                                                "name": "isValidator",
                                                "value": 2545
                                            },
                                            {
                                                "children": [],
                                                "depth": 2,
                                                "name": "ecrecover",
                                                "value": 3000
                                            },
                                            {
                                                "children": [],
                                                "depth": 2,
                                                "name": "isValidator",
                                                "value": 2545
                                            },
                                            {
                                                "children": [],
                                                "depth": 2,
                                                "name": "checkThreshold",
                                                "value": 6872
                                            },
                                            {
                                                "children": [],
                                                "depth": 2,
                                                "name": "WETH_TOKEN",
                                                "value": 668
                                            },
                                            {
                                                "children": [],
                                                "depth": 2,
                                                "name": "getContract",
                                                "value": 3205
                                            },
                                            {
                                                "children": [],
                                                "depth": 2,
                                                "name": "balanceOf",
                                                "value": 2447
                                            },
                                            {
                                                "children": [],
                                                "depth": 2,
                                                "name": "transfer",
                                                "value": 27951
                                            }
                                        ],
                                        "depth": 1,
                                        "name": "withdrawERC20For",
                                        "value": 157555
                                    }
                                ],
                                "depth": 0,
                                "name": "Executed Gas",
                                "value": 162682
                            }
                        ],
                        "depth": -1,
                        "name": "Actual Gas Used",
                        "value": 188338
                    },
                    {
                        "children": [],
                        "depth": -1,
                        "name": "Refunded Gas",
                        "value": 0
                    }
                ],
                "depth": -2,
                "name": "Total Gas",
                "value": 188338
            }
        ],
        "isConfirmed": true,
        "mainTrace": [
            {
                "children": [
                    {
                        "children": [
                            {
                                "children": [
                                    {
                                        "children": [],
                                        "depth": 2,
                                        "id": 2,
                                        "order": 2
                                    },
                                    {
                                        "children": [],
                                        "depth": 2,
                                        "id": 3,
                                        "order": 3
                                    },
                                    {
                                        "children": [],
                                        "depth": 2,
                                        "id": 4,
                                        "order": 4
                                    },
                                    {
                                        "children": [],
                                        "depth": 2,
                                        "id": 5,
                                        "order": 5
                                    },
                                    {
                                        "children": [],
                                        "depth": 2,
                                        "id": 6,
                                        "order": 6
                                    },
                                    {
                                        "children": [],
                                        "depth": 2,
                                        "id": 7,
                                        "order": 7
                                    },
                                    {
                                        "children": [],
                                        "depth": 2,
                                        "id": 8,
                                        "order": 8
                                    },
                                    {
                                        "children": [],
                                        "depth": 2,
                                        "id": 9,
                                        "order": 9
                                    },
                                    {
                                        "children": [],
                                        "depth": 2,
                                        "id": 10,
                                        "order": 10
                                    },
                                    {
                                        "children": [],
                                        "depth": 2,
                                        "id": 11,
                                        "order": 11
                                    },
                                    {
                                        "children": [],
                                        "depth": 2,
                                        "id": 12,
                                        "order": 12
                                    },
                                    {
                                        "children": [],
                                        "depth": 2,
                                        "id": 13,
                                        "order": 13
                                    },
                                    {
                                        "children": [],
                                        "depth": 2,
                                        "id": 14,
                                        "order": 14
                                    },
                                    {
                                        "children": [
                                            {
                                                "children": [],
                                                "depth": 3,
                                                "id": 16,
                                                "order": 16
                                            }
                                        ],
                                        "depth": 2,
                                        "id": 15,
                                        "order": 15
                                    },
                                    {
                                        "children": [],
                                        "depth": 2,
                                        "id": 17,
                                        "order": 17
                                    }
                                ],
                                "depth": 1,
                                "id": 1,
                                "order": 1
                            }
                        ],
                        "depth": 0,
                        "id": 0,
                        "order": 0
                    }
                ],
                "depth": -1,
                "id": -1,
                "order": -1
            }
        ],
        "mainTraceNodeCount": 18,
        "parentIdMap": {
            "0": -1,
            "1": 0,
            "10": 1,
            "11": 1,
            "12": 1,
            "13": 1,
            "14": 1,
            "15": 1,
            "16": 15,
            "17": 1,
            "2": 1,
            "3": 1,
            "4": 1,
            "5": 1,
            "6": 1,
            "7": 1,
            "8": 1,
            "9": 1
        },
        "tidyTrace": [
            {
                "children": [
                    {
                        "children": [
                            {
                                "children": [
                                    {
                                        "children": [
                                            {
                                                "children": [],
                                                "depth": 3,
                                                "id": 16,
                                                "order": 16
                                            }
                                        ],
                                        "depth": 2,
                                        "id": 15,
                                        "order": 15
                                    },
                                    {
                                        "children": [],
                                        "depth": 2,
                                        "id": 17,
                                        "order": 17
                                    }
                                ],
                                "depth": 1,
                                "id": 1,
                                "order": 1
                            }
                        ],
                        "depth": 0,
                        "id": 0,
                        "order": 0
                    }
                ],
                "depth": -1,
                "id": -1,
                "order": -1
            }
        ],
        "tidyTraceNodeCount": 5
    },
    "state_change": {
        "stateChanges": [
            {
                "address": "0x1a2a1c938ce3ec39b6d47113c7955baa9dd454f2",
                "erc": "",
                "slots": [
                    {
                        "current": "0x000000000000000000000000cc8fa225d80b9c7d42f96e9570156c65d6caaa25",
                        "key": "0x741879f278dd678ad00837b89416052d9d52fb2e0bbf4c84589411fef504727a",
                        "prev": "0x0000000000000000000000000000000000000000000000000000000000000000"
                    },
                    {
                        "current": "0x00000000000000000000000000000000000000000000000000000000000011ba",
                        "key": "0x741879f278dd678ad00837b89416052d9d52fb2e0bbf4c84589411fef504727b",
                        "prev": "0x0000000000000000000000000000000000000000000000000000000000000000"
                    },
                    {
                        "current": "0x00000000000000000000000029e99546993af110c5bfb60ed01da4428989269c",
                        "key": "0x741879f278dd678ad00837b89416052d9d52fb2e0bbf4c84589411fef5047279",
                        "prev": "0x0000000000000000000000000000000000000000000000000000000000000000"
                    }
                ],
                "storageVariables": [
                    {
                        "name": "withdrawals",
                        "type": "mapping(uint256 => struct MainchainGatewayStorage.WithdrawalEntry)",
                        "value": {
                            "pairs": [
                                {
                                    "key": "154612",
                                    "value": {
                                        "fields": [
                                            {
                                                "name": "owner",
                                                "type": "address",
                                                "value": {
                                                    "current": "0x29e99546993af110c5bfb60ed01da4428989269c",
                                                    "prev": "0x0000000000000000000000000000000000000000",
                                                    "typeTag": 1
                                                }
                                            },
                                            {
                                                "name": "tokenAddress",
                                                "type": "address",
                                                "value": {
                                                    "current": "0xcc8fa225d80b9c7d42f96e9570156c65d6caaa25",
                                                    "prev": "0x0000000000000000000000000000000000000000",
                                                    "typeTag": 1
                                                }
                                            },
                                            {
                                                "name": "tokenNumber",
                                                "type": "uint256",
                                                "value": {
                                                    "current": "4538",
                                                    "prev": "0",
                                                    "typeTag": 1
                                                }
                                            }
                                        ],
                                        "typeTag": 3
                                    }
                                }
                            ],
                            "typeTag": 4
                        }
                    }
                ]
            },
            {
                "address": "0xcc8fa225d80b9c7d42f96e9570156c65d6caaa25",
                "erc": "ERC-20",
                "slots": [
                    {
                        "current": "0x000000000000000000000000000000000000000000000000000000000d270423",
                        "key": "0x289df3907b8344a85ec86ea46c78c2dba862b17abb050488973a6c090d318cb7",
                        "prev": "0x000000000000000000000000000000000000000000000000000000000d2715dd"
                    },
                    {
                        "current": "0x00000000000000000000000000000000000000000000000000000000000011ba",
                        "key": "0x733da1552ea35eef8d6bf7984e7bf146688bd5cdfc63bffb1087535b403db29b",
                        "prev": "0x0000000000000000000000000000000000000000000000000000000000000000"
                    }
                ],
                "storageVariables": [
                    {
                        "name": "balanceOf",
                        "type": "mapping(address => uint256)",
                        "value": {
                            "pairs": [
                                {
                                    "key": "0x1a2a1c938ce3ec39b6d47113c7955baa9dd454f2",
                                    "value": {
                                        "current": "220660771",
                                        "prev": "220665309",
                                        "typeTag": 1
                                    }
                                },
                                {
                                    "key": "0x29e99546993af110c5bfb60ed01da4428989269c",
                                    "value": {
                                        "current": "4538",
                                        "prev": "0",
                                        "typeTag": 1
                                    }
                                }
                            ],
                            "typeTag": 4
                        }
                    }
                ]
            }
        ]
    }
}