{
    "balance_change": {
        "balanceChanges": [
            {
                "account": "0xdaf663978aa4a314e1afbadc5678a2e6899b4a9d",
                "assets": [
                    {
                        "address": "0xc02aaa39b223fe8d0a0e5c4f27ead9083c756cc2",
                        "amount": "0.5",
                        "iconUrl": "https://assets.blocksec.com/icon/f1cb2d02c471d545bbc7722daf3277fd852d98e63d118771af7047bd8256c516.png",
                        "isERC1155": false,
                        "isERC721": false,
                        "sign": false,
                        "value": "1008.3849999999999909"
                    },
                    {
                        "address": "0x44709a920fccf795fbc57baa433cc3dd53c44dbe",
                        "amount": "87,726.379364279097525192",
                        "iconUrl": "https://assets.blocksec.com/icon/0c17b5667ab54d02e82c9d6d566c5b280f9be51d7b54e665174c2430f38d5ad6.png",
                        "isERC1155": false,
                        "isERC721": false,
                        "sign": true,
                        "value": "982.53544883199999"
                    }
                ]
            },
            {
                "account": "0x559ebe4e206e6b4d50e9bd3008cda7ce640c52cb",
                "assets": [
                    {
                        "address": "0x44709a920fccf795fbc57baa433cc3dd53c44dbe",
                        "amount": "87,726.379364279097525192",
                        "iconUrl": "https://assets.blocksec.com/icon/0c17b5667ab54d02e82c9d6d566c5b280f9be51d7b54e665174c2430f38d5ad6.png",
                        "isERC1155": false,
                        "isERC721": false,
                        "sign": false,
                        "value": "982.53544883199999"
                    },
                    {
                        "address": "0xc02aaa39b223fe8d0a0e5c4f27ead9083c756cc2",
                        "amount": "0.5",
                        "iconUrl": "https://assets.blocksec.com/icon/f1cb2d02c471d545bbc7722daf3277fd852d98e63d118771af7047bd8256c516.png",
                        "isERC1155": false,
                        "isERC721": false,
                        "sign": true,
                        "value": "1008.3849999999999909"
                    }
                ]
            }
        ]
    },
    "profile": {
        "basic_info": {
            "baseFee": "36.928550628",
            "blockNumber": 17040113,
            "callData": "0xcc1f917200000000000000000000000000000000000000000000000000000000000000a0000000000000000000000000000000000000000000000000000000000000010000000000000000000000000000000000000000000000000006f05b59d3b20000000000000000000000000000000000000000000000001287c47530709f55af0000000000000000000000000000000000000000000000000000000000000001400000000000000000000000000000000000000000000000000000000000000002000000000000000000000000c02aaa39b223fe8d0a0e5c4f27ead9083c756cc200000000000000000000000044709a920fccf795fbc57baa433cc3dd53c44dbe0000000000000000000000000000000000000000000000000000000000000001000000000000000000000000559ebe4e206e6b4d50e9bd3008cda7ce640c52cb000000000000000000000000000000000000000000000000000000000000000100000000000000000000000000000000000000000000000000000000000026f2",
            "debugEnable": true,
            "errorInfo": "",
            "eventCount": 4,
            "feeRecipient": "0xed589888c04ba4e23a15d72a262abb19d2447e9a",
            "formatValue": "0",
            "gasLimit": 156184,
            "gasPrice": "37.751210432",
            "gasUsed": 124026,
            "intTxnCount": 10,
            "internalRevert": false,
            "internalRevertMessage": "",
            "isContractCreation": false,
            "isFlashloan": false,
            "maxFee": "",
            "nonce": 128,
            "overwritedBlockNumber": -1,
            "priorityFee": "",
            "receiver": "0x10eff04c6d9ac5eb77109ad76010c36357748edb",
            "revertMessage": "",
            "sender": "0xdaf663978aa4a314e1afbadc5678a2e6899b4a9d",
            "simulationEnable": true,
            "sourceTxnHash": "0xd7b43fb4df3e7cf5f4d2f312a5d41910da0cf9dd6b179a979b6596ad805d1066",
            "status": true,
            "timestamp": "2023-04-13T18:12:23Z",
            "transactionFee": "0.004682131625039232",
            "txnHash": "0xd7b43fb4df3e7cf5f4d2f312a5d41910da0cf9dd6b179a979b6596ad805d1066",
            "txnIndex": 80,
            "type": 0,
            "value": "0"
        },
        "fund_flow": [
            {
                "amount": "0.5",
                "from": "0xdaf663978aa4a314e1afbadc5678a2e6899b4a9d",
                "id": 1,
                "isERC1155": false,
                "isERC721": false,
                "isReverted": false,
                "order": 1,
                "to": "0x559ebe4e206e6b4d50e9bd3008cda7ce640c52cb",
                "token": "0xc02aaa39b223fe8d0a0e5c4f27ead9083c756cc2"
            },
            {
                "amount": "87,726.379364279097525192",
                "from": "0x559ebe4e206e6b4d50e9bd3008cda7ce640c52cb",
                "id": 2,
                "isERC1155": false,
                "isERC721": false,
                "isReverted": false,
                "order": 2,
                "to": "0xdaf663978aa4a314e1afbadc5678a2e6899b4a9d",
                "token": "0x44709a920fccf795fbc57baa433cc3dd53c44dbe"
            }
        ],
        "token_infos": [
            {
                "address": "0x44709a920fccf795fbc57baa433cc3dd53c44dbe",
                "decimals": 18
            },
            {
                "address": "0xc02aaa39b223fe8d0a0e5c4f27ead9083c756cc2",
                "decimals": 18
            },
            {
                "address": "0xeeeeeeeeeeeeeeeeeeeeeeeeeeeeeeeeeeeeeeee",
                "decimals": 18
            }
        ]
    },
    "address_label": {
        "labels": [
            {
                "address": "0xeeeeeeeeeeeeeeeeeeeeeeeeeeeeeeeeeeeeeeee",
                "label": "Ether"
            },
            {
                "address": "0x44709a920fccf795fbc57baa433cc3dd53c44dbe",
                "label": "DappRadar (RADAR)"
            },
            {
                "address": "0xc02aaa39b223fe8d0a0e5c4f27ead9083c756cc2",
                "label": "Wrapped Ether (WETH)"
            },
            {
                "address": "0x559ebe4e206e6b4d50e9bd3008cda7ce640c52cb",
                "label": "SushiSwap: RADAR"
            },
            {
                "address": "0x0000000000000000000000000000000000000001",
                "label": "Precompiled"
            },
            {
                "address": "0x0000000000000000000000000000000000000002",
                "label": "Precompiled"
            },
            {
                "address": "0x0000000000000000000000000000000000000003",
                "label": "Precompiled"
            },
            {
                "address": "0x0000000000000000000000000000000000000004",
                "label": "Precompiled"
            }
        ]
    },
    "trace": {
        "accountLabels": null,
        "dataMap": {
            "-1": {
                "invocation": {
                    "address": "0xdaf663978aa4a314e1afbadc5678a2e6899b4a9d",
                    "callData": "",
                    "decodedMethod": null,
                    "errorInfo": "",
                    "fromAddress": "",
                    "gasUsed": 0,
                    "id": -1,
                    "methodDecoded": false,
                    "operation": "",
                    "output": "",
                    "revert": false,
                    "revertMessage": "",
                    "selector": "",
                    "status": false,
                    "value": ""
                },
                "nodeType": 0
            },
            "0": {
                "invocation": {
                    "address": "0x10eff04c6d9ac5eb77109ad76010c36357748edb",
                    "callData": "0x00000000000000000000000000000000000000000000000000000000000000a0000000000000000000000000000000000000000000000000000000000000010000000000000000000000000000000000000000000000000006f05b59d3b20000000000000000000000000000000000000000000000001287c47530709f55af0000000000000000000000000000000000000000000000000000000000000001400000000000000000000000000000000000000000000000000000000000000002000000000000000000000000c02aaa39b223fe8d0a0e5c4f27ead9083c756cc200000000000000000000000044709a920fccf795fbc57baa433cc3dd53c44dbe0000000000000000000000000000000000000000000000000000000000000001000000000000000000000000559ebe4e206e6b4d50e9bd3008cda7ce640c52cb000000000000000000000000000000000000000000000000000000000000000100000000000000000000000000000000000000000000000000000000000026f2",
                    "decodedMethod": null,
                    "errorInfo": "",
                    "fromAddress": "0xdaf663978aa4a314e1afbadc5678a2e6899b4a9d",
                    "gasUsed": 124026,
                    "id": 0,
                    "methodDecoded": false,
                    "operation": "CALL",
                    "output": "0x000000000000000000000000000000000000000000001293a813f588a60c83c8",
                    "revert": false,
                    "revertMessage": "",
                    "selector": "0xcc1f9172",
                    "status": true,
                    "value": "0"
                },
                "nodeType": 0
            },
            "1": {
                "invocation": {
                    "address": "0xc6c68ce4c7dde7e9f2e5e89b416e684401370b24",
                    "callData": "0x00000000000000000000000000000000000000000000000000000000000000a0000000000000000000000000000000000000000000000000000000000000010000000000000000000000000000000000000000000000000006f05b59d3b20000000000000000000000000000000000000000000000001287c47530709f55af0000000000000000000000000000000000000000000000000000000000000001400000000000000000000000000000000000000000000000000000000000000002000000000000000000000000c02aaa39b223fe8d0a0e5c4f27ead9083c756cc200000000000000000000000044709a920fccf795fbc57baa433cc3dd53c44dbe0000000000000000000000000000000000000000000000000000000000000001000000000000000000000000559ebe4e206e6b4d50e9bd3008cda7ce640c52cb000000000000000000000000000000000000000000000000000000000000000100000000000000000000000000000000000000000000000000000000000026f2",
                    "decodedMethod": null,
                    "errorInfo": "",
                    "fromAddress": "0x10eff04c6d9ac5eb77109ad76010c36357748edb",
                    "gasUsed": 95957,
                    "id": 1,
                    "methodDecoded": false,
                    "operation": "DELEGATECALL",
                    "output": "0x000000000000000000000000000000000000000000001293a813f588a60c83c8",
                    "revert": false,
                    "revertMessage": "",
                    "selector": "0xcc1f9172",
                    "status": true,
                    "value": "0"
                },
                "nodeType": 0
            },
            "10": {
                "invocation": {
                    "address": "0x44709a920fccf795fbc57baa433cc3dd53c44dbe",
                    "callData": "0x000000000000000000000000559ebe4e206e6b4d50e9bd3008cda7ce640c52cb",
                    "decodedMethod": {
                        "callParams": [
                            {
                                "name": "account",
                                "type": "address",
                                "value": "0x559ebe4e206e6b4d50e9bd3008cda7ce640c52cb"
                            }
                        ],
                        "constructorArguments": "",
                        "name": "balanceOf",
                        "returnParams": [
                            {
                                "decimalAvailable": true,
                                "name": "",
                                "type": "uint256",
                                "value": "69,297,650,290,088,330,103,914,958"
                            }
                        ],
                        "signature": "balanceOf(address)"
                    },
                    "errorInfo": "",
                    "fromAddress": "0x559ebe4e206e6b4d50e9bd3008cda7ce640c52cb",
                    "gasUsed": 562,
                    "id": 10,
                    "methodDecoded": true,
                    "operation": "STATICCALL",
                    "output": "0x000000000000000000000000000000000000000000395259264e548f4ddc81ce",
                    "revert": false,
                    "revertMessage": "",
                    "selector": "0x70a08231",
                    "status": true,
                    "value": "0"
                },
                "nodeType": 0
            },
            "11": {
                "invocation": {
                    "address": "0xc02aaa39b223fe8d0a0e5c4f27ead9083c756cc2",
                    "callData": "0x000000000000000000000000559ebe4e206e6b4d50e9bd3008cda7ce640c52cb",
                    "decodedMethod": {
                        "callParams": [
                            {
                                "name": "",
                                "type": "address",
                                "value": "0x559ebe4e206e6b4d50e9bd3008cda7ce640c52cb"
                            }
                        ],
                        "constructorArguments": "",
                        "name": "balanceOf",
                        "returnParams": [
                            {
                                "decimalAvailable": true,
                                "name": "",
                                "type": "uint256",
                                "value": "394,279,829,054,192,146,758"
                            }
                        ],
                        "signature": "balanceOf(address)"
                    },
                    "errorInfo": "",
                    "fromAddress": "0x559ebe4e206e6b4d50e9bd3008cda7ce640c52cb",
                    "gasUsed": 534,
                    "id": 11,
                    "methodDecoded": true,
                    "operation": "STATICCALL",
                    "output": "0x0000000000000000000000000000000000000000000000155fbb578a6cdcd946",
                    "revert": false,
                    "revertMessage": "",
                    "selector": "0x70a08231",
                    "status": true,
                    "value": "0"
                },
                "nodeType": 0
            },
            "12": {
                "event": {
                    "contract": "0x559ebe4e206e6b4d50e9bd3008cda7ce640c52cb",
                    "decodedLog": {
                        "name": "Sync",
                        "params": [
                            {
                                "name": "reserve0",
                                "type": "uint112",
                                "value": "69,297,650,290,088,330,103,914,958"
                            },
                            {
                                "name": "reserve1",
                                "type": "uint112",
                                "value": "394,279,829,054,192,146,758"
                            }
                        ],
                        "signature": "Sync(uint112,uint112)"
                    },
                    "id": 12,
                    "logData": "0x000000000000000000000000000000000000000000395259264e548f4ddc81ce0000000000000000000000000000000000000000000000155fbb578a6cdcd946",
                    "logDecoded": true,
                    "operation": "EVENT",
                    "revert": false,
                    "status": true,
                    "topics": [
                        "0x1c411e9a96e071241c2f21f7726b17ae89e3cab4c78be50e062b03a9fffbbad1"
                    ]
                },
                "nodeType": 1
            },
            "13": {
                "event": {
                    "contract": "0x559ebe4e206e6b4d50e9bd3008cda7ce640c52cb",
                    "decodedLog": {
                        "name": "Swap",
                        "params": [
                            {
                                "name": "sender",
                                "type": "address",
                                "value": "0x10eff04c6d9ac5eb77109ad76010c36357748edb"
                            },
                            {
                                "name": "to",
                                "type": "address",
                                "value": "0xdaf663978aa4a314e1afbadc5678a2e6899b4a9d"
                            },
                            {
                                "name": "amount0In",
                                "type": "uint256",
                                "value": "0"
                            },
                            {
                                "name": "amount1In",
                                "type": "uint256",
                                "value": "500,000,000,000,000,000"
                            },
                            {
                                "name": "amount0Out",
                                "type": "uint256",
                                "value": "87,726,379,364,279,097,525,192"
                            },
                            {
                                "name": "amount1Out",
                                "type": "uint256",
                                "value": "0"
                            }
                        ],
                        "signature": "Swap(address,uint256,uint256,uint256,uint256,address)"
                    },
                    "id": 13,
                    "logData": "0x000000000000000000000000000000000000000000000000000000000000000000000000000000000000000000000000000000000000000006f05b59d3b20000000000000000000000000000000000000000000000001293a813f588a60c83c80000000000000000000000000000000000000000000000000000000000000000",
                    "logDecoded": true,
                    "operation": "EVENT",
                    "revert": false,
                    "status": true,
                    "topics": [
                        "0xd78ad95fa46c994b6551d0da85fc275fe613ce37657fb8d5e3d130840159d822",
                        "0x00000000000000000000000010eff04c6d9ac5eb77109ad76010c36357748edb",
                        "0x000000000000000000000000daf663978aa4a314e1afbadc5678a2e6899b4a9d"
                    ]
                },
                "nodeType": 1
            },
            "14": {
                "invocation": {
                    "address": "0x44709a920fccf795fbc57baa433cc3dd53c44dbe",
                    "callData": "0x000000000000000000000000daf663978aa4a314e1afbadc5678a2e6899b4a9d",
                    "decodedMethod": {
                        "callParams": [
                            {
                                "name": "account",
                                "type": "address",
                                "value": "0xdaf663978aa4a314e1afbadc5678a2e6899b4a9d"
                            }
                        ],
                        "constructorArguments": "",
                        "name": "balanceOf",
                        "returnParams": [
                            {
                                "decimalAvailable": true,
                                "name": "",
                                "type": "uint256",
                                "value": "87,726,379,364,279,097,525,192"
                            }
                        ],
                        "signature": "balanceOf(address)"
                    },
                    "errorInfo": "",
                    "fromAddress": "0x10eff04c6d9ac5eb77109ad76010c36357748edb",
                    "gasUsed": 562,
                    "id": 14,
                    "methodDecoded": true,
                    "operation": "STATICCALL",
                    "output": "0x000000000000000000000000000000000000000000001293a813f588a60c83c8",
                    "revert": false,
                    "revertMessage": "",
                    "selector": "0x70a08231",
                    "status": true,
                    "value": "0"
                },
                "nodeType": 0
            },
            "2": {
                "invocation": {
                    "address": "0x44709a920fccf795fbc57baa433cc3dd53c44dbe",
                    "callData": "0x000000000000000000000000daf663978aa4a314e1afbadc5678a2e6899b4a9d",
                    "decodedMethod": {
                        "callParams": [
                            {
                                "name": "account",
                                "type": "address",
                                "value": "0xdaf663978aa4a314e1afbadc5678a2e6899b4a9d"
                            }
                        ],
                        "constructorArguments": "",
                        "name": "balanceOf",
                        "returnParams": [
                            {
                                "decimalAvailable": true,
                                "name": "",
                                "type": "uint256",
                                "value": "0"
                            }
                        ],
                        "signature": "balanceOf(address)"
                    },
                    "errorInfo": "",
                    "fromAddress": "0x10eff04c6d9ac5eb77109ad76010c36357748edb",
                    "gasUsed": 2562,
                    "id": 2,
                    "methodDecoded": true,
                    "operation": "STATICCALL",
                    "output": "0x0000000000000000000000000000000000000000000000000000000000000000",
                    "revert": false,
                    "revertMessage": "",
                    "selector": "0x70a08231",
                    "status": true,
                    "value": "0"
                },
                "nodeType": 0
            },
            "3": {
                "invocation": {
                    "address": "0xc02aaa39b223fe8d0a0e5c4f27ead9083c756cc2",
                    "callData": "0x000000000000000000000000daf663978aa4a314e1afbadc5678a2e6899b4a9d000000000000000000000000559ebe4e206e6b4d50e9bd3008cda7ce640c52cb00000000000000000000000000000000000000000000000006f05b59d3b20000",
                    "decodedMethod": {
                        "callParams": [
                            {
                                "name": "src",
                                "type": "address",
                                "value": "0xdaf663978aa4a314e1afbadc5678a2e6899b4a9d"
                            },
                            {
                                "name": "dst",
                                "type": "address",
                                "value": "0x559ebe4e206e6b4d50e9bd3008cda7ce640c52cb"
                            },
                            {
                                "decimalAvailable": true,
                                "name": "wad",
                                "type": "uint256",
                                "value": "500,000,000,000,000,000"
                            }
                        ],
                        "constructorArguments": "",
                        "name": "transferFrom",
                        "returnParams": [
                            {
                                "name": "",
                                "type": "bool",
                                "value": true
                            }
                        ],
                        "signature": "transferFrom(address,address,uint256)"
                    },
                    "errorInfo": "",
                    "fromAddress": "0x10eff04c6d9ac5eb77109ad76010c36357748edb",
                    "gasUsed": 15025,
                    "id": 3,
                    "methodDecoded": true,
                    "operation": "CALL",
                    "output": "0x0000000000000000000000000000000000000000000000000000000000000001",
                    "revert": false,
                    "revertMessage": "",
                    "selector": "0x23b872dd",
                    "status": true,
                    "value": "0"
                },
                "nodeType": 0
            },
            "4": {
                "event": {
                    "contract": "0xc02aaa39b223fe8d0a0e5c4f27ead9083c756cc2",
                    "decodedLog": {
                        "name": "Transfer",
                        "params": [
                            {
                                "name": "src",
                                "type": "address",
                                "value": "0xdaf663978aa4a314e1afbadc5678a2e6899b4a9d"
                            },
                            {
                                "name": "dst",
                                "type": "address",
                                "value": "0x559ebe4e206e6b4d50e9bd3008cda7ce640c52cb"
                            },
                            {
                                "decimalAvailable": true,
                                "name": "wad",
                                "type": "uint256",
                                "value": "500,000,000,000,000,000"
                            }
                        ],
                        "signature": "Transfer(address,address,uint256)"
                    },
                    "id": 4,
                    "logData": "0x00000000000000000000000000000000000000000000000006f05b59d3b20000",
                    "logDecoded": true,
                    "operation": "EVENT",
                    "revert": false,
                    "status": true,
                    "topics": [
                        "0xddf252ad1be2c89b69c2b068fc378daa952ba7f163c4a11628f55a4df523b3ef",
                        "0x000000000000000000000000daf663978aa4a314e1afbadc5678a2e6899b4a9d",
                        "0x000000000000000000000000559ebe4e206e6b4d50e9bd3008cda7ce640c52cb"
                    ]
                },
                "nodeType": 1
            },
            "5": {
                "invocation": {
                    "address": "0x559ebe4e206e6b4d50e9bd3008cda7ce640c52cb",
                    "callData": "0x",
                    "decodedMethod": {
                        "callParams": [],
                        "constructorArguments": "",
                        "name": "getReserves",
                        "returnParams": [
                            {
                                "name": "_reserve0",
                                "type": "uint112",
                                "value": "69,385,376,669,452,609,201,440,150"
                            },
                            {
                                "name": "_reserve1",
                                "type": "uint112",
                                "value": "393,779,829,054,192,146,758"
                            },
                            {
                                "name": "_blockTimestampLast",
                                "type": "uint32",
                                "value": "1,681,408,931"
                            }
                        ],
                        "signature": "getReserves()"
                    },
                    "errorInfo": "",
                    "fromAddress": "0x10eff04c6d9ac5eb77109ad76010c36357748edb",
                    "gasUsed": 2517,
                    "id": 5,
                    "methodDecoded": true,
                    "operation": "STATICCALL",
                    "output": "0x0000000000000000000000000000000000000000003964ecce624a17f3e9059600000000000000000000000000000000000000000000001558cafc30992ad94600000000000000000000000000000000000000000000000000000000643843a3",
                    "revert": false,
                    "revertMessage": "",
                    "selector": "0x0902f1ac",
                    "status": true,
                    "value": "0"
                },
                "nodeType": 0
            },
            "6": {
                "invocation": {
                    "address": "0xc02aaa39b223fe8d0a0e5c4f27ead9083c756cc2",
                    "callData": "0x000000000000000000000000559ebe4e206e6b4d50e9bd3008cda7ce640c52cb",
                    "decodedMethod": {
                        "callParams": [
                            {
                                "name": "",
                                "type": "address",
                                "value": "0x559ebe4e206e6b4d50e9bd3008cda7ce640c52cb"
                            }
                        ],
                        "constructorArguments": "",
                        "name": "balanceOf",
                        "returnParams": [
                            {
                                "decimalAvailable": true,
                                "name": "",
                                "type": "uint256",
                                "value": "394,279,829,054,192,146,758"
                            }
                        ],
                        "signature": "balanceOf(address)"
                    },
                    "errorInfo": "",
                    "fromAddress": "0x10eff04c6d9ac5eb77109ad76010c36357748edb",
                    "gasUsed": 534,
                    "id": 6,
                    "methodDecoded": true,
                    "operation": "STATICCALL",
                    "output": "0x0000000000000000000000000000000000000000000000155fbb578a6cdcd946",
                    "revert": false,
                    "revertMessage": "",
                    "selector": "0x70a08231",
                    "status": true,
                    "value": "0"
                },
                "nodeType": 0
            },
            "7": {
                "invocation": {
                    "address": "0x559ebe4e206e6b4d50e9bd3008cda7ce640c52cb",
                    "callData": "0x000000000000000000000000000000000000000000001293a813f588a60c83c80000000000000000000000000000000000000000000000000000000000000000000000000000000000000000daf663978aa4a314e1afbadc5678a2e6899b4a9d00000000000000000000000000000000000000000000000000000000000000800000000000000000000000000000000000000000000000000000000000000000",
                    "decodedMethod": {
                        "callParams": [
                            {
                                "name": "amount0Out",
                                "type": "uint256",
                                "value": "87,726,379,364,279,097,525,192"
                            },
                            {
                                "name": "amount1Out",
                                "type": "uint256",
                                "value": "0"
                            },
                            {
                                "name": "to",
                                "type": "address",
                                "value": "0xdaf663978aa4a314e1afbadc5678a2e6899b4a9d"
                            },
                            {
                                "name": "data",
                                "type": "bytes",
                                "value": "0x"
                            }
                        ],
                        "constructorArguments": "",
                        "name": "swap",
                        "returnParams": [],
                        "signature": "swap(uint256,uint256,address,bytes)"
                    },
                    "errorInfo": "",
                    "fromAddress": "0x10eff04c6d9ac5eb77109ad76010c36357748edb",
                    "gasUsed": 60745,
                    "id": 7,
                    "methodDecoded": true,
                    "operation": "CALL",
                    "output": "",
                    "revert": false,
                    "revertMessage": "",
                    "selector": "0x022c0d9f",
                    "status": true,
                    "value": "0"
                },
                "nodeType": 0
            },
            "8": {
                "invocation": {
                    "address": "0x44709a920fccf795fbc57baa433cc3dd53c44dbe",
                    "callData": "0x000000000000000000000000daf663978aa4a314e1afbadc5678a2e6899b4a9d000000000000000000000000000000000000000000001293a813f588a60c83c8",
                    "decodedMethod": {
                        "callParams": [
                            {
                                "name": "recipient",
                                "type": "address",
                                "value": "0xdaf663978aa4a314e1afbadc5678a2e6899b4a9d"
                            },
                            {
                                "decimalAvailable": true,
                                "name": "amount",
                                "type": "uint256",
                                "value": "87,726,379,364,279,097,525,192"
                            }
                        ],
                        "constructorArguments": "",
                        "name": "transfer",
                        "returnParams": [
                            {
                                "name": "",
                                "type": "bool",
                                "value": true
                            }
                        ],
                        "signature": "transfer(address,uint256)"
                    },
                    "errorInfo": "",
                    "fromAddress": "0x559ebe4e206e6b4d50e9bd3008cda7ce640c52cb",
                    "gasUsed": 27953,
                    "id": 8,
                    "methodDecoded": true,
                    "operation": "CALL",
                    "output": "0x0000000000000000000000000000000000000000000000000000000000000001",
                    "revert": false,
                    "revertMessage": "",
                    "selector": "0xa9059cbb",
                    "status": true,
                    "value": "0"
                },
                "nodeType": 0
            },
            "9": {
                "event": {
                    "contract": "0x44709a920fccf795fbc57baa433cc3dd53c44dbe",
                    "decodedLog": {
                        "name": "Transfer",
                        "params": [
                            {
                                "name": "from",
                                "type": "address",
                                "value": "0x559ebe4e206e6b4d50e9bd3008cda7ce640c52cb"
                            },
                            {
                                "name": "to",
                                "type": "address",
                                "value": "0xdaf663978aa4a314e1afbadc5678a2e6899b4a9d"
                            },
                            {
                                "decimalAvailable": true,
                                "name": "value",
                                "type": "uint256",
                                "value": "87,726,379,364,279,097,525,192"
                            }
                        ],
                        "signature": "Transfer(address,address,uint256)"
                    },
                    "id": 9,
                    "logData": "0x000000000000000000000000000000000000000000001293a813f588a60c83c8",
                    "logDecoded": true,
                    "operation": "EVENT",
                    "revert": false,
                    "status": true,
                    "topics": [
                        "0xddf252ad1be2c89b69c2b068fc378daa952ba7f163c4a11628f55a4df523b3ef",
                        "0x000000000000000000000000559ebe4e206e6b4d50e9bd3008cda7ce640c52cb",
                        "0x000000000000000000000000daf663978aa4a314e1afbadc5678a2e6899b4a9d"
                    ]
                },
                "nodeType": 1
            }
        },
        "gasFlame": [
            {
                "children": [
                    {
                        "children": [
                            {
                                "children": [],
                                "depth": 0,
                                "name": "Initial Gas",
                                "value": 23608
                            },
                            {
                                "children": [
                                    {
                                        "children": [
                                            {
                                                "children": [],
                                                "depth": 2,
                                                "name": "balanceOf",
                                                "value": 2562
                                            },
                                            {
                                                "children": [],
                                                "depth": 2,
                                                "name": "transferFrom",
                                                "value": 15025
                                            },
                                            {
                                                "children": [],
                                                "depth": 2,
                                                "name": "getReserves",
                                                "value": 2517
                                            },
                                            {
                                                "children": [],
                                                "depth": 2,
                                                "name": "balanceOf",
                                                "value": 534
                                            },
                                            {
                                                "children": [
                                                    {
                                                        "children": [],
                                                        "depth": 3,
                                                        "name": "transfer",
                                                        "value": 27953
                                                    },
                                                    {
                                                        "children": [],
                                                        "depth": 3,
                                                        "name": "balanceOf",
                                                        "value": 562
                                                    },
                                                    {
                                                        "children": [],
                                                        "depth": 3,
                                                        "name": "balanceOf",
                                                        "value": 534
                                                    }
                                                ],
                                                "depth": 2,
                                                "name": "swap",
                                                "value": 60745
                                            },
                                            {
                                                "children": [],
                                                "depth": 2,
                                                "name": "balanceOf",
                                                "value": 562
                                            }
                                        ],
                                        "depth": 1,
                                        "name": "0xcc1f9172",
                                        "value": 95957
                                    }
                                ],
                                "depth": 0,
                                "name": "Executed Gas",
                                "value": 103218
                            }
                        ],
                        "depth": -1,
                        "name": "Actual Gas Used",
                        "value": 124026
                    },
                    {
                        "children": [],
                        "depth": -1,
                        "name": "Refunded Gas",
                        "value": 2800
                    }
                ],
                "depth": -2,
                "name": "Total Gas",
                "value": 126826
            }
        ],
        "isConfirmed": true,
        "mainTrace": [
            {
                "children": [
                    {
                        "children": [
                            {
                                "children": [
                                    {
                                        "children": [],
                                        "depth": 2,
                                        "id": 2,
                                        "order": 2
                                    },
                                    {
                                        "children": [
                                            {
                                                "children": [],
                                                "depth": 3,
                                                "id": 4,
                                                "order": 4
                                            }
                                        ],
                                        "depth": 2,
                                        "id": 3,
                                        "order": 3
                                    },
                                    {
                                        "children": [],
                                        "depth": 2,
                                        "id": 5,
                                        "order": 5
                                    },
                                    {
                                        "children": [],
                                        "depth": 2,
                                        "id": 6,
                                        "order": 6
                                    },
                                    {
                                        "children": [
                                            {
                                                "children": [
                                                    {
                                                        "children": [],
                                                        "depth": 4,
                                                        "id": 9,
                                                        "order": 9
                                                    }
                                                ],
                                                "depth": 3,
                                                "id": 8,
                                                "order": 8
                                            },
                                            {
                                                "children": [],
                                                "depth": 3,
                                                "id": 10,
                                                "order": 10
                                            },
                                            {
                                                "children": [],
                                                "depth": 3,
                                                "id": 11,
                                                "order": 11
                                            },
                                            {
                                                "children": [],
                                                "depth": 3,
                                                "id": 12,
                                                "order": 12
                                            },
                                            {
                                                "children": [],
                                                "depth": 3,
                                                "id": 13,
                                                "order": 13
                                            }
                                        ],
                                        "depth": 2,
                                        "id": 7,
                                        "order": 7
                                    },
                                    {
                                        "children": [],
                                        "depth": 2,
                                        "id": 14,
                                        "order": 14
                                    }
                                ],
                                "depth": 1,
                                "id": 1,
                                "order": 1
                            }
                        ],
                        "depth": 0,
                        "id": 0,
                        "order": 0
                    }
                ],
                "depth": -1,
                "id": -1,
                "order": -1
            }
        ],
        "mainTraceNodeCount": 15,
        "parentIdMap": {
            "0": -1,
            "1": 0,
            "10": 7,
            "11": 7,
            "12": 7,
            "13": 7,
            "14": 1,
            "2": 1,
            "3": 1,
            "4": 3,
            "5": 1,
            "6": 1,
            "7": 1,
            "8": 7,
            "9": 8
        },
        "tidyTrace": [
            {
                "children": [
                    {
                        "children": [
                            {
                                "children": [
                                    {
                                        "children": [
                                            {
                                                "children": [],
                                                "depth": 3,
                                                "id": 4,
                                                "order": 4
                                            }
                                        ],
                                        "depth": 2,
                                        "id": 3,
                                        "order": 3
                                    },
                                    {
                                        "children": [
                                            {
                                                "children": [
                                                    {
                                                        "children": [],
                                                        "depth": 4,
                                                        "id": 9,
                                                        "order": 9
                                                    }
                                                ],
                                                "depth": 3,
                                                "id": 8,
                                                "order": 8
                                            },
                                            {
                                                "children": [],
                                                "depth": 3,
                                                "id": 12,
                                                "order": 12
                                            },
                                            {
                                                "children": [],
                                                "depth": 3,
                                                "id": 13,
                                                "order": 13
                                            }
                                        ],
                                        "depth": 2,
                                        "id": 7,
                                        "order": 7
                                    }
                                ],
                                "depth": 1,
                                "id": 1,
                                "order": 1
                            }
                        ],
                        "depth": 0,
                        "id": 0,
                        "order": 0
                    }
                ],
                "depth": -1,
                "id": -1,
                "order": -1
            }
        ],
        "tidyTraceNodeCount": 9
    },
    "state_change": {
        "stateChanges": [
            {
                "address": "0x44709a920fccf795fbc57baa433cc3dd53c44dbe",
                "erc": "ERC-20",
                "slots": [
                    {
                        "current": "0x000000000000000000000000000000000000000000395259264e548f4ddc81ce",
                        "key": "0x6043ab9fcafb5dbe14955a5f21055db1f5d10297d861983bb6632c7ad829a820",
                        "prev": "0x0000000000000000000000000000000000000000003964ecce624a17f3e90596"
                    },
                    {
                        "current": "0x000000000000000000000000000000000000000000001293a813f588a60c83c8",
                        "key": "0xa9d80471f7c5fdaef7f507d3e14779fe65ac5bbf03c34b7c8933caab8f4bb75d",
                        "prev": "0x0000000000000000000000000000000000000000000000000000000000000000"
                    }
                ],
                "storageVariables": [
                    {
                        "name": "_balances",
                        "type": "mapping(address => uint256)",
                        "value": {
                            "pairs": [
                                {
                                    "key": "0x559ebe4e206e6b4d50e9bd3008cda7ce640c52cb",
                                    "value": {
                                        "current": "69297650290088330103914958",
                                        "prev": "69385376669452609201440150",
                                        "typeTag": 1
                                    }
                                },
                                {
                                    "key": "0xdaf663978aa4a314e1afbadc5678a2e6899b4a9d",
                                    "value": {
                                        "current": "87726379364279097525192",
                                        "prev": "0",
                                        "typeTag": 1
                                    }
                                }
                            ],
                            "typeTag": 4
                        }
                    }
                ]
            },
            {
                "address": "0x559ebe4e206e6b4d50e9bd3008cda7ce640c52cb",
                "erc": "ERC-20",
                "slots": [
                    {
                        "current": "0x643846070000000000155fbb578a6cdcd946000000395259264e548f4ddc81ce",
                        "key": "0x0000000000000000000000000000000000000000000000000000000000000008",
                        "prev": "0x643843a300000000001558cafc30992ad9460000003964ecce624a17f3e90596"
                    },
                    {
                        "current": "0x00000000000000000000000000000000011d4f6253aaeaf457f2eae0eadb2f55",
                        "key": "0x0000000000000000000000000000000000000000000000000000000000000009",
                        "prev": "0x00000000000000000000000000000000011d4e7eb41510197a47779a68b571cd"
                    },
                    {
                        "current": "0x0000000000000000000000000653c7580eef55f6050bcf47c101c405b647985f",
                        "key": "0x000000000000000000000000000000000000000000000000000000000000000a",
                        "prev": "0x0000000000000000000000000653c0ea9a7ce5cfe5dfddd872501db0da42ac2b"
                    }
                ],
                "storageVariables": [
                    {
                        "name": "price0CumulativeLast",
                        "type": "uint256",
                        "value": {
                            "current": "1481414705294923499605826477351448405",
                            "prev": "1481396671112752739628286167196463565",
                            "typeTag": 1
                        }
                    },
                    {
                        "name": "price1CumulativeLast",
                        "type": "uint256",
                        "value": {
                            "current": "36122271786021682584498427827880208435920738399",
                            "prev": "36121711866743453637609875182737990715875437611",
                            "typeTag": 1
                        }
                    },
                    {
                        "name": "reserve0",
                        "type": "uint112",
                        "value": {
                            "current": "69297650290088330103914958",
                            "prev": "69385376669452609201440150",
                            "typeTag": 1
                        }
                    },
                    {
                        "name": "reserve1",
                        "type": "uint112",
                        "value": {
                            "current": "394279829054192146758",
                            "prev": "393779829054192146758",
                            "typeTag": 1
                        }
                    },
                    {
                        "name": "blockTimestampLast",
                        "type": "uint32",
                        "value": {
                            "current": "1681409543",
                            "prev": "1681408931",
                            "typeTag": 1
                        }
                    }
                ]
            },
            {
                "address": "0xc02aaa39b223fe8d0a0e5c4f27ead9083c756cc2",
                "erc": "ERC-20",
                "slots": [
                    {
                        "current": "0x00000000000000000000000000000000000000000000000005a465652e32db7e",
                        "key": "0xb2fc06b1d6bbf2811b37bd5368a308b6503138ae82d085226ed4dbc10c7da173",
                        "prev": "0x0000000000000000000000000000000000000000000000000c94c0bf01e4db7e"
                    },
                    {
                        "current": "0x0000000000000000000000000000000000000000000000155fbb578a6cdcd946",
                        "key": "0x3e6bb865742585a8ce720f38b8a1d88f72c5420831fd144964f456255d7c1af1",
                        "prev": "0x00000000000000000000000000000000000000000000001558cafc30992ad946"
                    }
                ],
                "storageVariables": [
                    {
                        "name": "balanceOf",
                        "type": "mapping(address => uint256)",
                        "value": {
                            "pairs": [
                                {
                                    "key": "0x559ebe4e206e6b4d50e9bd3008cda7ce640c52cb",
                                    "value": {
                                        "current": "394279829054192146758",
                                        "prev": "393779829054192146758",
                                        "typeTag": 1
                                    }
                                },
                                {
                                    "key": "0xdaf663978aa4a314e1afbadc5678a2e6899b4a9d",
                                    "value": {
                                        "current": "406561351611374462",
                                        "prev": "906561351611374462",
                                        "typeTag": 1
                                    }
                                }
                            ],
                            "typeTag": 4
                        }
                    }
                ]
            }
        ]
    }
}