{
    "balance_change": {
        "balanceChanges": [
            {
                "account": "0x69ea6b31ef305d6b99bb2d4c9d99456fa108b02a",
                "assets": [
                    {
                        "address": "0xcb97e65f07da24d46bcdd078ebebd7c6e6e3d750",
                        "amount": "15,067.5872",
                        "iconUrl": "https://assets.blocksec.com/icon/0ce7d458db0511a7b405913d692a6e8c0dc00bde394b216b07e59f39b7da53ae.png",
                        "isERC1155": false,
                        "isERC721": false,
                        "sign": false,
                        "value": ""
                    }
                ]
            },
            {
                "account": "0x771907eabb2620afeb2d4fd18284c0d95f7d495e",
                "assets": [
                    {
                        "address": "0xcb97e65f07da24d46bcdd078ebebd7c6e6e3d750",
                        "amount": "15,067.5872",
                        "iconUrl": "https://assets.blocksec.com/icon/0ce7d458db0511a7b405913d692a6e8c0dc00bde394b216b07e59f39b7da53ae.png",
                        "isERC1155": false,
                        "isERC721": false,
                        "sign": true,
                        "value": ""
                    }
                ]
            }
        ]
    },
    "profile": {
        "basic_info": {
            "baseFee": "",
            "blockNumber": 4420541,
            "callData": "0xa9059cbb000000000000000000000000771907eabb2620afeb2d4fd18284c0d95f7d495e0000000000000000000000000000000000000000000000000000015ed1d17a00",
            "debugEnable": true,
            "errorInfo": "",
            "eventCount": 1,
            "feeRecipient": "0xc0ea08a2d404d3172d2add29a45be56da40e2949",
            "formatValue": "0",
            "gasLimit": 120000,
            "gasPrice": "40",
            "gasUsed": 51411,
            "intTxnCount": 0,
            "internalRevert": false,
            "internalRevertMessage": "",
            "isContractCreation": false,
            "isFlashloan": false,
            "maxFee": "",
            "nonce": 460283,
            "overwritedBlockNumber": -1,
            "priorityFee": "",
            "receiver": "0xcb97e65f07da24d46bcdd078ebebd7c6e6e3d750",
            "revertMessage": "",
            "sender": "0x69ea6b31ef305d6b99bb2d4c9d99456fa108b02a",
            "simulationEnable": true,
            "sourceTxnHash": "0xd75450817d76b2497abe0458d28225abe015c987829120fbe941c54acf3583af",
            "status": true,
            "timestamp": "2017-10-24T11:59:27Z",
            "transactionFee": "0.00205644",
            "txnHash": "0xd75450817d76b2497abe0458d28225abe015c987829120fbe941c54acf3583af",
            "txnIndex": 4,
            "type": 0,
            "value": "0"
        },
        "fund_flow": [
            {
                "amount": "15,067.5872",
                "from": "0x69ea6b31ef305d6b99bb2d4c9d99456fa108b02a",
                "id": 1,
                "isERC1155": false,
                "isERC721": false,
                "isReverted": false,
                "order": 1,
                "to": "0x771907eabb2620afeb2d4fd18284c0d95f7d495e",
                "token": "0xcb97e65f07da24d46bcdd078ebebd7c6e6e3d750"
            }
        ],
        "token_infos": [
            {
                "address": "0xc02aaa39b223fe8d0a0e5c4f27ead9083c756cc2",
                "decimals": 18
            },
            {
                "address": "0xcb97e65f07da24d46bcdd078ebebd7c6e6e3d750",
                "decimals": 8
            },
            {
                "address": "0xeeeeeeeeeeeeeeeeeeeeeeeeeeeeeeeeeeeeeeee",
                "decimals": 18
            }
        ]
    },
    "address_label": {
        "labels": [
            {
                "address": "0xeeeeeeeeeeeeeeeeeeeeeeeeeeeeeeeeeeeeeeee",
                "label": "Ether"
            },
            {
                "address": "0xcb97e65f07da24d46bcdd078ebebd7c6e6e3d750",
                "label": "Bytom: Old Token"
            },
            {
                "address": "0x0000000000000000000000000000000000000001",
                "label": "Precompiled"
            },
            {
                "address": "0x0000000000000000000000000000000000000002",
                "label": "Precompiled"
            },
            {
                "address": "0x0000000000000000000000000000000000000003",
                "label": "Precompiled"
            },
            {
                "address": "0x0000000000000000000000000000000000000004",
                "label": "Precompiled"
            }
        ]
    },
    "trace": {
        "accountLabels": null,
        "dataMap": {
            "-1": {
                "invocation": {
                    "address": "0x69ea6b31ef305d6b99bb2d4c9d99456fa108b02a",
                    "callData": "",
                    "decodedMethod": null,
                    "errorInfo": "",
                    "fromAddress": "",
                    "gasUsed": 0,
                    "id": -1,
                    "methodDecoded": false,
                    "operation": "",
                    "output": "",
                    "revert": false,
                    "revertMessage": "",
                    "selector": "",
                    "status": false,
                    "value": ""
                },
                "nodeType": 0
            },
            "0": {
                "invocation": {
                    "address": "0xcb97e65f07da24d46bcdd078ebebd7c6e6e3d750",
                    "callData": "0x000000000000000000000000771907eabb2620afeb2d4fd18284c0d95f7d495e0000000000000000000000000000000000000000000000000000015ed1d17a00",
                    "decodedMethod": {
                        "callParams": [
                            {
                                "name": "_to",
                                "type": "address",
                                "value": "0x771907eabb2620afeb2d4fd18284c0d95f7d495e"
                            },
                            {
                                "decimalAvailable": true,
                                "name": "_value",
                                "type": "uint256",
                                "value": "1,506,758,720,000"
                            }
                        ],
                        "constructorArguments": "",
                        "name": "transfer",
                        "returnParams": [
                            {
                                "name": "success",
                                "type": "bool",
                                "value": true
                            }
                        ],
                        "signature": "transfer(address,uint256)"
                    },
                    "errorInfo": "",
                    "fromAddress": "0x69ea6b31ef305d6b99bb2d4c9d99456fa108b02a",
                    "gasUsed": 51411,
                    "id": 0,
                    "methodDecoded": true,
                    "operation": "CALL",
                    "output": "0x0000000000000000000000000000000000000000000000000000000000000001",
                    "revert": false,
                    "revertMessage": "",
                    "selector": "0xa9059cbb",
                    "status": true,
                    "value": "0"
                },
                "nodeType": 0
            },
            "1": {
                "event": {
                    "contract": "0xcb97e65f07da24d46bcdd078ebebd7c6e6e3d750",
                    "decodedLog": {
                        "name": "Transfer",
                        "params": [
                            {
                                "name": "_from",
                                "type": "address",
                                "value": "0x69ea6b31ef305d6b99bb2d4c9d99456fa108b02a"
                            },
                            {
                                "name": "_to",
                                "type": "address",
                                "value": "0x771907eabb2620afeb2d4fd18284c0d95f7d495e"
                            },
                            {
                                "decimalAvailable": true,
                                "name": "_value",
                                "type": "uint256",
                                "value": "1,506,758,720,000"
                            }
                        ],
                        "signature": "Transfer(address,address,uint256)"
                    },
                    "id": 1,
                    "logData": "0x0000000000000000000000000000000000000000000000000000015ed1d17a00",
                    "logDecoded": true,
                    "operation": "EVENT",
                    "revert": false,
                    "status": true,
                    "topics": [
                        "0xddf252ad1be2c89b69c2b068fc378daa952ba7f163c4a11628f55a4df523b3ef",
                        "0x00000000000000000000000069ea6b31ef305d6b99bb2d4c9d99456fa108b02a",
                        "0x000000000000000000000000771907eabb2620afeb2d4fd18284c0d95f7d495e"
                    ]
                },
                "nodeType": 1
            }
        },
        "gasFlame": [
            {
                "children": [
                    {
                        "children": [
                            {
                                "children": [],
                                "depth": 0,
                                "name": "Initial Gas",
                                "value": 23128
                            },
                            {
                                "children": [],
                                "depth": 0,
                                "name": "Executed Gas",
                                "value": 28283
                            }
                        ],
                        "depth": -1,
                        "name": "Actual Gas Used",
                        "value": 51411
                    },
                    {
                        "children": [],
                        "depth": -1,
                        "name": "Refunded Gas",
                        "value": 0
                    }
                ],
                "depth": -2,
                "name": "Total Gas",
                "value": 51411
            }
        ],
        "isConfirmed": true,
        "mainTrace": [
            {
                "children": [
                    {
                        "children": [
                            {
                                "children": [],
                                "depth": 1,
                                "id": 1,
                                "order": 1
                            }
                        ],
                        "depth": 0,
                        "id": 0,
                        "order": 0
                    }
                ],
                "depth": -1,
                "id": -1,
                "order": -1
            }
        ],
        "mainTraceNodeCount": 2,
        "parentIdMap": {
            "0": -1,
            "1": 0
        },
        "tidyTrace": [
            {
                "children": [
                    {
                        "children": [
                            {
                                "children": [],
                                "depth": 1,
                                "id": 1,
                                "order": 1
                            }
                        ],
                        "depth": 0,
                        "id": 0,
                        "order": 0
                    }
                ],
                "depth": -1,
                "id": -1,
                "order": -1
            }
        ],
        "tidyTraceNodeCount": 2
    },
    "state_change": {
        "stateChanges": [
            {
                "address": "0xcb97e65f07da24d46bcdd078ebebd7c6e6e3d750",
                "erc": "ERC-20",
                "slots": [
                    {
                        "current": "0x000000000000000000000000000000000000000000000000000011c0503ac842",
                        "key": "0x485187f4b622765d9b1927b78eb228cda41c3bc6099b8e880c689fca05667af7",
                        "prev": "0x0000000000000000000000000000000000000000000000000000131f220c4242"
                    },
                    {
                        "current": "0x0000000000000000000000000000000000000000000000000000015ed1d17a00",
                        "key": "0xe28b8064cc4252159525d579d66f8ad04ab45d6f92a5b02cfd1c1a54518b4de6",
                        "prev": "0x0000000000000000000000000000000000000000000000000000000000000000"
                    }
                ],
                "storageVariables": [
                    {
                        "name": "balances",
                        "type": "mapping(address => uint256)",
                        "value": {
                            "pairs": [
                                {
                                    "key": "0x69ea6b31ef305d6b99bb2d4c9d99456fa108b02a",
                                    "value": {
                                        "current": "19517677422658",
                                        "prev": "21024436142658",
                                        "typeTag": 1
                                    }
                                },
                                {
                                    "key": "0x771907eabb2620afeb2d4fd18284c0d95f7d495e",
                                    "value": {
                                        "current": "1506758720000",
                                        "prev": "0",
                                        "typeTag": 1
                                    }
                                }
                            ],
                            "typeTag": 4
                        }
                    }
                ]
            }
        ]
    }
}