{
    "balance_change": {
        "balanceChanges": [
            {
                "account": "0x0000000000000000000000000000000000000000",
                "assets": [
                    {
                        "address": "0xae7ab96520de3a18e5e111b5eaab095312d7fe84",
                        "amount": "6.199999999999999998",
                        "iconUrl": "https://assets.blocksec.com/icon/3968fd5c98727016afc635f2849cea0c6ddf42095e660b8a3497ee09185b175e.png",
                        "isERC1155": false,
                        "isERC721": false,
                        "sign": false,
                        "value": "12978.708000000000902"
                    }
                ]
            },
            {
                "account": "0x28f396ec7bf8309c149807e9198324fe38125f9f",
                "assets": [
                    {
                        "address": "0xeeeeeeeeeeeeeeeeeeeeeeeeeeeeeeeeeeeeeeee",
                        "amount": "6.2169815599554398",
                        "iconUrl": "https://assets.blocksec.com/image/1663669189317-3.png",
                        "isERC1155": false,
                        "isERC721": false,
                        "sign": false,
                        "value": "13007.355329278800113"
                    },
                    {
                        "address": "0xae7ab96520de3a18e5e111b5eaab095312d7fe84",
                        "amount": "6.199999999999999998",
                        "iconUrl": "https://assets.blocksec.com/icon/3968fd5c98727016afc635f2849cea0c6ddf42095e660b8a3497ee09185b175e.png",
                        "isERC1155": false,
                        "isERC721": false,
                        "sign": true,
                        "value": "12978.708000000000902"
                    }
                ]
            },
            {
                "account": "0x482579f93dc13e6b434e38b5a0447ca543d88a46",
                "assets": [
                    {
                        "address": "0xeeeeeeeeeeeeeeeeeeeeeeeeeeeeeeeeeeeeeeee",
                        "amount": "0.0169815599554398",
                        "iconUrl": "https://assets.blocksec.com/image/1663669189317-3.png",
                        "isERC1155": false,
                        "isERC721": false,
                        "sign": true,
                        "value": "35.529329195110800312"
                    }
                ]
            },
            {
                "account": "0xae7ab96520de3a18e5e111b5eaab095312d7fe84",
                "assets": [
                    {
                        "address": "0xeeeeeeeeeeeeeeeeeeeeeeeeeeeeeeeeeeeeeeee",
                        "amount": "6.2",
                        "iconUrl": "https://assets.blocksec.com/image/1663669189317-3.png",
                        "isERC1155": false,
                        "isERC721": false,
                        "sign": true,
                        "value": "12971.826000000000112"
                    }
                ]
            }
        ]
    },
    "profile": {
        "basic_info": {
            "baseFee": "79.549528292",
            "blockNumber": 18542623,
            "callData": "0xe0724b6e00000000000000000000000028f396ec7bf8309c149807e9198324fe38125f9f0000000000000000000000000000000000000000000000000000000000000100000000000000000000000000011af01e000000000000000000000000654e54b400000000000000000000000000000000000000000000000000000000000002800000000000000000000000000000000000000000000000000000001816b25100000000000000000000000000000000000000000000000000000000000003409e0000000000000000000000000000000000000000000000000000000000000000000000000000000000000000482579f93dc13e6b434e38b5a0447ca543d88a460000000000000000000000000000000000000000000000000000000000000144a5efb23500000000000000000000000028f396ec7bf8309c149807e9198324fe38125f9f000000000000000000000000000000000000000000000000000000000000004000000000000000000000000000000000000000000000000000000000000000010000000000000000000000000000000000000000000000000000000000000020000000000000000000000000ae7ab96520de3a18e5e111b5eaab095312d7fe84000000000000000000000000000000000000000000000000560ad326a76c000000000000000000000000000000000000000000000000000000000000000000600000000000000000000000000000000000000000000000000000000000000024a1903eab000000000000000000000000ef8e1b4b676a5285db79d55d3288bc5fe65c71cc00000000000000000000000000000000000000000000000000000000000000000000000000000000000000000000000000000000000000000000000000000000000000000000000000000000000000000000000000000041a32ae804d8e391c2c7878822ad82b24004b62958febe20a5800c2eeafb42cd322102fb54167116f5ec7d5e6ed180422b188a61ea90b0baa67b9bb397534ae3671c00000000000000000000000000000000000000000000000000000000000000",
            "debugEnable": true,
            "errorInfo": "",
            "eventCount": 7,
            "feeRecipient": "0x1f9090aae28b8a3dceadf281b0f12828e676c326",
            "formatValue": "0",
            "gasLimit": 283150,
            "gasPrice": "79.669528292",
            "gasUsed": 214692,
            "intTxnCount": 17,
            "internalRevert": false,
            "internalRevertMessage": "",
            "isContractCreation": false,
            "isFlashloan": false,
            "maxFee": "91.911",
            "nonce": 64699,
            "overwritedBlockNumber": -1,
            "priorityFee": "0.12",
            "receiver": "0x9d58779365b067d5d3fcc6e92d237acd06f1e6a1",
            "revertMessage": "",
            "sender": "0x1ced2cef30d40bb3617f8d455071b69f3b12d06f",
            "simulationEnable": true,
            "sourceTxnHash": "0xd790b2daf103c122f5f3115d22dcacb370637b9a41229476bab3b2d70ebc3702",
            "status": true,
            "timestamp": "2023-11-10T16:05:11Z",
            "transactionFee": "0.017104410368066064",
            "txnHash": "0xd790b2daf103c122f5f3115d22dcacb370637b9a41229476bab3b2d70ebc3702",
            "txnIndex": 76,
            "type": 2,
            "value": "0"
        },
        "fund_flow": [
            {
                "amount": "6.2",
                "from": "0x28f396ec7bf8309c149807e9198324fe38125f9f",
                "id": 1,
                "isERC1155": false,
                "isERC721": false,
                "isReverted": false,
                "order": 1,
                "to": "0xae7ab96520de3a18e5e111b5eaab095312d7fe84",
                "token": "0xeeeeeeeeeeeeeeeeeeeeeeeeeeeeeeeeeeeeeeee"
            },
            {
                "amount": "6.199999999999999998",
                "from": "0x0000000000000000000000000000000000000000",
                "id": 2,
                "isERC1155": false,
                "isERC721": false,
                "isReverted": false,
                "order": 2,
                "to": "0x28f396ec7bf8309c149807e9198324fe38125f9f",
                "token": "0xae7ab96520de3a18e5e111b5eaab095312d7fe84"
            },
            {
                "amount": "0.0169815599554398",
                "from": "0x28f396ec7bf8309c149807e9198324fe38125f9f",
                "id": 3,
                "isERC1155": false,
                "isERC721": false,
                "isReverted": false,
                "order": 3,
                "to": "0x482579f93dc13e6b434e38b5a0447ca543d88a46",
                "token": "0xeeeeeeeeeeeeeeeeeeeeeeeeeeeeeeeeeeeeeeee"
            }
        ],
        "token_infos": [
            {
                "address": "0xae7ab96520de3a18e5e111b5eaab095312d7fe84",
                "decimals": 18
            },
            {
                "address": "0xc02aaa39b223fe8d0a0e5c4f27ead9083c756cc2",
                "decimals": 18
            },
            {
                "address": "0xeeeeeeeeeeeeeeeeeeeeeeeeeeeeeeeeeeeeeeee",
                "decimals": 18
            }
        ]
    },
    "address_label": {
        "labels": [
            {
                "address": "0x9d58779365b067d5d3fcc6e92d237acd06f1e6a1",
                "label": "Argent: Argent Module"
            },
            {
                "address": "0x769d03e6bf7c3ecce37f48ed2a6fff3a8acef351",
                "label": "LidoFilter"
            },
            {
                "address": "0x2b33cf282f867a7ff693a66e11b0fcc5552e4425",
                "label": "Lido: DAO Impl 1.0.0"
            },
            {
                "address": "0xae7ab96520de3a18e5e111b5eaab095312d7fe84",
                "label": "Lido: stETH Token"
            },
            {
                "address": "0x3d31d91003f9327623caec2e326b6bc681bc3167",
                "label": "DappRegistry"
            },
            {
                "address": "0x28f396ec7bf8309c149807e9198324fe38125f9f",
                "label": "Proxy"
            },
            {
                "address": "0x0000000000000000000000000000000000000003",
                "label": "Precompiled"
            },
            {
                "address": "0x0000000000000000000000000000000000000001",
                "label": "Precompiled"
            },
            {
                "address": "0x0000000000000000000000000000000000000002",
                "label": "Precompiled"
            },
            {
                "address": "0x0000000000000000000000000000000000000004",
                "label": "Precompiled"
            },
            {
                "address": "0xeeeeeeeeeeeeeeeeeeeeeeeeeeeeeeeeeeeeeeee",
                "label": "Ether"
            },
            {
                "address": "0x1ced2cef30d40bb3617f8d455071b69f3b12d06f",
                "label": "Argent: Relayer 8"
            },
            {
                "address": "0xab00ea153c43575184ff11dd5e713c96be005573",
                "label": "Argent: Base Wallet"
            },
            {
                "address": "0x0000000000000000000000000000000000000000",
                "label": "Null Address"
            },
            {
                "address": "0x17144556fd3424edc8fc8a4c940b2d04936d17eb",
                "label": "Lido: stETH Token Impl 2.0.0"
            },
            {
                "address": "0xb8ffc3cd6e7cf5a098a1c92f48009765b24088dc",
                "label": "Lido: DAO"
            }
        ]
    },
    "trace": {
        "accountLabels": null,
        "dataMap": {
            "-1": {
                "invocation": {
                    "address": "0x1ced2cef30d40bb3617f8d455071b69f3b12d06f",
                    "callData": "",
                    "decodedMethod": null,
                    "errorInfo": "",
                    "fromAddress": "",
                    "gasUsed": 0,
                    "id": -1,
                    "methodDecoded": false,
                    "operation": "",
                    "output": "",
                    "revert": false,
                    "revertMessage": "",
                    "selector": "",
                    "status": false,
                    "value": ""
                },
                "nodeType": 0
            },
            "0": {
                "invocation": {
                    "address": "0x9d58779365b067d5d3fcc6e92d237acd06f1e6a1",
                    "callData": "0x00000000000000000000000028f396ec7bf8309c149807e9198324fe38125f9f0000000000000000000000000000000000000000000000000000000000000100000000000000000000000000011af01e000000000000000000000000654e54b400000000000000000000000000000000000000000000000000000000000002800000000000000000000000000000000000000000000000000000001816b25100000000000000000000000000000000000000000000000000000000000003409e0000000000000000000000000000000000000000000000000000000000000000000000000000000000000000482579f93dc13e6b434e38b5a0447ca543d88a460000000000000000000000000000000000000000000000000000000000000144a5efb23500000000000000000000000028f396ec7bf8309c149807e9198324fe38125f9f000000000000000000000000000000000000000000000000000000000000004000000000000000000000000000000000000000000000000000000000000000010000000000000000000000000000000000000000000000000000000000000020000000000000000000000000ae7ab96520de3a18e5e111b5eaab095312d7fe84000000000000000000000000000000000000000000000000560ad326a76c000000000000000000000000000000000000000000000000000000000000000000600000000000000000000000000000000000000000000000000000000000000024a1903eab000000000000000000000000ef8e1b4b676a5285db79d55d3288bc5fe65c71cc00000000000000000000000000000000000000000000000000000000000000000000000000000000000000000000000000000000000000000000000000000000000000000000000000000000000000000000000000000041a32ae804d8e391c2c7878822ad82b24004b62958febe20a5800c2eeafb42cd322102fb54167116f5ec7d5e6ed180422b188a61ea90b0baa67b9bb397534ae3671c00000000000000000000000000000000000000000000000000000000000000",
                    "decodedMethod": {
                        "callParams": [
                            {
                                "name": "_wallet",
                                "type": "address",
                                "value": "0x28f396ec7bf8309c149807e9198324fe38125f9f"
                            },
                            {
                                "name": "_data",
                                "type": "bytes",
                                "value": "0xa5efb23500000000000000000000000028f396ec7bf8309c149807e9198324fe38125f9f000000000000000000000000000000000000000000000000000000000000004000000000000000000000000000000000000000000000000000000000000000010000000000000000000000000000000000000000000000000000000000000020000000000000000000000000ae7ab96520de3a18e5e111b5eaab095312d7fe84000000000000000000000000000000000000000000000000560ad326a76c000000000000000000000000000000000000000000000000000000000000000000600000000000000000000000000000000000000000000000000000000000000024a1903eab000000000000000000000000ef8e1b4b676a5285db79d55d3288bc5fe65c71cc00000000000000000000000000000000000000000000000000000000"
                            },
                            {
                                "name": "_nonce",
                                "type": "uint256",
                                "value": "6,309,727,303,080,265,813,262,166,190,005,668,738,344,309,940"
                            },
                            {
                                "name": "_signatures",
                                "type": "bytes",
                                "value": "0xa32ae804d8e391c2c7878822ad82b24004b62958febe20a5800c2eeafb42cd322102fb54167116f5ec7d5e6ed180422b188a61ea90b0baa67b9bb397534ae3671c"
                            },
                            {
                                "name": "_gasPrice",
                                "type": "uint256",
                                "value": "103,460,000,000"
                            },
                            {
                                "name": "_gasLimit",
                                "type": "uint256",
                                "value": "213,150"
                            },
                            {
                                "name": "_refundToken",
                                "type": "address",
                                "value": "0x0000000000000000000000000000000000000000"
                            },
                            {
                                "name": "_refundAddress",
                                "type": "address",
                                "value": "0x482579f93dc13e6b434e38b5a0447ca543d88a46"
                            }
                        ],
                        "constructorArguments": "",
                        "name": "execute",
                        "returnParams": [
                            {
                                "name": "",
                                "type": "bool",
                                "value": true
                            }
                        ],
                        "signature": "execute(address,bytes,uint256,bytes,uint256,uint256,address,address)"
                    },
                    "errorInfo": "",
                    "fromAddress": "0x1ced2cef30d40bb3617f8d455071b69f3b12d06f",
                    "gasUsed": 214692,
                    "id": 0,
                    "methodDecoded": true,
                    "operation": "CALL",
                    "output": "0x0000000000000000000000000000000000000000000000000000000000000001",
                    "revert": false,
                    "revertMessage": "",
                    "selector": "0xe0724b6e",
                    "status": true,
                    "value": "0"
                },
                "nodeType": 0
            },
            "1": {
                "invocation": {
                    "address": "0x0000000000000000000000000000000000000001",
                    "callData": "0xea8a655bea329ef704a7d17cc2520ac8b2748016807ba62662d686ae000000000000000000000000000000000000000000000000000000000000001ca32ae804d8e391c2c7878822ad82b24004b62958febe20a5800c2eeafb42cd322102fb54167116f5ec7d5e6ed180422b188a61ea90b0baa67b9bb397534ae367",
                    "decodedMethod": {
                        "callParams": [
                            {
                                "name": "hash",
                                "type": "bytes32",
                                "value": "0x7f3291f1ea8a655bea329ef704a7d17cc2520ac8b2748016807ba62662d686ae"
                            },
                            {
                                "name": "v",
                                "type": "uint256",
                                "value": "28"
                            },
                            {
                                "name": "r",
                                "type": "bytes32",
                                "value": "0xa32ae804d8e391c2c7878822ad82b24004b62958febe20a5800c2eeafb42cd32"
                            },
                            {
                                "name": "s",
                                "type": "bytes32",
                                "value": "0x2102fb54167116f5ec7d5e6ed180422b188a61ea90b0baa67b9bb397534ae367"
                            }
                        ],
                        "constructorArguments": "",
                        "name": "ecrecover",
                        "returnParams": [
                            {
                                "name": "",
                                "type": "address",
                                "value": "0xb65daeb6f46e4ea93714f4948ea360a57a85bfd0"
                            }
                        ],
                        "signature": "ecrecover(bytes32,uint256,bytes32,bytes32)"
                    },
                    "errorInfo": "",
                    "fromAddress": "0x9d58779365b067d5d3fcc6e92d237acd06f1e6a1",
                    "gasUsed": 3000,
                    "id": 1,
                    "methodDecoded": true,
                    "operation": "STATICCALL",
                    "output": "0x000000000000000000000000b65daeb6f46e4ea93714f4948ea360a57a85bfd0",
                    "revert": false,
                    "revertMessage": "",
                    "selector": "0x7f3291f1",
                    "status": true,
                    "value": "0"
                },
                "nodeType": 0
            },
            "10": {
                "invocation": {
                    "address": "0xae7ab96520de3a18e5e111b5eaab095312d7fe84",
                    "callData": "0x000000000000000000000000ef8e1b4b676a5285db79d55d3288bc5fe65c71cc",
                    "decodedMethod": {
                        "callParams": [
                            {
                                "name": "",
                                "type": "address",
                                "value": "0xef8e1b4b676a5285db79d55d3288bc5fe65c71cc"
                            }
                        ],
                        "constructorArguments": "",
                        "name": "submit",
                        "returnParams": [
                            {
                                "name": "",
                                "type": "uint256",
                                "value": "5,409,743,972,125,545,644"
                            }
                        ],
                        "signature": "submit(address)"
                    },
                    "errorInfo": "",
                    "fromAddress": "0x28f396ec7bf8309c149807e9198324fe38125f9f",
                    "gasUsed": 75977,
                    "id": 10,
                    "methodDecoded": true,
                    "operation": "CALL",
                    "output": "0x0000000000000000000000000000000000000000000000004b13457b085a94ac",
                    "revert": false,
                    "revertMessage": "",
                    "selector": "0xa1903eab",
                    "status": true,
                    "value": "6.2"
                },
                "nodeType": 0
            },
            "11": {
                "invocation": {
                    "address": "0xb8ffc3cd6e7cf5a098a1c92f48009765b24088dc",
                    "callData": "0xf1f3eb40f5bc1ad1344716ced8b8a0431d840b5783aea1fd01786bc26f35ac0f3ca7c3e38968823ccb4c78ea688df41356f182ae1d159e4ee608d30d68cef320",
                    "decodedMethod": {
                        "callParams": [
                            {
                                "name": "_namespace",
                                "type": "bytes32",
                                "value": "0xf1f3eb40f5bc1ad1344716ced8b8a0431d840b5783aea1fd01786bc26f35ac0f"
                            },
                            {
                                "name": "_appId",
                                "type": "bytes32",
                                "value": "0x3ca7c3e38968823ccb4c78ea688df41356f182ae1d159e4ee608d30d68cef320"
                            }
                        ],
                        "constructorArguments": "",
                        "name": "getApp",
                        "returnParams": [
                            {
                                "name": "",
                                "type": "address",
                                "value": "0x17144556fd3424edc8fc8a4c940b2d04936d17eb"
                            }
                        ],
                        "signature": "getApp(bytes32,bytes32)"
                    },
                    "errorInfo": "",
                    "fromAddress": "0xae7ab96520de3a18e5e111b5eaab095312d7fe84",
                    "gasUsed": 8263,
                    "id": 11,
                    "methodDecoded": true,
                    "operation": "CALL",
                    "output": "0x00000000000000000000000017144556fd3424edc8fc8a4c940b2d04936d17eb",
                    "revert": false,
                    "revertMessage": "",
                    "selector": "0xbe00bbd8",
                    "status": true,
                    "value": "0"
                },
                "nodeType": 0
            },
            "12": {
                "invocation": {
                    "address": "0x2b33cf282f867a7ff693a66e11b0fcc5552e4425",
                    "callData": "0xf1f3eb40f5bc1ad1344716ced8b8a0431d840b5783aea1fd01786bc26f35ac0f3ca7c3e38968823ccb4c78ea688df41356f182ae1d159e4ee608d30d68cef320",
                    "decodedMethod": {
                        "callParams": [
                            {
                                "name": "_namespace",
                                "type": "bytes32",
                                "value": "0xf1f3eb40f5bc1ad1344716ced8b8a0431d840b5783aea1fd01786bc26f35ac0f"
                            },
                            {
                                "name": "_appId",
                                "type": "bytes32",
                                "value": "0x3ca7c3e38968823ccb4c78ea688df41356f182ae1d159e4ee608d30d68cef320"
                            }
                        ],
                        "constructorArguments": "",
                        "name": "getApp",
                        "returnParams": [
                            {
                                "name": "",
                                "type": "address",
                                "value": "0x17144556fd3424edc8fc8a4c940b2d04936d17eb"
                            }
                        ],
                        "signature": "getApp(bytes32,bytes32)"
                    },
                    "errorInfo": "",
                    "fromAddress": "0xb8ffc3cd6e7cf5a098a1c92f48009765b24088dc",
                    "gasUsed": 2820,
                    "id": 12,
                    "methodDecoded": true,
                    "operation": "DELEGATECALL",
                    "output": "0x00000000000000000000000017144556fd3424edc8fc8a4c940b2d04936d17eb",
                    "revert": false,
                    "revertMessage": "",
                    "selector": "0xbe00bbd8",
                    "status": true,
                    "value": "0"
                },
                "nodeType": 0
            },
            "13": {
                "invocation": {
                    "address": "0x17144556fd3424edc8fc8a4c940b2d04936d17eb",
                    "callData": "0x000000000000000000000000ef8e1b4b676a5285db79d55d3288bc5fe65c71cc",
                    "decodedMethod": {
                        "callParams": [
                            {
                                "name": "_referral",
                                "type": "address",
                                "value": "0xef8e1b4b676a5285db79d55d3288bc5fe65c71cc"
                            }
                        ],
                        "constructorArguments": "",
                        "name": "submit",
                        "returnParams": [
                            {
                                "name": "",
                                "type": "uint256",
                                "value": "5,409,743,972,125,545,644"
                            }
                        ],
                        "signature": "submit(address)"
                    },
                    "errorInfo": "",
                    "fromAddress": "0xae7ab96520de3a18e5e111b5eaab095312d7fe84",
                    "gasUsed": 57097,
                    "id": 13,
                    "methodDecoded": true,
                    "operation": "DELEGATECALL",
                    "output": "0x0000000000000000000000000000000000000000000000004b13457b085a94ac",
                    "revert": false,
                    "revertMessage": "",
                    "selector": "0xa1903eab",
                    "status": true,
                    "value": "6.2"
                },
                "nodeType": 0
            },
            "14": {
                "event": {
                    "contract": "0xae7ab96520de3a18e5e111b5eaab095312d7fe84",
                    "decodedLog": {
                        "name": "Submitted",
                        "params": [
                            {
                                "name": "sender",
                                "type": "address",
                                "value": "0x28f396ec7bf8309c149807e9198324fe38125f9f"
                            },
                            {
                                "name": "amount",
                                "type": "uint256",
                                "value": "6,200,000,000,000,000,000"
                            },
                            {
                                "name": "referral",
                                "type": "address",
                                "value": "0xef8e1b4b676a5285db79d55d3288bc5fe65c71cc"
                            }
                        ],
                        "signature": "Submitted(address,uint256,address)"
                    },
                    "id": 14,
                    "logData": "0x000000000000000000000000000000000000000000000000560ad326a76c0000000000000000000000000000ef8e1b4b676a5285db79d55d3288bc5fe65c71cc",
                    "logDecoded": true,
                    "operation": "EVENT",
                    "revert": false,
                    "status": true,
                    "topics": [
                        "0x96a25c8ce0baabc1fdefd93e9ed25d8e092a3332f3aa9a41722b5697231d1d1a",
                        "0x00000000000000000000000028f396ec7bf8309c149807e9198324fe38125f9f"
                    ]
                },
                "nodeType": 1
            },
            "15": {
                "event": {
                    "contract": "0xae7ab96520de3a18e5e111b5eaab095312d7fe84",
                    "decodedLog": {
                        "name": "Transfer",
                        "params": [
                            {
                                "name": "from",
                                "type": "address",
                                "value": "0x0000000000000000000000000000000000000000"
                            },
                            {
                                "name": "to",
                                "type": "address",
                                "value": "0x28f396ec7bf8309c149807e9198324fe38125f9f"
                            },
                            {
                                "decimalAvailable": true,
                                "name": "value",
                                "type": "uint256",
                                "value": "6,199,999,999,999,999,998"
                            }
                        ],
                        "signature": "Transfer(address,address,uint256)"
                    },
                    "id": 15,
                    "logData": "0x000000000000000000000000000000000000000000000000560ad326a76bfffe",
                    "logDecoded": true,
                    "operation": "EVENT",
                    "revert": false,
                    "status": true,
                    "topics": [
                        "0xddf252ad1be2c89b69c2b068fc378daa952ba7f163c4a11628f55a4df523b3ef",
                        "0x0000000000000000000000000000000000000000000000000000000000000000",
                        "0x00000000000000000000000028f396ec7bf8309c149807e9198324fe38125f9f"
                    ]
                },
                "nodeType": 1
            },
            "16": {
                "event": {
                    "contract": "0xae7ab96520de3a18e5e111b5eaab095312d7fe84",
                    "decodedLog": {
                        "name": "TransferShares",
                        "params": [
                            {
                                "name": "from",
                                "type": "address",
                                "value": "0x0000000000000000000000000000000000000000"
                            },
                            {
                                "name": "to",
                                "type": "address",
                                "value": "0x28f396ec7bf8309c149807e9198324fe38125f9f"
                            },
                            {
                                "name": "sharesValue",
                                "type": "uint256",
                                "value": "5,409,743,972,125,545,644"
                            }
                        ],
                        "signature": "TransferShares(address,address,uint256)"
                    },
                    "id": 16,
                    "logData": "0x0000000000000000000000000000000000000000000000004b13457b085a94ac",
                    "logDecoded": true,
                    "operation": "EVENT",
                    "revert": false,
                    "status": true,
                    "topics": [
                        "0x9d9c909296d9c674451c0c24f02cb64981eb3b727f99865939192f880a755dcb",
                        "0x0000000000000000000000000000000000000000000000000000000000000000",
                        "0x00000000000000000000000028f396ec7bf8309c149807e9198324fe38125f9f"
                    ]
                },
                "nodeType": 1
            },
            "17": {
                "event": {
                    "contract": "0x28f396ec7bf8309c149807e9198324fe38125f9f",
                    "decodedLog": {
                        "name": "Invoked",
                        "params": [
                            {
                                "name": "module",
                                "type": "address",
                                "value": "0x9d58779365b067d5d3fcc6e92d237acd06f1e6a1"
                            },
                            {
                                "name": "target",
                                "type": "address",
                                "value": "0xae7ab96520de3a18e5e111b5eaab095312d7fe84"
                            },
                            {
                                "name": "value",
                                "type": "uint256",
                                "value": "6,200,000,000,000,000,000"
                            },
                            {
                                "name": "data",
                                "type": "bytes",
                                "value": "0xa1903eab000000000000000000000000ef8e1b4b676a5285db79d55d3288bc5fe65c71cc"
                            }
                        ],
                        "signature": "Invoked(address,address,uint256,bytes)"
                    },
                    "id": 17,
                    "logData": "0x00000000000000000000000000000000000000000000000000000000000000200000000000000000000000000000000000000000000000000000000000000024a1903eab000000000000000000000000ef8e1b4b676a5285db79d55d3288bc5fe65c71cc00000000000000000000000000000000000000000000000000000000",
                    "logDecoded": true,
                    "operation": "EVENT",
                    "revert": false,
                    "status": true,
                    "topics": [
                        "0x7d2476ab50663f025cff0be85655bcf355f62768615c0c478f3cd5293f807365",
                        "0x0000000000000000000000009d58779365b067d5d3fcc6e92d237acd06f1e6a1",
                        "0x000000000000000000000000ae7ab96520de3a18e5e111b5eaab095312d7fe84",
                        "0x000000000000000000000000000000000000000000000000560ad326a76c0000"
                    ]
                },
                "nodeType": 1
            },
            "18": {
                "invocation": {
                    "address": "0x3d31d91003f9327623caec2e326b6bc681bc3167",
                    "callData": "0x00000000000000000000000028f396ec7bf8309c149807e9198324fe38125f9f000000000000000000000000482579f93dc13e6b434e38b5a0447ca543d88a46000000000000000000000000000000000000000000000000000000000000000000000000000000000000000000000000000000000000000000000000000000800000000000000000000000000000000000000000000000000000000000000000",
                    "decodedMethod": {
                        "callParams": [
                            {
                                "name": "_wallet",
                                "type": "address",
                                "value": "0x28f396ec7bf8309c149807e9198324fe38125f9f"
                            },
                            {
                                "name": "_spender",
                                "type": "address",
                                "value": "0x482579f93dc13e6b434e38b5a0447ca543d88a46"
                            },
                            {
                                "name": "_to",
                                "type": "address",
                                "value": "0x0000000000000000000000000000000000000000"
                            },
                            {
                                "name": "_data",
                                "type": "bytes",
                                "value": "0x"
                            }
                        ],
                        "constructorArguments": "",
                        "name": "isAuthorised",
                        "returnParams": [
                            {
                                "name": "",
                                "type": "bool",
                                "value": true
                            }
                        ],
                        "signature": "isAuthorised(address,address,address,bytes)"
                    },
                    "errorInfo": "",
                    "fromAddress": "0x9d58779365b067d5d3fcc6e92d237acd06f1e6a1",
                    "gasUsed": 3579,
                    "id": 18,
                    "methodDecoded": true,
                    "operation": "STATICCALL",
                    "output": "0x0000000000000000000000000000000000000000000000000000000000000001",
                    "revert": false,
                    "revertMessage": "",
                    "selector": "0x5cfdc4d0",
                    "status": true,
                    "value": "0"
                },
                "nodeType": 0
            },
            "19": {
                "invocation": {
                    "address": "0x28f396ec7bf8309c149807e9198324fe38125f9f",
                    "callData": "0x000000000000000000000000482579f93dc13e6b434e38b5a0447ca543d88a46000000000000000000000000000000000000000000000000003c54a388e040b800000000000000000000000000000000000000000000000000000000000000600000000000000000000000000000000000000000000000000000000000000000",
                    "decodedMethod": {
                        "callParams": [
                            {
                                "name": "_target",
                                "type": "address",
                                "value": "0x482579f93dc13e6b434e38b5a0447ca543d88a46"
                            },
                            {
                                "name": "_value",
                                "type": "uint256",
                                "value": "16,981,559,955,439,800"
                            },
                            {
                                "name": "_data",
                                "type": "bytes",
                                "value": "0x"
                            }
                        ],
                        "constructorArguments": "",
                        "name": "invoke",
                        "returnParams": [
                            {
                                "name": "_result",
                                "type": "bytes",
                                "value": "0x"
                            }
                        ],
                        "signature": "invoke(address,uint256,bytes)"
                    },
                    "errorInfo": "",
                    "fromAddress": "0x9d58779365b067d5d3fcc6e92d237acd06f1e6a1",
                    "gasUsed": 13350,
                    "id": 19,
                    "methodDecoded": true,
                    "operation": "CALL",
                    "output": "0x00000000000000000000000000000000000000000000000000000000000000200000000000000000000000000000000000000000000000000000000000000000",
                    "revert": false,
                    "revertMessage": "",
                    "selector": "0x8f6f0332",
                    "status": true,
                    "value": "0"
                },
                "nodeType": 0
            },
            "2": {
                "invocation": {
                    "address": "0x28f396ec7bf8309c149807e9198324fe38125f9f",
                    "callData": "0x",
                    "decodedMethod": {
                        "callParams": [],
                        "constructorArguments": "",
                        "name": "owner",
                        "returnParams": [
                            {
                                "name": "",
                                "type": "address",
                                "value": "0xb65daeb6f46e4ea93714f4948ea360a57a85bfd0"
                            }
                        ],
                        "signature": "owner()"
                    },
                    "errorInfo": "",
                    "fromAddress": "0x9d58779365b067d5d3fcc6e92d237acd06f1e6a1",
                    "gasUsed": 5130,
                    "id": 2,
                    "methodDecoded": true,
                    "operation": "STATICCALL",
                    "output": "0x000000000000000000000000b65daeb6f46e4ea93714f4948ea360a57a85bfd0",
                    "revert": false,
                    "revertMessage": "",
                    "selector": "0x8da5cb5b",
                    "status": true,
                    "value": "0"
                },
                "nodeType": 0
            },
            "20": {
                "invocation": {
                    "address": "0xab00ea153c43575184ff11dd5e713c96be005573",
                    "callData": "0x000000000000000000000000482579f93dc13e6b434e38b5a0447ca543d88a46000000000000000000000000000000000000000000000000003c54a388e040b800000000000000000000000000000000000000000000000000000000000000600000000000000000000000000000000000000000000000000000000000000000",
                    "decodedMethod": {
                        "callParams": [
                            {
                                "name": "_target",
                                "type": "address",
                                "value": "0x482579f93dc13e6b434e38b5a0447ca543d88a46"
                            },
                            {
                                "name": "_value",
                                "type": "uint256",
                                "value": "16,981,559,955,439,800"
                            },
                            {
                                "name": "_data",
                                "type": "bytes",
                                "value": "0x"
                            }
                        ],
                        "constructorArguments": "",
                        "name": "invoke",
                        "returnParams": [
                            {
                                "name": "_result",
                                "type": "bytes",
                                "value": "0x"
                            }
                        ],
                        "signature": "invoke(address,uint256,bytes)"
                    },
                    "errorInfo": "",
                    "fromAddress": "0x28f396ec7bf8309c149807e9198324fe38125f9f",
                    "gasUsed": 13070,
                    "id": 20,
                    "methodDecoded": true,
                    "operation": "DELEGATECALL",
                    "output": "0x00000000000000000000000000000000000000000000000000000000000000200000000000000000000000000000000000000000000000000000000000000000",
                    "revert": false,
                    "revertMessage": "",
                    "selector": "0x8f6f0332",
                    "status": true,
                    "value": "0"
                },
                "nodeType": 0
            },
            "21": {
                "invocation": {
                    "address": "0x482579f93dc13e6b434e38b5a0447ca543d88a46",
                    "callData": "0x",
                    "decodedMethod": null,
                    "errorInfo": "",
                    "fromAddress": "0x28f396ec7bf8309c149807e9198324fe38125f9f",
                    "gasUsed": 0,
                    "id": 21,
                    "methodDecoded": false,
                    "operation": "CALL",
                    "output": "",
                    "revert": false,
                    "revertMessage": "",
                    "selector": "fallback",
                    "status": true,
                    "value": "0.0169815599554398"
                },
                "nodeType": 0
            },
            "22": {
                "event": {
                    "contract": "0x28f396ec7bf8309c149807e9198324fe38125f9f",
                    "decodedLog": {
                        "name": "Invoked",
                        "params": [
                            {
                                "name": "module",
                                "type": "address",
                                "value": "0x9d58779365b067d5d3fcc6e92d237acd06f1e6a1"
                            },
                            {
                                "name": "target",
                                "type": "address",
                                "value": "0x482579f93dc13e6b434e38b5a0447ca543d88a46"
                            },
                            {
                                "name": "value",
                                "type": "uint256",
                                "value": "16,981,559,955,439,800"
                            },
                            {
                                "name": "data",
                                "type": "bytes",
                                "value": "0x"
                            }
                        ],
                        "signature": "Invoked(address,address,uint256,bytes)"
                    },
                    "id": 22,
                    "logData": "0x00000000000000000000000000000000000000000000000000000000000000200000000000000000000000000000000000000000000000000000000000000000",
                    "logDecoded": true,
                    "operation": "EVENT",
                    "revert": false,
                    "status": true,
                    "topics": [
                        "0x7d2476ab50663f025cff0be85655bcf355f62768615c0c478f3cd5293f807365",
                        "0x0000000000000000000000009d58779365b067d5d3fcc6e92d237acd06f1e6a1",
                        "0x000000000000000000000000482579f93dc13e6b434e38b5a0447ca543d88a46",
                        "0x000000000000000000000000000000000000000000000000003c54a388e040b8"
                    ]
                },
                "nodeType": 1
            },
            "23": {
                "event": {
                    "contract": "0x9d58779365b067d5d3fcc6e92d237acd06f1e6a1",
                    "decodedLog": {
                        "name": "Refund",
                        "params": [
                            {
                                "name": "wallet",
                                "type": "address",
                                "value": "0x28f396ec7bf8309c149807e9198324fe38125f9f"
                            },
                            {
                                "name": "refundAddress",
                                "type": "address",
                                "value": "0x482579f93dc13e6b434e38b5a0447ca543d88a46"
                            },
                            {
                                "name": "refundToken",
                                "type": "address",
                                "value": "0x0000000000000000000000000000000000000000"
                            },
                            {
                                "name": "refundAmount",
                                "type": "uint256",
                                "value": "16,981,559,955,439,800"
                            }
                        ],
                        "signature": "Refund(address,address,address,uint256)"
                    },
                    "id": 23,
                    "logData": "0x0000000000000000000000000000000000000000000000000000000000000000000000000000000000000000000000000000000000000000003c54a388e040b8",
                    "logDecoded": true,
                    "operation": "EVENT",
                    "revert": false,
                    "status": true,
                    "topics": [
                        "0x22edd2bbb0b0afbdcf90d91da8a5e2100f8d8f67cdc766dee1742e9a36d6add3",
                        "0x00000000000000000000000028f396ec7bf8309c149807e9198324fe38125f9f",
                        "0x000000000000000000000000482579f93dc13e6b434e38b5a0447ca543d88a46"
                    ]
                },
                "nodeType": 1
            },
            "24": {
                "event": {
                    "contract": "0x9d58779365b067d5d3fcc6e92d237acd06f1e6a1",
                    "decodedLog": {
                        "name": "TransactionExecuted",
                        "params": [
                            {
                                "name": "wallet",
                                "type": "address",
                                "value": "0x28f396ec7bf8309c149807e9198324fe38125f9f"
                            },
                            {
                                "name": "success",
                                "type": "bool",
                                "value": true
                            },
                            {
                                "name": "returnData",
                                "type": "bytes",
                                "value": "0x00000000000000000000000000000000000000000000000000000000000000200000000000000000000000000000000000000000000000000000000000000001000000000000000000000000000000000000000000000000000000000000002000000000000000000000000000000000000000000000000000000000000000200000000000000000000000000000000000000000000000004b13457b085a94ac"
                            },
                            {
                                "name": "signedHash",
                                "type": "bytes32",
                                "value": "0x7f3291f1ea8a655bea329ef704a7d17cc2520ac8b2748016807ba62662d686ae"
                            }
                        ],
                        "signature": "TransactionExecuted(address,bool,bytes,bytes32)"
                    },
                    "id": 24,
                    "logData": "0x00000000000000000000000000000000000000000000000000000000000000407f3291f1ea8a655bea329ef704a7d17cc2520ac8b2748016807ba62662d686ae00000000000000000000000000000000000000000000000000000000000000a000000000000000000000000000000000000000000000000000000000000000200000000000000000000000000000000000000000000000000000000000000001000000000000000000000000000000000000000000000000000000000000002000000000000000000000000000000000000000000000000000000000000000200000000000000000000000000000000000000000000000004b13457b085a94ac",
                    "logDecoded": true,
                    "operation": "EVENT",
                    "revert": false,
                    "status": true,
                    "topics": [
                        "0x7da4525a280527268ba2e963ee6c1b18f43c9507bcb1d2560f652ab17c76e90a",
                        "0x00000000000000000000000028f396ec7bf8309c149807e9198324fe38125f9f",
                        "0x0000000000000000000000000000000000000000000000000000000000000001"
                    ]
                },
                "nodeType": 1
            },
            "3": {
                "invocation": {
                    "address": "0xab00ea153c43575184ff11dd5e713c96be005573",
                    "callData": "0x",
                    "decodedMethod": {
                        "callParams": [],
                        "constructorArguments": "",
                        "name": "owner",
                        "returnParams": [
                            {
                                "name": "",
                                "type": "address",
                                "value": "0xb65daeb6f46e4ea93714f4948ea360a57a85bfd0"
                            }
                        ],
                        "signature": "owner()"
                    },
                    "errorInfo": "",
                    "fromAddress": "0x28f396ec7bf8309c149807e9198324fe38125f9f",
                    "gasUsed": 2371,
                    "id": 3,
                    "methodDecoded": true,
                    "operation": "DELEGATECALL",
                    "output": "0x000000000000000000000000b65daeb6f46e4ea93714f4948ea360a57a85bfd0",
                    "revert": false,
                    "revertMessage": "",
                    "selector": "0x8da5cb5b",
                    "status": true,
                    "value": "0"
                },
                "nodeType": 0
            },
            "4": {
                "invocation": {
                    "address": "0x9d58779365b067d5d3fcc6e92d237acd06f1e6a1",
                    "callData": "0x00000000000000000000000028f396ec7bf8309c149807e9198324fe38125f9f000000000000000000000000000000000000000000000000000000000000004000000000000000000000000000000000000000000000000000000000000000010000000000000000000000000000000000000000000000000000000000000020000000000000000000000000ae7ab96520de3a18e5e111b5eaab095312d7fe84000000000000000000000000000000000000000000000000560ad326a76c000000000000000000000000000000000000000000000000000000000000000000600000000000000000000000000000000000000000000000000000000000000024a1903eab000000000000000000000000ef8e1b4b676a5285db79d55d3288bc5fe65c71cc00000000000000000000000000000000000000000000000000000000",
                    "decodedMethod": {
                        "callParams": [
                            {
                                "name": "_wallet",
                                "type": "address",
                                "value": "0x28f396ec7bf8309c149807e9198324fe38125f9f"
                            },
                            {
                                "name": "_transactions",
                                "type": "(address,uint256,bytes)[]",
                                "value": [
                                    [
                                        {
                                            "name": "to",
                                            "type": "address",
                                            "value": "0xae7ab96520de3a18e5e111b5eaab095312d7fe84"
                                        },
                                        {
                                            "name": "value",
                                            "type": "uint256",
                                            "value": "6,200,000,000,000,000,000"
                                        },
                                        {
                                            "name": "data",
                                            "type": "bytes",
                                            "value": "0xa1903eab000000000000000000000000ef8e1b4b676a5285db79d55d3288bc5fe65c71cc"
                                        }
                                    ]
                                ]
                            }
                        ],
                        "constructorArguments": "",
                        "name": "multiCall",
                        "returnParams": [
                            {
                                "name": "",
                                "type": "bytes[]",
                                "value": [
                                    "0x0000000000000000000000000000000000000000000000004b13457b085a94ac"
                                ]
                            }
                        ],
                        "signature": "multiCall(address,(address,uint256,bytes)[])"
                    },
                    "errorInfo": "",
                    "fromAddress": "0x9d58779365b067d5d3fcc6e92d237acd06f1e6a1",
                    "gasUsed": 118136,
                    "id": 4,
                    "methodDecoded": true,
                    "operation": "CALL",
                    "output": "0x00000000000000000000000000000000000000000000000000000000000000200000000000000000000000000000000000000000000000000000000000000001000000000000000000000000000000000000000000000000000000000000002000000000000000000000000000000000000000000000000000000000000000200000000000000000000000000000000000000000000000004b13457b085a94ac",
                    "revert": false,
                    "revertMessage": "",
                    "selector": "0xa5efb235",
                    "status": true,
                    "value": "0"
                },
                "nodeType": 0
            },
            "5": {
                "invocation": {
                    "address": "0x391f0e86da951c03b1183c60b195090671adea88",
                    "callData": "0x00000000000000000000000028f396ec7bf8309c149807e9198324fe38125f9f000000000000000000000000ae7ab96520de3a18e5e111b5eaab095312d7fe84",
                    "decodedMethod": {
                        "callParams": [
                            {
                                "name": "_wallet",
                                "type": "address",
                                "value": "0x28f396ec7bf8309c149807e9198324fe38125f9f"
                            },
                            {
                                "name": "_target",
                                "type": "address",
                                "value": "0xae7ab96520de3a18e5e111b5eaab095312d7fe84"
                            }
                        ],
                        "constructorArguments": "",
                        "name": "getWhitelist",
                        "returnParams": [
                            {
                                "name": "",
                                "type": "uint256",
                                "value": "0"
                            }
                        ],
                        "signature": "getWhitelist(address,address)"
                    },
                    "errorInfo": "",
                    "fromAddress": "0x9d58779365b067d5d3fcc6e92d237acd06f1e6a1",
                    "gasUsed": 2467,
                    "id": 5,
                    "methodDecoded": true,
                    "operation": "STATICCALL",
                    "output": "0x0000000000000000000000000000000000000000000000000000000000000000",
                    "revert": false,
                    "revertMessage": "",
                    "selector": "0x13f4a0ea",
                    "status": true,
                    "value": "0"
                },
                "nodeType": 0
            },
            "6": {
                "invocation": {
                    "address": "0x3d31d91003f9327623caec2e326b6bc681bc3167",
                    "callData": "0x00000000000000000000000028f396ec7bf8309c149807e9198324fe38125f9f000000000000000000000000ae7ab96520de3a18e5e111b5eaab095312d7fe84000000000000000000000000ae7ab96520de3a18e5e111b5eaab095312d7fe8400000000000000000000000000000000000000000000000000000000000000800000000000000000000000000000000000000000000000000000000000000024a1903eab000000000000000000000000ef8e1b4b676a5285db79d55d3288bc5fe65c71cc00000000000000000000000000000000000000000000000000000000",
                    "decodedMethod": {
                        "callParams": [
                            {
                                "name": "_wallet",
                                "type": "address",
                                "value": "0x28f396ec7bf8309c149807e9198324fe38125f9f"
                            },
                            {
                                "name": "_spender",
                                "type": "address",
                                "value": "0xae7ab96520de3a18e5e111b5eaab095312d7fe84"
                            },
                            {
                                "name": "_to",
                                "type": "address",
                                "value": "0xae7ab96520de3a18e5e111b5eaab095312d7fe84"
                            },
                            {
                                "name": "_data",
                                "type": "bytes",
                                "value": "0xa1903eab000000000000000000000000ef8e1b4b676a5285db79d55d3288bc5fe65c71cc"
                            }
                        ],
                        "constructorArguments": "",
                        "name": "isAuthorised",
                        "returnParams": [
                            {
                                "name": "",
                                "type": "bool",
                                "value": true
                            }
                        ],
                        "signature": "isAuthorised(address,address,address,bytes)"
                    },
                    "errorInfo": "",
                    "fromAddress": "0x9d58779365b067d5d3fcc6e92d237acd06f1e6a1",
                    "gasUsed": 9914,
                    "id": 6,
                    "methodDecoded": true,
                    "operation": "STATICCALL",
                    "output": "0x0000000000000000000000000000000000000000000000000000000000000001",
                    "revert": false,
                    "revertMessage": "",
                    "selector": "0x5cfdc4d0",
                    "status": true,
                    "value": "0"
                },
                "nodeType": 0
            },
            "7": {
                "invocation": {
                    "address": "0x769d03e6bf7c3ecce37f48ed2a6fff3a8acef351",
                    "callData": "0x00000000000000000000000028f396ec7bf8309c149807e9198324fe38125f9f000000000000000000000000ae7ab96520de3a18e5e111b5eaab095312d7fe84000000000000000000000000ae7ab96520de3a18e5e111b5eaab095312d7fe8400000000000000000000000000000000000000000000000000000000000000800000000000000000000000000000000000000000000000000000000000000024a1903eab000000000000000000000000ef8e1b4b676a5285db79d55d3288bc5fe65c71cc00000000000000000000000000000000000000000000000000000000",
                    "decodedMethod": {
                        "callParams": [
                            {
                                "name": "",
                                "type": "address",
                                "value": "0x28f396ec7bf8309c149807e9198324fe38125f9f"
                            },
                            {
                                "name": "_spender",
                                "type": "address",
                                "value": "0xae7ab96520de3a18e5e111b5eaab095312d7fe84"
                            },
                            {
                                "name": "_to",
                                "type": "address",
                                "value": "0xae7ab96520de3a18e5e111b5eaab095312d7fe84"
                            },
                            {
                                "name": "_data",
                                "type": "bytes",
                                "value": "0xa1903eab000000000000000000000000ef8e1b4b676a5285db79d55d3288bc5fe65c71cc"
                            }
                        ],
                        "constructorArguments": "",
                        "name": "isValid",
                        "returnParams": [
                            {
                                "name": "valid",
                                "type": "bool",
                                "value": true
                            }
                        ],
                        "signature": "isValid(address,address,address,bytes)"
                    },
                    "errorInfo": "",
                    "fromAddress": "0x3d31d91003f9327623caec2e326b6bc681bc3167",
                    "gasUsed": 1022,
                    "id": 7,
                    "methodDecoded": true,
                    "operation": "STATICCALL",
                    "output": "0x0000000000000000000000000000000000000000000000000000000000000001",
                    "revert": false,
                    "revertMessage": "",
                    "selector": "0xe0274e1d",
                    "status": true,
                    "value": "0"
                },
                "nodeType": 0
            },
            "8": {
                "invocation": {
                    "address": "0x28f396ec7bf8309c149807e9198324fe38125f9f",
                    "callData": "0x000000000000000000000000ae7ab96520de3a18e5e111b5eaab095312d7fe84000000000000000000000000000000000000000000000000560ad326a76c000000000000000000000000000000000000000000000000000000000000000000600000000000000000000000000000000000000000000000000000000000000024a1903eab000000000000000000000000ef8e1b4b676a5285db79d55d3288bc5fe65c71cc00000000000000000000000000000000000000000000000000000000",
                    "decodedMethod": {
                        "callParams": [
                            {
                                "name": "_target",
                                "type": "address",
                                "value": "0xae7ab96520de3a18e5e111b5eaab095312d7fe84"
                            },
                            {
                                "name": "_value",
                                "type": "uint256",
                                "value": "6,200,000,000,000,000,000"
                            },
                            {
                                "name": "_data",
                                "type": "bytes",
                                "value": "0xa1903eab000000000000000000000000ef8e1b4b676a5285db79d55d3288bc5fe65c71cc"
                            }
                        ],
                        "constructorArguments": "",
                        "name": "invoke",
                        "returnParams": [
                            {
                                "name": "_result",
                                "type": "bytes",
                                "value": "0x0000000000000000000000000000000000000000000000004b13457b085a94ac"
                            }
                        ],
                        "signature": "invoke(address,uint256,bytes)"
                    },
                    "errorInfo": "",
                    "fromAddress": "0x9d58779365b067d5d3fcc6e92d237acd06f1e6a1",
                    "gasUsed": 92027,
                    "id": 8,
                    "methodDecoded": true,
                    "operation": "CALL",
                    "output": "0x000000000000000000000000000000000000000000000000000000000000002000000000000000000000000000000000000000000000000000000000000000200000000000000000000000000000000000000000000000004b13457b085a94ac",
                    "revert": false,
                    "revertMessage": "",
                    "selector": "0x8f6f0332",
                    "status": true,
                    "value": "0"
                },
                "nodeType": 0
            },
            "9": {
                "invocation": {
                    "address": "0xab00ea153c43575184ff11dd5e713c96be005573",
                    "callData": "0x000000000000000000000000ae7ab96520de3a18e5e111b5eaab095312d7fe84000000000000000000000000000000000000000000000000560ad326a76c000000000000000000000000000000000000000000000000000000000000000000600000000000000000000000000000000000000000000000000000000000000024a1903eab000000000000000000000000ef8e1b4b676a5285db79d55d3288bc5fe65c71cc00000000000000000000000000000000000000000000000000000000",
                    "decodedMethod": {
                        "callParams": [
                            {
                                "name": "_target",
                                "type": "address",
                                "value": "0xae7ab96520de3a18e5e111b5eaab095312d7fe84"
                            },
                            {
                                "name": "_value",
                                "type": "uint256",
                                "value": "6,200,000,000,000,000,000"
                            },
                            {
                                "name": "_data",
                                "type": "bytes",
                                "value": "0xa1903eab000000000000000000000000ef8e1b4b676a5285db79d55d3288bc5fe65c71cc"
                            }
                        ],
                        "constructorArguments": "",
                        "name": "invoke",
                        "returnParams": [
                            {
                                "name": "_result",
                                "type": "bytes",
                                "value": "0x0000000000000000000000000000000000000000000000004b13457b085a94ac"
                            }
                        ],
                        "signature": "invoke(address,uint256,bytes)"
                    },
                    "errorInfo": "",
                    "fromAddress": "0x28f396ec7bf8309c149807e9198324fe38125f9f",
                    "gasUsed": 91732,
                    "id": 9,
                    "methodDecoded": true,
                    "operation": "DELEGATECALL",
                    "output": "0x000000000000000000000000000000000000000000000000000000000000002000000000000000000000000000000000000000000000000000000000000000200000000000000000000000000000000000000000000000004b13457b085a94ac",
                    "revert": false,
                    "revertMessage": "",
                    "selector": "0x8f6f0332",
                    "status": true,
                    "value": "0"
                },
                "nodeType": 0
            }
        },
        "gasFlame": [
            {
                "children": [
                    {
                        "children": [
                            {
                                "children": [],
                                "depth": 0,
                                "name": "Initial Gas",
                                "value": 26596
                            },
                            {
                                "children": [
                                    {
                                        "children": [],
                                        "depth": 1,
                                        "name": "ecrecover",
                                        "value": 3000
                                    },
                                    {
                                        "children": [
                                            {
                                                "children": [],
                                                "depth": 2,
                                                "name": "owner",
                                                "value": 2371
                                            }
                                        ],
                                        "depth": 1,
                                        "name": "owner",
                                        "value": 5130
                                    },
                                    {
                                        "children": [
                                            {
                                                "children": [],
                                                "depth": 2,
                                                "name": "getWhitelist",
                                                "value": 2467
                                            },
                                            {
                                                "children": [
                                                    {
                                                        "children": [],
                                                        "depth": 3,
                                                        "name": "isValid",
                                                        "value": 1022
                                                    }
                                                ],
                                                "depth": 2,
                                                "name": "isAuthorised",
                                                "value": 9914
                                            },
                                            {
                                                "children": [
                                                    {
                                                        "children": [
                                                            {
                                                                "children": [
                                                                    {
                                                                        "children": [
                                                                            {
                                                                                "children": [],
                                                                                "depth": 6,
                                                                                "name": "getApp",
                                                                                "value": 2820
                                                                            }
                                                                        ],
                                                                        "depth": 5,
                                                                        "name": "getApp",
                                                                        "value": 8263
                                                                    },
                                                                    {
                                                                        "children": [],
                                                                        "depth": 5,
                                                                        "name": "submit",
                                                                        "value": 57097
                                                                    }
                                                                ],
                                                                "depth": 4,
                                                                "name": "submit",
                                                                "value": 75977
                                                            }
                                                        ],
                                                        "depth": 3,
                                                        "name": "invoke",
                                                        "value": 91732
                                                    }
                                                ],
                                                "depth": 2,
                                                "name": "invoke",
                                                "value": 92027
                                            }
                                        ],
                                        "depth": 1,
                                        "name": "multiCall",
                                        "value": 118136
                                    },
                                    {
                                        "children": [],
                                        "depth": 1,
                                        "name": "isAuthorised",
                                        "value": 3579
                                    },
                                    {
                                        "children": [
                                            {
                                                "children": [
                                                    {
                                                        "children": [],
                                                        "depth": 3,
                                                        "name": "fallback",
                                                        "value": 0
                                                    }
                                                ],
                                                "depth": 2,
                                                "name": "invoke",
                                                "value": 13070
                                            }
                                        ],
                                        "depth": 1,
                                        "name": "invoke",
                                        "value": 13350
                                    }
                                ],
                                "depth": 0,
                                "name": "Executed Gas",
                                "value": 188096
                            }
                        ],
                        "depth": -1,
                        "name": "Actual Gas Used",
                        "value": 214692
                    },
                    {
                        "children": [],
                        "depth": -1,
                        "name": "Refunded Gas",
                        "value": 0
                    }
                ],
                "depth": -2,
                "name": "Total Gas",
                "value": 214692
            }
        ],
        "isConfirmed": true,
        "mainTrace": [
            {
                "children": [
                    {
                        "children": [
                            {
                                "children": [],
                                "depth": 1,
                                "id": 1,
                                "order": 1
                            },
                            {
                                "children": [
                                    {
                                        "children": [],
                                        "depth": 2,
                                        "id": 3,
                                        "order": 3
                                    }
                                ],
                                "depth": 1,
                                "id": 2,
                                "order": 2
                            },
                            {
                                "children": [
                                    {
                                        "children": [],
                                        "depth": 2,
                                        "id": 5,
                                        "order": 5
                                    },
                                    {
                                        "children": [
                                            {
                                                "children": [],
                                                "depth": 3,
                                                "id": 7,
                                                "order": 7
                                            }
                                        ],
                                        "depth": 2,
                                        "id": 6,
                                        "order": 6
                                    },
                                    {
                                        "children": [
                                            {
                                                "children": [
                                                    {
                                                        "children": [
                                                            {
                                                                "children": [
                                                                    {
                                                                        "children": [],
                                                                        "depth": 6,
                                                                        "id": 12,
                                                                        "order": 12
                                                                    }
                                                                ],
                                                                "depth": 5,
                                                                "id": 11,
                                                                "order": 11
                                                            },
                                                            {
                                                                "children": [
                                                                    {
                                                                        "children": [],
                                                                        "depth": 6,
                                                                        "id": 14,
                                                                        "order": 14
                                                                    },
                                                                    {
                                                                        "children": [],
                                                                        "depth": 6,
                                                                        "id": 15,
                                                                        "order": 15
                                                                    },
                                                                    {
                                                                        "children": [],
                                                                        "depth": 6,
                                                                        "id": 16,
                                                                        "order": 16
                                                                    }
                                                                ],
                                                                "depth": 5,
                                                                "id": 13,
                                                                "order": 13
                                                            }
                                                        ],
                                                        "depth": 4,
                                                        "id": 10,
                                                        "order": 10
                                                    },
                                                    {
                                                        "children": [],
                                                        "depth": 4,
                                                        "id": 17,
                                                        "order": 17
                                                    }
                                                ],
                                                "depth": 3,
                                                "id": 9,
                                                "order": 9
                                            }
                                        ],
                                        "depth": 2,
                                        "id": 8,
                                        "order": 8
                                    }
                                ],
                                "depth": 1,
                                "id": 4,
                                "order": 4
                            },
                            {
                                "children": [],
                                "depth": 1,
                                "id": 18,
                                "order": 18
                            },
                            {
                                "children": [
                                    {
                                        "children": [
                                            {
                                                "children": [],
                                                "depth": 3,
                                                "id": 21,
                                                "order": 21
                                            },
                                            {
                                                "children": [],
                                                "depth": 3,
                                                "id": 22,
                                                "order": 22
                                            }
                                        ],
                                        "depth": 2,
                                        "id": 20,
                                        "order": 20
                                    }
                                ],
                                "depth": 1,
                                "id": 19,
                                "order": 19
                            },
                            {
                                "children": [],
                                "depth": 1,
                                "id": 23,
                                "order": 23
                            },
                            {
                                "children": [],
                                "depth": 1,
                                "id": 24,
                                "order": 24
                            }
                        ],
                        "depth": 0,
                        "id": 0,
                        "order": 0
                    }
                ],
                "depth": -1,
                "id": -1,
                "order": -1
            }
        ],
        "mainTraceNodeCount": 25,
        "parentIdMap": {
            "0": -1,
            "1": 0,
            "10": 9,
            "11": 10,
            "12": 11,
            "13": 10,
            "14": 13,
            "15": 13,
            "16": 13,
            "17": 9,
            "18": 0,
            "19": 0,
            "2": 0,
            "20": 19,
            "21": 20,
            "22": 20,
            "23": 0,
            "24": 0,
            "3": 2,
            "4": 0,
            "5": 4,
            "6": 4,
            "7": 6,
            "8": 4,
            "9": 8
        },
        "tidyTrace": [
            {
                "children": [
                    {
                        "children": [
                            {
                                "children": [
                                    {
                                        "children": [
                                            {
                                                "children": [
                                                    {
                                                        "children": [
                                                            {
                                                                "children": [
                                                                    {
                                                                        "children": [],
                                                                        "depth": 6,
                                                                        "id": 12,
                                                                        "order": 12
                                                                    }
                                                                ],
                                                                "depth": 5,
                                                                "id": 11,
                                                                "order": 11
                                                            },
                                                            {
                                                                "children": [
                                                                    {
                                                                        "children": [],
                                                                        "depth": 6,
                                                                        "id": 14,
                                                                        "order": 14
                                                                    },
                                                                    {
                                                                        "children": [],
                                                                        "depth": 6,
                                                                        "id": 15,
                                                                        "order": 15
                                                                    },
                                                                    {
                                                                        "children": [],
                                                                        "depth": 6,
                                                                        "id": 16,
                                                                        "order": 16
                                                                    }
                                                                ],
                                                                "depth": 5,
                                                                "id": 13,
                                                                "order": 13
                                                            }
                                                        ],
                                                        "depth": 4,
                                                        "id": 10,
                                                        "order": 10
                                                    },
                                                    {
                                                        "children": [],
                                                        "depth": 4,
                                                        "id": 17,
                                                        "order": 17
                                                    }
                                                ],
                                                "depth": 3,
                                                "id": 9,
                                                "order": 9
                                            }
                                        ],
                                        "depth": 2,
                                        "id": 8,
                                        "order": 8
                                    }
                                ],
                                "depth": 1,
                                "id": 4,
                                "order": 4
                            },
                            {
                                "children": [
                                    {
                                        "children": [
                                            {
                                                "children": [],
                                                "depth": 3,
                                                "id": 21,
                                                "order": 21
                                            },
                                            {
                                                "children": [],
                                                "depth": 3,
                                                "id": 22,
                                                "order": 22
                                            }
                                        ],
                                        "depth": 2,
                                        "id": 20,
                                        "order": 20
                                    }
                                ],
                                "depth": 1,
                                "id": 19,
                                "order": 19
                            },
                            {
                                "children": [],
                                "depth": 1,
                                "id": 23,
                                "order": 23
                            },
                            {
                                "children": [],
                                "depth": 1,
                                "id": 24,
                                "order": 24
                            }
                        ],
                        "depth": 0,
                        "id": 0,
                        "order": 0
                    }
                ],
                "depth": -1,
                "id": -1,
                "order": -1
            }
        ],
        "tidyTraceNodeCount": 18
    },
    "state_change": {
        "stateChanges": [
            {
                "address": "0x9d58779365b067d5d3fcc6e92d237acd06f1e6a1",
                "erc": "",
                "slots": [
                    {
                        "current": "0x000000000000000000000000011af01e000000000000000000000000654e54b4",
                        "key": "0xbb8ddade669851774adc7867259cc4f211e3f614e017b00563a9f1959f6832f8",
                        "prev": "0x0000000000000000000000000000000000000000000000000000000000000000"
                    }
                ],
                "storageVariables": [
                    {
                        "name": "relayer",
                        "type": "mapping(address => struct RelayerManager.RelayerConfig)",
                        "value": {
                            "pairs": [
                                {
                                    "key": "0x28f396ec7bf8309c149807e9198324fe38125f9f",
                                    "value": {
                                        "fields": [
                                            {
                                                "name": "nonce",
                                                "type": "uint256",
                                                "value": {
                                                    "current": "6309727303080265813262166190005668738344309940",
                                                    "prev": "0",
                                                    "typeTag": 1
                                                }
                                            }
                                        ],
                                        "typeTag": 3
                                    }
                                }
                            ],
                            "typeTag": 4
                        }
                    }
                ]
            },
            {
                "address": "0xae7ab96520de3a18e5e111b5eaab095312d7fe84",
                "erc": "",
                "slots": [
                    {
                        "current": "0x0000000000000000000000000000000000000000000000004b13457b085a94ac",
                        "key": "0x20bc97735df48ba3d2dbb2d012fa9578482f1ea00b2c38bb1b7cef453f95cf63",
                        "prev": "0x0000000000000000000000000000000000000000000000000000000000000000"
                    },
                    {
                        "current": "0x00000000000000000000000000000000000000000000003c3c0f948908c2f77f",
                        "key": "0xed310af23f61f96daefbcd140b306c0bdbf8c178398299741687b90e794772b0",
                        "prev": "0x00000000000000000000000000000000000000000000003be604c1626156f77f"
                    },
                    {
                        "current": "0x00001fc3842bd1f071c000000000190000001fc32e20fec9ca540000011af01f",
                        "key": "0xa3678de4a579be090bed1177e0a24f77cc29d181ac22fd7688aca344d8938015",
                        "prev": "0x00001fc3842bd1f071c000000000190000001fc38423ad6599018e66011aefd3"
                    },
                    {
                        "current": "0x00000000000000000000000000000000000000000006765395c9aca17a7afe15",
                        "key": "0xe3b4b636e601189b5f4c6742edf2538ac12bb61ed03e6da26949d69838fa447e",
                        "prev": "0x0000000000000000000000000000000000000000000676534ab6672672206969"
                    }
                ],
                "storageVariables": []
            }
        ]
    }
}