{
    "balance_change": {
        "balanceChanges": [
            {
                "account": "0x62efe345b5bc96af8efe564fd018c599e619cfe2",
                "assets": [
                    {
                        "address": "0xf230b790e05390fc8295f4d3f60332c93bed42e2",
                        "amount": "0.032692",
                        "iconUrl": "",
                        "isERC1155": false,
                        "isERC721": false,
                        "sign": false,
                        "value": ""
                    }
                ]
            },
            {
                "account": "0xef09b6a37f1c08ae3978dd24c34624b63fe3f1fc",
                "assets": [
                    {
                        "address": "0xf230b790e05390fc8295f4d3f60332c93bed42e2",
                        "amount": "0.032692",
                        "iconUrl": "",
                        "isERC1155": false,
                        "isERC721": false,
                        "sign": true,
                        "value": ""
                    }
                ]
            }
        ]
    },
    "profile": {
        "basic_info": {
            "baseFee": "",
            "blockNumber": 4483810,
            "callData": "0xa9059cbb000000000000000000000000ef09b6a37f1c08ae3978dd24c34624b63fe3f1fc0000000000000000000000000000000000000000000000000000000000007fb4",
            "debugEnable": true,
            "errorInfo": "",
            "eventCount": 1,
            "feeRecipient": "0x829bd824b016326a401d083b33d092293333a830",
            "formatValue": "0",
            "gasLimit": 60000,
            "gasPrice": "0.1",
            "gasUsed": 36963,
            "intTxnCount": 0,
            "internalRevert": false,
            "internalRevertMessage": "",
            "isContractCreation": false,
            "isFlashloan": false,
            "maxFee": "",
            "nonce": 10865,
            "overwritedBlockNumber": -1,
            "priorityFee": "",
            "receiver": "0xf230b790e05390fc8295f4d3f60332c93bed42e2",
            "revertMessage": "",
            "sender": "0x62efe345b5bc96af8efe564fd018c599e619cfe2",
            "simulationEnable": true,
            "sourceTxnHash": "0xd702cff931257d56907e468ad5c10ac3fd1e2343fa95203393605fc934dccfe5",
            "status": true,
            "timestamp": "2017-11-03T17:34:40Z",
            "transactionFee": "0.0000036963",
            "txnHash": "0xd702cff931257d56907e468ad5c10ac3fd1e2343fa95203393605fc934dccfe5",
            "txnIndex": 80,
            "type": 0,
            "value": "0"
        },
        "fund_flow": [
            {
                "amount": "0.032692",
                "from": "0x62efe345b5bc96af8efe564fd018c599e619cfe2",
                "id": 1,
                "isERC1155": false,
                "isERC721": false,
                "isReverted": false,
                "order": 1,
                "to": "0xef09b6a37f1c08ae3978dd24c34624b63fe3f1fc",
                "token": "0xf230b790e05390fc8295f4d3f60332c93bed42e2"
            }
        ],
        "token_infos": [
            {
                "address": "0xc02aaa39b223fe8d0a0e5c4f27ead9083c756cc2",
                "decimals": 18
            },
            {
                "address": "0xf230b790e05390fc8295f4d3f60332c93bed42e2",
                "decimals": 6
            },
            {
                "address": "0xeeeeeeeeeeeeeeeeeeeeeeeeeeeeeeeeeeeeeeee",
                "decimals": 18
            }
        ]
    },
    "address_label": {
        "labels": [
            {
                "address": "0x0000000000000000000000000000000000000003",
                "label": "Precompiled"
            },
            {
                "address": "0x0000000000000000000000000000000000000004",
                "label": "Precompiled"
            },
            {
                "address": "0xeeeeeeeeeeeeeeeeeeeeeeeeeeeeeeeeeeeeeeee",
                "label": "Ether"
            },
            {
                "address": "0xf230b790e05390fc8295f4d3f60332c93bed42e2",
                "label": "TRON: Old TRX Token"
            },
            {
                "address": "0x0000000000000000000000000000000000000001",
                "label": "Precompiled"
            },
            {
                "address": "0x0000000000000000000000000000000000000002",
                "label": "Precompiled"
            }
        ]
    },
    "trace": {
        "accountLabels": null,
        "dataMap": {
            "-1": {
                "invocation": {
                    "address": "0x62efe345b5bc96af8efe564fd018c599e619cfe2",
                    "callData": "",
                    "decodedMethod": null,
                    "errorInfo": "",
                    "fromAddress": "",
                    "gasUsed": 0,
                    "id": -1,
                    "methodDecoded": false,
                    "operation": "",
                    "output": "",
                    "revert": false,
                    "revertMessage": "",
                    "selector": "",
                    "status": false,
                    "value": ""
                },
                "nodeType": 0
            },
            "0": {
                "invocation": {
                    "address": "0xf230b790e05390fc8295f4d3f60332c93bed42e2",
                    "callData": "0x000000000000000000000000ef09b6a37f1c08ae3978dd24c34624b63fe3f1fc0000000000000000000000000000000000000000000000000000000000007fb4",
                    "decodedMethod": {
                        "callParams": [
                            {
                                "name": "_to",
                                "type": "address",
                                "value": "0xef09b6a37f1c08ae3978dd24c34624b63fe3f1fc"
                            },
                            {
                                "decimalAvailable": true,
                                "name": "_value",
                                "type": "uint256",
                                "value": "32,692"
                            }
                        ],
                        "constructorArguments": "",
                        "name": "transfer",
                        "returnParams": [
                            {
                                "name": "success",
                                "type": "bool",
                                "value": true
                            }
                        ],
                        "signature": "transfer(address,uint256)"
                    },
                    "errorInfo": "",
                    "fromAddress": "0x62efe345b5bc96af8efe564fd018c599e619cfe2",
                    "gasUsed": 36963,
                    "id": 0,
                    "methodDecoded": true,
                    "operation": "CALL",
                    "output": "0x0000000000000000000000000000000000000000000000000000000000000001",
                    "revert": false,
                    "revertMessage": "",
                    "selector": "0xa9059cbb",
                    "status": true,
                    "value": "0"
                },
                "nodeType": 0
            },
            "1": {
                "event": {
                    "contract": "0xf230b790e05390fc8295f4d3f60332c93bed42e2",
                    "decodedLog": {
                        "name": "Transfer",
                        "params": [
                            {
                                "name": "_from",
                                "type": "address",
                                "value": "0x62efe345b5bc96af8efe564fd018c599e619cfe2"
                            },
                            {
                                "name": "_to",
                                "type": "address",
                                "value": "0xef09b6a37f1c08ae3978dd24c34624b63fe3f1fc"
                            },
                            {
                                "decimalAvailable": true,
                                "name": "_value",
                                "type": "uint256",
                                "value": "32,692"
                            }
                        ],
                        "signature": "Transfer(address,address,uint256)"
                    },
                    "id": 1,
                    "logData": "0x0000000000000000000000000000000000000000000000000000000000007fb4",
                    "logDecoded": true,
                    "operation": "EVENT",
                    "revert": false,
                    "status": true,
                    "topics": [
                        "0xddf252ad1be2c89b69c2b068fc378daa952ba7f163c4a11628f55a4df523b3ef",
                        "0x00000000000000000000000062efe345b5bc96af8efe564fd018c599e619cfe2",
                        "0x000000000000000000000000ef09b6a37f1c08ae3978dd24c34624b63fe3f1fc"
                    ]
                },
                "nodeType": 1
            }
        },
        "gasFlame": [
            {
                "children": [
                    {
                        "children": [
                            {
                                "children": [],
                                "depth": 0,
                                "name": "Initial Gas",
                                "value": 22936
                            },
                            {
                                "children": [],
                                "depth": 0,
                                "name": "Executed Gas",
                                "value": 14027
                            }
                        ],
                        "depth": -1,
                        "name": "Actual Gas Used",
                        "value": 36963
                    },
                    {
                        "children": [],
                        "depth": -1,
                        "name": "Refunded Gas",
                        "value": 0
                    }
                ],
                "depth": -2,
                "name": "Total Gas",
                "value": 36963
            }
        ],
        "isConfirmed": true,
        "mainTrace": [
            {
                "children": [
                    {
                        "children": [
                            {
                                "children": [],
                                "depth": 1,
                                "id": 1,
                                "order": 1
                            }
                        ],
                        "depth": 0,
                        "id": 0,
                        "order": 0
                    }
                ],
                "depth": -1,
                "id": -1,
                "order": -1
            }
        ],
        "mainTraceNodeCount": 2,
        "parentIdMap": {
            "0": -1,
            "1": 0
        },
        "tidyTrace": [
            {
                "children": [
                    {
                        "children": [
                            {
                                "children": [],
                                "depth": 1,
                                "id": 1,
                                "order": 1
                            }
                        ],
                        "depth": 0,
                        "id": 0,
                        "order": 0
                    }
                ],
                "depth": -1,
                "id": -1,
                "order": -1
            }
        ],
        "tidyTraceNodeCount": 2
    },
    "state_change": {
        "stateChanges": [
            {
                "address": "0xf230b790e05390fc8295f4d3f60332c93bed42e2",
                "erc": "ERC-20",
                "slots": [
                    {
                        "current": "0x00000000000000000000000000000000000000000000000000000000352695df",
                        "key": "0xd21b0f65e73b35505da6dad56476e8277758932dfe132fa78ca90dd52940b760",
                        "prev": "0x0000000000000000000000000000000000000000000000000000000035271593"
                    },
                    {
                        "current": "0x000000000000000000000000000000000000000000000000000000000003e3ac",
                        "key": "0xdb9acc4b348af93dbf7eac8d51afcdcd5d0774b3b3515cb05b14a557f180bae1",
                        "prev": "0x00000000000000000000000000000000000000000000000000000000000363f8"
                    }
                ],
                "storageVariables": [
                    {
                        "name": "balanceOf",
                        "type": "mapping(address => uint256)",
                        "value": {
                            "pairs": [
                                {
                                    "key": "0x62efe345b5bc96af8efe564fd018c599e619cfe2",
                                    "value": {
                                        "current": "891721183",
                                        "prev": "891753875",
                                        "typeTag": 1
                                    }
                                },
                                {
                                    "key": "0xef09b6a37f1c08ae3978dd24c34624b63fe3f1fc",
                                    "value": {
                                        "current": "254892",
                                        "prev": "222200",
                                        "typeTag": 1
                                    }
                                }
                            ],
                            "typeTag": 4
                        }
                    }
                ]
            }
        ]
    }
}