{
    "balance_change": {
        "balanceChanges": [
            {
                "account": "0xfbb1b73c4f0bda4f67dca266ce6ef42f520fbb98",
                "assets": [
                    {
                        "address": "0xddd460bbd9f79847ea08681563e8a9696867210c",
                        "amount": "214,227.66759832",
                        "iconUrl": "https://assets.blocksec.com/icon/b16d7dddccc3df0da4c0a2dbcabb39b5ae5211aa08cf0a885bc870e204e8d340.png",
                        "isERC1155": false,
                        "isERC721": false,
                        "sign": false,
                        "value": "773.5983244"
                    }
                ]
            },
            {
                "account": "0xbbd17c37a45a1c2761ba0a086979132c19a70ca3",
                "assets": [
                    {
                        "address": "0xddd460bbd9f79847ea08681563e8a9696867210c",
                        "amount": "214,227.66759832",
                        "iconUrl": "https://assets.blocksec.com/icon/b16d7dddccc3df0da4c0a2dbcabb39b5ae5211aa08cf0a885bc870e204e8d340.png",
                        "isERC1155": false,
                        "isERC721": false,
                        "sign": true,
                        "value": "773.5983244"
                    }
                ]
            }
        ]
    },
    "profile": {
        "basic_info": {
            "baseFee": "",
            "blockNumber": 12039567,
            "callData": "0xa9059cbb000000000000000000000000bbd17c37a45a1c2761ba0a086979132c19a70ca3000000000000000000000000000000000000000000002d5d4e1d0dd813ab6000",
            "debugEnable": true,
            "errorInfo": "",
            "eventCount": 1,
            "feeRecipient": "0x002e08000acbbae2155fab7ac01929564949070d",
            "formatValue": "0",
            "gasLimit": 150000,
            "gasPrice": "121.000001605",
            "gasUsed": 51280,
            "intTxnCount": 0,
            "internalRevert": false,
            "internalRevertMessage": "",
            "isContractCreation": false,
            "isFlashloan": false,
            "maxFee": "",
            "nonce": 10061315,
            "overwritedBlockNumber": -1,
            "priorityFee": "",
            "receiver": "0xddd460bbd9f79847ea08681563e8a9696867210c",
            "revertMessage": "",
            "sender": "0xfbb1b73c4f0bda4f67dca266ce6ef42f520fbb98",
            "simulationEnable": true,
            "sourceTxnHash": "0xd7a8012da92c4c715a90c1a3f8504aeb0b5f8e5eb4f799a6e9077527b0455908",
            "status": true,
            "timestamp": "2021-03-14T22:54:21Z",
            "transactionFee": "0.0062048800823044",
            "txnHash": "0xd7a8012da92c4c715a90c1a3f8504aeb0b5f8e5eb4f799a6e9077527b0455908",
            "txnIndex": 52,
            "type": 0,
            "value": "0"
        },
        "fund_flow": [
            {
                "amount": "214,227.66759832",
                "from": "0xfbb1b73c4f0bda4f67dca266ce6ef42f520fbb98",
                "id": 1,
                "isERC1155": false,
                "isERC721": false,
                "isReverted": false,
                "order": 1,
                "to": "0xbbd17c37a45a1c2761ba0a086979132c19a70ca3",
                "token": "0xddd460bbd9f79847ea08681563e8a9696867210c"
            }
        ],
        "token_infos": [
            {
                "address": "0xc02aaa39b223fe8d0a0e5c4f27ead9083c756cc2",
                "decimals": 18
            },
            {
                "address": "0xddd460bbd9f79847ea08681563e8a9696867210c",
                "decimals": 18
            },
            {
                "address": "0xeeeeeeeeeeeeeeeeeeeeeeeeeeeeeeeeeeeeeeee",
                "decimals": 18
            }
        ]
    },
    "address_label": {
        "labels": [
            {
                "address": "0x0000000000000000000000000000000000000003",
                "label": "Precompiled"
            },
            {
                "address": "0x0000000000000000000000000000000000000004",
                "label": "Precompiled"
            },
            {
                "address": "0xeeeeeeeeeeeeeeeeeeeeeeeeeeeeeeeeeeeeeeee",
                "label": "Ether"
            },
            {
                "address": "0xfbb1b73c4f0bda4f67dca266ce6ef42f520fbb98",
                "label": "Bittrex"
            },
            {
                "address": "0xbbd17c37a45a1c2761ba0a086979132c19a70ca3",
                "label": "UPBIT"
            },
            {
                "address": "0xddd460bbd9f79847ea08681563e8a9696867210c",
                "label": "Spendcoin Token"
            },
            {
                "address": "0x0000000000000000000000000000000000000001",
                "label": "Precompiled"
            },
            {
                "address": "0x0000000000000000000000000000000000000002",
                "label": "Precompiled"
            }
        ]
    },
    "trace": {
        "accountLabels": null,
        "dataMap": {
            "-1": {
                "invocation": {
                    "address": "0xfbb1b73c4f0bda4f67dca266ce6ef42f520fbb98",
                    "callData": "",
                    "decodedMethod": null,
                    "errorInfo": "",
                    "fromAddress": "",
                    "gasUsed": 0,
                    "id": -1,
                    "methodDecoded": false,
                    "operation": "",
                    "output": "",
                    "revert": false,
                    "revertMessage": "",
                    "selector": "",
                    "status": false,
                    "value": ""
                },
                "nodeType": 0
            },
            "0": {
                "invocation": {
                    "address": "0xddd460bbd9f79847ea08681563e8a9696867210c",
                    "callData": "0x000000000000000000000000bbd17c37a45a1c2761ba0a086979132c19a70ca3000000000000000000000000000000000000000000002d5d4e1d0dd813ab6000",
                    "decodedMethod": {
                        "callParams": [
                            {
                                "name": "to",
                                "type": "address",
                                "value": "0xbbd17c37a45a1c2761ba0a086979132c19a70ca3"
                            },
                            {
                                "decimalAvailable": true,
                                "name": "tokens",
                                "type": "uint256",
                                "value": "214,227,667,598,320,000,000,000"
                            }
                        ],
                        "constructorArguments": "",
                        "name": "transfer",
                        "returnParams": [
                            {
                                "name": "success",
                                "type": "bool",
                                "value": true
                            }
                        ],
                        "signature": "transfer(address,uint256)"
                    },
                    "errorInfo": "",
                    "fromAddress": "0xfbb1b73c4f0bda4f67dca266ce6ef42f520fbb98",
                    "gasUsed": 51280,
                    "id": 0,
                    "methodDecoded": true,
                    "operation": "CALL",
                    "output": "0x0000000000000000000000000000000000000000000000000000000000000001",
                    "revert": false,
                    "revertMessage": "",
                    "selector": "0xa9059cbb",
                    "status": true,
                    "value": "0"
                },
                "nodeType": 0
            },
            "1": {
                "event": {
                    "contract": "0xddd460bbd9f79847ea08681563e8a9696867210c",
                    "decodedLog": {
                        "name": "Transfer",
                        "params": [
                            {
                                "name": "from",
                                "type": "address",
                                "value": "0xfbb1b73c4f0bda4f67dca266ce6ef42f520fbb98"
                            },
                            {
                                "name": "to",
                                "type": "address",
                                "value": "0xbbd17c37a45a1c2761ba0a086979132c19a70ca3"
                            },
                            {
                                "decimalAvailable": true,
                                "name": "tokens",
                                "type": "uint256",
                                "value": "214,227,667,598,320,000,000,000"
                            }
                        ],
                        "signature": "Transfer(address,address,uint256)"
                    },
                    "id": 1,
                    "logData": "0x000000000000000000000000000000000000000000002d5d4e1d0dd813ab6000",
                    "logDecoded": true,
                    "operation": "EVENT",
                    "revert": false,
                    "status": true,
                    "topics": [
                        "0xddf252ad1be2c89b69c2b068fc378daa952ba7f163c4a11628f55a4df523b3ef",
                        "0x000000000000000000000000fbb1b73c4f0bda4f67dca266ce6ef42f520fbb98",
                        "0x000000000000000000000000bbd17c37a45a1c2761ba0a086979132c19a70ca3"
                    ]
                },
                "nodeType": 1
            }
        },
        "gasFlame": [
            {
                "children": [
                    {
                        "children": [
                            {
                                "children": [],
                                "depth": 0,
                                "name": "Initial Gas",
                                "value": 21668
                            },
                            {
                                "children": [],
                                "depth": 0,
                                "name": "Executed Gas",
                                "value": 29612
                            }
                        ],
                        "depth": -1,
                        "name": "Actual Gas Used",
                        "value": 51280
                    },
                    {
                        "children": [],
                        "depth": -1,
                        "name": "Refunded Gas",
                        "value": 0
                    }
                ],
                "depth": -2,
                "name": "Total Gas",
                "value": 51280
            }
        ],
        "isConfirmed": true,
        "mainTrace": [
            {
                "children": [
                    {
                        "children": [
                            {
                                "children": [],
                                "depth": 1,
                                "id": 1,
                                "order": 1
                            }
                        ],
                        "depth": 0,
                        "id": 0,
                        "order": 0
                    }
                ],
                "depth": -1,
                "id": -1,
                "order": -1
            }
        ],
        "mainTraceNodeCount": 2,
        "parentIdMap": {
            "0": -1,
            "1": 0
        },
        "tidyTrace": [
            {
                "children": [
                    {
                        "children": [
                            {
                                "children": [],
                                "depth": 1,
                                "id": 1,
                                "order": 1
                            }
                        ],
                        "depth": 0,
                        "id": 0,
                        "order": 0
                    }
                ],
                "depth": -1,
                "id": -1,
                "order": -1
            }
        ],
        "tidyTraceNodeCount": 2
    },
    "state_change": {
        "stateChanges": [
            {
                "address": "0xddd460bbd9f79847ea08681563e8a9696867210c",
                "erc": "ERC-20",
                "slots": [
                    {
                        "current": "0x0000000000000000000000000000000000000000031ef60d3d96cbd05627ca75",
                        "key": "0x7ace0997206438749574b1ca20eaa89ad7dfbf8413a6387211f96d379ae9c3a2",
                        "prev": "0x0000000000000000000000000000000000000000031f236a8bb3d9a869d32a75"
                    },
                    {
                        "current": "0x000000000000000000000000000000000000000000002d5d4e1d0dd813ab6000",
                        "key": "0x0634a4149641a3fdd759666f8c800163d5a0eac29e408311b05f3e61f0962583",
                        "prev": "0x0000000000000000000000000000000000000000000000000000000000000000"
                    }
                ],
                "storageVariables": [
                    {
                        "name": "balances",
                        "type": "mapping(address => uint256)",
                        "value": {
                            "pairs": [
                                {
                                    "key": "0xbbd17c37a45a1c2761ba0a086979132c19a70ca3",
                                    "value": {
                                        "current": "214227667598320000000000",
                                        "prev": "0",
                                        "typeTag": 1
                                    }
                                },
                                {
                                    "key": "0xfbb1b73c4f0bda4f67dca266ce6ef42f520fbb98",
                                    "value": {
                                        "current": "965884750452891550841555573",
                                        "prev": "966098978120489870841555573",
                                        "typeTag": 1
                                    }
                                }
                            ],
                            "typeTag": 4
                        }
                    }
                ]
            }
        ]
    }
}